{
	"solidity_100/51-60.sol": {
		"Q51": {
			"abi": [
				{
					"inputs": [
						{
							"internalType": "uint256",
							"name": "_n",
							"type": "uint256"
						}
					],
					"name": "setArray",
					"outputs": [],
					"stateMutability": "nonpayable",
					"type": "function"
				}
			],
			"devdoc": {
				"kind": "dev",
				"methods": {},
				"version": 1
			},
			"evm": {
				"assembly": "    /* \"solidity_100/51-60.sol\":75:416  contract Q51 {... */\n  mstore(0x40, 0x80)\n  callvalue\n  dup1\n  iszero\n  tag_1\n  jumpi\n  0x00\n  dup1\n  revert\ntag_1:\n  pop\n  dataSize(sub_0)\n  dup1\n  dataOffset(sub_0)\n  0x00\n  codecopy\n  0x00\n  return\nstop\n\nsub_0: assembly {\n        /* \"solidity_100/51-60.sol\":75:416  contract Q51 {... */\n      mstore(0x40, 0x80)\n      callvalue\n      dup1\n      iszero\n      tag_1\n      jumpi\n      0x00\n      dup1\n      revert\n    tag_1:\n      pop\n      jumpi(tag_2, lt(calldatasize, 0x04))\n      shr(0xe0, calldataload(0x00))\n      dup1\n      0xfb8333eb\n      eq\n      tag_3\n      jumpi\n    tag_2:\n      0x00\n      dup1\n      revert\n        /* \"solidity_100/51-60.sol\":249:412  function setArray(uint _n) public {... */\n    tag_3:\n      tag_4\n      0x04\n      dup1\n      calldatasize\n      sub\n      dup2\n      add\n      swap1\n      tag_5\n      swap2\n      swap1\n      tag_6\n      jump\t// in\n    tag_5:\n      tag_7\n      jump\t// in\n    tag_4:\n      stop\n    tag_7:\n        /* \"solidity_100/51-60.sol\":307:308  3 */\n      0x03\n        /* \"solidity_100/51-60.sol\":302:304  _n */\n      dup2\n        /* \"solidity_100/51-60.sol\":302:308  _n > 3 */\n      gt\n        /* \"solidity_100/51-60.sol\":294:328  require(_n > 3, \"put more than 3\") */\n      tag_9\n      jumpi\n      mload(0x40)\n      0x08c379a000000000000000000000000000000000000000000000000000000000\n      dup2\n      mstore\n      0x04\n      add\n      tag_10\n      swap1\n      tag_11\n      jump\t// in\n    tag_10:\n      mload(0x40)\n      dup1\n      swap2\n      sub\n      swap1\n      revert\n    tag_9:\n        /* \"solidity_100/51-60.sol\":344:350  uint i */\n      0x00\n        /* \"solidity_100/51-60.sol\":339:405  for (uint i=0; i<_n; i++) {... */\n    tag_12:\n        /* \"solidity_100/51-60.sol\":356:358  _n */\n      dup2\n        /* \"solidity_100/51-60.sol\":354:355  i */\n      dup2\n        /* \"solidity_100/51-60.sol\":354:358  i<_n */\n      lt\n        /* \"solidity_100/51-60.sol\":339:405  for (uint i=0; i<_n; i++) {... */\n      iszero\n      tag_13\n      jumpi\n        /* \"solidity_100/51-60.sol\":380:385  array */\n      0x00\n        /* \"solidity_100/51-60.sol\":391:392  i */\n      dup2\n        /* \"solidity_100/51-60.sol\":380:393  array.push(i) */\n      swap1\n      dup1\n      0x01\n      dup2\n      sload\n      add\n      dup1\n      dup3\n      sstore\n      dup1\n      swap2\n      pop\n      pop\n      0x01\n      swap1\n      sub\n      swap1\n      0x00\n      mstore\n      keccak256(0x00, 0x20)\n      add\n      0x00\n      swap1\n      swap2\n      swap1\n      swap2\n      swap1\n      swap2\n      pop\n      sstore\n        /* \"solidity_100/51-60.sol\":360:363  i++ */\n      dup1\n      dup1\n      0x01\n      add\n      swap2\n      pop\n      pop\n        /* \"solidity_100/51-60.sol\":339:405  for (uint i=0; i<_n; i++) {... */\n      jump(tag_12)\n    tag_13:\n      pop\n        /* \"solidity_100/51-60.sol\":249:412  function setArray(uint _n) public {... */\n      pop\n      jump\t// out\n        /* \"#utility.yul\":88:205   */\n    tag_17:\n        /* \"#utility.yul\":197:198   */\n      0x00\n        /* \"#utility.yul\":194:195   */\n      dup1\n        /* \"#utility.yul\":187:199   */\n      revert\n        /* \"#utility.yul\":334:411   */\n    tag_19:\n        /* \"#utility.yul\":371:378   */\n      0x00\n        /* \"#utility.yul\":400:405   */\n      dup2\n        /* \"#utility.yul\":389:405   */\n      swap1\n      pop\n        /* \"#utility.yul\":334:411   */\n      swap2\n      swap1\n      pop\n      jump\t// out\n        /* \"#utility.yul\":417:539   */\n    tag_20:\n        /* \"#utility.yul\":490:514   */\n      tag_31\n        /* \"#utility.yul\":508:513   */\n      dup2\n        /* \"#utility.yul\":490:514   */\n      tag_19\n      jump\t// in\n    tag_31:\n        /* \"#utility.yul\":483:488   */\n      dup2\n        /* \"#utility.yul\":480:515   */\n      eq\n        /* \"#utility.yul\":470:533   */\n      tag_32\n      jumpi\n        /* \"#utility.yul\":529:530   */\n      0x00\n        /* \"#utility.yul\":526:527   */\n      dup1\n        /* \"#utility.yul\":519:531   */\n      revert\n        /* \"#utility.yul\":470:533   */\n    tag_32:\n        /* \"#utility.yul\":417:539   */\n      pop\n      jump\t// out\n        /* \"#utility.yul\":545:684   */\n    tag_21:\n        /* \"#utility.yul\":591:596   */\n      0x00\n        /* \"#utility.yul\":629:635   */\n      dup2\n        /* \"#utility.yul\":616:636   */\n      calldataload\n        /* \"#utility.yul\":607:636   */\n      swap1\n      pop\n        /* \"#utility.yul\":645:678   */\n      tag_34\n        /* \"#utility.yul\":672:677   */\n      dup2\n        /* \"#utility.yul\":645:678   */\n      tag_20\n      jump\t// in\n    tag_34:\n        /* \"#utility.yul\":545:684   */\n      swap3\n      swap2\n      pop\n      pop\n      jump\t// out\n        /* \"#utility.yul\":690:1019   */\n    tag_6:\n        /* \"#utility.yul\":749:755   */\n      0x00\n        /* \"#utility.yul\":798:800   */\n      0x20\n        /* \"#utility.yul\":786:795   */\n      dup3\n        /* \"#utility.yul\":777:784   */\n      dup5\n        /* \"#utility.yul\":773:796   */\n      sub\n        /* \"#utility.yul\":769:801   */\n      slt\n        /* \"#utility.yul\":766:885   */\n      iszero\n      tag_36\n      jumpi\n        /* \"#utility.yul\":804:883   */\n      tag_37\n      tag_17\n      jump\t// in\n    tag_37:\n        /* \"#utility.yul\":766:885   */\n    tag_36:\n        /* \"#utility.yul\":924:925   */\n      0x00\n        /* \"#utility.yul\":949:1002   */\n      tag_38\n        /* \"#utility.yul\":994:1001   */\n      dup5\n        /* \"#utility.yul\":985:991   */\n      dup3\n        /* \"#utility.yul\":974:983   */\n      dup6\n        /* \"#utility.yul\":970:992   */\n      add\n        /* \"#utility.yul\":949:1002   */\n      tag_21\n      jump\t// in\n    tag_38:\n        /* \"#utility.yul\":939:1002   */\n      swap2\n      pop\n        /* \"#utility.yul\":895:1012   */\n      pop\n        /* \"#utility.yul\":690:1019   */\n      swap3\n      swap2\n      pop\n      pop\n      jump\t// out\n        /* \"#utility.yul\":1025:1194   */\n    tag_22:\n        /* \"#utility.yul\":1109:1120   */\n      0x00\n        /* \"#utility.yul\":1143:1149   */\n      dup3\n        /* \"#utility.yul\":1138:1141   */\n      dup3\n        /* \"#utility.yul\":1131:1150   */\n      mstore\n        /* \"#utility.yul\":1183:1187   */\n      0x20\n        /* \"#utility.yul\":1178:1181   */\n      dup3\n        /* \"#utility.yul\":1174:1188   */\n      add\n        /* \"#utility.yul\":1159:1188   */\n      swap1\n      pop\n        /* \"#utility.yul\":1025:1194   */\n      swap3\n      swap2\n      pop\n      pop\n      jump\t// out\n        /* \"#utility.yul\":1200:1365   */\n    tag_23:\n        /* \"#utility.yul\":1340:1357   */\n      0x707574206d6f7265207468616e20330000000000000000000000000000000000\n        /* \"#utility.yul\":1336:1337   */\n      0x00\n        /* \"#utility.yul\":1328:1334   */\n      dup3\n        /* \"#utility.yul\":1324:1338   */\n      add\n        /* \"#utility.yul\":1317:1358   */\n      mstore\n        /* \"#utility.yul\":1200:1365   */\n      pop\n      jump\t// out\n        /* \"#utility.yul\":1371:1737   */\n    tag_24:\n        /* \"#utility.yul\":1513:1516   */\n      0x00\n        /* \"#utility.yul\":1534:1601   */\n      tag_42\n        /* \"#utility.yul\":1598:1600   */\n      0x0f\n        /* \"#utility.yul\":1593:1596   */\n      dup4\n        /* \"#utility.yul\":1534:1601   */\n      tag_22\n      jump\t// in\n    tag_42:\n        /* \"#utility.yul\":1527:1601   */\n      swap2\n      pop\n        /* \"#utility.yul\":1610:1703   */\n      tag_43\n        /* \"#utility.yul\":1699:1702   */\n      dup3\n        /* \"#utility.yul\":1610:1703   */\n      tag_23\n      jump\t// in\n    tag_43:\n        /* \"#utility.yul\":1728:1730   */\n      0x20\n        /* \"#utility.yul\":1723:1726   */\n      dup3\n        /* \"#utility.yul\":1719:1731   */\n      add\n        /* \"#utility.yul\":1712:1731   */\n      swap1\n      pop\n        /* \"#utility.yul\":1371:1737   */\n      swap2\n      swap1\n      pop\n      jump\t// out\n        /* \"#utility.yul\":1743:2162   */\n    tag_11:\n        /* \"#utility.yul\":1909:1913   */\n      0x00\n        /* \"#utility.yul\":1947:1949   */\n      0x20\n        /* \"#utility.yul\":1936:1945   */\n      dup3\n        /* \"#utility.yul\":1932:1950   */\n      add\n        /* \"#utility.yul\":1924:1950   */\n      swap1\n      pop\n        /* \"#utility.yul\":1996:2005   */\n      dup2\n        /* \"#utility.yul\":1990:1994   */\n      dup2\n        /* \"#utility.yul\":1986:2006   */\n      sub\n        /* \"#utility.yul\":1982:1983   */\n      0x00\n        /* \"#utility.yul\":1971:1980   */\n      dup4\n        /* \"#utility.yul\":1967:1984   */\n      add\n        /* \"#utility.yul\":1960:2007   */\n      mstore\n        /* \"#utility.yul\":2024:2155   */\n      tag_45\n        /* \"#utility.yul\":2150:2154   */\n      dup2\n        /* \"#utility.yul\":2024:2155   */\n      tag_24\n      jump\t// in\n    tag_45:\n        /* \"#utility.yul\":2016:2155   */\n      swap1\n      pop\n        /* \"#utility.yul\":1743:2162   */\n      swap2\n      swap1\n      pop\n      jump\t// out\n\n    auxdata: 0xa26469706673582212200e4b9ce474abbe23894effb3f15aaaed3a8b4142a91cfdf0f2cde777c4812f8464736f6c63430008190033\n}\n",
				"bytecode": {
					"linkReferences": {},
					"object": "6080604052348015600e575f80fd5b506101dc8061001c5f395ff3fe608060405234801561000f575f80fd5b5060043610610029575f3560e01c8063fb8333eb1461002d575b5f80fd5b61004760048036038101906100429190610103565b610049565b005b6003811161008c576040517f08c379a000000000000000000000000000000000000000000000000000000000815260040161008390610188565b60405180910390fd5b5f5b818110156100c8575f81908060018154018082558091505060019003905f5260205f20015f9091909190915055808060010191505061008e565b5050565b5f80fd5b5f819050919050565b6100e2816100d0565b81146100ec575f80fd5b50565b5f813590506100fd816100d9565b92915050565b5f60208284031215610118576101176100cc565b5b5f610125848285016100ef565b91505092915050565b5f82825260208201905092915050565b7f707574206d6f7265207468616e203300000000000000000000000000000000005f82015250565b5f610172600f8361012e565b915061017d8261013e565b602082019050919050565b5f6020820190508181035f83015261019f81610166565b905091905056fea26469706673582212200e4b9ce474abbe23894effb3f15aaaed3a8b4142a91cfdf0f2cde777c4812f8464736f6c63430008190033",
					"opcodes": "PUSH1 0x80 PUSH1 0x40 MSTORE CALLVALUE DUP1 ISZERO PUSH1 0xE JUMPI PUSH0 DUP1 REVERT JUMPDEST POP PUSH2 0x1DC DUP1 PUSH2 0x1C PUSH0 CODECOPY PUSH0 RETURN INVALID PUSH1 0x80 PUSH1 0x40 MSTORE CALLVALUE DUP1 ISZERO PUSH2 0xF JUMPI PUSH0 DUP1 REVERT JUMPDEST POP PUSH1 0x4 CALLDATASIZE LT PUSH2 0x29 JUMPI PUSH0 CALLDATALOAD PUSH1 0xE0 SHR DUP1 PUSH4 0xFB8333EB EQ PUSH2 0x2D JUMPI JUMPDEST PUSH0 DUP1 REVERT JUMPDEST PUSH2 0x47 PUSH1 0x4 DUP1 CALLDATASIZE SUB DUP2 ADD SWAP1 PUSH2 0x42 SWAP2 SWAP1 PUSH2 0x103 JUMP JUMPDEST PUSH2 0x49 JUMP JUMPDEST STOP JUMPDEST PUSH1 0x3 DUP2 GT PUSH2 0x8C JUMPI PUSH1 0x40 MLOAD PUSH32 0x8C379A000000000000000000000000000000000000000000000000000000000 DUP2 MSTORE PUSH1 0x4 ADD PUSH2 0x83 SWAP1 PUSH2 0x188 JUMP JUMPDEST PUSH1 0x40 MLOAD DUP1 SWAP2 SUB SWAP1 REVERT JUMPDEST PUSH0 JUMPDEST DUP2 DUP2 LT ISZERO PUSH2 0xC8 JUMPI PUSH0 DUP2 SWAP1 DUP1 PUSH1 0x1 DUP2 SLOAD ADD DUP1 DUP3 SSTORE DUP1 SWAP2 POP POP PUSH1 0x1 SWAP1 SUB SWAP1 PUSH0 MSTORE PUSH1 0x20 PUSH0 KECCAK256 ADD PUSH0 SWAP1 SWAP2 SWAP1 SWAP2 SWAP1 SWAP2 POP SSTORE DUP1 DUP1 PUSH1 0x1 ADD SWAP2 POP POP PUSH2 0x8E JUMP JUMPDEST POP POP JUMP JUMPDEST PUSH0 DUP1 REVERT JUMPDEST PUSH0 DUP2 SWAP1 POP SWAP2 SWAP1 POP JUMP JUMPDEST PUSH2 0xE2 DUP2 PUSH2 0xD0 JUMP JUMPDEST DUP2 EQ PUSH2 0xEC JUMPI PUSH0 DUP1 REVERT JUMPDEST POP JUMP JUMPDEST PUSH0 DUP2 CALLDATALOAD SWAP1 POP PUSH2 0xFD DUP2 PUSH2 0xD9 JUMP JUMPDEST SWAP3 SWAP2 POP POP JUMP JUMPDEST PUSH0 PUSH1 0x20 DUP3 DUP5 SUB SLT ISZERO PUSH2 0x118 JUMPI PUSH2 0x117 PUSH2 0xCC JUMP JUMPDEST JUMPDEST PUSH0 PUSH2 0x125 DUP5 DUP3 DUP6 ADD PUSH2 0xEF JUMP JUMPDEST SWAP2 POP POP SWAP3 SWAP2 POP POP JUMP JUMPDEST PUSH0 DUP3 DUP3 MSTORE PUSH1 0x20 DUP3 ADD SWAP1 POP SWAP3 SWAP2 POP POP JUMP JUMPDEST PUSH32 0x707574206D6F7265207468616E20330000000000000000000000000000000000 PUSH0 DUP3 ADD MSTORE POP JUMP JUMPDEST PUSH0 PUSH2 0x172 PUSH1 0xF DUP4 PUSH2 0x12E JUMP JUMPDEST SWAP2 POP PUSH2 0x17D DUP3 PUSH2 0x13E JUMP JUMPDEST PUSH1 0x20 DUP3 ADD SWAP1 POP SWAP2 SWAP1 POP JUMP JUMPDEST PUSH0 PUSH1 0x20 DUP3 ADD SWAP1 POP DUP2 DUP2 SUB PUSH0 DUP4 ADD MSTORE PUSH2 0x19F DUP2 PUSH2 0x166 JUMP JUMPDEST SWAP1 POP SWAP2 SWAP1 POP JUMP INVALID LOG2 PUSH5 0x6970667358 0x22 SLT KECCAK256 0xE 0x4B SWAP13 0xE4 PUSH21 0xABBE23894EFFB3F15AAAED3A8B4142A91CFDF0F2CD 0xE7 PUSH24 0xC4812F8464736F6C63430008190033000000000000000000 "
				},
				"gasEstimates": {
					"creation": {
						"codeDepositCost": "95200",
						"executionCost": "139",
						"totalCost": "95339"
					},
					"external": {
						"setArray(uint256)": "infinite"
					}
				},
				"methodIdentifiers": {
					"setArray(uint256)": "fb8333eb"
				}
			},
			"storageLayout": {
				"storage": [
					{
						"astId": 4,
						"contract": "solidity_100/51-60.sol:Q51",
						"label": "array",
						"offset": 0,
						"slot": "0",
						"type": "t_array(t_uint256)dyn_storage"
					}
				],
				"types": {
					"t_array(t_uint256)dyn_storage": {
						"base": "t_uint256",
						"encoding": "dynamic_array",
						"label": "uint256[]",
						"numberOfBytes": "32"
					},
					"t_uint256": {
						"encoding": "inplace",
						"label": "uint256",
						"numberOfBytes": "32"
					}
				}
			},
			"userdoc": {
				"kind": "user",
				"methods": {},
				"version": 1
			}
		}
	}
}