{
	"solidity_100/11-20.sol": {
		"Q14": {
			"abi": [
				{
					"inputs": [],
					"name": "getStudent",
					"outputs": [
						{
							"components": [
								{
									"internalType": "uint256",
									"name": "number",
									"type": "uint256"
								},
								{
									"internalType": "string",
									"name": "name",
									"type": "string"
								},
								{
									"internalType": "string",
									"name": "class",
									"type": "string"
								}
							],
							"internalType": "struct Q14.Student[]",
							"name": "",
							"type": "tuple[]"
						}
					],
					"stateMutability": "view",
					"type": "function"
				},
				{
					"inputs": [],
					"name": "i",
					"outputs": [
						{
							"internalType": "uint256",
							"name": "",
							"type": "uint256"
						}
					],
					"stateMutability": "view",
					"type": "function"
				},
				{
					"inputs": [
						{
							"internalType": "string",
							"name": "_name",
							"type": "string"
						},
						{
							"internalType": "string",
							"name": "_class",
							"type": "string"
						}
					],
					"name": "setStudent",
					"outputs": [],
					"stateMutability": "nonpayable",
					"type": "function"
				}
			],
			"devdoc": {
				"kind": "dev",
				"methods": {},
				"version": 1
			},
			"evm": {
				"assembly": "    /* \"solidity_100/11-20.sol\":1447:2219  contract Q14 {... */\n  mstore(0x40, 0x80)\n    /* \"solidity_100/11-20.sol\":1957:1958  1 */\n  0x01\n    /* \"solidity_100/11-20.sol\":1941:1958  uint public i = 1 */\n  dup1\n  sstore\n    /* \"solidity_100/11-20.sol\":1447:2219  contract Q14 {... */\n  callvalue\n  dup1\n  iszero\n  tag_1\n  jumpi\n  0x00\n  dup1\n  revert\ntag_1:\n  pop\n  dataSize(sub_0)\n  dup1\n  dataOffset(sub_0)\n  0x00\n  codecopy\n  0x00\n  return\nstop\n\nsub_0: assembly {\n        /* \"solidity_100/11-20.sol\":1447:2219  contract Q14 {... */\n      mstore(0x40, 0x80)\n      callvalue\n      dup1\n      iszero\n      tag_1\n      jumpi\n      0x00\n      dup1\n      revert\n    tag_1:\n      pop\n      jumpi(tag_2, lt(calldatasize, 0x04))\n      shr(0xe0, calldataload(0x00))\n      dup1\n      0x6cb6598d\n      eq\n      tag_3\n      jumpi\n      dup1\n      0xb439548d\n      eq\n      tag_4\n      jumpi\n      dup1\n      0xe5aa3d58\n      eq\n      tag_5\n      jumpi\n    tag_2:\n      0x00\n      dup1\n      revert\n        /* \"solidity_100/11-20.sol\":1971:2114  function setStudent(string memory _name, string memory _class) public {... */\n    tag_3:\n      tag_6\n      0x04\n      dup1\n      calldatasize\n      sub\n      dup2\n      add\n      swap1\n      tag_7\n      swap2\n      swap1\n      tag_8\n      jump\t// in\n    tag_7:\n      tag_9\n      jump\t// in\n    tag_6:\n      stop\n        /* \"solidity_100/11-20.sol\":2122:2216  function getStudent() public view returns(Student[] memory) {... */\n    tag_4:\n      tag_10\n      tag_11\n      jump\t// in\n    tag_10:\n      mload(0x40)\n      tag_12\n      swap2\n      swap1\n      tag_13\n      jump\t// in\n    tag_12:\n      mload(0x40)\n      dup1\n      swap2\n      sub\n      swap1\n      return\n        /* \"solidity_100/11-20.sol\":1941:1958  uint public i = 1 */\n    tag_5:\n      tag_14\n      tag_15\n      jump\t// in\n    tag_14:\n      mload(0x40)\n      tag_16\n      swap2\n      swap1\n      tag_17\n      jump\t// in\n    tag_16:\n      mload(0x40)\n      dup1\n      swap2\n      sub\n      swap1\n      return\n        /* \"solidity_100/11-20.sol\":1971:2114  function setStudent(string memory _name, string memory _class) public {... */\n    tag_9:\n        /* \"solidity_100/11-20.sol\":2052:2060  students */\n      0x00\n        /* \"solidity_100/11-20.sol\":2066:2091  Student(i, _name, _class) */\n      mload(0x40)\n      dup1\n      0x60\n      add\n      0x40\n      mstore\n      dup1\n        /* \"solidity_100/11-20.sol\":2074:2075  i */\n      sload(0x01)\n        /* \"solidity_100/11-20.sol\":2066:2091  Student(i, _name, _class) */\n      dup2\n      mstore\n      0x20\n      add\n        /* \"solidity_100/11-20.sol\":2077:2082  _name */\n      dup5\n        /* \"solidity_100/11-20.sol\":2066:2091  Student(i, _name, _class) */\n      dup2\n      mstore\n      0x20\n      add\n        /* \"solidity_100/11-20.sol\":2084:2090  _class */\n      dup4\n        /* \"solidity_100/11-20.sol\":2066:2091  Student(i, _name, _class) */\n      dup2\n      mstore\n      pop\n        /* \"solidity_100/11-20.sol\":2052:2092  students.push(Student(i, _name, _class)) */\n      swap1\n      dup1\n      0x01\n      dup2\n      sload\n      add\n      dup1\n      dup3\n      sstore\n      dup1\n      swap2\n      pop\n      pop\n      0x01\n      swap1\n      sub\n      swap1\n      0x00\n      mstore\n      keccak256(0x00, 0x20)\n      swap1\n      0x03\n      mul\n      add\n      0x00\n      swap1\n      swap2\n      swap1\n      swap2\n      swap1\n      swap2\n      pop\n      0x00\n      dup3\n      add\n      mload\n      dup2\n      0x00\n      add\n      sstore\n      0x20\n      dup3\n      add\n      mload\n      dup2\n      0x01\n      add\n      swap1\n      dup2\n      tag_20\n      swap2\n      swap1\n      tag_21\n      jump\t// in\n    tag_20:\n      pop\n      0x40\n      dup3\n      add\n      mload\n      dup2\n      0x02\n      add\n      swap1\n      dup2\n      tag_22\n      swap2\n      swap1\n      tag_21\n      jump\t// in\n    tag_22:\n      pop\n      pop\n      pop\n        /* \"solidity_100/11-20.sol\":2103:2104  i */\n      0x01\n      0x00\n        /* \"solidity_100/11-20.sol\":2103:2106  i++ */\n      dup2\n      sload\n      dup1\n      swap3\n      swap2\n      swap1\n      tag_23\n      swap1\n      tag_24\n      jump\t// in\n    tag_23:\n      swap2\n      swap1\n      pop\n      sstore\n      pop\n        /* \"solidity_100/11-20.sol\":1971:2114  function setStudent(string memory _name, string memory _class) public {... */\n      pop\n      pop\n      jump\t// out\n        /* \"solidity_100/11-20.sol\":2122:2216  function getStudent() public view returns(Student[] memory) {... */\n    tag_11:\n        /* \"solidity_100/11-20.sol\":2164:2180  Student[] memory */\n      0x60\n        /* \"solidity_100/11-20.sol\":2200:2208  students */\n      0x00\n        /* \"solidity_100/11-20.sol\":2193:2208  return students */\n      dup1\n      sload\n      dup1\n      0x20\n      mul\n      0x20\n      add\n      mload(0x40)\n      swap1\n      dup2\n      add\n      0x40\n      mstore\n      dup1\n      swap3\n      swap2\n      swap1\n      dup2\n      dup2\n      mstore\n      0x20\n      add\n      0x00\n      swap1\n    tag_26:\n      dup3\n      dup3\n      lt\n      iszero\n      tag_27\n      jumpi\n      dup4\n      dup3\n      swap1\n      0x00\n      mstore\n      keccak256(0x00, 0x20)\n      swap1\n      0x03\n      mul\n      add\n      mload(0x40)\n      dup1\n      0x60\n      add\n      0x40\n      mstore\n      swap1\n      dup2\n      0x00\n      dup3\n      add\n      sload\n      dup2\n      mstore\n      0x20\n      add\n      0x01\n      dup3\n      add\n      dup1\n      sload\n      tag_29\n      swap1\n      tag_30\n      jump\t// in\n    tag_29:\n      dup1\n      0x1f\n      add\n      0x20\n      dup1\n      swap2\n      div\n      mul\n      0x20\n      add\n      mload(0x40)\n      swap1\n      dup2\n      add\n      0x40\n      mstore\n      dup1\n      swap3\n      swap2\n      swap1\n      dup2\n      dup2\n      mstore\n      0x20\n      add\n      dup3\n      dup1\n      sload\n      tag_31\n      swap1\n      tag_30\n      jump\t// in\n    tag_31:\n      dup1\n      iszero\n      tag_32\n      jumpi\n      dup1\n      0x1f\n      lt\n      tag_33\n      jumpi\n      0x0100\n      dup1\n      dup4\n      sload\n      div\n      mul\n      dup4\n      mstore\n      swap2\n      0x20\n      add\n      swap2\n      jump(tag_32)\n    tag_33:\n      dup3\n      add\n      swap2\n      swap1\n      0x00\n      mstore\n      keccak256(0x00, 0x20)\n      swap1\n    tag_34:\n      dup2\n      sload\n      dup2\n      mstore\n      swap1\n      0x01\n      add\n      swap1\n      0x20\n      add\n      dup1\n      dup4\n      gt\n      tag_34\n      jumpi\n      dup3\n      swap1\n      sub\n      0x1f\n      and\n      dup3\n      add\n      swap2\n    tag_32:\n      pop\n      pop\n      pop\n      pop\n      pop\n      dup2\n      mstore\n      0x20\n      add\n      0x02\n      dup3\n      add\n      dup1\n      sload\n      tag_35\n      swap1\n      tag_30\n      jump\t// in\n    tag_35:\n      dup1\n      0x1f\n      add\n      0x20\n      dup1\n      swap2\n      div\n      mul\n      0x20\n      add\n      mload(0x40)\n      swap1\n      dup2\n      add\n      0x40\n      mstore\n      dup1\n      swap3\n      swap2\n      swap1\n      dup2\n      dup2\n      mstore\n      0x20\n      add\n      dup3\n      dup1\n      sload\n      tag_36\n      swap1\n      tag_30\n      jump\t// in\n    tag_36:\n      dup1\n      iszero\n      tag_37\n      jumpi\n      dup1\n      0x1f\n      lt\n      tag_38\n      jumpi\n      0x0100\n      dup1\n      dup4\n      sload\n      div\n      mul\n      dup4\n      mstore\n      swap2\n      0x20\n      add\n      swap2\n      jump(tag_37)\n    tag_38:\n      dup3\n      add\n      swap2\n      swap1\n      0x00\n      mstore\n      keccak256(0x00, 0x20)\n      swap1\n    tag_39:\n      dup2\n      sload\n      dup2\n      mstore\n      swap1\n      0x01\n      add\n      swap1\n      0x20\n      add\n      dup1\n      dup4\n      gt\n      tag_39\n      jumpi\n      dup3\n      swap1\n      sub\n      0x1f\n      and\n      dup3\n      add\n      swap2\n    tag_37:\n      pop\n      pop\n      pop\n      pop\n      pop\n      dup2\n      mstore\n      pop\n      pop\n      dup2\n      mstore\n      0x20\n      add\n      swap1\n      0x01\n      add\n      swap1\n      jump(tag_26)\n    tag_27:\n      pop\n      pop\n      pop\n      pop\n      swap1\n      pop\n        /* \"solidity_100/11-20.sol\":2122:2216  function getStudent() public view returns(Student[] memory) {... */\n      swap1\n      jump\t// out\n        /* \"solidity_100/11-20.sol\":1941:1958  uint public i = 1 */\n    tag_15:\n      sload(0x01)\n      dup2\n      jump\t// out\n        /* \"#utility.yul\":7:82   */\n    tag_40:\n        /* \"#utility.yul\":40:46   */\n      0x00\n        /* \"#utility.yul\":73:75   */\n      0x40\n        /* \"#utility.yul\":67:76   */\n      mload\n        /* \"#utility.yul\":57:76   */\n      swap1\n      pop\n        /* \"#utility.yul\":7:82   */\n      swap1\n      jump\t// out\n        /* \"#utility.yul\":88:205   */\n    tag_41:\n        /* \"#utility.yul\":197:198   */\n      0x00\n        /* \"#utility.yul\":194:195   */\n      dup1\n        /* \"#utility.yul\":187:199   */\n      revert\n        /* \"#utility.yul\":211:328   */\n    tag_42:\n        /* \"#utility.yul\":320:321   */\n      0x00\n        /* \"#utility.yul\":317:318   */\n      dup1\n        /* \"#utility.yul\":310:322   */\n      revert\n        /* \"#utility.yul\":334:451   */\n    tag_43:\n        /* \"#utility.yul\":443:444   */\n      0x00\n        /* \"#utility.yul\":440:441   */\n      dup1\n        /* \"#utility.yul\":433:445   */\n      revert\n        /* \"#utility.yul\":457:574   */\n    tag_44:\n        /* \"#utility.yul\":566:567   */\n      0x00\n        /* \"#utility.yul\":563:564   */\n      dup1\n        /* \"#utility.yul\":556:568   */\n      revert\n        /* \"#utility.yul\":580:682   */\n    tag_45:\n        /* \"#utility.yul\":621:627   */\n      0x00\n        /* \"#utility.yul\":672:674   */\n      0x1f\n        /* \"#utility.yul\":668:675   */\n      not\n        /* \"#utility.yul\":663:665   */\n      0x1f\n        /* \"#utility.yul\":656:661   */\n      dup4\n        /* \"#utility.yul\":652:666   */\n      add\n        /* \"#utility.yul\":648:676   */\n      and\n        /* \"#utility.yul\":638:676   */\n      swap1\n      pop\n        /* \"#utility.yul\":580:682   */\n      swap2\n      swap1\n      pop\n      jump\t// out\n        /* \"#utility.yul\":688:868   */\n    tag_46:\n        /* \"#utility.yul\":736:813   */\n      0x4e487b7100000000000000000000000000000000000000000000000000000000\n        /* \"#utility.yul\":733:734   */\n      0x00\n        /* \"#utility.yul\":726:814   */\n      mstore\n        /* \"#utility.yul\":833:837   */\n      0x41\n        /* \"#utility.yul\":830:831   */\n      0x04\n        /* \"#utility.yul\":823:838   */\n      mstore\n        /* \"#utility.yul\":857:861   */\n      0x24\n        /* \"#utility.yul\":854:855   */\n      0x00\n        /* \"#utility.yul\":847:862   */\n      revert\n        /* \"#utility.yul\":874:1155   */\n    tag_47:\n        /* \"#utility.yul\":957:984   */\n      tag_93\n        /* \"#utility.yul\":979:983   */\n      dup3\n        /* \"#utility.yul\":957:984   */\n      tag_45\n      jump\t// in\n    tag_93:\n        /* \"#utility.yul\":949:955   */\n      dup2\n        /* \"#utility.yul\":945:985   */\n      add\n        /* \"#utility.yul\":1087:1093   */\n      dup2\n        /* \"#utility.yul\":1075:1085   */\n      dup2\n        /* \"#utility.yul\":1072:1094   */\n      lt\n        /* \"#utility.yul\":1051:1069   */\n      0xffffffffffffffff\n        /* \"#utility.yul\":1039:1049   */\n      dup3\n        /* \"#utility.yul\":1036:1070   */\n      gt\n        /* \"#utility.yul\":1033:1095   */\n      or\n        /* \"#utility.yul\":1030:1118   */\n      iszero\n      tag_94\n      jumpi\n        /* \"#utility.yul\":1098:1116   */\n      tag_95\n      tag_46\n      jump\t// in\n    tag_95:\n        /* \"#utility.yul\":1030:1118   */\n    tag_94:\n        /* \"#utility.yul\":1138:1148   */\n      dup1\n        /* \"#utility.yul\":1134:1136   */\n      0x40\n        /* \"#utility.yul\":1127:1149   */\n      mstore\n        /* \"#utility.yul\":917:1155   */\n      pop\n        /* \"#utility.yul\":874:1155   */\n      pop\n      pop\n      jump\t// out\n        /* \"#utility.yul\":1161:1290   */\n    tag_48:\n        /* \"#utility.yul\":1195:1201   */\n      0x00\n        /* \"#utility.yul\":1222:1242   */\n      tag_97\n      tag_40\n      jump\t// in\n    tag_97:\n        /* \"#utility.yul\":1212:1242   */\n      swap1\n      pop\n        /* \"#utility.yul\":1251:1284   */\n      tag_98\n        /* \"#utility.yul\":1279:1283   */\n      dup3\n        /* \"#utility.yul\":1271:1277   */\n      dup3\n        /* \"#utility.yul\":1251:1284   */\n      tag_47\n      jump\t// in\n    tag_98:\n        /* \"#utility.yul\":1161:1290   */\n      swap2\n      swap1\n      pop\n      jump\t// out\n        /* \"#utility.yul\":1296:1604   */\n    tag_49:\n        /* \"#utility.yul\":1358:1362   */\n      0x00\n        /* \"#utility.yul\":1448:1466   */\n      0xffffffffffffffff\n        /* \"#utility.yul\":1440:1446   */\n      dup3\n        /* \"#utility.yul\":1437:1467   */\n      gt\n        /* \"#utility.yul\":1434:1490   */\n      iszero\n      tag_100\n      jumpi\n        /* \"#utility.yul\":1470:1488   */\n      tag_101\n      tag_46\n      jump\t// in\n    tag_101:\n        /* \"#utility.yul\":1434:1490   */\n    tag_100:\n        /* \"#utility.yul\":1508:1537   */\n      tag_102\n        /* \"#utility.yul\":1530:1536   */\n      dup3\n        /* \"#utility.yul\":1508:1537   */\n      tag_45\n      jump\t// in\n    tag_102:\n        /* \"#utility.yul\":1500:1537   */\n      swap1\n      pop\n        /* \"#utility.yul\":1592:1596   */\n      0x20\n        /* \"#utility.yul\":1586:1590   */\n      dup2\n        /* \"#utility.yul\":1582:1597   */\n      add\n        /* \"#utility.yul\":1574:1597   */\n      swap1\n      pop\n        /* \"#utility.yul\":1296:1604   */\n      swap2\n      swap1\n      pop\n      jump\t// out\n        /* \"#utility.yul\":1610:1758   */\n    tag_50:\n        /* \"#utility.yul\":1708:1714   */\n      dup3\n        /* \"#utility.yul\":1703:1706   */\n      dup2\n        /* \"#utility.yul\":1698:1701   */\n      dup4\n        /* \"#utility.yul\":1685:1715   */\n      calldatacopy\n        /* \"#utility.yul\":1749:1750   */\n      0x00\n        /* \"#utility.yul\":1740:1746   */\n      dup4\n        /* \"#utility.yul\":1735:1738   */\n      dup4\n        /* \"#utility.yul\":1731:1747   */\n      add\n        /* \"#utility.yul\":1724:1751   */\n      mstore\n        /* \"#utility.yul\":1610:1758   */\n      pop\n      pop\n      pop\n      jump\t// out\n        /* \"#utility.yul\":1764:2189   */\n    tag_51:\n        /* \"#utility.yul\":1842:1847   */\n      0x00\n        /* \"#utility.yul\":1867:1933   */\n      tag_105\n        /* \"#utility.yul\":1883:1932   */\n      tag_106\n        /* \"#utility.yul\":1925:1931   */\n      dup5\n        /* \"#utility.yul\":1883:1932   */\n      tag_49\n      jump\t// in\n    tag_106:\n        /* \"#utility.yul\":1867:1933   */\n      tag_48\n      jump\t// in\n    tag_105:\n        /* \"#utility.yul\":1858:1933   */\n      swap1\n      pop\n        /* \"#utility.yul\":1956:1962   */\n      dup3\n        /* \"#utility.yul\":1949:1954   */\n      dup2\n        /* \"#utility.yul\":1942:1963   */\n      mstore\n        /* \"#utility.yul\":1994:1998   */\n      0x20\n        /* \"#utility.yul\":1987:1992   */\n      dup2\n        /* \"#utility.yul\":1983:1999   */\n      add\n        /* \"#utility.yul\":2032:2035   */\n      dup5\n        /* \"#utility.yul\":2023:2029   */\n      dup5\n        /* \"#utility.yul\":2018:2021   */\n      dup5\n        /* \"#utility.yul\":2014:2030   */\n      add\n        /* \"#utility.yul\":2011:2036   */\n      gt\n        /* \"#utility.yul\":2008:2120   */\n      iszero\n      tag_107\n      jumpi\n        /* \"#utility.yul\":2039:2118   */\n      tag_108\n      tag_44\n      jump\t// in\n    tag_108:\n        /* \"#utility.yul\":2008:2120   */\n    tag_107:\n        /* \"#utility.yul\":2129:2183   */\n      tag_109\n        /* \"#utility.yul\":2176:2182   */\n      dup5\n        /* \"#utility.yul\":2171:2174   */\n      dup3\n        /* \"#utility.yul\":2166:2169   */\n      dup6\n        /* \"#utility.yul\":2129:2183   */\n      tag_50\n      jump\t// in\n    tag_109:\n        /* \"#utility.yul\":1848:2189   */\n      pop\n        /* \"#utility.yul\":1764:2189   */\n      swap4\n      swap3\n      pop\n      pop\n      pop\n      jump\t// out\n        /* \"#utility.yul\":2209:2549   */\n    tag_52:\n        /* \"#utility.yul\":2265:2270   */\n      0x00\n        /* \"#utility.yul\":2314:2317   */\n      dup3\n        /* \"#utility.yul\":2307:2311   */\n      0x1f\n        /* \"#utility.yul\":2299:2305   */\n      dup4\n        /* \"#utility.yul\":2295:2312   */\n      add\n        /* \"#utility.yul\":2291:2318   */\n      slt\n        /* \"#utility.yul\":2281:2403   */\n      tag_111\n      jumpi\n        /* \"#utility.yul\":2322:2401   */\n      tag_112\n      tag_43\n      jump\t// in\n    tag_112:\n        /* \"#utility.yul\":2281:2403   */\n    tag_111:\n        /* \"#utility.yul\":2439:2445   */\n      dup2\n        /* \"#utility.yul\":2426:2446   */\n      calldataload\n        /* \"#utility.yul\":2464:2543   */\n      tag_113\n        /* \"#utility.yul\":2539:2542   */\n      dup5\n        /* \"#utility.yul\":2531:2537   */\n      dup3\n        /* \"#utility.yul\":2524:2528   */\n      0x20\n        /* \"#utility.yul\":2516:2522   */\n      dup7\n        /* \"#utility.yul\":2512:2529   */\n      add\n        /* \"#utility.yul\":2464:2543   */\n      tag_51\n      jump\t// in\n    tag_113:\n        /* \"#utility.yul\":2455:2543   */\n      swap2\n      pop\n        /* \"#utility.yul\":2271:2549   */\n      pop\n        /* \"#utility.yul\":2209:2549   */\n      swap3\n      swap2\n      pop\n      pop\n      jump\t// out\n        /* \"#utility.yul\":2555:3389   */\n    tag_8:\n        /* \"#utility.yul\":2643:2649   */\n      0x00\n        /* \"#utility.yul\":2651:2657   */\n      dup1\n        /* \"#utility.yul\":2700:2702   */\n      0x40\n        /* \"#utility.yul\":2688:2697   */\n      dup4\n        /* \"#utility.yul\":2679:2686   */\n      dup6\n        /* \"#utility.yul\":2675:2698   */\n      sub\n        /* \"#utility.yul\":2671:2703   */\n      slt\n        /* \"#utility.yul\":2668:2787   */\n      iszero\n      tag_115\n      jumpi\n        /* \"#utility.yul\":2706:2785   */\n      tag_116\n      tag_41\n      jump\t// in\n    tag_116:\n        /* \"#utility.yul\":2668:2787   */\n    tag_115:\n        /* \"#utility.yul\":2854:2855   */\n      0x00\n        /* \"#utility.yul\":2843:2852   */\n      dup4\n        /* \"#utility.yul\":2839:2856   */\n      add\n        /* \"#utility.yul\":2826:2857   */\n      calldataload\n        /* \"#utility.yul\":2884:2902   */\n      0xffffffffffffffff\n        /* \"#utility.yul\":2876:2882   */\n      dup2\n        /* \"#utility.yul\":2873:2903   */\n      gt\n        /* \"#utility.yul\":2870:2987   */\n      iszero\n      tag_117\n      jumpi\n        /* \"#utility.yul\":2906:2985   */\n      tag_118\n      tag_42\n      jump\t// in\n    tag_118:\n        /* \"#utility.yul\":2870:2987   */\n    tag_117:\n        /* \"#utility.yul\":3011:3074   */\n      tag_119\n        /* \"#utility.yul\":3066:3073   */\n      dup6\n        /* \"#utility.yul\":3057:3063   */\n      dup3\n        /* \"#utility.yul\":3046:3055   */\n      dup7\n        /* \"#utility.yul\":3042:3064   */\n      add\n        /* \"#utility.yul\":3011:3074   */\n      tag_52\n      jump\t// in\n    tag_119:\n        /* \"#utility.yul\":3001:3074   */\n      swap3\n      pop\n        /* \"#utility.yul\":2797:3084   */\n      pop\n        /* \"#utility.yul\":3151:3153   */\n      0x20\n        /* \"#utility.yul\":3140:3149   */\n      dup4\n        /* \"#utility.yul\":3136:3154   */\n      add\n        /* \"#utility.yul\":3123:3155   */\n      calldataload\n        /* \"#utility.yul\":3182:3200   */\n      0xffffffffffffffff\n        /* \"#utility.yul\":3174:3180   */\n      dup2\n        /* \"#utility.yul\":3171:3201   */\n      gt\n        /* \"#utility.yul\":3168:3285   */\n      iszero\n      tag_120\n      jumpi\n        /* \"#utility.yul\":3204:3283   */\n      tag_121\n      tag_42\n      jump\t// in\n    tag_121:\n        /* \"#utility.yul\":3168:3285   */\n    tag_120:\n        /* \"#utility.yul\":3309:3372   */\n      tag_122\n        /* \"#utility.yul\":3364:3371   */\n      dup6\n        /* \"#utility.yul\":3355:3361   */\n      dup3\n        /* \"#utility.yul\":3344:3353   */\n      dup7\n        /* \"#utility.yul\":3340:3362   */\n      add\n        /* \"#utility.yul\":3309:3372   */\n      tag_52\n      jump\t// in\n    tag_122:\n        /* \"#utility.yul\":3299:3372   */\n      swap2\n      pop\n        /* \"#utility.yul\":3094:3382   */\n      pop\n        /* \"#utility.yul\":2555:3389   */\n      swap3\n      pop\n      swap3\n      swap1\n      pop\n      jump\t// out\n        /* \"#utility.yul\":3395:3533   */\n    tag_53:\n        /* \"#utility.yul\":3486:3492   */\n      0x00\n        /* \"#utility.yul\":3520:3525   */\n      dup2\n        /* \"#utility.yul\":3514:3526   */\n      mload\n        /* \"#utility.yul\":3504:3526   */\n      swap1\n      pop\n        /* \"#utility.yul\":3395:3533   */\n      swap2\n      swap1\n      pop\n      jump\t// out\n        /* \"#utility.yul\":3539:3747   */\n    tag_54:\n        /* \"#utility.yul\":3662:3673   */\n      0x00\n        /* \"#utility.yul\":3696:3702   */\n      dup3\n        /* \"#utility.yul\":3691:3694   */\n      dup3\n        /* \"#utility.yul\":3684:3703   */\n      mstore\n        /* \"#utility.yul\":3736:3740   */\n      0x20\n        /* \"#utility.yul\":3731:3734   */\n      dup3\n        /* \"#utility.yul\":3727:3741   */\n      add\n        /* \"#utility.yul\":3712:3741   */\n      swap1\n      pop\n        /* \"#utility.yul\":3539:3747   */\n      swap3\n      swap2\n      pop\n      pop\n      jump\t// out\n        /* \"#utility.yul\":3753:3909   */\n    tag_55:\n        /* \"#utility.yul\":3844:3848   */\n      0x00\n        /* \"#utility.yul\":3867:3870   */\n      dup2\n        /* \"#utility.yul\":3859:3870   */\n      swap1\n      pop\n        /* \"#utility.yul\":3897:3901   */\n      0x20\n        /* \"#utility.yul\":3892:3895   */\n      dup3\n        /* \"#utility.yul\":3888:3902   */\n      add\n        /* \"#utility.yul\":3880:3902   */\n      swap1\n      pop\n        /* \"#utility.yul\":3753:3909   */\n      swap2\n      swap1\n      pop\n      jump\t// out\n        /* \"#utility.yul\":3915:3992   */\n    tag_56:\n        /* \"#utility.yul\":3952:3959   */\n      0x00\n        /* \"#utility.yul\":3981:3986   */\n      dup2\n        /* \"#utility.yul\":3970:3986   */\n      swap1\n      pop\n        /* \"#utility.yul\":3915:3992   */\n      swap2\n      swap1\n      pop\n      jump\t// out\n        /* \"#utility.yul\":3998:4106   */\n    tag_57:\n        /* \"#utility.yul\":4075:4099   */\n      tag_128\n        /* \"#utility.yul\":4093:4098   */\n      dup2\n        /* \"#utility.yul\":4075:4099   */\n      tag_56\n      jump\t// in\n    tag_128:\n        /* \"#utility.yul\":4070:4073   */\n      dup3\n        /* \"#utility.yul\":4063:4100   */\n      mstore\n        /* \"#utility.yul\":3998:4106   */\n      pop\n      pop\n      jump\t// out\n        /* \"#utility.yul\":4112:4211   */\n    tag_58:\n        /* \"#utility.yul\":4164:4170   */\n      0x00\n        /* \"#utility.yul\":4198:4203   */\n      dup2\n        /* \"#utility.yul\":4192:4204   */\n      mload\n        /* \"#utility.yul\":4182:4204   */\n      swap1\n      pop\n        /* \"#utility.yul\":4112:4211   */\n      swap2\n      swap1\n      pop\n      jump\t// out\n        /* \"#utility.yul\":4217:4376   */\n    tag_59:\n        /* \"#utility.yul\":4291:4302   */\n      0x00\n        /* \"#utility.yul\":4325:4331   */\n      dup3\n        /* \"#utility.yul\":4320:4323   */\n      dup3\n        /* \"#utility.yul\":4313:4332   */\n      mstore\n        /* \"#utility.yul\":4365:4369   */\n      0x20\n        /* \"#utility.yul\":4360:4363   */\n      dup3\n        /* \"#utility.yul\":4356:4370   */\n      add\n        /* \"#utility.yul\":4341:4370   */\n      swap1\n      pop\n        /* \"#utility.yul\":4217:4376   */\n      swap3\n      swap2\n      pop\n      pop\n      jump\t// out\n        /* \"#utility.yul\":4382:4521   */\n    tag_60:\n        /* \"#utility.yul\":4471:4477   */\n      dup3\n        /* \"#utility.yul\":4466:4469   */\n      dup2\n        /* \"#utility.yul\":4461:4464   */\n      dup4\n        /* \"#utility.yul\":4455:4478   */\n      mcopy\n        /* \"#utility.yul\":4512:4513   */\n      0x00\n        /* \"#utility.yul\":4503:4509   */\n      dup4\n        /* \"#utility.yul\":4498:4501   */\n      dup4\n        /* \"#utility.yul\":4494:4510   */\n      add\n        /* \"#utility.yul\":4487:4514   */\n      mstore\n        /* \"#utility.yul\":4382:4521   */\n      pop\n      pop\n      pop\n      jump\t// out\n        /* \"#utility.yul\":4527:4884   */\n    tag_61:\n        /* \"#utility.yul\":4605:4608   */\n      0x00\n        /* \"#utility.yul\":4633:4672   */\n      tag_133\n        /* \"#utility.yul\":4666:4671   */\n      dup3\n        /* \"#utility.yul\":4633:4672   */\n      tag_58\n      jump\t// in\n    tag_133:\n        /* \"#utility.yul\":4688:4749   */\n      tag_134\n        /* \"#utility.yul\":4742:4748   */\n      dup2\n        /* \"#utility.yul\":4737:4740   */\n      dup6\n        /* \"#utility.yul\":4688:4749   */\n      tag_59\n      jump\t// in\n    tag_134:\n        /* \"#utility.yul\":4681:4749   */\n      swap4\n      pop\n        /* \"#utility.yul\":4758:4823   */\n      tag_135\n        /* \"#utility.yul\":4816:4822   */\n      dup2\n        /* \"#utility.yul\":4811:4814   */\n      dup6\n        /* \"#utility.yul\":4804:4808   */\n      0x20\n        /* \"#utility.yul\":4797:4802   */\n      dup7\n        /* \"#utility.yul\":4793:4809   */\n      add\n        /* \"#utility.yul\":4758:4823   */\n      tag_60\n      jump\t// in\n    tag_135:\n        /* \"#utility.yul\":4848:4877   */\n      tag_136\n        /* \"#utility.yul\":4870:4876   */\n      dup2\n        /* \"#utility.yul\":4848:4877   */\n      tag_45\n      jump\t// in\n    tag_136:\n        /* \"#utility.yul\":4843:4846   */\n      dup5\n        /* \"#utility.yul\":4839:4878   */\n      add\n        /* \"#utility.yul\":4832:4878   */\n      swap2\n      pop\n        /* \"#utility.yul\":4609:4884   */\n      pop\n        /* \"#utility.yul\":4527:4884   */\n      swap3\n      swap2\n      pop\n      pop\n      jump\t// out\n        /* \"#utility.yul\":4938:5780   */\n    tag_62:\n        /* \"#utility.yul\":5045:5048   */\n      0x00\n        /* \"#utility.yul\":5081:5085   */\n      0x60\n        /* \"#utility.yul\":5076:5079   */\n      dup4\n        /* \"#utility.yul\":5072:5086   */\n      add\n        /* \"#utility.yul\":5170:5174   */\n      0x00\n        /* \"#utility.yul\":5163:5168   */\n      dup4\n        /* \"#utility.yul\":5159:5175   */\n      add\n        /* \"#utility.yul\":5153:5176   */\n      mload\n        /* \"#utility.yul\":5189:5252   */\n      tag_138\n        /* \"#utility.yul\":5246:5250   */\n      0x00\n        /* \"#utility.yul\":5241:5244   */\n      dup7\n        /* \"#utility.yul\":5237:5251   */\n      add\n        /* \"#utility.yul\":5223:5235   */\n      dup3\n        /* \"#utility.yul\":5189:5252   */\n      tag_57\n      jump\t// in\n    tag_138:\n        /* \"#utility.yul\":5096:5262   */\n      pop\n        /* \"#utility.yul\":5344:5348   */\n      0x20\n        /* \"#utility.yul\":5337:5342   */\n      dup4\n        /* \"#utility.yul\":5333:5349   */\n      add\n        /* \"#utility.yul\":5327:5350   */\n      mload\n        /* \"#utility.yul\":5397:5400   */\n      dup5\n        /* \"#utility.yul\":5391:5395   */\n      dup3\n        /* \"#utility.yul\":5387:5401   */\n      sub\n        /* \"#utility.yul\":5380:5384   */\n      0x20\n        /* \"#utility.yul\":5375:5378   */\n      dup7\n        /* \"#utility.yul\":5371:5385   */\n      add\n        /* \"#utility.yul\":5364:5402   */\n      mstore\n        /* \"#utility.yul\":5423:5496   */\n      tag_139\n        /* \"#utility.yul\":5491:5495   */\n      dup3\n        /* \"#utility.yul\":5477:5489   */\n      dup3\n        /* \"#utility.yul\":5423:5496   */\n      tag_61\n      jump\t// in\n    tag_139:\n        /* \"#utility.yul\":5415:5496   */\n      swap2\n      pop\n        /* \"#utility.yul\":5272:5507   */\n      pop\n        /* \"#utility.yul\":5590:5594   */\n      0x40\n        /* \"#utility.yul\":5583:5588   */\n      dup4\n        /* \"#utility.yul\":5579:5595   */\n      add\n        /* \"#utility.yul\":5573:5596   */\n      mload\n        /* \"#utility.yul\":5643:5646   */\n      dup5\n        /* \"#utility.yul\":5637:5641   */\n      dup3\n        /* \"#utility.yul\":5633:5647   */\n      sub\n        /* \"#utility.yul\":5626:5630   */\n      0x40\n        /* \"#utility.yul\":5621:5624   */\n      dup7\n        /* \"#utility.yul\":5617:5631   */\n      add\n        /* \"#utility.yul\":5610:5648   */\n      mstore\n        /* \"#utility.yul\":5669:5742   */\n      tag_140\n        /* \"#utility.yul\":5737:5741   */\n      dup3\n        /* \"#utility.yul\":5723:5735   */\n      dup3\n        /* \"#utility.yul\":5669:5742   */\n      tag_61\n      jump\t// in\n    tag_140:\n        /* \"#utility.yul\":5661:5742   */\n      swap2\n      pop\n        /* \"#utility.yul\":5517:5753   */\n      pop\n        /* \"#utility.yul\":5770:5774   */\n      dup1\n        /* \"#utility.yul\":5763:5774   */\n      swap2\n      pop\n        /* \"#utility.yul\":5050:5780   */\n      pop\n        /* \"#utility.yul\":4938:5780   */\n      swap3\n      swap2\n      pop\n      pop\n      jump\t// out\n        /* \"#utility.yul\":5786:6038   */\n    tag_63:\n        /* \"#utility.yul\":5903:5913   */\n      0x00\n        /* \"#utility.yul\":5938:6032   */\n      tag_142\n        /* \"#utility.yul\":6028:6031   */\n      dup4\n        /* \"#utility.yul\":6020:6026   */\n      dup4\n        /* \"#utility.yul\":5938:6032   */\n      tag_62\n      jump\t// in\n    tag_142:\n        /* \"#utility.yul\":5924:6032   */\n      swap1\n      pop\n        /* \"#utility.yul\":5786:6038   */\n      swap3\n      swap2\n      pop\n      pop\n      jump\t// out\n        /* \"#utility.yul\":6044:6181   */\n    tag_64:\n        /* \"#utility.yul\":6138:6142   */\n      0x00\n        /* \"#utility.yul\":6170:6174   */\n      0x20\n        /* \"#utility.yul\":6165:6168   */\n      dup3\n        /* \"#utility.yul\":6161:6175   */\n      add\n        /* \"#utility.yul\":6153:6175   */\n      swap1\n      pop\n        /* \"#utility.yul\":6044:6181   */\n      swap2\n      swap1\n      pop\n      jump\t// out\n        /* \"#utility.yul\":6239:7342   */\n    tag_65:\n        /* \"#utility.yul\":6406:6409   */\n      0x00\n        /* \"#utility.yul\":6435:6513   */\n      tag_145\n        /* \"#utility.yul\":6507:6512   */\n      dup3\n        /* \"#utility.yul\":6435:6513   */\n      tag_53\n      jump\t// in\n    tag_145:\n        /* \"#utility.yul\":6529:6639   */\n      tag_146\n        /* \"#utility.yul\":6632:6638   */\n      dup2\n        /* \"#utility.yul\":6627:6630   */\n      dup6\n        /* \"#utility.yul\":6529:6639   */\n      tag_54\n      jump\t// in\n    tag_146:\n        /* \"#utility.yul\":6522:6639   */\n      swap4\n      pop\n        /* \"#utility.yul\":6665:6668   */\n      dup4\n        /* \"#utility.yul\":6710:6714   */\n      0x20\n        /* \"#utility.yul\":6702:6708   */\n      dup3\n        /* \"#utility.yul\":6698:6715   */\n      mul\n        /* \"#utility.yul\":6693:6696   */\n      dup6\n        /* \"#utility.yul\":6689:6716   */\n      add\n        /* \"#utility.yul\":6740:6820   */\n      tag_147\n        /* \"#utility.yul\":6814:6819   */\n      dup6\n        /* \"#utility.yul\":6740:6820   */\n      tag_55\n      jump\t// in\n    tag_147:\n        /* \"#utility.yul\":6843:6850   */\n      dup1\n        /* \"#utility.yul\":6874:6875   */\n      0x00\n        /* \"#utility.yul\":6859:7297   */\n    tag_148:\n        /* \"#utility.yul\":6884:6890   */\n      dup6\n        /* \"#utility.yul\":6881:6882   */\n      dup2\n        /* \"#utility.yul\":6878:6891   */\n      lt\n        /* \"#utility.yul\":6859:7297   */\n      iszero\n      tag_150\n      jumpi\n        /* \"#utility.yul\":6955:6964   */\n      dup5\n        /* \"#utility.yul\":6949:6953   */\n      dup5\n        /* \"#utility.yul\":6945:6965   */\n      sub\n        /* \"#utility.yul\":6940:6943   */\n      dup10\n        /* \"#utility.yul\":6933:6966   */\n      mstore\n        /* \"#utility.yul\":7006:7012   */\n      dup2\n        /* \"#utility.yul\":7000:7013   */\n      mload\n        /* \"#utility.yul\":7034:7146   */\n      tag_151\n        /* \"#utility.yul\":7141:7145   */\n      dup6\n        /* \"#utility.yul\":7126:7139   */\n      dup3\n        /* \"#utility.yul\":7034:7146   */\n      tag_63\n      jump\t// in\n    tag_151:\n        /* \"#utility.yul\":7026:7146   */\n      swap5\n      pop\n        /* \"#utility.yul\":7169:7253   */\n      tag_152\n        /* \"#utility.yul\":7246:7252   */\n      dup4\n        /* \"#utility.yul\":7169:7253   */\n      tag_64\n      jump\t// in\n    tag_152:\n        /* \"#utility.yul\":7159:7253   */\n      swap3\n      pop\n        /* \"#utility.yul\":7282:7286   */\n      0x20\n        /* \"#utility.yul\":7277:7280   */\n      dup11\n        /* \"#utility.yul\":7273:7287   */\n      add\n        /* \"#utility.yul\":7266:7287   */\n      swap10\n      pop\n        /* \"#utility.yul\":6919:7297   */\n      pop\n        /* \"#utility.yul\":6906:6907   */\n      0x01\n        /* \"#utility.yul\":6903:6904   */\n      dup2\n        /* \"#utility.yul\":6899:6908   */\n      add\n        /* \"#utility.yul\":6894:6908   */\n      swap1\n      pop\n        /* \"#utility.yul\":6859:7297   */\n      jump(tag_148)\n    tag_150:\n        /* \"#utility.yul\":6863:6877   */\n      pop\n        /* \"#utility.yul\":7313:7317   */\n      dup3\n        /* \"#utility.yul\":7306:7317   */\n      swap8\n      pop\n        /* \"#utility.yul\":7333:7336   */\n      dup8\n        /* \"#utility.yul\":7326:7336   */\n      swap6\n      pop\n        /* \"#utility.yul\":6411:7342   */\n      pop\n      pop\n      pop\n      pop\n      pop\n        /* \"#utility.yul\":6239:7342   */\n      swap3\n      swap2\n      pop\n      pop\n      jump\t// out\n        /* \"#utility.yul\":7348:7817   */\n    tag_13:\n        /* \"#utility.yul\":7539:7543   */\n      0x00\n        /* \"#utility.yul\":7577:7579   */\n      0x20\n        /* \"#utility.yul\":7566:7575   */\n      dup3\n        /* \"#utility.yul\":7562:7580   */\n      add\n        /* \"#utility.yul\":7554:7580   */\n      swap1\n      pop\n        /* \"#utility.yul\":7626:7635   */\n      dup2\n        /* \"#utility.yul\":7620:7624   */\n      dup2\n        /* \"#utility.yul\":7616:7636   */\n      sub\n        /* \"#utility.yul\":7612:7613   */\n      0x00\n        /* \"#utility.yul\":7601:7610   */\n      dup4\n        /* \"#utility.yul\":7597:7614   */\n      add\n        /* \"#utility.yul\":7590:7637   */\n      mstore\n        /* \"#utility.yul\":7654:7810   */\n      tag_154\n        /* \"#utility.yul\":7805:7809   */\n      dup2\n        /* \"#utility.yul\":7796:7802   */\n      dup5\n        /* \"#utility.yul\":7654:7810   */\n      tag_65\n      jump\t// in\n    tag_154:\n        /* \"#utility.yul\":7646:7810   */\n      swap1\n      pop\n        /* \"#utility.yul\":7348:7817   */\n      swap3\n      swap2\n      pop\n      pop\n      jump\t// out\n        /* \"#utility.yul\":7823:7941   */\n    tag_66:\n        /* \"#utility.yul\":7910:7934   */\n      tag_156\n        /* \"#utility.yul\":7928:7933   */\n      dup2\n        /* \"#utility.yul\":7910:7934   */\n      tag_56\n      jump\t// in\n    tag_156:\n        /* \"#utility.yul\":7905:7908   */\n      dup3\n        /* \"#utility.yul\":7898:7935   */\n      mstore\n        /* \"#utility.yul\":7823:7941   */\n      pop\n      pop\n      jump\t// out\n        /* \"#utility.yul\":7947:8169   */\n    tag_17:\n        /* \"#utility.yul\":8040:8044   */\n      0x00\n        /* \"#utility.yul\":8078:8080   */\n      0x20\n        /* \"#utility.yul\":8067:8076   */\n      dup3\n        /* \"#utility.yul\":8063:8081   */\n      add\n        /* \"#utility.yul\":8055:8081   */\n      swap1\n      pop\n        /* \"#utility.yul\":8091:8162   */\n      tag_158\n        /* \"#utility.yul\":8159:8160   */\n      0x00\n        /* \"#utility.yul\":8148:8157   */\n      dup4\n        /* \"#utility.yul\":8144:8161   */\n      add\n        /* \"#utility.yul\":8135:8141   */\n      dup5\n        /* \"#utility.yul\":8091:8162   */\n      tag_66\n      jump\t// in\n    tag_158:\n        /* \"#utility.yul\":7947:8169   */\n      swap3\n      swap2\n      pop\n      pop\n      jump\t// out\n        /* \"#utility.yul\":8175:8355   */\n    tag_67:\n        /* \"#utility.yul\":8223:8300   */\n      0x4e487b7100000000000000000000000000000000000000000000000000000000\n        /* \"#utility.yul\":8220:8221   */\n      0x00\n        /* \"#utility.yul\":8213:8301   */\n      mstore\n        /* \"#utility.yul\":8320:8324   */\n      0x22\n        /* \"#utility.yul\":8317:8318   */\n      0x04\n        /* \"#utility.yul\":8310:8325   */\n      mstore\n        /* \"#utility.yul\":8344:8348   */\n      0x24\n        /* \"#utility.yul\":8341:8342   */\n      0x00\n        /* \"#utility.yul\":8334:8349   */\n      revert\n        /* \"#utility.yul\":8361:8681   */\n    tag_30:\n        /* \"#utility.yul\":8405:8411   */\n      0x00\n        /* \"#utility.yul\":8442:8443   */\n      0x02\n        /* \"#utility.yul\":8436:8440   */\n      dup3\n        /* \"#utility.yul\":8432:8444   */\n      div\n        /* \"#utility.yul\":8422:8444   */\n      swap1\n      pop\n        /* \"#utility.yul\":8489:8490   */\n      0x01\n        /* \"#utility.yul\":8483:8487   */\n      dup3\n        /* \"#utility.yul\":8479:8491   */\n      and\n        /* \"#utility.yul\":8510:8528   */\n      dup1\n        /* \"#utility.yul\":8500:8581   */\n      tag_161\n      jumpi\n        /* \"#utility.yul\":8566:8570   */\n      0x7f\n        /* \"#utility.yul\":8558:8564   */\n      dup3\n        /* \"#utility.yul\":8554:8571   */\n      and\n        /* \"#utility.yul\":8544:8571   */\n      swap2\n      pop\n        /* \"#utility.yul\":8500:8581   */\n    tag_161:\n        /* \"#utility.yul\":8628:8630   */\n      0x20\n        /* \"#utility.yul\":8620:8626   */\n      dup3\n        /* \"#utility.yul\":8617:8631   */\n      lt\n        /* \"#utility.yul\":8597:8615   */\n      dup2\n        /* \"#utility.yul\":8594:8632   */\n      sub\n        /* \"#utility.yul\":8591:8675   */\n      tag_162\n      jumpi\n        /* \"#utility.yul\":8647:8665   */\n      tag_163\n      tag_67\n      jump\t// in\n    tag_163:\n        /* \"#utility.yul\":8591:8675   */\n    tag_162:\n        /* \"#utility.yul\":8412:8681   */\n      pop\n        /* \"#utility.yul\":8361:8681   */\n      swap2\n      swap1\n      pop\n      jump\t// out\n        /* \"#utility.yul\":8687:8828   */\n    tag_68:\n        /* \"#utility.yul\":8736:8740   */\n      0x00\n        /* \"#utility.yul\":8759:8762   */\n      dup2\n        /* \"#utility.yul\":8751:8762   */\n      swap1\n      pop\n        /* \"#utility.yul\":8782:8785   */\n      dup2\n        /* \"#utility.yul\":8779:8780   */\n      0x00\n        /* \"#utility.yul\":8772:8786   */\n      mstore\n        /* \"#utility.yul\":8816:8820   */\n      0x20\n        /* \"#utility.yul\":8813:8814   */\n      0x00\n        /* \"#utility.yul\":8803:8821   */\n      keccak256\n        /* \"#utility.yul\":8795:8821   */\n      swap1\n      pop\n        /* \"#utility.yul\":8687:8828   */\n      swap2\n      swap1\n      pop\n      jump\t// out\n        /* \"#utility.yul\":8834:8927   */\n    tag_69:\n        /* \"#utility.yul\":8871:8877   */\n      0x00\n        /* \"#utility.yul\":8918:8920   */\n      0x20\n        /* \"#utility.yul\":8913:8915   */\n      0x1f\n        /* \"#utility.yul\":8906:8911   */\n      dup4\n        /* \"#utility.yul\":8902:8916   */\n      add\n        /* \"#utility.yul\":8898:8921   */\n      div\n        /* \"#utility.yul\":8888:8921   */\n      swap1\n      pop\n        /* \"#utility.yul\":8834:8927   */\n      swap2\n      swap1\n      pop\n      jump\t// out\n        /* \"#utility.yul\":8933:9040   */\n    tag_70:\n        /* \"#utility.yul\":8977:8985   */\n      0x00\n        /* \"#utility.yul\":9027:9032   */\n      dup3\n        /* \"#utility.yul\":9021:9025   */\n      dup3\n        /* \"#utility.yul\":9017:9033   */\n      shl\n        /* \"#utility.yul\":8996:9033   */\n      swap1\n      pop\n        /* \"#utility.yul\":8933:9040   */\n      swap3\n      swap2\n      pop\n      pop\n      jump\t// out\n        /* \"#utility.yul\":9046:9439   */\n    tag_71:\n        /* \"#utility.yul\":9115:9121   */\n      0x00\n        /* \"#utility.yul\":9165:9166   */\n      0x08\n        /* \"#utility.yul\":9153:9163   */\n      dup4\n        /* \"#utility.yul\":9149:9167   */\n      mul\n        /* \"#utility.yul\":9188:9285   */\n      tag_168\n        /* \"#utility.yul\":9218:9284   */\n      0xffffffffffffffffffffffffffffffffffffffffffffffffffffffffffffffff\n        /* \"#utility.yul\":9207:9216   */\n      dup3\n        /* \"#utility.yul\":9188:9285   */\n      tag_70\n      jump\t// in\n    tag_168:\n        /* \"#utility.yul\":9306:9345   */\n      tag_169\n        /* \"#utility.yul\":9336:9344   */\n      dup7\n        /* \"#utility.yul\":9325:9334   */\n      dup4\n        /* \"#utility.yul\":9306:9345   */\n      tag_70\n      jump\t// in\n    tag_169:\n        /* \"#utility.yul\":9294:9345   */\n      swap6\n      pop\n        /* \"#utility.yul\":9378:9382   */\n      dup1\n        /* \"#utility.yul\":9374:9383   */\n      not\n        /* \"#utility.yul\":9367:9372   */\n      dup5\n        /* \"#utility.yul\":9363:9384   */\n      and\n        /* \"#utility.yul\":9354:9384   */\n      swap4\n      pop\n        /* \"#utility.yul\":9427:9431   */\n      dup1\n        /* \"#utility.yul\":9417:9425   */\n      dup7\n        /* \"#utility.yul\":9413:9432   */\n      and\n        /* \"#utility.yul\":9406:9411   */\n      dup5\n        /* \"#utility.yul\":9403:9433   */\n      or\n        /* \"#utility.yul\":9393:9433   */\n      swap3\n      pop\n        /* \"#utility.yul\":9122:9439   */\n      pop\n      pop\n        /* \"#utility.yul\":9046:9439   */\n      swap4\n      swap3\n      pop\n      pop\n      pop\n      jump\t// out\n        /* \"#utility.yul\":9445:9505   */\n    tag_72:\n        /* \"#utility.yul\":9473:9476   */\n      0x00\n        /* \"#utility.yul\":9494:9499   */\n      dup2\n        /* \"#utility.yul\":9487:9499   */\n      swap1\n      pop\n        /* \"#utility.yul\":9445:9505   */\n      swap2\n      swap1\n      pop\n      jump\t// out\n        /* \"#utility.yul\":9511:9653   */\n    tag_73:\n        /* \"#utility.yul\":9561:9570   */\n      0x00\n        /* \"#utility.yul\":9594:9647   */\n      tag_172\n        /* \"#utility.yul\":9612:9646   */\n      tag_173\n        /* \"#utility.yul\":9621:9645   */\n      tag_174\n        /* \"#utility.yul\":9639:9644   */\n      dup5\n        /* \"#utility.yul\":9621:9645   */\n      tag_56\n      jump\t// in\n    tag_174:\n        /* \"#utility.yul\":9612:9646   */\n      tag_72\n      jump\t// in\n    tag_173:\n        /* \"#utility.yul\":9594:9647   */\n      tag_56\n      jump\t// in\n    tag_172:\n        /* \"#utility.yul\":9581:9647   */\n      swap1\n      pop\n        /* \"#utility.yul\":9511:9653   */\n      swap2\n      swap1\n      pop\n      jump\t// out\n        /* \"#utility.yul\":9659:9734   */\n    tag_74:\n        /* \"#utility.yul\":9702:9705   */\n      0x00\n        /* \"#utility.yul\":9723:9728   */\n      dup2\n        /* \"#utility.yul\":9716:9728   */\n      swap1\n      pop\n        /* \"#utility.yul\":9659:9734   */\n      swap2\n      swap1\n      pop\n      jump\t// out\n        /* \"#utility.yul\":9740:10009   */\n    tag_75:\n        /* \"#utility.yul\":9850:9889   */\n      tag_177\n        /* \"#utility.yul\":9881:9888   */\n      dup4\n        /* \"#utility.yul\":9850:9889   */\n      tag_73\n      jump\t// in\n    tag_177:\n        /* \"#utility.yul\":9911:10002   */\n      tag_178\n        /* \"#utility.yul\":9960:10001   */\n      tag_179\n        /* \"#utility.yul\":9984:10000   */\n      dup3\n        /* \"#utility.yul\":9960:10001   */\n      tag_74\n      jump\t// in\n    tag_179:\n        /* \"#utility.yul\":9952:9958   */\n      dup5\n        /* \"#utility.yul\":9945:9949   */\n      dup5\n        /* \"#utility.yul\":9939:9950   */\n      sload\n        /* \"#utility.yul\":9911:10002   */\n      tag_71\n      jump\t// in\n    tag_178:\n        /* \"#utility.yul\":9905:9909   */\n      dup3\n        /* \"#utility.yul\":9898:10003   */\n      sstore\n        /* \"#utility.yul\":9816:10009   */\n      pop\n        /* \"#utility.yul\":9740:10009   */\n      pop\n      pop\n      pop\n      jump\t// out\n        /* \"#utility.yul\":10015:10088   */\n    tag_76:\n        /* \"#utility.yul\":10060:10063   */\n      0x00\n        /* \"#utility.yul\":10015:10088   */\n      swap1\n      jump\t// out\n        /* \"#utility.yul\":10094:10283   */\n    tag_77:\n        /* \"#utility.yul\":10171:10203   */\n      tag_182\n      tag_76\n      jump\t// in\n    tag_182:\n        /* \"#utility.yul\":10212:10277   */\n      tag_183\n        /* \"#utility.yul\":10270:10276   */\n      dup2\n        /* \"#utility.yul\":10262:10268   */\n      dup5\n        /* \"#utility.yul\":10256:10260   */\n      dup5\n        /* \"#utility.yul\":10212:10277   */\n      tag_75\n      jump\t// in\n    tag_183:\n        /* \"#utility.yul\":10147:10283   */\n      pop\n        /* \"#utility.yul\":10094:10283   */\n      pop\n      pop\n      jump\t// out\n        /* \"#utility.yul\":10289:10475   */\n    tag_78:\n        /* \"#utility.yul\":10349:10469   */\n    tag_185:\n        /* \"#utility.yul\":10366:10369   */\n      dup2\n        /* \"#utility.yul\":10359:10364   */\n      dup2\n        /* \"#utility.yul\":10356:10370   */\n      lt\n        /* \"#utility.yul\":10349:10469   */\n      iszero\n      tag_187\n      jumpi\n        /* \"#utility.yul\":10420:10459   */\n      tag_188\n        /* \"#utility.yul\":10457:10458   */\n      0x00\n        /* \"#utility.yul\":10450:10455   */\n      dup3\n        /* \"#utility.yul\":10420:10459   */\n      tag_77\n      jump\t// in\n    tag_188:\n        /* \"#utility.yul\":10393:10394   */\n      0x01\n        /* \"#utility.yul\":10386:10391   */\n      dup2\n        /* \"#utility.yul\":10382:10395   */\n      add\n        /* \"#utility.yul\":10373:10395   */\n      swap1\n      pop\n        /* \"#utility.yul\":10349:10469   */\n      jump(tag_185)\n    tag_187:\n        /* \"#utility.yul\":10289:10475   */\n      pop\n      pop\n      jump\t// out\n        /* \"#utility.yul\":10481:11024   */\n    tag_79:\n        /* \"#utility.yul\":10582:10584   */\n      0x1f\n        /* \"#utility.yul\":10577:10580   */\n      dup3\n        /* \"#utility.yul\":10574:10585   */\n      gt\n        /* \"#utility.yul\":10571:11017   */\n      iszero\n      tag_190\n      jumpi\n        /* \"#utility.yul\":10616:10654   */\n      tag_191\n        /* \"#utility.yul\":10648:10653   */\n      dup2\n        /* \"#utility.yul\":10616:10654   */\n      tag_68\n      jump\t// in\n    tag_191:\n        /* \"#utility.yul\":10700:10729   */\n      tag_192\n        /* \"#utility.yul\":10718:10728   */\n      dup5\n        /* \"#utility.yul\":10700:10729   */\n      tag_69\n      jump\t// in\n    tag_192:\n        /* \"#utility.yul\":10690:10698   */\n      dup2\n        /* \"#utility.yul\":10686:10730   */\n      add\n        /* \"#utility.yul\":10883:10885   */\n      0x20\n        /* \"#utility.yul\":10871:10881   */\n      dup6\n        /* \"#utility.yul\":10868:10886   */\n      lt\n        /* \"#utility.yul\":10865:10914   */\n      iszero\n      tag_193\n      jumpi\n        /* \"#utility.yul\":10904:10912   */\n      dup2\n        /* \"#utility.yul\":10889:10912   */\n      swap1\n      pop\n        /* \"#utility.yul\":10865:10914   */\n    tag_193:\n        /* \"#utility.yul\":10927:11007   */\n      tag_194\n        /* \"#utility.yul\":10983:11005   */\n      tag_195\n        /* \"#utility.yul\":11001:11004   */\n      dup6\n        /* \"#utility.yul\":10983:11005   */\n      tag_69\n      jump\t// in\n    tag_195:\n        /* \"#utility.yul\":10973:10981   */\n      dup4\n        /* \"#utility.yul\":10969:11006   */\n      add\n        /* \"#utility.yul\":10956:10967   */\n      dup3\n        /* \"#utility.yul\":10927:11007   */\n      tag_78\n      jump\t// in\n    tag_194:\n        /* \"#utility.yul\":10586:11017   */\n      pop\n      pop\n        /* \"#utility.yul\":10571:11017   */\n    tag_190:\n        /* \"#utility.yul\":10481:11024   */\n      pop\n      pop\n      pop\n      jump\t// out\n        /* \"#utility.yul\":11030:11147   */\n    tag_80:\n        /* \"#utility.yul\":11084:11092   */\n      0x00\n        /* \"#utility.yul\":11134:11139   */\n      dup3\n        /* \"#utility.yul\":11128:11132   */\n      dup3\n        /* \"#utility.yul\":11124:11140   */\n      shr\n        /* \"#utility.yul\":11103:11140   */\n      swap1\n      pop\n        /* \"#utility.yul\":11030:11147   */\n      swap3\n      swap2\n      pop\n      pop\n      jump\t// out\n        /* \"#utility.yul\":11153:11322   */\n    tag_81:\n        /* \"#utility.yul\":11197:11203   */\n      0x00\n        /* \"#utility.yul\":11230:11281   */\n      tag_198\n        /* \"#utility.yul\":11278:11279   */\n      0x00\n        /* \"#utility.yul\":11274:11280   */\n      not\n        /* \"#utility.yul\":11266:11271   */\n      dup5\n        /* \"#utility.yul\":11263:11264   */\n      0x08\n        /* \"#utility.yul\":11259:11272   */\n      mul\n        /* \"#utility.yul\":11230:11281   */\n      tag_80\n      jump\t// in\n    tag_198:\n        /* \"#utility.yul\":11226:11282   */\n      not\n        /* \"#utility.yul\":11311:11315   */\n      dup1\n        /* \"#utility.yul\":11305:11309   */\n      dup4\n        /* \"#utility.yul\":11301:11316   */\n      and\n        /* \"#utility.yul\":11291:11316   */\n      swap2\n      pop\n        /* \"#utility.yul\":11204:11322   */\n      pop\n        /* \"#utility.yul\":11153:11322   */\n      swap3\n      swap2\n      pop\n      pop\n      jump\t// out\n        /* \"#utility.yul\":11327:11622   */\n    tag_82:\n        /* \"#utility.yul\":11403:11407   */\n      0x00\n        /* \"#utility.yul\":11549:11578   */\n      tag_200\n        /* \"#utility.yul\":11574:11577   */\n      dup4\n        /* \"#utility.yul\":11568:11572   */\n      dup4\n        /* \"#utility.yul\":11549:11578   */\n      tag_81\n      jump\t// in\n    tag_200:\n        /* \"#utility.yul\":11541:11578   */\n      swap2\n      pop\n        /* \"#utility.yul\":11611:11614   */\n      dup3\n        /* \"#utility.yul\":11608:11609   */\n      0x02\n        /* \"#utility.yul\":11604:11615   */\n      mul\n        /* \"#utility.yul\":11598:11602   */\n      dup3\n        /* \"#utility.yul\":11595:11616   */\n      or\n        /* \"#utility.yul\":11587:11616   */\n      swap1\n      pop\n        /* \"#utility.yul\":11327:11622   */\n      swap3\n      swap2\n      pop\n      pop\n      jump\t// out\n        /* \"#utility.yul\":11627:13022   */\n    tag_21:\n        /* \"#utility.yul\":11744:11781   */\n      tag_202\n        /* \"#utility.yul\":11777:11780   */\n      dup3\n        /* \"#utility.yul\":11744:11781   */\n      tag_58\n      jump\t// in\n    tag_202:\n        /* \"#utility.yul\":11846:11864   */\n      0xffffffffffffffff\n        /* \"#utility.yul\":11838:11844   */\n      dup2\n        /* \"#utility.yul\":11835:11865   */\n      gt\n        /* \"#utility.yul\":11832:11888   */\n      iszero\n      tag_203\n      jumpi\n        /* \"#utility.yul\":11868:11886   */\n      tag_204\n      tag_46\n      jump\t// in\n    tag_204:\n        /* \"#utility.yul\":11832:11888   */\n    tag_203:\n        /* \"#utility.yul\":11912:11950   */\n      tag_205\n        /* \"#utility.yul\":11944:11948   */\n      dup3\n        /* \"#utility.yul\":11938:11949   */\n      sload\n        /* \"#utility.yul\":11912:11950   */\n      tag_30\n      jump\t// in\n    tag_205:\n        /* \"#utility.yul\":11997:12064   */\n      tag_206\n        /* \"#utility.yul\":12057:12063   */\n      dup3\n        /* \"#utility.yul\":12049:12055   */\n      dup3\n        /* \"#utility.yul\":12043:12047   */\n      dup6\n        /* \"#utility.yul\":11997:12064   */\n      tag_79\n      jump\t// in\n    tag_206:\n        /* \"#utility.yul\":12091:12092   */\n      0x00\n        /* \"#utility.yul\":12115:12119   */\n      0x20\n        /* \"#utility.yul\":12102:12119   */\n      swap1\n      pop\n        /* \"#utility.yul\":12147:12149   */\n      0x1f\n        /* \"#utility.yul\":12139:12145   */\n      dup4\n        /* \"#utility.yul\":12136:12150   */\n      gt\n        /* \"#utility.yul\":12164:12165   */\n      0x01\n        /* \"#utility.yul\":12159:12777   */\n      dup2\n      eq\n      tag_208\n      jumpi\n        /* \"#utility.yul\":12821:12822   */\n      0x00\n        /* \"#utility.yul\":12838:12844   */\n      dup5\n        /* \"#utility.yul\":12835:12912   */\n      iszero\n      tag_209\n      jumpi\n        /* \"#utility.yul\":12887:12896   */\n      dup3\n        /* \"#utility.yul\":12882:12885   */\n      dup8\n        /* \"#utility.yul\":12878:12897   */\n      add\n        /* \"#utility.yul\":12872:12898   */\n      mload\n        /* \"#utility.yul\":12863:12898   */\n      swap1\n      pop\n        /* \"#utility.yul\":12835:12912   */\n    tag_209:\n        /* \"#utility.yul\":12938:13005   */\n      tag_210\n        /* \"#utility.yul\":12998:13004   */\n      dup6\n        /* \"#utility.yul\":12991:12996   */\n      dup3\n        /* \"#utility.yul\":12938:13005   */\n      tag_82\n      jump\t// in\n    tag_210:\n        /* \"#utility.yul\":12932:12936   */\n      dup7\n        /* \"#utility.yul\":12925:13006   */\n      sstore\n        /* \"#utility.yul\":12794:13016   */\n      pop\n        /* \"#utility.yul\":12129:13016   */\n      jump(tag_207)\n        /* \"#utility.yul\":12159:12777   */\n    tag_208:\n        /* \"#utility.yul\":12211:12215   */\n      0x1f\n        /* \"#utility.yul\":12207:12216   */\n      not\n        /* \"#utility.yul\":12199:12205   */\n      dup5\n        /* \"#utility.yul\":12195:12217   */\n      and\n        /* \"#utility.yul\":12245:12282   */\n      tag_211\n        /* \"#utility.yul\":12277:12281   */\n      dup7\n        /* \"#utility.yul\":12245:12282   */\n      tag_68\n      jump\t// in\n    tag_211:\n        /* \"#utility.yul\":12304:12305   */\n      0x00\n        /* \"#utility.yul\":12318:12526   */\n    tag_212:\n        /* \"#utility.yul\":12332:12339   */\n      dup3\n        /* \"#utility.yul\":12329:12330   */\n      dup2\n        /* \"#utility.yul\":12326:12340   */\n      lt\n        /* \"#utility.yul\":12318:12526   */\n      iszero\n      tag_214\n      jumpi\n        /* \"#utility.yul\":12411:12420   */\n      dup5\n        /* \"#utility.yul\":12406:12409   */\n      dup10\n        /* \"#utility.yul\":12402:12421   */\n      add\n        /* \"#utility.yul\":12396:12422   */\n      mload\n        /* \"#utility.yul\":12388:12394   */\n      dup3\n        /* \"#utility.yul\":12381:12423   */\n      sstore\n        /* \"#utility.yul\":12462:12463   */\n      0x01\n        /* \"#utility.yul\":12454:12460   */\n      dup3\n        /* \"#utility.yul\":12450:12464   */\n      add\n        /* \"#utility.yul\":12440:12464   */\n      swap2\n      pop\n        /* \"#utility.yul\":12509:12511   */\n      0x20\n        /* \"#utility.yul\":12498:12507   */\n      dup6\n        /* \"#utility.yul\":12494:12512   */\n      add\n        /* \"#utility.yul\":12481:12512   */\n      swap5\n      pop\n        /* \"#utility.yul\":12355:12359   */\n      0x20\n        /* \"#utility.yul\":12352:12353   */\n      dup2\n        /* \"#utility.yul\":12348:12360   */\n      add\n        /* \"#utility.yul\":12343:12360   */\n      swap1\n      pop\n        /* \"#utility.yul\":12318:12526   */\n      jump(tag_212)\n    tag_214:\n        /* \"#utility.yul\":12554:12560   */\n      dup7\n        /* \"#utility.yul\":12545:12552   */\n      dup4\n        /* \"#utility.yul\":12542:12561   */\n      lt\n        /* \"#utility.yul\":12539:12718   */\n      iszero\n      tag_215\n      jumpi\n        /* \"#utility.yul\":12612:12621   */\n      dup5\n        /* \"#utility.yul\":12607:12610   */\n      dup10\n        /* \"#utility.yul\":12603:12622   */\n      add\n        /* \"#utility.yul\":12597:12623   */\n      mload\n        /* \"#utility.yul\":12655:12703   */\n      tag_216\n        /* \"#utility.yul\":12697:12701   */\n      0x1f\n        /* \"#utility.yul\":12689:12695   */\n      dup10\n        /* \"#utility.yul\":12685:12702   */\n      and\n        /* \"#utility.yul\":12674:12683   */\n      dup3\n        /* \"#utility.yul\":12655:12703   */\n      tag_81\n      jump\t// in\n    tag_216:\n        /* \"#utility.yul\":12647:12653   */\n      dup4\n        /* \"#utility.yul\":12640:12704   */\n      sstore\n        /* \"#utility.yul\":12562:12718   */\n      pop\n        /* \"#utility.yul\":12539:12718   */\n    tag_215:\n        /* \"#utility.yul\":12764:12765   */\n      0x01\n        /* \"#utility.yul\":12760:12761   */\n      0x02\n        /* \"#utility.yul\":12752:12758   */\n      dup9\n        /* \"#utility.yul\":12748:12762   */\n      mul\n        /* \"#utility.yul\":12744:12766   */\n      add\n        /* \"#utility.yul\":12738:12742   */\n      dup9\n        /* \"#utility.yul\":12731:12767   */\n      sstore\n        /* \"#utility.yul\":12166:12777   */\n      pop\n      pop\n      pop\n        /* \"#utility.yul\":12129:13016   */\n    tag_207:\n      pop\n        /* \"#utility.yul\":11719:13022   */\n      pop\n      pop\n      pop\n        /* \"#utility.yul\":11627:13022   */\n      pop\n      pop\n      jump\t// out\n        /* \"#utility.yul\":13028:13208   */\n    tag_83:\n        /* \"#utility.yul\":13076:13153   */\n      0x4e487b7100000000000000000000000000000000000000000000000000000000\n        /* \"#utility.yul\":13073:13074   */\n      0x00\n        /* \"#utility.yul\":13066:13154   */\n      mstore\n        /* \"#utility.yul\":13173:13177   */\n      0x11\n        /* \"#utility.yul\":13170:13171   */\n      0x04\n        /* \"#utility.yul\":13163:13178   */\n      mstore\n        /* \"#utility.yul\":13197:13201   */\n      0x24\n        /* \"#utility.yul\":13194:13195   */\n      0x00\n        /* \"#utility.yul\":13187:13202   */\n      revert\n        /* \"#utility.yul\":13214:13447   */\n    tag_24:\n        /* \"#utility.yul\":13253:13256   */\n      0x00\n        /* \"#utility.yul\":13276:13300   */\n      tag_219\n        /* \"#utility.yul\":13294:13299   */\n      dup3\n        /* \"#utility.yul\":13276:13300   */\n      tag_56\n      jump\t// in\n    tag_219:\n        /* \"#utility.yul\":13267:13300   */\n      swap2\n      pop\n        /* \"#utility.yul\":13322:13388   */\n      0xffffffffffffffffffffffffffffffffffffffffffffffffffffffffffffffff\n        /* \"#utility.yul\":13315:13320   */\n      dup3\n        /* \"#utility.yul\":13312:13389   */\n      sub\n        /* \"#utility.yul\":13309:13412   */\n      tag_220\n      jumpi\n        /* \"#utility.yul\":13392:13410   */\n      tag_221\n      tag_83\n      jump\t// in\n    tag_221:\n        /* \"#utility.yul\":13309:13412   */\n    tag_220:\n        /* \"#utility.yul\":13439:13440   */\n      0x01\n        /* \"#utility.yul\":13432:13437   */\n      dup3\n        /* \"#utility.yul\":13428:13441   */\n      add\n        /* \"#utility.yul\":13421:13441   */\n      swap1\n      pop\n        /* \"#utility.yul\":13214:13447   */\n      swap2\n      swap1\n      pop\n      jump\t// out\n\n    auxdata: 0xa2646970667358221220342960b611398f0bf79e2653474f2390cb2b4a43daad2053bd35696ea9c80b6464736f6c634300081a0033\n}\n",
				"bytecode": {
					"linkReferences": {},
					"object": "6080604052600180553480156012575f80fd5b506109bf806100205f395ff3fe608060405234801561000f575f80fd5b506004361061003f575f3560e01c80636cb6598d14610043578063b439548d1461005f578063e5aa3d581461007d575b5f80fd5b61005d60048036038101906100589190610407565b61009b565b005b610067610130565b6040516100749190610604565b60405180910390f35b6100856102b4565b6040516100929190610633565b60405180910390f35b5f6040518060600160405280600154815260200184815260200183815250908060018154018082558091505060019003905f5260205f2090600302015f909190919091505f820151815f015560208201518160010190816100fc9190610846565b5060408201518160020190816101129190610846565b50505060015f81548092919061012790610942565b91905055505050565b60605f805480602002602001604051908101604052809291908181526020015f905b828210156102ab578382905f5260205f2090600302016040518060600160405290815f820154815260200160018201805461018c90610679565b80601f01602080910402602001604051908101604052809291908181526020018280546101b890610679565b80156102035780601f106101da57610100808354040283529160200191610203565b820191905f5260205f20905b8154815290600101906020018083116101e657829003601f168201915b5050505050815260200160028201805461021c90610679565b80601f016020809104026020016040519081016040528092919081815260200182805461024890610679565b80156102935780601f1061026a57610100808354040283529160200191610293565b820191905f5260205f20905b81548152906001019060200180831161027657829003601f168201915b50505050508152505081526020019060010190610152565b50505050905090565b60015481565b5f604051905090565b5f80fd5b5f80fd5b5f80fd5b5f80fd5b5f601f19601f8301169050919050565b7f4e487b71000000000000000000000000000000000000000000000000000000005f52604160045260245ffd5b610319826102d3565b810181811067ffffffffffffffff82111715610338576103376102e3565b5b80604052505050565b5f61034a6102ba565b90506103568282610310565b919050565b5f67ffffffffffffffff821115610375576103746102e3565b5b61037e826102d3565b9050602081019050919050565b828183375f83830152505050565b5f6103ab6103a68461035b565b610341565b9050828152602081018484840111156103c7576103c66102cf565b5b6103d284828561038b565b509392505050565b5f82601f8301126103ee576103ed6102cb565b5b81356103fe848260208601610399565b91505092915050565b5f806040838503121561041d5761041c6102c3565b5b5f83013567ffffffffffffffff81111561043a576104396102c7565b5b610446858286016103da565b925050602083013567ffffffffffffffff811115610467576104666102c7565b5b610473858286016103da565b9150509250929050565b5f81519050919050565b5f82825260208201905092915050565b5f819050602082019050919050565b5f819050919050565b6104b8816104a6565b82525050565b5f81519050919050565b5f82825260208201905092915050565b8281835e5f83830152505050565b5f6104f0826104be565b6104fa81856104c8565b935061050a8185602086016104d8565b610513816102d3565b840191505092915050565b5f606083015f8301516105335f8601826104af565b506020830151848203602086015261054b82826104e6565b9150506040830151848203604086015261056582826104e6565b9150508091505092915050565b5f61057d838361051e565b905092915050565b5f602082019050919050565b5f61059b8261047d565b6105a58185610487565b9350836020820285016105b785610497565b805f5b858110156105f257848403895281516105d38582610572565b94506105de83610585565b925060208a019950506001810190506105ba565b50829750879550505050505092915050565b5f6020820190508181035f83015261061c8184610591565b905092915050565b61062d816104a6565b82525050565b5f6020820190506106465f830184610624565b92915050565b7f4e487b71000000000000000000000000000000000000000000000000000000005f52602260045260245ffd5b5f600282049050600182168061069057607f821691505b6020821081036106a3576106a261064c565b5b50919050565b5f819050815f5260205f209050919050565b5f6020601f8301049050919050565b5f82821b905092915050565b5f600883026107057fffffffffffffffffffffffffffffffffffffffffffffffffffffffffffffffff826106ca565b61070f86836106ca565b95508019841693508086168417925050509392505050565b5f819050919050565b5f61074a610745610740846104a6565b610727565b6104a6565b9050919050565b5f819050919050565b61076383610730565b61077761076f82610751565b8484546106d6565b825550505050565b5f90565b61078b61077f565b61079681848461075a565b505050565b5b818110156107b9576107ae5f82610783565b60018101905061079c565b5050565b601f8211156107fe576107cf816106a9565b6107d8846106bb565b810160208510156107e7578190505b6107fb6107f3856106bb565b83018261079b565b50505b505050565b5f82821c905092915050565b5f61081e5f1984600802610803565b1980831691505092915050565b5f610836838361080f565b9150826002028217905092915050565b61084f826104be565b67ffffffffffffffff811115610868576108676102e3565b5b6108728254610679565b61087d8282856107bd565b5f60209050601f8311600181146108ae575f841561089c578287015190505b6108a6858261082b565b86555061090d565b601f1984166108bc866106a9565b5f5b828110156108e3578489015182556001820191506020850194506020810190506108be565b8683101561090057848901516108fc601f89168261080f565b8355505b6001600288020188555050505b505050505050565b7f4e487b71000000000000000000000000000000000000000000000000000000005f52601160045260245ffd5b5f61094c826104a6565b91507fffffffffffffffffffffffffffffffffffffffffffffffffffffffffffffffff820361097e5761097d610915565b5b60018201905091905056fea2646970667358221220342960b611398f0bf79e2653474f2390cb2b4a43daad2053bd35696ea9c80b6464736f6c634300081a0033",
					"opcodes": "PUSH1 0x80 PUSH1 0x40 MSTORE PUSH1 0x1 DUP1 SSTORE CALLVALUE DUP1 ISZERO PUSH1 0x12 JUMPI PUSH0 DUP1 REVERT JUMPDEST POP PUSH2 0x9BF DUP1 PUSH2 0x20 PUSH0 CODECOPY PUSH0 RETURN INVALID PUSH1 0x80 PUSH1 0x40 MSTORE CALLVALUE DUP1 ISZERO PUSH2 0xF JUMPI PUSH0 DUP1 REVERT JUMPDEST POP PUSH1 0x4 CALLDATASIZE LT PUSH2 0x3F JUMPI PUSH0 CALLDATALOAD PUSH1 0xE0 SHR DUP1 PUSH4 0x6CB6598D EQ PUSH2 0x43 JUMPI DUP1 PUSH4 0xB439548D EQ PUSH2 0x5F JUMPI DUP1 PUSH4 0xE5AA3D58 EQ PUSH2 0x7D JUMPI JUMPDEST PUSH0 DUP1 REVERT JUMPDEST PUSH2 0x5D PUSH1 0x4 DUP1 CALLDATASIZE SUB DUP2 ADD SWAP1 PUSH2 0x58 SWAP2 SWAP1 PUSH2 0x407 JUMP JUMPDEST PUSH2 0x9B JUMP JUMPDEST STOP JUMPDEST PUSH2 0x67 PUSH2 0x130 JUMP JUMPDEST PUSH1 0x40 MLOAD PUSH2 0x74 SWAP2 SWAP1 PUSH2 0x604 JUMP JUMPDEST PUSH1 0x40 MLOAD DUP1 SWAP2 SUB SWAP1 RETURN JUMPDEST PUSH2 0x85 PUSH2 0x2B4 JUMP JUMPDEST PUSH1 0x40 MLOAD PUSH2 0x92 SWAP2 SWAP1 PUSH2 0x633 JUMP JUMPDEST PUSH1 0x40 MLOAD DUP1 SWAP2 SUB SWAP1 RETURN JUMPDEST PUSH0 PUSH1 0x40 MLOAD DUP1 PUSH1 0x60 ADD PUSH1 0x40 MSTORE DUP1 PUSH1 0x1 SLOAD DUP2 MSTORE PUSH1 0x20 ADD DUP5 DUP2 MSTORE PUSH1 0x20 ADD DUP4 DUP2 MSTORE POP SWAP1 DUP1 PUSH1 0x1 DUP2 SLOAD ADD DUP1 DUP3 SSTORE DUP1 SWAP2 POP POP PUSH1 0x1 SWAP1 SUB SWAP1 PUSH0 MSTORE PUSH1 0x20 PUSH0 KECCAK256 SWAP1 PUSH1 0x3 MUL ADD PUSH0 SWAP1 SWAP2 SWAP1 SWAP2 SWAP1 SWAP2 POP PUSH0 DUP3 ADD MLOAD DUP2 PUSH0 ADD SSTORE PUSH1 0x20 DUP3 ADD MLOAD DUP2 PUSH1 0x1 ADD SWAP1 DUP2 PUSH2 0xFC SWAP2 SWAP1 PUSH2 0x846 JUMP JUMPDEST POP PUSH1 0x40 DUP3 ADD MLOAD DUP2 PUSH1 0x2 ADD SWAP1 DUP2 PUSH2 0x112 SWAP2 SWAP1 PUSH2 0x846 JUMP JUMPDEST POP POP POP PUSH1 0x1 PUSH0 DUP2 SLOAD DUP1 SWAP3 SWAP2 SWAP1 PUSH2 0x127 SWAP1 PUSH2 0x942 JUMP JUMPDEST SWAP2 SWAP1 POP SSTORE POP POP POP JUMP JUMPDEST PUSH1 0x60 PUSH0 DUP1 SLOAD DUP1 PUSH1 0x20 MUL PUSH1 0x20 ADD PUSH1 0x40 MLOAD SWAP1 DUP2 ADD PUSH1 0x40 MSTORE DUP1 SWAP3 SWAP2 SWAP1 DUP2 DUP2 MSTORE PUSH1 0x20 ADD PUSH0 SWAP1 JUMPDEST DUP3 DUP3 LT ISZERO PUSH2 0x2AB JUMPI DUP4 DUP3 SWAP1 PUSH0 MSTORE PUSH1 0x20 PUSH0 KECCAK256 SWAP1 PUSH1 0x3 MUL ADD PUSH1 0x40 MLOAD DUP1 PUSH1 0x60 ADD PUSH1 0x40 MSTORE SWAP1 DUP2 PUSH0 DUP3 ADD SLOAD DUP2 MSTORE PUSH1 0x20 ADD PUSH1 0x1 DUP3 ADD DUP1 SLOAD PUSH2 0x18C SWAP1 PUSH2 0x679 JUMP JUMPDEST DUP1 PUSH1 0x1F ADD PUSH1 0x20 DUP1 SWAP2 DIV MUL PUSH1 0x20 ADD PUSH1 0x40 MLOAD SWAP1 DUP2 ADD PUSH1 0x40 MSTORE DUP1 SWAP3 SWAP2 SWAP1 DUP2 DUP2 MSTORE PUSH1 0x20 ADD DUP3 DUP1 SLOAD PUSH2 0x1B8 SWAP1 PUSH2 0x679 JUMP JUMPDEST DUP1 ISZERO PUSH2 0x203 JUMPI DUP1 PUSH1 0x1F LT PUSH2 0x1DA JUMPI PUSH2 0x100 DUP1 DUP4 SLOAD DIV MUL DUP4 MSTORE SWAP2 PUSH1 0x20 ADD SWAP2 PUSH2 0x203 JUMP JUMPDEST DUP3 ADD SWAP2 SWAP1 PUSH0 MSTORE PUSH1 0x20 PUSH0 KECCAK256 SWAP1 JUMPDEST DUP2 SLOAD DUP2 MSTORE SWAP1 PUSH1 0x1 ADD SWAP1 PUSH1 0x20 ADD DUP1 DUP4 GT PUSH2 0x1E6 JUMPI DUP3 SWAP1 SUB PUSH1 0x1F AND DUP3 ADD SWAP2 JUMPDEST POP POP POP POP POP DUP2 MSTORE PUSH1 0x20 ADD PUSH1 0x2 DUP3 ADD DUP1 SLOAD PUSH2 0x21C SWAP1 PUSH2 0x679 JUMP JUMPDEST DUP1 PUSH1 0x1F ADD PUSH1 0x20 DUP1 SWAP2 DIV MUL PUSH1 0x20 ADD PUSH1 0x40 MLOAD SWAP1 DUP2 ADD PUSH1 0x40 MSTORE DUP1 SWAP3 SWAP2 SWAP1 DUP2 DUP2 MSTORE PUSH1 0x20 ADD DUP3 DUP1 SLOAD PUSH2 0x248 SWAP1 PUSH2 0x679 JUMP JUMPDEST DUP1 ISZERO PUSH2 0x293 JUMPI DUP1 PUSH1 0x1F LT PUSH2 0x26A JUMPI PUSH2 0x100 DUP1 DUP4 SLOAD DIV MUL DUP4 MSTORE SWAP2 PUSH1 0x20 ADD SWAP2 PUSH2 0x293 JUMP JUMPDEST DUP3 ADD SWAP2 SWAP1 PUSH0 MSTORE PUSH1 0x20 PUSH0 KECCAK256 SWAP1 JUMPDEST DUP2 SLOAD DUP2 MSTORE SWAP1 PUSH1 0x1 ADD SWAP1 PUSH1 0x20 ADD DUP1 DUP4 GT PUSH2 0x276 JUMPI DUP3 SWAP1 SUB PUSH1 0x1F AND DUP3 ADD SWAP2 JUMPDEST POP POP POP POP POP DUP2 MSTORE POP POP DUP2 MSTORE PUSH1 0x20 ADD SWAP1 PUSH1 0x1 ADD SWAP1 PUSH2 0x152 JUMP JUMPDEST POP POP POP POP SWAP1 POP SWAP1 JUMP JUMPDEST PUSH1 0x1 SLOAD DUP2 JUMP JUMPDEST PUSH0 PUSH1 0x40 MLOAD SWAP1 POP SWAP1 JUMP JUMPDEST PUSH0 DUP1 REVERT JUMPDEST PUSH0 DUP1 REVERT JUMPDEST PUSH0 DUP1 REVERT JUMPDEST PUSH0 DUP1 REVERT JUMPDEST PUSH0 PUSH1 0x1F NOT PUSH1 0x1F DUP4 ADD AND SWAP1 POP SWAP2 SWAP1 POP JUMP JUMPDEST PUSH32 0x4E487B7100000000000000000000000000000000000000000000000000000000 PUSH0 MSTORE PUSH1 0x41 PUSH1 0x4 MSTORE PUSH1 0x24 PUSH0 REVERT JUMPDEST PUSH2 0x319 DUP3 PUSH2 0x2D3 JUMP JUMPDEST DUP2 ADD DUP2 DUP2 LT PUSH8 0xFFFFFFFFFFFFFFFF DUP3 GT OR ISZERO PUSH2 0x338 JUMPI PUSH2 0x337 PUSH2 0x2E3 JUMP JUMPDEST JUMPDEST DUP1 PUSH1 0x40 MSTORE POP POP POP JUMP JUMPDEST PUSH0 PUSH2 0x34A PUSH2 0x2BA JUMP JUMPDEST SWAP1 POP PUSH2 0x356 DUP3 DUP3 PUSH2 0x310 JUMP JUMPDEST SWAP2 SWAP1 POP JUMP JUMPDEST PUSH0 PUSH8 0xFFFFFFFFFFFFFFFF DUP3 GT ISZERO PUSH2 0x375 JUMPI PUSH2 0x374 PUSH2 0x2E3 JUMP JUMPDEST JUMPDEST PUSH2 0x37E DUP3 PUSH2 0x2D3 JUMP JUMPDEST SWAP1 POP PUSH1 0x20 DUP2 ADD SWAP1 POP SWAP2 SWAP1 POP JUMP JUMPDEST DUP3 DUP2 DUP4 CALLDATACOPY PUSH0 DUP4 DUP4 ADD MSTORE POP POP POP JUMP JUMPDEST PUSH0 PUSH2 0x3AB PUSH2 0x3A6 DUP5 PUSH2 0x35B JUMP JUMPDEST PUSH2 0x341 JUMP JUMPDEST SWAP1 POP DUP3 DUP2 MSTORE PUSH1 0x20 DUP2 ADD DUP5 DUP5 DUP5 ADD GT ISZERO PUSH2 0x3C7 JUMPI PUSH2 0x3C6 PUSH2 0x2CF JUMP JUMPDEST JUMPDEST PUSH2 0x3D2 DUP5 DUP3 DUP6 PUSH2 0x38B JUMP JUMPDEST POP SWAP4 SWAP3 POP POP POP JUMP JUMPDEST PUSH0 DUP3 PUSH1 0x1F DUP4 ADD SLT PUSH2 0x3EE JUMPI PUSH2 0x3ED PUSH2 0x2CB JUMP JUMPDEST JUMPDEST DUP2 CALLDATALOAD PUSH2 0x3FE DUP5 DUP3 PUSH1 0x20 DUP7 ADD PUSH2 0x399 JUMP JUMPDEST SWAP2 POP POP SWAP3 SWAP2 POP POP JUMP JUMPDEST PUSH0 DUP1 PUSH1 0x40 DUP4 DUP6 SUB SLT ISZERO PUSH2 0x41D JUMPI PUSH2 0x41C PUSH2 0x2C3 JUMP JUMPDEST JUMPDEST PUSH0 DUP4 ADD CALLDATALOAD PUSH8 0xFFFFFFFFFFFFFFFF DUP2 GT ISZERO PUSH2 0x43A JUMPI PUSH2 0x439 PUSH2 0x2C7 JUMP JUMPDEST JUMPDEST PUSH2 0x446 DUP6 DUP3 DUP7 ADD PUSH2 0x3DA JUMP JUMPDEST SWAP3 POP POP PUSH1 0x20 DUP4 ADD CALLDATALOAD PUSH8 0xFFFFFFFFFFFFFFFF DUP2 GT ISZERO PUSH2 0x467 JUMPI PUSH2 0x466 PUSH2 0x2C7 JUMP JUMPDEST JUMPDEST PUSH2 0x473 DUP6 DUP3 DUP7 ADD PUSH2 0x3DA JUMP JUMPDEST SWAP2 POP POP SWAP3 POP SWAP3 SWAP1 POP JUMP JUMPDEST PUSH0 DUP2 MLOAD SWAP1 POP SWAP2 SWAP1 POP JUMP JUMPDEST PUSH0 DUP3 DUP3 MSTORE PUSH1 0x20 DUP3 ADD SWAP1 POP SWAP3 SWAP2 POP POP JUMP JUMPDEST PUSH0 DUP2 SWAP1 POP PUSH1 0x20 DUP3 ADD SWAP1 POP SWAP2 SWAP1 POP JUMP JUMPDEST PUSH0 DUP2 SWAP1 POP SWAP2 SWAP1 POP JUMP JUMPDEST PUSH2 0x4B8 DUP2 PUSH2 0x4A6 JUMP JUMPDEST DUP3 MSTORE POP POP JUMP JUMPDEST PUSH0 DUP2 MLOAD SWAP1 POP SWAP2 SWAP1 POP JUMP JUMPDEST PUSH0 DUP3 DUP3 MSTORE PUSH1 0x20 DUP3 ADD SWAP1 POP SWAP3 SWAP2 POP POP JUMP JUMPDEST DUP3 DUP2 DUP4 MCOPY PUSH0 DUP4 DUP4 ADD MSTORE POP POP POP JUMP JUMPDEST PUSH0 PUSH2 0x4F0 DUP3 PUSH2 0x4BE JUMP JUMPDEST PUSH2 0x4FA DUP2 DUP6 PUSH2 0x4C8 JUMP JUMPDEST SWAP4 POP PUSH2 0x50A DUP2 DUP6 PUSH1 0x20 DUP7 ADD PUSH2 0x4D8 JUMP JUMPDEST PUSH2 0x513 DUP2 PUSH2 0x2D3 JUMP JUMPDEST DUP5 ADD SWAP2 POP POP SWAP3 SWAP2 POP POP JUMP JUMPDEST PUSH0 PUSH1 0x60 DUP4 ADD PUSH0 DUP4 ADD MLOAD PUSH2 0x533 PUSH0 DUP7 ADD DUP3 PUSH2 0x4AF JUMP JUMPDEST POP PUSH1 0x20 DUP4 ADD MLOAD DUP5 DUP3 SUB PUSH1 0x20 DUP7 ADD MSTORE PUSH2 0x54B DUP3 DUP3 PUSH2 0x4E6 JUMP JUMPDEST SWAP2 POP POP PUSH1 0x40 DUP4 ADD MLOAD DUP5 DUP3 SUB PUSH1 0x40 DUP7 ADD MSTORE PUSH2 0x565 DUP3 DUP3 PUSH2 0x4E6 JUMP JUMPDEST SWAP2 POP POP DUP1 SWAP2 POP POP SWAP3 SWAP2 POP POP JUMP JUMPDEST PUSH0 PUSH2 0x57D DUP4 DUP4 PUSH2 0x51E JUMP JUMPDEST SWAP1 POP SWAP3 SWAP2 POP POP JUMP JUMPDEST PUSH0 PUSH1 0x20 DUP3 ADD SWAP1 POP SWAP2 SWAP1 POP JUMP JUMPDEST PUSH0 PUSH2 0x59B DUP3 PUSH2 0x47D JUMP JUMPDEST PUSH2 0x5A5 DUP2 DUP6 PUSH2 0x487 JUMP JUMPDEST SWAP4 POP DUP4 PUSH1 0x20 DUP3 MUL DUP6 ADD PUSH2 0x5B7 DUP6 PUSH2 0x497 JUMP JUMPDEST DUP1 PUSH0 JUMPDEST DUP6 DUP2 LT ISZERO PUSH2 0x5F2 JUMPI DUP5 DUP5 SUB DUP10 MSTORE DUP2 MLOAD PUSH2 0x5D3 DUP6 DUP3 PUSH2 0x572 JUMP JUMPDEST SWAP5 POP PUSH2 0x5DE DUP4 PUSH2 0x585 JUMP JUMPDEST SWAP3 POP PUSH1 0x20 DUP11 ADD SWAP10 POP POP PUSH1 0x1 DUP2 ADD SWAP1 POP PUSH2 0x5BA JUMP JUMPDEST POP DUP3 SWAP8 POP DUP8 SWAP6 POP POP POP POP POP POP SWAP3 SWAP2 POP POP JUMP JUMPDEST PUSH0 PUSH1 0x20 DUP3 ADD SWAP1 POP DUP2 DUP2 SUB PUSH0 DUP4 ADD MSTORE PUSH2 0x61C DUP2 DUP5 PUSH2 0x591 JUMP JUMPDEST SWAP1 POP SWAP3 SWAP2 POP POP JUMP JUMPDEST PUSH2 0x62D DUP2 PUSH2 0x4A6 JUMP JUMPDEST DUP3 MSTORE POP POP JUMP JUMPDEST PUSH0 PUSH1 0x20 DUP3 ADD SWAP1 POP PUSH2 0x646 PUSH0 DUP4 ADD DUP5 PUSH2 0x624 JUMP JUMPDEST SWAP3 SWAP2 POP POP JUMP JUMPDEST PUSH32 0x4E487B7100000000000000000000000000000000000000000000000000000000 PUSH0 MSTORE PUSH1 0x22 PUSH1 0x4 MSTORE PUSH1 0x24 PUSH0 REVERT JUMPDEST PUSH0 PUSH1 0x2 DUP3 DIV SWAP1 POP PUSH1 0x1 DUP3 AND DUP1 PUSH2 0x690 JUMPI PUSH1 0x7F DUP3 AND SWAP2 POP JUMPDEST PUSH1 0x20 DUP3 LT DUP2 SUB PUSH2 0x6A3 JUMPI PUSH2 0x6A2 PUSH2 0x64C JUMP JUMPDEST JUMPDEST POP SWAP2 SWAP1 POP JUMP JUMPDEST PUSH0 DUP2 SWAP1 POP DUP2 PUSH0 MSTORE PUSH1 0x20 PUSH0 KECCAK256 SWAP1 POP SWAP2 SWAP1 POP JUMP JUMPDEST PUSH0 PUSH1 0x20 PUSH1 0x1F DUP4 ADD DIV SWAP1 POP SWAP2 SWAP1 POP JUMP JUMPDEST PUSH0 DUP3 DUP3 SHL SWAP1 POP SWAP3 SWAP2 POP POP JUMP JUMPDEST PUSH0 PUSH1 0x8 DUP4 MUL PUSH2 0x705 PUSH32 0xFFFFFFFFFFFFFFFFFFFFFFFFFFFFFFFFFFFFFFFFFFFFFFFFFFFFFFFFFFFFFFFF DUP3 PUSH2 0x6CA JUMP JUMPDEST PUSH2 0x70F DUP7 DUP4 PUSH2 0x6CA JUMP JUMPDEST SWAP6 POP DUP1 NOT DUP5 AND SWAP4 POP DUP1 DUP7 AND DUP5 OR SWAP3 POP POP POP SWAP4 SWAP3 POP POP POP JUMP JUMPDEST PUSH0 DUP2 SWAP1 POP SWAP2 SWAP1 POP JUMP JUMPDEST PUSH0 PUSH2 0x74A PUSH2 0x745 PUSH2 0x740 DUP5 PUSH2 0x4A6 JUMP JUMPDEST PUSH2 0x727 JUMP JUMPDEST PUSH2 0x4A6 JUMP JUMPDEST SWAP1 POP SWAP2 SWAP1 POP JUMP JUMPDEST PUSH0 DUP2 SWAP1 POP SWAP2 SWAP1 POP JUMP JUMPDEST PUSH2 0x763 DUP4 PUSH2 0x730 JUMP JUMPDEST PUSH2 0x777 PUSH2 0x76F DUP3 PUSH2 0x751 JUMP JUMPDEST DUP5 DUP5 SLOAD PUSH2 0x6D6 JUMP JUMPDEST DUP3 SSTORE POP POP POP POP JUMP JUMPDEST PUSH0 SWAP1 JUMP JUMPDEST PUSH2 0x78B PUSH2 0x77F JUMP JUMPDEST PUSH2 0x796 DUP2 DUP5 DUP5 PUSH2 0x75A JUMP JUMPDEST POP POP POP JUMP JUMPDEST JUMPDEST DUP2 DUP2 LT ISZERO PUSH2 0x7B9 JUMPI PUSH2 0x7AE PUSH0 DUP3 PUSH2 0x783 JUMP JUMPDEST PUSH1 0x1 DUP2 ADD SWAP1 POP PUSH2 0x79C JUMP JUMPDEST POP POP JUMP JUMPDEST PUSH1 0x1F DUP3 GT ISZERO PUSH2 0x7FE JUMPI PUSH2 0x7CF DUP2 PUSH2 0x6A9 JUMP JUMPDEST PUSH2 0x7D8 DUP5 PUSH2 0x6BB JUMP JUMPDEST DUP2 ADD PUSH1 0x20 DUP6 LT ISZERO PUSH2 0x7E7 JUMPI DUP2 SWAP1 POP JUMPDEST PUSH2 0x7FB PUSH2 0x7F3 DUP6 PUSH2 0x6BB JUMP JUMPDEST DUP4 ADD DUP3 PUSH2 0x79B JUMP JUMPDEST POP POP JUMPDEST POP POP POP JUMP JUMPDEST PUSH0 DUP3 DUP3 SHR SWAP1 POP SWAP3 SWAP2 POP POP JUMP JUMPDEST PUSH0 PUSH2 0x81E PUSH0 NOT DUP5 PUSH1 0x8 MUL PUSH2 0x803 JUMP JUMPDEST NOT DUP1 DUP4 AND SWAP2 POP POP SWAP3 SWAP2 POP POP JUMP JUMPDEST PUSH0 PUSH2 0x836 DUP4 DUP4 PUSH2 0x80F JUMP JUMPDEST SWAP2 POP DUP3 PUSH1 0x2 MUL DUP3 OR SWAP1 POP SWAP3 SWAP2 POP POP JUMP JUMPDEST PUSH2 0x84F DUP3 PUSH2 0x4BE JUMP JUMPDEST PUSH8 0xFFFFFFFFFFFFFFFF DUP2 GT ISZERO PUSH2 0x868 JUMPI PUSH2 0x867 PUSH2 0x2E3 JUMP JUMPDEST JUMPDEST PUSH2 0x872 DUP3 SLOAD PUSH2 0x679 JUMP JUMPDEST PUSH2 0x87D DUP3 DUP3 DUP6 PUSH2 0x7BD JUMP JUMPDEST PUSH0 PUSH1 0x20 SWAP1 POP PUSH1 0x1F DUP4 GT PUSH1 0x1 DUP2 EQ PUSH2 0x8AE JUMPI PUSH0 DUP5 ISZERO PUSH2 0x89C JUMPI DUP3 DUP8 ADD MLOAD SWAP1 POP JUMPDEST PUSH2 0x8A6 DUP6 DUP3 PUSH2 0x82B JUMP JUMPDEST DUP7 SSTORE POP PUSH2 0x90D JUMP JUMPDEST PUSH1 0x1F NOT DUP5 AND PUSH2 0x8BC DUP7 PUSH2 0x6A9 JUMP JUMPDEST PUSH0 JUMPDEST DUP3 DUP2 LT ISZERO PUSH2 0x8E3 JUMPI DUP5 DUP10 ADD MLOAD DUP3 SSTORE PUSH1 0x1 DUP3 ADD SWAP2 POP PUSH1 0x20 DUP6 ADD SWAP5 POP PUSH1 0x20 DUP2 ADD SWAP1 POP PUSH2 0x8BE JUMP JUMPDEST DUP7 DUP4 LT ISZERO PUSH2 0x900 JUMPI DUP5 DUP10 ADD MLOAD PUSH2 0x8FC PUSH1 0x1F DUP10 AND DUP3 PUSH2 0x80F JUMP JUMPDEST DUP4 SSTORE POP JUMPDEST PUSH1 0x1 PUSH1 0x2 DUP9 MUL ADD DUP9 SSTORE POP POP POP JUMPDEST POP POP POP POP POP POP JUMP JUMPDEST PUSH32 0x4E487B7100000000000000000000000000000000000000000000000000000000 PUSH0 MSTORE PUSH1 0x11 PUSH1 0x4 MSTORE PUSH1 0x24 PUSH0 REVERT JUMPDEST PUSH0 PUSH2 0x94C DUP3 PUSH2 0x4A6 JUMP JUMPDEST SWAP2 POP PUSH32 0xFFFFFFFFFFFFFFFFFFFFFFFFFFFFFFFFFFFFFFFFFFFFFFFFFFFFFFFFFFFFFFFF DUP3 SUB PUSH2 0x97E JUMPI PUSH2 0x97D PUSH2 0x915 JUMP JUMPDEST JUMPDEST PUSH1 0x1 DUP3 ADD SWAP1 POP SWAP2 SWAP1 POP JUMP INVALID LOG2 PUSH5 0x6970667358 0x22 SLT KECCAK256 CALLVALUE 0x29 PUSH1 0xB6 GT CODECOPY DUP16 SIGNEXTEND 0xF7 SWAP15 0x26 MSTORE8 SELFBALANCE 0x4F 0x23 SWAP1 0xCB 0x2B BLOBBASEFEE NUMBER 0xDA 0xAD KECCAK256 MSTORE8 0xBD CALLDATALOAD PUSH10 0x6EA9C80B6464736F6C63 NUMBER STOP ADDMOD BYTE STOP CALLER "
				},
				"gasEstimates": {
					"creation": {
						"codeDepositCost": "499000",
						"executionCost": "22634",
						"totalCost": "521634"
					},
					"external": {
						"getStudent()": "infinite",
						"i()": "2447",
						"setStudent(string,string)": "infinite"
					}
				},
				"methodIdentifiers": {
					"getStudent()": "b439548d",
					"i()": "e5aa3d58",
					"setStudent(string,string)": "6cb6598d"
				}
			},
			"storageLayout": {
				"storage": [
					{
						"astId": 131,
						"contract": "solidity_100/11-20.sol:Q14",
						"label": "students",
						"offset": 0,
						"slot": "0",
						"type": "t_array(t_struct(Student)127_storage)dyn_storage"
					},
					{
						"astId": 134,
						"contract": "solidity_100/11-20.sol:Q14",
						"label": "i",
						"offset": 0,
						"slot": "1",
						"type": "t_uint256"
					}
				],
				"types": {
					"t_array(t_struct(Student)127_storage)dyn_storage": {
						"base": "t_struct(Student)127_storage",
						"encoding": "dynamic_array",
						"label": "struct Q14.Student[]",
						"numberOfBytes": "32"
					},
					"t_string_storage": {
						"encoding": "bytes",
						"label": "string",
						"numberOfBytes": "32"
					},
					"t_struct(Student)127_storage": {
						"encoding": "inplace",
						"label": "struct Q14.Student",
						"members": [
							{
								"astId": 122,
								"contract": "solidity_100/11-20.sol:Q14",
								"label": "number",
								"offset": 0,
								"slot": "0",
								"type": "t_uint256"
							},
							{
								"astId": 124,
								"contract": "solidity_100/11-20.sol:Q14",
								"label": "name",
								"offset": 0,
								"slot": "1",
								"type": "t_string_storage"
							},
							{
								"astId": 126,
								"contract": "solidity_100/11-20.sol:Q14",
								"label": "class",
								"offset": 0,
								"slot": "2",
								"type": "t_string_storage"
							}
						],
						"numberOfBytes": "96"
					},
					"t_uint256": {
						"encoding": "inplace",
						"label": "uint256",
						"numberOfBytes": "32"
					}
				}
			},
			"userdoc": {
				"kind": "user",
				"methods": {},
				"version": 1
			}
		}
	}
}