{
	"solidity_100/31-40.sol": {
		"Q36": {
			"abi": [
				{
					"inputs": [
						{
							"internalType": "uint256",
							"name": "_a",
							"type": "uint256"
						}
					],
					"name": "stateA",
					"outputs": [
						{
							"internalType": "string",
							"name": "",
							"type": "string"
						}
					],
					"stateMutability": "nonpayable",
					"type": "function"
				}
			],
			"devdoc": {
				"kind": "dev",
				"methods": {},
				"version": 1
			},
			"evm": {
				"assembly": "    /* \"solidity_100/31-40.sol\":3480:4006  contract Q36 {... */\n  mstore(0x40, 0x80)\n  callvalue\n  dup1\n  iszero\n  tag_1\n  jumpi\n  0x00\n  dup1\n  revert\ntag_1:\n  pop\n  dataSize(sub_0)\n  dup1\n  dataOffset(sub_0)\n  0x00\n  codecopy\n  0x00\n  return\nstop\n\nsub_0: assembly {\n        /* \"solidity_100/31-40.sol\":3480:4006  contract Q36 {... */\n      mstore(0x40, 0x80)\n      callvalue\n      dup1\n      iszero\n      tag_1\n      jumpi\n      0x00\n      dup1\n      revert\n    tag_1:\n      pop\n      jumpi(tag_2, lt(calldatasize, 0x04))\n      shr(0xe0, calldataload(0x00))\n      dup1\n      0x0d10a33c\n      eq\n      tag_3\n      jumpi\n    tag_2:\n      0x00\n      dup1\n      revert\n        /* \"solidity_100/31-40.sol\":3745:4003  function stateA(uint _a) public returns(string memory){... */\n    tag_3:\n      tag_4\n      0x04\n      dup1\n      calldatasize\n      sub\n      dup2\n      add\n      swap1\n      tag_5\n      swap2\n      swap1\n      tag_6\n      jump\t// in\n    tag_5:\n      tag_7\n      jump\t// in\n    tag_4:\n      mload(0x40)\n      tag_8\n      swap2\n      swap1\n      tag_9\n      jump\t// in\n    tag_8:\n      mload(0x40)\n      dup1\n      swap2\n      sub\n      swap1\n      return\n    tag_7:\n        /* \"solidity_100/31-40.sol\":3785:3798  string memory */\n      0x60\n        /* \"solidity_100/31-40.sol\":3819:3820  7 */\n      0x07\n        /* \"solidity_100/31-40.sol\":3813:3815  _a */\n      dup3\n        /* \"solidity_100/31-40.sol\":3813:3820  _a >= 7 */\n      lt\n        /* \"solidity_100/31-40.sol\":3810:3971  if(_a >= 7) {... */\n      tag_11\n      jumpi\n        /* \"solidity_100/31-40.sol\":3837:3851  a[_a] = \"high\" */\n      mload(0x40)\n      dup1\n      0x40\n      add\n      0x40\n      mstore\n      dup1\n      0x04\n      dup2\n      mstore\n      0x20\n      add\n      0x6869676800000000000000000000000000000000000000000000000000000000\n      dup2\n      mstore\n      pop\n        /* \"solidity_100/31-40.sol\":3837:3838  a */\n      0x00\n        /* \"solidity_100/31-40.sol\":3837:3842  a[_a] */\n      dup1\n        /* \"solidity_100/31-40.sol\":3839:3841  _a */\n      dup5\n        /* \"solidity_100/31-40.sol\":3837:3842  a[_a] */\n      dup2\n      mstore\n      0x20\n      add\n      swap1\n      dup2\n      mstore\n      0x20\n      add\n      0x00\n      keccak256\n        /* \"solidity_100/31-40.sol\":3837:3851  a[_a] = \"high\" */\n      swap1\n      dup2\n      tag_12\n      swap2\n      swap1\n      tag_13\n      jump\t// in\n    tag_12:\n      pop\n        /* \"solidity_100/31-40.sol\":3810:3971  if(_a >= 7) {... */\n      jump(tag_14)\n    tag_11:\n        /* \"solidity_100/31-40.sol\":3878:3879  4 */\n      0x04\n        /* \"solidity_100/31-40.sol\":3872:3874  _a */\n      dup3\n        /* \"solidity_100/31-40.sol\":3872:3879  _a >= 4 */\n      lt\n        /* \"solidity_100/31-40.sol\":3869:3971  if(_a >= 4) {... */\n      tag_15\n      jumpi\n        /* \"solidity_100/31-40.sol\":3896:3913  a[_a] = \"neutral\" */\n      mload(0x40)\n      dup1\n      0x40\n      add\n      0x40\n      mstore\n      dup1\n      0x07\n      dup2\n      mstore\n      0x20\n      add\n      0x6e65757472616c00000000000000000000000000000000000000000000000000\n      dup2\n      mstore\n      pop\n        /* \"solidity_100/31-40.sol\":3896:3897  a */\n      0x00\n        /* \"solidity_100/31-40.sol\":3896:3901  a[_a] */\n      dup1\n        /* \"solidity_100/31-40.sol\":3898:3900  _a */\n      dup5\n        /* \"solidity_100/31-40.sol\":3896:3901  a[_a] */\n      dup2\n      mstore\n      0x20\n      add\n      swap1\n      dup2\n      mstore\n      0x20\n      add\n      0x00\n      keccak256\n        /* \"solidity_100/31-40.sol\":3896:3913  a[_a] = \"neutral\" */\n      swap1\n      dup2\n      tag_16\n      swap2\n      swap1\n      tag_13\n      jump\t// in\n    tag_16:\n      pop\n        /* \"solidity_100/31-40.sol\":3869:3971  if(_a >= 4) {... */\n      jump(tag_17)\n    tag_15:\n        /* \"solidity_100/31-40.sol\":3946:3959  a[_a] = \"low\" */\n      mload(0x40)\n      dup1\n      0x40\n      add\n      0x40\n      mstore\n      dup1\n      0x03\n      dup2\n      mstore\n      0x20\n      add\n      0x6c6f770000000000000000000000000000000000000000000000000000000000\n      dup2\n      mstore\n      pop\n        /* \"solidity_100/31-40.sol\":3946:3947  a */\n      0x00\n        /* \"solidity_100/31-40.sol\":3946:3951  a[_a] */\n      dup1\n        /* \"solidity_100/31-40.sol\":3948:3950  _a */\n      dup5\n        /* \"solidity_100/31-40.sol\":3946:3951  a[_a] */\n      dup2\n      mstore\n      0x20\n      add\n      swap1\n      dup2\n      mstore\n      0x20\n      add\n      0x00\n      keccak256\n        /* \"solidity_100/31-40.sol\":3946:3959  a[_a] = \"low\" */\n      swap1\n      dup2\n      tag_18\n      swap2\n      swap1\n      tag_13\n      jump\t// in\n    tag_18:\n      pop\n        /* \"solidity_100/31-40.sol\":3869:3971  if(_a >= 4) {... */\n    tag_17:\n        /* \"solidity_100/31-40.sol\":3810:3971  if(_a >= 7) {... */\n    tag_14:\n        /* \"solidity_100/31-40.sol\":3990:3991  a */\n      0x00\n        /* \"solidity_100/31-40.sol\":3990:3995  a[_a] */\n      dup1\n        /* \"solidity_100/31-40.sol\":3992:3994  _a */\n      dup4\n        /* \"solidity_100/31-40.sol\":3990:3995  a[_a] */\n      dup2\n      mstore\n      0x20\n      add\n      swap1\n      dup2\n      mstore\n      0x20\n      add\n      0x00\n      keccak256\n        /* \"solidity_100/31-40.sol\":3983:3995  return a[_a] */\n      dup1\n      sload\n      tag_19\n      swap1\n      tag_20\n      jump\t// in\n    tag_19:\n      dup1\n      0x1f\n      add\n      0x20\n      dup1\n      swap2\n      div\n      mul\n      0x20\n      add\n      mload(0x40)\n      swap1\n      dup2\n      add\n      0x40\n      mstore\n      dup1\n      swap3\n      swap2\n      swap1\n      dup2\n      dup2\n      mstore\n      0x20\n      add\n      dup3\n      dup1\n      sload\n      tag_21\n      swap1\n      tag_20\n      jump\t// in\n    tag_21:\n      dup1\n      iszero\n      tag_22\n      jumpi\n      dup1\n      0x1f\n      lt\n      tag_23\n      jumpi\n      0x0100\n      dup1\n      dup4\n      sload\n      div\n      mul\n      dup4\n      mstore\n      swap2\n      0x20\n      add\n      swap2\n      jump(tag_22)\n    tag_23:\n      dup3\n      add\n      swap2\n      swap1\n      0x00\n      mstore\n      keccak256(0x00, 0x20)\n      swap1\n    tag_24:\n      dup2\n      sload\n      dup2\n      mstore\n      swap1\n      0x01\n      add\n      swap1\n      0x20\n      add\n      dup1\n      dup4\n      gt\n      tag_24\n      jumpi\n      dup3\n      swap1\n      sub\n      0x1f\n      and\n      dup3\n      add\n      swap2\n    tag_22:\n      pop\n      pop\n      pop\n      pop\n      pop\n      swap1\n      pop\n        /* \"solidity_100/31-40.sol\":3745:4003  function stateA(uint _a) public returns(string memory){... */\n      swap2\n      swap1\n      pop\n      jump\t// out\n        /* \"#utility.yul\":88:205   */\n    tag_26:\n        /* \"#utility.yul\":197:198   */\n      0x00\n        /* \"#utility.yul\":194:195   */\n      dup1\n        /* \"#utility.yul\":187:199   */\n      revert\n        /* \"#utility.yul\":334:411   */\n    tag_28:\n        /* \"#utility.yul\":371:378   */\n      0x00\n        /* \"#utility.yul\":400:405   */\n      dup2\n        /* \"#utility.yul\":389:405   */\n      swap1\n      pop\n        /* \"#utility.yul\":334:411   */\n      swap2\n      swap1\n      pop\n      jump\t// out\n        /* \"#utility.yul\":417:539   */\n    tag_29:\n        /* \"#utility.yul\":490:514   */\n      tag_59\n        /* \"#utility.yul\":508:513   */\n      dup2\n        /* \"#utility.yul\":490:514   */\n      tag_28\n      jump\t// in\n    tag_59:\n        /* \"#utility.yul\":483:488   */\n      dup2\n        /* \"#utility.yul\":480:515   */\n      eq\n        /* \"#utility.yul\":470:533   */\n      tag_60\n      jumpi\n        /* \"#utility.yul\":529:530   */\n      0x00\n        /* \"#utility.yul\":526:527   */\n      dup1\n        /* \"#utility.yul\":519:531   */\n      revert\n        /* \"#utility.yul\":470:533   */\n    tag_60:\n        /* \"#utility.yul\":417:539   */\n      pop\n      jump\t// out\n        /* \"#utility.yul\":545:684   */\n    tag_30:\n        /* \"#utility.yul\":591:596   */\n      0x00\n        /* \"#utility.yul\":629:635   */\n      dup2\n        /* \"#utility.yul\":616:636   */\n      calldataload\n        /* \"#utility.yul\":607:636   */\n      swap1\n      pop\n        /* \"#utility.yul\":645:678   */\n      tag_62\n        /* \"#utility.yul\":672:677   */\n      dup2\n        /* \"#utility.yul\":645:678   */\n      tag_29\n      jump\t// in\n    tag_62:\n        /* \"#utility.yul\":545:684   */\n      swap3\n      swap2\n      pop\n      pop\n      jump\t// out\n        /* \"#utility.yul\":690:1019   */\n    tag_6:\n        /* \"#utility.yul\":749:755   */\n      0x00\n        /* \"#utility.yul\":798:800   */\n      0x20\n        /* \"#utility.yul\":786:795   */\n      dup3\n        /* \"#utility.yul\":777:784   */\n      dup5\n        /* \"#utility.yul\":773:796   */\n      sub\n        /* \"#utility.yul\":769:801   */\n      slt\n        /* \"#utility.yul\":766:885   */\n      iszero\n      tag_64\n      jumpi\n        /* \"#utility.yul\":804:883   */\n      tag_65\n      tag_26\n      jump\t// in\n    tag_65:\n        /* \"#utility.yul\":766:885   */\n    tag_64:\n        /* \"#utility.yul\":924:925   */\n      0x00\n        /* \"#utility.yul\":949:1002   */\n      tag_66\n        /* \"#utility.yul\":994:1001   */\n      dup5\n        /* \"#utility.yul\":985:991   */\n      dup3\n        /* \"#utility.yul\":974:983   */\n      dup6\n        /* \"#utility.yul\":970:992   */\n      add\n        /* \"#utility.yul\":949:1002   */\n      tag_30\n      jump\t// in\n    tag_66:\n        /* \"#utility.yul\":939:1002   */\n      swap2\n      pop\n        /* \"#utility.yul\":895:1012   */\n      pop\n        /* \"#utility.yul\":690:1019   */\n      swap3\n      swap2\n      pop\n      pop\n      jump\t// out\n        /* \"#utility.yul\":1025:1124   */\n    tag_31:\n        /* \"#utility.yul\":1077:1083   */\n      0x00\n        /* \"#utility.yul\":1111:1116   */\n      dup2\n        /* \"#utility.yul\":1105:1117   */\n      mload\n        /* \"#utility.yul\":1095:1117   */\n      swap1\n      pop\n        /* \"#utility.yul\":1025:1124   */\n      swap2\n      swap1\n      pop\n      jump\t// out\n        /* \"#utility.yul\":1130:1299   */\n    tag_32:\n        /* \"#utility.yul\":1214:1225   */\n      0x00\n        /* \"#utility.yul\":1248:1254   */\n      dup3\n        /* \"#utility.yul\":1243:1246   */\n      dup3\n        /* \"#utility.yul\":1236:1255   */\n      mstore\n        /* \"#utility.yul\":1288:1292   */\n      0x20\n        /* \"#utility.yul\":1283:1286   */\n      dup3\n        /* \"#utility.yul\":1279:1293   */\n      add\n        /* \"#utility.yul\":1264:1293   */\n      swap1\n      pop\n        /* \"#utility.yul\":1130:1299   */\n      swap3\n      swap2\n      pop\n      pop\n      jump\t// out\n        /* \"#utility.yul\":1305:1444   */\n    tag_33:\n        /* \"#utility.yul\":1394:1400   */\n      dup3\n        /* \"#utility.yul\":1389:1392   */\n      dup2\n        /* \"#utility.yul\":1384:1387   */\n      dup4\n        /* \"#utility.yul\":1378:1401   */\n      mcopy\n        /* \"#utility.yul\":1435:1436   */\n      0x00\n        /* \"#utility.yul\":1426:1432   */\n      dup4\n        /* \"#utility.yul\":1421:1424   */\n      dup4\n        /* \"#utility.yul\":1417:1433   */\n      add\n        /* \"#utility.yul\":1410:1437   */\n      mstore\n        /* \"#utility.yul\":1305:1444   */\n      pop\n      pop\n      pop\n      jump\t// out\n        /* \"#utility.yul\":1450:1552   */\n    tag_34:\n        /* \"#utility.yul\":1491:1497   */\n      0x00\n        /* \"#utility.yul\":1542:1544   */\n      0x1f\n        /* \"#utility.yul\":1538:1545   */\n      not\n        /* \"#utility.yul\":1533:1535   */\n      0x1f\n        /* \"#utility.yul\":1526:1531   */\n      dup4\n        /* \"#utility.yul\":1522:1536   */\n      add\n        /* \"#utility.yul\":1518:1546   */\n      and\n        /* \"#utility.yul\":1508:1546   */\n      swap1\n      pop\n        /* \"#utility.yul\":1450:1552   */\n      swap2\n      swap1\n      pop\n      jump\t// out\n        /* \"#utility.yul\":1558:1935   */\n    tag_35:\n        /* \"#utility.yul\":1646:1649   */\n      0x00\n        /* \"#utility.yul\":1674:1713   */\n      tag_72\n        /* \"#utility.yul\":1707:1712   */\n      dup3\n        /* \"#utility.yul\":1674:1713   */\n      tag_31\n      jump\t// in\n    tag_72:\n        /* \"#utility.yul\":1729:1800   */\n      tag_73\n        /* \"#utility.yul\":1793:1799   */\n      dup2\n        /* \"#utility.yul\":1788:1791   */\n      dup6\n        /* \"#utility.yul\":1729:1800   */\n      tag_32\n      jump\t// in\n    tag_73:\n        /* \"#utility.yul\":1722:1800   */\n      swap4\n      pop\n        /* \"#utility.yul\":1809:1874   */\n      tag_74\n        /* \"#utility.yul\":1867:1873   */\n      dup2\n        /* \"#utility.yul\":1862:1865   */\n      dup6\n        /* \"#utility.yul\":1855:1859   */\n      0x20\n        /* \"#utility.yul\":1848:1853   */\n      dup7\n        /* \"#utility.yul\":1844:1860   */\n      add\n        /* \"#utility.yul\":1809:1874   */\n      tag_33\n      jump\t// in\n    tag_74:\n        /* \"#utility.yul\":1899:1928   */\n      tag_75\n        /* \"#utility.yul\":1921:1927   */\n      dup2\n        /* \"#utility.yul\":1899:1928   */\n      tag_34\n      jump\t// in\n    tag_75:\n        /* \"#utility.yul\":1894:1897   */\n      dup5\n        /* \"#utility.yul\":1890:1929   */\n      add\n        /* \"#utility.yul\":1883:1929   */\n      swap2\n      pop\n        /* \"#utility.yul\":1650:1935   */\n      pop\n        /* \"#utility.yul\":1558:1935   */\n      swap3\n      swap2\n      pop\n      pop\n      jump\t// out\n        /* \"#utility.yul\":1941:2254   */\n    tag_9:\n        /* \"#utility.yul\":2054:2058   */\n      0x00\n        /* \"#utility.yul\":2092:2094   */\n      0x20\n        /* \"#utility.yul\":2081:2090   */\n      dup3\n        /* \"#utility.yul\":2077:2095   */\n      add\n        /* \"#utility.yul\":2069:2095   */\n      swap1\n      pop\n        /* \"#utility.yul\":2141:2150   */\n      dup2\n        /* \"#utility.yul\":2135:2139   */\n      dup2\n        /* \"#utility.yul\":2131:2151   */\n      sub\n        /* \"#utility.yul\":2127:2128   */\n      0x00\n        /* \"#utility.yul\":2116:2125   */\n      dup4\n        /* \"#utility.yul\":2112:2129   */\n      add\n        /* \"#utility.yul\":2105:2152   */\n      mstore\n        /* \"#utility.yul\":2169:2247   */\n      tag_77\n        /* \"#utility.yul\":2242:2246   */\n      dup2\n        /* \"#utility.yul\":2233:2239   */\n      dup5\n        /* \"#utility.yul\":2169:2247   */\n      tag_35\n      jump\t// in\n    tag_77:\n        /* \"#utility.yul\":2161:2247   */\n      swap1\n      pop\n        /* \"#utility.yul\":1941:2254   */\n      swap3\n      swap2\n      pop\n      pop\n      jump\t// out\n        /* \"#utility.yul\":2260:2440   */\n    tag_36:\n        /* \"#utility.yul\":2308:2385   */\n      0x4e487b7100000000000000000000000000000000000000000000000000000000\n        /* \"#utility.yul\":2305:2306   */\n      0x00\n        /* \"#utility.yul\":2298:2386   */\n      mstore\n        /* \"#utility.yul\":2405:2409   */\n      0x41\n        /* \"#utility.yul\":2402:2403   */\n      0x04\n        /* \"#utility.yul\":2395:2410   */\n      mstore\n        /* \"#utility.yul\":2429:2433   */\n      0x24\n        /* \"#utility.yul\":2426:2427   */\n      0x00\n        /* \"#utility.yul\":2419:2434   */\n      revert\n        /* \"#utility.yul\":2446:2626   */\n    tag_37:\n        /* \"#utility.yul\":2494:2571   */\n      0x4e487b7100000000000000000000000000000000000000000000000000000000\n        /* \"#utility.yul\":2491:2492   */\n      0x00\n        /* \"#utility.yul\":2484:2572   */\n      mstore\n        /* \"#utility.yul\":2591:2595   */\n      0x22\n        /* \"#utility.yul\":2588:2589   */\n      0x04\n        /* \"#utility.yul\":2581:2596   */\n      mstore\n        /* \"#utility.yul\":2615:2619   */\n      0x24\n        /* \"#utility.yul\":2612:2613   */\n      0x00\n        /* \"#utility.yul\":2605:2620   */\n      revert\n        /* \"#utility.yul\":2632:2952   */\n    tag_20:\n        /* \"#utility.yul\":2676:2682   */\n      0x00\n        /* \"#utility.yul\":2713:2714   */\n      0x02\n        /* \"#utility.yul\":2707:2711   */\n      dup3\n        /* \"#utility.yul\":2703:2715   */\n      div\n        /* \"#utility.yul\":2693:2715   */\n      swap1\n      pop\n        /* \"#utility.yul\":2760:2761   */\n      0x01\n        /* \"#utility.yul\":2754:2758   */\n      dup3\n        /* \"#utility.yul\":2750:2762   */\n      and\n        /* \"#utility.yul\":2781:2799   */\n      dup1\n        /* \"#utility.yul\":2771:2852   */\n      tag_81\n      jumpi\n        /* \"#utility.yul\":2837:2841   */\n      0x7f\n        /* \"#utility.yul\":2829:2835   */\n      dup3\n        /* \"#utility.yul\":2825:2842   */\n      and\n        /* \"#utility.yul\":2815:2842   */\n      swap2\n      pop\n        /* \"#utility.yul\":2771:2852   */\n    tag_81:\n        /* \"#utility.yul\":2899:2901   */\n      0x20\n        /* \"#utility.yul\":2891:2897   */\n      dup3\n        /* \"#utility.yul\":2888:2902   */\n      lt\n        /* \"#utility.yul\":2868:2886   */\n      dup2\n        /* \"#utility.yul\":2865:2903   */\n      sub\n        /* \"#utility.yul\":2862:2946   */\n      tag_82\n      jumpi\n        /* \"#utility.yul\":2918:2936   */\n      tag_83\n      tag_37\n      jump\t// in\n    tag_83:\n        /* \"#utility.yul\":2862:2946   */\n    tag_82:\n        /* \"#utility.yul\":2683:2952   */\n      pop\n        /* \"#utility.yul\":2632:2952   */\n      swap2\n      swap1\n      pop\n      jump\t// out\n        /* \"#utility.yul\":2958:3099   */\n    tag_38:\n        /* \"#utility.yul\":3007:3011   */\n      0x00\n        /* \"#utility.yul\":3030:3033   */\n      dup2\n        /* \"#utility.yul\":3022:3033   */\n      swap1\n      pop\n        /* \"#utility.yul\":3053:3056   */\n      dup2\n        /* \"#utility.yul\":3050:3051   */\n      0x00\n        /* \"#utility.yul\":3043:3057   */\n      mstore\n        /* \"#utility.yul\":3087:3091   */\n      0x20\n        /* \"#utility.yul\":3084:3085   */\n      0x00\n        /* \"#utility.yul\":3074:3092   */\n      keccak256\n        /* \"#utility.yul\":3066:3092   */\n      swap1\n      pop\n        /* \"#utility.yul\":2958:3099   */\n      swap2\n      swap1\n      pop\n      jump\t// out\n        /* \"#utility.yul\":3105:3198   */\n    tag_39:\n        /* \"#utility.yul\":3142:3148   */\n      0x00\n        /* \"#utility.yul\":3189:3191   */\n      0x20\n        /* \"#utility.yul\":3184:3186   */\n      0x1f\n        /* \"#utility.yul\":3177:3182   */\n      dup4\n        /* \"#utility.yul\":3173:3187   */\n      add\n        /* \"#utility.yul\":3169:3192   */\n      div\n        /* \"#utility.yul\":3159:3192   */\n      swap1\n      pop\n        /* \"#utility.yul\":3105:3198   */\n      swap2\n      swap1\n      pop\n      jump\t// out\n        /* \"#utility.yul\":3204:3311   */\n    tag_40:\n        /* \"#utility.yul\":3248:3256   */\n      0x00\n        /* \"#utility.yul\":3298:3303   */\n      dup3\n        /* \"#utility.yul\":3292:3296   */\n      dup3\n        /* \"#utility.yul\":3288:3304   */\n      shl\n        /* \"#utility.yul\":3267:3304   */\n      swap1\n      pop\n        /* \"#utility.yul\":3204:3311   */\n      swap3\n      swap2\n      pop\n      pop\n      jump\t// out\n        /* \"#utility.yul\":3317:3710   */\n    tag_41:\n        /* \"#utility.yul\":3386:3392   */\n      0x00\n        /* \"#utility.yul\":3436:3437   */\n      0x08\n        /* \"#utility.yul\":3424:3434   */\n      dup4\n        /* \"#utility.yul\":3420:3438   */\n      mul\n        /* \"#utility.yul\":3459:3556   */\n      tag_88\n        /* \"#utility.yul\":3489:3555   */\n      0xffffffffffffffffffffffffffffffffffffffffffffffffffffffffffffffff\n        /* \"#utility.yul\":3478:3487   */\n      dup3\n        /* \"#utility.yul\":3459:3556   */\n      tag_40\n      jump\t// in\n    tag_88:\n        /* \"#utility.yul\":3577:3616   */\n      tag_89\n        /* \"#utility.yul\":3607:3615   */\n      dup7\n        /* \"#utility.yul\":3596:3605   */\n      dup4\n        /* \"#utility.yul\":3577:3616   */\n      tag_40\n      jump\t// in\n    tag_89:\n        /* \"#utility.yul\":3565:3616   */\n      swap6\n      pop\n        /* \"#utility.yul\":3649:3653   */\n      dup1\n        /* \"#utility.yul\":3645:3654   */\n      not\n        /* \"#utility.yul\":3638:3643   */\n      dup5\n        /* \"#utility.yul\":3634:3655   */\n      and\n        /* \"#utility.yul\":3625:3655   */\n      swap4\n      pop\n        /* \"#utility.yul\":3698:3702   */\n      dup1\n        /* \"#utility.yul\":3688:3696   */\n      dup7\n        /* \"#utility.yul\":3684:3703   */\n      and\n        /* \"#utility.yul\":3677:3682   */\n      dup5\n        /* \"#utility.yul\":3674:3704   */\n      or\n        /* \"#utility.yul\":3664:3704   */\n      swap3\n      pop\n        /* \"#utility.yul\":3393:3710   */\n      pop\n      pop\n        /* \"#utility.yul\":3317:3710   */\n      swap4\n      swap3\n      pop\n      pop\n      pop\n      jump\t// out\n        /* \"#utility.yul\":3716:3776   */\n    tag_42:\n        /* \"#utility.yul\":3744:3747   */\n      0x00\n        /* \"#utility.yul\":3765:3770   */\n      dup2\n        /* \"#utility.yul\":3758:3770   */\n      swap1\n      pop\n        /* \"#utility.yul\":3716:3776   */\n      swap2\n      swap1\n      pop\n      jump\t// out\n        /* \"#utility.yul\":3782:3924   */\n    tag_43:\n        /* \"#utility.yul\":3832:3841   */\n      0x00\n        /* \"#utility.yul\":3865:3918   */\n      tag_92\n        /* \"#utility.yul\":3883:3917   */\n      tag_93\n        /* \"#utility.yul\":3892:3916   */\n      tag_94\n        /* \"#utility.yul\":3910:3915   */\n      dup5\n        /* \"#utility.yul\":3892:3916   */\n      tag_28\n      jump\t// in\n    tag_94:\n        /* \"#utility.yul\":3883:3917   */\n      tag_42\n      jump\t// in\n    tag_93:\n        /* \"#utility.yul\":3865:3918   */\n      tag_28\n      jump\t// in\n    tag_92:\n        /* \"#utility.yul\":3852:3918   */\n      swap1\n      pop\n        /* \"#utility.yul\":3782:3924   */\n      swap2\n      swap1\n      pop\n      jump\t// out\n        /* \"#utility.yul\":3930:4005   */\n    tag_44:\n        /* \"#utility.yul\":3973:3976   */\n      0x00\n        /* \"#utility.yul\":3994:3999   */\n      dup2\n        /* \"#utility.yul\":3987:3999   */\n      swap1\n      pop\n        /* \"#utility.yul\":3930:4005   */\n      swap2\n      swap1\n      pop\n      jump\t// out\n        /* \"#utility.yul\":4011:4280   */\n    tag_45:\n        /* \"#utility.yul\":4121:4160   */\n      tag_97\n        /* \"#utility.yul\":4152:4159   */\n      dup4\n        /* \"#utility.yul\":4121:4160   */\n      tag_43\n      jump\t// in\n    tag_97:\n        /* \"#utility.yul\":4182:4273   */\n      tag_98\n        /* \"#utility.yul\":4231:4272   */\n      tag_99\n        /* \"#utility.yul\":4255:4271   */\n      dup3\n        /* \"#utility.yul\":4231:4272   */\n      tag_44\n      jump\t// in\n    tag_99:\n        /* \"#utility.yul\":4223:4229   */\n      dup5\n        /* \"#utility.yul\":4216:4220   */\n      dup5\n        /* \"#utility.yul\":4210:4221   */\n      sload\n        /* \"#utility.yul\":4182:4273   */\n      tag_41\n      jump\t// in\n    tag_98:\n        /* \"#utility.yul\":4176:4180   */\n      dup3\n        /* \"#utility.yul\":4169:4274   */\n      sstore\n        /* \"#utility.yul\":4087:4280   */\n      pop\n        /* \"#utility.yul\":4011:4280   */\n      pop\n      pop\n      pop\n      jump\t// out\n        /* \"#utility.yul\":4286:4359   */\n    tag_46:\n        /* \"#utility.yul\":4331:4334   */\n      0x00\n        /* \"#utility.yul\":4286:4359   */\n      swap1\n      jump\t// out\n        /* \"#utility.yul\":4365:4554   */\n    tag_47:\n        /* \"#utility.yul\":4442:4474   */\n      tag_102\n      tag_46\n      jump\t// in\n    tag_102:\n        /* \"#utility.yul\":4483:4548   */\n      tag_103\n        /* \"#utility.yul\":4541:4547   */\n      dup2\n        /* \"#utility.yul\":4533:4539   */\n      dup5\n        /* \"#utility.yul\":4527:4531   */\n      dup5\n        /* \"#utility.yul\":4483:4548   */\n      tag_45\n      jump\t// in\n    tag_103:\n        /* \"#utility.yul\":4418:4554   */\n      pop\n        /* \"#utility.yul\":4365:4554   */\n      pop\n      pop\n      jump\t// out\n        /* \"#utility.yul\":4560:4746   */\n    tag_48:\n        /* \"#utility.yul\":4620:4740   */\n    tag_105:\n        /* \"#utility.yul\":4637:4640   */\n      dup2\n        /* \"#utility.yul\":4630:4635   */\n      dup2\n        /* \"#utility.yul\":4627:4641   */\n      lt\n        /* \"#utility.yul\":4620:4740   */\n      iszero\n      tag_107\n      jumpi\n        /* \"#utility.yul\":4691:4730   */\n      tag_108\n        /* \"#utility.yul\":4728:4729   */\n      0x00\n        /* \"#utility.yul\":4721:4726   */\n      dup3\n        /* \"#utility.yul\":4691:4730   */\n      tag_47\n      jump\t// in\n    tag_108:\n        /* \"#utility.yul\":4664:4665   */\n      0x01\n        /* \"#utility.yul\":4657:4662   */\n      dup2\n        /* \"#utility.yul\":4653:4666   */\n      add\n        /* \"#utility.yul\":4644:4666   */\n      swap1\n      pop\n        /* \"#utility.yul\":4620:4740   */\n      jump(tag_105)\n    tag_107:\n        /* \"#utility.yul\":4560:4746   */\n      pop\n      pop\n      jump\t// out\n        /* \"#utility.yul\":4752:5295   */\n    tag_49:\n        /* \"#utility.yul\":4853:4855   */\n      0x1f\n        /* \"#utility.yul\":4848:4851   */\n      dup3\n        /* \"#utility.yul\":4845:4856   */\n      gt\n        /* \"#utility.yul\":4842:5288   */\n      iszero\n      tag_110\n      jumpi\n        /* \"#utility.yul\":4887:4925   */\n      tag_111\n        /* \"#utility.yul\":4919:4924   */\n      dup2\n        /* \"#utility.yul\":4887:4925   */\n      tag_38\n      jump\t// in\n    tag_111:\n        /* \"#utility.yul\":4971:5000   */\n      tag_112\n        /* \"#utility.yul\":4989:4999   */\n      dup5\n        /* \"#utility.yul\":4971:5000   */\n      tag_39\n      jump\t// in\n    tag_112:\n        /* \"#utility.yul\":4961:4969   */\n      dup2\n        /* \"#utility.yul\":4957:5001   */\n      add\n        /* \"#utility.yul\":5154:5156   */\n      0x20\n        /* \"#utility.yul\":5142:5152   */\n      dup6\n        /* \"#utility.yul\":5139:5157   */\n      lt\n        /* \"#utility.yul\":5136:5185   */\n      iszero\n      tag_113\n      jumpi\n        /* \"#utility.yul\":5175:5183   */\n      dup2\n        /* \"#utility.yul\":5160:5183   */\n      swap1\n      pop\n        /* \"#utility.yul\":5136:5185   */\n    tag_113:\n        /* \"#utility.yul\":5198:5278   */\n      tag_114\n        /* \"#utility.yul\":5254:5276   */\n      tag_115\n        /* \"#utility.yul\":5272:5275   */\n      dup6\n        /* \"#utility.yul\":5254:5276   */\n      tag_39\n      jump\t// in\n    tag_115:\n        /* \"#utility.yul\":5244:5252   */\n      dup4\n        /* \"#utility.yul\":5240:5277   */\n      add\n        /* \"#utility.yul\":5227:5238   */\n      dup3\n        /* \"#utility.yul\":5198:5278   */\n      tag_48\n      jump\t// in\n    tag_114:\n        /* \"#utility.yul\":4857:5288   */\n      pop\n      pop\n        /* \"#utility.yul\":4842:5288   */\n    tag_110:\n        /* \"#utility.yul\":4752:5295   */\n      pop\n      pop\n      pop\n      jump\t// out\n        /* \"#utility.yul\":5301:5418   */\n    tag_50:\n        /* \"#utility.yul\":5355:5363   */\n      0x00\n        /* \"#utility.yul\":5405:5410   */\n      dup3\n        /* \"#utility.yul\":5399:5403   */\n      dup3\n        /* \"#utility.yul\":5395:5411   */\n      shr\n        /* \"#utility.yul\":5374:5411   */\n      swap1\n      pop\n        /* \"#utility.yul\":5301:5418   */\n      swap3\n      swap2\n      pop\n      pop\n      jump\t// out\n        /* \"#utility.yul\":5424:5593   */\n    tag_51:\n        /* \"#utility.yul\":5468:5474   */\n      0x00\n        /* \"#utility.yul\":5501:5552   */\n      tag_118\n        /* \"#utility.yul\":5549:5550   */\n      0x00\n        /* \"#utility.yul\":5545:5551   */\n      not\n        /* \"#utility.yul\":5537:5542   */\n      dup5\n        /* \"#utility.yul\":5534:5535   */\n      0x08\n        /* \"#utility.yul\":5530:5543   */\n      mul\n        /* \"#utility.yul\":5501:5552   */\n      tag_50\n      jump\t// in\n    tag_118:\n        /* \"#utility.yul\":5497:5553   */\n      not\n        /* \"#utility.yul\":5582:5586   */\n      dup1\n        /* \"#utility.yul\":5576:5580   */\n      dup4\n        /* \"#utility.yul\":5572:5587   */\n      and\n        /* \"#utility.yul\":5562:5587   */\n      swap2\n      pop\n        /* \"#utility.yul\":5475:5593   */\n      pop\n        /* \"#utility.yul\":5424:5593   */\n      swap3\n      swap2\n      pop\n      pop\n      jump\t// out\n        /* \"#utility.yul\":5598:5893   */\n    tag_52:\n        /* \"#utility.yul\":5674:5678   */\n      0x00\n        /* \"#utility.yul\":5820:5849   */\n      tag_120\n        /* \"#utility.yul\":5845:5848   */\n      dup4\n        /* \"#utility.yul\":5839:5843   */\n      dup4\n        /* \"#utility.yul\":5820:5849   */\n      tag_51\n      jump\t// in\n    tag_120:\n        /* \"#utility.yul\":5812:5849   */\n      swap2\n      pop\n        /* \"#utility.yul\":5882:5885   */\n      dup3\n        /* \"#utility.yul\":5879:5880   */\n      0x02\n        /* \"#utility.yul\":5875:5886   */\n      mul\n        /* \"#utility.yul\":5869:5873   */\n      dup3\n        /* \"#utility.yul\":5866:5887   */\n      or\n        /* \"#utility.yul\":5858:5887   */\n      swap1\n      pop\n        /* \"#utility.yul\":5598:5893   */\n      swap3\n      swap2\n      pop\n      pop\n      jump\t// out\n        /* \"#utility.yul\":5898:7293   */\n    tag_13:\n        /* \"#utility.yul\":6015:6052   */\n      tag_122\n        /* \"#utility.yul\":6048:6051   */\n      dup3\n        /* \"#utility.yul\":6015:6052   */\n      tag_31\n      jump\t// in\n    tag_122:\n        /* \"#utility.yul\":6117:6135   */\n      0xffffffffffffffff\n        /* \"#utility.yul\":6109:6115   */\n      dup2\n        /* \"#utility.yul\":6106:6136   */\n      gt\n        /* \"#utility.yul\":6103:6159   */\n      iszero\n      tag_123\n      jumpi\n        /* \"#utility.yul\":6139:6157   */\n      tag_124\n      tag_36\n      jump\t// in\n    tag_124:\n        /* \"#utility.yul\":6103:6159   */\n    tag_123:\n        /* \"#utility.yul\":6183:6221   */\n      tag_125\n        /* \"#utility.yul\":6215:6219   */\n      dup3\n        /* \"#utility.yul\":6209:6220   */\n      sload\n        /* \"#utility.yul\":6183:6221   */\n      tag_20\n      jump\t// in\n    tag_125:\n        /* \"#utility.yul\":6268:6335   */\n      tag_126\n        /* \"#utility.yul\":6328:6334   */\n      dup3\n        /* \"#utility.yul\":6320:6326   */\n      dup3\n        /* \"#utility.yul\":6314:6318   */\n      dup6\n        /* \"#utility.yul\":6268:6335   */\n      tag_49\n      jump\t// in\n    tag_126:\n        /* \"#utility.yul\":6362:6363   */\n      0x00\n        /* \"#utility.yul\":6386:6390   */\n      0x20\n        /* \"#utility.yul\":6373:6390   */\n      swap1\n      pop\n        /* \"#utility.yul\":6418:6420   */\n      0x1f\n        /* \"#utility.yul\":6410:6416   */\n      dup4\n        /* \"#utility.yul\":6407:6421   */\n      gt\n        /* \"#utility.yul\":6435:6436   */\n      0x01\n        /* \"#utility.yul\":6430:7048   */\n      dup2\n      eq\n      tag_128\n      jumpi\n        /* \"#utility.yul\":7092:7093   */\n      0x00\n        /* \"#utility.yul\":7109:7115   */\n      dup5\n        /* \"#utility.yul\":7106:7183   */\n      iszero\n      tag_129\n      jumpi\n        /* \"#utility.yul\":7158:7167   */\n      dup3\n        /* \"#utility.yul\":7153:7156   */\n      dup8\n        /* \"#utility.yul\":7149:7168   */\n      add\n        /* \"#utility.yul\":7143:7169   */\n      mload\n        /* \"#utility.yul\":7134:7169   */\n      swap1\n      pop\n        /* \"#utility.yul\":7106:7183   */\n    tag_129:\n        /* \"#utility.yul\":7209:7276   */\n      tag_130\n        /* \"#utility.yul\":7269:7275   */\n      dup6\n        /* \"#utility.yul\":7262:7267   */\n      dup3\n        /* \"#utility.yul\":7209:7276   */\n      tag_52\n      jump\t// in\n    tag_130:\n        /* \"#utility.yul\":7203:7207   */\n      dup7\n        /* \"#utility.yul\":7196:7277   */\n      sstore\n        /* \"#utility.yul\":7065:7287   */\n      pop\n        /* \"#utility.yul\":6400:7287   */\n      jump(tag_127)\n        /* \"#utility.yul\":6430:7048   */\n    tag_128:\n        /* \"#utility.yul\":6482:6486   */\n      0x1f\n        /* \"#utility.yul\":6478:6487   */\n      not\n        /* \"#utility.yul\":6470:6476   */\n      dup5\n        /* \"#utility.yul\":6466:6488   */\n      and\n        /* \"#utility.yul\":6516:6553   */\n      tag_131\n        /* \"#utility.yul\":6548:6552   */\n      dup7\n        /* \"#utility.yul\":6516:6553   */\n      tag_38\n      jump\t// in\n    tag_131:\n        /* \"#utility.yul\":6575:6576   */\n      0x00\n        /* \"#utility.yul\":6589:6797   */\n    tag_132:\n        /* \"#utility.yul\":6603:6610   */\n      dup3\n        /* \"#utility.yul\":6600:6601   */\n      dup2\n        /* \"#utility.yul\":6597:6611   */\n      lt\n        /* \"#utility.yul\":6589:6797   */\n      iszero\n      tag_134\n      jumpi\n        /* \"#utility.yul\":6682:6691   */\n      dup5\n        /* \"#utility.yul\":6677:6680   */\n      dup10\n        /* \"#utility.yul\":6673:6692   */\n      add\n        /* \"#utility.yul\":6667:6693   */\n      mload\n        /* \"#utility.yul\":6659:6665   */\n      dup3\n        /* \"#utility.yul\":6652:6694   */\n      sstore\n        /* \"#utility.yul\":6733:6734   */\n      0x01\n        /* \"#utility.yul\":6725:6731   */\n      dup3\n        /* \"#utility.yul\":6721:6735   */\n      add\n        /* \"#utility.yul\":6711:6735   */\n      swap2\n      pop\n        /* \"#utility.yul\":6780:6782   */\n      0x20\n        /* \"#utility.yul\":6769:6778   */\n      dup6\n        /* \"#utility.yul\":6765:6783   */\n      add\n        /* \"#utility.yul\":6752:6783   */\n      swap5\n      pop\n        /* \"#utility.yul\":6626:6630   */\n      0x20\n        /* \"#utility.yul\":6623:6624   */\n      dup2\n        /* \"#utility.yul\":6619:6631   */\n      add\n        /* \"#utility.yul\":6614:6631   */\n      swap1\n      pop\n        /* \"#utility.yul\":6589:6797   */\n      jump(tag_132)\n    tag_134:\n        /* \"#utility.yul\":6825:6831   */\n      dup7\n        /* \"#utility.yul\":6816:6823   */\n      dup4\n        /* \"#utility.yul\":6813:6832   */\n      lt\n        /* \"#utility.yul\":6810:6989   */\n      iszero\n      tag_135\n      jumpi\n        /* \"#utility.yul\":6883:6892   */\n      dup5\n        /* \"#utility.yul\":6878:6881   */\n      dup10\n        /* \"#utility.yul\":6874:6893   */\n      add\n        /* \"#utility.yul\":6868:6894   */\n      mload\n        /* \"#utility.yul\":6926:6974   */\n      tag_136\n        /* \"#utility.yul\":6968:6972   */\n      0x1f\n        /* \"#utility.yul\":6960:6966   */\n      dup10\n        /* \"#utility.yul\":6956:6973   */\n      and\n        /* \"#utility.yul\":6945:6954   */\n      dup3\n        /* \"#utility.yul\":6926:6974   */\n      tag_51\n      jump\t// in\n    tag_136:\n        /* \"#utility.yul\":6918:6924   */\n      dup4\n        /* \"#utility.yul\":6911:6975   */\n      sstore\n        /* \"#utility.yul\":6833:6989   */\n      pop\n        /* \"#utility.yul\":6810:6989   */\n    tag_135:\n        /* \"#utility.yul\":7035:7036   */\n      0x01\n        /* \"#utility.yul\":7031:7032   */\n      0x02\n        /* \"#utility.yul\":7023:7029   */\n      dup9\n        /* \"#utility.yul\":7019:7033   */\n      mul\n        /* \"#utility.yul\":7015:7037   */\n      add\n        /* \"#utility.yul\":7009:7013   */\n      dup9\n        /* \"#utility.yul\":7002:7038   */\n      sstore\n        /* \"#utility.yul\":6437:7048   */\n      pop\n      pop\n      pop\n        /* \"#utility.yul\":6400:7287   */\n    tag_127:\n      pop\n        /* \"#utility.yul\":5990:7293   */\n      pop\n      pop\n      pop\n        /* \"#utility.yul\":5898:7293   */\n      pop\n      pop\n      jump\t// out\n\n    auxdata: 0xa26469706673582212208cf8b707841f49c656691e19fbc441a4d7899e4f7ee6113fec9a36f79d65ef6d64736f6c634300081a0033\n}\n",
				"bytecode": {
					"linkReferences": {},
					"object": "6080604052348015600e575f80fd5b506106308061001c5f395ff3fe608060405234801561000f575f80fd5b5060043610610029575f3560e01c80630d10a33c1461002d575b5f80fd5b61004760048036038101906100429190610249565b61005d565b60405161005491906102e4565b60405180910390f35b6060600782106100bf576040518060400160405280600481526020017f68696768000000000000000000000000000000000000000000000000000000008152505f808481526020019081526020015f2090816100b9919061052b565b50610174565b6004821061011f576040518060400160405280600781526020017f6e65757472616c000000000000000000000000000000000000000000000000008152505f808481526020019081526020015f209081610119919061052b565b50610173565b6040518060400160405280600381526020017f6c6f7700000000000000000000000000000000000000000000000000000000008152505f808481526020019081526020015f209081610171919061052b565b505b5b5f808381526020019081526020015f20805461018f9061035e565b80601f01602080910402602001604051908101604052809291908181526020018280546101bb9061035e565b80156102065780601f106101dd57610100808354040283529160200191610206565b820191905f5260205f20905b8154815290600101906020018083116101e957829003601f168201915b50505050509050919050565b5f80fd5b5f819050919050565b61022881610216565b8114610232575f80fd5b50565b5f813590506102438161021f565b92915050565b5f6020828403121561025e5761025d610212565b5b5f61026b84828501610235565b91505092915050565b5f81519050919050565b5f82825260208201905092915050565b8281835e5f83830152505050565b5f601f19601f8301169050919050565b5f6102b682610274565b6102c0818561027e565b93506102d081856020860161028e565b6102d98161029c565b840191505092915050565b5f6020820190508181035f8301526102fc81846102ac565b905092915050565b7f4e487b71000000000000000000000000000000000000000000000000000000005f52604160045260245ffd5b7f4e487b71000000000000000000000000000000000000000000000000000000005f52602260045260245ffd5b5f600282049050600182168061037557607f821691505b60208210810361038857610387610331565b5b50919050565b5f819050815f5260205f209050919050565b5f6020601f8301049050919050565b5f82821b905092915050565b5f600883026103ea7fffffffffffffffffffffffffffffffffffffffffffffffffffffffffffffffff826103af565b6103f486836103af565b95508019841693508086168417925050509392505050565b5f819050919050565b5f61042f61042a61042584610216565b61040c565b610216565b9050919050565b5f819050919050565b61044883610415565b61045c61045482610436565b8484546103bb565b825550505050565b5f90565b610470610464565b61047b81848461043f565b505050565b5b8181101561049e576104935f82610468565b600181019050610481565b5050565b601f8211156104e3576104b48161038e565b6104bd846103a0565b810160208510156104cc578190505b6104e06104d8856103a0565b830182610480565b50505b505050565b5f82821c905092915050565b5f6105035f19846008026104e8565b1980831691505092915050565b5f61051b83836104f4565b9150826002028217905092915050565b61053482610274565b67ffffffffffffffff81111561054d5761054c610304565b5b610557825461035e565b6105628282856104a2565b5f60209050601f831160018114610593575f8415610581578287015190505b61058b8582610510565b8655506105f2565b601f1984166105a18661038e565b5f5b828110156105c8578489015182556001820191506020850194506020810190506105a3565b868310156105e557848901516105e1601f8916826104f4565b8355505b6001600288020188555050505b50505050505056fea26469706673582212208cf8b707841f49c656691e19fbc441a4d7899e4f7ee6113fec9a36f79d65ef6d64736f6c634300081a0033",
					"opcodes": "PUSH1 0x80 PUSH1 0x40 MSTORE CALLVALUE DUP1 ISZERO PUSH1 0xE JUMPI PUSH0 DUP1 REVERT JUMPDEST POP PUSH2 0x630 DUP1 PUSH2 0x1C PUSH0 CODECOPY PUSH0 RETURN INVALID PUSH1 0x80 PUSH1 0x40 MSTORE CALLVALUE DUP1 ISZERO PUSH2 0xF JUMPI PUSH0 DUP1 REVERT JUMPDEST POP PUSH1 0x4 CALLDATASIZE LT PUSH2 0x29 JUMPI PUSH0 CALLDATALOAD PUSH1 0xE0 SHR DUP1 PUSH4 0xD10A33C EQ PUSH2 0x2D JUMPI JUMPDEST PUSH0 DUP1 REVERT JUMPDEST PUSH2 0x47 PUSH1 0x4 DUP1 CALLDATASIZE SUB DUP2 ADD SWAP1 PUSH2 0x42 SWAP2 SWAP1 PUSH2 0x249 JUMP JUMPDEST PUSH2 0x5D JUMP JUMPDEST PUSH1 0x40 MLOAD PUSH2 0x54 SWAP2 SWAP1 PUSH2 0x2E4 JUMP JUMPDEST PUSH1 0x40 MLOAD DUP1 SWAP2 SUB SWAP1 RETURN JUMPDEST PUSH1 0x60 PUSH1 0x7 DUP3 LT PUSH2 0xBF JUMPI PUSH1 0x40 MLOAD DUP1 PUSH1 0x40 ADD PUSH1 0x40 MSTORE DUP1 PUSH1 0x4 DUP2 MSTORE PUSH1 0x20 ADD PUSH32 0x6869676800000000000000000000000000000000000000000000000000000000 DUP2 MSTORE POP PUSH0 DUP1 DUP5 DUP2 MSTORE PUSH1 0x20 ADD SWAP1 DUP2 MSTORE PUSH1 0x20 ADD PUSH0 KECCAK256 SWAP1 DUP2 PUSH2 0xB9 SWAP2 SWAP1 PUSH2 0x52B JUMP JUMPDEST POP PUSH2 0x174 JUMP JUMPDEST PUSH1 0x4 DUP3 LT PUSH2 0x11F JUMPI PUSH1 0x40 MLOAD DUP1 PUSH1 0x40 ADD PUSH1 0x40 MSTORE DUP1 PUSH1 0x7 DUP2 MSTORE PUSH1 0x20 ADD PUSH32 0x6E65757472616C00000000000000000000000000000000000000000000000000 DUP2 MSTORE POP PUSH0 DUP1 DUP5 DUP2 MSTORE PUSH1 0x20 ADD SWAP1 DUP2 MSTORE PUSH1 0x20 ADD PUSH0 KECCAK256 SWAP1 DUP2 PUSH2 0x119 SWAP2 SWAP1 PUSH2 0x52B JUMP JUMPDEST POP PUSH2 0x173 JUMP JUMPDEST PUSH1 0x40 MLOAD DUP1 PUSH1 0x40 ADD PUSH1 0x40 MSTORE DUP1 PUSH1 0x3 DUP2 MSTORE PUSH1 0x20 ADD PUSH32 0x6C6F770000000000000000000000000000000000000000000000000000000000 DUP2 MSTORE POP PUSH0 DUP1 DUP5 DUP2 MSTORE PUSH1 0x20 ADD SWAP1 DUP2 MSTORE PUSH1 0x20 ADD PUSH0 KECCAK256 SWAP1 DUP2 PUSH2 0x171 SWAP2 SWAP1 PUSH2 0x52B JUMP JUMPDEST POP JUMPDEST JUMPDEST PUSH0 DUP1 DUP4 DUP2 MSTORE PUSH1 0x20 ADD SWAP1 DUP2 MSTORE PUSH1 0x20 ADD PUSH0 KECCAK256 DUP1 SLOAD PUSH2 0x18F SWAP1 PUSH2 0x35E JUMP JUMPDEST DUP1 PUSH1 0x1F ADD PUSH1 0x20 DUP1 SWAP2 DIV MUL PUSH1 0x20 ADD PUSH1 0x40 MLOAD SWAP1 DUP2 ADD PUSH1 0x40 MSTORE DUP1 SWAP3 SWAP2 SWAP1 DUP2 DUP2 MSTORE PUSH1 0x20 ADD DUP3 DUP1 SLOAD PUSH2 0x1BB SWAP1 PUSH2 0x35E JUMP JUMPDEST DUP1 ISZERO PUSH2 0x206 JUMPI DUP1 PUSH1 0x1F LT PUSH2 0x1DD JUMPI PUSH2 0x100 DUP1 DUP4 SLOAD DIV MUL DUP4 MSTORE SWAP2 PUSH1 0x20 ADD SWAP2 PUSH2 0x206 JUMP JUMPDEST DUP3 ADD SWAP2 SWAP1 PUSH0 MSTORE PUSH1 0x20 PUSH0 KECCAK256 SWAP1 JUMPDEST DUP2 SLOAD DUP2 MSTORE SWAP1 PUSH1 0x1 ADD SWAP1 PUSH1 0x20 ADD DUP1 DUP4 GT PUSH2 0x1E9 JUMPI DUP3 SWAP1 SUB PUSH1 0x1F AND DUP3 ADD SWAP2 JUMPDEST POP POP POP POP POP SWAP1 POP SWAP2 SWAP1 POP JUMP JUMPDEST PUSH0 DUP1 REVERT JUMPDEST PUSH0 DUP2 SWAP1 POP SWAP2 SWAP1 POP JUMP JUMPDEST PUSH2 0x228 DUP2 PUSH2 0x216 JUMP JUMPDEST DUP2 EQ PUSH2 0x232 JUMPI PUSH0 DUP1 REVERT JUMPDEST POP JUMP JUMPDEST PUSH0 DUP2 CALLDATALOAD SWAP1 POP PUSH2 0x243 DUP2 PUSH2 0x21F JUMP JUMPDEST SWAP3 SWAP2 POP POP JUMP JUMPDEST PUSH0 PUSH1 0x20 DUP3 DUP5 SUB SLT ISZERO PUSH2 0x25E JUMPI PUSH2 0x25D PUSH2 0x212 JUMP JUMPDEST JUMPDEST PUSH0 PUSH2 0x26B DUP5 DUP3 DUP6 ADD PUSH2 0x235 JUMP JUMPDEST SWAP2 POP POP SWAP3 SWAP2 POP POP JUMP JUMPDEST PUSH0 DUP2 MLOAD SWAP1 POP SWAP2 SWAP1 POP JUMP JUMPDEST PUSH0 DUP3 DUP3 MSTORE PUSH1 0x20 DUP3 ADD SWAP1 POP SWAP3 SWAP2 POP POP JUMP JUMPDEST DUP3 DUP2 DUP4 MCOPY PUSH0 DUP4 DUP4 ADD MSTORE POP POP POP JUMP JUMPDEST PUSH0 PUSH1 0x1F NOT PUSH1 0x1F DUP4 ADD AND SWAP1 POP SWAP2 SWAP1 POP JUMP JUMPDEST PUSH0 PUSH2 0x2B6 DUP3 PUSH2 0x274 JUMP JUMPDEST PUSH2 0x2C0 DUP2 DUP6 PUSH2 0x27E JUMP JUMPDEST SWAP4 POP PUSH2 0x2D0 DUP2 DUP6 PUSH1 0x20 DUP7 ADD PUSH2 0x28E JUMP JUMPDEST PUSH2 0x2D9 DUP2 PUSH2 0x29C JUMP JUMPDEST DUP5 ADD SWAP2 POP POP SWAP3 SWAP2 POP POP JUMP JUMPDEST PUSH0 PUSH1 0x20 DUP3 ADD SWAP1 POP DUP2 DUP2 SUB PUSH0 DUP4 ADD MSTORE PUSH2 0x2FC DUP2 DUP5 PUSH2 0x2AC JUMP JUMPDEST SWAP1 POP SWAP3 SWAP2 POP POP JUMP JUMPDEST PUSH32 0x4E487B7100000000000000000000000000000000000000000000000000000000 PUSH0 MSTORE PUSH1 0x41 PUSH1 0x4 MSTORE PUSH1 0x24 PUSH0 REVERT JUMPDEST PUSH32 0x4E487B7100000000000000000000000000000000000000000000000000000000 PUSH0 MSTORE PUSH1 0x22 PUSH1 0x4 MSTORE PUSH1 0x24 PUSH0 REVERT JUMPDEST PUSH0 PUSH1 0x2 DUP3 DIV SWAP1 POP PUSH1 0x1 DUP3 AND DUP1 PUSH2 0x375 JUMPI PUSH1 0x7F DUP3 AND SWAP2 POP JUMPDEST PUSH1 0x20 DUP3 LT DUP2 SUB PUSH2 0x388 JUMPI PUSH2 0x387 PUSH2 0x331 JUMP JUMPDEST JUMPDEST POP SWAP2 SWAP1 POP JUMP JUMPDEST PUSH0 DUP2 SWAP1 POP DUP2 PUSH0 MSTORE PUSH1 0x20 PUSH0 KECCAK256 SWAP1 POP SWAP2 SWAP1 POP JUMP JUMPDEST PUSH0 PUSH1 0x20 PUSH1 0x1F DUP4 ADD DIV SWAP1 POP SWAP2 SWAP1 POP JUMP JUMPDEST PUSH0 DUP3 DUP3 SHL SWAP1 POP SWAP3 SWAP2 POP POP JUMP JUMPDEST PUSH0 PUSH1 0x8 DUP4 MUL PUSH2 0x3EA PUSH32 0xFFFFFFFFFFFFFFFFFFFFFFFFFFFFFFFFFFFFFFFFFFFFFFFFFFFFFFFFFFFFFFFF DUP3 PUSH2 0x3AF JUMP JUMPDEST PUSH2 0x3F4 DUP7 DUP4 PUSH2 0x3AF JUMP JUMPDEST SWAP6 POP DUP1 NOT DUP5 AND SWAP4 POP DUP1 DUP7 AND DUP5 OR SWAP3 POP POP POP SWAP4 SWAP3 POP POP POP JUMP JUMPDEST PUSH0 DUP2 SWAP1 POP SWAP2 SWAP1 POP JUMP JUMPDEST PUSH0 PUSH2 0x42F PUSH2 0x42A PUSH2 0x425 DUP5 PUSH2 0x216 JUMP JUMPDEST PUSH2 0x40C JUMP JUMPDEST PUSH2 0x216 JUMP JUMPDEST SWAP1 POP SWAP2 SWAP1 POP JUMP JUMPDEST PUSH0 DUP2 SWAP1 POP SWAP2 SWAP1 POP JUMP JUMPDEST PUSH2 0x448 DUP4 PUSH2 0x415 JUMP JUMPDEST PUSH2 0x45C PUSH2 0x454 DUP3 PUSH2 0x436 JUMP JUMPDEST DUP5 DUP5 SLOAD PUSH2 0x3BB JUMP JUMPDEST DUP3 SSTORE POP POP POP POP JUMP JUMPDEST PUSH0 SWAP1 JUMP JUMPDEST PUSH2 0x470 PUSH2 0x464 JUMP JUMPDEST PUSH2 0x47B DUP2 DUP5 DUP5 PUSH2 0x43F JUMP JUMPDEST POP POP POP JUMP JUMPDEST JUMPDEST DUP2 DUP2 LT ISZERO PUSH2 0x49E JUMPI PUSH2 0x493 PUSH0 DUP3 PUSH2 0x468 JUMP JUMPDEST PUSH1 0x1 DUP2 ADD SWAP1 POP PUSH2 0x481 JUMP JUMPDEST POP POP JUMP JUMPDEST PUSH1 0x1F DUP3 GT ISZERO PUSH2 0x4E3 JUMPI PUSH2 0x4B4 DUP2 PUSH2 0x38E JUMP JUMPDEST PUSH2 0x4BD DUP5 PUSH2 0x3A0 JUMP JUMPDEST DUP2 ADD PUSH1 0x20 DUP6 LT ISZERO PUSH2 0x4CC JUMPI DUP2 SWAP1 POP JUMPDEST PUSH2 0x4E0 PUSH2 0x4D8 DUP6 PUSH2 0x3A0 JUMP JUMPDEST DUP4 ADD DUP3 PUSH2 0x480 JUMP JUMPDEST POP POP JUMPDEST POP POP POP JUMP JUMPDEST PUSH0 DUP3 DUP3 SHR SWAP1 POP SWAP3 SWAP2 POP POP JUMP JUMPDEST PUSH0 PUSH2 0x503 PUSH0 NOT DUP5 PUSH1 0x8 MUL PUSH2 0x4E8 JUMP JUMPDEST NOT DUP1 DUP4 AND SWAP2 POP POP SWAP3 SWAP2 POP POP JUMP JUMPDEST PUSH0 PUSH2 0x51B DUP4 DUP4 PUSH2 0x4F4 JUMP JUMPDEST SWAP2 POP DUP3 PUSH1 0x2 MUL DUP3 OR SWAP1 POP SWAP3 SWAP2 POP POP JUMP JUMPDEST PUSH2 0x534 DUP3 PUSH2 0x274 JUMP JUMPDEST PUSH8 0xFFFFFFFFFFFFFFFF DUP2 GT ISZERO PUSH2 0x54D JUMPI PUSH2 0x54C PUSH2 0x304 JUMP JUMPDEST JUMPDEST PUSH2 0x557 DUP3 SLOAD PUSH2 0x35E JUMP JUMPDEST PUSH2 0x562 DUP3 DUP3 DUP6 PUSH2 0x4A2 JUMP JUMPDEST PUSH0 PUSH1 0x20 SWAP1 POP PUSH1 0x1F DUP4 GT PUSH1 0x1 DUP2 EQ PUSH2 0x593 JUMPI PUSH0 DUP5 ISZERO PUSH2 0x581 JUMPI DUP3 DUP8 ADD MLOAD SWAP1 POP JUMPDEST PUSH2 0x58B DUP6 DUP3 PUSH2 0x510 JUMP JUMPDEST DUP7 SSTORE POP PUSH2 0x5F2 JUMP JUMPDEST PUSH1 0x1F NOT DUP5 AND PUSH2 0x5A1 DUP7 PUSH2 0x38E JUMP JUMPDEST PUSH0 JUMPDEST DUP3 DUP2 LT ISZERO PUSH2 0x5C8 JUMPI DUP5 DUP10 ADD MLOAD DUP3 SSTORE PUSH1 0x1 DUP3 ADD SWAP2 POP PUSH1 0x20 DUP6 ADD SWAP5 POP PUSH1 0x20 DUP2 ADD SWAP1 POP PUSH2 0x5A3 JUMP JUMPDEST DUP7 DUP4 LT ISZERO PUSH2 0x5E5 JUMPI DUP5 DUP10 ADD MLOAD PUSH2 0x5E1 PUSH1 0x1F DUP10 AND DUP3 PUSH2 0x4F4 JUMP JUMPDEST DUP4 SSTORE POP JUMPDEST PUSH1 0x1 PUSH1 0x2 DUP9 MUL ADD DUP9 SSTORE POP POP POP JUMPDEST POP POP POP POP POP POP JUMP INVALID LOG2 PUSH5 0x6970667358 0x22 SLT KECCAK256 DUP13 0xF8 0xB7 SMOD DUP5 0x1F BLOBHASH 0xC6 JUMP PUSH10 0x1E19FBC441A4D7899E4F PUSH31 0xE6113FEC9A36F79D65EF6D64736F6C634300081A0033000000000000000000 "
				},
				"gasEstimates": {
					"creation": {
						"codeDepositCost": "316800",
						"executionCost": "353",
						"totalCost": "317153"
					},
					"external": {
						"stateA(uint256)": "infinite"
					}
				},
				"methodIdentifiers": {
					"stateA(uint256)": "0d10a33c"
				}
			},
			"storageLayout": {
				"storage": [
					{
						"astId": 305,
						"contract": "solidity_100/31-40.sol:Q36",
						"label": "a",
						"offset": 0,
						"slot": "0",
						"type": "t_mapping(t_uint256,t_string_storage)"
					}
				],
				"types": {
					"t_mapping(t_uint256,t_string_storage)": {
						"encoding": "mapping",
						"key": "t_uint256",
						"label": "mapping(uint256 => string)",
						"numberOfBytes": "32",
						"value": "t_string_storage"
					},
					"t_string_storage": {
						"encoding": "bytes",
						"label": "string",
						"numberOfBytes": "32"
					},
					"t_uint256": {
						"encoding": "inplace",
						"label": "uint256",
						"numberOfBytes": "32"
					}
				}
			},
			"userdoc": {
				"kind": "user",
				"methods": {},
				"version": 1
			}
		}
	}
}