{
	"solidity_100/31-40.sol": {
		"Q40": {
			"abi": [
				{
					"inputs": [
						{
							"internalType": "uint256[]",
							"name": "Array",
							"type": "uint256[]"
						}
					],
					"name": "descending",
					"outputs": [
						{
							"internalType": "uint256[]",
							"name": "",
							"type": "uint256[]"
						},
						{
							"internalType": "uint256[]",
							"name": "",
							"type": "uint256[]"
						}
					],
					"stateMutability": "pure",
					"type": "function"
				}
			],
			"devdoc": {
				"kind": "dev",
				"methods": {},
				"version": 1
			},
			"evm": {
				"assembly": "    /* \"solidity_100/31-40.sol\":7129:8485  contract Q40 {... */\n  mstore(0x40, 0x80)\n  callvalue\n  dup1\n  iszero\n  tag_1\n  jumpi\n  0x00\n  dup1\n  revert\ntag_1:\n  pop\n  dataSize(sub_0)\n  dup1\n  dataOffset(sub_0)\n  0x00\n  codecopy\n  0x00\n  return\nstop\n\nsub_0: assembly {\n        /* \"solidity_100/31-40.sol\":7129:8485  contract Q40 {... */\n      mstore(0x40, 0x80)\n      callvalue\n      dup1\n      iszero\n      tag_1\n      jumpi\n      0x00\n      dup1\n      revert\n    tag_1:\n      pop\n      jumpi(tag_2, lt(calldatasize, 0x04))\n      shr(0xe0, calldataload(0x00))\n      dup1\n      0x35030b17\n      eq\n      tag_3\n      jumpi\n    tag_2:\n      0x00\n      dup1\n      revert\n        /* \"solidity_100/31-40.sol\":7523:8482  function descending(uint[] memory Array) public pure returns(uint[] memory, uint[] memory) {... */\n    tag_3:\n      tag_4\n      0x04\n      dup1\n      calldatasize\n      sub\n      dup2\n      add\n      swap1\n      tag_5\n      swap2\n      swap1\n      tag_6\n      jump\t// in\n    tag_5:\n      tag_7\n      jump\t// in\n    tag_4:\n      mload(0x40)\n      tag_8\n      swap3\n      swap2\n      swap1\n      tag_9\n      jump\t// in\n    tag_8:\n      mload(0x40)\n      dup1\n      swap2\n      sub\n      swap1\n      return\n    tag_7:\n        /* \"solidity_100/31-40.sol\":7584:7597  uint[] memory */\n      0x60\n        /* \"solidity_100/31-40.sol\":7599:7612  uint[] memory */\n      dup1\n        /* \"solidity_100/31-40.sol\":7625:7641  uint ArrayLength */\n      0x00\n        /* \"solidity_100/31-40.sol\":7644:7649  Array */\n      dup4\n        /* \"solidity_100/31-40.sol\":7644:7656  Array.length */\n      mload\n        /* \"solidity_100/31-40.sol\":7625:7656  uint ArrayLength = Array.length */\n      swap1\n      pop\n        /* \"solidity_100/31-40.sol\":7667:7687  uint[] memory _Array */\n      0x00\n        /* \"solidity_100/31-40.sol\":7701:7712  ArrayLength */\n      dup2\n        /* \"solidity_100/31-40.sol\":7690:7713  new uint[](ArrayLength) */\n      0xffffffffffffffff\n      dup2\n      gt\n      iszero\n      tag_11\n      jumpi\n      tag_12\n      tag_13\n      jump\t// in\n    tag_12:\n    tag_11:\n      mload(0x40)\n      swap1\n      dup1\n      dup3\n      mstore\n      dup1\n      0x20\n      mul\n      0x20\n      add\n      dup3\n      add\n      0x40\n      mstore\n      dup1\n      iszero\n      tag_14\n      jumpi\n      dup2\n      0x20\n      add\n      0x20\n      dup3\n      mul\n      dup1\n      calldatasize\n      dup4\n      calldatacopy\n      dup1\n      dup3\n      add\n      swap2\n      pop\n      pop\n      swap1\n      pop\n    tag_14:\n      pop\n        /* \"solidity_100/31-40.sol\":7667:7713  uint[] memory _Array = new uint[](ArrayLength) */\n      swap1\n      pop\n        /* \"solidity_100/31-40.sol\":7738:7744  uint i */\n      0x00\n        /* \"solidity_100/31-40.sol\":7734:7816  for(uint i=0; i<Array.length; i++) {... */\n    tag_15:\n        /* \"solidity_100/31-40.sol\":7750:7755  Array */\n      dup6\n        /* \"solidity_100/31-40.sol\":7750:7762  Array.length */\n      mload\n        /* \"solidity_100/31-40.sol\":7748:7749  i */\n      dup2\n        /* \"solidity_100/31-40.sol\":7748:7762  i<Array.length */\n      lt\n        /* \"solidity_100/31-40.sol\":7734:7816  for(uint i=0; i<Array.length; i++) {... */\n      iszero\n      tag_16\n      jumpi\n        /* \"solidity_100/31-40.sol\":7796:7801  Array */\n      dup6\n        /* \"solidity_100/31-40.sol\":7802:7803  i */\n      dup2\n        /* \"solidity_100/31-40.sol\":7796:7804  Array[i] */\n      dup2\n      mload\n      dup2\n      lt\n      tag_18\n      jumpi\n      tag_19\n      tag_20\n      jump\t// in\n    tag_19:\n    tag_18:\n      0x20\n      mul\n      0x20\n      add\n      add\n      mload\n        /* \"solidity_100/31-40.sol\":7784:7790  _Array */\n      dup3\n        /* \"solidity_100/31-40.sol\":7791:7792  i */\n      dup3\n        /* \"solidity_100/31-40.sol\":7784:7793  _Array[i] */\n      dup2\n      mload\n      dup2\n      lt\n      tag_21\n      jumpi\n      tag_22\n      tag_20\n      jump\t// in\n    tag_22:\n    tag_21:\n      0x20\n      mul\n      0x20\n      add\n      add\n        /* \"solidity_100/31-40.sol\":7784:7804  _Array[i] = Array[i] */\n      dup2\n      dup2\n      mstore\n      pop\n      pop\n        /* \"solidity_100/31-40.sol\":7764:7767  i++ */\n      dup1\n      dup1\n      0x01\n      add\n      swap2\n      pop\n      pop\n        /* \"solidity_100/31-40.sol\":7734:7816  for(uint i=0; i<Array.length; i++) {... */\n      jump(tag_15)\n    tag_16:\n      pop\n        /* \"solidity_100/31-40.sol\":7833:7839  uint i */\n      0x00\n        /* \"solidity_100/31-40.sol\":7828:8079  for (uint i = 0; i<ArrayLength; i++) {... */\n    tag_23:\n        /* \"solidity_100/31-40.sol\":7847:7858  ArrayLength */\n      dup3\n        /* \"solidity_100/31-40.sol\":7845:7846  i */\n      dup2\n        /* \"solidity_100/31-40.sol\":7845:7858  i<ArrayLength */\n      lt\n        /* \"solidity_100/31-40.sol\":7828:8079  for (uint i = 0; i<ArrayLength; i++) {... */\n      iszero\n      tag_24\n      jumpi\n        /* \"solidity_100/31-40.sol\":7885:7891  uint j */\n      0x00\n        /* \"solidity_100/31-40.sol\":7895:7896  1 */\n      0x01\n        /* \"solidity_100/31-40.sol\":7893:7894  i */\n      dup3\n        /* \"solidity_100/31-40.sol\":7893:7896  i+1 */\n      tag_29\n      swap2\n      swap1\n      tag_30\n      jump\t// in\n    tag_29:\n        /* \"solidity_100/31-40.sol\":7885:7896  uint j= i+1 */\n      swap1\n      pop\n        /* \"solidity_100/31-40.sol\":7880:8068  for (uint j= i+1; j<ArrayLength; j++) {... */\n    tag_26:\n        /* \"solidity_100/31-40.sol\":7900:7911  ArrayLength */\n      dup4\n        /* \"solidity_100/31-40.sol\":7898:7899  j */\n      dup2\n        /* \"solidity_100/31-40.sol\":7898:7911  j<ArrayLength */\n      lt\n        /* \"solidity_100/31-40.sol\":7880:8068  for (uint j= i+1; j<ArrayLength; j++) {... */\n      iszero\n      tag_27\n      jumpi\n        /* \"solidity_100/31-40.sol\":7952:7958  _Array */\n      dup3\n        /* \"solidity_100/31-40.sol\":7959:7960  j */\n      dup2\n        /* \"solidity_100/31-40.sol\":7952:7961  _Array[j] */\n      dup2\n      mload\n      dup2\n      lt\n      tag_31\n      jumpi\n      tag_32\n      tag_20\n      jump\t// in\n    tag_32:\n    tag_31:\n      0x20\n      mul\n      0x20\n      add\n      add\n      mload\n        /* \"solidity_100/31-40.sol\":7940:7946  _Array */\n      dup4\n        /* \"solidity_100/31-40.sol\":7947:7948  i */\n      dup4\n        /* \"solidity_100/31-40.sol\":7940:7949  _Array[i] */\n      dup2\n      mload\n      dup2\n      lt\n      tag_33\n      jumpi\n      tag_34\n      tag_20\n      jump\t// in\n    tag_34:\n    tag_33:\n      0x20\n      mul\n      0x20\n      add\n      add\n      mload\n        /* \"solidity_100/31-40.sol\":7940:7961  _Array[i] > _Array[j] */\n      gt\n        /* \"solidity_100/31-40.sol\":7937:8053  if(_Array[i] > _Array[j]) {... */\n      iszero\n      tag_35\n      jumpi\n        /* \"solidity_100/31-40.sol\":8012:8018  _Array */\n      dup3\n        /* \"solidity_100/31-40.sol\":8019:8020  j */\n      dup2\n        /* \"solidity_100/31-40.sol\":8012:8021  _Array[j] */\n      dup2\n      mload\n      dup2\n      lt\n      tag_36\n      jumpi\n      tag_37\n      tag_20\n      jump\t// in\n    tag_37:\n    tag_36:\n      0x20\n      mul\n      0x20\n      add\n      add\n      mload\n        /* \"solidity_100/31-40.sol\":8023:8029  _Array */\n      dup4\n        /* \"solidity_100/31-40.sol\":8030:8031  i */\n      dup4\n        /* \"solidity_100/31-40.sol\":8023:8032  _Array[i] */\n      dup2\n      mload\n      dup2\n      lt\n      tag_38\n      jumpi\n      tag_39\n      tag_20\n      jump\t// in\n    tag_39:\n    tag_38:\n      0x20\n      mul\n      0x20\n      add\n      add\n      mload\n        /* \"solidity_100/31-40.sol\":7987:7993  _Array */\n      dup5\n        /* \"solidity_100/31-40.sol\":7994:7995  i */\n      dup5\n        /* \"solidity_100/31-40.sol\":7987:7996  _Array[i] */\n      dup2\n      mload\n      dup2\n      lt\n      tag_40\n      jumpi\n      tag_41\n      tag_20\n      jump\t// in\n    tag_41:\n    tag_40:\n      0x20\n      mul\n      0x20\n      add\n      add\n        /* \"solidity_100/31-40.sol\":7998:8004  _Array */\n      dup6\n        /* \"solidity_100/31-40.sol\":8005:8006  j */\n      dup5\n        /* \"solidity_100/31-40.sol\":7998:8007  _Array[j] */\n      dup2\n      mload\n      dup2\n      lt\n      tag_42\n      jumpi\n      tag_43\n      tag_20\n      jump\t// in\n    tag_43:\n    tag_42:\n      0x20\n      mul\n      0x20\n      add\n      add\n        /* \"solidity_100/31-40.sol\":7986:8033  (_Array[i], _Array[j]) = (_Array[j], _Array[i]) */\n      dup3\n      dup2\n      mstore\n      pop\n      dup3\n      dup2\n      mstore\n      pop\n      pop\n      pop\n        /* \"solidity_100/31-40.sol\":7937:8053  if(_Array[i] > _Array[j]) {... */\n    tag_35:\n        /* \"solidity_100/31-40.sol\":7913:7916  j++ */\n      dup1\n      dup1\n      0x01\n      add\n      swap2\n      pop\n      pop\n        /* \"solidity_100/31-40.sol\":7880:8068  for (uint j= i+1; j<ArrayLength; j++) {... */\n      jump(tag_26)\n    tag_27:\n      pop\n        /* \"solidity_100/31-40.sol\":7860:7863  i++ */\n      dup1\n      dup1\n      0x01\n      add\n      swap2\n      pop\n      pop\n        /* \"solidity_100/31-40.sol\":7828:8079  for (uint i = 0; i<ArrayLength; i++) {... */\n      jump(tag_23)\n    tag_24:\n      pop\n        /* \"solidity_100/31-40.sol\":8112:8113  0 */\n      0x00\n        /* \"solidity_100/31-40.sol\":8108:8109  2 */\n      0x02\n        /* \"solidity_100/31-40.sol\":8094:8105  ArrayLength */\n      dup4\n        /* \"solidity_100/31-40.sol\":8094:8109  ArrayLength % 2 */\n      tag_44\n      swap2\n      swap1\n      tag_45\n      jump\t// in\n    tag_44:\n        /* \"solidity_100/31-40.sol\":8094:8113  ArrayLength % 2 ==0 */\n      sub\n        /* \"solidity_100/31-40.sol\":8091:8475  if(ArrayLength % 2 ==0) {... */\n      tag_46\n      jumpi\n        /* \"solidity_100/31-40.sol\":8130:8150  uint[] memory midnum */\n      0x00\n        /* \"solidity_100/31-40.sol\":8164:8165  2 */\n      0x02\n        /* \"solidity_100/31-40.sol\":8153:8166  new uint[](2) */\n      0xffffffffffffffff\n      dup2\n      gt\n      iszero\n      tag_47\n      jumpi\n      tag_48\n      tag_13\n      jump\t// in\n    tag_48:\n    tag_47:\n      mload(0x40)\n      swap1\n      dup1\n      dup3\n      mstore\n      dup1\n      0x20\n      mul\n      0x20\n      add\n      dup3\n      add\n      0x40\n      mstore\n      dup1\n      iszero\n      tag_49\n      jumpi\n      dup2\n      0x20\n      add\n      0x20\n      dup3\n      mul\n      dup1\n      calldatasize\n      dup4\n      calldatacopy\n      dup1\n      dup3\n      add\n      swap2\n      pop\n      pop\n      swap1\n      pop\n    tag_49:\n      pop\n        /* \"solidity_100/31-40.sol\":8130:8166  uint[] memory midnum = new uint[](2) */\n      swap1\n      pop\n        /* \"solidity_100/31-40.sol\":8193:8199  _Array */\n      dup2\n        /* \"solidity_100/31-40.sol\":8213:8214  2 */\n      0x02\n        /* \"solidity_100/31-40.sol\":8201:8212  ArrayLength */\n      dup5\n        /* \"solidity_100/31-40.sol\":8201:8214  ArrayLength/2 */\n      tag_50\n      swap2\n      swap1\n      tag_51\n      jump\t// in\n    tag_50:\n        /* \"solidity_100/31-40.sol\":8193:8216  _Array[(ArrayLength/2)] */\n      dup2\n      mload\n      dup2\n      lt\n      tag_52\n      jumpi\n      tag_53\n      tag_20\n      jump\t// in\n    tag_53:\n    tag_52:\n      0x20\n      mul\n      0x20\n      add\n      add\n      mload\n        /* \"solidity_100/31-40.sol\":8181:8187  midnum */\n      dup2\n        /* \"solidity_100/31-40.sol\":8188:8189  1 */\n      0x01\n        /* \"solidity_100/31-40.sol\":8181:8190  midnum[1] */\n      dup2\n      mload\n      dup2\n      lt\n      tag_54\n      jumpi\n      tag_55\n      tag_20\n      jump\t// in\n    tag_55:\n    tag_54:\n      0x20\n      mul\n      0x20\n      add\n      add\n        /* \"solidity_100/31-40.sol\":8181:8216  midnum[1] = _Array[(ArrayLength/2)] */\n      dup2\n      dup2\n      mstore\n      pop\n      pop\n        /* \"solidity_100/31-40.sol\":8243:8249  _Array */\n      dup2\n        /* \"solidity_100/31-40.sol\":8266:8267  1 */\n      0x01\n        /* \"solidity_100/31-40.sol\":8263:8264  2 */\n      0x02\n        /* \"solidity_100/31-40.sol\":8251:8262  ArrayLength */\n      dup6\n        /* \"solidity_100/31-40.sol\":8251:8264  ArrayLength/2 */\n      tag_56\n      swap2\n      swap1\n      tag_51\n      jump\t// in\n    tag_56:\n        /* \"solidity_100/31-40.sol\":8250:8267  (ArrayLength/2)-1 */\n      tag_57\n      swap2\n      swap1\n      tag_58\n      jump\t// in\n    tag_57:\n        /* \"solidity_100/31-40.sol\":8243:8268  _Array[(ArrayLength/2)-1] */\n      dup2\n      mload\n      dup2\n      lt\n      tag_59\n      jumpi\n      tag_60\n      tag_20\n      jump\t// in\n    tag_60:\n    tag_59:\n      0x20\n      mul\n      0x20\n      add\n      add\n      mload\n        /* \"solidity_100/31-40.sol\":8231:8237  midnum */\n      dup2\n        /* \"solidity_100/31-40.sol\":8238:8239  0 */\n      0x00\n        /* \"solidity_100/31-40.sol\":8231:8240  midnum[0] */\n      dup2\n      mload\n      dup2\n      lt\n      tag_61\n      jumpi\n      tag_62\n      tag_20\n      jump\t// in\n    tag_62:\n    tag_61:\n      0x20\n      mul\n      0x20\n      add\n      add\n        /* \"solidity_100/31-40.sol\":8231:8268  midnum[0] = _Array[(ArrayLength/2)-1] */\n      dup2\n      dup2\n      mstore\n      pop\n      pop\n        /* \"solidity_100/31-40.sol\":8291:8297  _Array */\n      dup2\n        /* \"solidity_100/31-40.sol\":8299:8305  midnum */\n      dup2\n        /* \"solidity_100/31-40.sol\":8283:8306  return (_Array, midnum) */\n      swap5\n      pop\n      swap5\n      pop\n      pop\n      pop\n      pop\n      jump(tag_10)\n        /* \"solidity_100/31-40.sol\":8091:8475  if(ArrayLength % 2 ==0) {... */\n    tag_46:\n        /* \"solidity_100/31-40.sol\":8339:8359  uint[] memory midnum */\n      0x00\n        /* \"solidity_100/31-40.sol\":8373:8374  1 */\n      0x01\n        /* \"solidity_100/31-40.sol\":8362:8375  new uint[](1) */\n      0xffffffffffffffff\n      dup2\n      gt\n      iszero\n      tag_64\n      jumpi\n      tag_65\n      tag_13\n      jump\t// in\n    tag_65:\n    tag_64:\n      mload(0x40)\n      swap1\n      dup1\n      dup3\n      mstore\n      dup1\n      0x20\n      mul\n      0x20\n      add\n      dup3\n      add\n      0x40\n      mstore\n      dup1\n      iszero\n      tag_66\n      jumpi\n      dup2\n      0x20\n      add\n      0x20\n      dup3\n      mul\n      dup1\n      calldatasize\n      dup4\n      calldatacopy\n      dup1\n      dup3\n      add\n      swap2\n      pop\n      pop\n      swap1\n      pop\n    tag_66:\n      pop\n        /* \"solidity_100/31-40.sol\":8339:8375  uint[] memory midnum = new uint[](1) */\n      swap1\n      pop\n        /* \"solidity_100/31-40.sol\":8402:8408  _Array */\n      dup2\n        /* \"solidity_100/31-40.sol\":8422:8423  2 */\n      0x02\n        /* \"solidity_100/31-40.sol\":8410:8421  ArrayLength */\n      dup5\n        /* \"solidity_100/31-40.sol\":8410:8423  ArrayLength/2 */\n      tag_67\n      swap2\n      swap1\n      tag_51\n      jump\t// in\n    tag_67:\n        /* \"solidity_100/31-40.sol\":8402:8425  _Array[(ArrayLength/2)] */\n      dup2\n      mload\n      dup2\n      lt\n      tag_68\n      jumpi\n      tag_69\n      tag_20\n      jump\t// in\n    tag_69:\n    tag_68:\n      0x20\n      mul\n      0x20\n      add\n      add\n      mload\n        /* \"solidity_100/31-40.sol\":8390:8396  midnum */\n      dup2\n        /* \"solidity_100/31-40.sol\":8397:8398  0 */\n      0x00\n        /* \"solidity_100/31-40.sol\":8390:8399  midnum[0] */\n      dup2\n      mload\n      dup2\n      lt\n      tag_70\n      jumpi\n      tag_71\n      tag_20\n      jump\t// in\n    tag_71:\n    tag_70:\n      0x20\n      mul\n      0x20\n      add\n      add\n        /* \"solidity_100/31-40.sol\":8390:8425  midnum[0] = _Array[(ArrayLength/2)] */\n      dup2\n      dup2\n      mstore\n      pop\n      pop\n        /* \"solidity_100/31-40.sol\":8448:8454  _Array */\n      dup2\n        /* \"solidity_100/31-40.sol\":8456:8462  midnum */\n      dup2\n        /* \"solidity_100/31-40.sol\":8440:8463  return (_Array, midnum) */\n      swap5\n      pop\n      swap5\n      pop\n      pop\n      pop\n      pop\n        /* \"solidity_100/31-40.sol\":7523:8482  function descending(uint[] memory Array) public pure returns(uint[] memory, uint[] memory) {... */\n    tag_10:\n      swap2\n      pop\n      swap2\n      jump\t// out\n        /* \"#utility.yul\":7:82   */\n    tag_72:\n        /* \"#utility.yul\":40:46   */\n      0x00\n        /* \"#utility.yul\":73:75   */\n      0x40\n        /* \"#utility.yul\":67:76   */\n      mload\n        /* \"#utility.yul\":57:76   */\n      swap1\n      pop\n        /* \"#utility.yul\":7:82   */\n      swap1\n      jump\t// out\n        /* \"#utility.yul\":88:205   */\n    tag_73:\n        /* \"#utility.yul\":197:198   */\n      0x00\n        /* \"#utility.yul\":194:195   */\n      dup1\n        /* \"#utility.yul\":187:199   */\n      revert\n        /* \"#utility.yul\":211:328   */\n    tag_74:\n        /* \"#utility.yul\":320:321   */\n      0x00\n        /* \"#utility.yul\":317:318   */\n      dup1\n        /* \"#utility.yul\":310:322   */\n      revert\n        /* \"#utility.yul\":334:451   */\n    tag_75:\n        /* \"#utility.yul\":443:444   */\n      0x00\n        /* \"#utility.yul\":440:441   */\n      dup1\n        /* \"#utility.yul\":433:445   */\n      revert\n        /* \"#utility.yul\":457:559   */\n    tag_76:\n        /* \"#utility.yul\":498:504   */\n      0x00\n        /* \"#utility.yul\":549:551   */\n      0x1f\n        /* \"#utility.yul\":545:552   */\n      not\n        /* \"#utility.yul\":540:542   */\n      0x1f\n        /* \"#utility.yul\":533:538   */\n      dup4\n        /* \"#utility.yul\":529:543   */\n      add\n        /* \"#utility.yul\":525:553   */\n      and\n        /* \"#utility.yul\":515:553   */\n      swap1\n      pop\n        /* \"#utility.yul\":457:559   */\n      swap2\n      swap1\n      pop\n      jump\t// out\n        /* \"#utility.yul\":565:745   */\n    tag_13:\n        /* \"#utility.yul\":613:690   */\n      0x4e487b7100000000000000000000000000000000000000000000000000000000\n        /* \"#utility.yul\":610:611   */\n      0x00\n        /* \"#utility.yul\":603:691   */\n      mstore\n        /* \"#utility.yul\":710:714   */\n      0x41\n        /* \"#utility.yul\":707:708   */\n      0x04\n        /* \"#utility.yul\":700:715   */\n      mstore\n        /* \"#utility.yul\":734:738   */\n      0x24\n        /* \"#utility.yul\":731:732   */\n      0x00\n        /* \"#utility.yul\":724:739   */\n      revert\n        /* \"#utility.yul\":751:1032   */\n    tag_77:\n        /* \"#utility.yul\":834:861   */\n      tag_103\n        /* \"#utility.yul\":856:860   */\n      dup3\n        /* \"#utility.yul\":834:861   */\n      tag_76\n      jump\t// in\n    tag_103:\n        /* \"#utility.yul\":826:832   */\n      dup2\n        /* \"#utility.yul\":822:862   */\n      add\n        /* \"#utility.yul\":964:970   */\n      dup2\n        /* \"#utility.yul\":952:962   */\n      dup2\n        /* \"#utility.yul\":949:971   */\n      lt\n        /* \"#utility.yul\":928:946   */\n      0xffffffffffffffff\n        /* \"#utility.yul\":916:926   */\n      dup3\n        /* \"#utility.yul\":913:947   */\n      gt\n        /* \"#utility.yul\":910:972   */\n      or\n        /* \"#utility.yul\":907:995   */\n      iszero\n      tag_104\n      jumpi\n        /* \"#utility.yul\":975:993   */\n      tag_105\n      tag_13\n      jump\t// in\n    tag_105:\n        /* \"#utility.yul\":907:995   */\n    tag_104:\n        /* \"#utility.yul\":1015:1025   */\n      dup1\n        /* \"#utility.yul\":1011:1013   */\n      0x40\n        /* \"#utility.yul\":1004:1026   */\n      mstore\n        /* \"#utility.yul\":794:1032   */\n      pop\n        /* \"#utility.yul\":751:1032   */\n      pop\n      pop\n      jump\t// out\n        /* \"#utility.yul\":1038:1167   */\n    tag_78:\n        /* \"#utility.yul\":1072:1078   */\n      0x00\n        /* \"#utility.yul\":1099:1119   */\n      tag_107\n      tag_72\n      jump\t// in\n    tag_107:\n        /* \"#utility.yul\":1089:1119   */\n      swap1\n      pop\n        /* \"#utility.yul\":1128:1161   */\n      tag_108\n        /* \"#utility.yul\":1156:1160   */\n      dup3\n        /* \"#utility.yul\":1148:1154   */\n      dup3\n        /* \"#utility.yul\":1128:1161   */\n      tag_77\n      jump\t// in\n    tag_108:\n        /* \"#utility.yul\":1038:1167   */\n      swap2\n      swap1\n      pop\n      jump\t// out\n        /* \"#utility.yul\":1173:1484   */\n    tag_79:\n        /* \"#utility.yul\":1250:1254   */\n      0x00\n        /* \"#utility.yul\":1340:1358   */\n      0xffffffffffffffff\n        /* \"#utility.yul\":1332:1338   */\n      dup3\n        /* \"#utility.yul\":1329:1359   */\n      gt\n        /* \"#utility.yul\":1326:1382   */\n      iszero\n      tag_110\n      jumpi\n        /* \"#utility.yul\":1362:1380   */\n      tag_111\n      tag_13\n      jump\t// in\n    tag_111:\n        /* \"#utility.yul\":1326:1382   */\n    tag_110:\n        /* \"#utility.yul\":1412:1416   */\n      0x20\n        /* \"#utility.yul\":1404:1410   */\n      dup3\n        /* \"#utility.yul\":1400:1417   */\n      mul\n        /* \"#utility.yul\":1392:1417   */\n      swap1\n      pop\n        /* \"#utility.yul\":1472:1476   */\n      0x20\n        /* \"#utility.yul\":1466:1470   */\n      dup2\n        /* \"#utility.yul\":1462:1477   */\n      add\n        /* \"#utility.yul\":1454:1477   */\n      swap1\n      pop\n        /* \"#utility.yul\":1173:1484   */\n      swap2\n      swap1\n      pop\n      jump\t// out\n        /* \"#utility.yul\":1490:1607   */\n    tag_80:\n        /* \"#utility.yul\":1599:1600   */\n      0x00\n        /* \"#utility.yul\":1596:1597   */\n      dup1\n        /* \"#utility.yul\":1589:1601   */\n      revert\n        /* \"#utility.yul\":1613:1690   */\n    tag_81:\n        /* \"#utility.yul\":1650:1657   */\n      0x00\n        /* \"#utility.yul\":1679:1684   */\n      dup2\n        /* \"#utility.yul\":1668:1684   */\n      swap1\n      pop\n        /* \"#utility.yul\":1613:1690   */\n      swap2\n      swap1\n      pop\n      jump\t// out\n        /* \"#utility.yul\":1696:1818   */\n    tag_82:\n        /* \"#utility.yul\":1769:1793   */\n      tag_115\n        /* \"#utility.yul\":1787:1792   */\n      dup2\n        /* \"#utility.yul\":1769:1793   */\n      tag_81\n      jump\t// in\n    tag_115:\n        /* \"#utility.yul\":1762:1767   */\n      dup2\n        /* \"#utility.yul\":1759:1794   */\n      eq\n        /* \"#utility.yul\":1749:1812   */\n      tag_116\n      jumpi\n        /* \"#utility.yul\":1808:1809   */\n      0x00\n        /* \"#utility.yul\":1805:1806   */\n      dup1\n        /* \"#utility.yul\":1798:1810   */\n      revert\n        /* \"#utility.yul\":1749:1812   */\n    tag_116:\n        /* \"#utility.yul\":1696:1818   */\n      pop\n      jump\t// out\n        /* \"#utility.yul\":1824:1963   */\n    tag_83:\n        /* \"#utility.yul\":1870:1875   */\n      0x00\n        /* \"#utility.yul\":1908:1914   */\n      dup2\n        /* \"#utility.yul\":1895:1915   */\n      calldataload\n        /* \"#utility.yul\":1886:1915   */\n      swap1\n      pop\n        /* \"#utility.yul\":1924:1957   */\n      tag_118\n        /* \"#utility.yul\":1951:1956   */\n      dup2\n        /* \"#utility.yul\":1924:1957   */\n      tag_82\n      jump\t// in\n    tag_118:\n        /* \"#utility.yul\":1824:1963   */\n      swap3\n      swap2\n      pop\n      pop\n      jump\t// out\n        /* \"#utility.yul\":1986:2696   */\n    tag_84:\n        /* \"#utility.yul\":2082:2087   */\n      0x00\n        /* \"#utility.yul\":2107:2188   */\n      tag_120\n        /* \"#utility.yul\":2123:2187   */\n      tag_121\n        /* \"#utility.yul\":2180:2186   */\n      dup5\n        /* \"#utility.yul\":2123:2187   */\n      tag_79\n      jump\t// in\n    tag_121:\n        /* \"#utility.yul\":2107:2188   */\n      tag_78\n      jump\t// in\n    tag_120:\n        /* \"#utility.yul\":2098:2188   */\n      swap1\n      pop\n        /* \"#utility.yul\":2208:2213   */\n      dup1\n        /* \"#utility.yul\":2237:2243   */\n      dup4\n        /* \"#utility.yul\":2230:2235   */\n      dup3\n        /* \"#utility.yul\":2223:2244   */\n      mstore\n        /* \"#utility.yul\":2271:2275   */\n      0x20\n        /* \"#utility.yul\":2264:2269   */\n      dup3\n        /* \"#utility.yul\":2260:2276   */\n      add\n        /* \"#utility.yul\":2253:2276   */\n      swap1\n      pop\n        /* \"#utility.yul\":2324:2328   */\n      0x20\n        /* \"#utility.yul\":2316:2322   */\n      dup5\n        /* \"#utility.yul\":2312:2329   */\n      mul\n        /* \"#utility.yul\":2304:2310   */\n      dup4\n        /* \"#utility.yul\":2300:2330   */\n      add\n        /* \"#utility.yul\":2353:2356   */\n      dup6\n        /* \"#utility.yul\":2345:2351   */\n      dup2\n        /* \"#utility.yul\":2342:2357   */\n      gt\n        /* \"#utility.yul\":2339:2461   */\n      iszero\n      tag_122\n      jumpi\n        /* \"#utility.yul\":2372:2451   */\n      tag_123\n      tag_80\n      jump\t// in\n    tag_123:\n        /* \"#utility.yul\":2339:2461   */\n    tag_122:\n        /* \"#utility.yul\":2487:2493   */\n      dup4\n        /* \"#utility.yul\":2470:2690   */\n    tag_124:\n        /* \"#utility.yul\":2504:2510   */\n      dup2\n        /* \"#utility.yul\":2499:2502   */\n      dup2\n        /* \"#utility.yul\":2496:2511   */\n      lt\n        /* \"#utility.yul\":2470:2690   */\n      iszero\n      tag_126\n      jumpi\n        /* \"#utility.yul\":2579:2582   */\n      dup1\n        /* \"#utility.yul\":2608:2645   */\n      tag_127\n        /* \"#utility.yul\":2641:2644   */\n      dup9\n        /* \"#utility.yul\":2629:2639   */\n      dup3\n        /* \"#utility.yul\":2608:2645   */\n      tag_83\n      jump\t// in\n    tag_127:\n        /* \"#utility.yul\":2603:2606   */\n      dup5\n        /* \"#utility.yul\":2596:2646   */\n      mstore\n        /* \"#utility.yul\":2675:2679   */\n      0x20\n        /* \"#utility.yul\":2670:2673   */\n      dup5\n        /* \"#utility.yul\":2666:2680   */\n      add\n        /* \"#utility.yul\":2659:2680   */\n      swap4\n      pop\n        /* \"#utility.yul\":2546:2690   */\n      pop\n        /* \"#utility.yul\":2530:2534   */\n      0x20\n        /* \"#utility.yul\":2525:2528   */\n      dup2\n        /* \"#utility.yul\":2521:2535   */\n      add\n        /* \"#utility.yul\":2514:2535   */\n      swap1\n      pop\n        /* \"#utility.yul\":2470:2690   */\n      jump(tag_124)\n    tag_126:\n        /* \"#utility.yul\":2474:2495   */\n      pop\n        /* \"#utility.yul\":2088:2696   */\n      pop\n      pop\n        /* \"#utility.yul\":1986:2696   */\n      swap4\n      swap3\n      pop\n      pop\n      pop\n      jump\t// out\n        /* \"#utility.yul\":2719:3089   */\n    tag_85:\n        /* \"#utility.yul\":2790:2795   */\n      0x00\n        /* \"#utility.yul\":2839:2842   */\n      dup3\n        /* \"#utility.yul\":2832:2836   */\n      0x1f\n        /* \"#utility.yul\":2824:2830   */\n      dup4\n        /* \"#utility.yul\":2820:2837   */\n      add\n        /* \"#utility.yul\":2816:2843   */\n      slt\n        /* \"#utility.yul\":2806:2928   */\n      tag_129\n      jumpi\n        /* \"#utility.yul\":2847:2926   */\n      tag_130\n      tag_75\n      jump\t// in\n    tag_130:\n        /* \"#utility.yul\":2806:2928   */\n    tag_129:\n        /* \"#utility.yul\":2964:2970   */\n      dup2\n        /* \"#utility.yul\":2951:2971   */\n      calldataload\n        /* \"#utility.yul\":2989:3083   */\n      tag_131\n        /* \"#utility.yul\":3079:3082   */\n      dup5\n        /* \"#utility.yul\":3071:3077   */\n      dup3\n        /* \"#utility.yul\":3064:3068   */\n      0x20\n        /* \"#utility.yul\":3056:3062   */\n      dup7\n        /* \"#utility.yul\":3052:3069   */\n      add\n        /* \"#utility.yul\":2989:3083   */\n      tag_84\n      jump\t// in\n    tag_131:\n        /* \"#utility.yul\":2980:3083   */\n      swap2\n      pop\n        /* \"#utility.yul\":2796:3089   */\n      pop\n        /* \"#utility.yul\":2719:3089   */\n      swap3\n      swap2\n      pop\n      pop\n      jump\t// out\n        /* \"#utility.yul\":3095:3634   */\n    tag_6:\n        /* \"#utility.yul\":3179:3185   */\n      0x00\n        /* \"#utility.yul\":3228:3230   */\n      0x20\n        /* \"#utility.yul\":3216:3225   */\n      dup3\n        /* \"#utility.yul\":3207:3214   */\n      dup5\n        /* \"#utility.yul\":3203:3226   */\n      sub\n        /* \"#utility.yul\":3199:3231   */\n      slt\n        /* \"#utility.yul\":3196:3315   */\n      iszero\n      tag_133\n      jumpi\n        /* \"#utility.yul\":3234:3313   */\n      tag_134\n      tag_73\n      jump\t// in\n    tag_134:\n        /* \"#utility.yul\":3196:3315   */\n    tag_133:\n        /* \"#utility.yul\":3382:3383   */\n      0x00\n        /* \"#utility.yul\":3371:3380   */\n      dup3\n        /* \"#utility.yul\":3367:3384   */\n      add\n        /* \"#utility.yul\":3354:3385   */\n      calldataload\n        /* \"#utility.yul\":3412:3430   */\n      0xffffffffffffffff\n        /* \"#utility.yul\":3404:3410   */\n      dup2\n        /* \"#utility.yul\":3401:3431   */\n      gt\n        /* \"#utility.yul\":3398:3515   */\n      iszero\n      tag_135\n      jumpi\n        /* \"#utility.yul\":3434:3513   */\n      tag_136\n      tag_74\n      jump\t// in\n    tag_136:\n        /* \"#utility.yul\":3398:3515   */\n    tag_135:\n        /* \"#utility.yul\":3539:3617   */\n      tag_137\n        /* \"#utility.yul\":3609:3616   */\n      dup5\n        /* \"#utility.yul\":3600:3606   */\n      dup3\n        /* \"#utility.yul\":3589:3598   */\n      dup6\n        /* \"#utility.yul\":3585:3607   */\n      add\n        /* \"#utility.yul\":3539:3617   */\n      tag_85\n      jump\t// in\n    tag_137:\n        /* \"#utility.yul\":3529:3617   */\n      swap2\n      pop\n        /* \"#utility.yul\":3325:3627   */\n      pop\n        /* \"#utility.yul\":3095:3634   */\n      swap3\n      swap2\n      pop\n      pop\n      jump\t// out\n        /* \"#utility.yul\":3640:3754   */\n    tag_86:\n        /* \"#utility.yul\":3707:3713   */\n      0x00\n        /* \"#utility.yul\":3741:3746   */\n      dup2\n        /* \"#utility.yul\":3735:3747   */\n      mload\n        /* \"#utility.yul\":3725:3747   */\n      swap1\n      pop\n        /* \"#utility.yul\":3640:3754   */\n      swap2\n      swap1\n      pop\n      jump\t// out\n        /* \"#utility.yul\":3760:3944   */\n    tag_87:\n        /* \"#utility.yul\":3859:3870   */\n      0x00\n        /* \"#utility.yul\":3893:3899   */\n      dup3\n        /* \"#utility.yul\":3888:3891   */\n      dup3\n        /* \"#utility.yul\":3881:3900   */\n      mstore\n        /* \"#utility.yul\":3933:3937   */\n      0x20\n        /* \"#utility.yul\":3928:3931   */\n      dup3\n        /* \"#utility.yul\":3924:3938   */\n      add\n        /* \"#utility.yul\":3909:3938   */\n      swap1\n      pop\n        /* \"#utility.yul\":3760:3944   */\n      swap3\n      swap2\n      pop\n      pop\n      jump\t// out\n        /* \"#utility.yul\":3950:4082   */\n    tag_88:\n        /* \"#utility.yul\":4017:4021   */\n      0x00\n        /* \"#utility.yul\":4040:4043   */\n      dup2\n        /* \"#utility.yul\":4032:4043   */\n      swap1\n      pop\n        /* \"#utility.yul\":4070:4074   */\n      0x20\n        /* \"#utility.yul\":4065:4068   */\n      dup3\n        /* \"#utility.yul\":4061:4075   */\n      add\n        /* \"#utility.yul\":4053:4075   */\n      swap1\n      pop\n        /* \"#utility.yul\":3950:4082   */\n      swap2\n      swap1\n      pop\n      jump\t// out\n        /* \"#utility.yul\":4088:4196   */\n    tag_89:\n        /* \"#utility.yul\":4165:4189   */\n      tag_142\n        /* \"#utility.yul\":4183:4188   */\n      dup2\n        /* \"#utility.yul\":4165:4189   */\n      tag_81\n      jump\t// in\n    tag_142:\n        /* \"#utility.yul\":4160:4163   */\n      dup3\n        /* \"#utility.yul\":4153:4190   */\n      mstore\n        /* \"#utility.yul\":4088:4196   */\n      pop\n      pop\n      jump\t// out\n        /* \"#utility.yul\":4202:4381   */\n    tag_90:\n        /* \"#utility.yul\":4271:4281   */\n      0x00\n        /* \"#utility.yul\":4292:4338   */\n      tag_144\n        /* \"#utility.yul\":4334:4337   */\n      dup4\n        /* \"#utility.yul\":4326:4332   */\n      dup4\n        /* \"#utility.yul\":4292:4338   */\n      tag_89\n      jump\t// in\n    tag_144:\n        /* \"#utility.yul\":4370:4374   */\n      0x20\n        /* \"#utility.yul\":4365:4368   */\n      dup4\n        /* \"#utility.yul\":4361:4375   */\n      add\n        /* \"#utility.yul\":4347:4375   */\n      swap1\n      pop\n        /* \"#utility.yul\":4202:4381   */\n      swap3\n      swap2\n      pop\n      pop\n      jump\t// out\n        /* \"#utility.yul\":4387:4500   */\n    tag_91:\n        /* \"#utility.yul\":4457:4461   */\n      0x00\n        /* \"#utility.yul\":4489:4493   */\n      0x20\n        /* \"#utility.yul\":4484:4487   */\n      dup3\n        /* \"#utility.yul\":4480:4494   */\n      add\n        /* \"#utility.yul\":4472:4494   */\n      swap1\n      pop\n        /* \"#utility.yul\":4387:4500   */\n      swap2\n      swap1\n      pop\n      jump\t// out\n        /* \"#utility.yul\":4536:5268   */\n    tag_92:\n        /* \"#utility.yul\":4655:4658   */\n      0x00\n        /* \"#utility.yul\":4684:4738   */\n      tag_147\n        /* \"#utility.yul\":4732:4737   */\n      dup3\n        /* \"#utility.yul\":4684:4738   */\n      tag_86\n      jump\t// in\n    tag_147:\n        /* \"#utility.yul\":4754:4840   */\n      tag_148\n        /* \"#utility.yul\":4833:4839   */\n      dup2\n        /* \"#utility.yul\":4828:4831   */\n      dup6\n        /* \"#utility.yul\":4754:4840   */\n      tag_87\n      jump\t// in\n    tag_148:\n        /* \"#utility.yul\":4747:4840   */\n      swap4\n      pop\n        /* \"#utility.yul\":4864:4920   */\n      tag_149\n        /* \"#utility.yul\":4914:4919   */\n      dup4\n        /* \"#utility.yul\":4864:4920   */\n      tag_88\n      jump\t// in\n    tag_149:\n        /* \"#utility.yul\":4943:4950   */\n      dup1\n        /* \"#utility.yul\":4974:4975   */\n      0x00\n        /* \"#utility.yul\":4959:5243   */\n    tag_150:\n        /* \"#utility.yul\":4984:4990   */\n      dup4\n        /* \"#utility.yul\":4981:4982   */\n      dup2\n        /* \"#utility.yul\":4978:4991   */\n      lt\n        /* \"#utility.yul\":4959:5243   */\n      iszero\n      tag_152\n      jumpi\n        /* \"#utility.yul\":5060:5066   */\n      dup2\n        /* \"#utility.yul\":5054:5067   */\n      mload\n        /* \"#utility.yul\":5087:5150   */\n      tag_153\n        /* \"#utility.yul\":5146:5149   */\n      dup9\n        /* \"#utility.yul\":5131:5144   */\n      dup3\n        /* \"#utility.yul\":5087:5150   */\n      tag_90\n      jump\t// in\n    tag_153:\n        /* \"#utility.yul\":5080:5150   */\n      swap8\n      pop\n        /* \"#utility.yul\":5173:5233   */\n      tag_154\n        /* \"#utility.yul\":5226:5232   */\n      dup4\n        /* \"#utility.yul\":5173:5233   */\n      tag_91\n      jump\t// in\n    tag_154:\n        /* \"#utility.yul\":5163:5233   */\n      swap3\n      pop\n        /* \"#utility.yul\":5019:5243   */\n      pop\n        /* \"#utility.yul\":5006:5007   */\n      0x01\n        /* \"#utility.yul\":5003:5004   */\n      dup2\n        /* \"#utility.yul\":4999:5008   */\n      add\n        /* \"#utility.yul\":4994:5008   */\n      swap1\n      pop\n        /* \"#utility.yul\":4959:5243   */\n      jump(tag_150)\n    tag_152:\n        /* \"#utility.yul\":4963:4977   */\n      pop\n        /* \"#utility.yul\":5259:5262   */\n      dup6\n        /* \"#utility.yul\":5252:5262   */\n      swap4\n      pop\n        /* \"#utility.yul\":4660:5268   */\n      pop\n      pop\n      pop\n        /* \"#utility.yul\":4536:5268   */\n      swap3\n      swap2\n      pop\n      pop\n      jump\t// out\n        /* \"#utility.yul\":5274:5908   */\n    tag_9:\n        /* \"#utility.yul\":5495:5499   */\n      0x00\n        /* \"#utility.yul\":5533:5535   */\n      0x40\n        /* \"#utility.yul\":5522:5531   */\n      dup3\n        /* \"#utility.yul\":5518:5536   */\n      add\n        /* \"#utility.yul\":5510:5536   */\n      swap1\n      pop\n        /* \"#utility.yul\":5582:5591   */\n      dup2\n        /* \"#utility.yul\":5576:5580   */\n      dup2\n        /* \"#utility.yul\":5572:5592   */\n      sub\n        /* \"#utility.yul\":5568:5569   */\n      0x00\n        /* \"#utility.yul\":5557:5566   */\n      dup4\n        /* \"#utility.yul\":5553:5570   */\n      add\n        /* \"#utility.yul\":5546:5593   */\n      mstore\n        /* \"#utility.yul\":5610:5718   */\n      tag_156\n        /* \"#utility.yul\":5713:5717   */\n      dup2\n        /* \"#utility.yul\":5704:5710   */\n      dup6\n        /* \"#utility.yul\":5610:5718   */\n      tag_92\n      jump\t// in\n    tag_156:\n        /* \"#utility.yul\":5602:5718   */\n      swap1\n      pop\n        /* \"#utility.yul\":5765:5774   */\n      dup2\n        /* \"#utility.yul\":5759:5763   */\n      dup2\n        /* \"#utility.yul\":5755:5775   */\n      sub\n        /* \"#utility.yul\":5750:5752   */\n      0x20\n        /* \"#utility.yul\":5739:5748   */\n      dup4\n        /* \"#utility.yul\":5735:5753   */\n      add\n        /* \"#utility.yul\":5728:5776   */\n      mstore\n        /* \"#utility.yul\":5793:5901   */\n      tag_157\n        /* \"#utility.yul\":5896:5900   */\n      dup2\n        /* \"#utility.yul\":5887:5893   */\n      dup5\n        /* \"#utility.yul\":5793:5901   */\n      tag_92\n      jump\t// in\n    tag_157:\n        /* \"#utility.yul\":5785:5901   */\n      swap1\n      pop\n        /* \"#utility.yul\":5274:5908   */\n      swap4\n      swap3\n      pop\n      pop\n      pop\n      jump\t// out\n        /* \"#utility.yul\":5914:6094   */\n    tag_20:\n        /* \"#utility.yul\":5962:6039   */\n      0x4e487b7100000000000000000000000000000000000000000000000000000000\n        /* \"#utility.yul\":5959:5960   */\n      0x00\n        /* \"#utility.yul\":5952:6040   */\n      mstore\n        /* \"#utility.yul\":6059:6063   */\n      0x32\n        /* \"#utility.yul\":6056:6057   */\n      0x04\n        /* \"#utility.yul\":6049:6064   */\n      mstore\n        /* \"#utility.yul\":6083:6087   */\n      0x24\n        /* \"#utility.yul\":6080:6081   */\n      0x00\n        /* \"#utility.yul\":6073:6088   */\n      revert\n        /* \"#utility.yul\":6100:6280   */\n    tag_93:\n        /* \"#utility.yul\":6148:6225   */\n      0x4e487b7100000000000000000000000000000000000000000000000000000000\n        /* \"#utility.yul\":6145:6146   */\n      0x00\n        /* \"#utility.yul\":6138:6226   */\n      mstore\n        /* \"#utility.yul\":6245:6249   */\n      0x11\n        /* \"#utility.yul\":6242:6243   */\n      0x04\n        /* \"#utility.yul\":6235:6250   */\n      mstore\n        /* \"#utility.yul\":6269:6273   */\n      0x24\n        /* \"#utility.yul\":6266:6267   */\n      0x00\n        /* \"#utility.yul\":6259:6274   */\n      revert\n        /* \"#utility.yul\":6286:6477   */\n    tag_30:\n        /* \"#utility.yul\":6326:6329   */\n      0x00\n        /* \"#utility.yul\":6345:6365   */\n      tag_161\n        /* \"#utility.yul\":6363:6364   */\n      dup3\n        /* \"#utility.yul\":6345:6365   */\n      tag_81\n      jump\t// in\n    tag_161:\n        /* \"#utility.yul\":6340:6365   */\n      swap2\n      pop\n        /* \"#utility.yul\":6379:6399   */\n      tag_162\n        /* \"#utility.yul\":6397:6398   */\n      dup4\n        /* \"#utility.yul\":6379:6399   */\n      tag_81\n      jump\t// in\n    tag_162:\n        /* \"#utility.yul\":6374:6399   */\n      swap3\n      pop\n        /* \"#utility.yul\":6422:6423   */\n      dup3\n        /* \"#utility.yul\":6419:6420   */\n      dup3\n        /* \"#utility.yul\":6415:6424   */\n      add\n        /* \"#utility.yul\":6408:6424   */\n      swap1\n      pop\n        /* \"#utility.yul\":6443:6446   */\n      dup1\n        /* \"#utility.yul\":6440:6441   */\n      dup3\n        /* \"#utility.yul\":6437:6447   */\n      gt\n        /* \"#utility.yul\":6434:6470   */\n      iszero\n      tag_163\n      jumpi\n        /* \"#utility.yul\":6450:6468   */\n      tag_164\n      tag_93\n      jump\t// in\n    tag_164:\n        /* \"#utility.yul\":6434:6470   */\n    tag_163:\n        /* \"#utility.yul\":6286:6477   */\n      swap3\n      swap2\n      pop\n      pop\n      jump\t// out\n        /* \"#utility.yul\":6483:6663   */\n    tag_94:\n        /* \"#utility.yul\":6531:6608   */\n      0x4e487b7100000000000000000000000000000000000000000000000000000000\n        /* \"#utility.yul\":6528:6529   */\n      0x00\n        /* \"#utility.yul\":6521:6609   */\n      mstore\n        /* \"#utility.yul\":6628:6632   */\n      0x12\n        /* \"#utility.yul\":6625:6626   */\n      0x04\n        /* \"#utility.yul\":6618:6633   */\n      mstore\n        /* \"#utility.yul\":6652:6656   */\n      0x24\n        /* \"#utility.yul\":6649:6650   */\n      0x00\n        /* \"#utility.yul\":6642:6657   */\n      revert\n        /* \"#utility.yul\":6669:6845   */\n    tag_45:\n        /* \"#utility.yul\":6701:6702   */\n      0x00\n        /* \"#utility.yul\":6718:6738   */\n      tag_167\n        /* \"#utility.yul\":6736:6737   */\n      dup3\n        /* \"#utility.yul\":6718:6738   */\n      tag_81\n      jump\t// in\n    tag_167:\n        /* \"#utility.yul\":6713:6738   */\n      swap2\n      pop\n        /* \"#utility.yul\":6752:6772   */\n      tag_168\n        /* \"#utility.yul\":6770:6771   */\n      dup4\n        /* \"#utility.yul\":6752:6772   */\n      tag_81\n      jump\t// in\n    tag_168:\n        /* \"#utility.yul\":6747:6772   */\n      swap3\n      pop\n        /* \"#utility.yul\":6791:6792   */\n      dup3\n        /* \"#utility.yul\":6781:6816   */\n      tag_169\n      jumpi\n        /* \"#utility.yul\":6796:6814   */\n      tag_170\n      tag_94\n      jump\t// in\n    tag_170:\n        /* \"#utility.yul\":6781:6816   */\n    tag_169:\n        /* \"#utility.yul\":6837:6838   */\n      dup3\n        /* \"#utility.yul\":6834:6835   */\n      dup3\n        /* \"#utility.yul\":6830:6839   */\n      mod\n        /* \"#utility.yul\":6825:6839   */\n      swap1\n      pop\n        /* \"#utility.yul\":6669:6845   */\n      swap3\n      swap2\n      pop\n      pop\n      jump\t// out\n        /* \"#utility.yul\":6851:7036   */\n    tag_51:\n        /* \"#utility.yul\":6891:6892   */\n      0x00\n        /* \"#utility.yul\":6908:6928   */\n      tag_172\n        /* \"#utility.yul\":6926:6927   */\n      dup3\n        /* \"#utility.yul\":6908:6928   */\n      tag_81\n      jump\t// in\n    tag_172:\n        /* \"#utility.yul\":6903:6928   */\n      swap2\n      pop\n        /* \"#utility.yul\":6942:6962   */\n      tag_173\n        /* \"#utility.yul\":6960:6961   */\n      dup4\n        /* \"#utility.yul\":6942:6962   */\n      tag_81\n      jump\t// in\n    tag_173:\n        /* \"#utility.yul\":6937:6962   */\n      swap3\n      pop\n        /* \"#utility.yul\":6981:6982   */\n      dup3\n        /* \"#utility.yul\":6971:7006   */\n      tag_174\n      jumpi\n        /* \"#utility.yul\":6986:7004   */\n      tag_175\n      tag_94\n      jump\t// in\n    tag_175:\n        /* \"#utility.yul\":6971:7006   */\n    tag_174:\n        /* \"#utility.yul\":7028:7029   */\n      dup3\n        /* \"#utility.yul\":7025:7026   */\n      dup3\n        /* \"#utility.yul\":7021:7030   */\n      div\n        /* \"#utility.yul\":7016:7030   */\n      swap1\n      pop\n        /* \"#utility.yul\":6851:7036   */\n      swap3\n      swap2\n      pop\n      pop\n      jump\t// out\n        /* \"#utility.yul\":7042:7236   */\n    tag_58:\n        /* \"#utility.yul\":7082:7086   */\n      0x00\n        /* \"#utility.yul\":7102:7122   */\n      tag_177\n        /* \"#utility.yul\":7120:7121   */\n      dup3\n        /* \"#utility.yul\":7102:7122   */\n      tag_81\n      jump\t// in\n    tag_177:\n        /* \"#utility.yul\":7097:7122   */\n      swap2\n      pop\n        /* \"#utility.yul\":7136:7156   */\n      tag_178\n        /* \"#utility.yul\":7154:7155   */\n      dup4\n        /* \"#utility.yul\":7136:7156   */\n      tag_81\n      jump\t// in\n    tag_178:\n        /* \"#utility.yul\":7131:7156   */\n      swap3\n      pop\n        /* \"#utility.yul\":7180:7181   */\n      dup3\n        /* \"#utility.yul\":7177:7178   */\n      dup3\n        /* \"#utility.yul\":7173:7182   */\n      sub\n        /* \"#utility.yul\":7165:7182   */\n      swap1\n      pop\n        /* \"#utility.yul\":7204:7205   */\n      dup2\n        /* \"#utility.yul\":7198:7202   */\n      dup2\n        /* \"#utility.yul\":7195:7206   */\n      gt\n        /* \"#utility.yul\":7192:7229   */\n      iszero\n      tag_179\n      jumpi\n        /* \"#utility.yul\":7209:7227   */\n      tag_180\n      tag_93\n      jump\t// in\n    tag_180:\n        /* \"#utility.yul\":7192:7229   */\n    tag_179:\n        /* \"#utility.yul\":7042:7236   */\n      swap3\n      swap2\n      pop\n      pop\n      jump\t// out\n\n    auxdata: 0xa264697066735822122031043272a659e51c500b1272d68fe9af5d6bdd05ecbf4f2ca0631a3fc4ed741564736f6c634300081a0033\n}\n",
				"bytecode": {
					"linkReferences": {},
					"object": "6080604052348015600e575f80fd5b506107e88061001c5f395ff3fe608060405234801561000f575f80fd5b5060043610610029575f3560e01c806335030b171461002d575b5f80fd5b61004760048036038101906100429190610532565b61005e565b604051610055929190610630565b60405180910390f35b6060805f835190505f8167ffffffffffffffff811115610081576100806103c3565b5b6040519080825280602002602001820160405280156100af5781602001602082028036833780820191505090505b5090505f5b8551811015610104578581815181106100d0576100cf610665565b5b60200260200101518282815181106100eb576100ea610665565b5b60200260200101818152505080806001019150506100b4565b505f5b828110156101f4575f60018261011d91906106bf565b90505b838110156101e65782818151811061013b5761013a610665565b5b602002602001015183838151811061015657610155610665565b5b602002602001015111156101d95782818151811061017757610176610665565b5b602002602001015183838151811061019257610191610665565b5b60200260200101518484815181106101ad576101ac610665565b5b602002602001018584815181106101c7576101c6610665565b5b60200260200101828152508281525050505b8080600101915050610120565b508080600101915050610107565b505f600283610203919061071f565b036102fc575f600267ffffffffffffffff811115610224576102236103c3565b5b6040519080825280602002602001820160405280156102525781602001602082028036833780820191505090505b50905081600284610263919061074f565b8151811061027457610273610665565b5b6020026020010151816001815181106102905761028f610665565b5b6020026020010181815250508160016002856102ac919061074f565b6102b6919061077f565b815181106102c7576102c6610665565b5b6020026020010151815f815181106102e2576102e1610665565b5b602002602001018181525050818194509450505050610399565b5f600167ffffffffffffffff811115610318576103176103c3565b5b6040519080825280602002602001820160405280156103465781602001602082028036833780820191505090505b50905081600284610357919061074f565b8151811061036857610367610665565b5b6020026020010151815f8151811061038357610382610665565b5b6020026020010181815250508181945094505050505b915091565b5f604051905090565b5f80fd5b5f80fd5b5f80fd5b5f601f19601f8301169050919050565b7f4e487b71000000000000000000000000000000000000000000000000000000005f52604160045260245ffd5b6103f9826103b3565b810181811067ffffffffffffffff82111715610418576104176103c3565b5b80604052505050565b5f61042a61039e565b905061043682826103f0565b919050565b5f67ffffffffffffffff821115610455576104546103c3565b5b602082029050602081019050919050565b5f80fd5b5f819050919050565b61047c8161046a565b8114610486575f80fd5b50565b5f8135905061049781610473565b92915050565b5f6104af6104aa8461043b565b610421565b905080838252602082019050602084028301858111156104d2576104d1610466565b5b835b818110156104fb57806104e78882610489565b8452602084019350506020810190506104d4565b5050509392505050565b5f82601f830112610519576105186103af565b5b813561052984826020860161049d565b91505092915050565b5f60208284031215610547576105466103a7565b5b5f82013567ffffffffffffffff811115610564576105636103ab565b5b61057084828501610505565b91505092915050565b5f81519050919050565b5f82825260208201905092915050565b5f819050602082019050919050565b6105ab8161046a565b82525050565b5f6105bc83836105a2565b60208301905092915050565b5f602082019050919050565b5f6105de82610579565b6105e88185610583565b93506105f383610593565b805f5b8381101561062357815161060a88826105b1565b9750610615836105c8565b9250506001810190506105f6565b5085935050505092915050565b5f6040820190508181035f83015261064881856105d4565b9050818103602083015261065c81846105d4565b90509392505050565b7f4e487b71000000000000000000000000000000000000000000000000000000005f52603260045260245ffd5b7f4e487b71000000000000000000000000000000000000000000000000000000005f52601160045260245ffd5b5f6106c98261046a565b91506106d48361046a565b92508282019050808211156106ec576106eb610692565b5b92915050565b7f4e487b71000000000000000000000000000000000000000000000000000000005f52601260045260245ffd5b5f6107298261046a565b91506107348361046a565b925082610744576107436106f2565b5b828206905092915050565b5f6107598261046a565b91506107648361046a565b925082610774576107736106f2565b5b828204905092915050565b5f6107898261046a565b91506107948361046a565b92508282039050818111156107ac576107ab610692565b5b9291505056fea264697066735822122031043272a659e51c500b1272d68fe9af5d6bdd05ecbf4f2ca0631a3fc4ed741564736f6c634300081a0033",
					"opcodes": "PUSH1 0x80 PUSH1 0x40 MSTORE CALLVALUE DUP1 ISZERO PUSH1 0xE JUMPI PUSH0 DUP1 REVERT JUMPDEST POP PUSH2 0x7E8 DUP1 PUSH2 0x1C PUSH0 CODECOPY PUSH0 RETURN INVALID PUSH1 0x80 PUSH1 0x40 MSTORE CALLVALUE DUP1 ISZERO PUSH2 0xF JUMPI PUSH0 DUP1 REVERT JUMPDEST POP PUSH1 0x4 CALLDATASIZE LT PUSH2 0x29 JUMPI PUSH0 CALLDATALOAD PUSH1 0xE0 SHR DUP1 PUSH4 0x35030B17 EQ PUSH2 0x2D JUMPI JUMPDEST PUSH0 DUP1 REVERT JUMPDEST PUSH2 0x47 PUSH1 0x4 DUP1 CALLDATASIZE SUB DUP2 ADD SWAP1 PUSH2 0x42 SWAP2 SWAP1 PUSH2 0x532 JUMP JUMPDEST PUSH2 0x5E JUMP JUMPDEST PUSH1 0x40 MLOAD PUSH2 0x55 SWAP3 SWAP2 SWAP1 PUSH2 0x630 JUMP JUMPDEST PUSH1 0x40 MLOAD DUP1 SWAP2 SUB SWAP1 RETURN JUMPDEST PUSH1 0x60 DUP1 PUSH0 DUP4 MLOAD SWAP1 POP PUSH0 DUP2 PUSH8 0xFFFFFFFFFFFFFFFF DUP2 GT ISZERO PUSH2 0x81 JUMPI PUSH2 0x80 PUSH2 0x3C3 JUMP JUMPDEST JUMPDEST PUSH1 0x40 MLOAD SWAP1 DUP1 DUP3 MSTORE DUP1 PUSH1 0x20 MUL PUSH1 0x20 ADD DUP3 ADD PUSH1 0x40 MSTORE DUP1 ISZERO PUSH2 0xAF JUMPI DUP2 PUSH1 0x20 ADD PUSH1 0x20 DUP3 MUL DUP1 CALLDATASIZE DUP4 CALLDATACOPY DUP1 DUP3 ADD SWAP2 POP POP SWAP1 POP JUMPDEST POP SWAP1 POP PUSH0 JUMPDEST DUP6 MLOAD DUP2 LT ISZERO PUSH2 0x104 JUMPI DUP6 DUP2 DUP2 MLOAD DUP2 LT PUSH2 0xD0 JUMPI PUSH2 0xCF PUSH2 0x665 JUMP JUMPDEST JUMPDEST PUSH1 0x20 MUL PUSH1 0x20 ADD ADD MLOAD DUP3 DUP3 DUP2 MLOAD DUP2 LT PUSH2 0xEB JUMPI PUSH2 0xEA PUSH2 0x665 JUMP JUMPDEST JUMPDEST PUSH1 0x20 MUL PUSH1 0x20 ADD ADD DUP2 DUP2 MSTORE POP POP DUP1 DUP1 PUSH1 0x1 ADD SWAP2 POP POP PUSH2 0xB4 JUMP JUMPDEST POP PUSH0 JUMPDEST DUP3 DUP2 LT ISZERO PUSH2 0x1F4 JUMPI PUSH0 PUSH1 0x1 DUP3 PUSH2 0x11D SWAP2 SWAP1 PUSH2 0x6BF JUMP JUMPDEST SWAP1 POP JUMPDEST DUP4 DUP2 LT ISZERO PUSH2 0x1E6 JUMPI DUP3 DUP2 DUP2 MLOAD DUP2 LT PUSH2 0x13B JUMPI PUSH2 0x13A PUSH2 0x665 JUMP JUMPDEST JUMPDEST PUSH1 0x20 MUL PUSH1 0x20 ADD ADD MLOAD DUP4 DUP4 DUP2 MLOAD DUP2 LT PUSH2 0x156 JUMPI PUSH2 0x155 PUSH2 0x665 JUMP JUMPDEST JUMPDEST PUSH1 0x20 MUL PUSH1 0x20 ADD ADD MLOAD GT ISZERO PUSH2 0x1D9 JUMPI DUP3 DUP2 DUP2 MLOAD DUP2 LT PUSH2 0x177 JUMPI PUSH2 0x176 PUSH2 0x665 JUMP JUMPDEST JUMPDEST PUSH1 0x20 MUL PUSH1 0x20 ADD ADD MLOAD DUP4 DUP4 DUP2 MLOAD DUP2 LT PUSH2 0x192 JUMPI PUSH2 0x191 PUSH2 0x665 JUMP JUMPDEST JUMPDEST PUSH1 0x20 MUL PUSH1 0x20 ADD ADD MLOAD DUP5 DUP5 DUP2 MLOAD DUP2 LT PUSH2 0x1AD JUMPI PUSH2 0x1AC PUSH2 0x665 JUMP JUMPDEST JUMPDEST PUSH1 0x20 MUL PUSH1 0x20 ADD ADD DUP6 DUP5 DUP2 MLOAD DUP2 LT PUSH2 0x1C7 JUMPI PUSH2 0x1C6 PUSH2 0x665 JUMP JUMPDEST JUMPDEST PUSH1 0x20 MUL PUSH1 0x20 ADD ADD DUP3 DUP2 MSTORE POP DUP3 DUP2 MSTORE POP POP POP JUMPDEST DUP1 DUP1 PUSH1 0x1 ADD SWAP2 POP POP PUSH2 0x120 JUMP JUMPDEST POP DUP1 DUP1 PUSH1 0x1 ADD SWAP2 POP POP PUSH2 0x107 JUMP JUMPDEST POP PUSH0 PUSH1 0x2 DUP4 PUSH2 0x203 SWAP2 SWAP1 PUSH2 0x71F JUMP JUMPDEST SUB PUSH2 0x2FC JUMPI PUSH0 PUSH1 0x2 PUSH8 0xFFFFFFFFFFFFFFFF DUP2 GT ISZERO PUSH2 0x224 JUMPI PUSH2 0x223 PUSH2 0x3C3 JUMP JUMPDEST JUMPDEST PUSH1 0x40 MLOAD SWAP1 DUP1 DUP3 MSTORE DUP1 PUSH1 0x20 MUL PUSH1 0x20 ADD DUP3 ADD PUSH1 0x40 MSTORE DUP1 ISZERO PUSH2 0x252 JUMPI DUP2 PUSH1 0x20 ADD PUSH1 0x20 DUP3 MUL DUP1 CALLDATASIZE DUP4 CALLDATACOPY DUP1 DUP3 ADD SWAP2 POP POP SWAP1 POP JUMPDEST POP SWAP1 POP DUP2 PUSH1 0x2 DUP5 PUSH2 0x263 SWAP2 SWAP1 PUSH2 0x74F JUMP JUMPDEST DUP2 MLOAD DUP2 LT PUSH2 0x274 JUMPI PUSH2 0x273 PUSH2 0x665 JUMP JUMPDEST JUMPDEST PUSH1 0x20 MUL PUSH1 0x20 ADD ADD MLOAD DUP2 PUSH1 0x1 DUP2 MLOAD DUP2 LT PUSH2 0x290 JUMPI PUSH2 0x28F PUSH2 0x665 JUMP JUMPDEST JUMPDEST PUSH1 0x20 MUL PUSH1 0x20 ADD ADD DUP2 DUP2 MSTORE POP POP DUP2 PUSH1 0x1 PUSH1 0x2 DUP6 PUSH2 0x2AC SWAP2 SWAP1 PUSH2 0x74F JUMP JUMPDEST PUSH2 0x2B6 SWAP2 SWAP1 PUSH2 0x77F JUMP JUMPDEST DUP2 MLOAD DUP2 LT PUSH2 0x2C7 JUMPI PUSH2 0x2C6 PUSH2 0x665 JUMP JUMPDEST JUMPDEST PUSH1 0x20 MUL PUSH1 0x20 ADD ADD MLOAD DUP2 PUSH0 DUP2 MLOAD DUP2 LT PUSH2 0x2E2 JUMPI PUSH2 0x2E1 PUSH2 0x665 JUMP JUMPDEST JUMPDEST PUSH1 0x20 MUL PUSH1 0x20 ADD ADD DUP2 DUP2 MSTORE POP POP DUP2 DUP2 SWAP5 POP SWAP5 POP POP POP POP PUSH2 0x399 JUMP JUMPDEST PUSH0 PUSH1 0x1 PUSH8 0xFFFFFFFFFFFFFFFF DUP2 GT ISZERO PUSH2 0x318 JUMPI PUSH2 0x317 PUSH2 0x3C3 JUMP JUMPDEST JUMPDEST PUSH1 0x40 MLOAD SWAP1 DUP1 DUP3 MSTORE DUP1 PUSH1 0x20 MUL PUSH1 0x20 ADD DUP3 ADD PUSH1 0x40 MSTORE DUP1 ISZERO PUSH2 0x346 JUMPI DUP2 PUSH1 0x20 ADD PUSH1 0x20 DUP3 MUL DUP1 CALLDATASIZE DUP4 CALLDATACOPY DUP1 DUP3 ADD SWAP2 POP POP SWAP1 POP JUMPDEST POP SWAP1 POP DUP2 PUSH1 0x2 DUP5 PUSH2 0x357 SWAP2 SWAP1 PUSH2 0x74F JUMP JUMPDEST DUP2 MLOAD DUP2 LT PUSH2 0x368 JUMPI PUSH2 0x367 PUSH2 0x665 JUMP JUMPDEST JUMPDEST PUSH1 0x20 MUL PUSH1 0x20 ADD ADD MLOAD DUP2 PUSH0 DUP2 MLOAD DUP2 LT PUSH2 0x383 JUMPI PUSH2 0x382 PUSH2 0x665 JUMP JUMPDEST JUMPDEST PUSH1 0x20 MUL PUSH1 0x20 ADD ADD DUP2 DUP2 MSTORE POP POP DUP2 DUP2 SWAP5 POP SWAP5 POP POP POP POP JUMPDEST SWAP2 POP SWAP2 JUMP JUMPDEST PUSH0 PUSH1 0x40 MLOAD SWAP1 POP SWAP1 JUMP JUMPDEST PUSH0 DUP1 REVERT JUMPDEST PUSH0 DUP1 REVERT JUMPDEST PUSH0 DUP1 REVERT JUMPDEST PUSH0 PUSH1 0x1F NOT PUSH1 0x1F DUP4 ADD AND SWAP1 POP SWAP2 SWAP1 POP JUMP JUMPDEST PUSH32 0x4E487B7100000000000000000000000000000000000000000000000000000000 PUSH0 MSTORE PUSH1 0x41 PUSH1 0x4 MSTORE PUSH1 0x24 PUSH0 REVERT JUMPDEST PUSH2 0x3F9 DUP3 PUSH2 0x3B3 JUMP JUMPDEST DUP2 ADD DUP2 DUP2 LT PUSH8 0xFFFFFFFFFFFFFFFF DUP3 GT OR ISZERO PUSH2 0x418 JUMPI PUSH2 0x417 PUSH2 0x3C3 JUMP JUMPDEST JUMPDEST DUP1 PUSH1 0x40 MSTORE POP POP POP JUMP JUMPDEST PUSH0 PUSH2 0x42A PUSH2 0x39E JUMP JUMPDEST SWAP1 POP PUSH2 0x436 DUP3 DUP3 PUSH2 0x3F0 JUMP JUMPDEST SWAP2 SWAP1 POP JUMP JUMPDEST PUSH0 PUSH8 0xFFFFFFFFFFFFFFFF DUP3 GT ISZERO PUSH2 0x455 JUMPI PUSH2 0x454 PUSH2 0x3C3 JUMP JUMPDEST JUMPDEST PUSH1 0x20 DUP3 MUL SWAP1 POP PUSH1 0x20 DUP2 ADD SWAP1 POP SWAP2 SWAP1 POP JUMP JUMPDEST PUSH0 DUP1 REVERT JUMPDEST PUSH0 DUP2 SWAP1 POP SWAP2 SWAP1 POP JUMP JUMPDEST PUSH2 0x47C DUP2 PUSH2 0x46A JUMP JUMPDEST DUP2 EQ PUSH2 0x486 JUMPI PUSH0 DUP1 REVERT JUMPDEST POP JUMP JUMPDEST PUSH0 DUP2 CALLDATALOAD SWAP1 POP PUSH2 0x497 DUP2 PUSH2 0x473 JUMP JUMPDEST SWAP3 SWAP2 POP POP JUMP JUMPDEST PUSH0 PUSH2 0x4AF PUSH2 0x4AA DUP5 PUSH2 0x43B JUMP JUMPDEST PUSH2 0x421 JUMP JUMPDEST SWAP1 POP DUP1 DUP4 DUP3 MSTORE PUSH1 0x20 DUP3 ADD SWAP1 POP PUSH1 0x20 DUP5 MUL DUP4 ADD DUP6 DUP2 GT ISZERO PUSH2 0x4D2 JUMPI PUSH2 0x4D1 PUSH2 0x466 JUMP JUMPDEST JUMPDEST DUP4 JUMPDEST DUP2 DUP2 LT ISZERO PUSH2 0x4FB JUMPI DUP1 PUSH2 0x4E7 DUP9 DUP3 PUSH2 0x489 JUMP JUMPDEST DUP5 MSTORE PUSH1 0x20 DUP5 ADD SWAP4 POP POP PUSH1 0x20 DUP2 ADD SWAP1 POP PUSH2 0x4D4 JUMP JUMPDEST POP POP POP SWAP4 SWAP3 POP POP POP JUMP JUMPDEST PUSH0 DUP3 PUSH1 0x1F DUP4 ADD SLT PUSH2 0x519 JUMPI PUSH2 0x518 PUSH2 0x3AF JUMP JUMPDEST JUMPDEST DUP2 CALLDATALOAD PUSH2 0x529 DUP5 DUP3 PUSH1 0x20 DUP7 ADD PUSH2 0x49D JUMP JUMPDEST SWAP2 POP POP SWAP3 SWAP2 POP POP JUMP JUMPDEST PUSH0 PUSH1 0x20 DUP3 DUP5 SUB SLT ISZERO PUSH2 0x547 JUMPI PUSH2 0x546 PUSH2 0x3A7 JUMP JUMPDEST JUMPDEST PUSH0 DUP3 ADD CALLDATALOAD PUSH8 0xFFFFFFFFFFFFFFFF DUP2 GT ISZERO PUSH2 0x564 JUMPI PUSH2 0x563 PUSH2 0x3AB JUMP JUMPDEST JUMPDEST PUSH2 0x570 DUP5 DUP3 DUP6 ADD PUSH2 0x505 JUMP JUMPDEST SWAP2 POP POP SWAP3 SWAP2 POP POP JUMP JUMPDEST PUSH0 DUP2 MLOAD SWAP1 POP SWAP2 SWAP1 POP JUMP JUMPDEST PUSH0 DUP3 DUP3 MSTORE PUSH1 0x20 DUP3 ADD SWAP1 POP SWAP3 SWAP2 POP POP JUMP JUMPDEST PUSH0 DUP2 SWAP1 POP PUSH1 0x20 DUP3 ADD SWAP1 POP SWAP2 SWAP1 POP JUMP JUMPDEST PUSH2 0x5AB DUP2 PUSH2 0x46A JUMP JUMPDEST DUP3 MSTORE POP POP JUMP JUMPDEST PUSH0 PUSH2 0x5BC DUP4 DUP4 PUSH2 0x5A2 JUMP JUMPDEST PUSH1 0x20 DUP4 ADD SWAP1 POP SWAP3 SWAP2 POP POP JUMP JUMPDEST PUSH0 PUSH1 0x20 DUP3 ADD SWAP1 POP SWAP2 SWAP1 POP JUMP JUMPDEST PUSH0 PUSH2 0x5DE DUP3 PUSH2 0x579 JUMP JUMPDEST PUSH2 0x5E8 DUP2 DUP6 PUSH2 0x583 JUMP JUMPDEST SWAP4 POP PUSH2 0x5F3 DUP4 PUSH2 0x593 JUMP JUMPDEST DUP1 PUSH0 JUMPDEST DUP4 DUP2 LT ISZERO PUSH2 0x623 JUMPI DUP2 MLOAD PUSH2 0x60A DUP9 DUP3 PUSH2 0x5B1 JUMP JUMPDEST SWAP8 POP PUSH2 0x615 DUP4 PUSH2 0x5C8 JUMP JUMPDEST SWAP3 POP POP PUSH1 0x1 DUP2 ADD SWAP1 POP PUSH2 0x5F6 JUMP JUMPDEST POP DUP6 SWAP4 POP POP POP POP SWAP3 SWAP2 POP POP JUMP JUMPDEST PUSH0 PUSH1 0x40 DUP3 ADD SWAP1 POP DUP2 DUP2 SUB PUSH0 DUP4 ADD MSTORE PUSH2 0x648 DUP2 DUP6 PUSH2 0x5D4 JUMP JUMPDEST SWAP1 POP DUP2 DUP2 SUB PUSH1 0x20 DUP4 ADD MSTORE PUSH2 0x65C DUP2 DUP5 PUSH2 0x5D4 JUMP JUMPDEST SWAP1 POP SWAP4 SWAP3 POP POP POP JUMP JUMPDEST PUSH32 0x4E487B7100000000000000000000000000000000000000000000000000000000 PUSH0 MSTORE PUSH1 0x32 PUSH1 0x4 MSTORE PUSH1 0x24 PUSH0 REVERT JUMPDEST PUSH32 0x4E487B7100000000000000000000000000000000000000000000000000000000 PUSH0 MSTORE PUSH1 0x11 PUSH1 0x4 MSTORE PUSH1 0x24 PUSH0 REVERT JUMPDEST PUSH0 PUSH2 0x6C9 DUP3 PUSH2 0x46A JUMP JUMPDEST SWAP2 POP PUSH2 0x6D4 DUP4 PUSH2 0x46A JUMP JUMPDEST SWAP3 POP DUP3 DUP3 ADD SWAP1 POP DUP1 DUP3 GT ISZERO PUSH2 0x6EC JUMPI PUSH2 0x6EB PUSH2 0x692 JUMP JUMPDEST JUMPDEST SWAP3 SWAP2 POP POP JUMP JUMPDEST PUSH32 0x4E487B7100000000000000000000000000000000000000000000000000000000 PUSH0 MSTORE PUSH1 0x12 PUSH1 0x4 MSTORE PUSH1 0x24 PUSH0 REVERT JUMPDEST PUSH0 PUSH2 0x729 DUP3 PUSH2 0x46A JUMP JUMPDEST SWAP2 POP PUSH2 0x734 DUP4 PUSH2 0x46A JUMP JUMPDEST SWAP3 POP DUP3 PUSH2 0x744 JUMPI PUSH2 0x743 PUSH2 0x6F2 JUMP JUMPDEST JUMPDEST DUP3 DUP3 MOD SWAP1 POP SWAP3 SWAP2 POP POP JUMP JUMPDEST PUSH0 PUSH2 0x759 DUP3 PUSH2 0x46A JUMP JUMPDEST SWAP2 POP PUSH2 0x764 DUP4 PUSH2 0x46A JUMP JUMPDEST SWAP3 POP DUP3 PUSH2 0x774 JUMPI PUSH2 0x773 PUSH2 0x6F2 JUMP JUMPDEST JUMPDEST DUP3 DUP3 DIV SWAP1 POP SWAP3 SWAP2 POP POP JUMP JUMPDEST PUSH0 PUSH2 0x789 DUP3 PUSH2 0x46A JUMP JUMPDEST SWAP2 POP PUSH2 0x794 DUP4 PUSH2 0x46A JUMP JUMPDEST SWAP3 POP DUP3 DUP3 SUB SWAP1 POP DUP2 DUP2 GT ISZERO PUSH2 0x7AC JUMPI PUSH2 0x7AB PUSH2 0x692 JUMP JUMPDEST JUMPDEST SWAP3 SWAP2 POP POP JUMP INVALID LOG2 PUSH5 0x6970667358 0x22 SLT KECCAK256 BALANCE DIV ORIGIN PUSH19 0xA659E51C500B1272D68FE9AF5D6BDD05ECBF4F 0x2C LOG0 PUSH4 0x1A3FC4ED PUSH21 0x1564736F6C634300081A0033000000000000000000 "
				},
				"gasEstimates": {
					"creation": {
						"codeDepositCost": "404800",
						"executionCost": "441",
						"totalCost": "405241"
					},
					"external": {
						"descending(uint256[])": "infinite"
					}
				},
				"methodIdentifiers": {
					"descending(uint256[])": "35030b17"
				}
			},
			"storageLayout": {
				"storage": [],
				"types": null
			},
			"userdoc": {
				"kind": "user",
				"methods": {},
				"version": 1
			}
		}
	}
}