{
	"solidity_100/31-40.sol": {
		"Q39": {
			"abi": [
				{
					"inputs": [
						{
							"internalType": "uint256",
							"name": "_n",
							"type": "uint256"
						}
					],
					"name": "returnDigit",
					"outputs": [
						{
							"internalType": "uint256",
							"name": "",
							"type": "uint256"
						},
						{
							"internalType": "uint256",
							"name": "",
							"type": "uint256"
						},
						{
							"internalType": "uint256",
							"name": "",
							"type": "uint256"
						},
						{
							"internalType": "uint256",
							"name": "",
							"type": "uint256"
						}
					],
					"stateMutability": "pure",
					"type": "function"
				}
			],
			"devdoc": {
				"kind": "dev",
				"methods": {},
				"version": 1
			},
			"evm": {
				"assembly": "    /* \"solidity_100/31-40.sol\":6010:7125  contract Q39 {... */\n  mstore(0x40, 0x80)\n  callvalue\n  dup1\n  iszero\n  tag_1\n  jumpi\n  0x00\n  dup1\n  revert\ntag_1:\n  pop\n  dataSize(sub_0)\n  dup1\n  dataOffset(sub_0)\n  0x00\n  codecopy\n  0x00\n  return\nstop\n\nsub_0: assembly {\n        /* \"solidity_100/31-40.sol\":6010:7125  contract Q39 {... */\n      mstore(0x40, 0x80)\n      callvalue\n      dup1\n      iszero\n      tag_1\n      jumpi\n      0x00\n      dup1\n      revert\n    tag_1:\n      pop\n      jumpi(tag_2, lt(calldatasize, 0x04))\n      shr(0xe0, calldataload(0x00))\n      dup1\n      0xbb76d471\n      eq\n      tag_3\n      jumpi\n    tag_2:\n      0x00\n      dup1\n      revert\n        /* \"solidity_100/31-40.sol\":6412:7122  function returnDigit(uint _n) public pure returns(uint,uint,uint,uint) {... */\n    tag_3:\n      tag_4\n      0x04\n      dup1\n      calldatasize\n      sub\n      dup2\n      add\n      swap1\n      tag_5\n      swap2\n      swap1\n      tag_6\n      jump\t// in\n    tag_5:\n      tag_7\n      jump\t// in\n    tag_4:\n      mload(0x40)\n      tag_8\n      swap5\n      swap4\n      swap3\n      swap2\n      swap1\n      tag_9\n      jump\t// in\n    tag_8:\n      mload(0x40)\n      dup1\n      swap2\n      sub\n      swap1\n      return\n    tag_7:\n        /* \"solidity_100/31-40.sol\":6462:6466  uint */\n      0x00\n        /* \"solidity_100/31-40.sol\":6467:6471  uint */\n      dup1\n        /* \"solidity_100/31-40.sol\":6472:6476  uint */\n      0x00\n        /* \"solidity_100/31-40.sol\":6477:6481  uint */\n      dup1\n        /* \"solidity_100/31-40.sol\":6494:6513  uint[] memory Array */\n      0x00\n        /* \"solidity_100/31-40.sol\":6527:6529  _n */\n      dup6\n        /* \"solidity_100/31-40.sol\":6516:6530  new uint[](_n) */\n      0xffffffffffffffff\n      dup2\n      gt\n      iszero\n      tag_11\n      jumpi\n      tag_12\n      tag_13\n      jump\t// in\n    tag_12:\n    tag_11:\n      mload(0x40)\n      swap1\n      dup1\n      dup3\n      mstore\n      dup1\n      0x20\n      mul\n      0x20\n      add\n      dup3\n      add\n      0x40\n      mstore\n      dup1\n      iszero\n      tag_14\n      jumpi\n      dup2\n      0x20\n      add\n      0x20\n      dup3\n      mul\n      dup1\n      calldatasize\n      dup4\n      calldatacopy\n      dup1\n      dup3\n      add\n      swap2\n      pop\n      pop\n      swap1\n      pop\n    tag_14:\n      pop\n        /* \"solidity_100/31-40.sol\":6494:6530  uint[] memory Array = new uint[](_n) */\n      swap1\n      pop\n        /* \"solidity_100/31-40.sol\":6541:6549  uint idx */\n      0x00\n        /* \"solidity_100/31-40.sol\":6560:6573  uint twoTimes */\n      dup1\n        /* \"solidity_100/31-40.sol\":6584:6599  uint threeTimes */\n      0x00\n        /* \"solidity_100/31-40.sol\":6610:6624  uint fiveTimes */\n      dup1\n        /* \"solidity_100/31-40.sol\":6635:6650  uint sevenTimes */\n      0x00\n        /* \"solidity_100/31-40.sol\":6665:6671  uint i */\n      dup1\n        /* \"solidity_100/31-40.sol\":6672:6673  1 */\n      0x01\n        /* \"solidity_100/31-40.sol\":6665:6673  uint i=1 */\n      swap1\n      pop\n        /* \"solidity_100/31-40.sol\":6661:7055  for(uint i=1; i < _n+1; i++) {... */\n    tag_15:\n        /* \"solidity_100/31-40.sol\":6682:6683  1 */\n      0x01\n        /* \"solidity_100/31-40.sol\":6679:6681  _n */\n      dup13\n        /* \"solidity_100/31-40.sol\":6679:6683  _n+1 */\n      tag_18\n      swap2\n      swap1\n      tag_19\n      jump\t// in\n    tag_18:\n        /* \"solidity_100/31-40.sol\":6675:6676  i */\n      dup2\n        /* \"solidity_100/31-40.sol\":6675:6683  i < _n+1 */\n      lt\n        /* \"solidity_100/31-40.sol\":6661:7055  for(uint i=1; i < _n+1; i++) {... */\n      iszero\n      tag_16\n      jumpi\n        /* \"solidity_100/31-40.sol\":6717:6718  0 */\n      0x00\n        /* \"solidity_100/31-40.sol\":6712:6713  2 */\n      0x02\n        /* \"solidity_100/31-40.sol\":6708:6709  i */\n      dup3\n        /* \"solidity_100/31-40.sol\":6708:6713  i % 2 */\n      tag_20\n      swap2\n      swap1\n      tag_21\n      jump\t// in\n    tag_20:\n        /* \"solidity_100/31-40.sol\":6708:6718  i % 2 == 0 */\n      sub\n        /* \"solidity_100/31-40.sol\":6705:6765  if(i % 2 == 0) {... */\n      tag_22\n      jumpi\n        /* \"solidity_100/31-40.sol\":6739:6749  twoTimes++ */\n      dup5\n      dup1\n      tag_23\n      swap1\n      tag_24\n      jump\t// in\n    tag_23:\n      swap6\n      pop\n      pop\n        /* \"solidity_100/31-40.sol\":6705:6765  if(i % 2 == 0) {... */\n    tag_22:\n        /* \"solidity_100/31-40.sol\":6792:6793  0 */\n      0x00\n        /* \"solidity_100/31-40.sol\":6787:6788  3 */\n      0x03\n        /* \"solidity_100/31-40.sol\":6783:6784  i */\n      dup3\n        /* \"solidity_100/31-40.sol\":6783:6788  i % 3 */\n      tag_25\n      swap2\n      swap1\n      tag_21\n      jump\t// in\n    tag_25:\n        /* \"solidity_100/31-40.sol\":6783:6793  i % 3 == 0 */\n      sub\n        /* \"solidity_100/31-40.sol\":6780:6842  if(i % 3 == 0) {... */\n      tag_26\n      jumpi\n        /* \"solidity_100/31-40.sol\":6814:6826  threeTimes++ */\n      dup4\n      dup1\n      tag_27\n      swap1\n      tag_24\n      jump\t// in\n    tag_27:\n      swap5\n      pop\n      pop\n        /* \"solidity_100/31-40.sol\":6780:6842  if(i % 3 == 0) {... */\n    tag_26:\n        /* \"solidity_100/31-40.sol\":6869:6870  0 */\n      0x00\n        /* \"solidity_100/31-40.sol\":6864:6865  5 */\n      0x05\n        /* \"solidity_100/31-40.sol\":6860:6861  i */\n      dup3\n        /* \"solidity_100/31-40.sol\":6860:6865  i % 5 */\n      tag_28\n      swap2\n      swap1\n      tag_21\n      jump\t// in\n    tag_28:\n        /* \"solidity_100/31-40.sol\":6860:6870  i % 5 == 0 */\n      sub\n        /* \"solidity_100/31-40.sol\":6857:6918  if(i % 5 == 0) {... */\n      tag_29\n      jumpi\n        /* \"solidity_100/31-40.sol\":6891:6902  fiveTimes++ */\n      dup3\n      dup1\n      tag_30\n      swap1\n      tag_24\n      jump\t// in\n    tag_30:\n      swap4\n      pop\n      pop\n        /* \"solidity_100/31-40.sol\":6857:6918  if(i % 5 == 0) {... */\n    tag_29:\n        /* \"solidity_100/31-40.sol\":6945:6946  0 */\n      0x00\n        /* \"solidity_100/31-40.sol\":6940:6941  7 */\n      0x07\n        /* \"solidity_100/31-40.sol\":6936:6937  i */\n      dup3\n        /* \"solidity_100/31-40.sol\":6936:6941  i % 7 */\n      tag_31\n      swap2\n      swap1\n      tag_21\n      jump\t// in\n    tag_31:\n        /* \"solidity_100/31-40.sol\":6936:6946  i % 7 == 0 */\n      sub\n        /* \"solidity_100/31-40.sol\":6933:6995  if(i % 7 == 0) {... */\n      tag_32\n      jumpi\n        /* \"solidity_100/31-40.sol\":6967:6979  sevenTimes++ */\n      dup2\n      dup1\n      tag_33\n      swap1\n      tag_24\n      jump\t// in\n    tag_33:\n      swap3\n      pop\n      pop\n        /* \"solidity_100/31-40.sol\":6933:6995  if(i % 7 == 0) {... */\n    tag_32:\n        /* \"solidity_100/31-40.sol\":7022:7023  i */\n      dup1\n        /* \"solidity_100/31-40.sol\":7009:7014  Array */\n      dup8\n        /* \"solidity_100/31-40.sol\":7015:7018  idx */\n      dup8\n        /* \"solidity_100/31-40.sol\":7009:7019  Array[idx] */\n      dup2\n      mload\n      dup2\n      lt\n      tag_34\n      jumpi\n      tag_35\n      tag_36\n      jump\t// in\n    tag_35:\n    tag_34:\n      0x20\n      mul\n      0x20\n      add\n      add\n        /* \"solidity_100/31-40.sol\":7009:7023  Array[idx] = i */\n      dup2\n      dup2\n      mstore\n      pop\n      pop\n        /* \"solidity_100/31-40.sol\":7038:7043  idx++ */\n      dup6\n      dup1\n      tag_37\n      swap1\n      tag_24\n      jump\t// in\n    tag_37:\n      swap7\n      pop\n      pop\n        /* \"solidity_100/31-40.sol\":6685:6688  i++ */\n      dup1\n      dup1\n      0x01\n      add\n      swap2\n      pop\n      pop\n        /* \"solidity_100/31-40.sol\":6661:7055  for(uint i=1; i < _n+1; i++) {... */\n      jump(tag_15)\n    tag_16:\n      pop\n        /* \"solidity_100/31-40.sol\":7073:7081  twoTimes */\n      dup4\n        /* \"solidity_100/31-40.sol\":7082:7092  threeTimes */\n      dup4\n        /* \"solidity_100/31-40.sol\":7093:7102  fiveTimes */\n      dup4\n        /* \"solidity_100/31-40.sol\":7103:7113  sevenTimes */\n      dup4\n        /* \"solidity_100/31-40.sol\":7065:7114  return (twoTimes,threeTimes,fiveTimes,sevenTimes) */\n      swap10\n      pop\n      swap10\n      pop\n      swap10\n      pop\n      swap10\n      pop\n      pop\n      pop\n      pop\n      pop\n      pop\n      pop\n        /* \"solidity_100/31-40.sol\":6412:7122  function returnDigit(uint _n) public pure returns(uint,uint,uint,uint) {... */\n      swap2\n      swap4\n      pop\n      swap2\n      swap4\n      jump\t// out\n        /* \"#utility.yul\":88:205   */\n    tag_39:\n        /* \"#utility.yul\":197:198   */\n      0x00\n        /* \"#utility.yul\":194:195   */\n      dup1\n        /* \"#utility.yul\":187:199   */\n      revert\n        /* \"#utility.yul\":334:411   */\n    tag_41:\n        /* \"#utility.yul\":371:378   */\n      0x00\n        /* \"#utility.yul\":400:405   */\n      dup2\n        /* \"#utility.yul\":389:405   */\n      swap1\n      pop\n        /* \"#utility.yul\":334:411   */\n      swap2\n      swap1\n      pop\n      jump\t// out\n        /* \"#utility.yul\":417:539   */\n    tag_42:\n        /* \"#utility.yul\":490:514   */\n      tag_53\n        /* \"#utility.yul\":508:513   */\n      dup2\n        /* \"#utility.yul\":490:514   */\n      tag_41\n      jump\t// in\n    tag_53:\n        /* \"#utility.yul\":483:488   */\n      dup2\n        /* \"#utility.yul\":480:515   */\n      eq\n        /* \"#utility.yul\":470:533   */\n      tag_54\n      jumpi\n        /* \"#utility.yul\":529:530   */\n      0x00\n        /* \"#utility.yul\":526:527   */\n      dup1\n        /* \"#utility.yul\":519:531   */\n      revert\n        /* \"#utility.yul\":470:533   */\n    tag_54:\n        /* \"#utility.yul\":417:539   */\n      pop\n      jump\t// out\n        /* \"#utility.yul\":545:684   */\n    tag_43:\n        /* \"#utility.yul\":591:596   */\n      0x00\n        /* \"#utility.yul\":629:635   */\n      dup2\n        /* \"#utility.yul\":616:636   */\n      calldataload\n        /* \"#utility.yul\":607:636   */\n      swap1\n      pop\n        /* \"#utility.yul\":645:678   */\n      tag_56\n        /* \"#utility.yul\":672:677   */\n      dup2\n        /* \"#utility.yul\":645:678   */\n      tag_42\n      jump\t// in\n    tag_56:\n        /* \"#utility.yul\":545:684   */\n      swap3\n      swap2\n      pop\n      pop\n      jump\t// out\n        /* \"#utility.yul\":690:1019   */\n    tag_6:\n        /* \"#utility.yul\":749:755   */\n      0x00\n        /* \"#utility.yul\":798:800   */\n      0x20\n        /* \"#utility.yul\":786:795   */\n      dup3\n        /* \"#utility.yul\":777:784   */\n      dup5\n        /* \"#utility.yul\":773:796   */\n      sub\n        /* \"#utility.yul\":769:801   */\n      slt\n        /* \"#utility.yul\":766:885   */\n      iszero\n      tag_58\n      jumpi\n        /* \"#utility.yul\":804:883   */\n      tag_59\n      tag_39\n      jump\t// in\n    tag_59:\n        /* \"#utility.yul\":766:885   */\n    tag_58:\n        /* \"#utility.yul\":924:925   */\n      0x00\n        /* \"#utility.yul\":949:1002   */\n      tag_60\n        /* \"#utility.yul\":994:1001   */\n      dup5\n        /* \"#utility.yul\":985:991   */\n      dup3\n        /* \"#utility.yul\":974:983   */\n      dup6\n        /* \"#utility.yul\":970:992   */\n      add\n        /* \"#utility.yul\":949:1002   */\n      tag_43\n      jump\t// in\n    tag_60:\n        /* \"#utility.yul\":939:1002   */\n      swap2\n      pop\n        /* \"#utility.yul\":895:1012   */\n      pop\n        /* \"#utility.yul\":690:1019   */\n      swap3\n      swap2\n      pop\n      pop\n      jump\t// out\n        /* \"#utility.yul\":1025:1143   */\n    tag_44:\n        /* \"#utility.yul\":1112:1136   */\n      tag_62\n        /* \"#utility.yul\":1130:1135   */\n      dup2\n        /* \"#utility.yul\":1112:1136   */\n      tag_41\n      jump\t// in\n    tag_62:\n        /* \"#utility.yul\":1107:1110   */\n      dup3\n        /* \"#utility.yul\":1100:1137   */\n      mstore\n        /* \"#utility.yul\":1025:1143   */\n      pop\n      pop\n      jump\t// out\n        /* \"#utility.yul\":1149:1702   */\n    tag_9:\n        /* \"#utility.yul\":1326:1330   */\n      0x00\n        /* \"#utility.yul\":1364:1367   */\n      0x80\n        /* \"#utility.yul\":1353:1362   */\n      dup3\n        /* \"#utility.yul\":1349:1368   */\n      add\n        /* \"#utility.yul\":1341:1368   */\n      swap1\n      pop\n        /* \"#utility.yul\":1378:1449   */\n      tag_64\n        /* \"#utility.yul\":1446:1447   */\n      0x00\n        /* \"#utility.yul\":1435:1444   */\n      dup4\n        /* \"#utility.yul\":1431:1448   */\n      add\n        /* \"#utility.yul\":1422:1428   */\n      dup8\n        /* \"#utility.yul\":1378:1449   */\n      tag_44\n      jump\t// in\n    tag_64:\n        /* \"#utility.yul\":1459:1531   */\n      tag_65\n        /* \"#utility.yul\":1527:1529   */\n      0x20\n        /* \"#utility.yul\":1516:1525   */\n      dup4\n        /* \"#utility.yul\":1512:1530   */\n      add\n        /* \"#utility.yul\":1503:1509   */\n      dup7\n        /* \"#utility.yul\":1459:1531   */\n      tag_44\n      jump\t// in\n    tag_65:\n        /* \"#utility.yul\":1541:1613   */\n      tag_66\n        /* \"#utility.yul\":1609:1611   */\n      0x40\n        /* \"#utility.yul\":1598:1607   */\n      dup4\n        /* \"#utility.yul\":1594:1612   */\n      add\n        /* \"#utility.yul\":1585:1591   */\n      dup6\n        /* \"#utility.yul\":1541:1613   */\n      tag_44\n      jump\t// in\n    tag_66:\n        /* \"#utility.yul\":1623:1695   */\n      tag_67\n        /* \"#utility.yul\":1691:1693   */\n      0x60\n        /* \"#utility.yul\":1680:1689   */\n      dup4\n        /* \"#utility.yul\":1676:1694   */\n      add\n        /* \"#utility.yul\":1667:1673   */\n      dup5\n        /* \"#utility.yul\":1623:1695   */\n      tag_44\n      jump\t// in\n    tag_67:\n        /* \"#utility.yul\":1149:1702   */\n      swap6\n      swap5\n      pop\n      pop\n      pop\n      pop\n      pop\n      jump\t// out\n        /* \"#utility.yul\":1708:1888   */\n    tag_13:\n        /* \"#utility.yul\":1756:1833   */\n      0x4e487b7100000000000000000000000000000000000000000000000000000000\n        /* \"#utility.yul\":1753:1754   */\n      0x00\n        /* \"#utility.yul\":1746:1834   */\n      mstore\n        /* \"#utility.yul\":1853:1857   */\n      0x41\n        /* \"#utility.yul\":1850:1851   */\n      0x04\n        /* \"#utility.yul\":1843:1858   */\n      mstore\n        /* \"#utility.yul\":1877:1881   */\n      0x24\n        /* \"#utility.yul\":1874:1875   */\n      0x00\n        /* \"#utility.yul\":1867:1882   */\n      revert\n        /* \"#utility.yul\":1894:2074   */\n    tag_45:\n        /* \"#utility.yul\":1942:2019   */\n      0x4e487b7100000000000000000000000000000000000000000000000000000000\n        /* \"#utility.yul\":1939:1940   */\n      0x00\n        /* \"#utility.yul\":1932:2020   */\n      mstore\n        /* \"#utility.yul\":2039:2043   */\n      0x11\n        /* \"#utility.yul\":2036:2037   */\n      0x04\n        /* \"#utility.yul\":2029:2044   */\n      mstore\n        /* \"#utility.yul\":2063:2067   */\n      0x24\n        /* \"#utility.yul\":2060:2061   */\n      0x00\n        /* \"#utility.yul\":2053:2068   */\n      revert\n        /* \"#utility.yul\":2080:2271   */\n    tag_19:\n        /* \"#utility.yul\":2120:2123   */\n      0x00\n        /* \"#utility.yul\":2139:2159   */\n      tag_71\n        /* \"#utility.yul\":2157:2158   */\n      dup3\n        /* \"#utility.yul\":2139:2159   */\n      tag_41\n      jump\t// in\n    tag_71:\n        /* \"#utility.yul\":2134:2159   */\n      swap2\n      pop\n        /* \"#utility.yul\":2173:2193   */\n      tag_72\n        /* \"#utility.yul\":2191:2192   */\n      dup4\n        /* \"#utility.yul\":2173:2193   */\n      tag_41\n      jump\t// in\n    tag_72:\n        /* \"#utility.yul\":2168:2193   */\n      swap3\n      pop\n        /* \"#utility.yul\":2216:2217   */\n      dup3\n        /* \"#utility.yul\":2213:2214   */\n      dup3\n        /* \"#utility.yul\":2209:2218   */\n      add\n        /* \"#utility.yul\":2202:2218   */\n      swap1\n      pop\n        /* \"#utility.yul\":2237:2240   */\n      dup1\n        /* \"#utility.yul\":2234:2235   */\n      dup3\n        /* \"#utility.yul\":2231:2241   */\n      gt\n        /* \"#utility.yul\":2228:2264   */\n      iszero\n      tag_73\n      jumpi\n        /* \"#utility.yul\":2244:2262   */\n      tag_74\n      tag_45\n      jump\t// in\n    tag_74:\n        /* \"#utility.yul\":2228:2264   */\n    tag_73:\n        /* \"#utility.yul\":2080:2271   */\n      swap3\n      swap2\n      pop\n      pop\n      jump\t// out\n        /* \"#utility.yul\":2277:2457   */\n    tag_46:\n        /* \"#utility.yul\":2325:2402   */\n      0x4e487b7100000000000000000000000000000000000000000000000000000000\n        /* \"#utility.yul\":2322:2323   */\n      0x00\n        /* \"#utility.yul\":2315:2403   */\n      mstore\n        /* \"#utility.yul\":2422:2426   */\n      0x12\n        /* \"#utility.yul\":2419:2420   */\n      0x04\n        /* \"#utility.yul\":2412:2427   */\n      mstore\n        /* \"#utility.yul\":2446:2450   */\n      0x24\n        /* \"#utility.yul\":2443:2444   */\n      0x00\n        /* \"#utility.yul\":2436:2451   */\n      revert\n        /* \"#utility.yul\":2463:2639   */\n    tag_21:\n        /* \"#utility.yul\":2495:2496   */\n      0x00\n        /* \"#utility.yul\":2512:2532   */\n      tag_77\n        /* \"#utility.yul\":2530:2531   */\n      dup3\n        /* \"#utility.yul\":2512:2532   */\n      tag_41\n      jump\t// in\n    tag_77:\n        /* \"#utility.yul\":2507:2532   */\n      swap2\n      pop\n        /* \"#utility.yul\":2546:2566   */\n      tag_78\n        /* \"#utility.yul\":2564:2565   */\n      dup4\n        /* \"#utility.yul\":2546:2566   */\n      tag_41\n      jump\t// in\n    tag_78:\n        /* \"#utility.yul\":2541:2566   */\n      swap3\n      pop\n        /* \"#utility.yul\":2585:2586   */\n      dup3\n        /* \"#utility.yul\":2575:2610   */\n      tag_79\n      jumpi\n        /* \"#utility.yul\":2590:2608   */\n      tag_80\n      tag_46\n      jump\t// in\n    tag_80:\n        /* \"#utility.yul\":2575:2610   */\n    tag_79:\n        /* \"#utility.yul\":2631:2632   */\n      dup3\n        /* \"#utility.yul\":2628:2629   */\n      dup3\n        /* \"#utility.yul\":2624:2633   */\n      mod\n        /* \"#utility.yul\":2619:2633   */\n      swap1\n      pop\n        /* \"#utility.yul\":2463:2639   */\n      swap3\n      swap2\n      pop\n      pop\n      jump\t// out\n        /* \"#utility.yul\":2645:2878   */\n    tag_24:\n        /* \"#utility.yul\":2684:2687   */\n      0x00\n        /* \"#utility.yul\":2707:2731   */\n      tag_82\n        /* \"#utility.yul\":2725:2730   */\n      dup3\n        /* \"#utility.yul\":2707:2731   */\n      tag_41\n      jump\t// in\n    tag_82:\n        /* \"#utility.yul\":2698:2731   */\n      swap2\n      pop\n        /* \"#utility.yul\":2753:2819   */\n      0xffffffffffffffffffffffffffffffffffffffffffffffffffffffffffffffff\n        /* \"#utility.yul\":2746:2751   */\n      dup3\n        /* \"#utility.yul\":2743:2820   */\n      sub\n        /* \"#utility.yul\":2740:2843   */\n      tag_83\n      jumpi\n        /* \"#utility.yul\":2823:2841   */\n      tag_84\n      tag_45\n      jump\t// in\n    tag_84:\n        /* \"#utility.yul\":2740:2843   */\n    tag_83:\n        /* \"#utility.yul\":2870:2871   */\n      0x01\n        /* \"#utility.yul\":2863:2868   */\n      dup3\n        /* \"#utility.yul\":2859:2872   */\n      add\n        /* \"#utility.yul\":2852:2872   */\n      swap1\n      pop\n        /* \"#utility.yul\":2645:2878   */\n      swap2\n      swap1\n      pop\n      jump\t// out\n        /* \"#utility.yul\":2884:3064   */\n    tag_36:\n        /* \"#utility.yul\":2932:3009   */\n      0x4e487b7100000000000000000000000000000000000000000000000000000000\n        /* \"#utility.yul\":2929:2930   */\n      0x00\n        /* \"#utility.yul\":2922:3010   */\n      mstore\n        /* \"#utility.yul\":3029:3033   */\n      0x32\n        /* \"#utility.yul\":3026:3027   */\n      0x04\n        /* \"#utility.yul\":3019:3034   */\n      mstore\n        /* \"#utility.yul\":3053:3057   */\n      0x24\n        /* \"#utility.yul\":3050:3051   */\n      0x00\n        /* \"#utility.yul\":3043:3058   */\n      revert\n\n    auxdata: 0xa2646970667358221220d05925ed4bb79b7039f321d43c7ad6e10ecece8744c75cb0cb7a5a31aea1618864736f6c634300081a0033\n}\n",
				"bytecode": {
					"linkReferences": {},
					"object": "6080604052348015600e575f80fd5b506103f48061001c5f395ff3fe608060405234801561000f575f80fd5b5060043610610029575f3560e01c8063bb76d4711461002d575b5f80fd5b610047600480360381019061004291906101e3565b610060565b604051610057949392919061021d565b60405180910390f35b5f805f805f8567ffffffffffffffff81111561007f5761007e610260565b5b6040519080825280602002602001820160405280156100ad5781602001602082028036833780820191505090505b5090505f805f805f80600190505b60018c6100c891906102ba565b811015610192575f6002826100dd919061031a565b036100f15784806100ed9061034a565b9550505b5f6003826100ff919061031a565b0361011357838061010f9061034a565b9450505b5f600582610121919061031a565b036101355782806101319061034a565b9350505b5f600782610143919061031a565b036101575781806101539061034a565b9250505b8087878151811061016b5761016a610391565b5b60200260200101818152505085806101829061034a565b96505080806001019150506100bb565b508383838399509950995099505050505050509193509193565b5f80fd5b5f819050919050565b6101c2816101b0565b81146101cc575f80fd5b50565b5f813590506101dd816101b9565b92915050565b5f602082840312156101f8576101f76101ac565b5b5f610205848285016101cf565b91505092915050565b610217816101b0565b82525050565b5f6080820190506102305f83018761020e565b61023d602083018661020e565b61024a604083018561020e565b610257606083018461020e565b95945050505050565b7f4e487b71000000000000000000000000000000000000000000000000000000005f52604160045260245ffd5b7f4e487b71000000000000000000000000000000000000000000000000000000005f52601160045260245ffd5b5f6102c4826101b0565b91506102cf836101b0565b92508282019050808211156102e7576102e661028d565b5b92915050565b7f4e487b71000000000000000000000000000000000000000000000000000000005f52601260045260245ffd5b5f610324826101b0565b915061032f836101b0565b92508261033f5761033e6102ed565b5b828206905092915050565b5f610354826101b0565b91507fffffffffffffffffffffffffffffffffffffffffffffffffffffffffffffffff82036103865761038561028d565b5b600182019050919050565b7f4e487b71000000000000000000000000000000000000000000000000000000005f52603260045260245ffdfea2646970667358221220d05925ed4bb79b7039f321d43c7ad6e10ecece8744c75cb0cb7a5a31aea1618864736f6c634300081a0033",
					"opcodes": "PUSH1 0x80 PUSH1 0x40 MSTORE CALLVALUE DUP1 ISZERO PUSH1 0xE JUMPI PUSH0 DUP1 REVERT JUMPDEST POP PUSH2 0x3F4 DUP1 PUSH2 0x1C PUSH0 CODECOPY PUSH0 RETURN INVALID PUSH1 0x80 PUSH1 0x40 MSTORE CALLVALUE DUP1 ISZERO PUSH2 0xF JUMPI PUSH0 DUP1 REVERT JUMPDEST POP PUSH1 0x4 CALLDATASIZE LT PUSH2 0x29 JUMPI PUSH0 CALLDATALOAD PUSH1 0xE0 SHR DUP1 PUSH4 0xBB76D471 EQ PUSH2 0x2D JUMPI JUMPDEST PUSH0 DUP1 REVERT JUMPDEST PUSH2 0x47 PUSH1 0x4 DUP1 CALLDATASIZE SUB DUP2 ADD SWAP1 PUSH2 0x42 SWAP2 SWAP1 PUSH2 0x1E3 JUMP JUMPDEST PUSH2 0x60 JUMP JUMPDEST PUSH1 0x40 MLOAD PUSH2 0x57 SWAP5 SWAP4 SWAP3 SWAP2 SWAP1 PUSH2 0x21D JUMP JUMPDEST PUSH1 0x40 MLOAD DUP1 SWAP2 SUB SWAP1 RETURN JUMPDEST PUSH0 DUP1 PUSH0 DUP1 PUSH0 DUP6 PUSH8 0xFFFFFFFFFFFFFFFF DUP2 GT ISZERO PUSH2 0x7F JUMPI PUSH2 0x7E PUSH2 0x260 JUMP JUMPDEST JUMPDEST PUSH1 0x40 MLOAD SWAP1 DUP1 DUP3 MSTORE DUP1 PUSH1 0x20 MUL PUSH1 0x20 ADD DUP3 ADD PUSH1 0x40 MSTORE DUP1 ISZERO PUSH2 0xAD JUMPI DUP2 PUSH1 0x20 ADD PUSH1 0x20 DUP3 MUL DUP1 CALLDATASIZE DUP4 CALLDATACOPY DUP1 DUP3 ADD SWAP2 POP POP SWAP1 POP JUMPDEST POP SWAP1 POP PUSH0 DUP1 PUSH0 DUP1 PUSH0 DUP1 PUSH1 0x1 SWAP1 POP JUMPDEST PUSH1 0x1 DUP13 PUSH2 0xC8 SWAP2 SWAP1 PUSH2 0x2BA JUMP JUMPDEST DUP2 LT ISZERO PUSH2 0x192 JUMPI PUSH0 PUSH1 0x2 DUP3 PUSH2 0xDD SWAP2 SWAP1 PUSH2 0x31A JUMP JUMPDEST SUB PUSH2 0xF1 JUMPI DUP5 DUP1 PUSH2 0xED SWAP1 PUSH2 0x34A JUMP JUMPDEST SWAP6 POP POP JUMPDEST PUSH0 PUSH1 0x3 DUP3 PUSH2 0xFF SWAP2 SWAP1 PUSH2 0x31A JUMP JUMPDEST SUB PUSH2 0x113 JUMPI DUP4 DUP1 PUSH2 0x10F SWAP1 PUSH2 0x34A JUMP JUMPDEST SWAP5 POP POP JUMPDEST PUSH0 PUSH1 0x5 DUP3 PUSH2 0x121 SWAP2 SWAP1 PUSH2 0x31A JUMP JUMPDEST SUB PUSH2 0x135 JUMPI DUP3 DUP1 PUSH2 0x131 SWAP1 PUSH2 0x34A JUMP JUMPDEST SWAP4 POP POP JUMPDEST PUSH0 PUSH1 0x7 DUP3 PUSH2 0x143 SWAP2 SWAP1 PUSH2 0x31A JUMP JUMPDEST SUB PUSH2 0x157 JUMPI DUP2 DUP1 PUSH2 0x153 SWAP1 PUSH2 0x34A JUMP JUMPDEST SWAP3 POP POP JUMPDEST DUP1 DUP8 DUP8 DUP2 MLOAD DUP2 LT PUSH2 0x16B JUMPI PUSH2 0x16A PUSH2 0x391 JUMP JUMPDEST JUMPDEST PUSH1 0x20 MUL PUSH1 0x20 ADD ADD DUP2 DUP2 MSTORE POP POP DUP6 DUP1 PUSH2 0x182 SWAP1 PUSH2 0x34A JUMP JUMPDEST SWAP7 POP POP DUP1 DUP1 PUSH1 0x1 ADD SWAP2 POP POP PUSH2 0xBB JUMP JUMPDEST POP DUP4 DUP4 DUP4 DUP4 SWAP10 POP SWAP10 POP SWAP10 POP SWAP10 POP POP POP POP POP POP POP SWAP2 SWAP4 POP SWAP2 SWAP4 JUMP JUMPDEST PUSH0 DUP1 REVERT JUMPDEST PUSH0 DUP2 SWAP1 POP SWAP2 SWAP1 POP JUMP JUMPDEST PUSH2 0x1C2 DUP2 PUSH2 0x1B0 JUMP JUMPDEST DUP2 EQ PUSH2 0x1CC JUMPI PUSH0 DUP1 REVERT JUMPDEST POP JUMP JUMPDEST PUSH0 DUP2 CALLDATALOAD SWAP1 POP PUSH2 0x1DD DUP2 PUSH2 0x1B9 JUMP JUMPDEST SWAP3 SWAP2 POP POP JUMP JUMPDEST PUSH0 PUSH1 0x20 DUP3 DUP5 SUB SLT ISZERO PUSH2 0x1F8 JUMPI PUSH2 0x1F7 PUSH2 0x1AC JUMP JUMPDEST JUMPDEST PUSH0 PUSH2 0x205 DUP5 DUP3 DUP6 ADD PUSH2 0x1CF JUMP JUMPDEST SWAP2 POP POP SWAP3 SWAP2 POP POP JUMP JUMPDEST PUSH2 0x217 DUP2 PUSH2 0x1B0 JUMP JUMPDEST DUP3 MSTORE POP POP JUMP JUMPDEST PUSH0 PUSH1 0x80 DUP3 ADD SWAP1 POP PUSH2 0x230 PUSH0 DUP4 ADD DUP8 PUSH2 0x20E JUMP JUMPDEST PUSH2 0x23D PUSH1 0x20 DUP4 ADD DUP7 PUSH2 0x20E JUMP JUMPDEST PUSH2 0x24A PUSH1 0x40 DUP4 ADD DUP6 PUSH2 0x20E JUMP JUMPDEST PUSH2 0x257 PUSH1 0x60 DUP4 ADD DUP5 PUSH2 0x20E JUMP JUMPDEST SWAP6 SWAP5 POP POP POP POP POP JUMP JUMPDEST PUSH32 0x4E487B7100000000000000000000000000000000000000000000000000000000 PUSH0 MSTORE PUSH1 0x41 PUSH1 0x4 MSTORE PUSH1 0x24 PUSH0 REVERT JUMPDEST PUSH32 0x4E487B7100000000000000000000000000000000000000000000000000000000 PUSH0 MSTORE PUSH1 0x11 PUSH1 0x4 MSTORE PUSH1 0x24 PUSH0 REVERT JUMPDEST PUSH0 PUSH2 0x2C4 DUP3 PUSH2 0x1B0 JUMP JUMPDEST SWAP2 POP PUSH2 0x2CF DUP4 PUSH2 0x1B0 JUMP JUMPDEST SWAP3 POP DUP3 DUP3 ADD SWAP1 POP DUP1 DUP3 GT ISZERO PUSH2 0x2E7 JUMPI PUSH2 0x2E6 PUSH2 0x28D JUMP JUMPDEST JUMPDEST SWAP3 SWAP2 POP POP JUMP JUMPDEST PUSH32 0x4E487B7100000000000000000000000000000000000000000000000000000000 PUSH0 MSTORE PUSH1 0x12 PUSH1 0x4 MSTORE PUSH1 0x24 PUSH0 REVERT JUMPDEST PUSH0 PUSH2 0x324 DUP3 PUSH2 0x1B0 JUMP JUMPDEST SWAP2 POP PUSH2 0x32F DUP4 PUSH2 0x1B0 JUMP JUMPDEST SWAP3 POP DUP3 PUSH2 0x33F JUMPI PUSH2 0x33E PUSH2 0x2ED JUMP JUMPDEST JUMPDEST DUP3 DUP3 MOD SWAP1 POP SWAP3 SWAP2 POP POP JUMP JUMPDEST PUSH0 PUSH2 0x354 DUP3 PUSH2 0x1B0 JUMP JUMPDEST SWAP2 POP PUSH32 0xFFFFFFFFFFFFFFFFFFFFFFFFFFFFFFFFFFFFFFFFFFFFFFFFFFFFFFFFFFFFFFFF DUP3 SUB PUSH2 0x386 JUMPI PUSH2 0x385 PUSH2 0x28D JUMP JUMPDEST JUMPDEST PUSH1 0x1 DUP3 ADD SWAP1 POP SWAP2 SWAP1 POP JUMP JUMPDEST PUSH32 0x4E487B7100000000000000000000000000000000000000000000000000000000 PUSH0 MSTORE PUSH1 0x32 PUSH1 0x4 MSTORE PUSH1 0x24 PUSH0 REVERT INVALID LOG2 PUSH5 0x6970667358 0x22 SLT KECCAK256 0xD0 MSIZE 0x25 0xED 0x4B 0xB7 SWAP12 PUSH17 0x39F321D43C7AD6E10ECECE8744C75CB0CB PUSH27 0x5A31AEA1618864736F6C634300081A003300000000000000000000 "
				},
				"gasEstimates": {
					"creation": {
						"codeDepositCost": "202400",
						"executionCost": "243",
						"totalCost": "202643"
					},
					"external": {
						"returnDigit(uint256)": "infinite"
					}
				},
				"methodIdentifiers": {
					"returnDigit(uint256)": "bb76d471"
				}
			},
			"storageLayout": {
				"storage": [],
				"types": null
			},
			"userdoc": {
				"kind": "user",
				"methods": {},
				"version": 1
			}
		}
	}
}