{
	"solidity_100/81-90.sol": {
		"Q83": {
			"abi": [
				{
					"inputs": [],
					"name": "getPerson",
					"outputs": [
						{
							"internalType": "string",
							"name": "",
							"type": "string"
						},
						{
							"internalType": "uint256",
							"name": "",
							"type": "uint256"
						},
						{
							"internalType": "address",
							"name": "",
							"type": "address"
						}
					],
					"stateMutability": "view",
					"type": "function"
				},
				{
					"inputs": [],
					"name": "getPersonMyname",
					"outputs": [
						{
							"internalType": "string",
							"name": "",
							"type": "string"
						}
					],
					"stateMutability": "view",
					"type": "function"
				},
				{
					"inputs": [
						{
							"internalType": "string",
							"name": "_name",
							"type": "string"
						}
					],
					"name": "setPerson",
					"outputs": [],
					"stateMutability": "nonpayable",
					"type": "function"
				}
			],
			"devdoc": {
				"kind": "dev",
				"methods": {},
				"version": 1
			},
			"evm": {
				"assembly": "    /* \"solidity_100/81-90.sol\":1056:2167  contract Q83 {... */\n  mstore(0x40, 0x80)\n  callvalue\n  dup1\n  iszero\n  tag_1\n  jumpi\n  0x00\n  dup1\n  revert\ntag_1:\n  pop\n  dataSize(sub_0)\n  dup1\n  dataOffset(sub_0)\n  0x00\n  codecopy\n  0x00\n  return\nstop\n\nsub_0: assembly {\n        /* \"solidity_100/81-90.sol\":1056:2167  contract Q83 {... */\n      mstore(0x40, 0x80)\n      callvalue\n      dup1\n      iszero\n      tag_1\n      jumpi\n      0x00\n      dup1\n      revert\n    tag_1:\n      pop\n      jumpi(tag_2, lt(calldatasize, 0x04))\n      shr(0xe0, calldataload(0x00))\n      dup1\n      0x0727e388\n      eq\n      tag_3\n      jumpi\n      dup1\n      0x8ec4dc95\n      eq\n      tag_4\n      jumpi\n      dup1\n      0x9ba0ccfe\n      eq\n      tag_5\n      jumpi\n    tag_2:\n      0x00\n      dup1\n      revert\n        /* \"solidity_100/81-90.sol\":2019:2138  function getPersonMyname() public view returns(string memory) {... */\n    tag_3:\n      tag_6\n      tag_7\n      jump\t// in\n    tag_6:\n      mload(0x40)\n      tag_8\n      swap2\n      swap1\n      tag_9\n      jump\t// in\n    tag_8:\n      mload(0x40)\n      dup1\n      swap2\n      sub\n      swap1\n      return\n        /* \"solidity_100/81-90.sol\":1834:1981  function getPerson() public view returns(string memory, uint, address) {... */\n    tag_4:\n      tag_10\n      tag_11\n      jump\t// in\n    tag_10:\n      mload(0x40)\n      tag_12\n      swap4\n      swap3\n      swap2\n      swap1\n      tag_13\n      jump\t// in\n    tag_12:\n      mload(0x40)\n      dup1\n      swap2\n      sub\n      swap1\n      return\n        /* \"solidity_100/81-90.sol\":1504:1826  function setPerson(string memory _name) public {... */\n    tag_5:\n      tag_14\n      0x04\n      dup1\n      calldatasize\n      sub\n      dup2\n      add\n      swap1\n      tag_15\n      swap2\n      swap1\n      tag_16\n      jump\t// in\n    tag_15:\n      tag_17\n      jump\t// in\n    tag_14:\n      stop\n        /* \"solidity_100/81-90.sol\":2019:2138  function getPersonMyname() public view returns(string memory) {... */\n    tag_7:\n        /* \"solidity_100/81-90.sol\":2066:2079  string memory */\n      0x60\n        /* \"solidity_100/81-90.sol\":2099:2105  people */\n      0x00\n        /* \"solidity_100/81-90.sol\":2106:2107  0 */\n      dup1\n        /* \"solidity_100/81-90.sol\":2099:2108  people[0] */\n      dup2\n      sload\n      dup2\n      lt\n      tag_19\n      jumpi\n      tag_20\n      tag_21\n      jump\t// in\n    tag_20:\n    tag_19:\n      swap1\n      0x00\n      mstore\n      keccak256(0x00, 0x20)\n      swap1\n      0x04\n      mul\n      add\n        /* \"solidity_100/81-90.sol\":2099:2115  people[0].myName */\n      0x03\n      add\n        /* \"solidity_100/81-90.sol\":2099:2130  people[0].myName[people.length] */\n      0x00\n        /* \"solidity_100/81-90.sol\":2116:2122  people */\n      dup1\n        /* \"solidity_100/81-90.sol\":2116:2129  people.length */\n      dup1\n      sload\n      swap1\n      pop\n        /* \"solidity_100/81-90.sol\":2099:2130  people[0].myName[people.length] */\n      dup2\n      mstore\n      0x20\n      add\n      swap1\n      dup2\n      mstore\n      0x20\n      add\n      0x00\n      keccak256\n        /* \"solidity_100/81-90.sol\":2092:2130  return people[0].myName[people.length] */\n      dup1\n      sload\n      tag_23\n      swap1\n      tag_24\n      jump\t// in\n    tag_23:\n      dup1\n      0x1f\n      add\n      0x20\n      dup1\n      swap2\n      div\n      mul\n      0x20\n      add\n      mload(0x40)\n      swap1\n      dup2\n      add\n      0x40\n      mstore\n      dup1\n      swap3\n      swap2\n      swap1\n      dup2\n      dup2\n      mstore\n      0x20\n      add\n      dup3\n      dup1\n      sload\n      tag_25\n      swap1\n      tag_24\n      jump\t// in\n    tag_25:\n      dup1\n      iszero\n      tag_26\n      jumpi\n      dup1\n      0x1f\n      lt\n      tag_27\n      jumpi\n      0x0100\n      dup1\n      dup4\n      sload\n      div\n      mul\n      dup4\n      mstore\n      swap2\n      0x20\n      add\n      swap2\n      jump(tag_26)\n    tag_27:\n      dup3\n      add\n      swap2\n      swap1\n      0x00\n      mstore\n      keccak256(0x00, 0x20)\n      swap1\n    tag_28:\n      dup2\n      sload\n      dup2\n      mstore\n      swap1\n      0x01\n      add\n      swap1\n      0x20\n      add\n      dup1\n      dup4\n      gt\n      tag_28\n      jumpi\n      dup3\n      swap1\n      sub\n      0x1f\n      and\n      dup3\n      add\n      swap2\n    tag_26:\n      pop\n      pop\n      pop\n      pop\n      pop\n      swap1\n      pop\n        /* \"solidity_100/81-90.sol\":2019:2138  function getPersonMyname() public view returns(string memory) {... */\n      swap1\n      jump\t// out\n        /* \"solidity_100/81-90.sol\":1834:1981  function getPerson() public view returns(string memory, uint, address) {... */\n    tag_11:\n        /* \"solidity_100/81-90.sol\":1875:1888  string memory */\n      0x60\n        /* \"solidity_100/81-90.sol\":1890:1894  uint */\n      0x00\n        /* \"solidity_100/81-90.sol\":1896:1903  address */\n      dup1\n        /* \"solidity_100/81-90.sol\":1924:1930  people */\n      0x00\n        /* \"solidity_100/81-90.sol\":1931:1932  0 */\n      dup1\n        /* \"solidity_100/81-90.sol\":1924:1933  people[0] */\n      dup2\n      sload\n      dup2\n      lt\n      tag_30\n      jumpi\n      tag_31\n      tag_21\n      jump\t// in\n    tag_31:\n    tag_30:\n      swap1\n      0x00\n      mstore\n      keccak256(0x00, 0x20)\n      swap1\n      0x04\n      mul\n      add\n        /* \"solidity_100/81-90.sol\":1924:1938  people[0].name */\n      0x00\n      add\n        /* \"solidity_100/81-90.sol\":1939:1945  people */\n      0x00\n        /* \"solidity_100/81-90.sol\":1946:1947  0 */\n      dup1\n        /* \"solidity_100/81-90.sol\":1939:1948  people[0] */\n      dup2\n      sload\n      dup2\n      lt\n      tag_33\n      jumpi\n      tag_34\n      tag_21\n      jump\t// in\n    tag_34:\n    tag_33:\n      swap1\n      0x00\n      mstore\n      keccak256(0x00, 0x20)\n      swap1\n      0x04\n      mul\n      add\n        /* \"solidity_100/81-90.sol\":1939:1955  people[0].number */\n      0x01\n      add\n      sload\n        /* \"solidity_100/81-90.sol\":1956:1962  people */\n      0x00\n        /* \"solidity_100/81-90.sol\":1963:1964  0 */\n      dup1\n        /* \"solidity_100/81-90.sol\":1956:1965  people[0] */\n      dup2\n      sload\n      dup2\n      lt\n      tag_36\n      jumpi\n      tag_37\n      tag_21\n      jump\t// in\n    tag_37:\n    tag_36:\n      swap1\n      0x00\n      mstore\n      keccak256(0x00, 0x20)\n      swap1\n      0x04\n      mul\n      add\n        /* \"solidity_100/81-90.sol\":1956:1972  people[0].wallet */\n      0x02\n      add\n      0x00\n      swap1\n      sload\n      swap1\n      0x0100\n      exp\n      swap1\n      div\n      0xffffffffffffffffffffffffffffffffffffffff\n      and\n        /* \"solidity_100/81-90.sol\":1916:1973  return (people[0].name,people[0].number,people[0].wallet) */\n      dup3\n      dup1\n      sload\n      tag_39\n      swap1\n      tag_24\n      jump\t// in\n    tag_39:\n      dup1\n      0x1f\n      add\n      0x20\n      dup1\n      swap2\n      div\n      mul\n      0x20\n      add\n      mload(0x40)\n      swap1\n      dup2\n      add\n      0x40\n      mstore\n      dup1\n      swap3\n      swap2\n      swap1\n      dup2\n      dup2\n      mstore\n      0x20\n      add\n      dup3\n      dup1\n      sload\n      tag_40\n      swap1\n      tag_24\n      jump\t// in\n    tag_40:\n      dup1\n      iszero\n      tag_41\n      jumpi\n      dup1\n      0x1f\n      lt\n      tag_42\n      jumpi\n      0x0100\n      dup1\n      dup4\n      sload\n      div\n      mul\n      dup4\n      mstore\n      swap2\n      0x20\n      add\n      swap2\n      jump(tag_41)\n    tag_42:\n      dup3\n      add\n      swap2\n      swap1\n      0x00\n      mstore\n      keccak256(0x00, 0x20)\n      swap1\n    tag_43:\n      dup2\n      sload\n      dup2\n      mstore\n      swap1\n      0x01\n      add\n      swap1\n      0x20\n      add\n      dup1\n      dup4\n      gt\n      tag_43\n      jumpi\n      dup3\n      swap1\n      sub\n      0x1f\n      and\n      dup3\n      add\n      swap2\n    tag_41:\n      pop\n      pop\n      pop\n      pop\n      pop\n      swap3\n      pop\n      swap3\n      pop\n      swap3\n      pop\n      swap3\n      pop\n        /* \"solidity_100/81-90.sol\":1834:1981  function getPerson() public view returns(string memory, uint, address) {... */\n      swap1\n      swap2\n      swap3\n      jump\t// out\n        /* \"solidity_100/81-90.sol\":1504:1826  function setPerson(string memory _name) public {... */\n    tag_17:\n        /* \"solidity_100/81-90.sol\":1562:1579  person storage p1 */\n      0x00\n        /* \"solidity_100/81-90.sol\":1582:1588  people */\n      dup1\n        /* \"solidity_100/81-90.sol\":1582:1595  people.push() */\n      0x01\n      dup2\n      0x01\n      dup2\n      sload\n      add\n      dup1\n      dup3\n      sstore\n      dup1\n      swap2\n      pop\n      pop\n      sub\n      swap1\n      0x00\n      mstore\n      keccak256(0x00, 0x20)\n      swap1\n      0x04\n      mul\n      add\n        /* \"solidity_100/81-90.sol\":1562:1595  person storage p1 = people.push() */\n      swap1\n      pop\n        /* \"solidity_100/81-90.sol\":1616:1621  _name */\n      dup2\n        /* \"solidity_100/81-90.sol\":1606:1608  p1 */\n      dup2\n        /* \"solidity_100/81-90.sol\":1606:1613  p1.name */\n      0x00\n      add\n        /* \"solidity_100/81-90.sol\":1606:1621  p1.name = _name */\n      swap1\n      dup2\n      tag_46\n      swap2\n      swap1\n      tag_47\n      jump\t// in\n    tag_46:\n      pop\n        /* \"solidity_100/81-90.sol\":1658:1659  1 */\n      0x01\n        /* \"solidity_100/81-90.sol\":1644:1650  people */\n      0x00\n        /* \"solidity_100/81-90.sol\":1644:1657  people.length */\n      dup1\n      sload\n      swap1\n      pop\n        /* \"solidity_100/81-90.sol\":1644:1659  people.length+1 */\n      tag_48\n      swap2\n      swap1\n      tag_49\n      jump\t// in\n    tag_48:\n        /* \"solidity_100/81-90.sol\":1632:1634  p1 */\n      dup2\n        /* \"solidity_100/81-90.sol\":1632:1641  p1.number */\n      0x01\n      add\n        /* \"solidity_100/81-90.sol\":1632:1659  p1.number = people.length+1 */\n      dup2\n      swap1\n      sstore\n      pop\n        /* \"solidity_100/81-90.sol\":1682:1692  msg.sender */\n      caller\n        /* \"solidity_100/81-90.sol\":1670:1672  p1 */\n      dup2\n        /* \"solidity_100/81-90.sol\":1670:1679  p1.wallet */\n      0x02\n      add\n      0x00\n        /* \"solidity_100/81-90.sol\":1670:1692  p1.wallet = msg.sender */\n      0x0100\n      exp\n      dup2\n      sload\n      dup2\n      0xffffffffffffffffffffffffffffffffffffffff\n      mul\n      not\n      and\n      swap1\n      dup4\n      0xffffffffffffffffffffffffffffffffffffffff\n      and\n      mul\n      or\n      swap1\n      sstore\n      pop\n        /* \"solidity_100/81-90.sol\":1730:1735  _name */\n      dup2\n        /* \"solidity_100/81-90.sol\":1703:1705  p1 */\n      dup2\n        /* \"solidity_100/81-90.sol\":1703:1712  p1.myName */\n      0x03\n      add\n        /* \"solidity_100/81-90.sol\":1703:1727  p1.myName[people.length] */\n      0x00\n        /* \"solidity_100/81-90.sol\":1713:1719  people */\n      dup1\n        /* \"solidity_100/81-90.sol\":1713:1726  people.length */\n      dup1\n      sload\n      swap1\n      pop\n        /* \"solidity_100/81-90.sol\":1703:1727  p1.myName[people.length] */\n      dup2\n      mstore\n      0x20\n      add\n      swap1\n      dup2\n      mstore\n      0x20\n      add\n      0x00\n      keccak256\n        /* \"solidity_100/81-90.sol\":1703:1735  p1.myName[people.length] = _name */\n      swap1\n      dup2\n      tag_50\n      swap2\n      swap1\n      tag_47\n      jump\t// in\n    tag_50:\n      pop\n        /* \"solidity_100/81-90.sol\":1551:1826  {... */\n      pop\n        /* \"solidity_100/81-90.sol\":1504:1826  function setPerson(string memory _name) public {... */\n      pop\n      jump\t// out\n        /* \"#utility.yul\":7:106   */\n    tag_51:\n        /* \"#utility.yul\":59:65   */\n      0x00\n        /* \"#utility.yul\":93:98   */\n      dup2\n        /* \"#utility.yul\":87:99   */\n      mload\n        /* \"#utility.yul\":77:99   */\n      swap1\n      pop\n        /* \"#utility.yul\":7:106   */\n      swap2\n      swap1\n      pop\n      jump\t// out\n        /* \"#utility.yul\":112:281   */\n    tag_52:\n        /* \"#utility.yul\":196:207   */\n      0x00\n        /* \"#utility.yul\":230:236   */\n      dup3\n        /* \"#utility.yul\":225:228   */\n      dup3\n        /* \"#utility.yul\":218:237   */\n      mstore\n        /* \"#utility.yul\":270:274   */\n      0x20\n        /* \"#utility.yul\":265:268   */\n      dup3\n        /* \"#utility.yul\":261:275   */\n      add\n        /* \"#utility.yul\":246:275   */\n      swap1\n      pop\n        /* \"#utility.yul\":112:281   */\n      swap3\n      swap2\n      pop\n      pop\n      jump\t// out\n        /* \"#utility.yul\":287:426   */\n    tag_53:\n        /* \"#utility.yul\":376:382   */\n      dup3\n        /* \"#utility.yul\":371:374   */\n      dup2\n        /* \"#utility.yul\":366:369   */\n      dup4\n        /* \"#utility.yul\":360:383   */\n      mcopy\n        /* \"#utility.yul\":417:418   */\n      0x00\n        /* \"#utility.yul\":408:414   */\n      dup4\n        /* \"#utility.yul\":403:406   */\n      dup4\n        /* \"#utility.yul\":399:415   */\n      add\n        /* \"#utility.yul\":392:419   */\n      mstore\n        /* \"#utility.yul\":287:426   */\n      pop\n      pop\n      pop\n      jump\t// out\n        /* \"#utility.yul\":432:534   */\n    tag_54:\n        /* \"#utility.yul\":473:479   */\n      0x00\n        /* \"#utility.yul\":524:526   */\n      0x1f\n        /* \"#utility.yul\":520:527   */\n      not\n        /* \"#utility.yul\":515:517   */\n      0x1f\n        /* \"#utility.yul\":508:513   */\n      dup4\n        /* \"#utility.yul\":504:518   */\n      add\n        /* \"#utility.yul\":500:528   */\n      and\n        /* \"#utility.yul\":490:528   */\n      swap1\n      pop\n        /* \"#utility.yul\":432:534   */\n      swap2\n      swap1\n      pop\n      jump\t// out\n        /* \"#utility.yul\":540:917   */\n    tag_55:\n        /* \"#utility.yul\":628:631   */\n      0x00\n        /* \"#utility.yul\":656:695   */\n      tag_96\n        /* \"#utility.yul\":689:694   */\n      dup3\n        /* \"#utility.yul\":656:695   */\n      tag_51\n      jump\t// in\n    tag_96:\n        /* \"#utility.yul\":711:782   */\n      tag_97\n        /* \"#utility.yul\":775:781   */\n      dup2\n        /* \"#utility.yul\":770:773   */\n      dup6\n        /* \"#utility.yul\":711:782   */\n      tag_52\n      jump\t// in\n    tag_97:\n        /* \"#utility.yul\":704:782   */\n      swap4\n      pop\n        /* \"#utility.yul\":791:856   */\n      tag_98\n        /* \"#utility.yul\":849:855   */\n      dup2\n        /* \"#utility.yul\":844:847   */\n      dup6\n        /* \"#utility.yul\":837:841   */\n      0x20\n        /* \"#utility.yul\":830:835   */\n      dup7\n        /* \"#utility.yul\":826:842   */\n      add\n        /* \"#utility.yul\":791:856   */\n      tag_53\n      jump\t// in\n    tag_98:\n        /* \"#utility.yul\":881:910   */\n      tag_99\n        /* \"#utility.yul\":903:909   */\n      dup2\n        /* \"#utility.yul\":881:910   */\n      tag_54\n      jump\t// in\n    tag_99:\n        /* \"#utility.yul\":876:879   */\n      dup5\n        /* \"#utility.yul\":872:911   */\n      add\n        /* \"#utility.yul\":865:911   */\n      swap2\n      pop\n        /* \"#utility.yul\":632:917   */\n      pop\n        /* \"#utility.yul\":540:917   */\n      swap3\n      swap2\n      pop\n      pop\n      jump\t// out\n        /* \"#utility.yul\":923:1236   */\n    tag_9:\n        /* \"#utility.yul\":1036:1040   */\n      0x00\n        /* \"#utility.yul\":1074:1076   */\n      0x20\n        /* \"#utility.yul\":1063:1072   */\n      dup3\n        /* \"#utility.yul\":1059:1077   */\n      add\n        /* \"#utility.yul\":1051:1077   */\n      swap1\n      pop\n        /* \"#utility.yul\":1123:1132   */\n      dup2\n        /* \"#utility.yul\":1117:1121   */\n      dup2\n        /* \"#utility.yul\":1113:1133   */\n      sub\n        /* \"#utility.yul\":1109:1110   */\n      0x00\n        /* \"#utility.yul\":1098:1107   */\n      dup4\n        /* \"#utility.yul\":1094:1111   */\n      add\n        /* \"#utility.yul\":1087:1134   */\n      mstore\n        /* \"#utility.yul\":1151:1229   */\n      tag_101\n        /* \"#utility.yul\":1224:1228   */\n      dup2\n        /* \"#utility.yul\":1215:1221   */\n      dup5\n        /* \"#utility.yul\":1151:1229   */\n      tag_55\n      jump\t// in\n    tag_101:\n        /* \"#utility.yul\":1143:1229   */\n      swap1\n      pop\n        /* \"#utility.yul\":923:1236   */\n      swap3\n      swap2\n      pop\n      pop\n      jump\t// out\n        /* \"#utility.yul\":1242:1319   */\n    tag_56:\n        /* \"#utility.yul\":1279:1286   */\n      0x00\n        /* \"#utility.yul\":1308:1313   */\n      dup2\n        /* \"#utility.yul\":1297:1313   */\n      swap1\n      pop\n        /* \"#utility.yul\":1242:1319   */\n      swap2\n      swap1\n      pop\n      jump\t// out\n        /* \"#utility.yul\":1325:1443   */\n    tag_57:\n        /* \"#utility.yul\":1412:1436   */\n      tag_104\n        /* \"#utility.yul\":1430:1435   */\n      dup2\n        /* \"#utility.yul\":1412:1436   */\n      tag_56\n      jump\t// in\n    tag_104:\n        /* \"#utility.yul\":1407:1410   */\n      dup3\n        /* \"#utility.yul\":1400:1437   */\n      mstore\n        /* \"#utility.yul\":1325:1443   */\n      pop\n      pop\n      jump\t// out\n        /* \"#utility.yul\":1449:1575   */\n    tag_58:\n        /* \"#utility.yul\":1486:1493   */\n      0x00\n        /* \"#utility.yul\":1526:1568   */\n      0xffffffffffffffffffffffffffffffffffffffff\n        /* \"#utility.yul\":1519:1524   */\n      dup3\n        /* \"#utility.yul\":1515:1569   */\n      and\n        /* \"#utility.yul\":1504:1569   */\n      swap1\n      pop\n        /* \"#utility.yul\":1449:1575   */\n      swap2\n      swap1\n      pop\n      jump\t// out\n        /* \"#utility.yul\":1581:1677   */\n    tag_59:\n        /* \"#utility.yul\":1618:1625   */\n      0x00\n        /* \"#utility.yul\":1647:1671   */\n      tag_107\n        /* \"#utility.yul\":1665:1670   */\n      dup3\n        /* \"#utility.yul\":1647:1671   */\n      tag_58\n      jump\t// in\n    tag_107:\n        /* \"#utility.yul\":1636:1671   */\n      swap1\n      pop\n        /* \"#utility.yul\":1581:1677   */\n      swap2\n      swap1\n      pop\n      jump\t// out\n        /* \"#utility.yul\":1683:1801   */\n    tag_60:\n        /* \"#utility.yul\":1770:1794   */\n      tag_109\n        /* \"#utility.yul\":1788:1793   */\n      dup2\n        /* \"#utility.yul\":1770:1794   */\n      tag_59\n      jump\t// in\n    tag_109:\n        /* \"#utility.yul\":1765:1768   */\n      dup3\n        /* \"#utility.yul\":1758:1795   */\n      mstore\n        /* \"#utility.yul\":1683:1801   */\n      pop\n      pop\n      jump\t// out\n        /* \"#utility.yul\":1807:2340   */\n    tag_13:\n        /* \"#utility.yul\":1976:1980   */\n      0x00\n        /* \"#utility.yul\":2014:2016   */\n      0x60\n        /* \"#utility.yul\":2003:2012   */\n      dup3\n        /* \"#utility.yul\":1999:2017   */\n      add\n        /* \"#utility.yul\":1991:2017   */\n      swap1\n      pop\n        /* \"#utility.yul\":2063:2072   */\n      dup2\n        /* \"#utility.yul\":2057:2061   */\n      dup2\n        /* \"#utility.yul\":2053:2073   */\n      sub\n        /* \"#utility.yul\":2049:2050   */\n      0x00\n        /* \"#utility.yul\":2038:2047   */\n      dup4\n        /* \"#utility.yul\":2034:2051   */\n      add\n        /* \"#utility.yul\":2027:2074   */\n      mstore\n        /* \"#utility.yul\":2091:2169   */\n      tag_111\n        /* \"#utility.yul\":2164:2168   */\n      dup2\n        /* \"#utility.yul\":2155:2161   */\n      dup7\n        /* \"#utility.yul\":2091:2169   */\n      tag_55\n      jump\t// in\n    tag_111:\n        /* \"#utility.yul\":2083:2169   */\n      swap1\n      pop\n        /* \"#utility.yul\":2179:2251   */\n      tag_112\n        /* \"#utility.yul\":2247:2249   */\n      0x20\n        /* \"#utility.yul\":2236:2245   */\n      dup4\n        /* \"#utility.yul\":2232:2250   */\n      add\n        /* \"#utility.yul\":2223:2229   */\n      dup6\n        /* \"#utility.yul\":2179:2251   */\n      tag_57\n      jump\t// in\n    tag_112:\n        /* \"#utility.yul\":2261:2333   */\n      tag_113\n        /* \"#utility.yul\":2329:2331   */\n      0x40\n        /* \"#utility.yul\":2318:2327   */\n      dup4\n        /* \"#utility.yul\":2314:2332   */\n      add\n        /* \"#utility.yul\":2305:2311   */\n      dup5\n        /* \"#utility.yul\":2261:2333   */\n      tag_60\n      jump\t// in\n    tag_113:\n        /* \"#utility.yul\":1807:2340   */\n      swap5\n      swap4\n      pop\n      pop\n      pop\n      pop\n      jump\t// out\n        /* \"#utility.yul\":2346:2421   */\n    tag_61:\n        /* \"#utility.yul\":2379:2385   */\n      0x00\n        /* \"#utility.yul\":2412:2414   */\n      0x40\n        /* \"#utility.yul\":2406:2415   */\n      mload\n        /* \"#utility.yul\":2396:2415   */\n      swap1\n      pop\n        /* \"#utility.yul\":2346:2421   */\n      swap1\n      jump\t// out\n        /* \"#utility.yul\":2427:2544   */\n    tag_62:\n        /* \"#utility.yul\":2536:2537   */\n      0x00\n        /* \"#utility.yul\":2533:2534   */\n      dup1\n        /* \"#utility.yul\":2526:2538   */\n      revert\n        /* \"#utility.yul\":2550:2667   */\n    tag_63:\n        /* \"#utility.yul\":2659:2660   */\n      0x00\n        /* \"#utility.yul\":2656:2657   */\n      dup1\n        /* \"#utility.yul\":2649:2661   */\n      revert\n        /* \"#utility.yul\":2673:2790   */\n    tag_64:\n        /* \"#utility.yul\":2782:2783   */\n      0x00\n        /* \"#utility.yul\":2779:2780   */\n      dup1\n        /* \"#utility.yul\":2772:2784   */\n      revert\n        /* \"#utility.yul\":2796:2913   */\n    tag_65:\n        /* \"#utility.yul\":2905:2906   */\n      0x00\n        /* \"#utility.yul\":2902:2903   */\n      dup1\n        /* \"#utility.yul\":2895:2907   */\n      revert\n        /* \"#utility.yul\":2919:3099   */\n    tag_66:\n        /* \"#utility.yul\":2967:3044   */\n      0x4e487b7100000000000000000000000000000000000000000000000000000000\n        /* \"#utility.yul\":2964:2965   */\n      0x00\n        /* \"#utility.yul\":2957:3045   */\n      mstore\n        /* \"#utility.yul\":3064:3068   */\n      0x41\n        /* \"#utility.yul\":3061:3062   */\n      0x04\n        /* \"#utility.yul\":3054:3069   */\n      mstore\n        /* \"#utility.yul\":3088:3092   */\n      0x24\n        /* \"#utility.yul\":3085:3086   */\n      0x00\n        /* \"#utility.yul\":3078:3093   */\n      revert\n        /* \"#utility.yul\":3105:3386   */\n    tag_67:\n        /* \"#utility.yul\":3188:3215   */\n      tag_121\n        /* \"#utility.yul\":3210:3214   */\n      dup3\n        /* \"#utility.yul\":3188:3215   */\n      tag_54\n      jump\t// in\n    tag_121:\n        /* \"#utility.yul\":3180:3186   */\n      dup2\n        /* \"#utility.yul\":3176:3216   */\n      add\n        /* \"#utility.yul\":3318:3324   */\n      dup2\n        /* \"#utility.yul\":3306:3316   */\n      dup2\n        /* \"#utility.yul\":3303:3325   */\n      lt\n        /* \"#utility.yul\":3282:3300   */\n      0xffffffffffffffff\n        /* \"#utility.yul\":3270:3280   */\n      dup3\n        /* \"#utility.yul\":3267:3301   */\n      gt\n        /* \"#utility.yul\":3264:3326   */\n      or\n        /* \"#utility.yul\":3261:3349   */\n      iszero\n      tag_122\n      jumpi\n        /* \"#utility.yul\":3329:3347   */\n      tag_123\n      tag_66\n      jump\t// in\n    tag_123:\n        /* \"#utility.yul\":3261:3349   */\n    tag_122:\n        /* \"#utility.yul\":3369:3379   */\n      dup1\n        /* \"#utility.yul\":3365:3367   */\n      0x40\n        /* \"#utility.yul\":3358:3380   */\n      mstore\n        /* \"#utility.yul\":3148:3386   */\n      pop\n        /* \"#utility.yul\":3105:3386   */\n      pop\n      pop\n      jump\t// out\n        /* \"#utility.yul\":3392:3521   */\n    tag_68:\n        /* \"#utility.yul\":3426:3432   */\n      0x00\n        /* \"#utility.yul\":3453:3473   */\n      tag_125\n      tag_61\n      jump\t// in\n    tag_125:\n        /* \"#utility.yul\":3443:3473   */\n      swap1\n      pop\n        /* \"#utility.yul\":3482:3515   */\n      tag_126\n        /* \"#utility.yul\":3510:3514   */\n      dup3\n        /* \"#utility.yul\":3502:3508   */\n      dup3\n        /* \"#utility.yul\":3482:3515   */\n      tag_67\n      jump\t// in\n    tag_126:\n        /* \"#utility.yul\":3392:3521   */\n      swap2\n      swap1\n      pop\n      jump\t// out\n        /* \"#utility.yul\":3527:3835   */\n    tag_69:\n        /* \"#utility.yul\":3589:3593   */\n      0x00\n        /* \"#utility.yul\":3679:3697   */\n      0xffffffffffffffff\n        /* \"#utility.yul\":3671:3677   */\n      dup3\n        /* \"#utility.yul\":3668:3698   */\n      gt\n        /* \"#utility.yul\":3665:3721   */\n      iszero\n      tag_128\n      jumpi\n        /* \"#utility.yul\":3701:3719   */\n      tag_129\n      tag_66\n      jump\t// in\n    tag_129:\n        /* \"#utility.yul\":3665:3721   */\n    tag_128:\n        /* \"#utility.yul\":3739:3768   */\n      tag_130\n        /* \"#utility.yul\":3761:3767   */\n      dup3\n        /* \"#utility.yul\":3739:3768   */\n      tag_54\n      jump\t// in\n    tag_130:\n        /* \"#utility.yul\":3731:3768   */\n      swap1\n      pop\n        /* \"#utility.yul\":3823:3827   */\n      0x20\n        /* \"#utility.yul\":3817:3821   */\n      dup2\n        /* \"#utility.yul\":3813:3828   */\n      add\n        /* \"#utility.yul\":3805:3828   */\n      swap1\n      pop\n        /* \"#utility.yul\":3527:3835   */\n      swap2\n      swap1\n      pop\n      jump\t// out\n        /* \"#utility.yul\":3841:3989   */\n    tag_70:\n        /* \"#utility.yul\":3939:3945   */\n      dup3\n        /* \"#utility.yul\":3934:3937   */\n      dup2\n        /* \"#utility.yul\":3929:3932   */\n      dup4\n        /* \"#utility.yul\":3916:3946   */\n      calldatacopy\n        /* \"#utility.yul\":3980:3981   */\n      0x00\n        /* \"#utility.yul\":3971:3977   */\n      dup4\n        /* \"#utility.yul\":3966:3969   */\n      dup4\n        /* \"#utility.yul\":3962:3978   */\n      add\n        /* \"#utility.yul\":3955:3982   */\n      mstore\n        /* \"#utility.yul\":3841:3989   */\n      pop\n      pop\n      pop\n      jump\t// out\n        /* \"#utility.yul\":3995:4420   */\n    tag_71:\n        /* \"#utility.yul\":4073:4078   */\n      0x00\n        /* \"#utility.yul\":4098:4164   */\n      tag_133\n        /* \"#utility.yul\":4114:4163   */\n      tag_134\n        /* \"#utility.yul\":4156:4162   */\n      dup5\n        /* \"#utility.yul\":4114:4163   */\n      tag_69\n      jump\t// in\n    tag_134:\n        /* \"#utility.yul\":4098:4164   */\n      tag_68\n      jump\t// in\n    tag_133:\n        /* \"#utility.yul\":4089:4164   */\n      swap1\n      pop\n        /* \"#utility.yul\":4187:4193   */\n      dup3\n        /* \"#utility.yul\":4180:4185   */\n      dup2\n        /* \"#utility.yul\":4173:4194   */\n      mstore\n        /* \"#utility.yul\":4225:4229   */\n      0x20\n        /* \"#utility.yul\":4218:4223   */\n      dup2\n        /* \"#utility.yul\":4214:4230   */\n      add\n        /* \"#utility.yul\":4263:4266   */\n      dup5\n        /* \"#utility.yul\":4254:4260   */\n      dup5\n        /* \"#utility.yul\":4249:4252   */\n      dup5\n        /* \"#utility.yul\":4245:4261   */\n      add\n        /* \"#utility.yul\":4242:4267   */\n      gt\n        /* \"#utility.yul\":4239:4351   */\n      iszero\n      tag_135\n      jumpi\n        /* \"#utility.yul\":4270:4349   */\n      tag_136\n      tag_65\n      jump\t// in\n    tag_136:\n        /* \"#utility.yul\":4239:4351   */\n    tag_135:\n        /* \"#utility.yul\":4360:4414   */\n      tag_137\n        /* \"#utility.yul\":4407:4413   */\n      dup5\n        /* \"#utility.yul\":4402:4405   */\n      dup3\n        /* \"#utility.yul\":4397:4400   */\n      dup6\n        /* \"#utility.yul\":4360:4414   */\n      tag_70\n      jump\t// in\n    tag_137:\n        /* \"#utility.yul\":4079:4420   */\n      pop\n        /* \"#utility.yul\":3995:4420   */\n      swap4\n      swap3\n      pop\n      pop\n      pop\n      jump\t// out\n        /* \"#utility.yul\":4440:4780   */\n    tag_72:\n        /* \"#utility.yul\":4496:4501   */\n      0x00\n        /* \"#utility.yul\":4545:4548   */\n      dup3\n        /* \"#utility.yul\":4538:4542   */\n      0x1f\n        /* \"#utility.yul\":4530:4536   */\n      dup4\n        /* \"#utility.yul\":4526:4543   */\n      add\n        /* \"#utility.yul\":4522:4549   */\n      slt\n        /* \"#utility.yul\":4512:4634   */\n      tag_139\n      jumpi\n        /* \"#utility.yul\":4553:4632   */\n      tag_140\n      tag_64\n      jump\t// in\n    tag_140:\n        /* \"#utility.yul\":4512:4634   */\n    tag_139:\n        /* \"#utility.yul\":4670:4676   */\n      dup2\n        /* \"#utility.yul\":4657:4677   */\n      calldataload\n        /* \"#utility.yul\":4695:4774   */\n      tag_141\n        /* \"#utility.yul\":4770:4773   */\n      dup5\n        /* \"#utility.yul\":4762:4768   */\n      dup3\n        /* \"#utility.yul\":4755:4759   */\n      0x20\n        /* \"#utility.yul\":4747:4753   */\n      dup7\n        /* \"#utility.yul\":4743:4760   */\n      add\n        /* \"#utility.yul\":4695:4774   */\n      tag_71\n      jump\t// in\n    tag_141:\n        /* \"#utility.yul\":4686:4774   */\n      swap2\n      pop\n        /* \"#utility.yul\":4502:4780   */\n      pop\n        /* \"#utility.yul\":4440:4780   */\n      swap3\n      swap2\n      pop\n      pop\n      jump\t// out\n        /* \"#utility.yul\":4786:5295   */\n    tag_16:\n        /* \"#utility.yul\":4855:4861   */\n      0x00\n        /* \"#utility.yul\":4904:4906   */\n      0x20\n        /* \"#utility.yul\":4892:4901   */\n      dup3\n        /* \"#utility.yul\":4883:4890   */\n      dup5\n        /* \"#utility.yul\":4879:4902   */\n      sub\n        /* \"#utility.yul\":4875:4907   */\n      slt\n        /* \"#utility.yul\":4872:4991   */\n      iszero\n      tag_143\n      jumpi\n        /* \"#utility.yul\":4910:4989   */\n      tag_144\n      tag_62\n      jump\t// in\n    tag_144:\n        /* \"#utility.yul\":4872:4991   */\n    tag_143:\n        /* \"#utility.yul\":5058:5059   */\n      0x00\n        /* \"#utility.yul\":5047:5056   */\n      dup3\n        /* \"#utility.yul\":5043:5060   */\n      add\n        /* \"#utility.yul\":5030:5061   */\n      calldataload\n        /* \"#utility.yul\":5088:5106   */\n      0xffffffffffffffff\n        /* \"#utility.yul\":5080:5086   */\n      dup2\n        /* \"#utility.yul\":5077:5107   */\n      gt\n        /* \"#utility.yul\":5074:5191   */\n      iszero\n      tag_145\n      jumpi\n        /* \"#utility.yul\":5110:5189   */\n      tag_146\n      tag_63\n      jump\t// in\n    tag_146:\n        /* \"#utility.yul\":5074:5191   */\n    tag_145:\n        /* \"#utility.yul\":5215:5278   */\n      tag_147\n        /* \"#utility.yul\":5270:5277   */\n      dup5\n        /* \"#utility.yul\":5261:5267   */\n      dup3\n        /* \"#utility.yul\":5250:5259   */\n      dup6\n        /* \"#utility.yul\":5246:5268   */\n      add\n        /* \"#utility.yul\":5215:5278   */\n      tag_72\n      jump\t// in\n    tag_147:\n        /* \"#utility.yul\":5205:5278   */\n      swap2\n      pop\n        /* \"#utility.yul\":5001:5288   */\n      pop\n        /* \"#utility.yul\":4786:5295   */\n      swap3\n      swap2\n      pop\n      pop\n      jump\t// out\n        /* \"#utility.yul\":5301:5481   */\n    tag_21:\n        /* \"#utility.yul\":5349:5426   */\n      0x4e487b7100000000000000000000000000000000000000000000000000000000\n        /* \"#utility.yul\":5346:5347   */\n      0x00\n        /* \"#utility.yul\":5339:5427   */\n      mstore\n        /* \"#utility.yul\":5446:5450   */\n      0x32\n        /* \"#utility.yul\":5443:5444   */\n      0x04\n        /* \"#utility.yul\":5436:5451   */\n      mstore\n        /* \"#utility.yul\":5470:5474   */\n      0x24\n        /* \"#utility.yul\":5467:5468   */\n      0x00\n        /* \"#utility.yul\":5460:5475   */\n      revert\n        /* \"#utility.yul\":5487:5667   */\n    tag_73:\n        /* \"#utility.yul\":5535:5612   */\n      0x4e487b7100000000000000000000000000000000000000000000000000000000\n        /* \"#utility.yul\":5532:5533   */\n      0x00\n        /* \"#utility.yul\":5525:5613   */\n      mstore\n        /* \"#utility.yul\":5632:5636   */\n      0x22\n        /* \"#utility.yul\":5629:5630   */\n      0x04\n        /* \"#utility.yul\":5622:5637   */\n      mstore\n        /* \"#utility.yul\":5656:5660   */\n      0x24\n        /* \"#utility.yul\":5653:5654   */\n      0x00\n        /* \"#utility.yul\":5646:5661   */\n      revert\n        /* \"#utility.yul\":5673:5993   */\n    tag_24:\n        /* \"#utility.yul\":5717:5723   */\n      0x00\n        /* \"#utility.yul\":5754:5755   */\n      0x02\n        /* \"#utility.yul\":5748:5752   */\n      dup3\n        /* \"#utility.yul\":5744:5756   */\n      div\n        /* \"#utility.yul\":5734:5756   */\n      swap1\n      pop\n        /* \"#utility.yul\":5801:5802   */\n      0x01\n        /* \"#utility.yul\":5795:5799   */\n      dup3\n        /* \"#utility.yul\":5791:5803   */\n      and\n        /* \"#utility.yul\":5822:5840   */\n      dup1\n        /* \"#utility.yul\":5812:5893   */\n      tag_151\n      jumpi\n        /* \"#utility.yul\":5878:5882   */\n      0x7f\n        /* \"#utility.yul\":5870:5876   */\n      dup3\n        /* \"#utility.yul\":5866:5883   */\n      and\n        /* \"#utility.yul\":5856:5883   */\n      swap2\n      pop\n        /* \"#utility.yul\":5812:5893   */\n    tag_151:\n        /* \"#utility.yul\":5940:5942   */\n      0x20\n        /* \"#utility.yul\":5932:5938   */\n      dup3\n        /* \"#utility.yul\":5929:5943   */\n      lt\n        /* \"#utility.yul\":5909:5927   */\n      dup2\n        /* \"#utility.yul\":5906:5944   */\n      sub\n        /* \"#utility.yul\":5903:5987   */\n      tag_152\n      jumpi\n        /* \"#utility.yul\":5959:5977   */\n      tag_153\n      tag_73\n      jump\t// in\n    tag_153:\n        /* \"#utility.yul\":5903:5987   */\n    tag_152:\n        /* \"#utility.yul\":5724:5993   */\n      pop\n        /* \"#utility.yul\":5673:5993   */\n      swap2\n      swap1\n      pop\n      jump\t// out\n        /* \"#utility.yul\":5999:6140   */\n    tag_74:\n        /* \"#utility.yul\":6048:6052   */\n      0x00\n        /* \"#utility.yul\":6071:6074   */\n      dup2\n        /* \"#utility.yul\":6063:6074   */\n      swap1\n      pop\n        /* \"#utility.yul\":6094:6097   */\n      dup2\n        /* \"#utility.yul\":6091:6092   */\n      0x00\n        /* \"#utility.yul\":6084:6098   */\n      mstore\n        /* \"#utility.yul\":6128:6132   */\n      0x20\n        /* \"#utility.yul\":6125:6126   */\n      0x00\n        /* \"#utility.yul\":6115:6133   */\n      keccak256\n        /* \"#utility.yul\":6107:6133   */\n      swap1\n      pop\n        /* \"#utility.yul\":5999:6140   */\n      swap2\n      swap1\n      pop\n      jump\t// out\n        /* \"#utility.yul\":6146:6239   */\n    tag_75:\n        /* \"#utility.yul\":6183:6189   */\n      0x00\n        /* \"#utility.yul\":6230:6232   */\n      0x20\n        /* \"#utility.yul\":6225:6227   */\n      0x1f\n        /* \"#utility.yul\":6218:6223   */\n      dup4\n        /* \"#utility.yul\":6214:6228   */\n      add\n        /* \"#utility.yul\":6210:6233   */\n      div\n        /* \"#utility.yul\":6200:6233   */\n      swap1\n      pop\n        /* \"#utility.yul\":6146:6239   */\n      swap2\n      swap1\n      pop\n      jump\t// out\n        /* \"#utility.yul\":6245:6352   */\n    tag_76:\n        /* \"#utility.yul\":6289:6297   */\n      0x00\n        /* \"#utility.yul\":6339:6344   */\n      dup3\n        /* \"#utility.yul\":6333:6337   */\n      dup3\n        /* \"#utility.yul\":6329:6345   */\n      shl\n        /* \"#utility.yul\":6308:6345   */\n      swap1\n      pop\n        /* \"#utility.yul\":6245:6352   */\n      swap3\n      swap2\n      pop\n      pop\n      jump\t// out\n        /* \"#utility.yul\":6358:6751   */\n    tag_77:\n        /* \"#utility.yul\":6427:6433   */\n      0x00\n        /* \"#utility.yul\":6477:6478   */\n      0x08\n        /* \"#utility.yul\":6465:6475   */\n      dup4\n        /* \"#utility.yul\":6461:6479   */\n      mul\n        /* \"#utility.yul\":6500:6597   */\n      tag_158\n        /* \"#utility.yul\":6530:6596   */\n      0xffffffffffffffffffffffffffffffffffffffffffffffffffffffffffffffff\n        /* \"#utility.yul\":6519:6528   */\n      dup3\n        /* \"#utility.yul\":6500:6597   */\n      tag_76\n      jump\t// in\n    tag_158:\n        /* \"#utility.yul\":6618:6657   */\n      tag_159\n        /* \"#utility.yul\":6648:6656   */\n      dup7\n        /* \"#utility.yul\":6637:6646   */\n      dup4\n        /* \"#utility.yul\":6618:6657   */\n      tag_76\n      jump\t// in\n    tag_159:\n        /* \"#utility.yul\":6606:6657   */\n      swap6\n      pop\n        /* \"#utility.yul\":6690:6694   */\n      dup1\n        /* \"#utility.yul\":6686:6695   */\n      not\n        /* \"#utility.yul\":6679:6684   */\n      dup5\n        /* \"#utility.yul\":6675:6696   */\n      and\n        /* \"#utility.yul\":6666:6696   */\n      swap4\n      pop\n        /* \"#utility.yul\":6739:6743   */\n      dup1\n        /* \"#utility.yul\":6729:6737   */\n      dup7\n        /* \"#utility.yul\":6725:6744   */\n      and\n        /* \"#utility.yul\":6718:6723   */\n      dup5\n        /* \"#utility.yul\":6715:6745   */\n      or\n        /* \"#utility.yul\":6705:6745   */\n      swap3\n      pop\n        /* \"#utility.yul\":6434:6751   */\n      pop\n      pop\n        /* \"#utility.yul\":6358:6751   */\n      swap4\n      swap3\n      pop\n      pop\n      pop\n      jump\t// out\n        /* \"#utility.yul\":6757:6817   */\n    tag_78:\n        /* \"#utility.yul\":6785:6788   */\n      0x00\n        /* \"#utility.yul\":6806:6811   */\n      dup2\n        /* \"#utility.yul\":6799:6811   */\n      swap1\n      pop\n        /* \"#utility.yul\":6757:6817   */\n      swap2\n      swap1\n      pop\n      jump\t// out\n        /* \"#utility.yul\":6823:6965   */\n    tag_79:\n        /* \"#utility.yul\":6873:6882   */\n      0x00\n        /* \"#utility.yul\":6906:6959   */\n      tag_162\n        /* \"#utility.yul\":6924:6958   */\n      tag_163\n        /* \"#utility.yul\":6933:6957   */\n      tag_164\n        /* \"#utility.yul\":6951:6956   */\n      dup5\n        /* \"#utility.yul\":6933:6957   */\n      tag_56\n      jump\t// in\n    tag_164:\n        /* \"#utility.yul\":6924:6958   */\n      tag_78\n      jump\t// in\n    tag_163:\n        /* \"#utility.yul\":6906:6959   */\n      tag_56\n      jump\t// in\n    tag_162:\n        /* \"#utility.yul\":6893:6959   */\n      swap1\n      pop\n        /* \"#utility.yul\":6823:6965   */\n      swap2\n      swap1\n      pop\n      jump\t// out\n        /* \"#utility.yul\":6971:7046   */\n    tag_80:\n        /* \"#utility.yul\":7014:7017   */\n      0x00\n        /* \"#utility.yul\":7035:7040   */\n      dup2\n        /* \"#utility.yul\":7028:7040   */\n      swap1\n      pop\n        /* \"#utility.yul\":6971:7046   */\n      swap2\n      swap1\n      pop\n      jump\t// out\n        /* \"#utility.yul\":7052:7321   */\n    tag_81:\n        /* \"#utility.yul\":7162:7201   */\n      tag_167\n        /* \"#utility.yul\":7193:7200   */\n      dup4\n        /* \"#utility.yul\":7162:7201   */\n      tag_79\n      jump\t// in\n    tag_167:\n        /* \"#utility.yul\":7223:7314   */\n      tag_168\n        /* \"#utility.yul\":7272:7313   */\n      tag_169\n        /* \"#utility.yul\":7296:7312   */\n      dup3\n        /* \"#utility.yul\":7272:7313   */\n      tag_80\n      jump\t// in\n    tag_169:\n        /* \"#utility.yul\":7264:7270   */\n      dup5\n        /* \"#utility.yul\":7257:7261   */\n      dup5\n        /* \"#utility.yul\":7251:7262   */\n      sload\n        /* \"#utility.yul\":7223:7314   */\n      tag_77\n      jump\t// in\n    tag_168:\n        /* \"#utility.yul\":7217:7221   */\n      dup3\n        /* \"#utility.yul\":7210:7315   */\n      sstore\n        /* \"#utility.yul\":7128:7321   */\n      pop\n        /* \"#utility.yul\":7052:7321   */\n      pop\n      pop\n      pop\n      jump\t// out\n        /* \"#utility.yul\":7327:7400   */\n    tag_82:\n        /* \"#utility.yul\":7372:7375   */\n      0x00\n        /* \"#utility.yul\":7327:7400   */\n      swap1\n      jump\t// out\n        /* \"#utility.yul\":7406:7595   */\n    tag_83:\n        /* \"#utility.yul\":7483:7515   */\n      tag_172\n      tag_82\n      jump\t// in\n    tag_172:\n        /* \"#utility.yul\":7524:7589   */\n      tag_173\n        /* \"#utility.yul\":7582:7588   */\n      dup2\n        /* \"#utility.yul\":7574:7580   */\n      dup5\n        /* \"#utility.yul\":7568:7572   */\n      dup5\n        /* \"#utility.yul\":7524:7589   */\n      tag_81\n      jump\t// in\n    tag_173:\n        /* \"#utility.yul\":7459:7595   */\n      pop\n        /* \"#utility.yul\":7406:7595   */\n      pop\n      pop\n      jump\t// out\n        /* \"#utility.yul\":7601:7787   */\n    tag_84:\n        /* \"#utility.yul\":7661:7781   */\n    tag_175:\n        /* \"#utility.yul\":7678:7681   */\n      dup2\n        /* \"#utility.yul\":7671:7676   */\n      dup2\n        /* \"#utility.yul\":7668:7682   */\n      lt\n        /* \"#utility.yul\":7661:7781   */\n      iszero\n      tag_177\n      jumpi\n        /* \"#utility.yul\":7732:7771   */\n      tag_178\n        /* \"#utility.yul\":7769:7770   */\n      0x00\n        /* \"#utility.yul\":7762:7767   */\n      dup3\n        /* \"#utility.yul\":7732:7771   */\n      tag_83\n      jump\t// in\n    tag_178:\n        /* \"#utility.yul\":7705:7706   */\n      0x01\n        /* \"#utility.yul\":7698:7703   */\n      dup2\n        /* \"#utility.yul\":7694:7707   */\n      add\n        /* \"#utility.yul\":7685:7707   */\n      swap1\n      pop\n        /* \"#utility.yul\":7661:7781   */\n      jump(tag_175)\n    tag_177:\n        /* \"#utility.yul\":7601:7787   */\n      pop\n      pop\n      jump\t// out\n        /* \"#utility.yul\":7793:8336   */\n    tag_85:\n        /* \"#utility.yul\":7894:7896   */\n      0x1f\n        /* \"#utility.yul\":7889:7892   */\n      dup3\n        /* \"#utility.yul\":7886:7897   */\n      gt\n        /* \"#utility.yul\":7883:8329   */\n      iszero\n      tag_180\n      jumpi\n        /* \"#utility.yul\":7928:7966   */\n      tag_181\n        /* \"#utility.yul\":7960:7965   */\n      dup2\n        /* \"#utility.yul\":7928:7966   */\n      tag_74\n      jump\t// in\n    tag_181:\n        /* \"#utility.yul\":8012:8041   */\n      tag_182\n        /* \"#utility.yul\":8030:8040   */\n      dup5\n        /* \"#utility.yul\":8012:8041   */\n      tag_75\n      jump\t// in\n    tag_182:\n        /* \"#utility.yul\":8002:8010   */\n      dup2\n        /* \"#utility.yul\":7998:8042   */\n      add\n        /* \"#utility.yul\":8195:8197   */\n      0x20\n        /* \"#utility.yul\":8183:8193   */\n      dup6\n        /* \"#utility.yul\":8180:8198   */\n      lt\n        /* \"#utility.yul\":8177:8226   */\n      iszero\n      tag_183\n      jumpi\n        /* \"#utility.yul\":8216:8224   */\n      dup2\n        /* \"#utility.yul\":8201:8224   */\n      swap1\n      pop\n        /* \"#utility.yul\":8177:8226   */\n    tag_183:\n        /* \"#utility.yul\":8239:8319   */\n      tag_184\n        /* \"#utility.yul\":8295:8317   */\n      tag_185\n        /* \"#utility.yul\":8313:8316   */\n      dup6\n        /* \"#utility.yul\":8295:8317   */\n      tag_75\n      jump\t// in\n    tag_185:\n        /* \"#utility.yul\":8285:8293   */\n      dup4\n        /* \"#utility.yul\":8281:8318   */\n      add\n        /* \"#utility.yul\":8268:8279   */\n      dup3\n        /* \"#utility.yul\":8239:8319   */\n      tag_84\n      jump\t// in\n    tag_184:\n        /* \"#utility.yul\":7898:8329   */\n      pop\n      pop\n        /* \"#utility.yul\":7883:8329   */\n    tag_180:\n        /* \"#utility.yul\":7793:8336   */\n      pop\n      pop\n      pop\n      jump\t// out\n        /* \"#utility.yul\":8342:8459   */\n    tag_86:\n        /* \"#utility.yul\":8396:8404   */\n      0x00\n        /* \"#utility.yul\":8446:8451   */\n      dup3\n        /* \"#utility.yul\":8440:8444   */\n      dup3\n        /* \"#utility.yul\":8436:8452   */\n      shr\n        /* \"#utility.yul\":8415:8452   */\n      swap1\n      pop\n        /* \"#utility.yul\":8342:8459   */\n      swap3\n      swap2\n      pop\n      pop\n      jump\t// out\n        /* \"#utility.yul\":8465:8634   */\n    tag_87:\n        /* \"#utility.yul\":8509:8515   */\n      0x00\n        /* \"#utility.yul\":8542:8593   */\n      tag_188\n        /* \"#utility.yul\":8590:8591   */\n      0x00\n        /* \"#utility.yul\":8586:8592   */\n      not\n        /* \"#utility.yul\":8578:8583   */\n      dup5\n        /* \"#utility.yul\":8575:8576   */\n      0x08\n        /* \"#utility.yul\":8571:8584   */\n      mul\n        /* \"#utility.yul\":8542:8593   */\n      tag_86\n      jump\t// in\n    tag_188:\n        /* \"#utility.yul\":8538:8594   */\n      not\n        /* \"#utility.yul\":8623:8627   */\n      dup1\n        /* \"#utility.yul\":8617:8621   */\n      dup4\n        /* \"#utility.yul\":8613:8628   */\n      and\n        /* \"#utility.yul\":8603:8628   */\n      swap2\n      pop\n        /* \"#utility.yul\":8516:8634   */\n      pop\n        /* \"#utility.yul\":8465:8634   */\n      swap3\n      swap2\n      pop\n      pop\n      jump\t// out\n        /* \"#utility.yul\":8639:8934   */\n    tag_88:\n        /* \"#utility.yul\":8715:8719   */\n      0x00\n        /* \"#utility.yul\":8861:8890   */\n      tag_190\n        /* \"#utility.yul\":8886:8889   */\n      dup4\n        /* \"#utility.yul\":8880:8884   */\n      dup4\n        /* \"#utility.yul\":8861:8890   */\n      tag_87\n      jump\t// in\n    tag_190:\n        /* \"#utility.yul\":8853:8890   */\n      swap2\n      pop\n        /* \"#utility.yul\":8923:8926   */\n      dup3\n        /* \"#utility.yul\":8920:8921   */\n      0x02\n        /* \"#utility.yul\":8916:8927   */\n      mul\n        /* \"#utility.yul\":8910:8914   */\n      dup3\n        /* \"#utility.yul\":8907:8928   */\n      or\n        /* \"#utility.yul\":8899:8928   */\n      swap1\n      pop\n        /* \"#utility.yul\":8639:8934   */\n      swap3\n      swap2\n      pop\n      pop\n      jump\t// out\n        /* \"#utility.yul\":8939:10334   */\n    tag_47:\n        /* \"#utility.yul\":9056:9093   */\n      tag_192\n        /* \"#utility.yul\":9089:9092   */\n      dup3\n        /* \"#utility.yul\":9056:9093   */\n      tag_51\n      jump\t// in\n    tag_192:\n        /* \"#utility.yul\":9158:9176   */\n      0xffffffffffffffff\n        /* \"#utility.yul\":9150:9156   */\n      dup2\n        /* \"#utility.yul\":9147:9177   */\n      gt\n        /* \"#utility.yul\":9144:9200   */\n      iszero\n      tag_193\n      jumpi\n        /* \"#utility.yul\":9180:9198   */\n      tag_194\n      tag_66\n      jump\t// in\n    tag_194:\n        /* \"#utility.yul\":9144:9200   */\n    tag_193:\n        /* \"#utility.yul\":9224:9262   */\n      tag_195\n        /* \"#utility.yul\":9256:9260   */\n      dup3\n        /* \"#utility.yul\":9250:9261   */\n      sload\n        /* \"#utility.yul\":9224:9262   */\n      tag_24\n      jump\t// in\n    tag_195:\n        /* \"#utility.yul\":9309:9376   */\n      tag_196\n        /* \"#utility.yul\":9369:9375   */\n      dup3\n        /* \"#utility.yul\":9361:9367   */\n      dup3\n        /* \"#utility.yul\":9355:9359   */\n      dup6\n        /* \"#utility.yul\":9309:9376   */\n      tag_85\n      jump\t// in\n    tag_196:\n        /* \"#utility.yul\":9403:9404   */\n      0x00\n        /* \"#utility.yul\":9427:9431   */\n      0x20\n        /* \"#utility.yul\":9414:9431   */\n      swap1\n      pop\n        /* \"#utility.yul\":9459:9461   */\n      0x1f\n        /* \"#utility.yul\":9451:9457   */\n      dup4\n        /* \"#utility.yul\":9448:9462   */\n      gt\n        /* \"#utility.yul\":9476:9477   */\n      0x01\n        /* \"#utility.yul\":9471:10089   */\n      dup2\n      eq\n      tag_198\n      jumpi\n        /* \"#utility.yul\":10133:10134   */\n      0x00\n        /* \"#utility.yul\":10150:10156   */\n      dup5\n        /* \"#utility.yul\":10147:10224   */\n      iszero\n      tag_199\n      jumpi\n        /* \"#utility.yul\":10199:10208   */\n      dup3\n        /* \"#utility.yul\":10194:10197   */\n      dup8\n        /* \"#utility.yul\":10190:10209   */\n      add\n        /* \"#utility.yul\":10184:10210   */\n      mload\n        /* \"#utility.yul\":10175:10210   */\n      swap1\n      pop\n        /* \"#utility.yul\":10147:10224   */\n    tag_199:\n        /* \"#utility.yul\":10250:10317   */\n      tag_200\n        /* \"#utility.yul\":10310:10316   */\n      dup6\n        /* \"#utility.yul\":10303:10308   */\n      dup3\n        /* \"#utility.yul\":10250:10317   */\n      tag_88\n      jump\t// in\n    tag_200:\n        /* \"#utility.yul\":10244:10248   */\n      dup7\n        /* \"#utility.yul\":10237:10318   */\n      sstore\n        /* \"#utility.yul\":10106:10328   */\n      pop\n        /* \"#utility.yul\":9441:10328   */\n      jump(tag_197)\n        /* \"#utility.yul\":9471:10089   */\n    tag_198:\n        /* \"#utility.yul\":9523:9527   */\n      0x1f\n        /* \"#utility.yul\":9519:9528   */\n      not\n        /* \"#utility.yul\":9511:9517   */\n      dup5\n        /* \"#utility.yul\":9507:9529   */\n      and\n        /* \"#utility.yul\":9557:9594   */\n      tag_201\n        /* \"#utility.yul\":9589:9593   */\n      dup7\n        /* \"#utility.yul\":9557:9594   */\n      tag_74\n      jump\t// in\n    tag_201:\n        /* \"#utility.yul\":9616:9617   */\n      0x00\n        /* \"#utility.yul\":9630:9838   */\n    tag_202:\n        /* \"#utility.yul\":9644:9651   */\n      dup3\n        /* \"#utility.yul\":9641:9642   */\n      dup2\n        /* \"#utility.yul\":9638:9652   */\n      lt\n        /* \"#utility.yul\":9630:9838   */\n      iszero\n      tag_204\n      jumpi\n        /* \"#utility.yul\":9723:9732   */\n      dup5\n        /* \"#utility.yul\":9718:9721   */\n      dup10\n        /* \"#utility.yul\":9714:9733   */\n      add\n        /* \"#utility.yul\":9708:9734   */\n      mload\n        /* \"#utility.yul\":9700:9706   */\n      dup3\n        /* \"#utility.yul\":9693:9735   */\n      sstore\n        /* \"#utility.yul\":9774:9775   */\n      0x01\n        /* \"#utility.yul\":9766:9772   */\n      dup3\n        /* \"#utility.yul\":9762:9776   */\n      add\n        /* \"#utility.yul\":9752:9776   */\n      swap2\n      pop\n        /* \"#utility.yul\":9821:9823   */\n      0x20\n        /* \"#utility.yul\":9810:9819   */\n      dup6\n        /* \"#utility.yul\":9806:9824   */\n      add\n        /* \"#utility.yul\":9793:9824   */\n      swap5\n      pop\n        /* \"#utility.yul\":9667:9671   */\n      0x20\n        /* \"#utility.yul\":9664:9665   */\n      dup2\n        /* \"#utility.yul\":9660:9672   */\n      add\n        /* \"#utility.yul\":9655:9672   */\n      swap1\n      pop\n        /* \"#utility.yul\":9630:9838   */\n      jump(tag_202)\n    tag_204:\n        /* \"#utility.yul\":9866:9872   */\n      dup7\n        /* \"#utility.yul\":9857:9864   */\n      dup4\n        /* \"#utility.yul\":9854:9873   */\n      lt\n        /* \"#utility.yul\":9851:10030   */\n      iszero\n      tag_205\n      jumpi\n        /* \"#utility.yul\":9924:9933   */\n      dup5\n        /* \"#utility.yul\":9919:9922   */\n      dup10\n        /* \"#utility.yul\":9915:9934   */\n      add\n        /* \"#utility.yul\":9909:9935   */\n      mload\n        /* \"#utility.yul\":9967:10015   */\n      tag_206\n        /* \"#utility.yul\":10009:10013   */\n      0x1f\n        /* \"#utility.yul\":10001:10007   */\n      dup10\n        /* \"#utility.yul\":9997:10014   */\n      and\n        /* \"#utility.yul\":9986:9995   */\n      dup3\n        /* \"#utility.yul\":9967:10015   */\n      tag_87\n      jump\t// in\n    tag_206:\n        /* \"#utility.yul\":9959:9965   */\n      dup4\n        /* \"#utility.yul\":9952:10016   */\n      sstore\n        /* \"#utility.yul\":9874:10030   */\n      pop\n        /* \"#utility.yul\":9851:10030   */\n    tag_205:\n        /* \"#utility.yul\":10076:10077   */\n      0x01\n        /* \"#utility.yul\":10072:10073   */\n      0x02\n        /* \"#utility.yul\":10064:10070   */\n      dup9\n        /* \"#utility.yul\":10060:10074   */\n      mul\n        /* \"#utility.yul\":10056:10078   */\n      add\n        /* \"#utility.yul\":10050:10054   */\n      dup9\n        /* \"#utility.yul\":10043:10079   */\n      sstore\n        /* \"#utility.yul\":9478:10089   */\n      pop\n      pop\n      pop\n        /* \"#utility.yul\":9441:10328   */\n    tag_197:\n      pop\n        /* \"#utility.yul\":9031:10334   */\n      pop\n      pop\n      pop\n        /* \"#utility.yul\":8939:10334   */\n      pop\n      pop\n      jump\t// out\n        /* \"#utility.yul\":10340:10520   */\n    tag_89:\n        /* \"#utility.yul\":10388:10465   */\n      0x4e487b7100000000000000000000000000000000000000000000000000000000\n        /* \"#utility.yul\":10385:10386   */\n      0x00\n        /* \"#utility.yul\":10378:10466   */\n      mstore\n        /* \"#utility.yul\":10485:10489   */\n      0x11\n        /* \"#utility.yul\":10482:10483   */\n      0x04\n        /* \"#utility.yul\":10475:10490   */\n      mstore\n        /* \"#utility.yul\":10509:10513   */\n      0x24\n        /* \"#utility.yul\":10506:10507   */\n      0x00\n        /* \"#utility.yul\":10499:10514   */\n      revert\n        /* \"#utility.yul\":10526:10717   */\n    tag_49:\n        /* \"#utility.yul\":10566:10569   */\n      0x00\n        /* \"#utility.yul\":10585:10605   */\n      tag_209\n        /* \"#utility.yul\":10603:10604   */\n      dup3\n        /* \"#utility.yul\":10585:10605   */\n      tag_56\n      jump\t// in\n    tag_209:\n        /* \"#utility.yul\":10580:10605   */\n      swap2\n      pop\n        /* \"#utility.yul\":10619:10639   */\n      tag_210\n        /* \"#utility.yul\":10637:10638   */\n      dup4\n        /* \"#utility.yul\":10619:10639   */\n      tag_56\n      jump\t// in\n    tag_210:\n        /* \"#utility.yul\":10614:10639   */\n      swap3\n      pop\n        /* \"#utility.yul\":10662:10663   */\n      dup3\n        /* \"#utility.yul\":10659:10660   */\n      dup3\n        /* \"#utility.yul\":10655:10664   */\n      add\n        /* \"#utility.yul\":10648:10664   */\n      swap1\n      pop\n        /* \"#utility.yul\":10683:10686   */\n      dup1\n        /* \"#utility.yul\":10680:10681   */\n      dup3\n        /* \"#utility.yul\":10677:10687   */\n      gt\n        /* \"#utility.yul\":10674:10710   */\n      iszero\n      tag_211\n      jumpi\n        /* \"#utility.yul\":10690:10708   */\n      tag_212\n      tag_89\n      jump\t// in\n    tag_212:\n        /* \"#utility.yul\":10674:10710   */\n    tag_211:\n        /* \"#utility.yul\":10526:10717   */\n      swap3\n      swap2\n      pop\n      pop\n      jump\t// out\n\n    auxdata: 0xa26469706673582212207f4b550025290ac7f74e3357a9ba48d19708791348698247f138b7c0543e864864736f6c63430008190033\n}\n",
				"bytecode": {
					"linkReferences": {},
					"object": "6080604052348015600e575f80fd5b506109678061001c5f395ff3fe608060405234801561000f575f80fd5b506004361061003f575f3560e01c80630727e388146100435780638ec4dc95146100615780639ba0ccfe14610081575b5f80fd5b61004b61009d565b60405161005891906103a4565b60405180910390f35b610069610160565b6040516100789392919061041b565b60405180910390f35b61009b60048036038101906100969190610594565b61027f565b005b60605f80815481106100b2576100b16105db565b5b905f5260205f2090600402016003015f808054905081526020019081526020015f2080546100df90610635565b80601f016020809104026020016040519081016040528092919081815260200182805461010b90610635565b80156101565780601f1061012d57610100808354040283529160200191610156565b820191905f5260205f20905b81548152906001019060200180831161013957829003601f168201915b5050505050905090565b60605f805f8081548110610177576101766105db565b5b905f5260205f2090600402015f015f8081548110610198576101976105db565b5b905f5260205f209060040201600101545f80815481106101bb576101ba6105db565b5b905f5260205f2090600402016002015f9054906101000a900473ffffffffffffffffffffffffffffffffffffffff168280546101f690610635565b80601f016020809104026020016040519081016040528092919081815260200182805461022290610635565b801561026d5780601f106102445761010080835404028352916020019161026d565b820191905f5260205f20905b81548152906001019060200180831161025057829003601f168201915b50505050509250925092509250909192565b5f8060018160018154018082558091505003905f5260205f209060040201905081815f0190816102af9190610802565b5060015f805490506102c191906108fe565b816001018190555033816002015f6101000a81548173ffffffffffffffffffffffffffffffffffffffff021916908373ffffffffffffffffffffffffffffffffffffffff16021790555081816003015f808054905081526020019081526020015f20908161032f9190610802565b505050565b5f81519050919050565b5f82825260208201905092915050565b8281835e5f83830152505050565b5f601f19601f8301169050919050565b5f61037682610334565b610380818561033e565b935061039081856020860161034e565b6103998161035c565b840191505092915050565b5f6020820190508181035f8301526103bc818461036c565b905092915050565b5f819050919050565b6103d6816103c4565b82525050565b5f73ffffffffffffffffffffffffffffffffffffffff82169050919050565b5f610405826103dc565b9050919050565b610415816103fb565b82525050565b5f6060820190508181035f830152610433818661036c565b905061044260208301856103cd565b61044f604083018461040c565b949350505050565b5f604051905090565b5f80fd5b5f80fd5b5f80fd5b5f80fd5b7f4e487b71000000000000000000000000000000000000000000000000000000005f52604160045260245ffd5b6104a68261035c565b810181811067ffffffffffffffff821117156104c5576104c4610470565b5b80604052505050565b5f6104d7610457565b90506104e3828261049d565b919050565b5f67ffffffffffffffff82111561050257610501610470565b5b61050b8261035c565b9050602081019050919050565b828183375f83830152505050565b5f610538610533846104e8565b6104ce565b9050828152602081018484840111156105545761055361046c565b5b61055f848285610518565b509392505050565b5f82601f83011261057b5761057a610468565b5b813561058b848260208601610526565b91505092915050565b5f602082840312156105a9576105a8610460565b5b5f82013567ffffffffffffffff8111156105c6576105c5610464565b5b6105d284828501610567565b91505092915050565b7f4e487b71000000000000000000000000000000000000000000000000000000005f52603260045260245ffd5b7f4e487b71000000000000000000000000000000000000000000000000000000005f52602260045260245ffd5b5f600282049050600182168061064c57607f821691505b60208210810361065f5761065e610608565b5b50919050565b5f819050815f5260205f209050919050565b5f6020601f8301049050919050565b5f82821b905092915050565b5f600883026106c17fffffffffffffffffffffffffffffffffffffffffffffffffffffffffffffffff82610686565b6106cb8683610686565b95508019841693508086168417925050509392505050565b5f819050919050565b5f6107066107016106fc846103c4565b6106e3565b6103c4565b9050919050565b5f819050919050565b61071f836106ec565b61073361072b8261070d565b848454610692565b825550505050565b5f90565b61074761073b565b610752818484610716565b505050565b5b818110156107755761076a5f8261073f565b600181019050610758565b5050565b601f8211156107ba5761078b81610665565b61079484610677565b810160208510156107a3578190505b6107b76107af85610677565b830182610757565b50505b505050565b5f82821c905092915050565b5f6107da5f19846008026107bf565b1980831691505092915050565b5f6107f283836107cb565b9150826002028217905092915050565b61080b82610334565b67ffffffffffffffff81111561082457610823610470565b5b61082e8254610635565b610839828285610779565b5f60209050601f83116001811461086a575f8415610858578287015190505b61086285826107e7565b8655506108c9565b601f19841661087886610665565b5f5b8281101561089f5784890151825560018201915060208501945060208101905061087a565b868310156108bc57848901516108b8601f8916826107cb565b8355505b6001600288020188555050505b505050505050565b7f4e487b71000000000000000000000000000000000000000000000000000000005f52601160045260245ffd5b5f610908826103c4565b9150610913836103c4565b925082820190508082111561092b5761092a6108d1565b5b9291505056fea26469706673582212207f4b550025290ac7f74e3357a9ba48d19708791348698247f138b7c0543e864864736f6c63430008190033",
					"opcodes": "PUSH1 0x80 PUSH1 0x40 MSTORE CALLVALUE DUP1 ISZERO PUSH1 0xE JUMPI PUSH0 DUP1 REVERT JUMPDEST POP PUSH2 0x967 DUP1 PUSH2 0x1C PUSH0 CODECOPY PUSH0 RETURN INVALID PUSH1 0x80 PUSH1 0x40 MSTORE CALLVALUE DUP1 ISZERO PUSH2 0xF JUMPI PUSH0 DUP1 REVERT JUMPDEST POP PUSH1 0x4 CALLDATASIZE LT PUSH2 0x3F JUMPI PUSH0 CALLDATALOAD PUSH1 0xE0 SHR DUP1 PUSH4 0x727E388 EQ PUSH2 0x43 JUMPI DUP1 PUSH4 0x8EC4DC95 EQ PUSH2 0x61 JUMPI DUP1 PUSH4 0x9BA0CCFE EQ PUSH2 0x81 JUMPI JUMPDEST PUSH0 DUP1 REVERT JUMPDEST PUSH2 0x4B PUSH2 0x9D JUMP JUMPDEST PUSH1 0x40 MLOAD PUSH2 0x58 SWAP2 SWAP1 PUSH2 0x3A4 JUMP JUMPDEST PUSH1 0x40 MLOAD DUP1 SWAP2 SUB SWAP1 RETURN JUMPDEST PUSH2 0x69 PUSH2 0x160 JUMP JUMPDEST PUSH1 0x40 MLOAD PUSH2 0x78 SWAP4 SWAP3 SWAP2 SWAP1 PUSH2 0x41B JUMP JUMPDEST PUSH1 0x40 MLOAD DUP1 SWAP2 SUB SWAP1 RETURN JUMPDEST PUSH2 0x9B PUSH1 0x4 DUP1 CALLDATASIZE SUB DUP2 ADD SWAP1 PUSH2 0x96 SWAP2 SWAP1 PUSH2 0x594 JUMP JUMPDEST PUSH2 0x27F JUMP JUMPDEST STOP JUMPDEST PUSH1 0x60 PUSH0 DUP1 DUP2 SLOAD DUP2 LT PUSH2 0xB2 JUMPI PUSH2 0xB1 PUSH2 0x5DB JUMP JUMPDEST JUMPDEST SWAP1 PUSH0 MSTORE PUSH1 0x20 PUSH0 KECCAK256 SWAP1 PUSH1 0x4 MUL ADD PUSH1 0x3 ADD PUSH0 DUP1 DUP1 SLOAD SWAP1 POP DUP2 MSTORE PUSH1 0x20 ADD SWAP1 DUP2 MSTORE PUSH1 0x20 ADD PUSH0 KECCAK256 DUP1 SLOAD PUSH2 0xDF SWAP1 PUSH2 0x635 JUMP JUMPDEST DUP1 PUSH1 0x1F ADD PUSH1 0x20 DUP1 SWAP2 DIV MUL PUSH1 0x20 ADD PUSH1 0x40 MLOAD SWAP1 DUP2 ADD PUSH1 0x40 MSTORE DUP1 SWAP3 SWAP2 SWAP1 DUP2 DUP2 MSTORE PUSH1 0x20 ADD DUP3 DUP1 SLOAD PUSH2 0x10B SWAP1 PUSH2 0x635 JUMP JUMPDEST DUP1 ISZERO PUSH2 0x156 JUMPI DUP1 PUSH1 0x1F LT PUSH2 0x12D JUMPI PUSH2 0x100 DUP1 DUP4 SLOAD DIV MUL DUP4 MSTORE SWAP2 PUSH1 0x20 ADD SWAP2 PUSH2 0x156 JUMP JUMPDEST DUP3 ADD SWAP2 SWAP1 PUSH0 MSTORE PUSH1 0x20 PUSH0 KECCAK256 SWAP1 JUMPDEST DUP2 SLOAD DUP2 MSTORE SWAP1 PUSH1 0x1 ADD SWAP1 PUSH1 0x20 ADD DUP1 DUP4 GT PUSH2 0x139 JUMPI DUP3 SWAP1 SUB PUSH1 0x1F AND DUP3 ADD SWAP2 JUMPDEST POP POP POP POP POP SWAP1 POP SWAP1 JUMP JUMPDEST PUSH1 0x60 PUSH0 DUP1 PUSH0 DUP1 DUP2 SLOAD DUP2 LT PUSH2 0x177 JUMPI PUSH2 0x176 PUSH2 0x5DB JUMP JUMPDEST JUMPDEST SWAP1 PUSH0 MSTORE PUSH1 0x20 PUSH0 KECCAK256 SWAP1 PUSH1 0x4 MUL ADD PUSH0 ADD PUSH0 DUP1 DUP2 SLOAD DUP2 LT PUSH2 0x198 JUMPI PUSH2 0x197 PUSH2 0x5DB JUMP JUMPDEST JUMPDEST SWAP1 PUSH0 MSTORE PUSH1 0x20 PUSH0 KECCAK256 SWAP1 PUSH1 0x4 MUL ADD PUSH1 0x1 ADD SLOAD PUSH0 DUP1 DUP2 SLOAD DUP2 LT PUSH2 0x1BB JUMPI PUSH2 0x1BA PUSH2 0x5DB JUMP JUMPDEST JUMPDEST SWAP1 PUSH0 MSTORE PUSH1 0x20 PUSH0 KECCAK256 SWAP1 PUSH1 0x4 MUL ADD PUSH1 0x2 ADD PUSH0 SWAP1 SLOAD SWAP1 PUSH2 0x100 EXP SWAP1 DIV PUSH20 0xFFFFFFFFFFFFFFFFFFFFFFFFFFFFFFFFFFFFFFFF AND DUP3 DUP1 SLOAD PUSH2 0x1F6 SWAP1 PUSH2 0x635 JUMP JUMPDEST DUP1 PUSH1 0x1F ADD PUSH1 0x20 DUP1 SWAP2 DIV MUL PUSH1 0x20 ADD PUSH1 0x40 MLOAD SWAP1 DUP2 ADD PUSH1 0x40 MSTORE DUP1 SWAP3 SWAP2 SWAP1 DUP2 DUP2 MSTORE PUSH1 0x20 ADD DUP3 DUP1 SLOAD PUSH2 0x222 SWAP1 PUSH2 0x635 JUMP JUMPDEST DUP1 ISZERO PUSH2 0x26D JUMPI DUP1 PUSH1 0x1F LT PUSH2 0x244 JUMPI PUSH2 0x100 DUP1 DUP4 SLOAD DIV MUL DUP4 MSTORE SWAP2 PUSH1 0x20 ADD SWAP2 PUSH2 0x26D JUMP JUMPDEST DUP3 ADD SWAP2 SWAP1 PUSH0 MSTORE PUSH1 0x20 PUSH0 KECCAK256 SWAP1 JUMPDEST DUP2 SLOAD DUP2 MSTORE SWAP1 PUSH1 0x1 ADD SWAP1 PUSH1 0x20 ADD DUP1 DUP4 GT PUSH2 0x250 JUMPI DUP3 SWAP1 SUB PUSH1 0x1F AND DUP3 ADD SWAP2 JUMPDEST POP POP POP POP POP SWAP3 POP SWAP3 POP SWAP3 POP SWAP3 POP SWAP1 SWAP2 SWAP3 JUMP JUMPDEST PUSH0 DUP1 PUSH1 0x1 DUP2 PUSH1 0x1 DUP2 SLOAD ADD DUP1 DUP3 SSTORE DUP1 SWAP2 POP POP SUB SWAP1 PUSH0 MSTORE PUSH1 0x20 PUSH0 KECCAK256 SWAP1 PUSH1 0x4 MUL ADD SWAP1 POP DUP2 DUP2 PUSH0 ADD SWAP1 DUP2 PUSH2 0x2AF SWAP2 SWAP1 PUSH2 0x802 JUMP JUMPDEST POP PUSH1 0x1 PUSH0 DUP1 SLOAD SWAP1 POP PUSH2 0x2C1 SWAP2 SWAP1 PUSH2 0x8FE JUMP JUMPDEST DUP2 PUSH1 0x1 ADD DUP2 SWAP1 SSTORE POP CALLER DUP2 PUSH1 0x2 ADD PUSH0 PUSH2 0x100 EXP DUP2 SLOAD DUP2 PUSH20 0xFFFFFFFFFFFFFFFFFFFFFFFFFFFFFFFFFFFFFFFF MUL NOT AND SWAP1 DUP4 PUSH20 0xFFFFFFFFFFFFFFFFFFFFFFFFFFFFFFFFFFFFFFFF AND MUL OR SWAP1 SSTORE POP DUP2 DUP2 PUSH1 0x3 ADD PUSH0 DUP1 DUP1 SLOAD SWAP1 POP DUP2 MSTORE PUSH1 0x20 ADD SWAP1 DUP2 MSTORE PUSH1 0x20 ADD PUSH0 KECCAK256 SWAP1 DUP2 PUSH2 0x32F SWAP2 SWAP1 PUSH2 0x802 JUMP JUMPDEST POP POP POP JUMP JUMPDEST PUSH0 DUP2 MLOAD SWAP1 POP SWAP2 SWAP1 POP JUMP JUMPDEST PUSH0 DUP3 DUP3 MSTORE PUSH1 0x20 DUP3 ADD SWAP1 POP SWAP3 SWAP2 POP POP JUMP JUMPDEST DUP3 DUP2 DUP4 MCOPY PUSH0 DUP4 DUP4 ADD MSTORE POP POP POP JUMP JUMPDEST PUSH0 PUSH1 0x1F NOT PUSH1 0x1F DUP4 ADD AND SWAP1 POP SWAP2 SWAP1 POP JUMP JUMPDEST PUSH0 PUSH2 0x376 DUP3 PUSH2 0x334 JUMP JUMPDEST PUSH2 0x380 DUP2 DUP6 PUSH2 0x33E JUMP JUMPDEST SWAP4 POP PUSH2 0x390 DUP2 DUP6 PUSH1 0x20 DUP7 ADD PUSH2 0x34E JUMP JUMPDEST PUSH2 0x399 DUP2 PUSH2 0x35C JUMP JUMPDEST DUP5 ADD SWAP2 POP POP SWAP3 SWAP2 POP POP JUMP JUMPDEST PUSH0 PUSH1 0x20 DUP3 ADD SWAP1 POP DUP2 DUP2 SUB PUSH0 DUP4 ADD MSTORE PUSH2 0x3BC DUP2 DUP5 PUSH2 0x36C JUMP JUMPDEST SWAP1 POP SWAP3 SWAP2 POP POP JUMP JUMPDEST PUSH0 DUP2 SWAP1 POP SWAP2 SWAP1 POP JUMP JUMPDEST PUSH2 0x3D6 DUP2 PUSH2 0x3C4 JUMP JUMPDEST DUP3 MSTORE POP POP JUMP JUMPDEST PUSH0 PUSH20 0xFFFFFFFFFFFFFFFFFFFFFFFFFFFFFFFFFFFFFFFF DUP3 AND SWAP1 POP SWAP2 SWAP1 POP JUMP JUMPDEST PUSH0 PUSH2 0x405 DUP3 PUSH2 0x3DC JUMP JUMPDEST SWAP1 POP SWAP2 SWAP1 POP JUMP JUMPDEST PUSH2 0x415 DUP2 PUSH2 0x3FB JUMP JUMPDEST DUP3 MSTORE POP POP JUMP JUMPDEST PUSH0 PUSH1 0x60 DUP3 ADD SWAP1 POP DUP2 DUP2 SUB PUSH0 DUP4 ADD MSTORE PUSH2 0x433 DUP2 DUP7 PUSH2 0x36C JUMP JUMPDEST SWAP1 POP PUSH2 0x442 PUSH1 0x20 DUP4 ADD DUP6 PUSH2 0x3CD JUMP JUMPDEST PUSH2 0x44F PUSH1 0x40 DUP4 ADD DUP5 PUSH2 0x40C JUMP JUMPDEST SWAP5 SWAP4 POP POP POP POP JUMP JUMPDEST PUSH0 PUSH1 0x40 MLOAD SWAP1 POP SWAP1 JUMP JUMPDEST PUSH0 DUP1 REVERT JUMPDEST PUSH0 DUP1 REVERT JUMPDEST PUSH0 DUP1 REVERT JUMPDEST PUSH0 DUP1 REVERT JUMPDEST PUSH32 0x4E487B7100000000000000000000000000000000000000000000000000000000 PUSH0 MSTORE PUSH1 0x41 PUSH1 0x4 MSTORE PUSH1 0x24 PUSH0 REVERT JUMPDEST PUSH2 0x4A6 DUP3 PUSH2 0x35C JUMP JUMPDEST DUP2 ADD DUP2 DUP2 LT PUSH8 0xFFFFFFFFFFFFFFFF DUP3 GT OR ISZERO PUSH2 0x4C5 JUMPI PUSH2 0x4C4 PUSH2 0x470 JUMP JUMPDEST JUMPDEST DUP1 PUSH1 0x40 MSTORE POP POP POP JUMP JUMPDEST PUSH0 PUSH2 0x4D7 PUSH2 0x457 JUMP JUMPDEST SWAP1 POP PUSH2 0x4E3 DUP3 DUP3 PUSH2 0x49D JUMP JUMPDEST SWAP2 SWAP1 POP JUMP JUMPDEST PUSH0 PUSH8 0xFFFFFFFFFFFFFFFF DUP3 GT ISZERO PUSH2 0x502 JUMPI PUSH2 0x501 PUSH2 0x470 JUMP JUMPDEST JUMPDEST PUSH2 0x50B DUP3 PUSH2 0x35C JUMP JUMPDEST SWAP1 POP PUSH1 0x20 DUP2 ADD SWAP1 POP SWAP2 SWAP1 POP JUMP JUMPDEST DUP3 DUP2 DUP4 CALLDATACOPY PUSH0 DUP4 DUP4 ADD MSTORE POP POP POP JUMP JUMPDEST PUSH0 PUSH2 0x538 PUSH2 0x533 DUP5 PUSH2 0x4E8 JUMP JUMPDEST PUSH2 0x4CE JUMP JUMPDEST SWAP1 POP DUP3 DUP2 MSTORE PUSH1 0x20 DUP2 ADD DUP5 DUP5 DUP5 ADD GT ISZERO PUSH2 0x554 JUMPI PUSH2 0x553 PUSH2 0x46C JUMP JUMPDEST JUMPDEST PUSH2 0x55F DUP5 DUP3 DUP6 PUSH2 0x518 JUMP JUMPDEST POP SWAP4 SWAP3 POP POP POP JUMP JUMPDEST PUSH0 DUP3 PUSH1 0x1F DUP4 ADD SLT PUSH2 0x57B JUMPI PUSH2 0x57A PUSH2 0x468 JUMP JUMPDEST JUMPDEST DUP2 CALLDATALOAD PUSH2 0x58B DUP5 DUP3 PUSH1 0x20 DUP7 ADD PUSH2 0x526 JUMP JUMPDEST SWAP2 POP POP SWAP3 SWAP2 POP POP JUMP JUMPDEST PUSH0 PUSH1 0x20 DUP3 DUP5 SUB SLT ISZERO PUSH2 0x5A9 JUMPI PUSH2 0x5A8 PUSH2 0x460 JUMP JUMPDEST JUMPDEST PUSH0 DUP3 ADD CALLDATALOAD PUSH8 0xFFFFFFFFFFFFFFFF DUP2 GT ISZERO PUSH2 0x5C6 JUMPI PUSH2 0x5C5 PUSH2 0x464 JUMP JUMPDEST JUMPDEST PUSH2 0x5D2 DUP5 DUP3 DUP6 ADD PUSH2 0x567 JUMP JUMPDEST SWAP2 POP POP SWAP3 SWAP2 POP POP JUMP JUMPDEST PUSH32 0x4E487B7100000000000000000000000000000000000000000000000000000000 PUSH0 MSTORE PUSH1 0x32 PUSH1 0x4 MSTORE PUSH1 0x24 PUSH0 REVERT JUMPDEST PUSH32 0x4E487B7100000000000000000000000000000000000000000000000000000000 PUSH0 MSTORE PUSH1 0x22 PUSH1 0x4 MSTORE PUSH1 0x24 PUSH0 REVERT JUMPDEST PUSH0 PUSH1 0x2 DUP3 DIV SWAP1 POP PUSH1 0x1 DUP3 AND DUP1 PUSH2 0x64C JUMPI PUSH1 0x7F DUP3 AND SWAP2 POP JUMPDEST PUSH1 0x20 DUP3 LT DUP2 SUB PUSH2 0x65F JUMPI PUSH2 0x65E PUSH2 0x608 JUMP JUMPDEST JUMPDEST POP SWAP2 SWAP1 POP JUMP JUMPDEST PUSH0 DUP2 SWAP1 POP DUP2 PUSH0 MSTORE PUSH1 0x20 PUSH0 KECCAK256 SWAP1 POP SWAP2 SWAP1 POP JUMP JUMPDEST PUSH0 PUSH1 0x20 PUSH1 0x1F DUP4 ADD DIV SWAP1 POP SWAP2 SWAP1 POP JUMP JUMPDEST PUSH0 DUP3 DUP3 SHL SWAP1 POP SWAP3 SWAP2 POP POP JUMP JUMPDEST PUSH0 PUSH1 0x8 DUP4 MUL PUSH2 0x6C1 PUSH32 0xFFFFFFFFFFFFFFFFFFFFFFFFFFFFFFFFFFFFFFFFFFFFFFFFFFFFFFFFFFFFFFFF DUP3 PUSH2 0x686 JUMP JUMPDEST PUSH2 0x6CB DUP7 DUP4 PUSH2 0x686 JUMP JUMPDEST SWAP6 POP DUP1 NOT DUP5 AND SWAP4 POP DUP1 DUP7 AND DUP5 OR SWAP3 POP POP POP SWAP4 SWAP3 POP POP POP JUMP JUMPDEST PUSH0 DUP2 SWAP1 POP SWAP2 SWAP1 POP JUMP JUMPDEST PUSH0 PUSH2 0x706 PUSH2 0x701 PUSH2 0x6FC DUP5 PUSH2 0x3C4 JUMP JUMPDEST PUSH2 0x6E3 JUMP JUMPDEST PUSH2 0x3C4 JUMP JUMPDEST SWAP1 POP SWAP2 SWAP1 POP JUMP JUMPDEST PUSH0 DUP2 SWAP1 POP SWAP2 SWAP1 POP JUMP JUMPDEST PUSH2 0x71F DUP4 PUSH2 0x6EC JUMP JUMPDEST PUSH2 0x733 PUSH2 0x72B DUP3 PUSH2 0x70D JUMP JUMPDEST DUP5 DUP5 SLOAD PUSH2 0x692 JUMP JUMPDEST DUP3 SSTORE POP POP POP POP JUMP JUMPDEST PUSH0 SWAP1 JUMP JUMPDEST PUSH2 0x747 PUSH2 0x73B JUMP JUMPDEST PUSH2 0x752 DUP2 DUP5 DUP5 PUSH2 0x716 JUMP JUMPDEST POP POP POP JUMP JUMPDEST JUMPDEST DUP2 DUP2 LT ISZERO PUSH2 0x775 JUMPI PUSH2 0x76A PUSH0 DUP3 PUSH2 0x73F JUMP JUMPDEST PUSH1 0x1 DUP2 ADD SWAP1 POP PUSH2 0x758 JUMP JUMPDEST POP POP JUMP JUMPDEST PUSH1 0x1F DUP3 GT ISZERO PUSH2 0x7BA JUMPI PUSH2 0x78B DUP2 PUSH2 0x665 JUMP JUMPDEST PUSH2 0x794 DUP5 PUSH2 0x677 JUMP JUMPDEST DUP2 ADD PUSH1 0x20 DUP6 LT ISZERO PUSH2 0x7A3 JUMPI DUP2 SWAP1 POP JUMPDEST PUSH2 0x7B7 PUSH2 0x7AF DUP6 PUSH2 0x677 JUMP JUMPDEST DUP4 ADD DUP3 PUSH2 0x757 JUMP JUMPDEST POP POP JUMPDEST POP POP POP JUMP JUMPDEST PUSH0 DUP3 DUP3 SHR SWAP1 POP SWAP3 SWAP2 POP POP JUMP JUMPDEST PUSH0 PUSH2 0x7DA PUSH0 NOT DUP5 PUSH1 0x8 MUL PUSH2 0x7BF JUMP JUMPDEST NOT DUP1 DUP4 AND SWAP2 POP POP SWAP3 SWAP2 POP POP JUMP JUMPDEST PUSH0 PUSH2 0x7F2 DUP4 DUP4 PUSH2 0x7CB JUMP JUMPDEST SWAP2 POP DUP3 PUSH1 0x2 MUL DUP3 OR SWAP1 POP SWAP3 SWAP2 POP POP JUMP JUMPDEST PUSH2 0x80B DUP3 PUSH2 0x334 JUMP JUMPDEST PUSH8 0xFFFFFFFFFFFFFFFF DUP2 GT ISZERO PUSH2 0x824 JUMPI PUSH2 0x823 PUSH2 0x470 JUMP JUMPDEST JUMPDEST PUSH2 0x82E DUP3 SLOAD PUSH2 0x635 JUMP JUMPDEST PUSH2 0x839 DUP3 DUP3 DUP6 PUSH2 0x779 JUMP JUMPDEST PUSH0 PUSH1 0x20 SWAP1 POP PUSH1 0x1F DUP4 GT PUSH1 0x1 DUP2 EQ PUSH2 0x86A JUMPI PUSH0 DUP5 ISZERO PUSH2 0x858 JUMPI DUP3 DUP8 ADD MLOAD SWAP1 POP JUMPDEST PUSH2 0x862 DUP6 DUP3 PUSH2 0x7E7 JUMP JUMPDEST DUP7 SSTORE POP PUSH2 0x8C9 JUMP JUMPDEST PUSH1 0x1F NOT DUP5 AND PUSH2 0x878 DUP7 PUSH2 0x665 JUMP JUMPDEST PUSH0 JUMPDEST DUP3 DUP2 LT ISZERO PUSH2 0x89F JUMPI DUP5 DUP10 ADD MLOAD DUP3 SSTORE PUSH1 0x1 DUP3 ADD SWAP2 POP PUSH1 0x20 DUP6 ADD SWAP5 POP PUSH1 0x20 DUP2 ADD SWAP1 POP PUSH2 0x87A JUMP JUMPDEST DUP7 DUP4 LT ISZERO PUSH2 0x8BC JUMPI DUP5 DUP10 ADD MLOAD PUSH2 0x8B8 PUSH1 0x1F DUP10 AND DUP3 PUSH2 0x7CB JUMP JUMPDEST DUP4 SSTORE POP JUMPDEST PUSH1 0x1 PUSH1 0x2 DUP9 MUL ADD DUP9 SSTORE POP POP POP JUMPDEST POP POP POP POP POP POP JUMP JUMPDEST PUSH32 0x4E487B7100000000000000000000000000000000000000000000000000000000 PUSH0 MSTORE PUSH1 0x11 PUSH1 0x4 MSTORE PUSH1 0x24 PUSH0 REVERT JUMPDEST PUSH0 PUSH2 0x908 DUP3 PUSH2 0x3C4 JUMP JUMPDEST SWAP2 POP PUSH2 0x913 DUP4 PUSH2 0x3C4 JUMP JUMPDEST SWAP3 POP DUP3 DUP3 ADD SWAP1 POP DUP1 DUP3 GT ISZERO PUSH2 0x92B JUMPI PUSH2 0x92A PUSH2 0x8D1 JUMP JUMPDEST JUMPDEST SWAP3 SWAP2 POP POP JUMP INVALID LOG2 PUSH5 0x6970667358 0x22 SLT KECCAK256 PUSH32 0x4B550025290AC7F74E3357A9BA48D19708791348698247F138B7C0543E864864 PUSH20 0x6F6C634300081900330000000000000000000000 "
				},
				"gasEstimates": {
					"creation": {
						"codeDepositCost": "481400",
						"executionCost": "516",
						"totalCost": "481916"
					},
					"external": {
						"getPerson()": "infinite",
						"getPersonMyname()": "infinite",
						"setPerson(string)": "infinite"
					}
				},
				"methodIdentifiers": {
					"getPerson()": "8ec4dc95",
					"getPersonMyname()": "0727e388",
					"setPerson(string)": "9ba0ccfe"
				}
			},
			"storageLayout": {
				"storage": [
					{
						"astId": 116,
						"contract": "solidity_100/81-90.sol:Q83",
						"label": "people",
						"offset": 0,
						"slot": "0",
						"type": "t_array(t_struct(person)112_storage)dyn_storage"
					}
				],
				"types": {
					"t_address": {
						"encoding": "inplace",
						"label": "address",
						"numberOfBytes": "20"
					},
					"t_array(t_struct(person)112_storage)dyn_storage": {
						"base": "t_struct(person)112_storage",
						"encoding": "dynamic_array",
						"label": "struct Q83.person[]",
						"numberOfBytes": "32"
					},
					"t_mapping(t_uint256,t_string_storage)": {
						"encoding": "mapping",
						"key": "t_uint256",
						"label": "mapping(uint256 => string)",
						"numberOfBytes": "32",
						"value": "t_string_storage"
					},
					"t_string_storage": {
						"encoding": "bytes",
						"label": "string",
						"numberOfBytes": "32"
					},
					"t_struct(person)112_storage": {
						"encoding": "inplace",
						"label": "struct Q83.person",
						"members": [
							{
								"astId": 103,
								"contract": "solidity_100/81-90.sol:Q83",
								"label": "name",
								"offset": 0,
								"slot": "0",
								"type": "t_string_storage"
							},
							{
								"astId": 105,
								"contract": "solidity_100/81-90.sol:Q83",
								"label": "number",
								"offset": 0,
								"slot": "1",
								"type": "t_uint256"
							},
							{
								"astId": 107,
								"contract": "solidity_100/81-90.sol:Q83",
								"label": "wallet",
								"offset": 0,
								"slot": "2",
								"type": "t_address"
							},
							{
								"astId": 111,
								"contract": "solidity_100/81-90.sol:Q83",
								"label": "myName",
								"offset": 0,
								"slot": "3",
								"type": "t_mapping(t_uint256,t_string_storage)"
							}
						],
						"numberOfBytes": "128"
					},
					"t_uint256": {
						"encoding": "inplace",
						"label": "uint256",
						"numberOfBytes": "32"
					}
				}
			},
			"userdoc": {
				"kind": "user",
				"methods": {},
				"version": 1
			}
		}
	}
}