{
	"solidity_100/81-90.sol": {
		"Q85": {
			"abi": [
				{
					"inputs": [],
					"stateMutability": "nonpayable",
					"type": "constructor"
				},
				{
					"inputs": [],
					"name": "downvote",
					"outputs": [
						{
							"internalType": "uint256",
							"name": "",
							"type": "uint256"
						}
					],
					"stateMutability": "view",
					"type": "function"
				},
				{
					"inputs": [],
					"name": "downvoting",
					"outputs": [],
					"stateMutability": "nonpayable",
					"type": "function"
				},
				{
					"inputs": [],
					"name": "upvote",
					"outputs": [
						{
							"internalType": "uint256",
							"name": "",
							"type": "uint256"
						}
					],
					"stateMutability": "view",
					"type": "function"
				},
				{
					"inputs": [],
					"name": "upvoting",
					"outputs": [],
					"stateMutability": "nonpayable",
					"type": "function"
				}
			],
			"devdoc": {
				"kind": "dev",
				"methods": {},
				"version": 1
			},
			"evm": {
				"assembly": "    /* \"solidity_100/81-90.sol\":2998:3689  contract Q85 {... */\n  mstore(0x40, 0x80)\n    /* \"solidity_100/81-90.sol\":3376:3436  constructor () {... */\n  callvalue\n  dup1\n  iszero\n  tag_1\n  jumpi\n  0x00\n  dup1\n  revert\ntag_1:\n  pop\n    /* \"solidity_100/81-90.sol\":3416:3428  block.number */\n  number\n    /* \"solidity_100/81-90.sol\":3402:3413  blockNumber */\n  0x02\n    /* \"solidity_100/81-90.sol\":3402:3428  blockNumber = block.number */\n  dup2\n  swap1\n  sstore\n  pop\n    /* \"solidity_100/81-90.sol\":2998:3689  contract Q85 {... */\n  dataSize(sub_0)\n  dup1\n  dataOffset(sub_0)\n  0x00\n  codecopy\n  0x00\n  return\nstop\n\nsub_0: assembly {\n        /* \"solidity_100/81-90.sol\":2998:3689  contract Q85 {... */\n      mstore(0x40, 0x80)\n      callvalue\n      dup1\n      iszero\n      tag_1\n      jumpi\n      0x00\n      dup1\n      revert\n    tag_1:\n      pop\n      jumpi(tag_2, lt(calldatasize, 0x04))\n      shr(0xe0, calldataload(0x00))\n      dup1\n      0x5119c3e2\n      eq\n      tag_3\n      jumpi\n      dup1\n      0x92d7727c\n      eq\n      tag_4\n      jumpi\n      dup1\n      0xa8df84df\n      eq\n      tag_5\n      jumpi\n      dup1\n      0xf93b61e3\n      eq\n      tag_6\n      jumpi\n    tag_2:\n      0x00\n      dup1\n      revert\n        /* \"solidity_100/81-90.sol\":3444:3557  function upvoting() public {... */\n    tag_3:\n      tag_7\n      tag_8\n      jump\t// in\n    tag_7:\n      stop\n        /* \"solidity_100/81-90.sol\":3301:3319  uint public upvote */\n    tag_4:\n      tag_9\n      tag_10\n      jump\t// in\n    tag_9:\n      mload(0x40)\n      tag_11\n      swap2\n      swap1\n      tag_12\n      jump\t// in\n    tag_11:\n      mload(0x40)\n      dup1\n      swap2\n      sub\n      swap1\n      return\n        /* \"solidity_100/81-90.sol\":3326:3346  uint public downvote */\n    tag_5:\n      tag_13\n      tag_14\n      jump\t// in\n    tag_13:\n      mload(0x40)\n      tag_15\n      swap2\n      swap1\n      tag_12\n      jump\t// in\n    tag_15:\n      mload(0x40)\n      dup1\n      swap2\n      sub\n      swap1\n      return\n        /* \"solidity_100/81-90.sol\":3569:3686  function downvoting() public {... */\n    tag_6:\n      tag_16\n      tag_17\n      jump\t// in\n    tag_16:\n      stop\n        /* \"solidity_100/81-90.sol\":3444:3557  function upvoting() public {... */\n    tag_8:\n        /* \"solidity_100/81-90.sol\":3519:3521  21 */\n      0x15\n        /* \"solidity_100/81-90.sol\":3505:3516  blockNumber */\n      sload(0x02)\n        /* \"solidity_100/81-90.sol\":3505:3521  blockNumber + 21 */\n      tag_19\n      swap2\n      swap1\n      tag_20\n      jump\t// in\n    tag_19:\n        /* \"solidity_100/81-90.sol\":3490:3502  block.number */\n      number\n        /* \"solidity_100/81-90.sol\":3490:3521  block.number < blockNumber + 21 */\n      lt\n        /* \"solidity_100/81-90.sol\":3482:3530  require(block.number < blockNumber + 21, \"done\") */\n      tag_21\n      jumpi\n      mload(0x40)\n      0x08c379a000000000000000000000000000000000000000000000000000000000\n      dup2\n      mstore\n      0x04\n      add\n      tag_22\n      swap1\n      tag_23\n      jump\t// in\n    tag_22:\n      mload(0x40)\n      dup1\n      swap2\n      sub\n      swap1\n      revert\n    tag_21:\n        /* \"solidity_100/81-90.sol\":3541:3547  upvote */\n      0x00\n      dup1\n        /* \"solidity_100/81-90.sol\":3541:3549  upvote++ */\n      dup2\n      sload\n      dup1\n      swap3\n      swap2\n      swap1\n      tag_24\n      swap1\n      tag_25\n      jump\t// in\n    tag_24:\n      swap2\n      swap1\n      pop\n      sstore\n      pop\n        /* \"solidity_100/81-90.sol\":3444:3557  function upvoting() public {... */\n      jump\t// out\n        /* \"solidity_100/81-90.sol\":3301:3319  uint public upvote */\n    tag_10:\n      sload(0x00)\n      dup2\n      jump\t// out\n        /* \"solidity_100/81-90.sol\":3326:3346  uint public downvote */\n    tag_14:\n      sload(0x01)\n      dup2\n      jump\t// out\n        /* \"solidity_100/81-90.sol\":3569:3686  function downvoting() public {... */\n    tag_17:\n        /* \"solidity_100/81-90.sol\":3646:3648  21 */\n      0x15\n        /* \"solidity_100/81-90.sol\":3632:3643  blockNumber */\n      sload(0x02)\n        /* \"solidity_100/81-90.sol\":3632:3648  blockNumber + 21 */\n      tag_27\n      swap2\n      swap1\n      tag_20\n      jump\t// in\n    tag_27:\n        /* \"solidity_100/81-90.sol\":3617:3629  block.number */\n      number\n        /* \"solidity_100/81-90.sol\":3617:3648  block.number < blockNumber + 21 */\n      lt\n        /* \"solidity_100/81-90.sol\":3609:3657  require(block.number < blockNumber + 21, \"done\") */\n      tag_28\n      jumpi\n      mload(0x40)\n      0x08c379a000000000000000000000000000000000000000000000000000000000\n      dup2\n      mstore\n      0x04\n      add\n      tag_29\n      swap1\n      tag_23\n      jump\t// in\n    tag_29:\n      mload(0x40)\n      dup1\n      swap2\n      sub\n      swap1\n      revert\n    tag_28:\n        /* \"solidity_100/81-90.sol\":3668:3676  downvote */\n      0x01\n      0x00\n        /* \"solidity_100/81-90.sol\":3668:3678  downvote++ */\n      dup2\n      sload\n      dup1\n      swap3\n      swap2\n      swap1\n      tag_30\n      swap1\n      tag_25\n      jump\t// in\n    tag_30:\n      swap2\n      swap1\n      pop\n      sstore\n      pop\n        /* \"solidity_100/81-90.sol\":3569:3686  function downvoting() public {... */\n      jump\t// out\n        /* \"#utility.yul\":7:84   */\n    tag_31:\n        /* \"#utility.yul\":44:51   */\n      0x00\n        /* \"#utility.yul\":73:78   */\n      dup2\n        /* \"#utility.yul\":62:78   */\n      swap1\n      pop\n        /* \"#utility.yul\":7:84   */\n      swap2\n      swap1\n      pop\n      jump\t// out\n        /* \"#utility.yul\":90:208   */\n    tag_32:\n        /* \"#utility.yul\":177:201   */\n      tag_40\n        /* \"#utility.yul\":195:200   */\n      dup2\n        /* \"#utility.yul\":177:201   */\n      tag_31\n      jump\t// in\n    tag_40:\n        /* \"#utility.yul\":172:175   */\n      dup3\n        /* \"#utility.yul\":165:202   */\n      mstore\n        /* \"#utility.yul\":90:208   */\n      pop\n      pop\n      jump\t// out\n        /* \"#utility.yul\":214:436   */\n    tag_12:\n        /* \"#utility.yul\":307:311   */\n      0x00\n        /* \"#utility.yul\":345:347   */\n      0x20\n        /* \"#utility.yul\":334:343   */\n      dup3\n        /* \"#utility.yul\":330:348   */\n      add\n        /* \"#utility.yul\":322:348   */\n      swap1\n      pop\n        /* \"#utility.yul\":358:429   */\n      tag_42\n        /* \"#utility.yul\":426:427   */\n      0x00\n        /* \"#utility.yul\":415:424   */\n      dup4\n        /* \"#utility.yul\":411:428   */\n      add\n        /* \"#utility.yul\":402:408   */\n      dup5\n        /* \"#utility.yul\":358:429   */\n      tag_32\n      jump\t// in\n    tag_42:\n        /* \"#utility.yul\":214:436   */\n      swap3\n      swap2\n      pop\n      pop\n      jump\t// out\n        /* \"#utility.yul\":442:622   */\n    tag_33:\n        /* \"#utility.yul\":490:567   */\n      0x4e487b7100000000000000000000000000000000000000000000000000000000\n        /* \"#utility.yul\":487:488   */\n      0x00\n        /* \"#utility.yul\":480:568   */\n      mstore\n        /* \"#utility.yul\":587:591   */\n      0x11\n        /* \"#utility.yul\":584:585   */\n      0x04\n        /* \"#utility.yul\":577:592   */\n      mstore\n        /* \"#utility.yul\":611:615   */\n      0x24\n        /* \"#utility.yul\":608:609   */\n      0x00\n        /* \"#utility.yul\":601:616   */\n      revert\n        /* \"#utility.yul\":628:819   */\n    tag_20:\n        /* \"#utility.yul\":668:671   */\n      0x00\n        /* \"#utility.yul\":687:707   */\n      tag_45\n        /* \"#utility.yul\":705:706   */\n      dup3\n        /* \"#utility.yul\":687:707   */\n      tag_31\n      jump\t// in\n    tag_45:\n        /* \"#utility.yul\":682:707   */\n      swap2\n      pop\n        /* \"#utility.yul\":721:741   */\n      tag_46\n        /* \"#utility.yul\":739:740   */\n      dup4\n        /* \"#utility.yul\":721:741   */\n      tag_31\n      jump\t// in\n    tag_46:\n        /* \"#utility.yul\":716:741   */\n      swap3\n      pop\n        /* \"#utility.yul\":764:765   */\n      dup3\n        /* \"#utility.yul\":761:762   */\n      dup3\n        /* \"#utility.yul\":757:766   */\n      add\n        /* \"#utility.yul\":750:766   */\n      swap1\n      pop\n        /* \"#utility.yul\":785:788   */\n      dup1\n        /* \"#utility.yul\":782:783   */\n      dup3\n        /* \"#utility.yul\":779:789   */\n      gt\n        /* \"#utility.yul\":776:812   */\n      iszero\n      tag_47\n      jumpi\n        /* \"#utility.yul\":792:810   */\n      tag_48\n      tag_33\n      jump\t// in\n    tag_48:\n        /* \"#utility.yul\":776:812   */\n    tag_47:\n        /* \"#utility.yul\":628:819   */\n      swap3\n      swap2\n      pop\n      pop\n      jump\t// out\n        /* \"#utility.yul\":825:994   */\n    tag_34:\n        /* \"#utility.yul\":909:920   */\n      0x00\n        /* \"#utility.yul\":943:949   */\n      dup3\n        /* \"#utility.yul\":938:941   */\n      dup3\n        /* \"#utility.yul\":931:950   */\n      mstore\n        /* \"#utility.yul\":983:987   */\n      0x20\n        /* \"#utility.yul\":978:981   */\n      dup3\n        /* \"#utility.yul\":974:988   */\n      add\n        /* \"#utility.yul\":959:988   */\n      swap1\n      pop\n        /* \"#utility.yul\":825:994   */\n      swap3\n      swap2\n      pop\n      pop\n      jump\t// out\n        /* \"#utility.yul\":1000:1154   */\n    tag_35:\n        /* \"#utility.yul\":1140:1146   */\n      0x646f6e6500000000000000000000000000000000000000000000000000000000\n        /* \"#utility.yul\":1136:1137   */\n      0x00\n        /* \"#utility.yul\":1128:1134   */\n      dup3\n        /* \"#utility.yul\":1124:1138   */\n      add\n        /* \"#utility.yul\":1117:1147   */\n      mstore\n        /* \"#utility.yul\":1000:1154   */\n      pop\n      jump\t// out\n        /* \"#utility.yul\":1160:1525   */\n    tag_36:\n        /* \"#utility.yul\":1302:1305   */\n      0x00\n        /* \"#utility.yul\":1323:1389   */\n      tag_52\n        /* \"#utility.yul\":1387:1388   */\n      0x04\n        /* \"#utility.yul\":1382:1385   */\n      dup4\n        /* \"#utility.yul\":1323:1389   */\n      tag_34\n      jump\t// in\n    tag_52:\n        /* \"#utility.yul\":1316:1389   */\n      swap2\n      pop\n        /* \"#utility.yul\":1398:1491   */\n      tag_53\n        /* \"#utility.yul\":1487:1490   */\n      dup3\n        /* \"#utility.yul\":1398:1491   */\n      tag_35\n      jump\t// in\n    tag_53:\n        /* \"#utility.yul\":1516:1518   */\n      0x20\n        /* \"#utility.yul\":1511:1514   */\n      dup3\n        /* \"#utility.yul\":1507:1519   */\n      add\n        /* \"#utility.yul\":1500:1519   */\n      swap1\n      pop\n        /* \"#utility.yul\":1160:1525   */\n      swap2\n      swap1\n      pop\n      jump\t// out\n        /* \"#utility.yul\":1531:1950   */\n    tag_23:\n        /* \"#utility.yul\":1697:1701   */\n      0x00\n        /* \"#utility.yul\":1735:1737   */\n      0x20\n        /* \"#utility.yul\":1724:1733   */\n      dup3\n        /* \"#utility.yul\":1720:1738   */\n      add\n        /* \"#utility.yul\":1712:1738   */\n      swap1\n      pop\n        /* \"#utility.yul\":1784:1793   */\n      dup2\n        /* \"#utility.yul\":1778:1782   */\n      dup2\n        /* \"#utility.yul\":1774:1794   */\n      sub\n        /* \"#utility.yul\":1770:1771   */\n      0x00\n        /* \"#utility.yul\":1759:1768   */\n      dup4\n        /* \"#utility.yul\":1755:1772   */\n      add\n        /* \"#utility.yul\":1748:1795   */\n      mstore\n        /* \"#utility.yul\":1812:1943   */\n      tag_55\n        /* \"#utility.yul\":1938:1942   */\n      dup2\n        /* \"#utility.yul\":1812:1943   */\n      tag_36\n      jump\t// in\n    tag_55:\n        /* \"#utility.yul\":1804:1943   */\n      swap1\n      pop\n        /* \"#utility.yul\":1531:1950   */\n      swap2\n      swap1\n      pop\n      jump\t// out\n        /* \"#utility.yul\":1956:2189   */\n    tag_25:\n        /* \"#utility.yul\":1995:1998   */\n      0x00\n        /* \"#utility.yul\":2018:2042   */\n      tag_57\n        /* \"#utility.yul\":2036:2041   */\n      dup3\n        /* \"#utility.yul\":2018:2042   */\n      tag_31\n      jump\t// in\n    tag_57:\n        /* \"#utility.yul\":2009:2042   */\n      swap2\n      pop\n        /* \"#utility.yul\":2064:2130   */\n      0xffffffffffffffffffffffffffffffffffffffffffffffffffffffffffffffff\n        /* \"#utility.yul\":2057:2062   */\n      dup3\n        /* \"#utility.yul\":2054:2131   */\n      sub\n        /* \"#utility.yul\":2051:2154   */\n      tag_58\n      jumpi\n        /* \"#utility.yul\":2134:2152   */\n      tag_59\n      tag_33\n      jump\t// in\n    tag_59:\n        /* \"#utility.yul\":2051:2154   */\n    tag_58:\n        /* \"#utility.yul\":2181:2182   */\n      0x01\n        /* \"#utility.yul\":2174:2179   */\n      dup3\n        /* \"#utility.yul\":2170:2183   */\n      add\n        /* \"#utility.yul\":2163:2183   */\n      swap1\n      pop\n        /* \"#utility.yul\":1956:2189   */\n      swap2\n      swap1\n      pop\n      jump\t// out\n\n    auxdata: 0xa26469706673582212206f430816cd2f0ee93e1efaa8c0cd082d22fffc0f34b3b214fcfc445f2144a3d064736f6c63430008190033\n}\n",
				"bytecode": {
					"linkReferences": {},
					"object": "6080604052348015600e575f80fd5b5043600281905550610300806100235f395ff3fe608060405234801561000f575f80fd5b506004361061004a575f3560e01c80635119c3e21461004e57806392d7727c14610058578063a8df84df14610076578063f93b61e314610094575b5f80fd5b61005661009e565b005b610060610106565b60405161006d9190610192565b60405180910390f35b61007e61010b565b60405161008b9190610192565b60405180910390f35b61009c610111565b005b60156002546100ad91906101d8565b43106100ee576040517f08c379a00000000000000000000000000000000000000000000000000000000081526004016100e590610265565b60405180910390fd5b5f808154809291906100ff90610283565b9190505550565b5f5481565b60015481565b601560025461012091906101d8565b4310610161576040517f08c379a000000000000000000000000000000000000000000000000000000000815260040161015890610265565b60405180910390fd5b60015f81548092919061017390610283565b9190505550565b5f819050919050565b61018c8161017a565b82525050565b5f6020820190506101a55f830184610183565b92915050565b7f4e487b71000000000000000000000000000000000000000000000000000000005f52601160045260245ffd5b5f6101e28261017a565b91506101ed8361017a565b9250828201905080821115610205576102046101ab565b5b92915050565b5f82825260208201905092915050565b7f646f6e65000000000000000000000000000000000000000000000000000000005f82015250565b5f61024f60048361020b565b915061025a8261021b565b602082019050919050565b5f6020820190508181035f83015261027c81610243565b9050919050565b5f61028d8261017a565b91507fffffffffffffffffffffffffffffffffffffffffffffffffffffffffffffffff82036102bf576102be6101ab565b5b60018201905091905056fea26469706673582212206f430816cd2f0ee93e1efaa8c0cd082d22fffc0f34b3b214fcfc445f2144a3d064736f6c63430008190033",
					"opcodes": "PUSH1 0x80 PUSH1 0x40 MSTORE CALLVALUE DUP1 ISZERO PUSH1 0xE JUMPI PUSH0 DUP1 REVERT JUMPDEST POP NUMBER PUSH1 0x2 DUP2 SWAP1 SSTORE POP PUSH2 0x300 DUP1 PUSH2 0x23 PUSH0 CODECOPY PUSH0 RETURN INVALID PUSH1 0x80 PUSH1 0x40 MSTORE CALLVALUE DUP1 ISZERO PUSH2 0xF JUMPI PUSH0 DUP1 REVERT JUMPDEST POP PUSH1 0x4 CALLDATASIZE LT PUSH2 0x4A JUMPI PUSH0 CALLDATALOAD PUSH1 0xE0 SHR DUP1 PUSH4 0x5119C3E2 EQ PUSH2 0x4E JUMPI DUP1 PUSH4 0x92D7727C EQ PUSH2 0x58 JUMPI DUP1 PUSH4 0xA8DF84DF EQ PUSH2 0x76 JUMPI DUP1 PUSH4 0xF93B61E3 EQ PUSH2 0x94 JUMPI JUMPDEST PUSH0 DUP1 REVERT JUMPDEST PUSH2 0x56 PUSH2 0x9E JUMP JUMPDEST STOP JUMPDEST PUSH2 0x60 PUSH2 0x106 JUMP JUMPDEST PUSH1 0x40 MLOAD PUSH2 0x6D SWAP2 SWAP1 PUSH2 0x192 JUMP JUMPDEST PUSH1 0x40 MLOAD DUP1 SWAP2 SUB SWAP1 RETURN JUMPDEST PUSH2 0x7E PUSH2 0x10B JUMP JUMPDEST PUSH1 0x40 MLOAD PUSH2 0x8B SWAP2 SWAP1 PUSH2 0x192 JUMP JUMPDEST PUSH1 0x40 MLOAD DUP1 SWAP2 SUB SWAP1 RETURN JUMPDEST PUSH2 0x9C PUSH2 0x111 JUMP JUMPDEST STOP JUMPDEST PUSH1 0x15 PUSH1 0x2 SLOAD PUSH2 0xAD SWAP2 SWAP1 PUSH2 0x1D8 JUMP JUMPDEST NUMBER LT PUSH2 0xEE JUMPI PUSH1 0x40 MLOAD PUSH32 0x8C379A000000000000000000000000000000000000000000000000000000000 DUP2 MSTORE PUSH1 0x4 ADD PUSH2 0xE5 SWAP1 PUSH2 0x265 JUMP JUMPDEST PUSH1 0x40 MLOAD DUP1 SWAP2 SUB SWAP1 REVERT JUMPDEST PUSH0 DUP1 DUP2 SLOAD DUP1 SWAP3 SWAP2 SWAP1 PUSH2 0xFF SWAP1 PUSH2 0x283 JUMP JUMPDEST SWAP2 SWAP1 POP SSTORE POP JUMP JUMPDEST PUSH0 SLOAD DUP2 JUMP JUMPDEST PUSH1 0x1 SLOAD DUP2 JUMP JUMPDEST PUSH1 0x15 PUSH1 0x2 SLOAD PUSH2 0x120 SWAP2 SWAP1 PUSH2 0x1D8 JUMP JUMPDEST NUMBER LT PUSH2 0x161 JUMPI PUSH1 0x40 MLOAD PUSH32 0x8C379A000000000000000000000000000000000000000000000000000000000 DUP2 MSTORE PUSH1 0x4 ADD PUSH2 0x158 SWAP1 PUSH2 0x265 JUMP JUMPDEST PUSH1 0x40 MLOAD DUP1 SWAP2 SUB SWAP1 REVERT JUMPDEST PUSH1 0x1 PUSH0 DUP2 SLOAD DUP1 SWAP3 SWAP2 SWAP1 PUSH2 0x173 SWAP1 PUSH2 0x283 JUMP JUMPDEST SWAP2 SWAP1 POP SSTORE POP JUMP JUMPDEST PUSH0 DUP2 SWAP1 POP SWAP2 SWAP1 POP JUMP JUMPDEST PUSH2 0x18C DUP2 PUSH2 0x17A JUMP JUMPDEST DUP3 MSTORE POP POP JUMP JUMPDEST PUSH0 PUSH1 0x20 DUP3 ADD SWAP1 POP PUSH2 0x1A5 PUSH0 DUP4 ADD DUP5 PUSH2 0x183 JUMP JUMPDEST SWAP3 SWAP2 POP POP JUMP JUMPDEST PUSH32 0x4E487B7100000000000000000000000000000000000000000000000000000000 PUSH0 MSTORE PUSH1 0x11 PUSH1 0x4 MSTORE PUSH1 0x24 PUSH0 REVERT JUMPDEST PUSH0 PUSH2 0x1E2 DUP3 PUSH2 0x17A JUMP JUMPDEST SWAP2 POP PUSH2 0x1ED DUP4 PUSH2 0x17A JUMP JUMPDEST SWAP3 POP DUP3 DUP3 ADD SWAP1 POP DUP1 DUP3 GT ISZERO PUSH2 0x205 JUMPI PUSH2 0x204 PUSH2 0x1AB JUMP JUMPDEST JUMPDEST SWAP3 SWAP2 POP POP JUMP JUMPDEST PUSH0 DUP3 DUP3 MSTORE PUSH1 0x20 DUP3 ADD SWAP1 POP SWAP3 SWAP2 POP POP JUMP JUMPDEST PUSH32 0x646F6E6500000000000000000000000000000000000000000000000000000000 PUSH0 DUP3 ADD MSTORE POP JUMP JUMPDEST PUSH0 PUSH2 0x24F PUSH1 0x4 DUP4 PUSH2 0x20B JUMP JUMPDEST SWAP2 POP PUSH2 0x25A DUP3 PUSH2 0x21B JUMP JUMPDEST PUSH1 0x20 DUP3 ADD SWAP1 POP SWAP2 SWAP1 POP JUMP JUMPDEST PUSH0 PUSH1 0x20 DUP3 ADD SWAP1 POP DUP2 DUP2 SUB PUSH0 DUP4 ADD MSTORE PUSH2 0x27C DUP2 PUSH2 0x243 JUMP JUMPDEST SWAP1 POP SWAP2 SWAP1 POP JUMP JUMPDEST PUSH0 PUSH2 0x28D DUP3 PUSH2 0x17A JUMP JUMPDEST SWAP2 POP PUSH32 0xFFFFFFFFFFFFFFFFFFFFFFFFFFFFFFFFFFFFFFFFFFFFFFFFFFFFFFFFFFFFFFFF DUP3 SUB PUSH2 0x2BF JUMPI PUSH2 0x2BE PUSH2 0x1AB JUMP JUMPDEST JUMPDEST PUSH1 0x1 DUP3 ADD SWAP1 POP SWAP2 SWAP1 POP JUMP INVALID LOG2 PUSH5 0x6970667358 0x22 SLT KECCAK256 PUSH16 0x430816CD2F0EE93E1EFAA8C0CD082D22 SELFDESTRUCT 0xFC 0xF CALLVALUE 0xB3 0xB2 EQ 0xFC 0xFC PREVRANDAO PUSH0 0x21 PREVRANDAO LOG3 0xD0 PUSH5 0x736F6C6343 STOP ADDMOD NOT STOP CALLER "
				},
				"gasEstimates": {
					"creation": {
						"codeDepositCost": "153600",
						"executionCost": "22307",
						"totalCost": "175907"
					},
					"external": {
						"downvote()": "2447",
						"downvoting()": "infinite",
						"upvote()": "2424",
						"upvoting()": "infinite"
					}
				},
				"methodIdentifiers": {
					"downvote()": "a8df84df",
					"downvoting()": "f93b61e3",
					"upvote()": "92d7727c",
					"upvoting()": "5119c3e2"
				}
			},
			"storageLayout": {
				"storage": [
					{
						"astId": 290,
						"contract": "solidity_100/81-90.sol:Q85",
						"label": "upvote",
						"offset": 0,
						"slot": "0",
						"type": "t_uint256"
					},
					{
						"astId": 292,
						"contract": "solidity_100/81-90.sol:Q85",
						"label": "downvote",
						"offset": 0,
						"slot": "1",
						"type": "t_uint256"
					},
					{
						"astId": 294,
						"contract": "solidity_100/81-90.sol:Q85",
						"label": "blockNumber",
						"offset": 0,
						"slot": "2",
						"type": "t_uint256"
					}
				],
				"types": {
					"t_uint256": {
						"encoding": "inplace",
						"label": "uint256",
						"numberOfBytes": "32"
					}
				}
			},
			"userdoc": {
				"kind": "user",
				"methods": {},
				"version": 1
			}
		}
	}
}