{
	"solidity_100/81-90.sol": {
		"Q90": {
			"abi": [
				{
					"inputs": [],
					"name": "bytesWallet",
					"outputs": [
						{
							"internalType": "string",
							"name": "",
							"type": "string"
						}
					],
					"stateMutability": "view",
					"type": "function"
				},
				{
					"inputs": [],
					"name": "getWalletName",
					"outputs": [
						{
							"internalType": "bytes",
							"name": "",
							"type": "bytes"
						}
					],
					"stateMutability": "view",
					"type": "function"
				}
			],
			"devdoc": {
				"kind": "dev",
				"methods": {},
				"version": 1
			},
			"evm": {
				"assembly": "    /* \"solidity_100/81-90.sol\":5927:6658  contract Q90 {... */\n  mstore(0x40, 0x80)\n  callvalue\n  dup1\n  iszero\n  tag_1\n  jumpi\n  0x00\n  dup1\n  revert\ntag_1:\n  pop\n  dataSize(sub_0)\n  dup1\n  dataOffset(sub_0)\n  0x00\n  codecopy\n  0x00\n  return\nstop\n\nsub_0: assembly {\n        /* \"solidity_100/81-90.sol\":5927:6658  contract Q90 {... */\n      mstore(0x40, 0x80)\n      callvalue\n      dup1\n      iszero\n      tag_1\n      jumpi\n      0x00\n      dup1\n      revert\n    tag_1:\n      pop\n      jumpi(tag_2, lt(calldatasize, 0x04))\n      shr(0xe0, calldataload(0x00))\n      dup1\n      0xb4fe0082\n      eq\n      tag_3\n      jumpi\n      dup1\n      0xdefc544d\n      eq\n      tag_4\n      jumpi\n    tag_2:\n      0x00\n      dup1\n      revert\n        /* \"solidity_100/81-90.sol\":6095:6334  function getWalletName() public view returns(bytes memory){... */\n    tag_3:\n      tag_5\n      tag_6\n      jump\t// in\n    tag_5:\n      mload(0x40)\n      tag_7\n      swap2\n      swap1\n      tag_8\n      jump\t// in\n    tag_7:\n      mload(0x40)\n      dup1\n      swap2\n      sub\n      swap1\n      return\n        /* \"solidity_100/81-90.sol\":6342:6655  function bytesWallet() public view returns(string memory){... */\n    tag_4:\n      tag_9\n      tag_10\n      jump\t// in\n    tag_9:\n      mload(0x40)\n      tag_11\n      swap2\n      swap1\n      tag_12\n      jump\t// in\n    tag_11:\n      mload(0x40)\n      dup1\n      swap2\n      sub\n      swap1\n      return\n        /* \"solidity_100/81-90.sol\":6095:6334  function getWalletName() public view returns(bytes memory){... */\n    tag_6:\n        /* \"solidity_100/81-90.sol\":6140:6152  bytes memory */\n      0x60\n        /* \"solidity_100/81-90.sol\":6164:6188  bytes memory walletBytes */\n      0x00\n        /* \"solidity_100/81-90.sol\":6208:6218  msg.sender */\n      caller\n        /* \"solidity_100/81-90.sol\":6191:6219  abi.encodePacked(msg.sender) */\n      add(0x20, mload(0x40))\n      tag_14\n      swap2\n      swap1\n      tag_15\n      jump\t// in\n    tag_14:\n      mload(0x40)\n      0x20\n      dup2\n      dup4\n      sub\n      sub\n      dup2\n      mstore\n      swap1\n      0x40\n      mstore\n        /* \"solidity_100/81-90.sol\":6164:6219  bytes memory walletBytes = abi.encodePacked(msg.sender) */\n      swap1\n      pop\n        /* \"solidity_100/81-90.sol\":6243:6254  walletBytes */\n      dup1\n        /* \"solidity_100/81-90.sol\":6230:6255  return bytes(walletBytes) */\n      swap2\n      pop\n      pop\n        /* \"solidity_100/81-90.sol\":6095:6334  function getWalletName() public view returns(bytes memory){... */\n      swap1\n      jump\t// out\n        /* \"solidity_100/81-90.sol\":6342:6655  function bytesWallet() public view returns(string memory){... */\n    tag_10:\n        /* \"solidity_100/81-90.sol\":6385:6398  string memory */\n      0x60\n        /* \"solidity_100/81-90.sol\":6410:6434  bytes memory walletBytes */\n      0x00\n        /* \"solidity_100/81-90.sol\":6437:6452  getWalletName() */\n      tag_17\n        /* \"solidity_100/81-90.sol\":6437:6450  getWalletName */\n      tag_6\n        /* \"solidity_100/81-90.sol\":6437:6452  getWalletName() */\n      jump\t// in\n    tag_17:\n        /* \"solidity_100/81-90.sol\":6410:6452  bytes memory walletBytes = getWalletName() */\n      swap1\n      pop\n        /* \"solidity_100/81-90.sol\":6635:6646  walletBytes */\n      dup1\n        /* \"solidity_100/81-90.sol\":6621:6647  return string(walletBytes) */\n      swap2\n      pop\n      pop\n        /* \"solidity_100/81-90.sol\":6342:6655  function bytesWallet() public view returns(string memory){... */\n      swap1\n      jump\t// out\n        /* \"#utility.yul\":7:105   */\n    tag_18:\n        /* \"#utility.yul\":58:64   */\n      0x00\n        /* \"#utility.yul\":92:97   */\n      dup2\n        /* \"#utility.yul\":86:98   */\n      mload\n        /* \"#utility.yul\":76:98   */\n      swap1\n      pop\n        /* \"#utility.yul\":7:105   */\n      swap2\n      swap1\n      pop\n      jump\t// out\n        /* \"#utility.yul\":111:279   */\n    tag_19:\n        /* \"#utility.yul\":194:205   */\n      0x00\n        /* \"#utility.yul\":228:234   */\n      dup3\n        /* \"#utility.yul\":223:226   */\n      dup3\n        /* \"#utility.yul\":216:235   */\n      mstore\n        /* \"#utility.yul\":268:272   */\n      0x20\n        /* \"#utility.yul\":263:266   */\n      dup3\n        /* \"#utility.yul\":259:273   */\n      add\n        /* \"#utility.yul\":244:273   */\n      swap1\n      pop\n        /* \"#utility.yul\":111:279   */\n      swap3\n      swap2\n      pop\n      pop\n      jump\t// out\n        /* \"#utility.yul\":285:424   */\n    tag_20:\n        /* \"#utility.yul\":374:380   */\n      dup3\n        /* \"#utility.yul\":369:372   */\n      dup2\n        /* \"#utility.yul\":364:367   */\n      dup4\n        /* \"#utility.yul\":358:381   */\n      mcopy\n        /* \"#utility.yul\":415:416   */\n      0x00\n        /* \"#utility.yul\":406:412   */\n      dup4\n        /* \"#utility.yul\":401:404   */\n      dup4\n        /* \"#utility.yul\":397:413   */\n      add\n        /* \"#utility.yul\":390:417   */\n      mstore\n        /* \"#utility.yul\":285:424   */\n      pop\n      pop\n      pop\n      jump\t// out\n        /* \"#utility.yul\":430:532   */\n    tag_21:\n        /* \"#utility.yul\":471:477   */\n      0x00\n        /* \"#utility.yul\":522:524   */\n      0x1f\n        /* \"#utility.yul\":518:525   */\n      not\n        /* \"#utility.yul\":513:515   */\n      0x1f\n        /* \"#utility.yul\":506:511   */\n      dup4\n        /* \"#utility.yul\":502:516   */\n      add\n        /* \"#utility.yul\":498:526   */\n      and\n        /* \"#utility.yul\":488:526   */\n      swap1\n      pop\n        /* \"#utility.yul\":430:532   */\n      swap2\n      swap1\n      pop\n      jump\t// out\n        /* \"#utility.yul\":538:911   */\n    tag_22:\n        /* \"#utility.yul\":624:627   */\n      0x00\n        /* \"#utility.yul\":652:690   */\n      tag_38\n        /* \"#utility.yul\":684:689   */\n      dup3\n        /* \"#utility.yul\":652:690   */\n      tag_18\n      jump\t// in\n    tag_38:\n        /* \"#utility.yul\":706:776   */\n      tag_39\n        /* \"#utility.yul\":769:775   */\n      dup2\n        /* \"#utility.yul\":764:767   */\n      dup6\n        /* \"#utility.yul\":706:776   */\n      tag_19\n      jump\t// in\n    tag_39:\n        /* \"#utility.yul\":699:776   */\n      swap4\n      pop\n        /* \"#utility.yul\":785:850   */\n      tag_40\n        /* \"#utility.yul\":843:849   */\n      dup2\n        /* \"#utility.yul\":838:841   */\n      dup6\n        /* \"#utility.yul\":831:835   */\n      0x20\n        /* \"#utility.yul\":824:829   */\n      dup7\n        /* \"#utility.yul\":820:836   */\n      add\n        /* \"#utility.yul\":785:850   */\n      tag_20\n      jump\t// in\n    tag_40:\n        /* \"#utility.yul\":875:904   */\n      tag_41\n        /* \"#utility.yul\":897:903   */\n      dup2\n        /* \"#utility.yul\":875:904   */\n      tag_21\n      jump\t// in\n    tag_41:\n        /* \"#utility.yul\":870:873   */\n      dup5\n        /* \"#utility.yul\":866:905   */\n      add\n        /* \"#utility.yul\":859:905   */\n      swap2\n      pop\n        /* \"#utility.yul\":628:911   */\n      pop\n        /* \"#utility.yul\":538:911   */\n      swap3\n      swap2\n      pop\n      pop\n      jump\t// out\n        /* \"#utility.yul\":917:1226   */\n    tag_8:\n        /* \"#utility.yul\":1028:1032   */\n      0x00\n        /* \"#utility.yul\":1066:1068   */\n      0x20\n        /* \"#utility.yul\":1055:1064   */\n      dup3\n        /* \"#utility.yul\":1051:1069   */\n      add\n        /* \"#utility.yul\":1043:1069   */\n      swap1\n      pop\n        /* \"#utility.yul\":1115:1124   */\n      dup2\n        /* \"#utility.yul\":1109:1113   */\n      dup2\n        /* \"#utility.yul\":1105:1125   */\n      sub\n        /* \"#utility.yul\":1101:1102   */\n      0x00\n        /* \"#utility.yul\":1090:1099   */\n      dup4\n        /* \"#utility.yul\":1086:1103   */\n      add\n        /* \"#utility.yul\":1079:1126   */\n      mstore\n        /* \"#utility.yul\":1143:1219   */\n      tag_43\n        /* \"#utility.yul\":1214:1218   */\n      dup2\n        /* \"#utility.yul\":1205:1211   */\n      dup5\n        /* \"#utility.yul\":1143:1219   */\n      tag_22\n      jump\t// in\n    tag_43:\n        /* \"#utility.yul\":1135:1219   */\n      swap1\n      pop\n        /* \"#utility.yul\":917:1226   */\n      swap3\n      swap2\n      pop\n      pop\n      jump\t// out\n        /* \"#utility.yul\":1232:1331   */\n    tag_23:\n        /* \"#utility.yul\":1284:1290   */\n      0x00\n        /* \"#utility.yul\":1318:1323   */\n      dup2\n        /* \"#utility.yul\":1312:1324   */\n      mload\n        /* \"#utility.yul\":1302:1324   */\n      swap1\n      pop\n        /* \"#utility.yul\":1232:1331   */\n      swap2\n      swap1\n      pop\n      jump\t// out\n        /* \"#utility.yul\":1337:1506   */\n    tag_24:\n        /* \"#utility.yul\":1421:1432   */\n      0x00\n        /* \"#utility.yul\":1455:1461   */\n      dup3\n        /* \"#utility.yul\":1450:1453   */\n      dup3\n        /* \"#utility.yul\":1443:1462   */\n      mstore\n        /* \"#utility.yul\":1495:1499   */\n      0x20\n        /* \"#utility.yul\":1490:1493   */\n      dup3\n        /* \"#utility.yul\":1486:1500   */\n      add\n        /* \"#utility.yul\":1471:1500   */\n      swap1\n      pop\n        /* \"#utility.yul\":1337:1506   */\n      swap3\n      swap2\n      pop\n      pop\n      jump\t// out\n        /* \"#utility.yul\":1512:1889   */\n    tag_25:\n        /* \"#utility.yul\":1600:1603   */\n      0x00\n        /* \"#utility.yul\":1628:1667   */\n      tag_47\n        /* \"#utility.yul\":1661:1666   */\n      dup3\n        /* \"#utility.yul\":1628:1667   */\n      tag_23\n      jump\t// in\n    tag_47:\n        /* \"#utility.yul\":1683:1754   */\n      tag_48\n        /* \"#utility.yul\":1747:1753   */\n      dup2\n        /* \"#utility.yul\":1742:1745   */\n      dup6\n        /* \"#utility.yul\":1683:1754   */\n      tag_24\n      jump\t// in\n    tag_48:\n        /* \"#utility.yul\":1676:1754   */\n      swap4\n      pop\n        /* \"#utility.yul\":1763:1828   */\n      tag_49\n        /* \"#utility.yul\":1821:1827   */\n      dup2\n        /* \"#utility.yul\":1816:1819   */\n      dup6\n        /* \"#utility.yul\":1809:1813   */\n      0x20\n        /* \"#utility.yul\":1802:1807   */\n      dup7\n        /* \"#utility.yul\":1798:1814   */\n      add\n        /* \"#utility.yul\":1763:1828   */\n      tag_20\n      jump\t// in\n    tag_49:\n        /* \"#utility.yul\":1853:1882   */\n      tag_50\n        /* \"#utility.yul\":1875:1881   */\n      dup2\n        /* \"#utility.yul\":1853:1882   */\n      tag_21\n      jump\t// in\n    tag_50:\n        /* \"#utility.yul\":1848:1851   */\n      dup5\n        /* \"#utility.yul\":1844:1883   */\n      add\n        /* \"#utility.yul\":1837:1883   */\n      swap2\n      pop\n        /* \"#utility.yul\":1604:1889   */\n      pop\n        /* \"#utility.yul\":1512:1889   */\n      swap3\n      swap2\n      pop\n      pop\n      jump\t// out\n        /* \"#utility.yul\":1895:2208   */\n    tag_12:\n        /* \"#utility.yul\":2008:2012   */\n      0x00\n        /* \"#utility.yul\":2046:2048   */\n      0x20\n        /* \"#utility.yul\":2035:2044   */\n      dup3\n        /* \"#utility.yul\":2031:2049   */\n      add\n        /* \"#utility.yul\":2023:2049   */\n      swap1\n      pop\n        /* \"#utility.yul\":2095:2104   */\n      dup2\n        /* \"#utility.yul\":2089:2093   */\n      dup2\n        /* \"#utility.yul\":2085:2105   */\n      sub\n        /* \"#utility.yul\":2081:2082   */\n      0x00\n        /* \"#utility.yul\":2070:2079   */\n      dup4\n        /* \"#utility.yul\":2066:2083   */\n      add\n        /* \"#utility.yul\":2059:2106   */\n      mstore\n        /* \"#utility.yul\":2123:2201   */\n      tag_52\n        /* \"#utility.yul\":2196:2200   */\n      dup2\n        /* \"#utility.yul\":2187:2193   */\n      dup5\n        /* \"#utility.yul\":2123:2201   */\n      tag_25\n      jump\t// in\n    tag_52:\n        /* \"#utility.yul\":2115:2201   */\n      swap1\n      pop\n        /* \"#utility.yul\":1895:2208   */\n      swap3\n      swap2\n      pop\n      pop\n      jump\t// out\n        /* \"#utility.yul\":2214:2340   */\n    tag_26:\n        /* \"#utility.yul\":2251:2258   */\n      0x00\n        /* \"#utility.yul\":2291:2333   */\n      0xffffffffffffffffffffffffffffffffffffffff\n        /* \"#utility.yul\":2284:2289   */\n      dup3\n        /* \"#utility.yul\":2280:2334   */\n      and\n        /* \"#utility.yul\":2269:2334   */\n      swap1\n      pop\n        /* \"#utility.yul\":2214:2340   */\n      swap2\n      swap1\n      pop\n      jump\t// out\n        /* \"#utility.yul\":2346:2442   */\n    tag_27:\n        /* \"#utility.yul\":2383:2390   */\n      0x00\n        /* \"#utility.yul\":2412:2436   */\n      tag_55\n        /* \"#utility.yul\":2430:2435   */\n      dup3\n        /* \"#utility.yul\":2412:2436   */\n      tag_26\n      jump\t// in\n    tag_55:\n        /* \"#utility.yul\":2401:2436   */\n      swap1\n      pop\n        /* \"#utility.yul\":2346:2442   */\n      swap2\n      swap1\n      pop\n      jump\t// out\n        /* \"#utility.yul\":2448:2542   */\n    tag_28:\n        /* \"#utility.yul\":2481:2489   */\n      0x00\n        /* \"#utility.yul\":2529:2534   */\n      dup2\n        /* \"#utility.yul\":2525:2527   */\n      0x60\n        /* \"#utility.yul\":2521:2535   */\n      shl\n        /* \"#utility.yul\":2500:2535   */\n      swap1\n      pop\n        /* \"#utility.yul\":2448:2542   */\n      swap2\n      swap1\n      pop\n      jump\t// out\n        /* \"#utility.yul\":2548:2642   */\n    tag_29:\n        /* \"#utility.yul\":2587:2594   */\n      0x00\n        /* \"#utility.yul\":2616:2636   */\n      tag_58\n        /* \"#utility.yul\":2630:2635   */\n      dup3\n        /* \"#utility.yul\":2616:2636   */\n      tag_28\n      jump\t// in\n    tag_58:\n        /* \"#utility.yul\":2605:2636   */\n      swap1\n      pop\n        /* \"#utility.yul\":2548:2642   */\n      swap2\n      swap1\n      pop\n      jump\t// out\n        /* \"#utility.yul\":2648:2748   */\n    tag_30:\n        /* \"#utility.yul\":2687:2694   */\n      0x00\n        /* \"#utility.yul\":2716:2742   */\n      tag_60\n        /* \"#utility.yul\":2736:2741   */\n      dup3\n        /* \"#utility.yul\":2716:2742   */\n      tag_29\n      jump\t// in\n    tag_60:\n        /* \"#utility.yul\":2705:2742   */\n      swap1\n      pop\n        /* \"#utility.yul\":2648:2748   */\n      swap2\n      swap1\n      pop\n      jump\t// out\n        /* \"#utility.yul\":2754:2911   */\n    tag_31:\n        /* \"#utility.yul\":2859:2904   */\n      tag_62\n        /* \"#utility.yul\":2879:2903   */\n      tag_63\n        /* \"#utility.yul\":2897:2902   */\n      dup3\n        /* \"#utility.yul\":2879:2903   */\n      tag_27\n      jump\t// in\n    tag_63:\n        /* \"#utility.yul\":2859:2904   */\n      tag_30\n      jump\t// in\n    tag_62:\n        /* \"#utility.yul\":2854:2857   */\n      dup3\n        /* \"#utility.yul\":2847:2905   */\n      mstore\n        /* \"#utility.yul\":2754:2911   */\n      pop\n      pop\n      jump\t// out\n        /* \"#utility.yul\":2917:3173   */\n    tag_15:\n        /* \"#utility.yul\":3029:3032   */\n      0x00\n        /* \"#utility.yul\":3044:3119   */\n      tag_65\n        /* \"#utility.yul\":3115:3118   */\n      dup3\n        /* \"#utility.yul\":3106:3112   */\n      dup5\n        /* \"#utility.yul\":3044:3119   */\n      tag_31\n      jump\t// in\n    tag_65:\n        /* \"#utility.yul\":3144:3146   */\n      0x14\n        /* \"#utility.yul\":3139:3142   */\n      dup3\n        /* \"#utility.yul\":3135:3147   */\n      add\n        /* \"#utility.yul\":3128:3147   */\n      swap2\n      pop\n        /* \"#utility.yul\":3164:3167   */\n      dup2\n        /* \"#utility.yul\":3157:3167   */\n      swap1\n      pop\n        /* \"#utility.yul\":2917:3173   */\n      swap3\n      swap2\n      pop\n      pop\n      jump\t// out\n\n    auxdata: 0xa2646970667358221220ba8583e9f7392a3892846d1889b43760c3948b7675b1c978a1c4e11daeb07ac464736f6c63430008190033\n}\n",
				"bytecode": {
					"linkReferences": {},
					"object": "6080604052348015600e575f80fd5b5061027b8061001c5f395ff3fe608060405234801561000f575f80fd5b5060043610610034575f3560e01c8063b4fe008214610038578063defc544d14610056575b5f80fd5b610040610074565b60405161004d9190610124565b60405180910390f35b61005e6100a0565b60405161006b9190610196565b60405180910390f35b60605f33604051602001610088919061022b565b60405160208183030381529060405290508091505090565b60605f6100ab610074565b90508091505090565b5f81519050919050565b5f82825260208201905092915050565b8281835e5f83830152505050565b5f601f19601f8301169050919050565b5f6100f6826100b4565b61010081856100be565b93506101108185602086016100ce565b610119816100dc565b840191505092915050565b5f6020820190508181035f83015261013c81846100ec565b905092915050565b5f81519050919050565b5f82825260208201905092915050565b5f61016882610144565b610172818561014e565b93506101828185602086016100ce565b61018b816100dc565b840191505092915050565b5f6020820190508181035f8301526101ae818461015e565b905092915050565b5f73ffffffffffffffffffffffffffffffffffffffff82169050919050565b5f6101df826101b6565b9050919050565b5f8160601b9050919050565b5f6101fc826101e6565b9050919050565b5f61020d826101f2565b9050919050565b610225610220826101d5565b610203565b82525050565b5f6102368284610214565b6014820191508190509291505056fea2646970667358221220ba8583e9f7392a3892846d1889b43760c3948b7675b1c978a1c4e11daeb07ac464736f6c63430008190033",
					"opcodes": "PUSH1 0x80 PUSH1 0x40 MSTORE CALLVALUE DUP1 ISZERO PUSH1 0xE JUMPI PUSH0 DUP1 REVERT JUMPDEST POP PUSH2 0x27B DUP1 PUSH2 0x1C PUSH0 CODECOPY PUSH0 RETURN INVALID PUSH1 0x80 PUSH1 0x40 MSTORE CALLVALUE DUP1 ISZERO PUSH2 0xF JUMPI PUSH0 DUP1 REVERT JUMPDEST POP PUSH1 0x4 CALLDATASIZE LT PUSH2 0x34 JUMPI PUSH0 CALLDATALOAD PUSH1 0xE0 SHR DUP1 PUSH4 0xB4FE0082 EQ PUSH2 0x38 JUMPI DUP1 PUSH4 0xDEFC544D EQ PUSH2 0x56 JUMPI JUMPDEST PUSH0 DUP1 REVERT JUMPDEST PUSH2 0x40 PUSH2 0x74 JUMP JUMPDEST PUSH1 0x40 MLOAD PUSH2 0x4D SWAP2 SWAP1 PUSH2 0x124 JUMP JUMPDEST PUSH1 0x40 MLOAD DUP1 SWAP2 SUB SWAP1 RETURN JUMPDEST PUSH2 0x5E PUSH2 0xA0 JUMP JUMPDEST PUSH1 0x40 MLOAD PUSH2 0x6B SWAP2 SWAP1 PUSH2 0x196 JUMP JUMPDEST PUSH1 0x40 MLOAD DUP1 SWAP2 SUB SWAP1 RETURN JUMPDEST PUSH1 0x60 PUSH0 CALLER PUSH1 0x40 MLOAD PUSH1 0x20 ADD PUSH2 0x88 SWAP2 SWAP1 PUSH2 0x22B JUMP JUMPDEST PUSH1 0x40 MLOAD PUSH1 0x20 DUP2 DUP4 SUB SUB DUP2 MSTORE SWAP1 PUSH1 0x40 MSTORE SWAP1 POP DUP1 SWAP2 POP POP SWAP1 JUMP JUMPDEST PUSH1 0x60 PUSH0 PUSH2 0xAB PUSH2 0x74 JUMP JUMPDEST SWAP1 POP DUP1 SWAP2 POP POP SWAP1 JUMP JUMPDEST PUSH0 DUP2 MLOAD SWAP1 POP SWAP2 SWAP1 POP JUMP JUMPDEST PUSH0 DUP3 DUP3 MSTORE PUSH1 0x20 DUP3 ADD SWAP1 POP SWAP3 SWAP2 POP POP JUMP JUMPDEST DUP3 DUP2 DUP4 MCOPY PUSH0 DUP4 DUP4 ADD MSTORE POP POP POP JUMP JUMPDEST PUSH0 PUSH1 0x1F NOT PUSH1 0x1F DUP4 ADD AND SWAP1 POP SWAP2 SWAP1 POP JUMP JUMPDEST PUSH0 PUSH2 0xF6 DUP3 PUSH2 0xB4 JUMP JUMPDEST PUSH2 0x100 DUP2 DUP6 PUSH2 0xBE JUMP JUMPDEST SWAP4 POP PUSH2 0x110 DUP2 DUP6 PUSH1 0x20 DUP7 ADD PUSH2 0xCE JUMP JUMPDEST PUSH2 0x119 DUP2 PUSH2 0xDC JUMP JUMPDEST DUP5 ADD SWAP2 POP POP SWAP3 SWAP2 POP POP JUMP JUMPDEST PUSH0 PUSH1 0x20 DUP3 ADD SWAP1 POP DUP2 DUP2 SUB PUSH0 DUP4 ADD MSTORE PUSH2 0x13C DUP2 DUP5 PUSH2 0xEC JUMP JUMPDEST SWAP1 POP SWAP3 SWAP2 POP POP JUMP JUMPDEST PUSH0 DUP2 MLOAD SWAP1 POP SWAP2 SWAP1 POP JUMP JUMPDEST PUSH0 DUP3 DUP3 MSTORE PUSH1 0x20 DUP3 ADD SWAP1 POP SWAP3 SWAP2 POP POP JUMP JUMPDEST PUSH0 PUSH2 0x168 DUP3 PUSH2 0x144 JUMP JUMPDEST PUSH2 0x172 DUP2 DUP6 PUSH2 0x14E JUMP JUMPDEST SWAP4 POP PUSH2 0x182 DUP2 DUP6 PUSH1 0x20 DUP7 ADD PUSH2 0xCE JUMP JUMPDEST PUSH2 0x18B DUP2 PUSH2 0xDC JUMP JUMPDEST DUP5 ADD SWAP2 POP POP SWAP3 SWAP2 POP POP JUMP JUMPDEST PUSH0 PUSH1 0x20 DUP3 ADD SWAP1 POP DUP2 DUP2 SUB PUSH0 DUP4 ADD MSTORE PUSH2 0x1AE DUP2 DUP5 PUSH2 0x15E JUMP JUMPDEST SWAP1 POP SWAP3 SWAP2 POP POP JUMP JUMPDEST PUSH0 PUSH20 0xFFFFFFFFFFFFFFFFFFFFFFFFFFFFFFFFFFFFFFFF DUP3 AND SWAP1 POP SWAP2 SWAP1 POP JUMP JUMPDEST PUSH0 PUSH2 0x1DF DUP3 PUSH2 0x1B6 JUMP JUMPDEST SWAP1 POP SWAP2 SWAP1 POP JUMP JUMPDEST PUSH0 DUP2 PUSH1 0x60 SHL SWAP1 POP SWAP2 SWAP1 POP JUMP JUMPDEST PUSH0 PUSH2 0x1FC DUP3 PUSH2 0x1E6 JUMP JUMPDEST SWAP1 POP SWAP2 SWAP1 POP JUMP JUMPDEST PUSH0 PUSH2 0x20D DUP3 PUSH2 0x1F2 JUMP JUMPDEST SWAP1 POP SWAP2 SWAP1 POP JUMP JUMPDEST PUSH2 0x225 PUSH2 0x220 DUP3 PUSH2 0x1D5 JUMP JUMPDEST PUSH2 0x203 JUMP JUMPDEST DUP3 MSTORE POP POP JUMP JUMPDEST PUSH0 PUSH2 0x236 DUP3 DUP5 PUSH2 0x214 JUMP JUMPDEST PUSH1 0x14 DUP3 ADD SWAP2 POP DUP2 SWAP1 POP SWAP3 SWAP2 POP POP JUMP INVALID LOG2 PUSH5 0x6970667358 0x22 SLT KECCAK256 0xBA DUP6 DUP4 0xE9 0xF7 CODECOPY 0x2A CODESIZE SWAP3 DUP5 PUSH14 0x1889B43760C3948B7675B1C978A1 0xC4 0xE1 SAR 0xAE 0xB0 PUSH27 0xC464736F6C63430008190033000000000000000000000000000000 "
				},
				"gasEstimates": {
					"creation": {
						"codeDepositCost": "127000",
						"executionCost": "169",
						"totalCost": "127169"
					},
					"external": {
						"bytesWallet()": "infinite",
						"getWalletName()": "infinite"
					}
				},
				"methodIdentifiers": {
					"bytesWallet()": "defc544d",
					"getWalletName()": "b4fe0082"
				}
			},
			"storageLayout": {
				"storage": [],
				"types": null
			},
			"userdoc": {
				"kind": "user",
				"methods": {},
				"version": 1
			}
		}
	}
}