{
	"solidity_100/81-90.sol": {
		"Q84": {
			"abi": [
				{
					"inputs": [
						{
							"internalType": "address",
							"name": "_blacklist",
							"type": "address"
						}
					],
					"stateMutability": "nonpayable",
					"type": "constructor"
				},
				{
					"inputs": [
						{
							"internalType": "uint256",
							"name": "_a",
							"type": "uint256"
						},
						{
							"internalType": "uint256",
							"name": "_b",
							"type": "uint256"
						}
					],
					"name": "mul",
					"outputs": [
						{
							"internalType": "uint256",
							"name": "",
							"type": "uint256"
						}
					],
					"stateMutability": "view",
					"type": "function"
				},
				{
					"inputs": [
						{
							"internalType": "uint256",
							"name": "_a",
							"type": "uint256"
						},
						{
							"internalType": "uint256",
							"name": "_b",
							"type": "uint256"
						}
					],
					"name": "sub",
					"outputs": [
						{
							"internalType": "uint256",
							"name": "",
							"type": "uint256"
						}
					],
					"stateMutability": "view",
					"type": "function"
				},
				{
					"inputs": [
						{
							"internalType": "uint256",
							"name": "_a",
							"type": "uint256"
						},
						{
							"internalType": "uint256",
							"name": "_b",
							"type": "uint256"
						}
					],
					"name": "sum",
					"outputs": [
						{
							"internalType": "uint256",
							"name": "",
							"type": "uint256"
						}
					],
					"stateMutability": "view",
					"type": "function"
				}
			],
			"devdoc": {
				"kind": "dev",
				"methods": {},
				"version": 1
			},
			"evm": {
				"assembly": "    /* \"solidity_100/81-90.sol\":2171:2994  contract Q84 {... */\n  mstore(0x40, 0x80)\n    /* \"solidity_100/81-90.sol\":2427:2501  constructor (address _blacklist) {... */\n  callvalue\n  dup1\n  iszero\n  tag_1\n  jumpi\n  0x00\n  dup1\n  revert\ntag_1:\n  pop\n  mload(0x40)\n  sub(codesize, bytecodeSize)\n  dup1\n  bytecodeSize\n  dup4\n  codecopy\n  dup2\n  dup2\n  add\n  0x40\n  mstore\n  dup2\n  add\n  swap1\n  tag_2\n  swap2\n  swap1\n  tag_3\n  jump\t// in\ntag_2:\n    /* \"solidity_100/81-90.sol\":2483:2493  _blacklist */\n  dup1\n    /* \"solidity_100/81-90.sol\":2471:2480  blacklist */\n  0x00\n  dup1\n    /* \"solidity_100/81-90.sol\":2471:2493  blacklist = _blacklist */\n  0x0100\n  exp\n  dup2\n  sload\n  dup2\n  0xffffffffffffffffffffffffffffffffffffffff\n  mul\n  not\n  and\n  swap1\n  dup4\n  0xffffffffffffffffffffffffffffffffffffffff\n  and\n  mul\n  or\n  swap1\n  sstore\n  pop\n    /* \"solidity_100/81-90.sol\":2427:2501  constructor (address _blacklist) {... */\n  pop\n    /* \"solidity_100/81-90.sol\":2171:2994  contract Q84 {... */\n  jump(tag_6)\n    /* \"#utility.yul\":88:205   */\ntag_8:\n    /* \"#utility.yul\":197:198   */\n  0x00\n    /* \"#utility.yul\":194:195   */\n  dup1\n    /* \"#utility.yul\":187:199   */\n  revert\n    /* \"#utility.yul\":334:460   */\ntag_10:\n    /* \"#utility.yul\":371:378   */\n  0x00\n    /* \"#utility.yul\":411:453   */\n  0xffffffffffffffffffffffffffffffffffffffff\n    /* \"#utility.yul\":404:409   */\n  dup3\n    /* \"#utility.yul\":400:454   */\n  and\n    /* \"#utility.yul\":389:454   */\n  swap1\n  pop\n    /* \"#utility.yul\":334:460   */\n  swap2\n  swap1\n  pop\n  jump\t// out\n    /* \"#utility.yul\":466:562   */\ntag_11:\n    /* \"#utility.yul\":503:510   */\n  0x00\n    /* \"#utility.yul\":532:556   */\n  tag_20\n    /* \"#utility.yul\":550:555   */\n  dup3\n    /* \"#utility.yul\":532:556   */\n  tag_10\n  jump\t// in\ntag_20:\n    /* \"#utility.yul\":521:556   */\n  swap1\n  pop\n    /* \"#utility.yul\":466:562   */\n  swap2\n  swap1\n  pop\n  jump\t// out\n    /* \"#utility.yul\":568:690   */\ntag_12:\n    /* \"#utility.yul\":641:665   */\n  tag_22\n    /* \"#utility.yul\":659:664   */\n  dup2\n    /* \"#utility.yul\":641:665   */\n  tag_11\n  jump\t// in\ntag_22:\n    /* \"#utility.yul\":634:639   */\n  dup2\n    /* \"#utility.yul\":631:666   */\n  eq\n    /* \"#utility.yul\":621:684   */\n  tag_23\n  jumpi\n    /* \"#utility.yul\":680:681   */\n  0x00\n    /* \"#utility.yul\":677:678   */\n  dup1\n    /* \"#utility.yul\":670:682   */\n  revert\n    /* \"#utility.yul\":621:684   */\ntag_23:\n    /* \"#utility.yul\":568:690   */\n  pop\n  jump\t// out\n    /* \"#utility.yul\":696:839   */\ntag_13:\n    /* \"#utility.yul\":753:758   */\n  0x00\n    /* \"#utility.yul\":784:790   */\n  dup2\n    /* \"#utility.yul\":778:791   */\n  mload\n    /* \"#utility.yul\":769:791   */\n  swap1\n  pop\n    /* \"#utility.yul\":800:833   */\n  tag_25\n    /* \"#utility.yul\":827:832   */\n  dup2\n    /* \"#utility.yul\":800:833   */\n  tag_12\n  jump\t// in\ntag_25:\n    /* \"#utility.yul\":696:839   */\n  swap3\n  swap2\n  pop\n  pop\n  jump\t// out\n    /* \"#utility.yul\":845:1196   */\ntag_3:\n    /* \"#utility.yul\":915:921   */\n  0x00\n    /* \"#utility.yul\":964:966   */\n  0x20\n    /* \"#utility.yul\":952:961   */\n  dup3\n    /* \"#utility.yul\":943:950   */\n  dup5\n    /* \"#utility.yul\":939:962   */\n  sub\n    /* \"#utility.yul\":935:967   */\n  slt\n    /* \"#utility.yul\":932:1051   */\n  iszero\n  tag_27\n  jumpi\n    /* \"#utility.yul\":970:1049   */\n  tag_28\n  tag_8\n  jump\t// in\ntag_28:\n    /* \"#utility.yul\":932:1051   */\ntag_27:\n    /* \"#utility.yul\":1090:1091   */\n  0x00\n    /* \"#utility.yul\":1115:1179   */\n  tag_29\n    /* \"#utility.yul\":1171:1178   */\n  dup5\n    /* \"#utility.yul\":1162:1168   */\n  dup3\n    /* \"#utility.yul\":1151:1160   */\n  dup6\n    /* \"#utility.yul\":1147:1169   */\n  add\n    /* \"#utility.yul\":1115:1179   */\n  tag_13\n  jump\t// in\ntag_29:\n    /* \"#utility.yul\":1105:1179   */\n  swap2\n  pop\n    /* \"#utility.yul\":1061:1189   */\n  pop\n    /* \"#utility.yul\":845:1196   */\n  swap3\n  swap2\n  pop\n  pop\n  jump\t// out\n    /* \"solidity_100/81-90.sol\":2171:2994  contract Q84 {... */\ntag_6:\n  dataSize(sub_0)\n  dup1\n  dataOffset(sub_0)\n  0x00\n  codecopy\n  0x00\n  return\nstop\n\nsub_0: assembly {\n        /* \"solidity_100/81-90.sol\":2171:2994  contract Q84 {... */\n      mstore(0x40, 0x80)\n      callvalue\n      dup1\n      iszero\n      tag_1\n      jumpi\n      0x00\n      dup1\n      revert\n    tag_1:\n      pop\n      jumpi(tag_2, lt(calldatasize, 0x04))\n      shr(0xe0, calldataload(0x00))\n      dup1\n      0xb67d77c5\n      eq\n      tag_3\n      jumpi\n      dup1\n      0xc8a4ac9c\n      eq\n      tag_4\n      jumpi\n      dup1\n      0xcad0899b\n      eq\n      tag_5\n      jumpi\n    tag_2:\n      0x00\n      dup1\n      revert\n        /* \"solidity_100/81-90.sol\":2667:2829  function sub(uint _a, uint _b) public view returns(uint){... */\n    tag_3:\n      tag_6\n      0x04\n      dup1\n      calldatasize\n      sub\n      dup2\n      add\n      swap1\n      tag_7\n      swap2\n      swap1\n      tag_8\n      jump\t// in\n    tag_7:\n      tag_9\n      jump\t// in\n    tag_6:\n      mload(0x40)\n      tag_10\n      swap2\n      swap1\n      tag_11\n      jump\t// in\n    tag_10:\n      mload(0x40)\n      dup1\n      swap2\n      sub\n      swap1\n      return\n        /* \"solidity_100/81-90.sol\":2845:2987  function mul(uint _a, uint _b) public view returns(uint){... */\n    tag_4:\n      tag_12\n      0x04\n      dup1\n      calldatasize\n      sub\n      dup2\n      add\n      swap1\n      tag_13\n      swap2\n      swap1\n      tag_8\n      jump\t// in\n    tag_13:\n      tag_14\n      jump\t// in\n    tag_12:\n      mload(0x40)\n      tag_15\n      swap2\n      swap1\n      tag_11\n      jump\t// in\n    tag_15:\n      mload(0x40)\n      dup1\n      swap2\n      sub\n      swap1\n      return\n        /* \"solidity_100/81-90.sol\":2509:2651  function sum(uint _a, uint _b) public view returns(uint){... */\n    tag_5:\n      tag_16\n      0x04\n      dup1\n      calldatasize\n      sub\n      dup2\n      add\n      swap1\n      tag_17\n      swap2\n      swap1\n      tag_8\n      jump\t// in\n    tag_17:\n      tag_18\n      jump\t// in\n    tag_16:\n      mload(0x40)\n      tag_19\n      swap2\n      swap1\n      tag_11\n      jump\t// in\n    tag_19:\n      mload(0x40)\n      dup1\n      swap2\n      sub\n      swap1\n      return\n        /* \"solidity_100/81-90.sol\":2667:2829  function sub(uint _a, uint _b) public view returns(uint){... */\n    tag_9:\n        /* \"solidity_100/81-90.sol\":2718:2722  uint */\n      0x00\n        /* \"solidity_100/81-90.sol\":2756:2765  blacklist */\n      dup1\n      0x00\n      swap1\n      sload\n      swap1\n      0x0100\n      exp\n      swap1\n      div\n      0xffffffffffffffffffffffffffffffffffffffff\n      and\n        /* \"solidity_100/81-90.sol\":2742:2765  msg.sender != blacklist */\n      0xffffffffffffffffffffffffffffffffffffffff\n      and\n        /* \"solidity_100/81-90.sol\":2742:2752  msg.sender */\n      caller\n        /* \"solidity_100/81-90.sol\":2742:2765  msg.sender != blacklist */\n      0xffffffffffffffffffffffffffffffffffffffff\n      and\n      sub\n        /* \"solidity_100/81-90.sol\":2734:2774  require(msg.sender != blacklist, \"nope\") */\n      tag_21\n      jumpi\n      mload(0x40)\n      0x08c379a000000000000000000000000000000000000000000000000000000000\n      dup2\n      mstore\n      0x04\n      add\n      tag_22\n      swap1\n      tag_23\n      jump\t// in\n    tag_22:\n      mload(0x40)\n      dup1\n      swap2\n      sub\n      swap1\n      revert\n    tag_21:\n        /* \"solidity_100/81-90.sol\":2798:2800  _b */\n      dup2\n        /* \"solidity_100/81-90.sol\":2793:2795  _a */\n      dup4\n        /* \"solidity_100/81-90.sol\":2793:2800  _a > _b */\n      gt\n        /* \"solidity_100/81-90.sol\":2793:2820  _a > _b ? _a - _b : _b - _a */\n      tag_24\n      jumpi\n        /* \"solidity_100/81-90.sol\":2818:2820  _a */\n      dup3\n        /* \"solidity_100/81-90.sol\":2813:2815  _b */\n      dup3\n        /* \"solidity_100/81-90.sol\":2813:2820  _b - _a */\n      tag_25\n      swap2\n      swap1\n      tag_26\n      jump\t// in\n    tag_25:\n        /* \"solidity_100/81-90.sol\":2793:2820  _a > _b ? _a - _b : _b - _a */\n      jump(tag_27)\n    tag_24:\n        /* \"solidity_100/81-90.sol\":2808:2810  _b */\n      dup2\n        /* \"solidity_100/81-90.sol\":2803:2805  _a */\n      dup4\n        /* \"solidity_100/81-90.sol\":2803:2810  _a - _b */\n      tag_28\n      swap2\n      swap1\n      tag_26\n      jump\t// in\n    tag_28:\n        /* \"solidity_100/81-90.sol\":2793:2820  _a > _b ? _a - _b : _b - _a */\n    tag_27:\n        /* \"solidity_100/81-90.sol\":2785:2821  return (_a > _b ? _a - _b : _b - _a) */\n      swap1\n      pop\n        /* \"solidity_100/81-90.sol\":2667:2829  function sub(uint _a, uint _b) public view returns(uint){... */\n      swap3\n      swap2\n      pop\n      pop\n      jump\t// out\n        /* \"solidity_100/81-90.sol\":2845:2987  function mul(uint _a, uint _b) public view returns(uint){... */\n    tag_14:\n        /* \"solidity_100/81-90.sol\":2896:2900  uint */\n      0x00\n        /* \"solidity_100/81-90.sol\":2934:2943  blacklist */\n      dup1\n      0x00\n      swap1\n      sload\n      swap1\n      0x0100\n      exp\n      swap1\n      div\n      0xffffffffffffffffffffffffffffffffffffffff\n      and\n        /* \"solidity_100/81-90.sol\":2920:2943  msg.sender != blacklist */\n      0xffffffffffffffffffffffffffffffffffffffff\n      and\n        /* \"solidity_100/81-90.sol\":2920:2930  msg.sender */\n      caller\n        /* \"solidity_100/81-90.sol\":2920:2943  msg.sender != blacklist */\n      0xffffffffffffffffffffffffffffffffffffffff\n      and\n      sub\n        /* \"solidity_100/81-90.sol\":2912:2952  require(msg.sender != blacklist, \"nope\") */\n      tag_30\n      jumpi\n      mload(0x40)\n      0x08c379a000000000000000000000000000000000000000000000000000000000\n      dup2\n      mstore\n      0x04\n      add\n      tag_31\n      swap1\n      tag_23\n      jump\t// in\n    tag_31:\n      mload(0x40)\n      dup1\n      swap2\n      sub\n      swap1\n      revert\n    tag_30:\n        /* \"solidity_100/81-90.sol\":2976:2978  _b */\n      dup2\n        /* \"solidity_100/81-90.sol\":2971:2973  _a */\n      dup4\n        /* \"solidity_100/81-90.sol\":2971:2978  _a * _b */\n      tag_32\n      swap2\n      swap1\n      tag_33\n      jump\t// in\n    tag_32:\n        /* \"solidity_100/81-90.sol\":2963:2979  return (_a * _b) */\n      swap1\n      pop\n        /* \"solidity_100/81-90.sol\":2845:2987  function mul(uint _a, uint _b) public view returns(uint){... */\n      swap3\n      swap2\n      pop\n      pop\n      jump\t// out\n        /* \"solidity_100/81-90.sol\":2509:2651  function sum(uint _a, uint _b) public view returns(uint){... */\n    tag_18:\n        /* \"solidity_100/81-90.sol\":2560:2564  uint */\n      0x00\n        /* \"solidity_100/81-90.sol\":2598:2607  blacklist */\n      dup1\n      0x00\n      swap1\n      sload\n      swap1\n      0x0100\n      exp\n      swap1\n      div\n      0xffffffffffffffffffffffffffffffffffffffff\n      and\n        /* \"solidity_100/81-90.sol\":2584:2607  msg.sender != blacklist */\n      0xffffffffffffffffffffffffffffffffffffffff\n      and\n        /* \"solidity_100/81-90.sol\":2584:2594  msg.sender */\n      caller\n        /* \"solidity_100/81-90.sol\":2584:2607  msg.sender != blacklist */\n      0xffffffffffffffffffffffffffffffffffffffff\n      and\n      sub\n        /* \"solidity_100/81-90.sol\":2576:2616  require(msg.sender != blacklist, \"nope\") */\n      tag_35\n      jumpi\n      mload(0x40)\n      0x08c379a000000000000000000000000000000000000000000000000000000000\n      dup2\n      mstore\n      0x04\n      add\n      tag_36\n      swap1\n      tag_23\n      jump\t// in\n    tag_36:\n      mload(0x40)\n      dup1\n      swap2\n      sub\n      swap1\n      revert\n    tag_35:\n        /* \"solidity_100/81-90.sol\":2640:2642  _b */\n      dup2\n        /* \"solidity_100/81-90.sol\":2635:2637  _a */\n      dup4\n        /* \"solidity_100/81-90.sol\":2635:2642  _a + _b */\n      tag_37\n      swap2\n      swap1\n      tag_38\n      jump\t// in\n    tag_37:\n        /* \"solidity_100/81-90.sol\":2627:2643  return (_a + _b) */\n      swap1\n      pop\n        /* \"solidity_100/81-90.sol\":2509:2651  function sum(uint _a, uint _b) public view returns(uint){... */\n      swap3\n      swap2\n      pop\n      pop\n      jump\t// out\n        /* \"#utility.yul\":88:205   */\n    tag_40:\n        /* \"#utility.yul\":197:198   */\n      0x00\n        /* \"#utility.yul\":194:195   */\n      dup1\n        /* \"#utility.yul\":187:199   */\n      revert\n        /* \"#utility.yul\":334:411   */\n    tag_42:\n        /* \"#utility.yul\":371:378   */\n      0x00\n        /* \"#utility.yul\":400:405   */\n      dup2\n        /* \"#utility.yul\":389:405   */\n      swap1\n      pop\n        /* \"#utility.yul\":334:411   */\n      swap2\n      swap1\n      pop\n      jump\t// out\n        /* \"#utility.yul\":417:539   */\n    tag_43:\n        /* \"#utility.yul\":490:514   */\n      tag_56\n        /* \"#utility.yul\":508:513   */\n      dup2\n        /* \"#utility.yul\":490:514   */\n      tag_42\n      jump\t// in\n    tag_56:\n        /* \"#utility.yul\":483:488   */\n      dup2\n        /* \"#utility.yul\":480:515   */\n      eq\n        /* \"#utility.yul\":470:533   */\n      tag_57\n      jumpi\n        /* \"#utility.yul\":529:530   */\n      0x00\n        /* \"#utility.yul\":526:527   */\n      dup1\n        /* \"#utility.yul\":519:531   */\n      revert\n        /* \"#utility.yul\":470:533   */\n    tag_57:\n        /* \"#utility.yul\":417:539   */\n      pop\n      jump\t// out\n        /* \"#utility.yul\":545:684   */\n    tag_44:\n        /* \"#utility.yul\":591:596   */\n      0x00\n        /* \"#utility.yul\":629:635   */\n      dup2\n        /* \"#utility.yul\":616:636   */\n      calldataload\n        /* \"#utility.yul\":607:636   */\n      swap1\n      pop\n        /* \"#utility.yul\":645:678   */\n      tag_59\n        /* \"#utility.yul\":672:677   */\n      dup2\n        /* \"#utility.yul\":645:678   */\n      tag_43\n      jump\t// in\n    tag_59:\n        /* \"#utility.yul\":545:684   */\n      swap3\n      swap2\n      pop\n      pop\n      jump\t// out\n        /* \"#utility.yul\":690:1164   */\n    tag_8:\n        /* \"#utility.yul\":758:764   */\n      0x00\n        /* \"#utility.yul\":766:772   */\n      dup1\n        /* \"#utility.yul\":815:817   */\n      0x40\n        /* \"#utility.yul\":803:812   */\n      dup4\n        /* \"#utility.yul\":794:801   */\n      dup6\n        /* \"#utility.yul\":790:813   */\n      sub\n        /* \"#utility.yul\":786:818   */\n      slt\n        /* \"#utility.yul\":783:902   */\n      iszero\n      tag_61\n      jumpi\n        /* \"#utility.yul\":821:900   */\n      tag_62\n      tag_40\n      jump\t// in\n    tag_62:\n        /* \"#utility.yul\":783:902   */\n    tag_61:\n        /* \"#utility.yul\":941:942   */\n      0x00\n        /* \"#utility.yul\":966:1019   */\n      tag_63\n        /* \"#utility.yul\":1011:1018   */\n      dup6\n        /* \"#utility.yul\":1002:1008   */\n      dup3\n        /* \"#utility.yul\":991:1000   */\n      dup7\n        /* \"#utility.yul\":987:1009   */\n      add\n        /* \"#utility.yul\":966:1019   */\n      tag_44\n      jump\t// in\n    tag_63:\n        /* \"#utility.yul\":956:1019   */\n      swap3\n      pop\n        /* \"#utility.yul\":912:1029   */\n      pop\n        /* \"#utility.yul\":1068:1070   */\n      0x20\n        /* \"#utility.yul\":1094:1147   */\n      tag_64\n        /* \"#utility.yul\":1139:1146   */\n      dup6\n        /* \"#utility.yul\":1130:1136   */\n      dup3\n        /* \"#utility.yul\":1119:1128   */\n      dup7\n        /* \"#utility.yul\":1115:1137   */\n      add\n        /* \"#utility.yul\":1094:1147   */\n      tag_44\n      jump\t// in\n    tag_64:\n        /* \"#utility.yul\":1084:1147   */\n      swap2\n      pop\n        /* \"#utility.yul\":1039:1157   */\n      pop\n        /* \"#utility.yul\":690:1164   */\n      swap3\n      pop\n      swap3\n      swap1\n      pop\n      jump\t// out\n        /* \"#utility.yul\":1170:1288   */\n    tag_45:\n        /* \"#utility.yul\":1257:1281   */\n      tag_66\n        /* \"#utility.yul\":1275:1280   */\n      dup2\n        /* \"#utility.yul\":1257:1281   */\n      tag_42\n      jump\t// in\n    tag_66:\n        /* \"#utility.yul\":1252:1255   */\n      dup3\n        /* \"#utility.yul\":1245:1282   */\n      mstore\n        /* \"#utility.yul\":1170:1288   */\n      pop\n      pop\n      jump\t// out\n        /* \"#utility.yul\":1294:1516   */\n    tag_11:\n        /* \"#utility.yul\":1387:1391   */\n      0x00\n        /* \"#utility.yul\":1425:1427   */\n      0x20\n        /* \"#utility.yul\":1414:1423   */\n      dup3\n        /* \"#utility.yul\":1410:1428   */\n      add\n        /* \"#utility.yul\":1402:1428   */\n      swap1\n      pop\n        /* \"#utility.yul\":1438:1509   */\n      tag_68\n        /* \"#utility.yul\":1506:1507   */\n      0x00\n        /* \"#utility.yul\":1495:1504   */\n      dup4\n        /* \"#utility.yul\":1491:1508   */\n      add\n        /* \"#utility.yul\":1482:1488   */\n      dup5\n        /* \"#utility.yul\":1438:1509   */\n      tag_45\n      jump\t// in\n    tag_68:\n        /* \"#utility.yul\":1294:1516   */\n      swap3\n      swap2\n      pop\n      pop\n      jump\t// out\n        /* \"#utility.yul\":1522:1691   */\n    tag_46:\n        /* \"#utility.yul\":1606:1617   */\n      0x00\n        /* \"#utility.yul\":1640:1646   */\n      dup3\n        /* \"#utility.yul\":1635:1638   */\n      dup3\n        /* \"#utility.yul\":1628:1647   */\n      mstore\n        /* \"#utility.yul\":1680:1684   */\n      0x20\n        /* \"#utility.yul\":1675:1678   */\n      dup3\n        /* \"#utility.yul\":1671:1685   */\n      add\n        /* \"#utility.yul\":1656:1685   */\n      swap1\n      pop\n        /* \"#utility.yul\":1522:1691   */\n      swap3\n      swap2\n      pop\n      pop\n      jump\t// out\n        /* \"#utility.yul\":1697:1851   */\n    tag_47:\n        /* \"#utility.yul\":1837:1843   */\n      0x6e6f706500000000000000000000000000000000000000000000000000000000\n        /* \"#utility.yul\":1833:1834   */\n      0x00\n        /* \"#utility.yul\":1825:1831   */\n      dup3\n        /* \"#utility.yul\":1821:1835   */\n      add\n        /* \"#utility.yul\":1814:1844   */\n      mstore\n        /* \"#utility.yul\":1697:1851   */\n      pop\n      jump\t// out\n        /* \"#utility.yul\":1857:2222   */\n    tag_48:\n        /* \"#utility.yul\":1999:2002   */\n      0x00\n        /* \"#utility.yul\":2020:2086   */\n      tag_72\n        /* \"#utility.yul\":2084:2085   */\n      0x04\n        /* \"#utility.yul\":2079:2082   */\n      dup4\n        /* \"#utility.yul\":2020:2086   */\n      tag_46\n      jump\t// in\n    tag_72:\n        /* \"#utility.yul\":2013:2086   */\n      swap2\n      pop\n        /* \"#utility.yul\":2095:2188   */\n      tag_73\n        /* \"#utility.yul\":2184:2187   */\n      dup3\n        /* \"#utility.yul\":2095:2188   */\n      tag_47\n      jump\t// in\n    tag_73:\n        /* \"#utility.yul\":2213:2215   */\n      0x20\n        /* \"#utility.yul\":2208:2211   */\n      dup3\n        /* \"#utility.yul\":2204:2216   */\n      add\n        /* \"#utility.yul\":2197:2216   */\n      swap1\n      pop\n        /* \"#utility.yul\":1857:2222   */\n      swap2\n      swap1\n      pop\n      jump\t// out\n        /* \"#utility.yul\":2228:2647   */\n    tag_23:\n        /* \"#utility.yul\":2394:2398   */\n      0x00\n        /* \"#utility.yul\":2432:2434   */\n      0x20\n        /* \"#utility.yul\":2421:2430   */\n      dup3\n        /* \"#utility.yul\":2417:2435   */\n      add\n        /* \"#utility.yul\":2409:2435   */\n      swap1\n      pop\n        /* \"#utility.yul\":2481:2490   */\n      dup2\n        /* \"#utility.yul\":2475:2479   */\n      dup2\n        /* \"#utility.yul\":2471:2491   */\n      sub\n        /* \"#utility.yul\":2467:2468   */\n      0x00\n        /* \"#utility.yul\":2456:2465   */\n      dup4\n        /* \"#utility.yul\":2452:2469   */\n      add\n        /* \"#utility.yul\":2445:2492   */\n      mstore\n        /* \"#utility.yul\":2509:2640   */\n      tag_75\n        /* \"#utility.yul\":2635:2639   */\n      dup2\n        /* \"#utility.yul\":2509:2640   */\n      tag_48\n      jump\t// in\n    tag_75:\n        /* \"#utility.yul\":2501:2640   */\n      swap1\n      pop\n        /* \"#utility.yul\":2228:2647   */\n      swap2\n      swap1\n      pop\n      jump\t// out\n        /* \"#utility.yul\":2653:2833   */\n    tag_49:\n        /* \"#utility.yul\":2701:2778   */\n      0x4e487b7100000000000000000000000000000000000000000000000000000000\n        /* \"#utility.yul\":2698:2699   */\n      0x00\n        /* \"#utility.yul\":2691:2779   */\n      mstore\n        /* \"#utility.yul\":2798:2802   */\n      0x11\n        /* \"#utility.yul\":2795:2796   */\n      0x04\n        /* \"#utility.yul\":2788:2803   */\n      mstore\n        /* \"#utility.yul\":2822:2826   */\n      0x24\n        /* \"#utility.yul\":2819:2820   */\n      0x00\n        /* \"#utility.yul\":2812:2827   */\n      revert\n        /* \"#utility.yul\":2839:3033   */\n    tag_26:\n        /* \"#utility.yul\":2879:2883   */\n      0x00\n        /* \"#utility.yul\":2899:2919   */\n      tag_78\n        /* \"#utility.yul\":2917:2918   */\n      dup3\n        /* \"#utility.yul\":2899:2919   */\n      tag_42\n      jump\t// in\n    tag_78:\n        /* \"#utility.yul\":2894:2919   */\n      swap2\n      pop\n        /* \"#utility.yul\":2933:2953   */\n      tag_79\n        /* \"#utility.yul\":2951:2952   */\n      dup4\n        /* \"#utility.yul\":2933:2953   */\n      tag_42\n      jump\t// in\n    tag_79:\n        /* \"#utility.yul\":2928:2953   */\n      swap3\n      pop\n        /* \"#utility.yul\":2977:2978   */\n      dup3\n        /* \"#utility.yul\":2974:2975   */\n      dup3\n        /* \"#utility.yul\":2970:2979   */\n      sub\n        /* \"#utility.yul\":2962:2979   */\n      swap1\n      pop\n        /* \"#utility.yul\":3001:3002   */\n      dup2\n        /* \"#utility.yul\":2995:2999   */\n      dup2\n        /* \"#utility.yul\":2992:3003   */\n      gt\n        /* \"#utility.yul\":2989:3026   */\n      iszero\n      tag_80\n      jumpi\n        /* \"#utility.yul\":3006:3024   */\n      tag_81\n      tag_49\n      jump\t// in\n    tag_81:\n        /* \"#utility.yul\":2989:3026   */\n    tag_80:\n        /* \"#utility.yul\":2839:3033   */\n      swap3\n      swap2\n      pop\n      pop\n      jump\t// out\n        /* \"#utility.yul\":3039:3449   */\n    tag_33:\n        /* \"#utility.yul\":3079:3086   */\n      0x00\n        /* \"#utility.yul\":3102:3122   */\n      tag_83\n        /* \"#utility.yul\":3120:3121   */\n      dup3\n        /* \"#utility.yul\":3102:3122   */\n      tag_42\n      jump\t// in\n    tag_83:\n        /* \"#utility.yul\":3097:3122   */\n      swap2\n      pop\n        /* \"#utility.yul\":3136:3156   */\n      tag_84\n        /* \"#utility.yul\":3154:3155   */\n      dup4\n        /* \"#utility.yul\":3136:3156   */\n      tag_42\n      jump\t// in\n    tag_84:\n        /* \"#utility.yul\":3131:3156   */\n      swap3\n      pop\n        /* \"#utility.yul\":3191:3192   */\n      dup3\n        /* \"#utility.yul\":3188:3189   */\n      dup3\n        /* \"#utility.yul\":3184:3193   */\n      mul\n        /* \"#utility.yul\":3213:3243   */\n      tag_85\n        /* \"#utility.yul\":3231:3242   */\n      dup2\n        /* \"#utility.yul\":3213:3243   */\n      tag_42\n      jump\t// in\n    tag_85:\n        /* \"#utility.yul\":3202:3243   */\n      swap2\n      pop\n        /* \"#utility.yul\":3392:3393   */\n      dup3\n        /* \"#utility.yul\":3383:3390   */\n      dup3\n        /* \"#utility.yul\":3379:3394   */\n      div\n        /* \"#utility.yul\":3376:3377   */\n      dup5\n        /* \"#utility.yul\":3373:3395   */\n      eq\n        /* \"#utility.yul\":3353:3354   */\n      dup4\n        /* \"#utility.yul\":3346:3355   */\n      iszero\n        /* \"#utility.yul\":3326:3409   */\n      or\n        /* \"#utility.yul\":3303:3442   */\n      tag_86\n      jumpi\n        /* \"#utility.yul\":3422:3440   */\n      tag_87\n      tag_49\n      jump\t// in\n    tag_87:\n        /* \"#utility.yul\":3303:3442   */\n    tag_86:\n        /* \"#utility.yul\":3087:3449   */\n      pop\n        /* \"#utility.yul\":3039:3449   */\n      swap3\n      swap2\n      pop\n      pop\n      jump\t// out\n        /* \"#utility.yul\":3455:3646   */\n    tag_38:\n        /* \"#utility.yul\":3495:3498   */\n      0x00\n        /* \"#utility.yul\":3514:3534   */\n      tag_89\n        /* \"#utility.yul\":3532:3533   */\n      dup3\n        /* \"#utility.yul\":3514:3534   */\n      tag_42\n      jump\t// in\n    tag_89:\n        /* \"#utility.yul\":3509:3534   */\n      swap2\n      pop\n        /* \"#utility.yul\":3548:3568   */\n      tag_90\n        /* \"#utility.yul\":3566:3567   */\n      dup4\n        /* \"#utility.yul\":3548:3568   */\n      tag_42\n      jump\t// in\n    tag_90:\n        /* \"#utility.yul\":3543:3568   */\n      swap3\n      pop\n        /* \"#utility.yul\":3591:3592   */\n      dup3\n        /* \"#utility.yul\":3588:3589   */\n      dup3\n        /* \"#utility.yul\":3584:3593   */\n      add\n        /* \"#utility.yul\":3577:3593   */\n      swap1\n      pop\n        /* \"#utility.yul\":3612:3615   */\n      dup1\n        /* \"#utility.yul\":3609:3610   */\n      dup3\n        /* \"#utility.yul\":3606:3616   */\n      gt\n        /* \"#utility.yul\":3603:3639   */\n      iszero\n      tag_91\n      jumpi\n        /* \"#utility.yul\":3619:3637   */\n      tag_92\n      tag_49\n      jump\t// in\n    tag_92:\n        /* \"#utility.yul\":3603:3639   */\n    tag_91:\n        /* \"#utility.yul\":3455:3646   */\n      swap3\n      swap2\n      pop\n      pop\n      jump\t// out\n\n    auxdata: 0xa264697066735822122047fed1406e9a2a9f2918074c11fac7e570246718eb2154889e2c77dae9ba6efb64736f6c63430008190033\n}\n",
				"bytecode": {
					"linkReferences": {},
					"object": "608060405234801561000f575f80fd5b50604051610600380380610600833981810160405281019061003191906100d4565b805f806101000a81548173ffffffffffffffffffffffffffffffffffffffff021916908373ffffffffffffffffffffffffffffffffffffffff160217905550506100ff565b5f80fd5b5f73ffffffffffffffffffffffffffffffffffffffff82169050919050565b5f6100a38261007a565b9050919050565b6100b381610099565b81146100bd575f80fd5b50565b5f815190506100ce816100aa565b92915050565b5f602082840312156100e9576100e8610076565b5b5f6100f6848285016100c0565b91505092915050565b6104f48061010c5f395ff3fe608060405234801561000f575f80fd5b506004361061003f575f3560e01c8063b67d77c514610043578063c8a4ac9c14610073578063cad0899b146100a3575b5f80fd5b61005d6004803603810190610058919061030c565b6100d3565b60405161006a9190610359565b60405180910390f35b61008d6004803603810190610088919061030c565b61018f565b60405161009a9190610359565b60405180910390f35b6100bd60048036038101906100b8919061030c565b610232565b6040516100ca9190610359565b60405180910390f35b5f805f9054906101000a900473ffffffffffffffffffffffffffffffffffffffff1673ffffffffffffffffffffffffffffffffffffffff163373ffffffffffffffffffffffffffffffffffffffff1603610162576040517f08c379a0000000000000000000000000000000000000000000000000000000008152600401610159906103cc565b60405180910390fd5b81831161017a5782826101759190610417565b610187565b81836101869190610417565b5b905092915050565b5f805f9054906101000a900473ffffffffffffffffffffffffffffffffffffffff1673ffffffffffffffffffffffffffffffffffffffff163373ffffffffffffffffffffffffffffffffffffffff160361021e576040517f08c379a0000000000000000000000000000000000000000000000000000000008152600401610215906103cc565b60405180910390fd5b818361022a919061044a565b905092915050565b5f805f9054906101000a900473ffffffffffffffffffffffffffffffffffffffff1673ffffffffffffffffffffffffffffffffffffffff163373ffffffffffffffffffffffffffffffffffffffff16036102c1576040517f08c379a00000000000000000000000000000000000000000000000000000000081526004016102b8906103cc565b60405180910390fd5b81836102cd919061048b565b905092915050565b5f80fd5b5f819050919050565b6102eb816102d9565b81146102f5575f80fd5b50565b5f81359050610306816102e2565b92915050565b5f8060408385031215610322576103216102d5565b5b5f61032f858286016102f8565b9250506020610340858286016102f8565b9150509250929050565b610353816102d9565b82525050565b5f60208201905061036c5f83018461034a565b92915050565b5f82825260208201905092915050565b7f6e6f7065000000000000000000000000000000000000000000000000000000005f82015250565b5f6103b6600483610372565b91506103c182610382565b602082019050919050565b5f6020820190508181035f8301526103e3816103aa565b9050919050565b7f4e487b71000000000000000000000000000000000000000000000000000000005f52601160045260245ffd5b5f610421826102d9565b915061042c836102d9565b9250828203905081811115610444576104436103ea565b5b92915050565b5f610454826102d9565b915061045f836102d9565b925082820261046d816102d9565b91508282048414831517610484576104836103ea565b5b5092915050565b5f610495826102d9565b91506104a0836102d9565b92508282019050808211156104b8576104b76103ea565b5b9291505056fea264697066735822122047fed1406e9a2a9f2918074c11fac7e570246718eb2154889e2c77dae9ba6efb64736f6c63430008190033",
					"opcodes": "PUSH1 0x80 PUSH1 0x40 MSTORE CALLVALUE DUP1 ISZERO PUSH2 0xF JUMPI PUSH0 DUP1 REVERT JUMPDEST POP PUSH1 0x40 MLOAD PUSH2 0x600 CODESIZE SUB DUP1 PUSH2 0x600 DUP4 CODECOPY DUP2 DUP2 ADD PUSH1 0x40 MSTORE DUP2 ADD SWAP1 PUSH2 0x31 SWAP2 SWAP1 PUSH2 0xD4 JUMP JUMPDEST DUP1 PUSH0 DUP1 PUSH2 0x100 EXP DUP2 SLOAD DUP2 PUSH20 0xFFFFFFFFFFFFFFFFFFFFFFFFFFFFFFFFFFFFFFFF MUL NOT AND SWAP1 DUP4 PUSH20 0xFFFFFFFFFFFFFFFFFFFFFFFFFFFFFFFFFFFFFFFF AND MUL OR SWAP1 SSTORE POP POP PUSH2 0xFF JUMP JUMPDEST PUSH0 DUP1 REVERT JUMPDEST PUSH0 PUSH20 0xFFFFFFFFFFFFFFFFFFFFFFFFFFFFFFFFFFFFFFFF DUP3 AND SWAP1 POP SWAP2 SWAP1 POP JUMP JUMPDEST PUSH0 PUSH2 0xA3 DUP3 PUSH2 0x7A JUMP JUMPDEST SWAP1 POP SWAP2 SWAP1 POP JUMP JUMPDEST PUSH2 0xB3 DUP2 PUSH2 0x99 JUMP JUMPDEST DUP2 EQ PUSH2 0xBD JUMPI PUSH0 DUP1 REVERT JUMPDEST POP JUMP JUMPDEST PUSH0 DUP2 MLOAD SWAP1 POP PUSH2 0xCE DUP2 PUSH2 0xAA JUMP JUMPDEST SWAP3 SWAP2 POP POP JUMP JUMPDEST PUSH0 PUSH1 0x20 DUP3 DUP5 SUB SLT ISZERO PUSH2 0xE9 JUMPI PUSH2 0xE8 PUSH2 0x76 JUMP JUMPDEST JUMPDEST PUSH0 PUSH2 0xF6 DUP5 DUP3 DUP6 ADD PUSH2 0xC0 JUMP JUMPDEST SWAP2 POP POP SWAP3 SWAP2 POP POP JUMP JUMPDEST PUSH2 0x4F4 DUP1 PUSH2 0x10C PUSH0 CODECOPY PUSH0 RETURN INVALID PUSH1 0x80 PUSH1 0x40 MSTORE CALLVALUE DUP1 ISZERO PUSH2 0xF JUMPI PUSH0 DUP1 REVERT JUMPDEST POP PUSH1 0x4 CALLDATASIZE LT PUSH2 0x3F JUMPI PUSH0 CALLDATALOAD PUSH1 0xE0 SHR DUP1 PUSH4 0xB67D77C5 EQ PUSH2 0x43 JUMPI DUP1 PUSH4 0xC8A4AC9C EQ PUSH2 0x73 JUMPI DUP1 PUSH4 0xCAD0899B EQ PUSH2 0xA3 JUMPI JUMPDEST PUSH0 DUP1 REVERT JUMPDEST PUSH2 0x5D PUSH1 0x4 DUP1 CALLDATASIZE SUB DUP2 ADD SWAP1 PUSH2 0x58 SWAP2 SWAP1 PUSH2 0x30C JUMP JUMPDEST PUSH2 0xD3 JUMP JUMPDEST PUSH1 0x40 MLOAD PUSH2 0x6A SWAP2 SWAP1 PUSH2 0x359 JUMP JUMPDEST PUSH1 0x40 MLOAD DUP1 SWAP2 SUB SWAP1 RETURN JUMPDEST PUSH2 0x8D PUSH1 0x4 DUP1 CALLDATASIZE SUB DUP2 ADD SWAP1 PUSH2 0x88 SWAP2 SWAP1 PUSH2 0x30C JUMP JUMPDEST PUSH2 0x18F JUMP JUMPDEST PUSH1 0x40 MLOAD PUSH2 0x9A SWAP2 SWAP1 PUSH2 0x359 JUMP JUMPDEST PUSH1 0x40 MLOAD DUP1 SWAP2 SUB SWAP1 RETURN JUMPDEST PUSH2 0xBD PUSH1 0x4 DUP1 CALLDATASIZE SUB DUP2 ADD SWAP1 PUSH2 0xB8 SWAP2 SWAP1 PUSH2 0x30C JUMP JUMPDEST PUSH2 0x232 JUMP JUMPDEST PUSH1 0x40 MLOAD PUSH2 0xCA SWAP2 SWAP1 PUSH2 0x359 JUMP JUMPDEST PUSH1 0x40 MLOAD DUP1 SWAP2 SUB SWAP1 RETURN JUMPDEST PUSH0 DUP1 PUSH0 SWAP1 SLOAD SWAP1 PUSH2 0x100 EXP SWAP1 DIV PUSH20 0xFFFFFFFFFFFFFFFFFFFFFFFFFFFFFFFFFFFFFFFF AND PUSH20 0xFFFFFFFFFFFFFFFFFFFFFFFFFFFFFFFFFFFFFFFF AND CALLER PUSH20 0xFFFFFFFFFFFFFFFFFFFFFFFFFFFFFFFFFFFFFFFF AND SUB PUSH2 0x162 JUMPI PUSH1 0x40 MLOAD PUSH32 0x8C379A000000000000000000000000000000000000000000000000000000000 DUP2 MSTORE PUSH1 0x4 ADD PUSH2 0x159 SWAP1 PUSH2 0x3CC JUMP JUMPDEST PUSH1 0x40 MLOAD DUP1 SWAP2 SUB SWAP1 REVERT JUMPDEST DUP2 DUP4 GT PUSH2 0x17A JUMPI DUP3 DUP3 PUSH2 0x175 SWAP2 SWAP1 PUSH2 0x417 JUMP JUMPDEST PUSH2 0x187 JUMP JUMPDEST DUP2 DUP4 PUSH2 0x186 SWAP2 SWAP1 PUSH2 0x417 JUMP JUMPDEST JUMPDEST SWAP1 POP SWAP3 SWAP2 POP POP JUMP JUMPDEST PUSH0 DUP1 PUSH0 SWAP1 SLOAD SWAP1 PUSH2 0x100 EXP SWAP1 DIV PUSH20 0xFFFFFFFFFFFFFFFFFFFFFFFFFFFFFFFFFFFFFFFF AND PUSH20 0xFFFFFFFFFFFFFFFFFFFFFFFFFFFFFFFFFFFFFFFF AND CALLER PUSH20 0xFFFFFFFFFFFFFFFFFFFFFFFFFFFFFFFFFFFFFFFF AND SUB PUSH2 0x21E JUMPI PUSH1 0x40 MLOAD PUSH32 0x8C379A000000000000000000000000000000000000000000000000000000000 DUP2 MSTORE PUSH1 0x4 ADD PUSH2 0x215 SWAP1 PUSH2 0x3CC JUMP JUMPDEST PUSH1 0x40 MLOAD DUP1 SWAP2 SUB SWAP1 REVERT JUMPDEST DUP2 DUP4 PUSH2 0x22A SWAP2 SWAP1 PUSH2 0x44A JUMP JUMPDEST SWAP1 POP SWAP3 SWAP2 POP POP JUMP JUMPDEST PUSH0 DUP1 PUSH0 SWAP1 SLOAD SWAP1 PUSH2 0x100 EXP SWAP1 DIV PUSH20 0xFFFFFFFFFFFFFFFFFFFFFFFFFFFFFFFFFFFFFFFF AND PUSH20 0xFFFFFFFFFFFFFFFFFFFFFFFFFFFFFFFFFFFFFFFF AND CALLER PUSH20 0xFFFFFFFFFFFFFFFFFFFFFFFFFFFFFFFFFFFFFFFF AND SUB PUSH2 0x2C1 JUMPI PUSH1 0x40 MLOAD PUSH32 0x8C379A000000000000000000000000000000000000000000000000000000000 DUP2 MSTORE PUSH1 0x4 ADD PUSH2 0x2B8 SWAP1 PUSH2 0x3CC JUMP JUMPDEST PUSH1 0x40 MLOAD DUP1 SWAP2 SUB SWAP1 REVERT JUMPDEST DUP2 DUP4 PUSH2 0x2CD SWAP2 SWAP1 PUSH2 0x48B JUMP JUMPDEST SWAP1 POP SWAP3 SWAP2 POP POP JUMP JUMPDEST PUSH0 DUP1 REVERT JUMPDEST PUSH0 DUP2 SWAP1 POP SWAP2 SWAP1 POP JUMP JUMPDEST PUSH2 0x2EB DUP2 PUSH2 0x2D9 JUMP JUMPDEST DUP2 EQ PUSH2 0x2F5 JUMPI PUSH0 DUP1 REVERT JUMPDEST POP JUMP JUMPDEST PUSH0 DUP2 CALLDATALOAD SWAP1 POP PUSH2 0x306 DUP2 PUSH2 0x2E2 JUMP JUMPDEST SWAP3 SWAP2 POP POP JUMP JUMPDEST PUSH0 DUP1 PUSH1 0x40 DUP4 DUP6 SUB SLT ISZERO PUSH2 0x322 JUMPI PUSH2 0x321 PUSH2 0x2D5 JUMP JUMPDEST JUMPDEST PUSH0 PUSH2 0x32F DUP6 DUP3 DUP7 ADD PUSH2 0x2F8 JUMP JUMPDEST SWAP3 POP POP PUSH1 0x20 PUSH2 0x340 DUP6 DUP3 DUP7 ADD PUSH2 0x2F8 JUMP JUMPDEST SWAP2 POP POP SWAP3 POP SWAP3 SWAP1 POP JUMP JUMPDEST PUSH2 0x353 DUP2 PUSH2 0x2D9 JUMP JUMPDEST DUP3 MSTORE POP POP JUMP JUMPDEST PUSH0 PUSH1 0x20 DUP3 ADD SWAP1 POP PUSH2 0x36C PUSH0 DUP4 ADD DUP5 PUSH2 0x34A JUMP JUMPDEST SWAP3 SWAP2 POP POP JUMP JUMPDEST PUSH0 DUP3 DUP3 MSTORE PUSH1 0x20 DUP3 ADD SWAP1 POP SWAP3 SWAP2 POP POP JUMP JUMPDEST PUSH32 0x6E6F706500000000000000000000000000000000000000000000000000000000 PUSH0 DUP3 ADD MSTORE POP JUMP JUMPDEST PUSH0 PUSH2 0x3B6 PUSH1 0x4 DUP4 PUSH2 0x372 JUMP JUMPDEST SWAP2 POP PUSH2 0x3C1 DUP3 PUSH2 0x382 JUMP JUMPDEST PUSH1 0x20 DUP3 ADD SWAP1 POP SWAP2 SWAP1 POP JUMP JUMPDEST PUSH0 PUSH1 0x20 DUP3 ADD SWAP1 POP DUP2 DUP2 SUB PUSH0 DUP4 ADD MSTORE PUSH2 0x3E3 DUP2 PUSH2 0x3AA JUMP JUMPDEST SWAP1 POP SWAP2 SWAP1 POP JUMP JUMPDEST PUSH32 0x4E487B7100000000000000000000000000000000000000000000000000000000 PUSH0 MSTORE PUSH1 0x11 PUSH1 0x4 MSTORE PUSH1 0x24 PUSH0 REVERT JUMPDEST PUSH0 PUSH2 0x421 DUP3 PUSH2 0x2D9 JUMP JUMPDEST SWAP2 POP PUSH2 0x42C DUP4 PUSH2 0x2D9 JUMP JUMPDEST SWAP3 POP DUP3 DUP3 SUB SWAP1 POP DUP2 DUP2 GT ISZERO PUSH2 0x444 JUMPI PUSH2 0x443 PUSH2 0x3EA JUMP JUMPDEST JUMPDEST SWAP3 SWAP2 POP POP JUMP JUMPDEST PUSH0 PUSH2 0x454 DUP3 PUSH2 0x2D9 JUMP JUMPDEST SWAP2 POP PUSH2 0x45F DUP4 PUSH2 0x2D9 JUMP JUMPDEST SWAP3 POP DUP3 DUP3 MUL PUSH2 0x46D DUP2 PUSH2 0x2D9 JUMP JUMPDEST SWAP2 POP DUP3 DUP3 DIV DUP5 EQ DUP4 ISZERO OR PUSH2 0x484 JUMPI PUSH2 0x483 PUSH2 0x3EA JUMP JUMPDEST JUMPDEST POP SWAP3 SWAP2 POP POP JUMP JUMPDEST PUSH0 PUSH2 0x495 DUP3 PUSH2 0x2D9 JUMP JUMPDEST SWAP2 POP PUSH2 0x4A0 DUP4 PUSH2 0x2D9 JUMP JUMPDEST SWAP3 POP DUP3 DUP3 ADD SWAP1 POP DUP1 DUP3 GT ISZERO PUSH2 0x4B8 JUMPI PUSH2 0x4B7 PUSH2 0x3EA JUMP JUMPDEST JUMPDEST SWAP3 SWAP2 POP POP JUMP INVALID LOG2 PUSH5 0x6970667358 0x22 SLT KECCAK256 SELFBALANCE INVALID 0xD1 BLOCKHASH PUSH15 0x9A2A9F2918074C11FAC7E570246718 0xEB 0x21 SLOAD DUP9 SWAP15 0x2C PUSH24 0xDAE9BA6EFB64736F6C634300081900330000000000000000 "
				},
				"gasEstimates": {
					"creation": {
						"codeDepositCost": "253600",
						"executionCost": "infinite",
						"totalCost": "infinite"
					},
					"external": {
						"mul(uint256,uint256)": "infinite",
						"sub(uint256,uint256)": "infinite",
						"sum(uint256,uint256)": "infinite"
					}
				},
				"methodIdentifiers": {
					"mul(uint256,uint256)": "c8a4ac9c",
					"sub(uint256,uint256)": "b67d77c5",
					"sum(uint256,uint256)": "cad0899b"
				}
			},
			"storageLayout": {
				"storage": [
					{
						"astId": 201,
						"contract": "solidity_100/81-90.sol:Q84",
						"label": "blacklist",
						"offset": 0,
						"slot": "0",
						"type": "t_address"
					}
				],
				"types": {
					"t_address": {
						"encoding": "inplace",
						"label": "address",
						"numberOfBytes": "20"
					}
				}
			},
			"userdoc": {
				"kind": "user",
				"methods": {},
				"version": 1
			}
		}
	}
}