{
	"solidity_100/81-90.sol": {
		"Q89": {
			"abi": [
				{
					"inputs": [],
					"name": "getC1",
					"outputs": [
						{
							"components": [
								{
									"internalType": "string",
									"name": "name",
									"type": "string"
								},
								{
									"internalType": "string",
									"name": "selfIntro",
									"type": "string"
								}
							],
							"internalType": "struct Q89.Customer",
							"name": "",
							"type": "tuple"
						}
					],
					"stateMutability": "view",
					"type": "function"
				},
				{
					"inputs": [
						{
							"internalType": "string",
							"name": "_name",
							"type": "string"
						},
						{
							"internalType": "string",
							"name": "_selfIntro",
							"type": "string"
						}
					],
					"name": "setC1",
					"outputs": [],
					"stateMutability": "nonpayable",
					"type": "function"
				}
			],
			"devdoc": {
				"kind": "dev",
				"methods": {},
				"version": 1
			},
			"evm": {
				"assembly": "    /* \"solidity_100/81-90.sol\":5065:5923  contract Q89 {... */\n  mstore(0x40, 0x80)\n  callvalue\n  dup1\n  iszero\n  tag_1\n  jumpi\n  0x00\n  dup1\n  revert\ntag_1:\n  pop\n  dataSize(sub_0)\n  dup1\n  dataOffset(sub_0)\n  0x00\n  codecopy\n  0x00\n  return\nstop\n\nsub_0: assembly {\n        /* \"solidity_100/81-90.sol\":5065:5923  contract Q89 {... */\n      mstore(0x40, 0x80)\n      callvalue\n      dup1\n      iszero\n      tag_1\n      jumpi\n      0x00\n      dup1\n      revert\n    tag_1:\n      pop\n      jumpi(tag_2, lt(calldatasize, 0x04))\n      shr(0xe0, calldataload(0x00))\n      dup1\n      0x432f8424\n      eq\n      tag_3\n      jumpi\n      dup1\n      0xa76f54d2\n      eq\n      tag_4\n      jumpi\n    tag_2:\n      0x00\n      dup1\n      revert\n        /* \"solidity_100/81-90.sol\":5497:5830  function setC1 (string memory _name, string memory _selfIntro) public {... */\n    tag_3:\n      tag_5\n      0x04\n      dup1\n      calldatasize\n      sub\n      dup2\n      add\n      swap1\n      tag_6\n      swap2\n      swap1\n      tag_7\n      jump\t// in\n    tag_6:\n      tag_8\n      jump\t// in\n    tag_5:\n      stop\n        /* \"solidity_100/81-90.sol\":5838:5920  function getC1() public view returns(Customer memory) {... */\n    tag_4:\n      tag_9\n      tag_10\n      jump\t// in\n    tag_9:\n      mload(0x40)\n      tag_11\n      swap2\n      swap1\n      tag_12\n      jump\t// in\n    tag_11:\n      mload(0x40)\n      dup1\n      swap2\n      sub\n      swap1\n      return\n        /* \"solidity_100/81-90.sol\":5497:5830  function setC1 (string memory _name, string memory _selfIntro) public {... */\n    tag_8:\n        /* \"solidity_100/81-90.sol\":5608:5609  4 */\n      0x04\n        /* \"solidity_100/81-90.sol\":5592:5597  _name */\n      dup3\n        /* \"solidity_100/81-90.sol\":5586:5605  bytes(_name).length */\n      mload\n        /* \"solidity_100/81-90.sol\":5586:5609  bytes(_name).length > 4 */\n      gt\n        /* \"solidity_100/81-90.sol\":5586:5636  bytes(_name).length > 4 && bytes(_name).length <11 */\n      dup1\n      iszero\n      tag_14\n      jumpi\n      pop\n        /* \"solidity_100/81-90.sol\":5634:5636  11 */\n      0x0b\n        /* \"solidity_100/81-90.sol\":5619:5624  _name */\n      dup3\n        /* \"solidity_100/81-90.sol\":5613:5632  bytes(_name).length */\n      mload\n        /* \"solidity_100/81-90.sol\":5613:5636  bytes(_name).length <11 */\n      lt\n        /* \"solidity_100/81-90.sol\":5586:5636  bytes(_name).length > 4 && bytes(_name).length <11 */\n    tag_14:\n        /* \"solidity_100/81-90.sol\":5578:5667  require(bytes(_name).length > 4 && bytes(_name).length <11, \"put letter betwwen 5 to 10\") */\n      tag_15\n      jumpi\n      mload(0x40)\n      0x08c379a000000000000000000000000000000000000000000000000000000000\n      dup2\n      mstore\n      0x04\n      add\n      tag_16\n      swap1\n      tag_17\n      jump\t// in\n    tag_16:\n      mload(0x40)\n      dup1\n      swap2\n      sub\n      swap1\n      revert\n    tag_15:\n        /* \"solidity_100/81-90.sol\":5713:5715  19 */\n      0x13\n        /* \"solidity_100/81-90.sol\":5692:5702  _selfIntro */\n      dup2\n        /* \"solidity_100/81-90.sol\":5686:5710  bytes(_selfIntro).length */\n      mload\n        /* \"solidity_100/81-90.sol\":5686:5715  bytes(_selfIntro).length > 19 */\n      gt\n        /* \"solidity_100/81-90.sol\":5686:5747  bytes(_selfIntro).length > 19 && bytes(_selfIntro).length <51 */\n      dup1\n      iszero\n      tag_18\n      jumpi\n      pop\n        /* \"solidity_100/81-90.sol\":5745:5747  51 */\n      0x33\n        /* \"solidity_100/81-90.sol\":5725:5735  _selfIntro */\n      dup2\n        /* \"solidity_100/81-90.sol\":5719:5743  bytes(_selfIntro).length */\n      mload\n        /* \"solidity_100/81-90.sol\":5719:5747  bytes(_selfIntro).length <51 */\n      lt\n        /* \"solidity_100/81-90.sol\":5686:5747  bytes(_selfIntro).length > 19 && bytes(_selfIntro).length <51 */\n    tag_18:\n        /* \"solidity_100/81-90.sol\":5678:5779  require(bytes(_selfIntro).length > 19 && bytes(_selfIntro).length <51, \"put letter betwwen 20 to 50\") */\n      tag_19\n      jumpi\n      mload(0x40)\n      0x08c379a000000000000000000000000000000000000000000000000000000000\n      dup2\n      mstore\n      0x04\n      add\n      tag_20\n      swap1\n      tag_21\n      jump\t// in\n    tag_20:\n      mload(0x40)\n      dup1\n      swap2\n      sub\n      swap1\n      revert\n    tag_19:\n        /* \"solidity_100/81-90.sol\":5795:5822  Customer(_name, _selfIntro) */\n      mload(0x40)\n      dup1\n      0x40\n      add\n      0x40\n      mstore\n      dup1\n        /* \"solidity_100/81-90.sol\":5804:5809  _name */\n      dup4\n        /* \"solidity_100/81-90.sol\":5795:5822  Customer(_name, _selfIntro) */\n      dup2\n      mstore\n      0x20\n      add\n        /* \"solidity_100/81-90.sol\":5811:5821  _selfIntro */\n      dup3\n        /* \"solidity_100/81-90.sol\":5795:5822  Customer(_name, _selfIntro) */\n      dup2\n      mstore\n      pop\n        /* \"solidity_100/81-90.sol\":5790:5792  c1 */\n      0x00\n        /* \"solidity_100/81-90.sol\":5790:5822  c1 = Customer(_name, _selfIntro) */\n      dup1\n      dup3\n      add\n      mload\n      dup2\n      0x00\n      add\n      swap1\n      dup2\n      tag_22\n      swap2\n      swap1\n      tag_23\n      jump\t// in\n    tag_22:\n      pop\n      0x20\n      dup3\n      add\n      mload\n      dup2\n      0x01\n      add\n      swap1\n      dup2\n      tag_24\n      swap2\n      swap1\n      tag_23\n      jump\t// in\n    tag_24:\n      pop\n      swap1\n      pop\n      pop\n        /* \"solidity_100/81-90.sol\":5497:5830  function setC1 (string memory _name, string memory _selfIntro) public {... */\n      pop\n      pop\n      jump\t// out\n        /* \"solidity_100/81-90.sol\":5838:5920  function getC1() public view returns(Customer memory) {... */\n    tag_10:\n        /* \"solidity_100/81-90.sol\":5875:5890  Customer memory */\n      tag_25\n      tag_26\n      jump\t// in\n    tag_25:\n        /* \"solidity_100/81-90.sol\":5910:5912  c1 */\n      0x00\n        /* \"solidity_100/81-90.sol\":5903:5912  return c1 */\n      mload(0x40)\n      dup1\n      0x40\n      add\n      0x40\n      mstore\n      swap1\n      dup2\n      0x00\n      dup3\n      add\n      dup1\n      sload\n      tag_28\n      swap1\n      tag_29\n      jump\t// in\n    tag_28:\n      dup1\n      0x1f\n      add\n      0x20\n      dup1\n      swap2\n      div\n      mul\n      0x20\n      add\n      mload(0x40)\n      swap1\n      dup2\n      add\n      0x40\n      mstore\n      dup1\n      swap3\n      swap2\n      swap1\n      dup2\n      dup2\n      mstore\n      0x20\n      add\n      dup3\n      dup1\n      sload\n      tag_30\n      swap1\n      tag_29\n      jump\t// in\n    tag_30:\n      dup1\n      iszero\n      tag_31\n      jumpi\n      dup1\n      0x1f\n      lt\n      tag_32\n      jumpi\n      0x0100\n      dup1\n      dup4\n      sload\n      div\n      mul\n      dup4\n      mstore\n      swap2\n      0x20\n      add\n      swap2\n      jump(tag_31)\n    tag_32:\n      dup3\n      add\n      swap2\n      swap1\n      0x00\n      mstore\n      keccak256(0x00, 0x20)\n      swap1\n    tag_33:\n      dup2\n      sload\n      dup2\n      mstore\n      swap1\n      0x01\n      add\n      swap1\n      0x20\n      add\n      dup1\n      dup4\n      gt\n      tag_33\n      jumpi\n      dup3\n      swap1\n      sub\n      0x1f\n      and\n      dup3\n      add\n      swap2\n    tag_31:\n      pop\n      pop\n      pop\n      pop\n      pop\n      dup2\n      mstore\n      0x20\n      add\n      0x01\n      dup3\n      add\n      dup1\n      sload\n      tag_34\n      swap1\n      tag_29\n      jump\t// in\n    tag_34:\n      dup1\n      0x1f\n      add\n      0x20\n      dup1\n      swap2\n      div\n      mul\n      0x20\n      add\n      mload(0x40)\n      swap1\n      dup2\n      add\n      0x40\n      mstore\n      dup1\n      swap3\n      swap2\n      swap1\n      dup2\n      dup2\n      mstore\n      0x20\n      add\n      dup3\n      dup1\n      sload\n      tag_35\n      swap1\n      tag_29\n      jump\t// in\n    tag_35:\n      dup1\n      iszero\n      tag_36\n      jumpi\n      dup1\n      0x1f\n      lt\n      tag_37\n      jumpi\n      0x0100\n      dup1\n      dup4\n      sload\n      div\n      mul\n      dup4\n      mstore\n      swap2\n      0x20\n      add\n      swap2\n      jump(tag_36)\n    tag_37:\n      dup3\n      add\n      swap2\n      swap1\n      0x00\n      mstore\n      keccak256(0x00, 0x20)\n      swap1\n    tag_38:\n      dup2\n      sload\n      dup2\n      mstore\n      swap1\n      0x01\n      add\n      swap1\n      0x20\n      add\n      dup1\n      dup4\n      gt\n      tag_38\n      jumpi\n      dup3\n      swap1\n      sub\n      0x1f\n      and\n      dup3\n      add\n      swap2\n    tag_36:\n      pop\n      pop\n      pop\n      pop\n      pop\n      dup2\n      mstore\n      pop\n      pop\n      swap1\n      pop\n        /* \"solidity_100/81-90.sol\":5838:5920  function getC1() public view returns(Customer memory) {... */\n      swap1\n      jump\t// out\n    tag_26:\n      mload(0x40)\n      dup1\n      0x40\n      add\n      0x40\n      mstore\n      dup1\n      0x60\n      dup2\n      mstore\n      0x20\n      add\n      0x60\n      dup2\n      mstore\n      pop\n      swap1\n      jump\t// out\n        /* \"#utility.yul\":7:82   */\n    tag_39:\n        /* \"#utility.yul\":40:46   */\n      0x00\n        /* \"#utility.yul\":73:75   */\n      0x40\n        /* \"#utility.yul\":67:76   */\n      mload\n        /* \"#utility.yul\":57:76   */\n      swap1\n      pop\n        /* \"#utility.yul\":7:82   */\n      swap1\n      jump\t// out\n        /* \"#utility.yul\":88:205   */\n    tag_40:\n        /* \"#utility.yul\":197:198   */\n      0x00\n        /* \"#utility.yul\":194:195   */\n      dup1\n        /* \"#utility.yul\":187:199   */\n      revert\n        /* \"#utility.yul\":211:328   */\n    tag_41:\n        /* \"#utility.yul\":320:321   */\n      0x00\n        /* \"#utility.yul\":317:318   */\n      dup1\n        /* \"#utility.yul\":310:322   */\n      revert\n        /* \"#utility.yul\":334:451   */\n    tag_42:\n        /* \"#utility.yul\":443:444   */\n      0x00\n        /* \"#utility.yul\":440:441   */\n      dup1\n        /* \"#utility.yul\":433:445   */\n      revert\n        /* \"#utility.yul\":457:574   */\n    tag_43:\n        /* \"#utility.yul\":566:567   */\n      0x00\n        /* \"#utility.yul\":563:564   */\n      dup1\n        /* \"#utility.yul\":556:568   */\n      revert\n        /* \"#utility.yul\":580:682   */\n    tag_44:\n        /* \"#utility.yul\":621:627   */\n      0x00\n        /* \"#utility.yul\":672:674   */\n      0x1f\n        /* \"#utility.yul\":668:675   */\n      not\n        /* \"#utility.yul\":663:665   */\n      0x1f\n        /* \"#utility.yul\":656:661   */\n      dup4\n        /* \"#utility.yul\":652:666   */\n      add\n        /* \"#utility.yul\":648:676   */\n      and\n        /* \"#utility.yul\":638:676   */\n      swap1\n      pop\n        /* \"#utility.yul\":580:682   */\n      swap2\n      swap1\n      pop\n      jump\t// out\n        /* \"#utility.yul\":688:868   */\n    tag_45:\n        /* \"#utility.yul\":736:813   */\n      0x4e487b7100000000000000000000000000000000000000000000000000000000\n        /* \"#utility.yul\":733:734   */\n      0x00\n        /* \"#utility.yul\":726:814   */\n      mstore\n        /* \"#utility.yul\":833:837   */\n      0x41\n        /* \"#utility.yul\":830:831   */\n      0x04\n        /* \"#utility.yul\":823:838   */\n      mstore\n        /* \"#utility.yul\":857:861   */\n      0x24\n        /* \"#utility.yul\":854:855   */\n      0x00\n        /* \"#utility.yul\":847:862   */\n      revert\n        /* \"#utility.yul\":874:1155   */\n    tag_46:\n        /* \"#utility.yul\":957:984   */\n      tag_88\n        /* \"#utility.yul\":979:983   */\n      dup3\n        /* \"#utility.yul\":957:984   */\n      tag_44\n      jump\t// in\n    tag_88:\n        /* \"#utility.yul\":949:955   */\n      dup2\n        /* \"#utility.yul\":945:985   */\n      add\n        /* \"#utility.yul\":1087:1093   */\n      dup2\n        /* \"#utility.yul\":1075:1085   */\n      dup2\n        /* \"#utility.yul\":1072:1094   */\n      lt\n        /* \"#utility.yul\":1051:1069   */\n      0xffffffffffffffff\n        /* \"#utility.yul\":1039:1049   */\n      dup3\n        /* \"#utility.yul\":1036:1070   */\n      gt\n        /* \"#utility.yul\":1033:1095   */\n      or\n        /* \"#utility.yul\":1030:1118   */\n      iszero\n      tag_89\n      jumpi\n        /* \"#utility.yul\":1098:1116   */\n      tag_90\n      tag_45\n      jump\t// in\n    tag_90:\n        /* \"#utility.yul\":1030:1118   */\n    tag_89:\n        /* \"#utility.yul\":1138:1148   */\n      dup1\n        /* \"#utility.yul\":1134:1136   */\n      0x40\n        /* \"#utility.yul\":1127:1149   */\n      mstore\n        /* \"#utility.yul\":917:1155   */\n      pop\n        /* \"#utility.yul\":874:1155   */\n      pop\n      pop\n      jump\t// out\n        /* \"#utility.yul\":1161:1290   */\n    tag_47:\n        /* \"#utility.yul\":1195:1201   */\n      0x00\n        /* \"#utility.yul\":1222:1242   */\n      tag_92\n      tag_39\n      jump\t// in\n    tag_92:\n        /* \"#utility.yul\":1212:1242   */\n      swap1\n      pop\n        /* \"#utility.yul\":1251:1284   */\n      tag_93\n        /* \"#utility.yul\":1279:1283   */\n      dup3\n        /* \"#utility.yul\":1271:1277   */\n      dup3\n        /* \"#utility.yul\":1251:1284   */\n      tag_46\n      jump\t// in\n    tag_93:\n        /* \"#utility.yul\":1161:1290   */\n      swap2\n      swap1\n      pop\n      jump\t// out\n        /* \"#utility.yul\":1296:1604   */\n    tag_48:\n        /* \"#utility.yul\":1358:1362   */\n      0x00\n        /* \"#utility.yul\":1448:1466   */\n      0xffffffffffffffff\n        /* \"#utility.yul\":1440:1446   */\n      dup3\n        /* \"#utility.yul\":1437:1467   */\n      gt\n        /* \"#utility.yul\":1434:1490   */\n      iszero\n      tag_95\n      jumpi\n        /* \"#utility.yul\":1470:1488   */\n      tag_96\n      tag_45\n      jump\t// in\n    tag_96:\n        /* \"#utility.yul\":1434:1490   */\n    tag_95:\n        /* \"#utility.yul\":1508:1537   */\n      tag_97\n        /* \"#utility.yul\":1530:1536   */\n      dup3\n        /* \"#utility.yul\":1508:1537   */\n      tag_44\n      jump\t// in\n    tag_97:\n        /* \"#utility.yul\":1500:1537   */\n      swap1\n      pop\n        /* \"#utility.yul\":1592:1596   */\n      0x20\n        /* \"#utility.yul\":1586:1590   */\n      dup2\n        /* \"#utility.yul\":1582:1597   */\n      add\n        /* \"#utility.yul\":1574:1597   */\n      swap1\n      pop\n        /* \"#utility.yul\":1296:1604   */\n      swap2\n      swap1\n      pop\n      jump\t// out\n        /* \"#utility.yul\":1610:1758   */\n    tag_49:\n        /* \"#utility.yul\":1708:1714   */\n      dup3\n        /* \"#utility.yul\":1703:1706   */\n      dup2\n        /* \"#utility.yul\":1698:1701   */\n      dup4\n        /* \"#utility.yul\":1685:1715   */\n      calldatacopy\n        /* \"#utility.yul\":1749:1750   */\n      0x00\n        /* \"#utility.yul\":1740:1746   */\n      dup4\n        /* \"#utility.yul\":1735:1738   */\n      dup4\n        /* \"#utility.yul\":1731:1747   */\n      add\n        /* \"#utility.yul\":1724:1751   */\n      mstore\n        /* \"#utility.yul\":1610:1758   */\n      pop\n      pop\n      pop\n      jump\t// out\n        /* \"#utility.yul\":1764:2189   */\n    tag_50:\n        /* \"#utility.yul\":1842:1847   */\n      0x00\n        /* \"#utility.yul\":1867:1933   */\n      tag_100\n        /* \"#utility.yul\":1883:1932   */\n      tag_101\n        /* \"#utility.yul\":1925:1931   */\n      dup5\n        /* \"#utility.yul\":1883:1932   */\n      tag_48\n      jump\t// in\n    tag_101:\n        /* \"#utility.yul\":1867:1933   */\n      tag_47\n      jump\t// in\n    tag_100:\n        /* \"#utility.yul\":1858:1933   */\n      swap1\n      pop\n        /* \"#utility.yul\":1956:1962   */\n      dup3\n        /* \"#utility.yul\":1949:1954   */\n      dup2\n        /* \"#utility.yul\":1942:1963   */\n      mstore\n        /* \"#utility.yul\":1994:1998   */\n      0x20\n        /* \"#utility.yul\":1987:1992   */\n      dup2\n        /* \"#utility.yul\":1983:1999   */\n      add\n        /* \"#utility.yul\":2032:2035   */\n      dup5\n        /* \"#utility.yul\":2023:2029   */\n      dup5\n        /* \"#utility.yul\":2018:2021   */\n      dup5\n        /* \"#utility.yul\":2014:2030   */\n      add\n        /* \"#utility.yul\":2011:2036   */\n      gt\n        /* \"#utility.yul\":2008:2120   */\n      iszero\n      tag_102\n      jumpi\n        /* \"#utility.yul\":2039:2118   */\n      tag_103\n      tag_43\n      jump\t// in\n    tag_103:\n        /* \"#utility.yul\":2008:2120   */\n    tag_102:\n        /* \"#utility.yul\":2129:2183   */\n      tag_104\n        /* \"#utility.yul\":2176:2182   */\n      dup5\n        /* \"#utility.yul\":2171:2174   */\n      dup3\n        /* \"#utility.yul\":2166:2169   */\n      dup6\n        /* \"#utility.yul\":2129:2183   */\n      tag_49\n      jump\t// in\n    tag_104:\n        /* \"#utility.yul\":1848:2189   */\n      pop\n        /* \"#utility.yul\":1764:2189   */\n      swap4\n      swap3\n      pop\n      pop\n      pop\n      jump\t// out\n        /* \"#utility.yul\":2209:2549   */\n    tag_51:\n        /* \"#utility.yul\":2265:2270   */\n      0x00\n        /* \"#utility.yul\":2314:2317   */\n      dup3\n        /* \"#utility.yul\":2307:2311   */\n      0x1f\n        /* \"#utility.yul\":2299:2305   */\n      dup4\n        /* \"#utility.yul\":2295:2312   */\n      add\n        /* \"#utility.yul\":2291:2318   */\n      slt\n        /* \"#utility.yul\":2281:2403   */\n      tag_106\n      jumpi\n        /* \"#utility.yul\":2322:2401   */\n      tag_107\n      tag_42\n      jump\t// in\n    tag_107:\n        /* \"#utility.yul\":2281:2403   */\n    tag_106:\n        /* \"#utility.yul\":2439:2445   */\n      dup2\n        /* \"#utility.yul\":2426:2446   */\n      calldataload\n        /* \"#utility.yul\":2464:2543   */\n      tag_108\n        /* \"#utility.yul\":2539:2542   */\n      dup5\n        /* \"#utility.yul\":2531:2537   */\n      dup3\n        /* \"#utility.yul\":2524:2528   */\n      0x20\n        /* \"#utility.yul\":2516:2522   */\n      dup7\n        /* \"#utility.yul\":2512:2529   */\n      add\n        /* \"#utility.yul\":2464:2543   */\n      tag_50\n      jump\t// in\n    tag_108:\n        /* \"#utility.yul\":2455:2543   */\n      swap2\n      pop\n        /* \"#utility.yul\":2271:2549   */\n      pop\n        /* \"#utility.yul\":2209:2549   */\n      swap3\n      swap2\n      pop\n      pop\n      jump\t// out\n        /* \"#utility.yul\":2555:3389   */\n    tag_7:\n        /* \"#utility.yul\":2643:2649   */\n      0x00\n        /* \"#utility.yul\":2651:2657   */\n      dup1\n        /* \"#utility.yul\":2700:2702   */\n      0x40\n        /* \"#utility.yul\":2688:2697   */\n      dup4\n        /* \"#utility.yul\":2679:2686   */\n      dup6\n        /* \"#utility.yul\":2675:2698   */\n      sub\n        /* \"#utility.yul\":2671:2703   */\n      slt\n        /* \"#utility.yul\":2668:2787   */\n      iszero\n      tag_110\n      jumpi\n        /* \"#utility.yul\":2706:2785   */\n      tag_111\n      tag_40\n      jump\t// in\n    tag_111:\n        /* \"#utility.yul\":2668:2787   */\n    tag_110:\n        /* \"#utility.yul\":2854:2855   */\n      0x00\n        /* \"#utility.yul\":2843:2852   */\n      dup4\n        /* \"#utility.yul\":2839:2856   */\n      add\n        /* \"#utility.yul\":2826:2857   */\n      calldataload\n        /* \"#utility.yul\":2884:2902   */\n      0xffffffffffffffff\n        /* \"#utility.yul\":2876:2882   */\n      dup2\n        /* \"#utility.yul\":2873:2903   */\n      gt\n        /* \"#utility.yul\":2870:2987   */\n      iszero\n      tag_112\n      jumpi\n        /* \"#utility.yul\":2906:2985   */\n      tag_113\n      tag_41\n      jump\t// in\n    tag_113:\n        /* \"#utility.yul\":2870:2987   */\n    tag_112:\n        /* \"#utility.yul\":3011:3074   */\n      tag_114\n        /* \"#utility.yul\":3066:3073   */\n      dup6\n        /* \"#utility.yul\":3057:3063   */\n      dup3\n        /* \"#utility.yul\":3046:3055   */\n      dup7\n        /* \"#utility.yul\":3042:3064   */\n      add\n        /* \"#utility.yul\":3011:3074   */\n      tag_51\n      jump\t// in\n    tag_114:\n        /* \"#utility.yul\":3001:3074   */\n      swap3\n      pop\n        /* \"#utility.yul\":2797:3084   */\n      pop\n        /* \"#utility.yul\":3151:3153   */\n      0x20\n        /* \"#utility.yul\":3140:3149   */\n      dup4\n        /* \"#utility.yul\":3136:3154   */\n      add\n        /* \"#utility.yul\":3123:3155   */\n      calldataload\n        /* \"#utility.yul\":3182:3200   */\n      0xffffffffffffffff\n        /* \"#utility.yul\":3174:3180   */\n      dup2\n        /* \"#utility.yul\":3171:3201   */\n      gt\n        /* \"#utility.yul\":3168:3285   */\n      iszero\n      tag_115\n      jumpi\n        /* \"#utility.yul\":3204:3283   */\n      tag_116\n      tag_41\n      jump\t// in\n    tag_116:\n        /* \"#utility.yul\":3168:3285   */\n    tag_115:\n        /* \"#utility.yul\":3309:3372   */\n      tag_117\n        /* \"#utility.yul\":3364:3371   */\n      dup6\n        /* \"#utility.yul\":3355:3361   */\n      dup3\n        /* \"#utility.yul\":3344:3353   */\n      dup7\n        /* \"#utility.yul\":3340:3362   */\n      add\n        /* \"#utility.yul\":3309:3372   */\n      tag_51\n      jump\t// in\n    tag_117:\n        /* \"#utility.yul\":3299:3372   */\n      swap2\n      pop\n        /* \"#utility.yul\":3094:3382   */\n      pop\n        /* \"#utility.yul\":2555:3389   */\n      swap3\n      pop\n      swap3\n      swap1\n      pop\n      jump\t// out\n        /* \"#utility.yul\":3395:3494   */\n    tag_52:\n        /* \"#utility.yul\":3447:3453   */\n      0x00\n        /* \"#utility.yul\":3481:3486   */\n      dup2\n        /* \"#utility.yul\":3475:3487   */\n      mload\n        /* \"#utility.yul\":3465:3487   */\n      swap1\n      pop\n        /* \"#utility.yul\":3395:3494   */\n      swap2\n      swap1\n      pop\n      jump\t// out\n        /* \"#utility.yul\":3500:3659   */\n    tag_53:\n        /* \"#utility.yul\":3574:3585   */\n      0x00\n        /* \"#utility.yul\":3608:3614   */\n      dup3\n        /* \"#utility.yul\":3603:3606   */\n      dup3\n        /* \"#utility.yul\":3596:3615   */\n      mstore\n        /* \"#utility.yul\":3648:3652   */\n      0x20\n        /* \"#utility.yul\":3643:3646   */\n      dup3\n        /* \"#utility.yul\":3639:3653   */\n      add\n        /* \"#utility.yul\":3624:3653   */\n      swap1\n      pop\n        /* \"#utility.yul\":3500:3659   */\n      swap3\n      swap2\n      pop\n      pop\n      jump\t// out\n        /* \"#utility.yul\":3665:3804   */\n    tag_54:\n        /* \"#utility.yul\":3754:3760   */\n      dup3\n        /* \"#utility.yul\":3749:3752   */\n      dup2\n        /* \"#utility.yul\":3744:3747   */\n      dup4\n        /* \"#utility.yul\":3738:3761   */\n      mcopy\n        /* \"#utility.yul\":3795:3796   */\n      0x00\n        /* \"#utility.yul\":3786:3792   */\n      dup4\n        /* \"#utility.yul\":3781:3784   */\n      dup4\n        /* \"#utility.yul\":3777:3793   */\n      add\n        /* \"#utility.yul\":3770:3797   */\n      mstore\n        /* \"#utility.yul\":3665:3804   */\n      pop\n      pop\n      pop\n      jump\t// out\n        /* \"#utility.yul\":3810:4167   */\n    tag_55:\n        /* \"#utility.yul\":3888:3891   */\n      0x00\n        /* \"#utility.yul\":3916:3955   */\n      tag_122\n        /* \"#utility.yul\":3949:3954   */\n      dup3\n        /* \"#utility.yul\":3916:3955   */\n      tag_52\n      jump\t// in\n    tag_122:\n        /* \"#utility.yul\":3971:4032   */\n      tag_123\n        /* \"#utility.yul\":4025:4031   */\n      dup2\n        /* \"#utility.yul\":4020:4023   */\n      dup6\n        /* \"#utility.yul\":3971:4032   */\n      tag_53\n      jump\t// in\n    tag_123:\n        /* \"#utility.yul\":3964:4032   */\n      swap4\n      pop\n        /* \"#utility.yul\":4041:4106   */\n      tag_124\n        /* \"#utility.yul\":4099:4105   */\n      dup2\n        /* \"#utility.yul\":4094:4097   */\n      dup6\n        /* \"#utility.yul\":4087:4091   */\n      0x20\n        /* \"#utility.yul\":4080:4085   */\n      dup7\n        /* \"#utility.yul\":4076:4092   */\n      add\n        /* \"#utility.yul\":4041:4106   */\n      tag_54\n      jump\t// in\n    tag_124:\n        /* \"#utility.yul\":4131:4160   */\n      tag_125\n        /* \"#utility.yul\":4153:4159   */\n      dup2\n        /* \"#utility.yul\":4131:4160   */\n      tag_44\n      jump\t// in\n    tag_125:\n        /* \"#utility.yul\":4126:4129   */\n      dup5\n        /* \"#utility.yul\":4122:4161   */\n      add\n        /* \"#utility.yul\":4115:4161   */\n      swap2\n      pop\n        /* \"#utility.yul\":3892:4167   */\n      pop\n        /* \"#utility.yul\":3810:4167   */\n      swap3\n      swap2\n      pop\n      pop\n      jump\t// out\n        /* \"#utility.yul\":4223:4905   */\n    tag_56:\n        /* \"#utility.yul\":4342:4345   */\n      0x00\n        /* \"#utility.yul\":4378:4382   */\n      0x40\n        /* \"#utility.yul\":4373:4376   */\n      dup4\n        /* \"#utility.yul\":4369:4383   */\n      add\n        /* \"#utility.yul\":4465:4469   */\n      0x00\n        /* \"#utility.yul\":4458:4463   */\n      dup4\n        /* \"#utility.yul\":4454:4470   */\n      add\n        /* \"#utility.yul\":4448:4471   */\n      mload\n        /* \"#utility.yul\":4518:4521   */\n      dup5\n        /* \"#utility.yul\":4512:4516   */\n      dup3\n        /* \"#utility.yul\":4508:4522   */\n      sub\n        /* \"#utility.yul\":4501:4505   */\n      0x00\n        /* \"#utility.yul\":4496:4499   */\n      dup7\n        /* \"#utility.yul\":4492:4506   */\n      add\n        /* \"#utility.yul\":4485:4523   */\n      mstore\n        /* \"#utility.yul\":4544:4617   */\n      tag_127\n        /* \"#utility.yul\":4612:4616   */\n      dup3\n        /* \"#utility.yul\":4598:4610   */\n      dup3\n        /* \"#utility.yul\":4544:4617   */\n      tag_55\n      jump\t// in\n    tag_127:\n        /* \"#utility.yul\":4536:4617   */\n      swap2\n      pop\n        /* \"#utility.yul\":4393:4628   */\n      pop\n        /* \"#utility.yul\":4715:4719   */\n      0x20\n        /* \"#utility.yul\":4708:4713   */\n      dup4\n        /* \"#utility.yul\":4704:4720   */\n      add\n        /* \"#utility.yul\":4698:4721   */\n      mload\n        /* \"#utility.yul\":4768:4771   */\n      dup5\n        /* \"#utility.yul\":4762:4766   */\n      dup3\n        /* \"#utility.yul\":4758:4772   */\n      sub\n        /* \"#utility.yul\":4751:4755   */\n      0x20\n        /* \"#utility.yul\":4746:4749   */\n      dup7\n        /* \"#utility.yul\":4742:4756   */\n      add\n        /* \"#utility.yul\":4735:4773   */\n      mstore\n        /* \"#utility.yul\":4794:4867   */\n      tag_128\n        /* \"#utility.yul\":4862:4866   */\n      dup3\n        /* \"#utility.yul\":4848:4860   */\n      dup3\n        /* \"#utility.yul\":4794:4867   */\n      tag_55\n      jump\t// in\n    tag_128:\n        /* \"#utility.yul\":4786:4867   */\n      swap2\n      pop\n        /* \"#utility.yul\":4638:4878   */\n      pop\n        /* \"#utility.yul\":4895:4899   */\n      dup1\n        /* \"#utility.yul\":4888:4899   */\n      swap2\n      pop\n        /* \"#utility.yul\":4347:4905   */\n      pop\n        /* \"#utility.yul\":4223:4905   */\n      swap3\n      swap2\n      pop\n      pop\n      jump\t// out\n        /* \"#utility.yul\":4911:5284   */\n    tag_12:\n        /* \"#utility.yul\":5054:5058   */\n      0x00\n        /* \"#utility.yul\":5092:5094   */\n      0x20\n        /* \"#utility.yul\":5081:5090   */\n      dup3\n        /* \"#utility.yul\":5077:5095   */\n      add\n        /* \"#utility.yul\":5069:5095   */\n      swap1\n      pop\n        /* \"#utility.yul\":5141:5150   */\n      dup2\n        /* \"#utility.yul\":5135:5139   */\n      dup2\n        /* \"#utility.yul\":5131:5151   */\n      sub\n        /* \"#utility.yul\":5127:5128   */\n      0x00\n        /* \"#utility.yul\":5116:5125   */\n      dup4\n        /* \"#utility.yul\":5112:5129   */\n      add\n        /* \"#utility.yul\":5105:5152   */\n      mstore\n        /* \"#utility.yul\":5169:5277   */\n      tag_130\n        /* \"#utility.yul\":5272:5276   */\n      dup2\n        /* \"#utility.yul\":5263:5269   */\n      dup5\n        /* \"#utility.yul\":5169:5277   */\n      tag_56\n      jump\t// in\n    tag_130:\n        /* \"#utility.yul\":5161:5277   */\n      swap1\n      pop\n        /* \"#utility.yul\":4911:5284   */\n      swap3\n      swap2\n      pop\n      pop\n      jump\t// out\n        /* \"#utility.yul\":5290:5459   */\n    tag_57:\n        /* \"#utility.yul\":5374:5385   */\n      0x00\n        /* \"#utility.yul\":5408:5414   */\n      dup3\n        /* \"#utility.yul\":5403:5406   */\n      dup3\n        /* \"#utility.yul\":5396:5415   */\n      mstore\n        /* \"#utility.yul\":5448:5452   */\n      0x20\n        /* \"#utility.yul\":5443:5446   */\n      dup3\n        /* \"#utility.yul\":5439:5453   */\n      add\n        /* \"#utility.yul\":5424:5453   */\n      swap1\n      pop\n        /* \"#utility.yul\":5290:5459   */\n      swap3\n      swap2\n      pop\n      pop\n      jump\t// out\n        /* \"#utility.yul\":5465:5641   */\n    tag_58:\n        /* \"#utility.yul\":5605:5633   */\n      0x707574206c6574746572206265747777656e203520746f203130000000000000\n        /* \"#utility.yul\":5601:5602   */\n      0x00\n        /* \"#utility.yul\":5593:5599   */\n      dup3\n        /* \"#utility.yul\":5589:5603   */\n      add\n        /* \"#utility.yul\":5582:5634   */\n      mstore\n        /* \"#utility.yul\":5465:5641   */\n      pop\n      jump\t// out\n        /* \"#utility.yul\":5647:6013   */\n    tag_59:\n        /* \"#utility.yul\":5789:5792   */\n      0x00\n        /* \"#utility.yul\":5810:5877   */\n      tag_134\n        /* \"#utility.yul\":5874:5876   */\n      0x1a\n        /* \"#utility.yul\":5869:5872   */\n      dup4\n        /* \"#utility.yul\":5810:5877   */\n      tag_57\n      jump\t// in\n    tag_134:\n        /* \"#utility.yul\":5803:5877   */\n      swap2\n      pop\n        /* \"#utility.yul\":5886:5979   */\n      tag_135\n        /* \"#utility.yul\":5975:5978   */\n      dup3\n        /* \"#utility.yul\":5886:5979   */\n      tag_58\n      jump\t// in\n    tag_135:\n        /* \"#utility.yul\":6004:6006   */\n      0x20\n        /* \"#utility.yul\":5999:6002   */\n      dup3\n        /* \"#utility.yul\":5995:6007   */\n      add\n        /* \"#utility.yul\":5988:6007   */\n      swap1\n      pop\n        /* \"#utility.yul\":5647:6013   */\n      swap2\n      swap1\n      pop\n      jump\t// out\n        /* \"#utility.yul\":6019:6438   */\n    tag_17:\n        /* \"#utility.yul\":6185:6189   */\n      0x00\n        /* \"#utility.yul\":6223:6225   */\n      0x20\n        /* \"#utility.yul\":6212:6221   */\n      dup3\n        /* \"#utility.yul\":6208:6226   */\n      add\n        /* \"#utility.yul\":6200:6226   */\n      swap1\n      pop\n        /* \"#utility.yul\":6272:6281   */\n      dup2\n        /* \"#utility.yul\":6266:6270   */\n      dup2\n        /* \"#utility.yul\":6262:6282   */\n      sub\n        /* \"#utility.yul\":6258:6259   */\n      0x00\n        /* \"#utility.yul\":6247:6256   */\n      dup4\n        /* \"#utility.yul\":6243:6260   */\n      add\n        /* \"#utility.yul\":6236:6283   */\n      mstore\n        /* \"#utility.yul\":6300:6431   */\n      tag_137\n        /* \"#utility.yul\":6426:6430   */\n      dup2\n        /* \"#utility.yul\":6300:6431   */\n      tag_59\n      jump\t// in\n    tag_137:\n        /* \"#utility.yul\":6292:6431   */\n      swap1\n      pop\n        /* \"#utility.yul\":6019:6438   */\n      swap2\n      swap1\n      pop\n      jump\t// out\n        /* \"#utility.yul\":6444:6621   */\n    tag_60:\n        /* \"#utility.yul\":6584:6613   */\n      0x707574206c6574746572206265747777656e20323020746f2035300000000000\n        /* \"#utility.yul\":6580:6581   */\n      0x00\n        /* \"#utility.yul\":6572:6578   */\n      dup3\n        /* \"#utility.yul\":6568:6582   */\n      add\n        /* \"#utility.yul\":6561:6614   */\n      mstore\n        /* \"#utility.yul\":6444:6621   */\n      pop\n      jump\t// out\n        /* \"#utility.yul\":6627:6993   */\n    tag_61:\n        /* \"#utility.yul\":6769:6772   */\n      0x00\n        /* \"#utility.yul\":6790:6857   */\n      tag_140\n        /* \"#utility.yul\":6854:6856   */\n      0x1b\n        /* \"#utility.yul\":6849:6852   */\n      dup4\n        /* \"#utility.yul\":6790:6857   */\n      tag_57\n      jump\t// in\n    tag_140:\n        /* \"#utility.yul\":6783:6857   */\n      swap2\n      pop\n        /* \"#utility.yul\":6866:6959   */\n      tag_141\n        /* \"#utility.yul\":6955:6958   */\n      dup3\n        /* \"#utility.yul\":6866:6959   */\n      tag_60\n      jump\t// in\n    tag_141:\n        /* \"#utility.yul\":6984:6986   */\n      0x20\n        /* \"#utility.yul\":6979:6982   */\n      dup3\n        /* \"#utility.yul\":6975:6987   */\n      add\n        /* \"#utility.yul\":6968:6987   */\n      swap1\n      pop\n        /* \"#utility.yul\":6627:6993   */\n      swap2\n      swap1\n      pop\n      jump\t// out\n        /* \"#utility.yul\":6999:7418   */\n    tag_21:\n        /* \"#utility.yul\":7165:7169   */\n      0x00\n        /* \"#utility.yul\":7203:7205   */\n      0x20\n        /* \"#utility.yul\":7192:7201   */\n      dup3\n        /* \"#utility.yul\":7188:7206   */\n      add\n        /* \"#utility.yul\":7180:7206   */\n      swap1\n      pop\n        /* \"#utility.yul\":7252:7261   */\n      dup2\n        /* \"#utility.yul\":7246:7250   */\n      dup2\n        /* \"#utility.yul\":7242:7262   */\n      sub\n        /* \"#utility.yul\":7238:7239   */\n      0x00\n        /* \"#utility.yul\":7227:7236   */\n      dup4\n        /* \"#utility.yul\":7223:7240   */\n      add\n        /* \"#utility.yul\":7216:7263   */\n      mstore\n        /* \"#utility.yul\":7280:7411   */\n      tag_143\n        /* \"#utility.yul\":7406:7410   */\n      dup2\n        /* \"#utility.yul\":7280:7411   */\n      tag_61\n      jump\t// in\n    tag_143:\n        /* \"#utility.yul\":7272:7411   */\n      swap1\n      pop\n        /* \"#utility.yul\":6999:7418   */\n      swap2\n      swap1\n      pop\n      jump\t// out\n        /* \"#utility.yul\":7424:7604   */\n    tag_62:\n        /* \"#utility.yul\":7472:7549   */\n      0x4e487b7100000000000000000000000000000000000000000000000000000000\n        /* \"#utility.yul\":7469:7470   */\n      0x00\n        /* \"#utility.yul\":7462:7550   */\n      mstore\n        /* \"#utility.yul\":7569:7573   */\n      0x22\n        /* \"#utility.yul\":7566:7567   */\n      0x04\n        /* \"#utility.yul\":7559:7574   */\n      mstore\n        /* \"#utility.yul\":7593:7597   */\n      0x24\n        /* \"#utility.yul\":7590:7591   */\n      0x00\n        /* \"#utility.yul\":7583:7598   */\n      revert\n        /* \"#utility.yul\":7610:7930   */\n    tag_29:\n        /* \"#utility.yul\":7654:7660   */\n      0x00\n        /* \"#utility.yul\":7691:7692   */\n      0x02\n        /* \"#utility.yul\":7685:7689   */\n      dup3\n        /* \"#utility.yul\":7681:7693   */\n      div\n        /* \"#utility.yul\":7671:7693   */\n      swap1\n      pop\n        /* \"#utility.yul\":7738:7739   */\n      0x01\n        /* \"#utility.yul\":7732:7736   */\n      dup3\n        /* \"#utility.yul\":7728:7740   */\n      and\n        /* \"#utility.yul\":7759:7777   */\n      dup1\n        /* \"#utility.yul\":7749:7830   */\n      tag_146\n      jumpi\n        /* \"#utility.yul\":7815:7819   */\n      0x7f\n        /* \"#utility.yul\":7807:7813   */\n      dup3\n        /* \"#utility.yul\":7803:7820   */\n      and\n        /* \"#utility.yul\":7793:7820   */\n      swap2\n      pop\n        /* \"#utility.yul\":7749:7830   */\n    tag_146:\n        /* \"#utility.yul\":7877:7879   */\n      0x20\n        /* \"#utility.yul\":7869:7875   */\n      dup3\n        /* \"#utility.yul\":7866:7880   */\n      lt\n        /* \"#utility.yul\":7846:7864   */\n      dup2\n        /* \"#utility.yul\":7843:7881   */\n      sub\n        /* \"#utility.yul\":7840:7924   */\n      tag_147\n      jumpi\n        /* \"#utility.yul\":7896:7914   */\n      tag_148\n      tag_62\n      jump\t// in\n    tag_148:\n        /* \"#utility.yul\":7840:7924   */\n    tag_147:\n        /* \"#utility.yul\":7661:7930   */\n      pop\n        /* \"#utility.yul\":7610:7930   */\n      swap2\n      swap1\n      pop\n      jump\t// out\n        /* \"#utility.yul\":7936:8077   */\n    tag_63:\n        /* \"#utility.yul\":7985:7989   */\n      0x00\n        /* \"#utility.yul\":8008:8011   */\n      dup2\n        /* \"#utility.yul\":8000:8011   */\n      swap1\n      pop\n        /* \"#utility.yul\":8031:8034   */\n      dup2\n        /* \"#utility.yul\":8028:8029   */\n      0x00\n        /* \"#utility.yul\":8021:8035   */\n      mstore\n        /* \"#utility.yul\":8065:8069   */\n      0x20\n        /* \"#utility.yul\":8062:8063   */\n      0x00\n        /* \"#utility.yul\":8052:8070   */\n      keccak256\n        /* \"#utility.yul\":8044:8070   */\n      swap1\n      pop\n        /* \"#utility.yul\":7936:8077   */\n      swap2\n      swap1\n      pop\n      jump\t// out\n        /* \"#utility.yul\":8083:8176   */\n    tag_64:\n        /* \"#utility.yul\":8120:8126   */\n      0x00\n        /* \"#utility.yul\":8167:8169   */\n      0x20\n        /* \"#utility.yul\":8162:8164   */\n      0x1f\n        /* \"#utility.yul\":8155:8160   */\n      dup4\n        /* \"#utility.yul\":8151:8165   */\n      add\n        /* \"#utility.yul\":8147:8170   */\n      div\n        /* \"#utility.yul\":8137:8170   */\n      swap1\n      pop\n        /* \"#utility.yul\":8083:8176   */\n      swap2\n      swap1\n      pop\n      jump\t// out\n        /* \"#utility.yul\":8182:8289   */\n    tag_65:\n        /* \"#utility.yul\":8226:8234   */\n      0x00\n        /* \"#utility.yul\":8276:8281   */\n      dup3\n        /* \"#utility.yul\":8270:8274   */\n      dup3\n        /* \"#utility.yul\":8266:8282   */\n      shl\n        /* \"#utility.yul\":8245:8282   */\n      swap1\n      pop\n        /* \"#utility.yul\":8182:8289   */\n      swap3\n      swap2\n      pop\n      pop\n      jump\t// out\n        /* \"#utility.yul\":8295:8688   */\n    tag_66:\n        /* \"#utility.yul\":8364:8370   */\n      0x00\n        /* \"#utility.yul\":8414:8415   */\n      0x08\n        /* \"#utility.yul\":8402:8412   */\n      dup4\n        /* \"#utility.yul\":8398:8416   */\n      mul\n        /* \"#utility.yul\":8437:8534   */\n      tag_153\n        /* \"#utility.yul\":8467:8533   */\n      0xffffffffffffffffffffffffffffffffffffffffffffffffffffffffffffffff\n        /* \"#utility.yul\":8456:8465   */\n      dup3\n        /* \"#utility.yul\":8437:8534   */\n      tag_65\n      jump\t// in\n    tag_153:\n        /* \"#utility.yul\":8555:8594   */\n      tag_154\n        /* \"#utility.yul\":8585:8593   */\n      dup7\n        /* \"#utility.yul\":8574:8583   */\n      dup4\n        /* \"#utility.yul\":8555:8594   */\n      tag_65\n      jump\t// in\n    tag_154:\n        /* \"#utility.yul\":8543:8594   */\n      swap6\n      pop\n        /* \"#utility.yul\":8627:8631   */\n      dup1\n        /* \"#utility.yul\":8623:8632   */\n      not\n        /* \"#utility.yul\":8616:8621   */\n      dup5\n        /* \"#utility.yul\":8612:8633   */\n      and\n        /* \"#utility.yul\":8603:8633   */\n      swap4\n      pop\n        /* \"#utility.yul\":8676:8680   */\n      dup1\n        /* \"#utility.yul\":8666:8674   */\n      dup7\n        /* \"#utility.yul\":8662:8681   */\n      and\n        /* \"#utility.yul\":8655:8660   */\n      dup5\n        /* \"#utility.yul\":8652:8682   */\n      or\n        /* \"#utility.yul\":8642:8682   */\n      swap3\n      pop\n        /* \"#utility.yul\":8371:8688   */\n      pop\n      pop\n        /* \"#utility.yul\":8295:8688   */\n      swap4\n      swap3\n      pop\n      pop\n      pop\n      jump\t// out\n        /* \"#utility.yul\":8694:8771   */\n    tag_67:\n        /* \"#utility.yul\":8731:8738   */\n      0x00\n        /* \"#utility.yul\":8760:8765   */\n      dup2\n        /* \"#utility.yul\":8749:8765   */\n      swap1\n      pop\n        /* \"#utility.yul\":8694:8771   */\n      swap2\n      swap1\n      pop\n      jump\t// out\n        /* \"#utility.yul\":8777:8837   */\n    tag_68:\n        /* \"#utility.yul\":8805:8808   */\n      0x00\n        /* \"#utility.yul\":8826:8831   */\n      dup2\n        /* \"#utility.yul\":8819:8831   */\n      swap1\n      pop\n        /* \"#utility.yul\":8777:8837   */\n      swap2\n      swap1\n      pop\n      jump\t// out\n        /* \"#utility.yul\":8843:8985   */\n    tag_69:\n        /* \"#utility.yul\":8893:8902   */\n      0x00\n        /* \"#utility.yul\":8926:8979   */\n      tag_158\n        /* \"#utility.yul\":8944:8978   */\n      tag_159\n        /* \"#utility.yul\":8953:8977   */\n      tag_160\n        /* \"#utility.yul\":8971:8976   */\n      dup5\n        /* \"#utility.yul\":8953:8977   */\n      tag_67\n      jump\t// in\n    tag_160:\n        /* \"#utility.yul\":8944:8978   */\n      tag_68\n      jump\t// in\n    tag_159:\n        /* \"#utility.yul\":8926:8979   */\n      tag_67\n      jump\t// in\n    tag_158:\n        /* \"#utility.yul\":8913:8979   */\n      swap1\n      pop\n        /* \"#utility.yul\":8843:8985   */\n      swap2\n      swap1\n      pop\n      jump\t// out\n        /* \"#utility.yul\":8991:9066   */\n    tag_70:\n        /* \"#utility.yul\":9034:9037   */\n      0x00\n        /* \"#utility.yul\":9055:9060   */\n      dup2\n        /* \"#utility.yul\":9048:9060   */\n      swap1\n      pop\n        /* \"#utility.yul\":8991:9066   */\n      swap2\n      swap1\n      pop\n      jump\t// out\n        /* \"#utility.yul\":9072:9341   */\n    tag_71:\n        /* \"#utility.yul\":9182:9221   */\n      tag_163\n        /* \"#utility.yul\":9213:9220   */\n      dup4\n        /* \"#utility.yul\":9182:9221   */\n      tag_69\n      jump\t// in\n    tag_163:\n        /* \"#utility.yul\":9243:9334   */\n      tag_164\n        /* \"#utility.yul\":9292:9333   */\n      tag_165\n        /* \"#utility.yul\":9316:9332   */\n      dup3\n        /* \"#utility.yul\":9292:9333   */\n      tag_70\n      jump\t// in\n    tag_165:\n        /* \"#utility.yul\":9284:9290   */\n      dup5\n        /* \"#utility.yul\":9277:9281   */\n      dup5\n        /* \"#utility.yul\":9271:9282   */\n      sload\n        /* \"#utility.yul\":9243:9334   */\n      tag_66\n      jump\t// in\n    tag_164:\n        /* \"#utility.yul\":9237:9241   */\n      dup3\n        /* \"#utility.yul\":9230:9335   */\n      sstore\n        /* \"#utility.yul\":9148:9341   */\n      pop\n        /* \"#utility.yul\":9072:9341   */\n      pop\n      pop\n      pop\n      jump\t// out\n        /* \"#utility.yul\":9347:9420   */\n    tag_72:\n        /* \"#utility.yul\":9392:9395   */\n      0x00\n        /* \"#utility.yul\":9347:9420   */\n      swap1\n      jump\t// out\n        /* \"#utility.yul\":9426:9615   */\n    tag_73:\n        /* \"#utility.yul\":9503:9535   */\n      tag_168\n      tag_72\n      jump\t// in\n    tag_168:\n        /* \"#utility.yul\":9544:9609   */\n      tag_169\n        /* \"#utility.yul\":9602:9608   */\n      dup2\n        /* \"#utility.yul\":9594:9600   */\n      dup5\n        /* \"#utility.yul\":9588:9592   */\n      dup5\n        /* \"#utility.yul\":9544:9609   */\n      tag_71\n      jump\t// in\n    tag_169:\n        /* \"#utility.yul\":9479:9615   */\n      pop\n        /* \"#utility.yul\":9426:9615   */\n      pop\n      pop\n      jump\t// out\n        /* \"#utility.yul\":9621:9807   */\n    tag_74:\n        /* \"#utility.yul\":9681:9801   */\n    tag_171:\n        /* \"#utility.yul\":9698:9701   */\n      dup2\n        /* \"#utility.yul\":9691:9696   */\n      dup2\n        /* \"#utility.yul\":9688:9702   */\n      lt\n        /* \"#utility.yul\":9681:9801   */\n      iszero\n      tag_173\n      jumpi\n        /* \"#utility.yul\":9752:9791   */\n      tag_174\n        /* \"#utility.yul\":9789:9790   */\n      0x00\n        /* \"#utility.yul\":9782:9787   */\n      dup3\n        /* \"#utility.yul\":9752:9791   */\n      tag_73\n      jump\t// in\n    tag_174:\n        /* \"#utility.yul\":9725:9726   */\n      0x01\n        /* \"#utility.yul\":9718:9723   */\n      dup2\n        /* \"#utility.yul\":9714:9727   */\n      add\n        /* \"#utility.yul\":9705:9727   */\n      swap1\n      pop\n        /* \"#utility.yul\":9681:9801   */\n      jump(tag_171)\n    tag_173:\n        /* \"#utility.yul\":9621:9807   */\n      pop\n      pop\n      jump\t// out\n        /* \"#utility.yul\":9813:10356   */\n    tag_75:\n        /* \"#utility.yul\":9914:9916   */\n      0x1f\n        /* \"#utility.yul\":9909:9912   */\n      dup3\n        /* \"#utility.yul\":9906:9917   */\n      gt\n        /* \"#utility.yul\":9903:10349   */\n      iszero\n      tag_176\n      jumpi\n        /* \"#utility.yul\":9948:9986   */\n      tag_177\n        /* \"#utility.yul\":9980:9985   */\n      dup2\n        /* \"#utility.yul\":9948:9986   */\n      tag_63\n      jump\t// in\n    tag_177:\n        /* \"#utility.yul\":10032:10061   */\n      tag_178\n        /* \"#utility.yul\":10050:10060   */\n      dup5\n        /* \"#utility.yul\":10032:10061   */\n      tag_64\n      jump\t// in\n    tag_178:\n        /* \"#utility.yul\":10022:10030   */\n      dup2\n        /* \"#utility.yul\":10018:10062   */\n      add\n        /* \"#utility.yul\":10215:10217   */\n      0x20\n        /* \"#utility.yul\":10203:10213   */\n      dup6\n        /* \"#utility.yul\":10200:10218   */\n      lt\n        /* \"#utility.yul\":10197:10246   */\n      iszero\n      tag_179\n      jumpi\n        /* \"#utility.yul\":10236:10244   */\n      dup2\n        /* \"#utility.yul\":10221:10244   */\n      swap1\n      pop\n        /* \"#utility.yul\":10197:10246   */\n    tag_179:\n        /* \"#utility.yul\":10259:10339   */\n      tag_180\n        /* \"#utility.yul\":10315:10337   */\n      tag_181\n        /* \"#utility.yul\":10333:10336   */\n      dup6\n        /* \"#utility.yul\":10315:10337   */\n      tag_64\n      jump\t// in\n    tag_181:\n        /* \"#utility.yul\":10305:10313   */\n      dup4\n        /* \"#utility.yul\":10301:10338   */\n      add\n        /* \"#utility.yul\":10288:10299   */\n      dup3\n        /* \"#utility.yul\":10259:10339   */\n      tag_74\n      jump\t// in\n    tag_180:\n        /* \"#utility.yul\":9918:10349   */\n      pop\n      pop\n        /* \"#utility.yul\":9903:10349   */\n    tag_176:\n        /* \"#utility.yul\":9813:10356   */\n      pop\n      pop\n      pop\n      jump\t// out\n        /* \"#utility.yul\":10362:10479   */\n    tag_76:\n        /* \"#utility.yul\":10416:10424   */\n      0x00\n        /* \"#utility.yul\":10466:10471   */\n      dup3\n        /* \"#utility.yul\":10460:10464   */\n      dup3\n        /* \"#utility.yul\":10456:10472   */\n      shr\n        /* \"#utility.yul\":10435:10472   */\n      swap1\n      pop\n        /* \"#utility.yul\":10362:10479   */\n      swap3\n      swap2\n      pop\n      pop\n      jump\t// out\n        /* \"#utility.yul\":10485:10654   */\n    tag_77:\n        /* \"#utility.yul\":10529:10535   */\n      0x00\n        /* \"#utility.yul\":10562:10613   */\n      tag_184\n        /* \"#utility.yul\":10610:10611   */\n      0x00\n        /* \"#utility.yul\":10606:10612   */\n      not\n        /* \"#utility.yul\":10598:10603   */\n      dup5\n        /* \"#utility.yul\":10595:10596   */\n      0x08\n        /* \"#utility.yul\":10591:10604   */\n      mul\n        /* \"#utility.yul\":10562:10613   */\n      tag_76\n      jump\t// in\n    tag_184:\n        /* \"#utility.yul\":10558:10614   */\n      not\n        /* \"#utility.yul\":10643:10647   */\n      dup1\n        /* \"#utility.yul\":10637:10641   */\n      dup4\n        /* \"#utility.yul\":10633:10648   */\n      and\n        /* \"#utility.yul\":10623:10648   */\n      swap2\n      pop\n        /* \"#utility.yul\":10536:10654   */\n      pop\n        /* \"#utility.yul\":10485:10654   */\n      swap3\n      swap2\n      pop\n      pop\n      jump\t// out\n        /* \"#utility.yul\":10659:10954   */\n    tag_78:\n        /* \"#utility.yul\":10735:10739   */\n      0x00\n        /* \"#utility.yul\":10881:10910   */\n      tag_186\n        /* \"#utility.yul\":10906:10909   */\n      dup4\n        /* \"#utility.yul\":10900:10904   */\n      dup4\n        /* \"#utility.yul\":10881:10910   */\n      tag_77\n      jump\t// in\n    tag_186:\n        /* \"#utility.yul\":10873:10910   */\n      swap2\n      pop\n        /* \"#utility.yul\":10943:10946   */\n      dup3\n        /* \"#utility.yul\":10940:10941   */\n      0x02\n        /* \"#utility.yul\":10936:10947   */\n      mul\n        /* \"#utility.yul\":10930:10934   */\n      dup3\n        /* \"#utility.yul\":10927:10948   */\n      or\n        /* \"#utility.yul\":10919:10948   */\n      swap1\n      pop\n        /* \"#utility.yul\":10659:10954   */\n      swap3\n      swap2\n      pop\n      pop\n      jump\t// out\n        /* \"#utility.yul\":10959:12354   */\n    tag_23:\n        /* \"#utility.yul\":11076:11113   */\n      tag_188\n        /* \"#utility.yul\":11109:11112   */\n      dup3\n        /* \"#utility.yul\":11076:11113   */\n      tag_52\n      jump\t// in\n    tag_188:\n        /* \"#utility.yul\":11178:11196   */\n      0xffffffffffffffff\n        /* \"#utility.yul\":11170:11176   */\n      dup2\n        /* \"#utility.yul\":11167:11197   */\n      gt\n        /* \"#utility.yul\":11164:11220   */\n      iszero\n      tag_189\n      jumpi\n        /* \"#utility.yul\":11200:11218   */\n      tag_190\n      tag_45\n      jump\t// in\n    tag_190:\n        /* \"#utility.yul\":11164:11220   */\n    tag_189:\n        /* \"#utility.yul\":11244:11282   */\n      tag_191\n        /* \"#utility.yul\":11276:11280   */\n      dup3\n        /* \"#utility.yul\":11270:11281   */\n      sload\n        /* \"#utility.yul\":11244:11282   */\n      tag_29\n      jump\t// in\n    tag_191:\n        /* \"#utility.yul\":11329:11396   */\n      tag_192\n        /* \"#utility.yul\":11389:11395   */\n      dup3\n        /* \"#utility.yul\":11381:11387   */\n      dup3\n        /* \"#utility.yul\":11375:11379   */\n      dup6\n        /* \"#utility.yul\":11329:11396   */\n      tag_75\n      jump\t// in\n    tag_192:\n        /* \"#utility.yul\":11423:11424   */\n      0x00\n        /* \"#utility.yul\":11447:11451   */\n      0x20\n        /* \"#utility.yul\":11434:11451   */\n      swap1\n      pop\n        /* \"#utility.yul\":11479:11481   */\n      0x1f\n        /* \"#utility.yul\":11471:11477   */\n      dup4\n        /* \"#utility.yul\":11468:11482   */\n      gt\n        /* \"#utility.yul\":11496:11497   */\n      0x01\n        /* \"#utility.yul\":11491:12109   */\n      dup2\n      eq\n      tag_194\n      jumpi\n        /* \"#utility.yul\":12153:12154   */\n      0x00\n        /* \"#utility.yul\":12170:12176   */\n      dup5\n        /* \"#utility.yul\":12167:12244   */\n      iszero\n      tag_195\n      jumpi\n        /* \"#utility.yul\":12219:12228   */\n      dup3\n        /* \"#utility.yul\":12214:12217   */\n      dup8\n        /* \"#utility.yul\":12210:12229   */\n      add\n        /* \"#utility.yul\":12204:12230   */\n      mload\n        /* \"#utility.yul\":12195:12230   */\n      swap1\n      pop\n        /* \"#utility.yul\":12167:12244   */\n    tag_195:\n        /* \"#utility.yul\":12270:12337   */\n      tag_196\n        /* \"#utility.yul\":12330:12336   */\n      dup6\n        /* \"#utility.yul\":12323:12328   */\n      dup3\n        /* \"#utility.yul\":12270:12337   */\n      tag_78\n      jump\t// in\n    tag_196:\n        /* \"#utility.yul\":12264:12268   */\n      dup7\n        /* \"#utility.yul\":12257:12338   */\n      sstore\n        /* \"#utility.yul\":12126:12348   */\n      pop\n        /* \"#utility.yul\":11461:12348   */\n      jump(tag_193)\n        /* \"#utility.yul\":11491:12109   */\n    tag_194:\n        /* \"#utility.yul\":11543:11547   */\n      0x1f\n        /* \"#utility.yul\":11539:11548   */\n      not\n        /* \"#utility.yul\":11531:11537   */\n      dup5\n        /* \"#utility.yul\":11527:11549   */\n      and\n        /* \"#utility.yul\":11577:11614   */\n      tag_197\n        /* \"#utility.yul\":11609:11613   */\n      dup7\n        /* \"#utility.yul\":11577:11614   */\n      tag_63\n      jump\t// in\n    tag_197:\n        /* \"#utility.yul\":11636:11637   */\n      0x00\n        /* \"#utility.yul\":11650:11858   */\n    tag_198:\n        /* \"#utility.yul\":11664:11671   */\n      dup3\n        /* \"#utility.yul\":11661:11662   */\n      dup2\n        /* \"#utility.yul\":11658:11672   */\n      lt\n        /* \"#utility.yul\":11650:11858   */\n      iszero\n      tag_200\n      jumpi\n        /* \"#utility.yul\":11743:11752   */\n      dup5\n        /* \"#utility.yul\":11738:11741   */\n      dup10\n        /* \"#utility.yul\":11734:11753   */\n      add\n        /* \"#utility.yul\":11728:11754   */\n      mload\n        /* \"#utility.yul\":11720:11726   */\n      dup3\n        /* \"#utility.yul\":11713:11755   */\n      sstore\n        /* \"#utility.yul\":11794:11795   */\n      0x01\n        /* \"#utility.yul\":11786:11792   */\n      dup3\n        /* \"#utility.yul\":11782:11796   */\n      add\n        /* \"#utility.yul\":11772:11796   */\n      swap2\n      pop\n        /* \"#utility.yul\":11841:11843   */\n      0x20\n        /* \"#utility.yul\":11830:11839   */\n      dup6\n        /* \"#utility.yul\":11826:11844   */\n      add\n        /* \"#utility.yul\":11813:11844   */\n      swap5\n      pop\n        /* \"#utility.yul\":11687:11691   */\n      0x20\n        /* \"#utility.yul\":11684:11685   */\n      dup2\n        /* \"#utility.yul\":11680:11692   */\n      add\n        /* \"#utility.yul\":11675:11692   */\n      swap1\n      pop\n        /* \"#utility.yul\":11650:11858   */\n      jump(tag_198)\n    tag_200:\n        /* \"#utility.yul\":11886:11892   */\n      dup7\n        /* \"#utility.yul\":11877:11884   */\n      dup4\n        /* \"#utility.yul\":11874:11893   */\n      lt\n        /* \"#utility.yul\":11871:12050   */\n      iszero\n      tag_201\n      jumpi\n        /* \"#utility.yul\":11944:11953   */\n      dup5\n        /* \"#utility.yul\":11939:11942   */\n      dup10\n        /* \"#utility.yul\":11935:11954   */\n      add\n        /* \"#utility.yul\":11929:11955   */\n      mload\n        /* \"#utility.yul\":11987:12035   */\n      tag_202\n        /* \"#utility.yul\":12029:12033   */\n      0x1f\n        /* \"#utility.yul\":12021:12027   */\n      dup10\n        /* \"#utility.yul\":12017:12034   */\n      and\n        /* \"#utility.yul\":12006:12015   */\n      dup3\n        /* \"#utility.yul\":11987:12035   */\n      tag_77\n      jump\t// in\n    tag_202:\n        /* \"#utility.yul\":11979:11985   */\n      dup4\n        /* \"#utility.yul\":11972:12036   */\n      sstore\n        /* \"#utility.yul\":11894:12050   */\n      pop\n        /* \"#utility.yul\":11871:12050   */\n    tag_201:\n        /* \"#utility.yul\":12096:12097   */\n      0x01\n        /* \"#utility.yul\":12092:12093   */\n      0x02\n        /* \"#utility.yul\":12084:12090   */\n      dup9\n        /* \"#utility.yul\":12080:12094   */\n      mul\n        /* \"#utility.yul\":12076:12098   */\n      add\n        /* \"#utility.yul\":12070:12074   */\n      dup9\n        /* \"#utility.yul\":12063:12099   */\n      sstore\n        /* \"#utility.yul\":11498:12109   */\n      pop\n      pop\n      pop\n        /* \"#utility.yul\":11461:12348   */\n    tag_193:\n      pop\n        /* \"#utility.yul\":11051:12354   */\n      pop\n      pop\n      pop\n        /* \"#utility.yul\":10959:12354   */\n      pop\n      pop\n      jump\t// out\n\n    auxdata: 0xa264697066735822122093ad4a3674b14521dc7a9cc3340bbe046068161e62e40501feea69927d8fc0b564736f6c63430008190033\n}\n",
				"bytecode": {
					"linkReferences": {},
					"object": "6080604052348015600e575f80fd5b506109198061001c5f395ff3fe608060405234801561000f575f80fd5b5060043610610034575f3560e01c8063432f842414610038578063a76f54d214610054575b5f80fd5b610052600480360381019061004d91906103fa565b610072565b005b61005c61015b565b6040516100699190610511565b60405180910390f35b600482511180156100845750600b8251105b6100c3576040517f08c379a00000000000000000000000000000000000000000000000000000000081526004016100ba9061058b565b60405180910390fd5b601381511180156100d5575060338151105b610114576040517f08c379a000000000000000000000000000000000000000000000000000000000815260040161010b906105f3565b60405180910390fd5b6040518060400160405280838152602001828152505f80820151815f01908161013d9190610814565b5060208201518160010190816101539190610814565b509050505050565b610163610293565b5f6040518060400160405290815f8201805461017e9061063e565b80601f01602080910402602001604051908101604052809291908181526020018280546101aa9061063e565b80156101f55780601f106101cc576101008083540402835291602001916101f5565b820191905f5260205f20905b8154815290600101906020018083116101d857829003601f168201915b5050505050815260200160018201805461020e9061063e565b80601f016020809104026020016040519081016040528092919081815260200182805461023a9061063e565b80156102855780601f1061025c57610100808354040283529160200191610285565b820191905f5260205f20905b81548152906001019060200180831161026857829003601f168201915b505050505081525050905090565b604051806040016040528060608152602001606081525090565b5f604051905090565b5f80fd5b5f80fd5b5f80fd5b5f80fd5b5f601f19601f8301169050919050565b7f4e487b71000000000000000000000000000000000000000000000000000000005f52604160045260245ffd5b61030c826102c6565b810181811067ffffffffffffffff8211171561032b5761032a6102d6565b5b80604052505050565b5f61033d6102ad565b90506103498282610303565b919050565b5f67ffffffffffffffff821115610368576103676102d6565b5b610371826102c6565b9050602081019050919050565b828183375f83830152505050565b5f61039e6103998461034e565b610334565b9050828152602081018484840111156103ba576103b96102c2565b5b6103c584828561037e565b509392505050565b5f82601f8301126103e1576103e06102be565b5b81356103f184826020860161038c565b91505092915050565b5f80604083850312156104105761040f6102b6565b5b5f83013567ffffffffffffffff81111561042d5761042c6102ba565b5b610439858286016103cd565b925050602083013567ffffffffffffffff81111561045a576104596102ba565b5b610466858286016103cd565b9150509250929050565b5f81519050919050565b5f82825260208201905092915050565b8281835e5f83830152505050565b5f6104a282610470565b6104ac818561047a565b93506104bc81856020860161048a565b6104c5816102c6565b840191505092915050565b5f604083015f8301518482035f8601526104ea8282610498565b915050602083015184820360208601526105048282610498565b9150508091505092915050565b5f6020820190508181035f83015261052981846104d0565b905092915050565b5f82825260208201905092915050565b7f707574206c6574746572206265747777656e203520746f2031300000000000005f82015250565b5f610575601a83610531565b915061058082610541565b602082019050919050565b5f6020820190508181035f8301526105a281610569565b9050919050565b7f707574206c6574746572206265747777656e20323020746f20353000000000005f82015250565b5f6105dd601b83610531565b91506105e8826105a9565b602082019050919050565b5f6020820190508181035f83015261060a816105d1565b9050919050565b7f4e487b71000000000000000000000000000000000000000000000000000000005f52602260045260245ffd5b5f600282049050600182168061065557607f821691505b60208210810361066857610667610611565b5b50919050565b5f819050815f5260205f209050919050565b5f6020601f8301049050919050565b5f82821b905092915050565b5f600883026106ca7fffffffffffffffffffffffffffffffffffffffffffffffffffffffffffffffff8261068f565b6106d4868361068f565b95508019841693508086168417925050509392505050565b5f819050919050565b5f819050919050565b5f61071861071361070e846106ec565b6106f5565b6106ec565b9050919050565b5f819050919050565b610731836106fe565b61074561073d8261071f565b84845461069b565b825550505050565b5f90565b61075961074d565b610764818484610728565b505050565b5b818110156107875761077c5f82610751565b60018101905061076a565b5050565b601f8211156107cc5761079d8161066e565b6107a684610680565b810160208510156107b5578190505b6107c96107c185610680565b830182610769565b50505b505050565b5f82821c905092915050565b5f6107ec5f19846008026107d1565b1980831691505092915050565b5f61080483836107dd565b9150826002028217905092915050565b61081d82610470565b67ffffffffffffffff811115610836576108356102d6565b5b610840825461063e565b61084b82828561078b565b5f60209050601f83116001811461087c575f841561086a578287015190505b61087485826107f9565b8655506108db565b601f19841661088a8661066e565b5f5b828110156108b15784890151825560018201915060208501945060208101905061088c565b868310156108ce57848901516108ca601f8916826107dd565b8355505b6001600288020188555050505b50505050505056fea264697066735822122093ad4a3674b14521dc7a9cc3340bbe046068161e62e40501feea69927d8fc0b564736f6c63430008190033",
					"opcodes": "PUSH1 0x80 PUSH1 0x40 MSTORE CALLVALUE DUP1 ISZERO PUSH1 0xE JUMPI PUSH0 DUP1 REVERT JUMPDEST POP PUSH2 0x919 DUP1 PUSH2 0x1C PUSH0 CODECOPY PUSH0 RETURN INVALID PUSH1 0x80 PUSH1 0x40 MSTORE CALLVALUE DUP1 ISZERO PUSH2 0xF JUMPI PUSH0 DUP1 REVERT JUMPDEST POP PUSH1 0x4 CALLDATASIZE LT PUSH2 0x34 JUMPI PUSH0 CALLDATALOAD PUSH1 0xE0 SHR DUP1 PUSH4 0x432F8424 EQ PUSH2 0x38 JUMPI DUP1 PUSH4 0xA76F54D2 EQ PUSH2 0x54 JUMPI JUMPDEST PUSH0 DUP1 REVERT JUMPDEST PUSH2 0x52 PUSH1 0x4 DUP1 CALLDATASIZE SUB DUP2 ADD SWAP1 PUSH2 0x4D SWAP2 SWAP1 PUSH2 0x3FA JUMP JUMPDEST PUSH2 0x72 JUMP JUMPDEST STOP JUMPDEST PUSH2 0x5C PUSH2 0x15B JUMP JUMPDEST PUSH1 0x40 MLOAD PUSH2 0x69 SWAP2 SWAP1 PUSH2 0x511 JUMP JUMPDEST PUSH1 0x40 MLOAD DUP1 SWAP2 SUB SWAP1 RETURN JUMPDEST PUSH1 0x4 DUP3 MLOAD GT DUP1 ISZERO PUSH2 0x84 JUMPI POP PUSH1 0xB DUP3 MLOAD LT JUMPDEST PUSH2 0xC3 JUMPI PUSH1 0x40 MLOAD PUSH32 0x8C379A000000000000000000000000000000000000000000000000000000000 DUP2 MSTORE PUSH1 0x4 ADD PUSH2 0xBA SWAP1 PUSH2 0x58B JUMP JUMPDEST PUSH1 0x40 MLOAD DUP1 SWAP2 SUB SWAP1 REVERT JUMPDEST PUSH1 0x13 DUP2 MLOAD GT DUP1 ISZERO PUSH2 0xD5 JUMPI POP PUSH1 0x33 DUP2 MLOAD LT JUMPDEST PUSH2 0x114 JUMPI PUSH1 0x40 MLOAD PUSH32 0x8C379A000000000000000000000000000000000000000000000000000000000 DUP2 MSTORE PUSH1 0x4 ADD PUSH2 0x10B SWAP1 PUSH2 0x5F3 JUMP JUMPDEST PUSH1 0x40 MLOAD DUP1 SWAP2 SUB SWAP1 REVERT JUMPDEST PUSH1 0x40 MLOAD DUP1 PUSH1 0x40 ADD PUSH1 0x40 MSTORE DUP1 DUP4 DUP2 MSTORE PUSH1 0x20 ADD DUP3 DUP2 MSTORE POP PUSH0 DUP1 DUP3 ADD MLOAD DUP2 PUSH0 ADD SWAP1 DUP2 PUSH2 0x13D SWAP2 SWAP1 PUSH2 0x814 JUMP JUMPDEST POP PUSH1 0x20 DUP3 ADD MLOAD DUP2 PUSH1 0x1 ADD SWAP1 DUP2 PUSH2 0x153 SWAP2 SWAP1 PUSH2 0x814 JUMP JUMPDEST POP SWAP1 POP POP POP POP JUMP JUMPDEST PUSH2 0x163 PUSH2 0x293 JUMP JUMPDEST PUSH0 PUSH1 0x40 MLOAD DUP1 PUSH1 0x40 ADD PUSH1 0x40 MSTORE SWAP1 DUP2 PUSH0 DUP3 ADD DUP1 SLOAD PUSH2 0x17E SWAP1 PUSH2 0x63E JUMP JUMPDEST DUP1 PUSH1 0x1F ADD PUSH1 0x20 DUP1 SWAP2 DIV MUL PUSH1 0x20 ADD PUSH1 0x40 MLOAD SWAP1 DUP2 ADD PUSH1 0x40 MSTORE DUP1 SWAP3 SWAP2 SWAP1 DUP2 DUP2 MSTORE PUSH1 0x20 ADD DUP3 DUP1 SLOAD PUSH2 0x1AA SWAP1 PUSH2 0x63E JUMP JUMPDEST DUP1 ISZERO PUSH2 0x1F5 JUMPI DUP1 PUSH1 0x1F LT PUSH2 0x1CC JUMPI PUSH2 0x100 DUP1 DUP4 SLOAD DIV MUL DUP4 MSTORE SWAP2 PUSH1 0x20 ADD SWAP2 PUSH2 0x1F5 JUMP JUMPDEST DUP3 ADD SWAP2 SWAP1 PUSH0 MSTORE PUSH1 0x20 PUSH0 KECCAK256 SWAP1 JUMPDEST DUP2 SLOAD DUP2 MSTORE SWAP1 PUSH1 0x1 ADD SWAP1 PUSH1 0x20 ADD DUP1 DUP4 GT PUSH2 0x1D8 JUMPI DUP3 SWAP1 SUB PUSH1 0x1F AND DUP3 ADD SWAP2 JUMPDEST POP POP POP POP POP DUP2 MSTORE PUSH1 0x20 ADD PUSH1 0x1 DUP3 ADD DUP1 SLOAD PUSH2 0x20E SWAP1 PUSH2 0x63E JUMP JUMPDEST DUP1 PUSH1 0x1F ADD PUSH1 0x20 DUP1 SWAP2 DIV MUL PUSH1 0x20 ADD PUSH1 0x40 MLOAD SWAP1 DUP2 ADD PUSH1 0x40 MSTORE DUP1 SWAP3 SWAP2 SWAP1 DUP2 DUP2 MSTORE PUSH1 0x20 ADD DUP3 DUP1 SLOAD PUSH2 0x23A SWAP1 PUSH2 0x63E JUMP JUMPDEST DUP1 ISZERO PUSH2 0x285 JUMPI DUP1 PUSH1 0x1F LT PUSH2 0x25C JUMPI PUSH2 0x100 DUP1 DUP4 SLOAD DIV MUL DUP4 MSTORE SWAP2 PUSH1 0x20 ADD SWAP2 PUSH2 0x285 JUMP JUMPDEST DUP3 ADD SWAP2 SWAP1 PUSH0 MSTORE PUSH1 0x20 PUSH0 KECCAK256 SWAP1 JUMPDEST DUP2 SLOAD DUP2 MSTORE SWAP1 PUSH1 0x1 ADD SWAP1 PUSH1 0x20 ADD DUP1 DUP4 GT PUSH2 0x268 JUMPI DUP3 SWAP1 SUB PUSH1 0x1F AND DUP3 ADD SWAP2 JUMPDEST POP POP POP POP POP DUP2 MSTORE POP POP SWAP1 POP SWAP1 JUMP JUMPDEST PUSH1 0x40 MLOAD DUP1 PUSH1 0x40 ADD PUSH1 0x40 MSTORE DUP1 PUSH1 0x60 DUP2 MSTORE PUSH1 0x20 ADD PUSH1 0x60 DUP2 MSTORE POP SWAP1 JUMP JUMPDEST PUSH0 PUSH1 0x40 MLOAD SWAP1 POP SWAP1 JUMP JUMPDEST PUSH0 DUP1 REVERT JUMPDEST PUSH0 DUP1 REVERT JUMPDEST PUSH0 DUP1 REVERT JUMPDEST PUSH0 DUP1 REVERT JUMPDEST PUSH0 PUSH1 0x1F NOT PUSH1 0x1F DUP4 ADD AND SWAP1 POP SWAP2 SWAP1 POP JUMP JUMPDEST PUSH32 0x4E487B7100000000000000000000000000000000000000000000000000000000 PUSH0 MSTORE PUSH1 0x41 PUSH1 0x4 MSTORE PUSH1 0x24 PUSH0 REVERT JUMPDEST PUSH2 0x30C DUP3 PUSH2 0x2C6 JUMP JUMPDEST DUP2 ADD DUP2 DUP2 LT PUSH8 0xFFFFFFFFFFFFFFFF DUP3 GT OR ISZERO PUSH2 0x32B JUMPI PUSH2 0x32A PUSH2 0x2D6 JUMP JUMPDEST JUMPDEST DUP1 PUSH1 0x40 MSTORE POP POP POP JUMP JUMPDEST PUSH0 PUSH2 0x33D PUSH2 0x2AD JUMP JUMPDEST SWAP1 POP PUSH2 0x349 DUP3 DUP3 PUSH2 0x303 JUMP JUMPDEST SWAP2 SWAP1 POP JUMP JUMPDEST PUSH0 PUSH8 0xFFFFFFFFFFFFFFFF DUP3 GT ISZERO PUSH2 0x368 JUMPI PUSH2 0x367 PUSH2 0x2D6 JUMP JUMPDEST JUMPDEST PUSH2 0x371 DUP3 PUSH2 0x2C6 JUMP JUMPDEST SWAP1 POP PUSH1 0x20 DUP2 ADD SWAP1 POP SWAP2 SWAP1 POP JUMP JUMPDEST DUP3 DUP2 DUP4 CALLDATACOPY PUSH0 DUP4 DUP4 ADD MSTORE POP POP POP JUMP JUMPDEST PUSH0 PUSH2 0x39E PUSH2 0x399 DUP5 PUSH2 0x34E JUMP JUMPDEST PUSH2 0x334 JUMP JUMPDEST SWAP1 POP DUP3 DUP2 MSTORE PUSH1 0x20 DUP2 ADD DUP5 DUP5 DUP5 ADD GT ISZERO PUSH2 0x3BA JUMPI PUSH2 0x3B9 PUSH2 0x2C2 JUMP JUMPDEST JUMPDEST PUSH2 0x3C5 DUP5 DUP3 DUP6 PUSH2 0x37E JUMP JUMPDEST POP SWAP4 SWAP3 POP POP POP JUMP JUMPDEST PUSH0 DUP3 PUSH1 0x1F DUP4 ADD SLT PUSH2 0x3E1 JUMPI PUSH2 0x3E0 PUSH2 0x2BE JUMP JUMPDEST JUMPDEST DUP2 CALLDATALOAD PUSH2 0x3F1 DUP5 DUP3 PUSH1 0x20 DUP7 ADD PUSH2 0x38C JUMP JUMPDEST SWAP2 POP POP SWAP3 SWAP2 POP POP JUMP JUMPDEST PUSH0 DUP1 PUSH1 0x40 DUP4 DUP6 SUB SLT ISZERO PUSH2 0x410 JUMPI PUSH2 0x40F PUSH2 0x2B6 JUMP JUMPDEST JUMPDEST PUSH0 DUP4 ADD CALLDATALOAD PUSH8 0xFFFFFFFFFFFFFFFF DUP2 GT ISZERO PUSH2 0x42D JUMPI PUSH2 0x42C PUSH2 0x2BA JUMP JUMPDEST JUMPDEST PUSH2 0x439 DUP6 DUP3 DUP7 ADD PUSH2 0x3CD JUMP JUMPDEST SWAP3 POP POP PUSH1 0x20 DUP4 ADD CALLDATALOAD PUSH8 0xFFFFFFFFFFFFFFFF DUP2 GT ISZERO PUSH2 0x45A JUMPI PUSH2 0x459 PUSH2 0x2BA JUMP JUMPDEST JUMPDEST PUSH2 0x466 DUP6 DUP3 DUP7 ADD PUSH2 0x3CD JUMP JUMPDEST SWAP2 POP POP SWAP3 POP SWAP3 SWAP1 POP JUMP JUMPDEST PUSH0 DUP2 MLOAD SWAP1 POP SWAP2 SWAP1 POP JUMP JUMPDEST PUSH0 DUP3 DUP3 MSTORE PUSH1 0x20 DUP3 ADD SWAP1 POP SWAP3 SWAP2 POP POP JUMP JUMPDEST DUP3 DUP2 DUP4 MCOPY PUSH0 DUP4 DUP4 ADD MSTORE POP POP POP JUMP JUMPDEST PUSH0 PUSH2 0x4A2 DUP3 PUSH2 0x470 JUMP JUMPDEST PUSH2 0x4AC DUP2 DUP6 PUSH2 0x47A JUMP JUMPDEST SWAP4 POP PUSH2 0x4BC DUP2 DUP6 PUSH1 0x20 DUP7 ADD PUSH2 0x48A JUMP JUMPDEST PUSH2 0x4C5 DUP2 PUSH2 0x2C6 JUMP JUMPDEST DUP5 ADD SWAP2 POP POP SWAP3 SWAP2 POP POP JUMP JUMPDEST PUSH0 PUSH1 0x40 DUP4 ADD PUSH0 DUP4 ADD MLOAD DUP5 DUP3 SUB PUSH0 DUP7 ADD MSTORE PUSH2 0x4EA DUP3 DUP3 PUSH2 0x498 JUMP JUMPDEST SWAP2 POP POP PUSH1 0x20 DUP4 ADD MLOAD DUP5 DUP3 SUB PUSH1 0x20 DUP7 ADD MSTORE PUSH2 0x504 DUP3 DUP3 PUSH2 0x498 JUMP JUMPDEST SWAP2 POP POP DUP1 SWAP2 POP POP SWAP3 SWAP2 POP POP JUMP JUMPDEST PUSH0 PUSH1 0x20 DUP3 ADD SWAP1 POP DUP2 DUP2 SUB PUSH0 DUP4 ADD MSTORE PUSH2 0x529 DUP2 DUP5 PUSH2 0x4D0 JUMP JUMPDEST SWAP1 POP SWAP3 SWAP2 POP POP JUMP JUMPDEST PUSH0 DUP3 DUP3 MSTORE PUSH1 0x20 DUP3 ADD SWAP1 POP SWAP3 SWAP2 POP POP JUMP JUMPDEST PUSH32 0x707574206C6574746572206265747777656E203520746F203130000000000000 PUSH0 DUP3 ADD MSTORE POP JUMP JUMPDEST PUSH0 PUSH2 0x575 PUSH1 0x1A DUP4 PUSH2 0x531 JUMP JUMPDEST SWAP2 POP PUSH2 0x580 DUP3 PUSH2 0x541 JUMP JUMPDEST PUSH1 0x20 DUP3 ADD SWAP1 POP SWAP2 SWAP1 POP JUMP JUMPDEST PUSH0 PUSH1 0x20 DUP3 ADD SWAP1 POP DUP2 DUP2 SUB PUSH0 DUP4 ADD MSTORE PUSH2 0x5A2 DUP2 PUSH2 0x569 JUMP JUMPDEST SWAP1 POP SWAP2 SWAP1 POP JUMP JUMPDEST PUSH32 0x707574206C6574746572206265747777656E20323020746F2035300000000000 PUSH0 DUP3 ADD MSTORE POP JUMP JUMPDEST PUSH0 PUSH2 0x5DD PUSH1 0x1B DUP4 PUSH2 0x531 JUMP JUMPDEST SWAP2 POP PUSH2 0x5E8 DUP3 PUSH2 0x5A9 JUMP JUMPDEST PUSH1 0x20 DUP3 ADD SWAP1 POP SWAP2 SWAP1 POP JUMP JUMPDEST PUSH0 PUSH1 0x20 DUP3 ADD SWAP1 POP DUP2 DUP2 SUB PUSH0 DUP4 ADD MSTORE PUSH2 0x60A DUP2 PUSH2 0x5D1 JUMP JUMPDEST SWAP1 POP SWAP2 SWAP1 POP JUMP JUMPDEST PUSH32 0x4E487B7100000000000000000000000000000000000000000000000000000000 PUSH0 MSTORE PUSH1 0x22 PUSH1 0x4 MSTORE PUSH1 0x24 PUSH0 REVERT JUMPDEST PUSH0 PUSH1 0x2 DUP3 DIV SWAP1 POP PUSH1 0x1 DUP3 AND DUP1 PUSH2 0x655 JUMPI PUSH1 0x7F DUP3 AND SWAP2 POP JUMPDEST PUSH1 0x20 DUP3 LT DUP2 SUB PUSH2 0x668 JUMPI PUSH2 0x667 PUSH2 0x611 JUMP JUMPDEST JUMPDEST POP SWAP2 SWAP1 POP JUMP JUMPDEST PUSH0 DUP2 SWAP1 POP DUP2 PUSH0 MSTORE PUSH1 0x20 PUSH0 KECCAK256 SWAP1 POP SWAP2 SWAP1 POP JUMP JUMPDEST PUSH0 PUSH1 0x20 PUSH1 0x1F DUP4 ADD DIV SWAP1 POP SWAP2 SWAP1 POP JUMP JUMPDEST PUSH0 DUP3 DUP3 SHL SWAP1 POP SWAP3 SWAP2 POP POP JUMP JUMPDEST PUSH0 PUSH1 0x8 DUP4 MUL PUSH2 0x6CA PUSH32 0xFFFFFFFFFFFFFFFFFFFFFFFFFFFFFFFFFFFFFFFFFFFFFFFFFFFFFFFFFFFFFFFF DUP3 PUSH2 0x68F JUMP JUMPDEST PUSH2 0x6D4 DUP7 DUP4 PUSH2 0x68F JUMP JUMPDEST SWAP6 POP DUP1 NOT DUP5 AND SWAP4 POP DUP1 DUP7 AND DUP5 OR SWAP3 POP POP POP SWAP4 SWAP3 POP POP POP JUMP JUMPDEST PUSH0 DUP2 SWAP1 POP SWAP2 SWAP1 POP JUMP JUMPDEST PUSH0 DUP2 SWAP1 POP SWAP2 SWAP1 POP JUMP JUMPDEST PUSH0 PUSH2 0x718 PUSH2 0x713 PUSH2 0x70E DUP5 PUSH2 0x6EC JUMP JUMPDEST PUSH2 0x6F5 JUMP JUMPDEST PUSH2 0x6EC JUMP JUMPDEST SWAP1 POP SWAP2 SWAP1 POP JUMP JUMPDEST PUSH0 DUP2 SWAP1 POP SWAP2 SWAP1 POP JUMP JUMPDEST PUSH2 0x731 DUP4 PUSH2 0x6FE JUMP JUMPDEST PUSH2 0x745 PUSH2 0x73D DUP3 PUSH2 0x71F JUMP JUMPDEST DUP5 DUP5 SLOAD PUSH2 0x69B JUMP JUMPDEST DUP3 SSTORE POP POP POP POP JUMP JUMPDEST PUSH0 SWAP1 JUMP JUMPDEST PUSH2 0x759 PUSH2 0x74D JUMP JUMPDEST PUSH2 0x764 DUP2 DUP5 DUP5 PUSH2 0x728 JUMP JUMPDEST POP POP POP JUMP JUMPDEST JUMPDEST DUP2 DUP2 LT ISZERO PUSH2 0x787 JUMPI PUSH2 0x77C PUSH0 DUP3 PUSH2 0x751 JUMP JUMPDEST PUSH1 0x1 DUP2 ADD SWAP1 POP PUSH2 0x76A JUMP JUMPDEST POP POP JUMP JUMPDEST PUSH1 0x1F DUP3 GT ISZERO PUSH2 0x7CC JUMPI PUSH2 0x79D DUP2 PUSH2 0x66E JUMP JUMPDEST PUSH2 0x7A6 DUP5 PUSH2 0x680 JUMP JUMPDEST DUP2 ADD PUSH1 0x20 DUP6 LT ISZERO PUSH2 0x7B5 JUMPI DUP2 SWAP1 POP JUMPDEST PUSH2 0x7C9 PUSH2 0x7C1 DUP6 PUSH2 0x680 JUMP JUMPDEST DUP4 ADD DUP3 PUSH2 0x769 JUMP JUMPDEST POP POP JUMPDEST POP POP POP JUMP JUMPDEST PUSH0 DUP3 DUP3 SHR SWAP1 POP SWAP3 SWAP2 POP POP JUMP JUMPDEST PUSH0 PUSH2 0x7EC PUSH0 NOT DUP5 PUSH1 0x8 MUL PUSH2 0x7D1 JUMP JUMPDEST NOT DUP1 DUP4 AND SWAP2 POP POP SWAP3 SWAP2 POP POP JUMP JUMPDEST PUSH0 PUSH2 0x804 DUP4 DUP4 PUSH2 0x7DD JUMP JUMPDEST SWAP2 POP DUP3 PUSH1 0x2 MUL DUP3 OR SWAP1 POP SWAP3 SWAP2 POP POP JUMP JUMPDEST PUSH2 0x81D DUP3 PUSH2 0x470 JUMP JUMPDEST PUSH8 0xFFFFFFFFFFFFFFFF DUP2 GT ISZERO PUSH2 0x836 JUMPI PUSH2 0x835 PUSH2 0x2D6 JUMP JUMPDEST JUMPDEST PUSH2 0x840 DUP3 SLOAD PUSH2 0x63E JUMP JUMPDEST PUSH2 0x84B DUP3 DUP3 DUP6 PUSH2 0x78B JUMP JUMPDEST PUSH0 PUSH1 0x20 SWAP1 POP PUSH1 0x1F DUP4 GT PUSH1 0x1 DUP2 EQ PUSH2 0x87C JUMPI PUSH0 DUP5 ISZERO PUSH2 0x86A JUMPI DUP3 DUP8 ADD MLOAD SWAP1 POP JUMPDEST PUSH2 0x874 DUP6 DUP3 PUSH2 0x7F9 JUMP JUMPDEST DUP7 SSTORE POP PUSH2 0x8DB JUMP JUMPDEST PUSH1 0x1F NOT DUP5 AND PUSH2 0x88A DUP7 PUSH2 0x66E JUMP JUMPDEST PUSH0 JUMPDEST DUP3 DUP2 LT ISZERO PUSH2 0x8B1 JUMPI DUP5 DUP10 ADD MLOAD DUP3 SSTORE PUSH1 0x1 DUP3 ADD SWAP2 POP PUSH1 0x20 DUP6 ADD SWAP5 POP PUSH1 0x20 DUP2 ADD SWAP1 POP PUSH2 0x88C JUMP JUMPDEST DUP7 DUP4 LT ISZERO PUSH2 0x8CE JUMPI DUP5 DUP10 ADD MLOAD PUSH2 0x8CA PUSH1 0x1F DUP10 AND DUP3 PUSH2 0x7DD JUMP JUMPDEST DUP4 SSTORE POP JUMPDEST PUSH1 0x1 PUSH1 0x2 DUP9 MUL ADD DUP9 SSTORE POP POP POP JUMPDEST POP POP POP POP POP POP JUMP INVALID LOG2 PUSH5 0x6970667358 0x22 SLT KECCAK256 SWAP4 0xAD BLOBBASEFEE CALLDATASIZE PUSH21 0xB14521DC7A9CC3340BBE046068161E62E40501FEEA PUSH10 0x927D8FC0B564736F6C63 NUMBER STOP ADDMOD NOT STOP CALLER "
				},
				"gasEstimates": {
					"creation": {
						"codeDepositCost": "465800",
						"executionCost": "497",
						"totalCost": "466297"
					},
					"external": {
						"getC1()": "infinite",
						"setC1(string,string)": "infinite"
					}
				},
				"methodIdentifiers": {
					"getC1()": "a76f54d2",
					"setC1(string,string)": "432f8424"
				}
			},
			"storageLayout": {
				"storage": [
					{
						"astId": 437,
						"contract": "solidity_100/81-90.sol:Q89",
						"label": "c1",
						"offset": 0,
						"slot": "0",
						"type": "t_struct(Customer)434_storage"
					}
				],
				"types": {
					"t_string_storage": {
						"encoding": "bytes",
						"label": "string",
						"numberOfBytes": "32"
					},
					"t_struct(Customer)434_storage": {
						"encoding": "inplace",
						"label": "struct Q89.Customer",
						"members": [
							{
								"astId": 431,
								"contract": "solidity_100/81-90.sol:Q89",
								"label": "name",
								"offset": 0,
								"slot": "0",
								"type": "t_string_storage"
							},
							{
								"astId": 433,
								"contract": "solidity_100/81-90.sol:Q89",
								"label": "selfIntro",
								"offset": 0,
								"slot": "1",
								"type": "t_string_storage"
							}
						],
						"numberOfBytes": "64"
					}
				}
			},
			"userdoc": {
				"kind": "user",
				"methods": {},
				"version": 1
			}
		}
	}
}