{
	"solidity_100/21-30.sol": {
		"Q21": {
			"abi": [
				{
					"inputs": [
						{
							"internalType": "uint256",
							"name": "_n",
							"type": "uint256"
						}
					],
					"name": "localArray3",
					"outputs": [
						{
							"internalType": "uint256[1]",
							"name": "",
							"type": "uint256[1]"
						}
					],
					"stateMutability": "pure",
					"type": "function"
				},
				{
					"inputs": [
						{
							"internalType": "uint256",
							"name": "_n",
							"type": "uint256"
						}
					],
					"name": "stateArray3",
					"outputs": [
						{
							"internalType": "uint256[]",
							"name": "",
							"type": "uint256[]"
						}
					],
					"stateMutability": "nonpayable",
					"type": "function"
				}
			],
			"devdoc": {
				"kind": "dev",
				"methods": {},
				"version": 1
			},
			"evm": {
				"assembly": "    /* \"solidity_100/21-30.sol\":75:565  contract Q21 {... */\n  mstore(0x40, 0x80)\n  callvalue\n  dup1\n  iszero\n  tag_1\n  jumpi\n  0x00\n  dup1\n  revert\ntag_1:\n  pop\n  dataSize(sub_0)\n  dup1\n  dataOffset(sub_0)\n  0x00\n  codecopy\n  0x00\n  return\nstop\n\nsub_0: assembly {\n        /* \"solidity_100/21-30.sol\":75:565  contract Q21 {... */\n      mstore(0x40, 0x80)\n      callvalue\n      dup1\n      iszero\n      tag_1\n      jumpi\n      0x00\n      dup1\n      revert\n    tag_1:\n      pop\n      jumpi(tag_2, lt(calldatasize, 0x04))\n      shr(0xe0, calldataload(0x00))\n      dup1\n      0x56309365\n      eq\n      tag_3\n      jumpi\n      dup1\n      0xc8849def\n      eq\n      tag_4\n      jumpi\n    tag_2:\n      0x00\n      dup1\n      revert\n        /* \"solidity_100/21-30.sol\":184:378  function localArray3(uint _n) public pure returns(uint[1] memory) {... */\n    tag_3:\n      tag_5\n      0x04\n      dup1\n      calldatasize\n      sub\n      dup2\n      add\n      swap1\n      tag_6\n      swap2\n      swap1\n      tag_7\n      jump\t// in\n    tag_6:\n      tag_8\n      jump\t// in\n    tag_5:\n      mload(0x40)\n      tag_9\n      swap2\n      swap1\n      tag_10\n      jump\t// in\n    tag_9:\n      mload(0x40)\n      dup1\n      swap2\n      sub\n      swap1\n      return\n        /* \"solidity_100/21-30.sol\":405:562  function stateArray3(uint _n) public returns(uint[] memory){... */\n    tag_4:\n      tag_11\n      0x04\n      dup1\n      calldatasize\n      sub\n      dup2\n      add\n      swap1\n      tag_12\n      swap2\n      swap1\n      tag_7\n      jump\t// in\n    tag_12:\n      tag_13\n      jump\t// in\n    tag_11:\n      mload(0x40)\n      tag_14\n      swap2\n      swap1\n      tag_15\n      jump\t// in\n    tag_14:\n      mload(0x40)\n      dup1\n      swap2\n      sub\n      swap1\n      return\n        /* \"solidity_100/21-30.sol\":184:378  function localArray3(uint _n) public pure returns(uint[1] memory) {... */\n    tag_8:\n        /* \"solidity_100/21-30.sol\":234:248  uint[1] memory */\n      tag_16\n      tag_17\n      jump\t// in\n    tag_16:\n        /* \"solidity_100/21-30.sol\":261:281  uint[1] memory local */\n      tag_19\n      tag_17\n      jump\t// in\n    tag_19:\n        /* \"solidity_100/21-30.sol\":305:306  0 */\n      0x00\n        /* \"solidity_100/21-30.sol\":300:301  3 */\n      0x03\n        /* \"solidity_100/21-30.sol\":295:297  _n */\n      dup5\n        /* \"solidity_100/21-30.sol\":295:301  _n % 3 */\n      tag_20\n      swap2\n      swap1\n      tag_21\n      jump\t// in\n    tag_20:\n        /* \"solidity_100/21-30.sol\":295:306  _n % 3 == 0 */\n      sub\n        /* \"solidity_100/21-30.sol\":292:348  if(_n % 3 == 0) {... */\n      tag_22\n      jumpi\n        /* \"solidity_100/21-30.sol\":334:336  _n */\n      dup3\n        /* \"solidity_100/21-30.sol\":323:328  local */\n      dup2\n        /* \"solidity_100/21-30.sol\":329:330  0 */\n      0x00\n        /* \"solidity_100/21-30.sol\":323:331  local[0] */\n      0x01\n      dup2\n      lt\n      tag_23\n      jumpi\n      tag_24\n      tag_25\n      jump\t// in\n    tag_24:\n    tag_23:\n      0x20\n      mul\n      add\n        /* \"solidity_100/21-30.sol\":323:336  local[0] = _n */\n      dup2\n      dup2\n      mstore\n      pop\n      pop\n        /* \"solidity_100/21-30.sol\":292:348  if(_n % 3 == 0) {... */\n    tag_22:\n        /* \"solidity_100/21-30.sol\":365:370  local */\n      dup1\n        /* \"solidity_100/21-30.sol\":358:370  return local */\n      swap2\n      pop\n      pop\n        /* \"solidity_100/21-30.sol\":184:378  function localArray3(uint _n) public pure returns(uint[1] memory) {... */\n      swap2\n      swap1\n      pop\n      jump\t// out\n        /* \"solidity_100/21-30.sol\":405:562  function stateArray3(uint _n) public returns(uint[] memory){... */\n    tag_13:\n        /* \"solidity_100/21-30.sol\":450:463  uint[] memory */\n      0x60\n        /* \"solidity_100/21-30.sol\":488:489  0 */\n      0x00\n        /* \"solidity_100/21-30.sol\":483:484  3 */\n      0x03\n        /* \"solidity_100/21-30.sol\":478:480  _n */\n      dup4\n        /* \"solidity_100/21-30.sol\":478:484  _n % 3 */\n      tag_27\n      swap2\n      swap1\n      tag_21\n      jump\t// in\n    tag_27:\n        /* \"solidity_100/21-30.sol\":478:489  _n % 3 == 0 */\n      sub\n        /* \"solidity_100/21-30.sol\":475:532  if(_n % 3 == 0) {... */\n      tag_28\n      jumpi\n        /* \"solidity_100/21-30.sol\":506:511  state */\n      0x00\n        /* \"solidity_100/21-30.sol\":517:519  _n */\n      dup3\n        /* \"solidity_100/21-30.sol\":506:520  state.push(_n) */\n      swap1\n      dup1\n      0x01\n      dup2\n      sload\n      add\n      dup1\n      dup3\n      sstore\n      dup1\n      swap2\n      pop\n      pop\n      0x01\n      swap1\n      sub\n      swap1\n      0x00\n      mstore\n      keccak256(0x00, 0x20)\n      add\n      0x00\n      swap1\n      swap2\n      swap1\n      swap2\n      swap1\n      swap2\n      pop\n      sstore\n        /* \"solidity_100/21-30.sol\":475:532  if(_n % 3 == 0) {... */\n    tag_28:\n        /* \"solidity_100/21-30.sol\":549:554  state */\n      0x00\n        /* \"solidity_100/21-30.sol\":542:554  return state */\n      dup1\n      sload\n      dup1\n      0x20\n      mul\n      0x20\n      add\n      mload(0x40)\n      swap1\n      dup2\n      add\n      0x40\n      mstore\n      dup1\n      swap3\n      swap2\n      swap1\n      dup2\n      dup2\n      mstore\n      0x20\n      add\n      dup3\n      dup1\n      sload\n      dup1\n      iszero\n      tag_30\n      jumpi\n      0x20\n      mul\n      dup3\n      add\n      swap2\n      swap1\n      0x00\n      mstore\n      keccak256(0x00, 0x20)\n      swap1\n    tag_31:\n      dup2\n      sload\n      dup2\n      mstore\n      0x20\n      add\n      swap1\n      0x01\n      add\n      swap1\n      dup1\n      dup4\n      gt\n      tag_31\n      jumpi\n    tag_30:\n      pop\n      pop\n      pop\n      pop\n      pop\n      swap1\n      pop\n        /* \"solidity_100/21-30.sol\":405:562  function stateArray3(uint _n) public returns(uint[] memory){... */\n      swap2\n      swap1\n      pop\n      jump\t// out\n    tag_17:\n      mload(0x40)\n      dup1\n      0x20\n      add\n      0x40\n      mstore\n      dup1\n      0x01\n      swap1\n      0x20\n      dup3\n      mul\n      dup1\n      calldatasize\n      dup4\n      calldatacopy\n      dup1\n      dup3\n      add\n      swap2\n      pop\n      pop\n      swap1\n      pop\n      pop\n      swap1\n      jump\t// out\n        /* \"#utility.yul\":88:205   */\n    tag_33:\n        /* \"#utility.yul\":197:198   */\n      0x00\n        /* \"#utility.yul\":194:195   */\n      dup1\n        /* \"#utility.yul\":187:199   */\n      revert\n        /* \"#utility.yul\":334:411   */\n    tag_35:\n        /* \"#utility.yul\":371:378   */\n      0x00\n        /* \"#utility.yul\":400:405   */\n      dup2\n        /* \"#utility.yul\":389:405   */\n      swap1\n      pop\n        /* \"#utility.yul\":334:411   */\n      swap2\n      swap1\n      pop\n      jump\t// out\n        /* \"#utility.yul\":417:539   */\n    tag_36:\n        /* \"#utility.yul\":490:514   */\n      tag_57\n        /* \"#utility.yul\":508:513   */\n      dup2\n        /* \"#utility.yul\":490:514   */\n      tag_35\n      jump\t// in\n    tag_57:\n        /* \"#utility.yul\":483:488   */\n      dup2\n        /* \"#utility.yul\":480:515   */\n      eq\n        /* \"#utility.yul\":470:533   */\n      tag_58\n      jumpi\n        /* \"#utility.yul\":529:530   */\n      0x00\n        /* \"#utility.yul\":526:527   */\n      dup1\n        /* \"#utility.yul\":519:531   */\n      revert\n        /* \"#utility.yul\":470:533   */\n    tag_58:\n        /* \"#utility.yul\":417:539   */\n      pop\n      jump\t// out\n        /* \"#utility.yul\":545:684   */\n    tag_37:\n        /* \"#utility.yul\":591:596   */\n      0x00\n        /* \"#utility.yul\":629:635   */\n      dup2\n        /* \"#utility.yul\":616:636   */\n      calldataload\n        /* \"#utility.yul\":607:636   */\n      swap1\n      pop\n        /* \"#utility.yul\":645:678   */\n      tag_60\n        /* \"#utility.yul\":672:677   */\n      dup2\n        /* \"#utility.yul\":645:678   */\n      tag_36\n      jump\t// in\n    tag_60:\n        /* \"#utility.yul\":545:684   */\n      swap3\n      swap2\n      pop\n      pop\n      jump\t// out\n        /* \"#utility.yul\":690:1019   */\n    tag_7:\n        /* \"#utility.yul\":749:755   */\n      0x00\n        /* \"#utility.yul\":798:800   */\n      0x20\n        /* \"#utility.yul\":786:795   */\n      dup3\n        /* \"#utility.yul\":777:784   */\n      dup5\n        /* \"#utility.yul\":773:796   */\n      sub\n        /* \"#utility.yul\":769:801   */\n      slt\n        /* \"#utility.yul\":766:885   */\n      iszero\n      tag_62\n      jumpi\n        /* \"#utility.yul\":804:883   */\n      tag_63\n      tag_33\n      jump\t// in\n    tag_63:\n        /* \"#utility.yul\":766:885   */\n    tag_62:\n        /* \"#utility.yul\":924:925   */\n      0x00\n        /* \"#utility.yul\":949:1002   */\n      tag_64\n        /* \"#utility.yul\":994:1001   */\n      dup5\n        /* \"#utility.yul\":985:991   */\n      dup3\n        /* \"#utility.yul\":974:983   */\n      dup6\n        /* \"#utility.yul\":970:992   */\n      add\n        /* \"#utility.yul\":949:1002   */\n      tag_37\n      jump\t// in\n    tag_64:\n        /* \"#utility.yul\":939:1002   */\n      swap2\n      pop\n        /* \"#utility.yul\":895:1012   */\n      pop\n        /* \"#utility.yul\":690:1019   */\n      swap3\n      swap2\n      pop\n      pop\n      jump\t// out\n        /* \"#utility.yul\":1025:1129   */\n    tag_38:\n        /* \"#utility.yul\":1090:1096   */\n      0x00\n        /* \"#utility.yul\":1118:1122   */\n      0x01\n        /* \"#utility.yul\":1108:1122   */\n      swap1\n      pop\n        /* \"#utility.yul\":1025:1129   */\n      swap2\n      swap1\n      pop\n      jump\t// out\n        /* \"#utility.yul\":1135:1278   */\n    tag_39:\n        /* \"#utility.yul\":1232:1243   */\n      0x00\n        /* \"#utility.yul\":1269:1272   */\n      dup2\n        /* \"#utility.yul\":1254:1272   */\n      swap1\n      pop\n        /* \"#utility.yul\":1135:1278   */\n      swap3\n      swap2\n      pop\n      pop\n      jump\t// out\n        /* \"#utility.yul\":1284:1382   */\n    tag_40:\n        /* \"#utility.yul\":1349:1353   */\n      0x00\n        /* \"#utility.yul\":1372:1375   */\n      dup2\n        /* \"#utility.yul\":1364:1375   */\n      swap1\n      pop\n        /* \"#utility.yul\":1284:1382   */\n      swap2\n      swap1\n      pop\n      jump\t// out\n        /* \"#utility.yul\":1388:1496   */\n    tag_41:\n        /* \"#utility.yul\":1465:1489   */\n      tag_69\n        /* \"#utility.yul\":1483:1488   */\n      dup2\n        /* \"#utility.yul\":1465:1489   */\n      tag_35\n      jump\t// in\n    tag_69:\n        /* \"#utility.yul\":1460:1463   */\n      dup3\n        /* \"#utility.yul\":1453:1490   */\n      mstore\n        /* \"#utility.yul\":1388:1496   */\n      pop\n      pop\n      jump\t// out\n        /* \"#utility.yul\":1502:1681   */\n    tag_42:\n        /* \"#utility.yul\":1571:1581   */\n      0x00\n        /* \"#utility.yul\":1592:1638   */\n      tag_71\n        /* \"#utility.yul\":1634:1637   */\n      dup4\n        /* \"#utility.yul\":1626:1632   */\n      dup4\n        /* \"#utility.yul\":1592:1638   */\n      tag_41\n      jump\t// in\n    tag_71:\n        /* \"#utility.yul\":1670:1674   */\n      0x20\n        /* \"#utility.yul\":1665:1668   */\n      dup4\n        /* \"#utility.yul\":1661:1675   */\n      add\n        /* \"#utility.yul\":1647:1675   */\n      swap1\n      pop\n        /* \"#utility.yul\":1502:1681   */\n      swap3\n      swap2\n      pop\n      pop\n      jump\t// out\n        /* \"#utility.yul\":1687:1798   */\n    tag_43:\n        /* \"#utility.yul\":1755:1759   */\n      0x00\n        /* \"#utility.yul\":1787:1791   */\n      0x20\n        /* \"#utility.yul\":1782:1785   */\n      dup3\n        /* \"#utility.yul\":1778:1792   */\n      add\n        /* \"#utility.yul\":1770:1792   */\n      swap1\n      pop\n        /* \"#utility.yul\":1687:1798   */\n      swap2\n      swap1\n      pop\n      jump\t// out\n        /* \"#utility.yul\":1836:2530   */\n    tag_44:\n        /* \"#utility.yul\":1972:2024   */\n      tag_74\n        /* \"#utility.yul\":2018:2023   */\n      dup2\n        /* \"#utility.yul\":1972:2024   */\n      tag_38\n      jump\t// in\n    tag_74:\n        /* \"#utility.yul\":2040:2124   */\n      tag_75\n        /* \"#utility.yul\":2117:2123   */\n      dup2\n        /* \"#utility.yul\":2112:2115   */\n      dup5\n        /* \"#utility.yul\":2040:2124   */\n      tag_39\n      jump\t// in\n    tag_75:\n        /* \"#utility.yul\":2033:2124   */\n      swap3\n      pop\n        /* \"#utility.yul\":2148:2202   */\n      tag_76\n        /* \"#utility.yul\":2196:2201   */\n      dup3\n        /* \"#utility.yul\":2148:2202   */\n      tag_40\n      jump\t// in\n    tag_76:\n        /* \"#utility.yul\":2225:2232   */\n      dup1\n        /* \"#utility.yul\":2256:2257   */\n      0x00\n        /* \"#utility.yul\":2241:2523   */\n    tag_77:\n        /* \"#utility.yul\":2266:2272   */\n      dup4\n        /* \"#utility.yul\":2263:2264   */\n      dup2\n        /* \"#utility.yul\":2260:2273   */\n      lt\n        /* \"#utility.yul\":2241:2523   */\n      iszero\n      tag_79\n      jumpi\n        /* \"#utility.yul\":2342:2348   */\n      dup2\n        /* \"#utility.yul\":2336:2349   */\n      mload\n        /* \"#utility.yul\":2369:2432   */\n      tag_80\n        /* \"#utility.yul\":2428:2431   */\n      dup8\n        /* \"#utility.yul\":2413:2426   */\n      dup3\n        /* \"#utility.yul\":2369:2432   */\n      tag_42\n      jump\t// in\n    tag_80:\n        /* \"#utility.yul\":2362:2432   */\n      swap7\n      pop\n        /* \"#utility.yul\":2455:2513   */\n      tag_81\n        /* \"#utility.yul\":2506:2512   */\n      dup4\n        /* \"#utility.yul\":2455:2513   */\n      tag_43\n      jump\t// in\n    tag_81:\n        /* \"#utility.yul\":2445:2513   */\n      swap3\n      pop\n        /* \"#utility.yul\":2301:2523   */\n      pop\n        /* \"#utility.yul\":2288:2289   */\n      0x01\n        /* \"#utility.yul\":2285:2286   */\n      dup2\n        /* \"#utility.yul\":2281:2290   */\n      add\n        /* \"#utility.yul\":2276:2290   */\n      swap1\n      pop\n        /* \"#utility.yul\":2241:2523   */\n      jump(tag_77)\n    tag_79:\n        /* \"#utility.yul\":2245:2259   */\n      pop\n        /* \"#utility.yul\":1948:2530   */\n      pop\n      pop\n      pop\n        /* \"#utility.yul\":1836:2530   */\n      pop\n      pop\n      jump\t// out\n        /* \"#utility.yul\":2536:2850   */\n    tag_10:\n        /* \"#utility.yul\":2675:2679   */\n      0x00\n        /* \"#utility.yul\":2713:2715   */\n      0x20\n        /* \"#utility.yul\":2702:2711   */\n      dup3\n        /* \"#utility.yul\":2698:2716   */\n      add\n        /* \"#utility.yul\":2690:2716   */\n      swap1\n      pop\n        /* \"#utility.yul\":2726:2843   */\n      tag_83\n        /* \"#utility.yul\":2840:2841   */\n      0x00\n        /* \"#utility.yul\":2829:2838   */\n      dup4\n        /* \"#utility.yul\":2825:2842   */\n      add\n        /* \"#utility.yul\":2816:2822   */\n      dup5\n        /* \"#utility.yul\":2726:2843   */\n      tag_44\n      jump\t// in\n    tag_83:\n        /* \"#utility.yul\":2536:2850   */\n      swap3\n      swap2\n      pop\n      pop\n      jump\t// out\n        /* \"#utility.yul\":2856:2970   */\n    tag_45:\n        /* \"#utility.yul\":2923:2929   */\n      0x00\n        /* \"#utility.yul\":2957:2962   */\n      dup2\n        /* \"#utility.yul\":2951:2963   */\n      mload\n        /* \"#utility.yul\":2941:2963   */\n      swap1\n      pop\n        /* \"#utility.yul\":2856:2970   */\n      swap2\n      swap1\n      pop\n      jump\t// out\n        /* \"#utility.yul\":2976:3160   */\n    tag_46:\n        /* \"#utility.yul\":3075:3086   */\n      0x00\n        /* \"#utility.yul\":3109:3115   */\n      dup3\n        /* \"#utility.yul\":3104:3107   */\n      dup3\n        /* \"#utility.yul\":3097:3116   */\n      mstore\n        /* \"#utility.yul\":3149:3153   */\n      0x20\n        /* \"#utility.yul\":3144:3147   */\n      dup3\n        /* \"#utility.yul\":3140:3154   */\n      add\n        /* \"#utility.yul\":3125:3154   */\n      swap1\n      pop\n        /* \"#utility.yul\":2976:3160   */\n      swap3\n      swap2\n      pop\n      pop\n      jump\t// out\n        /* \"#utility.yul\":3166:3298   */\n    tag_47:\n        /* \"#utility.yul\":3233:3237   */\n      0x00\n        /* \"#utility.yul\":3256:3259   */\n      dup2\n        /* \"#utility.yul\":3248:3259   */\n      swap1\n      pop\n        /* \"#utility.yul\":3286:3290   */\n      0x20\n        /* \"#utility.yul\":3281:3284   */\n      dup3\n        /* \"#utility.yul\":3277:3291   */\n      add\n        /* \"#utility.yul\":3269:3291   */\n      swap1\n      pop\n        /* \"#utility.yul\":3166:3298   */\n      swap2\n      swap1\n      pop\n      jump\t// out\n        /* \"#utility.yul\":3304:3417   */\n    tag_48:\n        /* \"#utility.yul\":3374:3378   */\n      0x00\n        /* \"#utility.yul\":3406:3410   */\n      0x20\n        /* \"#utility.yul\":3401:3404   */\n      dup3\n        /* \"#utility.yul\":3397:3411   */\n      add\n        /* \"#utility.yul\":3389:3411   */\n      swap1\n      pop\n        /* \"#utility.yul\":3304:3417   */\n      swap2\n      swap1\n      pop\n      jump\t// out\n        /* \"#utility.yul\":3453:4185   */\n    tag_49:\n        /* \"#utility.yul\":3572:3575   */\n      0x00\n        /* \"#utility.yul\":3601:3655   */\n      tag_89\n        /* \"#utility.yul\":3649:3654   */\n      dup3\n        /* \"#utility.yul\":3601:3655   */\n      tag_45\n      jump\t// in\n    tag_89:\n        /* \"#utility.yul\":3671:3757   */\n      tag_90\n        /* \"#utility.yul\":3750:3756   */\n      dup2\n        /* \"#utility.yul\":3745:3748   */\n      dup6\n        /* \"#utility.yul\":3671:3757   */\n      tag_46\n      jump\t// in\n    tag_90:\n        /* \"#utility.yul\":3664:3757   */\n      swap4\n      pop\n        /* \"#utility.yul\":3781:3837   */\n      tag_91\n        /* \"#utility.yul\":3831:3836   */\n      dup4\n        /* \"#utility.yul\":3781:3837   */\n      tag_47\n      jump\t// in\n    tag_91:\n        /* \"#utility.yul\":3860:3867   */\n      dup1\n        /* \"#utility.yul\":3891:3892   */\n      0x00\n        /* \"#utility.yul\":3876:4160   */\n    tag_92:\n        /* \"#utility.yul\":3901:3907   */\n      dup4\n        /* \"#utility.yul\":3898:3899   */\n      dup2\n        /* \"#utility.yul\":3895:3908   */\n      lt\n        /* \"#utility.yul\":3876:4160   */\n      iszero\n      tag_94\n      jumpi\n        /* \"#utility.yul\":3977:3983   */\n      dup2\n        /* \"#utility.yul\":3971:3984   */\n      mload\n        /* \"#utility.yul\":4004:4067   */\n      tag_95\n        /* \"#utility.yul\":4063:4066   */\n      dup9\n        /* \"#utility.yul\":4048:4061   */\n      dup3\n        /* \"#utility.yul\":4004:4067   */\n      tag_42\n      jump\t// in\n    tag_95:\n        /* \"#utility.yul\":3997:4067   */\n      swap8\n      pop\n        /* \"#utility.yul\":4090:4150   */\n      tag_96\n        /* \"#utility.yul\":4143:4149   */\n      dup4\n        /* \"#utility.yul\":4090:4150   */\n      tag_48\n      jump\t// in\n    tag_96:\n        /* \"#utility.yul\":4080:4150   */\n      swap3\n      pop\n        /* \"#utility.yul\":3936:4160   */\n      pop\n        /* \"#utility.yul\":3923:3924   */\n      0x01\n        /* \"#utility.yul\":3920:3921   */\n      dup2\n        /* \"#utility.yul\":3916:3925   */\n      add\n        /* \"#utility.yul\":3911:3925   */\n      swap1\n      pop\n        /* \"#utility.yul\":3876:4160   */\n      jump(tag_92)\n    tag_94:\n        /* \"#utility.yul\":3880:3894   */\n      pop\n        /* \"#utility.yul\":4176:4179   */\n      dup6\n        /* \"#utility.yul\":4169:4179   */\n      swap4\n      pop\n        /* \"#utility.yul\":3577:4185   */\n      pop\n      pop\n      pop\n        /* \"#utility.yul\":3453:4185   */\n      swap3\n      swap2\n      pop\n      pop\n      jump\t// out\n        /* \"#utility.yul\":4191:4564   */\n    tag_15:\n        /* \"#utility.yul\":4334:4338   */\n      0x00\n        /* \"#utility.yul\":4372:4374   */\n      0x20\n        /* \"#utility.yul\":4361:4370   */\n      dup3\n        /* \"#utility.yul\":4357:4375   */\n      add\n        /* \"#utility.yul\":4349:4375   */\n      swap1\n      pop\n        /* \"#utility.yul\":4421:4430   */\n      dup2\n        /* \"#utility.yul\":4415:4419   */\n      dup2\n        /* \"#utility.yul\":4411:4431   */\n      sub\n        /* \"#utility.yul\":4407:4408   */\n      0x00\n        /* \"#utility.yul\":4396:4405   */\n      dup4\n        /* \"#utility.yul\":4392:4409   */\n      add\n        /* \"#utility.yul\":4385:4432   */\n      mstore\n        /* \"#utility.yul\":4449:4557   */\n      tag_98\n        /* \"#utility.yul\":4552:4556   */\n      dup2\n        /* \"#utility.yul\":4543:4549   */\n      dup5\n        /* \"#utility.yul\":4449:4557   */\n      tag_49\n      jump\t// in\n    tag_98:\n        /* \"#utility.yul\":4441:4557   */\n      swap1\n      pop\n        /* \"#utility.yul\":4191:4564   */\n      swap3\n      swap2\n      pop\n      pop\n      jump\t// out\n        /* \"#utility.yul\":4570:4750   */\n    tag_50:\n        /* \"#utility.yul\":4618:4695   */\n      0x4e487b7100000000000000000000000000000000000000000000000000000000\n        /* \"#utility.yul\":4615:4616   */\n      0x00\n        /* \"#utility.yul\":4608:4696   */\n      mstore\n        /* \"#utility.yul\":4715:4719   */\n      0x12\n        /* \"#utility.yul\":4712:4713   */\n      0x04\n        /* \"#utility.yul\":4705:4720   */\n      mstore\n        /* \"#utility.yul\":4739:4743   */\n      0x24\n        /* \"#utility.yul\":4736:4737   */\n      0x00\n        /* \"#utility.yul\":4729:4744   */\n      revert\n        /* \"#utility.yul\":4756:4932   */\n    tag_21:\n        /* \"#utility.yul\":4788:4789   */\n      0x00\n        /* \"#utility.yul\":4805:4825   */\n      tag_101\n        /* \"#utility.yul\":4823:4824   */\n      dup3\n        /* \"#utility.yul\":4805:4825   */\n      tag_35\n      jump\t// in\n    tag_101:\n        /* \"#utility.yul\":4800:4825   */\n      swap2\n      pop\n        /* \"#utility.yul\":4839:4859   */\n      tag_102\n        /* \"#utility.yul\":4857:4858   */\n      dup4\n        /* \"#utility.yul\":4839:4859   */\n      tag_35\n      jump\t// in\n    tag_102:\n        /* \"#utility.yul\":4834:4859   */\n      swap3\n      pop\n        /* \"#utility.yul\":4878:4879   */\n      dup3\n        /* \"#utility.yul\":4868:4903   */\n      tag_103\n      jumpi\n        /* \"#utility.yul\":4883:4901   */\n      tag_104\n      tag_50\n      jump\t// in\n    tag_104:\n        /* \"#utility.yul\":4868:4903   */\n    tag_103:\n        /* \"#utility.yul\":4924:4925   */\n      dup3\n        /* \"#utility.yul\":4921:4922   */\n      dup3\n        /* \"#utility.yul\":4917:4926   */\n      mod\n        /* \"#utility.yul\":4912:4926   */\n      swap1\n      pop\n        /* \"#utility.yul\":4756:4932   */\n      swap3\n      swap2\n      pop\n      pop\n      jump\t// out\n        /* \"#utility.yul\":4938:5118   */\n    tag_25:\n        /* \"#utility.yul\":4986:5063   */\n      0x4e487b7100000000000000000000000000000000000000000000000000000000\n        /* \"#utility.yul\":4983:4984   */\n      0x00\n        /* \"#utility.yul\":4976:5064   */\n      mstore\n        /* \"#utility.yul\":5083:5087   */\n      0x32\n        /* \"#utility.yul\":5080:5081   */\n      0x04\n        /* \"#utility.yul\":5073:5088   */\n      mstore\n        /* \"#utility.yul\":5107:5111   */\n      0x24\n        /* \"#utility.yul\":5104:5105   */\n      0x00\n        /* \"#utility.yul\":5097:5112   */\n      revert\n\n    auxdata: 0xa2646970667358221220713bc733c41f8f9c158089d7ecc0af109cf30dafe6c64ed507b42e4ef85111f964736f6c63430008190033\n}\n",
				"bytecode": {
					"linkReferences": {},
					"object": "6080604052348015600e575f80fd5b506104258061001c5f395ff3fe608060405234801561000f575f80fd5b5060043610610034575f3560e01c80635630936514610038578063c8849def14610068575b5f80fd5b610052600480360381019061004d91906101cb565b610098565b60405161005f919061029b565b60405180910390f35b610082600480360381019061007d91906101cb565b6100e2565b60405161008f9190610345565b60405180910390f35b6100a0610172565b6100a8610172565b5f6003846100b69190610392565b036100d95782815f600181106100cf576100ce6103c2565b5b6020020181815250505b80915050919050565b60605f6003836100f29190610392565b0361011d575f82908060018154018082558091505060019003905f5260205f20015f90919091909150555b5f80548060200260200160405190810160405280929190818152602001828054801561016657602002820191905f5260205f20905b815481526020019060010190808311610152575b50505050509050919050565b6040518060200160405280600190602082028036833780820191505090505090565b5f80fd5b5f819050919050565b6101aa81610198565b81146101b4575f80fd5b50565b5f813590506101c5816101a1565b92915050565b5f602082840312156101e0576101df610194565b5b5f6101ed848285016101b7565b91505092915050565b5f60019050919050565b5f81905092915050565b5f819050919050565b61021c81610198565b82525050565b5f61022d8383610213565b60208301905092915050565b5f602082019050919050565b61024e816101f6565b6102588184610200565b92506102638261020a565b805f5b8381101561029357815161027a8782610222565b965061028583610239565b925050600181019050610266565b505050505050565b5f6020820190506102ae5f830184610245565b92915050565b5f81519050919050565b5f82825260208201905092915050565b5f819050602082019050919050565b5f602082019050919050565b5f6102f3826102b4565b6102fd81856102be565b9350610308836102ce565b805f5b8381101561033857815161031f8882610222565b975061032a836102dd565b92505060018101905061030b565b5085935050505092915050565b5f6020820190508181035f83015261035d81846102e9565b905092915050565b7f4e487b71000000000000000000000000000000000000000000000000000000005f52601260045260245ffd5b5f61039c82610198565b91506103a783610198565b9250826103b7576103b6610365565b5b828206905092915050565b7f4e487b71000000000000000000000000000000000000000000000000000000005f52603260045260245ffdfea2646970667358221220713bc733c41f8f9c158089d7ecc0af109cf30dafe6c64ed507b42e4ef85111f964736f6c63430008190033",
					"opcodes": "PUSH1 0x80 PUSH1 0x40 MSTORE CALLVALUE DUP1 ISZERO PUSH1 0xE JUMPI PUSH0 DUP1 REVERT JUMPDEST POP PUSH2 0x425 DUP1 PUSH2 0x1C PUSH0 CODECOPY PUSH0 RETURN INVALID PUSH1 0x80 PUSH1 0x40 MSTORE CALLVALUE DUP1 ISZERO PUSH2 0xF JUMPI PUSH0 DUP1 REVERT JUMPDEST POP PUSH1 0x4 CALLDATASIZE LT PUSH2 0x34 JUMPI PUSH0 CALLDATALOAD PUSH1 0xE0 SHR DUP1 PUSH4 0x56309365 EQ PUSH2 0x38 JUMPI DUP1 PUSH4 0xC8849DEF EQ PUSH2 0x68 JUMPI JUMPDEST PUSH0 DUP1 REVERT JUMPDEST PUSH2 0x52 PUSH1 0x4 DUP1 CALLDATASIZE SUB DUP2 ADD SWAP1 PUSH2 0x4D SWAP2 SWAP1 PUSH2 0x1CB JUMP JUMPDEST PUSH2 0x98 JUMP JUMPDEST PUSH1 0x40 MLOAD PUSH2 0x5F SWAP2 SWAP1 PUSH2 0x29B JUMP JUMPDEST PUSH1 0x40 MLOAD DUP1 SWAP2 SUB SWAP1 RETURN JUMPDEST PUSH2 0x82 PUSH1 0x4 DUP1 CALLDATASIZE SUB DUP2 ADD SWAP1 PUSH2 0x7D SWAP2 SWAP1 PUSH2 0x1CB JUMP JUMPDEST PUSH2 0xE2 JUMP JUMPDEST PUSH1 0x40 MLOAD PUSH2 0x8F SWAP2 SWAP1 PUSH2 0x345 JUMP JUMPDEST PUSH1 0x40 MLOAD DUP1 SWAP2 SUB SWAP1 RETURN JUMPDEST PUSH2 0xA0 PUSH2 0x172 JUMP JUMPDEST PUSH2 0xA8 PUSH2 0x172 JUMP JUMPDEST PUSH0 PUSH1 0x3 DUP5 PUSH2 0xB6 SWAP2 SWAP1 PUSH2 0x392 JUMP JUMPDEST SUB PUSH2 0xD9 JUMPI DUP3 DUP2 PUSH0 PUSH1 0x1 DUP2 LT PUSH2 0xCF JUMPI PUSH2 0xCE PUSH2 0x3C2 JUMP JUMPDEST JUMPDEST PUSH1 0x20 MUL ADD DUP2 DUP2 MSTORE POP POP JUMPDEST DUP1 SWAP2 POP POP SWAP2 SWAP1 POP JUMP JUMPDEST PUSH1 0x60 PUSH0 PUSH1 0x3 DUP4 PUSH2 0xF2 SWAP2 SWAP1 PUSH2 0x392 JUMP JUMPDEST SUB PUSH2 0x11D JUMPI PUSH0 DUP3 SWAP1 DUP1 PUSH1 0x1 DUP2 SLOAD ADD DUP1 DUP3 SSTORE DUP1 SWAP2 POP POP PUSH1 0x1 SWAP1 SUB SWAP1 PUSH0 MSTORE PUSH1 0x20 PUSH0 KECCAK256 ADD PUSH0 SWAP1 SWAP2 SWAP1 SWAP2 SWAP1 SWAP2 POP SSTORE JUMPDEST PUSH0 DUP1 SLOAD DUP1 PUSH1 0x20 MUL PUSH1 0x20 ADD PUSH1 0x40 MLOAD SWAP1 DUP2 ADD PUSH1 0x40 MSTORE DUP1 SWAP3 SWAP2 SWAP1 DUP2 DUP2 MSTORE PUSH1 0x20 ADD DUP3 DUP1 SLOAD DUP1 ISZERO PUSH2 0x166 JUMPI PUSH1 0x20 MUL DUP3 ADD SWAP2 SWAP1 PUSH0 MSTORE PUSH1 0x20 PUSH0 KECCAK256 SWAP1 JUMPDEST DUP2 SLOAD DUP2 MSTORE PUSH1 0x20 ADD SWAP1 PUSH1 0x1 ADD SWAP1 DUP1 DUP4 GT PUSH2 0x152 JUMPI JUMPDEST POP POP POP POP POP SWAP1 POP SWAP2 SWAP1 POP JUMP JUMPDEST PUSH1 0x40 MLOAD DUP1 PUSH1 0x20 ADD PUSH1 0x40 MSTORE DUP1 PUSH1 0x1 SWAP1 PUSH1 0x20 DUP3 MUL DUP1 CALLDATASIZE DUP4 CALLDATACOPY DUP1 DUP3 ADD SWAP2 POP POP SWAP1 POP POP SWAP1 JUMP JUMPDEST PUSH0 DUP1 REVERT JUMPDEST PUSH0 DUP2 SWAP1 POP SWAP2 SWAP1 POP JUMP JUMPDEST PUSH2 0x1AA DUP2 PUSH2 0x198 JUMP JUMPDEST DUP2 EQ PUSH2 0x1B4 JUMPI PUSH0 DUP1 REVERT JUMPDEST POP JUMP JUMPDEST PUSH0 DUP2 CALLDATALOAD SWAP1 POP PUSH2 0x1C5 DUP2 PUSH2 0x1A1 JUMP JUMPDEST SWAP3 SWAP2 POP POP JUMP JUMPDEST PUSH0 PUSH1 0x20 DUP3 DUP5 SUB SLT ISZERO PUSH2 0x1E0 JUMPI PUSH2 0x1DF PUSH2 0x194 JUMP JUMPDEST JUMPDEST PUSH0 PUSH2 0x1ED DUP5 DUP3 DUP6 ADD PUSH2 0x1B7 JUMP JUMPDEST SWAP2 POP POP SWAP3 SWAP2 POP POP JUMP JUMPDEST PUSH0 PUSH1 0x1 SWAP1 POP SWAP2 SWAP1 POP JUMP JUMPDEST PUSH0 DUP2 SWAP1 POP SWAP3 SWAP2 POP POP JUMP JUMPDEST PUSH0 DUP2 SWAP1 POP SWAP2 SWAP1 POP JUMP JUMPDEST PUSH2 0x21C DUP2 PUSH2 0x198 JUMP JUMPDEST DUP3 MSTORE POP POP JUMP JUMPDEST PUSH0 PUSH2 0x22D DUP4 DUP4 PUSH2 0x213 JUMP JUMPDEST PUSH1 0x20 DUP4 ADD SWAP1 POP SWAP3 SWAP2 POP POP JUMP JUMPDEST PUSH0 PUSH1 0x20 DUP3 ADD SWAP1 POP SWAP2 SWAP1 POP JUMP JUMPDEST PUSH2 0x24E DUP2 PUSH2 0x1F6 JUMP JUMPDEST PUSH2 0x258 DUP2 DUP5 PUSH2 0x200 JUMP JUMPDEST SWAP3 POP PUSH2 0x263 DUP3 PUSH2 0x20A JUMP JUMPDEST DUP1 PUSH0 JUMPDEST DUP4 DUP2 LT ISZERO PUSH2 0x293 JUMPI DUP2 MLOAD PUSH2 0x27A DUP8 DUP3 PUSH2 0x222 JUMP JUMPDEST SWAP7 POP PUSH2 0x285 DUP4 PUSH2 0x239 JUMP JUMPDEST SWAP3 POP POP PUSH1 0x1 DUP2 ADD SWAP1 POP PUSH2 0x266 JUMP JUMPDEST POP POP POP POP POP POP JUMP JUMPDEST PUSH0 PUSH1 0x20 DUP3 ADD SWAP1 POP PUSH2 0x2AE PUSH0 DUP4 ADD DUP5 PUSH2 0x245 JUMP JUMPDEST SWAP3 SWAP2 POP POP JUMP JUMPDEST PUSH0 DUP2 MLOAD SWAP1 POP SWAP2 SWAP1 POP JUMP JUMPDEST PUSH0 DUP3 DUP3 MSTORE PUSH1 0x20 DUP3 ADD SWAP1 POP SWAP3 SWAP2 POP POP JUMP JUMPDEST PUSH0 DUP2 SWAP1 POP PUSH1 0x20 DUP3 ADD SWAP1 POP SWAP2 SWAP1 POP JUMP JUMPDEST PUSH0 PUSH1 0x20 DUP3 ADD SWAP1 POP SWAP2 SWAP1 POP JUMP JUMPDEST PUSH0 PUSH2 0x2F3 DUP3 PUSH2 0x2B4 JUMP JUMPDEST PUSH2 0x2FD DUP2 DUP6 PUSH2 0x2BE JUMP JUMPDEST SWAP4 POP PUSH2 0x308 DUP4 PUSH2 0x2CE JUMP JUMPDEST DUP1 PUSH0 JUMPDEST DUP4 DUP2 LT ISZERO PUSH2 0x338 JUMPI DUP2 MLOAD PUSH2 0x31F DUP9 DUP3 PUSH2 0x222 JUMP JUMPDEST SWAP8 POP PUSH2 0x32A DUP4 PUSH2 0x2DD JUMP JUMPDEST SWAP3 POP POP PUSH1 0x1 DUP2 ADD SWAP1 POP PUSH2 0x30B JUMP JUMPDEST POP DUP6 SWAP4 POP POP POP POP SWAP3 SWAP2 POP POP JUMP JUMPDEST PUSH0 PUSH1 0x20 DUP3 ADD SWAP1 POP DUP2 DUP2 SUB PUSH0 DUP4 ADD MSTORE PUSH2 0x35D DUP2 DUP5 PUSH2 0x2E9 JUMP JUMPDEST SWAP1 POP SWAP3 SWAP2 POP POP JUMP JUMPDEST PUSH32 0x4E487B7100000000000000000000000000000000000000000000000000000000 PUSH0 MSTORE PUSH1 0x12 PUSH1 0x4 MSTORE PUSH1 0x24 PUSH0 REVERT JUMPDEST PUSH0 PUSH2 0x39C DUP3 PUSH2 0x198 JUMP JUMPDEST SWAP2 POP PUSH2 0x3A7 DUP4 PUSH2 0x198 JUMP JUMPDEST SWAP3 POP DUP3 PUSH2 0x3B7 JUMPI PUSH2 0x3B6 PUSH2 0x365 JUMP JUMPDEST JUMPDEST DUP3 DUP3 MOD SWAP1 POP SWAP3 SWAP2 POP POP JUMP JUMPDEST PUSH32 0x4E487B7100000000000000000000000000000000000000000000000000000000 PUSH0 MSTORE PUSH1 0x32 PUSH1 0x4 MSTORE PUSH1 0x24 PUSH0 REVERT INVALID LOG2 PUSH5 0x6970667358 0x22 SLT KECCAK256 PUSH18 0x3BC733C41F8F9C158089D7ECC0AF109CF30D 0xAF 0xE6 0xC6 0x4E 0xD5 SMOD 0xB4 0x2E 0x4E 0xF8 MLOAD GT 0xF9 PUSH5 0x736F6C6343 STOP ADDMOD NOT STOP CALLER "
				},
				"gasEstimates": {
					"creation": {
						"codeDepositCost": "212200",
						"executionCost": "255",
						"totalCost": "212455"
					},
					"external": {
						"localArray3(uint256)": "infinite",
						"stateArray3(uint256)": "infinite"
					}
				},
				"methodIdentifiers": {
					"localArray3(uint256)": "56309365",
					"stateArray3(uint256)": "c8849def"
				}
			},
			"storageLayout": {
				"storage": [
					{
						"astId": 36,
						"contract": "solidity_100/21-30.sol:Q21",
						"label": "state",
						"offset": 0,
						"slot": "0",
						"type": "t_array(t_uint256)dyn_storage"
					}
				],
				"types": {
					"t_array(t_uint256)dyn_storage": {
						"base": "t_uint256",
						"encoding": "dynamic_array",
						"label": "uint256[]",
						"numberOfBytes": "32"
					},
					"t_uint256": {
						"encoding": "inplace",
						"label": "uint256",
						"numberOfBytes": "32"
					}
				}
			},
			"userdoc": {
				"kind": "user",
				"methods": {},
				"version": 1
			}
		}
	}
}