{
	"solidity_100/41-50.sol": {
		"Q50": {
			"abi": [
				{
					"inputs": [
						{
							"internalType": "uint256",
							"name": "_a",
							"type": "uint256"
						},
						{
							"internalType": "uint256",
							"name": "_b",
							"type": "uint256"
						},
						{
							"internalType": "uint256",
							"name": "_c",
							"type": "uint256"
						}
					],
					"name": "concatNum",
					"outputs": [
						{
							"internalType": "uint256",
							"name": "",
							"type": "uint256"
						}
					],
					"stateMutability": "pure",
					"type": "function"
				},
				{
					"inputs": [
						{
							"internalType": "uint256",
							"name": "_a",
							"type": "uint256"
						}
					],
					"name": "concatNum",
					"outputs": [
						{
							"internalType": "uint256",
							"name": "",
							"type": "uint256"
						}
					],
					"stateMutability": "nonpayable",
					"type": "function"
				}
			],
			"devdoc": {
				"kind": "dev",
				"methods": {},
				"version": 1
			},
			"evm": {
				"assembly": "    /* \"solidity_100/41-50.sol\":5162:5937  contract Q50 {... */\n  mstore(0x40, 0x80)\n  callvalue\n  dup1\n  iszero\n  tag_1\n  jumpi\n  0x00\n  dup1\n  revert\ntag_1:\n  pop\n  dataSize(sub_0)\n  dup1\n  dataOffset(sub_0)\n  0x00\n  codecopy\n  0x00\n  return\nstop\n\nsub_0: assembly {\n        /* \"solidity_100/41-50.sol\":5162:5937  contract Q50 {... */\n      mstore(0x40, 0x80)\n      callvalue\n      dup1\n      iszero\n      tag_1\n      jumpi\n      0x00\n      dup1\n      revert\n    tag_1:\n      pop\n      jumpi(tag_2, lt(calldatasize, 0x04))\n      shr(0xe0, calldataload(0x00))\n      dup1\n      0x8f4aec3f\n      eq\n      tag_3\n      jumpi\n      dup1\n      0xa13c0aa2\n      eq\n      tag_4\n      jumpi\n    tag_2:\n      0x00\n      dup1\n      revert\n        /* \"solidity_100/41-50.sol\":5455:5583  function concatNum(uint _a, uint _b, uint _c) public pure returns(uint) {... */\n    tag_3:\n      tag_5\n      0x04\n      dup1\n      calldatasize\n      sub\n      dup2\n      add\n      swap1\n      tag_6\n      swap2\n      swap1\n      tag_7\n      jump\t// in\n    tag_6:\n      tag_8\n      jump\t// in\n    tag_5:\n      mload(0x40)\n      tag_9\n      swap2\n      swap1\n      tag_10\n      jump\t// in\n    tag_9:\n      mload(0x40)\n      dup1\n      swap2\n      sub\n      swap1\n      return\n        /* \"solidity_100/41-50.sol\":5732:5934  function concatNum(uint _a) public returns(uint) {... */\n    tag_4:\n      tag_11\n      0x04\n      dup1\n      calldatasize\n      sub\n      dup2\n      add\n      swap1\n      tag_12\n      swap2\n      swap1\n      tag_13\n      jump\t// in\n    tag_12:\n      tag_14\n      jump\t// in\n    tag_11:\n      mload(0x40)\n      tag_15\n      swap2\n      swap1\n      tag_10\n      jump\t// in\n    tag_15:\n      mload(0x40)\n      dup1\n      swap2\n      sub\n      swap1\n      return\n        /* \"solidity_100/41-50.sol\":5455:5583  function concatNum(uint _a, uint _b, uint _c) public pure returns(uint) {... */\n    tag_8:\n        /* \"solidity_100/41-50.sol\":5521:5525  uint */\n      0x00\n        /* \"solidity_100/41-50.sol\":5573:5574  1 */\n      0x01\n        /* \"solidity_100/41-50.sol\":5569:5571  _c */\n      dup3\n        /* \"solidity_100/41-50.sol\":5569:5574  _c *1 */\n      tag_17\n      swap2\n      swap1\n      tag_18\n      jump\t// in\n    tag_17:\n        /* \"solidity_100/41-50.sol\":5564:5566  10 */\n      0x0a\n        /* \"solidity_100/41-50.sol\":5559:5561  _b */\n      dup5\n        /* \"solidity_100/41-50.sol\":5559:5566  _b * 10 */\n      tag_19\n      swap2\n      swap1\n      tag_18\n      jump\t// in\n    tag_19:\n        /* \"solidity_100/41-50.sol\":5551:5556  10**2 */\n      0x64\n        /* \"solidity_100/41-50.sol\":5546:5548  _a */\n      dup7\n        /* \"solidity_100/41-50.sol\":5546:5556  _a * 10**2 */\n      tag_20\n      swap2\n      swap1\n      tag_18\n      jump\t// in\n    tag_20:\n        /* \"solidity_100/41-50.sol\":5546:5566  _a * 10**2 + _b * 10 */\n      tag_21\n      swap2\n      swap1\n      tag_22\n      jump\t// in\n    tag_21:\n        /* \"solidity_100/41-50.sol\":5546:5574  _a * 10**2 + _b * 10 + _c *1 */\n      tag_23\n      swap2\n      swap1\n      tag_22\n      jump\t// in\n    tag_23:\n        /* \"solidity_100/41-50.sol\":5538:5575  return (_a * 10**2 + _b * 10 + _c *1) */\n      swap1\n      pop\n        /* \"solidity_100/41-50.sol\":5455:5583  function concatNum(uint _a, uint _b, uint _c) public pure returns(uint) {... */\n      swap4\n      swap3\n      pop\n      pop\n      pop\n      jump\t// out\n        /* \"solidity_100/41-50.sol\":5732:5934  function concatNum(uint _a) public returns(uint) {... */\n    tag_14:\n        /* \"solidity_100/41-50.sol\":5775:5779  uint */\n      0x00\n        /* \"solidity_100/41-50.sol\":5792:5803  uint length */\n      dup1\n        /* \"solidity_100/41-50.sol\":5829:5853  Strings.toString(result) */\n      tag_25\n        /* \"solidity_100/41-50.sol\":5846:5852  result */\n      sload(0x00)\n        /* \"solidity_100/41-50.sol\":5829:5845  Strings.toString */\n      tag_26\n        /* \"solidity_100/41-50.sol\":5829:5853  Strings.toString(result) */\n      jump\t// in\n    tag_25:\n        /* \"solidity_100/41-50.sol\":5823:5861  bytes(Strings.toString(result)).length */\n      mload\n        /* \"solidity_100/41-50.sol\":5814:5861  length = bytes(Strings.toString(result)).length */\n      swap1\n      pop\n        /* \"solidity_100/41-50.sol\":5893:5899  length */\n      dup1\n        /* \"solidity_100/41-50.sol\":5887:5889  10 */\n      0x0a\n        /* \"solidity_100/41-50.sol\":5887:5899  10 ** length */\n      tag_27\n      swap2\n      swap1\n      tag_28\n      jump\t// in\n    tag_27:\n        /* \"solidity_100/41-50.sol\":5882:5884  _a */\n      dup4\n        /* \"solidity_100/41-50.sol\":5882:5899  _a * 10 ** length */\n      tag_29\n      swap2\n      swap1\n      tag_18\n      jump\t// in\n    tag_29:\n        /* \"solidity_100/41-50.sol\":5872:5878  result */\n      0x00\n      dup1\n        /* \"solidity_100/41-50.sol\":5872:5899  result += _a * 10 ** length */\n      dup3\n      dup3\n      sload\n      tag_30\n      swap2\n      swap1\n      tag_22\n      jump\t// in\n    tag_30:\n      swap3\n      pop\n      pop\n      dup2\n      swap1\n      sstore\n      pop\n        /* \"solidity_100/41-50.sol\":5924:5926  10 */\n      0x0a\n        /* \"solidity_100/41-50.sol\":5917:5923  result */\n      sload(0x00)\n        /* \"solidity_100/41-50.sol\":5917:5926  result/10 */\n      tag_31\n      swap2\n      swap1\n      tag_32\n      jump\t// in\n    tag_31:\n        /* \"solidity_100/41-50.sol\":5910:5926  return result/10 */\n      swap2\n      pop\n      pop\n        /* \"solidity_100/41-50.sol\":5732:5934  function concatNum(uint _a) public returns(uint) {... */\n      swap2\n      swap1\n      pop\n      jump\t// out\n        /* \"@openzeppelin/contracts/utils/Strings.sol\":637:1335  function toString(uint256 value) internal pure returns (string memory) {... */\n    tag_26:\n        /* \"@openzeppelin/contracts/utils/Strings.sol\":693:706  string memory */\n      0x60\n        /* \"@openzeppelin/contracts/utils/Strings.sol\":742:756  uint256 length */\n      0x00\n        /* \"@openzeppelin/contracts/utils/Strings.sol\":779:780  1 */\n      0x01\n        /* \"@openzeppelin/contracts/utils/Strings.sol\":759:776  Math.log10(value) */\n      tag_34\n        /* \"@openzeppelin/contracts/utils/Strings.sol\":770:775  value */\n      dup5\n        /* \"@openzeppelin/contracts/utils/Strings.sol\":759:769  Math.log10 */\n      tag_35\n        /* \"@openzeppelin/contracts/utils/Strings.sol\":759:776  Math.log10(value) */\n      jump\t// in\n    tag_34:\n        /* \"@openzeppelin/contracts/utils/Strings.sol\":759:780  Math.log10(value) + 1 */\n      add\n        /* \"@openzeppelin/contracts/utils/Strings.sol\":742:780  uint256 length = Math.log10(value) + 1 */\n      swap1\n      pop\n        /* \"@openzeppelin/contracts/utils/Strings.sol\":794:814  string memory buffer */\n      0x00\n        /* \"@openzeppelin/contracts/utils/Strings.sol\":828:834  length */\n      dup2\n        /* \"@openzeppelin/contracts/utils/Strings.sol\":817:835  new string(length) */\n      0xffffffffffffffff\n      dup2\n      gt\n      iszero\n      tag_36\n      jumpi\n      tag_37\n      tag_38\n      jump\t// in\n    tag_37:\n    tag_36:\n      mload(0x40)\n      swap1\n      dup1\n      dup3\n      mstore\n      dup1\n      0x1f\n      add\n      not(0x1f)\n      and\n      0x20\n      add\n      dup3\n      add\n      0x40\n      mstore\n      dup1\n      iszero\n      tag_39\n      jumpi\n      dup2\n      0x20\n      add\n      0x01\n      dup3\n      mul\n      dup1\n      calldatasize\n      dup4\n      calldatacopy\n      dup1\n      dup3\n      add\n      swap2\n      pop\n      pop\n      swap1\n      pop\n    tag_39:\n      pop\n        /* \"@openzeppelin/contracts/utils/Strings.sol\":794:835  string memory buffer = new string(length) */\n      swap1\n      pop\n        /* \"@openzeppelin/contracts/utils/Strings.sol\":849:860  uint256 ptr */\n      0x00\n        /* \"@openzeppelin/contracts/utils/Strings.sol\":975:981  length */\n      dup3\n        /* \"@openzeppelin/contracts/utils/Strings.sol\":971:973  32 */\n      0x20\n        /* \"@openzeppelin/contracts/utils/Strings.sol\":967:982  add(32, length) */\n      add\n        /* \"@openzeppelin/contracts/utils/Strings.sol\":959:965  buffer */\n      dup3\n        /* \"@openzeppelin/contracts/utils/Strings.sol\":955:983  add(buffer, add(32, length)) */\n      add\n        /* \"@openzeppelin/contracts/utils/Strings.sol\":948:983  ptr := add(buffer, add(32, length)) */\n      swap1\n      pop\n        /* \"@openzeppelin/contracts/utils/Strings.sol\":1010:1292  while (true) {... */\n    tag_40:\n        /* \"@openzeppelin/contracts/utils/Strings.sol\":1017:1021  true */\n      0x01\n        /* \"@openzeppelin/contracts/utils/Strings.sol\":1010:1292  while (true) {... */\n      iszero\n      tag_41\n      jumpi\n        /* \"@openzeppelin/contracts/utils/Strings.sol\":1041:1046  ptr-- */\n      dup1\n      dup1\n      0x01\n      swap1\n      sub\n      swap2\n      pop\n      pop\n        /* \"@openzeppelin/contracts/utils/Strings.sol\":1180:1190  HEX_DIGITS */\n      0x3031323334353637383961626364656600000000000000000000000000000000\n        /* \"@openzeppelin/contracts/utils/Strings.sol\":1175:1177  10 */\n      0x0a\n        /* \"@openzeppelin/contracts/utils/Strings.sol\":1168:1173  value */\n      dup7\n        /* \"@openzeppelin/contracts/utils/Strings.sol\":1164:1178  mod(value, 10) */\n      mod\n        /* \"@openzeppelin/contracts/utils/Strings.sol\":1159:1191  byte(mod(value, 10), HEX_DIGITS) */\n      byte\n        /* \"@openzeppelin/contracts/utils/Strings.sol\":1154:1157  ptr */\n      dup2\n        /* \"@openzeppelin/contracts/utils/Strings.sol\":1146:1192  mstore8(ptr, byte(mod(value, 10), HEX_DIGITS)) */\n      mstore8\n        /* \"@openzeppelin/contracts/utils/Strings.sol\":1236:1238  10 */\n      0x0a\n        /* \"@openzeppelin/contracts/utils/Strings.sol\":1227:1238  value /= 10 */\n      dup6\n      dup2\n      tag_42\n      jumpi\n      tag_43\n      tag_44\n      jump\t// in\n    tag_43:\n    tag_42:\n      div\n      swap5\n      pop\n        /* \"@openzeppelin/contracts/utils/Strings.sol\":1269:1270  0 */\n      0x00\n        /* \"@openzeppelin/contracts/utils/Strings.sol\":1260:1265  value */\n      dup6\n        /* \"@openzeppelin/contracts/utils/Strings.sol\":1260:1270  value == 0 */\n      sub\n        /* \"@openzeppelin/contracts/utils/Strings.sol\":1010:1292  while (true) {... */\n      tag_40\n        /* \"@openzeppelin/contracts/utils/Strings.sol\":1256:1277  if (value == 0) break */\n      jumpi\n        /* \"@openzeppelin/contracts/utils/Strings.sol\":1010:1292  while (true) {... */\n    tag_41:\n        /* \"@openzeppelin/contracts/utils/Strings.sol\":1312:1318  buffer */\n      dup2\n        /* \"@openzeppelin/contracts/utils/Strings.sol\":1305:1318  return buffer */\n      swap4\n      pop\n      pop\n      pop\n      pop\n        /* \"@openzeppelin/contracts/utils/Strings.sol\":637:1335  function toString(uint256 value) internal pure returns (string memory) {... */\n      swap2\n      swap1\n      pop\n      jump\t// out\n        /* \"@openzeppelin/contracts/utils/math/Math.sol\":12214:13130  function log10(uint256 value) internal pure returns (uint256) {... */\n    tag_35:\n        /* \"@openzeppelin/contracts/utils/math/Math.sol\":12267:12274  uint256 */\n      0x00\n        /* \"@openzeppelin/contracts/utils/math/Math.sol\":12286:12300  uint256 result */\n      dup1\n        /* \"@openzeppelin/contracts/utils/math/Math.sol\":12303:12304  0 */\n      0x00\n        /* \"@openzeppelin/contracts/utils/math/Math.sol\":12286:12304  uint256 result = 0 */\n      swap1\n      pop\n        /* \"@openzeppelin/contracts/utils/math/Math.sol\":12351:12359  10 ** 64 */\n      0x184f03e93ff9f4daa797ed6e38ed64bf6a1f010000000000000000\n        /* \"@openzeppelin/contracts/utils/math/Math.sol\":12342:12347  value */\n      dup4\n        /* \"@openzeppelin/contracts/utils/math/Math.sol\":12342:12359  value >= 10 ** 64 */\n      lt\n        /* \"@openzeppelin/contracts/utils/math/Math.sol\":12338:12441  if (value >= 10 ** 64) {... */\n      tag_47\n      jumpi\n        /* \"@openzeppelin/contracts/utils/math/Math.sol\":12388:12396  10 ** 64 */\n      0x184f03e93ff9f4daa797ed6e38ed64bf6a1f010000000000000000\n        /* \"@openzeppelin/contracts/utils/math/Math.sol\":12379:12396  value /= 10 ** 64 */\n      dup4\n      dup2\n      tag_48\n      jumpi\n      tag_49\n      tag_44\n      jump\t// in\n    tag_49:\n    tag_48:\n      div\n      swap3\n      pop\n        /* \"@openzeppelin/contracts/utils/math/Math.sol\":12424:12426  64 */\n      0x40\n        /* \"@openzeppelin/contracts/utils/math/Math.sol\":12414:12426  result += 64 */\n      dup2\n      add\n      swap1\n      pop\n        /* \"@openzeppelin/contracts/utils/math/Math.sol\":12338:12441  if (value >= 10 ** 64) {... */\n    tag_47:\n        /* \"@openzeppelin/contracts/utils/math/Math.sol\":12467:12475  10 ** 32 */\n      0x04ee2d6d415b85acef8100000000\n        /* \"@openzeppelin/contracts/utils/math/Math.sol\":12458:12463  value */\n      dup4\n        /* \"@openzeppelin/contracts/utils/math/Math.sol\":12458:12475  value >= 10 ** 32 */\n      lt\n        /* \"@openzeppelin/contracts/utils/math/Math.sol\":12454:12557  if (value >= 10 ** 32) {... */\n      tag_50\n      jumpi\n        /* \"@openzeppelin/contracts/utils/math/Math.sol\":12504:12512  10 ** 32 */\n      0x04ee2d6d415b85acef8100000000\n        /* \"@openzeppelin/contracts/utils/math/Math.sol\":12495:12512  value /= 10 ** 32 */\n      dup4\n      dup2\n      tag_51\n      jumpi\n      tag_52\n      tag_44\n      jump\t// in\n    tag_52:\n    tag_51:\n      div\n      swap3\n      pop\n        /* \"@openzeppelin/contracts/utils/math/Math.sol\":12540:12542  32 */\n      0x20\n        /* \"@openzeppelin/contracts/utils/math/Math.sol\":12530:12542  result += 32 */\n      dup2\n      add\n      swap1\n      pop\n        /* \"@openzeppelin/contracts/utils/math/Math.sol\":12454:12557  if (value >= 10 ** 32) {... */\n    tag_50:\n        /* \"@openzeppelin/contracts/utils/math/Math.sol\":12583:12591  10 ** 16 */\n      0x2386f26fc10000\n        /* \"@openzeppelin/contracts/utils/math/Math.sol\":12574:12579  value */\n      dup4\n        /* \"@openzeppelin/contracts/utils/math/Math.sol\":12574:12591  value >= 10 ** 16 */\n      lt\n        /* \"@openzeppelin/contracts/utils/math/Math.sol\":12570:12673  if (value >= 10 ** 16) {... */\n      tag_53\n      jumpi\n        /* \"@openzeppelin/contracts/utils/math/Math.sol\":12620:12628  10 ** 16 */\n      0x2386f26fc10000\n        /* \"@openzeppelin/contracts/utils/math/Math.sol\":12611:12628  value /= 10 ** 16 */\n      dup4\n      dup2\n      tag_54\n      jumpi\n      tag_55\n      tag_44\n      jump\t// in\n    tag_55:\n    tag_54:\n      div\n      swap3\n      pop\n        /* \"@openzeppelin/contracts/utils/math/Math.sol\":12656:12658  16 */\n      0x10\n        /* \"@openzeppelin/contracts/utils/math/Math.sol\":12646:12658  result += 16 */\n      dup2\n      add\n      swap1\n      pop\n        /* \"@openzeppelin/contracts/utils/math/Math.sol\":12570:12673  if (value >= 10 ** 16) {... */\n    tag_53:\n        /* \"@openzeppelin/contracts/utils/math/Math.sol\":12699:12706  10 ** 8 */\n      0x05f5e100\n        /* \"@openzeppelin/contracts/utils/math/Math.sol\":12690:12695  value */\n      dup4\n        /* \"@openzeppelin/contracts/utils/math/Math.sol\":12690:12706  value >= 10 ** 8 */\n      lt\n        /* \"@openzeppelin/contracts/utils/math/Math.sol\":12686:12786  if (value >= 10 ** 8) {... */\n      tag_56\n      jumpi\n        /* \"@openzeppelin/contracts/utils/math/Math.sol\":12735:12742  10 ** 8 */\n      0x05f5e100\n        /* \"@openzeppelin/contracts/utils/math/Math.sol\":12726:12742  value /= 10 ** 8 */\n      dup4\n      dup2\n      tag_57\n      jumpi\n      tag_58\n      tag_44\n      jump\t// in\n    tag_58:\n    tag_57:\n      div\n      swap3\n      pop\n        /* \"@openzeppelin/contracts/utils/math/Math.sol\":12770:12771  8 */\n      0x08\n        /* \"@openzeppelin/contracts/utils/math/Math.sol\":12760:12771  result += 8 */\n      dup2\n      add\n      swap1\n      pop\n        /* \"@openzeppelin/contracts/utils/math/Math.sol\":12686:12786  if (value >= 10 ** 8) {... */\n    tag_56:\n        /* \"@openzeppelin/contracts/utils/math/Math.sol\":12812:12819  10 ** 4 */\n      0x2710\n        /* \"@openzeppelin/contracts/utils/math/Math.sol\":12803:12808  value */\n      dup4\n        /* \"@openzeppelin/contracts/utils/math/Math.sol\":12803:12819  value >= 10 ** 4 */\n      lt\n        /* \"@openzeppelin/contracts/utils/math/Math.sol\":12799:12899  if (value >= 10 ** 4) {... */\n      tag_59\n      jumpi\n        /* \"@openzeppelin/contracts/utils/math/Math.sol\":12848:12855  10 ** 4 */\n      0x2710\n        /* \"@openzeppelin/contracts/utils/math/Math.sol\":12839:12855  value /= 10 ** 4 */\n      dup4\n      dup2\n      tag_60\n      jumpi\n      tag_61\n      tag_44\n      jump\t// in\n    tag_61:\n    tag_60:\n      div\n      swap3\n      pop\n        /* \"@openzeppelin/contracts/utils/math/Math.sol\":12883:12884  4 */\n      0x04\n        /* \"@openzeppelin/contracts/utils/math/Math.sol\":12873:12884  result += 4 */\n      dup2\n      add\n      swap1\n      pop\n        /* \"@openzeppelin/contracts/utils/math/Math.sol\":12799:12899  if (value >= 10 ** 4) {... */\n    tag_59:\n        /* \"@openzeppelin/contracts/utils/math/Math.sol\":12925:12932  10 ** 2 */\n      0x64\n        /* \"@openzeppelin/contracts/utils/math/Math.sol\":12916:12921  value */\n      dup4\n        /* \"@openzeppelin/contracts/utils/math/Math.sol\":12916:12932  value >= 10 ** 2 */\n      lt\n        /* \"@openzeppelin/contracts/utils/math/Math.sol\":12912:13012  if (value >= 10 ** 2) {... */\n      tag_62\n      jumpi\n        /* \"@openzeppelin/contracts/utils/math/Math.sol\":12961:12968  10 ** 2 */\n      0x64\n        /* \"@openzeppelin/contracts/utils/math/Math.sol\":12952:12968  value /= 10 ** 2 */\n      dup4\n      dup2\n      tag_63\n      jumpi\n      tag_64\n      tag_44\n      jump\t// in\n    tag_64:\n    tag_63:\n      div\n      swap3\n      pop\n        /* \"@openzeppelin/contracts/utils/math/Math.sol\":12996:12997  2 */\n      0x02\n        /* \"@openzeppelin/contracts/utils/math/Math.sol\":12986:12997  result += 2 */\n      dup2\n      add\n      swap1\n      pop\n        /* \"@openzeppelin/contracts/utils/math/Math.sol\":12912:13012  if (value >= 10 ** 2) {... */\n    tag_62:\n        /* \"@openzeppelin/contracts/utils/math/Math.sol\":13038:13045  10 ** 1 */\n      0x0a\n        /* \"@openzeppelin/contracts/utils/math/Math.sol\":13029:13034  value */\n      dup4\n        /* \"@openzeppelin/contracts/utils/math/Math.sol\":13029:13045  value >= 10 ** 1 */\n      lt\n        /* \"@openzeppelin/contracts/utils/math/Math.sol\":13025:13091  if (value >= 10 ** 1) {... */\n      tag_65\n      jumpi\n        /* \"@openzeppelin/contracts/utils/math/Math.sol\":13075:13076  1 */\n      0x01\n        /* \"@openzeppelin/contracts/utils/math/Math.sol\":13065:13076  result += 1 */\n      dup2\n      add\n      swap1\n      pop\n        /* \"@openzeppelin/contracts/utils/math/Math.sol\":13025:13091  if (value >= 10 ** 1) {... */\n    tag_65:\n        /* \"@openzeppelin/contracts/utils/math/Math.sol\":13117:13123  result */\n      dup1\n        /* \"@openzeppelin/contracts/utils/math/Math.sol\":13110:13123  return result */\n      swap2\n      pop\n      pop\n        /* \"@openzeppelin/contracts/utils/math/Math.sol\":12214:13130  function log10(uint256 value) internal pure returns (uint256) {... */\n      swap2\n      swap1\n      pop\n      jump\t// out\n        /* \"#utility.yul\":88:205   */\n    tag_67:\n        /* \"#utility.yul\":197:198   */\n      0x00\n        /* \"#utility.yul\":194:195   */\n      dup1\n        /* \"#utility.yul\":187:199   */\n      revert\n        /* \"#utility.yul\":334:411   */\n    tag_69:\n        /* \"#utility.yul\":371:378   */\n      0x00\n        /* \"#utility.yul\":400:405   */\n      dup2\n        /* \"#utility.yul\":389:405   */\n      swap1\n      pop\n        /* \"#utility.yul\":334:411   */\n      swap2\n      swap1\n      pop\n      jump\t// out\n        /* \"#utility.yul\":417:539   */\n    tag_70:\n        /* \"#utility.yul\":490:514   */\n      tag_83\n        /* \"#utility.yul\":508:513   */\n      dup2\n        /* \"#utility.yul\":490:514   */\n      tag_69\n      jump\t// in\n    tag_83:\n        /* \"#utility.yul\":483:488   */\n      dup2\n        /* \"#utility.yul\":480:515   */\n      eq\n        /* \"#utility.yul\":470:533   */\n      tag_84\n      jumpi\n        /* \"#utility.yul\":529:530   */\n      0x00\n        /* \"#utility.yul\":526:527   */\n      dup1\n        /* \"#utility.yul\":519:531   */\n      revert\n        /* \"#utility.yul\":470:533   */\n    tag_84:\n        /* \"#utility.yul\":417:539   */\n      pop\n      jump\t// out\n        /* \"#utility.yul\":545:684   */\n    tag_71:\n        /* \"#utility.yul\":591:596   */\n      0x00\n        /* \"#utility.yul\":629:635   */\n      dup2\n        /* \"#utility.yul\":616:636   */\n      calldataload\n        /* \"#utility.yul\":607:636   */\n      swap1\n      pop\n        /* \"#utility.yul\":645:678   */\n      tag_86\n        /* \"#utility.yul\":672:677   */\n      dup2\n        /* \"#utility.yul\":645:678   */\n      tag_70\n      jump\t// in\n    tag_86:\n        /* \"#utility.yul\":545:684   */\n      swap3\n      swap2\n      pop\n      pop\n      jump\t// out\n        /* \"#utility.yul\":690:1309   */\n    tag_7:\n        /* \"#utility.yul\":767:773   */\n      0x00\n        /* \"#utility.yul\":775:781   */\n      dup1\n        /* \"#utility.yul\":783:789   */\n      0x00\n        /* \"#utility.yul\":832:834   */\n      0x60\n        /* \"#utility.yul\":820:829   */\n      dup5\n        /* \"#utility.yul\":811:818   */\n      dup7\n        /* \"#utility.yul\":807:830   */\n      sub\n        /* \"#utility.yul\":803:835   */\n      slt\n        /* \"#utility.yul\":800:919   */\n      iszero\n      tag_88\n      jumpi\n        /* \"#utility.yul\":838:917   */\n      tag_89\n      tag_67\n      jump\t// in\n    tag_89:\n        /* \"#utility.yul\":800:919   */\n    tag_88:\n        /* \"#utility.yul\":958:959   */\n      0x00\n        /* \"#utility.yul\":983:1036   */\n      tag_90\n        /* \"#utility.yul\":1028:1035   */\n      dup7\n        /* \"#utility.yul\":1019:1025   */\n      dup3\n        /* \"#utility.yul\":1008:1017   */\n      dup8\n        /* \"#utility.yul\":1004:1026   */\n      add\n        /* \"#utility.yul\":983:1036   */\n      tag_71\n      jump\t// in\n    tag_90:\n        /* \"#utility.yul\":973:1036   */\n      swap4\n      pop\n        /* \"#utility.yul\":929:1046   */\n      pop\n        /* \"#utility.yul\":1085:1087   */\n      0x20\n        /* \"#utility.yul\":1111:1164   */\n      tag_91\n        /* \"#utility.yul\":1156:1163   */\n      dup7\n        /* \"#utility.yul\":1147:1153   */\n      dup3\n        /* \"#utility.yul\":1136:1145   */\n      dup8\n        /* \"#utility.yul\":1132:1154   */\n      add\n        /* \"#utility.yul\":1111:1164   */\n      tag_71\n      jump\t// in\n    tag_91:\n        /* \"#utility.yul\":1101:1164   */\n      swap3\n      pop\n        /* \"#utility.yul\":1056:1174   */\n      pop\n        /* \"#utility.yul\":1213:1215   */\n      0x40\n        /* \"#utility.yul\":1239:1292   */\n      tag_92\n        /* \"#utility.yul\":1284:1291   */\n      dup7\n        /* \"#utility.yul\":1275:1281   */\n      dup3\n        /* \"#utility.yul\":1264:1273   */\n      dup8\n        /* \"#utility.yul\":1260:1282   */\n      add\n        /* \"#utility.yul\":1239:1292   */\n      tag_71\n      jump\t// in\n    tag_92:\n        /* \"#utility.yul\":1229:1292   */\n      swap2\n      pop\n        /* \"#utility.yul\":1184:1302   */\n      pop\n        /* \"#utility.yul\":690:1309   */\n      swap3\n      pop\n      swap3\n      pop\n      swap3\n      jump\t// out\n        /* \"#utility.yul\":1315:1433   */\n    tag_72:\n        /* \"#utility.yul\":1402:1426   */\n      tag_94\n        /* \"#utility.yul\":1420:1425   */\n      dup2\n        /* \"#utility.yul\":1402:1426   */\n      tag_69\n      jump\t// in\n    tag_94:\n        /* \"#utility.yul\":1397:1400   */\n      dup3\n        /* \"#utility.yul\":1390:1427   */\n      mstore\n        /* \"#utility.yul\":1315:1433   */\n      pop\n      pop\n      jump\t// out\n        /* \"#utility.yul\":1439:1661   */\n    tag_10:\n        /* \"#utility.yul\":1532:1536   */\n      0x00\n        /* \"#utility.yul\":1570:1572   */\n      0x20\n        /* \"#utility.yul\":1559:1568   */\n      dup3\n        /* \"#utility.yul\":1555:1573   */\n      add\n        /* \"#utility.yul\":1547:1573   */\n      swap1\n      pop\n        /* \"#utility.yul\":1583:1654   */\n      tag_96\n        /* \"#utility.yul\":1651:1652   */\n      0x00\n        /* \"#utility.yul\":1640:1649   */\n      dup4\n        /* \"#utility.yul\":1636:1653   */\n      add\n        /* \"#utility.yul\":1627:1633   */\n      dup5\n        /* \"#utility.yul\":1583:1654   */\n      tag_72\n      jump\t// in\n    tag_96:\n        /* \"#utility.yul\":1439:1661   */\n      swap3\n      swap2\n      pop\n      pop\n      jump\t// out\n        /* \"#utility.yul\":1667:1996   */\n    tag_13:\n        /* \"#utility.yul\":1726:1732   */\n      0x00\n        /* \"#utility.yul\":1775:1777   */\n      0x20\n        /* \"#utility.yul\":1763:1772   */\n      dup3\n        /* \"#utility.yul\":1754:1761   */\n      dup5\n        /* \"#utility.yul\":1750:1773   */\n      sub\n        /* \"#utility.yul\":1746:1778   */\n      slt\n        /* \"#utility.yul\":1743:1862   */\n      iszero\n      tag_98\n      jumpi\n        /* \"#utility.yul\":1781:1860   */\n      tag_99\n      tag_67\n      jump\t// in\n    tag_99:\n        /* \"#utility.yul\":1743:1862   */\n    tag_98:\n        /* \"#utility.yul\":1901:1902   */\n      0x00\n        /* \"#utility.yul\":1926:1979   */\n      tag_100\n        /* \"#utility.yul\":1971:1978   */\n      dup5\n        /* \"#utility.yul\":1962:1968   */\n      dup3\n        /* \"#utility.yul\":1951:1960   */\n      dup6\n        /* \"#utility.yul\":1947:1969   */\n      add\n        /* \"#utility.yul\":1926:1979   */\n      tag_71\n      jump\t// in\n    tag_100:\n        /* \"#utility.yul\":1916:1979   */\n      swap2\n      pop\n        /* \"#utility.yul\":1872:1989   */\n      pop\n        /* \"#utility.yul\":1667:1996   */\n      swap3\n      swap2\n      pop\n      pop\n      jump\t// out\n        /* \"#utility.yul\":2002:2182   */\n    tag_73:\n        /* \"#utility.yul\":2050:2127   */\n      0x4e487b7100000000000000000000000000000000000000000000000000000000\n        /* \"#utility.yul\":2047:2048   */\n      0x00\n        /* \"#utility.yul\":2040:2128   */\n      mstore\n        /* \"#utility.yul\":2147:2151   */\n      0x11\n        /* \"#utility.yul\":2144:2145   */\n      0x04\n        /* \"#utility.yul\":2137:2152   */\n      mstore\n        /* \"#utility.yul\":2171:2175   */\n      0x24\n        /* \"#utility.yul\":2168:2169   */\n      0x00\n        /* \"#utility.yul\":2161:2176   */\n      revert\n        /* \"#utility.yul\":2188:2598   */\n    tag_18:\n        /* \"#utility.yul\":2228:2235   */\n      0x00\n        /* \"#utility.yul\":2251:2271   */\n      tag_103\n        /* \"#utility.yul\":2269:2270   */\n      dup3\n        /* \"#utility.yul\":2251:2271   */\n      tag_69\n      jump\t// in\n    tag_103:\n        /* \"#utility.yul\":2246:2271   */\n      swap2\n      pop\n        /* \"#utility.yul\":2285:2305   */\n      tag_104\n        /* \"#utility.yul\":2303:2304   */\n      dup4\n        /* \"#utility.yul\":2285:2305   */\n      tag_69\n      jump\t// in\n    tag_104:\n        /* \"#utility.yul\":2280:2305   */\n      swap3\n      pop\n        /* \"#utility.yul\":2340:2341   */\n      dup3\n        /* \"#utility.yul\":2337:2338   */\n      dup3\n        /* \"#utility.yul\":2333:2342   */\n      mul\n        /* \"#utility.yul\":2362:2392   */\n      tag_105\n        /* \"#utility.yul\":2380:2391   */\n      dup2\n        /* \"#utility.yul\":2362:2392   */\n      tag_69\n      jump\t// in\n    tag_105:\n        /* \"#utility.yul\":2351:2392   */\n      swap2\n      pop\n        /* \"#utility.yul\":2541:2542   */\n      dup3\n        /* \"#utility.yul\":2532:2539   */\n      dup3\n        /* \"#utility.yul\":2528:2543   */\n      div\n        /* \"#utility.yul\":2525:2526   */\n      dup5\n        /* \"#utility.yul\":2522:2544   */\n      eq\n        /* \"#utility.yul\":2502:2503   */\n      dup4\n        /* \"#utility.yul\":2495:2504   */\n      iszero\n        /* \"#utility.yul\":2475:2558   */\n      or\n        /* \"#utility.yul\":2452:2591   */\n      tag_106\n      jumpi\n        /* \"#utility.yul\":2571:2589   */\n      tag_107\n      tag_73\n      jump\t// in\n    tag_107:\n        /* \"#utility.yul\":2452:2591   */\n    tag_106:\n        /* \"#utility.yul\":2236:2598   */\n      pop\n        /* \"#utility.yul\":2188:2598   */\n      swap3\n      swap2\n      pop\n      pop\n      jump\t// out\n        /* \"#utility.yul\":2604:2795   */\n    tag_22:\n        /* \"#utility.yul\":2644:2647   */\n      0x00\n        /* \"#utility.yul\":2663:2683   */\n      tag_109\n        /* \"#utility.yul\":2681:2682   */\n      dup3\n        /* \"#utility.yul\":2663:2683   */\n      tag_69\n      jump\t// in\n    tag_109:\n        /* \"#utility.yul\":2658:2683   */\n      swap2\n      pop\n        /* \"#utility.yul\":2697:2717   */\n      tag_110\n        /* \"#utility.yul\":2715:2716   */\n      dup4\n        /* \"#utility.yul\":2697:2717   */\n      tag_69\n      jump\t// in\n    tag_110:\n        /* \"#utility.yul\":2692:2717   */\n      swap3\n      pop\n        /* \"#utility.yul\":2740:2741   */\n      dup3\n        /* \"#utility.yul\":2737:2738   */\n      dup3\n        /* \"#utility.yul\":2733:2742   */\n      add\n        /* \"#utility.yul\":2726:2742   */\n      swap1\n      pop\n        /* \"#utility.yul\":2761:2764   */\n      dup1\n        /* \"#utility.yul\":2758:2759   */\n      dup3\n        /* \"#utility.yul\":2755:2765   */\n      gt\n        /* \"#utility.yul\":2752:2788   */\n      iszero\n      tag_111\n      jumpi\n        /* \"#utility.yul\":2768:2786   */\n      tag_112\n      tag_73\n      jump\t// in\n    tag_112:\n        /* \"#utility.yul\":2752:2788   */\n    tag_111:\n        /* \"#utility.yul\":2604:2795   */\n      swap3\n      swap2\n      pop\n      pop\n      jump\t// out\n        /* \"#utility.yul\":2801:2903   */\n    tag_74:\n        /* \"#utility.yul\":2843:2851   */\n      0x00\n        /* \"#utility.yul\":2890:2895   */\n      dup2\n        /* \"#utility.yul\":2887:2888   */\n      0x01\n        /* \"#utility.yul\":2883:2896   */\n      shr\n        /* \"#utility.yul\":2862:2896   */\n      swap1\n      pop\n        /* \"#utility.yul\":2801:2903   */\n      swap2\n      swap1\n      pop\n      jump\t// out\n        /* \"#utility.yul\":2909:3757   */\n    tag_75:\n        /* \"#utility.yul\":2970:2975   */\n      0x00\n        /* \"#utility.yul\":2977:2981   */\n      dup1\n        /* \"#utility.yul\":3001:3007   */\n      dup3\n        /* \"#utility.yul\":2992:3007   */\n      swap2\n      pop\n        /* \"#utility.yul\":3025:3030   */\n      dup4\n        /* \"#utility.yul\":3016:3030   */\n      swap1\n      pop\n        /* \"#utility.yul\":3039:3751   */\n    tag_115:\n        /* \"#utility.yul\":3060:3061   */\n      0x01\n        /* \"#utility.yul\":3050:3058   */\n      dup6\n        /* \"#utility.yul\":3047:3062   */\n      gt\n        /* \"#utility.yul\":3039:3751   */\n      iszero\n      tag_117\n      jumpi\n        /* \"#utility.yul\":3155:3159   */\n      dup1\n        /* \"#utility.yul\":3150:3153   */\n      dup7\n        /* \"#utility.yul\":3146:3160   */\n      div\n        /* \"#utility.yul\":3140:3144   */\n      dup2\n        /* \"#utility.yul\":3137:3161   */\n      gt\n        /* \"#utility.yul\":3134:3184   */\n      iszero\n      tag_118\n      jumpi\n        /* \"#utility.yul\":3164:3182   */\n      tag_119\n      tag_73\n      jump\t// in\n    tag_119:\n        /* \"#utility.yul\":3134:3184   */\n    tag_118:\n        /* \"#utility.yul\":3214:3215   */\n      0x01\n        /* \"#utility.yul\":3204:3212   */\n      dup6\n        /* \"#utility.yul\":3200:3216   */\n      and\n        /* \"#utility.yul\":3197:3648   */\n      iszero\n      tag_120\n      jumpi\n        /* \"#utility.yul\":3629:3633   */\n      dup1\n        /* \"#utility.yul\":3622:3627   */\n      dup3\n        /* \"#utility.yul\":3618:3634   */\n      mul\n        /* \"#utility.yul\":3609:3634   */\n      swap2\n      pop\n        /* \"#utility.yul\":3197:3648   */\n    tag_120:\n        /* \"#utility.yul\":3679:3683   */\n      dup1\n        /* \"#utility.yul\":3673:3677   */\n      dup2\n        /* \"#utility.yul\":3669:3684   */\n      mul\n        /* \"#utility.yul\":3661:3684   */\n      swap1\n      pop\n        /* \"#utility.yul\":3709:3741   */\n      tag_121\n        /* \"#utility.yul\":3732:3740   */\n      dup6\n        /* \"#utility.yul\":3709:3741   */\n      tag_74\n      jump\t// in\n    tag_121:\n        /* \"#utility.yul\":3697:3741   */\n      swap5\n      pop\n        /* \"#utility.yul\":3039:3751   */\n      jump(tag_115)\n    tag_117:\n        /* \"#utility.yul\":2909:3757   */\n      swap5\n      pop\n      swap5\n      swap3\n      pop\n      pop\n      pop\n      jump\t// out\n        /* \"#utility.yul\":3763:4836   */\n    tag_76:\n        /* \"#utility.yul\":3817:3822   */\n      0x00\n        /* \"#utility.yul\":4008:4016   */\n      dup3\n        /* \"#utility.yul\":3998:4038   */\n      tag_123\n      jumpi\n        /* \"#utility.yul\":4029:4030   */\n      0x01\n        /* \"#utility.yul\":4020:4030   */\n      swap1\n      pop\n        /* \"#utility.yul\":4031:4036   */\n      jump(tag_122)\n        /* \"#utility.yul\":3998:4038   */\n    tag_123:\n        /* \"#utility.yul\":4057:4061   */\n      dup2\n        /* \"#utility.yul\":4047:4083   */\n      tag_124\n      jumpi\n        /* \"#utility.yul\":4074:4075   */\n      0x00\n        /* \"#utility.yul\":4065:4075   */\n      swap1\n      pop\n        /* \"#utility.yul\":4076:4081   */\n      jump(tag_122)\n        /* \"#utility.yul\":4047:4083   */\n    tag_124:\n        /* \"#utility.yul\":4143:4147   */\n      dup2\n        /* \"#utility.yul\":4191:4192   */\n      0x01\n        /* \"#utility.yul\":4186:4213   */\n      dup2\n      eq\n      tag_126\n      jumpi\n        /* \"#utility.yul\":4227:4228   */\n      0x02\n        /* \"#utility.yul\":4222:4413   */\n      dup2\n      eq\n      tag_127\n      jumpi\n        /* \"#utility.yul\":4136:4413   */\n      jump(tag_125)\n        /* \"#utility.yul\":4186:4213   */\n    tag_126:\n        /* \"#utility.yul\":4204:4205   */\n      0x01\n        /* \"#utility.yul\":4195:4205   */\n      swap2\n      pop\n        /* \"#utility.yul\":4206:4211   */\n      pop\n      jump(tag_122)\n        /* \"#utility.yul\":4222:4413   */\n    tag_127:\n        /* \"#utility.yul\":4267:4270   */\n      0xff\n        /* \"#utility.yul\":4257:4265   */\n      dup5\n        /* \"#utility.yul\":4254:4271   */\n      gt\n        /* \"#utility.yul\":4251:4294   */\n      iszero\n      tag_128\n      jumpi\n        /* \"#utility.yul\":4274:4292   */\n      tag_129\n      tag_73\n      jump\t// in\n    tag_129:\n        /* \"#utility.yul\":4251:4294   */\n    tag_128:\n        /* \"#utility.yul\":4323:4331   */\n      dup4\n        /* \"#utility.yul\":4320:4321   */\n      0x02\n        /* \"#utility.yul\":4316:4332   */\n      exp\n        /* \"#utility.yul\":4307:4332   */\n      swap2\n      pop\n        /* \"#utility.yul\":4358:4361   */\n      dup5\n        /* \"#utility.yul\":4351:4356   */\n      dup3\n        /* \"#utility.yul\":4348:4362   */\n      gt\n        /* \"#utility.yul\":4345:4385   */\n      iszero\n      tag_130\n      jumpi\n        /* \"#utility.yul\":4365:4383   */\n      tag_131\n      tag_73\n      jump\t// in\n    tag_131:\n        /* \"#utility.yul\":4345:4385   */\n    tag_130:\n        /* \"#utility.yul\":4398:4403   */\n      pop\n      jump(tag_122)\n        /* \"#utility.yul\":4136:4413   */\n    tag_125:\n      pop\n        /* \"#utility.yul\":4522:4524   */\n      0x20\n        /* \"#utility.yul\":4512:4520   */\n      dup4\n        /* \"#utility.yul\":4509:4525   */\n      lt\n        /* \"#utility.yul\":4503:4506   */\n      0x0133\n        /* \"#utility.yul\":4497:4501   */\n      dup4\n        /* \"#utility.yul\":4494:4507   */\n      lt\n        /* \"#utility.yul\":4490:4526   */\n      and\n        /* \"#utility.yul\":4472:4474   */\n      0x4e\n        /* \"#utility.yul\":4462:4470   */\n      dup5\n        /* \"#utility.yul\":4459:4475   */\n      lt\n        /* \"#utility.yul\":4454:4456   */\n      0x0b\n        /* \"#utility.yul\":4448:4452   */\n      dup5\n        /* \"#utility.yul\":4445:4457   */\n      lt\n        /* \"#utility.yul\":4441:4476   */\n      and\n        /* \"#utility.yul\":4425:4536   */\n      or\n        /* \"#utility.yul\":4422:4668   */\n      iszero\n      tag_132\n      jumpi\n        /* \"#utility.yul\":4578:4586   */\n      dup3\n        /* \"#utility.yul\":4572:4576   */\n      dup3\n        /* \"#utility.yul\":4568:4587   */\n      exp\n        /* \"#utility.yul\":4559:4587   */\n      swap1\n      pop\n        /* \"#utility.yul\":4613:4616   */\n      dup4\n        /* \"#utility.yul\":4606:4611   */\n      dup2\n        /* \"#utility.yul\":4603:4617   */\n      gt\n        /* \"#utility.yul\":4600:4640   */\n      iszero\n      tag_133\n      jumpi\n        /* \"#utility.yul\":4620:4638   */\n      tag_134\n      tag_73\n      jump\t// in\n    tag_134:\n        /* \"#utility.yul\":4600:4640   */\n    tag_133:\n        /* \"#utility.yul\":4653:4658   */\n      jump(tag_122)\n        /* \"#utility.yul\":4422:4668   */\n    tag_132:\n        /* \"#utility.yul\":4693:4735   */\n      tag_135\n        /* \"#utility.yul\":4731:4734   */\n      dup5\n        /* \"#utility.yul\":4721:4729   */\n      dup5\n        /* \"#utility.yul\":4715:4719   */\n      dup5\n        /* \"#utility.yul\":4712:4713   */\n      0x01\n        /* \"#utility.yul\":4693:4735   */\n      tag_75\n      jump\t// in\n    tag_135:\n        /* \"#utility.yul\":4678:4735   */\n      swap3\n      pop\n      swap1\n      pop\n        /* \"#utility.yul\":4767:4771   */\n      dup2\n        /* \"#utility.yul\":4762:4765   */\n      dup5\n        /* \"#utility.yul\":4758:4772   */\n      div\n        /* \"#utility.yul\":4751:4756   */\n      dup2\n        /* \"#utility.yul\":4748:4773   */\n      gt\n        /* \"#utility.yul\":4745:4796   */\n      iszero\n      tag_136\n      jumpi\n        /* \"#utility.yul\":4776:4794   */\n      tag_137\n      tag_73\n      jump\t// in\n    tag_137:\n        /* \"#utility.yul\":4745:4796   */\n    tag_136:\n        /* \"#utility.yul\":4825:4829   */\n      dup2\n        /* \"#utility.yul\":4818:4823   */\n      dup2\n        /* \"#utility.yul\":4814:4830   */\n      mul\n        /* \"#utility.yul\":4805:4830   */\n      swap1\n      pop\n        /* \"#utility.yul\":3763:4836   */\n    tag_122:\n      swap4\n      swap3\n      pop\n      pop\n      pop\n      jump\t// out\n        /* \"#utility.yul\":4842:5127   */\n    tag_28:\n        /* \"#utility.yul\":4902:4907   */\n      0x00\n        /* \"#utility.yul\":4926:4949   */\n      tag_139\n        /* \"#utility.yul\":4944:4948   */\n      dup3\n        /* \"#utility.yul\":4926:4949   */\n      tag_69\n      jump\t// in\n    tag_139:\n        /* \"#utility.yul\":4918:4949   */\n      swap2\n      pop\n        /* \"#utility.yul\":4970:4997   */\n      tag_140\n        /* \"#utility.yul\":4988:4996   */\n      dup4\n        /* \"#utility.yul\":4970:4997   */\n      tag_69\n      jump\t// in\n    tag_140:\n        /* \"#utility.yul\":4958:4997   */\n      swap3\n      pop\n        /* \"#utility.yul\":5016:5120   */\n      tag_141\n        /* \"#utility.yul\":5053:5119   */\n      0xffffffffffffffffffffffffffffffffffffffffffffffffffffffffffffffff\n        /* \"#utility.yul\":5043:5051   */\n      dup5\n        /* \"#utility.yul\":5037:5041   */\n      dup5\n        /* \"#utility.yul\":5016:5120   */\n      tag_76\n      jump\t// in\n    tag_141:\n        /* \"#utility.yul\":5007:5120   */\n      swap1\n      pop\n        /* \"#utility.yul\":4842:5127   */\n      swap3\n      swap2\n      pop\n      pop\n      jump\t// out\n        /* \"#utility.yul\":5133:5313   */\n    tag_44:\n        /* \"#utility.yul\":5181:5258   */\n      0x4e487b7100000000000000000000000000000000000000000000000000000000\n        /* \"#utility.yul\":5178:5179   */\n      0x00\n        /* \"#utility.yul\":5171:5259   */\n      mstore\n        /* \"#utility.yul\":5278:5282   */\n      0x12\n        /* \"#utility.yul\":5275:5276   */\n      0x04\n        /* \"#utility.yul\":5268:5283   */\n      mstore\n        /* \"#utility.yul\":5302:5306   */\n      0x24\n        /* \"#utility.yul\":5299:5300   */\n      0x00\n        /* \"#utility.yul\":5292:5307   */\n      revert\n        /* \"#utility.yul\":5319:5504   */\n    tag_32:\n        /* \"#utility.yul\":5359:5360   */\n      0x00\n        /* \"#utility.yul\":5376:5396   */\n      tag_144\n        /* \"#utility.yul\":5394:5395   */\n      dup3\n        /* \"#utility.yul\":5376:5396   */\n      tag_69\n      jump\t// in\n    tag_144:\n        /* \"#utility.yul\":5371:5396   */\n      swap2\n      pop\n        /* \"#utility.yul\":5410:5430   */\n      tag_145\n        /* \"#utility.yul\":5428:5429   */\n      dup4\n        /* \"#utility.yul\":5410:5430   */\n      tag_69\n      jump\t// in\n    tag_145:\n        /* \"#utility.yul\":5405:5430   */\n      swap3\n      pop\n        /* \"#utility.yul\":5449:5450   */\n      dup3\n        /* \"#utility.yul\":5439:5474   */\n      tag_146\n      jumpi\n        /* \"#utility.yul\":5454:5472   */\n      tag_147\n      tag_44\n      jump\t// in\n    tag_147:\n        /* \"#utility.yul\":5439:5474   */\n    tag_146:\n        /* \"#utility.yul\":5496:5497   */\n      dup3\n        /* \"#utility.yul\":5493:5494   */\n      dup3\n        /* \"#utility.yul\":5489:5498   */\n      div\n        /* \"#utility.yul\":5484:5498   */\n      swap1\n      pop\n        /* \"#utility.yul\":5319:5504   */\n      swap3\n      swap2\n      pop\n      pop\n      jump\t// out\n        /* \"#utility.yul\":5510:5690   */\n    tag_38:\n        /* \"#utility.yul\":5558:5635   */\n      0x4e487b7100000000000000000000000000000000000000000000000000000000\n        /* \"#utility.yul\":5555:5556   */\n      0x00\n        /* \"#utility.yul\":5548:5636   */\n      mstore\n        /* \"#utility.yul\":5655:5659   */\n      0x41\n        /* \"#utility.yul\":5652:5653   */\n      0x04\n        /* \"#utility.yul\":5645:5660   */\n      mstore\n        /* \"#utility.yul\":5679:5683   */\n      0x24\n        /* \"#utility.yul\":5676:5677   */\n      0x00\n        /* \"#utility.yul\":5669:5684   */\n      revert\n\n    auxdata: 0xa26469706673582212208a8a4a0a1c5fed972a4d17e29074c5e2ba0ac90ae1abefb36d595bb1c099967164736f6c63430008190033\n}\n",
				"bytecode": {
					"linkReferences": {},
					"object": "6080604052348015600e575f80fd5b506106ff8061001c5f395ff3fe608060405234801561000f575f80fd5b5060043610610034575f3560e01c80638f4aec3f14610038578063a13c0aa214610068575b5f80fd5b610052600480360381019061004d9190610382565b610098565b60405161005f91906103e1565b60405180910390f35b610082600480360381019061007d91906103fa565b6100dd565b60405161008f91906103e1565b60405180910390f35b5f6001826100a69190610452565b600a846100b39190610452565b6064866100c09190610452565b6100ca9190610493565b6100d49190610493565b90509392505050565b5f806100e95f54610130565b51905080600a6100f991906105f5565b836101049190610452565b5f808282546101139190610493565b92505081905550600a5f54610128919061066c565b915050919050565b60605f600161013e846101fa565b0190505f8167ffffffffffffffff81111561015c5761015b61069c565b5b6040519080825280601f01601f19166020018201604052801561018e5781602001600182028036833780820191505090505b5090505f82602001820190505b6001156101ef578080600190039150507f3031323334353637383961626364656600000000000000000000000000000000600a86061a8153600a85816101e4576101e361063f565b5b0494505f850361019b575b819350505050919050565b5f805f90507a184f03e93ff9f4daa797ed6e38ed64bf6a1f0100000000000000008310610256577a184f03e93ff9f4daa797ed6e38ed64bf6a1f010000000000000000838161024c5761024b61063f565b5b0492506040810190505b6d04ee2d6d415b85acef81000000008310610293576d04ee2d6d415b85acef810000000083816102895761028861063f565b5b0492506020810190505b662386f26fc1000083106102c257662386f26fc1000083816102b8576102b761063f565b5b0492506010810190505b6305f5e10083106102eb576305f5e10083816102e1576102e061063f565b5b0492506008810190505b61271083106103105761271083816103065761030561063f565b5b0492506004810190505b6064831061033357606483816103295761032861063f565b5b0492506002810190505b600a8310610342576001810190505b80915050919050565b5f80fd5b5f819050919050565b6103618161034f565b811461036b575f80fd5b50565b5f8135905061037c81610358565b92915050565b5f805f606084860312156103995761039861034b565b5b5f6103a68682870161036e565b93505060206103b78682870161036e565b92505060406103c88682870161036e565b9150509250925092565b6103db8161034f565b82525050565b5f6020820190506103f45f8301846103d2565b92915050565b5f6020828403121561040f5761040e61034b565b5b5f61041c8482850161036e565b91505092915050565b7f4e487b71000000000000000000000000000000000000000000000000000000005f52601160045260245ffd5b5f61045c8261034f565b91506104678361034f565b92508282026104758161034f565b9150828204841483151761048c5761048b610425565b5b5092915050565b5f61049d8261034f565b91506104a88361034f565b92508282019050808211156104c0576104bf610425565b5b92915050565b5f8160011c9050919050565b5f808291508390505b600185111561051b578086048111156104f7576104f6610425565b5b60018516156105065780820291505b8081029050610514856104c6565b94506104db565b94509492505050565b5f8261053357600190506105ee565b81610540575f90506105ee565b816001811461055657600281146105605761058f565b60019150506105ee565b60ff84111561057257610571610425565b5b8360020a91508482111561058957610588610425565b5b506105ee565b5060208310610133831016604e8410600b84101617156105c45782820a9050838111156105bf576105be610425565b5b6105ee565b6105d184848460016104d2565b925090508184048111156105e8576105e7610425565b5b81810290505b9392505050565b5f6105ff8261034f565b915061060a8361034f565b92506106377fffffffffffffffffffffffffffffffffffffffffffffffffffffffffffffffff8484610524565b905092915050565b7f4e487b71000000000000000000000000000000000000000000000000000000005f52601260045260245ffd5b5f6106768261034f565b91506106818361034f565b9250826106915761069061063f565b5b828204905092915050565b7f4e487b71000000000000000000000000000000000000000000000000000000005f52604160045260245ffdfea26469706673582212208a8a4a0a1c5fed972a4d17e29074c5e2ba0ac90ae1abefb36d595bb1c099967164736f6c63430008190033",
					"opcodes": "PUSH1 0x80 PUSH1 0x40 MSTORE CALLVALUE DUP1 ISZERO PUSH1 0xE JUMPI PUSH0 DUP1 REVERT JUMPDEST POP PUSH2 0x6FF DUP1 PUSH2 0x1C PUSH0 CODECOPY PUSH0 RETURN INVALID PUSH1 0x80 PUSH1 0x40 MSTORE CALLVALUE DUP1 ISZERO PUSH2 0xF JUMPI PUSH0 DUP1 REVERT JUMPDEST POP PUSH1 0x4 CALLDATASIZE LT PUSH2 0x34 JUMPI PUSH0 CALLDATALOAD PUSH1 0xE0 SHR DUP1 PUSH4 0x8F4AEC3F EQ PUSH2 0x38 JUMPI DUP1 PUSH4 0xA13C0AA2 EQ PUSH2 0x68 JUMPI JUMPDEST PUSH0 DUP1 REVERT JUMPDEST PUSH2 0x52 PUSH1 0x4 DUP1 CALLDATASIZE SUB DUP2 ADD SWAP1 PUSH2 0x4D SWAP2 SWAP1 PUSH2 0x382 JUMP JUMPDEST PUSH2 0x98 JUMP JUMPDEST PUSH1 0x40 MLOAD PUSH2 0x5F SWAP2 SWAP1 PUSH2 0x3E1 JUMP JUMPDEST PUSH1 0x40 MLOAD DUP1 SWAP2 SUB SWAP1 RETURN JUMPDEST PUSH2 0x82 PUSH1 0x4 DUP1 CALLDATASIZE SUB DUP2 ADD SWAP1 PUSH2 0x7D SWAP2 SWAP1 PUSH2 0x3FA JUMP JUMPDEST PUSH2 0xDD JUMP JUMPDEST PUSH1 0x40 MLOAD PUSH2 0x8F SWAP2 SWAP1 PUSH2 0x3E1 JUMP JUMPDEST PUSH1 0x40 MLOAD DUP1 SWAP2 SUB SWAP1 RETURN JUMPDEST PUSH0 PUSH1 0x1 DUP3 PUSH2 0xA6 SWAP2 SWAP1 PUSH2 0x452 JUMP JUMPDEST PUSH1 0xA DUP5 PUSH2 0xB3 SWAP2 SWAP1 PUSH2 0x452 JUMP JUMPDEST PUSH1 0x64 DUP7 PUSH2 0xC0 SWAP2 SWAP1 PUSH2 0x452 JUMP JUMPDEST PUSH2 0xCA SWAP2 SWAP1 PUSH2 0x493 JUMP JUMPDEST PUSH2 0xD4 SWAP2 SWAP1 PUSH2 0x493 JUMP JUMPDEST SWAP1 POP SWAP4 SWAP3 POP POP POP JUMP JUMPDEST PUSH0 DUP1 PUSH2 0xE9 PUSH0 SLOAD PUSH2 0x130 JUMP JUMPDEST MLOAD SWAP1 POP DUP1 PUSH1 0xA PUSH2 0xF9 SWAP2 SWAP1 PUSH2 0x5F5 JUMP JUMPDEST DUP4 PUSH2 0x104 SWAP2 SWAP1 PUSH2 0x452 JUMP JUMPDEST PUSH0 DUP1 DUP3 DUP3 SLOAD PUSH2 0x113 SWAP2 SWAP1 PUSH2 0x493 JUMP JUMPDEST SWAP3 POP POP DUP2 SWAP1 SSTORE POP PUSH1 0xA PUSH0 SLOAD PUSH2 0x128 SWAP2 SWAP1 PUSH2 0x66C JUMP JUMPDEST SWAP2 POP POP SWAP2 SWAP1 POP JUMP JUMPDEST PUSH1 0x60 PUSH0 PUSH1 0x1 PUSH2 0x13E DUP5 PUSH2 0x1FA JUMP JUMPDEST ADD SWAP1 POP PUSH0 DUP2 PUSH8 0xFFFFFFFFFFFFFFFF DUP2 GT ISZERO PUSH2 0x15C JUMPI PUSH2 0x15B PUSH2 0x69C JUMP JUMPDEST JUMPDEST PUSH1 0x40 MLOAD SWAP1 DUP1 DUP3 MSTORE DUP1 PUSH1 0x1F ADD PUSH1 0x1F NOT AND PUSH1 0x20 ADD DUP3 ADD PUSH1 0x40 MSTORE DUP1 ISZERO PUSH2 0x18E JUMPI DUP2 PUSH1 0x20 ADD PUSH1 0x1 DUP3 MUL DUP1 CALLDATASIZE DUP4 CALLDATACOPY DUP1 DUP3 ADD SWAP2 POP POP SWAP1 POP JUMPDEST POP SWAP1 POP PUSH0 DUP3 PUSH1 0x20 ADD DUP3 ADD SWAP1 POP JUMPDEST PUSH1 0x1 ISZERO PUSH2 0x1EF JUMPI DUP1 DUP1 PUSH1 0x1 SWAP1 SUB SWAP2 POP POP PUSH32 0x3031323334353637383961626364656600000000000000000000000000000000 PUSH1 0xA DUP7 MOD BYTE DUP2 MSTORE8 PUSH1 0xA DUP6 DUP2 PUSH2 0x1E4 JUMPI PUSH2 0x1E3 PUSH2 0x63F JUMP JUMPDEST JUMPDEST DIV SWAP5 POP PUSH0 DUP6 SUB PUSH2 0x19B JUMPI JUMPDEST DUP2 SWAP4 POP POP POP POP SWAP2 SWAP1 POP JUMP JUMPDEST PUSH0 DUP1 PUSH0 SWAP1 POP PUSH27 0x184F03E93FF9F4DAA797ED6E38ED64BF6A1F010000000000000000 DUP4 LT PUSH2 0x256 JUMPI PUSH27 0x184F03E93FF9F4DAA797ED6E38ED64BF6A1F010000000000000000 DUP4 DUP2 PUSH2 0x24C JUMPI PUSH2 0x24B PUSH2 0x63F JUMP JUMPDEST JUMPDEST DIV SWAP3 POP PUSH1 0x40 DUP2 ADD SWAP1 POP JUMPDEST PUSH14 0x4EE2D6D415B85ACEF8100000000 DUP4 LT PUSH2 0x293 JUMPI PUSH14 0x4EE2D6D415B85ACEF8100000000 DUP4 DUP2 PUSH2 0x289 JUMPI PUSH2 0x288 PUSH2 0x63F JUMP JUMPDEST JUMPDEST DIV SWAP3 POP PUSH1 0x20 DUP2 ADD SWAP1 POP JUMPDEST PUSH7 0x2386F26FC10000 DUP4 LT PUSH2 0x2C2 JUMPI PUSH7 0x2386F26FC10000 DUP4 DUP2 PUSH2 0x2B8 JUMPI PUSH2 0x2B7 PUSH2 0x63F JUMP JUMPDEST JUMPDEST DIV SWAP3 POP PUSH1 0x10 DUP2 ADD SWAP1 POP JUMPDEST PUSH4 0x5F5E100 DUP4 LT PUSH2 0x2EB JUMPI PUSH4 0x5F5E100 DUP4 DUP2 PUSH2 0x2E1 JUMPI PUSH2 0x2E0 PUSH2 0x63F JUMP JUMPDEST JUMPDEST DIV SWAP3 POP PUSH1 0x8 DUP2 ADD SWAP1 POP JUMPDEST PUSH2 0x2710 DUP4 LT PUSH2 0x310 JUMPI PUSH2 0x2710 DUP4 DUP2 PUSH2 0x306 JUMPI PUSH2 0x305 PUSH2 0x63F JUMP JUMPDEST JUMPDEST DIV SWAP3 POP PUSH1 0x4 DUP2 ADD SWAP1 POP JUMPDEST PUSH1 0x64 DUP4 LT PUSH2 0x333 JUMPI PUSH1 0x64 DUP4 DUP2 PUSH2 0x329 JUMPI PUSH2 0x328 PUSH2 0x63F JUMP JUMPDEST JUMPDEST DIV SWAP3 POP PUSH1 0x2 DUP2 ADD SWAP1 POP JUMPDEST PUSH1 0xA DUP4 LT PUSH2 0x342 JUMPI PUSH1 0x1 DUP2 ADD SWAP1 POP JUMPDEST DUP1 SWAP2 POP POP SWAP2 SWAP1 POP JUMP JUMPDEST PUSH0 DUP1 REVERT JUMPDEST PUSH0 DUP2 SWAP1 POP SWAP2 SWAP1 POP JUMP JUMPDEST PUSH2 0x361 DUP2 PUSH2 0x34F JUMP JUMPDEST DUP2 EQ PUSH2 0x36B JUMPI PUSH0 DUP1 REVERT JUMPDEST POP JUMP JUMPDEST PUSH0 DUP2 CALLDATALOAD SWAP1 POP PUSH2 0x37C DUP2 PUSH2 0x358 JUMP JUMPDEST SWAP3 SWAP2 POP POP JUMP JUMPDEST PUSH0 DUP1 PUSH0 PUSH1 0x60 DUP5 DUP7 SUB SLT ISZERO PUSH2 0x399 JUMPI PUSH2 0x398 PUSH2 0x34B JUMP JUMPDEST JUMPDEST PUSH0 PUSH2 0x3A6 DUP7 DUP3 DUP8 ADD PUSH2 0x36E JUMP JUMPDEST SWAP4 POP POP PUSH1 0x20 PUSH2 0x3B7 DUP7 DUP3 DUP8 ADD PUSH2 0x36E JUMP JUMPDEST SWAP3 POP POP PUSH1 0x40 PUSH2 0x3C8 DUP7 DUP3 DUP8 ADD PUSH2 0x36E JUMP JUMPDEST SWAP2 POP POP SWAP3 POP SWAP3 POP SWAP3 JUMP JUMPDEST PUSH2 0x3DB DUP2 PUSH2 0x34F JUMP JUMPDEST DUP3 MSTORE POP POP JUMP JUMPDEST PUSH0 PUSH1 0x20 DUP3 ADD SWAP1 POP PUSH2 0x3F4 PUSH0 DUP4 ADD DUP5 PUSH2 0x3D2 JUMP JUMPDEST SWAP3 SWAP2 POP POP JUMP JUMPDEST PUSH0 PUSH1 0x20 DUP3 DUP5 SUB SLT ISZERO PUSH2 0x40F JUMPI PUSH2 0x40E PUSH2 0x34B JUMP JUMPDEST JUMPDEST PUSH0 PUSH2 0x41C DUP5 DUP3 DUP6 ADD PUSH2 0x36E JUMP JUMPDEST SWAP2 POP POP SWAP3 SWAP2 POP POP JUMP JUMPDEST PUSH32 0x4E487B7100000000000000000000000000000000000000000000000000000000 PUSH0 MSTORE PUSH1 0x11 PUSH1 0x4 MSTORE PUSH1 0x24 PUSH0 REVERT JUMPDEST PUSH0 PUSH2 0x45C DUP3 PUSH2 0x34F JUMP JUMPDEST SWAP2 POP PUSH2 0x467 DUP4 PUSH2 0x34F JUMP JUMPDEST SWAP3 POP DUP3 DUP3 MUL PUSH2 0x475 DUP2 PUSH2 0x34F JUMP JUMPDEST SWAP2 POP DUP3 DUP3 DIV DUP5 EQ DUP4 ISZERO OR PUSH2 0x48C JUMPI PUSH2 0x48B PUSH2 0x425 JUMP JUMPDEST JUMPDEST POP SWAP3 SWAP2 POP POP JUMP JUMPDEST PUSH0 PUSH2 0x49D DUP3 PUSH2 0x34F JUMP JUMPDEST SWAP2 POP PUSH2 0x4A8 DUP4 PUSH2 0x34F JUMP JUMPDEST SWAP3 POP DUP3 DUP3 ADD SWAP1 POP DUP1 DUP3 GT ISZERO PUSH2 0x4C0 JUMPI PUSH2 0x4BF PUSH2 0x425 JUMP JUMPDEST JUMPDEST SWAP3 SWAP2 POP POP JUMP JUMPDEST PUSH0 DUP2 PUSH1 0x1 SHR SWAP1 POP SWAP2 SWAP1 POP JUMP JUMPDEST PUSH0 DUP1 DUP3 SWAP2 POP DUP4 SWAP1 POP JUMPDEST PUSH1 0x1 DUP6 GT ISZERO PUSH2 0x51B JUMPI DUP1 DUP7 DIV DUP2 GT ISZERO PUSH2 0x4F7 JUMPI PUSH2 0x4F6 PUSH2 0x425 JUMP JUMPDEST JUMPDEST PUSH1 0x1 DUP6 AND ISZERO PUSH2 0x506 JUMPI DUP1 DUP3 MUL SWAP2 POP JUMPDEST DUP1 DUP2 MUL SWAP1 POP PUSH2 0x514 DUP6 PUSH2 0x4C6 JUMP JUMPDEST SWAP5 POP PUSH2 0x4DB JUMP JUMPDEST SWAP5 POP SWAP5 SWAP3 POP POP POP JUMP JUMPDEST PUSH0 DUP3 PUSH2 0x533 JUMPI PUSH1 0x1 SWAP1 POP PUSH2 0x5EE JUMP JUMPDEST DUP2 PUSH2 0x540 JUMPI PUSH0 SWAP1 POP PUSH2 0x5EE JUMP JUMPDEST DUP2 PUSH1 0x1 DUP2 EQ PUSH2 0x556 JUMPI PUSH1 0x2 DUP2 EQ PUSH2 0x560 JUMPI PUSH2 0x58F JUMP JUMPDEST PUSH1 0x1 SWAP2 POP POP PUSH2 0x5EE JUMP JUMPDEST PUSH1 0xFF DUP5 GT ISZERO PUSH2 0x572 JUMPI PUSH2 0x571 PUSH2 0x425 JUMP JUMPDEST JUMPDEST DUP4 PUSH1 0x2 EXP SWAP2 POP DUP5 DUP3 GT ISZERO PUSH2 0x589 JUMPI PUSH2 0x588 PUSH2 0x425 JUMP JUMPDEST JUMPDEST POP PUSH2 0x5EE JUMP JUMPDEST POP PUSH1 0x20 DUP4 LT PUSH2 0x133 DUP4 LT AND PUSH1 0x4E DUP5 LT PUSH1 0xB DUP5 LT AND OR ISZERO PUSH2 0x5C4 JUMPI DUP3 DUP3 EXP SWAP1 POP DUP4 DUP2 GT ISZERO PUSH2 0x5BF JUMPI PUSH2 0x5BE PUSH2 0x425 JUMP JUMPDEST JUMPDEST PUSH2 0x5EE JUMP JUMPDEST PUSH2 0x5D1 DUP5 DUP5 DUP5 PUSH1 0x1 PUSH2 0x4D2 JUMP JUMPDEST SWAP3 POP SWAP1 POP DUP2 DUP5 DIV DUP2 GT ISZERO PUSH2 0x5E8 JUMPI PUSH2 0x5E7 PUSH2 0x425 JUMP JUMPDEST JUMPDEST DUP2 DUP2 MUL SWAP1 POP JUMPDEST SWAP4 SWAP3 POP POP POP JUMP JUMPDEST PUSH0 PUSH2 0x5FF DUP3 PUSH2 0x34F JUMP JUMPDEST SWAP2 POP PUSH2 0x60A DUP4 PUSH2 0x34F JUMP JUMPDEST SWAP3 POP PUSH2 0x637 PUSH32 0xFFFFFFFFFFFFFFFFFFFFFFFFFFFFFFFFFFFFFFFFFFFFFFFFFFFFFFFFFFFFFFFF DUP5 DUP5 PUSH2 0x524 JUMP JUMPDEST SWAP1 POP SWAP3 SWAP2 POP POP JUMP JUMPDEST PUSH32 0x4E487B7100000000000000000000000000000000000000000000000000000000 PUSH0 MSTORE PUSH1 0x12 PUSH1 0x4 MSTORE PUSH1 0x24 PUSH0 REVERT JUMPDEST PUSH0 PUSH2 0x676 DUP3 PUSH2 0x34F JUMP JUMPDEST SWAP2 POP PUSH2 0x681 DUP4 PUSH2 0x34F JUMP JUMPDEST SWAP3 POP DUP3 PUSH2 0x691 JUMPI PUSH2 0x690 PUSH2 0x63F JUMP JUMPDEST JUMPDEST DUP3 DUP3 DIV SWAP1 POP SWAP3 SWAP2 POP POP JUMP JUMPDEST PUSH32 0x4E487B7100000000000000000000000000000000000000000000000000000000 PUSH0 MSTORE PUSH1 0x41 PUSH1 0x4 MSTORE PUSH1 0x24 PUSH0 REVERT INVALID LOG2 PUSH5 0x6970667358 0x22 SLT KECCAK256 DUP11 DUP11 BLOBBASEFEE EXP SHR PUSH0 0xED SWAP8 0x2A 0x4D OR 0xE2 SWAP1 PUSH21 0xC5E2BA0AC90AE1ABEFB36D595BB1C099967164736F PUSH13 0x63430008190033000000000000 "
				},
				"gasEstimates": {
					"creation": {
						"codeDepositCost": "358200",
						"executionCost": "391",
						"totalCost": "358591"
					},
					"external": {
						"concatNum(uint256)": "infinite",
						"concatNum(uint256,uint256,uint256)": "infinite"
					}
				},
				"methodIdentifiers": {
					"concatNum(uint256)": "a13c0aa2",
					"concatNum(uint256,uint256,uint256)": "8f4aec3f"
				}
			},
			"storageLayout": {
				"storage": [
					{
						"astId": 1814,
						"contract": "solidity_100/41-50.sol:Q50",
						"label": "result",
						"offset": 0,
						"slot": "0",
						"type": "t_uint256"
					}
				],
				"types": {
					"t_uint256": {
						"encoding": "inplace",
						"label": "uint256",
						"numberOfBytes": "32"
					}
				}
			},
			"userdoc": {
				"kind": "user",
				"methods": {},
				"version": 1
			}
		}
	}
}