{
	"solidity_100/41-50.sol": {
		"Q41": {
			"abi": [
				{
					"inputs": [],
					"name": "getArray",
					"outputs": [
						{
							"internalType": "uint256[4]",
							"name": "",
							"type": "uint256[4]"
						}
					],
					"stateMutability": "view",
					"type": "function"
				},
				{
					"inputs": [],
					"name": "initArray",
					"outputs": [],
					"stateMutability": "nonpayable",
					"type": "function"
				},
				{
					"inputs": [
						{
							"internalType": "uint256",
							"name": "_n",
							"type": "uint256"
						}
					],
					"name": "pushNumber",
					"outputs": [],
					"stateMutability": "nonpayable",
					"type": "function"
				},
				{
					"inputs": [
						{
							"internalType": "uint256",
							"name": "_n",
							"type": "uint256"
						}
					],
					"name": "setArray",
					"outputs": [],
					"stateMutability": "nonpayable",
					"type": "function"
				}
			],
			"devdoc": {
				"kind": "dev",
				"methods": {},
				"version": 1
			},
			"evm": {
				"assembly": "    /* \"solidity_100/41-50.sol\":130:1016  contract Q41 {... */\n  mstore(0x40, 0x80)\n  callvalue\n  dup1\n  iszero\n  tag_1\n  jumpi\n  0x00\n  dup1\n  revert\ntag_1:\n  pop\n  dataSize(sub_0)\n  dup1\n  dataOffset(sub_0)\n  0x00\n  codecopy\n  0x00\n  return\nstop\n\nsub_0: assembly {\n        /* \"solidity_100/41-50.sol\":130:1016  contract Q41 {... */\n      mstore(0x40, 0x80)\n      callvalue\n      dup1\n      iszero\n      tag_1\n      jumpi\n      0x00\n      dup1\n      revert\n    tag_1:\n      pop\n      jumpi(tag_2, lt(calldatasize, 0x04))\n      shr(0xe0, calldataload(0x00))\n      dup1\n      0x2bfe1805\n      eq\n      tag_3\n      jumpi\n      dup1\n      0x82a8181b\n      eq\n      tag_4\n      jumpi\n      dup1\n      0xd504ea1d\n      eq\n      tag_5\n      jumpi\n      dup1\n      0xfb8333eb\n      eq\n      tag_6\n      jumpi\n    tag_2:\n      0x00\n      dup1\n      revert\n        /* \"solidity_100/41-50.sol\":903:978  function pushNumber(uint _n) public {... */\n    tag_3:\n      tag_7\n      0x04\n      dup1\n      calldatasize\n      sub\n      dup2\n      add\n      swap1\n      tag_8\n      swap2\n      swap1\n      tag_9\n      jump\t// in\n    tag_8:\n      tag_10\n      jump\t// in\n    tag_7:\n      stop\n        /* \"solidity_100/41-50.sol\":814:876  function initArray() public {... */\n    tag_4:\n      tag_11\n      tag_12\n      jump\t// in\n    tag_11:\n      stop\n        /* \"solidity_100/41-50.sol\":716:806  function getArray() public view returns(uint[4] memory) {... */\n    tag_5:\n      tag_13\n      tag_14\n      jump\t// in\n    tag_13:\n      mload(0x40)\n      tag_15\n      swap2\n      swap1\n      tag_16\n      jump\t// in\n    tag_15:\n      mload(0x40)\n      dup1\n      swap2\n      sub\n      swap1\n      return\n        /* \"solidity_100/41-50.sol\":508:708  function setArray(uint _n) public {... */\n    tag_6:\n      tag_17\n      0x04\n      dup1\n      calldatasize\n      sub\n      dup2\n      add\n      swap1\n      tag_18\n      swap2\n      swap1\n      tag_9\n      jump\t// in\n    tag_18:\n      tag_19\n      jump\t// in\n    tag_17:\n      stop\n        /* \"solidity_100/41-50.sol\":903:978  function pushNumber(uint _n) public {... */\n    tag_10:\n        /* \"solidity_100/41-50.sol\":968:970  _n */\n      dup1\n        /* \"solidity_100/41-50.sol\":950:958  numArray */\n      0x00\n        /* \"solidity_100/41-50.sol\":959:962  idx */\n      0x04\n      0x00\n        /* \"solidity_100/41-50.sol\":959:964  idx++ */\n      dup2\n      sload\n      dup1\n      swap3\n      swap2\n      swap1\n      tag_21\n      swap1\n      tag_22\n      jump\t// in\n    tag_21:\n      swap2\n      swap1\n      pop\n      sstore\n        /* \"solidity_100/41-50.sol\":950:965  numArray[idx++] */\n      0x04\n      dup2\n      lt\n      tag_23\n      jumpi\n      tag_24\n      tag_25\n      jump\t// in\n    tag_24:\n    tag_23:\n      add\n        /* \"solidity_100/41-50.sol\":950:970  numArray[idx++] = _n */\n      dup2\n      swap1\n      sstore\n      pop\n        /* \"solidity_100/41-50.sol\":903:978  function pushNumber(uint _n) public {... */\n      pop\n      jump\t// out\n        /* \"solidity_100/41-50.sol\":814:876  function initArray() public {... */\n    tag_12:\n        /* \"solidity_100/41-50.sol\":860:868  numArray */\n      0x00\n      dup1\n        /* \"solidity_100/41-50.sol\":853:868  delete numArray */\n      tag_28\n      swap2\n      swap1\n      tag_29\n      jump\t// in\n    tag_28:\n        /* \"solidity_100/41-50.sol\":814:876  function initArray() public {... */\n      jump\t// out\n        /* \"solidity_100/41-50.sol\":716:806  function getArray() public view returns(uint[4] memory) {... */\n    tag_14:\n        /* \"solidity_100/41-50.sol\":756:770  uint[4] memory */\n      tag_30\n      tag_31\n      jump\t// in\n    tag_30:\n        /* \"solidity_100/41-50.sol\":790:798  numArray */\n      0x00\n        /* \"solidity_100/41-50.sol\":783:798  return numArray */\n      0x04\n      dup1\n      0x20\n      mul\n      mload(0x40)\n      swap1\n      dup2\n      add\n      0x40\n      mstore\n      dup1\n      swap3\n      swap2\n      swap1\n      dup3\n      0x04\n      dup1\n      iszero\n      tag_33\n      jumpi\n      0x20\n      mul\n      dup3\n      add\n      swap2\n    tag_34:\n      dup2\n      sload\n      dup2\n      mstore\n      0x20\n      add\n      swap1\n      0x01\n      add\n      swap1\n      dup1\n      dup4\n      gt\n      tag_34\n      jumpi\n    tag_33:\n      pop\n      pop\n      pop\n      pop\n      pop\n      swap1\n      pop\n        /* \"solidity_100/41-50.sol\":716:806  function getArray() public view returns(uint[4] memory) {... */\n      swap1\n      jump\t// out\n        /* \"solidity_100/41-50.sol\":508:708  function setArray(uint _n) public {... */\n    tag_19:\n        /* \"solidity_100/41-50.sol\":557:563  uint i */\n      0x00\n        /* \"solidity_100/41-50.sol\":553:701  for(uint i=0; i<4;i++) {... */\n    tag_36:\n        /* \"solidity_100/41-50.sol\":569:570  4 */\n      0x04\n        /* \"solidity_100/41-50.sol\":567:568  i */\n      dup2\n        /* \"solidity_100/41-50.sol\":567:570  i<4 */\n      lt\n        /* \"solidity_100/41-50.sol\":553:701  for(uint i=0; i<4;i++) {... */\n      iszero\n      tag_37\n      jumpi\n        /* \"solidity_100/41-50.sol\":609:610  0 */\n      0x00\n        /* \"solidity_100/41-50.sol\":594:602  numArray */\n      dup1\n        /* \"solidity_100/41-50.sol\":603:604  i */\n      dup3\n        /* \"solidity_100/41-50.sol\":594:605  numArray[i] */\n      0x04\n      dup2\n      lt\n      tag_39\n      jumpi\n      tag_40\n      tag_25\n      jump\t// in\n    tag_40:\n    tag_39:\n      add\n      sload\n        /* \"solidity_100/41-50.sol\":594:610  numArray[i] == 0 */\n      sub\n        /* \"solidity_100/41-50.sol\":591:687  if(numArray[i] == 0) {... */\n      tag_42\n      jumpi\n        /* \"solidity_100/41-50.sol\":645:647  _n */\n      dup2\n        /* \"solidity_100/41-50.sol\":631:639  numArray */\n      0x00\n        /* \"solidity_100/41-50.sol\":640:641  i */\n      dup3\n        /* \"solidity_100/41-50.sol\":631:642  numArray[i] */\n      0x04\n      dup2\n      lt\n      tag_43\n      jumpi\n      tag_44\n      tag_25\n      jump\t// in\n    tag_44:\n    tag_43:\n      add\n        /* \"solidity_100/41-50.sol\":631:647  numArray[i] = _n */\n      dup2\n      swap1\n      sstore\n      pop\n        /* \"solidity_100/41-50.sol\":666:671  break */\n      jump(tag_37)\n        /* \"solidity_100/41-50.sol\":591:687  if(numArray[i] == 0) {... */\n    tag_42:\n        /* \"solidity_100/41-50.sol\":571:574  i++ */\n      dup1\n      dup1\n      0x01\n      add\n      swap2\n      pop\n      pop\n        /* \"solidity_100/41-50.sol\":553:701  for(uint i=0; i<4;i++) {... */\n      jump(tag_36)\n    tag_37:\n      pop\n        /* \"solidity_100/41-50.sol\":508:708  function setArray(uint _n) public {... */\n      pop\n      jump\t// out\n    tag_29:\n      pop\n      0x00\n      dup2\n      sstore\n      0x01\n      add\n      0x00\n      dup2\n      sstore\n      0x01\n      add\n      0x00\n      dup2\n      sstore\n      0x01\n      add\n      0x00\n      swap1\n      sstore\n      jump\t// out\n    tag_31:\n      mload(0x40)\n      dup1\n      0x80\n      add\n      0x40\n      mstore\n      dup1\n      0x04\n      swap1\n      0x20\n      dup3\n      mul\n      dup1\n      calldatasize\n      dup4\n      calldatacopy\n      dup1\n      dup3\n      add\n      swap2\n      pop\n      pop\n      swap1\n      pop\n      pop\n      swap1\n      jump\t// out\n        /* \"#utility.yul\":88:205   */\n    tag_47:\n        /* \"#utility.yul\":197:198   */\n      0x00\n        /* \"#utility.yul\":194:195   */\n      dup1\n        /* \"#utility.yul\":187:199   */\n      revert\n        /* \"#utility.yul\":334:411   */\n    tag_49:\n        /* \"#utility.yul\":371:378   */\n      0x00\n        /* \"#utility.yul\":400:405   */\n      dup2\n        /* \"#utility.yul\":389:405   */\n      swap1\n      pop\n        /* \"#utility.yul\":334:411   */\n      swap2\n      swap1\n      pop\n      jump\t// out\n        /* \"#utility.yul\":417:539   */\n    tag_50:\n        /* \"#utility.yul\":490:514   */\n      tag_66\n        /* \"#utility.yul\":508:513   */\n      dup2\n        /* \"#utility.yul\":490:514   */\n      tag_49\n      jump\t// in\n    tag_66:\n        /* \"#utility.yul\":483:488   */\n      dup2\n        /* \"#utility.yul\":480:515   */\n      eq\n        /* \"#utility.yul\":470:533   */\n      tag_67\n      jumpi\n        /* \"#utility.yul\":529:530   */\n      0x00\n        /* \"#utility.yul\":526:527   */\n      dup1\n        /* \"#utility.yul\":519:531   */\n      revert\n        /* \"#utility.yul\":470:533   */\n    tag_67:\n        /* \"#utility.yul\":417:539   */\n      pop\n      jump\t// out\n        /* \"#utility.yul\":545:684   */\n    tag_51:\n        /* \"#utility.yul\":591:596   */\n      0x00\n        /* \"#utility.yul\":629:635   */\n      dup2\n        /* \"#utility.yul\":616:636   */\n      calldataload\n        /* \"#utility.yul\":607:636   */\n      swap1\n      pop\n        /* \"#utility.yul\":645:678   */\n      tag_69\n        /* \"#utility.yul\":672:677   */\n      dup2\n        /* \"#utility.yul\":645:678   */\n      tag_50\n      jump\t// in\n    tag_69:\n        /* \"#utility.yul\":545:684   */\n      swap3\n      swap2\n      pop\n      pop\n      jump\t// out\n        /* \"#utility.yul\":690:1019   */\n    tag_9:\n        /* \"#utility.yul\":749:755   */\n      0x00\n        /* \"#utility.yul\":798:800   */\n      0x20\n        /* \"#utility.yul\":786:795   */\n      dup3\n        /* \"#utility.yul\":777:784   */\n      dup5\n        /* \"#utility.yul\":773:796   */\n      sub\n        /* \"#utility.yul\":769:801   */\n      slt\n        /* \"#utility.yul\":766:885   */\n      iszero\n      tag_71\n      jumpi\n        /* \"#utility.yul\":804:883   */\n      tag_72\n      tag_47\n      jump\t// in\n    tag_72:\n        /* \"#utility.yul\":766:885   */\n    tag_71:\n        /* \"#utility.yul\":924:925   */\n      0x00\n        /* \"#utility.yul\":949:1002   */\n      tag_73\n        /* \"#utility.yul\":994:1001   */\n      dup5\n        /* \"#utility.yul\":985:991   */\n      dup3\n        /* \"#utility.yul\":974:983   */\n      dup6\n        /* \"#utility.yul\":970:992   */\n      add\n        /* \"#utility.yul\":949:1002   */\n      tag_51\n      jump\t// in\n    tag_73:\n        /* \"#utility.yul\":939:1002   */\n      swap2\n      pop\n        /* \"#utility.yul\":895:1012   */\n      pop\n        /* \"#utility.yul\":690:1019   */\n      swap3\n      swap2\n      pop\n      pop\n      jump\t// out\n        /* \"#utility.yul\":1025:1129   */\n    tag_52:\n        /* \"#utility.yul\":1090:1096   */\n      0x00\n        /* \"#utility.yul\":1118:1122   */\n      0x04\n        /* \"#utility.yul\":1108:1122   */\n      swap1\n      pop\n        /* \"#utility.yul\":1025:1129   */\n      swap2\n      swap1\n      pop\n      jump\t// out\n        /* \"#utility.yul\":1135:1278   */\n    tag_53:\n        /* \"#utility.yul\":1232:1243   */\n      0x00\n        /* \"#utility.yul\":1269:1272   */\n      dup2\n        /* \"#utility.yul\":1254:1272   */\n      swap1\n      pop\n        /* \"#utility.yul\":1135:1278   */\n      swap3\n      swap2\n      pop\n      pop\n      jump\t// out\n        /* \"#utility.yul\":1284:1382   */\n    tag_54:\n        /* \"#utility.yul\":1349:1353   */\n      0x00\n        /* \"#utility.yul\":1372:1375   */\n      dup2\n        /* \"#utility.yul\":1364:1375   */\n      swap1\n      pop\n        /* \"#utility.yul\":1284:1382   */\n      swap2\n      swap1\n      pop\n      jump\t// out\n        /* \"#utility.yul\":1388:1496   */\n    tag_55:\n        /* \"#utility.yul\":1465:1489   */\n      tag_78\n        /* \"#utility.yul\":1483:1488   */\n      dup2\n        /* \"#utility.yul\":1465:1489   */\n      tag_49\n      jump\t// in\n    tag_78:\n        /* \"#utility.yul\":1460:1463   */\n      dup3\n        /* \"#utility.yul\":1453:1490   */\n      mstore\n        /* \"#utility.yul\":1388:1496   */\n      pop\n      pop\n      jump\t// out\n        /* \"#utility.yul\":1502:1681   */\n    tag_56:\n        /* \"#utility.yul\":1571:1581   */\n      0x00\n        /* \"#utility.yul\":1592:1638   */\n      tag_80\n        /* \"#utility.yul\":1634:1637   */\n      dup4\n        /* \"#utility.yul\":1626:1632   */\n      dup4\n        /* \"#utility.yul\":1592:1638   */\n      tag_55\n      jump\t// in\n    tag_80:\n        /* \"#utility.yul\":1670:1674   */\n      0x20\n        /* \"#utility.yul\":1665:1668   */\n      dup4\n        /* \"#utility.yul\":1661:1675   */\n      add\n        /* \"#utility.yul\":1647:1675   */\n      swap1\n      pop\n        /* \"#utility.yul\":1502:1681   */\n      swap3\n      swap2\n      pop\n      pop\n      jump\t// out\n        /* \"#utility.yul\":1687:1798   */\n    tag_57:\n        /* \"#utility.yul\":1755:1759   */\n      0x00\n        /* \"#utility.yul\":1787:1791   */\n      0x20\n        /* \"#utility.yul\":1782:1785   */\n      dup3\n        /* \"#utility.yul\":1778:1792   */\n      add\n        /* \"#utility.yul\":1770:1792   */\n      swap1\n      pop\n        /* \"#utility.yul\":1687:1798   */\n      swap2\n      swap1\n      pop\n      jump\t// out\n        /* \"#utility.yul\":1836:2530   */\n    tag_58:\n        /* \"#utility.yul\":1972:2024   */\n      tag_83\n        /* \"#utility.yul\":2018:2023   */\n      dup2\n        /* \"#utility.yul\":1972:2024   */\n      tag_52\n      jump\t// in\n    tag_83:\n        /* \"#utility.yul\":2040:2124   */\n      tag_84\n        /* \"#utility.yul\":2117:2123   */\n      dup2\n        /* \"#utility.yul\":2112:2115   */\n      dup5\n        /* \"#utility.yul\":2040:2124   */\n      tag_53\n      jump\t// in\n    tag_84:\n        /* \"#utility.yul\":2033:2124   */\n      swap3\n      pop\n        /* \"#utility.yul\":2148:2202   */\n      tag_85\n        /* \"#utility.yul\":2196:2201   */\n      dup3\n        /* \"#utility.yul\":2148:2202   */\n      tag_54\n      jump\t// in\n    tag_85:\n        /* \"#utility.yul\":2225:2232   */\n      dup1\n        /* \"#utility.yul\":2256:2257   */\n      0x00\n        /* \"#utility.yul\":2241:2523   */\n    tag_86:\n        /* \"#utility.yul\":2266:2272   */\n      dup4\n        /* \"#utility.yul\":2263:2264   */\n      dup2\n        /* \"#utility.yul\":2260:2273   */\n      lt\n        /* \"#utility.yul\":2241:2523   */\n      iszero\n      tag_88\n      jumpi\n        /* \"#utility.yul\":2342:2348   */\n      dup2\n        /* \"#utility.yul\":2336:2349   */\n      mload\n        /* \"#utility.yul\":2369:2432   */\n      tag_89\n        /* \"#utility.yul\":2428:2431   */\n      dup8\n        /* \"#utility.yul\":2413:2426   */\n      dup3\n        /* \"#utility.yul\":2369:2432   */\n      tag_56\n      jump\t// in\n    tag_89:\n        /* \"#utility.yul\":2362:2432   */\n      swap7\n      pop\n        /* \"#utility.yul\":2455:2513   */\n      tag_90\n        /* \"#utility.yul\":2506:2512   */\n      dup4\n        /* \"#utility.yul\":2455:2513   */\n      tag_57\n      jump\t// in\n    tag_90:\n        /* \"#utility.yul\":2445:2513   */\n      swap3\n      pop\n        /* \"#utility.yul\":2301:2523   */\n      pop\n        /* \"#utility.yul\":2288:2289   */\n      0x01\n        /* \"#utility.yul\":2285:2286   */\n      dup2\n        /* \"#utility.yul\":2281:2290   */\n      add\n        /* \"#utility.yul\":2276:2290   */\n      swap1\n      pop\n        /* \"#utility.yul\":2241:2523   */\n      jump(tag_86)\n    tag_88:\n        /* \"#utility.yul\":2245:2259   */\n      pop\n        /* \"#utility.yul\":1948:2530   */\n      pop\n      pop\n      pop\n        /* \"#utility.yul\":1836:2530   */\n      pop\n      pop\n      jump\t// out\n        /* \"#utility.yul\":2536:2851   */\n    tag_16:\n        /* \"#utility.yul\":2675:2679   */\n      0x00\n        /* \"#utility.yul\":2713:2716   */\n      0x80\n        /* \"#utility.yul\":2702:2711   */\n      dup3\n        /* \"#utility.yul\":2698:2717   */\n      add\n        /* \"#utility.yul\":2690:2717   */\n      swap1\n      pop\n        /* \"#utility.yul\":2727:2844   */\n      tag_92\n        /* \"#utility.yul\":2841:2842   */\n      0x00\n        /* \"#utility.yul\":2830:2839   */\n      dup4\n        /* \"#utility.yul\":2826:2843   */\n      add\n        /* \"#utility.yul\":2817:2823   */\n      dup5\n        /* \"#utility.yul\":2727:2844   */\n      tag_58\n      jump\t// in\n    tag_92:\n        /* \"#utility.yul\":2536:2851   */\n      swap3\n      swap2\n      pop\n      pop\n      jump\t// out\n        /* \"#utility.yul\":2857:3037   */\n    tag_59:\n        /* \"#utility.yul\":2905:2982   */\n      0x4e487b7100000000000000000000000000000000000000000000000000000000\n        /* \"#utility.yul\":2902:2903   */\n      0x00\n        /* \"#utility.yul\":2895:2983   */\n      mstore\n        /* \"#utility.yul\":3002:3006   */\n      0x11\n        /* \"#utility.yul\":2999:3000   */\n      0x04\n        /* \"#utility.yul\":2992:3007   */\n      mstore\n        /* \"#utility.yul\":3026:3030   */\n      0x24\n        /* \"#utility.yul\":3023:3024   */\n      0x00\n        /* \"#utility.yul\":3016:3031   */\n      revert\n        /* \"#utility.yul\":3043:3276   */\n    tag_22:\n        /* \"#utility.yul\":3082:3085   */\n      0x00\n        /* \"#utility.yul\":3105:3129   */\n      tag_95\n        /* \"#utility.yul\":3123:3128   */\n      dup3\n        /* \"#utility.yul\":3105:3129   */\n      tag_49\n      jump\t// in\n    tag_95:\n        /* \"#utility.yul\":3096:3129   */\n      swap2\n      pop\n        /* \"#utility.yul\":3151:3217   */\n      0xffffffffffffffffffffffffffffffffffffffffffffffffffffffffffffffff\n        /* \"#utility.yul\":3144:3149   */\n      dup3\n        /* \"#utility.yul\":3141:3218   */\n      sub\n        /* \"#utility.yul\":3138:3241   */\n      tag_96\n      jumpi\n        /* \"#utility.yul\":3221:3239   */\n      tag_97\n      tag_59\n      jump\t// in\n    tag_97:\n        /* \"#utility.yul\":3138:3241   */\n    tag_96:\n        /* \"#utility.yul\":3268:3269   */\n      0x01\n        /* \"#utility.yul\":3261:3266   */\n      dup3\n        /* \"#utility.yul\":3257:3270   */\n      add\n        /* \"#utility.yul\":3250:3270   */\n      swap1\n      pop\n        /* \"#utility.yul\":3043:3276   */\n      swap2\n      swap1\n      pop\n      jump\t// out\n        /* \"#utility.yul\":3282:3462   */\n    tag_25:\n        /* \"#utility.yul\":3330:3407   */\n      0x4e487b7100000000000000000000000000000000000000000000000000000000\n        /* \"#utility.yul\":3327:3328   */\n      0x00\n        /* \"#utility.yul\":3320:3408   */\n      mstore\n        /* \"#utility.yul\":3427:3431   */\n      0x32\n        /* \"#utility.yul\":3424:3425   */\n      0x04\n        /* \"#utility.yul\":3417:3432   */\n      mstore\n        /* \"#utility.yul\":3451:3455   */\n      0x24\n        /* \"#utility.yul\":3448:3449   */\n      0x00\n        /* \"#utility.yul\":3441:3456   */\n      revert\n\n    auxdata: 0xa26469706673582212200b5543a81d7746d44246f68576d2541262d0471d7c9715b447b00409fe4d288964736f6c63430008190033\n}\n",
				"bytecode": {
					"linkReferences": {},
					"object": "6080604052348015600e575f80fd5b506103bd8061001c5f395ff3fe608060405234801561000f575f80fd5b506004361061004a575f3560e01c80632bfe18051461004e57806382a8181b1461006a578063d504ea1d14610074578063fb8333eb14610092575b5f80fd5b610068600480360381019061006391906101fd565b6100ae565b005b6100726100df565b005b61007c6100ed565b60405161008991906102cd565b60405180910390f35b6100ac60048036038101906100a791906101fd565b610137565b005b805f60045f8154809291906100c290610313565b91905055600481106100d7576100d661035a565b5b018190555050565b5f806100eb919061018c565b565b6100f56101a4565b5f60048060200260405190810160405280929190826004801561012d576020028201915b815481526020019060010190808311610119575b5050505050905090565b5f5b6004811015610188575f8082600481106101565761015561035a565b5b01540361017b57815f82600481106101715761017061035a565b5b0181905550610188565b8080600101915050610139565b5050565b505f81556001015f81556001015f81556001015f9055565b6040518060800160405280600490602082028036833780820191505090505090565b5f80fd5b5f819050919050565b6101dc816101ca565b81146101e6575f80fd5b50565b5f813590506101f7816101d3565b92915050565b5f60208284031215610212576102116101c6565b5b5f61021f848285016101e9565b91505092915050565b5f60049050919050565b5f81905092915050565b5f819050919050565b61024e816101ca565b82525050565b5f61025f8383610245565b60208301905092915050565b5f602082019050919050565b61028081610228565b61028a8184610232565b92506102958261023c565b805f5b838110156102c55781516102ac8782610254565b96506102b78361026b565b925050600181019050610298565b505050505050565b5f6080820190506102e05f830184610277565b92915050565b7f4e487b71000000000000000000000000000000000000000000000000000000005f52601160045260245ffd5b5f61031d826101ca565b91507fffffffffffffffffffffffffffffffffffffffffffffffffffffffffffffffff820361034f5761034e6102e6565b5b600182019050919050565b7f4e487b71000000000000000000000000000000000000000000000000000000005f52603260045260245ffdfea26469706673582212200b5543a81d7746d44246f68576d2541262d0471d7c9715b447b00409fe4d288964736f6c63430008190033",
					"opcodes": "PUSH1 0x80 PUSH1 0x40 MSTORE CALLVALUE DUP1 ISZERO PUSH1 0xE JUMPI PUSH0 DUP1 REVERT JUMPDEST POP PUSH2 0x3BD DUP1 PUSH2 0x1C PUSH0 CODECOPY PUSH0 RETURN INVALID PUSH1 0x80 PUSH1 0x40 MSTORE CALLVALUE DUP1 ISZERO PUSH2 0xF JUMPI PUSH0 DUP1 REVERT JUMPDEST POP PUSH1 0x4 CALLDATASIZE LT PUSH2 0x4A JUMPI PUSH0 CALLDATALOAD PUSH1 0xE0 SHR DUP1 PUSH4 0x2BFE1805 EQ PUSH2 0x4E JUMPI DUP1 PUSH4 0x82A8181B EQ PUSH2 0x6A JUMPI DUP1 PUSH4 0xD504EA1D EQ PUSH2 0x74 JUMPI DUP1 PUSH4 0xFB8333EB EQ PUSH2 0x92 JUMPI JUMPDEST PUSH0 DUP1 REVERT JUMPDEST PUSH2 0x68 PUSH1 0x4 DUP1 CALLDATASIZE SUB DUP2 ADD SWAP1 PUSH2 0x63 SWAP2 SWAP1 PUSH2 0x1FD JUMP JUMPDEST PUSH2 0xAE JUMP JUMPDEST STOP JUMPDEST PUSH2 0x72 PUSH2 0xDF JUMP JUMPDEST STOP JUMPDEST PUSH2 0x7C PUSH2 0xED JUMP JUMPDEST PUSH1 0x40 MLOAD PUSH2 0x89 SWAP2 SWAP1 PUSH2 0x2CD JUMP JUMPDEST PUSH1 0x40 MLOAD DUP1 SWAP2 SUB SWAP1 RETURN JUMPDEST PUSH2 0xAC PUSH1 0x4 DUP1 CALLDATASIZE SUB DUP2 ADD SWAP1 PUSH2 0xA7 SWAP2 SWAP1 PUSH2 0x1FD JUMP JUMPDEST PUSH2 0x137 JUMP JUMPDEST STOP JUMPDEST DUP1 PUSH0 PUSH1 0x4 PUSH0 DUP2 SLOAD DUP1 SWAP3 SWAP2 SWAP1 PUSH2 0xC2 SWAP1 PUSH2 0x313 JUMP JUMPDEST SWAP2 SWAP1 POP SSTORE PUSH1 0x4 DUP2 LT PUSH2 0xD7 JUMPI PUSH2 0xD6 PUSH2 0x35A JUMP JUMPDEST JUMPDEST ADD DUP2 SWAP1 SSTORE POP POP JUMP JUMPDEST PUSH0 DUP1 PUSH2 0xEB SWAP2 SWAP1 PUSH2 0x18C JUMP JUMPDEST JUMP JUMPDEST PUSH2 0xF5 PUSH2 0x1A4 JUMP JUMPDEST PUSH0 PUSH1 0x4 DUP1 PUSH1 0x20 MUL PUSH1 0x40 MLOAD SWAP1 DUP2 ADD PUSH1 0x40 MSTORE DUP1 SWAP3 SWAP2 SWAP1 DUP3 PUSH1 0x4 DUP1 ISZERO PUSH2 0x12D JUMPI PUSH1 0x20 MUL DUP3 ADD SWAP2 JUMPDEST DUP2 SLOAD DUP2 MSTORE PUSH1 0x20 ADD SWAP1 PUSH1 0x1 ADD SWAP1 DUP1 DUP4 GT PUSH2 0x119 JUMPI JUMPDEST POP POP POP POP POP SWAP1 POP SWAP1 JUMP JUMPDEST PUSH0 JUMPDEST PUSH1 0x4 DUP2 LT ISZERO PUSH2 0x188 JUMPI PUSH0 DUP1 DUP3 PUSH1 0x4 DUP2 LT PUSH2 0x156 JUMPI PUSH2 0x155 PUSH2 0x35A JUMP JUMPDEST JUMPDEST ADD SLOAD SUB PUSH2 0x17B JUMPI DUP2 PUSH0 DUP3 PUSH1 0x4 DUP2 LT PUSH2 0x171 JUMPI PUSH2 0x170 PUSH2 0x35A JUMP JUMPDEST JUMPDEST ADD DUP2 SWAP1 SSTORE POP PUSH2 0x188 JUMP JUMPDEST DUP1 DUP1 PUSH1 0x1 ADD SWAP2 POP POP PUSH2 0x139 JUMP JUMPDEST POP POP JUMP JUMPDEST POP PUSH0 DUP2 SSTORE PUSH1 0x1 ADD PUSH0 DUP2 SSTORE PUSH1 0x1 ADD PUSH0 DUP2 SSTORE PUSH1 0x1 ADD PUSH0 SWAP1 SSTORE JUMP JUMPDEST PUSH1 0x40 MLOAD DUP1 PUSH1 0x80 ADD PUSH1 0x40 MSTORE DUP1 PUSH1 0x4 SWAP1 PUSH1 0x20 DUP3 MUL DUP1 CALLDATASIZE DUP4 CALLDATACOPY DUP1 DUP3 ADD SWAP2 POP POP SWAP1 POP POP SWAP1 JUMP JUMPDEST PUSH0 DUP1 REVERT JUMPDEST PUSH0 DUP2 SWAP1 POP SWAP2 SWAP1 POP JUMP JUMPDEST PUSH2 0x1DC DUP2 PUSH2 0x1CA JUMP JUMPDEST DUP2 EQ PUSH2 0x1E6 JUMPI PUSH0 DUP1 REVERT JUMPDEST POP JUMP JUMPDEST PUSH0 DUP2 CALLDATALOAD SWAP1 POP PUSH2 0x1F7 DUP2 PUSH2 0x1D3 JUMP JUMPDEST SWAP3 SWAP2 POP POP JUMP JUMPDEST PUSH0 PUSH1 0x20 DUP3 DUP5 SUB SLT ISZERO PUSH2 0x212 JUMPI PUSH2 0x211 PUSH2 0x1C6 JUMP JUMPDEST JUMPDEST PUSH0 PUSH2 0x21F DUP5 DUP3 DUP6 ADD PUSH2 0x1E9 JUMP JUMPDEST SWAP2 POP POP SWAP3 SWAP2 POP POP JUMP JUMPDEST PUSH0 PUSH1 0x4 SWAP1 POP SWAP2 SWAP1 POP JUMP JUMPDEST PUSH0 DUP2 SWAP1 POP SWAP3 SWAP2 POP POP JUMP JUMPDEST PUSH0 DUP2 SWAP1 POP SWAP2 SWAP1 POP JUMP JUMPDEST PUSH2 0x24E DUP2 PUSH2 0x1CA JUMP JUMPDEST DUP3 MSTORE POP POP JUMP JUMPDEST PUSH0 PUSH2 0x25F DUP4 DUP4 PUSH2 0x245 JUMP JUMPDEST PUSH1 0x20 DUP4 ADD SWAP1 POP SWAP3 SWAP2 POP POP JUMP JUMPDEST PUSH0 PUSH1 0x20 DUP3 ADD SWAP1 POP SWAP2 SWAP1 POP JUMP JUMPDEST PUSH2 0x280 DUP2 PUSH2 0x228 JUMP JUMPDEST PUSH2 0x28A DUP2 DUP5 PUSH2 0x232 JUMP JUMPDEST SWAP3 POP PUSH2 0x295 DUP3 PUSH2 0x23C JUMP JUMPDEST DUP1 PUSH0 JUMPDEST DUP4 DUP2 LT ISZERO PUSH2 0x2C5 JUMPI DUP2 MLOAD PUSH2 0x2AC DUP8 DUP3 PUSH2 0x254 JUMP JUMPDEST SWAP7 POP PUSH2 0x2B7 DUP4 PUSH2 0x26B JUMP JUMPDEST SWAP3 POP POP PUSH1 0x1 DUP2 ADD SWAP1 POP PUSH2 0x298 JUMP JUMPDEST POP POP POP POP POP POP JUMP JUMPDEST PUSH0 PUSH1 0x80 DUP3 ADD SWAP1 POP PUSH2 0x2E0 PUSH0 DUP4 ADD DUP5 PUSH2 0x277 JUMP JUMPDEST SWAP3 SWAP2 POP POP JUMP JUMPDEST PUSH32 0x4E487B7100000000000000000000000000000000000000000000000000000000 PUSH0 MSTORE PUSH1 0x11 PUSH1 0x4 MSTORE PUSH1 0x24 PUSH0 REVERT JUMPDEST PUSH0 PUSH2 0x31D DUP3 PUSH2 0x1CA JUMP JUMPDEST SWAP2 POP PUSH32 0xFFFFFFFFFFFFFFFFFFFFFFFFFFFFFFFFFFFFFFFFFFFFFFFFFFFFFFFFFFFFFFFF DUP3 SUB PUSH2 0x34F JUMPI PUSH2 0x34E PUSH2 0x2E6 JUMP JUMPDEST JUMPDEST PUSH1 0x1 DUP3 ADD SWAP1 POP SWAP2 SWAP1 POP JUMP JUMPDEST PUSH32 0x4E487B7100000000000000000000000000000000000000000000000000000000 PUSH0 MSTORE PUSH1 0x32 PUSH1 0x4 MSTORE PUSH1 0x24 PUSH0 REVERT INVALID LOG2 PUSH5 0x6970667358 0x22 SLT KECCAK256 SIGNEXTEND SSTORE NUMBER 0xA8 SAR PUSH24 0x46D44246F68576D2541262D0471D7C9715B447B00409FE4D 0x28 DUP10 PUSH5 0x736F6C6343 STOP ADDMOD NOT STOP CALLER "
				},
				"gasEstimates": {
					"creation": {
						"codeDepositCost": "191400",
						"executionCost": "230",
						"totalCost": "191630"
					},
					"external": {
						"getArray()": "infinite",
						"initArray()": "20218",
						"pushNumber(uint256)": "infinite",
						"setArray(uint256)": "infinite"
					}
				},
				"methodIdentifiers": {
					"getArray()": "d504ea1d",
					"initArray()": "82a8181b",
					"pushNumber(uint256)": "2bfe1805",
					"setArray(uint256)": "fb8333eb"
				}
			},
			"storageLayout": {
				"storage": [
					{
						"astId": 1420,
						"contract": "solidity_100/41-50.sol:Q41",
						"label": "numArray",
						"offset": 0,
						"slot": "0",
						"type": "t_array(t_uint256)4_storage"
					},
					{
						"astId": 1471,
						"contract": "solidity_100/41-50.sol:Q41",
						"label": "idx",
						"offset": 0,
						"slot": "4",
						"type": "t_uint256"
					}
				],
				"types": {
					"t_array(t_uint256)4_storage": {
						"base": "t_uint256",
						"encoding": "inplace",
						"label": "uint256[4]",
						"numberOfBytes": "128"
					},
					"t_uint256": {
						"encoding": "inplace",
						"label": "uint256",
						"numberOfBytes": "32"
					}
				}
			},
			"userdoc": {
				"kind": "user",
				"methods": {},
				"version": 1
			}
		}
	}
}