{
	"solidity_100/61-70.sol": {
		"Q69": {
			"abi": [
				{
					"inputs": [
						{
							"internalType": "uint256",
							"name": "_a",
							"type": "uint256"
						},
						{
							"internalType": "uint256",
							"name": "_b",
							"type": "uint256"
						},
						{
							"internalType": "uint256",
							"name": "_c",
							"type": "uint256"
						}
					],
					"name": "returnString",
					"outputs": [
						{
							"internalType": "string",
							"name": "",
							"type": "string"
						}
					],
					"stateMutability": "pure",
					"type": "function"
				}
			],
			"devdoc": {
				"kind": "dev",
				"methods": {},
				"version": 1
			},
			"evm": {
				"assembly": "    /* \"solidity_100/61-70.sol\":4084:4432  contract Q69 {... */\n  mstore(0x40, 0x80)\n  callvalue\n  dup1\n  iszero\n  tag_1\n  jumpi\n  0x00\n  dup1\n  revert\ntag_1:\n  pop\n  dataSize(sub_0)\n  dup1\n  dataOffset(sub_0)\n  0x00\n  codecopy\n  0x00\n  return\nstop\n\nsub_0: assembly {\n        /* \"solidity_100/61-70.sol\":4084:4432  contract Q69 {... */\n      mstore(0x40, 0x80)\n      callvalue\n      dup1\n      iszero\n      tag_1\n      jumpi\n      0x00\n      dup1\n      revert\n    tag_1:\n      pop\n      jumpi(tag_2, lt(calldatasize, 0x04))\n      shr(0xe0, calldataload(0x00))\n      dup1\n      0x0a1335c1\n      eq\n      tag_3\n      jumpi\n    tag_2:\n      0x00\n      dup1\n      revert\n        /* \"solidity_100/61-70.sol\":4216:4429  function returnString(uint _a, uint _b, uint _c) public pure returns(string memory) {... */\n    tag_3:\n      tag_4\n      0x04\n      dup1\n      calldatasize\n      sub\n      dup2\n      add\n      swap1\n      tag_5\n      swap2\n      swap1\n      tag_6\n      jump\t// in\n    tag_5:\n      tag_7\n      jump\t// in\n    tag_4:\n      mload(0x40)\n      tag_8\n      swap2\n      swap1\n      tag_9\n      jump\t// in\n    tag_8:\n      mload(0x40)\n      dup1\n      swap2\n      sub\n      swap1\n      return\n    tag_7:\n        /* \"solidity_100/61-70.sol\":4285:4298  string memory */\n      0x60\n        /* \"solidity_100/61-70.sol\":4342:4362  Strings.toString(_a) */\n      tag_11\n        /* \"solidity_100/61-70.sol\":4359:4361  _a */\n      dup5\n        /* \"solidity_100/61-70.sol\":4342:4358  Strings.toString */\n      tag_12\n        /* \"solidity_100/61-70.sol\":4342:4362  Strings.toString(_a) */\n      jump\t// in\n    tag_11:\n        /* \"solidity_100/61-70.sol\":4371:4391  Strings.toString(_b) */\n      tag_13\n        /* \"solidity_100/61-70.sol\":4388:4390  _b */\n      dup5\n        /* \"solidity_100/61-70.sol\":4371:4387  Strings.toString */\n      tag_12\n        /* \"solidity_100/61-70.sol\":4371:4391  Strings.toString(_b) */\n      jump\t// in\n    tag_13:\n        /* \"solidity_100/61-70.sol\":4399:4419  Strings.toString(_c) */\n      tag_14\n        /* \"solidity_100/61-70.sol\":4416:4418  _c */\n      dup5\n        /* \"solidity_100/61-70.sol\":4399:4415  Strings.toString */\n      tag_12\n        /* \"solidity_100/61-70.sol\":4399:4419  Strings.toString(_c) */\n      jump\t// in\n    tag_14:\n        /* \"solidity_100/61-70.sol\":4325:4420  abi.encodePacked(Strings.toString(_a),\" and \",Strings.toString(_b),\" or \",Strings.toString(_c)) */\n      add(0x20, mload(0x40))\n      tag_15\n      swap4\n      swap3\n      swap2\n      swap1\n      tag_16\n      jump\t// in\n    tag_15:\n      mload(0x40)\n      0x20\n      dup2\n      dup4\n      sub\n      sub\n      dup2\n      mstore\n      swap1\n      0x40\n      mstore\n        /* \"solidity_100/61-70.sol\":4311:4421  return string(abi.encodePacked(Strings.toString(_a),\" and \",Strings.toString(_b),\" or \",Strings.toString(_c))) */\n      swap1\n      pop\n        /* \"solidity_100/61-70.sol\":4216:4429  function returnString(uint _a, uint _b, uint _c) public pure returns(string memory) {... */\n      swap4\n      swap3\n      pop\n      pop\n      pop\n      jump\t// out\n        /* \"@openzeppelin/contracts/utils/Strings.sol\":637:1335  function toString(uint256 value) internal pure returns (string memory) {... */\n    tag_12:\n        /* \"@openzeppelin/contracts/utils/Strings.sol\":693:706  string memory */\n      0x60\n        /* \"@openzeppelin/contracts/utils/Strings.sol\":742:756  uint256 length */\n      0x00\n        /* \"@openzeppelin/contracts/utils/Strings.sol\":779:780  1 */\n      0x01\n        /* \"@openzeppelin/contracts/utils/Strings.sol\":759:776  Math.log10(value) */\n      tag_18\n        /* \"@openzeppelin/contracts/utils/Strings.sol\":770:775  value */\n      dup5\n        /* \"@openzeppelin/contracts/utils/Strings.sol\":759:769  Math.log10 */\n      tag_19\n        /* \"@openzeppelin/contracts/utils/Strings.sol\":759:776  Math.log10(value) */\n      jump\t// in\n    tag_18:\n        /* \"@openzeppelin/contracts/utils/Strings.sol\":759:780  Math.log10(value) + 1 */\n      add\n        /* \"@openzeppelin/contracts/utils/Strings.sol\":742:780  uint256 length = Math.log10(value) + 1 */\n      swap1\n      pop\n        /* \"@openzeppelin/contracts/utils/Strings.sol\":794:814  string memory buffer */\n      0x00\n        /* \"@openzeppelin/contracts/utils/Strings.sol\":828:834  length */\n      dup2\n        /* \"@openzeppelin/contracts/utils/Strings.sol\":817:835  new string(length) */\n      0xffffffffffffffff\n      dup2\n      gt\n      iszero\n      tag_20\n      jumpi\n      tag_21\n      tag_22\n      jump\t// in\n    tag_21:\n    tag_20:\n      mload(0x40)\n      swap1\n      dup1\n      dup3\n      mstore\n      dup1\n      0x1f\n      add\n      not(0x1f)\n      and\n      0x20\n      add\n      dup3\n      add\n      0x40\n      mstore\n      dup1\n      iszero\n      tag_23\n      jumpi\n      dup2\n      0x20\n      add\n      0x01\n      dup3\n      mul\n      dup1\n      calldatasize\n      dup4\n      calldatacopy\n      dup1\n      dup3\n      add\n      swap2\n      pop\n      pop\n      swap1\n      pop\n    tag_23:\n      pop\n        /* \"@openzeppelin/contracts/utils/Strings.sol\":794:835  string memory buffer = new string(length) */\n      swap1\n      pop\n        /* \"@openzeppelin/contracts/utils/Strings.sol\":849:860  uint256 ptr */\n      0x00\n        /* \"@openzeppelin/contracts/utils/Strings.sol\":975:981  length */\n      dup3\n        /* \"@openzeppelin/contracts/utils/Strings.sol\":971:973  32 */\n      0x20\n        /* \"@openzeppelin/contracts/utils/Strings.sol\":967:982  add(32, length) */\n      add\n        /* \"@openzeppelin/contracts/utils/Strings.sol\":959:965  buffer */\n      dup3\n        /* \"@openzeppelin/contracts/utils/Strings.sol\":955:983  add(buffer, add(32, length)) */\n      add\n        /* \"@openzeppelin/contracts/utils/Strings.sol\":948:983  ptr := add(buffer, add(32, length)) */\n      swap1\n      pop\n        /* \"@openzeppelin/contracts/utils/Strings.sol\":1010:1292  while (true) {... */\n    tag_24:\n        /* \"@openzeppelin/contracts/utils/Strings.sol\":1017:1021  true */\n      0x01\n        /* \"@openzeppelin/contracts/utils/Strings.sol\":1010:1292  while (true) {... */\n      iszero\n      tag_25\n      jumpi\n        /* \"@openzeppelin/contracts/utils/Strings.sol\":1041:1046  ptr-- */\n      dup1\n      dup1\n      0x01\n      swap1\n      sub\n      swap2\n      pop\n      pop\n        /* \"@openzeppelin/contracts/utils/Strings.sol\":1180:1190  HEX_DIGITS */\n      0x3031323334353637383961626364656600000000000000000000000000000000\n        /* \"@openzeppelin/contracts/utils/Strings.sol\":1175:1177  10 */\n      0x0a\n        /* \"@openzeppelin/contracts/utils/Strings.sol\":1168:1173  value */\n      dup7\n        /* \"@openzeppelin/contracts/utils/Strings.sol\":1164:1178  mod(value, 10) */\n      mod\n        /* \"@openzeppelin/contracts/utils/Strings.sol\":1159:1191  byte(mod(value, 10), HEX_DIGITS) */\n      byte\n        /* \"@openzeppelin/contracts/utils/Strings.sol\":1154:1157  ptr */\n      dup2\n        /* \"@openzeppelin/contracts/utils/Strings.sol\":1146:1192  mstore8(ptr, byte(mod(value, 10), HEX_DIGITS)) */\n      mstore8\n        /* \"@openzeppelin/contracts/utils/Strings.sol\":1236:1238  10 */\n      0x0a\n        /* \"@openzeppelin/contracts/utils/Strings.sol\":1227:1238  value /= 10 */\n      dup6\n      dup2\n      tag_26\n      jumpi\n      tag_27\n      tag_28\n      jump\t// in\n    tag_27:\n    tag_26:\n      div\n      swap5\n      pop\n        /* \"@openzeppelin/contracts/utils/Strings.sol\":1269:1270  0 */\n      0x00\n        /* \"@openzeppelin/contracts/utils/Strings.sol\":1260:1265  value */\n      dup6\n        /* \"@openzeppelin/contracts/utils/Strings.sol\":1260:1270  value == 0 */\n      sub\n        /* \"@openzeppelin/contracts/utils/Strings.sol\":1010:1292  while (true) {... */\n      tag_24\n        /* \"@openzeppelin/contracts/utils/Strings.sol\":1256:1277  if (value == 0) break */\n      jumpi\n        /* \"@openzeppelin/contracts/utils/Strings.sol\":1010:1292  while (true) {... */\n    tag_25:\n        /* \"@openzeppelin/contracts/utils/Strings.sol\":1312:1318  buffer */\n      dup2\n        /* \"@openzeppelin/contracts/utils/Strings.sol\":1305:1318  return buffer */\n      swap4\n      pop\n      pop\n      pop\n      pop\n        /* \"@openzeppelin/contracts/utils/Strings.sol\":637:1335  function toString(uint256 value) internal pure returns (string memory) {... */\n      swap2\n      swap1\n      pop\n      jump\t// out\n        /* \"@openzeppelin/contracts/utils/math/Math.sol\":12214:13130  function log10(uint256 value) internal pure returns (uint256) {... */\n    tag_19:\n        /* \"@openzeppelin/contracts/utils/math/Math.sol\":12267:12274  uint256 */\n      0x00\n        /* \"@openzeppelin/contracts/utils/math/Math.sol\":12286:12300  uint256 result */\n      dup1\n        /* \"@openzeppelin/contracts/utils/math/Math.sol\":12303:12304  0 */\n      0x00\n        /* \"@openzeppelin/contracts/utils/math/Math.sol\":12286:12304  uint256 result = 0 */\n      swap1\n      pop\n        /* \"@openzeppelin/contracts/utils/math/Math.sol\":12351:12359  10 ** 64 */\n      0x184f03e93ff9f4daa797ed6e38ed64bf6a1f010000000000000000\n        /* \"@openzeppelin/contracts/utils/math/Math.sol\":12342:12347  value */\n      dup4\n        /* \"@openzeppelin/contracts/utils/math/Math.sol\":12342:12359  value >= 10 ** 64 */\n      lt\n        /* \"@openzeppelin/contracts/utils/math/Math.sol\":12338:12441  if (value >= 10 ** 64) {... */\n      tag_31\n      jumpi\n        /* \"@openzeppelin/contracts/utils/math/Math.sol\":12388:12396  10 ** 64 */\n      0x184f03e93ff9f4daa797ed6e38ed64bf6a1f010000000000000000\n        /* \"@openzeppelin/contracts/utils/math/Math.sol\":12379:12396  value /= 10 ** 64 */\n      dup4\n      dup2\n      tag_32\n      jumpi\n      tag_33\n      tag_28\n      jump\t// in\n    tag_33:\n    tag_32:\n      div\n      swap3\n      pop\n        /* \"@openzeppelin/contracts/utils/math/Math.sol\":12424:12426  64 */\n      0x40\n        /* \"@openzeppelin/contracts/utils/math/Math.sol\":12414:12426  result += 64 */\n      dup2\n      add\n      swap1\n      pop\n        /* \"@openzeppelin/contracts/utils/math/Math.sol\":12338:12441  if (value >= 10 ** 64) {... */\n    tag_31:\n        /* \"@openzeppelin/contracts/utils/math/Math.sol\":12467:12475  10 ** 32 */\n      0x04ee2d6d415b85acef8100000000\n        /* \"@openzeppelin/contracts/utils/math/Math.sol\":12458:12463  value */\n      dup4\n        /* \"@openzeppelin/contracts/utils/math/Math.sol\":12458:12475  value >= 10 ** 32 */\n      lt\n        /* \"@openzeppelin/contracts/utils/math/Math.sol\":12454:12557  if (value >= 10 ** 32) {... */\n      tag_34\n      jumpi\n        /* \"@openzeppelin/contracts/utils/math/Math.sol\":12504:12512  10 ** 32 */\n      0x04ee2d6d415b85acef8100000000\n        /* \"@openzeppelin/contracts/utils/math/Math.sol\":12495:12512  value /= 10 ** 32 */\n      dup4\n      dup2\n      tag_35\n      jumpi\n      tag_36\n      tag_28\n      jump\t// in\n    tag_36:\n    tag_35:\n      div\n      swap3\n      pop\n        /* \"@openzeppelin/contracts/utils/math/Math.sol\":12540:12542  32 */\n      0x20\n        /* \"@openzeppelin/contracts/utils/math/Math.sol\":12530:12542  result += 32 */\n      dup2\n      add\n      swap1\n      pop\n        /* \"@openzeppelin/contracts/utils/math/Math.sol\":12454:12557  if (value >= 10 ** 32) {... */\n    tag_34:\n        /* \"@openzeppelin/contracts/utils/math/Math.sol\":12583:12591  10 ** 16 */\n      0x2386f26fc10000\n        /* \"@openzeppelin/contracts/utils/math/Math.sol\":12574:12579  value */\n      dup4\n        /* \"@openzeppelin/contracts/utils/math/Math.sol\":12574:12591  value >= 10 ** 16 */\n      lt\n        /* \"@openzeppelin/contracts/utils/math/Math.sol\":12570:12673  if (value >= 10 ** 16) {... */\n      tag_37\n      jumpi\n        /* \"@openzeppelin/contracts/utils/math/Math.sol\":12620:12628  10 ** 16 */\n      0x2386f26fc10000\n        /* \"@openzeppelin/contracts/utils/math/Math.sol\":12611:12628  value /= 10 ** 16 */\n      dup4\n      dup2\n      tag_38\n      jumpi\n      tag_39\n      tag_28\n      jump\t// in\n    tag_39:\n    tag_38:\n      div\n      swap3\n      pop\n        /* \"@openzeppelin/contracts/utils/math/Math.sol\":12656:12658  16 */\n      0x10\n        /* \"@openzeppelin/contracts/utils/math/Math.sol\":12646:12658  result += 16 */\n      dup2\n      add\n      swap1\n      pop\n        /* \"@openzeppelin/contracts/utils/math/Math.sol\":12570:12673  if (value >= 10 ** 16) {... */\n    tag_37:\n        /* \"@openzeppelin/contracts/utils/math/Math.sol\":12699:12706  10 ** 8 */\n      0x05f5e100\n        /* \"@openzeppelin/contracts/utils/math/Math.sol\":12690:12695  value */\n      dup4\n        /* \"@openzeppelin/contracts/utils/math/Math.sol\":12690:12706  value >= 10 ** 8 */\n      lt\n        /* \"@openzeppelin/contracts/utils/math/Math.sol\":12686:12786  if (value >= 10 ** 8) {... */\n      tag_40\n      jumpi\n        /* \"@openzeppelin/contracts/utils/math/Math.sol\":12735:12742  10 ** 8 */\n      0x05f5e100\n        /* \"@openzeppelin/contracts/utils/math/Math.sol\":12726:12742  value /= 10 ** 8 */\n      dup4\n      dup2\n      tag_41\n      jumpi\n      tag_42\n      tag_28\n      jump\t// in\n    tag_42:\n    tag_41:\n      div\n      swap3\n      pop\n        /* \"@openzeppelin/contracts/utils/math/Math.sol\":12770:12771  8 */\n      0x08\n        /* \"@openzeppelin/contracts/utils/math/Math.sol\":12760:12771  result += 8 */\n      dup2\n      add\n      swap1\n      pop\n        /* \"@openzeppelin/contracts/utils/math/Math.sol\":12686:12786  if (value >= 10 ** 8) {... */\n    tag_40:\n        /* \"@openzeppelin/contracts/utils/math/Math.sol\":12812:12819  10 ** 4 */\n      0x2710\n        /* \"@openzeppelin/contracts/utils/math/Math.sol\":12803:12808  value */\n      dup4\n        /* \"@openzeppelin/contracts/utils/math/Math.sol\":12803:12819  value >= 10 ** 4 */\n      lt\n        /* \"@openzeppelin/contracts/utils/math/Math.sol\":12799:12899  if (value >= 10 ** 4) {... */\n      tag_43\n      jumpi\n        /* \"@openzeppelin/contracts/utils/math/Math.sol\":12848:12855  10 ** 4 */\n      0x2710\n        /* \"@openzeppelin/contracts/utils/math/Math.sol\":12839:12855  value /= 10 ** 4 */\n      dup4\n      dup2\n      tag_44\n      jumpi\n      tag_45\n      tag_28\n      jump\t// in\n    tag_45:\n    tag_44:\n      div\n      swap3\n      pop\n        /* \"@openzeppelin/contracts/utils/math/Math.sol\":12883:12884  4 */\n      0x04\n        /* \"@openzeppelin/contracts/utils/math/Math.sol\":12873:12884  result += 4 */\n      dup2\n      add\n      swap1\n      pop\n        /* \"@openzeppelin/contracts/utils/math/Math.sol\":12799:12899  if (value >= 10 ** 4) {... */\n    tag_43:\n        /* \"@openzeppelin/contracts/utils/math/Math.sol\":12925:12932  10 ** 2 */\n      0x64\n        /* \"@openzeppelin/contracts/utils/math/Math.sol\":12916:12921  value */\n      dup4\n        /* \"@openzeppelin/contracts/utils/math/Math.sol\":12916:12932  value >= 10 ** 2 */\n      lt\n        /* \"@openzeppelin/contracts/utils/math/Math.sol\":12912:13012  if (value >= 10 ** 2) {... */\n      tag_46\n      jumpi\n        /* \"@openzeppelin/contracts/utils/math/Math.sol\":12961:12968  10 ** 2 */\n      0x64\n        /* \"@openzeppelin/contracts/utils/math/Math.sol\":12952:12968  value /= 10 ** 2 */\n      dup4\n      dup2\n      tag_47\n      jumpi\n      tag_48\n      tag_28\n      jump\t// in\n    tag_48:\n    tag_47:\n      div\n      swap3\n      pop\n        /* \"@openzeppelin/contracts/utils/math/Math.sol\":12996:12997  2 */\n      0x02\n        /* \"@openzeppelin/contracts/utils/math/Math.sol\":12986:12997  result += 2 */\n      dup2\n      add\n      swap1\n      pop\n        /* \"@openzeppelin/contracts/utils/math/Math.sol\":12912:13012  if (value >= 10 ** 2) {... */\n    tag_46:\n        /* \"@openzeppelin/contracts/utils/math/Math.sol\":13038:13045  10 ** 1 */\n      0x0a\n        /* \"@openzeppelin/contracts/utils/math/Math.sol\":13029:13034  value */\n      dup4\n        /* \"@openzeppelin/contracts/utils/math/Math.sol\":13029:13045  value >= 10 ** 1 */\n      lt\n        /* \"@openzeppelin/contracts/utils/math/Math.sol\":13025:13091  if (value >= 10 ** 1) {... */\n      tag_49\n      jumpi\n        /* \"@openzeppelin/contracts/utils/math/Math.sol\":13075:13076  1 */\n      0x01\n        /* \"@openzeppelin/contracts/utils/math/Math.sol\":13065:13076  result += 1 */\n      dup2\n      add\n      swap1\n      pop\n        /* \"@openzeppelin/contracts/utils/math/Math.sol\":13025:13091  if (value >= 10 ** 1) {... */\n    tag_49:\n        /* \"@openzeppelin/contracts/utils/math/Math.sol\":13117:13123  result */\n      dup1\n        /* \"@openzeppelin/contracts/utils/math/Math.sol\":13110:13123  return result */\n      swap2\n      pop\n      pop\n        /* \"@openzeppelin/contracts/utils/math/Math.sol\":12214:13130  function log10(uint256 value) internal pure returns (uint256) {... */\n      swap2\n      swap1\n      pop\n      jump\t// out\n        /* \"#utility.yul\":88:205   */\n    tag_51:\n        /* \"#utility.yul\":197:198   */\n      0x00\n        /* \"#utility.yul\":194:195   */\n      dup1\n        /* \"#utility.yul\":187:199   */\n      revert\n        /* \"#utility.yul\":334:411   */\n    tag_53:\n        /* \"#utility.yul\":371:378   */\n      0x00\n        /* \"#utility.yul\":400:405   */\n      dup2\n        /* \"#utility.yul\":389:405   */\n      swap1\n      pop\n        /* \"#utility.yul\":334:411   */\n      swap2\n      swap1\n      pop\n      jump\t// out\n        /* \"#utility.yul\":417:539   */\n    tag_54:\n        /* \"#utility.yul\":490:514   */\n      tag_73\n        /* \"#utility.yul\":508:513   */\n      dup2\n        /* \"#utility.yul\":490:514   */\n      tag_53\n      jump\t// in\n    tag_73:\n        /* \"#utility.yul\":483:488   */\n      dup2\n        /* \"#utility.yul\":480:515   */\n      eq\n        /* \"#utility.yul\":470:533   */\n      tag_74\n      jumpi\n        /* \"#utility.yul\":529:530   */\n      0x00\n        /* \"#utility.yul\":526:527   */\n      dup1\n        /* \"#utility.yul\":519:531   */\n      revert\n        /* \"#utility.yul\":470:533   */\n    tag_74:\n        /* \"#utility.yul\":417:539   */\n      pop\n      jump\t// out\n        /* \"#utility.yul\":545:684   */\n    tag_55:\n        /* \"#utility.yul\":591:596   */\n      0x00\n        /* \"#utility.yul\":629:635   */\n      dup2\n        /* \"#utility.yul\":616:636   */\n      calldataload\n        /* \"#utility.yul\":607:636   */\n      swap1\n      pop\n        /* \"#utility.yul\":645:678   */\n      tag_76\n        /* \"#utility.yul\":672:677   */\n      dup2\n        /* \"#utility.yul\":645:678   */\n      tag_54\n      jump\t// in\n    tag_76:\n        /* \"#utility.yul\":545:684   */\n      swap3\n      swap2\n      pop\n      pop\n      jump\t// out\n        /* \"#utility.yul\":690:1309   */\n    tag_6:\n        /* \"#utility.yul\":767:773   */\n      0x00\n        /* \"#utility.yul\":775:781   */\n      dup1\n        /* \"#utility.yul\":783:789   */\n      0x00\n        /* \"#utility.yul\":832:834   */\n      0x60\n        /* \"#utility.yul\":820:829   */\n      dup5\n        /* \"#utility.yul\":811:818   */\n      dup7\n        /* \"#utility.yul\":807:830   */\n      sub\n        /* \"#utility.yul\":803:835   */\n      slt\n        /* \"#utility.yul\":800:919   */\n      iszero\n      tag_78\n      jumpi\n        /* \"#utility.yul\":838:917   */\n      tag_79\n      tag_51\n      jump\t// in\n    tag_79:\n        /* \"#utility.yul\":800:919   */\n    tag_78:\n        /* \"#utility.yul\":958:959   */\n      0x00\n        /* \"#utility.yul\":983:1036   */\n      tag_80\n        /* \"#utility.yul\":1028:1035   */\n      dup7\n        /* \"#utility.yul\":1019:1025   */\n      dup3\n        /* \"#utility.yul\":1008:1017   */\n      dup8\n        /* \"#utility.yul\":1004:1026   */\n      add\n        /* \"#utility.yul\":983:1036   */\n      tag_55\n      jump\t// in\n    tag_80:\n        /* \"#utility.yul\":973:1036   */\n      swap4\n      pop\n        /* \"#utility.yul\":929:1046   */\n      pop\n        /* \"#utility.yul\":1085:1087   */\n      0x20\n        /* \"#utility.yul\":1111:1164   */\n      tag_81\n        /* \"#utility.yul\":1156:1163   */\n      dup7\n        /* \"#utility.yul\":1147:1153   */\n      dup3\n        /* \"#utility.yul\":1136:1145   */\n      dup8\n        /* \"#utility.yul\":1132:1154   */\n      add\n        /* \"#utility.yul\":1111:1164   */\n      tag_55\n      jump\t// in\n    tag_81:\n        /* \"#utility.yul\":1101:1164   */\n      swap3\n      pop\n        /* \"#utility.yul\":1056:1174   */\n      pop\n        /* \"#utility.yul\":1213:1215   */\n      0x40\n        /* \"#utility.yul\":1239:1292   */\n      tag_82\n        /* \"#utility.yul\":1284:1291   */\n      dup7\n        /* \"#utility.yul\":1275:1281   */\n      dup3\n        /* \"#utility.yul\":1264:1273   */\n      dup8\n        /* \"#utility.yul\":1260:1282   */\n      add\n        /* \"#utility.yul\":1239:1292   */\n      tag_55\n      jump\t// in\n    tag_82:\n        /* \"#utility.yul\":1229:1292   */\n      swap2\n      pop\n        /* \"#utility.yul\":1184:1302   */\n      pop\n        /* \"#utility.yul\":690:1309   */\n      swap3\n      pop\n      swap3\n      pop\n      swap3\n      jump\t// out\n        /* \"#utility.yul\":1315:1414   */\n    tag_56:\n        /* \"#utility.yul\":1367:1373   */\n      0x00\n        /* \"#utility.yul\":1401:1406   */\n      dup2\n        /* \"#utility.yul\":1395:1407   */\n      mload\n        /* \"#utility.yul\":1385:1407   */\n      swap1\n      pop\n        /* \"#utility.yul\":1315:1414   */\n      swap2\n      swap1\n      pop\n      jump\t// out\n        /* \"#utility.yul\":1420:1589   */\n    tag_57:\n        /* \"#utility.yul\":1504:1515   */\n      0x00\n        /* \"#utility.yul\":1538:1544   */\n      dup3\n        /* \"#utility.yul\":1533:1536   */\n      dup3\n        /* \"#utility.yul\":1526:1545   */\n      mstore\n        /* \"#utility.yul\":1578:1582   */\n      0x20\n        /* \"#utility.yul\":1573:1576   */\n      dup3\n        /* \"#utility.yul\":1569:1583   */\n      add\n        /* \"#utility.yul\":1554:1583   */\n      swap1\n      pop\n        /* \"#utility.yul\":1420:1589   */\n      swap3\n      swap2\n      pop\n      pop\n      jump\t// out\n        /* \"#utility.yul\":1595:1734   */\n    tag_58:\n        /* \"#utility.yul\":1684:1690   */\n      dup3\n        /* \"#utility.yul\":1679:1682   */\n      dup2\n        /* \"#utility.yul\":1674:1677   */\n      dup4\n        /* \"#utility.yul\":1668:1691   */\n      mcopy\n        /* \"#utility.yul\":1725:1726   */\n      0x00\n        /* \"#utility.yul\":1716:1722   */\n      dup4\n        /* \"#utility.yul\":1711:1714   */\n      dup4\n        /* \"#utility.yul\":1707:1723   */\n      add\n        /* \"#utility.yul\":1700:1727   */\n      mstore\n        /* \"#utility.yul\":1595:1734   */\n      pop\n      pop\n      pop\n      jump\t// out\n        /* \"#utility.yul\":1740:1842   */\n    tag_59:\n        /* \"#utility.yul\":1781:1787   */\n      0x00\n        /* \"#utility.yul\":1832:1834   */\n      0x1f\n        /* \"#utility.yul\":1828:1835   */\n      not\n        /* \"#utility.yul\":1823:1825   */\n      0x1f\n        /* \"#utility.yul\":1816:1821   */\n      dup4\n        /* \"#utility.yul\":1812:1826   */\n      add\n        /* \"#utility.yul\":1808:1836   */\n      and\n        /* \"#utility.yul\":1798:1836   */\n      swap1\n      pop\n        /* \"#utility.yul\":1740:1842   */\n      swap2\n      swap1\n      pop\n      jump\t// out\n        /* \"#utility.yul\":1848:2225   */\n    tag_60:\n        /* \"#utility.yul\":1936:1939   */\n      0x00\n        /* \"#utility.yul\":1964:2003   */\n      tag_88\n        /* \"#utility.yul\":1997:2002   */\n      dup3\n        /* \"#utility.yul\":1964:2003   */\n      tag_56\n      jump\t// in\n    tag_88:\n        /* \"#utility.yul\":2019:2090   */\n      tag_89\n        /* \"#utility.yul\":2083:2089   */\n      dup2\n        /* \"#utility.yul\":2078:2081   */\n      dup6\n        /* \"#utility.yul\":2019:2090   */\n      tag_57\n      jump\t// in\n    tag_89:\n        /* \"#utility.yul\":2012:2090   */\n      swap4\n      pop\n        /* \"#utility.yul\":2099:2164   */\n      tag_90\n        /* \"#utility.yul\":2157:2163   */\n      dup2\n        /* \"#utility.yul\":2152:2155   */\n      dup6\n        /* \"#utility.yul\":2145:2149   */\n      0x20\n        /* \"#utility.yul\":2138:2143   */\n      dup7\n        /* \"#utility.yul\":2134:2150   */\n      add\n        /* \"#utility.yul\":2099:2164   */\n      tag_58\n      jump\t// in\n    tag_90:\n        /* \"#utility.yul\":2189:2218   */\n      tag_91\n        /* \"#utility.yul\":2211:2217   */\n      dup2\n        /* \"#utility.yul\":2189:2218   */\n      tag_59\n      jump\t// in\n    tag_91:\n        /* \"#utility.yul\":2184:2187   */\n      dup5\n        /* \"#utility.yul\":2180:2219   */\n      add\n        /* \"#utility.yul\":2173:2219   */\n      swap2\n      pop\n        /* \"#utility.yul\":1940:2225   */\n      pop\n        /* \"#utility.yul\":1848:2225   */\n      swap3\n      swap2\n      pop\n      pop\n      jump\t// out\n        /* \"#utility.yul\":2231:2544   */\n    tag_9:\n        /* \"#utility.yul\":2344:2348   */\n      0x00\n        /* \"#utility.yul\":2382:2384   */\n      0x20\n        /* \"#utility.yul\":2371:2380   */\n      dup3\n        /* \"#utility.yul\":2367:2385   */\n      add\n        /* \"#utility.yul\":2359:2385   */\n      swap1\n      pop\n        /* \"#utility.yul\":2431:2440   */\n      dup2\n        /* \"#utility.yul\":2425:2429   */\n      dup2\n        /* \"#utility.yul\":2421:2441   */\n      sub\n        /* \"#utility.yul\":2417:2418   */\n      0x00\n        /* \"#utility.yul\":2406:2415   */\n      dup4\n        /* \"#utility.yul\":2402:2419   */\n      add\n        /* \"#utility.yul\":2395:2442   */\n      mstore\n        /* \"#utility.yul\":2459:2537   */\n      tag_93\n        /* \"#utility.yul\":2532:2536   */\n      dup2\n        /* \"#utility.yul\":2523:2529   */\n      dup5\n        /* \"#utility.yul\":2459:2537   */\n      tag_60\n      jump\t// in\n    tag_93:\n        /* \"#utility.yul\":2451:2537   */\n      swap1\n      pop\n        /* \"#utility.yul\":2231:2544   */\n      swap3\n      swap2\n      pop\n      pop\n      jump\t// out\n        /* \"#utility.yul\":2550:2698   */\n    tag_61:\n        /* \"#utility.yul\":2652:2663   */\n      0x00\n        /* \"#utility.yul\":2689:2692   */\n      dup2\n        /* \"#utility.yul\":2674:2692   */\n      swap1\n      pop\n        /* \"#utility.yul\":2550:2698   */\n      swap3\n      swap2\n      pop\n      pop\n      jump\t// out\n        /* \"#utility.yul\":2704:3094   */\n    tag_62:\n        /* \"#utility.yul\":2810:2813   */\n      0x00\n        /* \"#utility.yul\":2838:2877   */\n      tag_96\n        /* \"#utility.yul\":2871:2876   */\n      dup3\n        /* \"#utility.yul\":2838:2877   */\n      tag_56\n      jump\t// in\n    tag_96:\n        /* \"#utility.yul\":2893:2982   */\n      tag_97\n        /* \"#utility.yul\":2975:2981   */\n      dup2\n        /* \"#utility.yul\":2970:2973   */\n      dup6\n        /* \"#utility.yul\":2893:2982   */\n      tag_61\n      jump\t// in\n    tag_97:\n        /* \"#utility.yul\":2886:2982   */\n      swap4\n      pop\n        /* \"#utility.yul\":2991:3056   */\n      tag_98\n        /* \"#utility.yul\":3049:3055   */\n      dup2\n        /* \"#utility.yul\":3044:3047   */\n      dup6\n        /* \"#utility.yul\":3037:3041   */\n      0x20\n        /* \"#utility.yul\":3030:3035   */\n      dup7\n        /* \"#utility.yul\":3026:3042   */\n      add\n        /* \"#utility.yul\":2991:3056   */\n      tag_58\n      jump\t// in\n    tag_98:\n        /* \"#utility.yul\":3081:3087   */\n      dup1\n        /* \"#utility.yul\":3076:3079   */\n      dup5\n        /* \"#utility.yul\":3072:3088   */\n      add\n        /* \"#utility.yul\":3065:3088   */\n      swap2\n      pop\n        /* \"#utility.yul\":2814:3094   */\n      pop\n        /* \"#utility.yul\":2704:3094   */\n      swap3\n      swap2\n      pop\n      pop\n      jump\t// out\n        /* \"#utility.yul\":3100:3255   */\n    tag_63:\n        /* \"#utility.yul\":3240:3247   */\n      0x20616e6420000000000000000000000000000000000000000000000000000000\n        /* \"#utility.yul\":3236:3237   */\n      0x00\n        /* \"#utility.yul\":3228:3234   */\n      dup3\n        /* \"#utility.yul\":3224:3238   */\n      add\n        /* \"#utility.yul\":3217:3248   */\n      mstore\n        /* \"#utility.yul\":3100:3255   */\n      pop\n      jump\t// out\n        /* \"#utility.yul\":3261:3661   */\n    tag_64:\n        /* \"#utility.yul\":3421:3424   */\n      0x00\n        /* \"#utility.yul\":3442:3526   */\n      tag_101\n        /* \"#utility.yul\":3524:3525   */\n      0x05\n        /* \"#utility.yul\":3519:3522   */\n      dup4\n        /* \"#utility.yul\":3442:3526   */\n      tag_61\n      jump\t// in\n    tag_101:\n        /* \"#utility.yul\":3435:3526   */\n      swap2\n      pop\n        /* \"#utility.yul\":3535:3628   */\n      tag_102\n        /* \"#utility.yul\":3624:3627   */\n      dup3\n        /* \"#utility.yul\":3535:3628   */\n      tag_63\n      jump\t// in\n    tag_102:\n        /* \"#utility.yul\":3653:3654   */\n      0x05\n        /* \"#utility.yul\":3648:3651   */\n      dup3\n        /* \"#utility.yul\":3644:3655   */\n      add\n        /* \"#utility.yul\":3637:3655   */\n      swap1\n      pop\n        /* \"#utility.yul\":3261:3661   */\n      swap2\n      swap1\n      pop\n      jump\t// out\n        /* \"#utility.yul\":3667:3821   */\n    tag_65:\n        /* \"#utility.yul\":3807:3813   */\n      0x206f722000000000000000000000000000000000000000000000000000000000\n        /* \"#utility.yul\":3803:3804   */\n      0x00\n        /* \"#utility.yul\":3795:3801   */\n      dup3\n        /* \"#utility.yul\":3791:3805   */\n      add\n        /* \"#utility.yul\":3784:3814   */\n      mstore\n        /* \"#utility.yul\":3667:3821   */\n      pop\n      jump\t// out\n        /* \"#utility.yul\":3827:4227   */\n    tag_66:\n        /* \"#utility.yul\":3987:3990   */\n      0x00\n        /* \"#utility.yul\":4008:4092   */\n      tag_105\n        /* \"#utility.yul\":4090:4091   */\n      0x04\n        /* \"#utility.yul\":4085:4088   */\n      dup4\n        /* \"#utility.yul\":4008:4092   */\n      tag_61\n      jump\t// in\n    tag_105:\n        /* \"#utility.yul\":4001:4092   */\n      swap2\n      pop\n        /* \"#utility.yul\":4101:4194   */\n      tag_106\n        /* \"#utility.yul\":4190:4193   */\n      dup3\n        /* \"#utility.yul\":4101:4194   */\n      tag_65\n      jump\t// in\n    tag_106:\n        /* \"#utility.yul\":4219:4220   */\n      0x04\n        /* \"#utility.yul\":4214:4217   */\n      dup3\n        /* \"#utility.yul\":4210:4221   */\n      add\n        /* \"#utility.yul\":4203:4221   */\n      swap1\n      pop\n        /* \"#utility.yul\":3827:4227   */\n      swap2\n      swap1\n      pop\n      jump\t// out\n        /* \"#utility.yul\":4233:5360   */\n    tag_16:\n        /* \"#utility.yul\":4663:4666   */\n      0x00\n        /* \"#utility.yul\":4685:4780   */\n      tag_108\n        /* \"#utility.yul\":4776:4779   */\n      dup3\n        /* \"#utility.yul\":4767:4773   */\n      dup7\n        /* \"#utility.yul\":4685:4780   */\n      tag_62\n      jump\t// in\n    tag_108:\n        /* \"#utility.yul\":4678:4780   */\n      swap2\n      pop\n        /* \"#utility.yul\":4797:4945   */\n      tag_109\n        /* \"#utility.yul\":4941:4944   */\n      dup3\n        /* \"#utility.yul\":4797:4945   */\n      tag_64\n      jump\t// in\n    tag_109:\n        /* \"#utility.yul\":4790:4945   */\n      swap2\n      pop\n        /* \"#utility.yul\":4962:5057   */\n      tag_110\n        /* \"#utility.yul\":5053:5056   */\n      dup3\n        /* \"#utility.yul\":5044:5050   */\n      dup6\n        /* \"#utility.yul\":4962:5057   */\n      tag_62\n      jump\t// in\n    tag_110:\n        /* \"#utility.yul\":4955:5057   */\n      swap2\n      pop\n        /* \"#utility.yul\":5074:5222   */\n      tag_111\n        /* \"#utility.yul\":5218:5221   */\n      dup3\n        /* \"#utility.yul\":5074:5222   */\n      tag_66\n      jump\t// in\n    tag_111:\n        /* \"#utility.yul\":5067:5222   */\n      swap2\n      pop\n        /* \"#utility.yul\":5239:5334   */\n      tag_112\n        /* \"#utility.yul\":5330:5333   */\n      dup3\n        /* \"#utility.yul\":5321:5327   */\n      dup5\n        /* \"#utility.yul\":5239:5334   */\n      tag_62\n      jump\t// in\n    tag_112:\n        /* \"#utility.yul\":5232:5334   */\n      swap2\n      pop\n        /* \"#utility.yul\":5351:5354   */\n      dup2\n        /* \"#utility.yul\":5344:5354   */\n      swap1\n      pop\n        /* \"#utility.yul\":4233:5360   */\n      swap5\n      swap4\n      pop\n      pop\n      pop\n      pop\n      jump\t// out\n        /* \"#utility.yul\":5366:5546   */\n    tag_22:\n        /* \"#utility.yul\":5414:5491   */\n      0x4e487b7100000000000000000000000000000000000000000000000000000000\n        /* \"#utility.yul\":5411:5412   */\n      0x00\n        /* \"#utility.yul\":5404:5492   */\n      mstore\n        /* \"#utility.yul\":5511:5515   */\n      0x41\n        /* \"#utility.yul\":5508:5509   */\n      0x04\n        /* \"#utility.yul\":5501:5516   */\n      mstore\n        /* \"#utility.yul\":5535:5539   */\n      0x24\n        /* \"#utility.yul\":5532:5533   */\n      0x00\n        /* \"#utility.yul\":5525:5540   */\n      revert\n        /* \"#utility.yul\":5552:5732   */\n    tag_28:\n        /* \"#utility.yul\":5600:5677   */\n      0x4e487b7100000000000000000000000000000000000000000000000000000000\n        /* \"#utility.yul\":5597:5598   */\n      0x00\n        /* \"#utility.yul\":5590:5678   */\n      mstore\n        /* \"#utility.yul\":5697:5701   */\n      0x12\n        /* \"#utility.yul\":5694:5695   */\n      0x04\n        /* \"#utility.yul\":5687:5702   */\n      mstore\n        /* \"#utility.yul\":5721:5725   */\n      0x24\n        /* \"#utility.yul\":5718:5719   */\n      0x00\n        /* \"#utility.yul\":5711:5726   */\n      revert\n\n    auxdata: 0xa264697066735822122031fe7dab9f9b5d6c3af54ab3bede01485014361b950228f14cde48645b97d09864736f6c63430008190033\n}\n",
				"bytecode": {
					"linkReferences": {},
					"object": "6080604052348015600e575f80fd5b5061057a8061001c5f395ff3fe608060405234801561000f575f80fd5b5060043610610029575f3560e01c80630a1335c11461002d575b5f80fd5b610047600480360381019061004291906102f6565b61005d565b60405161005491906103b6565b60405180910390f35b6060610068846100a4565b610071846100a4565b61007a846100a4565b60405160200161008c939291906104a4565b60405160208183030381529060405290509392505050565b60605f60016100b28461016e565b0190505f8167ffffffffffffffff8111156100d0576100cf6104ea565b5b6040519080825280601f01601f1916602001820160405280156101025781602001600182028036833780820191505090505b5090505f82602001820190505b600115610163578080600190039150507f3031323334353637383961626364656600000000000000000000000000000000600a86061a8153600a858161015857610157610517565b5b0494505f850361010f575b819350505050919050565b5f805f90507a184f03e93ff9f4daa797ed6e38ed64bf6a1f01000000000000000083106101ca577a184f03e93ff9f4daa797ed6e38ed64bf6a1f01000000000000000083816101c0576101bf610517565b5b0492506040810190505b6d04ee2d6d415b85acef81000000008310610207576d04ee2d6d415b85acef810000000083816101fd576101fc610517565b5b0492506020810190505b662386f26fc10000831061023657662386f26fc10000838161022c5761022b610517565b5b0492506010810190505b6305f5e100831061025f576305f5e100838161025557610254610517565b5b0492506008810190505b612710831061028457612710838161027a57610279610517565b5b0492506004810190505b606483106102a7576064838161029d5761029c610517565b5b0492506002810190505b600a83106102b6576001810190505b80915050919050565b5f80fd5b5f819050919050565b6102d5816102c3565b81146102df575f80fd5b50565b5f813590506102f0816102cc565b92915050565b5f805f6060848603121561030d5761030c6102bf565b5b5f61031a868287016102e2565b935050602061032b868287016102e2565b925050604061033c868287016102e2565b9150509250925092565b5f81519050919050565b5f82825260208201905092915050565b8281835e5f83830152505050565b5f601f19601f8301169050919050565b5f61038882610346565b6103928185610350565b93506103a2818560208601610360565b6103ab8161036e565b840191505092915050565b5f6020820190508181035f8301526103ce818461037e565b905092915050565b5f81905092915050565b5f6103ea82610346565b6103f481856103d6565b9350610404818560208601610360565b80840191505092915050565b7f20616e64200000000000000000000000000000000000000000000000000000005f82015250565b5f6104446005836103d6565b915061044f82610410565b600582019050919050565b7f206f7220000000000000000000000000000000000000000000000000000000005f82015250565b5f61048e6004836103d6565b91506104998261045a565b600482019050919050565b5f6104af82866103e0565b91506104ba82610438565b91506104c682856103e0565b91506104d182610482565b91506104dd82846103e0565b9150819050949350505050565b7f4e487b71000000000000000000000000000000000000000000000000000000005f52604160045260245ffd5b7f4e487b71000000000000000000000000000000000000000000000000000000005f52601260045260245ffdfea264697066735822122031fe7dab9f9b5d6c3af54ab3bede01485014361b950228f14cde48645b97d09864736f6c63430008190033",
					"opcodes": "PUSH1 0x80 PUSH1 0x40 MSTORE CALLVALUE DUP1 ISZERO PUSH1 0xE JUMPI PUSH0 DUP1 REVERT JUMPDEST POP PUSH2 0x57A DUP1 PUSH2 0x1C PUSH0 CODECOPY PUSH0 RETURN INVALID PUSH1 0x80 PUSH1 0x40 MSTORE CALLVALUE DUP1 ISZERO PUSH2 0xF JUMPI PUSH0 DUP1 REVERT JUMPDEST POP PUSH1 0x4 CALLDATASIZE LT PUSH2 0x29 JUMPI PUSH0 CALLDATALOAD PUSH1 0xE0 SHR DUP1 PUSH4 0xA1335C1 EQ PUSH2 0x2D JUMPI JUMPDEST PUSH0 DUP1 REVERT JUMPDEST PUSH2 0x47 PUSH1 0x4 DUP1 CALLDATASIZE SUB DUP2 ADD SWAP1 PUSH2 0x42 SWAP2 SWAP1 PUSH2 0x2F6 JUMP JUMPDEST PUSH2 0x5D JUMP JUMPDEST PUSH1 0x40 MLOAD PUSH2 0x54 SWAP2 SWAP1 PUSH2 0x3B6 JUMP JUMPDEST PUSH1 0x40 MLOAD DUP1 SWAP2 SUB SWAP1 RETURN JUMPDEST PUSH1 0x60 PUSH2 0x68 DUP5 PUSH2 0xA4 JUMP JUMPDEST PUSH2 0x71 DUP5 PUSH2 0xA4 JUMP JUMPDEST PUSH2 0x7A DUP5 PUSH2 0xA4 JUMP JUMPDEST PUSH1 0x40 MLOAD PUSH1 0x20 ADD PUSH2 0x8C SWAP4 SWAP3 SWAP2 SWAP1 PUSH2 0x4A4 JUMP JUMPDEST PUSH1 0x40 MLOAD PUSH1 0x20 DUP2 DUP4 SUB SUB DUP2 MSTORE SWAP1 PUSH1 0x40 MSTORE SWAP1 POP SWAP4 SWAP3 POP POP POP JUMP JUMPDEST PUSH1 0x60 PUSH0 PUSH1 0x1 PUSH2 0xB2 DUP5 PUSH2 0x16E JUMP JUMPDEST ADD SWAP1 POP PUSH0 DUP2 PUSH8 0xFFFFFFFFFFFFFFFF DUP2 GT ISZERO PUSH2 0xD0 JUMPI PUSH2 0xCF PUSH2 0x4EA JUMP JUMPDEST JUMPDEST PUSH1 0x40 MLOAD SWAP1 DUP1 DUP3 MSTORE DUP1 PUSH1 0x1F ADD PUSH1 0x1F NOT AND PUSH1 0x20 ADD DUP3 ADD PUSH1 0x40 MSTORE DUP1 ISZERO PUSH2 0x102 JUMPI DUP2 PUSH1 0x20 ADD PUSH1 0x1 DUP3 MUL DUP1 CALLDATASIZE DUP4 CALLDATACOPY DUP1 DUP3 ADD SWAP2 POP POP SWAP1 POP JUMPDEST POP SWAP1 POP PUSH0 DUP3 PUSH1 0x20 ADD DUP3 ADD SWAP1 POP JUMPDEST PUSH1 0x1 ISZERO PUSH2 0x163 JUMPI DUP1 DUP1 PUSH1 0x1 SWAP1 SUB SWAP2 POP POP PUSH32 0x3031323334353637383961626364656600000000000000000000000000000000 PUSH1 0xA DUP7 MOD BYTE DUP2 MSTORE8 PUSH1 0xA DUP6 DUP2 PUSH2 0x158 JUMPI PUSH2 0x157 PUSH2 0x517 JUMP JUMPDEST JUMPDEST DIV SWAP5 POP PUSH0 DUP6 SUB PUSH2 0x10F JUMPI JUMPDEST DUP2 SWAP4 POP POP POP POP SWAP2 SWAP1 POP JUMP JUMPDEST PUSH0 DUP1 PUSH0 SWAP1 POP PUSH27 0x184F03E93FF9F4DAA797ED6E38ED64BF6A1F010000000000000000 DUP4 LT PUSH2 0x1CA JUMPI PUSH27 0x184F03E93FF9F4DAA797ED6E38ED64BF6A1F010000000000000000 DUP4 DUP2 PUSH2 0x1C0 JUMPI PUSH2 0x1BF PUSH2 0x517 JUMP JUMPDEST JUMPDEST DIV SWAP3 POP PUSH1 0x40 DUP2 ADD SWAP1 POP JUMPDEST PUSH14 0x4EE2D6D415B85ACEF8100000000 DUP4 LT PUSH2 0x207 JUMPI PUSH14 0x4EE2D6D415B85ACEF8100000000 DUP4 DUP2 PUSH2 0x1FD JUMPI PUSH2 0x1FC PUSH2 0x517 JUMP JUMPDEST JUMPDEST DIV SWAP3 POP PUSH1 0x20 DUP2 ADD SWAP1 POP JUMPDEST PUSH7 0x2386F26FC10000 DUP4 LT PUSH2 0x236 JUMPI PUSH7 0x2386F26FC10000 DUP4 DUP2 PUSH2 0x22C JUMPI PUSH2 0x22B PUSH2 0x517 JUMP JUMPDEST JUMPDEST DIV SWAP3 POP PUSH1 0x10 DUP2 ADD SWAP1 POP JUMPDEST PUSH4 0x5F5E100 DUP4 LT PUSH2 0x25F JUMPI PUSH4 0x5F5E100 DUP4 DUP2 PUSH2 0x255 JUMPI PUSH2 0x254 PUSH2 0x517 JUMP JUMPDEST JUMPDEST DIV SWAP3 POP PUSH1 0x8 DUP2 ADD SWAP1 POP JUMPDEST PUSH2 0x2710 DUP4 LT PUSH2 0x284 JUMPI PUSH2 0x2710 DUP4 DUP2 PUSH2 0x27A JUMPI PUSH2 0x279 PUSH2 0x517 JUMP JUMPDEST JUMPDEST DIV SWAP3 POP PUSH1 0x4 DUP2 ADD SWAP1 POP JUMPDEST PUSH1 0x64 DUP4 LT PUSH2 0x2A7 JUMPI PUSH1 0x64 DUP4 DUP2 PUSH2 0x29D JUMPI PUSH2 0x29C PUSH2 0x517 JUMP JUMPDEST JUMPDEST DIV SWAP3 POP PUSH1 0x2 DUP2 ADD SWAP1 POP JUMPDEST PUSH1 0xA DUP4 LT PUSH2 0x2B6 JUMPI PUSH1 0x1 DUP2 ADD SWAP1 POP JUMPDEST DUP1 SWAP2 POP POP SWAP2 SWAP1 POP JUMP JUMPDEST PUSH0 DUP1 REVERT JUMPDEST PUSH0 DUP2 SWAP1 POP SWAP2 SWAP1 POP JUMP JUMPDEST PUSH2 0x2D5 DUP2 PUSH2 0x2C3 JUMP JUMPDEST DUP2 EQ PUSH2 0x2DF JUMPI PUSH0 DUP1 REVERT JUMPDEST POP JUMP JUMPDEST PUSH0 DUP2 CALLDATALOAD SWAP1 POP PUSH2 0x2F0 DUP2 PUSH2 0x2CC JUMP JUMPDEST SWAP3 SWAP2 POP POP JUMP JUMPDEST PUSH0 DUP1 PUSH0 PUSH1 0x60 DUP5 DUP7 SUB SLT ISZERO PUSH2 0x30D JUMPI PUSH2 0x30C PUSH2 0x2BF JUMP JUMPDEST JUMPDEST PUSH0 PUSH2 0x31A DUP7 DUP3 DUP8 ADD PUSH2 0x2E2 JUMP JUMPDEST SWAP4 POP POP PUSH1 0x20 PUSH2 0x32B DUP7 DUP3 DUP8 ADD PUSH2 0x2E2 JUMP JUMPDEST SWAP3 POP POP PUSH1 0x40 PUSH2 0x33C DUP7 DUP3 DUP8 ADD PUSH2 0x2E2 JUMP JUMPDEST SWAP2 POP POP SWAP3 POP SWAP3 POP SWAP3 JUMP JUMPDEST PUSH0 DUP2 MLOAD SWAP1 POP SWAP2 SWAP1 POP JUMP JUMPDEST PUSH0 DUP3 DUP3 MSTORE PUSH1 0x20 DUP3 ADD SWAP1 POP SWAP3 SWAP2 POP POP JUMP JUMPDEST DUP3 DUP2 DUP4 MCOPY PUSH0 DUP4 DUP4 ADD MSTORE POP POP POP JUMP JUMPDEST PUSH0 PUSH1 0x1F NOT PUSH1 0x1F DUP4 ADD AND SWAP1 POP SWAP2 SWAP1 POP JUMP JUMPDEST PUSH0 PUSH2 0x388 DUP3 PUSH2 0x346 JUMP JUMPDEST PUSH2 0x392 DUP2 DUP6 PUSH2 0x350 JUMP JUMPDEST SWAP4 POP PUSH2 0x3A2 DUP2 DUP6 PUSH1 0x20 DUP7 ADD PUSH2 0x360 JUMP JUMPDEST PUSH2 0x3AB DUP2 PUSH2 0x36E JUMP JUMPDEST DUP5 ADD SWAP2 POP POP SWAP3 SWAP2 POP POP JUMP JUMPDEST PUSH0 PUSH1 0x20 DUP3 ADD SWAP1 POP DUP2 DUP2 SUB PUSH0 DUP4 ADD MSTORE PUSH2 0x3CE DUP2 DUP5 PUSH2 0x37E JUMP JUMPDEST SWAP1 POP SWAP3 SWAP2 POP POP JUMP JUMPDEST PUSH0 DUP2 SWAP1 POP SWAP3 SWAP2 POP POP JUMP JUMPDEST PUSH0 PUSH2 0x3EA DUP3 PUSH2 0x346 JUMP JUMPDEST PUSH2 0x3F4 DUP2 DUP6 PUSH2 0x3D6 JUMP JUMPDEST SWAP4 POP PUSH2 0x404 DUP2 DUP6 PUSH1 0x20 DUP7 ADD PUSH2 0x360 JUMP JUMPDEST DUP1 DUP5 ADD SWAP2 POP POP SWAP3 SWAP2 POP POP JUMP JUMPDEST PUSH32 0x20616E6420000000000000000000000000000000000000000000000000000000 PUSH0 DUP3 ADD MSTORE POP JUMP JUMPDEST PUSH0 PUSH2 0x444 PUSH1 0x5 DUP4 PUSH2 0x3D6 JUMP JUMPDEST SWAP2 POP PUSH2 0x44F DUP3 PUSH2 0x410 JUMP JUMPDEST PUSH1 0x5 DUP3 ADD SWAP1 POP SWAP2 SWAP1 POP JUMP JUMPDEST PUSH32 0x206F722000000000000000000000000000000000000000000000000000000000 PUSH0 DUP3 ADD MSTORE POP JUMP JUMPDEST PUSH0 PUSH2 0x48E PUSH1 0x4 DUP4 PUSH2 0x3D6 JUMP JUMPDEST SWAP2 POP PUSH2 0x499 DUP3 PUSH2 0x45A JUMP JUMPDEST PUSH1 0x4 DUP3 ADD SWAP1 POP SWAP2 SWAP1 POP JUMP JUMPDEST PUSH0 PUSH2 0x4AF DUP3 DUP7 PUSH2 0x3E0 JUMP JUMPDEST SWAP2 POP PUSH2 0x4BA DUP3 PUSH2 0x438 JUMP JUMPDEST SWAP2 POP PUSH2 0x4C6 DUP3 DUP6 PUSH2 0x3E0 JUMP JUMPDEST SWAP2 POP PUSH2 0x4D1 DUP3 PUSH2 0x482 JUMP JUMPDEST SWAP2 POP PUSH2 0x4DD DUP3 DUP5 PUSH2 0x3E0 JUMP JUMPDEST SWAP2 POP DUP2 SWAP1 POP SWAP5 SWAP4 POP POP POP POP JUMP JUMPDEST PUSH32 0x4E487B7100000000000000000000000000000000000000000000000000000000 PUSH0 MSTORE PUSH1 0x41 PUSH1 0x4 MSTORE PUSH1 0x24 PUSH0 REVERT JUMPDEST PUSH32 0x4E487B7100000000000000000000000000000000000000000000000000000000 PUSH0 MSTORE PUSH1 0x12 PUSH1 0x4 MSTORE PUSH1 0x24 PUSH0 REVERT INVALID LOG2 PUSH5 0x6970667358 0x22 SLT KECCAK256 BALANCE INVALID PUSH30 0xAB9F9B5D6C3AF54AB3BEDE01485014361B950228F14CDE48645B97D09864 PUSH20 0x6F6C634300081900330000000000000000000000 "
				},
				"gasEstimates": {
					"creation": {
						"codeDepositCost": "280400",
						"executionCost": "316",
						"totalCost": "280716"
					},
					"external": {
						"returnString(uint256,uint256,uint256)": "infinite"
					}
				},
				"methodIdentifiers": {
					"returnString(uint256,uint256,uint256)": "0a1335c1"
				}
			},
			"storageLayout": {
				"storage": [],
				"types": null
			},
			"userdoc": {
				"kind": "user",
				"methods": {},
				"version": 1
			}
		}
	}
}