{
	"solidity_100/61-70.sol": {
		"Q65": {
			"abi": [
				{
					"inputs": [
						{
							"internalType": "uint256",
							"name": "a",
							"type": "uint256"
						},
						{
							"internalType": "uint256",
							"name": "b",
							"type": "uint256"
						},
						{
							"internalType": "uint256",
							"name": "c",
							"type": "uint256"
						}
					],
					"name": "square",
					"outputs": [
						{
							"internalType": "uint256",
							"name": "",
							"type": "uint256"
						}
					],
					"stateMutability": "pure",
					"type": "function"
				}
			],
			"devdoc": {
				"kind": "dev",
				"methods": {},
				"version": 1
			},
			"evm": {
				"assembly": "    /* \"solidity_100/61-70.sol\":1924:2335  contract Q65 {... */\n  mstore(0x40, 0x80)\n  callvalue\n  dup1\n  iszero\n  tag_1\n  jumpi\n  0x00\n  dup1\n  revert\ntag_1:\n  pop\n  dataSize(sub_0)\n  dup1\n  dataOffset(sub_0)\n  0x00\n  codecopy\n  0x00\n  return\nstop\n\nsub_0: assembly {\n        /* \"solidity_100/61-70.sol\":1924:2335  contract Q65 {... */\n      mstore(0x40, 0x80)\n      callvalue\n      dup1\n      iszero\n      tag_1\n      jumpi\n      0x00\n      dup1\n      revert\n    tag_1:\n      pop\n      jumpi(tag_2, lt(calldatasize, 0x04))\n      shr(0xe0, calldataload(0x00))\n      dup1\n      0xd6338425\n      eq\n      tag_3\n      jumpi\n    tag_2:\n      0x00\n      dup1\n      revert\n        /* \"solidity_100/61-70.sol\":2134:2332  function square(uint a, uint b, uint c) public pure returns(uint) {... */\n    tag_3:\n      tag_4\n      0x04\n      dup1\n      calldatasize\n      sub\n      dup2\n      add\n      swap1\n      tag_5\n      swap2\n      swap1\n      tag_6\n      jump\t// in\n    tag_5:\n      tag_7\n      jump\t// in\n    tag_4:\n      mload(0x40)\n      tag_8\n      swap2\n      swap1\n      tag_9\n      jump\t// in\n    tag_8:\n      mload(0x40)\n      dup1\n      swap2\n      sub\n      swap1\n      return\n    tag_7:\n        /* \"solidity_100/61-70.sol\":2194:2198  uint */\n      0x00\n        /* \"solidity_100/61-70.sol\":2211:2222  uint result */\n      dup1\n        /* \"solidity_100/61-70.sol\":2229:2230  b */\n      dup4\n        /* \"solidity_100/61-70.sol\":2225:2226  a */\n      dup6\n        /* \"solidity_100/61-70.sol\":2225:2230  a > b */\n      gt\n        /* \"solidity_100/61-70.sol\":2225:2295  a > b ? (b > c ? b : (a > c ? c : a) ) : (a > c ? a : (b > c ? c : b)) */\n      tag_11\n      jumpi\n        /* \"solidity_100/61-70.sol\":2271:2272  c */\n      dup3\n        /* \"solidity_100/61-70.sol\":2267:2268  a */\n      dup6\n        /* \"solidity_100/61-70.sol\":2267:2272  a > c */\n      gt\n        /* \"solidity_100/61-70.sol\":2267:2294  a > c ? a : (b > c ? c : b) */\n      tag_12\n      jumpi\n        /* \"solidity_100/61-70.sol\":2284:2285  c */\n      dup3\n        /* \"solidity_100/61-70.sol\":2280:2281  b */\n      dup5\n        /* \"solidity_100/61-70.sol\":2280:2285  b > c */\n      gt\n        /* \"solidity_100/61-70.sol\":2280:2293  b > c ? c : b */\n      tag_13\n      jumpi\n        /* \"solidity_100/61-70.sol\":2292:2293  b */\n      dup4\n        /* \"solidity_100/61-70.sol\":2280:2293  b > c ? c : b */\n      jump(tag_14)\n    tag_13:\n        /* \"solidity_100/61-70.sol\":2288:2289  c */\n      dup3\n        /* \"solidity_100/61-70.sol\":2280:2293  b > c ? c : b */\n    tag_14:\n        /* \"solidity_100/61-70.sol\":2267:2294  a > c ? a : (b > c ? c : b) */\n      jump(tag_15)\n    tag_12:\n        /* \"solidity_100/61-70.sol\":2275:2276  a */\n      dup5\n        /* \"solidity_100/61-70.sol\":2267:2294  a > c ? a : (b > c ? c : b) */\n    tag_15:\n        /* \"solidity_100/61-70.sol\":2225:2295  a > b ? (b > c ? b : (a > c ? c : a) ) : (a > c ? a : (b > c ? c : b)) */\n      jump(tag_16)\n    tag_11:\n        /* \"solidity_100/61-70.sol\":2238:2239  c */\n      dup3\n        /* \"solidity_100/61-70.sol\":2234:2235  b */\n      dup5\n        /* \"solidity_100/61-70.sol\":2234:2239  b > c */\n      gt\n        /* \"solidity_100/61-70.sol\":2234:2261  b > c ? b : (a > c ? c : a) */\n      tag_17\n      jumpi\n        /* \"solidity_100/61-70.sol\":2251:2252  c */\n      dup3\n        /* \"solidity_100/61-70.sol\":2247:2248  a */\n      dup6\n        /* \"solidity_100/61-70.sol\":2247:2252  a > c */\n      gt\n        /* \"solidity_100/61-70.sol\":2247:2260  a > c ? c : a */\n      tag_18\n      jumpi\n        /* \"solidity_100/61-70.sol\":2259:2260  a */\n      dup5\n        /* \"solidity_100/61-70.sol\":2247:2260  a > c ? c : a */\n      jump(tag_19)\n    tag_18:\n        /* \"solidity_100/61-70.sol\":2255:2256  c */\n      dup3\n        /* \"solidity_100/61-70.sol\":2247:2260  a > c ? c : a */\n    tag_19:\n        /* \"solidity_100/61-70.sol\":2234:2261  b > c ? b : (a > c ? c : a) */\n      jump(tag_20)\n    tag_17:\n        /* \"solidity_100/61-70.sol\":2242:2243  b */\n      dup4\n        /* \"solidity_100/61-70.sol\":2234:2261  b > c ? b : (a > c ? c : a) */\n    tag_20:\n        /* \"solidity_100/61-70.sol\":2225:2295  a > b ? (b > c ? b : (a > c ? c : a) ) : (a > c ? a : (b > c ? c : b)) */\n    tag_16:\n        /* \"solidity_100/61-70.sol\":2211:2295  uint result = a > b ? (b > c ? b : (a > c ? c : a) ) : (a > c ? a : (b > c ? c : b)) */\n      swap1\n      pop\n        /* \"solidity_100/61-70.sol\":2323:2324  2 */\n      0x02\n        /* \"solidity_100/61-70.sol\":2313:2319  result */\n      dup2\n        /* \"solidity_100/61-70.sol\":2313:2324  result ** 2 */\n      tag_21\n      swap2\n      swap1\n      tag_22\n      jump\t// in\n    tag_21:\n        /* \"solidity_100/61-70.sol\":2306:2324  return result ** 2 */\n      swap2\n      pop\n      pop\n        /* \"solidity_100/61-70.sol\":2134:2332  function square(uint a, uint b, uint c) public pure returns(uint) {... */\n      swap4\n      swap3\n      pop\n      pop\n      pop\n      jump\t// out\n        /* \"#utility.yul\":88:205   */\n    tag_24:\n        /* \"#utility.yul\":197:198   */\n      0x00\n        /* \"#utility.yul\":194:195   */\n      dup1\n        /* \"#utility.yul\":187:199   */\n      revert\n        /* \"#utility.yul\":334:411   */\n    tag_26:\n        /* \"#utility.yul\":371:378   */\n      0x00\n        /* \"#utility.yul\":400:405   */\n      dup2\n        /* \"#utility.yul\":389:405   */\n      swap1\n      pop\n        /* \"#utility.yul\":334:411   */\n      swap2\n      swap1\n      pop\n      jump\t// out\n        /* \"#utility.yul\":417:539   */\n    tag_27:\n        /* \"#utility.yul\":490:514   */\n      tag_41\n        /* \"#utility.yul\":508:513   */\n      dup2\n        /* \"#utility.yul\":490:514   */\n      tag_26\n      jump\t// in\n    tag_41:\n        /* \"#utility.yul\":483:488   */\n      dup2\n        /* \"#utility.yul\":480:515   */\n      eq\n        /* \"#utility.yul\":470:533   */\n      tag_42\n      jumpi\n        /* \"#utility.yul\":529:530   */\n      0x00\n        /* \"#utility.yul\":526:527   */\n      dup1\n        /* \"#utility.yul\":519:531   */\n      revert\n        /* \"#utility.yul\":470:533   */\n    tag_42:\n        /* \"#utility.yul\":417:539   */\n      pop\n      jump\t// out\n        /* \"#utility.yul\":545:684   */\n    tag_28:\n        /* \"#utility.yul\":591:596   */\n      0x00\n        /* \"#utility.yul\":629:635   */\n      dup2\n        /* \"#utility.yul\":616:636   */\n      calldataload\n        /* \"#utility.yul\":607:636   */\n      swap1\n      pop\n        /* \"#utility.yul\":645:678   */\n      tag_44\n        /* \"#utility.yul\":672:677   */\n      dup2\n        /* \"#utility.yul\":645:678   */\n      tag_27\n      jump\t// in\n    tag_44:\n        /* \"#utility.yul\":545:684   */\n      swap3\n      swap2\n      pop\n      pop\n      jump\t// out\n        /* \"#utility.yul\":690:1309   */\n    tag_6:\n        /* \"#utility.yul\":767:773   */\n      0x00\n        /* \"#utility.yul\":775:781   */\n      dup1\n        /* \"#utility.yul\":783:789   */\n      0x00\n        /* \"#utility.yul\":832:834   */\n      0x60\n        /* \"#utility.yul\":820:829   */\n      dup5\n        /* \"#utility.yul\":811:818   */\n      dup7\n        /* \"#utility.yul\":807:830   */\n      sub\n        /* \"#utility.yul\":803:835   */\n      slt\n        /* \"#utility.yul\":800:919   */\n      iszero\n      tag_46\n      jumpi\n        /* \"#utility.yul\":838:917   */\n      tag_47\n      tag_24\n      jump\t// in\n    tag_47:\n        /* \"#utility.yul\":800:919   */\n    tag_46:\n        /* \"#utility.yul\":958:959   */\n      0x00\n        /* \"#utility.yul\":983:1036   */\n      tag_48\n        /* \"#utility.yul\":1028:1035   */\n      dup7\n        /* \"#utility.yul\":1019:1025   */\n      dup3\n        /* \"#utility.yul\":1008:1017   */\n      dup8\n        /* \"#utility.yul\":1004:1026   */\n      add\n        /* \"#utility.yul\":983:1036   */\n      tag_28\n      jump\t// in\n    tag_48:\n        /* \"#utility.yul\":973:1036   */\n      swap4\n      pop\n        /* \"#utility.yul\":929:1046   */\n      pop\n        /* \"#utility.yul\":1085:1087   */\n      0x20\n        /* \"#utility.yul\":1111:1164   */\n      tag_49\n        /* \"#utility.yul\":1156:1163   */\n      dup7\n        /* \"#utility.yul\":1147:1153   */\n      dup3\n        /* \"#utility.yul\":1136:1145   */\n      dup8\n        /* \"#utility.yul\":1132:1154   */\n      add\n        /* \"#utility.yul\":1111:1164   */\n      tag_28\n      jump\t// in\n    tag_49:\n        /* \"#utility.yul\":1101:1164   */\n      swap3\n      pop\n        /* \"#utility.yul\":1056:1174   */\n      pop\n        /* \"#utility.yul\":1213:1215   */\n      0x40\n        /* \"#utility.yul\":1239:1292   */\n      tag_50\n        /* \"#utility.yul\":1284:1291   */\n      dup7\n        /* \"#utility.yul\":1275:1281   */\n      dup3\n        /* \"#utility.yul\":1264:1273   */\n      dup8\n        /* \"#utility.yul\":1260:1282   */\n      add\n        /* \"#utility.yul\":1239:1292   */\n      tag_28\n      jump\t// in\n    tag_50:\n        /* \"#utility.yul\":1229:1292   */\n      swap2\n      pop\n        /* \"#utility.yul\":1184:1302   */\n      pop\n        /* \"#utility.yul\":690:1309   */\n      swap3\n      pop\n      swap3\n      pop\n      swap3\n      jump\t// out\n        /* \"#utility.yul\":1315:1433   */\n    tag_29:\n        /* \"#utility.yul\":1402:1426   */\n      tag_52\n        /* \"#utility.yul\":1420:1425   */\n      dup2\n        /* \"#utility.yul\":1402:1426   */\n      tag_26\n      jump\t// in\n    tag_52:\n        /* \"#utility.yul\":1397:1400   */\n      dup3\n        /* \"#utility.yul\":1390:1427   */\n      mstore\n        /* \"#utility.yul\":1315:1433   */\n      pop\n      pop\n      jump\t// out\n        /* \"#utility.yul\":1439:1661   */\n    tag_9:\n        /* \"#utility.yul\":1532:1536   */\n      0x00\n        /* \"#utility.yul\":1570:1572   */\n      0x20\n        /* \"#utility.yul\":1559:1568   */\n      dup3\n        /* \"#utility.yul\":1555:1573   */\n      add\n        /* \"#utility.yul\":1547:1573   */\n      swap1\n      pop\n        /* \"#utility.yul\":1583:1654   */\n      tag_54\n        /* \"#utility.yul\":1651:1652   */\n      0x00\n        /* \"#utility.yul\":1640:1649   */\n      dup4\n        /* \"#utility.yul\":1636:1653   */\n      add\n        /* \"#utility.yul\":1627:1633   */\n      dup5\n        /* \"#utility.yul\":1583:1654   */\n      tag_29\n      jump\t// in\n    tag_54:\n        /* \"#utility.yul\":1439:1661   */\n      swap3\n      swap2\n      pop\n      pop\n      jump\t// out\n        /* \"#utility.yul\":1667:1847   */\n    tag_30:\n        /* \"#utility.yul\":1715:1792   */\n      0x4e487b7100000000000000000000000000000000000000000000000000000000\n        /* \"#utility.yul\":1712:1713   */\n      0x00\n        /* \"#utility.yul\":1705:1793   */\n      mstore\n        /* \"#utility.yul\":1812:1816   */\n      0x11\n        /* \"#utility.yul\":1809:1810   */\n      0x04\n        /* \"#utility.yul\":1802:1817   */\n      mstore\n        /* \"#utility.yul\":1836:1840   */\n      0x24\n        /* \"#utility.yul\":1833:1834   */\n      0x00\n        /* \"#utility.yul\":1826:1841   */\n      revert\n        /* \"#utility.yul\":1853:1955   */\n    tag_31:\n        /* \"#utility.yul\":1895:1903   */\n      0x00\n        /* \"#utility.yul\":1942:1947   */\n      dup2\n        /* \"#utility.yul\":1939:1940   */\n      0x01\n        /* \"#utility.yul\":1935:1948   */\n      shr\n        /* \"#utility.yul\":1914:1948   */\n      swap1\n      pop\n        /* \"#utility.yul\":1853:1955   */\n      swap2\n      swap1\n      pop\n      jump\t// out\n        /* \"#utility.yul\":1961:2809   */\n    tag_32:\n        /* \"#utility.yul\":2022:2027   */\n      0x00\n        /* \"#utility.yul\":2029:2033   */\n      dup1\n        /* \"#utility.yul\":2053:2059   */\n      dup3\n        /* \"#utility.yul\":2044:2059   */\n      swap2\n      pop\n        /* \"#utility.yul\":2077:2082   */\n      dup4\n        /* \"#utility.yul\":2068:2082   */\n      swap1\n      pop\n        /* \"#utility.yul\":2091:2803   */\n    tag_58:\n        /* \"#utility.yul\":2112:2113   */\n      0x01\n        /* \"#utility.yul\":2102:2110   */\n      dup6\n        /* \"#utility.yul\":2099:2114   */\n      gt\n        /* \"#utility.yul\":2091:2803   */\n      iszero\n      tag_60\n      jumpi\n        /* \"#utility.yul\":2207:2211   */\n      dup1\n        /* \"#utility.yul\":2202:2205   */\n      dup7\n        /* \"#utility.yul\":2198:2212   */\n      div\n        /* \"#utility.yul\":2192:2196   */\n      dup2\n        /* \"#utility.yul\":2189:2213   */\n      gt\n        /* \"#utility.yul\":2186:2236   */\n      iszero\n      tag_61\n      jumpi\n        /* \"#utility.yul\":2216:2234   */\n      tag_62\n      tag_30\n      jump\t// in\n    tag_62:\n        /* \"#utility.yul\":2186:2236   */\n    tag_61:\n        /* \"#utility.yul\":2266:2267   */\n      0x01\n        /* \"#utility.yul\":2256:2264   */\n      dup6\n        /* \"#utility.yul\":2252:2268   */\n      and\n        /* \"#utility.yul\":2249:2700   */\n      iszero\n      tag_63\n      jumpi\n        /* \"#utility.yul\":2681:2685   */\n      dup1\n        /* \"#utility.yul\":2674:2679   */\n      dup3\n        /* \"#utility.yul\":2670:2686   */\n      mul\n        /* \"#utility.yul\":2661:2686   */\n      swap2\n      pop\n        /* \"#utility.yul\":2249:2700   */\n    tag_63:\n        /* \"#utility.yul\":2731:2735   */\n      dup1\n        /* \"#utility.yul\":2725:2729   */\n      dup2\n        /* \"#utility.yul\":2721:2736   */\n      mul\n        /* \"#utility.yul\":2713:2736   */\n      swap1\n      pop\n        /* \"#utility.yul\":2761:2793   */\n      tag_64\n        /* \"#utility.yul\":2784:2792   */\n      dup6\n        /* \"#utility.yul\":2761:2793   */\n      tag_31\n      jump\t// in\n    tag_64:\n        /* \"#utility.yul\":2749:2793   */\n      swap5\n      pop\n        /* \"#utility.yul\":2091:2803   */\n      jump(tag_58)\n    tag_60:\n        /* \"#utility.yul\":1961:2809   */\n      swap5\n      pop\n      swap5\n      swap3\n      pop\n      pop\n      pop\n      jump\t// out\n        /* \"#utility.yul\":2815:3888   */\n    tag_33:\n        /* \"#utility.yul\":2869:2874   */\n      0x00\n        /* \"#utility.yul\":3060:3068   */\n      dup3\n        /* \"#utility.yul\":3050:3090   */\n      tag_66\n      jumpi\n        /* \"#utility.yul\":3081:3082   */\n      0x01\n        /* \"#utility.yul\":3072:3082   */\n      swap1\n      pop\n        /* \"#utility.yul\":3083:3088   */\n      jump(tag_65)\n        /* \"#utility.yul\":3050:3090   */\n    tag_66:\n        /* \"#utility.yul\":3109:3113   */\n      dup2\n        /* \"#utility.yul\":3099:3135   */\n      tag_67\n      jumpi\n        /* \"#utility.yul\":3126:3127   */\n      0x00\n        /* \"#utility.yul\":3117:3127   */\n      swap1\n      pop\n        /* \"#utility.yul\":3128:3133   */\n      jump(tag_65)\n        /* \"#utility.yul\":3099:3135   */\n    tag_67:\n        /* \"#utility.yul\":3195:3199   */\n      dup2\n        /* \"#utility.yul\":3243:3244   */\n      0x01\n        /* \"#utility.yul\":3238:3265   */\n      dup2\n      eq\n      tag_69\n      jumpi\n        /* \"#utility.yul\":3279:3280   */\n      0x02\n        /* \"#utility.yul\":3274:3465   */\n      dup2\n      eq\n      tag_70\n      jumpi\n        /* \"#utility.yul\":3188:3465   */\n      jump(tag_68)\n        /* \"#utility.yul\":3238:3265   */\n    tag_69:\n        /* \"#utility.yul\":3256:3257   */\n      0x01\n        /* \"#utility.yul\":3247:3257   */\n      swap2\n      pop\n        /* \"#utility.yul\":3258:3263   */\n      pop\n      jump(tag_65)\n        /* \"#utility.yul\":3274:3465   */\n    tag_70:\n        /* \"#utility.yul\":3319:3322   */\n      0xff\n        /* \"#utility.yul\":3309:3317   */\n      dup5\n        /* \"#utility.yul\":3306:3323   */\n      gt\n        /* \"#utility.yul\":3303:3346   */\n      iszero\n      tag_71\n      jumpi\n        /* \"#utility.yul\":3326:3344   */\n      tag_72\n      tag_30\n      jump\t// in\n    tag_72:\n        /* \"#utility.yul\":3303:3346   */\n    tag_71:\n        /* \"#utility.yul\":3375:3383   */\n      dup4\n        /* \"#utility.yul\":3372:3373   */\n      0x02\n        /* \"#utility.yul\":3368:3384   */\n      exp\n        /* \"#utility.yul\":3359:3384   */\n      swap2\n      pop\n        /* \"#utility.yul\":3410:3413   */\n      dup5\n        /* \"#utility.yul\":3403:3408   */\n      dup3\n        /* \"#utility.yul\":3400:3414   */\n      gt\n        /* \"#utility.yul\":3397:3437   */\n      iszero\n      tag_73\n      jumpi\n        /* \"#utility.yul\":3417:3435   */\n      tag_74\n      tag_30\n      jump\t// in\n    tag_74:\n        /* \"#utility.yul\":3397:3437   */\n    tag_73:\n        /* \"#utility.yul\":3450:3455   */\n      pop\n      jump(tag_65)\n        /* \"#utility.yul\":3188:3465   */\n    tag_68:\n      pop\n        /* \"#utility.yul\":3574:3576   */\n      0x20\n        /* \"#utility.yul\":3564:3572   */\n      dup4\n        /* \"#utility.yul\":3561:3577   */\n      lt\n        /* \"#utility.yul\":3555:3558   */\n      0x0133\n        /* \"#utility.yul\":3549:3553   */\n      dup4\n        /* \"#utility.yul\":3546:3559   */\n      lt\n        /* \"#utility.yul\":3542:3578   */\n      and\n        /* \"#utility.yul\":3524:3526   */\n      0x4e\n        /* \"#utility.yul\":3514:3522   */\n      dup5\n        /* \"#utility.yul\":3511:3527   */\n      lt\n        /* \"#utility.yul\":3506:3508   */\n      0x0b\n        /* \"#utility.yul\":3500:3504   */\n      dup5\n        /* \"#utility.yul\":3497:3509   */\n      lt\n        /* \"#utility.yul\":3493:3528   */\n      and\n        /* \"#utility.yul\":3477:3588   */\n      or\n        /* \"#utility.yul\":3474:3720   */\n      iszero\n      tag_75\n      jumpi\n        /* \"#utility.yul\":3630:3638   */\n      dup3\n        /* \"#utility.yul\":3624:3628   */\n      dup3\n        /* \"#utility.yul\":3620:3639   */\n      exp\n        /* \"#utility.yul\":3611:3639   */\n      swap1\n      pop\n        /* \"#utility.yul\":3665:3668   */\n      dup4\n        /* \"#utility.yul\":3658:3663   */\n      dup2\n        /* \"#utility.yul\":3655:3669   */\n      gt\n        /* \"#utility.yul\":3652:3692   */\n      iszero\n      tag_76\n      jumpi\n        /* \"#utility.yul\":3672:3690   */\n      tag_77\n      tag_30\n      jump\t// in\n    tag_77:\n        /* \"#utility.yul\":3652:3692   */\n    tag_76:\n        /* \"#utility.yul\":3705:3710   */\n      jump(tag_65)\n        /* \"#utility.yul\":3474:3720   */\n    tag_75:\n        /* \"#utility.yul\":3745:3787   */\n      tag_78\n        /* \"#utility.yul\":3783:3786   */\n      dup5\n        /* \"#utility.yul\":3773:3781   */\n      dup5\n        /* \"#utility.yul\":3767:3771   */\n      dup5\n        /* \"#utility.yul\":3764:3765   */\n      0x01\n        /* \"#utility.yul\":3745:3787   */\n      tag_32\n      jump\t// in\n    tag_78:\n        /* \"#utility.yul\":3730:3787   */\n      swap3\n      pop\n      swap1\n      pop\n        /* \"#utility.yul\":3819:3823   */\n      dup2\n        /* \"#utility.yul\":3814:3817   */\n      dup5\n        /* \"#utility.yul\":3810:3824   */\n      div\n        /* \"#utility.yul\":3803:3808   */\n      dup2\n        /* \"#utility.yul\":3800:3825   */\n      gt\n        /* \"#utility.yul\":3797:3848   */\n      iszero\n      tag_79\n      jumpi\n        /* \"#utility.yul\":3828:3846   */\n      tag_80\n      tag_30\n      jump\t// in\n    tag_80:\n        /* \"#utility.yul\":3797:3848   */\n    tag_79:\n        /* \"#utility.yul\":3877:3881   */\n      dup2\n        /* \"#utility.yul\":3870:3875   */\n      dup2\n        /* \"#utility.yul\":3866:3882   */\n      mul\n        /* \"#utility.yul\":3857:3882   */\n      swap1\n      pop\n        /* \"#utility.yul\":2815:3888   */\n    tag_65:\n      swap4\n      swap3\n      pop\n      pop\n      pop\n      jump\t// out\n        /* \"#utility.yul\":3894:3980   */\n    tag_34:\n        /* \"#utility.yul\":3929:3936   */\n      0x00\n        /* \"#utility.yul\":3969:3973   */\n      0xff\n        /* \"#utility.yul\":3962:3967   */\n      dup3\n        /* \"#utility.yul\":3958:3974   */\n      and\n        /* \"#utility.yul\":3947:3974   */\n      swap1\n      pop\n        /* \"#utility.yul\":3894:3980   */\n      swap2\n      swap1\n      pop\n      jump\t// out\n        /* \"#utility.yul\":3986:4267   */\n    tag_22:\n        /* \"#utility.yul\":4044:4049   */\n      0x00\n        /* \"#utility.yul\":4068:4091   */\n      tag_83\n        /* \"#utility.yul\":4086:4090   */\n      dup3\n        /* \"#utility.yul\":4068:4091   */\n      tag_26\n      jump\t// in\n    tag_83:\n        /* \"#utility.yul\":4060:4091   */\n      swap2\n      pop\n        /* \"#utility.yul\":4112:4137   */\n      tag_84\n        /* \"#utility.yul\":4128:4136   */\n      dup4\n        /* \"#utility.yul\":4112:4137   */\n      tag_34\n      jump\t// in\n    tag_84:\n        /* \"#utility.yul\":4100:4137   */\n      swap3\n      pop\n        /* \"#utility.yul\":4156:4260   */\n      tag_85\n        /* \"#utility.yul\":4193:4259   */\n      0xffffffffffffffffffffffffffffffffffffffffffffffffffffffffffffffff\n        /* \"#utility.yul\":4183:4191   */\n      dup5\n        /* \"#utility.yul\":4177:4181   */\n      dup5\n        /* \"#utility.yul\":4156:4260   */\n      tag_33\n      jump\t// in\n    tag_85:\n        /* \"#utility.yul\":4147:4260   */\n      swap1\n      pop\n        /* \"#utility.yul\":3986:4267   */\n      swap3\n      swap2\n      pop\n      pop\n      jump\t// out\n\n    auxdata: 0xa26469706673582212208128ff2a54574499b792464ea98699d1e0ba911b991012dbee548b8b08ad122864736f6c63430008190033\n}\n",
				"bytecode": {
					"linkReferences": {},
					"object": "6080604052348015600e575f80fd5b506103568061001c5f395ff3fe608060405234801561000f575f80fd5b5060043610610029575f3560e01c8063d63384251461002d575b5f80fd5b610047600480360381019061004291906100f6565b61005d565b6040516100549190610155565b60405180910390f35b5f80838511610088578285116100815782841161007a578361007c565b825b610083565b845b6100a6565b8284116100a35782851161009c578461009e565b825b6100a5565b835b5b90506002816100b591906102d6565b9150509392505050565b5f80fd5b5f819050919050565b6100d5816100c3565b81146100df575f80fd5b50565b5f813590506100f0816100cc565b92915050565b5f805f6060848603121561010d5761010c6100bf565b5b5f61011a868287016100e2565b935050602061012b868287016100e2565b925050604061013c868287016100e2565b9150509250925092565b61014f816100c3565b82525050565b5f6020820190506101685f830184610146565b92915050565b7f4e487b71000000000000000000000000000000000000000000000000000000005f52601160045260245ffd5b5f8160011c9050919050565b5f808291508390505b60018511156101f0578086048111156101cc576101cb61016e565b5b60018516156101db5780820291505b80810290506101e98561019b565b94506101b0565b94509492505050565b5f8261020857600190506102c3565b81610215575f90506102c3565b816001811461022b576002811461023557610264565b60019150506102c3565b60ff8411156102475761024661016e565b5b8360020a91508482111561025e5761025d61016e565b5b506102c3565b5060208310610133831016604e8410600b84101617156102995782820a9050838111156102945761029361016e565b5b6102c3565b6102a684848460016101a7565b925090508184048111156102bd576102bc61016e565b5b81810290505b9392505050565b5f60ff82169050919050565b5f6102e0826100c3565b91506102eb836102ca565b92506103187fffffffffffffffffffffffffffffffffffffffffffffffffffffffffffffffff84846101f9565b90509291505056fea26469706673582212208128ff2a54574499b792464ea98699d1e0ba911b991012dbee548b8b08ad122864736f6c63430008190033",
					"opcodes": "PUSH1 0x80 PUSH1 0x40 MSTORE CALLVALUE DUP1 ISZERO PUSH1 0xE JUMPI PUSH0 DUP1 REVERT JUMPDEST POP PUSH2 0x356 DUP1 PUSH2 0x1C PUSH0 CODECOPY PUSH0 RETURN INVALID PUSH1 0x80 PUSH1 0x40 MSTORE CALLVALUE DUP1 ISZERO PUSH2 0xF JUMPI PUSH0 DUP1 REVERT JUMPDEST POP PUSH1 0x4 CALLDATASIZE LT PUSH2 0x29 JUMPI PUSH0 CALLDATALOAD PUSH1 0xE0 SHR DUP1 PUSH4 0xD6338425 EQ PUSH2 0x2D JUMPI JUMPDEST PUSH0 DUP1 REVERT JUMPDEST PUSH2 0x47 PUSH1 0x4 DUP1 CALLDATASIZE SUB DUP2 ADD SWAP1 PUSH2 0x42 SWAP2 SWAP1 PUSH2 0xF6 JUMP JUMPDEST PUSH2 0x5D JUMP JUMPDEST PUSH1 0x40 MLOAD PUSH2 0x54 SWAP2 SWAP1 PUSH2 0x155 JUMP JUMPDEST PUSH1 0x40 MLOAD DUP1 SWAP2 SUB SWAP1 RETURN JUMPDEST PUSH0 DUP1 DUP4 DUP6 GT PUSH2 0x88 JUMPI DUP3 DUP6 GT PUSH2 0x81 JUMPI DUP3 DUP5 GT PUSH2 0x7A JUMPI DUP4 PUSH2 0x7C JUMP JUMPDEST DUP3 JUMPDEST PUSH2 0x83 JUMP JUMPDEST DUP5 JUMPDEST PUSH2 0xA6 JUMP JUMPDEST DUP3 DUP5 GT PUSH2 0xA3 JUMPI DUP3 DUP6 GT PUSH2 0x9C JUMPI DUP5 PUSH2 0x9E JUMP JUMPDEST DUP3 JUMPDEST PUSH2 0xA5 JUMP JUMPDEST DUP4 JUMPDEST JUMPDEST SWAP1 POP PUSH1 0x2 DUP2 PUSH2 0xB5 SWAP2 SWAP1 PUSH2 0x2D6 JUMP JUMPDEST SWAP2 POP POP SWAP4 SWAP3 POP POP POP JUMP JUMPDEST PUSH0 DUP1 REVERT JUMPDEST PUSH0 DUP2 SWAP1 POP SWAP2 SWAP1 POP JUMP JUMPDEST PUSH2 0xD5 DUP2 PUSH2 0xC3 JUMP JUMPDEST DUP2 EQ PUSH2 0xDF JUMPI PUSH0 DUP1 REVERT JUMPDEST POP JUMP JUMPDEST PUSH0 DUP2 CALLDATALOAD SWAP1 POP PUSH2 0xF0 DUP2 PUSH2 0xCC JUMP JUMPDEST SWAP3 SWAP2 POP POP JUMP JUMPDEST PUSH0 DUP1 PUSH0 PUSH1 0x60 DUP5 DUP7 SUB SLT ISZERO PUSH2 0x10D JUMPI PUSH2 0x10C PUSH2 0xBF JUMP JUMPDEST JUMPDEST PUSH0 PUSH2 0x11A DUP7 DUP3 DUP8 ADD PUSH2 0xE2 JUMP JUMPDEST SWAP4 POP POP PUSH1 0x20 PUSH2 0x12B DUP7 DUP3 DUP8 ADD PUSH2 0xE2 JUMP JUMPDEST SWAP3 POP POP PUSH1 0x40 PUSH2 0x13C DUP7 DUP3 DUP8 ADD PUSH2 0xE2 JUMP JUMPDEST SWAP2 POP POP SWAP3 POP SWAP3 POP SWAP3 JUMP JUMPDEST PUSH2 0x14F DUP2 PUSH2 0xC3 JUMP JUMPDEST DUP3 MSTORE POP POP JUMP JUMPDEST PUSH0 PUSH1 0x20 DUP3 ADD SWAP1 POP PUSH2 0x168 PUSH0 DUP4 ADD DUP5 PUSH2 0x146 JUMP JUMPDEST SWAP3 SWAP2 POP POP JUMP JUMPDEST PUSH32 0x4E487B7100000000000000000000000000000000000000000000000000000000 PUSH0 MSTORE PUSH1 0x11 PUSH1 0x4 MSTORE PUSH1 0x24 PUSH0 REVERT JUMPDEST PUSH0 DUP2 PUSH1 0x1 SHR SWAP1 POP SWAP2 SWAP1 POP JUMP JUMPDEST PUSH0 DUP1 DUP3 SWAP2 POP DUP4 SWAP1 POP JUMPDEST PUSH1 0x1 DUP6 GT ISZERO PUSH2 0x1F0 JUMPI DUP1 DUP7 DIV DUP2 GT ISZERO PUSH2 0x1CC JUMPI PUSH2 0x1CB PUSH2 0x16E JUMP JUMPDEST JUMPDEST PUSH1 0x1 DUP6 AND ISZERO PUSH2 0x1DB JUMPI DUP1 DUP3 MUL SWAP2 POP JUMPDEST DUP1 DUP2 MUL SWAP1 POP PUSH2 0x1E9 DUP6 PUSH2 0x19B JUMP JUMPDEST SWAP5 POP PUSH2 0x1B0 JUMP JUMPDEST SWAP5 POP SWAP5 SWAP3 POP POP POP JUMP JUMPDEST PUSH0 DUP3 PUSH2 0x208 JUMPI PUSH1 0x1 SWAP1 POP PUSH2 0x2C3 JUMP JUMPDEST DUP2 PUSH2 0x215 JUMPI PUSH0 SWAP1 POP PUSH2 0x2C3 JUMP JUMPDEST DUP2 PUSH1 0x1 DUP2 EQ PUSH2 0x22B JUMPI PUSH1 0x2 DUP2 EQ PUSH2 0x235 JUMPI PUSH2 0x264 JUMP JUMPDEST PUSH1 0x1 SWAP2 POP POP PUSH2 0x2C3 JUMP JUMPDEST PUSH1 0xFF DUP5 GT ISZERO PUSH2 0x247 JUMPI PUSH2 0x246 PUSH2 0x16E JUMP JUMPDEST JUMPDEST DUP4 PUSH1 0x2 EXP SWAP2 POP DUP5 DUP3 GT ISZERO PUSH2 0x25E JUMPI PUSH2 0x25D PUSH2 0x16E JUMP JUMPDEST JUMPDEST POP PUSH2 0x2C3 JUMP JUMPDEST POP PUSH1 0x20 DUP4 LT PUSH2 0x133 DUP4 LT AND PUSH1 0x4E DUP5 LT PUSH1 0xB DUP5 LT AND OR ISZERO PUSH2 0x299 JUMPI DUP3 DUP3 EXP SWAP1 POP DUP4 DUP2 GT ISZERO PUSH2 0x294 JUMPI PUSH2 0x293 PUSH2 0x16E JUMP JUMPDEST JUMPDEST PUSH2 0x2C3 JUMP JUMPDEST PUSH2 0x2A6 DUP5 DUP5 DUP5 PUSH1 0x1 PUSH2 0x1A7 JUMP JUMPDEST SWAP3 POP SWAP1 POP DUP2 DUP5 DIV DUP2 GT ISZERO PUSH2 0x2BD JUMPI PUSH2 0x2BC PUSH2 0x16E JUMP JUMPDEST JUMPDEST DUP2 DUP2 MUL SWAP1 POP JUMPDEST SWAP4 SWAP3 POP POP POP JUMP JUMPDEST PUSH0 PUSH1 0xFF DUP3 AND SWAP1 POP SWAP2 SWAP1 POP JUMP JUMPDEST PUSH0 PUSH2 0x2E0 DUP3 PUSH2 0xC3 JUMP JUMPDEST SWAP2 POP PUSH2 0x2EB DUP4 PUSH2 0x2CA JUMP JUMPDEST SWAP3 POP PUSH2 0x318 PUSH32 0xFFFFFFFFFFFFFFFFFFFFFFFFFFFFFFFFFFFFFFFFFFFFFFFFFFFFFFFFFFFFFFFF DUP5 DUP5 PUSH2 0x1F9 JUMP JUMPDEST SWAP1 POP SWAP3 SWAP2 POP POP JUMP INVALID LOG2 PUSH5 0x6970667358 0x22 SLT KECCAK256 DUP2 0x28 SELFDESTRUCT 0x2A SLOAD JUMPI PREVRANDAO SWAP10 0xB7 SWAP3 CHAINID 0x4E 0xA9 DUP7 SWAP10 0xD1 0xE0 0xBA SWAP2 SHL SWAP10 LT SLT 0xDB 0xEE SLOAD DUP12 DUP12 ADDMOD 0xAD SLT 0x28 PUSH5 0x736F6C6343 STOP ADDMOD NOT STOP CALLER "
				},
				"gasEstimates": {
					"creation": {
						"codeDepositCost": "170800",
						"executionCost": "212",
						"totalCost": "171012"
					},
					"external": {
						"square(uint256,uint256,uint256)": "infinite"
					}
				},
				"methodIdentifiers": {
					"square(uint256,uint256,uint256)": "d6338425"
				}
			},
			"storageLayout": {
				"storage": [],
				"types": null
			},
			"userdoc": {
				"kind": "user",
				"methods": {},
				"version": 1
			}
		}
	}
}