{
	"solidity_100/21-30.sol": {
		"Q30": {
			"abi": [
				{
					"inputs": [
						{
							"internalType": "uint256[]",
							"name": "_arr",
							"type": "uint256[]"
						},
						{
							"internalType": "uint256",
							"name": "_n",
							"type": "uint256"
						}
					],
					"name": "descending",
					"outputs": [
						{
							"internalType": "uint256[]",
							"name": "",
							"type": "uint256[]"
						}
					],
					"stateMutability": "pure",
					"type": "function"
				}
			],
			"devdoc": {
				"kind": "dev",
				"methods": {},
				"version": 1
			},
			"evm": {
				"assembly": "    /* \"solidity_100/21-30.sol\":3940:4944  contract Q30 {... */\n  mstore(0x40, 0x80)\n  callvalue\n  dup1\n  iszero\n  tag_1\n  jumpi\n  0x00\n  dup1\n  revert\ntag_1:\n  pop\n  dataSize(sub_0)\n  dup1\n  dataOffset(sub_0)\n  0x00\n  codecopy\n  0x00\n  return\nstop\n\nsub_0: assembly {\n        /* \"solidity_100/21-30.sol\":3940:4944  contract Q30 {... */\n      mstore(0x40, 0x80)\n      callvalue\n      dup1\n      iszero\n      tag_1\n      jumpi\n      0x00\n      dup1\n      revert\n    tag_1:\n      pop\n      jumpi(tag_2, lt(calldatasize, 0x04))\n      shr(0xe0, calldataload(0x00))\n      dup1\n      0xd1215262\n      eq\n      tag_3\n      jumpi\n    tag_2:\n      0x00\n      dup1\n      revert\n        /* \"solidity_100/21-30.sol\":4373:4927  function descending(uint[] memory _arr, uint _n) public pure returns(uint[] memory){... */\n    tag_3:\n      tag_4\n      0x04\n      dup1\n      calldatasize\n      sub\n      dup2\n      add\n      swap1\n      tag_5\n      swap2\n      swap1\n      tag_6\n      jump\t// in\n    tag_5:\n      tag_7\n      jump\t// in\n    tag_4:\n      mload(0x40)\n      tag_8\n      swap2\n      swap1\n      tag_9\n      jump\t// in\n    tag_8:\n      mload(0x40)\n      dup1\n      swap2\n      sub\n      swap1\n      return\n    tag_7:\n        /* \"solidity_100/21-30.sol\":4442:4455  uint[] memory */\n      0x60\n        /* \"solidity_100/21-30.sol\":4477:4492  uint[] memory a */\n      0x00\n        /* \"solidity_100/21-30.sol\":4519:4520  1 */\n      0x01\n        /* \"solidity_100/21-30.sol\":4506:4510  _arr */\n      dup5\n        /* \"solidity_100/21-30.sol\":4506:4517  _arr.length */\n      mload\n        /* \"solidity_100/21-30.sol\":4506:4520  _arr.length +1 */\n      tag_11\n      swap2\n      swap1\n      tag_12\n      jump\t// in\n    tag_11:\n        /* \"solidity_100/21-30.sol\":4495:4521  new uint[](_arr.length +1) */\n      0xffffffffffffffff\n      dup2\n      gt\n      iszero\n      tag_13\n      jumpi\n      tag_14\n      tag_15\n      jump\t// in\n    tag_14:\n    tag_13:\n      mload(0x40)\n      swap1\n      dup1\n      dup3\n      mstore\n      dup1\n      0x20\n      mul\n      0x20\n      add\n      dup3\n      add\n      0x40\n      mstore\n      dup1\n      iszero\n      tag_16\n      jumpi\n      dup2\n      0x20\n      add\n      0x20\n      dup3\n      mul\n      dup1\n      calldatasize\n      dup4\n      calldatacopy\n      dup1\n      dup3\n      add\n      swap2\n      pop\n      pop\n      swap1\n      pop\n    tag_16:\n      pop\n        /* \"solidity_100/21-30.sol\":4477:4521  uint[] memory a = new uint[](_arr.length +1) */\n      swap1\n      pop\n        /* \"solidity_100/21-30.sol\":4536:4542  uint i */\n      0x00\n        /* \"solidity_100/21-30.sol\":4532:4611  for(uint i = 0; i < _arr.length; i++) {... */\n    tag_17:\n        /* \"solidity_100/21-30.sol\":4552:4556  _arr */\n      dup5\n        /* \"solidity_100/21-30.sol\":4552:4563  _arr.length */\n      mload\n        /* \"solidity_100/21-30.sol\":4548:4549  i */\n      dup2\n        /* \"solidity_100/21-30.sol\":4548:4563  i < _arr.length */\n      lt\n        /* \"solidity_100/21-30.sol\":4532:4611  for(uint i = 0; i < _arr.length; i++) {... */\n      iszero\n      tag_18\n      jumpi\n        /* \"solidity_100/21-30.sol\":4592:4596  _arr */\n      dup5\n        /* \"solidity_100/21-30.sol\":4597:4598  i */\n      dup2\n        /* \"solidity_100/21-30.sol\":4592:4599  _arr[i] */\n      dup2\n      mload\n      dup2\n      lt\n      tag_20\n      jumpi\n      tag_21\n      tag_22\n      jump\t// in\n    tag_21:\n    tag_20:\n      0x20\n      mul\n      0x20\n      add\n      add\n      mload\n        /* \"solidity_100/21-30.sol\":4585:4586  a */\n      dup3\n        /* \"solidity_100/21-30.sol\":4587:4588  i */\n      dup3\n        /* \"solidity_100/21-30.sol\":4585:4589  a[i] */\n      dup2\n      mload\n      dup2\n      lt\n      tag_23\n      jumpi\n      tag_24\n      tag_22\n      jump\t// in\n    tag_24:\n    tag_23:\n      0x20\n      mul\n      0x20\n      add\n      add\n        /* \"solidity_100/21-30.sol\":4585:4599  a[i] = _arr[i] */\n      dup2\n      dup2\n      mstore\n      pop\n      pop\n        /* \"solidity_100/21-30.sol\":4565:4568  i++ */\n      dup1\n      dup1\n      0x01\n      add\n      swap2\n      pop\n      pop\n        /* \"solidity_100/21-30.sol\":4532:4611  for(uint i = 0; i < _arr.length; i++) {... */\n      jump(tag_17)\n    tag_18:\n      pop\n        /* \"solidity_100/21-30.sol\":4648:4650  _n */\n      dup3\n        /* \"solidity_100/21-30.sol\":4631:4632  a */\n      dup2\n        /* \"solidity_100/21-30.sol\":4633:4637  _arr */\n      dup6\n        /* \"solidity_100/21-30.sol\":4633:4644  _arr.length */\n      mload\n        /* \"solidity_100/21-30.sol\":4631:4645  a[_arr.length] */\n      dup2\n      mload\n      dup2\n      lt\n      tag_25\n      jumpi\n      tag_26\n      tag_22\n      jump\t// in\n    tag_26:\n    tag_25:\n      0x20\n      mul\n      0x20\n      add\n      add\n        /* \"solidity_100/21-30.sol\":4631:4650  a[_arr.length] = _n */\n      dup2\n      dup2\n      mstore\n      pop\n      pop\n        /* \"solidity_100/21-30.sol\":4686:4692  uint i */\n      0x00\n        /* \"solidity_100/21-30.sol\":4681:4901  for (uint i = 0; i < a.length; i++) {... */\n    tag_27:\n        /* \"solidity_100/21-30.sol\":4702:4703  a */\n      dup2\n        /* \"solidity_100/21-30.sol\":4702:4710  a.length */\n      mload\n        /* \"solidity_100/21-30.sol\":4698:4699  i */\n      dup2\n        /* \"solidity_100/21-30.sol\":4698:4710  i < a.length */\n      lt\n        /* \"solidity_100/21-30.sol\":4681:4901  for (uint i = 0; i < a.length; i++) {... */\n      iszero\n      tag_28\n      jumpi\n        /* \"solidity_100/21-30.sol\":4737:4743  uint j */\n      0x00\n        /* \"solidity_100/21-30.sol\":4748:4749  1 */\n      0x01\n        /* \"solidity_100/21-30.sol\":4746:4747  i */\n      dup3\n        /* \"solidity_100/21-30.sol\":4746:4749  i+1 */\n      tag_33\n      swap2\n      swap1\n      tag_12\n      jump\t// in\n    tag_33:\n        /* \"solidity_100/21-30.sol\":4737:4749  uint j = i+1 */\n      swap1\n      pop\n        /* \"solidity_100/21-30.sol\":4732:4890  for (uint j = i+1; j < a.length; j++) {... */\n    tag_30:\n        /* \"solidity_100/21-30.sol\":4755:4756  a */\n      dup3\n        /* \"solidity_100/21-30.sol\":4755:4763  a.length */\n      mload\n        /* \"solidity_100/21-30.sol\":4751:4752  j */\n      dup2\n        /* \"solidity_100/21-30.sol\":4751:4763  j < a.length */\n      lt\n        /* \"solidity_100/21-30.sol\":4732:4890  for (uint j = i+1; j < a.length; j++) {... */\n      iszero\n      tag_31\n      jumpi\n        /* \"solidity_100/21-30.sol\":4799:4800  a */\n      dup3\n        /* \"solidity_100/21-30.sol\":4801:4802  j */\n      dup2\n        /* \"solidity_100/21-30.sol\":4799:4803  a[j] */\n      dup2\n      mload\n      dup2\n      lt\n      tag_34\n      jumpi\n      tag_35\n      tag_22\n      jump\t// in\n    tag_35:\n    tag_34:\n      0x20\n      mul\n      0x20\n      add\n      add\n      mload\n        /* \"solidity_100/21-30.sol\":4792:4793  a */\n      dup4\n        /* \"solidity_100/21-30.sol\":4794:4795  i */\n      dup4\n        /* \"solidity_100/21-30.sol\":4792:4796  a[i] */\n      dup2\n      mload\n      dup2\n      lt\n      tag_36\n      jumpi\n      tag_37\n      tag_22\n      jump\t// in\n    tag_37:\n    tag_36:\n      0x20\n      mul\n      0x20\n      add\n      add\n      mload\n        /* \"solidity_100/21-30.sol\":4792:4803  a[i] < a[j] */\n      lt\n        /* \"solidity_100/21-30.sol\":4789:4875  if(a[i] < a[j]) {... */\n      iszero\n      tag_38\n      jumpi\n        /* \"solidity_100/21-30.sol\":4844:4845  a */\n      dup3\n        /* \"solidity_100/21-30.sol\":4846:4847  j */\n      dup2\n        /* \"solidity_100/21-30.sol\":4844:4848  a[j] */\n      dup2\n      mload\n      dup2\n      lt\n      tag_39\n      jumpi\n      tag_40\n      tag_22\n      jump\t// in\n    tag_40:\n    tag_39:\n      0x20\n      mul\n      0x20\n      add\n      add\n      mload\n        /* \"solidity_100/21-30.sol\":4850:4851  a */\n      dup4\n        /* \"solidity_100/21-30.sol\":4852:4853  i */\n      dup4\n        /* \"solidity_100/21-30.sol\":4850:4854  a[i] */\n      dup2\n      mload\n      dup2\n      lt\n      tag_41\n      jumpi\n      tag_42\n      tag_22\n      jump\t// in\n    tag_42:\n    tag_41:\n      0x20\n      mul\n      0x20\n      add\n      add\n      mload\n        /* \"solidity_100/21-30.sol\":4829:4830  a */\n      dup5\n        /* \"solidity_100/21-30.sol\":4831:4832  i */\n      dup5\n        /* \"solidity_100/21-30.sol\":4829:4833  a[i] */\n      dup2\n      mload\n      dup2\n      lt\n      tag_43\n      jumpi\n      tag_44\n      tag_22\n      jump\t// in\n    tag_44:\n    tag_43:\n      0x20\n      mul\n      0x20\n      add\n      add\n        /* \"solidity_100/21-30.sol\":4835:4836  a */\n      dup6\n        /* \"solidity_100/21-30.sol\":4837:4838  j */\n      dup5\n        /* \"solidity_100/21-30.sol\":4835:4839  a[j] */\n      dup2\n      mload\n      dup2\n      lt\n      tag_45\n      jumpi\n      tag_46\n      tag_22\n      jump\t// in\n    tag_46:\n    tag_45:\n      0x20\n      mul\n      0x20\n      add\n      add\n        /* \"solidity_100/21-30.sol\":4828:4855  (a[i], a[j]) = (a[j], a[i]) */\n      dup3\n      dup2\n      mstore\n      pop\n      dup3\n      dup2\n      mstore\n      pop\n      pop\n      pop\n        /* \"solidity_100/21-30.sol\":4789:4875  if(a[i] < a[j]) {... */\n    tag_38:\n        /* \"solidity_100/21-30.sol\":4765:4768  j++ */\n      dup1\n      dup1\n      0x01\n      add\n      swap2\n      pop\n      pop\n        /* \"solidity_100/21-30.sol\":4732:4890  for (uint j = i+1; j < a.length; j++) {... */\n      jump(tag_30)\n    tag_31:\n      pop\n        /* \"solidity_100/21-30.sol\":4712:4715  i++ */\n      dup1\n      dup1\n      0x01\n      add\n      swap2\n      pop\n      pop\n        /* \"solidity_100/21-30.sol\":4681:4901  for (uint i = 0; i < a.length; i++) {... */\n      jump(tag_27)\n    tag_28:\n      pop\n        /* \"solidity_100/21-30.sol\":4918:4919  a */\n      dup1\n        /* \"solidity_100/21-30.sol\":4911:4919  return a */\n      swap2\n      pop\n      pop\n        /* \"solidity_100/21-30.sol\":4373:4927  function descending(uint[] memory _arr, uint _n) public pure returns(uint[] memory){... */\n      swap3\n      swap2\n      pop\n      pop\n      jump\t// out\n        /* \"#utility.yul\":7:82   */\n    tag_47:\n        /* \"#utility.yul\":40:46   */\n      0x00\n        /* \"#utility.yul\":73:75   */\n      0x40\n        /* \"#utility.yul\":67:76   */\n      mload\n        /* \"#utility.yul\":57:76   */\n      swap1\n      pop\n        /* \"#utility.yul\":7:82   */\n      swap1\n      jump\t// out\n        /* \"#utility.yul\":88:205   */\n    tag_48:\n        /* \"#utility.yul\":197:198   */\n      0x00\n        /* \"#utility.yul\":194:195   */\n      dup1\n        /* \"#utility.yul\":187:199   */\n      revert\n        /* \"#utility.yul\":211:328   */\n    tag_49:\n        /* \"#utility.yul\":320:321   */\n      0x00\n        /* \"#utility.yul\":317:318   */\n      dup1\n        /* \"#utility.yul\":310:322   */\n      revert\n        /* \"#utility.yul\":334:451   */\n    tag_50:\n        /* \"#utility.yul\":443:444   */\n      0x00\n        /* \"#utility.yul\":440:441   */\n      dup1\n        /* \"#utility.yul\":433:445   */\n      revert\n        /* \"#utility.yul\":457:559   */\n    tag_51:\n        /* \"#utility.yul\":498:504   */\n      0x00\n        /* \"#utility.yul\":549:551   */\n      0x1f\n        /* \"#utility.yul\":545:552   */\n      not\n        /* \"#utility.yul\":540:542   */\n      0x1f\n        /* \"#utility.yul\":533:538   */\n      dup4\n        /* \"#utility.yul\":529:543   */\n      add\n        /* \"#utility.yul\":525:553   */\n      and\n        /* \"#utility.yul\":515:553   */\n      swap1\n      pop\n        /* \"#utility.yul\":457:559   */\n      swap2\n      swap1\n      pop\n      jump\t// out\n        /* \"#utility.yul\":565:745   */\n    tag_15:\n        /* \"#utility.yul\":613:690   */\n      0x4e487b7100000000000000000000000000000000000000000000000000000000\n        /* \"#utility.yul\":610:611   */\n      0x00\n        /* \"#utility.yul\":603:691   */\n      mstore\n        /* \"#utility.yul\":710:714   */\n      0x41\n        /* \"#utility.yul\":707:708   */\n      0x04\n        /* \"#utility.yul\":700:715   */\n      mstore\n        /* \"#utility.yul\":734:738   */\n      0x24\n        /* \"#utility.yul\":731:732   */\n      0x00\n        /* \"#utility.yul\":724:739   */\n      revert\n        /* \"#utility.yul\":751:1032   */\n    tag_52:\n        /* \"#utility.yul\":834:861   */\n      tag_77\n        /* \"#utility.yul\":856:860   */\n      dup3\n        /* \"#utility.yul\":834:861   */\n      tag_51\n      jump\t// in\n    tag_77:\n        /* \"#utility.yul\":826:832   */\n      dup2\n        /* \"#utility.yul\":822:862   */\n      add\n        /* \"#utility.yul\":964:970   */\n      dup2\n        /* \"#utility.yul\":952:962   */\n      dup2\n        /* \"#utility.yul\":949:971   */\n      lt\n        /* \"#utility.yul\":928:946   */\n      0xffffffffffffffff\n        /* \"#utility.yul\":916:926   */\n      dup3\n        /* \"#utility.yul\":913:947   */\n      gt\n        /* \"#utility.yul\":910:972   */\n      or\n        /* \"#utility.yul\":907:995   */\n      iszero\n      tag_78\n      jumpi\n        /* \"#utility.yul\":975:993   */\n      tag_79\n      tag_15\n      jump\t// in\n    tag_79:\n        /* \"#utility.yul\":907:995   */\n    tag_78:\n        /* \"#utility.yul\":1015:1025   */\n      dup1\n        /* \"#utility.yul\":1011:1013   */\n      0x40\n        /* \"#utility.yul\":1004:1026   */\n      mstore\n        /* \"#utility.yul\":794:1032   */\n      pop\n        /* \"#utility.yul\":751:1032   */\n      pop\n      pop\n      jump\t// out\n        /* \"#utility.yul\":1038:1167   */\n    tag_53:\n        /* \"#utility.yul\":1072:1078   */\n      0x00\n        /* \"#utility.yul\":1099:1119   */\n      tag_81\n      tag_47\n      jump\t// in\n    tag_81:\n        /* \"#utility.yul\":1089:1119   */\n      swap1\n      pop\n        /* \"#utility.yul\":1128:1161   */\n      tag_82\n        /* \"#utility.yul\":1156:1160   */\n      dup3\n        /* \"#utility.yul\":1148:1154   */\n      dup3\n        /* \"#utility.yul\":1128:1161   */\n      tag_52\n      jump\t// in\n    tag_82:\n        /* \"#utility.yul\":1038:1167   */\n      swap2\n      swap1\n      pop\n      jump\t// out\n        /* \"#utility.yul\":1173:1484   */\n    tag_54:\n        /* \"#utility.yul\":1250:1254   */\n      0x00\n        /* \"#utility.yul\":1340:1358   */\n      0xffffffffffffffff\n        /* \"#utility.yul\":1332:1338   */\n      dup3\n        /* \"#utility.yul\":1329:1359   */\n      gt\n        /* \"#utility.yul\":1326:1382   */\n      iszero\n      tag_84\n      jumpi\n        /* \"#utility.yul\":1362:1380   */\n      tag_85\n      tag_15\n      jump\t// in\n    tag_85:\n        /* \"#utility.yul\":1326:1382   */\n    tag_84:\n        /* \"#utility.yul\":1412:1416   */\n      0x20\n        /* \"#utility.yul\":1404:1410   */\n      dup3\n        /* \"#utility.yul\":1400:1417   */\n      mul\n        /* \"#utility.yul\":1392:1417   */\n      swap1\n      pop\n        /* \"#utility.yul\":1472:1476   */\n      0x20\n        /* \"#utility.yul\":1466:1470   */\n      dup2\n        /* \"#utility.yul\":1462:1477   */\n      add\n        /* \"#utility.yul\":1454:1477   */\n      swap1\n      pop\n        /* \"#utility.yul\":1173:1484   */\n      swap2\n      swap1\n      pop\n      jump\t// out\n        /* \"#utility.yul\":1490:1607   */\n    tag_55:\n        /* \"#utility.yul\":1599:1600   */\n      0x00\n        /* \"#utility.yul\":1596:1597   */\n      dup1\n        /* \"#utility.yul\":1589:1601   */\n      revert\n        /* \"#utility.yul\":1613:1690   */\n    tag_56:\n        /* \"#utility.yul\":1650:1657   */\n      0x00\n        /* \"#utility.yul\":1679:1684   */\n      dup2\n        /* \"#utility.yul\":1668:1684   */\n      swap1\n      pop\n        /* \"#utility.yul\":1613:1690   */\n      swap2\n      swap1\n      pop\n      jump\t// out\n        /* \"#utility.yul\":1696:1818   */\n    tag_57:\n        /* \"#utility.yul\":1769:1793   */\n      tag_89\n        /* \"#utility.yul\":1787:1792   */\n      dup2\n        /* \"#utility.yul\":1769:1793   */\n      tag_56\n      jump\t// in\n    tag_89:\n        /* \"#utility.yul\":1762:1767   */\n      dup2\n        /* \"#utility.yul\":1759:1794   */\n      eq\n        /* \"#utility.yul\":1749:1812   */\n      tag_90\n      jumpi\n        /* \"#utility.yul\":1808:1809   */\n      0x00\n        /* \"#utility.yul\":1805:1806   */\n      dup1\n        /* \"#utility.yul\":1798:1810   */\n      revert\n        /* \"#utility.yul\":1749:1812   */\n    tag_90:\n        /* \"#utility.yul\":1696:1818   */\n      pop\n      jump\t// out\n        /* \"#utility.yul\":1824:1963   */\n    tag_58:\n        /* \"#utility.yul\":1870:1875   */\n      0x00\n        /* \"#utility.yul\":1908:1914   */\n      dup2\n        /* \"#utility.yul\":1895:1915   */\n      calldataload\n        /* \"#utility.yul\":1886:1915   */\n      swap1\n      pop\n        /* \"#utility.yul\":1924:1957   */\n      tag_92\n        /* \"#utility.yul\":1951:1956   */\n      dup2\n        /* \"#utility.yul\":1924:1957   */\n      tag_57\n      jump\t// in\n    tag_92:\n        /* \"#utility.yul\":1824:1963   */\n      swap3\n      swap2\n      pop\n      pop\n      jump\t// out\n        /* \"#utility.yul\":1986:2696   */\n    tag_59:\n        /* \"#utility.yul\":2082:2087   */\n      0x00\n        /* \"#utility.yul\":2107:2188   */\n      tag_94\n        /* \"#utility.yul\":2123:2187   */\n      tag_95\n        /* \"#utility.yul\":2180:2186   */\n      dup5\n        /* \"#utility.yul\":2123:2187   */\n      tag_54\n      jump\t// in\n    tag_95:\n        /* \"#utility.yul\":2107:2188   */\n      tag_53\n      jump\t// in\n    tag_94:\n        /* \"#utility.yul\":2098:2188   */\n      swap1\n      pop\n        /* \"#utility.yul\":2208:2213   */\n      dup1\n        /* \"#utility.yul\":2237:2243   */\n      dup4\n        /* \"#utility.yul\":2230:2235   */\n      dup3\n        /* \"#utility.yul\":2223:2244   */\n      mstore\n        /* \"#utility.yul\":2271:2275   */\n      0x20\n        /* \"#utility.yul\":2264:2269   */\n      dup3\n        /* \"#utility.yul\":2260:2276   */\n      add\n        /* \"#utility.yul\":2253:2276   */\n      swap1\n      pop\n        /* \"#utility.yul\":2324:2328   */\n      0x20\n        /* \"#utility.yul\":2316:2322   */\n      dup5\n        /* \"#utility.yul\":2312:2329   */\n      mul\n        /* \"#utility.yul\":2304:2310   */\n      dup4\n        /* \"#utility.yul\":2300:2330   */\n      add\n        /* \"#utility.yul\":2353:2356   */\n      dup6\n        /* \"#utility.yul\":2345:2351   */\n      dup2\n        /* \"#utility.yul\":2342:2357   */\n      gt\n        /* \"#utility.yul\":2339:2461   */\n      iszero\n      tag_96\n      jumpi\n        /* \"#utility.yul\":2372:2451   */\n      tag_97\n      tag_55\n      jump\t// in\n    tag_97:\n        /* \"#utility.yul\":2339:2461   */\n    tag_96:\n        /* \"#utility.yul\":2487:2493   */\n      dup4\n        /* \"#utility.yul\":2470:2690   */\n    tag_98:\n        /* \"#utility.yul\":2504:2510   */\n      dup2\n        /* \"#utility.yul\":2499:2502   */\n      dup2\n        /* \"#utility.yul\":2496:2511   */\n      lt\n        /* \"#utility.yul\":2470:2690   */\n      iszero\n      tag_100\n      jumpi\n        /* \"#utility.yul\":2579:2582   */\n      dup1\n        /* \"#utility.yul\":2608:2645   */\n      tag_101\n        /* \"#utility.yul\":2641:2644   */\n      dup9\n        /* \"#utility.yul\":2629:2639   */\n      dup3\n        /* \"#utility.yul\":2608:2645   */\n      tag_58\n      jump\t// in\n    tag_101:\n        /* \"#utility.yul\":2603:2606   */\n      dup5\n        /* \"#utility.yul\":2596:2646   */\n      mstore\n        /* \"#utility.yul\":2675:2679   */\n      0x20\n        /* \"#utility.yul\":2670:2673   */\n      dup5\n        /* \"#utility.yul\":2666:2680   */\n      add\n        /* \"#utility.yul\":2659:2680   */\n      swap4\n      pop\n        /* \"#utility.yul\":2546:2690   */\n      pop\n        /* \"#utility.yul\":2530:2534   */\n      0x20\n        /* \"#utility.yul\":2525:2528   */\n      dup2\n        /* \"#utility.yul\":2521:2535   */\n      add\n        /* \"#utility.yul\":2514:2535   */\n      swap1\n      pop\n        /* \"#utility.yul\":2470:2690   */\n      jump(tag_98)\n    tag_100:\n        /* \"#utility.yul\":2474:2495   */\n      pop\n        /* \"#utility.yul\":2088:2696   */\n      pop\n      pop\n        /* \"#utility.yul\":1986:2696   */\n      swap4\n      swap3\n      pop\n      pop\n      pop\n      jump\t// out\n        /* \"#utility.yul\":2719:3089   */\n    tag_60:\n        /* \"#utility.yul\":2790:2795   */\n      0x00\n        /* \"#utility.yul\":2839:2842   */\n      dup3\n        /* \"#utility.yul\":2832:2836   */\n      0x1f\n        /* \"#utility.yul\":2824:2830   */\n      dup4\n        /* \"#utility.yul\":2820:2837   */\n      add\n        /* \"#utility.yul\":2816:2843   */\n      slt\n        /* \"#utility.yul\":2806:2928   */\n      tag_103\n      jumpi\n        /* \"#utility.yul\":2847:2926   */\n      tag_104\n      tag_50\n      jump\t// in\n    tag_104:\n        /* \"#utility.yul\":2806:2928   */\n    tag_103:\n        /* \"#utility.yul\":2964:2970   */\n      dup2\n        /* \"#utility.yul\":2951:2971   */\n      calldataload\n        /* \"#utility.yul\":2989:3083   */\n      tag_105\n        /* \"#utility.yul\":3079:3082   */\n      dup5\n        /* \"#utility.yul\":3071:3077   */\n      dup3\n        /* \"#utility.yul\":3064:3068   */\n      0x20\n        /* \"#utility.yul\":3056:3062   */\n      dup7\n        /* \"#utility.yul\":3052:3069   */\n      add\n        /* \"#utility.yul\":2989:3083   */\n      tag_59\n      jump\t// in\n    tag_105:\n        /* \"#utility.yul\":2980:3083   */\n      swap2\n      pop\n        /* \"#utility.yul\":2796:3089   */\n      pop\n        /* \"#utility.yul\":2719:3089   */\n      swap3\n      swap2\n      pop\n      pop\n      jump\t// out\n        /* \"#utility.yul\":3095:3779   */\n    tag_6:\n        /* \"#utility.yul\":3188:3194   */\n      0x00\n        /* \"#utility.yul\":3196:3202   */\n      dup1\n        /* \"#utility.yul\":3245:3247   */\n      0x40\n        /* \"#utility.yul\":3233:3242   */\n      dup4\n        /* \"#utility.yul\":3224:3231   */\n      dup6\n        /* \"#utility.yul\":3220:3243   */\n      sub\n        /* \"#utility.yul\":3216:3248   */\n      slt\n        /* \"#utility.yul\":3213:3332   */\n      iszero\n      tag_107\n      jumpi\n        /* \"#utility.yul\":3251:3330   */\n      tag_108\n      tag_48\n      jump\t// in\n    tag_108:\n        /* \"#utility.yul\":3213:3332   */\n    tag_107:\n        /* \"#utility.yul\":3399:3400   */\n      0x00\n        /* \"#utility.yul\":3388:3397   */\n      dup4\n        /* \"#utility.yul\":3384:3401   */\n      add\n        /* \"#utility.yul\":3371:3402   */\n      calldataload\n        /* \"#utility.yul\":3429:3447   */\n      0xffffffffffffffff\n        /* \"#utility.yul\":3421:3427   */\n      dup2\n        /* \"#utility.yul\":3418:3448   */\n      gt\n        /* \"#utility.yul\":3415:3532   */\n      iszero\n      tag_109\n      jumpi\n        /* \"#utility.yul\":3451:3530   */\n      tag_110\n      tag_49\n      jump\t// in\n    tag_110:\n        /* \"#utility.yul\":3415:3532   */\n    tag_109:\n        /* \"#utility.yul\":3556:3634   */\n      tag_111\n        /* \"#utility.yul\":3626:3633   */\n      dup6\n        /* \"#utility.yul\":3617:3623   */\n      dup3\n        /* \"#utility.yul\":3606:3615   */\n      dup7\n        /* \"#utility.yul\":3602:3624   */\n      add\n        /* \"#utility.yul\":3556:3634   */\n      tag_60\n      jump\t// in\n    tag_111:\n        /* \"#utility.yul\":3546:3634   */\n      swap3\n      pop\n        /* \"#utility.yul\":3342:3644   */\n      pop\n        /* \"#utility.yul\":3683:3685   */\n      0x20\n        /* \"#utility.yul\":3709:3762   */\n      tag_112\n        /* \"#utility.yul\":3754:3761   */\n      dup6\n        /* \"#utility.yul\":3745:3751   */\n      dup3\n        /* \"#utility.yul\":3734:3743   */\n      dup7\n        /* \"#utility.yul\":3730:3752   */\n      add\n        /* \"#utility.yul\":3709:3762   */\n      tag_58\n      jump\t// in\n    tag_112:\n        /* \"#utility.yul\":3699:3762   */\n      swap2\n      pop\n        /* \"#utility.yul\":3654:3772   */\n      pop\n        /* \"#utility.yul\":3095:3779   */\n      swap3\n      pop\n      swap3\n      swap1\n      pop\n      jump\t// out\n        /* \"#utility.yul\":3785:3899   */\n    tag_61:\n        /* \"#utility.yul\":3852:3858   */\n      0x00\n        /* \"#utility.yul\":3886:3891   */\n      dup2\n        /* \"#utility.yul\":3880:3892   */\n      mload\n        /* \"#utility.yul\":3870:3892   */\n      swap1\n      pop\n        /* \"#utility.yul\":3785:3899   */\n      swap2\n      swap1\n      pop\n      jump\t// out\n        /* \"#utility.yul\":3905:4089   */\n    tag_62:\n        /* \"#utility.yul\":4004:4015   */\n      0x00\n        /* \"#utility.yul\":4038:4044   */\n      dup3\n        /* \"#utility.yul\":4033:4036   */\n      dup3\n        /* \"#utility.yul\":4026:4045   */\n      mstore\n        /* \"#utility.yul\":4078:4082   */\n      0x20\n        /* \"#utility.yul\":4073:4076   */\n      dup3\n        /* \"#utility.yul\":4069:4083   */\n      add\n        /* \"#utility.yul\":4054:4083   */\n      swap1\n      pop\n        /* \"#utility.yul\":3905:4089   */\n      swap3\n      swap2\n      pop\n      pop\n      jump\t// out\n        /* \"#utility.yul\":4095:4227   */\n    tag_63:\n        /* \"#utility.yul\":4162:4166   */\n      0x00\n        /* \"#utility.yul\":4185:4188   */\n      dup2\n        /* \"#utility.yul\":4177:4188   */\n      swap1\n      pop\n        /* \"#utility.yul\":4215:4219   */\n      0x20\n        /* \"#utility.yul\":4210:4213   */\n      dup3\n        /* \"#utility.yul\":4206:4220   */\n      add\n        /* \"#utility.yul\":4198:4220   */\n      swap1\n      pop\n        /* \"#utility.yul\":4095:4227   */\n      swap2\n      swap1\n      pop\n      jump\t// out\n        /* \"#utility.yul\":4233:4341   */\n    tag_64:\n        /* \"#utility.yul\":4310:4334   */\n      tag_117\n        /* \"#utility.yul\":4328:4333   */\n      dup2\n        /* \"#utility.yul\":4310:4334   */\n      tag_56\n      jump\t// in\n    tag_117:\n        /* \"#utility.yul\":4305:4308   */\n      dup3\n        /* \"#utility.yul\":4298:4335   */\n      mstore\n        /* \"#utility.yul\":4233:4341   */\n      pop\n      pop\n      jump\t// out\n        /* \"#utility.yul\":4347:4526   */\n    tag_65:\n        /* \"#utility.yul\":4416:4426   */\n      0x00\n        /* \"#utility.yul\":4437:4483   */\n      tag_119\n        /* \"#utility.yul\":4479:4482   */\n      dup4\n        /* \"#utility.yul\":4471:4477   */\n      dup4\n        /* \"#utility.yul\":4437:4483   */\n      tag_64\n      jump\t// in\n    tag_119:\n        /* \"#utility.yul\":4515:4519   */\n      0x20\n        /* \"#utility.yul\":4510:4513   */\n      dup4\n        /* \"#utility.yul\":4506:4520   */\n      add\n        /* \"#utility.yul\":4492:4520   */\n      swap1\n      pop\n        /* \"#utility.yul\":4347:4526   */\n      swap3\n      swap2\n      pop\n      pop\n      jump\t// out\n        /* \"#utility.yul\":4532:4645   */\n    tag_66:\n        /* \"#utility.yul\":4602:4606   */\n      0x00\n        /* \"#utility.yul\":4634:4638   */\n      0x20\n        /* \"#utility.yul\":4629:4632   */\n      dup3\n        /* \"#utility.yul\":4625:4639   */\n      add\n        /* \"#utility.yul\":4617:4639   */\n      swap1\n      pop\n        /* \"#utility.yul\":4532:4645   */\n      swap2\n      swap1\n      pop\n      jump\t// out\n        /* \"#utility.yul\":4681:5413   */\n    tag_67:\n        /* \"#utility.yul\":4800:4803   */\n      0x00\n        /* \"#utility.yul\":4829:4883   */\n      tag_122\n        /* \"#utility.yul\":4877:4882   */\n      dup3\n        /* \"#utility.yul\":4829:4883   */\n      tag_61\n      jump\t// in\n    tag_122:\n        /* \"#utility.yul\":4899:4985   */\n      tag_123\n        /* \"#utility.yul\":4978:4984   */\n      dup2\n        /* \"#utility.yul\":4973:4976   */\n      dup6\n        /* \"#utility.yul\":4899:4985   */\n      tag_62\n      jump\t// in\n    tag_123:\n        /* \"#utility.yul\":4892:4985   */\n      swap4\n      pop\n        /* \"#utility.yul\":5009:5065   */\n      tag_124\n        /* \"#utility.yul\":5059:5064   */\n      dup4\n        /* \"#utility.yul\":5009:5065   */\n      tag_63\n      jump\t// in\n    tag_124:\n        /* \"#utility.yul\":5088:5095   */\n      dup1\n        /* \"#utility.yul\":5119:5120   */\n      0x00\n        /* \"#utility.yul\":5104:5388   */\n    tag_125:\n        /* \"#utility.yul\":5129:5135   */\n      dup4\n        /* \"#utility.yul\":5126:5127   */\n      dup2\n        /* \"#utility.yul\":5123:5136   */\n      lt\n        /* \"#utility.yul\":5104:5388   */\n      iszero\n      tag_127\n      jumpi\n        /* \"#utility.yul\":5205:5211   */\n      dup2\n        /* \"#utility.yul\":5199:5212   */\n      mload\n        /* \"#utility.yul\":5232:5295   */\n      tag_128\n        /* \"#utility.yul\":5291:5294   */\n      dup9\n        /* \"#utility.yul\":5276:5289   */\n      dup3\n        /* \"#utility.yul\":5232:5295   */\n      tag_65\n      jump\t// in\n    tag_128:\n        /* \"#utility.yul\":5225:5295   */\n      swap8\n      pop\n        /* \"#utility.yul\":5318:5378   */\n      tag_129\n        /* \"#utility.yul\":5371:5377   */\n      dup4\n        /* \"#utility.yul\":5318:5378   */\n      tag_66\n      jump\t// in\n    tag_129:\n        /* \"#utility.yul\":5308:5378   */\n      swap3\n      pop\n        /* \"#utility.yul\":5164:5388   */\n      pop\n        /* \"#utility.yul\":5151:5152   */\n      0x01\n        /* \"#utility.yul\":5148:5149   */\n      dup2\n        /* \"#utility.yul\":5144:5153   */\n      add\n        /* \"#utility.yul\":5139:5153   */\n      swap1\n      pop\n        /* \"#utility.yul\":5104:5388   */\n      jump(tag_125)\n    tag_127:\n        /* \"#utility.yul\":5108:5122   */\n      pop\n        /* \"#utility.yul\":5404:5407   */\n      dup6\n        /* \"#utility.yul\":5397:5407   */\n      swap4\n      pop\n        /* \"#utility.yul\":4805:5413   */\n      pop\n      pop\n      pop\n        /* \"#utility.yul\":4681:5413   */\n      swap3\n      swap2\n      pop\n      pop\n      jump\t// out\n        /* \"#utility.yul\":5419:5792   */\n    tag_9:\n        /* \"#utility.yul\":5562:5566   */\n      0x00\n        /* \"#utility.yul\":5600:5602   */\n      0x20\n        /* \"#utility.yul\":5589:5598   */\n      dup3\n        /* \"#utility.yul\":5585:5603   */\n      add\n        /* \"#utility.yul\":5577:5603   */\n      swap1\n      pop\n        /* \"#utility.yul\":5649:5658   */\n      dup2\n        /* \"#utility.yul\":5643:5647   */\n      dup2\n        /* \"#utility.yul\":5639:5659   */\n      sub\n        /* \"#utility.yul\":5635:5636   */\n      0x00\n        /* \"#utility.yul\":5624:5633   */\n      dup4\n        /* \"#utility.yul\":5620:5637   */\n      add\n        /* \"#utility.yul\":5613:5660   */\n      mstore\n        /* \"#utility.yul\":5677:5785   */\n      tag_131\n        /* \"#utility.yul\":5780:5784   */\n      dup2\n        /* \"#utility.yul\":5771:5777   */\n      dup5\n        /* \"#utility.yul\":5677:5785   */\n      tag_67\n      jump\t// in\n    tag_131:\n        /* \"#utility.yul\":5669:5785   */\n      swap1\n      pop\n        /* \"#utility.yul\":5419:5792   */\n      swap3\n      swap2\n      pop\n      pop\n      jump\t// out\n        /* \"#utility.yul\":5798:5978   */\n    tag_68:\n        /* \"#utility.yul\":5846:5923   */\n      0x4e487b7100000000000000000000000000000000000000000000000000000000\n        /* \"#utility.yul\":5843:5844   */\n      0x00\n        /* \"#utility.yul\":5836:5924   */\n      mstore\n        /* \"#utility.yul\":5943:5947   */\n      0x11\n        /* \"#utility.yul\":5940:5941   */\n      0x04\n        /* \"#utility.yul\":5933:5948   */\n      mstore\n        /* \"#utility.yul\":5967:5971   */\n      0x24\n        /* \"#utility.yul\":5964:5965   */\n      0x00\n        /* \"#utility.yul\":5957:5972   */\n      revert\n        /* \"#utility.yul\":5984:6175   */\n    tag_12:\n        /* \"#utility.yul\":6024:6027   */\n      0x00\n        /* \"#utility.yul\":6043:6063   */\n      tag_134\n        /* \"#utility.yul\":6061:6062   */\n      dup3\n        /* \"#utility.yul\":6043:6063   */\n      tag_56\n      jump\t// in\n    tag_134:\n        /* \"#utility.yul\":6038:6063   */\n      swap2\n      pop\n        /* \"#utility.yul\":6077:6097   */\n      tag_135\n        /* \"#utility.yul\":6095:6096   */\n      dup4\n        /* \"#utility.yul\":6077:6097   */\n      tag_56\n      jump\t// in\n    tag_135:\n        /* \"#utility.yul\":6072:6097   */\n      swap3\n      pop\n        /* \"#utility.yul\":6120:6121   */\n      dup3\n        /* \"#utility.yul\":6117:6118   */\n      dup3\n        /* \"#utility.yul\":6113:6122   */\n      add\n        /* \"#utility.yul\":6106:6122   */\n      swap1\n      pop\n        /* \"#utility.yul\":6141:6144   */\n      dup1\n        /* \"#utility.yul\":6138:6139   */\n      dup3\n        /* \"#utility.yul\":6135:6145   */\n      gt\n        /* \"#utility.yul\":6132:6168   */\n      iszero\n      tag_136\n      jumpi\n        /* \"#utility.yul\":6148:6166   */\n      tag_137\n      tag_68\n      jump\t// in\n    tag_137:\n        /* \"#utility.yul\":6132:6168   */\n    tag_136:\n        /* \"#utility.yul\":5984:6175   */\n      swap3\n      swap2\n      pop\n      pop\n      jump\t// out\n        /* \"#utility.yul\":6181:6361   */\n    tag_22:\n        /* \"#utility.yul\":6229:6306   */\n      0x4e487b7100000000000000000000000000000000000000000000000000000000\n        /* \"#utility.yul\":6226:6227   */\n      0x00\n        /* \"#utility.yul\":6219:6307   */\n      mstore\n        /* \"#utility.yul\":6326:6330   */\n      0x32\n        /* \"#utility.yul\":6323:6324   */\n      0x04\n        /* \"#utility.yul\":6316:6331   */\n      mstore\n        /* \"#utility.yul\":6350:6354   */\n      0x24\n        /* \"#utility.yul\":6347:6348   */\n      0x00\n        /* \"#utility.yul\":6340:6355   */\n      revert\n\n    auxdata: 0xa2646970667358221220eb3b3ac44ad68556c478e38beb6a895be470a7eb8e9136c131e8a9db28d6d83a64736f6c63430008190033\n}\n",
				"bytecode": {
					"linkReferences": {},
					"object": "6080604052348015600e575f80fd5b506105b08061001c5f395ff3fe608060405234801561000f575f80fd5b5060043610610029575f3560e01c8063d12152621461002d575b5f80fd5b610047600480360381019061004291906103bc565b61005d565b60405161005491906104cd565b60405180910390f35b60605f6001845161006e919061051a565b67ffffffffffffffff8111156100875761008661024d565b5b6040519080825280602002602001820160405280156100b55781602001602082028036833780820191505090505b5090505f5b845181101561010a578481815181106100d6576100d561054d565b5b60200260200101518282815181106100f1576100f061054d565b5b60200260200101818152505080806001019150506100ba565b5082818551815181106101205761011f61054d565b5b6020026020010181815250505f5b815181101561021d575f600182610145919061051a565b90505b825181101561020f578281815181106101645761016361054d565b5b602002602001015183838151811061017f5761017e61054d565b5b60200260200101511015610202578281815181106101a05761019f61054d565b5b60200260200101518383815181106101bb576101ba61054d565b5b60200260200101518484815181106101d6576101d561054d565b5b602002602001018584815181106101f0576101ef61054d565b5b60200260200101828152508281525050505b8080600101915050610148565b50808060010191505061012e565b508091505092915050565b5f604051905090565b5f80fd5b5f80fd5b5f80fd5b5f601f19601f8301169050919050565b7f4e487b71000000000000000000000000000000000000000000000000000000005f52604160045260245ffd5b6102838261023d565b810181811067ffffffffffffffff821117156102a2576102a161024d565b5b80604052505050565b5f6102b4610228565b90506102c0828261027a565b919050565b5f67ffffffffffffffff8211156102df576102de61024d565b5b602082029050602081019050919050565b5f80fd5b5f819050919050565b610306816102f4565b8114610310575f80fd5b50565b5f81359050610321816102fd565b92915050565b5f610339610334846102c5565b6102ab565b9050808382526020820190506020840283018581111561035c5761035b6102f0565b5b835b8181101561038557806103718882610313565b84526020840193505060208101905061035e565b5050509392505050565b5f82601f8301126103a3576103a2610239565b5b81356103b3848260208601610327565b91505092915050565b5f80604083850312156103d2576103d1610231565b5b5f83013567ffffffffffffffff8111156103ef576103ee610235565b5b6103fb8582860161038f565b925050602061040c85828601610313565b9150509250929050565b5f81519050919050565b5f82825260208201905092915050565b5f819050602082019050919050565b610448816102f4565b82525050565b5f610459838361043f565b60208301905092915050565b5f602082019050919050565b5f61047b82610416565b6104858185610420565b935061049083610430565b805f5b838110156104c05781516104a7888261044e565b97506104b283610465565b925050600181019050610493565b5085935050505092915050565b5f6020820190508181035f8301526104e58184610471565b905092915050565b7f4e487b71000000000000000000000000000000000000000000000000000000005f52601160045260245ffd5b5f610524826102f4565b915061052f836102f4565b9250828201905080821115610547576105466104ed565b5b92915050565b7f4e487b71000000000000000000000000000000000000000000000000000000005f52603260045260245ffdfea2646970667358221220eb3b3ac44ad68556c478e38beb6a895be470a7eb8e9136c131e8a9db28d6d83a64736f6c63430008190033",
					"opcodes": "PUSH1 0x80 PUSH1 0x40 MSTORE CALLVALUE DUP1 ISZERO PUSH1 0xE JUMPI PUSH0 DUP1 REVERT JUMPDEST POP PUSH2 0x5B0 DUP1 PUSH2 0x1C PUSH0 CODECOPY PUSH0 RETURN INVALID PUSH1 0x80 PUSH1 0x40 MSTORE CALLVALUE DUP1 ISZERO PUSH2 0xF JUMPI PUSH0 DUP1 REVERT JUMPDEST POP PUSH1 0x4 CALLDATASIZE LT PUSH2 0x29 JUMPI PUSH0 CALLDATALOAD PUSH1 0xE0 SHR DUP1 PUSH4 0xD1215262 EQ PUSH2 0x2D JUMPI JUMPDEST PUSH0 DUP1 REVERT JUMPDEST PUSH2 0x47 PUSH1 0x4 DUP1 CALLDATASIZE SUB DUP2 ADD SWAP1 PUSH2 0x42 SWAP2 SWAP1 PUSH2 0x3BC JUMP JUMPDEST PUSH2 0x5D JUMP JUMPDEST PUSH1 0x40 MLOAD PUSH2 0x54 SWAP2 SWAP1 PUSH2 0x4CD JUMP JUMPDEST PUSH1 0x40 MLOAD DUP1 SWAP2 SUB SWAP1 RETURN JUMPDEST PUSH1 0x60 PUSH0 PUSH1 0x1 DUP5 MLOAD PUSH2 0x6E SWAP2 SWAP1 PUSH2 0x51A JUMP JUMPDEST PUSH8 0xFFFFFFFFFFFFFFFF DUP2 GT ISZERO PUSH2 0x87 JUMPI PUSH2 0x86 PUSH2 0x24D JUMP JUMPDEST JUMPDEST PUSH1 0x40 MLOAD SWAP1 DUP1 DUP3 MSTORE DUP1 PUSH1 0x20 MUL PUSH1 0x20 ADD DUP3 ADD PUSH1 0x40 MSTORE DUP1 ISZERO PUSH2 0xB5 JUMPI DUP2 PUSH1 0x20 ADD PUSH1 0x20 DUP3 MUL DUP1 CALLDATASIZE DUP4 CALLDATACOPY DUP1 DUP3 ADD SWAP2 POP POP SWAP1 POP JUMPDEST POP SWAP1 POP PUSH0 JUMPDEST DUP5 MLOAD DUP2 LT ISZERO PUSH2 0x10A JUMPI DUP5 DUP2 DUP2 MLOAD DUP2 LT PUSH2 0xD6 JUMPI PUSH2 0xD5 PUSH2 0x54D JUMP JUMPDEST JUMPDEST PUSH1 0x20 MUL PUSH1 0x20 ADD ADD MLOAD DUP3 DUP3 DUP2 MLOAD DUP2 LT PUSH2 0xF1 JUMPI PUSH2 0xF0 PUSH2 0x54D JUMP JUMPDEST JUMPDEST PUSH1 0x20 MUL PUSH1 0x20 ADD ADD DUP2 DUP2 MSTORE POP POP DUP1 DUP1 PUSH1 0x1 ADD SWAP2 POP POP PUSH2 0xBA JUMP JUMPDEST POP DUP3 DUP2 DUP6 MLOAD DUP2 MLOAD DUP2 LT PUSH2 0x120 JUMPI PUSH2 0x11F PUSH2 0x54D JUMP JUMPDEST JUMPDEST PUSH1 0x20 MUL PUSH1 0x20 ADD ADD DUP2 DUP2 MSTORE POP POP PUSH0 JUMPDEST DUP2 MLOAD DUP2 LT ISZERO PUSH2 0x21D JUMPI PUSH0 PUSH1 0x1 DUP3 PUSH2 0x145 SWAP2 SWAP1 PUSH2 0x51A JUMP JUMPDEST SWAP1 POP JUMPDEST DUP3 MLOAD DUP2 LT ISZERO PUSH2 0x20F JUMPI DUP3 DUP2 DUP2 MLOAD DUP2 LT PUSH2 0x164 JUMPI PUSH2 0x163 PUSH2 0x54D JUMP JUMPDEST JUMPDEST PUSH1 0x20 MUL PUSH1 0x20 ADD ADD MLOAD DUP4 DUP4 DUP2 MLOAD DUP2 LT PUSH2 0x17F JUMPI PUSH2 0x17E PUSH2 0x54D JUMP JUMPDEST JUMPDEST PUSH1 0x20 MUL PUSH1 0x20 ADD ADD MLOAD LT ISZERO PUSH2 0x202 JUMPI DUP3 DUP2 DUP2 MLOAD DUP2 LT PUSH2 0x1A0 JUMPI PUSH2 0x19F PUSH2 0x54D JUMP JUMPDEST JUMPDEST PUSH1 0x20 MUL PUSH1 0x20 ADD ADD MLOAD DUP4 DUP4 DUP2 MLOAD DUP2 LT PUSH2 0x1BB JUMPI PUSH2 0x1BA PUSH2 0x54D JUMP JUMPDEST JUMPDEST PUSH1 0x20 MUL PUSH1 0x20 ADD ADD MLOAD DUP5 DUP5 DUP2 MLOAD DUP2 LT PUSH2 0x1D6 JUMPI PUSH2 0x1D5 PUSH2 0x54D JUMP JUMPDEST JUMPDEST PUSH1 0x20 MUL PUSH1 0x20 ADD ADD DUP6 DUP5 DUP2 MLOAD DUP2 LT PUSH2 0x1F0 JUMPI PUSH2 0x1EF PUSH2 0x54D JUMP JUMPDEST JUMPDEST PUSH1 0x20 MUL PUSH1 0x20 ADD ADD DUP3 DUP2 MSTORE POP DUP3 DUP2 MSTORE POP POP POP JUMPDEST DUP1 DUP1 PUSH1 0x1 ADD SWAP2 POP POP PUSH2 0x148 JUMP JUMPDEST POP DUP1 DUP1 PUSH1 0x1 ADD SWAP2 POP POP PUSH2 0x12E JUMP JUMPDEST POP DUP1 SWAP2 POP POP SWAP3 SWAP2 POP POP JUMP JUMPDEST PUSH0 PUSH1 0x40 MLOAD SWAP1 POP SWAP1 JUMP JUMPDEST PUSH0 DUP1 REVERT JUMPDEST PUSH0 DUP1 REVERT JUMPDEST PUSH0 DUP1 REVERT JUMPDEST PUSH0 PUSH1 0x1F NOT PUSH1 0x1F DUP4 ADD AND SWAP1 POP SWAP2 SWAP1 POP JUMP JUMPDEST PUSH32 0x4E487B7100000000000000000000000000000000000000000000000000000000 PUSH0 MSTORE PUSH1 0x41 PUSH1 0x4 MSTORE PUSH1 0x24 PUSH0 REVERT JUMPDEST PUSH2 0x283 DUP3 PUSH2 0x23D JUMP JUMPDEST DUP2 ADD DUP2 DUP2 LT PUSH8 0xFFFFFFFFFFFFFFFF DUP3 GT OR ISZERO PUSH2 0x2A2 JUMPI PUSH2 0x2A1 PUSH2 0x24D JUMP JUMPDEST JUMPDEST DUP1 PUSH1 0x40 MSTORE POP POP POP JUMP JUMPDEST PUSH0 PUSH2 0x2B4 PUSH2 0x228 JUMP JUMPDEST SWAP1 POP PUSH2 0x2C0 DUP3 DUP3 PUSH2 0x27A JUMP JUMPDEST SWAP2 SWAP1 POP JUMP JUMPDEST PUSH0 PUSH8 0xFFFFFFFFFFFFFFFF DUP3 GT ISZERO PUSH2 0x2DF JUMPI PUSH2 0x2DE PUSH2 0x24D JUMP JUMPDEST JUMPDEST PUSH1 0x20 DUP3 MUL SWAP1 POP PUSH1 0x20 DUP2 ADD SWAP1 POP SWAP2 SWAP1 POP JUMP JUMPDEST PUSH0 DUP1 REVERT JUMPDEST PUSH0 DUP2 SWAP1 POP SWAP2 SWAP1 POP JUMP JUMPDEST PUSH2 0x306 DUP2 PUSH2 0x2F4 JUMP JUMPDEST DUP2 EQ PUSH2 0x310 JUMPI PUSH0 DUP1 REVERT JUMPDEST POP JUMP JUMPDEST PUSH0 DUP2 CALLDATALOAD SWAP1 POP PUSH2 0x321 DUP2 PUSH2 0x2FD JUMP JUMPDEST SWAP3 SWAP2 POP POP JUMP JUMPDEST PUSH0 PUSH2 0x339 PUSH2 0x334 DUP5 PUSH2 0x2C5 JUMP JUMPDEST PUSH2 0x2AB JUMP JUMPDEST SWAP1 POP DUP1 DUP4 DUP3 MSTORE PUSH1 0x20 DUP3 ADD SWAP1 POP PUSH1 0x20 DUP5 MUL DUP4 ADD DUP6 DUP2 GT ISZERO PUSH2 0x35C JUMPI PUSH2 0x35B PUSH2 0x2F0 JUMP JUMPDEST JUMPDEST DUP4 JUMPDEST DUP2 DUP2 LT ISZERO PUSH2 0x385 JUMPI DUP1 PUSH2 0x371 DUP9 DUP3 PUSH2 0x313 JUMP JUMPDEST DUP5 MSTORE PUSH1 0x20 DUP5 ADD SWAP4 POP POP PUSH1 0x20 DUP2 ADD SWAP1 POP PUSH2 0x35E JUMP JUMPDEST POP POP POP SWAP4 SWAP3 POP POP POP JUMP JUMPDEST PUSH0 DUP3 PUSH1 0x1F DUP4 ADD SLT PUSH2 0x3A3 JUMPI PUSH2 0x3A2 PUSH2 0x239 JUMP JUMPDEST JUMPDEST DUP2 CALLDATALOAD PUSH2 0x3B3 DUP5 DUP3 PUSH1 0x20 DUP7 ADD PUSH2 0x327 JUMP JUMPDEST SWAP2 POP POP SWAP3 SWAP2 POP POP JUMP JUMPDEST PUSH0 DUP1 PUSH1 0x40 DUP4 DUP6 SUB SLT ISZERO PUSH2 0x3D2 JUMPI PUSH2 0x3D1 PUSH2 0x231 JUMP JUMPDEST JUMPDEST PUSH0 DUP4 ADD CALLDATALOAD PUSH8 0xFFFFFFFFFFFFFFFF DUP2 GT ISZERO PUSH2 0x3EF JUMPI PUSH2 0x3EE PUSH2 0x235 JUMP JUMPDEST JUMPDEST PUSH2 0x3FB DUP6 DUP3 DUP7 ADD PUSH2 0x38F JUMP JUMPDEST SWAP3 POP POP PUSH1 0x20 PUSH2 0x40C DUP6 DUP3 DUP7 ADD PUSH2 0x313 JUMP JUMPDEST SWAP2 POP POP SWAP3 POP SWAP3 SWAP1 POP JUMP JUMPDEST PUSH0 DUP2 MLOAD SWAP1 POP SWAP2 SWAP1 POP JUMP JUMPDEST PUSH0 DUP3 DUP3 MSTORE PUSH1 0x20 DUP3 ADD SWAP1 POP SWAP3 SWAP2 POP POP JUMP JUMPDEST PUSH0 DUP2 SWAP1 POP PUSH1 0x20 DUP3 ADD SWAP1 POP SWAP2 SWAP1 POP JUMP JUMPDEST PUSH2 0x448 DUP2 PUSH2 0x2F4 JUMP JUMPDEST DUP3 MSTORE POP POP JUMP JUMPDEST PUSH0 PUSH2 0x459 DUP4 DUP4 PUSH2 0x43F JUMP JUMPDEST PUSH1 0x20 DUP4 ADD SWAP1 POP SWAP3 SWAP2 POP POP JUMP JUMPDEST PUSH0 PUSH1 0x20 DUP3 ADD SWAP1 POP SWAP2 SWAP1 POP JUMP JUMPDEST PUSH0 PUSH2 0x47B DUP3 PUSH2 0x416 JUMP JUMPDEST PUSH2 0x485 DUP2 DUP6 PUSH2 0x420 JUMP JUMPDEST SWAP4 POP PUSH2 0x490 DUP4 PUSH2 0x430 JUMP JUMPDEST DUP1 PUSH0 JUMPDEST DUP4 DUP2 LT ISZERO PUSH2 0x4C0 JUMPI DUP2 MLOAD PUSH2 0x4A7 DUP9 DUP3 PUSH2 0x44E JUMP JUMPDEST SWAP8 POP PUSH2 0x4B2 DUP4 PUSH2 0x465 JUMP JUMPDEST SWAP3 POP POP PUSH1 0x1 DUP2 ADD SWAP1 POP PUSH2 0x493 JUMP JUMPDEST POP DUP6 SWAP4 POP POP POP POP SWAP3 SWAP2 POP POP JUMP JUMPDEST PUSH0 PUSH1 0x20 DUP3 ADD SWAP1 POP DUP2 DUP2 SUB PUSH0 DUP4 ADD MSTORE PUSH2 0x4E5 DUP2 DUP5 PUSH2 0x471 JUMP JUMPDEST SWAP1 POP SWAP3 SWAP2 POP POP JUMP JUMPDEST PUSH32 0x4E487B7100000000000000000000000000000000000000000000000000000000 PUSH0 MSTORE PUSH1 0x11 PUSH1 0x4 MSTORE PUSH1 0x24 PUSH0 REVERT JUMPDEST PUSH0 PUSH2 0x524 DUP3 PUSH2 0x2F4 JUMP JUMPDEST SWAP2 POP PUSH2 0x52F DUP4 PUSH2 0x2F4 JUMP JUMPDEST SWAP3 POP DUP3 DUP3 ADD SWAP1 POP DUP1 DUP3 GT ISZERO PUSH2 0x547 JUMPI PUSH2 0x546 PUSH2 0x4ED JUMP JUMPDEST JUMPDEST SWAP3 SWAP2 POP POP JUMP JUMPDEST PUSH32 0x4E487B7100000000000000000000000000000000000000000000000000000000 PUSH0 MSTORE PUSH1 0x32 PUSH1 0x4 MSTORE PUSH1 0x24 PUSH0 REVERT INVALID LOG2 PUSH5 0x6970667358 0x22 SLT KECCAK256 0xEB EXTCODESIZE GASPRICE 0xC4 BLOBBASEFEE 0xD6 DUP6 JUMP 0xC4 PUSH25 0xE38BEB6A895BE470A7EB8E9136C131E8A9DB28D6D83A64736F PUSH13 0x63430008190033000000000000 "
				},
				"gasEstimates": {
					"creation": {
						"codeDepositCost": "291200",
						"executionCost": "329",
						"totalCost": "291529"
					},
					"external": {
						"descending(uint256[],uint256)": "infinite"
					}
				},
				"methodIdentifiers": {
					"descending(uint256[],uint256)": "d1215262"
				}
			},
			"storageLayout": {
				"storage": [],
				"types": null
			},
			"userdoc": {
				"kind": "user",
				"methods": {},
				"version": 1
			}
		}
	}
}