{
	"solidity_100/21-30.sol": {
		"Q25": {
			"abi": [
				{
					"inputs": [
						{
							"internalType": "uint256",
							"name": "_n",
							"type": "uint256"
						}
					],
					"name": "autoPushNumber",
					"outputs": [
						{
							"internalType": "uint256[]",
							"name": "",
							"type": "uint256[]"
						}
					],
					"stateMutability": "nonpayable",
					"type": "function"
				}
			],
			"devdoc": {
				"kind": "dev",
				"methods": {},
				"version": 1
			},
			"evm": {
				"assembly": "    /* \"solidity_100/21-30.sol\":1919:2259  contract Q25 {... */\n  mstore(0x40, 0x80)\n  callvalue\n  dup1\n  iszero\n  tag_1\n  jumpi\n  0x00\n  dup1\n  revert\ntag_1:\n  pop\n  dataSize(sub_0)\n  dup1\n  dataOffset(sub_0)\n  0x00\n  codecopy\n  0x00\n  return\nstop\n\nsub_0: assembly {\n        /* \"solidity_100/21-30.sol\":1919:2259  contract Q25 {... */\n      mstore(0x40, 0x80)\n      callvalue\n      dup1\n      iszero\n      tag_1\n      jumpi\n      0x00\n      dup1\n      revert\n    tag_1:\n      pop\n      jumpi(tag_2, lt(calldatasize, 0x04))\n      shr(0xe0, calldataload(0x00))\n      dup1\n      0xe8898f55\n      eq\n      tag_3\n      jumpi\n    tag_2:\n      0x00\n      dup1\n      revert\n        /* \"solidity_100/21-30.sol\":2086:2256  function autoPushNumber(uint _n) public returns(uint[] memory) {... */\n    tag_3:\n      tag_4\n      0x04\n      dup1\n      calldatasize\n      sub\n      dup2\n      add\n      swap1\n      tag_5\n      swap2\n      swap1\n      tag_6\n      jump\t// in\n    tag_5:\n      tag_7\n      jump\t// in\n    tag_4:\n      mload(0x40)\n      tag_8\n      swap2\n      swap1\n      tag_9\n      jump\t// in\n    tag_8:\n      mload(0x40)\n      dup1\n      swap2\n      sub\n      swap1\n      return\n    tag_7:\n        /* \"solidity_100/21-30.sol\":2134:2147  uint[] memory */\n      0x60\n        /* \"solidity_100/21-30.sol\":2164:2170  uint i */\n      0x00\n        /* \"solidity_100/21-30.sol\":2160:2230  for(uint i = 0; i < _n+1; i++) {... */\n    tag_11:\n        /* \"solidity_100/21-30.sol\":2183:2184  1 */\n      0x01\n        /* \"solidity_100/21-30.sol\":2180:2182  _n */\n      dup4\n        /* \"solidity_100/21-30.sol\":2180:2184  _n+1 */\n      tag_14\n      swap2\n      swap1\n      tag_15\n      jump\t// in\n    tag_14:\n        /* \"solidity_100/21-30.sol\":2176:2177  i */\n      dup2\n        /* \"solidity_100/21-30.sol\":2176:2184  i < _n+1 */\n      lt\n        /* \"solidity_100/21-30.sol\":2160:2230  for(uint i = 0; i < _n+1; i++) {... */\n      iszero\n      tag_12\n      jumpi\n        /* \"solidity_100/21-30.sol\":2206:2207  A */\n      0x00\n        /* \"solidity_100/21-30.sol\":2216:2217  i */\n      dup2\n        /* \"solidity_100/21-30.sol\":2213:2215  _n */\n      dup5\n        /* \"solidity_100/21-30.sol\":2213:2217  _n-i */\n      tag_16\n      swap2\n      swap1\n      tag_17\n      jump\t// in\n    tag_16:\n        /* \"solidity_100/21-30.sol\":2206:2218  A.push(_n-i) */\n      swap1\n      dup1\n      0x01\n      dup2\n      sload\n      add\n      dup1\n      dup3\n      sstore\n      dup1\n      swap2\n      pop\n      pop\n      0x01\n      swap1\n      sub\n      swap1\n      0x00\n      mstore\n      keccak256(0x00, 0x20)\n      add\n      0x00\n      swap1\n      swap2\n      swap1\n      swap2\n      swap1\n      swap2\n      pop\n      sstore\n        /* \"solidity_100/21-30.sol\":2186:2189  i++ */\n      dup1\n      dup1\n      0x01\n      add\n      swap2\n      pop\n      pop\n        /* \"solidity_100/21-30.sol\":2160:2230  for(uint i = 0; i < _n+1; i++) {... */\n      jump(tag_11)\n    tag_12:\n      pop\n        /* \"solidity_100/21-30.sol\":2247:2248  A */\n      0x00\n        /* \"solidity_100/21-30.sol\":2240:2248  return A */\n      dup1\n      sload\n      dup1\n      0x20\n      mul\n      0x20\n      add\n      mload(0x40)\n      swap1\n      dup2\n      add\n      0x40\n      mstore\n      dup1\n      swap3\n      swap2\n      swap1\n      dup2\n      dup2\n      mstore\n      0x20\n      add\n      dup3\n      dup1\n      sload\n      dup1\n      iszero\n      tag_19\n      jumpi\n      0x20\n      mul\n      dup3\n      add\n      swap2\n      swap1\n      0x00\n      mstore\n      keccak256(0x00, 0x20)\n      swap1\n    tag_20:\n      dup2\n      sload\n      dup2\n      mstore\n      0x20\n      add\n      swap1\n      0x01\n      add\n      swap1\n      dup1\n      dup4\n      gt\n      tag_20\n      jumpi\n    tag_19:\n      pop\n      pop\n      pop\n      pop\n      pop\n      swap1\n      pop\n        /* \"solidity_100/21-30.sol\":2086:2256  function autoPushNumber(uint _n) public returns(uint[] memory) {... */\n      swap2\n      swap1\n      pop\n      jump\t// out\n        /* \"#utility.yul\":88:205   */\n    tag_22:\n        /* \"#utility.yul\":197:198   */\n      0x00\n        /* \"#utility.yul\":194:195   */\n      dup1\n        /* \"#utility.yul\":187:199   */\n      revert\n        /* \"#utility.yul\":334:411   */\n    tag_24:\n        /* \"#utility.yul\":371:378   */\n      0x00\n        /* \"#utility.yul\":400:405   */\n      dup2\n        /* \"#utility.yul\":389:405   */\n      swap1\n      pop\n        /* \"#utility.yul\":334:411   */\n      swap2\n      swap1\n      pop\n      jump\t// out\n        /* \"#utility.yul\":417:539   */\n    tag_25:\n        /* \"#utility.yul\":490:514   */\n      tag_41\n        /* \"#utility.yul\":508:513   */\n      dup2\n        /* \"#utility.yul\":490:514   */\n      tag_24\n      jump\t// in\n    tag_41:\n        /* \"#utility.yul\":483:488   */\n      dup2\n        /* \"#utility.yul\":480:515   */\n      eq\n        /* \"#utility.yul\":470:533   */\n      tag_42\n      jumpi\n        /* \"#utility.yul\":529:530   */\n      0x00\n        /* \"#utility.yul\":526:527   */\n      dup1\n        /* \"#utility.yul\":519:531   */\n      revert\n        /* \"#utility.yul\":470:533   */\n    tag_42:\n        /* \"#utility.yul\":417:539   */\n      pop\n      jump\t// out\n        /* \"#utility.yul\":545:684   */\n    tag_26:\n        /* \"#utility.yul\":591:596   */\n      0x00\n        /* \"#utility.yul\":629:635   */\n      dup2\n        /* \"#utility.yul\":616:636   */\n      calldataload\n        /* \"#utility.yul\":607:636   */\n      swap1\n      pop\n        /* \"#utility.yul\":645:678   */\n      tag_44\n        /* \"#utility.yul\":672:677   */\n      dup2\n        /* \"#utility.yul\":645:678   */\n      tag_25\n      jump\t// in\n    tag_44:\n        /* \"#utility.yul\":545:684   */\n      swap3\n      swap2\n      pop\n      pop\n      jump\t// out\n        /* \"#utility.yul\":690:1019   */\n    tag_6:\n        /* \"#utility.yul\":749:755   */\n      0x00\n        /* \"#utility.yul\":798:800   */\n      0x20\n        /* \"#utility.yul\":786:795   */\n      dup3\n        /* \"#utility.yul\":777:784   */\n      dup5\n        /* \"#utility.yul\":773:796   */\n      sub\n        /* \"#utility.yul\":769:801   */\n      slt\n        /* \"#utility.yul\":766:885   */\n      iszero\n      tag_46\n      jumpi\n        /* \"#utility.yul\":804:883   */\n      tag_47\n      tag_22\n      jump\t// in\n    tag_47:\n        /* \"#utility.yul\":766:885   */\n    tag_46:\n        /* \"#utility.yul\":924:925   */\n      0x00\n        /* \"#utility.yul\":949:1002   */\n      tag_48\n        /* \"#utility.yul\":994:1001   */\n      dup5\n        /* \"#utility.yul\":985:991   */\n      dup3\n        /* \"#utility.yul\":974:983   */\n      dup6\n        /* \"#utility.yul\":970:992   */\n      add\n        /* \"#utility.yul\":949:1002   */\n      tag_26\n      jump\t// in\n    tag_48:\n        /* \"#utility.yul\":939:1002   */\n      swap2\n      pop\n        /* \"#utility.yul\":895:1012   */\n      pop\n        /* \"#utility.yul\":690:1019   */\n      swap3\n      swap2\n      pop\n      pop\n      jump\t// out\n        /* \"#utility.yul\":1025:1139   */\n    tag_27:\n        /* \"#utility.yul\":1092:1098   */\n      0x00\n        /* \"#utility.yul\":1126:1131   */\n      dup2\n        /* \"#utility.yul\":1120:1132   */\n      mload\n        /* \"#utility.yul\":1110:1132   */\n      swap1\n      pop\n        /* \"#utility.yul\":1025:1139   */\n      swap2\n      swap1\n      pop\n      jump\t// out\n        /* \"#utility.yul\":1145:1329   */\n    tag_28:\n        /* \"#utility.yul\":1244:1255   */\n      0x00\n        /* \"#utility.yul\":1278:1284   */\n      dup3\n        /* \"#utility.yul\":1273:1276   */\n      dup3\n        /* \"#utility.yul\":1266:1285   */\n      mstore\n        /* \"#utility.yul\":1318:1322   */\n      0x20\n        /* \"#utility.yul\":1313:1316   */\n      dup3\n        /* \"#utility.yul\":1309:1323   */\n      add\n        /* \"#utility.yul\":1294:1323   */\n      swap1\n      pop\n        /* \"#utility.yul\":1145:1329   */\n      swap3\n      swap2\n      pop\n      pop\n      jump\t// out\n        /* \"#utility.yul\":1335:1467   */\n    tag_29:\n        /* \"#utility.yul\":1402:1406   */\n      0x00\n        /* \"#utility.yul\":1425:1428   */\n      dup2\n        /* \"#utility.yul\":1417:1428   */\n      swap1\n      pop\n        /* \"#utility.yul\":1455:1459   */\n      0x20\n        /* \"#utility.yul\":1450:1453   */\n      dup3\n        /* \"#utility.yul\":1446:1460   */\n      add\n        /* \"#utility.yul\":1438:1460   */\n      swap1\n      pop\n        /* \"#utility.yul\":1335:1467   */\n      swap2\n      swap1\n      pop\n      jump\t// out\n        /* \"#utility.yul\":1473:1581   */\n    tag_30:\n        /* \"#utility.yul\":1550:1574   */\n      tag_53\n        /* \"#utility.yul\":1568:1573   */\n      dup2\n        /* \"#utility.yul\":1550:1574   */\n      tag_24\n      jump\t// in\n    tag_53:\n        /* \"#utility.yul\":1545:1548   */\n      dup3\n        /* \"#utility.yul\":1538:1575   */\n      mstore\n        /* \"#utility.yul\":1473:1581   */\n      pop\n      pop\n      jump\t// out\n        /* \"#utility.yul\":1587:1766   */\n    tag_31:\n        /* \"#utility.yul\":1656:1666   */\n      0x00\n        /* \"#utility.yul\":1677:1723   */\n      tag_55\n        /* \"#utility.yul\":1719:1722   */\n      dup4\n        /* \"#utility.yul\":1711:1717   */\n      dup4\n        /* \"#utility.yul\":1677:1723   */\n      tag_30\n      jump\t// in\n    tag_55:\n        /* \"#utility.yul\":1755:1759   */\n      0x20\n        /* \"#utility.yul\":1750:1753   */\n      dup4\n        /* \"#utility.yul\":1746:1760   */\n      add\n        /* \"#utility.yul\":1732:1760   */\n      swap1\n      pop\n        /* \"#utility.yul\":1587:1766   */\n      swap3\n      swap2\n      pop\n      pop\n      jump\t// out\n        /* \"#utility.yul\":1772:1885   */\n    tag_32:\n        /* \"#utility.yul\":1842:1846   */\n      0x00\n        /* \"#utility.yul\":1874:1878   */\n      0x20\n        /* \"#utility.yul\":1869:1872   */\n      dup3\n        /* \"#utility.yul\":1865:1879   */\n      add\n        /* \"#utility.yul\":1857:1879   */\n      swap1\n      pop\n        /* \"#utility.yul\":1772:1885   */\n      swap2\n      swap1\n      pop\n      jump\t// out\n        /* \"#utility.yul\":1921:2653   */\n    tag_33:\n        /* \"#utility.yul\":2040:2043   */\n      0x00\n        /* \"#utility.yul\":2069:2123   */\n      tag_58\n        /* \"#utility.yul\":2117:2122   */\n      dup3\n        /* \"#utility.yul\":2069:2123   */\n      tag_27\n      jump\t// in\n    tag_58:\n        /* \"#utility.yul\":2139:2225   */\n      tag_59\n        /* \"#utility.yul\":2218:2224   */\n      dup2\n        /* \"#utility.yul\":2213:2216   */\n      dup6\n        /* \"#utility.yul\":2139:2225   */\n      tag_28\n      jump\t// in\n    tag_59:\n        /* \"#utility.yul\":2132:2225   */\n      swap4\n      pop\n        /* \"#utility.yul\":2249:2305   */\n      tag_60\n        /* \"#utility.yul\":2299:2304   */\n      dup4\n        /* \"#utility.yul\":2249:2305   */\n      tag_29\n      jump\t// in\n    tag_60:\n        /* \"#utility.yul\":2328:2335   */\n      dup1\n        /* \"#utility.yul\":2359:2360   */\n      0x00\n        /* \"#utility.yul\":2344:2628   */\n    tag_61:\n        /* \"#utility.yul\":2369:2375   */\n      dup4\n        /* \"#utility.yul\":2366:2367   */\n      dup2\n        /* \"#utility.yul\":2363:2376   */\n      lt\n        /* \"#utility.yul\":2344:2628   */\n      iszero\n      tag_63\n      jumpi\n        /* \"#utility.yul\":2445:2451   */\n      dup2\n        /* \"#utility.yul\":2439:2452   */\n      mload\n        /* \"#utility.yul\":2472:2535   */\n      tag_64\n        /* \"#utility.yul\":2531:2534   */\n      dup9\n        /* \"#utility.yul\":2516:2529   */\n      dup3\n        /* \"#utility.yul\":2472:2535   */\n      tag_31\n      jump\t// in\n    tag_64:\n        /* \"#utility.yul\":2465:2535   */\n      swap8\n      pop\n        /* \"#utility.yul\":2558:2618   */\n      tag_65\n        /* \"#utility.yul\":2611:2617   */\n      dup4\n        /* \"#utility.yul\":2558:2618   */\n      tag_32\n      jump\t// in\n    tag_65:\n        /* \"#utility.yul\":2548:2618   */\n      swap3\n      pop\n        /* \"#utility.yul\":2404:2628   */\n      pop\n        /* \"#utility.yul\":2391:2392   */\n      0x01\n        /* \"#utility.yul\":2388:2389   */\n      dup2\n        /* \"#utility.yul\":2384:2393   */\n      add\n        /* \"#utility.yul\":2379:2393   */\n      swap1\n      pop\n        /* \"#utility.yul\":2344:2628   */\n      jump(tag_61)\n    tag_63:\n        /* \"#utility.yul\":2348:2362   */\n      pop\n        /* \"#utility.yul\":2644:2647   */\n      dup6\n        /* \"#utility.yul\":2637:2647   */\n      swap4\n      pop\n        /* \"#utility.yul\":2045:2653   */\n      pop\n      pop\n      pop\n        /* \"#utility.yul\":1921:2653   */\n      swap3\n      swap2\n      pop\n      pop\n      jump\t// out\n        /* \"#utility.yul\":2659:3032   */\n    tag_9:\n        /* \"#utility.yul\":2802:2806   */\n      0x00\n        /* \"#utility.yul\":2840:2842   */\n      0x20\n        /* \"#utility.yul\":2829:2838   */\n      dup3\n        /* \"#utility.yul\":2825:2843   */\n      add\n        /* \"#utility.yul\":2817:2843   */\n      swap1\n      pop\n        /* \"#utility.yul\":2889:2898   */\n      dup2\n        /* \"#utility.yul\":2883:2887   */\n      dup2\n        /* \"#utility.yul\":2879:2899   */\n      sub\n        /* \"#utility.yul\":2875:2876   */\n      0x00\n        /* \"#utility.yul\":2864:2873   */\n      dup4\n        /* \"#utility.yul\":2860:2877   */\n      add\n        /* \"#utility.yul\":2853:2900   */\n      mstore\n        /* \"#utility.yul\":2917:3025   */\n      tag_67\n        /* \"#utility.yul\":3020:3024   */\n      dup2\n        /* \"#utility.yul\":3011:3017   */\n      dup5\n        /* \"#utility.yul\":2917:3025   */\n      tag_33\n      jump\t// in\n    tag_67:\n        /* \"#utility.yul\":2909:3025   */\n      swap1\n      pop\n        /* \"#utility.yul\":2659:3032   */\n      swap3\n      swap2\n      pop\n      pop\n      jump\t// out\n        /* \"#utility.yul\":3038:3218   */\n    tag_34:\n        /* \"#utility.yul\":3086:3163   */\n      0x4e487b7100000000000000000000000000000000000000000000000000000000\n        /* \"#utility.yul\":3083:3084   */\n      0x00\n        /* \"#utility.yul\":3076:3164   */\n      mstore\n        /* \"#utility.yul\":3183:3187   */\n      0x11\n        /* \"#utility.yul\":3180:3181   */\n      0x04\n        /* \"#utility.yul\":3173:3188   */\n      mstore\n        /* \"#utility.yul\":3207:3211   */\n      0x24\n        /* \"#utility.yul\":3204:3205   */\n      0x00\n        /* \"#utility.yul\":3197:3212   */\n      revert\n        /* \"#utility.yul\":3224:3415   */\n    tag_15:\n        /* \"#utility.yul\":3264:3267   */\n      0x00\n        /* \"#utility.yul\":3283:3303   */\n      tag_70\n        /* \"#utility.yul\":3301:3302   */\n      dup3\n        /* \"#utility.yul\":3283:3303   */\n      tag_24\n      jump\t// in\n    tag_70:\n        /* \"#utility.yul\":3278:3303   */\n      swap2\n      pop\n        /* \"#utility.yul\":3317:3337   */\n      tag_71\n        /* \"#utility.yul\":3335:3336   */\n      dup4\n        /* \"#utility.yul\":3317:3337   */\n      tag_24\n      jump\t// in\n    tag_71:\n        /* \"#utility.yul\":3312:3337   */\n      swap3\n      pop\n        /* \"#utility.yul\":3360:3361   */\n      dup3\n        /* \"#utility.yul\":3357:3358   */\n      dup3\n        /* \"#utility.yul\":3353:3362   */\n      add\n        /* \"#utility.yul\":3346:3362   */\n      swap1\n      pop\n        /* \"#utility.yul\":3381:3384   */\n      dup1\n        /* \"#utility.yul\":3378:3379   */\n      dup3\n        /* \"#utility.yul\":3375:3385   */\n      gt\n        /* \"#utility.yul\":3372:3408   */\n      iszero\n      tag_72\n      jumpi\n        /* \"#utility.yul\":3388:3406   */\n      tag_73\n      tag_34\n      jump\t// in\n    tag_73:\n        /* \"#utility.yul\":3372:3408   */\n    tag_72:\n        /* \"#utility.yul\":3224:3415   */\n      swap3\n      swap2\n      pop\n      pop\n      jump\t// out\n        /* \"#utility.yul\":3421:3615   */\n    tag_17:\n        /* \"#utility.yul\":3461:3465   */\n      0x00\n        /* \"#utility.yul\":3481:3501   */\n      tag_75\n        /* \"#utility.yul\":3499:3500   */\n      dup3\n        /* \"#utility.yul\":3481:3501   */\n      tag_24\n      jump\t// in\n    tag_75:\n        /* \"#utility.yul\":3476:3501   */\n      swap2\n      pop\n        /* \"#utility.yul\":3515:3535   */\n      tag_76\n        /* \"#utility.yul\":3533:3534   */\n      dup4\n        /* \"#utility.yul\":3515:3535   */\n      tag_24\n      jump\t// in\n    tag_76:\n        /* \"#utility.yul\":3510:3535   */\n      swap3\n      pop\n        /* \"#utility.yul\":3559:3560   */\n      dup3\n        /* \"#utility.yul\":3556:3557   */\n      dup3\n        /* \"#utility.yul\":3552:3561   */\n      sub\n        /* \"#utility.yul\":3544:3561   */\n      swap1\n      pop\n        /* \"#utility.yul\":3583:3584   */\n      dup2\n        /* \"#utility.yul\":3577:3581   */\n      dup2\n        /* \"#utility.yul\":3574:3585   */\n      gt\n        /* \"#utility.yul\":3571:3608   */\n      iszero\n      tag_77\n      jumpi\n        /* \"#utility.yul\":3588:3606   */\n      tag_78\n      tag_34\n      jump\t// in\n    tag_78:\n        /* \"#utility.yul\":3571:3608   */\n    tag_77:\n        /* \"#utility.yul\":3421:3615   */\n      swap3\n      swap2\n      pop\n      pop\n      jump\t// out\n\n    auxdata: 0xa2646970667358221220c4fdee3bab42f118bf8973fa434a6d1a984eb675abc68dcc4d0a8abebd1b8f1c64736f6c63430008190033\n}\n",
				"bytecode": {
					"linkReferences": {},
					"object": "6080604052348015600e575f80fd5b5061030a8061001c5f395ff3fe608060405234801561000f575f80fd5b5060043610610029575f3560e01c8063e8898f551461002d575b5f80fd5b6100476004803603810190610042919061013f565b61005d565b6040516100549190610221565b60405180910390f35b60605f5b60018361006e919061026e565b8110156100b2575f818461008291906102a1565b908060018154018082558091505060019003905f5260205f20015f90919091909150558080600101915050610061565b505f8054806020026020016040519081016040528092919081815260200182805480156100fc57602002820191905f5260205f20905b8154815260200190600101908083116100e8575b50505050509050919050565b5f80fd5b5f819050919050565b61011e8161010c565b8114610128575f80fd5b50565b5f8135905061013981610115565b92915050565b5f6020828403121561015457610153610108565b5b5f6101618482850161012b565b91505092915050565b5f81519050919050565b5f82825260208201905092915050565b5f819050602082019050919050565b61019c8161010c565b82525050565b5f6101ad8383610193565b60208301905092915050565b5f602082019050919050565b5f6101cf8261016a565b6101d98185610174565b93506101e483610184565b805f5b838110156102145781516101fb88826101a2565b9750610206836101b9565b9250506001810190506101e7565b5085935050505092915050565b5f6020820190508181035f83015261023981846101c5565b905092915050565b7f4e487b71000000000000000000000000000000000000000000000000000000005f52601160045260245ffd5b5f6102788261010c565b91506102838361010c565b925082820190508082111561029b5761029a610241565b5b92915050565b5f6102ab8261010c565b91506102b68361010c565b92508282039050818111156102ce576102cd610241565b5b9291505056fea2646970667358221220c4fdee3bab42f118bf8973fa434a6d1a984eb675abc68dcc4d0a8abebd1b8f1c64736f6c63430008190033",
					"opcodes": "PUSH1 0x80 PUSH1 0x40 MSTORE CALLVALUE DUP1 ISZERO PUSH1 0xE JUMPI PUSH0 DUP1 REVERT JUMPDEST POP PUSH2 0x30A DUP1 PUSH2 0x1C PUSH0 CODECOPY PUSH0 RETURN INVALID PUSH1 0x80 PUSH1 0x40 MSTORE CALLVALUE DUP1 ISZERO PUSH2 0xF JUMPI PUSH0 DUP1 REVERT JUMPDEST POP PUSH1 0x4 CALLDATASIZE LT PUSH2 0x29 JUMPI PUSH0 CALLDATALOAD PUSH1 0xE0 SHR DUP1 PUSH4 0xE8898F55 EQ PUSH2 0x2D JUMPI JUMPDEST PUSH0 DUP1 REVERT JUMPDEST PUSH2 0x47 PUSH1 0x4 DUP1 CALLDATASIZE SUB DUP2 ADD SWAP1 PUSH2 0x42 SWAP2 SWAP1 PUSH2 0x13F JUMP JUMPDEST PUSH2 0x5D JUMP JUMPDEST PUSH1 0x40 MLOAD PUSH2 0x54 SWAP2 SWAP1 PUSH2 0x221 JUMP JUMPDEST PUSH1 0x40 MLOAD DUP1 SWAP2 SUB SWAP1 RETURN JUMPDEST PUSH1 0x60 PUSH0 JUMPDEST PUSH1 0x1 DUP4 PUSH2 0x6E SWAP2 SWAP1 PUSH2 0x26E JUMP JUMPDEST DUP2 LT ISZERO PUSH2 0xB2 JUMPI PUSH0 DUP2 DUP5 PUSH2 0x82 SWAP2 SWAP1 PUSH2 0x2A1 JUMP JUMPDEST SWAP1 DUP1 PUSH1 0x1 DUP2 SLOAD ADD DUP1 DUP3 SSTORE DUP1 SWAP2 POP POP PUSH1 0x1 SWAP1 SUB SWAP1 PUSH0 MSTORE PUSH1 0x20 PUSH0 KECCAK256 ADD PUSH0 SWAP1 SWAP2 SWAP1 SWAP2 SWAP1 SWAP2 POP SSTORE DUP1 DUP1 PUSH1 0x1 ADD SWAP2 POP POP PUSH2 0x61 JUMP JUMPDEST POP PUSH0 DUP1 SLOAD DUP1 PUSH1 0x20 MUL PUSH1 0x20 ADD PUSH1 0x40 MLOAD SWAP1 DUP2 ADD PUSH1 0x40 MSTORE DUP1 SWAP3 SWAP2 SWAP1 DUP2 DUP2 MSTORE PUSH1 0x20 ADD DUP3 DUP1 SLOAD DUP1 ISZERO PUSH2 0xFC JUMPI PUSH1 0x20 MUL DUP3 ADD SWAP2 SWAP1 PUSH0 MSTORE PUSH1 0x20 PUSH0 KECCAK256 SWAP1 JUMPDEST DUP2 SLOAD DUP2 MSTORE PUSH1 0x20 ADD SWAP1 PUSH1 0x1 ADD SWAP1 DUP1 DUP4 GT PUSH2 0xE8 JUMPI JUMPDEST POP POP POP POP POP SWAP1 POP SWAP2 SWAP1 POP JUMP JUMPDEST PUSH0 DUP1 REVERT JUMPDEST PUSH0 DUP2 SWAP1 POP SWAP2 SWAP1 POP JUMP JUMPDEST PUSH2 0x11E DUP2 PUSH2 0x10C JUMP JUMPDEST DUP2 EQ PUSH2 0x128 JUMPI PUSH0 DUP1 REVERT JUMPDEST POP JUMP JUMPDEST PUSH0 DUP2 CALLDATALOAD SWAP1 POP PUSH2 0x139 DUP2 PUSH2 0x115 JUMP JUMPDEST SWAP3 SWAP2 POP POP JUMP JUMPDEST PUSH0 PUSH1 0x20 DUP3 DUP5 SUB SLT ISZERO PUSH2 0x154 JUMPI PUSH2 0x153 PUSH2 0x108 JUMP JUMPDEST JUMPDEST PUSH0 PUSH2 0x161 DUP5 DUP3 DUP6 ADD PUSH2 0x12B JUMP JUMPDEST SWAP2 POP POP SWAP3 SWAP2 POP POP JUMP JUMPDEST PUSH0 DUP2 MLOAD SWAP1 POP SWAP2 SWAP1 POP JUMP JUMPDEST PUSH0 DUP3 DUP3 MSTORE PUSH1 0x20 DUP3 ADD SWAP1 POP SWAP3 SWAP2 POP POP JUMP JUMPDEST PUSH0 DUP2 SWAP1 POP PUSH1 0x20 DUP3 ADD SWAP1 POP SWAP2 SWAP1 POP JUMP JUMPDEST PUSH2 0x19C DUP2 PUSH2 0x10C JUMP JUMPDEST DUP3 MSTORE POP POP JUMP JUMPDEST PUSH0 PUSH2 0x1AD DUP4 DUP4 PUSH2 0x193 JUMP JUMPDEST PUSH1 0x20 DUP4 ADD SWAP1 POP SWAP3 SWAP2 POP POP JUMP JUMPDEST PUSH0 PUSH1 0x20 DUP3 ADD SWAP1 POP SWAP2 SWAP1 POP JUMP JUMPDEST PUSH0 PUSH2 0x1CF DUP3 PUSH2 0x16A JUMP JUMPDEST PUSH2 0x1D9 DUP2 DUP6 PUSH2 0x174 JUMP JUMPDEST SWAP4 POP PUSH2 0x1E4 DUP4 PUSH2 0x184 JUMP JUMPDEST DUP1 PUSH0 JUMPDEST DUP4 DUP2 LT ISZERO PUSH2 0x214 JUMPI DUP2 MLOAD PUSH2 0x1FB DUP9 DUP3 PUSH2 0x1A2 JUMP JUMPDEST SWAP8 POP PUSH2 0x206 DUP4 PUSH2 0x1B9 JUMP JUMPDEST SWAP3 POP POP PUSH1 0x1 DUP2 ADD SWAP1 POP PUSH2 0x1E7 JUMP JUMPDEST POP DUP6 SWAP4 POP POP POP POP SWAP3 SWAP2 POP POP JUMP JUMPDEST PUSH0 PUSH1 0x20 DUP3 ADD SWAP1 POP DUP2 DUP2 SUB PUSH0 DUP4 ADD MSTORE PUSH2 0x239 DUP2 DUP5 PUSH2 0x1C5 JUMP JUMPDEST SWAP1 POP SWAP3 SWAP2 POP POP JUMP JUMPDEST PUSH32 0x4E487B7100000000000000000000000000000000000000000000000000000000 PUSH0 MSTORE PUSH1 0x11 PUSH1 0x4 MSTORE PUSH1 0x24 PUSH0 REVERT JUMPDEST PUSH0 PUSH2 0x278 DUP3 PUSH2 0x10C JUMP JUMPDEST SWAP2 POP PUSH2 0x283 DUP4 PUSH2 0x10C JUMP JUMPDEST SWAP3 POP DUP3 DUP3 ADD SWAP1 POP DUP1 DUP3 GT ISZERO PUSH2 0x29B JUMPI PUSH2 0x29A PUSH2 0x241 JUMP JUMPDEST JUMPDEST SWAP3 SWAP2 POP POP JUMP JUMPDEST PUSH0 PUSH2 0x2AB DUP3 PUSH2 0x10C JUMP JUMPDEST SWAP2 POP PUSH2 0x2B6 DUP4 PUSH2 0x10C JUMP JUMPDEST SWAP3 POP DUP3 DUP3 SUB SWAP1 POP DUP2 DUP2 GT ISZERO PUSH2 0x2CE JUMPI PUSH2 0x2CD PUSH2 0x241 JUMP JUMPDEST JUMPDEST SWAP3 SWAP2 POP POP JUMP INVALID LOG2 PUSH5 0x6970667358 0x22 SLT KECCAK256 0xC4 REVERT 0xEE EXTCODESIZE 0xAB TIMESTAMP CALL XOR 0xBF DUP10 PUSH20 0xFA434A6D1A984EB675ABC68DCC4D0A8ABEBD1B8F SHR PUSH5 0x736F6C6343 STOP ADDMOD NOT STOP CALLER "
				},
				"gasEstimates": {
					"creation": {
						"codeDepositCost": "155600",
						"executionCost": "200",
						"totalCost": "155800"
					},
					"external": {
						"autoPushNumber(uint256)": "infinite"
					}
				},
				"methodIdentifiers": {
					"autoPushNumber(uint256)": "e8898f55"
				}
			},
			"storageLayout": {
				"storage": [
					{
						"astId": 155,
						"contract": "solidity_100/21-30.sol:Q25",
						"label": "A",
						"offset": 0,
						"slot": "0",
						"type": "t_array(t_uint256)dyn_storage"
					}
				],
				"types": {
					"t_array(t_uint256)dyn_storage": {
						"base": "t_uint256",
						"encoding": "dynamic_array",
						"label": "uint256[]",
						"numberOfBytes": "32"
					},
					"t_uint256": {
						"encoding": "inplace",
						"label": "uint256",
						"numberOfBytes": "32"
					}
				}
			},
			"userdoc": {
				"kind": "user",
				"methods": {},
				"version": 1
			}
		}
	}
}