{
	"solidity_100/21-30.sol": {
		"Q22": {
			"abi": [
				{
					"inputs": [
						{
							"internalType": "uint256",
							"name": "_a",
							"type": "uint256"
						},
						{
							"internalType": "uint256",
							"name": "_b",
							"type": "uint256"
						}
					],
					"name": "sub",
					"outputs": [
						{
							"internalType": "uint256",
							"name": "",
							"type": "uint256"
						}
					],
					"stateMutability": "pure",
					"type": "function"
				}
			],
			"devdoc": {
				"kind": "dev",
				"methods": {},
				"version": 1
			},
			"evm": {
				"assembly": "    /* \"solidity_100/21-30.sol\":619:1056  contract Q22 {... */\n  mstore(0x40, 0x80)\n  callvalue\n  dup1\n  iszero\n  tag_1\n  jumpi\n  0x00\n  dup1\n  revert\ntag_1:\n  pop\n  dataSize(sub_0)\n  dup1\n  dataOffset(sub_0)\n  0x00\n  codecopy\n  0x00\n  return\nstop\n\nsub_0: assembly {\n        /* \"solidity_100/21-30.sol\":619:1056  contract Q22 {... */\n      mstore(0x40, 0x80)\n      callvalue\n      dup1\n      iszero\n      tag_1\n      jumpi\n      0x00\n      dup1\n      revert\n    tag_1:\n      pop\n      jumpi(tag_2, lt(calldatasize, 0x04))\n      shr(0xe0, calldataload(0x00))\n      dup1\n      0xb67d77c5\n      eq\n      tag_3\n      jumpi\n    tag_2:\n      0x00\n      dup1\n      revert\n        /* \"solidity_100/21-30.sol\":825:1053  function sub(uint _a, uint _b) public pure returns(uint) {... */\n    tag_3:\n      tag_4\n      0x04\n      dup1\n      calldatasize\n      sub\n      dup2\n      add\n      swap1\n      tag_5\n      swap2\n      swap1\n      tag_6\n      jump\t// in\n    tag_5:\n      tag_7\n      jump\t// in\n    tag_4:\n      mload(0x40)\n      tag_8\n      swap2\n      swap1\n      tag_9\n      jump\t// in\n    tag_8:\n      mload(0x40)\n      dup1\n      swap2\n      sub\n      swap1\n      return\n    tag_7:\n        /* \"solidity_100/21-30.sol\":876:880  uint */\n      0x00\n        /* \"solidity_100/21-30.sol\":901:903  _b */\n      dup2\n        /* \"solidity_100/21-30.sol\":896:898  _a */\n      dup4\n        /* \"solidity_100/21-30.sol\":896:903  _a > _b */\n      gt\n        /* \"solidity_100/21-30.sol\":893:1046  if(_a > _b) {... */\n      iszero\n      tag_11\n      jumpi\n        /* \"solidity_100/21-30.sol\":932:934  _b */\n      dup2\n        /* \"solidity_100/21-30.sol\":927:929  _a */\n      dup4\n        /* \"solidity_100/21-30.sol\":927:934  _a - _b */\n      tag_12\n      swap2\n      swap1\n      tag_13\n      jump\t// in\n    tag_12:\n        /* \"solidity_100/21-30.sol\":920:934  return _a - _b */\n      swap1\n      pop\n      jump(tag_10)\n        /* \"solidity_100/21-30.sol\":893:1046  if(_a > _b) {... */\n    tag_11:\n        /* \"solidity_100/21-30.sol\":960:962  _b */\n      dup2\n        /* \"solidity_100/21-30.sol\":955:957  _a */\n      dup4\n        /* \"solidity_100/21-30.sol\":955:962  _a < _b */\n      lt\n        /* \"solidity_100/21-30.sol\":952:1046  if(_a < _b) {... */\n      iszero\n      tag_15\n      jumpi\n        /* \"solidity_100/21-30.sol\":991:993  _a */\n      dup3\n        /* \"solidity_100/21-30.sol\":986:988  _b */\n      dup3\n        /* \"solidity_100/21-30.sol\":986:993  _b - _a */\n      tag_16\n      swap2\n      swap1\n      tag_13\n      jump\t// in\n    tag_16:\n        /* \"solidity_100/21-30.sol\":979:993  return _b - _a */\n      swap1\n      pop\n      jump(tag_10)\n        /* \"solidity_100/21-30.sol\":952:1046  if(_a < _b) {... */\n    tag_15:\n        /* \"solidity_100/21-30.sol\":1033:1034  0 */\n      0x00\n        /* \"solidity_100/21-30.sol\":1026:1034  return 0 */\n      swap1\n      pop\n        /* \"solidity_100/21-30.sol\":825:1053  function sub(uint _a, uint _b) public pure returns(uint) {... */\n    tag_10:\n      swap3\n      swap2\n      pop\n      pop\n      jump\t// out\n        /* \"#utility.yul\":88:205   */\n    tag_19:\n        /* \"#utility.yul\":197:198   */\n      0x00\n        /* \"#utility.yul\":194:195   */\n      dup1\n        /* \"#utility.yul\":187:199   */\n      revert\n        /* \"#utility.yul\":334:411   */\n    tag_21:\n        /* \"#utility.yul\":371:378   */\n      0x00\n        /* \"#utility.yul\":400:405   */\n      dup2\n        /* \"#utility.yul\":389:405   */\n      swap1\n      pop\n        /* \"#utility.yul\":334:411   */\n      swap2\n      swap1\n      pop\n      jump\t// out\n        /* \"#utility.yul\":417:539   */\n    tag_22:\n        /* \"#utility.yul\":490:514   */\n      tag_32\n        /* \"#utility.yul\":508:513   */\n      dup2\n        /* \"#utility.yul\":490:514   */\n      tag_21\n      jump\t// in\n    tag_32:\n        /* \"#utility.yul\":483:488   */\n      dup2\n        /* \"#utility.yul\":480:515   */\n      eq\n        /* \"#utility.yul\":470:533   */\n      tag_33\n      jumpi\n        /* \"#utility.yul\":529:530   */\n      0x00\n        /* \"#utility.yul\":526:527   */\n      dup1\n        /* \"#utility.yul\":519:531   */\n      revert\n        /* \"#utility.yul\":470:533   */\n    tag_33:\n        /* \"#utility.yul\":417:539   */\n      pop\n      jump\t// out\n        /* \"#utility.yul\":545:684   */\n    tag_23:\n        /* \"#utility.yul\":591:596   */\n      0x00\n        /* \"#utility.yul\":629:635   */\n      dup2\n        /* \"#utility.yul\":616:636   */\n      calldataload\n        /* \"#utility.yul\":607:636   */\n      swap1\n      pop\n        /* \"#utility.yul\":645:678   */\n      tag_35\n        /* \"#utility.yul\":672:677   */\n      dup2\n        /* \"#utility.yul\":645:678   */\n      tag_22\n      jump\t// in\n    tag_35:\n        /* \"#utility.yul\":545:684   */\n      swap3\n      swap2\n      pop\n      pop\n      jump\t// out\n        /* \"#utility.yul\":690:1164   */\n    tag_6:\n        /* \"#utility.yul\":758:764   */\n      0x00\n        /* \"#utility.yul\":766:772   */\n      dup1\n        /* \"#utility.yul\":815:817   */\n      0x40\n        /* \"#utility.yul\":803:812   */\n      dup4\n        /* \"#utility.yul\":794:801   */\n      dup6\n        /* \"#utility.yul\":790:813   */\n      sub\n        /* \"#utility.yul\":786:818   */\n      slt\n        /* \"#utility.yul\":783:902   */\n      iszero\n      tag_37\n      jumpi\n        /* \"#utility.yul\":821:900   */\n      tag_38\n      tag_19\n      jump\t// in\n    tag_38:\n        /* \"#utility.yul\":783:902   */\n    tag_37:\n        /* \"#utility.yul\":941:942   */\n      0x00\n        /* \"#utility.yul\":966:1019   */\n      tag_39\n        /* \"#utility.yul\":1011:1018   */\n      dup6\n        /* \"#utility.yul\":1002:1008   */\n      dup3\n        /* \"#utility.yul\":991:1000   */\n      dup7\n        /* \"#utility.yul\":987:1009   */\n      add\n        /* \"#utility.yul\":966:1019   */\n      tag_23\n      jump\t// in\n    tag_39:\n        /* \"#utility.yul\":956:1019   */\n      swap3\n      pop\n        /* \"#utility.yul\":912:1029   */\n      pop\n        /* \"#utility.yul\":1068:1070   */\n      0x20\n        /* \"#utility.yul\":1094:1147   */\n      tag_40\n        /* \"#utility.yul\":1139:1146   */\n      dup6\n        /* \"#utility.yul\":1130:1136   */\n      dup3\n        /* \"#utility.yul\":1119:1128   */\n      dup7\n        /* \"#utility.yul\":1115:1137   */\n      add\n        /* \"#utility.yul\":1094:1147   */\n      tag_23\n      jump\t// in\n    tag_40:\n        /* \"#utility.yul\":1084:1147   */\n      swap2\n      pop\n        /* \"#utility.yul\":1039:1157   */\n      pop\n        /* \"#utility.yul\":690:1164   */\n      swap3\n      pop\n      swap3\n      swap1\n      pop\n      jump\t// out\n        /* \"#utility.yul\":1170:1288   */\n    tag_24:\n        /* \"#utility.yul\":1257:1281   */\n      tag_42\n        /* \"#utility.yul\":1275:1280   */\n      dup2\n        /* \"#utility.yul\":1257:1281   */\n      tag_21\n      jump\t// in\n    tag_42:\n        /* \"#utility.yul\":1252:1255   */\n      dup3\n        /* \"#utility.yul\":1245:1282   */\n      mstore\n        /* \"#utility.yul\":1170:1288   */\n      pop\n      pop\n      jump\t// out\n        /* \"#utility.yul\":1294:1516   */\n    tag_9:\n        /* \"#utility.yul\":1387:1391   */\n      0x00\n        /* \"#utility.yul\":1425:1427   */\n      0x20\n        /* \"#utility.yul\":1414:1423   */\n      dup3\n        /* \"#utility.yul\":1410:1428   */\n      add\n        /* \"#utility.yul\":1402:1428   */\n      swap1\n      pop\n        /* \"#utility.yul\":1438:1509   */\n      tag_44\n        /* \"#utility.yul\":1506:1507   */\n      0x00\n        /* \"#utility.yul\":1495:1504   */\n      dup4\n        /* \"#utility.yul\":1491:1508   */\n      add\n        /* \"#utility.yul\":1482:1488   */\n      dup5\n        /* \"#utility.yul\":1438:1509   */\n      tag_24\n      jump\t// in\n    tag_44:\n        /* \"#utility.yul\":1294:1516   */\n      swap3\n      swap2\n      pop\n      pop\n      jump\t// out\n        /* \"#utility.yul\":1522:1702   */\n    tag_25:\n        /* \"#utility.yul\":1570:1647   */\n      0x4e487b7100000000000000000000000000000000000000000000000000000000\n        /* \"#utility.yul\":1567:1568   */\n      0x00\n        /* \"#utility.yul\":1560:1648   */\n      mstore\n        /* \"#utility.yul\":1667:1671   */\n      0x11\n        /* \"#utility.yul\":1664:1665   */\n      0x04\n        /* \"#utility.yul\":1657:1672   */\n      mstore\n        /* \"#utility.yul\":1691:1695   */\n      0x24\n        /* \"#utility.yul\":1688:1689   */\n      0x00\n        /* \"#utility.yul\":1681:1696   */\n      revert\n        /* \"#utility.yul\":1708:1902   */\n    tag_13:\n        /* \"#utility.yul\":1748:1752   */\n      0x00\n        /* \"#utility.yul\":1768:1788   */\n      tag_47\n        /* \"#utility.yul\":1786:1787   */\n      dup3\n        /* \"#utility.yul\":1768:1788   */\n      tag_21\n      jump\t// in\n    tag_47:\n        /* \"#utility.yul\":1763:1788   */\n      swap2\n      pop\n        /* \"#utility.yul\":1802:1822   */\n      tag_48\n        /* \"#utility.yul\":1820:1821   */\n      dup4\n        /* \"#utility.yul\":1802:1822   */\n      tag_21\n      jump\t// in\n    tag_48:\n        /* \"#utility.yul\":1797:1822   */\n      swap3\n      pop\n        /* \"#utility.yul\":1846:1847   */\n      dup3\n        /* \"#utility.yul\":1843:1844   */\n      dup3\n        /* \"#utility.yul\":1839:1848   */\n      sub\n        /* \"#utility.yul\":1831:1848   */\n      swap1\n      pop\n        /* \"#utility.yul\":1870:1871   */\n      dup2\n        /* \"#utility.yul\":1864:1868   */\n      dup2\n        /* \"#utility.yul\":1861:1872   */\n      gt\n        /* \"#utility.yul\":1858:1895   */\n      iszero\n      tag_49\n      jumpi\n        /* \"#utility.yul\":1875:1893   */\n      tag_50\n      tag_25\n      jump\t// in\n    tag_50:\n        /* \"#utility.yul\":1858:1895   */\n    tag_49:\n        /* \"#utility.yul\":1708:1902   */\n      swap3\n      swap2\n      pop\n      pop\n      jump\t// out\n\n    auxdata: 0xa2646970667358221220dd47ad333b82fc62d1e1f26db52b6cb79f7a874b307b17cbe55dc69d85f13cb764736f6c63430008190033\n}\n",
				"bytecode": {
					"linkReferences": {},
					"object": "6080604052348015600e575f80fd5b506101d18061001c5f395ff3fe608060405234801561000f575f80fd5b5060043610610029575f3560e01c8063b67d77c51461002d575b5f80fd5b610047600480360381019061004291906100d5565b61005d565b6040516100549190610122565b60405180910390f35b5f818311156100795781836100729190610168565b9050610098565b8183101561009457828261008d9190610168565b9050610098565b5f90505b92915050565b5f80fd5b5f819050919050565b6100b4816100a2565b81146100be575f80fd5b50565b5f813590506100cf816100ab565b92915050565b5f80604083850312156100eb576100ea61009e565b5b5f6100f8858286016100c1565b9250506020610109858286016100c1565b9150509250929050565b61011c816100a2565b82525050565b5f6020820190506101355f830184610113565b92915050565b7f4e487b71000000000000000000000000000000000000000000000000000000005f52601160045260245ffd5b5f610172826100a2565b915061017d836100a2565b92508282039050818111156101955761019461013b565b5b9291505056fea2646970667358221220dd47ad333b82fc62d1e1f26db52b6cb79f7a874b307b17cbe55dc69d85f13cb764736f6c63430008190033",
					"opcodes": "PUSH1 0x80 PUSH1 0x40 MSTORE CALLVALUE DUP1 ISZERO PUSH1 0xE JUMPI PUSH0 DUP1 REVERT JUMPDEST POP PUSH2 0x1D1 DUP1 PUSH2 0x1C PUSH0 CODECOPY PUSH0 RETURN INVALID PUSH1 0x80 PUSH1 0x40 MSTORE CALLVALUE DUP1 ISZERO PUSH2 0xF JUMPI PUSH0 DUP1 REVERT JUMPDEST POP PUSH1 0x4 CALLDATASIZE LT PUSH2 0x29 JUMPI PUSH0 CALLDATALOAD PUSH1 0xE0 SHR DUP1 PUSH4 0xB67D77C5 EQ PUSH2 0x2D JUMPI JUMPDEST PUSH0 DUP1 REVERT JUMPDEST PUSH2 0x47 PUSH1 0x4 DUP1 CALLDATASIZE SUB DUP2 ADD SWAP1 PUSH2 0x42 SWAP2 SWAP1 PUSH2 0xD5 JUMP JUMPDEST PUSH2 0x5D JUMP JUMPDEST PUSH1 0x40 MLOAD PUSH2 0x54 SWAP2 SWAP1 PUSH2 0x122 JUMP JUMPDEST PUSH1 0x40 MLOAD DUP1 SWAP2 SUB SWAP1 RETURN JUMPDEST PUSH0 DUP2 DUP4 GT ISZERO PUSH2 0x79 JUMPI DUP2 DUP4 PUSH2 0x72 SWAP2 SWAP1 PUSH2 0x168 JUMP JUMPDEST SWAP1 POP PUSH2 0x98 JUMP JUMPDEST DUP2 DUP4 LT ISZERO PUSH2 0x94 JUMPI DUP3 DUP3 PUSH2 0x8D SWAP2 SWAP1 PUSH2 0x168 JUMP JUMPDEST SWAP1 POP PUSH2 0x98 JUMP JUMPDEST PUSH0 SWAP1 POP JUMPDEST SWAP3 SWAP2 POP POP JUMP JUMPDEST PUSH0 DUP1 REVERT JUMPDEST PUSH0 DUP2 SWAP1 POP SWAP2 SWAP1 POP JUMP JUMPDEST PUSH2 0xB4 DUP2 PUSH2 0xA2 JUMP JUMPDEST DUP2 EQ PUSH2 0xBE JUMPI PUSH0 DUP1 REVERT JUMPDEST POP JUMP JUMPDEST PUSH0 DUP2 CALLDATALOAD SWAP1 POP PUSH2 0xCF DUP2 PUSH2 0xAB JUMP JUMPDEST SWAP3 SWAP2 POP POP JUMP JUMPDEST PUSH0 DUP1 PUSH1 0x40 DUP4 DUP6 SUB SLT ISZERO PUSH2 0xEB JUMPI PUSH2 0xEA PUSH2 0x9E JUMP JUMPDEST JUMPDEST PUSH0 PUSH2 0xF8 DUP6 DUP3 DUP7 ADD PUSH2 0xC1 JUMP JUMPDEST SWAP3 POP POP PUSH1 0x20 PUSH2 0x109 DUP6 DUP3 DUP7 ADD PUSH2 0xC1 JUMP JUMPDEST SWAP2 POP POP SWAP3 POP SWAP3 SWAP1 POP JUMP JUMPDEST PUSH2 0x11C DUP2 PUSH2 0xA2 JUMP JUMPDEST DUP3 MSTORE POP POP JUMP JUMPDEST PUSH0 PUSH1 0x20 DUP3 ADD SWAP1 POP PUSH2 0x135 PUSH0 DUP4 ADD DUP5 PUSH2 0x113 JUMP JUMPDEST SWAP3 SWAP2 POP POP JUMP JUMPDEST PUSH32 0x4E487B7100000000000000000000000000000000000000000000000000000000 PUSH0 MSTORE PUSH1 0x11 PUSH1 0x4 MSTORE PUSH1 0x24 PUSH0 REVERT JUMPDEST PUSH0 PUSH2 0x172 DUP3 PUSH2 0xA2 JUMP JUMPDEST SWAP2 POP PUSH2 0x17D DUP4 PUSH2 0xA2 JUMP JUMPDEST SWAP3 POP DUP3 DUP3 SUB SWAP1 POP DUP2 DUP2 GT ISZERO PUSH2 0x195 JUMPI PUSH2 0x194 PUSH2 0x13B JUMP JUMPDEST JUMPDEST SWAP3 SWAP2 POP POP JUMP INVALID LOG2 PUSH5 0x6970667358 0x22 SLT KECCAK256 0xDD SELFBALANCE 0xAD CALLER EXTCODESIZE DUP3 0xFC PUSH3 0xD1E1F2 PUSH14 0xB52B6CB79F7A874B307B17CBE55D 0xC6 SWAP14 DUP6 CALL EXTCODECOPY 0xB7 PUSH5 0x736F6C6343 STOP ADDMOD NOT STOP CALLER "
				},
				"gasEstimates": {
					"creation": {
						"codeDepositCost": "93000",
						"executionCost": "139",
						"totalCost": "93139"
					},
					"external": {
						"sub(uint256,uint256)": "infinite"
					}
				},
				"methodIdentifiers": {
					"sub(uint256,uint256)": "b67d77c5"
				}
			},
			"storageLayout": {
				"storage": [],
				"types": null
			},
			"userdoc": {
				"kind": "user",
				"methods": {},
				"version": 1
			}
		}
	}
}