{
	"solidity_100/71-80.sol": {
		"Q80": {
			"abi": [
				{
					"inputs": [],
					"name": "getArray",
					"outputs": [
						{
							"internalType": "uint256[]",
							"name": "",
							"type": "uint256[]"
						}
					],
					"stateMutability": "view",
					"type": "function"
				},
				{
					"inputs": [
						{
							"internalType": "uint256",
							"name": "",
							"type": "uint256"
						}
					],
					"name": "numArray",
					"outputs": [
						{
							"internalType": "uint256",
							"name": "",
							"type": "uint256"
						}
					],
					"stateMutability": "view",
					"type": "function"
				},
				{
					"inputs": [],
					"name": "popNum",
					"outputs": [],
					"stateMutability": "nonpayable",
					"type": "function"
				},
				{
					"inputs": [
						{
							"internalType": "uint256",
							"name": "a",
							"type": "uint256"
						}
					],
					"name": "pushNum",
					"outputs": [
						{
							"internalType": "uint256[]",
							"name": "",
							"type": "uint256[]"
						}
					],
					"stateMutability": "nonpayable",
					"type": "function"
				}
			],
			"devdoc": {
				"kind": "dev",
				"methods": {},
				"version": 1
			},
			"evm": {
				"assembly": "    /* \"solidity_100/71-80.sol\":8451:10162  contract Q80 {... */\n  mstore(0x40, 0x80)\n  callvalue\n  dup1\n  iszero\n  tag_1\n  jumpi\n  0x00\n  dup1\n  revert\ntag_1:\n  pop\n  dataSize(sub_0)\n  dup1\n  dataOffset(sub_0)\n  0x00\n  codecopy\n  0x00\n  return\nstop\n\nsub_0: assembly {\n        /* \"solidity_100/71-80.sol\":8451:10162  contract Q80 {... */\n      mstore(0x40, 0x80)\n      callvalue\n      dup1\n      iszero\n      tag_1\n      jumpi\n      0x00\n      dup1\n      revert\n    tag_1:\n      pop\n      jumpi(tag_2, lt(calldatasize, 0x04))\n      shr(0xe0, calldataload(0x00))\n      dup1\n      0x6e734738\n      eq\n      tag_3\n      jumpi\n      dup1\n      0xbc07865f\n      eq\n      tag_4\n      jumpi\n      dup1\n      0xd504ea1d\n      eq\n      tag_5\n      jumpi\n      dup1\n      0xe65d1594\n      eq\n      tag_6\n      jumpi\n    tag_2:\n      0x00\n      dup1\n      revert\n        /* \"solidity_100/71-80.sol\":9032:9054  uint[] public numArray */\n    tag_3:\n      tag_7\n      0x04\n      dup1\n      calldatasize\n      sub\n      dup2\n      add\n      swap1\n      tag_8\n      swap2\n      swap1\n      tag_9\n      jump\t// in\n    tag_8:\n      tag_10\n      jump\t// in\n    tag_7:\n      mload(0x40)\n      tag_11\n      swap2\n      swap1\n      tag_12\n      jump\t// in\n    tag_11:\n      mload(0x40)\n      dup1\n      swap2\n      sub\n      swap1\n      return\n        /* \"solidity_100/71-80.sol\":9300:9963  function pushNum(uint a) public returns(uint[] memory){... */\n    tag_4:\n      tag_13\n      0x04\n      dup1\n      calldatasize\n      sub\n      dup2\n      add\n      swap1\n      tag_14\n      swap2\n      swap1\n      tag_9\n      jump\t// in\n    tag_14:\n      tag_15\n      jump\t// in\n    tag_13:\n      mload(0x40)\n      tag_16\n      swap2\n      swap1\n      tag_17\n      jump\t// in\n    tag_16:\n      mload(0x40)\n      dup1\n      swap2\n      sub\n      swap1\n      return\n        /* \"solidity_100/71-80.sol\":10037:10126  function getArray() public view returns(uint[] memory) {... */\n    tag_5:\n      tag_18\n      tag_19\n      jump\t// in\n    tag_18:\n      mload(0x40)\n      tag_20\n      swap2\n      swap1\n      tag_17\n      jump\t// in\n    tag_20:\n      mload(0x40)\n      dup1\n      swap2\n      sub\n      swap1\n      return\n        /* \"solidity_100/71-80.sol\":9971:10029  function popNum() public {... */\n    tag_6:\n      tag_21\n      tag_22\n      jump\t// in\n    tag_21:\n      stop\n        /* \"solidity_100/71-80.sol\":9032:9054  uint[] public numArray */\n    tag_10:\n      0x00\n      dup2\n      dup2\n      sload\n      dup2\n      lt\n      tag_23\n      jumpi\n      0x00\n      dup1\n      revert\n    tag_23:\n      swap1\n      0x00\n      mstore\n      keccak256(0x00, 0x20)\n      add\n      0x00\n      swap2\n      pop\n      swap1\n      pop\n      sload\n      dup2\n      jump\t// out\n        /* \"solidity_100/71-80.sol\":9300:9963  function pushNum(uint a) public returns(uint[] memory){... */\n    tag_15:\n        /* \"solidity_100/71-80.sol\":9340:9353  uint[] memory */\n      0x60\n        /* \"solidity_100/71-80.sol\":9365:9383  uint[] memory temp */\n      0x00\n        /* \"solidity_100/71-80.sol\":9386:9394  numArray */\n      dup1\n        /* \"solidity_100/71-80.sol\":9365:9394  uint[] memory temp = numArray */\n      dup1\n      sload\n      dup1\n      0x20\n      mul\n      0x20\n      add\n      mload(0x40)\n      swap1\n      dup2\n      add\n      0x40\n      mstore\n      dup1\n      swap3\n      swap2\n      swap1\n      dup2\n      dup2\n      mstore\n      0x20\n      add\n      dup3\n      dup1\n      sload\n      dup1\n      iszero\n      tag_26\n      jumpi\n      0x20\n      mul\n      dup3\n      add\n      swap2\n      swap1\n      0x00\n      mstore\n      keccak256(0x00, 0x20)\n      swap1\n    tag_27:\n      dup2\n      sload\n      dup2\n      mstore\n      0x20\n      add\n      swap1\n      0x01\n      add\n      swap1\n      dup1\n      dup4\n      gt\n      tag_27\n      jumpi\n    tag_26:\n      pop\n      pop\n      pop\n      pop\n      pop\n      swap1\n      pop\n        /* \"solidity_100/71-80.sol\":9411:9430  uint[] memory temp1 */\n      0x00\n        /* \"solidity_100/71-80.sol\":9460:9461  1 */\n      0x01\n        /* \"solidity_100/71-80.sol\":9444:9452  numArray */\n      0x00\n        /* \"solidity_100/71-80.sol\":9444:9459  numArray.length */\n      dup1\n      sload\n      swap1\n      pop\n        /* \"solidity_100/71-80.sol\":9444:9461  numArray.length+1 */\n      tag_28\n      swap2\n      swap1\n      tag_29\n      jump\t// in\n    tag_28:\n        /* \"solidity_100/71-80.sol\":9433:9462  new uint[](numArray.length+1) */\n      0xffffffffffffffff\n      dup2\n      gt\n      iszero\n      tag_30\n      jumpi\n      tag_31\n      tag_32\n      jump\t// in\n    tag_31:\n    tag_30:\n      mload(0x40)\n      swap1\n      dup1\n      dup3\n      mstore\n      dup1\n      0x20\n      mul\n      0x20\n      add\n      dup3\n      add\n      0x40\n      mstore\n      dup1\n      iszero\n      tag_33\n      jumpi\n      dup2\n      0x20\n      add\n      0x20\n      dup3\n      mul\n      dup1\n      calldatasize\n      dup4\n      calldatacopy\n      dup1\n      dup3\n      add\n      swap2\n      pop\n      pop\n      swap1\n      pop\n    tag_33:\n      pop\n        /* \"solidity_100/71-80.sol\":9411:9462  uint[] memory temp1 = new uint[](numArray.length+1) */\n      swap1\n      pop\n        /* \"solidity_100/71-80.sol\":9495:9496  0 */\n      0x00\n        /* \"solidity_100/71-80.sol\":9476:9484  numArray */\n      dup1\n        /* \"solidity_100/71-80.sol\":9476:9491  numArray.length */\n      dup1\n      sload\n      swap1\n      pop\n        /* \"solidity_100/71-80.sol\":9476:9496  numArray.length == 0 */\n      sub\n        /* \"solidity_100/71-80.sol\":9473:9933  if(numArray.length == 0) {... */\n      tag_34\n      jumpi\n        /* \"solidity_100/71-80.sol\":9513:9521  numArray */\n      0x00\n        /* \"solidity_100/71-80.sol\":9527:9528  a */\n      dup5\n        /* \"solidity_100/71-80.sol\":9513:9529  numArray.push(a) */\n      swap1\n      dup1\n      0x01\n      dup2\n      sload\n      add\n      dup1\n      dup3\n      sstore\n      dup1\n      swap2\n      pop\n      pop\n      0x01\n      swap1\n      sub\n      swap1\n      0x00\n      mstore\n      keccak256(0x00, 0x20)\n      add\n      0x00\n      swap1\n      swap2\n      swap1\n      swap2\n      swap1\n      swap2\n      pop\n      sstore\n        /* \"solidity_100/71-80.sol\":9473:9933  if(numArray.length == 0) {... */\n      jump(tag_36)\n    tag_34:\n        /* \"solidity_100/71-80.sol\":9567:9573  uint i */\n      0x00\n        /* \"solidity_100/71-80.sol\":9563:9653  for(uint i= 0; i < numArray.length; i++) {... */\n    tag_37:\n        /* \"solidity_100/71-80.sol\":9582:9590  numArray */\n      0x00\n        /* \"solidity_100/71-80.sol\":9582:9597  numArray.length */\n      dup1\n      sload\n      swap1\n      pop\n        /* \"solidity_100/71-80.sol\":9578:9579  i */\n      dup2\n        /* \"solidity_100/71-80.sol\":9578:9597  i < numArray.length */\n      lt\n        /* \"solidity_100/71-80.sol\":9563:9653  for(uint i= 0; i < numArray.length; i++) {... */\n      iszero\n      tag_38\n      jumpi\n        /* \"solidity_100/71-80.sol\":9623:9631  numArray */\n      0x00\n        /* \"solidity_100/71-80.sol\":9623:9637  numArray.pop() */\n      dup1\n      sload\n      dup1\n      tag_40\n      jumpi\n      tag_41\n      tag_42\n      jump\t// in\n    tag_41:\n    tag_40:\n      0x01\n      swap1\n      sub\n      dup2\n      dup2\n      swap1\n      0x00\n      mstore\n      keccak256(0x00, 0x20)\n      add\n      0x00\n      swap1\n      sstore\n      swap1\n      sstore\n        /* \"solidity_100/71-80.sol\":9599:9602  i++ */\n      dup1\n      dup1\n      0x01\n      add\n      swap2\n      pop\n      pop\n        /* \"solidity_100/71-80.sol\":9563:9653  for(uint i= 0; i < numArray.length; i++) {... */\n      jump(tag_37)\n    tag_38:\n      pop\n        /* \"solidity_100/71-80.sol\":9681:9689  numArray */\n      0x00\n        /* \"solidity_100/71-80.sol\":9695:9696  a */\n      dup5\n        /* \"solidity_100/71-80.sol\":9681:9697  numArray.push(a) */\n      swap1\n      dup1\n      0x01\n      dup2\n      sload\n      add\n      dup1\n      dup3\n      sstore\n      dup1\n      swap2\n      pop\n      pop\n      0x01\n      swap1\n      sub\n      swap1\n      0x00\n      mstore\n      keccak256(0x00, 0x20)\n      add\n      0x00\n      swap1\n      swap2\n      swap1\n      swap2\n      swap1\n      swap2\n      pop\n      sstore\n        /* \"solidity_100/71-80.sol\":9722:9728  uint i */\n      0x00\n        /* \"solidity_100/71-80.sol\":9718:9815  for(uint i=0; i < numArray.length; i++) {... */\n    tag_45:\n        /* \"solidity_100/71-80.sol\":9736:9744  numArray */\n      0x00\n        /* \"solidity_100/71-80.sol\":9736:9751  numArray.length */\n      dup1\n      sload\n      swap1\n      pop\n        /* \"solidity_100/71-80.sol\":9732:9733  i */\n      dup2\n        /* \"solidity_100/71-80.sol\":9732:9751  i < numArray.length */\n      lt\n        /* \"solidity_100/71-80.sol\":9718:9815  for(uint i=0; i < numArray.length; i++) {... */\n      iszero\n      tag_46\n      jumpi\n        /* \"solidity_100/71-80.sol\":9788:9796  numArray */\n      0x00\n        /* \"solidity_100/71-80.sol\":9797:9798  i */\n      dup2\n        /* \"solidity_100/71-80.sol\":9788:9799  numArray[i] */\n      dup2\n      sload\n      dup2\n      lt\n      tag_48\n      jumpi\n      tag_49\n      tag_50\n      jump\t// in\n    tag_49:\n    tag_48:\n      swap1\n      0x00\n      mstore\n      keccak256(0x00, 0x20)\n      add\n      sload\n        /* \"solidity_100/71-80.sol\":9777:9782  temp1 */\n      dup3\n        /* \"solidity_100/71-80.sol\":9783:9784  i */\n      dup3\n        /* \"solidity_100/71-80.sol\":9777:9785  temp1[i] */\n      dup2\n      mload\n      dup2\n      lt\n      tag_52\n      jumpi\n      tag_53\n      tag_50\n      jump\t// in\n    tag_53:\n    tag_52:\n      0x20\n      mul\n      0x20\n      add\n      add\n        /* \"solidity_100/71-80.sol\":9777:9799  temp1[i] = numArray[i] */\n      dup2\n      dup2\n      mstore\n      pop\n      pop\n        /* \"solidity_100/71-80.sol\":9753:9756  i++ */\n      dup1\n      dup1\n      0x01\n      add\n      swap2\n      pop\n      pop\n        /* \"solidity_100/71-80.sol\":9718:9815  for(uint i=0; i < numArray.length; i++) {... */\n      jump(tag_45)\n    tag_46:\n      pop\n        /* \"solidity_100/71-80.sol\":9835:9841  uint i */\n      0x00\n        /* \"solidity_100/71-80.sol\":9831:9922  for(uint i=0; i < temp.length; i++) {... */\n    tag_54:\n        /* \"solidity_100/71-80.sol\":9849:9853  temp */\n      dup3\n        /* \"solidity_100/71-80.sol\":9849:9860  temp.length */\n      mload\n        /* \"solidity_100/71-80.sol\":9845:9846  i */\n      dup2\n        /* \"solidity_100/71-80.sol\":9845:9860  i < temp.length */\n      lt\n        /* \"solidity_100/71-80.sol\":9831:9922  for(uint i=0; i < temp.length; i++) {... */\n      iszero\n      tag_55\n      jumpi\n        /* \"solidity_100/71-80.sol\":9899:9903  temp */\n      dup3\n        /* \"solidity_100/71-80.sol\":9904:9905  i */\n      dup2\n        /* \"solidity_100/71-80.sol\":9899:9906  temp[i] */\n      dup2\n      mload\n      dup2\n      lt\n      tag_57\n      jumpi\n      tag_58\n      tag_50\n      jump\t// in\n    tag_58:\n    tag_57:\n      0x20\n      mul\n      0x20\n      add\n      add\n      mload\n        /* \"solidity_100/71-80.sol\":9886:9891  temp1 */\n      dup3\n        /* \"solidity_100/71-80.sol\":9894:9895  1 */\n      0x01\n        /* \"solidity_100/71-80.sol\":9892:9893  i */\n      dup4\n        /* \"solidity_100/71-80.sol\":9892:9895  i+1 */\n      tag_59\n      swap2\n      swap1\n      tag_29\n      jump\t// in\n    tag_59:\n        /* \"solidity_100/71-80.sol\":9886:9896  temp1[i+1] */\n      dup2\n      mload\n      dup2\n      lt\n      tag_60\n      jumpi\n      tag_61\n      tag_50\n      jump\t// in\n    tag_61:\n    tag_60:\n      0x20\n      mul\n      0x20\n      add\n      add\n        /* \"solidity_100/71-80.sol\":9886:9906  temp1[i+1] = temp[i] */\n      dup2\n      dup2\n      mstore\n      pop\n      pop\n        /* \"solidity_100/71-80.sol\":9862:9865  i++ */\n      dup1\n      dup1\n      0x01\n      add\n      swap2\n      pop\n      pop\n        /* \"solidity_100/71-80.sol\":9831:9922  for(uint i=0; i < temp.length; i++) {... */\n      jump(tag_54)\n    tag_55:\n      pop\n        /* \"solidity_100/71-80.sol\":9473:9933  if(numArray.length == 0) {... */\n    tag_36:\n        /* \"solidity_100/71-80.sol\":9950:9955  temp1 */\n      dup1\n        /* \"solidity_100/71-80.sol\":9943:9955  return temp1 */\n      swap3\n      pop\n      pop\n      pop\n        /* \"solidity_100/71-80.sol\":9300:9963  function pushNum(uint a) public returns(uint[] memory){... */\n      swap2\n      swap1\n      pop\n      jump\t// out\n        /* \"solidity_100/71-80.sol\":10037:10126  function getArray() public view returns(uint[] memory) {... */\n    tag_19:\n        /* \"solidity_100/71-80.sol\":10077:10090  uint[] memory */\n      0x60\n        /* \"solidity_100/71-80.sol\":10110:10118  numArray */\n      0x00\n        /* \"solidity_100/71-80.sol\":10103:10118  return numArray */\n      dup1\n      sload\n      dup1\n      0x20\n      mul\n      0x20\n      add\n      mload(0x40)\n      swap1\n      dup2\n      add\n      0x40\n      mstore\n      dup1\n      swap3\n      swap2\n      swap1\n      dup2\n      dup2\n      mstore\n      0x20\n      add\n      dup3\n      dup1\n      sload\n      dup1\n      iszero\n      tag_63\n      jumpi\n      0x20\n      mul\n      dup3\n      add\n      swap2\n      swap1\n      0x00\n      mstore\n      keccak256(0x00, 0x20)\n      swap1\n    tag_64:\n      dup2\n      sload\n      dup2\n      mstore\n      0x20\n      add\n      swap1\n      0x01\n      add\n      swap1\n      dup1\n      dup4\n      gt\n      tag_64\n      jumpi\n    tag_63:\n      pop\n      pop\n      pop\n      pop\n      pop\n      swap1\n      pop\n        /* \"solidity_100/71-80.sol\":10037:10126  function getArray() public view returns(uint[] memory) {... */\n      swap1\n      jump\t// out\n        /* \"solidity_100/71-80.sol\":9971:10029  function popNum() public {... */\n    tag_22:\n        /* \"solidity_100/71-80.sol\":10007:10015  numArray */\n      0x00\n        /* \"solidity_100/71-80.sol\":10007:10021  numArray.pop() */\n      dup1\n      sload\n      dup1\n      tag_66\n      jumpi\n      tag_67\n      tag_42\n      jump\t// in\n    tag_67:\n    tag_66:\n      0x01\n      swap1\n      sub\n      dup2\n      dup2\n      swap1\n      0x00\n      mstore\n      keccak256(0x00, 0x20)\n      add\n      0x00\n      swap1\n      sstore\n      swap1\n      sstore\n        /* \"solidity_100/71-80.sol\":9971:10029  function popNum() public {... */\n      jump\t// out\n        /* \"#utility.yul\":88:205   */\n    tag_70:\n        /* \"#utility.yul\":197:198   */\n      0x00\n        /* \"#utility.yul\":194:195   */\n      dup1\n        /* \"#utility.yul\":187:199   */\n      revert\n        /* \"#utility.yul\":334:411   */\n    tag_72:\n        /* \"#utility.yul\":371:378   */\n      0x00\n        /* \"#utility.yul\":400:405   */\n      dup2\n        /* \"#utility.yul\":389:405   */\n      swap1\n      pop\n        /* \"#utility.yul\":334:411   */\n      swap2\n      swap1\n      pop\n      jump\t// out\n        /* \"#utility.yul\":417:539   */\n    tag_73:\n        /* \"#utility.yul\":490:514   */\n      tag_90\n        /* \"#utility.yul\":508:513   */\n      dup2\n        /* \"#utility.yul\":490:514   */\n      tag_72\n      jump\t// in\n    tag_90:\n        /* \"#utility.yul\":483:488   */\n      dup2\n        /* \"#utility.yul\":480:515   */\n      eq\n        /* \"#utility.yul\":470:533   */\n      tag_91\n      jumpi\n        /* \"#utility.yul\":529:530   */\n      0x00\n        /* \"#utility.yul\":526:527   */\n      dup1\n        /* \"#utility.yul\":519:531   */\n      revert\n        /* \"#utility.yul\":470:533   */\n    tag_91:\n        /* \"#utility.yul\":417:539   */\n      pop\n      jump\t// out\n        /* \"#utility.yul\":545:684   */\n    tag_74:\n        /* \"#utility.yul\":591:596   */\n      0x00\n        /* \"#utility.yul\":629:635   */\n      dup2\n        /* \"#utility.yul\":616:636   */\n      calldataload\n        /* \"#utility.yul\":607:636   */\n      swap1\n      pop\n        /* \"#utility.yul\":645:678   */\n      tag_93\n        /* \"#utility.yul\":672:677   */\n      dup2\n        /* \"#utility.yul\":645:678   */\n      tag_73\n      jump\t// in\n    tag_93:\n        /* \"#utility.yul\":545:684   */\n      swap3\n      swap2\n      pop\n      pop\n      jump\t// out\n        /* \"#utility.yul\":690:1019   */\n    tag_9:\n        /* \"#utility.yul\":749:755   */\n      0x00\n        /* \"#utility.yul\":798:800   */\n      0x20\n        /* \"#utility.yul\":786:795   */\n      dup3\n        /* \"#utility.yul\":777:784   */\n      dup5\n        /* \"#utility.yul\":773:796   */\n      sub\n        /* \"#utility.yul\":769:801   */\n      slt\n        /* \"#utility.yul\":766:885   */\n      iszero\n      tag_95\n      jumpi\n        /* \"#utility.yul\":804:883   */\n      tag_96\n      tag_70\n      jump\t// in\n    tag_96:\n        /* \"#utility.yul\":766:885   */\n    tag_95:\n        /* \"#utility.yul\":924:925   */\n      0x00\n        /* \"#utility.yul\":949:1002   */\n      tag_97\n        /* \"#utility.yul\":994:1001   */\n      dup5\n        /* \"#utility.yul\":985:991   */\n      dup3\n        /* \"#utility.yul\":974:983   */\n      dup6\n        /* \"#utility.yul\":970:992   */\n      add\n        /* \"#utility.yul\":949:1002   */\n      tag_74\n      jump\t// in\n    tag_97:\n        /* \"#utility.yul\":939:1002   */\n      swap2\n      pop\n        /* \"#utility.yul\":895:1012   */\n      pop\n        /* \"#utility.yul\":690:1019   */\n      swap3\n      swap2\n      pop\n      pop\n      jump\t// out\n        /* \"#utility.yul\":1025:1143   */\n    tag_75:\n        /* \"#utility.yul\":1112:1136   */\n      tag_99\n        /* \"#utility.yul\":1130:1135   */\n      dup2\n        /* \"#utility.yul\":1112:1136   */\n      tag_72\n      jump\t// in\n    tag_99:\n        /* \"#utility.yul\":1107:1110   */\n      dup3\n        /* \"#utility.yul\":1100:1137   */\n      mstore\n        /* \"#utility.yul\":1025:1143   */\n      pop\n      pop\n      jump\t// out\n        /* \"#utility.yul\":1149:1371   */\n    tag_12:\n        /* \"#utility.yul\":1242:1246   */\n      0x00\n        /* \"#utility.yul\":1280:1282   */\n      0x20\n        /* \"#utility.yul\":1269:1278   */\n      dup3\n        /* \"#utility.yul\":1265:1283   */\n      add\n        /* \"#utility.yul\":1257:1283   */\n      swap1\n      pop\n        /* \"#utility.yul\":1293:1364   */\n      tag_101\n        /* \"#utility.yul\":1361:1362   */\n      0x00\n        /* \"#utility.yul\":1350:1359   */\n      dup4\n        /* \"#utility.yul\":1346:1363   */\n      add\n        /* \"#utility.yul\":1337:1343   */\n      dup5\n        /* \"#utility.yul\":1293:1364   */\n      tag_75\n      jump\t// in\n    tag_101:\n        /* \"#utility.yul\":1149:1371   */\n      swap3\n      swap2\n      pop\n      pop\n      jump\t// out\n        /* \"#utility.yul\":1377:1491   */\n    tag_76:\n        /* \"#utility.yul\":1444:1450   */\n      0x00\n        /* \"#utility.yul\":1478:1483   */\n      dup2\n        /* \"#utility.yul\":1472:1484   */\n      mload\n        /* \"#utility.yul\":1462:1484   */\n      swap1\n      pop\n        /* \"#utility.yul\":1377:1491   */\n      swap2\n      swap1\n      pop\n      jump\t// out\n        /* \"#utility.yul\":1497:1681   */\n    tag_77:\n        /* \"#utility.yul\":1596:1607   */\n      0x00\n        /* \"#utility.yul\":1630:1636   */\n      dup3\n        /* \"#utility.yul\":1625:1628   */\n      dup3\n        /* \"#utility.yul\":1618:1637   */\n      mstore\n        /* \"#utility.yul\":1670:1674   */\n      0x20\n        /* \"#utility.yul\":1665:1668   */\n      dup3\n        /* \"#utility.yul\":1661:1675   */\n      add\n        /* \"#utility.yul\":1646:1675   */\n      swap1\n      pop\n        /* \"#utility.yul\":1497:1681   */\n      swap3\n      swap2\n      pop\n      pop\n      jump\t// out\n        /* \"#utility.yul\":1687:1819   */\n    tag_78:\n        /* \"#utility.yul\":1754:1758   */\n      0x00\n        /* \"#utility.yul\":1777:1780   */\n      dup2\n        /* \"#utility.yul\":1769:1780   */\n      swap1\n      pop\n        /* \"#utility.yul\":1807:1811   */\n      0x20\n        /* \"#utility.yul\":1802:1805   */\n      dup3\n        /* \"#utility.yul\":1798:1812   */\n      add\n        /* \"#utility.yul\":1790:1812   */\n      swap1\n      pop\n        /* \"#utility.yul\":1687:1819   */\n      swap2\n      swap1\n      pop\n      jump\t// out\n        /* \"#utility.yul\":1825:1933   */\n    tag_79:\n        /* \"#utility.yul\":1902:1926   */\n      tag_106\n        /* \"#utility.yul\":1920:1925   */\n      dup2\n        /* \"#utility.yul\":1902:1926   */\n      tag_72\n      jump\t// in\n    tag_106:\n        /* \"#utility.yul\":1897:1900   */\n      dup3\n        /* \"#utility.yul\":1890:1927   */\n      mstore\n        /* \"#utility.yul\":1825:1933   */\n      pop\n      pop\n      jump\t// out\n        /* \"#utility.yul\":1939:2118   */\n    tag_80:\n        /* \"#utility.yul\":2008:2018   */\n      0x00\n        /* \"#utility.yul\":2029:2075   */\n      tag_108\n        /* \"#utility.yul\":2071:2074   */\n      dup4\n        /* \"#utility.yul\":2063:2069   */\n      dup4\n        /* \"#utility.yul\":2029:2075   */\n      tag_79\n      jump\t// in\n    tag_108:\n        /* \"#utility.yul\":2107:2111   */\n      0x20\n        /* \"#utility.yul\":2102:2105   */\n      dup4\n        /* \"#utility.yul\":2098:2112   */\n      add\n        /* \"#utility.yul\":2084:2112   */\n      swap1\n      pop\n        /* \"#utility.yul\":1939:2118   */\n      swap3\n      swap2\n      pop\n      pop\n      jump\t// out\n        /* \"#utility.yul\":2124:2237   */\n    tag_81:\n        /* \"#utility.yul\":2194:2198   */\n      0x00\n        /* \"#utility.yul\":2226:2230   */\n      0x20\n        /* \"#utility.yul\":2221:2224   */\n      dup3\n        /* \"#utility.yul\":2217:2231   */\n      add\n        /* \"#utility.yul\":2209:2231   */\n      swap1\n      pop\n        /* \"#utility.yul\":2124:2237   */\n      swap2\n      swap1\n      pop\n      jump\t// out\n        /* \"#utility.yul\":2273:3005   */\n    tag_82:\n        /* \"#utility.yul\":2392:2395   */\n      0x00\n        /* \"#utility.yul\":2421:2475   */\n      tag_111\n        /* \"#utility.yul\":2469:2474   */\n      dup3\n        /* \"#utility.yul\":2421:2475   */\n      tag_76\n      jump\t// in\n    tag_111:\n        /* \"#utility.yul\":2491:2577   */\n      tag_112\n        /* \"#utility.yul\":2570:2576   */\n      dup2\n        /* \"#utility.yul\":2565:2568   */\n      dup6\n        /* \"#utility.yul\":2491:2577   */\n      tag_77\n      jump\t// in\n    tag_112:\n        /* \"#utility.yul\":2484:2577   */\n      swap4\n      pop\n        /* \"#utility.yul\":2601:2657   */\n      tag_113\n        /* \"#utility.yul\":2651:2656   */\n      dup4\n        /* \"#utility.yul\":2601:2657   */\n      tag_78\n      jump\t// in\n    tag_113:\n        /* \"#utility.yul\":2680:2687   */\n      dup1\n        /* \"#utility.yul\":2711:2712   */\n      0x00\n        /* \"#utility.yul\":2696:2980   */\n    tag_114:\n        /* \"#utility.yul\":2721:2727   */\n      dup4\n        /* \"#utility.yul\":2718:2719   */\n      dup2\n        /* \"#utility.yul\":2715:2728   */\n      lt\n        /* \"#utility.yul\":2696:2980   */\n      iszero\n      tag_116\n      jumpi\n        /* \"#utility.yul\":2797:2803   */\n      dup2\n        /* \"#utility.yul\":2791:2804   */\n      mload\n        /* \"#utility.yul\":2824:2887   */\n      tag_117\n        /* \"#utility.yul\":2883:2886   */\n      dup9\n        /* \"#utility.yul\":2868:2881   */\n      dup3\n        /* \"#utility.yul\":2824:2887   */\n      tag_80\n      jump\t// in\n    tag_117:\n        /* \"#utility.yul\":2817:2887   */\n      swap8\n      pop\n        /* \"#utility.yul\":2910:2970   */\n      tag_118\n        /* \"#utility.yul\":2963:2969   */\n      dup4\n        /* \"#utility.yul\":2910:2970   */\n      tag_81\n      jump\t// in\n    tag_118:\n        /* \"#utility.yul\":2900:2970   */\n      swap3\n      pop\n        /* \"#utility.yul\":2756:2980   */\n      pop\n        /* \"#utility.yul\":2743:2744   */\n      0x01\n        /* \"#utility.yul\":2740:2741   */\n      dup2\n        /* \"#utility.yul\":2736:2745   */\n      add\n        /* \"#utility.yul\":2731:2745   */\n      swap1\n      pop\n        /* \"#utility.yul\":2696:2980   */\n      jump(tag_114)\n    tag_116:\n        /* \"#utility.yul\":2700:2714   */\n      pop\n        /* \"#utility.yul\":2996:2999   */\n      dup6\n        /* \"#utility.yul\":2989:2999   */\n      swap4\n      pop\n        /* \"#utility.yul\":2397:3005   */\n      pop\n      pop\n      pop\n        /* \"#utility.yul\":2273:3005   */\n      swap3\n      swap2\n      pop\n      pop\n      jump\t// out\n        /* \"#utility.yul\":3011:3384   */\n    tag_17:\n        /* \"#utility.yul\":3154:3158   */\n      0x00\n        /* \"#utility.yul\":3192:3194   */\n      0x20\n        /* \"#utility.yul\":3181:3190   */\n      dup3\n        /* \"#utility.yul\":3177:3195   */\n      add\n        /* \"#utility.yul\":3169:3195   */\n      swap1\n      pop\n        /* \"#utility.yul\":3241:3250   */\n      dup2\n        /* \"#utility.yul\":3235:3239   */\n      dup2\n        /* \"#utility.yul\":3231:3251   */\n      sub\n        /* \"#utility.yul\":3227:3228   */\n      0x00\n        /* \"#utility.yul\":3216:3225   */\n      dup4\n        /* \"#utility.yul\":3212:3229   */\n      add\n        /* \"#utility.yul\":3205:3252   */\n      mstore\n        /* \"#utility.yul\":3269:3377   */\n      tag_120\n        /* \"#utility.yul\":3372:3376   */\n      dup2\n        /* \"#utility.yul\":3363:3369   */\n      dup5\n        /* \"#utility.yul\":3269:3377   */\n      tag_82\n      jump\t// in\n    tag_120:\n        /* \"#utility.yul\":3261:3377   */\n      swap1\n      pop\n        /* \"#utility.yul\":3011:3384   */\n      swap3\n      swap2\n      pop\n      pop\n      jump\t// out\n        /* \"#utility.yul\":3390:3570   */\n    tag_83:\n        /* \"#utility.yul\":3438:3515   */\n      0x4e487b7100000000000000000000000000000000000000000000000000000000\n        /* \"#utility.yul\":3435:3436   */\n      0x00\n        /* \"#utility.yul\":3428:3516   */\n      mstore\n        /* \"#utility.yul\":3535:3539   */\n      0x11\n        /* \"#utility.yul\":3532:3533   */\n      0x04\n        /* \"#utility.yul\":3525:3540   */\n      mstore\n        /* \"#utility.yul\":3559:3563   */\n      0x24\n        /* \"#utility.yul\":3556:3557   */\n      0x00\n        /* \"#utility.yul\":3549:3564   */\n      revert\n        /* \"#utility.yul\":3576:3767   */\n    tag_29:\n        /* \"#utility.yul\":3616:3619   */\n      0x00\n        /* \"#utility.yul\":3635:3655   */\n      tag_123\n        /* \"#utility.yul\":3653:3654   */\n      dup3\n        /* \"#utility.yul\":3635:3655   */\n      tag_72\n      jump\t// in\n    tag_123:\n        /* \"#utility.yul\":3630:3655   */\n      swap2\n      pop\n        /* \"#utility.yul\":3669:3689   */\n      tag_124\n        /* \"#utility.yul\":3687:3688   */\n      dup4\n        /* \"#utility.yul\":3669:3689   */\n      tag_72\n      jump\t// in\n    tag_124:\n        /* \"#utility.yul\":3664:3689   */\n      swap3\n      pop\n        /* \"#utility.yul\":3712:3713   */\n      dup3\n        /* \"#utility.yul\":3709:3710   */\n      dup3\n        /* \"#utility.yul\":3705:3714   */\n      add\n        /* \"#utility.yul\":3698:3714   */\n      swap1\n      pop\n        /* \"#utility.yul\":3733:3736   */\n      dup1\n        /* \"#utility.yul\":3730:3731   */\n      dup3\n        /* \"#utility.yul\":3727:3737   */\n      gt\n        /* \"#utility.yul\":3724:3760   */\n      iszero\n      tag_125\n      jumpi\n        /* \"#utility.yul\":3740:3758   */\n      tag_126\n      tag_83\n      jump\t// in\n    tag_126:\n        /* \"#utility.yul\":3724:3760   */\n    tag_125:\n        /* \"#utility.yul\":3576:3767   */\n      swap3\n      swap2\n      pop\n      pop\n      jump\t// out\n        /* \"#utility.yul\":3773:3953   */\n    tag_32:\n        /* \"#utility.yul\":3821:3898   */\n      0x4e487b7100000000000000000000000000000000000000000000000000000000\n        /* \"#utility.yul\":3818:3819   */\n      0x00\n        /* \"#utility.yul\":3811:3899   */\n      mstore\n        /* \"#utility.yul\":3918:3922   */\n      0x41\n        /* \"#utility.yul\":3915:3916   */\n      0x04\n        /* \"#utility.yul\":3908:3923   */\n      mstore\n        /* \"#utility.yul\":3942:3946   */\n      0x24\n        /* \"#utility.yul\":3939:3940   */\n      0x00\n        /* \"#utility.yul\":3932:3947   */\n      revert\n        /* \"#utility.yul\":3959:4139   */\n    tag_42:\n        /* \"#utility.yul\":4007:4084   */\n      0x4e487b7100000000000000000000000000000000000000000000000000000000\n        /* \"#utility.yul\":4004:4005   */\n      0x00\n        /* \"#utility.yul\":3997:4085   */\n      mstore\n        /* \"#utility.yul\":4104:4108   */\n      0x31\n        /* \"#utility.yul\":4101:4102   */\n      0x04\n        /* \"#utility.yul\":4094:4109   */\n      mstore\n        /* \"#utility.yul\":4128:4132   */\n      0x24\n        /* \"#utility.yul\":4125:4126   */\n      0x00\n        /* \"#utility.yul\":4118:4133   */\n      revert\n        /* \"#utility.yul\":4145:4325   */\n    tag_50:\n        /* \"#utility.yul\":4193:4270   */\n      0x4e487b7100000000000000000000000000000000000000000000000000000000\n        /* \"#utility.yul\":4190:4191   */\n      0x00\n        /* \"#utility.yul\":4183:4271   */\n      mstore\n        /* \"#utility.yul\":4290:4294   */\n      0x32\n        /* \"#utility.yul\":4287:4288   */\n      0x04\n        /* \"#utility.yul\":4280:4295   */\n      mstore\n        /* \"#utility.yul\":4314:4318   */\n      0x24\n        /* \"#utility.yul\":4311:4312   */\n      0x00\n        /* \"#utility.yul\":4304:4319   */\n      revert\n\n    auxdata: 0xa264697066735822122054326301c4800c07bc9f5ff358098780c7c0372f32ee0ed66f62804349d8aae664736f6c63430008190033\n}\n",
				"bytecode": {
					"linkReferences": {},
					"object": "6080604052348015600e575f80fd5b506105f88061001c5f395ff3fe608060405234801561000f575f80fd5b506004361061004a575f3560e01c80636e7347381461004e578063bc07865f1461007e578063d504ea1d146100ae578063e65d1594146100cc575b5f80fd5b610068600480360381019061006391906103b1565b6100d6565b60405161007591906103eb565b60405180910390f35b610098600480360381019061009391906103b1565b6100f5565b6040516100a591906104bb565b60405180910390f35b6100b66102ff565b6040516100c391906104bb565b60405180910390f35b6100d4610354565b005b5f81815481106100e4575f80fd5b905f5260205f20015f915090505481565b60605f8080548060200260200160405190810160405280929190818152602001828054801561014157602002820191905f5260205f20905b81548152602001906001019080831161012d575b505050505090505f60015f8054905061015a9190610508565b67ffffffffffffffff8111156101735761017261053b565b5b6040519080825280602002602001820160405280156101a15781602001602082028036833780820191505090505b5090505f8080549050036101d9575f84908060018154018082558091505060019003905f5260205f20015f90919091909150556102f5565b5f5b5f80549050811015610218575f8054806101f8576101f7610568565b5b600190038181905f5260205f20015f9055905580806001019150506101db565b505f84908060018154018082558091505060019003905f5260205f20015f90919091909150555f5b5f80549050811015610294575f818154811061025f5761025e610595565b5b905f5260205f20015482828151811061027b5761027a610595565b5b6020026020010181815250508080600101915050610240565b505f5b82518110156102f3578281815181106102b3576102b2610595565b5b6020026020010151826001836102c99190610508565b815181106102da576102d9610595565b5b6020026020010181815250508080600101915050610297565b505b8092505050919050565b60605f80548060200260200160405190810160405280929190818152602001828054801561034a57602002820191905f5260205f20905b815481526020019060010190808311610336575b5050505050905090565b5f80548061036557610364610568565b5b600190038181905f5260205f20015f90559055565b5f80fd5b5f819050919050565b6103908161037e565b811461039a575f80fd5b50565b5f813590506103ab81610387565b92915050565b5f602082840312156103c6576103c561037a565b5b5f6103d38482850161039d565b91505092915050565b6103e58161037e565b82525050565b5f6020820190506103fe5f8301846103dc565b92915050565b5f81519050919050565b5f82825260208201905092915050565b5f819050602082019050919050565b6104368161037e565b82525050565b5f610447838361042d565b60208301905092915050565b5f602082019050919050565b5f61046982610404565b610473818561040e565b935061047e8361041e565b805f5b838110156104ae578151610495888261043c565b97506104a083610453565b925050600181019050610481565b5085935050505092915050565b5f6020820190508181035f8301526104d3818461045f565b905092915050565b7f4e487b71000000000000000000000000000000000000000000000000000000005f52601160045260245ffd5b5f6105128261037e565b915061051d8361037e565b9250828201905080821115610535576105346104db565b5b92915050565b7f4e487b71000000000000000000000000000000000000000000000000000000005f52604160045260245ffd5b7f4e487b71000000000000000000000000000000000000000000000000000000005f52603160045260245ffd5b7f4e487b71000000000000000000000000000000000000000000000000000000005f52603260045260245ffdfea264697066735822122054326301c4800c07bc9f5ff358098780c7c0372f32ee0ed66f62804349d8aae664736f6c63430008190033",
					"opcodes": "PUSH1 0x80 PUSH1 0x40 MSTORE CALLVALUE DUP1 ISZERO PUSH1 0xE JUMPI PUSH0 DUP1 REVERT JUMPDEST POP PUSH2 0x5F8 DUP1 PUSH2 0x1C PUSH0 CODECOPY PUSH0 RETURN INVALID PUSH1 0x80 PUSH1 0x40 MSTORE CALLVALUE DUP1 ISZERO PUSH2 0xF JUMPI PUSH0 DUP1 REVERT JUMPDEST POP PUSH1 0x4 CALLDATASIZE LT PUSH2 0x4A JUMPI PUSH0 CALLDATALOAD PUSH1 0xE0 SHR DUP1 PUSH4 0x6E734738 EQ PUSH2 0x4E JUMPI DUP1 PUSH4 0xBC07865F EQ PUSH2 0x7E JUMPI DUP1 PUSH4 0xD504EA1D EQ PUSH2 0xAE JUMPI DUP1 PUSH4 0xE65D1594 EQ PUSH2 0xCC JUMPI JUMPDEST PUSH0 DUP1 REVERT JUMPDEST PUSH2 0x68 PUSH1 0x4 DUP1 CALLDATASIZE SUB DUP2 ADD SWAP1 PUSH2 0x63 SWAP2 SWAP1 PUSH2 0x3B1 JUMP JUMPDEST PUSH2 0xD6 JUMP JUMPDEST PUSH1 0x40 MLOAD PUSH2 0x75 SWAP2 SWAP1 PUSH2 0x3EB JUMP JUMPDEST PUSH1 0x40 MLOAD DUP1 SWAP2 SUB SWAP1 RETURN JUMPDEST PUSH2 0x98 PUSH1 0x4 DUP1 CALLDATASIZE SUB DUP2 ADD SWAP1 PUSH2 0x93 SWAP2 SWAP1 PUSH2 0x3B1 JUMP JUMPDEST PUSH2 0xF5 JUMP JUMPDEST PUSH1 0x40 MLOAD PUSH2 0xA5 SWAP2 SWAP1 PUSH2 0x4BB JUMP JUMPDEST PUSH1 0x40 MLOAD DUP1 SWAP2 SUB SWAP1 RETURN JUMPDEST PUSH2 0xB6 PUSH2 0x2FF JUMP JUMPDEST PUSH1 0x40 MLOAD PUSH2 0xC3 SWAP2 SWAP1 PUSH2 0x4BB JUMP JUMPDEST PUSH1 0x40 MLOAD DUP1 SWAP2 SUB SWAP1 RETURN JUMPDEST PUSH2 0xD4 PUSH2 0x354 JUMP JUMPDEST STOP JUMPDEST PUSH0 DUP2 DUP2 SLOAD DUP2 LT PUSH2 0xE4 JUMPI PUSH0 DUP1 REVERT JUMPDEST SWAP1 PUSH0 MSTORE PUSH1 0x20 PUSH0 KECCAK256 ADD PUSH0 SWAP2 POP SWAP1 POP SLOAD DUP2 JUMP JUMPDEST PUSH1 0x60 PUSH0 DUP1 DUP1 SLOAD DUP1 PUSH1 0x20 MUL PUSH1 0x20 ADD PUSH1 0x40 MLOAD SWAP1 DUP2 ADD PUSH1 0x40 MSTORE DUP1 SWAP3 SWAP2 SWAP1 DUP2 DUP2 MSTORE PUSH1 0x20 ADD DUP3 DUP1 SLOAD DUP1 ISZERO PUSH2 0x141 JUMPI PUSH1 0x20 MUL DUP3 ADD SWAP2 SWAP1 PUSH0 MSTORE PUSH1 0x20 PUSH0 KECCAK256 SWAP1 JUMPDEST DUP2 SLOAD DUP2 MSTORE PUSH1 0x20 ADD SWAP1 PUSH1 0x1 ADD SWAP1 DUP1 DUP4 GT PUSH2 0x12D JUMPI JUMPDEST POP POP POP POP POP SWAP1 POP PUSH0 PUSH1 0x1 PUSH0 DUP1 SLOAD SWAP1 POP PUSH2 0x15A SWAP2 SWAP1 PUSH2 0x508 JUMP JUMPDEST PUSH8 0xFFFFFFFFFFFFFFFF DUP2 GT ISZERO PUSH2 0x173 JUMPI PUSH2 0x172 PUSH2 0x53B JUMP JUMPDEST JUMPDEST PUSH1 0x40 MLOAD SWAP1 DUP1 DUP3 MSTORE DUP1 PUSH1 0x20 MUL PUSH1 0x20 ADD DUP3 ADD PUSH1 0x40 MSTORE DUP1 ISZERO PUSH2 0x1A1 JUMPI DUP2 PUSH1 0x20 ADD PUSH1 0x20 DUP3 MUL DUP1 CALLDATASIZE DUP4 CALLDATACOPY DUP1 DUP3 ADD SWAP2 POP POP SWAP1 POP JUMPDEST POP SWAP1 POP PUSH0 DUP1 DUP1 SLOAD SWAP1 POP SUB PUSH2 0x1D9 JUMPI PUSH0 DUP5 SWAP1 DUP1 PUSH1 0x1 DUP2 SLOAD ADD DUP1 DUP3 SSTORE DUP1 SWAP2 POP POP PUSH1 0x1 SWAP1 SUB SWAP1 PUSH0 MSTORE PUSH1 0x20 PUSH0 KECCAK256 ADD PUSH0 SWAP1 SWAP2 SWAP1 SWAP2 SWAP1 SWAP2 POP SSTORE PUSH2 0x2F5 JUMP JUMPDEST PUSH0 JUMPDEST PUSH0 DUP1 SLOAD SWAP1 POP DUP2 LT ISZERO PUSH2 0x218 JUMPI PUSH0 DUP1 SLOAD DUP1 PUSH2 0x1F8 JUMPI PUSH2 0x1F7 PUSH2 0x568 JUMP JUMPDEST JUMPDEST PUSH1 0x1 SWAP1 SUB DUP2 DUP2 SWAP1 PUSH0 MSTORE PUSH1 0x20 PUSH0 KECCAK256 ADD PUSH0 SWAP1 SSTORE SWAP1 SSTORE DUP1 DUP1 PUSH1 0x1 ADD SWAP2 POP POP PUSH2 0x1DB JUMP JUMPDEST POP PUSH0 DUP5 SWAP1 DUP1 PUSH1 0x1 DUP2 SLOAD ADD DUP1 DUP3 SSTORE DUP1 SWAP2 POP POP PUSH1 0x1 SWAP1 SUB SWAP1 PUSH0 MSTORE PUSH1 0x20 PUSH0 KECCAK256 ADD PUSH0 SWAP1 SWAP2 SWAP1 SWAP2 SWAP1 SWAP2 POP SSTORE PUSH0 JUMPDEST PUSH0 DUP1 SLOAD SWAP1 POP DUP2 LT ISZERO PUSH2 0x294 JUMPI PUSH0 DUP2 DUP2 SLOAD DUP2 LT PUSH2 0x25F JUMPI PUSH2 0x25E PUSH2 0x595 JUMP JUMPDEST JUMPDEST SWAP1 PUSH0 MSTORE PUSH1 0x20 PUSH0 KECCAK256 ADD SLOAD DUP3 DUP3 DUP2 MLOAD DUP2 LT PUSH2 0x27B JUMPI PUSH2 0x27A PUSH2 0x595 JUMP JUMPDEST JUMPDEST PUSH1 0x20 MUL PUSH1 0x20 ADD ADD DUP2 DUP2 MSTORE POP POP DUP1 DUP1 PUSH1 0x1 ADD SWAP2 POP POP PUSH2 0x240 JUMP JUMPDEST POP PUSH0 JUMPDEST DUP3 MLOAD DUP2 LT ISZERO PUSH2 0x2F3 JUMPI DUP3 DUP2 DUP2 MLOAD DUP2 LT PUSH2 0x2B3 JUMPI PUSH2 0x2B2 PUSH2 0x595 JUMP JUMPDEST JUMPDEST PUSH1 0x20 MUL PUSH1 0x20 ADD ADD MLOAD DUP3 PUSH1 0x1 DUP4 PUSH2 0x2C9 SWAP2 SWAP1 PUSH2 0x508 JUMP JUMPDEST DUP2 MLOAD DUP2 LT PUSH2 0x2DA JUMPI PUSH2 0x2D9 PUSH2 0x595 JUMP JUMPDEST JUMPDEST PUSH1 0x20 MUL PUSH1 0x20 ADD ADD DUP2 DUP2 MSTORE POP POP DUP1 DUP1 PUSH1 0x1 ADD SWAP2 POP POP PUSH2 0x297 JUMP JUMPDEST POP JUMPDEST DUP1 SWAP3 POP POP POP SWAP2 SWAP1 POP JUMP JUMPDEST PUSH1 0x60 PUSH0 DUP1 SLOAD DUP1 PUSH1 0x20 MUL PUSH1 0x20 ADD PUSH1 0x40 MLOAD SWAP1 DUP2 ADD PUSH1 0x40 MSTORE DUP1 SWAP3 SWAP2 SWAP1 DUP2 DUP2 MSTORE PUSH1 0x20 ADD DUP3 DUP1 SLOAD DUP1 ISZERO PUSH2 0x34A JUMPI PUSH1 0x20 MUL DUP3 ADD SWAP2 SWAP1 PUSH0 MSTORE PUSH1 0x20 PUSH0 KECCAK256 SWAP1 JUMPDEST DUP2 SLOAD DUP2 MSTORE PUSH1 0x20 ADD SWAP1 PUSH1 0x1 ADD SWAP1 DUP1 DUP4 GT PUSH2 0x336 JUMPI JUMPDEST POP POP POP POP POP SWAP1 POP SWAP1 JUMP JUMPDEST PUSH0 DUP1 SLOAD DUP1 PUSH2 0x365 JUMPI PUSH2 0x364 PUSH2 0x568 JUMP JUMPDEST JUMPDEST PUSH1 0x1 SWAP1 SUB DUP2 DUP2 SWAP1 PUSH0 MSTORE PUSH1 0x20 PUSH0 KECCAK256 ADD PUSH0 SWAP1 SSTORE SWAP1 SSTORE JUMP JUMPDEST PUSH0 DUP1 REVERT JUMPDEST PUSH0 DUP2 SWAP1 POP SWAP2 SWAP1 POP JUMP JUMPDEST PUSH2 0x390 DUP2 PUSH2 0x37E JUMP JUMPDEST DUP2 EQ PUSH2 0x39A JUMPI PUSH0 DUP1 REVERT JUMPDEST POP JUMP JUMPDEST PUSH0 DUP2 CALLDATALOAD SWAP1 POP PUSH2 0x3AB DUP2 PUSH2 0x387 JUMP JUMPDEST SWAP3 SWAP2 POP POP JUMP JUMPDEST PUSH0 PUSH1 0x20 DUP3 DUP5 SUB SLT ISZERO PUSH2 0x3C6 JUMPI PUSH2 0x3C5 PUSH2 0x37A JUMP JUMPDEST JUMPDEST PUSH0 PUSH2 0x3D3 DUP5 DUP3 DUP6 ADD PUSH2 0x39D JUMP JUMPDEST SWAP2 POP POP SWAP3 SWAP2 POP POP JUMP JUMPDEST PUSH2 0x3E5 DUP2 PUSH2 0x37E JUMP JUMPDEST DUP3 MSTORE POP POP JUMP JUMPDEST PUSH0 PUSH1 0x20 DUP3 ADD SWAP1 POP PUSH2 0x3FE PUSH0 DUP4 ADD DUP5 PUSH2 0x3DC JUMP JUMPDEST SWAP3 SWAP2 POP POP JUMP JUMPDEST PUSH0 DUP2 MLOAD SWAP1 POP SWAP2 SWAP1 POP JUMP JUMPDEST PUSH0 DUP3 DUP3 MSTORE PUSH1 0x20 DUP3 ADD SWAP1 POP SWAP3 SWAP2 POP POP JUMP JUMPDEST PUSH0 DUP2 SWAP1 POP PUSH1 0x20 DUP3 ADD SWAP1 POP SWAP2 SWAP1 POP JUMP JUMPDEST PUSH2 0x436 DUP2 PUSH2 0x37E JUMP JUMPDEST DUP3 MSTORE POP POP JUMP JUMPDEST PUSH0 PUSH2 0x447 DUP4 DUP4 PUSH2 0x42D JUMP JUMPDEST PUSH1 0x20 DUP4 ADD SWAP1 POP SWAP3 SWAP2 POP POP JUMP JUMPDEST PUSH0 PUSH1 0x20 DUP3 ADD SWAP1 POP SWAP2 SWAP1 POP JUMP JUMPDEST PUSH0 PUSH2 0x469 DUP3 PUSH2 0x404 JUMP JUMPDEST PUSH2 0x473 DUP2 DUP6 PUSH2 0x40E JUMP JUMPDEST SWAP4 POP PUSH2 0x47E DUP4 PUSH2 0x41E JUMP JUMPDEST DUP1 PUSH0 JUMPDEST DUP4 DUP2 LT ISZERO PUSH2 0x4AE JUMPI DUP2 MLOAD PUSH2 0x495 DUP9 DUP3 PUSH2 0x43C JUMP JUMPDEST SWAP8 POP PUSH2 0x4A0 DUP4 PUSH2 0x453 JUMP JUMPDEST SWAP3 POP POP PUSH1 0x1 DUP2 ADD SWAP1 POP PUSH2 0x481 JUMP JUMPDEST POP DUP6 SWAP4 POP POP POP POP SWAP3 SWAP2 POP POP JUMP JUMPDEST PUSH0 PUSH1 0x20 DUP3 ADD SWAP1 POP DUP2 DUP2 SUB PUSH0 DUP4 ADD MSTORE PUSH2 0x4D3 DUP2 DUP5 PUSH2 0x45F JUMP JUMPDEST SWAP1 POP SWAP3 SWAP2 POP POP JUMP JUMPDEST PUSH32 0x4E487B7100000000000000000000000000000000000000000000000000000000 PUSH0 MSTORE PUSH1 0x11 PUSH1 0x4 MSTORE PUSH1 0x24 PUSH0 REVERT JUMPDEST PUSH0 PUSH2 0x512 DUP3 PUSH2 0x37E JUMP JUMPDEST SWAP2 POP PUSH2 0x51D DUP4 PUSH2 0x37E JUMP JUMPDEST SWAP3 POP DUP3 DUP3 ADD SWAP1 POP DUP1 DUP3 GT ISZERO PUSH2 0x535 JUMPI PUSH2 0x534 PUSH2 0x4DB JUMP JUMPDEST JUMPDEST SWAP3 SWAP2 POP POP JUMP JUMPDEST PUSH32 0x4E487B7100000000000000000000000000000000000000000000000000000000 PUSH0 MSTORE PUSH1 0x41 PUSH1 0x4 MSTORE PUSH1 0x24 PUSH0 REVERT JUMPDEST PUSH32 0x4E487B7100000000000000000000000000000000000000000000000000000000 PUSH0 MSTORE PUSH1 0x31 PUSH1 0x4 MSTORE PUSH1 0x24 PUSH0 REVERT JUMPDEST PUSH32 0x4E487B7100000000000000000000000000000000000000000000000000000000 PUSH0 MSTORE PUSH1 0x32 PUSH1 0x4 MSTORE PUSH1 0x24 PUSH0 REVERT INVALID LOG2 PUSH5 0x6970667358 0x22 SLT KECCAK256 SLOAD ORIGIN PUSH4 0x1C4800C SMOD 0xBC SWAP16 PUSH0 RETURN PC MULMOD DUP8 DUP1 0xC7 0xC0 CALLDATACOPY 0x2F ORIGIN 0xEE 0xE 0xD6 PUSH16 0x62804349D8AAE664736F6C6343000819 STOP CALLER "
				},
				"gasEstimates": {
					"creation": {
						"codeDepositCost": "305600",
						"executionCost": "341",
						"totalCost": "305941"
					},
					"external": {
						"getArray()": "infinite",
						"numArray(uint256)": "infinite",
						"popNum()": "29484",
						"pushNum(uint256)": "infinite"
					}
				},
				"methodIdentifiers": {
					"getArray()": "d504ea1d",
					"numArray(uint256)": "6e734738",
					"popNum()": "e65d1594",
					"pushNum(uint256)": "bc07865f"
				}
			},
			"storageLayout": {
				"storage": [
					{
						"astId": 2070,
						"contract": "solidity_100/71-80.sol:Q80",
						"label": "numArray",
						"offset": 0,
						"slot": "0",
						"type": "t_array(t_uint256)dyn_storage"
					}
				],
				"types": {
					"t_array(t_uint256)dyn_storage": {
						"base": "t_uint256",
						"encoding": "dynamic_array",
						"label": "uint256[]",
						"numberOfBytes": "32"
					},
					"t_uint256": {
						"encoding": "inplace",
						"label": "uint256",
						"numberOfBytes": "32"
					}
				}
			},
			"userdoc": {
				"kind": "user",
				"methods": {},
				"version": 1
			}
		}
	}
}