{
	"solidity_100/71-80.sol": {
		"Q76": {
			"abi": [
				{
					"inputs": [
						{
							"internalType": "uint256",
							"name": "a",
							"type": "uint256"
						}
					],
					"name": "uintToString",
					"outputs": [
						{
							"internalType": "string",
							"name": "",
							"type": "string"
						}
					],
					"stateMutability": "pure",
					"type": "function"
				}
			],
			"devdoc": {
				"kind": "dev",
				"methods": {},
				"version": 1
			},
			"evm": {
				"assembly": "    /* \"solidity_100/71-80.sol\":5363:6198  contract Q76 {... */\n  mstore(0x40, 0x80)\n  callvalue\n  dup1\n  iszero\n  tag_1\n  jumpi\n  0x00\n  dup1\n  revert\ntag_1:\n  pop\n  dataSize(sub_0)\n  dup1\n  dataOffset(sub_0)\n  0x00\n  codecopy\n  0x00\n  return\nstop\n\nsub_0: assembly {\n        /* \"solidity_100/71-80.sol\":5363:6198  contract Q76 {... */\n      mstore(0x40, 0x80)\n      callvalue\n      dup1\n      iszero\n      tag_1\n      jumpi\n      0x00\n      dup1\n      revert\n    tag_1:\n      pop\n      jumpi(tag_2, lt(calldatasize, 0x04))\n      shr(0xe0, calldataload(0x00))\n      dup1\n      0xe9395679\n      eq\n      tag_3\n      jumpi\n    tag_2:\n      0x00\n      dup1\n      revert\n        /* \"solidity_100/71-80.sol\":5573:6195  function uintToString(uint a) public pure returns(string memory) {... */\n    tag_3:\n      tag_4\n      0x04\n      dup1\n      calldatasize\n      sub\n      dup2\n      add\n      swap1\n      tag_5\n      swap2\n      swap1\n      tag_6\n      jump\t// in\n    tag_5:\n      tag_7\n      jump\t// in\n    tag_4:\n      mload(0x40)\n      tag_8\n      swap2\n      swap1\n      tag_9\n      jump\t// in\n    tag_8:\n      mload(0x40)\n      dup1\n      swap2\n      sub\n      swap1\n      return\n    tag_7:\n        /* \"solidity_100/71-80.sol\":5623:5636  string memory */\n      0x60\n        /* \"solidity_100/71-80.sol\":5649:5659  uint count */\n      0x00\n        /* \"solidity_100/71-80.sol\":5670:5681  uint result */\n      dup1\n        /* \"solidity_100/71-80.sol\":5684:5685  a */\n      dup4\n        /* \"solidity_100/71-80.sol\":5670:5685  uint result = a */\n      swap1\n      pop\n        /* \"solidity_100/71-80.sol\":5696:5708  uint result1 */\n      0x00\n        /* \"solidity_100/71-80.sol\":5711:5712  a */\n      dup5\n        /* \"solidity_100/71-80.sol\":5696:5712  uint result1 = a */\n      swap1\n      pop\n        /* \"solidity_100/71-80.sol\":5743:5822  while(result > 0) {... */\n    tag_11:\n        /* \"solidity_100/71-80.sol\":5758:5759  0 */\n      0x00\n        /* \"solidity_100/71-80.sol\":5749:5755  result */\n      dup3\n        /* \"solidity_100/71-80.sol\":5749:5759  result > 0 */\n      gt\n        /* \"solidity_100/71-80.sol\":5743:5822  while(result > 0) {... */\n      iszero\n      tag_12\n      jumpi\n        /* \"solidity_100/71-80.sol\":5776:5783  count++ */\n      dup3\n      dup1\n      tag_13\n      swap1\n      tag_14\n      jump\t// in\n    tag_13:\n      swap4\n      pop\n      pop\n        /* \"solidity_100/71-80.sol\":5808:5810  10 */\n      0x0a\n        /* \"solidity_100/71-80.sol\":5798:5810  result /= 10 */\n      dup3\n      tag_15\n      swap2\n      swap1\n      tag_16\n      jump\t// in\n    tag_15:\n      swap2\n      pop\n        /* \"solidity_100/71-80.sol\":5743:5822  while(result > 0) {... */\n      jump(tag_11)\n    tag_12:\n        /* \"solidity_100/71-80.sol\":5834:5851  bytes memory temp */\n      0x00\n        /* \"solidity_100/71-80.sol\":5864:5869  count */\n      dup4\n        /* \"solidity_100/71-80.sol\":5854:5870  new bytes(count) */\n      0xffffffffffffffff\n      dup2\n      gt\n      iszero\n      tag_17\n      jumpi\n      tag_18\n      tag_19\n      jump\t// in\n    tag_18:\n    tag_17:\n      mload(0x40)\n      swap1\n      dup1\n      dup3\n      mstore\n      dup1\n      0x1f\n      add\n      not(0x1f)\n      and\n      0x20\n      add\n      dup3\n      add\n      0x40\n      mstore\n      dup1\n      iszero\n      tag_20\n      jumpi\n      dup2\n      0x20\n      add\n      0x01\n      dup3\n      mul\n      dup1\n      calldatasize\n      dup4\n      calldatacopy\n      dup1\n      dup3\n      add\n      swap2\n      pop\n      pop\n      swap1\n      pop\n    tag_20:\n      pop\n        /* \"solidity_100/71-80.sol\":5834:5870  bytes memory temp = new bytes(count) */\n      swap1\n      pop\n        /* \"solidity_100/71-80.sol\":5885:5891  uint i */\n      0x00\n        /* \"solidity_100/71-80.sol\":5881:6013  for(uint i = 0; i<count;i++) {... */\n    tag_21:\n        /* \"solidity_100/71-80.sol\":5899:5904  count */\n      dup5\n        /* \"solidity_100/71-80.sol\":5897:5898  i */\n      dup2\n        /* \"solidity_100/71-80.sol\":5897:5904  i<count */\n      lt\n        /* \"solidity_100/71-80.sol\":5881:6013  for(uint i = 0; i<count;i++) {... */\n      iszero\n      tag_22\n      jumpi\n        /* \"solidity_100/71-80.sol\":5969:5971  10 */\n      0x0a\n        /* \"solidity_100/71-80.sol\":5961:5968  result1 */\n      dup4\n        /* \"solidity_100/71-80.sol\":5961:5971  result1%10 */\n      tag_24\n      swap2\n      swap1\n      tag_25\n      jump\t// in\n    tag_24:\n        /* \"solidity_100/71-80.sol\":5956:5960  0x30 */\n      0x30\n        /* \"solidity_100/71-80.sol\":5956:5971  0x30+result1%10 */\n      tag_26\n      swap2\n      swap1\n      tag_27\n      jump\t// in\n    tag_26:\n        /* \"solidity_100/71-80.sol\":5943:5973  bytes1(uint8(0x30+result1%10)) */\n      0xf8\n      shl\n        /* \"solidity_100/71-80.sol\":5925:5929  temp */\n      dup3\n        /* \"solidity_100/71-80.sol\":5938:5939  1 */\n      0x01\n        /* \"solidity_100/71-80.sol\":5936:5937  i */\n      dup4\n        /* \"solidity_100/71-80.sol\":5930:5935  count */\n      dup9\n        /* \"solidity_100/71-80.sol\":5930:5937  count-i */\n      tag_28\n      swap2\n      swap1\n      tag_29\n      jump\t// in\n    tag_28:\n        /* \"solidity_100/71-80.sol\":5930:5939  count-i-1 */\n      tag_30\n      swap2\n      swap1\n      tag_29\n      jump\t// in\n    tag_30:\n        /* \"solidity_100/71-80.sol\":5925:5940  temp[count-i-1] */\n      dup2\n      mload\n      dup2\n      lt\n      tag_31\n      jumpi\n      tag_32\n      tag_33\n      jump\t// in\n    tag_32:\n    tag_31:\n      0x20\n      add\n      add\n        /* \"solidity_100/71-80.sol\":5925:5973  temp[count-i-1] = bytes1(uint8(0x30+result1%10)) */\n      swap1\n      not(0xffffffffffffffffffffffffffffffffffffffffffffffffffffffffffffff)\n      and\n      swap1\n      dup2\n      0x00\n      byte\n      swap1\n      mstore8\n      pop\n        /* \"solidity_100/71-80.sol\":5999:6001  10 */\n      0x0a\n        /* \"solidity_100/71-80.sol\":5988:6001  result1 /= 10 */\n      dup4\n      tag_34\n      swap2\n      swap1\n      tag_16\n      jump\t// in\n    tag_34:\n      swap3\n      pop\n        /* \"solidity_100/71-80.sol\":5905:5908  i++ */\n      dup1\n      dup1\n      0x01\n      add\n      swap2\n      pop\n      pop\n        /* \"solidity_100/71-80.sol\":5881:6013  for(uint i = 0; i<count;i++) {... */\n      jump(tag_21)\n    tag_22:\n      pop\n        /* \"solidity_100/71-80.sol\":6033:6049  bytes memory ans */\n      0x00\n        /* \"solidity_100/71-80.sol\":6069:6073  temp */\n      dup2\n        /* \"solidity_100/71-80.sol\":6052:6074  abi.encodePacked(temp) */\n      add(0x20, mload(0x40))\n      tag_35\n      swap2\n      swap1\n      tag_36\n      jump\t// in\n    tag_35:\n      mload(0x40)\n      0x20\n      dup2\n      dup4\n      sub\n      sub\n      dup2\n      mstore\n      swap1\n      0x40\n      mstore\n        /* \"solidity_100/71-80.sol\":6033:6074  bytes memory ans = abi.encodePacked(temp) */\n      swap1\n      pop\n        /* \"solidity_100/71-80.sol\":6183:6186  ans */\n      dup1\n        /* \"solidity_100/71-80.sol\":6169:6187  return string(ans) */\n      swap6\n      pop\n      pop\n      pop\n      pop\n      pop\n      pop\n        /* \"solidity_100/71-80.sol\":5573:6195  function uintToString(uint a) public pure returns(string memory) {... */\n      swap2\n      swap1\n      pop\n      jump\t// out\n        /* \"#utility.yul\":88:205   */\n    tag_38:\n        /* \"#utility.yul\":197:198   */\n      0x00\n        /* \"#utility.yul\":194:195   */\n      dup1\n        /* \"#utility.yul\":187:199   */\n      revert\n        /* \"#utility.yul\":334:411   */\n    tag_40:\n        /* \"#utility.yul\":371:378   */\n      0x00\n        /* \"#utility.yul\":400:405   */\n      dup2\n        /* \"#utility.yul\":389:405   */\n      swap1\n      pop\n        /* \"#utility.yul\":334:411   */\n      swap2\n      swap1\n      pop\n      jump\t// out\n        /* \"#utility.yul\":417:539   */\n    tag_41:\n        /* \"#utility.yul\":490:514   */\n      tag_59\n        /* \"#utility.yul\":508:513   */\n      dup2\n        /* \"#utility.yul\":490:514   */\n      tag_40\n      jump\t// in\n    tag_59:\n        /* \"#utility.yul\":483:488   */\n      dup2\n        /* \"#utility.yul\":480:515   */\n      eq\n        /* \"#utility.yul\":470:533   */\n      tag_60\n      jumpi\n        /* \"#utility.yul\":529:530   */\n      0x00\n        /* \"#utility.yul\":526:527   */\n      dup1\n        /* \"#utility.yul\":519:531   */\n      revert\n        /* \"#utility.yul\":470:533   */\n    tag_60:\n        /* \"#utility.yul\":417:539   */\n      pop\n      jump\t// out\n        /* \"#utility.yul\":545:684   */\n    tag_42:\n        /* \"#utility.yul\":591:596   */\n      0x00\n        /* \"#utility.yul\":629:635   */\n      dup2\n        /* \"#utility.yul\":616:636   */\n      calldataload\n        /* \"#utility.yul\":607:636   */\n      swap1\n      pop\n        /* \"#utility.yul\":645:678   */\n      tag_62\n        /* \"#utility.yul\":672:677   */\n      dup2\n        /* \"#utility.yul\":645:678   */\n      tag_41\n      jump\t// in\n    tag_62:\n        /* \"#utility.yul\":545:684   */\n      swap3\n      swap2\n      pop\n      pop\n      jump\t// out\n        /* \"#utility.yul\":690:1019   */\n    tag_6:\n        /* \"#utility.yul\":749:755   */\n      0x00\n        /* \"#utility.yul\":798:800   */\n      0x20\n        /* \"#utility.yul\":786:795   */\n      dup3\n        /* \"#utility.yul\":777:784   */\n      dup5\n        /* \"#utility.yul\":773:796   */\n      sub\n        /* \"#utility.yul\":769:801   */\n      slt\n        /* \"#utility.yul\":766:885   */\n      iszero\n      tag_64\n      jumpi\n        /* \"#utility.yul\":804:883   */\n      tag_65\n      tag_38\n      jump\t// in\n    tag_65:\n        /* \"#utility.yul\":766:885   */\n    tag_64:\n        /* \"#utility.yul\":924:925   */\n      0x00\n        /* \"#utility.yul\":949:1002   */\n      tag_66\n        /* \"#utility.yul\":994:1001   */\n      dup5\n        /* \"#utility.yul\":985:991   */\n      dup3\n        /* \"#utility.yul\":974:983   */\n      dup6\n        /* \"#utility.yul\":970:992   */\n      add\n        /* \"#utility.yul\":949:1002   */\n      tag_42\n      jump\t// in\n    tag_66:\n        /* \"#utility.yul\":939:1002   */\n      swap2\n      pop\n        /* \"#utility.yul\":895:1012   */\n      pop\n        /* \"#utility.yul\":690:1019   */\n      swap3\n      swap2\n      pop\n      pop\n      jump\t// out\n        /* \"#utility.yul\":1025:1124   */\n    tag_43:\n        /* \"#utility.yul\":1077:1083   */\n      0x00\n        /* \"#utility.yul\":1111:1116   */\n      dup2\n        /* \"#utility.yul\":1105:1117   */\n      mload\n        /* \"#utility.yul\":1095:1117   */\n      swap1\n      pop\n        /* \"#utility.yul\":1025:1124   */\n      swap2\n      swap1\n      pop\n      jump\t// out\n        /* \"#utility.yul\":1130:1299   */\n    tag_44:\n        /* \"#utility.yul\":1214:1225   */\n      0x00\n        /* \"#utility.yul\":1248:1254   */\n      dup3\n        /* \"#utility.yul\":1243:1246   */\n      dup3\n        /* \"#utility.yul\":1236:1255   */\n      mstore\n        /* \"#utility.yul\":1288:1292   */\n      0x20\n        /* \"#utility.yul\":1283:1286   */\n      dup3\n        /* \"#utility.yul\":1279:1293   */\n      add\n        /* \"#utility.yul\":1264:1293   */\n      swap1\n      pop\n        /* \"#utility.yul\":1130:1299   */\n      swap3\n      swap2\n      pop\n      pop\n      jump\t// out\n        /* \"#utility.yul\":1305:1444   */\n    tag_45:\n        /* \"#utility.yul\":1394:1400   */\n      dup3\n        /* \"#utility.yul\":1389:1392   */\n      dup2\n        /* \"#utility.yul\":1384:1387   */\n      dup4\n        /* \"#utility.yul\":1378:1401   */\n      mcopy\n        /* \"#utility.yul\":1435:1436   */\n      0x00\n        /* \"#utility.yul\":1426:1432   */\n      dup4\n        /* \"#utility.yul\":1421:1424   */\n      dup4\n        /* \"#utility.yul\":1417:1433   */\n      add\n        /* \"#utility.yul\":1410:1437   */\n      mstore\n        /* \"#utility.yul\":1305:1444   */\n      pop\n      pop\n      pop\n      jump\t// out\n        /* \"#utility.yul\":1450:1552   */\n    tag_46:\n        /* \"#utility.yul\":1491:1497   */\n      0x00\n        /* \"#utility.yul\":1542:1544   */\n      0x1f\n        /* \"#utility.yul\":1538:1545   */\n      not\n        /* \"#utility.yul\":1533:1535   */\n      0x1f\n        /* \"#utility.yul\":1526:1531   */\n      dup4\n        /* \"#utility.yul\":1522:1536   */\n      add\n        /* \"#utility.yul\":1518:1546   */\n      and\n        /* \"#utility.yul\":1508:1546   */\n      swap1\n      pop\n        /* \"#utility.yul\":1450:1552   */\n      swap2\n      swap1\n      pop\n      jump\t// out\n        /* \"#utility.yul\":1558:1935   */\n    tag_47:\n        /* \"#utility.yul\":1646:1649   */\n      0x00\n        /* \"#utility.yul\":1674:1713   */\n      tag_72\n        /* \"#utility.yul\":1707:1712   */\n      dup3\n        /* \"#utility.yul\":1674:1713   */\n      tag_43\n      jump\t// in\n    tag_72:\n        /* \"#utility.yul\":1729:1800   */\n      tag_73\n        /* \"#utility.yul\":1793:1799   */\n      dup2\n        /* \"#utility.yul\":1788:1791   */\n      dup6\n        /* \"#utility.yul\":1729:1800   */\n      tag_44\n      jump\t// in\n    tag_73:\n        /* \"#utility.yul\":1722:1800   */\n      swap4\n      pop\n        /* \"#utility.yul\":1809:1874   */\n      tag_74\n        /* \"#utility.yul\":1867:1873   */\n      dup2\n        /* \"#utility.yul\":1862:1865   */\n      dup6\n        /* \"#utility.yul\":1855:1859   */\n      0x20\n        /* \"#utility.yul\":1848:1853   */\n      dup7\n        /* \"#utility.yul\":1844:1860   */\n      add\n        /* \"#utility.yul\":1809:1874   */\n      tag_45\n      jump\t// in\n    tag_74:\n        /* \"#utility.yul\":1899:1928   */\n      tag_75\n        /* \"#utility.yul\":1921:1927   */\n      dup2\n        /* \"#utility.yul\":1899:1928   */\n      tag_46\n      jump\t// in\n    tag_75:\n        /* \"#utility.yul\":1894:1897   */\n      dup5\n        /* \"#utility.yul\":1890:1929   */\n      add\n        /* \"#utility.yul\":1883:1929   */\n      swap2\n      pop\n        /* \"#utility.yul\":1650:1935   */\n      pop\n        /* \"#utility.yul\":1558:1935   */\n      swap3\n      swap2\n      pop\n      pop\n      jump\t// out\n        /* \"#utility.yul\":1941:2254   */\n    tag_9:\n        /* \"#utility.yul\":2054:2058   */\n      0x00\n        /* \"#utility.yul\":2092:2094   */\n      0x20\n        /* \"#utility.yul\":2081:2090   */\n      dup3\n        /* \"#utility.yul\":2077:2095   */\n      add\n        /* \"#utility.yul\":2069:2095   */\n      swap1\n      pop\n        /* \"#utility.yul\":2141:2150   */\n      dup2\n        /* \"#utility.yul\":2135:2139   */\n      dup2\n        /* \"#utility.yul\":2131:2151   */\n      sub\n        /* \"#utility.yul\":2127:2128   */\n      0x00\n        /* \"#utility.yul\":2116:2125   */\n      dup4\n        /* \"#utility.yul\":2112:2129   */\n      add\n        /* \"#utility.yul\":2105:2152   */\n      mstore\n        /* \"#utility.yul\":2169:2247   */\n      tag_77\n        /* \"#utility.yul\":2242:2246   */\n      dup2\n        /* \"#utility.yul\":2233:2239   */\n      dup5\n        /* \"#utility.yul\":2169:2247   */\n      tag_47\n      jump\t// in\n    tag_77:\n        /* \"#utility.yul\":2161:2247   */\n      swap1\n      pop\n        /* \"#utility.yul\":1941:2254   */\n      swap3\n      swap2\n      pop\n      pop\n      jump\t// out\n        /* \"#utility.yul\":2260:2440   */\n    tag_48:\n        /* \"#utility.yul\":2308:2385   */\n      0x4e487b7100000000000000000000000000000000000000000000000000000000\n        /* \"#utility.yul\":2305:2306   */\n      0x00\n        /* \"#utility.yul\":2298:2386   */\n      mstore\n        /* \"#utility.yul\":2405:2409   */\n      0x11\n        /* \"#utility.yul\":2402:2403   */\n      0x04\n        /* \"#utility.yul\":2395:2410   */\n      mstore\n        /* \"#utility.yul\":2429:2433   */\n      0x24\n        /* \"#utility.yul\":2426:2427   */\n      0x00\n        /* \"#utility.yul\":2419:2434   */\n      revert\n        /* \"#utility.yul\":2446:2679   */\n    tag_14:\n        /* \"#utility.yul\":2485:2488   */\n      0x00\n        /* \"#utility.yul\":2508:2532   */\n      tag_80\n        /* \"#utility.yul\":2526:2531   */\n      dup3\n        /* \"#utility.yul\":2508:2532   */\n      tag_40\n      jump\t// in\n    tag_80:\n        /* \"#utility.yul\":2499:2532   */\n      swap2\n      pop\n        /* \"#utility.yul\":2554:2620   */\n      0xffffffffffffffffffffffffffffffffffffffffffffffffffffffffffffffff\n        /* \"#utility.yul\":2547:2552   */\n      dup3\n        /* \"#utility.yul\":2544:2621   */\n      sub\n        /* \"#utility.yul\":2541:2644   */\n      tag_81\n      jumpi\n        /* \"#utility.yul\":2624:2642   */\n      tag_82\n      tag_48\n      jump\t// in\n    tag_82:\n        /* \"#utility.yul\":2541:2644   */\n    tag_81:\n        /* \"#utility.yul\":2671:2672   */\n      0x01\n        /* \"#utility.yul\":2664:2669   */\n      dup3\n        /* \"#utility.yul\":2660:2673   */\n      add\n        /* \"#utility.yul\":2653:2673   */\n      swap1\n      pop\n        /* \"#utility.yul\":2446:2679   */\n      swap2\n      swap1\n      pop\n      jump\t// out\n        /* \"#utility.yul\":2685:2865   */\n    tag_49:\n        /* \"#utility.yul\":2733:2810   */\n      0x4e487b7100000000000000000000000000000000000000000000000000000000\n        /* \"#utility.yul\":2730:2731   */\n      0x00\n        /* \"#utility.yul\":2723:2811   */\n      mstore\n        /* \"#utility.yul\":2830:2834   */\n      0x12\n        /* \"#utility.yul\":2827:2828   */\n      0x04\n        /* \"#utility.yul\":2820:2835   */\n      mstore\n        /* \"#utility.yul\":2854:2858   */\n      0x24\n        /* \"#utility.yul\":2851:2852   */\n      0x00\n        /* \"#utility.yul\":2844:2859   */\n      revert\n        /* \"#utility.yul\":2871:3056   */\n    tag_16:\n        /* \"#utility.yul\":2911:2912   */\n      0x00\n        /* \"#utility.yul\":2928:2948   */\n      tag_85\n        /* \"#utility.yul\":2946:2947   */\n      dup3\n        /* \"#utility.yul\":2928:2948   */\n      tag_40\n      jump\t// in\n    tag_85:\n        /* \"#utility.yul\":2923:2948   */\n      swap2\n      pop\n        /* \"#utility.yul\":2962:2982   */\n      tag_86\n        /* \"#utility.yul\":2980:2981   */\n      dup4\n        /* \"#utility.yul\":2962:2982   */\n      tag_40\n      jump\t// in\n    tag_86:\n        /* \"#utility.yul\":2957:2982   */\n      swap3\n      pop\n        /* \"#utility.yul\":3001:3002   */\n      dup3\n        /* \"#utility.yul\":2991:3026   */\n      tag_87\n      jumpi\n        /* \"#utility.yul\":3006:3024   */\n      tag_88\n      tag_49\n      jump\t// in\n    tag_88:\n        /* \"#utility.yul\":2991:3026   */\n    tag_87:\n        /* \"#utility.yul\":3048:3049   */\n      dup3\n        /* \"#utility.yul\":3045:3046   */\n      dup3\n        /* \"#utility.yul\":3041:3050   */\n      div\n        /* \"#utility.yul\":3036:3050   */\n      swap1\n      pop\n        /* \"#utility.yul\":2871:3056   */\n      swap3\n      swap2\n      pop\n      pop\n      jump\t// out\n        /* \"#utility.yul\":3062:3242   */\n    tag_19:\n        /* \"#utility.yul\":3110:3187   */\n      0x4e487b7100000000000000000000000000000000000000000000000000000000\n        /* \"#utility.yul\":3107:3108   */\n      0x00\n        /* \"#utility.yul\":3100:3188   */\n      mstore\n        /* \"#utility.yul\":3207:3211   */\n      0x41\n        /* \"#utility.yul\":3204:3205   */\n      0x04\n        /* \"#utility.yul\":3197:3212   */\n      mstore\n        /* \"#utility.yul\":3231:3235   */\n      0x24\n        /* \"#utility.yul\":3228:3229   */\n      0x00\n        /* \"#utility.yul\":3221:3236   */\n      revert\n        /* \"#utility.yul\":3248:3424   */\n    tag_25:\n        /* \"#utility.yul\":3280:3281   */\n      0x00\n        /* \"#utility.yul\":3297:3317   */\n      tag_91\n        /* \"#utility.yul\":3315:3316   */\n      dup3\n        /* \"#utility.yul\":3297:3317   */\n      tag_40\n      jump\t// in\n    tag_91:\n        /* \"#utility.yul\":3292:3317   */\n      swap2\n      pop\n        /* \"#utility.yul\":3331:3351   */\n      tag_92\n        /* \"#utility.yul\":3349:3350   */\n      dup4\n        /* \"#utility.yul\":3331:3351   */\n      tag_40\n      jump\t// in\n    tag_92:\n        /* \"#utility.yul\":3326:3351   */\n      swap3\n      pop\n        /* \"#utility.yul\":3370:3371   */\n      dup3\n        /* \"#utility.yul\":3360:3395   */\n      tag_93\n      jumpi\n        /* \"#utility.yul\":3375:3393   */\n      tag_94\n      tag_49\n      jump\t// in\n    tag_94:\n        /* \"#utility.yul\":3360:3395   */\n    tag_93:\n        /* \"#utility.yul\":3416:3417   */\n      dup3\n        /* \"#utility.yul\":3413:3414   */\n      dup3\n        /* \"#utility.yul\":3409:3418   */\n      mod\n        /* \"#utility.yul\":3404:3418   */\n      swap1\n      pop\n        /* \"#utility.yul\":3248:3424   */\n      swap3\n      swap2\n      pop\n      pop\n      jump\t// out\n        /* \"#utility.yul\":3430:3621   */\n    tag_27:\n        /* \"#utility.yul\":3470:3473   */\n      0x00\n        /* \"#utility.yul\":3489:3509   */\n      tag_96\n        /* \"#utility.yul\":3507:3508   */\n      dup3\n        /* \"#utility.yul\":3489:3509   */\n      tag_40\n      jump\t// in\n    tag_96:\n        /* \"#utility.yul\":3484:3509   */\n      swap2\n      pop\n        /* \"#utility.yul\":3523:3543   */\n      tag_97\n        /* \"#utility.yul\":3541:3542   */\n      dup4\n        /* \"#utility.yul\":3523:3543   */\n      tag_40\n      jump\t// in\n    tag_97:\n        /* \"#utility.yul\":3518:3543   */\n      swap3\n      pop\n        /* \"#utility.yul\":3566:3567   */\n      dup3\n        /* \"#utility.yul\":3563:3564   */\n      dup3\n        /* \"#utility.yul\":3559:3568   */\n      add\n        /* \"#utility.yul\":3552:3568   */\n      swap1\n      pop\n        /* \"#utility.yul\":3587:3590   */\n      dup1\n        /* \"#utility.yul\":3584:3585   */\n      dup3\n        /* \"#utility.yul\":3581:3591   */\n      gt\n        /* \"#utility.yul\":3578:3614   */\n      iszero\n      tag_98\n      jumpi\n        /* \"#utility.yul\":3594:3612   */\n      tag_99\n      tag_48\n      jump\t// in\n    tag_99:\n        /* \"#utility.yul\":3578:3614   */\n    tag_98:\n        /* \"#utility.yul\":3430:3621   */\n      swap3\n      swap2\n      pop\n      pop\n      jump\t// out\n        /* \"#utility.yul\":3627:3821   */\n    tag_29:\n        /* \"#utility.yul\":3667:3671   */\n      0x00\n        /* \"#utility.yul\":3687:3707   */\n      tag_101\n        /* \"#utility.yul\":3705:3706   */\n      dup3\n        /* \"#utility.yul\":3687:3707   */\n      tag_40\n      jump\t// in\n    tag_101:\n        /* \"#utility.yul\":3682:3707   */\n      swap2\n      pop\n        /* \"#utility.yul\":3721:3741   */\n      tag_102\n        /* \"#utility.yul\":3739:3740   */\n      dup4\n        /* \"#utility.yul\":3721:3741   */\n      tag_40\n      jump\t// in\n    tag_102:\n        /* \"#utility.yul\":3716:3741   */\n      swap3\n      pop\n        /* \"#utility.yul\":3765:3766   */\n      dup3\n        /* \"#utility.yul\":3762:3763   */\n      dup3\n        /* \"#utility.yul\":3758:3767   */\n      sub\n        /* \"#utility.yul\":3750:3767   */\n      swap1\n      pop\n        /* \"#utility.yul\":3789:3790   */\n      dup2\n        /* \"#utility.yul\":3783:3787   */\n      dup2\n        /* \"#utility.yul\":3780:3791   */\n      gt\n        /* \"#utility.yul\":3777:3814   */\n      iszero\n      tag_103\n      jumpi\n        /* \"#utility.yul\":3794:3812   */\n      tag_104\n      tag_48\n      jump\t// in\n    tag_104:\n        /* \"#utility.yul\":3777:3814   */\n    tag_103:\n        /* \"#utility.yul\":3627:3821   */\n      swap3\n      swap2\n      pop\n      pop\n      jump\t// out\n        /* \"#utility.yul\":3827:4007   */\n    tag_33:\n        /* \"#utility.yul\":3875:3952   */\n      0x4e487b7100000000000000000000000000000000000000000000000000000000\n        /* \"#utility.yul\":3872:3873   */\n      0x00\n        /* \"#utility.yul\":3865:3953   */\n      mstore\n        /* \"#utility.yul\":3972:3976   */\n      0x32\n        /* \"#utility.yul\":3969:3970   */\n      0x04\n        /* \"#utility.yul\":3962:3977   */\n      mstore\n        /* \"#utility.yul\":3996:4000   */\n      0x24\n        /* \"#utility.yul\":3993:3994   */\n      0x00\n        /* \"#utility.yul\":3986:4001   */\n      revert\n        /* \"#utility.yul\":4013:4111   */\n    tag_50:\n        /* \"#utility.yul\":4064:4070   */\n      0x00\n        /* \"#utility.yul\":4098:4103   */\n      dup2\n        /* \"#utility.yul\":4092:4104   */\n      mload\n        /* \"#utility.yul\":4082:4104   */\n      swap1\n      pop\n        /* \"#utility.yul\":4013:4111   */\n      swap2\n      swap1\n      pop\n      jump\t// out\n        /* \"#utility.yul\":4117:4264   */\n    tag_51:\n        /* \"#utility.yul\":4218:4229   */\n      0x00\n        /* \"#utility.yul\":4255:4258   */\n      dup2\n        /* \"#utility.yul\":4240:4258   */\n      swap1\n      pop\n        /* \"#utility.yul\":4117:4264   */\n      swap3\n      swap2\n      pop\n      pop\n      jump\t// out\n        /* \"#utility.yul\":4270:4656   */\n    tag_52:\n        /* \"#utility.yul\":4374:4377   */\n      0x00\n        /* \"#utility.yul\":4402:4440   */\n      tag_109\n        /* \"#utility.yul\":4434:4439   */\n      dup3\n        /* \"#utility.yul\":4402:4440   */\n      tag_50\n      jump\t// in\n    tag_109:\n        /* \"#utility.yul\":4456:4544   */\n      tag_110\n        /* \"#utility.yul\":4537:4543   */\n      dup2\n        /* \"#utility.yul\":4532:4535   */\n      dup6\n        /* \"#utility.yul\":4456:4544   */\n      tag_51\n      jump\t// in\n    tag_110:\n        /* \"#utility.yul\":4449:4544   */\n      swap4\n      pop\n        /* \"#utility.yul\":4553:4618   */\n      tag_111\n        /* \"#utility.yul\":4611:4617   */\n      dup2\n        /* \"#utility.yul\":4606:4609   */\n      dup6\n        /* \"#utility.yul\":4599:4603   */\n      0x20\n        /* \"#utility.yul\":4592:4597   */\n      dup7\n        /* \"#utility.yul\":4588:4604   */\n      add\n        /* \"#utility.yul\":4553:4618   */\n      tag_45\n      jump\t// in\n    tag_111:\n        /* \"#utility.yul\":4643:4649   */\n      dup1\n        /* \"#utility.yul\":4638:4641   */\n      dup5\n        /* \"#utility.yul\":4634:4650   */\n      add\n        /* \"#utility.yul\":4627:4650   */\n      swap2\n      pop\n        /* \"#utility.yul\":4378:4656   */\n      pop\n        /* \"#utility.yul\":4270:4656   */\n      swap3\n      swap2\n      pop\n      pop\n      jump\t// out\n        /* \"#utility.yul\":4662:4933   */\n    tag_36:\n        /* \"#utility.yul\":4792:4795   */\n      0x00\n        /* \"#utility.yul\":4814:4907   */\n      tag_113\n        /* \"#utility.yul\":4903:4906   */\n      dup3\n        /* \"#utility.yul\":4894:4900   */\n      dup5\n        /* \"#utility.yul\":4814:4907   */\n      tag_52\n      jump\t// in\n    tag_113:\n        /* \"#utility.yul\":4807:4907   */\n      swap2\n      pop\n        /* \"#utility.yul\":4924:4927   */\n      dup2\n        /* \"#utility.yul\":4917:4927   */\n      swap1\n      pop\n        /* \"#utility.yul\":4662:4933   */\n      swap3\n      swap2\n      pop\n      pop\n      jump\t// out\n\n    auxdata: 0xa2646970667358221220d22b2fae9f929b12ee26086e66ed61f7c7fe50330ed239952acc4ec02959bf7d64736f6c63430008190033\n}\n",
				"bytecode": {
					"linkReferences": {},
					"object": "6080604052348015600e575f80fd5b506104f18061001c5f395ff3fe608060405234801561000f575f80fd5b5060043610610029575f3560e01c8063e93956791461002d575b5f80fd5b610047600480360381019061004291906101e5565b61005d565b6040516100549190610280565b60405180910390f35b60605f808390505f8490505b5f82111561009357828061007c906102cd565b935050600a8261008c9190610341565b9150610069565b5f8367ffffffffffffffff8111156100ae576100ad610371565b5b6040519080825280601f01601f1916602001820160405280156100e05781602001600182028036833780820191505090505b5090505f5b8481101561017d57600a836100fa919061039e565b603061010691906103ce565b60f81b82600183886101189190610401565b6101229190610401565b8151811061013357610132610434565b5b60200101907effffffffffffffffffffffffffffffffffffffffffffffffffffffffffffff191690815f1a905350600a8361016e9190610341565b925080806001019150506100e5565b505f8160405160200161019091906104a5565b60405160208183030381529060405290508095505050505050919050565b5f80fd5b5f819050919050565b6101c4816101b2565b81146101ce575f80fd5b50565b5f813590506101df816101bb565b92915050565b5f602082840312156101fa576101f96101ae565b5b5f610207848285016101d1565b91505092915050565b5f81519050919050565b5f82825260208201905092915050565b8281835e5f83830152505050565b5f601f19601f8301169050919050565b5f61025282610210565b61025c818561021a565b935061026c81856020860161022a565b61027581610238565b840191505092915050565b5f6020820190508181035f8301526102988184610248565b905092915050565b7f4e487b71000000000000000000000000000000000000000000000000000000005f52601160045260245ffd5b5f6102d7826101b2565b91507fffffffffffffffffffffffffffffffffffffffffffffffffffffffffffffffff8203610309576103086102a0565b5b600182019050919050565b7f4e487b71000000000000000000000000000000000000000000000000000000005f52601260045260245ffd5b5f61034b826101b2565b9150610356836101b2565b92508261036657610365610314565b5b828204905092915050565b7f4e487b71000000000000000000000000000000000000000000000000000000005f52604160045260245ffd5b5f6103a8826101b2565b91506103b3836101b2565b9250826103c3576103c2610314565b5b828206905092915050565b5f6103d8826101b2565b91506103e3836101b2565b92508282019050808211156103fb576103fa6102a0565b5b92915050565b5f61040b826101b2565b9150610416836101b2565b925082820390508181111561042e5761042d6102a0565b5b92915050565b7f4e487b71000000000000000000000000000000000000000000000000000000005f52603260045260245ffd5b5f81519050919050565b5f81905092915050565b5f61047f82610461565b610489818561046b565b935061049981856020860161022a565b80840191505092915050565b5f6104b08284610475565b91508190509291505056fea2646970667358221220d22b2fae9f929b12ee26086e66ed61f7c7fe50330ed239952acc4ec02959bf7d64736f6c63430008190033",
					"opcodes": "PUSH1 0x80 PUSH1 0x40 MSTORE CALLVALUE DUP1 ISZERO PUSH1 0xE JUMPI PUSH0 DUP1 REVERT JUMPDEST POP PUSH2 0x4F1 DUP1 PUSH2 0x1C PUSH0 CODECOPY PUSH0 RETURN INVALID PUSH1 0x80 PUSH1 0x40 MSTORE CALLVALUE DUP1 ISZERO PUSH2 0xF JUMPI PUSH0 DUP1 REVERT JUMPDEST POP PUSH1 0x4 CALLDATASIZE LT PUSH2 0x29 JUMPI PUSH0 CALLDATALOAD PUSH1 0xE0 SHR DUP1 PUSH4 0xE9395679 EQ PUSH2 0x2D JUMPI JUMPDEST PUSH0 DUP1 REVERT JUMPDEST PUSH2 0x47 PUSH1 0x4 DUP1 CALLDATASIZE SUB DUP2 ADD SWAP1 PUSH2 0x42 SWAP2 SWAP1 PUSH2 0x1E5 JUMP JUMPDEST PUSH2 0x5D JUMP JUMPDEST PUSH1 0x40 MLOAD PUSH2 0x54 SWAP2 SWAP1 PUSH2 0x280 JUMP JUMPDEST PUSH1 0x40 MLOAD DUP1 SWAP2 SUB SWAP1 RETURN JUMPDEST PUSH1 0x60 PUSH0 DUP1 DUP4 SWAP1 POP PUSH0 DUP5 SWAP1 POP JUMPDEST PUSH0 DUP3 GT ISZERO PUSH2 0x93 JUMPI DUP3 DUP1 PUSH2 0x7C SWAP1 PUSH2 0x2CD JUMP JUMPDEST SWAP4 POP POP PUSH1 0xA DUP3 PUSH2 0x8C SWAP2 SWAP1 PUSH2 0x341 JUMP JUMPDEST SWAP2 POP PUSH2 0x69 JUMP JUMPDEST PUSH0 DUP4 PUSH8 0xFFFFFFFFFFFFFFFF DUP2 GT ISZERO PUSH2 0xAE JUMPI PUSH2 0xAD PUSH2 0x371 JUMP JUMPDEST JUMPDEST PUSH1 0x40 MLOAD SWAP1 DUP1 DUP3 MSTORE DUP1 PUSH1 0x1F ADD PUSH1 0x1F NOT AND PUSH1 0x20 ADD DUP3 ADD PUSH1 0x40 MSTORE DUP1 ISZERO PUSH2 0xE0 JUMPI DUP2 PUSH1 0x20 ADD PUSH1 0x1 DUP3 MUL DUP1 CALLDATASIZE DUP4 CALLDATACOPY DUP1 DUP3 ADD SWAP2 POP POP SWAP1 POP JUMPDEST POP SWAP1 POP PUSH0 JUMPDEST DUP5 DUP2 LT ISZERO PUSH2 0x17D JUMPI PUSH1 0xA DUP4 PUSH2 0xFA SWAP2 SWAP1 PUSH2 0x39E JUMP JUMPDEST PUSH1 0x30 PUSH2 0x106 SWAP2 SWAP1 PUSH2 0x3CE JUMP JUMPDEST PUSH1 0xF8 SHL DUP3 PUSH1 0x1 DUP4 DUP9 PUSH2 0x118 SWAP2 SWAP1 PUSH2 0x401 JUMP JUMPDEST PUSH2 0x122 SWAP2 SWAP1 PUSH2 0x401 JUMP JUMPDEST DUP2 MLOAD DUP2 LT PUSH2 0x133 JUMPI PUSH2 0x132 PUSH2 0x434 JUMP JUMPDEST JUMPDEST PUSH1 0x20 ADD ADD SWAP1 PUSH31 0xFFFFFFFFFFFFFFFFFFFFFFFFFFFFFFFFFFFFFFFFFFFFFFFFFFFFFFFFFFFFFF NOT AND SWAP1 DUP2 PUSH0 BYTE SWAP1 MSTORE8 POP PUSH1 0xA DUP4 PUSH2 0x16E SWAP2 SWAP1 PUSH2 0x341 JUMP JUMPDEST SWAP3 POP DUP1 DUP1 PUSH1 0x1 ADD SWAP2 POP POP PUSH2 0xE5 JUMP JUMPDEST POP PUSH0 DUP2 PUSH1 0x40 MLOAD PUSH1 0x20 ADD PUSH2 0x190 SWAP2 SWAP1 PUSH2 0x4A5 JUMP JUMPDEST PUSH1 0x40 MLOAD PUSH1 0x20 DUP2 DUP4 SUB SUB DUP2 MSTORE SWAP1 PUSH1 0x40 MSTORE SWAP1 POP DUP1 SWAP6 POP POP POP POP POP POP SWAP2 SWAP1 POP JUMP JUMPDEST PUSH0 DUP1 REVERT JUMPDEST PUSH0 DUP2 SWAP1 POP SWAP2 SWAP1 POP JUMP JUMPDEST PUSH2 0x1C4 DUP2 PUSH2 0x1B2 JUMP JUMPDEST DUP2 EQ PUSH2 0x1CE JUMPI PUSH0 DUP1 REVERT JUMPDEST POP JUMP JUMPDEST PUSH0 DUP2 CALLDATALOAD SWAP1 POP PUSH2 0x1DF DUP2 PUSH2 0x1BB JUMP JUMPDEST SWAP3 SWAP2 POP POP JUMP JUMPDEST PUSH0 PUSH1 0x20 DUP3 DUP5 SUB SLT ISZERO PUSH2 0x1FA JUMPI PUSH2 0x1F9 PUSH2 0x1AE JUMP JUMPDEST JUMPDEST PUSH0 PUSH2 0x207 DUP5 DUP3 DUP6 ADD PUSH2 0x1D1 JUMP JUMPDEST SWAP2 POP POP SWAP3 SWAP2 POP POP JUMP JUMPDEST PUSH0 DUP2 MLOAD SWAP1 POP SWAP2 SWAP1 POP JUMP JUMPDEST PUSH0 DUP3 DUP3 MSTORE PUSH1 0x20 DUP3 ADD SWAP1 POP SWAP3 SWAP2 POP POP JUMP JUMPDEST DUP3 DUP2 DUP4 MCOPY PUSH0 DUP4 DUP4 ADD MSTORE POP POP POP JUMP JUMPDEST PUSH0 PUSH1 0x1F NOT PUSH1 0x1F DUP4 ADD AND SWAP1 POP SWAP2 SWAP1 POP JUMP JUMPDEST PUSH0 PUSH2 0x252 DUP3 PUSH2 0x210 JUMP JUMPDEST PUSH2 0x25C DUP2 DUP6 PUSH2 0x21A JUMP JUMPDEST SWAP4 POP PUSH2 0x26C DUP2 DUP6 PUSH1 0x20 DUP7 ADD PUSH2 0x22A JUMP JUMPDEST PUSH2 0x275 DUP2 PUSH2 0x238 JUMP JUMPDEST DUP5 ADD SWAP2 POP POP SWAP3 SWAP2 POP POP JUMP JUMPDEST PUSH0 PUSH1 0x20 DUP3 ADD SWAP1 POP DUP2 DUP2 SUB PUSH0 DUP4 ADD MSTORE PUSH2 0x298 DUP2 DUP5 PUSH2 0x248 JUMP JUMPDEST SWAP1 POP SWAP3 SWAP2 POP POP JUMP JUMPDEST PUSH32 0x4E487B7100000000000000000000000000000000000000000000000000000000 PUSH0 MSTORE PUSH1 0x11 PUSH1 0x4 MSTORE PUSH1 0x24 PUSH0 REVERT JUMPDEST PUSH0 PUSH2 0x2D7 DUP3 PUSH2 0x1B2 JUMP JUMPDEST SWAP2 POP PUSH32 0xFFFFFFFFFFFFFFFFFFFFFFFFFFFFFFFFFFFFFFFFFFFFFFFFFFFFFFFFFFFFFFFF DUP3 SUB PUSH2 0x309 JUMPI PUSH2 0x308 PUSH2 0x2A0 JUMP JUMPDEST JUMPDEST PUSH1 0x1 DUP3 ADD SWAP1 POP SWAP2 SWAP1 POP JUMP JUMPDEST PUSH32 0x4E487B7100000000000000000000000000000000000000000000000000000000 PUSH0 MSTORE PUSH1 0x12 PUSH1 0x4 MSTORE PUSH1 0x24 PUSH0 REVERT JUMPDEST PUSH0 PUSH2 0x34B DUP3 PUSH2 0x1B2 JUMP JUMPDEST SWAP2 POP PUSH2 0x356 DUP4 PUSH2 0x1B2 JUMP JUMPDEST SWAP3 POP DUP3 PUSH2 0x366 JUMPI PUSH2 0x365 PUSH2 0x314 JUMP JUMPDEST JUMPDEST DUP3 DUP3 DIV SWAP1 POP SWAP3 SWAP2 POP POP JUMP JUMPDEST PUSH32 0x4E487B7100000000000000000000000000000000000000000000000000000000 PUSH0 MSTORE PUSH1 0x41 PUSH1 0x4 MSTORE PUSH1 0x24 PUSH0 REVERT JUMPDEST PUSH0 PUSH2 0x3A8 DUP3 PUSH2 0x1B2 JUMP JUMPDEST SWAP2 POP PUSH2 0x3B3 DUP4 PUSH2 0x1B2 JUMP JUMPDEST SWAP3 POP DUP3 PUSH2 0x3C3 JUMPI PUSH2 0x3C2 PUSH2 0x314 JUMP JUMPDEST JUMPDEST DUP3 DUP3 MOD SWAP1 POP SWAP3 SWAP2 POP POP JUMP JUMPDEST PUSH0 PUSH2 0x3D8 DUP3 PUSH2 0x1B2 JUMP JUMPDEST SWAP2 POP PUSH2 0x3E3 DUP4 PUSH2 0x1B2 JUMP JUMPDEST SWAP3 POP DUP3 DUP3 ADD SWAP1 POP DUP1 DUP3 GT ISZERO PUSH2 0x3FB JUMPI PUSH2 0x3FA PUSH2 0x2A0 JUMP JUMPDEST JUMPDEST SWAP3 SWAP2 POP POP JUMP JUMPDEST PUSH0 PUSH2 0x40B DUP3 PUSH2 0x1B2 JUMP JUMPDEST SWAP2 POP PUSH2 0x416 DUP4 PUSH2 0x1B2 JUMP JUMPDEST SWAP3 POP DUP3 DUP3 SUB SWAP1 POP DUP2 DUP2 GT ISZERO PUSH2 0x42E JUMPI PUSH2 0x42D PUSH2 0x2A0 JUMP JUMPDEST JUMPDEST SWAP3 SWAP2 POP POP JUMP JUMPDEST PUSH32 0x4E487B7100000000000000000000000000000000000000000000000000000000 PUSH0 MSTORE PUSH1 0x32 PUSH1 0x4 MSTORE PUSH1 0x24 PUSH0 REVERT JUMPDEST PUSH0 DUP2 MLOAD SWAP1 POP SWAP2 SWAP1 POP JUMP JUMPDEST PUSH0 DUP2 SWAP1 POP SWAP3 SWAP2 POP POP JUMP JUMPDEST PUSH0 PUSH2 0x47F DUP3 PUSH2 0x461 JUMP JUMPDEST PUSH2 0x489 DUP2 DUP6 PUSH2 0x46B JUMP JUMPDEST SWAP4 POP PUSH2 0x499 DUP2 DUP6 PUSH1 0x20 DUP7 ADD PUSH2 0x22A JUMP JUMPDEST DUP1 DUP5 ADD SWAP2 POP POP SWAP3 SWAP2 POP POP JUMP JUMPDEST PUSH0 PUSH2 0x4B0 DUP3 DUP5 PUSH2 0x475 JUMP JUMPDEST SWAP2 POP DUP2 SWAP1 POP SWAP3 SWAP2 POP POP JUMP INVALID LOG2 PUSH5 0x6970667358 0x22 SLT KECCAK256 0xD2 0x2B 0x2F 0xAE SWAP16 SWAP3 SWAP12 SLT 0xEE 0x26 ADDMOD PUSH15 0x66ED61F7C7FE50330ED239952ACC4E 0xC0 0x29 MSIZE 0xBF PUSH30 0x64736F6C6343000819003300000000000000000000000000000000000000 "
				},
				"gasEstimates": {
					"creation": {
						"codeDepositCost": "253000",
						"executionCost": "292",
						"totalCost": "253292"
					},
					"external": {
						"uintToString(uint256)": "infinite"
					}
				},
				"methodIdentifiers": {
					"uintToString(uint256)": "e9395679"
				}
			},
			"storageLayout": {
				"storage": [],
				"types": null
			},
			"userdoc": {
				"kind": "user",
				"methods": {},
				"version": 1
			}
		}
	}
}