{
	"solidity_100/71-80.sol": {
		"Q74": {
			"abi": [
				{
					"inputs": [
						{
							"internalType": "uint256",
							"name": "a",
							"type": "uint256"
						}
					],
					"name": "operate",
					"outputs": [
						{
							"internalType": "uint256",
							"name": "",
							"type": "uint256"
						},
						{
							"internalType": "uint256",
							"name": "",
							"type": "uint256"
						}
					],
					"stateMutability": "pure",
					"type": "function"
				}
			],
			"devdoc": {
				"kind": "dev",
				"methods": {},
				"version": 1
			},
			"evm": {
				"assembly": "    /* \"solidity_100/71-80.sol\":4122:4889  contract Q74 {... */\n  mstore(0x40, 0x80)\n  callvalue\n  dup1\n  iszero\n  tag_1\n  jumpi\n  0x00\n  dup1\n  revert\ntag_1:\n  pop\n  dataSize(sub_0)\n  dup1\n  dataOffset(sub_0)\n  0x00\n  codecopy\n  0x00\n  return\nstop\n\nsub_0: assembly {\n        /* \"solidity_100/71-80.sol\":4122:4889  contract Q74 {... */\n      mstore(0x40, 0x80)\n      callvalue\n      dup1\n      iszero\n      tag_1\n      jumpi\n      0x00\n      dup1\n      revert\n    tag_1:\n      pop\n      jumpi(tag_2, lt(calldatasize, 0x04))\n      shr(0xe0, calldataload(0x00))\n      dup1\n      0x5e04babd\n      eq\n      tag_3\n      jumpi\n    tag_2:\n      0x00\n      dup1\n      revert\n        /* \"solidity_100/71-80.sol\":4623:4886  function operate(uint a) public pure returns(uint, uint) {... */\n    tag_3:\n      tag_4\n      0x04\n      dup1\n      calldatasize\n      sub\n      dup2\n      add\n      swap1\n      tag_5\n      swap2\n      swap1\n      tag_6\n      jump\t// in\n    tag_5:\n      tag_7\n      jump\t// in\n    tag_4:\n      mload(0x40)\n      tag_8\n      swap3\n      swap2\n      swap1\n      tag_9\n      jump\t// in\n    tag_8:\n      mload(0x40)\n      dup1\n      swap2\n      sub\n      swap1\n      return\n    tag_7:\n        /* \"solidity_100/71-80.sol\":4668:4672  uint */\n      0x00\n        /* \"solidity_100/71-80.sol\":4674:4678  uint */\n      dup1\n        /* \"solidity_100/71-80.sol\":4691:4702  uint answer */\n      0x00\n        /* \"solidity_100/71-80.sol\":4714:4716  10 */\n      0x0a\n        /* \"solidity_100/71-80.sol\":4710:4711  a */\n      dup5\n        /* \"solidity_100/71-80.sol\":4710:4716  a / 10 */\n      tag_11\n      swap2\n      swap1\n      tag_12\n      jump\t// in\n    tag_11:\n        /* \"solidity_100/71-80.sol\":4705:4706  a */\n      dup5\n        /* \"solidity_100/71-80.sol\":4705:4717  a + (a / 10) */\n      tag_13\n      swap2\n      swap1\n      tag_14\n      jump\t// in\n    tag_13:\n        /* \"solidity_100/71-80.sol\":4691:4717  uint answer = a + (a / 10) */\n      swap1\n      pop\n        /* \"solidity_100/71-80.sol\":4728:4736  uint res */\n      0x00\n        /* \"solidity_100/71-80.sol\":4743:4745  10 */\n      0x0a\n        /* \"solidity_100/71-80.sol\":4739:4740  a */\n      dup6\n        /* \"solidity_100/71-80.sol\":4739:4745  a % 10 */\n      tag_15\n      swap2\n      swap1\n      tag_16\n      jump\t// in\n    tag_15:\n        /* \"solidity_100/71-80.sol\":4728:4745  uint res = a % 10 */\n      swap1\n      pop\n        /* \"solidity_100/71-80.sol\":4766:4767  0 */\n      0x00\n        /* \"solidity_100/71-80.sol\":4759:4762  res */\n      dup2\n        /* \"solidity_100/71-80.sol\":4759:4767  res != 0 */\n      eq\n        /* \"solidity_100/71-80.sol\":4756:4869  if(res != 0) {... */\n      tag_17\n      jumpi\n        /* \"solidity_100/71-80.sol\":4792:4798  answer */\n      dup2\n        /* \"solidity_100/71-80.sol\":4800:4803  res */\n      dup2\n        /* \"solidity_100/71-80.sol\":4784:4804  return (answer, res) */\n      swap4\n      pop\n      swap4\n      pop\n      pop\n      pop\n      jump(tag_10)\n        /* \"solidity_100/71-80.sol\":4756:4869  if(res != 0) {... */\n    tag_17:\n        /* \"solidity_100/71-80.sol\":4845:4851  answer */\n      dup2\n        /* \"solidity_100/71-80.sol\":4853:4856  res */\n      dup2\n        /* \"solidity_100/71-80.sol\":4837:4857  return (answer, res) */\n      swap4\n      pop\n      swap4\n      pop\n      pop\n      pop\n        /* \"solidity_100/71-80.sol\":4623:4886  function operate(uint a) public pure returns(uint, uint) {... */\n    tag_10:\n      swap2\n      pop\n      swap2\n      jump\t// out\n        /* \"#utility.yul\":88:205   */\n    tag_20:\n        /* \"#utility.yul\":197:198   */\n      0x00\n        /* \"#utility.yul\":194:195   */\n      dup1\n        /* \"#utility.yul\":187:199   */\n      revert\n        /* \"#utility.yul\":334:411   */\n    tag_22:\n        /* \"#utility.yul\":371:378   */\n      0x00\n        /* \"#utility.yul\":400:405   */\n      dup2\n        /* \"#utility.yul\":389:405   */\n      swap1\n      pop\n        /* \"#utility.yul\":334:411   */\n      swap2\n      swap1\n      pop\n      jump\t// out\n        /* \"#utility.yul\":417:539   */\n    tag_23:\n        /* \"#utility.yul\":490:514   */\n      tag_34\n        /* \"#utility.yul\":508:513   */\n      dup2\n        /* \"#utility.yul\":490:514   */\n      tag_22\n      jump\t// in\n    tag_34:\n        /* \"#utility.yul\":483:488   */\n      dup2\n        /* \"#utility.yul\":480:515   */\n      eq\n        /* \"#utility.yul\":470:533   */\n      tag_35\n      jumpi\n        /* \"#utility.yul\":529:530   */\n      0x00\n        /* \"#utility.yul\":526:527   */\n      dup1\n        /* \"#utility.yul\":519:531   */\n      revert\n        /* \"#utility.yul\":470:533   */\n    tag_35:\n        /* \"#utility.yul\":417:539   */\n      pop\n      jump\t// out\n        /* \"#utility.yul\":545:684   */\n    tag_24:\n        /* \"#utility.yul\":591:596   */\n      0x00\n        /* \"#utility.yul\":629:635   */\n      dup2\n        /* \"#utility.yul\":616:636   */\n      calldataload\n        /* \"#utility.yul\":607:636   */\n      swap1\n      pop\n        /* \"#utility.yul\":645:678   */\n      tag_37\n        /* \"#utility.yul\":672:677   */\n      dup2\n        /* \"#utility.yul\":645:678   */\n      tag_23\n      jump\t// in\n    tag_37:\n        /* \"#utility.yul\":545:684   */\n      swap3\n      swap2\n      pop\n      pop\n      jump\t// out\n        /* \"#utility.yul\":690:1019   */\n    tag_6:\n        /* \"#utility.yul\":749:755   */\n      0x00\n        /* \"#utility.yul\":798:800   */\n      0x20\n        /* \"#utility.yul\":786:795   */\n      dup3\n        /* \"#utility.yul\":777:784   */\n      dup5\n        /* \"#utility.yul\":773:796   */\n      sub\n        /* \"#utility.yul\":769:801   */\n      slt\n        /* \"#utility.yul\":766:885   */\n      iszero\n      tag_39\n      jumpi\n        /* \"#utility.yul\":804:883   */\n      tag_40\n      tag_20\n      jump\t// in\n    tag_40:\n        /* \"#utility.yul\":766:885   */\n    tag_39:\n        /* \"#utility.yul\":924:925   */\n      0x00\n        /* \"#utility.yul\":949:1002   */\n      tag_41\n        /* \"#utility.yul\":994:1001   */\n      dup5\n        /* \"#utility.yul\":985:991   */\n      dup3\n        /* \"#utility.yul\":974:983   */\n      dup6\n        /* \"#utility.yul\":970:992   */\n      add\n        /* \"#utility.yul\":949:1002   */\n      tag_24\n      jump\t// in\n    tag_41:\n        /* \"#utility.yul\":939:1002   */\n      swap2\n      pop\n        /* \"#utility.yul\":895:1012   */\n      pop\n        /* \"#utility.yul\":690:1019   */\n      swap3\n      swap2\n      pop\n      pop\n      jump\t// out\n        /* \"#utility.yul\":1025:1143   */\n    tag_25:\n        /* \"#utility.yul\":1112:1136   */\n      tag_43\n        /* \"#utility.yul\":1130:1135   */\n      dup2\n        /* \"#utility.yul\":1112:1136   */\n      tag_22\n      jump\t// in\n    tag_43:\n        /* \"#utility.yul\":1107:1110   */\n      dup3\n        /* \"#utility.yul\":1100:1137   */\n      mstore\n        /* \"#utility.yul\":1025:1143   */\n      pop\n      pop\n      jump\t// out\n        /* \"#utility.yul\":1149:1481   */\n    tag_9:\n        /* \"#utility.yul\":1270:1274   */\n      0x00\n        /* \"#utility.yul\":1308:1310   */\n      0x40\n        /* \"#utility.yul\":1297:1306   */\n      dup3\n        /* \"#utility.yul\":1293:1311   */\n      add\n        /* \"#utility.yul\":1285:1311   */\n      swap1\n      pop\n        /* \"#utility.yul\":1321:1392   */\n      tag_45\n        /* \"#utility.yul\":1389:1390   */\n      0x00\n        /* \"#utility.yul\":1378:1387   */\n      dup4\n        /* \"#utility.yul\":1374:1391   */\n      add\n        /* \"#utility.yul\":1365:1371   */\n      dup6\n        /* \"#utility.yul\":1321:1392   */\n      tag_25\n      jump\t// in\n    tag_45:\n        /* \"#utility.yul\":1402:1474   */\n      tag_46\n        /* \"#utility.yul\":1470:1472   */\n      0x20\n        /* \"#utility.yul\":1459:1468   */\n      dup4\n        /* \"#utility.yul\":1455:1473   */\n      add\n        /* \"#utility.yul\":1446:1452   */\n      dup5\n        /* \"#utility.yul\":1402:1474   */\n      tag_25\n      jump\t// in\n    tag_46:\n        /* \"#utility.yul\":1149:1481   */\n      swap4\n      swap3\n      pop\n      pop\n      pop\n      jump\t// out\n        /* \"#utility.yul\":1487:1667   */\n    tag_26:\n        /* \"#utility.yul\":1535:1612   */\n      0x4e487b7100000000000000000000000000000000000000000000000000000000\n        /* \"#utility.yul\":1532:1533   */\n      0x00\n        /* \"#utility.yul\":1525:1613   */\n      mstore\n        /* \"#utility.yul\":1632:1636   */\n      0x12\n        /* \"#utility.yul\":1629:1630   */\n      0x04\n        /* \"#utility.yul\":1622:1637   */\n      mstore\n        /* \"#utility.yul\":1656:1660   */\n      0x24\n        /* \"#utility.yul\":1653:1654   */\n      0x00\n        /* \"#utility.yul\":1646:1661   */\n      revert\n        /* \"#utility.yul\":1673:1853   */\n    tag_27:\n        /* \"#utility.yul\":1721:1798   */\n      0x4e487b7100000000000000000000000000000000000000000000000000000000\n        /* \"#utility.yul\":1718:1719   */\n      0x00\n        /* \"#utility.yul\":1711:1799   */\n      mstore\n        /* \"#utility.yul\":1818:1822   */\n      0x11\n        /* \"#utility.yul\":1815:1816   */\n      0x04\n        /* \"#utility.yul\":1808:1823   */\n      mstore\n        /* \"#utility.yul\":1842:1846   */\n      0x24\n        /* \"#utility.yul\":1839:1840   */\n      0x00\n        /* \"#utility.yul\":1832:1847   */\n      revert\n        /* \"#utility.yul\":1859:2044   */\n    tag_12:\n        /* \"#utility.yul\":1899:1900   */\n      0x00\n        /* \"#utility.yul\":1916:1936   */\n      tag_50\n        /* \"#utility.yul\":1934:1935   */\n      dup3\n        /* \"#utility.yul\":1916:1936   */\n      tag_22\n      jump\t// in\n    tag_50:\n        /* \"#utility.yul\":1911:1936   */\n      swap2\n      pop\n        /* \"#utility.yul\":1950:1970   */\n      tag_51\n        /* \"#utility.yul\":1968:1969   */\n      dup4\n        /* \"#utility.yul\":1950:1970   */\n      tag_22\n      jump\t// in\n    tag_51:\n        /* \"#utility.yul\":1945:1970   */\n      swap3\n      pop\n        /* \"#utility.yul\":1989:1990   */\n      dup3\n        /* \"#utility.yul\":1979:2014   */\n      tag_52\n      jumpi\n        /* \"#utility.yul\":1994:2012   */\n      tag_53\n      tag_26\n      jump\t// in\n    tag_53:\n        /* \"#utility.yul\":1979:2014   */\n    tag_52:\n        /* \"#utility.yul\":2036:2037   */\n      dup3\n        /* \"#utility.yul\":2033:2034   */\n      dup3\n        /* \"#utility.yul\":2029:2038   */\n      div\n        /* \"#utility.yul\":2024:2038   */\n      swap1\n      pop\n        /* \"#utility.yul\":1859:2044   */\n      swap3\n      swap2\n      pop\n      pop\n      jump\t// out\n        /* \"#utility.yul\":2050:2241   */\n    tag_14:\n        /* \"#utility.yul\":2090:2093   */\n      0x00\n        /* \"#utility.yul\":2109:2129   */\n      tag_55\n        /* \"#utility.yul\":2127:2128   */\n      dup3\n        /* \"#utility.yul\":2109:2129   */\n      tag_22\n      jump\t// in\n    tag_55:\n        /* \"#utility.yul\":2104:2129   */\n      swap2\n      pop\n        /* \"#utility.yul\":2143:2163   */\n      tag_56\n        /* \"#utility.yul\":2161:2162   */\n      dup4\n        /* \"#utility.yul\":2143:2163   */\n      tag_22\n      jump\t// in\n    tag_56:\n        /* \"#utility.yul\":2138:2163   */\n      swap3\n      pop\n        /* \"#utility.yul\":2186:2187   */\n      dup3\n        /* \"#utility.yul\":2183:2184   */\n      dup3\n        /* \"#utility.yul\":2179:2188   */\n      add\n        /* \"#utility.yul\":2172:2188   */\n      swap1\n      pop\n        /* \"#utility.yul\":2207:2210   */\n      dup1\n        /* \"#utility.yul\":2204:2205   */\n      dup3\n        /* \"#utility.yul\":2201:2211   */\n      gt\n        /* \"#utility.yul\":2198:2234   */\n      iszero\n      tag_57\n      jumpi\n        /* \"#utility.yul\":2214:2232   */\n      tag_58\n      tag_27\n      jump\t// in\n    tag_58:\n        /* \"#utility.yul\":2198:2234   */\n    tag_57:\n        /* \"#utility.yul\":2050:2241   */\n      swap3\n      swap2\n      pop\n      pop\n      jump\t// out\n        /* \"#utility.yul\":2247:2423   */\n    tag_16:\n        /* \"#utility.yul\":2279:2280   */\n      0x00\n        /* \"#utility.yul\":2296:2316   */\n      tag_60\n        /* \"#utility.yul\":2314:2315   */\n      dup3\n        /* \"#utility.yul\":2296:2316   */\n      tag_22\n      jump\t// in\n    tag_60:\n        /* \"#utility.yul\":2291:2316   */\n      swap2\n      pop\n        /* \"#utility.yul\":2330:2350   */\n      tag_61\n        /* \"#utility.yul\":2348:2349   */\n      dup4\n        /* \"#utility.yul\":2330:2350   */\n      tag_22\n      jump\t// in\n    tag_61:\n        /* \"#utility.yul\":2325:2350   */\n      swap3\n      pop\n        /* \"#utility.yul\":2369:2370   */\n      dup3\n        /* \"#utility.yul\":2359:2394   */\n      tag_62\n      jumpi\n        /* \"#utility.yul\":2374:2392   */\n      tag_63\n      tag_26\n      jump\t// in\n    tag_63:\n        /* \"#utility.yul\":2359:2394   */\n    tag_62:\n        /* \"#utility.yul\":2415:2416   */\n      dup3\n        /* \"#utility.yul\":2412:2413   */\n      dup3\n        /* \"#utility.yul\":2408:2417   */\n      mod\n        /* \"#utility.yul\":2403:2417   */\n      swap1\n      pop\n        /* \"#utility.yul\":2247:2423   */\n      swap3\n      swap2\n      pop\n      pop\n      jump\t// out\n\n    auxdata: 0xa2646970667358221220343e80c2fa5ab6f93e9be9831b2e1b585a619e0ca73eb954f2a5e6decf23e3af64736f6c63430008190033\n}\n",
				"bytecode": {
					"linkReferences": {},
					"object": "6080604052348015600e575f80fd5b506102688061001c5f395ff3fe608060405234801561000f575f80fd5b5060043610610029575f3560e01c80635e04babd1461002d575b5f80fd5b610047600480360381019061004291906100e4565b61005e565b60405161005592919061011e565b60405180910390f35b5f805f600a8461006e919061019f565b8461007991906101cf565b90505f600a856100899190610202565b90505f811461009f5781819350935050506100a8565b81819350935050505b915091565b5f80fd5b5f819050919050565b6100c3816100b1565b81146100cd575f80fd5b50565b5f813590506100de816100ba565b92915050565b5f602082840312156100f9576100f86100ad565b5b5f610106848285016100d0565b91505092915050565b610118816100b1565b82525050565b5f6040820190506101315f83018561010f565b61013e602083018461010f565b9392505050565b7f4e487b71000000000000000000000000000000000000000000000000000000005f52601260045260245ffd5b7f4e487b71000000000000000000000000000000000000000000000000000000005f52601160045260245ffd5b5f6101a9826100b1565b91506101b4836100b1565b9250826101c4576101c3610145565b5b828204905092915050565b5f6101d9826100b1565b91506101e4836100b1565b92508282019050808211156101fc576101fb610172565b5b92915050565b5f61020c826100b1565b9150610217836100b1565b92508261022757610226610145565b5b82820690509291505056fea2646970667358221220343e80c2fa5ab6f93e9be9831b2e1b585a619e0ca73eb954f2a5e6decf23e3af64736f6c63430008190033",
					"opcodes": "PUSH1 0x80 PUSH1 0x40 MSTORE CALLVALUE DUP1 ISZERO PUSH1 0xE JUMPI PUSH0 DUP1 REVERT JUMPDEST POP PUSH2 0x268 DUP1 PUSH2 0x1C PUSH0 CODECOPY PUSH0 RETURN INVALID PUSH1 0x80 PUSH1 0x40 MSTORE CALLVALUE DUP1 ISZERO PUSH2 0xF JUMPI PUSH0 DUP1 REVERT JUMPDEST POP PUSH1 0x4 CALLDATASIZE LT PUSH2 0x29 JUMPI PUSH0 CALLDATALOAD PUSH1 0xE0 SHR DUP1 PUSH4 0x5E04BABD EQ PUSH2 0x2D JUMPI JUMPDEST PUSH0 DUP1 REVERT JUMPDEST PUSH2 0x47 PUSH1 0x4 DUP1 CALLDATASIZE SUB DUP2 ADD SWAP1 PUSH2 0x42 SWAP2 SWAP1 PUSH2 0xE4 JUMP JUMPDEST PUSH2 0x5E JUMP JUMPDEST PUSH1 0x40 MLOAD PUSH2 0x55 SWAP3 SWAP2 SWAP1 PUSH2 0x11E JUMP JUMPDEST PUSH1 0x40 MLOAD DUP1 SWAP2 SUB SWAP1 RETURN JUMPDEST PUSH0 DUP1 PUSH0 PUSH1 0xA DUP5 PUSH2 0x6E SWAP2 SWAP1 PUSH2 0x19F JUMP JUMPDEST DUP5 PUSH2 0x79 SWAP2 SWAP1 PUSH2 0x1CF JUMP JUMPDEST SWAP1 POP PUSH0 PUSH1 0xA DUP6 PUSH2 0x89 SWAP2 SWAP1 PUSH2 0x202 JUMP JUMPDEST SWAP1 POP PUSH0 DUP2 EQ PUSH2 0x9F JUMPI DUP2 DUP2 SWAP4 POP SWAP4 POP POP POP PUSH2 0xA8 JUMP JUMPDEST DUP2 DUP2 SWAP4 POP SWAP4 POP POP POP JUMPDEST SWAP2 POP SWAP2 JUMP JUMPDEST PUSH0 DUP1 REVERT JUMPDEST PUSH0 DUP2 SWAP1 POP SWAP2 SWAP1 POP JUMP JUMPDEST PUSH2 0xC3 DUP2 PUSH2 0xB1 JUMP JUMPDEST DUP2 EQ PUSH2 0xCD JUMPI PUSH0 DUP1 REVERT JUMPDEST POP JUMP JUMPDEST PUSH0 DUP2 CALLDATALOAD SWAP1 POP PUSH2 0xDE DUP2 PUSH2 0xBA JUMP JUMPDEST SWAP3 SWAP2 POP POP JUMP JUMPDEST PUSH0 PUSH1 0x20 DUP3 DUP5 SUB SLT ISZERO PUSH2 0xF9 JUMPI PUSH2 0xF8 PUSH2 0xAD JUMP JUMPDEST JUMPDEST PUSH0 PUSH2 0x106 DUP5 DUP3 DUP6 ADD PUSH2 0xD0 JUMP JUMPDEST SWAP2 POP POP SWAP3 SWAP2 POP POP JUMP JUMPDEST PUSH2 0x118 DUP2 PUSH2 0xB1 JUMP JUMPDEST DUP3 MSTORE POP POP JUMP JUMPDEST PUSH0 PUSH1 0x40 DUP3 ADD SWAP1 POP PUSH2 0x131 PUSH0 DUP4 ADD DUP6 PUSH2 0x10F JUMP JUMPDEST PUSH2 0x13E PUSH1 0x20 DUP4 ADD DUP5 PUSH2 0x10F JUMP JUMPDEST SWAP4 SWAP3 POP POP POP JUMP JUMPDEST PUSH32 0x4E487B7100000000000000000000000000000000000000000000000000000000 PUSH0 MSTORE PUSH1 0x12 PUSH1 0x4 MSTORE PUSH1 0x24 PUSH0 REVERT JUMPDEST PUSH32 0x4E487B7100000000000000000000000000000000000000000000000000000000 PUSH0 MSTORE PUSH1 0x11 PUSH1 0x4 MSTORE PUSH1 0x24 PUSH0 REVERT JUMPDEST PUSH0 PUSH2 0x1A9 DUP3 PUSH2 0xB1 JUMP JUMPDEST SWAP2 POP PUSH2 0x1B4 DUP4 PUSH2 0xB1 JUMP JUMPDEST SWAP3 POP DUP3 PUSH2 0x1C4 JUMPI PUSH2 0x1C3 PUSH2 0x145 JUMP JUMPDEST JUMPDEST DUP3 DUP3 DIV SWAP1 POP SWAP3 SWAP2 POP POP JUMP JUMPDEST PUSH0 PUSH2 0x1D9 DUP3 PUSH2 0xB1 JUMP JUMPDEST SWAP2 POP PUSH2 0x1E4 DUP4 PUSH2 0xB1 JUMP JUMPDEST SWAP3 POP DUP3 DUP3 ADD SWAP1 POP DUP1 DUP3 GT ISZERO PUSH2 0x1FC JUMPI PUSH2 0x1FB PUSH2 0x172 JUMP JUMPDEST JUMPDEST SWAP3 SWAP2 POP POP JUMP JUMPDEST PUSH0 PUSH2 0x20C DUP3 PUSH2 0xB1 JUMP JUMPDEST SWAP2 POP PUSH2 0x217 DUP4 PUSH2 0xB1 JUMP JUMPDEST SWAP3 POP DUP3 PUSH2 0x227 JUMPI PUSH2 0x226 PUSH2 0x145 JUMP JUMPDEST JUMPDEST DUP3 DUP3 MOD SWAP1 POP SWAP3 SWAP2 POP POP JUMP INVALID LOG2 PUSH5 0x6970667358 0x22 SLT KECCAK256 CALLVALUE RETURNDATACOPY DUP1 0xC2 STATICCALL GAS 0xB6 0xF9 RETURNDATACOPY SWAP12 0xE9 DUP4 SHL 0x2E SHL PC GAS PUSH2 0x9E0C 0xA7 RETURNDATACOPY 0xB9 SLOAD CALLCODE 0xA5 0xE6 0xDE 0xCF 0x23 0xE3 0xAF PUSH5 0x736F6C6343 STOP ADDMOD NOT STOP CALLER "
				},
				"gasEstimates": {
					"creation": {
						"codeDepositCost": "123200",
						"executionCost": "169",
						"totalCost": "123369"
					},
					"external": {
						"operate(uint256)": "infinite"
					}
				},
				"methodIdentifiers": {
					"operate(uint256)": "5e04babd"
				}
			},
			"storageLayout": {
				"storage": [],
				"types": null
			},
			"userdoc": {
				"kind": "user",
				"methods": {},
				"version": 1
			}
		}
	}
}