{
	"solidity_100/71-80.sol": {
		"Q75": {
			"abi": [
				{
					"inputs": [
						{
							"internalType": "string",
							"name": "_string",
							"type": "string"
						},
						{
							"internalType": "uint256",
							"name": "_n",
							"type": "uint256"
						}
					],
					"name": "stringPrint",
					"outputs": [
						{
							"internalType": "string",
							"name": "",
							"type": "string"
						}
					],
					"stateMutability": "pure",
					"type": "function"
				}
			],
			"devdoc": {
				"kind": "dev",
				"methods": {},
				"version": 1
			},
			"evm": {
				"assembly": "    /* \"solidity_100/71-80.sol\":4893:5359  contract Q75 {... */\n  mstore(0x40, 0x80)\n  callvalue\n  dup1\n  iszero\n  tag_1\n  jumpi\n  0x00\n  dup1\n  revert\ntag_1:\n  pop\n  dataSize(sub_0)\n  dup1\n  dataOffset(sub_0)\n  0x00\n  codecopy\n  0x00\n  return\nstop\n\nsub_0: assembly {\n        /* \"solidity_100/71-80.sol\":4893:5359  contract Q75 {... */\n      mstore(0x40, 0x80)\n      callvalue\n      dup1\n      iszero\n      tag_1\n      jumpi\n      0x00\n      dup1\n      revert\n    tag_1:\n      pop\n      jumpi(tag_2, lt(calldatasize, 0x04))\n      shr(0xe0, calldataload(0x00))\n      dup1\n      0xddbaa6f7\n      eq\n      tag_3\n      jumpi\n    tag_2:\n      0x00\n      dup1\n      revert\n        /* \"solidity_100/71-80.sol\":5088:5356  function stringPrint(string memory _string, uint _n) public pure returns(string memory) {... */\n    tag_3:\n      tag_4\n      0x04\n      dup1\n      calldatasize\n      sub\n      dup2\n      add\n      swap1\n      tag_5\n      swap2\n      swap1\n      tag_6\n      jump\t// in\n    tag_5:\n      tag_7\n      jump\t// in\n    tag_4:\n      mload(0x40)\n      tag_8\n      swap2\n      swap1\n      tag_9\n      jump\t// in\n    tag_8:\n      mload(0x40)\n      dup1\n      swap2\n      sub\n      swap1\n      return\n    tag_7:\n        /* \"solidity_100/71-80.sol\":5161:5174  string memory */\n      0x60\n        /* \"solidity_100/71-80.sol\":5187:5207  string memory result */\n      dup1\n        /* \"solidity_100/71-80.sol\":5222:5228  uint i */\n      0x00\n        /* \"solidity_100/71-80.sol\":5218:5325  for(uint i = 0; i < _n ; i++) {... */\n    tag_11:\n        /* \"solidity_100/71-80.sol\":5238:5240  _n */\n      dup4\n        /* \"solidity_100/71-80.sol\":5234:5235  i */\n      dup2\n        /* \"solidity_100/71-80.sol\":5234:5240  i < _n */\n      lt\n        /* \"solidity_100/71-80.sol\":5218:5325  for(uint i = 0; i < _n ; i++) {... */\n      iszero\n      tag_12\n      jumpi\n        /* \"solidity_100/71-80.sol\":5296:5302  result */\n      dup2\n        /* \"solidity_100/71-80.sol\":5304:5311  _string */\n      dup6\n        /* \"solidity_100/71-80.sol\":5279:5312  abi.encodePacked(result, _string) */\n      add(0x20, mload(0x40))\n      tag_14\n      swap3\n      swap2\n      swap1\n      tag_15\n      jump\t// in\n    tag_14:\n      mload(0x40)\n      0x20\n      dup2\n      dup4\n      sub\n      sub\n      dup2\n      mstore\n      swap1\n      0x40\n      mstore\n        /* \"solidity_100/71-80.sol\":5263:5313  result = string(abi.encodePacked(result, _string)) */\n      swap2\n      pop\n        /* \"solidity_100/71-80.sol\":5243:5246  i++ */\n      dup1\n      dup1\n      0x01\n      add\n      swap2\n      pop\n      pop\n        /* \"solidity_100/71-80.sol\":5218:5325  for(uint i = 0; i < _n ; i++) {... */\n      jump(tag_11)\n    tag_12:\n      pop\n        /* \"solidity_100/71-80.sol\":5342:5348  result */\n      dup1\n        /* \"solidity_100/71-80.sol\":5335:5348  return result */\n      swap2\n      pop\n      pop\n        /* \"solidity_100/71-80.sol\":5088:5356  function stringPrint(string memory _string, uint _n) public pure returns(string memory) {... */\n      swap3\n      swap2\n      pop\n      pop\n      jump\t// out\n        /* \"#utility.yul\":7:82   */\n    tag_16:\n        /* \"#utility.yul\":40:46   */\n      0x00\n        /* \"#utility.yul\":73:75   */\n      0x40\n        /* \"#utility.yul\":67:76   */\n      mload\n        /* \"#utility.yul\":57:76   */\n      swap1\n      pop\n        /* \"#utility.yul\":7:82   */\n      swap1\n      jump\t// out\n        /* \"#utility.yul\":88:205   */\n    tag_17:\n        /* \"#utility.yul\":197:198   */\n      0x00\n        /* \"#utility.yul\":194:195   */\n      dup1\n        /* \"#utility.yul\":187:199   */\n      revert\n        /* \"#utility.yul\":211:328   */\n    tag_18:\n        /* \"#utility.yul\":320:321   */\n      0x00\n        /* \"#utility.yul\":317:318   */\n      dup1\n        /* \"#utility.yul\":310:322   */\n      revert\n        /* \"#utility.yul\":334:451   */\n    tag_19:\n        /* \"#utility.yul\":443:444   */\n      0x00\n        /* \"#utility.yul\":440:441   */\n      dup1\n        /* \"#utility.yul\":433:445   */\n      revert\n        /* \"#utility.yul\":457:574   */\n    tag_20:\n        /* \"#utility.yul\":566:567   */\n      0x00\n        /* \"#utility.yul\":563:564   */\n      dup1\n        /* \"#utility.yul\":556:568   */\n      revert\n        /* \"#utility.yul\":580:682   */\n    tag_21:\n        /* \"#utility.yul\":621:627   */\n      0x00\n        /* \"#utility.yul\":672:674   */\n      0x1f\n        /* \"#utility.yul\":668:675   */\n      not\n        /* \"#utility.yul\":663:665   */\n      0x1f\n        /* \"#utility.yul\":656:661   */\n      dup4\n        /* \"#utility.yul\":652:666   */\n      add\n        /* \"#utility.yul\":648:676   */\n      and\n        /* \"#utility.yul\":638:676   */\n      swap1\n      pop\n        /* \"#utility.yul\":580:682   */\n      swap2\n      swap1\n      pop\n      jump\t// out\n        /* \"#utility.yul\":688:868   */\n    tag_22:\n        /* \"#utility.yul\":736:813   */\n      0x4e487b7100000000000000000000000000000000000000000000000000000000\n        /* \"#utility.yul\":733:734   */\n      0x00\n        /* \"#utility.yul\":726:814   */\n      mstore\n        /* \"#utility.yul\":833:837   */\n      0x41\n        /* \"#utility.yul\":830:831   */\n      0x04\n        /* \"#utility.yul\":823:838   */\n      mstore\n        /* \"#utility.yul\":857:861   */\n      0x24\n        /* \"#utility.yul\":854:855   */\n      0x00\n        /* \"#utility.yul\":847:862   */\n      revert\n        /* \"#utility.yul\":874:1155   */\n    tag_23:\n        /* \"#utility.yul\":957:984   */\n      tag_47\n        /* \"#utility.yul\":979:983   */\n      dup3\n        /* \"#utility.yul\":957:984   */\n      tag_21\n      jump\t// in\n    tag_47:\n        /* \"#utility.yul\":949:955   */\n      dup2\n        /* \"#utility.yul\":945:985   */\n      add\n        /* \"#utility.yul\":1087:1093   */\n      dup2\n        /* \"#utility.yul\":1075:1085   */\n      dup2\n        /* \"#utility.yul\":1072:1094   */\n      lt\n        /* \"#utility.yul\":1051:1069   */\n      0xffffffffffffffff\n        /* \"#utility.yul\":1039:1049   */\n      dup3\n        /* \"#utility.yul\":1036:1070   */\n      gt\n        /* \"#utility.yul\":1033:1095   */\n      or\n        /* \"#utility.yul\":1030:1118   */\n      iszero\n      tag_48\n      jumpi\n        /* \"#utility.yul\":1098:1116   */\n      tag_49\n      tag_22\n      jump\t// in\n    tag_49:\n        /* \"#utility.yul\":1030:1118   */\n    tag_48:\n        /* \"#utility.yul\":1138:1148   */\n      dup1\n        /* \"#utility.yul\":1134:1136   */\n      0x40\n        /* \"#utility.yul\":1127:1149   */\n      mstore\n        /* \"#utility.yul\":917:1155   */\n      pop\n        /* \"#utility.yul\":874:1155   */\n      pop\n      pop\n      jump\t// out\n        /* \"#utility.yul\":1161:1290   */\n    tag_24:\n        /* \"#utility.yul\":1195:1201   */\n      0x00\n        /* \"#utility.yul\":1222:1242   */\n      tag_51\n      tag_16\n      jump\t// in\n    tag_51:\n        /* \"#utility.yul\":1212:1242   */\n      swap1\n      pop\n        /* \"#utility.yul\":1251:1284   */\n      tag_52\n        /* \"#utility.yul\":1279:1283   */\n      dup3\n        /* \"#utility.yul\":1271:1277   */\n      dup3\n        /* \"#utility.yul\":1251:1284   */\n      tag_23\n      jump\t// in\n    tag_52:\n        /* \"#utility.yul\":1161:1290   */\n      swap2\n      swap1\n      pop\n      jump\t// out\n        /* \"#utility.yul\":1296:1604   */\n    tag_25:\n        /* \"#utility.yul\":1358:1362   */\n      0x00\n        /* \"#utility.yul\":1448:1466   */\n      0xffffffffffffffff\n        /* \"#utility.yul\":1440:1446   */\n      dup3\n        /* \"#utility.yul\":1437:1467   */\n      gt\n        /* \"#utility.yul\":1434:1490   */\n      iszero\n      tag_54\n      jumpi\n        /* \"#utility.yul\":1470:1488   */\n      tag_55\n      tag_22\n      jump\t// in\n    tag_55:\n        /* \"#utility.yul\":1434:1490   */\n    tag_54:\n        /* \"#utility.yul\":1508:1537   */\n      tag_56\n        /* \"#utility.yul\":1530:1536   */\n      dup3\n        /* \"#utility.yul\":1508:1537   */\n      tag_21\n      jump\t// in\n    tag_56:\n        /* \"#utility.yul\":1500:1537   */\n      swap1\n      pop\n        /* \"#utility.yul\":1592:1596   */\n      0x20\n        /* \"#utility.yul\":1586:1590   */\n      dup2\n        /* \"#utility.yul\":1582:1597   */\n      add\n        /* \"#utility.yul\":1574:1597   */\n      swap1\n      pop\n        /* \"#utility.yul\":1296:1604   */\n      swap2\n      swap1\n      pop\n      jump\t// out\n        /* \"#utility.yul\":1610:1758   */\n    tag_26:\n        /* \"#utility.yul\":1708:1714   */\n      dup3\n        /* \"#utility.yul\":1703:1706   */\n      dup2\n        /* \"#utility.yul\":1698:1701   */\n      dup4\n        /* \"#utility.yul\":1685:1715   */\n      calldatacopy\n        /* \"#utility.yul\":1749:1750   */\n      0x00\n        /* \"#utility.yul\":1740:1746   */\n      dup4\n        /* \"#utility.yul\":1735:1738   */\n      dup4\n        /* \"#utility.yul\":1731:1747   */\n      add\n        /* \"#utility.yul\":1724:1751   */\n      mstore\n        /* \"#utility.yul\":1610:1758   */\n      pop\n      pop\n      pop\n      jump\t// out\n        /* \"#utility.yul\":1764:2189   */\n    tag_27:\n        /* \"#utility.yul\":1842:1847   */\n      0x00\n        /* \"#utility.yul\":1867:1933   */\n      tag_59\n        /* \"#utility.yul\":1883:1932   */\n      tag_60\n        /* \"#utility.yul\":1925:1931   */\n      dup5\n        /* \"#utility.yul\":1883:1932   */\n      tag_25\n      jump\t// in\n    tag_60:\n        /* \"#utility.yul\":1867:1933   */\n      tag_24\n      jump\t// in\n    tag_59:\n        /* \"#utility.yul\":1858:1933   */\n      swap1\n      pop\n        /* \"#utility.yul\":1956:1962   */\n      dup3\n        /* \"#utility.yul\":1949:1954   */\n      dup2\n        /* \"#utility.yul\":1942:1963   */\n      mstore\n        /* \"#utility.yul\":1994:1998   */\n      0x20\n        /* \"#utility.yul\":1987:1992   */\n      dup2\n        /* \"#utility.yul\":1983:1999   */\n      add\n        /* \"#utility.yul\":2032:2035   */\n      dup5\n        /* \"#utility.yul\":2023:2029   */\n      dup5\n        /* \"#utility.yul\":2018:2021   */\n      dup5\n        /* \"#utility.yul\":2014:2030   */\n      add\n        /* \"#utility.yul\":2011:2036   */\n      gt\n        /* \"#utility.yul\":2008:2120   */\n      iszero\n      tag_61\n      jumpi\n        /* \"#utility.yul\":2039:2118   */\n      tag_62\n      tag_20\n      jump\t// in\n    tag_62:\n        /* \"#utility.yul\":2008:2120   */\n    tag_61:\n        /* \"#utility.yul\":2129:2183   */\n      tag_63\n        /* \"#utility.yul\":2176:2182   */\n      dup5\n        /* \"#utility.yul\":2171:2174   */\n      dup3\n        /* \"#utility.yul\":2166:2169   */\n      dup6\n        /* \"#utility.yul\":2129:2183   */\n      tag_26\n      jump\t// in\n    tag_63:\n        /* \"#utility.yul\":1848:2189   */\n      pop\n        /* \"#utility.yul\":1764:2189   */\n      swap4\n      swap3\n      pop\n      pop\n      pop\n      jump\t// out\n        /* \"#utility.yul\":2209:2549   */\n    tag_28:\n        /* \"#utility.yul\":2265:2270   */\n      0x00\n        /* \"#utility.yul\":2314:2317   */\n      dup3\n        /* \"#utility.yul\":2307:2311   */\n      0x1f\n        /* \"#utility.yul\":2299:2305   */\n      dup4\n        /* \"#utility.yul\":2295:2312   */\n      add\n        /* \"#utility.yul\":2291:2318   */\n      slt\n        /* \"#utility.yul\":2281:2403   */\n      tag_65\n      jumpi\n        /* \"#utility.yul\":2322:2401   */\n      tag_66\n      tag_19\n      jump\t// in\n    tag_66:\n        /* \"#utility.yul\":2281:2403   */\n    tag_65:\n        /* \"#utility.yul\":2439:2445   */\n      dup2\n        /* \"#utility.yul\":2426:2446   */\n      calldataload\n        /* \"#utility.yul\":2464:2543   */\n      tag_67\n        /* \"#utility.yul\":2539:2542   */\n      dup5\n        /* \"#utility.yul\":2531:2537   */\n      dup3\n        /* \"#utility.yul\":2524:2528   */\n      0x20\n        /* \"#utility.yul\":2516:2522   */\n      dup7\n        /* \"#utility.yul\":2512:2529   */\n      add\n        /* \"#utility.yul\":2464:2543   */\n      tag_27\n      jump\t// in\n    tag_67:\n        /* \"#utility.yul\":2455:2543   */\n      swap2\n      pop\n        /* \"#utility.yul\":2271:2549   */\n      pop\n        /* \"#utility.yul\":2209:2549   */\n      swap3\n      swap2\n      pop\n      pop\n      jump\t// out\n        /* \"#utility.yul\":2555:2632   */\n    tag_29:\n        /* \"#utility.yul\":2592:2599   */\n      0x00\n        /* \"#utility.yul\":2621:2626   */\n      dup2\n        /* \"#utility.yul\":2610:2626   */\n      swap1\n      pop\n        /* \"#utility.yul\":2555:2632   */\n      swap2\n      swap1\n      pop\n      jump\t// out\n        /* \"#utility.yul\":2638:2760   */\n    tag_30:\n        /* \"#utility.yul\":2711:2735   */\n      tag_70\n        /* \"#utility.yul\":2729:2734   */\n      dup2\n        /* \"#utility.yul\":2711:2735   */\n      tag_29\n      jump\t// in\n    tag_70:\n        /* \"#utility.yul\":2704:2709   */\n      dup2\n        /* \"#utility.yul\":2701:2736   */\n      eq\n        /* \"#utility.yul\":2691:2754   */\n      tag_71\n      jumpi\n        /* \"#utility.yul\":2750:2751   */\n      0x00\n        /* \"#utility.yul\":2747:2748   */\n      dup1\n        /* \"#utility.yul\":2740:2752   */\n      revert\n        /* \"#utility.yul\":2691:2754   */\n    tag_71:\n        /* \"#utility.yul\":2638:2760   */\n      pop\n      jump\t// out\n        /* \"#utility.yul\":2766:2905   */\n    tag_31:\n        /* \"#utility.yul\":2812:2817   */\n      0x00\n        /* \"#utility.yul\":2850:2856   */\n      dup2\n        /* \"#utility.yul\":2837:2857   */\n      calldataload\n        /* \"#utility.yul\":2828:2857   */\n      swap1\n      pop\n        /* \"#utility.yul\":2866:2899   */\n      tag_73\n        /* \"#utility.yul\":2893:2898   */\n      dup2\n        /* \"#utility.yul\":2866:2899   */\n      tag_30\n      jump\t// in\n    tag_73:\n        /* \"#utility.yul\":2766:2905   */\n      swap3\n      swap2\n      pop\n      pop\n      jump\t// out\n        /* \"#utility.yul\":2911:3565   */\n    tag_6:\n        /* \"#utility.yul\":2989:2995   */\n      0x00\n        /* \"#utility.yul\":2997:3003   */\n      dup1\n        /* \"#utility.yul\":3046:3048   */\n      0x40\n        /* \"#utility.yul\":3034:3043   */\n      dup4\n        /* \"#utility.yul\":3025:3032   */\n      dup6\n        /* \"#utility.yul\":3021:3044   */\n      sub\n        /* \"#utility.yul\":3017:3049   */\n      slt\n        /* \"#utility.yul\":3014:3133   */\n      iszero\n      tag_75\n      jumpi\n        /* \"#utility.yul\":3052:3131   */\n      tag_76\n      tag_17\n      jump\t// in\n    tag_76:\n        /* \"#utility.yul\":3014:3133   */\n    tag_75:\n        /* \"#utility.yul\":3200:3201   */\n      0x00\n        /* \"#utility.yul\":3189:3198   */\n      dup4\n        /* \"#utility.yul\":3185:3202   */\n      add\n        /* \"#utility.yul\":3172:3203   */\n      calldataload\n        /* \"#utility.yul\":3230:3248   */\n      0xffffffffffffffff\n        /* \"#utility.yul\":3222:3228   */\n      dup2\n        /* \"#utility.yul\":3219:3249   */\n      gt\n        /* \"#utility.yul\":3216:3333   */\n      iszero\n      tag_77\n      jumpi\n        /* \"#utility.yul\":3252:3331   */\n      tag_78\n      tag_18\n      jump\t// in\n    tag_78:\n        /* \"#utility.yul\":3216:3333   */\n    tag_77:\n        /* \"#utility.yul\":3357:3420   */\n      tag_79\n        /* \"#utility.yul\":3412:3419   */\n      dup6\n        /* \"#utility.yul\":3403:3409   */\n      dup3\n        /* \"#utility.yul\":3392:3401   */\n      dup7\n        /* \"#utility.yul\":3388:3410   */\n      add\n        /* \"#utility.yul\":3357:3420   */\n      tag_28\n      jump\t// in\n    tag_79:\n        /* \"#utility.yul\":3347:3420   */\n      swap3\n      pop\n        /* \"#utility.yul\":3143:3430   */\n      pop\n        /* \"#utility.yul\":3469:3471   */\n      0x20\n        /* \"#utility.yul\":3495:3548   */\n      tag_80\n        /* \"#utility.yul\":3540:3547   */\n      dup6\n        /* \"#utility.yul\":3531:3537   */\n      dup3\n        /* \"#utility.yul\":3520:3529   */\n      dup7\n        /* \"#utility.yul\":3516:3538   */\n      add\n        /* \"#utility.yul\":3495:3548   */\n      tag_31\n      jump\t// in\n    tag_80:\n        /* \"#utility.yul\":3485:3548   */\n      swap2\n      pop\n        /* \"#utility.yul\":3440:3558   */\n      pop\n        /* \"#utility.yul\":2911:3565   */\n      swap3\n      pop\n      swap3\n      swap1\n      pop\n      jump\t// out\n        /* \"#utility.yul\":3571:3670   */\n    tag_32:\n        /* \"#utility.yul\":3623:3629   */\n      0x00\n        /* \"#utility.yul\":3657:3662   */\n      dup2\n        /* \"#utility.yul\":3651:3663   */\n      mload\n        /* \"#utility.yul\":3641:3663   */\n      swap1\n      pop\n        /* \"#utility.yul\":3571:3670   */\n      swap2\n      swap1\n      pop\n      jump\t// out\n        /* \"#utility.yul\":3676:3845   */\n    tag_33:\n        /* \"#utility.yul\":3760:3771   */\n      0x00\n        /* \"#utility.yul\":3794:3800   */\n      dup3\n        /* \"#utility.yul\":3789:3792   */\n      dup3\n        /* \"#utility.yul\":3782:3801   */\n      mstore\n        /* \"#utility.yul\":3834:3838   */\n      0x20\n        /* \"#utility.yul\":3829:3832   */\n      dup3\n        /* \"#utility.yul\":3825:3839   */\n      add\n        /* \"#utility.yul\":3810:3839   */\n      swap1\n      pop\n        /* \"#utility.yul\":3676:3845   */\n      swap3\n      swap2\n      pop\n      pop\n      jump\t// out\n        /* \"#utility.yul\":3851:3990   */\n    tag_34:\n        /* \"#utility.yul\":3940:3946   */\n      dup3\n        /* \"#utility.yul\":3935:3938   */\n      dup2\n        /* \"#utility.yul\":3930:3933   */\n      dup4\n        /* \"#utility.yul\":3924:3947   */\n      mcopy\n        /* \"#utility.yul\":3981:3982   */\n      0x00\n        /* \"#utility.yul\":3972:3978   */\n      dup4\n        /* \"#utility.yul\":3967:3970   */\n      dup4\n        /* \"#utility.yul\":3963:3979   */\n      add\n        /* \"#utility.yul\":3956:3983   */\n      mstore\n        /* \"#utility.yul\":3851:3990   */\n      pop\n      pop\n      pop\n      jump\t// out\n        /* \"#utility.yul\":3996:4373   */\n    tag_35:\n        /* \"#utility.yul\":4084:4087   */\n      0x00\n        /* \"#utility.yul\":4112:4151   */\n      tag_85\n        /* \"#utility.yul\":4145:4150   */\n      dup3\n        /* \"#utility.yul\":4112:4151   */\n      tag_32\n      jump\t// in\n    tag_85:\n        /* \"#utility.yul\":4167:4238   */\n      tag_86\n        /* \"#utility.yul\":4231:4237   */\n      dup2\n        /* \"#utility.yul\":4226:4229   */\n      dup6\n        /* \"#utility.yul\":4167:4238   */\n      tag_33\n      jump\t// in\n    tag_86:\n        /* \"#utility.yul\":4160:4238   */\n      swap4\n      pop\n        /* \"#utility.yul\":4247:4312   */\n      tag_87\n        /* \"#utility.yul\":4305:4311   */\n      dup2\n        /* \"#utility.yul\":4300:4303   */\n      dup6\n        /* \"#utility.yul\":4293:4297   */\n      0x20\n        /* \"#utility.yul\":4286:4291   */\n      dup7\n        /* \"#utility.yul\":4282:4298   */\n      add\n        /* \"#utility.yul\":4247:4312   */\n      tag_34\n      jump\t// in\n    tag_87:\n        /* \"#utility.yul\":4337:4366   */\n      tag_88\n        /* \"#utility.yul\":4359:4365   */\n      dup2\n        /* \"#utility.yul\":4337:4366   */\n      tag_21\n      jump\t// in\n    tag_88:\n        /* \"#utility.yul\":4332:4335   */\n      dup5\n        /* \"#utility.yul\":4328:4367   */\n      add\n        /* \"#utility.yul\":4321:4367   */\n      swap2\n      pop\n        /* \"#utility.yul\":4088:4373   */\n      pop\n        /* \"#utility.yul\":3996:4373   */\n      swap3\n      swap2\n      pop\n      pop\n      jump\t// out\n        /* \"#utility.yul\":4379:4692   */\n    tag_9:\n        /* \"#utility.yul\":4492:4496   */\n      0x00\n        /* \"#utility.yul\":4530:4532   */\n      0x20\n        /* \"#utility.yul\":4519:4528   */\n      dup3\n        /* \"#utility.yul\":4515:4533   */\n      add\n        /* \"#utility.yul\":4507:4533   */\n      swap1\n      pop\n        /* \"#utility.yul\":4579:4588   */\n      dup2\n        /* \"#utility.yul\":4573:4577   */\n      dup2\n        /* \"#utility.yul\":4569:4589   */\n      sub\n        /* \"#utility.yul\":4565:4566   */\n      0x00\n        /* \"#utility.yul\":4554:4563   */\n      dup4\n        /* \"#utility.yul\":4550:4567   */\n      add\n        /* \"#utility.yul\":4543:4590   */\n      mstore\n        /* \"#utility.yul\":4607:4685   */\n      tag_90\n        /* \"#utility.yul\":4680:4684   */\n      dup2\n        /* \"#utility.yul\":4671:4677   */\n      dup5\n        /* \"#utility.yul\":4607:4685   */\n      tag_35\n      jump\t// in\n    tag_90:\n        /* \"#utility.yul\":4599:4685   */\n      swap1\n      pop\n        /* \"#utility.yul\":4379:4692   */\n      swap3\n      swap2\n      pop\n      pop\n      jump\t// out\n        /* \"#utility.yul\":4698:4846   */\n    tag_36:\n        /* \"#utility.yul\":4800:4811   */\n      0x00\n        /* \"#utility.yul\":4837:4840   */\n      dup2\n        /* \"#utility.yul\":4822:4840   */\n      swap1\n      pop\n        /* \"#utility.yul\":4698:4846   */\n      swap3\n      swap2\n      pop\n      pop\n      jump\t// out\n        /* \"#utility.yul\":4852:5242   */\n    tag_37:\n        /* \"#utility.yul\":4958:4961   */\n      0x00\n        /* \"#utility.yul\":4986:5025   */\n      tag_93\n        /* \"#utility.yul\":5019:5024   */\n      dup3\n        /* \"#utility.yul\":4986:5025   */\n      tag_32\n      jump\t// in\n    tag_93:\n        /* \"#utility.yul\":5041:5130   */\n      tag_94\n        /* \"#utility.yul\":5123:5129   */\n      dup2\n        /* \"#utility.yul\":5118:5121   */\n      dup6\n        /* \"#utility.yul\":5041:5130   */\n      tag_36\n      jump\t// in\n    tag_94:\n        /* \"#utility.yul\":5034:5130   */\n      swap4\n      pop\n        /* \"#utility.yul\":5139:5204   */\n      tag_95\n        /* \"#utility.yul\":5197:5203   */\n      dup2\n        /* \"#utility.yul\":5192:5195   */\n      dup6\n        /* \"#utility.yul\":5185:5189   */\n      0x20\n        /* \"#utility.yul\":5178:5183   */\n      dup7\n        /* \"#utility.yul\":5174:5190   */\n      add\n        /* \"#utility.yul\":5139:5204   */\n      tag_34\n      jump\t// in\n    tag_95:\n        /* \"#utility.yul\":5229:5235   */\n      dup1\n        /* \"#utility.yul\":5224:5227   */\n      dup5\n        /* \"#utility.yul\":5220:5236   */\n      add\n        /* \"#utility.yul\":5213:5236   */\n      swap2\n      pop\n        /* \"#utility.yul\":4962:5242   */\n      pop\n        /* \"#utility.yul\":4852:5242   */\n      swap3\n      swap2\n      pop\n      pop\n      jump\t// out\n        /* \"#utility.yul\":5248:5683   */\n    tag_15:\n        /* \"#utility.yul\":5428:5431   */\n      0x00\n        /* \"#utility.yul\":5450:5545   */\n      tag_97\n        /* \"#utility.yul\":5541:5544   */\n      dup3\n        /* \"#utility.yul\":5532:5538   */\n      dup6\n        /* \"#utility.yul\":5450:5545   */\n      tag_37\n      jump\t// in\n    tag_97:\n        /* \"#utility.yul\":5443:5545   */\n      swap2\n      pop\n        /* \"#utility.yul\":5562:5657   */\n      tag_98\n        /* \"#utility.yul\":5653:5656   */\n      dup3\n        /* \"#utility.yul\":5644:5650   */\n      dup5\n        /* \"#utility.yul\":5562:5657   */\n      tag_37\n      jump\t// in\n    tag_98:\n        /* \"#utility.yul\":5555:5657   */\n      swap2\n      pop\n        /* \"#utility.yul\":5674:5677   */\n      dup2\n        /* \"#utility.yul\":5667:5677   */\n      swap1\n      pop\n        /* \"#utility.yul\":5248:5683   */\n      swap4\n      swap3\n      pop\n      pop\n      pop\n      jump\t// out\n\n    auxdata: 0xa2646970667358221220a9512e8987e34b5e925e376f40d68539f71ea756e869ca0b57522ea1cff1215d64736f6c63430008190033\n}\n",
				"bytecode": {
					"linkReferences": {},
					"object": "6080604052348015600e575f80fd5b506103938061001c5f395ff3fe608060405234801561000f575f80fd5b5060043610610029575f3560e01c8063ddbaa6f71461002d575b5f80fd5b61004760048036038101906100429190610226565b61005d565b60405161005491906102e0565b60405180910390f35b6060805f5b8381101561009b57818560405160200161007d92919061033a565b60405160208183030381529060405291508080600101915050610062565b508091505092915050565b5f604051905090565b5f80fd5b5f80fd5b5f80fd5b5f80fd5b5f601f19601f8301169050919050565b7f4e487b71000000000000000000000000000000000000000000000000000000005f52604160045260245ffd5b610105826100bf565b810181811067ffffffffffffffff82111715610124576101236100cf565b5b80604052505050565b5f6101366100a6565b905061014282826100fc565b919050565b5f67ffffffffffffffff821115610161576101606100cf565b5b61016a826100bf565b9050602081019050919050565b828183375f83830152505050565b5f61019761019284610147565b61012d565b9050828152602081018484840111156101b3576101b26100bb565b5b6101be848285610177565b509392505050565b5f82601f8301126101da576101d96100b7565b5b81356101ea848260208601610185565b91505092915050565b5f819050919050565b610205816101f3565b811461020f575f80fd5b50565b5f81359050610220816101fc565b92915050565b5f806040838503121561023c5761023b6100af565b5b5f83013567ffffffffffffffff811115610259576102586100b3565b5b610265858286016101c6565b925050602061027685828601610212565b9150509250929050565b5f81519050919050565b5f82825260208201905092915050565b8281835e5f83830152505050565b5f6102b282610280565b6102bc818561028a565b93506102cc81856020860161029a565b6102d5816100bf565b840191505092915050565b5f6020820190508181035f8301526102f881846102a8565b905092915050565b5f81905092915050565b5f61031482610280565b61031e8185610300565b935061032e81856020860161029a565b80840191505092915050565b5f610345828561030a565b9150610351828461030a565b9150819050939250505056fea2646970667358221220a9512e8987e34b5e925e376f40d68539f71ea756e869ca0b57522ea1cff1215d64736f6c63430008190033",
					"opcodes": "PUSH1 0x80 PUSH1 0x40 MSTORE CALLVALUE DUP1 ISZERO PUSH1 0xE JUMPI PUSH0 DUP1 REVERT JUMPDEST POP PUSH2 0x393 DUP1 PUSH2 0x1C PUSH0 CODECOPY PUSH0 RETURN INVALID PUSH1 0x80 PUSH1 0x40 MSTORE CALLVALUE DUP1 ISZERO PUSH2 0xF JUMPI PUSH0 DUP1 REVERT JUMPDEST POP PUSH1 0x4 CALLDATASIZE LT PUSH2 0x29 JUMPI PUSH0 CALLDATALOAD PUSH1 0xE0 SHR DUP1 PUSH4 0xDDBAA6F7 EQ PUSH2 0x2D JUMPI JUMPDEST PUSH0 DUP1 REVERT JUMPDEST PUSH2 0x47 PUSH1 0x4 DUP1 CALLDATASIZE SUB DUP2 ADD SWAP1 PUSH2 0x42 SWAP2 SWAP1 PUSH2 0x226 JUMP JUMPDEST PUSH2 0x5D JUMP JUMPDEST PUSH1 0x40 MLOAD PUSH2 0x54 SWAP2 SWAP1 PUSH2 0x2E0 JUMP JUMPDEST PUSH1 0x40 MLOAD DUP1 SWAP2 SUB SWAP1 RETURN JUMPDEST PUSH1 0x60 DUP1 PUSH0 JUMPDEST DUP4 DUP2 LT ISZERO PUSH2 0x9B JUMPI DUP2 DUP6 PUSH1 0x40 MLOAD PUSH1 0x20 ADD PUSH2 0x7D SWAP3 SWAP2 SWAP1 PUSH2 0x33A JUMP JUMPDEST PUSH1 0x40 MLOAD PUSH1 0x20 DUP2 DUP4 SUB SUB DUP2 MSTORE SWAP1 PUSH1 0x40 MSTORE SWAP2 POP DUP1 DUP1 PUSH1 0x1 ADD SWAP2 POP POP PUSH2 0x62 JUMP JUMPDEST POP DUP1 SWAP2 POP POP SWAP3 SWAP2 POP POP JUMP JUMPDEST PUSH0 PUSH1 0x40 MLOAD SWAP1 POP SWAP1 JUMP JUMPDEST PUSH0 DUP1 REVERT JUMPDEST PUSH0 DUP1 REVERT JUMPDEST PUSH0 DUP1 REVERT JUMPDEST PUSH0 DUP1 REVERT JUMPDEST PUSH0 PUSH1 0x1F NOT PUSH1 0x1F DUP4 ADD AND SWAP1 POP SWAP2 SWAP1 POP JUMP JUMPDEST PUSH32 0x4E487B7100000000000000000000000000000000000000000000000000000000 PUSH0 MSTORE PUSH1 0x41 PUSH1 0x4 MSTORE PUSH1 0x24 PUSH0 REVERT JUMPDEST PUSH2 0x105 DUP3 PUSH2 0xBF JUMP JUMPDEST DUP2 ADD DUP2 DUP2 LT PUSH8 0xFFFFFFFFFFFFFFFF DUP3 GT OR ISZERO PUSH2 0x124 JUMPI PUSH2 0x123 PUSH2 0xCF JUMP JUMPDEST JUMPDEST DUP1 PUSH1 0x40 MSTORE POP POP POP JUMP JUMPDEST PUSH0 PUSH2 0x136 PUSH2 0xA6 JUMP JUMPDEST SWAP1 POP PUSH2 0x142 DUP3 DUP3 PUSH2 0xFC JUMP JUMPDEST SWAP2 SWAP1 POP JUMP JUMPDEST PUSH0 PUSH8 0xFFFFFFFFFFFFFFFF DUP3 GT ISZERO PUSH2 0x161 JUMPI PUSH2 0x160 PUSH2 0xCF JUMP JUMPDEST JUMPDEST PUSH2 0x16A DUP3 PUSH2 0xBF JUMP JUMPDEST SWAP1 POP PUSH1 0x20 DUP2 ADD SWAP1 POP SWAP2 SWAP1 POP JUMP JUMPDEST DUP3 DUP2 DUP4 CALLDATACOPY PUSH0 DUP4 DUP4 ADD MSTORE POP POP POP JUMP JUMPDEST PUSH0 PUSH2 0x197 PUSH2 0x192 DUP5 PUSH2 0x147 JUMP JUMPDEST PUSH2 0x12D JUMP JUMPDEST SWAP1 POP DUP3 DUP2 MSTORE PUSH1 0x20 DUP2 ADD DUP5 DUP5 DUP5 ADD GT ISZERO PUSH2 0x1B3 JUMPI PUSH2 0x1B2 PUSH2 0xBB JUMP JUMPDEST JUMPDEST PUSH2 0x1BE DUP5 DUP3 DUP6 PUSH2 0x177 JUMP JUMPDEST POP SWAP4 SWAP3 POP POP POP JUMP JUMPDEST PUSH0 DUP3 PUSH1 0x1F DUP4 ADD SLT PUSH2 0x1DA JUMPI PUSH2 0x1D9 PUSH2 0xB7 JUMP JUMPDEST JUMPDEST DUP2 CALLDATALOAD PUSH2 0x1EA DUP5 DUP3 PUSH1 0x20 DUP7 ADD PUSH2 0x185 JUMP JUMPDEST SWAP2 POP POP SWAP3 SWAP2 POP POP JUMP JUMPDEST PUSH0 DUP2 SWAP1 POP SWAP2 SWAP1 POP JUMP JUMPDEST PUSH2 0x205 DUP2 PUSH2 0x1F3 JUMP JUMPDEST DUP2 EQ PUSH2 0x20F JUMPI PUSH0 DUP1 REVERT JUMPDEST POP JUMP JUMPDEST PUSH0 DUP2 CALLDATALOAD SWAP1 POP PUSH2 0x220 DUP2 PUSH2 0x1FC JUMP JUMPDEST SWAP3 SWAP2 POP POP JUMP JUMPDEST PUSH0 DUP1 PUSH1 0x40 DUP4 DUP6 SUB SLT ISZERO PUSH2 0x23C JUMPI PUSH2 0x23B PUSH2 0xAF JUMP JUMPDEST JUMPDEST PUSH0 DUP4 ADD CALLDATALOAD PUSH8 0xFFFFFFFFFFFFFFFF DUP2 GT ISZERO PUSH2 0x259 JUMPI PUSH2 0x258 PUSH2 0xB3 JUMP JUMPDEST JUMPDEST PUSH2 0x265 DUP6 DUP3 DUP7 ADD PUSH2 0x1C6 JUMP JUMPDEST SWAP3 POP POP PUSH1 0x20 PUSH2 0x276 DUP6 DUP3 DUP7 ADD PUSH2 0x212 JUMP JUMPDEST SWAP2 POP POP SWAP3 POP SWAP3 SWAP1 POP JUMP JUMPDEST PUSH0 DUP2 MLOAD SWAP1 POP SWAP2 SWAP1 POP JUMP JUMPDEST PUSH0 DUP3 DUP3 MSTORE PUSH1 0x20 DUP3 ADD SWAP1 POP SWAP3 SWAP2 POP POP JUMP JUMPDEST DUP3 DUP2 DUP4 MCOPY PUSH0 DUP4 DUP4 ADD MSTORE POP POP POP JUMP JUMPDEST PUSH0 PUSH2 0x2B2 DUP3 PUSH2 0x280 JUMP JUMPDEST PUSH2 0x2BC DUP2 DUP6 PUSH2 0x28A JUMP JUMPDEST SWAP4 POP PUSH2 0x2CC DUP2 DUP6 PUSH1 0x20 DUP7 ADD PUSH2 0x29A JUMP JUMPDEST PUSH2 0x2D5 DUP2 PUSH2 0xBF JUMP JUMPDEST DUP5 ADD SWAP2 POP POP SWAP3 SWAP2 POP POP JUMP JUMPDEST PUSH0 PUSH1 0x20 DUP3 ADD SWAP1 POP DUP2 DUP2 SUB PUSH0 DUP4 ADD MSTORE PUSH2 0x2F8 DUP2 DUP5 PUSH2 0x2A8 JUMP JUMPDEST SWAP1 POP SWAP3 SWAP2 POP POP JUMP JUMPDEST PUSH0 DUP2 SWAP1 POP SWAP3 SWAP2 POP POP JUMP JUMPDEST PUSH0 PUSH2 0x314 DUP3 PUSH2 0x280 JUMP JUMPDEST PUSH2 0x31E DUP2 DUP6 PUSH2 0x300 JUMP JUMPDEST SWAP4 POP PUSH2 0x32E DUP2 DUP6 PUSH1 0x20 DUP7 ADD PUSH2 0x29A JUMP JUMPDEST DUP1 DUP5 ADD SWAP2 POP POP SWAP3 SWAP2 POP POP JUMP JUMPDEST PUSH0 PUSH2 0x345 DUP3 DUP6 PUSH2 0x30A JUMP JUMPDEST SWAP2 POP PUSH2 0x351 DUP3 DUP5 PUSH2 0x30A JUMP JUMPDEST SWAP2 POP DUP2 SWAP1 POP SWAP4 SWAP3 POP POP POP JUMP INVALID LOG2 PUSH5 0x6970667358 0x22 SLT KECCAK256 0xA9 MLOAD 0x2E DUP10 DUP8 0xE3 0x4B MCOPY SWAP3 MCOPY CALLDATACOPY PUSH16 0x40D68539F71EA756E869CA0B57522EA1 0xCF CALL 0x21 TSTORE PUSH5 0x736F6C6343 STOP ADDMOD NOT STOP CALLER "
				},
				"gasEstimates": {
					"creation": {
						"codeDepositCost": "183000",
						"executionCost": "224",
						"totalCost": "183224"
					},
					"external": {
						"stringPrint(string,uint256)": "infinite"
					}
				},
				"methodIdentifiers": {
					"stringPrint(string,uint256)": "ddbaa6f7"
				}
			},
			"storageLayout": {
				"storage": [],
				"types": null
			},
			"userdoc": {
				"kind": "user",
				"methods": {},
				"version": 1
			}
		}
	}
}