{
	"solidity_100/61-70.sol": {
		"Q62": {
			"abi": [
				{
					"inputs": [
						{
							"internalType": "uint256",
							"name": "a",
							"type": "uint256"
						},
						{
							"internalType": "uint256",
							"name": "b",
							"type": "uint256"
						}
					],
					"name": "add",
					"outputs": [
						{
							"internalType": "uint256",
							"name": "",
							"type": "uint256"
						}
					],
					"stateMutability": "pure",
					"type": "function"
				},
				{
					"inputs": [
						{
							"internalType": "uint256",
							"name": "a",
							"type": "uint256"
						},
						{
							"internalType": "uint256",
							"name": "b",
							"type": "uint256"
						}
					],
					"name": "multiple",
					"outputs": [
						{
							"internalType": "uint256",
							"name": "",
							"type": "uint256"
						}
					],
					"stateMutability": "pure",
					"type": "function"
				},
				{
					"inputs": [
						{
							"internalType": "uint256",
							"name": "a",
							"type": "uint256"
						},
						{
							"internalType": "uint256",
							"name": "b",
							"type": "uint256"
						}
					],
					"name": "square",
					"outputs": [
						{
							"internalType": "uint256",
							"name": "",
							"type": "uint256"
						}
					],
					"stateMutability": "pure",
					"type": "function"
				}
			],
			"devdoc": {
				"kind": "dev",
				"methods": {},
				"version": 1
			},
			"evm": {
				"assembly": "    /* \"solidity_100/61-70.sol\":323:1062  contract Q62 {... */\n  mstore(0x40, 0x80)\n  callvalue\n  dup1\n  iszero\n  tag_1\n  jumpi\n  0x00\n  dup1\n  revert\ntag_1:\n  pop\n  dataSize(sub_0)\n  dup1\n  dataOffset(sub_0)\n  0x00\n  codecopy\n  0x00\n  return\nstop\n\nsub_0: assembly {\n        /* \"solidity_100/61-70.sol\":323:1062  contract Q62 {... */\n      mstore(0x40, 0x80)\n      callvalue\n      dup1\n      iszero\n      tag_1\n      jumpi\n      0x00\n      dup1\n      revert\n    tag_1:\n      pop\n      jumpi(tag_2, lt(calldatasize, 0x04))\n      shr(0xe0, calldataload(0x00))\n      dup1\n      0x5002bed7\n      eq\n      tag_3\n      jumpi\n      dup1\n      0x771602f7\n      eq\n      tag_4\n      jumpi\n      dup1\n      0xab78e68b\n      eq\n      tag_5\n      jumpi\n    tag_2:\n      0x00\n      dup1\n      revert\n        /* \"solidity_100/61-70.sol\":828:938  function multiple(uint a, uint b) public pure checkOverTen(a, b) returns(uint) {... */\n    tag_3:\n      tag_6\n      0x04\n      dup1\n      calldatasize\n      sub\n      dup2\n      add\n      swap1\n      tag_7\n      swap2\n      swap1\n      tag_8\n      jump\t// in\n    tag_7:\n      tag_9\n      jump\t// in\n    tag_6:\n      mload(0x40)\n      tag_10\n      swap2\n      swap1\n      tag_11\n      jump\t// in\n    tag_10:\n      mload(0x40)\n      dup1\n      swap2\n      sub\n      swap1\n      return\n        /* \"solidity_100/61-70.sol\":711:816  function add(uint a, uint b) public pure checkOverTen(a, b) returns(uint) {... */\n    tag_4:\n      tag_12\n      0x04\n      dup1\n      calldatasize\n      sub\n      dup2\n      add\n      swap1\n      tag_13\n      swap2\n      swap1\n      tag_8\n      jump\t// in\n    tag_13:\n      tag_14\n      jump\t// in\n    tag_12:\n      mload(0x40)\n      tag_15\n      swap2\n      swap1\n      tag_11\n      jump\t// in\n    tag_15:\n      mload(0x40)\n      dup1\n      swap2\n      sub\n      swap1\n      return\n        /* \"solidity_100/61-70.sol\":950:1059  function square(uint a, uint b) public pure checkOverTen(a, b) returns(uint) {... */\n    tag_5:\n      tag_16\n      0x04\n      dup1\n      calldatasize\n      sub\n      dup2\n      add\n      swap1\n      tag_17\n      swap2\n      swap1\n      tag_8\n      jump\t// in\n    tag_17:\n      tag_18\n      jump\t// in\n    tag_16:\n      mload(0x40)\n      tag_19\n      swap2\n      swap1\n      tag_11\n      jump\t// in\n    tag_19:\n      mload(0x40)\n      dup1\n      swap2\n      sub\n      swap1\n      return\n        /* \"solidity_100/61-70.sol\":828:938  function multiple(uint a, uint b) public pure checkOverTen(a, b) returns(uint) {... */\n    tag_9:\n        /* \"solidity_100/61-70.sol\":901:905  uint */\n      0x00\n        /* \"solidity_100/61-70.sol\":887:888  a */\n      dup3\n        /* \"solidity_100/61-70.sol\":890:891  b */\n      dup3\n        /* \"solidity_100/61-70.sol\":672:674  10 */\n      0x0a\n        /* \"solidity_100/61-70.sol\":668:669  b */\n      dup2\n        /* \"solidity_100/61-70.sol\":666:667  a */\n      dup4\n        /* \"solidity_100/61-70.sol\":666:669  a+b */\n      tag_21\n      swap2\n      swap1\n      tag_22\n      jump\t// in\n    tag_21:\n        /* \"solidity_100/61-70.sol\":666:674  a+b < 10 */\n      lt\n        /* \"solidity_100/61-70.sol\":658:683  require(a+b < 10, \"nope\") */\n      tag_23\n      jumpi\n      mload(0x40)\n      0x08c379a000000000000000000000000000000000000000000000000000000000\n      dup2\n      mstore\n      0x04\n      add\n      tag_24\n      swap1\n      tag_25\n      jump\t// in\n    tag_24:\n      mload(0x40)\n      dup1\n      swap2\n      sub\n      swap1\n      revert\n    tag_23:\n        /* \"solidity_100/61-70.sol\":928:929  b */\n      dup4\n        /* \"solidity_100/61-70.sol\":926:927  a */\n      dup6\n        /* \"solidity_100/61-70.sol\":926:929  a*b */\n      tag_27\n      swap2\n      swap1\n      tag_28\n      jump\t// in\n    tag_27:\n        /* \"solidity_100/61-70.sol\":918:930  return (a*b) */\n      swap3\n      pop\n        /* \"solidity_100/61-70.sol\":828:938  function multiple(uint a, uint b) public pure checkOverTen(a, b) returns(uint) {... */\n      pop\n      pop\n      swap3\n      swap2\n      pop\n      pop\n      jump\t// out\n        /* \"solidity_100/61-70.sol\":711:816  function add(uint a, uint b) public pure checkOverTen(a, b) returns(uint) {... */\n    tag_14:\n        /* \"solidity_100/61-70.sol\":779:783  uint */\n      0x00\n        /* \"solidity_100/61-70.sol\":765:766  a */\n      dup3\n        /* \"solidity_100/61-70.sol\":768:769  b */\n      dup3\n        /* \"solidity_100/61-70.sol\":672:674  10 */\n      0x0a\n        /* \"solidity_100/61-70.sol\":668:669  b */\n      dup2\n        /* \"solidity_100/61-70.sol\":666:667  a */\n      dup4\n        /* \"solidity_100/61-70.sol\":666:669  a+b */\n      tag_30\n      swap2\n      swap1\n      tag_22\n      jump\t// in\n    tag_30:\n        /* \"solidity_100/61-70.sol\":666:674  a+b < 10 */\n      lt\n        /* \"solidity_100/61-70.sol\":658:683  require(a+b < 10, \"nope\") */\n      tag_31\n      jumpi\n      mload(0x40)\n      0x08c379a000000000000000000000000000000000000000000000000000000000\n      dup2\n      mstore\n      0x04\n      add\n      tag_32\n      swap1\n      tag_25\n      jump\t// in\n    tag_32:\n      mload(0x40)\n      dup1\n      swap2\n      sub\n      swap1\n      revert\n    tag_31:\n        /* \"solidity_100/61-70.sol\":806:807  b */\n      dup4\n        /* \"solidity_100/61-70.sol\":804:805  a */\n      dup6\n        /* \"solidity_100/61-70.sol\":804:807  a+b */\n      tag_34\n      swap2\n      swap1\n      tag_22\n      jump\t// in\n    tag_34:\n        /* \"solidity_100/61-70.sol\":796:808  return (a+b) */\n      swap3\n      pop\n        /* \"solidity_100/61-70.sol\":711:816  function add(uint a, uint b) public pure checkOverTen(a, b) returns(uint) {... */\n      pop\n      pop\n      swap3\n      swap2\n      pop\n      pop\n      jump\t// out\n        /* \"solidity_100/61-70.sol\":950:1059  function square(uint a, uint b) public pure checkOverTen(a, b) returns(uint) {... */\n    tag_18:\n        /* \"solidity_100/61-70.sol\":1021:1025  uint */\n      0x00\n        /* \"solidity_100/61-70.sol\":1007:1008  a */\n      dup3\n        /* \"solidity_100/61-70.sol\":1010:1011  b */\n      dup3\n        /* \"solidity_100/61-70.sol\":672:674  10 */\n      0x0a\n        /* \"solidity_100/61-70.sol\":668:669  b */\n      dup2\n        /* \"solidity_100/61-70.sol\":666:667  a */\n      dup4\n        /* \"solidity_100/61-70.sol\":666:669  a+b */\n      tag_36\n      swap2\n      swap1\n      tag_22\n      jump\t// in\n    tag_36:\n        /* \"solidity_100/61-70.sol\":666:674  a+b < 10 */\n      lt\n        /* \"solidity_100/61-70.sol\":658:683  require(a+b < 10, \"nope\") */\n      tag_37\n      jumpi\n      mload(0x40)\n      0x08c379a000000000000000000000000000000000000000000000000000000000\n      dup2\n      mstore\n      0x04\n      add\n      tag_38\n      swap1\n      tag_25\n      jump\t// in\n    tag_38:\n      mload(0x40)\n      dup1\n      swap2\n      sub\n      swap1\n      revert\n    tag_37:\n        /* \"solidity_100/61-70.sol\":1049:1050  b */\n      dup4\n        /* \"solidity_100/61-70.sol\":1046:1047  a */\n      dup6\n        /* \"solidity_100/61-70.sol\":1046:1050  a**b */\n      tag_40\n      swap2\n      swap1\n      tag_41\n      jump\t// in\n    tag_40:\n        /* \"solidity_100/61-70.sol\":1038:1051  return (a**b) */\n      swap3\n      pop\n        /* \"solidity_100/61-70.sol\":950:1059  function square(uint a, uint b) public pure checkOverTen(a, b) returns(uint) {... */\n      pop\n      pop\n      swap3\n      swap2\n      pop\n      pop\n      jump\t// out\n        /* \"#utility.yul\":88:205   */\n    tag_43:\n        /* \"#utility.yul\":197:198   */\n      0x00\n        /* \"#utility.yul\":194:195   */\n      dup1\n        /* \"#utility.yul\":187:199   */\n      revert\n        /* \"#utility.yul\":334:411   */\n    tag_45:\n        /* \"#utility.yul\":371:378   */\n      0x00\n        /* \"#utility.yul\":400:405   */\n      dup2\n        /* \"#utility.yul\":389:405   */\n      swap1\n      pop\n        /* \"#utility.yul\":334:411   */\n      swap2\n      swap1\n      pop\n      jump\t// out\n        /* \"#utility.yul\":417:539   */\n    tag_46:\n        /* \"#utility.yul\":490:514   */\n      tag_62\n        /* \"#utility.yul\":508:513   */\n      dup2\n        /* \"#utility.yul\":490:514   */\n      tag_45\n      jump\t// in\n    tag_62:\n        /* \"#utility.yul\":483:488   */\n      dup2\n        /* \"#utility.yul\":480:515   */\n      eq\n        /* \"#utility.yul\":470:533   */\n      tag_63\n      jumpi\n        /* \"#utility.yul\":529:530   */\n      0x00\n        /* \"#utility.yul\":526:527   */\n      dup1\n        /* \"#utility.yul\":519:531   */\n      revert\n        /* \"#utility.yul\":470:533   */\n    tag_63:\n        /* \"#utility.yul\":417:539   */\n      pop\n      jump\t// out\n        /* \"#utility.yul\":545:684   */\n    tag_47:\n        /* \"#utility.yul\":591:596   */\n      0x00\n        /* \"#utility.yul\":629:635   */\n      dup2\n        /* \"#utility.yul\":616:636   */\n      calldataload\n        /* \"#utility.yul\":607:636   */\n      swap1\n      pop\n        /* \"#utility.yul\":645:678   */\n      tag_65\n        /* \"#utility.yul\":672:677   */\n      dup2\n        /* \"#utility.yul\":645:678   */\n      tag_46\n      jump\t// in\n    tag_65:\n        /* \"#utility.yul\":545:684   */\n      swap3\n      swap2\n      pop\n      pop\n      jump\t// out\n        /* \"#utility.yul\":690:1164   */\n    tag_8:\n        /* \"#utility.yul\":758:764   */\n      0x00\n        /* \"#utility.yul\":766:772   */\n      dup1\n        /* \"#utility.yul\":815:817   */\n      0x40\n        /* \"#utility.yul\":803:812   */\n      dup4\n        /* \"#utility.yul\":794:801   */\n      dup6\n        /* \"#utility.yul\":790:813   */\n      sub\n        /* \"#utility.yul\":786:818   */\n      slt\n        /* \"#utility.yul\":783:902   */\n      iszero\n      tag_67\n      jumpi\n        /* \"#utility.yul\":821:900   */\n      tag_68\n      tag_43\n      jump\t// in\n    tag_68:\n        /* \"#utility.yul\":783:902   */\n    tag_67:\n        /* \"#utility.yul\":941:942   */\n      0x00\n        /* \"#utility.yul\":966:1019   */\n      tag_69\n        /* \"#utility.yul\":1011:1018   */\n      dup6\n        /* \"#utility.yul\":1002:1008   */\n      dup3\n        /* \"#utility.yul\":991:1000   */\n      dup7\n        /* \"#utility.yul\":987:1009   */\n      add\n        /* \"#utility.yul\":966:1019   */\n      tag_47\n      jump\t// in\n    tag_69:\n        /* \"#utility.yul\":956:1019   */\n      swap3\n      pop\n        /* \"#utility.yul\":912:1029   */\n      pop\n        /* \"#utility.yul\":1068:1070   */\n      0x20\n        /* \"#utility.yul\":1094:1147   */\n      tag_70\n        /* \"#utility.yul\":1139:1146   */\n      dup6\n        /* \"#utility.yul\":1130:1136   */\n      dup3\n        /* \"#utility.yul\":1119:1128   */\n      dup7\n        /* \"#utility.yul\":1115:1137   */\n      add\n        /* \"#utility.yul\":1094:1147   */\n      tag_47\n      jump\t// in\n    tag_70:\n        /* \"#utility.yul\":1084:1147   */\n      swap2\n      pop\n        /* \"#utility.yul\":1039:1157   */\n      pop\n        /* \"#utility.yul\":690:1164   */\n      swap3\n      pop\n      swap3\n      swap1\n      pop\n      jump\t// out\n        /* \"#utility.yul\":1170:1288   */\n    tag_48:\n        /* \"#utility.yul\":1257:1281   */\n      tag_72\n        /* \"#utility.yul\":1275:1280   */\n      dup2\n        /* \"#utility.yul\":1257:1281   */\n      tag_45\n      jump\t// in\n    tag_72:\n        /* \"#utility.yul\":1252:1255   */\n      dup3\n        /* \"#utility.yul\":1245:1282   */\n      mstore\n        /* \"#utility.yul\":1170:1288   */\n      pop\n      pop\n      jump\t// out\n        /* \"#utility.yul\":1294:1516   */\n    tag_11:\n        /* \"#utility.yul\":1387:1391   */\n      0x00\n        /* \"#utility.yul\":1425:1427   */\n      0x20\n        /* \"#utility.yul\":1414:1423   */\n      dup3\n        /* \"#utility.yul\":1410:1428   */\n      add\n        /* \"#utility.yul\":1402:1428   */\n      swap1\n      pop\n        /* \"#utility.yul\":1438:1509   */\n      tag_74\n        /* \"#utility.yul\":1506:1507   */\n      0x00\n        /* \"#utility.yul\":1495:1504   */\n      dup4\n        /* \"#utility.yul\":1491:1508   */\n      add\n        /* \"#utility.yul\":1482:1488   */\n      dup5\n        /* \"#utility.yul\":1438:1509   */\n      tag_48\n      jump\t// in\n    tag_74:\n        /* \"#utility.yul\":1294:1516   */\n      swap3\n      swap2\n      pop\n      pop\n      jump\t// out\n        /* \"#utility.yul\":1522:1702   */\n    tag_49:\n        /* \"#utility.yul\":1570:1647   */\n      0x4e487b7100000000000000000000000000000000000000000000000000000000\n        /* \"#utility.yul\":1567:1568   */\n      0x00\n        /* \"#utility.yul\":1560:1648   */\n      mstore\n        /* \"#utility.yul\":1667:1671   */\n      0x11\n        /* \"#utility.yul\":1664:1665   */\n      0x04\n        /* \"#utility.yul\":1657:1672   */\n      mstore\n        /* \"#utility.yul\":1691:1695   */\n      0x24\n        /* \"#utility.yul\":1688:1689   */\n      0x00\n        /* \"#utility.yul\":1681:1696   */\n      revert\n        /* \"#utility.yul\":1708:1899   */\n    tag_22:\n        /* \"#utility.yul\":1748:1751   */\n      0x00\n        /* \"#utility.yul\":1767:1787   */\n      tag_77\n        /* \"#utility.yul\":1785:1786   */\n      dup3\n        /* \"#utility.yul\":1767:1787   */\n      tag_45\n      jump\t// in\n    tag_77:\n        /* \"#utility.yul\":1762:1787   */\n      swap2\n      pop\n        /* \"#utility.yul\":1801:1821   */\n      tag_78\n        /* \"#utility.yul\":1819:1820   */\n      dup4\n        /* \"#utility.yul\":1801:1821   */\n      tag_45\n      jump\t// in\n    tag_78:\n        /* \"#utility.yul\":1796:1821   */\n      swap3\n      pop\n        /* \"#utility.yul\":1844:1845   */\n      dup3\n        /* \"#utility.yul\":1841:1842   */\n      dup3\n        /* \"#utility.yul\":1837:1846   */\n      add\n        /* \"#utility.yul\":1830:1846   */\n      swap1\n      pop\n        /* \"#utility.yul\":1865:1868   */\n      dup1\n        /* \"#utility.yul\":1862:1863   */\n      dup3\n        /* \"#utility.yul\":1859:1869   */\n      gt\n        /* \"#utility.yul\":1856:1892   */\n      iszero\n      tag_79\n      jumpi\n        /* \"#utility.yul\":1872:1890   */\n      tag_80\n      tag_49\n      jump\t// in\n    tag_80:\n        /* \"#utility.yul\":1856:1892   */\n    tag_79:\n        /* \"#utility.yul\":1708:1899   */\n      swap3\n      swap2\n      pop\n      pop\n      jump\t// out\n        /* \"#utility.yul\":1905:2074   */\n    tag_50:\n        /* \"#utility.yul\":1989:2000   */\n      0x00\n        /* \"#utility.yul\":2023:2029   */\n      dup3\n        /* \"#utility.yul\":2018:2021   */\n      dup3\n        /* \"#utility.yul\":2011:2030   */\n      mstore\n        /* \"#utility.yul\":2063:2067   */\n      0x20\n        /* \"#utility.yul\":2058:2061   */\n      dup3\n        /* \"#utility.yul\":2054:2068   */\n      add\n        /* \"#utility.yul\":2039:2068   */\n      swap1\n      pop\n        /* \"#utility.yul\":1905:2074   */\n      swap3\n      swap2\n      pop\n      pop\n      jump\t// out\n        /* \"#utility.yul\":2080:2234   */\n    tag_51:\n        /* \"#utility.yul\":2220:2226   */\n      0x6e6f706500000000000000000000000000000000000000000000000000000000\n        /* \"#utility.yul\":2216:2217   */\n      0x00\n        /* \"#utility.yul\":2208:2214   */\n      dup3\n        /* \"#utility.yul\":2204:2218   */\n      add\n        /* \"#utility.yul\":2197:2227   */\n      mstore\n        /* \"#utility.yul\":2080:2234   */\n      pop\n      jump\t// out\n        /* \"#utility.yul\":2240:2605   */\n    tag_52:\n        /* \"#utility.yul\":2382:2385   */\n      0x00\n        /* \"#utility.yul\":2403:2469   */\n      tag_84\n        /* \"#utility.yul\":2467:2468   */\n      0x04\n        /* \"#utility.yul\":2462:2465   */\n      dup4\n        /* \"#utility.yul\":2403:2469   */\n      tag_50\n      jump\t// in\n    tag_84:\n        /* \"#utility.yul\":2396:2469   */\n      swap2\n      pop\n        /* \"#utility.yul\":2478:2571   */\n      tag_85\n        /* \"#utility.yul\":2567:2570   */\n      dup3\n        /* \"#utility.yul\":2478:2571   */\n      tag_51\n      jump\t// in\n    tag_85:\n        /* \"#utility.yul\":2596:2598   */\n      0x20\n        /* \"#utility.yul\":2591:2594   */\n      dup3\n        /* \"#utility.yul\":2587:2599   */\n      add\n        /* \"#utility.yul\":2580:2599   */\n      swap1\n      pop\n        /* \"#utility.yul\":2240:2605   */\n      swap2\n      swap1\n      pop\n      jump\t// out\n        /* \"#utility.yul\":2611:3030   */\n    tag_25:\n        /* \"#utility.yul\":2777:2781   */\n      0x00\n        /* \"#utility.yul\":2815:2817   */\n      0x20\n        /* \"#utility.yul\":2804:2813   */\n      dup3\n        /* \"#utility.yul\":2800:2818   */\n      add\n        /* \"#utility.yul\":2792:2818   */\n      swap1\n      pop\n        /* \"#utility.yul\":2864:2873   */\n      dup2\n        /* \"#utility.yul\":2858:2862   */\n      dup2\n        /* \"#utility.yul\":2854:2874   */\n      sub\n        /* \"#utility.yul\":2850:2851   */\n      0x00\n        /* \"#utility.yul\":2839:2848   */\n      dup4\n        /* \"#utility.yul\":2835:2852   */\n      add\n        /* \"#utility.yul\":2828:2875   */\n      mstore\n        /* \"#utility.yul\":2892:3023   */\n      tag_87\n        /* \"#utility.yul\":3018:3022   */\n      dup2\n        /* \"#utility.yul\":2892:3023   */\n      tag_52\n      jump\t// in\n    tag_87:\n        /* \"#utility.yul\":2884:3023   */\n      swap1\n      pop\n        /* \"#utility.yul\":2611:3030   */\n      swap2\n      swap1\n      pop\n      jump\t// out\n        /* \"#utility.yul\":3036:3446   */\n    tag_28:\n        /* \"#utility.yul\":3076:3083   */\n      0x00\n        /* \"#utility.yul\":3099:3119   */\n      tag_89\n        /* \"#utility.yul\":3117:3118   */\n      dup3\n        /* \"#utility.yul\":3099:3119   */\n      tag_45\n      jump\t// in\n    tag_89:\n        /* \"#utility.yul\":3094:3119   */\n      swap2\n      pop\n        /* \"#utility.yul\":3133:3153   */\n      tag_90\n        /* \"#utility.yul\":3151:3152   */\n      dup4\n        /* \"#utility.yul\":3133:3153   */\n      tag_45\n      jump\t// in\n    tag_90:\n        /* \"#utility.yul\":3128:3153   */\n      swap3\n      pop\n        /* \"#utility.yul\":3188:3189   */\n      dup3\n        /* \"#utility.yul\":3185:3186   */\n      dup3\n        /* \"#utility.yul\":3181:3190   */\n      mul\n        /* \"#utility.yul\":3210:3240   */\n      tag_91\n        /* \"#utility.yul\":3228:3239   */\n      dup2\n        /* \"#utility.yul\":3210:3240   */\n      tag_45\n      jump\t// in\n    tag_91:\n        /* \"#utility.yul\":3199:3240   */\n      swap2\n      pop\n        /* \"#utility.yul\":3389:3390   */\n      dup3\n        /* \"#utility.yul\":3380:3387   */\n      dup3\n        /* \"#utility.yul\":3376:3391   */\n      div\n        /* \"#utility.yul\":3373:3374   */\n      dup5\n        /* \"#utility.yul\":3370:3392   */\n      eq\n        /* \"#utility.yul\":3350:3351   */\n      dup4\n        /* \"#utility.yul\":3343:3352   */\n      iszero\n        /* \"#utility.yul\":3323:3406   */\n      or\n        /* \"#utility.yul\":3300:3439   */\n      tag_92\n      jumpi\n        /* \"#utility.yul\":3419:3437   */\n      tag_93\n      tag_49\n      jump\t// in\n    tag_93:\n        /* \"#utility.yul\":3300:3439   */\n    tag_92:\n        /* \"#utility.yul\":3084:3446   */\n      pop\n        /* \"#utility.yul\":3036:3446   */\n      swap3\n      swap2\n      pop\n      pop\n      jump\t// out\n        /* \"#utility.yul\":3452:3554   */\n    tag_53:\n        /* \"#utility.yul\":3494:3502   */\n      0x00\n        /* \"#utility.yul\":3541:3546   */\n      dup2\n        /* \"#utility.yul\":3538:3539   */\n      0x01\n        /* \"#utility.yul\":3534:3547   */\n      shr\n        /* \"#utility.yul\":3513:3547   */\n      swap1\n      pop\n        /* \"#utility.yul\":3452:3554   */\n      swap2\n      swap1\n      pop\n      jump\t// out\n        /* \"#utility.yul\":3560:4408   */\n    tag_54:\n        /* \"#utility.yul\":3621:3626   */\n      0x00\n        /* \"#utility.yul\":3628:3632   */\n      dup1\n        /* \"#utility.yul\":3652:3658   */\n      dup3\n        /* \"#utility.yul\":3643:3658   */\n      swap2\n      pop\n        /* \"#utility.yul\":3676:3681   */\n      dup4\n        /* \"#utility.yul\":3667:3681   */\n      swap1\n      pop\n        /* \"#utility.yul\":3690:4402   */\n    tag_96:\n        /* \"#utility.yul\":3711:3712   */\n      0x01\n        /* \"#utility.yul\":3701:3709   */\n      dup6\n        /* \"#utility.yul\":3698:3713   */\n      gt\n        /* \"#utility.yul\":3690:4402   */\n      iszero\n      tag_98\n      jumpi\n        /* \"#utility.yul\":3806:3810   */\n      dup1\n        /* \"#utility.yul\":3801:3804   */\n      dup7\n        /* \"#utility.yul\":3797:3811   */\n      div\n        /* \"#utility.yul\":3791:3795   */\n      dup2\n        /* \"#utility.yul\":3788:3812   */\n      gt\n        /* \"#utility.yul\":3785:3835   */\n      iszero\n      tag_99\n      jumpi\n        /* \"#utility.yul\":3815:3833   */\n      tag_100\n      tag_49\n      jump\t// in\n    tag_100:\n        /* \"#utility.yul\":3785:3835   */\n    tag_99:\n        /* \"#utility.yul\":3865:3866   */\n      0x01\n        /* \"#utility.yul\":3855:3863   */\n      dup6\n        /* \"#utility.yul\":3851:3867   */\n      and\n        /* \"#utility.yul\":3848:4299   */\n      iszero\n      tag_101\n      jumpi\n        /* \"#utility.yul\":4280:4284   */\n      dup1\n        /* \"#utility.yul\":4273:4278   */\n      dup3\n        /* \"#utility.yul\":4269:4285   */\n      mul\n        /* \"#utility.yul\":4260:4285   */\n      swap2\n      pop\n        /* \"#utility.yul\":3848:4299   */\n    tag_101:\n        /* \"#utility.yul\":4330:4334   */\n      dup1\n        /* \"#utility.yul\":4324:4328   */\n      dup2\n        /* \"#utility.yul\":4320:4335   */\n      mul\n        /* \"#utility.yul\":4312:4335   */\n      swap1\n      pop\n        /* \"#utility.yul\":4360:4392   */\n      tag_102\n        /* \"#utility.yul\":4383:4391   */\n      dup6\n        /* \"#utility.yul\":4360:4392   */\n      tag_53\n      jump\t// in\n    tag_102:\n        /* \"#utility.yul\":4348:4392   */\n      swap5\n      pop\n        /* \"#utility.yul\":3690:4402   */\n      jump(tag_96)\n    tag_98:\n        /* \"#utility.yul\":3560:4408   */\n      swap5\n      pop\n      swap5\n      swap3\n      pop\n      pop\n      pop\n      jump\t// out\n        /* \"#utility.yul\":4414:5487   */\n    tag_55:\n        /* \"#utility.yul\":4468:4473   */\n      0x00\n        /* \"#utility.yul\":4659:4667   */\n      dup3\n        /* \"#utility.yul\":4649:4689   */\n      tag_104\n      jumpi\n        /* \"#utility.yul\":4680:4681   */\n      0x01\n        /* \"#utility.yul\":4671:4681   */\n      swap1\n      pop\n        /* \"#utility.yul\":4682:4687   */\n      jump(tag_103)\n        /* \"#utility.yul\":4649:4689   */\n    tag_104:\n        /* \"#utility.yul\":4708:4712   */\n      dup2\n        /* \"#utility.yul\":4698:4734   */\n      tag_105\n      jumpi\n        /* \"#utility.yul\":4725:4726   */\n      0x00\n        /* \"#utility.yul\":4716:4726   */\n      swap1\n      pop\n        /* \"#utility.yul\":4727:4732   */\n      jump(tag_103)\n        /* \"#utility.yul\":4698:4734   */\n    tag_105:\n        /* \"#utility.yul\":4794:4798   */\n      dup2\n        /* \"#utility.yul\":4842:4843   */\n      0x01\n        /* \"#utility.yul\":4837:4864   */\n      dup2\n      eq\n      tag_107\n      jumpi\n        /* \"#utility.yul\":4878:4879   */\n      0x02\n        /* \"#utility.yul\":4873:5064   */\n      dup2\n      eq\n      tag_108\n      jumpi\n        /* \"#utility.yul\":4787:5064   */\n      jump(tag_106)\n        /* \"#utility.yul\":4837:4864   */\n    tag_107:\n        /* \"#utility.yul\":4855:4856   */\n      0x01\n        /* \"#utility.yul\":4846:4856   */\n      swap2\n      pop\n        /* \"#utility.yul\":4857:4862   */\n      pop\n      jump(tag_103)\n        /* \"#utility.yul\":4873:5064   */\n    tag_108:\n        /* \"#utility.yul\":4918:4921   */\n      0xff\n        /* \"#utility.yul\":4908:4916   */\n      dup5\n        /* \"#utility.yul\":4905:4922   */\n      gt\n        /* \"#utility.yul\":4902:4945   */\n      iszero\n      tag_109\n      jumpi\n        /* \"#utility.yul\":4925:4943   */\n      tag_110\n      tag_49\n      jump\t// in\n    tag_110:\n        /* \"#utility.yul\":4902:4945   */\n    tag_109:\n        /* \"#utility.yul\":4974:4982   */\n      dup4\n        /* \"#utility.yul\":4971:4972   */\n      0x02\n        /* \"#utility.yul\":4967:4983   */\n      exp\n        /* \"#utility.yul\":4958:4983   */\n      swap2\n      pop\n        /* \"#utility.yul\":5009:5012   */\n      dup5\n        /* \"#utility.yul\":5002:5007   */\n      dup3\n        /* \"#utility.yul\":4999:5013   */\n      gt\n        /* \"#utility.yul\":4996:5036   */\n      iszero\n      tag_111\n      jumpi\n        /* \"#utility.yul\":5016:5034   */\n      tag_112\n      tag_49\n      jump\t// in\n    tag_112:\n        /* \"#utility.yul\":4996:5036   */\n    tag_111:\n        /* \"#utility.yul\":5049:5054   */\n      pop\n      jump(tag_103)\n        /* \"#utility.yul\":4787:5064   */\n    tag_106:\n      pop\n        /* \"#utility.yul\":5173:5175   */\n      0x20\n        /* \"#utility.yul\":5163:5171   */\n      dup4\n        /* \"#utility.yul\":5160:5176   */\n      lt\n        /* \"#utility.yul\":5154:5157   */\n      0x0133\n        /* \"#utility.yul\":5148:5152   */\n      dup4\n        /* \"#utility.yul\":5145:5158   */\n      lt\n        /* \"#utility.yul\":5141:5177   */\n      and\n        /* \"#utility.yul\":5123:5125   */\n      0x4e\n        /* \"#utility.yul\":5113:5121   */\n      dup5\n        /* \"#utility.yul\":5110:5126   */\n      lt\n        /* \"#utility.yul\":5105:5107   */\n      0x0b\n        /* \"#utility.yul\":5099:5103   */\n      dup5\n        /* \"#utility.yul\":5096:5108   */\n      lt\n        /* \"#utility.yul\":5092:5127   */\n      and\n        /* \"#utility.yul\":5076:5187   */\n      or\n        /* \"#utility.yul\":5073:5319   */\n      iszero\n      tag_113\n      jumpi\n        /* \"#utility.yul\":5229:5237   */\n      dup3\n        /* \"#utility.yul\":5223:5227   */\n      dup3\n        /* \"#utility.yul\":5219:5238   */\n      exp\n        /* \"#utility.yul\":5210:5238   */\n      swap1\n      pop\n        /* \"#utility.yul\":5264:5267   */\n      dup4\n        /* \"#utility.yul\":5257:5262   */\n      dup2\n        /* \"#utility.yul\":5254:5268   */\n      gt\n        /* \"#utility.yul\":5251:5291   */\n      iszero\n      tag_114\n      jumpi\n        /* \"#utility.yul\":5271:5289   */\n      tag_115\n      tag_49\n      jump\t// in\n    tag_115:\n        /* \"#utility.yul\":5251:5291   */\n    tag_114:\n        /* \"#utility.yul\":5304:5309   */\n      jump(tag_103)\n        /* \"#utility.yul\":5073:5319   */\n    tag_113:\n        /* \"#utility.yul\":5344:5386   */\n      tag_116\n        /* \"#utility.yul\":5382:5385   */\n      dup5\n        /* \"#utility.yul\":5372:5380   */\n      dup5\n        /* \"#utility.yul\":5366:5370   */\n      dup5\n        /* \"#utility.yul\":5363:5364   */\n      0x01\n        /* \"#utility.yul\":5344:5386   */\n      tag_54\n      jump\t// in\n    tag_116:\n        /* \"#utility.yul\":5329:5386   */\n      swap3\n      pop\n      swap1\n      pop\n        /* \"#utility.yul\":5418:5422   */\n      dup2\n        /* \"#utility.yul\":5413:5416   */\n      dup5\n        /* \"#utility.yul\":5409:5423   */\n      div\n        /* \"#utility.yul\":5402:5407   */\n      dup2\n        /* \"#utility.yul\":5399:5424   */\n      gt\n        /* \"#utility.yul\":5396:5447   */\n      iszero\n      tag_117\n      jumpi\n        /* \"#utility.yul\":5427:5445   */\n      tag_118\n      tag_49\n      jump\t// in\n    tag_118:\n        /* \"#utility.yul\":5396:5447   */\n    tag_117:\n        /* \"#utility.yul\":5476:5480   */\n      dup2\n        /* \"#utility.yul\":5469:5474   */\n      dup2\n        /* \"#utility.yul\":5465:5481   */\n      mul\n        /* \"#utility.yul\":5456:5481   */\n      swap1\n      pop\n        /* \"#utility.yul\":4414:5487   */\n    tag_103:\n      swap4\n      swap3\n      pop\n      pop\n      pop\n      jump\t// out\n        /* \"#utility.yul\":5493:5778   */\n    tag_41:\n        /* \"#utility.yul\":5553:5558   */\n      0x00\n        /* \"#utility.yul\":5577:5600   */\n      tag_120\n        /* \"#utility.yul\":5595:5599   */\n      dup3\n        /* \"#utility.yul\":5577:5600   */\n      tag_45\n      jump\t// in\n    tag_120:\n        /* \"#utility.yul\":5569:5600   */\n      swap2\n      pop\n        /* \"#utility.yul\":5621:5648   */\n      tag_121\n        /* \"#utility.yul\":5639:5647   */\n      dup4\n        /* \"#utility.yul\":5621:5648   */\n      tag_45\n      jump\t// in\n    tag_121:\n        /* \"#utility.yul\":5609:5648   */\n      swap3\n      pop\n        /* \"#utility.yul\":5667:5771   */\n      tag_122\n        /* \"#utility.yul\":5704:5770   */\n      0xffffffffffffffffffffffffffffffffffffffffffffffffffffffffffffffff\n        /* \"#utility.yul\":5694:5702   */\n      dup5\n        /* \"#utility.yul\":5688:5692   */\n      dup5\n        /* \"#utility.yul\":5667:5771   */\n      tag_55\n      jump\t// in\n    tag_122:\n        /* \"#utility.yul\":5658:5771   */\n      swap1\n      pop\n        /* \"#utility.yul\":5493:5778   */\n      swap3\n      swap2\n      pop\n      pop\n      jump\t// out\n\n    auxdata: 0xa26469706673582212205f1bd22a6966ef5d06d11871189d79ad4c5c42c3e4aca0fd12af3899ad92bb5664736f6c63430008190033\n}\n",
				"bytecode": {
					"linkReferences": {},
					"object": "6080604052348015600e575f80fd5b5061056d8061001c5f395ff3fe608060405234801561000f575f80fd5b506004361061003f575f3560e01c80635002bed714610043578063771602f714610073578063ab78e68b146100a3575b5f80fd5b61005d6004803603810190610058919061023f565b6100d3565b60405161006a919061028c565b60405180910390f35b61008d6004803603810190610088919061023f565b61013a565b60405161009a919061028c565b60405180910390f35b6100bd60048036038101906100b8919061023f565b6101a1565b6040516100ca919061028c565b60405180910390f35b5f8282600a81836100e491906102d2565b10610124576040517f08c379a000000000000000000000000000000000000000000000000000000000815260040161011b9061035f565b60405180910390fd5b8385610130919061037d565b9250505092915050565b5f8282600a818361014b91906102d2565b1061018b576040517f08c379a00000000000000000000000000000000000000000000000000000000081526004016101829061035f565b60405180910390fd5b838561019791906102d2565b9250505092915050565b5f8282600a81836101b291906102d2565b106101f2576040517f08c379a00000000000000000000000000000000000000000000000000000000081526004016101e99061035f565b60405180910390fd5b83856101fe91906104ed565b9250505092915050565b5f80fd5b5f819050919050565b61021e8161020c565b8114610228575f80fd5b50565b5f8135905061023981610215565b92915050565b5f806040838503121561025557610254610208565b5b5f6102628582860161022b565b92505060206102738582860161022b565b9150509250929050565b6102868161020c565b82525050565b5f60208201905061029f5f83018461027d565b92915050565b7f4e487b71000000000000000000000000000000000000000000000000000000005f52601160045260245ffd5b5f6102dc8261020c565b91506102e78361020c565b92508282019050808211156102ff576102fe6102a5565b5b92915050565b5f82825260208201905092915050565b7f6e6f7065000000000000000000000000000000000000000000000000000000005f82015250565b5f610349600483610305565b915061035482610315565b602082019050919050565b5f6020820190508181035f8301526103768161033d565b9050919050565b5f6103878261020c565b91506103928361020c565b92508282026103a08161020c565b915082820484148315176103b7576103b66102a5565b5b5092915050565b5f8160011c9050919050565b5f808291508390505b6001851115610413578086048111156103ef576103ee6102a5565b5b60018516156103fe5780820291505b808102905061040c856103be565b94506103d3565b94509492505050565b5f8261042b57600190506104e6565b81610438575f90506104e6565b816001811461044e576002811461045857610487565b60019150506104e6565b60ff84111561046a576104696102a5565b5b8360020a915084821115610481576104806102a5565b5b506104e6565b5060208310610133831016604e8410600b84101617156104bc5782820a9050838111156104b7576104b66102a5565b5b6104e6565b6104c984848460016103ca565b925090508184048111156104e0576104df6102a5565b5b81810290505b9392505050565b5f6104f78261020c565b91506105028361020c565b925061052f7fffffffffffffffffffffffffffffffffffffffffffffffffffffffffffffffff848461041c565b90509291505056fea26469706673582212205f1bd22a6966ef5d06d11871189d79ad4c5c42c3e4aca0fd12af3899ad92bb5664736f6c63430008190033",
					"opcodes": "PUSH1 0x80 PUSH1 0x40 MSTORE CALLVALUE DUP1 ISZERO PUSH1 0xE JUMPI PUSH0 DUP1 REVERT JUMPDEST POP PUSH2 0x56D DUP1 PUSH2 0x1C PUSH0 CODECOPY PUSH0 RETURN INVALID PUSH1 0x80 PUSH1 0x40 MSTORE CALLVALUE DUP1 ISZERO PUSH2 0xF JUMPI PUSH0 DUP1 REVERT JUMPDEST POP PUSH1 0x4 CALLDATASIZE LT PUSH2 0x3F JUMPI PUSH0 CALLDATALOAD PUSH1 0xE0 SHR DUP1 PUSH4 0x5002BED7 EQ PUSH2 0x43 JUMPI DUP1 PUSH4 0x771602F7 EQ PUSH2 0x73 JUMPI DUP1 PUSH4 0xAB78E68B EQ PUSH2 0xA3 JUMPI JUMPDEST PUSH0 DUP1 REVERT JUMPDEST PUSH2 0x5D PUSH1 0x4 DUP1 CALLDATASIZE SUB DUP2 ADD SWAP1 PUSH2 0x58 SWAP2 SWAP1 PUSH2 0x23F JUMP JUMPDEST PUSH2 0xD3 JUMP JUMPDEST PUSH1 0x40 MLOAD PUSH2 0x6A SWAP2 SWAP1 PUSH2 0x28C JUMP JUMPDEST PUSH1 0x40 MLOAD DUP1 SWAP2 SUB SWAP1 RETURN JUMPDEST PUSH2 0x8D PUSH1 0x4 DUP1 CALLDATASIZE SUB DUP2 ADD SWAP1 PUSH2 0x88 SWAP2 SWAP1 PUSH2 0x23F JUMP JUMPDEST PUSH2 0x13A JUMP JUMPDEST PUSH1 0x40 MLOAD PUSH2 0x9A SWAP2 SWAP1 PUSH2 0x28C JUMP JUMPDEST PUSH1 0x40 MLOAD DUP1 SWAP2 SUB SWAP1 RETURN JUMPDEST PUSH2 0xBD PUSH1 0x4 DUP1 CALLDATASIZE SUB DUP2 ADD SWAP1 PUSH2 0xB8 SWAP2 SWAP1 PUSH2 0x23F JUMP JUMPDEST PUSH2 0x1A1 JUMP JUMPDEST PUSH1 0x40 MLOAD PUSH2 0xCA SWAP2 SWAP1 PUSH2 0x28C JUMP JUMPDEST PUSH1 0x40 MLOAD DUP1 SWAP2 SUB SWAP1 RETURN JUMPDEST PUSH0 DUP3 DUP3 PUSH1 0xA DUP2 DUP4 PUSH2 0xE4 SWAP2 SWAP1 PUSH2 0x2D2 JUMP JUMPDEST LT PUSH2 0x124 JUMPI PUSH1 0x40 MLOAD PUSH32 0x8C379A000000000000000000000000000000000000000000000000000000000 DUP2 MSTORE PUSH1 0x4 ADD PUSH2 0x11B SWAP1 PUSH2 0x35F JUMP JUMPDEST PUSH1 0x40 MLOAD DUP1 SWAP2 SUB SWAP1 REVERT JUMPDEST DUP4 DUP6 PUSH2 0x130 SWAP2 SWAP1 PUSH2 0x37D JUMP JUMPDEST SWAP3 POP POP POP SWAP3 SWAP2 POP POP JUMP JUMPDEST PUSH0 DUP3 DUP3 PUSH1 0xA DUP2 DUP4 PUSH2 0x14B SWAP2 SWAP1 PUSH2 0x2D2 JUMP JUMPDEST LT PUSH2 0x18B JUMPI PUSH1 0x40 MLOAD PUSH32 0x8C379A000000000000000000000000000000000000000000000000000000000 DUP2 MSTORE PUSH1 0x4 ADD PUSH2 0x182 SWAP1 PUSH2 0x35F JUMP JUMPDEST PUSH1 0x40 MLOAD DUP1 SWAP2 SUB SWAP1 REVERT JUMPDEST DUP4 DUP6 PUSH2 0x197 SWAP2 SWAP1 PUSH2 0x2D2 JUMP JUMPDEST SWAP3 POP POP POP SWAP3 SWAP2 POP POP JUMP JUMPDEST PUSH0 DUP3 DUP3 PUSH1 0xA DUP2 DUP4 PUSH2 0x1B2 SWAP2 SWAP1 PUSH2 0x2D2 JUMP JUMPDEST LT PUSH2 0x1F2 JUMPI PUSH1 0x40 MLOAD PUSH32 0x8C379A000000000000000000000000000000000000000000000000000000000 DUP2 MSTORE PUSH1 0x4 ADD PUSH2 0x1E9 SWAP1 PUSH2 0x35F JUMP JUMPDEST PUSH1 0x40 MLOAD DUP1 SWAP2 SUB SWAP1 REVERT JUMPDEST DUP4 DUP6 PUSH2 0x1FE SWAP2 SWAP1 PUSH2 0x4ED JUMP JUMPDEST SWAP3 POP POP POP SWAP3 SWAP2 POP POP JUMP JUMPDEST PUSH0 DUP1 REVERT JUMPDEST PUSH0 DUP2 SWAP1 POP SWAP2 SWAP1 POP JUMP JUMPDEST PUSH2 0x21E DUP2 PUSH2 0x20C JUMP JUMPDEST DUP2 EQ PUSH2 0x228 JUMPI PUSH0 DUP1 REVERT JUMPDEST POP JUMP JUMPDEST PUSH0 DUP2 CALLDATALOAD SWAP1 POP PUSH2 0x239 DUP2 PUSH2 0x215 JUMP JUMPDEST SWAP3 SWAP2 POP POP JUMP JUMPDEST PUSH0 DUP1 PUSH1 0x40 DUP4 DUP6 SUB SLT ISZERO PUSH2 0x255 JUMPI PUSH2 0x254 PUSH2 0x208 JUMP JUMPDEST JUMPDEST PUSH0 PUSH2 0x262 DUP6 DUP3 DUP7 ADD PUSH2 0x22B JUMP JUMPDEST SWAP3 POP POP PUSH1 0x20 PUSH2 0x273 DUP6 DUP3 DUP7 ADD PUSH2 0x22B JUMP JUMPDEST SWAP2 POP POP SWAP3 POP SWAP3 SWAP1 POP JUMP JUMPDEST PUSH2 0x286 DUP2 PUSH2 0x20C JUMP JUMPDEST DUP3 MSTORE POP POP JUMP JUMPDEST PUSH0 PUSH1 0x20 DUP3 ADD SWAP1 POP PUSH2 0x29F PUSH0 DUP4 ADD DUP5 PUSH2 0x27D JUMP JUMPDEST SWAP3 SWAP2 POP POP JUMP JUMPDEST PUSH32 0x4E487B7100000000000000000000000000000000000000000000000000000000 PUSH0 MSTORE PUSH1 0x11 PUSH1 0x4 MSTORE PUSH1 0x24 PUSH0 REVERT JUMPDEST PUSH0 PUSH2 0x2DC DUP3 PUSH2 0x20C JUMP JUMPDEST SWAP2 POP PUSH2 0x2E7 DUP4 PUSH2 0x20C JUMP JUMPDEST SWAP3 POP DUP3 DUP3 ADD SWAP1 POP DUP1 DUP3 GT ISZERO PUSH2 0x2FF JUMPI PUSH2 0x2FE PUSH2 0x2A5 JUMP JUMPDEST JUMPDEST SWAP3 SWAP2 POP POP JUMP JUMPDEST PUSH0 DUP3 DUP3 MSTORE PUSH1 0x20 DUP3 ADD SWAP1 POP SWAP3 SWAP2 POP POP JUMP JUMPDEST PUSH32 0x6E6F706500000000000000000000000000000000000000000000000000000000 PUSH0 DUP3 ADD MSTORE POP JUMP JUMPDEST PUSH0 PUSH2 0x349 PUSH1 0x4 DUP4 PUSH2 0x305 JUMP JUMPDEST SWAP2 POP PUSH2 0x354 DUP3 PUSH2 0x315 JUMP JUMPDEST PUSH1 0x20 DUP3 ADD SWAP1 POP SWAP2 SWAP1 POP JUMP JUMPDEST PUSH0 PUSH1 0x20 DUP3 ADD SWAP1 POP DUP2 DUP2 SUB PUSH0 DUP4 ADD MSTORE PUSH2 0x376 DUP2 PUSH2 0x33D JUMP JUMPDEST SWAP1 POP SWAP2 SWAP1 POP JUMP JUMPDEST PUSH0 PUSH2 0x387 DUP3 PUSH2 0x20C JUMP JUMPDEST SWAP2 POP PUSH2 0x392 DUP4 PUSH2 0x20C JUMP JUMPDEST SWAP3 POP DUP3 DUP3 MUL PUSH2 0x3A0 DUP2 PUSH2 0x20C JUMP JUMPDEST SWAP2 POP DUP3 DUP3 DIV DUP5 EQ DUP4 ISZERO OR PUSH2 0x3B7 JUMPI PUSH2 0x3B6 PUSH2 0x2A5 JUMP JUMPDEST JUMPDEST POP SWAP3 SWAP2 POP POP JUMP JUMPDEST PUSH0 DUP2 PUSH1 0x1 SHR SWAP1 POP SWAP2 SWAP1 POP JUMP JUMPDEST PUSH0 DUP1 DUP3 SWAP2 POP DUP4 SWAP1 POP JUMPDEST PUSH1 0x1 DUP6 GT ISZERO PUSH2 0x413 JUMPI DUP1 DUP7 DIV DUP2 GT ISZERO PUSH2 0x3EF JUMPI PUSH2 0x3EE PUSH2 0x2A5 JUMP JUMPDEST JUMPDEST PUSH1 0x1 DUP6 AND ISZERO PUSH2 0x3FE JUMPI DUP1 DUP3 MUL SWAP2 POP JUMPDEST DUP1 DUP2 MUL SWAP1 POP PUSH2 0x40C DUP6 PUSH2 0x3BE JUMP JUMPDEST SWAP5 POP PUSH2 0x3D3 JUMP JUMPDEST SWAP5 POP SWAP5 SWAP3 POP POP POP JUMP JUMPDEST PUSH0 DUP3 PUSH2 0x42B JUMPI PUSH1 0x1 SWAP1 POP PUSH2 0x4E6 JUMP JUMPDEST DUP2 PUSH2 0x438 JUMPI PUSH0 SWAP1 POP PUSH2 0x4E6 JUMP JUMPDEST DUP2 PUSH1 0x1 DUP2 EQ PUSH2 0x44E JUMPI PUSH1 0x2 DUP2 EQ PUSH2 0x458 JUMPI PUSH2 0x487 JUMP JUMPDEST PUSH1 0x1 SWAP2 POP POP PUSH2 0x4E6 JUMP JUMPDEST PUSH1 0xFF DUP5 GT ISZERO PUSH2 0x46A JUMPI PUSH2 0x469 PUSH2 0x2A5 JUMP JUMPDEST JUMPDEST DUP4 PUSH1 0x2 EXP SWAP2 POP DUP5 DUP3 GT ISZERO PUSH2 0x481 JUMPI PUSH2 0x480 PUSH2 0x2A5 JUMP JUMPDEST JUMPDEST POP PUSH2 0x4E6 JUMP JUMPDEST POP PUSH1 0x20 DUP4 LT PUSH2 0x133 DUP4 LT AND PUSH1 0x4E DUP5 LT PUSH1 0xB DUP5 LT AND OR ISZERO PUSH2 0x4BC JUMPI DUP3 DUP3 EXP SWAP1 POP DUP4 DUP2 GT ISZERO PUSH2 0x4B7 JUMPI PUSH2 0x4B6 PUSH2 0x2A5 JUMP JUMPDEST JUMPDEST PUSH2 0x4E6 JUMP JUMPDEST PUSH2 0x4C9 DUP5 DUP5 DUP5 PUSH1 0x1 PUSH2 0x3CA JUMP JUMPDEST SWAP3 POP SWAP1 POP DUP2 DUP5 DIV DUP2 GT ISZERO PUSH2 0x4E0 JUMPI PUSH2 0x4DF PUSH2 0x2A5 JUMP JUMPDEST JUMPDEST DUP2 DUP2 MUL SWAP1 POP JUMPDEST SWAP4 SWAP3 POP POP POP JUMP JUMPDEST PUSH0 PUSH2 0x4F7 DUP3 PUSH2 0x20C JUMP JUMPDEST SWAP2 POP PUSH2 0x502 DUP4 PUSH2 0x20C JUMP JUMPDEST SWAP3 POP PUSH2 0x52F PUSH32 0xFFFFFFFFFFFFFFFFFFFFFFFFFFFFFFFFFFFFFFFFFFFFFFFFFFFFFFFFFFFFFFFF DUP5 DUP5 PUSH2 0x41C JUMP JUMPDEST SWAP1 POP SWAP3 SWAP2 POP POP JUMP INVALID LOG2 PUSH5 0x6970667358 0x22 SLT KECCAK256 PUSH0 SHL 0xD2 0x2A PUSH10 0x66EF5D06D11871189D79 0xAD 0x4C TLOAD TIMESTAMP 0xC3 0xE4 0xAC LOG0 REVERT SLT 0xAF CODESIZE SWAP10 0xAD SWAP3 0xBB JUMP PUSH5 0x736F6C6343 STOP ADDMOD NOT STOP CALLER "
				},
				"gasEstimates": {
					"creation": {
						"codeDepositCost": "277800",
						"executionCost": "316",
						"totalCost": "278116"
					},
					"external": {
						"add(uint256,uint256)": "infinite",
						"multiple(uint256,uint256)": "infinite",
						"square(uint256,uint256)": "infinite"
					}
				},
				"methodIdentifiers": {
					"add(uint256,uint256)": "771602f7",
					"multiple(uint256,uint256)": "5002bed7",
					"square(uint256,uint256)": "ab78e68b"
				}
			},
			"storageLayout": {
				"storage": [],
				"types": null
			},
			"userdoc": {
				"kind": "user",
				"methods": {},
				"version": 1
			}
		}
	}
}