{
	"solidity_100/61-70.sol": {
		"Q61": {
			"abi": [
				{
					"inputs": [
						{
							"internalType": "uint256",
							"name": "a",
							"type": "uint256"
						},
						{
							"internalType": "uint256",
							"name": "b",
							"type": "uint256"
						}
					],
					"name": "squareB",
					"outputs": [
						{
							"internalType": "uint256",
							"name": "",
							"type": "uint256"
						}
					],
					"stateMutability": "pure",
					"type": "function"
				}
			],
			"devdoc": {
				"kind": "dev",
				"methods": {},
				"version": 1
			},
			"evm": {
				"assembly": "    /* \"solidity_100/61-70.sol\":130:319  contract Q61 {... */\n  mstore(0x40, 0x80)\n  callvalue\n  dup1\n  iszero\n  tag_1\n  jumpi\n  0x00\n  dup1\n  revert\ntag_1:\n  pop\n  dataSize(sub_0)\n  dup1\n  dataOffset(sub_0)\n  0x00\n  codecopy\n  0x00\n  return\nstop\n\nsub_0: assembly {\n        /* \"solidity_100/61-70.sol\":130:319  contract Q61 {... */\n      mstore(0x40, 0x80)\n      callvalue\n      dup1\n      iszero\n      tag_1\n      jumpi\n      0x00\n      dup1\n      revert\n    tag_1:\n      pop\n      jumpi(tag_2, lt(calldatasize, 0x04))\n      shr(0xe0, calldataload(0x00))\n      dup1\n      0x6685f1df\n      eq\n      tag_3\n      jumpi\n    tag_2:\n      0x00\n      dup1\n      revert\n        /* \"solidity_100/61-70.sol\":226:316  function squareB(uint a, uint b) public pure returns(uint){... */\n    tag_3:\n      tag_4\n      0x04\n      dup1\n      calldatasize\n      sub\n      dup2\n      add\n      swap1\n      tag_5\n      swap2\n      swap1\n      tag_6\n      jump\t// in\n    tag_5:\n      tag_7\n      jump\t// in\n    tag_4:\n      mload(0x40)\n      tag_8\n      swap2\n      swap1\n      tag_9\n      jump\t// in\n    tag_8:\n      mload(0x40)\n      dup1\n      swap2\n      sub\n      swap1\n      return\n    tag_7:\n        /* \"solidity_100/61-70.sol\":279:283  uint */\n      0x00\n        /* \"solidity_100/61-70.sol\":307:308  b */\n      dup2\n        /* \"solidity_100/61-70.sol\":302:303  a */\n      dup4\n        /* \"solidity_100/61-70.sol\":302:308  a ** b */\n      tag_11\n      swap2\n      swap1\n      tag_12\n      jump\t// in\n    tag_11:\n        /* \"solidity_100/61-70.sol\":295:308  return a ** b */\n      swap1\n      pop\n        /* \"solidity_100/61-70.sol\":226:316  function squareB(uint a, uint b) public pure returns(uint){... */\n      swap3\n      swap2\n      pop\n      pop\n      jump\t// out\n        /* \"#utility.yul\":88:205   */\n    tag_14:\n        /* \"#utility.yul\":197:198   */\n      0x00\n        /* \"#utility.yul\":194:195   */\n      dup1\n        /* \"#utility.yul\":187:199   */\n      revert\n        /* \"#utility.yul\":334:411   */\n    tag_16:\n        /* \"#utility.yul\":371:378   */\n      0x00\n        /* \"#utility.yul\":400:405   */\n      dup2\n        /* \"#utility.yul\":389:405   */\n      swap1\n      pop\n        /* \"#utility.yul\":334:411   */\n      swap2\n      swap1\n      pop\n      jump\t// out\n        /* \"#utility.yul\":417:539   */\n    tag_17:\n        /* \"#utility.yul\":490:514   */\n      tag_30\n        /* \"#utility.yul\":508:513   */\n      dup2\n        /* \"#utility.yul\":490:514   */\n      tag_16\n      jump\t// in\n    tag_30:\n        /* \"#utility.yul\":483:488   */\n      dup2\n        /* \"#utility.yul\":480:515   */\n      eq\n        /* \"#utility.yul\":470:533   */\n      tag_31\n      jumpi\n        /* \"#utility.yul\":529:530   */\n      0x00\n        /* \"#utility.yul\":526:527   */\n      dup1\n        /* \"#utility.yul\":519:531   */\n      revert\n        /* \"#utility.yul\":470:533   */\n    tag_31:\n        /* \"#utility.yul\":417:539   */\n      pop\n      jump\t// out\n        /* \"#utility.yul\":545:684   */\n    tag_18:\n        /* \"#utility.yul\":591:596   */\n      0x00\n        /* \"#utility.yul\":629:635   */\n      dup2\n        /* \"#utility.yul\":616:636   */\n      calldataload\n        /* \"#utility.yul\":607:636   */\n      swap1\n      pop\n        /* \"#utility.yul\":645:678   */\n      tag_33\n        /* \"#utility.yul\":672:677   */\n      dup2\n        /* \"#utility.yul\":645:678   */\n      tag_17\n      jump\t// in\n    tag_33:\n        /* \"#utility.yul\":545:684   */\n      swap3\n      swap2\n      pop\n      pop\n      jump\t// out\n        /* \"#utility.yul\":690:1164   */\n    tag_6:\n        /* \"#utility.yul\":758:764   */\n      0x00\n        /* \"#utility.yul\":766:772   */\n      dup1\n        /* \"#utility.yul\":815:817   */\n      0x40\n        /* \"#utility.yul\":803:812   */\n      dup4\n        /* \"#utility.yul\":794:801   */\n      dup6\n        /* \"#utility.yul\":790:813   */\n      sub\n        /* \"#utility.yul\":786:818   */\n      slt\n        /* \"#utility.yul\":783:902   */\n      iszero\n      tag_35\n      jumpi\n        /* \"#utility.yul\":821:900   */\n      tag_36\n      tag_14\n      jump\t// in\n    tag_36:\n        /* \"#utility.yul\":783:902   */\n    tag_35:\n        /* \"#utility.yul\":941:942   */\n      0x00\n        /* \"#utility.yul\":966:1019   */\n      tag_37\n        /* \"#utility.yul\":1011:1018   */\n      dup6\n        /* \"#utility.yul\":1002:1008   */\n      dup3\n        /* \"#utility.yul\":991:1000   */\n      dup7\n        /* \"#utility.yul\":987:1009   */\n      add\n        /* \"#utility.yul\":966:1019   */\n      tag_18\n      jump\t// in\n    tag_37:\n        /* \"#utility.yul\":956:1019   */\n      swap3\n      pop\n        /* \"#utility.yul\":912:1029   */\n      pop\n        /* \"#utility.yul\":1068:1070   */\n      0x20\n        /* \"#utility.yul\":1094:1147   */\n      tag_38\n        /* \"#utility.yul\":1139:1146   */\n      dup6\n        /* \"#utility.yul\":1130:1136   */\n      dup3\n        /* \"#utility.yul\":1119:1128   */\n      dup7\n        /* \"#utility.yul\":1115:1137   */\n      add\n        /* \"#utility.yul\":1094:1147   */\n      tag_18\n      jump\t// in\n    tag_38:\n        /* \"#utility.yul\":1084:1147   */\n      swap2\n      pop\n        /* \"#utility.yul\":1039:1157   */\n      pop\n        /* \"#utility.yul\":690:1164   */\n      swap3\n      pop\n      swap3\n      swap1\n      pop\n      jump\t// out\n        /* \"#utility.yul\":1170:1288   */\n    tag_19:\n        /* \"#utility.yul\":1257:1281   */\n      tag_40\n        /* \"#utility.yul\":1275:1280   */\n      dup2\n        /* \"#utility.yul\":1257:1281   */\n      tag_16\n      jump\t// in\n    tag_40:\n        /* \"#utility.yul\":1252:1255   */\n      dup3\n        /* \"#utility.yul\":1245:1282   */\n      mstore\n        /* \"#utility.yul\":1170:1288   */\n      pop\n      pop\n      jump\t// out\n        /* \"#utility.yul\":1294:1516   */\n    tag_9:\n        /* \"#utility.yul\":1387:1391   */\n      0x00\n        /* \"#utility.yul\":1425:1427   */\n      0x20\n        /* \"#utility.yul\":1414:1423   */\n      dup3\n        /* \"#utility.yul\":1410:1428   */\n      add\n        /* \"#utility.yul\":1402:1428   */\n      swap1\n      pop\n        /* \"#utility.yul\":1438:1509   */\n      tag_42\n        /* \"#utility.yul\":1506:1507   */\n      0x00\n        /* \"#utility.yul\":1495:1504   */\n      dup4\n        /* \"#utility.yul\":1491:1508   */\n      add\n        /* \"#utility.yul\":1482:1488   */\n      dup5\n        /* \"#utility.yul\":1438:1509   */\n      tag_19\n      jump\t// in\n    tag_42:\n        /* \"#utility.yul\":1294:1516   */\n      swap3\n      swap2\n      pop\n      pop\n      jump\t// out\n        /* \"#utility.yul\":1522:1702   */\n    tag_20:\n        /* \"#utility.yul\":1570:1647   */\n      0x4e487b7100000000000000000000000000000000000000000000000000000000\n        /* \"#utility.yul\":1567:1568   */\n      0x00\n        /* \"#utility.yul\":1560:1648   */\n      mstore\n        /* \"#utility.yul\":1667:1671   */\n      0x11\n        /* \"#utility.yul\":1664:1665   */\n      0x04\n        /* \"#utility.yul\":1657:1672   */\n      mstore\n        /* \"#utility.yul\":1691:1695   */\n      0x24\n        /* \"#utility.yul\":1688:1689   */\n      0x00\n        /* \"#utility.yul\":1681:1696   */\n      revert\n        /* \"#utility.yul\":1708:1810   */\n    tag_21:\n        /* \"#utility.yul\":1750:1758   */\n      0x00\n        /* \"#utility.yul\":1797:1802   */\n      dup2\n        /* \"#utility.yul\":1794:1795   */\n      0x01\n        /* \"#utility.yul\":1790:1803   */\n      shr\n        /* \"#utility.yul\":1769:1803   */\n      swap1\n      pop\n        /* \"#utility.yul\":1708:1810   */\n      swap2\n      swap1\n      pop\n      jump\t// out\n        /* \"#utility.yul\":1816:2664   */\n    tag_22:\n        /* \"#utility.yul\":1877:1882   */\n      0x00\n        /* \"#utility.yul\":1884:1888   */\n      dup1\n        /* \"#utility.yul\":1908:1914   */\n      dup3\n        /* \"#utility.yul\":1899:1914   */\n      swap2\n      pop\n        /* \"#utility.yul\":1932:1937   */\n      dup4\n        /* \"#utility.yul\":1923:1937   */\n      swap1\n      pop\n        /* \"#utility.yul\":1946:2658   */\n    tag_46:\n        /* \"#utility.yul\":1967:1968   */\n      0x01\n        /* \"#utility.yul\":1957:1965   */\n      dup6\n        /* \"#utility.yul\":1954:1969   */\n      gt\n        /* \"#utility.yul\":1946:2658   */\n      iszero\n      tag_48\n      jumpi\n        /* \"#utility.yul\":2062:2066   */\n      dup1\n        /* \"#utility.yul\":2057:2060   */\n      dup7\n        /* \"#utility.yul\":2053:2067   */\n      div\n        /* \"#utility.yul\":2047:2051   */\n      dup2\n        /* \"#utility.yul\":2044:2068   */\n      gt\n        /* \"#utility.yul\":2041:2091   */\n      iszero\n      tag_49\n      jumpi\n        /* \"#utility.yul\":2071:2089   */\n      tag_50\n      tag_20\n      jump\t// in\n    tag_50:\n        /* \"#utility.yul\":2041:2091   */\n    tag_49:\n        /* \"#utility.yul\":2121:2122   */\n      0x01\n        /* \"#utility.yul\":2111:2119   */\n      dup6\n        /* \"#utility.yul\":2107:2123   */\n      and\n        /* \"#utility.yul\":2104:2555   */\n      iszero\n      tag_51\n      jumpi\n        /* \"#utility.yul\":2536:2540   */\n      dup1\n        /* \"#utility.yul\":2529:2534   */\n      dup3\n        /* \"#utility.yul\":2525:2541   */\n      mul\n        /* \"#utility.yul\":2516:2541   */\n      swap2\n      pop\n        /* \"#utility.yul\":2104:2555   */\n    tag_51:\n        /* \"#utility.yul\":2586:2590   */\n      dup1\n        /* \"#utility.yul\":2580:2584   */\n      dup2\n        /* \"#utility.yul\":2576:2591   */\n      mul\n        /* \"#utility.yul\":2568:2591   */\n      swap1\n      pop\n        /* \"#utility.yul\":2616:2648   */\n      tag_52\n        /* \"#utility.yul\":2639:2647   */\n      dup6\n        /* \"#utility.yul\":2616:2648   */\n      tag_21\n      jump\t// in\n    tag_52:\n        /* \"#utility.yul\":2604:2648   */\n      swap5\n      pop\n        /* \"#utility.yul\":1946:2658   */\n      jump(tag_46)\n    tag_48:\n        /* \"#utility.yul\":1816:2664   */\n      swap5\n      pop\n      swap5\n      swap3\n      pop\n      pop\n      pop\n      jump\t// out\n        /* \"#utility.yul\":2670:3743   */\n    tag_23:\n        /* \"#utility.yul\":2724:2729   */\n      0x00\n        /* \"#utility.yul\":2915:2923   */\n      dup3\n        /* \"#utility.yul\":2905:2945   */\n      tag_54\n      jumpi\n        /* \"#utility.yul\":2936:2937   */\n      0x01\n        /* \"#utility.yul\":2927:2937   */\n      swap1\n      pop\n        /* \"#utility.yul\":2938:2943   */\n      jump(tag_53)\n        /* \"#utility.yul\":2905:2945   */\n    tag_54:\n        /* \"#utility.yul\":2964:2968   */\n      dup2\n        /* \"#utility.yul\":2954:2990   */\n      tag_55\n      jumpi\n        /* \"#utility.yul\":2981:2982   */\n      0x00\n        /* \"#utility.yul\":2972:2982   */\n      swap1\n      pop\n        /* \"#utility.yul\":2983:2988   */\n      jump(tag_53)\n        /* \"#utility.yul\":2954:2990   */\n    tag_55:\n        /* \"#utility.yul\":3050:3054   */\n      dup2\n        /* \"#utility.yul\":3098:3099   */\n      0x01\n        /* \"#utility.yul\":3093:3120   */\n      dup2\n      eq\n      tag_57\n      jumpi\n        /* \"#utility.yul\":3134:3135   */\n      0x02\n        /* \"#utility.yul\":3129:3320   */\n      dup2\n      eq\n      tag_58\n      jumpi\n        /* \"#utility.yul\":3043:3320   */\n      jump(tag_56)\n        /* \"#utility.yul\":3093:3120   */\n    tag_57:\n        /* \"#utility.yul\":3111:3112   */\n      0x01\n        /* \"#utility.yul\":3102:3112   */\n      swap2\n      pop\n        /* \"#utility.yul\":3113:3118   */\n      pop\n      jump(tag_53)\n        /* \"#utility.yul\":3129:3320   */\n    tag_58:\n        /* \"#utility.yul\":3174:3177   */\n      0xff\n        /* \"#utility.yul\":3164:3172   */\n      dup5\n        /* \"#utility.yul\":3161:3178   */\n      gt\n        /* \"#utility.yul\":3158:3201   */\n      iszero\n      tag_59\n      jumpi\n        /* \"#utility.yul\":3181:3199   */\n      tag_60\n      tag_20\n      jump\t// in\n    tag_60:\n        /* \"#utility.yul\":3158:3201   */\n    tag_59:\n        /* \"#utility.yul\":3230:3238   */\n      dup4\n        /* \"#utility.yul\":3227:3228   */\n      0x02\n        /* \"#utility.yul\":3223:3239   */\n      exp\n        /* \"#utility.yul\":3214:3239   */\n      swap2\n      pop\n        /* \"#utility.yul\":3265:3268   */\n      dup5\n        /* \"#utility.yul\":3258:3263   */\n      dup3\n        /* \"#utility.yul\":3255:3269   */\n      gt\n        /* \"#utility.yul\":3252:3292   */\n      iszero\n      tag_61\n      jumpi\n        /* \"#utility.yul\":3272:3290   */\n      tag_62\n      tag_20\n      jump\t// in\n    tag_62:\n        /* \"#utility.yul\":3252:3292   */\n    tag_61:\n        /* \"#utility.yul\":3305:3310   */\n      pop\n      jump(tag_53)\n        /* \"#utility.yul\":3043:3320   */\n    tag_56:\n      pop\n        /* \"#utility.yul\":3429:3431   */\n      0x20\n        /* \"#utility.yul\":3419:3427   */\n      dup4\n        /* \"#utility.yul\":3416:3432   */\n      lt\n        /* \"#utility.yul\":3410:3413   */\n      0x0133\n        /* \"#utility.yul\":3404:3408   */\n      dup4\n        /* \"#utility.yul\":3401:3414   */\n      lt\n        /* \"#utility.yul\":3397:3433   */\n      and\n        /* \"#utility.yul\":3379:3381   */\n      0x4e\n        /* \"#utility.yul\":3369:3377   */\n      dup5\n        /* \"#utility.yul\":3366:3382   */\n      lt\n        /* \"#utility.yul\":3361:3363   */\n      0x0b\n        /* \"#utility.yul\":3355:3359   */\n      dup5\n        /* \"#utility.yul\":3352:3364   */\n      lt\n        /* \"#utility.yul\":3348:3383   */\n      and\n        /* \"#utility.yul\":3332:3443   */\n      or\n        /* \"#utility.yul\":3329:3575   */\n      iszero\n      tag_63\n      jumpi\n        /* \"#utility.yul\":3485:3493   */\n      dup3\n        /* \"#utility.yul\":3479:3483   */\n      dup3\n        /* \"#utility.yul\":3475:3494   */\n      exp\n        /* \"#utility.yul\":3466:3494   */\n      swap1\n      pop\n        /* \"#utility.yul\":3520:3523   */\n      dup4\n        /* \"#utility.yul\":3513:3518   */\n      dup2\n        /* \"#utility.yul\":3510:3524   */\n      gt\n        /* \"#utility.yul\":3507:3547   */\n      iszero\n      tag_64\n      jumpi\n        /* \"#utility.yul\":3527:3545   */\n      tag_65\n      tag_20\n      jump\t// in\n    tag_65:\n        /* \"#utility.yul\":3507:3547   */\n    tag_64:\n        /* \"#utility.yul\":3560:3565   */\n      jump(tag_53)\n        /* \"#utility.yul\":3329:3575   */\n    tag_63:\n        /* \"#utility.yul\":3600:3642   */\n      tag_66\n        /* \"#utility.yul\":3638:3641   */\n      dup5\n        /* \"#utility.yul\":3628:3636   */\n      dup5\n        /* \"#utility.yul\":3622:3626   */\n      dup5\n        /* \"#utility.yul\":3619:3620   */\n      0x01\n        /* \"#utility.yul\":3600:3642   */\n      tag_22\n      jump\t// in\n    tag_66:\n        /* \"#utility.yul\":3585:3642   */\n      swap3\n      pop\n      swap1\n      pop\n        /* \"#utility.yul\":3674:3678   */\n      dup2\n        /* \"#utility.yul\":3669:3672   */\n      dup5\n        /* \"#utility.yul\":3665:3679   */\n      div\n        /* \"#utility.yul\":3658:3663   */\n      dup2\n        /* \"#utility.yul\":3655:3680   */\n      gt\n        /* \"#utility.yul\":3652:3703   */\n      iszero\n      tag_67\n      jumpi\n        /* \"#utility.yul\":3683:3701   */\n      tag_68\n      tag_20\n      jump\t// in\n    tag_68:\n        /* \"#utility.yul\":3652:3703   */\n    tag_67:\n        /* \"#utility.yul\":3732:3736   */\n      dup2\n        /* \"#utility.yul\":3725:3730   */\n      dup2\n        /* \"#utility.yul\":3721:3737   */\n      mul\n        /* \"#utility.yul\":3712:3737   */\n      swap1\n      pop\n        /* \"#utility.yul\":2670:3743   */\n    tag_53:\n      swap4\n      swap3\n      pop\n      pop\n      pop\n      jump\t// out\n        /* \"#utility.yul\":3749:4034   */\n    tag_12:\n        /* \"#utility.yul\":3809:3814   */\n      0x00\n        /* \"#utility.yul\":3833:3856   */\n      tag_70\n        /* \"#utility.yul\":3851:3855   */\n      dup3\n        /* \"#utility.yul\":3833:3856   */\n      tag_16\n      jump\t// in\n    tag_70:\n        /* \"#utility.yul\":3825:3856   */\n      swap2\n      pop\n        /* \"#utility.yul\":3877:3904   */\n      tag_71\n        /* \"#utility.yul\":3895:3903   */\n      dup4\n        /* \"#utility.yul\":3877:3904   */\n      tag_16\n      jump\t// in\n    tag_71:\n        /* \"#utility.yul\":3865:3904   */\n      swap3\n      pop\n        /* \"#utility.yul\":3923:4027   */\n      tag_72\n        /* \"#utility.yul\":3960:4026   */\n      0xffffffffffffffffffffffffffffffffffffffffffffffffffffffffffffffff\n        /* \"#utility.yul\":3950:3958   */\n      dup5\n        /* \"#utility.yul\":3944:3948   */\n      dup5\n        /* \"#utility.yul\":3923:4027   */\n      tag_23\n      jump\t// in\n    tag_72:\n        /* \"#utility.yul\":3914:4027   */\n      swap1\n      pop\n        /* \"#utility.yul\":3749:4034   */\n      swap3\n      swap2\n      pop\n      pop\n      jump\t// out\n\n    auxdata: 0xa2646970667358221220714477ff11a2afa3f5c19e949484b6271b11d5c870e720ef2454d8e2b0f4efb064736f6c63430008190033\n}\n",
				"bytecode": {
					"linkReferences": {},
					"object": "6080604052348015600e575f80fd5b506102eb8061001c5f395ff3fe608060405234801561000f575f80fd5b5060043610610029575f3560e01c80636685f1df1461002d575b5f80fd5b610047600480360381019061004291906100a9565b61005d565b60405161005491906100f6565b60405180910390f35b5f818361006a919061026b565b905092915050565b5f80fd5b5f819050919050565b61008881610076565b8114610092575f80fd5b50565b5f813590506100a38161007f565b92915050565b5f80604083850312156100bf576100be610072565b5b5f6100cc85828601610095565b92505060206100dd85828601610095565b9150509250929050565b6100f081610076565b82525050565b5f6020820190506101095f8301846100e7565b92915050565b7f4e487b71000000000000000000000000000000000000000000000000000000005f52601160045260245ffd5b5f8160011c9050919050565b5f808291508390505b60018511156101915780860481111561016d5761016c61010f565b5b600185161561017c5780820291505b808102905061018a8561013c565b9450610151565b94509492505050565b5f826101a95760019050610264565b816101b6575f9050610264565b81600181146101cc57600281146101d657610205565b6001915050610264565b60ff8411156101e8576101e761010f565b5b8360020a9150848211156101ff576101fe61010f565b5b50610264565b5060208310610133831016604e8410600b841016171561023a5782820a9050838111156102355761023461010f565b5b610264565b6102478484846001610148565b9250905081840481111561025e5761025d61010f565b5b81810290505b9392505050565b5f61027582610076565b915061028083610076565b92506102ad7fffffffffffffffffffffffffffffffffffffffffffffffffffffffffffffffff848461019a565b90509291505056fea2646970667358221220714477ff11a2afa3f5c19e949484b6271b11d5c870e720ef2454d8e2b0f4efb064736f6c63430008190033",
					"opcodes": "PUSH1 0x80 PUSH1 0x40 MSTORE CALLVALUE DUP1 ISZERO PUSH1 0xE JUMPI PUSH0 DUP1 REVERT JUMPDEST POP PUSH2 0x2EB DUP1 PUSH2 0x1C PUSH0 CODECOPY PUSH0 RETURN INVALID PUSH1 0x80 PUSH1 0x40 MSTORE CALLVALUE DUP1 ISZERO PUSH2 0xF JUMPI PUSH0 DUP1 REVERT JUMPDEST POP PUSH1 0x4 CALLDATASIZE LT PUSH2 0x29 JUMPI PUSH0 CALLDATALOAD PUSH1 0xE0 SHR DUP1 PUSH4 0x6685F1DF EQ PUSH2 0x2D JUMPI JUMPDEST PUSH0 DUP1 REVERT JUMPDEST PUSH2 0x47 PUSH1 0x4 DUP1 CALLDATASIZE SUB DUP2 ADD SWAP1 PUSH2 0x42 SWAP2 SWAP1 PUSH2 0xA9 JUMP JUMPDEST PUSH2 0x5D JUMP JUMPDEST PUSH1 0x40 MLOAD PUSH2 0x54 SWAP2 SWAP1 PUSH2 0xF6 JUMP JUMPDEST PUSH1 0x40 MLOAD DUP1 SWAP2 SUB SWAP1 RETURN JUMPDEST PUSH0 DUP2 DUP4 PUSH2 0x6A SWAP2 SWAP1 PUSH2 0x26B JUMP JUMPDEST SWAP1 POP SWAP3 SWAP2 POP POP JUMP JUMPDEST PUSH0 DUP1 REVERT JUMPDEST PUSH0 DUP2 SWAP1 POP SWAP2 SWAP1 POP JUMP JUMPDEST PUSH2 0x88 DUP2 PUSH2 0x76 JUMP JUMPDEST DUP2 EQ PUSH2 0x92 JUMPI PUSH0 DUP1 REVERT JUMPDEST POP JUMP JUMPDEST PUSH0 DUP2 CALLDATALOAD SWAP1 POP PUSH2 0xA3 DUP2 PUSH2 0x7F JUMP JUMPDEST SWAP3 SWAP2 POP POP JUMP JUMPDEST PUSH0 DUP1 PUSH1 0x40 DUP4 DUP6 SUB SLT ISZERO PUSH2 0xBF JUMPI PUSH2 0xBE PUSH2 0x72 JUMP JUMPDEST JUMPDEST PUSH0 PUSH2 0xCC DUP6 DUP3 DUP7 ADD PUSH2 0x95 JUMP JUMPDEST SWAP3 POP POP PUSH1 0x20 PUSH2 0xDD DUP6 DUP3 DUP7 ADD PUSH2 0x95 JUMP JUMPDEST SWAP2 POP POP SWAP3 POP SWAP3 SWAP1 POP JUMP JUMPDEST PUSH2 0xF0 DUP2 PUSH2 0x76 JUMP JUMPDEST DUP3 MSTORE POP POP JUMP JUMPDEST PUSH0 PUSH1 0x20 DUP3 ADD SWAP1 POP PUSH2 0x109 PUSH0 DUP4 ADD DUP5 PUSH2 0xE7 JUMP JUMPDEST SWAP3 SWAP2 POP POP JUMP JUMPDEST PUSH32 0x4E487B7100000000000000000000000000000000000000000000000000000000 PUSH0 MSTORE PUSH1 0x11 PUSH1 0x4 MSTORE PUSH1 0x24 PUSH0 REVERT JUMPDEST PUSH0 DUP2 PUSH1 0x1 SHR SWAP1 POP SWAP2 SWAP1 POP JUMP JUMPDEST PUSH0 DUP1 DUP3 SWAP2 POP DUP4 SWAP1 POP JUMPDEST PUSH1 0x1 DUP6 GT ISZERO PUSH2 0x191 JUMPI DUP1 DUP7 DIV DUP2 GT ISZERO PUSH2 0x16D JUMPI PUSH2 0x16C PUSH2 0x10F JUMP JUMPDEST JUMPDEST PUSH1 0x1 DUP6 AND ISZERO PUSH2 0x17C JUMPI DUP1 DUP3 MUL SWAP2 POP JUMPDEST DUP1 DUP2 MUL SWAP1 POP PUSH2 0x18A DUP6 PUSH2 0x13C JUMP JUMPDEST SWAP5 POP PUSH2 0x151 JUMP JUMPDEST SWAP5 POP SWAP5 SWAP3 POP POP POP JUMP JUMPDEST PUSH0 DUP3 PUSH2 0x1A9 JUMPI PUSH1 0x1 SWAP1 POP PUSH2 0x264 JUMP JUMPDEST DUP2 PUSH2 0x1B6 JUMPI PUSH0 SWAP1 POP PUSH2 0x264 JUMP JUMPDEST DUP2 PUSH1 0x1 DUP2 EQ PUSH2 0x1CC JUMPI PUSH1 0x2 DUP2 EQ PUSH2 0x1D6 JUMPI PUSH2 0x205 JUMP JUMPDEST PUSH1 0x1 SWAP2 POP POP PUSH2 0x264 JUMP JUMPDEST PUSH1 0xFF DUP5 GT ISZERO PUSH2 0x1E8 JUMPI PUSH2 0x1E7 PUSH2 0x10F JUMP JUMPDEST JUMPDEST DUP4 PUSH1 0x2 EXP SWAP2 POP DUP5 DUP3 GT ISZERO PUSH2 0x1FF JUMPI PUSH2 0x1FE PUSH2 0x10F JUMP JUMPDEST JUMPDEST POP PUSH2 0x264 JUMP JUMPDEST POP PUSH1 0x20 DUP4 LT PUSH2 0x133 DUP4 LT AND PUSH1 0x4E DUP5 LT PUSH1 0xB DUP5 LT AND OR ISZERO PUSH2 0x23A JUMPI DUP3 DUP3 EXP SWAP1 POP DUP4 DUP2 GT ISZERO PUSH2 0x235 JUMPI PUSH2 0x234 PUSH2 0x10F JUMP JUMPDEST JUMPDEST PUSH2 0x264 JUMP JUMPDEST PUSH2 0x247 DUP5 DUP5 DUP5 PUSH1 0x1 PUSH2 0x148 JUMP JUMPDEST SWAP3 POP SWAP1 POP DUP2 DUP5 DIV DUP2 GT ISZERO PUSH2 0x25E JUMPI PUSH2 0x25D PUSH2 0x10F JUMP JUMPDEST JUMPDEST DUP2 DUP2 MUL SWAP1 POP JUMPDEST SWAP4 SWAP3 POP POP POP JUMP JUMPDEST PUSH0 PUSH2 0x275 DUP3 PUSH2 0x76 JUMP JUMPDEST SWAP2 POP PUSH2 0x280 DUP4 PUSH2 0x76 JUMP JUMPDEST SWAP3 POP PUSH2 0x2AD PUSH32 0xFFFFFFFFFFFFFFFFFFFFFFFFFFFFFFFFFFFFFFFFFFFFFFFFFFFFFFFFFFFFFFFF DUP5 DUP5 PUSH2 0x19A JUMP JUMPDEST SWAP1 POP SWAP3 SWAP2 POP POP JUMP INVALID LOG2 PUSH5 0x6970667358 0x22 SLT KECCAK256 PUSH18 0x4477FF11A2AFA3F5C19E949484B6271B11D5 0xC8 PUSH17 0xE720EF2454D8E2B0F4EFB064736F6C6343 STOP ADDMOD NOT STOP CALLER "
				},
				"gasEstimates": {
					"creation": {
						"codeDepositCost": "149400",
						"executionCost": "194",
						"totalCost": "149594"
					},
					"external": {
						"squareB(uint256,uint256)": "infinite"
					}
				},
				"methodIdentifiers": {
					"squareB(uint256,uint256)": "6685f1df"
				}
			},
			"storageLayout": {
				"storage": [],
				"types": null
			},
			"userdoc": {
				"kind": "user",
				"methods": {},
				"version": 1
			}
		}
	}
}