{
	"solidity_100/71-80.sol": {
		"Q71": {
			"abi": [
				{
					"inputs": [
						{
							"internalType": "uint256",
							"name": "_a",
							"type": "uint256"
						}
					],
					"name": "setA",
					"outputs": [
						{
							"internalType": "uint256",
							"name": "",
							"type": "uint256"
						}
					],
					"stateMutability": "nonpayable",
					"type": "function"
				}
			],
			"devdoc": {
				"kind": "dev",
				"methods": {},
				"version": 1
			},
			"evm": {
				"assembly": "    /* \"solidity_100/71-80.sol\":130:602  contract Q71 {... */\n  mstore(0x40, 0x80)\n  callvalue\n  dup1\n  iszero\n  tag_1\n  jumpi\n  0x00\n  dup1\n  revert\ntag_1:\n  pop\n  dataSize(sub_0)\n  dup1\n  dataOffset(sub_0)\n  0x00\n  codecopy\n  0x00\n  return\nstop\n\nsub_0: assembly {\n        /* \"solidity_100/71-80.sol\":130:602  contract Q71 {... */\n      mstore(0x40, 0x80)\n      callvalue\n      dup1\n      iszero\n      tag_1\n      jumpi\n      0x00\n      dup1\n      revert\n    tag_1:\n      pop\n      jumpi(tag_2, lt(calldatasize, 0x04))\n      shr(0xe0, calldataload(0x00))\n      dup1\n      0xee919d50\n      eq\n      tag_3\n      jumpi\n    tag_2:\n      0x00\n      dup1\n      revert\n        /* \"solidity_100/71-80.sol\":397:599  function setA(uint _a) public returns(uint){... */\n    tag_3:\n      tag_4\n      0x04\n      dup1\n      calldatasize\n      sub\n      dup2\n      add\n      swap1\n      tag_5\n      swap2\n      swap1\n      tag_6\n      jump\t// in\n    tag_5:\n      tag_7\n      jump\t// in\n    tag_4:\n      mload(0x40)\n      tag_8\n      swap2\n      swap1\n      tag_9\n      jump\t// in\n    tag_8:\n      mload(0x40)\n      dup1\n      swap2\n      sub\n      swap1\n      return\n    tag_7:\n        /* \"solidity_100/71-80.sol\":435:439  uint */\n      0x00\n        /* \"solidity_100/71-80.sol\":485:488  600 */\n      0x0258\n        /* \"solidity_100/71-80.sol\":475:482  setTime */\n      sload(0x01)\n        /* \"solidity_100/71-80.sol\":459:474  block.timestamp */\n      timestamp\n        /* \"solidity_100/71-80.sol\":459:482  block.timestamp-setTime */\n      tag_11\n      swap2\n      swap1\n      tag_12\n      jump\t// in\n    tag_11:\n        /* \"solidity_100/71-80.sol\":459:488  block.timestamp-setTime > 600 */\n      gt\n        /* \"solidity_100/71-80.sol\":451:513  require(block.timestamp-setTime > 600, \"wait for 10 minutes.\") */\n      tag_13\n      jumpi\n      mload(0x40)\n      0x08c379a000000000000000000000000000000000000000000000000000000000\n      dup2\n      mstore\n      0x04\n      add\n      tag_14\n      swap1\n      tag_15\n      jump\t// in\n    tag_14:\n      mload(0x40)\n      dup1\n      swap2\n      sub\n      swap1\n      revert\n    tag_13:\n        /* \"solidity_100/71-80.sol\":528:530  _a */\n      dup2\n        /* \"solidity_100/71-80.sol\":524:525  a */\n      0x00\n        /* \"solidity_100/71-80.sol\":524:530  a = _a */\n      dup2\n      swap1\n      sstore\n      pop\n        /* \"solidity_100/71-80.sol\":551:566  block.timestamp */\n      timestamp\n        /* \"solidity_100/71-80.sol\":541:548  setTime */\n      0x01\n        /* \"solidity_100/71-80.sol\":541:566  setTime = block.timestamp */\n      dup2\n      swap1\n      sstore\n      pop\n        /* \"solidity_100/71-80.sol\":584:591  setTime */\n      sload(0x01)\n        /* \"solidity_100/71-80.sol\":577:591  return setTime */\n      swap1\n      pop\n        /* \"solidity_100/71-80.sol\":397:599  function setA(uint _a) public returns(uint){... */\n      swap2\n      swap1\n      pop\n      jump\t// out\n        /* \"#utility.yul\":88:205   */\n    tag_17:\n        /* \"#utility.yul\":197:198   */\n      0x00\n        /* \"#utility.yul\":194:195   */\n      dup1\n        /* \"#utility.yul\":187:199   */\n      revert\n        /* \"#utility.yul\":334:411   */\n    tag_19:\n        /* \"#utility.yul\":371:378   */\n      0x00\n        /* \"#utility.yul\":400:405   */\n      dup2\n        /* \"#utility.yul\":389:405   */\n      swap1\n      pop\n        /* \"#utility.yul\":334:411   */\n      swap2\n      swap1\n      pop\n      jump\t// out\n        /* \"#utility.yul\":417:539   */\n    tag_20:\n        /* \"#utility.yul\":490:514   */\n      tag_33\n        /* \"#utility.yul\":508:513   */\n      dup2\n        /* \"#utility.yul\":490:514   */\n      tag_19\n      jump\t// in\n    tag_33:\n        /* \"#utility.yul\":483:488   */\n      dup2\n        /* \"#utility.yul\":480:515   */\n      eq\n        /* \"#utility.yul\":470:533   */\n      tag_34\n      jumpi\n        /* \"#utility.yul\":529:530   */\n      0x00\n        /* \"#utility.yul\":526:527   */\n      dup1\n        /* \"#utility.yul\":519:531   */\n      revert\n        /* \"#utility.yul\":470:533   */\n    tag_34:\n        /* \"#utility.yul\":417:539   */\n      pop\n      jump\t// out\n        /* \"#utility.yul\":545:684   */\n    tag_21:\n        /* \"#utility.yul\":591:596   */\n      0x00\n        /* \"#utility.yul\":629:635   */\n      dup2\n        /* \"#utility.yul\":616:636   */\n      calldataload\n        /* \"#utility.yul\":607:636   */\n      swap1\n      pop\n        /* \"#utility.yul\":645:678   */\n      tag_36\n        /* \"#utility.yul\":672:677   */\n      dup2\n        /* \"#utility.yul\":645:678   */\n      tag_20\n      jump\t// in\n    tag_36:\n        /* \"#utility.yul\":545:684   */\n      swap3\n      swap2\n      pop\n      pop\n      jump\t// out\n        /* \"#utility.yul\":690:1019   */\n    tag_6:\n        /* \"#utility.yul\":749:755   */\n      0x00\n        /* \"#utility.yul\":798:800   */\n      0x20\n        /* \"#utility.yul\":786:795   */\n      dup3\n        /* \"#utility.yul\":777:784   */\n      dup5\n        /* \"#utility.yul\":773:796   */\n      sub\n        /* \"#utility.yul\":769:801   */\n      slt\n        /* \"#utility.yul\":766:885   */\n      iszero\n      tag_38\n      jumpi\n        /* \"#utility.yul\":804:883   */\n      tag_39\n      tag_17\n      jump\t// in\n    tag_39:\n        /* \"#utility.yul\":766:885   */\n    tag_38:\n        /* \"#utility.yul\":924:925   */\n      0x00\n        /* \"#utility.yul\":949:1002   */\n      tag_40\n        /* \"#utility.yul\":994:1001   */\n      dup5\n        /* \"#utility.yul\":985:991   */\n      dup3\n        /* \"#utility.yul\":974:983   */\n      dup6\n        /* \"#utility.yul\":970:992   */\n      add\n        /* \"#utility.yul\":949:1002   */\n      tag_21\n      jump\t// in\n    tag_40:\n        /* \"#utility.yul\":939:1002   */\n      swap2\n      pop\n        /* \"#utility.yul\":895:1012   */\n      pop\n        /* \"#utility.yul\":690:1019   */\n      swap3\n      swap2\n      pop\n      pop\n      jump\t// out\n        /* \"#utility.yul\":1025:1143   */\n    tag_22:\n        /* \"#utility.yul\":1112:1136   */\n      tag_42\n        /* \"#utility.yul\":1130:1135   */\n      dup2\n        /* \"#utility.yul\":1112:1136   */\n      tag_19\n      jump\t// in\n    tag_42:\n        /* \"#utility.yul\":1107:1110   */\n      dup3\n        /* \"#utility.yul\":1100:1137   */\n      mstore\n        /* \"#utility.yul\":1025:1143   */\n      pop\n      pop\n      jump\t// out\n        /* \"#utility.yul\":1149:1371   */\n    tag_9:\n        /* \"#utility.yul\":1242:1246   */\n      0x00\n        /* \"#utility.yul\":1280:1282   */\n      0x20\n        /* \"#utility.yul\":1269:1278   */\n      dup3\n        /* \"#utility.yul\":1265:1283   */\n      add\n        /* \"#utility.yul\":1257:1283   */\n      swap1\n      pop\n        /* \"#utility.yul\":1293:1364   */\n      tag_44\n        /* \"#utility.yul\":1361:1362   */\n      0x00\n        /* \"#utility.yul\":1350:1359   */\n      dup4\n        /* \"#utility.yul\":1346:1363   */\n      add\n        /* \"#utility.yul\":1337:1343   */\n      dup5\n        /* \"#utility.yul\":1293:1364   */\n      tag_22\n      jump\t// in\n    tag_44:\n        /* \"#utility.yul\":1149:1371   */\n      swap3\n      swap2\n      pop\n      pop\n      jump\t// out\n        /* \"#utility.yul\":1377:1557   */\n    tag_23:\n        /* \"#utility.yul\":1425:1502   */\n      0x4e487b7100000000000000000000000000000000000000000000000000000000\n        /* \"#utility.yul\":1422:1423   */\n      0x00\n        /* \"#utility.yul\":1415:1503   */\n      mstore\n        /* \"#utility.yul\":1522:1526   */\n      0x11\n        /* \"#utility.yul\":1519:1520   */\n      0x04\n        /* \"#utility.yul\":1512:1527   */\n      mstore\n        /* \"#utility.yul\":1546:1550   */\n      0x24\n        /* \"#utility.yul\":1543:1544   */\n      0x00\n        /* \"#utility.yul\":1536:1551   */\n      revert\n        /* \"#utility.yul\":1563:1757   */\n    tag_12:\n        /* \"#utility.yul\":1603:1607   */\n      0x00\n        /* \"#utility.yul\":1623:1643   */\n      tag_47\n        /* \"#utility.yul\":1641:1642   */\n      dup3\n        /* \"#utility.yul\":1623:1643   */\n      tag_19\n      jump\t// in\n    tag_47:\n        /* \"#utility.yul\":1618:1643   */\n      swap2\n      pop\n        /* \"#utility.yul\":1657:1677   */\n      tag_48\n        /* \"#utility.yul\":1675:1676   */\n      dup4\n        /* \"#utility.yul\":1657:1677   */\n      tag_19\n      jump\t// in\n    tag_48:\n        /* \"#utility.yul\":1652:1677   */\n      swap3\n      pop\n        /* \"#utility.yul\":1701:1702   */\n      dup3\n        /* \"#utility.yul\":1698:1699   */\n      dup3\n        /* \"#utility.yul\":1694:1703   */\n      sub\n        /* \"#utility.yul\":1686:1703   */\n      swap1\n      pop\n        /* \"#utility.yul\":1725:1726   */\n      dup2\n        /* \"#utility.yul\":1719:1723   */\n      dup2\n        /* \"#utility.yul\":1716:1727   */\n      gt\n        /* \"#utility.yul\":1713:1750   */\n      iszero\n      tag_49\n      jumpi\n        /* \"#utility.yul\":1730:1748   */\n      tag_50\n      tag_23\n      jump\t// in\n    tag_50:\n        /* \"#utility.yul\":1713:1750   */\n    tag_49:\n        /* \"#utility.yul\":1563:1757   */\n      swap3\n      swap2\n      pop\n      pop\n      jump\t// out\n        /* \"#utility.yul\":1763:1932   */\n    tag_24:\n        /* \"#utility.yul\":1847:1858   */\n      0x00\n        /* \"#utility.yul\":1881:1887   */\n      dup3\n        /* \"#utility.yul\":1876:1879   */\n      dup3\n        /* \"#utility.yul\":1869:1888   */\n      mstore\n        /* \"#utility.yul\":1921:1925   */\n      0x20\n        /* \"#utility.yul\":1916:1919   */\n      dup3\n        /* \"#utility.yul\":1912:1926   */\n      add\n        /* \"#utility.yul\":1897:1926   */\n      swap1\n      pop\n        /* \"#utility.yul\":1763:1932   */\n      swap3\n      swap2\n      pop\n      pop\n      jump\t// out\n        /* \"#utility.yul\":1938:2108   */\n    tag_25:\n        /* \"#utility.yul\":2078:2100   */\n      0x7761697420666f72203130206d696e757465732e000000000000000000000000\n        /* \"#utility.yul\":2074:2075   */\n      0x00\n        /* \"#utility.yul\":2066:2072   */\n      dup3\n        /* \"#utility.yul\":2062:2076   */\n      add\n        /* \"#utility.yul\":2055:2101   */\n      mstore\n        /* \"#utility.yul\":1938:2108   */\n      pop\n      jump\t// out\n        /* \"#utility.yul\":2114:2480   */\n    tag_26:\n        /* \"#utility.yul\":2256:2259   */\n      0x00\n        /* \"#utility.yul\":2277:2344   */\n      tag_54\n        /* \"#utility.yul\":2341:2343   */\n      0x14\n        /* \"#utility.yul\":2336:2339   */\n      dup4\n        /* \"#utility.yul\":2277:2344   */\n      tag_24\n      jump\t// in\n    tag_54:\n        /* \"#utility.yul\":2270:2344   */\n      swap2\n      pop\n        /* \"#utility.yul\":2353:2446   */\n      tag_55\n        /* \"#utility.yul\":2442:2445   */\n      dup3\n        /* \"#utility.yul\":2353:2446   */\n      tag_25\n      jump\t// in\n    tag_55:\n        /* \"#utility.yul\":2471:2473   */\n      0x20\n        /* \"#utility.yul\":2466:2469   */\n      dup3\n        /* \"#utility.yul\":2462:2474   */\n      add\n        /* \"#utility.yul\":2455:2474   */\n      swap1\n      pop\n        /* \"#utility.yul\":2114:2480   */\n      swap2\n      swap1\n      pop\n      jump\t// out\n        /* \"#utility.yul\":2486:2905   */\n    tag_15:\n        /* \"#utility.yul\":2652:2656   */\n      0x00\n        /* \"#utility.yul\":2690:2692   */\n      0x20\n        /* \"#utility.yul\":2679:2688   */\n      dup3\n        /* \"#utility.yul\":2675:2693   */\n      add\n        /* \"#utility.yul\":2667:2693   */\n      swap1\n      pop\n        /* \"#utility.yul\":2739:2748   */\n      dup2\n        /* \"#utility.yul\":2733:2737   */\n      dup2\n        /* \"#utility.yul\":2729:2749   */\n      sub\n        /* \"#utility.yul\":2725:2726   */\n      0x00\n        /* \"#utility.yul\":2714:2723   */\n      dup4\n        /* \"#utility.yul\":2710:2727   */\n      add\n        /* \"#utility.yul\":2703:2750   */\n      mstore\n        /* \"#utility.yul\":2767:2898   */\n      tag_57\n        /* \"#utility.yul\":2893:2897   */\n      dup2\n        /* \"#utility.yul\":2767:2898   */\n      tag_26\n      jump\t// in\n    tag_57:\n        /* \"#utility.yul\":2759:2898   */\n      swap1\n      pop\n        /* \"#utility.yul\":2486:2905   */\n      swap2\n      swap1\n      pop\n      jump\t// out\n\n    auxdata: 0xa264697066735822122061a29627d68a369a55cdd8f33265ead998b94b468020888bc56615a389b4f28364736f6c63430008190033\n}\n",
				"bytecode": {
					"linkReferences": {},
					"object": "6080604052348015600e575f80fd5b5061025e8061001c5f395ff3fe608060405234801561000f575f80fd5b5060043610610029575f3560e01c8063ee919d501461002d575b5f80fd5b610047600480360381019061004291906100fd565b61005d565b6040516100549190610137565b60405180910390f35b5f6102586001544261006f919061017d565b116100af576040517f08c379a00000000000000000000000000000000000000000000000000000000081526004016100a69061020a565b60405180910390fd5b815f81905550426001819055506001549050919050565b5f80fd5b5f819050919050565b6100dc816100ca565b81146100e6575f80fd5b50565b5f813590506100f7816100d3565b92915050565b5f60208284031215610112576101116100c6565b5b5f61011f848285016100e9565b91505092915050565b610131816100ca565b82525050565b5f60208201905061014a5f830184610128565b92915050565b7f4e487b71000000000000000000000000000000000000000000000000000000005f52601160045260245ffd5b5f610187826100ca565b9150610192836100ca565b92508282039050818111156101aa576101a9610150565b5b92915050565b5f82825260208201905092915050565b7f7761697420666f72203130206d696e757465732e0000000000000000000000005f82015250565b5f6101f46014836101b0565b91506101ff826101c0565b602082019050919050565b5f6020820190508181035f830152610221816101e8565b905091905056fea264697066735822122061a29627d68a369a55cdd8f33265ead998b94b468020888bc56615a389b4f28364736f6c63430008190033",
					"opcodes": "PUSH1 0x80 PUSH1 0x40 MSTORE CALLVALUE DUP1 ISZERO PUSH1 0xE JUMPI PUSH0 DUP1 REVERT JUMPDEST POP PUSH2 0x25E DUP1 PUSH2 0x1C PUSH0 CODECOPY PUSH0 RETURN INVALID PUSH1 0x80 PUSH1 0x40 MSTORE CALLVALUE DUP1 ISZERO PUSH2 0xF JUMPI PUSH0 DUP1 REVERT JUMPDEST POP PUSH1 0x4 CALLDATASIZE LT PUSH2 0x29 JUMPI PUSH0 CALLDATALOAD PUSH1 0xE0 SHR DUP1 PUSH4 0xEE919D50 EQ PUSH2 0x2D JUMPI JUMPDEST PUSH0 DUP1 REVERT JUMPDEST PUSH2 0x47 PUSH1 0x4 DUP1 CALLDATASIZE SUB DUP2 ADD SWAP1 PUSH2 0x42 SWAP2 SWAP1 PUSH2 0xFD JUMP JUMPDEST PUSH2 0x5D JUMP JUMPDEST PUSH1 0x40 MLOAD PUSH2 0x54 SWAP2 SWAP1 PUSH2 0x137 JUMP JUMPDEST PUSH1 0x40 MLOAD DUP1 SWAP2 SUB SWAP1 RETURN JUMPDEST PUSH0 PUSH2 0x258 PUSH1 0x1 SLOAD TIMESTAMP PUSH2 0x6F SWAP2 SWAP1 PUSH2 0x17D JUMP JUMPDEST GT PUSH2 0xAF JUMPI PUSH1 0x40 MLOAD PUSH32 0x8C379A000000000000000000000000000000000000000000000000000000000 DUP2 MSTORE PUSH1 0x4 ADD PUSH2 0xA6 SWAP1 PUSH2 0x20A JUMP JUMPDEST PUSH1 0x40 MLOAD DUP1 SWAP2 SUB SWAP1 REVERT JUMPDEST DUP2 PUSH0 DUP2 SWAP1 SSTORE POP TIMESTAMP PUSH1 0x1 DUP2 SWAP1 SSTORE POP PUSH1 0x1 SLOAD SWAP1 POP SWAP2 SWAP1 POP JUMP JUMPDEST PUSH0 DUP1 REVERT JUMPDEST PUSH0 DUP2 SWAP1 POP SWAP2 SWAP1 POP JUMP JUMPDEST PUSH2 0xDC DUP2 PUSH2 0xCA JUMP JUMPDEST DUP2 EQ PUSH2 0xE6 JUMPI PUSH0 DUP1 REVERT JUMPDEST POP JUMP JUMPDEST PUSH0 DUP2 CALLDATALOAD SWAP1 POP PUSH2 0xF7 DUP2 PUSH2 0xD3 JUMP JUMPDEST SWAP3 SWAP2 POP POP JUMP JUMPDEST PUSH0 PUSH1 0x20 DUP3 DUP5 SUB SLT ISZERO PUSH2 0x112 JUMPI PUSH2 0x111 PUSH2 0xC6 JUMP JUMPDEST JUMPDEST PUSH0 PUSH2 0x11F DUP5 DUP3 DUP6 ADD PUSH2 0xE9 JUMP JUMPDEST SWAP2 POP POP SWAP3 SWAP2 POP POP JUMP JUMPDEST PUSH2 0x131 DUP2 PUSH2 0xCA JUMP JUMPDEST DUP3 MSTORE POP POP JUMP JUMPDEST PUSH0 PUSH1 0x20 DUP3 ADD SWAP1 POP PUSH2 0x14A PUSH0 DUP4 ADD DUP5 PUSH2 0x128 JUMP JUMPDEST SWAP3 SWAP2 POP POP JUMP JUMPDEST PUSH32 0x4E487B7100000000000000000000000000000000000000000000000000000000 PUSH0 MSTORE PUSH1 0x11 PUSH1 0x4 MSTORE PUSH1 0x24 PUSH0 REVERT JUMPDEST PUSH0 PUSH2 0x187 DUP3 PUSH2 0xCA JUMP JUMPDEST SWAP2 POP PUSH2 0x192 DUP4 PUSH2 0xCA JUMP JUMPDEST SWAP3 POP DUP3 DUP3 SUB SWAP1 POP DUP2 DUP2 GT ISZERO PUSH2 0x1AA JUMPI PUSH2 0x1A9 PUSH2 0x150 JUMP JUMPDEST JUMPDEST SWAP3 SWAP2 POP POP JUMP JUMPDEST PUSH0 DUP3 DUP3 MSTORE PUSH1 0x20 DUP3 ADD SWAP1 POP SWAP3 SWAP2 POP POP JUMP JUMPDEST PUSH32 0x7761697420666F72203130206D696E757465732E000000000000000000000000 PUSH0 DUP3 ADD MSTORE POP JUMP JUMPDEST PUSH0 PUSH2 0x1F4 PUSH1 0x14 DUP4 PUSH2 0x1B0 JUMP JUMPDEST SWAP2 POP PUSH2 0x1FF DUP3 PUSH2 0x1C0 JUMP JUMPDEST PUSH1 0x20 DUP3 ADD SWAP1 POP SWAP2 SWAP1 POP JUMP JUMPDEST PUSH0 PUSH1 0x20 DUP3 ADD SWAP1 POP DUP2 DUP2 SUB PUSH0 DUP4 ADD MSTORE PUSH2 0x221 DUP2 PUSH2 0x1E8 JUMP JUMPDEST SWAP1 POP SWAP2 SWAP1 POP JUMP INVALID LOG2 PUSH5 0x6970667358 0x22 SLT KECCAK256 PUSH2 0xA296 0x27 0xD6 DUP11 CALLDATASIZE SWAP11 SSTORE 0xCD 0xD8 RETURN ORIGIN PUSH6 0xEAD998B94B46 DUP1 KECCAK256 DUP9 DUP12 0xC5 PUSH7 0x15A389B4F28364 PUSH20 0x6F6C634300081900330000000000000000000000 "
				},
				"gasEstimates": {
					"creation": {
						"codeDepositCost": "121200",
						"executionCost": "163",
						"totalCost": "121363"
					},
					"external": {
						"setA(uint256)": "infinite"
					}
				},
				"methodIdentifiers": {
					"setA(uint256)": "ee919d50"
				}
			},
			"storageLayout": {
				"storage": [
					{
						"astId": 1418,
						"contract": "solidity_100/71-80.sol:Q71",
						"label": "a",
						"offset": 0,
						"slot": "0",
						"type": "t_uint256"
					},
					{
						"astId": 1420,
						"contract": "solidity_100/71-80.sol:Q71",
						"label": "setTime",
						"offset": 0,
						"slot": "1",
						"type": "t_uint256"
					}
				],
				"types": {
					"t_uint256": {
						"encoding": "inplace",
						"label": "uint256",
						"numberOfBytes": "32"
					}
				}
			},
			"userdoc": {
				"kind": "user",
				"methods": {},
				"version": 1
			}
		}
	}
}