{
	"solidity_100/71-80.sol": {
		"Q73": {
			"abi": [
				{
					"inputs": [],
					"stateMutability": "nonpayable",
					"type": "constructor"
				},
				{
					"inputs": [],
					"name": "deposit",
					"outputs": [
						{
							"internalType": "uint256",
							"name": "",
							"type": "uint256"
						}
					],
					"stateMutability": "payable",
					"type": "function"
				},
				{
					"inputs": [],
					"name": "getCustomer",
					"outputs": [
						{
							"components": [
								{
									"internalType": "address",
									"name": "wallet",
									"type": "address"
								},
								{
									"internalType": "uint256",
									"name": "depositAmount",
									"type": "uint256"
								}
							],
							"internalType": "struct Q73.depoCustomer[]",
							"name": "",
							"type": "tuple[]"
						}
					],
					"stateMutability": "view",
					"type": "function"
				},
				{
					"inputs": [],
					"name": "getOwner",
					"outputs": [
						{
							"internalType": "address",
							"name": "",
							"type": "address"
						}
					],
					"stateMutability": "view",
					"type": "function"
				},
				{
					"inputs": [
						{
							"internalType": "uint256",
							"name": "_n",
							"type": "uint256"
						}
					],
					"name": "withdraw",
					"outputs": [
						{
							"internalType": "uint256",
							"name": "",
							"type": "uint256"
						}
					],
					"stateMutability": "payable",
					"type": "function"
				}
			],
			"devdoc": {
				"kind": "dev",
				"methods": {},
				"version": 1
			},
			"evm": {
				"assembly": "    /* \"solidity_100/71-80.sol\":1698:4118  contract Q73 {... */\n  mstore(0x40, 0x80)\n    /* \"solidity_100/71-80.sol\":2234:2286  constructor () {... */\n  callvalue\n  dup1\n  iszero\n  tag_1\n  jumpi\n  0x00\n  dup1\n  revert\ntag_1:\n  pop\n    /* \"solidity_100/71-80.sol\":2268:2278  msg.sender */\n  caller\n    /* \"solidity_100/71-80.sol\":2260:2265  owner */\n  0x01\n  0x00\n    /* \"solidity_100/71-80.sol\":2260:2278  owner = msg.sender */\n  0x0100\n  exp\n  dup2\n  sload\n  dup2\n  0xffffffffffffffffffffffffffffffffffffffff\n  mul\n  not\n  and\n  swap1\n  dup4\n  0xffffffffffffffffffffffffffffffffffffffff\n  and\n  mul\n  or\n  swap1\n  sstore\n  pop\n    /* \"solidity_100/71-80.sol\":1698:4118  contract Q73 {... */\n  dataSize(sub_0)\n  dup1\n  dataOffset(sub_0)\n  0x00\n  codecopy\n  0x00\n  return\nstop\n\nsub_0: assembly {\n        /* \"solidity_100/71-80.sol\":1698:4118  contract Q73 {... */\n      mstore(0x40, 0x80)\n      jumpi(tag_1, lt(calldatasize, 0x04))\n      shr(0xe0, calldataload(0x00))\n      dup1\n      0x2e1a7d4d\n      eq\n      tag_2\n      jumpi\n      dup1\n      0x650d993b\n      eq\n      tag_3\n      jumpi\n      dup1\n      0x893d20e8\n      eq\n      tag_4\n      jumpi\n      dup1\n      0xd0e30db0\n      eq\n      tag_5\n      jumpi\n    tag_1:\n      0x00\n      dup1\n      revert\n        /* \"solidity_100/71-80.sol\":3728:3918  function withdraw(uint _n) public payable returns(uint) {... */\n    tag_2:\n      tag_6\n      0x04\n      dup1\n      calldatasize\n      sub\n      dup2\n      add\n      swap1\n      tag_7\n      swap2\n      swap1\n      tag_8\n      jump\t// in\n    tag_7:\n      tag_9\n      jump\t// in\n    tag_6:\n      mload(0x40)\n      tag_10\n      swap2\n      swap1\n      tag_11\n      jump\t// in\n    tag_10:\n      mload(0x40)\n      dup1\n      swap2\n      sub\n      swap1\n      return\n        /* \"solidity_100/71-80.sol\":3926:4027  function getCustomer() public view returns(depoCustomer[] memory) {... */\n    tag_3:\n      callvalue\n      dup1\n      iszero\n      tag_12\n      jumpi\n      0x00\n      dup1\n      revert\n    tag_12:\n      pop\n      tag_13\n      tag_14\n      jump\t// in\n    tag_13:\n      mload(0x40)\n      tag_15\n      swap2\n      swap1\n      tag_16\n      jump\t// in\n    tag_15:\n      mload(0x40)\n      dup1\n      swap2\n      sub\n      swap1\n      return\n        /* \"solidity_100/71-80.sol\":4035:4115  function getOwner() public view returns(address) {... */\n    tag_4:\n      callvalue\n      dup1\n      iszero\n      tag_17\n      jumpi\n      0x00\n      dup1\n      revert\n    tag_17:\n      pop\n      tag_18\n      tag_19\n      jump\t// in\n    tag_18:\n      mload(0x40)\n      tag_20\n      swap2\n      swap1\n      tag_21\n      jump\t// in\n    tag_20:\n      mload(0x40)\n      dup1\n      swap2\n      sub\n      swap1\n      return\n        /* \"solidity_100/71-80.sol\":2400:3720  function deposit() public payable returns(uint){... */\n    tag_5:\n      tag_22\n      tag_23\n      jump\t// in\n    tag_22:\n      mload(0x40)\n      tag_24\n      swap2\n      swap1\n      tag_11\n      jump\t// in\n    tag_24:\n      mload(0x40)\n      dup1\n      swap2\n      sub\n      swap1\n      return\n        /* \"solidity_100/71-80.sol\":3728:3918  function withdraw(uint _n) public payable returns(uint) {... */\n    tag_9:\n        /* \"solidity_100/71-80.sol\":3778:3782  uint */\n      0x00\n        /* \"solidity_100/71-80.sol\":3812:3822  msg.sender */\n      caller\n        /* \"solidity_100/71-80.sol\":3803:3822  owner == msg.sender */\n      0xffffffffffffffffffffffffffffffffffffffff\n      and\n        /* \"solidity_100/71-80.sol\":3803:3808  owner */\n      0x01\n      0x00\n      swap1\n      sload\n      swap1\n      0x0100\n      exp\n      swap1\n      div\n      0xffffffffffffffffffffffffffffffffffffffff\n      and\n        /* \"solidity_100/71-80.sol\":3803:3822  owner == msg.sender */\n      0xffffffffffffffffffffffffffffffffffffffff\n      and\n      eq\n        /* \"solidity_100/71-80.sol\":3795:3847  require(owner == msg.sender, \"you are not an owner\") */\n      tag_26\n      jumpi\n      mload(0x40)\n      0x08c379a000000000000000000000000000000000000000000000000000000000\n      dup2\n      mstore\n      0x04\n      add\n      tag_27\n      swap1\n      tag_28\n      jump\t// in\n    tag_27:\n      mload(0x40)\n      dup1\n      swap2\n      sub\n      swap1\n      revert\n    tag_26:\n        /* \"solidity_100/71-80.sol\":3866:3876  msg.sender */\n      caller\n        /* \"solidity_100/71-80.sol\":3858:3886  payable(msg.sender).transfer */\n      0xffffffffffffffffffffffffffffffffffffffff\n      and\n        /* \"solidity_100/71-80.sol\":3858:3890  payable(msg.sender).transfer(_n) */\n      0x08fc\n        /* \"solidity_100/71-80.sol\":3887:3889  _n */\n      dup4\n        /* \"solidity_100/71-80.sol\":3858:3890  payable(msg.sender).transfer(_n) */\n      swap1\n      dup2\n      iszero\n      mul\n      swap1\n      mload(0x40)\n      0x00\n      mload(0x40)\n      dup1\n      dup4\n      sub\n      dup2\n      dup6\n      dup9\n      dup9\n      call\n      swap4\n      pop\n      pop\n      pop\n      pop\n      iszero\n      dup1\n      iszero\n      tag_30\n      jumpi\n      returndatasize\n      0x00\n      dup1\n      returndatacopy\n      revert(0x00, returndatasize)\n    tag_30:\n      pop\n        /* \"solidity_100/71-80.sol\":3908:3910  _n */\n      dup2\n        /* \"solidity_100/71-80.sol\":3901:3910  return _n */\n      swap1\n      pop\n        /* \"solidity_100/71-80.sol\":3728:3918  function withdraw(uint _n) public payable returns(uint) {... */\n      swap2\n      swap1\n      pop\n      jump\t// out\n        /* \"solidity_100/71-80.sol\":3926:4027  function getCustomer() public view returns(depoCustomer[] memory) {... */\n    tag_14:\n        /* \"solidity_100/71-80.sol\":3969:3990  depoCustomer[] memory */\n      0x60\n        /* \"solidity_100/71-80.sol\":4010:4019  customers */\n      0x00\n        /* \"solidity_100/71-80.sol\":4003:4019  return customers */\n      dup1\n      sload\n      dup1\n      0x20\n      mul\n      0x20\n      add\n      mload(0x40)\n      swap1\n      dup2\n      add\n      0x40\n      mstore\n      dup1\n      swap3\n      swap2\n      swap1\n      dup2\n      dup2\n      mstore\n      0x20\n      add\n      0x00\n      swap1\n    tag_32:\n      dup3\n      dup3\n      lt\n      iszero\n      tag_33\n      jumpi\n      dup4\n      dup3\n      swap1\n      0x00\n      mstore\n      keccak256(0x00, 0x20)\n      swap1\n      0x02\n      mul\n      add\n      mload(0x40)\n      dup1\n      0x40\n      add\n      0x40\n      mstore\n      swap1\n      dup2\n      0x00\n      dup3\n      add\n      0x00\n      swap1\n      sload\n      swap1\n      0x0100\n      exp\n      swap1\n      div\n      0xffffffffffffffffffffffffffffffffffffffff\n      and\n      0xffffffffffffffffffffffffffffffffffffffff\n      and\n      0xffffffffffffffffffffffffffffffffffffffff\n      and\n      dup2\n      mstore\n      0x20\n      add\n      0x01\n      dup3\n      add\n      sload\n      dup2\n      mstore\n      pop\n      pop\n      dup2\n      mstore\n      0x20\n      add\n      swap1\n      0x01\n      add\n      swap1\n      jump(tag_32)\n    tag_33:\n      pop\n      pop\n      pop\n      pop\n      swap1\n      pop\n        /* \"solidity_100/71-80.sol\":3926:4027  function getCustomer() public view returns(depoCustomer[] memory) {... */\n      swap1\n      jump\t// out\n        /* \"solidity_100/71-80.sol\":4035:4115  function getOwner() public view returns(address) {... */\n    tag_19:\n        /* \"solidity_100/71-80.sol\":4075:4082  address */\n      0x00\n        /* \"solidity_100/71-80.sol\":4102:4107  owner */\n      0x01\n      0x00\n      swap1\n      sload\n      swap1\n      0x0100\n      exp\n      swap1\n      div\n      0xffffffffffffffffffffffffffffffffffffffff\n      and\n        /* \"solidity_100/71-80.sol\":4095:4107  return owner */\n      swap1\n      pop\n        /* \"solidity_100/71-80.sol\":4035:4115  function getOwner() public view returns(address) {... */\n      swap1\n      jump\t// out\n        /* \"solidity_100/71-80.sol\":2400:3720  function deposit() public payable returns(uint){... */\n    tag_23:\n        /* \"solidity_100/71-80.sol\":2442:2446  uint */\n      0x00\n        /* \"solidity_100/71-80.sol\":2458:2472  bool userCheck */\n      dup1\n        /* \"solidity_100/71-80.sol\":2489:2495  uint i */\n      0x00\n        /* \"solidity_100/71-80.sol\":2485:2701  for(uint i = 0; i < customers.length; i++) {... */\n    tag_37:\n        /* \"solidity_100/71-80.sol\":2505:2514  customers */\n      0x00\n        /* \"solidity_100/71-80.sol\":2505:2521  customers.length */\n      dup1\n      sload\n      swap1\n      pop\n        /* \"solidity_100/71-80.sol\":2501:2502  i */\n      dup2\n        /* \"solidity_100/71-80.sol\":2501:2521  i < customers.length */\n      lt\n        /* \"solidity_100/71-80.sol\":2485:2701  for(uint i = 0; i < customers.length; i++) {... */\n      iszero\n      tag_38\n      jumpi\n        /* \"solidity_100/71-80.sol\":2569:2579  msg.sender */\n      caller\n        /* \"solidity_100/71-80.sol\":2546:2579  customers[i].wallet == msg.sender */\n      0xffffffffffffffffffffffffffffffffffffffff\n      and\n        /* \"solidity_100/71-80.sol\":2546:2555  customers */\n      0x00\n        /* \"solidity_100/71-80.sol\":2556:2557  i */\n      dup3\n        /* \"solidity_100/71-80.sol\":2546:2558  customers[i] */\n      dup2\n      sload\n      dup2\n      lt\n      tag_40\n      jumpi\n      tag_41\n      tag_42\n      jump\t// in\n    tag_41:\n    tag_40:\n      swap1\n      0x00\n      mstore\n      keccak256(0x00, 0x20)\n      swap1\n      0x02\n      mul\n      add\n        /* \"solidity_100/71-80.sol\":2546:2565  customers[i].wallet */\n      0x00\n      add\n      0x00\n      swap1\n      sload\n      swap1\n      0x0100\n      exp\n      swap1\n      div\n      0xffffffffffffffffffffffffffffffffffffffff\n      and\n        /* \"solidity_100/71-80.sol\":2546:2579  customers[i].wallet == msg.sender */\n      0xffffffffffffffffffffffffffffffffffffffff\n      and\n      sub\n        /* \"solidity_100/71-80.sol\":2543:2690  if(customers[i].wallet == msg.sender) {... */\n      tag_44\n      jumpi\n        /* \"solidity_100/71-80.sol\":2630:2639  msg.value */\n      callvalue\n        /* \"solidity_100/71-80.sol\":2600:2609  customers */\n      0x00\n        /* \"solidity_100/71-80.sol\":2610:2611  i */\n      dup3\n        /* \"solidity_100/71-80.sol\":2600:2612  customers[i] */\n      dup2\n      sload\n      dup2\n      lt\n      tag_45\n      jumpi\n      tag_46\n      tag_42\n      jump\t// in\n    tag_46:\n    tag_45:\n      swap1\n      0x00\n      mstore\n      keccak256(0x00, 0x20)\n      swap1\n      0x02\n      mul\n      add\n        /* \"solidity_100/71-80.sol\":2600:2626  customers[i].depositAmount */\n      0x01\n      add\n      0x00\n        /* \"solidity_100/71-80.sol\":2600:2639  customers[i].depositAmount += msg.value */\n      dup3\n      dup3\n      sload\n      tag_48\n      swap2\n      swap1\n      tag_49\n      jump\t// in\n    tag_48:\n      swap3\n      pop\n      pop\n      dup2\n      swap1\n      sstore\n      pop\n        /* \"solidity_100/71-80.sol\":2670:2674  true */\n      0x01\n        /* \"solidity_100/71-80.sol\":2658:2674  userCheck = true */\n      swap2\n      pop\n        /* \"solidity_100/71-80.sol\":2543:2690  if(customers[i].wallet == msg.sender) {... */\n    tag_44:\n        /* \"solidity_100/71-80.sol\":2523:2526  i++ */\n      dup1\n      dup1\n      0x01\n      add\n      swap2\n      pop\n      pop\n        /* \"solidity_100/71-80.sol\":2485:2701  for(uint i = 0; i < customers.length; i++) {... */\n      jump(tag_37)\n    tag_38:\n      pop\n        /* \"solidity_100/71-80.sol\":2836:2840  true */\n      0x01\n        /* \"solidity_100/71-80.sol\":2823:2840  userCheck != true */\n      iszero\n      iszero\n        /* \"solidity_100/71-80.sol\":2823:2832  userCheck */\n      dup2\n        /* \"solidity_100/71-80.sol\":2823:2840  userCheck != true */\n      iszero\n      iszero\n      eq\n        /* \"solidity_100/71-80.sol\":2820:2919  if(userCheck != true) {... */\n      tag_50\n      jumpi\n        /* \"solidity_100/71-80.sol\":2857:2866  customers */\n      0x00\n        /* \"solidity_100/71-80.sol\":2872:2906  depoCustomer(msg.sender,msg.value) */\n      mload(0x40)\n      dup1\n      0x40\n      add\n      0x40\n      mstore\n      dup1\n        /* \"solidity_100/71-80.sol\":2885:2895  msg.sender */\n      caller\n        /* \"solidity_100/71-80.sol\":2872:2906  depoCustomer(msg.sender,msg.value) */\n      0xffffffffffffffffffffffffffffffffffffffff\n      and\n      dup2\n      mstore\n      0x20\n      add\n        /* \"solidity_100/71-80.sol\":2896:2905  msg.value */\n      callvalue\n        /* \"solidity_100/71-80.sol\":2872:2906  depoCustomer(msg.sender,msg.value) */\n      dup2\n      mstore\n      pop\n        /* \"solidity_100/71-80.sol\":2857:2907  customers.push(depoCustomer(msg.sender,msg.value)) */\n      swap1\n      dup1\n      0x01\n      dup2\n      sload\n      add\n      dup1\n      dup3\n      sstore\n      dup1\n      swap2\n      pop\n      pop\n      0x01\n      swap1\n      sub\n      swap1\n      0x00\n      mstore\n      keccak256(0x00, 0x20)\n      swap1\n      0x02\n      mul\n      add\n      0x00\n      swap1\n      swap2\n      swap1\n      swap2\n      swap1\n      swap2\n      pop\n      0x00\n      dup3\n      add\n      mload\n      dup2\n      0x00\n      add\n      exp(0x0100, 0x00)\n      dup2\n      sload\n      dup2\n      0xffffffffffffffffffffffffffffffffffffffff\n      mul\n      not\n      and\n      swap1\n      dup4\n      0xffffffffffffffffffffffffffffffffffffffff\n      and\n      mul\n      or\n      swap1\n      sstore\n      pop\n      0x20\n      dup3\n      add\n      mload\n      dup2\n      0x01\n      add\n      sstore\n      pop\n      pop\n        /* \"solidity_100/71-80.sol\":2820:2919  if(userCheck != true) {... */\n    tag_50:\n        /* \"solidity_100/71-80.sol\":3022:3028  uint i */\n      0x00\n        /* \"solidity_100/71-80.sol\":3018:3566  for(uint i=0; i< customers.length; i++) {... */\n    tag_52:\n        /* \"solidity_100/71-80.sol\":3035:3044  customers */\n      0x00\n        /* \"solidity_100/71-80.sol\":3035:3051  customers.length */\n      dup1\n      sload\n      swap1\n      pop\n        /* \"solidity_100/71-80.sol\":3032:3033  i */\n      dup2\n        /* \"solidity_100/71-80.sol\":3032:3051  i< customers.length */\n      lt\n        /* \"solidity_100/71-80.sol\":3018:3566  for(uint i=0; i< customers.length; i++) {... */\n      iszero\n      tag_53\n      jumpi\n        /* \"solidity_100/71-80.sol\":3077:3083  uint j */\n      0x00\n        /* \"solidity_100/71-80.sol\":3086:3087  1 */\n      0x01\n        /* \"solidity_100/71-80.sol\":3084:3085  i */\n      dup3\n        /* \"solidity_100/71-80.sol\":3084:3087  i+1 */\n      tag_58\n      swap2\n      swap1\n      tag_49\n      jump\t// in\n    tag_58:\n        /* \"solidity_100/71-80.sol\":3077:3087  uint j=i+1 */\n      swap1\n      pop\n        /* \"solidity_100/71-80.sol\":3073:3555  for(uint j=i+1; j< customers.length; j++) {... */\n    tag_55:\n        /* \"solidity_100/71-80.sol\":3092:3101  customers */\n      0x00\n        /* \"solidity_100/71-80.sol\":3092:3108  customers.length */\n      dup1\n      sload\n      swap1\n      pop\n        /* \"solidity_100/71-80.sol\":3089:3090  j */\n      dup2\n        /* \"solidity_100/71-80.sol\":3089:3108  j< customers.length */\n      lt\n        /* \"solidity_100/71-80.sol\":3073:3555  for(uint j=i+1; j< customers.length; j++) {... */\n      iszero\n      tag_56\n      jumpi\n        /* \"solidity_100/71-80.sol\":3166:3175  customers */\n      0x00\n        /* \"solidity_100/71-80.sol\":3176:3177  j */\n      dup2\n        /* \"solidity_100/71-80.sol\":3166:3178  customers[j] */\n      dup2\n      sload\n      dup2\n      lt\n      tag_59\n      jumpi\n      tag_60\n      tag_42\n      jump\t// in\n    tag_60:\n    tag_59:\n      swap1\n      0x00\n      mstore\n      keccak256(0x00, 0x20)\n      swap1\n      0x02\n      mul\n      add\n        /* \"solidity_100/71-80.sol\":3166:3192  customers[j].depositAmount */\n      0x01\n      add\n      sload\n        /* \"solidity_100/71-80.sol\":3137:3146  customers */\n      0x00\n        /* \"solidity_100/71-80.sol\":3147:3148  i */\n      dup4\n        /* \"solidity_100/71-80.sol\":3137:3149  customers[i] */\n      dup2\n      sload\n      dup2\n      lt\n      tag_62\n      jumpi\n      tag_63\n      tag_42\n      jump\t// in\n    tag_63:\n    tag_62:\n      swap1\n      0x00\n      mstore\n      keccak256(0x00, 0x20)\n      swap1\n      0x02\n      mul\n      add\n        /* \"solidity_100/71-80.sol\":3137:3163  customers[i].depositAmount */\n      0x01\n      add\n      sload\n        /* \"solidity_100/71-80.sol\":3137:3192  customers[i].depositAmount < customers[j].depositAmount */\n      lt\n        /* \"solidity_100/71-80.sol\":3134:3540  if(customers[i].depositAmount < customers[j].depositAmount) {... */\n      iszero\n      tag_65\n      jumpi\n        /* \"solidity_100/71-80.sol\":3331:3356  depoCustomer memory temp1 */\n      0x00\n        /* \"solidity_100/71-80.sol\":3359:3368  customers */\n      dup1\n        /* \"solidity_100/71-80.sol\":3369:3370  i */\n      dup4\n        /* \"solidity_100/71-80.sol\":3359:3371  customers[i] */\n      dup2\n      sload\n      dup2\n      lt\n      tag_66\n      jumpi\n      tag_67\n      tag_42\n      jump\t// in\n    tag_67:\n    tag_66:\n      swap1\n      0x00\n      mstore\n      keccak256(0x00, 0x20)\n      swap1\n      0x02\n      mul\n      add\n        /* \"solidity_100/71-80.sol\":3331:3371  depoCustomer memory temp1 = customers[i] */\n      mload(0x40)\n      dup1\n      0x40\n      add\n      0x40\n      mstore\n      swap1\n      dup2\n      0x00\n      dup3\n      add\n      0x00\n      swap1\n      sload\n      swap1\n      0x0100\n      exp\n      swap1\n      div\n      0xffffffffffffffffffffffffffffffffffffffff\n      and\n      0xffffffffffffffffffffffffffffffffffffffff\n      and\n      0xffffffffffffffffffffffffffffffffffffffff\n      and\n      dup2\n      mstore\n      0x20\n      add\n      0x01\n      dup3\n      add\n      sload\n      dup2\n      mstore\n      pop\n      pop\n      swap1\n      pop\n        /* \"solidity_100/71-80.sol\":3394:3419  depoCustomer memory temp2 */\n      0x00\n        /* \"solidity_100/71-80.sol\":3422:3431  customers */\n      dup1\n        /* \"solidity_100/71-80.sol\":3432:3433  j */\n      dup4\n        /* \"solidity_100/71-80.sol\":3422:3434  customers[j] */\n      dup2\n      sload\n      dup2\n      lt\n      tag_69\n      jumpi\n      tag_70\n      tag_42\n      jump\t// in\n    tag_70:\n    tag_69:\n      swap1\n      0x00\n      mstore\n      keccak256(0x00, 0x20)\n      swap1\n      0x02\n      mul\n      add\n        /* \"solidity_100/71-80.sol\":3394:3434  depoCustomer memory temp2 = customers[j] */\n      mload(0x40)\n      dup1\n      0x40\n      add\n      0x40\n      mstore\n      swap1\n      dup2\n      0x00\n      dup3\n      add\n      0x00\n      swap1\n      sload\n      swap1\n      0x0100\n      exp\n      swap1\n      div\n      0xffffffffffffffffffffffffffffffffffffffff\n      and\n      0xffffffffffffffffffffffffffffffffffffffff\n      and\n      0xffffffffffffffffffffffffffffffffffffffff\n      and\n      dup2\n      mstore\n      0x20\n      add\n      0x01\n      dup3\n      add\n      sload\n      dup2\n      mstore\n      pop\n      pop\n      swap1\n      pop\n        /* \"solidity_100/71-80.sol\":3472:3477  temp2 */\n      dup1\n        /* \"solidity_100/71-80.sol\":3457:3466  customers */\n      0x00\n        /* \"solidity_100/71-80.sol\":3467:3468  i */\n      dup6\n        /* \"solidity_100/71-80.sol\":3457:3469  customers[i] */\n      dup2\n      sload\n      dup2\n      lt\n      tag_72\n      jumpi\n      tag_73\n      tag_42\n      jump\t// in\n    tag_73:\n    tag_72:\n      swap1\n      0x00\n      mstore\n      keccak256(0x00, 0x20)\n      swap1\n      0x02\n      mul\n      add\n        /* \"solidity_100/71-80.sol\":3457:3477  customers[i] = temp2 */\n      0x00\n      dup3\n      add\n      mload\n      dup2\n      0x00\n      add\n      exp(0x0100, 0x00)\n      dup2\n      sload\n      dup2\n      0xffffffffffffffffffffffffffffffffffffffff\n      mul\n      not\n      and\n      swap1\n      dup4\n      0xffffffffffffffffffffffffffffffffffffffff\n      and\n      mul\n      or\n      swap1\n      sstore\n      pop\n      0x20\n      dup3\n      add\n      mload\n      dup2\n      0x01\n      add\n      sstore\n      swap1\n      pop\n      pop\n        /* \"solidity_100/71-80.sol\":3515:3520  temp1 */\n      dup2\n        /* \"solidity_100/71-80.sol\":3500:3509  customers */\n      0x00\n        /* \"solidity_100/71-80.sol\":3510:3511  j */\n      dup5\n        /* \"solidity_100/71-80.sol\":3500:3512  customers[j] */\n      dup2\n      sload\n      dup2\n      lt\n      tag_75\n      jumpi\n      tag_76\n      tag_42\n      jump\t// in\n    tag_76:\n    tag_75:\n      swap1\n      0x00\n      mstore\n      keccak256(0x00, 0x20)\n      swap1\n      0x02\n      mul\n      add\n        /* \"solidity_100/71-80.sol\":3500:3520  customers[j] = temp1 */\n      0x00\n      dup3\n      add\n      mload\n      dup2\n      0x00\n      add\n      exp(0x0100, 0x00)\n      dup2\n      sload\n      dup2\n      0xffffffffffffffffffffffffffffffffffffffff\n      mul\n      not\n      and\n      swap1\n      dup4\n      0xffffffffffffffffffffffffffffffffffffffff\n      and\n      mul\n      or\n      swap1\n      sstore\n      pop\n      0x20\n      dup3\n      add\n      mload\n      dup2\n      0x01\n      add\n      sstore\n      swap1\n      pop\n      pop\n        /* \"solidity_100/71-80.sol\":3194:3540  {... */\n      pop\n      pop\n        /* \"solidity_100/71-80.sol\":3134:3540  if(customers[i].depositAmount < customers[j].depositAmount) {... */\n    tag_65:\n        /* \"solidity_100/71-80.sol\":3110:3113  j++ */\n      dup1\n      dup1\n      0x01\n      add\n      swap2\n      pop\n      pop\n        /* \"solidity_100/71-80.sol\":3073:3555  for(uint j=i+1; j< customers.length; j++) {... */\n      jump(tag_55)\n    tag_56:\n      pop\n        /* \"solidity_100/71-80.sol\":3053:3056  i++ */\n      dup1\n      dup1\n      0x01\n      add\n      swap2\n      pop\n      pop\n        /* \"solidity_100/71-80.sol\":3018:3566  for(uint i=0; i< customers.length; i++) {... */\n      jump(tag_52)\n    tag_53:\n      pop\n        /* \"solidity_100/71-80.sol\":3659:3668  customers */\n      0x00\n        /* \"solidity_100/71-80.sol\":3669:3670  0 */\n      dup1\n        /* \"solidity_100/71-80.sol\":3659:3671  customers[0] */\n      dup2\n      sload\n      dup2\n      lt\n      tag_78\n      jumpi\n      tag_79\n      tag_42\n      jump\t// in\n    tag_79:\n    tag_78:\n      swap1\n      0x00\n      mstore\n      keccak256(0x00, 0x20)\n      swap1\n      0x02\n      mul\n      add\n        /* \"solidity_100/71-80.sol\":3659:3678  customers[0].wallet */\n      0x00\n      add\n      0x00\n      swap1\n      sload\n      swap1\n      0x0100\n      exp\n      swap1\n      div\n      0xffffffffffffffffffffffffffffffffffffffff\n      and\n        /* \"solidity_100/71-80.sol\":3651:3656  owner */\n      0x01\n      0x00\n        /* \"solidity_100/71-80.sol\":3651:3678  owner = customers[0].wallet */\n      0x0100\n      exp\n      dup2\n      sload\n      dup2\n      0xffffffffffffffffffffffffffffffffffffffff\n      mul\n      not\n      and\n      swap1\n      dup4\n      0xffffffffffffffffffffffffffffffffffffffff\n      and\n      mul\n      or\n      swap1\n      sstore\n      pop\n        /* \"solidity_100/71-80.sol\":3703:3712  msg.value */\n      callvalue\n        /* \"solidity_100/71-80.sol\":3696:3712  return msg.value */\n      swap2\n      pop\n      pop\n        /* \"solidity_100/71-80.sol\":2400:3720  function deposit() public payable returns(uint){... */\n      swap1\n      jump\t// out\n        /* \"#utility.yul\":88:205   */\n    tag_82:\n        /* \"#utility.yul\":197:198   */\n      0x00\n        /* \"#utility.yul\":194:195   */\n      dup1\n        /* \"#utility.yul\":187:199   */\n      revert\n        /* \"#utility.yul\":334:411   */\n    tag_84:\n        /* \"#utility.yul\":371:378   */\n      0x00\n        /* \"#utility.yul\":400:405   */\n      dup2\n        /* \"#utility.yul\":389:405   */\n      swap1\n      pop\n        /* \"#utility.yul\":334:411   */\n      swap2\n      swap1\n      pop\n      jump\t// out\n        /* \"#utility.yul\":417:539   */\n    tag_85:\n        /* \"#utility.yul\":490:514   */\n      tag_110\n        /* \"#utility.yul\":508:513   */\n      dup2\n        /* \"#utility.yul\":490:514   */\n      tag_84\n      jump\t// in\n    tag_110:\n        /* \"#utility.yul\":483:488   */\n      dup2\n        /* \"#utility.yul\":480:515   */\n      eq\n        /* \"#utility.yul\":470:533   */\n      tag_111\n      jumpi\n        /* \"#utility.yul\":529:530   */\n      0x00\n        /* \"#utility.yul\":526:527   */\n      dup1\n        /* \"#utility.yul\":519:531   */\n      revert\n        /* \"#utility.yul\":470:533   */\n    tag_111:\n        /* \"#utility.yul\":417:539   */\n      pop\n      jump\t// out\n        /* \"#utility.yul\":545:684   */\n    tag_86:\n        /* \"#utility.yul\":591:596   */\n      0x00\n        /* \"#utility.yul\":629:635   */\n      dup2\n        /* \"#utility.yul\":616:636   */\n      calldataload\n        /* \"#utility.yul\":607:636   */\n      swap1\n      pop\n        /* \"#utility.yul\":645:678   */\n      tag_113\n        /* \"#utility.yul\":672:677   */\n      dup2\n        /* \"#utility.yul\":645:678   */\n      tag_85\n      jump\t// in\n    tag_113:\n        /* \"#utility.yul\":545:684   */\n      swap3\n      swap2\n      pop\n      pop\n      jump\t// out\n        /* \"#utility.yul\":690:1019   */\n    tag_8:\n        /* \"#utility.yul\":749:755   */\n      0x00\n        /* \"#utility.yul\":798:800   */\n      0x20\n        /* \"#utility.yul\":786:795   */\n      dup3\n        /* \"#utility.yul\":777:784   */\n      dup5\n        /* \"#utility.yul\":773:796   */\n      sub\n        /* \"#utility.yul\":769:801   */\n      slt\n        /* \"#utility.yul\":766:885   */\n      iszero\n      tag_115\n      jumpi\n        /* \"#utility.yul\":804:883   */\n      tag_116\n      tag_82\n      jump\t// in\n    tag_116:\n        /* \"#utility.yul\":766:885   */\n    tag_115:\n        /* \"#utility.yul\":924:925   */\n      0x00\n        /* \"#utility.yul\":949:1002   */\n      tag_117\n        /* \"#utility.yul\":994:1001   */\n      dup5\n        /* \"#utility.yul\":985:991   */\n      dup3\n        /* \"#utility.yul\":974:983   */\n      dup6\n        /* \"#utility.yul\":970:992   */\n      add\n        /* \"#utility.yul\":949:1002   */\n      tag_86\n      jump\t// in\n    tag_117:\n        /* \"#utility.yul\":939:1002   */\n      swap2\n      pop\n        /* \"#utility.yul\":895:1012   */\n      pop\n        /* \"#utility.yul\":690:1019   */\n      swap3\n      swap2\n      pop\n      pop\n      jump\t// out\n        /* \"#utility.yul\":1025:1143   */\n    tag_87:\n        /* \"#utility.yul\":1112:1136   */\n      tag_119\n        /* \"#utility.yul\":1130:1135   */\n      dup2\n        /* \"#utility.yul\":1112:1136   */\n      tag_84\n      jump\t// in\n    tag_119:\n        /* \"#utility.yul\":1107:1110   */\n      dup3\n        /* \"#utility.yul\":1100:1137   */\n      mstore\n        /* \"#utility.yul\":1025:1143   */\n      pop\n      pop\n      jump\t// out\n        /* \"#utility.yul\":1149:1371   */\n    tag_11:\n        /* \"#utility.yul\":1242:1246   */\n      0x00\n        /* \"#utility.yul\":1280:1282   */\n      0x20\n        /* \"#utility.yul\":1269:1278   */\n      dup3\n        /* \"#utility.yul\":1265:1283   */\n      add\n        /* \"#utility.yul\":1257:1283   */\n      swap1\n      pop\n        /* \"#utility.yul\":1293:1364   */\n      tag_121\n        /* \"#utility.yul\":1361:1362   */\n      0x00\n        /* \"#utility.yul\":1350:1359   */\n      dup4\n        /* \"#utility.yul\":1346:1363   */\n      add\n        /* \"#utility.yul\":1337:1343   */\n      dup5\n        /* \"#utility.yul\":1293:1364   */\n      tag_87\n      jump\t// in\n    tag_121:\n        /* \"#utility.yul\":1149:1371   */\n      swap3\n      swap2\n      pop\n      pop\n      jump\t// out\n        /* \"#utility.yul\":1377:1521   */\n    tag_88:\n        /* \"#utility.yul\":1474:1480   */\n      0x00\n        /* \"#utility.yul\":1508:1513   */\n      dup2\n        /* \"#utility.yul\":1502:1514   */\n      mload\n        /* \"#utility.yul\":1492:1514   */\n      swap1\n      pop\n        /* \"#utility.yul\":1377:1521   */\n      swap2\n      swap1\n      pop\n      jump\t// out\n        /* \"#utility.yul\":1527:1741   */\n    tag_89:\n        /* \"#utility.yul\":1656:1667   */\n      0x00\n        /* \"#utility.yul\":1690:1696   */\n      dup3\n        /* \"#utility.yul\":1685:1688   */\n      dup3\n        /* \"#utility.yul\":1678:1697   */\n      mstore\n        /* \"#utility.yul\":1730:1734   */\n      0x20\n        /* \"#utility.yul\":1725:1728   */\n      dup3\n        /* \"#utility.yul\":1721:1735   */\n      add\n        /* \"#utility.yul\":1706:1735   */\n      swap1\n      pop\n        /* \"#utility.yul\":1527:1741   */\n      swap3\n      swap2\n      pop\n      pop\n      jump\t// out\n        /* \"#utility.yul\":1747:1909   */\n    tag_90:\n        /* \"#utility.yul\":1844:1848   */\n      0x00\n        /* \"#utility.yul\":1867:1870   */\n      dup2\n        /* \"#utility.yul\":1859:1870   */\n      swap1\n      pop\n        /* \"#utility.yul\":1897:1901   */\n      0x20\n        /* \"#utility.yul\":1892:1895   */\n      dup3\n        /* \"#utility.yul\":1888:1902   */\n      add\n        /* \"#utility.yul\":1880:1902   */\n      swap1\n      pop\n        /* \"#utility.yul\":1747:1909   */\n      swap2\n      swap1\n      pop\n      jump\t// out\n        /* \"#utility.yul\":1915:2041   */\n    tag_91:\n        /* \"#utility.yul\":1952:1959   */\n      0x00\n        /* \"#utility.yul\":1992:2034   */\n      0xffffffffffffffffffffffffffffffffffffffff\n        /* \"#utility.yul\":1985:1990   */\n      dup3\n        /* \"#utility.yul\":1981:2035   */\n      and\n        /* \"#utility.yul\":1970:2035   */\n      swap1\n      pop\n        /* \"#utility.yul\":1915:2041   */\n      swap2\n      swap1\n      pop\n      jump\t// out\n        /* \"#utility.yul\":2047:2143   */\n    tag_92:\n        /* \"#utility.yul\":2084:2091   */\n      0x00\n        /* \"#utility.yul\":2113:2137   */\n      tag_127\n        /* \"#utility.yul\":2131:2136   */\n      dup3\n        /* \"#utility.yul\":2113:2137   */\n      tag_91\n      jump\t// in\n    tag_127:\n        /* \"#utility.yul\":2102:2137   */\n      swap1\n      pop\n        /* \"#utility.yul\":2047:2143   */\n      swap2\n      swap1\n      pop\n      jump\t// out\n        /* \"#utility.yul\":2149:2257   */\n    tag_93:\n        /* \"#utility.yul\":2226:2250   */\n      tag_129\n        /* \"#utility.yul\":2244:2249   */\n      dup2\n        /* \"#utility.yul\":2226:2250   */\n      tag_92\n      jump\t// in\n    tag_129:\n        /* \"#utility.yul\":2221:2224   */\n      dup3\n        /* \"#utility.yul\":2214:2251   */\n      mstore\n        /* \"#utility.yul\":2149:2257   */\n      pop\n      pop\n      jump\t// out\n        /* \"#utility.yul\":2263:2371   */\n    tag_94:\n        /* \"#utility.yul\":2340:2364   */\n      tag_131\n        /* \"#utility.yul\":2358:2363   */\n      dup2\n        /* \"#utility.yul\":2340:2364   */\n      tag_84\n      jump\t// in\n    tag_131:\n        /* \"#utility.yul\":2335:2338   */\n      dup3\n        /* \"#utility.yul\":2328:2365   */\n      mstore\n        /* \"#utility.yul\":2263:2371   */\n      pop\n      pop\n      jump\t// out\n        /* \"#utility.yul\":2435:2953   */\n    tag_95:\n        /* \"#utility.yul\":2582:2586   */\n      0x40\n        /* \"#utility.yul\":2577:2580   */\n      dup3\n        /* \"#utility.yul\":2573:2587   */\n      add\n        /* \"#utility.yul\":2671:2675   */\n      0x00\n        /* \"#utility.yul\":2664:2669   */\n      dup3\n        /* \"#utility.yul\":2660:2676   */\n      add\n        /* \"#utility.yul\":2654:2677   */\n      mload\n        /* \"#utility.yul\":2690:2753   */\n      tag_133\n        /* \"#utility.yul\":2747:2751   */\n      0x00\n        /* \"#utility.yul\":2742:2745   */\n      dup6\n        /* \"#utility.yul\":2738:2752   */\n      add\n        /* \"#utility.yul\":2724:2736   */\n      dup3\n        /* \"#utility.yul\":2690:2753   */\n      tag_93\n      jump\t// in\n    tag_133:\n        /* \"#utility.yul\":2597:2763   */\n      pop\n        /* \"#utility.yul\":2854:2858   */\n      0x20\n        /* \"#utility.yul\":2847:2852   */\n      dup3\n        /* \"#utility.yul\":2843:2859   */\n      add\n        /* \"#utility.yul\":2837:2860   */\n      mload\n        /* \"#utility.yul\":2873:2936   */\n      tag_134\n        /* \"#utility.yul\":2930:2934   */\n      0x20\n        /* \"#utility.yul\":2925:2928   */\n      dup6\n        /* \"#utility.yul\":2921:2935   */\n      add\n        /* \"#utility.yul\":2907:2919   */\n      dup3\n        /* \"#utility.yul\":2873:2936   */\n      tag_94\n      jump\t// in\n    tag_134:\n        /* \"#utility.yul\":2773:2946   */\n      pop\n        /* \"#utility.yul\":2551:2953   */\n      pop\n        /* \"#utility.yul\":2435:2953   */\n      pop\n      pop\n      jump\t// out\n        /* \"#utility.yul\":2959:3258   */\n    tag_96:\n        /* \"#utility.yul\":3088:3098   */\n      0x00\n        /* \"#utility.yul\":3109:3215   */\n      tag_136\n        /* \"#utility.yul\":3211:3214   */\n      dup4\n        /* \"#utility.yul\":3203:3209   */\n      dup4\n        /* \"#utility.yul\":3109:3215   */\n      tag_95\n      jump\t// in\n    tag_136:\n        /* \"#utility.yul\":3247:3251   */\n      0x40\n        /* \"#utility.yul\":3242:3245   */\n      dup4\n        /* \"#utility.yul\":3238:3252   */\n      add\n        /* \"#utility.yul\":3224:3252   */\n      swap1\n      pop\n        /* \"#utility.yul\":2959:3258   */\n      swap3\n      swap2\n      pop\n      pop\n      jump\t// out\n        /* \"#utility.yul\":3264:3407   */\n    tag_97:\n        /* \"#utility.yul\":3364:3368   */\n      0x00\n        /* \"#utility.yul\":3396:3400   */\n      0x20\n        /* \"#utility.yul\":3391:3394   */\n      dup3\n        /* \"#utility.yul\":3387:3401   */\n      add\n        /* \"#utility.yul\":3379:3401   */\n      swap1\n      pop\n        /* \"#utility.yul\":3264:3407   */\n      swap2\n      swap1\n      pop\n      jump\t// out\n        /* \"#utility.yul\":3475:4447   */\n    tag_98:\n        /* \"#utility.yul\":3654:3657   */\n      0x00\n        /* \"#utility.yul\":3683:3767   */\n      tag_139\n        /* \"#utility.yul\":3761:3766   */\n      dup3\n        /* \"#utility.yul\":3683:3767   */\n      tag_88\n      jump\t// in\n    tag_139:\n        /* \"#utility.yul\":3783:3899   */\n      tag_140\n        /* \"#utility.yul\":3892:3898   */\n      dup2\n        /* \"#utility.yul\":3887:3890   */\n      dup6\n        /* \"#utility.yul\":3783:3899   */\n      tag_89\n      jump\t// in\n    tag_140:\n        /* \"#utility.yul\":3776:3899   */\n      swap4\n      pop\n        /* \"#utility.yul\":3923:4009   */\n      tag_141\n        /* \"#utility.yul\":4003:4008   */\n      dup4\n        /* \"#utility.yul\":3923:4009   */\n      tag_90\n      jump\t// in\n    tag_141:\n        /* \"#utility.yul\":4032:4039   */\n      dup1\n        /* \"#utility.yul\":4063:4064   */\n      0x00\n        /* \"#utility.yul\":4048:4422   */\n    tag_142:\n        /* \"#utility.yul\":4073:4079   */\n      dup4\n        /* \"#utility.yul\":4070:4071   */\n      dup2\n        /* \"#utility.yul\":4067:4080   */\n      lt\n        /* \"#utility.yul\":4048:4422   */\n      iszero\n      tag_144\n      jumpi\n        /* \"#utility.yul\":4149:4155   */\n      dup2\n        /* \"#utility.yul\":4143:4156   */\n      mload\n        /* \"#utility.yul\":4176:4299   */\n      tag_145\n        /* \"#utility.yul\":4295:4298   */\n      dup9\n        /* \"#utility.yul\":4280:4293   */\n      dup3\n        /* \"#utility.yul\":4176:4299   */\n      tag_96\n      jump\t// in\n    tag_145:\n        /* \"#utility.yul\":4169:4299   */\n      swap8\n      pop\n        /* \"#utility.yul\":4322:4412   */\n      tag_146\n        /* \"#utility.yul\":4405:4411   */\n      dup4\n        /* \"#utility.yul\":4322:4412   */\n      tag_97\n      jump\t// in\n    tag_146:\n        /* \"#utility.yul\":4312:4412   */\n      swap3\n      pop\n        /* \"#utility.yul\":4108:4422   */\n      pop\n        /* \"#utility.yul\":4095:4096   */\n      0x01\n        /* \"#utility.yul\":4092:4093   */\n      dup2\n        /* \"#utility.yul\":4088:4097   */\n      add\n        /* \"#utility.yul\":4083:4097   */\n      swap1\n      pop\n        /* \"#utility.yul\":4048:4422   */\n      jump(tag_142)\n    tag_144:\n        /* \"#utility.yul\":4052:4066   */\n      pop\n        /* \"#utility.yul\":4438:4441   */\n      dup6\n        /* \"#utility.yul\":4431:4441   */\n      swap4\n      pop\n        /* \"#utility.yul\":3659:4447   */\n      pop\n      pop\n      pop\n        /* \"#utility.yul\":3475:4447   */\n      swap3\n      swap2\n      pop\n      pop\n      jump\t// out\n        /* \"#utility.yul\":4453:4946   */\n    tag_16:\n        /* \"#utility.yul\":4656:4660   */\n      0x00\n        /* \"#utility.yul\":4694:4696   */\n      0x20\n        /* \"#utility.yul\":4683:4692   */\n      dup3\n        /* \"#utility.yul\":4679:4697   */\n      add\n        /* \"#utility.yul\":4671:4697   */\n      swap1\n      pop\n        /* \"#utility.yul\":4743:4752   */\n      dup2\n        /* \"#utility.yul\":4737:4741   */\n      dup2\n        /* \"#utility.yul\":4733:4753   */\n      sub\n        /* \"#utility.yul\":4729:4730   */\n      0x00\n        /* \"#utility.yul\":4718:4727   */\n      dup4\n        /* \"#utility.yul\":4714:4731   */\n      add\n        /* \"#utility.yul\":4707:4754   */\n      mstore\n        /* \"#utility.yul\":4771:4939   */\n      tag_148\n        /* \"#utility.yul\":4934:4938   */\n      dup2\n        /* \"#utility.yul\":4925:4931   */\n      dup5\n        /* \"#utility.yul\":4771:4939   */\n      tag_98\n      jump\t// in\n    tag_148:\n        /* \"#utility.yul\":4763:4939   */\n      swap1\n      pop\n        /* \"#utility.yul\":4453:4946   */\n      swap3\n      swap2\n      pop\n      pop\n      jump\t// out\n        /* \"#utility.yul\":4952:5070   */\n    tag_99:\n        /* \"#utility.yul\":5039:5063   */\n      tag_150\n        /* \"#utility.yul\":5057:5062   */\n      dup2\n        /* \"#utility.yul\":5039:5063   */\n      tag_92\n      jump\t// in\n    tag_150:\n        /* \"#utility.yul\":5034:5037   */\n      dup3\n        /* \"#utility.yul\":5027:5064   */\n      mstore\n        /* \"#utility.yul\":4952:5070   */\n      pop\n      pop\n      jump\t// out\n        /* \"#utility.yul\":5076:5298   */\n    tag_21:\n        /* \"#utility.yul\":5169:5173   */\n      0x00\n        /* \"#utility.yul\":5207:5209   */\n      0x20\n        /* \"#utility.yul\":5196:5205   */\n      dup3\n        /* \"#utility.yul\":5192:5210   */\n      add\n        /* \"#utility.yul\":5184:5210   */\n      swap1\n      pop\n        /* \"#utility.yul\":5220:5291   */\n      tag_152\n        /* \"#utility.yul\":5288:5289   */\n      0x00\n        /* \"#utility.yul\":5277:5286   */\n      dup4\n        /* \"#utility.yul\":5273:5290   */\n      add\n        /* \"#utility.yul\":5264:5270   */\n      dup5\n        /* \"#utility.yul\":5220:5291   */\n      tag_99\n      jump\t// in\n    tag_152:\n        /* \"#utility.yul\":5076:5298   */\n      swap3\n      swap2\n      pop\n      pop\n      jump\t// out\n        /* \"#utility.yul\":5304:5473   */\n    tag_100:\n        /* \"#utility.yul\":5388:5399   */\n      0x00\n        /* \"#utility.yul\":5422:5428   */\n      dup3\n        /* \"#utility.yul\":5417:5420   */\n      dup3\n        /* \"#utility.yul\":5410:5429   */\n      mstore\n        /* \"#utility.yul\":5462:5466   */\n      0x20\n        /* \"#utility.yul\":5457:5460   */\n      dup3\n        /* \"#utility.yul\":5453:5467   */\n      add\n        /* \"#utility.yul\":5438:5467   */\n      swap1\n      pop\n        /* \"#utility.yul\":5304:5473   */\n      swap3\n      swap2\n      pop\n      pop\n      jump\t// out\n        /* \"#utility.yul\":5479:5649   */\n    tag_101:\n        /* \"#utility.yul\":5619:5641   */\n      0x796f7520617265206e6f7420616e206f776e6572000000000000000000000000\n        /* \"#utility.yul\":5615:5616   */\n      0x00\n        /* \"#utility.yul\":5607:5613   */\n      dup3\n        /* \"#utility.yul\":5603:5617   */\n      add\n        /* \"#utility.yul\":5596:5642   */\n      mstore\n        /* \"#utility.yul\":5479:5649   */\n      pop\n      jump\t// out\n        /* \"#utility.yul\":5655:6021   */\n    tag_102:\n        /* \"#utility.yul\":5797:5800   */\n      0x00\n        /* \"#utility.yul\":5818:5885   */\n      tag_156\n        /* \"#utility.yul\":5882:5884   */\n      0x14\n        /* \"#utility.yul\":5877:5880   */\n      dup4\n        /* \"#utility.yul\":5818:5885   */\n      tag_100\n      jump\t// in\n    tag_156:\n        /* \"#utility.yul\":5811:5885   */\n      swap2\n      pop\n        /* \"#utility.yul\":5894:5987   */\n      tag_157\n        /* \"#utility.yul\":5983:5986   */\n      dup3\n        /* \"#utility.yul\":5894:5987   */\n      tag_101\n      jump\t// in\n    tag_157:\n        /* \"#utility.yul\":6012:6014   */\n      0x20\n        /* \"#utility.yul\":6007:6010   */\n      dup3\n        /* \"#utility.yul\":6003:6015   */\n      add\n        /* \"#utility.yul\":5996:6015   */\n      swap1\n      pop\n        /* \"#utility.yul\":5655:6021   */\n      swap2\n      swap1\n      pop\n      jump\t// out\n        /* \"#utility.yul\":6027:6446   */\n    tag_28:\n        /* \"#utility.yul\":6193:6197   */\n      0x00\n        /* \"#utility.yul\":6231:6233   */\n      0x20\n        /* \"#utility.yul\":6220:6229   */\n      dup3\n        /* \"#utility.yul\":6216:6234   */\n      add\n        /* \"#utility.yul\":6208:6234   */\n      swap1\n      pop\n        /* \"#utility.yul\":6280:6289   */\n      dup2\n        /* \"#utility.yul\":6274:6278   */\n      dup2\n        /* \"#utility.yul\":6270:6290   */\n      sub\n        /* \"#utility.yul\":6266:6267   */\n      0x00\n        /* \"#utility.yul\":6255:6264   */\n      dup4\n        /* \"#utility.yul\":6251:6268   */\n      add\n        /* \"#utility.yul\":6244:6291   */\n      mstore\n        /* \"#utility.yul\":6308:6439   */\n      tag_159\n        /* \"#utility.yul\":6434:6438   */\n      dup2\n        /* \"#utility.yul\":6308:6439   */\n      tag_102\n      jump\t// in\n    tag_159:\n        /* \"#utility.yul\":6300:6439   */\n      swap1\n      pop\n        /* \"#utility.yul\":6027:6446   */\n      swap2\n      swap1\n      pop\n      jump\t// out\n        /* \"#utility.yul\":6452:6632   */\n    tag_42:\n        /* \"#utility.yul\":6500:6577   */\n      0x4e487b7100000000000000000000000000000000000000000000000000000000\n        /* \"#utility.yul\":6497:6498   */\n      0x00\n        /* \"#utility.yul\":6490:6578   */\n      mstore\n        /* \"#utility.yul\":6597:6601   */\n      0x32\n        /* \"#utility.yul\":6594:6595   */\n      0x04\n        /* \"#utility.yul\":6587:6602   */\n      mstore\n        /* \"#utility.yul\":6621:6625   */\n      0x24\n        /* \"#utility.yul\":6618:6619   */\n      0x00\n        /* \"#utility.yul\":6611:6626   */\n      revert\n        /* \"#utility.yul\":6638:6818   */\n    tag_103:\n        /* \"#utility.yul\":6686:6763   */\n      0x4e487b7100000000000000000000000000000000000000000000000000000000\n        /* \"#utility.yul\":6683:6684   */\n      0x00\n        /* \"#utility.yul\":6676:6764   */\n      mstore\n        /* \"#utility.yul\":6783:6787   */\n      0x11\n        /* \"#utility.yul\":6780:6781   */\n      0x04\n        /* \"#utility.yul\":6773:6788   */\n      mstore\n        /* \"#utility.yul\":6807:6811   */\n      0x24\n        /* \"#utility.yul\":6804:6805   */\n      0x00\n        /* \"#utility.yul\":6797:6812   */\n      revert\n        /* \"#utility.yul\":6824:7015   */\n    tag_49:\n        /* \"#utility.yul\":6864:6867   */\n      0x00\n        /* \"#utility.yul\":6883:6903   */\n      tag_163\n        /* \"#utility.yul\":6901:6902   */\n      dup3\n        /* \"#utility.yul\":6883:6903   */\n      tag_84\n      jump\t// in\n    tag_163:\n        /* \"#utility.yul\":6878:6903   */\n      swap2\n      pop\n        /* \"#utility.yul\":6917:6937   */\n      tag_164\n        /* \"#utility.yul\":6935:6936   */\n      dup4\n        /* \"#utility.yul\":6917:6937   */\n      tag_84\n      jump\t// in\n    tag_164:\n        /* \"#utility.yul\":6912:6937   */\n      swap3\n      pop\n        /* \"#utility.yul\":6960:6961   */\n      dup3\n        /* \"#utility.yul\":6957:6958   */\n      dup3\n        /* \"#utility.yul\":6953:6962   */\n      add\n        /* \"#utility.yul\":6946:6962   */\n      swap1\n      pop\n        /* \"#utility.yul\":6981:6984   */\n      dup1\n        /* \"#utility.yul\":6978:6979   */\n      dup3\n        /* \"#utility.yul\":6975:6985   */\n      gt\n        /* \"#utility.yul\":6972:7008   */\n      iszero\n      tag_165\n      jumpi\n        /* \"#utility.yul\":6988:7006   */\n      tag_166\n      tag_103\n      jump\t// in\n    tag_166:\n        /* \"#utility.yul\":6972:7008   */\n    tag_165:\n        /* \"#utility.yul\":6824:7015   */\n      swap3\n      swap2\n      pop\n      pop\n      jump\t// out\n\n    auxdata: 0xa26469706673582212206fdef2490417e4645c9d5051654f5234892fc894f19b6e757566f6e0b0f50c1264736f6c63430008190033\n}\n",
				"bytecode": {
					"linkReferences": {},
					"object": "6080604052348015600e575f80fd5b503360015f6101000a81548173ffffffffffffffffffffffffffffffffffffffff021916908373ffffffffffffffffffffffffffffffffffffffff160217905550610a638061005c5f395ff3fe60806040526004361061003e575f3560e01c80632e1a7d4d14610042578063650d993b14610072578063893d20e81461009c578063d0e30db0146100c6575b5f80fd5b61005c6004803603810190610057919061076a565b6100e4565b60405161006991906107a4565b60405180910390f35b34801561007d575f80fd5b506100866101c0565b60405161009391906108e0565b60405180910390f35b3480156100a7575f80fd5b506100b0610279565b6040516100bd919061090f565b60405180910390f35b6100ce6102a1565b6040516100db91906107a4565b60405180910390f35b5f3373ffffffffffffffffffffffffffffffffffffffff1660015f9054906101000a900473ffffffffffffffffffffffffffffffffffffffff1673ffffffffffffffffffffffffffffffffffffffff1614610174576040517f08c379a000000000000000000000000000000000000000000000000000000000815260040161016b90610982565b60405180910390fd5b3373ffffffffffffffffffffffffffffffffffffffff166108fc8390811502906040515f60405180830381858888f193505050501580156101b7573d5f803e3d5ffd5b50819050919050565b60605f805480602002602001604051908101604052809291908181526020015f905b82821015610270578382905f5260205f2090600202016040518060400160405290815f82015f9054906101000a900473ffffffffffffffffffffffffffffffffffffffff1673ffffffffffffffffffffffffffffffffffffffff1673ffffffffffffffffffffffffffffffffffffffff168152602001600182015481525050815260200190600101906101e2565b50505050905090565b5f60015f9054906101000a900473ffffffffffffffffffffffffffffffffffffffff16905090565b5f805f5b5f8054905081101561036e573373ffffffffffffffffffffffffffffffffffffffff165f82815481106102db576102da6109a0565b5b905f5260205f2090600202015f015f9054906101000a900473ffffffffffffffffffffffffffffffffffffffff1673ffffffffffffffffffffffffffffffffffffffff160361036157345f8281548110610338576103376109a0565b5b905f5260205f2090600202016001015f82825461035591906109fa565b92505081905550600191505b80806001019150506102a5565b50600115158115151461041e575f60405180604001604052803373ffffffffffffffffffffffffffffffffffffffff16815260200134815250908060018154018082558091505060019003905f5260205f2090600202015f909190919091505f820151815f015f6101000a81548173ffffffffffffffffffffffffffffffffffffffff021916908373ffffffffffffffffffffffffffffffffffffffff1602179055506020820151816001015550505b5f5b5f805490508110156106ab575f60018261043a91906109fa565b90505b5f8054905081101561069d575f818154811061045c5761045b6109a0565b5b905f5260205f209060020201600101545f838154811061047f5761047e6109a0565b5b905f5260205f209060020201600101541015610690575f8083815481106104a9576104a86109a0565b5b905f5260205f2090600202016040518060400160405290815f82015f9054906101000a900473ffffffffffffffffffffffffffffffffffffffff1673ffffffffffffffffffffffffffffffffffffffff1673ffffffffffffffffffffffffffffffffffffffff16815260200160018201548152505090505f808381548110610534576105336109a0565b5b905f5260205f2090600202016040518060400160405290815f82015f9054906101000a900473ffffffffffffffffffffffffffffffffffffffff1673ffffffffffffffffffffffffffffffffffffffff1673ffffffffffffffffffffffffffffffffffffffff1681526020016001820154815250509050805f85815481106105bf576105be6109a0565b5b905f5260205f2090600202015f820151815f015f6101000a81548173ffffffffffffffffffffffffffffffffffffffff021916908373ffffffffffffffffffffffffffffffffffffffff16021790555060208201518160010155905050815f84815481106106305761062f6109a0565b5b905f5260205f2090600202015f820151815f015f6101000a81548173ffffffffffffffffffffffffffffffffffffffff021916908373ffffffffffffffffffffffffffffffffffffffff1602179055506020820151816001015590505050505b808060010191505061043d565b508080600101915050610420565b505f80815481106106bf576106be6109a0565b5b905f5260205f2090600202015f015f9054906101000a900473ffffffffffffffffffffffffffffffffffffffff1660015f6101000a81548173ffffffffffffffffffffffffffffffffffffffff021916908373ffffffffffffffffffffffffffffffffffffffff1602179055503491505090565b5f80fd5b5f819050919050565b61074981610737565b8114610753575f80fd5b50565b5f8135905061076481610740565b92915050565b5f6020828403121561077f5761077e610733565b5b5f61078c84828501610756565b91505092915050565b61079e81610737565b82525050565b5f6020820190506107b75f830184610795565b92915050565b5f81519050919050565b5f82825260208201905092915050565b5f819050602082019050919050565b5f73ffffffffffffffffffffffffffffffffffffffff82169050919050565b5f61080f826107e6565b9050919050565b61081f81610805565b82525050565b61082e81610737565b82525050565b604082015f8201516108485f850182610816565b50602082015161085b6020850182610825565b50505050565b5f61086c8383610834565b60408301905092915050565b5f602082019050919050565b5f61088e826107bd565b61089881856107c7565b93506108a3836107d7565b805f5b838110156108d35781516108ba8882610861565b97506108c583610878565b9250506001810190506108a6565b5085935050505092915050565b5f6020820190508181035f8301526108f88184610884565b905092915050565b61090981610805565b82525050565b5f6020820190506109225f830184610900565b92915050565b5f82825260208201905092915050565b7f796f7520617265206e6f7420616e206f776e65720000000000000000000000005f82015250565b5f61096c601483610928565b915061097782610938565b602082019050919050565b5f6020820190508181035f83015261099981610960565b9050919050565b7f4e487b71000000000000000000000000000000000000000000000000000000005f52603260045260245ffd5b7f4e487b71000000000000000000000000000000000000000000000000000000005f52601160045260245ffd5b5f610a0482610737565b9150610a0f83610737565b9250828201905080821115610a2757610a266109cd565b5b9291505056fea26469706673582212206fdef2490417e4645c9d5051654f5234892fc894f19b6e757566f6e0b0f50c1264736f6c63430008190033",
					"opcodes": "PUSH1 0x80 PUSH1 0x40 MSTORE CALLVALUE DUP1 ISZERO PUSH1 0xE JUMPI PUSH0 DUP1 REVERT JUMPDEST POP CALLER PUSH1 0x1 PUSH0 PUSH2 0x100 EXP DUP2 SLOAD DUP2 PUSH20 0xFFFFFFFFFFFFFFFFFFFFFFFFFFFFFFFFFFFFFFFF MUL NOT AND SWAP1 DUP4 PUSH20 0xFFFFFFFFFFFFFFFFFFFFFFFFFFFFFFFFFFFFFFFF AND MUL OR SWAP1 SSTORE POP PUSH2 0xA63 DUP1 PUSH2 0x5C PUSH0 CODECOPY PUSH0 RETURN INVALID PUSH1 0x80 PUSH1 0x40 MSTORE PUSH1 0x4 CALLDATASIZE LT PUSH2 0x3E JUMPI PUSH0 CALLDATALOAD PUSH1 0xE0 SHR DUP1 PUSH4 0x2E1A7D4D EQ PUSH2 0x42 JUMPI DUP1 PUSH4 0x650D993B EQ PUSH2 0x72 JUMPI DUP1 PUSH4 0x893D20E8 EQ PUSH2 0x9C JUMPI DUP1 PUSH4 0xD0E30DB0 EQ PUSH2 0xC6 JUMPI JUMPDEST PUSH0 DUP1 REVERT JUMPDEST PUSH2 0x5C PUSH1 0x4 DUP1 CALLDATASIZE SUB DUP2 ADD SWAP1 PUSH2 0x57 SWAP2 SWAP1 PUSH2 0x76A JUMP JUMPDEST PUSH2 0xE4 JUMP JUMPDEST PUSH1 0x40 MLOAD PUSH2 0x69 SWAP2 SWAP1 PUSH2 0x7A4 JUMP JUMPDEST PUSH1 0x40 MLOAD DUP1 SWAP2 SUB SWAP1 RETURN JUMPDEST CALLVALUE DUP1 ISZERO PUSH2 0x7D JUMPI PUSH0 DUP1 REVERT JUMPDEST POP PUSH2 0x86 PUSH2 0x1C0 JUMP JUMPDEST PUSH1 0x40 MLOAD PUSH2 0x93 SWAP2 SWAP1 PUSH2 0x8E0 JUMP JUMPDEST PUSH1 0x40 MLOAD DUP1 SWAP2 SUB SWAP1 RETURN JUMPDEST CALLVALUE DUP1 ISZERO PUSH2 0xA7 JUMPI PUSH0 DUP1 REVERT JUMPDEST POP PUSH2 0xB0 PUSH2 0x279 JUMP JUMPDEST PUSH1 0x40 MLOAD PUSH2 0xBD SWAP2 SWAP1 PUSH2 0x90F JUMP JUMPDEST PUSH1 0x40 MLOAD DUP1 SWAP2 SUB SWAP1 RETURN JUMPDEST PUSH2 0xCE PUSH2 0x2A1 JUMP JUMPDEST PUSH1 0x40 MLOAD PUSH2 0xDB SWAP2 SWAP1 PUSH2 0x7A4 JUMP JUMPDEST PUSH1 0x40 MLOAD DUP1 SWAP2 SUB SWAP1 RETURN JUMPDEST PUSH0 CALLER PUSH20 0xFFFFFFFFFFFFFFFFFFFFFFFFFFFFFFFFFFFFFFFF AND PUSH1 0x1 PUSH0 SWAP1 SLOAD SWAP1 PUSH2 0x100 EXP SWAP1 DIV PUSH20 0xFFFFFFFFFFFFFFFFFFFFFFFFFFFFFFFFFFFFFFFF AND PUSH20 0xFFFFFFFFFFFFFFFFFFFFFFFFFFFFFFFFFFFFFFFF AND EQ PUSH2 0x174 JUMPI PUSH1 0x40 MLOAD PUSH32 0x8C379A000000000000000000000000000000000000000000000000000000000 DUP2 MSTORE PUSH1 0x4 ADD PUSH2 0x16B SWAP1 PUSH2 0x982 JUMP JUMPDEST PUSH1 0x40 MLOAD DUP1 SWAP2 SUB SWAP1 REVERT JUMPDEST CALLER PUSH20 0xFFFFFFFFFFFFFFFFFFFFFFFFFFFFFFFFFFFFFFFF AND PUSH2 0x8FC DUP4 SWAP1 DUP2 ISZERO MUL SWAP1 PUSH1 0x40 MLOAD PUSH0 PUSH1 0x40 MLOAD DUP1 DUP4 SUB DUP2 DUP6 DUP9 DUP9 CALL SWAP4 POP POP POP POP ISZERO DUP1 ISZERO PUSH2 0x1B7 JUMPI RETURNDATASIZE PUSH0 DUP1 RETURNDATACOPY RETURNDATASIZE PUSH0 REVERT JUMPDEST POP DUP2 SWAP1 POP SWAP2 SWAP1 POP JUMP JUMPDEST PUSH1 0x60 PUSH0 DUP1 SLOAD DUP1 PUSH1 0x20 MUL PUSH1 0x20 ADD PUSH1 0x40 MLOAD SWAP1 DUP2 ADD PUSH1 0x40 MSTORE DUP1 SWAP3 SWAP2 SWAP1 DUP2 DUP2 MSTORE PUSH1 0x20 ADD PUSH0 SWAP1 JUMPDEST DUP3 DUP3 LT ISZERO PUSH2 0x270 JUMPI DUP4 DUP3 SWAP1 PUSH0 MSTORE PUSH1 0x20 PUSH0 KECCAK256 SWAP1 PUSH1 0x2 MUL ADD PUSH1 0x40 MLOAD DUP1 PUSH1 0x40 ADD PUSH1 0x40 MSTORE SWAP1 DUP2 PUSH0 DUP3 ADD PUSH0 SWAP1 SLOAD SWAP1 PUSH2 0x100 EXP SWAP1 DIV PUSH20 0xFFFFFFFFFFFFFFFFFFFFFFFFFFFFFFFFFFFFFFFF AND PUSH20 0xFFFFFFFFFFFFFFFFFFFFFFFFFFFFFFFFFFFFFFFF AND PUSH20 0xFFFFFFFFFFFFFFFFFFFFFFFFFFFFFFFFFFFFFFFF AND DUP2 MSTORE PUSH1 0x20 ADD PUSH1 0x1 DUP3 ADD SLOAD DUP2 MSTORE POP POP DUP2 MSTORE PUSH1 0x20 ADD SWAP1 PUSH1 0x1 ADD SWAP1 PUSH2 0x1E2 JUMP JUMPDEST POP POP POP POP SWAP1 POP SWAP1 JUMP JUMPDEST PUSH0 PUSH1 0x1 PUSH0 SWAP1 SLOAD SWAP1 PUSH2 0x100 EXP SWAP1 DIV PUSH20 0xFFFFFFFFFFFFFFFFFFFFFFFFFFFFFFFFFFFFFFFF AND SWAP1 POP SWAP1 JUMP JUMPDEST PUSH0 DUP1 PUSH0 JUMPDEST PUSH0 DUP1 SLOAD SWAP1 POP DUP2 LT ISZERO PUSH2 0x36E JUMPI CALLER PUSH20 0xFFFFFFFFFFFFFFFFFFFFFFFFFFFFFFFFFFFFFFFF AND PUSH0 DUP3 DUP2 SLOAD DUP2 LT PUSH2 0x2DB JUMPI PUSH2 0x2DA PUSH2 0x9A0 JUMP JUMPDEST JUMPDEST SWAP1 PUSH0 MSTORE PUSH1 0x20 PUSH0 KECCAK256 SWAP1 PUSH1 0x2 MUL ADD PUSH0 ADD PUSH0 SWAP1 SLOAD SWAP1 PUSH2 0x100 EXP SWAP1 DIV PUSH20 0xFFFFFFFFFFFFFFFFFFFFFFFFFFFFFFFFFFFFFFFF AND PUSH20 0xFFFFFFFFFFFFFFFFFFFFFFFFFFFFFFFFFFFFFFFF AND SUB PUSH2 0x361 JUMPI CALLVALUE PUSH0 DUP3 DUP2 SLOAD DUP2 LT PUSH2 0x338 JUMPI PUSH2 0x337 PUSH2 0x9A0 JUMP JUMPDEST JUMPDEST SWAP1 PUSH0 MSTORE PUSH1 0x20 PUSH0 KECCAK256 SWAP1 PUSH1 0x2 MUL ADD PUSH1 0x1 ADD PUSH0 DUP3 DUP3 SLOAD PUSH2 0x355 SWAP2 SWAP1 PUSH2 0x9FA JUMP JUMPDEST SWAP3 POP POP DUP2 SWAP1 SSTORE POP PUSH1 0x1 SWAP2 POP JUMPDEST DUP1 DUP1 PUSH1 0x1 ADD SWAP2 POP POP PUSH2 0x2A5 JUMP JUMPDEST POP PUSH1 0x1 ISZERO ISZERO DUP2 ISZERO ISZERO EQ PUSH2 0x41E JUMPI PUSH0 PUSH1 0x40 MLOAD DUP1 PUSH1 0x40 ADD PUSH1 0x40 MSTORE DUP1 CALLER PUSH20 0xFFFFFFFFFFFFFFFFFFFFFFFFFFFFFFFFFFFFFFFF AND DUP2 MSTORE PUSH1 0x20 ADD CALLVALUE DUP2 MSTORE POP SWAP1 DUP1 PUSH1 0x1 DUP2 SLOAD ADD DUP1 DUP3 SSTORE DUP1 SWAP2 POP POP PUSH1 0x1 SWAP1 SUB SWAP1 PUSH0 MSTORE PUSH1 0x20 PUSH0 KECCAK256 SWAP1 PUSH1 0x2 MUL ADD PUSH0 SWAP1 SWAP2 SWAP1 SWAP2 SWAP1 SWAP2 POP PUSH0 DUP3 ADD MLOAD DUP2 PUSH0 ADD PUSH0 PUSH2 0x100 EXP DUP2 SLOAD DUP2 PUSH20 0xFFFFFFFFFFFFFFFFFFFFFFFFFFFFFFFFFFFFFFFF MUL NOT AND SWAP1 DUP4 PUSH20 0xFFFFFFFFFFFFFFFFFFFFFFFFFFFFFFFFFFFFFFFF AND MUL OR SWAP1 SSTORE POP PUSH1 0x20 DUP3 ADD MLOAD DUP2 PUSH1 0x1 ADD SSTORE POP POP JUMPDEST PUSH0 JUMPDEST PUSH0 DUP1 SLOAD SWAP1 POP DUP2 LT ISZERO PUSH2 0x6AB JUMPI PUSH0 PUSH1 0x1 DUP3 PUSH2 0x43A SWAP2 SWAP1 PUSH2 0x9FA JUMP JUMPDEST SWAP1 POP JUMPDEST PUSH0 DUP1 SLOAD SWAP1 POP DUP2 LT ISZERO PUSH2 0x69D JUMPI PUSH0 DUP2 DUP2 SLOAD DUP2 LT PUSH2 0x45C JUMPI PUSH2 0x45B PUSH2 0x9A0 JUMP JUMPDEST JUMPDEST SWAP1 PUSH0 MSTORE PUSH1 0x20 PUSH0 KECCAK256 SWAP1 PUSH1 0x2 MUL ADD PUSH1 0x1 ADD SLOAD PUSH0 DUP4 DUP2 SLOAD DUP2 LT PUSH2 0x47F JUMPI PUSH2 0x47E PUSH2 0x9A0 JUMP JUMPDEST JUMPDEST SWAP1 PUSH0 MSTORE PUSH1 0x20 PUSH0 KECCAK256 SWAP1 PUSH1 0x2 MUL ADD PUSH1 0x1 ADD SLOAD LT ISZERO PUSH2 0x690 JUMPI PUSH0 DUP1 DUP4 DUP2 SLOAD DUP2 LT PUSH2 0x4A9 JUMPI PUSH2 0x4A8 PUSH2 0x9A0 JUMP JUMPDEST JUMPDEST SWAP1 PUSH0 MSTORE PUSH1 0x20 PUSH0 KECCAK256 SWAP1 PUSH1 0x2 MUL ADD PUSH1 0x40 MLOAD DUP1 PUSH1 0x40 ADD PUSH1 0x40 MSTORE SWAP1 DUP2 PUSH0 DUP3 ADD PUSH0 SWAP1 SLOAD SWAP1 PUSH2 0x100 EXP SWAP1 DIV PUSH20 0xFFFFFFFFFFFFFFFFFFFFFFFFFFFFFFFFFFFFFFFF AND PUSH20 0xFFFFFFFFFFFFFFFFFFFFFFFFFFFFFFFFFFFFFFFF AND PUSH20 0xFFFFFFFFFFFFFFFFFFFFFFFFFFFFFFFFFFFFFFFF AND DUP2 MSTORE PUSH1 0x20 ADD PUSH1 0x1 DUP3 ADD SLOAD DUP2 MSTORE POP POP SWAP1 POP PUSH0 DUP1 DUP4 DUP2 SLOAD DUP2 LT PUSH2 0x534 JUMPI PUSH2 0x533 PUSH2 0x9A0 JUMP JUMPDEST JUMPDEST SWAP1 PUSH0 MSTORE PUSH1 0x20 PUSH0 KECCAK256 SWAP1 PUSH1 0x2 MUL ADD PUSH1 0x40 MLOAD DUP1 PUSH1 0x40 ADD PUSH1 0x40 MSTORE SWAP1 DUP2 PUSH0 DUP3 ADD PUSH0 SWAP1 SLOAD SWAP1 PUSH2 0x100 EXP SWAP1 DIV PUSH20 0xFFFFFFFFFFFFFFFFFFFFFFFFFFFFFFFFFFFFFFFF AND PUSH20 0xFFFFFFFFFFFFFFFFFFFFFFFFFFFFFFFFFFFFFFFF AND PUSH20 0xFFFFFFFFFFFFFFFFFFFFFFFFFFFFFFFFFFFFFFFF AND DUP2 MSTORE PUSH1 0x20 ADD PUSH1 0x1 DUP3 ADD SLOAD DUP2 MSTORE POP POP SWAP1 POP DUP1 PUSH0 DUP6 DUP2 SLOAD DUP2 LT PUSH2 0x5BF JUMPI PUSH2 0x5BE PUSH2 0x9A0 JUMP JUMPDEST JUMPDEST SWAP1 PUSH0 MSTORE PUSH1 0x20 PUSH0 KECCAK256 SWAP1 PUSH1 0x2 MUL ADD PUSH0 DUP3 ADD MLOAD DUP2 PUSH0 ADD PUSH0 PUSH2 0x100 EXP DUP2 SLOAD DUP2 PUSH20 0xFFFFFFFFFFFFFFFFFFFFFFFFFFFFFFFFFFFFFFFF MUL NOT AND SWAP1 DUP4 PUSH20 0xFFFFFFFFFFFFFFFFFFFFFFFFFFFFFFFFFFFFFFFF AND MUL OR SWAP1 SSTORE POP PUSH1 0x20 DUP3 ADD MLOAD DUP2 PUSH1 0x1 ADD SSTORE SWAP1 POP POP DUP2 PUSH0 DUP5 DUP2 SLOAD DUP2 LT PUSH2 0x630 JUMPI PUSH2 0x62F PUSH2 0x9A0 JUMP JUMPDEST JUMPDEST SWAP1 PUSH0 MSTORE PUSH1 0x20 PUSH0 KECCAK256 SWAP1 PUSH1 0x2 MUL ADD PUSH0 DUP3 ADD MLOAD DUP2 PUSH0 ADD PUSH0 PUSH2 0x100 EXP DUP2 SLOAD DUP2 PUSH20 0xFFFFFFFFFFFFFFFFFFFFFFFFFFFFFFFFFFFFFFFF MUL NOT AND SWAP1 DUP4 PUSH20 0xFFFFFFFFFFFFFFFFFFFFFFFFFFFFFFFFFFFFFFFF AND MUL OR SWAP1 SSTORE POP PUSH1 0x20 DUP3 ADD MLOAD DUP2 PUSH1 0x1 ADD SSTORE SWAP1 POP POP POP POP JUMPDEST DUP1 DUP1 PUSH1 0x1 ADD SWAP2 POP POP PUSH2 0x43D JUMP JUMPDEST POP DUP1 DUP1 PUSH1 0x1 ADD SWAP2 POP POP PUSH2 0x420 JUMP JUMPDEST POP PUSH0 DUP1 DUP2 SLOAD DUP2 LT PUSH2 0x6BF JUMPI PUSH2 0x6BE PUSH2 0x9A0 JUMP JUMPDEST JUMPDEST SWAP1 PUSH0 MSTORE PUSH1 0x20 PUSH0 KECCAK256 SWAP1 PUSH1 0x2 MUL ADD PUSH0 ADD PUSH0 SWAP1 SLOAD SWAP1 PUSH2 0x100 EXP SWAP1 DIV PUSH20 0xFFFFFFFFFFFFFFFFFFFFFFFFFFFFFFFFFFFFFFFF AND PUSH1 0x1 PUSH0 PUSH2 0x100 EXP DUP2 SLOAD DUP2 PUSH20 0xFFFFFFFFFFFFFFFFFFFFFFFFFFFFFFFFFFFFFFFF MUL NOT AND SWAP1 DUP4 PUSH20 0xFFFFFFFFFFFFFFFFFFFFFFFFFFFFFFFFFFFFFFFF AND MUL OR SWAP1 SSTORE POP CALLVALUE SWAP2 POP POP SWAP1 JUMP JUMPDEST PUSH0 DUP1 REVERT JUMPDEST PUSH0 DUP2 SWAP1 POP SWAP2 SWAP1 POP JUMP JUMPDEST PUSH2 0x749 DUP2 PUSH2 0x737 JUMP JUMPDEST DUP2 EQ PUSH2 0x753 JUMPI PUSH0 DUP1 REVERT JUMPDEST POP JUMP JUMPDEST PUSH0 DUP2 CALLDATALOAD SWAP1 POP PUSH2 0x764 DUP2 PUSH2 0x740 JUMP JUMPDEST SWAP3 SWAP2 POP POP JUMP JUMPDEST PUSH0 PUSH1 0x20 DUP3 DUP5 SUB SLT ISZERO PUSH2 0x77F JUMPI PUSH2 0x77E PUSH2 0x733 JUMP JUMPDEST JUMPDEST PUSH0 PUSH2 0x78C DUP5 DUP3 DUP6 ADD PUSH2 0x756 JUMP JUMPDEST SWAP2 POP POP SWAP3 SWAP2 POP POP JUMP JUMPDEST PUSH2 0x79E DUP2 PUSH2 0x737 JUMP JUMPDEST DUP3 MSTORE POP POP JUMP JUMPDEST PUSH0 PUSH1 0x20 DUP3 ADD SWAP1 POP PUSH2 0x7B7 PUSH0 DUP4 ADD DUP5 PUSH2 0x795 JUMP JUMPDEST SWAP3 SWAP2 POP POP JUMP JUMPDEST PUSH0 DUP2 MLOAD SWAP1 POP SWAP2 SWAP1 POP JUMP JUMPDEST PUSH0 DUP3 DUP3 MSTORE PUSH1 0x20 DUP3 ADD SWAP1 POP SWAP3 SWAP2 POP POP JUMP JUMPDEST PUSH0 DUP2 SWAP1 POP PUSH1 0x20 DUP3 ADD SWAP1 POP SWAP2 SWAP1 POP JUMP JUMPDEST PUSH0 PUSH20 0xFFFFFFFFFFFFFFFFFFFFFFFFFFFFFFFFFFFFFFFF DUP3 AND SWAP1 POP SWAP2 SWAP1 POP JUMP JUMPDEST PUSH0 PUSH2 0x80F DUP3 PUSH2 0x7E6 JUMP JUMPDEST SWAP1 POP SWAP2 SWAP1 POP JUMP JUMPDEST PUSH2 0x81F DUP2 PUSH2 0x805 JUMP JUMPDEST DUP3 MSTORE POP POP JUMP JUMPDEST PUSH2 0x82E DUP2 PUSH2 0x737 JUMP JUMPDEST DUP3 MSTORE POP POP JUMP JUMPDEST PUSH1 0x40 DUP3 ADD PUSH0 DUP3 ADD MLOAD PUSH2 0x848 PUSH0 DUP6 ADD DUP3 PUSH2 0x816 JUMP JUMPDEST POP PUSH1 0x20 DUP3 ADD MLOAD PUSH2 0x85B PUSH1 0x20 DUP6 ADD DUP3 PUSH2 0x825 JUMP JUMPDEST POP POP POP POP JUMP JUMPDEST PUSH0 PUSH2 0x86C DUP4 DUP4 PUSH2 0x834 JUMP JUMPDEST PUSH1 0x40 DUP4 ADD SWAP1 POP SWAP3 SWAP2 POP POP JUMP JUMPDEST PUSH0 PUSH1 0x20 DUP3 ADD SWAP1 POP SWAP2 SWAP1 POP JUMP JUMPDEST PUSH0 PUSH2 0x88E DUP3 PUSH2 0x7BD JUMP JUMPDEST PUSH2 0x898 DUP2 DUP6 PUSH2 0x7C7 JUMP JUMPDEST SWAP4 POP PUSH2 0x8A3 DUP4 PUSH2 0x7D7 JUMP JUMPDEST DUP1 PUSH0 JUMPDEST DUP4 DUP2 LT ISZERO PUSH2 0x8D3 JUMPI DUP2 MLOAD PUSH2 0x8BA DUP9 DUP3 PUSH2 0x861 JUMP JUMPDEST SWAP8 POP PUSH2 0x8C5 DUP4 PUSH2 0x878 JUMP JUMPDEST SWAP3 POP POP PUSH1 0x1 DUP2 ADD SWAP1 POP PUSH2 0x8A6 JUMP JUMPDEST POP DUP6 SWAP4 POP POP POP POP SWAP3 SWAP2 POP POP JUMP JUMPDEST PUSH0 PUSH1 0x20 DUP3 ADD SWAP1 POP DUP2 DUP2 SUB PUSH0 DUP4 ADD MSTORE PUSH2 0x8F8 DUP2 DUP5 PUSH2 0x884 JUMP JUMPDEST SWAP1 POP SWAP3 SWAP2 POP POP JUMP JUMPDEST PUSH2 0x909 DUP2 PUSH2 0x805 JUMP JUMPDEST DUP3 MSTORE POP POP JUMP JUMPDEST PUSH0 PUSH1 0x20 DUP3 ADD SWAP1 POP PUSH2 0x922 PUSH0 DUP4 ADD DUP5 PUSH2 0x900 JUMP JUMPDEST SWAP3 SWAP2 POP POP JUMP JUMPDEST PUSH0 DUP3 DUP3 MSTORE PUSH1 0x20 DUP3 ADD SWAP1 POP SWAP3 SWAP2 POP POP JUMP JUMPDEST PUSH32 0x796F7520617265206E6F7420616E206F776E6572000000000000000000000000 PUSH0 DUP3 ADD MSTORE POP JUMP JUMPDEST PUSH0 PUSH2 0x96C PUSH1 0x14 DUP4 PUSH2 0x928 JUMP JUMPDEST SWAP2 POP PUSH2 0x977 DUP3 PUSH2 0x938 JUMP JUMPDEST PUSH1 0x20 DUP3 ADD SWAP1 POP SWAP2 SWAP1 POP JUMP JUMPDEST PUSH0 PUSH1 0x20 DUP3 ADD SWAP1 POP DUP2 DUP2 SUB PUSH0 DUP4 ADD MSTORE PUSH2 0x999 DUP2 PUSH2 0x960 JUMP JUMPDEST SWAP1 POP SWAP2 SWAP1 POP JUMP JUMPDEST PUSH32 0x4E487B7100000000000000000000000000000000000000000000000000000000 PUSH0 MSTORE PUSH1 0x32 PUSH1 0x4 MSTORE PUSH1 0x24 PUSH0 REVERT JUMPDEST PUSH32 0x4E487B7100000000000000000000000000000000000000000000000000000000 PUSH0 MSTORE PUSH1 0x11 PUSH1 0x4 MSTORE PUSH1 0x24 PUSH0 REVERT JUMPDEST PUSH0 PUSH2 0xA04 DUP3 PUSH2 0x737 JUMP JUMPDEST SWAP2 POP PUSH2 0xA0F DUP4 PUSH2 0x737 JUMP JUMPDEST SWAP3 POP DUP3 DUP3 ADD SWAP1 POP DUP1 DUP3 GT ISZERO PUSH2 0xA27 JUMPI PUSH2 0xA26 PUSH2 0x9CD JUMP JUMPDEST JUMPDEST SWAP3 SWAP2 POP POP JUMP INVALID LOG2 PUSH5 0x6970667358 0x22 SLT KECCAK256 PUSH16 0xDEF2490417E4645C9D5051654F523489 0x2F 0xC8 SWAP5 CALL SWAP12 PUSH15 0x757566F6E0B0F50C1264736F6C6343 STOP ADDMOD NOT STOP CALLER "
				},
				"gasEstimates": {
					"creation": {
						"codeDepositCost": "531800",
						"executionCost": "24831",
						"totalCost": "556631"
					},
					"external": {
						"deposit()": "infinite",
						"getCustomer()": "infinite",
						"getOwner()": "2537",
						"withdraw(uint256)": "infinite"
					}
				},
				"methodIdentifiers": {
					"deposit()": "d0e30db0",
					"getCustomer()": "650d993b",
					"getOwner()": "893d20e8",
					"withdraw(uint256)": "2e1a7d4d"
				}
			},
			"storageLayout": {
				"storage": [
					{
						"astId": 1525,
						"contract": "solidity_100/71-80.sol:Q73",
						"label": "customers",
						"offset": 0,
						"slot": "0",
						"type": "t_array(t_struct(depoCustomer)1521_storage)dyn_storage"
					},
					{
						"astId": 1527,
						"contract": "solidity_100/71-80.sol:Q73",
						"label": "owner",
						"offset": 0,
						"slot": "1",
						"type": "t_address"
					}
				],
				"types": {
					"t_address": {
						"encoding": "inplace",
						"label": "address",
						"numberOfBytes": "20"
					},
					"t_array(t_struct(depoCustomer)1521_storage)dyn_storage": {
						"base": "t_struct(depoCustomer)1521_storage",
						"encoding": "dynamic_array",
						"label": "struct Q73.depoCustomer[]",
						"numberOfBytes": "32"
					},
					"t_struct(depoCustomer)1521_storage": {
						"encoding": "inplace",
						"label": "struct Q73.depoCustomer",
						"members": [
							{
								"astId": 1518,
								"contract": "solidity_100/71-80.sol:Q73",
								"label": "wallet",
								"offset": 0,
								"slot": "0",
								"type": "t_address"
							},
							{
								"astId": 1520,
								"contract": "solidity_100/71-80.sol:Q73",
								"label": "depositAmount",
								"offset": 0,
								"slot": "1",
								"type": "t_uint256"
							}
						],
						"numberOfBytes": "64"
					},
					"t_uint256": {
						"encoding": "inplace",
						"label": "uint256",
						"numberOfBytes": "32"
					}
				}
			},
			"userdoc": {
				"kind": "user",
				"methods": {},
				"version": 1
			}
		}
	}
}