{
	"solidity_100/1-10.sol": {
		"Q1": {
			"abi": [
				{
					"inputs": [
						{
							"internalType": "uint256",
							"name": "_a",
							"type": "uint256"
						},
						{
							"internalType": "uint256",
							"name": "_b",
							"type": "uint256"
						},
						{
							"internalType": "string",
							"name": "_c",
							"type": "string"
						}
					],
					"name": "calculator",
					"outputs": [
						{
							"internalType": "uint256",
							"name": "",
							"type": "uint256"
						}
					],
					"stateMutability": "pure",
					"type": "function"
				}
			],
			"devdoc": {
				"kind": "dev",
				"methods": {},
				"version": 1
			},
			"evm": {
				"assembly": "    /* \"solidity_100/1-10.sol\":75:963  contract Q1 {... */\n  mstore(0x40, 0x80)\n  callvalue\n  dup1\n  iszero\n  tag_1\n  jumpi\n  0x00\n  dup1\n  revert\ntag_1:\n  pop\n  dataSize(sub_0)\n  dup1\n  dataOffset(sub_0)\n  0x00\n  codecopy\n  0x00\n  return\nstop\n\nsub_0: assembly {\n        /* \"solidity_100/1-10.sol\":75:963  contract Q1 {... */\n      mstore(0x40, 0x80)\n      callvalue\n      dup1\n      iszero\n      tag_1\n      jumpi\n      0x00\n      dup1\n      revert\n    tag_1:\n      pop\n      jumpi(tag_2, lt(calldatasize, 0x04))\n      shr(0xe0, calldataload(0x00))\n      dup1\n      0xae0cc94f\n      eq\n      tag_3\n      jumpi\n    tag_2:\n      0x00\n      dup1\n      revert\n        /* \"solidity_100/1-10.sol\":215:960  function calculator(uint _a, uint _b, string memory _c) public pure returns(uint) {... */\n    tag_3:\n      tag_4\n      0x04\n      dup1\n      calldatasize\n      sub\n      dup2\n      add\n      swap1\n      tag_5\n      swap2\n      swap1\n      tag_6\n      jump\t// in\n    tag_5:\n      tag_7\n      jump\t// in\n    tag_4:\n      mload(0x40)\n      tag_8\n      swap2\n      swap1\n      tag_9\n      jump\t// in\n    tag_8:\n      mload(0x40)\n      dup1\n      swap2\n      sub\n      swap1\n      return\n    tag_7:\n        /* \"solidity_100/1-10.sol\":291:295  uint */\n      0x00\n        /* \"solidity_100/1-10.sol\":356:377  abi.encodePacked(\"+\") */\n      add(0x20, mload(0x40))\n      tag_11\n      swap1\n      tag_12\n      jump\t// in\n    tag_11:\n      mload(0x40)\n      0x20\n      dup2\n      dup4\n      sub\n      sub\n      dup2\n      mstore\n      swap1\n      0x40\n      mstore\n        /* \"solidity_100/1-10.sol\":346:378  keccak256(abi.encodePacked(\"+\")) */\n      dup1\n      mload\n      swap1\n      0x20\n      add\n      keccak256\n        /* \"solidity_100/1-10.sol\":338:340  _c */\n      dup3\n        /* \"solidity_100/1-10.sol\":321:341  abi.encodePacked(_c) */\n      add(0x20, mload(0x40))\n      tag_13\n      swap2\n      swap1\n      tag_14\n      jump\t// in\n    tag_13:\n      mload(0x40)\n      0x20\n      dup2\n      dup4\n      sub\n      sub\n      dup2\n      mstore\n      swap1\n      0x40\n      mstore\n        /* \"solidity_100/1-10.sol\":311:342  keccak256(abi.encodePacked(_c)) */\n      dup1\n      mload\n      swap1\n      0x20\n      add\n      keccak256\n        /* \"solidity_100/1-10.sol\":311:378  keccak256(abi.encodePacked(_c)) == keccak256(abi.encodePacked(\"+\")) */\n      sub\n        /* \"solidity_100/1-10.sol\":308:953  if(keccak256(abi.encodePacked(_c)) == keccak256(abi.encodePacked(\"+\"))) {... */\n      tag_15\n      jumpi\n        /* \"solidity_100/1-10.sol\":407:409  _b */\n      dup3\n        /* \"solidity_100/1-10.sol\":402:404  _a */\n      dup5\n        /* \"solidity_100/1-10.sol\":402:409  _a + _b */\n      tag_16\n      swap2\n      swap1\n      tag_17\n      jump\t// in\n    tag_16:\n        /* \"solidity_100/1-10.sol\":395:409  return _a + _b */\n      swap1\n      pop\n      jump(tag_10)\n        /* \"solidity_100/1-10.sol\":308:953  if(keccak256(abi.encodePacked(_c)) == keccak256(abi.encodePacked(\"+\"))) {... */\n    tag_15:\n        /* \"solidity_100/1-10.sol\":475:496  abi.encodePacked(\"-\") */\n      add(0x20, mload(0x40))\n      tag_19\n      swap1\n      tag_20\n      jump\t// in\n    tag_19:\n      mload(0x40)\n      0x20\n      dup2\n      dup4\n      sub\n      sub\n      dup2\n      mstore\n      swap1\n      0x40\n      mstore\n        /* \"solidity_100/1-10.sol\":465:497  keccak256(abi.encodePacked(\"-\")) */\n      dup1\n      mload\n      swap1\n      0x20\n      add\n      keccak256\n        /* \"solidity_100/1-10.sol\":457:459  _c */\n      dup3\n        /* \"solidity_100/1-10.sol\":440:460  abi.encodePacked(_c) */\n      add(0x20, mload(0x40))\n      tag_21\n      swap2\n      swap1\n      tag_14\n      jump\t// in\n    tag_21:\n      mload(0x40)\n      0x20\n      dup2\n      dup4\n      sub\n      sub\n      dup2\n      mstore\n      swap1\n      0x40\n      mstore\n        /* \"solidity_100/1-10.sol\":430:461  keccak256(abi.encodePacked(_c)) */\n      dup1\n      mload\n      swap1\n      0x20\n      add\n      keccak256\n        /* \"solidity_100/1-10.sol\":430:497  keccak256(abi.encodePacked(_c)) == keccak256(abi.encodePacked(\"-\")) */\n      sub\n        /* \"solidity_100/1-10.sol\":427:953  if(keccak256(abi.encodePacked(_c)) == keccak256(abi.encodePacked(\"-\"))) {... */\n      tag_22\n      jumpi\n        /* \"solidity_100/1-10.sol\":526:528  _b */\n      dup3\n        /* \"solidity_100/1-10.sol\":521:523  _a */\n      dup5\n        /* \"solidity_100/1-10.sol\":521:528  _a - _b */\n      tag_23\n      swap2\n      swap1\n      tag_24\n      jump\t// in\n    tag_23:\n        /* \"solidity_100/1-10.sol\":514:528  return _a - _b */\n      swap1\n      pop\n      jump(tag_10)\n        /* \"solidity_100/1-10.sol\":427:953  if(keccak256(abi.encodePacked(_c)) == keccak256(abi.encodePacked(\"-\"))) {... */\n    tag_22:\n        /* \"solidity_100/1-10.sol\":594:615  abi.encodePacked(\"*\") */\n      add(0x20, mload(0x40))\n      tag_26\n      swap1\n      tag_27\n      jump\t// in\n    tag_26:\n      mload(0x40)\n      0x20\n      dup2\n      dup4\n      sub\n      sub\n      dup2\n      mstore\n      swap1\n      0x40\n      mstore\n        /* \"solidity_100/1-10.sol\":584:616  keccak256(abi.encodePacked(\"*\")) */\n      dup1\n      mload\n      swap1\n      0x20\n      add\n      keccak256\n        /* \"solidity_100/1-10.sol\":576:578  _c */\n      dup3\n        /* \"solidity_100/1-10.sol\":559:579  abi.encodePacked(_c) */\n      add(0x20, mload(0x40))\n      tag_28\n      swap2\n      swap1\n      tag_14\n      jump\t// in\n    tag_28:\n      mload(0x40)\n      0x20\n      dup2\n      dup4\n      sub\n      sub\n      dup2\n      mstore\n      swap1\n      0x40\n      mstore\n        /* \"solidity_100/1-10.sol\":549:580  keccak256(abi.encodePacked(_c)) */\n      dup1\n      mload\n      swap1\n      0x20\n      add\n      keccak256\n        /* \"solidity_100/1-10.sol\":549:616  keccak256(abi.encodePacked(_c)) == keccak256(abi.encodePacked(\"*\")) */\n      sub\n        /* \"solidity_100/1-10.sol\":546:953  if(keccak256(abi.encodePacked(_c)) == keccak256(abi.encodePacked(\"*\"))) {... */\n      tag_29\n      jumpi\n        /* \"solidity_100/1-10.sol\":645:647  _b */\n      dup3\n        /* \"solidity_100/1-10.sol\":640:642  _a */\n      dup5\n        /* \"solidity_100/1-10.sol\":640:647  _a * _b */\n      tag_30\n      swap2\n      swap1\n      tag_31\n      jump\t// in\n    tag_30:\n        /* \"solidity_100/1-10.sol\":633:647  return _a * _b */\n      swap1\n      pop\n      jump(tag_10)\n        /* \"solidity_100/1-10.sol\":546:953  if(keccak256(abi.encodePacked(_c)) == keccak256(abi.encodePacked(\"*\"))) {... */\n    tag_29:\n        /* \"solidity_100/1-10.sol\":713:734  abi.encodePacked(\"/\") */\n      add(0x20, mload(0x40))\n      tag_33\n      swap1\n      tag_34\n      jump\t// in\n    tag_33:\n      mload(0x40)\n      0x20\n      dup2\n      dup4\n      sub\n      sub\n      dup2\n      mstore\n      swap1\n      0x40\n      mstore\n        /* \"solidity_100/1-10.sol\":703:735  keccak256(abi.encodePacked(\"/\")) */\n      dup1\n      mload\n      swap1\n      0x20\n      add\n      keccak256\n        /* \"solidity_100/1-10.sol\":695:697  _c */\n      dup3\n        /* \"solidity_100/1-10.sol\":678:698  abi.encodePacked(_c) */\n      add(0x20, mload(0x40))\n      tag_35\n      swap2\n      swap1\n      tag_14\n      jump\t// in\n    tag_35:\n      mload(0x40)\n      0x20\n      dup2\n      dup4\n      sub\n      sub\n      dup2\n      mstore\n      swap1\n      0x40\n      mstore\n        /* \"solidity_100/1-10.sol\":668:699  keccak256(abi.encodePacked(_c)) */\n      dup1\n      mload\n      swap1\n      0x20\n      add\n      keccak256\n        /* \"solidity_100/1-10.sol\":668:735  keccak256(abi.encodePacked(_c)) == keccak256(abi.encodePacked(\"/\")) */\n      sub\n        /* \"solidity_100/1-10.sol\":665:953  if(keccak256(abi.encodePacked(_c)) == keccak256(abi.encodePacked(\"/\"))) {... */\n      tag_36\n      jumpi\n        /* \"solidity_100/1-10.sol\":764:766  _b */\n      dup3\n        /* \"solidity_100/1-10.sol\":759:761  _a */\n      dup5\n        /* \"solidity_100/1-10.sol\":759:766  _a / _b */\n      tag_37\n      swap2\n      swap1\n      tag_38\n      jump\t// in\n    tag_37:\n        /* \"solidity_100/1-10.sol\":752:766  return _a / _b */\n      swap1\n      pop\n      jump(tag_10)\n        /* \"solidity_100/1-10.sol\":665:953  if(keccak256(abi.encodePacked(_c)) == keccak256(abi.encodePacked(\"/\"))) {... */\n    tag_36:\n        /* \"solidity_100/1-10.sol\":832:854  abi.encodePacked(\"**\") */\n      add(0x20, mload(0x40))\n      tag_40\n      swap1\n      tag_41\n      jump\t// in\n    tag_40:\n      mload(0x40)\n      0x20\n      dup2\n      dup4\n      sub\n      sub\n      dup2\n      mstore\n      swap1\n      0x40\n      mstore\n        /* \"solidity_100/1-10.sol\":822:855  keccak256(abi.encodePacked(\"**\")) */\n      dup1\n      mload\n      swap1\n      0x20\n      add\n      keccak256\n        /* \"solidity_100/1-10.sol\":814:816  _c */\n      dup3\n        /* \"solidity_100/1-10.sol\":797:817  abi.encodePacked(_c) */\n      add(0x20, mload(0x40))\n      tag_42\n      swap2\n      swap1\n      tag_14\n      jump\t// in\n    tag_42:\n      mload(0x40)\n      0x20\n      dup2\n      dup4\n      sub\n      sub\n      dup2\n      mstore\n      swap1\n      0x40\n      mstore\n        /* \"solidity_100/1-10.sol\":787:818  keccak256(abi.encodePacked(_c)) */\n      dup1\n      mload\n      swap1\n      0x20\n      add\n      keccak256\n        /* \"solidity_100/1-10.sol\":787:855  keccak256(abi.encodePacked(_c)) == keccak256(abi.encodePacked(\"**\")) */\n      sub\n        /* \"solidity_100/1-10.sol\":784:953  if(keccak256(abi.encodePacked(_c)) == keccak256(abi.encodePacked(\"**\"))) {... */\n      tag_43\n      jumpi\n        /* \"solidity_100/1-10.sol\":885:887  _b */\n      dup3\n        /* \"solidity_100/1-10.sol\":879:881  _a */\n      dup5\n        /* \"solidity_100/1-10.sol\":879:887  _a ** _b */\n      tag_44\n      swap2\n      swap1\n      tag_45\n      jump\t// in\n    tag_44:\n        /* \"solidity_100/1-10.sol\":872:887  return _a ** _b */\n      swap1\n      pop\n      jump(tag_10)\n        /* \"solidity_100/1-10.sol\":784:953  if(keccak256(abi.encodePacked(_c)) == keccak256(abi.encodePacked(\"**\"))) {... */\n    tag_43:\n        /* \"solidity_100/1-10.sol\":920:941  revert(\"wrong input\") */\n      mload(0x40)\n      0x08c379a000000000000000000000000000000000000000000000000000000000\n      dup2\n      mstore\n      0x04\n      add\n      tag_47\n      swap1\n      tag_48\n      jump\t// in\n    tag_47:\n      mload(0x40)\n      dup1\n      swap2\n      sub\n      swap1\n      revert\n        /* \"solidity_100/1-10.sol\":215:960  function calculator(uint _a, uint _b, string memory _c) public pure returns(uint) {... */\n    tag_10:\n      swap4\n      swap3\n      pop\n      pop\n      pop\n      jump\t// out\n        /* \"#utility.yul\":7:82   */\n    tag_49:\n        /* \"#utility.yul\":40:46   */\n      0x00\n        /* \"#utility.yul\":73:75   */\n      0x40\n        /* \"#utility.yul\":67:76   */\n      mload\n        /* \"#utility.yul\":57:76   */\n      swap1\n      pop\n        /* \"#utility.yul\":7:82   */\n      swap1\n      jump\t// out\n        /* \"#utility.yul\":88:205   */\n    tag_50:\n        /* \"#utility.yul\":197:198   */\n      0x00\n        /* \"#utility.yul\":194:195   */\n      dup1\n        /* \"#utility.yul\":187:199   */\n      revert\n        /* \"#utility.yul\":211:328   */\n    tag_51:\n        /* \"#utility.yul\":320:321   */\n      0x00\n        /* \"#utility.yul\":317:318   */\n      dup1\n        /* \"#utility.yul\":310:322   */\n      revert\n        /* \"#utility.yul\":334:411   */\n    tag_52:\n        /* \"#utility.yul\":371:378   */\n      0x00\n        /* \"#utility.yul\":400:405   */\n      dup2\n        /* \"#utility.yul\":389:405   */\n      swap1\n      pop\n        /* \"#utility.yul\":334:411   */\n      swap2\n      swap1\n      pop\n      jump\t// out\n        /* \"#utility.yul\":417:539   */\n    tag_53:\n        /* \"#utility.yul\":490:514   */\n      tag_94\n        /* \"#utility.yul\":508:513   */\n      dup2\n        /* \"#utility.yul\":490:514   */\n      tag_52\n      jump\t// in\n    tag_94:\n        /* \"#utility.yul\":483:488   */\n      dup2\n        /* \"#utility.yul\":480:515   */\n      eq\n        /* \"#utility.yul\":470:533   */\n      tag_95\n      jumpi\n        /* \"#utility.yul\":529:530   */\n      0x00\n        /* \"#utility.yul\":526:527   */\n      dup1\n        /* \"#utility.yul\":519:531   */\n      revert\n        /* \"#utility.yul\":470:533   */\n    tag_95:\n        /* \"#utility.yul\":417:539   */\n      pop\n      jump\t// out\n        /* \"#utility.yul\":545:684   */\n    tag_54:\n        /* \"#utility.yul\":591:596   */\n      0x00\n        /* \"#utility.yul\":629:635   */\n      dup2\n        /* \"#utility.yul\":616:636   */\n      calldataload\n        /* \"#utility.yul\":607:636   */\n      swap1\n      pop\n        /* \"#utility.yul\":645:678   */\n      tag_97\n        /* \"#utility.yul\":672:677   */\n      dup2\n        /* \"#utility.yul\":645:678   */\n      tag_53\n      jump\t// in\n    tag_97:\n        /* \"#utility.yul\":545:684   */\n      swap3\n      swap2\n      pop\n      pop\n      jump\t// out\n        /* \"#utility.yul\":690:807   */\n    tag_55:\n        /* \"#utility.yul\":799:800   */\n      0x00\n        /* \"#utility.yul\":796:797   */\n      dup1\n        /* \"#utility.yul\":789:801   */\n      revert\n        /* \"#utility.yul\":813:930   */\n    tag_56:\n        /* \"#utility.yul\":922:923   */\n      0x00\n        /* \"#utility.yul\":919:920   */\n      dup1\n        /* \"#utility.yul\":912:924   */\n      revert\n        /* \"#utility.yul\":936:1038   */\n    tag_57:\n        /* \"#utility.yul\":977:983   */\n      0x00\n        /* \"#utility.yul\":1028:1030   */\n      0x1f\n        /* \"#utility.yul\":1024:1031   */\n      not\n        /* \"#utility.yul\":1019:1021   */\n      0x1f\n        /* \"#utility.yul\":1012:1017   */\n      dup4\n        /* \"#utility.yul\":1008:1022   */\n      add\n        /* \"#utility.yul\":1004:1032   */\n      and\n        /* \"#utility.yul\":994:1032   */\n      swap1\n      pop\n        /* \"#utility.yul\":936:1038   */\n      swap2\n      swap1\n      pop\n      jump\t// out\n        /* \"#utility.yul\":1044:1224   */\n    tag_58:\n        /* \"#utility.yul\":1092:1169   */\n      0x4e487b7100000000000000000000000000000000000000000000000000000000\n        /* \"#utility.yul\":1089:1090   */\n      0x00\n        /* \"#utility.yul\":1082:1170   */\n      mstore\n        /* \"#utility.yul\":1189:1193   */\n      0x41\n        /* \"#utility.yul\":1186:1187   */\n      0x04\n        /* \"#utility.yul\":1179:1194   */\n      mstore\n        /* \"#utility.yul\":1213:1217   */\n      0x24\n        /* \"#utility.yul\":1210:1211   */\n      0x00\n        /* \"#utility.yul\":1203:1218   */\n      revert\n        /* \"#utility.yul\":1230:1511   */\n    tag_59:\n        /* \"#utility.yul\":1313:1340   */\n      tag_103\n        /* \"#utility.yul\":1335:1339   */\n      dup3\n        /* \"#utility.yul\":1313:1340   */\n      tag_57\n      jump\t// in\n    tag_103:\n        /* \"#utility.yul\":1305:1311   */\n      dup2\n        /* \"#utility.yul\":1301:1341   */\n      add\n        /* \"#utility.yul\":1443:1449   */\n      dup2\n        /* \"#utility.yul\":1431:1441   */\n      dup2\n        /* \"#utility.yul\":1428:1450   */\n      lt\n        /* \"#utility.yul\":1407:1425   */\n      0xffffffffffffffff\n        /* \"#utility.yul\":1395:1405   */\n      dup3\n        /* \"#utility.yul\":1392:1426   */\n      gt\n        /* \"#utility.yul\":1389:1451   */\n      or\n        /* \"#utility.yul\":1386:1474   */\n      iszero\n      tag_104\n      jumpi\n        /* \"#utility.yul\":1454:1472   */\n      tag_105\n      tag_58\n      jump\t// in\n    tag_105:\n        /* \"#utility.yul\":1386:1474   */\n    tag_104:\n        /* \"#utility.yul\":1494:1504   */\n      dup1\n        /* \"#utility.yul\":1490:1492   */\n      0x40\n        /* \"#utility.yul\":1483:1505   */\n      mstore\n        /* \"#utility.yul\":1273:1511   */\n      pop\n        /* \"#utility.yul\":1230:1511   */\n      pop\n      pop\n      jump\t// out\n        /* \"#utility.yul\":1517:1646   */\n    tag_60:\n        /* \"#utility.yul\":1551:1557   */\n      0x00\n        /* \"#utility.yul\":1578:1598   */\n      tag_107\n      tag_49\n      jump\t// in\n    tag_107:\n        /* \"#utility.yul\":1568:1598   */\n      swap1\n      pop\n        /* \"#utility.yul\":1607:1640   */\n      tag_108\n        /* \"#utility.yul\":1635:1639   */\n      dup3\n        /* \"#utility.yul\":1627:1633   */\n      dup3\n        /* \"#utility.yul\":1607:1640   */\n      tag_59\n      jump\t// in\n    tag_108:\n        /* \"#utility.yul\":1517:1646   */\n      swap2\n      swap1\n      pop\n      jump\t// out\n        /* \"#utility.yul\":1652:1960   */\n    tag_61:\n        /* \"#utility.yul\":1714:1718   */\n      0x00\n        /* \"#utility.yul\":1804:1822   */\n      0xffffffffffffffff\n        /* \"#utility.yul\":1796:1802   */\n      dup3\n        /* \"#utility.yul\":1793:1823   */\n      gt\n        /* \"#utility.yul\":1790:1846   */\n      iszero\n      tag_110\n      jumpi\n        /* \"#utility.yul\":1826:1844   */\n      tag_111\n      tag_58\n      jump\t// in\n    tag_111:\n        /* \"#utility.yul\":1790:1846   */\n    tag_110:\n        /* \"#utility.yul\":1864:1893   */\n      tag_112\n        /* \"#utility.yul\":1886:1892   */\n      dup3\n        /* \"#utility.yul\":1864:1893   */\n      tag_57\n      jump\t// in\n    tag_112:\n        /* \"#utility.yul\":1856:1893   */\n      swap1\n      pop\n        /* \"#utility.yul\":1948:1952   */\n      0x20\n        /* \"#utility.yul\":1942:1946   */\n      dup2\n        /* \"#utility.yul\":1938:1953   */\n      add\n        /* \"#utility.yul\":1930:1953   */\n      swap1\n      pop\n        /* \"#utility.yul\":1652:1960   */\n      swap2\n      swap1\n      pop\n      jump\t// out\n        /* \"#utility.yul\":1966:2114   */\n    tag_62:\n        /* \"#utility.yul\":2064:2070   */\n      dup3\n        /* \"#utility.yul\":2059:2062   */\n      dup2\n        /* \"#utility.yul\":2054:2057   */\n      dup4\n        /* \"#utility.yul\":2041:2071   */\n      calldatacopy\n        /* \"#utility.yul\":2105:2106   */\n      0x00\n        /* \"#utility.yul\":2096:2102   */\n      dup4\n        /* \"#utility.yul\":2091:2094   */\n      dup4\n        /* \"#utility.yul\":2087:2103   */\n      add\n        /* \"#utility.yul\":2080:2107   */\n      mstore\n        /* \"#utility.yul\":1966:2114   */\n      pop\n      pop\n      pop\n      jump\t// out\n        /* \"#utility.yul\":2120:2545   */\n    tag_63:\n        /* \"#utility.yul\":2198:2203   */\n      0x00\n        /* \"#utility.yul\":2223:2289   */\n      tag_115\n        /* \"#utility.yul\":2239:2288   */\n      tag_116\n        /* \"#utility.yul\":2281:2287   */\n      dup5\n        /* \"#utility.yul\":2239:2288   */\n      tag_61\n      jump\t// in\n    tag_116:\n        /* \"#utility.yul\":2223:2289   */\n      tag_60\n      jump\t// in\n    tag_115:\n        /* \"#utility.yul\":2214:2289   */\n      swap1\n      pop\n        /* \"#utility.yul\":2312:2318   */\n      dup3\n        /* \"#utility.yul\":2305:2310   */\n      dup2\n        /* \"#utility.yul\":2298:2319   */\n      mstore\n        /* \"#utility.yul\":2350:2354   */\n      0x20\n        /* \"#utility.yul\":2343:2348   */\n      dup2\n        /* \"#utility.yul\":2339:2355   */\n      add\n        /* \"#utility.yul\":2388:2391   */\n      dup5\n        /* \"#utility.yul\":2379:2385   */\n      dup5\n        /* \"#utility.yul\":2374:2377   */\n      dup5\n        /* \"#utility.yul\":2370:2386   */\n      add\n        /* \"#utility.yul\":2367:2392   */\n      gt\n        /* \"#utility.yul\":2364:2476   */\n      iszero\n      tag_117\n      jumpi\n        /* \"#utility.yul\":2395:2474   */\n      tag_118\n      tag_56\n      jump\t// in\n    tag_118:\n        /* \"#utility.yul\":2364:2476   */\n    tag_117:\n        /* \"#utility.yul\":2485:2539   */\n      tag_119\n        /* \"#utility.yul\":2532:2538   */\n      dup5\n        /* \"#utility.yul\":2527:2530   */\n      dup3\n        /* \"#utility.yul\":2522:2525   */\n      dup6\n        /* \"#utility.yul\":2485:2539   */\n      tag_62\n      jump\t// in\n    tag_119:\n        /* \"#utility.yul\":2204:2545   */\n      pop\n        /* \"#utility.yul\":2120:2545   */\n      swap4\n      swap3\n      pop\n      pop\n      pop\n      jump\t// out\n        /* \"#utility.yul\":2565:2905   */\n    tag_64:\n        /* \"#utility.yul\":2621:2626   */\n      0x00\n        /* \"#utility.yul\":2670:2673   */\n      dup3\n        /* \"#utility.yul\":2663:2667   */\n      0x1f\n        /* \"#utility.yul\":2655:2661   */\n      dup4\n        /* \"#utility.yul\":2651:2668   */\n      add\n        /* \"#utility.yul\":2647:2674   */\n      slt\n        /* \"#utility.yul\":2637:2759   */\n      tag_121\n      jumpi\n        /* \"#utility.yul\":2678:2757   */\n      tag_122\n      tag_55\n      jump\t// in\n    tag_122:\n        /* \"#utility.yul\":2637:2759   */\n    tag_121:\n        /* \"#utility.yul\":2795:2801   */\n      dup2\n        /* \"#utility.yul\":2782:2802   */\n      calldataload\n        /* \"#utility.yul\":2820:2899   */\n      tag_123\n        /* \"#utility.yul\":2895:2898   */\n      dup5\n        /* \"#utility.yul\":2887:2893   */\n      dup3\n        /* \"#utility.yul\":2880:2884   */\n      0x20\n        /* \"#utility.yul\":2872:2878   */\n      dup7\n        /* \"#utility.yul\":2868:2885   */\n      add\n        /* \"#utility.yul\":2820:2899   */\n      tag_63\n      jump\t// in\n    tag_123:\n        /* \"#utility.yul\":2811:2899   */\n      swap2\n      pop\n        /* \"#utility.yul\":2627:2905   */\n      pop\n        /* \"#utility.yul\":2565:2905   */\n      swap3\n      swap2\n      pop\n      pop\n      jump\t// out\n        /* \"#utility.yul\":2911:3710   */\n    tag_6:\n        /* \"#utility.yul\":2998:3004   */\n      0x00\n        /* \"#utility.yul\":3006:3012   */\n      dup1\n        /* \"#utility.yul\":3014:3020   */\n      0x00\n        /* \"#utility.yul\":3063:3065   */\n      0x60\n        /* \"#utility.yul\":3051:3060   */\n      dup5\n        /* \"#utility.yul\":3042:3049   */\n      dup7\n        /* \"#utility.yul\":3038:3061   */\n      sub\n        /* \"#utility.yul\":3034:3066   */\n      slt\n        /* \"#utility.yul\":3031:3150   */\n      iszero\n      tag_125\n      jumpi\n        /* \"#utility.yul\":3069:3148   */\n      tag_126\n      tag_50\n      jump\t// in\n    tag_126:\n        /* \"#utility.yul\":3031:3150   */\n    tag_125:\n        /* \"#utility.yul\":3189:3190   */\n      0x00\n        /* \"#utility.yul\":3214:3267   */\n      tag_127\n        /* \"#utility.yul\":3259:3266   */\n      dup7\n        /* \"#utility.yul\":3250:3256   */\n      dup3\n        /* \"#utility.yul\":3239:3248   */\n      dup8\n        /* \"#utility.yul\":3235:3257   */\n      add\n        /* \"#utility.yul\":3214:3267   */\n      tag_54\n      jump\t// in\n    tag_127:\n        /* \"#utility.yul\":3204:3267   */\n      swap4\n      pop\n        /* \"#utility.yul\":3160:3277   */\n      pop\n        /* \"#utility.yul\":3316:3318   */\n      0x20\n        /* \"#utility.yul\":3342:3395   */\n      tag_128\n        /* \"#utility.yul\":3387:3394   */\n      dup7\n        /* \"#utility.yul\":3378:3384   */\n      dup3\n        /* \"#utility.yul\":3367:3376   */\n      dup8\n        /* \"#utility.yul\":3363:3385   */\n      add\n        /* \"#utility.yul\":3342:3395   */\n      tag_54\n      jump\t// in\n    tag_128:\n        /* \"#utility.yul\":3332:3395   */\n      swap3\n      pop\n        /* \"#utility.yul\":3287:3405   */\n      pop\n        /* \"#utility.yul\":3472:3474   */\n      0x40\n        /* \"#utility.yul\":3461:3470   */\n      dup5\n        /* \"#utility.yul\":3457:3475   */\n      add\n        /* \"#utility.yul\":3444:3476   */\n      calldataload\n        /* \"#utility.yul\":3503:3521   */\n      0xffffffffffffffff\n        /* \"#utility.yul\":3495:3501   */\n      dup2\n        /* \"#utility.yul\":3492:3522   */\n      gt\n        /* \"#utility.yul\":3489:3606   */\n      iszero\n      tag_129\n      jumpi\n        /* \"#utility.yul\":3525:3604   */\n      tag_130\n      tag_51\n      jump\t// in\n    tag_130:\n        /* \"#utility.yul\":3489:3606   */\n    tag_129:\n        /* \"#utility.yul\":3630:3693   */\n      tag_131\n        /* \"#utility.yul\":3685:3692   */\n      dup7\n        /* \"#utility.yul\":3676:3682   */\n      dup3\n        /* \"#utility.yul\":3665:3674   */\n      dup8\n        /* \"#utility.yul\":3661:3683   */\n      add\n        /* \"#utility.yul\":3630:3693   */\n      tag_64\n      jump\t// in\n    tag_131:\n        /* \"#utility.yul\":3620:3693   */\n      swap2\n      pop\n        /* \"#utility.yul\":3415:3703   */\n      pop\n        /* \"#utility.yul\":2911:3710   */\n      swap3\n      pop\n      swap3\n      pop\n      swap3\n      jump\t// out\n        /* \"#utility.yul\":3716:3834   */\n    tag_65:\n        /* \"#utility.yul\":3803:3827   */\n      tag_133\n        /* \"#utility.yul\":3821:3826   */\n      dup2\n        /* \"#utility.yul\":3803:3827   */\n      tag_52\n      jump\t// in\n    tag_133:\n        /* \"#utility.yul\":3798:3801   */\n      dup3\n        /* \"#utility.yul\":3791:3828   */\n      mstore\n        /* \"#utility.yul\":3716:3834   */\n      pop\n      pop\n      jump\t// out\n        /* \"#utility.yul\":3840:4062   */\n    tag_9:\n        /* \"#utility.yul\":3933:3937   */\n      0x00\n        /* \"#utility.yul\":3971:3973   */\n      0x20\n        /* \"#utility.yul\":3960:3969   */\n      dup3\n        /* \"#utility.yul\":3956:3974   */\n      add\n        /* \"#utility.yul\":3948:3974   */\n      swap1\n      pop\n        /* \"#utility.yul\":3984:4055   */\n      tag_135\n        /* \"#utility.yul\":4052:4053   */\n      0x00\n        /* \"#utility.yul\":4041:4050   */\n      dup4\n        /* \"#utility.yul\":4037:4054   */\n      add\n        /* \"#utility.yul\":4028:4034   */\n      dup5\n        /* \"#utility.yul\":3984:4055   */\n      tag_65\n      jump\t// in\n    tag_135:\n        /* \"#utility.yul\":3840:4062   */\n      swap3\n      swap2\n      pop\n      pop\n      jump\t// out\n        /* \"#utility.yul\":4068:4216   */\n    tag_66:\n        /* \"#utility.yul\":4170:4181   */\n      0x00\n        /* \"#utility.yul\":4207:4210   */\n      dup2\n        /* \"#utility.yul\":4192:4210   */\n      swap1\n      pop\n        /* \"#utility.yul\":4068:4216   */\n      swap3\n      swap2\n      pop\n      pop\n      jump\t// out\n        /* \"#utility.yul\":4222:4373   */\n    tag_67:\n        /* \"#utility.yul\":4362:4365   */\n      0x2b00000000000000000000000000000000000000000000000000000000000000\n        /* \"#utility.yul\":4358:4359   */\n      0x00\n        /* \"#utility.yul\":4350:4356   */\n      dup3\n        /* \"#utility.yul\":4346:4360   */\n      add\n        /* \"#utility.yul\":4339:4366   */\n      mstore\n        /* \"#utility.yul\":4222:4373   */\n      pop\n      jump\t// out\n        /* \"#utility.yul\":4379:4779   */\n    tag_68:\n        /* \"#utility.yul\":4539:4542   */\n      0x00\n        /* \"#utility.yul\":4560:4644   */\n      tag_139\n        /* \"#utility.yul\":4642:4643   */\n      0x01\n        /* \"#utility.yul\":4637:4640   */\n      dup4\n        /* \"#utility.yul\":4560:4644   */\n      tag_66\n      jump\t// in\n    tag_139:\n        /* \"#utility.yul\":4553:4644   */\n      swap2\n      pop\n        /* \"#utility.yul\":4653:4746   */\n      tag_140\n        /* \"#utility.yul\":4742:4745   */\n      dup3\n        /* \"#utility.yul\":4653:4746   */\n      tag_67\n      jump\t// in\n    tag_140:\n        /* \"#utility.yul\":4771:4772   */\n      0x01\n        /* \"#utility.yul\":4766:4769   */\n      dup3\n        /* \"#utility.yul\":4762:4773   */\n      add\n        /* \"#utility.yul\":4755:4773   */\n      swap1\n      pop\n        /* \"#utility.yul\":4379:4779   */\n      swap2\n      swap1\n      pop\n      jump\t// out\n        /* \"#utility.yul\":4785:5166   */\n    tag_12:\n        /* \"#utility.yul\":4970:4973   */\n      0x00\n        /* \"#utility.yul\":4992:5140   */\n      tag_142\n        /* \"#utility.yul\":5136:5139   */\n      dup3\n        /* \"#utility.yul\":4992:5140   */\n      tag_68\n      jump\t// in\n    tag_142:\n        /* \"#utility.yul\":4985:5140   */\n      swap2\n      pop\n        /* \"#utility.yul\":5157:5160   */\n      dup2\n        /* \"#utility.yul\":5150:5160   */\n      swap1\n      pop\n        /* \"#utility.yul\":4785:5166   */\n      swap2\n      swap1\n      pop\n      jump\t// out\n        /* \"#utility.yul\":5172:5271   */\n    tag_69:\n        /* \"#utility.yul\":5224:5230   */\n      0x00\n        /* \"#utility.yul\":5258:5263   */\n      dup2\n        /* \"#utility.yul\":5252:5264   */\n      mload\n        /* \"#utility.yul\":5242:5264   */\n      swap1\n      pop\n        /* \"#utility.yul\":5172:5271   */\n      swap2\n      swap1\n      pop\n      jump\t// out\n        /* \"#utility.yul\":5277:5416   */\n    tag_70:\n        /* \"#utility.yul\":5366:5372   */\n      dup3\n        /* \"#utility.yul\":5361:5364   */\n      dup2\n        /* \"#utility.yul\":5356:5359   */\n      dup4\n        /* \"#utility.yul\":5350:5373   */\n      mcopy\n        /* \"#utility.yul\":5407:5408   */\n      0x00\n        /* \"#utility.yul\":5398:5404   */\n      dup4\n        /* \"#utility.yul\":5393:5396   */\n      dup4\n        /* \"#utility.yul\":5389:5405   */\n      add\n        /* \"#utility.yul\":5382:5409   */\n      mstore\n        /* \"#utility.yul\":5277:5416   */\n      pop\n      pop\n      pop\n      jump\t// out\n        /* \"#utility.yul\":5422:5812   */\n    tag_71:\n        /* \"#utility.yul\":5528:5531   */\n      0x00\n        /* \"#utility.yul\":5556:5595   */\n      tag_146\n        /* \"#utility.yul\":5589:5594   */\n      dup3\n        /* \"#utility.yul\":5556:5595   */\n      tag_69\n      jump\t// in\n    tag_146:\n        /* \"#utility.yul\":5611:5700   */\n      tag_147\n        /* \"#utility.yul\":5693:5699   */\n      dup2\n        /* \"#utility.yul\":5688:5691   */\n      dup6\n        /* \"#utility.yul\":5611:5700   */\n      tag_66\n      jump\t// in\n    tag_147:\n        /* \"#utility.yul\":5604:5700   */\n      swap4\n      pop\n        /* \"#utility.yul\":5709:5774   */\n      tag_148\n        /* \"#utility.yul\":5767:5773   */\n      dup2\n        /* \"#utility.yul\":5762:5765   */\n      dup6\n        /* \"#utility.yul\":5755:5759   */\n      0x20\n        /* \"#utility.yul\":5748:5753   */\n      dup7\n        /* \"#utility.yul\":5744:5760   */\n      add\n        /* \"#utility.yul\":5709:5774   */\n      tag_70\n      jump\t// in\n    tag_148:\n        /* \"#utility.yul\":5799:5805   */\n      dup1\n        /* \"#utility.yul\":5794:5797   */\n      dup5\n        /* \"#utility.yul\":5790:5806   */\n      add\n        /* \"#utility.yul\":5783:5806   */\n      swap2\n      pop\n        /* \"#utility.yul\":5532:5812   */\n      pop\n        /* \"#utility.yul\":5422:5812   */\n      swap3\n      swap2\n      pop\n      pop\n      jump\t// out\n        /* \"#utility.yul\":5818:6093   */\n    tag_14:\n        /* \"#utility.yul\":5950:5953   */\n      0x00\n        /* \"#utility.yul\":5972:6067   */\n      tag_150\n        /* \"#utility.yul\":6063:6066   */\n      dup3\n        /* \"#utility.yul\":6054:6060   */\n      dup5\n        /* \"#utility.yul\":5972:6067   */\n      tag_71\n      jump\t// in\n    tag_150:\n        /* \"#utility.yul\":5965:6067   */\n      swap2\n      pop\n        /* \"#utility.yul\":6084:6087   */\n      dup2\n        /* \"#utility.yul\":6077:6087   */\n      swap1\n      pop\n        /* \"#utility.yul\":5818:6093   */\n      swap3\n      swap2\n      pop\n      pop\n      jump\t// out\n        /* \"#utility.yul\":6099:6279   */\n    tag_72:\n        /* \"#utility.yul\":6147:6224   */\n      0x4e487b7100000000000000000000000000000000000000000000000000000000\n        /* \"#utility.yul\":6144:6145   */\n      0x00\n        /* \"#utility.yul\":6137:6225   */\n      mstore\n        /* \"#utility.yul\":6244:6248   */\n      0x11\n        /* \"#utility.yul\":6241:6242   */\n      0x04\n        /* \"#utility.yul\":6234:6249   */\n      mstore\n        /* \"#utility.yul\":6268:6272   */\n      0x24\n        /* \"#utility.yul\":6265:6266   */\n      0x00\n        /* \"#utility.yul\":6258:6273   */\n      revert\n        /* \"#utility.yul\":6285:6476   */\n    tag_17:\n        /* \"#utility.yul\":6325:6328   */\n      0x00\n        /* \"#utility.yul\":6344:6364   */\n      tag_153\n        /* \"#utility.yul\":6362:6363   */\n      dup3\n        /* \"#utility.yul\":6344:6364   */\n      tag_52\n      jump\t// in\n    tag_153:\n        /* \"#utility.yul\":6339:6364   */\n      swap2\n      pop\n        /* \"#utility.yul\":6378:6398   */\n      tag_154\n        /* \"#utility.yul\":6396:6397   */\n      dup4\n        /* \"#utility.yul\":6378:6398   */\n      tag_52\n      jump\t// in\n    tag_154:\n        /* \"#utility.yul\":6373:6398   */\n      swap3\n      pop\n        /* \"#utility.yul\":6421:6422   */\n      dup3\n        /* \"#utility.yul\":6418:6419   */\n      dup3\n        /* \"#utility.yul\":6414:6423   */\n      add\n        /* \"#utility.yul\":6407:6423   */\n      swap1\n      pop\n        /* \"#utility.yul\":6442:6445   */\n      dup1\n        /* \"#utility.yul\":6439:6440   */\n      dup3\n        /* \"#utility.yul\":6436:6446   */\n      gt\n        /* \"#utility.yul\":6433:6469   */\n      iszero\n      tag_155\n      jumpi\n        /* \"#utility.yul\":6449:6467   */\n      tag_156\n      tag_72\n      jump\t// in\n    tag_156:\n        /* \"#utility.yul\":6433:6469   */\n    tag_155:\n        /* \"#utility.yul\":6285:6476   */\n      swap3\n      swap2\n      pop\n      pop\n      jump\t// out\n        /* \"#utility.yul\":6482:6633   */\n    tag_73:\n        /* \"#utility.yul\":6622:6625   */\n      0x2d00000000000000000000000000000000000000000000000000000000000000\n        /* \"#utility.yul\":6618:6619   */\n      0x00\n        /* \"#utility.yul\":6610:6616   */\n      dup3\n        /* \"#utility.yul\":6606:6620   */\n      add\n        /* \"#utility.yul\":6599:6626   */\n      mstore\n        /* \"#utility.yul\":6482:6633   */\n      pop\n      jump\t// out\n        /* \"#utility.yul\":6639:7039   */\n    tag_74:\n        /* \"#utility.yul\":6799:6802   */\n      0x00\n        /* \"#utility.yul\":6820:6904   */\n      tag_159\n        /* \"#utility.yul\":6902:6903   */\n      0x01\n        /* \"#utility.yul\":6897:6900   */\n      dup4\n        /* \"#utility.yul\":6820:6904   */\n      tag_66\n      jump\t// in\n    tag_159:\n        /* \"#utility.yul\":6813:6904   */\n      swap2\n      pop\n        /* \"#utility.yul\":6913:7006   */\n      tag_160\n        /* \"#utility.yul\":7002:7005   */\n      dup3\n        /* \"#utility.yul\":6913:7006   */\n      tag_73\n      jump\t// in\n    tag_160:\n        /* \"#utility.yul\":7031:7032   */\n      0x01\n        /* \"#utility.yul\":7026:7029   */\n      dup3\n        /* \"#utility.yul\":7022:7033   */\n      add\n        /* \"#utility.yul\":7015:7033   */\n      swap1\n      pop\n        /* \"#utility.yul\":6639:7039   */\n      swap2\n      swap1\n      pop\n      jump\t// out\n        /* \"#utility.yul\":7045:7426   */\n    tag_20:\n        /* \"#utility.yul\":7230:7233   */\n      0x00\n        /* \"#utility.yul\":7252:7400   */\n      tag_162\n        /* \"#utility.yul\":7396:7399   */\n      dup3\n        /* \"#utility.yul\":7252:7400   */\n      tag_74\n      jump\t// in\n    tag_162:\n        /* \"#utility.yul\":7245:7400   */\n      swap2\n      pop\n        /* \"#utility.yul\":7417:7420   */\n      dup2\n        /* \"#utility.yul\":7410:7420   */\n      swap1\n      pop\n        /* \"#utility.yul\":7045:7426   */\n      swap2\n      swap1\n      pop\n      jump\t// out\n        /* \"#utility.yul\":7432:7626   */\n    tag_24:\n        /* \"#utility.yul\":7472:7476   */\n      0x00\n        /* \"#utility.yul\":7492:7512   */\n      tag_164\n        /* \"#utility.yul\":7510:7511   */\n      dup3\n        /* \"#utility.yul\":7492:7512   */\n      tag_52\n      jump\t// in\n    tag_164:\n        /* \"#utility.yul\":7487:7512   */\n      swap2\n      pop\n        /* \"#utility.yul\":7526:7546   */\n      tag_165\n        /* \"#utility.yul\":7544:7545   */\n      dup4\n        /* \"#utility.yul\":7526:7546   */\n      tag_52\n      jump\t// in\n    tag_165:\n        /* \"#utility.yul\":7521:7546   */\n      swap3\n      pop\n        /* \"#utility.yul\":7570:7571   */\n      dup3\n        /* \"#utility.yul\":7567:7568   */\n      dup3\n        /* \"#utility.yul\":7563:7572   */\n      sub\n        /* \"#utility.yul\":7555:7572   */\n      swap1\n      pop\n        /* \"#utility.yul\":7594:7595   */\n      dup2\n        /* \"#utility.yul\":7588:7592   */\n      dup2\n        /* \"#utility.yul\":7585:7596   */\n      gt\n        /* \"#utility.yul\":7582:7619   */\n      iszero\n      tag_166\n      jumpi\n        /* \"#utility.yul\":7599:7617   */\n      tag_167\n      tag_72\n      jump\t// in\n    tag_167:\n        /* \"#utility.yul\":7582:7619   */\n    tag_166:\n        /* \"#utility.yul\":7432:7626   */\n      swap3\n      swap2\n      pop\n      pop\n      jump\t// out\n        /* \"#utility.yul\":7632:7783   */\n    tag_75:\n        /* \"#utility.yul\":7772:7775   */\n      0x2a00000000000000000000000000000000000000000000000000000000000000\n        /* \"#utility.yul\":7768:7769   */\n      0x00\n        /* \"#utility.yul\":7760:7766   */\n      dup3\n        /* \"#utility.yul\":7756:7770   */\n      add\n        /* \"#utility.yul\":7749:7776   */\n      mstore\n        /* \"#utility.yul\":7632:7783   */\n      pop\n      jump\t// out\n        /* \"#utility.yul\":7789:8189   */\n    tag_76:\n        /* \"#utility.yul\":7949:7952   */\n      0x00\n        /* \"#utility.yul\":7970:8054   */\n      tag_170\n        /* \"#utility.yul\":8052:8053   */\n      0x01\n        /* \"#utility.yul\":8047:8050   */\n      dup4\n        /* \"#utility.yul\":7970:8054   */\n      tag_66\n      jump\t// in\n    tag_170:\n        /* \"#utility.yul\":7963:8054   */\n      swap2\n      pop\n        /* \"#utility.yul\":8063:8156   */\n      tag_171\n        /* \"#utility.yul\":8152:8155   */\n      dup3\n        /* \"#utility.yul\":8063:8156   */\n      tag_75\n      jump\t// in\n    tag_171:\n        /* \"#utility.yul\":8181:8182   */\n      0x01\n        /* \"#utility.yul\":8176:8179   */\n      dup3\n        /* \"#utility.yul\":8172:8183   */\n      add\n        /* \"#utility.yul\":8165:8183   */\n      swap1\n      pop\n        /* \"#utility.yul\":7789:8189   */\n      swap2\n      swap1\n      pop\n      jump\t// out\n        /* \"#utility.yul\":8195:8576   */\n    tag_27:\n        /* \"#utility.yul\":8380:8383   */\n      0x00\n        /* \"#utility.yul\":8402:8550   */\n      tag_173\n        /* \"#utility.yul\":8546:8549   */\n      dup3\n        /* \"#utility.yul\":8402:8550   */\n      tag_76\n      jump\t// in\n    tag_173:\n        /* \"#utility.yul\":8395:8550   */\n      swap2\n      pop\n        /* \"#utility.yul\":8567:8570   */\n      dup2\n        /* \"#utility.yul\":8560:8570   */\n      swap1\n      pop\n        /* \"#utility.yul\":8195:8576   */\n      swap2\n      swap1\n      pop\n      jump\t// out\n        /* \"#utility.yul\":8582:8992   */\n    tag_31:\n        /* \"#utility.yul\":8622:8629   */\n      0x00\n        /* \"#utility.yul\":8645:8665   */\n      tag_175\n        /* \"#utility.yul\":8663:8664   */\n      dup3\n        /* \"#utility.yul\":8645:8665   */\n      tag_52\n      jump\t// in\n    tag_175:\n        /* \"#utility.yul\":8640:8665   */\n      swap2\n      pop\n        /* \"#utility.yul\":8679:8699   */\n      tag_176\n        /* \"#utility.yul\":8697:8698   */\n      dup4\n        /* \"#utility.yul\":8679:8699   */\n      tag_52\n      jump\t// in\n    tag_176:\n        /* \"#utility.yul\":8674:8699   */\n      swap3\n      pop\n        /* \"#utility.yul\":8734:8735   */\n      dup3\n        /* \"#utility.yul\":8731:8732   */\n      dup3\n        /* \"#utility.yul\":8727:8736   */\n      mul\n        /* \"#utility.yul\":8756:8786   */\n      tag_177\n        /* \"#utility.yul\":8774:8785   */\n      dup2\n        /* \"#utility.yul\":8756:8786   */\n      tag_52\n      jump\t// in\n    tag_177:\n        /* \"#utility.yul\":8745:8786   */\n      swap2\n      pop\n        /* \"#utility.yul\":8935:8936   */\n      dup3\n        /* \"#utility.yul\":8926:8933   */\n      dup3\n        /* \"#utility.yul\":8922:8937   */\n      div\n        /* \"#utility.yul\":8919:8920   */\n      dup5\n        /* \"#utility.yul\":8916:8938   */\n      eq\n        /* \"#utility.yul\":8896:8897   */\n      dup4\n        /* \"#utility.yul\":8889:8898   */\n      iszero\n        /* \"#utility.yul\":8869:8952   */\n      or\n        /* \"#utility.yul\":8846:8985   */\n      tag_178\n      jumpi\n        /* \"#utility.yul\":8965:8983   */\n      tag_179\n      tag_72\n      jump\t// in\n    tag_179:\n        /* \"#utility.yul\":8846:8985   */\n    tag_178:\n        /* \"#utility.yul\":8630:8992   */\n      pop\n        /* \"#utility.yul\":8582:8992   */\n      swap3\n      swap2\n      pop\n      pop\n      jump\t// out\n        /* \"#utility.yul\":8998:9149   */\n    tag_77:\n        /* \"#utility.yul\":9138:9141   */\n      0x2f00000000000000000000000000000000000000000000000000000000000000\n        /* \"#utility.yul\":9134:9135   */\n      0x00\n        /* \"#utility.yul\":9126:9132   */\n      dup3\n        /* \"#utility.yul\":9122:9136   */\n      add\n        /* \"#utility.yul\":9115:9142   */\n      mstore\n        /* \"#utility.yul\":8998:9149   */\n      pop\n      jump\t// out\n        /* \"#utility.yul\":9155:9555   */\n    tag_78:\n        /* \"#utility.yul\":9315:9318   */\n      0x00\n        /* \"#utility.yul\":9336:9420   */\n      tag_182\n        /* \"#utility.yul\":9418:9419   */\n      0x01\n        /* \"#utility.yul\":9413:9416   */\n      dup4\n        /* \"#utility.yul\":9336:9420   */\n      tag_66\n      jump\t// in\n    tag_182:\n        /* \"#utility.yul\":9329:9420   */\n      swap2\n      pop\n        /* \"#utility.yul\":9429:9522   */\n      tag_183\n        /* \"#utility.yul\":9518:9521   */\n      dup3\n        /* \"#utility.yul\":9429:9522   */\n      tag_77\n      jump\t// in\n    tag_183:\n        /* \"#utility.yul\":9547:9548   */\n      0x01\n        /* \"#utility.yul\":9542:9545   */\n      dup3\n        /* \"#utility.yul\":9538:9549   */\n      add\n        /* \"#utility.yul\":9531:9549   */\n      swap1\n      pop\n        /* \"#utility.yul\":9155:9555   */\n      swap2\n      swap1\n      pop\n      jump\t// out\n        /* \"#utility.yul\":9561:9942   */\n    tag_34:\n        /* \"#utility.yul\":9746:9749   */\n      0x00\n        /* \"#utility.yul\":9768:9916   */\n      tag_185\n        /* \"#utility.yul\":9912:9915   */\n      dup3\n        /* \"#utility.yul\":9768:9916   */\n      tag_78\n      jump\t// in\n    tag_185:\n        /* \"#utility.yul\":9761:9916   */\n      swap2\n      pop\n        /* \"#utility.yul\":9933:9936   */\n      dup2\n        /* \"#utility.yul\":9926:9936   */\n      swap1\n      pop\n        /* \"#utility.yul\":9561:9942   */\n      swap2\n      swap1\n      pop\n      jump\t// out\n        /* \"#utility.yul\":9948:10128   */\n    tag_79:\n        /* \"#utility.yul\":9996:10073   */\n      0x4e487b7100000000000000000000000000000000000000000000000000000000\n        /* \"#utility.yul\":9993:9994   */\n      0x00\n        /* \"#utility.yul\":9986:10074   */\n      mstore\n        /* \"#utility.yul\":10093:10097   */\n      0x12\n        /* \"#utility.yul\":10090:10091   */\n      0x04\n        /* \"#utility.yul\":10083:10098   */\n      mstore\n        /* \"#utility.yul\":10117:10121   */\n      0x24\n        /* \"#utility.yul\":10114:10115   */\n      0x00\n        /* \"#utility.yul\":10107:10122   */\n      revert\n        /* \"#utility.yul\":10134:10319   */\n    tag_38:\n        /* \"#utility.yul\":10174:10175   */\n      0x00\n        /* \"#utility.yul\":10191:10211   */\n      tag_188\n        /* \"#utility.yul\":10209:10210   */\n      dup3\n        /* \"#utility.yul\":10191:10211   */\n      tag_52\n      jump\t// in\n    tag_188:\n        /* \"#utility.yul\":10186:10211   */\n      swap2\n      pop\n        /* \"#utility.yul\":10225:10245   */\n      tag_189\n        /* \"#utility.yul\":10243:10244   */\n      dup4\n        /* \"#utility.yul\":10225:10245   */\n      tag_52\n      jump\t// in\n    tag_189:\n        /* \"#utility.yul\":10220:10245   */\n      swap3\n      pop\n        /* \"#utility.yul\":10264:10265   */\n      dup3\n        /* \"#utility.yul\":10254:10289   */\n      tag_190\n      jumpi\n        /* \"#utility.yul\":10269:10287   */\n      tag_191\n      tag_79\n      jump\t// in\n    tag_191:\n        /* \"#utility.yul\":10254:10289   */\n    tag_190:\n        /* \"#utility.yul\":10311:10312   */\n      dup3\n        /* \"#utility.yul\":10308:10309   */\n      dup3\n        /* \"#utility.yul\":10304:10313   */\n      div\n        /* \"#utility.yul\":10299:10313   */\n      swap1\n      pop\n        /* \"#utility.yul\":10134:10319   */\n      swap3\n      swap2\n      pop\n      pop\n      jump\t// out\n        /* \"#utility.yul\":10325:10477   */\n    tag_80:\n        /* \"#utility.yul\":10465:10469   */\n      0x2a2a000000000000000000000000000000000000000000000000000000000000\n        /* \"#utility.yul\":10461:10462   */\n      0x00\n        /* \"#utility.yul\":10453:10459   */\n      dup3\n        /* \"#utility.yul\":10449:10463   */\n      add\n        /* \"#utility.yul\":10442:10470   */\n      mstore\n        /* \"#utility.yul\":10325:10477   */\n      pop\n      jump\t// out\n        /* \"#utility.yul\":10483:10883   */\n    tag_81:\n        /* \"#utility.yul\":10643:10646   */\n      0x00\n        /* \"#utility.yul\":10664:10748   */\n      tag_194\n        /* \"#utility.yul\":10746:10747   */\n      0x02\n        /* \"#utility.yul\":10741:10744   */\n      dup4\n        /* \"#utility.yul\":10664:10748   */\n      tag_66\n      jump\t// in\n    tag_194:\n        /* \"#utility.yul\":10657:10748   */\n      swap2\n      pop\n        /* \"#utility.yul\":10757:10850   */\n      tag_195\n        /* \"#utility.yul\":10846:10849   */\n      dup3\n        /* \"#utility.yul\":10757:10850   */\n      tag_80\n      jump\t// in\n    tag_195:\n        /* \"#utility.yul\":10875:10876   */\n      0x02\n        /* \"#utility.yul\":10870:10873   */\n      dup3\n        /* \"#utility.yul\":10866:10877   */\n      add\n        /* \"#utility.yul\":10859:10877   */\n      swap1\n      pop\n        /* \"#utility.yul\":10483:10883   */\n      swap2\n      swap1\n      pop\n      jump\t// out\n        /* \"#utility.yul\":10889:11270   */\n    tag_41:\n        /* \"#utility.yul\":11074:11077   */\n      0x00\n        /* \"#utility.yul\":11096:11244   */\n      tag_197\n        /* \"#utility.yul\":11240:11243   */\n      dup3\n        /* \"#utility.yul\":11096:11244   */\n      tag_81\n      jump\t// in\n    tag_197:\n        /* \"#utility.yul\":11089:11244   */\n      swap2\n      pop\n        /* \"#utility.yul\":11261:11264   */\n      dup2\n        /* \"#utility.yul\":11254:11264   */\n      swap1\n      pop\n        /* \"#utility.yul\":10889:11270   */\n      swap2\n      swap1\n      pop\n      jump\t// out\n        /* \"#utility.yul\":11276:11378   */\n    tag_82:\n        /* \"#utility.yul\":11318:11326   */\n      0x00\n        /* \"#utility.yul\":11365:11370   */\n      dup2\n        /* \"#utility.yul\":11362:11363   */\n      0x01\n        /* \"#utility.yul\":11358:11371   */\n      shr\n        /* \"#utility.yul\":11337:11371   */\n      swap1\n      pop\n        /* \"#utility.yul\":11276:11378   */\n      swap2\n      swap1\n      pop\n      jump\t// out\n        /* \"#utility.yul\":11384:12232   */\n    tag_83:\n        /* \"#utility.yul\":11445:11450   */\n      0x00\n        /* \"#utility.yul\":11452:11456   */\n      dup1\n        /* \"#utility.yul\":11476:11482   */\n      dup3\n        /* \"#utility.yul\":11467:11482   */\n      swap2\n      pop\n        /* \"#utility.yul\":11500:11505   */\n      dup4\n        /* \"#utility.yul\":11491:11505   */\n      swap1\n      pop\n        /* \"#utility.yul\":11514:12226   */\n    tag_200:\n        /* \"#utility.yul\":11535:11536   */\n      0x01\n        /* \"#utility.yul\":11525:11533   */\n      dup6\n        /* \"#utility.yul\":11522:11537   */\n      gt\n        /* \"#utility.yul\":11514:12226   */\n      iszero\n      tag_202\n      jumpi\n        /* \"#utility.yul\":11630:11634   */\n      dup1\n        /* \"#utility.yul\":11625:11628   */\n      dup7\n        /* \"#utility.yul\":11621:11635   */\n      div\n        /* \"#utility.yul\":11615:11619   */\n      dup2\n        /* \"#utility.yul\":11612:11636   */\n      gt\n        /* \"#utility.yul\":11609:11659   */\n      iszero\n      tag_203\n      jumpi\n        /* \"#utility.yul\":11639:11657   */\n      tag_204\n      tag_72\n      jump\t// in\n    tag_204:\n        /* \"#utility.yul\":11609:11659   */\n    tag_203:\n        /* \"#utility.yul\":11689:11690   */\n      0x01\n        /* \"#utility.yul\":11679:11687   */\n      dup6\n        /* \"#utility.yul\":11675:11691   */\n      and\n        /* \"#utility.yul\":11672:12123   */\n      iszero\n      tag_205\n      jumpi\n        /* \"#utility.yul\":12104:12108   */\n      dup1\n        /* \"#utility.yul\":12097:12102   */\n      dup3\n        /* \"#utility.yul\":12093:12109   */\n      mul\n        /* \"#utility.yul\":12084:12109   */\n      swap2\n      pop\n        /* \"#utility.yul\":11672:12123   */\n    tag_205:\n        /* \"#utility.yul\":12154:12158   */\n      dup1\n        /* \"#utility.yul\":12148:12152   */\n      dup2\n        /* \"#utility.yul\":12144:12159   */\n      mul\n        /* \"#utility.yul\":12136:12159   */\n      swap1\n      pop\n        /* \"#utility.yul\":12184:12216   */\n      tag_206\n        /* \"#utility.yul\":12207:12215   */\n      dup6\n        /* \"#utility.yul\":12184:12216   */\n      tag_82\n      jump\t// in\n    tag_206:\n        /* \"#utility.yul\":12172:12216   */\n      swap5\n      pop\n        /* \"#utility.yul\":11514:12226   */\n      jump(tag_200)\n    tag_202:\n        /* \"#utility.yul\":11384:12232   */\n      swap5\n      pop\n      swap5\n      swap3\n      pop\n      pop\n      pop\n      jump\t// out\n        /* \"#utility.yul\":12238:13311   */\n    tag_84:\n        /* \"#utility.yul\":12292:12297   */\n      0x00\n        /* \"#utility.yul\":12483:12491   */\n      dup3\n        /* \"#utility.yul\":12473:12513   */\n      tag_208\n      jumpi\n        /* \"#utility.yul\":12504:12505   */\n      0x01\n        /* \"#utility.yul\":12495:12505   */\n      swap1\n      pop\n        /* \"#utility.yul\":12506:12511   */\n      jump(tag_207)\n        /* \"#utility.yul\":12473:12513   */\n    tag_208:\n        /* \"#utility.yul\":12532:12536   */\n      dup2\n        /* \"#utility.yul\":12522:12558   */\n      tag_209\n      jumpi\n        /* \"#utility.yul\":12549:12550   */\n      0x00\n        /* \"#utility.yul\":12540:12550   */\n      swap1\n      pop\n        /* \"#utility.yul\":12551:12556   */\n      jump(tag_207)\n        /* \"#utility.yul\":12522:12558   */\n    tag_209:\n        /* \"#utility.yul\":12618:12622   */\n      dup2\n        /* \"#utility.yul\":12666:12667   */\n      0x01\n        /* \"#utility.yul\":12661:12688   */\n      dup2\n      eq\n      tag_211\n      jumpi\n        /* \"#utility.yul\":12702:12703   */\n      0x02\n        /* \"#utility.yul\":12697:12888   */\n      dup2\n      eq\n      tag_212\n      jumpi\n        /* \"#utility.yul\":12611:12888   */\n      jump(tag_210)\n        /* \"#utility.yul\":12661:12688   */\n    tag_211:\n        /* \"#utility.yul\":12679:12680   */\n      0x01\n        /* \"#utility.yul\":12670:12680   */\n      swap2\n      pop\n        /* \"#utility.yul\":12681:12686   */\n      pop\n      jump(tag_207)\n        /* \"#utility.yul\":12697:12888   */\n    tag_212:\n        /* \"#utility.yul\":12742:12745   */\n      0xff\n        /* \"#utility.yul\":12732:12740   */\n      dup5\n        /* \"#utility.yul\":12729:12746   */\n      gt\n        /* \"#utility.yul\":12726:12769   */\n      iszero\n      tag_213\n      jumpi\n        /* \"#utility.yul\":12749:12767   */\n      tag_214\n      tag_72\n      jump\t// in\n    tag_214:\n        /* \"#utility.yul\":12726:12769   */\n    tag_213:\n        /* \"#utility.yul\":12798:12806   */\n      dup4\n        /* \"#utility.yul\":12795:12796   */\n      0x02\n        /* \"#utility.yul\":12791:12807   */\n      exp\n        /* \"#utility.yul\":12782:12807   */\n      swap2\n      pop\n        /* \"#utility.yul\":12833:12836   */\n      dup5\n        /* \"#utility.yul\":12826:12831   */\n      dup3\n        /* \"#utility.yul\":12823:12837   */\n      gt\n        /* \"#utility.yul\":12820:12860   */\n      iszero\n      tag_215\n      jumpi\n        /* \"#utility.yul\":12840:12858   */\n      tag_216\n      tag_72\n      jump\t// in\n    tag_216:\n        /* \"#utility.yul\":12820:12860   */\n    tag_215:\n        /* \"#utility.yul\":12873:12878   */\n      pop\n      jump(tag_207)\n        /* \"#utility.yul\":12611:12888   */\n    tag_210:\n      pop\n        /* \"#utility.yul\":12997:12999   */\n      0x20\n        /* \"#utility.yul\":12987:12995   */\n      dup4\n        /* \"#utility.yul\":12984:13000   */\n      lt\n        /* \"#utility.yul\":12978:12981   */\n      0x0133\n        /* \"#utility.yul\":12972:12976   */\n      dup4\n        /* \"#utility.yul\":12969:12982   */\n      lt\n        /* \"#utility.yul\":12965:13001   */\n      and\n        /* \"#utility.yul\":12947:12949   */\n      0x4e\n        /* \"#utility.yul\":12937:12945   */\n      dup5\n        /* \"#utility.yul\":12934:12950   */\n      lt\n        /* \"#utility.yul\":12929:12931   */\n      0x0b\n        /* \"#utility.yul\":12923:12927   */\n      dup5\n        /* \"#utility.yul\":12920:12932   */\n      lt\n        /* \"#utility.yul\":12916:12951   */\n      and\n        /* \"#utility.yul\":12900:13011   */\n      or\n        /* \"#utility.yul\":12897:13143   */\n      iszero\n      tag_217\n      jumpi\n        /* \"#utility.yul\":13053:13061   */\n      dup3\n        /* \"#utility.yul\":13047:13051   */\n      dup3\n        /* \"#utility.yul\":13043:13062   */\n      exp\n        /* \"#utility.yul\":13034:13062   */\n      swap1\n      pop\n        /* \"#utility.yul\":13088:13091   */\n      dup4\n        /* \"#utility.yul\":13081:13086   */\n      dup2\n        /* \"#utility.yul\":13078:13092   */\n      gt\n        /* \"#utility.yul\":13075:13115   */\n      iszero\n      tag_218\n      jumpi\n        /* \"#utility.yul\":13095:13113   */\n      tag_219\n      tag_72\n      jump\t// in\n    tag_219:\n        /* \"#utility.yul\":13075:13115   */\n    tag_218:\n        /* \"#utility.yul\":13128:13133   */\n      jump(tag_207)\n        /* \"#utility.yul\":12897:13143   */\n    tag_217:\n        /* \"#utility.yul\":13168:13210   */\n      tag_220\n        /* \"#utility.yul\":13206:13209   */\n      dup5\n        /* \"#utility.yul\":13196:13204   */\n      dup5\n        /* \"#utility.yul\":13190:13194   */\n      dup5\n        /* \"#utility.yul\":13187:13188   */\n      0x01\n        /* \"#utility.yul\":13168:13210   */\n      tag_83\n      jump\t// in\n    tag_220:\n        /* \"#utility.yul\":13153:13210   */\n      swap3\n      pop\n      swap1\n      pop\n        /* \"#utility.yul\":13242:13246   */\n      dup2\n        /* \"#utility.yul\":13237:13240   */\n      dup5\n        /* \"#utility.yul\":13233:13247   */\n      div\n        /* \"#utility.yul\":13226:13231   */\n      dup2\n        /* \"#utility.yul\":13223:13248   */\n      gt\n        /* \"#utility.yul\":13220:13271   */\n      iszero\n      tag_221\n      jumpi\n        /* \"#utility.yul\":13251:13269   */\n      tag_222\n      tag_72\n      jump\t// in\n    tag_222:\n        /* \"#utility.yul\":13220:13271   */\n    tag_221:\n        /* \"#utility.yul\":13300:13304   */\n      dup2\n        /* \"#utility.yul\":13293:13298   */\n      dup2\n        /* \"#utility.yul\":13289:13305   */\n      mul\n        /* \"#utility.yul\":13280:13305   */\n      swap1\n      pop\n        /* \"#utility.yul\":12238:13311   */\n    tag_207:\n      swap4\n      swap3\n      pop\n      pop\n      pop\n      jump\t// out\n        /* \"#utility.yul\":13317:13602   */\n    tag_45:\n        /* \"#utility.yul\":13377:13382   */\n      0x00\n        /* \"#utility.yul\":13401:13424   */\n      tag_224\n        /* \"#utility.yul\":13419:13423   */\n      dup3\n        /* \"#utility.yul\":13401:13424   */\n      tag_52\n      jump\t// in\n    tag_224:\n        /* \"#utility.yul\":13393:13424   */\n      swap2\n      pop\n        /* \"#utility.yul\":13445:13472   */\n      tag_225\n        /* \"#utility.yul\":13463:13471   */\n      dup4\n        /* \"#utility.yul\":13445:13472   */\n      tag_52\n      jump\t// in\n    tag_225:\n        /* \"#utility.yul\":13433:13472   */\n      swap3\n      pop\n        /* \"#utility.yul\":13491:13595   */\n      tag_226\n        /* \"#utility.yul\":13528:13594   */\n      0xffffffffffffffffffffffffffffffffffffffffffffffffffffffffffffffff\n        /* \"#utility.yul\":13518:13526   */\n      dup5\n        /* \"#utility.yul\":13512:13516   */\n      dup5\n        /* \"#utility.yul\":13491:13595   */\n      tag_84\n      jump\t// in\n    tag_226:\n        /* \"#utility.yul\":13482:13595   */\n      swap1\n      pop\n        /* \"#utility.yul\":13317:13602   */\n      swap3\n      swap2\n      pop\n      pop\n      jump\t// out\n        /* \"#utility.yul\":13608:13777   */\n    tag_85:\n        /* \"#utility.yul\":13692:13703   */\n      0x00\n        /* \"#utility.yul\":13726:13732   */\n      dup3\n        /* \"#utility.yul\":13721:13724   */\n      dup3\n        /* \"#utility.yul\":13714:13733   */\n      mstore\n        /* \"#utility.yul\":13766:13770   */\n      0x20\n        /* \"#utility.yul\":13761:13764   */\n      dup3\n        /* \"#utility.yul\":13757:13771   */\n      add\n        /* \"#utility.yul\":13742:13771   */\n      swap1\n      pop\n        /* \"#utility.yul\":13608:13777   */\n      swap3\n      swap2\n      pop\n      pop\n      jump\t// out\n        /* \"#utility.yul\":13783:13944   */\n    tag_86:\n        /* \"#utility.yul\":13923:13936   */\n      0x77726f6e6720696e707574000000000000000000000000000000000000000000\n        /* \"#utility.yul\":13919:13920   */\n      0x00\n        /* \"#utility.yul\":13911:13917   */\n      dup3\n        /* \"#utility.yul\":13907:13921   */\n      add\n        /* \"#utility.yul\":13900:13937   */\n      mstore\n        /* \"#utility.yul\":13783:13944   */\n      pop\n      jump\t// out\n        /* \"#utility.yul\":13950:14316   */\n    tag_87:\n        /* \"#utility.yul\":14092:14095   */\n      0x00\n        /* \"#utility.yul\":14113:14180   */\n      tag_230\n        /* \"#utility.yul\":14177:14179   */\n      0x0b\n        /* \"#utility.yul\":14172:14175   */\n      dup4\n        /* \"#utility.yul\":14113:14180   */\n      tag_85\n      jump\t// in\n    tag_230:\n        /* \"#utility.yul\":14106:14180   */\n      swap2\n      pop\n        /* \"#utility.yul\":14189:14282   */\n      tag_231\n        /* \"#utility.yul\":14278:14281   */\n      dup3\n        /* \"#utility.yul\":14189:14282   */\n      tag_86\n      jump\t// in\n    tag_231:\n        /* \"#utility.yul\":14307:14309   */\n      0x20\n        /* \"#utility.yul\":14302:14305   */\n      dup3\n        /* \"#utility.yul\":14298:14310   */\n      add\n        /* \"#utility.yul\":14291:14310   */\n      swap1\n      pop\n        /* \"#utility.yul\":13950:14316   */\n      swap2\n      swap1\n      pop\n      jump\t// out\n        /* \"#utility.yul\":14322:14741   */\n    tag_48:\n        /* \"#utility.yul\":14488:14492   */\n      0x00\n        /* \"#utility.yul\":14526:14528   */\n      0x20\n        /* \"#utility.yul\":14515:14524   */\n      dup3\n        /* \"#utility.yul\":14511:14529   */\n      add\n        /* \"#utility.yul\":14503:14529   */\n      swap1\n      pop\n        /* \"#utility.yul\":14575:14584   */\n      dup2\n        /* \"#utility.yul\":14569:14573   */\n      dup2\n        /* \"#utility.yul\":14565:14585   */\n      sub\n        /* \"#utility.yul\":14561:14562   */\n      0x00\n        /* \"#utility.yul\":14550:14559   */\n      dup4\n        /* \"#utility.yul\":14546:14563   */\n      add\n        /* \"#utility.yul\":14539:14586   */\n      mstore\n        /* \"#utility.yul\":14603:14734   */\n      tag_233\n        /* \"#utility.yul\":14729:14733   */\n      dup2\n        /* \"#utility.yul\":14603:14734   */\n      tag_87\n      jump\t// in\n    tag_233:\n        /* \"#utility.yul\":14595:14734   */\n      swap1\n      pop\n        /* \"#utility.yul\":14322:14741   */\n      swap2\n      swap1\n      pop\n      jump\t// out\n\n    auxdata: 0xa26469706673582212205df1e2f5af86b0299667cd74b22a2e8748f355f10ba9edff0c9cb347d8fe7c1964736f6c63430008190033\n}\n",
				"bytecode": {
					"linkReferences": {},
					"object": "6080604052348015600e575f80fd5b50610a3e8061001c5f395ff3fe608060405234801561000f575f80fd5b5060043610610029575f3560e01c8063ae0cc94f1461002d575b5f80fd5b61004760048036038101906100429190610414565b61005d565b604051610054919061048f565b60405180910390f35b5f60405160200161006d906104fc565b60405160208183030381529060405280519060200120826040516020016100949190610558565b60405160208183030381529060405280519060200120036100c25782846100bb919061059b565b905061028d565b6040516020016100d190610618565b60405160208183030381529060405280519060200120826040516020016100f89190610558565b604051602081830303815290604052805190602001200361012657828461011f919061062c565b905061028d565b604051602001610135906106a9565b604051602081830303815290604052805190602001208260405160200161015c9190610558565b604051602081830303815290604052805190602001200361018a57828461018391906106bd565b905061028d565b60405160200161019990610748565b60405160208183030381529060405280519060200120826040516020016101c09190610558565b60405160208183030381529060405280519060200120036101ee5782846101e79190610789565b905061028d565b6040516020016101fd90610803565b60405160208183030381529060405280519060200120826040516020016102249190610558565b604051602081830303815290604052805190602001200361025257828461024b9190610946565b905061028d565b6040517f08c379a0000000000000000000000000000000000000000000000000000000008152600401610284906109ea565b60405180910390fd5b9392505050565b5f604051905090565b5f80fd5b5f80fd5b5f819050919050565b6102b7816102a5565b81146102c1575f80fd5b50565b5f813590506102d2816102ae565b92915050565b5f80fd5b5f80fd5b5f601f19601f8301169050919050565b7f4e487b71000000000000000000000000000000000000000000000000000000005f52604160045260245ffd5b610326826102e0565b810181811067ffffffffffffffff82111715610345576103446102f0565b5b80604052505050565b5f610357610294565b9050610363828261031d565b919050565b5f67ffffffffffffffff821115610382576103816102f0565b5b61038b826102e0565b9050602081019050919050565b828183375f83830152505050565b5f6103b86103b384610368565b61034e565b9050828152602081018484840111156103d4576103d36102dc565b5b6103df848285610398565b509392505050565b5f82601f8301126103fb576103fa6102d8565b5b813561040b8482602086016103a6565b91505092915050565b5f805f6060848603121561042b5761042a61029d565b5b5f610438868287016102c4565b9350506020610449868287016102c4565b925050604084013567ffffffffffffffff81111561046a576104696102a1565b5b610476868287016103e7565b9150509250925092565b610489816102a5565b82525050565b5f6020820190506104a25f830184610480565b92915050565b5f81905092915050565b7f2b000000000000000000000000000000000000000000000000000000000000005f82015250565b5f6104e66001836104a8565b91506104f1826104b2565b600182019050919050565b5f610506826104da565b9150819050919050565b5f81519050919050565b8281835e5f83830152505050565b5f61053282610510565b61053c81856104a8565b935061054c81856020860161051a565b80840191505092915050565b5f6105638284610528565b915081905092915050565b7f4e487b71000000000000000000000000000000000000000000000000000000005f52601160045260245ffd5b5f6105a5826102a5565b91506105b0836102a5565b92508282019050808211156105c8576105c761056e565b5b92915050565b7f2d000000000000000000000000000000000000000000000000000000000000005f82015250565b5f6106026001836104a8565b915061060d826105ce565b600182019050919050565b5f610622826105f6565b9150819050919050565b5f610636826102a5565b9150610641836102a5565b92508282039050818111156106595761065861056e565b5b92915050565b7f2a000000000000000000000000000000000000000000000000000000000000005f82015250565b5f6106936001836104a8565b915061069e8261065f565b600182019050919050565b5f6106b382610687565b9150819050919050565b5f6106c7826102a5565b91506106d2836102a5565b92508282026106e0816102a5565b915082820484148315176106f7576106f661056e565b5b5092915050565b7f2f000000000000000000000000000000000000000000000000000000000000005f82015250565b5f6107326001836104a8565b915061073d826106fe565b600182019050919050565b5f61075282610726565b9150819050919050565b7f4e487b71000000000000000000000000000000000000000000000000000000005f52601260045260245ffd5b5f610793826102a5565b915061079e836102a5565b9250826107ae576107ad61075c565b5b828204905092915050565b7f2a2a0000000000000000000000000000000000000000000000000000000000005f82015250565b5f6107ed6002836104a8565b91506107f8826107b9565b600282019050919050565b5f61080d826107e1565b9150819050919050565b5f8160011c9050919050565b5f808291508390505b600185111561086c578086048111156108485761084761056e565b5b60018516156108575780820291505b808102905061086585610817565b945061082c565b94509492505050565b5f82610884576001905061093f565b81610891575f905061093f565b81600181146108a757600281146108b1576108e0565b600191505061093f565b60ff8411156108c3576108c261056e565b5b8360020a9150848211156108da576108d961056e565b5b5061093f565b5060208310610133831016604e8410600b84101617156109155782820a9050838111156109105761090f61056e565b5b61093f565b6109228484846001610823565b925090508184048111156109395761093861056e565b5b81810290505b9392505050565b5f610950826102a5565b915061095b836102a5565b92506109887fffffffffffffffffffffffffffffffffffffffffffffffffffffffffffffffff8484610875565b905092915050565b5f82825260208201905092915050565b7f77726f6e6720696e7075740000000000000000000000000000000000000000005f82015250565b5f6109d4600b83610990565b91506109df826109a0565b602082019050919050565b5f6020820190508181035f830152610a01816109c8565b905091905056fea26469706673582212205df1e2f5af86b0299667cd74b22a2e8748f355f10ba9edff0c9cb347d8fe7c1964736f6c63430008190033",
					"opcodes": "PUSH1 0x80 PUSH1 0x40 MSTORE CALLVALUE DUP1 ISZERO PUSH1 0xE JUMPI PUSH0 DUP1 REVERT JUMPDEST POP PUSH2 0xA3E DUP1 PUSH2 0x1C PUSH0 CODECOPY PUSH0 RETURN INVALID PUSH1 0x80 PUSH1 0x40 MSTORE CALLVALUE DUP1 ISZERO PUSH2 0xF JUMPI PUSH0 DUP1 REVERT JUMPDEST POP PUSH1 0x4 CALLDATASIZE LT PUSH2 0x29 JUMPI PUSH0 CALLDATALOAD PUSH1 0xE0 SHR DUP1 PUSH4 0xAE0CC94F EQ PUSH2 0x2D JUMPI JUMPDEST PUSH0 DUP1 REVERT JUMPDEST PUSH2 0x47 PUSH1 0x4 DUP1 CALLDATASIZE SUB DUP2 ADD SWAP1 PUSH2 0x42 SWAP2 SWAP1 PUSH2 0x414 JUMP JUMPDEST PUSH2 0x5D JUMP JUMPDEST PUSH1 0x40 MLOAD PUSH2 0x54 SWAP2 SWAP1 PUSH2 0x48F JUMP JUMPDEST PUSH1 0x40 MLOAD DUP1 SWAP2 SUB SWAP1 RETURN JUMPDEST PUSH0 PUSH1 0x40 MLOAD PUSH1 0x20 ADD PUSH2 0x6D SWAP1 PUSH2 0x4FC JUMP JUMPDEST PUSH1 0x40 MLOAD PUSH1 0x20 DUP2 DUP4 SUB SUB DUP2 MSTORE SWAP1 PUSH1 0x40 MSTORE DUP1 MLOAD SWAP1 PUSH1 0x20 ADD KECCAK256 DUP3 PUSH1 0x40 MLOAD PUSH1 0x20 ADD PUSH2 0x94 SWAP2 SWAP1 PUSH2 0x558 JUMP JUMPDEST PUSH1 0x40 MLOAD PUSH1 0x20 DUP2 DUP4 SUB SUB DUP2 MSTORE SWAP1 PUSH1 0x40 MSTORE DUP1 MLOAD SWAP1 PUSH1 0x20 ADD KECCAK256 SUB PUSH2 0xC2 JUMPI DUP3 DUP5 PUSH2 0xBB SWAP2 SWAP1 PUSH2 0x59B JUMP JUMPDEST SWAP1 POP PUSH2 0x28D JUMP JUMPDEST PUSH1 0x40 MLOAD PUSH1 0x20 ADD PUSH2 0xD1 SWAP1 PUSH2 0x618 JUMP JUMPDEST PUSH1 0x40 MLOAD PUSH1 0x20 DUP2 DUP4 SUB SUB DUP2 MSTORE SWAP1 PUSH1 0x40 MSTORE DUP1 MLOAD SWAP1 PUSH1 0x20 ADD KECCAK256 DUP3 PUSH1 0x40 MLOAD PUSH1 0x20 ADD PUSH2 0xF8 SWAP2 SWAP1 PUSH2 0x558 JUMP JUMPDEST PUSH1 0x40 MLOAD PUSH1 0x20 DUP2 DUP4 SUB SUB DUP2 MSTORE SWAP1 PUSH1 0x40 MSTORE DUP1 MLOAD SWAP1 PUSH1 0x20 ADD KECCAK256 SUB PUSH2 0x126 JUMPI DUP3 DUP5 PUSH2 0x11F SWAP2 SWAP1 PUSH2 0x62C JUMP JUMPDEST SWAP1 POP PUSH2 0x28D JUMP JUMPDEST PUSH1 0x40 MLOAD PUSH1 0x20 ADD PUSH2 0x135 SWAP1 PUSH2 0x6A9 JUMP JUMPDEST PUSH1 0x40 MLOAD PUSH1 0x20 DUP2 DUP4 SUB SUB DUP2 MSTORE SWAP1 PUSH1 0x40 MSTORE DUP1 MLOAD SWAP1 PUSH1 0x20 ADD KECCAK256 DUP3 PUSH1 0x40 MLOAD PUSH1 0x20 ADD PUSH2 0x15C SWAP2 SWAP1 PUSH2 0x558 JUMP JUMPDEST PUSH1 0x40 MLOAD PUSH1 0x20 DUP2 DUP4 SUB SUB DUP2 MSTORE SWAP1 PUSH1 0x40 MSTORE DUP1 MLOAD SWAP1 PUSH1 0x20 ADD KECCAK256 SUB PUSH2 0x18A JUMPI DUP3 DUP5 PUSH2 0x183 SWAP2 SWAP1 PUSH2 0x6BD JUMP JUMPDEST SWAP1 POP PUSH2 0x28D JUMP JUMPDEST PUSH1 0x40 MLOAD PUSH1 0x20 ADD PUSH2 0x199 SWAP1 PUSH2 0x748 JUMP JUMPDEST PUSH1 0x40 MLOAD PUSH1 0x20 DUP2 DUP4 SUB SUB DUP2 MSTORE SWAP1 PUSH1 0x40 MSTORE DUP1 MLOAD SWAP1 PUSH1 0x20 ADD KECCAK256 DUP3 PUSH1 0x40 MLOAD PUSH1 0x20 ADD PUSH2 0x1C0 SWAP2 SWAP1 PUSH2 0x558 JUMP JUMPDEST PUSH1 0x40 MLOAD PUSH1 0x20 DUP2 DUP4 SUB SUB DUP2 MSTORE SWAP1 PUSH1 0x40 MSTORE DUP1 MLOAD SWAP1 PUSH1 0x20 ADD KECCAK256 SUB PUSH2 0x1EE JUMPI DUP3 DUP5 PUSH2 0x1E7 SWAP2 SWAP1 PUSH2 0x789 JUMP JUMPDEST SWAP1 POP PUSH2 0x28D JUMP JUMPDEST PUSH1 0x40 MLOAD PUSH1 0x20 ADD PUSH2 0x1FD SWAP1 PUSH2 0x803 JUMP JUMPDEST PUSH1 0x40 MLOAD PUSH1 0x20 DUP2 DUP4 SUB SUB DUP2 MSTORE SWAP1 PUSH1 0x40 MSTORE DUP1 MLOAD SWAP1 PUSH1 0x20 ADD KECCAK256 DUP3 PUSH1 0x40 MLOAD PUSH1 0x20 ADD PUSH2 0x224 SWAP2 SWAP1 PUSH2 0x558 JUMP JUMPDEST PUSH1 0x40 MLOAD PUSH1 0x20 DUP2 DUP4 SUB SUB DUP2 MSTORE SWAP1 PUSH1 0x40 MSTORE DUP1 MLOAD SWAP1 PUSH1 0x20 ADD KECCAK256 SUB PUSH2 0x252 JUMPI DUP3 DUP5 PUSH2 0x24B SWAP2 SWAP1 PUSH2 0x946 JUMP JUMPDEST SWAP1 POP PUSH2 0x28D JUMP JUMPDEST PUSH1 0x40 MLOAD PUSH32 0x8C379A000000000000000000000000000000000000000000000000000000000 DUP2 MSTORE PUSH1 0x4 ADD PUSH2 0x284 SWAP1 PUSH2 0x9EA JUMP JUMPDEST PUSH1 0x40 MLOAD DUP1 SWAP2 SUB SWAP1 REVERT JUMPDEST SWAP4 SWAP3 POP POP POP JUMP JUMPDEST PUSH0 PUSH1 0x40 MLOAD SWAP1 POP SWAP1 JUMP JUMPDEST PUSH0 DUP1 REVERT JUMPDEST PUSH0 DUP1 REVERT JUMPDEST PUSH0 DUP2 SWAP1 POP SWAP2 SWAP1 POP JUMP JUMPDEST PUSH2 0x2B7 DUP2 PUSH2 0x2A5 JUMP JUMPDEST DUP2 EQ PUSH2 0x2C1 JUMPI PUSH0 DUP1 REVERT JUMPDEST POP JUMP JUMPDEST PUSH0 DUP2 CALLDATALOAD SWAP1 POP PUSH2 0x2D2 DUP2 PUSH2 0x2AE JUMP JUMPDEST SWAP3 SWAP2 POP POP JUMP JUMPDEST PUSH0 DUP1 REVERT JUMPDEST PUSH0 DUP1 REVERT JUMPDEST PUSH0 PUSH1 0x1F NOT PUSH1 0x1F DUP4 ADD AND SWAP1 POP SWAP2 SWAP1 POP JUMP JUMPDEST PUSH32 0x4E487B7100000000000000000000000000000000000000000000000000000000 PUSH0 MSTORE PUSH1 0x41 PUSH1 0x4 MSTORE PUSH1 0x24 PUSH0 REVERT JUMPDEST PUSH2 0x326 DUP3 PUSH2 0x2E0 JUMP JUMPDEST DUP2 ADD DUP2 DUP2 LT PUSH8 0xFFFFFFFFFFFFFFFF DUP3 GT OR ISZERO PUSH2 0x345 JUMPI PUSH2 0x344 PUSH2 0x2F0 JUMP JUMPDEST JUMPDEST DUP1 PUSH1 0x40 MSTORE POP POP POP JUMP JUMPDEST PUSH0 PUSH2 0x357 PUSH2 0x294 JUMP JUMPDEST SWAP1 POP PUSH2 0x363 DUP3 DUP3 PUSH2 0x31D JUMP JUMPDEST SWAP2 SWAP1 POP JUMP JUMPDEST PUSH0 PUSH8 0xFFFFFFFFFFFFFFFF DUP3 GT ISZERO PUSH2 0x382 JUMPI PUSH2 0x381 PUSH2 0x2F0 JUMP JUMPDEST JUMPDEST PUSH2 0x38B DUP3 PUSH2 0x2E0 JUMP JUMPDEST SWAP1 POP PUSH1 0x20 DUP2 ADD SWAP1 POP SWAP2 SWAP1 POP JUMP JUMPDEST DUP3 DUP2 DUP4 CALLDATACOPY PUSH0 DUP4 DUP4 ADD MSTORE POP POP POP JUMP JUMPDEST PUSH0 PUSH2 0x3B8 PUSH2 0x3B3 DUP5 PUSH2 0x368 JUMP JUMPDEST PUSH2 0x34E JUMP JUMPDEST SWAP1 POP DUP3 DUP2 MSTORE PUSH1 0x20 DUP2 ADD DUP5 DUP5 DUP5 ADD GT ISZERO PUSH2 0x3D4 JUMPI PUSH2 0x3D3 PUSH2 0x2DC JUMP JUMPDEST JUMPDEST PUSH2 0x3DF DUP5 DUP3 DUP6 PUSH2 0x398 JUMP JUMPDEST POP SWAP4 SWAP3 POP POP POP JUMP JUMPDEST PUSH0 DUP3 PUSH1 0x1F DUP4 ADD SLT PUSH2 0x3FB JUMPI PUSH2 0x3FA PUSH2 0x2D8 JUMP JUMPDEST JUMPDEST DUP2 CALLDATALOAD PUSH2 0x40B DUP5 DUP3 PUSH1 0x20 DUP7 ADD PUSH2 0x3A6 JUMP JUMPDEST SWAP2 POP POP SWAP3 SWAP2 POP POP JUMP JUMPDEST PUSH0 DUP1 PUSH0 PUSH1 0x60 DUP5 DUP7 SUB SLT ISZERO PUSH2 0x42B JUMPI PUSH2 0x42A PUSH2 0x29D JUMP JUMPDEST JUMPDEST PUSH0 PUSH2 0x438 DUP7 DUP3 DUP8 ADD PUSH2 0x2C4 JUMP JUMPDEST SWAP4 POP POP PUSH1 0x20 PUSH2 0x449 DUP7 DUP3 DUP8 ADD PUSH2 0x2C4 JUMP JUMPDEST SWAP3 POP POP PUSH1 0x40 DUP5 ADD CALLDATALOAD PUSH8 0xFFFFFFFFFFFFFFFF DUP2 GT ISZERO PUSH2 0x46A JUMPI PUSH2 0x469 PUSH2 0x2A1 JUMP JUMPDEST JUMPDEST PUSH2 0x476 DUP7 DUP3 DUP8 ADD PUSH2 0x3E7 JUMP JUMPDEST SWAP2 POP POP SWAP3 POP SWAP3 POP SWAP3 JUMP JUMPDEST PUSH2 0x489 DUP2 PUSH2 0x2A5 JUMP JUMPDEST DUP3 MSTORE POP POP JUMP JUMPDEST PUSH0 PUSH1 0x20 DUP3 ADD SWAP1 POP PUSH2 0x4A2 PUSH0 DUP4 ADD DUP5 PUSH2 0x480 JUMP JUMPDEST SWAP3 SWAP2 POP POP JUMP JUMPDEST PUSH0 DUP2 SWAP1 POP SWAP3 SWAP2 POP POP JUMP JUMPDEST PUSH32 0x2B00000000000000000000000000000000000000000000000000000000000000 PUSH0 DUP3 ADD MSTORE POP JUMP JUMPDEST PUSH0 PUSH2 0x4E6 PUSH1 0x1 DUP4 PUSH2 0x4A8 JUMP JUMPDEST SWAP2 POP PUSH2 0x4F1 DUP3 PUSH2 0x4B2 JUMP JUMPDEST PUSH1 0x1 DUP3 ADD SWAP1 POP SWAP2 SWAP1 POP JUMP JUMPDEST PUSH0 PUSH2 0x506 DUP3 PUSH2 0x4DA JUMP JUMPDEST SWAP2 POP DUP2 SWAP1 POP SWAP2 SWAP1 POP JUMP JUMPDEST PUSH0 DUP2 MLOAD SWAP1 POP SWAP2 SWAP1 POP JUMP JUMPDEST DUP3 DUP2 DUP4 MCOPY PUSH0 DUP4 DUP4 ADD MSTORE POP POP POP JUMP JUMPDEST PUSH0 PUSH2 0x532 DUP3 PUSH2 0x510 JUMP JUMPDEST PUSH2 0x53C DUP2 DUP6 PUSH2 0x4A8 JUMP JUMPDEST SWAP4 POP PUSH2 0x54C DUP2 DUP6 PUSH1 0x20 DUP7 ADD PUSH2 0x51A JUMP JUMPDEST DUP1 DUP5 ADD SWAP2 POP POP SWAP3 SWAP2 POP POP JUMP JUMPDEST PUSH0 PUSH2 0x563 DUP3 DUP5 PUSH2 0x528 JUMP JUMPDEST SWAP2 POP DUP2 SWAP1 POP SWAP3 SWAP2 POP POP JUMP JUMPDEST PUSH32 0x4E487B7100000000000000000000000000000000000000000000000000000000 PUSH0 MSTORE PUSH1 0x11 PUSH1 0x4 MSTORE PUSH1 0x24 PUSH0 REVERT JUMPDEST PUSH0 PUSH2 0x5A5 DUP3 PUSH2 0x2A5 JUMP JUMPDEST SWAP2 POP PUSH2 0x5B0 DUP4 PUSH2 0x2A5 JUMP JUMPDEST SWAP3 POP DUP3 DUP3 ADD SWAP1 POP DUP1 DUP3 GT ISZERO PUSH2 0x5C8 JUMPI PUSH2 0x5C7 PUSH2 0x56E JUMP JUMPDEST JUMPDEST SWAP3 SWAP2 POP POP JUMP JUMPDEST PUSH32 0x2D00000000000000000000000000000000000000000000000000000000000000 PUSH0 DUP3 ADD MSTORE POP JUMP JUMPDEST PUSH0 PUSH2 0x602 PUSH1 0x1 DUP4 PUSH2 0x4A8 JUMP JUMPDEST SWAP2 POP PUSH2 0x60D DUP3 PUSH2 0x5CE JUMP JUMPDEST PUSH1 0x1 DUP3 ADD SWAP1 POP SWAP2 SWAP1 POP JUMP JUMPDEST PUSH0 PUSH2 0x622 DUP3 PUSH2 0x5F6 JUMP JUMPDEST SWAP2 POP DUP2 SWAP1 POP SWAP2 SWAP1 POP JUMP JUMPDEST PUSH0 PUSH2 0x636 DUP3 PUSH2 0x2A5 JUMP JUMPDEST SWAP2 POP PUSH2 0x641 DUP4 PUSH2 0x2A5 JUMP JUMPDEST SWAP3 POP DUP3 DUP3 SUB SWAP1 POP DUP2 DUP2 GT ISZERO PUSH2 0x659 JUMPI PUSH2 0x658 PUSH2 0x56E JUMP JUMPDEST JUMPDEST SWAP3 SWAP2 POP POP JUMP JUMPDEST PUSH32 0x2A00000000000000000000000000000000000000000000000000000000000000 PUSH0 DUP3 ADD MSTORE POP JUMP JUMPDEST PUSH0 PUSH2 0x693 PUSH1 0x1 DUP4 PUSH2 0x4A8 JUMP JUMPDEST SWAP2 POP PUSH2 0x69E DUP3 PUSH2 0x65F JUMP JUMPDEST PUSH1 0x1 DUP3 ADD SWAP1 POP SWAP2 SWAP1 POP JUMP JUMPDEST PUSH0 PUSH2 0x6B3 DUP3 PUSH2 0x687 JUMP JUMPDEST SWAP2 POP DUP2 SWAP1 POP SWAP2 SWAP1 POP JUMP JUMPDEST PUSH0 PUSH2 0x6C7 DUP3 PUSH2 0x2A5 JUMP JUMPDEST SWAP2 POP PUSH2 0x6D2 DUP4 PUSH2 0x2A5 JUMP JUMPDEST SWAP3 POP DUP3 DUP3 MUL PUSH2 0x6E0 DUP2 PUSH2 0x2A5 JUMP JUMPDEST SWAP2 POP DUP3 DUP3 DIV DUP5 EQ DUP4 ISZERO OR PUSH2 0x6F7 JUMPI PUSH2 0x6F6 PUSH2 0x56E JUMP JUMPDEST JUMPDEST POP SWAP3 SWAP2 POP POP JUMP JUMPDEST PUSH32 0x2F00000000000000000000000000000000000000000000000000000000000000 PUSH0 DUP3 ADD MSTORE POP JUMP JUMPDEST PUSH0 PUSH2 0x732 PUSH1 0x1 DUP4 PUSH2 0x4A8 JUMP JUMPDEST SWAP2 POP PUSH2 0x73D DUP3 PUSH2 0x6FE JUMP JUMPDEST PUSH1 0x1 DUP3 ADD SWAP1 POP SWAP2 SWAP1 POP JUMP JUMPDEST PUSH0 PUSH2 0x752 DUP3 PUSH2 0x726 JUMP JUMPDEST SWAP2 POP DUP2 SWAP1 POP SWAP2 SWAP1 POP JUMP JUMPDEST PUSH32 0x4E487B7100000000000000000000000000000000000000000000000000000000 PUSH0 MSTORE PUSH1 0x12 PUSH1 0x4 MSTORE PUSH1 0x24 PUSH0 REVERT JUMPDEST PUSH0 PUSH2 0x793 DUP3 PUSH2 0x2A5 JUMP JUMPDEST SWAP2 POP PUSH2 0x79E DUP4 PUSH2 0x2A5 JUMP JUMPDEST SWAP3 POP DUP3 PUSH2 0x7AE JUMPI PUSH2 0x7AD PUSH2 0x75C JUMP JUMPDEST JUMPDEST DUP3 DUP3 DIV SWAP1 POP SWAP3 SWAP2 POP POP JUMP JUMPDEST PUSH32 0x2A2A000000000000000000000000000000000000000000000000000000000000 PUSH0 DUP3 ADD MSTORE POP JUMP JUMPDEST PUSH0 PUSH2 0x7ED PUSH1 0x2 DUP4 PUSH2 0x4A8 JUMP JUMPDEST SWAP2 POP PUSH2 0x7F8 DUP3 PUSH2 0x7B9 JUMP JUMPDEST PUSH1 0x2 DUP3 ADD SWAP1 POP SWAP2 SWAP1 POP JUMP JUMPDEST PUSH0 PUSH2 0x80D DUP3 PUSH2 0x7E1 JUMP JUMPDEST SWAP2 POP DUP2 SWAP1 POP SWAP2 SWAP1 POP JUMP JUMPDEST PUSH0 DUP2 PUSH1 0x1 SHR SWAP1 POP SWAP2 SWAP1 POP JUMP JUMPDEST PUSH0 DUP1 DUP3 SWAP2 POP DUP4 SWAP1 POP JUMPDEST PUSH1 0x1 DUP6 GT ISZERO PUSH2 0x86C JUMPI DUP1 DUP7 DIV DUP2 GT ISZERO PUSH2 0x848 JUMPI PUSH2 0x847 PUSH2 0x56E JUMP JUMPDEST JUMPDEST PUSH1 0x1 DUP6 AND ISZERO PUSH2 0x857 JUMPI DUP1 DUP3 MUL SWAP2 POP JUMPDEST DUP1 DUP2 MUL SWAP1 POP PUSH2 0x865 DUP6 PUSH2 0x817 JUMP JUMPDEST SWAP5 POP PUSH2 0x82C JUMP JUMPDEST SWAP5 POP SWAP5 SWAP3 POP POP POP JUMP JUMPDEST PUSH0 DUP3 PUSH2 0x884 JUMPI PUSH1 0x1 SWAP1 POP PUSH2 0x93F JUMP JUMPDEST DUP2 PUSH2 0x891 JUMPI PUSH0 SWAP1 POP PUSH2 0x93F JUMP JUMPDEST DUP2 PUSH1 0x1 DUP2 EQ PUSH2 0x8A7 JUMPI PUSH1 0x2 DUP2 EQ PUSH2 0x8B1 JUMPI PUSH2 0x8E0 JUMP JUMPDEST PUSH1 0x1 SWAP2 POP POP PUSH2 0x93F JUMP JUMPDEST PUSH1 0xFF DUP5 GT ISZERO PUSH2 0x8C3 JUMPI PUSH2 0x8C2 PUSH2 0x56E JUMP JUMPDEST JUMPDEST DUP4 PUSH1 0x2 EXP SWAP2 POP DUP5 DUP3 GT ISZERO PUSH2 0x8DA JUMPI PUSH2 0x8D9 PUSH2 0x56E JUMP JUMPDEST JUMPDEST POP PUSH2 0x93F JUMP JUMPDEST POP PUSH1 0x20 DUP4 LT PUSH2 0x133 DUP4 LT AND PUSH1 0x4E DUP5 LT PUSH1 0xB DUP5 LT AND OR ISZERO PUSH2 0x915 JUMPI DUP3 DUP3 EXP SWAP1 POP DUP4 DUP2 GT ISZERO PUSH2 0x910 JUMPI PUSH2 0x90F PUSH2 0x56E JUMP JUMPDEST JUMPDEST PUSH2 0x93F JUMP JUMPDEST PUSH2 0x922 DUP5 DUP5 DUP5 PUSH1 0x1 PUSH2 0x823 JUMP JUMPDEST SWAP3 POP SWAP1 POP DUP2 DUP5 DIV DUP2 GT ISZERO PUSH2 0x939 JUMPI PUSH2 0x938 PUSH2 0x56E JUMP JUMPDEST JUMPDEST DUP2 DUP2 MUL SWAP1 POP JUMPDEST SWAP4 SWAP3 POP POP POP JUMP JUMPDEST PUSH0 PUSH2 0x950 DUP3 PUSH2 0x2A5 JUMP JUMPDEST SWAP2 POP PUSH2 0x95B DUP4 PUSH2 0x2A5 JUMP JUMPDEST SWAP3 POP PUSH2 0x988 PUSH32 0xFFFFFFFFFFFFFFFFFFFFFFFFFFFFFFFFFFFFFFFFFFFFFFFFFFFFFFFFFFFFFFFF DUP5 DUP5 PUSH2 0x875 JUMP JUMPDEST SWAP1 POP SWAP3 SWAP2 POP POP JUMP JUMPDEST PUSH0 DUP3 DUP3 MSTORE PUSH1 0x20 DUP3 ADD SWAP1 POP SWAP3 SWAP2 POP POP JUMP JUMPDEST PUSH32 0x77726F6E6720696E707574000000000000000000000000000000000000000000 PUSH0 DUP3 ADD MSTORE POP JUMP JUMPDEST PUSH0 PUSH2 0x9D4 PUSH1 0xB DUP4 PUSH2 0x990 JUMP JUMPDEST SWAP2 POP PUSH2 0x9DF DUP3 PUSH2 0x9A0 JUMP JUMPDEST PUSH1 0x20 DUP3 ADD SWAP1 POP SWAP2 SWAP1 POP JUMP JUMPDEST PUSH0 PUSH1 0x20 DUP3 ADD SWAP1 POP DUP2 DUP2 SUB PUSH0 DUP4 ADD MSTORE PUSH2 0xA01 DUP2 PUSH2 0x9C8 JUMP JUMPDEST SWAP1 POP SWAP2 SWAP1 POP JUMP INVALID LOG2 PUSH5 0x6970667358 0x22 SLT KECCAK256 TSTORE CALL 0xE2 CREATE2 0xAF DUP7 0xB0 0x29 SWAP7 PUSH8 0xCD74B22A2E8748F3 SSTORE CALL SIGNEXTEND 0xA9 0xED SELFDESTRUCT 0xC SWAP13 0xB3 SELFBALANCE 0xD8 INVALID PUSH29 0x1964736F6C634300081900330000000000000000000000000000000000 "
				},
				"gasEstimates": {
					"creation": {
						"codeDepositCost": "524400",
						"executionCost": "554",
						"totalCost": "524954"
					},
					"external": {
						"calculator(uint256,uint256,string)": "infinite"
					}
				},
				"methodIdentifiers": {
					"calculator(uint256,uint256,string)": "ae0cc94f"
				}
			},
			"storageLayout": {
				"storage": [],
				"types": null
			},
			"userdoc": {
				"kind": "user",
				"methods": {},
				"version": 1
			}
		}
	}
}