{
	"solidity_100/1-10.sol": {
		"Q9": {
			"abi": [
				{
					"inputs": [
						{
							"internalType": "bytes",
							"name": "_b",
							"type": "bytes"
						}
					],
					"name": "bytesToString",
					"outputs": [
						{
							"internalType": "string",
							"name": "",
							"type": "string"
						}
					],
					"stateMutability": "pure",
					"type": "function"
				},
				{
					"inputs": [
						{
							"internalType": "string",
							"name": "_a",
							"type": "string"
						}
					],
					"name": "stringToBytes",
					"outputs": [
						{
							"internalType": "bytes",
							"name": "",
							"type": "bytes"
						}
					],
					"stateMutability": "pure",
					"type": "function"
				}
			],
			"devdoc": {
				"kind": "dev",
				"methods": {},
				"version": 1
			},
			"evm": {
				"assembly": "    /* \"solidity_100/1-10.sol\":4705:5074  contract Q9 {... */\n  mstore(0x40, 0x80)\n  callvalue\n  dup1\n  iszero\n  tag_1\n  jumpi\n  0x00\n  dup1\n  revert\ntag_1:\n  pop\n  dataSize(sub_0)\n  dup1\n  dataOffset(sub_0)\n  0x00\n  codecopy\n  0x00\n  return\nstop\n\nsub_0: assembly {\n        /* \"solidity_100/1-10.sol\":4705:5074  contract Q9 {... */\n      mstore(0x40, 0x80)\n      callvalue\n      dup1\n      iszero\n      tag_1\n      jumpi\n      0x00\n      dup1\n      revert\n    tag_1:\n      pop\n      jumpi(tag_2, lt(calldatasize, 0x04))\n      shr(0xe0, calldataload(0x00))\n      dup1\n      0x39614e4f\n      eq\n      tag_3\n      jumpi\n      dup1\n      0xe106fb4b\n      eq\n      tag_4\n      jumpi\n    tag_2:\n      0x00\n      dup1\n      revert\n        /* \"solidity_100/1-10.sol\":4960:5071  function bytesToString(bytes memory _b) public pure returns(string memory) {... */\n    tag_3:\n      tag_5\n      0x04\n      dup1\n      calldatasize\n      sub\n      dup2\n      add\n      swap1\n      tag_6\n      swap2\n      swap1\n      tag_7\n      jump\t// in\n    tag_6:\n      tag_8\n      jump\t// in\n    tag_5:\n      mload(0x40)\n      tag_9\n      swap2\n      swap1\n      tag_10\n      jump\t// in\n    tag_9:\n      mload(0x40)\n      dup1\n      swap2\n      sub\n      swap1\n      return\n        /* \"solidity_100/1-10.sol\":4842:4952  function stringToBytes(string memory _a) public pure returns(bytes memory) {... */\n    tag_4:\n      tag_11\n      0x04\n      dup1\n      calldatasize\n      sub\n      dup2\n      add\n      swap1\n      tag_12\n      swap2\n      swap1\n      tag_13\n      jump\t// in\n    tag_12:\n      tag_14\n      jump\t// in\n    tag_11:\n      mload(0x40)\n      tag_15\n      swap2\n      swap1\n      tag_16\n      jump\t// in\n    tag_15:\n      mload(0x40)\n      dup1\n      swap2\n      sub\n      swap1\n      return\n        /* \"solidity_100/1-10.sol\":4960:5071  function bytesToString(bytes memory _b) public pure returns(string memory) {... */\n    tag_8:\n        /* \"solidity_100/1-10.sol\":5020:5033  string memory */\n      0x60\n        /* \"solidity_100/1-10.sol\":5060:5062  _b */\n      dup2\n        /* \"solidity_100/1-10.sol\":5046:5063  return string(_b) */\n      swap1\n      pop\n        /* \"solidity_100/1-10.sol\":4960:5071  function bytesToString(bytes memory _b) public pure returns(string memory) {... */\n      swap2\n      swap1\n      pop\n      jump\t// out\n        /* \"solidity_100/1-10.sol\":4842:4952  function stringToBytes(string memory _a) public pure returns(bytes memory) {... */\n    tag_14:\n        /* \"solidity_100/1-10.sol\":4903:4915  bytes memory */\n      0x60\n        /* \"solidity_100/1-10.sol\":4941:4943  _a */\n      dup2\n        /* \"solidity_100/1-10.sol\":4928:4944  return bytes(_a) */\n      swap1\n      pop\n        /* \"solidity_100/1-10.sol\":4842:4952  function stringToBytes(string memory _a) public pure returns(bytes memory) {... */\n      swap2\n      swap1\n      pop\n      jump\t// out\n        /* \"#utility.yul\":7:82   */\n    tag_19:\n        /* \"#utility.yul\":40:46   */\n      0x00\n        /* \"#utility.yul\":73:75   */\n      0x40\n        /* \"#utility.yul\":67:76   */\n      mload\n        /* \"#utility.yul\":57:76   */\n      swap1\n      pop\n        /* \"#utility.yul\":7:82   */\n      swap1\n      jump\t// out\n        /* \"#utility.yul\":88:205   */\n    tag_20:\n        /* \"#utility.yul\":197:198   */\n      0x00\n        /* \"#utility.yul\":194:195   */\n      dup1\n        /* \"#utility.yul\":187:199   */\n      revert\n        /* \"#utility.yul\":211:328   */\n    tag_21:\n        /* \"#utility.yul\":320:321   */\n      0x00\n        /* \"#utility.yul\":317:318   */\n      dup1\n        /* \"#utility.yul\":310:322   */\n      revert\n        /* \"#utility.yul\":334:451   */\n    tag_22:\n        /* \"#utility.yul\":443:444   */\n      0x00\n        /* \"#utility.yul\":440:441   */\n      dup1\n        /* \"#utility.yul\":433:445   */\n      revert\n        /* \"#utility.yul\":457:574   */\n    tag_23:\n        /* \"#utility.yul\":566:567   */\n      0x00\n        /* \"#utility.yul\":563:564   */\n      dup1\n        /* \"#utility.yul\":556:568   */\n      revert\n        /* \"#utility.yul\":580:682   */\n    tag_24:\n        /* \"#utility.yul\":621:627   */\n      0x00\n        /* \"#utility.yul\":672:674   */\n      0x1f\n        /* \"#utility.yul\":668:675   */\n      not\n        /* \"#utility.yul\":663:665   */\n      0x1f\n        /* \"#utility.yul\":656:661   */\n      dup4\n        /* \"#utility.yul\":652:666   */\n      add\n        /* \"#utility.yul\":648:676   */\n      and\n        /* \"#utility.yul\":638:676   */\n      swap1\n      pop\n        /* \"#utility.yul\":580:682   */\n      swap2\n      swap1\n      pop\n      jump\t// out\n        /* \"#utility.yul\":688:868   */\n    tag_25:\n        /* \"#utility.yul\":736:813   */\n      0x4e487b7100000000000000000000000000000000000000000000000000000000\n        /* \"#utility.yul\":733:734   */\n      0x00\n        /* \"#utility.yul\":726:814   */\n      mstore\n        /* \"#utility.yul\":833:837   */\n      0x41\n        /* \"#utility.yul\":830:831   */\n      0x04\n        /* \"#utility.yul\":823:838   */\n      mstore\n        /* \"#utility.yul\":857:861   */\n      0x24\n        /* \"#utility.yul\":854:855   */\n      0x00\n        /* \"#utility.yul\":847:862   */\n      revert\n        /* \"#utility.yul\":874:1155   */\n    tag_26:\n        /* \"#utility.yul\":957:984   */\n      tag_51\n        /* \"#utility.yul\":979:983   */\n      dup3\n        /* \"#utility.yul\":957:984   */\n      tag_24\n      jump\t// in\n    tag_51:\n        /* \"#utility.yul\":949:955   */\n      dup2\n        /* \"#utility.yul\":945:985   */\n      add\n        /* \"#utility.yul\":1087:1093   */\n      dup2\n        /* \"#utility.yul\":1075:1085   */\n      dup2\n        /* \"#utility.yul\":1072:1094   */\n      lt\n        /* \"#utility.yul\":1051:1069   */\n      0xffffffffffffffff\n        /* \"#utility.yul\":1039:1049   */\n      dup3\n        /* \"#utility.yul\":1036:1070   */\n      gt\n        /* \"#utility.yul\":1033:1095   */\n      or\n        /* \"#utility.yul\":1030:1118   */\n      iszero\n      tag_52\n      jumpi\n        /* \"#utility.yul\":1098:1116   */\n      tag_53\n      tag_25\n      jump\t// in\n    tag_53:\n        /* \"#utility.yul\":1030:1118   */\n    tag_52:\n        /* \"#utility.yul\":1138:1148   */\n      dup1\n        /* \"#utility.yul\":1134:1136   */\n      0x40\n        /* \"#utility.yul\":1127:1149   */\n      mstore\n        /* \"#utility.yul\":917:1155   */\n      pop\n        /* \"#utility.yul\":874:1155   */\n      pop\n      pop\n      jump\t// out\n        /* \"#utility.yul\":1161:1290   */\n    tag_27:\n        /* \"#utility.yul\":1195:1201   */\n      0x00\n        /* \"#utility.yul\":1222:1242   */\n      tag_55\n      tag_19\n      jump\t// in\n    tag_55:\n        /* \"#utility.yul\":1212:1242   */\n      swap1\n      pop\n        /* \"#utility.yul\":1251:1284   */\n      tag_56\n        /* \"#utility.yul\":1279:1283   */\n      dup3\n        /* \"#utility.yul\":1271:1277   */\n      dup3\n        /* \"#utility.yul\":1251:1284   */\n      tag_26\n      jump\t// in\n    tag_56:\n        /* \"#utility.yul\":1161:1290   */\n      swap2\n      swap1\n      pop\n      jump\t// out\n        /* \"#utility.yul\":1296:1603   */\n    tag_28:\n        /* \"#utility.yul\":1357:1361   */\n      0x00\n        /* \"#utility.yul\":1447:1465   */\n      0xffffffffffffffff\n        /* \"#utility.yul\":1439:1445   */\n      dup3\n        /* \"#utility.yul\":1436:1466   */\n      gt\n        /* \"#utility.yul\":1433:1489   */\n      iszero\n      tag_58\n      jumpi\n        /* \"#utility.yul\":1469:1487   */\n      tag_59\n      tag_25\n      jump\t// in\n    tag_59:\n        /* \"#utility.yul\":1433:1489   */\n    tag_58:\n        /* \"#utility.yul\":1507:1536   */\n      tag_60\n        /* \"#utility.yul\":1529:1535   */\n      dup3\n        /* \"#utility.yul\":1507:1536   */\n      tag_24\n      jump\t// in\n    tag_60:\n        /* \"#utility.yul\":1499:1536   */\n      swap1\n      pop\n        /* \"#utility.yul\":1591:1595   */\n      0x20\n        /* \"#utility.yul\":1585:1589   */\n      dup2\n        /* \"#utility.yul\":1581:1596   */\n      add\n        /* \"#utility.yul\":1573:1596   */\n      swap1\n      pop\n        /* \"#utility.yul\":1296:1603   */\n      swap2\n      swap1\n      pop\n      jump\t// out\n        /* \"#utility.yul\":1609:1757   */\n    tag_29:\n        /* \"#utility.yul\":1707:1713   */\n      dup3\n        /* \"#utility.yul\":1702:1705   */\n      dup2\n        /* \"#utility.yul\":1697:1700   */\n      dup4\n        /* \"#utility.yul\":1684:1714   */\n      calldatacopy\n        /* \"#utility.yul\":1748:1749   */\n      0x00\n        /* \"#utility.yul\":1739:1745   */\n      dup4\n        /* \"#utility.yul\":1734:1737   */\n      dup4\n        /* \"#utility.yul\":1730:1746   */\n      add\n        /* \"#utility.yul\":1723:1750   */\n      mstore\n        /* \"#utility.yul\":1609:1757   */\n      pop\n      pop\n      pop\n      jump\t// out\n        /* \"#utility.yul\":1763:2186   */\n    tag_30:\n        /* \"#utility.yul\":1840:1845   */\n      0x00\n        /* \"#utility.yul\":1865:1930   */\n      tag_63\n        /* \"#utility.yul\":1881:1929   */\n      tag_64\n        /* \"#utility.yul\":1922:1928   */\n      dup5\n        /* \"#utility.yul\":1881:1929   */\n      tag_28\n      jump\t// in\n    tag_64:\n        /* \"#utility.yul\":1865:1930   */\n      tag_27\n      jump\t// in\n    tag_63:\n        /* \"#utility.yul\":1856:1930   */\n      swap1\n      pop\n        /* \"#utility.yul\":1953:1959   */\n      dup3\n        /* \"#utility.yul\":1946:1951   */\n      dup2\n        /* \"#utility.yul\":1939:1960   */\n      mstore\n        /* \"#utility.yul\":1991:1995   */\n      0x20\n        /* \"#utility.yul\":1984:1989   */\n      dup2\n        /* \"#utility.yul\":1980:1996   */\n      add\n        /* \"#utility.yul\":2029:2032   */\n      dup5\n        /* \"#utility.yul\":2020:2026   */\n      dup5\n        /* \"#utility.yul\":2015:2018   */\n      dup5\n        /* \"#utility.yul\":2011:2027   */\n      add\n        /* \"#utility.yul\":2008:2033   */\n      gt\n        /* \"#utility.yul\":2005:2117   */\n      iszero\n      tag_65\n      jumpi\n        /* \"#utility.yul\":2036:2115   */\n      tag_66\n      tag_23\n      jump\t// in\n    tag_66:\n        /* \"#utility.yul\":2005:2117   */\n    tag_65:\n        /* \"#utility.yul\":2126:2180   */\n      tag_67\n        /* \"#utility.yul\":2173:2179   */\n      dup5\n        /* \"#utility.yul\":2168:2171   */\n      dup3\n        /* \"#utility.yul\":2163:2166   */\n      dup6\n        /* \"#utility.yul\":2126:2180   */\n      tag_29\n      jump\t// in\n    tag_67:\n        /* \"#utility.yul\":1846:2186   */\n      pop\n        /* \"#utility.yul\":1763:2186   */\n      swap4\n      swap3\n      pop\n      pop\n      pop\n      jump\t// out\n        /* \"#utility.yul\":2205:2543   */\n    tag_31:\n        /* \"#utility.yul\":2260:2265   */\n      0x00\n        /* \"#utility.yul\":2309:2312   */\n      dup3\n        /* \"#utility.yul\":2302:2306   */\n      0x1f\n        /* \"#utility.yul\":2294:2300   */\n      dup4\n        /* \"#utility.yul\":2290:2307   */\n      add\n        /* \"#utility.yul\":2286:2313   */\n      slt\n        /* \"#utility.yul\":2276:2398   */\n      tag_69\n      jumpi\n        /* \"#utility.yul\":2317:2396   */\n      tag_70\n      tag_22\n      jump\t// in\n    tag_70:\n        /* \"#utility.yul\":2276:2398   */\n    tag_69:\n        /* \"#utility.yul\":2434:2440   */\n      dup2\n        /* \"#utility.yul\":2421:2441   */\n      calldataload\n        /* \"#utility.yul\":2459:2537   */\n      tag_71\n        /* \"#utility.yul\":2533:2536   */\n      dup5\n        /* \"#utility.yul\":2525:2531   */\n      dup3\n        /* \"#utility.yul\":2518:2522   */\n      0x20\n        /* \"#utility.yul\":2510:2516   */\n      dup7\n        /* \"#utility.yul\":2506:2523   */\n      add\n        /* \"#utility.yul\":2459:2537   */\n      tag_30\n      jump\t// in\n    tag_71:\n        /* \"#utility.yul\":2450:2537   */\n      swap2\n      pop\n        /* \"#utility.yul\":2266:2543   */\n      pop\n        /* \"#utility.yul\":2205:2543   */\n      swap3\n      swap2\n      pop\n      pop\n      jump\t// out\n        /* \"#utility.yul\":2549:3056   */\n    tag_7:\n        /* \"#utility.yul\":2617:2623   */\n      0x00\n        /* \"#utility.yul\":2666:2668   */\n      0x20\n        /* \"#utility.yul\":2654:2663   */\n      dup3\n        /* \"#utility.yul\":2645:2652   */\n      dup5\n        /* \"#utility.yul\":2641:2664   */\n      sub\n        /* \"#utility.yul\":2637:2669   */\n      slt\n        /* \"#utility.yul\":2634:2753   */\n      iszero\n      tag_73\n      jumpi\n        /* \"#utility.yul\":2672:2751   */\n      tag_74\n      tag_20\n      jump\t// in\n    tag_74:\n        /* \"#utility.yul\":2634:2753   */\n    tag_73:\n        /* \"#utility.yul\":2820:2821   */\n      0x00\n        /* \"#utility.yul\":2809:2818   */\n      dup3\n        /* \"#utility.yul\":2805:2822   */\n      add\n        /* \"#utility.yul\":2792:2823   */\n      calldataload\n        /* \"#utility.yul\":2850:2868   */\n      0xffffffffffffffff\n        /* \"#utility.yul\":2842:2848   */\n      dup2\n        /* \"#utility.yul\":2839:2869   */\n      gt\n        /* \"#utility.yul\":2836:2953   */\n      iszero\n      tag_75\n      jumpi\n        /* \"#utility.yul\":2872:2951   */\n      tag_76\n      tag_21\n      jump\t// in\n    tag_76:\n        /* \"#utility.yul\":2836:2953   */\n    tag_75:\n        /* \"#utility.yul\":2977:3039   */\n      tag_77\n        /* \"#utility.yul\":3031:3038   */\n      dup5\n        /* \"#utility.yul\":3022:3028   */\n      dup3\n        /* \"#utility.yul\":3011:3020   */\n      dup6\n        /* \"#utility.yul\":3007:3029   */\n      add\n        /* \"#utility.yul\":2977:3039   */\n      tag_31\n      jump\t// in\n    tag_77:\n        /* \"#utility.yul\":2967:3039   */\n      swap2\n      pop\n        /* \"#utility.yul\":2763:3049   */\n      pop\n        /* \"#utility.yul\":2549:3056   */\n      swap3\n      swap2\n      pop\n      pop\n      jump\t// out\n        /* \"#utility.yul\":3062:3161   */\n    tag_32:\n        /* \"#utility.yul\":3114:3120   */\n      0x00\n        /* \"#utility.yul\":3148:3153   */\n      dup2\n        /* \"#utility.yul\":3142:3154   */\n      mload\n        /* \"#utility.yul\":3132:3154   */\n      swap1\n      pop\n        /* \"#utility.yul\":3062:3161   */\n      swap2\n      swap1\n      pop\n      jump\t// out\n        /* \"#utility.yul\":3167:3336   */\n    tag_33:\n        /* \"#utility.yul\":3251:3262   */\n      0x00\n        /* \"#utility.yul\":3285:3291   */\n      dup3\n        /* \"#utility.yul\":3280:3283   */\n      dup3\n        /* \"#utility.yul\":3273:3292   */\n      mstore\n        /* \"#utility.yul\":3325:3329   */\n      0x20\n        /* \"#utility.yul\":3320:3323   */\n      dup3\n        /* \"#utility.yul\":3316:3330   */\n      add\n        /* \"#utility.yul\":3301:3330   */\n      swap1\n      pop\n        /* \"#utility.yul\":3167:3336   */\n      swap3\n      swap2\n      pop\n      pop\n      jump\t// out\n        /* \"#utility.yul\":3342:3481   */\n    tag_34:\n        /* \"#utility.yul\":3431:3437   */\n      dup3\n        /* \"#utility.yul\":3426:3429   */\n      dup2\n        /* \"#utility.yul\":3421:3424   */\n      dup4\n        /* \"#utility.yul\":3415:3438   */\n      mcopy\n        /* \"#utility.yul\":3472:3473   */\n      0x00\n        /* \"#utility.yul\":3463:3469   */\n      dup4\n        /* \"#utility.yul\":3458:3461   */\n      dup4\n        /* \"#utility.yul\":3454:3470   */\n      add\n        /* \"#utility.yul\":3447:3474   */\n      mstore\n        /* \"#utility.yul\":3342:3481   */\n      pop\n      pop\n      pop\n      jump\t// out\n        /* \"#utility.yul\":3487:3864   */\n    tag_35:\n        /* \"#utility.yul\":3575:3578   */\n      0x00\n        /* \"#utility.yul\":3603:3642   */\n      tag_82\n        /* \"#utility.yul\":3636:3641   */\n      dup3\n        /* \"#utility.yul\":3603:3642   */\n      tag_32\n      jump\t// in\n    tag_82:\n        /* \"#utility.yul\":3658:3729   */\n      tag_83\n        /* \"#utility.yul\":3722:3728   */\n      dup2\n        /* \"#utility.yul\":3717:3720   */\n      dup6\n        /* \"#utility.yul\":3658:3729   */\n      tag_33\n      jump\t// in\n    tag_83:\n        /* \"#utility.yul\":3651:3729   */\n      swap4\n      pop\n        /* \"#utility.yul\":3738:3803   */\n      tag_84\n        /* \"#utility.yul\":3796:3802   */\n      dup2\n        /* \"#utility.yul\":3791:3794   */\n      dup6\n        /* \"#utility.yul\":3784:3788   */\n      0x20\n        /* \"#utility.yul\":3777:3782   */\n      dup7\n        /* \"#utility.yul\":3773:3789   */\n      add\n        /* \"#utility.yul\":3738:3803   */\n      tag_34\n      jump\t// in\n    tag_84:\n        /* \"#utility.yul\":3828:3857   */\n      tag_85\n        /* \"#utility.yul\":3850:3856   */\n      dup2\n        /* \"#utility.yul\":3828:3857   */\n      tag_24\n      jump\t// in\n    tag_85:\n        /* \"#utility.yul\":3823:3826   */\n      dup5\n        /* \"#utility.yul\":3819:3858   */\n      add\n        /* \"#utility.yul\":3812:3858   */\n      swap2\n      pop\n        /* \"#utility.yul\":3579:3864   */\n      pop\n        /* \"#utility.yul\":3487:3864   */\n      swap3\n      swap2\n      pop\n      pop\n      jump\t// out\n        /* \"#utility.yul\":3870:4183   */\n    tag_10:\n        /* \"#utility.yul\":3983:3987   */\n      0x00\n        /* \"#utility.yul\":4021:4023   */\n      0x20\n        /* \"#utility.yul\":4010:4019   */\n      dup3\n        /* \"#utility.yul\":4006:4024   */\n      add\n        /* \"#utility.yul\":3998:4024   */\n      swap1\n      pop\n        /* \"#utility.yul\":4070:4079   */\n      dup2\n        /* \"#utility.yul\":4064:4068   */\n      dup2\n        /* \"#utility.yul\":4060:4080   */\n      sub\n        /* \"#utility.yul\":4056:4057   */\n      0x00\n        /* \"#utility.yul\":4045:4054   */\n      dup4\n        /* \"#utility.yul\":4041:4058   */\n      add\n        /* \"#utility.yul\":4034:4081   */\n      mstore\n        /* \"#utility.yul\":4098:4176   */\n      tag_87\n        /* \"#utility.yul\":4171:4175   */\n      dup2\n        /* \"#utility.yul\":4162:4168   */\n      dup5\n        /* \"#utility.yul\":4098:4176   */\n      tag_35\n      jump\t// in\n    tag_87:\n        /* \"#utility.yul\":4090:4176   */\n      swap1\n      pop\n        /* \"#utility.yul\":3870:4183   */\n      swap3\n      swap2\n      pop\n      pop\n      jump\t// out\n        /* \"#utility.yul\":4189:4497   */\n    tag_36:\n        /* \"#utility.yul\":4251:4255   */\n      0x00\n        /* \"#utility.yul\":4341:4359   */\n      0xffffffffffffffff\n        /* \"#utility.yul\":4333:4339   */\n      dup3\n        /* \"#utility.yul\":4330:4360   */\n      gt\n        /* \"#utility.yul\":4327:4383   */\n      iszero\n      tag_89\n      jumpi\n        /* \"#utility.yul\":4363:4381   */\n      tag_90\n      tag_25\n      jump\t// in\n    tag_90:\n        /* \"#utility.yul\":4327:4383   */\n    tag_89:\n        /* \"#utility.yul\":4401:4430   */\n      tag_91\n        /* \"#utility.yul\":4423:4429   */\n      dup3\n        /* \"#utility.yul\":4401:4430   */\n      tag_24\n      jump\t// in\n    tag_91:\n        /* \"#utility.yul\":4393:4430   */\n      swap1\n      pop\n        /* \"#utility.yul\":4485:4489   */\n      0x20\n        /* \"#utility.yul\":4479:4483   */\n      dup2\n        /* \"#utility.yul\":4475:4490   */\n      add\n        /* \"#utility.yul\":4467:4490   */\n      swap1\n      pop\n        /* \"#utility.yul\":4189:4497   */\n      swap2\n      swap1\n      pop\n      jump\t// out\n        /* \"#utility.yul\":4503:4928   */\n    tag_37:\n        /* \"#utility.yul\":4581:4586   */\n      0x00\n        /* \"#utility.yul\":4606:4672   */\n      tag_93\n        /* \"#utility.yul\":4622:4671   */\n      tag_94\n        /* \"#utility.yul\":4664:4670   */\n      dup5\n        /* \"#utility.yul\":4622:4671   */\n      tag_36\n      jump\t// in\n    tag_94:\n        /* \"#utility.yul\":4606:4672   */\n      tag_27\n      jump\t// in\n    tag_93:\n        /* \"#utility.yul\":4597:4672   */\n      swap1\n      pop\n        /* \"#utility.yul\":4695:4701   */\n      dup3\n        /* \"#utility.yul\":4688:4693   */\n      dup2\n        /* \"#utility.yul\":4681:4702   */\n      mstore\n        /* \"#utility.yul\":4733:4737   */\n      0x20\n        /* \"#utility.yul\":4726:4731   */\n      dup2\n        /* \"#utility.yul\":4722:4738   */\n      add\n        /* \"#utility.yul\":4771:4774   */\n      dup5\n        /* \"#utility.yul\":4762:4768   */\n      dup5\n        /* \"#utility.yul\":4757:4760   */\n      dup5\n        /* \"#utility.yul\":4753:4769   */\n      add\n        /* \"#utility.yul\":4750:4775   */\n      gt\n        /* \"#utility.yul\":4747:4859   */\n      iszero\n      tag_95\n      jumpi\n        /* \"#utility.yul\":4778:4857   */\n      tag_96\n      tag_23\n      jump\t// in\n    tag_96:\n        /* \"#utility.yul\":4747:4859   */\n    tag_95:\n        /* \"#utility.yul\":4868:4922   */\n      tag_97\n        /* \"#utility.yul\":4915:4921   */\n      dup5\n        /* \"#utility.yul\":4910:4913   */\n      dup3\n        /* \"#utility.yul\":4905:4908   */\n      dup6\n        /* \"#utility.yul\":4868:4922   */\n      tag_29\n      jump\t// in\n    tag_97:\n        /* \"#utility.yul\":4587:4928   */\n      pop\n        /* \"#utility.yul\":4503:4928   */\n      swap4\n      swap3\n      pop\n      pop\n      pop\n      jump\t// out\n        /* \"#utility.yul\":4948:5288   */\n    tag_38:\n        /* \"#utility.yul\":5004:5009   */\n      0x00\n        /* \"#utility.yul\":5053:5056   */\n      dup3\n        /* \"#utility.yul\":5046:5050   */\n      0x1f\n        /* \"#utility.yul\":5038:5044   */\n      dup4\n        /* \"#utility.yul\":5034:5051   */\n      add\n        /* \"#utility.yul\":5030:5057   */\n      slt\n        /* \"#utility.yul\":5020:5142   */\n      tag_99\n      jumpi\n        /* \"#utility.yul\":5061:5140   */\n      tag_100\n      tag_22\n      jump\t// in\n    tag_100:\n        /* \"#utility.yul\":5020:5142   */\n    tag_99:\n        /* \"#utility.yul\":5178:5184   */\n      dup2\n        /* \"#utility.yul\":5165:5185   */\n      calldataload\n        /* \"#utility.yul\":5203:5282   */\n      tag_101\n        /* \"#utility.yul\":5278:5281   */\n      dup5\n        /* \"#utility.yul\":5270:5276   */\n      dup3\n        /* \"#utility.yul\":5263:5267   */\n      0x20\n        /* \"#utility.yul\":5255:5261   */\n      dup7\n        /* \"#utility.yul\":5251:5268   */\n      add\n        /* \"#utility.yul\":5203:5282   */\n      tag_37\n      jump\t// in\n    tag_101:\n        /* \"#utility.yul\":5194:5282   */\n      swap2\n      pop\n        /* \"#utility.yul\":5010:5288   */\n      pop\n        /* \"#utility.yul\":4948:5288   */\n      swap3\n      swap2\n      pop\n      pop\n      jump\t// out\n        /* \"#utility.yul\":5294:5803   */\n    tag_13:\n        /* \"#utility.yul\":5363:5369   */\n      0x00\n        /* \"#utility.yul\":5412:5414   */\n      0x20\n        /* \"#utility.yul\":5400:5409   */\n      dup3\n        /* \"#utility.yul\":5391:5398   */\n      dup5\n        /* \"#utility.yul\":5387:5410   */\n      sub\n        /* \"#utility.yul\":5383:5415   */\n      slt\n        /* \"#utility.yul\":5380:5499   */\n      iszero\n      tag_103\n      jumpi\n        /* \"#utility.yul\":5418:5497   */\n      tag_104\n      tag_20\n      jump\t// in\n    tag_104:\n        /* \"#utility.yul\":5380:5499   */\n    tag_103:\n        /* \"#utility.yul\":5566:5567   */\n      0x00\n        /* \"#utility.yul\":5555:5564   */\n      dup3\n        /* \"#utility.yul\":5551:5568   */\n      add\n        /* \"#utility.yul\":5538:5569   */\n      calldataload\n        /* \"#utility.yul\":5596:5614   */\n      0xffffffffffffffff\n        /* \"#utility.yul\":5588:5594   */\n      dup2\n        /* \"#utility.yul\":5585:5615   */\n      gt\n        /* \"#utility.yul\":5582:5699   */\n      iszero\n      tag_105\n      jumpi\n        /* \"#utility.yul\":5618:5697   */\n      tag_106\n      tag_21\n      jump\t// in\n    tag_106:\n        /* \"#utility.yul\":5582:5699   */\n    tag_105:\n        /* \"#utility.yul\":5723:5786   */\n      tag_107\n        /* \"#utility.yul\":5778:5785   */\n      dup5\n        /* \"#utility.yul\":5769:5775   */\n      dup3\n        /* \"#utility.yul\":5758:5767   */\n      dup6\n        /* \"#utility.yul\":5754:5776   */\n      add\n        /* \"#utility.yul\":5723:5786   */\n      tag_38\n      jump\t// in\n    tag_107:\n        /* \"#utility.yul\":5713:5786   */\n      swap2\n      pop\n        /* \"#utility.yul\":5509:5796   */\n      pop\n        /* \"#utility.yul\":5294:5803   */\n      swap3\n      swap2\n      pop\n      pop\n      jump\t// out\n        /* \"#utility.yul\":5809:5907   */\n    tag_39:\n        /* \"#utility.yul\":5860:5866   */\n      0x00\n        /* \"#utility.yul\":5894:5899   */\n      dup2\n        /* \"#utility.yul\":5888:5900   */\n      mload\n        /* \"#utility.yul\":5878:5900   */\n      swap1\n      pop\n        /* \"#utility.yul\":5809:5907   */\n      swap2\n      swap1\n      pop\n      jump\t// out\n        /* \"#utility.yul\":5913:6081   */\n    tag_40:\n        /* \"#utility.yul\":5996:6007   */\n      0x00\n        /* \"#utility.yul\":6030:6036   */\n      dup3\n        /* \"#utility.yul\":6025:6028   */\n      dup3\n        /* \"#utility.yul\":6018:6037   */\n      mstore\n        /* \"#utility.yul\":6070:6074   */\n      0x20\n        /* \"#utility.yul\":6065:6068   */\n      dup3\n        /* \"#utility.yul\":6061:6075   */\n      add\n        /* \"#utility.yul\":6046:6075   */\n      swap1\n      pop\n        /* \"#utility.yul\":5913:6081   */\n      swap3\n      swap2\n      pop\n      pop\n      jump\t// out\n        /* \"#utility.yul\":6087:6460   */\n    tag_41:\n        /* \"#utility.yul\":6173:6176   */\n      0x00\n        /* \"#utility.yul\":6201:6239   */\n      tag_111\n        /* \"#utility.yul\":6233:6238   */\n      dup3\n        /* \"#utility.yul\":6201:6239   */\n      tag_39\n      jump\t// in\n    tag_111:\n        /* \"#utility.yul\":6255:6325   */\n      tag_112\n        /* \"#utility.yul\":6318:6324   */\n      dup2\n        /* \"#utility.yul\":6313:6316   */\n      dup6\n        /* \"#utility.yul\":6255:6325   */\n      tag_40\n      jump\t// in\n    tag_112:\n        /* \"#utility.yul\":6248:6325   */\n      swap4\n      pop\n        /* \"#utility.yul\":6334:6399   */\n      tag_113\n        /* \"#utility.yul\":6392:6398   */\n      dup2\n        /* \"#utility.yul\":6387:6390   */\n      dup6\n        /* \"#utility.yul\":6380:6384   */\n      0x20\n        /* \"#utility.yul\":6373:6378   */\n      dup7\n        /* \"#utility.yul\":6369:6385   */\n      add\n        /* \"#utility.yul\":6334:6399   */\n      tag_34\n      jump\t// in\n    tag_113:\n        /* \"#utility.yul\":6424:6453   */\n      tag_114\n        /* \"#utility.yul\":6446:6452   */\n      dup2\n        /* \"#utility.yul\":6424:6453   */\n      tag_24\n      jump\t// in\n    tag_114:\n        /* \"#utility.yul\":6419:6422   */\n      dup5\n        /* \"#utility.yul\":6415:6454   */\n      add\n        /* \"#utility.yul\":6408:6454   */\n      swap2\n      pop\n        /* \"#utility.yul\":6177:6460   */\n      pop\n        /* \"#utility.yul\":6087:6460   */\n      swap3\n      swap2\n      pop\n      pop\n      jump\t// out\n        /* \"#utility.yul\":6466:6775   */\n    tag_16:\n        /* \"#utility.yul\":6577:6581   */\n      0x00\n        /* \"#utility.yul\":6615:6617   */\n      0x20\n        /* \"#utility.yul\":6604:6613   */\n      dup3\n        /* \"#utility.yul\":6600:6618   */\n      add\n        /* \"#utility.yul\":6592:6618   */\n      swap1\n      pop\n        /* \"#utility.yul\":6664:6673   */\n      dup2\n        /* \"#utility.yul\":6658:6662   */\n      dup2\n        /* \"#utility.yul\":6654:6674   */\n      sub\n        /* \"#utility.yul\":6650:6651   */\n      0x00\n        /* \"#utility.yul\":6639:6648   */\n      dup4\n        /* \"#utility.yul\":6635:6652   */\n      add\n        /* \"#utility.yul\":6628:6675   */\n      mstore\n        /* \"#utility.yul\":6692:6768   */\n      tag_116\n        /* \"#utility.yul\":6763:6767   */\n      dup2\n        /* \"#utility.yul\":6754:6760   */\n      dup5\n        /* \"#utility.yul\":6692:6768   */\n      tag_41\n      jump\t// in\n    tag_116:\n        /* \"#utility.yul\":6684:6768   */\n      swap1\n      pop\n        /* \"#utility.yul\":6466:6775   */\n      swap3\n      swap2\n      pop\n      pop\n      jump\t// out\n\n    auxdata: 0xa2646970667358221220728b41be0794d6ed54e7985720e890f6a33be4cecce381d8683a0a13d45411de64736f6c63430008190033\n}\n",
				"bytecode": {
					"linkReferences": {},
					"object": "6080604052348015600e575f80fd5b5061044d8061001c5f395ff3fe608060405234801561000f575f80fd5b5060043610610034575f3560e01c806339614e4f14610038578063e106fb4b14610068575b5f80fd5b610052600480360381019061004d91906101f9565b610098565b60405161005f91906102a0565b60405180910390f35b610082600480360381019061007d919061035e565b6100a2565b60405161008f91906103f7565b60405180910390f35b6060819050919050565b6060819050919050565b5f604051905090565b5f80fd5b5f80fd5b5f80fd5b5f80fd5b5f601f19601f8301169050919050565b7f4e487b71000000000000000000000000000000000000000000000000000000005f52604160045260245ffd5b61010b826100c5565b810181811067ffffffffffffffff8211171561012a576101296100d5565b5b80604052505050565b5f61013c6100ac565b90506101488282610102565b919050565b5f67ffffffffffffffff821115610167576101666100d5565b5b610170826100c5565b9050602081019050919050565b828183375f83830152505050565b5f61019d6101988461014d565b610133565b9050828152602081018484840111156101b9576101b86100c1565b5b6101c484828561017d565b509392505050565b5f82601f8301126101e0576101df6100bd565b5b81356101f084826020860161018b565b91505092915050565b5f6020828403121561020e5761020d6100b5565b5b5f82013567ffffffffffffffff81111561022b5761022a6100b9565b5b610237848285016101cc565b91505092915050565b5f81519050919050565b5f82825260208201905092915050565b8281835e5f83830152505050565b5f61027282610240565b61027c818561024a565b935061028c81856020860161025a565b610295816100c5565b840191505092915050565b5f6020820190508181035f8301526102b88184610268565b905092915050565b5f67ffffffffffffffff8211156102da576102d96100d5565b5b6102e3826100c5565b9050602081019050919050565b5f6103026102fd846102c0565b610133565b90508281526020810184848401111561031e5761031d6100c1565b5b61032984828561017d565b509392505050565b5f82601f830112610345576103446100bd565b5b81356103558482602086016102f0565b91505092915050565b5f60208284031215610373576103726100b5565b5b5f82013567ffffffffffffffff8111156103905761038f6100b9565b5b61039c84828501610331565b91505092915050565b5f81519050919050565b5f82825260208201905092915050565b5f6103c9826103a5565b6103d381856103af565b93506103e381856020860161025a565b6103ec816100c5565b840191505092915050565b5f6020820190508181035f83015261040f81846103bf565b90509291505056fea2646970667358221220728b41be0794d6ed54e7985720e890f6a33be4cecce381d8683a0a13d45411de64736f6c63430008190033",
					"opcodes": "PUSH1 0x80 PUSH1 0x40 MSTORE CALLVALUE DUP1 ISZERO PUSH1 0xE JUMPI PUSH0 DUP1 REVERT JUMPDEST POP PUSH2 0x44D DUP1 PUSH2 0x1C PUSH0 CODECOPY PUSH0 RETURN INVALID PUSH1 0x80 PUSH1 0x40 MSTORE CALLVALUE DUP1 ISZERO PUSH2 0xF JUMPI PUSH0 DUP1 REVERT JUMPDEST POP PUSH1 0x4 CALLDATASIZE LT PUSH2 0x34 JUMPI PUSH0 CALLDATALOAD PUSH1 0xE0 SHR DUP1 PUSH4 0x39614E4F EQ PUSH2 0x38 JUMPI DUP1 PUSH4 0xE106FB4B EQ PUSH2 0x68 JUMPI JUMPDEST PUSH0 DUP1 REVERT JUMPDEST PUSH2 0x52 PUSH1 0x4 DUP1 CALLDATASIZE SUB DUP2 ADD SWAP1 PUSH2 0x4D SWAP2 SWAP1 PUSH2 0x1F9 JUMP JUMPDEST PUSH2 0x98 JUMP JUMPDEST PUSH1 0x40 MLOAD PUSH2 0x5F SWAP2 SWAP1 PUSH2 0x2A0 JUMP JUMPDEST PUSH1 0x40 MLOAD DUP1 SWAP2 SUB SWAP1 RETURN JUMPDEST PUSH2 0x82 PUSH1 0x4 DUP1 CALLDATASIZE SUB DUP2 ADD SWAP1 PUSH2 0x7D SWAP2 SWAP1 PUSH2 0x35E JUMP JUMPDEST PUSH2 0xA2 JUMP JUMPDEST PUSH1 0x40 MLOAD PUSH2 0x8F SWAP2 SWAP1 PUSH2 0x3F7 JUMP JUMPDEST PUSH1 0x40 MLOAD DUP1 SWAP2 SUB SWAP1 RETURN JUMPDEST PUSH1 0x60 DUP2 SWAP1 POP SWAP2 SWAP1 POP JUMP JUMPDEST PUSH1 0x60 DUP2 SWAP1 POP SWAP2 SWAP1 POP JUMP JUMPDEST PUSH0 PUSH1 0x40 MLOAD SWAP1 POP SWAP1 JUMP JUMPDEST PUSH0 DUP1 REVERT JUMPDEST PUSH0 DUP1 REVERT JUMPDEST PUSH0 DUP1 REVERT JUMPDEST PUSH0 DUP1 REVERT JUMPDEST PUSH0 PUSH1 0x1F NOT PUSH1 0x1F DUP4 ADD AND SWAP1 POP SWAP2 SWAP1 POP JUMP JUMPDEST PUSH32 0x4E487B7100000000000000000000000000000000000000000000000000000000 PUSH0 MSTORE PUSH1 0x41 PUSH1 0x4 MSTORE PUSH1 0x24 PUSH0 REVERT JUMPDEST PUSH2 0x10B DUP3 PUSH2 0xC5 JUMP JUMPDEST DUP2 ADD DUP2 DUP2 LT PUSH8 0xFFFFFFFFFFFFFFFF DUP3 GT OR ISZERO PUSH2 0x12A JUMPI PUSH2 0x129 PUSH2 0xD5 JUMP JUMPDEST JUMPDEST DUP1 PUSH1 0x40 MSTORE POP POP POP JUMP JUMPDEST PUSH0 PUSH2 0x13C PUSH2 0xAC JUMP JUMPDEST SWAP1 POP PUSH2 0x148 DUP3 DUP3 PUSH2 0x102 JUMP JUMPDEST SWAP2 SWAP1 POP JUMP JUMPDEST PUSH0 PUSH8 0xFFFFFFFFFFFFFFFF DUP3 GT ISZERO PUSH2 0x167 JUMPI PUSH2 0x166 PUSH2 0xD5 JUMP JUMPDEST JUMPDEST PUSH2 0x170 DUP3 PUSH2 0xC5 JUMP JUMPDEST SWAP1 POP PUSH1 0x20 DUP2 ADD SWAP1 POP SWAP2 SWAP1 POP JUMP JUMPDEST DUP3 DUP2 DUP4 CALLDATACOPY PUSH0 DUP4 DUP4 ADD MSTORE POP POP POP JUMP JUMPDEST PUSH0 PUSH2 0x19D PUSH2 0x198 DUP5 PUSH2 0x14D JUMP JUMPDEST PUSH2 0x133 JUMP JUMPDEST SWAP1 POP DUP3 DUP2 MSTORE PUSH1 0x20 DUP2 ADD DUP5 DUP5 DUP5 ADD GT ISZERO PUSH2 0x1B9 JUMPI PUSH2 0x1B8 PUSH2 0xC1 JUMP JUMPDEST JUMPDEST PUSH2 0x1C4 DUP5 DUP3 DUP6 PUSH2 0x17D JUMP JUMPDEST POP SWAP4 SWAP3 POP POP POP JUMP JUMPDEST PUSH0 DUP3 PUSH1 0x1F DUP4 ADD SLT PUSH2 0x1E0 JUMPI PUSH2 0x1DF PUSH2 0xBD JUMP JUMPDEST JUMPDEST DUP2 CALLDATALOAD PUSH2 0x1F0 DUP5 DUP3 PUSH1 0x20 DUP7 ADD PUSH2 0x18B JUMP JUMPDEST SWAP2 POP POP SWAP3 SWAP2 POP POP JUMP JUMPDEST PUSH0 PUSH1 0x20 DUP3 DUP5 SUB SLT ISZERO PUSH2 0x20E JUMPI PUSH2 0x20D PUSH2 0xB5 JUMP JUMPDEST JUMPDEST PUSH0 DUP3 ADD CALLDATALOAD PUSH8 0xFFFFFFFFFFFFFFFF DUP2 GT ISZERO PUSH2 0x22B JUMPI PUSH2 0x22A PUSH2 0xB9 JUMP JUMPDEST JUMPDEST PUSH2 0x237 DUP5 DUP3 DUP6 ADD PUSH2 0x1CC JUMP JUMPDEST SWAP2 POP POP SWAP3 SWAP2 POP POP JUMP JUMPDEST PUSH0 DUP2 MLOAD SWAP1 POP SWAP2 SWAP1 POP JUMP JUMPDEST PUSH0 DUP3 DUP3 MSTORE PUSH1 0x20 DUP3 ADD SWAP1 POP SWAP3 SWAP2 POP POP JUMP JUMPDEST DUP3 DUP2 DUP4 MCOPY PUSH0 DUP4 DUP4 ADD MSTORE POP POP POP JUMP JUMPDEST PUSH0 PUSH2 0x272 DUP3 PUSH2 0x240 JUMP JUMPDEST PUSH2 0x27C DUP2 DUP6 PUSH2 0x24A JUMP JUMPDEST SWAP4 POP PUSH2 0x28C DUP2 DUP6 PUSH1 0x20 DUP7 ADD PUSH2 0x25A JUMP JUMPDEST PUSH2 0x295 DUP2 PUSH2 0xC5 JUMP JUMPDEST DUP5 ADD SWAP2 POP POP SWAP3 SWAP2 POP POP JUMP JUMPDEST PUSH0 PUSH1 0x20 DUP3 ADD SWAP1 POP DUP2 DUP2 SUB PUSH0 DUP4 ADD MSTORE PUSH2 0x2B8 DUP2 DUP5 PUSH2 0x268 JUMP JUMPDEST SWAP1 POP SWAP3 SWAP2 POP POP JUMP JUMPDEST PUSH0 PUSH8 0xFFFFFFFFFFFFFFFF DUP3 GT ISZERO PUSH2 0x2DA JUMPI PUSH2 0x2D9 PUSH2 0xD5 JUMP JUMPDEST JUMPDEST PUSH2 0x2E3 DUP3 PUSH2 0xC5 JUMP JUMPDEST SWAP1 POP PUSH1 0x20 DUP2 ADD SWAP1 POP SWAP2 SWAP1 POP JUMP JUMPDEST PUSH0 PUSH2 0x302 PUSH2 0x2FD DUP5 PUSH2 0x2C0 JUMP JUMPDEST PUSH2 0x133 JUMP JUMPDEST SWAP1 POP DUP3 DUP2 MSTORE PUSH1 0x20 DUP2 ADD DUP5 DUP5 DUP5 ADD GT ISZERO PUSH2 0x31E JUMPI PUSH2 0x31D PUSH2 0xC1 JUMP JUMPDEST JUMPDEST PUSH2 0x329 DUP5 DUP3 DUP6 PUSH2 0x17D JUMP JUMPDEST POP SWAP4 SWAP3 POP POP POP JUMP JUMPDEST PUSH0 DUP3 PUSH1 0x1F DUP4 ADD SLT PUSH2 0x345 JUMPI PUSH2 0x344 PUSH2 0xBD JUMP JUMPDEST JUMPDEST DUP2 CALLDATALOAD PUSH2 0x355 DUP5 DUP3 PUSH1 0x20 DUP7 ADD PUSH2 0x2F0 JUMP JUMPDEST SWAP2 POP POP SWAP3 SWAP2 POP POP JUMP JUMPDEST PUSH0 PUSH1 0x20 DUP3 DUP5 SUB SLT ISZERO PUSH2 0x373 JUMPI PUSH2 0x372 PUSH2 0xB5 JUMP JUMPDEST JUMPDEST PUSH0 DUP3 ADD CALLDATALOAD PUSH8 0xFFFFFFFFFFFFFFFF DUP2 GT ISZERO PUSH2 0x390 JUMPI PUSH2 0x38F PUSH2 0xB9 JUMP JUMPDEST JUMPDEST PUSH2 0x39C DUP5 DUP3 DUP6 ADD PUSH2 0x331 JUMP JUMPDEST SWAP2 POP POP SWAP3 SWAP2 POP POP JUMP JUMPDEST PUSH0 DUP2 MLOAD SWAP1 POP SWAP2 SWAP1 POP JUMP JUMPDEST PUSH0 DUP3 DUP3 MSTORE PUSH1 0x20 DUP3 ADD SWAP1 POP SWAP3 SWAP2 POP POP JUMP JUMPDEST PUSH0 PUSH2 0x3C9 DUP3 PUSH2 0x3A5 JUMP JUMPDEST PUSH2 0x3D3 DUP2 DUP6 PUSH2 0x3AF JUMP JUMPDEST SWAP4 POP PUSH2 0x3E3 DUP2 DUP6 PUSH1 0x20 DUP7 ADD PUSH2 0x25A JUMP JUMPDEST PUSH2 0x3EC DUP2 PUSH2 0xC5 JUMP JUMPDEST DUP5 ADD SWAP2 POP POP SWAP3 SWAP2 POP POP JUMP JUMPDEST PUSH0 PUSH1 0x20 DUP3 ADD SWAP1 POP DUP2 DUP2 SUB PUSH0 DUP4 ADD MSTORE PUSH2 0x40F DUP2 DUP5 PUSH2 0x3BF JUMP JUMPDEST SWAP1 POP SWAP3 SWAP2 POP POP JUMP INVALID LOG2 PUSH5 0x6970667358 0x22 SLT KECCAK256 PUSH19 0x8B41BE0794D6ED54E7985720E890F6A33BE4CE 0xCC 0xE3 DUP2 0xD8 PUSH9 0x3A0A13D45411DE6473 PUSH16 0x6C634300081900330000000000000000 "
				},
				"gasEstimates": {
					"creation": {
						"codeDepositCost": "220200",
						"executionCost": "261",
						"totalCost": "220461"
					},
					"external": {
						"bytesToString(bytes)": "infinite",
						"stringToBytes(string)": "infinite"
					}
				},
				"methodIdentifiers": {
					"bytesToString(bytes)": "39614e4f",
					"stringToBytes(string)": "e106fb4b"
				}
			},
			"storageLayout": {
				"storage": [],
				"types": null
			},
			"userdoc": {
				"kind": "user",
				"methods": {},
				"version": 1
			}
		}
	}
}