{
	"solidity_100/51-60.sol": {
		"Internal": {
			"abi": [
				{
					"inputs": [],
					"name": "a",
					"outputs": [
						{
							"internalType": "uint256",
							"name": "",
							"type": "uint256"
						}
					],
					"stateMutability": "view",
					"type": "function"
				},
				{
					"inputs": [],
					"name": "b",
					"outputs": [
						{
							"internalType": "uint256",
							"name": "",
							"type": "uint256"
						}
					],
					"stateMutability": "view",
					"type": "function"
				},
				{
					"inputs": [],
					"name": "c",
					"outputs": [
						{
							"internalType": "uint256",
							"name": "",
							"type": "uint256"
						}
					],
					"stateMutability": "view",
					"type": "function"
				},
				{
					"inputs": [
						{
							"internalType": "address",
							"name": "_ABC",
							"type": "address"
						}
					],
					"name": "setAddress",
					"outputs": [],
					"stateMutability": "nonpayable",
					"type": "function"
				},
				{
					"inputs": [
						{
							"internalType": "uint256",
							"name": "_n",
							"type": "uint256"
						}
					],
					"name": "setC",
					"outputs": [],
					"stateMutability": "nonpayable",
					"type": "function"
				},
				{
					"inputs": [
						{
							"internalType": "uint256",
							"name": "_n",
							"type": "uint256"
						}
					],
					"name": "setb",
					"outputs": [],
					"stateMutability": "nonpayable",
					"type": "function"
				}
			],
			"devdoc": {
				"kind": "dev",
				"methods": {},
				"version": 1
			},
			"evm": {
				"assembly": "    /* \"solidity_100/51-60.sol\":5632:5849  contract Internal is ABC {... */\n  mstore(0x40, 0x80)\n    /* \"solidity_100/51-60.sol\":5679:5688  new ABC() */\n  mload(0x40)\n  tag_1\n  swap1\n  tag_2\n  jump\t// in\ntag_1:\n  mload(0x40)\n  dup1\n  swap2\n  sub\n  swap1\n  0x00\n  create\n  dup1\n  iszero\n  dup1\n  iszero\n  tag_3\n  jumpi\n  returndatasize\n  0x00\n  dup1\n  returndatacopy\n  revert(0x00, returndatasize)\ntag_3:\n  pop\n    /* \"solidity_100/51-60.sol\":5664:5688  ABC INTERNAL = new ABC() */\n  0x03\n  exp(0x0100, 0x00)\n  dup2\n  sload\n  dup2\n  0xffffffffffffffffffffffffffffffffffffffff\n  mul\n  not\n  and\n  swap1\n  dup4\n  0xffffffffffffffffffffffffffffffffffffffff\n  and\n  mul\n  or\n  swap1\n  sstore\n  pop\n    /* \"solidity_100/51-60.sol\":5632:5849  contract Internal is ABC {... */\n  callvalue\n  dup1\n  iszero\n  tag_4\n  jumpi\n  0x00\n  dup1\n  revert\ntag_4:\n  pop\n  jump(tag_5)\ntag_2:\n  dataSize(sub_1)\n  dup1\n  dataOffset(sub_1)\n  dup4\n  codecopy\n  add\n  swap1\n  jump\t// out\ntag_5:\n  dataSize(sub_0)\n  dup1\n  dataOffset(sub_0)\n  0x00\n  codecopy\n  0x00\n  return\nstop\n\nsub_0: assembly {\n        /* \"solidity_100/51-60.sol\":5632:5849  contract Internal is ABC {... */\n      mstore(0x40, 0x80)\n      callvalue\n      dup1\n      iszero\n      tag_1\n      jumpi\n      0x00\n      dup1\n      revert\n    tag_1:\n      pop\n      jumpi(tag_2, lt(calldatasize, 0x04))\n      shr(0xe0, calldataload(0x00))\n      dup1\n      0x0dbe671f\n      eq\n      tag_3\n      jumpi\n      dup1\n      0x4df7e3d0\n      eq\n      tag_4\n      jumpi\n      dup1\n      0xb01d41ee\n      eq\n      tag_5\n      jumpi\n      dup1\n      0xc3da42b8\n      eq\n      tag_6\n      jumpi\n      dup1\n      0xe30081a0\n      eq\n      tag_7\n      jumpi\n      dup1\n      0xeeb4914e\n      eq\n      tag_8\n      jumpi\n    tag_2:\n      0x00\n      dup1\n      revert\n        /* \"solidity_100/51-60.sol\":5377:5390  uint public a */\n    tag_3:\n      tag_9\n      tag_10\n      jump\t// in\n    tag_9:\n      mload(0x40)\n      tag_11\n      swap2\n      swap1\n      tag_12\n      jump\t// in\n    tag_11:\n      mload(0x40)\n      dup1\n      swap2\n      sub\n      swap1\n      return\n        /* \"solidity_100/51-60.sol\":5397:5410  uint public b */\n    tag_4:\n      tag_13\n      tag_14\n      jump\t// in\n    tag_13:\n      mload(0x40)\n      tag_15\n      swap2\n      swap1\n      tag_12\n      jump\t// in\n    tag_15:\n      mload(0x40)\n      dup1\n      swap2\n      sub\n      swap1\n      return\n        /* \"solidity_100/51-60.sol\":5789:5846  function setb(uint _n) public {... */\n    tag_5:\n      tag_16\n      0x04\n      dup1\n      calldatasize\n      sub\n      dup2\n      add\n      swap1\n      tag_17\n      swap2\n      swap1\n      tag_18\n      jump\t// in\n    tag_17:\n      tag_19\n      jump\t// in\n    tag_16:\n      stop\n        /* \"solidity_100/51-60.sol\":5417:5430  uint public c */\n    tag_6:\n      tag_20\n      tag_21\n      jump\t// in\n    tag_20:\n      mload(0x40)\n      tag_22\n      swap2\n      swap1\n      tag_12\n      jump\t// in\n    tag_22:\n      mload(0x40)\n      dup1\n      swap2\n      sub\n      swap1\n      return\n        /* \"solidity_100/51-60.sol\":5701:5781  function setAddress(address _ABC) public {... */\n    tag_7:\n      tag_23\n      0x04\n      dup1\n      calldatasize\n      sub\n      dup2\n      add\n      swap1\n      tag_24\n      swap2\n      swap1\n      tag_25\n      jump\t// in\n    tag_24:\n      tag_26\n      jump\t// in\n    tag_23:\n      stop\n        /* \"solidity_100/51-60.sol\":5568:5623  function setC(uint _n) public {... */\n    tag_8:\n      tag_27\n      0x04\n      dup1\n      calldatasize\n      sub\n      dup2\n      add\n      swap1\n      tag_28\n      swap2\n      swap1\n      tag_18\n      jump\t// in\n    tag_28:\n      tag_29\n      jump\t// in\n    tag_27:\n      stop\n        /* \"solidity_100/51-60.sol\":5377:5390  uint public a */\n    tag_10:\n      sload(0x00)\n      dup2\n      jump\t// out\n        /* \"solidity_100/51-60.sol\":5397:5410  uint public b */\n    tag_14:\n      sload(0x01)\n      dup2\n      jump\t// out\n        /* \"solidity_100/51-60.sol\":5789:5846  function setb(uint _n) public {... */\n    tag_19:\n        /* \"solidity_100/51-60.sol\":5830:5838  setB(_n) */\n      tag_31\n        /* \"solidity_100/51-60.sol\":5835:5837  _n */\n      dup2\n        /* \"solidity_100/51-60.sol\":5830:5834  setB */\n      tag_32\n        /* \"solidity_100/51-60.sol\":5830:5838  setB(_n) */\n      jump\t// in\n    tag_31:\n        /* \"solidity_100/51-60.sol\":5789:5846  function setb(uint _n) public {... */\n      pop\n      jump\t// out\n        /* \"solidity_100/51-60.sol\":5417:5430  uint public c */\n    tag_21:\n      sload(0x02)\n      dup2\n      jump\t// out\n        /* \"solidity_100/51-60.sol\":5701:5781  function setAddress(address _ABC) public {... */\n    tag_26:\n        /* \"solidity_100/51-60.sol\":5768:5772  _ABC */\n      dup1\n        /* \"solidity_100/51-60.sol\":5753:5761  INTERNAL */\n      0x03\n      0x00\n        /* \"solidity_100/51-60.sol\":5753:5773  INTERNAL = ABC(_ABC) */\n      0x0100\n      exp\n      dup2\n      sload\n      dup2\n      0xffffffffffffffffffffffffffffffffffffffff\n      mul\n      not\n      and\n      swap1\n      dup4\n      0xffffffffffffffffffffffffffffffffffffffff\n      and\n      mul\n      or\n      swap1\n      sstore\n      pop\n        /* \"solidity_100/51-60.sol\":5701:5781  function setAddress(address _ABC) public {... */\n      pop\n      jump\t// out\n        /* \"solidity_100/51-60.sol\":5568:5623  function setC(uint _n) public {... */\n    tag_29:\n        /* \"solidity_100/51-60.sol\":5613:5615  _n */\n      dup1\n        /* \"solidity_100/51-60.sol\":5609:5610  c */\n      0x02\n        /* \"solidity_100/51-60.sol\":5609:5615  c = _n */\n      dup2\n      swap1\n      sstore\n      pop\n        /* \"solidity_100/51-60.sol\":5568:5623  function setC(uint _n) public {... */\n      pop\n      jump\t// out\n        /* \"solidity_100/51-60.sol\":5503:5560  function setB(uint _n) internal {... */\n    tag_32:\n        /* \"solidity_100/51-60.sol\":5550:5552  _n */\n      dup1\n        /* \"solidity_100/51-60.sol\":5546:5547  b */\n      0x01\n        /* \"solidity_100/51-60.sol\":5546:5552  b = _n */\n      dup2\n      swap1\n      sstore\n      pop\n        /* \"solidity_100/51-60.sol\":5503:5560  function setB(uint _n) internal {... */\n      pop\n      jump\t// out\n        /* \"#utility.yul\":7:84   */\n    tag_36:\n        /* \"#utility.yul\":44:51   */\n      0x00\n        /* \"#utility.yul\":73:78   */\n      dup2\n        /* \"#utility.yul\":62:78   */\n      swap1\n      pop\n        /* \"#utility.yul\":7:84   */\n      swap2\n      swap1\n      pop\n      jump\t// out\n        /* \"#utility.yul\":90:208   */\n    tag_37:\n        /* \"#utility.yul\":177:201   */\n      tag_50\n        /* \"#utility.yul\":195:200   */\n      dup2\n        /* \"#utility.yul\":177:201   */\n      tag_36\n      jump\t// in\n    tag_50:\n        /* \"#utility.yul\":172:175   */\n      dup3\n        /* \"#utility.yul\":165:202   */\n      mstore\n        /* \"#utility.yul\":90:208   */\n      pop\n      pop\n      jump\t// out\n        /* \"#utility.yul\":214:436   */\n    tag_12:\n        /* \"#utility.yul\":307:311   */\n      0x00\n        /* \"#utility.yul\":345:347   */\n      0x20\n        /* \"#utility.yul\":334:343   */\n      dup3\n        /* \"#utility.yul\":330:348   */\n      add\n        /* \"#utility.yul\":322:348   */\n      swap1\n      pop\n        /* \"#utility.yul\":358:429   */\n      tag_52\n        /* \"#utility.yul\":426:427   */\n      0x00\n        /* \"#utility.yul\":415:424   */\n      dup4\n        /* \"#utility.yul\":411:428   */\n      add\n        /* \"#utility.yul\":402:408   */\n      dup5\n        /* \"#utility.yul\":358:429   */\n      tag_37\n      jump\t// in\n    tag_52:\n        /* \"#utility.yul\":214:436   */\n      swap3\n      swap2\n      pop\n      pop\n      jump\t// out\n        /* \"#utility.yul\":523:640   */\n    tag_39:\n        /* \"#utility.yul\":632:633   */\n      0x00\n        /* \"#utility.yul\":629:630   */\n      dup1\n        /* \"#utility.yul\":622:634   */\n      revert\n        /* \"#utility.yul\":769:891   */\n    tag_41:\n        /* \"#utility.yul\":842:866   */\n      tag_57\n        /* \"#utility.yul\":860:865   */\n      dup2\n        /* \"#utility.yul\":842:866   */\n      tag_36\n      jump\t// in\n    tag_57:\n        /* \"#utility.yul\":835:840   */\n      dup2\n        /* \"#utility.yul\":832:867   */\n      eq\n        /* \"#utility.yul\":822:885   */\n      tag_58\n      jumpi\n        /* \"#utility.yul\":881:882   */\n      0x00\n        /* \"#utility.yul\":878:879   */\n      dup1\n        /* \"#utility.yul\":871:883   */\n      revert\n        /* \"#utility.yul\":822:885   */\n    tag_58:\n        /* \"#utility.yul\":769:891   */\n      pop\n      jump\t// out\n        /* \"#utility.yul\":897:1036   */\n    tag_42:\n        /* \"#utility.yul\":943:948   */\n      0x00\n        /* \"#utility.yul\":981:987   */\n      dup2\n        /* \"#utility.yul\":968:988   */\n      calldataload\n        /* \"#utility.yul\":959:988   */\n      swap1\n      pop\n        /* \"#utility.yul\":997:1030   */\n      tag_60\n        /* \"#utility.yul\":1024:1029   */\n      dup2\n        /* \"#utility.yul\":997:1030   */\n      tag_41\n      jump\t// in\n    tag_60:\n        /* \"#utility.yul\":897:1036   */\n      swap3\n      swap2\n      pop\n      pop\n      jump\t// out\n        /* \"#utility.yul\":1042:1371   */\n    tag_18:\n        /* \"#utility.yul\":1101:1107   */\n      0x00\n        /* \"#utility.yul\":1150:1152   */\n      0x20\n        /* \"#utility.yul\":1138:1147   */\n      dup3\n        /* \"#utility.yul\":1129:1136   */\n      dup5\n        /* \"#utility.yul\":1125:1148   */\n      sub\n        /* \"#utility.yul\":1121:1153   */\n      slt\n        /* \"#utility.yul\":1118:1237   */\n      iszero\n      tag_62\n      jumpi\n        /* \"#utility.yul\":1156:1235   */\n      tag_63\n      tag_39\n      jump\t// in\n    tag_63:\n        /* \"#utility.yul\":1118:1237   */\n    tag_62:\n        /* \"#utility.yul\":1276:1277   */\n      0x00\n        /* \"#utility.yul\":1301:1354   */\n      tag_64\n        /* \"#utility.yul\":1346:1353   */\n      dup5\n        /* \"#utility.yul\":1337:1343   */\n      dup3\n        /* \"#utility.yul\":1326:1335   */\n      dup6\n        /* \"#utility.yul\":1322:1344   */\n      add\n        /* \"#utility.yul\":1301:1354   */\n      tag_42\n      jump\t// in\n    tag_64:\n        /* \"#utility.yul\":1291:1354   */\n      swap2\n      pop\n        /* \"#utility.yul\":1247:1364   */\n      pop\n        /* \"#utility.yul\":1042:1371   */\n      swap3\n      swap2\n      pop\n      pop\n      jump\t// out\n        /* \"#utility.yul\":1377:1503   */\n    tag_43:\n        /* \"#utility.yul\":1414:1421   */\n      0x00\n        /* \"#utility.yul\":1454:1496   */\n      0xffffffffffffffffffffffffffffffffffffffff\n        /* \"#utility.yul\":1447:1452   */\n      dup3\n        /* \"#utility.yul\":1443:1497   */\n      and\n        /* \"#utility.yul\":1432:1497   */\n      swap1\n      pop\n        /* \"#utility.yul\":1377:1503   */\n      swap2\n      swap1\n      pop\n      jump\t// out\n        /* \"#utility.yul\":1509:1605   */\n    tag_44:\n        /* \"#utility.yul\":1546:1553   */\n      0x00\n        /* \"#utility.yul\":1575:1599   */\n      tag_67\n        /* \"#utility.yul\":1593:1598   */\n      dup3\n        /* \"#utility.yul\":1575:1599   */\n      tag_43\n      jump\t// in\n    tag_67:\n        /* \"#utility.yul\":1564:1599   */\n      swap1\n      pop\n        /* \"#utility.yul\":1509:1605   */\n      swap2\n      swap1\n      pop\n      jump\t// out\n        /* \"#utility.yul\":1611:1733   */\n    tag_45:\n        /* \"#utility.yul\":1684:1708   */\n      tag_69\n        /* \"#utility.yul\":1702:1707   */\n      dup2\n        /* \"#utility.yul\":1684:1708   */\n      tag_44\n      jump\t// in\n    tag_69:\n        /* \"#utility.yul\":1677:1682   */\n      dup2\n        /* \"#utility.yul\":1674:1709   */\n      eq\n        /* \"#utility.yul\":1664:1727   */\n      tag_70\n      jumpi\n        /* \"#utility.yul\":1723:1724   */\n      0x00\n        /* \"#utility.yul\":1720:1721   */\n      dup1\n        /* \"#utility.yul\":1713:1725   */\n      revert\n        /* \"#utility.yul\":1664:1727   */\n    tag_70:\n        /* \"#utility.yul\":1611:1733   */\n      pop\n      jump\t// out\n        /* \"#utility.yul\":1739:1878   */\n    tag_46:\n        /* \"#utility.yul\":1785:1790   */\n      0x00\n        /* \"#utility.yul\":1823:1829   */\n      dup2\n        /* \"#utility.yul\":1810:1830   */\n      calldataload\n        /* \"#utility.yul\":1801:1830   */\n      swap1\n      pop\n        /* \"#utility.yul\":1839:1872   */\n      tag_72\n        /* \"#utility.yul\":1866:1871   */\n      dup2\n        /* \"#utility.yul\":1839:1872   */\n      tag_45\n      jump\t// in\n    tag_72:\n        /* \"#utility.yul\":1739:1878   */\n      swap3\n      swap2\n      pop\n      pop\n      jump\t// out\n        /* \"#utility.yul\":1884:2213   */\n    tag_25:\n        /* \"#utility.yul\":1943:1949   */\n      0x00\n        /* \"#utility.yul\":1992:1994   */\n      0x20\n        /* \"#utility.yul\":1980:1989   */\n      dup3\n        /* \"#utility.yul\":1971:1978   */\n      dup5\n        /* \"#utility.yul\":1967:1990   */\n      sub\n        /* \"#utility.yul\":1963:1995   */\n      slt\n        /* \"#utility.yul\":1960:2079   */\n      iszero\n      tag_74\n      jumpi\n        /* \"#utility.yul\":1998:2077   */\n      tag_75\n      tag_39\n      jump\t// in\n    tag_75:\n        /* \"#utility.yul\":1960:2079   */\n    tag_74:\n        /* \"#utility.yul\":2118:2119   */\n      0x00\n        /* \"#utility.yul\":2143:2196   */\n      tag_76\n        /* \"#utility.yul\":2188:2195   */\n      dup5\n        /* \"#utility.yul\":2179:2185   */\n      dup3\n        /* \"#utility.yul\":2168:2177   */\n      dup6\n        /* \"#utility.yul\":2164:2186   */\n      add\n        /* \"#utility.yul\":2143:2196   */\n      tag_46\n      jump\t// in\n    tag_76:\n        /* \"#utility.yul\":2133:2196   */\n      swap2\n      pop\n        /* \"#utility.yul\":2089:2206   */\n      pop\n        /* \"#utility.yul\":1884:2213   */\n      swap3\n      swap2\n      pop\n      pop\n      jump\t// out\n\n    auxdata: 0xa2646970667358221220e6d9ed77841531b8fe234ae72ff8fc880c00688ff0ff4ede966d0260d552387164736f6c63430008190033\n}\n\nsub_1: assembly {\n        /* \"solidity_100/51-60.sol\":5067:5628  contract ABC{... */\n      mstore(0x40, 0x80)\n      callvalue\n      dup1\n      iszero\n      tag_1\n      jumpi\n      0x00\n      dup1\n      revert\n    tag_1:\n      pop\n      dataSize(sub_0)\n      dup1\n      dataOffset(sub_0)\n      0x00\n      codecopy\n      0x00\n      return\n    stop\n\n    sub_0: assembly {\n            /* \"solidity_100/51-60.sol\":5067:5628  contract ABC{... */\n          mstore(0x40, 0x80)\n          callvalue\n          dup1\n          iszero\n          tag_1\n          jumpi\n          0x00\n          dup1\n          revert\n        tag_1:\n          pop\n          jumpi(tag_2, lt(calldatasize, 0x04))\n          shr(0xe0, calldataload(0x00))\n          dup1\n          0x0dbe671f\n          eq\n          tag_3\n          jumpi\n          dup1\n          0x4df7e3d0\n          eq\n          tag_4\n          jumpi\n          dup1\n          0xc3da42b8\n          eq\n          tag_5\n          jumpi\n          dup1\n          0xeeb4914e\n          eq\n          tag_6\n          jumpi\n        tag_2:\n          0x00\n          dup1\n          revert\n            /* \"solidity_100/51-60.sol\":5377:5390  uint public a */\n        tag_3:\n          tag_7\n          tag_8\n          jump\t// in\n        tag_7:\n          mload(0x40)\n          tag_9\n          swap2\n          swap1\n          tag_10\n          jump\t// in\n        tag_9:\n          mload(0x40)\n          dup1\n          swap2\n          sub\n          swap1\n          return\n            /* \"solidity_100/51-60.sol\":5397:5410  uint public b */\n        tag_4:\n          tag_11\n          tag_12\n          jump\t// in\n        tag_11:\n          mload(0x40)\n          tag_13\n          swap2\n          swap1\n          tag_10\n          jump\t// in\n        tag_13:\n          mload(0x40)\n          dup1\n          swap2\n          sub\n          swap1\n          return\n            /* \"solidity_100/51-60.sol\":5417:5430  uint public c */\n        tag_5:\n          tag_14\n          tag_15\n          jump\t// in\n        tag_14:\n          mload(0x40)\n          tag_16\n          swap2\n          swap1\n          tag_10\n          jump\t// in\n        tag_16:\n          mload(0x40)\n          dup1\n          swap2\n          sub\n          swap1\n          return\n            /* \"solidity_100/51-60.sol\":5568:5623  function setC(uint _n) public {... */\n        tag_6:\n          tag_17\n          0x04\n          dup1\n          calldatasize\n          sub\n          dup2\n          add\n          swap1\n          tag_18\n          swap2\n          swap1\n          tag_19\n          jump\t// in\n        tag_18:\n          tag_20\n          jump\t// in\n        tag_17:\n          stop\n            /* \"solidity_100/51-60.sol\":5377:5390  uint public a */\n        tag_8:\n          sload(0x00)\n          dup2\n          jump\t// out\n            /* \"solidity_100/51-60.sol\":5397:5410  uint public b */\n        tag_12:\n          sload(0x01)\n          dup2\n          jump\t// out\n            /* \"solidity_100/51-60.sol\":5417:5430  uint public c */\n        tag_15:\n          sload(0x02)\n          dup2\n          jump\t// out\n            /* \"solidity_100/51-60.sol\":5568:5623  function setC(uint _n) public {... */\n        tag_20:\n            /* \"solidity_100/51-60.sol\":5613:5615  _n */\n          dup1\n            /* \"solidity_100/51-60.sol\":5609:5610  c */\n          0x02\n            /* \"solidity_100/51-60.sol\":5609:5615  c = _n */\n          dup2\n          swap1\n          sstore\n          pop\n            /* \"solidity_100/51-60.sol\":5568:5623  function setC(uint _n) public {... */\n          pop\n          jump\t// out\n            /* \"#utility.yul\":7:84   */\n        tag_22:\n            /* \"#utility.yul\":44:51   */\n          0x00\n            /* \"#utility.yul\":73:78   */\n          dup2\n            /* \"#utility.yul\":62:78   */\n          swap1\n          pop\n            /* \"#utility.yul\":7:84   */\n          swap2\n          swap1\n          pop\n          jump\t// out\n            /* \"#utility.yul\":90:208   */\n        tag_23:\n            /* \"#utility.yul\":177:201   */\n          tag_32\n            /* \"#utility.yul\":195:200   */\n          dup2\n            /* \"#utility.yul\":177:201   */\n          tag_22\n          jump\t// in\n        tag_32:\n            /* \"#utility.yul\":172:175   */\n          dup3\n            /* \"#utility.yul\":165:202   */\n          mstore\n            /* \"#utility.yul\":90:208   */\n          pop\n          pop\n          jump\t// out\n            /* \"#utility.yul\":214:436   */\n        tag_10:\n            /* \"#utility.yul\":307:311   */\n          0x00\n            /* \"#utility.yul\":345:347   */\n          0x20\n            /* \"#utility.yul\":334:343   */\n          dup3\n            /* \"#utility.yul\":330:348   */\n          add\n            /* \"#utility.yul\":322:348   */\n          swap1\n          pop\n            /* \"#utility.yul\":358:429   */\n          tag_34\n            /* \"#utility.yul\":426:427   */\n          0x00\n            /* \"#utility.yul\":415:424   */\n          dup4\n            /* \"#utility.yul\":411:428   */\n          add\n            /* \"#utility.yul\":402:408   */\n          dup5\n            /* \"#utility.yul\":358:429   */\n          tag_23\n          jump\t// in\n        tag_34:\n            /* \"#utility.yul\":214:436   */\n          swap3\n          swap2\n          pop\n          pop\n          jump\t// out\n            /* \"#utility.yul\":523:640   */\n        tag_25:\n            /* \"#utility.yul\":632:633   */\n          0x00\n            /* \"#utility.yul\":629:630   */\n          dup1\n            /* \"#utility.yul\":622:634   */\n          revert\n            /* \"#utility.yul\":769:891   */\n        tag_27:\n            /* \"#utility.yul\":842:866   */\n          tag_39\n            /* \"#utility.yul\":860:865   */\n          dup2\n            /* \"#utility.yul\":842:866   */\n          tag_22\n          jump\t// in\n        tag_39:\n            /* \"#utility.yul\":835:840   */\n          dup2\n            /* \"#utility.yul\":832:867   */\n          eq\n            /* \"#utility.yul\":822:885   */\n          tag_40\n          jumpi\n            /* \"#utility.yul\":881:882   */\n          0x00\n            /* \"#utility.yul\":878:879   */\n          dup1\n            /* \"#utility.yul\":871:883   */\n          revert\n            /* \"#utility.yul\":822:885   */\n        tag_40:\n            /* \"#utility.yul\":769:891   */\n          pop\n          jump\t// out\n            /* \"#utility.yul\":897:1036   */\n        tag_28:\n            /* \"#utility.yul\":943:948   */\n          0x00\n            /* \"#utility.yul\":981:987   */\n          dup2\n            /* \"#utility.yul\":968:988   */\n          calldataload\n            /* \"#utility.yul\":959:988   */\n          swap1\n          pop\n            /* \"#utility.yul\":997:1030   */\n          tag_42\n            /* \"#utility.yul\":1024:1029   */\n          dup2\n            /* \"#utility.yul\":997:1030   */\n          tag_27\n          jump\t// in\n        tag_42:\n            /* \"#utility.yul\":897:1036   */\n          swap3\n          swap2\n          pop\n          pop\n          jump\t// out\n            /* \"#utility.yul\":1042:1371   */\n        tag_19:\n            /* \"#utility.yul\":1101:1107   */\n          0x00\n            /* \"#utility.yul\":1150:1152   */\n          0x20\n            /* \"#utility.yul\":1138:1147   */\n          dup3\n            /* \"#utility.yul\":1129:1136   */\n          dup5\n            /* \"#utility.yul\":1125:1148   */\n          sub\n            /* \"#utility.yul\":1121:1153   */\n          slt\n            /* \"#utility.yul\":1118:1237   */\n          iszero\n          tag_44\n          jumpi\n            /* \"#utility.yul\":1156:1235   */\n          tag_45\n          tag_25\n          jump\t// in\n        tag_45:\n            /* \"#utility.yul\":1118:1237   */\n        tag_44:\n            /* \"#utility.yul\":1276:1277   */\n          0x00\n            /* \"#utility.yul\":1301:1354   */\n          tag_46\n            /* \"#utility.yul\":1346:1353   */\n          dup5\n            /* \"#utility.yul\":1337:1343   */\n          dup3\n            /* \"#utility.yul\":1326:1335   */\n          dup6\n            /* \"#utility.yul\":1322:1344   */\n          add\n            /* \"#utility.yul\":1301:1354   */\n          tag_28\n          jump\t// in\n        tag_46:\n            /* \"#utility.yul\":1291:1354   */\n          swap2\n          pop\n            /* \"#utility.yul\":1247:1364   */\n          pop\n            /* \"#utility.yul\":1042:1371   */\n          swap3\n          swap2\n          pop\n          pop\n          jump\t// out\n\n        auxdata: 0xa2646970667358221220a26466b3e59ce9fadd6eee3cb2ec0cae088c227d610eadfbaeb69a5912152bf964736f6c63430008190033\n    }\n}\n",
				"bytecode": {
					"linkReferences": {},
					"object": "6080604052604051600e906075565b604051809103905ff0801580156026573d5f803e3d5ffd5b5060035f6101000a81548173ffffffffffffffffffffffffffffffffffffffff021916908373ffffffffffffffffffffffffffffffffffffffff1602179055503480156070575f80fd5b506082565b6101bb8061035a83390190565b6102cb8061008f5f395ff3fe608060405234801561000f575f80fd5b5060043610610060575f3560e01c80630dbe671f146100645780634df7e3d014610082578063b01d41ee146100a0578063c3da42b8146100bc578063e30081a0146100da578063eeb4914e146100f6575b5f80fd5b61006c610112565b604051610079919061019e565b60405180910390f35b61008a610117565b604051610097919061019e565b60405180910390f35b6100ba60048036038101906100b591906101e5565b61011d565b005b6100c4610129565b6040516100d1919061019e565b60405180910390f35b6100f460048036038101906100ef919061026a565b61012f565b005b610110600480360381019061010b91906101e5565b610172565b005b5f5481565b60015481565b6101268161017c565b50565b60025481565b8060035f6101000a81548173ffffffffffffffffffffffffffffffffffffffff021916908373ffffffffffffffffffffffffffffffffffffffff16021790555050565b8060028190555050565b8060018190555050565b5f819050919050565b61019881610186565b82525050565b5f6020820190506101b15f83018461018f565b92915050565b5f80fd5b6101c481610186565b81146101ce575f80fd5b50565b5f813590506101df816101bb565b92915050565b5f602082840312156101fa576101f96101b7565b5b5f610207848285016101d1565b91505092915050565b5f73ffffffffffffffffffffffffffffffffffffffff82169050919050565b5f61023982610210565b9050919050565b6102498161022f565b8114610253575f80fd5b50565b5f8135905061026481610240565b92915050565b5f6020828403121561027f5761027e6101b7565b5b5f61028c84828501610256565b9150509291505056fea2646970667358221220e6d9ed77841531b8fe234ae72ff8fc880c00688ff0ff4ede966d0260d552387164736f6c634300081900336080604052348015600e575f80fd5b5061019f8061001c5f395ff3fe608060405234801561000f575f80fd5b506004361061004a575f3560e01c80630dbe671f1461004e5780634df7e3d01461006c578063c3da42b81461008a578063eeb4914e146100a8575b5f80fd5b6100566100c4565b60405161006391906100f7565b60405180910390f35b6100746100c9565b60405161008191906100f7565b60405180910390f35b6100926100cf565b60405161009f91906100f7565b60405180910390f35b6100c260048036038101906100bd919061013e565b6100d5565b005b5f5481565b60015481565b60025481565b8060028190555050565b5f819050919050565b6100f1816100df565b82525050565b5f60208201905061010a5f8301846100e8565b92915050565b5f80fd5b61011d816100df565b8114610127575f80fd5b50565b5f8135905061013881610114565b92915050565b5f6020828403121561015357610152610110565b5b5f6101608482850161012a565b9150509291505056fea2646970667358221220a26466b3e59ce9fadd6eee3cb2ec0cae088c227d610eadfbaeb69a5912152bf964736f6c63430008190033",
					"opcodes": "PUSH1 0x80 PUSH1 0x40 MSTORE PUSH1 0x40 MLOAD PUSH1 0xE SWAP1 PUSH1 0x75 JUMP JUMPDEST PUSH1 0x40 MLOAD DUP1 SWAP2 SUB SWAP1 PUSH0 CREATE DUP1 ISZERO DUP1 ISZERO PUSH1 0x26 JUMPI RETURNDATASIZE PUSH0 DUP1 RETURNDATACOPY RETURNDATASIZE PUSH0 REVERT JUMPDEST POP PUSH1 0x3 PUSH0 PUSH2 0x100 EXP DUP2 SLOAD DUP2 PUSH20 0xFFFFFFFFFFFFFFFFFFFFFFFFFFFFFFFFFFFFFFFF MUL NOT AND SWAP1 DUP4 PUSH20 0xFFFFFFFFFFFFFFFFFFFFFFFFFFFFFFFFFFFFFFFF AND MUL OR SWAP1 SSTORE POP CALLVALUE DUP1 ISZERO PUSH1 0x70 JUMPI PUSH0 DUP1 REVERT JUMPDEST POP PUSH1 0x82 JUMP JUMPDEST PUSH2 0x1BB DUP1 PUSH2 0x35A DUP4 CODECOPY ADD SWAP1 JUMP JUMPDEST PUSH2 0x2CB DUP1 PUSH2 0x8F PUSH0 CODECOPY PUSH0 RETURN INVALID PUSH1 0x80 PUSH1 0x40 MSTORE CALLVALUE DUP1 ISZERO PUSH2 0xF JUMPI PUSH0 DUP1 REVERT JUMPDEST POP PUSH1 0x4 CALLDATASIZE LT PUSH2 0x60 JUMPI PUSH0 CALLDATALOAD PUSH1 0xE0 SHR DUP1 PUSH4 0xDBE671F EQ PUSH2 0x64 JUMPI DUP1 PUSH4 0x4DF7E3D0 EQ PUSH2 0x82 JUMPI DUP1 PUSH4 0xB01D41EE EQ PUSH2 0xA0 JUMPI DUP1 PUSH4 0xC3DA42B8 EQ PUSH2 0xBC JUMPI DUP1 PUSH4 0xE30081A0 EQ PUSH2 0xDA JUMPI DUP1 PUSH4 0xEEB4914E EQ PUSH2 0xF6 JUMPI JUMPDEST PUSH0 DUP1 REVERT JUMPDEST PUSH2 0x6C PUSH2 0x112 JUMP JUMPDEST PUSH1 0x40 MLOAD PUSH2 0x79 SWAP2 SWAP1 PUSH2 0x19E JUMP JUMPDEST PUSH1 0x40 MLOAD DUP1 SWAP2 SUB SWAP1 RETURN JUMPDEST PUSH2 0x8A PUSH2 0x117 JUMP JUMPDEST PUSH1 0x40 MLOAD PUSH2 0x97 SWAP2 SWAP1 PUSH2 0x19E JUMP JUMPDEST PUSH1 0x40 MLOAD DUP1 SWAP2 SUB SWAP1 RETURN JUMPDEST PUSH2 0xBA PUSH1 0x4 DUP1 CALLDATASIZE SUB DUP2 ADD SWAP1 PUSH2 0xB5 SWAP2 SWAP1 PUSH2 0x1E5 JUMP JUMPDEST PUSH2 0x11D JUMP JUMPDEST STOP JUMPDEST PUSH2 0xC4 PUSH2 0x129 JUMP JUMPDEST PUSH1 0x40 MLOAD PUSH2 0xD1 SWAP2 SWAP1 PUSH2 0x19E JUMP JUMPDEST PUSH1 0x40 MLOAD DUP1 SWAP2 SUB SWAP1 RETURN JUMPDEST PUSH2 0xF4 PUSH1 0x4 DUP1 CALLDATASIZE SUB DUP2 ADD SWAP1 PUSH2 0xEF SWAP2 SWAP1 PUSH2 0x26A JUMP JUMPDEST PUSH2 0x12F JUMP JUMPDEST STOP JUMPDEST PUSH2 0x110 PUSH1 0x4 DUP1 CALLDATASIZE SUB DUP2 ADD SWAP1 PUSH2 0x10B SWAP2 SWAP1 PUSH2 0x1E5 JUMP JUMPDEST PUSH2 0x172 JUMP JUMPDEST STOP JUMPDEST PUSH0 SLOAD DUP2 JUMP JUMPDEST PUSH1 0x1 SLOAD DUP2 JUMP JUMPDEST PUSH2 0x126 DUP2 PUSH2 0x17C JUMP JUMPDEST POP JUMP JUMPDEST PUSH1 0x2 SLOAD DUP2 JUMP JUMPDEST DUP1 PUSH1 0x3 PUSH0 PUSH2 0x100 EXP DUP2 SLOAD DUP2 PUSH20 0xFFFFFFFFFFFFFFFFFFFFFFFFFFFFFFFFFFFFFFFF MUL NOT AND SWAP1 DUP4 PUSH20 0xFFFFFFFFFFFFFFFFFFFFFFFFFFFFFFFFFFFFFFFF AND MUL OR SWAP1 SSTORE POP POP JUMP JUMPDEST DUP1 PUSH1 0x2 DUP2 SWAP1 SSTORE POP POP JUMP JUMPDEST DUP1 PUSH1 0x1 DUP2 SWAP1 SSTORE POP POP JUMP JUMPDEST PUSH0 DUP2 SWAP1 POP SWAP2 SWAP1 POP JUMP JUMPDEST PUSH2 0x198 DUP2 PUSH2 0x186 JUMP JUMPDEST DUP3 MSTORE POP POP JUMP JUMPDEST PUSH0 PUSH1 0x20 DUP3 ADD SWAP1 POP PUSH2 0x1B1 PUSH0 DUP4 ADD DUP5 PUSH2 0x18F JUMP JUMPDEST SWAP3 SWAP2 POP POP JUMP JUMPDEST PUSH0 DUP1 REVERT JUMPDEST PUSH2 0x1C4 DUP2 PUSH2 0x186 JUMP JUMPDEST DUP2 EQ PUSH2 0x1CE JUMPI PUSH0 DUP1 REVERT JUMPDEST POP JUMP JUMPDEST PUSH0 DUP2 CALLDATALOAD SWAP1 POP PUSH2 0x1DF DUP2 PUSH2 0x1BB JUMP JUMPDEST SWAP3 SWAP2 POP POP JUMP JUMPDEST PUSH0 PUSH1 0x20 DUP3 DUP5 SUB SLT ISZERO PUSH2 0x1FA JUMPI PUSH2 0x1F9 PUSH2 0x1B7 JUMP JUMPDEST JUMPDEST PUSH0 PUSH2 0x207 DUP5 DUP3 DUP6 ADD PUSH2 0x1D1 JUMP JUMPDEST SWAP2 POP POP SWAP3 SWAP2 POP POP JUMP JUMPDEST PUSH0 PUSH20 0xFFFFFFFFFFFFFFFFFFFFFFFFFFFFFFFFFFFFFFFF DUP3 AND SWAP1 POP SWAP2 SWAP1 POP JUMP JUMPDEST PUSH0 PUSH2 0x239 DUP3 PUSH2 0x210 JUMP JUMPDEST SWAP1 POP SWAP2 SWAP1 POP JUMP JUMPDEST PUSH2 0x249 DUP2 PUSH2 0x22F JUMP JUMPDEST DUP2 EQ PUSH2 0x253 JUMPI PUSH0 DUP1 REVERT JUMPDEST POP JUMP JUMPDEST PUSH0 DUP2 CALLDATALOAD SWAP1 POP PUSH2 0x264 DUP2 PUSH2 0x240 JUMP JUMPDEST SWAP3 SWAP2 POP POP JUMP JUMPDEST PUSH0 PUSH1 0x20 DUP3 DUP5 SUB SLT ISZERO PUSH2 0x27F JUMPI PUSH2 0x27E PUSH2 0x1B7 JUMP JUMPDEST JUMPDEST PUSH0 PUSH2 0x28C DUP5 DUP3 DUP6 ADD PUSH2 0x256 JUMP JUMPDEST SWAP2 POP POP SWAP3 SWAP2 POP POP JUMP INVALID LOG2 PUSH5 0x6970667358 0x22 SLT KECCAK256 0xE6 0xD9 0xED PUSH24 0x841531B8FE234AE72FF8FC880C00688FF0FF4EDE966D0260 0xD5 MSTORE CODESIZE PUSH18 0x64736F6C6343000819003360806040523480 ISZERO PUSH1 0xE JUMPI PUSH0 DUP1 REVERT JUMPDEST POP PUSH2 0x19F DUP1 PUSH2 0x1C PUSH0 CODECOPY PUSH0 RETURN INVALID PUSH1 0x80 PUSH1 0x40 MSTORE CALLVALUE DUP1 ISZERO PUSH2 0xF JUMPI PUSH0 DUP1 REVERT JUMPDEST POP PUSH1 0x4 CALLDATASIZE LT PUSH2 0x4A JUMPI PUSH0 CALLDATALOAD PUSH1 0xE0 SHR DUP1 PUSH4 0xDBE671F EQ PUSH2 0x4E JUMPI DUP1 PUSH4 0x4DF7E3D0 EQ PUSH2 0x6C JUMPI DUP1 PUSH4 0xC3DA42B8 EQ PUSH2 0x8A JUMPI DUP1 PUSH4 0xEEB4914E EQ PUSH2 0xA8 JUMPI JUMPDEST PUSH0 DUP1 REVERT JUMPDEST PUSH2 0x56 PUSH2 0xC4 JUMP JUMPDEST PUSH1 0x40 MLOAD PUSH2 0x63 SWAP2 SWAP1 PUSH2 0xF7 JUMP JUMPDEST PUSH1 0x40 MLOAD DUP1 SWAP2 SUB SWAP1 RETURN JUMPDEST PUSH2 0x74 PUSH2 0xC9 JUMP JUMPDEST PUSH1 0x40 MLOAD PUSH2 0x81 SWAP2 SWAP1 PUSH2 0xF7 JUMP JUMPDEST PUSH1 0x40 MLOAD DUP1 SWAP2 SUB SWAP1 RETURN JUMPDEST PUSH2 0x92 PUSH2 0xCF JUMP JUMPDEST PUSH1 0x40 MLOAD PUSH2 0x9F SWAP2 SWAP1 PUSH2 0xF7 JUMP JUMPDEST PUSH1 0x40 MLOAD DUP1 SWAP2 SUB SWAP1 RETURN JUMPDEST PUSH2 0xC2 PUSH1 0x4 DUP1 CALLDATASIZE SUB DUP2 ADD SWAP1 PUSH2 0xBD SWAP2 SWAP1 PUSH2 0x13E JUMP JUMPDEST PUSH2 0xD5 JUMP JUMPDEST STOP JUMPDEST PUSH0 SLOAD DUP2 JUMP JUMPDEST PUSH1 0x1 SLOAD DUP2 JUMP JUMPDEST PUSH1 0x2 SLOAD DUP2 JUMP JUMPDEST DUP1 PUSH1 0x2 DUP2 SWAP1 SSTORE POP POP JUMP JUMPDEST PUSH0 DUP2 SWAP1 POP SWAP2 SWAP1 POP JUMP JUMPDEST PUSH2 0xF1 DUP2 PUSH2 0xDF JUMP JUMPDEST DUP3 MSTORE POP POP JUMP JUMPDEST PUSH0 PUSH1 0x20 DUP3 ADD SWAP1 POP PUSH2 0x10A PUSH0 DUP4 ADD DUP5 PUSH2 0xE8 JUMP JUMPDEST SWAP3 SWAP2 POP POP JUMP JUMPDEST PUSH0 DUP1 REVERT JUMPDEST PUSH2 0x11D DUP2 PUSH2 0xDF JUMP JUMPDEST DUP2 EQ PUSH2 0x127 JUMPI PUSH0 DUP1 REVERT JUMPDEST POP JUMP JUMPDEST PUSH0 DUP2 CALLDATALOAD SWAP1 POP PUSH2 0x138 DUP2 PUSH2 0x114 JUMP JUMPDEST SWAP3 SWAP2 POP POP JUMP JUMPDEST PUSH0 PUSH1 0x20 DUP3 DUP5 SUB SLT ISZERO PUSH2 0x153 JUMPI PUSH2 0x152 PUSH2 0x110 JUMP JUMPDEST JUMPDEST PUSH0 PUSH2 0x160 DUP5 DUP3 DUP6 ADD PUSH2 0x12A JUMP JUMPDEST SWAP2 POP POP SWAP3 SWAP2 POP POP JUMP INVALID LOG2 PUSH5 0x6970667358 0x22 SLT KECCAK256 LOG2 PUSH5 0x66B3E59CE9 STATICCALL 0xDD PUSH15 0xEE3CB2EC0CAE088C227D610EADFBAE 0xB6 SWAP11 MSIZE SLT ISZERO 0x2B 0xF9 PUSH5 0x736F6C6343 STOP ADDMOD NOT STOP CALLER "
				},
				"gasEstimates": {
					"creation": {
						"codeDepositCost": "143000",
						"executionCost": "infinite",
						"totalCost": "infinite"
					},
					"external": {
						"a()": "2402",
						"b()": "2425",
						"c()": "2469",
						"setAddress(address)": "24781",
						"setC(uint256)": "22603",
						"setb(uint256)": "22566"
					}
				},
				"methodIdentifiers": {
					"a()": "0dbe671f",
					"b()": "4df7e3d0",
					"c()": "c3da42b8",
					"setAddress(address)": "e30081a0",
					"setC(uint256)": "eeb4914e",
					"setb(uint256)": "b01d41ee"
				}
			},
			"storageLayout": {
				"storage": [
					{
						"astId": 417,
						"contract": "solidity_100/51-60.sol:Internal",
						"label": "a",
						"offset": 0,
						"slot": "0",
						"type": "t_uint256"
					},
					{
						"astId": 419,
						"contract": "solidity_100/51-60.sol:Internal",
						"label": "b",
						"offset": 0,
						"slot": "1",
						"type": "t_uint256"
					},
					{
						"astId": 421,
						"contract": "solidity_100/51-60.sol:Internal",
						"label": "c",
						"offset": 0,
						"slot": "2",
						"type": "t_uint256"
					},
					{
						"astId": 461,
						"contract": "solidity_100/51-60.sol:Internal",
						"label": "INTERNAL",
						"offset": 0,
						"slot": "3",
						"type": "t_contract(ABC)452"
					}
				],
				"types": {
					"t_contract(ABC)452": {
						"encoding": "inplace",
						"label": "contract ABC",
						"numberOfBytes": "20"
					},
					"t_uint256": {
						"encoding": "inplace",
						"label": "uint256",
						"numberOfBytes": "32"
					}
				}
			},
			"userdoc": {
				"kind": "user",
				"methods": {},
				"version": 1
			}
		}
	}
}