{
	"solidity_100/51-60.sol": {
		"Q52": {
			"abi": [
				{
					"inputs": [
						{
							"internalType": "string",
							"name": "_name",
							"type": "string"
						},
						{
							"internalType": "string",
							"name": "_birth",
							"type": "string"
						}
					],
					"name": "setId",
					"outputs": [
						{
							"internalType": "bytes10",
							"name": "",
							"type": "bytes10"
						}
					],
					"stateMutability": "view",
					"type": "function"
				}
			],
			"devdoc": {
				"kind": "dev",
				"methods": {},
				"version": 1
			},
			"evm": {
				"assembly": "    /* \"solidity_100/51-60.sol\":709:1299  contract Q52 {... */\n  mstore(0x40, 0x80)\n  callvalue\n  dup1\n  iszero\n  tag_1\n  jumpi\n  0x00\n  dup1\n  revert\ntag_1:\n  pop\n  dataSize(sub_0)\n  dup1\n  dataOffset(sub_0)\n  0x00\n  codecopy\n  0x00\n  return\nstop\n\nsub_0: assembly {\n        /* \"solidity_100/51-60.sol\":709:1299  contract Q52 {... */\n      mstore(0x40, 0x80)\n      callvalue\n      dup1\n      iszero\n      tag_1\n      jumpi\n      0x00\n      dup1\n      revert\n    tag_1:\n      pop\n      jumpi(tag_2, lt(calldatasize, 0x04))\n      shr(0xe0, calldataload(0x00))\n      dup1\n      0x16b40bf7\n      eq\n      tag_3\n      jumpi\n    tag_2:\n      0x00\n      dup1\n      revert\n        /* \"solidity_100/51-60.sol\":1045:1296  function setId(string memory _name, string memory _birth) public view returns(bytes10) {... */\n    tag_3:\n      tag_4\n      0x04\n      dup1\n      calldatasize\n      sub\n      dup2\n      add\n      swap1\n      tag_5\n      swap2\n      swap1\n      tag_6\n      jump\t// in\n    tag_5:\n      tag_7\n      jump\t// in\n    tag_4:\n      mload(0x40)\n      tag_8\n      swap2\n      swap1\n      tag_9\n      jump\t// in\n    tag_8:\n      mload(0x40)\n      dup1\n      swap2\n      sub\n      swap1\n      return\n    tag_7:\n        /* \"solidity_100/51-60.sol\":1123:1130  bytes10 */\n      0x00\n        /* \"solidity_100/51-60.sol\":1143:1157  bytes32 hashId */\n      dup1\n        /* \"solidity_100/51-60.sol\":1204:1209  _name */\n      dup4\n        /* \"solidity_100/51-60.sol\":1210:1216  _birth */\n      dup4\n        /* \"solidity_100/51-60.sol\":1217:1227  msg.sender */\n      caller\n        /* \"solidity_100/51-60.sol\":1187:1228  abi.encodePacked(_name,_birth,msg.sender) */\n      add(0x20, mload(0x40))\n      tag_11\n      swap4\n      swap3\n      swap2\n      swap1\n      tag_12\n      jump\t// in\n    tag_11:\n      mload(0x40)\n      0x20\n      dup2\n      dup4\n      sub\n      sub\n      dup2\n      mstore\n      swap1\n      0x40\n      mstore\n        /* \"solidity_100/51-60.sol\":1177:1229  keccak256(abi.encodePacked(_name,_birth,msg.sender)) */\n      dup1\n      mload\n      swap1\n      0x20\n      add\n      keccak256\n        /* \"solidity_100/51-60.sol\":1168:1229  hashId = keccak256(abi.encodePacked(_name,_birth,msg.sender)) */\n      swap1\n      pop\n        /* \"solidity_100/51-60.sol\":1240:1250  bytes10 Id */\n      0x00\n        /* \"solidity_100/51-60.sol\":1261:1267  hashId */\n      dup2\n        /* \"solidity_100/51-60.sol\":1240:1268  bytes10 Id = bytes10(hashId) */\n      swap1\n      pop\n        /* \"solidity_100/51-60.sol\":1286:1288  Id */\n      dup1\n        /* \"solidity_100/51-60.sol\":1279:1288  return Id */\n      swap3\n      pop\n      pop\n      pop\n        /* \"solidity_100/51-60.sol\":1045:1296  function setId(string memory _name, string memory _birth) public view returns(bytes10) {... */\n      swap3\n      swap2\n      pop\n      pop\n      jump\t// out\n        /* \"#utility.yul\":7:82   */\n    tag_13:\n        /* \"#utility.yul\":40:46   */\n      0x00\n        /* \"#utility.yul\":73:75   */\n      0x40\n        /* \"#utility.yul\":67:76   */\n      mload\n        /* \"#utility.yul\":57:76   */\n      swap1\n      pop\n        /* \"#utility.yul\":7:82   */\n      swap1\n      jump\t// out\n        /* \"#utility.yul\":88:205   */\n    tag_14:\n        /* \"#utility.yul\":197:198   */\n      0x00\n        /* \"#utility.yul\":194:195   */\n      dup1\n        /* \"#utility.yul\":187:199   */\n      revert\n        /* \"#utility.yul\":211:328   */\n    tag_15:\n        /* \"#utility.yul\":320:321   */\n      0x00\n        /* \"#utility.yul\":317:318   */\n      dup1\n        /* \"#utility.yul\":310:322   */\n      revert\n        /* \"#utility.yul\":334:451   */\n    tag_16:\n        /* \"#utility.yul\":443:444   */\n      0x00\n        /* \"#utility.yul\":440:441   */\n      dup1\n        /* \"#utility.yul\":433:445   */\n      revert\n        /* \"#utility.yul\":457:574   */\n    tag_17:\n        /* \"#utility.yul\":566:567   */\n      0x00\n        /* \"#utility.yul\":563:564   */\n      dup1\n        /* \"#utility.yul\":556:568   */\n      revert\n        /* \"#utility.yul\":580:682   */\n    tag_18:\n        /* \"#utility.yul\":621:627   */\n      0x00\n        /* \"#utility.yul\":672:674   */\n      0x1f\n        /* \"#utility.yul\":668:675   */\n      not\n        /* \"#utility.yul\":663:665   */\n      0x1f\n        /* \"#utility.yul\":656:661   */\n      dup4\n        /* \"#utility.yul\":652:666   */\n      add\n        /* \"#utility.yul\":648:676   */\n      and\n        /* \"#utility.yul\":638:676   */\n      swap1\n      pop\n        /* \"#utility.yul\":580:682   */\n      swap2\n      swap1\n      pop\n      jump\t// out\n        /* \"#utility.yul\":688:868   */\n    tag_19:\n        /* \"#utility.yul\":736:813   */\n      0x4e487b7100000000000000000000000000000000000000000000000000000000\n        /* \"#utility.yul\":733:734   */\n      0x00\n        /* \"#utility.yul\":726:814   */\n      mstore\n        /* \"#utility.yul\":833:837   */\n      0x41\n        /* \"#utility.yul\":830:831   */\n      0x04\n        /* \"#utility.yul\":823:838   */\n      mstore\n        /* \"#utility.yul\":857:861   */\n      0x24\n        /* \"#utility.yul\":854:855   */\n      0x00\n        /* \"#utility.yul\":847:862   */\n      revert\n        /* \"#utility.yul\":874:1155   */\n    tag_20:\n        /* \"#utility.yul\":957:984   */\n      tag_47\n        /* \"#utility.yul\":979:983   */\n      dup3\n        /* \"#utility.yul\":957:984   */\n      tag_18\n      jump\t// in\n    tag_47:\n        /* \"#utility.yul\":949:955   */\n      dup2\n        /* \"#utility.yul\":945:985   */\n      add\n        /* \"#utility.yul\":1087:1093   */\n      dup2\n        /* \"#utility.yul\":1075:1085   */\n      dup2\n        /* \"#utility.yul\":1072:1094   */\n      lt\n        /* \"#utility.yul\":1051:1069   */\n      0xffffffffffffffff\n        /* \"#utility.yul\":1039:1049   */\n      dup3\n        /* \"#utility.yul\":1036:1070   */\n      gt\n        /* \"#utility.yul\":1033:1095   */\n      or\n        /* \"#utility.yul\":1030:1118   */\n      iszero\n      tag_48\n      jumpi\n        /* \"#utility.yul\":1098:1116   */\n      tag_49\n      tag_19\n      jump\t// in\n    tag_49:\n        /* \"#utility.yul\":1030:1118   */\n    tag_48:\n        /* \"#utility.yul\":1138:1148   */\n      dup1\n        /* \"#utility.yul\":1134:1136   */\n      0x40\n        /* \"#utility.yul\":1127:1149   */\n      mstore\n        /* \"#utility.yul\":917:1155   */\n      pop\n        /* \"#utility.yul\":874:1155   */\n      pop\n      pop\n      jump\t// out\n        /* \"#utility.yul\":1161:1290   */\n    tag_21:\n        /* \"#utility.yul\":1195:1201   */\n      0x00\n        /* \"#utility.yul\":1222:1242   */\n      tag_51\n      tag_13\n      jump\t// in\n    tag_51:\n        /* \"#utility.yul\":1212:1242   */\n      swap1\n      pop\n        /* \"#utility.yul\":1251:1284   */\n      tag_52\n        /* \"#utility.yul\":1279:1283   */\n      dup3\n        /* \"#utility.yul\":1271:1277   */\n      dup3\n        /* \"#utility.yul\":1251:1284   */\n      tag_20\n      jump\t// in\n    tag_52:\n        /* \"#utility.yul\":1161:1290   */\n      swap2\n      swap1\n      pop\n      jump\t// out\n        /* \"#utility.yul\":1296:1604   */\n    tag_22:\n        /* \"#utility.yul\":1358:1362   */\n      0x00\n        /* \"#utility.yul\":1448:1466   */\n      0xffffffffffffffff\n        /* \"#utility.yul\":1440:1446   */\n      dup3\n        /* \"#utility.yul\":1437:1467   */\n      gt\n        /* \"#utility.yul\":1434:1490   */\n      iszero\n      tag_54\n      jumpi\n        /* \"#utility.yul\":1470:1488   */\n      tag_55\n      tag_19\n      jump\t// in\n    tag_55:\n        /* \"#utility.yul\":1434:1490   */\n    tag_54:\n        /* \"#utility.yul\":1508:1537   */\n      tag_56\n        /* \"#utility.yul\":1530:1536   */\n      dup3\n        /* \"#utility.yul\":1508:1537   */\n      tag_18\n      jump\t// in\n    tag_56:\n        /* \"#utility.yul\":1500:1537   */\n      swap1\n      pop\n        /* \"#utility.yul\":1592:1596   */\n      0x20\n        /* \"#utility.yul\":1586:1590   */\n      dup2\n        /* \"#utility.yul\":1582:1597   */\n      add\n        /* \"#utility.yul\":1574:1597   */\n      swap1\n      pop\n        /* \"#utility.yul\":1296:1604   */\n      swap2\n      swap1\n      pop\n      jump\t// out\n        /* \"#utility.yul\":1610:1758   */\n    tag_23:\n        /* \"#utility.yul\":1708:1714   */\n      dup3\n        /* \"#utility.yul\":1703:1706   */\n      dup2\n        /* \"#utility.yul\":1698:1701   */\n      dup4\n        /* \"#utility.yul\":1685:1715   */\n      calldatacopy\n        /* \"#utility.yul\":1749:1750   */\n      0x00\n        /* \"#utility.yul\":1740:1746   */\n      dup4\n        /* \"#utility.yul\":1735:1738   */\n      dup4\n        /* \"#utility.yul\":1731:1747   */\n      add\n        /* \"#utility.yul\":1724:1751   */\n      mstore\n        /* \"#utility.yul\":1610:1758   */\n      pop\n      pop\n      pop\n      jump\t// out\n        /* \"#utility.yul\":1764:2189   */\n    tag_24:\n        /* \"#utility.yul\":1842:1847   */\n      0x00\n        /* \"#utility.yul\":1867:1933   */\n      tag_59\n        /* \"#utility.yul\":1883:1932   */\n      tag_60\n        /* \"#utility.yul\":1925:1931   */\n      dup5\n        /* \"#utility.yul\":1883:1932   */\n      tag_22\n      jump\t// in\n    tag_60:\n        /* \"#utility.yul\":1867:1933   */\n      tag_21\n      jump\t// in\n    tag_59:\n        /* \"#utility.yul\":1858:1933   */\n      swap1\n      pop\n        /* \"#utility.yul\":1956:1962   */\n      dup3\n        /* \"#utility.yul\":1949:1954   */\n      dup2\n        /* \"#utility.yul\":1942:1963   */\n      mstore\n        /* \"#utility.yul\":1994:1998   */\n      0x20\n        /* \"#utility.yul\":1987:1992   */\n      dup2\n        /* \"#utility.yul\":1983:1999   */\n      add\n        /* \"#utility.yul\":2032:2035   */\n      dup5\n        /* \"#utility.yul\":2023:2029   */\n      dup5\n        /* \"#utility.yul\":2018:2021   */\n      dup5\n        /* \"#utility.yul\":2014:2030   */\n      add\n        /* \"#utility.yul\":2011:2036   */\n      gt\n        /* \"#utility.yul\":2008:2120   */\n      iszero\n      tag_61\n      jumpi\n        /* \"#utility.yul\":2039:2118   */\n      tag_62\n      tag_17\n      jump\t// in\n    tag_62:\n        /* \"#utility.yul\":2008:2120   */\n    tag_61:\n        /* \"#utility.yul\":2129:2183   */\n      tag_63\n        /* \"#utility.yul\":2176:2182   */\n      dup5\n        /* \"#utility.yul\":2171:2174   */\n      dup3\n        /* \"#utility.yul\":2166:2169   */\n      dup6\n        /* \"#utility.yul\":2129:2183   */\n      tag_23\n      jump\t// in\n    tag_63:\n        /* \"#utility.yul\":1848:2189   */\n      pop\n        /* \"#utility.yul\":1764:2189   */\n      swap4\n      swap3\n      pop\n      pop\n      pop\n      jump\t// out\n        /* \"#utility.yul\":2209:2549   */\n    tag_25:\n        /* \"#utility.yul\":2265:2270   */\n      0x00\n        /* \"#utility.yul\":2314:2317   */\n      dup3\n        /* \"#utility.yul\":2307:2311   */\n      0x1f\n        /* \"#utility.yul\":2299:2305   */\n      dup4\n        /* \"#utility.yul\":2295:2312   */\n      add\n        /* \"#utility.yul\":2291:2318   */\n      slt\n        /* \"#utility.yul\":2281:2403   */\n      tag_65\n      jumpi\n        /* \"#utility.yul\":2322:2401   */\n      tag_66\n      tag_16\n      jump\t// in\n    tag_66:\n        /* \"#utility.yul\":2281:2403   */\n    tag_65:\n        /* \"#utility.yul\":2439:2445   */\n      dup2\n        /* \"#utility.yul\":2426:2446   */\n      calldataload\n        /* \"#utility.yul\":2464:2543   */\n      tag_67\n        /* \"#utility.yul\":2539:2542   */\n      dup5\n        /* \"#utility.yul\":2531:2537   */\n      dup3\n        /* \"#utility.yul\":2524:2528   */\n      0x20\n        /* \"#utility.yul\":2516:2522   */\n      dup7\n        /* \"#utility.yul\":2512:2529   */\n      add\n        /* \"#utility.yul\":2464:2543   */\n      tag_24\n      jump\t// in\n    tag_67:\n        /* \"#utility.yul\":2455:2543   */\n      swap2\n      pop\n        /* \"#utility.yul\":2271:2549   */\n      pop\n        /* \"#utility.yul\":2209:2549   */\n      swap3\n      swap2\n      pop\n      pop\n      jump\t// out\n        /* \"#utility.yul\":2555:3389   */\n    tag_6:\n        /* \"#utility.yul\":2643:2649   */\n      0x00\n        /* \"#utility.yul\":2651:2657   */\n      dup1\n        /* \"#utility.yul\":2700:2702   */\n      0x40\n        /* \"#utility.yul\":2688:2697   */\n      dup4\n        /* \"#utility.yul\":2679:2686   */\n      dup6\n        /* \"#utility.yul\":2675:2698   */\n      sub\n        /* \"#utility.yul\":2671:2703   */\n      slt\n        /* \"#utility.yul\":2668:2787   */\n      iszero\n      tag_69\n      jumpi\n        /* \"#utility.yul\":2706:2785   */\n      tag_70\n      tag_14\n      jump\t// in\n    tag_70:\n        /* \"#utility.yul\":2668:2787   */\n    tag_69:\n        /* \"#utility.yul\":2854:2855   */\n      0x00\n        /* \"#utility.yul\":2843:2852   */\n      dup4\n        /* \"#utility.yul\":2839:2856   */\n      add\n        /* \"#utility.yul\":2826:2857   */\n      calldataload\n        /* \"#utility.yul\":2884:2902   */\n      0xffffffffffffffff\n        /* \"#utility.yul\":2876:2882   */\n      dup2\n        /* \"#utility.yul\":2873:2903   */\n      gt\n        /* \"#utility.yul\":2870:2987   */\n      iszero\n      tag_71\n      jumpi\n        /* \"#utility.yul\":2906:2985   */\n      tag_72\n      tag_15\n      jump\t// in\n    tag_72:\n        /* \"#utility.yul\":2870:2987   */\n    tag_71:\n        /* \"#utility.yul\":3011:3074   */\n      tag_73\n        /* \"#utility.yul\":3066:3073   */\n      dup6\n        /* \"#utility.yul\":3057:3063   */\n      dup3\n        /* \"#utility.yul\":3046:3055   */\n      dup7\n        /* \"#utility.yul\":3042:3064   */\n      add\n        /* \"#utility.yul\":3011:3074   */\n      tag_25\n      jump\t// in\n    tag_73:\n        /* \"#utility.yul\":3001:3074   */\n      swap3\n      pop\n        /* \"#utility.yul\":2797:3084   */\n      pop\n        /* \"#utility.yul\":3151:3153   */\n      0x20\n        /* \"#utility.yul\":3140:3149   */\n      dup4\n        /* \"#utility.yul\":3136:3154   */\n      add\n        /* \"#utility.yul\":3123:3155   */\n      calldataload\n        /* \"#utility.yul\":3182:3200   */\n      0xffffffffffffffff\n        /* \"#utility.yul\":3174:3180   */\n      dup2\n        /* \"#utility.yul\":3171:3201   */\n      gt\n        /* \"#utility.yul\":3168:3285   */\n      iszero\n      tag_74\n      jumpi\n        /* \"#utility.yul\":3204:3283   */\n      tag_75\n      tag_15\n      jump\t// in\n    tag_75:\n        /* \"#utility.yul\":3168:3285   */\n    tag_74:\n        /* \"#utility.yul\":3309:3372   */\n      tag_76\n        /* \"#utility.yul\":3364:3371   */\n      dup6\n        /* \"#utility.yul\":3355:3361   */\n      dup3\n        /* \"#utility.yul\":3344:3353   */\n      dup7\n        /* \"#utility.yul\":3340:3362   */\n      add\n        /* \"#utility.yul\":3309:3372   */\n      tag_25\n      jump\t// in\n    tag_76:\n        /* \"#utility.yul\":3299:3372   */\n      swap2\n      pop\n        /* \"#utility.yul\":3094:3382   */\n      pop\n        /* \"#utility.yul\":2555:3389   */\n      swap3\n      pop\n      swap3\n      swap1\n      pop\n      jump\t// out\n        /* \"#utility.yul\":3395:3545   */\n    tag_26:\n        /* \"#utility.yul\":3432:3439   */\n      0x00\n        /* \"#utility.yul\":3472:3538   */\n      0xffffffffffffffffffff00000000000000000000000000000000000000000000\n        /* \"#utility.yul\":3465:3470   */\n      dup3\n        /* \"#utility.yul\":3461:3539   */\n      and\n        /* \"#utility.yul\":3450:3539   */\n      swap1\n      pop\n        /* \"#utility.yul\":3395:3545   */\n      swap2\n      swap1\n      pop\n      jump\t// out\n        /* \"#utility.yul\":3551:3669   */\n    tag_27:\n        /* \"#utility.yul\":3638:3662   */\n      tag_79\n        /* \"#utility.yul\":3656:3661   */\n      dup2\n        /* \"#utility.yul\":3638:3662   */\n      tag_26\n      jump\t// in\n    tag_79:\n        /* \"#utility.yul\":3633:3636   */\n      dup3\n        /* \"#utility.yul\":3626:3663   */\n      mstore\n        /* \"#utility.yul\":3551:3669   */\n      pop\n      pop\n      jump\t// out\n        /* \"#utility.yul\":3675:3897   */\n    tag_9:\n        /* \"#utility.yul\":3768:3772   */\n      0x00\n        /* \"#utility.yul\":3806:3808   */\n      0x20\n        /* \"#utility.yul\":3795:3804   */\n      dup3\n        /* \"#utility.yul\":3791:3809   */\n      add\n        /* \"#utility.yul\":3783:3809   */\n      swap1\n      pop\n        /* \"#utility.yul\":3819:3890   */\n      tag_81\n        /* \"#utility.yul\":3887:3888   */\n      0x00\n        /* \"#utility.yul\":3876:3885   */\n      dup4\n        /* \"#utility.yul\":3872:3889   */\n      add\n        /* \"#utility.yul\":3863:3869   */\n      dup5\n        /* \"#utility.yul\":3819:3890   */\n      tag_27\n      jump\t// in\n    tag_81:\n        /* \"#utility.yul\":3675:3897   */\n      swap3\n      swap2\n      pop\n      pop\n      jump\t// out\n        /* \"#utility.yul\":3903:4002   */\n    tag_28:\n        /* \"#utility.yul\":3955:3961   */\n      0x00\n        /* \"#utility.yul\":3989:3994   */\n      dup2\n        /* \"#utility.yul\":3983:3995   */\n      mload\n        /* \"#utility.yul\":3973:3995   */\n      swap1\n      pop\n        /* \"#utility.yul\":3903:4002   */\n      swap2\n      swap1\n      pop\n      jump\t// out\n        /* \"#utility.yul\":4008:4156   */\n    tag_29:\n        /* \"#utility.yul\":4110:4121   */\n      0x00\n        /* \"#utility.yul\":4147:4150   */\n      dup2\n        /* \"#utility.yul\":4132:4150   */\n      swap1\n      pop\n        /* \"#utility.yul\":4008:4156   */\n      swap3\n      swap2\n      pop\n      pop\n      jump\t// out\n        /* \"#utility.yul\":4162:4301   */\n    tag_30:\n        /* \"#utility.yul\":4251:4257   */\n      dup3\n        /* \"#utility.yul\":4246:4249   */\n      dup2\n        /* \"#utility.yul\":4241:4244   */\n      dup4\n        /* \"#utility.yul\":4235:4258   */\n      mcopy\n        /* \"#utility.yul\":4292:4293   */\n      0x00\n        /* \"#utility.yul\":4283:4289   */\n      dup4\n        /* \"#utility.yul\":4278:4281   */\n      dup4\n        /* \"#utility.yul\":4274:4290   */\n      add\n        /* \"#utility.yul\":4267:4294   */\n      mstore\n        /* \"#utility.yul\":4162:4301   */\n      pop\n      pop\n      pop\n      jump\t// out\n        /* \"#utility.yul\":4307:4697   */\n    tag_31:\n        /* \"#utility.yul\":4413:4416   */\n      0x00\n        /* \"#utility.yul\":4441:4480   */\n      tag_86\n        /* \"#utility.yul\":4474:4479   */\n      dup3\n        /* \"#utility.yul\":4441:4480   */\n      tag_28\n      jump\t// in\n    tag_86:\n        /* \"#utility.yul\":4496:4585   */\n      tag_87\n        /* \"#utility.yul\":4578:4584   */\n      dup2\n        /* \"#utility.yul\":4573:4576   */\n      dup6\n        /* \"#utility.yul\":4496:4585   */\n      tag_29\n      jump\t// in\n    tag_87:\n        /* \"#utility.yul\":4489:4585   */\n      swap4\n      pop\n        /* \"#utility.yul\":4594:4659   */\n      tag_88\n        /* \"#utility.yul\":4652:4658   */\n      dup2\n        /* \"#utility.yul\":4647:4650   */\n      dup6\n        /* \"#utility.yul\":4640:4644   */\n      0x20\n        /* \"#utility.yul\":4633:4638   */\n      dup7\n        /* \"#utility.yul\":4629:4645   */\n      add\n        /* \"#utility.yul\":4594:4659   */\n      tag_30\n      jump\t// in\n    tag_88:\n        /* \"#utility.yul\":4684:4690   */\n      dup1\n        /* \"#utility.yul\":4679:4682   */\n      dup5\n        /* \"#utility.yul\":4675:4691   */\n      add\n        /* \"#utility.yul\":4668:4691   */\n      swap2\n      pop\n        /* \"#utility.yul\":4417:4697   */\n      pop\n        /* \"#utility.yul\":4307:4697   */\n      swap3\n      swap2\n      pop\n      pop\n      jump\t// out\n        /* \"#utility.yul\":4703:4829   */\n    tag_32:\n        /* \"#utility.yul\":4740:4747   */\n      0x00\n        /* \"#utility.yul\":4780:4822   */\n      0xffffffffffffffffffffffffffffffffffffffff\n        /* \"#utility.yul\":4773:4778   */\n      dup3\n        /* \"#utility.yul\":4769:4823   */\n      and\n        /* \"#utility.yul\":4758:4823   */\n      swap1\n      pop\n        /* \"#utility.yul\":4703:4829   */\n      swap2\n      swap1\n      pop\n      jump\t// out\n        /* \"#utility.yul\":4835:4931   */\n    tag_33:\n        /* \"#utility.yul\":4872:4879   */\n      0x00\n        /* \"#utility.yul\":4901:4925   */\n      tag_91\n        /* \"#utility.yul\":4919:4924   */\n      dup3\n        /* \"#utility.yul\":4901:4925   */\n      tag_32\n      jump\t// in\n    tag_91:\n        /* \"#utility.yul\":4890:4925   */\n      swap1\n      pop\n        /* \"#utility.yul\":4835:4931   */\n      swap2\n      swap1\n      pop\n      jump\t// out\n        /* \"#utility.yul\":4937:5031   */\n    tag_34:\n        /* \"#utility.yul\":4970:4978   */\n      0x00\n        /* \"#utility.yul\":5018:5023   */\n      dup2\n        /* \"#utility.yul\":5014:5016   */\n      0x60\n        /* \"#utility.yul\":5010:5024   */\n      shl\n        /* \"#utility.yul\":4989:5024   */\n      swap1\n      pop\n        /* \"#utility.yul\":4937:5031   */\n      swap2\n      swap1\n      pop\n      jump\t// out\n        /* \"#utility.yul\":5037:5131   */\n    tag_35:\n        /* \"#utility.yul\":5076:5083   */\n      0x00\n        /* \"#utility.yul\":5105:5125   */\n      tag_94\n        /* \"#utility.yul\":5119:5124   */\n      dup3\n        /* \"#utility.yul\":5105:5125   */\n      tag_34\n      jump\t// in\n    tag_94:\n        /* \"#utility.yul\":5094:5125   */\n      swap1\n      pop\n        /* \"#utility.yul\":5037:5131   */\n      swap2\n      swap1\n      pop\n      jump\t// out\n        /* \"#utility.yul\":5137:5237   */\n    tag_36:\n        /* \"#utility.yul\":5176:5183   */\n      0x00\n        /* \"#utility.yul\":5205:5231   */\n      tag_96\n        /* \"#utility.yul\":5225:5230   */\n      dup3\n        /* \"#utility.yul\":5205:5231   */\n      tag_35\n      jump\t// in\n    tag_96:\n        /* \"#utility.yul\":5194:5231   */\n      swap1\n      pop\n        /* \"#utility.yul\":5137:5237   */\n      swap2\n      swap1\n      pop\n      jump\t// out\n        /* \"#utility.yul\":5243:5400   */\n    tag_37:\n        /* \"#utility.yul\":5348:5393   */\n      tag_98\n        /* \"#utility.yul\":5368:5392   */\n      tag_99\n        /* \"#utility.yul\":5386:5391   */\n      dup3\n        /* \"#utility.yul\":5368:5392   */\n      tag_33\n      jump\t// in\n    tag_99:\n        /* \"#utility.yul\":5348:5393   */\n      tag_36\n      jump\t// in\n    tag_98:\n        /* \"#utility.yul\":5343:5346   */\n      dup3\n        /* \"#utility.yul\":5336:5394   */\n      mstore\n        /* \"#utility.yul\":5243:5400   */\n      pop\n      pop\n      jump\t// out\n        /* \"#utility.yul\":5406:5982   */\n    tag_12:\n        /* \"#utility.yul\":5614:5617   */\n      0x00\n        /* \"#utility.yul\":5636:5731   */\n      tag_101\n        /* \"#utility.yul\":5727:5730   */\n      dup3\n        /* \"#utility.yul\":5718:5724   */\n      dup7\n        /* \"#utility.yul\":5636:5731   */\n      tag_31\n      jump\t// in\n    tag_101:\n        /* \"#utility.yul\":5629:5731   */\n      swap2\n      pop\n        /* \"#utility.yul\":5748:5843   */\n      tag_102\n        /* \"#utility.yul\":5839:5842   */\n      dup3\n        /* \"#utility.yul\":5830:5836   */\n      dup6\n        /* \"#utility.yul\":5748:5843   */\n      tag_31\n      jump\t// in\n    tag_102:\n        /* \"#utility.yul\":5741:5843   */\n      swap2\n      pop\n        /* \"#utility.yul\":5853:5928   */\n      tag_103\n        /* \"#utility.yul\":5924:5927   */\n      dup3\n        /* \"#utility.yul\":5915:5921   */\n      dup5\n        /* \"#utility.yul\":5853:5928   */\n      tag_37\n      jump\t// in\n    tag_103:\n        /* \"#utility.yul\":5953:5955   */\n      0x14\n        /* \"#utility.yul\":5948:5951   */\n      dup3\n        /* \"#utility.yul\":5944:5956   */\n      add\n        /* \"#utility.yul\":5937:5956   */\n      swap2\n      pop\n        /* \"#utility.yul\":5973:5976   */\n      dup2\n        /* \"#utility.yul\":5966:5976   */\n      swap1\n      pop\n        /* \"#utility.yul\":5406:5982   */\n      swap5\n      swap4\n      pop\n      pop\n      pop\n      pop\n      jump\t// out\n\n    auxdata: 0xa264697066735822122029b1d44bc2c56204f9e3677e9bd2d4a6242a2a12cfb479468bdc4d62175cb91f64736f6c63430008190033\n}\n",
				"bytecode": {
					"linkReferences": {},
					"object": "6080604052348015600e575f80fd5b506103e28061001c5f395ff3fe608060405234801561000f575f80fd5b5060043610610029575f3560e01c806316b40bf71461002d575b5f80fd5b610047600480360381019061004291906101e8565b61005d565b6040516100549190610298565b60405180910390f35b5f8083833360405160200161007493929190610378565b6040516020818303038152906040528051906020012090505f819050809250505092915050565b5f604051905090565b5f80fd5b5f80fd5b5f80fd5b5f80fd5b5f601f19601f8301169050919050565b7f4e487b71000000000000000000000000000000000000000000000000000000005f52604160045260245ffd5b6100fa826100b4565b810181811067ffffffffffffffff82111715610119576101186100c4565b5b80604052505050565b5f61012b61009b565b905061013782826100f1565b919050565b5f67ffffffffffffffff821115610156576101556100c4565b5b61015f826100b4565b9050602081019050919050565b828183375f83830152505050565b5f61018c6101878461013c565b610122565b9050828152602081018484840111156101a8576101a76100b0565b5b6101b384828561016c565b509392505050565b5f82601f8301126101cf576101ce6100ac565b5b81356101df84826020860161017a565b91505092915050565b5f80604083850312156101fe576101fd6100a4565b5b5f83013567ffffffffffffffff81111561021b5761021a6100a8565b5b610227858286016101bb565b925050602083013567ffffffffffffffff811115610248576102476100a8565b5b610254858286016101bb565b9150509250929050565b5f7fffffffffffffffffffff0000000000000000000000000000000000000000000082169050919050565b6102928161025e565b82525050565b5f6020820190506102ab5f830184610289565b92915050565b5f81519050919050565b5f81905092915050565b8281835e5f83830152505050565b5f6102dd826102b1565b6102e781856102bb565b93506102f78185602086016102c5565b80840191505092915050565b5f73ffffffffffffffffffffffffffffffffffffffff82169050919050565b5f61032c82610303565b9050919050565b5f8160601b9050919050565b5f61034982610333565b9050919050565b5f61035a8261033f565b9050919050565b61037261036d82610322565b610350565b82525050565b5f61038382866102d3565b915061038f82856102d3565b915061039b8284610361565b60148201915081905094935050505056fea264697066735822122029b1d44bc2c56204f9e3677e9bd2d4a6242a2a12cfb479468bdc4d62175cb91f64736f6c63430008190033",
					"opcodes": "PUSH1 0x80 PUSH1 0x40 MSTORE CALLVALUE DUP1 ISZERO PUSH1 0xE JUMPI PUSH0 DUP1 REVERT JUMPDEST POP PUSH2 0x3E2 DUP1 PUSH2 0x1C PUSH0 CODECOPY PUSH0 RETURN INVALID PUSH1 0x80 PUSH1 0x40 MSTORE CALLVALUE DUP1 ISZERO PUSH2 0xF JUMPI PUSH0 DUP1 REVERT JUMPDEST POP PUSH1 0x4 CALLDATASIZE LT PUSH2 0x29 JUMPI PUSH0 CALLDATALOAD PUSH1 0xE0 SHR DUP1 PUSH4 0x16B40BF7 EQ PUSH2 0x2D JUMPI JUMPDEST PUSH0 DUP1 REVERT JUMPDEST PUSH2 0x47 PUSH1 0x4 DUP1 CALLDATASIZE SUB DUP2 ADD SWAP1 PUSH2 0x42 SWAP2 SWAP1 PUSH2 0x1E8 JUMP JUMPDEST PUSH2 0x5D JUMP JUMPDEST PUSH1 0x40 MLOAD PUSH2 0x54 SWAP2 SWAP1 PUSH2 0x298 JUMP JUMPDEST PUSH1 0x40 MLOAD DUP1 SWAP2 SUB SWAP1 RETURN JUMPDEST PUSH0 DUP1 DUP4 DUP4 CALLER PUSH1 0x40 MLOAD PUSH1 0x20 ADD PUSH2 0x74 SWAP4 SWAP3 SWAP2 SWAP1 PUSH2 0x378 JUMP JUMPDEST PUSH1 0x40 MLOAD PUSH1 0x20 DUP2 DUP4 SUB SUB DUP2 MSTORE SWAP1 PUSH1 0x40 MSTORE DUP1 MLOAD SWAP1 PUSH1 0x20 ADD KECCAK256 SWAP1 POP PUSH0 DUP2 SWAP1 POP DUP1 SWAP3 POP POP POP SWAP3 SWAP2 POP POP JUMP JUMPDEST PUSH0 PUSH1 0x40 MLOAD SWAP1 POP SWAP1 JUMP JUMPDEST PUSH0 DUP1 REVERT JUMPDEST PUSH0 DUP1 REVERT JUMPDEST PUSH0 DUP1 REVERT JUMPDEST PUSH0 DUP1 REVERT JUMPDEST PUSH0 PUSH1 0x1F NOT PUSH1 0x1F DUP4 ADD AND SWAP1 POP SWAP2 SWAP1 POP JUMP JUMPDEST PUSH32 0x4E487B7100000000000000000000000000000000000000000000000000000000 PUSH0 MSTORE PUSH1 0x41 PUSH1 0x4 MSTORE PUSH1 0x24 PUSH0 REVERT JUMPDEST PUSH2 0xFA DUP3 PUSH2 0xB4 JUMP JUMPDEST DUP2 ADD DUP2 DUP2 LT PUSH8 0xFFFFFFFFFFFFFFFF DUP3 GT OR ISZERO PUSH2 0x119 JUMPI PUSH2 0x118 PUSH2 0xC4 JUMP JUMPDEST JUMPDEST DUP1 PUSH1 0x40 MSTORE POP POP POP JUMP JUMPDEST PUSH0 PUSH2 0x12B PUSH2 0x9B JUMP JUMPDEST SWAP1 POP PUSH2 0x137 DUP3 DUP3 PUSH2 0xF1 JUMP JUMPDEST SWAP2 SWAP1 POP JUMP JUMPDEST PUSH0 PUSH8 0xFFFFFFFFFFFFFFFF DUP3 GT ISZERO PUSH2 0x156 JUMPI PUSH2 0x155 PUSH2 0xC4 JUMP JUMPDEST JUMPDEST PUSH2 0x15F DUP3 PUSH2 0xB4 JUMP JUMPDEST SWAP1 POP PUSH1 0x20 DUP2 ADD SWAP1 POP SWAP2 SWAP1 POP JUMP JUMPDEST DUP3 DUP2 DUP4 CALLDATACOPY PUSH0 DUP4 DUP4 ADD MSTORE POP POP POP JUMP JUMPDEST PUSH0 PUSH2 0x18C PUSH2 0x187 DUP5 PUSH2 0x13C JUMP JUMPDEST PUSH2 0x122 JUMP JUMPDEST SWAP1 POP DUP3 DUP2 MSTORE PUSH1 0x20 DUP2 ADD DUP5 DUP5 DUP5 ADD GT ISZERO PUSH2 0x1A8 JUMPI PUSH2 0x1A7 PUSH2 0xB0 JUMP JUMPDEST JUMPDEST PUSH2 0x1B3 DUP5 DUP3 DUP6 PUSH2 0x16C JUMP JUMPDEST POP SWAP4 SWAP3 POP POP POP JUMP JUMPDEST PUSH0 DUP3 PUSH1 0x1F DUP4 ADD SLT PUSH2 0x1CF JUMPI PUSH2 0x1CE PUSH2 0xAC JUMP JUMPDEST JUMPDEST DUP2 CALLDATALOAD PUSH2 0x1DF DUP5 DUP3 PUSH1 0x20 DUP7 ADD PUSH2 0x17A JUMP JUMPDEST SWAP2 POP POP SWAP3 SWAP2 POP POP JUMP JUMPDEST PUSH0 DUP1 PUSH1 0x40 DUP4 DUP6 SUB SLT ISZERO PUSH2 0x1FE JUMPI PUSH2 0x1FD PUSH2 0xA4 JUMP JUMPDEST JUMPDEST PUSH0 DUP4 ADD CALLDATALOAD PUSH8 0xFFFFFFFFFFFFFFFF DUP2 GT ISZERO PUSH2 0x21B JUMPI PUSH2 0x21A PUSH2 0xA8 JUMP JUMPDEST JUMPDEST PUSH2 0x227 DUP6 DUP3 DUP7 ADD PUSH2 0x1BB JUMP JUMPDEST SWAP3 POP POP PUSH1 0x20 DUP4 ADD CALLDATALOAD PUSH8 0xFFFFFFFFFFFFFFFF DUP2 GT ISZERO PUSH2 0x248 JUMPI PUSH2 0x247 PUSH2 0xA8 JUMP JUMPDEST JUMPDEST PUSH2 0x254 DUP6 DUP3 DUP7 ADD PUSH2 0x1BB JUMP JUMPDEST SWAP2 POP POP SWAP3 POP SWAP3 SWAP1 POP JUMP JUMPDEST PUSH0 PUSH32 0xFFFFFFFFFFFFFFFFFFFF00000000000000000000000000000000000000000000 DUP3 AND SWAP1 POP SWAP2 SWAP1 POP JUMP JUMPDEST PUSH2 0x292 DUP2 PUSH2 0x25E JUMP JUMPDEST DUP3 MSTORE POP POP JUMP JUMPDEST PUSH0 PUSH1 0x20 DUP3 ADD SWAP1 POP PUSH2 0x2AB PUSH0 DUP4 ADD DUP5 PUSH2 0x289 JUMP JUMPDEST SWAP3 SWAP2 POP POP JUMP JUMPDEST PUSH0 DUP2 MLOAD SWAP1 POP SWAP2 SWAP1 POP JUMP JUMPDEST PUSH0 DUP2 SWAP1 POP SWAP3 SWAP2 POP POP JUMP JUMPDEST DUP3 DUP2 DUP4 MCOPY PUSH0 DUP4 DUP4 ADD MSTORE POP POP POP JUMP JUMPDEST PUSH0 PUSH2 0x2DD DUP3 PUSH2 0x2B1 JUMP JUMPDEST PUSH2 0x2E7 DUP2 DUP6 PUSH2 0x2BB JUMP JUMPDEST SWAP4 POP PUSH2 0x2F7 DUP2 DUP6 PUSH1 0x20 DUP7 ADD PUSH2 0x2C5 JUMP JUMPDEST DUP1 DUP5 ADD SWAP2 POP POP SWAP3 SWAP2 POP POP JUMP JUMPDEST PUSH0 PUSH20 0xFFFFFFFFFFFFFFFFFFFFFFFFFFFFFFFFFFFFFFFF DUP3 AND SWAP1 POP SWAP2 SWAP1 POP JUMP JUMPDEST PUSH0 PUSH2 0x32C DUP3 PUSH2 0x303 JUMP JUMPDEST SWAP1 POP SWAP2 SWAP1 POP JUMP JUMPDEST PUSH0 DUP2 PUSH1 0x60 SHL SWAP1 POP SWAP2 SWAP1 POP JUMP JUMPDEST PUSH0 PUSH2 0x349 DUP3 PUSH2 0x333 JUMP JUMPDEST SWAP1 POP SWAP2 SWAP1 POP JUMP JUMPDEST PUSH0 PUSH2 0x35A DUP3 PUSH2 0x33F JUMP JUMPDEST SWAP1 POP SWAP2 SWAP1 POP JUMP JUMPDEST PUSH2 0x372 PUSH2 0x36D DUP3 PUSH2 0x322 JUMP JUMPDEST PUSH2 0x350 JUMP JUMPDEST DUP3 MSTORE POP POP JUMP JUMPDEST PUSH0 PUSH2 0x383 DUP3 DUP7 PUSH2 0x2D3 JUMP JUMPDEST SWAP2 POP PUSH2 0x38F DUP3 DUP6 PUSH2 0x2D3 JUMP JUMPDEST SWAP2 POP PUSH2 0x39B DUP3 DUP5 PUSH2 0x361 JUMP JUMPDEST PUSH1 0x14 DUP3 ADD SWAP2 POP DUP2 SWAP1 POP SWAP5 SWAP4 POP POP POP POP JUMP INVALID LOG2 PUSH5 0x6970667358 0x22 SLT KECCAK256 0x29 0xB1 0xD4 0x4B 0xC2 0xC5 PUSH3 0x4F9E3 PUSH8 0x7E9BD2D4A6242A2A SLT 0xCF 0xB4 PUSH26 0x468BDC4D62175CB91F64736F6C63430008190033000000000000 "
				},
				"gasEstimates": {
					"creation": {
						"codeDepositCost": "198800",
						"executionCost": "243",
						"totalCost": "199043"
					},
					"external": {
						"setId(string,string)": "infinite"
					}
				},
				"methodIdentifiers": {
					"setId(string,string)": "16b40bf7"
				}
			},
			"storageLayout": {
				"storage": [],
				"types": null
			},
			"userdoc": {
				"kind": "user",
				"methods": {},
				"version": 1
			}
		}
	}
}