{
	"solidity_100/51-60.sol": {
		"Q53": {
			"abi": [
				{
					"inputs": [
						{
							"internalType": "string",
							"name": "_bankName",
							"type": "string"
						}
					],
					"name": "deposit",
					"outputs": [],
					"stateMutability": "payable",
					"type": "function"
				},
				{
					"inputs": [
						{
							"internalType": "string",
							"name": "_bankName",
							"type": "string"
						}
					],
					"name": "getBalance",
					"outputs": [
						{
							"internalType": "uint256",
							"name": "",
							"type": "uint256"
						}
					],
					"stateMutability": "view",
					"type": "function"
				},
				{
					"inputs": [
						{
							"internalType": "string",
							"name": "_bankName",
							"type": "string"
						},
						{
							"internalType": "uint256",
							"name": "_n",
							"type": "uint256"
						}
					],
					"name": "withDraw",
					"outputs": [],
					"stateMutability": "payable",
					"type": "function"
				}
			],
			"devdoc": {
				"kind": "dev",
				"methods": {},
				"version": 1
			},
			"evm": {
				"assembly": "    /* \"solidity_100/51-60.sol\":1305:2184  contract Q53 {... */\n  mstore(0x40, 0x80)\n  callvalue\n  dup1\n  iszero\n  tag_1\n  jumpi\n  0x00\n  dup1\n  revert\ntag_1:\n  pop\n  dataSize(sub_0)\n  dup1\n  dataOffset(sub_0)\n  0x00\n  codecopy\n  0x00\n  return\nstop\n\nsub_0: assembly {\n        /* \"solidity_100/51-60.sol\":1305:2184  contract Q53 {... */\n      mstore(0x40, 0x80)\n      jumpi(tag_1, lt(calldatasize, 0x04))\n      shr(0xe0, calldataload(0x00))\n      dup1\n      0x3a51d246\n      eq\n      tag_2\n      jumpi\n      dup1\n      0x70e76406\n      eq\n      tag_3\n      jumpi\n      dup1\n      0xa26e1186\n      eq\n      tag_4\n      jumpi\n    tag_1:\n      0x00\n      dup1\n      revert\n        /* \"solidity_100/51-60.sol\":1843:1974  function getBalance(string memory _bankName) public view returns(uint) {... */\n    tag_2:\n      callvalue\n      dup1\n      iszero\n      tag_5\n      jumpi\n      0x00\n      dup1\n      revert\n    tag_5:\n      pop\n      tag_6\n      0x04\n      dup1\n      calldatasize\n      sub\n      dup2\n      add\n      swap1\n      tag_7\n      swap2\n      swap1\n      tag_8\n      jump\t// in\n    tag_7:\n      tag_9\n      jump\t// in\n    tag_6:\n      mload(0x40)\n      tag_10\n      swap2\n      swap1\n      tag_11\n      jump\t// in\n    tag_10:\n      mload(0x40)\n      dup1\n      swap2\n      sub\n      swap1\n      return\n        /* \"solidity_100/51-60.sol\":1982:2181  function withDraw(string memory _bankName, uint _n) public payable {... */\n    tag_3:\n      tag_12\n      0x04\n      dup1\n      calldatasize\n      sub\n      dup2\n      add\n      swap1\n      tag_13\n      swap2\n      swap1\n      tag_14\n      jump\t// in\n    tag_13:\n      tag_15\n      jump\t// in\n    tag_12:\n      stop\n        /* \"solidity_100/51-60.sol\":1713:1835  function deposit(string memory _bankName) public payable {... */\n    tag_4:\n      tag_16\n      0x04\n      dup1\n      calldatasize\n      sub\n      dup2\n      add\n      swap1\n      tag_17\n      swap2\n      swap1\n      tag_8\n      jump\t// in\n    tag_17:\n      tag_18\n      jump\t// in\n    tag_16:\n      stop\n        /* \"solidity_100/51-60.sol\":1843:1974  function getBalance(string memory _bankName) public view returns(uint) {... */\n    tag_9:\n        /* \"solidity_100/51-60.sol\":1908:1912  uint */\n      0x00\n        /* \"solidity_100/51-60.sol\":1932:1943  bankBalance */\n      dup1\n        /* \"solidity_100/51-60.sol\":1932:1955  bankBalance[msg.sender] */\n      0x00\n        /* \"solidity_100/51-60.sol\":1944:1954  msg.sender */\n      caller\n        /* \"solidity_100/51-60.sol\":1932:1955  bankBalance[msg.sender] */\n      0xffffffffffffffffffffffffffffffffffffffff\n      and\n      0xffffffffffffffffffffffffffffffffffffffff\n      and\n      dup2\n      mstore\n      0x20\n      add\n      swap1\n      dup2\n      mstore\n      0x20\n      add\n      0x00\n      keccak256\n        /* \"solidity_100/51-60.sol\":1956:1965  _bankName */\n      dup3\n        /* \"solidity_100/51-60.sol\":1932:1966  bankBalance[msg.sender][_bankName] */\n      mload(0x40)\n      tag_20\n      swap2\n      swap1\n      tag_21\n      jump\t// in\n    tag_20:\n      swap1\n      dup2\n      mstore\n      0x20\n      add\n      mload(0x40)\n      dup1\n      swap2\n      sub\n      swap1\n      keccak256\n      sload\n        /* \"solidity_100/51-60.sol\":1925:1966  return bankBalance[msg.sender][_bankName] */\n      swap1\n      pop\n        /* \"solidity_100/51-60.sol\":1843:1974  function getBalance(string memory _bankName) public view returns(uint) {... */\n      swap2\n      swap1\n      pop\n      jump\t// out\n        /* \"solidity_100/51-60.sol\":1982:2181  function withDraw(string memory _bankName, uint _n) public payable {... */\n    tag_15:\n        /* \"solidity_100/51-60.sol\":2105:2107  _n */\n      dup1\n        /* \"solidity_100/51-60.sol\":2068:2079  bankBalance */\n      0x00\n        /* \"solidity_100/51-60.sol\":2068:2091  bankBalance[msg.sender] */\n      dup1\n        /* \"solidity_100/51-60.sol\":2080:2090  msg.sender */\n      caller\n        /* \"solidity_100/51-60.sol\":2068:2091  bankBalance[msg.sender] */\n      0xffffffffffffffffffffffffffffffffffffffff\n      and\n      0xffffffffffffffffffffffffffffffffffffffff\n      and\n      dup2\n      mstore\n      0x20\n      add\n      swap1\n      dup2\n      mstore\n      0x20\n      add\n      0x00\n      keccak256\n        /* \"solidity_100/51-60.sol\":2092:2101  _bankName */\n      dup4\n        /* \"solidity_100/51-60.sol\":2068:2102  bankBalance[msg.sender][_bankName] */\n      mload(0x40)\n      tag_23\n      swap2\n      swap1\n      tag_21\n      jump\t// in\n    tag_23:\n      swap1\n      dup2\n      mstore\n      0x20\n      add\n      mload(0x40)\n      dup1\n      swap2\n      sub\n      swap1\n      keccak256\n      sload\n        /* \"solidity_100/51-60.sol\":2068:2107  bankBalance[msg.sender][_bankName] > _n */\n      gt\n        /* \"solidity_100/51-60.sol\":2060:2130  require(bankBalance[msg.sender][_bankName] > _n, \"not enough balance\") */\n      tag_24\n      jumpi\n      mload(0x40)\n      0x08c379a000000000000000000000000000000000000000000000000000000000\n      dup2\n      mstore\n      0x04\n      add\n      tag_25\n      swap1\n      tag_26\n      jump\t// in\n    tag_25:\n      mload(0x40)\n      dup1\n      swap2\n      sub\n      swap1\n      revert\n    tag_24:\n        /* \"solidity_100/51-60.sol\":2149:2159  msg.sender */\n      caller\n        /* \"solidity_100/51-60.sol\":2141:2169  payable(msg.sender).transfer */\n      0xffffffffffffffffffffffffffffffffffffffff\n      and\n        /* \"solidity_100/51-60.sol\":2141:2173  payable(msg.sender).transfer(_n) */\n      0x08fc\n        /* \"solidity_100/51-60.sol\":2170:2172  _n */\n      dup3\n        /* \"solidity_100/51-60.sol\":2141:2173  payable(msg.sender).transfer(_n) */\n      swap1\n      dup2\n      iszero\n      mul\n      swap1\n      mload(0x40)\n      0x00\n      mload(0x40)\n      dup1\n      dup4\n      sub\n      dup2\n      dup6\n      dup9\n      dup9\n      call\n      swap4\n      pop\n      pop\n      pop\n      pop\n      iszero\n      dup1\n      iszero\n      tag_28\n      jumpi\n      returndatasize\n      0x00\n      dup1\n      returndatacopy\n      revert(0x00, returndatasize)\n    tag_28:\n      pop\n        /* \"solidity_100/51-60.sol\":1982:2181  function withDraw(string memory _bankName, uint _n) public payable {... */\n      pop\n      pop\n      jump\t// out\n        /* \"solidity_100/51-60.sol\":1713:1835  function deposit(string memory _bankName) public payable {... */\n    tag_18:\n        /* \"solidity_100/51-60.sol\":1818:1827  msg.value */\n      callvalue\n        /* \"solidity_100/51-60.sol\":1781:1792  bankBalance */\n      0x00\n        /* \"solidity_100/51-60.sol\":1781:1804  bankBalance[msg.sender] */\n      dup1\n        /* \"solidity_100/51-60.sol\":1793:1803  msg.sender */\n      caller\n        /* \"solidity_100/51-60.sol\":1781:1804  bankBalance[msg.sender] */\n      0xffffffffffffffffffffffffffffffffffffffff\n      and\n      0xffffffffffffffffffffffffffffffffffffffff\n      and\n      dup2\n      mstore\n      0x20\n      add\n      swap1\n      dup2\n      mstore\n      0x20\n      add\n      0x00\n      keccak256\n        /* \"solidity_100/51-60.sol\":1805:1814  _bankName */\n      dup3\n        /* \"solidity_100/51-60.sol\":1781:1815  bankBalance[msg.sender][_bankName] */\n      mload(0x40)\n      tag_30\n      swap2\n      swap1\n      tag_21\n      jump\t// in\n    tag_30:\n      swap1\n      dup2\n      mstore\n      0x20\n      add\n      mload(0x40)\n      dup1\n      swap2\n      sub\n      swap1\n      keccak256\n        /* \"solidity_100/51-60.sol\":1781:1827  bankBalance[msg.sender][_bankName] = msg.value */\n      dup2\n      swap1\n      sstore\n      pop\n        /* \"solidity_100/51-60.sol\":1713:1835  function deposit(string memory _bankName) public payable {... */\n      pop\n      jump\t// out\n        /* \"#utility.yul\":7:82   */\n    tag_31:\n        /* \"#utility.yul\":40:46   */\n      0x00\n        /* \"#utility.yul\":73:75   */\n      0x40\n        /* \"#utility.yul\":67:76   */\n      mload\n        /* \"#utility.yul\":57:76   */\n      swap1\n      pop\n        /* \"#utility.yul\":7:82   */\n      swap1\n      jump\t// out\n        /* \"#utility.yul\":88:205   */\n    tag_32:\n        /* \"#utility.yul\":197:198   */\n      0x00\n        /* \"#utility.yul\":194:195   */\n      dup1\n        /* \"#utility.yul\":187:199   */\n      revert\n        /* \"#utility.yul\":211:328   */\n    tag_33:\n        /* \"#utility.yul\":320:321   */\n      0x00\n        /* \"#utility.yul\":317:318   */\n      dup1\n        /* \"#utility.yul\":310:322   */\n      revert\n        /* \"#utility.yul\":334:451   */\n    tag_34:\n        /* \"#utility.yul\":443:444   */\n      0x00\n        /* \"#utility.yul\":440:441   */\n      dup1\n        /* \"#utility.yul\":433:445   */\n      revert\n        /* \"#utility.yul\":457:574   */\n    tag_35:\n        /* \"#utility.yul\":566:567   */\n      0x00\n        /* \"#utility.yul\":563:564   */\n      dup1\n        /* \"#utility.yul\":556:568   */\n      revert\n        /* \"#utility.yul\":580:682   */\n    tag_36:\n        /* \"#utility.yul\":621:627   */\n      0x00\n        /* \"#utility.yul\":672:674   */\n      0x1f\n        /* \"#utility.yul\":668:675   */\n      not\n        /* \"#utility.yul\":663:665   */\n      0x1f\n        /* \"#utility.yul\":656:661   */\n      dup4\n        /* \"#utility.yul\":652:666   */\n      add\n        /* \"#utility.yul\":648:676   */\n      and\n        /* \"#utility.yul\":638:676   */\n      swap1\n      pop\n        /* \"#utility.yul\":580:682   */\n      swap2\n      swap1\n      pop\n      jump\t// out\n        /* \"#utility.yul\":688:868   */\n    tag_37:\n        /* \"#utility.yul\":736:813   */\n      0x4e487b7100000000000000000000000000000000000000000000000000000000\n        /* \"#utility.yul\":733:734   */\n      0x00\n        /* \"#utility.yul\":726:814   */\n      mstore\n        /* \"#utility.yul\":833:837   */\n      0x41\n        /* \"#utility.yul\":830:831   */\n      0x04\n        /* \"#utility.yul\":823:838   */\n      mstore\n        /* \"#utility.yul\":857:861   */\n      0x24\n        /* \"#utility.yul\":854:855   */\n      0x00\n        /* \"#utility.yul\":847:862   */\n      revert\n        /* \"#utility.yul\":874:1155   */\n    tag_38:\n        /* \"#utility.yul\":957:984   */\n      tag_64\n        /* \"#utility.yul\":979:983   */\n      dup3\n        /* \"#utility.yul\":957:984   */\n      tag_36\n      jump\t// in\n    tag_64:\n        /* \"#utility.yul\":949:955   */\n      dup2\n        /* \"#utility.yul\":945:985   */\n      add\n        /* \"#utility.yul\":1087:1093   */\n      dup2\n        /* \"#utility.yul\":1075:1085   */\n      dup2\n        /* \"#utility.yul\":1072:1094   */\n      lt\n        /* \"#utility.yul\":1051:1069   */\n      0xffffffffffffffff\n        /* \"#utility.yul\":1039:1049   */\n      dup3\n        /* \"#utility.yul\":1036:1070   */\n      gt\n        /* \"#utility.yul\":1033:1095   */\n      or\n        /* \"#utility.yul\":1030:1118   */\n      iszero\n      tag_65\n      jumpi\n        /* \"#utility.yul\":1098:1116   */\n      tag_66\n      tag_37\n      jump\t// in\n    tag_66:\n        /* \"#utility.yul\":1030:1118   */\n    tag_65:\n        /* \"#utility.yul\":1138:1148   */\n      dup1\n        /* \"#utility.yul\":1134:1136   */\n      0x40\n        /* \"#utility.yul\":1127:1149   */\n      mstore\n        /* \"#utility.yul\":917:1155   */\n      pop\n        /* \"#utility.yul\":874:1155   */\n      pop\n      pop\n      jump\t// out\n        /* \"#utility.yul\":1161:1290   */\n    tag_39:\n        /* \"#utility.yul\":1195:1201   */\n      0x00\n        /* \"#utility.yul\":1222:1242   */\n      tag_68\n      tag_31\n      jump\t// in\n    tag_68:\n        /* \"#utility.yul\":1212:1242   */\n      swap1\n      pop\n        /* \"#utility.yul\":1251:1284   */\n      tag_69\n        /* \"#utility.yul\":1279:1283   */\n      dup3\n        /* \"#utility.yul\":1271:1277   */\n      dup3\n        /* \"#utility.yul\":1251:1284   */\n      tag_38\n      jump\t// in\n    tag_69:\n        /* \"#utility.yul\":1161:1290   */\n      swap2\n      swap1\n      pop\n      jump\t// out\n        /* \"#utility.yul\":1296:1604   */\n    tag_40:\n        /* \"#utility.yul\":1358:1362   */\n      0x00\n        /* \"#utility.yul\":1448:1466   */\n      0xffffffffffffffff\n        /* \"#utility.yul\":1440:1446   */\n      dup3\n        /* \"#utility.yul\":1437:1467   */\n      gt\n        /* \"#utility.yul\":1434:1490   */\n      iszero\n      tag_71\n      jumpi\n        /* \"#utility.yul\":1470:1488   */\n      tag_72\n      tag_37\n      jump\t// in\n    tag_72:\n        /* \"#utility.yul\":1434:1490   */\n    tag_71:\n        /* \"#utility.yul\":1508:1537   */\n      tag_73\n        /* \"#utility.yul\":1530:1536   */\n      dup3\n        /* \"#utility.yul\":1508:1537   */\n      tag_36\n      jump\t// in\n    tag_73:\n        /* \"#utility.yul\":1500:1537   */\n      swap1\n      pop\n        /* \"#utility.yul\":1592:1596   */\n      0x20\n        /* \"#utility.yul\":1586:1590   */\n      dup2\n        /* \"#utility.yul\":1582:1597   */\n      add\n        /* \"#utility.yul\":1574:1597   */\n      swap1\n      pop\n        /* \"#utility.yul\":1296:1604   */\n      swap2\n      swap1\n      pop\n      jump\t// out\n        /* \"#utility.yul\":1610:1758   */\n    tag_41:\n        /* \"#utility.yul\":1708:1714   */\n      dup3\n        /* \"#utility.yul\":1703:1706   */\n      dup2\n        /* \"#utility.yul\":1698:1701   */\n      dup4\n        /* \"#utility.yul\":1685:1715   */\n      calldatacopy\n        /* \"#utility.yul\":1749:1750   */\n      0x00\n        /* \"#utility.yul\":1740:1746   */\n      dup4\n        /* \"#utility.yul\":1735:1738   */\n      dup4\n        /* \"#utility.yul\":1731:1747   */\n      add\n        /* \"#utility.yul\":1724:1751   */\n      mstore\n        /* \"#utility.yul\":1610:1758   */\n      pop\n      pop\n      pop\n      jump\t// out\n        /* \"#utility.yul\":1764:2189   */\n    tag_42:\n        /* \"#utility.yul\":1842:1847   */\n      0x00\n        /* \"#utility.yul\":1867:1933   */\n      tag_76\n        /* \"#utility.yul\":1883:1932   */\n      tag_77\n        /* \"#utility.yul\":1925:1931   */\n      dup5\n        /* \"#utility.yul\":1883:1932   */\n      tag_40\n      jump\t// in\n    tag_77:\n        /* \"#utility.yul\":1867:1933   */\n      tag_39\n      jump\t// in\n    tag_76:\n        /* \"#utility.yul\":1858:1933   */\n      swap1\n      pop\n        /* \"#utility.yul\":1956:1962   */\n      dup3\n        /* \"#utility.yul\":1949:1954   */\n      dup2\n        /* \"#utility.yul\":1942:1963   */\n      mstore\n        /* \"#utility.yul\":1994:1998   */\n      0x20\n        /* \"#utility.yul\":1987:1992   */\n      dup2\n        /* \"#utility.yul\":1983:1999   */\n      add\n        /* \"#utility.yul\":2032:2035   */\n      dup5\n        /* \"#utility.yul\":2023:2029   */\n      dup5\n        /* \"#utility.yul\":2018:2021   */\n      dup5\n        /* \"#utility.yul\":2014:2030   */\n      add\n        /* \"#utility.yul\":2011:2036   */\n      gt\n        /* \"#utility.yul\":2008:2120   */\n      iszero\n      tag_78\n      jumpi\n        /* \"#utility.yul\":2039:2118   */\n      tag_79\n      tag_35\n      jump\t// in\n    tag_79:\n        /* \"#utility.yul\":2008:2120   */\n    tag_78:\n        /* \"#utility.yul\":2129:2183   */\n      tag_80\n        /* \"#utility.yul\":2176:2182   */\n      dup5\n        /* \"#utility.yul\":2171:2174   */\n      dup3\n        /* \"#utility.yul\":2166:2169   */\n      dup6\n        /* \"#utility.yul\":2129:2183   */\n      tag_41\n      jump\t// in\n    tag_80:\n        /* \"#utility.yul\":1848:2189   */\n      pop\n        /* \"#utility.yul\":1764:2189   */\n      swap4\n      swap3\n      pop\n      pop\n      pop\n      jump\t// out\n        /* \"#utility.yul\":2209:2549   */\n    tag_43:\n        /* \"#utility.yul\":2265:2270   */\n      0x00\n        /* \"#utility.yul\":2314:2317   */\n      dup3\n        /* \"#utility.yul\":2307:2311   */\n      0x1f\n        /* \"#utility.yul\":2299:2305   */\n      dup4\n        /* \"#utility.yul\":2295:2312   */\n      add\n        /* \"#utility.yul\":2291:2318   */\n      slt\n        /* \"#utility.yul\":2281:2403   */\n      tag_82\n      jumpi\n        /* \"#utility.yul\":2322:2401   */\n      tag_83\n      tag_34\n      jump\t// in\n    tag_83:\n        /* \"#utility.yul\":2281:2403   */\n    tag_82:\n        /* \"#utility.yul\":2439:2445   */\n      dup2\n        /* \"#utility.yul\":2426:2446   */\n      calldataload\n        /* \"#utility.yul\":2464:2543   */\n      tag_84\n        /* \"#utility.yul\":2539:2542   */\n      dup5\n        /* \"#utility.yul\":2531:2537   */\n      dup3\n        /* \"#utility.yul\":2524:2528   */\n      0x20\n        /* \"#utility.yul\":2516:2522   */\n      dup7\n        /* \"#utility.yul\":2512:2529   */\n      add\n        /* \"#utility.yul\":2464:2543   */\n      tag_42\n      jump\t// in\n    tag_84:\n        /* \"#utility.yul\":2455:2543   */\n      swap2\n      pop\n        /* \"#utility.yul\":2271:2549   */\n      pop\n        /* \"#utility.yul\":2209:2549   */\n      swap3\n      swap2\n      pop\n      pop\n      jump\t// out\n        /* \"#utility.yul\":2555:3064   */\n    tag_8:\n        /* \"#utility.yul\":2624:2630   */\n      0x00\n        /* \"#utility.yul\":2673:2675   */\n      0x20\n        /* \"#utility.yul\":2661:2670   */\n      dup3\n        /* \"#utility.yul\":2652:2659   */\n      dup5\n        /* \"#utility.yul\":2648:2671   */\n      sub\n        /* \"#utility.yul\":2644:2676   */\n      slt\n        /* \"#utility.yul\":2641:2760   */\n      iszero\n      tag_86\n      jumpi\n        /* \"#utility.yul\":2679:2758   */\n      tag_87\n      tag_32\n      jump\t// in\n    tag_87:\n        /* \"#utility.yul\":2641:2760   */\n    tag_86:\n        /* \"#utility.yul\":2827:2828   */\n      0x00\n        /* \"#utility.yul\":2816:2825   */\n      dup3\n        /* \"#utility.yul\":2812:2829   */\n      add\n        /* \"#utility.yul\":2799:2830   */\n      calldataload\n        /* \"#utility.yul\":2857:2875   */\n      0xffffffffffffffff\n        /* \"#utility.yul\":2849:2855   */\n      dup2\n        /* \"#utility.yul\":2846:2876   */\n      gt\n        /* \"#utility.yul\":2843:2960   */\n      iszero\n      tag_88\n      jumpi\n        /* \"#utility.yul\":2879:2958   */\n      tag_89\n      tag_33\n      jump\t// in\n    tag_89:\n        /* \"#utility.yul\":2843:2960   */\n    tag_88:\n        /* \"#utility.yul\":2984:3047   */\n      tag_90\n        /* \"#utility.yul\":3039:3046   */\n      dup5\n        /* \"#utility.yul\":3030:3036   */\n      dup3\n        /* \"#utility.yul\":3019:3028   */\n      dup6\n        /* \"#utility.yul\":3015:3037   */\n      add\n        /* \"#utility.yul\":2984:3047   */\n      tag_43\n      jump\t// in\n    tag_90:\n        /* \"#utility.yul\":2974:3047   */\n      swap2\n      pop\n        /* \"#utility.yul\":2770:3057   */\n      pop\n        /* \"#utility.yul\":2555:3064   */\n      swap3\n      swap2\n      pop\n      pop\n      jump\t// out\n        /* \"#utility.yul\":3070:3147   */\n    tag_44:\n        /* \"#utility.yul\":3107:3114   */\n      0x00\n        /* \"#utility.yul\":3136:3141   */\n      dup2\n        /* \"#utility.yul\":3125:3141   */\n      swap1\n      pop\n        /* \"#utility.yul\":3070:3147   */\n      swap2\n      swap1\n      pop\n      jump\t// out\n        /* \"#utility.yul\":3153:3271   */\n    tag_45:\n        /* \"#utility.yul\":3240:3264   */\n      tag_93\n        /* \"#utility.yul\":3258:3263   */\n      dup2\n        /* \"#utility.yul\":3240:3264   */\n      tag_44\n      jump\t// in\n    tag_93:\n        /* \"#utility.yul\":3235:3238   */\n      dup3\n        /* \"#utility.yul\":3228:3265   */\n      mstore\n        /* \"#utility.yul\":3153:3271   */\n      pop\n      pop\n      jump\t// out\n        /* \"#utility.yul\":3277:3499   */\n    tag_11:\n        /* \"#utility.yul\":3370:3374   */\n      0x00\n        /* \"#utility.yul\":3408:3410   */\n      0x20\n        /* \"#utility.yul\":3397:3406   */\n      dup3\n        /* \"#utility.yul\":3393:3411   */\n      add\n        /* \"#utility.yul\":3385:3411   */\n      swap1\n      pop\n        /* \"#utility.yul\":3421:3492   */\n      tag_95\n        /* \"#utility.yul\":3489:3490   */\n      0x00\n        /* \"#utility.yul\":3478:3487   */\n      dup4\n        /* \"#utility.yul\":3474:3491   */\n      add\n        /* \"#utility.yul\":3465:3471   */\n      dup5\n        /* \"#utility.yul\":3421:3492   */\n      tag_45\n      jump\t// in\n    tag_95:\n        /* \"#utility.yul\":3277:3499   */\n      swap3\n      swap2\n      pop\n      pop\n      jump\t// out\n        /* \"#utility.yul\":3505:3627   */\n    tag_46:\n        /* \"#utility.yul\":3578:3602   */\n      tag_97\n        /* \"#utility.yul\":3596:3601   */\n      dup2\n        /* \"#utility.yul\":3578:3602   */\n      tag_44\n      jump\t// in\n    tag_97:\n        /* \"#utility.yul\":3571:3576   */\n      dup2\n        /* \"#utility.yul\":3568:3603   */\n      eq\n        /* \"#utility.yul\":3558:3621   */\n      tag_98\n      jumpi\n        /* \"#utility.yul\":3617:3618   */\n      0x00\n        /* \"#utility.yul\":3614:3615   */\n      dup1\n        /* \"#utility.yul\":3607:3619   */\n      revert\n        /* \"#utility.yul\":3558:3621   */\n    tag_98:\n        /* \"#utility.yul\":3505:3627   */\n      pop\n      jump\t// out\n        /* \"#utility.yul\":3633:3772   */\n    tag_47:\n        /* \"#utility.yul\":3679:3684   */\n      0x00\n        /* \"#utility.yul\":3717:3723   */\n      dup2\n        /* \"#utility.yul\":3704:3724   */\n      calldataload\n        /* \"#utility.yul\":3695:3724   */\n      swap1\n      pop\n        /* \"#utility.yul\":3733:3766   */\n      tag_100\n        /* \"#utility.yul\":3760:3765   */\n      dup2\n        /* \"#utility.yul\":3733:3766   */\n      tag_46\n      jump\t// in\n    tag_100:\n        /* \"#utility.yul\":3633:3772   */\n      swap3\n      swap2\n      pop\n      pop\n      jump\t// out\n        /* \"#utility.yul\":3778:4432   */\n    tag_14:\n        /* \"#utility.yul\":3856:3862   */\n      0x00\n        /* \"#utility.yul\":3864:3870   */\n      dup1\n        /* \"#utility.yul\":3913:3915   */\n      0x40\n        /* \"#utility.yul\":3901:3910   */\n      dup4\n        /* \"#utility.yul\":3892:3899   */\n      dup6\n        /* \"#utility.yul\":3888:3911   */\n      sub\n        /* \"#utility.yul\":3884:3916   */\n      slt\n        /* \"#utility.yul\":3881:4000   */\n      iszero\n      tag_102\n      jumpi\n        /* \"#utility.yul\":3919:3998   */\n      tag_103\n      tag_32\n      jump\t// in\n    tag_103:\n        /* \"#utility.yul\":3881:4000   */\n    tag_102:\n        /* \"#utility.yul\":4067:4068   */\n      0x00\n        /* \"#utility.yul\":4056:4065   */\n      dup4\n        /* \"#utility.yul\":4052:4069   */\n      add\n        /* \"#utility.yul\":4039:4070   */\n      calldataload\n        /* \"#utility.yul\":4097:4115   */\n      0xffffffffffffffff\n        /* \"#utility.yul\":4089:4095   */\n      dup2\n        /* \"#utility.yul\":4086:4116   */\n      gt\n        /* \"#utility.yul\":4083:4200   */\n      iszero\n      tag_104\n      jumpi\n        /* \"#utility.yul\":4119:4198   */\n      tag_105\n      tag_33\n      jump\t// in\n    tag_105:\n        /* \"#utility.yul\":4083:4200   */\n    tag_104:\n        /* \"#utility.yul\":4224:4287   */\n      tag_106\n        /* \"#utility.yul\":4279:4286   */\n      dup6\n        /* \"#utility.yul\":4270:4276   */\n      dup3\n        /* \"#utility.yul\":4259:4268   */\n      dup7\n        /* \"#utility.yul\":4255:4277   */\n      add\n        /* \"#utility.yul\":4224:4287   */\n      tag_43\n      jump\t// in\n    tag_106:\n        /* \"#utility.yul\":4214:4287   */\n      swap3\n      pop\n        /* \"#utility.yul\":4010:4297   */\n      pop\n        /* \"#utility.yul\":4336:4338   */\n      0x20\n        /* \"#utility.yul\":4362:4415   */\n      tag_107\n        /* \"#utility.yul\":4407:4414   */\n      dup6\n        /* \"#utility.yul\":4398:4404   */\n      dup3\n        /* \"#utility.yul\":4387:4396   */\n      dup7\n        /* \"#utility.yul\":4383:4405   */\n      add\n        /* \"#utility.yul\":4362:4415   */\n      tag_47\n      jump\t// in\n    tag_107:\n        /* \"#utility.yul\":4352:4415   */\n      swap2\n      pop\n        /* \"#utility.yul\":4307:4425   */\n      pop\n        /* \"#utility.yul\":3778:4432   */\n      swap3\n      pop\n      swap3\n      swap1\n      pop\n      jump\t// out\n        /* \"#utility.yul\":4438:4537   */\n    tag_48:\n        /* \"#utility.yul\":4490:4496   */\n      0x00\n        /* \"#utility.yul\":4524:4529   */\n      dup2\n        /* \"#utility.yul\":4518:4530   */\n      mload\n        /* \"#utility.yul\":4508:4530   */\n      swap1\n      pop\n        /* \"#utility.yul\":4438:4537   */\n      swap2\n      swap1\n      pop\n      jump\t// out\n        /* \"#utility.yul\":4543:4691   */\n    tag_49:\n        /* \"#utility.yul\":4645:4656   */\n      0x00\n        /* \"#utility.yul\":4682:4685   */\n      dup2\n        /* \"#utility.yul\":4667:4685   */\n      swap1\n      pop\n        /* \"#utility.yul\":4543:4691   */\n      swap3\n      swap2\n      pop\n      pop\n      jump\t// out\n        /* \"#utility.yul\":4697:4836   */\n    tag_50:\n        /* \"#utility.yul\":4786:4792   */\n      dup3\n        /* \"#utility.yul\":4781:4784   */\n      dup2\n        /* \"#utility.yul\":4776:4779   */\n      dup4\n        /* \"#utility.yul\":4770:4793   */\n      mcopy\n        /* \"#utility.yul\":4827:4828   */\n      0x00\n        /* \"#utility.yul\":4818:4824   */\n      dup4\n        /* \"#utility.yul\":4813:4816   */\n      dup4\n        /* \"#utility.yul\":4809:4825   */\n      add\n        /* \"#utility.yul\":4802:4829   */\n      mstore\n        /* \"#utility.yul\":4697:4836   */\n      pop\n      pop\n      pop\n      jump\t// out\n        /* \"#utility.yul\":4842:5232   */\n    tag_51:\n        /* \"#utility.yul\":4948:4951   */\n      0x00\n        /* \"#utility.yul\":4976:5015   */\n      tag_112\n        /* \"#utility.yul\":5009:5014   */\n      dup3\n        /* \"#utility.yul\":4976:5015   */\n      tag_48\n      jump\t// in\n    tag_112:\n        /* \"#utility.yul\":5031:5120   */\n      tag_113\n        /* \"#utility.yul\":5113:5119   */\n      dup2\n        /* \"#utility.yul\":5108:5111   */\n      dup6\n        /* \"#utility.yul\":5031:5120   */\n      tag_49\n      jump\t// in\n    tag_113:\n        /* \"#utility.yul\":5024:5120   */\n      swap4\n      pop\n        /* \"#utility.yul\":5129:5194   */\n      tag_114\n        /* \"#utility.yul\":5187:5193   */\n      dup2\n        /* \"#utility.yul\":5182:5185   */\n      dup6\n        /* \"#utility.yul\":5175:5179   */\n      0x20\n        /* \"#utility.yul\":5168:5173   */\n      dup7\n        /* \"#utility.yul\":5164:5180   */\n      add\n        /* \"#utility.yul\":5129:5194   */\n      tag_50\n      jump\t// in\n    tag_114:\n        /* \"#utility.yul\":5219:5225   */\n      dup1\n        /* \"#utility.yul\":5214:5217   */\n      dup5\n        /* \"#utility.yul\":5210:5226   */\n      add\n        /* \"#utility.yul\":5203:5226   */\n      swap2\n      pop\n        /* \"#utility.yul\":4952:5232   */\n      pop\n        /* \"#utility.yul\":4842:5232   */\n      swap3\n      swap2\n      pop\n      pop\n      jump\t// out\n        /* \"#utility.yul\":5238:5513   */\n    tag_21:\n        /* \"#utility.yul\":5370:5373   */\n      0x00\n        /* \"#utility.yul\":5392:5487   */\n      tag_116\n        /* \"#utility.yul\":5483:5486   */\n      dup3\n        /* \"#utility.yul\":5474:5480   */\n      dup5\n        /* \"#utility.yul\":5392:5487   */\n      tag_51\n      jump\t// in\n    tag_116:\n        /* \"#utility.yul\":5385:5487   */\n      swap2\n      pop\n        /* \"#utility.yul\":5504:5507   */\n      dup2\n        /* \"#utility.yul\":5497:5507   */\n      swap1\n      pop\n        /* \"#utility.yul\":5238:5513   */\n      swap3\n      swap2\n      pop\n      pop\n      jump\t// out\n        /* \"#utility.yul\":5519:5688   */\n    tag_52:\n        /* \"#utility.yul\":5603:5614   */\n      0x00\n        /* \"#utility.yul\":5637:5643   */\n      dup3\n        /* \"#utility.yul\":5632:5635   */\n      dup3\n        /* \"#utility.yul\":5625:5644   */\n      mstore\n        /* \"#utility.yul\":5677:5681   */\n      0x20\n        /* \"#utility.yul\":5672:5675   */\n      dup3\n        /* \"#utility.yul\":5668:5682   */\n      add\n        /* \"#utility.yul\":5653:5682   */\n      swap1\n      pop\n        /* \"#utility.yul\":5519:5688   */\n      swap3\n      swap2\n      pop\n      pop\n      jump\t// out\n        /* \"#utility.yul\":5694:5862   */\n    tag_53:\n        /* \"#utility.yul\":5834:5854   */\n      0x6e6f7420656e6f7567682062616c616e63650000000000000000000000000000\n        /* \"#utility.yul\":5830:5831   */\n      0x00\n        /* \"#utility.yul\":5822:5828   */\n      dup3\n        /* \"#utility.yul\":5818:5832   */\n      add\n        /* \"#utility.yul\":5811:5855   */\n      mstore\n        /* \"#utility.yul\":5694:5862   */\n      pop\n      jump\t// out\n        /* \"#utility.yul\":5868:6234   */\n    tag_54:\n        /* \"#utility.yul\":6010:6013   */\n      0x00\n        /* \"#utility.yul\":6031:6098   */\n      tag_120\n        /* \"#utility.yul\":6095:6097   */\n      0x12\n        /* \"#utility.yul\":6090:6093   */\n      dup4\n        /* \"#utility.yul\":6031:6098   */\n      tag_52\n      jump\t// in\n    tag_120:\n        /* \"#utility.yul\":6024:6098   */\n      swap2\n      pop\n        /* \"#utility.yul\":6107:6200   */\n      tag_121\n        /* \"#utility.yul\":6196:6199   */\n      dup3\n        /* \"#utility.yul\":6107:6200   */\n      tag_53\n      jump\t// in\n    tag_121:\n        /* \"#utility.yul\":6225:6227   */\n      0x20\n        /* \"#utility.yul\":6220:6223   */\n      dup3\n        /* \"#utility.yul\":6216:6228   */\n      add\n        /* \"#utility.yul\":6209:6228   */\n      swap1\n      pop\n        /* \"#utility.yul\":5868:6234   */\n      swap2\n      swap1\n      pop\n      jump\t// out\n        /* \"#utility.yul\":6240:6659   */\n    tag_26:\n        /* \"#utility.yul\":6406:6410   */\n      0x00\n        /* \"#utility.yul\":6444:6446   */\n      0x20\n        /* \"#utility.yul\":6433:6442   */\n      dup3\n        /* \"#utility.yul\":6429:6447   */\n      add\n        /* \"#utility.yul\":6421:6447   */\n      swap1\n      pop\n        /* \"#utility.yul\":6493:6502   */\n      dup2\n        /* \"#utility.yul\":6487:6491   */\n      dup2\n        /* \"#utility.yul\":6483:6503   */\n      sub\n        /* \"#utility.yul\":6479:6480   */\n      0x00\n        /* \"#utility.yul\":6468:6477   */\n      dup4\n        /* \"#utility.yul\":6464:6481   */\n      add\n        /* \"#utility.yul\":6457:6504   */\n      mstore\n        /* \"#utility.yul\":6521:6652   */\n      tag_123\n        /* \"#utility.yul\":6647:6651   */\n      dup2\n        /* \"#utility.yul\":6521:6652   */\n      tag_54\n      jump\t// in\n    tag_123:\n        /* \"#utility.yul\":6513:6652   */\n      swap1\n      pop\n        /* \"#utility.yul\":6240:6659   */\n      swap2\n      swap1\n      pop\n      jump\t// out\n\n    auxdata: 0xa26469706673582212206b7e3b612595d7410623291797e5f225a225571f9714ec34c82573e7c171d0c164736f6c63430008190033\n}\n",
				"bytecode": {
					"linkReferences": {},
					"object": "6080604052348015600e575f80fd5b506105ad8061001c5f395ff3fe608060405260043610610033575f3560e01c80633a51d2461461003757806370e7640614610073578063a26e11861461008f575b5f80fd5b348015610042575f80fd5b5061005d6004803603810190610058919061039b565b6100ab565b60405161006a91906103fa565b60405180910390f35b61008d6004803603810190610088919061043d565b61010c565b005b6100a960048036038101906100a4919061039b565b6101ee565b005b5f805f3373ffffffffffffffffffffffffffffffffffffffff1673ffffffffffffffffffffffffffffffffffffffff1681526020019081526020015f20826040516100f691906104e9565b9081526020016040518091039020549050919050565b805f803373ffffffffffffffffffffffffffffffffffffffff1673ffffffffffffffffffffffffffffffffffffffff1681526020019081526020015f208360405161015791906104e9565b908152602001604051809103902054116101a6576040517f08c379a000000000000000000000000000000000000000000000000000000000815260040161019d90610559565b60405180910390fd5b3373ffffffffffffffffffffffffffffffffffffffff166108fc8290811502906040515f60405180830381858888f193505050501580156101e9573d5f803e3d5ffd5b505050565b345f803373ffffffffffffffffffffffffffffffffffffffff1673ffffffffffffffffffffffffffffffffffffffff1681526020019081526020015f208260405161023991906104e9565b90815260200160405180910390208190555050565b5f604051905090565b5f80fd5b5f80fd5b5f80fd5b5f80fd5b5f601f19601f8301169050919050565b7f4e487b71000000000000000000000000000000000000000000000000000000005f52604160045260245ffd5b6102ad82610267565b810181811067ffffffffffffffff821117156102cc576102cb610277565b5b80604052505050565b5f6102de61024e565b90506102ea82826102a4565b919050565b5f67ffffffffffffffff82111561030957610308610277565b5b61031282610267565b9050602081019050919050565b828183375f83830152505050565b5f61033f61033a846102ef565b6102d5565b90508281526020810184848401111561035b5761035a610263565b5b61036684828561031f565b509392505050565b5f82601f8301126103825761038161025f565b5b813561039284826020860161032d565b91505092915050565b5f602082840312156103b0576103af610257565b5b5f82013567ffffffffffffffff8111156103cd576103cc61025b565b5b6103d98482850161036e565b91505092915050565b5f819050919050565b6103f4816103e2565b82525050565b5f60208201905061040d5f8301846103eb565b92915050565b61041c816103e2565b8114610426575f80fd5b50565b5f8135905061043781610413565b92915050565b5f806040838503121561045357610452610257565b5b5f83013567ffffffffffffffff8111156104705761046f61025b565b5b61047c8582860161036e565b925050602061048d85828601610429565b9150509250929050565b5f81519050919050565b5f81905092915050565b8281835e5f83830152505050565b5f6104c382610497565b6104cd81856104a1565b93506104dd8185602086016104ab565b80840191505092915050565b5f6104f482846104b9565b915081905092915050565b5f82825260208201905092915050565b7f6e6f7420656e6f7567682062616c616e636500000000000000000000000000005f82015250565b5f6105436012836104ff565b915061054e8261050f565b602082019050919050565b5f6020820190508181035f83015261057081610537565b905091905056fea26469706673582212206b7e3b612595d7410623291797e5f225a225571f9714ec34c82573e7c171d0c164736f6c63430008190033",
					"opcodes": "PUSH1 0x80 PUSH1 0x40 MSTORE CALLVALUE DUP1 ISZERO PUSH1 0xE JUMPI PUSH0 DUP1 REVERT JUMPDEST POP PUSH2 0x5AD DUP1 PUSH2 0x1C PUSH0 CODECOPY PUSH0 RETURN INVALID PUSH1 0x80 PUSH1 0x40 MSTORE PUSH1 0x4 CALLDATASIZE LT PUSH2 0x33 JUMPI PUSH0 CALLDATALOAD PUSH1 0xE0 SHR DUP1 PUSH4 0x3A51D246 EQ PUSH2 0x37 JUMPI DUP1 PUSH4 0x70E76406 EQ PUSH2 0x73 JUMPI DUP1 PUSH4 0xA26E1186 EQ PUSH2 0x8F JUMPI JUMPDEST PUSH0 DUP1 REVERT JUMPDEST CALLVALUE DUP1 ISZERO PUSH2 0x42 JUMPI PUSH0 DUP1 REVERT JUMPDEST POP PUSH2 0x5D PUSH1 0x4 DUP1 CALLDATASIZE SUB DUP2 ADD SWAP1 PUSH2 0x58 SWAP2 SWAP1 PUSH2 0x39B JUMP JUMPDEST PUSH2 0xAB JUMP JUMPDEST PUSH1 0x40 MLOAD PUSH2 0x6A SWAP2 SWAP1 PUSH2 0x3FA JUMP JUMPDEST PUSH1 0x40 MLOAD DUP1 SWAP2 SUB SWAP1 RETURN JUMPDEST PUSH2 0x8D PUSH1 0x4 DUP1 CALLDATASIZE SUB DUP2 ADD SWAP1 PUSH2 0x88 SWAP2 SWAP1 PUSH2 0x43D JUMP JUMPDEST PUSH2 0x10C JUMP JUMPDEST STOP JUMPDEST PUSH2 0xA9 PUSH1 0x4 DUP1 CALLDATASIZE SUB DUP2 ADD SWAP1 PUSH2 0xA4 SWAP2 SWAP1 PUSH2 0x39B JUMP JUMPDEST PUSH2 0x1EE JUMP JUMPDEST STOP JUMPDEST PUSH0 DUP1 PUSH0 CALLER PUSH20 0xFFFFFFFFFFFFFFFFFFFFFFFFFFFFFFFFFFFFFFFF AND PUSH20 0xFFFFFFFFFFFFFFFFFFFFFFFFFFFFFFFFFFFFFFFF AND DUP2 MSTORE PUSH1 0x20 ADD SWAP1 DUP2 MSTORE PUSH1 0x20 ADD PUSH0 KECCAK256 DUP3 PUSH1 0x40 MLOAD PUSH2 0xF6 SWAP2 SWAP1 PUSH2 0x4E9 JUMP JUMPDEST SWAP1 DUP2 MSTORE PUSH1 0x20 ADD PUSH1 0x40 MLOAD DUP1 SWAP2 SUB SWAP1 KECCAK256 SLOAD SWAP1 POP SWAP2 SWAP1 POP JUMP JUMPDEST DUP1 PUSH0 DUP1 CALLER PUSH20 0xFFFFFFFFFFFFFFFFFFFFFFFFFFFFFFFFFFFFFFFF AND PUSH20 0xFFFFFFFFFFFFFFFFFFFFFFFFFFFFFFFFFFFFFFFF AND DUP2 MSTORE PUSH1 0x20 ADD SWAP1 DUP2 MSTORE PUSH1 0x20 ADD PUSH0 KECCAK256 DUP4 PUSH1 0x40 MLOAD PUSH2 0x157 SWAP2 SWAP1 PUSH2 0x4E9 JUMP JUMPDEST SWAP1 DUP2 MSTORE PUSH1 0x20 ADD PUSH1 0x40 MLOAD DUP1 SWAP2 SUB SWAP1 KECCAK256 SLOAD GT PUSH2 0x1A6 JUMPI PUSH1 0x40 MLOAD PUSH32 0x8C379A000000000000000000000000000000000000000000000000000000000 DUP2 MSTORE PUSH1 0x4 ADD PUSH2 0x19D SWAP1 PUSH2 0x559 JUMP JUMPDEST PUSH1 0x40 MLOAD DUP1 SWAP2 SUB SWAP1 REVERT JUMPDEST CALLER PUSH20 0xFFFFFFFFFFFFFFFFFFFFFFFFFFFFFFFFFFFFFFFF AND PUSH2 0x8FC DUP3 SWAP1 DUP2 ISZERO MUL SWAP1 PUSH1 0x40 MLOAD PUSH0 PUSH1 0x40 MLOAD DUP1 DUP4 SUB DUP2 DUP6 DUP9 DUP9 CALL SWAP4 POP POP POP POP ISZERO DUP1 ISZERO PUSH2 0x1E9 JUMPI RETURNDATASIZE PUSH0 DUP1 RETURNDATACOPY RETURNDATASIZE PUSH0 REVERT JUMPDEST POP POP POP JUMP JUMPDEST CALLVALUE PUSH0 DUP1 CALLER PUSH20 0xFFFFFFFFFFFFFFFFFFFFFFFFFFFFFFFFFFFFFFFF AND PUSH20 0xFFFFFFFFFFFFFFFFFFFFFFFFFFFFFFFFFFFFFFFF AND DUP2 MSTORE PUSH1 0x20 ADD SWAP1 DUP2 MSTORE PUSH1 0x20 ADD PUSH0 KECCAK256 DUP3 PUSH1 0x40 MLOAD PUSH2 0x239 SWAP2 SWAP1 PUSH2 0x4E9 JUMP JUMPDEST SWAP1 DUP2 MSTORE PUSH1 0x20 ADD PUSH1 0x40 MLOAD DUP1 SWAP2 SUB SWAP1 KECCAK256 DUP2 SWAP1 SSTORE POP POP JUMP JUMPDEST PUSH0 PUSH1 0x40 MLOAD SWAP1 POP SWAP1 JUMP JUMPDEST PUSH0 DUP1 REVERT JUMPDEST PUSH0 DUP1 REVERT JUMPDEST PUSH0 DUP1 REVERT JUMPDEST PUSH0 DUP1 REVERT JUMPDEST PUSH0 PUSH1 0x1F NOT PUSH1 0x1F DUP4 ADD AND SWAP1 POP SWAP2 SWAP1 POP JUMP JUMPDEST PUSH32 0x4E487B7100000000000000000000000000000000000000000000000000000000 PUSH0 MSTORE PUSH1 0x41 PUSH1 0x4 MSTORE PUSH1 0x24 PUSH0 REVERT JUMPDEST PUSH2 0x2AD DUP3 PUSH2 0x267 JUMP JUMPDEST DUP2 ADD DUP2 DUP2 LT PUSH8 0xFFFFFFFFFFFFFFFF DUP3 GT OR ISZERO PUSH2 0x2CC JUMPI PUSH2 0x2CB PUSH2 0x277 JUMP JUMPDEST JUMPDEST DUP1 PUSH1 0x40 MSTORE POP POP POP JUMP JUMPDEST PUSH0 PUSH2 0x2DE PUSH2 0x24E JUMP JUMPDEST SWAP1 POP PUSH2 0x2EA DUP3 DUP3 PUSH2 0x2A4 JUMP JUMPDEST SWAP2 SWAP1 POP JUMP JUMPDEST PUSH0 PUSH8 0xFFFFFFFFFFFFFFFF DUP3 GT ISZERO PUSH2 0x309 JUMPI PUSH2 0x308 PUSH2 0x277 JUMP JUMPDEST JUMPDEST PUSH2 0x312 DUP3 PUSH2 0x267 JUMP JUMPDEST SWAP1 POP PUSH1 0x20 DUP2 ADD SWAP1 POP SWAP2 SWAP1 POP JUMP JUMPDEST DUP3 DUP2 DUP4 CALLDATACOPY PUSH0 DUP4 DUP4 ADD MSTORE POP POP POP JUMP JUMPDEST PUSH0 PUSH2 0x33F PUSH2 0x33A DUP5 PUSH2 0x2EF JUMP JUMPDEST PUSH2 0x2D5 JUMP JUMPDEST SWAP1 POP DUP3 DUP2 MSTORE PUSH1 0x20 DUP2 ADD DUP5 DUP5 DUP5 ADD GT ISZERO PUSH2 0x35B JUMPI PUSH2 0x35A PUSH2 0x263 JUMP JUMPDEST JUMPDEST PUSH2 0x366 DUP5 DUP3 DUP6 PUSH2 0x31F JUMP JUMPDEST POP SWAP4 SWAP3 POP POP POP JUMP JUMPDEST PUSH0 DUP3 PUSH1 0x1F DUP4 ADD SLT PUSH2 0x382 JUMPI PUSH2 0x381 PUSH2 0x25F JUMP JUMPDEST JUMPDEST DUP2 CALLDATALOAD PUSH2 0x392 DUP5 DUP3 PUSH1 0x20 DUP7 ADD PUSH2 0x32D JUMP JUMPDEST SWAP2 POP POP SWAP3 SWAP2 POP POP JUMP JUMPDEST PUSH0 PUSH1 0x20 DUP3 DUP5 SUB SLT ISZERO PUSH2 0x3B0 JUMPI PUSH2 0x3AF PUSH2 0x257 JUMP JUMPDEST JUMPDEST PUSH0 DUP3 ADD CALLDATALOAD PUSH8 0xFFFFFFFFFFFFFFFF DUP2 GT ISZERO PUSH2 0x3CD JUMPI PUSH2 0x3CC PUSH2 0x25B JUMP JUMPDEST JUMPDEST PUSH2 0x3D9 DUP5 DUP3 DUP6 ADD PUSH2 0x36E JUMP JUMPDEST SWAP2 POP POP SWAP3 SWAP2 POP POP JUMP JUMPDEST PUSH0 DUP2 SWAP1 POP SWAP2 SWAP1 POP JUMP JUMPDEST PUSH2 0x3F4 DUP2 PUSH2 0x3E2 JUMP JUMPDEST DUP3 MSTORE POP POP JUMP JUMPDEST PUSH0 PUSH1 0x20 DUP3 ADD SWAP1 POP PUSH2 0x40D PUSH0 DUP4 ADD DUP5 PUSH2 0x3EB JUMP JUMPDEST SWAP3 SWAP2 POP POP JUMP JUMPDEST PUSH2 0x41C DUP2 PUSH2 0x3E2 JUMP JUMPDEST DUP2 EQ PUSH2 0x426 JUMPI PUSH0 DUP1 REVERT JUMPDEST POP JUMP JUMPDEST PUSH0 DUP2 CALLDATALOAD SWAP1 POP PUSH2 0x437 DUP2 PUSH2 0x413 JUMP JUMPDEST SWAP3 SWAP2 POP POP JUMP JUMPDEST PUSH0 DUP1 PUSH1 0x40 DUP4 DUP6 SUB SLT ISZERO PUSH2 0x453 JUMPI PUSH2 0x452 PUSH2 0x257 JUMP JUMPDEST JUMPDEST PUSH0 DUP4 ADD CALLDATALOAD PUSH8 0xFFFFFFFFFFFFFFFF DUP2 GT ISZERO PUSH2 0x470 JUMPI PUSH2 0x46F PUSH2 0x25B JUMP JUMPDEST JUMPDEST PUSH2 0x47C DUP6 DUP3 DUP7 ADD PUSH2 0x36E JUMP JUMPDEST SWAP3 POP POP PUSH1 0x20 PUSH2 0x48D DUP6 DUP3 DUP7 ADD PUSH2 0x429 JUMP JUMPDEST SWAP2 POP POP SWAP3 POP SWAP3 SWAP1 POP JUMP JUMPDEST PUSH0 DUP2 MLOAD SWAP1 POP SWAP2 SWAP1 POP JUMP JUMPDEST PUSH0 DUP2 SWAP1 POP SWAP3 SWAP2 POP POP JUMP JUMPDEST DUP3 DUP2 DUP4 MCOPY PUSH0 DUP4 DUP4 ADD MSTORE POP POP POP JUMP JUMPDEST PUSH0 PUSH2 0x4C3 DUP3 PUSH2 0x497 JUMP JUMPDEST PUSH2 0x4CD DUP2 DUP6 PUSH2 0x4A1 JUMP JUMPDEST SWAP4 POP PUSH2 0x4DD DUP2 DUP6 PUSH1 0x20 DUP7 ADD PUSH2 0x4AB JUMP JUMPDEST DUP1 DUP5 ADD SWAP2 POP POP SWAP3 SWAP2 POP POP JUMP JUMPDEST PUSH0 PUSH2 0x4F4 DUP3 DUP5 PUSH2 0x4B9 JUMP JUMPDEST SWAP2 POP DUP2 SWAP1 POP SWAP3 SWAP2 POP POP JUMP JUMPDEST PUSH0 DUP3 DUP3 MSTORE PUSH1 0x20 DUP3 ADD SWAP1 POP SWAP3 SWAP2 POP POP JUMP JUMPDEST PUSH32 0x6E6F7420656E6F7567682062616C616E63650000000000000000000000000000 PUSH0 DUP3 ADD MSTORE POP JUMP JUMPDEST PUSH0 PUSH2 0x543 PUSH1 0x12 DUP4 PUSH2 0x4FF JUMP JUMPDEST SWAP2 POP PUSH2 0x54E DUP3 PUSH2 0x50F JUMP JUMPDEST PUSH1 0x20 DUP3 ADD SWAP1 POP SWAP2 SWAP1 POP JUMP JUMPDEST PUSH0 PUSH1 0x20 DUP3 ADD SWAP1 POP DUP2 DUP2 SUB PUSH0 DUP4 ADD MSTORE PUSH2 0x570 DUP2 PUSH2 0x537 JUMP JUMPDEST SWAP1 POP SWAP2 SWAP1 POP JUMP INVALID LOG2 PUSH5 0x6970667358 0x22 SLT KECCAK256 PUSH12 0x7E3B612595D7410623291797 0xE5 CALLCODE 0x25 LOG2 0x25 JUMPI 0x1F SWAP8 EQ 0xEC CALLVALUE 0xC8 0x25 PUSH20 0xE7C171D0C164736F6C6343000819003300000000 "
				},
				"gasEstimates": {
					"creation": {
						"codeDepositCost": "290600",
						"executionCost": "329",
						"totalCost": "290929"
					},
					"external": {
						"deposit(string)": "infinite",
						"getBalance(string)": "infinite",
						"withDraw(string,uint256)": "infinite"
					}
				},
				"methodIdentifiers": {
					"deposit(string)": "a26e1186",
					"getBalance(string)": "3a51d246",
					"withDraw(string,uint256)": "70e76406"
				}
			},
			"storageLayout": {
				"storage": [
					{
						"astId": 126,
						"contract": "solidity_100/51-60.sol:Q53",
						"label": "bankBalance",
						"offset": 0,
						"slot": "0",
						"type": "t_mapping(t_address,t_mapping(t_string_memory_ptr,t_uint256))"
					}
				],
				"types": {
					"t_address": {
						"encoding": "inplace",
						"label": "address",
						"numberOfBytes": "20"
					},
					"t_mapping(t_address,t_mapping(t_string_memory_ptr,t_uint256))": {
						"encoding": "mapping",
						"key": "t_address",
						"label": "mapping(address => mapping(string => uint256))",
						"numberOfBytes": "32",
						"value": "t_mapping(t_string_memory_ptr,t_uint256)"
					},
					"t_mapping(t_string_memory_ptr,t_uint256)": {
						"encoding": "mapping",
						"key": "t_string_memory_ptr",
						"label": "mapping(string => uint256)",
						"numberOfBytes": "32",
						"value": "t_uint256"
					},
					"t_string_memory_ptr": {
						"encoding": "bytes",
						"label": "string",
						"numberOfBytes": "32"
					},
					"t_uint256": {
						"encoding": "inplace",
						"label": "uint256",
						"numberOfBytes": "32"
					}
				}
			},
			"userdoc": {
				"kind": "user",
				"methods": {},
				"version": 1
			}
		}
	}
}