{
	"solidity_test/test6.sol": {
		"TEST6": {
			"abi": [
				{
					"inputs": [
						{
							"internalType": "uint256",
							"name": "_n",
							"type": "uint256"
						}
					],
					"name": "digits",
					"outputs": [
						{
							"internalType": "uint256",
							"name": "",
							"type": "uint256"
						},
						{
							"internalType": "uint256[]",
							"name": "",
							"type": "uint256[]"
						}
					],
					"stateMutability": "pure",
					"type": "function"
				},
				{
					"inputs": [
						{
							"internalType": "string",
							"name": "_s",
							"type": "string"
						}
					],
					"name": "length",
					"outputs": [
						{
							"internalType": "uint256",
							"name": "",
							"type": "uint256"
						},
						{
							"internalType": "string[]",
							"name": "",
							"type": "string[]"
						}
					],
					"stateMutability": "pure",
					"type": "function"
				}
			],
			"devdoc": {
				"kind": "dev",
				"methods": {},
				"version": 1
			},
			"evm": {
				"assembly": "    /* \"solidity_test/test6.sol\":67:1589  contract TEST6 {... */\n  mstore(0x40, 0x80)\n  callvalue\n  dup1\n  iszero\n  tag_1\n  jumpi\n  0x00\n  dup1\n  revert\ntag_1:\n  pop\n  dataSize(sub_0)\n  dup1\n  dataOffset(sub_0)\n  0x00\n  codecopy\n  0x00\n  return\nstop\n\nsub_0: assembly {\n        /* \"solidity_test/test6.sol\":67:1589  contract TEST6 {... */\n      mstore(0x40, 0x80)\n      callvalue\n      dup1\n      iszero\n      tag_1\n      jumpi\n      0x00\n      dup1\n      revert\n    tag_1:\n      pop\n      jumpi(tag_2, lt(calldatasize, 0x04))\n      shr(0xe0, calldataload(0x00))\n      dup1\n      0x436a66e7\n      eq\n      tag_3\n      jumpi\n      dup1\n      0x7b23c90d\n      eq\n      tag_4\n      jumpi\n    tag_2:\n      0x00\n      dup1\n      revert\n        /* \"solidity_test/test6.sol\":1085:1584  function length(string memory _s) public pure returns(uint, string[] memory) {... */\n    tag_3:\n      tag_5\n      0x04\n      dup1\n      calldatasize\n      sub\n      dup2\n      add\n      swap1\n      tag_6\n      swap2\n      swap1\n      tag_7\n      jump\t// in\n    tag_6:\n      tag_8\n      jump\t// in\n    tag_5:\n      mload(0x40)\n      tag_9\n      swap3\n      swap2\n      swap1\n      tag_10\n      jump\t// in\n    tag_9:\n      mload(0x40)\n      dup1\n      swap2\n      sub\n      swap1\n      return\n        /* \"solidity_test/test6.sol\":582:1077  function digits(uint _n) public pure returns(uint, uint[] memory) {... */\n    tag_4:\n      tag_11\n      0x04\n      dup1\n      calldatasize\n      sub\n      dup2\n      add\n      swap1\n      tag_12\n      swap2\n      swap1\n      tag_13\n      jump\t// in\n    tag_12:\n      tag_14\n      jump\t// in\n    tag_11:\n      mload(0x40)\n      tag_15\n      swap3\n      swap2\n      swap1\n      tag_16\n      jump\t// in\n    tag_15:\n      mload(0x40)\n      dup1\n      swap2\n      sub\n      swap1\n      return\n        /* \"solidity_test/test6.sol\":1085:1584  function length(string memory _s) public pure returns(uint, string[] memory) {... */\n    tag_8:\n        /* \"solidity_test/test6.sol\":1139:1143  uint */\n      0x00\n        /* \"solidity_test/test6.sol\":1145:1160  string[] memory */\n      0x60\n        /* \"solidity_test/test6.sol\":1173:1185  uint _length */\n      0x00\n        /* \"solidity_test/test6.sol\":1194:1196  _s */\n      dup4\n        /* \"solidity_test/test6.sol\":1188:1204  bytes(_s).length */\n      mload\n        /* \"solidity_test/test6.sol\":1173:1204  uint _length = bytes(_s).length */\n      swap1\n      pop\n        /* \"solidity_test/test6.sol\":1215:1239  string[] memory _letters */\n      0x00\n        /* \"solidity_test/test6.sol\":1255:1262  _length */\n      dup2\n        /* \"solidity_test/test6.sol\":1242:1263  new string[](_length) */\n      0xffffffffffffffff\n      dup2\n      gt\n      iszero\n      tag_18\n      jumpi\n      tag_19\n      tag_20\n      jump\t// in\n    tag_19:\n    tag_18:\n      mload(0x40)\n      swap1\n      dup1\n      dup3\n      mstore\n      dup1\n      0x20\n      mul\n      0x20\n      add\n      dup3\n      add\n      0x40\n      mstore\n      dup1\n      iszero\n      tag_21\n      jumpi\n      dup2\n      0x20\n      add\n    tag_22:\n      0x60\n      dup2\n      mstore\n      0x20\n      add\n      swap1\n      0x01\n      swap1\n      sub\n      swap1\n      dup2\n      tag_22\n      jumpi\n      swap1\n      pop\n    tag_21:\n      pop\n        /* \"solidity_test/test6.sol\":1215:1263  string[] memory _letters = new string[](_length) */\n      swap1\n      pop\n        /* \"solidity_test/test6.sol\":1276:1294  bytes1[] memory _b */\n      0x00\n        /* \"solidity_test/test6.sol\":1310:1317  _length */\n      dup3\n        /* \"solidity_test/test6.sol\":1297:1318  new bytes1[](_length) */\n      0xffffffffffffffff\n      dup2\n      gt\n      iszero\n      tag_23\n      jumpi\n      tag_24\n      tag_20\n      jump\t// in\n    tag_24:\n    tag_23:\n      mload(0x40)\n      swap1\n      dup1\n      dup3\n      mstore\n      dup1\n      0x20\n      mul\n      0x20\n      add\n      dup3\n      add\n      0x40\n      mstore\n      dup1\n      iszero\n      tag_25\n      jumpi\n      dup2\n      0x20\n      add\n      0x20\n      dup3\n      mul\n      dup1\n      calldatasize\n      dup4\n      calldatacopy\n      dup1\n      dup3\n      add\n      swap2\n      pop\n      pop\n      swap1\n      pop\n    tag_25:\n      pop\n        /* \"solidity_test/test6.sol\":1276:1318  bytes1[] memory _b = new bytes1[](_length) */\n      swap1\n      pop\n        /* \"solidity_test/test6.sol\":1335:1341  uint i */\n      0x00\n        /* \"solidity_test/test6.sol\":1331:1538  for(uint i=0; i<_length; i++) {... */\n    tag_26:\n        /* \"solidity_test/test6.sol\":1347:1354  _length */\n      dup4\n        /* \"solidity_test/test6.sol\":1345:1346  i */\n      dup2\n        /* \"solidity_test/test6.sol\":1345:1354  i<_length */\n      lt\n        /* \"solidity_test/test6.sol\":1331:1538  for(uint i=0; i<_length; i++) {... */\n      iszero\n      tag_27\n      jumpi\n        /* \"solidity_test/test6.sol\":1390:1392  _s */\n      dup7\n        /* \"solidity_test/test6.sol\":1394:1395  i */\n      dup2\n        /* \"solidity_test/test6.sol\":1384:1396  bytes(_s)[i] */\n      dup2\n      mload\n      dup2\n      lt\n      tag_29\n      jumpi\n      tag_30\n      tag_31\n      jump\t// in\n    tag_30:\n    tag_29:\n      0x20\n      add\n      add\n      mload\n      0xf8\n      shr\n      0xf8\n      shl\n        /* \"solidity_test/test6.sol\":1376:1378  _b */\n      dup3\n        /* \"solidity_test/test6.sol\":1379:1380  i */\n      dup3\n        /* \"solidity_test/test6.sol\":1376:1381  _b[i] */\n      dup2\n      mload\n      dup2\n      lt\n      tag_32\n      jumpi\n      tag_33\n      tag_31\n      jump\t// in\n    tag_33:\n    tag_32:\n      0x20\n      mul\n      0x20\n      add\n      add\n        /* \"solidity_test/test6.sol\":1376:1396  _b[i] = bytes(_s)[i] */\n      swap1\n      not(0xffffffffffffffffffffffffffffffffffffffffffffffffffffffffffffff)\n      and\n      swap1\n      dup2\n      not(0xffffffffffffffffffffffffffffffffffffffffffffffffffffffffffffff)\n      and\n      dup2\n      mstore\n      pop\n      pop\n        /* \"solidity_test/test6.sol\":1449:1451  _b */\n      dup2\n        /* \"solidity_test/test6.sol\":1452:1453  i */\n      dup2\n        /* \"solidity_test/test6.sol\":1449:1454  _b[i] */\n      dup2\n      mload\n      dup2\n      lt\n      tag_34\n      jumpi\n      tag_35\n      tag_31\n      jump\t// in\n    tag_35:\n    tag_34:\n      0x20\n      mul\n      0x20\n      add\n      add\n      mload\n        /* \"solidity_test/test6.sol\":1432:1455  abi.encodePacked(_b[i]) */\n      add(0x20, mload(0x40))\n      tag_36\n      swap2\n      swap1\n      tag_37\n      jump\t// in\n    tag_36:\n      mload(0x40)\n      0x20\n      dup2\n      dup4\n      sub\n      sub\n      dup2\n      mstore\n      swap1\n      0x40\n      mstore\n        /* \"solidity_test/test6.sol\":1411:1419  _letters */\n      dup4\n        /* \"solidity_test/test6.sol\":1420:1421  i */\n      dup3\n        /* \"solidity_test/test6.sol\":1411:1422  _letters[i] */\n      dup2\n      mload\n      dup2\n      lt\n      tag_38\n      jumpi\n      tag_39\n      tag_31\n      jump\t// in\n    tag_39:\n    tag_38:\n      0x20\n      mul\n      0x20\n      add\n      add\n        /* \"solidity_test/test6.sol\":1411:1456  _letters[i] = string(abi.encodePacked(_b[i])) */\n      dup2\n      swap1\n      mstore\n      pop\n        /* \"solidity_test/test6.sol\":1356:1359  i++ */\n      dup1\n      dup1\n      0x01\n      add\n      swap2\n      pop\n      pop\n        /* \"solidity_test/test6.sol\":1331:1538  for(uint i=0; i<_length; i++) {... */\n      jump(tag_26)\n    tag_27:\n      pop\n        /* \"solidity_test/test6.sol\":1558:1565  _length */\n      dup3\n        /* \"solidity_test/test6.sol\":1567:1575  _letters */\n      dup3\n        /* \"solidity_test/test6.sol\":1550:1576  return (_length, _letters) */\n      swap5\n      pop\n      swap5\n      pop\n      pop\n      pop\n      pop\n        /* \"solidity_test/test6.sol\":1085:1584  function length(string memory _s) public pure returns(uint, string[] memory) {... */\n      swap2\n      pop\n      swap2\n      jump\t// out\n        /* \"solidity_test/test6.sol\":582:1077  function digits(uint _n) public pure returns(uint, uint[] memory) {... */\n    tag_14:\n        /* \"solidity_test/test6.sol\":627:631  uint */\n      0x00\n        /* \"solidity_test/test6.sol\":633:646  uint[] memory */\n      0x60\n        /* \"solidity_test/test6.sol\":659:670  uint length */\n      0x00\n        /* \"solidity_test/test6.sol\":685:696  uint temp_n */\n      dup1\n        /* \"solidity_test/test6.sol\":699:701  _n */\n      dup5\n        /* \"solidity_test/test6.sol\":685:701  uint temp_n = _n */\n      swap1\n      pop\n        /* \"solidity_test/test6.sol\":714:795  while(temp_n != 0) {... */\n    tag_41:\n        /* \"solidity_test/test6.sol\":730:731  0 */\n      0x00\n        /* \"solidity_test/test6.sol\":720:726  temp_n */\n      dup2\n        /* \"solidity_test/test6.sol\":720:731  temp_n != 0 */\n      eq\n        /* \"solidity_test/test6.sol\":714:795  while(temp_n != 0) {... */\n      tag_42\n      jumpi\n        /* \"solidity_test/test6.sol\":748:757  length ++ */\n      dup2\n      dup1\n      tag_43\n      swap1\n      tag_44\n      jump\t// in\n    tag_43:\n      swap3\n      pop\n      pop\n        /* \"solidity_test/test6.sol\":781:783  10 */\n      0x0a\n        /* \"solidity_test/test6.sol\":772:783  temp_n /=10 */\n      dup2\n      tag_45\n      swap2\n      swap1\n      tag_46\n      jump\t// in\n    tag_45:\n      swap1\n      pop\n        /* \"solidity_test/test6.sol\":714:795  while(temp_n != 0) {... */\n      jump(tag_41)\n    tag_42:\n        /* \"solidity_test/test6.sol\":807:820  uint r_length */\n      0x00\n        /* \"solidity_test/test6.sol\":823:829  length */\n      dup3\n        /* \"solidity_test/test6.sol\":807:829  uint r_length = length */\n      swap1\n      pop\n        /* \"solidity_test/test6.sol\":842:863  uint[] memory numbers */\n      0x00\n        /* \"solidity_test/test6.sol\":877:883  length */\n      dup4\n        /* \"solidity_test/test6.sol\":866:884  new uint[](length) */\n      0xffffffffffffffff\n      dup2\n      gt\n      iszero\n      tag_47\n      jumpi\n      tag_48\n      tag_20\n      jump\t// in\n    tag_48:\n    tag_47:\n      mload(0x40)\n      swap1\n      dup1\n      dup3\n      mstore\n      dup1\n      0x20\n      mul\n      0x20\n      add\n      dup3\n      add\n      0x40\n      mstore\n      dup1\n      iszero\n      tag_49\n      jumpi\n      dup2\n      0x20\n      add\n      0x20\n      dup3\n      mul\n      dup1\n      calldatasize\n      dup4\n      calldatacopy\n      dup1\n      dup3\n      add\n      swap2\n      pop\n      pop\n      swap1\n      pop\n    tag_49:\n      pop\n        /* \"solidity_test/test6.sol\":842:884  uint[] memory numbers = new uint[](length) */\n      swap1\n      pop\n        /* \"solidity_test/test6.sol\":895:1031  while(_n != 0) {... */\n    tag_50:\n        /* \"solidity_test/test6.sol\":907:908  0 */\n      0x00\n        /* \"solidity_test/test6.sol\":901:903  _n */\n      dup8\n        /* \"solidity_test/test6.sol\":901:908  _n != 0 */\n      eq\n        /* \"solidity_test/test6.sol\":895:1031  while(_n != 0) {... */\n      tag_51\n      jumpi\n        /* \"solidity_test/test6.sol\":950:952  10 */\n      0x0a\n        /* \"solidity_test/test6.sol\":945:947  _n */\n      dup8\n        /* \"solidity_test/test6.sol\":945:952  _n % 10 */\n      tag_52\n      swap2\n      swap1\n      tag_53\n      jump\t// in\n    tag_52:\n        /* \"solidity_test/test6.sol\":925:932  numbers */\n      dup2\n        /* \"solidity_test/test6.sol\":933:941  --length */\n      dup6\n      tag_54\n      swap1\n      tag_55\n      jump\t// in\n    tag_54:\n      swap6\n      pop\n      dup6\n        /* \"solidity_test/test6.sol\":925:942  numbers[--length] */\n      dup2\n      mload\n      dup2\n      lt\n      tag_56\n      jumpi\n      tag_57\n      tag_31\n      jump\t// in\n    tag_57:\n    tag_56:\n      0x20\n      mul\n      0x20\n      add\n      add\n        /* \"solidity_test/test6.sol\":925:952  numbers[--length] = _n % 10 */\n      dup2\n      dup2\n      mstore\n      pop\n      pop\n        /* \"solidity_test/test6.sol\":1017:1019  10 */\n      0x0a\n        /* \"solidity_test/test6.sol\":1012:1019  _n /=10 */\n      dup8\n      tag_58\n      swap2\n      swap1\n      tag_46\n      jump\t// in\n    tag_58:\n      swap7\n      pop\n        /* \"solidity_test/test6.sol\":895:1031  while(_n != 0) {... */\n      jump(tag_50)\n    tag_51:\n        /* \"solidity_test/test6.sol\":1051:1059  r_length */\n      dup2\n        /* \"solidity_test/test6.sol\":1061:1068  numbers */\n      dup2\n        /* \"solidity_test/test6.sol\":1043:1069  return (r_length, numbers) */\n      swap6\n      pop\n      swap6\n      pop\n      pop\n      pop\n      pop\n      pop\n        /* \"solidity_test/test6.sol\":582:1077  function digits(uint _n) public pure returns(uint, uint[] memory) {... */\n      swap2\n      pop\n      swap2\n      jump\t// out\n        /* \"#utility.yul\":7:82   */\n    tag_59:\n        /* \"#utility.yul\":40:46   */\n      0x00\n        /* \"#utility.yul\":73:75   */\n      0x40\n        /* \"#utility.yul\":67:76   */\n      mload\n        /* \"#utility.yul\":57:76   */\n      swap1\n      pop\n        /* \"#utility.yul\":7:82   */\n      swap1\n      jump\t// out\n        /* \"#utility.yul\":88:205   */\n    tag_60:\n        /* \"#utility.yul\":197:198   */\n      0x00\n        /* \"#utility.yul\":194:195   */\n      dup1\n        /* \"#utility.yul\":187:199   */\n      revert\n        /* \"#utility.yul\":211:328   */\n    tag_61:\n        /* \"#utility.yul\":320:321   */\n      0x00\n        /* \"#utility.yul\":317:318   */\n      dup1\n        /* \"#utility.yul\":310:322   */\n      revert\n        /* \"#utility.yul\":334:451   */\n    tag_62:\n        /* \"#utility.yul\":443:444   */\n      0x00\n        /* \"#utility.yul\":440:441   */\n      dup1\n        /* \"#utility.yul\":433:445   */\n      revert\n        /* \"#utility.yul\":457:574   */\n    tag_63:\n        /* \"#utility.yul\":566:567   */\n      0x00\n        /* \"#utility.yul\":563:564   */\n      dup1\n        /* \"#utility.yul\":556:568   */\n      revert\n        /* \"#utility.yul\":580:682   */\n    tag_64:\n        /* \"#utility.yul\":621:627   */\n      0x00\n        /* \"#utility.yul\":672:674   */\n      0x1f\n        /* \"#utility.yul\":668:675   */\n      not\n        /* \"#utility.yul\":663:665   */\n      0x1f\n        /* \"#utility.yul\":656:661   */\n      dup4\n        /* \"#utility.yul\":652:666   */\n      add\n        /* \"#utility.yul\":648:676   */\n      and\n        /* \"#utility.yul\":638:676   */\n      swap1\n      pop\n        /* \"#utility.yul\":580:682   */\n      swap2\n      swap1\n      pop\n      jump\t// out\n        /* \"#utility.yul\":688:868   */\n    tag_20:\n        /* \"#utility.yul\":736:813   */\n      0x4e487b7100000000000000000000000000000000000000000000000000000000\n        /* \"#utility.yul\":733:734   */\n      0x00\n        /* \"#utility.yul\":726:814   */\n      mstore\n        /* \"#utility.yul\":833:837   */\n      0x41\n        /* \"#utility.yul\":830:831   */\n      0x04\n        /* \"#utility.yul\":823:838   */\n      mstore\n        /* \"#utility.yul\":857:861   */\n      0x24\n        /* \"#utility.yul\":854:855   */\n      0x00\n        /* \"#utility.yul\":847:862   */\n      revert\n        /* \"#utility.yul\":874:1155   */\n    tag_65:\n        /* \"#utility.yul\":957:984   */\n      tag_106\n        /* \"#utility.yul\":979:983   */\n      dup3\n        /* \"#utility.yul\":957:984   */\n      tag_64\n      jump\t// in\n    tag_106:\n        /* \"#utility.yul\":949:955   */\n      dup2\n        /* \"#utility.yul\":945:985   */\n      add\n        /* \"#utility.yul\":1087:1093   */\n      dup2\n        /* \"#utility.yul\":1075:1085   */\n      dup2\n        /* \"#utility.yul\":1072:1094   */\n      lt\n        /* \"#utility.yul\":1051:1069   */\n      0xffffffffffffffff\n        /* \"#utility.yul\":1039:1049   */\n      dup3\n        /* \"#utility.yul\":1036:1070   */\n      gt\n        /* \"#utility.yul\":1033:1095   */\n      or\n        /* \"#utility.yul\":1030:1118   */\n      iszero\n      tag_107\n      jumpi\n        /* \"#utility.yul\":1098:1116   */\n      tag_108\n      tag_20\n      jump\t// in\n    tag_108:\n        /* \"#utility.yul\":1030:1118   */\n    tag_107:\n        /* \"#utility.yul\":1138:1148   */\n      dup1\n        /* \"#utility.yul\":1134:1136   */\n      0x40\n        /* \"#utility.yul\":1127:1149   */\n      mstore\n        /* \"#utility.yul\":917:1155   */\n      pop\n        /* \"#utility.yul\":874:1155   */\n      pop\n      pop\n      jump\t// out\n        /* \"#utility.yul\":1161:1290   */\n    tag_66:\n        /* \"#utility.yul\":1195:1201   */\n      0x00\n        /* \"#utility.yul\":1222:1242   */\n      tag_110\n      tag_59\n      jump\t// in\n    tag_110:\n        /* \"#utility.yul\":1212:1242   */\n      swap1\n      pop\n        /* \"#utility.yul\":1251:1284   */\n      tag_111\n        /* \"#utility.yul\":1279:1283   */\n      dup3\n        /* \"#utility.yul\":1271:1277   */\n      dup3\n        /* \"#utility.yul\":1251:1284   */\n      tag_65\n      jump\t// in\n    tag_111:\n        /* \"#utility.yul\":1161:1290   */\n      swap2\n      swap1\n      pop\n      jump\t// out\n        /* \"#utility.yul\":1296:1604   */\n    tag_67:\n        /* \"#utility.yul\":1358:1362   */\n      0x00\n        /* \"#utility.yul\":1448:1466   */\n      0xffffffffffffffff\n        /* \"#utility.yul\":1440:1446   */\n      dup3\n        /* \"#utility.yul\":1437:1467   */\n      gt\n        /* \"#utility.yul\":1434:1490   */\n      iszero\n      tag_113\n      jumpi\n        /* \"#utility.yul\":1470:1488   */\n      tag_114\n      tag_20\n      jump\t// in\n    tag_114:\n        /* \"#utility.yul\":1434:1490   */\n    tag_113:\n        /* \"#utility.yul\":1508:1537   */\n      tag_115\n        /* \"#utility.yul\":1530:1536   */\n      dup3\n        /* \"#utility.yul\":1508:1537   */\n      tag_64\n      jump\t// in\n    tag_115:\n        /* \"#utility.yul\":1500:1537   */\n      swap1\n      pop\n        /* \"#utility.yul\":1592:1596   */\n      0x20\n        /* \"#utility.yul\":1586:1590   */\n      dup2\n        /* \"#utility.yul\":1582:1597   */\n      add\n        /* \"#utility.yul\":1574:1597   */\n      swap1\n      pop\n        /* \"#utility.yul\":1296:1604   */\n      swap2\n      swap1\n      pop\n      jump\t// out\n        /* \"#utility.yul\":1610:1758   */\n    tag_68:\n        /* \"#utility.yul\":1708:1714   */\n      dup3\n        /* \"#utility.yul\":1703:1706   */\n      dup2\n        /* \"#utility.yul\":1698:1701   */\n      dup4\n        /* \"#utility.yul\":1685:1715   */\n      calldatacopy\n        /* \"#utility.yul\":1749:1750   */\n      0x00\n        /* \"#utility.yul\":1740:1746   */\n      dup4\n        /* \"#utility.yul\":1735:1738   */\n      dup4\n        /* \"#utility.yul\":1731:1747   */\n      add\n        /* \"#utility.yul\":1724:1751   */\n      mstore\n        /* \"#utility.yul\":1610:1758   */\n      pop\n      pop\n      pop\n      jump\t// out\n        /* \"#utility.yul\":1764:2189   */\n    tag_69:\n        /* \"#utility.yul\":1842:1847   */\n      0x00\n        /* \"#utility.yul\":1867:1933   */\n      tag_118\n        /* \"#utility.yul\":1883:1932   */\n      tag_119\n        /* \"#utility.yul\":1925:1931   */\n      dup5\n        /* \"#utility.yul\":1883:1932   */\n      tag_67\n      jump\t// in\n    tag_119:\n        /* \"#utility.yul\":1867:1933   */\n      tag_66\n      jump\t// in\n    tag_118:\n        /* \"#utility.yul\":1858:1933   */\n      swap1\n      pop\n        /* \"#utility.yul\":1956:1962   */\n      dup3\n        /* \"#utility.yul\":1949:1954   */\n      dup2\n        /* \"#utility.yul\":1942:1963   */\n      mstore\n        /* \"#utility.yul\":1994:1998   */\n      0x20\n        /* \"#utility.yul\":1987:1992   */\n      dup2\n        /* \"#utility.yul\":1983:1999   */\n      add\n        /* \"#utility.yul\":2032:2035   */\n      dup5\n        /* \"#utility.yul\":2023:2029   */\n      dup5\n        /* \"#utility.yul\":2018:2021   */\n      dup5\n        /* \"#utility.yul\":2014:2030   */\n      add\n        /* \"#utility.yul\":2011:2036   */\n      gt\n        /* \"#utility.yul\":2008:2120   */\n      iszero\n      tag_120\n      jumpi\n        /* \"#utility.yul\":2039:2118   */\n      tag_121\n      tag_63\n      jump\t// in\n    tag_121:\n        /* \"#utility.yul\":2008:2120   */\n    tag_120:\n        /* \"#utility.yul\":2129:2183   */\n      tag_122\n        /* \"#utility.yul\":2176:2182   */\n      dup5\n        /* \"#utility.yul\":2171:2174   */\n      dup3\n        /* \"#utility.yul\":2166:2169   */\n      dup6\n        /* \"#utility.yul\":2129:2183   */\n      tag_68\n      jump\t// in\n    tag_122:\n        /* \"#utility.yul\":1848:2189   */\n      pop\n        /* \"#utility.yul\":1764:2189   */\n      swap4\n      swap3\n      pop\n      pop\n      pop\n      jump\t// out\n        /* \"#utility.yul\":2209:2549   */\n    tag_70:\n        /* \"#utility.yul\":2265:2270   */\n      0x00\n        /* \"#utility.yul\":2314:2317   */\n      dup3\n        /* \"#utility.yul\":2307:2311   */\n      0x1f\n        /* \"#utility.yul\":2299:2305   */\n      dup4\n        /* \"#utility.yul\":2295:2312   */\n      add\n        /* \"#utility.yul\":2291:2318   */\n      slt\n        /* \"#utility.yul\":2281:2403   */\n      tag_124\n      jumpi\n        /* \"#utility.yul\":2322:2401   */\n      tag_125\n      tag_62\n      jump\t// in\n    tag_125:\n        /* \"#utility.yul\":2281:2403   */\n    tag_124:\n        /* \"#utility.yul\":2439:2445   */\n      dup2\n        /* \"#utility.yul\":2426:2446   */\n      calldataload\n        /* \"#utility.yul\":2464:2543   */\n      tag_126\n        /* \"#utility.yul\":2539:2542   */\n      dup5\n        /* \"#utility.yul\":2531:2537   */\n      dup3\n        /* \"#utility.yul\":2524:2528   */\n      0x20\n        /* \"#utility.yul\":2516:2522   */\n      dup7\n        /* \"#utility.yul\":2512:2529   */\n      add\n        /* \"#utility.yul\":2464:2543   */\n      tag_69\n      jump\t// in\n    tag_126:\n        /* \"#utility.yul\":2455:2543   */\n      swap2\n      pop\n        /* \"#utility.yul\":2271:2549   */\n      pop\n        /* \"#utility.yul\":2209:2549   */\n      swap3\n      swap2\n      pop\n      pop\n      jump\t// out\n        /* \"#utility.yul\":2555:3064   */\n    tag_7:\n        /* \"#utility.yul\":2624:2630   */\n      0x00\n        /* \"#utility.yul\":2673:2675   */\n      0x20\n        /* \"#utility.yul\":2661:2670   */\n      dup3\n        /* \"#utility.yul\":2652:2659   */\n      dup5\n        /* \"#utility.yul\":2648:2671   */\n      sub\n        /* \"#utility.yul\":2644:2676   */\n      slt\n        /* \"#utility.yul\":2641:2760   */\n      iszero\n      tag_128\n      jumpi\n        /* \"#utility.yul\":2679:2758   */\n      tag_129\n      tag_60\n      jump\t// in\n    tag_129:\n        /* \"#utility.yul\":2641:2760   */\n    tag_128:\n        /* \"#utility.yul\":2827:2828   */\n      0x00\n        /* \"#utility.yul\":2816:2825   */\n      dup3\n        /* \"#utility.yul\":2812:2829   */\n      add\n        /* \"#utility.yul\":2799:2830   */\n      calldataload\n        /* \"#utility.yul\":2857:2875   */\n      0xffffffffffffffff\n        /* \"#utility.yul\":2849:2855   */\n      dup2\n        /* \"#utility.yul\":2846:2876   */\n      gt\n        /* \"#utility.yul\":2843:2960   */\n      iszero\n      tag_130\n      jumpi\n        /* \"#utility.yul\":2879:2958   */\n      tag_131\n      tag_61\n      jump\t// in\n    tag_131:\n        /* \"#utility.yul\":2843:2960   */\n    tag_130:\n        /* \"#utility.yul\":2984:3047   */\n      tag_132\n        /* \"#utility.yul\":3039:3046   */\n      dup5\n        /* \"#utility.yul\":3030:3036   */\n      dup3\n        /* \"#utility.yul\":3019:3028   */\n      dup6\n        /* \"#utility.yul\":3015:3037   */\n      add\n        /* \"#utility.yul\":2984:3047   */\n      tag_70\n      jump\t// in\n    tag_132:\n        /* \"#utility.yul\":2974:3047   */\n      swap2\n      pop\n        /* \"#utility.yul\":2770:3057   */\n      pop\n        /* \"#utility.yul\":2555:3064   */\n      swap3\n      swap2\n      pop\n      pop\n      jump\t// out\n        /* \"#utility.yul\":3070:3147   */\n    tag_71:\n        /* \"#utility.yul\":3107:3114   */\n      0x00\n        /* \"#utility.yul\":3136:3141   */\n      dup2\n        /* \"#utility.yul\":3125:3141   */\n      swap1\n      pop\n        /* \"#utility.yul\":3070:3147   */\n      swap2\n      swap1\n      pop\n      jump\t// out\n        /* \"#utility.yul\":3153:3271   */\n    tag_72:\n        /* \"#utility.yul\":3240:3264   */\n      tag_135\n        /* \"#utility.yul\":3258:3263   */\n      dup2\n        /* \"#utility.yul\":3240:3264   */\n      tag_71\n      jump\t// in\n    tag_135:\n        /* \"#utility.yul\":3235:3238   */\n      dup3\n        /* \"#utility.yul\":3228:3265   */\n      mstore\n        /* \"#utility.yul\":3153:3271   */\n      pop\n      pop\n      jump\t// out\n        /* \"#utility.yul\":3277:3401   */\n    tag_73:\n        /* \"#utility.yul\":3354:3360   */\n      0x00\n        /* \"#utility.yul\":3388:3393   */\n      dup2\n        /* \"#utility.yul\":3382:3394   */\n      mload\n        /* \"#utility.yul\":3372:3394   */\n      swap1\n      pop\n        /* \"#utility.yul\":3277:3401   */\n      swap2\n      swap1\n      pop\n      jump\t// out\n        /* \"#utility.yul\":3407:3601   */\n    tag_74:\n        /* \"#utility.yul\":3516:3527   */\n      0x00\n        /* \"#utility.yul\":3550:3556   */\n      dup3\n        /* \"#utility.yul\":3545:3548   */\n      dup3\n        /* \"#utility.yul\":3538:3557   */\n      mstore\n        /* \"#utility.yul\":3590:3594   */\n      0x20\n        /* \"#utility.yul\":3585:3588   */\n      dup3\n        /* \"#utility.yul\":3581:3595   */\n      add\n        /* \"#utility.yul\":3566:3595   */\n      swap1\n      pop\n        /* \"#utility.yul\":3407:3601   */\n      swap3\n      swap2\n      pop\n      pop\n      jump\t// out\n        /* \"#utility.yul\":3607:3749   */\n    tag_75:\n        /* \"#utility.yul\":3684:3688   */\n      0x00\n        /* \"#utility.yul\":3707:3710   */\n      dup2\n        /* \"#utility.yul\":3699:3710   */\n      swap1\n      pop\n        /* \"#utility.yul\":3737:3741   */\n      0x20\n        /* \"#utility.yul\":3732:3735   */\n      dup3\n        /* \"#utility.yul\":3728:3742   */\n      add\n        /* \"#utility.yul\":3720:3742   */\n      swap1\n      pop\n        /* \"#utility.yul\":3607:3749   */\n      swap2\n      swap1\n      pop\n      jump\t// out\n        /* \"#utility.yul\":3755:3854   */\n    tag_76:\n        /* \"#utility.yul\":3807:3813   */\n      0x00\n        /* \"#utility.yul\":3841:3846   */\n      dup2\n        /* \"#utility.yul\":3835:3847   */\n      mload\n        /* \"#utility.yul\":3825:3847   */\n      swap1\n      pop\n        /* \"#utility.yul\":3755:3854   */\n      swap2\n      swap1\n      pop\n      jump\t// out\n        /* \"#utility.yul\":3860:4019   */\n    tag_77:\n        /* \"#utility.yul\":3934:3945   */\n      0x00\n        /* \"#utility.yul\":3968:3974   */\n      dup3\n        /* \"#utility.yul\":3963:3966   */\n      dup3\n        /* \"#utility.yul\":3956:3975   */\n      mstore\n        /* \"#utility.yul\":4008:4012   */\n      0x20\n        /* \"#utility.yul\":4003:4006   */\n      dup3\n        /* \"#utility.yul\":3999:4013   */\n      add\n        /* \"#utility.yul\":3984:4013   */\n      swap1\n      pop\n        /* \"#utility.yul\":3860:4019   */\n      swap3\n      swap2\n      pop\n      pop\n      jump\t// out\n        /* \"#utility.yul\":4025:4164   */\n    tag_78:\n        /* \"#utility.yul\":4114:4120   */\n      dup3\n        /* \"#utility.yul\":4109:4112   */\n      dup2\n        /* \"#utility.yul\":4104:4107   */\n      dup4\n        /* \"#utility.yul\":4098:4121   */\n      mcopy\n        /* \"#utility.yul\":4155:4156   */\n      0x00\n        /* \"#utility.yul\":4146:4152   */\n      dup4\n        /* \"#utility.yul\":4141:4144   */\n      dup4\n        /* \"#utility.yul\":4137:4153   */\n      add\n        /* \"#utility.yul\":4130:4157   */\n      mstore\n        /* \"#utility.yul\":4025:4164   */\n      pop\n      pop\n      pop\n      jump\t// out\n        /* \"#utility.yul\":4170:4527   */\n    tag_79:\n        /* \"#utility.yul\":4248:4251   */\n      0x00\n        /* \"#utility.yul\":4276:4315   */\n      tag_143\n        /* \"#utility.yul\":4309:4314   */\n      dup3\n        /* \"#utility.yul\":4276:4315   */\n      tag_76\n      jump\t// in\n    tag_143:\n        /* \"#utility.yul\":4331:4392   */\n      tag_144\n        /* \"#utility.yul\":4385:4391   */\n      dup2\n        /* \"#utility.yul\":4380:4383   */\n      dup6\n        /* \"#utility.yul\":4331:4392   */\n      tag_77\n      jump\t// in\n    tag_144:\n        /* \"#utility.yul\":4324:4392   */\n      swap4\n      pop\n        /* \"#utility.yul\":4401:4466   */\n      tag_145\n        /* \"#utility.yul\":4459:4465   */\n      dup2\n        /* \"#utility.yul\":4454:4457   */\n      dup6\n        /* \"#utility.yul\":4447:4451   */\n      0x20\n        /* \"#utility.yul\":4440:4445   */\n      dup7\n        /* \"#utility.yul\":4436:4452   */\n      add\n        /* \"#utility.yul\":4401:4466   */\n      tag_78\n      jump\t// in\n    tag_145:\n        /* \"#utility.yul\":4491:4520   */\n      tag_146\n        /* \"#utility.yul\":4513:4519   */\n      dup2\n        /* \"#utility.yul\":4491:4520   */\n      tag_64\n      jump\t// in\n    tag_146:\n        /* \"#utility.yul\":4486:4489   */\n      dup5\n        /* \"#utility.yul\":4482:4521   */\n      add\n        /* \"#utility.yul\":4475:4521   */\n      swap2\n      pop\n        /* \"#utility.yul\":4252:4527   */\n      pop\n        /* \"#utility.yul\":4170:4527   */\n      swap3\n      swap2\n      pop\n      pop\n      jump\t// out\n        /* \"#utility.yul\":4533:4729   */\n    tag_80:\n        /* \"#utility.yul\":4622:4632   */\n      0x00\n        /* \"#utility.yul\":4657:4723   */\n      tag_148\n        /* \"#utility.yul\":4719:4722   */\n      dup4\n        /* \"#utility.yul\":4711:4717   */\n      dup4\n        /* \"#utility.yul\":4657:4723   */\n      tag_79\n      jump\t// in\n    tag_148:\n        /* \"#utility.yul\":4643:4723   */\n      swap1\n      pop\n        /* \"#utility.yul\":4533:4729   */\n      swap3\n      swap2\n      pop\n      pop\n      jump\t// out\n        /* \"#utility.yul\":4735:4858   */\n    tag_81:\n        /* \"#utility.yul\":4815:4819   */\n      0x00\n        /* \"#utility.yul\":4847:4851   */\n      0x20\n        /* \"#utility.yul\":4842:4845   */\n      dup3\n        /* \"#utility.yul\":4838:4852   */\n      add\n        /* \"#utility.yul\":4830:4852   */\n      swap1\n      pop\n        /* \"#utility.yul\":4735:4858   */\n      swap2\n      swap1\n      pop\n      jump\t// out\n        /* \"#utility.yul\":4892:5883   */\n    tag_82:\n        /* \"#utility.yul\":5031:5034   */\n      0x00\n        /* \"#utility.yul\":5060:5124   */\n      tag_151\n        /* \"#utility.yul\":5118:5123   */\n      dup3\n        /* \"#utility.yul\":5060:5124   */\n      tag_73\n      jump\t// in\n    tag_151:\n        /* \"#utility.yul\":5140:5236   */\n      tag_152\n        /* \"#utility.yul\":5229:5235   */\n      dup2\n        /* \"#utility.yul\":5224:5227   */\n      dup6\n        /* \"#utility.yul\":5140:5236   */\n      tag_74\n      jump\t// in\n    tag_152:\n        /* \"#utility.yul\":5133:5236   */\n      swap4\n      pop\n        /* \"#utility.yul\":5262:5265   */\n      dup4\n        /* \"#utility.yul\":5307:5311   */\n      0x20\n        /* \"#utility.yul\":5299:5305   */\n      dup3\n        /* \"#utility.yul\":5295:5312   */\n      mul\n        /* \"#utility.yul\":5290:5293   */\n      dup6\n        /* \"#utility.yul\":5286:5313   */\n      add\n        /* \"#utility.yul\":5337:5403   */\n      tag_153\n        /* \"#utility.yul\":5397:5402   */\n      dup6\n        /* \"#utility.yul\":5337:5403   */\n      tag_75\n      jump\t// in\n    tag_153:\n        /* \"#utility.yul\":5426:5433   */\n      dup1\n        /* \"#utility.yul\":5457:5458   */\n      0x00\n        /* \"#utility.yul\":5442:5838   */\n    tag_154:\n        /* \"#utility.yul\":5467:5473   */\n      dup6\n        /* \"#utility.yul\":5464:5465   */\n      dup2\n        /* \"#utility.yul\":5461:5474   */\n      lt\n        /* \"#utility.yul\":5442:5838   */\n      iszero\n      tag_156\n      jumpi\n        /* \"#utility.yul\":5538:5547   */\n      dup5\n        /* \"#utility.yul\":5532:5536   */\n      dup5\n        /* \"#utility.yul\":5528:5548   */\n      sub\n        /* \"#utility.yul\":5523:5526   */\n      dup10\n        /* \"#utility.yul\":5516:5549   */\n      mstore\n        /* \"#utility.yul\":5589:5595   */\n      dup2\n        /* \"#utility.yul\":5583:5596   */\n      mload\n        /* \"#utility.yul\":5617:5701   */\n      tag_157\n        /* \"#utility.yul\":5696:5700   */\n      dup6\n        /* \"#utility.yul\":5681:5694   */\n      dup3\n        /* \"#utility.yul\":5617:5701   */\n      tag_80\n      jump\t// in\n    tag_157:\n        /* \"#utility.yul\":5609:5701   */\n      swap5\n      pop\n        /* \"#utility.yul\":5724:5794   */\n      tag_158\n        /* \"#utility.yul\":5787:5793   */\n      dup4\n        /* \"#utility.yul\":5724:5794   */\n      tag_81\n      jump\t// in\n    tag_158:\n        /* \"#utility.yul\":5714:5794   */\n      swap3\n      pop\n        /* \"#utility.yul\":5823:5827   */\n      0x20\n        /* \"#utility.yul\":5818:5821   */\n      dup11\n        /* \"#utility.yul\":5814:5828   */\n      add\n        /* \"#utility.yul\":5807:5828   */\n      swap10\n      pop\n        /* \"#utility.yul\":5502:5838   */\n      pop\n        /* \"#utility.yul\":5489:5490   */\n      0x01\n        /* \"#utility.yul\":5486:5487   */\n      dup2\n        /* \"#utility.yul\":5482:5491   */\n      add\n        /* \"#utility.yul\":5477:5491   */\n      swap1\n      pop\n        /* \"#utility.yul\":5442:5838   */\n      jump(tag_154)\n    tag_156:\n        /* \"#utility.yul\":5446:5460   */\n      pop\n        /* \"#utility.yul\":5854:5858   */\n      dup3\n        /* \"#utility.yul\":5847:5858   */\n      swap8\n      pop\n        /* \"#utility.yul\":5874:5877   */\n      dup8\n        /* \"#utility.yul\":5867:5877   */\n      swap6\n      pop\n        /* \"#utility.yul\":5036:5883   */\n      pop\n      pop\n      pop\n      pop\n      pop\n        /* \"#utility.yul\":4892:5883   */\n      swap3\n      swap2\n      pop\n      pop\n      jump\t// out\n        /* \"#utility.yul\":5889:6412   */\n    tag_10:\n        /* \"#utility.yul\":6080:6084   */\n      0x00\n        /* \"#utility.yul\":6118:6120   */\n      0x40\n        /* \"#utility.yul\":6107:6116   */\n      dup3\n        /* \"#utility.yul\":6103:6121   */\n      add\n        /* \"#utility.yul\":6095:6121   */\n      swap1\n      pop\n        /* \"#utility.yul\":6131:6202   */\n      tag_160\n        /* \"#utility.yul\":6199:6200   */\n      0x00\n        /* \"#utility.yul\":6188:6197   */\n      dup4\n        /* \"#utility.yul\":6184:6201   */\n      add\n        /* \"#utility.yul\":6175:6181   */\n      dup6\n        /* \"#utility.yul\":6131:6202   */\n      tag_72\n      jump\t// in\n    tag_160:\n        /* \"#utility.yul\":6249:6258   */\n      dup2\n        /* \"#utility.yul\":6243:6247   */\n      dup2\n        /* \"#utility.yul\":6239:6259   */\n      sub\n        /* \"#utility.yul\":6234:6236   */\n      0x20\n        /* \"#utility.yul\":6223:6232   */\n      dup4\n        /* \"#utility.yul\":6219:6237   */\n      add\n        /* \"#utility.yul\":6212:6260   */\n      mstore\n        /* \"#utility.yul\":6277:6405   */\n      tag_161\n        /* \"#utility.yul\":6400:6404   */\n      dup2\n        /* \"#utility.yul\":6391:6397   */\n      dup5\n        /* \"#utility.yul\":6277:6405   */\n      tag_82\n      jump\t// in\n    tag_161:\n        /* \"#utility.yul\":6269:6405   */\n      swap1\n      pop\n        /* \"#utility.yul\":5889:6412   */\n      swap4\n      swap3\n      pop\n      pop\n      pop\n      jump\t// out\n        /* \"#utility.yul\":6418:6540   */\n    tag_83:\n        /* \"#utility.yul\":6491:6515   */\n      tag_163\n        /* \"#utility.yul\":6509:6514   */\n      dup2\n        /* \"#utility.yul\":6491:6515   */\n      tag_71\n      jump\t// in\n    tag_163:\n        /* \"#utility.yul\":6484:6489   */\n      dup2\n        /* \"#utility.yul\":6481:6516   */\n      eq\n        /* \"#utility.yul\":6471:6534   */\n      tag_164\n      jumpi\n        /* \"#utility.yul\":6530:6531   */\n      0x00\n        /* \"#utility.yul\":6527:6528   */\n      dup1\n        /* \"#utility.yul\":6520:6532   */\n      revert\n        /* \"#utility.yul\":6471:6534   */\n    tag_164:\n        /* \"#utility.yul\":6418:6540   */\n      pop\n      jump\t// out\n        /* \"#utility.yul\":6546:6685   */\n    tag_84:\n        /* \"#utility.yul\":6592:6597   */\n      0x00\n        /* \"#utility.yul\":6630:6636   */\n      dup2\n        /* \"#utility.yul\":6617:6637   */\n      calldataload\n        /* \"#utility.yul\":6608:6637   */\n      swap1\n      pop\n        /* \"#utility.yul\":6646:6679   */\n      tag_166\n        /* \"#utility.yul\":6673:6678   */\n      dup2\n        /* \"#utility.yul\":6646:6679   */\n      tag_83\n      jump\t// in\n    tag_166:\n        /* \"#utility.yul\":6546:6685   */\n      swap3\n      swap2\n      pop\n      pop\n      jump\t// out\n        /* \"#utility.yul\":6691:7020   */\n    tag_13:\n        /* \"#utility.yul\":6750:6756   */\n      0x00\n        /* \"#utility.yul\":6799:6801   */\n      0x20\n        /* \"#utility.yul\":6787:6796   */\n      dup3\n        /* \"#utility.yul\":6778:6785   */\n      dup5\n        /* \"#utility.yul\":6774:6797   */\n      sub\n        /* \"#utility.yul\":6770:6802   */\n      slt\n        /* \"#utility.yul\":6767:6886   */\n      iszero\n      tag_168\n      jumpi\n        /* \"#utility.yul\":6805:6884   */\n      tag_169\n      tag_60\n      jump\t// in\n    tag_169:\n        /* \"#utility.yul\":6767:6886   */\n    tag_168:\n        /* \"#utility.yul\":6925:6926   */\n      0x00\n        /* \"#utility.yul\":6950:7003   */\n      tag_170\n        /* \"#utility.yul\":6995:7002   */\n      dup5\n        /* \"#utility.yul\":6986:6992   */\n      dup3\n        /* \"#utility.yul\":6975:6984   */\n      dup6\n        /* \"#utility.yul\":6971:6993   */\n      add\n        /* \"#utility.yul\":6950:7003   */\n      tag_84\n      jump\t// in\n    tag_170:\n        /* \"#utility.yul\":6940:7003   */\n      swap2\n      pop\n        /* \"#utility.yul\":6896:7013   */\n      pop\n        /* \"#utility.yul\":6691:7020   */\n      swap3\n      swap2\n      pop\n      pop\n      jump\t// out\n        /* \"#utility.yul\":7026:7140   */\n    tag_85:\n        /* \"#utility.yul\":7093:7099   */\n      0x00\n        /* \"#utility.yul\":7127:7132   */\n      dup2\n        /* \"#utility.yul\":7121:7133   */\n      mload\n        /* \"#utility.yul\":7111:7133   */\n      swap1\n      pop\n        /* \"#utility.yul\":7026:7140   */\n      swap2\n      swap1\n      pop\n      jump\t// out\n        /* \"#utility.yul\":7146:7330   */\n    tag_86:\n        /* \"#utility.yul\":7245:7256   */\n      0x00\n        /* \"#utility.yul\":7279:7285   */\n      dup3\n        /* \"#utility.yul\":7274:7277   */\n      dup3\n        /* \"#utility.yul\":7267:7286   */\n      mstore\n        /* \"#utility.yul\":7319:7323   */\n      0x20\n        /* \"#utility.yul\":7314:7317   */\n      dup3\n        /* \"#utility.yul\":7310:7324   */\n      add\n        /* \"#utility.yul\":7295:7324   */\n      swap1\n      pop\n        /* \"#utility.yul\":7146:7330   */\n      swap3\n      swap2\n      pop\n      pop\n      jump\t// out\n        /* \"#utility.yul\":7336:7468   */\n    tag_87:\n        /* \"#utility.yul\":7403:7407   */\n      0x00\n        /* \"#utility.yul\":7426:7429   */\n      dup2\n        /* \"#utility.yul\":7418:7429   */\n      swap1\n      pop\n        /* \"#utility.yul\":7456:7460   */\n      0x20\n        /* \"#utility.yul\":7451:7454   */\n      dup3\n        /* \"#utility.yul\":7447:7461   */\n      add\n        /* \"#utility.yul\":7439:7461   */\n      swap1\n      pop\n        /* \"#utility.yul\":7336:7468   */\n      swap2\n      swap1\n      pop\n      jump\t// out\n        /* \"#utility.yul\":7474:7582   */\n    tag_88:\n        /* \"#utility.yul\":7551:7575   */\n      tag_175\n        /* \"#utility.yul\":7569:7574   */\n      dup2\n        /* \"#utility.yul\":7551:7575   */\n      tag_71\n      jump\t// in\n    tag_175:\n        /* \"#utility.yul\":7546:7549   */\n      dup3\n        /* \"#utility.yul\":7539:7576   */\n      mstore\n        /* \"#utility.yul\":7474:7582   */\n      pop\n      pop\n      jump\t// out\n        /* \"#utility.yul\":7588:7767   */\n    tag_89:\n        /* \"#utility.yul\":7657:7667   */\n      0x00\n        /* \"#utility.yul\":7678:7724   */\n      tag_177\n        /* \"#utility.yul\":7720:7723   */\n      dup4\n        /* \"#utility.yul\":7712:7718   */\n      dup4\n        /* \"#utility.yul\":7678:7724   */\n      tag_88\n      jump\t// in\n    tag_177:\n        /* \"#utility.yul\":7756:7760   */\n      0x20\n        /* \"#utility.yul\":7751:7754   */\n      dup4\n        /* \"#utility.yul\":7747:7761   */\n      add\n        /* \"#utility.yul\":7733:7761   */\n      swap1\n      pop\n        /* \"#utility.yul\":7588:7767   */\n      swap3\n      swap2\n      pop\n      pop\n      jump\t// out\n        /* \"#utility.yul\":7773:7886   */\n    tag_90:\n        /* \"#utility.yul\":7843:7847   */\n      0x00\n        /* \"#utility.yul\":7875:7879   */\n      0x20\n        /* \"#utility.yul\":7870:7873   */\n      dup3\n        /* \"#utility.yul\":7866:7880   */\n      add\n        /* \"#utility.yul\":7858:7880   */\n      swap1\n      pop\n        /* \"#utility.yul\":7773:7886   */\n      swap2\n      swap1\n      pop\n      jump\t// out\n        /* \"#utility.yul\":7922:8654   */\n    tag_91:\n        /* \"#utility.yul\":8041:8044   */\n      0x00\n        /* \"#utility.yul\":8070:8124   */\n      tag_180\n        /* \"#utility.yul\":8118:8123   */\n      dup3\n        /* \"#utility.yul\":8070:8124   */\n      tag_85\n      jump\t// in\n    tag_180:\n        /* \"#utility.yul\":8140:8226   */\n      tag_181\n        /* \"#utility.yul\":8219:8225   */\n      dup2\n        /* \"#utility.yul\":8214:8217   */\n      dup6\n        /* \"#utility.yul\":8140:8226   */\n      tag_86\n      jump\t// in\n    tag_181:\n        /* \"#utility.yul\":8133:8226   */\n      swap4\n      pop\n        /* \"#utility.yul\":8250:8306   */\n      tag_182\n        /* \"#utility.yul\":8300:8305   */\n      dup4\n        /* \"#utility.yul\":8250:8306   */\n      tag_87\n      jump\t// in\n    tag_182:\n        /* \"#utility.yul\":8329:8336   */\n      dup1\n        /* \"#utility.yul\":8360:8361   */\n      0x00\n        /* \"#utility.yul\":8345:8629   */\n    tag_183:\n        /* \"#utility.yul\":8370:8376   */\n      dup4\n        /* \"#utility.yul\":8367:8368   */\n      dup2\n        /* \"#utility.yul\":8364:8377   */\n      lt\n        /* \"#utility.yul\":8345:8629   */\n      iszero\n      tag_185\n      jumpi\n        /* \"#utility.yul\":8446:8452   */\n      dup2\n        /* \"#utility.yul\":8440:8453   */\n      mload\n        /* \"#utility.yul\":8473:8536   */\n      tag_186\n        /* \"#utility.yul\":8532:8535   */\n      dup9\n        /* \"#utility.yul\":8517:8530   */\n      dup3\n        /* \"#utility.yul\":8473:8536   */\n      tag_89\n      jump\t// in\n    tag_186:\n        /* \"#utility.yul\":8466:8536   */\n      swap8\n      pop\n        /* \"#utility.yul\":8559:8619   */\n      tag_187\n        /* \"#utility.yul\":8612:8618   */\n      dup4\n        /* \"#utility.yul\":8559:8619   */\n      tag_90\n      jump\t// in\n    tag_187:\n        /* \"#utility.yul\":8549:8619   */\n      swap3\n      pop\n        /* \"#utility.yul\":8405:8629   */\n      pop\n        /* \"#utility.yul\":8392:8393   */\n      0x01\n        /* \"#utility.yul\":8389:8390   */\n      dup2\n        /* \"#utility.yul\":8385:8394   */\n      add\n        /* \"#utility.yul\":8380:8394   */\n      swap1\n      pop\n        /* \"#utility.yul\":8345:8629   */\n      jump(tag_183)\n    tag_185:\n        /* \"#utility.yul\":8349:8363   */\n      pop\n        /* \"#utility.yul\":8645:8648   */\n      dup6\n        /* \"#utility.yul\":8638:8648   */\n      swap4\n      pop\n        /* \"#utility.yul\":8046:8654   */\n      pop\n      pop\n      pop\n        /* \"#utility.yul\":7922:8654   */\n      swap3\n      swap2\n      pop\n      pop\n      jump\t// out\n        /* \"#utility.yul\":8660:9143   */\n    tag_16:\n        /* \"#utility.yul\":8831:8835   */\n      0x00\n        /* \"#utility.yul\":8869:8871   */\n      0x40\n        /* \"#utility.yul\":8858:8867   */\n      dup3\n        /* \"#utility.yul\":8854:8872   */\n      add\n        /* \"#utility.yul\":8846:8872   */\n      swap1\n      pop\n        /* \"#utility.yul\":8882:8953   */\n      tag_189\n        /* \"#utility.yul\":8950:8951   */\n      0x00\n        /* \"#utility.yul\":8939:8948   */\n      dup4\n        /* \"#utility.yul\":8935:8952   */\n      add\n        /* \"#utility.yul\":8926:8932   */\n      dup6\n        /* \"#utility.yul\":8882:8953   */\n      tag_72\n      jump\t// in\n    tag_189:\n        /* \"#utility.yul\":9000:9009   */\n      dup2\n        /* \"#utility.yul\":8994:8998   */\n      dup2\n        /* \"#utility.yul\":8990:9010   */\n      sub\n        /* \"#utility.yul\":8985:8987   */\n      0x20\n        /* \"#utility.yul\":8974:8983   */\n      dup4\n        /* \"#utility.yul\":8970:8988   */\n      add\n        /* \"#utility.yul\":8963:9011   */\n      mstore\n        /* \"#utility.yul\":9028:9136   */\n      tag_190\n        /* \"#utility.yul\":9131:9135   */\n      dup2\n        /* \"#utility.yul\":9122:9128   */\n      dup5\n        /* \"#utility.yul\":9028:9136   */\n      tag_91\n      jump\t// in\n    tag_190:\n        /* \"#utility.yul\":9020:9136   */\n      swap1\n      pop\n        /* \"#utility.yul\":8660:9143   */\n      swap4\n      swap3\n      pop\n      pop\n      pop\n      jump\t// out\n        /* \"#utility.yul\":9149:9329   */\n    tag_31:\n        /* \"#utility.yul\":9197:9274   */\n      0x4e487b7100000000000000000000000000000000000000000000000000000000\n        /* \"#utility.yul\":9194:9195   */\n      0x00\n        /* \"#utility.yul\":9187:9275   */\n      mstore\n        /* \"#utility.yul\":9294:9298   */\n      0x32\n        /* \"#utility.yul\":9291:9292   */\n      0x04\n        /* \"#utility.yul\":9284:9299   */\n      mstore\n        /* \"#utility.yul\":9318:9322   */\n      0x24\n        /* \"#utility.yul\":9315:9316   */\n      0x00\n        /* \"#utility.yul\":9308:9323   */\n      revert\n        /* \"#utility.yul\":9335:9484   */\n    tag_92:\n        /* \"#utility.yul\":9371:9378   */\n      0x00\n        /* \"#utility.yul\":9411:9477   */\n      0xff00000000000000000000000000000000000000000000000000000000000000\n        /* \"#utility.yul\":9404:9409   */\n      dup3\n        /* \"#utility.yul\":9400:9478   */\n      and\n        /* \"#utility.yul\":9389:9478   */\n      swap1\n      pop\n        /* \"#utility.yul\":9335:9484   */\n      swap2\n      swap1\n      pop\n      jump\t// out\n        /* \"#utility.yul\":9490:9568   */\n    tag_93:\n        /* \"#utility.yul\":9528:9535   */\n      0x00\n        /* \"#utility.yul\":9557:9562   */\n      dup2\n        /* \"#utility.yul\":9546:9562   */\n      swap1\n      pop\n        /* \"#utility.yul\":9490:9568   */\n      swap2\n      swap1\n      pop\n      jump\t// out\n        /* \"#utility.yul\":9574:9727   */\n    tag_94:\n        /* \"#utility.yul\":9677:9720   */\n      tag_195\n        /* \"#utility.yul\":9696:9719   */\n      tag_196\n        /* \"#utility.yul\":9713:9718   */\n      dup3\n        /* \"#utility.yul\":9696:9719   */\n      tag_92\n      jump\t// in\n    tag_196:\n        /* \"#utility.yul\":9677:9720   */\n      tag_93\n      jump\t// in\n    tag_195:\n        /* \"#utility.yul\":9672:9675   */\n      dup3\n        /* \"#utility.yul\":9665:9721   */\n      mstore\n        /* \"#utility.yul\":9574:9727   */\n      pop\n      pop\n      jump\t// out\n        /* \"#utility.yul\":9733:9984   */\n    tag_37:\n        /* \"#utility.yul\":9843:9846   */\n      0x00\n        /* \"#utility.yul\":9858:9931   */\n      tag_198\n        /* \"#utility.yul\":9927:9930   */\n      dup3\n        /* \"#utility.yul\":9918:9924   */\n      dup5\n        /* \"#utility.yul\":9858:9931   */\n      tag_94\n      jump\t// in\n    tag_198:\n        /* \"#utility.yul\":9956:9957   */\n      0x01\n        /* \"#utility.yul\":9951:9954   */\n      dup3\n        /* \"#utility.yul\":9947:9958   */\n      add\n        /* \"#utility.yul\":9940:9958   */\n      swap2\n      pop\n        /* \"#utility.yul\":9975:9978   */\n      dup2\n        /* \"#utility.yul\":9968:9978   */\n      swap1\n      pop\n        /* \"#utility.yul\":9733:9984   */\n      swap3\n      swap2\n      pop\n      pop\n      jump\t// out\n        /* \"#utility.yul\":9990:10170   */\n    tag_95:\n        /* \"#utility.yul\":10038:10115   */\n      0x4e487b7100000000000000000000000000000000000000000000000000000000\n        /* \"#utility.yul\":10035:10036   */\n      0x00\n        /* \"#utility.yul\":10028:10116   */\n      mstore\n        /* \"#utility.yul\":10135:10139   */\n      0x11\n        /* \"#utility.yul\":10132:10133   */\n      0x04\n        /* \"#utility.yul\":10125:10140   */\n      mstore\n        /* \"#utility.yul\":10159:10163   */\n      0x24\n        /* \"#utility.yul\":10156:10157   */\n      0x00\n        /* \"#utility.yul\":10149:10164   */\n      revert\n        /* \"#utility.yul\":10176:10409   */\n    tag_44:\n        /* \"#utility.yul\":10215:10218   */\n      0x00\n        /* \"#utility.yul\":10238:10262   */\n      tag_201\n        /* \"#utility.yul\":10256:10261   */\n      dup3\n        /* \"#utility.yul\":10238:10262   */\n      tag_71\n      jump\t// in\n    tag_201:\n        /* \"#utility.yul\":10229:10262   */\n      swap2\n      pop\n        /* \"#utility.yul\":10284:10350   */\n      0xffffffffffffffffffffffffffffffffffffffffffffffffffffffffffffffff\n        /* \"#utility.yul\":10277:10282   */\n      dup3\n        /* \"#utility.yul\":10274:10351   */\n      sub\n        /* \"#utility.yul\":10271:10374   */\n      tag_202\n      jumpi\n        /* \"#utility.yul\":10354:10372   */\n      tag_203\n      tag_95\n      jump\t// in\n    tag_203:\n        /* \"#utility.yul\":10271:10374   */\n    tag_202:\n        /* \"#utility.yul\":10401:10402   */\n      0x01\n        /* \"#utility.yul\":10394:10399   */\n      dup3\n        /* \"#utility.yul\":10390:10403   */\n      add\n        /* \"#utility.yul\":10383:10403   */\n      swap1\n      pop\n        /* \"#utility.yul\":10176:10409   */\n      swap2\n      swap1\n      pop\n      jump\t// out\n        /* \"#utility.yul\":10415:10595   */\n    tag_96:\n        /* \"#utility.yul\":10463:10540   */\n      0x4e487b7100000000000000000000000000000000000000000000000000000000\n        /* \"#utility.yul\":10460:10461   */\n      0x00\n        /* \"#utility.yul\":10453:10541   */\n      mstore\n        /* \"#utility.yul\":10560:10564   */\n      0x12\n        /* \"#utility.yul\":10557:10558   */\n      0x04\n        /* \"#utility.yul\":10550:10565   */\n      mstore\n        /* \"#utility.yul\":10584:10588   */\n      0x24\n        /* \"#utility.yul\":10581:10582   */\n      0x00\n        /* \"#utility.yul\":10574:10589   */\n      revert\n        /* \"#utility.yul\":10601:10786   */\n    tag_46:\n        /* \"#utility.yul\":10641:10642   */\n      0x00\n        /* \"#utility.yul\":10658:10678   */\n      tag_206\n        /* \"#utility.yul\":10676:10677   */\n      dup3\n        /* \"#utility.yul\":10658:10678   */\n      tag_71\n      jump\t// in\n    tag_206:\n        /* \"#utility.yul\":10653:10678   */\n      swap2\n      pop\n        /* \"#utility.yul\":10692:10712   */\n      tag_207\n        /* \"#utility.yul\":10710:10711   */\n      dup4\n        /* \"#utility.yul\":10692:10712   */\n      tag_71\n      jump\t// in\n    tag_207:\n        /* \"#utility.yul\":10687:10712   */\n      swap3\n      pop\n        /* \"#utility.yul\":10731:10732   */\n      dup3\n        /* \"#utility.yul\":10721:10756   */\n      tag_208\n      jumpi\n        /* \"#utility.yul\":10736:10754   */\n      tag_209\n      tag_96\n      jump\t// in\n    tag_209:\n        /* \"#utility.yul\":10721:10756   */\n    tag_208:\n        /* \"#utility.yul\":10778:10779   */\n      dup3\n        /* \"#utility.yul\":10775:10776   */\n      dup3\n        /* \"#utility.yul\":10771:10780   */\n      div\n        /* \"#utility.yul\":10766:10780   */\n      swap1\n      pop\n        /* \"#utility.yul\":10601:10786   */\n      swap3\n      swap2\n      pop\n      pop\n      jump\t// out\n        /* \"#utility.yul\":10792:10968   */\n    tag_53:\n        /* \"#utility.yul\":10824:10825   */\n      0x00\n        /* \"#utility.yul\":10841:10861   */\n      tag_211\n        /* \"#utility.yul\":10859:10860   */\n      dup3\n        /* \"#utility.yul\":10841:10861   */\n      tag_71\n      jump\t// in\n    tag_211:\n        /* \"#utility.yul\":10836:10861   */\n      swap2\n      pop\n        /* \"#utility.yul\":10875:10895   */\n      tag_212\n        /* \"#utility.yul\":10893:10894   */\n      dup4\n        /* \"#utility.yul\":10875:10895   */\n      tag_71\n      jump\t// in\n    tag_212:\n        /* \"#utility.yul\":10870:10895   */\n      swap3\n      pop\n        /* \"#utility.yul\":10914:10915   */\n      dup3\n        /* \"#utility.yul\":10904:10939   */\n      tag_213\n      jumpi\n        /* \"#utility.yul\":10919:10937   */\n      tag_214\n      tag_96\n      jump\t// in\n    tag_214:\n        /* \"#utility.yul\":10904:10939   */\n    tag_213:\n        /* \"#utility.yul\":10960:10961   */\n      dup3\n        /* \"#utility.yul\":10957:10958   */\n      dup3\n        /* \"#utility.yul\":10953:10962   */\n      mod\n        /* \"#utility.yul\":10948:10962   */\n      swap1\n      pop\n        /* \"#utility.yul\":10792:10968   */\n      swap3\n      swap2\n      pop\n      pop\n      jump\t// out\n        /* \"#utility.yul\":10974:11145   */\n    tag_55:\n        /* \"#utility.yul\":11013:11016   */\n      0x00\n        /* \"#utility.yul\":11036:11060   */\n      tag_216\n        /* \"#utility.yul\":11054:11059   */\n      dup3\n        /* \"#utility.yul\":11036:11060   */\n      tag_71\n      jump\t// in\n    tag_216:\n        /* \"#utility.yul\":11027:11060   */\n      swap2\n      pop\n        /* \"#utility.yul\":11082:11086   */\n      0x00\n        /* \"#utility.yul\":11075:11080   */\n      dup3\n        /* \"#utility.yul\":11072:11087   */\n      sub\n        /* \"#utility.yul\":11069:11110   */\n      tag_217\n      jumpi\n        /* \"#utility.yul\":11090:11108   */\n      tag_218\n      tag_95\n      jump\t// in\n    tag_218:\n        /* \"#utility.yul\":11069:11110   */\n    tag_217:\n        /* \"#utility.yul\":11137:11138   */\n      0x01\n        /* \"#utility.yul\":11130:11135   */\n      dup3\n        /* \"#utility.yul\":11126:11139   */\n      sub\n        /* \"#utility.yul\":11119:11139   */\n      swap1\n      pop\n        /* \"#utility.yul\":10974:11145   */\n      swap2\n      swap1\n      pop\n      jump\t// out\n\n    auxdata: 0xa26469706673582212202e0ef056aac76c7f83b00b01531d2ed35b733f6d79c5f6a2bea3ef82f46747c464736f6c63430008190033\n}\n",
				"bytecode": {
					"linkReferences": {},
					"object": "6080604052348015600e575f80fd5b506109448061001c5f395ff3fe608060405234801561000f575f80fd5b5060043610610034575f3560e01c8063436a66e7146100385780637b23c90d14610069575b5f80fd5b610052600480360381019061004d9190610472565b61009a565b6040516100609291906105ec565b60405180910390f35b610083600480360381019061007e9190610644565b610240565b604051610091929190610726565b60405180910390f35b5f60605f835190505f8167ffffffffffffffff8111156100bd576100bc61034e565b5b6040519080825280602002602001820160405280156100f057816020015b60608152602001906001900390816100db5790505b5090505f8267ffffffffffffffff81111561010e5761010d61034e565b5b60405190808252806020026020018201604052801561013c5781602001602082028036833780820191505090505b5090505f5b838110156102315786818151811061015c5761015b610754565b5b602001015160f81c60f81b82828151811061017a57610179610754565b5b60200260200101907effffffffffffffffffffffffffffffffffffffffffffffffffffffffffffff191690817effffffffffffffffffffffffffffffffffffffffffffffffffffffffffffff1916815250508181815181106101df576101de610754565b5b60200260200101516040516020016101f791906107cc565b60405160208183030381529060405283828151811061021957610218610754565b5b60200260200101819052508080600101915050610141565b50828294509450505050915091565b5f60605f808490505b5f811461027257818061025b90610813565b925050600a8161026b9190610887565b9050610249565b5f8290505f8367ffffffffffffffff8111156102915761029061034e565b5b6040519080825280602002602001820160405280156102bf5781602001602082028036833780820191505090505b5090505b5f871461031657600a876102d791906108b7565b81856102e2906108e7565b955085815181106102f6576102f5610754565b5b602002602001018181525050600a8761030f9190610887565b96506102c3565b81819550955050505050915091565b5f604051905090565b5f80fd5b5f80fd5b5f80fd5b5f80fd5b5f601f19601f8301169050919050565b7f4e487b71000000000000000000000000000000000000000000000000000000005f52604160045260245ffd5b6103848261033e565b810181811067ffffffffffffffff821117156103a3576103a261034e565b5b80604052505050565b5f6103b5610325565b90506103c1828261037b565b919050565b5f67ffffffffffffffff8211156103e0576103df61034e565b5b6103e98261033e565b9050602081019050919050565b828183375f83830152505050565b5f610416610411846103c6565b6103ac565b9050828152602081018484840111156104325761043161033a565b5b61043d8482856103f6565b509392505050565b5f82601f83011261045957610458610336565b5b8135610469848260208601610404565b91505092915050565b5f602082840312156104875761048661032e565b5b5f82013567ffffffffffffffff8111156104a4576104a3610332565b5b6104b084828501610445565b91505092915050565b5f819050919050565b6104cb816104b9565b82525050565b5f81519050919050565b5f82825260208201905092915050565b5f819050602082019050919050565b5f81519050919050565b5f82825260208201905092915050565b8281835e5f83830152505050565b5f61052c826104fa565b6105368185610504565b9350610546818560208601610514565b61054f8161033e565b840191505092915050565b5f6105658383610522565b905092915050565b5f602082019050919050565b5f610583826104d1565b61058d81856104db565b93508360208202850161059f856104eb565b805f5b858110156105da57848403895281516105bb858261055a565b94506105c68361056d565b925060208a019950506001810190506105a2565b50829750879550505050505092915050565b5f6040820190506105ff5f8301856104c2565b81810360208301526106118184610579565b90509392505050565b610623816104b9565b811461062d575f80fd5b50565b5f8135905061063e8161061a565b92915050565b5f602082840312156106595761065861032e565b5b5f61066684828501610630565b91505092915050565b5f81519050919050565b5f82825260208201905092915050565b5f819050602082019050919050565b6106a1816104b9565b82525050565b5f6106b28383610698565b60208301905092915050565b5f602082019050919050565b5f6106d48261066f565b6106de8185610679565b93506106e983610689565b805f5b8381101561071957815161070088826106a7565b975061070b836106be565b9250506001810190506106ec565b5085935050505092915050565b5f6040820190506107395f8301856104c2565b818103602083015261074b81846106ca565b90509392505050565b7f4e487b71000000000000000000000000000000000000000000000000000000005f52603260045260245ffd5b5f7fff0000000000000000000000000000000000000000000000000000000000000082169050919050565b5f819050919050565b6107c66107c182610781565b6107ac565b82525050565b5f6107d782846107b5565b60018201915081905092915050565b7f4e487b71000000000000000000000000000000000000000000000000000000005f52601160045260245ffd5b5f61081d826104b9565b91507fffffffffffffffffffffffffffffffffffffffffffffffffffffffffffffffff820361084f5761084e6107e6565b5b600182019050919050565b7f4e487b71000000000000000000000000000000000000000000000000000000005f52601260045260245ffd5b5f610891826104b9565b915061089c836104b9565b9250826108ac576108ab61085a565b5b828204905092915050565b5f6108c1826104b9565b91506108cc836104b9565b9250826108dc576108db61085a565b5b828206905092915050565b5f6108f1826104b9565b91505f8203610903576109026107e6565b5b60018203905091905056fea26469706673582212202e0ef056aac76c7f83b00b01531d2ed35b733f6d79c5f6a2bea3ef82f46747c464736f6c63430008190033",
					"opcodes": "PUSH1 0x80 PUSH1 0x40 MSTORE CALLVALUE DUP1 ISZERO PUSH1 0xE JUMPI PUSH0 DUP1 REVERT JUMPDEST POP PUSH2 0x944 DUP1 PUSH2 0x1C PUSH0 CODECOPY PUSH0 RETURN INVALID PUSH1 0x80 PUSH1 0x40 MSTORE CALLVALUE DUP1 ISZERO PUSH2 0xF JUMPI PUSH0 DUP1 REVERT JUMPDEST POP PUSH1 0x4 CALLDATASIZE LT PUSH2 0x34 JUMPI PUSH0 CALLDATALOAD PUSH1 0xE0 SHR DUP1 PUSH4 0x436A66E7 EQ PUSH2 0x38 JUMPI DUP1 PUSH4 0x7B23C90D EQ PUSH2 0x69 JUMPI JUMPDEST PUSH0 DUP1 REVERT JUMPDEST PUSH2 0x52 PUSH1 0x4 DUP1 CALLDATASIZE SUB DUP2 ADD SWAP1 PUSH2 0x4D SWAP2 SWAP1 PUSH2 0x472 JUMP JUMPDEST PUSH2 0x9A JUMP JUMPDEST PUSH1 0x40 MLOAD PUSH2 0x60 SWAP3 SWAP2 SWAP1 PUSH2 0x5EC JUMP JUMPDEST PUSH1 0x40 MLOAD DUP1 SWAP2 SUB SWAP1 RETURN JUMPDEST PUSH2 0x83 PUSH1 0x4 DUP1 CALLDATASIZE SUB DUP2 ADD SWAP1 PUSH2 0x7E SWAP2 SWAP1 PUSH2 0x644 JUMP JUMPDEST PUSH2 0x240 JUMP JUMPDEST PUSH1 0x40 MLOAD PUSH2 0x91 SWAP3 SWAP2 SWAP1 PUSH2 0x726 JUMP JUMPDEST PUSH1 0x40 MLOAD DUP1 SWAP2 SUB SWAP1 RETURN JUMPDEST PUSH0 PUSH1 0x60 PUSH0 DUP4 MLOAD SWAP1 POP PUSH0 DUP2 PUSH8 0xFFFFFFFFFFFFFFFF DUP2 GT ISZERO PUSH2 0xBD JUMPI PUSH2 0xBC PUSH2 0x34E JUMP JUMPDEST JUMPDEST PUSH1 0x40 MLOAD SWAP1 DUP1 DUP3 MSTORE DUP1 PUSH1 0x20 MUL PUSH1 0x20 ADD DUP3 ADD PUSH1 0x40 MSTORE DUP1 ISZERO PUSH2 0xF0 JUMPI DUP2 PUSH1 0x20 ADD JUMPDEST PUSH1 0x60 DUP2 MSTORE PUSH1 0x20 ADD SWAP1 PUSH1 0x1 SWAP1 SUB SWAP1 DUP2 PUSH2 0xDB JUMPI SWAP1 POP JUMPDEST POP SWAP1 POP PUSH0 DUP3 PUSH8 0xFFFFFFFFFFFFFFFF DUP2 GT ISZERO PUSH2 0x10E JUMPI PUSH2 0x10D PUSH2 0x34E JUMP JUMPDEST JUMPDEST PUSH1 0x40 MLOAD SWAP1 DUP1 DUP3 MSTORE DUP1 PUSH1 0x20 MUL PUSH1 0x20 ADD DUP3 ADD PUSH1 0x40 MSTORE DUP1 ISZERO PUSH2 0x13C JUMPI DUP2 PUSH1 0x20 ADD PUSH1 0x20 DUP3 MUL DUP1 CALLDATASIZE DUP4 CALLDATACOPY DUP1 DUP3 ADD SWAP2 POP POP SWAP1 POP JUMPDEST POP SWAP1 POP PUSH0 JUMPDEST DUP4 DUP2 LT ISZERO PUSH2 0x231 JUMPI DUP7 DUP2 DUP2 MLOAD DUP2 LT PUSH2 0x15C JUMPI PUSH2 0x15B PUSH2 0x754 JUMP JUMPDEST JUMPDEST PUSH1 0x20 ADD ADD MLOAD PUSH1 0xF8 SHR PUSH1 0xF8 SHL DUP3 DUP3 DUP2 MLOAD DUP2 LT PUSH2 0x17A JUMPI PUSH2 0x179 PUSH2 0x754 JUMP JUMPDEST JUMPDEST PUSH1 0x20 MUL PUSH1 0x20 ADD ADD SWAP1 PUSH31 0xFFFFFFFFFFFFFFFFFFFFFFFFFFFFFFFFFFFFFFFFFFFFFFFFFFFFFFFFFFFFFF NOT AND SWAP1 DUP2 PUSH31 0xFFFFFFFFFFFFFFFFFFFFFFFFFFFFFFFFFFFFFFFFFFFFFFFFFFFFFFFFFFFFFF NOT AND DUP2 MSTORE POP POP DUP2 DUP2 DUP2 MLOAD DUP2 LT PUSH2 0x1DF JUMPI PUSH2 0x1DE PUSH2 0x754 JUMP JUMPDEST JUMPDEST PUSH1 0x20 MUL PUSH1 0x20 ADD ADD MLOAD PUSH1 0x40 MLOAD PUSH1 0x20 ADD PUSH2 0x1F7 SWAP2 SWAP1 PUSH2 0x7CC JUMP JUMPDEST PUSH1 0x40 MLOAD PUSH1 0x20 DUP2 DUP4 SUB SUB DUP2 MSTORE SWAP1 PUSH1 0x40 MSTORE DUP4 DUP3 DUP2 MLOAD DUP2 LT PUSH2 0x219 JUMPI PUSH2 0x218 PUSH2 0x754 JUMP JUMPDEST JUMPDEST PUSH1 0x20 MUL PUSH1 0x20 ADD ADD DUP2 SWAP1 MSTORE POP DUP1 DUP1 PUSH1 0x1 ADD SWAP2 POP POP PUSH2 0x141 JUMP JUMPDEST POP DUP3 DUP3 SWAP5 POP SWAP5 POP POP POP POP SWAP2 POP SWAP2 JUMP JUMPDEST PUSH0 PUSH1 0x60 PUSH0 DUP1 DUP5 SWAP1 POP JUMPDEST PUSH0 DUP2 EQ PUSH2 0x272 JUMPI DUP2 DUP1 PUSH2 0x25B SWAP1 PUSH2 0x813 JUMP JUMPDEST SWAP3 POP POP PUSH1 0xA DUP2 PUSH2 0x26B SWAP2 SWAP1 PUSH2 0x887 JUMP JUMPDEST SWAP1 POP PUSH2 0x249 JUMP JUMPDEST PUSH0 DUP3 SWAP1 POP PUSH0 DUP4 PUSH8 0xFFFFFFFFFFFFFFFF DUP2 GT ISZERO PUSH2 0x291 JUMPI PUSH2 0x290 PUSH2 0x34E JUMP JUMPDEST JUMPDEST PUSH1 0x40 MLOAD SWAP1 DUP1 DUP3 MSTORE DUP1 PUSH1 0x20 MUL PUSH1 0x20 ADD DUP3 ADD PUSH1 0x40 MSTORE DUP1 ISZERO PUSH2 0x2BF JUMPI DUP2 PUSH1 0x20 ADD PUSH1 0x20 DUP3 MUL DUP1 CALLDATASIZE DUP4 CALLDATACOPY DUP1 DUP3 ADD SWAP2 POP POP SWAP1 POP JUMPDEST POP SWAP1 POP JUMPDEST PUSH0 DUP8 EQ PUSH2 0x316 JUMPI PUSH1 0xA DUP8 PUSH2 0x2D7 SWAP2 SWAP1 PUSH2 0x8B7 JUMP JUMPDEST DUP2 DUP6 PUSH2 0x2E2 SWAP1 PUSH2 0x8E7 JUMP JUMPDEST SWAP6 POP DUP6 DUP2 MLOAD DUP2 LT PUSH2 0x2F6 JUMPI PUSH2 0x2F5 PUSH2 0x754 JUMP JUMPDEST JUMPDEST PUSH1 0x20 MUL PUSH1 0x20 ADD ADD DUP2 DUP2 MSTORE POP POP PUSH1 0xA DUP8 PUSH2 0x30F SWAP2 SWAP1 PUSH2 0x887 JUMP JUMPDEST SWAP7 POP PUSH2 0x2C3 JUMP JUMPDEST DUP2 DUP2 SWAP6 POP SWAP6 POP POP POP POP POP SWAP2 POP SWAP2 JUMP JUMPDEST PUSH0 PUSH1 0x40 MLOAD SWAP1 POP SWAP1 JUMP JUMPDEST PUSH0 DUP1 REVERT JUMPDEST PUSH0 DUP1 REVERT JUMPDEST PUSH0 DUP1 REVERT JUMPDEST PUSH0 DUP1 REVERT JUMPDEST PUSH0 PUSH1 0x1F NOT PUSH1 0x1F DUP4 ADD AND SWAP1 POP SWAP2 SWAP1 POP JUMP JUMPDEST PUSH32 0x4E487B7100000000000000000000000000000000000000000000000000000000 PUSH0 MSTORE PUSH1 0x41 PUSH1 0x4 MSTORE PUSH1 0x24 PUSH0 REVERT JUMPDEST PUSH2 0x384 DUP3 PUSH2 0x33E JUMP JUMPDEST DUP2 ADD DUP2 DUP2 LT PUSH8 0xFFFFFFFFFFFFFFFF DUP3 GT OR ISZERO PUSH2 0x3A3 JUMPI PUSH2 0x3A2 PUSH2 0x34E JUMP JUMPDEST JUMPDEST DUP1 PUSH1 0x40 MSTORE POP POP POP JUMP JUMPDEST PUSH0 PUSH2 0x3B5 PUSH2 0x325 JUMP JUMPDEST SWAP1 POP PUSH2 0x3C1 DUP3 DUP3 PUSH2 0x37B JUMP JUMPDEST SWAP2 SWAP1 POP JUMP JUMPDEST PUSH0 PUSH8 0xFFFFFFFFFFFFFFFF DUP3 GT ISZERO PUSH2 0x3E0 JUMPI PUSH2 0x3DF PUSH2 0x34E JUMP JUMPDEST JUMPDEST PUSH2 0x3E9 DUP3 PUSH2 0x33E JUMP JUMPDEST SWAP1 POP PUSH1 0x20 DUP2 ADD SWAP1 POP SWAP2 SWAP1 POP JUMP JUMPDEST DUP3 DUP2 DUP4 CALLDATACOPY PUSH0 DUP4 DUP4 ADD MSTORE POP POP POP JUMP JUMPDEST PUSH0 PUSH2 0x416 PUSH2 0x411 DUP5 PUSH2 0x3C6 JUMP JUMPDEST PUSH2 0x3AC JUMP JUMPDEST SWAP1 POP DUP3 DUP2 MSTORE PUSH1 0x20 DUP2 ADD DUP5 DUP5 DUP5 ADD GT ISZERO PUSH2 0x432 JUMPI PUSH2 0x431 PUSH2 0x33A JUMP JUMPDEST JUMPDEST PUSH2 0x43D DUP5 DUP3 DUP6 PUSH2 0x3F6 JUMP JUMPDEST POP SWAP4 SWAP3 POP POP POP JUMP JUMPDEST PUSH0 DUP3 PUSH1 0x1F DUP4 ADD SLT PUSH2 0x459 JUMPI PUSH2 0x458 PUSH2 0x336 JUMP JUMPDEST JUMPDEST DUP2 CALLDATALOAD PUSH2 0x469 DUP5 DUP3 PUSH1 0x20 DUP7 ADD PUSH2 0x404 JUMP JUMPDEST SWAP2 POP POP SWAP3 SWAP2 POP POP JUMP JUMPDEST PUSH0 PUSH1 0x20 DUP3 DUP5 SUB SLT ISZERO PUSH2 0x487 JUMPI PUSH2 0x486 PUSH2 0x32E JUMP JUMPDEST JUMPDEST PUSH0 DUP3 ADD CALLDATALOAD PUSH8 0xFFFFFFFFFFFFFFFF DUP2 GT ISZERO PUSH2 0x4A4 JUMPI PUSH2 0x4A3 PUSH2 0x332 JUMP JUMPDEST JUMPDEST PUSH2 0x4B0 DUP5 DUP3 DUP6 ADD PUSH2 0x445 JUMP JUMPDEST SWAP2 POP POP SWAP3 SWAP2 POP POP JUMP JUMPDEST PUSH0 DUP2 SWAP1 POP SWAP2 SWAP1 POP JUMP JUMPDEST PUSH2 0x4CB DUP2 PUSH2 0x4B9 JUMP JUMPDEST DUP3 MSTORE POP POP JUMP JUMPDEST PUSH0 DUP2 MLOAD SWAP1 POP SWAP2 SWAP1 POP JUMP JUMPDEST PUSH0 DUP3 DUP3 MSTORE PUSH1 0x20 DUP3 ADD SWAP1 POP SWAP3 SWAP2 POP POP JUMP JUMPDEST PUSH0 DUP2 SWAP1 POP PUSH1 0x20 DUP3 ADD SWAP1 POP SWAP2 SWAP1 POP JUMP JUMPDEST PUSH0 DUP2 MLOAD SWAP1 POP SWAP2 SWAP1 POP JUMP JUMPDEST PUSH0 DUP3 DUP3 MSTORE PUSH1 0x20 DUP3 ADD SWAP1 POP SWAP3 SWAP2 POP POP JUMP JUMPDEST DUP3 DUP2 DUP4 MCOPY PUSH0 DUP4 DUP4 ADD MSTORE POP POP POP JUMP JUMPDEST PUSH0 PUSH2 0x52C DUP3 PUSH2 0x4FA JUMP JUMPDEST PUSH2 0x536 DUP2 DUP6 PUSH2 0x504 JUMP JUMPDEST SWAP4 POP PUSH2 0x546 DUP2 DUP6 PUSH1 0x20 DUP7 ADD PUSH2 0x514 JUMP JUMPDEST PUSH2 0x54F DUP2 PUSH2 0x33E JUMP JUMPDEST DUP5 ADD SWAP2 POP POP SWAP3 SWAP2 POP POP JUMP JUMPDEST PUSH0 PUSH2 0x565 DUP4 DUP4 PUSH2 0x522 JUMP JUMPDEST SWAP1 POP SWAP3 SWAP2 POP POP JUMP JUMPDEST PUSH0 PUSH1 0x20 DUP3 ADD SWAP1 POP SWAP2 SWAP1 POP JUMP JUMPDEST PUSH0 PUSH2 0x583 DUP3 PUSH2 0x4D1 JUMP JUMPDEST PUSH2 0x58D DUP2 DUP6 PUSH2 0x4DB JUMP JUMPDEST SWAP4 POP DUP4 PUSH1 0x20 DUP3 MUL DUP6 ADD PUSH2 0x59F DUP6 PUSH2 0x4EB JUMP JUMPDEST DUP1 PUSH0 JUMPDEST DUP6 DUP2 LT ISZERO PUSH2 0x5DA JUMPI DUP5 DUP5 SUB DUP10 MSTORE DUP2 MLOAD PUSH2 0x5BB DUP6 DUP3 PUSH2 0x55A JUMP JUMPDEST SWAP5 POP PUSH2 0x5C6 DUP4 PUSH2 0x56D JUMP JUMPDEST SWAP3 POP PUSH1 0x20 DUP11 ADD SWAP10 POP POP PUSH1 0x1 DUP2 ADD SWAP1 POP PUSH2 0x5A2 JUMP JUMPDEST POP DUP3 SWAP8 POP DUP8 SWAP6 POP POP POP POP POP POP SWAP3 SWAP2 POP POP JUMP JUMPDEST PUSH0 PUSH1 0x40 DUP3 ADD SWAP1 POP PUSH2 0x5FF PUSH0 DUP4 ADD DUP6 PUSH2 0x4C2 JUMP JUMPDEST DUP2 DUP2 SUB PUSH1 0x20 DUP4 ADD MSTORE PUSH2 0x611 DUP2 DUP5 PUSH2 0x579 JUMP JUMPDEST SWAP1 POP SWAP4 SWAP3 POP POP POP JUMP JUMPDEST PUSH2 0x623 DUP2 PUSH2 0x4B9 JUMP JUMPDEST DUP2 EQ PUSH2 0x62D JUMPI PUSH0 DUP1 REVERT JUMPDEST POP JUMP JUMPDEST PUSH0 DUP2 CALLDATALOAD SWAP1 POP PUSH2 0x63E DUP2 PUSH2 0x61A JUMP JUMPDEST SWAP3 SWAP2 POP POP JUMP JUMPDEST PUSH0 PUSH1 0x20 DUP3 DUP5 SUB SLT ISZERO PUSH2 0x659 JUMPI PUSH2 0x658 PUSH2 0x32E JUMP JUMPDEST JUMPDEST PUSH0 PUSH2 0x666 DUP5 DUP3 DUP6 ADD PUSH2 0x630 JUMP JUMPDEST SWAP2 POP POP SWAP3 SWAP2 POP POP JUMP JUMPDEST PUSH0 DUP2 MLOAD SWAP1 POP SWAP2 SWAP1 POP JUMP JUMPDEST PUSH0 DUP3 DUP3 MSTORE PUSH1 0x20 DUP3 ADD SWAP1 POP SWAP3 SWAP2 POP POP JUMP JUMPDEST PUSH0 DUP2 SWAP1 POP PUSH1 0x20 DUP3 ADD SWAP1 POP SWAP2 SWAP1 POP JUMP JUMPDEST PUSH2 0x6A1 DUP2 PUSH2 0x4B9 JUMP JUMPDEST DUP3 MSTORE POP POP JUMP JUMPDEST PUSH0 PUSH2 0x6B2 DUP4 DUP4 PUSH2 0x698 JUMP JUMPDEST PUSH1 0x20 DUP4 ADD SWAP1 POP SWAP3 SWAP2 POP POP JUMP JUMPDEST PUSH0 PUSH1 0x20 DUP3 ADD SWAP1 POP SWAP2 SWAP1 POP JUMP JUMPDEST PUSH0 PUSH2 0x6D4 DUP3 PUSH2 0x66F JUMP JUMPDEST PUSH2 0x6DE DUP2 DUP6 PUSH2 0x679 JUMP JUMPDEST SWAP4 POP PUSH2 0x6E9 DUP4 PUSH2 0x689 JUMP JUMPDEST DUP1 PUSH0 JUMPDEST DUP4 DUP2 LT ISZERO PUSH2 0x719 JUMPI DUP2 MLOAD PUSH2 0x700 DUP9 DUP3 PUSH2 0x6A7 JUMP JUMPDEST SWAP8 POP PUSH2 0x70B DUP4 PUSH2 0x6BE JUMP JUMPDEST SWAP3 POP POP PUSH1 0x1 DUP2 ADD SWAP1 POP PUSH2 0x6EC JUMP JUMPDEST POP DUP6 SWAP4 POP POP POP POP SWAP3 SWAP2 POP POP JUMP JUMPDEST PUSH0 PUSH1 0x40 DUP3 ADD SWAP1 POP PUSH2 0x739 PUSH0 DUP4 ADD DUP6 PUSH2 0x4C2 JUMP JUMPDEST DUP2 DUP2 SUB PUSH1 0x20 DUP4 ADD MSTORE PUSH2 0x74B DUP2 DUP5 PUSH2 0x6CA JUMP JUMPDEST SWAP1 POP SWAP4 SWAP3 POP POP POP JUMP JUMPDEST PUSH32 0x4E487B7100000000000000000000000000000000000000000000000000000000 PUSH0 MSTORE PUSH1 0x32 PUSH1 0x4 MSTORE PUSH1 0x24 PUSH0 REVERT JUMPDEST PUSH0 PUSH32 0xFF00000000000000000000000000000000000000000000000000000000000000 DUP3 AND SWAP1 POP SWAP2 SWAP1 POP JUMP JUMPDEST PUSH0 DUP2 SWAP1 POP SWAP2 SWAP1 POP JUMP JUMPDEST PUSH2 0x7C6 PUSH2 0x7C1 DUP3 PUSH2 0x781 JUMP JUMPDEST PUSH2 0x7AC JUMP JUMPDEST DUP3 MSTORE POP POP JUMP JUMPDEST PUSH0 PUSH2 0x7D7 DUP3 DUP5 PUSH2 0x7B5 JUMP JUMPDEST PUSH1 0x1 DUP3 ADD SWAP2 POP DUP2 SWAP1 POP SWAP3 SWAP2 POP POP JUMP JUMPDEST PUSH32 0x4E487B7100000000000000000000000000000000000000000000000000000000 PUSH0 MSTORE PUSH1 0x11 PUSH1 0x4 MSTORE PUSH1 0x24 PUSH0 REVERT JUMPDEST PUSH0 PUSH2 0x81D DUP3 PUSH2 0x4B9 JUMP JUMPDEST SWAP2 POP PUSH32 0xFFFFFFFFFFFFFFFFFFFFFFFFFFFFFFFFFFFFFFFFFFFFFFFFFFFFFFFFFFFFFFFF DUP3 SUB PUSH2 0x84F JUMPI PUSH2 0x84E PUSH2 0x7E6 JUMP JUMPDEST JUMPDEST PUSH1 0x1 DUP3 ADD SWAP1 POP SWAP2 SWAP1 POP JUMP JUMPDEST PUSH32 0x4E487B7100000000000000000000000000000000000000000000000000000000 PUSH0 MSTORE PUSH1 0x12 PUSH1 0x4 MSTORE PUSH1 0x24 PUSH0 REVERT JUMPDEST PUSH0 PUSH2 0x891 DUP3 PUSH2 0x4B9 JUMP JUMPDEST SWAP2 POP PUSH2 0x89C DUP4 PUSH2 0x4B9 JUMP JUMPDEST SWAP3 POP DUP3 PUSH2 0x8AC JUMPI PUSH2 0x8AB PUSH2 0x85A JUMP JUMPDEST JUMPDEST DUP3 DUP3 DIV SWAP1 POP SWAP3 SWAP2 POP POP JUMP JUMPDEST PUSH0 PUSH2 0x8C1 DUP3 PUSH2 0x4B9 JUMP JUMPDEST SWAP2 POP PUSH2 0x8CC DUP4 PUSH2 0x4B9 JUMP JUMPDEST SWAP3 POP DUP3 PUSH2 0x8DC JUMPI PUSH2 0x8DB PUSH2 0x85A JUMP JUMPDEST JUMPDEST DUP3 DUP3 MOD SWAP1 POP SWAP3 SWAP2 POP POP JUMP JUMPDEST PUSH0 PUSH2 0x8F1 DUP3 PUSH2 0x4B9 JUMP JUMPDEST SWAP2 POP PUSH0 DUP3 SUB PUSH2 0x903 JUMPI PUSH2 0x902 PUSH2 0x7E6 JUMP JUMPDEST JUMPDEST PUSH1 0x1 DUP3 SUB SWAP1 POP SWAP2 SWAP1 POP JUMP INVALID LOG2 PUSH5 0x6970667358 0x22 SLT KECCAK256 0x2E 0xE CREATE JUMP 0xAA 0xC7 PUSH13 0x7F83B00B01531D2ED35B733F6D PUSH26 0xC5F6A2BEA3EF82F46747C464736F6C6343000819003300000000 "
				},
				"gasEstimates": {
					"creation": {
						"codeDepositCost": "474400",
						"executionCost": "509",
						"totalCost": "474909"
					},
					"external": {
						"digits(uint256)": "infinite",
						"length(string)": "infinite"
					}
				},
				"methodIdentifiers": {
					"digits(uint256)": "7b23c90d",
					"length(string)": "436a66e7"
				}
			},
			"storageLayout": {
				"storage": [],
				"types": null
			},
			"userdoc": {
				"kind": "user",
				"methods": {},
				"version": 1
			}
		}
	}
}