{
	"solidity_test/test6.sol": {
		"BASE": {
			"abi": [
				{
					"inputs": [
						{
							"internalType": "bytes",
							"name": "_s",
							"type": "bytes"
						}
					],
					"name": "bytesToString",
					"outputs": [
						{
							"internalType": "string",
							"name": "",
							"type": "string"
						}
					],
					"stateMutability": "pure",
					"type": "function"
				},
				{
					"inputs": [
						{
							"internalType": "bytes",
							"name": "_b",
							"type": "bytes"
						},
						{
							"internalType": "uint256",
							"name": "_n",
							"type": "uint256"
						}
					],
					"name": "getByte1",
					"outputs": [
						{
							"internalType": "bytes1",
							"name": "",
							"type": "bytes1"
						}
					],
					"stateMutability": "pure",
					"type": "function"
				},
				{
					"inputs": [
						{
							"internalType": "bytes",
							"name": "_b",
							"type": "bytes"
						}
					],
					"name": "getBytes",
					"outputs": [
						{
							"internalType": "uint256",
							"name": "",
							"type": "uint256"
						}
					],
					"stateMutability": "pure",
					"type": "function"
				},
				{
					"inputs": [
						{
							"internalType": "bytes",
							"name": "b",
							"type": "bytes"
						}
					],
					"name": "split",
					"outputs": [
						{
							"internalType": "uint256",
							"name": "",
							"type": "uint256"
						},
						{
							"internalType": "bytes1[]",
							"name": "",
							"type": "bytes1[]"
						},
						{
							"internalType": "string",
							"name": "",
							"type": "string"
						}
					],
					"stateMutability": "pure",
					"type": "function"
				}
			],
			"devdoc": {
				"kind": "dev",
				"methods": {},
				"version": 1
			},
			"evm": {
				"assembly": "    /* \"solidity_test/test6.sol\":1593:2284  contract BASE {... */\n  mstore(0x40, 0x80)\n  callvalue\n  dup1\n  iszero\n  tag_1\n  jumpi\n  0x00\n  dup1\n  revert\ntag_1:\n  pop\n  dataSize(sub_0)\n  dup1\n  dataOffset(sub_0)\n  0x00\n  codecopy\n  0x00\n  return\nstop\n\nsub_0: assembly {\n        /* \"solidity_test/test6.sol\":1593:2284  contract BASE {... */\n      mstore(0x40, 0x80)\n      callvalue\n      dup1\n      iszero\n      tag_1\n      jumpi\n      0x00\n      dup1\n      revert\n    tag_1:\n      pop\n      jumpi(tag_2, lt(calldatasize, 0x04))\n      shr(0xe0, calldataload(0x00))\n      dup1\n      0x39614e4f\n      eq\n      tag_3\n      jumpi\n      dup1\n      0x65d894e9\n      eq\n      tag_4\n      jumpi\n      dup1\n      0x781c6dbe\n      eq\n      tag_5\n      jumpi\n      dup1\n      0xcd63efd4\n      eq\n      tag_6\n      jumpi\n    tag_2:\n      0x00\n      dup1\n      revert\n        /* \"solidity_test/test6.sol\":1832:1943  function bytesToString(bytes memory _s) public pure returns(string memory) {... */\n    tag_3:\n      tag_7\n      0x04\n      dup1\n      calldatasize\n      sub\n      dup2\n      add\n      swap1\n      tag_8\n      swap2\n      swap1\n      tag_9\n      jump\t// in\n    tag_8:\n      tag_10\n      jump\t// in\n    tag_7:\n      mload(0x40)\n      tag_11\n      swap2\n      swap1\n      tag_12\n      jump\t// in\n    tag_11:\n      mload(0x40)\n      dup1\n      swap2\n      sub\n      swap1\n      return\n        /* \"solidity_test/test6.sol\":1951:2281  function split(bytes memory b) public pure returns(uint, bytes1[] memory, string memory) {... */\n    tag_4:\n      tag_13\n      0x04\n      dup1\n      calldatasize\n      sub\n      dup2\n      add\n      swap1\n      tag_14\n      swap2\n      swap1\n      tag_9\n      jump\t// in\n    tag_14:\n      tag_15\n      jump\t// in\n    tag_13:\n      mload(0x40)\n      tag_16\n      swap4\n      swap3\n      swap2\n      swap1\n      tag_17\n      jump\t// in\n    tag_16:\n      mload(0x40)\n      dup1\n      swap2\n      sub\n      swap1\n      return\n        /* \"solidity_test/test6.sol\":1614:1710  function getBytes(bytes memory _b) public pure returns(uint) {... */\n    tag_5:\n      tag_18\n      0x04\n      dup1\n      calldatasize\n      sub\n      dup2\n      add\n      swap1\n      tag_19\n      swap2\n      swap1\n      tag_9\n      jump\t// in\n    tag_19:\n      tag_20\n      jump\t// in\n    tag_18:\n      mload(0x40)\n      tag_21\n      swap2\n      swap1\n      tag_22\n      jump\t// in\n    tag_21:\n      mload(0x40)\n      dup1\n      swap2\n      sub\n      swap1\n      return\n        /* \"solidity_test/test6.sol\":1718:1824  function getByte1(bytes memory _b, uint _n) public pure returns(bytes1) {... */\n    tag_6:\n      tag_23\n      0x04\n      dup1\n      calldatasize\n      sub\n      dup2\n      add\n      swap1\n      tag_24\n      swap2\n      swap1\n      tag_25\n      jump\t// in\n    tag_24:\n      tag_26\n      jump\t// in\n    tag_23:\n      mload(0x40)\n      tag_27\n      swap2\n      swap1\n      tag_28\n      jump\t// in\n    tag_27:\n      mload(0x40)\n      dup1\n      swap2\n      sub\n      swap1\n      return\n        /* \"solidity_test/test6.sol\":1832:1943  function bytesToString(bytes memory _s) public pure returns(string memory) {... */\n    tag_10:\n        /* \"solidity_test/test6.sol\":1892:1905  string memory */\n      0x60\n        /* \"solidity_test/test6.sol\":1932:1934  _s */\n      dup2\n        /* \"solidity_test/test6.sol\":1918:1935  return string(_s) */\n      swap1\n      pop\n        /* \"solidity_test/test6.sol\":1832:1943  function bytesToString(bytes memory _s) public pure returns(string memory) {... */\n      swap2\n      swap1\n      pop\n      jump\t// out\n        /* \"solidity_test/test6.sol\":1951:2281  function split(bytes memory b) public pure returns(uint, bytes1[] memory, string memory) {... */\n    tag_15:\n        /* \"solidity_test/test6.sol\":2002:2006  uint */\n      0x00\n        /* \"solidity_test/test6.sol\":2008:2023  bytes1[] memory */\n      0x60\n        /* \"solidity_test/test6.sol\":2025:2038  string memory */\n      dup1\n        /* \"solidity_test/test6.sol\":2051:2063  uint _length */\n      0x00\n        /* \"solidity_test/test6.sol\":2066:2067  b */\n      dup5\n        /* \"solidity_test/test6.sol\":2066:2074  b.length */\n      mload\n        /* \"solidity_test/test6.sol\":2051:2074  uint _length = b.length */\n      swap1\n      pop\n        /* \"solidity_test/test6.sol\":2087:2105  bytes1[] memory _b */\n      0x00\n        /* \"solidity_test/test6.sol\":2121:2128  _length */\n      dup2\n        /* \"solidity_test/test6.sol\":2108:2129  new bytes1[](_length) */\n      0xffffffffffffffff\n      dup2\n      gt\n      iszero\n      tag_31\n      jumpi\n      tag_32\n      tag_33\n      jump\t// in\n    tag_32:\n    tag_31:\n      mload(0x40)\n      swap1\n      dup1\n      dup3\n      mstore\n      dup1\n      0x20\n      mul\n      0x20\n      add\n      dup3\n      add\n      0x40\n      mstore\n      dup1\n      iszero\n      tag_34\n      jumpi\n      dup2\n      0x20\n      add\n      0x20\n      dup3\n      mul\n      dup1\n      calldatasize\n      dup4\n      calldatacopy\n      dup1\n      dup3\n      add\n      swap2\n      pop\n      pop\n      swap1\n      pop\n    tag_34:\n      pop\n        /* \"solidity_test/test6.sol\":2087:2129  bytes1[] memory _b = new bytes1[](_length) */\n      swap1\n      pop\n        /* \"solidity_test/test6.sol\":2146:2152  uint i */\n      0x00\n        /* \"solidity_test/test6.sol\":2142:2211  for(uint i=0; i<_length; i++) {... */\n    tag_35:\n        /* \"solidity_test/test6.sol\":2158:2165  _length */\n      dup3\n        /* \"solidity_test/test6.sol\":2156:2157  i */\n      dup2\n        /* \"solidity_test/test6.sol\":2156:2165  i<_length */\n      lt\n        /* \"solidity_test/test6.sol\":2142:2211  for(uint i=0; i<_length; i++) {... */\n      iszero\n      tag_36\n      jumpi\n        /* \"solidity_test/test6.sol\":2195:2196  b */\n      dup7\n        /* \"solidity_test/test6.sol\":2197:2198  i */\n      dup2\n        /* \"solidity_test/test6.sol\":2195:2199  b[i] */\n      dup2\n      mload\n      dup2\n      lt\n      tag_38\n      jumpi\n      tag_39\n      tag_40\n      jump\t// in\n    tag_39:\n    tag_38:\n      0x20\n      add\n      add\n      mload\n      0xf8\n      shr\n      0xf8\n      shl\n        /* \"solidity_test/test6.sol\":2187:2189  _b */\n      dup3\n        /* \"solidity_test/test6.sol\":2190:2191  i */\n      dup3\n        /* \"solidity_test/test6.sol\":2187:2192  _b[i] */\n      dup2\n      mload\n      dup2\n      lt\n      tag_41\n      jumpi\n      tag_42\n      tag_40\n      jump\t// in\n    tag_42:\n    tag_41:\n      0x20\n      mul\n      0x20\n      add\n      add\n        /* \"solidity_test/test6.sol\":2187:2199  _b[i] = b[i] */\n      swap1\n      not(0xffffffffffffffffffffffffffffffffffffffffffffffffffffffffffffff)\n      and\n      swap1\n      dup2\n      not(0xffffffffffffffffffffffffffffffffffffffffffffffffffffffffffffff)\n      and\n      dup2\n      mstore\n      pop\n      pop\n        /* \"solidity_test/test6.sol\":2167:2170  i++ */\n      dup1\n      dup1\n      0x01\n      add\n      swap2\n      pop\n      pop\n        /* \"solidity_test/test6.sol\":2142:2211  for(uint i=0; i<_length; i++) {... */\n      jump(tag_35)\n    tag_36:\n      pop\n        /* \"solidity_test/test6.sol\":2231:2238  _length */\n      dup2\n        /* \"solidity_test/test6.sol\":2240:2242  _b */\n      dup2\n        /* \"solidity_test/test6.sol\":2268:2270  _b */\n      dup3\n        /* \"solidity_test/test6.sol\":2251:2271  abi.encodePacked(_b) */\n      add(0x20, mload(0x40))\n      tag_43\n      swap2\n      swap1\n      tag_44\n      jump\t// in\n    tag_43:\n      mload(0x40)\n      0x20\n      dup2\n      dup4\n      sub\n      sub\n      dup2\n      mstore\n      swap1\n      0x40\n      mstore\n        /* \"solidity_test/test6.sol\":2223:2273  return (_length, _b, string(abi.encodePacked(_b))) */\n      swap5\n      pop\n      swap5\n      pop\n      swap5\n      pop\n      pop\n      pop\n        /* \"solidity_test/test6.sol\":1951:2281  function split(bytes memory b) public pure returns(uint, bytes1[] memory, string memory) {... */\n      swap2\n      swap4\n      swap1\n      swap3\n      pop\n      jump\t// out\n        /* \"solidity_test/test6.sol\":1614:1710  function getBytes(bytes memory _b) public pure returns(uint) {... */\n    tag_20:\n        /* \"solidity_test/test6.sol\":1669:1673  uint */\n      0x00\n        /* \"solidity_test/test6.sol\":1693:1695  _b */\n      dup2\n        /* \"solidity_test/test6.sol\":1693:1702  _b.length */\n      mload\n        /* \"solidity_test/test6.sol\":1686:1702  return _b.length */\n      swap1\n      pop\n        /* \"solidity_test/test6.sol\":1614:1710  function getBytes(bytes memory _b) public pure returns(uint) {... */\n      swap2\n      swap1\n      pop\n      jump\t// out\n        /* \"solidity_test/test6.sol\":1718:1824  function getByte1(bytes memory _b, uint _n) public pure returns(bytes1) {... */\n    tag_26:\n        /* \"solidity_test/test6.sol\":1782:1788  bytes1 */\n      0x00\n        /* \"solidity_test/test6.sol\":1808:1810  _b */\n      dup3\n        /* \"solidity_test/test6.sol\":1814:1815  1 */\n      0x01\n        /* \"solidity_test/test6.sol\":1811:1813  _n */\n      dup4\n        /* \"solidity_test/test6.sol\":1811:1815  _n-1 */\n      tag_47\n      swap2\n      swap1\n      tag_48\n      jump\t// in\n    tag_47:\n        /* \"solidity_test/test6.sol\":1808:1816  _b[_n-1] */\n      dup2\n      mload\n      dup2\n      lt\n      tag_49\n      jumpi\n      tag_50\n      tag_40\n      jump\t// in\n    tag_50:\n    tag_49:\n      0x20\n      add\n      add\n      mload\n      0xf8\n      shr\n      0xf8\n      shl\n        /* \"solidity_test/test6.sol\":1801:1816  return _b[_n-1] */\n      swap1\n      pop\n        /* \"solidity_test/test6.sol\":1718:1824  function getByte1(bytes memory _b, uint _n) public pure returns(bytes1) {... */\n      swap3\n      swap2\n      pop\n      pop\n      jump\t// out\n        /* \"#utility.yul\":7:82   */\n    tag_51:\n        /* \"#utility.yul\":40:46   */\n      0x00\n        /* \"#utility.yul\":73:75   */\n      0x40\n        /* \"#utility.yul\":67:76   */\n      mload\n        /* \"#utility.yul\":57:76   */\n      swap1\n      pop\n        /* \"#utility.yul\":7:82   */\n      swap1\n      jump\t// out\n        /* \"#utility.yul\":88:205   */\n    tag_52:\n        /* \"#utility.yul\":197:198   */\n      0x00\n        /* \"#utility.yul\":194:195   */\n      dup1\n        /* \"#utility.yul\":187:199   */\n      revert\n        /* \"#utility.yul\":211:328   */\n    tag_53:\n        /* \"#utility.yul\":320:321   */\n      0x00\n        /* \"#utility.yul\":317:318   */\n      dup1\n        /* \"#utility.yul\":310:322   */\n      revert\n        /* \"#utility.yul\":334:451   */\n    tag_54:\n        /* \"#utility.yul\":443:444   */\n      0x00\n        /* \"#utility.yul\":440:441   */\n      dup1\n        /* \"#utility.yul\":433:445   */\n      revert\n        /* \"#utility.yul\":457:574   */\n    tag_55:\n        /* \"#utility.yul\":566:567   */\n      0x00\n        /* \"#utility.yul\":563:564   */\n      dup1\n        /* \"#utility.yul\":556:568   */\n      revert\n        /* \"#utility.yul\":580:682   */\n    tag_56:\n        /* \"#utility.yul\":621:627   */\n      0x00\n        /* \"#utility.yul\":672:674   */\n      0x1f\n        /* \"#utility.yul\":668:675   */\n      not\n        /* \"#utility.yul\":663:665   */\n      0x1f\n        /* \"#utility.yul\":656:661   */\n      dup4\n        /* \"#utility.yul\":652:666   */\n      add\n        /* \"#utility.yul\":648:676   */\n      and\n        /* \"#utility.yul\":638:676   */\n      swap1\n      pop\n        /* \"#utility.yul\":580:682   */\n      swap2\n      swap1\n      pop\n      jump\t// out\n        /* \"#utility.yul\":688:868   */\n    tag_33:\n        /* \"#utility.yul\":736:813   */\n      0x4e487b7100000000000000000000000000000000000000000000000000000000\n        /* \"#utility.yul\":733:734   */\n      0x00\n        /* \"#utility.yul\":726:814   */\n      mstore\n        /* \"#utility.yul\":833:837   */\n      0x41\n        /* \"#utility.yul\":830:831   */\n      0x04\n        /* \"#utility.yul\":823:838   */\n      mstore\n        /* \"#utility.yul\":857:861   */\n      0x24\n        /* \"#utility.yul\":854:855   */\n      0x00\n        /* \"#utility.yul\":847:862   */\n      revert\n        /* \"#utility.yul\":874:1155   */\n    tag_57:\n        /* \"#utility.yul\":957:984   */\n      tag_94\n        /* \"#utility.yul\":979:983   */\n      dup3\n        /* \"#utility.yul\":957:984   */\n      tag_56\n      jump\t// in\n    tag_94:\n        /* \"#utility.yul\":949:955   */\n      dup2\n        /* \"#utility.yul\":945:985   */\n      add\n        /* \"#utility.yul\":1087:1093   */\n      dup2\n        /* \"#utility.yul\":1075:1085   */\n      dup2\n        /* \"#utility.yul\":1072:1094   */\n      lt\n        /* \"#utility.yul\":1051:1069   */\n      0xffffffffffffffff\n        /* \"#utility.yul\":1039:1049   */\n      dup3\n        /* \"#utility.yul\":1036:1070   */\n      gt\n        /* \"#utility.yul\":1033:1095   */\n      or\n        /* \"#utility.yul\":1030:1118   */\n      iszero\n      tag_95\n      jumpi\n        /* \"#utility.yul\":1098:1116   */\n      tag_96\n      tag_33\n      jump\t// in\n    tag_96:\n        /* \"#utility.yul\":1030:1118   */\n    tag_95:\n        /* \"#utility.yul\":1138:1148   */\n      dup1\n        /* \"#utility.yul\":1134:1136   */\n      0x40\n        /* \"#utility.yul\":1127:1149   */\n      mstore\n        /* \"#utility.yul\":917:1155   */\n      pop\n        /* \"#utility.yul\":874:1155   */\n      pop\n      pop\n      jump\t// out\n        /* \"#utility.yul\":1161:1290   */\n    tag_58:\n        /* \"#utility.yul\":1195:1201   */\n      0x00\n        /* \"#utility.yul\":1222:1242   */\n      tag_98\n      tag_51\n      jump\t// in\n    tag_98:\n        /* \"#utility.yul\":1212:1242   */\n      swap1\n      pop\n        /* \"#utility.yul\":1251:1284   */\n      tag_99\n        /* \"#utility.yul\":1279:1283   */\n      dup3\n        /* \"#utility.yul\":1271:1277   */\n      dup3\n        /* \"#utility.yul\":1251:1284   */\n      tag_57\n      jump\t// in\n    tag_99:\n        /* \"#utility.yul\":1161:1290   */\n      swap2\n      swap1\n      pop\n      jump\t// out\n        /* \"#utility.yul\":1296:1603   */\n    tag_59:\n        /* \"#utility.yul\":1357:1361   */\n      0x00\n        /* \"#utility.yul\":1447:1465   */\n      0xffffffffffffffff\n        /* \"#utility.yul\":1439:1445   */\n      dup3\n        /* \"#utility.yul\":1436:1466   */\n      gt\n        /* \"#utility.yul\":1433:1489   */\n      iszero\n      tag_101\n      jumpi\n        /* \"#utility.yul\":1469:1487   */\n      tag_102\n      tag_33\n      jump\t// in\n    tag_102:\n        /* \"#utility.yul\":1433:1489   */\n    tag_101:\n        /* \"#utility.yul\":1507:1536   */\n      tag_103\n        /* \"#utility.yul\":1529:1535   */\n      dup3\n        /* \"#utility.yul\":1507:1536   */\n      tag_56\n      jump\t// in\n    tag_103:\n        /* \"#utility.yul\":1499:1536   */\n      swap1\n      pop\n        /* \"#utility.yul\":1591:1595   */\n      0x20\n        /* \"#utility.yul\":1585:1589   */\n      dup2\n        /* \"#utility.yul\":1581:1596   */\n      add\n        /* \"#utility.yul\":1573:1596   */\n      swap1\n      pop\n        /* \"#utility.yul\":1296:1603   */\n      swap2\n      swap1\n      pop\n      jump\t// out\n        /* \"#utility.yul\":1609:1757   */\n    tag_60:\n        /* \"#utility.yul\":1707:1713   */\n      dup3\n        /* \"#utility.yul\":1702:1705   */\n      dup2\n        /* \"#utility.yul\":1697:1700   */\n      dup4\n        /* \"#utility.yul\":1684:1714   */\n      calldatacopy\n        /* \"#utility.yul\":1748:1749   */\n      0x00\n        /* \"#utility.yul\":1739:1745   */\n      dup4\n        /* \"#utility.yul\":1734:1737   */\n      dup4\n        /* \"#utility.yul\":1730:1746   */\n      add\n        /* \"#utility.yul\":1723:1750   */\n      mstore\n        /* \"#utility.yul\":1609:1757   */\n      pop\n      pop\n      pop\n      jump\t// out\n        /* \"#utility.yul\":1763:2186   */\n    tag_61:\n        /* \"#utility.yul\":1840:1845   */\n      0x00\n        /* \"#utility.yul\":1865:1930   */\n      tag_106\n        /* \"#utility.yul\":1881:1929   */\n      tag_107\n        /* \"#utility.yul\":1922:1928   */\n      dup5\n        /* \"#utility.yul\":1881:1929   */\n      tag_59\n      jump\t// in\n    tag_107:\n        /* \"#utility.yul\":1865:1930   */\n      tag_58\n      jump\t// in\n    tag_106:\n        /* \"#utility.yul\":1856:1930   */\n      swap1\n      pop\n        /* \"#utility.yul\":1953:1959   */\n      dup3\n        /* \"#utility.yul\":1946:1951   */\n      dup2\n        /* \"#utility.yul\":1939:1960   */\n      mstore\n        /* \"#utility.yul\":1991:1995   */\n      0x20\n        /* \"#utility.yul\":1984:1989   */\n      dup2\n        /* \"#utility.yul\":1980:1996   */\n      add\n        /* \"#utility.yul\":2029:2032   */\n      dup5\n        /* \"#utility.yul\":2020:2026   */\n      dup5\n        /* \"#utility.yul\":2015:2018   */\n      dup5\n        /* \"#utility.yul\":2011:2027   */\n      add\n        /* \"#utility.yul\":2008:2033   */\n      gt\n        /* \"#utility.yul\":2005:2117   */\n      iszero\n      tag_108\n      jumpi\n        /* \"#utility.yul\":2036:2115   */\n      tag_109\n      tag_55\n      jump\t// in\n    tag_109:\n        /* \"#utility.yul\":2005:2117   */\n    tag_108:\n        /* \"#utility.yul\":2126:2180   */\n      tag_110\n        /* \"#utility.yul\":2173:2179   */\n      dup5\n        /* \"#utility.yul\":2168:2171   */\n      dup3\n        /* \"#utility.yul\":2163:2166   */\n      dup6\n        /* \"#utility.yul\":2126:2180   */\n      tag_60\n      jump\t// in\n    tag_110:\n        /* \"#utility.yul\":1846:2186   */\n      pop\n        /* \"#utility.yul\":1763:2186   */\n      swap4\n      swap3\n      pop\n      pop\n      pop\n      jump\t// out\n        /* \"#utility.yul\":2205:2543   */\n    tag_62:\n        /* \"#utility.yul\":2260:2265   */\n      0x00\n        /* \"#utility.yul\":2309:2312   */\n      dup3\n        /* \"#utility.yul\":2302:2306   */\n      0x1f\n        /* \"#utility.yul\":2294:2300   */\n      dup4\n        /* \"#utility.yul\":2290:2307   */\n      add\n        /* \"#utility.yul\":2286:2313   */\n      slt\n        /* \"#utility.yul\":2276:2398   */\n      tag_112\n      jumpi\n        /* \"#utility.yul\":2317:2396   */\n      tag_113\n      tag_54\n      jump\t// in\n    tag_113:\n        /* \"#utility.yul\":2276:2398   */\n    tag_112:\n        /* \"#utility.yul\":2434:2440   */\n      dup2\n        /* \"#utility.yul\":2421:2441   */\n      calldataload\n        /* \"#utility.yul\":2459:2537   */\n      tag_114\n        /* \"#utility.yul\":2533:2536   */\n      dup5\n        /* \"#utility.yul\":2525:2531   */\n      dup3\n        /* \"#utility.yul\":2518:2522   */\n      0x20\n        /* \"#utility.yul\":2510:2516   */\n      dup7\n        /* \"#utility.yul\":2506:2523   */\n      add\n        /* \"#utility.yul\":2459:2537   */\n      tag_61\n      jump\t// in\n    tag_114:\n        /* \"#utility.yul\":2450:2537   */\n      swap2\n      pop\n        /* \"#utility.yul\":2266:2543   */\n      pop\n        /* \"#utility.yul\":2205:2543   */\n      swap3\n      swap2\n      pop\n      pop\n      jump\t// out\n        /* \"#utility.yul\":2549:3056   */\n    tag_9:\n        /* \"#utility.yul\":2617:2623   */\n      0x00\n        /* \"#utility.yul\":2666:2668   */\n      0x20\n        /* \"#utility.yul\":2654:2663   */\n      dup3\n        /* \"#utility.yul\":2645:2652   */\n      dup5\n        /* \"#utility.yul\":2641:2664   */\n      sub\n        /* \"#utility.yul\":2637:2669   */\n      slt\n        /* \"#utility.yul\":2634:2753   */\n      iszero\n      tag_116\n      jumpi\n        /* \"#utility.yul\":2672:2751   */\n      tag_117\n      tag_52\n      jump\t// in\n    tag_117:\n        /* \"#utility.yul\":2634:2753   */\n    tag_116:\n        /* \"#utility.yul\":2820:2821   */\n      0x00\n        /* \"#utility.yul\":2809:2818   */\n      dup3\n        /* \"#utility.yul\":2805:2822   */\n      add\n        /* \"#utility.yul\":2792:2823   */\n      calldataload\n        /* \"#utility.yul\":2850:2868   */\n      0xffffffffffffffff\n        /* \"#utility.yul\":2842:2848   */\n      dup2\n        /* \"#utility.yul\":2839:2869   */\n      gt\n        /* \"#utility.yul\":2836:2953   */\n      iszero\n      tag_118\n      jumpi\n        /* \"#utility.yul\":2872:2951   */\n      tag_119\n      tag_53\n      jump\t// in\n    tag_119:\n        /* \"#utility.yul\":2836:2953   */\n    tag_118:\n        /* \"#utility.yul\":2977:3039   */\n      tag_120\n        /* \"#utility.yul\":3031:3038   */\n      dup5\n        /* \"#utility.yul\":3022:3028   */\n      dup3\n        /* \"#utility.yul\":3011:3020   */\n      dup6\n        /* \"#utility.yul\":3007:3029   */\n      add\n        /* \"#utility.yul\":2977:3039   */\n      tag_62\n      jump\t// in\n    tag_120:\n        /* \"#utility.yul\":2967:3039   */\n      swap2\n      pop\n        /* \"#utility.yul\":2763:3049   */\n      pop\n        /* \"#utility.yul\":2549:3056   */\n      swap3\n      swap2\n      pop\n      pop\n      jump\t// out\n        /* \"#utility.yul\":3062:3161   */\n    tag_63:\n        /* \"#utility.yul\":3114:3120   */\n      0x00\n        /* \"#utility.yul\":3148:3153   */\n      dup2\n        /* \"#utility.yul\":3142:3154   */\n      mload\n        /* \"#utility.yul\":3132:3154   */\n      swap1\n      pop\n        /* \"#utility.yul\":3062:3161   */\n      swap2\n      swap1\n      pop\n      jump\t// out\n        /* \"#utility.yul\":3167:3336   */\n    tag_64:\n        /* \"#utility.yul\":3251:3262   */\n      0x00\n        /* \"#utility.yul\":3285:3291   */\n      dup3\n        /* \"#utility.yul\":3280:3283   */\n      dup3\n        /* \"#utility.yul\":3273:3292   */\n      mstore\n        /* \"#utility.yul\":3325:3329   */\n      0x20\n        /* \"#utility.yul\":3320:3323   */\n      dup3\n        /* \"#utility.yul\":3316:3330   */\n      add\n        /* \"#utility.yul\":3301:3330   */\n      swap1\n      pop\n        /* \"#utility.yul\":3167:3336   */\n      swap3\n      swap2\n      pop\n      pop\n      jump\t// out\n        /* \"#utility.yul\":3342:3481   */\n    tag_65:\n        /* \"#utility.yul\":3431:3437   */\n      dup3\n        /* \"#utility.yul\":3426:3429   */\n      dup2\n        /* \"#utility.yul\":3421:3424   */\n      dup4\n        /* \"#utility.yul\":3415:3438   */\n      mcopy\n        /* \"#utility.yul\":3472:3473   */\n      0x00\n        /* \"#utility.yul\":3463:3469   */\n      dup4\n        /* \"#utility.yul\":3458:3461   */\n      dup4\n        /* \"#utility.yul\":3454:3470   */\n      add\n        /* \"#utility.yul\":3447:3474   */\n      mstore\n        /* \"#utility.yul\":3342:3481   */\n      pop\n      pop\n      pop\n      jump\t// out\n        /* \"#utility.yul\":3487:3864   */\n    tag_66:\n        /* \"#utility.yul\":3575:3578   */\n      0x00\n        /* \"#utility.yul\":3603:3642   */\n      tag_125\n        /* \"#utility.yul\":3636:3641   */\n      dup3\n        /* \"#utility.yul\":3603:3642   */\n      tag_63\n      jump\t// in\n    tag_125:\n        /* \"#utility.yul\":3658:3729   */\n      tag_126\n        /* \"#utility.yul\":3722:3728   */\n      dup2\n        /* \"#utility.yul\":3717:3720   */\n      dup6\n        /* \"#utility.yul\":3658:3729   */\n      tag_64\n      jump\t// in\n    tag_126:\n        /* \"#utility.yul\":3651:3729   */\n      swap4\n      pop\n        /* \"#utility.yul\":3738:3803   */\n      tag_127\n        /* \"#utility.yul\":3796:3802   */\n      dup2\n        /* \"#utility.yul\":3791:3794   */\n      dup6\n        /* \"#utility.yul\":3784:3788   */\n      0x20\n        /* \"#utility.yul\":3777:3782   */\n      dup7\n        /* \"#utility.yul\":3773:3789   */\n      add\n        /* \"#utility.yul\":3738:3803   */\n      tag_65\n      jump\t// in\n    tag_127:\n        /* \"#utility.yul\":3828:3857   */\n      tag_128\n        /* \"#utility.yul\":3850:3856   */\n      dup2\n        /* \"#utility.yul\":3828:3857   */\n      tag_56\n      jump\t// in\n    tag_128:\n        /* \"#utility.yul\":3823:3826   */\n      dup5\n        /* \"#utility.yul\":3819:3858   */\n      add\n        /* \"#utility.yul\":3812:3858   */\n      swap2\n      pop\n        /* \"#utility.yul\":3579:3864   */\n      pop\n        /* \"#utility.yul\":3487:3864   */\n      swap3\n      swap2\n      pop\n      pop\n      jump\t// out\n        /* \"#utility.yul\":3870:4183   */\n    tag_12:\n        /* \"#utility.yul\":3983:3987   */\n      0x00\n        /* \"#utility.yul\":4021:4023   */\n      0x20\n        /* \"#utility.yul\":4010:4019   */\n      dup3\n        /* \"#utility.yul\":4006:4024   */\n      add\n        /* \"#utility.yul\":3998:4024   */\n      swap1\n      pop\n        /* \"#utility.yul\":4070:4079   */\n      dup2\n        /* \"#utility.yul\":4064:4068   */\n      dup2\n        /* \"#utility.yul\":4060:4080   */\n      sub\n        /* \"#utility.yul\":4056:4057   */\n      0x00\n        /* \"#utility.yul\":4045:4054   */\n      dup4\n        /* \"#utility.yul\":4041:4058   */\n      add\n        /* \"#utility.yul\":4034:4081   */\n      mstore\n        /* \"#utility.yul\":4098:4176   */\n      tag_130\n        /* \"#utility.yul\":4171:4175   */\n      dup2\n        /* \"#utility.yul\":4162:4168   */\n      dup5\n        /* \"#utility.yul\":4098:4176   */\n      tag_66\n      jump\t// in\n    tag_130:\n        /* \"#utility.yul\":4090:4176   */\n      swap1\n      pop\n        /* \"#utility.yul\":3870:4183   */\n      swap3\n      swap2\n      pop\n      pop\n      jump\t// out\n        /* \"#utility.yul\":4189:4266   */\n    tag_67:\n        /* \"#utility.yul\":4226:4233   */\n      0x00\n        /* \"#utility.yul\":4255:4260   */\n      dup2\n        /* \"#utility.yul\":4244:4260   */\n      swap1\n      pop\n        /* \"#utility.yul\":4189:4266   */\n      swap2\n      swap1\n      pop\n      jump\t// out\n        /* \"#utility.yul\":4272:4390   */\n    tag_68:\n        /* \"#utility.yul\":4359:4383   */\n      tag_133\n        /* \"#utility.yul\":4377:4382   */\n      dup2\n        /* \"#utility.yul\":4359:4383   */\n      tag_67\n      jump\t// in\n    tag_133:\n        /* \"#utility.yul\":4354:4357   */\n      dup3\n        /* \"#utility.yul\":4347:4384   */\n      mstore\n        /* \"#utility.yul\":4272:4390   */\n      pop\n      pop\n      jump\t// out\n        /* \"#utility.yul\":4396:4509   */\n    tag_69:\n        /* \"#utility.yul\":4462:4468   */\n      0x00\n        /* \"#utility.yul\":4496:4501   */\n      dup2\n        /* \"#utility.yul\":4490:4502   */\n      mload\n        /* \"#utility.yul\":4480:4502   */\n      swap1\n      pop\n        /* \"#utility.yul\":4396:4509   */\n      swap2\n      swap1\n      pop\n      jump\t// out\n        /* \"#utility.yul\":4515:4698   */\n    tag_70:\n        /* \"#utility.yul\":4613:4624   */\n      0x00\n        /* \"#utility.yul\":4647:4653   */\n      dup3\n        /* \"#utility.yul\":4642:4645   */\n      dup3\n        /* \"#utility.yul\":4635:4654   */\n      mstore\n        /* \"#utility.yul\":4687:4691   */\n      0x20\n        /* \"#utility.yul\":4682:4685   */\n      dup3\n        /* \"#utility.yul\":4678:4692   */\n      add\n        /* \"#utility.yul\":4663:4692   */\n      swap1\n      pop\n        /* \"#utility.yul\":4515:4698   */\n      swap3\n      swap2\n      pop\n      pop\n      jump\t// out\n        /* \"#utility.yul\":4704:4835   */\n    tag_71:\n        /* \"#utility.yul\":4770:4774   */\n      0x00\n        /* \"#utility.yul\":4793:4796   */\n      dup2\n        /* \"#utility.yul\":4785:4796   */\n      swap1\n      pop\n        /* \"#utility.yul\":4823:4827   */\n      0x20\n        /* \"#utility.yul\":4818:4821   */\n      dup3\n        /* \"#utility.yul\":4814:4828   */\n      add\n        /* \"#utility.yul\":4806:4828   */\n      swap1\n      pop\n        /* \"#utility.yul\":4704:4835   */\n      swap2\n      swap1\n      pop\n      jump\t// out\n        /* \"#utility.yul\":4841:4990   */\n    tag_72:\n        /* \"#utility.yul\":4877:4884   */\n      0x00\n        /* \"#utility.yul\":4917:4983   */\n      0xff00000000000000000000000000000000000000000000000000000000000000\n        /* \"#utility.yul\":4910:4915   */\n      dup3\n        /* \"#utility.yul\":4906:4984   */\n      and\n        /* \"#utility.yul\":4895:4984   */\n      swap1\n      pop\n        /* \"#utility.yul\":4841:4990   */\n      swap2\n      swap1\n      pop\n      jump\t// out\n        /* \"#utility.yul\":4996:5101   */\n    tag_73:\n        /* \"#utility.yul\":5071:5094   */\n      tag_139\n        /* \"#utility.yul\":5088:5093   */\n      dup2\n        /* \"#utility.yul\":5071:5094   */\n      tag_72\n      jump\t// in\n    tag_139:\n        /* \"#utility.yul\":5066:5069   */\n      dup3\n        /* \"#utility.yul\":5059:5095   */\n      mstore\n        /* \"#utility.yul\":4996:5101   */\n      pop\n      pop\n      jump\t// out\n        /* \"#utility.yul\":5107:5282   */\n    tag_74:\n        /* \"#utility.yul\":5174:5184   */\n      0x00\n        /* \"#utility.yul\":5195:5239   */\n      tag_141\n        /* \"#utility.yul\":5235:5238   */\n      dup4\n        /* \"#utility.yul\":5227:5233   */\n      dup4\n        /* \"#utility.yul\":5195:5239   */\n      tag_73\n      jump\t// in\n    tag_141:\n        /* \"#utility.yul\":5271:5275   */\n      0x20\n        /* \"#utility.yul\":5266:5269   */\n      dup4\n        /* \"#utility.yul\":5262:5276   */\n      add\n        /* \"#utility.yul\":5248:5276   */\n      swap1\n      pop\n        /* \"#utility.yul\":5107:5282   */\n      swap3\n      swap2\n      pop\n      pop\n      jump\t// out\n        /* \"#utility.yul\":5288:5400   */\n    tag_75:\n        /* \"#utility.yul\":5357:5361   */\n      0x00\n        /* \"#utility.yul\":5389:5393   */\n      0x20\n        /* \"#utility.yul\":5384:5387   */\n      dup3\n        /* \"#utility.yul\":5380:5394   */\n      add\n        /* \"#utility.yul\":5372:5394   */\n      swap1\n      pop\n        /* \"#utility.yul\":5288:5400   */\n      swap2\n      swap1\n      pop\n      jump\t// out\n        /* \"#utility.yul\":5434:6158   */\n    tag_76:\n        /* \"#utility.yul\":5551:5554   */\n      0x00\n        /* \"#utility.yul\":5580:5633   */\n      tag_144\n        /* \"#utility.yul\":5627:5632   */\n      dup3\n        /* \"#utility.yul\":5580:5633   */\n      tag_69\n      jump\t// in\n    tag_144:\n        /* \"#utility.yul\":5649:5734   */\n      tag_145\n        /* \"#utility.yul\":5727:5733   */\n      dup2\n        /* \"#utility.yul\":5722:5725   */\n      dup6\n        /* \"#utility.yul\":5649:5734   */\n      tag_70\n      jump\t// in\n    tag_145:\n        /* \"#utility.yul\":5642:5734   */\n      swap4\n      pop\n        /* \"#utility.yul\":5758:5813   */\n      tag_146\n        /* \"#utility.yul\":5807:5812   */\n      dup4\n        /* \"#utility.yul\":5758:5813   */\n      tag_71\n      jump\t// in\n    tag_146:\n        /* \"#utility.yul\":5836:5843   */\n      dup1\n        /* \"#utility.yul\":5867:5868   */\n      0x00\n        /* \"#utility.yul\":5852:6133   */\n    tag_147:\n        /* \"#utility.yul\":5877:5883   */\n      dup4\n        /* \"#utility.yul\":5874:5875   */\n      dup2\n        /* \"#utility.yul\":5871:5884   */\n      lt\n        /* \"#utility.yul\":5852:6133   */\n      iszero\n      tag_149\n      jumpi\n        /* \"#utility.yul\":5953:5959   */\n      dup2\n        /* \"#utility.yul\":5947:5960   */\n      mload\n        /* \"#utility.yul\":5980:6041   */\n      tag_150\n        /* \"#utility.yul\":6037:6040   */\n      dup9\n        /* \"#utility.yul\":6022:6035   */\n      dup3\n        /* \"#utility.yul\":5980:6041   */\n      tag_74\n      jump\t// in\n    tag_150:\n        /* \"#utility.yul\":5973:6041   */\n      swap8\n      pop\n        /* \"#utility.yul\":6064:6123   */\n      tag_151\n        /* \"#utility.yul\":6116:6122   */\n      dup4\n        /* \"#utility.yul\":6064:6123   */\n      tag_75\n      jump\t// in\n    tag_151:\n        /* \"#utility.yul\":6054:6123   */\n      swap3\n      pop\n        /* \"#utility.yul\":5912:6133   */\n      pop\n        /* \"#utility.yul\":5899:5900   */\n      0x01\n        /* \"#utility.yul\":5896:5897   */\n      dup2\n        /* \"#utility.yul\":5892:5901   */\n      add\n        /* \"#utility.yul\":5887:5901   */\n      swap1\n      pop\n        /* \"#utility.yul\":5852:6133   */\n      jump(tag_147)\n    tag_149:\n        /* \"#utility.yul\":5856:5870   */\n      pop\n        /* \"#utility.yul\":6149:6152   */\n      dup6\n        /* \"#utility.yul\":6142:6152   */\n      swap4\n      pop\n        /* \"#utility.yul\":5556:6158   */\n      pop\n      pop\n      pop\n        /* \"#utility.yul\":5434:6158   */\n      swap3\n      swap2\n      pop\n      pop\n      jump\t// out\n        /* \"#utility.yul\":6164:6844   */\n    tag_17:\n        /* \"#utility.yul\":6381:6385   */\n      0x00\n        /* \"#utility.yul\":6419:6421   */\n      0x60\n        /* \"#utility.yul\":6408:6417   */\n      dup3\n        /* \"#utility.yul\":6404:6422   */\n      add\n        /* \"#utility.yul\":6396:6422   */\n      swap1\n      pop\n        /* \"#utility.yul\":6432:6503   */\n      tag_153\n        /* \"#utility.yul\":6500:6501   */\n      0x00\n        /* \"#utility.yul\":6489:6498   */\n      dup4\n        /* \"#utility.yul\":6485:6502   */\n      add\n        /* \"#utility.yul\":6476:6482   */\n      dup7\n        /* \"#utility.yul\":6432:6503   */\n      tag_68\n      jump\t// in\n    tag_153:\n        /* \"#utility.yul\":6550:6559   */\n      dup2\n        /* \"#utility.yul\":6544:6548   */\n      dup2\n        /* \"#utility.yul\":6540:6560   */\n      sub\n        /* \"#utility.yul\":6535:6537   */\n      0x20\n        /* \"#utility.yul\":6524:6533   */\n      dup4\n        /* \"#utility.yul\":6520:6538   */\n      add\n        /* \"#utility.yul\":6513:6561   */\n      mstore\n        /* \"#utility.yul\":6578:6684   */\n      tag_154\n        /* \"#utility.yul\":6679:6683   */\n      dup2\n        /* \"#utility.yul\":6670:6676   */\n      dup6\n        /* \"#utility.yul\":6578:6684   */\n      tag_76\n      jump\t// in\n    tag_154:\n        /* \"#utility.yul\":6570:6684   */\n      swap1\n      pop\n        /* \"#utility.yul\":6731:6740   */\n      dup2\n        /* \"#utility.yul\":6725:6729   */\n      dup2\n        /* \"#utility.yul\":6721:6741   */\n      sub\n        /* \"#utility.yul\":6716:6718   */\n      0x40\n        /* \"#utility.yul\":6705:6714   */\n      dup4\n        /* \"#utility.yul\":6701:6719   */\n      add\n        /* \"#utility.yul\":6694:6742   */\n      mstore\n        /* \"#utility.yul\":6759:6837   */\n      tag_155\n        /* \"#utility.yul\":6832:6836   */\n      dup2\n        /* \"#utility.yul\":6823:6829   */\n      dup5\n        /* \"#utility.yul\":6759:6837   */\n      tag_66\n      jump\t// in\n    tag_155:\n        /* \"#utility.yul\":6751:6837   */\n      swap1\n      pop\n        /* \"#utility.yul\":6164:6844   */\n      swap5\n      swap4\n      pop\n      pop\n      pop\n      pop\n      jump\t// out\n        /* \"#utility.yul\":6850:7072   */\n    tag_22:\n        /* \"#utility.yul\":6943:6947   */\n      0x00\n        /* \"#utility.yul\":6981:6983   */\n      0x20\n        /* \"#utility.yul\":6970:6979   */\n      dup3\n        /* \"#utility.yul\":6966:6984   */\n      add\n        /* \"#utility.yul\":6958:6984   */\n      swap1\n      pop\n        /* \"#utility.yul\":6994:7065   */\n      tag_157\n        /* \"#utility.yul\":7062:7063   */\n      0x00\n        /* \"#utility.yul\":7051:7060   */\n      dup4\n        /* \"#utility.yul\":7047:7064   */\n      add\n        /* \"#utility.yul\":7038:7044   */\n      dup5\n        /* \"#utility.yul\":6994:7065   */\n      tag_68\n      jump\t// in\n    tag_157:\n        /* \"#utility.yul\":6850:7072   */\n      swap3\n      swap2\n      pop\n      pop\n      jump\t// out\n        /* \"#utility.yul\":7078:7200   */\n    tag_77:\n        /* \"#utility.yul\":7151:7175   */\n      tag_159\n        /* \"#utility.yul\":7169:7174   */\n      dup2\n        /* \"#utility.yul\":7151:7175   */\n      tag_67\n      jump\t// in\n    tag_159:\n        /* \"#utility.yul\":7144:7149   */\n      dup2\n        /* \"#utility.yul\":7141:7176   */\n      eq\n        /* \"#utility.yul\":7131:7194   */\n      tag_160\n      jumpi\n        /* \"#utility.yul\":7190:7191   */\n      0x00\n        /* \"#utility.yul\":7187:7188   */\n      dup1\n        /* \"#utility.yul\":7180:7192   */\n      revert\n        /* \"#utility.yul\":7131:7194   */\n    tag_160:\n        /* \"#utility.yul\":7078:7200   */\n      pop\n      jump\t// out\n        /* \"#utility.yul\":7206:7345   */\n    tag_78:\n        /* \"#utility.yul\":7252:7257   */\n      0x00\n        /* \"#utility.yul\":7290:7296   */\n      dup2\n        /* \"#utility.yul\":7277:7297   */\n      calldataload\n        /* \"#utility.yul\":7268:7297   */\n      swap1\n      pop\n        /* \"#utility.yul\":7306:7339   */\n      tag_162\n        /* \"#utility.yul\":7333:7338   */\n      dup2\n        /* \"#utility.yul\":7306:7339   */\n      tag_77\n      jump\t// in\n    tag_162:\n        /* \"#utility.yul\":7206:7345   */\n      swap3\n      swap2\n      pop\n      pop\n      jump\t// out\n        /* \"#utility.yul\":7351:8003   */\n    tag_25:\n        /* \"#utility.yul\":7428:7434   */\n      0x00\n        /* \"#utility.yul\":7436:7442   */\n      dup1\n        /* \"#utility.yul\":7485:7487   */\n      0x40\n        /* \"#utility.yul\":7473:7482   */\n      dup4\n        /* \"#utility.yul\":7464:7471   */\n      dup6\n        /* \"#utility.yul\":7460:7483   */\n      sub\n        /* \"#utility.yul\":7456:7488   */\n      slt\n        /* \"#utility.yul\":7453:7572   */\n      iszero\n      tag_164\n      jumpi\n        /* \"#utility.yul\":7491:7570   */\n      tag_165\n      tag_52\n      jump\t// in\n    tag_165:\n        /* \"#utility.yul\":7453:7572   */\n    tag_164:\n        /* \"#utility.yul\":7639:7640   */\n      0x00\n        /* \"#utility.yul\":7628:7637   */\n      dup4\n        /* \"#utility.yul\":7624:7641   */\n      add\n        /* \"#utility.yul\":7611:7642   */\n      calldataload\n        /* \"#utility.yul\":7669:7687   */\n      0xffffffffffffffff\n        /* \"#utility.yul\":7661:7667   */\n      dup2\n        /* \"#utility.yul\":7658:7688   */\n      gt\n        /* \"#utility.yul\":7655:7772   */\n      iszero\n      tag_166\n      jumpi\n        /* \"#utility.yul\":7691:7770   */\n      tag_167\n      tag_53\n      jump\t// in\n    tag_167:\n        /* \"#utility.yul\":7655:7772   */\n    tag_166:\n        /* \"#utility.yul\":7796:7858   */\n      tag_168\n        /* \"#utility.yul\":7850:7857   */\n      dup6\n        /* \"#utility.yul\":7841:7847   */\n      dup3\n        /* \"#utility.yul\":7830:7839   */\n      dup7\n        /* \"#utility.yul\":7826:7848   */\n      add\n        /* \"#utility.yul\":7796:7858   */\n      tag_62\n      jump\t// in\n    tag_168:\n        /* \"#utility.yul\":7786:7858   */\n      swap3\n      pop\n        /* \"#utility.yul\":7582:7868   */\n      pop\n        /* \"#utility.yul\":7907:7909   */\n      0x20\n        /* \"#utility.yul\":7933:7986   */\n      tag_169\n        /* \"#utility.yul\":7978:7985   */\n      dup6\n        /* \"#utility.yul\":7969:7975   */\n      dup3\n        /* \"#utility.yul\":7958:7967   */\n      dup7\n        /* \"#utility.yul\":7954:7976   */\n      add\n        /* \"#utility.yul\":7933:7986   */\n      tag_78\n      jump\t// in\n    tag_169:\n        /* \"#utility.yul\":7923:7986   */\n      swap2\n      pop\n        /* \"#utility.yul\":7878:7996   */\n      pop\n        /* \"#utility.yul\":7351:8003   */\n      swap3\n      pop\n      swap3\n      swap1\n      pop\n      jump\t// out\n        /* \"#utility.yul\":8009:8124   */\n    tag_79:\n        /* \"#utility.yul\":8094:8117   */\n      tag_171\n        /* \"#utility.yul\":8111:8116   */\n      dup2\n        /* \"#utility.yul\":8094:8117   */\n      tag_72\n      jump\t// in\n    tag_171:\n        /* \"#utility.yul\":8089:8092   */\n      dup3\n        /* \"#utility.yul\":8082:8118   */\n      mstore\n        /* \"#utility.yul\":8009:8124   */\n      pop\n      pop\n      jump\t// out\n        /* \"#utility.yul\":8130:8348   */\n    tag_28:\n        /* \"#utility.yul\":8221:8225   */\n      0x00\n        /* \"#utility.yul\":8259:8261   */\n      0x20\n        /* \"#utility.yul\":8248:8257   */\n      dup3\n        /* \"#utility.yul\":8244:8262   */\n      add\n        /* \"#utility.yul\":8236:8262   */\n      swap1\n      pop\n        /* \"#utility.yul\":8272:8341   */\n      tag_173\n        /* \"#utility.yul\":8338:8339   */\n      0x00\n        /* \"#utility.yul\":8327:8336   */\n      dup4\n        /* \"#utility.yul\":8323:8340   */\n      add\n        /* \"#utility.yul\":8314:8320   */\n      dup5\n        /* \"#utility.yul\":8272:8341   */\n      tag_79\n      jump\t// in\n    tag_173:\n        /* \"#utility.yul\":8130:8348   */\n      swap3\n      swap2\n      pop\n      pop\n      jump\t// out\n        /* \"#utility.yul\":8354:8534   */\n    tag_40:\n        /* \"#utility.yul\":8402:8479   */\n      0x4e487b7100000000000000000000000000000000000000000000000000000000\n        /* \"#utility.yul\":8399:8400   */\n      0x00\n        /* \"#utility.yul\":8392:8480   */\n      mstore\n        /* \"#utility.yul\":8499:8503   */\n      0x32\n        /* \"#utility.yul\":8496:8497   */\n      0x04\n        /* \"#utility.yul\":8489:8504   */\n      mstore\n        /* \"#utility.yul\":8523:8527   */\n      0x24\n        /* \"#utility.yul\":8520:8521   */\n      0x00\n        /* \"#utility.yul\":8513:8528   */\n      revert\n        /* \"#utility.yul\":8540:8702   */\n    tag_80:\n        /* \"#utility.yul\":8656:8667   */\n      0x00\n        /* \"#utility.yul\":8693:8696   */\n      dup2\n        /* \"#utility.yul\":8678:8696   */\n      swap1\n      pop\n        /* \"#utility.yul\":8540:8702   */\n      swap3\n      swap2\n      pop\n      pop\n      jump\t// out\n        /* \"#utility.yul\":8708:8821   */\n    tag_81:\n        /* \"#utility.yul\":8791:8814   */\n      tag_177\n        /* \"#utility.yul\":8808:8813   */\n      dup2\n        /* \"#utility.yul\":8791:8814   */\n      tag_72\n      jump\t// in\n    tag_177:\n        /* \"#utility.yul\":8786:8789   */\n      dup3\n        /* \"#utility.yul\":8779:8815   */\n      mstore\n        /* \"#utility.yul\":8708:8821   */\n      pop\n      pop\n      jump\t// out\n        /* \"#utility.yul\":8827:9018   */\n    tag_82:\n        /* \"#utility.yul\":8902:8912   */\n      0x00\n        /* \"#utility.yul\":8923:8975   */\n      tag_179\n        /* \"#utility.yul\":8971:8974   */\n      dup4\n        /* \"#utility.yul\":8963:8969   */\n      dup4\n        /* \"#utility.yul\":8923:8975   */\n      tag_81\n      jump\t// in\n    tag_179:\n        /* \"#utility.yul\":9007:9011   */\n      0x20\n        /* \"#utility.yul\":9002:9005   */\n      dup4\n        /* \"#utility.yul\":8998:9012   */\n      add\n        /* \"#utility.yul\":8984:9012   */\n      swap1\n      pop\n        /* \"#utility.yul\":8827:9018   */\n      swap3\n      swap2\n      pop\n      pop\n      jump\t// out\n        /* \"#utility.yul\":9052:9820   */\n    tag_83:\n        /* \"#utility.yul\":9187:9190   */\n      0x00\n        /* \"#utility.yul\":9216:9269   */\n      tag_181\n        /* \"#utility.yul\":9263:9268   */\n      dup3\n        /* \"#utility.yul\":9216:9269   */\n      tag_69\n      jump\t// in\n    tag_181:\n        /* \"#utility.yul\":9285:9388   */\n      tag_182\n        /* \"#utility.yul\":9381:9387   */\n      dup2\n        /* \"#utility.yul\":9376:9379   */\n      dup6\n        /* \"#utility.yul\":9285:9388   */\n      tag_80\n      jump\t// in\n    tag_182:\n        /* \"#utility.yul\":9278:9388   */\n      swap4\n      pop\n        /* \"#utility.yul\":9412:9467   */\n      tag_183\n        /* \"#utility.yul\":9461:9466   */\n      dup4\n        /* \"#utility.yul\":9412:9467   */\n      tag_71\n      jump\t// in\n    tag_183:\n        /* \"#utility.yul\":9490:9497   */\n      dup1\n        /* \"#utility.yul\":9521:9522   */\n      0x00\n        /* \"#utility.yul\":9506:9795   */\n    tag_184:\n        /* \"#utility.yul\":9531:9537   */\n      dup4\n        /* \"#utility.yul\":9528:9529   */\n      dup2\n        /* \"#utility.yul\":9525:9538   */\n      lt\n        /* \"#utility.yul\":9506:9795   */\n      iszero\n      tag_186\n      jumpi\n        /* \"#utility.yul\":9607:9613   */\n      dup2\n        /* \"#utility.yul\":9601:9614   */\n      mload\n        /* \"#utility.yul\":9634:9703   */\n      tag_187\n        /* \"#utility.yul\":9699:9702   */\n      dup9\n        /* \"#utility.yul\":9684:9697   */\n      dup3\n        /* \"#utility.yul\":9634:9703   */\n      tag_82\n      jump\t// in\n    tag_187:\n        /* \"#utility.yul\":9627:9703   */\n      swap8\n      pop\n        /* \"#utility.yul\":9726:9785   */\n      tag_188\n        /* \"#utility.yul\":9778:9784   */\n      dup4\n        /* \"#utility.yul\":9726:9785   */\n      tag_75\n      jump\t// in\n    tag_188:\n        /* \"#utility.yul\":9716:9785   */\n      swap3\n      pop\n        /* \"#utility.yul\":9566:9795   */\n      pop\n        /* \"#utility.yul\":9553:9554   */\n      0x01\n        /* \"#utility.yul\":9550:9551   */\n      dup2\n        /* \"#utility.yul\":9546:9555   */\n      add\n        /* \"#utility.yul\":9541:9555   */\n      swap1\n      pop\n        /* \"#utility.yul\":9506:9795   */\n      jump(tag_184)\n    tag_186:\n        /* \"#utility.yul\":9510:9524   */\n      pop\n        /* \"#utility.yul\":9811:9814   */\n      dup6\n        /* \"#utility.yul\":9804:9814   */\n      swap4\n      pop\n        /* \"#utility.yul\":9192:9820   */\n      pop\n      pop\n      pop\n        /* \"#utility.yul\":9052:9820   */\n      swap3\n      swap2\n      pop\n      pop\n      jump\t// out\n        /* \"#utility.yul\":9826:10157   */\n    tag_44:\n        /* \"#utility.yul\":9986:9989   */\n      0x00\n        /* \"#utility.yul\":10008:10131   */\n      tag_190\n        /* \"#utility.yul\":10127:10130   */\n      dup3\n        /* \"#utility.yul\":10118:10124   */\n      dup5\n        /* \"#utility.yul\":10008:10131   */\n      tag_83\n      jump\t// in\n    tag_190:\n        /* \"#utility.yul\":10001:10131   */\n      swap2\n      pop\n        /* \"#utility.yul\":10148:10151   */\n      dup2\n        /* \"#utility.yul\":10141:10151   */\n      swap1\n      pop\n        /* \"#utility.yul\":9826:10157   */\n      swap3\n      swap2\n      pop\n      pop\n      jump\t// out\n        /* \"#utility.yul\":10163:10343   */\n    tag_84:\n        /* \"#utility.yul\":10211:10288   */\n      0x4e487b7100000000000000000000000000000000000000000000000000000000\n        /* \"#utility.yul\":10208:10209   */\n      0x00\n        /* \"#utility.yul\":10201:10289   */\n      mstore\n        /* \"#utility.yul\":10308:10312   */\n      0x11\n        /* \"#utility.yul\":10305:10306   */\n      0x04\n        /* \"#utility.yul\":10298:10313   */\n      mstore\n        /* \"#utility.yul\":10332:10336   */\n      0x24\n        /* \"#utility.yul\":10329:10330   */\n      0x00\n        /* \"#utility.yul\":10322:10337   */\n      revert\n        /* \"#utility.yul\":10349:10543   */\n    tag_48:\n        /* \"#utility.yul\":10389:10393   */\n      0x00\n        /* \"#utility.yul\":10409:10429   */\n      tag_193\n        /* \"#utility.yul\":10427:10428   */\n      dup3\n        /* \"#utility.yul\":10409:10429   */\n      tag_67\n      jump\t// in\n    tag_193:\n        /* \"#utility.yul\":10404:10429   */\n      swap2\n      pop\n        /* \"#utility.yul\":10443:10463   */\n      tag_194\n        /* \"#utility.yul\":10461:10462   */\n      dup4\n        /* \"#utility.yul\":10443:10463   */\n      tag_67\n      jump\t// in\n    tag_194:\n        /* \"#utility.yul\":10438:10463   */\n      swap3\n      pop\n        /* \"#utility.yul\":10487:10488   */\n      dup3\n        /* \"#utility.yul\":10484:10485   */\n      dup3\n        /* \"#utility.yul\":10480:10489   */\n      sub\n        /* \"#utility.yul\":10472:10489   */\n      swap1\n      pop\n        /* \"#utility.yul\":10511:10512   */\n      dup2\n        /* \"#utility.yul\":10505:10509   */\n      dup2\n        /* \"#utility.yul\":10502:10513   */\n      gt\n        /* \"#utility.yul\":10499:10536   */\n      iszero\n      tag_195\n      jumpi\n        /* \"#utility.yul\":10516:10534   */\n      tag_196\n      tag_84\n      jump\t// in\n    tag_196:\n        /* \"#utility.yul\":10499:10536   */\n    tag_195:\n        /* \"#utility.yul\":10349:10543   */\n      swap3\n      swap2\n      pop\n      pop\n      jump\t// out\n\n    auxdata: 0xa264697066735822122023c092ab480679cada6c9a3c10ca362dc2864b0901da6ed4b3bd6d53d0fb62d064736f6c63430008190033\n}\n",
				"bytecode": {
					"linkReferences": {},
					"object": "6080604052348015600e575f80fd5b506107f38061001c5f395ff3fe608060405234801561000f575f80fd5b506004361061004a575f3560e01c806339614e4f1461004e57806365d894e91461007e578063781c6dbe146100b0578063cd63efd4146100e0575b5f80fd5b610068600480360381019061006391906103c5565b610110565b604051610075919061046c565b60405180910390f35b610098600480360381019061009391906103c5565b61011a565b6040516100a793929190610586565b60405180910390f35b6100ca60048036038101906100c591906103c5565b61023b565b6040516100d791906105c9565b60405180910390f35b6100fa60048036038101906100f5919061060c565b610245565b6040516101079190610675565b60405180910390f35b6060819050919050565b5f6060805f845190505f8167ffffffffffffffff81111561013e5761013d6102a1565b5b60405190808252806020026020018201604052801561016c5781602001602082028036833780820191505090505b5090505f5b828110156102095786818151811061018c5761018b61068e565b5b602001015160f81c60f81b8282815181106101aa576101a961068e565b5b60200260200101907effffffffffffffffffffffffffffffffffffffffffffffffffffffffffffff191690817effffffffffffffffffffffffffffffffffffffffffffffffffffffffffffff1916815250508080600101915050610171565b5081818260405160200161021d9190610747565b60405160208183030381529060405294509450945050509193909250565b5f81519050919050565b5f82600183610254919061078a565b815181106102655761026461068e565b5b602001015160f81c60f81b905092915050565b5f604051905090565b5f80fd5b5f80fd5b5f80fd5b5f80fd5b5f601f19601f8301169050919050565b7f4e487b71000000000000000000000000000000000000000000000000000000005f52604160045260245ffd5b6102d782610291565b810181811067ffffffffffffffff821117156102f6576102f56102a1565b5b80604052505050565b5f610308610278565b905061031482826102ce565b919050565b5f67ffffffffffffffff821115610333576103326102a1565b5b61033c82610291565b9050602081019050919050565b828183375f83830152505050565b5f61036961036484610319565b6102ff565b9050828152602081018484840111156103855761038461028d565b5b610390848285610349565b509392505050565b5f82601f8301126103ac576103ab610289565b5b81356103bc848260208601610357565b91505092915050565b5f602082840312156103da576103d9610281565b5b5f82013567ffffffffffffffff8111156103f7576103f6610285565b5b61040384828501610398565b91505092915050565b5f81519050919050565b5f82825260208201905092915050565b8281835e5f83830152505050565b5f61043e8261040c565b6104488185610416565b9350610458818560208601610426565b61046181610291565b840191505092915050565b5f6020820190508181035f8301526104848184610434565b905092915050565b5f819050919050565b61049e8161048c565b82525050565b5f81519050919050565b5f82825260208201905092915050565b5f819050602082019050919050565b5f7fff0000000000000000000000000000000000000000000000000000000000000082169050919050565b610501816104cd565b82525050565b5f61051283836104f8565b60208301905092915050565b5f602082019050919050565b5f610534826104a4565b61053e81856104ae565b9350610549836104be565b805f5b838110156105795781516105608882610507565b975061056b8361051e565b92505060018101905061054c565b5085935050505092915050565b5f6060820190506105995f830186610495565b81810360208301526105ab818561052a565b905081810360408301526105bf8184610434565b9050949350505050565b5f6020820190506105dc5f830184610495565b92915050565b6105eb8161048c565b81146105f5575f80fd5b50565b5f81359050610606816105e2565b92915050565b5f806040838503121561062257610621610281565b5b5f83013567ffffffffffffffff81111561063f5761063e610285565b5b61064b85828601610398565b925050602061065c858286016105f8565b9150509250929050565b61066f816104cd565b82525050565b5f6020820190506106885f830184610666565b92915050565b7f4e487b71000000000000000000000000000000000000000000000000000000005f52603260045260245ffd5b5f81905092915050565b6106ce816104cd565b82525050565b5f6106df83836106c5565b60208301905092915050565b5f6106f5826104a4565b6106ff81856106bb565b935061070a836104be565b805f5b8381101561073a57815161072188826106d4565b975061072c8361051e565b92505060018101905061070d565b5085935050505092915050565b5f61075282846106eb565b915081905092915050565b7f4e487b71000000000000000000000000000000000000000000000000000000005f52601160045260245ffd5b5f6107948261048c565b915061079f8361048c565b92508282039050818111156107b7576107b661075d565b5b9291505056fea264697066735822122023c092ab480679cada6c9a3c10ca362dc2864b0901da6ed4b3bd6d53d0fb62d064736f6c63430008190033",
					"opcodes": "PUSH1 0x80 PUSH1 0x40 MSTORE CALLVALUE DUP1 ISZERO PUSH1 0xE JUMPI PUSH0 DUP1 REVERT JUMPDEST POP PUSH2 0x7F3 DUP1 PUSH2 0x1C PUSH0 CODECOPY PUSH0 RETURN INVALID PUSH1 0x80 PUSH1 0x40 MSTORE CALLVALUE DUP1 ISZERO PUSH2 0xF JUMPI PUSH0 DUP1 REVERT JUMPDEST POP PUSH1 0x4 CALLDATASIZE LT PUSH2 0x4A JUMPI PUSH0 CALLDATALOAD PUSH1 0xE0 SHR DUP1 PUSH4 0x39614E4F EQ PUSH2 0x4E JUMPI DUP1 PUSH4 0x65D894E9 EQ PUSH2 0x7E JUMPI DUP1 PUSH4 0x781C6DBE EQ PUSH2 0xB0 JUMPI DUP1 PUSH4 0xCD63EFD4 EQ PUSH2 0xE0 JUMPI JUMPDEST PUSH0 DUP1 REVERT JUMPDEST PUSH2 0x68 PUSH1 0x4 DUP1 CALLDATASIZE SUB DUP2 ADD SWAP1 PUSH2 0x63 SWAP2 SWAP1 PUSH2 0x3C5 JUMP JUMPDEST PUSH2 0x110 JUMP JUMPDEST PUSH1 0x40 MLOAD PUSH2 0x75 SWAP2 SWAP1 PUSH2 0x46C JUMP JUMPDEST PUSH1 0x40 MLOAD DUP1 SWAP2 SUB SWAP1 RETURN JUMPDEST PUSH2 0x98 PUSH1 0x4 DUP1 CALLDATASIZE SUB DUP2 ADD SWAP1 PUSH2 0x93 SWAP2 SWAP1 PUSH2 0x3C5 JUMP JUMPDEST PUSH2 0x11A JUMP JUMPDEST PUSH1 0x40 MLOAD PUSH2 0xA7 SWAP4 SWAP3 SWAP2 SWAP1 PUSH2 0x586 JUMP JUMPDEST PUSH1 0x40 MLOAD DUP1 SWAP2 SUB SWAP1 RETURN JUMPDEST PUSH2 0xCA PUSH1 0x4 DUP1 CALLDATASIZE SUB DUP2 ADD SWAP1 PUSH2 0xC5 SWAP2 SWAP1 PUSH2 0x3C5 JUMP JUMPDEST PUSH2 0x23B JUMP JUMPDEST PUSH1 0x40 MLOAD PUSH2 0xD7 SWAP2 SWAP1 PUSH2 0x5C9 JUMP JUMPDEST PUSH1 0x40 MLOAD DUP1 SWAP2 SUB SWAP1 RETURN JUMPDEST PUSH2 0xFA PUSH1 0x4 DUP1 CALLDATASIZE SUB DUP2 ADD SWAP1 PUSH2 0xF5 SWAP2 SWAP1 PUSH2 0x60C JUMP JUMPDEST PUSH2 0x245 JUMP JUMPDEST PUSH1 0x40 MLOAD PUSH2 0x107 SWAP2 SWAP1 PUSH2 0x675 JUMP JUMPDEST PUSH1 0x40 MLOAD DUP1 SWAP2 SUB SWAP1 RETURN JUMPDEST PUSH1 0x60 DUP2 SWAP1 POP SWAP2 SWAP1 POP JUMP JUMPDEST PUSH0 PUSH1 0x60 DUP1 PUSH0 DUP5 MLOAD SWAP1 POP PUSH0 DUP2 PUSH8 0xFFFFFFFFFFFFFFFF DUP2 GT ISZERO PUSH2 0x13E JUMPI PUSH2 0x13D PUSH2 0x2A1 JUMP JUMPDEST JUMPDEST PUSH1 0x40 MLOAD SWAP1 DUP1 DUP3 MSTORE DUP1 PUSH1 0x20 MUL PUSH1 0x20 ADD DUP3 ADD PUSH1 0x40 MSTORE DUP1 ISZERO PUSH2 0x16C JUMPI DUP2 PUSH1 0x20 ADD PUSH1 0x20 DUP3 MUL DUP1 CALLDATASIZE DUP4 CALLDATACOPY DUP1 DUP3 ADD SWAP2 POP POP SWAP1 POP JUMPDEST POP SWAP1 POP PUSH0 JUMPDEST DUP3 DUP2 LT ISZERO PUSH2 0x209 JUMPI DUP7 DUP2 DUP2 MLOAD DUP2 LT PUSH2 0x18C JUMPI PUSH2 0x18B PUSH2 0x68E JUMP JUMPDEST JUMPDEST PUSH1 0x20 ADD ADD MLOAD PUSH1 0xF8 SHR PUSH1 0xF8 SHL DUP3 DUP3 DUP2 MLOAD DUP2 LT PUSH2 0x1AA JUMPI PUSH2 0x1A9 PUSH2 0x68E JUMP JUMPDEST JUMPDEST PUSH1 0x20 MUL PUSH1 0x20 ADD ADD SWAP1 PUSH31 0xFFFFFFFFFFFFFFFFFFFFFFFFFFFFFFFFFFFFFFFFFFFFFFFFFFFFFFFFFFFFFF NOT AND SWAP1 DUP2 PUSH31 0xFFFFFFFFFFFFFFFFFFFFFFFFFFFFFFFFFFFFFFFFFFFFFFFFFFFFFFFFFFFFFF NOT AND DUP2 MSTORE POP POP DUP1 DUP1 PUSH1 0x1 ADD SWAP2 POP POP PUSH2 0x171 JUMP JUMPDEST POP DUP2 DUP2 DUP3 PUSH1 0x40 MLOAD PUSH1 0x20 ADD PUSH2 0x21D SWAP2 SWAP1 PUSH2 0x747 JUMP JUMPDEST PUSH1 0x40 MLOAD PUSH1 0x20 DUP2 DUP4 SUB SUB DUP2 MSTORE SWAP1 PUSH1 0x40 MSTORE SWAP5 POP SWAP5 POP SWAP5 POP POP POP SWAP2 SWAP4 SWAP1 SWAP3 POP JUMP JUMPDEST PUSH0 DUP2 MLOAD SWAP1 POP SWAP2 SWAP1 POP JUMP JUMPDEST PUSH0 DUP3 PUSH1 0x1 DUP4 PUSH2 0x254 SWAP2 SWAP1 PUSH2 0x78A JUMP JUMPDEST DUP2 MLOAD DUP2 LT PUSH2 0x265 JUMPI PUSH2 0x264 PUSH2 0x68E JUMP JUMPDEST JUMPDEST PUSH1 0x20 ADD ADD MLOAD PUSH1 0xF8 SHR PUSH1 0xF8 SHL SWAP1 POP SWAP3 SWAP2 POP POP JUMP JUMPDEST PUSH0 PUSH1 0x40 MLOAD SWAP1 POP SWAP1 JUMP JUMPDEST PUSH0 DUP1 REVERT JUMPDEST PUSH0 DUP1 REVERT JUMPDEST PUSH0 DUP1 REVERT JUMPDEST PUSH0 DUP1 REVERT JUMPDEST PUSH0 PUSH1 0x1F NOT PUSH1 0x1F DUP4 ADD AND SWAP1 POP SWAP2 SWAP1 POP JUMP JUMPDEST PUSH32 0x4E487B7100000000000000000000000000000000000000000000000000000000 PUSH0 MSTORE PUSH1 0x41 PUSH1 0x4 MSTORE PUSH1 0x24 PUSH0 REVERT JUMPDEST PUSH2 0x2D7 DUP3 PUSH2 0x291 JUMP JUMPDEST DUP2 ADD DUP2 DUP2 LT PUSH8 0xFFFFFFFFFFFFFFFF DUP3 GT OR ISZERO PUSH2 0x2F6 JUMPI PUSH2 0x2F5 PUSH2 0x2A1 JUMP JUMPDEST JUMPDEST DUP1 PUSH1 0x40 MSTORE POP POP POP JUMP JUMPDEST PUSH0 PUSH2 0x308 PUSH2 0x278 JUMP JUMPDEST SWAP1 POP PUSH2 0x314 DUP3 DUP3 PUSH2 0x2CE JUMP JUMPDEST SWAP2 SWAP1 POP JUMP JUMPDEST PUSH0 PUSH8 0xFFFFFFFFFFFFFFFF DUP3 GT ISZERO PUSH2 0x333 JUMPI PUSH2 0x332 PUSH2 0x2A1 JUMP JUMPDEST JUMPDEST PUSH2 0x33C DUP3 PUSH2 0x291 JUMP JUMPDEST SWAP1 POP PUSH1 0x20 DUP2 ADD SWAP1 POP SWAP2 SWAP1 POP JUMP JUMPDEST DUP3 DUP2 DUP4 CALLDATACOPY PUSH0 DUP4 DUP4 ADD MSTORE POP POP POP JUMP JUMPDEST PUSH0 PUSH2 0x369 PUSH2 0x364 DUP5 PUSH2 0x319 JUMP JUMPDEST PUSH2 0x2FF JUMP JUMPDEST SWAP1 POP DUP3 DUP2 MSTORE PUSH1 0x20 DUP2 ADD DUP5 DUP5 DUP5 ADD GT ISZERO PUSH2 0x385 JUMPI PUSH2 0x384 PUSH2 0x28D JUMP JUMPDEST JUMPDEST PUSH2 0x390 DUP5 DUP3 DUP6 PUSH2 0x349 JUMP JUMPDEST POP SWAP4 SWAP3 POP POP POP JUMP JUMPDEST PUSH0 DUP3 PUSH1 0x1F DUP4 ADD SLT PUSH2 0x3AC JUMPI PUSH2 0x3AB PUSH2 0x289 JUMP JUMPDEST JUMPDEST DUP2 CALLDATALOAD PUSH2 0x3BC DUP5 DUP3 PUSH1 0x20 DUP7 ADD PUSH2 0x357 JUMP JUMPDEST SWAP2 POP POP SWAP3 SWAP2 POP POP JUMP JUMPDEST PUSH0 PUSH1 0x20 DUP3 DUP5 SUB SLT ISZERO PUSH2 0x3DA JUMPI PUSH2 0x3D9 PUSH2 0x281 JUMP JUMPDEST JUMPDEST PUSH0 DUP3 ADD CALLDATALOAD PUSH8 0xFFFFFFFFFFFFFFFF DUP2 GT ISZERO PUSH2 0x3F7 JUMPI PUSH2 0x3F6 PUSH2 0x285 JUMP JUMPDEST JUMPDEST PUSH2 0x403 DUP5 DUP3 DUP6 ADD PUSH2 0x398 JUMP JUMPDEST SWAP2 POP POP SWAP3 SWAP2 POP POP JUMP JUMPDEST PUSH0 DUP2 MLOAD SWAP1 POP SWAP2 SWAP1 POP JUMP JUMPDEST PUSH0 DUP3 DUP3 MSTORE PUSH1 0x20 DUP3 ADD SWAP1 POP SWAP3 SWAP2 POP POP JUMP JUMPDEST DUP3 DUP2 DUP4 MCOPY PUSH0 DUP4 DUP4 ADD MSTORE POP POP POP JUMP JUMPDEST PUSH0 PUSH2 0x43E DUP3 PUSH2 0x40C JUMP JUMPDEST PUSH2 0x448 DUP2 DUP6 PUSH2 0x416 JUMP JUMPDEST SWAP4 POP PUSH2 0x458 DUP2 DUP6 PUSH1 0x20 DUP7 ADD PUSH2 0x426 JUMP JUMPDEST PUSH2 0x461 DUP2 PUSH2 0x291 JUMP JUMPDEST DUP5 ADD SWAP2 POP POP SWAP3 SWAP2 POP POP JUMP JUMPDEST PUSH0 PUSH1 0x20 DUP3 ADD SWAP1 POP DUP2 DUP2 SUB PUSH0 DUP4 ADD MSTORE PUSH2 0x484 DUP2 DUP5 PUSH2 0x434 JUMP JUMPDEST SWAP1 POP SWAP3 SWAP2 POP POP JUMP JUMPDEST PUSH0 DUP2 SWAP1 POP SWAP2 SWAP1 POP JUMP JUMPDEST PUSH2 0x49E DUP2 PUSH2 0x48C JUMP JUMPDEST DUP3 MSTORE POP POP JUMP JUMPDEST PUSH0 DUP2 MLOAD SWAP1 POP SWAP2 SWAP1 POP JUMP JUMPDEST PUSH0 DUP3 DUP3 MSTORE PUSH1 0x20 DUP3 ADD SWAP1 POP SWAP3 SWAP2 POP POP JUMP JUMPDEST PUSH0 DUP2 SWAP1 POP PUSH1 0x20 DUP3 ADD SWAP1 POP SWAP2 SWAP1 POP JUMP JUMPDEST PUSH0 PUSH32 0xFF00000000000000000000000000000000000000000000000000000000000000 DUP3 AND SWAP1 POP SWAP2 SWAP1 POP JUMP JUMPDEST PUSH2 0x501 DUP2 PUSH2 0x4CD JUMP JUMPDEST DUP3 MSTORE POP POP JUMP JUMPDEST PUSH0 PUSH2 0x512 DUP4 DUP4 PUSH2 0x4F8 JUMP JUMPDEST PUSH1 0x20 DUP4 ADD SWAP1 POP SWAP3 SWAP2 POP POP JUMP JUMPDEST PUSH0 PUSH1 0x20 DUP3 ADD SWAP1 POP SWAP2 SWAP1 POP JUMP JUMPDEST PUSH0 PUSH2 0x534 DUP3 PUSH2 0x4A4 JUMP JUMPDEST PUSH2 0x53E DUP2 DUP6 PUSH2 0x4AE JUMP JUMPDEST SWAP4 POP PUSH2 0x549 DUP4 PUSH2 0x4BE JUMP JUMPDEST DUP1 PUSH0 JUMPDEST DUP4 DUP2 LT ISZERO PUSH2 0x579 JUMPI DUP2 MLOAD PUSH2 0x560 DUP9 DUP3 PUSH2 0x507 JUMP JUMPDEST SWAP8 POP PUSH2 0x56B DUP4 PUSH2 0x51E JUMP JUMPDEST SWAP3 POP POP PUSH1 0x1 DUP2 ADD SWAP1 POP PUSH2 0x54C JUMP JUMPDEST POP DUP6 SWAP4 POP POP POP POP SWAP3 SWAP2 POP POP JUMP JUMPDEST PUSH0 PUSH1 0x60 DUP3 ADD SWAP1 POP PUSH2 0x599 PUSH0 DUP4 ADD DUP7 PUSH2 0x495 JUMP JUMPDEST DUP2 DUP2 SUB PUSH1 0x20 DUP4 ADD MSTORE PUSH2 0x5AB DUP2 DUP6 PUSH2 0x52A JUMP JUMPDEST SWAP1 POP DUP2 DUP2 SUB PUSH1 0x40 DUP4 ADD MSTORE PUSH2 0x5BF DUP2 DUP5 PUSH2 0x434 JUMP JUMPDEST SWAP1 POP SWAP5 SWAP4 POP POP POP POP JUMP JUMPDEST PUSH0 PUSH1 0x20 DUP3 ADD SWAP1 POP PUSH2 0x5DC PUSH0 DUP4 ADD DUP5 PUSH2 0x495 JUMP JUMPDEST SWAP3 SWAP2 POP POP JUMP JUMPDEST PUSH2 0x5EB DUP2 PUSH2 0x48C JUMP JUMPDEST DUP2 EQ PUSH2 0x5F5 JUMPI PUSH0 DUP1 REVERT JUMPDEST POP JUMP JUMPDEST PUSH0 DUP2 CALLDATALOAD SWAP1 POP PUSH2 0x606 DUP2 PUSH2 0x5E2 JUMP JUMPDEST SWAP3 SWAP2 POP POP JUMP JUMPDEST PUSH0 DUP1 PUSH1 0x40 DUP4 DUP6 SUB SLT ISZERO PUSH2 0x622 JUMPI PUSH2 0x621 PUSH2 0x281 JUMP JUMPDEST JUMPDEST PUSH0 DUP4 ADD CALLDATALOAD PUSH8 0xFFFFFFFFFFFFFFFF DUP2 GT ISZERO PUSH2 0x63F JUMPI PUSH2 0x63E PUSH2 0x285 JUMP JUMPDEST JUMPDEST PUSH2 0x64B DUP6 DUP3 DUP7 ADD PUSH2 0x398 JUMP JUMPDEST SWAP3 POP POP PUSH1 0x20 PUSH2 0x65C DUP6 DUP3 DUP7 ADD PUSH2 0x5F8 JUMP JUMPDEST SWAP2 POP POP SWAP3 POP SWAP3 SWAP1 POP JUMP JUMPDEST PUSH2 0x66F DUP2 PUSH2 0x4CD JUMP JUMPDEST DUP3 MSTORE POP POP JUMP JUMPDEST PUSH0 PUSH1 0x20 DUP3 ADD SWAP1 POP PUSH2 0x688 PUSH0 DUP4 ADD DUP5 PUSH2 0x666 JUMP JUMPDEST SWAP3 SWAP2 POP POP JUMP JUMPDEST PUSH32 0x4E487B7100000000000000000000000000000000000000000000000000000000 PUSH0 MSTORE PUSH1 0x32 PUSH1 0x4 MSTORE PUSH1 0x24 PUSH0 REVERT JUMPDEST PUSH0 DUP2 SWAP1 POP SWAP3 SWAP2 POP POP JUMP JUMPDEST PUSH2 0x6CE DUP2 PUSH2 0x4CD JUMP JUMPDEST DUP3 MSTORE POP POP JUMP JUMPDEST PUSH0 PUSH2 0x6DF DUP4 DUP4 PUSH2 0x6C5 JUMP JUMPDEST PUSH1 0x20 DUP4 ADD SWAP1 POP SWAP3 SWAP2 POP POP JUMP JUMPDEST PUSH0 PUSH2 0x6F5 DUP3 PUSH2 0x4A4 JUMP JUMPDEST PUSH2 0x6FF DUP2 DUP6 PUSH2 0x6BB JUMP JUMPDEST SWAP4 POP PUSH2 0x70A DUP4 PUSH2 0x4BE JUMP JUMPDEST DUP1 PUSH0 JUMPDEST DUP4 DUP2 LT ISZERO PUSH2 0x73A JUMPI DUP2 MLOAD PUSH2 0x721 DUP9 DUP3 PUSH2 0x6D4 JUMP JUMPDEST SWAP8 POP PUSH2 0x72C DUP4 PUSH2 0x51E JUMP JUMPDEST SWAP3 POP POP PUSH1 0x1 DUP2 ADD SWAP1 POP PUSH2 0x70D JUMP JUMPDEST POP DUP6 SWAP4 POP POP POP POP SWAP3 SWAP2 POP POP JUMP JUMPDEST PUSH0 PUSH2 0x752 DUP3 DUP5 PUSH2 0x6EB JUMP JUMPDEST SWAP2 POP DUP2 SWAP1 POP SWAP3 SWAP2 POP POP JUMP JUMPDEST PUSH32 0x4E487B7100000000000000000000000000000000000000000000000000000000 PUSH0 MSTORE PUSH1 0x11 PUSH1 0x4 MSTORE PUSH1 0x24 PUSH0 REVERT JUMPDEST PUSH0 PUSH2 0x794 DUP3 PUSH2 0x48C JUMP JUMPDEST SWAP2 POP PUSH2 0x79F DUP4 PUSH2 0x48C JUMP JUMPDEST SWAP3 POP DUP3 DUP3 SUB SWAP1 POP DUP2 DUP2 GT ISZERO PUSH2 0x7B7 JUMPI PUSH2 0x7B6 PUSH2 0x75D JUMP JUMPDEST JUMPDEST SWAP3 SWAP2 POP POP JUMP INVALID LOG2 PUSH5 0x6970667358 0x22 SLT KECCAK256 0x23 0xC0 SWAP3 0xAB BASEFEE MOD PUSH26 0xCADA6C9A3C10CA362DC2864B0901DA6ED4B3BD6D53D0FB62D064 PUSH20 0x6F6C634300081900330000000000000000000000 "
				},
				"gasEstimates": {
					"creation": {
						"codeDepositCost": "407000",
						"executionCost": "441",
						"totalCost": "407441"
					},
					"external": {
						"bytesToString(bytes)": "infinite",
						"getByte1(bytes,uint256)": "infinite",
						"getBytes(bytes)": "infinite",
						"split(bytes)": "infinite"
					}
				},
				"methodIdentifiers": {
					"bytesToString(bytes)": "39614e4f",
					"getByte1(bytes,uint256)": "cd63efd4",
					"getBytes(bytes)": "781c6dbe",
					"split(bytes)": "65d894e9"
				}
			},
			"storageLayout": {
				"storage": [],
				"types": null
			},
			"userdoc": {
				"kind": "user",
				"methods": {},
				"version": 1
			}
		}
	}
}