{
	"solidity_test/test3.sol": {
		"TEST3Answer": {
			"abi": [
				{
					"inputs": [
						{
							"internalType": "string",
							"name": "_id",
							"type": "string"
						},
						{
							"internalType": "string",
							"name": "_pw",
							"type": "string"
						}
					],
					"name": "getHash",
					"outputs": [
						{
							"internalType": "bytes32",
							"name": "",
							"type": "bytes32"
						}
					],
					"stateMutability": "pure",
					"type": "function"
				},
				{
					"inputs": [
						{
							"internalType": "string",
							"name": "_id",
							"type": "string"
						},
						{
							"internalType": "string",
							"name": "_pw",
							"type": "string"
						}
					],
					"name": "signIn",
					"outputs": [
						{
							"internalType": "bool",
							"name": "",
							"type": "bool"
						}
					],
					"stateMutability": "view",
					"type": "function"
				},
				{
					"inputs": [
						{
							"internalType": "string",
							"name": "_id",
							"type": "string"
						},
						{
							"internalType": "string",
							"name": "_pw",
							"type": "string"
						}
					],
					"name": "signUp",
					"outputs": [],
					"stateMutability": "nonpayable",
					"type": "function"
				}
			],
			"devdoc": {
				"kind": "dev",
				"methods": {},
				"version": 1
			},
			"evm": {
				"assembly": "    /* \"solidity_test/test3.sol\":3101:5160  contract TEST3Answer {... */\n  mstore(0x40, 0x80)\n  callvalue\n  dup1\n  iszero\n  tag_1\n  jumpi\n  0x00\n  dup1\n  revert\ntag_1:\n  pop\n  dataSize(sub_0)\n  dup1\n  dataOffset(sub_0)\n  0x00\n  codecopy\n  0x00\n  return\nstop\n\nsub_0: assembly {\n        /* \"solidity_test/test3.sol\":3101:5160  contract TEST3Answer {... */\n      mstore(0x40, 0x80)\n      callvalue\n      dup1\n      iszero\n      tag_1\n      jumpi\n      0x00\n      dup1\n      revert\n    tag_1:\n      pop\n      jumpi(tag_2, lt(calldatasize, 0x04))\n      shr(0xe0, calldataload(0x00))\n      dup1\n      0x27cf399a\n      eq\n      tag_3\n      jumpi\n      dup1\n      0x2c162dbc\n      eq\n      tag_4\n      jumpi\n      dup1\n      0xa469a332\n      eq\n      tag_5\n      jumpi\n    tag_2:\n      0x00\n      dup1\n      revert\n        /* \"solidity_test/test3.sol\":4604:4751  function getHash(string memory _id, string memory _pw) public pure returns(bytes32) {... */\n    tag_3:\n      tag_6\n      0x04\n      dup1\n      calldatasize\n      sub\n      dup2\n      add\n      swap1\n      tag_7\n      swap2\n      swap1\n      tag_8\n      jump\t// in\n    tag_7:\n      tag_9\n      jump\t// in\n    tag_6:\n      mload(0x40)\n      tag_10\n      swap2\n      swap1\n      tag_11\n      jump\t// in\n    tag_10:\n      mload(0x40)\n      dup1\n      swap2\n      sub\n      swap1\n      return\n        /* \"solidity_test/test3.sol\":4763:4919  function signIn(string memory _id, string memory _pw) public view returns(bool) {... */\n    tag_4:\n      tag_12\n      0x04\n      dup1\n      calldatasize\n      sub\n      dup2\n      add\n      swap1\n      tag_13\n      swap2\n      swap1\n      tag_8\n      jump\t// in\n    tag_13:\n      tag_14\n      jump\t// in\n    tag_12:\n      mload(0x40)\n      tag_15\n      swap2\n      swap1\n      tag_16\n      jump\t// in\n    tag_15:\n      mload(0x40)\n      dup1\n      swap2\n      sub\n      swap1\n      return\n        /* \"solidity_test/test3.sol\":4966:5157  function signUp(string memory _id, string memory _pw) public {... */\n    tag_5:\n      tag_17\n      0x04\n      dup1\n      calldatasize\n      sub\n      dup2\n      add\n      swap1\n      tag_18\n      swap2\n      swap1\n      tag_8\n      jump\t// in\n    tag_18:\n      tag_19\n      jump\t// in\n    tag_17:\n      stop\n        /* \"solidity_test/test3.sol\":4604:4751  function getHash(string memory _id, string memory _pw) public pure returns(bytes32) {... */\n    tag_9:\n        /* \"solidity_test/test3.sol\":4679:4686  bytes32 */\n      0x00\n        /* \"solidity_test/test3.sol\":4733:4736  _id */\n      dup3\n        /* \"solidity_test/test3.sol\":4738:4741  _pw */\n      dup3\n        /* \"solidity_test/test3.sol\":4716:4742  abi.encodePacked(_id, _pw) */\n      add(0x20, mload(0x40))\n      tag_21\n      swap3\n      swap2\n      swap1\n      tag_22\n      jump\t// in\n    tag_21:\n      mload(0x40)\n      0x20\n      dup2\n      dup4\n      sub\n      sub\n      dup2\n      mstore\n      swap1\n      0x40\n      mstore\n        /* \"solidity_test/test3.sol\":4706:4743  keccak256(abi.encodePacked(_id, _pw)) */\n      dup1\n      mload\n      swap1\n      0x20\n      add\n      keccak256\n        /* \"solidity_test/test3.sol\":4699:4743  return keccak256(abi.encodePacked(_id, _pw)) */\n      swap1\n      pop\n        /* \"solidity_test/test3.sol\":4604:4751  function getHash(string memory _id, string memory _pw) public pure returns(bytes32) {... */\n      swap3\n      swap2\n      pop\n      pop\n      jump\t// out\n        /* \"solidity_test/test3.sol\":4763:4919  function signIn(string memory _id, string memory _pw) public view returns(bool) {... */\n    tag_14:\n        /* \"solidity_test/test3.sol\":4837:4841  bool */\n      0x00\n        /* \"solidity_test/test3.sol\":4881:4882  0 */\n      dup1\n        /* \"solidity_test/test3.sol\":4873:4883  bytes32(0) */\n      0x00\n      shl\n        /* \"solidity_test/test3.sol\":4862:4866  IDPW */\n      0x00\n        /* \"solidity_test/test3.sol\":4867:4870  _id */\n      dup5\n        /* \"solidity_test/test3.sol\":4862:4871  IDPW[_id] */\n      mload(0x40)\n      tag_24\n      swap2\n      swap1\n      tag_25\n      jump\t// in\n    tag_24:\n      swap1\n      dup2\n      mstore\n      0x20\n      add\n      mload(0x40)\n      dup1\n      swap2\n      sub\n      swap1\n      keccak256\n      sload\n        /* \"solidity_test/test3.sol\":4862:4883  IDPW[_id]!=bytes32(0) */\n      sub\n        /* \"solidity_test/test3.sol\":4854:4901  require(IDPW[_id]!=bytes32(0), \"Sign up first\") */\n      tag_26\n      jumpi\n      mload(0x40)\n      0x08c379a000000000000000000000000000000000000000000000000000000000\n      dup2\n      mstore\n      0x04\n      add\n      tag_27\n      swap1\n      tag_28\n      jump\t// in\n    tag_27:\n      mload(0x40)\n      dup1\n      swap2\n      sub\n      swap1\n      revert\n    tag_26:\n        /* \"solidity_test/test3.sol\":4763:4919  function signIn(string memory _id, string memory _pw) public view returns(bool) {... */\n      swap3\n      swap2\n      pop\n      pop\n      jump\t// out\n        /* \"solidity_test/test3.sol\":4966:5157  function signUp(string memory _id, string memory _pw) public {... */\n    tag_19:\n        /* \"solidity_test/test3.sol\":5068:5069  0 */\n      0x00\n        /* \"solidity_test/test3.sol\":5060:5070  bytes32(0) */\n      dup1\n      shl\n        /* \"solidity_test/test3.sol\":5047:5051  IDPW */\n      0x00\n        /* \"solidity_test/test3.sol\":5052:5055  _id */\n      dup4\n        /* \"solidity_test/test3.sol\":5047:5056  IDPW[_id] */\n      mload(0x40)\n      tag_30\n      swap2\n      swap1\n      tag_25\n      jump\t// in\n    tag_30:\n      swap1\n      dup2\n      mstore\n      0x20\n      add\n      mload(0x40)\n      dup1\n      swap2\n      sub\n      swap1\n      keccak256\n      sload\n        /* \"solidity_test/test3.sol\":5047:5070  IDPW[_id] == bytes32(0) */\n      eq\n        /* \"solidity_test/test3.sol\":5038:5079  require( IDPW[_id] == bytes32(0), \"nope\") */\n      tag_31\n      jumpi\n      mload(0x40)\n      0x08c379a000000000000000000000000000000000000000000000000000000000\n      dup2\n      mstore\n      0x04\n      add\n      tag_32\n      swap1\n      tag_33\n      jump\t// in\n    tag_32:\n      mload(0x40)\n      dup1\n      swap2\n      sub\n      swap1\n      revert\n    tag_31:\n        /* \"solidity_test/test3.sol\":5090:5102  bytes32 hash */\n      0x00\n        /* \"solidity_test/test3.sol\":5105:5122  getHash(_id, _pw) */\n      tag_34\n        /* \"solidity_test/test3.sol\":5113:5116  _id */\n      dup4\n        /* \"solidity_test/test3.sol\":5118:5121  _pw */\n      dup4\n        /* \"solidity_test/test3.sol\":5105:5112  getHash */\n      tag_9\n        /* \"solidity_test/test3.sol\":5105:5122  getHash(_id, _pw) */\n      jump\t// in\n    tag_34:\n        /* \"solidity_test/test3.sol\":5090:5122  bytes32 hash = getHash(_id, _pw) */\n      swap1\n      pop\n        /* \"solidity_test/test3.sol\":5145:5149  hash */\n      dup1\n        /* \"solidity_test/test3.sol\":5133:5137  IDPW */\n      0x00\n        /* \"solidity_test/test3.sol\":5138:5141  _id */\n      dup5\n        /* \"solidity_test/test3.sol\":5133:5142  IDPW[_id] */\n      mload(0x40)\n      tag_35\n      swap2\n      swap1\n      tag_25\n      jump\t// in\n    tag_35:\n      swap1\n      dup2\n      mstore\n      0x20\n      add\n      mload(0x40)\n      dup1\n      swap2\n      sub\n      swap1\n      keccak256\n        /* \"solidity_test/test3.sol\":5133:5149  IDPW[_id] = hash */\n      dup2\n      swap1\n      sstore\n      pop\n        /* \"solidity_test/test3.sol\":5027:5157  {... */\n      pop\n        /* \"solidity_test/test3.sol\":4966:5157  function signUp(string memory _id, string memory _pw) public {... */\n      pop\n      pop\n      jump\t// out\n        /* \"#utility.yul\":7:82   */\n    tag_36:\n        /* \"#utility.yul\":40:46   */\n      0x00\n        /* \"#utility.yul\":73:75   */\n      0x40\n        /* \"#utility.yul\":67:76   */\n      mload\n        /* \"#utility.yul\":57:76   */\n      swap1\n      pop\n        /* \"#utility.yul\":7:82   */\n      swap1\n      jump\t// out\n        /* \"#utility.yul\":88:205   */\n    tag_37:\n        /* \"#utility.yul\":197:198   */\n      0x00\n        /* \"#utility.yul\":194:195   */\n      dup1\n        /* \"#utility.yul\":187:199   */\n      revert\n        /* \"#utility.yul\":211:328   */\n    tag_38:\n        /* \"#utility.yul\":320:321   */\n      0x00\n        /* \"#utility.yul\":317:318   */\n      dup1\n        /* \"#utility.yul\":310:322   */\n      revert\n        /* \"#utility.yul\":334:451   */\n    tag_39:\n        /* \"#utility.yul\":443:444   */\n      0x00\n        /* \"#utility.yul\":440:441   */\n      dup1\n        /* \"#utility.yul\":433:445   */\n      revert\n        /* \"#utility.yul\":457:574   */\n    tag_40:\n        /* \"#utility.yul\":566:567   */\n      0x00\n        /* \"#utility.yul\":563:564   */\n      dup1\n        /* \"#utility.yul\":556:568   */\n      revert\n        /* \"#utility.yul\":580:682   */\n    tag_41:\n        /* \"#utility.yul\":621:627   */\n      0x00\n        /* \"#utility.yul\":672:674   */\n      0x1f\n        /* \"#utility.yul\":668:675   */\n      not\n        /* \"#utility.yul\":663:665   */\n      0x1f\n        /* \"#utility.yul\":656:661   */\n      dup4\n        /* \"#utility.yul\":652:666   */\n      add\n        /* \"#utility.yul\":648:676   */\n      and\n        /* \"#utility.yul\":638:676   */\n      swap1\n      pop\n        /* \"#utility.yul\":580:682   */\n      swap2\n      swap1\n      pop\n      jump\t// out\n        /* \"#utility.yul\":688:868   */\n    tag_42:\n        /* \"#utility.yul\":736:813   */\n      0x4e487b7100000000000000000000000000000000000000000000000000000000\n        /* \"#utility.yul\":733:734   */\n      0x00\n        /* \"#utility.yul\":726:814   */\n      mstore\n        /* \"#utility.yul\":833:837   */\n      0x41\n        /* \"#utility.yul\":830:831   */\n      0x04\n        /* \"#utility.yul\":823:838   */\n      mstore\n        /* \"#utility.yul\":857:861   */\n      0x24\n        /* \"#utility.yul\":854:855   */\n      0x00\n        /* \"#utility.yul\":847:862   */\n      revert\n        /* \"#utility.yul\":874:1155   */\n    tag_43:\n        /* \"#utility.yul\":957:984   */\n      tag_71\n        /* \"#utility.yul\":979:983   */\n      dup3\n        /* \"#utility.yul\":957:984   */\n      tag_41\n      jump\t// in\n    tag_71:\n        /* \"#utility.yul\":949:955   */\n      dup2\n        /* \"#utility.yul\":945:985   */\n      add\n        /* \"#utility.yul\":1087:1093   */\n      dup2\n        /* \"#utility.yul\":1075:1085   */\n      dup2\n        /* \"#utility.yul\":1072:1094   */\n      lt\n        /* \"#utility.yul\":1051:1069   */\n      0xffffffffffffffff\n        /* \"#utility.yul\":1039:1049   */\n      dup3\n        /* \"#utility.yul\":1036:1070   */\n      gt\n        /* \"#utility.yul\":1033:1095   */\n      or\n        /* \"#utility.yul\":1030:1118   */\n      iszero\n      tag_72\n      jumpi\n        /* \"#utility.yul\":1098:1116   */\n      tag_73\n      tag_42\n      jump\t// in\n    tag_73:\n        /* \"#utility.yul\":1030:1118   */\n    tag_72:\n        /* \"#utility.yul\":1138:1148   */\n      dup1\n        /* \"#utility.yul\":1134:1136   */\n      0x40\n        /* \"#utility.yul\":1127:1149   */\n      mstore\n        /* \"#utility.yul\":917:1155   */\n      pop\n        /* \"#utility.yul\":874:1155   */\n      pop\n      pop\n      jump\t// out\n        /* \"#utility.yul\":1161:1290   */\n    tag_44:\n        /* \"#utility.yul\":1195:1201   */\n      0x00\n        /* \"#utility.yul\":1222:1242   */\n      tag_75\n      tag_36\n      jump\t// in\n    tag_75:\n        /* \"#utility.yul\":1212:1242   */\n      swap1\n      pop\n        /* \"#utility.yul\":1251:1284   */\n      tag_76\n        /* \"#utility.yul\":1279:1283   */\n      dup3\n        /* \"#utility.yul\":1271:1277   */\n      dup3\n        /* \"#utility.yul\":1251:1284   */\n      tag_43\n      jump\t// in\n    tag_76:\n        /* \"#utility.yul\":1161:1290   */\n      swap2\n      swap1\n      pop\n      jump\t// out\n        /* \"#utility.yul\":1296:1604   */\n    tag_45:\n        /* \"#utility.yul\":1358:1362   */\n      0x00\n        /* \"#utility.yul\":1448:1466   */\n      0xffffffffffffffff\n        /* \"#utility.yul\":1440:1446   */\n      dup3\n        /* \"#utility.yul\":1437:1467   */\n      gt\n        /* \"#utility.yul\":1434:1490   */\n      iszero\n      tag_78\n      jumpi\n        /* \"#utility.yul\":1470:1488   */\n      tag_79\n      tag_42\n      jump\t// in\n    tag_79:\n        /* \"#utility.yul\":1434:1490   */\n    tag_78:\n        /* \"#utility.yul\":1508:1537   */\n      tag_80\n        /* \"#utility.yul\":1530:1536   */\n      dup3\n        /* \"#utility.yul\":1508:1537   */\n      tag_41\n      jump\t// in\n    tag_80:\n        /* \"#utility.yul\":1500:1537   */\n      swap1\n      pop\n        /* \"#utility.yul\":1592:1596   */\n      0x20\n        /* \"#utility.yul\":1586:1590   */\n      dup2\n        /* \"#utility.yul\":1582:1597   */\n      add\n        /* \"#utility.yul\":1574:1597   */\n      swap1\n      pop\n        /* \"#utility.yul\":1296:1604   */\n      swap2\n      swap1\n      pop\n      jump\t// out\n        /* \"#utility.yul\":1610:1758   */\n    tag_46:\n        /* \"#utility.yul\":1708:1714   */\n      dup3\n        /* \"#utility.yul\":1703:1706   */\n      dup2\n        /* \"#utility.yul\":1698:1701   */\n      dup4\n        /* \"#utility.yul\":1685:1715   */\n      calldatacopy\n        /* \"#utility.yul\":1749:1750   */\n      0x00\n        /* \"#utility.yul\":1740:1746   */\n      dup4\n        /* \"#utility.yul\":1735:1738   */\n      dup4\n        /* \"#utility.yul\":1731:1747   */\n      add\n        /* \"#utility.yul\":1724:1751   */\n      mstore\n        /* \"#utility.yul\":1610:1758   */\n      pop\n      pop\n      pop\n      jump\t// out\n        /* \"#utility.yul\":1764:2189   */\n    tag_47:\n        /* \"#utility.yul\":1842:1847   */\n      0x00\n        /* \"#utility.yul\":1867:1933   */\n      tag_83\n        /* \"#utility.yul\":1883:1932   */\n      tag_84\n        /* \"#utility.yul\":1925:1931   */\n      dup5\n        /* \"#utility.yul\":1883:1932   */\n      tag_45\n      jump\t// in\n    tag_84:\n        /* \"#utility.yul\":1867:1933   */\n      tag_44\n      jump\t// in\n    tag_83:\n        /* \"#utility.yul\":1858:1933   */\n      swap1\n      pop\n        /* \"#utility.yul\":1956:1962   */\n      dup3\n        /* \"#utility.yul\":1949:1954   */\n      dup2\n        /* \"#utility.yul\":1942:1963   */\n      mstore\n        /* \"#utility.yul\":1994:1998   */\n      0x20\n        /* \"#utility.yul\":1987:1992   */\n      dup2\n        /* \"#utility.yul\":1983:1999   */\n      add\n        /* \"#utility.yul\":2032:2035   */\n      dup5\n        /* \"#utility.yul\":2023:2029   */\n      dup5\n        /* \"#utility.yul\":2018:2021   */\n      dup5\n        /* \"#utility.yul\":2014:2030   */\n      add\n        /* \"#utility.yul\":2011:2036   */\n      gt\n        /* \"#utility.yul\":2008:2120   */\n      iszero\n      tag_85\n      jumpi\n        /* \"#utility.yul\":2039:2118   */\n      tag_86\n      tag_40\n      jump\t// in\n    tag_86:\n        /* \"#utility.yul\":2008:2120   */\n    tag_85:\n        /* \"#utility.yul\":2129:2183   */\n      tag_87\n        /* \"#utility.yul\":2176:2182   */\n      dup5\n        /* \"#utility.yul\":2171:2174   */\n      dup3\n        /* \"#utility.yul\":2166:2169   */\n      dup6\n        /* \"#utility.yul\":2129:2183   */\n      tag_46\n      jump\t// in\n    tag_87:\n        /* \"#utility.yul\":1848:2189   */\n      pop\n        /* \"#utility.yul\":1764:2189   */\n      swap4\n      swap3\n      pop\n      pop\n      pop\n      jump\t// out\n        /* \"#utility.yul\":2209:2549   */\n    tag_48:\n        /* \"#utility.yul\":2265:2270   */\n      0x00\n        /* \"#utility.yul\":2314:2317   */\n      dup3\n        /* \"#utility.yul\":2307:2311   */\n      0x1f\n        /* \"#utility.yul\":2299:2305   */\n      dup4\n        /* \"#utility.yul\":2295:2312   */\n      add\n        /* \"#utility.yul\":2291:2318   */\n      slt\n        /* \"#utility.yul\":2281:2403   */\n      tag_89\n      jumpi\n        /* \"#utility.yul\":2322:2401   */\n      tag_90\n      tag_39\n      jump\t// in\n    tag_90:\n        /* \"#utility.yul\":2281:2403   */\n    tag_89:\n        /* \"#utility.yul\":2439:2445   */\n      dup2\n        /* \"#utility.yul\":2426:2446   */\n      calldataload\n        /* \"#utility.yul\":2464:2543   */\n      tag_91\n        /* \"#utility.yul\":2539:2542   */\n      dup5\n        /* \"#utility.yul\":2531:2537   */\n      dup3\n        /* \"#utility.yul\":2524:2528   */\n      0x20\n        /* \"#utility.yul\":2516:2522   */\n      dup7\n        /* \"#utility.yul\":2512:2529   */\n      add\n        /* \"#utility.yul\":2464:2543   */\n      tag_47\n      jump\t// in\n    tag_91:\n        /* \"#utility.yul\":2455:2543   */\n      swap2\n      pop\n        /* \"#utility.yul\":2271:2549   */\n      pop\n        /* \"#utility.yul\":2209:2549   */\n      swap3\n      swap2\n      pop\n      pop\n      jump\t// out\n        /* \"#utility.yul\":2555:3389   */\n    tag_8:\n        /* \"#utility.yul\":2643:2649   */\n      0x00\n        /* \"#utility.yul\":2651:2657   */\n      dup1\n        /* \"#utility.yul\":2700:2702   */\n      0x40\n        /* \"#utility.yul\":2688:2697   */\n      dup4\n        /* \"#utility.yul\":2679:2686   */\n      dup6\n        /* \"#utility.yul\":2675:2698   */\n      sub\n        /* \"#utility.yul\":2671:2703   */\n      slt\n        /* \"#utility.yul\":2668:2787   */\n      iszero\n      tag_93\n      jumpi\n        /* \"#utility.yul\":2706:2785   */\n      tag_94\n      tag_37\n      jump\t// in\n    tag_94:\n        /* \"#utility.yul\":2668:2787   */\n    tag_93:\n        /* \"#utility.yul\":2854:2855   */\n      0x00\n        /* \"#utility.yul\":2843:2852   */\n      dup4\n        /* \"#utility.yul\":2839:2856   */\n      add\n        /* \"#utility.yul\":2826:2857   */\n      calldataload\n        /* \"#utility.yul\":2884:2902   */\n      0xffffffffffffffff\n        /* \"#utility.yul\":2876:2882   */\n      dup2\n        /* \"#utility.yul\":2873:2903   */\n      gt\n        /* \"#utility.yul\":2870:2987   */\n      iszero\n      tag_95\n      jumpi\n        /* \"#utility.yul\":2906:2985   */\n      tag_96\n      tag_38\n      jump\t// in\n    tag_96:\n        /* \"#utility.yul\":2870:2987   */\n    tag_95:\n        /* \"#utility.yul\":3011:3074   */\n      tag_97\n        /* \"#utility.yul\":3066:3073   */\n      dup6\n        /* \"#utility.yul\":3057:3063   */\n      dup3\n        /* \"#utility.yul\":3046:3055   */\n      dup7\n        /* \"#utility.yul\":3042:3064   */\n      add\n        /* \"#utility.yul\":3011:3074   */\n      tag_48\n      jump\t// in\n    tag_97:\n        /* \"#utility.yul\":3001:3074   */\n      swap3\n      pop\n        /* \"#utility.yul\":2797:3084   */\n      pop\n        /* \"#utility.yul\":3151:3153   */\n      0x20\n        /* \"#utility.yul\":3140:3149   */\n      dup4\n        /* \"#utility.yul\":3136:3154   */\n      add\n        /* \"#utility.yul\":3123:3155   */\n      calldataload\n        /* \"#utility.yul\":3182:3200   */\n      0xffffffffffffffff\n        /* \"#utility.yul\":3174:3180   */\n      dup2\n        /* \"#utility.yul\":3171:3201   */\n      gt\n        /* \"#utility.yul\":3168:3285   */\n      iszero\n      tag_98\n      jumpi\n        /* \"#utility.yul\":3204:3283   */\n      tag_99\n      tag_38\n      jump\t// in\n    tag_99:\n        /* \"#utility.yul\":3168:3285   */\n    tag_98:\n        /* \"#utility.yul\":3309:3372   */\n      tag_100\n        /* \"#utility.yul\":3364:3371   */\n      dup6\n        /* \"#utility.yul\":3355:3361   */\n      dup3\n        /* \"#utility.yul\":3344:3353   */\n      dup7\n        /* \"#utility.yul\":3340:3362   */\n      add\n        /* \"#utility.yul\":3309:3372   */\n      tag_48\n      jump\t// in\n    tag_100:\n        /* \"#utility.yul\":3299:3372   */\n      swap2\n      pop\n        /* \"#utility.yul\":3094:3382   */\n      pop\n        /* \"#utility.yul\":2555:3389   */\n      swap3\n      pop\n      swap3\n      swap1\n      pop\n      jump\t// out\n        /* \"#utility.yul\":3395:3472   */\n    tag_49:\n        /* \"#utility.yul\":3432:3439   */\n      0x00\n        /* \"#utility.yul\":3461:3466   */\n      dup2\n        /* \"#utility.yul\":3450:3466   */\n      swap1\n      pop\n        /* \"#utility.yul\":3395:3472   */\n      swap2\n      swap1\n      pop\n      jump\t// out\n        /* \"#utility.yul\":3478:3596   */\n    tag_50:\n        /* \"#utility.yul\":3565:3589   */\n      tag_103\n        /* \"#utility.yul\":3583:3588   */\n      dup2\n        /* \"#utility.yul\":3565:3589   */\n      tag_49\n      jump\t// in\n    tag_103:\n        /* \"#utility.yul\":3560:3563   */\n      dup3\n        /* \"#utility.yul\":3553:3590   */\n      mstore\n        /* \"#utility.yul\":3478:3596   */\n      pop\n      pop\n      jump\t// out\n        /* \"#utility.yul\":3602:3824   */\n    tag_11:\n        /* \"#utility.yul\":3695:3699   */\n      0x00\n        /* \"#utility.yul\":3733:3735   */\n      0x20\n        /* \"#utility.yul\":3722:3731   */\n      dup3\n        /* \"#utility.yul\":3718:3736   */\n      add\n        /* \"#utility.yul\":3710:3736   */\n      swap1\n      pop\n        /* \"#utility.yul\":3746:3817   */\n      tag_105\n        /* \"#utility.yul\":3814:3815   */\n      0x00\n        /* \"#utility.yul\":3803:3812   */\n      dup4\n        /* \"#utility.yul\":3799:3816   */\n      add\n        /* \"#utility.yul\":3790:3796   */\n      dup5\n        /* \"#utility.yul\":3746:3817   */\n      tag_50\n      jump\t// in\n    tag_105:\n        /* \"#utility.yul\":3602:3824   */\n      swap3\n      swap2\n      pop\n      pop\n      jump\t// out\n        /* \"#utility.yul\":3830:3920   */\n    tag_51:\n        /* \"#utility.yul\":3864:3871   */\n      0x00\n        /* \"#utility.yul\":3907:3912   */\n      dup2\n        /* \"#utility.yul\":3900:3913   */\n      iszero\n        /* \"#utility.yul\":3893:3914   */\n      iszero\n        /* \"#utility.yul\":3882:3914   */\n      swap1\n      pop\n        /* \"#utility.yul\":3830:3920   */\n      swap2\n      swap1\n      pop\n      jump\t// out\n        /* \"#utility.yul\":3926:4035   */\n    tag_52:\n        /* \"#utility.yul\":4007:4028   */\n      tag_108\n        /* \"#utility.yul\":4022:4027   */\n      dup2\n        /* \"#utility.yul\":4007:4028   */\n      tag_51\n      jump\t// in\n    tag_108:\n        /* \"#utility.yul\":4002:4005   */\n      dup3\n        /* \"#utility.yul\":3995:4029   */\n      mstore\n        /* \"#utility.yul\":3926:4035   */\n      pop\n      pop\n      jump\t// out\n        /* \"#utility.yul\":4041:4251   */\n    tag_16:\n        /* \"#utility.yul\":4128:4132   */\n      0x00\n        /* \"#utility.yul\":4166:4168   */\n      0x20\n        /* \"#utility.yul\":4155:4164   */\n      dup3\n        /* \"#utility.yul\":4151:4169   */\n      add\n        /* \"#utility.yul\":4143:4169   */\n      swap1\n      pop\n        /* \"#utility.yul\":4179:4244   */\n      tag_110\n        /* \"#utility.yul\":4241:4242   */\n      0x00\n        /* \"#utility.yul\":4230:4239   */\n      dup4\n        /* \"#utility.yul\":4226:4243   */\n      add\n        /* \"#utility.yul\":4217:4223   */\n      dup5\n        /* \"#utility.yul\":4179:4244   */\n      tag_52\n      jump\t// in\n    tag_110:\n        /* \"#utility.yul\":4041:4251   */\n      swap3\n      swap2\n      pop\n      pop\n      jump\t// out\n        /* \"#utility.yul\":4257:4356   */\n    tag_53:\n        /* \"#utility.yul\":4309:4315   */\n      0x00\n        /* \"#utility.yul\":4343:4348   */\n      dup2\n        /* \"#utility.yul\":4337:4349   */\n      mload\n        /* \"#utility.yul\":4327:4349   */\n      swap1\n      pop\n        /* \"#utility.yul\":4257:4356   */\n      swap2\n      swap1\n      pop\n      jump\t// out\n        /* \"#utility.yul\":4362:4510   */\n    tag_54:\n        /* \"#utility.yul\":4464:4475   */\n      0x00\n        /* \"#utility.yul\":4501:4504   */\n      dup2\n        /* \"#utility.yul\":4486:4504   */\n      swap1\n      pop\n        /* \"#utility.yul\":4362:4510   */\n      swap3\n      swap2\n      pop\n      pop\n      jump\t// out\n        /* \"#utility.yul\":4516:4655   */\n    tag_55:\n        /* \"#utility.yul\":4605:4611   */\n      dup3\n        /* \"#utility.yul\":4600:4603   */\n      dup2\n        /* \"#utility.yul\":4595:4598   */\n      dup4\n        /* \"#utility.yul\":4589:4612   */\n      mcopy\n        /* \"#utility.yul\":4646:4647   */\n      0x00\n        /* \"#utility.yul\":4637:4643   */\n      dup4\n        /* \"#utility.yul\":4632:4635   */\n      dup4\n        /* \"#utility.yul\":4628:4644   */\n      add\n        /* \"#utility.yul\":4621:4648   */\n      mstore\n        /* \"#utility.yul\":4516:4655   */\n      pop\n      pop\n      pop\n      jump\t// out\n        /* \"#utility.yul\":4661:5051   */\n    tag_56:\n        /* \"#utility.yul\":4767:4770   */\n      0x00\n        /* \"#utility.yul\":4795:4834   */\n      tag_115\n        /* \"#utility.yul\":4828:4833   */\n      dup3\n        /* \"#utility.yul\":4795:4834   */\n      tag_53\n      jump\t// in\n    tag_115:\n        /* \"#utility.yul\":4850:4939   */\n      tag_116\n        /* \"#utility.yul\":4932:4938   */\n      dup2\n        /* \"#utility.yul\":4927:4930   */\n      dup6\n        /* \"#utility.yul\":4850:4939   */\n      tag_54\n      jump\t// in\n    tag_116:\n        /* \"#utility.yul\":4843:4939   */\n      swap4\n      pop\n        /* \"#utility.yul\":4948:5013   */\n      tag_117\n        /* \"#utility.yul\":5006:5012   */\n      dup2\n        /* \"#utility.yul\":5001:5004   */\n      dup6\n        /* \"#utility.yul\":4994:4998   */\n      0x20\n        /* \"#utility.yul\":4987:4992   */\n      dup7\n        /* \"#utility.yul\":4983:4999   */\n      add\n        /* \"#utility.yul\":4948:5013   */\n      tag_55\n      jump\t// in\n    tag_117:\n        /* \"#utility.yul\":5038:5044   */\n      dup1\n        /* \"#utility.yul\":5033:5036   */\n      dup5\n        /* \"#utility.yul\":5029:5045   */\n      add\n        /* \"#utility.yul\":5022:5045   */\n      swap2\n      pop\n        /* \"#utility.yul\":4771:5051   */\n      pop\n        /* \"#utility.yul\":4661:5051   */\n      swap3\n      swap2\n      pop\n      pop\n      jump\t// out\n        /* \"#utility.yul\":5057:5492   */\n    tag_22:\n        /* \"#utility.yul\":5237:5240   */\n      0x00\n        /* \"#utility.yul\":5259:5354   */\n      tag_119\n        /* \"#utility.yul\":5350:5353   */\n      dup3\n        /* \"#utility.yul\":5341:5347   */\n      dup6\n        /* \"#utility.yul\":5259:5354   */\n      tag_56\n      jump\t// in\n    tag_119:\n        /* \"#utility.yul\":5252:5354   */\n      swap2\n      pop\n        /* \"#utility.yul\":5371:5466   */\n      tag_120\n        /* \"#utility.yul\":5462:5465   */\n      dup3\n        /* \"#utility.yul\":5453:5459   */\n      dup5\n        /* \"#utility.yul\":5371:5466   */\n      tag_56\n      jump\t// in\n    tag_120:\n        /* \"#utility.yul\":5364:5466   */\n      swap2\n      pop\n        /* \"#utility.yul\":5483:5486   */\n      dup2\n        /* \"#utility.yul\":5476:5486   */\n      swap1\n      pop\n        /* \"#utility.yul\":5057:5492   */\n      swap4\n      swap3\n      pop\n      pop\n      pop\n      jump\t// out\n        /* \"#utility.yul\":5498:5773   */\n    tag_25:\n        /* \"#utility.yul\":5630:5633   */\n      0x00\n        /* \"#utility.yul\":5652:5747   */\n      tag_122\n        /* \"#utility.yul\":5743:5746   */\n      dup3\n        /* \"#utility.yul\":5734:5740   */\n      dup5\n        /* \"#utility.yul\":5652:5747   */\n      tag_56\n      jump\t// in\n    tag_122:\n        /* \"#utility.yul\":5645:5747   */\n      swap2\n      pop\n        /* \"#utility.yul\":5764:5767   */\n      dup2\n        /* \"#utility.yul\":5757:5767   */\n      swap1\n      pop\n        /* \"#utility.yul\":5498:5773   */\n      swap3\n      swap2\n      pop\n      pop\n      jump\t// out\n        /* \"#utility.yul\":5779:5948   */\n    tag_57:\n        /* \"#utility.yul\":5863:5874   */\n      0x00\n        /* \"#utility.yul\":5897:5903   */\n      dup3\n        /* \"#utility.yul\":5892:5895   */\n      dup3\n        /* \"#utility.yul\":5885:5904   */\n      mstore\n        /* \"#utility.yul\":5937:5941   */\n      0x20\n        /* \"#utility.yul\":5932:5935   */\n      dup3\n        /* \"#utility.yul\":5928:5942   */\n      add\n        /* \"#utility.yul\":5913:5942   */\n      swap1\n      pop\n        /* \"#utility.yul\":5779:5948   */\n      swap3\n      swap2\n      pop\n      pop\n      jump\t// out\n        /* \"#utility.yul\":5954:6117   */\n    tag_58:\n        /* \"#utility.yul\":6094:6109   */\n      0x5369676e20757020666972737400000000000000000000000000000000000000\n        /* \"#utility.yul\":6090:6091   */\n      0x00\n        /* \"#utility.yul\":6082:6088   */\n      dup3\n        /* \"#utility.yul\":6078:6092   */\n      add\n        /* \"#utility.yul\":6071:6110   */\n      mstore\n        /* \"#utility.yul\":5954:6117   */\n      pop\n      jump\t// out\n        /* \"#utility.yul\":6123:6489   */\n    tag_59:\n        /* \"#utility.yul\":6265:6268   */\n      0x00\n        /* \"#utility.yul\":6286:6353   */\n      tag_126\n        /* \"#utility.yul\":6350:6352   */\n      0x0d\n        /* \"#utility.yul\":6345:6348   */\n      dup4\n        /* \"#utility.yul\":6286:6353   */\n      tag_57\n      jump\t// in\n    tag_126:\n        /* \"#utility.yul\":6279:6353   */\n      swap2\n      pop\n        /* \"#utility.yul\":6362:6455   */\n      tag_127\n        /* \"#utility.yul\":6451:6454   */\n      dup3\n        /* \"#utility.yul\":6362:6455   */\n      tag_58\n      jump\t// in\n    tag_127:\n        /* \"#utility.yul\":6480:6482   */\n      0x20\n        /* \"#utility.yul\":6475:6478   */\n      dup3\n        /* \"#utility.yul\":6471:6483   */\n      add\n        /* \"#utility.yul\":6464:6483   */\n      swap1\n      pop\n        /* \"#utility.yul\":6123:6489   */\n      swap2\n      swap1\n      pop\n      jump\t// out\n        /* \"#utility.yul\":6495:6914   */\n    tag_28:\n        /* \"#utility.yul\":6661:6665   */\n      0x00\n        /* \"#utility.yul\":6699:6701   */\n      0x20\n        /* \"#utility.yul\":6688:6697   */\n      dup3\n        /* \"#utility.yul\":6684:6702   */\n      add\n        /* \"#utility.yul\":6676:6702   */\n      swap1\n      pop\n        /* \"#utility.yul\":6748:6757   */\n      dup2\n        /* \"#utility.yul\":6742:6746   */\n      dup2\n        /* \"#utility.yul\":6738:6758   */\n      sub\n        /* \"#utility.yul\":6734:6735   */\n      0x00\n        /* \"#utility.yul\":6723:6732   */\n      dup4\n        /* \"#utility.yul\":6719:6736   */\n      add\n        /* \"#utility.yul\":6712:6759   */\n      mstore\n        /* \"#utility.yul\":6776:6907   */\n      tag_129\n        /* \"#utility.yul\":6902:6906   */\n      dup2\n        /* \"#utility.yul\":6776:6907   */\n      tag_59\n      jump\t// in\n    tag_129:\n        /* \"#utility.yul\":6768:6907   */\n      swap1\n      pop\n        /* \"#utility.yul\":6495:6914   */\n      swap2\n      swap1\n      pop\n      jump\t// out\n        /* \"#utility.yul\":6920:7074   */\n    tag_60:\n        /* \"#utility.yul\":7060:7066   */\n      0x6e6f706500000000000000000000000000000000000000000000000000000000\n        /* \"#utility.yul\":7056:7057   */\n      0x00\n        /* \"#utility.yul\":7048:7054   */\n      dup3\n        /* \"#utility.yul\":7044:7058   */\n      add\n        /* \"#utility.yul\":7037:7067   */\n      mstore\n        /* \"#utility.yul\":6920:7074   */\n      pop\n      jump\t// out\n        /* \"#utility.yul\":7080:7445   */\n    tag_61:\n        /* \"#utility.yul\":7222:7225   */\n      0x00\n        /* \"#utility.yul\":7243:7309   */\n      tag_132\n        /* \"#utility.yul\":7307:7308   */\n      0x04\n        /* \"#utility.yul\":7302:7305   */\n      dup4\n        /* \"#utility.yul\":7243:7309   */\n      tag_57\n      jump\t// in\n    tag_132:\n        /* \"#utility.yul\":7236:7309   */\n      swap2\n      pop\n        /* \"#utility.yul\":7318:7411   */\n      tag_133\n        /* \"#utility.yul\":7407:7410   */\n      dup3\n        /* \"#utility.yul\":7318:7411   */\n      tag_60\n      jump\t// in\n    tag_133:\n        /* \"#utility.yul\":7436:7438   */\n      0x20\n        /* \"#utility.yul\":7431:7434   */\n      dup3\n        /* \"#utility.yul\":7427:7439   */\n      add\n        /* \"#utility.yul\":7420:7439   */\n      swap1\n      pop\n        /* \"#utility.yul\":7080:7445   */\n      swap2\n      swap1\n      pop\n      jump\t// out\n        /* \"#utility.yul\":7451:7870   */\n    tag_33:\n        /* \"#utility.yul\":7617:7621   */\n      0x00\n        /* \"#utility.yul\":7655:7657   */\n      0x20\n        /* \"#utility.yul\":7644:7653   */\n      dup3\n        /* \"#utility.yul\":7640:7658   */\n      add\n        /* \"#utility.yul\":7632:7658   */\n      swap1\n      pop\n        /* \"#utility.yul\":7704:7713   */\n      dup2\n        /* \"#utility.yul\":7698:7702   */\n      dup2\n        /* \"#utility.yul\":7694:7714   */\n      sub\n        /* \"#utility.yul\":7690:7691   */\n      0x00\n        /* \"#utility.yul\":7679:7688   */\n      dup4\n        /* \"#utility.yul\":7675:7692   */\n      add\n        /* \"#utility.yul\":7668:7715   */\n      mstore\n        /* \"#utility.yul\":7732:7863   */\n      tag_135\n        /* \"#utility.yul\":7858:7862   */\n      dup2\n        /* \"#utility.yul\":7732:7863   */\n      tag_61\n      jump\t// in\n    tag_135:\n        /* \"#utility.yul\":7724:7863   */\n      swap1\n      pop\n        /* \"#utility.yul\":7451:7870   */\n      swap2\n      swap1\n      pop\n      jump\t// out\n\n    auxdata: 0xa2646970667358221220267518c317c0f53b9ab6ce0ec694282fa5e808bc713488dbc2ab0d50ff0f91a964736f6c63430008190033\n}\n",
				"bytecode": {
					"linkReferences": {},
					"object": "6080604052348015600e575f80fd5b506105b68061001c5f395ff3fe608060405234801561000f575f80fd5b506004361061003f575f3560e01c806327cf399a146100435780632c162dbc14610073578063a469a332146100a3575b5f80fd5b61005d6004803603810190610058919061033b565b6100bf565b60405161006a91906103c9565b60405180910390f35b61008d6004803603810190610088919061033b565b6100f1565b60405161009a91906103fc565b60405180910390f35b6100bd60048036038101906100b8919061033b565b610159565b005b5f82826040516020016100d3929190610467565b60405160208183030381529060405280519060200120905092915050565b5f805f1b5f84604051610104919061048a565b90815260200160405180910390205403610153576040517f08c379a000000000000000000000000000000000000000000000000000000000815260040161014a906104fa565b60405180910390fd5b92915050565b5f801b5f8360405161016b919061048a565b908152602001604051809103902054146101ba576040517f08c379a00000000000000000000000000000000000000000000000000000000081526004016101b190610562565b60405180910390fd5b5f6101c583836100bf565b9050805f846040516101d7919061048a565b908152602001604051809103902081905550505050565b5f604051905090565b5f80fd5b5f80fd5b5f80fd5b5f80fd5b5f601f19601f8301169050919050565b7f4e487b71000000000000000000000000000000000000000000000000000000005f52604160045260245ffd5b61024d82610207565b810181811067ffffffffffffffff8211171561026c5761026b610217565b5b80604052505050565b5f61027e6101ee565b905061028a8282610244565b919050565b5f67ffffffffffffffff8211156102a9576102a8610217565b5b6102b282610207565b9050602081019050919050565b828183375f83830152505050565b5f6102df6102da8461028f565b610275565b9050828152602081018484840111156102fb576102fa610203565b5b6103068482856102bf565b509392505050565b5f82601f830112610322576103216101ff565b5b81356103328482602086016102cd565b91505092915050565b5f8060408385031215610351576103506101f7565b5b5f83013567ffffffffffffffff81111561036e5761036d6101fb565b5b61037a8582860161030e565b925050602083013567ffffffffffffffff81111561039b5761039a6101fb565b5b6103a78582860161030e565b9150509250929050565b5f819050919050565b6103c3816103b1565b82525050565b5f6020820190506103dc5f8301846103ba565b92915050565b5f8115159050919050565b6103f6816103e2565b82525050565b5f60208201905061040f5f8301846103ed565b92915050565b5f81519050919050565b5f81905092915050565b8281835e5f83830152505050565b5f61044182610415565b61044b818561041f565b935061045b818560208601610429565b80840191505092915050565b5f6104728285610437565b915061047e8284610437565b91508190509392505050565b5f6104958284610437565b915081905092915050565b5f82825260208201905092915050565b7f5369676e207570206669727374000000000000000000000000000000000000005f82015250565b5f6104e4600d836104a0565b91506104ef826104b0565b602082019050919050565b5f6020820190508181035f830152610511816104d8565b9050919050565b7f6e6f7065000000000000000000000000000000000000000000000000000000005f82015250565b5f61054c6004836104a0565b915061055782610518565b602082019050919050565b5f6020820190508181035f83015261057981610540565b905091905056fea2646970667358221220267518c317c0f53b9ab6ce0ec694282fa5e808bc713488dbc2ab0d50ff0f91a964736f6c63430008190033",
					"opcodes": "PUSH1 0x80 PUSH1 0x40 MSTORE CALLVALUE DUP1 ISZERO PUSH1 0xE JUMPI PUSH0 DUP1 REVERT JUMPDEST POP PUSH2 0x5B6 DUP1 PUSH2 0x1C PUSH0 CODECOPY PUSH0 RETURN INVALID PUSH1 0x80 PUSH1 0x40 MSTORE CALLVALUE DUP1 ISZERO PUSH2 0xF JUMPI PUSH0 DUP1 REVERT JUMPDEST POP PUSH1 0x4 CALLDATASIZE LT PUSH2 0x3F JUMPI PUSH0 CALLDATALOAD PUSH1 0xE0 SHR DUP1 PUSH4 0x27CF399A EQ PUSH2 0x43 JUMPI DUP1 PUSH4 0x2C162DBC EQ PUSH2 0x73 JUMPI DUP1 PUSH4 0xA469A332 EQ PUSH2 0xA3 JUMPI JUMPDEST PUSH0 DUP1 REVERT JUMPDEST PUSH2 0x5D PUSH1 0x4 DUP1 CALLDATASIZE SUB DUP2 ADD SWAP1 PUSH2 0x58 SWAP2 SWAP1 PUSH2 0x33B JUMP JUMPDEST PUSH2 0xBF JUMP JUMPDEST PUSH1 0x40 MLOAD PUSH2 0x6A SWAP2 SWAP1 PUSH2 0x3C9 JUMP JUMPDEST PUSH1 0x40 MLOAD DUP1 SWAP2 SUB SWAP1 RETURN JUMPDEST PUSH2 0x8D PUSH1 0x4 DUP1 CALLDATASIZE SUB DUP2 ADD SWAP1 PUSH2 0x88 SWAP2 SWAP1 PUSH2 0x33B JUMP JUMPDEST PUSH2 0xF1 JUMP JUMPDEST PUSH1 0x40 MLOAD PUSH2 0x9A SWAP2 SWAP1 PUSH2 0x3FC JUMP JUMPDEST PUSH1 0x40 MLOAD DUP1 SWAP2 SUB SWAP1 RETURN JUMPDEST PUSH2 0xBD PUSH1 0x4 DUP1 CALLDATASIZE SUB DUP2 ADD SWAP1 PUSH2 0xB8 SWAP2 SWAP1 PUSH2 0x33B JUMP JUMPDEST PUSH2 0x159 JUMP JUMPDEST STOP JUMPDEST PUSH0 DUP3 DUP3 PUSH1 0x40 MLOAD PUSH1 0x20 ADD PUSH2 0xD3 SWAP3 SWAP2 SWAP1 PUSH2 0x467 JUMP JUMPDEST PUSH1 0x40 MLOAD PUSH1 0x20 DUP2 DUP4 SUB SUB DUP2 MSTORE SWAP1 PUSH1 0x40 MSTORE DUP1 MLOAD SWAP1 PUSH1 0x20 ADD KECCAK256 SWAP1 POP SWAP3 SWAP2 POP POP JUMP JUMPDEST PUSH0 DUP1 PUSH0 SHL PUSH0 DUP5 PUSH1 0x40 MLOAD PUSH2 0x104 SWAP2 SWAP1 PUSH2 0x48A JUMP JUMPDEST SWAP1 DUP2 MSTORE PUSH1 0x20 ADD PUSH1 0x40 MLOAD DUP1 SWAP2 SUB SWAP1 KECCAK256 SLOAD SUB PUSH2 0x153 JUMPI PUSH1 0x40 MLOAD PUSH32 0x8C379A000000000000000000000000000000000000000000000000000000000 DUP2 MSTORE PUSH1 0x4 ADD PUSH2 0x14A SWAP1 PUSH2 0x4FA JUMP JUMPDEST PUSH1 0x40 MLOAD DUP1 SWAP2 SUB SWAP1 REVERT JUMPDEST SWAP3 SWAP2 POP POP JUMP JUMPDEST PUSH0 DUP1 SHL PUSH0 DUP4 PUSH1 0x40 MLOAD PUSH2 0x16B SWAP2 SWAP1 PUSH2 0x48A JUMP JUMPDEST SWAP1 DUP2 MSTORE PUSH1 0x20 ADD PUSH1 0x40 MLOAD DUP1 SWAP2 SUB SWAP1 KECCAK256 SLOAD EQ PUSH2 0x1BA JUMPI PUSH1 0x40 MLOAD PUSH32 0x8C379A000000000000000000000000000000000000000000000000000000000 DUP2 MSTORE PUSH1 0x4 ADD PUSH2 0x1B1 SWAP1 PUSH2 0x562 JUMP JUMPDEST PUSH1 0x40 MLOAD DUP1 SWAP2 SUB SWAP1 REVERT JUMPDEST PUSH0 PUSH2 0x1C5 DUP4 DUP4 PUSH2 0xBF JUMP JUMPDEST SWAP1 POP DUP1 PUSH0 DUP5 PUSH1 0x40 MLOAD PUSH2 0x1D7 SWAP2 SWAP1 PUSH2 0x48A JUMP JUMPDEST SWAP1 DUP2 MSTORE PUSH1 0x20 ADD PUSH1 0x40 MLOAD DUP1 SWAP2 SUB SWAP1 KECCAK256 DUP2 SWAP1 SSTORE POP POP POP POP JUMP JUMPDEST PUSH0 PUSH1 0x40 MLOAD SWAP1 POP SWAP1 JUMP JUMPDEST PUSH0 DUP1 REVERT JUMPDEST PUSH0 DUP1 REVERT JUMPDEST PUSH0 DUP1 REVERT JUMPDEST PUSH0 DUP1 REVERT JUMPDEST PUSH0 PUSH1 0x1F NOT PUSH1 0x1F DUP4 ADD AND SWAP1 POP SWAP2 SWAP1 POP JUMP JUMPDEST PUSH32 0x4E487B7100000000000000000000000000000000000000000000000000000000 PUSH0 MSTORE PUSH1 0x41 PUSH1 0x4 MSTORE PUSH1 0x24 PUSH0 REVERT JUMPDEST PUSH2 0x24D DUP3 PUSH2 0x207 JUMP JUMPDEST DUP2 ADD DUP2 DUP2 LT PUSH8 0xFFFFFFFFFFFFFFFF DUP3 GT OR ISZERO PUSH2 0x26C JUMPI PUSH2 0x26B PUSH2 0x217 JUMP JUMPDEST JUMPDEST DUP1 PUSH1 0x40 MSTORE POP POP POP JUMP JUMPDEST PUSH0 PUSH2 0x27E PUSH2 0x1EE JUMP JUMPDEST SWAP1 POP PUSH2 0x28A DUP3 DUP3 PUSH2 0x244 JUMP JUMPDEST SWAP2 SWAP1 POP JUMP JUMPDEST PUSH0 PUSH8 0xFFFFFFFFFFFFFFFF DUP3 GT ISZERO PUSH2 0x2A9 JUMPI PUSH2 0x2A8 PUSH2 0x217 JUMP JUMPDEST JUMPDEST PUSH2 0x2B2 DUP3 PUSH2 0x207 JUMP JUMPDEST SWAP1 POP PUSH1 0x20 DUP2 ADD SWAP1 POP SWAP2 SWAP1 POP JUMP JUMPDEST DUP3 DUP2 DUP4 CALLDATACOPY PUSH0 DUP4 DUP4 ADD MSTORE POP POP POP JUMP JUMPDEST PUSH0 PUSH2 0x2DF PUSH2 0x2DA DUP5 PUSH2 0x28F JUMP JUMPDEST PUSH2 0x275 JUMP JUMPDEST SWAP1 POP DUP3 DUP2 MSTORE PUSH1 0x20 DUP2 ADD DUP5 DUP5 DUP5 ADD GT ISZERO PUSH2 0x2FB JUMPI PUSH2 0x2FA PUSH2 0x203 JUMP JUMPDEST JUMPDEST PUSH2 0x306 DUP5 DUP3 DUP6 PUSH2 0x2BF JUMP JUMPDEST POP SWAP4 SWAP3 POP POP POP JUMP JUMPDEST PUSH0 DUP3 PUSH1 0x1F DUP4 ADD SLT PUSH2 0x322 JUMPI PUSH2 0x321 PUSH2 0x1FF JUMP JUMPDEST JUMPDEST DUP2 CALLDATALOAD PUSH2 0x332 DUP5 DUP3 PUSH1 0x20 DUP7 ADD PUSH2 0x2CD JUMP JUMPDEST SWAP2 POP POP SWAP3 SWAP2 POP POP JUMP JUMPDEST PUSH0 DUP1 PUSH1 0x40 DUP4 DUP6 SUB SLT ISZERO PUSH2 0x351 JUMPI PUSH2 0x350 PUSH2 0x1F7 JUMP JUMPDEST JUMPDEST PUSH0 DUP4 ADD CALLDATALOAD PUSH8 0xFFFFFFFFFFFFFFFF DUP2 GT ISZERO PUSH2 0x36E JUMPI PUSH2 0x36D PUSH2 0x1FB JUMP JUMPDEST JUMPDEST PUSH2 0x37A DUP6 DUP3 DUP7 ADD PUSH2 0x30E JUMP JUMPDEST SWAP3 POP POP PUSH1 0x20 DUP4 ADD CALLDATALOAD PUSH8 0xFFFFFFFFFFFFFFFF DUP2 GT ISZERO PUSH2 0x39B JUMPI PUSH2 0x39A PUSH2 0x1FB JUMP JUMPDEST JUMPDEST PUSH2 0x3A7 DUP6 DUP3 DUP7 ADD PUSH2 0x30E JUMP JUMPDEST SWAP2 POP POP SWAP3 POP SWAP3 SWAP1 POP JUMP JUMPDEST PUSH0 DUP2 SWAP1 POP SWAP2 SWAP1 POP JUMP JUMPDEST PUSH2 0x3C3 DUP2 PUSH2 0x3B1 JUMP JUMPDEST DUP3 MSTORE POP POP JUMP JUMPDEST PUSH0 PUSH1 0x20 DUP3 ADD SWAP1 POP PUSH2 0x3DC PUSH0 DUP4 ADD DUP5 PUSH2 0x3BA JUMP JUMPDEST SWAP3 SWAP2 POP POP JUMP JUMPDEST PUSH0 DUP2 ISZERO ISZERO SWAP1 POP SWAP2 SWAP1 POP JUMP JUMPDEST PUSH2 0x3F6 DUP2 PUSH2 0x3E2 JUMP JUMPDEST DUP3 MSTORE POP POP JUMP JUMPDEST PUSH0 PUSH1 0x20 DUP3 ADD SWAP1 POP PUSH2 0x40F PUSH0 DUP4 ADD DUP5 PUSH2 0x3ED JUMP JUMPDEST SWAP3 SWAP2 POP POP JUMP JUMPDEST PUSH0 DUP2 MLOAD SWAP1 POP SWAP2 SWAP1 POP JUMP JUMPDEST PUSH0 DUP2 SWAP1 POP SWAP3 SWAP2 POP POP JUMP JUMPDEST DUP3 DUP2 DUP4 MCOPY PUSH0 DUP4 DUP4 ADD MSTORE POP POP POP JUMP JUMPDEST PUSH0 PUSH2 0x441 DUP3 PUSH2 0x415 JUMP JUMPDEST PUSH2 0x44B DUP2 DUP6 PUSH2 0x41F JUMP JUMPDEST SWAP4 POP PUSH2 0x45B DUP2 DUP6 PUSH1 0x20 DUP7 ADD PUSH2 0x429 JUMP JUMPDEST DUP1 DUP5 ADD SWAP2 POP POP SWAP3 SWAP2 POP POP JUMP JUMPDEST PUSH0 PUSH2 0x472 DUP3 DUP6 PUSH2 0x437 JUMP JUMPDEST SWAP2 POP PUSH2 0x47E DUP3 DUP5 PUSH2 0x437 JUMP JUMPDEST SWAP2 POP DUP2 SWAP1 POP SWAP4 SWAP3 POP POP POP JUMP JUMPDEST PUSH0 PUSH2 0x495 DUP3 DUP5 PUSH2 0x437 JUMP JUMPDEST SWAP2 POP DUP2 SWAP1 POP SWAP3 SWAP2 POP POP JUMP JUMPDEST PUSH0 DUP3 DUP3 MSTORE PUSH1 0x20 DUP3 ADD SWAP1 POP SWAP3 SWAP2 POP POP JUMP JUMPDEST PUSH32 0x5369676E20757020666972737400000000000000000000000000000000000000 PUSH0 DUP3 ADD MSTORE POP JUMP JUMPDEST PUSH0 PUSH2 0x4E4 PUSH1 0xD DUP4 PUSH2 0x4A0 JUMP JUMPDEST SWAP2 POP PUSH2 0x4EF DUP3 PUSH2 0x4B0 JUMP JUMPDEST PUSH1 0x20 DUP3 ADD SWAP1 POP SWAP2 SWAP1 POP JUMP JUMPDEST PUSH0 PUSH1 0x20 DUP3 ADD SWAP1 POP DUP2 DUP2 SUB PUSH0 DUP4 ADD MSTORE PUSH2 0x511 DUP2 PUSH2 0x4D8 JUMP JUMPDEST SWAP1 POP SWAP2 SWAP1 POP JUMP JUMPDEST PUSH32 0x6E6F706500000000000000000000000000000000000000000000000000000000 PUSH0 DUP3 ADD MSTORE POP JUMP JUMPDEST PUSH0 PUSH2 0x54C PUSH1 0x4 DUP4 PUSH2 0x4A0 JUMP JUMPDEST SWAP2 POP PUSH2 0x557 DUP3 PUSH2 0x518 JUMP JUMPDEST PUSH1 0x20 DUP3 ADD SWAP1 POP SWAP2 SWAP1 POP JUMP JUMPDEST PUSH0 PUSH1 0x20 DUP3 ADD SWAP1 POP DUP2 DUP2 SUB PUSH0 DUP4 ADD MSTORE PUSH2 0x579 DUP2 PUSH2 0x540 JUMP JUMPDEST SWAP1 POP SWAP2 SWAP1 POP JUMP INVALID LOG2 PUSH5 0x6970667358 0x22 SLT KECCAK256 0x26 PUSH22 0x18C317C0F53B9AB6CE0EC694282FA5E808BC713488DB 0xC2 0xAB 0xD POP SELFDESTRUCT 0xF SWAP2 0xA9 PUSH5 0x736F6C6343 STOP ADDMOD NOT STOP CALLER "
				},
				"gasEstimates": {
					"creation": {
						"codeDepositCost": "292400",
						"executionCost": "329",
						"totalCost": "292729"
					},
					"external": {
						"getHash(string,string)": "infinite",
						"signIn(string,string)": "infinite",
						"signUp(string,string)": "infinite"
					}
				},
				"methodIdentifiers": {
					"getHash(string,string)": "27cf399a",
					"signIn(string,string)": "2c162dbc",
					"signUp(string,string)": "a469a332"
				}
			},
			"storageLayout": {
				"storage": [
					{
						"astId": 149,
						"contract": "solidity_test/test3.sol:TEST3Answer",
						"label": "IDPW",
						"offset": 0,
						"slot": "0",
						"type": "t_mapping(t_string_memory_ptr,t_bytes32)"
					}
				],
				"types": {
					"t_bytes32": {
						"encoding": "inplace",
						"label": "bytes32",
						"numberOfBytes": "32"
					},
					"t_mapping(t_string_memory_ptr,t_bytes32)": {
						"encoding": "mapping",
						"key": "t_string_memory_ptr",
						"label": "mapping(string => bytes32)",
						"numberOfBytes": "32",
						"value": "t_bytes32"
					},
					"t_string_memory_ptr": {
						"encoding": "bytes",
						"label": "string",
						"numberOfBytes": "32"
					}
				}
			},
			"userdoc": {
				"kind": "user",
				"methods": {},
				"version": 1
			}
		}
	}
}