{
	"solidity_test/test4.sol": {
		"teacherAnswer": {
			"abi": [
				{
					"inputs": [],
					"stateMutability": "nonpayable",
					"type": "constructor"
				},
				{
					"inputs": [],
					"name": "deposit",
					"outputs": [],
					"stateMutability": "payable",
					"type": "function"
				},
				{
					"inputs": [],
					"name": "getLength",
					"outputs": [
						{
							"internalType": "uint256",
							"name": "",
							"type": "uint256"
						}
					],
					"stateMutability": "view",
					"type": "function"
				},
				{
					"inputs": [],
					"name": "getScore",
					"outputs": [],
					"stateMutability": "nonpayable",
					"type": "function"
				},
				{
					"inputs": [],
					"name": "idx",
					"outputs": [
						{
							"internalType": "uint256",
							"name": "",
							"type": "uint256"
						}
					],
					"stateMutability": "view",
					"type": "function"
				},
				{
					"inputs": [],
					"name": "join",
					"outputs": [],
					"stateMutability": "payable",
					"type": "function"
				},
				{
					"inputs": [
						{
							"internalType": "address",
							"name": "_addr",
							"type": "address"
						}
					],
					"name": "search",
					"outputs": [
						{
							"components": [
								{
									"internalType": "uint256",
									"name": "number",
									"type": "uint256"
								},
								{
									"internalType": "string",
									"name": "name",
									"type": "string"
								},
								{
									"internalType": "address",
									"name": "addr",
									"type": "address"
								},
								{
									"internalType": "uint256",
									"name": "score",
									"type": "uint256"
								},
								{
									"internalType": "uint256",
									"name": "balance",
									"type": "uint256"
								}
							],
							"internalType": "struct teacherAnswer.USER",
							"name": "",
							"type": "tuple"
						}
					],
					"stateMutability": "view",
					"type": "function"
				},
				{
					"inputs": [
						{
							"internalType": "string",
							"name": "_name",
							"type": "string"
						}
					],
					"name": "signIn",
					"outputs": [],
					"stateMutability": "nonpayable",
					"type": "function"
				},
				{
					"inputs": [
						{
							"internalType": "uint256",
							"name": "_n",
							"type": "uint256"
						}
					],
					"name": "withDraw",
					"outputs": [],
					"stateMutability": "nonpayable",
					"type": "function"
				},
				{
					"inputs": [],
					"name": "withDrawMax",
					"outputs": [],
					"stateMutability": "nonpayable",
					"type": "function"
				},
				{
					"inputs": [
						{
							"internalType": "uint256",
							"name": "_n",
							"type": "uint256"
						}
					],
					"name": "withDrawOwner",
					"outputs": [],
					"stateMutability": "nonpayable",
					"type": "function"
				},
				{
					"inputs": [],
					"name": "withDrawOwnerMax",
					"outputs": [],
					"stateMutability": "nonpayable",
					"type": "function"
				},
				{
					"inputs": [],
					"name": "withDrawTen",
					"outputs": [],
					"stateMutability": "nonpayable",
					"type": "function"
				}
			],
			"devdoc": {
				"kind": "dev",
				"methods": {},
				"version": 1
			},
			"evm": {
				"assembly": "    /* \"solidity_test/test4.sol\":9509:14770  contract teacherAnswer {... */\n  mstore(0x40, 0x80)\n    /* \"solidity_test/test4.sol\":11496:11497  1 */\n  0x01\n    /* \"solidity_test/test4.sol\":11480:11497  uint public idx=1 */\n  0x06\n  sstore\n    /* \"solidity_test/test4.sol\":11506:11566  constructor() {... */\n  callvalue\n  dup1\n  iszero\n  tag_1\n  jumpi\n  0x00\n  dup1\n  revert\ntag_1:\n  pop\n    /* \"solidity_test/test4.sol\":11547:11557  msg.sender */\n  caller\n    /* \"solidity_test/test4.sol\":11531:11536  owner */\n  0x00\n  dup1\n    /* \"solidity_test/test4.sol\":11531:11558  owner = payable(msg.sender) */\n  0x0100\n  exp\n  dup2\n  sload\n  dup2\n  0xffffffffffffffffffffffffffffffffffffffff\n  mul\n  not\n  and\n  swap1\n  dup4\n  0xffffffffffffffffffffffffffffffffffffffff\n  and\n  mul\n  or\n  swap1\n  sstore\n  pop\n    /* \"solidity_test/test4.sol\":9509:14770  contract teacherAnswer {... */\n  dataSize(sub_0)\n  dup1\n  dataOffset(sub_0)\n  0x00\n  codecopy\n  0x00\n  return\nstop\n\nsub_0: assembly {\n        /* \"solidity_test/test4.sol\":9509:14770  contract teacherAnswer {... */\n      mstore(0x40, 0x80)\n      jumpi(tag_1, lt(calldatasize, 0x04))\n      shr(0xe0, calldataload(0x00))\n      dup1\n      0x795dbede\n      gt\n      tag_14\n      jumpi\n      dup1\n      0x795dbede\n      eq\n      tag_8\n      jumpi\n      dup1\n      0xafd82067\n      eq\n      tag_9\n      jumpi\n      dup1\n      0xb688a363\n      eq\n      tag_10\n      jumpi\n      dup1\n      0xbe1c766b\n      eq\n      tag_11\n      jumpi\n      dup1\n      0xc95f728a\n      eq\n      tag_12\n      jumpi\n      dup1\n      0xd0e30db0\n      eq\n      tag_13\n      jumpi\n      jump(tag_1)\n    tag_14:\n      dup1\n      0x05039910\n      eq\n      tag_2\n      jumpi\n      dup1\n      0x14174f33\n      eq\n      tag_3\n      jumpi\n      dup1\n      0x18d075c3\n      eq\n      tag_4\n      jumpi\n      dup1\n      0x36588975\n      eq\n      tag_5\n      jumpi\n      dup1\n      0x4b841135\n      eq\n      tag_6\n      jumpi\n      dup1\n      0x657a2512\n      eq\n      tag_7\n      jumpi\n    tag_1:\n      0x00\n      dup1\n      revert\n        /* \"solidity_test/test4.sol\":13814:13999  function withDrawTen() public {... */\n    tag_2:\n      callvalue\n      dup1\n      iszero\n      tag_15\n      jumpi\n      0x00\n      dup1\n      revert\n    tag_15:\n      pop\n      tag_16\n      tag_17\n      jump\t// in\n    tag_16:\n      stop\n        /* \"solidity_test/test4.sol\":14007:14206  function withDraw(uint _n) public {... */\n    tag_3:\n      callvalue\n      dup1\n      iszero\n      tag_18\n      jumpi\n      0x00\n      dup1\n      revert\n    tag_18:\n      pop\n      tag_19\n      0x04\n      dup1\n      calldatasize\n      sub\n      dup2\n      add\n      swap1\n      tag_20\n      swap2\n      swap1\n      tag_21\n      jump\t// in\n    tag_20:\n      tag_22\n      jump\t// in\n    tag_19:\n      stop\n        /* \"solidity_test/test4.sol\":14214:14492  function withDrawMax() public {... */\n    tag_4:\n      callvalue\n      dup1\n      iszero\n      tag_23\n      jumpi\n      0x00\n      dup1\n      revert\n    tag_23:\n      pop\n      tag_24\n      tag_25\n      jump\t// in\n    tag_24:\n      stop\n        /* \"solidity_test/test4.sol\":11981:12097  function withDrawOwner(uint _n) public onlyOwner morethanTwoEther {... */\n    tag_5:\n      callvalue\n      dup1\n      iszero\n      tag_26\n      jumpi\n      0x00\n      dup1\n      revert\n    tag_26:\n      pop\n      tag_27\n      0x04\n      dup1\n      calldatasize\n      sub\n      dup2\n      add\n      swap1\n      tag_28\n      swap2\n      swap1\n      tag_21\n      jump\t// in\n    tag_28:\n      tag_29\n      jump\t// in\n    tag_27:\n      stop\n        /* \"solidity_test/test4.sol\":12105:12223  function withDrawOwnerMax() public onlyOwner morethanTwoEther {... */\n    tag_6:\n      callvalue\n      dup1\n      iszero\n      tag_30\n      jumpi\n      0x00\n      dup1\n      revert\n    tag_30:\n      pop\n      tag_31\n      tag_32\n      jump\t// in\n    tag_31:\n      stop\n        /* \"solidity_test/test4.sol\":12681:12783  function search(address _addr) public view returns(USER memory) {... */\n    tag_7:\n      callvalue\n      dup1\n      iszero\n      tag_33\n      jumpi\n      0x00\n      dup1\n      revert\n    tag_33:\n      pop\n      tag_34\n      0x04\n      dup1\n      calldatasize\n      sub\n      dup2\n      add\n      swap1\n      tag_35\n      swap2\n      swap1\n      tag_36\n      jump\t// in\n    tag_35:\n      tag_37\n      jump\t// in\n    tag_34:\n      mload(0x40)\n      tag_38\n      swap2\n      swap1\n      tag_39\n      jump\t// in\n    tag_38:\n      mload(0x40)\n      dup1\n      swap2\n      sub\n      swap1\n      return\n        /* \"solidity_test/test4.sol\":11480:11497  uint public idx=1 */\n    tag_8:\n      callvalue\n      dup1\n      iszero\n      tag_40\n      jumpi\n      0x00\n      dup1\n      revert\n    tag_40:\n      pop\n      tag_41\n      tag_42\n      jump\t// in\n    tag_41:\n      mload(0x40)\n      tag_43\n      swap2\n      swap1\n      tag_44\n      jump\t// in\n    tag_43:\n      mload(0x40)\n      dup1\n      swap2\n      sub\n      swap1\n      return\n        /* \"solidity_test/test4.sol\":13605:13728  function getScore() public {... */\n    tag_9:\n      callvalue\n      dup1\n      iszero\n      tag_45\n      jumpi\n      0x00\n      dup1\n      revert\n    tag_45:\n      pop\n      tag_46\n      tag_47\n      jump\t// in\n    tag_46:\n      stop\n        /* \"solidity_test/test4.sol\":12903:13380  function join() public payable {... */\n    tag_10:\n      tag_48\n      tag_49\n      jump\t// in\n    tag_48:\n      stop\n        /* \"solidity_test/test4.sol\":13388:13597  function getLength() public view returns(uint) {... */\n    tag_11:\n      callvalue\n      dup1\n      iszero\n      tag_50\n      jumpi\n      0x00\n      dup1\n      revert\n    tag_50:\n      pop\n      tag_51\n      tag_52\n      jump\t// in\n    tag_51:\n      mload(0x40)\n      tag_53\n      swap2\n      swap1\n      tag_44\n      jump\t// in\n    tag_53:\n      mload(0x40)\n      dup1\n      swap2\n      sub\n      swap1\n      return\n        /* \"solidity_test/test4.sol\":12389:12574  function signIn(string memory _name) public {... */\n    tag_12:\n      callvalue\n      dup1\n      iszero\n      tag_54\n      jumpi\n      0x00\n      dup1\n      revert\n    tag_54:\n      pop\n      tag_55\n      0x04\n      dup1\n      calldatasize\n      sub\n      dup2\n      add\n      swap1\n      tag_56\n      swap2\n      swap1\n      tag_57\n      jump\t// in\n    tag_56:\n      tag_58\n      jump\t// in\n    tag_55:\n      stop\n        /* \"solidity_test/test4.sol\":14676:14767  function deposit() public payable {... */\n    tag_13:\n      tag_59\n      tag_60\n      jump\t// in\n    tag_59:\n      stop\n        /* \"solidity_test/test4.sol\":13814:13999  function withDrawTen() public {... */\n    tag_17:\n        /* \"solidity_test/test4.sol\":13890:13892  10 */\n      0x0a\n        /* \"solidity_test/test4.sol\":13863:13868  users */\n      0x01\n        /* \"solidity_test/test4.sol\":13863:13880  users[msg.sender] */\n      0x00\n        /* \"solidity_test/test4.sol\":13869:13879  msg.sender */\n      caller\n        /* \"solidity_test/test4.sol\":13863:13880  users[msg.sender] */\n      0xffffffffffffffffffffffffffffffffffffffff\n      and\n      0xffffffffffffffffffffffffffffffffffffffff\n      and\n      dup2\n      mstore\n      0x20\n      add\n      swap1\n      dup2\n      mstore\n      0x20\n      add\n      0x00\n      keccak256\n        /* \"solidity_test/test4.sol\":13863:13886  users[msg.sender].score */\n      0x03\n      add\n      sload\n        /* \"solidity_test/test4.sol\":13863:13892  users[msg.sender].score >= 10 */\n      lt\n      iszero\n        /* \"solidity_test/test4.sol\":13855:13901  require(users[msg.sender].score >= 10, \"nope\") */\n      tag_62\n      jumpi\n      mload(0x40)\n      0x08c379a000000000000000000000000000000000000000000000000000000000\n      dup2\n      mstore\n      0x04\n      add\n      tag_63\n      swap1\n      tag_64\n      jump\t// in\n    tag_63:\n      mload(0x40)\n      dup1\n      swap2\n      sub\n      swap1\n      revert\n    tag_62:\n        /* \"solidity_test/test4.sol\":13939:13941  10 */\n      0x0a\n        /* \"solidity_test/test4.sol\":13912:13917  users */\n      0x01\n        /* \"solidity_test/test4.sol\":13912:13929  users[msg.sender] */\n      0x00\n        /* \"solidity_test/test4.sol\":13918:13928  msg.sender */\n      caller\n        /* \"solidity_test/test4.sol\":13912:13929  users[msg.sender] */\n      0xffffffffffffffffffffffffffffffffffffffff\n      and\n      0xffffffffffffffffffffffffffffffffffffffff\n      and\n      dup2\n      mstore\n      0x20\n      add\n      swap1\n      dup2\n      mstore\n      0x20\n      add\n      0x00\n      keccak256\n        /* \"solidity_test/test4.sol\":13912:13935  users[msg.sender].score */\n      0x03\n      add\n      0x00\n        /* \"solidity_test/test4.sol\":13912:13941  users[msg.sender].score -= 10 */\n      dup3\n      dup3\n      sload\n      tag_65\n      swap2\n      swap1\n      tag_66\n      jump\t// in\n    tag_65:\n      swap3\n      pop\n      pop\n      dup2\n      swap1\n      sstore\n      pop\n        /* \"solidity_test/test4.sol\":13960:13970  msg.sender */\n      caller\n        /* \"solidity_test/test4.sol\":13952:13980  payable(msg.sender).transfer */\n      0xffffffffffffffffffffffffffffffffffffffff\n      and\n        /* \"solidity_test/test4.sol\":13952:13991  payable(msg.sender).transfer(0.1 ether) */\n      0x08fc\n        /* \"solidity_test/test4.sol\":13981:13990  0.1 ether */\n      0x016345785d8a0000\n        /* \"solidity_test/test4.sol\":13952:13991  payable(msg.sender).transfer(0.1 ether) */\n      swap1\n      dup2\n      iszero\n      mul\n      swap1\n      mload(0x40)\n      0x00\n      mload(0x40)\n      dup1\n      dup4\n      sub\n      dup2\n      dup6\n      dup9\n      dup9\n      call\n      swap4\n      pop\n      pop\n      pop\n      pop\n      iszero\n      dup1\n      iszero\n      tag_68\n      jumpi\n      returndatasize\n      0x00\n      dup1\n      returndatacopy\n      revert(0x00, returndatasize)\n    tag_68:\n      pop\n        /* \"solidity_test/test4.sol\":13814:13999  function withDrawTen() public {... */\n      jump\t// out\n        /* \"solidity_test/test4.sol\":14007:14206  function withDraw(uint _n) public {... */\n    tag_22:\n        /* \"solidity_test/test4.sol\":14087:14089  _n */\n      dup1\n        /* \"solidity_test/test4.sol\":14060:14065  users */\n      0x01\n        /* \"solidity_test/test4.sol\":14060:14077  users[msg.sender] */\n      0x00\n        /* \"solidity_test/test4.sol\":14066:14076  msg.sender */\n      caller\n        /* \"solidity_test/test4.sol\":14060:14077  users[msg.sender] */\n      0xffffffffffffffffffffffffffffffffffffffff\n      and\n      0xffffffffffffffffffffffffffffffffffffffff\n      and\n      dup2\n      mstore\n      0x20\n      add\n      swap1\n      dup2\n      mstore\n      0x20\n      add\n      0x00\n      keccak256\n        /* \"solidity_test/test4.sol\":14060:14083  users[msg.sender].score */\n      0x03\n      add\n      sload\n        /* \"solidity_test/test4.sol\":14060:14089  users[msg.sender].score >= _n */\n      lt\n      iszero\n        /* \"solidity_test/test4.sol\":14052:14098  require(users[msg.sender].score >= _n, \"nope\") */\n      tag_70\n      jumpi\n      mload(0x40)\n      0x08c379a000000000000000000000000000000000000000000000000000000000\n      dup2\n      mstore\n      0x04\n      add\n      tag_71\n      swap1\n      tag_64\n      jump\t// in\n    tag_71:\n      mload(0x40)\n      dup1\n      swap2\n      sub\n      swap1\n      revert\n    tag_70:\n        /* \"solidity_test/test4.sol\":14136:14138  _n */\n      dup1\n        /* \"solidity_test/test4.sol\":14109:14114  users */\n      0x01\n        /* \"solidity_test/test4.sol\":14109:14126  users[msg.sender] */\n      0x00\n        /* \"solidity_test/test4.sol\":14115:14125  msg.sender */\n      caller\n        /* \"solidity_test/test4.sol\":14109:14126  users[msg.sender] */\n      0xffffffffffffffffffffffffffffffffffffffff\n      and\n      0xffffffffffffffffffffffffffffffffffffffff\n      and\n      dup2\n      mstore\n      0x20\n      add\n      swap1\n      dup2\n      mstore\n      0x20\n      add\n      0x00\n      keccak256\n        /* \"solidity_test/test4.sol\":14109:14132  users[msg.sender].score */\n      0x03\n      add\n      0x00\n        /* \"solidity_test/test4.sol\":14109:14138  users[msg.sender].score -= _n */\n      dup3\n      dup3\n      sload\n      tag_72\n      swap2\n      swap1\n      tag_66\n      jump\t// in\n    tag_72:\n      swap3\n      pop\n      pop\n      dup2\n      swap1\n      sstore\n      pop\n        /* \"solidity_test/test4.sol\":14157:14167  msg.sender */\n      caller\n        /* \"solidity_test/test4.sol\":14149:14177  payable(msg.sender).transfer */\n      0xffffffffffffffffffffffffffffffffffffffff\n      and\n        /* \"solidity_test/test4.sol\":14149:14198  payable(msg.sender).transfer((_n/10) * 0.1 ether) */\n      0x08fc\n        /* \"solidity_test/test4.sol\":14188:14197  0.1 ether */\n      0x016345785d8a0000\n        /* \"solidity_test/test4.sol\":14182:14184  10 */\n      0x0a\n        /* \"solidity_test/test4.sol\":14179:14181  _n */\n      dup5\n        /* \"solidity_test/test4.sol\":14179:14184  _n/10 */\n      tag_73\n      swap2\n      swap1\n      tag_74\n      jump\t// in\n    tag_73:\n        /* \"solidity_test/test4.sol\":14178:14197  (_n/10) * 0.1 ether */\n      tag_75\n      swap2\n      swap1\n      tag_76\n      jump\t// in\n    tag_75:\n        /* \"solidity_test/test4.sol\":14149:14198  payable(msg.sender).transfer((_n/10) * 0.1 ether) */\n      swap1\n      dup2\n      iszero\n      mul\n      swap1\n      mload(0x40)\n      0x00\n      mload(0x40)\n      dup1\n      dup4\n      sub\n      dup2\n      dup6\n      dup9\n      dup9\n      call\n      swap4\n      pop\n      pop\n      pop\n      pop\n      iszero\n      dup1\n      iszero\n      tag_78\n      jumpi\n      returndatasize\n      0x00\n      dup1\n      returndatacopy\n      revert(0x00, returndatasize)\n    tag_78:\n      pop\n        /* \"solidity_test/test4.sol\":14007:14206  function withDraw(uint _n) public {... */\n      pop\n      jump\t// out\n        /* \"solidity_test/test4.sol\":14214:14492  function withDrawMax() public {... */\n    tag_25:\n        /* \"solidity_test/test4.sol\":14289:14291  10 */\n      0x0a\n        /* \"solidity_test/test4.sol\":14263:14268  users */\n      0x01\n        /* \"solidity_test/test4.sol\":14263:14280  users[msg.sender] */\n      0x00\n        /* \"solidity_test/test4.sol\":14269:14279  msg.sender */\n      caller\n        /* \"solidity_test/test4.sol\":14263:14280  users[msg.sender] */\n      0xffffffffffffffffffffffffffffffffffffffff\n      and\n      0xffffffffffffffffffffffffffffffffffffffff\n      and\n      dup2\n      mstore\n      0x20\n      add\n      swap1\n      dup2\n      mstore\n      0x20\n      add\n      0x00\n      keccak256\n        /* \"solidity_test/test4.sol\":14263:14286  users[msg.sender].score */\n      0x03\n      add\n      sload\n        /* \"solidity_test/test4.sol\":14263:14291  users[msg.sender].score >=10 */\n      lt\n      iszero\n        /* \"solidity_test/test4.sol\":14255:14300  require(users[msg.sender].score >=10, \"nope\") */\n      tag_80\n      jumpi\n      mload(0x40)\n      0x08c379a000000000000000000000000000000000000000000000000000000000\n      dup2\n      mstore\n      0x04\n      add\n      tag_81\n      swap1\n      tag_64\n      jump\t// in\n    tag_81:\n      mload(0x40)\n      dup1\n      swap2\n      sub\n      swap1\n      revert\n    tag_80:\n        /* \"solidity_test/test4.sol\":14311:14322  uint amount */\n      0x00\n        /* \"solidity_test/test4.sol\":14351:14353  10 */\n      0x0a\n        /* \"solidity_test/test4.sol\":14325:14330  users */\n      0x01\n        /* \"solidity_test/test4.sol\":14325:14342  users[msg.sender] */\n      0x00\n        /* \"solidity_test/test4.sol\":14331:14341  msg.sender */\n      caller\n        /* \"solidity_test/test4.sol\":14325:14342  users[msg.sender] */\n      0xffffffffffffffffffffffffffffffffffffffff\n      and\n      0xffffffffffffffffffffffffffffffffffffffff\n      and\n      dup2\n      mstore\n      0x20\n      add\n      swap1\n      dup2\n      mstore\n      0x20\n      add\n      0x00\n      keccak256\n        /* \"solidity_test/test4.sol\":14325:14348  users[msg.sender].score */\n      0x03\n      add\n      sload\n        /* \"solidity_test/test4.sol\":14325:14353  users[msg.sender].score / 10 */\n      tag_82\n      swap2\n      swap1\n      tag_74\n      jump\t// in\n    tag_82:\n        /* \"solidity_test/test4.sol\":14311:14353  uint amount = users[msg.sender].score / 10 */\n      swap1\n      pop\n        /* \"solidity_test/test4.sol\":14414:14416  10 */\n      0x0a\n        /* \"solidity_test/test4.sol\":14390:14395  users */\n      0x01\n        /* \"solidity_test/test4.sol\":14390:14407  users[msg.sender] */\n      0x00\n        /* \"solidity_test/test4.sol\":14396:14406  msg.sender */\n      caller\n        /* \"solidity_test/test4.sol\":14390:14407  users[msg.sender] */\n      0xffffffffffffffffffffffffffffffffffffffff\n      and\n      0xffffffffffffffffffffffffffffffffffffffff\n      and\n      dup2\n      mstore\n      0x20\n      add\n      swap1\n      dup2\n      mstore\n      0x20\n      add\n      0x00\n      keccak256\n        /* \"solidity_test/test4.sol\":14390:14413  users[msg.sender].score */\n      0x03\n      add\n      sload\n        /* \"solidity_test/test4.sol\":14390:14416  users[msg.sender].score%10 */\n      tag_83\n      swap2\n      swap1\n      tag_84\n      jump\t// in\n    tag_83:\n        /* \"solidity_test/test4.sol\":14364:14369  users */\n      0x01\n        /* \"solidity_test/test4.sol\":14364:14381  users[msg.sender] */\n      0x00\n        /* \"solidity_test/test4.sol\":14370:14380  msg.sender */\n      caller\n        /* \"solidity_test/test4.sol\":14364:14381  users[msg.sender] */\n      0xffffffffffffffffffffffffffffffffffffffff\n      and\n      0xffffffffffffffffffffffffffffffffffffffff\n      and\n      dup2\n      mstore\n      0x20\n      add\n      swap1\n      dup2\n      mstore\n      0x20\n      add\n      0x00\n      keccak256\n        /* \"solidity_test/test4.sol\":14364:14387  users[msg.sender].score */\n      0x03\n      add\n        /* \"solidity_test/test4.sol\":14364:14416  users[msg.sender].score = users[msg.sender].score%10 */\n      dup2\n      swap1\n      sstore\n      pop\n        /* \"solidity_test/test4.sol\":14444:14454  msg.sender */\n      caller\n        /* \"solidity_test/test4.sol\":14436:14464  payable(msg.sender).transfer */\n      0xffffffffffffffffffffffffffffffffffffffff\n      and\n        /* \"solidity_test/test4.sol\":14436:14484  payable(msg.sender).transfer(amount * 0.1 ether) */\n      0x08fc\n        /* \"solidity_test/test4.sol\":14474:14483  0.1 ether */\n      0x016345785d8a0000\n        /* \"solidity_test/test4.sol\":14465:14471  amount */\n      dup4\n        /* \"solidity_test/test4.sol\":14465:14483  amount * 0.1 ether */\n      tag_85\n      swap2\n      swap1\n      tag_76\n      jump\t// in\n    tag_85:\n        /* \"solidity_test/test4.sol\":14436:14484  payable(msg.sender).transfer(amount * 0.1 ether) */\n      swap1\n      dup2\n      iszero\n      mul\n      swap1\n      mload(0x40)\n      0x00\n      mload(0x40)\n      dup1\n      dup4\n      sub\n      dup2\n      dup6\n      dup9\n      dup9\n      call\n      swap4\n      pop\n      pop\n      pop\n      pop\n      iszero\n      dup1\n      iszero\n      tag_87\n      jumpi\n      returndatasize\n      0x00\n      dup1\n      returndatacopy\n      revert(0x00, returndatasize)\n    tag_87:\n      pop\n        /* \"solidity_test/test4.sol\":14244:14492  {... */\n      pop\n        /* \"solidity_test/test4.sol\":14214:14492  function withDrawMax() public {... */\n      jump\t// out\n        /* \"solidity_test/test4.sol\":11981:12097  function withDrawOwner(uint _n) public onlyOwner morethanTwoEther {... */\n    tag_29:\n        /* \"solidity_test/test4.sol\":11626:11631  owner */\n      0x00\n      dup1\n      sload\n      swap1\n      0x0100\n      exp\n      swap1\n      div\n      0xffffffffffffffffffffffffffffffffffffffff\n      and\n        /* \"solidity_test/test4.sol\":11612:11631  msg.sender == owner */\n      0xffffffffffffffffffffffffffffffffffffffff\n      and\n        /* \"solidity_test/test4.sol\":11612:11622  msg.sender */\n      caller\n        /* \"solidity_test/test4.sol\":11612:11631  msg.sender == owner */\n      0xffffffffffffffffffffffffffffffffffffffff\n      and\n      eq\n        /* \"solidity_test/test4.sol\":11604:11640  require(msg.sender == owner, \"nope\") */\n      tag_89\n      jumpi\n      mload(0x40)\n      0x08c379a000000000000000000000000000000000000000000000000000000000\n      dup2\n      mstore\n      0x04\n      add\n      tag_90\n      swap1\n      tag_64\n      jump\t// in\n    tag_90:\n      mload(0x40)\n      dup1\n      swap2\n      sub\n      swap1\n      revert\n    tag_89:\n        /* \"solidity_test/test4.sol\":12058:12063  owner */\n      0x00\n      dup1\n      sload\n      swap1\n      0x0100\n      exp\n      swap1\n      div\n      0xffffffffffffffffffffffffffffffffffffffff\n      and\n        /* \"solidity_test/test4.sol\":12058:12072  owner.transfer */\n      0xffffffffffffffffffffffffffffffffffffffff\n      and\n        /* \"solidity_test/test4.sol\":12058:12089  owner.transfer(_n * 0.01 ether) */\n      0x08fc\n        /* \"solidity_test/test4.sol\":12078:12088  0.01 ether */\n      0x2386f26fc10000\n        /* \"solidity_test/test4.sol\":12073:12075  _n */\n      dup4\n        /* \"solidity_test/test4.sol\":12073:12088  _n * 0.01 ether */\n      tag_93\n      swap2\n      swap1\n      tag_76\n      jump\t// in\n    tag_93:\n        /* \"solidity_test/test4.sol\":12058:12089  owner.transfer(_n * 0.01 ether) */\n      swap1\n      dup2\n      iszero\n      mul\n      swap1\n      mload(0x40)\n      0x00\n      mload(0x40)\n      dup1\n      dup4\n      sub\n      dup2\n      dup6\n      dup9\n      dup9\n      call\n      swap4\n      pop\n      pop\n      pop\n      pop\n      iszero\n      dup1\n      iszero\n      tag_95\n      jumpi\n      returndatasize\n      0x00\n      dup1\n      returndatacopy\n      revert(0x00, returndatasize)\n    tag_95:\n      pop\n        /* \"solidity_test/test4.sol\":11750:11757  2 ether */\n      0x1bc16d674ec80000\n        /* \"solidity_test/test4.sol\":11725:11746  address(this).balance */\n      selfbalance\n        /* \"solidity_test/test4.sol\":11725:11757  address(this).balance >= 2 ether */\n      lt\n      iszero\n        /* \"solidity_test/test4.sol\":11717:11766  require(address(this).balance >= 2 ether, \"nope\") */\n      tag_96\n      jumpi\n      mload(0x40)\n      0x08c379a000000000000000000000000000000000000000000000000000000000\n      dup2\n      mstore\n      0x04\n      add\n      tag_97\n      swap1\n      tag_64\n      jump\t// in\n    tag_97:\n      mload(0x40)\n      dup1\n      swap2\n      sub\n      swap1\n      revert\n    tag_96:\n        /* \"solidity_test/test4.sol\":11981:12097  function withDrawOwner(uint _n) public onlyOwner morethanTwoEther {... */\n      pop\n      jump\t// out\n        /* \"solidity_test/test4.sol\":12105:12223  function withDrawOwnerMax() public onlyOwner morethanTwoEther {... */\n    tag_32:\n        /* \"solidity_test/test4.sol\":11626:11631  owner */\n      0x00\n      dup1\n      sload\n      swap1\n      0x0100\n      exp\n      swap1\n      div\n      0xffffffffffffffffffffffffffffffffffffffff\n      and\n        /* \"solidity_test/test4.sol\":11612:11631  msg.sender == owner */\n      0xffffffffffffffffffffffffffffffffffffffff\n      and\n        /* \"solidity_test/test4.sol\":11612:11622  msg.sender */\n      caller\n        /* \"solidity_test/test4.sol\":11612:11631  msg.sender == owner */\n      0xffffffffffffffffffffffffffffffffffffffff\n      and\n      eq\n        /* \"solidity_test/test4.sol\":11604:11640  require(msg.sender == owner, \"nope\") */\n      tag_99\n      jumpi\n      mload(0x40)\n      0x08c379a000000000000000000000000000000000000000000000000000000000\n      dup2\n      mstore\n      0x04\n      add\n      tag_100\n      swap1\n      tag_64\n      jump\t// in\n    tag_100:\n      mload(0x40)\n      dup1\n      swap2\n      sub\n      swap1\n      revert\n    tag_99:\n        /* \"solidity_test/test4.sol\":12178:12183  owner */\n      0x00\n      dup1\n      sload\n      swap1\n      0x0100\n      exp\n      swap1\n      div\n      0xffffffffffffffffffffffffffffffffffffffff\n      and\n        /* \"solidity_test/test4.sol\":12178:12192  owner.transfer */\n      0xffffffffffffffffffffffffffffffffffffffff\n      and\n        /* \"solidity_test/test4.sol\":12178:12215  owner.transfer(address(this).balance) */\n      0x08fc\n        /* \"solidity_test/test4.sol\":12193:12214  address(this).balance */\n      selfbalance\n        /* \"solidity_test/test4.sol\":12178:12215  owner.transfer(address(this).balance) */\n      swap1\n      dup2\n      iszero\n      mul\n      swap1\n      mload(0x40)\n      0x00\n      mload(0x40)\n      dup1\n      dup4\n      sub\n      dup2\n      dup6\n      dup9\n      dup9\n      call\n      swap4\n      pop\n      pop\n      pop\n      pop\n      iszero\n      dup1\n      iszero\n      tag_104\n      jumpi\n      returndatasize\n      0x00\n      dup1\n      returndatacopy\n      revert(0x00, returndatasize)\n    tag_104:\n      pop\n        /* \"solidity_test/test4.sol\":11750:11757  2 ether */\n      0x1bc16d674ec80000\n        /* \"solidity_test/test4.sol\":11725:11746  address(this).balance */\n      selfbalance\n        /* \"solidity_test/test4.sol\":11725:11757  address(this).balance >= 2 ether */\n      lt\n      iszero\n        /* \"solidity_test/test4.sol\":11717:11766  require(address(this).balance >= 2 ether, \"nope\") */\n      tag_105\n      jumpi\n      mload(0x40)\n      0x08c379a000000000000000000000000000000000000000000000000000000000\n      dup2\n      mstore\n      0x04\n      add\n      tag_106\n      swap1\n      tag_64\n      jump\t// in\n    tag_106:\n      mload(0x40)\n      dup1\n      swap2\n      sub\n      swap1\n      revert\n    tag_105:\n        /* \"solidity_test/test4.sol\":12105:12223  function withDrawOwnerMax() public onlyOwner morethanTwoEther {... */\n      jump\t// out\n        /* \"solidity_test/test4.sol\":12681:12783  function search(address _addr) public view returns(USER memory) {... */\n    tag_37:\n        /* \"solidity_test/test4.sol\":12732:12743  USER memory */\n      tag_107\n      tag_108\n      jump\t// in\n    tag_107:\n        /* \"solidity_test/test4.sol\":12763:12768  users */\n      0x01\n        /* \"solidity_test/test4.sol\":12763:12775  users[_addr] */\n      0x00\n        /* \"solidity_test/test4.sol\":12769:12774  _addr */\n      dup4\n        /* \"solidity_test/test4.sol\":12763:12775  users[_addr] */\n      0xffffffffffffffffffffffffffffffffffffffff\n      and\n      0xffffffffffffffffffffffffffffffffffffffff\n      and\n      dup2\n      mstore\n      0x20\n      add\n      swap1\n      dup2\n      mstore\n      0x20\n      add\n      0x00\n      keccak256\n        /* \"solidity_test/test4.sol\":12756:12775  return users[_addr] */\n      mload(0x40)\n      dup1\n      0xa0\n      add\n      0x40\n      mstore\n      swap1\n      dup2\n      0x00\n      dup3\n      add\n      sload\n      dup2\n      mstore\n      0x20\n      add\n      0x01\n      dup3\n      add\n      dup1\n      sload\n      tag_110\n      swap1\n      tag_111\n      jump\t// in\n    tag_110:\n      dup1\n      0x1f\n      add\n      0x20\n      dup1\n      swap2\n      div\n      mul\n      0x20\n      add\n      mload(0x40)\n      swap1\n      dup2\n      add\n      0x40\n      mstore\n      dup1\n      swap3\n      swap2\n      swap1\n      dup2\n      dup2\n      mstore\n      0x20\n      add\n      dup3\n      dup1\n      sload\n      tag_112\n      swap1\n      tag_111\n      jump\t// in\n    tag_112:\n      dup1\n      iszero\n      tag_113\n      jumpi\n      dup1\n      0x1f\n      lt\n      tag_114\n      jumpi\n      0x0100\n      dup1\n      dup4\n      sload\n      div\n      mul\n      dup4\n      mstore\n      swap2\n      0x20\n      add\n      swap2\n      jump(tag_113)\n    tag_114:\n      dup3\n      add\n      swap2\n      swap1\n      0x00\n      mstore\n      keccak256(0x00, 0x20)\n      swap1\n    tag_115:\n      dup2\n      sload\n      dup2\n      mstore\n      swap1\n      0x01\n      add\n      swap1\n      0x20\n      add\n      dup1\n      dup4\n      gt\n      tag_115\n      jumpi\n      dup3\n      swap1\n      sub\n      0x1f\n      and\n      dup3\n      add\n      swap2\n    tag_113:\n      pop\n      pop\n      pop\n      pop\n      pop\n      dup2\n      mstore\n      0x20\n      add\n      0x02\n      dup3\n      add\n      0x00\n      swap1\n      sload\n      swap1\n      0x0100\n      exp\n      swap1\n      div\n      0xffffffffffffffffffffffffffffffffffffffff\n      and\n      0xffffffffffffffffffffffffffffffffffffffff\n      and\n      0xffffffffffffffffffffffffffffffffffffffff\n      and\n      dup2\n      mstore\n      0x20\n      add\n      0x03\n      dup3\n      add\n      sload\n      dup2\n      mstore\n      0x20\n      add\n      0x04\n      dup3\n      add\n      sload\n      dup2\n      mstore\n      pop\n      pop\n      swap1\n      pop\n        /* \"solidity_test/test4.sol\":12681:12783  function search(address _addr) public view returns(USER memory) {... */\n      swap2\n      swap1\n      pop\n      jump\t// out\n        /* \"solidity_test/test4.sol\":11480:11497  uint public idx=1 */\n    tag_42:\n      sload(0x06)\n      dup2\n      jump\t// out\n        /* \"solidity_test/test4.sol\":13605:13728  function getScore() public {... */\n    tag_47:\n        /* \"solidity_test/test4.sol\":13647:13653  uint i */\n      0x00\n        /* \"solidity_test/test4.sol\":13643:13721  for(uint i=0; i<4; i++) {... */\n    tag_117:\n        /* \"solidity_test/test4.sol\":13659:13660  4 */\n      0x04\n        /* \"solidity_test/test4.sol\":13657:13658  i */\n      dup2\n        /* \"solidity_test/test4.sol\":13657:13660  i<4 */\n      lt\n        /* \"solidity_test/test4.sol\":13643:13721  for(uint i=0; i<4; i++) {... */\n      iszero\n      tag_118\n      jumpi\n        /* \"solidity_test/test4.sol\":13708:13709  i */\n      dup1\n        /* \"solidity_test/test4.sol\":13706:13707  4 */\n      0x04\n        /* \"solidity_test/test4.sol\":13706:13709  4-i */\n      tag_120\n      swap2\n      swap1\n      tag_66\n      jump\t// in\n    tag_120:\n        /* \"solidity_test/test4.sol\":13682:13687  users */\n      0x01\n        /* \"solidity_test/test4.sol\":13682:13696  users[room[i]] */\n      0x00\n        /* \"solidity_test/test4.sol\":13688:13692  room */\n      0x02\n        /* \"solidity_test/test4.sol\":13693:13694  i */\n      dup5\n        /* \"solidity_test/test4.sol\":13688:13695  room[i] */\n      0x04\n      dup2\n      lt\n      tag_121\n      jumpi\n      tag_122\n      tag_123\n      jump\t// in\n    tag_122:\n    tag_121:\n      add\n      0x00\n      swap1\n      sload\n      swap1\n      0x0100\n      exp\n      swap1\n      div\n      0xffffffffffffffffffffffffffffffffffffffff\n      and\n        /* \"solidity_test/test4.sol\":13682:13696  users[room[i]] */\n      0xffffffffffffffffffffffffffffffffffffffff\n      and\n      0xffffffffffffffffffffffffffffffffffffffff\n      and\n      dup2\n      mstore\n      0x20\n      add\n      swap1\n      dup2\n      mstore\n      0x20\n      add\n      0x00\n      keccak256\n        /* \"solidity_test/test4.sol\":13682:13702  users[room[i]].score */\n      0x03\n      add\n      0x00\n        /* \"solidity_test/test4.sol\":13682:13709  users[room[i]].score += 4-i */\n      dup3\n      dup3\n      sload\n      tag_125\n      swap2\n      swap1\n      tag_126\n      jump\t// in\n    tag_125:\n      swap3\n      pop\n      pop\n      dup2\n      swap1\n      sstore\n      pop\n        /* \"solidity_test/test4.sol\":13662:13665  i++ */\n      dup1\n      dup1\n      0x01\n      add\n      swap2\n      pop\n      pop\n        /* \"solidity_test/test4.sol\":13643:13721  for(uint i=0; i<4; i++) {... */\n      jump(tag_117)\n    tag_118:\n      pop\n        /* \"solidity_test/test4.sol\":13605:13728  function getScore() public {... */\n      jump\t// out\n        /* \"solidity_test/test4.sol\":12903:13380  function join() public payable {... */\n    tag_49:\n        /* \"solidity_test/test4.sol\":12991:12992  0 */\n      0x00\n        /* \"solidity_test/test4.sol\":12959:12964  users */\n      0x01\n        /* \"solidity_test/test4.sol\":12959:12976  users[msg.sender] */\n      0x00\n        /* \"solidity_test/test4.sol\":12965:12975  msg.sender */\n      caller\n        /* \"solidity_test/test4.sol\":12959:12976  users[msg.sender] */\n      0xffffffffffffffffffffffffffffffffffffffff\n      and\n      0xffffffffffffffffffffffffffffffffffffffff\n      and\n      dup2\n      mstore\n      0x20\n      add\n      swap1\n      dup2\n      mstore\n      0x20\n      add\n      0x00\n      keccak256\n        /* \"solidity_test/test4.sol\":12959:12981  users[msg.sender].name */\n      0x01\n      add\n        /* \"solidity_test/test4.sol\":12953:12989  bytes(users[msg.sender].name).length */\n      dup1\n      sload\n      tag_128\n      swap1\n      tag_111\n      jump\t// in\n    tag_128:\n      swap1\n      pop\n        /* \"solidity_test/test4.sol\":12953:12992  bytes(users[msg.sender].name).length!=0 */\n      eq\n      iszero\n        /* \"solidity_test/test4.sol\":12953:13064  bytes(users[msg.sender].name).length!=0 && (msg.value == 0.01 ether || users[msg.sender].balance >= 0.01 ether) */\n      dup1\n      iszero\n      tag_129\n      jumpi\n      pop\n        /* \"solidity_test/test4.sol\":13010:13020  0.01 ether */\n      0x2386f26fc10000\n        /* \"solidity_test/test4.sol\":12997:13006  msg.value */\n      callvalue\n        /* \"solidity_test/test4.sol\":12997:13020  msg.value == 0.01 ether */\n      eq\n        /* \"solidity_test/test4.sol\":12997:13063  msg.value == 0.01 ether || users[msg.sender].balance >= 0.01 ether */\n      dup1\n      tag_130\n      jumpi\n      pop\n        /* \"solidity_test/test4.sol\":13053:13063  0.01 ether */\n      0x2386f26fc10000\n        /* \"solidity_test/test4.sol\":13024:13029  users */\n      0x01\n        /* \"solidity_test/test4.sol\":13024:13041  users[msg.sender] */\n      0x00\n        /* \"solidity_test/test4.sol\":13030:13040  msg.sender */\n      caller\n        /* \"solidity_test/test4.sol\":13024:13041  users[msg.sender] */\n      0xffffffffffffffffffffffffffffffffffffffff\n      and\n      0xffffffffffffffffffffffffffffffffffffffff\n      and\n      dup2\n      mstore\n      0x20\n      add\n      swap1\n      dup2\n      mstore\n      0x20\n      add\n      0x00\n      keccak256\n        /* \"solidity_test/test4.sol\":13024:13049  users[msg.sender].balance */\n      0x04\n      add\n      sload\n        /* \"solidity_test/test4.sol\":13024:13063  users[msg.sender].balance >= 0.01 ether */\n      lt\n      iszero\n        /* \"solidity_test/test4.sol\":12997:13063  msg.value == 0.01 ether || users[msg.sender].balance >= 0.01 ether */\n    tag_130:\n        /* \"solidity_test/test4.sol\":12953:13064  bytes(users[msg.sender].name).length!=0 && (msg.value == 0.01 ether || users[msg.sender].balance >= 0.01 ether) */\n    tag_129:\n        /* \"solidity_test/test4.sol\":12945:13073  require(bytes(users[msg.sender].name).length!=0 && (msg.value == 0.01 ether || users[msg.sender].balance >= 0.01 ether), \"Nope\") */\n      tag_131\n      jumpi\n      mload(0x40)\n      0x08c379a000000000000000000000000000000000000000000000000000000000\n      dup2\n      mstore\n      0x04\n      add\n      tag_132\n      swap1\n      tag_133\n      jump\t// in\n    tag_132:\n      mload(0x40)\n      dup1\n      swap2\n      sub\n      swap1\n      revert\n    tag_131:\n        /* \"solidity_test/test4.sol\":13101:13111  0.01 ether */\n      0x2386f26fc10000\n        /* \"solidity_test/test4.sol\":13089:13098  msg.value */\n      callvalue\n        /* \"solidity_test/test4.sol\":13089:13111  msg.value < 0.01 ether */\n      lt\n        /* \"solidity_test/test4.sol\":13086:13179  if(msg.value < 0.01 ether) {... */\n      iszero\n      tag_134\n      jumpi\n        /* \"solidity_test/test4.sol\":13157:13167  0.01 ether */\n      0x2386f26fc10000\n        /* \"solidity_test/test4.sol\":13128:13133  users */\n      0x01\n        /* \"solidity_test/test4.sol\":13128:13145  users[msg.sender] */\n      0x00\n        /* \"solidity_test/test4.sol\":13134:13144  msg.sender */\n      caller\n        /* \"solidity_test/test4.sol\":13128:13145  users[msg.sender] */\n      0xffffffffffffffffffffffffffffffffffffffff\n      and\n      0xffffffffffffffffffffffffffffffffffffffff\n      and\n      dup2\n      mstore\n      0x20\n      add\n      swap1\n      dup2\n      mstore\n      0x20\n      add\n      0x00\n      keccak256\n        /* \"solidity_test/test4.sol\":13128:13153  users[msg.sender].balance */\n      0x04\n      add\n      0x00\n        /* \"solidity_test/test4.sol\":13128:13167  users[msg.sender].balance -= 0.01 ether */\n      dup3\n      dup3\n      sload\n      tag_135\n      swap2\n      swap1\n      tag_66\n      jump\t// in\n    tag_135:\n      swap3\n      pop\n      pop\n      dup2\n      swap1\n      sstore\n      pop\n        /* \"solidity_test/test4.sol\":13086:13179  if(msg.value < 0.01 ether) {... */\n    tag_134:\n        /* \"solidity_test/test4.sol\":13207:13208  3 */\n      0x03\n        /* \"solidity_test/test4.sol\":13194:13205  getLength() */\n      tag_136\n        /* \"solidity_test/test4.sol\":13194:13203  getLength */\n      tag_52\n        /* \"solidity_test/test4.sol\":13194:13205  getLength() */\n      jump\t// in\n    tag_136:\n        /* \"solidity_test/test4.sol\":13194:13208  getLength()==3 */\n      sub\n        /* \"solidity_test/test4.sol\":13191:13371  if(getLength()==3) {... */\n      tag_137\n      jumpi\n        /* \"solidity_test/test4.sol\":13235:13245  msg.sender */\n      caller\n        /* \"solidity_test/test4.sol\":13225:13229  room */\n      0x02\n        /* \"solidity_test/test4.sol\":13230:13231  3 */\n      0x03\n        /* \"solidity_test/test4.sol\":13225:13232  room[3] */\n      0x04\n      dup2\n      lt\n      tag_138\n      jumpi\n      tag_139\n      tag_123\n      jump\t// in\n    tag_139:\n    tag_138:\n      add\n      0x00\n        /* \"solidity_test/test4.sol\":13225:13245  room[3] = msg.sender */\n      0x0100\n      exp\n      dup2\n      sload\n      dup2\n      0xffffffffffffffffffffffffffffffffffffffff\n      mul\n      not\n      and\n      swap1\n      dup4\n      0xffffffffffffffffffffffffffffffffffffffff\n      and\n      mul\n      or\n      swap1\n      sstore\n      pop\n        /* \"solidity_test/test4.sol\":13260:13270  getScore() */\n      tag_141\n        /* \"solidity_test/test4.sol\":13260:13268  getScore */\n      tag_47\n        /* \"solidity_test/test4.sol\":13260:13270  getScore() */\n      jump\t// in\n    tag_141:\n        /* \"solidity_test/test4.sol\":13292:13296  room */\n      0x02\n      0x00\n        /* \"solidity_test/test4.sol\":13285:13296  delete room */\n      tag_142\n      swap2\n      swap1\n      tag_143\n      jump\t// in\n    tag_142:\n        /* \"solidity_test/test4.sol\":13191:13371  if(getLength()==3) {... */\n      jump(tag_144)\n    tag_137:\n        /* \"solidity_test/test4.sol\":13349:13359  msg.sender */\n      caller\n        /* \"solidity_test/test4.sol\":13329:13333  room */\n      0x02\n        /* \"solidity_test/test4.sol\":13334:13345  getLength() */\n      tag_145\n        /* \"solidity_test/test4.sol\":13334:13343  getLength */\n      tag_52\n        /* \"solidity_test/test4.sol\":13334:13345  getLength() */\n      jump\t// in\n    tag_145:\n        /* \"solidity_test/test4.sol\":13329:13346  room[getLength()] */\n      0x04\n      dup2\n      lt\n      tag_146\n      jumpi\n      tag_147\n      tag_123\n      jump\t// in\n    tag_147:\n    tag_146:\n      add\n      0x00\n        /* \"solidity_test/test4.sol\":13329:13359  room[getLength()] = msg.sender */\n      0x0100\n      exp\n      dup2\n      sload\n      dup2\n      0xffffffffffffffffffffffffffffffffffffffff\n      mul\n      not\n      and\n      swap1\n      dup4\n      0xffffffffffffffffffffffffffffffffffffffff\n      and\n      mul\n      or\n      swap1\n      sstore\n      pop\n        /* \"solidity_test/test4.sol\":13191:13371  if(getLength()==3) {... */\n    tag_144:\n        /* \"solidity_test/test4.sol\":12903:13380  function join() public payable {... */\n      jump\t// out\n        /* \"solidity_test/test4.sol\":13388:13597  function getLength() public view returns(uint) {... */\n    tag_52:\n        /* \"solidity_test/test4.sol\":13429:13433  uint */\n      0x00\n        /* \"solidity_test/test4.sol\":13450:13456  uint i */\n      dup1\n        /* \"solidity_test/test4.sol\":13457:13458  0 */\n      0x00\n        /* \"solidity_test/test4.sol\":13450:13458  uint i=0 */\n      swap1\n      pop\n        /* \"solidity_test/test4.sol\":13446:13569  for(uint i=0; i<4; i++) {... */\n    tag_150:\n        /* \"solidity_test/test4.sol\":13462:13463  4 */\n      0x04\n        /* \"solidity_test/test4.sol\":13460:13461  i */\n      dup2\n        /* \"solidity_test/test4.sol\":13460:13463  i<4 */\n      lt\n        /* \"solidity_test/test4.sol\":13446:13569  for(uint i=0; i<4; i++) {... */\n      iszero\n      tag_151\n      jumpi\n        /* \"solidity_test/test4.sol\":13512:13513  0 */\n      0x00\n        /* \"solidity_test/test4.sol\":13488:13493  users */\n      0x01\n        /* \"solidity_test/test4.sol\":13488:13502  users[room[i]] */\n      0x00\n        /* \"solidity_test/test4.sol\":13494:13498  room */\n      0x02\n        /* \"solidity_test/test4.sol\":13499:13500  i */\n      dup5\n        /* \"solidity_test/test4.sol\":13494:13501  room[i] */\n      0x04\n      dup2\n      lt\n      tag_153\n      jumpi\n      tag_154\n      tag_123\n      jump\t// in\n    tag_154:\n    tag_153:\n      add\n      0x00\n      swap1\n      sload\n      swap1\n      0x0100\n      exp\n      swap1\n      div\n      0xffffffffffffffffffffffffffffffffffffffff\n      and\n        /* \"solidity_test/test4.sol\":13488:13502  users[room[i]] */\n      0xffffffffffffffffffffffffffffffffffffffff\n      and\n      0xffffffffffffffffffffffffffffffffffffffff\n      and\n      dup2\n      mstore\n      0x20\n      add\n      swap1\n      dup2\n      mstore\n      0x20\n      add\n      0x00\n      keccak256\n        /* \"solidity_test/test4.sol\":13488:13509  users[room[i]].number */\n      0x00\n      add\n      sload\n        /* \"solidity_test/test4.sol\":13488:13513  users[room[i]].number ==0 */\n      sub\n        /* \"solidity_test/test4.sol\":13485:13558  if(users[room[i]].number ==0) {... */\n      tag_156\n      jumpi\n        /* \"solidity_test/test4.sol\":13541:13542  i */\n      dup1\n        /* \"solidity_test/test4.sol\":13534:13542  return i */\n      swap2\n      pop\n      pop\n      jump(tag_149)\n        /* \"solidity_test/test4.sol\":13485:13558  if(users[room[i]].number ==0) {... */\n    tag_156:\n        /* \"solidity_test/test4.sol\":13465:13468  i++ */\n      dup1\n      dup1\n      0x01\n      add\n      swap2\n      pop\n      pop\n        /* \"solidity_test/test4.sol\":13446:13569  for(uint i=0; i<4; i++) {... */\n      jump(tag_150)\n    tag_151:\n      pop\n        /* \"solidity_test/test4.sol\":13588:13589  4 */\n      0x04\n        /* \"solidity_test/test4.sol\":13581:13589  return 4 */\n      swap1\n      pop\n        /* \"solidity_test/test4.sol\":13388:13597  function getLength() public view returns(uint) {... */\n    tag_149:\n      swap1\n      jump\t// out\n        /* \"solidity_test/test4.sol\":12389:12574  function signIn(string memory _name) public {... */\n    tag_58:\n        /* \"solidity_test/test4.sol\":12490:12491  0 */\n      0x00\n        /* \"solidity_test/test4.sol\":12458:12463  users */\n      0x01\n        /* \"solidity_test/test4.sol\":12458:12475  users[msg.sender] */\n      0x00\n        /* \"solidity_test/test4.sol\":12464:12474  msg.sender */\n      caller\n        /* \"solidity_test/test4.sol\":12458:12475  users[msg.sender] */\n      0xffffffffffffffffffffffffffffffffffffffff\n      and\n      0xffffffffffffffffffffffffffffffffffffffff\n      and\n      dup2\n      mstore\n      0x20\n      add\n      swap1\n      dup2\n      mstore\n      0x20\n      add\n      0x00\n      keccak256\n        /* \"solidity_test/test4.sol\":12458:12480  users[msg.sender].name */\n      0x01\n      add\n        /* \"solidity_test/test4.sol\":12452:12488  bytes(users[msg.sender].name).length */\n      dup1\n      sload\n      tag_158\n      swap1\n      tag_111\n      jump\t// in\n    tag_158:\n      swap1\n      pop\n        /* \"solidity_test/test4.sol\":12452:12491  bytes(users[msg.sender].name).length==0 */\n      eq\n        /* \"solidity_test/test4.sol\":12444:12500  require(bytes(users[msg.sender].name).length==0, \"nope\") */\n      tag_159\n      jumpi\n      mload(0x40)\n      0x08c379a000000000000000000000000000000000000000000000000000000000\n      dup2\n      mstore\n      0x04\n      add\n      tag_160\n      swap1\n      tag_64\n      jump\t// in\n    tag_160:\n      mload(0x40)\n      dup1\n      swap2\n      sub\n      swap1\n      revert\n    tag_159:\n        /* \"solidity_test/test4.sol\":12531:12566  USER(idx++, _name, msg.sender, 0,0) */\n      mload(0x40)\n      dup1\n      0xa0\n      add\n      0x40\n      mstore\n      dup1\n        /* \"solidity_test/test4.sol\":12536:12539  idx */\n      0x06\n      0x00\n        /* \"solidity_test/test4.sol\":12536:12541  idx++ */\n      dup2\n      sload\n      dup1\n      swap3\n      swap2\n      swap1\n      tag_161\n      swap1\n      tag_162\n      jump\t// in\n    tag_161:\n      swap2\n      swap1\n      pop\n      sstore\n        /* \"solidity_test/test4.sol\":12531:12566  USER(idx++, _name, msg.sender, 0,0) */\n      dup2\n      mstore\n      0x20\n      add\n        /* \"solidity_test/test4.sol\":12543:12548  _name */\n      dup3\n        /* \"solidity_test/test4.sol\":12531:12566  USER(idx++, _name, msg.sender, 0,0) */\n      dup2\n      mstore\n      0x20\n      add\n        /* \"solidity_test/test4.sol\":12550:12560  msg.sender */\n      caller\n        /* \"solidity_test/test4.sol\":12531:12566  USER(idx++, _name, msg.sender, 0,0) */\n      0xffffffffffffffffffffffffffffffffffffffff\n      and\n      dup2\n      mstore\n      0x20\n      add\n        /* \"solidity_test/test4.sol\":12562:12563  0 */\n      0x00\n        /* \"solidity_test/test4.sol\":12531:12566  USER(idx++, _name, msg.sender, 0,0) */\n      dup2\n      mstore\n      0x20\n      add\n        /* \"solidity_test/test4.sol\":12564:12565  0 */\n      0x00\n        /* \"solidity_test/test4.sol\":12531:12566  USER(idx++, _name, msg.sender, 0,0) */\n      dup2\n      mstore\n      pop\n        /* \"solidity_test/test4.sol\":12511:12516  users */\n      0x01\n        /* \"solidity_test/test4.sol\":12511:12528  users[msg.sender] */\n      0x00\n        /* \"solidity_test/test4.sol\":12517:12527  msg.sender */\n      caller\n        /* \"solidity_test/test4.sol\":12511:12528  users[msg.sender] */\n      0xffffffffffffffffffffffffffffffffffffffff\n      and\n      0xffffffffffffffffffffffffffffffffffffffff\n      and\n      dup2\n      mstore\n      0x20\n      add\n      swap1\n      dup2\n      mstore\n      0x20\n      add\n      0x00\n      keccak256\n        /* \"solidity_test/test4.sol\":12511:12566  users[msg.sender] = USER(idx++, _name, msg.sender, 0,0) */\n      0x00\n      dup3\n      add\n      mload\n      dup2\n      0x00\n      add\n      sstore\n      0x20\n      dup3\n      add\n      mload\n      dup2\n      0x01\n      add\n      swap1\n      dup2\n      tag_163\n      swap2\n      swap1\n      tag_164\n      jump\t// in\n    tag_163:\n      pop\n      0x40\n      dup3\n      add\n      mload\n      dup2\n      0x02\n      add\n      exp(0x0100, 0x00)\n      dup2\n      sload\n      dup2\n      0xffffffffffffffffffffffffffffffffffffffff\n      mul\n      not\n      and\n      swap1\n      dup4\n      0xffffffffffffffffffffffffffffffffffffffff\n      and\n      mul\n      or\n      swap1\n      sstore\n      pop\n      0x60\n      dup3\n      add\n      mload\n      dup2\n      0x03\n      add\n      sstore\n      0x80\n      dup3\n      add\n      mload\n      dup2\n      0x04\n      add\n      sstore\n      swap1\n      pop\n      pop\n        /* \"solidity_test/test4.sol\":12389:12574  function signIn(string memory _name) public {... */\n      pop\n      jump\t// out\n        /* \"solidity_test/test4.sol\":14676:14767  function deposit() public payable {... */\n    tag_60:\n        /* \"solidity_test/test4.sol\":14750:14759  msg.value */\n      callvalue\n        /* \"solidity_test/test4.sol\":14721:14726  users */\n      0x01\n        /* \"solidity_test/test4.sol\":14721:14738  users[msg.sender] */\n      0x00\n        /* \"solidity_test/test4.sol\":14727:14737  msg.sender */\n      caller\n        /* \"solidity_test/test4.sol\":14721:14738  users[msg.sender] */\n      0xffffffffffffffffffffffffffffffffffffffff\n      and\n      0xffffffffffffffffffffffffffffffffffffffff\n      and\n      dup2\n      mstore\n      0x20\n      add\n      swap1\n      dup2\n      mstore\n      0x20\n      add\n      0x00\n      keccak256\n        /* \"solidity_test/test4.sol\":14721:14746  users[msg.sender].balance */\n      0x04\n      add\n      0x00\n        /* \"solidity_test/test4.sol\":14721:14759  users[msg.sender].balance += msg.value */\n      dup3\n      dup3\n      sload\n      tag_166\n      swap2\n      swap1\n      tag_126\n      jump\t// in\n    tag_166:\n      swap3\n      pop\n      pop\n      dup2\n      swap1\n      sstore\n      pop\n        /* \"solidity_test/test4.sol\":14676:14767  function deposit() public payable {... */\n      jump\t// out\n    tag_108:\n      mload(0x40)\n      dup1\n      0xa0\n      add\n      0x40\n      mstore\n      dup1\n      0x00\n      dup2\n      mstore\n      0x20\n      add\n      0x60\n      dup2\n      mstore\n      0x20\n      add\n      and(0xffffffffffffffffffffffffffffffffffffffff, 0x00)\n      dup2\n      mstore\n      0x20\n      add\n      0x00\n      dup2\n      mstore\n      0x20\n      add\n      0x00\n      dup2\n      mstore\n      pop\n      swap1\n      jump\t// out\n    tag_143:\n      pop\n      0x00\n      dup2\n      sstore\n      0x01\n      add\n      0x00\n      dup2\n      sstore\n      0x01\n      add\n      0x00\n      dup2\n      sstore\n      0x01\n      add\n      0x00\n      swap1\n      sstore\n      jump\t// out\n        /* \"#utility.yul\":7:82   */\n    tag_167:\n        /* \"#utility.yul\":40:46   */\n      0x00\n        /* \"#utility.yul\":73:75   */\n      0x40\n        /* \"#utility.yul\":67:76   */\n      mload\n        /* \"#utility.yul\":57:76   */\n      swap1\n      pop\n        /* \"#utility.yul\":7:82   */\n      swap1\n      jump\t// out\n        /* \"#utility.yul\":88:205   */\n    tag_168:\n        /* \"#utility.yul\":197:198   */\n      0x00\n        /* \"#utility.yul\":194:195   */\n      dup1\n        /* \"#utility.yul\":187:199   */\n      revert\n        /* \"#utility.yul\":211:328   */\n    tag_169:\n        /* \"#utility.yul\":320:321   */\n      0x00\n        /* \"#utility.yul\":317:318   */\n      dup1\n        /* \"#utility.yul\":310:322   */\n      revert\n        /* \"#utility.yul\":334:411   */\n    tag_170:\n        /* \"#utility.yul\":371:378   */\n      0x00\n        /* \"#utility.yul\":400:405   */\n      dup2\n        /* \"#utility.yul\":389:405   */\n      swap1\n      pop\n        /* \"#utility.yul\":334:411   */\n      swap2\n      swap1\n      pop\n      jump\t// out\n        /* \"#utility.yul\":417:539   */\n    tag_171:\n        /* \"#utility.yul\":490:514   */\n      tag_224\n        /* \"#utility.yul\":508:513   */\n      dup2\n        /* \"#utility.yul\":490:514   */\n      tag_170\n      jump\t// in\n    tag_224:\n        /* \"#utility.yul\":483:488   */\n      dup2\n        /* \"#utility.yul\":480:515   */\n      eq\n        /* \"#utility.yul\":470:533   */\n      tag_225\n      jumpi\n        /* \"#utility.yul\":529:530   */\n      0x00\n        /* \"#utility.yul\":526:527   */\n      dup1\n        /* \"#utility.yul\":519:531   */\n      revert\n        /* \"#utility.yul\":470:533   */\n    tag_225:\n        /* \"#utility.yul\":417:539   */\n      pop\n      jump\t// out\n        /* \"#utility.yul\":545:684   */\n    tag_172:\n        /* \"#utility.yul\":591:596   */\n      0x00\n        /* \"#utility.yul\":629:635   */\n      dup2\n        /* \"#utility.yul\":616:636   */\n      calldataload\n        /* \"#utility.yul\":607:636   */\n      swap1\n      pop\n        /* \"#utility.yul\":645:678   */\n      tag_227\n        /* \"#utility.yul\":672:677   */\n      dup2\n        /* \"#utility.yul\":645:678   */\n      tag_171\n      jump\t// in\n    tag_227:\n        /* \"#utility.yul\":545:684   */\n      swap3\n      swap2\n      pop\n      pop\n      jump\t// out\n        /* \"#utility.yul\":690:1019   */\n    tag_21:\n        /* \"#utility.yul\":749:755   */\n      0x00\n        /* \"#utility.yul\":798:800   */\n      0x20\n        /* \"#utility.yul\":786:795   */\n      dup3\n        /* \"#utility.yul\":777:784   */\n      dup5\n        /* \"#utility.yul\":773:796   */\n      sub\n        /* \"#utility.yul\":769:801   */\n      slt\n        /* \"#utility.yul\":766:885   */\n      iszero\n      tag_229\n      jumpi\n        /* \"#utility.yul\":804:883   */\n      tag_230\n      tag_168\n      jump\t// in\n    tag_230:\n        /* \"#utility.yul\":766:885   */\n    tag_229:\n        /* \"#utility.yul\":924:925   */\n      0x00\n        /* \"#utility.yul\":949:1002   */\n      tag_231\n        /* \"#utility.yul\":994:1001   */\n      dup5\n        /* \"#utility.yul\":985:991   */\n      dup3\n        /* \"#utility.yul\":974:983   */\n      dup6\n        /* \"#utility.yul\":970:992   */\n      add\n        /* \"#utility.yul\":949:1002   */\n      tag_172\n      jump\t// in\n    tag_231:\n        /* \"#utility.yul\":939:1002   */\n      swap2\n      pop\n        /* \"#utility.yul\":895:1012   */\n      pop\n        /* \"#utility.yul\":690:1019   */\n      swap3\n      swap2\n      pop\n      pop\n      jump\t// out\n        /* \"#utility.yul\":1025:1151   */\n    tag_173:\n        /* \"#utility.yul\":1062:1069   */\n      0x00\n        /* \"#utility.yul\":1102:1144   */\n      0xffffffffffffffffffffffffffffffffffffffff\n        /* \"#utility.yul\":1095:1100   */\n      dup3\n        /* \"#utility.yul\":1091:1145   */\n      and\n        /* \"#utility.yul\":1080:1145   */\n      swap1\n      pop\n        /* \"#utility.yul\":1025:1151   */\n      swap2\n      swap1\n      pop\n      jump\t// out\n        /* \"#utility.yul\":1157:1253   */\n    tag_174:\n        /* \"#utility.yul\":1194:1201   */\n      0x00\n        /* \"#utility.yul\":1223:1247   */\n      tag_234\n        /* \"#utility.yul\":1241:1246   */\n      dup3\n        /* \"#utility.yul\":1223:1247   */\n      tag_173\n      jump\t// in\n    tag_234:\n        /* \"#utility.yul\":1212:1247   */\n      swap1\n      pop\n        /* \"#utility.yul\":1157:1253   */\n      swap2\n      swap1\n      pop\n      jump\t// out\n        /* \"#utility.yul\":1259:1381   */\n    tag_175:\n        /* \"#utility.yul\":1332:1356   */\n      tag_236\n        /* \"#utility.yul\":1350:1355   */\n      dup2\n        /* \"#utility.yul\":1332:1356   */\n      tag_174\n      jump\t// in\n    tag_236:\n        /* \"#utility.yul\":1325:1330   */\n      dup2\n        /* \"#utility.yul\":1322:1357   */\n      eq\n        /* \"#utility.yul\":1312:1375   */\n      tag_237\n      jumpi\n        /* \"#utility.yul\":1371:1372   */\n      0x00\n        /* \"#utility.yul\":1368:1369   */\n      dup1\n        /* \"#utility.yul\":1361:1373   */\n      revert\n        /* \"#utility.yul\":1312:1375   */\n    tag_237:\n        /* \"#utility.yul\":1259:1381   */\n      pop\n      jump\t// out\n        /* \"#utility.yul\":1387:1526   */\n    tag_176:\n        /* \"#utility.yul\":1433:1438   */\n      0x00\n        /* \"#utility.yul\":1471:1477   */\n      dup2\n        /* \"#utility.yul\":1458:1478   */\n      calldataload\n        /* \"#utility.yul\":1449:1478   */\n      swap1\n      pop\n        /* \"#utility.yul\":1487:1520   */\n      tag_239\n        /* \"#utility.yul\":1514:1519   */\n      dup2\n        /* \"#utility.yul\":1487:1520   */\n      tag_175\n      jump\t// in\n    tag_239:\n        /* \"#utility.yul\":1387:1526   */\n      swap3\n      swap2\n      pop\n      pop\n      jump\t// out\n        /* \"#utility.yul\":1532:1861   */\n    tag_36:\n        /* \"#utility.yul\":1591:1597   */\n      0x00\n        /* \"#utility.yul\":1640:1642   */\n      0x20\n        /* \"#utility.yul\":1628:1637   */\n      dup3\n        /* \"#utility.yul\":1619:1626   */\n      dup5\n        /* \"#utility.yul\":1615:1638   */\n      sub\n        /* \"#utility.yul\":1611:1643   */\n      slt\n        /* \"#utility.yul\":1608:1727   */\n      iszero\n      tag_241\n      jumpi\n        /* \"#utility.yul\":1646:1725   */\n      tag_242\n      tag_168\n      jump\t// in\n    tag_242:\n        /* \"#utility.yul\":1608:1727   */\n    tag_241:\n        /* \"#utility.yul\":1766:1767   */\n      0x00\n        /* \"#utility.yul\":1791:1844   */\n      tag_243\n        /* \"#utility.yul\":1836:1843   */\n      dup5\n        /* \"#utility.yul\":1827:1833   */\n      dup3\n        /* \"#utility.yul\":1816:1825   */\n      dup6\n        /* \"#utility.yul\":1812:1834   */\n      add\n        /* \"#utility.yul\":1791:1844   */\n      tag_176\n      jump\t// in\n    tag_243:\n        /* \"#utility.yul\":1781:1844   */\n      swap2\n      pop\n        /* \"#utility.yul\":1737:1854   */\n      pop\n        /* \"#utility.yul\":1532:1861   */\n      swap3\n      swap2\n      pop\n      pop\n      jump\t// out\n        /* \"#utility.yul\":1867:1975   */\n    tag_177:\n        /* \"#utility.yul\":1944:1968   */\n      tag_245\n        /* \"#utility.yul\":1962:1967   */\n      dup2\n        /* \"#utility.yul\":1944:1968   */\n      tag_170\n      jump\t// in\n    tag_245:\n        /* \"#utility.yul\":1939:1942   */\n      dup3\n        /* \"#utility.yul\":1932:1969   */\n      mstore\n        /* \"#utility.yul\":1867:1975   */\n      pop\n      pop\n      jump\t// out\n        /* \"#utility.yul\":1981:2080   */\n    tag_178:\n        /* \"#utility.yul\":2033:2039   */\n      0x00\n        /* \"#utility.yul\":2067:2072   */\n      dup2\n        /* \"#utility.yul\":2061:2073   */\n      mload\n        /* \"#utility.yul\":2051:2073   */\n      swap1\n      pop\n        /* \"#utility.yul\":1981:2080   */\n      swap2\n      swap1\n      pop\n      jump\t// out\n        /* \"#utility.yul\":2086:2245   */\n    tag_179:\n        /* \"#utility.yul\":2160:2171   */\n      0x00\n        /* \"#utility.yul\":2194:2200   */\n      dup3\n        /* \"#utility.yul\":2189:2192   */\n      dup3\n        /* \"#utility.yul\":2182:2201   */\n      mstore\n        /* \"#utility.yul\":2234:2238   */\n      0x20\n        /* \"#utility.yul\":2229:2232   */\n      dup3\n        /* \"#utility.yul\":2225:2239   */\n      add\n        /* \"#utility.yul\":2210:2239   */\n      swap1\n      pop\n        /* \"#utility.yul\":2086:2245   */\n      swap3\n      swap2\n      pop\n      pop\n      jump\t// out\n        /* \"#utility.yul\":2251:2390   */\n    tag_180:\n        /* \"#utility.yul\":2340:2346   */\n      dup3\n        /* \"#utility.yul\":2335:2338   */\n      dup2\n        /* \"#utility.yul\":2330:2333   */\n      dup4\n        /* \"#utility.yul\":2324:2347   */\n      mcopy\n        /* \"#utility.yul\":2381:2382   */\n      0x00\n        /* \"#utility.yul\":2372:2378   */\n      dup4\n        /* \"#utility.yul\":2367:2370   */\n      dup4\n        /* \"#utility.yul\":2363:2379   */\n      add\n        /* \"#utility.yul\":2356:2383   */\n      mstore\n        /* \"#utility.yul\":2251:2390   */\n      pop\n      pop\n      pop\n      jump\t// out\n        /* \"#utility.yul\":2396:2498   */\n    tag_181:\n        /* \"#utility.yul\":2437:2443   */\n      0x00\n        /* \"#utility.yul\":2488:2490   */\n      0x1f\n        /* \"#utility.yul\":2484:2491   */\n      not\n        /* \"#utility.yul\":2479:2481   */\n      0x1f\n        /* \"#utility.yul\":2472:2477   */\n      dup4\n        /* \"#utility.yul\":2468:2482   */\n      add\n        /* \"#utility.yul\":2464:2492   */\n      and\n        /* \"#utility.yul\":2454:2492   */\n      swap1\n      pop\n        /* \"#utility.yul\":2396:2498   */\n      swap2\n      swap1\n      pop\n      jump\t// out\n        /* \"#utility.yul\":2504:2861   */\n    tag_182:\n        /* \"#utility.yul\":2582:2585   */\n      0x00\n        /* \"#utility.yul\":2610:2649   */\n      tag_251\n        /* \"#utility.yul\":2643:2648   */\n      dup3\n        /* \"#utility.yul\":2610:2649   */\n      tag_178\n      jump\t// in\n    tag_251:\n        /* \"#utility.yul\":2665:2726   */\n      tag_252\n        /* \"#utility.yul\":2719:2725   */\n      dup2\n        /* \"#utility.yul\":2714:2717   */\n      dup6\n        /* \"#utility.yul\":2665:2726   */\n      tag_179\n      jump\t// in\n    tag_252:\n        /* \"#utility.yul\":2658:2726   */\n      swap4\n      pop\n        /* \"#utility.yul\":2735:2800   */\n      tag_253\n        /* \"#utility.yul\":2793:2799   */\n      dup2\n        /* \"#utility.yul\":2788:2791   */\n      dup6\n        /* \"#utility.yul\":2781:2785   */\n      0x20\n        /* \"#utility.yul\":2774:2779   */\n      dup7\n        /* \"#utility.yul\":2770:2786   */\n      add\n        /* \"#utility.yul\":2735:2800   */\n      tag_180\n      jump\t// in\n    tag_253:\n        /* \"#utility.yul\":2825:2854   */\n      tag_254\n        /* \"#utility.yul\":2847:2853   */\n      dup2\n        /* \"#utility.yul\":2825:2854   */\n      tag_181\n      jump\t// in\n    tag_254:\n        /* \"#utility.yul\":2820:2823   */\n      dup5\n        /* \"#utility.yul\":2816:2855   */\n      add\n        /* \"#utility.yul\":2809:2855   */\n      swap2\n      pop\n        /* \"#utility.yul\":2586:2861   */\n      pop\n        /* \"#utility.yul\":2504:2861   */\n      swap3\n      swap2\n      pop\n      pop\n      jump\t// out\n        /* \"#utility.yul\":2867:2975   */\n    tag_183:\n        /* \"#utility.yul\":2944:2968   */\n      tag_256\n        /* \"#utility.yul\":2962:2967   */\n      dup2\n        /* \"#utility.yul\":2944:2968   */\n      tag_174\n      jump\t// in\n    tag_256:\n        /* \"#utility.yul\":2939:2942   */\n      dup3\n        /* \"#utility.yul\":2932:2969   */\n      mstore\n        /* \"#utility.yul\":2867:2975   */\n      pop\n      pop\n      jump\t// out\n        /* \"#utility.yul\":3043:4169   */\n    tag_184:\n        /* \"#utility.yul\":3154:3157   */\n      0x00\n        /* \"#utility.yul\":3190:3194   */\n      0xa0\n        /* \"#utility.yul\":3185:3188   */\n      dup4\n        /* \"#utility.yul\":3181:3195   */\n      add\n        /* \"#utility.yul\":3279:3283   */\n      0x00\n        /* \"#utility.yul\":3272:3277   */\n      dup4\n        /* \"#utility.yul\":3268:3284   */\n      add\n        /* \"#utility.yul\":3262:3285   */\n      mload\n        /* \"#utility.yul\":3298:3361   */\n      tag_258\n        /* \"#utility.yul\":3355:3359   */\n      0x00\n        /* \"#utility.yul\":3350:3353   */\n      dup7\n        /* \"#utility.yul\":3346:3360   */\n      add\n        /* \"#utility.yul\":3332:3344   */\n      dup3\n        /* \"#utility.yul\":3298:3361   */\n      tag_177\n      jump\t// in\n    tag_258:\n        /* \"#utility.yul\":3205:3371   */\n      pop\n        /* \"#utility.yul\":3453:3457   */\n      0x20\n        /* \"#utility.yul\":3446:3451   */\n      dup4\n        /* \"#utility.yul\":3442:3458   */\n      add\n        /* \"#utility.yul\":3436:3459   */\n      mload\n        /* \"#utility.yul\":3506:3509   */\n      dup5\n        /* \"#utility.yul\":3500:3504   */\n      dup3\n        /* \"#utility.yul\":3496:3510   */\n      sub\n        /* \"#utility.yul\":3489:3493   */\n      0x20\n        /* \"#utility.yul\":3484:3487   */\n      dup7\n        /* \"#utility.yul\":3480:3494   */\n      add\n        /* \"#utility.yul\":3473:3511   */\n      mstore\n        /* \"#utility.yul\":3532:3605   */\n      tag_259\n        /* \"#utility.yul\":3600:3604   */\n      dup3\n        /* \"#utility.yul\":3586:3598   */\n      dup3\n        /* \"#utility.yul\":3532:3605   */\n      tag_182\n      jump\t// in\n    tag_259:\n        /* \"#utility.yul\":3524:3605   */\n      swap2\n      pop\n        /* \"#utility.yul\":3381:3616   */\n      pop\n        /* \"#utility.yul\":3698:3702   */\n      0x40\n        /* \"#utility.yul\":3691:3696   */\n      dup4\n        /* \"#utility.yul\":3687:3703   */\n      add\n        /* \"#utility.yul\":3681:3704   */\n      mload\n        /* \"#utility.yul\":3717:3780   */\n      tag_260\n        /* \"#utility.yul\":3774:3778   */\n      0x40\n        /* \"#utility.yul\":3769:3772   */\n      dup7\n        /* \"#utility.yul\":3765:3779   */\n      add\n        /* \"#utility.yul\":3751:3763   */\n      dup3\n        /* \"#utility.yul\":3717:3780   */\n      tag_183\n      jump\t// in\n    tag_260:\n        /* \"#utility.yul\":3626:3790   */\n      pop\n        /* \"#utility.yul\":3873:3877   */\n      0x60\n        /* \"#utility.yul\":3866:3871   */\n      dup4\n        /* \"#utility.yul\":3862:3878   */\n      add\n        /* \"#utility.yul\":3856:3879   */\n      mload\n        /* \"#utility.yul\":3892:3955   */\n      tag_261\n        /* \"#utility.yul\":3949:3953   */\n      0x60\n        /* \"#utility.yul\":3944:3947   */\n      dup7\n        /* \"#utility.yul\":3940:3954   */\n      add\n        /* \"#utility.yul\":3926:3938   */\n      dup3\n        /* \"#utility.yul\":3892:3955   */\n      tag_177\n      jump\t// in\n    tag_261:\n        /* \"#utility.yul\":3800:3965   */\n      pop\n        /* \"#utility.yul\":4050:4054   */\n      0x80\n        /* \"#utility.yul\":4043:4048   */\n      dup4\n        /* \"#utility.yul\":4039:4055   */\n      add\n        /* \"#utility.yul\":4033:4056   */\n      mload\n        /* \"#utility.yul\":4069:4132   */\n      tag_262\n        /* \"#utility.yul\":4126:4130   */\n      0x80\n        /* \"#utility.yul\":4121:4124   */\n      dup7\n        /* \"#utility.yul\":4117:4131   */\n      add\n        /* \"#utility.yul\":4103:4115   */\n      dup3\n        /* \"#utility.yul\":4069:4132   */\n      tag_177\n      jump\t// in\n    tag_262:\n        /* \"#utility.yul\":3975:4142   */\n      pop\n        /* \"#utility.yul\":4159:4163   */\n      dup1\n        /* \"#utility.yul\":4152:4163   */\n      swap2\n      pop\n        /* \"#utility.yul\":3159:4169   */\n      pop\n        /* \"#utility.yul\":3043:4169   */\n      swap3\n      swap2\n      pop\n      pop\n      jump\t// out\n        /* \"#utility.yul\":4175:4532   */\n    tag_39:\n        /* \"#utility.yul\":4310:4314   */\n      0x00\n        /* \"#utility.yul\":4348:4350   */\n      0x20\n        /* \"#utility.yul\":4337:4346   */\n      dup3\n        /* \"#utility.yul\":4333:4351   */\n      add\n        /* \"#utility.yul\":4325:4351   */\n      swap1\n      pop\n        /* \"#utility.yul\":4397:4406   */\n      dup2\n        /* \"#utility.yul\":4391:4395   */\n      dup2\n        /* \"#utility.yul\":4387:4407   */\n      sub\n        /* \"#utility.yul\":4383:4384   */\n      0x00\n        /* \"#utility.yul\":4372:4381   */\n      dup4\n        /* \"#utility.yul\":4368:4385   */\n      add\n        /* \"#utility.yul\":4361:4408   */\n      mstore\n        /* \"#utility.yul\":4425:4525   */\n      tag_264\n        /* \"#utility.yul\":4520:4524   */\n      dup2\n        /* \"#utility.yul\":4511:4517   */\n      dup5\n        /* \"#utility.yul\":4425:4525   */\n      tag_184\n      jump\t// in\n    tag_264:\n        /* \"#utility.yul\":4417:4525   */\n      swap1\n      pop\n        /* \"#utility.yul\":4175:4532   */\n      swap3\n      swap2\n      pop\n      pop\n      jump\t// out\n        /* \"#utility.yul\":4538:4656   */\n    tag_185:\n        /* \"#utility.yul\":4625:4649   */\n      tag_266\n        /* \"#utility.yul\":4643:4648   */\n      dup2\n        /* \"#utility.yul\":4625:4649   */\n      tag_170\n      jump\t// in\n    tag_266:\n        /* \"#utility.yul\":4620:4623   */\n      dup3\n        /* \"#utility.yul\":4613:4650   */\n      mstore\n        /* \"#utility.yul\":4538:4656   */\n      pop\n      pop\n      jump\t// out\n        /* \"#utility.yul\":4662:4884   */\n    tag_44:\n        /* \"#utility.yul\":4755:4759   */\n      0x00\n        /* \"#utility.yul\":4793:4795   */\n      0x20\n        /* \"#utility.yul\":4782:4791   */\n      dup3\n        /* \"#utility.yul\":4778:4796   */\n      add\n        /* \"#utility.yul\":4770:4796   */\n      swap1\n      pop\n        /* \"#utility.yul\":4806:4877   */\n      tag_268\n        /* \"#utility.yul\":4874:4875   */\n      0x00\n        /* \"#utility.yul\":4863:4872   */\n      dup4\n        /* \"#utility.yul\":4859:4876   */\n      add\n        /* \"#utility.yul\":4850:4856   */\n      dup5\n        /* \"#utility.yul\":4806:4877   */\n      tag_185\n      jump\t// in\n    tag_268:\n        /* \"#utility.yul\":4662:4884   */\n      swap3\n      swap2\n      pop\n      pop\n      jump\t// out\n        /* \"#utility.yul\":4890:5007   */\n    tag_186:\n        /* \"#utility.yul\":4999:5000   */\n      0x00\n        /* \"#utility.yul\":4996:4997   */\n      dup1\n        /* \"#utility.yul\":4989:5001   */\n      revert\n        /* \"#utility.yul\":5013:5130   */\n    tag_187:\n        /* \"#utility.yul\":5122:5123   */\n      0x00\n        /* \"#utility.yul\":5119:5120   */\n      dup1\n        /* \"#utility.yul\":5112:5124   */\n      revert\n        /* \"#utility.yul\":5136:5316   */\n    tag_188:\n        /* \"#utility.yul\":5184:5261   */\n      0x4e487b7100000000000000000000000000000000000000000000000000000000\n        /* \"#utility.yul\":5181:5182   */\n      0x00\n        /* \"#utility.yul\":5174:5262   */\n      mstore\n        /* \"#utility.yul\":5281:5285   */\n      0x41\n        /* \"#utility.yul\":5278:5279   */\n      0x04\n        /* \"#utility.yul\":5271:5286   */\n      mstore\n        /* \"#utility.yul\":5305:5309   */\n      0x24\n        /* \"#utility.yul\":5302:5303   */\n      0x00\n        /* \"#utility.yul\":5295:5310   */\n      revert\n        /* \"#utility.yul\":5322:5603   */\n    tag_189:\n        /* \"#utility.yul\":5405:5432   */\n      tag_273\n        /* \"#utility.yul\":5427:5431   */\n      dup3\n        /* \"#utility.yul\":5405:5432   */\n      tag_181\n      jump\t// in\n    tag_273:\n        /* \"#utility.yul\":5397:5403   */\n      dup2\n        /* \"#utility.yul\":5393:5433   */\n      add\n        /* \"#utility.yul\":5535:5541   */\n      dup2\n        /* \"#utility.yul\":5523:5533   */\n      dup2\n        /* \"#utility.yul\":5520:5542   */\n      lt\n        /* \"#utility.yul\":5499:5517   */\n      0xffffffffffffffff\n        /* \"#utility.yul\":5487:5497   */\n      dup3\n        /* \"#utility.yul\":5484:5518   */\n      gt\n        /* \"#utility.yul\":5481:5543   */\n      or\n        /* \"#utility.yul\":5478:5566   */\n      iszero\n      tag_274\n      jumpi\n        /* \"#utility.yul\":5546:5564   */\n      tag_275\n      tag_188\n      jump\t// in\n    tag_275:\n        /* \"#utility.yul\":5478:5566   */\n    tag_274:\n        /* \"#utility.yul\":5586:5596   */\n      dup1\n        /* \"#utility.yul\":5582:5584   */\n      0x40\n        /* \"#utility.yul\":5575:5597   */\n      mstore\n        /* \"#utility.yul\":5365:5603   */\n      pop\n        /* \"#utility.yul\":5322:5603   */\n      pop\n      pop\n      jump\t// out\n        /* \"#utility.yul\":5609:5738   */\n    tag_190:\n        /* \"#utility.yul\":5643:5649   */\n      0x00\n        /* \"#utility.yul\":5670:5690   */\n      tag_277\n      tag_167\n      jump\t// in\n    tag_277:\n        /* \"#utility.yul\":5660:5690   */\n      swap1\n      pop\n        /* \"#utility.yul\":5699:5732   */\n      tag_278\n        /* \"#utility.yul\":5727:5731   */\n      dup3\n        /* \"#utility.yul\":5719:5725   */\n      dup3\n        /* \"#utility.yul\":5699:5732   */\n      tag_189\n      jump\t// in\n    tag_278:\n        /* \"#utility.yul\":5609:5738   */\n      swap2\n      swap1\n      pop\n      jump\t// out\n        /* \"#utility.yul\":5744:6052   */\n    tag_191:\n        /* \"#utility.yul\":5806:5810   */\n      0x00\n        /* \"#utility.yul\":5896:5914   */\n      0xffffffffffffffff\n        /* \"#utility.yul\":5888:5894   */\n      dup3\n        /* \"#utility.yul\":5885:5915   */\n      gt\n        /* \"#utility.yul\":5882:5938   */\n      iszero\n      tag_280\n      jumpi\n        /* \"#utility.yul\":5918:5936   */\n      tag_281\n      tag_188\n      jump\t// in\n    tag_281:\n        /* \"#utility.yul\":5882:5938   */\n    tag_280:\n        /* \"#utility.yul\":5956:5985   */\n      tag_282\n        /* \"#utility.yul\":5978:5984   */\n      dup3\n        /* \"#utility.yul\":5956:5985   */\n      tag_181\n      jump\t// in\n    tag_282:\n        /* \"#utility.yul\":5948:5985   */\n      swap1\n      pop\n        /* \"#utility.yul\":6040:6044   */\n      0x20\n        /* \"#utility.yul\":6034:6038   */\n      dup2\n        /* \"#utility.yul\":6030:6045   */\n      add\n        /* \"#utility.yul\":6022:6045   */\n      swap1\n      pop\n        /* \"#utility.yul\":5744:6052   */\n      swap2\n      swap1\n      pop\n      jump\t// out\n        /* \"#utility.yul\":6058:6206   */\n    tag_192:\n        /* \"#utility.yul\":6156:6162   */\n      dup3\n        /* \"#utility.yul\":6151:6154   */\n      dup2\n        /* \"#utility.yul\":6146:6149   */\n      dup4\n        /* \"#utility.yul\":6133:6163   */\n      calldatacopy\n        /* \"#utility.yul\":6197:6198   */\n      0x00\n        /* \"#utility.yul\":6188:6194   */\n      dup4\n        /* \"#utility.yul\":6183:6186   */\n      dup4\n        /* \"#utility.yul\":6179:6195   */\n      add\n        /* \"#utility.yul\":6172:6199   */\n      mstore\n        /* \"#utility.yul\":6058:6206   */\n      pop\n      pop\n      pop\n      jump\t// out\n        /* \"#utility.yul\":6212:6637   */\n    tag_193:\n        /* \"#utility.yul\":6290:6295   */\n      0x00\n        /* \"#utility.yul\":6315:6381   */\n      tag_285\n        /* \"#utility.yul\":6331:6380   */\n      tag_286\n        /* \"#utility.yul\":6373:6379   */\n      dup5\n        /* \"#utility.yul\":6331:6380   */\n      tag_191\n      jump\t// in\n    tag_286:\n        /* \"#utility.yul\":6315:6381   */\n      tag_190\n      jump\t// in\n    tag_285:\n        /* \"#utility.yul\":6306:6381   */\n      swap1\n      pop\n        /* \"#utility.yul\":6404:6410   */\n      dup3\n        /* \"#utility.yul\":6397:6402   */\n      dup2\n        /* \"#utility.yul\":6390:6411   */\n      mstore\n        /* \"#utility.yul\":6442:6446   */\n      0x20\n        /* \"#utility.yul\":6435:6440   */\n      dup2\n        /* \"#utility.yul\":6431:6447   */\n      add\n        /* \"#utility.yul\":6480:6483   */\n      dup5\n        /* \"#utility.yul\":6471:6477   */\n      dup5\n        /* \"#utility.yul\":6466:6469   */\n      dup5\n        /* \"#utility.yul\":6462:6478   */\n      add\n        /* \"#utility.yul\":6459:6484   */\n      gt\n        /* \"#utility.yul\":6456:6568   */\n      iszero\n      tag_287\n      jumpi\n        /* \"#utility.yul\":6487:6566   */\n      tag_288\n      tag_187\n      jump\t// in\n    tag_288:\n        /* \"#utility.yul\":6456:6568   */\n    tag_287:\n        /* \"#utility.yul\":6577:6631   */\n      tag_289\n        /* \"#utility.yul\":6624:6630   */\n      dup5\n        /* \"#utility.yul\":6619:6622   */\n      dup3\n        /* \"#utility.yul\":6614:6617   */\n      dup6\n        /* \"#utility.yul\":6577:6631   */\n      tag_192\n      jump\t// in\n    tag_289:\n        /* \"#utility.yul\":6296:6637   */\n      pop\n        /* \"#utility.yul\":6212:6637   */\n      swap4\n      swap3\n      pop\n      pop\n      pop\n      jump\t// out\n        /* \"#utility.yul\":6657:6997   */\n    tag_194:\n        /* \"#utility.yul\":6713:6718   */\n      0x00\n        /* \"#utility.yul\":6762:6765   */\n      dup3\n        /* \"#utility.yul\":6755:6759   */\n      0x1f\n        /* \"#utility.yul\":6747:6753   */\n      dup4\n        /* \"#utility.yul\":6743:6760   */\n      add\n        /* \"#utility.yul\":6739:6766   */\n      slt\n        /* \"#utility.yul\":6729:6851   */\n      tag_291\n      jumpi\n        /* \"#utility.yul\":6770:6849   */\n      tag_292\n      tag_186\n      jump\t// in\n    tag_292:\n        /* \"#utility.yul\":6729:6851   */\n    tag_291:\n        /* \"#utility.yul\":6887:6893   */\n      dup2\n        /* \"#utility.yul\":6874:6894   */\n      calldataload\n        /* \"#utility.yul\":6912:6991   */\n      tag_293\n        /* \"#utility.yul\":6987:6990   */\n      dup5\n        /* \"#utility.yul\":6979:6985   */\n      dup3\n        /* \"#utility.yul\":6972:6976   */\n      0x20\n        /* \"#utility.yul\":6964:6970   */\n      dup7\n        /* \"#utility.yul\":6960:6977   */\n      add\n        /* \"#utility.yul\":6912:6991   */\n      tag_193\n      jump\t// in\n    tag_293:\n        /* \"#utility.yul\":6903:6991   */\n      swap2\n      pop\n        /* \"#utility.yul\":6719:6997   */\n      pop\n        /* \"#utility.yul\":6657:6997   */\n      swap3\n      swap2\n      pop\n      pop\n      jump\t// out\n        /* \"#utility.yul\":7003:7512   */\n    tag_57:\n        /* \"#utility.yul\":7072:7078   */\n      0x00\n        /* \"#utility.yul\":7121:7123   */\n      0x20\n        /* \"#utility.yul\":7109:7118   */\n      dup3\n        /* \"#utility.yul\":7100:7107   */\n      dup5\n        /* \"#utility.yul\":7096:7119   */\n      sub\n        /* \"#utility.yul\":7092:7124   */\n      slt\n        /* \"#utility.yul\":7089:7208   */\n      iszero\n      tag_295\n      jumpi\n        /* \"#utility.yul\":7127:7206   */\n      tag_296\n      tag_168\n      jump\t// in\n    tag_296:\n        /* \"#utility.yul\":7089:7208   */\n    tag_295:\n        /* \"#utility.yul\":7275:7276   */\n      0x00\n        /* \"#utility.yul\":7264:7273   */\n      dup3\n        /* \"#utility.yul\":7260:7277   */\n      add\n        /* \"#utility.yul\":7247:7278   */\n      calldataload\n        /* \"#utility.yul\":7305:7323   */\n      0xffffffffffffffff\n        /* \"#utility.yul\":7297:7303   */\n      dup2\n        /* \"#utility.yul\":7294:7324   */\n      gt\n        /* \"#utility.yul\":7291:7408   */\n      iszero\n      tag_297\n      jumpi\n        /* \"#utility.yul\":7327:7406   */\n      tag_298\n      tag_169\n      jump\t// in\n    tag_298:\n        /* \"#utility.yul\":7291:7408   */\n    tag_297:\n        /* \"#utility.yul\":7432:7495   */\n      tag_299\n        /* \"#utility.yul\":7487:7494   */\n      dup5\n        /* \"#utility.yul\":7478:7484   */\n      dup3\n        /* \"#utility.yul\":7467:7476   */\n      dup6\n        /* \"#utility.yul\":7463:7485   */\n      add\n        /* \"#utility.yul\":7432:7495   */\n      tag_194\n      jump\t// in\n    tag_299:\n        /* \"#utility.yul\":7422:7495   */\n      swap2\n      pop\n        /* \"#utility.yul\":7218:7505   */\n      pop\n        /* \"#utility.yul\":7003:7512   */\n      swap3\n      swap2\n      pop\n      pop\n      jump\t// out\n        /* \"#utility.yul\":7518:7687   */\n    tag_195:\n        /* \"#utility.yul\":7602:7613   */\n      0x00\n        /* \"#utility.yul\":7636:7642   */\n      dup3\n        /* \"#utility.yul\":7631:7634   */\n      dup3\n        /* \"#utility.yul\":7624:7643   */\n      mstore\n        /* \"#utility.yul\":7676:7680   */\n      0x20\n        /* \"#utility.yul\":7671:7674   */\n      dup3\n        /* \"#utility.yul\":7667:7681   */\n      add\n        /* \"#utility.yul\":7652:7681   */\n      swap1\n      pop\n        /* \"#utility.yul\":7518:7687   */\n      swap3\n      swap2\n      pop\n      pop\n      jump\t// out\n        /* \"#utility.yul\":7693:7847   */\n    tag_196:\n        /* \"#utility.yul\":7833:7839   */\n      0x6e6f706500000000000000000000000000000000000000000000000000000000\n        /* \"#utility.yul\":7829:7830   */\n      0x00\n        /* \"#utility.yul\":7821:7827   */\n      dup3\n        /* \"#utility.yul\":7817:7831   */\n      add\n        /* \"#utility.yul\":7810:7840   */\n      mstore\n        /* \"#utility.yul\":7693:7847   */\n      pop\n      jump\t// out\n        /* \"#utility.yul\":7853:8218   */\n    tag_197:\n        /* \"#utility.yul\":7995:7998   */\n      0x00\n        /* \"#utility.yul\":8016:8082   */\n      tag_303\n        /* \"#utility.yul\":8080:8081   */\n      0x04\n        /* \"#utility.yul\":8075:8078   */\n      dup4\n        /* \"#utility.yul\":8016:8082   */\n      tag_195\n      jump\t// in\n    tag_303:\n        /* \"#utility.yul\":8009:8082   */\n      swap2\n      pop\n        /* \"#utility.yul\":8091:8184   */\n      tag_304\n        /* \"#utility.yul\":8180:8183   */\n      dup3\n        /* \"#utility.yul\":8091:8184   */\n      tag_196\n      jump\t// in\n    tag_304:\n        /* \"#utility.yul\":8209:8211   */\n      0x20\n        /* \"#utility.yul\":8204:8207   */\n      dup3\n        /* \"#utility.yul\":8200:8212   */\n      add\n        /* \"#utility.yul\":8193:8212   */\n      swap1\n      pop\n        /* \"#utility.yul\":7853:8218   */\n      swap2\n      swap1\n      pop\n      jump\t// out\n        /* \"#utility.yul\":8224:8643   */\n    tag_64:\n        /* \"#utility.yul\":8390:8394   */\n      0x00\n        /* \"#utility.yul\":8428:8430   */\n      0x20\n        /* \"#utility.yul\":8417:8426   */\n      dup3\n        /* \"#utility.yul\":8413:8431   */\n      add\n        /* \"#utility.yul\":8405:8431   */\n      swap1\n      pop\n        /* \"#utility.yul\":8477:8486   */\n      dup2\n        /* \"#utility.yul\":8471:8475   */\n      dup2\n        /* \"#utility.yul\":8467:8487   */\n      sub\n        /* \"#utility.yul\":8463:8464   */\n      0x00\n        /* \"#utility.yul\":8452:8461   */\n      dup4\n        /* \"#utility.yul\":8448:8465   */\n      add\n        /* \"#utility.yul\":8441:8488   */\n      mstore\n        /* \"#utility.yul\":8505:8636   */\n      tag_306\n        /* \"#utility.yul\":8631:8635   */\n      dup2\n        /* \"#utility.yul\":8505:8636   */\n      tag_197\n      jump\t// in\n    tag_306:\n        /* \"#utility.yul\":8497:8636   */\n      swap1\n      pop\n        /* \"#utility.yul\":8224:8643   */\n      swap2\n      swap1\n      pop\n      jump\t// out\n        /* \"#utility.yul\":8649:8829   */\n    tag_198:\n        /* \"#utility.yul\":8697:8774   */\n      0x4e487b7100000000000000000000000000000000000000000000000000000000\n        /* \"#utility.yul\":8694:8695   */\n      0x00\n        /* \"#utility.yul\":8687:8775   */\n      mstore\n        /* \"#utility.yul\":8794:8798   */\n      0x11\n        /* \"#utility.yul\":8791:8792   */\n      0x04\n        /* \"#utility.yul\":8784:8799   */\n      mstore\n        /* \"#utility.yul\":8818:8822   */\n      0x24\n        /* \"#utility.yul\":8815:8816   */\n      0x00\n        /* \"#utility.yul\":8808:8823   */\n      revert\n        /* \"#utility.yul\":8835:9029   */\n    tag_66:\n        /* \"#utility.yul\":8875:8879   */\n      0x00\n        /* \"#utility.yul\":8895:8915   */\n      tag_309\n        /* \"#utility.yul\":8913:8914   */\n      dup3\n        /* \"#utility.yul\":8895:8915   */\n      tag_170\n      jump\t// in\n    tag_309:\n        /* \"#utility.yul\":8890:8915   */\n      swap2\n      pop\n        /* \"#utility.yul\":8929:8949   */\n      tag_310\n        /* \"#utility.yul\":8947:8948   */\n      dup4\n        /* \"#utility.yul\":8929:8949   */\n      tag_170\n      jump\t// in\n    tag_310:\n        /* \"#utility.yul\":8924:8949   */\n      swap3\n      pop\n        /* \"#utility.yul\":8973:8974   */\n      dup3\n        /* \"#utility.yul\":8970:8971   */\n      dup3\n        /* \"#utility.yul\":8966:8975   */\n      sub\n        /* \"#utility.yul\":8958:8975   */\n      swap1\n      pop\n        /* \"#utility.yul\":8997:8998   */\n      dup2\n        /* \"#utility.yul\":8991:8995   */\n      dup2\n        /* \"#utility.yul\":8988:8999   */\n      gt\n        /* \"#utility.yul\":8985:9022   */\n      iszero\n      tag_311\n      jumpi\n        /* \"#utility.yul\":9002:9020   */\n      tag_312\n      tag_198\n      jump\t// in\n    tag_312:\n        /* \"#utility.yul\":8985:9022   */\n    tag_311:\n        /* \"#utility.yul\":8835:9029   */\n      swap3\n      swap2\n      pop\n      pop\n      jump\t// out\n        /* \"#utility.yul\":9035:9215   */\n    tag_199:\n        /* \"#utility.yul\":9083:9160   */\n      0x4e487b7100000000000000000000000000000000000000000000000000000000\n        /* \"#utility.yul\":9080:9081   */\n      0x00\n        /* \"#utility.yul\":9073:9161   */\n      mstore\n        /* \"#utility.yul\":9180:9184   */\n      0x12\n        /* \"#utility.yul\":9177:9178   */\n      0x04\n        /* \"#utility.yul\":9170:9185   */\n      mstore\n        /* \"#utility.yul\":9204:9208   */\n      0x24\n        /* \"#utility.yul\":9201:9202   */\n      0x00\n        /* \"#utility.yul\":9194:9209   */\n      revert\n        /* \"#utility.yul\":9221:9406   */\n    tag_74:\n        /* \"#utility.yul\":9261:9262   */\n      0x00\n        /* \"#utility.yul\":9278:9298   */\n      tag_315\n        /* \"#utility.yul\":9296:9297   */\n      dup3\n        /* \"#utility.yul\":9278:9298   */\n      tag_170\n      jump\t// in\n    tag_315:\n        /* \"#utility.yul\":9273:9298   */\n      swap2\n      pop\n        /* \"#utility.yul\":9312:9332   */\n      tag_316\n        /* \"#utility.yul\":9330:9331   */\n      dup4\n        /* \"#utility.yul\":9312:9332   */\n      tag_170\n      jump\t// in\n    tag_316:\n        /* \"#utility.yul\":9307:9332   */\n      swap3\n      pop\n        /* \"#utility.yul\":9351:9352   */\n      dup3\n        /* \"#utility.yul\":9341:9376   */\n      tag_317\n      jumpi\n        /* \"#utility.yul\":9356:9374   */\n      tag_318\n      tag_199\n      jump\t// in\n    tag_318:\n        /* \"#utility.yul\":9341:9376   */\n    tag_317:\n        /* \"#utility.yul\":9398:9399   */\n      dup3\n        /* \"#utility.yul\":9395:9396   */\n      dup3\n        /* \"#utility.yul\":9391:9400   */\n      div\n        /* \"#utility.yul\":9386:9400   */\n      swap1\n      pop\n        /* \"#utility.yul\":9221:9406   */\n      swap3\n      swap2\n      pop\n      pop\n      jump\t// out\n        /* \"#utility.yul\":9412:9822   */\n    tag_76:\n        /* \"#utility.yul\":9452:9459   */\n      0x00\n        /* \"#utility.yul\":9475:9495   */\n      tag_320\n        /* \"#utility.yul\":9493:9494   */\n      dup3\n        /* \"#utility.yul\":9475:9495   */\n      tag_170\n      jump\t// in\n    tag_320:\n        /* \"#utility.yul\":9470:9495   */\n      swap2\n      pop\n        /* \"#utility.yul\":9509:9529   */\n      tag_321\n        /* \"#utility.yul\":9527:9528   */\n      dup4\n        /* \"#utility.yul\":9509:9529   */\n      tag_170\n      jump\t// in\n    tag_321:\n        /* \"#utility.yul\":9504:9529   */\n      swap3\n      pop\n        /* \"#utility.yul\":9564:9565   */\n      dup3\n        /* \"#utility.yul\":9561:9562   */\n      dup3\n        /* \"#utility.yul\":9557:9566   */\n      mul\n        /* \"#utility.yul\":9586:9616   */\n      tag_322\n        /* \"#utility.yul\":9604:9615   */\n      dup2\n        /* \"#utility.yul\":9586:9616   */\n      tag_170\n      jump\t// in\n    tag_322:\n        /* \"#utility.yul\":9575:9616   */\n      swap2\n      pop\n        /* \"#utility.yul\":9765:9766   */\n      dup3\n        /* \"#utility.yul\":9756:9763   */\n      dup3\n        /* \"#utility.yul\":9752:9767   */\n      div\n        /* \"#utility.yul\":9749:9750   */\n      dup5\n        /* \"#utility.yul\":9746:9768   */\n      eq\n        /* \"#utility.yul\":9726:9727   */\n      dup4\n        /* \"#utility.yul\":9719:9728   */\n      iszero\n        /* \"#utility.yul\":9699:9782   */\n      or\n        /* \"#utility.yul\":9676:9815   */\n      tag_323\n      jumpi\n        /* \"#utility.yul\":9795:9813   */\n      tag_324\n      tag_198\n      jump\t// in\n    tag_324:\n        /* \"#utility.yul\":9676:9815   */\n    tag_323:\n        /* \"#utility.yul\":9460:9822   */\n      pop\n        /* \"#utility.yul\":9412:9822   */\n      swap3\n      swap2\n      pop\n      pop\n      jump\t// out\n        /* \"#utility.yul\":9828:10004   */\n    tag_84:\n        /* \"#utility.yul\":9860:9861   */\n      0x00\n        /* \"#utility.yul\":9877:9897   */\n      tag_326\n        /* \"#utility.yul\":9895:9896   */\n      dup3\n        /* \"#utility.yul\":9877:9897   */\n      tag_170\n      jump\t// in\n    tag_326:\n        /* \"#utility.yul\":9872:9897   */\n      swap2\n      pop\n        /* \"#utility.yul\":9911:9931   */\n      tag_327\n        /* \"#utility.yul\":9929:9930   */\n      dup4\n        /* \"#utility.yul\":9911:9931   */\n      tag_170\n      jump\t// in\n    tag_327:\n        /* \"#utility.yul\":9906:9931   */\n      swap3\n      pop\n        /* \"#utility.yul\":9950:9951   */\n      dup3\n        /* \"#utility.yul\":9940:9975   */\n      tag_328\n      jumpi\n        /* \"#utility.yul\":9955:9973   */\n      tag_329\n      tag_199\n      jump\t// in\n    tag_329:\n        /* \"#utility.yul\":9940:9975   */\n    tag_328:\n        /* \"#utility.yul\":9996:9997   */\n      dup3\n        /* \"#utility.yul\":9993:9994   */\n      dup3\n        /* \"#utility.yul\":9989:9998   */\n      mod\n        /* \"#utility.yul\":9984:9998   */\n      swap1\n      pop\n        /* \"#utility.yul\":9828:10004   */\n      swap3\n      swap2\n      pop\n      pop\n      jump\t// out\n        /* \"#utility.yul\":10010:10190   */\n    tag_200:\n        /* \"#utility.yul\":10058:10135   */\n      0x4e487b7100000000000000000000000000000000000000000000000000000000\n        /* \"#utility.yul\":10055:10056   */\n      0x00\n        /* \"#utility.yul\":10048:10136   */\n      mstore\n        /* \"#utility.yul\":10155:10159   */\n      0x22\n        /* \"#utility.yul\":10152:10153   */\n      0x04\n        /* \"#utility.yul\":10145:10160   */\n      mstore\n        /* \"#utility.yul\":10179:10183   */\n      0x24\n        /* \"#utility.yul\":10176:10177   */\n      0x00\n        /* \"#utility.yul\":10169:10184   */\n      revert\n        /* \"#utility.yul\":10196:10516   */\n    tag_111:\n        /* \"#utility.yul\":10240:10246   */\n      0x00\n        /* \"#utility.yul\":10277:10278   */\n      0x02\n        /* \"#utility.yul\":10271:10275   */\n      dup3\n        /* \"#utility.yul\":10267:10279   */\n      div\n        /* \"#utility.yul\":10257:10279   */\n      swap1\n      pop\n        /* \"#utility.yul\":10324:10325   */\n      0x01\n        /* \"#utility.yul\":10318:10322   */\n      dup3\n        /* \"#utility.yul\":10314:10326   */\n      and\n        /* \"#utility.yul\":10345:10363   */\n      dup1\n        /* \"#utility.yul\":10335:10416   */\n      tag_332\n      jumpi\n        /* \"#utility.yul\":10401:10405   */\n      0x7f\n        /* \"#utility.yul\":10393:10399   */\n      dup3\n        /* \"#utility.yul\":10389:10406   */\n      and\n        /* \"#utility.yul\":10379:10406   */\n      swap2\n      pop\n        /* \"#utility.yul\":10335:10416   */\n    tag_332:\n        /* \"#utility.yul\":10463:10465   */\n      0x20\n        /* \"#utility.yul\":10455:10461   */\n      dup3\n        /* \"#utility.yul\":10452:10466   */\n      lt\n        /* \"#utility.yul\":10432:10450   */\n      dup2\n        /* \"#utility.yul\":10429:10467   */\n      sub\n        /* \"#utility.yul\":10426:10510   */\n      tag_333\n      jumpi\n        /* \"#utility.yul\":10482:10500   */\n      tag_334\n      tag_200\n      jump\t// in\n    tag_334:\n        /* \"#utility.yul\":10426:10510   */\n    tag_333:\n        /* \"#utility.yul\":10247:10516   */\n      pop\n        /* \"#utility.yul\":10196:10516   */\n      swap2\n      swap1\n      pop\n      jump\t// out\n        /* \"#utility.yul\":10522:10702   */\n    tag_123:\n        /* \"#utility.yul\":10570:10647   */\n      0x4e487b7100000000000000000000000000000000000000000000000000000000\n        /* \"#utility.yul\":10567:10568   */\n      0x00\n        /* \"#utility.yul\":10560:10648   */\n      mstore\n        /* \"#utility.yul\":10667:10671   */\n      0x32\n        /* \"#utility.yul\":10664:10665   */\n      0x04\n        /* \"#utility.yul\":10657:10672   */\n      mstore\n        /* \"#utility.yul\":10691:10695   */\n      0x24\n        /* \"#utility.yul\":10688:10689   */\n      0x00\n        /* \"#utility.yul\":10681:10696   */\n      revert\n        /* \"#utility.yul\":10708:10899   */\n    tag_126:\n        /* \"#utility.yul\":10748:10751   */\n      0x00\n        /* \"#utility.yul\":10767:10787   */\n      tag_337\n        /* \"#utility.yul\":10785:10786   */\n      dup3\n        /* \"#utility.yul\":10767:10787   */\n      tag_170\n      jump\t// in\n    tag_337:\n        /* \"#utility.yul\":10762:10787   */\n      swap2\n      pop\n        /* \"#utility.yul\":10801:10821   */\n      tag_338\n        /* \"#utility.yul\":10819:10820   */\n      dup4\n        /* \"#utility.yul\":10801:10821   */\n      tag_170\n      jump\t// in\n    tag_338:\n        /* \"#utility.yul\":10796:10821   */\n      swap3\n      pop\n        /* \"#utility.yul\":10844:10845   */\n      dup3\n        /* \"#utility.yul\":10841:10842   */\n      dup3\n        /* \"#utility.yul\":10837:10846   */\n      add\n        /* \"#utility.yul\":10830:10846   */\n      swap1\n      pop\n        /* \"#utility.yul\":10865:10868   */\n      dup1\n        /* \"#utility.yul\":10862:10863   */\n      dup3\n        /* \"#utility.yul\":10859:10869   */\n      gt\n        /* \"#utility.yul\":10856:10892   */\n      iszero\n      tag_339\n      jumpi\n        /* \"#utility.yul\":10872:10890   */\n      tag_340\n      tag_198\n      jump\t// in\n    tag_340:\n        /* \"#utility.yul\":10856:10892   */\n    tag_339:\n        /* \"#utility.yul\":10708:10899   */\n      swap3\n      swap2\n      pop\n      pop\n      jump\t// out\n        /* \"#utility.yul\":10905:11059   */\n    tag_201:\n        /* \"#utility.yul\":11045:11051   */\n      0x4e6f706500000000000000000000000000000000000000000000000000000000\n        /* \"#utility.yul\":11041:11042   */\n      0x00\n        /* \"#utility.yul\":11033:11039   */\n      dup3\n        /* \"#utility.yul\":11029:11043   */\n      add\n        /* \"#utility.yul\":11022:11052   */\n      mstore\n        /* \"#utility.yul\":10905:11059   */\n      pop\n      jump\t// out\n        /* \"#utility.yul\":11065:11430   */\n    tag_202:\n        /* \"#utility.yul\":11207:11210   */\n      0x00\n        /* \"#utility.yul\":11228:11294   */\n      tag_343\n        /* \"#utility.yul\":11292:11293   */\n      0x04\n        /* \"#utility.yul\":11287:11290   */\n      dup4\n        /* \"#utility.yul\":11228:11294   */\n      tag_195\n      jump\t// in\n    tag_343:\n        /* \"#utility.yul\":11221:11294   */\n      swap2\n      pop\n        /* \"#utility.yul\":11303:11396   */\n      tag_344\n        /* \"#utility.yul\":11392:11395   */\n      dup3\n        /* \"#utility.yul\":11303:11396   */\n      tag_201\n      jump\t// in\n    tag_344:\n        /* \"#utility.yul\":11421:11423   */\n      0x20\n        /* \"#utility.yul\":11416:11419   */\n      dup3\n        /* \"#utility.yul\":11412:11424   */\n      add\n        /* \"#utility.yul\":11405:11424   */\n      swap1\n      pop\n        /* \"#utility.yul\":11065:11430   */\n      swap2\n      swap1\n      pop\n      jump\t// out\n        /* \"#utility.yul\":11436:11855   */\n    tag_133:\n        /* \"#utility.yul\":11602:11606   */\n      0x00\n        /* \"#utility.yul\":11640:11642   */\n      0x20\n        /* \"#utility.yul\":11629:11638   */\n      dup3\n        /* \"#utility.yul\":11625:11643   */\n      add\n        /* \"#utility.yul\":11617:11643   */\n      swap1\n      pop\n        /* \"#utility.yul\":11689:11698   */\n      dup2\n        /* \"#utility.yul\":11683:11687   */\n      dup2\n        /* \"#utility.yul\":11679:11699   */\n      sub\n        /* \"#utility.yul\":11675:11676   */\n      0x00\n        /* \"#utility.yul\":11664:11673   */\n      dup4\n        /* \"#utility.yul\":11660:11677   */\n      add\n        /* \"#utility.yul\":11653:11700   */\n      mstore\n        /* \"#utility.yul\":11717:11848   */\n      tag_346\n        /* \"#utility.yul\":11843:11847   */\n      dup2\n        /* \"#utility.yul\":11717:11848   */\n      tag_202\n      jump\t// in\n    tag_346:\n        /* \"#utility.yul\":11709:11848   */\n      swap1\n      pop\n        /* \"#utility.yul\":11436:11855   */\n      swap2\n      swap1\n      pop\n      jump\t// out\n        /* \"#utility.yul\":11861:12094   */\n    tag_162:\n        /* \"#utility.yul\":11900:11903   */\n      0x00\n        /* \"#utility.yul\":11923:11947   */\n      tag_348\n        /* \"#utility.yul\":11941:11946   */\n      dup3\n        /* \"#utility.yul\":11923:11947   */\n      tag_170\n      jump\t// in\n    tag_348:\n        /* \"#utility.yul\":11914:11947   */\n      swap2\n      pop\n        /* \"#utility.yul\":11969:12035   */\n      0xffffffffffffffffffffffffffffffffffffffffffffffffffffffffffffffff\n        /* \"#utility.yul\":11962:11967   */\n      dup3\n        /* \"#utility.yul\":11959:12036   */\n      sub\n        /* \"#utility.yul\":11956:12059   */\n      tag_349\n      jumpi\n        /* \"#utility.yul\":12039:12057   */\n      tag_350\n      tag_198\n      jump\t// in\n    tag_350:\n        /* \"#utility.yul\":11956:12059   */\n    tag_349:\n        /* \"#utility.yul\":12086:12087   */\n      0x01\n        /* \"#utility.yul\":12079:12084   */\n      dup3\n        /* \"#utility.yul\":12075:12088   */\n      add\n        /* \"#utility.yul\":12068:12088   */\n      swap1\n      pop\n        /* \"#utility.yul\":11861:12094   */\n      swap2\n      swap1\n      pop\n      jump\t// out\n        /* \"#utility.yul\":12100:12241   */\n    tag_203:\n        /* \"#utility.yul\":12149:12153   */\n      0x00\n        /* \"#utility.yul\":12172:12175   */\n      dup2\n        /* \"#utility.yul\":12164:12175   */\n      swap1\n      pop\n        /* \"#utility.yul\":12195:12198   */\n      dup2\n        /* \"#utility.yul\":12192:12193   */\n      0x00\n        /* \"#utility.yul\":12185:12199   */\n      mstore\n        /* \"#utility.yul\":12229:12233   */\n      0x20\n        /* \"#utility.yul\":12226:12227   */\n      0x00\n        /* \"#utility.yul\":12216:12234   */\n      keccak256\n        /* \"#utility.yul\":12208:12234   */\n      swap1\n      pop\n        /* \"#utility.yul\":12100:12241   */\n      swap2\n      swap1\n      pop\n      jump\t// out\n        /* \"#utility.yul\":12247:12340   */\n    tag_204:\n        /* \"#utility.yul\":12284:12290   */\n      0x00\n        /* \"#utility.yul\":12331:12333   */\n      0x20\n        /* \"#utility.yul\":12326:12328   */\n      0x1f\n        /* \"#utility.yul\":12319:12324   */\n      dup4\n        /* \"#utility.yul\":12315:12329   */\n      add\n        /* \"#utility.yul\":12311:12334   */\n      div\n        /* \"#utility.yul\":12301:12334   */\n      swap1\n      pop\n        /* \"#utility.yul\":12247:12340   */\n      swap2\n      swap1\n      pop\n      jump\t// out\n        /* \"#utility.yul\":12346:12453   */\n    tag_205:\n        /* \"#utility.yul\":12390:12398   */\n      0x00\n        /* \"#utility.yul\":12440:12445   */\n      dup3\n        /* \"#utility.yul\":12434:12438   */\n      dup3\n        /* \"#utility.yul\":12430:12446   */\n      shl\n        /* \"#utility.yul\":12409:12446   */\n      swap1\n      pop\n        /* \"#utility.yul\":12346:12453   */\n      swap3\n      swap2\n      pop\n      pop\n      jump\t// out\n        /* \"#utility.yul\":12459:12852   */\n    tag_206:\n        /* \"#utility.yul\":12528:12534   */\n      0x00\n        /* \"#utility.yul\":12578:12579   */\n      0x08\n        /* \"#utility.yul\":12566:12576   */\n      dup4\n        /* \"#utility.yul\":12562:12580   */\n      mul\n        /* \"#utility.yul\":12601:12698   */\n      tag_355\n        /* \"#utility.yul\":12631:12697   */\n      0xffffffffffffffffffffffffffffffffffffffffffffffffffffffffffffffff\n        /* \"#utility.yul\":12620:12629   */\n      dup3\n        /* \"#utility.yul\":12601:12698   */\n      tag_205\n      jump\t// in\n    tag_355:\n        /* \"#utility.yul\":12719:12758   */\n      tag_356\n        /* \"#utility.yul\":12749:12757   */\n      dup7\n        /* \"#utility.yul\":12738:12747   */\n      dup4\n        /* \"#utility.yul\":12719:12758   */\n      tag_205\n      jump\t// in\n    tag_356:\n        /* \"#utility.yul\":12707:12758   */\n      swap6\n      pop\n        /* \"#utility.yul\":12791:12795   */\n      dup1\n        /* \"#utility.yul\":12787:12796   */\n      not\n        /* \"#utility.yul\":12780:12785   */\n      dup5\n        /* \"#utility.yul\":12776:12797   */\n      and\n        /* \"#utility.yul\":12767:12797   */\n      swap4\n      pop\n        /* \"#utility.yul\":12840:12844   */\n      dup1\n        /* \"#utility.yul\":12830:12838   */\n      dup7\n        /* \"#utility.yul\":12826:12845   */\n      and\n        /* \"#utility.yul\":12819:12824   */\n      dup5\n        /* \"#utility.yul\":12816:12846   */\n      or\n        /* \"#utility.yul\":12806:12846   */\n      swap3\n      pop\n        /* \"#utility.yul\":12535:12852   */\n      pop\n      pop\n        /* \"#utility.yul\":12459:12852   */\n      swap4\n      swap3\n      pop\n      pop\n      pop\n      jump\t// out\n        /* \"#utility.yul\":12858:12918   */\n    tag_207:\n        /* \"#utility.yul\":12886:12889   */\n      0x00\n        /* \"#utility.yul\":12907:12912   */\n      dup2\n        /* \"#utility.yul\":12900:12912   */\n      swap1\n      pop\n        /* \"#utility.yul\":12858:12918   */\n      swap2\n      swap1\n      pop\n      jump\t// out\n        /* \"#utility.yul\":12924:13066   */\n    tag_208:\n        /* \"#utility.yul\":12974:12983   */\n      0x00\n        /* \"#utility.yul\":13007:13060   */\n      tag_359\n        /* \"#utility.yul\":13025:13059   */\n      tag_360\n        /* \"#utility.yul\":13034:13058   */\n      tag_361\n        /* \"#utility.yul\":13052:13057   */\n      dup5\n        /* \"#utility.yul\":13034:13058   */\n      tag_170\n      jump\t// in\n    tag_361:\n        /* \"#utility.yul\":13025:13059   */\n      tag_207\n      jump\t// in\n    tag_360:\n        /* \"#utility.yul\":13007:13060   */\n      tag_170\n      jump\t// in\n    tag_359:\n        /* \"#utility.yul\":12994:13060   */\n      swap1\n      pop\n        /* \"#utility.yul\":12924:13066   */\n      swap2\n      swap1\n      pop\n      jump\t// out\n        /* \"#utility.yul\":13072:13147   */\n    tag_209:\n        /* \"#utility.yul\":13115:13118   */\n      0x00\n        /* \"#utility.yul\":13136:13141   */\n      dup2\n        /* \"#utility.yul\":13129:13141   */\n      swap1\n      pop\n        /* \"#utility.yul\":13072:13147   */\n      swap2\n      swap1\n      pop\n      jump\t// out\n        /* \"#utility.yul\":13153:13422   */\n    tag_210:\n        /* \"#utility.yul\":13263:13302   */\n      tag_364\n        /* \"#utility.yul\":13294:13301   */\n      dup4\n        /* \"#utility.yul\":13263:13302   */\n      tag_208\n      jump\t// in\n    tag_364:\n        /* \"#utility.yul\":13324:13415   */\n      tag_365\n        /* \"#utility.yul\":13373:13414   */\n      tag_366\n        /* \"#utility.yul\":13397:13413   */\n      dup3\n        /* \"#utility.yul\":13373:13414   */\n      tag_209\n      jump\t// in\n    tag_366:\n        /* \"#utility.yul\":13365:13371   */\n      dup5\n        /* \"#utility.yul\":13358:13362   */\n      dup5\n        /* \"#utility.yul\":13352:13363   */\n      sload\n        /* \"#utility.yul\":13324:13415   */\n      tag_206\n      jump\t// in\n    tag_365:\n        /* \"#utility.yul\":13318:13322   */\n      dup3\n        /* \"#utility.yul\":13311:13416   */\n      sstore\n        /* \"#utility.yul\":13229:13422   */\n      pop\n        /* \"#utility.yul\":13153:13422   */\n      pop\n      pop\n      pop\n      jump\t// out\n        /* \"#utility.yul\":13428:13501   */\n    tag_211:\n        /* \"#utility.yul\":13473:13476   */\n      0x00\n        /* \"#utility.yul\":13428:13501   */\n      swap1\n      jump\t// out\n        /* \"#utility.yul\":13507:13696   */\n    tag_212:\n        /* \"#utility.yul\":13584:13616   */\n      tag_369\n      tag_211\n      jump\t// in\n    tag_369:\n        /* \"#utility.yul\":13625:13690   */\n      tag_370\n        /* \"#utility.yul\":13683:13689   */\n      dup2\n        /* \"#utility.yul\":13675:13681   */\n      dup5\n        /* \"#utility.yul\":13669:13673   */\n      dup5\n        /* \"#utility.yul\":13625:13690   */\n      tag_210\n      jump\t// in\n    tag_370:\n        /* \"#utility.yul\":13560:13696   */\n      pop\n        /* \"#utility.yul\":13507:13696   */\n      pop\n      pop\n      jump\t// out\n        /* \"#utility.yul\":13702:13888   */\n    tag_213:\n        /* \"#utility.yul\":13762:13882   */\n    tag_372:\n        /* \"#utility.yul\":13779:13782   */\n      dup2\n        /* \"#utility.yul\":13772:13777   */\n      dup2\n        /* \"#utility.yul\":13769:13783   */\n      lt\n        /* \"#utility.yul\":13762:13882   */\n      iszero\n      tag_374\n      jumpi\n        /* \"#utility.yul\":13833:13872   */\n      tag_375\n        /* \"#utility.yul\":13870:13871   */\n      0x00\n        /* \"#utility.yul\":13863:13868   */\n      dup3\n        /* \"#utility.yul\":13833:13872   */\n      tag_212\n      jump\t// in\n    tag_375:\n        /* \"#utility.yul\":13806:13807   */\n      0x01\n        /* \"#utility.yul\":13799:13804   */\n      dup2\n        /* \"#utility.yul\":13795:13808   */\n      add\n        /* \"#utility.yul\":13786:13808   */\n      swap1\n      pop\n        /* \"#utility.yul\":13762:13882   */\n      jump(tag_372)\n    tag_374:\n        /* \"#utility.yul\":13702:13888   */\n      pop\n      pop\n      jump\t// out\n        /* \"#utility.yul\":13894:14437   */\n    tag_214:\n        /* \"#utility.yul\":13995:13997   */\n      0x1f\n        /* \"#utility.yul\":13990:13993   */\n      dup3\n        /* \"#utility.yul\":13987:13998   */\n      gt\n        /* \"#utility.yul\":13984:14430   */\n      iszero\n      tag_377\n      jumpi\n        /* \"#utility.yul\":14029:14067   */\n      tag_378\n        /* \"#utility.yul\":14061:14066   */\n      dup2\n        /* \"#utility.yul\":14029:14067   */\n      tag_203\n      jump\t// in\n    tag_378:\n        /* \"#utility.yul\":14113:14142   */\n      tag_379\n        /* \"#utility.yul\":14131:14141   */\n      dup5\n        /* \"#utility.yul\":14113:14142   */\n      tag_204\n      jump\t// in\n    tag_379:\n        /* \"#utility.yul\":14103:14111   */\n      dup2\n        /* \"#utility.yul\":14099:14143   */\n      add\n        /* \"#utility.yul\":14296:14298   */\n      0x20\n        /* \"#utility.yul\":14284:14294   */\n      dup6\n        /* \"#utility.yul\":14281:14299   */\n      lt\n        /* \"#utility.yul\":14278:14327   */\n      iszero\n      tag_380\n      jumpi\n        /* \"#utility.yul\":14317:14325   */\n      dup2\n        /* \"#utility.yul\":14302:14325   */\n      swap1\n      pop\n        /* \"#utility.yul\":14278:14327   */\n    tag_380:\n        /* \"#utility.yul\":14340:14420   */\n      tag_381\n        /* \"#utility.yul\":14396:14418   */\n      tag_382\n        /* \"#utility.yul\":14414:14417   */\n      dup6\n        /* \"#utility.yul\":14396:14418   */\n      tag_204\n      jump\t// in\n    tag_382:\n        /* \"#utility.yul\":14386:14394   */\n      dup4\n        /* \"#utility.yul\":14382:14419   */\n      add\n        /* \"#utility.yul\":14369:14380   */\n      dup3\n        /* \"#utility.yul\":14340:14420   */\n      tag_213\n      jump\t// in\n    tag_381:\n        /* \"#utility.yul\":13999:14430   */\n      pop\n      pop\n        /* \"#utility.yul\":13984:14430   */\n    tag_377:\n        /* \"#utility.yul\":13894:14437   */\n      pop\n      pop\n      pop\n      jump\t// out\n        /* \"#utility.yul\":14443:14560   */\n    tag_215:\n        /* \"#utility.yul\":14497:14505   */\n      0x00\n        /* \"#utility.yul\":14547:14552   */\n      dup3\n        /* \"#utility.yul\":14541:14545   */\n      dup3\n        /* \"#utility.yul\":14537:14553   */\n      shr\n        /* \"#utility.yul\":14516:14553   */\n      swap1\n      pop\n        /* \"#utility.yul\":14443:14560   */\n      swap3\n      swap2\n      pop\n      pop\n      jump\t// out\n        /* \"#utility.yul\":14566:14735   */\n    tag_216:\n        /* \"#utility.yul\":14610:14616   */\n      0x00\n        /* \"#utility.yul\":14643:14694   */\n      tag_385\n        /* \"#utility.yul\":14691:14692   */\n      0x00\n        /* \"#utility.yul\":14687:14693   */\n      not\n        /* \"#utility.yul\":14679:14684   */\n      dup5\n        /* \"#utility.yul\":14676:14677   */\n      0x08\n        /* \"#utility.yul\":14672:14685   */\n      mul\n        /* \"#utility.yul\":14643:14694   */\n      tag_215\n      jump\t// in\n    tag_385:\n        /* \"#utility.yul\":14639:14695   */\n      not\n        /* \"#utility.yul\":14724:14728   */\n      dup1\n        /* \"#utility.yul\":14718:14722   */\n      dup4\n        /* \"#utility.yul\":14714:14729   */\n      and\n        /* \"#utility.yul\":14704:14729   */\n      swap2\n      pop\n        /* \"#utility.yul\":14617:14735   */\n      pop\n        /* \"#utility.yul\":14566:14735   */\n      swap3\n      swap2\n      pop\n      pop\n      jump\t// out\n        /* \"#utility.yul\":14740:15035   */\n    tag_217:\n        /* \"#utility.yul\":14816:14820   */\n      0x00\n        /* \"#utility.yul\":14962:14991   */\n      tag_387\n        /* \"#utility.yul\":14987:14990   */\n      dup4\n        /* \"#utility.yul\":14981:14985   */\n      dup4\n        /* \"#utility.yul\":14962:14991   */\n      tag_216\n      jump\t// in\n    tag_387:\n        /* \"#utility.yul\":14954:14991   */\n      swap2\n      pop\n        /* \"#utility.yul\":15024:15027   */\n      dup3\n        /* \"#utility.yul\":15021:15022   */\n      0x02\n        /* \"#utility.yul\":15017:15028   */\n      mul\n        /* \"#utility.yul\":15011:15015   */\n      dup3\n        /* \"#utility.yul\":15008:15029   */\n      or\n        /* \"#utility.yul\":15000:15029   */\n      swap1\n      pop\n        /* \"#utility.yul\":14740:15035   */\n      swap3\n      swap2\n      pop\n      pop\n      jump\t// out\n        /* \"#utility.yul\":15040:16435   */\n    tag_164:\n        /* \"#utility.yul\":15157:15194   */\n      tag_389\n        /* \"#utility.yul\":15190:15193   */\n      dup3\n        /* \"#utility.yul\":15157:15194   */\n      tag_178\n      jump\t// in\n    tag_389:\n        /* \"#utility.yul\":15259:15277   */\n      0xffffffffffffffff\n        /* \"#utility.yul\":15251:15257   */\n      dup2\n        /* \"#utility.yul\":15248:15278   */\n      gt\n        /* \"#utility.yul\":15245:15301   */\n      iszero\n      tag_390\n      jumpi\n        /* \"#utility.yul\":15281:15299   */\n      tag_391\n      tag_188\n      jump\t// in\n    tag_391:\n        /* \"#utility.yul\":15245:15301   */\n    tag_390:\n        /* \"#utility.yul\":15325:15363   */\n      tag_392\n        /* \"#utility.yul\":15357:15361   */\n      dup3\n        /* \"#utility.yul\":15351:15362   */\n      sload\n        /* \"#utility.yul\":15325:15363   */\n      tag_111\n      jump\t// in\n    tag_392:\n        /* \"#utility.yul\":15410:15477   */\n      tag_393\n        /* \"#utility.yul\":15470:15476   */\n      dup3\n        /* \"#utility.yul\":15462:15468   */\n      dup3\n        /* \"#utility.yul\":15456:15460   */\n      dup6\n        /* \"#utility.yul\":15410:15477   */\n      tag_214\n      jump\t// in\n    tag_393:\n        /* \"#utility.yul\":15504:15505   */\n      0x00\n        /* \"#utility.yul\":15528:15532   */\n      0x20\n        /* \"#utility.yul\":15515:15532   */\n      swap1\n      pop\n        /* \"#utility.yul\":15560:15562   */\n      0x1f\n        /* \"#utility.yul\":15552:15558   */\n      dup4\n        /* \"#utility.yul\":15549:15563   */\n      gt\n        /* \"#utility.yul\":15577:15578   */\n      0x01\n        /* \"#utility.yul\":15572:16190   */\n      dup2\n      eq\n      tag_395\n      jumpi\n        /* \"#utility.yul\":16234:16235   */\n      0x00\n        /* \"#utility.yul\":16251:16257   */\n      dup5\n        /* \"#utility.yul\":16248:16325   */\n      iszero\n      tag_396\n      jumpi\n        /* \"#utility.yul\":16300:16309   */\n      dup3\n        /* \"#utility.yul\":16295:16298   */\n      dup8\n        /* \"#utility.yul\":16291:16310   */\n      add\n        /* \"#utility.yul\":16285:16311   */\n      mload\n        /* \"#utility.yul\":16276:16311   */\n      swap1\n      pop\n        /* \"#utility.yul\":16248:16325   */\n    tag_396:\n        /* \"#utility.yul\":16351:16418   */\n      tag_397\n        /* \"#utility.yul\":16411:16417   */\n      dup6\n        /* \"#utility.yul\":16404:16409   */\n      dup3\n        /* \"#utility.yul\":16351:16418   */\n      tag_217\n      jump\t// in\n    tag_397:\n        /* \"#utility.yul\":16345:16349   */\n      dup7\n        /* \"#utility.yul\":16338:16419   */\n      sstore\n        /* \"#utility.yul\":16207:16429   */\n      pop\n        /* \"#utility.yul\":15542:16429   */\n      jump(tag_394)\n        /* \"#utility.yul\":15572:16190   */\n    tag_395:\n        /* \"#utility.yul\":15624:15628   */\n      0x1f\n        /* \"#utility.yul\":15620:15629   */\n      not\n        /* \"#utility.yul\":15612:15618   */\n      dup5\n        /* \"#utility.yul\":15608:15630   */\n      and\n        /* \"#utility.yul\":15658:15695   */\n      tag_398\n        /* \"#utility.yul\":15690:15694   */\n      dup7\n        /* \"#utility.yul\":15658:15695   */\n      tag_203\n      jump\t// in\n    tag_398:\n        /* \"#utility.yul\":15717:15718   */\n      0x00\n        /* \"#utility.yul\":15731:15939   */\n    tag_399:\n        /* \"#utility.yul\":15745:15752   */\n      dup3\n        /* \"#utility.yul\":15742:15743   */\n      dup2\n        /* \"#utility.yul\":15739:15753   */\n      lt\n        /* \"#utility.yul\":15731:15939   */\n      iszero\n      tag_401\n      jumpi\n        /* \"#utility.yul\":15824:15833   */\n      dup5\n        /* \"#utility.yul\":15819:15822   */\n      dup10\n        /* \"#utility.yul\":15815:15834   */\n      add\n        /* \"#utility.yul\":15809:15835   */\n      mload\n        /* \"#utility.yul\":15801:15807   */\n      dup3\n        /* \"#utility.yul\":15794:15836   */\n      sstore\n        /* \"#utility.yul\":15875:15876   */\n      0x01\n        /* \"#utility.yul\":15867:15873   */\n      dup3\n        /* \"#utility.yul\":15863:15877   */\n      add\n        /* \"#utility.yul\":15853:15877   */\n      swap2\n      pop\n        /* \"#utility.yul\":15922:15924   */\n      0x20\n        /* \"#utility.yul\":15911:15920   */\n      dup6\n        /* \"#utility.yul\":15907:15925   */\n      add\n        /* \"#utility.yul\":15894:15925   */\n      swap5\n      pop\n        /* \"#utility.yul\":15768:15772   */\n      0x20\n        /* \"#utility.yul\":15765:15766   */\n      dup2\n        /* \"#utility.yul\":15761:15773   */\n      add\n        /* \"#utility.yul\":15756:15773   */\n      swap1\n      pop\n        /* \"#utility.yul\":15731:15939   */\n      jump(tag_399)\n    tag_401:\n        /* \"#utility.yul\":15967:15973   */\n      dup7\n        /* \"#utility.yul\":15958:15965   */\n      dup4\n        /* \"#utility.yul\":15955:15974   */\n      lt\n        /* \"#utility.yul\":15952:16131   */\n      iszero\n      tag_402\n      jumpi\n        /* \"#utility.yul\":16025:16034   */\n      dup5\n        /* \"#utility.yul\":16020:16023   */\n      dup10\n        /* \"#utility.yul\":16016:16035   */\n      add\n        /* \"#utility.yul\":16010:16036   */\n      mload\n        /* \"#utility.yul\":16068:16116   */\n      tag_403\n        /* \"#utility.yul\":16110:16114   */\n      0x1f\n        /* \"#utility.yul\":16102:16108   */\n      dup10\n        /* \"#utility.yul\":16098:16115   */\n      and\n        /* \"#utility.yul\":16087:16096   */\n      dup3\n        /* \"#utility.yul\":16068:16116   */\n      tag_216\n      jump\t// in\n    tag_403:\n        /* \"#utility.yul\":16060:16066   */\n      dup4\n        /* \"#utility.yul\":16053:16117   */\n      sstore\n        /* \"#utility.yul\":15975:16131   */\n      pop\n        /* \"#utility.yul\":15952:16131   */\n    tag_402:\n        /* \"#utility.yul\":16177:16178   */\n      0x01\n        /* \"#utility.yul\":16173:16174   */\n      0x02\n        /* \"#utility.yul\":16165:16171   */\n      dup9\n        /* \"#utility.yul\":16161:16175   */\n      mul\n        /* \"#utility.yul\":16157:16179   */\n      add\n        /* \"#utility.yul\":16151:16155   */\n      dup9\n        /* \"#utility.yul\":16144:16180   */\n      sstore\n        /* \"#utility.yul\":15579:16190   */\n      pop\n      pop\n      pop\n        /* \"#utility.yul\":15542:16429   */\n    tag_394:\n      pop\n        /* \"#utility.yul\":15132:16435   */\n      pop\n      pop\n      pop\n        /* \"#utility.yul\":15040:16435   */\n      pop\n      pop\n      jump\t// out\n\n    auxdata: 0xa2646970667358221220e32ce83eb10a1c030c3da03ae667f99f793895796375007a8ed907cf4333a06b64736f6c634300081a0033\n}\n",
				"bytecode": {
					"linkReferences": {},
					"object": "608060405260016006553480156013575f80fd5b50335f806101000a81548173ffffffffffffffffffffffffffffffffffffffff021916908373ffffffffffffffffffffffffffffffffffffffff160217905550611974806100605f395ff3fe6080604052600436106100a6575f3560e01c8063795dbede11610063578063795dbede14610178578063afd82067146101a2578063b688a363146101b8578063be1c766b146101c2578063c95f728a146101ec578063d0e30db014610214576100a6565b806305039910146100aa57806314174f33146100c057806318d075c3146100e857806336588975146100fe5780634b84113514610126578063657a25121461013c575b5f80fd5b3480156100b5575f80fd5b506100be61021e565b005b3480156100cb575f80fd5b506100e660048036038101906100e19190611054565b610347565b005b3480156100f3575f80fd5b506100fc610486565b005b348015610109575f80fd5b50610124600480360381019061011f9190611054565b610645565b005b348015610131575f80fd5b5061013a610795565b005b348015610147575f80fd5b50610162600480360381019061015d91906110d9565b6108d2565b60405161016f9190611205565b60405180910390f35b348015610183575f80fd5b5061018c610a2b565b6040516101999190611234565b60405180910390f35b3480156101ad575f80fd5b506101b6610a31565b005b6101c0610ae2565b005b3480156101cd575f80fd5b506101d6610d1c565b6040516101e39190611234565b60405180910390f35b3480156101f7575f80fd5b50610212600480360381019061020d9190611379565b610dc4565b005b61021c610f5f565b005b600a60015f3373ffffffffffffffffffffffffffffffffffffffff1673ffffffffffffffffffffffffffffffffffffffff1681526020019081526020015f206003015410156102a2576040517f08c379a00000000000000000000000000000000000000000000000000000000081526004016102999061141a565b60405180910390fd5b600a60015f3373ffffffffffffffffffffffffffffffffffffffff1673ffffffffffffffffffffffffffffffffffffffff1681526020019081526020015f206003015f8282546102f29190611465565b925050819055503373ffffffffffffffffffffffffffffffffffffffff166108fc67016345785d8a000090811502906040515f60405180830381858888f19350505050158015610344573d5f803e3d5ffd5b50565b8060015f3373ffffffffffffffffffffffffffffffffffffffff1673ffffffffffffffffffffffffffffffffffffffff1681526020019081526020015f206003015410156103ca576040517f08c379a00000000000000000000000000000000000000000000000000000000081526004016103c19061141a565b60405180910390fd5b8060015f3373ffffffffffffffffffffffffffffffffffffffff1673ffffffffffffffffffffffffffffffffffffffff1681526020019081526020015f206003015f8282546104199190611465565b925050819055503373ffffffffffffffffffffffffffffffffffffffff166108fc67016345785d8a0000600a8461045091906114c5565b61045a91906114f5565b90811502906040515f60405180830381858888f19350505050158015610482573d5f803e3d5ffd5b5050565b600a60015f3373ffffffffffffffffffffffffffffffffffffffff1673ffffffffffffffffffffffffffffffffffffffff1681526020019081526020015f2060030154101561050a576040517f08c379a00000000000000000000000000000000000000000000000000000000081526004016105019061141a565b60405180910390fd5b5f600a60015f3373ffffffffffffffffffffffffffffffffffffffff1673ffffffffffffffffffffffffffffffffffffffff1681526020019081526020015f206003015461055891906114c5565b9050600a60015f3373ffffffffffffffffffffffffffffffffffffffff1673ffffffffffffffffffffffffffffffffffffffff1681526020019081526020015f20600301546105a79190611536565b60015f3373ffffffffffffffffffffffffffffffffffffffff1673ffffffffffffffffffffffffffffffffffffffff1681526020019081526020015f20600301819055503373ffffffffffffffffffffffffffffffffffffffff166108fc67016345785d8a00008361061991906114f5565b90811502906040515f60405180830381858888f19350505050158015610641573d5f803e3d5ffd5b5050565b5f8054906101000a900473ffffffffffffffffffffffffffffffffffffffff1673ffffffffffffffffffffffffffffffffffffffff163373ffffffffffffffffffffffffffffffffffffffff16146106d2576040517f08c379a00000000000000000000000000000000000000000000000000000000081526004016106c99061141a565b60405180910390fd5b5f8054906101000a900473ffffffffffffffffffffffffffffffffffffffff1673ffffffffffffffffffffffffffffffffffffffff166108fc662386f26fc100008361071e91906114f5565b90811502906040515f60405180830381858888f19350505050158015610746573d5f803e3d5ffd5b50671bc16d674ec80000471015610792576040517f08c379a00000000000000000000000000000000000000000000000000000000081526004016107899061141a565b60405180910390fd5b50565b5f8054906101000a900473ffffffffffffffffffffffffffffffffffffffff1673ffffffffffffffffffffffffffffffffffffffff163373ffffffffffffffffffffffffffffffffffffffff1614610822576040517f08c379a00000000000000000000000000000000000000000000000000000000081526004016108199061141a565b60405180910390fd5b5f8054906101000a900473ffffffffffffffffffffffffffffffffffffffff1673ffffffffffffffffffffffffffffffffffffffff166108fc4790811502906040515f60405180830381858888f19350505050158015610884573d5f803e3d5ffd5b50671bc16d674ec800004710156108d0576040517f08c379a00000000000000000000000000000000000000000000000000000000081526004016108c79061141a565b60405180910390fd5b565b6108da610fb7565b60015f8373ffffffffffffffffffffffffffffffffffffffff1673ffffffffffffffffffffffffffffffffffffffff1681526020019081526020015f206040518060a00160405290815f820154815260200160018201805461093b90611593565b80601f016020809104026020016040519081016040528092919081815260200182805461096790611593565b80156109b25780601f10610989576101008083540402835291602001916109b2565b820191905f5260205f20905b81548152906001019060200180831161099557829003601f168201915b50505050508152602001600282015f9054906101000a900473ffffffffffffffffffffffffffffffffffffffff1673ffffffffffffffffffffffffffffffffffffffff1673ffffffffffffffffffffffffffffffffffffffff168152602001600382015481526020016004820154815250509050919050565b60065481565b5f5b6004811015610adf57806004610a499190611465565b60015f60028460048110610a6057610a5f6115c3565b5b015f9054906101000a900473ffffffffffffffffffffffffffffffffffffffff1673ffffffffffffffffffffffffffffffffffffffff1673ffffffffffffffffffffffffffffffffffffffff1681526020019081526020015f206003015f828254610acb91906115f0565b925050819055508080600101915050610a33565b50565b5f60015f3373ffffffffffffffffffffffffffffffffffffffff1673ffffffffffffffffffffffffffffffffffffffff1681526020019081526020015f206001018054610b2e90611593565b905014158015610b965750662386f26fc10000341480610b955750662386f26fc1000060015f3373ffffffffffffffffffffffffffffffffffffffff1673ffffffffffffffffffffffffffffffffffffffff1681526020019081526020015f206004015410155b5b610bd5576040517f08c379a0000000000000000000000000000000000000000000000000000000008152600401610bcc9061166d565b60405180910390fd5b662386f26fc10000341015610c4257662386f26fc1000060015f3373ffffffffffffffffffffffffffffffffffffffff1673ffffffffffffffffffffffffffffffffffffffff1681526020019081526020015f206004015f828254610c3a9190611465565b925050819055505b6003610c4c610d1c565b03610cbf57336002600360048110610c6757610c666115c3565b5b015f6101000a81548173ffffffffffffffffffffffffffffffffffffffff021916908373ffffffffffffffffffffffffffffffffffffffff160217905550610cad610a31565b60025f610cba9190610ff8565b610d1a565b336002610cca610d1c565b60048110610cdb57610cda6115c3565b5b015f6101000a81548173ffffffffffffffffffffffffffffffffffffffff021916908373ffffffffffffffffffffffffffffffffffffffff1602179055505b565b5f805f90505b6004811015610dbb575f60015f60028460048110610d4357610d426115c3565b5b015f9054906101000a900473ffffffffffffffffffffffffffffffffffffffff1673ffffffffffffffffffffffffffffffffffffffff1673ffffffffffffffffffffffffffffffffffffffff1681526020019081526020015f205f015403610dae5780915050610dc1565b8080600101915050610d22565b50600490505b90565b5f60015f3373ffffffffffffffffffffffffffffffffffffffff1673ffffffffffffffffffffffffffffffffffffffff1681526020019081526020015f206001018054610e1090611593565b905014610e52576040517f08c379a0000000000000000000000000000000000000000000000000000000008152600401610e499061141a565b60405180910390fd5b6040518060a0016040528060065f815480929190610e6f9061168b565b9190505581526020018281526020013373ffffffffffffffffffffffffffffffffffffffff1681526020015f81526020015f81525060015f3373ffffffffffffffffffffffffffffffffffffffff1673ffffffffffffffffffffffffffffffffffffffff1681526020019081526020015f205f820151815f01556020820151816001019081610efe919061186f565b506040820151816002015f6101000a81548173ffffffffffffffffffffffffffffffffffffffff021916908373ffffffffffffffffffffffffffffffffffffffff160217905550606082015181600301556080820151816004015590505050565b3460015f3373ffffffffffffffffffffffffffffffffffffffff1673ffffffffffffffffffffffffffffffffffffffff1681526020019081526020015f206004015f828254610fae91906115f0565b92505081905550565b6040518060a001604052805f8152602001606081526020015f73ffffffffffffffffffffffffffffffffffffffff1681526020015f81526020015f81525090565b505f81556001015f81556001015f81556001015f9055565b5f604051905090565b5f80fd5b5f80fd5b5f819050919050565b61103381611021565b811461103d575f80fd5b50565b5f8135905061104e8161102a565b92915050565b5f6020828403121561106957611068611019565b5b5f61107684828501611040565b91505092915050565b5f73ffffffffffffffffffffffffffffffffffffffff82169050919050565b5f6110a88261107f565b9050919050565b6110b88161109e565b81146110c2575f80fd5b50565b5f813590506110d3816110af565b92915050565b5f602082840312156110ee576110ed611019565b5b5f6110fb848285016110c5565b91505092915050565b61110d81611021565b82525050565b5f81519050919050565b5f82825260208201905092915050565b8281835e5f83830152505050565b5f601f19601f8301169050919050565b5f61115582611113565b61115f818561111d565b935061116f81856020860161112d565b6111788161113b565b840191505092915050565b61118c8161109e565b82525050565b5f60a083015f8301516111a75f860182611104565b50602083015184820360208601526111bf828261114b565b91505060408301516111d46040860182611183565b5060608301516111e76060860182611104565b5060808301516111fa6080860182611104565b508091505092915050565b5f6020820190508181035f83015261121d8184611192565b905092915050565b61122e81611021565b82525050565b5f6020820190506112475f830184611225565b92915050565b5f80fd5b5f80fd5b7f4e487b71000000000000000000000000000000000000000000000000000000005f52604160045260245ffd5b61128b8261113b565b810181811067ffffffffffffffff821117156112aa576112a9611255565b5b80604052505050565b5f6112bc611010565b90506112c88282611282565b919050565b5f67ffffffffffffffff8211156112e7576112e6611255565b5b6112f08261113b565b9050602081019050919050565b828183375f83830152505050565b5f61131d611318846112cd565b6112b3565b90508281526020810184848401111561133957611338611251565b5b6113448482856112fd565b509392505050565b5f82601f8301126113605761135f61124d565b5b813561137084826020860161130b565b91505092915050565b5f6020828403121561138e5761138d611019565b5b5f82013567ffffffffffffffff8111156113ab576113aa61101d565b5b6113b78482850161134c565b91505092915050565b5f82825260208201905092915050565b7f6e6f7065000000000000000000000000000000000000000000000000000000005f82015250565b5f6114046004836113c0565b915061140f826113d0565b602082019050919050565b5f6020820190508181035f830152611431816113f8565b9050919050565b7f4e487b71000000000000000000000000000000000000000000000000000000005f52601160045260245ffd5b5f61146f82611021565b915061147a83611021565b925082820390508181111561149257611491611438565b5b92915050565b7f4e487b71000000000000000000000000000000000000000000000000000000005f52601260045260245ffd5b5f6114cf82611021565b91506114da83611021565b9250826114ea576114e9611498565b5b828204905092915050565b5f6114ff82611021565b915061150a83611021565b925082820261151881611021565b9150828204841483151761152f5761152e611438565b5b5092915050565b5f61154082611021565b915061154b83611021565b92508261155b5761155a611498565b5b828206905092915050565b7f4e487b71000000000000000000000000000000000000000000000000000000005f52602260045260245ffd5b5f60028204905060018216806115aa57607f821691505b6020821081036115bd576115bc611566565b5b50919050565b7f4e487b71000000000000000000000000000000000000000000000000000000005f52603260045260245ffd5b5f6115fa82611021565b915061160583611021565b925082820190508082111561161d5761161c611438565b5b92915050565b7f4e6f7065000000000000000000000000000000000000000000000000000000005f82015250565b5f6116576004836113c0565b915061166282611623565b602082019050919050565b5f6020820190508181035f8301526116848161164b565b9050919050565b5f61169582611021565b91507fffffffffffffffffffffffffffffffffffffffffffffffffffffffffffffffff82036116c7576116c6611438565b5b600182019050919050565b5f819050815f5260205f209050919050565b5f6020601f8301049050919050565b5f82821b905092915050565b5f6008830261172e7fffffffffffffffffffffffffffffffffffffffffffffffffffffffffffffffff826116f3565b61173886836116f3565b95508019841693508086168417925050509392505050565b5f819050919050565b5f61177361176e61176984611021565b611750565b611021565b9050919050565b5f819050919050565b61178c83611759565b6117a06117988261177a565b8484546116ff565b825550505050565b5f90565b6117b46117a8565b6117bf818484611783565b505050565b5b818110156117e2576117d75f826117ac565b6001810190506117c5565b5050565b601f821115611827576117f8816116d2565b611801846116e4565b81016020851015611810578190505b61182461181c856116e4565b8301826117c4565b50505b505050565b5f82821c905092915050565b5f6118475f198460080261182c565b1980831691505092915050565b5f61185f8383611838565b9150826002028217905092915050565b61187882611113565b67ffffffffffffffff81111561189157611890611255565b5b61189b8254611593565b6118a68282856117e6565b5f60209050601f8311600181146118d7575f84156118c5578287015190505b6118cf8582611854565b865550611936565b601f1984166118e5866116d2565b5f5b8281101561190c578489015182556001820191506020850194506020810190506118e7565b868310156119295784890151611925601f891682611838565b8355505b6001600288020188555050505b50505050505056fea2646970667358221220e32ce83eb10a1c030c3da03ae667f99f793895796375007a8ed907cf4333a06b64736f6c634300081a0033",
					"opcodes": "PUSH1 0x80 PUSH1 0x40 MSTORE PUSH1 0x1 PUSH1 0x6 SSTORE CALLVALUE DUP1 ISZERO PUSH1 0x13 JUMPI PUSH0 DUP1 REVERT JUMPDEST POP CALLER PUSH0 DUP1 PUSH2 0x100 EXP DUP2 SLOAD DUP2 PUSH20 0xFFFFFFFFFFFFFFFFFFFFFFFFFFFFFFFFFFFFFFFF MUL NOT AND SWAP1 DUP4 PUSH20 0xFFFFFFFFFFFFFFFFFFFFFFFFFFFFFFFFFFFFFFFF AND MUL OR SWAP1 SSTORE POP PUSH2 0x1974 DUP1 PUSH2 0x60 PUSH0 CODECOPY PUSH0 RETURN INVALID PUSH1 0x80 PUSH1 0x40 MSTORE PUSH1 0x4 CALLDATASIZE LT PUSH2 0xA6 JUMPI PUSH0 CALLDATALOAD PUSH1 0xE0 SHR DUP1 PUSH4 0x795DBEDE GT PUSH2 0x63 JUMPI DUP1 PUSH4 0x795DBEDE EQ PUSH2 0x178 JUMPI DUP1 PUSH4 0xAFD82067 EQ PUSH2 0x1A2 JUMPI DUP1 PUSH4 0xB688A363 EQ PUSH2 0x1B8 JUMPI DUP1 PUSH4 0xBE1C766B EQ PUSH2 0x1C2 JUMPI DUP1 PUSH4 0xC95F728A EQ PUSH2 0x1EC JUMPI DUP1 PUSH4 0xD0E30DB0 EQ PUSH2 0x214 JUMPI PUSH2 0xA6 JUMP JUMPDEST DUP1 PUSH4 0x5039910 EQ PUSH2 0xAA JUMPI DUP1 PUSH4 0x14174F33 EQ PUSH2 0xC0 JUMPI DUP1 PUSH4 0x18D075C3 EQ PUSH2 0xE8 JUMPI DUP1 PUSH4 0x36588975 EQ PUSH2 0xFE JUMPI DUP1 PUSH4 0x4B841135 EQ PUSH2 0x126 JUMPI DUP1 PUSH4 0x657A2512 EQ PUSH2 0x13C JUMPI JUMPDEST PUSH0 DUP1 REVERT JUMPDEST CALLVALUE DUP1 ISZERO PUSH2 0xB5 JUMPI PUSH0 DUP1 REVERT JUMPDEST POP PUSH2 0xBE PUSH2 0x21E JUMP JUMPDEST STOP JUMPDEST CALLVALUE DUP1 ISZERO PUSH2 0xCB JUMPI PUSH0 DUP1 REVERT JUMPDEST POP PUSH2 0xE6 PUSH1 0x4 DUP1 CALLDATASIZE SUB DUP2 ADD SWAP1 PUSH2 0xE1 SWAP2 SWAP1 PUSH2 0x1054 JUMP JUMPDEST PUSH2 0x347 JUMP JUMPDEST STOP JUMPDEST CALLVALUE DUP1 ISZERO PUSH2 0xF3 JUMPI PUSH0 DUP1 REVERT JUMPDEST POP PUSH2 0xFC PUSH2 0x486 JUMP JUMPDEST STOP JUMPDEST CALLVALUE DUP1 ISZERO PUSH2 0x109 JUMPI PUSH0 DUP1 REVERT JUMPDEST POP PUSH2 0x124 PUSH1 0x4 DUP1 CALLDATASIZE SUB DUP2 ADD SWAP1 PUSH2 0x11F SWAP2 SWAP1 PUSH2 0x1054 JUMP JUMPDEST PUSH2 0x645 JUMP JUMPDEST STOP JUMPDEST CALLVALUE DUP1 ISZERO PUSH2 0x131 JUMPI PUSH0 DUP1 REVERT JUMPDEST POP PUSH2 0x13A PUSH2 0x795 JUMP JUMPDEST STOP JUMPDEST CALLVALUE DUP1 ISZERO PUSH2 0x147 JUMPI PUSH0 DUP1 REVERT JUMPDEST POP PUSH2 0x162 PUSH1 0x4 DUP1 CALLDATASIZE SUB DUP2 ADD SWAP1 PUSH2 0x15D SWAP2 SWAP1 PUSH2 0x10D9 JUMP JUMPDEST PUSH2 0x8D2 JUMP JUMPDEST PUSH1 0x40 MLOAD PUSH2 0x16F SWAP2 SWAP1 PUSH2 0x1205 JUMP JUMPDEST PUSH1 0x40 MLOAD DUP1 SWAP2 SUB SWAP1 RETURN JUMPDEST CALLVALUE DUP1 ISZERO PUSH2 0x183 JUMPI PUSH0 DUP1 REVERT JUMPDEST POP PUSH2 0x18C PUSH2 0xA2B JUMP JUMPDEST PUSH1 0x40 MLOAD PUSH2 0x199 SWAP2 SWAP1 PUSH2 0x1234 JUMP JUMPDEST PUSH1 0x40 MLOAD DUP1 SWAP2 SUB SWAP1 RETURN JUMPDEST CALLVALUE DUP1 ISZERO PUSH2 0x1AD JUMPI PUSH0 DUP1 REVERT JUMPDEST POP PUSH2 0x1B6 PUSH2 0xA31 JUMP JUMPDEST STOP JUMPDEST PUSH2 0x1C0 PUSH2 0xAE2 JUMP JUMPDEST STOP JUMPDEST CALLVALUE DUP1 ISZERO PUSH2 0x1CD JUMPI PUSH0 DUP1 REVERT JUMPDEST POP PUSH2 0x1D6 PUSH2 0xD1C JUMP JUMPDEST PUSH1 0x40 MLOAD PUSH2 0x1E3 SWAP2 SWAP1 PUSH2 0x1234 JUMP JUMPDEST PUSH1 0x40 MLOAD DUP1 SWAP2 SUB SWAP1 RETURN JUMPDEST CALLVALUE DUP1 ISZERO PUSH2 0x1F7 JUMPI PUSH0 DUP1 REVERT JUMPDEST POP PUSH2 0x212 PUSH1 0x4 DUP1 CALLDATASIZE SUB DUP2 ADD SWAP1 PUSH2 0x20D SWAP2 SWAP1 PUSH2 0x1379 JUMP JUMPDEST PUSH2 0xDC4 JUMP JUMPDEST STOP JUMPDEST PUSH2 0x21C PUSH2 0xF5F JUMP JUMPDEST STOP JUMPDEST PUSH1 0xA PUSH1 0x1 PUSH0 CALLER PUSH20 0xFFFFFFFFFFFFFFFFFFFFFFFFFFFFFFFFFFFFFFFF AND PUSH20 0xFFFFFFFFFFFFFFFFFFFFFFFFFFFFFFFFFFFFFFFF AND DUP2 MSTORE PUSH1 0x20 ADD SWAP1 DUP2 MSTORE PUSH1 0x20 ADD PUSH0 KECCAK256 PUSH1 0x3 ADD SLOAD LT ISZERO PUSH2 0x2A2 JUMPI PUSH1 0x40 MLOAD PUSH32 0x8C379A000000000000000000000000000000000000000000000000000000000 DUP2 MSTORE PUSH1 0x4 ADD PUSH2 0x299 SWAP1 PUSH2 0x141A JUMP JUMPDEST PUSH1 0x40 MLOAD DUP1 SWAP2 SUB SWAP1 REVERT JUMPDEST PUSH1 0xA PUSH1 0x1 PUSH0 CALLER PUSH20 0xFFFFFFFFFFFFFFFFFFFFFFFFFFFFFFFFFFFFFFFF AND PUSH20 0xFFFFFFFFFFFFFFFFFFFFFFFFFFFFFFFFFFFFFFFF AND DUP2 MSTORE PUSH1 0x20 ADD SWAP1 DUP2 MSTORE PUSH1 0x20 ADD PUSH0 KECCAK256 PUSH1 0x3 ADD PUSH0 DUP3 DUP3 SLOAD PUSH2 0x2F2 SWAP2 SWAP1 PUSH2 0x1465 JUMP JUMPDEST SWAP3 POP POP DUP2 SWAP1 SSTORE POP CALLER PUSH20 0xFFFFFFFFFFFFFFFFFFFFFFFFFFFFFFFFFFFFFFFF AND PUSH2 0x8FC PUSH8 0x16345785D8A0000 SWAP1 DUP2 ISZERO MUL SWAP1 PUSH1 0x40 MLOAD PUSH0 PUSH1 0x40 MLOAD DUP1 DUP4 SUB DUP2 DUP6 DUP9 DUP9 CALL SWAP4 POP POP POP POP ISZERO DUP1 ISZERO PUSH2 0x344 JUMPI RETURNDATASIZE PUSH0 DUP1 RETURNDATACOPY RETURNDATASIZE PUSH0 REVERT JUMPDEST POP JUMP JUMPDEST DUP1 PUSH1 0x1 PUSH0 CALLER PUSH20 0xFFFFFFFFFFFFFFFFFFFFFFFFFFFFFFFFFFFFFFFF AND PUSH20 0xFFFFFFFFFFFFFFFFFFFFFFFFFFFFFFFFFFFFFFFF AND DUP2 MSTORE PUSH1 0x20 ADD SWAP1 DUP2 MSTORE PUSH1 0x20 ADD PUSH0 KECCAK256 PUSH1 0x3 ADD SLOAD LT ISZERO PUSH2 0x3CA JUMPI PUSH1 0x40 MLOAD PUSH32 0x8C379A000000000000000000000000000000000000000000000000000000000 DUP2 MSTORE PUSH1 0x4 ADD PUSH2 0x3C1 SWAP1 PUSH2 0x141A JUMP JUMPDEST PUSH1 0x40 MLOAD DUP1 SWAP2 SUB SWAP1 REVERT JUMPDEST DUP1 PUSH1 0x1 PUSH0 CALLER PUSH20 0xFFFFFFFFFFFFFFFFFFFFFFFFFFFFFFFFFFFFFFFF AND PUSH20 0xFFFFFFFFFFFFFFFFFFFFFFFFFFFFFFFFFFFFFFFF AND DUP2 MSTORE PUSH1 0x20 ADD SWAP1 DUP2 MSTORE PUSH1 0x20 ADD PUSH0 KECCAK256 PUSH1 0x3 ADD PUSH0 DUP3 DUP3 SLOAD PUSH2 0x419 SWAP2 SWAP1 PUSH2 0x1465 JUMP JUMPDEST SWAP3 POP POP DUP2 SWAP1 SSTORE POP CALLER PUSH20 0xFFFFFFFFFFFFFFFFFFFFFFFFFFFFFFFFFFFFFFFF AND PUSH2 0x8FC PUSH8 0x16345785D8A0000 PUSH1 0xA DUP5 PUSH2 0x450 SWAP2 SWAP1 PUSH2 0x14C5 JUMP JUMPDEST PUSH2 0x45A SWAP2 SWAP1 PUSH2 0x14F5 JUMP JUMPDEST SWAP1 DUP2 ISZERO MUL SWAP1 PUSH1 0x40 MLOAD PUSH0 PUSH1 0x40 MLOAD DUP1 DUP4 SUB DUP2 DUP6 DUP9 DUP9 CALL SWAP4 POP POP POP POP ISZERO DUP1 ISZERO PUSH2 0x482 JUMPI RETURNDATASIZE PUSH0 DUP1 RETURNDATACOPY RETURNDATASIZE PUSH0 REVERT JUMPDEST POP POP JUMP JUMPDEST PUSH1 0xA PUSH1 0x1 PUSH0 CALLER PUSH20 0xFFFFFFFFFFFFFFFFFFFFFFFFFFFFFFFFFFFFFFFF AND PUSH20 0xFFFFFFFFFFFFFFFFFFFFFFFFFFFFFFFFFFFFFFFF AND DUP2 MSTORE PUSH1 0x20 ADD SWAP1 DUP2 MSTORE PUSH1 0x20 ADD PUSH0 KECCAK256 PUSH1 0x3 ADD SLOAD LT ISZERO PUSH2 0x50A JUMPI PUSH1 0x40 MLOAD PUSH32 0x8C379A000000000000000000000000000000000000000000000000000000000 DUP2 MSTORE PUSH1 0x4 ADD PUSH2 0x501 SWAP1 PUSH2 0x141A JUMP JUMPDEST PUSH1 0x40 MLOAD DUP1 SWAP2 SUB SWAP1 REVERT JUMPDEST PUSH0 PUSH1 0xA PUSH1 0x1 PUSH0 CALLER PUSH20 0xFFFFFFFFFFFFFFFFFFFFFFFFFFFFFFFFFFFFFFFF AND PUSH20 0xFFFFFFFFFFFFFFFFFFFFFFFFFFFFFFFFFFFFFFFF AND DUP2 MSTORE PUSH1 0x20 ADD SWAP1 DUP2 MSTORE PUSH1 0x20 ADD PUSH0 KECCAK256 PUSH1 0x3 ADD SLOAD PUSH2 0x558 SWAP2 SWAP1 PUSH2 0x14C5 JUMP JUMPDEST SWAP1 POP PUSH1 0xA PUSH1 0x1 PUSH0 CALLER PUSH20 0xFFFFFFFFFFFFFFFFFFFFFFFFFFFFFFFFFFFFFFFF AND PUSH20 0xFFFFFFFFFFFFFFFFFFFFFFFFFFFFFFFFFFFFFFFF AND DUP2 MSTORE PUSH1 0x20 ADD SWAP1 DUP2 MSTORE PUSH1 0x20 ADD PUSH0 KECCAK256 PUSH1 0x3 ADD SLOAD PUSH2 0x5A7 SWAP2 SWAP1 PUSH2 0x1536 JUMP JUMPDEST PUSH1 0x1 PUSH0 CALLER PUSH20 0xFFFFFFFFFFFFFFFFFFFFFFFFFFFFFFFFFFFFFFFF AND PUSH20 0xFFFFFFFFFFFFFFFFFFFFFFFFFFFFFFFFFFFFFFFF AND DUP2 MSTORE PUSH1 0x20 ADD SWAP1 DUP2 MSTORE PUSH1 0x20 ADD PUSH0 KECCAK256 PUSH1 0x3 ADD DUP2 SWAP1 SSTORE POP CALLER PUSH20 0xFFFFFFFFFFFFFFFFFFFFFFFFFFFFFFFFFFFFFFFF AND PUSH2 0x8FC PUSH8 0x16345785D8A0000 DUP4 PUSH2 0x619 SWAP2 SWAP1 PUSH2 0x14F5 JUMP JUMPDEST SWAP1 DUP2 ISZERO MUL SWAP1 PUSH1 0x40 MLOAD PUSH0 PUSH1 0x40 MLOAD DUP1 DUP4 SUB DUP2 DUP6 DUP9 DUP9 CALL SWAP4 POP POP POP POP ISZERO DUP1 ISZERO PUSH2 0x641 JUMPI RETURNDATASIZE PUSH0 DUP1 RETURNDATACOPY RETURNDATASIZE PUSH0 REVERT JUMPDEST POP POP JUMP JUMPDEST PUSH0 DUP1 SLOAD SWAP1 PUSH2 0x100 EXP SWAP1 DIV PUSH20 0xFFFFFFFFFFFFFFFFFFFFFFFFFFFFFFFFFFFFFFFF AND PUSH20 0xFFFFFFFFFFFFFFFFFFFFFFFFFFFFFFFFFFFFFFFF AND CALLER PUSH20 0xFFFFFFFFFFFFFFFFFFFFFFFFFFFFFFFFFFFFFFFF AND EQ PUSH2 0x6D2 JUMPI PUSH1 0x40 MLOAD PUSH32 0x8C379A000000000000000000000000000000000000000000000000000000000 DUP2 MSTORE PUSH1 0x4 ADD PUSH2 0x6C9 SWAP1 PUSH2 0x141A JUMP JUMPDEST PUSH1 0x40 MLOAD DUP1 SWAP2 SUB SWAP1 REVERT JUMPDEST PUSH0 DUP1 SLOAD SWAP1 PUSH2 0x100 EXP SWAP1 DIV PUSH20 0xFFFFFFFFFFFFFFFFFFFFFFFFFFFFFFFFFFFFFFFF AND PUSH20 0xFFFFFFFFFFFFFFFFFFFFFFFFFFFFFFFFFFFFFFFF AND PUSH2 0x8FC PUSH7 0x2386F26FC10000 DUP4 PUSH2 0x71E SWAP2 SWAP1 PUSH2 0x14F5 JUMP JUMPDEST SWAP1 DUP2 ISZERO MUL SWAP1 PUSH1 0x40 MLOAD PUSH0 PUSH1 0x40 MLOAD DUP1 DUP4 SUB DUP2 DUP6 DUP9 DUP9 CALL SWAP4 POP POP POP POP ISZERO DUP1 ISZERO PUSH2 0x746 JUMPI RETURNDATASIZE PUSH0 DUP1 RETURNDATACOPY RETURNDATASIZE PUSH0 REVERT JUMPDEST POP PUSH8 0x1BC16D674EC80000 SELFBALANCE LT ISZERO PUSH2 0x792 JUMPI PUSH1 0x40 MLOAD PUSH32 0x8C379A000000000000000000000000000000000000000000000000000000000 DUP2 MSTORE PUSH1 0x4 ADD PUSH2 0x789 SWAP1 PUSH2 0x141A JUMP JUMPDEST PUSH1 0x40 MLOAD DUP1 SWAP2 SUB SWAP1 REVERT JUMPDEST POP JUMP JUMPDEST PUSH0 DUP1 SLOAD SWAP1 PUSH2 0x100 EXP SWAP1 DIV PUSH20 0xFFFFFFFFFFFFFFFFFFFFFFFFFFFFFFFFFFFFFFFF AND PUSH20 0xFFFFFFFFFFFFFFFFFFFFFFFFFFFFFFFFFFFFFFFF AND CALLER PUSH20 0xFFFFFFFFFFFFFFFFFFFFFFFFFFFFFFFFFFFFFFFF AND EQ PUSH2 0x822 JUMPI PUSH1 0x40 MLOAD PUSH32 0x8C379A000000000000000000000000000000000000000000000000000000000 DUP2 MSTORE PUSH1 0x4 ADD PUSH2 0x819 SWAP1 PUSH2 0x141A JUMP JUMPDEST PUSH1 0x40 MLOAD DUP1 SWAP2 SUB SWAP1 REVERT JUMPDEST PUSH0 DUP1 SLOAD SWAP1 PUSH2 0x100 EXP SWAP1 DIV PUSH20 0xFFFFFFFFFFFFFFFFFFFFFFFFFFFFFFFFFFFFFFFF AND PUSH20 0xFFFFFFFFFFFFFFFFFFFFFFFFFFFFFFFFFFFFFFFF AND PUSH2 0x8FC SELFBALANCE SWAP1 DUP2 ISZERO MUL SWAP1 PUSH1 0x40 MLOAD PUSH0 PUSH1 0x40 MLOAD DUP1 DUP4 SUB DUP2 DUP6 DUP9 DUP9 CALL SWAP4 POP POP POP POP ISZERO DUP1 ISZERO PUSH2 0x884 JUMPI RETURNDATASIZE PUSH0 DUP1 RETURNDATACOPY RETURNDATASIZE PUSH0 REVERT JUMPDEST POP PUSH8 0x1BC16D674EC80000 SELFBALANCE LT ISZERO PUSH2 0x8D0 JUMPI PUSH1 0x40 MLOAD PUSH32 0x8C379A000000000000000000000000000000000000000000000000000000000 DUP2 MSTORE PUSH1 0x4 ADD PUSH2 0x8C7 SWAP1 PUSH2 0x141A JUMP JUMPDEST PUSH1 0x40 MLOAD DUP1 SWAP2 SUB SWAP1 REVERT JUMPDEST JUMP JUMPDEST PUSH2 0x8DA PUSH2 0xFB7 JUMP JUMPDEST PUSH1 0x1 PUSH0 DUP4 PUSH20 0xFFFFFFFFFFFFFFFFFFFFFFFFFFFFFFFFFFFFFFFF AND PUSH20 0xFFFFFFFFFFFFFFFFFFFFFFFFFFFFFFFFFFFFFFFF AND DUP2 MSTORE PUSH1 0x20 ADD SWAP1 DUP2 MSTORE PUSH1 0x20 ADD PUSH0 KECCAK256 PUSH1 0x40 MLOAD DUP1 PUSH1 0xA0 ADD PUSH1 0x40 MSTORE SWAP1 DUP2 PUSH0 DUP3 ADD SLOAD DUP2 MSTORE PUSH1 0x20 ADD PUSH1 0x1 DUP3 ADD DUP1 SLOAD PUSH2 0x93B SWAP1 PUSH2 0x1593 JUMP JUMPDEST DUP1 PUSH1 0x1F ADD PUSH1 0x20 DUP1 SWAP2 DIV MUL PUSH1 0x20 ADD PUSH1 0x40 MLOAD SWAP1 DUP2 ADD PUSH1 0x40 MSTORE DUP1 SWAP3 SWAP2 SWAP1 DUP2 DUP2 MSTORE PUSH1 0x20 ADD DUP3 DUP1 SLOAD PUSH2 0x967 SWAP1 PUSH2 0x1593 JUMP JUMPDEST DUP1 ISZERO PUSH2 0x9B2 JUMPI DUP1 PUSH1 0x1F LT PUSH2 0x989 JUMPI PUSH2 0x100 DUP1 DUP4 SLOAD DIV MUL DUP4 MSTORE SWAP2 PUSH1 0x20 ADD SWAP2 PUSH2 0x9B2 JUMP JUMPDEST DUP3 ADD SWAP2 SWAP1 PUSH0 MSTORE PUSH1 0x20 PUSH0 KECCAK256 SWAP1 JUMPDEST DUP2 SLOAD DUP2 MSTORE SWAP1 PUSH1 0x1 ADD SWAP1 PUSH1 0x20 ADD DUP1 DUP4 GT PUSH2 0x995 JUMPI DUP3 SWAP1 SUB PUSH1 0x1F AND DUP3 ADD SWAP2 JUMPDEST POP POP POP POP POP DUP2 MSTORE PUSH1 0x20 ADD PUSH1 0x2 DUP3 ADD PUSH0 SWAP1 SLOAD SWAP1 PUSH2 0x100 EXP SWAP1 DIV PUSH20 0xFFFFFFFFFFFFFFFFFFFFFFFFFFFFFFFFFFFFFFFF AND PUSH20 0xFFFFFFFFFFFFFFFFFFFFFFFFFFFFFFFFFFFFFFFF AND PUSH20 0xFFFFFFFFFFFFFFFFFFFFFFFFFFFFFFFFFFFFFFFF AND DUP2 MSTORE PUSH1 0x20 ADD PUSH1 0x3 DUP3 ADD SLOAD DUP2 MSTORE PUSH1 0x20 ADD PUSH1 0x4 DUP3 ADD SLOAD DUP2 MSTORE POP POP SWAP1 POP SWAP2 SWAP1 POP JUMP JUMPDEST PUSH1 0x6 SLOAD DUP2 JUMP JUMPDEST PUSH0 JUMPDEST PUSH1 0x4 DUP2 LT ISZERO PUSH2 0xADF JUMPI DUP1 PUSH1 0x4 PUSH2 0xA49 SWAP2 SWAP1 PUSH2 0x1465 JUMP JUMPDEST PUSH1 0x1 PUSH0 PUSH1 0x2 DUP5 PUSH1 0x4 DUP2 LT PUSH2 0xA60 JUMPI PUSH2 0xA5F PUSH2 0x15C3 JUMP JUMPDEST JUMPDEST ADD PUSH0 SWAP1 SLOAD SWAP1 PUSH2 0x100 EXP SWAP1 DIV PUSH20 0xFFFFFFFFFFFFFFFFFFFFFFFFFFFFFFFFFFFFFFFF AND PUSH20 0xFFFFFFFFFFFFFFFFFFFFFFFFFFFFFFFFFFFFFFFF AND PUSH20 0xFFFFFFFFFFFFFFFFFFFFFFFFFFFFFFFFFFFFFFFF AND DUP2 MSTORE PUSH1 0x20 ADD SWAP1 DUP2 MSTORE PUSH1 0x20 ADD PUSH0 KECCAK256 PUSH1 0x3 ADD PUSH0 DUP3 DUP3 SLOAD PUSH2 0xACB SWAP2 SWAP1 PUSH2 0x15F0 JUMP JUMPDEST SWAP3 POP POP DUP2 SWAP1 SSTORE POP DUP1 DUP1 PUSH1 0x1 ADD SWAP2 POP POP PUSH2 0xA33 JUMP JUMPDEST POP JUMP JUMPDEST PUSH0 PUSH1 0x1 PUSH0 CALLER PUSH20 0xFFFFFFFFFFFFFFFFFFFFFFFFFFFFFFFFFFFFFFFF AND PUSH20 0xFFFFFFFFFFFFFFFFFFFFFFFFFFFFFFFFFFFFFFFF AND DUP2 MSTORE PUSH1 0x20 ADD SWAP1 DUP2 MSTORE PUSH1 0x20 ADD PUSH0 KECCAK256 PUSH1 0x1 ADD DUP1 SLOAD PUSH2 0xB2E SWAP1 PUSH2 0x1593 JUMP JUMPDEST SWAP1 POP EQ ISZERO DUP1 ISZERO PUSH2 0xB96 JUMPI POP PUSH7 0x2386F26FC10000 CALLVALUE EQ DUP1 PUSH2 0xB95 JUMPI POP PUSH7 0x2386F26FC10000 PUSH1 0x1 PUSH0 CALLER PUSH20 0xFFFFFFFFFFFFFFFFFFFFFFFFFFFFFFFFFFFFFFFF AND PUSH20 0xFFFFFFFFFFFFFFFFFFFFFFFFFFFFFFFFFFFFFFFF AND DUP2 MSTORE PUSH1 0x20 ADD SWAP1 DUP2 MSTORE PUSH1 0x20 ADD PUSH0 KECCAK256 PUSH1 0x4 ADD SLOAD LT ISZERO JUMPDEST JUMPDEST PUSH2 0xBD5 JUMPI PUSH1 0x40 MLOAD PUSH32 0x8C379A000000000000000000000000000000000000000000000000000000000 DUP2 MSTORE PUSH1 0x4 ADD PUSH2 0xBCC SWAP1 PUSH2 0x166D JUMP JUMPDEST PUSH1 0x40 MLOAD DUP1 SWAP2 SUB SWAP1 REVERT JUMPDEST PUSH7 0x2386F26FC10000 CALLVALUE LT ISZERO PUSH2 0xC42 JUMPI PUSH7 0x2386F26FC10000 PUSH1 0x1 PUSH0 CALLER PUSH20 0xFFFFFFFFFFFFFFFFFFFFFFFFFFFFFFFFFFFFFFFF AND PUSH20 0xFFFFFFFFFFFFFFFFFFFFFFFFFFFFFFFFFFFFFFFF AND DUP2 MSTORE PUSH1 0x20 ADD SWAP1 DUP2 MSTORE PUSH1 0x20 ADD PUSH0 KECCAK256 PUSH1 0x4 ADD PUSH0 DUP3 DUP3 SLOAD PUSH2 0xC3A SWAP2 SWAP1 PUSH2 0x1465 JUMP JUMPDEST SWAP3 POP POP DUP2 SWAP1 SSTORE POP JUMPDEST PUSH1 0x3 PUSH2 0xC4C PUSH2 0xD1C JUMP JUMPDEST SUB PUSH2 0xCBF JUMPI CALLER PUSH1 0x2 PUSH1 0x3 PUSH1 0x4 DUP2 LT PUSH2 0xC67 JUMPI PUSH2 0xC66 PUSH2 0x15C3 JUMP JUMPDEST JUMPDEST ADD PUSH0 PUSH2 0x100 EXP DUP2 SLOAD DUP2 PUSH20 0xFFFFFFFFFFFFFFFFFFFFFFFFFFFFFFFFFFFFFFFF MUL NOT AND SWAP1 DUP4 PUSH20 0xFFFFFFFFFFFFFFFFFFFFFFFFFFFFFFFFFFFFFFFF AND MUL OR SWAP1 SSTORE POP PUSH2 0xCAD PUSH2 0xA31 JUMP JUMPDEST PUSH1 0x2 PUSH0 PUSH2 0xCBA SWAP2 SWAP1 PUSH2 0xFF8 JUMP JUMPDEST PUSH2 0xD1A JUMP JUMPDEST CALLER PUSH1 0x2 PUSH2 0xCCA PUSH2 0xD1C JUMP JUMPDEST PUSH1 0x4 DUP2 LT PUSH2 0xCDB JUMPI PUSH2 0xCDA PUSH2 0x15C3 JUMP JUMPDEST JUMPDEST ADD PUSH0 PUSH2 0x100 EXP DUP2 SLOAD DUP2 PUSH20 0xFFFFFFFFFFFFFFFFFFFFFFFFFFFFFFFFFFFFFFFF MUL NOT AND SWAP1 DUP4 PUSH20 0xFFFFFFFFFFFFFFFFFFFFFFFFFFFFFFFFFFFFFFFF AND MUL OR SWAP1 SSTORE POP JUMPDEST JUMP JUMPDEST PUSH0 DUP1 PUSH0 SWAP1 POP JUMPDEST PUSH1 0x4 DUP2 LT ISZERO PUSH2 0xDBB JUMPI PUSH0 PUSH1 0x1 PUSH0 PUSH1 0x2 DUP5 PUSH1 0x4 DUP2 LT PUSH2 0xD43 JUMPI PUSH2 0xD42 PUSH2 0x15C3 JUMP JUMPDEST JUMPDEST ADD PUSH0 SWAP1 SLOAD SWAP1 PUSH2 0x100 EXP SWAP1 DIV PUSH20 0xFFFFFFFFFFFFFFFFFFFFFFFFFFFFFFFFFFFFFFFF AND PUSH20 0xFFFFFFFFFFFFFFFFFFFFFFFFFFFFFFFFFFFFFFFF AND PUSH20 0xFFFFFFFFFFFFFFFFFFFFFFFFFFFFFFFFFFFFFFFF AND DUP2 MSTORE PUSH1 0x20 ADD SWAP1 DUP2 MSTORE PUSH1 0x20 ADD PUSH0 KECCAK256 PUSH0 ADD SLOAD SUB PUSH2 0xDAE JUMPI DUP1 SWAP2 POP POP PUSH2 0xDC1 JUMP JUMPDEST DUP1 DUP1 PUSH1 0x1 ADD SWAP2 POP POP PUSH2 0xD22 JUMP JUMPDEST POP PUSH1 0x4 SWAP1 POP JUMPDEST SWAP1 JUMP JUMPDEST PUSH0 PUSH1 0x1 PUSH0 CALLER PUSH20 0xFFFFFFFFFFFFFFFFFFFFFFFFFFFFFFFFFFFFFFFF AND PUSH20 0xFFFFFFFFFFFFFFFFFFFFFFFFFFFFFFFFFFFFFFFF AND DUP2 MSTORE PUSH1 0x20 ADD SWAP1 DUP2 MSTORE PUSH1 0x20 ADD PUSH0 KECCAK256 PUSH1 0x1 ADD DUP1 SLOAD PUSH2 0xE10 SWAP1 PUSH2 0x1593 JUMP JUMPDEST SWAP1 POP EQ PUSH2 0xE52 JUMPI PUSH1 0x40 MLOAD PUSH32 0x8C379A000000000000000000000000000000000000000000000000000000000 DUP2 MSTORE PUSH1 0x4 ADD PUSH2 0xE49 SWAP1 PUSH2 0x141A JUMP JUMPDEST PUSH1 0x40 MLOAD DUP1 SWAP2 SUB SWAP1 REVERT JUMPDEST PUSH1 0x40 MLOAD DUP1 PUSH1 0xA0 ADD PUSH1 0x40 MSTORE DUP1 PUSH1 0x6 PUSH0 DUP2 SLOAD DUP1 SWAP3 SWAP2 SWAP1 PUSH2 0xE6F SWAP1 PUSH2 0x168B JUMP JUMPDEST SWAP2 SWAP1 POP SSTORE DUP2 MSTORE PUSH1 0x20 ADD DUP3 DUP2 MSTORE PUSH1 0x20 ADD CALLER PUSH20 0xFFFFFFFFFFFFFFFFFFFFFFFFFFFFFFFFFFFFFFFF AND DUP2 MSTORE PUSH1 0x20 ADD PUSH0 DUP2 MSTORE PUSH1 0x20 ADD PUSH0 DUP2 MSTORE POP PUSH1 0x1 PUSH0 CALLER PUSH20 0xFFFFFFFFFFFFFFFFFFFFFFFFFFFFFFFFFFFFFFFF AND PUSH20 0xFFFFFFFFFFFFFFFFFFFFFFFFFFFFFFFFFFFFFFFF AND DUP2 MSTORE PUSH1 0x20 ADD SWAP1 DUP2 MSTORE PUSH1 0x20 ADD PUSH0 KECCAK256 PUSH0 DUP3 ADD MLOAD DUP2 PUSH0 ADD SSTORE PUSH1 0x20 DUP3 ADD MLOAD DUP2 PUSH1 0x1 ADD SWAP1 DUP2 PUSH2 0xEFE SWAP2 SWAP1 PUSH2 0x186F JUMP JUMPDEST POP PUSH1 0x40 DUP3 ADD MLOAD DUP2 PUSH1 0x2 ADD PUSH0 PUSH2 0x100 EXP DUP2 SLOAD DUP2 PUSH20 0xFFFFFFFFFFFFFFFFFFFFFFFFFFFFFFFFFFFFFFFF MUL NOT AND SWAP1 DUP4 PUSH20 0xFFFFFFFFFFFFFFFFFFFFFFFFFFFFFFFFFFFFFFFF AND MUL OR SWAP1 SSTORE POP PUSH1 0x60 DUP3 ADD MLOAD DUP2 PUSH1 0x3 ADD SSTORE PUSH1 0x80 DUP3 ADD MLOAD DUP2 PUSH1 0x4 ADD SSTORE SWAP1 POP POP POP JUMP JUMPDEST CALLVALUE PUSH1 0x1 PUSH0 CALLER PUSH20 0xFFFFFFFFFFFFFFFFFFFFFFFFFFFFFFFFFFFFFFFF AND PUSH20 0xFFFFFFFFFFFFFFFFFFFFFFFFFFFFFFFFFFFFFFFF AND DUP2 MSTORE PUSH1 0x20 ADD SWAP1 DUP2 MSTORE PUSH1 0x20 ADD PUSH0 KECCAK256 PUSH1 0x4 ADD PUSH0 DUP3 DUP3 SLOAD PUSH2 0xFAE SWAP2 SWAP1 PUSH2 0x15F0 JUMP JUMPDEST SWAP3 POP POP DUP2 SWAP1 SSTORE POP JUMP JUMPDEST PUSH1 0x40 MLOAD DUP1 PUSH1 0xA0 ADD PUSH1 0x40 MSTORE DUP1 PUSH0 DUP2 MSTORE PUSH1 0x20 ADD PUSH1 0x60 DUP2 MSTORE PUSH1 0x20 ADD PUSH0 PUSH20 0xFFFFFFFFFFFFFFFFFFFFFFFFFFFFFFFFFFFFFFFF AND DUP2 MSTORE PUSH1 0x20 ADD PUSH0 DUP2 MSTORE PUSH1 0x20 ADD PUSH0 DUP2 MSTORE POP SWAP1 JUMP JUMPDEST POP PUSH0 DUP2 SSTORE PUSH1 0x1 ADD PUSH0 DUP2 SSTORE PUSH1 0x1 ADD PUSH0 DUP2 SSTORE PUSH1 0x1 ADD PUSH0 SWAP1 SSTORE JUMP JUMPDEST PUSH0 PUSH1 0x40 MLOAD SWAP1 POP SWAP1 JUMP JUMPDEST PUSH0 DUP1 REVERT JUMPDEST PUSH0 DUP1 REVERT JUMPDEST PUSH0 DUP2 SWAP1 POP SWAP2 SWAP1 POP JUMP JUMPDEST PUSH2 0x1033 DUP2 PUSH2 0x1021 JUMP JUMPDEST DUP2 EQ PUSH2 0x103D JUMPI PUSH0 DUP1 REVERT JUMPDEST POP JUMP JUMPDEST PUSH0 DUP2 CALLDATALOAD SWAP1 POP PUSH2 0x104E DUP2 PUSH2 0x102A JUMP JUMPDEST SWAP3 SWAP2 POP POP JUMP JUMPDEST PUSH0 PUSH1 0x20 DUP3 DUP5 SUB SLT ISZERO PUSH2 0x1069 JUMPI PUSH2 0x1068 PUSH2 0x1019 JUMP JUMPDEST JUMPDEST PUSH0 PUSH2 0x1076 DUP5 DUP3 DUP6 ADD PUSH2 0x1040 JUMP JUMPDEST SWAP2 POP POP SWAP3 SWAP2 POP POP JUMP JUMPDEST PUSH0 PUSH20 0xFFFFFFFFFFFFFFFFFFFFFFFFFFFFFFFFFFFFFFFF DUP3 AND SWAP1 POP SWAP2 SWAP1 POP JUMP JUMPDEST PUSH0 PUSH2 0x10A8 DUP3 PUSH2 0x107F JUMP JUMPDEST SWAP1 POP SWAP2 SWAP1 POP JUMP JUMPDEST PUSH2 0x10B8 DUP2 PUSH2 0x109E JUMP JUMPDEST DUP2 EQ PUSH2 0x10C2 JUMPI PUSH0 DUP1 REVERT JUMPDEST POP JUMP JUMPDEST PUSH0 DUP2 CALLDATALOAD SWAP1 POP PUSH2 0x10D3 DUP2 PUSH2 0x10AF JUMP JUMPDEST SWAP3 SWAP2 POP POP JUMP JUMPDEST PUSH0 PUSH1 0x20 DUP3 DUP5 SUB SLT ISZERO PUSH2 0x10EE JUMPI PUSH2 0x10ED PUSH2 0x1019 JUMP JUMPDEST JUMPDEST PUSH0 PUSH2 0x10FB DUP5 DUP3 DUP6 ADD PUSH2 0x10C5 JUMP JUMPDEST SWAP2 POP POP SWAP3 SWAP2 POP POP JUMP JUMPDEST PUSH2 0x110D DUP2 PUSH2 0x1021 JUMP JUMPDEST DUP3 MSTORE POP POP JUMP JUMPDEST PUSH0 DUP2 MLOAD SWAP1 POP SWAP2 SWAP1 POP JUMP JUMPDEST PUSH0 DUP3 DUP3 MSTORE PUSH1 0x20 DUP3 ADD SWAP1 POP SWAP3 SWAP2 POP POP JUMP JUMPDEST DUP3 DUP2 DUP4 MCOPY PUSH0 DUP4 DUP4 ADD MSTORE POP POP POP JUMP JUMPDEST PUSH0 PUSH1 0x1F NOT PUSH1 0x1F DUP4 ADD AND SWAP1 POP SWAP2 SWAP1 POP JUMP JUMPDEST PUSH0 PUSH2 0x1155 DUP3 PUSH2 0x1113 JUMP JUMPDEST PUSH2 0x115F DUP2 DUP6 PUSH2 0x111D JUMP JUMPDEST SWAP4 POP PUSH2 0x116F DUP2 DUP6 PUSH1 0x20 DUP7 ADD PUSH2 0x112D JUMP JUMPDEST PUSH2 0x1178 DUP2 PUSH2 0x113B JUMP JUMPDEST DUP5 ADD SWAP2 POP POP SWAP3 SWAP2 POP POP JUMP JUMPDEST PUSH2 0x118C DUP2 PUSH2 0x109E JUMP JUMPDEST DUP3 MSTORE POP POP JUMP JUMPDEST PUSH0 PUSH1 0xA0 DUP4 ADD PUSH0 DUP4 ADD MLOAD PUSH2 0x11A7 PUSH0 DUP7 ADD DUP3 PUSH2 0x1104 JUMP JUMPDEST POP PUSH1 0x20 DUP4 ADD MLOAD DUP5 DUP3 SUB PUSH1 0x20 DUP7 ADD MSTORE PUSH2 0x11BF DUP3 DUP3 PUSH2 0x114B JUMP JUMPDEST SWAP2 POP POP PUSH1 0x40 DUP4 ADD MLOAD PUSH2 0x11D4 PUSH1 0x40 DUP7 ADD DUP3 PUSH2 0x1183 JUMP JUMPDEST POP PUSH1 0x60 DUP4 ADD MLOAD PUSH2 0x11E7 PUSH1 0x60 DUP7 ADD DUP3 PUSH2 0x1104 JUMP JUMPDEST POP PUSH1 0x80 DUP4 ADD MLOAD PUSH2 0x11FA PUSH1 0x80 DUP7 ADD DUP3 PUSH2 0x1104 JUMP JUMPDEST POP DUP1 SWAP2 POP POP SWAP3 SWAP2 POP POP JUMP JUMPDEST PUSH0 PUSH1 0x20 DUP3 ADD SWAP1 POP DUP2 DUP2 SUB PUSH0 DUP4 ADD MSTORE PUSH2 0x121D DUP2 DUP5 PUSH2 0x1192 JUMP JUMPDEST SWAP1 POP SWAP3 SWAP2 POP POP JUMP JUMPDEST PUSH2 0x122E DUP2 PUSH2 0x1021 JUMP JUMPDEST DUP3 MSTORE POP POP JUMP JUMPDEST PUSH0 PUSH1 0x20 DUP3 ADD SWAP1 POP PUSH2 0x1247 PUSH0 DUP4 ADD DUP5 PUSH2 0x1225 JUMP JUMPDEST SWAP3 SWAP2 POP POP JUMP JUMPDEST PUSH0 DUP1 REVERT JUMPDEST PUSH0 DUP1 REVERT JUMPDEST PUSH32 0x4E487B7100000000000000000000000000000000000000000000000000000000 PUSH0 MSTORE PUSH1 0x41 PUSH1 0x4 MSTORE PUSH1 0x24 PUSH0 REVERT JUMPDEST PUSH2 0x128B DUP3 PUSH2 0x113B JUMP JUMPDEST DUP2 ADD DUP2 DUP2 LT PUSH8 0xFFFFFFFFFFFFFFFF DUP3 GT OR ISZERO PUSH2 0x12AA JUMPI PUSH2 0x12A9 PUSH2 0x1255 JUMP JUMPDEST JUMPDEST DUP1 PUSH1 0x40 MSTORE POP POP POP JUMP JUMPDEST PUSH0 PUSH2 0x12BC PUSH2 0x1010 JUMP JUMPDEST SWAP1 POP PUSH2 0x12C8 DUP3 DUP3 PUSH2 0x1282 JUMP JUMPDEST SWAP2 SWAP1 POP JUMP JUMPDEST PUSH0 PUSH8 0xFFFFFFFFFFFFFFFF DUP3 GT ISZERO PUSH2 0x12E7 JUMPI PUSH2 0x12E6 PUSH2 0x1255 JUMP JUMPDEST JUMPDEST PUSH2 0x12F0 DUP3 PUSH2 0x113B JUMP JUMPDEST SWAP1 POP PUSH1 0x20 DUP2 ADD SWAP1 POP SWAP2 SWAP1 POP JUMP JUMPDEST DUP3 DUP2 DUP4 CALLDATACOPY PUSH0 DUP4 DUP4 ADD MSTORE POP POP POP JUMP JUMPDEST PUSH0 PUSH2 0x131D PUSH2 0x1318 DUP5 PUSH2 0x12CD JUMP JUMPDEST PUSH2 0x12B3 JUMP JUMPDEST SWAP1 POP DUP3 DUP2 MSTORE PUSH1 0x20 DUP2 ADD DUP5 DUP5 DUP5 ADD GT ISZERO PUSH2 0x1339 JUMPI PUSH2 0x1338 PUSH2 0x1251 JUMP JUMPDEST JUMPDEST PUSH2 0x1344 DUP5 DUP3 DUP6 PUSH2 0x12FD JUMP JUMPDEST POP SWAP4 SWAP3 POP POP POP JUMP JUMPDEST PUSH0 DUP3 PUSH1 0x1F DUP4 ADD SLT PUSH2 0x1360 JUMPI PUSH2 0x135F PUSH2 0x124D JUMP JUMPDEST JUMPDEST DUP2 CALLDATALOAD PUSH2 0x1370 DUP5 DUP3 PUSH1 0x20 DUP7 ADD PUSH2 0x130B JUMP JUMPDEST SWAP2 POP POP SWAP3 SWAP2 POP POP JUMP JUMPDEST PUSH0 PUSH1 0x20 DUP3 DUP5 SUB SLT ISZERO PUSH2 0x138E JUMPI PUSH2 0x138D PUSH2 0x1019 JUMP JUMPDEST JUMPDEST PUSH0 DUP3 ADD CALLDATALOAD PUSH8 0xFFFFFFFFFFFFFFFF DUP2 GT ISZERO PUSH2 0x13AB JUMPI PUSH2 0x13AA PUSH2 0x101D JUMP JUMPDEST JUMPDEST PUSH2 0x13B7 DUP5 DUP3 DUP6 ADD PUSH2 0x134C JUMP JUMPDEST SWAP2 POP POP SWAP3 SWAP2 POP POP JUMP JUMPDEST PUSH0 DUP3 DUP3 MSTORE PUSH1 0x20 DUP3 ADD SWAP1 POP SWAP3 SWAP2 POP POP JUMP JUMPDEST PUSH32 0x6E6F706500000000000000000000000000000000000000000000000000000000 PUSH0 DUP3 ADD MSTORE POP JUMP JUMPDEST PUSH0 PUSH2 0x1404 PUSH1 0x4 DUP4 PUSH2 0x13C0 JUMP JUMPDEST SWAP2 POP PUSH2 0x140F DUP3 PUSH2 0x13D0 JUMP JUMPDEST PUSH1 0x20 DUP3 ADD SWAP1 POP SWAP2 SWAP1 POP JUMP JUMPDEST PUSH0 PUSH1 0x20 DUP3 ADD SWAP1 POP DUP2 DUP2 SUB PUSH0 DUP4 ADD MSTORE PUSH2 0x1431 DUP2 PUSH2 0x13F8 JUMP JUMPDEST SWAP1 POP SWAP2 SWAP1 POP JUMP JUMPDEST PUSH32 0x4E487B7100000000000000000000000000000000000000000000000000000000 PUSH0 MSTORE PUSH1 0x11 PUSH1 0x4 MSTORE PUSH1 0x24 PUSH0 REVERT JUMPDEST PUSH0 PUSH2 0x146F DUP3 PUSH2 0x1021 JUMP JUMPDEST SWAP2 POP PUSH2 0x147A DUP4 PUSH2 0x1021 JUMP JUMPDEST SWAP3 POP DUP3 DUP3 SUB SWAP1 POP DUP2 DUP2 GT ISZERO PUSH2 0x1492 JUMPI PUSH2 0x1491 PUSH2 0x1438 JUMP JUMPDEST JUMPDEST SWAP3 SWAP2 POP POP JUMP JUMPDEST PUSH32 0x4E487B7100000000000000000000000000000000000000000000000000000000 PUSH0 MSTORE PUSH1 0x12 PUSH1 0x4 MSTORE PUSH1 0x24 PUSH0 REVERT JUMPDEST PUSH0 PUSH2 0x14CF DUP3 PUSH2 0x1021 JUMP JUMPDEST SWAP2 POP PUSH2 0x14DA DUP4 PUSH2 0x1021 JUMP JUMPDEST SWAP3 POP DUP3 PUSH2 0x14EA JUMPI PUSH2 0x14E9 PUSH2 0x1498 JUMP JUMPDEST JUMPDEST DUP3 DUP3 DIV SWAP1 POP SWAP3 SWAP2 POP POP JUMP JUMPDEST PUSH0 PUSH2 0x14FF DUP3 PUSH2 0x1021 JUMP JUMPDEST SWAP2 POP PUSH2 0x150A DUP4 PUSH2 0x1021 JUMP JUMPDEST SWAP3 POP DUP3 DUP3 MUL PUSH2 0x1518 DUP2 PUSH2 0x1021 JUMP JUMPDEST SWAP2 POP DUP3 DUP3 DIV DUP5 EQ DUP4 ISZERO OR PUSH2 0x152F JUMPI PUSH2 0x152E PUSH2 0x1438 JUMP JUMPDEST JUMPDEST POP SWAP3 SWAP2 POP POP JUMP JUMPDEST PUSH0 PUSH2 0x1540 DUP3 PUSH2 0x1021 JUMP JUMPDEST SWAP2 POP PUSH2 0x154B DUP4 PUSH2 0x1021 JUMP JUMPDEST SWAP3 POP DUP3 PUSH2 0x155B JUMPI PUSH2 0x155A PUSH2 0x1498 JUMP JUMPDEST JUMPDEST DUP3 DUP3 MOD SWAP1 POP SWAP3 SWAP2 POP POP JUMP JUMPDEST PUSH32 0x4E487B7100000000000000000000000000000000000000000000000000000000 PUSH0 MSTORE PUSH1 0x22 PUSH1 0x4 MSTORE PUSH1 0x24 PUSH0 REVERT JUMPDEST PUSH0 PUSH1 0x2 DUP3 DIV SWAP1 POP PUSH1 0x1 DUP3 AND DUP1 PUSH2 0x15AA JUMPI PUSH1 0x7F DUP3 AND SWAP2 POP JUMPDEST PUSH1 0x20 DUP3 LT DUP2 SUB PUSH2 0x15BD JUMPI PUSH2 0x15BC PUSH2 0x1566 JUMP JUMPDEST JUMPDEST POP SWAP2 SWAP1 POP JUMP JUMPDEST PUSH32 0x4E487B7100000000000000000000000000000000000000000000000000000000 PUSH0 MSTORE PUSH1 0x32 PUSH1 0x4 MSTORE PUSH1 0x24 PUSH0 REVERT JUMPDEST PUSH0 PUSH2 0x15FA DUP3 PUSH2 0x1021 JUMP JUMPDEST SWAP2 POP PUSH2 0x1605 DUP4 PUSH2 0x1021 JUMP JUMPDEST SWAP3 POP DUP3 DUP3 ADD SWAP1 POP DUP1 DUP3 GT ISZERO PUSH2 0x161D JUMPI PUSH2 0x161C PUSH2 0x1438 JUMP JUMPDEST JUMPDEST SWAP3 SWAP2 POP POP JUMP JUMPDEST PUSH32 0x4E6F706500000000000000000000000000000000000000000000000000000000 PUSH0 DUP3 ADD MSTORE POP JUMP JUMPDEST PUSH0 PUSH2 0x1657 PUSH1 0x4 DUP4 PUSH2 0x13C0 JUMP JUMPDEST SWAP2 POP PUSH2 0x1662 DUP3 PUSH2 0x1623 JUMP JUMPDEST PUSH1 0x20 DUP3 ADD SWAP1 POP SWAP2 SWAP1 POP JUMP JUMPDEST PUSH0 PUSH1 0x20 DUP3 ADD SWAP1 POP DUP2 DUP2 SUB PUSH0 DUP4 ADD MSTORE PUSH2 0x1684 DUP2 PUSH2 0x164B JUMP JUMPDEST SWAP1 POP SWAP2 SWAP1 POP JUMP JUMPDEST PUSH0 PUSH2 0x1695 DUP3 PUSH2 0x1021 JUMP JUMPDEST SWAP2 POP PUSH32 0xFFFFFFFFFFFFFFFFFFFFFFFFFFFFFFFFFFFFFFFFFFFFFFFFFFFFFFFFFFFFFFFF DUP3 SUB PUSH2 0x16C7 JUMPI PUSH2 0x16C6 PUSH2 0x1438 JUMP JUMPDEST JUMPDEST PUSH1 0x1 DUP3 ADD SWAP1 POP SWAP2 SWAP1 POP JUMP JUMPDEST PUSH0 DUP2 SWAP1 POP DUP2 PUSH0 MSTORE PUSH1 0x20 PUSH0 KECCAK256 SWAP1 POP SWAP2 SWAP1 POP JUMP JUMPDEST PUSH0 PUSH1 0x20 PUSH1 0x1F DUP4 ADD DIV SWAP1 POP SWAP2 SWAP1 POP JUMP JUMPDEST PUSH0 DUP3 DUP3 SHL SWAP1 POP SWAP3 SWAP2 POP POP JUMP JUMPDEST PUSH0 PUSH1 0x8 DUP4 MUL PUSH2 0x172E PUSH32 0xFFFFFFFFFFFFFFFFFFFFFFFFFFFFFFFFFFFFFFFFFFFFFFFFFFFFFFFFFFFFFFFF DUP3 PUSH2 0x16F3 JUMP JUMPDEST PUSH2 0x1738 DUP7 DUP4 PUSH2 0x16F3 JUMP JUMPDEST SWAP6 POP DUP1 NOT DUP5 AND SWAP4 POP DUP1 DUP7 AND DUP5 OR SWAP3 POP POP POP SWAP4 SWAP3 POP POP POP JUMP JUMPDEST PUSH0 DUP2 SWAP1 POP SWAP2 SWAP1 POP JUMP JUMPDEST PUSH0 PUSH2 0x1773 PUSH2 0x176E PUSH2 0x1769 DUP5 PUSH2 0x1021 JUMP JUMPDEST PUSH2 0x1750 JUMP JUMPDEST PUSH2 0x1021 JUMP JUMPDEST SWAP1 POP SWAP2 SWAP1 POP JUMP JUMPDEST PUSH0 DUP2 SWAP1 POP SWAP2 SWAP1 POP JUMP JUMPDEST PUSH2 0x178C DUP4 PUSH2 0x1759 JUMP JUMPDEST PUSH2 0x17A0 PUSH2 0x1798 DUP3 PUSH2 0x177A JUMP JUMPDEST DUP5 DUP5 SLOAD PUSH2 0x16FF JUMP JUMPDEST DUP3 SSTORE POP POP POP POP JUMP JUMPDEST PUSH0 SWAP1 JUMP JUMPDEST PUSH2 0x17B4 PUSH2 0x17A8 JUMP JUMPDEST PUSH2 0x17BF DUP2 DUP5 DUP5 PUSH2 0x1783 JUMP JUMPDEST POP POP POP JUMP JUMPDEST JUMPDEST DUP2 DUP2 LT ISZERO PUSH2 0x17E2 JUMPI PUSH2 0x17D7 PUSH0 DUP3 PUSH2 0x17AC JUMP JUMPDEST PUSH1 0x1 DUP2 ADD SWAP1 POP PUSH2 0x17C5 JUMP JUMPDEST POP POP JUMP JUMPDEST PUSH1 0x1F DUP3 GT ISZERO PUSH2 0x1827 JUMPI PUSH2 0x17F8 DUP2 PUSH2 0x16D2 JUMP JUMPDEST PUSH2 0x1801 DUP5 PUSH2 0x16E4 JUMP JUMPDEST DUP2 ADD PUSH1 0x20 DUP6 LT ISZERO PUSH2 0x1810 JUMPI DUP2 SWAP1 POP JUMPDEST PUSH2 0x1824 PUSH2 0x181C DUP6 PUSH2 0x16E4 JUMP JUMPDEST DUP4 ADD DUP3 PUSH2 0x17C4 JUMP JUMPDEST POP POP JUMPDEST POP POP POP JUMP JUMPDEST PUSH0 DUP3 DUP3 SHR SWAP1 POP SWAP3 SWAP2 POP POP JUMP JUMPDEST PUSH0 PUSH2 0x1847 PUSH0 NOT DUP5 PUSH1 0x8 MUL PUSH2 0x182C JUMP JUMPDEST NOT DUP1 DUP4 AND SWAP2 POP POP SWAP3 SWAP2 POP POP JUMP JUMPDEST PUSH0 PUSH2 0x185F DUP4 DUP4 PUSH2 0x1838 JUMP JUMPDEST SWAP2 POP DUP3 PUSH1 0x2 MUL DUP3 OR SWAP1 POP SWAP3 SWAP2 POP POP JUMP JUMPDEST PUSH2 0x1878 DUP3 PUSH2 0x1113 JUMP JUMPDEST PUSH8 0xFFFFFFFFFFFFFFFF DUP2 GT ISZERO PUSH2 0x1891 JUMPI PUSH2 0x1890 PUSH2 0x1255 JUMP JUMPDEST JUMPDEST PUSH2 0x189B DUP3 SLOAD PUSH2 0x1593 JUMP JUMPDEST PUSH2 0x18A6 DUP3 DUP3 DUP6 PUSH2 0x17E6 JUMP JUMPDEST PUSH0 PUSH1 0x20 SWAP1 POP PUSH1 0x1F DUP4 GT PUSH1 0x1 DUP2 EQ PUSH2 0x18D7 JUMPI PUSH0 DUP5 ISZERO PUSH2 0x18C5 JUMPI DUP3 DUP8 ADD MLOAD SWAP1 POP JUMPDEST PUSH2 0x18CF DUP6 DUP3 PUSH2 0x1854 JUMP JUMPDEST DUP7 SSTORE POP PUSH2 0x1936 JUMP JUMPDEST PUSH1 0x1F NOT DUP5 AND PUSH2 0x18E5 DUP7 PUSH2 0x16D2 JUMP JUMPDEST PUSH0 JUMPDEST DUP3 DUP2 LT ISZERO PUSH2 0x190C JUMPI DUP5 DUP10 ADD MLOAD DUP3 SSTORE PUSH1 0x1 DUP3 ADD SWAP2 POP PUSH1 0x20 DUP6 ADD SWAP5 POP PUSH1 0x20 DUP2 ADD SWAP1 POP PUSH2 0x18E7 JUMP JUMPDEST DUP7 DUP4 LT ISZERO PUSH2 0x1929 JUMPI DUP5 DUP10 ADD MLOAD PUSH2 0x1925 PUSH1 0x1F DUP10 AND DUP3 PUSH2 0x1838 JUMP JUMPDEST DUP4 SSTORE POP JUMPDEST PUSH1 0x1 PUSH1 0x2 DUP9 MUL ADD DUP9 SSTORE POP POP POP JUMPDEST POP POP POP POP POP POP JUMP INVALID LOG2 PUSH5 0x6970667358 0x22 SLT KECCAK256 0xE3 0x2C 0xE8 RETURNDATACOPY 0xB1 EXP SHR SUB 0xC RETURNDATASIZE LOG0 GASPRICE 0xE6 PUSH8 0xF99F793895796375 STOP PUSH27 0x8ED907CF4333A06B64736F6C634300081A00330000000000000000 "
				},
				"gasEstimates": {
					"creation": {
						"codeDepositCost": "1303200",
						"executionCost": "47725",
						"totalCost": "1350925"
					},
					"external": {
						"deposit()": "infinite",
						"getLength()": "infinite",
						"getScore()": "infinite",
						"idx()": "2425",
						"join()": "infinite",
						"search(address)": "infinite",
						"signIn(string)": "infinite",
						"withDraw(uint256)": "infinite",
						"withDrawMax()": "infinite",
						"withDrawOwner(uint256)": "infinite",
						"withDrawOwnerMax()": "infinite",
						"withDrawTen()": "infinite"
					}
				},
				"methodIdentifiers": {
					"deposit()": "d0e30db0",
					"getLength()": "be1c766b",
					"getScore()": "afd82067",
					"idx()": "795dbede",
					"join()": "b688a363",
					"search(address)": "657a2512",
					"signIn(string)": "c95f728a",
					"withDraw(uint256)": "14174f33",
					"withDrawMax()": "18d075c3",
					"withDrawOwner(uint256)": "36588975",
					"withDrawOwnerMax()": "4b841135",
					"withDrawTen()": "05039910"
				}
			},
			"storageLayout": {
				"storage": [
					{
						"astId": 738,
						"contract": "solidity_test/test4.sol:teacherAnswer",
						"label": "owner",
						"offset": 0,
						"slot": "0",
						"type": "t_address_payable"
					},
					{
						"astId": 743,
						"contract": "solidity_test/test4.sol:teacherAnswer",
						"label": "users",
						"offset": 0,
						"slot": "1",
						"type": "t_mapping(t_address,t_struct(USER)736_storage)"
					},
					{
						"astId": 747,
						"contract": "solidity_test/test4.sol:teacherAnswer",
						"label": "room",
						"offset": 0,
						"slot": "2",
						"type": "t_array(t_address)4_storage"
					},
					{
						"astId": 750,
						"contract": "solidity_test/test4.sol:teacherAnswer",
						"label": "idx",
						"offset": 0,
						"slot": "6",
						"type": "t_uint256"
					}
				],
				"types": {
					"t_address": {
						"encoding": "inplace",
						"label": "address",
						"numberOfBytes": "20"
					},
					"t_address_payable": {
						"encoding": "inplace",
						"label": "address payable",
						"numberOfBytes": "20"
					},
					"t_array(t_address)4_storage": {
						"base": "t_address",
						"encoding": "inplace",
						"label": "address[4]",
						"numberOfBytes": "128"
					},
					"t_mapping(t_address,t_struct(USER)736_storage)": {
						"encoding": "mapping",
						"key": "t_address",
						"label": "mapping(address => struct teacherAnswer.USER)",
						"numberOfBytes": "32",
						"value": "t_struct(USER)736_storage"
					},
					"t_string_storage": {
						"encoding": "bytes",
						"label": "string",
						"numberOfBytes": "32"
					},
					"t_struct(USER)736_storage": {
						"encoding": "inplace",
						"label": "struct teacherAnswer.USER",
						"members": [
							{
								"astId": 727,
								"contract": "solidity_test/test4.sol:teacherAnswer",
								"label": "number",
								"offset": 0,
								"slot": "0",
								"type": "t_uint256"
							},
							{
								"astId": 729,
								"contract": "solidity_test/test4.sol:teacherAnswer",
								"label": "name",
								"offset": 0,
								"slot": "1",
								"type": "t_string_storage"
							},
							{
								"astId": 731,
								"contract": "solidity_test/test4.sol:teacherAnswer",
								"label": "addr",
								"offset": 0,
								"slot": "2",
								"type": "t_address"
							},
							{
								"astId": 733,
								"contract": "solidity_test/test4.sol:teacherAnswer",
								"label": "score",
								"offset": 0,
								"slot": "3",
								"type": "t_uint256"
							},
							{
								"astId": 735,
								"contract": "solidity_test/test4.sol:teacherAnswer",
								"label": "balance",
								"offset": 0,
								"slot": "4",
								"type": "t_uint256"
							}
						],
						"numberOfBytes": "160"
					},
					"t_uint256": {
						"encoding": "inplace",
						"label": "uint256",
						"numberOfBytes": "32"
					}
				}
			},
			"userdoc": {
				"kind": "user",
				"methods": {},
				"version": 1
			}
		}
	}
}