{
	"solidity_test/test7.sol": {
		"a": {
			"abi": [
				{
					"inputs": [],
					"stateMutability": "nonpayable",
					"type": "constructor"
				},
				{
					"inputs": [],
					"name": "accelCar",
					"outputs": [],
					"stateMutability": "nonpayable",
					"type": "function"
				},
				{
					"inputs": [],
					"name": "brackCar",
					"outputs": [],
					"stateMutability": "nonpayable",
					"type": "function"
				},
				{
					"inputs": [],
					"name": "getCar",
					"outputs": [
						{
							"components": [
								{
									"internalType": "uint256",
									"name": "speed",
									"type": "uint256"
								},
								{
									"internalType": "uint256",
									"name": "fuel",
									"type": "uint256"
								},
								{
									"internalType": "bool",
									"name": "start",
									"type": "bool"
								}
							],
							"internalType": "struct a.car",
							"name": "",
							"type": "tuple"
						}
					],
					"stateMutability": "view",
					"type": "function"
				},
				{
					"inputs": [],
					"name": "getFuel",
					"outputs": [],
					"stateMutability": "payable",
					"type": "function"
				},
				{
					"inputs": [],
					"name": "startCar",
					"outputs": [
						{
							"components": [
								{
									"internalType": "uint256",
									"name": "speed",
									"type": "uint256"
								},
								{
									"internalType": "uint256",
									"name": "fuel",
									"type": "uint256"
								},
								{
									"internalType": "bool",
									"name": "start",
									"type": "bool"
								}
							],
							"internalType": "struct a.car",
							"name": "",
							"type": "tuple"
						}
					],
					"stateMutability": "nonpayable",
					"type": "function"
				},
				{
					"inputs": [],
					"name": "stopCar",
					"outputs": [
						{
							"components": [
								{
									"internalType": "uint256",
									"name": "speed",
									"type": "uint256"
								},
								{
									"internalType": "uint256",
									"name": "fuel",
									"type": "uint256"
								},
								{
									"internalType": "bool",
									"name": "start",
									"type": "bool"
								}
							],
							"internalType": "struct a.car",
							"name": "",
							"type": "tuple"
						}
					],
					"stateMutability": "nonpayable",
					"type": "function"
				}
			],
			"devdoc": {
				"kind": "dev",
				"methods": {},
				"version": 1
			},
			"evm": {
				"assembly": "    /* \"solidity_test/test7.sol\":67:3066  contract a {... */\n  mstore(0x40, 0x80)\n    /* \"solidity_test/test7.sol\":1130:1186  constructor () {... */\n  callvalue\n  dup1\n  iszero\n  tag_1\n  jumpi\n  0x00\n  dup1\n  revert\ntag_1:\n  pop\n    /* \"solidity_test/test7.sol\":1162:1178  car(0,100,false) */\n  mload(0x40)\n  dup1\n  0x60\n  add\n  0x40\n  mstore\n  dup1\n    /* \"solidity_test/test7.sol\":1166:1167  0 */\n  0x00\n    /* \"solidity_test/test7.sol\":1162:1178  car(0,100,false) */\n  dup2\n  mstore\n  0x20\n  add\n    /* \"solidity_test/test7.sol\":1168:1171  100 */\n  0x64\n    /* \"solidity_test/test7.sol\":1162:1178  car(0,100,false) */\n  dup2\n  mstore\n  0x20\n  add\n    /* \"solidity_test/test7.sol\":1172:1177  false */\n  0x00\n    /* \"solidity_test/test7.sol\":1162:1178  car(0,100,false) */\n  iszero\n  iszero\n  dup2\n  mstore\n  pop\n    /* \"solidity_test/test7.sol\":1156:1159  Car */\n  0x00\n    /* \"solidity_test/test7.sol\":1156:1178  Car = car(0,100,false) */\n  dup1\n  dup3\n  add\n  mload\n  dup2\n  0x00\n  add\n  sstore\n  0x20\n  dup3\n  add\n  mload\n  dup2\n  0x01\n  add\n  sstore\n  0x40\n  dup3\n  add\n  mload\n  dup2\n  0x02\n  add\n  exp(0x0100, 0x00)\n  dup2\n  sload\n  dup2\n  0xff\n  mul\n  not\n  and\n  swap1\n  dup4\n  iszero\n  iszero\n  mul\n  or\n  swap1\n  sstore\n  pop\n  swap1\n  pop\n  pop\n    /* \"solidity_test/test7.sol\":67:3066  contract a {... */\n  dataSize(sub_0)\n  dup1\n  dataOffset(sub_0)\n  0x00\n  codecopy\n  0x00\n  return\nstop\n\nsub_0: assembly {\n        /* \"solidity_test/test7.sol\":67:3066  contract a {... */\n      mstore(0x40, 0x80)\n      jumpi(tag_1, lt(calldatasize, 0x04))\n      shr(0xe0, calldataload(0x00))\n      dup1\n      0x7261a70c\n      eq\n      tag_2\n      jumpi\n      dup1\n      0xa59546f8\n      eq\n      tag_3\n      jumpi\n      dup1\n      0xb572ccb0\n      eq\n      tag_4\n      jumpi\n      dup1\n      0xca04c834\n      eq\n      tag_5\n      jumpi\n      dup1\n      0xd3c8640a\n      eq\n      tag_6\n      jumpi\n      dup1\n      0xdacffe7d\n      eq\n      tag_7\n      jumpi\n    tag_1:\n      0x00\n      dup1\n      revert\n        /* \"solidity_test/test7.sol\":1721:1897  function stopCar() public isStart returns(car memory) {... */\n    tag_2:\n      callvalue\n      dup1\n      iszero\n      tag_8\n      jumpi\n      0x00\n      dup1\n      revert\n    tag_8:\n      pop\n      tag_9\n      tag_10\n      jump\t// in\n    tag_9:\n      mload(0x40)\n      tag_11\n      swap2\n      swap1\n      tag_12\n      jump\t// in\n    tag_11:\n      mload(0x40)\n      dup1\n      swap2\n      sub\n      swap1\n      return\n        /* \"solidity_test/test7.sol\":2242:2414  function accelCar() public isStart{... */\n    tag_3:\n      callvalue\n      dup1\n      iszero\n      tag_13\n      jumpi\n      0x00\n      dup1\n      revert\n    tag_13:\n      pop\n      tag_14\n      tag_15\n      jump\t// in\n    tag_14:\n      stop\n        /* \"solidity_test/test7.sol\":1477:1605  function startCar() public isStop returns(car memory) {... */\n    tag_4:\n      callvalue\n      dup1\n      iszero\n      tag_16\n      jumpi\n      0x00\n      dup1\n      revert\n    tag_16:\n      pop\n      tag_17\n      tag_18\n      jump\t// in\n    tag_17:\n      mload(0x40)\n      tag_19\n      swap2\n      swap1\n      tag_12\n      jump\t// in\n    tag_19:\n      mload(0x40)\n      dup1\n      swap2\n      sub\n      swap1\n      return\n        /* \"solidity_test/test7.sol\":1905:1984  function getCar() public view returns(car memory) {... */\n    tag_5:\n      callvalue\n      dup1\n      iszero\n      tag_20\n      jumpi\n      0x00\n      dup1\n      revert\n    tag_20:\n      pop\n      tag_21\n      tag_22\n      jump\t// in\n    tag_21:\n      mload(0x40)\n      tag_23\n      swap2\n      swap1\n      tag_12\n      jump\t// in\n    tag_23:\n      mload(0x40)\n      dup1\n      swap2\n      sub\n      swap1\n      return\n        /* \"solidity_test/test7.sol\":2605:2722  function brackCar() public isStart {... */\n    tag_6:\n      callvalue\n      dup1\n      iszero\n      tag_24\n      jumpi\n      0x00\n      dup1\n      revert\n    tag_24:\n      pop\n      tag_25\n      tag_26\n      jump\t// in\n    tag_25:\n      stop\n        /* \"solidity_test/test7.sol\":2839:2968  function getFuel() public payable isStop{... */\n    tag_7:\n      tag_27\n      tag_28\n      jump\t// in\n    tag_27:\n      stop\n        /* \"solidity_test/test7.sol\":1721:1897  function stopCar() public isStart returns(car memory) {... */\n    tag_10:\n        /* \"solidity_test/test7.sol\":1763:1773  car memory */\n      tag_29\n      tag_30\n      jump\t// in\n    tag_29:\n        /* \"solidity_test/test7.sol\":1230:1233  Car */\n      0x00\n        /* \"solidity_test/test7.sol\":1230:1239  Car.start */\n      0x02\n      add\n      0x00\n      swap1\n      sload\n      swap1\n      0x0100\n      exp\n      swap1\n      div\n      0xff\n      and\n        /* \"solidity_test/test7.sol\":1222:1252  require(Car.start,\"start Car\") */\n      tag_32\n      jumpi\n      mload(0x40)\n      0x08c379a000000000000000000000000000000000000000000000000000000000\n      dup2\n      mstore\n      0x04\n      add\n      tag_33\n      swap1\n      tag_34\n      jump\t// in\n    tag_33:\n      mload(0x40)\n      dup1\n      swap2\n      sub\n      swap1\n      revert\n    tag_32:\n        /* \"solidity_test/test7.sol\":1807:1808  0 */\n      0x00\n        /* \"solidity_test/test7.sol\":1794:1797  Car */\n      dup1\n        /* \"solidity_test/test7.sol\":1794:1803  Car.speed */\n      0x00\n      add\n      sload\n        /* \"solidity_test/test7.sol\":1794:1808  Car.speed == 0 */\n      eq\n        /* \"solidity_test/test7.sol\":1786:1830  require(Car.speed == 0, \"speed should be 0\") */\n      tag_36\n      jumpi\n      mload(0x40)\n      0x08c379a000000000000000000000000000000000000000000000000000000000\n      dup2\n      mstore\n      0x04\n      add\n      tag_37\n      swap1\n      tag_38\n      jump\t// in\n    tag_37:\n      mload(0x40)\n      dup1\n      swap2\n      sub\n      swap1\n      revert\n    tag_36:\n        /* \"solidity_test/test7.sol\":1847:1868  car(0,Car.fuel,false) */\n      mload(0x40)\n      dup1\n      0x60\n      add\n      0x40\n      mstore\n      dup1\n        /* \"solidity_test/test7.sol\":1851:1852  0 */\n      0x00\n        /* \"solidity_test/test7.sol\":1847:1868  car(0,Car.fuel,false) */\n      dup2\n      mstore\n      0x20\n      add\n        /* \"solidity_test/test7.sol\":1853:1856  Car */\n      0x00\n        /* \"solidity_test/test7.sol\":1853:1861  Car.fuel */\n      0x01\n      add\n      sload\n        /* \"solidity_test/test7.sol\":1847:1868  car(0,Car.fuel,false) */\n      dup2\n      mstore\n      0x20\n      add\n        /* \"solidity_test/test7.sol\":1862:1867  false */\n      0x00\n        /* \"solidity_test/test7.sol\":1847:1868  car(0,Car.fuel,false) */\n      iszero\n      iszero\n      dup2\n      mstore\n      pop\n        /* \"solidity_test/test7.sol\":1841:1844  Car */\n      0x00\n        /* \"solidity_test/test7.sol\":1841:1868  Car = car(0,Car.fuel,false) */\n      dup1\n      dup3\n      add\n      mload\n      dup2\n      0x00\n      add\n      sstore\n      0x20\n      dup3\n      add\n      mload\n      dup2\n      0x01\n      add\n      sstore\n      0x40\n      dup3\n      add\n      mload\n      dup2\n      0x02\n      add\n      exp(0x0100, 0x00)\n      dup2\n      sload\n      dup2\n      0xff\n      mul\n      not\n      and\n      swap1\n      dup4\n      iszero\n      iszero\n      mul\n      or\n      swap1\n      sstore\n      pop\n      swap1\n      pop\n      pop\n        /* \"solidity_test/test7.sol\":1886:1889  Car */\n      0x00\n        /* \"solidity_test/test7.sol\":1879:1889  return Car */\n      mload(0x40)\n      dup1\n      0x60\n      add\n      0x40\n      mstore\n      swap1\n      dup2\n      0x00\n      dup3\n      add\n      sload\n      dup2\n      mstore\n      0x20\n      add\n      0x01\n      dup3\n      add\n      sload\n      dup2\n      mstore\n      0x20\n      add\n      0x02\n      dup3\n      add\n      0x00\n      swap1\n      sload\n      swap1\n      0x0100\n      exp\n      swap1\n      div\n      0xff\n      and\n      iszero\n      iszero\n      iszero\n      iszero\n      dup2\n      mstore\n      pop\n      pop\n      swap1\n      pop\n        /* \"solidity_test/test7.sol\":1721:1897  function stopCar() public isStart returns(car memory) {... */\n      swap1\n      jump\t// out\n        /* \"solidity_test/test7.sol\":2242:2414  function accelCar() public isStart{... */\n    tag_15:\n        /* \"solidity_test/test7.sol\":1230:1233  Car */\n      0x00\n        /* \"solidity_test/test7.sol\":1230:1239  Car.start */\n      0x02\n      add\n      0x00\n      swap1\n      sload\n      swap1\n      0x0100\n      exp\n      swap1\n      div\n      0xff\n      and\n        /* \"solidity_test/test7.sol\":1222:1252  require(Car.start,\"start Car\") */\n      tag_40\n      jumpi\n      mload(0x40)\n      0x08c379a000000000000000000000000000000000000000000000000000000000\n      dup2\n      mstore\n      0x04\n      add\n      tag_41\n      swap1\n      tag_34\n      jump\t// in\n    tag_41:\n      mload(0x40)\n      dup1\n      swap2\n      sub\n      swap1\n      revert\n    tag_40:\n        /* \"solidity_test/test7.sol\":2307:2309  30 */\n      0x1e\n        /* \"solidity_test/test7.sol\":2296:2299  Car */\n      0x00\n        /* \"solidity_test/test7.sol\":2296:2304  Car.fuel */\n      0x01\n      add\n      sload\n        /* \"solidity_test/test7.sol\":2296:2309  Car.fuel > 30 */\n      gt\n        /* \"solidity_test/test7.sol\":2295:2331  (Car.fuel > 30 ) && (Car.speed < 70) */\n      dup1\n      iszero\n      tag_43\n      jumpi\n      pop\n        /* \"solidity_test/test7.sol\":2328:2330  70 */\n      0x46\n        /* \"solidity_test/test7.sol\":2316:2319  Car */\n      0x00\n        /* \"solidity_test/test7.sol\":2316:2325  Car.speed */\n      dup1\n      add\n      sload\n        /* \"solidity_test/test7.sol\":2316:2330  Car.speed < 70 */\n      lt\n        /* \"solidity_test/test7.sol\":2295:2331  (Car.fuel > 30 ) && (Car.speed < 70) */\n    tag_43:\n        /* \"solidity_test/test7.sol\":2287:2355  require((Car.fuel > 30 ) && (Car.speed < 70), \"check fuel or speed\") */\n      tag_44\n      jumpi\n      mload(0x40)\n      0x08c379a000000000000000000000000000000000000000000000000000000000\n      dup2\n      mstore\n      0x04\n      add\n      tag_45\n      swap1\n      tag_46\n      jump\t// in\n    tag_45:\n      mload(0x40)\n      dup1\n      swap2\n      sub\n      swap1\n      revert\n    tag_44:\n        /* \"solidity_test/test7.sol\":2379:2381  10 */\n      0x0a\n        /* \"solidity_test/test7.sol\":2366:2369  Car */\n      0x00\n        /* \"solidity_test/test7.sol\":2366:2375  Car.speed */\n      dup1\n      add\n      0x00\n        /* \"solidity_test/test7.sol\":2366:2381  Car.speed += 10 */\n      dup3\n      dup3\n      sload\n      tag_47\n      swap2\n      swap1\n      tag_48\n      jump\t// in\n    tag_47:\n      swap3\n      pop\n      pop\n      dup2\n      swap1\n      sstore\n      pop\n        /* \"solidity_test/test7.sol\":2404:2406  20 */\n      0x14\n        /* \"solidity_test/test7.sol\":2392:2395  Car */\n      0x00\n        /* \"solidity_test/test7.sol\":2392:2400  Car.fuel */\n      0x01\n      add\n      0x00\n        /* \"solidity_test/test7.sol\":2392:2406  Car.fuel -= 20 */\n      dup3\n      dup3\n      sload\n      tag_49\n      swap2\n      swap1\n      tag_50\n      jump\t// in\n    tag_49:\n      swap3\n      pop\n      pop\n      dup2\n      swap1\n      sstore\n      pop\n        /* \"solidity_test/test7.sol\":2242:2414  function accelCar() public isStart{... */\n      jump\t// out\n        /* \"solidity_test/test7.sol\":1477:1605  function startCar() public isStop returns(car memory) {... */\n    tag_18:\n        /* \"solidity_test/test7.sol\":1519:1529  car memory */\n      tag_51\n      tag_30\n      jump\t// in\n    tag_51:\n        /* \"solidity_test/test7.sol\":1332:1337  false */\n      0x00\n        /* \"solidity_test/test7.sol\":1319:1337  Car.start == false */\n      iszero\n      iszero\n        /* \"solidity_test/test7.sol\":1319:1322  Car */\n      0x00\n        /* \"solidity_test/test7.sol\":1319:1328  Car.start */\n      0x02\n      add\n      0x00\n      swap1\n      sload\n      swap1\n      0x0100\n      exp\n      swap1\n      div\n      0xff\n      and\n        /* \"solidity_test/test7.sol\":1319:1337  Car.start == false */\n      iszero\n      iszero\n      eq\n        /* \"solidity_test/test7.sol\":1311:1350  require(Car.start == false,\"start Car\") */\n      tag_53\n      jumpi\n      mload(0x40)\n      0x08c379a000000000000000000000000000000000000000000000000000000000\n      dup2\n      mstore\n      0x04\n      add\n      tag_54\n      swap1\n      tag_34\n      jump\t// in\n    tag_54:\n      mload(0x40)\n      dup1\n      swap2\n      sub\n      swap1\n      revert\n    tag_53:\n        /* \"solidity_test/test7.sol\":1548:1576  car(Car.speed,Car.fuel,true) */\n      mload(0x40)\n      dup1\n      0x60\n      add\n      0x40\n      mstore\n      dup1\n        /* \"solidity_test/test7.sol\":1552:1555  Car */\n      0x00\n        /* \"solidity_test/test7.sol\":1552:1561  Car.speed */\n      dup1\n      add\n      sload\n        /* \"solidity_test/test7.sol\":1548:1576  car(Car.speed,Car.fuel,true) */\n      dup2\n      mstore\n      0x20\n      add\n        /* \"solidity_test/test7.sol\":1562:1565  Car */\n      0x00\n        /* \"solidity_test/test7.sol\":1562:1570  Car.fuel */\n      0x01\n      add\n      sload\n        /* \"solidity_test/test7.sol\":1548:1576  car(Car.speed,Car.fuel,true) */\n      dup2\n      mstore\n      0x20\n      add\n        /* \"solidity_test/test7.sol\":1571:1575  true */\n      0x01\n        /* \"solidity_test/test7.sol\":1548:1576  car(Car.speed,Car.fuel,true) */\n      iszero\n      iszero\n      dup2\n      mstore\n      pop\n        /* \"solidity_test/test7.sol\":1542:1545  Car */\n      0x00\n        /* \"solidity_test/test7.sol\":1542:1576  Car = car(Car.speed,Car.fuel,true) */\n      dup1\n      dup3\n      add\n      mload\n      dup2\n      0x00\n      add\n      sstore\n      0x20\n      dup3\n      add\n      mload\n      dup2\n      0x01\n      add\n      sstore\n      0x40\n      dup3\n      add\n      mload\n      dup2\n      0x02\n      add\n      exp(0x0100, 0x00)\n      dup2\n      sload\n      dup2\n      0xff\n      mul\n      not\n      and\n      swap1\n      dup4\n      iszero\n      iszero\n      mul\n      or\n      swap1\n      sstore\n      pop\n      swap1\n      pop\n      pop\n        /* \"solidity_test/test7.sol\":1594:1597  Car */\n      0x00\n        /* \"solidity_test/test7.sol\":1587:1597  return Car */\n      mload(0x40)\n      dup1\n      0x60\n      add\n      0x40\n      mstore\n      swap1\n      dup2\n      0x00\n      dup3\n      add\n      sload\n      dup2\n      mstore\n      0x20\n      add\n      0x01\n      dup3\n      add\n      sload\n      dup2\n      mstore\n      0x20\n      add\n      0x02\n      dup3\n      add\n      0x00\n      swap1\n      sload\n      swap1\n      0x0100\n      exp\n      swap1\n      div\n      0xff\n      and\n      iszero\n      iszero\n      iszero\n      iszero\n      dup2\n      mstore\n      pop\n      pop\n      swap1\n      pop\n        /* \"solidity_test/test7.sol\":1477:1605  function startCar() public isStop returns(car memory) {... */\n      swap1\n      jump\t// out\n        /* \"solidity_test/test7.sol\":1905:1984  function getCar() public view returns(car memory) {... */\n    tag_22:\n        /* \"solidity_test/test7.sol\":1943:1953  car memory */\n      tag_56\n      tag_30\n      jump\t// in\n    tag_56:\n        /* \"solidity_test/test7.sol\":1973:1976  Car */\n      0x00\n        /* \"solidity_test/test7.sol\":1966:1976  return Car */\n      mload(0x40)\n      dup1\n      0x60\n      add\n      0x40\n      mstore\n      swap1\n      dup2\n      0x00\n      dup3\n      add\n      sload\n      dup2\n      mstore\n      0x20\n      add\n      0x01\n      dup3\n      add\n      sload\n      dup2\n      mstore\n      0x20\n      add\n      0x02\n      dup3\n      add\n      0x00\n      swap1\n      sload\n      swap1\n      0x0100\n      exp\n      swap1\n      div\n      0xff\n      and\n      iszero\n      iszero\n      iszero\n      iszero\n      dup2\n      mstore\n      pop\n      pop\n      swap1\n      pop\n        /* \"solidity_test/test7.sol\":1905:1984  function getCar() public view returns(car memory) {... */\n      swap1\n      jump\t// out\n        /* \"solidity_test/test7.sol\":2605:2722  function brackCar() public isStart {... */\n    tag_26:\n        /* \"solidity_test/test7.sol\":1230:1233  Car */\n      0x00\n        /* \"solidity_test/test7.sol\":1230:1239  Car.start */\n      0x02\n      add\n      0x00\n      swap1\n      sload\n      swap1\n      0x0100\n      exp\n      swap1\n      div\n      0xff\n      and\n        /* \"solidity_test/test7.sol\":1222:1252  require(Car.start,\"start Car\") */\n      tag_59\n      jumpi\n      mload(0x40)\n      0x08c379a000000000000000000000000000000000000000000000000000000000\n      dup2\n      mstore\n      0x04\n      add\n      tag_60\n      swap1\n      tag_34\n      jump\t// in\n    tag_60:\n      mload(0x40)\n      dup1\n      swap2\n      sub\n      swap1\n      revert\n    tag_59:\n        /* \"solidity_test/test7.sol\":2671:2672  0 */\n      0x00\n        /* \"solidity_test/test7.sol\":2659:2662  Car */\n      dup1\n        /* \"solidity_test/test7.sol\":2659:2668  Car.speed */\n      0x00\n      add\n      sload\n        /* \"solidity_test/test7.sol\":2659:2672  Car.speed > 0 */\n      gt\n        /* \"solidity_test/test7.sol\":2651:2688  require(Car.speed > 0, \"check speed\") */\n      tag_62\n      jumpi\n      mload(0x40)\n      0x08c379a000000000000000000000000000000000000000000000000000000000\n      dup2\n      mstore\n      0x04\n      add\n      tag_63\n      swap1\n      tag_64\n      jump\t// in\n    tag_63:\n      mload(0x40)\n      dup1\n      swap2\n      sub\n      swap1\n      revert\n    tag_62:\n        /* \"solidity_test/test7.sol\":2712:2714  10 */\n      0x0a\n        /* \"solidity_test/test7.sol\":2699:2702  Car */\n      0x00\n        /* \"solidity_test/test7.sol\":2699:2708  Car.speed */\n      dup1\n      add\n      0x00\n        /* \"solidity_test/test7.sol\":2699:2714  Car.speed -= 10 */\n      dup3\n      dup3\n      sload\n      tag_65\n      swap2\n      swap1\n      tag_50\n      jump\t// in\n    tag_65:\n      swap3\n      pop\n      pop\n      dup2\n      swap1\n      sstore\n      pop\n        /* \"solidity_test/test7.sol\":2605:2722  function brackCar() public isStart {... */\n      jump\t// out\n        /* \"solidity_test/test7.sol\":2839:2968  function getFuel() public payable isStop{... */\n    tag_28:\n        /* \"solidity_test/test7.sol\":1332:1337  false */\n      0x00\n        /* \"solidity_test/test7.sol\":1319:1337  Car.start == false */\n      iszero\n      iszero\n        /* \"solidity_test/test7.sol\":1319:1322  Car */\n      0x00\n        /* \"solidity_test/test7.sol\":1319:1328  Car.start */\n      0x02\n      add\n      0x00\n      swap1\n      sload\n      swap1\n      0x0100\n      exp\n      swap1\n      div\n      0xff\n      and\n        /* \"solidity_test/test7.sol\":1319:1337  Car.start == false */\n      iszero\n      iszero\n      eq\n        /* \"solidity_test/test7.sol\":1311:1350  require(Car.start == false,\"start Car\") */\n      tag_67\n      jumpi\n      mload(0x40)\n      0x08c379a000000000000000000000000000000000000000000000000000000000\n      dup2\n      mstore\n      0x04\n      add\n      tag_68\n      swap1\n      tag_34\n      jump\t// in\n    tag_68:\n      mload(0x40)\n      dup1\n      swap2\n      sub\n      swap1\n      revert\n    tag_67:\n        /* \"solidity_test/test7.sol\":2911:2918  1 ether */\n      0x0de0b6b3a7640000\n        /* \"solidity_test/test7.sol\":2898:2907  msg.value */\n      callvalue\n        /* \"solidity_test/test7.sol\":2898:2918  msg.value == 1 ether */\n      eq\n        /* \"solidity_test/test7.sol\":2890:2934  require(msg.value == 1 ether, \"pay 1 ether\") */\n      tag_70\n      jumpi\n      mload(0x40)\n      0x08c379a000000000000000000000000000000000000000000000000000000000\n      dup2\n      mstore\n      0x04\n      add\n      tag_71\n      swap1\n      tag_72\n      jump\t// in\n    tag_71:\n      mload(0x40)\n      dup1\n      swap2\n      sub\n      swap1\n      revert\n    tag_70:\n        /* \"solidity_test/test7.sol\":2957:2960  100 */\n      0x64\n        /* \"solidity_test/test7.sol\":2945:2948  Car */\n      0x00\n        /* \"solidity_test/test7.sol\":2945:2953  Car.fuel */\n      0x01\n      add\n      0x00\n        /* \"solidity_test/test7.sol\":2945:2960  Car.fuel += 100 */\n      dup3\n      dup3\n      sload\n      tag_73\n      swap2\n      swap1\n      tag_48\n      jump\t// in\n    tag_73:\n      swap3\n      pop\n      pop\n      dup2\n      swap1\n      sstore\n      pop\n        /* \"solidity_test/test7.sol\":2839:2968  function getFuel() public payable isStop{... */\n      jump\t// out\n    tag_30:\n      mload(0x40)\n      dup1\n      0x60\n      add\n      0x40\n      mstore\n      dup1\n      0x00\n      dup2\n      mstore\n      0x20\n      add\n      0x00\n      dup2\n      mstore\n      0x20\n      add\n      iszero(iszero(0x00))\n      dup2\n      mstore\n      pop\n      swap1\n      jump\t// out\n        /* \"#utility.yul\":7:84   */\n    tag_74:\n        /* \"#utility.yul\":44:51   */\n      0x00\n        /* \"#utility.yul\":73:78   */\n      dup2\n        /* \"#utility.yul\":62:78   */\n      swap1\n      pop\n        /* \"#utility.yul\":7:84   */\n      swap2\n      swap1\n      pop\n      jump\t// out\n        /* \"#utility.yul\":90:198   */\n    tag_75:\n        /* \"#utility.yul\":167:191   */\n      tag_94\n        /* \"#utility.yul\":185:190   */\n      dup2\n        /* \"#utility.yul\":167:191   */\n      tag_74\n      jump\t// in\n    tag_94:\n        /* \"#utility.yul\":162:165   */\n      dup3\n        /* \"#utility.yul\":155:192   */\n      mstore\n        /* \"#utility.yul\":90:198   */\n      pop\n      pop\n      jump\t// out\n        /* \"#utility.yul\":204:294   */\n    tag_76:\n        /* \"#utility.yul\":238:245   */\n      0x00\n        /* \"#utility.yul\":281:286   */\n      dup2\n        /* \"#utility.yul\":274:287   */\n      iszero\n        /* \"#utility.yul\":267:288   */\n      iszero\n        /* \"#utility.yul\":256:288   */\n      swap1\n      pop\n        /* \"#utility.yul\":204:294   */\n      swap2\n      swap1\n      pop\n      jump\t// out\n        /* \"#utility.yul\":300:399   */\n    tag_77:\n        /* \"#utility.yul\":371:392   */\n      tag_97\n        /* \"#utility.yul\":386:391   */\n      dup2\n        /* \"#utility.yul\":371:392   */\n      tag_76\n      jump\t// in\n    tag_97:\n        /* \"#utility.yul\":366:369   */\n      dup3\n        /* \"#utility.yul\":359:393   */\n      mstore\n        /* \"#utility.yul\":300:399   */\n      pop\n      pop\n      jump\t// out\n        /* \"#utility.yul\":441:1104   */\n    tag_78:\n        /* \"#utility.yul\":574:578   */\n      0x60\n        /* \"#utility.yul\":569:572   */\n      dup3\n        /* \"#utility.yul\":565:579   */\n      add\n        /* \"#utility.yul\":662:666   */\n      0x00\n        /* \"#utility.yul\":655:660   */\n      dup3\n        /* \"#utility.yul\":651:667   */\n      add\n        /* \"#utility.yul\":645:668   */\n      mload\n        /* \"#utility.yul\":681:744   */\n      tag_99\n        /* \"#utility.yul\":738:742   */\n      0x00\n        /* \"#utility.yul\":733:736   */\n      dup6\n        /* \"#utility.yul\":729:743   */\n      add\n        /* \"#utility.yul\":715:727   */\n      dup3\n        /* \"#utility.yul\":681:744   */\n      tag_75\n      jump\t// in\n    tag_99:\n        /* \"#utility.yul\":589:754   */\n      pop\n        /* \"#utility.yul\":836:840   */\n      0x20\n        /* \"#utility.yul\":829:834   */\n      dup3\n        /* \"#utility.yul\":825:841   */\n      add\n        /* \"#utility.yul\":819:842   */\n      mload\n        /* \"#utility.yul\":855:918   */\n      tag_100\n        /* \"#utility.yul\":912:916   */\n      0x20\n        /* \"#utility.yul\":907:910   */\n      dup6\n        /* \"#utility.yul\":903:917   */\n      add\n        /* \"#utility.yul\":889:901   */\n      dup3\n        /* \"#utility.yul\":855:918   */\n      tag_75\n      jump\t// in\n    tag_100:\n        /* \"#utility.yul\":764:928   */\n      pop\n        /* \"#utility.yul\":1011:1015   */\n      0x40\n        /* \"#utility.yul\":1004:1009   */\n      dup3\n        /* \"#utility.yul\":1000:1016   */\n      add\n        /* \"#utility.yul\":994:1017   */\n      mload\n        /* \"#utility.yul\":1030:1087   */\n      tag_101\n        /* \"#utility.yul\":1081:1085   */\n      0x40\n        /* \"#utility.yul\":1076:1079   */\n      dup6\n        /* \"#utility.yul\":1072:1086   */\n      add\n        /* \"#utility.yul\":1058:1070   */\n      dup3\n        /* \"#utility.yul\":1030:1087   */\n      tag_77\n      jump\t// in\n    tag_101:\n        /* \"#utility.yul\":938:1097   */\n      pop\n        /* \"#utility.yul\":543:1104   */\n      pop\n        /* \"#utility.yul\":441:1104   */\n      pop\n      pop\n      jump\t// out\n        /* \"#utility.yul\":1110:1404   */\n    tag_12:\n        /* \"#utility.yul\":1239:1243   */\n      0x00\n        /* \"#utility.yul\":1277:1279   */\n      0x60\n        /* \"#utility.yul\":1266:1275   */\n      dup3\n        /* \"#utility.yul\":1262:1280   */\n      add\n        /* \"#utility.yul\":1254:1280   */\n      swap1\n      pop\n        /* \"#utility.yul\":1290:1397   */\n      tag_103\n        /* \"#utility.yul\":1394:1395   */\n      0x00\n        /* \"#utility.yul\":1383:1392   */\n      dup4\n        /* \"#utility.yul\":1379:1396   */\n      add\n        /* \"#utility.yul\":1370:1376   */\n      dup5\n        /* \"#utility.yul\":1290:1397   */\n      tag_78\n      jump\t// in\n    tag_103:\n        /* \"#utility.yul\":1110:1404   */\n      swap3\n      swap2\n      pop\n      pop\n      jump\t// out\n        /* \"#utility.yul\":1410:1579   */\n    tag_79:\n        /* \"#utility.yul\":1494:1505   */\n      0x00\n        /* \"#utility.yul\":1528:1534   */\n      dup3\n        /* \"#utility.yul\":1523:1526   */\n      dup3\n        /* \"#utility.yul\":1516:1535   */\n      mstore\n        /* \"#utility.yul\":1568:1572   */\n      0x20\n        /* \"#utility.yul\":1563:1566   */\n      dup3\n        /* \"#utility.yul\":1559:1573   */\n      add\n        /* \"#utility.yul\":1544:1573   */\n      swap1\n      pop\n        /* \"#utility.yul\":1410:1579   */\n      swap3\n      swap2\n      pop\n      pop\n      jump\t// out\n        /* \"#utility.yul\":1585:1744   */\n    tag_80:\n        /* \"#utility.yul\":1725:1736   */\n      0x7374617274204361720000000000000000000000000000000000000000000000\n        /* \"#utility.yul\":1721:1722   */\n      0x00\n        /* \"#utility.yul\":1713:1719   */\n      dup3\n        /* \"#utility.yul\":1709:1723   */\n      add\n        /* \"#utility.yul\":1702:1737   */\n      mstore\n        /* \"#utility.yul\":1585:1744   */\n      pop\n      jump\t// out\n        /* \"#utility.yul\":1750:2115   */\n    tag_81:\n        /* \"#utility.yul\":1892:1895   */\n      0x00\n        /* \"#utility.yul\":1913:1979   */\n      tag_107\n        /* \"#utility.yul\":1977:1978   */\n      0x09\n        /* \"#utility.yul\":1972:1975   */\n      dup4\n        /* \"#utility.yul\":1913:1979   */\n      tag_79\n      jump\t// in\n    tag_107:\n        /* \"#utility.yul\":1906:1979   */\n      swap2\n      pop\n        /* \"#utility.yul\":1988:2081   */\n      tag_108\n        /* \"#utility.yul\":2077:2080   */\n      dup3\n        /* \"#utility.yul\":1988:2081   */\n      tag_80\n      jump\t// in\n    tag_108:\n        /* \"#utility.yul\":2106:2108   */\n      0x20\n        /* \"#utility.yul\":2101:2104   */\n      dup3\n        /* \"#utility.yul\":2097:2109   */\n      add\n        /* \"#utility.yul\":2090:2109   */\n      swap1\n      pop\n        /* \"#utility.yul\":1750:2115   */\n      swap2\n      swap1\n      pop\n      jump\t// out\n        /* \"#utility.yul\":2121:2540   */\n    tag_34:\n        /* \"#utility.yul\":2287:2291   */\n      0x00\n        /* \"#utility.yul\":2325:2327   */\n      0x20\n        /* \"#utility.yul\":2314:2323   */\n      dup3\n        /* \"#utility.yul\":2310:2328   */\n      add\n        /* \"#utility.yul\":2302:2328   */\n      swap1\n      pop\n        /* \"#utility.yul\":2374:2383   */\n      dup2\n        /* \"#utility.yul\":2368:2372   */\n      dup2\n        /* \"#utility.yul\":2364:2384   */\n      sub\n        /* \"#utility.yul\":2360:2361   */\n      0x00\n        /* \"#utility.yul\":2349:2358   */\n      dup4\n        /* \"#utility.yul\":2345:2362   */\n      add\n        /* \"#utility.yul\":2338:2385   */\n      mstore\n        /* \"#utility.yul\":2402:2533   */\n      tag_110\n        /* \"#utility.yul\":2528:2532   */\n      dup2\n        /* \"#utility.yul\":2402:2533   */\n      tag_81\n      jump\t// in\n    tag_110:\n        /* \"#utility.yul\":2394:2533   */\n      swap1\n      pop\n        /* \"#utility.yul\":2121:2540   */\n      swap2\n      swap1\n      pop\n      jump\t// out\n        /* \"#utility.yul\":2546:2713   */\n    tag_82:\n        /* \"#utility.yul\":2686:2705   */\n      0x73706565642073686f756c642062652030000000000000000000000000000000\n        /* \"#utility.yul\":2682:2683   */\n      0x00\n        /* \"#utility.yul\":2674:2680   */\n      dup3\n        /* \"#utility.yul\":2670:2684   */\n      add\n        /* \"#utility.yul\":2663:2706   */\n      mstore\n        /* \"#utility.yul\":2546:2713   */\n      pop\n      jump\t// out\n        /* \"#utility.yul\":2719:3085   */\n    tag_83:\n        /* \"#utility.yul\":2861:2864   */\n      0x00\n        /* \"#utility.yul\":2882:2949   */\n      tag_113\n        /* \"#utility.yul\":2946:2948   */\n      0x11\n        /* \"#utility.yul\":2941:2944   */\n      dup4\n        /* \"#utility.yul\":2882:2949   */\n      tag_79\n      jump\t// in\n    tag_113:\n        /* \"#utility.yul\":2875:2949   */\n      swap2\n      pop\n        /* \"#utility.yul\":2958:3051   */\n      tag_114\n        /* \"#utility.yul\":3047:3050   */\n      dup3\n        /* \"#utility.yul\":2958:3051   */\n      tag_82\n      jump\t// in\n    tag_114:\n        /* \"#utility.yul\":3076:3078   */\n      0x20\n        /* \"#utility.yul\":3071:3074   */\n      dup3\n        /* \"#utility.yul\":3067:3079   */\n      add\n        /* \"#utility.yul\":3060:3079   */\n      swap1\n      pop\n        /* \"#utility.yul\":2719:3085   */\n      swap2\n      swap1\n      pop\n      jump\t// out\n        /* \"#utility.yul\":3091:3510   */\n    tag_38:\n        /* \"#utility.yul\":3257:3261   */\n      0x00\n        /* \"#utility.yul\":3295:3297   */\n      0x20\n        /* \"#utility.yul\":3284:3293   */\n      dup3\n        /* \"#utility.yul\":3280:3298   */\n      add\n        /* \"#utility.yul\":3272:3298   */\n      swap1\n      pop\n        /* \"#utility.yul\":3344:3353   */\n      dup2\n        /* \"#utility.yul\":3338:3342   */\n      dup2\n        /* \"#utility.yul\":3334:3354   */\n      sub\n        /* \"#utility.yul\":3330:3331   */\n      0x00\n        /* \"#utility.yul\":3319:3328   */\n      dup4\n        /* \"#utility.yul\":3315:3332   */\n      add\n        /* \"#utility.yul\":3308:3355   */\n      mstore\n        /* \"#utility.yul\":3372:3503   */\n      tag_116\n        /* \"#utility.yul\":3498:3502   */\n      dup2\n        /* \"#utility.yul\":3372:3503   */\n      tag_83\n      jump\t// in\n    tag_116:\n        /* \"#utility.yul\":3364:3503   */\n      swap1\n      pop\n        /* \"#utility.yul\":3091:3510   */\n      swap2\n      swap1\n      pop\n      jump\t// out\n        /* \"#utility.yul\":3516:3685   */\n    tag_84:\n        /* \"#utility.yul\":3656:3677   */\n      0x636865636b206675656c206f7220737065656400000000000000000000000000\n        /* \"#utility.yul\":3652:3653   */\n      0x00\n        /* \"#utility.yul\":3644:3650   */\n      dup3\n        /* \"#utility.yul\":3640:3654   */\n      add\n        /* \"#utility.yul\":3633:3678   */\n      mstore\n        /* \"#utility.yul\":3516:3685   */\n      pop\n      jump\t// out\n        /* \"#utility.yul\":3691:4057   */\n    tag_85:\n        /* \"#utility.yul\":3833:3836   */\n      0x00\n        /* \"#utility.yul\":3854:3921   */\n      tag_119\n        /* \"#utility.yul\":3918:3920   */\n      0x13\n        /* \"#utility.yul\":3913:3916   */\n      dup4\n        /* \"#utility.yul\":3854:3921   */\n      tag_79\n      jump\t// in\n    tag_119:\n        /* \"#utility.yul\":3847:3921   */\n      swap2\n      pop\n        /* \"#utility.yul\":3930:4023   */\n      tag_120\n        /* \"#utility.yul\":4019:4022   */\n      dup3\n        /* \"#utility.yul\":3930:4023   */\n      tag_84\n      jump\t// in\n    tag_120:\n        /* \"#utility.yul\":4048:4050   */\n      0x20\n        /* \"#utility.yul\":4043:4046   */\n      dup3\n        /* \"#utility.yul\":4039:4051   */\n      add\n        /* \"#utility.yul\":4032:4051   */\n      swap1\n      pop\n        /* \"#utility.yul\":3691:4057   */\n      swap2\n      swap1\n      pop\n      jump\t// out\n        /* \"#utility.yul\":4063:4482   */\n    tag_46:\n        /* \"#utility.yul\":4229:4233   */\n      0x00\n        /* \"#utility.yul\":4267:4269   */\n      0x20\n        /* \"#utility.yul\":4256:4265   */\n      dup3\n        /* \"#utility.yul\":4252:4270   */\n      add\n        /* \"#utility.yul\":4244:4270   */\n      swap1\n      pop\n        /* \"#utility.yul\":4316:4325   */\n      dup2\n        /* \"#utility.yul\":4310:4314   */\n      dup2\n        /* \"#utility.yul\":4306:4326   */\n      sub\n        /* \"#utility.yul\":4302:4303   */\n      0x00\n        /* \"#utility.yul\":4291:4300   */\n      dup4\n        /* \"#utility.yul\":4287:4304   */\n      add\n        /* \"#utility.yul\":4280:4327   */\n      mstore\n        /* \"#utility.yul\":4344:4475   */\n      tag_122\n        /* \"#utility.yul\":4470:4474   */\n      dup2\n        /* \"#utility.yul\":4344:4475   */\n      tag_85\n      jump\t// in\n    tag_122:\n        /* \"#utility.yul\":4336:4475   */\n      swap1\n      pop\n        /* \"#utility.yul\":4063:4482   */\n      swap2\n      swap1\n      pop\n      jump\t// out\n        /* \"#utility.yul\":4488:4668   */\n    tag_86:\n        /* \"#utility.yul\":4536:4613   */\n      0x4e487b7100000000000000000000000000000000000000000000000000000000\n        /* \"#utility.yul\":4533:4534   */\n      0x00\n        /* \"#utility.yul\":4526:4614   */\n      mstore\n        /* \"#utility.yul\":4633:4637   */\n      0x11\n        /* \"#utility.yul\":4630:4631   */\n      0x04\n        /* \"#utility.yul\":4623:4638   */\n      mstore\n        /* \"#utility.yul\":4657:4661   */\n      0x24\n        /* \"#utility.yul\":4654:4655   */\n      0x00\n        /* \"#utility.yul\":4647:4662   */\n      revert\n        /* \"#utility.yul\":4674:4865   */\n    tag_48:\n        /* \"#utility.yul\":4714:4717   */\n      0x00\n        /* \"#utility.yul\":4733:4753   */\n      tag_125\n        /* \"#utility.yul\":4751:4752   */\n      dup3\n        /* \"#utility.yul\":4733:4753   */\n      tag_74\n      jump\t// in\n    tag_125:\n        /* \"#utility.yul\":4728:4753   */\n      swap2\n      pop\n        /* \"#utility.yul\":4767:4787   */\n      tag_126\n        /* \"#utility.yul\":4785:4786   */\n      dup4\n        /* \"#utility.yul\":4767:4787   */\n      tag_74\n      jump\t// in\n    tag_126:\n        /* \"#utility.yul\":4762:4787   */\n      swap3\n      pop\n        /* \"#utility.yul\":4810:4811   */\n      dup3\n        /* \"#utility.yul\":4807:4808   */\n      dup3\n        /* \"#utility.yul\":4803:4812   */\n      add\n        /* \"#utility.yul\":4796:4812   */\n      swap1\n      pop\n        /* \"#utility.yul\":4831:4834   */\n      dup1\n        /* \"#utility.yul\":4828:4829   */\n      dup3\n        /* \"#utility.yul\":4825:4835   */\n      gt\n        /* \"#utility.yul\":4822:4858   */\n      iszero\n      tag_127\n      jumpi\n        /* \"#utility.yul\":4838:4856   */\n      tag_128\n      tag_86\n      jump\t// in\n    tag_128:\n        /* \"#utility.yul\":4822:4858   */\n    tag_127:\n        /* \"#utility.yul\":4674:4865   */\n      swap3\n      swap2\n      pop\n      pop\n      jump\t// out\n        /* \"#utility.yul\":4871:5065   */\n    tag_50:\n        /* \"#utility.yul\":4911:4915   */\n      0x00\n        /* \"#utility.yul\":4931:4951   */\n      tag_130\n        /* \"#utility.yul\":4949:4950   */\n      dup3\n        /* \"#utility.yul\":4931:4951   */\n      tag_74\n      jump\t// in\n    tag_130:\n        /* \"#utility.yul\":4926:4951   */\n      swap2\n      pop\n        /* \"#utility.yul\":4965:4985   */\n      tag_131\n        /* \"#utility.yul\":4983:4984   */\n      dup4\n        /* \"#utility.yul\":4965:4985   */\n      tag_74\n      jump\t// in\n    tag_131:\n        /* \"#utility.yul\":4960:4985   */\n      swap3\n      pop\n        /* \"#utility.yul\":5009:5010   */\n      dup3\n        /* \"#utility.yul\":5006:5007   */\n      dup3\n        /* \"#utility.yul\":5002:5011   */\n      sub\n        /* \"#utility.yul\":4994:5011   */\n      swap1\n      pop\n        /* \"#utility.yul\":5033:5034   */\n      dup2\n        /* \"#utility.yul\":5027:5031   */\n      dup2\n        /* \"#utility.yul\":5024:5035   */\n      gt\n        /* \"#utility.yul\":5021:5058   */\n      iszero\n      tag_132\n      jumpi\n        /* \"#utility.yul\":5038:5056   */\n      tag_133\n      tag_86\n      jump\t// in\n    tag_133:\n        /* \"#utility.yul\":5021:5058   */\n    tag_132:\n        /* \"#utility.yul\":4871:5065   */\n      swap3\n      swap2\n      pop\n      pop\n      jump\t// out\n        /* \"#utility.yul\":5071:5232   */\n    tag_87:\n        /* \"#utility.yul\":5211:5224   */\n      0x636865636b207370656564000000000000000000000000000000000000000000\n        /* \"#utility.yul\":5207:5208   */\n      0x00\n        /* \"#utility.yul\":5199:5205   */\n      dup3\n        /* \"#utility.yul\":5195:5209   */\n      add\n        /* \"#utility.yul\":5188:5225   */\n      mstore\n        /* \"#utility.yul\":5071:5232   */\n      pop\n      jump\t// out\n        /* \"#utility.yul\":5238:5604   */\n    tag_88:\n        /* \"#utility.yul\":5380:5383   */\n      0x00\n        /* \"#utility.yul\":5401:5468   */\n      tag_136\n        /* \"#utility.yul\":5465:5467   */\n      0x0b\n        /* \"#utility.yul\":5460:5463   */\n      dup4\n        /* \"#utility.yul\":5401:5468   */\n      tag_79\n      jump\t// in\n    tag_136:\n        /* \"#utility.yul\":5394:5468   */\n      swap2\n      pop\n        /* \"#utility.yul\":5477:5570   */\n      tag_137\n        /* \"#utility.yul\":5566:5569   */\n      dup3\n        /* \"#utility.yul\":5477:5570   */\n      tag_87\n      jump\t// in\n    tag_137:\n        /* \"#utility.yul\":5595:5597   */\n      0x20\n        /* \"#utility.yul\":5590:5593   */\n      dup3\n        /* \"#utility.yul\":5586:5598   */\n      add\n        /* \"#utility.yul\":5579:5598   */\n      swap1\n      pop\n        /* \"#utility.yul\":5238:5604   */\n      swap2\n      swap1\n      pop\n      jump\t// out\n        /* \"#utility.yul\":5610:6029   */\n    tag_64:\n        /* \"#utility.yul\":5776:5780   */\n      0x00\n        /* \"#utility.yul\":5814:5816   */\n      0x20\n        /* \"#utility.yul\":5803:5812   */\n      dup3\n        /* \"#utility.yul\":5799:5817   */\n      add\n        /* \"#utility.yul\":5791:5817   */\n      swap1\n      pop\n        /* \"#utility.yul\":5863:5872   */\n      dup2\n        /* \"#utility.yul\":5857:5861   */\n      dup2\n        /* \"#utility.yul\":5853:5873   */\n      sub\n        /* \"#utility.yul\":5849:5850   */\n      0x00\n        /* \"#utility.yul\":5838:5847   */\n      dup4\n        /* \"#utility.yul\":5834:5851   */\n      add\n        /* \"#utility.yul\":5827:5874   */\n      mstore\n        /* \"#utility.yul\":5891:6022   */\n      tag_139\n        /* \"#utility.yul\":6017:6021   */\n      dup2\n        /* \"#utility.yul\":5891:6022   */\n      tag_88\n      jump\t// in\n    tag_139:\n        /* \"#utility.yul\":5883:6022   */\n      swap1\n      pop\n        /* \"#utility.yul\":5610:6029   */\n      swap2\n      swap1\n      pop\n      jump\t// out\n        /* \"#utility.yul\":6035:6196   */\n    tag_89:\n        /* \"#utility.yul\":6175:6188   */\n      0x7061792031206574686572000000000000000000000000000000000000000000\n        /* \"#utility.yul\":6171:6172   */\n      0x00\n        /* \"#utility.yul\":6163:6169   */\n      dup3\n        /* \"#utility.yul\":6159:6173   */\n      add\n        /* \"#utility.yul\":6152:6189   */\n      mstore\n        /* \"#utility.yul\":6035:6196   */\n      pop\n      jump\t// out\n        /* \"#utility.yul\":6202:6568   */\n    tag_90:\n        /* \"#utility.yul\":6344:6347   */\n      0x00\n        /* \"#utility.yul\":6365:6432   */\n      tag_142\n        /* \"#utility.yul\":6429:6431   */\n      0x0b\n        /* \"#utility.yul\":6424:6427   */\n      dup4\n        /* \"#utility.yul\":6365:6432   */\n      tag_79\n      jump\t// in\n    tag_142:\n        /* \"#utility.yul\":6358:6432   */\n      swap2\n      pop\n        /* \"#utility.yul\":6441:6534   */\n      tag_143\n        /* \"#utility.yul\":6530:6533   */\n      dup3\n        /* \"#utility.yul\":6441:6534   */\n      tag_89\n      jump\t// in\n    tag_143:\n        /* \"#utility.yul\":6559:6561   */\n      0x20\n        /* \"#utility.yul\":6554:6557   */\n      dup3\n        /* \"#utility.yul\":6550:6562   */\n      add\n        /* \"#utility.yul\":6543:6562   */\n      swap1\n      pop\n        /* \"#utility.yul\":6202:6568   */\n      swap2\n      swap1\n      pop\n      jump\t// out\n        /* \"#utility.yul\":6574:6993   */\n    tag_72:\n        /* \"#utility.yul\":6740:6744   */\n      0x00\n        /* \"#utility.yul\":6778:6780   */\n      0x20\n        /* \"#utility.yul\":6767:6776   */\n      dup3\n        /* \"#utility.yul\":6763:6781   */\n      add\n        /* \"#utility.yul\":6755:6781   */\n      swap1\n      pop\n        /* \"#utility.yul\":6827:6836   */\n      dup2\n        /* \"#utility.yul\":6821:6825   */\n      dup2\n        /* \"#utility.yul\":6817:6837   */\n      sub\n        /* \"#utility.yul\":6813:6814   */\n      0x00\n        /* \"#utility.yul\":6802:6811   */\n      dup4\n        /* \"#utility.yul\":6798:6815   */\n      add\n        /* \"#utility.yul\":6791:6838   */\n      mstore\n        /* \"#utility.yul\":6855:6986   */\n      tag_145\n        /* \"#utility.yul\":6981:6985   */\n      dup2\n        /* \"#utility.yul\":6855:6986   */\n      tag_90\n      jump\t// in\n    tag_145:\n        /* \"#utility.yul\":6847:6986   */\n      swap1\n      pop\n        /* \"#utility.yul\":6574:6993   */\n      swap2\n      swap1\n      pop\n      jump\t// out\n\n    auxdata: 0xa2646970667358221220975931c14b8e34d608d2bb987c9a9b232d90f6f5b574c2edc4e15601b04eded664736f6c63430008190033\n}\n",
				"bytecode": {
					"linkReferences": {},
					"object": "6080604052348015600e575f80fd5b5060405180606001604052805f8152602001606481526020015f15158152505f80820151815f0155602082015181600101556040820151816002015f6101000a81548160ff0219169083151502179055509050506109508061006f5f395ff3fe608060405260043610610054575f3560e01c80637261a70c14610058578063a59546f814610082578063b572ccb014610098578063ca04c834146100c2578063d3c8640a146100ec578063dacffe7d14610102575b5f80fd5b348015610063575f80fd5b5061006c61010c565b6040516100799190610656565b60405180910390f35b34801561008d575f80fd5b5061009661023d565b005b3480156100a3575f80fd5b506100ac61031a565b6040516100b99190610656565b60405180910390f35b3480156100cd575f80fd5b506100d6610410565b6040516100e39190610656565b60405180910390f35b3480156100f7575f80fd5b50610100610456565b005b61010a610507565b005b6101146105c4565b5f6002015f9054906101000a900460ff16610164576040517f08c379a000000000000000000000000000000000000000000000000000000000815260040161015b906106c9565b60405180910390fd5b5f805f0154146101a9576040517f08c379a00000000000000000000000000000000000000000000000000000000081526004016101a090610731565b60405180910390fd5b60405180606001604052805f81526020015f6001015481526020015f15158152505f80820151815f0155602082015181600101556040820151816002015f6101000a81548160ff0219169083151502179055509050505f6040518060600160405290815f820154815260200160018201548152602001600282015f9054906101000a900460ff161515151581525050905090565b5f6002015f9054906101000a900460ff1661028d576040517f08c379a0000000000000000000000000000000000000000000000000000000008152600401610284906106c9565b60405180910390fd5b601e5f600101541180156102a4575060465f800154105b6102e3576040517f08c379a00000000000000000000000000000000000000000000000000000000081526004016102da90610799565b60405180910390fd5b600a5f80015f8282546102f691906107e4565b9250508190555060145f6001015f8282546103119190610817565b92505081905550565b6103226105c4565b5f15155f6002015f9054906101000a900460ff16151514610378576040517f08c379a000000000000000000000000000000000000000000000000000000000815260040161036f906106c9565b60405180910390fd5b60405180606001604052805f80015481526020015f600101548152602001600115158152505f80820151815f0155602082015181600101556040820151816002015f6101000a81548160ff0219169083151502179055509050505f6040518060600160405290815f820154815260200160018201548152602001600282015f9054906101000a900460ff161515151581525050905090565b6104186105c4565b5f6040518060600160405290815f820154815260200160018201548152602001600282015f9054906101000a900460ff161515151581525050905090565b5f6002015f9054906101000a900460ff166104a6576040517f08c379a000000000000000000000000000000000000000000000000000000000815260040161049d906106c9565b60405180910390fd5b5f805f0154116104eb576040517f08c379a00000000000000000000000000000000000000000000000000000000081526004016104e290610894565b60405180910390fd5b600a5f80015f8282546104fe9190610817565b92505081905550565b5f15155f6002015f9054906101000a900460ff1615151461055d576040517f08c379a0000000000000000000000000000000000000000000000000000000008152600401610554906106c9565b60405180910390fd5b670de0b6b3a764000034146105a7576040517f08c379a000000000000000000000000000000000000000000000000000000000815260040161059e906108fc565b60405180910390fd5b60645f6001015f8282546105bb91906107e4565b92505081905550565b60405180606001604052805f81526020015f81526020015f151581525090565b5f819050919050565b6105f6816105e4565b82525050565b5f8115159050919050565b610610816105fc565b82525050565b606082015f82015161062a5f8501826105ed565b50602082015161063d60208501826105ed565b5060408201516106506040850182610607565b50505050565b5f6060820190506106695f830184610616565b92915050565b5f82825260208201905092915050565b7f73746172742043617200000000000000000000000000000000000000000000005f82015250565b5f6106b360098361066f565b91506106be8261067f565b602082019050919050565b5f6020820190508181035f8301526106e0816106a7565b9050919050565b7f73706565642073686f756c6420626520300000000000000000000000000000005f82015250565b5f61071b60118361066f565b9150610726826106e7565b602082019050919050565b5f6020820190508181035f8301526107488161070f565b9050919050565b7f636865636b206675656c206f72207370656564000000000000000000000000005f82015250565b5f61078360138361066f565b915061078e8261074f565b602082019050919050565b5f6020820190508181035f8301526107b081610777565b9050919050565b7f4e487b71000000000000000000000000000000000000000000000000000000005f52601160045260245ffd5b5f6107ee826105e4565b91506107f9836105e4565b9250828201905080821115610811576108106107b7565b5b92915050565b5f610821826105e4565b915061082c836105e4565b9250828203905081811115610844576108436107b7565b5b92915050565b7f636865636b2073706565640000000000000000000000000000000000000000005f82015250565b5f61087e600b8361066f565b91506108898261084a565b602082019050919050565b5f6020820190508181035f8301526108ab81610872565b9050919050565b7f70617920312065746865720000000000000000000000000000000000000000005f82015250565b5f6108e6600b8361066f565b91506108f1826108b2565b602082019050919050565b5f6020820190508181035f830152610913816108da565b905091905056fea2646970667358221220975931c14b8e34d608d2bb987c9a9b232d90f6f5b574c2edc4e15601b04eded664736f6c63430008190033",
					"opcodes": "PUSH1 0x80 PUSH1 0x40 MSTORE CALLVALUE DUP1 ISZERO PUSH1 0xE JUMPI PUSH0 DUP1 REVERT JUMPDEST POP PUSH1 0x40 MLOAD DUP1 PUSH1 0x60 ADD PUSH1 0x40 MSTORE DUP1 PUSH0 DUP2 MSTORE PUSH1 0x20 ADD PUSH1 0x64 DUP2 MSTORE PUSH1 0x20 ADD PUSH0 ISZERO ISZERO DUP2 MSTORE POP PUSH0 DUP1 DUP3 ADD MLOAD DUP2 PUSH0 ADD SSTORE PUSH1 0x20 DUP3 ADD MLOAD DUP2 PUSH1 0x1 ADD SSTORE PUSH1 0x40 DUP3 ADD MLOAD DUP2 PUSH1 0x2 ADD PUSH0 PUSH2 0x100 EXP DUP2 SLOAD DUP2 PUSH1 0xFF MUL NOT AND SWAP1 DUP4 ISZERO ISZERO MUL OR SWAP1 SSTORE POP SWAP1 POP POP PUSH2 0x950 DUP1 PUSH2 0x6F PUSH0 CODECOPY PUSH0 RETURN INVALID PUSH1 0x80 PUSH1 0x40 MSTORE PUSH1 0x4 CALLDATASIZE LT PUSH2 0x54 JUMPI PUSH0 CALLDATALOAD PUSH1 0xE0 SHR DUP1 PUSH4 0x7261A70C EQ PUSH2 0x58 JUMPI DUP1 PUSH4 0xA59546F8 EQ PUSH2 0x82 JUMPI DUP1 PUSH4 0xB572CCB0 EQ PUSH2 0x98 JUMPI DUP1 PUSH4 0xCA04C834 EQ PUSH2 0xC2 JUMPI DUP1 PUSH4 0xD3C8640A EQ PUSH2 0xEC JUMPI DUP1 PUSH4 0xDACFFE7D EQ PUSH2 0x102 JUMPI JUMPDEST PUSH0 DUP1 REVERT JUMPDEST CALLVALUE DUP1 ISZERO PUSH2 0x63 JUMPI PUSH0 DUP1 REVERT JUMPDEST POP PUSH2 0x6C PUSH2 0x10C JUMP JUMPDEST PUSH1 0x40 MLOAD PUSH2 0x79 SWAP2 SWAP1 PUSH2 0x656 JUMP JUMPDEST PUSH1 0x40 MLOAD DUP1 SWAP2 SUB SWAP1 RETURN JUMPDEST CALLVALUE DUP1 ISZERO PUSH2 0x8D JUMPI PUSH0 DUP1 REVERT JUMPDEST POP PUSH2 0x96 PUSH2 0x23D JUMP JUMPDEST STOP JUMPDEST CALLVALUE DUP1 ISZERO PUSH2 0xA3 JUMPI PUSH0 DUP1 REVERT JUMPDEST POP PUSH2 0xAC PUSH2 0x31A JUMP JUMPDEST PUSH1 0x40 MLOAD PUSH2 0xB9 SWAP2 SWAP1 PUSH2 0x656 JUMP JUMPDEST PUSH1 0x40 MLOAD DUP1 SWAP2 SUB SWAP1 RETURN JUMPDEST CALLVALUE DUP1 ISZERO PUSH2 0xCD JUMPI PUSH0 DUP1 REVERT JUMPDEST POP PUSH2 0xD6 PUSH2 0x410 JUMP JUMPDEST PUSH1 0x40 MLOAD PUSH2 0xE3 SWAP2 SWAP1 PUSH2 0x656 JUMP JUMPDEST PUSH1 0x40 MLOAD DUP1 SWAP2 SUB SWAP1 RETURN JUMPDEST CALLVALUE DUP1 ISZERO PUSH2 0xF7 JUMPI PUSH0 DUP1 REVERT JUMPDEST POP PUSH2 0x100 PUSH2 0x456 JUMP JUMPDEST STOP JUMPDEST PUSH2 0x10A PUSH2 0x507 JUMP JUMPDEST STOP JUMPDEST PUSH2 0x114 PUSH2 0x5C4 JUMP JUMPDEST PUSH0 PUSH1 0x2 ADD PUSH0 SWAP1 SLOAD SWAP1 PUSH2 0x100 EXP SWAP1 DIV PUSH1 0xFF AND PUSH2 0x164 JUMPI PUSH1 0x40 MLOAD PUSH32 0x8C379A000000000000000000000000000000000000000000000000000000000 DUP2 MSTORE PUSH1 0x4 ADD PUSH2 0x15B SWAP1 PUSH2 0x6C9 JUMP JUMPDEST PUSH1 0x40 MLOAD DUP1 SWAP2 SUB SWAP1 REVERT JUMPDEST PUSH0 DUP1 PUSH0 ADD SLOAD EQ PUSH2 0x1A9 JUMPI PUSH1 0x40 MLOAD PUSH32 0x8C379A000000000000000000000000000000000000000000000000000000000 DUP2 MSTORE PUSH1 0x4 ADD PUSH2 0x1A0 SWAP1 PUSH2 0x731 JUMP JUMPDEST PUSH1 0x40 MLOAD DUP1 SWAP2 SUB SWAP1 REVERT JUMPDEST PUSH1 0x40 MLOAD DUP1 PUSH1 0x60 ADD PUSH1 0x40 MSTORE DUP1 PUSH0 DUP2 MSTORE PUSH1 0x20 ADD PUSH0 PUSH1 0x1 ADD SLOAD DUP2 MSTORE PUSH1 0x20 ADD PUSH0 ISZERO ISZERO DUP2 MSTORE POP PUSH0 DUP1 DUP3 ADD MLOAD DUP2 PUSH0 ADD SSTORE PUSH1 0x20 DUP3 ADD MLOAD DUP2 PUSH1 0x1 ADD SSTORE PUSH1 0x40 DUP3 ADD MLOAD DUP2 PUSH1 0x2 ADD PUSH0 PUSH2 0x100 EXP DUP2 SLOAD DUP2 PUSH1 0xFF MUL NOT AND SWAP1 DUP4 ISZERO ISZERO MUL OR SWAP1 SSTORE POP SWAP1 POP POP PUSH0 PUSH1 0x40 MLOAD DUP1 PUSH1 0x60 ADD PUSH1 0x40 MSTORE SWAP1 DUP2 PUSH0 DUP3 ADD SLOAD DUP2 MSTORE PUSH1 0x20 ADD PUSH1 0x1 DUP3 ADD SLOAD DUP2 MSTORE PUSH1 0x20 ADD PUSH1 0x2 DUP3 ADD PUSH0 SWAP1 SLOAD SWAP1 PUSH2 0x100 EXP SWAP1 DIV PUSH1 0xFF AND ISZERO ISZERO ISZERO ISZERO DUP2 MSTORE POP POP SWAP1 POP SWAP1 JUMP JUMPDEST PUSH0 PUSH1 0x2 ADD PUSH0 SWAP1 SLOAD SWAP1 PUSH2 0x100 EXP SWAP1 DIV PUSH1 0xFF AND PUSH2 0x28D JUMPI PUSH1 0x40 MLOAD PUSH32 0x8C379A000000000000000000000000000000000000000000000000000000000 DUP2 MSTORE PUSH1 0x4 ADD PUSH2 0x284 SWAP1 PUSH2 0x6C9 JUMP JUMPDEST PUSH1 0x40 MLOAD DUP1 SWAP2 SUB SWAP1 REVERT JUMPDEST PUSH1 0x1E PUSH0 PUSH1 0x1 ADD SLOAD GT DUP1 ISZERO PUSH2 0x2A4 JUMPI POP PUSH1 0x46 PUSH0 DUP1 ADD SLOAD LT JUMPDEST PUSH2 0x2E3 JUMPI PUSH1 0x40 MLOAD PUSH32 0x8C379A000000000000000000000000000000000000000000000000000000000 DUP2 MSTORE PUSH1 0x4 ADD PUSH2 0x2DA SWAP1 PUSH2 0x799 JUMP JUMPDEST PUSH1 0x40 MLOAD DUP1 SWAP2 SUB SWAP1 REVERT JUMPDEST PUSH1 0xA PUSH0 DUP1 ADD PUSH0 DUP3 DUP3 SLOAD PUSH2 0x2F6 SWAP2 SWAP1 PUSH2 0x7E4 JUMP JUMPDEST SWAP3 POP POP DUP2 SWAP1 SSTORE POP PUSH1 0x14 PUSH0 PUSH1 0x1 ADD PUSH0 DUP3 DUP3 SLOAD PUSH2 0x311 SWAP2 SWAP1 PUSH2 0x817 JUMP JUMPDEST SWAP3 POP POP DUP2 SWAP1 SSTORE POP JUMP JUMPDEST PUSH2 0x322 PUSH2 0x5C4 JUMP JUMPDEST PUSH0 ISZERO ISZERO PUSH0 PUSH1 0x2 ADD PUSH0 SWAP1 SLOAD SWAP1 PUSH2 0x100 EXP SWAP1 DIV PUSH1 0xFF AND ISZERO ISZERO EQ PUSH2 0x378 JUMPI PUSH1 0x40 MLOAD PUSH32 0x8C379A000000000000000000000000000000000000000000000000000000000 DUP2 MSTORE PUSH1 0x4 ADD PUSH2 0x36F SWAP1 PUSH2 0x6C9 JUMP JUMPDEST PUSH1 0x40 MLOAD DUP1 SWAP2 SUB SWAP1 REVERT JUMPDEST PUSH1 0x40 MLOAD DUP1 PUSH1 0x60 ADD PUSH1 0x40 MSTORE DUP1 PUSH0 DUP1 ADD SLOAD DUP2 MSTORE PUSH1 0x20 ADD PUSH0 PUSH1 0x1 ADD SLOAD DUP2 MSTORE PUSH1 0x20 ADD PUSH1 0x1 ISZERO ISZERO DUP2 MSTORE POP PUSH0 DUP1 DUP3 ADD MLOAD DUP2 PUSH0 ADD SSTORE PUSH1 0x20 DUP3 ADD MLOAD DUP2 PUSH1 0x1 ADD SSTORE PUSH1 0x40 DUP3 ADD MLOAD DUP2 PUSH1 0x2 ADD PUSH0 PUSH2 0x100 EXP DUP2 SLOAD DUP2 PUSH1 0xFF MUL NOT AND SWAP1 DUP4 ISZERO ISZERO MUL OR SWAP1 SSTORE POP SWAP1 POP POP PUSH0 PUSH1 0x40 MLOAD DUP1 PUSH1 0x60 ADD PUSH1 0x40 MSTORE SWAP1 DUP2 PUSH0 DUP3 ADD SLOAD DUP2 MSTORE PUSH1 0x20 ADD PUSH1 0x1 DUP3 ADD SLOAD DUP2 MSTORE PUSH1 0x20 ADD PUSH1 0x2 DUP3 ADD PUSH0 SWAP1 SLOAD SWAP1 PUSH2 0x100 EXP SWAP1 DIV PUSH1 0xFF AND ISZERO ISZERO ISZERO ISZERO DUP2 MSTORE POP POP SWAP1 POP SWAP1 JUMP JUMPDEST PUSH2 0x418 PUSH2 0x5C4 JUMP JUMPDEST PUSH0 PUSH1 0x40 MLOAD DUP1 PUSH1 0x60 ADD PUSH1 0x40 MSTORE SWAP1 DUP2 PUSH0 DUP3 ADD SLOAD DUP2 MSTORE PUSH1 0x20 ADD PUSH1 0x1 DUP3 ADD SLOAD DUP2 MSTORE PUSH1 0x20 ADD PUSH1 0x2 DUP3 ADD PUSH0 SWAP1 SLOAD SWAP1 PUSH2 0x100 EXP SWAP1 DIV PUSH1 0xFF AND ISZERO ISZERO ISZERO ISZERO DUP2 MSTORE POP POP SWAP1 POP SWAP1 JUMP JUMPDEST PUSH0 PUSH1 0x2 ADD PUSH0 SWAP1 SLOAD SWAP1 PUSH2 0x100 EXP SWAP1 DIV PUSH1 0xFF AND PUSH2 0x4A6 JUMPI PUSH1 0x40 MLOAD PUSH32 0x8C379A000000000000000000000000000000000000000000000000000000000 DUP2 MSTORE PUSH1 0x4 ADD PUSH2 0x49D SWAP1 PUSH2 0x6C9 JUMP JUMPDEST PUSH1 0x40 MLOAD DUP1 SWAP2 SUB SWAP1 REVERT JUMPDEST PUSH0 DUP1 PUSH0 ADD SLOAD GT PUSH2 0x4EB JUMPI PUSH1 0x40 MLOAD PUSH32 0x8C379A000000000000000000000000000000000000000000000000000000000 DUP2 MSTORE PUSH1 0x4 ADD PUSH2 0x4E2 SWAP1 PUSH2 0x894 JUMP JUMPDEST PUSH1 0x40 MLOAD DUP1 SWAP2 SUB SWAP1 REVERT JUMPDEST PUSH1 0xA PUSH0 DUP1 ADD PUSH0 DUP3 DUP3 SLOAD PUSH2 0x4FE SWAP2 SWAP1 PUSH2 0x817 JUMP JUMPDEST SWAP3 POP POP DUP2 SWAP1 SSTORE POP JUMP JUMPDEST PUSH0 ISZERO ISZERO PUSH0 PUSH1 0x2 ADD PUSH0 SWAP1 SLOAD SWAP1 PUSH2 0x100 EXP SWAP1 DIV PUSH1 0xFF AND ISZERO ISZERO EQ PUSH2 0x55D JUMPI PUSH1 0x40 MLOAD PUSH32 0x8C379A000000000000000000000000000000000000000000000000000000000 DUP2 MSTORE PUSH1 0x4 ADD PUSH2 0x554 SWAP1 PUSH2 0x6C9 JUMP JUMPDEST PUSH1 0x40 MLOAD DUP1 SWAP2 SUB SWAP1 REVERT JUMPDEST PUSH8 0xDE0B6B3A7640000 CALLVALUE EQ PUSH2 0x5A7 JUMPI PUSH1 0x40 MLOAD PUSH32 0x8C379A000000000000000000000000000000000000000000000000000000000 DUP2 MSTORE PUSH1 0x4 ADD PUSH2 0x59E SWAP1 PUSH2 0x8FC JUMP JUMPDEST PUSH1 0x40 MLOAD DUP1 SWAP2 SUB SWAP1 REVERT JUMPDEST PUSH1 0x64 PUSH0 PUSH1 0x1 ADD PUSH0 DUP3 DUP3 SLOAD PUSH2 0x5BB SWAP2 SWAP1 PUSH2 0x7E4 JUMP JUMPDEST SWAP3 POP POP DUP2 SWAP1 SSTORE POP JUMP JUMPDEST PUSH1 0x40 MLOAD DUP1 PUSH1 0x60 ADD PUSH1 0x40 MSTORE DUP1 PUSH0 DUP2 MSTORE PUSH1 0x20 ADD PUSH0 DUP2 MSTORE PUSH1 0x20 ADD PUSH0 ISZERO ISZERO DUP2 MSTORE POP SWAP1 JUMP JUMPDEST PUSH0 DUP2 SWAP1 POP SWAP2 SWAP1 POP JUMP JUMPDEST PUSH2 0x5F6 DUP2 PUSH2 0x5E4 JUMP JUMPDEST DUP3 MSTORE POP POP JUMP JUMPDEST PUSH0 DUP2 ISZERO ISZERO SWAP1 POP SWAP2 SWAP1 POP JUMP JUMPDEST PUSH2 0x610 DUP2 PUSH2 0x5FC JUMP JUMPDEST DUP3 MSTORE POP POP JUMP JUMPDEST PUSH1 0x60 DUP3 ADD PUSH0 DUP3 ADD MLOAD PUSH2 0x62A PUSH0 DUP6 ADD DUP3 PUSH2 0x5ED JUMP JUMPDEST POP PUSH1 0x20 DUP3 ADD MLOAD PUSH2 0x63D PUSH1 0x20 DUP6 ADD DUP3 PUSH2 0x5ED JUMP JUMPDEST POP PUSH1 0x40 DUP3 ADD MLOAD PUSH2 0x650 PUSH1 0x40 DUP6 ADD DUP3 PUSH2 0x607 JUMP JUMPDEST POP POP POP POP JUMP JUMPDEST PUSH0 PUSH1 0x60 DUP3 ADD SWAP1 POP PUSH2 0x669 PUSH0 DUP4 ADD DUP5 PUSH2 0x616 JUMP JUMPDEST SWAP3 SWAP2 POP POP JUMP JUMPDEST PUSH0 DUP3 DUP3 MSTORE PUSH1 0x20 DUP3 ADD SWAP1 POP SWAP3 SWAP2 POP POP JUMP JUMPDEST PUSH32 0x7374617274204361720000000000000000000000000000000000000000000000 PUSH0 DUP3 ADD MSTORE POP JUMP JUMPDEST PUSH0 PUSH2 0x6B3 PUSH1 0x9 DUP4 PUSH2 0x66F JUMP JUMPDEST SWAP2 POP PUSH2 0x6BE DUP3 PUSH2 0x67F JUMP JUMPDEST PUSH1 0x20 DUP3 ADD SWAP1 POP SWAP2 SWAP1 POP JUMP JUMPDEST PUSH0 PUSH1 0x20 DUP3 ADD SWAP1 POP DUP2 DUP2 SUB PUSH0 DUP4 ADD MSTORE PUSH2 0x6E0 DUP2 PUSH2 0x6A7 JUMP JUMPDEST SWAP1 POP SWAP2 SWAP1 POP JUMP JUMPDEST PUSH32 0x73706565642073686F756C642062652030000000000000000000000000000000 PUSH0 DUP3 ADD MSTORE POP JUMP JUMPDEST PUSH0 PUSH2 0x71B PUSH1 0x11 DUP4 PUSH2 0x66F JUMP JUMPDEST SWAP2 POP PUSH2 0x726 DUP3 PUSH2 0x6E7 JUMP JUMPDEST PUSH1 0x20 DUP3 ADD SWAP1 POP SWAP2 SWAP1 POP JUMP JUMPDEST PUSH0 PUSH1 0x20 DUP3 ADD SWAP1 POP DUP2 DUP2 SUB PUSH0 DUP4 ADD MSTORE PUSH2 0x748 DUP2 PUSH2 0x70F JUMP JUMPDEST SWAP1 POP SWAP2 SWAP1 POP JUMP JUMPDEST PUSH32 0x636865636B206675656C206F7220737065656400000000000000000000000000 PUSH0 DUP3 ADD MSTORE POP JUMP JUMPDEST PUSH0 PUSH2 0x783 PUSH1 0x13 DUP4 PUSH2 0x66F JUMP JUMPDEST SWAP2 POP PUSH2 0x78E DUP3 PUSH2 0x74F JUMP JUMPDEST PUSH1 0x20 DUP3 ADD SWAP1 POP SWAP2 SWAP1 POP JUMP JUMPDEST PUSH0 PUSH1 0x20 DUP3 ADD SWAP1 POP DUP2 DUP2 SUB PUSH0 DUP4 ADD MSTORE PUSH2 0x7B0 DUP2 PUSH2 0x777 JUMP JUMPDEST SWAP1 POP SWAP2 SWAP1 POP JUMP JUMPDEST PUSH32 0x4E487B7100000000000000000000000000000000000000000000000000000000 PUSH0 MSTORE PUSH1 0x11 PUSH1 0x4 MSTORE PUSH1 0x24 PUSH0 REVERT JUMPDEST PUSH0 PUSH2 0x7EE DUP3 PUSH2 0x5E4 JUMP JUMPDEST SWAP2 POP PUSH2 0x7F9 DUP4 PUSH2 0x5E4 JUMP JUMPDEST SWAP3 POP DUP3 DUP3 ADD SWAP1 POP DUP1 DUP3 GT ISZERO PUSH2 0x811 JUMPI PUSH2 0x810 PUSH2 0x7B7 JUMP JUMPDEST JUMPDEST SWAP3 SWAP2 POP POP JUMP JUMPDEST PUSH0 PUSH2 0x821 DUP3 PUSH2 0x5E4 JUMP JUMPDEST SWAP2 POP PUSH2 0x82C DUP4 PUSH2 0x5E4 JUMP JUMPDEST SWAP3 POP DUP3 DUP3 SUB SWAP1 POP DUP2 DUP2 GT ISZERO PUSH2 0x844 JUMPI PUSH2 0x843 PUSH2 0x7B7 JUMP JUMPDEST JUMPDEST SWAP3 SWAP2 POP POP JUMP JUMPDEST PUSH32 0x636865636B207370656564000000000000000000000000000000000000000000 PUSH0 DUP3 ADD MSTORE POP JUMP JUMPDEST PUSH0 PUSH2 0x87E PUSH1 0xB DUP4 PUSH2 0x66F JUMP JUMPDEST SWAP2 POP PUSH2 0x889 DUP3 PUSH2 0x84A JUMP JUMPDEST PUSH1 0x20 DUP3 ADD SWAP1 POP SWAP2 SWAP1 POP JUMP JUMPDEST PUSH0 PUSH1 0x20 DUP3 ADD SWAP1 POP DUP2 DUP2 SUB PUSH0 DUP4 ADD MSTORE PUSH2 0x8AB DUP2 PUSH2 0x872 JUMP JUMPDEST SWAP1 POP SWAP2 SWAP1 POP JUMP JUMPDEST PUSH32 0x7061792031206574686572000000000000000000000000000000000000000000 PUSH0 DUP3 ADD MSTORE POP JUMP JUMPDEST PUSH0 PUSH2 0x8E6 PUSH1 0xB DUP4 PUSH2 0x66F JUMP JUMPDEST SWAP2 POP PUSH2 0x8F1 DUP3 PUSH2 0x8B2 JUMP JUMPDEST PUSH1 0x20 DUP3 ADD SWAP1 POP SWAP2 SWAP1 POP JUMP JUMPDEST PUSH0 PUSH1 0x20 DUP3 ADD SWAP1 POP DUP2 DUP2 SUB PUSH0 DUP4 ADD MSTORE PUSH2 0x913 DUP2 PUSH2 0x8DA JUMP JUMPDEST SWAP1 POP SWAP2 SWAP1 POP JUMP INVALID LOG2 PUSH5 0x6970667358 0x22 SLT KECCAK256 SWAP8 MSIZE BALANCE 0xC1 0x4B DUP15 CALLVALUE 0xD6 ADDMOD 0xD2 0xBB SWAP9 PUSH29 0x9A9B232D90F6F5B574C2EDC4E15601B04EDED664736F6C634300081900 CALLER "
				},
				"gasEstimates": {
					"creation": {
						"codeDepositCost": "476800",
						"executionCost": "52009",
						"totalCost": "528809"
					},
					"external": {
						"accelCar()": "infinite",
						"brackCar()": "infinite",
						"getCar()": "infinite",
						"getFuel()": "infinite",
						"startCar()": "infinite",
						"stopCar()": "infinite"
					}
				},
				"methodIdentifiers": {
					"accelCar()": "a59546f8",
					"brackCar()": "d3c8640a",
					"getCar()": "ca04c834",
					"getFuel()": "dacffe7d",
					"startCar()": "b572ccb0",
					"stopCar()": "7261a70c"
				}
			},
			"storageLayout": {
				"storage": [
					{
						"astId": 11,
						"contract": "solidity_test/test7.sol:a",
						"label": "Car",
						"offset": 0,
						"slot": "0",
						"type": "t_struct(car)8_storage"
					},
					{
						"astId": 13,
						"contract": "solidity_test/test7.sol:a",
						"label": "wallet",
						"offset": 0,
						"slot": "3",
						"type": "t_address_payable"
					}
				],
				"types": {
					"t_address_payable": {
						"encoding": "inplace",
						"label": "address payable",
						"numberOfBytes": "20"
					},
					"t_bool": {
						"encoding": "inplace",
						"label": "bool",
						"numberOfBytes": "1"
					},
					"t_struct(car)8_storage": {
						"encoding": "inplace",
						"label": "struct a.car",
						"members": [
							{
								"astId": 3,
								"contract": "solidity_test/test7.sol:a",
								"label": "speed",
								"offset": 0,
								"slot": "0",
								"type": "t_uint256"
							},
							{
								"astId": 5,
								"contract": "solidity_test/test7.sol:a",
								"label": "fuel",
								"offset": 0,
								"slot": "1",
								"type": "t_uint256"
							},
							{
								"astId": 7,
								"contract": "solidity_test/test7.sol:a",
								"label": "start",
								"offset": 0,
								"slot": "2",
								"type": "t_bool"
							}
						],
						"numberOfBytes": "96"
					},
					"t_uint256": {
						"encoding": "inplace",
						"label": "uint256",
						"numberOfBytes": "32"
					}
				}
			},
			"userdoc": {
				"kind": "user",
				"methods": {},
				"version": 1
			}
		}
	}
}