{
	"solidity_test/test4.sol": {
		"A": {
			"abi": [
				{
					"inputs": [],
					"name": "deposit",
					"outputs": [
						{
							"internalType": "string",
							"name": "",
							"type": "string"
						}
					],
					"stateMutability": "payable",
					"type": "function"
				},
				{
					"inputs": [],
					"name": "get",
					"outputs": [
						{
							"internalType": "uint256[4]",
							"name": "",
							"type": "uint256[4]"
						}
					],
					"stateMutability": "view",
					"type": "function"
				},
				{
					"inputs": [],
					"name": "getUser",
					"outputs": [
						{
							"components": [
								{
									"internalType": "uint256",
									"name": "number",
									"type": "uint256"
								},
								{
									"internalType": "string",
									"name": "name",
									"type": "string"
								},
								{
									"internalType": "address",
									"name": "wallet",
									"type": "address"
								},
								{
									"internalType": "uint256",
									"name": "balance",
									"type": "uint256"
								},
								{
									"internalType": "uint256",
									"name": "score",
									"type": "uint256"
								}
							],
							"internalType": "struct A.User[]",
							"name": "",
							"type": "tuple[]"
						}
					],
					"stateMutability": "view",
					"type": "function"
				},
				{
					"inputs": [
						{
							"internalType": "string",
							"name": "_name",
							"type": "string"
						}
					],
					"name": "setUser",
					"outputs": [],
					"stateMutability": "nonpayable",
					"type": "function"
				}
			],
			"devdoc": {
				"kind": "dev",
				"methods": {},
				"version": 1
			},
			"evm": {
				"assembly": "    /* \"solidity_test/test4.sol\":75:3209  contract A {... */\n  mstore(0x40, 0x80)\n  callvalue\n  dup1\n  iszero\n  tag_1\n  jumpi\n  0x00\n  dup1\n  revert\ntag_1:\n  pop\n  dataSize(sub_0)\n  dup1\n  dataOffset(sub_0)\n  0x00\n  codecopy\n  0x00\n  return\nstop\n\nsub_0: assembly {\n        /* \"solidity_test/test4.sol\":75:3209  contract A {... */\n      mstore(0x40, 0x80)\n      jumpi(tag_1, lt(calldatasize, 0x04))\n      shr(0xe0, calldataload(0x00))\n      dup1\n      0x6d4ce63c\n      eq\n      tag_2\n      jumpi\n      dup1\n      0x832880e7\n      eq\n      tag_3\n      jumpi\n      dup1\n      0xd0020fad\n      eq\n      tag_4\n      jumpi\n      dup1\n      0xd0e30db0\n      eq\n      tag_5\n      jumpi\n    tag_1:\n      0x00\n      dup1\n      revert\n        /* \"solidity_test/test4.sol\":3125:3206  function get() public view returns(uint[4] memory) {... */\n    tag_2:\n      callvalue\n      dup1\n      iszero\n      tag_6\n      jumpi\n      0x00\n      dup1\n      revert\n    tag_6:\n      pop\n      tag_7\n      tag_8\n      jump\t// in\n    tag_7:\n      mload(0x40)\n      tag_9\n      swap2\n      swap1\n      tag_10\n      jump\t// in\n    tag_9:\n      mload(0x40)\n      dup1\n      swap2\n      sub\n      swap1\n      return\n        /* \"solidity_test/test4.sol\":2330:2415  function getUser() public view returns(User[] memory) {... */\n    tag_3:\n      callvalue\n      dup1\n      iszero\n      tag_11\n      jumpi\n      0x00\n      dup1\n      revert\n    tag_11:\n      pop\n      tag_12\n      tag_13\n      jump\t// in\n    tag_12:\n      mload(0x40)\n      tag_14\n      swap2\n      swap1\n      tag_15\n      jump\t// in\n    tag_14:\n      mload(0x40)\n      dup1\n      swap2\n      sub\n      swap1\n      return\n        /* \"solidity_test/test4.sol\":2018:2224  function setUser(string memory _name) public {... */\n    tag_4:\n      callvalue\n      dup1\n      iszero\n      tag_16\n      jumpi\n      0x00\n      dup1\n      revert\n    tag_16:\n      pop\n      tag_17\n      0x04\n      dup1\n      calldatasize\n      sub\n      dup2\n      add\n      swap1\n      tag_18\n      swap2\n      swap1\n      tag_19\n      jump\t// in\n    tag_18:\n      tag_20\n      jump\t// in\n    tag_17:\n      stop\n        /* \"solidity_test/test4.sol\":2534:3117  function deposit() public payable returns(string memory){... */\n    tag_5:\n      tag_21\n      tag_22\n      jump\t// in\n    tag_21:\n      mload(0x40)\n      tag_23\n      swap2\n      swap1\n      tag_24\n      jump\t// in\n    tag_23:\n      mload(0x40)\n      dup1\n      swap2\n      sub\n      swap1\n      return\n        /* \"solidity_test/test4.sol\":3125:3206  function get() public view returns(uint[4] memory) {... */\n    tag_8:\n        /* \"solidity_test/test4.sol\":3160:3174  uint[4] memory */\n      tag_25\n      tag_26\n      jump\t// in\n    tag_25:\n        /* \"solidity_test/test4.sol\":3194:3198  room */\n      0x00\n        /* \"solidity_test/test4.sol\":3187:3198  return room */\n      0x04\n      dup1\n      0x20\n      mul\n      mload(0x40)\n      swap1\n      dup2\n      add\n      0x40\n      mstore\n      dup1\n      swap3\n      swap2\n      swap1\n      dup3\n      0x04\n      dup1\n      iszero\n      tag_28\n      jumpi\n      0x20\n      mul\n      dup3\n      add\n      swap2\n    tag_29:\n      dup2\n      sload\n      dup2\n      mstore\n      0x20\n      add\n      swap1\n      0x01\n      add\n      swap1\n      dup1\n      dup4\n      gt\n      tag_29\n      jumpi\n    tag_28:\n      pop\n      pop\n      pop\n      pop\n      pop\n      swap1\n      pop\n        /* \"solidity_test/test4.sol\":3125:3206  function get() public view returns(uint[4] memory) {... */\n      swap1\n      jump\t// out\n        /* \"solidity_test/test4.sol\":2330:2415  function getUser() public view returns(User[] memory) {... */\n    tag_13:\n        /* \"solidity_test/test4.sol\":2369:2382  User[] memory */\n      0x60\n        /* \"solidity_test/test4.sol\":2402:2407  users */\n      0x04\n        /* \"solidity_test/test4.sol\":2395:2407  return users */\n      dup1\n      sload\n      dup1\n      0x20\n      mul\n      0x20\n      add\n      mload(0x40)\n      swap1\n      dup2\n      add\n      0x40\n      mstore\n      dup1\n      swap3\n      swap2\n      swap1\n      dup2\n      dup2\n      mstore\n      0x20\n      add\n      0x00\n      swap1\n    tag_31:\n      dup3\n      dup3\n      lt\n      iszero\n      tag_32\n      jumpi\n      dup4\n      dup3\n      swap1\n      0x00\n      mstore\n      keccak256(0x00, 0x20)\n      swap1\n      0x05\n      mul\n      add\n      mload(0x40)\n      dup1\n      0xa0\n      add\n      0x40\n      mstore\n      swap1\n      dup2\n      0x00\n      dup3\n      add\n      sload\n      dup2\n      mstore\n      0x20\n      add\n      0x01\n      dup3\n      add\n      dup1\n      sload\n      tag_34\n      swap1\n      tag_35\n      jump\t// in\n    tag_34:\n      dup1\n      0x1f\n      add\n      0x20\n      dup1\n      swap2\n      div\n      mul\n      0x20\n      add\n      mload(0x40)\n      swap1\n      dup2\n      add\n      0x40\n      mstore\n      dup1\n      swap3\n      swap2\n      swap1\n      dup2\n      dup2\n      mstore\n      0x20\n      add\n      dup3\n      dup1\n      sload\n      tag_36\n      swap1\n      tag_35\n      jump\t// in\n    tag_36:\n      dup1\n      iszero\n      tag_37\n      jumpi\n      dup1\n      0x1f\n      lt\n      tag_38\n      jumpi\n      0x0100\n      dup1\n      dup4\n      sload\n      div\n      mul\n      dup4\n      mstore\n      swap2\n      0x20\n      add\n      swap2\n      jump(tag_37)\n    tag_38:\n      dup3\n      add\n      swap2\n      swap1\n      0x00\n      mstore\n      keccak256(0x00, 0x20)\n      swap1\n    tag_39:\n      dup2\n      sload\n      dup2\n      mstore\n      swap1\n      0x01\n      add\n      swap1\n      0x20\n      add\n      dup1\n      dup4\n      gt\n      tag_39\n      jumpi\n      dup3\n      swap1\n      sub\n      0x1f\n      and\n      dup3\n      add\n      swap2\n    tag_37:\n      pop\n      pop\n      pop\n      pop\n      pop\n      dup2\n      mstore\n      0x20\n      add\n      0x02\n      dup3\n      add\n      0x00\n      swap1\n      sload\n      swap1\n      0x0100\n      exp\n      swap1\n      div\n      0xffffffffffffffffffffffffffffffffffffffff\n      and\n      0xffffffffffffffffffffffffffffffffffffffff\n      and\n      0xffffffffffffffffffffffffffffffffffffffff\n      and\n      dup2\n      mstore\n      0x20\n      add\n      0x03\n      dup3\n      add\n      sload\n      dup2\n      mstore\n      0x20\n      add\n      0x04\n      dup3\n      add\n      sload\n      dup2\n      mstore\n      pop\n      pop\n      dup2\n      mstore\n      0x20\n      add\n      swap1\n      0x01\n      add\n      swap1\n      jump(tag_31)\n    tag_32:\n      pop\n      pop\n      pop\n      pop\n      swap1\n      pop\n        /* \"solidity_test/test4.sol\":2330:2415  function getUser() public view returns(User[] memory) {... */\n      swap1\n      jump\t// out\n        /* \"solidity_test/test4.sol\":2018:2224  function setUser(string memory _name) public {... */\n    tag_20:\n        /* \"solidity_test/test4.sol\":2081:2141  User(users.length, _name, msg.sender, msg.sender.balance, 0) */\n      mload(0x40)\n      dup1\n      0xa0\n      add\n      0x40\n      mstore\n      dup1\n        /* \"solidity_test/test4.sol\":2086:2091  users */\n      0x04\n        /* \"solidity_test/test4.sol\":2086:2098  users.length */\n      dup1\n      sload\n      swap1\n      pop\n        /* \"solidity_test/test4.sol\":2081:2141  User(users.length, _name, msg.sender, msg.sender.balance, 0) */\n      dup2\n      mstore\n      0x20\n      add\n        /* \"solidity_test/test4.sol\":2100:2105  _name */\n      dup3\n        /* \"solidity_test/test4.sol\":2081:2141  User(users.length, _name, msg.sender, msg.sender.balance, 0) */\n      dup2\n      mstore\n      0x20\n      add\n        /* \"solidity_test/test4.sol\":2107:2117  msg.sender */\n      caller\n        /* \"solidity_test/test4.sol\":2081:2141  User(users.length, _name, msg.sender, msg.sender.balance, 0) */\n      0xffffffffffffffffffffffffffffffffffffffff\n      and\n      dup2\n      mstore\n      0x20\n      add\n        /* \"solidity_test/test4.sol\":2119:2129  msg.sender */\n      caller\n        /* \"solidity_test/test4.sol\":2119:2137  msg.sender.balance */\n      0xffffffffffffffffffffffffffffffffffffffff\n      and\n      balance\n        /* \"solidity_test/test4.sol\":2081:2141  User(users.length, _name, msg.sender, msg.sender.balance, 0) */\n      dup2\n      mstore\n      0x20\n      add\n        /* \"solidity_test/test4.sol\":2139:2140  0 */\n      0x00\n        /* \"solidity_test/test4.sol\":2081:2141  User(users.length, _name, msg.sender, msg.sender.balance, 0) */\n      dup2\n      mstore\n      pop\n        /* \"solidity_test/test4.sol\":2074:2078  user */\n      0x05\n        /* \"solidity_test/test4.sol\":2074:2141  user = User(users.length, _name, msg.sender, msg.sender.balance, 0) */\n      0x00\n      dup3\n      add\n      mload\n      dup2\n      0x00\n      add\n      sstore\n      0x20\n      dup3\n      add\n      mload\n      dup2\n      0x01\n      add\n      swap1\n      dup2\n      tag_41\n      swap2\n      swap1\n      tag_42\n      jump\t// in\n    tag_41:\n      pop\n      0x40\n      dup3\n      add\n      mload\n      dup2\n      0x02\n      add\n      exp(0x0100, 0x00)\n      dup2\n      sload\n      dup2\n      0xffffffffffffffffffffffffffffffffffffffff\n      mul\n      not\n      and\n      swap1\n      dup4\n      0xffffffffffffffffffffffffffffffffffffffff\n      and\n      mul\n      or\n      swap1\n      sstore\n      pop\n      0x60\n      dup3\n      add\n      mload\n      dup2\n      0x03\n      add\n      sstore\n      0x80\n      dup3\n      add\n      mload\n      dup2\n      0x04\n      add\n      sstore\n      swap1\n      pop\n      pop\n        /* \"solidity_test/test4.sol\":2152:2157  users */\n      0x04\n        /* \"solidity_test/test4.sol\":2163:2167  user */\n      0x05\n        /* \"solidity_test/test4.sol\":2152:2168  users.push(user) */\n      swap1\n      dup1\n      0x01\n      dup2\n      sload\n      add\n      dup1\n      dup3\n      sstore\n      dup1\n      swap2\n      pop\n      pop\n      0x01\n      swap1\n      sub\n      swap1\n      0x00\n      mstore\n      keccak256(0x00, 0x20)\n      swap1\n      0x05\n      mul\n      add\n      0x00\n      swap1\n      swap2\n      swap1\n      swap2\n      swap1\n      swap2\n      pop\n      0x00\n      dup3\n      add\n      sload\n      dup2\n      0x00\n      add\n      sstore\n      0x01\n      dup3\n      add\n      dup2\n      0x01\n      add\n      swap1\n      dup2\n      tag_44\n      swap2\n      swap1\n      tag_45\n      jump\t// in\n    tag_44:\n      pop\n      0x02\n      dup3\n      add\n      0x00\n      swap1\n      sload\n      swap1\n      0x0100\n      exp\n      swap1\n      div\n      0xffffffffffffffffffffffffffffffffffffffff\n      and\n      dup2\n      0x02\n      add\n      exp(0x0100, 0x00)\n      dup2\n      sload\n      dup2\n      0xffffffffffffffffffffffffffffffffffffffff\n      mul\n      not\n      and\n      swap1\n      dup4\n      0xffffffffffffffffffffffffffffffffffffffff\n      and\n      mul\n      or\n      swap1\n      sstore\n      pop\n      0x03\n      dup3\n      add\n      sload\n      dup2\n      0x03\n      add\n      sstore\n      0x04\n      dup3\n      add\n      sload\n      dup2\n      0x04\n      add\n      sstore\n      pop\n      pop\n        /* \"solidity_test/test4.sol\":2204:2209  users */\n      0x04\n        /* \"solidity_test/test4.sol\":2204:2216  users.length */\n      dup1\n      sload\n      swap1\n      pop\n        /* \"solidity_test/test4.sol\":2179:2189  userNumber */\n      0x0a\n        /* \"solidity_test/test4.sol\":2179:2201  userNumber[msg.sender] */\n      0x00\n        /* \"solidity_test/test4.sol\":2190:2200  msg.sender */\n      caller\n        /* \"solidity_test/test4.sol\":2179:2201  userNumber[msg.sender] */\n      0xffffffffffffffffffffffffffffffffffffffff\n      and\n      0xffffffffffffffffffffffffffffffffffffffff\n      and\n      dup2\n      mstore\n      0x20\n      add\n      swap1\n      dup2\n      mstore\n      0x20\n      add\n      0x00\n      keccak256\n        /* \"solidity_test/test4.sol\":2179:2216  userNumber[msg.sender] = users.length */\n      dup2\n      swap1\n      sstore\n      pop\n        /* \"solidity_test/test4.sol\":2018:2224  function setUser(string memory _name) public {... */\n      pop\n      jump\t// out\n        /* \"solidity_test/test4.sol\":2534:3117  function deposit() public payable returns(string memory){... */\n    tag_22:\n        /* \"solidity_test/test4.sol\":2576:2589  string memory */\n      0x60\n        /* \"solidity_test/test4.sol\":2617:2627  0.01 ether */\n      0x2386f26fc10000\n        /* \"solidity_test/test4.sol\":2604:2613  msg.value */\n      callvalue\n        /* \"solidity_test/test4.sol\":2604:2627  msg.value == 0.01 ether */\n      sub\n        /* \"solidity_test/test4.sol\":2601:3110  if(msg.value == 0.01 ether) {... */\n      tag_47\n      jumpi\n        /* \"solidity_test/test4.sol\":2648:2654  uint i */\n      0x00\n        /* \"solidity_test/test4.sol\":2644:2968  for(uint i=0;i < room.length; i++) {... */\n    tag_48:\n        /* \"solidity_test/test4.sol\":2661:2672  room.length */\n      0x04\n        /* \"solidity_test/test4.sol\":2657:2658  i */\n      dup2\n        /* \"solidity_test/test4.sol\":2657:2672  i < room.length */\n      lt\n        /* \"solidity_test/test4.sol\":2644:2968  for(uint i=0;i < room.length; i++) {... */\n      iszero\n      tag_49\n      jumpi\n        /* \"solidity_test/test4.sol\":2724:2725  0 */\n      0x00\n        /* \"solidity_test/test4.sol\":2701:2705  room */\n      dup1\n        /* \"solidity_test/test4.sol\":2718:2719  2 */\n      0x02\n        /* \"solidity_test/test4.sol\":2706:2717  room.length */\n      0x04\n        /* \"solidity_test/test4.sol\":2706:2719  room.length-2 */\n      tag_51\n      swap2\n      swap1\n      tag_52\n      jump\t// in\n    tag_51:\n        /* \"solidity_test/test4.sol\":2701:2720  room[room.length-2] */\n      0x04\n      dup2\n      lt\n      tag_53\n      jumpi\n      tag_54\n      tag_55\n      jump\t// in\n    tag_54:\n    tag_53:\n      add\n      sload\n        /* \"solidity_test/test4.sol\":2701:2725  room[room.length-2] != 0 */\n      eq\n        /* \"solidity_test/test4.sol\":2698:2953  if(room[room.length-2] != 0){... */\n      tag_57\n      jumpi\n        /* \"solidity_test/test4.sol\":2756:2760  room */\n      0x00\n      dup1\n        /* \"solidity_test/test4.sol\":2749:2760  delete room */\n      tag_58\n      swap2\n      swap1\n      tag_59\n      jump\t// in\n    tag_58:\n        /* \"solidity_test/test4.sol\":2783:2802  return \"room reset\" */\n      mload(0x40)\n      dup1\n      0x40\n      add\n      0x40\n      mstore\n      dup1\n      0x0a\n      dup2\n      mstore\n      0x20\n      add\n      0x726f6f6d20726573657400000000000000000000000000000000000000000000\n      dup2\n      mstore\n      pop\n      swap2\n      pop\n      pop\n      jump(tag_46)\n        /* \"solidity_test/test4.sol\":2698:2953  if(room[room.length-2] != 0){... */\n    tag_57:\n        /* \"solidity_test/test4.sol\":2842:2843  0 */\n      0x00\n        /* \"solidity_test/test4.sol\":2831:2835  room */\n      dup1\n        /* \"solidity_test/test4.sol\":2836:2837  i */\n      dup3\n        /* \"solidity_test/test4.sol\":2831:2838  room[i] */\n      0x04\n      dup2\n      lt\n      tag_61\n      jumpi\n      tag_62\n      tag_55\n      jump\t// in\n    tag_62:\n    tag_61:\n      add\n      sload\n        /* \"solidity_test/test4.sol\":2831:2843  room[i] == 0 */\n      sub\n        /* \"solidity_test/test4.sol\":2828:2953  if(room[i] == 0) {... */\n      tag_64\n      jumpi\n        /* \"solidity_test/test4.sol\":2878:2888  userNumber */\n      0x0a\n        /* \"solidity_test/test4.sol\":2878:2900  userNumber[msg.sender] */\n      0x00\n        /* \"solidity_test/test4.sol\":2889:2899  msg.sender */\n      caller\n        /* \"solidity_test/test4.sol\":2878:2900  userNumber[msg.sender] */\n      0xffffffffffffffffffffffffffffffffffffffff\n      and\n      0xffffffffffffffffffffffffffffffffffffffff\n      and\n      dup2\n      mstore\n      0x20\n      add\n      swap1\n      dup2\n      mstore\n      0x20\n      add\n      0x00\n      keccak256\n      sload\n        /* \"solidity_test/test4.sol\":2868:2872  room */\n      0x00\n        /* \"solidity_test/test4.sol\":2873:2874  i */\n      dup3\n        /* \"solidity_test/test4.sol\":2868:2875  room[i] */\n      0x04\n      dup2\n      lt\n      tag_65\n      jumpi\n      tag_66\n      tag_55\n      jump\t// in\n    tag_66:\n    tag_65:\n      add\n        /* \"solidity_test/test4.sol\":2868:2900  room[i] = userNumber[msg.sender] */\n      dup2\n      swap1\n      sstore\n      pop\n        /* \"solidity_test/test4.sol\":2923:2933  return \"O\" */\n      mload(0x40)\n      dup1\n      0x40\n      add\n      0x40\n      mstore\n      dup1\n      0x01\n      dup2\n      mstore\n      0x20\n      add\n      0x4f00000000000000000000000000000000000000000000000000000000000000\n      dup2\n      mstore\n      pop\n      swap2\n      pop\n      pop\n      jump(tag_46)\n        /* \"solidity_test/test4.sol\":2828:2953  if(room[i] == 0) {... */\n    tag_64:\n        /* \"solidity_test/test4.sol\":2674:2677  i++ */\n      dup1\n      dup1\n      0x01\n      add\n      swap2\n      pop\n      pop\n        /* \"solidity_test/test4.sol\":2644:2968  for(uint i=0;i < room.length; i++) {... */\n      jump(tag_48)\n    tag_49:\n      pop\n        /* \"solidity_test/test4.sol\":2982:3006  return \"joined the room\" */\n      mload(0x40)\n      dup1\n      0x40\n      add\n      0x40\n      mstore\n      dup1\n      0x0f\n      dup2\n      mstore\n      0x20\n      add\n      0x6a6f696e65642074686520726f6f6d0000000000000000000000000000000000\n      dup2\n      mstore\n      pop\n      swap1\n      pop\n      jump(tag_46)\n        /* \"solidity_test/test4.sol\":2601:3110  if(msg.value == 0.01 ether) {... */\n    tag_47:\n        /* \"solidity_test/test4.sol\":3039:3098  revert(\"need to pay 0.01 eth to join the room (10 Finney)\") */\n      mload(0x40)\n      0x08c379a000000000000000000000000000000000000000000000000000000000\n      dup2\n      mstore\n      0x04\n      add\n      tag_69\n      swap1\n      tag_70\n      jump\t// in\n    tag_69:\n      mload(0x40)\n      dup1\n      swap2\n      sub\n      swap1\n      revert\n        /* \"solidity_test/test4.sol\":2534:3117  function deposit() public payable returns(string memory){... */\n    tag_46:\n      swap1\n      jump\t// out\n    tag_26:\n      mload(0x40)\n      dup1\n      0x80\n      add\n      0x40\n      mstore\n      dup1\n      0x04\n      swap1\n      0x20\n      dup3\n      mul\n      dup1\n      calldatasize\n      dup4\n      calldatacopy\n      dup1\n      dup3\n      add\n      swap2\n      pop\n      pop\n      swap1\n      pop\n      pop\n      swap1\n      jump\t// out\n    tag_59:\n      pop\n      0x00\n      dup2\n      sstore\n      0x01\n      add\n      0x00\n      dup2\n      sstore\n      0x01\n      add\n      0x00\n      dup2\n      sstore\n      0x01\n      add\n      0x00\n      swap1\n      sstore\n      jump\t// out\n        /* \"#utility.yul\":7:111   */\n    tag_71:\n        /* \"#utility.yul\":72:78   */\n      0x00\n        /* \"#utility.yul\":100:104   */\n      0x04\n        /* \"#utility.yul\":90:104   */\n      swap1\n      pop\n        /* \"#utility.yul\":7:111   */\n      swap2\n      swap1\n      pop\n      jump\t// out\n        /* \"#utility.yul\":117:260   */\n    tag_72:\n        /* \"#utility.yul\":214:225   */\n      0x00\n        /* \"#utility.yul\":251:254   */\n      dup2\n        /* \"#utility.yul\":236:254   */\n      swap1\n      pop\n        /* \"#utility.yul\":117:260   */\n      swap3\n      swap2\n      pop\n      pop\n      jump\t// out\n        /* \"#utility.yul\":266:364   */\n    tag_73:\n        /* \"#utility.yul\":331:335   */\n      0x00\n        /* \"#utility.yul\":354:357   */\n      dup2\n        /* \"#utility.yul\":346:357   */\n      swap1\n      pop\n        /* \"#utility.yul\":266:364   */\n      swap2\n      swap1\n      pop\n      jump\t// out\n        /* \"#utility.yul\":370:447   */\n    tag_74:\n        /* \"#utility.yul\":407:414   */\n      0x00\n        /* \"#utility.yul\":436:441   */\n      dup2\n        /* \"#utility.yul\":425:441   */\n      swap1\n      pop\n        /* \"#utility.yul\":370:447   */\n      swap2\n      swap1\n      pop\n      jump\t// out\n        /* \"#utility.yul\":453:561   */\n    tag_75:\n        /* \"#utility.yul\":530:554   */\n      tag_134\n        /* \"#utility.yul\":548:553   */\n      dup2\n        /* \"#utility.yul\":530:554   */\n      tag_74\n      jump\t// in\n    tag_134:\n        /* \"#utility.yul\":525:528   */\n      dup3\n        /* \"#utility.yul\":518:555   */\n      mstore\n        /* \"#utility.yul\":453:561   */\n      pop\n      pop\n      jump\t// out\n        /* \"#utility.yul\":567:746   */\n    tag_76:\n        /* \"#utility.yul\":636:646   */\n      0x00\n        /* \"#utility.yul\":657:703   */\n      tag_136\n        /* \"#utility.yul\":699:702   */\n      dup4\n        /* \"#utility.yul\":691:697   */\n      dup4\n        /* \"#utility.yul\":657:703   */\n      tag_75\n      jump\t// in\n    tag_136:\n        /* \"#utility.yul\":735:739   */\n      0x20\n        /* \"#utility.yul\":730:733   */\n      dup4\n        /* \"#utility.yul\":726:740   */\n      add\n        /* \"#utility.yul\":712:740   */\n      swap1\n      pop\n        /* \"#utility.yul\":567:746   */\n      swap3\n      swap2\n      pop\n      pop\n      jump\t// out\n        /* \"#utility.yul\":752:863   */\n    tag_77:\n        /* \"#utility.yul\":820:824   */\n      0x00\n        /* \"#utility.yul\":852:856   */\n      0x20\n        /* \"#utility.yul\":847:850   */\n      dup3\n        /* \"#utility.yul\":843:857   */\n      add\n        /* \"#utility.yul\":835:857   */\n      swap1\n      pop\n        /* \"#utility.yul\":752:863   */\n      swap2\n      swap1\n      pop\n      jump\t// out\n        /* \"#utility.yul\":901:1595   */\n    tag_78:\n        /* \"#utility.yul\":1037:1089   */\n      tag_139\n        /* \"#utility.yul\":1083:1088   */\n      dup2\n        /* \"#utility.yul\":1037:1089   */\n      tag_71\n      jump\t// in\n    tag_139:\n        /* \"#utility.yul\":1105:1189   */\n      tag_140\n        /* \"#utility.yul\":1182:1188   */\n      dup2\n        /* \"#utility.yul\":1177:1180   */\n      dup5\n        /* \"#utility.yul\":1105:1189   */\n      tag_72\n      jump\t// in\n    tag_140:\n        /* \"#utility.yul\":1098:1189   */\n      swap3\n      pop\n        /* \"#utility.yul\":1213:1267   */\n      tag_141\n        /* \"#utility.yul\":1261:1266   */\n      dup3\n        /* \"#utility.yul\":1213:1267   */\n      tag_73\n      jump\t// in\n    tag_141:\n        /* \"#utility.yul\":1290:1297   */\n      dup1\n        /* \"#utility.yul\":1321:1322   */\n      0x00\n        /* \"#utility.yul\":1306:1588   */\n    tag_142:\n        /* \"#utility.yul\":1331:1337   */\n      dup4\n        /* \"#utility.yul\":1328:1329   */\n      dup2\n        /* \"#utility.yul\":1325:1338   */\n      lt\n        /* \"#utility.yul\":1306:1588   */\n      iszero\n      tag_144\n      jumpi\n        /* \"#utility.yul\":1407:1413   */\n      dup2\n        /* \"#utility.yul\":1401:1414   */\n      mload\n        /* \"#utility.yul\":1434:1497   */\n      tag_145\n        /* \"#utility.yul\":1493:1496   */\n      dup8\n        /* \"#utility.yul\":1478:1491   */\n      dup3\n        /* \"#utility.yul\":1434:1497   */\n      tag_76\n      jump\t// in\n    tag_145:\n        /* \"#utility.yul\":1427:1497   */\n      swap7\n      pop\n        /* \"#utility.yul\":1520:1578   */\n      tag_146\n        /* \"#utility.yul\":1571:1577   */\n      dup4\n        /* \"#utility.yul\":1520:1578   */\n      tag_77\n      jump\t// in\n    tag_146:\n        /* \"#utility.yul\":1510:1578   */\n      swap3\n      pop\n        /* \"#utility.yul\":1366:1588   */\n      pop\n        /* \"#utility.yul\":1353:1354   */\n      0x01\n        /* \"#utility.yul\":1350:1351   */\n      dup2\n        /* \"#utility.yul\":1346:1355   */\n      add\n        /* \"#utility.yul\":1341:1355   */\n      swap1\n      pop\n        /* \"#utility.yul\":1306:1588   */\n      jump(tag_142)\n    tag_144:\n        /* \"#utility.yul\":1310:1324   */\n      pop\n        /* \"#utility.yul\":1013:1595   */\n      pop\n      pop\n      pop\n        /* \"#utility.yul\":901:1595   */\n      pop\n      pop\n      jump\t// out\n        /* \"#utility.yul\":1601:1916   */\n    tag_10:\n        /* \"#utility.yul\":1740:1744   */\n      0x00\n        /* \"#utility.yul\":1778:1781   */\n      0x80\n        /* \"#utility.yul\":1767:1776   */\n      dup3\n        /* \"#utility.yul\":1763:1782   */\n      add\n        /* \"#utility.yul\":1755:1782   */\n      swap1\n      pop\n        /* \"#utility.yul\":1792:1909   */\n      tag_148\n        /* \"#utility.yul\":1906:1907   */\n      0x00\n        /* \"#utility.yul\":1895:1904   */\n      dup4\n        /* \"#utility.yul\":1891:1908   */\n      add\n        /* \"#utility.yul\":1882:1888   */\n      dup5\n        /* \"#utility.yul\":1792:1909   */\n      tag_78\n      jump\t// in\n    tag_148:\n        /* \"#utility.yul\":1601:1916   */\n      swap3\n      swap2\n      pop\n      pop\n      jump\t// out\n        /* \"#utility.yul\":1922:2056   */\n    tag_79:\n        /* \"#utility.yul\":2009:2015   */\n      0x00\n        /* \"#utility.yul\":2043:2048   */\n      dup2\n        /* \"#utility.yul\":2037:2049   */\n      mload\n        /* \"#utility.yul\":2027:2049   */\n      swap1\n      pop\n        /* \"#utility.yul\":1922:2056   */\n      swap2\n      swap1\n      pop\n      jump\t// out\n        /* \"#utility.yul\":2062:2266   */\n    tag_80:\n        /* \"#utility.yul\":2181:2192   */\n      0x00\n        /* \"#utility.yul\":2215:2221   */\n      dup3\n        /* \"#utility.yul\":2210:2213   */\n      dup3\n        /* \"#utility.yul\":2203:2222   */\n      mstore\n        /* \"#utility.yul\":2255:2259   */\n      0x20\n        /* \"#utility.yul\":2250:2253   */\n      dup3\n        /* \"#utility.yul\":2246:2260   */\n      add\n        /* \"#utility.yul\":2231:2260   */\n      swap1\n      pop\n        /* \"#utility.yul\":2062:2266   */\n      swap3\n      swap2\n      pop\n      pop\n      jump\t// out\n        /* \"#utility.yul\":2272:2424   */\n    tag_81:\n        /* \"#utility.yul\":2359:2363   */\n      0x00\n        /* \"#utility.yul\":2382:2385   */\n      dup2\n        /* \"#utility.yul\":2374:2385   */\n      swap1\n      pop\n        /* \"#utility.yul\":2412:2416   */\n      0x20\n        /* \"#utility.yul\":2407:2410   */\n      dup3\n        /* \"#utility.yul\":2403:2417   */\n      add\n        /* \"#utility.yul\":2395:2417   */\n      swap1\n      pop\n        /* \"#utility.yul\":2272:2424   */\n      swap2\n      swap1\n      pop\n      jump\t// out\n        /* \"#utility.yul\":2430:2529   */\n    tag_82:\n        /* \"#utility.yul\":2482:2488   */\n      0x00\n        /* \"#utility.yul\":2516:2521   */\n      dup2\n        /* \"#utility.yul\":2510:2522   */\n      mload\n        /* \"#utility.yul\":2500:2522   */\n      swap1\n      pop\n        /* \"#utility.yul\":2430:2529   */\n      swap2\n      swap1\n      pop\n      jump\t// out\n        /* \"#utility.yul\":2535:2694   */\n    tag_83:\n        /* \"#utility.yul\":2609:2620   */\n      0x00\n        /* \"#utility.yul\":2643:2649   */\n      dup3\n        /* \"#utility.yul\":2638:2641   */\n      dup3\n        /* \"#utility.yul\":2631:2650   */\n      mstore\n        /* \"#utility.yul\":2683:2687   */\n      0x20\n        /* \"#utility.yul\":2678:2681   */\n      dup3\n        /* \"#utility.yul\":2674:2688   */\n      add\n        /* \"#utility.yul\":2659:2688   */\n      swap1\n      pop\n        /* \"#utility.yul\":2535:2694   */\n      swap3\n      swap2\n      pop\n      pop\n      jump\t// out\n        /* \"#utility.yul\":2700:2839   */\n    tag_84:\n        /* \"#utility.yul\":2789:2795   */\n      dup3\n        /* \"#utility.yul\":2784:2787   */\n      dup2\n        /* \"#utility.yul\":2779:2782   */\n      dup4\n        /* \"#utility.yul\":2773:2796   */\n      mcopy\n        /* \"#utility.yul\":2830:2831   */\n      0x00\n        /* \"#utility.yul\":2821:2827   */\n      dup4\n        /* \"#utility.yul\":2816:2819   */\n      dup4\n        /* \"#utility.yul\":2812:2828   */\n      add\n        /* \"#utility.yul\":2805:2832   */\n      mstore\n        /* \"#utility.yul\":2700:2839   */\n      pop\n      pop\n      pop\n      jump\t// out\n        /* \"#utility.yul\":2845:2947   */\n    tag_85:\n        /* \"#utility.yul\":2886:2892   */\n      0x00\n        /* \"#utility.yul\":2937:2939   */\n      0x1f\n        /* \"#utility.yul\":2933:2940   */\n      not\n        /* \"#utility.yul\":2928:2930   */\n      0x1f\n        /* \"#utility.yul\":2921:2926   */\n      dup4\n        /* \"#utility.yul\":2917:2931   */\n      add\n        /* \"#utility.yul\":2913:2941   */\n      and\n        /* \"#utility.yul\":2903:2941   */\n      swap1\n      pop\n        /* \"#utility.yul\":2845:2947   */\n      swap2\n      swap1\n      pop\n      jump\t// out\n        /* \"#utility.yul\":2953:3310   */\n    tag_86:\n        /* \"#utility.yul\":3031:3034   */\n      0x00\n        /* \"#utility.yul\":3059:3098   */\n      tag_157\n        /* \"#utility.yul\":3092:3097   */\n      dup3\n        /* \"#utility.yul\":3059:3098   */\n      tag_82\n      jump\t// in\n    tag_157:\n        /* \"#utility.yul\":3114:3175   */\n      tag_158\n        /* \"#utility.yul\":3168:3174   */\n      dup2\n        /* \"#utility.yul\":3163:3166   */\n      dup6\n        /* \"#utility.yul\":3114:3175   */\n      tag_83\n      jump\t// in\n    tag_158:\n        /* \"#utility.yul\":3107:3175   */\n      swap4\n      pop\n        /* \"#utility.yul\":3184:3249   */\n      tag_159\n        /* \"#utility.yul\":3242:3248   */\n      dup2\n        /* \"#utility.yul\":3237:3240   */\n      dup6\n        /* \"#utility.yul\":3230:3234   */\n      0x20\n        /* \"#utility.yul\":3223:3228   */\n      dup7\n        /* \"#utility.yul\":3219:3235   */\n      add\n        /* \"#utility.yul\":3184:3249   */\n      tag_84\n      jump\t// in\n    tag_159:\n        /* \"#utility.yul\":3274:3303   */\n      tag_160\n        /* \"#utility.yul\":3296:3302   */\n      dup2\n        /* \"#utility.yul\":3274:3303   */\n      tag_85\n      jump\t// in\n    tag_160:\n        /* \"#utility.yul\":3269:3272   */\n      dup5\n        /* \"#utility.yul\":3265:3304   */\n      add\n        /* \"#utility.yul\":3258:3304   */\n      swap2\n      pop\n        /* \"#utility.yul\":3035:3310   */\n      pop\n        /* \"#utility.yul\":2953:3310   */\n      swap3\n      swap2\n      pop\n      pop\n      jump\t// out\n        /* \"#utility.yul\":3316:3442   */\n    tag_87:\n        /* \"#utility.yul\":3353:3360   */\n      0x00\n        /* \"#utility.yul\":3393:3435   */\n      0xffffffffffffffffffffffffffffffffffffffff\n        /* \"#utility.yul\":3386:3391   */\n      dup3\n        /* \"#utility.yul\":3382:3436   */\n      and\n        /* \"#utility.yul\":3371:3436   */\n      swap1\n      pop\n        /* \"#utility.yul\":3316:3442   */\n      swap2\n      swap1\n      pop\n      jump\t// out\n        /* \"#utility.yul\":3448:3544   */\n    tag_88:\n        /* \"#utility.yul\":3485:3492   */\n      0x00\n        /* \"#utility.yul\":3514:3538   */\n      tag_163\n        /* \"#utility.yul\":3532:3537   */\n      dup3\n        /* \"#utility.yul\":3514:3538   */\n      tag_87\n      jump\t// in\n    tag_163:\n        /* \"#utility.yul\":3503:3538   */\n      swap1\n      pop\n        /* \"#utility.yul\":3448:3544   */\n      swap2\n      swap1\n      pop\n      jump\t// out\n        /* \"#utility.yul\":3550:3658   */\n    tag_89:\n        /* \"#utility.yul\":3627:3651   */\n      tag_165\n        /* \"#utility.yul\":3645:3650   */\n      dup2\n        /* \"#utility.yul\":3627:3651   */\n      tag_88\n      jump\t// in\n    tag_165:\n        /* \"#utility.yul\":3622:3625   */\n      dup3\n        /* \"#utility.yul\":3615:3652   */\n      mstore\n        /* \"#utility.yul\":3550:3658   */\n      pop\n      pop\n      jump\t// out\n        /* \"#utility.yul\":3702:4818   */\n    tag_90:\n        /* \"#utility.yul\":3801:3804   */\n      0x00\n        /* \"#utility.yul\":3837:3841   */\n      0xa0\n        /* \"#utility.yul\":3832:3835   */\n      dup4\n        /* \"#utility.yul\":3828:3842   */\n      add\n        /* \"#utility.yul\":3926:3930   */\n      0x00\n        /* \"#utility.yul\":3919:3924   */\n      dup4\n        /* \"#utility.yul\":3915:3931   */\n      add\n        /* \"#utility.yul\":3909:3932   */\n      mload\n        /* \"#utility.yul\":3945:4008   */\n      tag_167\n        /* \"#utility.yul\":4002:4006   */\n      0x00\n        /* \"#utility.yul\":3997:4000   */\n      dup7\n        /* \"#utility.yul\":3993:4007   */\n      add\n        /* \"#utility.yul\":3979:3991   */\n      dup3\n        /* \"#utility.yul\":3945:4008   */\n      tag_75\n      jump\t// in\n    tag_167:\n        /* \"#utility.yul\":3852:4018   */\n      pop\n        /* \"#utility.yul\":4100:4104   */\n      0x20\n        /* \"#utility.yul\":4093:4098   */\n      dup4\n        /* \"#utility.yul\":4089:4105   */\n      add\n        /* \"#utility.yul\":4083:4106   */\n      mload\n        /* \"#utility.yul\":4153:4156   */\n      dup5\n        /* \"#utility.yul\":4147:4151   */\n      dup3\n        /* \"#utility.yul\":4143:4157   */\n      sub\n        /* \"#utility.yul\":4136:4140   */\n      0x20\n        /* \"#utility.yul\":4131:4134   */\n      dup7\n        /* \"#utility.yul\":4127:4141   */\n      add\n        /* \"#utility.yul\":4120:4158   */\n      mstore\n        /* \"#utility.yul\":4179:4252   */\n      tag_168\n        /* \"#utility.yul\":4247:4251   */\n      dup3\n        /* \"#utility.yul\":4233:4245   */\n      dup3\n        /* \"#utility.yul\":4179:4252   */\n      tag_86\n      jump\t// in\n    tag_168:\n        /* \"#utility.yul\":4171:4252   */\n      swap2\n      pop\n        /* \"#utility.yul\":4028:4263   */\n      pop\n        /* \"#utility.yul\":4347:4351   */\n      0x40\n        /* \"#utility.yul\":4340:4345   */\n      dup4\n        /* \"#utility.yul\":4336:4352   */\n      add\n        /* \"#utility.yul\":4330:4353   */\n      mload\n        /* \"#utility.yul\":4366:4429   */\n      tag_169\n        /* \"#utility.yul\":4423:4427   */\n      0x40\n        /* \"#utility.yul\":4418:4421   */\n      dup7\n        /* \"#utility.yul\":4414:4428   */\n      add\n        /* \"#utility.yul\":4400:4412   */\n      dup3\n        /* \"#utility.yul\":4366:4429   */\n      tag_89\n      jump\t// in\n    tag_169:\n        /* \"#utility.yul\":4273:4439   */\n      pop\n        /* \"#utility.yul\":4524:4528   */\n      0x60\n        /* \"#utility.yul\":4517:4522   */\n      dup4\n        /* \"#utility.yul\":4513:4529   */\n      add\n        /* \"#utility.yul\":4507:4530   */\n      mload\n        /* \"#utility.yul\":4543:4606   */\n      tag_170\n        /* \"#utility.yul\":4600:4604   */\n      0x60\n        /* \"#utility.yul\":4595:4598   */\n      dup7\n        /* \"#utility.yul\":4591:4605   */\n      add\n        /* \"#utility.yul\":4577:4589   */\n      dup3\n        /* \"#utility.yul\":4543:4606   */\n      tag_75\n      jump\t// in\n    tag_170:\n        /* \"#utility.yul\":4449:4616   */\n      pop\n        /* \"#utility.yul\":4699:4703   */\n      0x80\n        /* \"#utility.yul\":4692:4697   */\n      dup4\n        /* \"#utility.yul\":4688:4704   */\n      add\n        /* \"#utility.yul\":4682:4705   */\n      mload\n        /* \"#utility.yul\":4718:4781   */\n      tag_171\n        /* \"#utility.yul\":4775:4779   */\n      0x80\n        /* \"#utility.yul\":4770:4773   */\n      dup7\n        /* \"#utility.yul\":4766:4780   */\n      add\n        /* \"#utility.yul\":4752:4764   */\n      dup3\n        /* \"#utility.yul\":4718:4781   */\n      tag_75\n      jump\t// in\n    tag_171:\n        /* \"#utility.yul\":4626:4791   */\n      pop\n        /* \"#utility.yul\":4808:4812   */\n      dup1\n        /* \"#utility.yul\":4801:4812   */\n      swap2\n      pop\n        /* \"#utility.yul\":3806:4818   */\n      pop\n        /* \"#utility.yul\":3702:4818   */\n      swap3\n      swap2\n      pop\n      pop\n      jump\t// out\n        /* \"#utility.yul\":4824:5060   */\n    tag_91:\n        /* \"#utility.yul\":4933:4943   */\n      0x00\n        /* \"#utility.yul\":4968:5054   */\n      tag_173\n        /* \"#utility.yul\":5050:5053   */\n      dup4\n        /* \"#utility.yul\":5042:5048   */\n      dup4\n        /* \"#utility.yul\":4968:5054   */\n      tag_90\n      jump\t// in\n    tag_173:\n        /* \"#utility.yul\":4954:5054   */\n      swap1\n      pop\n        /* \"#utility.yul\":4824:5060   */\n      swap3\n      swap2\n      pop\n      pop\n      jump\t// out\n        /* \"#utility.yul\":5066:5199   */\n    tag_92:\n        /* \"#utility.yul\":5156:5160   */\n      0x00\n        /* \"#utility.yul\":5188:5192   */\n      0x20\n        /* \"#utility.yul\":5183:5186   */\n      dup3\n        /* \"#utility.yul\":5179:5193   */\n      add\n        /* \"#utility.yul\":5171:5193   */\n      swap1\n      pop\n        /* \"#utility.yul\":5066:5199   */\n      swap2\n      swap1\n      pop\n      jump\t// out\n        /* \"#utility.yul\":5247:6318   */\n    tag_93:\n        /* \"#utility.yul\":5406:5409   */\n      0x00\n        /* \"#utility.yul\":5435:5509   */\n      tag_176\n        /* \"#utility.yul\":5503:5508   */\n      dup3\n        /* \"#utility.yul\":5435:5509   */\n      tag_79\n      jump\t// in\n    tag_176:\n        /* \"#utility.yul\":5525:5631   */\n      tag_177\n        /* \"#utility.yul\":5624:5630   */\n      dup2\n        /* \"#utility.yul\":5619:5622   */\n      dup6\n        /* \"#utility.yul\":5525:5631   */\n      tag_80\n      jump\t// in\n    tag_177:\n        /* \"#utility.yul\":5518:5631   */\n      swap4\n      pop\n        /* \"#utility.yul\":5657:5660   */\n      dup4\n        /* \"#utility.yul\":5702:5706   */\n      0x20\n        /* \"#utility.yul\":5694:5700   */\n      dup3\n        /* \"#utility.yul\":5690:5707   */\n      mul\n        /* \"#utility.yul\":5685:5688   */\n      dup6\n        /* \"#utility.yul\":5681:5708   */\n      add\n        /* \"#utility.yul\":5732:5808   */\n      tag_178\n        /* \"#utility.yul\":5802:5807   */\n      dup6\n        /* \"#utility.yul\":5732:5808   */\n      tag_81\n      jump\t// in\n    tag_178:\n        /* \"#utility.yul\":5831:5838   */\n      dup1\n        /* \"#utility.yul\":5862:5863   */\n      0x00\n        /* \"#utility.yul\":5847:6273   */\n    tag_179:\n        /* \"#utility.yul\":5872:5878   */\n      dup6\n        /* \"#utility.yul\":5869:5870   */\n      dup2\n        /* \"#utility.yul\":5866:5879   */\n      lt\n        /* \"#utility.yul\":5847:6273   */\n      iszero\n      tag_181\n      jumpi\n        /* \"#utility.yul\":5943:5952   */\n      dup5\n        /* \"#utility.yul\":5937:5941   */\n      dup5\n        /* \"#utility.yul\":5933:5953   */\n      sub\n        /* \"#utility.yul\":5928:5931   */\n      dup10\n        /* \"#utility.yul\":5921:5954   */\n      mstore\n        /* \"#utility.yul\":5994:6000   */\n      dup2\n        /* \"#utility.yul\":5988:6001   */\n      mload\n        /* \"#utility.yul\":6022:6126   */\n      tag_182\n        /* \"#utility.yul\":6121:6125   */\n      dup6\n        /* \"#utility.yul\":6106:6119   */\n      dup3\n        /* \"#utility.yul\":6022:6126   */\n      tag_91\n      jump\t// in\n    tag_182:\n        /* \"#utility.yul\":6014:6126   */\n      swap5\n      pop\n        /* \"#utility.yul\":6149:6229   */\n      tag_183\n        /* \"#utility.yul\":6222:6228   */\n      dup4\n        /* \"#utility.yul\":6149:6229   */\n      tag_92\n      jump\t// in\n    tag_183:\n        /* \"#utility.yul\":6139:6229   */\n      swap3\n      pop\n        /* \"#utility.yul\":6258:6262   */\n      0x20\n        /* \"#utility.yul\":6253:6256   */\n      dup11\n        /* \"#utility.yul\":6249:6263   */\n      add\n        /* \"#utility.yul\":6242:6263   */\n      swap10\n      pop\n        /* \"#utility.yul\":5907:6273   */\n      pop\n        /* \"#utility.yul\":5894:5895   */\n      0x01\n        /* \"#utility.yul\":5891:5892   */\n      dup2\n        /* \"#utility.yul\":5887:5896   */\n      add\n        /* \"#utility.yul\":5882:5896   */\n      swap1\n      pop\n        /* \"#utility.yul\":5847:6273   */\n      jump(tag_179)\n    tag_181:\n        /* \"#utility.yul\":5851:5865   */\n      pop\n        /* \"#utility.yul\":6289:6293   */\n      dup3\n        /* \"#utility.yul\":6282:6293   */\n      swap8\n      pop\n        /* \"#utility.yul\":6309:6312   */\n      dup8\n        /* \"#utility.yul\":6302:6312   */\n      swap6\n      pop\n        /* \"#utility.yul\":5411:6318   */\n      pop\n      pop\n      pop\n      pop\n      pop\n        /* \"#utility.yul\":5247:6318   */\n      swap3\n      swap2\n      pop\n      pop\n      jump\t// out\n        /* \"#utility.yul\":6324:6777   */\n    tag_15:\n        /* \"#utility.yul\":6507:6511   */\n      0x00\n        /* \"#utility.yul\":6545:6547   */\n      0x20\n        /* \"#utility.yul\":6534:6543   */\n      dup3\n        /* \"#utility.yul\":6530:6548   */\n      add\n        /* \"#utility.yul\":6522:6548   */\n      swap1\n      pop\n        /* \"#utility.yul\":6594:6603   */\n      dup2\n        /* \"#utility.yul\":6588:6592   */\n      dup2\n        /* \"#utility.yul\":6584:6604   */\n      sub\n        /* \"#utility.yul\":6580:6581   */\n      0x00\n        /* \"#utility.yul\":6569:6578   */\n      dup4\n        /* \"#utility.yul\":6565:6582   */\n      add\n        /* \"#utility.yul\":6558:6605   */\n      mstore\n        /* \"#utility.yul\":6622:6770   */\n      tag_185\n        /* \"#utility.yul\":6765:6769   */\n      dup2\n        /* \"#utility.yul\":6756:6762   */\n      dup5\n        /* \"#utility.yul\":6622:6770   */\n      tag_93\n      jump\t// in\n    tag_185:\n        /* \"#utility.yul\":6614:6770   */\n      swap1\n      pop\n        /* \"#utility.yul\":6324:6777   */\n      swap3\n      swap2\n      pop\n      pop\n      jump\t// out\n        /* \"#utility.yul\":6783:6858   */\n    tag_94:\n        /* \"#utility.yul\":6816:6822   */\n      0x00\n        /* \"#utility.yul\":6849:6851   */\n      0x40\n        /* \"#utility.yul\":6843:6852   */\n      mload\n        /* \"#utility.yul\":6833:6852   */\n      swap1\n      pop\n        /* \"#utility.yul\":6783:6858   */\n      swap1\n      jump\t// out\n        /* \"#utility.yul\":6864:6981   */\n    tag_95:\n        /* \"#utility.yul\":6973:6974   */\n      0x00\n        /* \"#utility.yul\":6970:6971   */\n      dup1\n        /* \"#utility.yul\":6963:6975   */\n      revert\n        /* \"#utility.yul\":6987:7104   */\n    tag_96:\n        /* \"#utility.yul\":7096:7097   */\n      0x00\n        /* \"#utility.yul\":7093:7094   */\n      dup1\n        /* \"#utility.yul\":7086:7098   */\n      revert\n        /* \"#utility.yul\":7110:7227   */\n    tag_97:\n        /* \"#utility.yul\":7219:7220   */\n      0x00\n        /* \"#utility.yul\":7216:7217   */\n      dup1\n        /* \"#utility.yul\":7209:7221   */\n      revert\n        /* \"#utility.yul\":7233:7350   */\n    tag_98:\n        /* \"#utility.yul\":7342:7343   */\n      0x00\n        /* \"#utility.yul\":7339:7340   */\n      dup1\n        /* \"#utility.yul\":7332:7344   */\n      revert\n        /* \"#utility.yul\":7356:7536   */\n    tag_99:\n        /* \"#utility.yul\":7404:7481   */\n      0x4e487b7100000000000000000000000000000000000000000000000000000000\n        /* \"#utility.yul\":7401:7402   */\n      0x00\n        /* \"#utility.yul\":7394:7482   */\n      mstore\n        /* \"#utility.yul\":7501:7505   */\n      0x41\n        /* \"#utility.yul\":7498:7499   */\n      0x04\n        /* \"#utility.yul\":7491:7506   */\n      mstore\n        /* \"#utility.yul\":7525:7529   */\n      0x24\n        /* \"#utility.yul\":7522:7523   */\n      0x00\n        /* \"#utility.yul\":7515:7530   */\n      revert\n        /* \"#utility.yul\":7542:7823   */\n    tag_100:\n        /* \"#utility.yul\":7625:7652   */\n      tag_193\n        /* \"#utility.yul\":7647:7651   */\n      dup3\n        /* \"#utility.yul\":7625:7652   */\n      tag_85\n      jump\t// in\n    tag_193:\n        /* \"#utility.yul\":7617:7623   */\n      dup2\n        /* \"#utility.yul\":7613:7653   */\n      add\n        /* \"#utility.yul\":7755:7761   */\n      dup2\n        /* \"#utility.yul\":7743:7753   */\n      dup2\n        /* \"#utility.yul\":7740:7762   */\n      lt\n        /* \"#utility.yul\":7719:7737   */\n      0xffffffffffffffff\n        /* \"#utility.yul\":7707:7717   */\n      dup3\n        /* \"#utility.yul\":7704:7738   */\n      gt\n        /* \"#utility.yul\":7701:7763   */\n      or\n        /* \"#utility.yul\":7698:7786   */\n      iszero\n      tag_194\n      jumpi\n        /* \"#utility.yul\":7766:7784   */\n      tag_195\n      tag_99\n      jump\t// in\n    tag_195:\n        /* \"#utility.yul\":7698:7786   */\n    tag_194:\n        /* \"#utility.yul\":7806:7816   */\n      dup1\n        /* \"#utility.yul\":7802:7804   */\n      0x40\n        /* \"#utility.yul\":7795:7817   */\n      mstore\n        /* \"#utility.yul\":7585:7823   */\n      pop\n        /* \"#utility.yul\":7542:7823   */\n      pop\n      pop\n      jump\t// out\n        /* \"#utility.yul\":7829:7958   */\n    tag_101:\n        /* \"#utility.yul\":7863:7869   */\n      0x00\n        /* \"#utility.yul\":7890:7910   */\n      tag_197\n      tag_94\n      jump\t// in\n    tag_197:\n        /* \"#utility.yul\":7880:7910   */\n      swap1\n      pop\n        /* \"#utility.yul\":7919:7952   */\n      tag_198\n        /* \"#utility.yul\":7947:7951   */\n      dup3\n        /* \"#utility.yul\":7939:7945   */\n      dup3\n        /* \"#utility.yul\":7919:7952   */\n      tag_100\n      jump\t// in\n    tag_198:\n        /* \"#utility.yul\":7829:7958   */\n      swap2\n      swap1\n      pop\n      jump\t// out\n        /* \"#utility.yul\":7964:8272   */\n    tag_102:\n        /* \"#utility.yul\":8026:8030   */\n      0x00\n        /* \"#utility.yul\":8116:8134   */\n      0xffffffffffffffff\n        /* \"#utility.yul\":8108:8114   */\n      dup3\n        /* \"#utility.yul\":8105:8135   */\n      gt\n        /* \"#utility.yul\":8102:8158   */\n      iszero\n      tag_200\n      jumpi\n        /* \"#utility.yul\":8138:8156   */\n      tag_201\n      tag_99\n      jump\t// in\n    tag_201:\n        /* \"#utility.yul\":8102:8158   */\n    tag_200:\n        /* \"#utility.yul\":8176:8205   */\n      tag_202\n        /* \"#utility.yul\":8198:8204   */\n      dup3\n        /* \"#utility.yul\":8176:8205   */\n      tag_85\n      jump\t// in\n    tag_202:\n        /* \"#utility.yul\":8168:8205   */\n      swap1\n      pop\n        /* \"#utility.yul\":8260:8264   */\n      0x20\n        /* \"#utility.yul\":8254:8258   */\n      dup2\n        /* \"#utility.yul\":8250:8265   */\n      add\n        /* \"#utility.yul\":8242:8265   */\n      swap1\n      pop\n        /* \"#utility.yul\":7964:8272   */\n      swap2\n      swap1\n      pop\n      jump\t// out\n        /* \"#utility.yul\":8278:8426   */\n    tag_103:\n        /* \"#utility.yul\":8376:8382   */\n      dup3\n        /* \"#utility.yul\":8371:8374   */\n      dup2\n        /* \"#utility.yul\":8366:8369   */\n      dup4\n        /* \"#utility.yul\":8353:8383   */\n      calldatacopy\n        /* \"#utility.yul\":8417:8418   */\n      0x00\n        /* \"#utility.yul\":8408:8414   */\n      dup4\n        /* \"#utility.yul\":8403:8406   */\n      dup4\n        /* \"#utility.yul\":8399:8415   */\n      add\n        /* \"#utility.yul\":8392:8419   */\n      mstore\n        /* \"#utility.yul\":8278:8426   */\n      pop\n      pop\n      pop\n      jump\t// out\n        /* \"#utility.yul\":8432:8857   */\n    tag_104:\n        /* \"#utility.yul\":8510:8515   */\n      0x00\n        /* \"#utility.yul\":8535:8601   */\n      tag_205\n        /* \"#utility.yul\":8551:8600   */\n      tag_206\n        /* \"#utility.yul\":8593:8599   */\n      dup5\n        /* \"#utility.yul\":8551:8600   */\n      tag_102\n      jump\t// in\n    tag_206:\n        /* \"#utility.yul\":8535:8601   */\n      tag_101\n      jump\t// in\n    tag_205:\n        /* \"#utility.yul\":8526:8601   */\n      swap1\n      pop\n        /* \"#utility.yul\":8624:8630   */\n      dup3\n        /* \"#utility.yul\":8617:8622   */\n      dup2\n        /* \"#utility.yul\":8610:8631   */\n      mstore\n        /* \"#utility.yul\":8662:8666   */\n      0x20\n        /* \"#utility.yul\":8655:8660   */\n      dup2\n        /* \"#utility.yul\":8651:8667   */\n      add\n        /* \"#utility.yul\":8700:8703   */\n      dup5\n        /* \"#utility.yul\":8691:8697   */\n      dup5\n        /* \"#utility.yul\":8686:8689   */\n      dup5\n        /* \"#utility.yul\":8682:8698   */\n      add\n        /* \"#utility.yul\":8679:8704   */\n      gt\n        /* \"#utility.yul\":8676:8788   */\n      iszero\n      tag_207\n      jumpi\n        /* \"#utility.yul\":8707:8786   */\n      tag_208\n      tag_98\n      jump\t// in\n    tag_208:\n        /* \"#utility.yul\":8676:8788   */\n    tag_207:\n        /* \"#utility.yul\":8797:8851   */\n      tag_209\n        /* \"#utility.yul\":8844:8850   */\n      dup5\n        /* \"#utility.yul\":8839:8842   */\n      dup3\n        /* \"#utility.yul\":8834:8837   */\n      dup6\n        /* \"#utility.yul\":8797:8851   */\n      tag_103\n      jump\t// in\n    tag_209:\n        /* \"#utility.yul\":8516:8857   */\n      pop\n        /* \"#utility.yul\":8432:8857   */\n      swap4\n      swap3\n      pop\n      pop\n      pop\n      jump\t// out\n        /* \"#utility.yul\":8877:9217   */\n    tag_105:\n        /* \"#utility.yul\":8933:8938   */\n      0x00\n        /* \"#utility.yul\":8982:8985   */\n      dup3\n        /* \"#utility.yul\":8975:8979   */\n      0x1f\n        /* \"#utility.yul\":8967:8973   */\n      dup4\n        /* \"#utility.yul\":8963:8980   */\n      add\n        /* \"#utility.yul\":8959:8986   */\n      slt\n        /* \"#utility.yul\":8949:9071   */\n      tag_211\n      jumpi\n        /* \"#utility.yul\":8990:9069   */\n      tag_212\n      tag_97\n      jump\t// in\n    tag_212:\n        /* \"#utility.yul\":8949:9071   */\n    tag_211:\n        /* \"#utility.yul\":9107:9113   */\n      dup2\n        /* \"#utility.yul\":9094:9114   */\n      calldataload\n        /* \"#utility.yul\":9132:9211   */\n      tag_213\n        /* \"#utility.yul\":9207:9210   */\n      dup5\n        /* \"#utility.yul\":9199:9205   */\n      dup3\n        /* \"#utility.yul\":9192:9196   */\n      0x20\n        /* \"#utility.yul\":9184:9190   */\n      dup7\n        /* \"#utility.yul\":9180:9197   */\n      add\n        /* \"#utility.yul\":9132:9211   */\n      tag_104\n      jump\t// in\n    tag_213:\n        /* \"#utility.yul\":9123:9211   */\n      swap2\n      pop\n        /* \"#utility.yul\":8939:9217   */\n      pop\n        /* \"#utility.yul\":8877:9217   */\n      swap3\n      swap2\n      pop\n      pop\n      jump\t// out\n        /* \"#utility.yul\":9223:9732   */\n    tag_19:\n        /* \"#utility.yul\":9292:9298   */\n      0x00\n        /* \"#utility.yul\":9341:9343   */\n      0x20\n        /* \"#utility.yul\":9329:9338   */\n      dup3\n        /* \"#utility.yul\":9320:9327   */\n      dup5\n        /* \"#utility.yul\":9316:9339   */\n      sub\n        /* \"#utility.yul\":9312:9344   */\n      slt\n        /* \"#utility.yul\":9309:9428   */\n      iszero\n      tag_215\n      jumpi\n        /* \"#utility.yul\":9347:9426   */\n      tag_216\n      tag_95\n      jump\t// in\n    tag_216:\n        /* \"#utility.yul\":9309:9428   */\n    tag_215:\n        /* \"#utility.yul\":9495:9496   */\n      0x00\n        /* \"#utility.yul\":9484:9493   */\n      dup3\n        /* \"#utility.yul\":9480:9497   */\n      add\n        /* \"#utility.yul\":9467:9498   */\n      calldataload\n        /* \"#utility.yul\":9525:9543   */\n      0xffffffffffffffff\n        /* \"#utility.yul\":9517:9523   */\n      dup2\n        /* \"#utility.yul\":9514:9544   */\n      gt\n        /* \"#utility.yul\":9511:9628   */\n      iszero\n      tag_217\n      jumpi\n        /* \"#utility.yul\":9547:9626   */\n      tag_218\n      tag_96\n      jump\t// in\n    tag_218:\n        /* \"#utility.yul\":9511:9628   */\n    tag_217:\n        /* \"#utility.yul\":9652:9715   */\n      tag_219\n        /* \"#utility.yul\":9707:9714   */\n      dup5\n        /* \"#utility.yul\":9698:9704   */\n      dup3\n        /* \"#utility.yul\":9687:9696   */\n      dup6\n        /* \"#utility.yul\":9683:9705   */\n      add\n        /* \"#utility.yul\":9652:9715   */\n      tag_105\n      jump\t// in\n    tag_219:\n        /* \"#utility.yul\":9642:9715   */\n      swap2\n      pop\n        /* \"#utility.yul\":9438:9725   */\n      pop\n        /* \"#utility.yul\":9223:9732   */\n      swap3\n      swap2\n      pop\n      pop\n      jump\t// out\n        /* \"#utility.yul\":9738:9907   */\n    tag_106:\n        /* \"#utility.yul\":9822:9833   */\n      0x00\n        /* \"#utility.yul\":9856:9862   */\n      dup3\n        /* \"#utility.yul\":9851:9854   */\n      dup3\n        /* \"#utility.yul\":9844:9863   */\n      mstore\n        /* \"#utility.yul\":9896:9900   */\n      0x20\n        /* \"#utility.yul\":9891:9894   */\n      dup3\n        /* \"#utility.yul\":9887:9901   */\n      add\n        /* \"#utility.yul\":9872:9901   */\n      swap1\n      pop\n        /* \"#utility.yul\":9738:9907   */\n      swap3\n      swap2\n      pop\n      pop\n      jump\t// out\n        /* \"#utility.yul\":9913:10290   */\n    tag_107:\n        /* \"#utility.yul\":10001:10004   */\n      0x00\n        /* \"#utility.yul\":10029:10068   */\n      tag_222\n        /* \"#utility.yul\":10062:10067   */\n      dup3\n        /* \"#utility.yul\":10029:10068   */\n      tag_82\n      jump\t// in\n    tag_222:\n        /* \"#utility.yul\":10084:10155   */\n      tag_223\n        /* \"#utility.yul\":10148:10154   */\n      dup2\n        /* \"#utility.yul\":10143:10146   */\n      dup6\n        /* \"#utility.yul\":10084:10155   */\n      tag_106\n      jump\t// in\n    tag_223:\n        /* \"#utility.yul\":10077:10155   */\n      swap4\n      pop\n        /* \"#utility.yul\":10164:10229   */\n      tag_224\n        /* \"#utility.yul\":10222:10228   */\n      dup2\n        /* \"#utility.yul\":10217:10220   */\n      dup6\n        /* \"#utility.yul\":10210:10214   */\n      0x20\n        /* \"#utility.yul\":10203:10208   */\n      dup7\n        /* \"#utility.yul\":10199:10215   */\n      add\n        /* \"#utility.yul\":10164:10229   */\n      tag_84\n      jump\t// in\n    tag_224:\n        /* \"#utility.yul\":10254:10283   */\n      tag_225\n        /* \"#utility.yul\":10276:10282   */\n      dup2\n        /* \"#utility.yul\":10254:10283   */\n      tag_85\n      jump\t// in\n    tag_225:\n        /* \"#utility.yul\":10249:10252   */\n      dup5\n        /* \"#utility.yul\":10245:10284   */\n      add\n        /* \"#utility.yul\":10238:10284   */\n      swap2\n      pop\n        /* \"#utility.yul\":10005:10290   */\n      pop\n        /* \"#utility.yul\":9913:10290   */\n      swap3\n      swap2\n      pop\n      pop\n      jump\t// out\n        /* \"#utility.yul\":10296:10609   */\n    tag_24:\n        /* \"#utility.yul\":10409:10413   */\n      0x00\n        /* \"#utility.yul\":10447:10449   */\n      0x20\n        /* \"#utility.yul\":10436:10445   */\n      dup3\n        /* \"#utility.yul\":10432:10450   */\n      add\n        /* \"#utility.yul\":10424:10450   */\n      swap1\n      pop\n        /* \"#utility.yul\":10496:10505   */\n      dup2\n        /* \"#utility.yul\":10490:10494   */\n      dup2\n        /* \"#utility.yul\":10486:10506   */\n      sub\n        /* \"#utility.yul\":10482:10483   */\n      0x00\n        /* \"#utility.yul\":10471:10480   */\n      dup4\n        /* \"#utility.yul\":10467:10484   */\n      add\n        /* \"#utility.yul\":10460:10507   */\n      mstore\n        /* \"#utility.yul\":10524:10602   */\n      tag_227\n        /* \"#utility.yul\":10597:10601   */\n      dup2\n        /* \"#utility.yul\":10588:10594   */\n      dup5\n        /* \"#utility.yul\":10524:10602   */\n      tag_107\n      jump\t// in\n    tag_227:\n        /* \"#utility.yul\":10516:10602   */\n      swap1\n      pop\n        /* \"#utility.yul\":10296:10609   */\n      swap3\n      swap2\n      pop\n      pop\n      jump\t// out\n        /* \"#utility.yul\":10615:10795   */\n    tag_108:\n        /* \"#utility.yul\":10663:10740   */\n      0x4e487b7100000000000000000000000000000000000000000000000000000000\n        /* \"#utility.yul\":10660:10661   */\n      0x00\n        /* \"#utility.yul\":10653:10741   */\n      mstore\n        /* \"#utility.yul\":10760:10764   */\n      0x22\n        /* \"#utility.yul\":10757:10758   */\n      0x04\n        /* \"#utility.yul\":10750:10765   */\n      mstore\n        /* \"#utility.yul\":10784:10788   */\n      0x24\n        /* \"#utility.yul\":10781:10782   */\n      0x00\n        /* \"#utility.yul\":10774:10789   */\n      revert\n        /* \"#utility.yul\":10801:11121   */\n    tag_35:\n        /* \"#utility.yul\":10845:10851   */\n      0x00\n        /* \"#utility.yul\":10882:10883   */\n      0x02\n        /* \"#utility.yul\":10876:10880   */\n      dup3\n        /* \"#utility.yul\":10872:10884   */\n      div\n        /* \"#utility.yul\":10862:10884   */\n      swap1\n      pop\n        /* \"#utility.yul\":10929:10930   */\n      0x01\n        /* \"#utility.yul\":10923:10927   */\n      dup3\n        /* \"#utility.yul\":10919:10931   */\n      and\n        /* \"#utility.yul\":10950:10968   */\n      dup1\n        /* \"#utility.yul\":10940:11021   */\n      tag_230\n      jumpi\n        /* \"#utility.yul\":11006:11010   */\n      0x7f\n        /* \"#utility.yul\":10998:11004   */\n      dup3\n        /* \"#utility.yul\":10994:11011   */\n      and\n        /* \"#utility.yul\":10984:11011   */\n      swap2\n      pop\n        /* \"#utility.yul\":10940:11021   */\n    tag_230:\n        /* \"#utility.yul\":11068:11070   */\n      0x20\n        /* \"#utility.yul\":11060:11066   */\n      dup3\n        /* \"#utility.yul\":11057:11071   */\n      lt\n        /* \"#utility.yul\":11037:11055   */\n      dup2\n        /* \"#utility.yul\":11034:11072   */\n      sub\n        /* \"#utility.yul\":11031:11115   */\n      tag_231\n      jumpi\n        /* \"#utility.yul\":11087:11105   */\n      tag_232\n      tag_108\n      jump\t// in\n    tag_232:\n        /* \"#utility.yul\":11031:11115   */\n    tag_231:\n        /* \"#utility.yul\":10852:11121   */\n      pop\n        /* \"#utility.yul\":10801:11121   */\n      swap2\n      swap1\n      pop\n      jump\t// out\n        /* \"#utility.yul\":11127:11268   */\n    tag_109:\n        /* \"#utility.yul\":11176:11180   */\n      0x00\n        /* \"#utility.yul\":11199:11202   */\n      dup2\n        /* \"#utility.yul\":11191:11202   */\n      swap1\n      pop\n        /* \"#utility.yul\":11222:11225   */\n      dup2\n        /* \"#utility.yul\":11219:11220   */\n      0x00\n        /* \"#utility.yul\":11212:11226   */\n      mstore\n        /* \"#utility.yul\":11256:11260   */\n      0x20\n        /* \"#utility.yul\":11253:11254   */\n      0x00\n        /* \"#utility.yul\":11243:11261   */\n      keccak256\n        /* \"#utility.yul\":11235:11261   */\n      swap1\n      pop\n        /* \"#utility.yul\":11127:11268   */\n      swap2\n      swap1\n      pop\n      jump\t// out\n        /* \"#utility.yul\":11274:11367   */\n    tag_110:\n        /* \"#utility.yul\":11311:11317   */\n      0x00\n        /* \"#utility.yul\":11358:11360   */\n      0x20\n        /* \"#utility.yul\":11353:11355   */\n      0x1f\n        /* \"#utility.yul\":11346:11351   */\n      dup4\n        /* \"#utility.yul\":11342:11356   */\n      add\n        /* \"#utility.yul\":11338:11361   */\n      div\n        /* \"#utility.yul\":11328:11361   */\n      swap1\n      pop\n        /* \"#utility.yul\":11274:11367   */\n      swap2\n      swap1\n      pop\n      jump\t// out\n        /* \"#utility.yul\":11373:11480   */\n    tag_111:\n        /* \"#utility.yul\":11417:11425   */\n      0x00\n        /* \"#utility.yul\":11467:11472   */\n      dup3\n        /* \"#utility.yul\":11461:11465   */\n      dup3\n        /* \"#utility.yul\":11457:11473   */\n      shl\n        /* \"#utility.yul\":11436:11473   */\n      swap1\n      pop\n        /* \"#utility.yul\":11373:11480   */\n      swap3\n      swap2\n      pop\n      pop\n      jump\t// out\n        /* \"#utility.yul\":11486:11879   */\n    tag_112:\n        /* \"#utility.yul\":11555:11561   */\n      0x00\n        /* \"#utility.yul\":11605:11606   */\n      0x08\n        /* \"#utility.yul\":11593:11603   */\n      dup4\n        /* \"#utility.yul\":11589:11607   */\n      mul\n        /* \"#utility.yul\":11628:11725   */\n      tag_237\n        /* \"#utility.yul\":11658:11724   */\n      0xffffffffffffffffffffffffffffffffffffffffffffffffffffffffffffffff\n        /* \"#utility.yul\":11647:11656   */\n      dup3\n        /* \"#utility.yul\":11628:11725   */\n      tag_111\n      jump\t// in\n    tag_237:\n        /* \"#utility.yul\":11746:11785   */\n      tag_238\n        /* \"#utility.yul\":11776:11784   */\n      dup7\n        /* \"#utility.yul\":11765:11774   */\n      dup4\n        /* \"#utility.yul\":11746:11785   */\n      tag_111\n      jump\t// in\n    tag_238:\n        /* \"#utility.yul\":11734:11785   */\n      swap6\n      pop\n        /* \"#utility.yul\":11818:11822   */\n      dup1\n        /* \"#utility.yul\":11814:11823   */\n      not\n        /* \"#utility.yul\":11807:11812   */\n      dup5\n        /* \"#utility.yul\":11803:11824   */\n      and\n        /* \"#utility.yul\":11794:11824   */\n      swap4\n      pop\n        /* \"#utility.yul\":11867:11871   */\n      dup1\n        /* \"#utility.yul\":11857:11865   */\n      dup7\n        /* \"#utility.yul\":11853:11872   */\n      and\n        /* \"#utility.yul\":11846:11851   */\n      dup5\n        /* \"#utility.yul\":11843:11873   */\n      or\n        /* \"#utility.yul\":11833:11873   */\n      swap3\n      pop\n        /* \"#utility.yul\":11562:11879   */\n      pop\n      pop\n        /* \"#utility.yul\":11486:11879   */\n      swap4\n      swap3\n      pop\n      pop\n      pop\n      jump\t// out\n        /* \"#utility.yul\":11885:11945   */\n    tag_113:\n        /* \"#utility.yul\":11913:11916   */\n      0x00\n        /* \"#utility.yul\":11934:11939   */\n      dup2\n        /* \"#utility.yul\":11927:11939   */\n      swap1\n      pop\n        /* \"#utility.yul\":11885:11945   */\n      swap2\n      swap1\n      pop\n      jump\t// out\n        /* \"#utility.yul\":11951:12093   */\n    tag_114:\n        /* \"#utility.yul\":12001:12010   */\n      0x00\n        /* \"#utility.yul\":12034:12087   */\n      tag_241\n        /* \"#utility.yul\":12052:12086   */\n      tag_242\n        /* \"#utility.yul\":12061:12085   */\n      tag_243\n        /* \"#utility.yul\":12079:12084   */\n      dup5\n        /* \"#utility.yul\":12061:12085   */\n      tag_74\n      jump\t// in\n    tag_243:\n        /* \"#utility.yul\":12052:12086   */\n      tag_113\n      jump\t// in\n    tag_242:\n        /* \"#utility.yul\":12034:12087   */\n      tag_74\n      jump\t// in\n    tag_241:\n        /* \"#utility.yul\":12021:12087   */\n      swap1\n      pop\n        /* \"#utility.yul\":11951:12093   */\n      swap2\n      swap1\n      pop\n      jump\t// out\n        /* \"#utility.yul\":12099:12174   */\n    tag_115:\n        /* \"#utility.yul\":12142:12145   */\n      0x00\n        /* \"#utility.yul\":12163:12168   */\n      dup2\n        /* \"#utility.yul\":12156:12168   */\n      swap1\n      pop\n        /* \"#utility.yul\":12099:12174   */\n      swap2\n      swap1\n      pop\n      jump\t// out\n        /* \"#utility.yul\":12180:12449   */\n    tag_116:\n        /* \"#utility.yul\":12290:12329   */\n      tag_246\n        /* \"#utility.yul\":12321:12328   */\n      dup4\n        /* \"#utility.yul\":12290:12329   */\n      tag_114\n      jump\t// in\n    tag_246:\n        /* \"#utility.yul\":12351:12442   */\n      tag_247\n        /* \"#utility.yul\":12400:12441   */\n      tag_248\n        /* \"#utility.yul\":12424:12440   */\n      dup3\n        /* \"#utility.yul\":12400:12441   */\n      tag_115\n      jump\t// in\n    tag_248:\n        /* \"#utility.yul\":12392:12398   */\n      dup5\n        /* \"#utility.yul\":12385:12389   */\n      dup5\n        /* \"#utility.yul\":12379:12390   */\n      sload\n        /* \"#utility.yul\":12351:12442   */\n      tag_112\n      jump\t// in\n    tag_247:\n        /* \"#utility.yul\":12345:12349   */\n      dup3\n        /* \"#utility.yul\":12338:12443   */\n      sstore\n        /* \"#utility.yul\":12256:12449   */\n      pop\n        /* \"#utility.yul\":12180:12449   */\n      pop\n      pop\n      pop\n      jump\t// out\n        /* \"#utility.yul\":12455:12528   */\n    tag_117:\n        /* \"#utility.yul\":12500:12503   */\n      0x00\n        /* \"#utility.yul\":12455:12528   */\n      swap1\n      jump\t// out\n        /* \"#utility.yul\":12534:12723   */\n    tag_118:\n        /* \"#utility.yul\":12611:12643   */\n      tag_251\n      tag_117\n      jump\t// in\n    tag_251:\n        /* \"#utility.yul\":12652:12717   */\n      tag_252\n        /* \"#utility.yul\":12710:12716   */\n      dup2\n        /* \"#utility.yul\":12702:12708   */\n      dup5\n        /* \"#utility.yul\":12696:12700   */\n      dup5\n        /* \"#utility.yul\":12652:12717   */\n      tag_116\n      jump\t// in\n    tag_252:\n        /* \"#utility.yul\":12587:12723   */\n      pop\n        /* \"#utility.yul\":12534:12723   */\n      pop\n      pop\n      jump\t// out\n        /* \"#utility.yul\":12729:12915   */\n    tag_119:\n        /* \"#utility.yul\":12789:12909   */\n    tag_254:\n        /* \"#utility.yul\":12806:12809   */\n      dup2\n        /* \"#utility.yul\":12799:12804   */\n      dup2\n        /* \"#utility.yul\":12796:12810   */\n      lt\n        /* \"#utility.yul\":12789:12909   */\n      iszero\n      tag_256\n      jumpi\n        /* \"#utility.yul\":12860:12899   */\n      tag_257\n        /* \"#utility.yul\":12897:12898   */\n      0x00\n        /* \"#utility.yul\":12890:12895   */\n      dup3\n        /* \"#utility.yul\":12860:12899   */\n      tag_118\n      jump\t// in\n    tag_257:\n        /* \"#utility.yul\":12833:12834   */\n      0x01\n        /* \"#utility.yul\":12826:12831   */\n      dup2\n        /* \"#utility.yul\":12822:12835   */\n      add\n        /* \"#utility.yul\":12813:12835   */\n      swap1\n      pop\n        /* \"#utility.yul\":12789:12909   */\n      jump(tag_254)\n    tag_256:\n        /* \"#utility.yul\":12729:12915   */\n      pop\n      pop\n      jump\t// out\n        /* \"#utility.yul\":12921:13464   */\n    tag_120:\n        /* \"#utility.yul\":13022:13024   */\n      0x1f\n        /* \"#utility.yul\":13017:13020   */\n      dup3\n        /* \"#utility.yul\":13014:13025   */\n      gt\n        /* \"#utility.yul\":13011:13457   */\n      iszero\n      tag_259\n      jumpi\n        /* \"#utility.yul\":13056:13094   */\n      tag_260\n        /* \"#utility.yul\":13088:13093   */\n      dup2\n        /* \"#utility.yul\":13056:13094   */\n      tag_109\n      jump\t// in\n    tag_260:\n        /* \"#utility.yul\":13140:13169   */\n      tag_261\n        /* \"#utility.yul\":13158:13168   */\n      dup5\n        /* \"#utility.yul\":13140:13169   */\n      tag_110\n      jump\t// in\n    tag_261:\n        /* \"#utility.yul\":13130:13138   */\n      dup2\n        /* \"#utility.yul\":13126:13170   */\n      add\n        /* \"#utility.yul\":13323:13325   */\n      0x20\n        /* \"#utility.yul\":13311:13321   */\n      dup6\n        /* \"#utility.yul\":13308:13326   */\n      lt\n        /* \"#utility.yul\":13305:13354   */\n      iszero\n      tag_262\n      jumpi\n        /* \"#utility.yul\":13344:13352   */\n      dup2\n        /* \"#utility.yul\":13329:13352   */\n      swap1\n      pop\n        /* \"#utility.yul\":13305:13354   */\n    tag_262:\n        /* \"#utility.yul\":13367:13447   */\n      tag_263\n        /* \"#utility.yul\":13423:13445   */\n      tag_264\n        /* \"#utility.yul\":13441:13444   */\n      dup6\n        /* \"#utility.yul\":13423:13445   */\n      tag_110\n      jump\t// in\n    tag_264:\n        /* \"#utility.yul\":13413:13421   */\n      dup4\n        /* \"#utility.yul\":13409:13446   */\n      add\n        /* \"#utility.yul\":13396:13407   */\n      dup3\n        /* \"#utility.yul\":13367:13447   */\n      tag_119\n      jump\t// in\n    tag_263:\n        /* \"#utility.yul\":13026:13457   */\n      pop\n      pop\n        /* \"#utility.yul\":13011:13457   */\n    tag_259:\n        /* \"#utility.yul\":12921:13464   */\n      pop\n      pop\n      pop\n      jump\t// out\n        /* \"#utility.yul\":13470:13587   */\n    tag_121:\n        /* \"#utility.yul\":13524:13532   */\n      0x00\n        /* \"#utility.yul\":13574:13579   */\n      dup3\n        /* \"#utility.yul\":13568:13572   */\n      dup3\n        /* \"#utility.yul\":13564:13580   */\n      shr\n        /* \"#utility.yul\":13543:13580   */\n      swap1\n      pop\n        /* \"#utility.yul\":13470:13587   */\n      swap3\n      swap2\n      pop\n      pop\n      jump\t// out\n        /* \"#utility.yul\":13593:13762   */\n    tag_122:\n        /* \"#utility.yul\":13637:13643   */\n      0x00\n        /* \"#utility.yul\":13670:13721   */\n      tag_267\n        /* \"#utility.yul\":13718:13719   */\n      0x00\n        /* \"#utility.yul\":13714:13720   */\n      not\n        /* \"#utility.yul\":13706:13711   */\n      dup5\n        /* \"#utility.yul\":13703:13704   */\n      0x08\n        /* \"#utility.yul\":13699:13712   */\n      mul\n        /* \"#utility.yul\":13670:13721   */\n      tag_121\n      jump\t// in\n    tag_267:\n        /* \"#utility.yul\":13666:13722   */\n      not\n        /* \"#utility.yul\":13751:13755   */\n      dup1\n        /* \"#utility.yul\":13745:13749   */\n      dup4\n        /* \"#utility.yul\":13741:13756   */\n      and\n        /* \"#utility.yul\":13731:13756   */\n      swap2\n      pop\n        /* \"#utility.yul\":13644:13762   */\n      pop\n        /* \"#utility.yul\":13593:13762   */\n      swap3\n      swap2\n      pop\n      pop\n      jump\t// out\n        /* \"#utility.yul\":13767:14062   */\n    tag_123:\n        /* \"#utility.yul\":13843:13847   */\n      0x00\n        /* \"#utility.yul\":13989:14018   */\n      tag_269\n        /* \"#utility.yul\":14014:14017   */\n      dup4\n        /* \"#utility.yul\":14008:14012   */\n      dup4\n        /* \"#utility.yul\":13989:14018   */\n      tag_122\n      jump\t// in\n    tag_269:\n        /* \"#utility.yul\":13981:14018   */\n      swap2\n      pop\n        /* \"#utility.yul\":14051:14054   */\n      dup3\n        /* \"#utility.yul\":14048:14049   */\n      0x02\n        /* \"#utility.yul\":14044:14055   */\n      mul\n        /* \"#utility.yul\":14038:14042   */\n      dup3\n        /* \"#utility.yul\":14035:14056   */\n      or\n        /* \"#utility.yul\":14027:14056   */\n      swap1\n      pop\n        /* \"#utility.yul\":13767:14062   */\n      swap3\n      swap2\n      pop\n      pop\n      jump\t// out\n        /* \"#utility.yul\":14067:15462   */\n    tag_42:\n        /* \"#utility.yul\":14184:14221   */\n      tag_271\n        /* \"#utility.yul\":14217:14220   */\n      dup3\n        /* \"#utility.yul\":14184:14221   */\n      tag_82\n      jump\t// in\n    tag_271:\n        /* \"#utility.yul\":14286:14304   */\n      0xffffffffffffffff\n        /* \"#utility.yul\":14278:14284   */\n      dup2\n        /* \"#utility.yul\":14275:14305   */\n      gt\n        /* \"#utility.yul\":14272:14328   */\n      iszero\n      tag_272\n      jumpi\n        /* \"#utility.yul\":14308:14326   */\n      tag_273\n      tag_99\n      jump\t// in\n    tag_273:\n        /* \"#utility.yul\":14272:14328   */\n    tag_272:\n        /* \"#utility.yul\":14352:14390   */\n      tag_274\n        /* \"#utility.yul\":14384:14388   */\n      dup3\n        /* \"#utility.yul\":14378:14389   */\n      sload\n        /* \"#utility.yul\":14352:14390   */\n      tag_35\n      jump\t// in\n    tag_274:\n        /* \"#utility.yul\":14437:14504   */\n      tag_275\n        /* \"#utility.yul\":14497:14503   */\n      dup3\n        /* \"#utility.yul\":14489:14495   */\n      dup3\n        /* \"#utility.yul\":14483:14487   */\n      dup6\n        /* \"#utility.yul\":14437:14504   */\n      tag_120\n      jump\t// in\n    tag_275:\n        /* \"#utility.yul\":14531:14532   */\n      0x00\n        /* \"#utility.yul\":14555:14559   */\n      0x20\n        /* \"#utility.yul\":14542:14559   */\n      swap1\n      pop\n        /* \"#utility.yul\":14587:14589   */\n      0x1f\n        /* \"#utility.yul\":14579:14585   */\n      dup4\n        /* \"#utility.yul\":14576:14590   */\n      gt\n        /* \"#utility.yul\":14604:14605   */\n      0x01\n        /* \"#utility.yul\":14599:15217   */\n      dup2\n      eq\n      tag_277\n      jumpi\n        /* \"#utility.yul\":15261:15262   */\n      0x00\n        /* \"#utility.yul\":15278:15284   */\n      dup5\n        /* \"#utility.yul\":15275:15352   */\n      iszero\n      tag_278\n      jumpi\n        /* \"#utility.yul\":15327:15336   */\n      dup3\n        /* \"#utility.yul\":15322:15325   */\n      dup8\n        /* \"#utility.yul\":15318:15337   */\n      add\n        /* \"#utility.yul\":15312:15338   */\n      mload\n        /* \"#utility.yul\":15303:15338   */\n      swap1\n      pop\n        /* \"#utility.yul\":15275:15352   */\n    tag_278:\n        /* \"#utility.yul\":15378:15445   */\n      tag_279\n        /* \"#utility.yul\":15438:15444   */\n      dup6\n        /* \"#utility.yul\":15431:15436   */\n      dup3\n        /* \"#utility.yul\":15378:15445   */\n      tag_123\n      jump\t// in\n    tag_279:\n        /* \"#utility.yul\":15372:15376   */\n      dup7\n        /* \"#utility.yul\":15365:15446   */\n      sstore\n        /* \"#utility.yul\":15234:15456   */\n      pop\n        /* \"#utility.yul\":14569:15456   */\n      jump(tag_276)\n        /* \"#utility.yul\":14599:15217   */\n    tag_277:\n        /* \"#utility.yul\":14651:14655   */\n      0x1f\n        /* \"#utility.yul\":14647:14656   */\n      not\n        /* \"#utility.yul\":14639:14645   */\n      dup5\n        /* \"#utility.yul\":14635:14657   */\n      and\n        /* \"#utility.yul\":14685:14722   */\n      tag_280\n        /* \"#utility.yul\":14717:14721   */\n      dup7\n        /* \"#utility.yul\":14685:14722   */\n      tag_109\n      jump\t// in\n    tag_280:\n        /* \"#utility.yul\":14744:14745   */\n      0x00\n        /* \"#utility.yul\":14758:14966   */\n    tag_281:\n        /* \"#utility.yul\":14772:14779   */\n      dup3\n        /* \"#utility.yul\":14769:14770   */\n      dup2\n        /* \"#utility.yul\":14766:14780   */\n      lt\n        /* \"#utility.yul\":14758:14966   */\n      iszero\n      tag_283\n      jumpi\n        /* \"#utility.yul\":14851:14860   */\n      dup5\n        /* \"#utility.yul\":14846:14849   */\n      dup10\n        /* \"#utility.yul\":14842:14861   */\n      add\n        /* \"#utility.yul\":14836:14862   */\n      mload\n        /* \"#utility.yul\":14828:14834   */\n      dup3\n        /* \"#utility.yul\":14821:14863   */\n      sstore\n        /* \"#utility.yul\":14902:14903   */\n      0x01\n        /* \"#utility.yul\":14894:14900   */\n      dup3\n        /* \"#utility.yul\":14890:14904   */\n      add\n        /* \"#utility.yul\":14880:14904   */\n      swap2\n      pop\n        /* \"#utility.yul\":14949:14951   */\n      0x20\n        /* \"#utility.yul\":14938:14947   */\n      dup6\n        /* \"#utility.yul\":14934:14952   */\n      add\n        /* \"#utility.yul\":14921:14952   */\n      swap5\n      pop\n        /* \"#utility.yul\":14795:14799   */\n      0x20\n        /* \"#utility.yul\":14792:14793   */\n      dup2\n        /* \"#utility.yul\":14788:14800   */\n      add\n        /* \"#utility.yul\":14783:14800   */\n      swap1\n      pop\n        /* \"#utility.yul\":14758:14966   */\n      jump(tag_281)\n    tag_283:\n        /* \"#utility.yul\":14994:15000   */\n      dup7\n        /* \"#utility.yul\":14985:14992   */\n      dup4\n        /* \"#utility.yul\":14982:15001   */\n      lt\n        /* \"#utility.yul\":14979:15158   */\n      iszero\n      tag_284\n      jumpi\n        /* \"#utility.yul\":15052:15061   */\n      dup5\n        /* \"#utility.yul\":15047:15050   */\n      dup10\n        /* \"#utility.yul\":15043:15062   */\n      add\n        /* \"#utility.yul\":15037:15063   */\n      mload\n        /* \"#utility.yul\":15095:15143   */\n      tag_285\n        /* \"#utility.yul\":15137:15141   */\n      0x1f\n        /* \"#utility.yul\":15129:15135   */\n      dup10\n        /* \"#utility.yul\":15125:15142   */\n      and\n        /* \"#utility.yul\":15114:15123   */\n      dup3\n        /* \"#utility.yul\":15095:15143   */\n      tag_122\n      jump\t// in\n    tag_285:\n        /* \"#utility.yul\":15087:15093   */\n      dup4\n        /* \"#utility.yul\":15080:15144   */\n      sstore\n        /* \"#utility.yul\":15002:15158   */\n      pop\n        /* \"#utility.yul\":14979:15158   */\n    tag_284:\n        /* \"#utility.yul\":15204:15205   */\n      0x01\n        /* \"#utility.yul\":15200:15201   */\n      0x02\n        /* \"#utility.yul\":15192:15198   */\n      dup9\n        /* \"#utility.yul\":15188:15202   */\n      mul\n        /* \"#utility.yul\":15184:15206   */\n      add\n        /* \"#utility.yul\":15178:15182   */\n      dup9\n        /* \"#utility.yul\":15171:15207   */\n      sstore\n        /* \"#utility.yul\":14606:15217   */\n      pop\n      pop\n      pop\n        /* \"#utility.yul\":14569:15456   */\n    tag_276:\n      pop\n        /* \"#utility.yul\":14159:15462   */\n      pop\n      pop\n      pop\n        /* \"#utility.yul\":14067:15462   */\n      pop\n      pop\n      jump\t// out\n        /* \"#utility.yul\":15468:15617   */\n    tag_124:\n        /* \"#utility.yul\":15517:15523   */\n      0x00\n        /* \"#utility.yul\":15551:15556   */\n      dup2\n        /* \"#utility.yul\":15545:15557   */\n      sload\n        /* \"#utility.yul\":15535:15557   */\n      swap1\n      pop\n        /* \"#utility.yul\":15577:15610   */\n      tag_287\n        /* \"#utility.yul\":15603:15609   */\n      dup2\n        /* \"#utility.yul\":15577:15610   */\n      tag_35\n      jump\t// in\n    tag_287:\n        /* \"#utility.yul\":15567:15610   */\n      swap1\n      pop\n        /* \"#utility.yul\":15468:15617   */\n      swap2\n      swap1\n      pop\n      jump\t// out\n        /* \"#utility.yul\":15623:17074   */\n    tag_45:\n        /* \"#utility.yul\":15734:15737   */\n      dup2\n        /* \"#utility.yul\":15728:15732   */\n      dup2\n        /* \"#utility.yul\":15725:15738   */\n      sub\n        /* \"#utility.yul\":15722:15748   */\n      tag_289\n      jumpi\n        /* \"#utility.yul\":15741:15746   */\n      pop\n      pop\n      jump(tag_288)\n        /* \"#utility.yul\":15722:15748   */\n    tag_289:\n        /* \"#utility.yul\":15772:15806   */\n      tag_290\n        /* \"#utility.yul\":15802:15805   */\n      dup3\n        /* \"#utility.yul\":15772:15806   */\n      tag_124\n      jump\t// in\n    tag_290:\n        /* \"#utility.yul\":15871:15889   */\n      0xffffffffffffffff\n        /* \"#utility.yul\":15863:15869   */\n      dup2\n        /* \"#utility.yul\":15860:15890   */\n      gt\n        /* \"#utility.yul\":15857:15913   */\n      iszero\n      tag_291\n      jumpi\n        /* \"#utility.yul\":15893:15911   */\n      tag_292\n      tag_99\n      jump\t// in\n    tag_292:\n        /* \"#utility.yul\":15857:15913   */\n    tag_291:\n        /* \"#utility.yul\":15937:15975   */\n      tag_293\n        /* \"#utility.yul\":15969:15973   */\n      dup3\n        /* \"#utility.yul\":15963:15974   */\n      sload\n        /* \"#utility.yul\":15937:15975   */\n      tag_35\n      jump\t// in\n    tag_293:\n        /* \"#utility.yul\":16022:16089   */\n      tag_294\n        /* \"#utility.yul\":16082:16088   */\n      dup3\n        /* \"#utility.yul\":16074:16080   */\n      dup3\n        /* \"#utility.yul\":16068:16072   */\n      dup6\n        /* \"#utility.yul\":16022:16089   */\n      tag_120\n      jump\t// in\n    tag_294:\n        /* \"#utility.yul\":16116:16117   */\n      0x00\n        /* \"#utility.yul\":16145:16147   */\n      0x1f\n        /* \"#utility.yul\":16137:16143   */\n      dup4\n        /* \"#utility.yul\":16134:16148   */\n      gt\n        /* \"#utility.yul\":16162:16163   */\n      0x01\n        /* \"#utility.yul\":16157:16829   */\n      dup2\n      eq\n      tag_296\n      jumpi\n        /* \"#utility.yul\":16873:16874   */\n      0x00\n        /* \"#utility.yul\":16890:16896   */\n      dup5\n        /* \"#utility.yul\":16887:16964   */\n      iszero\n      tag_297\n      jumpi\n        /* \"#utility.yul\":16939:16948   */\n      dup3\n        /* \"#utility.yul\":16934:16937   */\n      dup8\n        /* \"#utility.yul\":16930:16949   */\n      add\n        /* \"#utility.yul\":16924:16950   */\n      sload\n        /* \"#utility.yul\":16915:16950   */\n      swap1\n      pop\n        /* \"#utility.yul\":16887:16964   */\n    tag_297:\n        /* \"#utility.yul\":16990:17057   */\n      tag_298\n        /* \"#utility.yul\":17050:17056   */\n      dup6\n        /* \"#utility.yul\":17043:17048   */\n      dup3\n        /* \"#utility.yul\":16990:17057   */\n      tag_123\n      jump\t// in\n    tag_298:\n        /* \"#utility.yul\":16984:16988   */\n      dup7\n        /* \"#utility.yul\":16977:17058   */\n      sstore\n        /* \"#utility.yul\":16846:17068   */\n      pop\n        /* \"#utility.yul\":16127:17068   */\n      jump(tag_295)\n        /* \"#utility.yul\":16157:16829   */\n    tag_296:\n        /* \"#utility.yul\":16209:16213   */\n      0x1f\n        /* \"#utility.yul\":16205:16214   */\n      not\n        /* \"#utility.yul\":16197:16203   */\n      dup5\n        /* \"#utility.yul\":16193:16215   */\n      and\n        /* \"#utility.yul\":16235:16271   */\n      tag_299\n        /* \"#utility.yul\":16267:16270   */\n      dup8\n        /* \"#utility.yul\":16235:16271   */\n      tag_109\n      jump\t// in\n    tag_299:\n        /* \"#utility.yul\":16228:16271   */\n      swap7\n      pop\n        /* \"#utility.yul\":16298:16335   */\n      tag_300\n        /* \"#utility.yul\":16330:16334   */\n      dup7\n        /* \"#utility.yul\":16298:16335   */\n      tag_109\n      jump\t// in\n    tag_300:\n        /* \"#utility.yul\":16357:16358   */\n      0x00\n        /* \"#utility.yul\":16371:16578   */\n    tag_301:\n        /* \"#utility.yul\":16385:16392   */\n      dup3\n        /* \"#utility.yul\":16382:16383   */\n      dup2\n        /* \"#utility.yul\":16379:16393   */\n      lt\n        /* \"#utility.yul\":16371:16578   */\n      iszero\n      tag_303\n      jumpi\n        /* \"#utility.yul\":16464:16473   */\n      dup5\n        /* \"#utility.yul\":16459:16462   */\n      dup10\n        /* \"#utility.yul\":16455:16474   */\n      add\n        /* \"#utility.yul\":16449:16475   */\n      sload\n        /* \"#utility.yul\":16441:16447   */\n      dup3\n        /* \"#utility.yul\":16434:16476   */\n      sstore\n        /* \"#utility.yul\":16515:16516   */\n      0x01\n        /* \"#utility.yul\":16507:16513   */\n      dup3\n        /* \"#utility.yul\":16503:16517   */\n      add\n        /* \"#utility.yul\":16493:16517   */\n      swap2\n      pop\n        /* \"#utility.yul\":16562:16563   */\n      0x01\n        /* \"#utility.yul\":16551:16560   */\n      dup6\n        /* \"#utility.yul\":16547:16564   */\n      add\n        /* \"#utility.yul\":16534:16564   */\n      swap5\n      pop\n        /* \"#utility.yul\":16408:16412   */\n      0x20\n        /* \"#utility.yul\":16405:16406   */\n      dup2\n        /* \"#utility.yul\":16401:16413   */\n      add\n        /* \"#utility.yul\":16396:16413   */\n      swap1\n      pop\n        /* \"#utility.yul\":16371:16578   */\n      jump(tag_301)\n    tag_303:\n        /* \"#utility.yul\":16606:16612   */\n      dup7\n        /* \"#utility.yul\":16597:16604   */\n      dup4\n        /* \"#utility.yul\":16594:16613   */\n      lt\n        /* \"#utility.yul\":16591:16770   */\n      iszero\n      tag_304\n      jumpi\n        /* \"#utility.yul\":16664:16673   */\n      dup5\n        /* \"#utility.yul\":16659:16662   */\n      dup10\n        /* \"#utility.yul\":16655:16674   */\n      add\n        /* \"#utility.yul\":16649:16675   */\n      sload\n        /* \"#utility.yul\":16707:16755   */\n      tag_305\n        /* \"#utility.yul\":16749:16753   */\n      0x1f\n        /* \"#utility.yul\":16741:16747   */\n      dup10\n        /* \"#utility.yul\":16737:16754   */\n      and\n        /* \"#utility.yul\":16726:16735   */\n      dup3\n        /* \"#utility.yul\":16707:16755   */\n      tag_122\n      jump\t// in\n    tag_305:\n        /* \"#utility.yul\":16699:16705   */\n      dup4\n        /* \"#utility.yul\":16692:16756   */\n      sstore\n        /* \"#utility.yul\":16614:16770   */\n      pop\n        /* \"#utility.yul\":16591:16770   */\n    tag_304:\n        /* \"#utility.yul\":16816:16817   */\n      0x01\n        /* \"#utility.yul\":16812:16813   */\n      0x02\n        /* \"#utility.yul\":16804:16810   */\n      dup9\n        /* \"#utility.yul\":16800:16814   */\n      mul\n        /* \"#utility.yul\":16796:16818   */\n      add\n        /* \"#utility.yul\":16790:16794   */\n      dup9\n        /* \"#utility.yul\":16783:16819   */\n      sstore\n        /* \"#utility.yul\":16164:16829   */\n      pop\n      pop\n      pop\n        /* \"#utility.yul\":16127:17068   */\n    tag_295:\n      pop\n        /* \"#utility.yul\":15712:17074   */\n      pop\n      pop\n      pop\n        /* \"#utility.yul\":15623:17074   */\n      pop\n      pop\n    tag_288:\n      jump\t// out\n        /* \"#utility.yul\":17080:17260   */\n    tag_125:\n        /* \"#utility.yul\":17128:17205   */\n      0x4e487b7100000000000000000000000000000000000000000000000000000000\n        /* \"#utility.yul\":17125:17126   */\n      0x00\n        /* \"#utility.yul\":17118:17206   */\n      mstore\n        /* \"#utility.yul\":17225:17229   */\n      0x11\n        /* \"#utility.yul\":17222:17223   */\n      0x04\n        /* \"#utility.yul\":17215:17230   */\n      mstore\n        /* \"#utility.yul\":17249:17253   */\n      0x24\n        /* \"#utility.yul\":17246:17247   */\n      0x00\n        /* \"#utility.yul\":17239:17254   */\n      revert\n        /* \"#utility.yul\":17266:17460   */\n    tag_52:\n        /* \"#utility.yul\":17306:17310   */\n      0x00\n        /* \"#utility.yul\":17326:17346   */\n      tag_308\n        /* \"#utility.yul\":17344:17345   */\n      dup3\n        /* \"#utility.yul\":17326:17346   */\n      tag_74\n      jump\t// in\n    tag_308:\n        /* \"#utility.yul\":17321:17346   */\n      swap2\n      pop\n        /* \"#utility.yul\":17360:17380   */\n      tag_309\n        /* \"#utility.yul\":17378:17379   */\n      dup4\n        /* \"#utility.yul\":17360:17380   */\n      tag_74\n      jump\t// in\n    tag_309:\n        /* \"#utility.yul\":17355:17380   */\n      swap3\n      pop\n        /* \"#utility.yul\":17404:17405   */\n      dup3\n        /* \"#utility.yul\":17401:17402   */\n      dup3\n        /* \"#utility.yul\":17397:17406   */\n      sub\n        /* \"#utility.yul\":17389:17406   */\n      swap1\n      pop\n        /* \"#utility.yul\":17428:17429   */\n      dup2\n        /* \"#utility.yul\":17422:17426   */\n      dup2\n        /* \"#utility.yul\":17419:17430   */\n      gt\n        /* \"#utility.yul\":17416:17453   */\n      iszero\n      tag_310\n      jumpi\n        /* \"#utility.yul\":17433:17451   */\n      tag_311\n      tag_125\n      jump\t// in\n    tag_311:\n        /* \"#utility.yul\":17416:17453   */\n    tag_310:\n        /* \"#utility.yul\":17266:17460   */\n      swap3\n      swap2\n      pop\n      pop\n      jump\t// out\n        /* \"#utility.yul\":17466:17646   */\n    tag_55:\n        /* \"#utility.yul\":17514:17591   */\n      0x4e487b7100000000000000000000000000000000000000000000000000000000\n        /* \"#utility.yul\":17511:17512   */\n      0x00\n        /* \"#utility.yul\":17504:17592   */\n      mstore\n        /* \"#utility.yul\":17611:17615   */\n      0x32\n        /* \"#utility.yul\":17608:17609   */\n      0x04\n        /* \"#utility.yul\":17601:17616   */\n      mstore\n        /* \"#utility.yul\":17635:17639   */\n      0x24\n        /* \"#utility.yul\":17632:17633   */\n      0x00\n        /* \"#utility.yul\":17625:17640   */\n      revert\n        /* \"#utility.yul\":17652:17888   */\n    tag_126:\n        /* \"#utility.yul\":17792:17826   */\n      0x6e65656420746f2070617920302e30312065746820746f206a6f696e20746865\n        /* \"#utility.yul\":17788:17789   */\n      0x00\n        /* \"#utility.yul\":17780:17786   */\n      dup3\n        /* \"#utility.yul\":17776:17790   */\n      add\n        /* \"#utility.yul\":17769:17827   */\n      mstore\n        /* \"#utility.yul\":17861:17880   */\n      0x20726f6f6d202831302046696e6e657929000000000000000000000000000000\n        /* \"#utility.yul\":17856:17858   */\n      0x20\n        /* \"#utility.yul\":17848:17854   */\n      dup3\n        /* \"#utility.yul\":17844:17859   */\n      add\n        /* \"#utility.yul\":17837:17881   */\n      mstore\n        /* \"#utility.yul\":17652:17888   */\n      pop\n      jump\t// out\n        /* \"#utility.yul\":17894:18260   */\n    tag_127:\n        /* \"#utility.yul\":18036:18039   */\n      0x00\n        /* \"#utility.yul\":18057:18124   */\n      tag_315\n        /* \"#utility.yul\":18121:18123   */\n      0x31\n        /* \"#utility.yul\":18116:18119   */\n      dup4\n        /* \"#utility.yul\":18057:18124   */\n      tag_106\n      jump\t// in\n    tag_315:\n        /* \"#utility.yul\":18050:18124   */\n      swap2\n      pop\n        /* \"#utility.yul\":18133:18226   */\n      tag_316\n        /* \"#utility.yul\":18222:18225   */\n      dup3\n        /* \"#utility.yul\":18133:18226   */\n      tag_126\n      jump\t// in\n    tag_316:\n        /* \"#utility.yul\":18251:18253   */\n      0x40\n        /* \"#utility.yul\":18246:18249   */\n      dup3\n        /* \"#utility.yul\":18242:18254   */\n      add\n        /* \"#utility.yul\":18235:18254   */\n      swap1\n      pop\n        /* \"#utility.yul\":17894:18260   */\n      swap2\n      swap1\n      pop\n      jump\t// out\n        /* \"#utility.yul\":18266:18685   */\n    tag_70:\n        /* \"#utility.yul\":18432:18436   */\n      0x00\n        /* \"#utility.yul\":18470:18472   */\n      0x20\n        /* \"#utility.yul\":18459:18468   */\n      dup3\n        /* \"#utility.yul\":18455:18473   */\n      add\n        /* \"#utility.yul\":18447:18473   */\n      swap1\n      pop\n        /* \"#utility.yul\":18519:18528   */\n      dup2\n        /* \"#utility.yul\":18513:18517   */\n      dup2\n        /* \"#utility.yul\":18509:18529   */\n      sub\n        /* \"#utility.yul\":18505:18506   */\n      0x00\n        /* \"#utility.yul\":18494:18503   */\n      dup4\n        /* \"#utility.yul\":18490:18507   */\n      add\n        /* \"#utility.yul\":18483:18530   */\n      mstore\n        /* \"#utility.yul\":18547:18678   */\n      tag_318\n        /* \"#utility.yul\":18673:18677   */\n      dup2\n        /* \"#utility.yul\":18547:18678   */\n      tag_127\n      jump\t// in\n    tag_318:\n        /* \"#utility.yul\":18539:18678   */\n      swap1\n      pop\n        /* \"#utility.yul\":18266:18685   */\n      swap2\n      swap1\n      pop\n      jump\t// out\n\n    auxdata: 0xa2646970667358221220ec846dece8e2971e76664e81cc1d6c0f64ddeb4abaa43ee9b7e95652f8743b1a64736f6c63430008190033\n}\n",
				"bytecode": {
					"linkReferences": {},
					"object": "6080604052348015600e575f80fd5b506110298061001c5f395ff3fe60806040526004361061003e575f3560e01c80636d4ce63c14610042578063832880e71461006c578063d0020fad14610096578063d0e30db0146100be575b5f80fd5b34801561004d575f80fd5b506100566100dc565b6040516100639190610713565b60405180910390f35b348015610077575f80fd5b50610080610126565b60405161008d9190610909565b60405180910390f35b3480156100a1575f80fd5b506100bc60048036038101906100b79190610a66565b610284565b005b6100c6610466565b6040516100d39190610af5565b60405180910390f35b6100e461062b565b5f60048060200260405190810160405280929190826004801561011c576020028201915b815481526020019060010190808311610108575b5050505050905090565b60606004805480602002602001604051908101604052809291908181526020015f905b8282101561027b578382905f5260205f2090600502016040518060a00160405290815f820154815260200160018201805461018390610b42565b80601f01602080910402602001604051908101604052809291908181526020018280546101af90610b42565b80156101fa5780601f106101d1576101008083540402835291602001916101fa565b820191905f5260205f20905b8154815290600101906020018083116101dd57829003601f168201915b50505050508152602001600282015f9054906101000a900473ffffffffffffffffffffffffffffffffffffffff1673ffffffffffffffffffffffffffffffffffffffff1673ffffffffffffffffffffffffffffffffffffffff1681526020016003820154815260200160048201548152505081526020019060010190610149565b50505050905090565b6040518060a0016040528060048054905081526020018281526020013373ffffffffffffffffffffffffffffffffffffffff1681526020013373ffffffffffffffffffffffffffffffffffffffff163181526020015f81525060055f820151815f015560208201518160010190816102fc9190610d0f565b506040820151816002015f6101000a81548173ffffffffffffffffffffffffffffffffffffffff021916908373ffffffffffffffffffffffffffffffffffffffff160217905550606082015181600301556080820151816004015590505060046005908060018154018082558091505060019003905f5260205f2090600502015f909190919091505f820154815f0155600182018160010190816103a09190610df3565b50600282015f9054906101000a900473ffffffffffffffffffffffffffffffffffffffff16816002015f6101000a81548173ffffffffffffffffffffffffffffffffffffffff021916908373ffffffffffffffffffffffffffffffffffffffff16021790555060038201548160030155600482015481600401555050600480549050600a5f3373ffffffffffffffffffffffffffffffffffffffff1673ffffffffffffffffffffffffffffffffffffffff1681526020019081526020015f208190555050565b6060662386f26fc1000034036105ed575f5b60048110156105af575f80600260046104919190610f05565b600481106104a2576104a1610f38565b5b0154146104f3575f806104b5919061064d565b6040518060400160405280600a81526020017f726f6f6d20726573657400000000000000000000000000000000000000000000815250915050610628565b5f80826004811061050757610506610f38565b5b0154036105a257600a5f3373ffffffffffffffffffffffffffffffffffffffff1673ffffffffffffffffffffffffffffffffffffffff1681526020019081526020015f20545f826004811061055f5761055e610f38565b5b01819055506040518060400160405280600181526020017f4f00000000000000000000000000000000000000000000000000000000000000815250915050610628565b8080600101915050610478565b506040518060400160405280600f81526020017f6a6f696e65642074686520726f6f6d00000000000000000000000000000000008152509050610628565b6040517f08c379a000000000000000000000000000000000000000000000000000000000815260040161061f90610fd5565b60405180910390fd5b90565b6040518060800160405280600490602082028036833780820191505090505090565b505f81556001015f81556001015f81556001015f9055565b5f60049050919050565b5f81905092915050565b5f819050919050565b5f819050919050565b61069481610682565b82525050565b5f6106a5838361068b565b60208301905092915050565b5f602082019050919050565b6106c681610665565b6106d0818461066f565b92506106db82610679565b805f5b8381101561070b5781516106f2878261069a565b96506106fd836106b1565b9250506001810190506106de565b505050505050565b5f6080820190506107265f8301846106bd565b92915050565b5f81519050919050565b5f82825260208201905092915050565b5f819050602082019050919050565b5f81519050919050565b5f82825260208201905092915050565b8281835e5f83830152505050565b5f601f19601f8301169050919050565b5f61079782610755565b6107a1818561075f565b93506107b181856020860161076f565b6107ba8161077d565b840191505092915050565b5f73ffffffffffffffffffffffffffffffffffffffff82169050919050565b5f6107ee826107c5565b9050919050565b6107fe816107e4565b82525050565b5f60a083015f8301516108195f86018261068b565b5060208301518482036020860152610831828261078d565b915050604083015161084660408601826107f5565b506060830151610859606086018261068b565b50608083015161086c608086018261068b565b508091505092915050565b5f6108828383610804565b905092915050565b5f602082019050919050565b5f6108a08261072c565b6108aa8185610736565b9350836020820285016108bc85610746565b805f5b858110156108f757848403895281516108d88582610877565b94506108e38361088a565b925060208a019950506001810190506108bf565b50829750879550505050505092915050565b5f6020820190508181035f8301526109218184610896565b905092915050565b5f604051905090565b5f80fd5b5f80fd5b5f80fd5b5f80fd5b7f4e487b71000000000000000000000000000000000000000000000000000000005f52604160045260245ffd5b6109788261077d565b810181811067ffffffffffffffff8211171561099757610996610942565b5b80604052505050565b5f6109a9610929565b90506109b5828261096f565b919050565b5f67ffffffffffffffff8211156109d4576109d3610942565b5b6109dd8261077d565b9050602081019050919050565b828183375f83830152505050565b5f610a0a610a05846109ba565b6109a0565b905082815260208101848484011115610a2657610a2561093e565b5b610a318482856109ea565b509392505050565b5f82601f830112610a4d57610a4c61093a565b5b8135610a5d8482602086016109f8565b91505092915050565b5f60208284031215610a7b57610a7a610932565b5b5f82013567ffffffffffffffff811115610a9857610a97610936565b5b610aa484828501610a39565b91505092915050565b5f82825260208201905092915050565b5f610ac782610755565b610ad18185610aad565b9350610ae181856020860161076f565b610aea8161077d565b840191505092915050565b5f6020820190508181035f830152610b0d8184610abd565b905092915050565b7f4e487b71000000000000000000000000000000000000000000000000000000005f52602260045260245ffd5b5f6002820490506001821680610b5957607f821691505b602082108103610b6c57610b6b610b15565b5b50919050565b5f819050815f5260205f209050919050565b5f6020601f8301049050919050565b5f82821b905092915050565b5f60088302610bce7fffffffffffffffffffffffffffffffffffffffffffffffffffffffffffffffff82610b93565b610bd88683610b93565b95508019841693508086168417925050509392505050565b5f819050919050565b5f610c13610c0e610c0984610682565b610bf0565b610682565b9050919050565b5f819050919050565b610c2c83610bf9565b610c40610c3882610c1a565b848454610b9f565b825550505050565b5f90565b610c54610c48565b610c5f818484610c23565b505050565b5b81811015610c8257610c775f82610c4c565b600181019050610c65565b5050565b601f821115610cc757610c9881610b72565b610ca184610b84565b81016020851015610cb0578190505b610cc4610cbc85610b84565b830182610c64565b50505b505050565b5f82821c905092915050565b5f610ce75f1984600802610ccc565b1980831691505092915050565b5f610cff8383610cd8565b9150826002028217905092915050565b610d1882610755565b67ffffffffffffffff811115610d3157610d30610942565b5b610d3b8254610b42565b610d46828285610c86565b5f60209050601f831160018114610d77575f8415610d65578287015190505b610d6f8582610cf4565b865550610dd6565b601f198416610d8586610b72565b5f5b82811015610dac57848901518255600182019150602085019450602081019050610d87565b86831015610dc95784890151610dc5601f891682610cd8565b8355505b6001600288020188555050505b505050505050565b5f81549050610dec81610b42565b9050919050565b818103610e01575050610ed6565b610e0a82610dde565b67ffffffffffffffff811115610e2357610e22610942565b5b610e2d8254610b42565b610e38828285610c86565b5f601f831160018114610e65575f8415610e53578287015490505b610e5d8582610cf4565b865550610ecf565b601f198416610e7387610b72565b9650610e7e86610b72565b5f5b82811015610ea557848901548255600182019150600185019450602081019050610e80565b86831015610ec25784890154610ebe601f891682610cd8565b8355505b6001600288020188555050505b5050505050505b565b7f4e487b71000000000000000000000000000000000000000000000000000000005f52601160045260245ffd5b5f610f0f82610682565b9150610f1a83610682565b9250828203905081811115610f3257610f31610ed8565b5b92915050565b7f4e487b71000000000000000000000000000000000000000000000000000000005f52603260045260245ffd5b7f6e65656420746f2070617920302e30312065746820746f206a6f696e207468655f8201527f20726f6f6d202831302046696e6e657929000000000000000000000000000000602082015250565b5f610fbf603183610aad565b9150610fca82610f65565b604082019050919050565b5f6020820190508181035f830152610fec81610fb3565b905091905056fea2646970667358221220ec846dece8e2971e76664e81cc1d6c0f64ddeb4abaa43ee9b7e95652f8743b1a64736f6c63430008190033",
					"opcodes": "PUSH1 0x80 PUSH1 0x40 MSTORE CALLVALUE DUP1 ISZERO PUSH1 0xE JUMPI PUSH0 DUP1 REVERT JUMPDEST POP PUSH2 0x1029 DUP1 PUSH2 0x1C PUSH0 CODECOPY PUSH0 RETURN INVALID PUSH1 0x80 PUSH1 0x40 MSTORE PUSH1 0x4 CALLDATASIZE LT PUSH2 0x3E JUMPI PUSH0 CALLDATALOAD PUSH1 0xE0 SHR DUP1 PUSH4 0x6D4CE63C EQ PUSH2 0x42 JUMPI DUP1 PUSH4 0x832880E7 EQ PUSH2 0x6C JUMPI DUP1 PUSH4 0xD0020FAD EQ PUSH2 0x96 JUMPI DUP1 PUSH4 0xD0E30DB0 EQ PUSH2 0xBE JUMPI JUMPDEST PUSH0 DUP1 REVERT JUMPDEST CALLVALUE DUP1 ISZERO PUSH2 0x4D JUMPI PUSH0 DUP1 REVERT JUMPDEST POP PUSH2 0x56 PUSH2 0xDC JUMP JUMPDEST PUSH1 0x40 MLOAD PUSH2 0x63 SWAP2 SWAP1 PUSH2 0x713 JUMP JUMPDEST PUSH1 0x40 MLOAD DUP1 SWAP2 SUB SWAP1 RETURN JUMPDEST CALLVALUE DUP1 ISZERO PUSH2 0x77 JUMPI PUSH0 DUP1 REVERT JUMPDEST POP PUSH2 0x80 PUSH2 0x126 JUMP JUMPDEST PUSH1 0x40 MLOAD PUSH2 0x8D SWAP2 SWAP1 PUSH2 0x909 JUMP JUMPDEST PUSH1 0x40 MLOAD DUP1 SWAP2 SUB SWAP1 RETURN JUMPDEST CALLVALUE DUP1 ISZERO PUSH2 0xA1 JUMPI PUSH0 DUP1 REVERT JUMPDEST POP PUSH2 0xBC PUSH1 0x4 DUP1 CALLDATASIZE SUB DUP2 ADD SWAP1 PUSH2 0xB7 SWAP2 SWAP1 PUSH2 0xA66 JUMP JUMPDEST PUSH2 0x284 JUMP JUMPDEST STOP JUMPDEST PUSH2 0xC6 PUSH2 0x466 JUMP JUMPDEST PUSH1 0x40 MLOAD PUSH2 0xD3 SWAP2 SWAP1 PUSH2 0xAF5 JUMP JUMPDEST PUSH1 0x40 MLOAD DUP1 SWAP2 SUB SWAP1 RETURN JUMPDEST PUSH2 0xE4 PUSH2 0x62B JUMP JUMPDEST PUSH0 PUSH1 0x4 DUP1 PUSH1 0x20 MUL PUSH1 0x40 MLOAD SWAP1 DUP2 ADD PUSH1 0x40 MSTORE DUP1 SWAP3 SWAP2 SWAP1 DUP3 PUSH1 0x4 DUP1 ISZERO PUSH2 0x11C JUMPI PUSH1 0x20 MUL DUP3 ADD SWAP2 JUMPDEST DUP2 SLOAD DUP2 MSTORE PUSH1 0x20 ADD SWAP1 PUSH1 0x1 ADD SWAP1 DUP1 DUP4 GT PUSH2 0x108 JUMPI JUMPDEST POP POP POP POP POP SWAP1 POP SWAP1 JUMP JUMPDEST PUSH1 0x60 PUSH1 0x4 DUP1 SLOAD DUP1 PUSH1 0x20 MUL PUSH1 0x20 ADD PUSH1 0x40 MLOAD SWAP1 DUP2 ADD PUSH1 0x40 MSTORE DUP1 SWAP3 SWAP2 SWAP1 DUP2 DUP2 MSTORE PUSH1 0x20 ADD PUSH0 SWAP1 JUMPDEST DUP3 DUP3 LT ISZERO PUSH2 0x27B JUMPI DUP4 DUP3 SWAP1 PUSH0 MSTORE PUSH1 0x20 PUSH0 KECCAK256 SWAP1 PUSH1 0x5 MUL ADD PUSH1 0x40 MLOAD DUP1 PUSH1 0xA0 ADD PUSH1 0x40 MSTORE SWAP1 DUP2 PUSH0 DUP3 ADD SLOAD DUP2 MSTORE PUSH1 0x20 ADD PUSH1 0x1 DUP3 ADD DUP1 SLOAD PUSH2 0x183 SWAP1 PUSH2 0xB42 JUMP JUMPDEST DUP1 PUSH1 0x1F ADD PUSH1 0x20 DUP1 SWAP2 DIV MUL PUSH1 0x20 ADD PUSH1 0x40 MLOAD SWAP1 DUP2 ADD PUSH1 0x40 MSTORE DUP1 SWAP3 SWAP2 SWAP1 DUP2 DUP2 MSTORE PUSH1 0x20 ADD DUP3 DUP1 SLOAD PUSH2 0x1AF SWAP1 PUSH2 0xB42 JUMP JUMPDEST DUP1 ISZERO PUSH2 0x1FA JUMPI DUP1 PUSH1 0x1F LT PUSH2 0x1D1 JUMPI PUSH2 0x100 DUP1 DUP4 SLOAD DIV MUL DUP4 MSTORE SWAP2 PUSH1 0x20 ADD SWAP2 PUSH2 0x1FA JUMP JUMPDEST DUP3 ADD SWAP2 SWAP1 PUSH0 MSTORE PUSH1 0x20 PUSH0 KECCAK256 SWAP1 JUMPDEST DUP2 SLOAD DUP2 MSTORE SWAP1 PUSH1 0x1 ADD SWAP1 PUSH1 0x20 ADD DUP1 DUP4 GT PUSH2 0x1DD JUMPI DUP3 SWAP1 SUB PUSH1 0x1F AND DUP3 ADD SWAP2 JUMPDEST POP POP POP POP POP DUP2 MSTORE PUSH1 0x20 ADD PUSH1 0x2 DUP3 ADD PUSH0 SWAP1 SLOAD SWAP1 PUSH2 0x100 EXP SWAP1 DIV PUSH20 0xFFFFFFFFFFFFFFFFFFFFFFFFFFFFFFFFFFFFFFFF AND PUSH20 0xFFFFFFFFFFFFFFFFFFFFFFFFFFFFFFFFFFFFFFFF AND PUSH20 0xFFFFFFFFFFFFFFFFFFFFFFFFFFFFFFFFFFFFFFFF AND DUP2 MSTORE PUSH1 0x20 ADD PUSH1 0x3 DUP3 ADD SLOAD DUP2 MSTORE PUSH1 0x20 ADD PUSH1 0x4 DUP3 ADD SLOAD DUP2 MSTORE POP POP DUP2 MSTORE PUSH1 0x20 ADD SWAP1 PUSH1 0x1 ADD SWAP1 PUSH2 0x149 JUMP JUMPDEST POP POP POP POP SWAP1 POP SWAP1 JUMP JUMPDEST PUSH1 0x40 MLOAD DUP1 PUSH1 0xA0 ADD PUSH1 0x40 MSTORE DUP1 PUSH1 0x4 DUP1 SLOAD SWAP1 POP DUP2 MSTORE PUSH1 0x20 ADD DUP3 DUP2 MSTORE PUSH1 0x20 ADD CALLER PUSH20 0xFFFFFFFFFFFFFFFFFFFFFFFFFFFFFFFFFFFFFFFF AND DUP2 MSTORE PUSH1 0x20 ADD CALLER PUSH20 0xFFFFFFFFFFFFFFFFFFFFFFFFFFFFFFFFFFFFFFFF AND BALANCE DUP2 MSTORE PUSH1 0x20 ADD PUSH0 DUP2 MSTORE POP PUSH1 0x5 PUSH0 DUP3 ADD MLOAD DUP2 PUSH0 ADD SSTORE PUSH1 0x20 DUP3 ADD MLOAD DUP2 PUSH1 0x1 ADD SWAP1 DUP2 PUSH2 0x2FC SWAP2 SWAP1 PUSH2 0xD0F JUMP JUMPDEST POP PUSH1 0x40 DUP3 ADD MLOAD DUP2 PUSH1 0x2 ADD PUSH0 PUSH2 0x100 EXP DUP2 SLOAD DUP2 PUSH20 0xFFFFFFFFFFFFFFFFFFFFFFFFFFFFFFFFFFFFFFFF MUL NOT AND SWAP1 DUP4 PUSH20 0xFFFFFFFFFFFFFFFFFFFFFFFFFFFFFFFFFFFFFFFF AND MUL OR SWAP1 SSTORE POP PUSH1 0x60 DUP3 ADD MLOAD DUP2 PUSH1 0x3 ADD SSTORE PUSH1 0x80 DUP3 ADD MLOAD DUP2 PUSH1 0x4 ADD SSTORE SWAP1 POP POP PUSH1 0x4 PUSH1 0x5 SWAP1 DUP1 PUSH1 0x1 DUP2 SLOAD ADD DUP1 DUP3 SSTORE DUP1 SWAP2 POP POP PUSH1 0x1 SWAP1 SUB SWAP1 PUSH0 MSTORE PUSH1 0x20 PUSH0 KECCAK256 SWAP1 PUSH1 0x5 MUL ADD PUSH0 SWAP1 SWAP2 SWAP1 SWAP2 SWAP1 SWAP2 POP PUSH0 DUP3 ADD SLOAD DUP2 PUSH0 ADD SSTORE PUSH1 0x1 DUP3 ADD DUP2 PUSH1 0x1 ADD SWAP1 DUP2 PUSH2 0x3A0 SWAP2 SWAP1 PUSH2 0xDF3 JUMP JUMPDEST POP PUSH1 0x2 DUP3 ADD PUSH0 SWAP1 SLOAD SWAP1 PUSH2 0x100 EXP SWAP1 DIV PUSH20 0xFFFFFFFFFFFFFFFFFFFFFFFFFFFFFFFFFFFFFFFF AND DUP2 PUSH1 0x2 ADD PUSH0 PUSH2 0x100 EXP DUP2 SLOAD DUP2 PUSH20 0xFFFFFFFFFFFFFFFFFFFFFFFFFFFFFFFFFFFFFFFF MUL NOT AND SWAP1 DUP4 PUSH20 0xFFFFFFFFFFFFFFFFFFFFFFFFFFFFFFFFFFFFFFFF AND MUL OR SWAP1 SSTORE POP PUSH1 0x3 DUP3 ADD SLOAD DUP2 PUSH1 0x3 ADD SSTORE PUSH1 0x4 DUP3 ADD SLOAD DUP2 PUSH1 0x4 ADD SSTORE POP POP PUSH1 0x4 DUP1 SLOAD SWAP1 POP PUSH1 0xA PUSH0 CALLER PUSH20 0xFFFFFFFFFFFFFFFFFFFFFFFFFFFFFFFFFFFFFFFF AND PUSH20 0xFFFFFFFFFFFFFFFFFFFFFFFFFFFFFFFFFFFFFFFF AND DUP2 MSTORE PUSH1 0x20 ADD SWAP1 DUP2 MSTORE PUSH1 0x20 ADD PUSH0 KECCAK256 DUP2 SWAP1 SSTORE POP POP JUMP JUMPDEST PUSH1 0x60 PUSH7 0x2386F26FC10000 CALLVALUE SUB PUSH2 0x5ED JUMPI PUSH0 JUMPDEST PUSH1 0x4 DUP2 LT ISZERO PUSH2 0x5AF JUMPI PUSH0 DUP1 PUSH1 0x2 PUSH1 0x4 PUSH2 0x491 SWAP2 SWAP1 PUSH2 0xF05 JUMP JUMPDEST PUSH1 0x4 DUP2 LT PUSH2 0x4A2 JUMPI PUSH2 0x4A1 PUSH2 0xF38 JUMP JUMPDEST JUMPDEST ADD SLOAD EQ PUSH2 0x4F3 JUMPI PUSH0 DUP1 PUSH2 0x4B5 SWAP2 SWAP1 PUSH2 0x64D JUMP JUMPDEST PUSH1 0x40 MLOAD DUP1 PUSH1 0x40 ADD PUSH1 0x40 MSTORE DUP1 PUSH1 0xA DUP2 MSTORE PUSH1 0x20 ADD PUSH32 0x726F6F6D20726573657400000000000000000000000000000000000000000000 DUP2 MSTORE POP SWAP2 POP POP PUSH2 0x628 JUMP JUMPDEST PUSH0 DUP1 DUP3 PUSH1 0x4 DUP2 LT PUSH2 0x507 JUMPI PUSH2 0x506 PUSH2 0xF38 JUMP JUMPDEST JUMPDEST ADD SLOAD SUB PUSH2 0x5A2 JUMPI PUSH1 0xA PUSH0 CALLER PUSH20 0xFFFFFFFFFFFFFFFFFFFFFFFFFFFFFFFFFFFFFFFF AND PUSH20 0xFFFFFFFFFFFFFFFFFFFFFFFFFFFFFFFFFFFFFFFF AND DUP2 MSTORE PUSH1 0x20 ADD SWAP1 DUP2 MSTORE PUSH1 0x20 ADD PUSH0 KECCAK256 SLOAD PUSH0 DUP3 PUSH1 0x4 DUP2 LT PUSH2 0x55F JUMPI PUSH2 0x55E PUSH2 0xF38 JUMP JUMPDEST JUMPDEST ADD DUP2 SWAP1 SSTORE POP PUSH1 0x40 MLOAD DUP1 PUSH1 0x40 ADD PUSH1 0x40 MSTORE DUP1 PUSH1 0x1 DUP2 MSTORE PUSH1 0x20 ADD PUSH32 0x4F00000000000000000000000000000000000000000000000000000000000000 DUP2 MSTORE POP SWAP2 POP POP PUSH2 0x628 JUMP JUMPDEST DUP1 DUP1 PUSH1 0x1 ADD SWAP2 POP POP PUSH2 0x478 JUMP JUMPDEST POP PUSH1 0x40 MLOAD DUP1 PUSH1 0x40 ADD PUSH1 0x40 MSTORE DUP1 PUSH1 0xF DUP2 MSTORE PUSH1 0x20 ADD PUSH32 0x6A6F696E65642074686520726F6F6D0000000000000000000000000000000000 DUP2 MSTORE POP SWAP1 POP PUSH2 0x628 JUMP JUMPDEST PUSH1 0x40 MLOAD PUSH32 0x8C379A000000000000000000000000000000000000000000000000000000000 DUP2 MSTORE PUSH1 0x4 ADD PUSH2 0x61F SWAP1 PUSH2 0xFD5 JUMP JUMPDEST PUSH1 0x40 MLOAD DUP1 SWAP2 SUB SWAP1 REVERT JUMPDEST SWAP1 JUMP JUMPDEST PUSH1 0x40 MLOAD DUP1 PUSH1 0x80 ADD PUSH1 0x40 MSTORE DUP1 PUSH1 0x4 SWAP1 PUSH1 0x20 DUP3 MUL DUP1 CALLDATASIZE DUP4 CALLDATACOPY DUP1 DUP3 ADD SWAP2 POP POP SWAP1 POP POP SWAP1 JUMP JUMPDEST POP PUSH0 DUP2 SSTORE PUSH1 0x1 ADD PUSH0 DUP2 SSTORE PUSH1 0x1 ADD PUSH0 DUP2 SSTORE PUSH1 0x1 ADD PUSH0 SWAP1 SSTORE JUMP JUMPDEST PUSH0 PUSH1 0x4 SWAP1 POP SWAP2 SWAP1 POP JUMP JUMPDEST PUSH0 DUP2 SWAP1 POP SWAP3 SWAP2 POP POP JUMP JUMPDEST PUSH0 DUP2 SWAP1 POP SWAP2 SWAP1 POP JUMP JUMPDEST PUSH0 DUP2 SWAP1 POP SWAP2 SWAP1 POP JUMP JUMPDEST PUSH2 0x694 DUP2 PUSH2 0x682 JUMP JUMPDEST DUP3 MSTORE POP POP JUMP JUMPDEST PUSH0 PUSH2 0x6A5 DUP4 DUP4 PUSH2 0x68B JUMP JUMPDEST PUSH1 0x20 DUP4 ADD SWAP1 POP SWAP3 SWAP2 POP POP JUMP JUMPDEST PUSH0 PUSH1 0x20 DUP3 ADD SWAP1 POP SWAP2 SWAP1 POP JUMP JUMPDEST PUSH2 0x6C6 DUP2 PUSH2 0x665 JUMP JUMPDEST PUSH2 0x6D0 DUP2 DUP5 PUSH2 0x66F JUMP JUMPDEST SWAP3 POP PUSH2 0x6DB DUP3 PUSH2 0x679 JUMP JUMPDEST DUP1 PUSH0 JUMPDEST DUP4 DUP2 LT ISZERO PUSH2 0x70B JUMPI DUP2 MLOAD PUSH2 0x6F2 DUP8 DUP3 PUSH2 0x69A JUMP JUMPDEST SWAP7 POP PUSH2 0x6FD DUP4 PUSH2 0x6B1 JUMP JUMPDEST SWAP3 POP POP PUSH1 0x1 DUP2 ADD SWAP1 POP PUSH2 0x6DE JUMP JUMPDEST POP POP POP POP POP POP JUMP JUMPDEST PUSH0 PUSH1 0x80 DUP3 ADD SWAP1 POP PUSH2 0x726 PUSH0 DUP4 ADD DUP5 PUSH2 0x6BD JUMP JUMPDEST SWAP3 SWAP2 POP POP JUMP JUMPDEST PUSH0 DUP2 MLOAD SWAP1 POP SWAP2 SWAP1 POP JUMP JUMPDEST PUSH0 DUP3 DUP3 MSTORE PUSH1 0x20 DUP3 ADD SWAP1 POP SWAP3 SWAP2 POP POP JUMP JUMPDEST PUSH0 DUP2 SWAP1 POP PUSH1 0x20 DUP3 ADD SWAP1 POP SWAP2 SWAP1 POP JUMP JUMPDEST PUSH0 DUP2 MLOAD SWAP1 POP SWAP2 SWAP1 POP JUMP JUMPDEST PUSH0 DUP3 DUP3 MSTORE PUSH1 0x20 DUP3 ADD SWAP1 POP SWAP3 SWAP2 POP POP JUMP JUMPDEST DUP3 DUP2 DUP4 MCOPY PUSH0 DUP4 DUP4 ADD MSTORE POP POP POP JUMP JUMPDEST PUSH0 PUSH1 0x1F NOT PUSH1 0x1F DUP4 ADD AND SWAP1 POP SWAP2 SWAP1 POP JUMP JUMPDEST PUSH0 PUSH2 0x797 DUP3 PUSH2 0x755 JUMP JUMPDEST PUSH2 0x7A1 DUP2 DUP6 PUSH2 0x75F JUMP JUMPDEST SWAP4 POP PUSH2 0x7B1 DUP2 DUP6 PUSH1 0x20 DUP7 ADD PUSH2 0x76F JUMP JUMPDEST PUSH2 0x7BA DUP2 PUSH2 0x77D JUMP JUMPDEST DUP5 ADD SWAP2 POP POP SWAP3 SWAP2 POP POP JUMP JUMPDEST PUSH0 PUSH20 0xFFFFFFFFFFFFFFFFFFFFFFFFFFFFFFFFFFFFFFFF DUP3 AND SWAP1 POP SWAP2 SWAP1 POP JUMP JUMPDEST PUSH0 PUSH2 0x7EE DUP3 PUSH2 0x7C5 JUMP JUMPDEST SWAP1 POP SWAP2 SWAP1 POP JUMP JUMPDEST PUSH2 0x7FE DUP2 PUSH2 0x7E4 JUMP JUMPDEST DUP3 MSTORE POP POP JUMP JUMPDEST PUSH0 PUSH1 0xA0 DUP4 ADD PUSH0 DUP4 ADD MLOAD PUSH2 0x819 PUSH0 DUP7 ADD DUP3 PUSH2 0x68B JUMP JUMPDEST POP PUSH1 0x20 DUP4 ADD MLOAD DUP5 DUP3 SUB PUSH1 0x20 DUP7 ADD MSTORE PUSH2 0x831 DUP3 DUP3 PUSH2 0x78D JUMP JUMPDEST SWAP2 POP POP PUSH1 0x40 DUP4 ADD MLOAD PUSH2 0x846 PUSH1 0x40 DUP7 ADD DUP3 PUSH2 0x7F5 JUMP JUMPDEST POP PUSH1 0x60 DUP4 ADD MLOAD PUSH2 0x859 PUSH1 0x60 DUP7 ADD DUP3 PUSH2 0x68B JUMP JUMPDEST POP PUSH1 0x80 DUP4 ADD MLOAD PUSH2 0x86C PUSH1 0x80 DUP7 ADD DUP3 PUSH2 0x68B JUMP JUMPDEST POP DUP1 SWAP2 POP POP SWAP3 SWAP2 POP POP JUMP JUMPDEST PUSH0 PUSH2 0x882 DUP4 DUP4 PUSH2 0x804 JUMP JUMPDEST SWAP1 POP SWAP3 SWAP2 POP POP JUMP JUMPDEST PUSH0 PUSH1 0x20 DUP3 ADD SWAP1 POP SWAP2 SWAP1 POP JUMP JUMPDEST PUSH0 PUSH2 0x8A0 DUP3 PUSH2 0x72C JUMP JUMPDEST PUSH2 0x8AA DUP2 DUP6 PUSH2 0x736 JUMP JUMPDEST SWAP4 POP DUP4 PUSH1 0x20 DUP3 MUL DUP6 ADD PUSH2 0x8BC DUP6 PUSH2 0x746 JUMP JUMPDEST DUP1 PUSH0 JUMPDEST DUP6 DUP2 LT ISZERO PUSH2 0x8F7 JUMPI DUP5 DUP5 SUB DUP10 MSTORE DUP2 MLOAD PUSH2 0x8D8 DUP6 DUP3 PUSH2 0x877 JUMP JUMPDEST SWAP5 POP PUSH2 0x8E3 DUP4 PUSH2 0x88A JUMP JUMPDEST SWAP3 POP PUSH1 0x20 DUP11 ADD SWAP10 POP POP PUSH1 0x1 DUP2 ADD SWAP1 POP PUSH2 0x8BF JUMP JUMPDEST POP DUP3 SWAP8 POP DUP8 SWAP6 POP POP POP POP POP POP SWAP3 SWAP2 POP POP JUMP JUMPDEST PUSH0 PUSH1 0x20 DUP3 ADD SWAP1 POP DUP2 DUP2 SUB PUSH0 DUP4 ADD MSTORE PUSH2 0x921 DUP2 DUP5 PUSH2 0x896 JUMP JUMPDEST SWAP1 POP SWAP3 SWAP2 POP POP JUMP JUMPDEST PUSH0 PUSH1 0x40 MLOAD SWAP1 POP SWAP1 JUMP JUMPDEST PUSH0 DUP1 REVERT JUMPDEST PUSH0 DUP1 REVERT JUMPDEST PUSH0 DUP1 REVERT JUMPDEST PUSH0 DUP1 REVERT JUMPDEST PUSH32 0x4E487B7100000000000000000000000000000000000000000000000000000000 PUSH0 MSTORE PUSH1 0x41 PUSH1 0x4 MSTORE PUSH1 0x24 PUSH0 REVERT JUMPDEST PUSH2 0x978 DUP3 PUSH2 0x77D JUMP JUMPDEST DUP2 ADD DUP2 DUP2 LT PUSH8 0xFFFFFFFFFFFFFFFF DUP3 GT OR ISZERO PUSH2 0x997 JUMPI PUSH2 0x996 PUSH2 0x942 JUMP JUMPDEST JUMPDEST DUP1 PUSH1 0x40 MSTORE POP POP POP JUMP JUMPDEST PUSH0 PUSH2 0x9A9 PUSH2 0x929 JUMP JUMPDEST SWAP1 POP PUSH2 0x9B5 DUP3 DUP3 PUSH2 0x96F JUMP JUMPDEST SWAP2 SWAP1 POP JUMP JUMPDEST PUSH0 PUSH8 0xFFFFFFFFFFFFFFFF DUP3 GT ISZERO PUSH2 0x9D4 JUMPI PUSH2 0x9D3 PUSH2 0x942 JUMP JUMPDEST JUMPDEST PUSH2 0x9DD DUP3 PUSH2 0x77D JUMP JUMPDEST SWAP1 POP PUSH1 0x20 DUP2 ADD SWAP1 POP SWAP2 SWAP1 POP JUMP JUMPDEST DUP3 DUP2 DUP4 CALLDATACOPY PUSH0 DUP4 DUP4 ADD MSTORE POP POP POP JUMP JUMPDEST PUSH0 PUSH2 0xA0A PUSH2 0xA05 DUP5 PUSH2 0x9BA JUMP JUMPDEST PUSH2 0x9A0 JUMP JUMPDEST SWAP1 POP DUP3 DUP2 MSTORE PUSH1 0x20 DUP2 ADD DUP5 DUP5 DUP5 ADD GT ISZERO PUSH2 0xA26 JUMPI PUSH2 0xA25 PUSH2 0x93E JUMP JUMPDEST JUMPDEST PUSH2 0xA31 DUP5 DUP3 DUP6 PUSH2 0x9EA JUMP JUMPDEST POP SWAP4 SWAP3 POP POP POP JUMP JUMPDEST PUSH0 DUP3 PUSH1 0x1F DUP4 ADD SLT PUSH2 0xA4D JUMPI PUSH2 0xA4C PUSH2 0x93A JUMP JUMPDEST JUMPDEST DUP2 CALLDATALOAD PUSH2 0xA5D DUP5 DUP3 PUSH1 0x20 DUP7 ADD PUSH2 0x9F8 JUMP JUMPDEST SWAP2 POP POP SWAP3 SWAP2 POP POP JUMP JUMPDEST PUSH0 PUSH1 0x20 DUP3 DUP5 SUB SLT ISZERO PUSH2 0xA7B JUMPI PUSH2 0xA7A PUSH2 0x932 JUMP JUMPDEST JUMPDEST PUSH0 DUP3 ADD CALLDATALOAD PUSH8 0xFFFFFFFFFFFFFFFF DUP2 GT ISZERO PUSH2 0xA98 JUMPI PUSH2 0xA97 PUSH2 0x936 JUMP JUMPDEST JUMPDEST PUSH2 0xAA4 DUP5 DUP3 DUP6 ADD PUSH2 0xA39 JUMP JUMPDEST SWAP2 POP POP SWAP3 SWAP2 POP POP JUMP JUMPDEST PUSH0 DUP3 DUP3 MSTORE PUSH1 0x20 DUP3 ADD SWAP1 POP SWAP3 SWAP2 POP POP JUMP JUMPDEST PUSH0 PUSH2 0xAC7 DUP3 PUSH2 0x755 JUMP JUMPDEST PUSH2 0xAD1 DUP2 DUP6 PUSH2 0xAAD JUMP JUMPDEST SWAP4 POP PUSH2 0xAE1 DUP2 DUP6 PUSH1 0x20 DUP7 ADD PUSH2 0x76F JUMP JUMPDEST PUSH2 0xAEA DUP2 PUSH2 0x77D JUMP JUMPDEST DUP5 ADD SWAP2 POP POP SWAP3 SWAP2 POP POP JUMP JUMPDEST PUSH0 PUSH1 0x20 DUP3 ADD SWAP1 POP DUP2 DUP2 SUB PUSH0 DUP4 ADD MSTORE PUSH2 0xB0D DUP2 DUP5 PUSH2 0xABD JUMP JUMPDEST SWAP1 POP SWAP3 SWAP2 POP POP JUMP JUMPDEST PUSH32 0x4E487B7100000000000000000000000000000000000000000000000000000000 PUSH0 MSTORE PUSH1 0x22 PUSH1 0x4 MSTORE PUSH1 0x24 PUSH0 REVERT JUMPDEST PUSH0 PUSH1 0x2 DUP3 DIV SWAP1 POP PUSH1 0x1 DUP3 AND DUP1 PUSH2 0xB59 JUMPI PUSH1 0x7F DUP3 AND SWAP2 POP JUMPDEST PUSH1 0x20 DUP3 LT DUP2 SUB PUSH2 0xB6C JUMPI PUSH2 0xB6B PUSH2 0xB15 JUMP JUMPDEST JUMPDEST POP SWAP2 SWAP1 POP JUMP JUMPDEST PUSH0 DUP2 SWAP1 POP DUP2 PUSH0 MSTORE PUSH1 0x20 PUSH0 KECCAK256 SWAP1 POP SWAP2 SWAP1 POP JUMP JUMPDEST PUSH0 PUSH1 0x20 PUSH1 0x1F DUP4 ADD DIV SWAP1 POP SWAP2 SWAP1 POP JUMP JUMPDEST PUSH0 DUP3 DUP3 SHL SWAP1 POP SWAP3 SWAP2 POP POP JUMP JUMPDEST PUSH0 PUSH1 0x8 DUP4 MUL PUSH2 0xBCE PUSH32 0xFFFFFFFFFFFFFFFFFFFFFFFFFFFFFFFFFFFFFFFFFFFFFFFFFFFFFFFFFFFFFFFF DUP3 PUSH2 0xB93 JUMP JUMPDEST PUSH2 0xBD8 DUP7 DUP4 PUSH2 0xB93 JUMP JUMPDEST SWAP6 POP DUP1 NOT DUP5 AND SWAP4 POP DUP1 DUP7 AND DUP5 OR SWAP3 POP POP POP SWAP4 SWAP3 POP POP POP JUMP JUMPDEST PUSH0 DUP2 SWAP1 POP SWAP2 SWAP1 POP JUMP JUMPDEST PUSH0 PUSH2 0xC13 PUSH2 0xC0E PUSH2 0xC09 DUP5 PUSH2 0x682 JUMP JUMPDEST PUSH2 0xBF0 JUMP JUMPDEST PUSH2 0x682 JUMP JUMPDEST SWAP1 POP SWAP2 SWAP1 POP JUMP JUMPDEST PUSH0 DUP2 SWAP1 POP SWAP2 SWAP1 POP JUMP JUMPDEST PUSH2 0xC2C DUP4 PUSH2 0xBF9 JUMP JUMPDEST PUSH2 0xC40 PUSH2 0xC38 DUP3 PUSH2 0xC1A JUMP JUMPDEST DUP5 DUP5 SLOAD PUSH2 0xB9F JUMP JUMPDEST DUP3 SSTORE POP POP POP POP JUMP JUMPDEST PUSH0 SWAP1 JUMP JUMPDEST PUSH2 0xC54 PUSH2 0xC48 JUMP JUMPDEST PUSH2 0xC5F DUP2 DUP5 DUP5 PUSH2 0xC23 JUMP JUMPDEST POP POP POP JUMP JUMPDEST JUMPDEST DUP2 DUP2 LT ISZERO PUSH2 0xC82 JUMPI PUSH2 0xC77 PUSH0 DUP3 PUSH2 0xC4C JUMP JUMPDEST PUSH1 0x1 DUP2 ADD SWAP1 POP PUSH2 0xC65 JUMP JUMPDEST POP POP JUMP JUMPDEST PUSH1 0x1F DUP3 GT ISZERO PUSH2 0xCC7 JUMPI PUSH2 0xC98 DUP2 PUSH2 0xB72 JUMP JUMPDEST PUSH2 0xCA1 DUP5 PUSH2 0xB84 JUMP JUMPDEST DUP2 ADD PUSH1 0x20 DUP6 LT ISZERO PUSH2 0xCB0 JUMPI DUP2 SWAP1 POP JUMPDEST PUSH2 0xCC4 PUSH2 0xCBC DUP6 PUSH2 0xB84 JUMP JUMPDEST DUP4 ADD DUP3 PUSH2 0xC64 JUMP JUMPDEST POP POP JUMPDEST POP POP POP JUMP JUMPDEST PUSH0 DUP3 DUP3 SHR SWAP1 POP SWAP3 SWAP2 POP POP JUMP JUMPDEST PUSH0 PUSH2 0xCE7 PUSH0 NOT DUP5 PUSH1 0x8 MUL PUSH2 0xCCC JUMP JUMPDEST NOT DUP1 DUP4 AND SWAP2 POP POP SWAP3 SWAP2 POP POP JUMP JUMPDEST PUSH0 PUSH2 0xCFF DUP4 DUP4 PUSH2 0xCD8 JUMP JUMPDEST SWAP2 POP DUP3 PUSH1 0x2 MUL DUP3 OR SWAP1 POP SWAP3 SWAP2 POP POP JUMP JUMPDEST PUSH2 0xD18 DUP3 PUSH2 0x755 JUMP JUMPDEST PUSH8 0xFFFFFFFFFFFFFFFF DUP2 GT ISZERO PUSH2 0xD31 JUMPI PUSH2 0xD30 PUSH2 0x942 JUMP JUMPDEST JUMPDEST PUSH2 0xD3B DUP3 SLOAD PUSH2 0xB42 JUMP JUMPDEST PUSH2 0xD46 DUP3 DUP3 DUP6 PUSH2 0xC86 JUMP JUMPDEST PUSH0 PUSH1 0x20 SWAP1 POP PUSH1 0x1F DUP4 GT PUSH1 0x1 DUP2 EQ PUSH2 0xD77 JUMPI PUSH0 DUP5 ISZERO PUSH2 0xD65 JUMPI DUP3 DUP8 ADD MLOAD SWAP1 POP JUMPDEST PUSH2 0xD6F DUP6 DUP3 PUSH2 0xCF4 JUMP JUMPDEST DUP7 SSTORE POP PUSH2 0xDD6 JUMP JUMPDEST PUSH1 0x1F NOT DUP5 AND PUSH2 0xD85 DUP7 PUSH2 0xB72 JUMP JUMPDEST PUSH0 JUMPDEST DUP3 DUP2 LT ISZERO PUSH2 0xDAC JUMPI DUP5 DUP10 ADD MLOAD DUP3 SSTORE PUSH1 0x1 DUP3 ADD SWAP2 POP PUSH1 0x20 DUP6 ADD SWAP5 POP PUSH1 0x20 DUP2 ADD SWAP1 POP PUSH2 0xD87 JUMP JUMPDEST DUP7 DUP4 LT ISZERO PUSH2 0xDC9 JUMPI DUP5 DUP10 ADD MLOAD PUSH2 0xDC5 PUSH1 0x1F DUP10 AND DUP3 PUSH2 0xCD8 JUMP JUMPDEST DUP4 SSTORE POP JUMPDEST PUSH1 0x1 PUSH1 0x2 DUP9 MUL ADD DUP9 SSTORE POP POP POP JUMPDEST POP POP POP POP POP POP JUMP JUMPDEST PUSH0 DUP2 SLOAD SWAP1 POP PUSH2 0xDEC DUP2 PUSH2 0xB42 JUMP JUMPDEST SWAP1 POP SWAP2 SWAP1 POP JUMP JUMPDEST DUP2 DUP2 SUB PUSH2 0xE01 JUMPI POP POP PUSH2 0xED6 JUMP JUMPDEST PUSH2 0xE0A DUP3 PUSH2 0xDDE JUMP JUMPDEST PUSH8 0xFFFFFFFFFFFFFFFF DUP2 GT ISZERO PUSH2 0xE23 JUMPI PUSH2 0xE22 PUSH2 0x942 JUMP JUMPDEST JUMPDEST PUSH2 0xE2D DUP3 SLOAD PUSH2 0xB42 JUMP JUMPDEST PUSH2 0xE38 DUP3 DUP3 DUP6 PUSH2 0xC86 JUMP JUMPDEST PUSH0 PUSH1 0x1F DUP4 GT PUSH1 0x1 DUP2 EQ PUSH2 0xE65 JUMPI PUSH0 DUP5 ISZERO PUSH2 0xE53 JUMPI DUP3 DUP8 ADD SLOAD SWAP1 POP JUMPDEST PUSH2 0xE5D DUP6 DUP3 PUSH2 0xCF4 JUMP JUMPDEST DUP7 SSTORE POP PUSH2 0xECF JUMP JUMPDEST PUSH1 0x1F NOT DUP5 AND PUSH2 0xE73 DUP8 PUSH2 0xB72 JUMP JUMPDEST SWAP7 POP PUSH2 0xE7E DUP7 PUSH2 0xB72 JUMP JUMPDEST PUSH0 JUMPDEST DUP3 DUP2 LT ISZERO PUSH2 0xEA5 JUMPI DUP5 DUP10 ADD SLOAD DUP3 SSTORE PUSH1 0x1 DUP3 ADD SWAP2 POP PUSH1 0x1 DUP6 ADD SWAP5 POP PUSH1 0x20 DUP2 ADD SWAP1 POP PUSH2 0xE80 JUMP JUMPDEST DUP7 DUP4 LT ISZERO PUSH2 0xEC2 JUMPI DUP5 DUP10 ADD SLOAD PUSH2 0xEBE PUSH1 0x1F DUP10 AND DUP3 PUSH2 0xCD8 JUMP JUMPDEST DUP4 SSTORE POP JUMPDEST PUSH1 0x1 PUSH1 0x2 DUP9 MUL ADD DUP9 SSTORE POP POP POP JUMPDEST POP POP POP POP POP POP JUMPDEST JUMP JUMPDEST PUSH32 0x4E487B7100000000000000000000000000000000000000000000000000000000 PUSH0 MSTORE PUSH1 0x11 PUSH1 0x4 MSTORE PUSH1 0x24 PUSH0 REVERT JUMPDEST PUSH0 PUSH2 0xF0F DUP3 PUSH2 0x682 JUMP JUMPDEST SWAP2 POP PUSH2 0xF1A DUP4 PUSH2 0x682 JUMP JUMPDEST SWAP3 POP DUP3 DUP3 SUB SWAP1 POP DUP2 DUP2 GT ISZERO PUSH2 0xF32 JUMPI PUSH2 0xF31 PUSH2 0xED8 JUMP JUMPDEST JUMPDEST SWAP3 SWAP2 POP POP JUMP JUMPDEST PUSH32 0x4E487B7100000000000000000000000000000000000000000000000000000000 PUSH0 MSTORE PUSH1 0x32 PUSH1 0x4 MSTORE PUSH1 0x24 PUSH0 REVERT JUMPDEST PUSH32 0x6E65656420746F2070617920302E30312065746820746F206A6F696E20746865 PUSH0 DUP3 ADD MSTORE PUSH32 0x20726F6F6D202831302046696E6E657929000000000000000000000000000000 PUSH1 0x20 DUP3 ADD MSTORE POP JUMP JUMPDEST PUSH0 PUSH2 0xFBF PUSH1 0x31 DUP4 PUSH2 0xAAD JUMP JUMPDEST SWAP2 POP PUSH2 0xFCA DUP3 PUSH2 0xF65 JUMP JUMPDEST PUSH1 0x40 DUP3 ADD SWAP1 POP SWAP2 SWAP1 POP JUMP JUMPDEST PUSH0 PUSH1 0x20 DUP3 ADD SWAP1 POP DUP2 DUP2 SUB PUSH0 DUP4 ADD MSTORE PUSH2 0xFEC DUP2 PUSH2 0xFB3 JUMP JUMPDEST SWAP1 POP SWAP2 SWAP1 POP JUMP INVALID LOG2 PUSH5 0x6970667358 0x22 SLT KECCAK256 0xEC DUP5 PUSH14 0xECE8E2971E76664E81CC1D6C0F64 0xDD 0xEB BLOBBASEFEE 0xBA LOG4 RETURNDATACOPY 0xE9 0xB7 0xE9 JUMP MSTORE 0xF8 PUSH21 0x3B1A64736F6C634300081900330000000000000000 "
				},
				"gasEstimates": {
					"creation": {
						"codeDepositCost": "827400",
						"executionCost": "862",
						"totalCost": "828262"
					},
					"external": {
						"deposit()": "infinite",
						"get()": "infinite",
						"getUser()": "infinite",
						"setUser(string)": "infinite"
					}
				},
				"methodIdentifiers": {
					"deposit()": "d0e30db0",
					"get()": "6d4ce63c",
					"getUser()": "832880e7",
					"setUser(string)": "d0020fad"
				}
			},
			"storageLayout": {
				"storage": [
					{
						"astId": 16,
						"contract": "solidity_test/test4.sol:A",
						"label": "room",
						"offset": 0,
						"slot": "0",
						"type": "t_array(t_uint256)4_storage"
					},
					{
						"astId": 20,
						"contract": "solidity_test/test4.sol:A",
						"label": "users",
						"offset": 0,
						"slot": "4",
						"type": "t_array(t_struct(User)12_storage)dyn_storage"
					},
					{
						"astId": 23,
						"contract": "solidity_test/test4.sol:A",
						"label": "user",
						"offset": 0,
						"slot": "5",
						"type": "t_struct(User)12_storage"
					},
					{
						"astId": 27,
						"contract": "solidity_test/test4.sol:A",
						"label": "userNumber",
						"offset": 0,
						"slot": "10",
						"type": "t_mapping(t_address,t_uint256)"
					}
				],
				"types": {
					"t_address": {
						"encoding": "inplace",
						"label": "address",
						"numberOfBytes": "20"
					},
					"t_array(t_struct(User)12_storage)dyn_storage": {
						"base": "t_struct(User)12_storage",
						"encoding": "dynamic_array",
						"label": "struct A.User[]",
						"numberOfBytes": "32"
					},
					"t_array(t_uint256)4_storage": {
						"base": "t_uint256",
						"encoding": "inplace",
						"label": "uint256[4]",
						"numberOfBytes": "128"
					},
					"t_mapping(t_address,t_uint256)": {
						"encoding": "mapping",
						"key": "t_address",
						"label": "mapping(address => uint256)",
						"numberOfBytes": "32",
						"value": "t_uint256"
					},
					"t_string_storage": {
						"encoding": "bytes",
						"label": "string",
						"numberOfBytes": "32"
					},
					"t_struct(User)12_storage": {
						"encoding": "inplace",
						"label": "struct A.User",
						"members": [
							{
								"astId": 3,
								"contract": "solidity_test/test4.sol:A",
								"label": "number",
								"offset": 0,
								"slot": "0",
								"type": "t_uint256"
							},
							{
								"astId": 5,
								"contract": "solidity_test/test4.sol:A",
								"label": "name",
								"offset": 0,
								"slot": "1",
								"type": "t_string_storage"
							},
							{
								"astId": 7,
								"contract": "solidity_test/test4.sol:A",
								"label": "wallet",
								"offset": 0,
								"slot": "2",
								"type": "t_address"
							},
							{
								"astId": 9,
								"contract": "solidity_test/test4.sol:A",
								"label": "balance",
								"offset": 0,
								"slot": "3",
								"type": "t_uint256"
							},
							{
								"astId": 11,
								"contract": "solidity_test/test4.sol:A",
								"label": "score",
								"offset": 0,
								"slot": "4",
								"type": "t_uint256"
							}
						],
						"numberOfBytes": "160"
					},
					"t_uint256": {
						"encoding": "inplace",
						"label": "uint256",
						"numberOfBytes": "32"
					}
				}
			},
			"userdoc": {
				"kind": "user",
				"methods": {},
				"version": 1
			}
		}
	}
}