{
	"solidity_test/test8.sol": {
		"a": {
			"abi": [
				{
					"inputs": [
						{
							"internalType": "uint256",
							"name": "_topicNum",
							"type": "uint256"
						}
					],
					"name": "getTopic",
					"outputs": [
						{
							"components": [
								{
									"internalType": "uint256",
									"name": "number",
									"type": "uint256"
								},
								{
									"internalType": "string",
									"name": "subject",
									"type": "string"
								},
								{
									"internalType": "string",
									"name": "content",
									"type": "string"
								},
								{
									"internalType": "address",
									"name": "proposer",
									"type": "address"
								},
								{
									"internalType": "uint256",
									"name": "upvote",
									"type": "uint256"
								},
								{
									"internalType": "uint256",
									"name": "downvote",
									"type": "uint256"
								}
							],
							"internalType": "struct a.topic",
							"name": "",
							"type": "tuple"
						}
					],
					"stateMutability": "view",
					"type": "function"
				},
				{
					"inputs": [],
					"name": "getTopics",
					"outputs": [
						{
							"components": [
								{
									"internalType": "uint256",
									"name": "number",
									"type": "uint256"
								},
								{
									"internalType": "string",
									"name": "subject",
									"type": "string"
								},
								{
									"internalType": "string",
									"name": "content",
									"type": "string"
								},
								{
									"internalType": "address",
									"name": "proposer",
									"type": "address"
								},
								{
									"internalType": "uint256",
									"name": "upvote",
									"type": "uint256"
								},
								{
									"internalType": "uint256",
									"name": "downvote",
									"type": "uint256"
								}
							],
							"internalType": "struct a.topic[]",
							"name": "",
							"type": "tuple[]"
						}
					],
					"stateMutability": "view",
					"type": "function"
				},
				{
					"inputs": [
						{
							"internalType": "string",
							"name": "_name",
							"type": "string"
						}
					],
					"name": "getUser",
					"outputs": [
						{
							"components": [
								{
									"internalType": "string",
									"name": "name",
									"type": "string"
								},
								{
									"internalType": "address",
									"name": "wallet",
									"type": "address"
								}
							],
							"internalType": "struct a.user",
							"name": "",
							"type": "tuple"
						}
					],
					"stateMutability": "view",
					"type": "function"
				},
				{
					"inputs": [
						{
							"internalType": "string",
							"name": "_subject",
							"type": "string"
						},
						{
							"internalType": "string",
							"name": "_content",
							"type": "string"
						}
					],
					"name": "setTopic",
					"outputs": [],
					"stateMutability": "nonpayable",
					"type": "function"
				},
				{
					"inputs": [
						{
							"internalType": "string",
							"name": "_name",
							"type": "string"
						}
					],
					"name": "setUser",
					"outputs": [],
					"stateMutability": "nonpayable",
					"type": "function"
				},
				{
					"inputs": [
						{
							"internalType": "uint256",
							"name": "_topicNum",
							"type": "uint256"
						},
						{
							"internalType": "string",
							"name": "_subject",
							"type": "string"
						},
						{
							"internalType": "bool",
							"name": "_vote",
							"type": "bool"
						}
					],
					"name": "voting",
					"outputs": [],
					"stateMutability": "nonpayable",
					"type": "function"
				}
			],
			"devdoc": {
				"kind": "dev",
				"methods": {},
				"version": 1
			},
			"evm": {
				"assembly": "    /* \"solidity_test/test8.sol\":67:4499  contract a {... */\n  mstore(0x40, 0x80)\n    /* \"solidity_test/test8.sol\":2438:2439  1 */\n  0x01\n    /* \"solidity_test/test8.sol\":2424:2439  uint topicNum=1 */\n  0x03\n  sstore\n    /* \"solidity_test/test8.sol\":67:4499  contract a {... */\n  callvalue\n  dup1\n  iszero\n  tag_1\n  jumpi\n  0x00\n  dup1\n  revert\ntag_1:\n  pop\n  dataSize(sub_0)\n  dup1\n  dataOffset(sub_0)\n  0x00\n  codecopy\n  0x00\n  return\nstop\n\nsub_0: assembly {\n        /* \"solidity_test/test8.sol\":67:4499  contract a {... */\n      mstore(0x40, 0x80)\n      callvalue\n      dup1\n      iszero\n      tag_1\n      jumpi\n      0x00\n      dup1\n      revert\n    tag_1:\n      pop\n      jumpi(tag_2, lt(calldatasize, 0x04))\n      shr(0xe0, calldataload(0x00))\n      dup1\n      0x2f0cc93f\n      eq\n      tag_3\n      jumpi\n      dup1\n      0x31feb671\n      eq\n      tag_4\n      jumpi\n      dup1\n      0x4ac3e917\n      eq\n      tag_5\n      jumpi\n      dup1\n      0x71658896\n      eq\n      tag_6\n      jumpi\n      dup1\n      0xd0020fad\n      eq\n      tag_7\n      jumpi\n      dup1\n      0xfee01177\n      eq\n      tag_8\n      jumpi\n    tag_2:\n      0x00\n      dup1\n      revert\n        /* \"solidity_test/test8.sol\":3918:4317  function voting(uint _topicNum, string memory _subject, bool _vote) public {... */\n    tag_3:\n      tag_9\n      0x04\n      dup1\n      calldatasize\n      sub\n      dup2\n      add\n      swap1\n      tag_10\n      swap2\n      swap1\n      tag_11\n      jump\t// in\n    tag_10:\n      tag_12\n      jump\t// in\n    tag_9:\n      stop\n        /* \"solidity_test/test8.sol\":2626:2735  function getUser(string memory _name) public view returns(user memory) {... */\n    tag_4:\n      tag_13\n      0x04\n      dup1\n      calldatasize\n      sub\n      dup2\n      add\n      swap1\n      tag_14\n      swap2\n      swap1\n      tag_15\n      jump\t// in\n    tag_14:\n      tag_16\n      jump\t// in\n    tag_13:\n      mload(0x40)\n      tag_17\n      swap2\n      swap1\n      tag_18\n      jump\t// in\n    tag_17:\n      mload(0x40)\n      dup1\n      swap2\n      sub\n      swap1\n      return\n        /* \"solidity_test/test8.sol\":2829:3012  function setTopic(string memory _subject, string memory _content) public {... */\n    tag_5:\n      tag_19\n      0x04\n      dup1\n      calldatasize\n      sub\n      dup2\n      add\n      swap1\n      tag_20\n      swap2\n      swap1\n      tag_21\n      jump\t// in\n    tag_20:\n      tag_22\n      jump\t// in\n    tag_19:\n      stop\n        /* \"solidity_test/test8.sol\":3225:3336  function getTopic(uint _topicNum) public view returns(topic memory) {... */\n    tag_6:\n      tag_23\n      0x04\n      dup1\n      calldatasize\n      sub\n      dup2\n      add\n      swap1\n      tag_24\n      swap2\n      swap1\n      tag_25\n      jump\t// in\n    tag_24:\n      tag_26\n      jump\t// in\n    tag_23:\n      mload(0x40)\n      tag_27\n      swap2\n      swap1\n      tag_28\n      jump\t// in\n    tag_27:\n      mload(0x40)\n      dup1\n      swap2\n      sub\n      swap1\n      return\n        /* \"solidity_test/test8.sol\":2516:2618  function setUser(string memory _name) public {... */\n    tag_7:\n      tag_29\n      0x04\n      dup1\n      calldatasize\n      sub\n      dup2\n      add\n      swap1\n      tag_30\n      swap2\n      swap1\n      tag_15\n      jump\t// in\n    tag_30:\n      tag_31\n      jump\t// in\n    tag_29:\n      stop\n        /* \"solidity_test/test8.sol\":3491:3741  function getTopics() public view returns(topic[] memory) {... */\n    tag_8:\n      tag_32\n      tag_33\n      jump\t// in\n    tag_32:\n      mload(0x40)\n      tag_34\n      swap2\n      swap1\n      tag_35\n      jump\t// in\n    tag_34:\n      mload(0x40)\n      dup1\n      swap2\n      sub\n      swap1\n      return\n        /* \"solidity_test/test8.sol\":3918:4317  function voting(uint _topicNum, string memory _subject, bool _vote) public {... */\n    tag_12:\n        /* \"solidity_test/test8.sol\":4042:4047  false */\n      0x00\n        /* \"solidity_test/test8.sol\":4012:4047  vote[msg.sender][_subject] == false */\n      iszero\n      iszero\n        /* \"solidity_test/test8.sol\":4012:4016  vote */\n      0x01\n        /* \"solidity_test/test8.sol\":4012:4028  vote[msg.sender] */\n      0x00\n        /* \"solidity_test/test8.sol\":4017:4027  msg.sender */\n      caller\n        /* \"solidity_test/test8.sol\":4012:4028  vote[msg.sender] */\n      0xffffffffffffffffffffffffffffffffffffffff\n      and\n      0xffffffffffffffffffffffffffffffffffffffff\n      and\n      dup2\n      mstore\n      0x20\n      add\n      swap1\n      dup2\n      mstore\n      0x20\n      add\n      0x00\n      keccak256\n        /* \"solidity_test/test8.sol\":4029:4037  _subject */\n      dup4\n        /* \"solidity_test/test8.sol\":4012:4038  vote[msg.sender][_subject] */\n      mload(0x40)\n      tag_37\n      swap2\n      swap1\n      tag_38\n      jump\t// in\n    tag_37:\n      swap1\n      dup2\n      mstore\n      0x20\n      add\n      mload(0x40)\n      dup1\n      swap2\n      sub\n      swap1\n      keccak256\n      0x00\n      swap1\n      sload\n      swap1\n      0x0100\n      exp\n      swap1\n      div\n      0xff\n      and\n        /* \"solidity_test/test8.sol\":4012:4047  vote[msg.sender][_subject] == false */\n      iszero\n      iszero\n      eq\n        /* \"solidity_test/test8.sol\":4004:4065  require(vote[msg.sender][_subject] == false, \"already voted\") */\n      tag_39\n      jumpi\n      mload(0x40)\n      0x08c379a000000000000000000000000000000000000000000000000000000000\n      dup2\n      mstore\n      0x04\n      add\n      tag_40\n      swap1\n      tag_41\n      jump\t// in\n    tag_40:\n      mload(0x40)\n      dup1\n      swap2\n      sub\n      swap1\n      revert\n    tag_39:\n        /* \"solidity_test/test8.sol\":4088:4092  true */\n      0x01\n        /* \"solidity_test/test8.sol\":4079:4092  _vote == true */\n      iszero\n      iszero\n        /* \"solidity_test/test8.sol\":4079:4084  _vote */\n      dup2\n        /* \"solidity_test/test8.sol\":4079:4092  _vote == true */\n      iszero\n      iszero\n      sub\n        /* \"solidity_test/test8.sol\":4076:4310  if(_vote == true) {... */\n      tag_42\n      jumpi\n        /* \"solidity_test/test8.sol\":4137:4138  1 */\n      0x01\n        /* \"solidity_test/test8.sol\":4109:4115  topics */\n      0x00\n        /* \"solidity_test/test8.sol\":4109:4126  topics[_topicNum] */\n      dup1\n        /* \"solidity_test/test8.sol\":4116:4125  _topicNum */\n      dup6\n        /* \"solidity_test/test8.sol\":4109:4126  topics[_topicNum] */\n      dup2\n      mstore\n      0x20\n      add\n      swap1\n      dup2\n      mstore\n      0x20\n      add\n      0x00\n      keccak256\n        /* \"solidity_test/test8.sol\":4109:4133  topics[_topicNum].upvote */\n      0x04\n      add\n      0x00\n        /* \"solidity_test/test8.sol\":4109:4138  topics[_topicNum].upvote += 1 */\n      dup3\n      dup3\n      sload\n      tag_43\n      swap2\n      swap1\n      tag_44\n      jump\t// in\n    tag_43:\n      swap3\n      pop\n      pop\n      dup2\n      swap1\n      sstore\n      pop\n        /* \"solidity_test/test8.sol\":4182:4186  true */\n      0x01\n        /* \"solidity_test/test8.sol\":4153:4157  vote */\n      dup1\n        /* \"solidity_test/test8.sol\":4153:4169  vote[msg.sender] */\n      0x00\n        /* \"solidity_test/test8.sol\":4158:4168  msg.sender */\n      caller\n        /* \"solidity_test/test8.sol\":4153:4169  vote[msg.sender] */\n      0xffffffffffffffffffffffffffffffffffffffff\n      and\n      0xffffffffffffffffffffffffffffffffffffffff\n      and\n      dup2\n      mstore\n      0x20\n      add\n      swap1\n      dup2\n      mstore\n      0x20\n      add\n      0x00\n      keccak256\n        /* \"solidity_test/test8.sol\":4170:4178  _subject */\n      dup4\n        /* \"solidity_test/test8.sol\":4153:4179  vote[msg.sender][_subject] */\n      mload(0x40)\n      tag_45\n      swap2\n      swap1\n      tag_38\n      jump\t// in\n    tag_45:\n      swap1\n      dup2\n      mstore\n      0x20\n      add\n      mload(0x40)\n      dup1\n      swap2\n      sub\n      swap1\n      keccak256\n      0x00\n        /* \"solidity_test/test8.sol\":4153:4186  vote[msg.sender][_subject] = true */\n      0x0100\n      exp\n      dup2\n      sload\n      dup2\n      0xff\n      mul\n      not\n      and\n      swap1\n      dup4\n      iszero\n      iszero\n      mul\n      or\n      swap1\n      sstore\n      pop\n        /* \"solidity_test/test8.sol\":4076:4310  if(_vote == true) {... */\n      jump(tag_46)\n    tag_42:\n        /* \"solidity_test/test8.sol\":4249:4250  1 */\n      0x01\n        /* \"solidity_test/test8.sol\":4219:4225  topics */\n      0x00\n        /* \"solidity_test/test8.sol\":4219:4236  topics[_topicNum] */\n      dup1\n        /* \"solidity_test/test8.sol\":4226:4235  _topicNum */\n      dup6\n        /* \"solidity_test/test8.sol\":4219:4236  topics[_topicNum] */\n      dup2\n      mstore\n      0x20\n      add\n      swap1\n      dup2\n      mstore\n      0x20\n      add\n      0x00\n      keccak256\n        /* \"solidity_test/test8.sol\":4219:4245  topics[_topicNum].downvote */\n      0x05\n      add\n      0x00\n        /* \"solidity_test/test8.sol\":4219:4250  topics[_topicNum].downvote += 1 */\n      dup3\n      dup3\n      sload\n      tag_47\n      swap2\n      swap1\n      tag_44\n      jump\t// in\n    tag_47:\n      swap3\n      pop\n      pop\n      dup2\n      swap1\n      sstore\n      pop\n        /* \"solidity_test/test8.sol\":4294:4298  true */\n      0x01\n        /* \"solidity_test/test8.sol\":4265:4269  vote */\n      dup1\n        /* \"solidity_test/test8.sol\":4265:4281  vote[msg.sender] */\n      0x00\n        /* \"solidity_test/test8.sol\":4270:4280  msg.sender */\n      caller\n        /* \"solidity_test/test8.sol\":4265:4281  vote[msg.sender] */\n      0xffffffffffffffffffffffffffffffffffffffff\n      and\n      0xffffffffffffffffffffffffffffffffffffffff\n      and\n      dup2\n      mstore\n      0x20\n      add\n      swap1\n      dup2\n      mstore\n      0x20\n      add\n      0x00\n      keccak256\n        /* \"solidity_test/test8.sol\":4282:4290  _subject */\n      dup4\n        /* \"solidity_test/test8.sol\":4265:4291  vote[msg.sender][_subject] */\n      mload(0x40)\n      tag_48\n      swap2\n      swap1\n      tag_38\n      jump\t// in\n    tag_48:\n      swap1\n      dup2\n      mstore\n      0x20\n      add\n      mload(0x40)\n      dup1\n      swap2\n      sub\n      swap1\n      keccak256\n      0x00\n        /* \"solidity_test/test8.sol\":4265:4298  vote[msg.sender][_subject] = true */\n      0x0100\n      exp\n      dup2\n      sload\n      dup2\n      0xff\n      mul\n      not\n      and\n      swap1\n      dup4\n      iszero\n      iszero\n      mul\n      or\n      swap1\n      sstore\n      pop\n        /* \"solidity_test/test8.sol\":4076:4310  if(_vote == true) {... */\n    tag_46:\n        /* \"solidity_test/test8.sol\":3918:4317  function voting(uint _topicNum, string memory _subject, bool _vote) public {... */\n      pop\n      pop\n      pop\n      jump\t// out\n        /* \"solidity_test/test8.sol\":2626:2735  function getUser(string memory _name) public view returns(user memory) {... */\n    tag_16:\n        /* \"solidity_test/test8.sol\":2684:2695  user memory */\n      tag_49\n      tag_50\n      jump\t// in\n    tag_49:\n        /* \"solidity_test/test8.sol\":2715:2720  users */\n      0x02\n        /* \"solidity_test/test8.sol\":2721:2726  _name */\n      dup3\n        /* \"solidity_test/test8.sol\":2715:2727  users[_name] */\n      mload(0x40)\n      tag_52\n      swap2\n      swap1\n      tag_38\n      jump\t// in\n    tag_52:\n      swap1\n      dup2\n      mstore\n      0x20\n      add\n      mload(0x40)\n      dup1\n      swap2\n      sub\n      swap1\n      keccak256\n        /* \"solidity_test/test8.sol\":2708:2727  return users[_name] */\n      mload(0x40)\n      dup1\n      0x40\n      add\n      0x40\n      mstore\n      swap1\n      dup2\n      0x00\n      dup3\n      add\n      dup1\n      sload\n      tag_53\n      swap1\n      tag_54\n      jump\t// in\n    tag_53:\n      dup1\n      0x1f\n      add\n      0x20\n      dup1\n      swap2\n      div\n      mul\n      0x20\n      add\n      mload(0x40)\n      swap1\n      dup2\n      add\n      0x40\n      mstore\n      dup1\n      swap3\n      swap2\n      swap1\n      dup2\n      dup2\n      mstore\n      0x20\n      add\n      dup3\n      dup1\n      sload\n      tag_55\n      swap1\n      tag_54\n      jump\t// in\n    tag_55:\n      dup1\n      iszero\n      tag_56\n      jumpi\n      dup1\n      0x1f\n      lt\n      tag_57\n      jumpi\n      0x0100\n      dup1\n      dup4\n      sload\n      div\n      mul\n      dup4\n      mstore\n      swap2\n      0x20\n      add\n      swap2\n      jump(tag_56)\n    tag_57:\n      dup3\n      add\n      swap2\n      swap1\n      0x00\n      mstore\n      keccak256(0x00, 0x20)\n      swap1\n    tag_58:\n      dup2\n      sload\n      dup2\n      mstore\n      swap1\n      0x01\n      add\n      swap1\n      0x20\n      add\n      dup1\n      dup4\n      gt\n      tag_58\n      jumpi\n      dup3\n      swap1\n      sub\n      0x1f\n      and\n      dup3\n      add\n      swap2\n    tag_56:\n      pop\n      pop\n      pop\n      pop\n      pop\n      dup2\n      mstore\n      0x20\n      add\n      0x01\n      dup3\n      add\n      0x00\n      swap1\n      sload\n      swap1\n      0x0100\n      exp\n      swap1\n      div\n      0xffffffffffffffffffffffffffffffffffffffff\n      and\n      0xffffffffffffffffffffffffffffffffffffffff\n      and\n      0xffffffffffffffffffffffffffffffffffffffff\n      and\n      dup2\n      mstore\n      pop\n      pop\n      swap1\n      pop\n        /* \"solidity_test/test8.sol\":2626:2735  function getUser(string memory _name) public view returns(user memory) {... */\n      swap2\n      swap1\n      pop\n      jump\t// out\n        /* \"solidity_test/test8.sol\":2829:3012  function setTopic(string memory _subject, string memory _content) public {... */\n    tag_22:\n        /* \"solidity_test/test8.sol\":2932:2983  topic(topicNum, _subject, _content, msg.sender,0,0) */\n      mload(0x40)\n      dup1\n      0xc0\n      add\n      0x40\n      mstore\n      dup1\n        /* \"solidity_test/test8.sol\":2938:2946  topicNum */\n      sload(0x03)\n        /* \"solidity_test/test8.sol\":2932:2983  topic(topicNum, _subject, _content, msg.sender,0,0) */\n      dup2\n      mstore\n      0x20\n      add\n        /* \"solidity_test/test8.sol\":2948:2956  _subject */\n      dup4\n        /* \"solidity_test/test8.sol\":2932:2983  topic(topicNum, _subject, _content, msg.sender,0,0) */\n      dup2\n      mstore\n      0x20\n      add\n        /* \"solidity_test/test8.sol\":2958:2966  _content */\n      dup3\n        /* \"solidity_test/test8.sol\":2932:2983  topic(topicNum, _subject, _content, msg.sender,0,0) */\n      dup2\n      mstore\n      0x20\n      add\n        /* \"solidity_test/test8.sol\":2968:2978  msg.sender */\n      caller\n        /* \"solidity_test/test8.sol\":2932:2983  topic(topicNum, _subject, _content, msg.sender,0,0) */\n      0xffffffffffffffffffffffffffffffffffffffff\n      and\n      dup2\n      mstore\n      0x20\n      add\n        /* \"solidity_test/test8.sol\":2979:2980  0 */\n      0x00\n        /* \"solidity_test/test8.sol\":2932:2983  topic(topicNum, _subject, _content, msg.sender,0,0) */\n      dup2\n      mstore\n      0x20\n      add\n        /* \"solidity_test/test8.sol\":2981:2982  0 */\n      0x00\n        /* \"solidity_test/test8.sol\":2932:2983  topic(topicNum, _subject, _content, msg.sender,0,0) */\n      dup2\n      mstore\n      pop\n        /* \"solidity_test/test8.sol\":2913:2919  topics */\n      0x00\n        /* \"solidity_test/test8.sol\":2913:2929  topics[topicNum] */\n      dup1\n        /* \"solidity_test/test8.sol\":2920:2928  topicNum */\n      sload(0x03)\n        /* \"solidity_test/test8.sol\":2913:2929  topics[topicNum] */\n      dup2\n      mstore\n      0x20\n      add\n      swap1\n      dup2\n      mstore\n      0x20\n      add\n      0x00\n      keccak256\n        /* \"solidity_test/test8.sol\":2913:2983  topics[topicNum] = topic(topicNum, _subject, _content, msg.sender,0,0) */\n      0x00\n      dup3\n      add\n      mload\n      dup2\n      0x00\n      add\n      sstore\n      0x20\n      dup3\n      add\n      mload\n      dup2\n      0x01\n      add\n      swap1\n      dup2\n      tag_60\n      swap2\n      swap1\n      tag_61\n      jump\t// in\n    tag_60:\n      pop\n      0x40\n      dup3\n      add\n      mload\n      dup2\n      0x02\n      add\n      swap1\n      dup2\n      tag_62\n      swap2\n      swap1\n      tag_61\n      jump\t// in\n    tag_62:\n      pop\n      0x60\n      dup3\n      add\n      mload\n      dup2\n      0x03\n      add\n      exp(0x0100, 0x00)\n      dup2\n      sload\n      dup2\n      0xffffffffffffffffffffffffffffffffffffffff\n      mul\n      not\n      and\n      swap1\n      dup4\n      0xffffffffffffffffffffffffffffffffffffffff\n      and\n      mul\n      or\n      swap1\n      sstore\n      pop\n      0x80\n      dup3\n      add\n      mload\n      dup2\n      0x04\n      add\n      sstore\n      0xa0\n      dup3\n      add\n      mload\n      dup2\n      0x05\n      add\n      sstore\n      swap1\n      pop\n      pop\n        /* \"solidity_test/test8.sol\":2994:3002  topicNum */\n      0x03\n      0x00\n        /* \"solidity_test/test8.sol\":2994:3004  topicNum++ */\n      dup2\n      sload\n      dup1\n      swap3\n      swap2\n      swap1\n      tag_63\n      swap1\n      tag_64\n      jump\t// in\n    tag_63:\n      swap2\n      swap1\n      pop\n      sstore\n      pop\n        /* \"solidity_test/test8.sol\":2829:3012  function setTopic(string memory _subject, string memory _content) public {... */\n      pop\n      pop\n      jump\t// out\n        /* \"solidity_test/test8.sol\":3225:3336  function getTopic(uint _topicNum) public view returns(topic memory) {... */\n    tag_26:\n        /* \"solidity_test/test8.sol\":3279:3291  topic memory */\n      tag_65\n      tag_66\n      jump\t// in\n    tag_65:\n        /* \"solidity_test/test8.sol\":3311:3317  topics */\n      0x00\n        /* \"solidity_test/test8.sol\":3311:3328  topics[_topicNum] */\n      dup1\n        /* \"solidity_test/test8.sol\":3318:3327  _topicNum */\n      dup4\n        /* \"solidity_test/test8.sol\":3311:3328  topics[_topicNum] */\n      dup2\n      mstore\n      0x20\n      add\n      swap1\n      dup2\n      mstore\n      0x20\n      add\n      0x00\n      keccak256\n        /* \"solidity_test/test8.sol\":3304:3328  return topics[_topicNum] */\n      mload(0x40)\n      dup1\n      0xc0\n      add\n      0x40\n      mstore\n      swap1\n      dup2\n      0x00\n      dup3\n      add\n      sload\n      dup2\n      mstore\n      0x20\n      add\n      0x01\n      dup3\n      add\n      dup1\n      sload\n      tag_68\n      swap1\n      tag_54\n      jump\t// in\n    tag_68:\n      dup1\n      0x1f\n      add\n      0x20\n      dup1\n      swap2\n      div\n      mul\n      0x20\n      add\n      mload(0x40)\n      swap1\n      dup2\n      add\n      0x40\n      mstore\n      dup1\n      swap3\n      swap2\n      swap1\n      dup2\n      dup2\n      mstore\n      0x20\n      add\n      dup3\n      dup1\n      sload\n      tag_69\n      swap1\n      tag_54\n      jump\t// in\n    tag_69:\n      dup1\n      iszero\n      tag_70\n      jumpi\n      dup1\n      0x1f\n      lt\n      tag_71\n      jumpi\n      0x0100\n      dup1\n      dup4\n      sload\n      div\n      mul\n      dup4\n      mstore\n      swap2\n      0x20\n      add\n      swap2\n      jump(tag_70)\n    tag_71:\n      dup3\n      add\n      swap2\n      swap1\n      0x00\n      mstore\n      keccak256(0x00, 0x20)\n      swap1\n    tag_72:\n      dup2\n      sload\n      dup2\n      mstore\n      swap1\n      0x01\n      add\n      swap1\n      0x20\n      add\n      dup1\n      dup4\n      gt\n      tag_72\n      jumpi\n      dup3\n      swap1\n      sub\n      0x1f\n      and\n      dup3\n      add\n      swap2\n    tag_70:\n      pop\n      pop\n      pop\n      pop\n      pop\n      dup2\n      mstore\n      0x20\n      add\n      0x02\n      dup3\n      add\n      dup1\n      sload\n      tag_73\n      swap1\n      tag_54\n      jump\t// in\n    tag_73:\n      dup1\n      0x1f\n      add\n      0x20\n      dup1\n      swap2\n      div\n      mul\n      0x20\n      add\n      mload(0x40)\n      swap1\n      dup2\n      add\n      0x40\n      mstore\n      dup1\n      swap3\n      swap2\n      swap1\n      dup2\n      dup2\n      mstore\n      0x20\n      add\n      dup3\n      dup1\n      sload\n      tag_74\n      swap1\n      tag_54\n      jump\t// in\n    tag_74:\n      dup1\n      iszero\n      tag_75\n      jumpi\n      dup1\n      0x1f\n      lt\n      tag_76\n      jumpi\n      0x0100\n      dup1\n      dup4\n      sload\n      div\n      mul\n      dup4\n      mstore\n      swap2\n      0x20\n      add\n      swap2\n      jump(tag_75)\n    tag_76:\n      dup3\n      add\n      swap2\n      swap1\n      0x00\n      mstore\n      keccak256(0x00, 0x20)\n      swap1\n    tag_77:\n      dup2\n      sload\n      dup2\n      mstore\n      swap1\n      0x01\n      add\n      swap1\n      0x20\n      add\n      dup1\n      dup4\n      gt\n      tag_77\n      jumpi\n      dup3\n      swap1\n      sub\n      0x1f\n      and\n      dup3\n      add\n      swap2\n    tag_75:\n      pop\n      pop\n      pop\n      pop\n      pop\n      dup2\n      mstore\n      0x20\n      add\n      0x03\n      dup3\n      add\n      0x00\n      swap1\n      sload\n      swap1\n      0x0100\n      exp\n      swap1\n      div\n      0xffffffffffffffffffffffffffffffffffffffff\n      and\n      0xffffffffffffffffffffffffffffffffffffffff\n      and\n      0xffffffffffffffffffffffffffffffffffffffff\n      and\n      dup2\n      mstore\n      0x20\n      add\n      0x04\n      dup3\n      add\n      sload\n      dup2\n      mstore\n      0x20\n      add\n      0x05\n      dup3\n      add\n      sload\n      dup2\n      mstore\n      pop\n      pop\n      swap1\n      pop\n        /* \"solidity_test/test8.sol\":3225:3336  function getTopic(uint _topicNum) public view returns(topic memory) {... */\n      swap2\n      swap1\n      pop\n      jump\t// out\n        /* \"solidity_test/test8.sol\":2516:2618  function setUser(string memory _name) public {... */\n    tag_31:\n        /* \"solidity_test/test8.sol\":2587:2610  user(_name, msg.sender) */\n      mload(0x40)\n      dup1\n      0x40\n      add\n      0x40\n      mstore\n      dup1\n        /* \"solidity_test/test8.sol\":2592:2597  _name */\n      dup3\n        /* \"solidity_test/test8.sol\":2587:2610  user(_name, msg.sender) */\n      dup2\n      mstore\n      0x20\n      add\n        /* \"solidity_test/test8.sol\":2599:2609  msg.sender */\n      caller\n        /* \"solidity_test/test8.sol\":2587:2610  user(_name, msg.sender) */\n      0xffffffffffffffffffffffffffffffffffffffff\n      and\n      dup2\n      mstore\n      pop\n        /* \"solidity_test/test8.sol\":2572:2577  users */\n      0x02\n        /* \"solidity_test/test8.sol\":2578:2583  _name */\n      dup3\n        /* \"solidity_test/test8.sol\":2572:2584  users[_name] */\n      mload(0x40)\n      tag_79\n      swap2\n      swap1\n      tag_38\n      jump\t// in\n    tag_79:\n      swap1\n      dup2\n      mstore\n      0x20\n      add\n      mload(0x40)\n      dup1\n      swap2\n      sub\n      swap1\n      keccak256\n        /* \"solidity_test/test8.sol\":2572:2610  users[_name] = user(_name, msg.sender) */\n      0x00\n      dup3\n      add\n      mload\n      dup2\n      0x00\n      add\n      swap1\n      dup2\n      tag_80\n      swap2\n      swap1\n      tag_61\n      jump\t// in\n    tag_80:\n      pop\n      0x20\n      dup3\n      add\n      mload\n      dup2\n      0x01\n      add\n      exp(0x0100, 0x00)\n      dup2\n      sload\n      dup2\n      0xffffffffffffffffffffffffffffffffffffffff\n      mul\n      not\n      and\n      swap1\n      dup4\n      0xffffffffffffffffffffffffffffffffffffffff\n      and\n      mul\n      or\n      swap1\n      sstore\n      pop\n      swap1\n      pop\n      pop\n        /* \"solidity_test/test8.sol\":2516:2618  function setUser(string memory _name) public {... */\n      pop\n      jump\t// out\n        /* \"solidity_test/test8.sol\":3491:3741  function getTopics() public view returns(topic[] memory) {... */\n    tag_33:\n        /* \"solidity_test/test8.sol\":3532:3546  topic[] memory */\n      0x60\n        /* \"solidity_test/test8.sol\":3559:3584  topic[] memory topicArray */\n      0x00\n        /* \"solidity_test/test8.sol\":3599:3607  topicNum */\n      sload(0x03)\n        /* \"solidity_test/test8.sol\":3587:3608  new topic[](topicNum) */\n      0xffffffffffffffff\n      dup2\n      gt\n      iszero\n      tag_82\n      jumpi\n      tag_83\n      tag_84\n      jump\t// in\n    tag_83:\n    tag_82:\n      mload(0x40)\n      swap1\n      dup1\n      dup3\n      mstore\n      dup1\n      0x20\n      mul\n      0x20\n      add\n      dup3\n      add\n      0x40\n      mstore\n      dup1\n      iszero\n      tag_85\n      jumpi\n      dup2\n      0x20\n      add\n    tag_86:\n      tag_87\n      tag_66\n      jump\t// in\n    tag_87:\n      dup2\n      mstore\n      0x20\n      add\n      swap1\n      0x01\n      swap1\n      sub\n      swap1\n      dup2\n      tag_86\n      jumpi\n      swap1\n      pop\n    tag_85:\n      pop\n        /* \"solidity_test/test8.sol\":3559:3608  topic[] memory topicArray = new topic[](topicNum) */\n      swap1\n      pop\n        /* \"solidity_test/test8.sol\":3624:3630  uint i */\n      0x00\n        /* \"solidity_test/test8.sol\":3619:3706  for (uint i = 0; i < topicNum; i++){... */\n    tag_88:\n        /* \"solidity_test/test8.sol\":3640:3648  topicNum */\n      sload(0x03)\n        /* \"solidity_test/test8.sol\":3636:3637  i */\n      dup2\n        /* \"solidity_test/test8.sol\":3636:3648  i < topicNum */\n      lt\n        /* \"solidity_test/test8.sol\":3619:3706  for (uint i = 0; i < topicNum; i++){... */\n      iszero\n      tag_89\n      jumpi\n        /* \"solidity_test/test8.sol\":3685:3691  topics */\n      0x00\n        /* \"solidity_test/test8.sol\":3685:3694  topics[i] */\n      dup1\n        /* \"solidity_test/test8.sol\":3692:3693  i */\n      dup3\n        /* \"solidity_test/test8.sol\":3685:3694  topics[i] */\n      dup2\n      mstore\n      0x20\n      add\n      swap1\n      dup2\n      mstore\n      0x20\n      add\n      0x00\n      keccak256\n        /* \"solidity_test/test8.sol\":3669:3694  topicArray[i] = topics[i] */\n      mload(0x40)\n      dup1\n      0xc0\n      add\n      0x40\n      mstore\n      swap1\n      dup2\n      0x00\n      dup3\n      add\n      sload\n      dup2\n      mstore\n      0x20\n      add\n      0x01\n      dup3\n      add\n      dup1\n      sload\n      tag_91\n      swap1\n      tag_54\n      jump\t// in\n    tag_91:\n      dup1\n      0x1f\n      add\n      0x20\n      dup1\n      swap2\n      div\n      mul\n      0x20\n      add\n      mload(0x40)\n      swap1\n      dup2\n      add\n      0x40\n      mstore\n      dup1\n      swap3\n      swap2\n      swap1\n      dup2\n      dup2\n      mstore\n      0x20\n      add\n      dup3\n      dup1\n      sload\n      tag_92\n      swap1\n      tag_54\n      jump\t// in\n    tag_92:\n      dup1\n      iszero\n      tag_93\n      jumpi\n      dup1\n      0x1f\n      lt\n      tag_94\n      jumpi\n      0x0100\n      dup1\n      dup4\n      sload\n      div\n      mul\n      dup4\n      mstore\n      swap2\n      0x20\n      add\n      swap2\n      jump(tag_93)\n    tag_94:\n      dup3\n      add\n      swap2\n      swap1\n      0x00\n      mstore\n      keccak256(0x00, 0x20)\n      swap1\n    tag_95:\n      dup2\n      sload\n      dup2\n      mstore\n      swap1\n      0x01\n      add\n      swap1\n      0x20\n      add\n      dup1\n      dup4\n      gt\n      tag_95\n      jumpi\n      dup3\n      swap1\n      sub\n      0x1f\n      and\n      dup3\n      add\n      swap2\n    tag_93:\n      pop\n      pop\n      pop\n      pop\n      pop\n      dup2\n      mstore\n      0x20\n      add\n      0x02\n      dup3\n      add\n      dup1\n      sload\n      tag_96\n      swap1\n      tag_54\n      jump\t// in\n    tag_96:\n      dup1\n      0x1f\n      add\n      0x20\n      dup1\n      swap2\n      div\n      mul\n      0x20\n      add\n      mload(0x40)\n      swap1\n      dup2\n      add\n      0x40\n      mstore\n      dup1\n      swap3\n      swap2\n      swap1\n      dup2\n      dup2\n      mstore\n      0x20\n      add\n      dup3\n      dup1\n      sload\n      tag_97\n      swap1\n      tag_54\n      jump\t// in\n    tag_97:\n      dup1\n      iszero\n      tag_98\n      jumpi\n      dup1\n      0x1f\n      lt\n      tag_99\n      jumpi\n      0x0100\n      dup1\n      dup4\n      sload\n      div\n      mul\n      dup4\n      mstore\n      swap2\n      0x20\n      add\n      swap2\n      jump(tag_98)\n    tag_99:\n      dup3\n      add\n      swap2\n      swap1\n      0x00\n      mstore\n      keccak256(0x00, 0x20)\n      swap1\n    tag_100:\n      dup2\n      sload\n      dup2\n      mstore\n      swap1\n      0x01\n      add\n      swap1\n      0x20\n      add\n      dup1\n      dup4\n      gt\n      tag_100\n      jumpi\n      dup3\n      swap1\n      sub\n      0x1f\n      and\n      dup3\n      add\n      swap2\n    tag_98:\n      pop\n      pop\n      pop\n      pop\n      pop\n      dup2\n      mstore\n      0x20\n      add\n      0x03\n      dup3\n      add\n      0x00\n      swap1\n      sload\n      swap1\n      0x0100\n      exp\n      swap1\n      div\n      0xffffffffffffffffffffffffffffffffffffffff\n      and\n      0xffffffffffffffffffffffffffffffffffffffff\n      and\n      0xffffffffffffffffffffffffffffffffffffffff\n      and\n      dup2\n      mstore\n      0x20\n      add\n      0x04\n      dup3\n      add\n      sload\n      dup2\n      mstore\n      0x20\n      add\n      0x05\n      dup3\n      add\n      sload\n      dup2\n      mstore\n      pop\n      pop\n        /* \"solidity_test/test8.sol\":3669:3679  topicArray */\n      dup3\n        /* \"solidity_test/test8.sol\":3680:3681  i */\n      dup3\n        /* \"solidity_test/test8.sol\":3669:3682  topicArray[i] */\n      dup2\n      mload\n      dup2\n      lt\n      tag_101\n      jumpi\n      tag_102\n      tag_103\n      jump\t// in\n    tag_102:\n    tag_101:\n      0x20\n      mul\n      0x20\n      add\n      add\n        /* \"solidity_test/test8.sol\":3669:3694  topicArray[i] = topics[i] */\n      dup2\n      swap1\n      mstore\n      pop\n        /* \"solidity_test/test8.sol\":3650:3653  i++ */\n      dup1\n      dup1\n      0x01\n      add\n      swap2\n      pop\n      pop\n        /* \"solidity_test/test8.sol\":3619:3706  for (uint i = 0; i < topicNum; i++){... */\n      jump(tag_88)\n    tag_89:\n      pop\n        /* \"solidity_test/test8.sol\":3723:3733  topicArray */\n      dup1\n        /* \"solidity_test/test8.sol\":3716:3733  return topicArray */\n      swap2\n      pop\n      pop\n        /* \"solidity_test/test8.sol\":3491:3741  function getTopics() public view returns(topic[] memory) {... */\n      swap1\n      jump\t// out\n    tag_50:\n      mload(0x40)\n      dup1\n      0x40\n      add\n      0x40\n      mstore\n      dup1\n      0x60\n      dup2\n      mstore\n      0x20\n      add\n      and(0xffffffffffffffffffffffffffffffffffffffff, 0x00)\n      dup2\n      mstore\n      pop\n      swap1\n      jump\t// out\n    tag_66:\n      mload(0x40)\n      dup1\n      0xc0\n      add\n      0x40\n      mstore\n      dup1\n      0x00\n      dup2\n      mstore\n      0x20\n      add\n      0x60\n      dup2\n      mstore\n      0x20\n      add\n      0x60\n      dup2\n      mstore\n      0x20\n      add\n      and(0xffffffffffffffffffffffffffffffffffffffff, 0x00)\n      dup2\n      mstore\n      0x20\n      add\n      0x00\n      dup2\n      mstore\n      0x20\n      add\n      0x00\n      dup2\n      mstore\n      pop\n      swap1\n      jump\t// out\n        /* \"#utility.yul\":7:82   */\n    tag_104:\n        /* \"#utility.yul\":40:46   */\n      0x00\n        /* \"#utility.yul\":73:75   */\n      0x40\n        /* \"#utility.yul\":67:76   */\n      mload\n        /* \"#utility.yul\":57:76   */\n      swap1\n      pop\n        /* \"#utility.yul\":7:82   */\n      swap1\n      jump\t// out\n        /* \"#utility.yul\":88:205   */\n    tag_105:\n        /* \"#utility.yul\":197:198   */\n      0x00\n        /* \"#utility.yul\":194:195   */\n      dup1\n        /* \"#utility.yul\":187:199   */\n      revert\n        /* \"#utility.yul\":211:328   */\n    tag_106:\n        /* \"#utility.yul\":320:321   */\n      0x00\n        /* \"#utility.yul\":317:318   */\n      dup1\n        /* \"#utility.yul\":310:322   */\n      revert\n        /* \"#utility.yul\":334:411   */\n    tag_107:\n        /* \"#utility.yul\":371:378   */\n      0x00\n        /* \"#utility.yul\":400:405   */\n      dup2\n        /* \"#utility.yul\":389:405   */\n      swap1\n      pop\n        /* \"#utility.yul\":334:411   */\n      swap2\n      swap1\n      pop\n      jump\t// out\n        /* \"#utility.yul\":417:539   */\n    tag_108:\n        /* \"#utility.yul\":490:514   */\n      tag_167\n        /* \"#utility.yul\":508:513   */\n      dup2\n        /* \"#utility.yul\":490:514   */\n      tag_107\n      jump\t// in\n    tag_167:\n        /* \"#utility.yul\":483:488   */\n      dup2\n        /* \"#utility.yul\":480:515   */\n      eq\n        /* \"#utility.yul\":470:533   */\n      tag_168\n      jumpi\n        /* \"#utility.yul\":529:530   */\n      0x00\n        /* \"#utility.yul\":526:527   */\n      dup1\n        /* \"#utility.yul\":519:531   */\n      revert\n        /* \"#utility.yul\":470:533   */\n    tag_168:\n        /* \"#utility.yul\":417:539   */\n      pop\n      jump\t// out\n        /* \"#utility.yul\":545:684   */\n    tag_109:\n        /* \"#utility.yul\":591:596   */\n      0x00\n        /* \"#utility.yul\":629:635   */\n      dup2\n        /* \"#utility.yul\":616:636   */\n      calldataload\n        /* \"#utility.yul\":607:636   */\n      swap1\n      pop\n        /* \"#utility.yul\":645:678   */\n      tag_170\n        /* \"#utility.yul\":672:677   */\n      dup2\n        /* \"#utility.yul\":645:678   */\n      tag_108\n      jump\t// in\n    tag_170:\n        /* \"#utility.yul\":545:684   */\n      swap3\n      swap2\n      pop\n      pop\n      jump\t// out\n        /* \"#utility.yul\":690:807   */\n    tag_110:\n        /* \"#utility.yul\":799:800   */\n      0x00\n        /* \"#utility.yul\":796:797   */\n      dup1\n        /* \"#utility.yul\":789:801   */\n      revert\n        /* \"#utility.yul\":813:930   */\n    tag_111:\n        /* \"#utility.yul\":922:923   */\n      0x00\n        /* \"#utility.yul\":919:920   */\n      dup1\n        /* \"#utility.yul\":912:924   */\n      revert\n        /* \"#utility.yul\":936:1038   */\n    tag_112:\n        /* \"#utility.yul\":977:983   */\n      0x00\n        /* \"#utility.yul\":1028:1030   */\n      0x1f\n        /* \"#utility.yul\":1024:1031   */\n      not\n        /* \"#utility.yul\":1019:1021   */\n      0x1f\n        /* \"#utility.yul\":1012:1017   */\n      dup4\n        /* \"#utility.yul\":1008:1022   */\n      add\n        /* \"#utility.yul\":1004:1032   */\n      and\n        /* \"#utility.yul\":994:1032   */\n      swap1\n      pop\n        /* \"#utility.yul\":936:1038   */\n      swap2\n      swap1\n      pop\n      jump\t// out\n        /* \"#utility.yul\":1044:1224   */\n    tag_84:\n        /* \"#utility.yul\":1092:1169   */\n      0x4e487b7100000000000000000000000000000000000000000000000000000000\n        /* \"#utility.yul\":1089:1090   */\n      0x00\n        /* \"#utility.yul\":1082:1170   */\n      mstore\n        /* \"#utility.yul\":1189:1193   */\n      0x41\n        /* \"#utility.yul\":1186:1187   */\n      0x04\n        /* \"#utility.yul\":1179:1194   */\n      mstore\n        /* \"#utility.yul\":1213:1217   */\n      0x24\n        /* \"#utility.yul\":1210:1211   */\n      0x00\n        /* \"#utility.yul\":1203:1218   */\n      revert\n        /* \"#utility.yul\":1230:1511   */\n    tag_113:\n        /* \"#utility.yul\":1313:1340   */\n      tag_176\n        /* \"#utility.yul\":1335:1339   */\n      dup3\n        /* \"#utility.yul\":1313:1340   */\n      tag_112\n      jump\t// in\n    tag_176:\n        /* \"#utility.yul\":1305:1311   */\n      dup2\n        /* \"#utility.yul\":1301:1341   */\n      add\n        /* \"#utility.yul\":1443:1449   */\n      dup2\n        /* \"#utility.yul\":1431:1441   */\n      dup2\n        /* \"#utility.yul\":1428:1450   */\n      lt\n        /* \"#utility.yul\":1407:1425   */\n      0xffffffffffffffff\n        /* \"#utility.yul\":1395:1405   */\n      dup3\n        /* \"#utility.yul\":1392:1426   */\n      gt\n        /* \"#utility.yul\":1389:1451   */\n      or\n        /* \"#utility.yul\":1386:1474   */\n      iszero\n      tag_177\n      jumpi\n        /* \"#utility.yul\":1454:1472   */\n      tag_178\n      tag_84\n      jump\t// in\n    tag_178:\n        /* \"#utility.yul\":1386:1474   */\n    tag_177:\n        /* \"#utility.yul\":1494:1504   */\n      dup1\n        /* \"#utility.yul\":1490:1492   */\n      0x40\n        /* \"#utility.yul\":1483:1505   */\n      mstore\n        /* \"#utility.yul\":1273:1511   */\n      pop\n        /* \"#utility.yul\":1230:1511   */\n      pop\n      pop\n      jump\t// out\n        /* \"#utility.yul\":1517:1646   */\n    tag_114:\n        /* \"#utility.yul\":1551:1557   */\n      0x00\n        /* \"#utility.yul\":1578:1598   */\n      tag_180\n      tag_104\n      jump\t// in\n    tag_180:\n        /* \"#utility.yul\":1568:1598   */\n      swap1\n      pop\n        /* \"#utility.yul\":1607:1640   */\n      tag_181\n        /* \"#utility.yul\":1635:1639   */\n      dup3\n        /* \"#utility.yul\":1627:1633   */\n      dup3\n        /* \"#utility.yul\":1607:1640   */\n      tag_113\n      jump\t// in\n    tag_181:\n        /* \"#utility.yul\":1517:1646   */\n      swap2\n      swap1\n      pop\n      jump\t// out\n        /* \"#utility.yul\":1652:1960   */\n    tag_115:\n        /* \"#utility.yul\":1714:1718   */\n      0x00\n        /* \"#utility.yul\":1804:1822   */\n      0xffffffffffffffff\n        /* \"#utility.yul\":1796:1802   */\n      dup3\n        /* \"#utility.yul\":1793:1823   */\n      gt\n        /* \"#utility.yul\":1790:1846   */\n      iszero\n      tag_183\n      jumpi\n        /* \"#utility.yul\":1826:1844   */\n      tag_184\n      tag_84\n      jump\t// in\n    tag_184:\n        /* \"#utility.yul\":1790:1846   */\n    tag_183:\n        /* \"#utility.yul\":1864:1893   */\n      tag_185\n        /* \"#utility.yul\":1886:1892   */\n      dup3\n        /* \"#utility.yul\":1864:1893   */\n      tag_112\n      jump\t// in\n    tag_185:\n        /* \"#utility.yul\":1856:1893   */\n      swap1\n      pop\n        /* \"#utility.yul\":1948:1952   */\n      0x20\n        /* \"#utility.yul\":1942:1946   */\n      dup2\n        /* \"#utility.yul\":1938:1953   */\n      add\n        /* \"#utility.yul\":1930:1953   */\n      swap1\n      pop\n        /* \"#utility.yul\":1652:1960   */\n      swap2\n      swap1\n      pop\n      jump\t// out\n        /* \"#utility.yul\":1966:2114   */\n    tag_116:\n        /* \"#utility.yul\":2064:2070   */\n      dup3\n        /* \"#utility.yul\":2059:2062   */\n      dup2\n        /* \"#utility.yul\":2054:2057   */\n      dup4\n        /* \"#utility.yul\":2041:2071   */\n      calldatacopy\n        /* \"#utility.yul\":2105:2106   */\n      0x00\n        /* \"#utility.yul\":2096:2102   */\n      dup4\n        /* \"#utility.yul\":2091:2094   */\n      dup4\n        /* \"#utility.yul\":2087:2103   */\n      add\n        /* \"#utility.yul\":2080:2107   */\n      mstore\n        /* \"#utility.yul\":1966:2114   */\n      pop\n      pop\n      pop\n      jump\t// out\n        /* \"#utility.yul\":2120:2545   */\n    tag_117:\n        /* \"#utility.yul\":2198:2203   */\n      0x00\n        /* \"#utility.yul\":2223:2289   */\n      tag_188\n        /* \"#utility.yul\":2239:2288   */\n      tag_189\n        /* \"#utility.yul\":2281:2287   */\n      dup5\n        /* \"#utility.yul\":2239:2288   */\n      tag_115\n      jump\t// in\n    tag_189:\n        /* \"#utility.yul\":2223:2289   */\n      tag_114\n      jump\t// in\n    tag_188:\n        /* \"#utility.yul\":2214:2289   */\n      swap1\n      pop\n        /* \"#utility.yul\":2312:2318   */\n      dup3\n        /* \"#utility.yul\":2305:2310   */\n      dup2\n        /* \"#utility.yul\":2298:2319   */\n      mstore\n        /* \"#utility.yul\":2350:2354   */\n      0x20\n        /* \"#utility.yul\":2343:2348   */\n      dup2\n        /* \"#utility.yul\":2339:2355   */\n      add\n        /* \"#utility.yul\":2388:2391   */\n      dup5\n        /* \"#utility.yul\":2379:2385   */\n      dup5\n        /* \"#utility.yul\":2374:2377   */\n      dup5\n        /* \"#utility.yul\":2370:2386   */\n      add\n        /* \"#utility.yul\":2367:2392   */\n      gt\n        /* \"#utility.yul\":2364:2476   */\n      iszero\n      tag_190\n      jumpi\n        /* \"#utility.yul\":2395:2474   */\n      tag_191\n      tag_111\n      jump\t// in\n    tag_191:\n        /* \"#utility.yul\":2364:2476   */\n    tag_190:\n        /* \"#utility.yul\":2485:2539   */\n      tag_192\n        /* \"#utility.yul\":2532:2538   */\n      dup5\n        /* \"#utility.yul\":2527:2530   */\n      dup3\n        /* \"#utility.yul\":2522:2525   */\n      dup6\n        /* \"#utility.yul\":2485:2539   */\n      tag_116\n      jump\t// in\n    tag_192:\n        /* \"#utility.yul\":2204:2545   */\n      pop\n        /* \"#utility.yul\":2120:2545   */\n      swap4\n      swap3\n      pop\n      pop\n      pop\n      jump\t// out\n        /* \"#utility.yul\":2565:2905   */\n    tag_118:\n        /* \"#utility.yul\":2621:2626   */\n      0x00\n        /* \"#utility.yul\":2670:2673   */\n      dup3\n        /* \"#utility.yul\":2663:2667   */\n      0x1f\n        /* \"#utility.yul\":2655:2661   */\n      dup4\n        /* \"#utility.yul\":2651:2668   */\n      add\n        /* \"#utility.yul\":2647:2674   */\n      slt\n        /* \"#utility.yul\":2637:2759   */\n      tag_194\n      jumpi\n        /* \"#utility.yul\":2678:2757   */\n      tag_195\n      tag_110\n      jump\t// in\n    tag_195:\n        /* \"#utility.yul\":2637:2759   */\n    tag_194:\n        /* \"#utility.yul\":2795:2801   */\n      dup2\n        /* \"#utility.yul\":2782:2802   */\n      calldataload\n        /* \"#utility.yul\":2820:2899   */\n      tag_196\n        /* \"#utility.yul\":2895:2898   */\n      dup5\n        /* \"#utility.yul\":2887:2893   */\n      dup3\n        /* \"#utility.yul\":2880:2884   */\n      0x20\n        /* \"#utility.yul\":2872:2878   */\n      dup7\n        /* \"#utility.yul\":2868:2885   */\n      add\n        /* \"#utility.yul\":2820:2899   */\n      tag_117\n      jump\t// in\n    tag_196:\n        /* \"#utility.yul\":2811:2899   */\n      swap2\n      pop\n        /* \"#utility.yul\":2627:2905   */\n      pop\n        /* \"#utility.yul\":2565:2905   */\n      swap3\n      swap2\n      pop\n      pop\n      jump\t// out\n        /* \"#utility.yul\":2911:3001   */\n    tag_119:\n        /* \"#utility.yul\":2945:2952   */\n      0x00\n        /* \"#utility.yul\":2988:2993   */\n      dup2\n        /* \"#utility.yul\":2981:2994   */\n      iszero\n        /* \"#utility.yul\":2974:2995   */\n      iszero\n        /* \"#utility.yul\":2963:2995   */\n      swap1\n      pop\n        /* \"#utility.yul\":2911:3001   */\n      swap2\n      swap1\n      pop\n      jump\t// out\n        /* \"#utility.yul\":3007:3123   */\n    tag_120:\n        /* \"#utility.yul\":3077:3098   */\n      tag_199\n        /* \"#utility.yul\":3092:3097   */\n      dup2\n        /* \"#utility.yul\":3077:3098   */\n      tag_119\n      jump\t// in\n    tag_199:\n        /* \"#utility.yul\":3070:3075   */\n      dup2\n        /* \"#utility.yul\":3067:3099   */\n      eq\n        /* \"#utility.yul\":3057:3117   */\n      tag_200\n      jumpi\n        /* \"#utility.yul\":3113:3114   */\n      0x00\n        /* \"#utility.yul\":3110:3111   */\n      dup1\n        /* \"#utility.yul\":3103:3115   */\n      revert\n        /* \"#utility.yul\":3057:3117   */\n    tag_200:\n        /* \"#utility.yul\":3007:3123   */\n      pop\n      jump\t// out\n        /* \"#utility.yul\":3129:3262   */\n    tag_121:\n        /* \"#utility.yul\":3172:3177   */\n      0x00\n        /* \"#utility.yul\":3210:3216   */\n      dup2\n        /* \"#utility.yul\":3197:3217   */\n      calldataload\n        /* \"#utility.yul\":3188:3217   */\n      swap1\n      pop\n        /* \"#utility.yul\":3226:3256   */\n      tag_202\n        /* \"#utility.yul\":3250:3255   */\n      dup2\n        /* \"#utility.yul\":3226:3256   */\n      tag_120\n      jump\t// in\n    tag_202:\n        /* \"#utility.yul\":3129:3262   */\n      swap3\n      swap2\n      pop\n      pop\n      jump\t// out\n        /* \"#utility.yul\":3268:4061   */\n    tag_11:\n        /* \"#utility.yul\":3352:3358   */\n      0x00\n        /* \"#utility.yul\":3360:3366   */\n      dup1\n        /* \"#utility.yul\":3368:3374   */\n      0x00\n        /* \"#utility.yul\":3417:3419   */\n      0x60\n        /* \"#utility.yul\":3405:3414   */\n      dup5\n        /* \"#utility.yul\":3396:3403   */\n      dup7\n        /* \"#utility.yul\":3392:3415   */\n      sub\n        /* \"#utility.yul\":3388:3420   */\n      slt\n        /* \"#utility.yul\":3385:3504   */\n      iszero\n      tag_204\n      jumpi\n        /* \"#utility.yul\":3423:3502   */\n      tag_205\n      tag_105\n      jump\t// in\n    tag_205:\n        /* \"#utility.yul\":3385:3504   */\n    tag_204:\n        /* \"#utility.yul\":3543:3544   */\n      0x00\n        /* \"#utility.yul\":3568:3621   */\n      tag_206\n        /* \"#utility.yul\":3613:3620   */\n      dup7\n        /* \"#utility.yul\":3604:3610   */\n      dup3\n        /* \"#utility.yul\":3593:3602   */\n      dup8\n        /* \"#utility.yul\":3589:3611   */\n      add\n        /* \"#utility.yul\":3568:3621   */\n      tag_109\n      jump\t// in\n    tag_206:\n        /* \"#utility.yul\":3558:3621   */\n      swap4\n      pop\n        /* \"#utility.yul\":3514:3631   */\n      pop\n        /* \"#utility.yul\":3698:3700   */\n      0x20\n        /* \"#utility.yul\":3687:3696   */\n      dup5\n        /* \"#utility.yul\":3683:3701   */\n      add\n        /* \"#utility.yul\":3670:3702   */\n      calldataload\n        /* \"#utility.yul\":3729:3747   */\n      0xffffffffffffffff\n        /* \"#utility.yul\":3721:3727   */\n      dup2\n        /* \"#utility.yul\":3718:3748   */\n      gt\n        /* \"#utility.yul\":3715:3832   */\n      iszero\n      tag_207\n      jumpi\n        /* \"#utility.yul\":3751:3830   */\n      tag_208\n      tag_106\n      jump\t// in\n    tag_208:\n        /* \"#utility.yul\":3715:3832   */\n    tag_207:\n        /* \"#utility.yul\":3856:3919   */\n      tag_209\n        /* \"#utility.yul\":3911:3918   */\n      dup7\n        /* \"#utility.yul\":3902:3908   */\n      dup3\n        /* \"#utility.yul\":3891:3900   */\n      dup8\n        /* \"#utility.yul\":3887:3909   */\n      add\n        /* \"#utility.yul\":3856:3919   */\n      tag_118\n      jump\t// in\n    tag_209:\n        /* \"#utility.yul\":3846:3919   */\n      swap3\n      pop\n        /* \"#utility.yul\":3641:3929   */\n      pop\n        /* \"#utility.yul\":3968:3970   */\n      0x40\n        /* \"#utility.yul\":3994:4044   */\n      tag_210\n        /* \"#utility.yul\":4036:4043   */\n      dup7\n        /* \"#utility.yul\":4027:4033   */\n      dup3\n        /* \"#utility.yul\":4016:4025   */\n      dup8\n        /* \"#utility.yul\":4012:4034   */\n      add\n        /* \"#utility.yul\":3994:4044   */\n      tag_121\n      jump\t// in\n    tag_210:\n        /* \"#utility.yul\":3984:4044   */\n      swap2\n      pop\n        /* \"#utility.yul\":3939:4054   */\n      pop\n        /* \"#utility.yul\":3268:4061   */\n      swap3\n      pop\n      swap3\n      pop\n      swap3\n      jump\t// out\n        /* \"#utility.yul\":4067:4576   */\n    tag_15:\n        /* \"#utility.yul\":4136:4142   */\n      0x00\n        /* \"#utility.yul\":4185:4187   */\n      0x20\n        /* \"#utility.yul\":4173:4182   */\n      dup3\n        /* \"#utility.yul\":4164:4171   */\n      dup5\n        /* \"#utility.yul\":4160:4183   */\n      sub\n        /* \"#utility.yul\":4156:4188   */\n      slt\n        /* \"#utility.yul\":4153:4272   */\n      iszero\n      tag_212\n      jumpi\n        /* \"#utility.yul\":4191:4270   */\n      tag_213\n      tag_105\n      jump\t// in\n    tag_213:\n        /* \"#utility.yul\":4153:4272   */\n    tag_212:\n        /* \"#utility.yul\":4339:4340   */\n      0x00\n        /* \"#utility.yul\":4328:4337   */\n      dup3\n        /* \"#utility.yul\":4324:4341   */\n      add\n        /* \"#utility.yul\":4311:4342   */\n      calldataload\n        /* \"#utility.yul\":4369:4387   */\n      0xffffffffffffffff\n        /* \"#utility.yul\":4361:4367   */\n      dup2\n        /* \"#utility.yul\":4358:4388   */\n      gt\n        /* \"#utility.yul\":4355:4472   */\n      iszero\n      tag_214\n      jumpi\n        /* \"#utility.yul\":4391:4470   */\n      tag_215\n      tag_106\n      jump\t// in\n    tag_215:\n        /* \"#utility.yul\":4355:4472   */\n    tag_214:\n        /* \"#utility.yul\":4496:4559   */\n      tag_216\n        /* \"#utility.yul\":4551:4558   */\n      dup5\n        /* \"#utility.yul\":4542:4548   */\n      dup3\n        /* \"#utility.yul\":4531:4540   */\n      dup6\n        /* \"#utility.yul\":4527:4549   */\n      add\n        /* \"#utility.yul\":4496:4559   */\n      tag_118\n      jump\t// in\n    tag_216:\n        /* \"#utility.yul\":4486:4559   */\n      swap2\n      pop\n        /* \"#utility.yul\":4282:4569   */\n      pop\n        /* \"#utility.yul\":4067:4576   */\n      swap3\n      swap2\n      pop\n      pop\n      jump\t// out\n        /* \"#utility.yul\":4582:4681   */\n    tag_122:\n        /* \"#utility.yul\":4634:4640   */\n      0x00\n        /* \"#utility.yul\":4668:4673   */\n      dup2\n        /* \"#utility.yul\":4662:4674   */\n      mload\n        /* \"#utility.yul\":4652:4674   */\n      swap1\n      pop\n        /* \"#utility.yul\":4582:4681   */\n      swap2\n      swap1\n      pop\n      jump\t// out\n        /* \"#utility.yul\":4687:4846   */\n    tag_123:\n        /* \"#utility.yul\":4761:4772   */\n      0x00\n        /* \"#utility.yul\":4795:4801   */\n      dup3\n        /* \"#utility.yul\":4790:4793   */\n      dup3\n        /* \"#utility.yul\":4783:4802   */\n      mstore\n        /* \"#utility.yul\":4835:4839   */\n      0x20\n        /* \"#utility.yul\":4830:4833   */\n      dup3\n        /* \"#utility.yul\":4826:4840   */\n      add\n        /* \"#utility.yul\":4811:4840   */\n      swap1\n      pop\n        /* \"#utility.yul\":4687:4846   */\n      swap3\n      swap2\n      pop\n      pop\n      jump\t// out\n        /* \"#utility.yul\":4852:4991   */\n    tag_124:\n        /* \"#utility.yul\":4941:4947   */\n      dup3\n        /* \"#utility.yul\":4936:4939   */\n      dup2\n        /* \"#utility.yul\":4931:4934   */\n      dup4\n        /* \"#utility.yul\":4925:4948   */\n      mcopy\n        /* \"#utility.yul\":4982:4983   */\n      0x00\n        /* \"#utility.yul\":4973:4979   */\n      dup4\n        /* \"#utility.yul\":4968:4971   */\n      dup4\n        /* \"#utility.yul\":4964:4980   */\n      add\n        /* \"#utility.yul\":4957:4984   */\n      mstore\n        /* \"#utility.yul\":4852:4991   */\n      pop\n      pop\n      pop\n      jump\t// out\n        /* \"#utility.yul\":4997:5354   */\n    tag_125:\n        /* \"#utility.yul\":5075:5078   */\n      0x00\n        /* \"#utility.yul\":5103:5142   */\n      tag_221\n        /* \"#utility.yul\":5136:5141   */\n      dup3\n        /* \"#utility.yul\":5103:5142   */\n      tag_122\n      jump\t// in\n    tag_221:\n        /* \"#utility.yul\":5158:5219   */\n      tag_222\n        /* \"#utility.yul\":5212:5218   */\n      dup2\n        /* \"#utility.yul\":5207:5210   */\n      dup6\n        /* \"#utility.yul\":5158:5219   */\n      tag_123\n      jump\t// in\n    tag_222:\n        /* \"#utility.yul\":5151:5219   */\n      swap4\n      pop\n        /* \"#utility.yul\":5228:5293   */\n      tag_223\n        /* \"#utility.yul\":5286:5292   */\n      dup2\n        /* \"#utility.yul\":5281:5284   */\n      dup6\n        /* \"#utility.yul\":5274:5278   */\n      0x20\n        /* \"#utility.yul\":5267:5272   */\n      dup7\n        /* \"#utility.yul\":5263:5279   */\n      add\n        /* \"#utility.yul\":5228:5293   */\n      tag_124\n      jump\t// in\n    tag_223:\n        /* \"#utility.yul\":5318:5347   */\n      tag_224\n        /* \"#utility.yul\":5340:5346   */\n      dup2\n        /* \"#utility.yul\":5318:5347   */\n      tag_112\n      jump\t// in\n    tag_224:\n        /* \"#utility.yul\":5313:5316   */\n      dup5\n        /* \"#utility.yul\":5309:5348   */\n      add\n        /* \"#utility.yul\":5302:5348   */\n      swap2\n      pop\n        /* \"#utility.yul\":5079:5354   */\n      pop\n        /* \"#utility.yul\":4997:5354   */\n      swap3\n      swap2\n      pop\n      pop\n      jump\t// out\n        /* \"#utility.yul\":5360:5486   */\n    tag_126:\n        /* \"#utility.yul\":5397:5404   */\n      0x00\n        /* \"#utility.yul\":5437:5479   */\n      0xffffffffffffffffffffffffffffffffffffffff\n        /* \"#utility.yul\":5430:5435   */\n      dup3\n        /* \"#utility.yul\":5426:5480   */\n      and\n        /* \"#utility.yul\":5415:5480   */\n      swap1\n      pop\n        /* \"#utility.yul\":5360:5486   */\n      swap2\n      swap1\n      pop\n      jump\t// out\n        /* \"#utility.yul\":5492:5588   */\n    tag_127:\n        /* \"#utility.yul\":5529:5536   */\n      0x00\n        /* \"#utility.yul\":5558:5582   */\n      tag_227\n        /* \"#utility.yul\":5576:5581   */\n      dup3\n        /* \"#utility.yul\":5558:5582   */\n      tag_126\n      jump\t// in\n    tag_227:\n        /* \"#utility.yul\":5547:5582   */\n      swap1\n      pop\n        /* \"#utility.yul\":5492:5588   */\n      swap2\n      swap1\n      pop\n      jump\t// out\n        /* \"#utility.yul\":5594:5702   */\n    tag_128:\n        /* \"#utility.yul\":5671:5695   */\n      tag_229\n        /* \"#utility.yul\":5689:5694   */\n      dup2\n        /* \"#utility.yul\":5671:5695   */\n      tag_127\n      jump\t// in\n    tag_229:\n        /* \"#utility.yul\":5666:5669   */\n      dup3\n        /* \"#utility.yul\":5659:5696   */\n      mstore\n        /* \"#utility.yul\":5594:5702   */\n      pop\n      pop\n      jump\t// out\n        /* \"#utility.yul\":5746:6344   */\n    tag_129:\n        /* \"#utility.yul\":5855:5858   */\n      0x00\n        /* \"#utility.yul\":5891:5895   */\n      0x40\n        /* \"#utility.yul\":5886:5889   */\n      dup4\n        /* \"#utility.yul\":5882:5896   */\n      add\n        /* \"#utility.yul\":5978:5982   */\n      0x00\n        /* \"#utility.yul\":5971:5976   */\n      dup4\n        /* \"#utility.yul\":5967:5983   */\n      add\n        /* \"#utility.yul\":5961:5984   */\n      mload\n        /* \"#utility.yul\":6031:6034   */\n      dup5\n        /* \"#utility.yul\":6025:6029   */\n      dup3\n        /* \"#utility.yul\":6021:6035   */\n      sub\n        /* \"#utility.yul\":6014:6018   */\n      0x00\n        /* \"#utility.yul\":6009:6012   */\n      dup7\n        /* \"#utility.yul\":6005:6019   */\n      add\n        /* \"#utility.yul\":5998:6036   */\n      mstore\n        /* \"#utility.yul\":6057:6130   */\n      tag_231\n        /* \"#utility.yul\":6125:6129   */\n      dup3\n        /* \"#utility.yul\":6111:6123   */\n      dup3\n        /* \"#utility.yul\":6057:6130   */\n      tag_125\n      jump\t// in\n    tag_231:\n        /* \"#utility.yul\":6049:6130   */\n      swap2\n      pop\n        /* \"#utility.yul\":5906:6141   */\n      pop\n        /* \"#utility.yul\":6225:6229   */\n      0x20\n        /* \"#utility.yul\":6218:6223   */\n      dup4\n        /* \"#utility.yul\":6214:6230   */\n      add\n        /* \"#utility.yul\":6208:6231   */\n      mload\n        /* \"#utility.yul\":6244:6307   */\n      tag_232\n        /* \"#utility.yul\":6301:6305   */\n      0x20\n        /* \"#utility.yul\":6296:6299   */\n      dup7\n        /* \"#utility.yul\":6292:6306   */\n      add\n        /* \"#utility.yul\":6278:6290   */\n      dup3\n        /* \"#utility.yul\":6244:6307   */\n      tag_128\n      jump\t// in\n    tag_232:\n        /* \"#utility.yul\":6151:6317   */\n      pop\n        /* \"#utility.yul\":6334:6338   */\n      dup1\n        /* \"#utility.yul\":6327:6338   */\n      swap2\n      pop\n        /* \"#utility.yul\":5860:6344   */\n      pop\n        /* \"#utility.yul\":5746:6344   */\n      swap3\n      swap2\n      pop\n      pop\n      jump\t// out\n        /* \"#utility.yul\":6350:6703   */\n    tag_18:\n        /* \"#utility.yul\":6483:6487   */\n      0x00\n        /* \"#utility.yul\":6521:6523   */\n      0x20\n        /* \"#utility.yul\":6510:6519   */\n      dup3\n        /* \"#utility.yul\":6506:6524   */\n      add\n        /* \"#utility.yul\":6498:6524   */\n      swap1\n      pop\n        /* \"#utility.yul\":6570:6579   */\n      dup2\n        /* \"#utility.yul\":6564:6568   */\n      dup2\n        /* \"#utility.yul\":6560:6580   */\n      sub\n        /* \"#utility.yul\":6556:6557   */\n      0x00\n        /* \"#utility.yul\":6545:6554   */\n      dup4\n        /* \"#utility.yul\":6541:6558   */\n      add\n        /* \"#utility.yul\":6534:6581   */\n      mstore\n        /* \"#utility.yul\":6598:6696   */\n      tag_234\n        /* \"#utility.yul\":6691:6695   */\n      dup2\n        /* \"#utility.yul\":6682:6688   */\n      dup5\n        /* \"#utility.yul\":6598:6696   */\n      tag_129\n      jump\t// in\n    tag_234:\n        /* \"#utility.yul\":6590:6696   */\n      swap1\n      pop\n        /* \"#utility.yul\":6350:6703   */\n      swap3\n      swap2\n      pop\n      pop\n      jump\t// out\n        /* \"#utility.yul\":6709:7543   */\n    tag_21:\n        /* \"#utility.yul\":6797:6803   */\n      0x00\n        /* \"#utility.yul\":6805:6811   */\n      dup1\n        /* \"#utility.yul\":6854:6856   */\n      0x40\n        /* \"#utility.yul\":6842:6851   */\n      dup4\n        /* \"#utility.yul\":6833:6840   */\n      dup6\n        /* \"#utility.yul\":6829:6852   */\n      sub\n        /* \"#utility.yul\":6825:6857   */\n      slt\n        /* \"#utility.yul\":6822:6941   */\n      iszero\n      tag_236\n      jumpi\n        /* \"#utility.yul\":6860:6939   */\n      tag_237\n      tag_105\n      jump\t// in\n    tag_237:\n        /* \"#utility.yul\":6822:6941   */\n    tag_236:\n        /* \"#utility.yul\":7008:7009   */\n      0x00\n        /* \"#utility.yul\":6997:7006   */\n      dup4\n        /* \"#utility.yul\":6993:7010   */\n      add\n        /* \"#utility.yul\":6980:7011   */\n      calldataload\n        /* \"#utility.yul\":7038:7056   */\n      0xffffffffffffffff\n        /* \"#utility.yul\":7030:7036   */\n      dup2\n        /* \"#utility.yul\":7027:7057   */\n      gt\n        /* \"#utility.yul\":7024:7141   */\n      iszero\n      tag_238\n      jumpi\n        /* \"#utility.yul\":7060:7139   */\n      tag_239\n      tag_106\n      jump\t// in\n    tag_239:\n        /* \"#utility.yul\":7024:7141   */\n    tag_238:\n        /* \"#utility.yul\":7165:7228   */\n      tag_240\n        /* \"#utility.yul\":7220:7227   */\n      dup6\n        /* \"#utility.yul\":7211:7217   */\n      dup3\n        /* \"#utility.yul\":7200:7209   */\n      dup7\n        /* \"#utility.yul\":7196:7218   */\n      add\n        /* \"#utility.yul\":7165:7228   */\n      tag_118\n      jump\t// in\n    tag_240:\n        /* \"#utility.yul\":7155:7228   */\n      swap3\n      pop\n        /* \"#utility.yul\":6951:7238   */\n      pop\n        /* \"#utility.yul\":7305:7307   */\n      0x20\n        /* \"#utility.yul\":7294:7303   */\n      dup4\n        /* \"#utility.yul\":7290:7308   */\n      add\n        /* \"#utility.yul\":7277:7309   */\n      calldataload\n        /* \"#utility.yul\":7336:7354   */\n      0xffffffffffffffff\n        /* \"#utility.yul\":7328:7334   */\n      dup2\n        /* \"#utility.yul\":7325:7355   */\n      gt\n        /* \"#utility.yul\":7322:7439   */\n      iszero\n      tag_241\n      jumpi\n        /* \"#utility.yul\":7358:7437   */\n      tag_242\n      tag_106\n      jump\t// in\n    tag_242:\n        /* \"#utility.yul\":7322:7439   */\n    tag_241:\n        /* \"#utility.yul\":7463:7526   */\n      tag_243\n        /* \"#utility.yul\":7518:7525   */\n      dup6\n        /* \"#utility.yul\":7509:7515   */\n      dup3\n        /* \"#utility.yul\":7498:7507   */\n      dup7\n        /* \"#utility.yul\":7494:7516   */\n      add\n        /* \"#utility.yul\":7463:7526   */\n      tag_118\n      jump\t// in\n    tag_243:\n        /* \"#utility.yul\":7453:7526   */\n      swap2\n      pop\n        /* \"#utility.yul\":7248:7536   */\n      pop\n        /* \"#utility.yul\":6709:7543   */\n      swap3\n      pop\n      swap3\n      swap1\n      pop\n      jump\t// out\n        /* \"#utility.yul\":7549:7878   */\n    tag_25:\n        /* \"#utility.yul\":7608:7614   */\n      0x00\n        /* \"#utility.yul\":7657:7659   */\n      0x20\n        /* \"#utility.yul\":7645:7654   */\n      dup3\n        /* \"#utility.yul\":7636:7643   */\n      dup5\n        /* \"#utility.yul\":7632:7655   */\n      sub\n        /* \"#utility.yul\":7628:7660   */\n      slt\n        /* \"#utility.yul\":7625:7744   */\n      iszero\n      tag_245\n      jumpi\n        /* \"#utility.yul\":7663:7742   */\n      tag_246\n      tag_105\n      jump\t// in\n    tag_246:\n        /* \"#utility.yul\":7625:7744   */\n    tag_245:\n        /* \"#utility.yul\":7783:7784   */\n      0x00\n        /* \"#utility.yul\":7808:7861   */\n      tag_247\n        /* \"#utility.yul\":7853:7860   */\n      dup5\n        /* \"#utility.yul\":7844:7850   */\n      dup3\n        /* \"#utility.yul\":7833:7842   */\n      dup6\n        /* \"#utility.yul\":7829:7851   */\n      add\n        /* \"#utility.yul\":7808:7861   */\n      tag_109\n      jump\t// in\n    tag_247:\n        /* \"#utility.yul\":7798:7861   */\n      swap2\n      pop\n        /* \"#utility.yul\":7754:7871   */\n      pop\n        /* \"#utility.yul\":7549:7878   */\n      swap3\n      swap2\n      pop\n      pop\n      jump\t// out\n        /* \"#utility.yul\":7884:7992   */\n    tag_130:\n        /* \"#utility.yul\":7961:7985   */\n      tag_249\n        /* \"#utility.yul\":7979:7984   */\n      dup2\n        /* \"#utility.yul\":7961:7985   */\n      tag_107\n      jump\t// in\n    tag_249:\n        /* \"#utility.yul\":7956:7959   */\n      dup3\n        /* \"#utility.yul\":7949:7986   */\n      mstore\n        /* \"#utility.yul\":7884:7992   */\n      pop\n      pop\n      jump\t// out\n        /* \"#utility.yul\":8038:9421   */\n    tag_131:\n        /* \"#utility.yul\":8149:8152   */\n      0x00\n        /* \"#utility.yul\":8185:8189   */\n      0xc0\n        /* \"#utility.yul\":8180:8183   */\n      dup4\n        /* \"#utility.yul\":8176:8190   */\n      add\n        /* \"#utility.yul\":8274:8278   */\n      0x00\n        /* \"#utility.yul\":8267:8272   */\n      dup4\n        /* \"#utility.yul\":8263:8279   */\n      add\n        /* \"#utility.yul\":8257:8280   */\n      mload\n        /* \"#utility.yul\":8293:8356   */\n      tag_251\n        /* \"#utility.yul\":8350:8354   */\n      0x00\n        /* \"#utility.yul\":8345:8348   */\n      dup7\n        /* \"#utility.yul\":8341:8355   */\n      add\n        /* \"#utility.yul\":8327:8339   */\n      dup3\n        /* \"#utility.yul\":8293:8356   */\n      tag_130\n      jump\t// in\n    tag_251:\n        /* \"#utility.yul\":8200:8366   */\n      pop\n        /* \"#utility.yul\":8451:8455   */\n      0x20\n        /* \"#utility.yul\":8444:8449   */\n      dup4\n        /* \"#utility.yul\":8440:8456   */\n      add\n        /* \"#utility.yul\":8434:8457   */\n      mload\n        /* \"#utility.yul\":8504:8507   */\n      dup5\n        /* \"#utility.yul\":8498:8502   */\n      dup3\n        /* \"#utility.yul\":8494:8508   */\n      sub\n        /* \"#utility.yul\":8487:8491   */\n      0x20\n        /* \"#utility.yul\":8482:8485   */\n      dup7\n        /* \"#utility.yul\":8478:8492   */\n      add\n        /* \"#utility.yul\":8471:8509   */\n      mstore\n        /* \"#utility.yul\":8530:8603   */\n      tag_252\n        /* \"#utility.yul\":8598:8602   */\n      dup3\n        /* \"#utility.yul\":8584:8596   */\n      dup3\n        /* \"#utility.yul\":8530:8603   */\n      tag_125\n      jump\t// in\n    tag_252:\n        /* \"#utility.yul\":8522:8603   */\n      swap2\n      pop\n        /* \"#utility.yul\":8376:8614   */\n      pop\n        /* \"#utility.yul\":8699:8703   */\n      0x40\n        /* \"#utility.yul\":8692:8697   */\n      dup4\n        /* \"#utility.yul\":8688:8704   */\n      add\n        /* \"#utility.yul\":8682:8705   */\n      mload\n        /* \"#utility.yul\":8752:8755   */\n      dup5\n        /* \"#utility.yul\":8746:8750   */\n      dup3\n        /* \"#utility.yul\":8742:8756   */\n      sub\n        /* \"#utility.yul\":8735:8739   */\n      0x40\n        /* \"#utility.yul\":8730:8733   */\n      dup7\n        /* \"#utility.yul\":8726:8740   */\n      add\n        /* \"#utility.yul\":8719:8757   */\n      mstore\n        /* \"#utility.yul\":8778:8851   */\n      tag_253\n        /* \"#utility.yul\":8846:8850   */\n      dup3\n        /* \"#utility.yul\":8832:8844   */\n      dup3\n        /* \"#utility.yul\":8778:8851   */\n      tag_125\n      jump\t// in\n    tag_253:\n        /* \"#utility.yul\":8770:8851   */\n      swap2\n      pop\n        /* \"#utility.yul\":8624:8862   */\n      pop\n        /* \"#utility.yul\":8948:8952   */\n      0x60\n        /* \"#utility.yul\":8941:8946   */\n      dup4\n        /* \"#utility.yul\":8937:8953   */\n      add\n        /* \"#utility.yul\":8931:8954   */\n      mload\n        /* \"#utility.yul\":8967:9030   */\n      tag_254\n        /* \"#utility.yul\":9024:9028   */\n      0x60\n        /* \"#utility.yul\":9019:9022   */\n      dup7\n        /* \"#utility.yul\":9015:9029   */\n      add\n        /* \"#utility.yul\":9001:9013   */\n      dup3\n        /* \"#utility.yul\":8967:9030   */\n      tag_128\n      jump\t// in\n    tag_254:\n        /* \"#utility.yul\":8872:9040   */\n      pop\n        /* \"#utility.yul\":9124:9128   */\n      0x80\n        /* \"#utility.yul\":9117:9122   */\n      dup4\n        /* \"#utility.yul\":9113:9129   */\n      add\n        /* \"#utility.yul\":9107:9130   */\n      mload\n        /* \"#utility.yul\":9143:9206   */\n      tag_255\n        /* \"#utility.yul\":9200:9204   */\n      0x80\n        /* \"#utility.yul\":9195:9198   */\n      dup7\n        /* \"#utility.yul\":9191:9205   */\n      add\n        /* \"#utility.yul\":9177:9189   */\n      dup3\n        /* \"#utility.yul\":9143:9206   */\n      tag_130\n      jump\t// in\n    tag_255:\n        /* \"#utility.yul\":9050:9216   */\n      pop\n        /* \"#utility.yul\":9302:9306   */\n      0xa0\n        /* \"#utility.yul\":9295:9300   */\n      dup4\n        /* \"#utility.yul\":9291:9307   */\n      add\n        /* \"#utility.yul\":9285:9308   */\n      mload\n        /* \"#utility.yul\":9321:9384   */\n      tag_256\n        /* \"#utility.yul\":9378:9382   */\n      0xa0\n        /* \"#utility.yul\":9373:9376   */\n      dup7\n        /* \"#utility.yul\":9369:9383   */\n      add\n        /* \"#utility.yul\":9355:9367   */\n      dup3\n        /* \"#utility.yul\":9321:9384   */\n      tag_130\n      jump\t// in\n    tag_256:\n        /* \"#utility.yul\":9226:9394   */\n      pop\n        /* \"#utility.yul\":9411:9415   */\n      dup1\n        /* \"#utility.yul\":9404:9415   */\n      swap2\n      pop\n        /* \"#utility.yul\":8154:9421   */\n      pop\n        /* \"#utility.yul\":8038:9421   */\n      swap3\n      swap2\n      pop\n      pop\n      jump\t// out\n        /* \"#utility.yul\":9427:9784   */\n    tag_28:\n        /* \"#utility.yul\":9562:9566   */\n      0x00\n        /* \"#utility.yul\":9600:9602   */\n      0x20\n        /* \"#utility.yul\":9589:9598   */\n      dup3\n        /* \"#utility.yul\":9585:9603   */\n      add\n        /* \"#utility.yul\":9577:9603   */\n      swap1\n      pop\n        /* \"#utility.yul\":9649:9658   */\n      dup2\n        /* \"#utility.yul\":9643:9647   */\n      dup2\n        /* \"#utility.yul\":9639:9659   */\n      sub\n        /* \"#utility.yul\":9635:9636   */\n      0x00\n        /* \"#utility.yul\":9624:9633   */\n      dup4\n        /* \"#utility.yul\":9620:9637   */\n      add\n        /* \"#utility.yul\":9613:9660   */\n      mstore\n        /* \"#utility.yul\":9677:9777   */\n      tag_258\n        /* \"#utility.yul\":9772:9776   */\n      dup2\n        /* \"#utility.yul\":9763:9769   */\n      dup5\n        /* \"#utility.yul\":9677:9777   */\n      tag_131\n      jump\t// in\n    tag_258:\n        /* \"#utility.yul\":9669:9777   */\n      swap1\n      pop\n        /* \"#utility.yul\":9427:9784   */\n      swap3\n      swap2\n      pop\n      pop\n      jump\t// out\n        /* \"#utility.yul\":9790:9925   */\n    tag_132:\n        /* \"#utility.yul\":9878:9884   */\n      0x00\n        /* \"#utility.yul\":9912:9917   */\n      dup2\n        /* \"#utility.yul\":9906:9918   */\n      mload\n        /* \"#utility.yul\":9896:9918   */\n      swap1\n      pop\n        /* \"#utility.yul\":9790:9925   */\n      swap2\n      swap1\n      pop\n      jump\t// out\n        /* \"#utility.yul\":9931:10136   */\n    tag_133:\n        /* \"#utility.yul\":10051:10062   */\n      0x00\n        /* \"#utility.yul\":10085:10091   */\n      dup3\n        /* \"#utility.yul\":10080:10083   */\n      dup3\n        /* \"#utility.yul\":10073:10092   */\n      mstore\n        /* \"#utility.yul\":10125:10129   */\n      0x20\n        /* \"#utility.yul\":10120:10123   */\n      dup3\n        /* \"#utility.yul\":10116:10130   */\n      add\n        /* \"#utility.yul\":10101:10130   */\n      swap1\n      pop\n        /* \"#utility.yul\":9931:10136   */\n      swap3\n      swap2\n      pop\n      pop\n      jump\t// out\n        /* \"#utility.yul\":10142:10295   */\n    tag_134:\n        /* \"#utility.yul\":10230:10234   */\n      0x00\n        /* \"#utility.yul\":10253:10256   */\n      dup2\n        /* \"#utility.yul\":10245:10256   */\n      swap1\n      pop\n        /* \"#utility.yul\":10283:10287   */\n      0x20\n        /* \"#utility.yul\":10278:10281   */\n      dup3\n        /* \"#utility.yul\":10274:10288   */\n      add\n        /* \"#utility.yul\":10266:10288   */\n      swap1\n      pop\n        /* \"#utility.yul\":10142:10295   */\n      swap2\n      swap1\n      pop\n      jump\t// out\n        /* \"#utility.yul\":10341:11714   */\n    tag_135:\n        /* \"#utility.yul\":10442:10445   */\n      0x00\n        /* \"#utility.yul\":10478:10482   */\n      0xc0\n        /* \"#utility.yul\":10473:10476   */\n      dup4\n        /* \"#utility.yul\":10469:10483   */\n      add\n        /* \"#utility.yul\":10567:10571   */\n      0x00\n        /* \"#utility.yul\":10560:10565   */\n      dup4\n        /* \"#utility.yul\":10556:10572   */\n      add\n        /* \"#utility.yul\":10550:10573   */\n      mload\n        /* \"#utility.yul\":10586:10649   */\n      tag_263\n        /* \"#utility.yul\":10643:10647   */\n      0x00\n        /* \"#utility.yul\":10638:10641   */\n      dup7\n        /* \"#utility.yul\":10634:10648   */\n      add\n        /* \"#utility.yul\":10620:10632   */\n      dup3\n        /* \"#utility.yul\":10586:10649   */\n      tag_130\n      jump\t// in\n    tag_263:\n        /* \"#utility.yul\":10493:10659   */\n      pop\n        /* \"#utility.yul\":10744:10748   */\n      0x20\n        /* \"#utility.yul\":10737:10742   */\n      dup4\n        /* \"#utility.yul\":10733:10749   */\n      add\n        /* \"#utility.yul\":10727:10750   */\n      mload\n        /* \"#utility.yul\":10797:10800   */\n      dup5\n        /* \"#utility.yul\":10791:10795   */\n      dup3\n        /* \"#utility.yul\":10787:10801   */\n      sub\n        /* \"#utility.yul\":10780:10784   */\n      0x20\n        /* \"#utility.yul\":10775:10778   */\n      dup7\n        /* \"#utility.yul\":10771:10785   */\n      add\n        /* \"#utility.yul\":10764:10802   */\n      mstore\n        /* \"#utility.yul\":10823:10896   */\n      tag_264\n        /* \"#utility.yul\":10891:10895   */\n      dup3\n        /* \"#utility.yul\":10877:10889   */\n      dup3\n        /* \"#utility.yul\":10823:10896   */\n      tag_125\n      jump\t// in\n    tag_264:\n        /* \"#utility.yul\":10815:10896   */\n      swap2\n      pop\n        /* \"#utility.yul\":10669:10907   */\n      pop\n        /* \"#utility.yul\":10992:10996   */\n      0x40\n        /* \"#utility.yul\":10985:10990   */\n      dup4\n        /* \"#utility.yul\":10981:10997   */\n      add\n        /* \"#utility.yul\":10975:10998   */\n      mload\n        /* \"#utility.yul\":11045:11048   */\n      dup5\n        /* \"#utility.yul\":11039:11043   */\n      dup3\n        /* \"#utility.yul\":11035:11049   */\n      sub\n        /* \"#utility.yul\":11028:11032   */\n      0x40\n        /* \"#utility.yul\":11023:11026   */\n      dup7\n        /* \"#utility.yul\":11019:11033   */\n      add\n        /* \"#utility.yul\":11012:11050   */\n      mstore\n        /* \"#utility.yul\":11071:11144   */\n      tag_265\n        /* \"#utility.yul\":11139:11143   */\n      dup3\n        /* \"#utility.yul\":11125:11137   */\n      dup3\n        /* \"#utility.yul\":11071:11144   */\n      tag_125\n      jump\t// in\n    tag_265:\n        /* \"#utility.yul\":11063:11144   */\n      swap2\n      pop\n        /* \"#utility.yul\":10917:11155   */\n      pop\n        /* \"#utility.yul\":11241:11245   */\n      0x60\n        /* \"#utility.yul\":11234:11239   */\n      dup4\n        /* \"#utility.yul\":11230:11246   */\n      add\n        /* \"#utility.yul\":11224:11247   */\n      mload\n        /* \"#utility.yul\":11260:11323   */\n      tag_266\n        /* \"#utility.yul\":11317:11321   */\n      0x60\n        /* \"#utility.yul\":11312:11315   */\n      dup7\n        /* \"#utility.yul\":11308:11322   */\n      add\n        /* \"#utility.yul\":11294:11306   */\n      dup3\n        /* \"#utility.yul\":11260:11323   */\n      tag_128\n      jump\t// in\n    tag_266:\n        /* \"#utility.yul\":11165:11333   */\n      pop\n        /* \"#utility.yul\":11417:11421   */\n      0x80\n        /* \"#utility.yul\":11410:11415   */\n      dup4\n        /* \"#utility.yul\":11406:11422   */\n      add\n        /* \"#utility.yul\":11400:11423   */\n      mload\n        /* \"#utility.yul\":11436:11499   */\n      tag_267\n        /* \"#utility.yul\":11493:11497   */\n      0x80\n        /* \"#utility.yul\":11488:11491   */\n      dup7\n        /* \"#utility.yul\":11484:11498   */\n      add\n        /* \"#utility.yul\":11470:11482   */\n      dup3\n        /* \"#utility.yul\":11436:11499   */\n      tag_130\n      jump\t// in\n    tag_267:\n        /* \"#utility.yul\":11343:11509   */\n      pop\n        /* \"#utility.yul\":11595:11599   */\n      0xa0\n        /* \"#utility.yul\":11588:11593   */\n      dup4\n        /* \"#utility.yul\":11584:11600   */\n      add\n        /* \"#utility.yul\":11578:11601   */\n      mload\n        /* \"#utility.yul\":11614:11677   */\n      tag_268\n        /* \"#utility.yul\":11671:11675   */\n      0xa0\n        /* \"#utility.yul\":11666:11669   */\n      dup7\n        /* \"#utility.yul\":11662:11676   */\n      add\n        /* \"#utility.yul\":11648:11660   */\n      dup3\n        /* \"#utility.yul\":11614:11677   */\n      tag_130\n      jump\t// in\n    tag_268:\n        /* \"#utility.yul\":11519:11687   */\n      pop\n        /* \"#utility.yul\":11704:11708   */\n      dup1\n        /* \"#utility.yul\":11697:11708   */\n      swap2\n      pop\n        /* \"#utility.yul\":10447:11714   */\n      pop\n        /* \"#utility.yul\":10341:11714   */\n      swap3\n      swap2\n      pop\n      pop\n      jump\t// out\n        /* \"#utility.yul\":11720:11960   */\n    tag_136:\n        /* \"#utility.yul\":11831:11841   */\n      0x00\n        /* \"#utility.yul\":11866:11954   */\n      tag_270\n        /* \"#utility.yul\":11950:11953   */\n      dup4\n        /* \"#utility.yul\":11942:11948   */\n      dup4\n        /* \"#utility.yul\":11866:11954   */\n      tag_135\n      jump\t// in\n    tag_270:\n        /* \"#utility.yul\":11852:11954   */\n      swap1\n      pop\n        /* \"#utility.yul\":11720:11960   */\n      swap3\n      swap2\n      pop\n      pop\n      jump\t// out\n        /* \"#utility.yul\":11966:12100   */\n    tag_137:\n        /* \"#utility.yul\":12057:12061   */\n      0x00\n        /* \"#utility.yul\":12089:12093   */\n      0x20\n        /* \"#utility.yul\":12084:12087   */\n      dup3\n        /* \"#utility.yul\":12080:12094   */\n      add\n        /* \"#utility.yul\":12072:12094   */\n      swap1\n      pop\n        /* \"#utility.yul\":11966:12100   */\n      swap2\n      swap1\n      pop\n      jump\t// out\n        /* \"#utility.yul\":12150:13229   */\n    tag_138:\n        /* \"#utility.yul\":12311:12314   */\n      0x00\n        /* \"#utility.yul\":12340:12415   */\n      tag_273\n        /* \"#utility.yul\":12409:12414   */\n      dup3\n        /* \"#utility.yul\":12340:12415   */\n      tag_132\n      jump\t// in\n    tag_273:\n        /* \"#utility.yul\":12431:12538   */\n      tag_274\n        /* \"#utility.yul\":12531:12537   */\n      dup2\n        /* \"#utility.yul\":12526:12529   */\n      dup6\n        /* \"#utility.yul\":12431:12538   */\n      tag_133\n      jump\t// in\n    tag_274:\n        /* \"#utility.yul\":12424:12538   */\n      swap4\n      pop\n        /* \"#utility.yul\":12564:12567   */\n      dup4\n        /* \"#utility.yul\":12609:12613   */\n      0x20\n        /* \"#utility.yul\":12601:12607   */\n      dup3\n        /* \"#utility.yul\":12597:12614   */\n      mul\n        /* \"#utility.yul\":12592:12595   */\n      dup6\n        /* \"#utility.yul\":12588:12615   */\n      add\n        /* \"#utility.yul\":12639:12716   */\n      tag_275\n        /* \"#utility.yul\":12710:12715   */\n      dup6\n        /* \"#utility.yul\":12639:12716   */\n      tag_134\n      jump\t// in\n    tag_275:\n        /* \"#utility.yul\":12739:12746   */\n      dup1\n        /* \"#utility.yul\":12770:12771   */\n      0x00\n        /* \"#utility.yul\":12755:13184   */\n    tag_276:\n        /* \"#utility.yul\":12780:12786   */\n      dup6\n        /* \"#utility.yul\":12777:12778   */\n      dup2\n        /* \"#utility.yul\":12774:12787   */\n      lt\n        /* \"#utility.yul\":12755:13184   */\n      iszero\n      tag_278\n      jumpi\n        /* \"#utility.yul\":12851:12860   */\n      dup5\n        /* \"#utility.yul\":12845:12849   */\n      dup5\n        /* \"#utility.yul\":12841:12861   */\n      sub\n        /* \"#utility.yul\":12836:12839   */\n      dup10\n        /* \"#utility.yul\":12829:12862   */\n      mstore\n        /* \"#utility.yul\":12902:12908   */\n      dup2\n        /* \"#utility.yul\":12896:12909   */\n      mload\n        /* \"#utility.yul\":12930:13036   */\n      tag_279\n        /* \"#utility.yul\":13031:13035   */\n      dup6\n        /* \"#utility.yul\":13016:13029   */\n      dup3\n        /* \"#utility.yul\":12930:13036   */\n      tag_136\n      jump\t// in\n    tag_279:\n        /* \"#utility.yul\":12922:13036   */\n      swap5\n      pop\n        /* \"#utility.yul\":13059:13140   */\n      tag_280\n        /* \"#utility.yul\":13133:13139   */\n      dup4\n        /* \"#utility.yul\":13059:13140   */\n      tag_137\n      jump\t// in\n    tag_280:\n        /* \"#utility.yul\":13049:13140   */\n      swap3\n      pop\n        /* \"#utility.yul\":13169:13173   */\n      0x20\n        /* \"#utility.yul\":13164:13167   */\n      dup11\n        /* \"#utility.yul\":13160:13174   */\n      add\n        /* \"#utility.yul\":13153:13174   */\n      swap10\n      pop\n        /* \"#utility.yul\":12815:13184   */\n      pop\n        /* \"#utility.yul\":12802:12803   */\n      0x01\n        /* \"#utility.yul\":12799:12800   */\n      dup2\n        /* \"#utility.yul\":12795:12804   */\n      add\n        /* \"#utility.yul\":12790:12804   */\n      swap1\n      pop\n        /* \"#utility.yul\":12755:13184   */\n      jump(tag_276)\n    tag_278:\n        /* \"#utility.yul\":12759:12773   */\n      pop\n        /* \"#utility.yul\":13200:13204   */\n      dup3\n        /* \"#utility.yul\":13193:13204   */\n      swap8\n      pop\n        /* \"#utility.yul\":13220:13223   */\n      dup8\n        /* \"#utility.yul\":13213:13223   */\n      swap6\n      pop\n        /* \"#utility.yul\":12316:13229   */\n      pop\n      pop\n      pop\n      pop\n      pop\n        /* \"#utility.yul\":12150:13229   */\n      swap3\n      swap2\n      pop\n      pop\n      jump\t// out\n        /* \"#utility.yul\":13235:13692   */\n    tag_35:\n        /* \"#utility.yul\":13420:13424   */\n      0x00\n        /* \"#utility.yul\":13458:13460   */\n      0x20\n        /* \"#utility.yul\":13447:13456   */\n      dup3\n        /* \"#utility.yul\":13443:13461   */\n      add\n        /* \"#utility.yul\":13435:13461   */\n      swap1\n      pop\n        /* \"#utility.yul\":13507:13516   */\n      dup2\n        /* \"#utility.yul\":13501:13505   */\n      dup2\n        /* \"#utility.yul\":13497:13517   */\n      sub\n        /* \"#utility.yul\":13493:13494   */\n      0x00\n        /* \"#utility.yul\":13482:13491   */\n      dup4\n        /* \"#utility.yul\":13478:13495   */\n      add\n        /* \"#utility.yul\":13471:13518   */\n      mstore\n        /* \"#utility.yul\":13535:13685   */\n      tag_282\n        /* \"#utility.yul\":13680:13684   */\n      dup2\n        /* \"#utility.yul\":13671:13677   */\n      dup5\n        /* \"#utility.yul\":13535:13685   */\n      tag_138\n      jump\t// in\n    tag_282:\n        /* \"#utility.yul\":13527:13685   */\n      swap1\n      pop\n        /* \"#utility.yul\":13235:13692   */\n      swap3\n      swap2\n      pop\n      pop\n      jump\t// out\n        /* \"#utility.yul\":13698:13846   */\n    tag_139:\n        /* \"#utility.yul\":13800:13811   */\n      0x00\n        /* \"#utility.yul\":13837:13840   */\n      dup2\n        /* \"#utility.yul\":13822:13840   */\n      swap1\n      pop\n        /* \"#utility.yul\":13698:13846   */\n      swap3\n      swap2\n      pop\n      pop\n      jump\t// out\n        /* \"#utility.yul\":13852:14242   */\n    tag_140:\n        /* \"#utility.yul\":13958:13961   */\n      0x00\n        /* \"#utility.yul\":13986:14025   */\n      tag_285\n        /* \"#utility.yul\":14019:14024   */\n      dup3\n        /* \"#utility.yul\":13986:14025   */\n      tag_122\n      jump\t// in\n    tag_285:\n        /* \"#utility.yul\":14041:14130   */\n      tag_286\n        /* \"#utility.yul\":14123:14129   */\n      dup2\n        /* \"#utility.yul\":14118:14121   */\n      dup6\n        /* \"#utility.yul\":14041:14130   */\n      tag_139\n      jump\t// in\n    tag_286:\n        /* \"#utility.yul\":14034:14130   */\n      swap4\n      pop\n        /* \"#utility.yul\":14139:14204   */\n      tag_287\n        /* \"#utility.yul\":14197:14203   */\n      dup2\n        /* \"#utility.yul\":14192:14195   */\n      dup6\n        /* \"#utility.yul\":14185:14189   */\n      0x20\n        /* \"#utility.yul\":14178:14183   */\n      dup7\n        /* \"#utility.yul\":14174:14190   */\n      add\n        /* \"#utility.yul\":14139:14204   */\n      tag_124\n      jump\t// in\n    tag_287:\n        /* \"#utility.yul\":14229:14235   */\n      dup1\n        /* \"#utility.yul\":14224:14227   */\n      dup5\n        /* \"#utility.yul\":14220:14236   */\n      add\n        /* \"#utility.yul\":14213:14236   */\n      swap2\n      pop\n        /* \"#utility.yul\":13962:14242   */\n      pop\n        /* \"#utility.yul\":13852:14242   */\n      swap3\n      swap2\n      pop\n      pop\n      jump\t// out\n        /* \"#utility.yul\":14248:14523   */\n    tag_38:\n        /* \"#utility.yul\":14380:14383   */\n      0x00\n        /* \"#utility.yul\":14402:14497   */\n      tag_289\n        /* \"#utility.yul\":14493:14496   */\n      dup3\n        /* \"#utility.yul\":14484:14490   */\n      dup5\n        /* \"#utility.yul\":14402:14497   */\n      tag_140\n      jump\t// in\n    tag_289:\n        /* \"#utility.yul\":14395:14497   */\n      swap2\n      pop\n        /* \"#utility.yul\":14514:14517   */\n      dup2\n        /* \"#utility.yul\":14507:14517   */\n      swap1\n      pop\n        /* \"#utility.yul\":14248:14523   */\n      swap3\n      swap2\n      pop\n      pop\n      jump\t// out\n        /* \"#utility.yul\":14529:14698   */\n    tag_141:\n        /* \"#utility.yul\":14613:14624   */\n      0x00\n        /* \"#utility.yul\":14647:14653   */\n      dup3\n        /* \"#utility.yul\":14642:14645   */\n      dup3\n        /* \"#utility.yul\":14635:14654   */\n      mstore\n        /* \"#utility.yul\":14687:14691   */\n      0x20\n        /* \"#utility.yul\":14682:14685   */\n      dup3\n        /* \"#utility.yul\":14678:14692   */\n      add\n        /* \"#utility.yul\":14663:14692   */\n      swap1\n      pop\n        /* \"#utility.yul\":14529:14698   */\n      swap3\n      swap2\n      pop\n      pop\n      jump\t// out\n        /* \"#utility.yul\":14704:14867   */\n    tag_142:\n        /* \"#utility.yul\":14844:14859   */\n      0x616c726561647920766f74656400000000000000000000000000000000000000\n        /* \"#utility.yul\":14840:14841   */\n      0x00\n        /* \"#utility.yul\":14832:14838   */\n      dup3\n        /* \"#utility.yul\":14828:14842   */\n      add\n        /* \"#utility.yul\":14821:14860   */\n      mstore\n        /* \"#utility.yul\":14704:14867   */\n      pop\n      jump\t// out\n        /* \"#utility.yul\":14873:15239   */\n    tag_143:\n        /* \"#utility.yul\":15015:15018   */\n      0x00\n        /* \"#utility.yul\":15036:15103   */\n      tag_293\n        /* \"#utility.yul\":15100:15102   */\n      0x0d\n        /* \"#utility.yul\":15095:15098   */\n      dup4\n        /* \"#utility.yul\":15036:15103   */\n      tag_141\n      jump\t// in\n    tag_293:\n        /* \"#utility.yul\":15029:15103   */\n      swap2\n      pop\n        /* \"#utility.yul\":15112:15205   */\n      tag_294\n        /* \"#utility.yul\":15201:15204   */\n      dup3\n        /* \"#utility.yul\":15112:15205   */\n      tag_142\n      jump\t// in\n    tag_294:\n        /* \"#utility.yul\":15230:15232   */\n      0x20\n        /* \"#utility.yul\":15225:15228   */\n      dup3\n        /* \"#utility.yul\":15221:15233   */\n      add\n        /* \"#utility.yul\":15214:15233   */\n      swap1\n      pop\n        /* \"#utility.yul\":14873:15239   */\n      swap2\n      swap1\n      pop\n      jump\t// out\n        /* \"#utility.yul\":15245:15664   */\n    tag_41:\n        /* \"#utility.yul\":15411:15415   */\n      0x00\n        /* \"#utility.yul\":15449:15451   */\n      0x20\n        /* \"#utility.yul\":15438:15447   */\n      dup3\n        /* \"#utility.yul\":15434:15452   */\n      add\n        /* \"#utility.yul\":15426:15452   */\n      swap1\n      pop\n        /* \"#utility.yul\":15498:15507   */\n      dup2\n        /* \"#utility.yul\":15492:15496   */\n      dup2\n        /* \"#utility.yul\":15488:15508   */\n      sub\n        /* \"#utility.yul\":15484:15485   */\n      0x00\n        /* \"#utility.yul\":15473:15482   */\n      dup4\n        /* \"#utility.yul\":15469:15486   */\n      add\n        /* \"#utility.yul\":15462:15509   */\n      mstore\n        /* \"#utility.yul\":15526:15657   */\n      tag_296\n        /* \"#utility.yul\":15652:15656   */\n      dup2\n        /* \"#utility.yul\":15526:15657   */\n      tag_143\n      jump\t// in\n    tag_296:\n        /* \"#utility.yul\":15518:15657   */\n      swap1\n      pop\n        /* \"#utility.yul\":15245:15664   */\n      swap2\n      swap1\n      pop\n      jump\t// out\n        /* \"#utility.yul\":15670:15850   */\n    tag_144:\n        /* \"#utility.yul\":15718:15795   */\n      0x4e487b7100000000000000000000000000000000000000000000000000000000\n        /* \"#utility.yul\":15715:15716   */\n      0x00\n        /* \"#utility.yul\":15708:15796   */\n      mstore\n        /* \"#utility.yul\":15815:15819   */\n      0x11\n        /* \"#utility.yul\":15812:15813   */\n      0x04\n        /* \"#utility.yul\":15805:15820   */\n      mstore\n        /* \"#utility.yul\":15839:15843   */\n      0x24\n        /* \"#utility.yul\":15836:15837   */\n      0x00\n        /* \"#utility.yul\":15829:15844   */\n      revert\n        /* \"#utility.yul\":15856:16047   */\n    tag_44:\n        /* \"#utility.yul\":15896:15899   */\n      0x00\n        /* \"#utility.yul\":15915:15935   */\n      tag_299\n        /* \"#utility.yul\":15933:15934   */\n      dup3\n        /* \"#utility.yul\":15915:15935   */\n      tag_107\n      jump\t// in\n    tag_299:\n        /* \"#utility.yul\":15910:15935   */\n      swap2\n      pop\n        /* \"#utility.yul\":15949:15969   */\n      tag_300\n        /* \"#utility.yul\":15967:15968   */\n      dup4\n        /* \"#utility.yul\":15949:15969   */\n      tag_107\n      jump\t// in\n    tag_300:\n        /* \"#utility.yul\":15944:15969   */\n      swap3\n      pop\n        /* \"#utility.yul\":15992:15993   */\n      dup3\n        /* \"#utility.yul\":15989:15990   */\n      dup3\n        /* \"#utility.yul\":15985:15994   */\n      add\n        /* \"#utility.yul\":15978:15994   */\n      swap1\n      pop\n        /* \"#utility.yul\":16013:16016   */\n      dup1\n        /* \"#utility.yul\":16010:16011   */\n      dup3\n        /* \"#utility.yul\":16007:16017   */\n      gt\n        /* \"#utility.yul\":16004:16040   */\n      iszero\n      tag_301\n      jumpi\n        /* \"#utility.yul\":16020:16038   */\n      tag_302\n      tag_144\n      jump\t// in\n    tag_302:\n        /* \"#utility.yul\":16004:16040   */\n    tag_301:\n        /* \"#utility.yul\":15856:16047   */\n      swap3\n      swap2\n      pop\n      pop\n      jump\t// out\n        /* \"#utility.yul\":16053:16233   */\n    tag_145:\n        /* \"#utility.yul\":16101:16178   */\n      0x4e487b7100000000000000000000000000000000000000000000000000000000\n        /* \"#utility.yul\":16098:16099   */\n      0x00\n        /* \"#utility.yul\":16091:16179   */\n      mstore\n        /* \"#utility.yul\":16198:16202   */\n      0x22\n        /* \"#utility.yul\":16195:16196   */\n      0x04\n        /* \"#utility.yul\":16188:16203   */\n      mstore\n        /* \"#utility.yul\":16222:16226   */\n      0x24\n        /* \"#utility.yul\":16219:16220   */\n      0x00\n        /* \"#utility.yul\":16212:16227   */\n      revert\n        /* \"#utility.yul\":16239:16559   */\n    tag_54:\n        /* \"#utility.yul\":16283:16289   */\n      0x00\n        /* \"#utility.yul\":16320:16321   */\n      0x02\n        /* \"#utility.yul\":16314:16318   */\n      dup3\n        /* \"#utility.yul\":16310:16322   */\n      div\n        /* \"#utility.yul\":16300:16322   */\n      swap1\n      pop\n        /* \"#utility.yul\":16367:16368   */\n      0x01\n        /* \"#utility.yul\":16361:16365   */\n      dup3\n        /* \"#utility.yul\":16357:16369   */\n      and\n        /* \"#utility.yul\":16388:16406   */\n      dup1\n        /* \"#utility.yul\":16378:16459   */\n      tag_305\n      jumpi\n        /* \"#utility.yul\":16444:16448   */\n      0x7f\n        /* \"#utility.yul\":16436:16442   */\n      dup3\n        /* \"#utility.yul\":16432:16449   */\n      and\n        /* \"#utility.yul\":16422:16449   */\n      swap2\n      pop\n        /* \"#utility.yul\":16378:16459   */\n    tag_305:\n        /* \"#utility.yul\":16506:16508   */\n      0x20\n        /* \"#utility.yul\":16498:16504   */\n      dup3\n        /* \"#utility.yul\":16495:16509   */\n      lt\n        /* \"#utility.yul\":16475:16493   */\n      dup2\n        /* \"#utility.yul\":16472:16510   */\n      sub\n        /* \"#utility.yul\":16469:16553   */\n      tag_306\n      jumpi\n        /* \"#utility.yul\":16525:16543   */\n      tag_307\n      tag_145\n      jump\t// in\n    tag_307:\n        /* \"#utility.yul\":16469:16553   */\n    tag_306:\n        /* \"#utility.yul\":16290:16559   */\n      pop\n        /* \"#utility.yul\":16239:16559   */\n      swap2\n      swap1\n      pop\n      jump\t// out\n        /* \"#utility.yul\":16565:16706   */\n    tag_146:\n        /* \"#utility.yul\":16614:16618   */\n      0x00\n        /* \"#utility.yul\":16637:16640   */\n      dup2\n        /* \"#utility.yul\":16629:16640   */\n      swap1\n      pop\n        /* \"#utility.yul\":16660:16663   */\n      dup2\n        /* \"#utility.yul\":16657:16658   */\n      0x00\n        /* \"#utility.yul\":16650:16664   */\n      mstore\n        /* \"#utility.yul\":16694:16698   */\n      0x20\n        /* \"#utility.yul\":16691:16692   */\n      0x00\n        /* \"#utility.yul\":16681:16699   */\n      keccak256\n        /* \"#utility.yul\":16673:16699   */\n      swap1\n      pop\n        /* \"#utility.yul\":16565:16706   */\n      swap2\n      swap1\n      pop\n      jump\t// out\n        /* \"#utility.yul\":16712:16805   */\n    tag_147:\n        /* \"#utility.yul\":16749:16755   */\n      0x00\n        /* \"#utility.yul\":16796:16798   */\n      0x20\n        /* \"#utility.yul\":16791:16793   */\n      0x1f\n        /* \"#utility.yul\":16784:16789   */\n      dup4\n        /* \"#utility.yul\":16780:16794   */\n      add\n        /* \"#utility.yul\":16776:16799   */\n      div\n        /* \"#utility.yul\":16766:16799   */\n      swap1\n      pop\n        /* \"#utility.yul\":16712:16805   */\n      swap2\n      swap1\n      pop\n      jump\t// out\n        /* \"#utility.yul\":16811:16918   */\n    tag_148:\n        /* \"#utility.yul\":16855:16863   */\n      0x00\n        /* \"#utility.yul\":16905:16910   */\n      dup3\n        /* \"#utility.yul\":16899:16903   */\n      dup3\n        /* \"#utility.yul\":16895:16911   */\n      shl\n        /* \"#utility.yul\":16874:16911   */\n      swap1\n      pop\n        /* \"#utility.yul\":16811:16918   */\n      swap3\n      swap2\n      pop\n      pop\n      jump\t// out\n        /* \"#utility.yul\":16924:17317   */\n    tag_149:\n        /* \"#utility.yul\":16993:16999   */\n      0x00\n        /* \"#utility.yul\":17043:17044   */\n      0x08\n        /* \"#utility.yul\":17031:17041   */\n      dup4\n        /* \"#utility.yul\":17027:17045   */\n      mul\n        /* \"#utility.yul\":17066:17163   */\n      tag_312\n        /* \"#utility.yul\":17096:17162   */\n      0xffffffffffffffffffffffffffffffffffffffffffffffffffffffffffffffff\n        /* \"#utility.yul\":17085:17094   */\n      dup3\n        /* \"#utility.yul\":17066:17163   */\n      tag_148\n      jump\t// in\n    tag_312:\n        /* \"#utility.yul\":17184:17223   */\n      tag_313\n        /* \"#utility.yul\":17214:17222   */\n      dup7\n        /* \"#utility.yul\":17203:17212   */\n      dup4\n        /* \"#utility.yul\":17184:17223   */\n      tag_148\n      jump\t// in\n    tag_313:\n        /* \"#utility.yul\":17172:17223   */\n      swap6\n      pop\n        /* \"#utility.yul\":17256:17260   */\n      dup1\n        /* \"#utility.yul\":17252:17261   */\n      not\n        /* \"#utility.yul\":17245:17250   */\n      dup5\n        /* \"#utility.yul\":17241:17262   */\n      and\n        /* \"#utility.yul\":17232:17262   */\n      swap4\n      pop\n        /* \"#utility.yul\":17305:17309   */\n      dup1\n        /* \"#utility.yul\":17295:17303   */\n      dup7\n        /* \"#utility.yul\":17291:17310   */\n      and\n        /* \"#utility.yul\":17284:17289   */\n      dup5\n        /* \"#utility.yul\":17281:17311   */\n      or\n        /* \"#utility.yul\":17271:17311   */\n      swap3\n      pop\n        /* \"#utility.yul\":17000:17317   */\n      pop\n      pop\n        /* \"#utility.yul\":16924:17317   */\n      swap4\n      swap3\n      pop\n      pop\n      pop\n      jump\t// out\n        /* \"#utility.yul\":17323:17383   */\n    tag_150:\n        /* \"#utility.yul\":17351:17354   */\n      0x00\n        /* \"#utility.yul\":17372:17377   */\n      dup2\n        /* \"#utility.yul\":17365:17377   */\n      swap1\n      pop\n        /* \"#utility.yul\":17323:17383   */\n      swap2\n      swap1\n      pop\n      jump\t// out\n        /* \"#utility.yul\":17389:17531   */\n    tag_151:\n        /* \"#utility.yul\":17439:17448   */\n      0x00\n        /* \"#utility.yul\":17472:17525   */\n      tag_316\n        /* \"#utility.yul\":17490:17524   */\n      tag_317\n        /* \"#utility.yul\":17499:17523   */\n      tag_318\n        /* \"#utility.yul\":17517:17522   */\n      dup5\n        /* \"#utility.yul\":17499:17523   */\n      tag_107\n      jump\t// in\n    tag_318:\n        /* \"#utility.yul\":17490:17524   */\n      tag_150\n      jump\t// in\n    tag_317:\n        /* \"#utility.yul\":17472:17525   */\n      tag_107\n      jump\t// in\n    tag_316:\n        /* \"#utility.yul\":17459:17525   */\n      swap1\n      pop\n        /* \"#utility.yul\":17389:17531   */\n      swap2\n      swap1\n      pop\n      jump\t// out\n        /* \"#utility.yul\":17537:17612   */\n    tag_152:\n        /* \"#utility.yul\":17580:17583   */\n      0x00\n        /* \"#utility.yul\":17601:17606   */\n      dup2\n        /* \"#utility.yul\":17594:17606   */\n      swap1\n      pop\n        /* \"#utility.yul\":17537:17612   */\n      swap2\n      swap1\n      pop\n      jump\t// out\n        /* \"#utility.yul\":17618:17887   */\n    tag_153:\n        /* \"#utility.yul\":17728:17767   */\n      tag_321\n        /* \"#utility.yul\":17759:17766   */\n      dup4\n        /* \"#utility.yul\":17728:17767   */\n      tag_151\n      jump\t// in\n    tag_321:\n        /* \"#utility.yul\":17789:17880   */\n      tag_322\n        /* \"#utility.yul\":17838:17879   */\n      tag_323\n        /* \"#utility.yul\":17862:17878   */\n      dup3\n        /* \"#utility.yul\":17838:17879   */\n      tag_152\n      jump\t// in\n    tag_323:\n        /* \"#utility.yul\":17830:17836   */\n      dup5\n        /* \"#utility.yul\":17823:17827   */\n      dup5\n        /* \"#utility.yul\":17817:17828   */\n      sload\n        /* \"#utility.yul\":17789:17880   */\n      tag_149\n      jump\t// in\n    tag_322:\n        /* \"#utility.yul\":17783:17787   */\n      dup3\n        /* \"#utility.yul\":17776:17881   */\n      sstore\n        /* \"#utility.yul\":17694:17887   */\n      pop\n        /* \"#utility.yul\":17618:17887   */\n      pop\n      pop\n      pop\n      jump\t// out\n        /* \"#utility.yul\":17893:17966   */\n    tag_154:\n        /* \"#utility.yul\":17938:17941   */\n      0x00\n        /* \"#utility.yul\":17893:17966   */\n      swap1\n      jump\t// out\n        /* \"#utility.yul\":17972:18161   */\n    tag_155:\n        /* \"#utility.yul\":18049:18081   */\n      tag_326\n      tag_154\n      jump\t// in\n    tag_326:\n        /* \"#utility.yul\":18090:18155   */\n      tag_327\n        /* \"#utility.yul\":18148:18154   */\n      dup2\n        /* \"#utility.yul\":18140:18146   */\n      dup5\n        /* \"#utility.yul\":18134:18138   */\n      dup5\n        /* \"#utility.yul\":18090:18155   */\n      tag_153\n      jump\t// in\n    tag_327:\n        /* \"#utility.yul\":18025:18161   */\n      pop\n        /* \"#utility.yul\":17972:18161   */\n      pop\n      pop\n      jump\t// out\n        /* \"#utility.yul\":18167:18353   */\n    tag_156:\n        /* \"#utility.yul\":18227:18347   */\n    tag_329:\n        /* \"#utility.yul\":18244:18247   */\n      dup2\n        /* \"#utility.yul\":18237:18242   */\n      dup2\n        /* \"#utility.yul\":18234:18248   */\n      lt\n        /* \"#utility.yul\":18227:18347   */\n      iszero\n      tag_331\n      jumpi\n        /* \"#utility.yul\":18298:18337   */\n      tag_332\n        /* \"#utility.yul\":18335:18336   */\n      0x00\n        /* \"#utility.yul\":18328:18333   */\n      dup3\n        /* \"#utility.yul\":18298:18337   */\n      tag_155\n      jump\t// in\n    tag_332:\n        /* \"#utility.yul\":18271:18272   */\n      0x01\n        /* \"#utility.yul\":18264:18269   */\n      dup2\n        /* \"#utility.yul\":18260:18273   */\n      add\n        /* \"#utility.yul\":18251:18273   */\n      swap1\n      pop\n        /* \"#utility.yul\":18227:18347   */\n      jump(tag_329)\n    tag_331:\n        /* \"#utility.yul\":18167:18353   */\n      pop\n      pop\n      jump\t// out\n        /* \"#utility.yul\":18359:18902   */\n    tag_157:\n        /* \"#utility.yul\":18460:18462   */\n      0x1f\n        /* \"#utility.yul\":18455:18458   */\n      dup3\n        /* \"#utility.yul\":18452:18463   */\n      gt\n        /* \"#utility.yul\":18449:18895   */\n      iszero\n      tag_334\n      jumpi\n        /* \"#utility.yul\":18494:18532   */\n      tag_335\n        /* \"#utility.yul\":18526:18531   */\n      dup2\n        /* \"#utility.yul\":18494:18532   */\n      tag_146\n      jump\t// in\n    tag_335:\n        /* \"#utility.yul\":18578:18607   */\n      tag_336\n        /* \"#utility.yul\":18596:18606   */\n      dup5\n        /* \"#utility.yul\":18578:18607   */\n      tag_147\n      jump\t// in\n    tag_336:\n        /* \"#utility.yul\":18568:18576   */\n      dup2\n        /* \"#utility.yul\":18564:18608   */\n      add\n        /* \"#utility.yul\":18761:18763   */\n      0x20\n        /* \"#utility.yul\":18749:18759   */\n      dup6\n        /* \"#utility.yul\":18746:18764   */\n      lt\n        /* \"#utility.yul\":18743:18792   */\n      iszero\n      tag_337\n      jumpi\n        /* \"#utility.yul\":18782:18790   */\n      dup2\n        /* \"#utility.yul\":18767:18790   */\n      swap1\n      pop\n        /* \"#utility.yul\":18743:18792   */\n    tag_337:\n        /* \"#utility.yul\":18805:18885   */\n      tag_338\n        /* \"#utility.yul\":18861:18883   */\n      tag_339\n        /* \"#utility.yul\":18879:18882   */\n      dup6\n        /* \"#utility.yul\":18861:18883   */\n      tag_147\n      jump\t// in\n    tag_339:\n        /* \"#utility.yul\":18851:18859   */\n      dup4\n        /* \"#utility.yul\":18847:18884   */\n      add\n        /* \"#utility.yul\":18834:18845   */\n      dup3\n        /* \"#utility.yul\":18805:18885   */\n      tag_156\n      jump\t// in\n    tag_338:\n        /* \"#utility.yul\":18464:18895   */\n      pop\n      pop\n        /* \"#utility.yul\":18449:18895   */\n    tag_334:\n        /* \"#utility.yul\":18359:18902   */\n      pop\n      pop\n      pop\n      jump\t// out\n        /* \"#utility.yul\":18908:19025   */\n    tag_158:\n        /* \"#utility.yul\":18962:18970   */\n      0x00\n        /* \"#utility.yul\":19012:19017   */\n      dup3\n        /* \"#utility.yul\":19006:19010   */\n      dup3\n        /* \"#utility.yul\":19002:19018   */\n      shr\n        /* \"#utility.yul\":18981:19018   */\n      swap1\n      pop\n        /* \"#utility.yul\":18908:19025   */\n      swap3\n      swap2\n      pop\n      pop\n      jump\t// out\n        /* \"#utility.yul\":19031:19200   */\n    tag_159:\n        /* \"#utility.yul\":19075:19081   */\n      0x00\n        /* \"#utility.yul\":19108:19159   */\n      tag_342\n        /* \"#utility.yul\":19156:19157   */\n      0x00\n        /* \"#utility.yul\":19152:19158   */\n      not\n        /* \"#utility.yul\":19144:19149   */\n      dup5\n        /* \"#utility.yul\":19141:19142   */\n      0x08\n        /* \"#utility.yul\":19137:19150   */\n      mul\n        /* \"#utility.yul\":19108:19159   */\n      tag_158\n      jump\t// in\n    tag_342:\n        /* \"#utility.yul\":19104:19160   */\n      not\n        /* \"#utility.yul\":19189:19193   */\n      dup1\n        /* \"#utility.yul\":19183:19187   */\n      dup4\n        /* \"#utility.yul\":19179:19194   */\n      and\n        /* \"#utility.yul\":19169:19194   */\n      swap2\n      pop\n        /* \"#utility.yul\":19082:19200   */\n      pop\n        /* \"#utility.yul\":19031:19200   */\n      swap3\n      swap2\n      pop\n      pop\n      jump\t// out\n        /* \"#utility.yul\":19205:19500   */\n    tag_160:\n        /* \"#utility.yul\":19281:19285   */\n      0x00\n        /* \"#utility.yul\":19427:19456   */\n      tag_344\n        /* \"#utility.yul\":19452:19455   */\n      dup4\n        /* \"#utility.yul\":19446:19450   */\n      dup4\n        /* \"#utility.yul\":19427:19456   */\n      tag_159\n      jump\t// in\n    tag_344:\n        /* \"#utility.yul\":19419:19456   */\n      swap2\n      pop\n        /* \"#utility.yul\":19489:19492   */\n      dup3\n        /* \"#utility.yul\":19486:19487   */\n      0x02\n        /* \"#utility.yul\":19482:19493   */\n      mul\n        /* \"#utility.yul\":19476:19480   */\n      dup3\n        /* \"#utility.yul\":19473:19494   */\n      or\n        /* \"#utility.yul\":19465:19494   */\n      swap1\n      pop\n        /* \"#utility.yul\":19205:19500   */\n      swap3\n      swap2\n      pop\n      pop\n      jump\t// out\n        /* \"#utility.yul\":19505:20900   */\n    tag_61:\n        /* \"#utility.yul\":19622:19659   */\n      tag_346\n        /* \"#utility.yul\":19655:19658   */\n      dup3\n        /* \"#utility.yul\":19622:19659   */\n      tag_122\n      jump\t// in\n    tag_346:\n        /* \"#utility.yul\":19724:19742   */\n      0xffffffffffffffff\n        /* \"#utility.yul\":19716:19722   */\n      dup2\n        /* \"#utility.yul\":19713:19743   */\n      gt\n        /* \"#utility.yul\":19710:19766   */\n      iszero\n      tag_347\n      jumpi\n        /* \"#utility.yul\":19746:19764   */\n      tag_348\n      tag_84\n      jump\t// in\n    tag_348:\n        /* \"#utility.yul\":19710:19766   */\n    tag_347:\n        /* \"#utility.yul\":19790:19828   */\n      tag_349\n        /* \"#utility.yul\":19822:19826   */\n      dup3\n        /* \"#utility.yul\":19816:19827   */\n      sload\n        /* \"#utility.yul\":19790:19828   */\n      tag_54\n      jump\t// in\n    tag_349:\n        /* \"#utility.yul\":19875:19942   */\n      tag_350\n        /* \"#utility.yul\":19935:19941   */\n      dup3\n        /* \"#utility.yul\":19927:19933   */\n      dup3\n        /* \"#utility.yul\":19921:19925   */\n      dup6\n        /* \"#utility.yul\":19875:19942   */\n      tag_157\n      jump\t// in\n    tag_350:\n        /* \"#utility.yul\":19969:19970   */\n      0x00\n        /* \"#utility.yul\":19993:19997   */\n      0x20\n        /* \"#utility.yul\":19980:19997   */\n      swap1\n      pop\n        /* \"#utility.yul\":20025:20027   */\n      0x1f\n        /* \"#utility.yul\":20017:20023   */\n      dup4\n        /* \"#utility.yul\":20014:20028   */\n      gt\n        /* \"#utility.yul\":20042:20043   */\n      0x01\n        /* \"#utility.yul\":20037:20655   */\n      dup2\n      eq\n      tag_352\n      jumpi\n        /* \"#utility.yul\":20699:20700   */\n      0x00\n        /* \"#utility.yul\":20716:20722   */\n      dup5\n        /* \"#utility.yul\":20713:20790   */\n      iszero\n      tag_353\n      jumpi\n        /* \"#utility.yul\":20765:20774   */\n      dup3\n        /* \"#utility.yul\":20760:20763   */\n      dup8\n        /* \"#utility.yul\":20756:20775   */\n      add\n        /* \"#utility.yul\":20750:20776   */\n      mload\n        /* \"#utility.yul\":20741:20776   */\n      swap1\n      pop\n        /* \"#utility.yul\":20713:20790   */\n    tag_353:\n        /* \"#utility.yul\":20816:20883   */\n      tag_354\n        /* \"#utility.yul\":20876:20882   */\n      dup6\n        /* \"#utility.yul\":20869:20874   */\n      dup3\n        /* \"#utility.yul\":20816:20883   */\n      tag_160\n      jump\t// in\n    tag_354:\n        /* \"#utility.yul\":20810:20814   */\n      dup7\n        /* \"#utility.yul\":20803:20884   */\n      sstore\n        /* \"#utility.yul\":20672:20894   */\n      pop\n        /* \"#utility.yul\":20007:20894   */\n      jump(tag_351)\n        /* \"#utility.yul\":20037:20655   */\n    tag_352:\n        /* \"#utility.yul\":20089:20093   */\n      0x1f\n        /* \"#utility.yul\":20085:20094   */\n      not\n        /* \"#utility.yul\":20077:20083   */\n      dup5\n        /* \"#utility.yul\":20073:20095   */\n      and\n        /* \"#utility.yul\":20123:20160   */\n      tag_355\n        /* \"#utility.yul\":20155:20159   */\n      dup7\n        /* \"#utility.yul\":20123:20160   */\n      tag_146\n      jump\t// in\n    tag_355:\n        /* \"#utility.yul\":20182:20183   */\n      0x00\n        /* \"#utility.yul\":20196:20404   */\n    tag_356:\n        /* \"#utility.yul\":20210:20217   */\n      dup3\n        /* \"#utility.yul\":20207:20208   */\n      dup2\n        /* \"#utility.yul\":20204:20218   */\n      lt\n        /* \"#utility.yul\":20196:20404   */\n      iszero\n      tag_358\n      jumpi\n        /* \"#utility.yul\":20289:20298   */\n      dup5\n        /* \"#utility.yul\":20284:20287   */\n      dup10\n        /* \"#utility.yul\":20280:20299   */\n      add\n        /* \"#utility.yul\":20274:20300   */\n      mload\n        /* \"#utility.yul\":20266:20272   */\n      dup3\n        /* \"#utility.yul\":20259:20301   */\n      sstore\n        /* \"#utility.yul\":20340:20341   */\n      0x01\n        /* \"#utility.yul\":20332:20338   */\n      dup3\n        /* \"#utility.yul\":20328:20342   */\n      add\n        /* \"#utility.yul\":20318:20342   */\n      swap2\n      pop\n        /* \"#utility.yul\":20387:20389   */\n      0x20\n        /* \"#utility.yul\":20376:20385   */\n      dup6\n        /* \"#utility.yul\":20372:20390   */\n      add\n        /* \"#utility.yul\":20359:20390   */\n      swap5\n      pop\n        /* \"#utility.yul\":20233:20237   */\n      0x20\n        /* \"#utility.yul\":20230:20231   */\n      dup2\n        /* \"#utility.yul\":20226:20238   */\n      add\n        /* \"#utility.yul\":20221:20238   */\n      swap1\n      pop\n        /* \"#utility.yul\":20196:20404   */\n      jump(tag_356)\n    tag_358:\n        /* \"#utility.yul\":20432:20438   */\n      dup7\n        /* \"#utility.yul\":20423:20430   */\n      dup4\n        /* \"#utility.yul\":20420:20439   */\n      lt\n        /* \"#utility.yul\":20417:20596   */\n      iszero\n      tag_359\n      jumpi\n        /* \"#utility.yul\":20490:20499   */\n      dup5\n        /* \"#utility.yul\":20485:20488   */\n      dup10\n        /* \"#utility.yul\":20481:20500   */\n      add\n        /* \"#utility.yul\":20475:20501   */\n      mload\n        /* \"#utility.yul\":20533:20581   */\n      tag_360\n        /* \"#utility.yul\":20575:20579   */\n      0x1f\n        /* \"#utility.yul\":20567:20573   */\n      dup10\n        /* \"#utility.yul\":20563:20580   */\n      and\n        /* \"#utility.yul\":20552:20561   */\n      dup3\n        /* \"#utility.yul\":20533:20581   */\n      tag_159\n      jump\t// in\n    tag_360:\n        /* \"#utility.yul\":20525:20531   */\n      dup4\n        /* \"#utility.yul\":20518:20582   */\n      sstore\n        /* \"#utility.yul\":20440:20596   */\n      pop\n        /* \"#utility.yul\":20417:20596   */\n    tag_359:\n        /* \"#utility.yul\":20642:20643   */\n      0x01\n        /* \"#utility.yul\":20638:20639   */\n      0x02\n        /* \"#utility.yul\":20630:20636   */\n      dup9\n        /* \"#utility.yul\":20626:20640   */\n      mul\n        /* \"#utility.yul\":20622:20644   */\n      add\n        /* \"#utility.yul\":20616:20620   */\n      dup9\n        /* \"#utility.yul\":20609:20645   */\n      sstore\n        /* \"#utility.yul\":20044:20655   */\n      pop\n      pop\n      pop\n        /* \"#utility.yul\":20007:20894   */\n    tag_351:\n      pop\n        /* \"#utility.yul\":19597:20900   */\n      pop\n      pop\n      pop\n        /* \"#utility.yul\":19505:20900   */\n      pop\n      pop\n      jump\t// out\n        /* \"#utility.yul\":20906:21139   */\n    tag_64:\n        /* \"#utility.yul\":20945:20948   */\n      0x00\n        /* \"#utility.yul\":20968:20992   */\n      tag_362\n        /* \"#utility.yul\":20986:20991   */\n      dup3\n        /* \"#utility.yul\":20968:20992   */\n      tag_107\n      jump\t// in\n    tag_362:\n        /* \"#utility.yul\":20959:20992   */\n      swap2\n      pop\n        /* \"#utility.yul\":21014:21080   */\n      0xffffffffffffffffffffffffffffffffffffffffffffffffffffffffffffffff\n        /* \"#utility.yul\":21007:21012   */\n      dup3\n        /* \"#utility.yul\":21004:21081   */\n      sub\n        /* \"#utility.yul\":21001:21104   */\n      tag_363\n      jumpi\n        /* \"#utility.yul\":21084:21102   */\n      tag_364\n      tag_144\n      jump\t// in\n    tag_364:\n        /* \"#utility.yul\":21001:21104   */\n    tag_363:\n        /* \"#utility.yul\":21131:21132   */\n      0x01\n        /* \"#utility.yul\":21124:21129   */\n      dup3\n        /* \"#utility.yul\":21120:21133   */\n      add\n        /* \"#utility.yul\":21113:21133   */\n      swap1\n      pop\n        /* \"#utility.yul\":20906:21139   */\n      swap2\n      swap1\n      pop\n      jump\t// out\n        /* \"#utility.yul\":21145:21325   */\n    tag_103:\n        /* \"#utility.yul\":21193:21270   */\n      0x4e487b7100000000000000000000000000000000000000000000000000000000\n        /* \"#utility.yul\":21190:21191   */\n      0x00\n        /* \"#utility.yul\":21183:21271   */\n      mstore\n        /* \"#utility.yul\":21290:21294   */\n      0x32\n        /* \"#utility.yul\":21287:21288   */\n      0x04\n        /* \"#utility.yul\":21280:21295   */\n      mstore\n        /* \"#utility.yul\":21314:21318   */\n      0x24\n        /* \"#utility.yul\":21311:21312   */\n      0x00\n        /* \"#utility.yul\":21304:21319   */\n      revert\n\n    auxdata: 0xa26469706673582212202c31124c1b10bdd776cc4505b22d9498f9f6462d8375b3df49224eae157ea79764736f6c63430008190033\n}\n",
				"bytecode": {
					"linkReferences": {},
					"object": "608060405260016003553480156013575f80fd5b5061152f806100215f395ff3fe608060405234801561000f575f80fd5b5060043610610060575f3560e01c80632f0cc93f1461006457806331feb671146100805780634ac3e917146100b057806371658896146100cc578063d0020fad146100fc578063fee0117714610118575b5f80fd5b61007e60048036038101906100799190610c23565b610136565b005b61009a60048036038101906100959190610c8f565b61032c565b6040516100a79190610daf565b60405180910390f35b6100ca60048036038101906100c59190610dcf565b610448565b005b6100e660048036038101906100e19190610e45565b61054b565b6040516100f39190610f0c565b60405180910390f35b61011660048036038101906101119190610c8f565b610707565b005b6101206107b0565b60405161012d9190611074565b60405180910390f35b5f151560015f3373ffffffffffffffffffffffffffffffffffffffff1673ffffffffffffffffffffffffffffffffffffffff1681526020019081526020015f208360405161018491906110ce565b90815260200160405180910390205f9054906101000a900460ff161515146101e1576040517f08c379a00000000000000000000000000000000000000000000000000000000081526004016101d89061113e565b60405180910390fd5b600115158115150361028c5760015f808581526020019081526020015f206004015f8282546102109190611189565b925050819055506001805f3373ffffffffffffffffffffffffffffffffffffffff1673ffffffffffffffffffffffffffffffffffffffff1681526020019081526020015f208360405161026391906110ce565b90815260200160405180910390205f6101000a81548160ff021916908315150217905550610327565b60015f808581526020019081526020015f206005015f8282546102af9190611189565b925050819055506001805f3373ffffffffffffffffffffffffffffffffffffffff1673ffffffffffffffffffffffffffffffffffffffff1681526020019081526020015f208360405161030291906110ce565b90815260200160405180910390205f6101000a81548160ff0219169083151502179055505b505050565b6103346109f7565b60028260405161034491906110ce565b90815260200160405180910390206040518060400160405290815f8201805461036c906111e9565b80601f0160208091040260200160405190810160405280929190818152602001828054610398906111e9565b80156103e35780601f106103ba576101008083540402835291602001916103e3565b820191905f5260205f20905b8154815290600101906020018083116103c657829003601f168201915b50505050508152602001600182015f9054906101000a900473ffffffffffffffffffffffffffffffffffffffff1673ffffffffffffffffffffffffffffffffffffffff1673ffffffffffffffffffffffffffffffffffffffff16815250509050919050565b6040518060c0016040528060035481526020018381526020018281526020013373ffffffffffffffffffffffffffffffffffffffff1681526020015f81526020015f8152505f8060035481526020019081526020015f205f820151815f015560208201518160010190816104bc91906113b6565b5060408201518160020190816104d291906113b6565b506060820151816003015f6101000a81548173ffffffffffffffffffffffffffffffffffffffff021916908373ffffffffffffffffffffffffffffffffffffffff1602179055506080820151816004015560a0820151816005015590505060035f81548092919061054290611485565b91905055505050565b610553610a26565b5f808381526020019081526020015f206040518060c00160405290815f8201548152602001600182018054610587906111e9565b80601f01602080910402602001604051908101604052809291908181526020018280546105b3906111e9565b80156105fe5780601f106105d5576101008083540402835291602001916105fe565b820191905f5260205f20905b8154815290600101906020018083116105e157829003601f168201915b50505050508152602001600282018054610617906111e9565b80601f0160208091040260200160405190810160405280929190818152602001828054610643906111e9565b801561068e5780601f106106655761010080835404028352916020019161068e565b820191905f5260205f20905b81548152906001019060200180831161067157829003601f168201915b50505050508152602001600382015f9054906101000a900473ffffffffffffffffffffffffffffffffffffffff1673ffffffffffffffffffffffffffffffffffffffff1673ffffffffffffffffffffffffffffffffffffffff168152602001600482015481526020016005820154815250509050919050565b60405180604001604052808281526020013373ffffffffffffffffffffffffffffffffffffffff1681525060028260405161074291906110ce565b90815260200160405180910390205f820151815f01908161076391906113b6565b506020820151816001015f6101000a81548173ffffffffffffffffffffffffffffffffffffffff021916908373ffffffffffffffffffffffffffffffffffffffff16021790555090505050565b60605f60035467ffffffffffffffff8111156107cf576107ce610aca565b5b60405190808252806020026020018201604052801561080857816020015b6107f5610a26565b8152602001906001900390816107ed5790505b5090505f5b6003548110156109ef575f808281526020019081526020015f206040518060c00160405290815f820154815260200160018201805461084b906111e9565b80601f0160208091040260200160405190810160405280929190818152602001828054610877906111e9565b80156108c25780601f10610899576101008083540402835291602001916108c2565b820191905f5260205f20905b8154815290600101906020018083116108a557829003601f168201915b505050505081526020016002820180546108db906111e9565b80601f0160208091040260200160405190810160405280929190818152602001828054610907906111e9565b80156109525780601f1061092957610100808354040283529160200191610952565b820191905f5260205f20905b81548152906001019060200180831161093557829003601f168201915b50505050508152602001600382015f9054906101000a900473ffffffffffffffffffffffffffffffffffffffff1673ffffffffffffffffffffffffffffffffffffffff1673ffffffffffffffffffffffffffffffffffffffff168152602001600482015481526020016005820154815250508282815181106109d7576109d66114cc565b5b6020026020010181905250808060010191505061080d565b508091505090565b6040518060400160405280606081526020015f73ffffffffffffffffffffffffffffffffffffffff1681525090565b6040518060c001604052805f815260200160608152602001606081526020015f73ffffffffffffffffffffffffffffffffffffffff1681526020015f81526020015f81525090565b5f604051905090565b5f80fd5b5f80fd5b5f819050919050565b610a9181610a7f565b8114610a9b575f80fd5b50565b5f81359050610aac81610a88565b92915050565b5f80fd5b5f80fd5b5f601f19601f8301169050919050565b7f4e487b71000000000000000000000000000000000000000000000000000000005f52604160045260245ffd5b610b0082610aba565b810181811067ffffffffffffffff82111715610b1f57610b1e610aca565b5b80604052505050565b5f610b31610a6e565b9050610b3d8282610af7565b919050565b5f67ffffffffffffffff821115610b5c57610b5b610aca565b5b610b6582610aba565b9050602081019050919050565b828183375f83830152505050565b5f610b92610b8d84610b42565b610b28565b905082815260208101848484011115610bae57610bad610ab6565b5b610bb9848285610b72565b509392505050565b5f82601f830112610bd557610bd4610ab2565b5b8135610be5848260208601610b80565b91505092915050565b5f8115159050919050565b610c0281610bee565b8114610c0c575f80fd5b50565b5f81359050610c1d81610bf9565b92915050565b5f805f60608486031215610c3a57610c39610a77565b5b5f610c4786828701610a9e565b935050602084013567ffffffffffffffff811115610c6857610c67610a7b565b5b610c7486828701610bc1565b9250506040610c8586828701610c0f565b9150509250925092565b5f60208284031215610ca457610ca3610a77565b5b5f82013567ffffffffffffffff811115610cc157610cc0610a7b565b5b610ccd84828501610bc1565b91505092915050565b5f81519050919050565b5f82825260208201905092915050565b8281835e5f83830152505050565b5f610d0882610cd6565b610d128185610ce0565b9350610d22818560208601610cf0565b610d2b81610aba565b840191505092915050565b5f73ffffffffffffffffffffffffffffffffffffffff82169050919050565b5f610d5f82610d36565b9050919050565b610d6f81610d55565b82525050565b5f604083015f8301518482035f860152610d8f8282610cfe565b9150506020830151610da46020860182610d66565b508091505092915050565b5f6020820190508181035f830152610dc78184610d75565b905092915050565b5f8060408385031215610de557610de4610a77565b5b5f83013567ffffffffffffffff811115610e0257610e01610a7b565b5b610e0e85828601610bc1565b925050602083013567ffffffffffffffff811115610e2f57610e2e610a7b565b5b610e3b85828601610bc1565b9150509250929050565b5f60208284031215610e5a57610e59610a77565b5b5f610e6784828501610a9e565b91505092915050565b610e7981610a7f565b82525050565b5f60c083015f830151610e945f860182610e70565b5060208301518482036020860152610eac8282610cfe565b91505060408301518482036040860152610ec68282610cfe565b9150506060830151610edb6060860182610d66565b506080830151610eee6080860182610e70565b5060a0830151610f0160a0860182610e70565b508091505092915050565b5f6020820190508181035f830152610f248184610e7f565b905092915050565b5f81519050919050565b5f82825260208201905092915050565b5f819050602082019050919050565b5f60c083015f830151610f6a5f860182610e70565b5060208301518482036020860152610f828282610cfe565b91505060408301518482036040860152610f9c8282610cfe565b9150506060830151610fb16060860182610d66565b506080830151610fc46080860182610e70565b5060a0830151610fd760a0860182610e70565b508091505092915050565b5f610fed8383610f55565b905092915050565b5f602082019050919050565b5f61100b82610f2c565b6110158185610f36565b93508360208202850161102785610f46565b805f5b8581101561106257848403895281516110438582610fe2565b945061104e83610ff5565b925060208a0199505060018101905061102a565b50829750879550505050505092915050565b5f6020820190508181035f83015261108c8184611001565b905092915050565b5f81905092915050565b5f6110a882610cd6565b6110b28185611094565b93506110c2818560208601610cf0565b80840191505092915050565b5f6110d9828461109e565b915081905092915050565b5f82825260208201905092915050565b7f616c726561647920766f746564000000000000000000000000000000000000005f82015250565b5f611128600d836110e4565b9150611133826110f4565b602082019050919050565b5f6020820190508181035f8301526111558161111c565b9050919050565b7f4e487b71000000000000000000000000000000000000000000000000000000005f52601160045260245ffd5b5f61119382610a7f565b915061119e83610a7f565b92508282019050808211156111b6576111b561115c565b5b92915050565b7f4e487b71000000000000000000000000000000000000000000000000000000005f52602260045260245ffd5b5f600282049050600182168061120057607f821691505b602082108103611213576112126111bc565b5b50919050565b5f819050815f5260205f209050919050565b5f6020601f8301049050919050565b5f82821b905092915050565b5f600883026112757fffffffffffffffffffffffffffffffffffffffffffffffffffffffffffffffff8261123a565b61127f868361123a565b95508019841693508086168417925050509392505050565b5f819050919050565b5f6112ba6112b56112b084610a7f565b611297565b610a7f565b9050919050565b5f819050919050565b6112d3836112a0565b6112e76112df826112c1565b848454611246565b825550505050565b5f90565b6112fb6112ef565b6113068184846112ca565b505050565b5b818110156113295761131e5f826112f3565b60018101905061130c565b5050565b601f82111561136e5761133f81611219565b6113488461122b565b81016020851015611357578190505b61136b6113638561122b565b83018261130b565b50505b505050565b5f82821c905092915050565b5f61138e5f1984600802611373565b1980831691505092915050565b5f6113a6838361137f565b9150826002028217905092915050565b6113bf82610cd6565b67ffffffffffffffff8111156113d8576113d7610aca565b5b6113e282546111e9565b6113ed82828561132d565b5f60209050601f83116001811461141e575f841561140c578287015190505b611416858261139b565b86555061147d565b601f19841661142c86611219565b5f5b828110156114535784890151825560018201915060208501945060208101905061142e565b86831015611470578489015161146c601f89168261137f565b8355505b6001600288020188555050505b505050505050565b5f61148f82610a7f565b91507fffffffffffffffffffffffffffffffffffffffffffffffffffffffffffffffff82036114c1576114c061115c565b5b600182019050919050565b7f4e487b71000000000000000000000000000000000000000000000000000000005f52603260045260245ffdfea26469706673582212202c31124c1b10bdd776cc4505b22d9498f9f6462d8375b3df49224eae157ea79764736f6c63430008190033",
					"opcodes": "PUSH1 0x80 PUSH1 0x40 MSTORE PUSH1 0x1 PUSH1 0x3 SSTORE CALLVALUE DUP1 ISZERO PUSH1 0x13 JUMPI PUSH0 DUP1 REVERT JUMPDEST POP PUSH2 0x152F DUP1 PUSH2 0x21 PUSH0 CODECOPY PUSH0 RETURN INVALID PUSH1 0x80 PUSH1 0x40 MSTORE CALLVALUE DUP1 ISZERO PUSH2 0xF JUMPI PUSH0 DUP1 REVERT JUMPDEST POP PUSH1 0x4 CALLDATASIZE LT PUSH2 0x60 JUMPI PUSH0 CALLDATALOAD PUSH1 0xE0 SHR DUP1 PUSH4 0x2F0CC93F EQ PUSH2 0x64 JUMPI DUP1 PUSH4 0x31FEB671 EQ PUSH2 0x80 JUMPI DUP1 PUSH4 0x4AC3E917 EQ PUSH2 0xB0 JUMPI DUP1 PUSH4 0x71658896 EQ PUSH2 0xCC JUMPI DUP1 PUSH4 0xD0020FAD EQ PUSH2 0xFC JUMPI DUP1 PUSH4 0xFEE01177 EQ PUSH2 0x118 JUMPI JUMPDEST PUSH0 DUP1 REVERT JUMPDEST PUSH2 0x7E PUSH1 0x4 DUP1 CALLDATASIZE SUB DUP2 ADD SWAP1 PUSH2 0x79 SWAP2 SWAP1 PUSH2 0xC23 JUMP JUMPDEST PUSH2 0x136 JUMP JUMPDEST STOP JUMPDEST PUSH2 0x9A PUSH1 0x4 DUP1 CALLDATASIZE SUB DUP2 ADD SWAP1 PUSH2 0x95 SWAP2 SWAP1 PUSH2 0xC8F JUMP JUMPDEST PUSH2 0x32C JUMP JUMPDEST PUSH1 0x40 MLOAD PUSH2 0xA7 SWAP2 SWAP1 PUSH2 0xDAF JUMP JUMPDEST PUSH1 0x40 MLOAD DUP1 SWAP2 SUB SWAP1 RETURN JUMPDEST PUSH2 0xCA PUSH1 0x4 DUP1 CALLDATASIZE SUB DUP2 ADD SWAP1 PUSH2 0xC5 SWAP2 SWAP1 PUSH2 0xDCF JUMP JUMPDEST PUSH2 0x448 JUMP JUMPDEST STOP JUMPDEST PUSH2 0xE6 PUSH1 0x4 DUP1 CALLDATASIZE SUB DUP2 ADD SWAP1 PUSH2 0xE1 SWAP2 SWAP1 PUSH2 0xE45 JUMP JUMPDEST PUSH2 0x54B JUMP JUMPDEST PUSH1 0x40 MLOAD PUSH2 0xF3 SWAP2 SWAP1 PUSH2 0xF0C JUMP JUMPDEST PUSH1 0x40 MLOAD DUP1 SWAP2 SUB SWAP1 RETURN JUMPDEST PUSH2 0x116 PUSH1 0x4 DUP1 CALLDATASIZE SUB DUP2 ADD SWAP1 PUSH2 0x111 SWAP2 SWAP1 PUSH2 0xC8F JUMP JUMPDEST PUSH2 0x707 JUMP JUMPDEST STOP JUMPDEST PUSH2 0x120 PUSH2 0x7B0 JUMP JUMPDEST PUSH1 0x40 MLOAD PUSH2 0x12D SWAP2 SWAP1 PUSH2 0x1074 JUMP JUMPDEST PUSH1 0x40 MLOAD DUP1 SWAP2 SUB SWAP1 RETURN JUMPDEST PUSH0 ISZERO ISZERO PUSH1 0x1 PUSH0 CALLER PUSH20 0xFFFFFFFFFFFFFFFFFFFFFFFFFFFFFFFFFFFFFFFF AND PUSH20 0xFFFFFFFFFFFFFFFFFFFFFFFFFFFFFFFFFFFFFFFF AND DUP2 MSTORE PUSH1 0x20 ADD SWAP1 DUP2 MSTORE PUSH1 0x20 ADD PUSH0 KECCAK256 DUP4 PUSH1 0x40 MLOAD PUSH2 0x184 SWAP2 SWAP1 PUSH2 0x10CE JUMP JUMPDEST SWAP1 DUP2 MSTORE PUSH1 0x20 ADD PUSH1 0x40 MLOAD DUP1 SWAP2 SUB SWAP1 KECCAK256 PUSH0 SWAP1 SLOAD SWAP1 PUSH2 0x100 EXP SWAP1 DIV PUSH1 0xFF AND ISZERO ISZERO EQ PUSH2 0x1E1 JUMPI PUSH1 0x40 MLOAD PUSH32 0x8C379A000000000000000000000000000000000000000000000000000000000 DUP2 MSTORE PUSH1 0x4 ADD PUSH2 0x1D8 SWAP1 PUSH2 0x113E JUMP JUMPDEST PUSH1 0x40 MLOAD DUP1 SWAP2 SUB SWAP1 REVERT JUMPDEST PUSH1 0x1 ISZERO ISZERO DUP2 ISZERO ISZERO SUB PUSH2 0x28C JUMPI PUSH1 0x1 PUSH0 DUP1 DUP6 DUP2 MSTORE PUSH1 0x20 ADD SWAP1 DUP2 MSTORE PUSH1 0x20 ADD PUSH0 KECCAK256 PUSH1 0x4 ADD PUSH0 DUP3 DUP3 SLOAD PUSH2 0x210 SWAP2 SWAP1 PUSH2 0x1189 JUMP JUMPDEST SWAP3 POP POP DUP2 SWAP1 SSTORE POP PUSH1 0x1 DUP1 PUSH0 CALLER PUSH20 0xFFFFFFFFFFFFFFFFFFFFFFFFFFFFFFFFFFFFFFFF AND PUSH20 0xFFFFFFFFFFFFFFFFFFFFFFFFFFFFFFFFFFFFFFFF AND DUP2 MSTORE PUSH1 0x20 ADD SWAP1 DUP2 MSTORE PUSH1 0x20 ADD PUSH0 KECCAK256 DUP4 PUSH1 0x40 MLOAD PUSH2 0x263 SWAP2 SWAP1 PUSH2 0x10CE JUMP JUMPDEST SWAP1 DUP2 MSTORE PUSH1 0x20 ADD PUSH1 0x40 MLOAD DUP1 SWAP2 SUB SWAP1 KECCAK256 PUSH0 PUSH2 0x100 EXP DUP2 SLOAD DUP2 PUSH1 0xFF MUL NOT AND SWAP1 DUP4 ISZERO ISZERO MUL OR SWAP1 SSTORE POP PUSH2 0x327 JUMP JUMPDEST PUSH1 0x1 PUSH0 DUP1 DUP6 DUP2 MSTORE PUSH1 0x20 ADD SWAP1 DUP2 MSTORE PUSH1 0x20 ADD PUSH0 KECCAK256 PUSH1 0x5 ADD PUSH0 DUP3 DUP3 SLOAD PUSH2 0x2AF SWAP2 SWAP1 PUSH2 0x1189 JUMP JUMPDEST SWAP3 POP POP DUP2 SWAP1 SSTORE POP PUSH1 0x1 DUP1 PUSH0 CALLER PUSH20 0xFFFFFFFFFFFFFFFFFFFFFFFFFFFFFFFFFFFFFFFF AND PUSH20 0xFFFFFFFFFFFFFFFFFFFFFFFFFFFFFFFFFFFFFFFF AND DUP2 MSTORE PUSH1 0x20 ADD SWAP1 DUP2 MSTORE PUSH1 0x20 ADD PUSH0 KECCAK256 DUP4 PUSH1 0x40 MLOAD PUSH2 0x302 SWAP2 SWAP1 PUSH2 0x10CE JUMP JUMPDEST SWAP1 DUP2 MSTORE PUSH1 0x20 ADD PUSH1 0x40 MLOAD DUP1 SWAP2 SUB SWAP1 KECCAK256 PUSH0 PUSH2 0x100 EXP DUP2 SLOAD DUP2 PUSH1 0xFF MUL NOT AND SWAP1 DUP4 ISZERO ISZERO MUL OR SWAP1 SSTORE POP JUMPDEST POP POP POP JUMP JUMPDEST PUSH2 0x334 PUSH2 0x9F7 JUMP JUMPDEST PUSH1 0x2 DUP3 PUSH1 0x40 MLOAD PUSH2 0x344 SWAP2 SWAP1 PUSH2 0x10CE JUMP JUMPDEST SWAP1 DUP2 MSTORE PUSH1 0x20 ADD PUSH1 0x40 MLOAD DUP1 SWAP2 SUB SWAP1 KECCAK256 PUSH1 0x40 MLOAD DUP1 PUSH1 0x40 ADD PUSH1 0x40 MSTORE SWAP1 DUP2 PUSH0 DUP3 ADD DUP1 SLOAD PUSH2 0x36C SWAP1 PUSH2 0x11E9 JUMP JUMPDEST DUP1 PUSH1 0x1F ADD PUSH1 0x20 DUP1 SWAP2 DIV MUL PUSH1 0x20 ADD PUSH1 0x40 MLOAD SWAP1 DUP2 ADD PUSH1 0x40 MSTORE DUP1 SWAP3 SWAP2 SWAP1 DUP2 DUP2 MSTORE PUSH1 0x20 ADD DUP3 DUP1 SLOAD PUSH2 0x398 SWAP1 PUSH2 0x11E9 JUMP JUMPDEST DUP1 ISZERO PUSH2 0x3E3 JUMPI DUP1 PUSH1 0x1F LT PUSH2 0x3BA JUMPI PUSH2 0x100 DUP1 DUP4 SLOAD DIV MUL DUP4 MSTORE SWAP2 PUSH1 0x20 ADD SWAP2 PUSH2 0x3E3 JUMP JUMPDEST DUP3 ADD SWAP2 SWAP1 PUSH0 MSTORE PUSH1 0x20 PUSH0 KECCAK256 SWAP1 JUMPDEST DUP2 SLOAD DUP2 MSTORE SWAP1 PUSH1 0x1 ADD SWAP1 PUSH1 0x20 ADD DUP1 DUP4 GT PUSH2 0x3C6 JUMPI DUP3 SWAP1 SUB PUSH1 0x1F AND DUP3 ADD SWAP2 JUMPDEST POP POP POP POP POP DUP2 MSTORE PUSH1 0x20 ADD PUSH1 0x1 DUP3 ADD PUSH0 SWAP1 SLOAD SWAP1 PUSH2 0x100 EXP SWAP1 DIV PUSH20 0xFFFFFFFFFFFFFFFFFFFFFFFFFFFFFFFFFFFFFFFF AND PUSH20 0xFFFFFFFFFFFFFFFFFFFFFFFFFFFFFFFFFFFFFFFF AND PUSH20 0xFFFFFFFFFFFFFFFFFFFFFFFFFFFFFFFFFFFFFFFF AND DUP2 MSTORE POP POP SWAP1 POP SWAP2 SWAP1 POP JUMP JUMPDEST PUSH1 0x40 MLOAD DUP1 PUSH1 0xC0 ADD PUSH1 0x40 MSTORE DUP1 PUSH1 0x3 SLOAD DUP2 MSTORE PUSH1 0x20 ADD DUP4 DUP2 MSTORE PUSH1 0x20 ADD DUP3 DUP2 MSTORE PUSH1 0x20 ADD CALLER PUSH20 0xFFFFFFFFFFFFFFFFFFFFFFFFFFFFFFFFFFFFFFFF AND DUP2 MSTORE PUSH1 0x20 ADD PUSH0 DUP2 MSTORE PUSH1 0x20 ADD PUSH0 DUP2 MSTORE POP PUSH0 DUP1 PUSH1 0x3 SLOAD DUP2 MSTORE PUSH1 0x20 ADD SWAP1 DUP2 MSTORE PUSH1 0x20 ADD PUSH0 KECCAK256 PUSH0 DUP3 ADD MLOAD DUP2 PUSH0 ADD SSTORE PUSH1 0x20 DUP3 ADD MLOAD DUP2 PUSH1 0x1 ADD SWAP1 DUP2 PUSH2 0x4BC SWAP2 SWAP1 PUSH2 0x13B6 JUMP JUMPDEST POP PUSH1 0x40 DUP3 ADD MLOAD DUP2 PUSH1 0x2 ADD SWAP1 DUP2 PUSH2 0x4D2 SWAP2 SWAP1 PUSH2 0x13B6 JUMP JUMPDEST POP PUSH1 0x60 DUP3 ADD MLOAD DUP2 PUSH1 0x3 ADD PUSH0 PUSH2 0x100 EXP DUP2 SLOAD DUP2 PUSH20 0xFFFFFFFFFFFFFFFFFFFFFFFFFFFFFFFFFFFFFFFF MUL NOT AND SWAP1 DUP4 PUSH20 0xFFFFFFFFFFFFFFFFFFFFFFFFFFFFFFFFFFFFFFFF AND MUL OR SWAP1 SSTORE POP PUSH1 0x80 DUP3 ADD MLOAD DUP2 PUSH1 0x4 ADD SSTORE PUSH1 0xA0 DUP3 ADD MLOAD DUP2 PUSH1 0x5 ADD SSTORE SWAP1 POP POP PUSH1 0x3 PUSH0 DUP2 SLOAD DUP1 SWAP3 SWAP2 SWAP1 PUSH2 0x542 SWAP1 PUSH2 0x1485 JUMP JUMPDEST SWAP2 SWAP1 POP SSTORE POP POP POP JUMP JUMPDEST PUSH2 0x553 PUSH2 0xA26 JUMP JUMPDEST PUSH0 DUP1 DUP4 DUP2 MSTORE PUSH1 0x20 ADD SWAP1 DUP2 MSTORE PUSH1 0x20 ADD PUSH0 KECCAK256 PUSH1 0x40 MLOAD DUP1 PUSH1 0xC0 ADD PUSH1 0x40 MSTORE SWAP1 DUP2 PUSH0 DUP3 ADD SLOAD DUP2 MSTORE PUSH1 0x20 ADD PUSH1 0x1 DUP3 ADD DUP1 SLOAD PUSH2 0x587 SWAP1 PUSH2 0x11E9 JUMP JUMPDEST DUP1 PUSH1 0x1F ADD PUSH1 0x20 DUP1 SWAP2 DIV MUL PUSH1 0x20 ADD PUSH1 0x40 MLOAD SWAP1 DUP2 ADD PUSH1 0x40 MSTORE DUP1 SWAP3 SWAP2 SWAP1 DUP2 DUP2 MSTORE PUSH1 0x20 ADD DUP3 DUP1 SLOAD PUSH2 0x5B3 SWAP1 PUSH2 0x11E9 JUMP JUMPDEST DUP1 ISZERO PUSH2 0x5FE JUMPI DUP1 PUSH1 0x1F LT PUSH2 0x5D5 JUMPI PUSH2 0x100 DUP1 DUP4 SLOAD DIV MUL DUP4 MSTORE SWAP2 PUSH1 0x20 ADD SWAP2 PUSH2 0x5FE JUMP JUMPDEST DUP3 ADD SWAP2 SWAP1 PUSH0 MSTORE PUSH1 0x20 PUSH0 KECCAK256 SWAP1 JUMPDEST DUP2 SLOAD DUP2 MSTORE SWAP1 PUSH1 0x1 ADD SWAP1 PUSH1 0x20 ADD DUP1 DUP4 GT PUSH2 0x5E1 JUMPI DUP3 SWAP1 SUB PUSH1 0x1F AND DUP3 ADD SWAP2 JUMPDEST POP POP POP POP POP DUP2 MSTORE PUSH1 0x20 ADD PUSH1 0x2 DUP3 ADD DUP1 SLOAD PUSH2 0x617 SWAP1 PUSH2 0x11E9 JUMP JUMPDEST DUP1 PUSH1 0x1F ADD PUSH1 0x20 DUP1 SWAP2 DIV MUL PUSH1 0x20 ADD PUSH1 0x40 MLOAD SWAP1 DUP2 ADD PUSH1 0x40 MSTORE DUP1 SWAP3 SWAP2 SWAP1 DUP2 DUP2 MSTORE PUSH1 0x20 ADD DUP3 DUP1 SLOAD PUSH2 0x643 SWAP1 PUSH2 0x11E9 JUMP JUMPDEST DUP1 ISZERO PUSH2 0x68E JUMPI DUP1 PUSH1 0x1F LT PUSH2 0x665 JUMPI PUSH2 0x100 DUP1 DUP4 SLOAD DIV MUL DUP4 MSTORE SWAP2 PUSH1 0x20 ADD SWAP2 PUSH2 0x68E JUMP JUMPDEST DUP3 ADD SWAP2 SWAP1 PUSH0 MSTORE PUSH1 0x20 PUSH0 KECCAK256 SWAP1 JUMPDEST DUP2 SLOAD DUP2 MSTORE SWAP1 PUSH1 0x1 ADD SWAP1 PUSH1 0x20 ADD DUP1 DUP4 GT PUSH2 0x671 JUMPI DUP3 SWAP1 SUB PUSH1 0x1F AND DUP3 ADD SWAP2 JUMPDEST POP POP POP POP POP DUP2 MSTORE PUSH1 0x20 ADD PUSH1 0x3 DUP3 ADD PUSH0 SWAP1 SLOAD SWAP1 PUSH2 0x100 EXP SWAP1 DIV PUSH20 0xFFFFFFFFFFFFFFFFFFFFFFFFFFFFFFFFFFFFFFFF AND PUSH20 0xFFFFFFFFFFFFFFFFFFFFFFFFFFFFFFFFFFFFFFFF AND PUSH20 0xFFFFFFFFFFFFFFFFFFFFFFFFFFFFFFFFFFFFFFFF AND DUP2 MSTORE PUSH1 0x20 ADD PUSH1 0x4 DUP3 ADD SLOAD DUP2 MSTORE PUSH1 0x20 ADD PUSH1 0x5 DUP3 ADD SLOAD DUP2 MSTORE POP POP SWAP1 POP SWAP2 SWAP1 POP JUMP JUMPDEST PUSH1 0x40 MLOAD DUP1 PUSH1 0x40 ADD PUSH1 0x40 MSTORE DUP1 DUP3 DUP2 MSTORE PUSH1 0x20 ADD CALLER PUSH20 0xFFFFFFFFFFFFFFFFFFFFFFFFFFFFFFFFFFFFFFFF AND DUP2 MSTORE POP PUSH1 0x2 DUP3 PUSH1 0x40 MLOAD PUSH2 0x742 SWAP2 SWAP1 PUSH2 0x10CE JUMP JUMPDEST SWAP1 DUP2 MSTORE PUSH1 0x20 ADD PUSH1 0x40 MLOAD DUP1 SWAP2 SUB SWAP1 KECCAK256 PUSH0 DUP3 ADD MLOAD DUP2 PUSH0 ADD SWAP1 DUP2 PUSH2 0x763 SWAP2 SWAP1 PUSH2 0x13B6 JUMP JUMPDEST POP PUSH1 0x20 DUP3 ADD MLOAD DUP2 PUSH1 0x1 ADD PUSH0 PUSH2 0x100 EXP DUP2 SLOAD DUP2 PUSH20 0xFFFFFFFFFFFFFFFFFFFFFFFFFFFFFFFFFFFFFFFF MUL NOT AND SWAP1 DUP4 PUSH20 0xFFFFFFFFFFFFFFFFFFFFFFFFFFFFFFFFFFFFFFFF AND MUL OR SWAP1 SSTORE POP SWAP1 POP POP POP JUMP JUMPDEST PUSH1 0x60 PUSH0 PUSH1 0x3 SLOAD PUSH8 0xFFFFFFFFFFFFFFFF DUP2 GT ISZERO PUSH2 0x7CF JUMPI PUSH2 0x7CE PUSH2 0xACA JUMP JUMPDEST JUMPDEST PUSH1 0x40 MLOAD SWAP1 DUP1 DUP3 MSTORE DUP1 PUSH1 0x20 MUL PUSH1 0x20 ADD DUP3 ADD PUSH1 0x40 MSTORE DUP1 ISZERO PUSH2 0x808 JUMPI DUP2 PUSH1 0x20 ADD JUMPDEST PUSH2 0x7F5 PUSH2 0xA26 JUMP JUMPDEST DUP2 MSTORE PUSH1 0x20 ADD SWAP1 PUSH1 0x1 SWAP1 SUB SWAP1 DUP2 PUSH2 0x7ED JUMPI SWAP1 POP JUMPDEST POP SWAP1 POP PUSH0 JUMPDEST PUSH1 0x3 SLOAD DUP2 LT ISZERO PUSH2 0x9EF JUMPI PUSH0 DUP1 DUP3 DUP2 MSTORE PUSH1 0x20 ADD SWAP1 DUP2 MSTORE PUSH1 0x20 ADD PUSH0 KECCAK256 PUSH1 0x40 MLOAD DUP1 PUSH1 0xC0 ADD PUSH1 0x40 MSTORE SWAP1 DUP2 PUSH0 DUP3 ADD SLOAD DUP2 MSTORE PUSH1 0x20 ADD PUSH1 0x1 DUP3 ADD DUP1 SLOAD PUSH2 0x84B SWAP1 PUSH2 0x11E9 JUMP JUMPDEST DUP1 PUSH1 0x1F ADD PUSH1 0x20 DUP1 SWAP2 DIV MUL PUSH1 0x20 ADD PUSH1 0x40 MLOAD SWAP1 DUP2 ADD PUSH1 0x40 MSTORE DUP1 SWAP3 SWAP2 SWAP1 DUP2 DUP2 MSTORE PUSH1 0x20 ADD DUP3 DUP1 SLOAD PUSH2 0x877 SWAP1 PUSH2 0x11E9 JUMP JUMPDEST DUP1 ISZERO PUSH2 0x8C2 JUMPI DUP1 PUSH1 0x1F LT PUSH2 0x899 JUMPI PUSH2 0x100 DUP1 DUP4 SLOAD DIV MUL DUP4 MSTORE SWAP2 PUSH1 0x20 ADD SWAP2 PUSH2 0x8C2 JUMP JUMPDEST DUP3 ADD SWAP2 SWAP1 PUSH0 MSTORE PUSH1 0x20 PUSH0 KECCAK256 SWAP1 JUMPDEST DUP2 SLOAD DUP2 MSTORE SWAP1 PUSH1 0x1 ADD SWAP1 PUSH1 0x20 ADD DUP1 DUP4 GT PUSH2 0x8A5 JUMPI DUP3 SWAP1 SUB PUSH1 0x1F AND DUP3 ADD SWAP2 JUMPDEST POP POP POP POP POP DUP2 MSTORE PUSH1 0x20 ADD PUSH1 0x2 DUP3 ADD DUP1 SLOAD PUSH2 0x8DB SWAP1 PUSH2 0x11E9 JUMP JUMPDEST DUP1 PUSH1 0x1F ADD PUSH1 0x20 DUP1 SWAP2 DIV MUL PUSH1 0x20 ADD PUSH1 0x40 MLOAD SWAP1 DUP2 ADD PUSH1 0x40 MSTORE DUP1 SWAP3 SWAP2 SWAP1 DUP2 DUP2 MSTORE PUSH1 0x20 ADD DUP3 DUP1 SLOAD PUSH2 0x907 SWAP1 PUSH2 0x11E9 JUMP JUMPDEST DUP1 ISZERO PUSH2 0x952 JUMPI DUP1 PUSH1 0x1F LT PUSH2 0x929 JUMPI PUSH2 0x100 DUP1 DUP4 SLOAD DIV MUL DUP4 MSTORE SWAP2 PUSH1 0x20 ADD SWAP2 PUSH2 0x952 JUMP JUMPDEST DUP3 ADD SWAP2 SWAP1 PUSH0 MSTORE PUSH1 0x20 PUSH0 KECCAK256 SWAP1 JUMPDEST DUP2 SLOAD DUP2 MSTORE SWAP1 PUSH1 0x1 ADD SWAP1 PUSH1 0x20 ADD DUP1 DUP4 GT PUSH2 0x935 JUMPI DUP3 SWAP1 SUB PUSH1 0x1F AND DUP3 ADD SWAP2 JUMPDEST POP POP POP POP POP DUP2 MSTORE PUSH1 0x20 ADD PUSH1 0x3 DUP3 ADD PUSH0 SWAP1 SLOAD SWAP1 PUSH2 0x100 EXP SWAP1 DIV PUSH20 0xFFFFFFFFFFFFFFFFFFFFFFFFFFFFFFFFFFFFFFFF AND PUSH20 0xFFFFFFFFFFFFFFFFFFFFFFFFFFFFFFFFFFFFFFFF AND PUSH20 0xFFFFFFFFFFFFFFFFFFFFFFFFFFFFFFFFFFFFFFFF AND DUP2 MSTORE PUSH1 0x20 ADD PUSH1 0x4 DUP3 ADD SLOAD DUP2 MSTORE PUSH1 0x20 ADD PUSH1 0x5 DUP3 ADD SLOAD DUP2 MSTORE POP POP DUP3 DUP3 DUP2 MLOAD DUP2 LT PUSH2 0x9D7 JUMPI PUSH2 0x9D6 PUSH2 0x14CC JUMP JUMPDEST JUMPDEST PUSH1 0x20 MUL PUSH1 0x20 ADD ADD DUP2 SWAP1 MSTORE POP DUP1 DUP1 PUSH1 0x1 ADD SWAP2 POP POP PUSH2 0x80D JUMP JUMPDEST POP DUP1 SWAP2 POP POP SWAP1 JUMP JUMPDEST PUSH1 0x40 MLOAD DUP1 PUSH1 0x40 ADD PUSH1 0x40 MSTORE DUP1 PUSH1 0x60 DUP2 MSTORE PUSH1 0x20 ADD PUSH0 PUSH20 0xFFFFFFFFFFFFFFFFFFFFFFFFFFFFFFFFFFFFFFFF AND DUP2 MSTORE POP SWAP1 JUMP JUMPDEST PUSH1 0x40 MLOAD DUP1 PUSH1 0xC0 ADD PUSH1 0x40 MSTORE DUP1 PUSH0 DUP2 MSTORE PUSH1 0x20 ADD PUSH1 0x60 DUP2 MSTORE PUSH1 0x20 ADD PUSH1 0x60 DUP2 MSTORE PUSH1 0x20 ADD PUSH0 PUSH20 0xFFFFFFFFFFFFFFFFFFFFFFFFFFFFFFFFFFFFFFFF AND DUP2 MSTORE PUSH1 0x20 ADD PUSH0 DUP2 MSTORE PUSH1 0x20 ADD PUSH0 DUP2 MSTORE POP SWAP1 JUMP JUMPDEST PUSH0 PUSH1 0x40 MLOAD SWAP1 POP SWAP1 JUMP JUMPDEST PUSH0 DUP1 REVERT JUMPDEST PUSH0 DUP1 REVERT JUMPDEST PUSH0 DUP2 SWAP1 POP SWAP2 SWAP1 POP JUMP JUMPDEST PUSH2 0xA91 DUP2 PUSH2 0xA7F JUMP JUMPDEST DUP2 EQ PUSH2 0xA9B JUMPI PUSH0 DUP1 REVERT JUMPDEST POP JUMP JUMPDEST PUSH0 DUP2 CALLDATALOAD SWAP1 POP PUSH2 0xAAC DUP2 PUSH2 0xA88 JUMP JUMPDEST SWAP3 SWAP2 POP POP JUMP JUMPDEST PUSH0 DUP1 REVERT JUMPDEST PUSH0 DUP1 REVERT JUMPDEST PUSH0 PUSH1 0x1F NOT PUSH1 0x1F DUP4 ADD AND SWAP1 POP SWAP2 SWAP1 POP JUMP JUMPDEST PUSH32 0x4E487B7100000000000000000000000000000000000000000000000000000000 PUSH0 MSTORE PUSH1 0x41 PUSH1 0x4 MSTORE PUSH1 0x24 PUSH0 REVERT JUMPDEST PUSH2 0xB00 DUP3 PUSH2 0xABA JUMP JUMPDEST DUP2 ADD DUP2 DUP2 LT PUSH8 0xFFFFFFFFFFFFFFFF DUP3 GT OR ISZERO PUSH2 0xB1F JUMPI PUSH2 0xB1E PUSH2 0xACA JUMP JUMPDEST JUMPDEST DUP1 PUSH1 0x40 MSTORE POP POP POP JUMP JUMPDEST PUSH0 PUSH2 0xB31 PUSH2 0xA6E JUMP JUMPDEST SWAP1 POP PUSH2 0xB3D DUP3 DUP3 PUSH2 0xAF7 JUMP JUMPDEST SWAP2 SWAP1 POP JUMP JUMPDEST PUSH0 PUSH8 0xFFFFFFFFFFFFFFFF DUP3 GT ISZERO PUSH2 0xB5C JUMPI PUSH2 0xB5B PUSH2 0xACA JUMP JUMPDEST JUMPDEST PUSH2 0xB65 DUP3 PUSH2 0xABA JUMP JUMPDEST SWAP1 POP PUSH1 0x20 DUP2 ADD SWAP1 POP SWAP2 SWAP1 POP JUMP JUMPDEST DUP3 DUP2 DUP4 CALLDATACOPY PUSH0 DUP4 DUP4 ADD MSTORE POP POP POP JUMP JUMPDEST PUSH0 PUSH2 0xB92 PUSH2 0xB8D DUP5 PUSH2 0xB42 JUMP JUMPDEST PUSH2 0xB28 JUMP JUMPDEST SWAP1 POP DUP3 DUP2 MSTORE PUSH1 0x20 DUP2 ADD DUP5 DUP5 DUP5 ADD GT ISZERO PUSH2 0xBAE JUMPI PUSH2 0xBAD PUSH2 0xAB6 JUMP JUMPDEST JUMPDEST PUSH2 0xBB9 DUP5 DUP3 DUP6 PUSH2 0xB72 JUMP JUMPDEST POP SWAP4 SWAP3 POP POP POP JUMP JUMPDEST PUSH0 DUP3 PUSH1 0x1F DUP4 ADD SLT PUSH2 0xBD5 JUMPI PUSH2 0xBD4 PUSH2 0xAB2 JUMP JUMPDEST JUMPDEST DUP2 CALLDATALOAD PUSH2 0xBE5 DUP5 DUP3 PUSH1 0x20 DUP7 ADD PUSH2 0xB80 JUMP JUMPDEST SWAP2 POP POP SWAP3 SWAP2 POP POP JUMP JUMPDEST PUSH0 DUP2 ISZERO ISZERO SWAP1 POP SWAP2 SWAP1 POP JUMP JUMPDEST PUSH2 0xC02 DUP2 PUSH2 0xBEE JUMP JUMPDEST DUP2 EQ PUSH2 0xC0C JUMPI PUSH0 DUP1 REVERT JUMPDEST POP JUMP JUMPDEST PUSH0 DUP2 CALLDATALOAD SWAP1 POP PUSH2 0xC1D DUP2 PUSH2 0xBF9 JUMP JUMPDEST SWAP3 SWAP2 POP POP JUMP JUMPDEST PUSH0 DUP1 PUSH0 PUSH1 0x60 DUP5 DUP7 SUB SLT ISZERO PUSH2 0xC3A JUMPI PUSH2 0xC39 PUSH2 0xA77 JUMP JUMPDEST JUMPDEST PUSH0 PUSH2 0xC47 DUP7 DUP3 DUP8 ADD PUSH2 0xA9E JUMP JUMPDEST SWAP4 POP POP PUSH1 0x20 DUP5 ADD CALLDATALOAD PUSH8 0xFFFFFFFFFFFFFFFF DUP2 GT ISZERO PUSH2 0xC68 JUMPI PUSH2 0xC67 PUSH2 0xA7B JUMP JUMPDEST JUMPDEST PUSH2 0xC74 DUP7 DUP3 DUP8 ADD PUSH2 0xBC1 JUMP JUMPDEST SWAP3 POP POP PUSH1 0x40 PUSH2 0xC85 DUP7 DUP3 DUP8 ADD PUSH2 0xC0F JUMP JUMPDEST SWAP2 POP POP SWAP3 POP SWAP3 POP SWAP3 JUMP JUMPDEST PUSH0 PUSH1 0x20 DUP3 DUP5 SUB SLT ISZERO PUSH2 0xCA4 JUMPI PUSH2 0xCA3 PUSH2 0xA77 JUMP JUMPDEST JUMPDEST PUSH0 DUP3 ADD CALLDATALOAD PUSH8 0xFFFFFFFFFFFFFFFF DUP2 GT ISZERO PUSH2 0xCC1 JUMPI PUSH2 0xCC0 PUSH2 0xA7B JUMP JUMPDEST JUMPDEST PUSH2 0xCCD DUP5 DUP3 DUP6 ADD PUSH2 0xBC1 JUMP JUMPDEST SWAP2 POP POP SWAP3 SWAP2 POP POP JUMP JUMPDEST PUSH0 DUP2 MLOAD SWAP1 POP SWAP2 SWAP1 POP JUMP JUMPDEST PUSH0 DUP3 DUP3 MSTORE PUSH1 0x20 DUP3 ADD SWAP1 POP SWAP3 SWAP2 POP POP JUMP JUMPDEST DUP3 DUP2 DUP4 MCOPY PUSH0 DUP4 DUP4 ADD MSTORE POP POP POP JUMP JUMPDEST PUSH0 PUSH2 0xD08 DUP3 PUSH2 0xCD6 JUMP JUMPDEST PUSH2 0xD12 DUP2 DUP6 PUSH2 0xCE0 JUMP JUMPDEST SWAP4 POP PUSH2 0xD22 DUP2 DUP6 PUSH1 0x20 DUP7 ADD PUSH2 0xCF0 JUMP JUMPDEST PUSH2 0xD2B DUP2 PUSH2 0xABA JUMP JUMPDEST DUP5 ADD SWAP2 POP POP SWAP3 SWAP2 POP POP JUMP JUMPDEST PUSH0 PUSH20 0xFFFFFFFFFFFFFFFFFFFFFFFFFFFFFFFFFFFFFFFF DUP3 AND SWAP1 POP SWAP2 SWAP1 POP JUMP JUMPDEST PUSH0 PUSH2 0xD5F DUP3 PUSH2 0xD36 JUMP JUMPDEST SWAP1 POP SWAP2 SWAP1 POP JUMP JUMPDEST PUSH2 0xD6F DUP2 PUSH2 0xD55 JUMP JUMPDEST DUP3 MSTORE POP POP JUMP JUMPDEST PUSH0 PUSH1 0x40 DUP4 ADD PUSH0 DUP4 ADD MLOAD DUP5 DUP3 SUB PUSH0 DUP7 ADD MSTORE PUSH2 0xD8F DUP3 DUP3 PUSH2 0xCFE JUMP JUMPDEST SWAP2 POP POP PUSH1 0x20 DUP4 ADD MLOAD PUSH2 0xDA4 PUSH1 0x20 DUP7 ADD DUP3 PUSH2 0xD66 JUMP JUMPDEST POP DUP1 SWAP2 POP POP SWAP3 SWAP2 POP POP JUMP JUMPDEST PUSH0 PUSH1 0x20 DUP3 ADD SWAP1 POP DUP2 DUP2 SUB PUSH0 DUP4 ADD MSTORE PUSH2 0xDC7 DUP2 DUP5 PUSH2 0xD75 JUMP JUMPDEST SWAP1 POP SWAP3 SWAP2 POP POP JUMP JUMPDEST PUSH0 DUP1 PUSH1 0x40 DUP4 DUP6 SUB SLT ISZERO PUSH2 0xDE5 JUMPI PUSH2 0xDE4 PUSH2 0xA77 JUMP JUMPDEST JUMPDEST PUSH0 DUP4 ADD CALLDATALOAD PUSH8 0xFFFFFFFFFFFFFFFF DUP2 GT ISZERO PUSH2 0xE02 JUMPI PUSH2 0xE01 PUSH2 0xA7B JUMP JUMPDEST JUMPDEST PUSH2 0xE0E DUP6 DUP3 DUP7 ADD PUSH2 0xBC1 JUMP JUMPDEST SWAP3 POP POP PUSH1 0x20 DUP4 ADD CALLDATALOAD PUSH8 0xFFFFFFFFFFFFFFFF DUP2 GT ISZERO PUSH2 0xE2F JUMPI PUSH2 0xE2E PUSH2 0xA7B JUMP JUMPDEST JUMPDEST PUSH2 0xE3B DUP6 DUP3 DUP7 ADD PUSH2 0xBC1 JUMP JUMPDEST SWAP2 POP POP SWAP3 POP SWAP3 SWAP1 POP JUMP JUMPDEST PUSH0 PUSH1 0x20 DUP3 DUP5 SUB SLT ISZERO PUSH2 0xE5A JUMPI PUSH2 0xE59 PUSH2 0xA77 JUMP JUMPDEST JUMPDEST PUSH0 PUSH2 0xE67 DUP5 DUP3 DUP6 ADD PUSH2 0xA9E JUMP JUMPDEST SWAP2 POP POP SWAP3 SWAP2 POP POP JUMP JUMPDEST PUSH2 0xE79 DUP2 PUSH2 0xA7F JUMP JUMPDEST DUP3 MSTORE POP POP JUMP JUMPDEST PUSH0 PUSH1 0xC0 DUP4 ADD PUSH0 DUP4 ADD MLOAD PUSH2 0xE94 PUSH0 DUP7 ADD DUP3 PUSH2 0xE70 JUMP JUMPDEST POP PUSH1 0x20 DUP4 ADD MLOAD DUP5 DUP3 SUB PUSH1 0x20 DUP7 ADD MSTORE PUSH2 0xEAC DUP3 DUP3 PUSH2 0xCFE JUMP JUMPDEST SWAP2 POP POP PUSH1 0x40 DUP4 ADD MLOAD DUP5 DUP3 SUB PUSH1 0x40 DUP7 ADD MSTORE PUSH2 0xEC6 DUP3 DUP3 PUSH2 0xCFE JUMP JUMPDEST SWAP2 POP POP PUSH1 0x60 DUP4 ADD MLOAD PUSH2 0xEDB PUSH1 0x60 DUP7 ADD DUP3 PUSH2 0xD66 JUMP JUMPDEST POP PUSH1 0x80 DUP4 ADD MLOAD PUSH2 0xEEE PUSH1 0x80 DUP7 ADD DUP3 PUSH2 0xE70 JUMP JUMPDEST POP PUSH1 0xA0 DUP4 ADD MLOAD PUSH2 0xF01 PUSH1 0xA0 DUP7 ADD DUP3 PUSH2 0xE70 JUMP JUMPDEST POP DUP1 SWAP2 POP POP SWAP3 SWAP2 POP POP JUMP JUMPDEST PUSH0 PUSH1 0x20 DUP3 ADD SWAP1 POP DUP2 DUP2 SUB PUSH0 DUP4 ADD MSTORE PUSH2 0xF24 DUP2 DUP5 PUSH2 0xE7F JUMP JUMPDEST SWAP1 POP SWAP3 SWAP2 POP POP JUMP JUMPDEST PUSH0 DUP2 MLOAD SWAP1 POP SWAP2 SWAP1 POP JUMP JUMPDEST PUSH0 DUP3 DUP3 MSTORE PUSH1 0x20 DUP3 ADD SWAP1 POP SWAP3 SWAP2 POP POP JUMP JUMPDEST PUSH0 DUP2 SWAP1 POP PUSH1 0x20 DUP3 ADD SWAP1 POP SWAP2 SWAP1 POP JUMP JUMPDEST PUSH0 PUSH1 0xC0 DUP4 ADD PUSH0 DUP4 ADD MLOAD PUSH2 0xF6A PUSH0 DUP7 ADD DUP3 PUSH2 0xE70 JUMP JUMPDEST POP PUSH1 0x20 DUP4 ADD MLOAD DUP5 DUP3 SUB PUSH1 0x20 DUP7 ADD MSTORE PUSH2 0xF82 DUP3 DUP3 PUSH2 0xCFE JUMP JUMPDEST SWAP2 POP POP PUSH1 0x40 DUP4 ADD MLOAD DUP5 DUP3 SUB PUSH1 0x40 DUP7 ADD MSTORE PUSH2 0xF9C DUP3 DUP3 PUSH2 0xCFE JUMP JUMPDEST SWAP2 POP POP PUSH1 0x60 DUP4 ADD MLOAD PUSH2 0xFB1 PUSH1 0x60 DUP7 ADD DUP3 PUSH2 0xD66 JUMP JUMPDEST POP PUSH1 0x80 DUP4 ADD MLOAD PUSH2 0xFC4 PUSH1 0x80 DUP7 ADD DUP3 PUSH2 0xE70 JUMP JUMPDEST POP PUSH1 0xA0 DUP4 ADD MLOAD PUSH2 0xFD7 PUSH1 0xA0 DUP7 ADD DUP3 PUSH2 0xE70 JUMP JUMPDEST POP DUP1 SWAP2 POP POP SWAP3 SWAP2 POP POP JUMP JUMPDEST PUSH0 PUSH2 0xFED DUP4 DUP4 PUSH2 0xF55 JUMP JUMPDEST SWAP1 POP SWAP3 SWAP2 POP POP JUMP JUMPDEST PUSH0 PUSH1 0x20 DUP3 ADD SWAP1 POP SWAP2 SWAP1 POP JUMP JUMPDEST PUSH0 PUSH2 0x100B DUP3 PUSH2 0xF2C JUMP JUMPDEST PUSH2 0x1015 DUP2 DUP6 PUSH2 0xF36 JUMP JUMPDEST SWAP4 POP DUP4 PUSH1 0x20 DUP3 MUL DUP6 ADD PUSH2 0x1027 DUP6 PUSH2 0xF46 JUMP JUMPDEST DUP1 PUSH0 JUMPDEST DUP6 DUP2 LT ISZERO PUSH2 0x1062 JUMPI DUP5 DUP5 SUB DUP10 MSTORE DUP2 MLOAD PUSH2 0x1043 DUP6 DUP3 PUSH2 0xFE2 JUMP JUMPDEST SWAP5 POP PUSH2 0x104E DUP4 PUSH2 0xFF5 JUMP JUMPDEST SWAP3 POP PUSH1 0x20 DUP11 ADD SWAP10 POP POP PUSH1 0x1 DUP2 ADD SWAP1 POP PUSH2 0x102A JUMP JUMPDEST POP DUP3 SWAP8 POP DUP8 SWAP6 POP POP POP POP POP POP SWAP3 SWAP2 POP POP JUMP JUMPDEST PUSH0 PUSH1 0x20 DUP3 ADD SWAP1 POP DUP2 DUP2 SUB PUSH0 DUP4 ADD MSTORE PUSH2 0x108C DUP2 DUP5 PUSH2 0x1001 JUMP JUMPDEST SWAP1 POP SWAP3 SWAP2 POP POP JUMP JUMPDEST PUSH0 DUP2 SWAP1 POP SWAP3 SWAP2 POP POP JUMP JUMPDEST PUSH0 PUSH2 0x10A8 DUP3 PUSH2 0xCD6 JUMP JUMPDEST PUSH2 0x10B2 DUP2 DUP6 PUSH2 0x1094 JUMP JUMPDEST SWAP4 POP PUSH2 0x10C2 DUP2 DUP6 PUSH1 0x20 DUP7 ADD PUSH2 0xCF0 JUMP JUMPDEST DUP1 DUP5 ADD SWAP2 POP POP SWAP3 SWAP2 POP POP JUMP JUMPDEST PUSH0 PUSH2 0x10D9 DUP3 DUP5 PUSH2 0x109E JUMP JUMPDEST SWAP2 POP DUP2 SWAP1 POP SWAP3 SWAP2 POP POP JUMP JUMPDEST PUSH0 DUP3 DUP3 MSTORE PUSH1 0x20 DUP3 ADD SWAP1 POP SWAP3 SWAP2 POP POP JUMP JUMPDEST PUSH32 0x616C726561647920766F74656400000000000000000000000000000000000000 PUSH0 DUP3 ADD MSTORE POP JUMP JUMPDEST PUSH0 PUSH2 0x1128 PUSH1 0xD DUP4 PUSH2 0x10E4 JUMP JUMPDEST SWAP2 POP PUSH2 0x1133 DUP3 PUSH2 0x10F4 JUMP JUMPDEST PUSH1 0x20 DUP3 ADD SWAP1 POP SWAP2 SWAP1 POP JUMP JUMPDEST PUSH0 PUSH1 0x20 DUP3 ADD SWAP1 POP DUP2 DUP2 SUB PUSH0 DUP4 ADD MSTORE PUSH2 0x1155 DUP2 PUSH2 0x111C JUMP JUMPDEST SWAP1 POP SWAP2 SWAP1 POP JUMP JUMPDEST PUSH32 0x4E487B7100000000000000000000000000000000000000000000000000000000 PUSH0 MSTORE PUSH1 0x11 PUSH1 0x4 MSTORE PUSH1 0x24 PUSH0 REVERT JUMPDEST PUSH0 PUSH2 0x1193 DUP3 PUSH2 0xA7F JUMP JUMPDEST SWAP2 POP PUSH2 0x119E DUP4 PUSH2 0xA7F JUMP JUMPDEST SWAP3 POP DUP3 DUP3 ADD SWAP1 POP DUP1 DUP3 GT ISZERO PUSH2 0x11B6 JUMPI PUSH2 0x11B5 PUSH2 0x115C JUMP JUMPDEST JUMPDEST SWAP3 SWAP2 POP POP JUMP JUMPDEST PUSH32 0x4E487B7100000000000000000000000000000000000000000000000000000000 PUSH0 MSTORE PUSH1 0x22 PUSH1 0x4 MSTORE PUSH1 0x24 PUSH0 REVERT JUMPDEST PUSH0 PUSH1 0x2 DUP3 DIV SWAP1 POP PUSH1 0x1 DUP3 AND DUP1 PUSH2 0x1200 JUMPI PUSH1 0x7F DUP3 AND SWAP2 POP JUMPDEST PUSH1 0x20 DUP3 LT DUP2 SUB PUSH2 0x1213 JUMPI PUSH2 0x1212 PUSH2 0x11BC JUMP JUMPDEST JUMPDEST POP SWAP2 SWAP1 POP JUMP JUMPDEST PUSH0 DUP2 SWAP1 POP DUP2 PUSH0 MSTORE PUSH1 0x20 PUSH0 KECCAK256 SWAP1 POP SWAP2 SWAP1 POP JUMP JUMPDEST PUSH0 PUSH1 0x20 PUSH1 0x1F DUP4 ADD DIV SWAP1 POP SWAP2 SWAP1 POP JUMP JUMPDEST PUSH0 DUP3 DUP3 SHL SWAP1 POP SWAP3 SWAP2 POP POP JUMP JUMPDEST PUSH0 PUSH1 0x8 DUP4 MUL PUSH2 0x1275 PUSH32 0xFFFFFFFFFFFFFFFFFFFFFFFFFFFFFFFFFFFFFFFFFFFFFFFFFFFFFFFFFFFFFFFF DUP3 PUSH2 0x123A JUMP JUMPDEST PUSH2 0x127F DUP7 DUP4 PUSH2 0x123A JUMP JUMPDEST SWAP6 POP DUP1 NOT DUP5 AND SWAP4 POP DUP1 DUP7 AND DUP5 OR SWAP3 POP POP POP SWAP4 SWAP3 POP POP POP JUMP JUMPDEST PUSH0 DUP2 SWAP1 POP SWAP2 SWAP1 POP JUMP JUMPDEST PUSH0 PUSH2 0x12BA PUSH2 0x12B5 PUSH2 0x12B0 DUP5 PUSH2 0xA7F JUMP JUMPDEST PUSH2 0x1297 JUMP JUMPDEST PUSH2 0xA7F JUMP JUMPDEST SWAP1 POP SWAP2 SWAP1 POP JUMP JUMPDEST PUSH0 DUP2 SWAP1 POP SWAP2 SWAP1 POP JUMP JUMPDEST PUSH2 0x12D3 DUP4 PUSH2 0x12A0 JUMP JUMPDEST PUSH2 0x12E7 PUSH2 0x12DF DUP3 PUSH2 0x12C1 JUMP JUMPDEST DUP5 DUP5 SLOAD PUSH2 0x1246 JUMP JUMPDEST DUP3 SSTORE POP POP POP POP JUMP JUMPDEST PUSH0 SWAP1 JUMP JUMPDEST PUSH2 0x12FB PUSH2 0x12EF JUMP JUMPDEST PUSH2 0x1306 DUP2 DUP5 DUP5 PUSH2 0x12CA JUMP JUMPDEST POP POP POP JUMP JUMPDEST JUMPDEST DUP2 DUP2 LT ISZERO PUSH2 0x1329 JUMPI PUSH2 0x131E PUSH0 DUP3 PUSH2 0x12F3 JUMP JUMPDEST PUSH1 0x1 DUP2 ADD SWAP1 POP PUSH2 0x130C JUMP JUMPDEST POP POP JUMP JUMPDEST PUSH1 0x1F DUP3 GT ISZERO PUSH2 0x136E JUMPI PUSH2 0x133F DUP2 PUSH2 0x1219 JUMP JUMPDEST PUSH2 0x1348 DUP5 PUSH2 0x122B JUMP JUMPDEST DUP2 ADD PUSH1 0x20 DUP6 LT ISZERO PUSH2 0x1357 JUMPI DUP2 SWAP1 POP JUMPDEST PUSH2 0x136B PUSH2 0x1363 DUP6 PUSH2 0x122B JUMP JUMPDEST DUP4 ADD DUP3 PUSH2 0x130B JUMP JUMPDEST POP POP JUMPDEST POP POP POP JUMP JUMPDEST PUSH0 DUP3 DUP3 SHR SWAP1 POP SWAP3 SWAP2 POP POP JUMP JUMPDEST PUSH0 PUSH2 0x138E PUSH0 NOT DUP5 PUSH1 0x8 MUL PUSH2 0x1373 JUMP JUMPDEST NOT DUP1 DUP4 AND SWAP2 POP POP SWAP3 SWAP2 POP POP JUMP JUMPDEST PUSH0 PUSH2 0x13A6 DUP4 DUP4 PUSH2 0x137F JUMP JUMPDEST SWAP2 POP DUP3 PUSH1 0x2 MUL DUP3 OR SWAP1 POP SWAP3 SWAP2 POP POP JUMP JUMPDEST PUSH2 0x13BF DUP3 PUSH2 0xCD6 JUMP JUMPDEST PUSH8 0xFFFFFFFFFFFFFFFF DUP2 GT ISZERO PUSH2 0x13D8 JUMPI PUSH2 0x13D7 PUSH2 0xACA JUMP JUMPDEST JUMPDEST PUSH2 0x13E2 DUP3 SLOAD PUSH2 0x11E9 JUMP JUMPDEST PUSH2 0x13ED DUP3 DUP3 DUP6 PUSH2 0x132D JUMP JUMPDEST PUSH0 PUSH1 0x20 SWAP1 POP PUSH1 0x1F DUP4 GT PUSH1 0x1 DUP2 EQ PUSH2 0x141E JUMPI PUSH0 DUP5 ISZERO PUSH2 0x140C JUMPI DUP3 DUP8 ADD MLOAD SWAP1 POP JUMPDEST PUSH2 0x1416 DUP6 DUP3 PUSH2 0x139B JUMP JUMPDEST DUP7 SSTORE POP PUSH2 0x147D JUMP JUMPDEST PUSH1 0x1F NOT DUP5 AND PUSH2 0x142C DUP7 PUSH2 0x1219 JUMP JUMPDEST PUSH0 JUMPDEST DUP3 DUP2 LT ISZERO PUSH2 0x1453 JUMPI DUP5 DUP10 ADD MLOAD DUP3 SSTORE PUSH1 0x1 DUP3 ADD SWAP2 POP PUSH1 0x20 DUP6 ADD SWAP5 POP PUSH1 0x20 DUP2 ADD SWAP1 POP PUSH2 0x142E JUMP JUMPDEST DUP7 DUP4 LT ISZERO PUSH2 0x1470 JUMPI DUP5 DUP10 ADD MLOAD PUSH2 0x146C PUSH1 0x1F DUP10 AND DUP3 PUSH2 0x137F JUMP JUMPDEST DUP4 SSTORE POP JUMPDEST PUSH1 0x1 PUSH1 0x2 DUP9 MUL ADD DUP9 SSTORE POP POP POP JUMPDEST POP POP POP POP POP POP JUMP JUMPDEST PUSH0 PUSH2 0x148F DUP3 PUSH2 0xA7F JUMP JUMPDEST SWAP2 POP PUSH32 0xFFFFFFFFFFFFFFFFFFFFFFFFFFFFFFFFFFFFFFFFFFFFFFFFFFFFFFFFFFFFFFFF DUP3 SUB PUSH2 0x14C1 JUMPI PUSH2 0x14C0 PUSH2 0x115C JUMP JUMPDEST JUMPDEST PUSH1 0x1 DUP3 ADD SWAP1 POP SWAP2 SWAP1 POP JUMP JUMPDEST PUSH32 0x4E487B7100000000000000000000000000000000000000000000000000000000 PUSH0 MSTORE PUSH1 0x32 PUSH1 0x4 MSTORE PUSH1 0x24 PUSH0 REVERT INVALID LOG2 PUSH5 0x6970667358 0x22 SLT KECCAK256 0x2C BALANCE SLT 0x4C SHL LT 0xBD 0xD7 PUSH23 0xCC4505B22D9498F9F6462D8375B3DF49224EAE157EA797 PUSH5 0x736F6C6343 STOP ADDMOD NOT STOP CALLER "
				},
				"gasEstimates": {
					"creation": {
						"codeDepositCost": "1084600",
						"executionCost": "23231",
						"totalCost": "1107831"
					},
					"external": {
						"getTopic(uint256)": "infinite",
						"getTopics()": "infinite",
						"getUser(string)": "infinite",
						"setTopic(string,string)": "infinite",
						"setUser(string)": "infinite",
						"voting(uint256,string,bool)": "infinite"
					}
				},
				"methodIdentifiers": {
					"getTopic(uint256)": "71658896",
					"getTopics()": "fee01177",
					"getUser(string)": "31feb671",
					"setTopic(string,string)": "4ac3e917",
					"setUser(string)": "d0020fad",
					"voting(uint256,string,bool)": "2f0cc93f"
				}
			},
			"storageLayout": {
				"storage": [
					{
						"astId": 19,
						"contract": "solidity_test/test8.sol:a",
						"label": "topics",
						"offset": 0,
						"slot": "0",
						"type": "t_mapping(t_uint256,t_struct(topic)14_storage)"
					},
					{
						"astId": 30,
						"contract": "solidity_test/test8.sol:a",
						"label": "vote",
						"offset": 0,
						"slot": "1",
						"type": "t_mapping(t_address,t_mapping(t_string_memory_ptr,t_bool))"
					},
					{
						"astId": 35,
						"contract": "solidity_test/test8.sol:a",
						"label": "users",
						"offset": 0,
						"slot": "2",
						"type": "t_mapping(t_string_memory_ptr,t_struct(user)24_storage)"
					},
					{
						"astId": 38,
						"contract": "solidity_test/test8.sol:a",
						"label": "topicNum",
						"offset": 0,
						"slot": "3",
						"type": "t_uint256"
					}
				],
				"types": {
					"t_address": {
						"encoding": "inplace",
						"label": "address",
						"numberOfBytes": "20"
					},
					"t_bool": {
						"encoding": "inplace",
						"label": "bool",
						"numberOfBytes": "1"
					},
					"t_mapping(t_address,t_mapping(t_string_memory_ptr,t_bool))": {
						"encoding": "mapping",
						"key": "t_address",
						"label": "mapping(address => mapping(string => bool))",
						"numberOfBytes": "32",
						"value": "t_mapping(t_string_memory_ptr,t_bool)"
					},
					"t_mapping(t_string_memory_ptr,t_bool)": {
						"encoding": "mapping",
						"key": "t_string_memory_ptr",
						"label": "mapping(string => bool)",
						"numberOfBytes": "32",
						"value": "t_bool"
					},
					"t_mapping(t_string_memory_ptr,t_struct(user)24_storage)": {
						"encoding": "mapping",
						"key": "t_string_memory_ptr",
						"label": "mapping(string => struct a.user)",
						"numberOfBytes": "32",
						"value": "t_struct(user)24_storage"
					},
					"t_mapping(t_uint256,t_struct(topic)14_storage)": {
						"encoding": "mapping",
						"key": "t_uint256",
						"label": "mapping(uint256 => struct a.topic)",
						"numberOfBytes": "32",
						"value": "t_struct(topic)14_storage"
					},
					"t_string_memory_ptr": {
						"encoding": "bytes",
						"label": "string",
						"numberOfBytes": "32"
					},
					"t_string_storage": {
						"encoding": "bytes",
						"label": "string",
						"numberOfBytes": "32"
					},
					"t_struct(topic)14_storage": {
						"encoding": "inplace",
						"label": "struct a.topic",
						"members": [
							{
								"astId": 3,
								"contract": "solidity_test/test8.sol:a",
								"label": "number",
								"offset": 0,
								"slot": "0",
								"type": "t_uint256"
							},
							{
								"astId": 5,
								"contract": "solidity_test/test8.sol:a",
								"label": "subject",
								"offset": 0,
								"slot": "1",
								"type": "t_string_storage"
							},
							{
								"astId": 7,
								"contract": "solidity_test/test8.sol:a",
								"label": "content",
								"offset": 0,
								"slot": "2",
								"type": "t_string_storage"
							},
							{
								"astId": 9,
								"contract": "solidity_test/test8.sol:a",
								"label": "proposer",
								"offset": 0,
								"slot": "3",
								"type": "t_address"
							},
							{
								"astId": 11,
								"contract": "solidity_test/test8.sol:a",
								"label": "upvote",
								"offset": 0,
								"slot": "4",
								"type": "t_uint256"
							},
							{
								"astId": 13,
								"contract": "solidity_test/test8.sol:a",
								"label": "downvote",
								"offset": 0,
								"slot": "5",
								"type": "t_uint256"
							}
						],
						"numberOfBytes": "192"
					},
					"t_struct(user)24_storage": {
						"encoding": "inplace",
						"label": "struct a.user",
						"members": [
							{
								"astId": 21,
								"contract": "solidity_test/test8.sol:a",
								"label": "name",
								"offset": 0,
								"slot": "0",
								"type": "t_string_storage"
							},
							{
								"astId": 23,
								"contract": "solidity_test/test8.sol:a",
								"label": "wallet",
								"offset": 0,
								"slot": "1",
								"type": "t_address"
							}
						],
						"numberOfBytes": "64"
					},
					"t_uint256": {
						"encoding": "inplace",
						"label": "uint256",
						"numberOfBytes": "32"
					}
				}
			},
			"userdoc": {
				"kind": "user",
				"methods": {},
				"version": 1
			}
		}
	}
}