{
	"solidity_test/test4.sol": {
		"Answer": {
			"abi": [
				{
					"inputs": [],
					"stateMutability": "nonpayable",
					"type": "constructor"
				},
				{
					"inputs": [],
					"name": "join",
					"outputs": [],
					"stateMutability": "payable",
					"type": "function"
				},
				{
					"inputs": [
						{
							"internalType": "address",
							"name": "_addr",
							"type": "address"
						}
					],
					"name": "search",
					"outputs": [
						{
							"components": [
								{
									"internalType": "uint256",
									"name": "number",
									"type": "uint256"
								},
								{
									"internalType": "string",
									"name": "name",
									"type": "string"
								},
								{
									"internalType": "address",
									"name": "wallet",
									"type": "address"
								},
								{
									"internalType": "uint256",
									"name": "balance",
									"type": "uint256"
								},
								{
									"internalType": "uint256",
									"name": "score",
									"type": "uint256"
								}
							],
							"internalType": "struct Answer.USER",
							"name": "",
							"type": "tuple"
						}
					],
					"stateMutability": "view",
					"type": "function"
				},
				{
					"inputs": [
						{
							"internalType": "string",
							"name": "_name",
							"type": "string"
						}
					],
					"name": "signIn",
					"outputs": [],
					"stateMutability": "nonpayable",
					"type": "function"
				}
			],
			"devdoc": {
				"kind": "dev",
				"methods": {},
				"version": 1
			},
			"evm": {
				"assembly": "    /* \"solidity_test/test4.sol\":3821:5394  contract Answer {... */\n  mstore(0x40, 0x80)\n    /* \"solidity_test/test4.sol\":4588:4684  constructor() {... */\n  callvalue\n  dup1\n  iszero\n  tag_1\n  jumpi\n  0x00\n  dup1\n  revert\ntag_1:\n  pop\n    /* \"solidity_test/test4.sol\":4629:4639  msg.sender */\n  caller\n    /* \"solidity_test/test4.sol\":4613:4618  owner */\n  0x00\n  dup1\n    /* \"solidity_test/test4.sol\":4613:4640  owner = payable(msg.sender) */\n  0x0100\n  exp\n  dup2\n  sload\n  dup2\n  0xffffffffffffffffffffffffffffffffffffffff\n  mul\n  not\n  and\n  swap1\n  dup4\n  0xffffffffffffffffffffffffffffffffffffffff\n  and\n  mul\n  or\n  swap1\n  sstore\n  pop\n    /* \"solidity_test/test4.sol\":3821:5394  contract Answer {... */\n  dataSize(sub_0)\n  dup1\n  dataOffset(sub_0)\n  0x00\n  codecopy\n  0x00\n  return\nstop\n\nsub_0: assembly {\n        /* \"solidity_test/test4.sol\":3821:5394  contract Answer {... */\n      mstore(0x40, 0x80)\n      jumpi(tag_1, lt(calldatasize, 0x04))\n      shr(0xe0, calldataload(0x00))\n      dup1\n      0x657a2512\n      eq\n      tag_2\n      jumpi\n      dup1\n      0xb688a363\n      eq\n      tag_3\n      jumpi\n      dup1\n      0xc95f728a\n      eq\n      tag_4\n      jumpi\n    tag_1:\n      0x00\n      dup1\n      revert\n        /* \"solidity_test/test4.sol\":5069:5172  function search(address _addr) public view returns(USER memory)  {... */\n    tag_2:\n      callvalue\n      dup1\n      iszero\n      tag_5\n      jumpi\n      0x00\n      dup1\n      revert\n    tag_5:\n      pop\n      tag_6\n      0x04\n      dup1\n      calldatasize\n      sub\n      dup2\n      add\n      swap1\n      tag_7\n      swap2\n      swap1\n      tag_8\n      jump\t// in\n    tag_7:\n      tag_9\n      jump\t// in\n    tag_6:\n      mload(0x40)\n      tag_10\n      swap2\n      swap1\n      tag_11\n      jump\t// in\n    tag_10:\n      mload(0x40)\n      dup1\n      swap2\n      sub\n      swap1\n      return\n        /* \"solidity_test/test4.sol\":5291:5391  function join() public payable {... */\n    tag_3:\n      tag_12\n      tag_13\n      jump\t// in\n    tag_12:\n      stop\n        /* \"solidity_test/test4.sol\":4849:4965  function signIn(string memory _name) public {... */\n    tag_4:\n      callvalue\n      dup1\n      iszero\n      tag_14\n      jumpi\n      0x00\n      dup1\n      revert\n    tag_14:\n      pop\n      tag_15\n      0x04\n      dup1\n      calldatasize\n      sub\n      dup2\n      add\n      swap1\n      tag_16\n      swap2\n      swap1\n      tag_17\n      jump\t// in\n    tag_16:\n      tag_18\n      jump\t// in\n    tag_15:\n      stop\n        /* \"solidity_test/test4.sol\":5069:5172  function search(address _addr) public view returns(USER memory)  {... */\n    tag_9:\n        /* \"solidity_test/test4.sol\":5120:5131  USER memory */\n      tag_19\n      tag_20\n      jump\t// in\n    tag_19:\n        /* \"solidity_test/test4.sol\":5152:5157  users */\n      0x01\n        /* \"solidity_test/test4.sol\":5152:5164  users[_addr] */\n      0x00\n        /* \"solidity_test/test4.sol\":5158:5163  _addr */\n      dup4\n        /* \"solidity_test/test4.sol\":5152:5164  users[_addr] */\n      0xffffffffffffffffffffffffffffffffffffffff\n      and\n      0xffffffffffffffffffffffffffffffffffffffff\n      and\n      dup2\n      mstore\n      0x20\n      add\n      swap1\n      dup2\n      mstore\n      0x20\n      add\n      0x00\n      keccak256\n        /* \"solidity_test/test4.sol\":5145:5164  return users[_addr] */\n      mload(0x40)\n      dup1\n      0xa0\n      add\n      0x40\n      mstore\n      swap1\n      dup2\n      0x00\n      dup3\n      add\n      sload\n      dup2\n      mstore\n      0x20\n      add\n      0x01\n      dup3\n      add\n      dup1\n      sload\n      tag_22\n      swap1\n      tag_23\n      jump\t// in\n    tag_22:\n      dup1\n      0x1f\n      add\n      0x20\n      dup1\n      swap2\n      div\n      mul\n      0x20\n      add\n      mload(0x40)\n      swap1\n      dup2\n      add\n      0x40\n      mstore\n      dup1\n      swap3\n      swap2\n      swap1\n      dup2\n      dup2\n      mstore\n      0x20\n      add\n      dup3\n      dup1\n      sload\n      tag_24\n      swap1\n      tag_23\n      jump\t// in\n    tag_24:\n      dup1\n      iszero\n      tag_25\n      jumpi\n      dup1\n      0x1f\n      lt\n      tag_26\n      jumpi\n      0x0100\n      dup1\n      dup4\n      sload\n      div\n      mul\n      dup4\n      mstore\n      swap2\n      0x20\n      add\n      swap2\n      jump(tag_25)\n    tag_26:\n      dup3\n      add\n      swap2\n      swap1\n      0x00\n      mstore\n      keccak256(0x00, 0x20)\n      swap1\n    tag_27:\n      dup2\n      sload\n      dup2\n      mstore\n      swap1\n      0x01\n      add\n      swap1\n      0x20\n      add\n      dup1\n      dup4\n      gt\n      tag_27\n      jumpi\n      dup3\n      swap1\n      sub\n      0x1f\n      and\n      dup3\n      add\n      swap2\n    tag_25:\n      pop\n      pop\n      pop\n      pop\n      pop\n      dup2\n      mstore\n      0x20\n      add\n      0x02\n      dup3\n      add\n      0x00\n      swap1\n      sload\n      swap1\n      0x0100\n      exp\n      swap1\n      div\n      0xffffffffffffffffffffffffffffffffffffffff\n      and\n      0xffffffffffffffffffffffffffffffffffffffff\n      and\n      0xffffffffffffffffffffffffffffffffffffffff\n      and\n      dup2\n      mstore\n      0x20\n      add\n      0x03\n      dup3\n      add\n      sload\n      dup2\n      mstore\n      0x20\n      add\n      0x04\n      dup3\n      add\n      sload\n      dup2\n      mstore\n      pop\n      pop\n      swap1\n      pop\n        /* \"solidity_test/test4.sol\":5069:5172  function search(address _addr) public view returns(USER memory)  {... */\n      swap2\n      swap1\n      pop\n      jump\t// out\n        /* \"solidity_test/test4.sol\":5291:5391  function join() public payable {... */\n    tag_13:\n        /* \"solidity_test/test4.sol\":5354:5364  0.01 ether */\n      0x2386f26fc10000\n        /* \"solidity_test/test4.sol\":5341:5350  msg.value */\n      callvalue\n        /* \"solidity_test/test4.sol\":5341:5364  msg.value == 0.01 ether */\n      eq\n        /* \"solidity_test/test4.sol\":5333:5373  require(msg.value == 0.01 ether, \"NOPE\") */\n      tag_29\n      jumpi\n      mload(0x40)\n      0x08c379a000000000000000000000000000000000000000000000000000000000\n      dup2\n      mstore\n      0x04\n      add\n      tag_30\n      swap1\n      tag_31\n      jump\t// in\n    tag_30:\n      mload(0x40)\n      dup1\n      swap2\n      sub\n      swap1\n      revert\n    tag_29:\n        /* \"solidity_test/test4.sol\":5291:5391  function join() public payable {... */\n      jump\t// out\n        /* \"solidity_test/test4.sol\":4849:4965  function signIn(string memory _name) public {... */\n    tag_18:\n        /* \"solidity_test/test4.sol\":4924:4956  USER(1, _name, msg.sender, 0, 0) */\n      mload(0x40)\n      dup1\n      0xa0\n      add\n      0x40\n      mstore\n      dup1\n        /* \"solidity_test/test4.sol\":4929:4930  1 */\n      0x01\n        /* \"solidity_test/test4.sol\":4924:4956  USER(1, _name, msg.sender, 0, 0) */\n      dup2\n      mstore\n      0x20\n      add\n        /* \"solidity_test/test4.sol\":4932:4937  _name */\n      dup3\n        /* \"solidity_test/test4.sol\":4924:4956  USER(1, _name, msg.sender, 0, 0) */\n      dup2\n      mstore\n      0x20\n      add\n        /* \"solidity_test/test4.sol\":4939:4949  msg.sender */\n      caller\n        /* \"solidity_test/test4.sol\":4924:4956  USER(1, _name, msg.sender, 0, 0) */\n      0xffffffffffffffffffffffffffffffffffffffff\n      and\n      dup2\n      mstore\n      0x20\n      add\n        /* \"solidity_test/test4.sol\":4951:4952  0 */\n      0x00\n        /* \"solidity_test/test4.sol\":4924:4956  USER(1, _name, msg.sender, 0, 0) */\n      dup2\n      mstore\n      0x20\n      add\n        /* \"solidity_test/test4.sol\":4954:4955  0 */\n      0x00\n        /* \"solidity_test/test4.sol\":4924:4956  USER(1, _name, msg.sender, 0, 0) */\n      dup2\n      mstore\n      pop\n        /* \"solidity_test/test4.sol\":4904:4909  users */\n      0x01\n        /* \"solidity_test/test4.sol\":4904:4921  users[msg.sender] */\n      0x00\n        /* \"solidity_test/test4.sol\":4910:4920  msg.sender */\n      caller\n        /* \"solidity_test/test4.sol\":4904:4921  users[msg.sender] */\n      0xffffffffffffffffffffffffffffffffffffffff\n      and\n      0xffffffffffffffffffffffffffffffffffffffff\n      and\n      dup2\n      mstore\n      0x20\n      add\n      swap1\n      dup2\n      mstore\n      0x20\n      add\n      0x00\n      keccak256\n        /* \"solidity_test/test4.sol\":4904:4956  users[msg.sender] = USER(1, _name, msg.sender, 0, 0) */\n      0x00\n      dup3\n      add\n      mload\n      dup2\n      0x00\n      add\n      sstore\n      0x20\n      dup3\n      add\n      mload\n      dup2\n      0x01\n      add\n      swap1\n      dup2\n      tag_33\n      swap2\n      swap1\n      tag_34\n      jump\t// in\n    tag_33:\n      pop\n      0x40\n      dup3\n      add\n      mload\n      dup2\n      0x02\n      add\n      exp(0x0100, 0x00)\n      dup2\n      sload\n      dup2\n      0xffffffffffffffffffffffffffffffffffffffff\n      mul\n      not\n      and\n      swap1\n      dup4\n      0xffffffffffffffffffffffffffffffffffffffff\n      and\n      mul\n      or\n      swap1\n      sstore\n      pop\n      0x60\n      dup3\n      add\n      mload\n      dup2\n      0x03\n      add\n      sstore\n      0x80\n      dup3\n      add\n      mload\n      dup2\n      0x04\n      add\n      sstore\n      swap1\n      pop\n      pop\n        /* \"solidity_test/test4.sol\":4849:4965  function signIn(string memory _name) public {... */\n      pop\n      jump\t// out\n    tag_20:\n      mload(0x40)\n      dup1\n      0xa0\n      add\n      0x40\n      mstore\n      dup1\n      0x00\n      dup2\n      mstore\n      0x20\n      add\n      0x60\n      dup2\n      mstore\n      0x20\n      add\n      and(0xffffffffffffffffffffffffffffffffffffffff, 0x00)\n      dup2\n      mstore\n      0x20\n      add\n      0x00\n      dup2\n      mstore\n      0x20\n      add\n      0x00\n      dup2\n      mstore\n      pop\n      swap1\n      jump\t// out\n        /* \"#utility.yul\":7:82   */\n    tag_35:\n        /* \"#utility.yul\":40:46   */\n      0x00\n        /* \"#utility.yul\":73:75   */\n      0x40\n        /* \"#utility.yul\":67:76   */\n      mload\n        /* \"#utility.yul\":57:76   */\n      swap1\n      pop\n        /* \"#utility.yul\":7:82   */\n      swap1\n      jump\t// out\n        /* \"#utility.yul\":88:205   */\n    tag_36:\n        /* \"#utility.yul\":197:198   */\n      0x00\n        /* \"#utility.yul\":194:195   */\n      dup1\n        /* \"#utility.yul\":187:199   */\n      revert\n        /* \"#utility.yul\":211:328   */\n    tag_37:\n        /* \"#utility.yul\":320:321   */\n      0x00\n        /* \"#utility.yul\":317:318   */\n      dup1\n        /* \"#utility.yul\":310:322   */\n      revert\n        /* \"#utility.yul\":334:460   */\n    tag_38:\n        /* \"#utility.yul\":371:378   */\n      0x00\n        /* \"#utility.yul\":411:453   */\n      0xffffffffffffffffffffffffffffffffffffffff\n        /* \"#utility.yul\":404:409   */\n      dup3\n        /* \"#utility.yul\":400:454   */\n      and\n        /* \"#utility.yul\":389:454   */\n      swap1\n      pop\n        /* \"#utility.yul\":334:460   */\n      swap2\n      swap1\n      pop\n      jump\t// out\n        /* \"#utility.yul\":466:562   */\n    tag_39:\n        /* \"#utility.yul\":503:510   */\n      0x00\n        /* \"#utility.yul\":532:556   */\n      tag_85\n        /* \"#utility.yul\":550:555   */\n      dup3\n        /* \"#utility.yul\":532:556   */\n      tag_38\n      jump\t// in\n    tag_85:\n        /* \"#utility.yul\":521:556   */\n      swap1\n      pop\n        /* \"#utility.yul\":466:562   */\n      swap2\n      swap1\n      pop\n      jump\t// out\n        /* \"#utility.yul\":568:690   */\n    tag_40:\n        /* \"#utility.yul\":641:665   */\n      tag_87\n        /* \"#utility.yul\":659:664   */\n      dup2\n        /* \"#utility.yul\":641:665   */\n      tag_39\n      jump\t// in\n    tag_87:\n        /* \"#utility.yul\":634:639   */\n      dup2\n        /* \"#utility.yul\":631:666   */\n      eq\n        /* \"#utility.yul\":621:684   */\n      tag_88\n      jumpi\n        /* \"#utility.yul\":680:681   */\n      0x00\n        /* \"#utility.yul\":677:678   */\n      dup1\n        /* \"#utility.yul\":670:682   */\n      revert\n        /* \"#utility.yul\":621:684   */\n    tag_88:\n        /* \"#utility.yul\":568:690   */\n      pop\n      jump\t// out\n        /* \"#utility.yul\":696:835   */\n    tag_41:\n        /* \"#utility.yul\":742:747   */\n      0x00\n        /* \"#utility.yul\":780:786   */\n      dup2\n        /* \"#utility.yul\":767:787   */\n      calldataload\n        /* \"#utility.yul\":758:787   */\n      swap1\n      pop\n        /* \"#utility.yul\":796:829   */\n      tag_90\n        /* \"#utility.yul\":823:828   */\n      dup2\n        /* \"#utility.yul\":796:829   */\n      tag_40\n      jump\t// in\n    tag_90:\n        /* \"#utility.yul\":696:835   */\n      swap3\n      swap2\n      pop\n      pop\n      jump\t// out\n        /* \"#utility.yul\":841:1170   */\n    tag_8:\n        /* \"#utility.yul\":900:906   */\n      0x00\n        /* \"#utility.yul\":949:951   */\n      0x20\n        /* \"#utility.yul\":937:946   */\n      dup3\n        /* \"#utility.yul\":928:935   */\n      dup5\n        /* \"#utility.yul\":924:947   */\n      sub\n        /* \"#utility.yul\":920:952   */\n      slt\n        /* \"#utility.yul\":917:1036   */\n      iszero\n      tag_92\n      jumpi\n        /* \"#utility.yul\":955:1034   */\n      tag_93\n      tag_36\n      jump\t// in\n    tag_93:\n        /* \"#utility.yul\":917:1036   */\n    tag_92:\n        /* \"#utility.yul\":1075:1076   */\n      0x00\n        /* \"#utility.yul\":1100:1153   */\n      tag_94\n        /* \"#utility.yul\":1145:1152   */\n      dup5\n        /* \"#utility.yul\":1136:1142   */\n      dup3\n        /* \"#utility.yul\":1125:1134   */\n      dup6\n        /* \"#utility.yul\":1121:1143   */\n      add\n        /* \"#utility.yul\":1100:1153   */\n      tag_41\n      jump\t// in\n    tag_94:\n        /* \"#utility.yul\":1090:1153   */\n      swap2\n      pop\n        /* \"#utility.yul\":1046:1163   */\n      pop\n        /* \"#utility.yul\":841:1170   */\n      swap3\n      swap2\n      pop\n      pop\n      jump\t// out\n        /* \"#utility.yul\":1176:1253   */\n    tag_42:\n        /* \"#utility.yul\":1213:1220   */\n      0x00\n        /* \"#utility.yul\":1242:1247   */\n      dup2\n        /* \"#utility.yul\":1231:1247   */\n      swap1\n      pop\n        /* \"#utility.yul\":1176:1253   */\n      swap2\n      swap1\n      pop\n      jump\t// out\n        /* \"#utility.yul\":1259:1367   */\n    tag_43:\n        /* \"#utility.yul\":1336:1360   */\n      tag_97\n        /* \"#utility.yul\":1354:1359   */\n      dup2\n        /* \"#utility.yul\":1336:1360   */\n      tag_42\n      jump\t// in\n    tag_97:\n        /* \"#utility.yul\":1331:1334   */\n      dup3\n        /* \"#utility.yul\":1324:1361   */\n      mstore\n        /* \"#utility.yul\":1259:1367   */\n      pop\n      pop\n      jump\t// out\n        /* \"#utility.yul\":1373:1472   */\n    tag_44:\n        /* \"#utility.yul\":1425:1431   */\n      0x00\n        /* \"#utility.yul\":1459:1464   */\n      dup2\n        /* \"#utility.yul\":1453:1465   */\n      mload\n        /* \"#utility.yul\":1443:1465   */\n      swap1\n      pop\n        /* \"#utility.yul\":1373:1472   */\n      swap2\n      swap1\n      pop\n      jump\t// out\n        /* \"#utility.yul\":1478:1637   */\n    tag_45:\n        /* \"#utility.yul\":1552:1563   */\n      0x00\n        /* \"#utility.yul\":1586:1592   */\n      dup3\n        /* \"#utility.yul\":1581:1584   */\n      dup3\n        /* \"#utility.yul\":1574:1593   */\n      mstore\n        /* \"#utility.yul\":1626:1630   */\n      0x20\n        /* \"#utility.yul\":1621:1624   */\n      dup3\n        /* \"#utility.yul\":1617:1631   */\n      add\n        /* \"#utility.yul\":1602:1631   */\n      swap1\n      pop\n        /* \"#utility.yul\":1478:1637   */\n      swap3\n      swap2\n      pop\n      pop\n      jump\t// out\n        /* \"#utility.yul\":1643:1782   */\n    tag_46:\n        /* \"#utility.yul\":1732:1738   */\n      dup3\n        /* \"#utility.yul\":1727:1730   */\n      dup2\n        /* \"#utility.yul\":1722:1725   */\n      dup4\n        /* \"#utility.yul\":1716:1739   */\n      mcopy\n        /* \"#utility.yul\":1773:1774   */\n      0x00\n        /* \"#utility.yul\":1764:1770   */\n      dup4\n        /* \"#utility.yul\":1759:1762   */\n      dup4\n        /* \"#utility.yul\":1755:1771   */\n      add\n        /* \"#utility.yul\":1748:1775   */\n      mstore\n        /* \"#utility.yul\":1643:1782   */\n      pop\n      pop\n      pop\n      jump\t// out\n        /* \"#utility.yul\":1788:1890   */\n    tag_47:\n        /* \"#utility.yul\":1829:1835   */\n      0x00\n        /* \"#utility.yul\":1880:1882   */\n      0x1f\n        /* \"#utility.yul\":1876:1883   */\n      not\n        /* \"#utility.yul\":1871:1873   */\n      0x1f\n        /* \"#utility.yul\":1864:1869   */\n      dup4\n        /* \"#utility.yul\":1860:1874   */\n      add\n        /* \"#utility.yul\":1856:1884   */\n      and\n        /* \"#utility.yul\":1846:1884   */\n      swap1\n      pop\n        /* \"#utility.yul\":1788:1890   */\n      swap2\n      swap1\n      pop\n      jump\t// out\n        /* \"#utility.yul\":1896:2253   */\n    tag_48:\n        /* \"#utility.yul\":1974:1977   */\n      0x00\n        /* \"#utility.yul\":2002:2041   */\n      tag_103\n        /* \"#utility.yul\":2035:2040   */\n      dup3\n        /* \"#utility.yul\":2002:2041   */\n      tag_44\n      jump\t// in\n    tag_103:\n        /* \"#utility.yul\":2057:2118   */\n      tag_104\n        /* \"#utility.yul\":2111:2117   */\n      dup2\n        /* \"#utility.yul\":2106:2109   */\n      dup6\n        /* \"#utility.yul\":2057:2118   */\n      tag_45\n      jump\t// in\n    tag_104:\n        /* \"#utility.yul\":2050:2118   */\n      swap4\n      pop\n        /* \"#utility.yul\":2127:2192   */\n      tag_105\n        /* \"#utility.yul\":2185:2191   */\n      dup2\n        /* \"#utility.yul\":2180:2183   */\n      dup6\n        /* \"#utility.yul\":2173:2177   */\n      0x20\n        /* \"#utility.yul\":2166:2171   */\n      dup7\n        /* \"#utility.yul\":2162:2178   */\n      add\n        /* \"#utility.yul\":2127:2192   */\n      tag_46\n      jump\t// in\n    tag_105:\n        /* \"#utility.yul\":2217:2246   */\n      tag_106\n        /* \"#utility.yul\":2239:2245   */\n      dup2\n        /* \"#utility.yul\":2217:2246   */\n      tag_47\n      jump\t// in\n    tag_106:\n        /* \"#utility.yul\":2212:2215   */\n      dup5\n        /* \"#utility.yul\":2208:2247   */\n      add\n        /* \"#utility.yul\":2201:2247   */\n      swap2\n      pop\n        /* \"#utility.yul\":1978:2253   */\n      pop\n        /* \"#utility.yul\":1896:2253   */\n      swap3\n      swap2\n      pop\n      pop\n      jump\t// out\n        /* \"#utility.yul\":2259:2367   */\n    tag_49:\n        /* \"#utility.yul\":2336:2360   */\n      tag_108\n        /* \"#utility.yul\":2354:2359   */\n      dup2\n        /* \"#utility.yul\":2336:2360   */\n      tag_39\n      jump\t// in\n    tag_108:\n        /* \"#utility.yul\":2331:2334   */\n      dup3\n        /* \"#utility.yul\":2324:2361   */\n      mstore\n        /* \"#utility.yul\":2259:2367   */\n      pop\n      pop\n      jump\t// out\n        /* \"#utility.yul\":2421:3549   */\n    tag_50:\n        /* \"#utility.yul\":2532:2535   */\n      0x00\n        /* \"#utility.yul\":2568:2572   */\n      0xa0\n        /* \"#utility.yul\":2563:2566   */\n      dup4\n        /* \"#utility.yul\":2559:2573   */\n      add\n        /* \"#utility.yul\":2657:2661   */\n      0x00\n        /* \"#utility.yul\":2650:2655   */\n      dup4\n        /* \"#utility.yul\":2646:2662   */\n      add\n        /* \"#utility.yul\":2640:2663   */\n      mload\n        /* \"#utility.yul\":2676:2739   */\n      tag_110\n        /* \"#utility.yul\":2733:2737   */\n      0x00\n        /* \"#utility.yul\":2728:2731   */\n      dup7\n        /* \"#utility.yul\":2724:2738   */\n      add\n        /* \"#utility.yul\":2710:2722   */\n      dup3\n        /* \"#utility.yul\":2676:2739   */\n      tag_43\n      jump\t// in\n    tag_110:\n        /* \"#utility.yul\":2583:2749   */\n      pop\n        /* \"#utility.yul\":2831:2835   */\n      0x20\n        /* \"#utility.yul\":2824:2829   */\n      dup4\n        /* \"#utility.yul\":2820:2836   */\n      add\n        /* \"#utility.yul\":2814:2837   */\n      mload\n        /* \"#utility.yul\":2884:2887   */\n      dup5\n        /* \"#utility.yul\":2878:2882   */\n      dup3\n        /* \"#utility.yul\":2874:2888   */\n      sub\n        /* \"#utility.yul\":2867:2871   */\n      0x20\n        /* \"#utility.yul\":2862:2865   */\n      dup7\n        /* \"#utility.yul\":2858:2872   */\n      add\n        /* \"#utility.yul\":2851:2889   */\n      mstore\n        /* \"#utility.yul\":2910:2983   */\n      tag_111\n        /* \"#utility.yul\":2978:2982   */\n      dup3\n        /* \"#utility.yul\":2964:2976   */\n      dup3\n        /* \"#utility.yul\":2910:2983   */\n      tag_48\n      jump\t// in\n    tag_111:\n        /* \"#utility.yul\":2902:2983   */\n      swap2\n      pop\n        /* \"#utility.yul\":2759:2994   */\n      pop\n        /* \"#utility.yul\":3078:3082   */\n      0x40\n        /* \"#utility.yul\":3071:3076   */\n      dup4\n        /* \"#utility.yul\":3067:3083   */\n      add\n        /* \"#utility.yul\":3061:3084   */\n      mload\n        /* \"#utility.yul\":3097:3160   */\n      tag_112\n        /* \"#utility.yul\":3154:3158   */\n      0x40\n        /* \"#utility.yul\":3149:3152   */\n      dup7\n        /* \"#utility.yul\":3145:3159   */\n      add\n        /* \"#utility.yul\":3131:3143   */\n      dup3\n        /* \"#utility.yul\":3097:3160   */\n      tag_49\n      jump\t// in\n    tag_112:\n        /* \"#utility.yul\":3004:3170   */\n      pop\n        /* \"#utility.yul\":3255:3259   */\n      0x60\n        /* \"#utility.yul\":3248:3253   */\n      dup4\n        /* \"#utility.yul\":3244:3260   */\n      add\n        /* \"#utility.yul\":3238:3261   */\n      mload\n        /* \"#utility.yul\":3274:3337   */\n      tag_113\n        /* \"#utility.yul\":3331:3335   */\n      0x60\n        /* \"#utility.yul\":3326:3329   */\n      dup7\n        /* \"#utility.yul\":3322:3336   */\n      add\n        /* \"#utility.yul\":3308:3320   */\n      dup3\n        /* \"#utility.yul\":3274:3337   */\n      tag_43\n      jump\t// in\n    tag_113:\n        /* \"#utility.yul\":3180:3347   */\n      pop\n        /* \"#utility.yul\":3430:3434   */\n      0x80\n        /* \"#utility.yul\":3423:3428   */\n      dup4\n        /* \"#utility.yul\":3419:3435   */\n      add\n        /* \"#utility.yul\":3413:3436   */\n      mload\n        /* \"#utility.yul\":3449:3512   */\n      tag_114\n        /* \"#utility.yul\":3506:3510   */\n      0x80\n        /* \"#utility.yul\":3501:3504   */\n      dup7\n        /* \"#utility.yul\":3497:3511   */\n      add\n        /* \"#utility.yul\":3483:3495   */\n      dup3\n        /* \"#utility.yul\":3449:3512   */\n      tag_43\n      jump\t// in\n    tag_114:\n        /* \"#utility.yul\":3357:3522   */\n      pop\n        /* \"#utility.yul\":3539:3543   */\n      dup1\n        /* \"#utility.yul\":3532:3543   */\n      swap2\n      pop\n        /* \"#utility.yul\":2537:3549   */\n      pop\n        /* \"#utility.yul\":2421:3549   */\n      swap3\n      swap2\n      pop\n      pop\n      jump\t// out\n        /* \"#utility.yul\":3555:3912   */\n    tag_11:\n        /* \"#utility.yul\":3690:3694   */\n      0x00\n        /* \"#utility.yul\":3728:3730   */\n      0x20\n        /* \"#utility.yul\":3717:3726   */\n      dup3\n        /* \"#utility.yul\":3713:3731   */\n      add\n        /* \"#utility.yul\":3705:3731   */\n      swap1\n      pop\n        /* \"#utility.yul\":3777:3786   */\n      dup2\n        /* \"#utility.yul\":3771:3775   */\n      dup2\n        /* \"#utility.yul\":3767:3787   */\n      sub\n        /* \"#utility.yul\":3763:3764   */\n      0x00\n        /* \"#utility.yul\":3752:3761   */\n      dup4\n        /* \"#utility.yul\":3748:3765   */\n      add\n        /* \"#utility.yul\":3741:3788   */\n      mstore\n        /* \"#utility.yul\":3805:3905   */\n      tag_116\n        /* \"#utility.yul\":3900:3904   */\n      dup2\n        /* \"#utility.yul\":3891:3897   */\n      dup5\n        /* \"#utility.yul\":3805:3905   */\n      tag_50\n      jump\t// in\n    tag_116:\n        /* \"#utility.yul\":3797:3905   */\n      swap1\n      pop\n        /* \"#utility.yul\":3555:3912   */\n      swap3\n      swap2\n      pop\n      pop\n      jump\t// out\n        /* \"#utility.yul\":3918:4035   */\n    tag_51:\n        /* \"#utility.yul\":4027:4028   */\n      0x00\n        /* \"#utility.yul\":4024:4025   */\n      dup1\n        /* \"#utility.yul\":4017:4029   */\n      revert\n        /* \"#utility.yul\":4041:4158   */\n    tag_52:\n        /* \"#utility.yul\":4150:4151   */\n      0x00\n        /* \"#utility.yul\":4147:4148   */\n      dup1\n        /* \"#utility.yul\":4140:4152   */\n      revert\n        /* \"#utility.yul\":4164:4344   */\n    tag_53:\n        /* \"#utility.yul\":4212:4289   */\n      0x4e487b7100000000000000000000000000000000000000000000000000000000\n        /* \"#utility.yul\":4209:4210   */\n      0x00\n        /* \"#utility.yul\":4202:4290   */\n      mstore\n        /* \"#utility.yul\":4309:4313   */\n      0x41\n        /* \"#utility.yul\":4306:4307   */\n      0x04\n        /* \"#utility.yul\":4299:4314   */\n      mstore\n        /* \"#utility.yul\":4333:4337   */\n      0x24\n        /* \"#utility.yul\":4330:4331   */\n      0x00\n        /* \"#utility.yul\":4323:4338   */\n      revert\n        /* \"#utility.yul\":4350:4631   */\n    tag_54:\n        /* \"#utility.yul\":4433:4460   */\n      tag_121\n        /* \"#utility.yul\":4455:4459   */\n      dup3\n        /* \"#utility.yul\":4433:4460   */\n      tag_47\n      jump\t// in\n    tag_121:\n        /* \"#utility.yul\":4425:4431   */\n      dup2\n        /* \"#utility.yul\":4421:4461   */\n      add\n        /* \"#utility.yul\":4563:4569   */\n      dup2\n        /* \"#utility.yul\":4551:4561   */\n      dup2\n        /* \"#utility.yul\":4548:4570   */\n      lt\n        /* \"#utility.yul\":4527:4545   */\n      0xffffffffffffffff\n        /* \"#utility.yul\":4515:4525   */\n      dup3\n        /* \"#utility.yul\":4512:4546   */\n      gt\n        /* \"#utility.yul\":4509:4571   */\n      or\n        /* \"#utility.yul\":4506:4594   */\n      iszero\n      tag_122\n      jumpi\n        /* \"#utility.yul\":4574:4592   */\n      tag_123\n      tag_53\n      jump\t// in\n    tag_123:\n        /* \"#utility.yul\":4506:4594   */\n    tag_122:\n        /* \"#utility.yul\":4614:4624   */\n      dup1\n        /* \"#utility.yul\":4610:4612   */\n      0x40\n        /* \"#utility.yul\":4603:4625   */\n      mstore\n        /* \"#utility.yul\":4393:4631   */\n      pop\n        /* \"#utility.yul\":4350:4631   */\n      pop\n      pop\n      jump\t// out\n        /* \"#utility.yul\":4637:4766   */\n    tag_55:\n        /* \"#utility.yul\":4671:4677   */\n      0x00\n        /* \"#utility.yul\":4698:4718   */\n      tag_125\n      tag_35\n      jump\t// in\n    tag_125:\n        /* \"#utility.yul\":4688:4718   */\n      swap1\n      pop\n        /* \"#utility.yul\":4727:4760   */\n      tag_126\n        /* \"#utility.yul\":4755:4759   */\n      dup3\n        /* \"#utility.yul\":4747:4753   */\n      dup3\n        /* \"#utility.yul\":4727:4760   */\n      tag_54\n      jump\t// in\n    tag_126:\n        /* \"#utility.yul\":4637:4766   */\n      swap2\n      swap1\n      pop\n      jump\t// out\n        /* \"#utility.yul\":4772:5080   */\n    tag_56:\n        /* \"#utility.yul\":4834:4838   */\n      0x00\n        /* \"#utility.yul\":4924:4942   */\n      0xffffffffffffffff\n        /* \"#utility.yul\":4916:4922   */\n      dup3\n        /* \"#utility.yul\":4913:4943   */\n      gt\n        /* \"#utility.yul\":4910:4966   */\n      iszero\n      tag_128\n      jumpi\n        /* \"#utility.yul\":4946:4964   */\n      tag_129\n      tag_53\n      jump\t// in\n    tag_129:\n        /* \"#utility.yul\":4910:4966   */\n    tag_128:\n        /* \"#utility.yul\":4984:5013   */\n      tag_130\n        /* \"#utility.yul\":5006:5012   */\n      dup3\n        /* \"#utility.yul\":4984:5013   */\n      tag_47\n      jump\t// in\n    tag_130:\n        /* \"#utility.yul\":4976:5013   */\n      swap1\n      pop\n        /* \"#utility.yul\":5068:5072   */\n      0x20\n        /* \"#utility.yul\":5062:5066   */\n      dup2\n        /* \"#utility.yul\":5058:5073   */\n      add\n        /* \"#utility.yul\":5050:5073   */\n      swap1\n      pop\n        /* \"#utility.yul\":4772:5080   */\n      swap2\n      swap1\n      pop\n      jump\t// out\n        /* \"#utility.yul\":5086:5234   */\n    tag_57:\n        /* \"#utility.yul\":5184:5190   */\n      dup3\n        /* \"#utility.yul\":5179:5182   */\n      dup2\n        /* \"#utility.yul\":5174:5177   */\n      dup4\n        /* \"#utility.yul\":5161:5191   */\n      calldatacopy\n        /* \"#utility.yul\":5225:5226   */\n      0x00\n        /* \"#utility.yul\":5216:5222   */\n      dup4\n        /* \"#utility.yul\":5211:5214   */\n      dup4\n        /* \"#utility.yul\":5207:5223   */\n      add\n        /* \"#utility.yul\":5200:5227   */\n      mstore\n        /* \"#utility.yul\":5086:5234   */\n      pop\n      pop\n      pop\n      jump\t// out\n        /* \"#utility.yul\":5240:5665   */\n    tag_58:\n        /* \"#utility.yul\":5318:5323   */\n      0x00\n        /* \"#utility.yul\":5343:5409   */\n      tag_133\n        /* \"#utility.yul\":5359:5408   */\n      tag_134\n        /* \"#utility.yul\":5401:5407   */\n      dup5\n        /* \"#utility.yul\":5359:5408   */\n      tag_56\n      jump\t// in\n    tag_134:\n        /* \"#utility.yul\":5343:5409   */\n      tag_55\n      jump\t// in\n    tag_133:\n        /* \"#utility.yul\":5334:5409   */\n      swap1\n      pop\n        /* \"#utility.yul\":5432:5438   */\n      dup3\n        /* \"#utility.yul\":5425:5430   */\n      dup2\n        /* \"#utility.yul\":5418:5439   */\n      mstore\n        /* \"#utility.yul\":5470:5474   */\n      0x20\n        /* \"#utility.yul\":5463:5468   */\n      dup2\n        /* \"#utility.yul\":5459:5475   */\n      add\n        /* \"#utility.yul\":5508:5511   */\n      dup5\n        /* \"#utility.yul\":5499:5505   */\n      dup5\n        /* \"#utility.yul\":5494:5497   */\n      dup5\n        /* \"#utility.yul\":5490:5506   */\n      add\n        /* \"#utility.yul\":5487:5512   */\n      gt\n        /* \"#utility.yul\":5484:5596   */\n      iszero\n      tag_135\n      jumpi\n        /* \"#utility.yul\":5515:5594   */\n      tag_136\n      tag_52\n      jump\t// in\n    tag_136:\n        /* \"#utility.yul\":5484:5596   */\n    tag_135:\n        /* \"#utility.yul\":5605:5659   */\n      tag_137\n        /* \"#utility.yul\":5652:5658   */\n      dup5\n        /* \"#utility.yul\":5647:5650   */\n      dup3\n        /* \"#utility.yul\":5642:5645   */\n      dup6\n        /* \"#utility.yul\":5605:5659   */\n      tag_57\n      jump\t// in\n    tag_137:\n        /* \"#utility.yul\":5324:5665   */\n      pop\n        /* \"#utility.yul\":5240:5665   */\n      swap4\n      swap3\n      pop\n      pop\n      pop\n      jump\t// out\n        /* \"#utility.yul\":5685:6025   */\n    tag_59:\n        /* \"#utility.yul\":5741:5746   */\n      0x00\n        /* \"#utility.yul\":5790:5793   */\n      dup3\n        /* \"#utility.yul\":5783:5787   */\n      0x1f\n        /* \"#utility.yul\":5775:5781   */\n      dup4\n        /* \"#utility.yul\":5771:5788   */\n      add\n        /* \"#utility.yul\":5767:5794   */\n      slt\n        /* \"#utility.yul\":5757:5879   */\n      tag_139\n      jumpi\n        /* \"#utility.yul\":5798:5877   */\n      tag_140\n      tag_51\n      jump\t// in\n    tag_140:\n        /* \"#utility.yul\":5757:5879   */\n    tag_139:\n        /* \"#utility.yul\":5915:5921   */\n      dup2\n        /* \"#utility.yul\":5902:5922   */\n      calldataload\n        /* \"#utility.yul\":5940:6019   */\n      tag_141\n        /* \"#utility.yul\":6015:6018   */\n      dup5\n        /* \"#utility.yul\":6007:6013   */\n      dup3\n        /* \"#utility.yul\":6000:6004   */\n      0x20\n        /* \"#utility.yul\":5992:5998   */\n      dup7\n        /* \"#utility.yul\":5988:6005   */\n      add\n        /* \"#utility.yul\":5940:6019   */\n      tag_58\n      jump\t// in\n    tag_141:\n        /* \"#utility.yul\":5931:6019   */\n      swap2\n      pop\n        /* \"#utility.yul\":5747:6025   */\n      pop\n        /* \"#utility.yul\":5685:6025   */\n      swap3\n      swap2\n      pop\n      pop\n      jump\t// out\n        /* \"#utility.yul\":6031:6540   */\n    tag_17:\n        /* \"#utility.yul\":6100:6106   */\n      0x00\n        /* \"#utility.yul\":6149:6151   */\n      0x20\n        /* \"#utility.yul\":6137:6146   */\n      dup3\n        /* \"#utility.yul\":6128:6135   */\n      dup5\n        /* \"#utility.yul\":6124:6147   */\n      sub\n        /* \"#utility.yul\":6120:6152   */\n      slt\n        /* \"#utility.yul\":6117:6236   */\n      iszero\n      tag_143\n      jumpi\n        /* \"#utility.yul\":6155:6234   */\n      tag_144\n      tag_36\n      jump\t// in\n    tag_144:\n        /* \"#utility.yul\":6117:6236   */\n    tag_143:\n        /* \"#utility.yul\":6303:6304   */\n      0x00\n        /* \"#utility.yul\":6292:6301   */\n      dup3\n        /* \"#utility.yul\":6288:6305   */\n      add\n        /* \"#utility.yul\":6275:6306   */\n      calldataload\n        /* \"#utility.yul\":6333:6351   */\n      0xffffffffffffffff\n        /* \"#utility.yul\":6325:6331   */\n      dup2\n        /* \"#utility.yul\":6322:6352   */\n      gt\n        /* \"#utility.yul\":6319:6436   */\n      iszero\n      tag_145\n      jumpi\n        /* \"#utility.yul\":6355:6434   */\n      tag_146\n      tag_37\n      jump\t// in\n    tag_146:\n        /* \"#utility.yul\":6319:6436   */\n    tag_145:\n        /* \"#utility.yul\":6460:6523   */\n      tag_147\n        /* \"#utility.yul\":6515:6522   */\n      dup5\n        /* \"#utility.yul\":6506:6512   */\n      dup3\n        /* \"#utility.yul\":6495:6504   */\n      dup6\n        /* \"#utility.yul\":6491:6513   */\n      add\n        /* \"#utility.yul\":6460:6523   */\n      tag_59\n      jump\t// in\n    tag_147:\n        /* \"#utility.yul\":6450:6523   */\n      swap2\n      pop\n        /* \"#utility.yul\":6246:6533   */\n      pop\n        /* \"#utility.yul\":6031:6540   */\n      swap3\n      swap2\n      pop\n      pop\n      jump\t// out\n        /* \"#utility.yul\":6546:6726   */\n    tag_60:\n        /* \"#utility.yul\":6594:6671   */\n      0x4e487b7100000000000000000000000000000000000000000000000000000000\n        /* \"#utility.yul\":6591:6592   */\n      0x00\n        /* \"#utility.yul\":6584:6672   */\n      mstore\n        /* \"#utility.yul\":6691:6695   */\n      0x22\n        /* \"#utility.yul\":6688:6689   */\n      0x04\n        /* \"#utility.yul\":6681:6696   */\n      mstore\n        /* \"#utility.yul\":6715:6719   */\n      0x24\n        /* \"#utility.yul\":6712:6713   */\n      0x00\n        /* \"#utility.yul\":6705:6720   */\n      revert\n        /* \"#utility.yul\":6732:7052   */\n    tag_23:\n        /* \"#utility.yul\":6776:6782   */\n      0x00\n        /* \"#utility.yul\":6813:6814   */\n      0x02\n        /* \"#utility.yul\":6807:6811   */\n      dup3\n        /* \"#utility.yul\":6803:6815   */\n      div\n        /* \"#utility.yul\":6793:6815   */\n      swap1\n      pop\n        /* \"#utility.yul\":6860:6861   */\n      0x01\n        /* \"#utility.yul\":6854:6858   */\n      dup3\n        /* \"#utility.yul\":6850:6862   */\n      and\n        /* \"#utility.yul\":6881:6899   */\n      dup1\n        /* \"#utility.yul\":6871:6952   */\n      tag_150\n      jumpi\n        /* \"#utility.yul\":6937:6941   */\n      0x7f\n        /* \"#utility.yul\":6929:6935   */\n      dup3\n        /* \"#utility.yul\":6925:6942   */\n      and\n        /* \"#utility.yul\":6915:6942   */\n      swap2\n      pop\n        /* \"#utility.yul\":6871:6952   */\n    tag_150:\n        /* \"#utility.yul\":6999:7001   */\n      0x20\n        /* \"#utility.yul\":6991:6997   */\n      dup3\n        /* \"#utility.yul\":6988:7002   */\n      lt\n        /* \"#utility.yul\":6968:6986   */\n      dup2\n        /* \"#utility.yul\":6965:7003   */\n      sub\n        /* \"#utility.yul\":6962:7046   */\n      tag_151\n      jumpi\n        /* \"#utility.yul\":7018:7036   */\n      tag_152\n      tag_60\n      jump\t// in\n    tag_152:\n        /* \"#utility.yul\":6962:7046   */\n    tag_151:\n        /* \"#utility.yul\":6783:7052   */\n      pop\n        /* \"#utility.yul\":6732:7052   */\n      swap2\n      swap1\n      pop\n      jump\t// out\n        /* \"#utility.yul\":7058:7227   */\n    tag_61:\n        /* \"#utility.yul\":7142:7153   */\n      0x00\n        /* \"#utility.yul\":7176:7182   */\n      dup3\n        /* \"#utility.yul\":7171:7174   */\n      dup3\n        /* \"#utility.yul\":7164:7183   */\n      mstore\n        /* \"#utility.yul\":7216:7220   */\n      0x20\n        /* \"#utility.yul\":7211:7214   */\n      dup3\n        /* \"#utility.yul\":7207:7221   */\n      add\n        /* \"#utility.yul\":7192:7221   */\n      swap1\n      pop\n        /* \"#utility.yul\":7058:7227   */\n      swap3\n      swap2\n      pop\n      pop\n      jump\t// out\n        /* \"#utility.yul\":7233:7387   */\n    tag_62:\n        /* \"#utility.yul\":7373:7379   */\n      0x4e4f504500000000000000000000000000000000000000000000000000000000\n        /* \"#utility.yul\":7369:7370   */\n      0x00\n        /* \"#utility.yul\":7361:7367   */\n      dup3\n        /* \"#utility.yul\":7357:7371   */\n      add\n        /* \"#utility.yul\":7350:7380   */\n      mstore\n        /* \"#utility.yul\":7233:7387   */\n      pop\n      jump\t// out\n        /* \"#utility.yul\":7393:7758   */\n    tag_63:\n        /* \"#utility.yul\":7535:7538   */\n      0x00\n        /* \"#utility.yul\":7556:7622   */\n      tag_156\n        /* \"#utility.yul\":7620:7621   */\n      0x04\n        /* \"#utility.yul\":7615:7618   */\n      dup4\n        /* \"#utility.yul\":7556:7622   */\n      tag_61\n      jump\t// in\n    tag_156:\n        /* \"#utility.yul\":7549:7622   */\n      swap2\n      pop\n        /* \"#utility.yul\":7631:7724   */\n      tag_157\n        /* \"#utility.yul\":7720:7723   */\n      dup3\n        /* \"#utility.yul\":7631:7724   */\n      tag_62\n      jump\t// in\n    tag_157:\n        /* \"#utility.yul\":7749:7751   */\n      0x20\n        /* \"#utility.yul\":7744:7747   */\n      dup3\n        /* \"#utility.yul\":7740:7752   */\n      add\n        /* \"#utility.yul\":7733:7752   */\n      swap1\n      pop\n        /* \"#utility.yul\":7393:7758   */\n      swap2\n      swap1\n      pop\n      jump\t// out\n        /* \"#utility.yul\":7764:8183   */\n    tag_31:\n        /* \"#utility.yul\":7930:7934   */\n      0x00\n        /* \"#utility.yul\":7968:7970   */\n      0x20\n        /* \"#utility.yul\":7957:7966   */\n      dup3\n        /* \"#utility.yul\":7953:7971   */\n      add\n        /* \"#utility.yul\":7945:7971   */\n      swap1\n      pop\n        /* \"#utility.yul\":8017:8026   */\n      dup2\n        /* \"#utility.yul\":8011:8015   */\n      dup2\n        /* \"#utility.yul\":8007:8027   */\n      sub\n        /* \"#utility.yul\":8003:8004   */\n      0x00\n        /* \"#utility.yul\":7992:8001   */\n      dup4\n        /* \"#utility.yul\":7988:8005   */\n      add\n        /* \"#utility.yul\":7981:8028   */\n      mstore\n        /* \"#utility.yul\":8045:8176   */\n      tag_159\n        /* \"#utility.yul\":8171:8175   */\n      dup2\n        /* \"#utility.yul\":8045:8176   */\n      tag_63\n      jump\t// in\n    tag_159:\n        /* \"#utility.yul\":8037:8176   */\n      swap1\n      pop\n        /* \"#utility.yul\":7764:8183   */\n      swap2\n      swap1\n      pop\n      jump\t// out\n        /* \"#utility.yul\":8189:8330   */\n    tag_64:\n        /* \"#utility.yul\":8238:8242   */\n      0x00\n        /* \"#utility.yul\":8261:8264   */\n      dup2\n        /* \"#utility.yul\":8253:8264   */\n      swap1\n      pop\n        /* \"#utility.yul\":8284:8287   */\n      dup2\n        /* \"#utility.yul\":8281:8282   */\n      0x00\n        /* \"#utility.yul\":8274:8288   */\n      mstore\n        /* \"#utility.yul\":8318:8322   */\n      0x20\n        /* \"#utility.yul\":8315:8316   */\n      0x00\n        /* \"#utility.yul\":8305:8323   */\n      keccak256\n        /* \"#utility.yul\":8297:8323   */\n      swap1\n      pop\n        /* \"#utility.yul\":8189:8330   */\n      swap2\n      swap1\n      pop\n      jump\t// out\n        /* \"#utility.yul\":8336:8429   */\n    tag_65:\n        /* \"#utility.yul\":8373:8379   */\n      0x00\n        /* \"#utility.yul\":8420:8422   */\n      0x20\n        /* \"#utility.yul\":8415:8417   */\n      0x1f\n        /* \"#utility.yul\":8408:8413   */\n      dup4\n        /* \"#utility.yul\":8404:8418   */\n      add\n        /* \"#utility.yul\":8400:8423   */\n      div\n        /* \"#utility.yul\":8390:8423   */\n      swap1\n      pop\n        /* \"#utility.yul\":8336:8429   */\n      swap2\n      swap1\n      pop\n      jump\t// out\n        /* \"#utility.yul\":8435:8542   */\n    tag_66:\n        /* \"#utility.yul\":8479:8487   */\n      0x00\n        /* \"#utility.yul\":8529:8534   */\n      dup3\n        /* \"#utility.yul\":8523:8527   */\n      dup3\n        /* \"#utility.yul\":8519:8535   */\n      shl\n        /* \"#utility.yul\":8498:8535   */\n      swap1\n      pop\n        /* \"#utility.yul\":8435:8542   */\n      swap3\n      swap2\n      pop\n      pop\n      jump\t// out\n        /* \"#utility.yul\":8548:8941   */\n    tag_67:\n        /* \"#utility.yul\":8617:8623   */\n      0x00\n        /* \"#utility.yul\":8667:8668   */\n      0x08\n        /* \"#utility.yul\":8655:8665   */\n      dup4\n        /* \"#utility.yul\":8651:8669   */\n      mul\n        /* \"#utility.yul\":8690:8787   */\n      tag_164\n        /* \"#utility.yul\":8720:8786   */\n      0xffffffffffffffffffffffffffffffffffffffffffffffffffffffffffffffff\n        /* \"#utility.yul\":8709:8718   */\n      dup3\n        /* \"#utility.yul\":8690:8787   */\n      tag_66\n      jump\t// in\n    tag_164:\n        /* \"#utility.yul\":8808:8847   */\n      tag_165\n        /* \"#utility.yul\":8838:8846   */\n      dup7\n        /* \"#utility.yul\":8827:8836   */\n      dup4\n        /* \"#utility.yul\":8808:8847   */\n      tag_66\n      jump\t// in\n    tag_165:\n        /* \"#utility.yul\":8796:8847   */\n      swap6\n      pop\n        /* \"#utility.yul\":8880:8884   */\n      dup1\n        /* \"#utility.yul\":8876:8885   */\n      not\n        /* \"#utility.yul\":8869:8874   */\n      dup5\n        /* \"#utility.yul\":8865:8886   */\n      and\n        /* \"#utility.yul\":8856:8886   */\n      swap4\n      pop\n        /* \"#utility.yul\":8929:8933   */\n      dup1\n        /* \"#utility.yul\":8919:8927   */\n      dup7\n        /* \"#utility.yul\":8915:8934   */\n      and\n        /* \"#utility.yul\":8908:8913   */\n      dup5\n        /* \"#utility.yul\":8905:8935   */\n      or\n        /* \"#utility.yul\":8895:8935   */\n      swap3\n      pop\n        /* \"#utility.yul\":8624:8941   */\n      pop\n      pop\n        /* \"#utility.yul\":8548:8941   */\n      swap4\n      swap3\n      pop\n      pop\n      pop\n      jump\t// out\n        /* \"#utility.yul\":8947:9007   */\n    tag_68:\n        /* \"#utility.yul\":8975:8978   */\n      0x00\n        /* \"#utility.yul\":8996:9001   */\n      dup2\n        /* \"#utility.yul\":8989:9001   */\n      swap1\n      pop\n        /* \"#utility.yul\":8947:9007   */\n      swap2\n      swap1\n      pop\n      jump\t// out\n        /* \"#utility.yul\":9013:9155   */\n    tag_69:\n        /* \"#utility.yul\":9063:9072   */\n      0x00\n        /* \"#utility.yul\":9096:9149   */\n      tag_168\n        /* \"#utility.yul\":9114:9148   */\n      tag_169\n        /* \"#utility.yul\":9123:9147   */\n      tag_170\n        /* \"#utility.yul\":9141:9146   */\n      dup5\n        /* \"#utility.yul\":9123:9147   */\n      tag_42\n      jump\t// in\n    tag_170:\n        /* \"#utility.yul\":9114:9148   */\n      tag_68\n      jump\t// in\n    tag_169:\n        /* \"#utility.yul\":9096:9149   */\n      tag_42\n      jump\t// in\n    tag_168:\n        /* \"#utility.yul\":9083:9149   */\n      swap1\n      pop\n        /* \"#utility.yul\":9013:9155   */\n      swap2\n      swap1\n      pop\n      jump\t// out\n        /* \"#utility.yul\":9161:9236   */\n    tag_70:\n        /* \"#utility.yul\":9204:9207   */\n      0x00\n        /* \"#utility.yul\":9225:9230   */\n      dup2\n        /* \"#utility.yul\":9218:9230   */\n      swap1\n      pop\n        /* \"#utility.yul\":9161:9236   */\n      swap2\n      swap1\n      pop\n      jump\t// out\n        /* \"#utility.yul\":9242:9511   */\n    tag_71:\n        /* \"#utility.yul\":9352:9391   */\n      tag_173\n        /* \"#utility.yul\":9383:9390   */\n      dup4\n        /* \"#utility.yul\":9352:9391   */\n      tag_69\n      jump\t// in\n    tag_173:\n        /* \"#utility.yul\":9413:9504   */\n      tag_174\n        /* \"#utility.yul\":9462:9503   */\n      tag_175\n        /* \"#utility.yul\":9486:9502   */\n      dup3\n        /* \"#utility.yul\":9462:9503   */\n      tag_70\n      jump\t// in\n    tag_175:\n        /* \"#utility.yul\":9454:9460   */\n      dup5\n        /* \"#utility.yul\":9447:9451   */\n      dup5\n        /* \"#utility.yul\":9441:9452   */\n      sload\n        /* \"#utility.yul\":9413:9504   */\n      tag_67\n      jump\t// in\n    tag_174:\n        /* \"#utility.yul\":9407:9411   */\n      dup3\n        /* \"#utility.yul\":9400:9505   */\n      sstore\n        /* \"#utility.yul\":9318:9511   */\n      pop\n        /* \"#utility.yul\":9242:9511   */\n      pop\n      pop\n      pop\n      jump\t// out\n        /* \"#utility.yul\":9517:9590   */\n    tag_72:\n        /* \"#utility.yul\":9562:9565   */\n      0x00\n        /* \"#utility.yul\":9517:9590   */\n      swap1\n      jump\t// out\n        /* \"#utility.yul\":9596:9785   */\n    tag_73:\n        /* \"#utility.yul\":9673:9705   */\n      tag_178\n      tag_72\n      jump\t// in\n    tag_178:\n        /* \"#utility.yul\":9714:9779   */\n      tag_179\n        /* \"#utility.yul\":9772:9778   */\n      dup2\n        /* \"#utility.yul\":9764:9770   */\n      dup5\n        /* \"#utility.yul\":9758:9762   */\n      dup5\n        /* \"#utility.yul\":9714:9779   */\n      tag_71\n      jump\t// in\n    tag_179:\n        /* \"#utility.yul\":9649:9785   */\n      pop\n        /* \"#utility.yul\":9596:9785   */\n      pop\n      pop\n      jump\t// out\n        /* \"#utility.yul\":9791:9977   */\n    tag_74:\n        /* \"#utility.yul\":9851:9971   */\n    tag_181:\n        /* \"#utility.yul\":9868:9871   */\n      dup2\n        /* \"#utility.yul\":9861:9866   */\n      dup2\n        /* \"#utility.yul\":9858:9872   */\n      lt\n        /* \"#utility.yul\":9851:9971   */\n      iszero\n      tag_183\n      jumpi\n        /* \"#utility.yul\":9922:9961   */\n      tag_184\n        /* \"#utility.yul\":9959:9960   */\n      0x00\n        /* \"#utility.yul\":9952:9957   */\n      dup3\n        /* \"#utility.yul\":9922:9961   */\n      tag_73\n      jump\t// in\n    tag_184:\n        /* \"#utility.yul\":9895:9896   */\n      0x01\n        /* \"#utility.yul\":9888:9893   */\n      dup2\n        /* \"#utility.yul\":9884:9897   */\n      add\n        /* \"#utility.yul\":9875:9897   */\n      swap1\n      pop\n        /* \"#utility.yul\":9851:9971   */\n      jump(tag_181)\n    tag_183:\n        /* \"#utility.yul\":9791:9977   */\n      pop\n      pop\n      jump\t// out\n        /* \"#utility.yul\":9983:10526   */\n    tag_75:\n        /* \"#utility.yul\":10084:10086   */\n      0x1f\n        /* \"#utility.yul\":10079:10082   */\n      dup3\n        /* \"#utility.yul\":10076:10087   */\n      gt\n        /* \"#utility.yul\":10073:10519   */\n      iszero\n      tag_186\n      jumpi\n        /* \"#utility.yul\":10118:10156   */\n      tag_187\n        /* \"#utility.yul\":10150:10155   */\n      dup2\n        /* \"#utility.yul\":10118:10156   */\n      tag_64\n      jump\t// in\n    tag_187:\n        /* \"#utility.yul\":10202:10231   */\n      tag_188\n        /* \"#utility.yul\":10220:10230   */\n      dup5\n        /* \"#utility.yul\":10202:10231   */\n      tag_65\n      jump\t// in\n    tag_188:\n        /* \"#utility.yul\":10192:10200   */\n      dup2\n        /* \"#utility.yul\":10188:10232   */\n      add\n        /* \"#utility.yul\":10385:10387   */\n      0x20\n        /* \"#utility.yul\":10373:10383   */\n      dup6\n        /* \"#utility.yul\":10370:10388   */\n      lt\n        /* \"#utility.yul\":10367:10416   */\n      iszero\n      tag_189\n      jumpi\n        /* \"#utility.yul\":10406:10414   */\n      dup2\n        /* \"#utility.yul\":10391:10414   */\n      swap1\n      pop\n        /* \"#utility.yul\":10367:10416   */\n    tag_189:\n        /* \"#utility.yul\":10429:10509   */\n      tag_190\n        /* \"#utility.yul\":10485:10507   */\n      tag_191\n        /* \"#utility.yul\":10503:10506   */\n      dup6\n        /* \"#utility.yul\":10485:10507   */\n      tag_65\n      jump\t// in\n    tag_191:\n        /* \"#utility.yul\":10475:10483   */\n      dup4\n        /* \"#utility.yul\":10471:10508   */\n      add\n        /* \"#utility.yul\":10458:10469   */\n      dup3\n        /* \"#utility.yul\":10429:10509   */\n      tag_74\n      jump\t// in\n    tag_190:\n        /* \"#utility.yul\":10088:10519   */\n      pop\n      pop\n        /* \"#utility.yul\":10073:10519   */\n    tag_186:\n        /* \"#utility.yul\":9983:10526   */\n      pop\n      pop\n      pop\n      jump\t// out\n        /* \"#utility.yul\":10532:10649   */\n    tag_76:\n        /* \"#utility.yul\":10586:10594   */\n      0x00\n        /* \"#utility.yul\":10636:10641   */\n      dup3\n        /* \"#utility.yul\":10630:10634   */\n      dup3\n        /* \"#utility.yul\":10626:10642   */\n      shr\n        /* \"#utility.yul\":10605:10642   */\n      swap1\n      pop\n        /* \"#utility.yul\":10532:10649   */\n      swap3\n      swap2\n      pop\n      pop\n      jump\t// out\n        /* \"#utility.yul\":10655:10824   */\n    tag_77:\n        /* \"#utility.yul\":10699:10705   */\n      0x00\n        /* \"#utility.yul\":10732:10783   */\n      tag_194\n        /* \"#utility.yul\":10780:10781   */\n      0x00\n        /* \"#utility.yul\":10776:10782   */\n      not\n        /* \"#utility.yul\":10768:10773   */\n      dup5\n        /* \"#utility.yul\":10765:10766   */\n      0x08\n        /* \"#utility.yul\":10761:10774   */\n      mul\n        /* \"#utility.yul\":10732:10783   */\n      tag_76\n      jump\t// in\n    tag_194:\n        /* \"#utility.yul\":10728:10784   */\n      not\n        /* \"#utility.yul\":10813:10817   */\n      dup1\n        /* \"#utility.yul\":10807:10811   */\n      dup4\n        /* \"#utility.yul\":10803:10818   */\n      and\n        /* \"#utility.yul\":10793:10818   */\n      swap2\n      pop\n        /* \"#utility.yul\":10706:10824   */\n      pop\n        /* \"#utility.yul\":10655:10824   */\n      swap3\n      swap2\n      pop\n      pop\n      jump\t// out\n        /* \"#utility.yul\":10829:11124   */\n    tag_78:\n        /* \"#utility.yul\":10905:10909   */\n      0x00\n        /* \"#utility.yul\":11051:11080   */\n      tag_196\n        /* \"#utility.yul\":11076:11079   */\n      dup4\n        /* \"#utility.yul\":11070:11074   */\n      dup4\n        /* \"#utility.yul\":11051:11080   */\n      tag_77\n      jump\t// in\n    tag_196:\n        /* \"#utility.yul\":11043:11080   */\n      swap2\n      pop\n        /* \"#utility.yul\":11113:11116   */\n      dup3\n        /* \"#utility.yul\":11110:11111   */\n      0x02\n        /* \"#utility.yul\":11106:11117   */\n      mul\n        /* \"#utility.yul\":11100:11104   */\n      dup3\n        /* \"#utility.yul\":11097:11118   */\n      or\n        /* \"#utility.yul\":11089:11118   */\n      swap1\n      pop\n        /* \"#utility.yul\":10829:11124   */\n      swap3\n      swap2\n      pop\n      pop\n      jump\t// out\n        /* \"#utility.yul\":11129:12524   */\n    tag_34:\n        /* \"#utility.yul\":11246:11283   */\n      tag_198\n        /* \"#utility.yul\":11279:11282   */\n      dup3\n        /* \"#utility.yul\":11246:11283   */\n      tag_44\n      jump\t// in\n    tag_198:\n        /* \"#utility.yul\":11348:11366   */\n      0xffffffffffffffff\n        /* \"#utility.yul\":11340:11346   */\n      dup2\n        /* \"#utility.yul\":11337:11367   */\n      gt\n        /* \"#utility.yul\":11334:11390   */\n      iszero\n      tag_199\n      jumpi\n        /* \"#utility.yul\":11370:11388   */\n      tag_200\n      tag_53\n      jump\t// in\n    tag_200:\n        /* \"#utility.yul\":11334:11390   */\n    tag_199:\n        /* \"#utility.yul\":11414:11452   */\n      tag_201\n        /* \"#utility.yul\":11446:11450   */\n      dup3\n        /* \"#utility.yul\":11440:11451   */\n      sload\n        /* \"#utility.yul\":11414:11452   */\n      tag_23\n      jump\t// in\n    tag_201:\n        /* \"#utility.yul\":11499:11566   */\n      tag_202\n        /* \"#utility.yul\":11559:11565   */\n      dup3\n        /* \"#utility.yul\":11551:11557   */\n      dup3\n        /* \"#utility.yul\":11545:11549   */\n      dup6\n        /* \"#utility.yul\":11499:11566   */\n      tag_75\n      jump\t// in\n    tag_202:\n        /* \"#utility.yul\":11593:11594   */\n      0x00\n        /* \"#utility.yul\":11617:11621   */\n      0x20\n        /* \"#utility.yul\":11604:11621   */\n      swap1\n      pop\n        /* \"#utility.yul\":11649:11651   */\n      0x1f\n        /* \"#utility.yul\":11641:11647   */\n      dup4\n        /* \"#utility.yul\":11638:11652   */\n      gt\n        /* \"#utility.yul\":11666:11667   */\n      0x01\n        /* \"#utility.yul\":11661:12279   */\n      dup2\n      eq\n      tag_204\n      jumpi\n        /* \"#utility.yul\":12323:12324   */\n      0x00\n        /* \"#utility.yul\":12340:12346   */\n      dup5\n        /* \"#utility.yul\":12337:12414   */\n      iszero\n      tag_205\n      jumpi\n        /* \"#utility.yul\":12389:12398   */\n      dup3\n        /* \"#utility.yul\":12384:12387   */\n      dup8\n        /* \"#utility.yul\":12380:12399   */\n      add\n        /* \"#utility.yul\":12374:12400   */\n      mload\n        /* \"#utility.yul\":12365:12400   */\n      swap1\n      pop\n        /* \"#utility.yul\":12337:12414   */\n    tag_205:\n        /* \"#utility.yul\":12440:12507   */\n      tag_206\n        /* \"#utility.yul\":12500:12506   */\n      dup6\n        /* \"#utility.yul\":12493:12498   */\n      dup3\n        /* \"#utility.yul\":12440:12507   */\n      tag_78\n      jump\t// in\n    tag_206:\n        /* \"#utility.yul\":12434:12438   */\n      dup7\n        /* \"#utility.yul\":12427:12508   */\n      sstore\n        /* \"#utility.yul\":12296:12518   */\n      pop\n        /* \"#utility.yul\":11631:12518   */\n      jump(tag_203)\n        /* \"#utility.yul\":11661:12279   */\n    tag_204:\n        /* \"#utility.yul\":11713:11717   */\n      0x1f\n        /* \"#utility.yul\":11709:11718   */\n      not\n        /* \"#utility.yul\":11701:11707   */\n      dup5\n        /* \"#utility.yul\":11697:11719   */\n      and\n        /* \"#utility.yul\":11747:11784   */\n      tag_207\n        /* \"#utility.yul\":11779:11783   */\n      dup7\n        /* \"#utility.yul\":11747:11784   */\n      tag_64\n      jump\t// in\n    tag_207:\n        /* \"#utility.yul\":11806:11807   */\n      0x00\n        /* \"#utility.yul\":11820:12028   */\n    tag_208:\n        /* \"#utility.yul\":11834:11841   */\n      dup3\n        /* \"#utility.yul\":11831:11832   */\n      dup2\n        /* \"#utility.yul\":11828:11842   */\n      lt\n        /* \"#utility.yul\":11820:12028   */\n      iszero\n      tag_210\n      jumpi\n        /* \"#utility.yul\":11913:11922   */\n      dup5\n        /* \"#utility.yul\":11908:11911   */\n      dup10\n        /* \"#utility.yul\":11904:11923   */\n      add\n        /* \"#utility.yul\":11898:11924   */\n      mload\n        /* \"#utility.yul\":11890:11896   */\n      dup3\n        /* \"#utility.yul\":11883:11925   */\n      sstore\n        /* \"#utility.yul\":11964:11965   */\n      0x01\n        /* \"#utility.yul\":11956:11962   */\n      dup3\n        /* \"#utility.yul\":11952:11966   */\n      add\n        /* \"#utility.yul\":11942:11966   */\n      swap2\n      pop\n        /* \"#utility.yul\":12011:12013   */\n      0x20\n        /* \"#utility.yul\":12000:12009   */\n      dup6\n        /* \"#utility.yul\":11996:12014   */\n      add\n        /* \"#utility.yul\":11983:12014   */\n      swap5\n      pop\n        /* \"#utility.yul\":11857:11861   */\n      0x20\n        /* \"#utility.yul\":11854:11855   */\n      dup2\n        /* \"#utility.yul\":11850:11862   */\n      add\n        /* \"#utility.yul\":11845:11862   */\n      swap1\n      pop\n        /* \"#utility.yul\":11820:12028   */\n      jump(tag_208)\n    tag_210:\n        /* \"#utility.yul\":12056:12062   */\n      dup7\n        /* \"#utility.yul\":12047:12054   */\n      dup4\n        /* \"#utility.yul\":12044:12063   */\n      lt\n        /* \"#utility.yul\":12041:12220   */\n      iszero\n      tag_211\n      jumpi\n        /* \"#utility.yul\":12114:12123   */\n      dup5\n        /* \"#utility.yul\":12109:12112   */\n      dup10\n        /* \"#utility.yul\":12105:12124   */\n      add\n        /* \"#utility.yul\":12099:12125   */\n      mload\n        /* \"#utility.yul\":12157:12205   */\n      tag_212\n        /* \"#utility.yul\":12199:12203   */\n      0x1f\n        /* \"#utility.yul\":12191:12197   */\n      dup10\n        /* \"#utility.yul\":12187:12204   */\n      and\n        /* \"#utility.yul\":12176:12185   */\n      dup3\n        /* \"#utility.yul\":12157:12205   */\n      tag_77\n      jump\t// in\n    tag_212:\n        /* \"#utility.yul\":12149:12155   */\n      dup4\n        /* \"#utility.yul\":12142:12206   */\n      sstore\n        /* \"#utility.yul\":12064:12220   */\n      pop\n        /* \"#utility.yul\":12041:12220   */\n    tag_211:\n        /* \"#utility.yul\":12266:12267   */\n      0x01\n        /* \"#utility.yul\":12262:12263   */\n      0x02\n        /* \"#utility.yul\":12254:12260   */\n      dup9\n        /* \"#utility.yul\":12250:12264   */\n      mul\n        /* \"#utility.yul\":12246:12268   */\n      add\n        /* \"#utility.yul\":12240:12244   */\n      dup9\n        /* \"#utility.yul\":12233:12269   */\n      sstore\n        /* \"#utility.yul\":11668:12279   */\n      pop\n      pop\n      pop\n        /* \"#utility.yul\":11631:12518   */\n    tag_203:\n      pop\n        /* \"#utility.yul\":11221:12524   */\n      pop\n      pop\n      pop\n        /* \"#utility.yul\":11129:12524   */\n      pop\n      pop\n      jump\t// out\n\n    auxdata: 0xa2646970667358221220efce660596c867824eeeeaa86b5cc4236f5cd0944b170da4b77f142ee0fbbc6c64736f6c63430008190033\n}\n",
				"bytecode": {
					"linkReferences": {},
					"object": "6080604052348015600e575f80fd5b50335f806101000a81548173ffffffffffffffffffffffffffffffffffffffff021916908373ffffffffffffffffffffffffffffffffffffffff160217905550610a2d8061005b5f395ff3fe608060405260043610610033575f3560e01c8063657a251214610037578063b688a36314610073578063c95f728a1461007d575b5f80fd5b348015610042575f80fd5b5061005d600480360381019061005891906103ee565b6100a5565b60405161006a9190610523565b60405180910390f35b61007b6101fe565b005b348015610088575f80fd5b506100a3600480360381019061009e919061066f565b610249565b005b6100ad610342565b60015f8373ffffffffffffffffffffffffffffffffffffffff1673ffffffffffffffffffffffffffffffffffffffff1681526020019081526020015f206040518060a00160405290815f820154815260200160018201805461010e906106e3565b80601f016020809104026020016040519081016040528092919081815260200182805461013a906106e3565b80156101855780601f1061015c57610100808354040283529160200191610185565b820191905f5260205f20905b81548152906001019060200180831161016857829003601f168201915b50505050508152602001600282015f9054906101000a900473ffffffffffffffffffffffffffffffffffffffff1673ffffffffffffffffffffffffffffffffffffffff1673ffffffffffffffffffffffffffffffffffffffff168152602001600382015481526020016004820154815250509050919050565b662386f26fc100003414610247576040517f08c379a000000000000000000000000000000000000000000000000000000000815260040161023e9061076d565b60405180910390fd5b565b6040518060a00160405280600181526020018281526020013373ffffffffffffffffffffffffffffffffffffffff1681526020015f81526020015f81525060015f3373ffffffffffffffffffffffffffffffffffffffff1673ffffffffffffffffffffffffffffffffffffffff1681526020019081526020015f205f820151815f015560208201518160010190816102e19190610928565b506040820151816002015f6101000a81548173ffffffffffffffffffffffffffffffffffffffff021916908373ffffffffffffffffffffffffffffffffffffffff160217905550606082015181600301556080820151816004015590505050565b6040518060a001604052805f8152602001606081526020015f73ffffffffffffffffffffffffffffffffffffffff1681526020015f81526020015f81525090565b5f604051905090565b5f80fd5b5f80fd5b5f73ffffffffffffffffffffffffffffffffffffffff82169050919050565b5f6103bd82610394565b9050919050565b6103cd816103b3565b81146103d7575f80fd5b50565b5f813590506103e8816103c4565b92915050565b5f602082840312156104035761040261038c565b5b5f610410848285016103da565b91505092915050565b5f819050919050565b61042b81610419565b82525050565b5f81519050919050565b5f82825260208201905092915050565b8281835e5f83830152505050565b5f601f19601f8301169050919050565b5f61047382610431565b61047d818561043b565b935061048d81856020860161044b565b61049681610459565b840191505092915050565b6104aa816103b3565b82525050565b5f60a083015f8301516104c55f860182610422565b50602083015184820360208601526104dd8282610469565b91505060408301516104f260408601826104a1565b5060608301516105056060860182610422565b5060808301516105186080860182610422565b508091505092915050565b5f6020820190508181035f83015261053b81846104b0565b905092915050565b5f80fd5b5f80fd5b7f4e487b71000000000000000000000000000000000000000000000000000000005f52604160045260245ffd5b61058182610459565b810181811067ffffffffffffffff821117156105a05761059f61054b565b5b80604052505050565b5f6105b2610383565b90506105be8282610578565b919050565b5f67ffffffffffffffff8211156105dd576105dc61054b565b5b6105e682610459565b9050602081019050919050565b828183375f83830152505050565b5f61061361060e846105c3565b6105a9565b90508281526020810184848401111561062f5761062e610547565b5b61063a8482856105f3565b509392505050565b5f82601f83011261065657610655610543565b5b8135610666848260208601610601565b91505092915050565b5f602082840312156106845761068361038c565b5b5f82013567ffffffffffffffff8111156106a1576106a0610390565b5b6106ad84828501610642565b91505092915050565b7f4e487b71000000000000000000000000000000000000000000000000000000005f52602260045260245ffd5b5f60028204905060018216806106fa57607f821691505b60208210810361070d5761070c6106b6565b5b50919050565b5f82825260208201905092915050565b7f4e4f5045000000000000000000000000000000000000000000000000000000005f82015250565b5f610757600483610713565b915061076282610723565b602082019050919050565b5f6020820190508181035f8301526107848161074b565b9050919050565b5f819050815f5260205f209050919050565b5f6020601f8301049050919050565b5f82821b905092915050565b5f600883026107e77fffffffffffffffffffffffffffffffffffffffffffffffffffffffffffffffff826107ac565b6107f186836107ac565b95508019841693508086168417925050509392505050565b5f819050919050565b5f61082c61082761082284610419565b610809565b610419565b9050919050565b5f819050919050565b61084583610812565b61085961085182610833565b8484546107b8565b825550505050565b5f90565b61086d610861565b61087881848461083c565b505050565b5b8181101561089b576108905f82610865565b60018101905061087e565b5050565b601f8211156108e0576108b18161078b565b6108ba8461079d565b810160208510156108c9578190505b6108dd6108d58561079d565b83018261087d565b50505b505050565b5f82821c905092915050565b5f6109005f19846008026108e5565b1980831691505092915050565b5f61091883836108f1565b9150826002028217905092915050565b61093182610431565b67ffffffffffffffff81111561094a5761094961054b565b5b61095482546106e3565b61095f82828561089f565b5f60209050601f831160018114610990575f841561097e578287015190505b610988858261090d565b8655506109ef565b601f19841661099e8661078b565b5f5b828110156109c5578489015182556001820191506020850194506020810190506109a0565b868310156109e257848901516109de601f8916826108f1565b8355505b6001600288020188555050505b50505050505056fea2646970667358221220efce660596c867824eeeeaa86b5cc4236f5cd0944b170da4b77f142ee0fbbc6c64736f6c63430008190033",
					"opcodes": "PUSH1 0x80 PUSH1 0x40 MSTORE CALLVALUE DUP1 ISZERO PUSH1 0xE JUMPI PUSH0 DUP1 REVERT JUMPDEST POP CALLER PUSH0 DUP1 PUSH2 0x100 EXP DUP2 SLOAD DUP2 PUSH20 0xFFFFFFFFFFFFFFFFFFFFFFFFFFFFFFFFFFFFFFFF MUL NOT AND SWAP1 DUP4 PUSH20 0xFFFFFFFFFFFFFFFFFFFFFFFFFFFFFFFFFFFFFFFF AND MUL OR SWAP1 SSTORE POP PUSH2 0xA2D DUP1 PUSH2 0x5B PUSH0 CODECOPY PUSH0 RETURN INVALID PUSH1 0x80 PUSH1 0x40 MSTORE PUSH1 0x4 CALLDATASIZE LT PUSH2 0x33 JUMPI PUSH0 CALLDATALOAD PUSH1 0xE0 SHR DUP1 PUSH4 0x657A2512 EQ PUSH2 0x37 JUMPI DUP1 PUSH4 0xB688A363 EQ PUSH2 0x73 JUMPI DUP1 PUSH4 0xC95F728A EQ PUSH2 0x7D JUMPI JUMPDEST PUSH0 DUP1 REVERT JUMPDEST CALLVALUE DUP1 ISZERO PUSH2 0x42 JUMPI PUSH0 DUP1 REVERT JUMPDEST POP PUSH2 0x5D PUSH1 0x4 DUP1 CALLDATASIZE SUB DUP2 ADD SWAP1 PUSH2 0x58 SWAP2 SWAP1 PUSH2 0x3EE JUMP JUMPDEST PUSH2 0xA5 JUMP JUMPDEST PUSH1 0x40 MLOAD PUSH2 0x6A SWAP2 SWAP1 PUSH2 0x523 JUMP JUMPDEST PUSH1 0x40 MLOAD DUP1 SWAP2 SUB SWAP1 RETURN JUMPDEST PUSH2 0x7B PUSH2 0x1FE JUMP JUMPDEST STOP JUMPDEST CALLVALUE DUP1 ISZERO PUSH2 0x88 JUMPI PUSH0 DUP1 REVERT JUMPDEST POP PUSH2 0xA3 PUSH1 0x4 DUP1 CALLDATASIZE SUB DUP2 ADD SWAP1 PUSH2 0x9E SWAP2 SWAP1 PUSH2 0x66F JUMP JUMPDEST PUSH2 0x249 JUMP JUMPDEST STOP JUMPDEST PUSH2 0xAD PUSH2 0x342 JUMP JUMPDEST PUSH1 0x1 PUSH0 DUP4 PUSH20 0xFFFFFFFFFFFFFFFFFFFFFFFFFFFFFFFFFFFFFFFF AND PUSH20 0xFFFFFFFFFFFFFFFFFFFFFFFFFFFFFFFFFFFFFFFF AND DUP2 MSTORE PUSH1 0x20 ADD SWAP1 DUP2 MSTORE PUSH1 0x20 ADD PUSH0 KECCAK256 PUSH1 0x40 MLOAD DUP1 PUSH1 0xA0 ADD PUSH1 0x40 MSTORE SWAP1 DUP2 PUSH0 DUP3 ADD SLOAD DUP2 MSTORE PUSH1 0x20 ADD PUSH1 0x1 DUP3 ADD DUP1 SLOAD PUSH2 0x10E SWAP1 PUSH2 0x6E3 JUMP JUMPDEST DUP1 PUSH1 0x1F ADD PUSH1 0x20 DUP1 SWAP2 DIV MUL PUSH1 0x20 ADD PUSH1 0x40 MLOAD SWAP1 DUP2 ADD PUSH1 0x40 MSTORE DUP1 SWAP3 SWAP2 SWAP1 DUP2 DUP2 MSTORE PUSH1 0x20 ADD DUP3 DUP1 SLOAD PUSH2 0x13A SWAP1 PUSH2 0x6E3 JUMP JUMPDEST DUP1 ISZERO PUSH2 0x185 JUMPI DUP1 PUSH1 0x1F LT PUSH2 0x15C JUMPI PUSH2 0x100 DUP1 DUP4 SLOAD DIV MUL DUP4 MSTORE SWAP2 PUSH1 0x20 ADD SWAP2 PUSH2 0x185 JUMP JUMPDEST DUP3 ADD SWAP2 SWAP1 PUSH0 MSTORE PUSH1 0x20 PUSH0 KECCAK256 SWAP1 JUMPDEST DUP2 SLOAD DUP2 MSTORE SWAP1 PUSH1 0x1 ADD SWAP1 PUSH1 0x20 ADD DUP1 DUP4 GT PUSH2 0x168 JUMPI DUP3 SWAP1 SUB PUSH1 0x1F AND DUP3 ADD SWAP2 JUMPDEST POP POP POP POP POP DUP2 MSTORE PUSH1 0x20 ADD PUSH1 0x2 DUP3 ADD PUSH0 SWAP1 SLOAD SWAP1 PUSH2 0x100 EXP SWAP1 DIV PUSH20 0xFFFFFFFFFFFFFFFFFFFFFFFFFFFFFFFFFFFFFFFF AND PUSH20 0xFFFFFFFFFFFFFFFFFFFFFFFFFFFFFFFFFFFFFFFF AND PUSH20 0xFFFFFFFFFFFFFFFFFFFFFFFFFFFFFFFFFFFFFFFF AND DUP2 MSTORE PUSH1 0x20 ADD PUSH1 0x3 DUP3 ADD SLOAD DUP2 MSTORE PUSH1 0x20 ADD PUSH1 0x4 DUP3 ADD SLOAD DUP2 MSTORE POP POP SWAP1 POP SWAP2 SWAP1 POP JUMP JUMPDEST PUSH7 0x2386F26FC10000 CALLVALUE EQ PUSH2 0x247 JUMPI PUSH1 0x40 MLOAD PUSH32 0x8C379A000000000000000000000000000000000000000000000000000000000 DUP2 MSTORE PUSH1 0x4 ADD PUSH2 0x23E SWAP1 PUSH2 0x76D JUMP JUMPDEST PUSH1 0x40 MLOAD DUP1 SWAP2 SUB SWAP1 REVERT JUMPDEST JUMP JUMPDEST PUSH1 0x40 MLOAD DUP1 PUSH1 0xA0 ADD PUSH1 0x40 MSTORE DUP1 PUSH1 0x1 DUP2 MSTORE PUSH1 0x20 ADD DUP3 DUP2 MSTORE PUSH1 0x20 ADD CALLER PUSH20 0xFFFFFFFFFFFFFFFFFFFFFFFFFFFFFFFFFFFFFFFF AND DUP2 MSTORE PUSH1 0x20 ADD PUSH0 DUP2 MSTORE PUSH1 0x20 ADD PUSH0 DUP2 MSTORE POP PUSH1 0x1 PUSH0 CALLER PUSH20 0xFFFFFFFFFFFFFFFFFFFFFFFFFFFFFFFFFFFFFFFF AND PUSH20 0xFFFFFFFFFFFFFFFFFFFFFFFFFFFFFFFFFFFFFFFF AND DUP2 MSTORE PUSH1 0x20 ADD SWAP1 DUP2 MSTORE PUSH1 0x20 ADD PUSH0 KECCAK256 PUSH0 DUP3 ADD MLOAD DUP2 PUSH0 ADD SSTORE PUSH1 0x20 DUP3 ADD MLOAD DUP2 PUSH1 0x1 ADD SWAP1 DUP2 PUSH2 0x2E1 SWAP2 SWAP1 PUSH2 0x928 JUMP JUMPDEST POP PUSH1 0x40 DUP3 ADD MLOAD DUP2 PUSH1 0x2 ADD PUSH0 PUSH2 0x100 EXP DUP2 SLOAD DUP2 PUSH20 0xFFFFFFFFFFFFFFFFFFFFFFFFFFFFFFFFFFFFFFFF MUL NOT AND SWAP1 DUP4 PUSH20 0xFFFFFFFFFFFFFFFFFFFFFFFFFFFFFFFFFFFFFFFF AND MUL OR SWAP1 SSTORE POP PUSH1 0x60 DUP3 ADD MLOAD DUP2 PUSH1 0x3 ADD SSTORE PUSH1 0x80 DUP3 ADD MLOAD DUP2 PUSH1 0x4 ADD SSTORE SWAP1 POP POP POP JUMP JUMPDEST PUSH1 0x40 MLOAD DUP1 PUSH1 0xA0 ADD PUSH1 0x40 MSTORE DUP1 PUSH0 DUP2 MSTORE PUSH1 0x20 ADD PUSH1 0x60 DUP2 MSTORE PUSH1 0x20 ADD PUSH0 PUSH20 0xFFFFFFFFFFFFFFFFFFFFFFFFFFFFFFFFFFFFFFFF AND DUP2 MSTORE PUSH1 0x20 ADD PUSH0 DUP2 MSTORE PUSH1 0x20 ADD PUSH0 DUP2 MSTORE POP SWAP1 JUMP JUMPDEST PUSH0 PUSH1 0x40 MLOAD SWAP1 POP SWAP1 JUMP JUMPDEST PUSH0 DUP1 REVERT JUMPDEST PUSH0 DUP1 REVERT JUMPDEST PUSH0 PUSH20 0xFFFFFFFFFFFFFFFFFFFFFFFFFFFFFFFFFFFFFFFF DUP3 AND SWAP1 POP SWAP2 SWAP1 POP JUMP JUMPDEST PUSH0 PUSH2 0x3BD DUP3 PUSH2 0x394 JUMP JUMPDEST SWAP1 POP SWAP2 SWAP1 POP JUMP JUMPDEST PUSH2 0x3CD DUP2 PUSH2 0x3B3 JUMP JUMPDEST DUP2 EQ PUSH2 0x3D7 JUMPI PUSH0 DUP1 REVERT JUMPDEST POP JUMP JUMPDEST PUSH0 DUP2 CALLDATALOAD SWAP1 POP PUSH2 0x3E8 DUP2 PUSH2 0x3C4 JUMP JUMPDEST SWAP3 SWAP2 POP POP JUMP JUMPDEST PUSH0 PUSH1 0x20 DUP3 DUP5 SUB SLT ISZERO PUSH2 0x403 JUMPI PUSH2 0x402 PUSH2 0x38C JUMP JUMPDEST JUMPDEST PUSH0 PUSH2 0x410 DUP5 DUP3 DUP6 ADD PUSH2 0x3DA JUMP JUMPDEST SWAP2 POP POP SWAP3 SWAP2 POP POP JUMP JUMPDEST PUSH0 DUP2 SWAP1 POP SWAP2 SWAP1 POP JUMP JUMPDEST PUSH2 0x42B DUP2 PUSH2 0x419 JUMP JUMPDEST DUP3 MSTORE POP POP JUMP JUMPDEST PUSH0 DUP2 MLOAD SWAP1 POP SWAP2 SWAP1 POP JUMP JUMPDEST PUSH0 DUP3 DUP3 MSTORE PUSH1 0x20 DUP3 ADD SWAP1 POP SWAP3 SWAP2 POP POP JUMP JUMPDEST DUP3 DUP2 DUP4 MCOPY PUSH0 DUP4 DUP4 ADD MSTORE POP POP POP JUMP JUMPDEST PUSH0 PUSH1 0x1F NOT PUSH1 0x1F DUP4 ADD AND SWAP1 POP SWAP2 SWAP1 POP JUMP JUMPDEST PUSH0 PUSH2 0x473 DUP3 PUSH2 0x431 JUMP JUMPDEST PUSH2 0x47D DUP2 DUP6 PUSH2 0x43B JUMP JUMPDEST SWAP4 POP PUSH2 0x48D DUP2 DUP6 PUSH1 0x20 DUP7 ADD PUSH2 0x44B JUMP JUMPDEST PUSH2 0x496 DUP2 PUSH2 0x459 JUMP JUMPDEST DUP5 ADD SWAP2 POP POP SWAP3 SWAP2 POP POP JUMP JUMPDEST PUSH2 0x4AA DUP2 PUSH2 0x3B3 JUMP JUMPDEST DUP3 MSTORE POP POP JUMP JUMPDEST PUSH0 PUSH1 0xA0 DUP4 ADD PUSH0 DUP4 ADD MLOAD PUSH2 0x4C5 PUSH0 DUP7 ADD DUP3 PUSH2 0x422 JUMP JUMPDEST POP PUSH1 0x20 DUP4 ADD MLOAD DUP5 DUP3 SUB PUSH1 0x20 DUP7 ADD MSTORE PUSH2 0x4DD DUP3 DUP3 PUSH2 0x469 JUMP JUMPDEST SWAP2 POP POP PUSH1 0x40 DUP4 ADD MLOAD PUSH2 0x4F2 PUSH1 0x40 DUP7 ADD DUP3 PUSH2 0x4A1 JUMP JUMPDEST POP PUSH1 0x60 DUP4 ADD MLOAD PUSH2 0x505 PUSH1 0x60 DUP7 ADD DUP3 PUSH2 0x422 JUMP JUMPDEST POP PUSH1 0x80 DUP4 ADD MLOAD PUSH2 0x518 PUSH1 0x80 DUP7 ADD DUP3 PUSH2 0x422 JUMP JUMPDEST POP DUP1 SWAP2 POP POP SWAP3 SWAP2 POP POP JUMP JUMPDEST PUSH0 PUSH1 0x20 DUP3 ADD SWAP1 POP DUP2 DUP2 SUB PUSH0 DUP4 ADD MSTORE PUSH2 0x53B DUP2 DUP5 PUSH2 0x4B0 JUMP JUMPDEST SWAP1 POP SWAP3 SWAP2 POP POP JUMP JUMPDEST PUSH0 DUP1 REVERT JUMPDEST PUSH0 DUP1 REVERT JUMPDEST PUSH32 0x4E487B7100000000000000000000000000000000000000000000000000000000 PUSH0 MSTORE PUSH1 0x41 PUSH1 0x4 MSTORE PUSH1 0x24 PUSH0 REVERT JUMPDEST PUSH2 0x581 DUP3 PUSH2 0x459 JUMP JUMPDEST DUP2 ADD DUP2 DUP2 LT PUSH8 0xFFFFFFFFFFFFFFFF DUP3 GT OR ISZERO PUSH2 0x5A0 JUMPI PUSH2 0x59F PUSH2 0x54B JUMP JUMPDEST JUMPDEST DUP1 PUSH1 0x40 MSTORE POP POP POP JUMP JUMPDEST PUSH0 PUSH2 0x5B2 PUSH2 0x383 JUMP JUMPDEST SWAP1 POP PUSH2 0x5BE DUP3 DUP3 PUSH2 0x578 JUMP JUMPDEST SWAP2 SWAP1 POP JUMP JUMPDEST PUSH0 PUSH8 0xFFFFFFFFFFFFFFFF DUP3 GT ISZERO PUSH2 0x5DD JUMPI PUSH2 0x5DC PUSH2 0x54B JUMP JUMPDEST JUMPDEST PUSH2 0x5E6 DUP3 PUSH2 0x459 JUMP JUMPDEST SWAP1 POP PUSH1 0x20 DUP2 ADD SWAP1 POP SWAP2 SWAP1 POP JUMP JUMPDEST DUP3 DUP2 DUP4 CALLDATACOPY PUSH0 DUP4 DUP4 ADD MSTORE POP POP POP JUMP JUMPDEST PUSH0 PUSH2 0x613 PUSH2 0x60E DUP5 PUSH2 0x5C3 JUMP JUMPDEST PUSH2 0x5A9 JUMP JUMPDEST SWAP1 POP DUP3 DUP2 MSTORE PUSH1 0x20 DUP2 ADD DUP5 DUP5 DUP5 ADD GT ISZERO PUSH2 0x62F JUMPI PUSH2 0x62E PUSH2 0x547 JUMP JUMPDEST JUMPDEST PUSH2 0x63A DUP5 DUP3 DUP6 PUSH2 0x5F3 JUMP JUMPDEST POP SWAP4 SWAP3 POP POP POP JUMP JUMPDEST PUSH0 DUP3 PUSH1 0x1F DUP4 ADD SLT PUSH2 0x656 JUMPI PUSH2 0x655 PUSH2 0x543 JUMP JUMPDEST JUMPDEST DUP2 CALLDATALOAD PUSH2 0x666 DUP5 DUP3 PUSH1 0x20 DUP7 ADD PUSH2 0x601 JUMP JUMPDEST SWAP2 POP POP SWAP3 SWAP2 POP POP JUMP JUMPDEST PUSH0 PUSH1 0x20 DUP3 DUP5 SUB SLT ISZERO PUSH2 0x684 JUMPI PUSH2 0x683 PUSH2 0x38C JUMP JUMPDEST JUMPDEST PUSH0 DUP3 ADD CALLDATALOAD PUSH8 0xFFFFFFFFFFFFFFFF DUP2 GT ISZERO PUSH2 0x6A1 JUMPI PUSH2 0x6A0 PUSH2 0x390 JUMP JUMPDEST JUMPDEST PUSH2 0x6AD DUP5 DUP3 DUP6 ADD PUSH2 0x642 JUMP JUMPDEST SWAP2 POP POP SWAP3 SWAP2 POP POP JUMP JUMPDEST PUSH32 0x4E487B7100000000000000000000000000000000000000000000000000000000 PUSH0 MSTORE PUSH1 0x22 PUSH1 0x4 MSTORE PUSH1 0x24 PUSH0 REVERT JUMPDEST PUSH0 PUSH1 0x2 DUP3 DIV SWAP1 POP PUSH1 0x1 DUP3 AND DUP1 PUSH2 0x6FA JUMPI PUSH1 0x7F DUP3 AND SWAP2 POP JUMPDEST PUSH1 0x20 DUP3 LT DUP2 SUB PUSH2 0x70D JUMPI PUSH2 0x70C PUSH2 0x6B6 JUMP JUMPDEST JUMPDEST POP SWAP2 SWAP1 POP JUMP JUMPDEST PUSH0 DUP3 DUP3 MSTORE PUSH1 0x20 DUP3 ADD SWAP1 POP SWAP3 SWAP2 POP POP JUMP JUMPDEST PUSH32 0x4E4F504500000000000000000000000000000000000000000000000000000000 PUSH0 DUP3 ADD MSTORE POP JUMP JUMPDEST PUSH0 PUSH2 0x757 PUSH1 0x4 DUP4 PUSH2 0x713 JUMP JUMPDEST SWAP2 POP PUSH2 0x762 DUP3 PUSH2 0x723 JUMP JUMPDEST PUSH1 0x20 DUP3 ADD SWAP1 POP SWAP2 SWAP1 POP JUMP JUMPDEST PUSH0 PUSH1 0x20 DUP3 ADD SWAP1 POP DUP2 DUP2 SUB PUSH0 DUP4 ADD MSTORE PUSH2 0x784 DUP2 PUSH2 0x74B JUMP JUMPDEST SWAP1 POP SWAP2 SWAP1 POP JUMP JUMPDEST PUSH0 DUP2 SWAP1 POP DUP2 PUSH0 MSTORE PUSH1 0x20 PUSH0 KECCAK256 SWAP1 POP SWAP2 SWAP1 POP JUMP JUMPDEST PUSH0 PUSH1 0x20 PUSH1 0x1F DUP4 ADD DIV SWAP1 POP SWAP2 SWAP1 POP JUMP JUMPDEST PUSH0 DUP3 DUP3 SHL SWAP1 POP SWAP3 SWAP2 POP POP JUMP JUMPDEST PUSH0 PUSH1 0x8 DUP4 MUL PUSH2 0x7E7 PUSH32 0xFFFFFFFFFFFFFFFFFFFFFFFFFFFFFFFFFFFFFFFFFFFFFFFFFFFFFFFFFFFFFFFF DUP3 PUSH2 0x7AC JUMP JUMPDEST PUSH2 0x7F1 DUP7 DUP4 PUSH2 0x7AC JUMP JUMPDEST SWAP6 POP DUP1 NOT DUP5 AND SWAP4 POP DUP1 DUP7 AND DUP5 OR SWAP3 POP POP POP SWAP4 SWAP3 POP POP POP JUMP JUMPDEST PUSH0 DUP2 SWAP1 POP SWAP2 SWAP1 POP JUMP JUMPDEST PUSH0 PUSH2 0x82C PUSH2 0x827 PUSH2 0x822 DUP5 PUSH2 0x419 JUMP JUMPDEST PUSH2 0x809 JUMP JUMPDEST PUSH2 0x419 JUMP JUMPDEST SWAP1 POP SWAP2 SWAP1 POP JUMP JUMPDEST PUSH0 DUP2 SWAP1 POP SWAP2 SWAP1 POP JUMP JUMPDEST PUSH2 0x845 DUP4 PUSH2 0x812 JUMP JUMPDEST PUSH2 0x859 PUSH2 0x851 DUP3 PUSH2 0x833 JUMP JUMPDEST DUP5 DUP5 SLOAD PUSH2 0x7B8 JUMP JUMPDEST DUP3 SSTORE POP POP POP POP JUMP JUMPDEST PUSH0 SWAP1 JUMP JUMPDEST PUSH2 0x86D PUSH2 0x861 JUMP JUMPDEST PUSH2 0x878 DUP2 DUP5 DUP5 PUSH2 0x83C JUMP JUMPDEST POP POP POP JUMP JUMPDEST JUMPDEST DUP2 DUP2 LT ISZERO PUSH2 0x89B JUMPI PUSH2 0x890 PUSH0 DUP3 PUSH2 0x865 JUMP JUMPDEST PUSH1 0x1 DUP2 ADD SWAP1 POP PUSH2 0x87E JUMP JUMPDEST POP POP JUMP JUMPDEST PUSH1 0x1F DUP3 GT ISZERO PUSH2 0x8E0 JUMPI PUSH2 0x8B1 DUP2 PUSH2 0x78B JUMP JUMPDEST PUSH2 0x8BA DUP5 PUSH2 0x79D JUMP JUMPDEST DUP2 ADD PUSH1 0x20 DUP6 LT ISZERO PUSH2 0x8C9 JUMPI DUP2 SWAP1 POP JUMPDEST PUSH2 0x8DD PUSH2 0x8D5 DUP6 PUSH2 0x79D JUMP JUMPDEST DUP4 ADD DUP3 PUSH2 0x87D JUMP JUMPDEST POP POP JUMPDEST POP POP POP JUMP JUMPDEST PUSH0 DUP3 DUP3 SHR SWAP1 POP SWAP3 SWAP2 POP POP JUMP JUMPDEST PUSH0 PUSH2 0x900 PUSH0 NOT DUP5 PUSH1 0x8 MUL PUSH2 0x8E5 JUMP JUMPDEST NOT DUP1 DUP4 AND SWAP2 POP POP SWAP3 SWAP2 POP POP JUMP JUMPDEST PUSH0 PUSH2 0x918 DUP4 DUP4 PUSH2 0x8F1 JUMP JUMPDEST SWAP2 POP DUP3 PUSH1 0x2 MUL DUP3 OR SWAP1 POP SWAP3 SWAP2 POP POP JUMP JUMPDEST PUSH2 0x931 DUP3 PUSH2 0x431 JUMP JUMPDEST PUSH8 0xFFFFFFFFFFFFFFFF DUP2 GT ISZERO PUSH2 0x94A JUMPI PUSH2 0x949 PUSH2 0x54B JUMP JUMPDEST JUMPDEST PUSH2 0x954 DUP3 SLOAD PUSH2 0x6E3 JUMP JUMPDEST PUSH2 0x95F DUP3 DUP3 DUP6 PUSH2 0x89F JUMP JUMPDEST PUSH0 PUSH1 0x20 SWAP1 POP PUSH1 0x1F DUP4 GT PUSH1 0x1 DUP2 EQ PUSH2 0x990 JUMPI PUSH0 DUP5 ISZERO PUSH2 0x97E JUMPI DUP3 DUP8 ADD MLOAD SWAP1 POP JUMPDEST PUSH2 0x988 DUP6 DUP3 PUSH2 0x90D JUMP JUMPDEST DUP7 SSTORE POP PUSH2 0x9EF JUMP JUMPDEST PUSH1 0x1F NOT DUP5 AND PUSH2 0x99E DUP7 PUSH2 0x78B JUMP JUMPDEST PUSH0 JUMPDEST DUP3 DUP2 LT ISZERO PUSH2 0x9C5 JUMPI DUP5 DUP10 ADD MLOAD DUP3 SSTORE PUSH1 0x1 DUP3 ADD SWAP2 POP PUSH1 0x20 DUP6 ADD SWAP5 POP PUSH1 0x20 DUP2 ADD SWAP1 POP PUSH2 0x9A0 JUMP JUMPDEST DUP7 DUP4 LT ISZERO PUSH2 0x9E2 JUMPI DUP5 DUP10 ADD MLOAD PUSH2 0x9DE PUSH1 0x1F DUP10 AND DUP3 PUSH2 0x8F1 JUMP JUMPDEST DUP4 SSTORE POP JUMPDEST PUSH1 0x1 PUSH1 0x2 DUP9 MUL ADD DUP9 SSTORE POP POP POP JUMPDEST POP POP POP POP POP POP JUMP INVALID LOG2 PUSH5 0x6970667358 0x22 SLT KECCAK256 0xEF 0xCE PUSH7 0x596C867824EEE 0xEA 0xA8 PUSH12 0x5CC4236F5CD0944B170DA4B7 PUSH32 0x142EE0FBBC6C64736F6C63430008190033000000000000000000000000000000 "
				},
				"gasEstimates": {
					"creation": {
						"codeDepositCost": "521000",
						"executionCost": "24819",
						"totalCost": "545819"
					},
					"external": {
						"join()": "425",
						"search(address)": "infinite",
						"signIn(string)": "infinite"
					}
				},
				"methodIdentifiers": {
					"join()": "b688a363",
					"search(address)": "657a2512",
					"signIn(string)": "c95f728a"
				}
			},
			"storageLayout": {
				"storage": [
					{
						"astId": 259,
						"contract": "solidity_test/test4.sol:Answer",
						"label": "owner",
						"offset": 0,
						"slot": "0",
						"type": "t_address_payable"
					},
					{
						"astId": 264,
						"contract": "solidity_test/test4.sol:Answer",
						"label": "users",
						"offset": 0,
						"slot": "1",
						"type": "t_mapping(t_address,t_struct(USER)257_storage)"
					}
				],
				"types": {
					"t_address": {
						"encoding": "inplace",
						"label": "address",
						"numberOfBytes": "20"
					},
					"t_address_payable": {
						"encoding": "inplace",
						"label": "address payable",
						"numberOfBytes": "20"
					},
					"t_mapping(t_address,t_struct(USER)257_storage)": {
						"encoding": "mapping",
						"key": "t_address",
						"label": "mapping(address => struct Answer.USER)",
						"numberOfBytes": "32",
						"value": "t_struct(USER)257_storage"
					},
					"t_string_storage": {
						"encoding": "bytes",
						"label": "string",
						"numberOfBytes": "32"
					},
					"t_struct(USER)257_storage": {
						"encoding": "inplace",
						"label": "struct Answer.USER",
						"members": [
							{
								"astId": 248,
								"contract": "solidity_test/test4.sol:Answer",
								"label": "number",
								"offset": 0,
								"slot": "0",
								"type": "t_uint256"
							},
							{
								"astId": 250,
								"contract": "solidity_test/test4.sol:Answer",
								"label": "name",
								"offset": 0,
								"slot": "1",
								"type": "t_string_storage"
							},
							{
								"astId": 252,
								"contract": "solidity_test/test4.sol:Answer",
								"label": "wallet",
								"offset": 0,
								"slot": "2",
								"type": "t_address"
							},
							{
								"astId": 254,
								"contract": "solidity_test/test4.sol:Answer",
								"label": "balance",
								"offset": 0,
								"slot": "3",
								"type": "t_uint256"
							},
							{
								"astId": 256,
								"contract": "solidity_test/test4.sol:Answer",
								"label": "score",
								"offset": 0,
								"slot": "4",
								"type": "t_uint256"
							}
						],
						"numberOfBytes": "160"
					},
					"t_uint256": {
						"encoding": "inplace",
						"label": "uint256",
						"numberOfBytes": "32"
					}
				}
			},
			"userdoc": {
				"kind": "user",
				"methods": {},
				"version": 1
			}
		}
	}
}