{
	"solidity_test/test13.sol": {
		"A": {
			"abi": [
				{
					"inputs": [
						{
							"internalType": "uint256",
							"name": "_n",
							"type": "uint256"
						}
					],
					"name": "setNum",
					"outputs": [
						{
							"internalType": "uint256[]",
							"name": "",
							"type": "uint256[]"
						}
					],
					"stateMutability": "pure",
					"type": "function"
				},
				{
					"inputs": [
						{
							"internalType": "uint256",
							"name": "_n",
							"type": "uint256"
						}
					],
					"name": "setNum2",
					"outputs": [
						{
							"internalType": "uint256[4]",
							"name": "",
							"type": "uint256[4]"
						}
					],
					"stateMutability": "pure",
					"type": "function"
				},
				{
					"inputs": [
						{
							"internalType": "uint256",
							"name": "_n",
							"type": "uint256"
						}
					],
					"name": "setNum2Sum",
					"outputs": [
						{
							"internalType": "uint256[4]",
							"name": "",
							"type": "uint256[4]"
						}
					],
					"stateMutability": "pure",
					"type": "function"
				},
				{
					"inputs": [
						{
							"internalType": "uint256",
							"name": "_n",
							"type": "uint256"
						}
					],
					"name": "setNumSum",
					"outputs": [
						{
							"internalType": "uint256",
							"name": "",
							"type": "uint256"
						}
					],
					"stateMutability": "pure",
					"type": "function"
				}
			],
			"devdoc": {
				"kind": "dev",
				"methods": {},
				"version": 1
			},
			"evm": {
				"assembly": "    /* \"solidity_test/test13.sol\":75:2189  contract A {... */\n  mstore(0x40, 0x80)\n  callvalue\n  dup1\n  iszero\n  tag_1\n  jumpi\n  0x00\n  dup1\n  revert\ntag_1:\n  pop\n  dataSize(sub_0)\n  dup1\n  dataOffset(sub_0)\n  0x00\n  codecopy\n  0x00\n  return\nstop\n\nsub_0: assembly {\n        /* \"solidity_test/test13.sol\":75:2189  contract A {... */\n      mstore(0x40, 0x80)\n      callvalue\n      dup1\n      iszero\n      tag_1\n      jumpi\n      0x00\n      dup1\n      revert\n    tag_1:\n      pop\n      jumpi(tag_2, lt(calldatasize, 0x04))\n      shr(0xe0, calldataload(0x00))\n      dup1\n      0x4a3672c3\n      eq\n      tag_3\n      jumpi\n      dup1\n      0x57d4f2be\n      eq\n      tag_4\n      jumpi\n      dup1\n      0xc7ae8e33\n      eq\n      tag_5\n      jumpi\n      dup1\n      0xcd16ecbf\n      eq\n      tag_6\n      jumpi\n    tag_2:\n      0x00\n      dup1\n      revert\n        /* \"solidity_test/test13.sol\":1103:1387  function setNum2(uint _n) public pure returns(uint[4] memory) {... */\n    tag_3:\n      tag_7\n      0x04\n      dup1\n      calldatasize\n      sub\n      dup2\n      add\n      swap1\n      tag_8\n      swap2\n      swap1\n      tag_9\n      jump\t// in\n    tag_8:\n      tag_10\n      jump\t// in\n    tag_7:\n      mload(0x40)\n      tag_11\n      swap2\n      swap1\n      tag_12\n      jump\t// in\n    tag_11:\n      mload(0x40)\n      dup1\n      swap2\n      sub\n      swap1\n      return\n        /* \"solidity_test/test13.sol\":1798:2186  function setNum2Sum(uint _n) public pure returns(uint[4] memory) {... */\n    tag_4:\n      tag_13\n      0x04\n      dup1\n      calldatasize\n      sub\n      dup2\n      add\n      swap1\n      tag_14\n      swap2\n      swap1\n      tag_9\n      jump\t// in\n    tag_14:\n      tag_15\n      jump\t// in\n    tag_13:\n      mload(0x40)\n      tag_16\n      swap2\n      swap1\n      tag_12\n      jump\t// in\n    tag_16:\n      mload(0x40)\n      dup1\n      swap2\n      sub\n      swap1\n      return\n        /* \"solidity_test/test13.sol\":1399:1790  function setNumSum(uint _n) public pure returns(uint) {... */\n    tag_5:\n      tag_17\n      0x04\n      dup1\n      calldatasize\n      sub\n      dup2\n      add\n      swap1\n      tag_18\n      swap2\n      swap1\n      tag_9\n      jump\t// in\n    tag_18:\n      tag_19\n      jump\t// in\n    tag_17:\n      mload(0x40)\n      tag_20\n      swap2\n      swap1\n      tag_21\n      jump\t// in\n    tag_20:\n      mload(0x40)\n      dup1\n      swap2\n      sub\n      swap1\n      return\n        /* \"solidity_test/test13.sol\":753:1091  function setNum(uint _n) public pure returns(uint[] memory) {... */\n    tag_6:\n      tag_22\n      0x04\n      dup1\n      calldatasize\n      sub\n      dup2\n      add\n      swap1\n      tag_23\n      swap2\n      swap1\n      tag_9\n      jump\t// in\n    tag_23:\n      tag_24\n      jump\t// in\n    tag_22:\n      mload(0x40)\n      tag_25\n      swap2\n      swap1\n      tag_26\n      jump\t// in\n    tag_25:\n      mload(0x40)\n      dup1\n      swap2\n      sub\n      swap1\n      return\n        /* \"solidity_test/test13.sol\":1103:1387  function setNum2(uint _n) public pure returns(uint[4] memory) {... */\n    tag_10:\n        /* \"solidity_test/test13.sol\":1149:1163  uint[4] memory */\n      tag_27\n      tag_28\n      jump\t// in\n    tag_27:\n        /* \"solidity_test/test13.sol\":1176:1197  uint[4] memory Array2 */\n      tag_30\n      tag_28\n      jump\t// in\n    tag_30:\n        /* \"solidity_test/test13.sol\":1245:1246  0 */\n      0x00\n        /* \"solidity_test/test13.sol\":1234:1345  for{let i:=0} lt(i,_n) {i:=add(i,1)} {... */\n    tag_31:\n        /* \"solidity_test/test13.sol\":1253:1255  _n */\n      dup4\n        /* \"solidity_test/test13.sol\":1251:1252  i */\n      dup2\n        /* \"solidity_test/test13.sol\":1248:1256  lt(i,_n) */\n      lt\n        /* \"solidity_test/test13.sol\":1234:1345  for{let i:=0} lt(i,_n) {i:=add(i,1)} {... */\n      iszero\n      tag_33\n      jumpi\n        /* \"solidity_test/test13.sol\":1327:1328  1 */\n      0x01\n        /* \"solidity_test/test13.sol\":1325:1326  i */\n      dup2\n        /* \"solidity_test/test13.sol\":1321:1329  add(i,1) */\n      add\n        /* \"solidity_test/test13.sol\":1314:1318  0x20 */\n      0x20\n        /* \"solidity_test/test13.sol\":1312:1313  i */\n      dup3\n        /* \"solidity_test/test13.sol\":1308:1319  mul(i,0x20) */\n      mul\n        /* \"solidity_test/test13.sol\":1301:1307  Array2 */\n      dup4\n        /* \"solidity_test/test13.sol\":1297:1320  add(Array2,mul(i,0x20)) */\n      add\n        /* \"solidity_test/test13.sol\":1290:1330  mstore(add(Array2,mul(i,0x20)),add(i,1)) */\n      mstore\n        /* \"solidity_test/test13.sol\":1267:1268  1 */\n      0x01\n        /* \"solidity_test/test13.sol\":1265:1266  i */\n      dup2\n        /* \"solidity_test/test13.sol\":1261:1269  add(i,1) */\n      add\n        /* \"solidity_test/test13.sol\":1258:1269  i:=add(i,1) */\n      swap1\n      pop\n        /* \"solidity_test/test13.sol\":1234:1345  for{let i:=0} lt(i,_n) {i:=add(i,1)} {... */\n      jump(tag_31)\n    tag_33:\n        /* \"solidity_test/test13.sol\":1237:1247  {let i:=0} */\n      pop\n        /* \"solidity_test/test13.sol\":1373:1379  Array2 */\n      dup1\n        /* \"solidity_test/test13.sol\":1366:1379  return Array2 */\n      swap2\n      pop\n      pop\n        /* \"solidity_test/test13.sol\":1103:1387  function setNum2(uint _n) public pure returns(uint[4] memory) {... */\n      swap2\n      swap1\n      pop\n      jump\t// out\n        /* \"solidity_test/test13.sol\":1798:2186  function setNum2Sum(uint _n) public pure returns(uint[4] memory) {... */\n    tag_15:\n        /* \"solidity_test/test13.sol\":1847:1861  uint[4] memory */\n      tag_34\n      tag_28\n      jump\t// in\n    tag_34:\n        /* \"solidity_test/test13.sol\":1874:1895  uint[4] memory Array2 */\n      tag_36\n      tag_28\n      jump\t// in\n    tag_36:\n        /* \"solidity_test/test13.sol\":1906:1914  uint tot */\n      0x00\n        /* \"solidity_test/test13.sol\":1925:1935  uint limit */\n      dup1\n        /* \"solidity_test/test13.sol\":1943:1944  3 */\n      0x03\n        /* \"solidity_test/test13.sol\":1938:1940  _n */\n      dup6\n        /* \"solidity_test/test13.sol\":1938:1944  _n > 3 */\n      gt\n        /* \"solidity_test/test13.sol\":1938:1953  _n > 3 ? 4 : _n */\n      tag_37\n      jumpi\n        /* \"solidity_test/test13.sol\":1951:1953  _n */\n      dup5\n        /* \"solidity_test/test13.sol\":1938:1953  _n > 3 ? 4 : _n */\n      jump(tag_38)\n    tag_37:\n        /* \"solidity_test/test13.sol\":1947:1948  4 */\n      0x04\n        /* \"solidity_test/test13.sol\":1938:1953  _n > 3 ? 4 : _n */\n    tag_38:\n        /* \"solidity_test/test13.sol\":1925:1953  uint limit = _n > 3 ? 4 : _n */\n      swap1\n      pop\n        /* \"solidity_test/test13.sol\":1999:2000  0 */\n      0x00\n        /* \"solidity_test/test13.sol\":1988:2144  for{let i:=0} lt(i,limit) {i:=add(i,1)} {... */\n    tag_39:\n        /* \"solidity_test/test13.sol\":2007:2012  limit */\n      dup2\n        /* \"solidity_test/test13.sol\":2005:2006  i */\n      dup2\n        /* \"solidity_test/test13.sol\":2002:2013  lt(i,limit) */\n      lt\n        /* \"solidity_test/test13.sol\":1988:2144  for{let i:=0} lt(i,limit) {i:=add(i,1)} {... */\n      iszero\n      tag_41\n      jumpi\n        /* \"solidity_test/test13.sol\":2084:2085  1 */\n      0x01\n        /* \"solidity_test/test13.sol\":2082:2083  i */\n      dup2\n        /* \"solidity_test/test13.sol\":2078:2086  add(i,1) */\n      add\n        /* \"solidity_test/test13.sol\":2071:2075  0x20 */\n      0x20\n        /* \"solidity_test/test13.sol\":2069:2070  i */\n      dup3\n        /* \"solidity_test/test13.sol\":2065:2076  mul(i,0x20) */\n      mul\n        /* \"solidity_test/test13.sol\":2058:2064  Array2 */\n      dup6\n        /* \"solidity_test/test13.sol\":2054:2077  add(Array2,mul(i,0x20)) */\n      add\n        /* \"solidity_test/test13.sol\":2047:2087  mstore(add(Array2,mul(i,0x20)),add(i,1)) */\n      mstore\n        /* \"solidity_test/test13.sol\":2126:2127  1 */\n      0x01\n        /* \"solidity_test/test13.sol\":2124:2125  i */\n      dup2\n        /* \"solidity_test/test13.sol\":2120:2128  add(i,1) */\n      add\n        /* \"solidity_test/test13.sol\":2116:2119  tot */\n      dup4\n        /* \"solidity_test/test13.sol\":2112:2129  add(tot,add(i,1)) */\n      add\n        /* \"solidity_test/test13.sol\":2105:2129  tot := add(tot,add(i,1)) */\n      swap3\n      pop\n        /* \"solidity_test/test13.sol\":2024:2025  1 */\n      0x01\n        /* \"solidity_test/test13.sol\":2022:2023  i */\n      dup2\n        /* \"solidity_test/test13.sol\":2018:2026  add(i,1) */\n      add\n        /* \"solidity_test/test13.sol\":2015:2026  i:=add(i,1) */\n      swap1\n      pop\n        /* \"solidity_test/test13.sol\":1988:2144  for{let i:=0} lt(i,limit) {i:=add(i,1)} {... */\n      jump(tag_39)\n    tag_41:\n        /* \"solidity_test/test13.sol\":1991:2001  {let i:=0} */\n      pop\n        /* \"solidity_test/test13.sol\":2172:2178  Array2 */\n      dup3\n        /* \"solidity_test/test13.sol\":2165:2178  return Array2 */\n      swap4\n      pop\n      pop\n      pop\n      pop\n        /* \"solidity_test/test13.sol\":1798:2186  function setNum2Sum(uint _n) public pure returns(uint[4] memory) {... */\n      swap2\n      swap1\n      pop\n      jump\t// out\n        /* \"solidity_test/test13.sol\":1399:1790  function setNumSum(uint _n) public pure returns(uint) {... */\n    tag_19:\n        /* \"solidity_test/test13.sol\":1447:1451  uint */\n      0x00\n        /* \"solidity_test/test13.sol\":1464:1483  uint[] memory Array */\n      dup1\n        /* \"solidity_test/test13.sol\":1497:1499  _n */\n      dup3\n        /* \"solidity_test/test13.sol\":1486:1500  new uint[](_n) */\n      0xffffffffffffffff\n      dup2\n      gt\n      iszero\n      tag_43\n      jumpi\n      tag_44\n      tag_45\n      jump\t// in\n    tag_44:\n    tag_43:\n      mload(0x40)\n      swap1\n      dup1\n      dup3\n      mstore\n      dup1\n      0x20\n      mul\n      0x20\n      add\n      dup3\n      add\n      0x40\n      mstore\n      dup1\n      iszero\n      tag_46\n      jumpi\n      dup2\n      0x20\n      add\n      0x20\n      dup3\n      mul\n      dup1\n      calldatasize\n      dup4\n      calldatacopy\n      dup1\n      dup3\n      add\n      swap2\n      pop\n      pop\n      swap1\n      pop\n    tag_46:\n      pop\n        /* \"solidity_test/test13.sol\":1464:1500  uint[] memory Array = new uint[](_n) */\n      swap1\n      pop\n        /* \"solidity_test/test13.sol\":1511:1519  uint tot */\n      0x00\n        /* \"solidity_test/test13.sol\":1578:1582  0x20 */\n      0x20\n        /* \"solidity_test/test13.sol\":1571:1576  Array */\n      dup3\n        /* \"solidity_test/test13.sol\":1567:1583  add(Array, 0x20) */\n      add\n        /* \"solidity_test/test13.sol\":1608:1609  0 */\n      0x00\n        /* \"solidity_test/test13.sol\":1597:1749  for{let i:=0} lt(i,_n) {i:=add(i,1)} {... */\n    tag_47:\n        /* \"solidity_test/test13.sol\":1616:1618  _n */\n      dup6\n        /* \"solidity_test/test13.sol\":1614:1615  i */\n      dup2\n        /* \"solidity_test/test13.sol\":1611:1619  lt(i,_n) */\n      lt\n        /* \"solidity_test/test13.sol\":1597:1749  for{let i:=0} lt(i,_n) {i:=add(i,1)} {... */\n      iszero\n      tag_49\n      jumpi\n        /* \"solidity_test/test13.sol\":1689:1690  1 */\n      0x01\n        /* \"solidity_test/test13.sol\":1687:1688  i */\n      dup2\n        /* \"solidity_test/test13.sol\":1683:1691  add(i,1) */\n      add\n        /* \"solidity_test/test13.sol\":1676:1680  0x20 */\n      0x20\n        /* \"solidity_test/test13.sol\":1674:1675  i */\n      dup3\n        /* \"solidity_test/test13.sol\":1670:1681  mul(i,0x20) */\n      mul\n        /* \"solidity_test/test13.sol\":1664:1669  start */\n      dup4\n        /* \"solidity_test/test13.sol\":1660:1682  add(start,mul(i,0x20)) */\n      add\n        /* \"solidity_test/test13.sol\":1653:1692  mstore(add(start,mul(i,0x20)),add(i,1)) */\n      mstore\n        /* \"solidity_test/test13.sol\":1731:1732  1 */\n      0x01\n        /* \"solidity_test/test13.sol\":1729:1730  i */\n      dup2\n        /* \"solidity_test/test13.sol\":1725:1733  add(i,1) */\n      add\n        /* \"solidity_test/test13.sol\":1721:1724  tot */\n      dup4\n        /* \"solidity_test/test13.sol\":1717:1734  add(tot,add(i,1)) */\n      add\n        /* \"solidity_test/test13.sol\":1710:1734  tot := add(tot,add(i,1)) */\n      swap3\n      pop\n        /* \"solidity_test/test13.sol\":1630:1631  1 */\n      0x01\n        /* \"solidity_test/test13.sol\":1628:1629  i */\n      dup2\n        /* \"solidity_test/test13.sol\":1624:1632  add(i,1) */\n      add\n        /* \"solidity_test/test13.sol\":1621:1632  i:=add(i,1) */\n      swap1\n      pop\n        /* \"solidity_test/test13.sol\":1597:1749  for{let i:=0} lt(i,_n) {i:=add(i,1)} {... */\n      jump(tag_47)\n    tag_49:\n        /* \"solidity_test/test13.sol\":1600:1610  {let i:=0} */\n      pop\n        /* \"solidity_test/test13.sol\":1539:1762  {... */\n      pop\n        /* \"solidity_test/test13.sol\":1779:1782  tot */\n      dup1\n        /* \"solidity_test/test13.sol\":1772:1782  return tot */\n      swap3\n      pop\n      pop\n      pop\n        /* \"solidity_test/test13.sol\":1399:1790  function setNumSum(uint _n) public pure returns(uint) {... */\n      swap2\n      swap1\n      pop\n      jump\t// out\n        /* \"solidity_test/test13.sol\":753:1091  function setNum(uint _n) public pure returns(uint[] memory) {... */\n    tag_24:\n        /* \"solidity_test/test13.sol\":798:811  uint[] memory */\n      0x60\n        /* \"solidity_test/test13.sol\":824:843  uint[] memory Array */\n      0x00\n        /* \"solidity_test/test13.sol\":857:859  _n */\n      dup3\n        /* \"solidity_test/test13.sol\":846:860  new uint[](_n) */\n      0xffffffffffffffff\n      dup2\n      gt\n      iszero\n      tag_51\n      jumpi\n      tag_52\n      tag_45\n      jump\t// in\n    tag_52:\n    tag_51:\n      mload(0x40)\n      swap1\n      dup1\n      dup3\n      mstore\n      dup1\n      0x20\n      mul\n      0x20\n      add\n      dup3\n      add\n      0x40\n      mstore\n      dup1\n      iszero\n      tag_53\n      jumpi\n      dup2\n      0x20\n      add\n      0x20\n      dup3\n      mul\n      dup1\n      calldatasize\n      dup4\n      calldatacopy\n      dup1\n      dup3\n      add\n      swap2\n      pop\n      pop\n      swap1\n      pop\n    tag_53:\n      pop\n        /* \"solidity_test/test13.sol\":824:860  uint[] memory Array = new uint[](_n) */\n      swap1\n      pop\n        /* \"solidity_test/test13.sol\":921:925  0x20 */\n      0x20\n        /* \"solidity_test/test13.sol\":914:919  Array */\n      dup2\n        /* \"solidity_test/test13.sol\":910:926  add(Array, 0x20) */\n      add\n        /* \"solidity_test/test13.sol\":951:952  0 */\n      0x00\n        /* \"solidity_test/test13.sol\":940:1050  for{let i:=0} lt(i,_n) {i:=add(i,1)} {... */\n    tag_54:\n        /* \"solidity_test/test13.sol\":959:961  _n */\n      dup5\n        /* \"solidity_test/test13.sol\":957:958  i */\n      dup2\n        /* \"solidity_test/test13.sol\":954:962  lt(i,_n) */\n      lt\n        /* \"solidity_test/test13.sol\":940:1050  for{let i:=0} lt(i,_n) {i:=add(i,1)} {... */\n      iszero\n      tag_56\n      jumpi\n        /* \"solidity_test/test13.sol\":1032:1033  1 */\n      0x01\n        /* \"solidity_test/test13.sol\":1030:1031  i */\n      dup2\n        /* \"solidity_test/test13.sol\":1026:1034  add(i,1) */\n      add\n        /* \"solidity_test/test13.sol\":1019:1023  0x20 */\n      0x20\n        /* \"solidity_test/test13.sol\":1017:1018  i */\n      dup3\n        /* \"solidity_test/test13.sol\":1013:1024  mul(i,0x20) */\n      mul\n        /* \"solidity_test/test13.sol\":1007:1012  start */\n      dup4\n        /* \"solidity_test/test13.sol\":1003:1025  add(start,mul(i,0x20)) */\n      add\n        /* \"solidity_test/test13.sol\":996:1035  mstore(add(start,mul(i,0x20)),add(i,1)) */\n      mstore\n        /* \"solidity_test/test13.sol\":973:974  1 */\n      0x01\n        /* \"solidity_test/test13.sol\":971:972  i */\n      dup2\n        /* \"solidity_test/test13.sol\":967:975  add(i,1) */\n      add\n        /* \"solidity_test/test13.sol\":964:975  i:=add(i,1) */\n      swap1\n      pop\n        /* \"solidity_test/test13.sol\":940:1050  for{let i:=0} lt(i,_n) {i:=add(i,1)} {... */\n      jump(tag_54)\n    tag_56:\n        /* \"solidity_test/test13.sol\":943:953  {let i:=0} */\n      pop\n        /* \"solidity_test/test13.sol\":882:1061  {... */\n      pop\n        /* \"solidity_test/test13.sol\":1078:1083  Array */\n      dup1\n        /* \"solidity_test/test13.sol\":1071:1083  return Array */\n      swap2\n      pop\n      pop\n        /* \"solidity_test/test13.sol\":753:1091  function setNum(uint _n) public pure returns(uint[] memory) {... */\n      swap2\n      swap1\n      pop\n      jump\t// out\n    tag_28:\n      mload(0x40)\n      dup1\n      0x80\n      add\n      0x40\n      mstore\n      dup1\n      0x04\n      swap1\n      0x20\n      dup3\n      mul\n      dup1\n      calldatasize\n      dup4\n      calldatacopy\n      dup1\n      dup3\n      add\n      swap2\n      pop\n      pop\n      swap1\n      pop\n      pop\n      swap1\n      jump\t// out\n        /* \"#utility.yul\":88:205   */\n    tag_58:\n        /* \"#utility.yul\":197:198   */\n      0x00\n        /* \"#utility.yul\":194:195   */\n      dup1\n        /* \"#utility.yul\":187:199   */\n      revert\n        /* \"#utility.yul\":334:411   */\n    tag_60:\n        /* \"#utility.yul\":371:378   */\n      0x00\n        /* \"#utility.yul\":400:405   */\n      dup2\n        /* \"#utility.yul\":389:405   */\n      swap1\n      pop\n        /* \"#utility.yul\":334:411   */\n      swap2\n      swap1\n      pop\n      jump\t// out\n        /* \"#utility.yul\":417:539   */\n    tag_61:\n        /* \"#utility.yul\":490:514   */\n      tag_82\n        /* \"#utility.yul\":508:513   */\n      dup2\n        /* \"#utility.yul\":490:514   */\n      tag_60\n      jump\t// in\n    tag_82:\n        /* \"#utility.yul\":483:488   */\n      dup2\n        /* \"#utility.yul\":480:515   */\n      eq\n        /* \"#utility.yul\":470:533   */\n      tag_83\n      jumpi\n        /* \"#utility.yul\":529:530   */\n      0x00\n        /* \"#utility.yul\":526:527   */\n      dup1\n        /* \"#utility.yul\":519:531   */\n      revert\n        /* \"#utility.yul\":470:533   */\n    tag_83:\n        /* \"#utility.yul\":417:539   */\n      pop\n      jump\t// out\n        /* \"#utility.yul\":545:684   */\n    tag_62:\n        /* \"#utility.yul\":591:596   */\n      0x00\n        /* \"#utility.yul\":629:635   */\n      dup2\n        /* \"#utility.yul\":616:636   */\n      calldataload\n        /* \"#utility.yul\":607:636   */\n      swap1\n      pop\n        /* \"#utility.yul\":645:678   */\n      tag_85\n        /* \"#utility.yul\":672:677   */\n      dup2\n        /* \"#utility.yul\":645:678   */\n      tag_61\n      jump\t// in\n    tag_85:\n        /* \"#utility.yul\":545:684   */\n      swap3\n      swap2\n      pop\n      pop\n      jump\t// out\n        /* \"#utility.yul\":690:1019   */\n    tag_9:\n        /* \"#utility.yul\":749:755   */\n      0x00\n        /* \"#utility.yul\":798:800   */\n      0x20\n        /* \"#utility.yul\":786:795   */\n      dup3\n        /* \"#utility.yul\":777:784   */\n      dup5\n        /* \"#utility.yul\":773:796   */\n      sub\n        /* \"#utility.yul\":769:801   */\n      slt\n        /* \"#utility.yul\":766:885   */\n      iszero\n      tag_87\n      jumpi\n        /* \"#utility.yul\":804:883   */\n      tag_88\n      tag_58\n      jump\t// in\n    tag_88:\n        /* \"#utility.yul\":766:885   */\n    tag_87:\n        /* \"#utility.yul\":924:925   */\n      0x00\n        /* \"#utility.yul\":949:1002   */\n      tag_89\n        /* \"#utility.yul\":994:1001   */\n      dup5\n        /* \"#utility.yul\":985:991   */\n      dup3\n        /* \"#utility.yul\":974:983   */\n      dup6\n        /* \"#utility.yul\":970:992   */\n      add\n        /* \"#utility.yul\":949:1002   */\n      tag_62\n      jump\t// in\n    tag_89:\n        /* \"#utility.yul\":939:1002   */\n      swap2\n      pop\n        /* \"#utility.yul\":895:1012   */\n      pop\n        /* \"#utility.yul\":690:1019   */\n      swap3\n      swap2\n      pop\n      pop\n      jump\t// out\n        /* \"#utility.yul\":1025:1129   */\n    tag_63:\n        /* \"#utility.yul\":1090:1096   */\n      0x00\n        /* \"#utility.yul\":1118:1122   */\n      0x04\n        /* \"#utility.yul\":1108:1122   */\n      swap1\n      pop\n        /* \"#utility.yul\":1025:1129   */\n      swap2\n      swap1\n      pop\n      jump\t// out\n        /* \"#utility.yul\":1135:1278   */\n    tag_64:\n        /* \"#utility.yul\":1232:1243   */\n      0x00\n        /* \"#utility.yul\":1269:1272   */\n      dup2\n        /* \"#utility.yul\":1254:1272   */\n      swap1\n      pop\n        /* \"#utility.yul\":1135:1278   */\n      swap3\n      swap2\n      pop\n      pop\n      jump\t// out\n        /* \"#utility.yul\":1284:1382   */\n    tag_65:\n        /* \"#utility.yul\":1349:1353   */\n      0x00\n        /* \"#utility.yul\":1372:1375   */\n      dup2\n        /* \"#utility.yul\":1364:1375   */\n      swap1\n      pop\n        /* \"#utility.yul\":1284:1382   */\n      swap2\n      swap1\n      pop\n      jump\t// out\n        /* \"#utility.yul\":1388:1496   */\n    tag_66:\n        /* \"#utility.yul\":1465:1489   */\n      tag_94\n        /* \"#utility.yul\":1483:1488   */\n      dup2\n        /* \"#utility.yul\":1465:1489   */\n      tag_60\n      jump\t// in\n    tag_94:\n        /* \"#utility.yul\":1460:1463   */\n      dup3\n        /* \"#utility.yul\":1453:1490   */\n      mstore\n        /* \"#utility.yul\":1388:1496   */\n      pop\n      pop\n      jump\t// out\n        /* \"#utility.yul\":1502:1681   */\n    tag_67:\n        /* \"#utility.yul\":1571:1581   */\n      0x00\n        /* \"#utility.yul\":1592:1638   */\n      tag_96\n        /* \"#utility.yul\":1634:1637   */\n      dup4\n        /* \"#utility.yul\":1626:1632   */\n      dup4\n        /* \"#utility.yul\":1592:1638   */\n      tag_66\n      jump\t// in\n    tag_96:\n        /* \"#utility.yul\":1670:1674   */\n      0x20\n        /* \"#utility.yul\":1665:1668   */\n      dup4\n        /* \"#utility.yul\":1661:1675   */\n      add\n        /* \"#utility.yul\":1647:1675   */\n      swap1\n      pop\n        /* \"#utility.yul\":1502:1681   */\n      swap3\n      swap2\n      pop\n      pop\n      jump\t// out\n        /* \"#utility.yul\":1687:1798   */\n    tag_68:\n        /* \"#utility.yul\":1755:1759   */\n      0x00\n        /* \"#utility.yul\":1787:1791   */\n      0x20\n        /* \"#utility.yul\":1782:1785   */\n      dup3\n        /* \"#utility.yul\":1778:1792   */\n      add\n        /* \"#utility.yul\":1770:1792   */\n      swap1\n      pop\n        /* \"#utility.yul\":1687:1798   */\n      swap2\n      swap1\n      pop\n      jump\t// out\n        /* \"#utility.yul\":1836:2530   */\n    tag_69:\n        /* \"#utility.yul\":1972:2024   */\n      tag_99\n        /* \"#utility.yul\":2018:2023   */\n      dup2\n        /* \"#utility.yul\":1972:2024   */\n      tag_63\n      jump\t// in\n    tag_99:\n        /* \"#utility.yul\":2040:2124   */\n      tag_100\n        /* \"#utility.yul\":2117:2123   */\n      dup2\n        /* \"#utility.yul\":2112:2115   */\n      dup5\n        /* \"#utility.yul\":2040:2124   */\n      tag_64\n      jump\t// in\n    tag_100:\n        /* \"#utility.yul\":2033:2124   */\n      swap3\n      pop\n        /* \"#utility.yul\":2148:2202   */\n      tag_101\n        /* \"#utility.yul\":2196:2201   */\n      dup3\n        /* \"#utility.yul\":2148:2202   */\n      tag_65\n      jump\t// in\n    tag_101:\n        /* \"#utility.yul\":2225:2232   */\n      dup1\n        /* \"#utility.yul\":2256:2257   */\n      0x00\n        /* \"#utility.yul\":2241:2523   */\n    tag_102:\n        /* \"#utility.yul\":2266:2272   */\n      dup4\n        /* \"#utility.yul\":2263:2264   */\n      dup2\n        /* \"#utility.yul\":2260:2273   */\n      lt\n        /* \"#utility.yul\":2241:2523   */\n      iszero\n      tag_104\n      jumpi\n        /* \"#utility.yul\":2342:2348   */\n      dup2\n        /* \"#utility.yul\":2336:2349   */\n      mload\n        /* \"#utility.yul\":2369:2432   */\n      tag_105\n        /* \"#utility.yul\":2428:2431   */\n      dup8\n        /* \"#utility.yul\":2413:2426   */\n      dup3\n        /* \"#utility.yul\":2369:2432   */\n      tag_67\n      jump\t// in\n    tag_105:\n        /* \"#utility.yul\":2362:2432   */\n      swap7\n      pop\n        /* \"#utility.yul\":2455:2513   */\n      tag_106\n        /* \"#utility.yul\":2506:2512   */\n      dup4\n        /* \"#utility.yul\":2455:2513   */\n      tag_68\n      jump\t// in\n    tag_106:\n        /* \"#utility.yul\":2445:2513   */\n      swap3\n      pop\n        /* \"#utility.yul\":2301:2523   */\n      pop\n        /* \"#utility.yul\":2288:2289   */\n      0x01\n        /* \"#utility.yul\":2285:2286   */\n      dup2\n        /* \"#utility.yul\":2281:2290   */\n      add\n        /* \"#utility.yul\":2276:2290   */\n      swap1\n      pop\n        /* \"#utility.yul\":2241:2523   */\n      jump(tag_102)\n    tag_104:\n        /* \"#utility.yul\":2245:2259   */\n      pop\n        /* \"#utility.yul\":1948:2530   */\n      pop\n      pop\n      pop\n        /* \"#utility.yul\":1836:2530   */\n      pop\n      pop\n      jump\t// out\n        /* \"#utility.yul\":2536:2851   */\n    tag_12:\n        /* \"#utility.yul\":2675:2679   */\n      0x00\n        /* \"#utility.yul\":2713:2716   */\n      0x80\n        /* \"#utility.yul\":2702:2711   */\n      dup3\n        /* \"#utility.yul\":2698:2717   */\n      add\n        /* \"#utility.yul\":2690:2717   */\n      swap1\n      pop\n        /* \"#utility.yul\":2727:2844   */\n      tag_108\n        /* \"#utility.yul\":2841:2842   */\n      0x00\n        /* \"#utility.yul\":2830:2839   */\n      dup4\n        /* \"#utility.yul\":2826:2843   */\n      add\n        /* \"#utility.yul\":2817:2823   */\n      dup5\n        /* \"#utility.yul\":2727:2844   */\n      tag_69\n      jump\t// in\n    tag_108:\n        /* \"#utility.yul\":2536:2851   */\n      swap3\n      swap2\n      pop\n      pop\n      jump\t// out\n        /* \"#utility.yul\":2857:2975   */\n    tag_70:\n        /* \"#utility.yul\":2944:2968   */\n      tag_110\n        /* \"#utility.yul\":2962:2967   */\n      dup2\n        /* \"#utility.yul\":2944:2968   */\n      tag_60\n      jump\t// in\n    tag_110:\n        /* \"#utility.yul\":2939:2942   */\n      dup3\n        /* \"#utility.yul\":2932:2969   */\n      mstore\n        /* \"#utility.yul\":2857:2975   */\n      pop\n      pop\n      jump\t// out\n        /* \"#utility.yul\":2981:3203   */\n    tag_21:\n        /* \"#utility.yul\":3074:3078   */\n      0x00\n        /* \"#utility.yul\":3112:3114   */\n      0x20\n        /* \"#utility.yul\":3101:3110   */\n      dup3\n        /* \"#utility.yul\":3097:3115   */\n      add\n        /* \"#utility.yul\":3089:3115   */\n      swap1\n      pop\n        /* \"#utility.yul\":3125:3196   */\n      tag_112\n        /* \"#utility.yul\":3193:3194   */\n      0x00\n        /* \"#utility.yul\":3182:3191   */\n      dup4\n        /* \"#utility.yul\":3178:3195   */\n      add\n        /* \"#utility.yul\":3169:3175   */\n      dup5\n        /* \"#utility.yul\":3125:3196   */\n      tag_70\n      jump\t// in\n    tag_112:\n        /* \"#utility.yul\":2981:3203   */\n      swap3\n      swap2\n      pop\n      pop\n      jump\t// out\n        /* \"#utility.yul\":3209:3323   */\n    tag_71:\n        /* \"#utility.yul\":3276:3282   */\n      0x00\n        /* \"#utility.yul\":3310:3315   */\n      dup2\n        /* \"#utility.yul\":3304:3316   */\n      mload\n        /* \"#utility.yul\":3294:3316   */\n      swap1\n      pop\n        /* \"#utility.yul\":3209:3323   */\n      swap2\n      swap1\n      pop\n      jump\t// out\n        /* \"#utility.yul\":3329:3513   */\n    tag_72:\n        /* \"#utility.yul\":3428:3439   */\n      0x00\n        /* \"#utility.yul\":3462:3468   */\n      dup3\n        /* \"#utility.yul\":3457:3460   */\n      dup3\n        /* \"#utility.yul\":3450:3469   */\n      mstore\n        /* \"#utility.yul\":3502:3506   */\n      0x20\n        /* \"#utility.yul\":3497:3500   */\n      dup3\n        /* \"#utility.yul\":3493:3507   */\n      add\n        /* \"#utility.yul\":3478:3507   */\n      swap1\n      pop\n        /* \"#utility.yul\":3329:3513   */\n      swap3\n      swap2\n      pop\n      pop\n      jump\t// out\n        /* \"#utility.yul\":3519:3651   */\n    tag_73:\n        /* \"#utility.yul\":3586:3590   */\n      0x00\n        /* \"#utility.yul\":3609:3612   */\n      dup2\n        /* \"#utility.yul\":3601:3612   */\n      swap1\n      pop\n        /* \"#utility.yul\":3639:3643   */\n      0x20\n        /* \"#utility.yul\":3634:3637   */\n      dup3\n        /* \"#utility.yul\":3630:3644   */\n      add\n        /* \"#utility.yul\":3622:3644   */\n      swap1\n      pop\n        /* \"#utility.yul\":3519:3651   */\n      swap2\n      swap1\n      pop\n      jump\t// out\n        /* \"#utility.yul\":3657:3770   */\n    tag_74:\n        /* \"#utility.yul\":3727:3731   */\n      0x00\n        /* \"#utility.yul\":3759:3763   */\n      0x20\n        /* \"#utility.yul\":3754:3757   */\n      dup3\n        /* \"#utility.yul\":3750:3764   */\n      add\n        /* \"#utility.yul\":3742:3764   */\n      swap1\n      pop\n        /* \"#utility.yul\":3657:3770   */\n      swap2\n      swap1\n      pop\n      jump\t// out\n        /* \"#utility.yul\":3806:4538   */\n    tag_75:\n        /* \"#utility.yul\":3925:3928   */\n      0x00\n        /* \"#utility.yul\":3954:4008   */\n      tag_118\n        /* \"#utility.yul\":4002:4007   */\n      dup3\n        /* \"#utility.yul\":3954:4008   */\n      tag_71\n      jump\t// in\n    tag_118:\n        /* \"#utility.yul\":4024:4110   */\n      tag_119\n        /* \"#utility.yul\":4103:4109   */\n      dup2\n        /* \"#utility.yul\":4098:4101   */\n      dup6\n        /* \"#utility.yul\":4024:4110   */\n      tag_72\n      jump\t// in\n    tag_119:\n        /* \"#utility.yul\":4017:4110   */\n      swap4\n      pop\n        /* \"#utility.yul\":4134:4190   */\n      tag_120\n        /* \"#utility.yul\":4184:4189   */\n      dup4\n        /* \"#utility.yul\":4134:4190   */\n      tag_73\n      jump\t// in\n    tag_120:\n        /* \"#utility.yul\":4213:4220   */\n      dup1\n        /* \"#utility.yul\":4244:4245   */\n      0x00\n        /* \"#utility.yul\":4229:4513   */\n    tag_121:\n        /* \"#utility.yul\":4254:4260   */\n      dup4\n        /* \"#utility.yul\":4251:4252   */\n      dup2\n        /* \"#utility.yul\":4248:4261   */\n      lt\n        /* \"#utility.yul\":4229:4513   */\n      iszero\n      tag_123\n      jumpi\n        /* \"#utility.yul\":4330:4336   */\n      dup2\n        /* \"#utility.yul\":4324:4337   */\n      mload\n        /* \"#utility.yul\":4357:4420   */\n      tag_124\n        /* \"#utility.yul\":4416:4419   */\n      dup9\n        /* \"#utility.yul\":4401:4414   */\n      dup3\n        /* \"#utility.yul\":4357:4420   */\n      tag_67\n      jump\t// in\n    tag_124:\n        /* \"#utility.yul\":4350:4420   */\n      swap8\n      pop\n        /* \"#utility.yul\":4443:4503   */\n      tag_125\n        /* \"#utility.yul\":4496:4502   */\n      dup4\n        /* \"#utility.yul\":4443:4503   */\n      tag_74\n      jump\t// in\n    tag_125:\n        /* \"#utility.yul\":4433:4503   */\n      swap3\n      pop\n        /* \"#utility.yul\":4289:4513   */\n      pop\n        /* \"#utility.yul\":4276:4277   */\n      0x01\n        /* \"#utility.yul\":4273:4274   */\n      dup2\n        /* \"#utility.yul\":4269:4278   */\n      add\n        /* \"#utility.yul\":4264:4278   */\n      swap1\n      pop\n        /* \"#utility.yul\":4229:4513   */\n      jump(tag_121)\n    tag_123:\n        /* \"#utility.yul\":4233:4247   */\n      pop\n        /* \"#utility.yul\":4529:4532   */\n      dup6\n        /* \"#utility.yul\":4522:4532   */\n      swap4\n      pop\n        /* \"#utility.yul\":3930:4538   */\n      pop\n      pop\n      pop\n        /* \"#utility.yul\":3806:4538   */\n      swap3\n      swap2\n      pop\n      pop\n      jump\t// out\n        /* \"#utility.yul\":4544:4917   */\n    tag_26:\n        /* \"#utility.yul\":4687:4691   */\n      0x00\n        /* \"#utility.yul\":4725:4727   */\n      0x20\n        /* \"#utility.yul\":4714:4723   */\n      dup3\n        /* \"#utility.yul\":4710:4728   */\n      add\n        /* \"#utility.yul\":4702:4728   */\n      swap1\n      pop\n        /* \"#utility.yul\":4774:4783   */\n      dup2\n        /* \"#utility.yul\":4768:4772   */\n      dup2\n        /* \"#utility.yul\":4764:4784   */\n      sub\n        /* \"#utility.yul\":4760:4761   */\n      0x00\n        /* \"#utility.yul\":4749:4758   */\n      dup4\n        /* \"#utility.yul\":4745:4762   */\n      add\n        /* \"#utility.yul\":4738:4785   */\n      mstore\n        /* \"#utility.yul\":4802:4910   */\n      tag_127\n        /* \"#utility.yul\":4905:4909   */\n      dup2\n        /* \"#utility.yul\":4896:4902   */\n      dup5\n        /* \"#utility.yul\":4802:4910   */\n      tag_75\n      jump\t// in\n    tag_127:\n        /* \"#utility.yul\":4794:4910   */\n      swap1\n      pop\n        /* \"#utility.yul\":4544:4917   */\n      swap3\n      swap2\n      pop\n      pop\n      jump\t// out\n        /* \"#utility.yul\":4923:5103   */\n    tag_45:\n        /* \"#utility.yul\":4971:5048   */\n      0x4e487b7100000000000000000000000000000000000000000000000000000000\n        /* \"#utility.yul\":4968:4969   */\n      0x00\n        /* \"#utility.yul\":4961:5049   */\n      mstore\n        /* \"#utility.yul\":5068:5072   */\n      0x41\n        /* \"#utility.yul\":5065:5066   */\n      0x04\n        /* \"#utility.yul\":5058:5073   */\n      mstore\n        /* \"#utility.yul\":5092:5096   */\n      0x24\n        /* \"#utility.yul\":5089:5090   */\n      0x00\n        /* \"#utility.yul\":5082:5097   */\n      revert\n\n    auxdata: 0xa2646970667358221220c8734806db12a78dc55f8dbd1ad108037a5b51aa400c8650ed3199d0de47f5fe64736f6c63430008190033\n}\n",
				"bytecode": {
					"linkReferences": {},
					"object": "6080604052348015600e575f80fd5b506105228061001c5f395ff3fe608060405234801561000f575f80fd5b506004361061004a575f3560e01c80634a3672c31461004e57806357d4f2be1461007e578063c7ae8e33146100ae578063cd16ecbf146100de575b5f80fd5b610068600480360381019061006391906102fd565b61010e565b60405161007591906103cd565b60405180910390f35b610098600480360381019061009391906102fd565b610148565b6040516100a591906103cd565b60405180910390f35b6100c860048036038101906100c391906102fd565b6101a1565b6040516100d591906103f5565b60405180910390f35b6100f860048036038101906100f391906102fd565b610227565b604051610105919061049f565b60405180910390f35b6101166102a4565b61011e6102a4565b5f5b8381101561013e576001810160208202830152600181019050610120565b5080915050919050565b6101506102a4565b6101586102a4565b5f8060038511610168578461016b565b60045b90505f5b81811015610195576001810160208202850152600181018301925060018101905061016f565b50829350505050919050565b5f808267ffffffffffffffff8111156101bd576101bc6104bf565b5b6040519080825280602002602001820160405280156101eb5781602001602082028036833780820191505090505b5090505f602082015f5b8581101561021b57600181016020820283015260018101830192506001810190506101f5565b50508092505050919050565b60605f8267ffffffffffffffff811115610244576102436104bf565b5b6040519080825280602002602001820160405280156102725781602001602082028036833780820191505090505b509050602081015f5b8481101561029957600181016020820283015260018101905061027b565b505080915050919050565b6040518060800160405280600490602082028036833780820191505090505090565b5f80fd5b5f819050919050565b6102dc816102ca565b81146102e6575f80fd5b50565b5f813590506102f7816102d3565b92915050565b5f60208284031215610312576103116102c6565b5b5f61031f848285016102e9565b91505092915050565b5f60049050919050565b5f81905092915050565b5f819050919050565b61034e816102ca565b82525050565b5f61035f8383610345565b60208301905092915050565b5f602082019050919050565b61038081610328565b61038a8184610332565b92506103958261033c565b805f5b838110156103c55781516103ac8782610354565b96506103b78361036b565b925050600181019050610398565b505050505050565b5f6080820190506103e05f830184610377565b92915050565b6103ef816102ca565b82525050565b5f6020820190506104085f8301846103e6565b92915050565b5f81519050919050565b5f82825260208201905092915050565b5f819050602082019050919050565b5f602082019050919050565b5f61044d8261040e565b6104578185610418565b935061046283610428565b805f5b838110156104925781516104798882610354565b975061048483610437565b925050600181019050610465565b5085935050505092915050565b5f6020820190508181035f8301526104b78184610443565b905092915050565b7f4e487b71000000000000000000000000000000000000000000000000000000005f52604160045260245ffdfea2646970667358221220c8734806db12a78dc55f8dbd1ad108037a5b51aa400c8650ed3199d0de47f5fe64736f6c63430008190033",
					"opcodes": "PUSH1 0x80 PUSH1 0x40 MSTORE CALLVALUE DUP1 ISZERO PUSH1 0xE JUMPI PUSH0 DUP1 REVERT JUMPDEST POP PUSH2 0x522 DUP1 PUSH2 0x1C PUSH0 CODECOPY PUSH0 RETURN INVALID PUSH1 0x80 PUSH1 0x40 MSTORE CALLVALUE DUP1 ISZERO PUSH2 0xF JUMPI PUSH0 DUP1 REVERT JUMPDEST POP PUSH1 0x4 CALLDATASIZE LT PUSH2 0x4A JUMPI PUSH0 CALLDATALOAD PUSH1 0xE0 SHR DUP1 PUSH4 0x4A3672C3 EQ PUSH2 0x4E JUMPI DUP1 PUSH4 0x57D4F2BE EQ PUSH2 0x7E JUMPI DUP1 PUSH4 0xC7AE8E33 EQ PUSH2 0xAE JUMPI DUP1 PUSH4 0xCD16ECBF EQ PUSH2 0xDE JUMPI JUMPDEST PUSH0 DUP1 REVERT JUMPDEST PUSH2 0x68 PUSH1 0x4 DUP1 CALLDATASIZE SUB DUP2 ADD SWAP1 PUSH2 0x63 SWAP2 SWAP1 PUSH2 0x2FD JUMP JUMPDEST PUSH2 0x10E JUMP JUMPDEST PUSH1 0x40 MLOAD PUSH2 0x75 SWAP2 SWAP1 PUSH2 0x3CD JUMP JUMPDEST PUSH1 0x40 MLOAD DUP1 SWAP2 SUB SWAP1 RETURN JUMPDEST PUSH2 0x98 PUSH1 0x4 DUP1 CALLDATASIZE SUB DUP2 ADD SWAP1 PUSH2 0x93 SWAP2 SWAP1 PUSH2 0x2FD JUMP JUMPDEST PUSH2 0x148 JUMP JUMPDEST PUSH1 0x40 MLOAD PUSH2 0xA5 SWAP2 SWAP1 PUSH2 0x3CD JUMP JUMPDEST PUSH1 0x40 MLOAD DUP1 SWAP2 SUB SWAP1 RETURN JUMPDEST PUSH2 0xC8 PUSH1 0x4 DUP1 CALLDATASIZE SUB DUP2 ADD SWAP1 PUSH2 0xC3 SWAP2 SWAP1 PUSH2 0x2FD JUMP JUMPDEST PUSH2 0x1A1 JUMP JUMPDEST PUSH1 0x40 MLOAD PUSH2 0xD5 SWAP2 SWAP1 PUSH2 0x3F5 JUMP JUMPDEST PUSH1 0x40 MLOAD DUP1 SWAP2 SUB SWAP1 RETURN JUMPDEST PUSH2 0xF8 PUSH1 0x4 DUP1 CALLDATASIZE SUB DUP2 ADD SWAP1 PUSH2 0xF3 SWAP2 SWAP1 PUSH2 0x2FD JUMP JUMPDEST PUSH2 0x227 JUMP JUMPDEST PUSH1 0x40 MLOAD PUSH2 0x105 SWAP2 SWAP1 PUSH2 0x49F JUMP JUMPDEST PUSH1 0x40 MLOAD DUP1 SWAP2 SUB SWAP1 RETURN JUMPDEST PUSH2 0x116 PUSH2 0x2A4 JUMP JUMPDEST PUSH2 0x11E PUSH2 0x2A4 JUMP JUMPDEST PUSH0 JUMPDEST DUP4 DUP2 LT ISZERO PUSH2 0x13E JUMPI PUSH1 0x1 DUP2 ADD PUSH1 0x20 DUP3 MUL DUP4 ADD MSTORE PUSH1 0x1 DUP2 ADD SWAP1 POP PUSH2 0x120 JUMP JUMPDEST POP DUP1 SWAP2 POP POP SWAP2 SWAP1 POP JUMP JUMPDEST PUSH2 0x150 PUSH2 0x2A4 JUMP JUMPDEST PUSH2 0x158 PUSH2 0x2A4 JUMP JUMPDEST PUSH0 DUP1 PUSH1 0x3 DUP6 GT PUSH2 0x168 JUMPI DUP5 PUSH2 0x16B JUMP JUMPDEST PUSH1 0x4 JUMPDEST SWAP1 POP PUSH0 JUMPDEST DUP2 DUP2 LT ISZERO PUSH2 0x195 JUMPI PUSH1 0x1 DUP2 ADD PUSH1 0x20 DUP3 MUL DUP6 ADD MSTORE PUSH1 0x1 DUP2 ADD DUP4 ADD SWAP3 POP PUSH1 0x1 DUP2 ADD SWAP1 POP PUSH2 0x16F JUMP JUMPDEST POP DUP3 SWAP4 POP POP POP POP SWAP2 SWAP1 POP JUMP JUMPDEST PUSH0 DUP1 DUP3 PUSH8 0xFFFFFFFFFFFFFFFF DUP2 GT ISZERO PUSH2 0x1BD JUMPI PUSH2 0x1BC PUSH2 0x4BF JUMP JUMPDEST JUMPDEST PUSH1 0x40 MLOAD SWAP1 DUP1 DUP3 MSTORE DUP1 PUSH1 0x20 MUL PUSH1 0x20 ADD DUP3 ADD PUSH1 0x40 MSTORE DUP1 ISZERO PUSH2 0x1EB JUMPI DUP2 PUSH1 0x20 ADD PUSH1 0x20 DUP3 MUL DUP1 CALLDATASIZE DUP4 CALLDATACOPY DUP1 DUP3 ADD SWAP2 POP POP SWAP1 POP JUMPDEST POP SWAP1 POP PUSH0 PUSH1 0x20 DUP3 ADD PUSH0 JUMPDEST DUP6 DUP2 LT ISZERO PUSH2 0x21B JUMPI PUSH1 0x1 DUP2 ADD PUSH1 0x20 DUP3 MUL DUP4 ADD MSTORE PUSH1 0x1 DUP2 ADD DUP4 ADD SWAP3 POP PUSH1 0x1 DUP2 ADD SWAP1 POP PUSH2 0x1F5 JUMP JUMPDEST POP POP DUP1 SWAP3 POP POP POP SWAP2 SWAP1 POP JUMP JUMPDEST PUSH1 0x60 PUSH0 DUP3 PUSH8 0xFFFFFFFFFFFFFFFF DUP2 GT ISZERO PUSH2 0x244 JUMPI PUSH2 0x243 PUSH2 0x4BF JUMP JUMPDEST JUMPDEST PUSH1 0x40 MLOAD SWAP1 DUP1 DUP3 MSTORE DUP1 PUSH1 0x20 MUL PUSH1 0x20 ADD DUP3 ADD PUSH1 0x40 MSTORE DUP1 ISZERO PUSH2 0x272 JUMPI DUP2 PUSH1 0x20 ADD PUSH1 0x20 DUP3 MUL DUP1 CALLDATASIZE DUP4 CALLDATACOPY DUP1 DUP3 ADD SWAP2 POP POP SWAP1 POP JUMPDEST POP SWAP1 POP PUSH1 0x20 DUP2 ADD PUSH0 JUMPDEST DUP5 DUP2 LT ISZERO PUSH2 0x299 JUMPI PUSH1 0x1 DUP2 ADD PUSH1 0x20 DUP3 MUL DUP4 ADD MSTORE PUSH1 0x1 DUP2 ADD SWAP1 POP PUSH2 0x27B JUMP JUMPDEST POP POP DUP1 SWAP2 POP POP SWAP2 SWAP1 POP JUMP JUMPDEST PUSH1 0x40 MLOAD DUP1 PUSH1 0x80 ADD PUSH1 0x40 MSTORE DUP1 PUSH1 0x4 SWAP1 PUSH1 0x20 DUP3 MUL DUP1 CALLDATASIZE DUP4 CALLDATACOPY DUP1 DUP3 ADD SWAP2 POP POP SWAP1 POP POP SWAP1 JUMP JUMPDEST PUSH0 DUP1 REVERT JUMPDEST PUSH0 DUP2 SWAP1 POP SWAP2 SWAP1 POP JUMP JUMPDEST PUSH2 0x2DC DUP2 PUSH2 0x2CA JUMP JUMPDEST DUP2 EQ PUSH2 0x2E6 JUMPI PUSH0 DUP1 REVERT JUMPDEST POP JUMP JUMPDEST PUSH0 DUP2 CALLDATALOAD SWAP1 POP PUSH2 0x2F7 DUP2 PUSH2 0x2D3 JUMP JUMPDEST SWAP3 SWAP2 POP POP JUMP JUMPDEST PUSH0 PUSH1 0x20 DUP3 DUP5 SUB SLT ISZERO PUSH2 0x312 JUMPI PUSH2 0x311 PUSH2 0x2C6 JUMP JUMPDEST JUMPDEST PUSH0 PUSH2 0x31F DUP5 DUP3 DUP6 ADD PUSH2 0x2E9 JUMP JUMPDEST SWAP2 POP POP SWAP3 SWAP2 POP POP JUMP JUMPDEST PUSH0 PUSH1 0x4 SWAP1 POP SWAP2 SWAP1 POP JUMP JUMPDEST PUSH0 DUP2 SWAP1 POP SWAP3 SWAP2 POP POP JUMP JUMPDEST PUSH0 DUP2 SWAP1 POP SWAP2 SWAP1 POP JUMP JUMPDEST PUSH2 0x34E DUP2 PUSH2 0x2CA JUMP JUMPDEST DUP3 MSTORE POP POP JUMP JUMPDEST PUSH0 PUSH2 0x35F DUP4 DUP4 PUSH2 0x345 JUMP JUMPDEST PUSH1 0x20 DUP4 ADD SWAP1 POP SWAP3 SWAP2 POP POP JUMP JUMPDEST PUSH0 PUSH1 0x20 DUP3 ADD SWAP1 POP SWAP2 SWAP1 POP JUMP JUMPDEST PUSH2 0x380 DUP2 PUSH2 0x328 JUMP JUMPDEST PUSH2 0x38A DUP2 DUP5 PUSH2 0x332 JUMP JUMPDEST SWAP3 POP PUSH2 0x395 DUP3 PUSH2 0x33C JUMP JUMPDEST DUP1 PUSH0 JUMPDEST DUP4 DUP2 LT ISZERO PUSH2 0x3C5 JUMPI DUP2 MLOAD PUSH2 0x3AC DUP8 DUP3 PUSH2 0x354 JUMP JUMPDEST SWAP7 POP PUSH2 0x3B7 DUP4 PUSH2 0x36B JUMP JUMPDEST SWAP3 POP POP PUSH1 0x1 DUP2 ADD SWAP1 POP PUSH2 0x398 JUMP JUMPDEST POP POP POP POP POP POP JUMP JUMPDEST PUSH0 PUSH1 0x80 DUP3 ADD SWAP1 POP PUSH2 0x3E0 PUSH0 DUP4 ADD DUP5 PUSH2 0x377 JUMP JUMPDEST SWAP3 SWAP2 POP POP JUMP JUMPDEST PUSH2 0x3EF DUP2 PUSH2 0x2CA JUMP JUMPDEST DUP3 MSTORE POP POP JUMP JUMPDEST PUSH0 PUSH1 0x20 DUP3 ADD SWAP1 POP PUSH2 0x408 PUSH0 DUP4 ADD DUP5 PUSH2 0x3E6 JUMP JUMPDEST SWAP3 SWAP2 POP POP JUMP JUMPDEST PUSH0 DUP2 MLOAD SWAP1 POP SWAP2 SWAP1 POP JUMP JUMPDEST PUSH0 DUP3 DUP3 MSTORE PUSH1 0x20 DUP3 ADD SWAP1 POP SWAP3 SWAP2 POP POP JUMP JUMPDEST PUSH0 DUP2 SWAP1 POP PUSH1 0x20 DUP3 ADD SWAP1 POP SWAP2 SWAP1 POP JUMP JUMPDEST PUSH0 PUSH1 0x20 DUP3 ADD SWAP1 POP SWAP2 SWAP1 POP JUMP JUMPDEST PUSH0 PUSH2 0x44D DUP3 PUSH2 0x40E JUMP JUMPDEST PUSH2 0x457 DUP2 DUP6 PUSH2 0x418 JUMP JUMPDEST SWAP4 POP PUSH2 0x462 DUP4 PUSH2 0x428 JUMP JUMPDEST DUP1 PUSH0 JUMPDEST DUP4 DUP2 LT ISZERO PUSH2 0x492 JUMPI DUP2 MLOAD PUSH2 0x479 DUP9 DUP3 PUSH2 0x354 JUMP JUMPDEST SWAP8 POP PUSH2 0x484 DUP4 PUSH2 0x437 JUMP JUMPDEST SWAP3 POP POP PUSH1 0x1 DUP2 ADD SWAP1 POP PUSH2 0x465 JUMP JUMPDEST POP DUP6 SWAP4 POP POP POP POP SWAP3 SWAP2 POP POP JUMP JUMPDEST PUSH0 PUSH1 0x20 DUP3 ADD SWAP1 POP DUP2 DUP2 SUB PUSH0 DUP4 ADD MSTORE PUSH2 0x4B7 DUP2 DUP5 PUSH2 0x443 JUMP JUMPDEST SWAP1 POP SWAP3 SWAP2 POP POP JUMP JUMPDEST PUSH32 0x4E487B7100000000000000000000000000000000000000000000000000000000 PUSH0 MSTORE PUSH1 0x41 PUSH1 0x4 MSTORE PUSH1 0x24 PUSH0 REVERT INVALID LOG2 PUSH5 0x6970667358 0x22 SLT KECCAK256 0xC8 PUSH20 0x4806DB12A78DC55F8DBD1AD108037A5B51AA400C DUP7 POP 0xED BALANCE SWAP10 0xD0 0xDE SELFBALANCE CREATE2 INVALID PUSH5 0x736F6C6343 STOP ADDMOD NOT STOP CALLER "
				},
				"gasEstimates": {
					"creation": {
						"codeDepositCost": "262800",
						"executionCost": "304",
						"totalCost": "263104"
					},
					"external": {
						"setNum(uint256)": "infinite",
						"setNum2(uint256)": "infinite",
						"setNum2Sum(uint256)": "infinite",
						"setNumSum(uint256)": "infinite"
					}
				},
				"methodIdentifiers": {
					"setNum(uint256)": "cd16ecbf",
					"setNum2(uint256)": "4a3672c3",
					"setNum2Sum(uint256)": "57d4f2be",
					"setNumSum(uint256)": "c7ae8e33"
				}
			},
			"storageLayout": {
				"storage": [],
				"types": null
			},
			"userdoc": {
				"kind": "user",
				"methods": {},
				"version": 1
			}
		}
	}
}