{
	"test6.sol": {
		"a": {
			"abi": [
				{
					"inputs": [
						{
							"internalType": "uint256",
							"name": "_n",
							"type": "uint256"
						}
					],
					"name": "convert",
					"outputs": [
						{
							"internalType": "uint256",
							"name": "",
							"type": "uint256"
						}
					],
					"stateMutability": "nonpayable",
					"type": "function"
				},
				{
					"inputs": [
						{
							"internalType": "string",
							"name": "_a",
							"type": "string"
						}
					],
					"name": "getNum",
					"outputs": [
						{
							"internalType": "uint256",
							"name": "",
							"type": "uint256"
						}
					],
					"stateMutability": "pure",
					"type": "function"
				}
			],
			"devdoc": {
				"kind": "dev",
				"methods": {},
				"version": 1
			},
			"evm": {
				"assembly": "    /* \"test6.sol\":122:669  contract a {... */\n  mstore(0x40, 0x80)\n  callvalue\n  dup1\n  iszero\n  tag_1\n  jumpi\n  0x00\n  dup1\n  revert\ntag_1:\n  pop\n  dataSize(sub_0)\n  dup1\n  dataOffset(sub_0)\n  0x00\n  codecopy\n  0x00\n  return\nstop\n\nsub_0: assembly {\n        /* \"test6.sol\":122:669  contract a {... */\n      mstore(0x40, 0x80)\n      callvalue\n      dup1\n      iszero\n      tag_1\n      jumpi\n      0x00\n      dup1\n      revert\n    tag_1:\n      pop\n      jumpi(tag_2, lt(calldatasize, 0x04))\n      shr(0xe0, calldataload(0x00))\n      dup1\n      0x94e619ab\n      eq\n      tag_3\n      jumpi\n      dup1\n      0xa3908e1b\n      eq\n      tag_4\n      jumpi\n    tag_2:\n      0x00\n      dup1\n      revert\n        /* \"test6.sol\":516:664  function getNum(string memory _a) public pure returns(uint) {... */\n    tag_3:\n      tag_5\n      0x04\n      dup1\n      calldatasize\n      sub\n      dup2\n      add\n      swap1\n      tag_6\n      swap2\n      swap1\n      tag_7\n      jump\t// in\n    tag_6:\n      tag_8\n      jump\t// in\n    tag_5:\n      mload(0x40)\n      tag_9\n      swap2\n      swap1\n      tag_10\n      jump\t// in\n    tag_9:\n      mload(0x40)\n      dup1\n      swap2\n      sub\n      swap1\n      return\n        /* \"test6.sol\":165:508  function convert(uint _n) public returns(uint) {... */\n    tag_4:\n      tag_11\n      0x04\n      dup1\n      calldatasize\n      sub\n      dup2\n      add\n      swap1\n      tag_12\n      swap2\n      swap1\n      tag_13\n      jump\t// in\n    tag_12:\n      tag_14\n      jump\t// in\n    tag_11:\n      mload(0x40)\n      tag_15\n      swap2\n      swap1\n      tag_10\n      jump\t// in\n    tag_15:\n      mload(0x40)\n      dup1\n      swap2\n      sub\n      swap1\n      return\n        /* \"test6.sol\":516:664  function getNum(string memory _a) public pure returns(uint) {... */\n    tag_8:\n        /* \"test6.sol\":570:574  uint */\n      0x00\n        /* \"test6.sol\":587:609  bytes memory stringNum */\n      dup1\n        /* \"test6.sol\":618:620  _a */\n      dup3\n        /* \"test6.sol\":587:621  bytes memory stringNum = bytes(_a) */\n      swap1\n      pop\n        /* \"test6.sol\":639:648  stringNum */\n      dup1\n        /* \"test6.sol\":639:655  stringNum.length */\n      mload\n        /* \"test6.sol\":632:655  return stringNum.length */\n      swap2\n      pop\n      pop\n        /* \"test6.sol\":516:664  function getNum(string memory _a) public pure returns(uint) {... */\n      swap2\n      swap1\n      pop\n      jump\t// out\n        /* \"test6.sol\":165:508  function convert(uint _n) public returns(uint) {... */\n    tag_14:\n        /* \"test6.sol\":206:210  uint */\n      0x00\n        /* \"test6.sol\":223:246  string memory getString */\n      0x60\n        /* \"test6.sol\":257:270  uint numCount */\n      0x00\n        /* \"test6.sol\":300:320  Strings.toString(_n) */\n      tag_18\n        /* \"test6.sol\":317:319  _n */\n      dup5\n        /* \"test6.sol\":300:316  Strings.toString */\n      tag_19\n        /* \"test6.sol\":300:320  Strings.toString(_n) */\n      jump\t// in\n    tag_18:\n        /* \"test6.sol\":281:321  getString = string(Strings.toString(_n)) */\n      swap2\n      pop\n        /* \"test6.sol\":343:360  getNum(getString) */\n      tag_20\n        /* \"test6.sol\":350:359  getString */\n      dup3\n        /* \"test6.sol\":343:349  getNum */\n      tag_8\n        /* \"test6.sol\":343:360  getNum(getString) */\n      jump\t// in\n    tag_20:\n        /* \"test6.sol\":332:360  numCount = getNum(getString) */\n      swap1\n      pop\n        /* \"test6.sol\":378:384  uint i */\n      0x00\n        /* \"test6.sol\":373:475  for (uint i=0; i <= numCount; i++) {... */\n    tag_21:\n        /* \"test6.sol\":393:401  numCount */\n      dup2\n        /* \"test6.sol\":388:389  i */\n      dup2\n        /* \"test6.sol\":388:401  i <= numCount */\n      gt\n        /* \"test6.sol\":373:475  for (uint i=0; i <= numCount; i++) {... */\n      tag_22\n      jumpi\n        /* \"test6.sol\":423:434  resultArray */\n      0x00\n        /* \"test6.sol\":459:460  i */\n      dup2\n        /* \"test6.sol\":450:458  numCount */\n      dup4\n        /* \"test6.sol\":450:460  numCount-i */\n      tag_24\n      swap2\n      swap1\n      tag_25\n      jump\t// in\n    tag_24:\n        /* \"test6.sol\":445:447  10 */\n      0x0a\n        /* \"test6.sol\":445:461  10**(numCount-i) */\n      tag_26\n      swap2\n      swap1\n      tag_27\n      jump\t// in\n    tag_26:\n        /* \"test6.sol\":440:442  _n */\n      dup7\n        /* \"test6.sol\":440:461  _n / 10**(numCount-i) */\n      tag_28\n      swap2\n      swap1\n      tag_29\n      jump\t// in\n    tag_28:\n        /* \"test6.sol\":423:462  resultArray.push(_n / 10**(numCount-i)) */\n      swap1\n      dup1\n      0x01\n      dup2\n      sload\n      add\n      dup1\n      dup3\n      sstore\n      dup1\n      swap2\n      pop\n      pop\n      0x01\n      swap1\n      sub\n      swap1\n      0x00\n      mstore\n      keccak256(0x00, 0x20)\n      add\n      0x00\n      swap1\n      swap2\n      swap1\n      swap2\n      swap1\n      swap2\n      pop\n      sstore\n        /* \"test6.sol\":403:406  i++ */\n      dup1\n      dup1\n      tag_31\n      swap1\n      tag_32\n      jump\t// in\n    tag_31:\n      swap2\n      pop\n      pop\n        /* \"test6.sol\":373:475  for (uint i=0; i <= numCount; i++) {... */\n      jump(tag_21)\n    tag_22:\n      pop\n        /* \"test6.sol\":492:500  numCount */\n      dup1\n        /* \"test6.sol\":485:500  return numCount */\n      swap3\n      pop\n      pop\n      pop\n        /* \"test6.sol\":165:508  function convert(uint _n) public returns(uint) {... */\n      swap2\n      swap1\n      pop\n      jump\t// out\n        /* \"@openzeppelin/contracts/utils/Strings.sol\":637:1335  function toString(uint256 value) internal pure returns (string memory) {... */\n    tag_19:\n        /* \"@openzeppelin/contracts/utils/Strings.sol\":693:706  string memory */\n      0x60\n        /* \"@openzeppelin/contracts/utils/Strings.sol\":742:756  uint256 length */\n      0x00\n        /* \"@openzeppelin/contracts/utils/Strings.sol\":779:780  1 */\n      0x01\n        /* \"@openzeppelin/contracts/utils/Strings.sol\":759:776  Math.log10(value) */\n      tag_34\n        /* \"@openzeppelin/contracts/utils/Strings.sol\":770:775  value */\n      dup5\n        /* \"@openzeppelin/contracts/utils/Strings.sol\":759:769  Math.log10 */\n      tag_35\n        /* \"@openzeppelin/contracts/utils/Strings.sol\":759:776  Math.log10(value) */\n      jump\t// in\n    tag_34:\n        /* \"@openzeppelin/contracts/utils/Strings.sol\":759:780  Math.log10(value) + 1 */\n      add\n        /* \"@openzeppelin/contracts/utils/Strings.sol\":742:780  uint256 length = Math.log10(value) + 1 */\n      swap1\n      pop\n        /* \"@openzeppelin/contracts/utils/Strings.sol\":794:814  string memory buffer */\n      0x00\n        /* \"@openzeppelin/contracts/utils/Strings.sol\":828:834  length */\n      dup2\n        /* \"@openzeppelin/contracts/utils/Strings.sol\":817:835  new string(length) */\n      0xffffffffffffffff\n      dup2\n      gt\n      iszero\n      tag_36\n      jumpi\n      tag_37\n      tag_38\n      jump\t// in\n    tag_37:\n    tag_36:\n      mload(0x40)\n      swap1\n      dup1\n      dup3\n      mstore\n      dup1\n      0x1f\n      add\n      not(0x1f)\n      and\n      0x20\n      add\n      dup3\n      add\n      0x40\n      mstore\n      dup1\n      iszero\n      tag_39\n      jumpi\n      dup2\n      0x20\n      add\n      0x01\n      dup3\n      mul\n      dup1\n      calldatasize\n      dup4\n      calldatacopy\n      dup1\n      dup3\n      add\n      swap2\n      pop\n      pop\n      swap1\n      pop\n    tag_39:\n      pop\n        /* \"@openzeppelin/contracts/utils/Strings.sol\":794:835  string memory buffer = new string(length) */\n      swap1\n      pop\n        /* \"@openzeppelin/contracts/utils/Strings.sol\":849:860  uint256 ptr */\n      0x00\n        /* \"@openzeppelin/contracts/utils/Strings.sol\":975:981  length */\n      dup3\n        /* \"@openzeppelin/contracts/utils/Strings.sol\":971:973  32 */\n      0x20\n        /* \"@openzeppelin/contracts/utils/Strings.sol\":967:982  add(32, length) */\n      add\n        /* \"@openzeppelin/contracts/utils/Strings.sol\":959:965  buffer */\n      dup3\n        /* \"@openzeppelin/contracts/utils/Strings.sol\":955:983  add(buffer, add(32, length)) */\n      add\n        /* \"@openzeppelin/contracts/utils/Strings.sol\":948:983  ptr := add(buffer, add(32, length)) */\n      swap1\n      pop\n        /* \"@openzeppelin/contracts/utils/Strings.sol\":1010:1292  while (true) {... */\n    tag_40:\n        /* \"@openzeppelin/contracts/utils/Strings.sol\":1017:1021  true */\n      0x01\n        /* \"@openzeppelin/contracts/utils/Strings.sol\":1010:1292  while (true) {... */\n      iszero\n      tag_41\n      jumpi\n        /* \"@openzeppelin/contracts/utils/Strings.sol\":1041:1046  ptr-- */\n      dup1\n      dup1\n      0x01\n      swap1\n      sub\n      swap2\n      pop\n      pop\n        /* \"@openzeppelin/contracts/utils/Strings.sol\":1180:1190  HEX_DIGITS */\n      0x3031323334353637383961626364656600000000000000000000000000000000\n        /* \"@openzeppelin/contracts/utils/Strings.sol\":1175:1177  10 */\n      0x0a\n        /* \"@openzeppelin/contracts/utils/Strings.sol\":1168:1173  value */\n      dup7\n        /* \"@openzeppelin/contracts/utils/Strings.sol\":1164:1178  mod(value, 10) */\n      mod\n        /* \"@openzeppelin/contracts/utils/Strings.sol\":1159:1191  byte(mod(value, 10), HEX_DIGITS) */\n      byte\n        /* \"@openzeppelin/contracts/utils/Strings.sol\":1154:1157  ptr */\n      dup2\n        /* \"@openzeppelin/contracts/utils/Strings.sol\":1146:1192  mstore8(ptr, byte(mod(value, 10), HEX_DIGITS)) */\n      mstore8\n        /* \"@openzeppelin/contracts/utils/Strings.sol\":1236:1238  10 */\n      0x0a\n        /* \"@openzeppelin/contracts/utils/Strings.sol\":1227:1238  value /= 10 */\n      dup6\n      dup2\n      tag_42\n      jumpi\n      tag_43\n      tag_44\n      jump\t// in\n    tag_43:\n    tag_42:\n      div\n      swap5\n      pop\n        /* \"@openzeppelin/contracts/utils/Strings.sol\":1269:1270  0 */\n      0x00\n        /* \"@openzeppelin/contracts/utils/Strings.sol\":1260:1265  value */\n      dup6\n        /* \"@openzeppelin/contracts/utils/Strings.sol\":1260:1270  value == 0 */\n      sub\n        /* \"@openzeppelin/contracts/utils/Strings.sol\":1010:1292  while (true) {... */\n      tag_40\n        /* \"@openzeppelin/contracts/utils/Strings.sol\":1256:1277  if (value == 0) break */\n      jumpi\n        /* \"@openzeppelin/contracts/utils/Strings.sol\":1010:1292  while (true) {... */\n    tag_41:\n        /* \"@openzeppelin/contracts/utils/Strings.sol\":1312:1318  buffer */\n      dup2\n        /* \"@openzeppelin/contracts/utils/Strings.sol\":1305:1318  return buffer */\n      swap4\n      pop\n      pop\n      pop\n      pop\n        /* \"@openzeppelin/contracts/utils/Strings.sol\":637:1335  function toString(uint256 value) internal pure returns (string memory) {... */\n      swap2\n      swap1\n      pop\n      jump\t// out\n        /* \"@openzeppelin/contracts/utils/math/Math.sol\":12214:13130  function log10(uint256 value) internal pure returns (uint256) {... */\n    tag_35:\n        /* \"@openzeppelin/contracts/utils/math/Math.sol\":12267:12274  uint256 */\n      0x00\n        /* \"@openzeppelin/contracts/utils/math/Math.sol\":12286:12300  uint256 result */\n      dup1\n        /* \"@openzeppelin/contracts/utils/math/Math.sol\":12303:12304  0 */\n      0x00\n        /* \"@openzeppelin/contracts/utils/math/Math.sol\":12286:12304  uint256 result = 0 */\n      swap1\n      pop\n        /* \"@openzeppelin/contracts/utils/math/Math.sol\":12351:12359  10 ** 64 */\n      0x184f03e93ff9f4daa797ed6e38ed64bf6a1f010000000000000000\n        /* \"@openzeppelin/contracts/utils/math/Math.sol\":12342:12347  value */\n      dup4\n        /* \"@openzeppelin/contracts/utils/math/Math.sol\":12342:12359  value >= 10 ** 64 */\n      lt\n        /* \"@openzeppelin/contracts/utils/math/Math.sol\":12338:12441  if (value >= 10 ** 64) {... */\n      tag_47\n      jumpi\n        /* \"@openzeppelin/contracts/utils/math/Math.sol\":12388:12396  10 ** 64 */\n      0x184f03e93ff9f4daa797ed6e38ed64bf6a1f010000000000000000\n        /* \"@openzeppelin/contracts/utils/math/Math.sol\":12379:12396  value /= 10 ** 64 */\n      dup4\n      dup2\n      tag_48\n      jumpi\n      tag_49\n      tag_44\n      jump\t// in\n    tag_49:\n    tag_48:\n      div\n      swap3\n      pop\n        /* \"@openzeppelin/contracts/utils/math/Math.sol\":12424:12426  64 */\n      0x40\n        /* \"@openzeppelin/contracts/utils/math/Math.sol\":12414:12426  result += 64 */\n      dup2\n      add\n      swap1\n      pop\n        /* \"@openzeppelin/contracts/utils/math/Math.sol\":12338:12441  if (value >= 10 ** 64) {... */\n    tag_47:\n        /* \"@openzeppelin/contracts/utils/math/Math.sol\":12467:12475  10 ** 32 */\n      0x04ee2d6d415b85acef8100000000\n        /* \"@openzeppelin/contracts/utils/math/Math.sol\":12458:12463  value */\n      dup4\n        /* \"@openzeppelin/contracts/utils/math/Math.sol\":12458:12475  value >= 10 ** 32 */\n      lt\n        /* \"@openzeppelin/contracts/utils/math/Math.sol\":12454:12557  if (value >= 10 ** 32) {... */\n      tag_50\n      jumpi\n        /* \"@openzeppelin/contracts/utils/math/Math.sol\":12504:12512  10 ** 32 */\n      0x04ee2d6d415b85acef8100000000\n        /* \"@openzeppelin/contracts/utils/math/Math.sol\":12495:12512  value /= 10 ** 32 */\n      dup4\n      dup2\n      tag_51\n      jumpi\n      tag_52\n      tag_44\n      jump\t// in\n    tag_52:\n    tag_51:\n      div\n      swap3\n      pop\n        /* \"@openzeppelin/contracts/utils/math/Math.sol\":12540:12542  32 */\n      0x20\n        /* \"@openzeppelin/contracts/utils/math/Math.sol\":12530:12542  result += 32 */\n      dup2\n      add\n      swap1\n      pop\n        /* \"@openzeppelin/contracts/utils/math/Math.sol\":12454:12557  if (value >= 10 ** 32) {... */\n    tag_50:\n        /* \"@openzeppelin/contracts/utils/math/Math.sol\":12583:12591  10 ** 16 */\n      0x2386f26fc10000\n        /* \"@openzeppelin/contracts/utils/math/Math.sol\":12574:12579  value */\n      dup4\n        /* \"@openzeppelin/contracts/utils/math/Math.sol\":12574:12591  value >= 10 ** 16 */\n      lt\n        /* \"@openzeppelin/contracts/utils/math/Math.sol\":12570:12673  if (value >= 10 ** 16) {... */\n      tag_53\n      jumpi\n        /* \"@openzeppelin/contracts/utils/math/Math.sol\":12620:12628  10 ** 16 */\n      0x2386f26fc10000\n        /* \"@openzeppelin/contracts/utils/math/Math.sol\":12611:12628  value /= 10 ** 16 */\n      dup4\n      dup2\n      tag_54\n      jumpi\n      tag_55\n      tag_44\n      jump\t// in\n    tag_55:\n    tag_54:\n      div\n      swap3\n      pop\n        /* \"@openzeppelin/contracts/utils/math/Math.sol\":12656:12658  16 */\n      0x10\n        /* \"@openzeppelin/contracts/utils/math/Math.sol\":12646:12658  result += 16 */\n      dup2\n      add\n      swap1\n      pop\n        /* \"@openzeppelin/contracts/utils/math/Math.sol\":12570:12673  if (value >= 10 ** 16) {... */\n    tag_53:\n        /* \"@openzeppelin/contracts/utils/math/Math.sol\":12699:12706  10 ** 8 */\n      0x05f5e100\n        /* \"@openzeppelin/contracts/utils/math/Math.sol\":12690:12695  value */\n      dup4\n        /* \"@openzeppelin/contracts/utils/math/Math.sol\":12690:12706  value >= 10 ** 8 */\n      lt\n        /* \"@openzeppelin/contracts/utils/math/Math.sol\":12686:12786  if (value >= 10 ** 8) {... */\n      tag_56\n      jumpi\n        /* \"@openzeppelin/contracts/utils/math/Math.sol\":12735:12742  10 ** 8 */\n      0x05f5e100\n        /* \"@openzeppelin/contracts/utils/math/Math.sol\":12726:12742  value /= 10 ** 8 */\n      dup4\n      dup2\n      tag_57\n      jumpi\n      tag_58\n      tag_44\n      jump\t// in\n    tag_58:\n    tag_57:\n      div\n      swap3\n      pop\n        /* \"@openzeppelin/contracts/utils/math/Math.sol\":12770:12771  8 */\n      0x08\n        /* \"@openzeppelin/contracts/utils/math/Math.sol\":12760:12771  result += 8 */\n      dup2\n      add\n      swap1\n      pop\n        /* \"@openzeppelin/contracts/utils/math/Math.sol\":12686:12786  if (value >= 10 ** 8) {... */\n    tag_56:\n        /* \"@openzeppelin/contracts/utils/math/Math.sol\":12812:12819  10 ** 4 */\n      0x2710\n        /* \"@openzeppelin/contracts/utils/math/Math.sol\":12803:12808  value */\n      dup4\n        /* \"@openzeppelin/contracts/utils/math/Math.sol\":12803:12819  value >= 10 ** 4 */\n      lt\n        /* \"@openzeppelin/contracts/utils/math/Math.sol\":12799:12899  if (value >= 10 ** 4) {... */\n      tag_59\n      jumpi\n        /* \"@openzeppelin/contracts/utils/math/Math.sol\":12848:12855  10 ** 4 */\n      0x2710\n        /* \"@openzeppelin/contracts/utils/math/Math.sol\":12839:12855  value /= 10 ** 4 */\n      dup4\n      dup2\n      tag_60\n      jumpi\n      tag_61\n      tag_44\n      jump\t// in\n    tag_61:\n    tag_60:\n      div\n      swap3\n      pop\n        /* \"@openzeppelin/contracts/utils/math/Math.sol\":12883:12884  4 */\n      0x04\n        /* \"@openzeppelin/contracts/utils/math/Math.sol\":12873:12884  result += 4 */\n      dup2\n      add\n      swap1\n      pop\n        /* \"@openzeppelin/contracts/utils/math/Math.sol\":12799:12899  if (value >= 10 ** 4) {... */\n    tag_59:\n        /* \"@openzeppelin/contracts/utils/math/Math.sol\":12925:12932  10 ** 2 */\n      0x64\n        /* \"@openzeppelin/contracts/utils/math/Math.sol\":12916:12921  value */\n      dup4\n        /* \"@openzeppelin/contracts/utils/math/Math.sol\":12916:12932  value >= 10 ** 2 */\n      lt\n        /* \"@openzeppelin/contracts/utils/math/Math.sol\":12912:13012  if (value >= 10 ** 2) {... */\n      tag_62\n      jumpi\n        /* \"@openzeppelin/contracts/utils/math/Math.sol\":12961:12968  10 ** 2 */\n      0x64\n        /* \"@openzeppelin/contracts/utils/math/Math.sol\":12952:12968  value /= 10 ** 2 */\n      dup4\n      dup2\n      tag_63\n      jumpi\n      tag_64\n      tag_44\n      jump\t// in\n    tag_64:\n    tag_63:\n      div\n      swap3\n      pop\n        /* \"@openzeppelin/contracts/utils/math/Math.sol\":12996:12997  2 */\n      0x02\n        /* \"@openzeppelin/contracts/utils/math/Math.sol\":12986:12997  result += 2 */\n      dup2\n      add\n      swap1\n      pop\n        /* \"@openzeppelin/contracts/utils/math/Math.sol\":12912:13012  if (value >= 10 ** 2) {... */\n    tag_62:\n        /* \"@openzeppelin/contracts/utils/math/Math.sol\":13038:13045  10 ** 1 */\n      0x0a\n        /* \"@openzeppelin/contracts/utils/math/Math.sol\":13029:13034  value */\n      dup4\n        /* \"@openzeppelin/contracts/utils/math/Math.sol\":13029:13045  value >= 10 ** 1 */\n      lt\n        /* \"@openzeppelin/contracts/utils/math/Math.sol\":13025:13091  if (value >= 10 ** 1) {... */\n      tag_65\n      jumpi\n        /* \"@openzeppelin/contracts/utils/math/Math.sol\":13075:13076  1 */\n      0x01\n        /* \"@openzeppelin/contracts/utils/math/Math.sol\":13065:13076  result += 1 */\n      dup2\n      add\n      swap1\n      pop\n        /* \"@openzeppelin/contracts/utils/math/Math.sol\":13025:13091  if (value >= 10 ** 1) {... */\n    tag_65:\n        /* \"@openzeppelin/contracts/utils/math/Math.sol\":13117:13123  result */\n      dup1\n        /* \"@openzeppelin/contracts/utils/math/Math.sol\":13110:13123  return result */\n      swap2\n      pop\n      pop\n        /* \"@openzeppelin/contracts/utils/math/Math.sol\":12214:13130  function log10(uint256 value) internal pure returns (uint256) {... */\n      swap2\n      swap1\n      pop\n      jump\t// out\n        /* \"#utility.yul\":7:82   */\n    tag_66:\n        /* \"#utility.yul\":40:46   */\n      0x00\n        /* \"#utility.yul\":73:75   */\n      0x40\n        /* \"#utility.yul\":67:76   */\n      mload\n        /* \"#utility.yul\":57:76   */\n      swap1\n      pop\n        /* \"#utility.yul\":7:82   */\n      swap1\n      jump\t// out\n        /* \"#utility.yul\":88:205   */\n    tag_67:\n        /* \"#utility.yul\":197:198   */\n      0x00\n        /* \"#utility.yul\":194:195   */\n      dup1\n        /* \"#utility.yul\":187:199   */\n      revert\n        /* \"#utility.yul\":211:328   */\n    tag_68:\n        /* \"#utility.yul\":320:321   */\n      0x00\n        /* \"#utility.yul\":317:318   */\n      dup1\n        /* \"#utility.yul\":310:322   */\n      revert\n        /* \"#utility.yul\":334:451   */\n    tag_69:\n        /* \"#utility.yul\":443:444   */\n      0x00\n        /* \"#utility.yul\":440:441   */\n      dup1\n        /* \"#utility.yul\":433:445   */\n      revert\n        /* \"#utility.yul\":457:574   */\n    tag_70:\n        /* \"#utility.yul\":566:567   */\n      0x00\n        /* \"#utility.yul\":563:564   */\n      dup1\n        /* \"#utility.yul\":556:568   */\n      revert\n        /* \"#utility.yul\":580:682   */\n    tag_71:\n        /* \"#utility.yul\":621:627   */\n      0x00\n        /* \"#utility.yul\":672:674   */\n      0x1f\n        /* \"#utility.yul\":668:675   */\n      not\n        /* \"#utility.yul\":663:665   */\n      0x1f\n        /* \"#utility.yul\":656:661   */\n      dup4\n        /* \"#utility.yul\":652:666   */\n      add\n        /* \"#utility.yul\":648:676   */\n      and\n        /* \"#utility.yul\":638:676   */\n      swap1\n      pop\n        /* \"#utility.yul\":580:682   */\n      swap2\n      swap1\n      pop\n      jump\t// out\n        /* \"#utility.yul\":688:868   */\n    tag_38:\n        /* \"#utility.yul\":736:813   */\n      0x4e487b7100000000000000000000000000000000000000000000000000000000\n        /* \"#utility.yul\":733:734   */\n      0x00\n        /* \"#utility.yul\":726:814   */\n      mstore\n        /* \"#utility.yul\":833:837   */\n      0x41\n        /* \"#utility.yul\":830:831   */\n      0x04\n        /* \"#utility.yul\":823:838   */\n      mstore\n        /* \"#utility.yul\":857:861   */\n      0x24\n        /* \"#utility.yul\":854:855   */\n      0x00\n        /* \"#utility.yul\":847:862   */\n      revert\n        /* \"#utility.yul\":874:1155   */\n    tag_72:\n        /* \"#utility.yul\":957:984   */\n      tag_95\n        /* \"#utility.yul\":979:983   */\n      dup3\n        /* \"#utility.yul\":957:984   */\n      tag_71\n      jump\t// in\n    tag_95:\n        /* \"#utility.yul\":949:955   */\n      dup2\n        /* \"#utility.yul\":945:985   */\n      add\n        /* \"#utility.yul\":1087:1093   */\n      dup2\n        /* \"#utility.yul\":1075:1085   */\n      dup2\n        /* \"#utility.yul\":1072:1094   */\n      lt\n        /* \"#utility.yul\":1051:1069   */\n      0xffffffffffffffff\n        /* \"#utility.yul\":1039:1049   */\n      dup3\n        /* \"#utility.yul\":1036:1070   */\n      gt\n        /* \"#utility.yul\":1033:1095   */\n      or\n        /* \"#utility.yul\":1030:1118   */\n      iszero\n      tag_96\n      jumpi\n        /* \"#utility.yul\":1098:1116   */\n      tag_97\n      tag_38\n      jump\t// in\n    tag_97:\n        /* \"#utility.yul\":1030:1118   */\n    tag_96:\n        /* \"#utility.yul\":1138:1148   */\n      dup1\n        /* \"#utility.yul\":1134:1136   */\n      0x40\n        /* \"#utility.yul\":1127:1149   */\n      mstore\n        /* \"#utility.yul\":917:1155   */\n      pop\n        /* \"#utility.yul\":874:1155   */\n      pop\n      pop\n      jump\t// out\n        /* \"#utility.yul\":1161:1290   */\n    tag_73:\n        /* \"#utility.yul\":1195:1201   */\n      0x00\n        /* \"#utility.yul\":1222:1242   */\n      tag_99\n      tag_66\n      jump\t// in\n    tag_99:\n        /* \"#utility.yul\":1212:1242   */\n      swap1\n      pop\n        /* \"#utility.yul\":1251:1284   */\n      tag_100\n        /* \"#utility.yul\":1279:1283   */\n      dup3\n        /* \"#utility.yul\":1271:1277   */\n      dup3\n        /* \"#utility.yul\":1251:1284   */\n      tag_72\n      jump\t// in\n    tag_100:\n        /* \"#utility.yul\":1161:1290   */\n      swap2\n      swap1\n      pop\n      jump\t// out\n        /* \"#utility.yul\":1296:1604   */\n    tag_74:\n        /* \"#utility.yul\":1358:1362   */\n      0x00\n        /* \"#utility.yul\":1448:1466   */\n      0xffffffffffffffff\n        /* \"#utility.yul\":1440:1446   */\n      dup3\n        /* \"#utility.yul\":1437:1467   */\n      gt\n        /* \"#utility.yul\":1434:1490   */\n      iszero\n      tag_102\n      jumpi\n        /* \"#utility.yul\":1470:1488   */\n      tag_103\n      tag_38\n      jump\t// in\n    tag_103:\n        /* \"#utility.yul\":1434:1490   */\n    tag_102:\n        /* \"#utility.yul\":1508:1537   */\n      tag_104\n        /* \"#utility.yul\":1530:1536   */\n      dup3\n        /* \"#utility.yul\":1508:1537   */\n      tag_71\n      jump\t// in\n    tag_104:\n        /* \"#utility.yul\":1500:1537   */\n      swap1\n      pop\n        /* \"#utility.yul\":1592:1596   */\n      0x20\n        /* \"#utility.yul\":1586:1590   */\n      dup2\n        /* \"#utility.yul\":1582:1597   */\n      add\n        /* \"#utility.yul\":1574:1597   */\n      swap1\n      pop\n        /* \"#utility.yul\":1296:1604   */\n      swap2\n      swap1\n      pop\n      jump\t// out\n        /* \"#utility.yul\":1610:1758   */\n    tag_75:\n        /* \"#utility.yul\":1708:1714   */\n      dup3\n        /* \"#utility.yul\":1703:1706   */\n      dup2\n        /* \"#utility.yul\":1698:1701   */\n      dup4\n        /* \"#utility.yul\":1685:1715   */\n      calldatacopy\n        /* \"#utility.yul\":1749:1750   */\n      0x00\n        /* \"#utility.yul\":1740:1746   */\n      dup4\n        /* \"#utility.yul\":1735:1738   */\n      dup4\n        /* \"#utility.yul\":1731:1747   */\n      add\n        /* \"#utility.yul\":1724:1751   */\n      mstore\n        /* \"#utility.yul\":1610:1758   */\n      pop\n      pop\n      pop\n      jump\t// out\n        /* \"#utility.yul\":1764:2189   */\n    tag_76:\n        /* \"#utility.yul\":1842:1847   */\n      0x00\n        /* \"#utility.yul\":1867:1933   */\n      tag_107\n        /* \"#utility.yul\":1883:1932   */\n      tag_108\n        /* \"#utility.yul\":1925:1931   */\n      dup5\n        /* \"#utility.yul\":1883:1932   */\n      tag_74\n      jump\t// in\n    tag_108:\n        /* \"#utility.yul\":1867:1933   */\n      tag_73\n      jump\t// in\n    tag_107:\n        /* \"#utility.yul\":1858:1933   */\n      swap1\n      pop\n        /* \"#utility.yul\":1956:1962   */\n      dup3\n        /* \"#utility.yul\":1949:1954   */\n      dup2\n        /* \"#utility.yul\":1942:1963   */\n      mstore\n        /* \"#utility.yul\":1994:1998   */\n      0x20\n        /* \"#utility.yul\":1987:1992   */\n      dup2\n        /* \"#utility.yul\":1983:1999   */\n      add\n        /* \"#utility.yul\":2032:2035   */\n      dup5\n        /* \"#utility.yul\":2023:2029   */\n      dup5\n        /* \"#utility.yul\":2018:2021   */\n      dup5\n        /* \"#utility.yul\":2014:2030   */\n      add\n        /* \"#utility.yul\":2011:2036   */\n      gt\n        /* \"#utility.yul\":2008:2120   */\n      iszero\n      tag_109\n      jumpi\n        /* \"#utility.yul\":2039:2118   */\n      tag_110\n      tag_70\n      jump\t// in\n    tag_110:\n        /* \"#utility.yul\":2008:2120   */\n    tag_109:\n        /* \"#utility.yul\":2129:2183   */\n      tag_111\n        /* \"#utility.yul\":2176:2182   */\n      dup5\n        /* \"#utility.yul\":2171:2174   */\n      dup3\n        /* \"#utility.yul\":2166:2169   */\n      dup6\n        /* \"#utility.yul\":2129:2183   */\n      tag_75\n      jump\t// in\n    tag_111:\n        /* \"#utility.yul\":1848:2189   */\n      pop\n        /* \"#utility.yul\":1764:2189   */\n      swap4\n      swap3\n      pop\n      pop\n      pop\n      jump\t// out\n        /* \"#utility.yul\":2209:2549   */\n    tag_77:\n        /* \"#utility.yul\":2265:2270   */\n      0x00\n        /* \"#utility.yul\":2314:2317   */\n      dup3\n        /* \"#utility.yul\":2307:2311   */\n      0x1f\n        /* \"#utility.yul\":2299:2305   */\n      dup4\n        /* \"#utility.yul\":2295:2312   */\n      add\n        /* \"#utility.yul\":2291:2318   */\n      slt\n        /* \"#utility.yul\":2281:2403   */\n      tag_113\n      jumpi\n        /* \"#utility.yul\":2322:2401   */\n      tag_114\n      tag_69\n      jump\t// in\n    tag_114:\n        /* \"#utility.yul\":2281:2403   */\n    tag_113:\n        /* \"#utility.yul\":2439:2445   */\n      dup2\n        /* \"#utility.yul\":2426:2446   */\n      calldataload\n        /* \"#utility.yul\":2464:2543   */\n      tag_115\n        /* \"#utility.yul\":2539:2542   */\n      dup5\n        /* \"#utility.yul\":2531:2537   */\n      dup3\n        /* \"#utility.yul\":2524:2528   */\n      0x20\n        /* \"#utility.yul\":2516:2522   */\n      dup7\n        /* \"#utility.yul\":2512:2529   */\n      add\n        /* \"#utility.yul\":2464:2543   */\n      tag_76\n      jump\t// in\n    tag_115:\n        /* \"#utility.yul\":2455:2543   */\n      swap2\n      pop\n        /* \"#utility.yul\":2271:2549   */\n      pop\n        /* \"#utility.yul\":2209:2549   */\n      swap3\n      swap2\n      pop\n      pop\n      jump\t// out\n        /* \"#utility.yul\":2555:3064   */\n    tag_7:\n        /* \"#utility.yul\":2624:2630   */\n      0x00\n        /* \"#utility.yul\":2673:2675   */\n      0x20\n        /* \"#utility.yul\":2661:2670   */\n      dup3\n        /* \"#utility.yul\":2652:2659   */\n      dup5\n        /* \"#utility.yul\":2648:2671   */\n      sub\n        /* \"#utility.yul\":2644:2676   */\n      slt\n        /* \"#utility.yul\":2641:2760   */\n      iszero\n      tag_117\n      jumpi\n        /* \"#utility.yul\":2679:2758   */\n      tag_118\n      tag_67\n      jump\t// in\n    tag_118:\n        /* \"#utility.yul\":2641:2760   */\n    tag_117:\n        /* \"#utility.yul\":2827:2828   */\n      0x00\n        /* \"#utility.yul\":2816:2825   */\n      dup3\n        /* \"#utility.yul\":2812:2829   */\n      add\n        /* \"#utility.yul\":2799:2830   */\n      calldataload\n        /* \"#utility.yul\":2857:2875   */\n      0xffffffffffffffff\n        /* \"#utility.yul\":2849:2855   */\n      dup2\n        /* \"#utility.yul\":2846:2876   */\n      gt\n        /* \"#utility.yul\":2843:2960   */\n      iszero\n      tag_119\n      jumpi\n        /* \"#utility.yul\":2879:2958   */\n      tag_120\n      tag_68\n      jump\t// in\n    tag_120:\n        /* \"#utility.yul\":2843:2960   */\n    tag_119:\n        /* \"#utility.yul\":2984:3047   */\n      tag_121\n        /* \"#utility.yul\":3039:3046   */\n      dup5\n        /* \"#utility.yul\":3030:3036   */\n      dup3\n        /* \"#utility.yul\":3019:3028   */\n      dup6\n        /* \"#utility.yul\":3015:3037   */\n      add\n        /* \"#utility.yul\":2984:3047   */\n      tag_77\n      jump\t// in\n    tag_121:\n        /* \"#utility.yul\":2974:3047   */\n      swap2\n      pop\n        /* \"#utility.yul\":2770:3057   */\n      pop\n        /* \"#utility.yul\":2555:3064   */\n      swap3\n      swap2\n      pop\n      pop\n      jump\t// out\n        /* \"#utility.yul\":3070:3147   */\n    tag_78:\n        /* \"#utility.yul\":3107:3114   */\n      0x00\n        /* \"#utility.yul\":3136:3141   */\n      dup2\n        /* \"#utility.yul\":3125:3141   */\n      swap1\n      pop\n        /* \"#utility.yul\":3070:3147   */\n      swap2\n      swap1\n      pop\n      jump\t// out\n        /* \"#utility.yul\":3153:3271   */\n    tag_79:\n        /* \"#utility.yul\":3240:3264   */\n      tag_124\n        /* \"#utility.yul\":3258:3263   */\n      dup2\n        /* \"#utility.yul\":3240:3264   */\n      tag_78\n      jump\t// in\n    tag_124:\n        /* \"#utility.yul\":3235:3238   */\n      dup3\n        /* \"#utility.yul\":3228:3265   */\n      mstore\n        /* \"#utility.yul\":3153:3271   */\n      pop\n      pop\n      jump\t// out\n        /* \"#utility.yul\":3277:3499   */\n    tag_10:\n        /* \"#utility.yul\":3370:3374   */\n      0x00\n        /* \"#utility.yul\":3408:3410   */\n      0x20\n        /* \"#utility.yul\":3397:3406   */\n      dup3\n        /* \"#utility.yul\":3393:3411   */\n      add\n        /* \"#utility.yul\":3385:3411   */\n      swap1\n      pop\n        /* \"#utility.yul\":3421:3492   */\n      tag_126\n        /* \"#utility.yul\":3489:3490   */\n      0x00\n        /* \"#utility.yul\":3478:3487   */\n      dup4\n        /* \"#utility.yul\":3474:3491   */\n      add\n        /* \"#utility.yul\":3465:3471   */\n      dup5\n        /* \"#utility.yul\":3421:3492   */\n      tag_79\n      jump\t// in\n    tag_126:\n        /* \"#utility.yul\":3277:3499   */\n      swap3\n      swap2\n      pop\n      pop\n      jump\t// out\n        /* \"#utility.yul\":3505:3627   */\n    tag_80:\n        /* \"#utility.yul\":3578:3602   */\n      tag_128\n        /* \"#utility.yul\":3596:3601   */\n      dup2\n        /* \"#utility.yul\":3578:3602   */\n      tag_78\n      jump\t// in\n    tag_128:\n        /* \"#utility.yul\":3571:3576   */\n      dup2\n        /* \"#utility.yul\":3568:3603   */\n      eq\n        /* \"#utility.yul\":3558:3621   */\n      tag_129\n      jumpi\n        /* \"#utility.yul\":3617:3618   */\n      0x00\n        /* \"#utility.yul\":3614:3615   */\n      dup1\n        /* \"#utility.yul\":3607:3619   */\n      revert\n        /* \"#utility.yul\":3558:3621   */\n    tag_129:\n        /* \"#utility.yul\":3505:3627   */\n      pop\n      jump\t// out\n        /* \"#utility.yul\":3633:3772   */\n    tag_81:\n        /* \"#utility.yul\":3679:3684   */\n      0x00\n        /* \"#utility.yul\":3717:3723   */\n      dup2\n        /* \"#utility.yul\":3704:3724   */\n      calldataload\n        /* \"#utility.yul\":3695:3724   */\n      swap1\n      pop\n        /* \"#utility.yul\":3733:3766   */\n      tag_131\n        /* \"#utility.yul\":3760:3765   */\n      dup2\n        /* \"#utility.yul\":3733:3766   */\n      tag_80\n      jump\t// in\n    tag_131:\n        /* \"#utility.yul\":3633:3772   */\n      swap3\n      swap2\n      pop\n      pop\n      jump\t// out\n        /* \"#utility.yul\":3778:4107   */\n    tag_13:\n        /* \"#utility.yul\":3837:3843   */\n      0x00\n        /* \"#utility.yul\":3886:3888   */\n      0x20\n        /* \"#utility.yul\":3874:3883   */\n      dup3\n        /* \"#utility.yul\":3865:3872   */\n      dup5\n        /* \"#utility.yul\":3861:3884   */\n      sub\n        /* \"#utility.yul\":3857:3889   */\n      slt\n        /* \"#utility.yul\":3854:3973   */\n      iszero\n      tag_133\n      jumpi\n        /* \"#utility.yul\":3892:3971   */\n      tag_134\n      tag_67\n      jump\t// in\n    tag_134:\n        /* \"#utility.yul\":3854:3973   */\n    tag_133:\n        /* \"#utility.yul\":4012:4013   */\n      0x00\n        /* \"#utility.yul\":4037:4090   */\n      tag_135\n        /* \"#utility.yul\":4082:4089   */\n      dup5\n        /* \"#utility.yul\":4073:4079   */\n      dup3\n        /* \"#utility.yul\":4062:4071   */\n      dup6\n        /* \"#utility.yul\":4058:4080   */\n      add\n        /* \"#utility.yul\":4037:4090   */\n      tag_81\n      jump\t// in\n    tag_135:\n        /* \"#utility.yul\":4027:4090   */\n      swap2\n      pop\n        /* \"#utility.yul\":3983:4100   */\n      pop\n        /* \"#utility.yul\":3778:4107   */\n      swap3\n      swap2\n      pop\n      pop\n      jump\t// out\n        /* \"#utility.yul\":4113:4293   */\n    tag_82:\n        /* \"#utility.yul\":4161:4238   */\n      0x4e487b7100000000000000000000000000000000000000000000000000000000\n        /* \"#utility.yul\":4158:4159   */\n      0x00\n        /* \"#utility.yul\":4151:4239   */\n      mstore\n        /* \"#utility.yul\":4258:4262   */\n      0x11\n        /* \"#utility.yul\":4255:4256   */\n      0x04\n        /* \"#utility.yul\":4248:4263   */\n      mstore\n        /* \"#utility.yul\":4282:4286   */\n      0x24\n        /* \"#utility.yul\":4279:4280   */\n      0x00\n        /* \"#utility.yul\":4272:4287   */\n      revert\n        /* \"#utility.yul\":4299:4493   */\n    tag_25:\n        /* \"#utility.yul\":4339:4343   */\n      0x00\n        /* \"#utility.yul\":4359:4379   */\n      tag_138\n        /* \"#utility.yul\":4377:4378   */\n      dup3\n        /* \"#utility.yul\":4359:4379   */\n      tag_78\n      jump\t// in\n    tag_138:\n        /* \"#utility.yul\":4354:4379   */\n      swap2\n      pop\n        /* \"#utility.yul\":4393:4413   */\n      tag_139\n        /* \"#utility.yul\":4411:4412   */\n      dup4\n        /* \"#utility.yul\":4393:4413   */\n      tag_78\n      jump\t// in\n    tag_139:\n        /* \"#utility.yul\":4388:4413   */\n      swap3\n      pop\n        /* \"#utility.yul\":4437:4438   */\n      dup3\n        /* \"#utility.yul\":4434:4435   */\n      dup3\n        /* \"#utility.yul\":4430:4439   */\n      sub\n        /* \"#utility.yul\":4422:4439   */\n      swap1\n      pop\n        /* \"#utility.yul\":4461:4462   */\n      dup2\n        /* \"#utility.yul\":4455:4459   */\n      dup2\n        /* \"#utility.yul\":4452:4463   */\n      gt\n        /* \"#utility.yul\":4449:4486   */\n      iszero\n      tag_140\n      jumpi\n        /* \"#utility.yul\":4466:4484   */\n      tag_141\n      tag_82\n      jump\t// in\n    tag_141:\n        /* \"#utility.yul\":4449:4486   */\n    tag_140:\n        /* \"#utility.yul\":4299:4493   */\n      swap3\n      swap2\n      pop\n      pop\n      jump\t// out\n        /* \"#utility.yul\":4499:4601   */\n    tag_83:\n        /* \"#utility.yul\":4541:4549   */\n      0x00\n        /* \"#utility.yul\":4588:4593   */\n      dup2\n        /* \"#utility.yul\":4585:4586   */\n      0x01\n        /* \"#utility.yul\":4581:4594   */\n      shr\n        /* \"#utility.yul\":4560:4594   */\n      swap1\n      pop\n        /* \"#utility.yul\":4499:4601   */\n      swap2\n      swap1\n      pop\n      jump\t// out\n        /* \"#utility.yul\":4607:5455   */\n    tag_84:\n        /* \"#utility.yul\":4668:4673   */\n      0x00\n        /* \"#utility.yul\":4675:4679   */\n      dup1\n        /* \"#utility.yul\":4699:4705   */\n      dup3\n        /* \"#utility.yul\":4690:4705   */\n      swap2\n      pop\n        /* \"#utility.yul\":4723:4728   */\n      dup4\n        /* \"#utility.yul\":4714:4728   */\n      swap1\n      pop\n        /* \"#utility.yul\":4737:5449   */\n    tag_144:\n        /* \"#utility.yul\":4758:4759   */\n      0x01\n        /* \"#utility.yul\":4748:4756   */\n      dup6\n        /* \"#utility.yul\":4745:4760   */\n      gt\n        /* \"#utility.yul\":4737:5449   */\n      iszero\n      tag_146\n      jumpi\n        /* \"#utility.yul\":4853:4857   */\n      dup1\n        /* \"#utility.yul\":4848:4851   */\n      dup7\n        /* \"#utility.yul\":4844:4858   */\n      div\n        /* \"#utility.yul\":4838:4842   */\n      dup2\n        /* \"#utility.yul\":4835:4859   */\n      gt\n        /* \"#utility.yul\":4832:4882   */\n      iszero\n      tag_147\n      jumpi\n        /* \"#utility.yul\":4862:4880   */\n      tag_148\n      tag_82\n      jump\t// in\n    tag_148:\n        /* \"#utility.yul\":4832:4882   */\n    tag_147:\n        /* \"#utility.yul\":4912:4913   */\n      0x01\n        /* \"#utility.yul\":4902:4910   */\n      dup6\n        /* \"#utility.yul\":4898:4914   */\n      and\n        /* \"#utility.yul\":4895:5346   */\n      iszero\n      tag_149\n      jumpi\n        /* \"#utility.yul\":5327:5331   */\n      dup1\n        /* \"#utility.yul\":5320:5325   */\n      dup3\n        /* \"#utility.yul\":5316:5332   */\n      mul\n        /* \"#utility.yul\":5307:5332   */\n      swap2\n      pop\n        /* \"#utility.yul\":4895:5346   */\n    tag_149:\n        /* \"#utility.yul\":5377:5381   */\n      dup1\n        /* \"#utility.yul\":5371:5375   */\n      dup2\n        /* \"#utility.yul\":5367:5382   */\n      mul\n        /* \"#utility.yul\":5359:5382   */\n      swap1\n      pop\n        /* \"#utility.yul\":5407:5439   */\n      tag_150\n        /* \"#utility.yul\":5430:5438   */\n      dup6\n        /* \"#utility.yul\":5407:5439   */\n      tag_83\n      jump\t// in\n    tag_150:\n        /* \"#utility.yul\":5395:5439   */\n      swap5\n      pop\n        /* \"#utility.yul\":4737:5449   */\n      jump(tag_144)\n    tag_146:\n        /* \"#utility.yul\":4607:5455   */\n      swap5\n      pop\n      swap5\n      swap3\n      pop\n      pop\n      pop\n      jump\t// out\n        /* \"#utility.yul\":5461:6534   */\n    tag_85:\n        /* \"#utility.yul\":5515:5520   */\n      0x00\n        /* \"#utility.yul\":5706:5714   */\n      dup3\n        /* \"#utility.yul\":5696:5736   */\n      tag_152\n      jumpi\n        /* \"#utility.yul\":5727:5728   */\n      0x01\n        /* \"#utility.yul\":5718:5728   */\n      swap1\n      pop\n        /* \"#utility.yul\":5729:5734   */\n      jump(tag_151)\n        /* \"#utility.yul\":5696:5736   */\n    tag_152:\n        /* \"#utility.yul\":5755:5759   */\n      dup2\n        /* \"#utility.yul\":5745:5781   */\n      tag_153\n      jumpi\n        /* \"#utility.yul\":5772:5773   */\n      0x00\n        /* \"#utility.yul\":5763:5773   */\n      swap1\n      pop\n        /* \"#utility.yul\":5774:5779   */\n      jump(tag_151)\n        /* \"#utility.yul\":5745:5781   */\n    tag_153:\n        /* \"#utility.yul\":5841:5845   */\n      dup2\n        /* \"#utility.yul\":5889:5890   */\n      0x01\n        /* \"#utility.yul\":5884:5911   */\n      dup2\n      eq\n      tag_155\n      jumpi\n        /* \"#utility.yul\":5925:5926   */\n      0x02\n        /* \"#utility.yul\":5920:6111   */\n      dup2\n      eq\n      tag_156\n      jumpi\n        /* \"#utility.yul\":5834:6111   */\n      jump(tag_154)\n        /* \"#utility.yul\":5884:5911   */\n    tag_155:\n        /* \"#utility.yul\":5902:5903   */\n      0x01\n        /* \"#utility.yul\":5893:5903   */\n      swap2\n      pop\n        /* \"#utility.yul\":5904:5909   */\n      pop\n      jump(tag_151)\n        /* \"#utility.yul\":5920:6111   */\n    tag_156:\n        /* \"#utility.yul\":5965:5968   */\n      0xff\n        /* \"#utility.yul\":5955:5963   */\n      dup5\n        /* \"#utility.yul\":5952:5969   */\n      gt\n        /* \"#utility.yul\":5949:5992   */\n      iszero\n      tag_157\n      jumpi\n        /* \"#utility.yul\":5972:5990   */\n      tag_158\n      tag_82\n      jump\t// in\n    tag_158:\n        /* \"#utility.yul\":5949:5992   */\n    tag_157:\n        /* \"#utility.yul\":6021:6029   */\n      dup4\n        /* \"#utility.yul\":6018:6019   */\n      0x02\n        /* \"#utility.yul\":6014:6030   */\n      exp\n        /* \"#utility.yul\":6005:6030   */\n      swap2\n      pop\n        /* \"#utility.yul\":6056:6059   */\n      dup5\n        /* \"#utility.yul\":6049:6054   */\n      dup3\n        /* \"#utility.yul\":6046:6060   */\n      gt\n        /* \"#utility.yul\":6043:6083   */\n      iszero\n      tag_159\n      jumpi\n        /* \"#utility.yul\":6063:6081   */\n      tag_160\n      tag_82\n      jump\t// in\n    tag_160:\n        /* \"#utility.yul\":6043:6083   */\n    tag_159:\n        /* \"#utility.yul\":6096:6101   */\n      pop\n      jump(tag_151)\n        /* \"#utility.yul\":5834:6111   */\n    tag_154:\n      pop\n        /* \"#utility.yul\":6220:6222   */\n      0x20\n        /* \"#utility.yul\":6210:6218   */\n      dup4\n        /* \"#utility.yul\":6207:6223   */\n      lt\n        /* \"#utility.yul\":6201:6204   */\n      0x0133\n        /* \"#utility.yul\":6195:6199   */\n      dup4\n        /* \"#utility.yul\":6192:6205   */\n      lt\n        /* \"#utility.yul\":6188:6224   */\n      and\n        /* \"#utility.yul\":6170:6172   */\n      0x4e\n        /* \"#utility.yul\":6160:6168   */\n      dup5\n        /* \"#utility.yul\":6157:6173   */\n      lt\n        /* \"#utility.yul\":6152:6154   */\n      0x0b\n        /* \"#utility.yul\":6146:6150   */\n      dup5\n        /* \"#utility.yul\":6143:6155   */\n      lt\n        /* \"#utility.yul\":6139:6174   */\n      and\n        /* \"#utility.yul\":6123:6234   */\n      or\n        /* \"#utility.yul\":6120:6366   */\n      iszero\n      tag_161\n      jumpi\n        /* \"#utility.yul\":6276:6284   */\n      dup3\n        /* \"#utility.yul\":6270:6274   */\n      dup3\n        /* \"#utility.yul\":6266:6285   */\n      exp\n        /* \"#utility.yul\":6257:6285   */\n      swap1\n      pop\n        /* \"#utility.yul\":6311:6314   */\n      dup4\n        /* \"#utility.yul\":6304:6309   */\n      dup2\n        /* \"#utility.yul\":6301:6315   */\n      gt\n        /* \"#utility.yul\":6298:6338   */\n      iszero\n      tag_162\n      jumpi\n        /* \"#utility.yul\":6318:6336   */\n      tag_163\n      tag_82\n      jump\t// in\n    tag_163:\n        /* \"#utility.yul\":6298:6338   */\n    tag_162:\n        /* \"#utility.yul\":6351:6356   */\n      jump(tag_151)\n        /* \"#utility.yul\":6120:6366   */\n    tag_161:\n        /* \"#utility.yul\":6391:6433   */\n      tag_164\n        /* \"#utility.yul\":6429:6432   */\n      dup5\n        /* \"#utility.yul\":6419:6427   */\n      dup5\n        /* \"#utility.yul\":6413:6417   */\n      dup5\n        /* \"#utility.yul\":6410:6411   */\n      0x01\n        /* \"#utility.yul\":6391:6433   */\n      tag_84\n      jump\t// in\n    tag_164:\n        /* \"#utility.yul\":6376:6433   */\n      swap3\n      pop\n      swap1\n      pop\n        /* \"#utility.yul\":6465:6469   */\n      dup2\n        /* \"#utility.yul\":6460:6463   */\n      dup5\n        /* \"#utility.yul\":6456:6470   */\n      div\n        /* \"#utility.yul\":6449:6454   */\n      dup2\n        /* \"#utility.yul\":6446:6471   */\n      gt\n        /* \"#utility.yul\":6443:6494   */\n      iszero\n      tag_165\n      jumpi\n        /* \"#utility.yul\":6474:6492   */\n      tag_166\n      tag_82\n      jump\t// in\n    tag_166:\n        /* \"#utility.yul\":6443:6494   */\n    tag_165:\n        /* \"#utility.yul\":6523:6527   */\n      dup2\n        /* \"#utility.yul\":6516:6521   */\n      dup2\n        /* \"#utility.yul\":6512:6528   */\n      mul\n        /* \"#utility.yul\":6503:6528   */\n      swap1\n      pop\n        /* \"#utility.yul\":5461:6534   */\n    tag_151:\n      swap4\n      swap3\n      pop\n      pop\n      pop\n      jump\t// out\n        /* \"#utility.yul\":6540:6825   */\n    tag_27:\n        /* \"#utility.yul\":6600:6605   */\n      0x00\n        /* \"#utility.yul\":6624:6647   */\n      tag_168\n        /* \"#utility.yul\":6642:6646   */\n      dup3\n        /* \"#utility.yul\":6624:6647   */\n      tag_78\n      jump\t// in\n    tag_168:\n        /* \"#utility.yul\":6616:6647   */\n      swap2\n      pop\n        /* \"#utility.yul\":6668:6695   */\n      tag_169\n        /* \"#utility.yul\":6686:6694   */\n      dup4\n        /* \"#utility.yul\":6668:6695   */\n      tag_78\n      jump\t// in\n    tag_169:\n        /* \"#utility.yul\":6656:6695   */\n      swap3\n      pop\n        /* \"#utility.yul\":6714:6818   */\n      tag_170\n        /* \"#utility.yul\":6751:6817   */\n      0xffffffffffffffffffffffffffffffffffffffffffffffffffffffffffffffff\n        /* \"#utility.yul\":6741:6749   */\n      dup5\n        /* \"#utility.yul\":6735:6739   */\n      dup5\n        /* \"#utility.yul\":6714:6818   */\n      tag_85\n      jump\t// in\n    tag_170:\n        /* \"#utility.yul\":6705:6818   */\n      swap1\n      pop\n        /* \"#utility.yul\":6540:6825   */\n      swap3\n      swap2\n      pop\n      pop\n      jump\t// out\n        /* \"#utility.yul\":6831:7011   */\n    tag_44:\n        /* \"#utility.yul\":6879:6956   */\n      0x4e487b7100000000000000000000000000000000000000000000000000000000\n        /* \"#utility.yul\":6876:6877   */\n      0x00\n        /* \"#utility.yul\":6869:6957   */\n      mstore\n        /* \"#utility.yul\":6976:6980   */\n      0x12\n        /* \"#utility.yul\":6973:6974   */\n      0x04\n        /* \"#utility.yul\":6966:6981   */\n      mstore\n        /* \"#utility.yul\":7000:7004   */\n      0x24\n        /* \"#utility.yul\":6997:6998   */\n      0x00\n        /* \"#utility.yul\":6990:7005   */\n      revert\n        /* \"#utility.yul\":7017:7202   */\n    tag_29:\n        /* \"#utility.yul\":7057:7058   */\n      0x00\n        /* \"#utility.yul\":7074:7094   */\n      tag_173\n        /* \"#utility.yul\":7092:7093   */\n      dup3\n        /* \"#utility.yul\":7074:7094   */\n      tag_78\n      jump\t// in\n    tag_173:\n        /* \"#utility.yul\":7069:7094   */\n      swap2\n      pop\n        /* \"#utility.yul\":7108:7128   */\n      tag_174\n        /* \"#utility.yul\":7126:7127   */\n      dup4\n        /* \"#utility.yul\":7108:7128   */\n      tag_78\n      jump\t// in\n    tag_174:\n        /* \"#utility.yul\":7103:7128   */\n      swap3\n      pop\n        /* \"#utility.yul\":7147:7148   */\n      dup3\n        /* \"#utility.yul\":7137:7172   */\n      tag_175\n      jumpi\n        /* \"#utility.yul\":7152:7170   */\n      tag_176\n      tag_44\n      jump\t// in\n    tag_176:\n        /* \"#utility.yul\":7137:7172   */\n    tag_175:\n        /* \"#utility.yul\":7194:7195   */\n      dup3\n        /* \"#utility.yul\":7191:7192   */\n      dup3\n        /* \"#utility.yul\":7187:7196   */\n      div\n        /* \"#utility.yul\":7182:7196   */\n      swap1\n      pop\n        /* \"#utility.yul\":7017:7202   */\n      swap3\n      swap2\n      pop\n      pop\n      jump\t// out\n        /* \"#utility.yul\":7208:7441   */\n    tag_32:\n        /* \"#utility.yul\":7247:7250   */\n      0x00\n        /* \"#utility.yul\":7270:7294   */\n      tag_178\n        /* \"#utility.yul\":7288:7293   */\n      dup3\n        /* \"#utility.yul\":7270:7294   */\n      tag_78\n      jump\t// in\n    tag_178:\n        /* \"#utility.yul\":7261:7294   */\n      swap2\n      pop\n        /* \"#utility.yul\":7316:7382   */\n      0xffffffffffffffffffffffffffffffffffffffffffffffffffffffffffffffff\n        /* \"#utility.yul\":7309:7314   */\n      dup3\n        /* \"#utility.yul\":7306:7383   */\n      sub\n        /* \"#utility.yul\":7303:7406   */\n      tag_179\n      jumpi\n        /* \"#utility.yul\":7386:7404   */\n      tag_180\n      tag_82\n      jump\t// in\n    tag_180:\n        /* \"#utility.yul\":7303:7406   */\n    tag_179:\n        /* \"#utility.yul\":7433:7434   */\n      0x01\n        /* \"#utility.yul\":7426:7431   */\n      dup3\n        /* \"#utility.yul\":7422:7435   */\n      add\n        /* \"#utility.yul\":7415:7435   */\n      swap1\n      pop\n        /* \"#utility.yul\":7208:7441   */\n      swap2\n      swap1\n      pop\n      jump\t// out\n\n    auxdata: 0xa26469706673582212201713439b022812541a035e264c5ee6fbbbf57b33aefb827b6c5515a11ae983e964736f6c63430008190033\n}\n",
				"bytecode": {
					"linkReferences": {},
					"object": "6080604052348015600e575f80fd5b506108178061001c5f395ff3fe608060405234801561000f575f80fd5b5060043610610034575f3560e01c806394e619ab14610038578063a3908e1b14610068575b5f80fd5b610052600480360381019061004d9190610497565b610098565b60405161005f91906104f6565b60405180910390f35b610082600480360381019061007d9190610539565b6100a7565b60405161008f91906104f6565b60405180910390f35b5f808290508051915050919050565b5f60605f6100b48461012f565b91506100bf82610098565b90505f5b818111610124575f81836100d79190610591565b600a6100e391906106f3565b866100ee919061076a565b908060018154018082558091505060019003905f5260205f20015f9091909190915055808061011c9061079a565b9150506100c3565b508092505050919050565b60605f600161013d846101f9565b0190505f8167ffffffffffffffff81111561015b5761015a610373565b5b6040519080825280601f01601f19166020018201604052801561018d5781602001600182028036833780820191505090505b5090505f82602001820190505b6001156101ee578080600190039150507f3031323334353637383961626364656600000000000000000000000000000000600a86061a8153600a85816101e3576101e261073d565b5b0494505f850361019a575b819350505050919050565b5f805f90507a184f03e93ff9f4daa797ed6e38ed64bf6a1f0100000000000000008310610255577a184f03e93ff9f4daa797ed6e38ed64bf6a1f010000000000000000838161024b5761024a61073d565b5b0492506040810190505b6d04ee2d6d415b85acef81000000008310610292576d04ee2d6d415b85acef810000000083816102885761028761073d565b5b0492506020810190505b662386f26fc1000083106102c157662386f26fc1000083816102b7576102b661073d565b5b0492506010810190505b6305f5e10083106102ea576305f5e10083816102e0576102df61073d565b5b0492506008810190505b612710831061030f5761271083816103055761030461073d565b5b0492506004810190505b6064831061033257606483816103285761032761073d565b5b0492506002810190505b600a8310610341576001810190505b80915050919050565b5f604051905090565b5f80fd5b5f80fd5b5f80fd5b5f80fd5b5f601f19601f8301169050919050565b7f4e487b71000000000000000000000000000000000000000000000000000000005f52604160045260245ffd5b6103a982610363565b810181811067ffffffffffffffff821117156103c8576103c7610373565b5b80604052505050565b5f6103da61034a565b90506103e682826103a0565b919050565b5f67ffffffffffffffff82111561040557610404610373565b5b61040e82610363565b9050602081019050919050565b828183375f83830152505050565b5f61043b610436846103eb565b6103d1565b9050828152602081018484840111156104575761045661035f565b5b61046284828561041b565b509392505050565b5f82601f83011261047e5761047d61035b565b5b813561048e848260208601610429565b91505092915050565b5f602082840312156104ac576104ab610353565b5b5f82013567ffffffffffffffff8111156104c9576104c8610357565b5b6104d58482850161046a565b91505092915050565b5f819050919050565b6104f0816104de565b82525050565b5f6020820190506105095f8301846104e7565b92915050565b610518816104de565b8114610522575f80fd5b50565b5f813590506105338161050f565b92915050565b5f6020828403121561054e5761054d610353565b5b5f61055b84828501610525565b91505092915050565b7f4e487b71000000000000000000000000000000000000000000000000000000005f52601160045260245ffd5b5f61059b826104de565b91506105a6836104de565b92508282039050818111156105be576105bd610564565b5b92915050565b5f8160011c9050919050565b5f808291508390505b6001851115610619578086048111156105f5576105f4610564565b5b60018516156106045780820291505b8081029050610612856105c4565b94506105d9565b94509492505050565b5f8261063157600190506106ec565b8161063e575f90506106ec565b8160018114610654576002811461065e5761068d565b60019150506106ec565b60ff8411156106705761066f610564565b5b8360020a91508482111561068757610686610564565b5b506106ec565b5060208310610133831016604e8410600b84101617156106c25782820a9050838111156106bd576106bc610564565b5b6106ec565b6106cf84848460016105d0565b925090508184048111156106e6576106e5610564565b5b81810290505b9392505050565b5f6106fd826104de565b9150610708836104de565b92506107357fffffffffffffffffffffffffffffffffffffffffffffffffffffffffffffffff8484610622565b905092915050565b7f4e487b71000000000000000000000000000000000000000000000000000000005f52601260045260245ffd5b5f610774826104de565b915061077f836104de565b92508261078f5761078e61073d565b5b828204905092915050565b5f6107a4826104de565b91507fffffffffffffffffffffffffffffffffffffffffffffffffffffffffffffffff82036107d6576107d5610564565b5b60018201905091905056fea26469706673582212201713439b022812541a035e264c5ee6fbbbf57b33aefb827b6c5515a11ae983e964736f6c63430008190033",
					"opcodes": "PUSH1 0x80 PUSH1 0x40 MSTORE CALLVALUE DUP1 ISZERO PUSH1 0xE JUMPI PUSH0 DUP1 REVERT JUMPDEST POP PUSH2 0x817 DUP1 PUSH2 0x1C PUSH0 CODECOPY PUSH0 RETURN INVALID PUSH1 0x80 PUSH1 0x40 MSTORE CALLVALUE DUP1 ISZERO PUSH2 0xF JUMPI PUSH0 DUP1 REVERT JUMPDEST POP PUSH1 0x4 CALLDATASIZE LT PUSH2 0x34 JUMPI PUSH0 CALLDATALOAD PUSH1 0xE0 SHR DUP1 PUSH4 0x94E619AB EQ PUSH2 0x38 JUMPI DUP1 PUSH4 0xA3908E1B EQ PUSH2 0x68 JUMPI JUMPDEST PUSH0 DUP1 REVERT JUMPDEST PUSH2 0x52 PUSH1 0x4 DUP1 CALLDATASIZE SUB DUP2 ADD SWAP1 PUSH2 0x4D SWAP2 SWAP1 PUSH2 0x497 JUMP JUMPDEST PUSH2 0x98 JUMP JUMPDEST PUSH1 0x40 MLOAD PUSH2 0x5F SWAP2 SWAP1 PUSH2 0x4F6 JUMP JUMPDEST PUSH1 0x40 MLOAD DUP1 SWAP2 SUB SWAP1 RETURN JUMPDEST PUSH2 0x82 PUSH1 0x4 DUP1 CALLDATASIZE SUB DUP2 ADD SWAP1 PUSH2 0x7D SWAP2 SWAP1 PUSH2 0x539 JUMP JUMPDEST PUSH2 0xA7 JUMP JUMPDEST PUSH1 0x40 MLOAD PUSH2 0x8F SWAP2 SWAP1 PUSH2 0x4F6 JUMP JUMPDEST PUSH1 0x40 MLOAD DUP1 SWAP2 SUB SWAP1 RETURN JUMPDEST PUSH0 DUP1 DUP3 SWAP1 POP DUP1 MLOAD SWAP2 POP POP SWAP2 SWAP1 POP JUMP JUMPDEST PUSH0 PUSH1 0x60 PUSH0 PUSH2 0xB4 DUP5 PUSH2 0x12F JUMP JUMPDEST SWAP2 POP PUSH2 0xBF DUP3 PUSH2 0x98 JUMP JUMPDEST SWAP1 POP PUSH0 JUMPDEST DUP2 DUP2 GT PUSH2 0x124 JUMPI PUSH0 DUP2 DUP4 PUSH2 0xD7 SWAP2 SWAP1 PUSH2 0x591 JUMP JUMPDEST PUSH1 0xA PUSH2 0xE3 SWAP2 SWAP1 PUSH2 0x6F3 JUMP JUMPDEST DUP7 PUSH2 0xEE SWAP2 SWAP1 PUSH2 0x76A JUMP JUMPDEST SWAP1 DUP1 PUSH1 0x1 DUP2 SLOAD ADD DUP1 DUP3 SSTORE DUP1 SWAP2 POP POP PUSH1 0x1 SWAP1 SUB SWAP1 PUSH0 MSTORE PUSH1 0x20 PUSH0 KECCAK256 ADD PUSH0 SWAP1 SWAP2 SWAP1 SWAP2 SWAP1 SWAP2 POP SSTORE DUP1 DUP1 PUSH2 0x11C SWAP1 PUSH2 0x79A JUMP JUMPDEST SWAP2 POP POP PUSH2 0xC3 JUMP JUMPDEST POP DUP1 SWAP3 POP POP POP SWAP2 SWAP1 POP JUMP JUMPDEST PUSH1 0x60 PUSH0 PUSH1 0x1 PUSH2 0x13D DUP5 PUSH2 0x1F9 JUMP JUMPDEST ADD SWAP1 POP PUSH0 DUP2 PUSH8 0xFFFFFFFFFFFFFFFF DUP2 GT ISZERO PUSH2 0x15B JUMPI PUSH2 0x15A PUSH2 0x373 JUMP JUMPDEST JUMPDEST PUSH1 0x40 MLOAD SWAP1 DUP1 DUP3 MSTORE DUP1 PUSH1 0x1F ADD PUSH1 0x1F NOT AND PUSH1 0x20 ADD DUP3 ADD PUSH1 0x40 MSTORE DUP1 ISZERO PUSH2 0x18D JUMPI DUP2 PUSH1 0x20 ADD PUSH1 0x1 DUP3 MUL DUP1 CALLDATASIZE DUP4 CALLDATACOPY DUP1 DUP3 ADD SWAP2 POP POP SWAP1 POP JUMPDEST POP SWAP1 POP PUSH0 DUP3 PUSH1 0x20 ADD DUP3 ADD SWAP1 POP JUMPDEST PUSH1 0x1 ISZERO PUSH2 0x1EE JUMPI DUP1 DUP1 PUSH1 0x1 SWAP1 SUB SWAP2 POP POP PUSH32 0x3031323334353637383961626364656600000000000000000000000000000000 PUSH1 0xA DUP7 MOD BYTE DUP2 MSTORE8 PUSH1 0xA DUP6 DUP2 PUSH2 0x1E3 JUMPI PUSH2 0x1E2 PUSH2 0x73D JUMP JUMPDEST JUMPDEST DIV SWAP5 POP PUSH0 DUP6 SUB PUSH2 0x19A JUMPI JUMPDEST DUP2 SWAP4 POP POP POP POP SWAP2 SWAP1 POP JUMP JUMPDEST PUSH0 DUP1 PUSH0 SWAP1 POP PUSH27 0x184F03E93FF9F4DAA797ED6E38ED64BF6A1F010000000000000000 DUP4 LT PUSH2 0x255 JUMPI PUSH27 0x184F03E93FF9F4DAA797ED6E38ED64BF6A1F010000000000000000 DUP4 DUP2 PUSH2 0x24B JUMPI PUSH2 0x24A PUSH2 0x73D JUMP JUMPDEST JUMPDEST DIV SWAP3 POP PUSH1 0x40 DUP2 ADD SWAP1 POP JUMPDEST PUSH14 0x4EE2D6D415B85ACEF8100000000 DUP4 LT PUSH2 0x292 JUMPI PUSH14 0x4EE2D6D415B85ACEF8100000000 DUP4 DUP2 PUSH2 0x288 JUMPI PUSH2 0x287 PUSH2 0x73D JUMP JUMPDEST JUMPDEST DIV SWAP3 POP PUSH1 0x20 DUP2 ADD SWAP1 POP JUMPDEST PUSH7 0x2386F26FC10000 DUP4 LT PUSH2 0x2C1 JUMPI PUSH7 0x2386F26FC10000 DUP4 DUP2 PUSH2 0x2B7 JUMPI PUSH2 0x2B6 PUSH2 0x73D JUMP JUMPDEST JUMPDEST DIV SWAP3 POP PUSH1 0x10 DUP2 ADD SWAP1 POP JUMPDEST PUSH4 0x5F5E100 DUP4 LT PUSH2 0x2EA JUMPI PUSH4 0x5F5E100 DUP4 DUP2 PUSH2 0x2E0 JUMPI PUSH2 0x2DF PUSH2 0x73D JUMP JUMPDEST JUMPDEST DIV SWAP3 POP PUSH1 0x8 DUP2 ADD SWAP1 POP JUMPDEST PUSH2 0x2710 DUP4 LT PUSH2 0x30F JUMPI PUSH2 0x2710 DUP4 DUP2 PUSH2 0x305 JUMPI PUSH2 0x304 PUSH2 0x73D JUMP JUMPDEST JUMPDEST DIV SWAP3 POP PUSH1 0x4 DUP2 ADD SWAP1 POP JUMPDEST PUSH1 0x64 DUP4 LT PUSH2 0x332 JUMPI PUSH1 0x64 DUP4 DUP2 PUSH2 0x328 JUMPI PUSH2 0x327 PUSH2 0x73D JUMP JUMPDEST JUMPDEST DIV SWAP3 POP PUSH1 0x2 DUP2 ADD SWAP1 POP JUMPDEST PUSH1 0xA DUP4 LT PUSH2 0x341 JUMPI PUSH1 0x1 DUP2 ADD SWAP1 POP JUMPDEST DUP1 SWAP2 POP POP SWAP2 SWAP1 POP JUMP JUMPDEST PUSH0 PUSH1 0x40 MLOAD SWAP1 POP SWAP1 JUMP JUMPDEST PUSH0 DUP1 REVERT JUMPDEST PUSH0 DUP1 REVERT JUMPDEST PUSH0 DUP1 REVERT JUMPDEST PUSH0 DUP1 REVERT JUMPDEST PUSH0 PUSH1 0x1F NOT PUSH1 0x1F DUP4 ADD AND SWAP1 POP SWAP2 SWAP1 POP JUMP JUMPDEST PUSH32 0x4E487B7100000000000000000000000000000000000000000000000000000000 PUSH0 MSTORE PUSH1 0x41 PUSH1 0x4 MSTORE PUSH1 0x24 PUSH0 REVERT JUMPDEST PUSH2 0x3A9 DUP3 PUSH2 0x363 JUMP JUMPDEST DUP2 ADD DUP2 DUP2 LT PUSH8 0xFFFFFFFFFFFFFFFF DUP3 GT OR ISZERO PUSH2 0x3C8 JUMPI PUSH2 0x3C7 PUSH2 0x373 JUMP JUMPDEST JUMPDEST DUP1 PUSH1 0x40 MSTORE POP POP POP JUMP JUMPDEST PUSH0 PUSH2 0x3DA PUSH2 0x34A JUMP JUMPDEST SWAP1 POP PUSH2 0x3E6 DUP3 DUP3 PUSH2 0x3A0 JUMP JUMPDEST SWAP2 SWAP1 POP JUMP JUMPDEST PUSH0 PUSH8 0xFFFFFFFFFFFFFFFF DUP3 GT ISZERO PUSH2 0x405 JUMPI PUSH2 0x404 PUSH2 0x373 JUMP JUMPDEST JUMPDEST PUSH2 0x40E DUP3 PUSH2 0x363 JUMP JUMPDEST SWAP1 POP PUSH1 0x20 DUP2 ADD SWAP1 POP SWAP2 SWAP1 POP JUMP JUMPDEST DUP3 DUP2 DUP4 CALLDATACOPY PUSH0 DUP4 DUP4 ADD MSTORE POP POP POP JUMP JUMPDEST PUSH0 PUSH2 0x43B PUSH2 0x436 DUP5 PUSH2 0x3EB JUMP JUMPDEST PUSH2 0x3D1 JUMP JUMPDEST SWAP1 POP DUP3 DUP2 MSTORE PUSH1 0x20 DUP2 ADD DUP5 DUP5 DUP5 ADD GT ISZERO PUSH2 0x457 JUMPI PUSH2 0x456 PUSH2 0x35F JUMP JUMPDEST JUMPDEST PUSH2 0x462 DUP5 DUP3 DUP6 PUSH2 0x41B JUMP JUMPDEST POP SWAP4 SWAP3 POP POP POP JUMP JUMPDEST PUSH0 DUP3 PUSH1 0x1F DUP4 ADD SLT PUSH2 0x47E JUMPI PUSH2 0x47D PUSH2 0x35B JUMP JUMPDEST JUMPDEST DUP2 CALLDATALOAD PUSH2 0x48E DUP5 DUP3 PUSH1 0x20 DUP7 ADD PUSH2 0x429 JUMP JUMPDEST SWAP2 POP POP SWAP3 SWAP2 POP POP JUMP JUMPDEST PUSH0 PUSH1 0x20 DUP3 DUP5 SUB SLT ISZERO PUSH2 0x4AC JUMPI PUSH2 0x4AB PUSH2 0x353 JUMP JUMPDEST JUMPDEST PUSH0 DUP3 ADD CALLDATALOAD PUSH8 0xFFFFFFFFFFFFFFFF DUP2 GT ISZERO PUSH2 0x4C9 JUMPI PUSH2 0x4C8 PUSH2 0x357 JUMP JUMPDEST JUMPDEST PUSH2 0x4D5 DUP5 DUP3 DUP6 ADD PUSH2 0x46A JUMP JUMPDEST SWAP2 POP POP SWAP3 SWAP2 POP POP JUMP JUMPDEST PUSH0 DUP2 SWAP1 POP SWAP2 SWAP1 POP JUMP JUMPDEST PUSH2 0x4F0 DUP2 PUSH2 0x4DE JUMP JUMPDEST DUP3 MSTORE POP POP JUMP JUMPDEST PUSH0 PUSH1 0x20 DUP3 ADD SWAP1 POP PUSH2 0x509 PUSH0 DUP4 ADD DUP5 PUSH2 0x4E7 JUMP JUMPDEST SWAP3 SWAP2 POP POP JUMP JUMPDEST PUSH2 0x518 DUP2 PUSH2 0x4DE JUMP JUMPDEST DUP2 EQ PUSH2 0x522 JUMPI PUSH0 DUP1 REVERT JUMPDEST POP JUMP JUMPDEST PUSH0 DUP2 CALLDATALOAD SWAP1 POP PUSH2 0x533 DUP2 PUSH2 0x50F JUMP JUMPDEST SWAP3 SWAP2 POP POP JUMP JUMPDEST PUSH0 PUSH1 0x20 DUP3 DUP5 SUB SLT ISZERO PUSH2 0x54E JUMPI PUSH2 0x54D PUSH2 0x353 JUMP JUMPDEST JUMPDEST PUSH0 PUSH2 0x55B DUP5 DUP3 DUP6 ADD PUSH2 0x525 JUMP JUMPDEST SWAP2 POP POP SWAP3 SWAP2 POP POP JUMP JUMPDEST PUSH32 0x4E487B7100000000000000000000000000000000000000000000000000000000 PUSH0 MSTORE PUSH1 0x11 PUSH1 0x4 MSTORE PUSH1 0x24 PUSH0 REVERT JUMPDEST PUSH0 PUSH2 0x59B DUP3 PUSH2 0x4DE JUMP JUMPDEST SWAP2 POP PUSH2 0x5A6 DUP4 PUSH2 0x4DE JUMP JUMPDEST SWAP3 POP DUP3 DUP3 SUB SWAP1 POP DUP2 DUP2 GT ISZERO PUSH2 0x5BE JUMPI PUSH2 0x5BD PUSH2 0x564 JUMP JUMPDEST JUMPDEST SWAP3 SWAP2 POP POP JUMP JUMPDEST PUSH0 DUP2 PUSH1 0x1 SHR SWAP1 POP SWAP2 SWAP1 POP JUMP JUMPDEST PUSH0 DUP1 DUP3 SWAP2 POP DUP4 SWAP1 POP JUMPDEST PUSH1 0x1 DUP6 GT ISZERO PUSH2 0x619 JUMPI DUP1 DUP7 DIV DUP2 GT ISZERO PUSH2 0x5F5 JUMPI PUSH2 0x5F4 PUSH2 0x564 JUMP JUMPDEST JUMPDEST PUSH1 0x1 DUP6 AND ISZERO PUSH2 0x604 JUMPI DUP1 DUP3 MUL SWAP2 POP JUMPDEST DUP1 DUP2 MUL SWAP1 POP PUSH2 0x612 DUP6 PUSH2 0x5C4 JUMP JUMPDEST SWAP5 POP PUSH2 0x5D9 JUMP JUMPDEST SWAP5 POP SWAP5 SWAP3 POP POP POP JUMP JUMPDEST PUSH0 DUP3 PUSH2 0x631 JUMPI PUSH1 0x1 SWAP1 POP PUSH2 0x6EC JUMP JUMPDEST DUP2 PUSH2 0x63E JUMPI PUSH0 SWAP1 POP PUSH2 0x6EC JUMP JUMPDEST DUP2 PUSH1 0x1 DUP2 EQ PUSH2 0x654 JUMPI PUSH1 0x2 DUP2 EQ PUSH2 0x65E JUMPI PUSH2 0x68D JUMP JUMPDEST PUSH1 0x1 SWAP2 POP POP PUSH2 0x6EC JUMP JUMPDEST PUSH1 0xFF DUP5 GT ISZERO PUSH2 0x670 JUMPI PUSH2 0x66F PUSH2 0x564 JUMP JUMPDEST JUMPDEST DUP4 PUSH1 0x2 EXP SWAP2 POP DUP5 DUP3 GT ISZERO PUSH2 0x687 JUMPI PUSH2 0x686 PUSH2 0x564 JUMP JUMPDEST JUMPDEST POP PUSH2 0x6EC JUMP JUMPDEST POP PUSH1 0x20 DUP4 LT PUSH2 0x133 DUP4 LT AND PUSH1 0x4E DUP5 LT PUSH1 0xB DUP5 LT AND OR ISZERO PUSH2 0x6C2 JUMPI DUP3 DUP3 EXP SWAP1 POP DUP4 DUP2 GT ISZERO PUSH2 0x6BD JUMPI PUSH2 0x6BC PUSH2 0x564 JUMP JUMPDEST JUMPDEST PUSH2 0x6EC JUMP JUMPDEST PUSH2 0x6CF DUP5 DUP5 DUP5 PUSH1 0x1 PUSH2 0x5D0 JUMP JUMPDEST SWAP3 POP SWAP1 POP DUP2 DUP5 DIV DUP2 GT ISZERO PUSH2 0x6E6 JUMPI PUSH2 0x6E5 PUSH2 0x564 JUMP JUMPDEST JUMPDEST DUP2 DUP2 MUL SWAP1 POP JUMPDEST SWAP4 SWAP3 POP POP POP JUMP JUMPDEST PUSH0 PUSH2 0x6FD DUP3 PUSH2 0x4DE JUMP JUMPDEST SWAP2 POP PUSH2 0x708 DUP4 PUSH2 0x4DE JUMP JUMPDEST SWAP3 POP PUSH2 0x735 PUSH32 0xFFFFFFFFFFFFFFFFFFFFFFFFFFFFFFFFFFFFFFFFFFFFFFFFFFFFFFFFFFFFFFFF DUP5 DUP5 PUSH2 0x622 JUMP JUMPDEST SWAP1 POP SWAP3 SWAP2 POP POP JUMP JUMPDEST PUSH32 0x4E487B7100000000000000000000000000000000000000000000000000000000 PUSH0 MSTORE PUSH1 0x12 PUSH1 0x4 MSTORE PUSH1 0x24 PUSH0 REVERT JUMPDEST PUSH0 PUSH2 0x774 DUP3 PUSH2 0x4DE JUMP JUMPDEST SWAP2 POP PUSH2 0x77F DUP4 PUSH2 0x4DE JUMP JUMPDEST SWAP3 POP DUP3 PUSH2 0x78F JUMPI PUSH2 0x78E PUSH2 0x73D JUMP JUMPDEST JUMPDEST DUP3 DUP3 DIV SWAP1 POP SWAP3 SWAP2 POP POP JUMP JUMPDEST PUSH0 PUSH2 0x7A4 DUP3 PUSH2 0x4DE JUMP JUMPDEST SWAP2 POP PUSH32 0xFFFFFFFFFFFFFFFFFFFFFFFFFFFFFFFFFFFFFFFFFFFFFFFFFFFFFFFFFFFFFFFF DUP3 SUB PUSH2 0x7D6 JUMPI PUSH2 0x7D5 PUSH2 0x564 JUMP JUMPDEST JUMPDEST PUSH1 0x1 DUP3 ADD SWAP1 POP SWAP2 SWAP1 POP JUMP INVALID LOG2 PUSH5 0x6970667358 0x22 SLT KECCAK256 OR SGT NUMBER SWAP12 MUL 0x28 SLT SLOAD BYTE SUB MCOPY 0x26 0x4C MCOPY 0xE6 0xFB 0xBB CREATE2 PUSH28 0x33AEFB827B6C5515A11AE983E964736F6C6343000819003300000000 "
				},
				"gasEstimates": {
					"creation": {
						"codeDepositCost": "414200",
						"executionCost": "447",
						"totalCost": "414647"
					},
					"external": {
						"convert(uint256)": "infinite",
						"getNum(string)": "infinite"
					}
				},
				"methodIdentifiers": {
					"convert(uint256)": "a3908e1b",
					"getNum(string)": "94e619ab"
				}
			},
			"storageLayout": {
				"storage": [
					{
						"astId": 1419,
						"contract": "test6.sol:a",
						"label": "resultArray",
						"offset": 0,
						"slot": "0",
						"type": "t_array(t_uint256)dyn_storage"
					}
				],
				"types": {
					"t_array(t_uint256)dyn_storage": {
						"base": "t_uint256",
						"encoding": "dynamic_array",
						"label": "uint256[]",
						"numberOfBytes": "32"
					},
					"t_uint256": {
						"encoding": "inplace",
						"label": "uint256",
						"numberOfBytes": "32"
					}
				}
			},
			"userdoc": {
				"kind": "user",
				"methods": {},
				"version": 1
			}
		}
	}
}