{
	"solidity_test/test3.sol": {
		"TEST3Answer": {
			"abi": [
				{
					"anonymous": false,
					"inputs": [
						{
							"indexed": false,
							"internalType": "string",
							"name": "message",
							"type": "string"
						}
					],
					"name": "ChangePw",
					"type": "event"
				},
				{
					"inputs": [
						{
							"internalType": "string",
							"name": "_id",
							"type": "string"
						},
						{
							"internalType": "string",
							"name": "_pw",
							"type": "string"
						},
						{
							"internalType": "bool",
							"name": "_isPassed",
							"type": "bool"
						}
					],
					"name": "deleteAccount",
					"outputs": [],
					"stateMutability": "nonpayable",
					"type": "function"
				},
				{
					"inputs": [
						{
							"internalType": "string",
							"name": "_id",
							"type": "string"
						},
						{
							"internalType": "string",
							"name": "_pw",
							"type": "string"
						}
					],
					"name": "getHash",
					"outputs": [
						{
							"internalType": "bytes32",
							"name": "",
							"type": "bytes32"
						}
					],
					"stateMutability": "pure",
					"type": "function"
				},
				{
					"inputs": [
						{
							"internalType": "string",
							"name": "_id",
							"type": "string"
						},
						{
							"internalType": "string",
							"name": "_pw",
							"type": "string"
						},
						{
							"internalType": "bool",
							"name": "_isPassed",
							"type": "bool"
						}
					],
					"name": "signIn",
					"outputs": [
						{
							"internalType": "bool",
							"name": "",
							"type": "bool"
						}
					],
					"stateMutability": "nonpayable",
					"type": "function"
				},
				{
					"inputs": [
						{
							"internalType": "string",
							"name": "_id",
							"type": "string"
						},
						{
							"internalType": "string",
							"name": "_pw",
							"type": "string"
						}
					],
					"name": "signUp",
					"outputs": [],
					"stateMutability": "nonpayable",
					"type": "function"
				}
			],
			"devdoc": {
				"kind": "dev",
				"methods": {},
				"version": 1
			},
			"evm": {
				"assembly": "    /* \"solidity_test/test3.sol\":3101:6127  contract TEST3Answer {... */\n  mstore(0x40, 0x80)\n  callvalue\n  dup1\n  iszero\n  tag_1\n  jumpi\n  0x00\n  dup1\n  revert\ntag_1:\n  pop\n  dataSize(sub_0)\n  dup1\n  dataOffset(sub_0)\n  0x00\n  codecopy\n  0x00\n  return\nstop\n\nsub_0: assembly {\n        /* \"solidity_test/test3.sol\":3101:6127  contract TEST3Answer {... */\n      mstore(0x40, 0x80)\n      callvalue\n      dup1\n      iszero\n      tag_1\n      jumpi\n      0x00\n      dup1\n      revert\n    tag_1:\n      pop\n      jumpi(tag_2, lt(calldatasize, 0x04))\n      shr(0xe0, calldataload(0x00))\n      dup1\n      0x1185d6c7\n      eq\n      tag_3\n      jumpi\n      dup1\n      0x16de5a69\n      eq\n      tag_4\n      jumpi\n      dup1\n      0x27cf399a\n      eq\n      tag_5\n      jumpi\n      dup1\n      0xa469a332\n      eq\n      tag_6\n      jumpi\n    tag_2:\n      0x00\n      dup1\n      revert\n        /* \"solidity_test/test3.sol\":5794:6019  function deleteAccount(string memory _id, string memory _pw, bool _isPassed) public Check(_id, _pw, _isPassed){... */\n    tag_3:\n      tag_7\n      0x04\n      dup1\n      calldatasize\n      sub\n      dup2\n      add\n      swap1\n      tag_8\n      swap2\n      swap1\n      tag_9\n      jump\t// in\n    tag_8:\n      tag_10\n      jump\t// in\n    tag_7:\n      stop\n        /* \"solidity_test/test3.sol\":5291:5546  function signIn(string memory _id, string memory _pw, bool _isPassed) public Check(_id, _pw, _isPassed) returns(bool) {... */\n    tag_4:\n      tag_11\n      0x04\n      dup1\n      calldatasize\n      sub\n      dup2\n      add\n      swap1\n      tag_12\n      swap2\n      swap1\n      tag_9\n      jump\t// in\n    tag_12:\n      tag_13\n      jump\t// in\n    tag_11:\n      mload(0x40)\n      tag_14\n      swap2\n      swap1\n      tag_15\n      jump\t// in\n    tag_14:\n      mload(0x40)\n      dup1\n      swap2\n      sub\n      swap1\n      return\n        /* \"solidity_test/test3.sol\":4682:4829  function getHash(string memory _id, string memory _pw) public pure returns(bytes32) {... */\n    tag_5:\n      tag_16\n      0x04\n      dup1\n      calldatasize\n      sub\n      dup2\n      add\n      swap1\n      tag_17\n      swap2\n      swap1\n      tag_18\n      jump\t// in\n    tag_17:\n      tag_19\n      jump\t// in\n    tag_16:\n      mload(0x40)\n      tag_20\n      swap2\n      swap1\n      tag_21\n      jump\t// in\n    tag_20:\n      mload(0x40)\n      dup1\n      swap2\n      sub\n      swap1\n      return\n        /* \"solidity_test/test3.sol\":5595:5786  function signUp(string memory _id, string memory _pw) public {... */\n    tag_6:\n      tag_22\n      0x04\n      dup1\n      calldatasize\n      sub\n      dup2\n      add\n      swap1\n      tag_23\n      swap2\n      swap1\n      tag_18\n      jump\t// in\n    tag_23:\n      tag_24\n      jump\t// in\n    tag_22:\n      stop\n        /* \"solidity_test/test3.sol\":5794:6019  function deleteAccount(string memory _id, string memory _pw, bool _isPassed) public Check(_id, _pw, _isPassed){... */\n    tag_10:\n        /* \"solidity_test/test3.sol\":5884:5887  _id */\n      dup3\n        /* \"solidity_test/test3.sol\":5889:5892  _pw */\n      dup3\n        /* \"solidity_test/test3.sol\":5894:5903  _isPassed */\n      dup3\n        /* \"solidity_test/test3.sol\":4948:4949  0 */\n      0x00\n        /* \"solidity_test/test3.sol\":4940:4950  bytes32(0) */\n      dup1\n      shl\n        /* \"solidity_test/test3.sol\":4929:4933  IDPW */\n      0x00\n        /* \"solidity_test/test3.sol\":4934:4937  _id */\n      dup5\n        /* \"solidity_test/test3.sol\":4929:4938  IDPW[_id] */\n      mload(0x40)\n      tag_26\n      swap2\n      swap1\n      tag_27\n      jump\t// in\n    tag_26:\n      swap1\n      dup2\n      mstore\n      0x20\n      add\n      mload(0x40)\n      dup1\n      swap2\n      sub\n      swap1\n      keccak256\n      sload\n        /* \"solidity_test/test3.sol\":4929:4950  IDPW[_id]!=bytes32(0) */\n      sub\n        /* \"solidity_test/test3.sol\":4921:4968  require(IDPW[_id]!=bytes32(0), \"Sign up first\") */\n      tag_28\n      jumpi\n      mload(0x40)\n      0x08c379a000000000000000000000000000000000000000000000000000000000\n      dup2\n      mstore\n      0x04\n      add\n      tag_29\n      swap1\n      tag_30\n      jump\t// in\n    tag_29:\n      mload(0x40)\n      dup1\n      swap2\n      sub\n      swap1\n      revert\n    tag_28:\n        /* \"solidity_test/test3.sol\":5003:5007  IDPW */\n      0x00\n        /* \"solidity_test/test3.sol\":5008:5011  _id */\n      dup4\n        /* \"solidity_test/test3.sol\":5003:5012  IDPW[_id] */\n      mload(0x40)\n      tag_31\n      swap2\n      swap1\n      tag_27\n      jump\t// in\n    tag_31:\n      swap1\n      dup2\n      mstore\n      0x20\n      add\n      mload(0x40)\n      dup1\n      swap2\n      sub\n      swap1\n      keccak256\n      sload\n        /* \"solidity_test/test3.sol\":4982:4999  getHash(_id, _pw) */\n      tag_32\n        /* \"solidity_test/test3.sol\":4990:4993  _id */\n      dup5\n        /* \"solidity_test/test3.sol\":4995:4998  _pw */\n      dup5\n        /* \"solidity_test/test3.sol\":4982:4989  getHash */\n      tag_19\n        /* \"solidity_test/test3.sol\":4982:4999  getHash(_id, _pw) */\n      jump\t// in\n    tag_32:\n        /* \"solidity_test/test3.sol\":4982:5012  getHash(_id, _pw) == IDPW[_id] */\n      sub\n        /* \"solidity_test/test3.sol\":4979:5260  if(getHash(_id, _pw) == IDPW[_id]) {... */\n      tag_33\n      jumpi\n        /* \"solidity_test/test3.sol\":5043:5044  0 */\n      0x00\n        /* \"solidity_test/test3.sol\":5029:5035  errCnt */\n      0x01\n        /* \"solidity_test/test3.sol\":5036:5039  _id */\n      dup5\n        /* \"solidity_test/test3.sol\":5029:5040  errCnt[_id] */\n      mload(0x40)\n      tag_34\n      swap2\n      swap1\n      tag_27\n      jump\t// in\n    tag_34:\n      swap1\n      dup2\n      mstore\n      0x20\n      add\n      mload(0x40)\n      dup1\n      swap2\n      sub\n      swap1\n      keccak256\n        /* \"solidity_test/test3.sol\":5029:5044  errCnt[_id] = 0 */\n      dup2\n      swap1\n      sstore\n      pop\n        /* \"solidity_test/test3.sol\":5071:5075  true */\n      0x01\n        /* \"solidity_test/test3.sol\":5059:5075  _isPassed = true */\n      swap1\n      pop\n        /* \"solidity_test/test3.sol\":4979:5260  if(getHash(_id, _pw) == IDPW[_id]) {... */\n      jump(tag_35)\n    tag_33:\n        /* \"solidity_test/test3.sol\":5108:5114  errCnt */\n      0x01\n        /* \"solidity_test/test3.sol\":5115:5118  _id */\n      dup4\n        /* \"solidity_test/test3.sol\":5108:5119  errCnt[_id] */\n      mload(0x40)\n      tag_36\n      swap2\n      swap1\n      tag_27\n      jump\t// in\n    tag_36:\n      swap1\n      dup2\n      mstore\n      0x20\n      add\n      mload(0x40)\n      dup1\n      swap2\n      sub\n      swap1\n      keccak256\n      0x00\n        /* \"solidity_test/test3.sol\":5108:5121  errCnt[_id]++ */\n      dup2\n      sload\n      dup1\n      swap3\n      swap2\n      swap1\n      tag_37\n      swap1\n      tag_38\n      jump\t// in\n    tag_37:\n      swap2\n      swap1\n      pop\n      sstore\n      pop\n        /* \"solidity_test/test3.sol\":5153:5154  5 */\n      0x05\n        /* \"solidity_test/test3.sol\":5139:5145  errCnt */\n      0x01\n        /* \"solidity_test/test3.sol\":5146:5149  _id */\n      dup5\n        /* \"solidity_test/test3.sol\":5139:5150  errCnt[_id] */\n      mload(0x40)\n      tag_39\n      swap2\n      swap1\n      tag_27\n      jump\t// in\n    tag_39:\n      swap1\n      dup2\n      mstore\n      0x20\n      add\n      mload(0x40)\n      dup1\n      swap2\n      sub\n      swap1\n      keccak256\n      sload\n        /* \"solidity_test/test3.sol\":5139:5154  errCnt[_id] ==5 */\n      sub\n        /* \"solidity_test/test3.sol\":5136:5217  if(errCnt[_id] ==5) {... */\n      tag_40\n      jumpi\n        /* \"solidity_test/test3.sol\":5180:5201  ChangePw(\"Change Pw\") */\n      0xb2954b4a017ec5e9f8e4d84d08834286bc1c5f41d7bf1b65e29336947cf78d49\n      mload(0x40)\n      tag_41\n      swap1\n      tag_42\n      jump\t// in\n    tag_41:\n      mload(0x40)\n      dup1\n      swap2\n      sub\n      swap1\n      log1\n        /* \"solidity_test/test3.sol\":5136:5217  if(errCnt[_id] ==5) {... */\n    tag_40:\n        /* \"solidity_test/test3.sol\":5243:5248  false */\n      0x00\n        /* \"solidity_test/test3.sol\":5231:5248  _isPassed = false */\n      swap1\n      pop\n        /* \"solidity_test/test3.sol\":4979:5260  if(getHash(_id, _pw) == IDPW[_id]) {... */\n    tag_35:\n        /* \"solidity_test/test3.sol\":5934:5938  true */\n      0x01\n        /* \"solidity_test/test3.sol\":5923:5938  _isPassed==true */\n      iszero\n      iszero\n        /* \"solidity_test/test3.sol\":5923:5932  _isPassed */\n      dup5\n        /* \"solidity_test/test3.sol\":5923:5938  _isPassed==true */\n      iszero\n      iszero\n      eq\n        /* \"solidity_test/test3.sol\":5915:5955  require(_isPassed==true, \"login failed\") */\n      tag_44\n      jumpi\n      mload(0x40)\n      0x08c379a000000000000000000000000000000000000000000000000000000000\n      dup2\n      mstore\n      0x04\n      add\n      tag_45\n      swap1\n      tag_46\n      jump\t// in\n    tag_45:\n      mload(0x40)\n      dup1\n      swap2\n      sub\n      swap1\n      revert\n    tag_44:\n        /* \"solidity_test/test3.sol\":5973:5977  IDPW */\n      0x00\n        /* \"solidity_test/test3.sol\":5978:5981  _id */\n      dup7\n        /* \"solidity_test/test3.sol\":5973:5982  IDPW[_id] */\n      mload(0x40)\n      tag_47\n      swap2\n      swap1\n      tag_27\n      jump\t// in\n    tag_47:\n      swap1\n      dup2\n      mstore\n      0x20\n      add\n      mload(0x40)\n      dup1\n      swap2\n      sub\n      swap1\n      keccak256\n        /* \"solidity_test/test3.sol\":5966:5982  delete IDPW[_id] */\n      0x00\n      swap1\n      sstore\n        /* \"solidity_test/test3.sol\":6000:6006  errCnt */\n      0x01\n        /* \"solidity_test/test3.sol\":6007:6010  _id */\n      dup7\n        /* \"solidity_test/test3.sol\":6000:6011  errCnt[_id] */\n      mload(0x40)\n      tag_48\n      swap2\n      swap1\n      tag_27\n      jump\t// in\n    tag_48:\n      swap1\n      dup2\n      mstore\n      0x20\n      add\n      mload(0x40)\n      dup1\n      swap2\n      sub\n      swap1\n      keccak256\n        /* \"solidity_test/test3.sol\":5993:6011  delete errCnt[_id] */\n      0x00\n      swap1\n      sstore\n        /* \"solidity_test/test3.sol\":5794:6019  function deleteAccount(string memory _id, string memory _pw, bool _isPassed) public Check(_id, _pw, _isPassed){... */\n      pop\n      pop\n      pop\n      pop\n      pop\n      pop\n      jump\t// out\n        /* \"solidity_test/test3.sol\":5291:5546  function signIn(string memory _id, string memory _pw, bool _isPassed) public Check(_id, _pw, _isPassed) returns(bool) {... */\n    tag_13:\n        /* \"solidity_test/test3.sol\":5403:5407  bool */\n      0x00\n        /* \"solidity_test/test3.sol\":5374:5377  _id */\n      dup4\n        /* \"solidity_test/test3.sol\":5379:5382  _pw */\n      dup4\n        /* \"solidity_test/test3.sol\":5384:5393  _isPassed */\n      dup4\n        /* \"solidity_test/test3.sol\":4948:4949  0 */\n      0x00\n        /* \"solidity_test/test3.sol\":4940:4950  bytes32(0) */\n      dup1\n      shl\n        /* \"solidity_test/test3.sol\":4929:4933  IDPW */\n      0x00\n        /* \"solidity_test/test3.sol\":4934:4937  _id */\n      dup5\n        /* \"solidity_test/test3.sol\":4929:4938  IDPW[_id] */\n      mload(0x40)\n      tag_50\n      swap2\n      swap1\n      tag_27\n      jump\t// in\n    tag_50:\n      swap1\n      dup2\n      mstore\n      0x20\n      add\n      mload(0x40)\n      dup1\n      swap2\n      sub\n      swap1\n      keccak256\n      sload\n        /* \"solidity_test/test3.sol\":4929:4950  IDPW[_id]!=bytes32(0) */\n      sub\n        /* \"solidity_test/test3.sol\":4921:4968  require(IDPW[_id]!=bytes32(0), \"Sign up first\") */\n      tag_51\n      jumpi\n      mload(0x40)\n      0x08c379a000000000000000000000000000000000000000000000000000000000\n      dup2\n      mstore\n      0x04\n      add\n      tag_52\n      swap1\n      tag_30\n      jump\t// in\n    tag_52:\n      mload(0x40)\n      dup1\n      swap2\n      sub\n      swap1\n      revert\n    tag_51:\n        /* \"solidity_test/test3.sol\":5003:5007  IDPW */\n      0x00\n        /* \"solidity_test/test3.sol\":5008:5011  _id */\n      dup4\n        /* \"solidity_test/test3.sol\":5003:5012  IDPW[_id] */\n      mload(0x40)\n      tag_53\n      swap2\n      swap1\n      tag_27\n      jump\t// in\n    tag_53:\n      swap1\n      dup2\n      mstore\n      0x20\n      add\n      mload(0x40)\n      dup1\n      swap2\n      sub\n      swap1\n      keccak256\n      sload\n        /* \"solidity_test/test3.sol\":4982:4999  getHash(_id, _pw) */\n      tag_54\n        /* \"solidity_test/test3.sol\":4990:4993  _id */\n      dup5\n        /* \"solidity_test/test3.sol\":4995:4998  _pw */\n      dup5\n        /* \"solidity_test/test3.sol\":4982:4989  getHash */\n      tag_19\n        /* \"solidity_test/test3.sol\":4982:4999  getHash(_id, _pw) */\n      jump\t// in\n    tag_54:\n        /* \"solidity_test/test3.sol\":4982:5012  getHash(_id, _pw) == IDPW[_id] */\n      sub\n        /* \"solidity_test/test3.sol\":4979:5260  if(getHash(_id, _pw) == IDPW[_id]) {... */\n      tag_55\n      jumpi\n        /* \"solidity_test/test3.sol\":5043:5044  0 */\n      0x00\n        /* \"solidity_test/test3.sol\":5029:5035  errCnt */\n      0x01\n        /* \"solidity_test/test3.sol\":5036:5039  _id */\n      dup5\n        /* \"solidity_test/test3.sol\":5029:5040  errCnt[_id] */\n      mload(0x40)\n      tag_56\n      swap2\n      swap1\n      tag_27\n      jump\t// in\n    tag_56:\n      swap1\n      dup2\n      mstore\n      0x20\n      add\n      mload(0x40)\n      dup1\n      swap2\n      sub\n      swap1\n      keccak256\n        /* \"solidity_test/test3.sol\":5029:5044  errCnt[_id] = 0 */\n      dup2\n      swap1\n      sstore\n      pop\n        /* \"solidity_test/test3.sol\":5071:5075  true */\n      0x01\n        /* \"solidity_test/test3.sol\":5059:5075  _isPassed = true */\n      swap1\n      pop\n        /* \"solidity_test/test3.sol\":4979:5260  if(getHash(_id, _pw) == IDPW[_id]) {... */\n      jump(tag_57)\n    tag_55:\n        /* \"solidity_test/test3.sol\":5108:5114  errCnt */\n      0x01\n        /* \"solidity_test/test3.sol\":5115:5118  _id */\n      dup4\n        /* \"solidity_test/test3.sol\":5108:5119  errCnt[_id] */\n      mload(0x40)\n      tag_58\n      swap2\n      swap1\n      tag_27\n      jump\t// in\n    tag_58:\n      swap1\n      dup2\n      mstore\n      0x20\n      add\n      mload(0x40)\n      dup1\n      swap2\n      sub\n      swap1\n      keccak256\n      0x00\n        /* \"solidity_test/test3.sol\":5108:5121  errCnt[_id]++ */\n      dup2\n      sload\n      dup1\n      swap3\n      swap2\n      swap1\n      tag_59\n      swap1\n      tag_38\n      jump\t// in\n    tag_59:\n      swap2\n      swap1\n      pop\n      sstore\n      pop\n        /* \"solidity_test/test3.sol\":5153:5154  5 */\n      0x05\n        /* \"solidity_test/test3.sol\":5139:5145  errCnt */\n      0x01\n        /* \"solidity_test/test3.sol\":5146:5149  _id */\n      dup5\n        /* \"solidity_test/test3.sol\":5139:5150  errCnt[_id] */\n      mload(0x40)\n      tag_60\n      swap2\n      swap1\n      tag_27\n      jump\t// in\n    tag_60:\n      swap1\n      dup2\n      mstore\n      0x20\n      add\n      mload(0x40)\n      dup1\n      swap2\n      sub\n      swap1\n      keccak256\n      sload\n        /* \"solidity_test/test3.sol\":5139:5154  errCnt[_id] ==5 */\n      sub\n        /* \"solidity_test/test3.sol\":5136:5217  if(errCnt[_id] ==5) {... */\n      tag_61\n      jumpi\n        /* \"solidity_test/test3.sol\":5180:5201  ChangePw(\"Change Pw\") */\n      0xb2954b4a017ec5e9f8e4d84d08834286bc1c5f41d7bf1b65e29336947cf78d49\n      mload(0x40)\n      tag_62\n      swap1\n      tag_42\n      jump\t// in\n    tag_62:\n      mload(0x40)\n      dup1\n      swap2\n      sub\n      swap1\n      log1\n        /* \"solidity_test/test3.sol\":5136:5217  if(errCnt[_id] ==5) {... */\n    tag_61:\n        /* \"solidity_test/test3.sol\":5243:5248  false */\n      0x00\n        /* \"solidity_test/test3.sol\":5231:5248  _isPassed = false */\n      swap1\n      pop\n        /* \"solidity_test/test3.sol\":4979:5260  if(getHash(_id, _pw) == IDPW[_id]) {... */\n    tag_57:\n        /* \"solidity_test/test3.sol\":5440:5441  5 */\n      0x05\n        /* \"solidity_test/test3.sol\":5427:5433  errCnt */\n      0x01\n        /* \"solidity_test/test3.sol\":5434:5437  _id */\n      dup9\n        /* \"solidity_test/test3.sol\":5427:5438  errCnt[_id] */\n      mload(0x40)\n      tag_64\n      swap2\n      swap1\n      tag_27\n      jump\t// in\n    tag_64:\n      swap1\n      dup2\n      mstore\n      0x20\n      add\n      mload(0x40)\n      dup1\n      swap2\n      sub\n      swap1\n      keccak256\n      sload\n        /* \"solidity_test/test3.sol\":5427:5441  errCnt[_id]==5 */\n      sub\n        /* \"solidity_test/test3.sol\":5424:5504  if(errCnt[_id]==5) {... */\n      tag_65\n      jumpi\n        /* \"solidity_test/test3.sol\":5467:5488  ChangePw(\"Change Pw\") */\n      0xb2954b4a017ec5e9f8e4d84d08834286bc1c5f41d7bf1b65e29336947cf78d49\n      mload(0x40)\n      tag_66\n      swap1\n      tag_42\n      jump\t// in\n    tag_66:\n      mload(0x40)\n      dup1\n      swap2\n      sub\n      swap1\n      log1\n        /* \"solidity_test/test3.sol\":5424:5504  if(errCnt[_id]==5) {... */\n    tag_65:\n        /* \"solidity_test/test3.sol\":5525:5534  _isPassed */\n      dup5\n        /* \"solidity_test/test3.sol\":5518:5534  return _isPassed */\n      swap4\n      pop\n        /* \"solidity_test/test3.sol\":5291:5546  function signIn(string memory _id, string memory _pw, bool _isPassed) public Check(_id, _pw, _isPassed) returns(bool) {... */\n      pop\n      pop\n      pop\n      swap4\n      swap3\n      pop\n      pop\n      pop\n      jump\t// out\n        /* \"solidity_test/test3.sol\":4682:4829  function getHash(string memory _id, string memory _pw) public pure returns(bytes32) {... */\n    tag_19:\n        /* \"solidity_test/test3.sol\":4757:4764  bytes32 */\n      0x00\n        /* \"solidity_test/test3.sol\":4811:4814  _id */\n      dup3\n        /* \"solidity_test/test3.sol\":4816:4819  _pw */\n      dup3\n        /* \"solidity_test/test3.sol\":4794:4820  abi.encodePacked(_id, _pw) */\n      add(0x20, mload(0x40))\n      tag_68\n      swap3\n      swap2\n      swap1\n      tag_69\n      jump\t// in\n    tag_68:\n      mload(0x40)\n      0x20\n      dup2\n      dup4\n      sub\n      sub\n      dup2\n      mstore\n      swap1\n      0x40\n      mstore\n        /* \"solidity_test/test3.sol\":4784:4821  keccak256(abi.encodePacked(_id, _pw)) */\n      dup1\n      mload\n      swap1\n      0x20\n      add\n      keccak256\n        /* \"solidity_test/test3.sol\":4777:4821  return keccak256(abi.encodePacked(_id, _pw)) */\n      swap1\n      pop\n        /* \"solidity_test/test3.sol\":4682:4829  function getHash(string memory _id, string memory _pw) public pure returns(bytes32) {... */\n      swap3\n      swap2\n      pop\n      pop\n      jump\t// out\n        /* \"solidity_test/test3.sol\":5595:5786  function signUp(string memory _id, string memory _pw) public {... */\n    tag_24:\n        /* \"solidity_test/test3.sol\":5697:5698  0 */\n      0x00\n        /* \"solidity_test/test3.sol\":5689:5699  bytes32(0) */\n      dup1\n      shl\n        /* \"solidity_test/test3.sol\":5676:5680  IDPW */\n      0x00\n        /* \"solidity_test/test3.sol\":5681:5684  _id */\n      dup4\n        /* \"solidity_test/test3.sol\":5676:5685  IDPW[_id] */\n      mload(0x40)\n      tag_71\n      swap2\n      swap1\n      tag_27\n      jump\t// in\n    tag_71:\n      swap1\n      dup2\n      mstore\n      0x20\n      add\n      mload(0x40)\n      dup1\n      swap2\n      sub\n      swap1\n      keccak256\n      sload\n        /* \"solidity_test/test3.sol\":5676:5699  IDPW[_id] == bytes32(0) */\n      eq\n        /* \"solidity_test/test3.sol\":5667:5708  require( IDPW[_id] == bytes32(0), \"nope\") */\n      tag_72\n      jumpi\n      mload(0x40)\n      0x08c379a000000000000000000000000000000000000000000000000000000000\n      dup2\n      mstore\n      0x04\n      add\n      tag_73\n      swap1\n      tag_74\n      jump\t// in\n    tag_73:\n      mload(0x40)\n      dup1\n      swap2\n      sub\n      swap1\n      revert\n    tag_72:\n        /* \"solidity_test/test3.sol\":5719:5731  bytes32 hash */\n      0x00\n        /* \"solidity_test/test3.sol\":5734:5751  getHash(_id, _pw) */\n      tag_75\n        /* \"solidity_test/test3.sol\":5742:5745  _id */\n      dup4\n        /* \"solidity_test/test3.sol\":5747:5750  _pw */\n      dup4\n        /* \"solidity_test/test3.sol\":5734:5741  getHash */\n      tag_19\n        /* \"solidity_test/test3.sol\":5734:5751  getHash(_id, _pw) */\n      jump\t// in\n    tag_75:\n        /* \"solidity_test/test3.sol\":5719:5751  bytes32 hash = getHash(_id, _pw) */\n      swap1\n      pop\n        /* \"solidity_test/test3.sol\":5774:5778  hash */\n      dup1\n        /* \"solidity_test/test3.sol\":5762:5766  IDPW */\n      0x00\n        /* \"solidity_test/test3.sol\":5767:5770  _id */\n      dup5\n        /* \"solidity_test/test3.sol\":5762:5771  IDPW[_id] */\n      mload(0x40)\n      tag_76\n      swap2\n      swap1\n      tag_27\n      jump\t// in\n    tag_76:\n      swap1\n      dup2\n      mstore\n      0x20\n      add\n      mload(0x40)\n      dup1\n      swap2\n      sub\n      swap1\n      keccak256\n        /* \"solidity_test/test3.sol\":5762:5778  IDPW[_id] = hash */\n      dup2\n      swap1\n      sstore\n      pop\n        /* \"solidity_test/test3.sol\":5656:5786  {... */\n      pop\n        /* \"solidity_test/test3.sol\":5595:5786  function signUp(string memory _id, string memory _pw) public {... */\n      pop\n      pop\n      jump\t// out\n        /* \"#utility.yul\":7:82   */\n    tag_77:\n        /* \"#utility.yul\":40:46   */\n      0x00\n        /* \"#utility.yul\":73:75   */\n      0x40\n        /* \"#utility.yul\":67:76   */\n      mload\n        /* \"#utility.yul\":57:76   */\n      swap1\n      pop\n        /* \"#utility.yul\":7:82   */\n      swap1\n      jump\t// out\n        /* \"#utility.yul\":88:205   */\n    tag_78:\n        /* \"#utility.yul\":197:198   */\n      0x00\n        /* \"#utility.yul\":194:195   */\n      dup1\n        /* \"#utility.yul\":187:199   */\n      revert\n        /* \"#utility.yul\":211:328   */\n    tag_79:\n        /* \"#utility.yul\":320:321   */\n      0x00\n        /* \"#utility.yul\":317:318   */\n      dup1\n        /* \"#utility.yul\":310:322   */\n      revert\n        /* \"#utility.yul\":334:451   */\n    tag_80:\n        /* \"#utility.yul\":443:444   */\n      0x00\n        /* \"#utility.yul\":440:441   */\n      dup1\n        /* \"#utility.yul\":433:445   */\n      revert\n        /* \"#utility.yul\":457:574   */\n    tag_81:\n        /* \"#utility.yul\":566:567   */\n      0x00\n        /* \"#utility.yul\":563:564   */\n      dup1\n        /* \"#utility.yul\":556:568   */\n      revert\n        /* \"#utility.yul\":580:682   */\n    tag_82:\n        /* \"#utility.yul\":621:627   */\n      0x00\n        /* \"#utility.yul\":672:674   */\n      0x1f\n        /* \"#utility.yul\":668:675   */\n      not\n        /* \"#utility.yul\":663:665   */\n      0x1f\n        /* \"#utility.yul\":656:661   */\n      dup4\n        /* \"#utility.yul\":652:666   */\n      add\n        /* \"#utility.yul\":648:676   */\n      and\n        /* \"#utility.yul\":638:676   */\n      swap1\n      pop\n        /* \"#utility.yul\":580:682   */\n      swap2\n      swap1\n      pop\n      jump\t// out\n        /* \"#utility.yul\":688:868   */\n    tag_83:\n        /* \"#utility.yul\":736:813   */\n      0x4e487b7100000000000000000000000000000000000000000000000000000000\n        /* \"#utility.yul\":733:734   */\n      0x00\n        /* \"#utility.yul\":726:814   */\n      mstore\n        /* \"#utility.yul\":833:837   */\n      0x41\n        /* \"#utility.yul\":830:831   */\n      0x04\n        /* \"#utility.yul\":823:838   */\n      mstore\n        /* \"#utility.yul\":857:861   */\n      0x24\n        /* \"#utility.yul\":854:855   */\n      0x00\n        /* \"#utility.yul\":847:862   */\n      revert\n        /* \"#utility.yul\":874:1155   */\n    tag_84:\n        /* \"#utility.yul\":957:984   */\n      tag_120\n        /* \"#utility.yul\":979:983   */\n      dup3\n        /* \"#utility.yul\":957:984   */\n      tag_82\n      jump\t// in\n    tag_120:\n        /* \"#utility.yul\":949:955   */\n      dup2\n        /* \"#utility.yul\":945:985   */\n      add\n        /* \"#utility.yul\":1087:1093   */\n      dup2\n        /* \"#utility.yul\":1075:1085   */\n      dup2\n        /* \"#utility.yul\":1072:1094   */\n      lt\n        /* \"#utility.yul\":1051:1069   */\n      0xffffffffffffffff\n        /* \"#utility.yul\":1039:1049   */\n      dup3\n        /* \"#utility.yul\":1036:1070   */\n      gt\n        /* \"#utility.yul\":1033:1095   */\n      or\n        /* \"#utility.yul\":1030:1118   */\n      iszero\n      tag_121\n      jumpi\n        /* \"#utility.yul\":1098:1116   */\n      tag_122\n      tag_83\n      jump\t// in\n    tag_122:\n        /* \"#utility.yul\":1030:1118   */\n    tag_121:\n        /* \"#utility.yul\":1138:1148   */\n      dup1\n        /* \"#utility.yul\":1134:1136   */\n      0x40\n        /* \"#utility.yul\":1127:1149   */\n      mstore\n        /* \"#utility.yul\":917:1155   */\n      pop\n        /* \"#utility.yul\":874:1155   */\n      pop\n      pop\n      jump\t// out\n        /* \"#utility.yul\":1161:1290   */\n    tag_85:\n        /* \"#utility.yul\":1195:1201   */\n      0x00\n        /* \"#utility.yul\":1222:1242   */\n      tag_124\n      tag_77\n      jump\t// in\n    tag_124:\n        /* \"#utility.yul\":1212:1242   */\n      swap1\n      pop\n        /* \"#utility.yul\":1251:1284   */\n      tag_125\n        /* \"#utility.yul\":1279:1283   */\n      dup3\n        /* \"#utility.yul\":1271:1277   */\n      dup3\n        /* \"#utility.yul\":1251:1284   */\n      tag_84\n      jump\t// in\n    tag_125:\n        /* \"#utility.yul\":1161:1290   */\n      swap2\n      swap1\n      pop\n      jump\t// out\n        /* \"#utility.yul\":1296:1604   */\n    tag_86:\n        /* \"#utility.yul\":1358:1362   */\n      0x00\n        /* \"#utility.yul\":1448:1466   */\n      0xffffffffffffffff\n        /* \"#utility.yul\":1440:1446   */\n      dup3\n        /* \"#utility.yul\":1437:1467   */\n      gt\n        /* \"#utility.yul\":1434:1490   */\n      iszero\n      tag_127\n      jumpi\n        /* \"#utility.yul\":1470:1488   */\n      tag_128\n      tag_83\n      jump\t// in\n    tag_128:\n        /* \"#utility.yul\":1434:1490   */\n    tag_127:\n        /* \"#utility.yul\":1508:1537   */\n      tag_129\n        /* \"#utility.yul\":1530:1536   */\n      dup3\n        /* \"#utility.yul\":1508:1537   */\n      tag_82\n      jump\t// in\n    tag_129:\n        /* \"#utility.yul\":1500:1537   */\n      swap1\n      pop\n        /* \"#utility.yul\":1592:1596   */\n      0x20\n        /* \"#utility.yul\":1586:1590   */\n      dup2\n        /* \"#utility.yul\":1582:1597   */\n      add\n        /* \"#utility.yul\":1574:1597   */\n      swap1\n      pop\n        /* \"#utility.yul\":1296:1604   */\n      swap2\n      swap1\n      pop\n      jump\t// out\n        /* \"#utility.yul\":1610:1758   */\n    tag_87:\n        /* \"#utility.yul\":1708:1714   */\n      dup3\n        /* \"#utility.yul\":1703:1706   */\n      dup2\n        /* \"#utility.yul\":1698:1701   */\n      dup4\n        /* \"#utility.yul\":1685:1715   */\n      calldatacopy\n        /* \"#utility.yul\":1749:1750   */\n      0x00\n        /* \"#utility.yul\":1740:1746   */\n      dup4\n        /* \"#utility.yul\":1735:1738   */\n      dup4\n        /* \"#utility.yul\":1731:1747   */\n      add\n        /* \"#utility.yul\":1724:1751   */\n      mstore\n        /* \"#utility.yul\":1610:1758   */\n      pop\n      pop\n      pop\n      jump\t// out\n        /* \"#utility.yul\":1764:2189   */\n    tag_88:\n        /* \"#utility.yul\":1842:1847   */\n      0x00\n        /* \"#utility.yul\":1867:1933   */\n      tag_132\n        /* \"#utility.yul\":1883:1932   */\n      tag_133\n        /* \"#utility.yul\":1925:1931   */\n      dup5\n        /* \"#utility.yul\":1883:1932   */\n      tag_86\n      jump\t// in\n    tag_133:\n        /* \"#utility.yul\":1867:1933   */\n      tag_85\n      jump\t// in\n    tag_132:\n        /* \"#utility.yul\":1858:1933   */\n      swap1\n      pop\n        /* \"#utility.yul\":1956:1962   */\n      dup3\n        /* \"#utility.yul\":1949:1954   */\n      dup2\n        /* \"#utility.yul\":1942:1963   */\n      mstore\n        /* \"#utility.yul\":1994:1998   */\n      0x20\n        /* \"#utility.yul\":1987:1992   */\n      dup2\n        /* \"#utility.yul\":1983:1999   */\n      add\n        /* \"#utility.yul\":2032:2035   */\n      dup5\n        /* \"#utility.yul\":2023:2029   */\n      dup5\n        /* \"#utility.yul\":2018:2021   */\n      dup5\n        /* \"#utility.yul\":2014:2030   */\n      add\n        /* \"#utility.yul\":2011:2036   */\n      gt\n        /* \"#utility.yul\":2008:2120   */\n      iszero\n      tag_134\n      jumpi\n        /* \"#utility.yul\":2039:2118   */\n      tag_135\n      tag_81\n      jump\t// in\n    tag_135:\n        /* \"#utility.yul\":2008:2120   */\n    tag_134:\n        /* \"#utility.yul\":2129:2183   */\n      tag_136\n        /* \"#utility.yul\":2176:2182   */\n      dup5\n        /* \"#utility.yul\":2171:2174   */\n      dup3\n        /* \"#utility.yul\":2166:2169   */\n      dup6\n        /* \"#utility.yul\":2129:2183   */\n      tag_87\n      jump\t// in\n    tag_136:\n        /* \"#utility.yul\":1848:2189   */\n      pop\n        /* \"#utility.yul\":1764:2189   */\n      swap4\n      swap3\n      pop\n      pop\n      pop\n      jump\t// out\n        /* \"#utility.yul\":2209:2549   */\n    tag_89:\n        /* \"#utility.yul\":2265:2270   */\n      0x00\n        /* \"#utility.yul\":2314:2317   */\n      dup3\n        /* \"#utility.yul\":2307:2311   */\n      0x1f\n        /* \"#utility.yul\":2299:2305   */\n      dup4\n        /* \"#utility.yul\":2295:2312   */\n      add\n        /* \"#utility.yul\":2291:2318   */\n      slt\n        /* \"#utility.yul\":2281:2403   */\n      tag_138\n      jumpi\n        /* \"#utility.yul\":2322:2401   */\n      tag_139\n      tag_80\n      jump\t// in\n    tag_139:\n        /* \"#utility.yul\":2281:2403   */\n    tag_138:\n        /* \"#utility.yul\":2439:2445   */\n      dup2\n        /* \"#utility.yul\":2426:2446   */\n      calldataload\n        /* \"#utility.yul\":2464:2543   */\n      tag_140\n        /* \"#utility.yul\":2539:2542   */\n      dup5\n        /* \"#utility.yul\":2531:2537   */\n      dup3\n        /* \"#utility.yul\":2524:2528   */\n      0x20\n        /* \"#utility.yul\":2516:2522   */\n      dup7\n        /* \"#utility.yul\":2512:2529   */\n      add\n        /* \"#utility.yul\":2464:2543   */\n      tag_88\n      jump\t// in\n    tag_140:\n        /* \"#utility.yul\":2455:2543   */\n      swap2\n      pop\n        /* \"#utility.yul\":2271:2549   */\n      pop\n        /* \"#utility.yul\":2209:2549   */\n      swap3\n      swap2\n      pop\n      pop\n      jump\t// out\n        /* \"#utility.yul\":2555:2645   */\n    tag_90:\n        /* \"#utility.yul\":2589:2596   */\n      0x00\n        /* \"#utility.yul\":2632:2637   */\n      dup2\n        /* \"#utility.yul\":2625:2638   */\n      iszero\n        /* \"#utility.yul\":2618:2639   */\n      iszero\n        /* \"#utility.yul\":2607:2639   */\n      swap1\n      pop\n        /* \"#utility.yul\":2555:2645   */\n      swap2\n      swap1\n      pop\n      jump\t// out\n        /* \"#utility.yul\":2651:2767   */\n    tag_91:\n        /* \"#utility.yul\":2721:2742   */\n      tag_143\n        /* \"#utility.yul\":2736:2741   */\n      dup2\n        /* \"#utility.yul\":2721:2742   */\n      tag_90\n      jump\t// in\n    tag_143:\n        /* \"#utility.yul\":2714:2719   */\n      dup2\n        /* \"#utility.yul\":2711:2743   */\n      eq\n        /* \"#utility.yul\":2701:2761   */\n      tag_144\n      jumpi\n        /* \"#utility.yul\":2757:2758   */\n      0x00\n        /* \"#utility.yul\":2754:2755   */\n      dup1\n        /* \"#utility.yul\":2747:2759   */\n      revert\n        /* \"#utility.yul\":2701:2761   */\n    tag_144:\n        /* \"#utility.yul\":2651:2767   */\n      pop\n      jump\t// out\n        /* \"#utility.yul\":2773:2906   */\n    tag_92:\n        /* \"#utility.yul\":2816:2821   */\n      0x00\n        /* \"#utility.yul\":2854:2860   */\n      dup2\n        /* \"#utility.yul\":2841:2861   */\n      calldataload\n        /* \"#utility.yul\":2832:2861   */\n      swap1\n      pop\n        /* \"#utility.yul\":2870:2900   */\n      tag_146\n        /* \"#utility.yul\":2894:2899   */\n      dup2\n        /* \"#utility.yul\":2870:2900   */\n      tag_91\n      jump\t// in\n    tag_146:\n        /* \"#utility.yul\":2773:2906   */\n      swap3\n      swap2\n      pop\n      pop\n      jump\t// out\n        /* \"#utility.yul\":2912:3885   */\n    tag_9:\n        /* \"#utility.yul\":3006:3012   */\n      0x00\n        /* \"#utility.yul\":3014:3020   */\n      dup1\n        /* \"#utility.yul\":3022:3028   */\n      0x00\n        /* \"#utility.yul\":3071:3073   */\n      0x60\n        /* \"#utility.yul\":3059:3068   */\n      dup5\n        /* \"#utility.yul\":3050:3057   */\n      dup7\n        /* \"#utility.yul\":3046:3069   */\n      sub\n        /* \"#utility.yul\":3042:3074   */\n      slt\n        /* \"#utility.yul\":3039:3158   */\n      iszero\n      tag_148\n      jumpi\n        /* \"#utility.yul\":3077:3156   */\n      tag_149\n      tag_78\n      jump\t// in\n    tag_149:\n        /* \"#utility.yul\":3039:3158   */\n    tag_148:\n        /* \"#utility.yul\":3225:3226   */\n      0x00\n        /* \"#utility.yul\":3214:3223   */\n      dup5\n        /* \"#utility.yul\":3210:3227   */\n      add\n        /* \"#utility.yul\":3197:3228   */\n      calldataload\n        /* \"#utility.yul\":3255:3273   */\n      0xffffffffffffffff\n        /* \"#utility.yul\":3247:3253   */\n      dup2\n        /* \"#utility.yul\":3244:3274   */\n      gt\n        /* \"#utility.yul\":3241:3358   */\n      iszero\n      tag_150\n      jumpi\n        /* \"#utility.yul\":3277:3356   */\n      tag_151\n      tag_79\n      jump\t// in\n    tag_151:\n        /* \"#utility.yul\":3241:3358   */\n    tag_150:\n        /* \"#utility.yul\":3382:3445   */\n      tag_152\n        /* \"#utility.yul\":3437:3444   */\n      dup7\n        /* \"#utility.yul\":3428:3434   */\n      dup3\n        /* \"#utility.yul\":3417:3426   */\n      dup8\n        /* \"#utility.yul\":3413:3435   */\n      add\n        /* \"#utility.yul\":3382:3445   */\n      tag_89\n      jump\t// in\n    tag_152:\n        /* \"#utility.yul\":3372:3445   */\n      swap4\n      pop\n        /* \"#utility.yul\":3168:3455   */\n      pop\n        /* \"#utility.yul\":3522:3524   */\n      0x20\n        /* \"#utility.yul\":3511:3520   */\n      dup5\n        /* \"#utility.yul\":3507:3525   */\n      add\n        /* \"#utility.yul\":3494:3526   */\n      calldataload\n        /* \"#utility.yul\":3553:3571   */\n      0xffffffffffffffff\n        /* \"#utility.yul\":3545:3551   */\n      dup2\n        /* \"#utility.yul\":3542:3572   */\n      gt\n        /* \"#utility.yul\":3539:3656   */\n      iszero\n      tag_153\n      jumpi\n        /* \"#utility.yul\":3575:3654   */\n      tag_154\n      tag_79\n      jump\t// in\n    tag_154:\n        /* \"#utility.yul\":3539:3656   */\n    tag_153:\n        /* \"#utility.yul\":3680:3743   */\n      tag_155\n        /* \"#utility.yul\":3735:3742   */\n      dup7\n        /* \"#utility.yul\":3726:3732   */\n      dup3\n        /* \"#utility.yul\":3715:3724   */\n      dup8\n        /* \"#utility.yul\":3711:3733   */\n      add\n        /* \"#utility.yul\":3680:3743   */\n      tag_89\n      jump\t// in\n    tag_155:\n        /* \"#utility.yul\":3670:3743   */\n      swap3\n      pop\n        /* \"#utility.yul\":3465:3753   */\n      pop\n        /* \"#utility.yul\":3792:3794   */\n      0x40\n        /* \"#utility.yul\":3818:3868   */\n      tag_156\n        /* \"#utility.yul\":3860:3867   */\n      dup7\n        /* \"#utility.yul\":3851:3857   */\n      dup3\n        /* \"#utility.yul\":3840:3849   */\n      dup8\n        /* \"#utility.yul\":3836:3858   */\n      add\n        /* \"#utility.yul\":3818:3868   */\n      tag_92\n      jump\t// in\n    tag_156:\n        /* \"#utility.yul\":3808:3868   */\n      swap2\n      pop\n        /* \"#utility.yul\":3763:3878   */\n      pop\n        /* \"#utility.yul\":2912:3885   */\n      swap3\n      pop\n      swap3\n      pop\n      swap3\n      jump\t// out\n        /* \"#utility.yul\":3891:4000   */\n    tag_93:\n        /* \"#utility.yul\":3972:3993   */\n      tag_158\n        /* \"#utility.yul\":3987:3992   */\n      dup2\n        /* \"#utility.yul\":3972:3993   */\n      tag_90\n      jump\t// in\n    tag_158:\n        /* \"#utility.yul\":3967:3970   */\n      dup3\n        /* \"#utility.yul\":3960:3994   */\n      mstore\n        /* \"#utility.yul\":3891:4000   */\n      pop\n      pop\n      jump\t// out\n        /* \"#utility.yul\":4006:4216   */\n    tag_15:\n        /* \"#utility.yul\":4093:4097   */\n      0x00\n        /* \"#utility.yul\":4131:4133   */\n      0x20\n        /* \"#utility.yul\":4120:4129   */\n      dup3\n        /* \"#utility.yul\":4116:4134   */\n      add\n        /* \"#utility.yul\":4108:4134   */\n      swap1\n      pop\n        /* \"#utility.yul\":4144:4209   */\n      tag_160\n        /* \"#utility.yul\":4206:4207   */\n      0x00\n        /* \"#utility.yul\":4195:4204   */\n      dup4\n        /* \"#utility.yul\":4191:4208   */\n      add\n        /* \"#utility.yul\":4182:4188   */\n      dup5\n        /* \"#utility.yul\":4144:4209   */\n      tag_93\n      jump\t// in\n    tag_160:\n        /* \"#utility.yul\":4006:4216   */\n      swap3\n      swap2\n      pop\n      pop\n      jump\t// out\n        /* \"#utility.yul\":4222:5056   */\n    tag_18:\n        /* \"#utility.yul\":4310:4316   */\n      0x00\n        /* \"#utility.yul\":4318:4324   */\n      dup1\n        /* \"#utility.yul\":4367:4369   */\n      0x40\n        /* \"#utility.yul\":4355:4364   */\n      dup4\n        /* \"#utility.yul\":4346:4353   */\n      dup6\n        /* \"#utility.yul\":4342:4365   */\n      sub\n        /* \"#utility.yul\":4338:4370   */\n      slt\n        /* \"#utility.yul\":4335:4454   */\n      iszero\n      tag_162\n      jumpi\n        /* \"#utility.yul\":4373:4452   */\n      tag_163\n      tag_78\n      jump\t// in\n    tag_163:\n        /* \"#utility.yul\":4335:4454   */\n    tag_162:\n        /* \"#utility.yul\":4521:4522   */\n      0x00\n        /* \"#utility.yul\":4510:4519   */\n      dup4\n        /* \"#utility.yul\":4506:4523   */\n      add\n        /* \"#utility.yul\":4493:4524   */\n      calldataload\n        /* \"#utility.yul\":4551:4569   */\n      0xffffffffffffffff\n        /* \"#utility.yul\":4543:4549   */\n      dup2\n        /* \"#utility.yul\":4540:4570   */\n      gt\n        /* \"#utility.yul\":4537:4654   */\n      iszero\n      tag_164\n      jumpi\n        /* \"#utility.yul\":4573:4652   */\n      tag_165\n      tag_79\n      jump\t// in\n    tag_165:\n        /* \"#utility.yul\":4537:4654   */\n    tag_164:\n        /* \"#utility.yul\":4678:4741   */\n      tag_166\n        /* \"#utility.yul\":4733:4740   */\n      dup6\n        /* \"#utility.yul\":4724:4730   */\n      dup3\n        /* \"#utility.yul\":4713:4722   */\n      dup7\n        /* \"#utility.yul\":4709:4731   */\n      add\n        /* \"#utility.yul\":4678:4741   */\n      tag_89\n      jump\t// in\n    tag_166:\n        /* \"#utility.yul\":4668:4741   */\n      swap3\n      pop\n        /* \"#utility.yul\":4464:4751   */\n      pop\n        /* \"#utility.yul\":4818:4820   */\n      0x20\n        /* \"#utility.yul\":4807:4816   */\n      dup4\n        /* \"#utility.yul\":4803:4821   */\n      add\n        /* \"#utility.yul\":4790:4822   */\n      calldataload\n        /* \"#utility.yul\":4849:4867   */\n      0xffffffffffffffff\n        /* \"#utility.yul\":4841:4847   */\n      dup2\n        /* \"#utility.yul\":4838:4868   */\n      gt\n        /* \"#utility.yul\":4835:4952   */\n      iszero\n      tag_167\n      jumpi\n        /* \"#utility.yul\":4871:4950   */\n      tag_168\n      tag_79\n      jump\t// in\n    tag_168:\n        /* \"#utility.yul\":4835:4952   */\n    tag_167:\n        /* \"#utility.yul\":4976:5039   */\n      tag_169\n        /* \"#utility.yul\":5031:5038   */\n      dup6\n        /* \"#utility.yul\":5022:5028   */\n      dup3\n        /* \"#utility.yul\":5011:5020   */\n      dup7\n        /* \"#utility.yul\":5007:5029   */\n      add\n        /* \"#utility.yul\":4976:5039   */\n      tag_89\n      jump\t// in\n    tag_169:\n        /* \"#utility.yul\":4966:5039   */\n      swap2\n      pop\n        /* \"#utility.yul\":4761:5049   */\n      pop\n        /* \"#utility.yul\":4222:5056   */\n      swap3\n      pop\n      swap3\n      swap1\n      pop\n      jump\t// out\n        /* \"#utility.yul\":5062:5139   */\n    tag_94:\n        /* \"#utility.yul\":5099:5106   */\n      0x00\n        /* \"#utility.yul\":5128:5133   */\n      dup2\n        /* \"#utility.yul\":5117:5133   */\n      swap1\n      pop\n        /* \"#utility.yul\":5062:5139   */\n      swap2\n      swap1\n      pop\n      jump\t// out\n        /* \"#utility.yul\":5145:5263   */\n    tag_95:\n        /* \"#utility.yul\":5232:5256   */\n      tag_172\n        /* \"#utility.yul\":5250:5255   */\n      dup2\n        /* \"#utility.yul\":5232:5256   */\n      tag_94\n      jump\t// in\n    tag_172:\n        /* \"#utility.yul\":5227:5230   */\n      dup3\n        /* \"#utility.yul\":5220:5257   */\n      mstore\n        /* \"#utility.yul\":5145:5263   */\n      pop\n      pop\n      jump\t// out\n        /* \"#utility.yul\":5269:5491   */\n    tag_21:\n        /* \"#utility.yul\":5362:5366   */\n      0x00\n        /* \"#utility.yul\":5400:5402   */\n      0x20\n        /* \"#utility.yul\":5389:5398   */\n      dup3\n        /* \"#utility.yul\":5385:5403   */\n      add\n        /* \"#utility.yul\":5377:5403   */\n      swap1\n      pop\n        /* \"#utility.yul\":5413:5484   */\n      tag_174\n        /* \"#utility.yul\":5481:5482   */\n      0x00\n        /* \"#utility.yul\":5470:5479   */\n      dup4\n        /* \"#utility.yul\":5466:5483   */\n      add\n        /* \"#utility.yul\":5457:5463   */\n      dup5\n        /* \"#utility.yul\":5413:5484   */\n      tag_95\n      jump\t// in\n    tag_174:\n        /* \"#utility.yul\":5269:5491   */\n      swap3\n      swap2\n      pop\n      pop\n      jump\t// out\n        /* \"#utility.yul\":5497:5596   */\n    tag_96:\n        /* \"#utility.yul\":5549:5555   */\n      0x00\n        /* \"#utility.yul\":5583:5588   */\n      dup2\n        /* \"#utility.yul\":5577:5589   */\n      mload\n        /* \"#utility.yul\":5567:5589   */\n      swap1\n      pop\n        /* \"#utility.yul\":5497:5596   */\n      swap2\n      swap1\n      pop\n      jump\t// out\n        /* \"#utility.yul\":5602:5750   */\n    tag_97:\n        /* \"#utility.yul\":5704:5715   */\n      0x00\n        /* \"#utility.yul\":5741:5744   */\n      dup2\n        /* \"#utility.yul\":5726:5744   */\n      swap1\n      pop\n        /* \"#utility.yul\":5602:5750   */\n      swap3\n      swap2\n      pop\n      pop\n      jump\t// out\n        /* \"#utility.yul\":5756:5895   */\n    tag_98:\n        /* \"#utility.yul\":5845:5851   */\n      dup3\n        /* \"#utility.yul\":5840:5843   */\n      dup2\n        /* \"#utility.yul\":5835:5838   */\n      dup4\n        /* \"#utility.yul\":5829:5852   */\n      mcopy\n        /* \"#utility.yul\":5886:5887   */\n      0x00\n        /* \"#utility.yul\":5877:5883   */\n      dup4\n        /* \"#utility.yul\":5872:5875   */\n      dup4\n        /* \"#utility.yul\":5868:5884   */\n      add\n        /* \"#utility.yul\":5861:5888   */\n      mstore\n        /* \"#utility.yul\":5756:5895   */\n      pop\n      pop\n      pop\n      jump\t// out\n        /* \"#utility.yul\":5901:6291   */\n    tag_99:\n        /* \"#utility.yul\":6007:6010   */\n      0x00\n        /* \"#utility.yul\":6035:6074   */\n      tag_179\n        /* \"#utility.yul\":6068:6073   */\n      dup3\n        /* \"#utility.yul\":6035:6074   */\n      tag_96\n      jump\t// in\n    tag_179:\n        /* \"#utility.yul\":6090:6179   */\n      tag_180\n        /* \"#utility.yul\":6172:6178   */\n      dup2\n        /* \"#utility.yul\":6167:6170   */\n      dup6\n        /* \"#utility.yul\":6090:6179   */\n      tag_97\n      jump\t// in\n    tag_180:\n        /* \"#utility.yul\":6083:6179   */\n      swap4\n      pop\n        /* \"#utility.yul\":6188:6253   */\n      tag_181\n        /* \"#utility.yul\":6246:6252   */\n      dup2\n        /* \"#utility.yul\":6241:6244   */\n      dup6\n        /* \"#utility.yul\":6234:6238   */\n      0x20\n        /* \"#utility.yul\":6227:6232   */\n      dup7\n        /* \"#utility.yul\":6223:6239   */\n      add\n        /* \"#utility.yul\":6188:6253   */\n      tag_98\n      jump\t// in\n    tag_181:\n        /* \"#utility.yul\":6278:6284   */\n      dup1\n        /* \"#utility.yul\":6273:6276   */\n      dup5\n        /* \"#utility.yul\":6269:6285   */\n      add\n        /* \"#utility.yul\":6262:6285   */\n      swap2\n      pop\n        /* \"#utility.yul\":6011:6291   */\n      pop\n        /* \"#utility.yul\":5901:6291   */\n      swap3\n      swap2\n      pop\n      pop\n      jump\t// out\n        /* \"#utility.yul\":6297:6572   */\n    tag_27:\n        /* \"#utility.yul\":6429:6432   */\n      0x00\n        /* \"#utility.yul\":6451:6546   */\n      tag_183\n        /* \"#utility.yul\":6542:6545   */\n      dup3\n        /* \"#utility.yul\":6533:6539   */\n      dup5\n        /* \"#utility.yul\":6451:6546   */\n      tag_99\n      jump\t// in\n    tag_183:\n        /* \"#utility.yul\":6444:6546   */\n      swap2\n      pop\n        /* \"#utility.yul\":6563:6566   */\n      dup2\n        /* \"#utility.yul\":6556:6566   */\n      swap1\n      pop\n        /* \"#utility.yul\":6297:6572   */\n      swap3\n      swap2\n      pop\n      pop\n      jump\t// out\n        /* \"#utility.yul\":6578:6747   */\n    tag_100:\n        /* \"#utility.yul\":6662:6673   */\n      0x00\n        /* \"#utility.yul\":6696:6702   */\n      dup3\n        /* \"#utility.yul\":6691:6694   */\n      dup3\n        /* \"#utility.yul\":6684:6703   */\n      mstore\n        /* \"#utility.yul\":6736:6740   */\n      0x20\n        /* \"#utility.yul\":6731:6734   */\n      dup3\n        /* \"#utility.yul\":6727:6741   */\n      add\n        /* \"#utility.yul\":6712:6741   */\n      swap1\n      pop\n        /* \"#utility.yul\":6578:6747   */\n      swap3\n      swap2\n      pop\n      pop\n      jump\t// out\n        /* \"#utility.yul\":6753:6916   */\n    tag_101:\n        /* \"#utility.yul\":6893:6908   */\n      0x5369676e20757020666972737400000000000000000000000000000000000000\n        /* \"#utility.yul\":6889:6890   */\n      0x00\n        /* \"#utility.yul\":6881:6887   */\n      dup3\n        /* \"#utility.yul\":6877:6891   */\n      add\n        /* \"#utility.yul\":6870:6909   */\n      mstore\n        /* \"#utility.yul\":6753:6916   */\n      pop\n      jump\t// out\n        /* \"#utility.yul\":6922:7288   */\n    tag_102:\n        /* \"#utility.yul\":7064:7067   */\n      0x00\n        /* \"#utility.yul\":7085:7152   */\n      tag_187\n        /* \"#utility.yul\":7149:7151   */\n      0x0d\n        /* \"#utility.yul\":7144:7147   */\n      dup4\n        /* \"#utility.yul\":7085:7152   */\n      tag_100\n      jump\t// in\n    tag_187:\n        /* \"#utility.yul\":7078:7152   */\n      swap2\n      pop\n        /* \"#utility.yul\":7161:7254   */\n      tag_188\n        /* \"#utility.yul\":7250:7253   */\n      dup3\n        /* \"#utility.yul\":7161:7254   */\n      tag_101\n      jump\t// in\n    tag_188:\n        /* \"#utility.yul\":7279:7281   */\n      0x20\n        /* \"#utility.yul\":7274:7277   */\n      dup3\n        /* \"#utility.yul\":7270:7282   */\n      add\n        /* \"#utility.yul\":7263:7282   */\n      swap1\n      pop\n        /* \"#utility.yul\":6922:7288   */\n      swap2\n      swap1\n      pop\n      jump\t// out\n        /* \"#utility.yul\":7294:7713   */\n    tag_30:\n        /* \"#utility.yul\":7460:7464   */\n      0x00\n        /* \"#utility.yul\":7498:7500   */\n      0x20\n        /* \"#utility.yul\":7487:7496   */\n      dup3\n        /* \"#utility.yul\":7483:7501   */\n      add\n        /* \"#utility.yul\":7475:7501   */\n      swap1\n      pop\n        /* \"#utility.yul\":7547:7556   */\n      dup2\n        /* \"#utility.yul\":7541:7545   */\n      dup2\n        /* \"#utility.yul\":7537:7557   */\n      sub\n        /* \"#utility.yul\":7533:7534   */\n      0x00\n        /* \"#utility.yul\":7522:7531   */\n      dup4\n        /* \"#utility.yul\":7518:7535   */\n      add\n        /* \"#utility.yul\":7511:7558   */\n      mstore\n        /* \"#utility.yul\":7575:7706   */\n      tag_190\n        /* \"#utility.yul\":7701:7705   */\n      dup2\n        /* \"#utility.yul\":7575:7706   */\n      tag_102\n      jump\t// in\n    tag_190:\n        /* \"#utility.yul\":7567:7706   */\n      swap1\n      pop\n        /* \"#utility.yul\":7294:7713   */\n      swap2\n      swap1\n      pop\n      jump\t// out\n        /* \"#utility.yul\":7719:7899   */\n    tag_103:\n        /* \"#utility.yul\":7767:7844   */\n      0x4e487b7100000000000000000000000000000000000000000000000000000000\n        /* \"#utility.yul\":7764:7765   */\n      0x00\n        /* \"#utility.yul\":7757:7845   */\n      mstore\n        /* \"#utility.yul\":7864:7868   */\n      0x11\n        /* \"#utility.yul\":7861:7862   */\n      0x04\n        /* \"#utility.yul\":7854:7869   */\n      mstore\n        /* \"#utility.yul\":7888:7892   */\n      0x24\n        /* \"#utility.yul\":7885:7886   */\n      0x00\n        /* \"#utility.yul\":7878:7893   */\n      revert\n        /* \"#utility.yul\":7905:7982   */\n    tag_104:\n        /* \"#utility.yul\":7942:7949   */\n      0x00\n        /* \"#utility.yul\":7971:7976   */\n      dup2\n        /* \"#utility.yul\":7960:7976   */\n      swap1\n      pop\n        /* \"#utility.yul\":7905:7982   */\n      swap2\n      swap1\n      pop\n      jump\t// out\n        /* \"#utility.yul\":7988:8221   */\n    tag_38:\n        /* \"#utility.yul\":8027:8030   */\n      0x00\n        /* \"#utility.yul\":8050:8074   */\n      tag_194\n        /* \"#utility.yul\":8068:8073   */\n      dup3\n        /* \"#utility.yul\":8050:8074   */\n      tag_104\n      jump\t// in\n    tag_194:\n        /* \"#utility.yul\":8041:8074   */\n      swap2\n      pop\n        /* \"#utility.yul\":8096:8162   */\n      0xffffffffffffffffffffffffffffffffffffffffffffffffffffffffffffffff\n        /* \"#utility.yul\":8089:8094   */\n      dup3\n        /* \"#utility.yul\":8086:8163   */\n      sub\n        /* \"#utility.yul\":8083:8186   */\n      tag_195\n      jumpi\n        /* \"#utility.yul\":8166:8184   */\n      tag_196\n      tag_103\n      jump\t// in\n    tag_196:\n        /* \"#utility.yul\":8083:8186   */\n    tag_195:\n        /* \"#utility.yul\":8213:8214   */\n      0x01\n        /* \"#utility.yul\":8206:8211   */\n      dup3\n        /* \"#utility.yul\":8202:8215   */\n      add\n        /* \"#utility.yul\":8195:8215   */\n      swap1\n      pop\n        /* \"#utility.yul\":7988:8221   */\n      swap2\n      swap1\n      pop\n      jump\t// out\n        /* \"#utility.yul\":8227:8386   */\n    tag_105:\n        /* \"#utility.yul\":8367:8378   */\n      0x4368616e67652050770000000000000000000000000000000000000000000000\n        /* \"#utility.yul\":8363:8364   */\n      0x00\n        /* \"#utility.yul\":8355:8361   */\n      dup3\n        /* \"#utility.yul\":8351:8365   */\n      add\n        /* \"#utility.yul\":8344:8379   */\n      mstore\n        /* \"#utility.yul\":8227:8386   */\n      pop\n      jump\t// out\n        /* \"#utility.yul\":8392:8757   */\n    tag_106:\n        /* \"#utility.yul\":8534:8537   */\n      0x00\n        /* \"#utility.yul\":8555:8621   */\n      tag_199\n        /* \"#utility.yul\":8619:8620   */\n      0x09\n        /* \"#utility.yul\":8614:8617   */\n      dup4\n        /* \"#utility.yul\":8555:8621   */\n      tag_100\n      jump\t// in\n    tag_199:\n        /* \"#utility.yul\":8548:8621   */\n      swap2\n      pop\n        /* \"#utility.yul\":8630:8723   */\n      tag_200\n        /* \"#utility.yul\":8719:8722   */\n      dup3\n        /* \"#utility.yul\":8630:8723   */\n      tag_105\n      jump\t// in\n    tag_200:\n        /* \"#utility.yul\":8748:8750   */\n      0x20\n        /* \"#utility.yul\":8743:8746   */\n      dup3\n        /* \"#utility.yul\":8739:8751   */\n      add\n        /* \"#utility.yul\":8732:8751   */\n      swap1\n      pop\n        /* \"#utility.yul\":8392:8757   */\n      swap2\n      swap1\n      pop\n      jump\t// out\n        /* \"#utility.yul\":8763:9182   */\n    tag_42:\n        /* \"#utility.yul\":8929:8933   */\n      0x00\n        /* \"#utility.yul\":8967:8969   */\n      0x20\n        /* \"#utility.yul\":8956:8965   */\n      dup3\n        /* \"#utility.yul\":8952:8970   */\n      add\n        /* \"#utility.yul\":8944:8970   */\n      swap1\n      pop\n        /* \"#utility.yul\":9016:9025   */\n      dup2\n        /* \"#utility.yul\":9010:9014   */\n      dup2\n        /* \"#utility.yul\":9006:9026   */\n      sub\n        /* \"#utility.yul\":9002:9003   */\n      0x00\n        /* \"#utility.yul\":8991:9000   */\n      dup4\n        /* \"#utility.yul\":8987:9004   */\n      add\n        /* \"#utility.yul\":8980:9027   */\n      mstore\n        /* \"#utility.yul\":9044:9175   */\n      tag_202\n        /* \"#utility.yul\":9170:9174   */\n      dup2\n        /* \"#utility.yul\":9044:9175   */\n      tag_106\n      jump\t// in\n    tag_202:\n        /* \"#utility.yul\":9036:9175   */\n      swap1\n      pop\n        /* \"#utility.yul\":8763:9182   */\n      swap2\n      swap1\n      pop\n      jump\t// out\n        /* \"#utility.yul\":9188:9350   */\n    tag_107:\n        /* \"#utility.yul\":9328:9342   */\n      0x6c6f67696e206661696c65640000000000000000000000000000000000000000\n        /* \"#utility.yul\":9324:9325   */\n      0x00\n        /* \"#utility.yul\":9316:9322   */\n      dup3\n        /* \"#utility.yul\":9312:9326   */\n      add\n        /* \"#utility.yul\":9305:9343   */\n      mstore\n        /* \"#utility.yul\":9188:9350   */\n      pop\n      jump\t// out\n        /* \"#utility.yul\":9356:9722   */\n    tag_108:\n        /* \"#utility.yul\":9498:9501   */\n      0x00\n        /* \"#utility.yul\":9519:9586   */\n      tag_205\n        /* \"#utility.yul\":9583:9585   */\n      0x0c\n        /* \"#utility.yul\":9578:9581   */\n      dup4\n        /* \"#utility.yul\":9519:9586   */\n      tag_100\n      jump\t// in\n    tag_205:\n        /* \"#utility.yul\":9512:9586   */\n      swap2\n      pop\n        /* \"#utility.yul\":9595:9688   */\n      tag_206\n        /* \"#utility.yul\":9684:9687   */\n      dup3\n        /* \"#utility.yul\":9595:9688   */\n      tag_107\n      jump\t// in\n    tag_206:\n        /* \"#utility.yul\":9713:9715   */\n      0x20\n        /* \"#utility.yul\":9708:9711   */\n      dup3\n        /* \"#utility.yul\":9704:9716   */\n      add\n        /* \"#utility.yul\":9697:9716   */\n      swap1\n      pop\n        /* \"#utility.yul\":9356:9722   */\n      swap2\n      swap1\n      pop\n      jump\t// out\n        /* \"#utility.yul\":9728:10147   */\n    tag_46:\n        /* \"#utility.yul\":9894:9898   */\n      0x00\n        /* \"#utility.yul\":9932:9934   */\n      0x20\n        /* \"#utility.yul\":9921:9930   */\n      dup3\n        /* \"#utility.yul\":9917:9935   */\n      add\n        /* \"#utility.yul\":9909:9935   */\n      swap1\n      pop\n        /* \"#utility.yul\":9981:9990   */\n      dup2\n        /* \"#utility.yul\":9975:9979   */\n      dup2\n        /* \"#utility.yul\":9971:9991   */\n      sub\n        /* \"#utility.yul\":9967:9968   */\n      0x00\n        /* \"#utility.yul\":9956:9965   */\n      dup4\n        /* \"#utility.yul\":9952:9969   */\n      add\n        /* \"#utility.yul\":9945:9992   */\n      mstore\n        /* \"#utility.yul\":10009:10140   */\n      tag_208\n        /* \"#utility.yul\":10135:10139   */\n      dup2\n        /* \"#utility.yul\":10009:10140   */\n      tag_108\n      jump\t// in\n    tag_208:\n        /* \"#utility.yul\":10001:10140   */\n      swap1\n      pop\n        /* \"#utility.yul\":9728:10147   */\n      swap2\n      swap1\n      pop\n      jump\t// out\n        /* \"#utility.yul\":10153:10588   */\n    tag_69:\n        /* \"#utility.yul\":10333:10336   */\n      0x00\n        /* \"#utility.yul\":10355:10450   */\n      tag_210\n        /* \"#utility.yul\":10446:10449   */\n      dup3\n        /* \"#utility.yul\":10437:10443   */\n      dup6\n        /* \"#utility.yul\":10355:10450   */\n      tag_99\n      jump\t// in\n    tag_210:\n        /* \"#utility.yul\":10348:10450   */\n      swap2\n      pop\n        /* \"#utility.yul\":10467:10562   */\n      tag_211\n        /* \"#utility.yul\":10558:10561   */\n      dup3\n        /* \"#utility.yul\":10549:10555   */\n      dup5\n        /* \"#utility.yul\":10467:10562   */\n      tag_99\n      jump\t// in\n    tag_211:\n        /* \"#utility.yul\":10460:10562   */\n      swap2\n      pop\n        /* \"#utility.yul\":10579:10582   */\n      dup2\n        /* \"#utility.yul\":10572:10582   */\n      swap1\n      pop\n        /* \"#utility.yul\":10153:10588   */\n      swap4\n      swap3\n      pop\n      pop\n      pop\n      jump\t// out\n        /* \"#utility.yul\":10594:10748   */\n    tag_109:\n        /* \"#utility.yul\":10734:10740   */\n      0x6e6f706500000000000000000000000000000000000000000000000000000000\n        /* \"#utility.yul\":10730:10731   */\n      0x00\n        /* \"#utility.yul\":10722:10728   */\n      dup3\n        /* \"#utility.yul\":10718:10732   */\n      add\n        /* \"#utility.yul\":10711:10741   */\n      mstore\n        /* \"#utility.yul\":10594:10748   */\n      pop\n      jump\t// out\n        /* \"#utility.yul\":10754:11119   */\n    tag_110:\n        /* \"#utility.yul\":10896:10899   */\n      0x00\n        /* \"#utility.yul\":10917:10983   */\n      tag_214\n        /* \"#utility.yul\":10981:10982   */\n      0x04\n        /* \"#utility.yul\":10976:10979   */\n      dup4\n        /* \"#utility.yul\":10917:10983   */\n      tag_100\n      jump\t// in\n    tag_214:\n        /* \"#utility.yul\":10910:10983   */\n      swap2\n      pop\n        /* \"#utility.yul\":10992:11085   */\n      tag_215\n        /* \"#utility.yul\":11081:11084   */\n      dup3\n        /* \"#utility.yul\":10992:11085   */\n      tag_109\n      jump\t// in\n    tag_215:\n        /* \"#utility.yul\":11110:11112   */\n      0x20\n        /* \"#utility.yul\":11105:11108   */\n      dup3\n        /* \"#utility.yul\":11101:11113   */\n      add\n        /* \"#utility.yul\":11094:11113   */\n      swap1\n      pop\n        /* \"#utility.yul\":10754:11119   */\n      swap2\n      swap1\n      pop\n      jump\t// out\n        /* \"#utility.yul\":11125:11544   */\n    tag_74:\n        /* \"#utility.yul\":11291:11295   */\n      0x00\n        /* \"#utility.yul\":11329:11331   */\n      0x20\n        /* \"#utility.yul\":11318:11327   */\n      dup3\n        /* \"#utility.yul\":11314:11332   */\n      add\n        /* \"#utility.yul\":11306:11332   */\n      swap1\n      pop\n        /* \"#utility.yul\":11378:11387   */\n      dup2\n        /* \"#utility.yul\":11372:11376   */\n      dup2\n        /* \"#utility.yul\":11368:11388   */\n      sub\n        /* \"#utility.yul\":11364:11365   */\n      0x00\n        /* \"#utility.yul\":11353:11362   */\n      dup4\n        /* \"#utility.yul\":11349:11366   */\n      add\n        /* \"#utility.yul\":11342:11389   */\n      mstore\n        /* \"#utility.yul\":11406:11537   */\n      tag_217\n        /* \"#utility.yul\":11532:11536   */\n      dup2\n        /* \"#utility.yul\":11406:11537   */\n      tag_110\n      jump\t// in\n    tag_217:\n        /* \"#utility.yul\":11398:11537   */\n      swap1\n      pop\n        /* \"#utility.yul\":11125:11544   */\n      swap2\n      swap1\n      pop\n      jump\t// out\n\n    auxdata: 0xa2646970667358221220762ef76ff11836640666f6ca8bc8376d5246dfe16f333d7d750c9a247a79983764736f6c63430008190033\n}\n",
				"bytecode": {
					"linkReferences": {},
					"object": "6080604052348015600e575f80fd5b50610b0e8061001c5f395ff3fe608060405234801561000f575f80fd5b506004361061004a575f3560e01c80631185d6c71461004e57806316de5a691461006a57806327cf399a1461009a578063a469a332146100ca575b5f80fd5b610068600480360381019061006391906106c9565b6100e6565b005b610084600480360381019061007f91906106c9565b6102c6565b6040516100919190610760565b60405180910390f35b6100b460048036038101906100af9190610779565b610480565b6040516100c19190610807565b60405180910390f35b6100e460048036038101906100df9190610779565b6104b2565b005b8282825f801b5f846040516100fb9190610872565b9081526020016040518091039020540361014a576040517f08c379a0000000000000000000000000000000000000000000000000000000008152600401610141906108e2565b60405180910390fd5b5f836040516101599190610872565b9081526020016040518091039020546101728484610480565b036101a3575f6001846040516101889190610872565b90815260200160405180910390208190555060019050610236565b6001836040516101b39190610872565b90815260200160405180910390205f8154809291906101d190610936565b919050555060056001846040516101e89190610872565b90815260200160405180910390205403610232577fb2954b4a017ec5e9f8e4d84d08834286bc1c5f41d7bf1b65e29336947cf78d49604051610229906109c7565b60405180910390a15b5f90505b600115158415151461027d576040517f08c379a000000000000000000000000000000000000000000000000000000000815260040161027490610a2f565b60405180910390fd5b5f8660405161028c9190610872565b90815260200160405180910390205f90556001866040516102ad9190610872565b90815260200160405180910390205f9055505050505050565b5f8383835f801b5f846040516102dc9190610872565b9081526020016040518091039020540361032b576040517f08c379a0000000000000000000000000000000000000000000000000000000008152600401610322906108e2565b60405180910390fd5b5f8360405161033a9190610872565b9081526020016040518091039020546103538484610480565b03610384575f6001846040516103699190610872565b90815260200160405180910390208190555060019050610417565b6001836040516103949190610872565b90815260200160405180910390205f8154809291906103b290610936565b919050555060056001846040516103c99190610872565b90815260200160405180910390205403610413577fb2954b4a017ec5e9f8e4d84d08834286bc1c5f41d7bf1b65e29336947cf78d4960405161040a906109c7565b60405180910390a15b5f90505b60056001886040516104299190610872565b90815260200160405180910390205403610473577fb2954b4a017ec5e9f8e4d84d08834286bc1c5f41d7bf1b65e29336947cf78d4960405161046a906109c7565b60405180910390a15b8493505050509392505050565b5f8282604051602001610494929190610a4d565b60405160208183030381529060405280519060200120905092915050565b5f801b5f836040516104c49190610872565b90815260200160405180910390205414610513576040517f08c379a000000000000000000000000000000000000000000000000000000000815260040161050a90610aba565b60405180910390fd5b5f61051e8383610480565b9050805f846040516105309190610872565b908152602001604051809103902081905550505050565b5f604051905090565b5f80fd5b5f80fd5b5f80fd5b5f80fd5b5f601f19601f8301169050919050565b7f4e487b71000000000000000000000000000000000000000000000000000000005f52604160045260245ffd5b6105a682610560565b810181811067ffffffffffffffff821117156105c5576105c4610570565b5b80604052505050565b5f6105d7610547565b90506105e3828261059d565b919050565b5f67ffffffffffffffff82111561060257610601610570565b5b61060b82610560565b9050602081019050919050565b828183375f83830152505050565b5f610638610633846105e8565b6105ce565b9050828152602081018484840111156106545761065361055c565b5b61065f848285610618565b509392505050565b5f82601f83011261067b5761067a610558565b5b813561068b848260208601610626565b91505092915050565b5f8115159050919050565b6106a881610694565b81146106b2575f80fd5b50565b5f813590506106c38161069f565b92915050565b5f805f606084860312156106e0576106df610550565b5b5f84013567ffffffffffffffff8111156106fd576106fc610554565b5b61070986828701610667565b935050602084013567ffffffffffffffff81111561072a57610729610554565b5b61073686828701610667565b9250506040610747868287016106b5565b9150509250925092565b61075a81610694565b82525050565b5f6020820190506107735f830184610751565b92915050565b5f806040838503121561078f5761078e610550565b5b5f83013567ffffffffffffffff8111156107ac576107ab610554565b5b6107b885828601610667565b925050602083013567ffffffffffffffff8111156107d9576107d8610554565b5b6107e585828601610667565b9150509250929050565b5f819050919050565b610801816107ef565b82525050565b5f60208201905061081a5f8301846107f8565b92915050565b5f81519050919050565b5f81905092915050565b8281835e5f83830152505050565b5f61084c82610820565b610856818561082a565b9350610866818560208601610834565b80840191505092915050565b5f61087d8284610842565b915081905092915050565b5f82825260208201905092915050565b7f5369676e207570206669727374000000000000000000000000000000000000005f82015250565b5f6108cc600d83610888565b91506108d782610898565b602082019050919050565b5f6020820190508181035f8301526108f9816108c0565b9050919050565b7f4e487b71000000000000000000000000000000000000000000000000000000005f52601160045260245ffd5b5f819050919050565b5f6109408261092d565b91507fffffffffffffffffffffffffffffffffffffffffffffffffffffffffffffffff820361097257610971610900565b5b600182019050919050565b7f4368616e676520507700000000000000000000000000000000000000000000005f82015250565b5f6109b1600983610888565b91506109bc8261097d565b602082019050919050565b5f6020820190508181035f8301526109de816109a5565b9050919050565b7f6c6f67696e206661696c656400000000000000000000000000000000000000005f82015250565b5f610a19600c83610888565b9150610a24826109e5565b602082019050919050565b5f6020820190508181035f830152610a4681610a0d565b9050919050565b5f610a588285610842565b9150610a648284610842565b91508190509392505050565b7f6e6f7065000000000000000000000000000000000000000000000000000000005f82015250565b5f610aa4600483610888565b9150610aaf82610a70565b602082019050919050565b5f6020820190508181035f830152610ad181610a98565b905091905056fea2646970667358221220762ef76ff11836640666f6ca8bc8376d5246dfe16f333d7d750c9a247a79983764736f6c63430008190033",
					"opcodes": "PUSH1 0x80 PUSH1 0x40 MSTORE CALLVALUE DUP1 ISZERO PUSH1 0xE JUMPI PUSH0 DUP1 REVERT JUMPDEST POP PUSH2 0xB0E DUP1 PUSH2 0x1C PUSH0 CODECOPY PUSH0 RETURN INVALID PUSH1 0x80 PUSH1 0x40 MSTORE CALLVALUE DUP1 ISZERO PUSH2 0xF JUMPI PUSH0 DUP1 REVERT JUMPDEST POP PUSH1 0x4 CALLDATASIZE LT PUSH2 0x4A JUMPI PUSH0 CALLDATALOAD PUSH1 0xE0 SHR DUP1 PUSH4 0x1185D6C7 EQ PUSH2 0x4E JUMPI DUP1 PUSH4 0x16DE5A69 EQ PUSH2 0x6A JUMPI DUP1 PUSH4 0x27CF399A EQ PUSH2 0x9A JUMPI DUP1 PUSH4 0xA469A332 EQ PUSH2 0xCA JUMPI JUMPDEST PUSH0 DUP1 REVERT JUMPDEST PUSH2 0x68 PUSH1 0x4 DUP1 CALLDATASIZE SUB DUP2 ADD SWAP1 PUSH2 0x63 SWAP2 SWAP1 PUSH2 0x6C9 JUMP JUMPDEST PUSH2 0xE6 JUMP JUMPDEST STOP JUMPDEST PUSH2 0x84 PUSH1 0x4 DUP1 CALLDATASIZE SUB DUP2 ADD SWAP1 PUSH2 0x7F SWAP2 SWAP1 PUSH2 0x6C9 JUMP JUMPDEST PUSH2 0x2C6 JUMP JUMPDEST PUSH1 0x40 MLOAD PUSH2 0x91 SWAP2 SWAP1 PUSH2 0x760 JUMP JUMPDEST PUSH1 0x40 MLOAD DUP1 SWAP2 SUB SWAP1 RETURN JUMPDEST PUSH2 0xB4 PUSH1 0x4 DUP1 CALLDATASIZE SUB DUP2 ADD SWAP1 PUSH2 0xAF SWAP2 SWAP1 PUSH2 0x779 JUMP JUMPDEST PUSH2 0x480 JUMP JUMPDEST PUSH1 0x40 MLOAD PUSH2 0xC1 SWAP2 SWAP1 PUSH2 0x807 JUMP JUMPDEST PUSH1 0x40 MLOAD DUP1 SWAP2 SUB SWAP1 RETURN JUMPDEST PUSH2 0xE4 PUSH1 0x4 DUP1 CALLDATASIZE SUB DUP2 ADD SWAP1 PUSH2 0xDF SWAP2 SWAP1 PUSH2 0x779 JUMP JUMPDEST PUSH2 0x4B2 JUMP JUMPDEST STOP JUMPDEST DUP3 DUP3 DUP3 PUSH0 DUP1 SHL PUSH0 DUP5 PUSH1 0x40 MLOAD PUSH2 0xFB SWAP2 SWAP1 PUSH2 0x872 JUMP JUMPDEST SWAP1 DUP2 MSTORE PUSH1 0x20 ADD PUSH1 0x40 MLOAD DUP1 SWAP2 SUB SWAP1 KECCAK256 SLOAD SUB PUSH2 0x14A JUMPI PUSH1 0x40 MLOAD PUSH32 0x8C379A000000000000000000000000000000000000000000000000000000000 DUP2 MSTORE PUSH1 0x4 ADD PUSH2 0x141 SWAP1 PUSH2 0x8E2 JUMP JUMPDEST PUSH1 0x40 MLOAD DUP1 SWAP2 SUB SWAP1 REVERT JUMPDEST PUSH0 DUP4 PUSH1 0x40 MLOAD PUSH2 0x159 SWAP2 SWAP1 PUSH2 0x872 JUMP JUMPDEST SWAP1 DUP2 MSTORE PUSH1 0x20 ADD PUSH1 0x40 MLOAD DUP1 SWAP2 SUB SWAP1 KECCAK256 SLOAD PUSH2 0x172 DUP5 DUP5 PUSH2 0x480 JUMP JUMPDEST SUB PUSH2 0x1A3 JUMPI PUSH0 PUSH1 0x1 DUP5 PUSH1 0x40 MLOAD PUSH2 0x188 SWAP2 SWAP1 PUSH2 0x872 JUMP JUMPDEST SWAP1 DUP2 MSTORE PUSH1 0x20 ADD PUSH1 0x40 MLOAD DUP1 SWAP2 SUB SWAP1 KECCAK256 DUP2 SWAP1 SSTORE POP PUSH1 0x1 SWAP1 POP PUSH2 0x236 JUMP JUMPDEST PUSH1 0x1 DUP4 PUSH1 0x40 MLOAD PUSH2 0x1B3 SWAP2 SWAP1 PUSH2 0x872 JUMP JUMPDEST SWAP1 DUP2 MSTORE PUSH1 0x20 ADD PUSH1 0x40 MLOAD DUP1 SWAP2 SUB SWAP1 KECCAK256 PUSH0 DUP2 SLOAD DUP1 SWAP3 SWAP2 SWAP1 PUSH2 0x1D1 SWAP1 PUSH2 0x936 JUMP JUMPDEST SWAP2 SWAP1 POP SSTORE POP PUSH1 0x5 PUSH1 0x1 DUP5 PUSH1 0x40 MLOAD PUSH2 0x1E8 SWAP2 SWAP1 PUSH2 0x872 JUMP JUMPDEST SWAP1 DUP2 MSTORE PUSH1 0x20 ADD PUSH1 0x40 MLOAD DUP1 SWAP2 SUB SWAP1 KECCAK256 SLOAD SUB PUSH2 0x232 JUMPI PUSH32 0xB2954B4A017EC5E9F8E4D84D08834286BC1C5F41D7BF1B65E29336947CF78D49 PUSH1 0x40 MLOAD PUSH2 0x229 SWAP1 PUSH2 0x9C7 JUMP JUMPDEST PUSH1 0x40 MLOAD DUP1 SWAP2 SUB SWAP1 LOG1 JUMPDEST PUSH0 SWAP1 POP JUMPDEST PUSH1 0x1 ISZERO ISZERO DUP5 ISZERO ISZERO EQ PUSH2 0x27D JUMPI PUSH1 0x40 MLOAD PUSH32 0x8C379A000000000000000000000000000000000000000000000000000000000 DUP2 MSTORE PUSH1 0x4 ADD PUSH2 0x274 SWAP1 PUSH2 0xA2F JUMP JUMPDEST PUSH1 0x40 MLOAD DUP1 SWAP2 SUB SWAP1 REVERT JUMPDEST PUSH0 DUP7 PUSH1 0x40 MLOAD PUSH2 0x28C SWAP2 SWAP1 PUSH2 0x872 JUMP JUMPDEST SWAP1 DUP2 MSTORE PUSH1 0x20 ADD PUSH1 0x40 MLOAD DUP1 SWAP2 SUB SWAP1 KECCAK256 PUSH0 SWAP1 SSTORE PUSH1 0x1 DUP7 PUSH1 0x40 MLOAD PUSH2 0x2AD SWAP2 SWAP1 PUSH2 0x872 JUMP JUMPDEST SWAP1 DUP2 MSTORE PUSH1 0x20 ADD PUSH1 0x40 MLOAD DUP1 SWAP2 SUB SWAP1 KECCAK256 PUSH0 SWAP1 SSTORE POP POP POP POP POP POP JUMP JUMPDEST PUSH0 DUP4 DUP4 DUP4 PUSH0 DUP1 SHL PUSH0 DUP5 PUSH1 0x40 MLOAD PUSH2 0x2DC SWAP2 SWAP1 PUSH2 0x872 JUMP JUMPDEST SWAP1 DUP2 MSTORE PUSH1 0x20 ADD PUSH1 0x40 MLOAD DUP1 SWAP2 SUB SWAP1 KECCAK256 SLOAD SUB PUSH2 0x32B JUMPI PUSH1 0x40 MLOAD PUSH32 0x8C379A000000000000000000000000000000000000000000000000000000000 DUP2 MSTORE PUSH1 0x4 ADD PUSH2 0x322 SWAP1 PUSH2 0x8E2 JUMP JUMPDEST PUSH1 0x40 MLOAD DUP1 SWAP2 SUB SWAP1 REVERT JUMPDEST PUSH0 DUP4 PUSH1 0x40 MLOAD PUSH2 0x33A SWAP2 SWAP1 PUSH2 0x872 JUMP JUMPDEST SWAP1 DUP2 MSTORE PUSH1 0x20 ADD PUSH1 0x40 MLOAD DUP1 SWAP2 SUB SWAP1 KECCAK256 SLOAD PUSH2 0x353 DUP5 DUP5 PUSH2 0x480 JUMP JUMPDEST SUB PUSH2 0x384 JUMPI PUSH0 PUSH1 0x1 DUP5 PUSH1 0x40 MLOAD PUSH2 0x369 SWAP2 SWAP1 PUSH2 0x872 JUMP JUMPDEST SWAP1 DUP2 MSTORE PUSH1 0x20 ADD PUSH1 0x40 MLOAD DUP1 SWAP2 SUB SWAP1 KECCAK256 DUP2 SWAP1 SSTORE POP PUSH1 0x1 SWAP1 POP PUSH2 0x417 JUMP JUMPDEST PUSH1 0x1 DUP4 PUSH1 0x40 MLOAD PUSH2 0x394 SWAP2 SWAP1 PUSH2 0x872 JUMP JUMPDEST SWAP1 DUP2 MSTORE PUSH1 0x20 ADD PUSH1 0x40 MLOAD DUP1 SWAP2 SUB SWAP1 KECCAK256 PUSH0 DUP2 SLOAD DUP1 SWAP3 SWAP2 SWAP1 PUSH2 0x3B2 SWAP1 PUSH2 0x936 JUMP JUMPDEST SWAP2 SWAP1 POP SSTORE POP PUSH1 0x5 PUSH1 0x1 DUP5 PUSH1 0x40 MLOAD PUSH2 0x3C9 SWAP2 SWAP1 PUSH2 0x872 JUMP JUMPDEST SWAP1 DUP2 MSTORE PUSH1 0x20 ADD PUSH1 0x40 MLOAD DUP1 SWAP2 SUB SWAP1 KECCAK256 SLOAD SUB PUSH2 0x413 JUMPI PUSH32 0xB2954B4A017EC5E9F8E4D84D08834286BC1C5F41D7BF1B65E29336947CF78D49 PUSH1 0x40 MLOAD PUSH2 0x40A SWAP1 PUSH2 0x9C7 JUMP JUMPDEST PUSH1 0x40 MLOAD DUP1 SWAP2 SUB SWAP1 LOG1 JUMPDEST PUSH0 SWAP1 POP JUMPDEST PUSH1 0x5 PUSH1 0x1 DUP9 PUSH1 0x40 MLOAD PUSH2 0x429 SWAP2 SWAP1 PUSH2 0x872 JUMP JUMPDEST SWAP1 DUP2 MSTORE PUSH1 0x20 ADD PUSH1 0x40 MLOAD DUP1 SWAP2 SUB SWAP1 KECCAK256 SLOAD SUB PUSH2 0x473 JUMPI PUSH32 0xB2954B4A017EC5E9F8E4D84D08834286BC1C5F41D7BF1B65E29336947CF78D49 PUSH1 0x40 MLOAD PUSH2 0x46A SWAP1 PUSH2 0x9C7 JUMP JUMPDEST PUSH1 0x40 MLOAD DUP1 SWAP2 SUB SWAP1 LOG1 JUMPDEST DUP5 SWAP4 POP POP POP POP SWAP4 SWAP3 POP POP POP JUMP JUMPDEST PUSH0 DUP3 DUP3 PUSH1 0x40 MLOAD PUSH1 0x20 ADD PUSH2 0x494 SWAP3 SWAP2 SWAP1 PUSH2 0xA4D JUMP JUMPDEST PUSH1 0x40 MLOAD PUSH1 0x20 DUP2 DUP4 SUB SUB DUP2 MSTORE SWAP1 PUSH1 0x40 MSTORE DUP1 MLOAD SWAP1 PUSH1 0x20 ADD KECCAK256 SWAP1 POP SWAP3 SWAP2 POP POP JUMP JUMPDEST PUSH0 DUP1 SHL PUSH0 DUP4 PUSH1 0x40 MLOAD PUSH2 0x4C4 SWAP2 SWAP1 PUSH2 0x872 JUMP JUMPDEST SWAP1 DUP2 MSTORE PUSH1 0x20 ADD PUSH1 0x40 MLOAD DUP1 SWAP2 SUB SWAP1 KECCAK256 SLOAD EQ PUSH2 0x513 JUMPI PUSH1 0x40 MLOAD PUSH32 0x8C379A000000000000000000000000000000000000000000000000000000000 DUP2 MSTORE PUSH1 0x4 ADD PUSH2 0x50A SWAP1 PUSH2 0xABA JUMP JUMPDEST PUSH1 0x40 MLOAD DUP1 SWAP2 SUB SWAP1 REVERT JUMPDEST PUSH0 PUSH2 0x51E DUP4 DUP4 PUSH2 0x480 JUMP JUMPDEST SWAP1 POP DUP1 PUSH0 DUP5 PUSH1 0x40 MLOAD PUSH2 0x530 SWAP2 SWAP1 PUSH2 0x872 JUMP JUMPDEST SWAP1 DUP2 MSTORE PUSH1 0x20 ADD PUSH1 0x40 MLOAD DUP1 SWAP2 SUB SWAP1 KECCAK256 DUP2 SWAP1 SSTORE POP POP POP POP JUMP JUMPDEST PUSH0 PUSH1 0x40 MLOAD SWAP1 POP SWAP1 JUMP JUMPDEST PUSH0 DUP1 REVERT JUMPDEST PUSH0 DUP1 REVERT JUMPDEST PUSH0 DUP1 REVERT JUMPDEST PUSH0 DUP1 REVERT JUMPDEST PUSH0 PUSH1 0x1F NOT PUSH1 0x1F DUP4 ADD AND SWAP1 POP SWAP2 SWAP1 POP JUMP JUMPDEST PUSH32 0x4E487B7100000000000000000000000000000000000000000000000000000000 PUSH0 MSTORE PUSH1 0x41 PUSH1 0x4 MSTORE PUSH1 0x24 PUSH0 REVERT JUMPDEST PUSH2 0x5A6 DUP3 PUSH2 0x560 JUMP JUMPDEST DUP2 ADD DUP2 DUP2 LT PUSH8 0xFFFFFFFFFFFFFFFF DUP3 GT OR ISZERO PUSH2 0x5C5 JUMPI PUSH2 0x5C4 PUSH2 0x570 JUMP JUMPDEST JUMPDEST DUP1 PUSH1 0x40 MSTORE POP POP POP JUMP JUMPDEST PUSH0 PUSH2 0x5D7 PUSH2 0x547 JUMP JUMPDEST SWAP1 POP PUSH2 0x5E3 DUP3 DUP3 PUSH2 0x59D JUMP JUMPDEST SWAP2 SWAP1 POP JUMP JUMPDEST PUSH0 PUSH8 0xFFFFFFFFFFFFFFFF DUP3 GT ISZERO PUSH2 0x602 JUMPI PUSH2 0x601 PUSH2 0x570 JUMP JUMPDEST JUMPDEST PUSH2 0x60B DUP3 PUSH2 0x560 JUMP JUMPDEST SWAP1 POP PUSH1 0x20 DUP2 ADD SWAP1 POP SWAP2 SWAP1 POP JUMP JUMPDEST DUP3 DUP2 DUP4 CALLDATACOPY PUSH0 DUP4 DUP4 ADD MSTORE POP POP POP JUMP JUMPDEST PUSH0 PUSH2 0x638 PUSH2 0x633 DUP5 PUSH2 0x5E8 JUMP JUMPDEST PUSH2 0x5CE JUMP JUMPDEST SWAP1 POP DUP3 DUP2 MSTORE PUSH1 0x20 DUP2 ADD DUP5 DUP5 DUP5 ADD GT ISZERO PUSH2 0x654 JUMPI PUSH2 0x653 PUSH2 0x55C JUMP JUMPDEST JUMPDEST PUSH2 0x65F DUP5 DUP3 DUP6 PUSH2 0x618 JUMP JUMPDEST POP SWAP4 SWAP3 POP POP POP JUMP JUMPDEST PUSH0 DUP3 PUSH1 0x1F DUP4 ADD SLT PUSH2 0x67B JUMPI PUSH2 0x67A PUSH2 0x558 JUMP JUMPDEST JUMPDEST DUP2 CALLDATALOAD PUSH2 0x68B DUP5 DUP3 PUSH1 0x20 DUP7 ADD PUSH2 0x626 JUMP JUMPDEST SWAP2 POP POP SWAP3 SWAP2 POP POP JUMP JUMPDEST PUSH0 DUP2 ISZERO ISZERO SWAP1 POP SWAP2 SWAP1 POP JUMP JUMPDEST PUSH2 0x6A8 DUP2 PUSH2 0x694 JUMP JUMPDEST DUP2 EQ PUSH2 0x6B2 JUMPI PUSH0 DUP1 REVERT JUMPDEST POP JUMP JUMPDEST PUSH0 DUP2 CALLDATALOAD SWAP1 POP PUSH2 0x6C3 DUP2 PUSH2 0x69F JUMP JUMPDEST SWAP3 SWAP2 POP POP JUMP JUMPDEST PUSH0 DUP1 PUSH0 PUSH1 0x60 DUP5 DUP7 SUB SLT ISZERO PUSH2 0x6E0 JUMPI PUSH2 0x6DF PUSH2 0x550 JUMP JUMPDEST JUMPDEST PUSH0 DUP5 ADD CALLDATALOAD PUSH8 0xFFFFFFFFFFFFFFFF DUP2 GT ISZERO PUSH2 0x6FD JUMPI PUSH2 0x6FC PUSH2 0x554 JUMP JUMPDEST JUMPDEST PUSH2 0x709 DUP7 DUP3 DUP8 ADD PUSH2 0x667 JUMP JUMPDEST SWAP4 POP POP PUSH1 0x20 DUP5 ADD CALLDATALOAD PUSH8 0xFFFFFFFFFFFFFFFF DUP2 GT ISZERO PUSH2 0x72A JUMPI PUSH2 0x729 PUSH2 0x554 JUMP JUMPDEST JUMPDEST PUSH2 0x736 DUP7 DUP3 DUP8 ADD PUSH2 0x667 JUMP JUMPDEST SWAP3 POP POP PUSH1 0x40 PUSH2 0x747 DUP7 DUP3 DUP8 ADD PUSH2 0x6B5 JUMP JUMPDEST SWAP2 POP POP SWAP3 POP SWAP3 POP SWAP3 JUMP JUMPDEST PUSH2 0x75A DUP2 PUSH2 0x694 JUMP JUMPDEST DUP3 MSTORE POP POP JUMP JUMPDEST PUSH0 PUSH1 0x20 DUP3 ADD SWAP1 POP PUSH2 0x773 PUSH0 DUP4 ADD DUP5 PUSH2 0x751 JUMP JUMPDEST SWAP3 SWAP2 POP POP JUMP JUMPDEST PUSH0 DUP1 PUSH1 0x40 DUP4 DUP6 SUB SLT ISZERO PUSH2 0x78F JUMPI PUSH2 0x78E PUSH2 0x550 JUMP JUMPDEST JUMPDEST PUSH0 DUP4 ADD CALLDATALOAD PUSH8 0xFFFFFFFFFFFFFFFF DUP2 GT ISZERO PUSH2 0x7AC JUMPI PUSH2 0x7AB PUSH2 0x554 JUMP JUMPDEST JUMPDEST PUSH2 0x7B8 DUP6 DUP3 DUP7 ADD PUSH2 0x667 JUMP JUMPDEST SWAP3 POP POP PUSH1 0x20 DUP4 ADD CALLDATALOAD PUSH8 0xFFFFFFFFFFFFFFFF DUP2 GT ISZERO PUSH2 0x7D9 JUMPI PUSH2 0x7D8 PUSH2 0x554 JUMP JUMPDEST JUMPDEST PUSH2 0x7E5 DUP6 DUP3 DUP7 ADD PUSH2 0x667 JUMP JUMPDEST SWAP2 POP POP SWAP3 POP SWAP3 SWAP1 POP JUMP JUMPDEST PUSH0 DUP2 SWAP1 POP SWAP2 SWAP1 POP JUMP JUMPDEST PUSH2 0x801 DUP2 PUSH2 0x7EF JUMP JUMPDEST DUP3 MSTORE POP POP JUMP JUMPDEST PUSH0 PUSH1 0x20 DUP3 ADD SWAP1 POP PUSH2 0x81A PUSH0 DUP4 ADD DUP5 PUSH2 0x7F8 JUMP JUMPDEST SWAP3 SWAP2 POP POP JUMP JUMPDEST PUSH0 DUP2 MLOAD SWAP1 POP SWAP2 SWAP1 POP JUMP JUMPDEST PUSH0 DUP2 SWAP1 POP SWAP3 SWAP2 POP POP JUMP JUMPDEST DUP3 DUP2 DUP4 MCOPY PUSH0 DUP4 DUP4 ADD MSTORE POP POP POP JUMP JUMPDEST PUSH0 PUSH2 0x84C DUP3 PUSH2 0x820 JUMP JUMPDEST PUSH2 0x856 DUP2 DUP6 PUSH2 0x82A JUMP JUMPDEST SWAP4 POP PUSH2 0x866 DUP2 DUP6 PUSH1 0x20 DUP7 ADD PUSH2 0x834 JUMP JUMPDEST DUP1 DUP5 ADD SWAP2 POP POP SWAP3 SWAP2 POP POP JUMP JUMPDEST PUSH0 PUSH2 0x87D DUP3 DUP5 PUSH2 0x842 JUMP JUMPDEST SWAP2 POP DUP2 SWAP1 POP SWAP3 SWAP2 POP POP JUMP JUMPDEST PUSH0 DUP3 DUP3 MSTORE PUSH1 0x20 DUP3 ADD SWAP1 POP SWAP3 SWAP2 POP POP JUMP JUMPDEST PUSH32 0x5369676E20757020666972737400000000000000000000000000000000000000 PUSH0 DUP3 ADD MSTORE POP JUMP JUMPDEST PUSH0 PUSH2 0x8CC PUSH1 0xD DUP4 PUSH2 0x888 JUMP JUMPDEST SWAP2 POP PUSH2 0x8D7 DUP3 PUSH2 0x898 JUMP JUMPDEST PUSH1 0x20 DUP3 ADD SWAP1 POP SWAP2 SWAP1 POP JUMP JUMPDEST PUSH0 PUSH1 0x20 DUP3 ADD SWAP1 POP DUP2 DUP2 SUB PUSH0 DUP4 ADD MSTORE PUSH2 0x8F9 DUP2 PUSH2 0x8C0 JUMP JUMPDEST SWAP1 POP SWAP2 SWAP1 POP JUMP JUMPDEST PUSH32 0x4E487B7100000000000000000000000000000000000000000000000000000000 PUSH0 MSTORE PUSH1 0x11 PUSH1 0x4 MSTORE PUSH1 0x24 PUSH0 REVERT JUMPDEST PUSH0 DUP2 SWAP1 POP SWAP2 SWAP1 POP JUMP JUMPDEST PUSH0 PUSH2 0x940 DUP3 PUSH2 0x92D JUMP JUMPDEST SWAP2 POP PUSH32 0xFFFFFFFFFFFFFFFFFFFFFFFFFFFFFFFFFFFFFFFFFFFFFFFFFFFFFFFFFFFFFFFF DUP3 SUB PUSH2 0x972 JUMPI PUSH2 0x971 PUSH2 0x900 JUMP JUMPDEST JUMPDEST PUSH1 0x1 DUP3 ADD SWAP1 POP SWAP2 SWAP1 POP JUMP JUMPDEST PUSH32 0x4368616E67652050770000000000000000000000000000000000000000000000 PUSH0 DUP3 ADD MSTORE POP JUMP JUMPDEST PUSH0 PUSH2 0x9B1 PUSH1 0x9 DUP4 PUSH2 0x888 JUMP JUMPDEST SWAP2 POP PUSH2 0x9BC DUP3 PUSH2 0x97D JUMP JUMPDEST PUSH1 0x20 DUP3 ADD SWAP1 POP SWAP2 SWAP1 POP JUMP JUMPDEST PUSH0 PUSH1 0x20 DUP3 ADD SWAP1 POP DUP2 DUP2 SUB PUSH0 DUP4 ADD MSTORE PUSH2 0x9DE DUP2 PUSH2 0x9A5 JUMP JUMPDEST SWAP1 POP SWAP2 SWAP1 POP JUMP JUMPDEST PUSH32 0x6C6F67696E206661696C65640000000000000000000000000000000000000000 PUSH0 DUP3 ADD MSTORE POP JUMP JUMPDEST PUSH0 PUSH2 0xA19 PUSH1 0xC DUP4 PUSH2 0x888 JUMP JUMPDEST SWAP2 POP PUSH2 0xA24 DUP3 PUSH2 0x9E5 JUMP JUMPDEST PUSH1 0x20 DUP3 ADD SWAP1 POP SWAP2 SWAP1 POP JUMP JUMPDEST PUSH0 PUSH1 0x20 DUP3 ADD SWAP1 POP DUP2 DUP2 SUB PUSH0 DUP4 ADD MSTORE PUSH2 0xA46 DUP2 PUSH2 0xA0D JUMP JUMPDEST SWAP1 POP SWAP2 SWAP1 POP JUMP JUMPDEST PUSH0 PUSH2 0xA58 DUP3 DUP6 PUSH2 0x842 JUMP JUMPDEST SWAP2 POP PUSH2 0xA64 DUP3 DUP5 PUSH2 0x842 JUMP JUMPDEST SWAP2 POP DUP2 SWAP1 POP SWAP4 SWAP3 POP POP POP JUMP JUMPDEST PUSH32 0x6E6F706500000000000000000000000000000000000000000000000000000000 PUSH0 DUP3 ADD MSTORE POP JUMP JUMPDEST PUSH0 PUSH2 0xAA4 PUSH1 0x4 DUP4 PUSH2 0x888 JUMP JUMPDEST SWAP2 POP PUSH2 0xAAF DUP3 PUSH2 0xA70 JUMP JUMPDEST PUSH1 0x20 DUP3 ADD SWAP1 POP SWAP2 SWAP1 POP JUMP JUMPDEST PUSH0 PUSH1 0x20 DUP3 ADD SWAP1 POP DUP2 DUP2 SUB PUSH0 DUP4 ADD MSTORE PUSH2 0xAD1 DUP2 PUSH2 0xA98 JUMP JUMPDEST SWAP1 POP SWAP2 SWAP1 POP JUMP INVALID LOG2 PUSH5 0x6970667358 0x22 SLT KECCAK256 PUSH23 0x2EF76FF11836640666F6CA8BC8376D5246DFE16F333D7D PUSH22 0xC9A247A79983764736F6C6343000819003300000000 "
				},
				"gasEstimates": {
					"creation": {
						"codeDepositCost": "566000",
						"executionCost": "598",
						"totalCost": "566598"
					},
					"external": {
						"deleteAccount(string,string,bool)": "infinite",
						"getHash(string,string)": "infinite",
						"signIn(string,string,bool)": "infinite",
						"signUp(string,string)": "infinite"
					}
				},
				"methodIdentifiers": {
					"deleteAccount(string,string,bool)": "1185d6c7",
					"getHash(string,string)": "27cf399a",
					"signIn(string,string,bool)": "16de5a69",
					"signUp(string,string)": "a469a332"
				}
			},
			"storageLayout": {
				"storage": [
					{
						"astId": 149,
						"contract": "solidity_test/test3.sol:TEST3Answer",
						"label": "IDPW",
						"offset": 0,
						"slot": "0",
						"type": "t_mapping(t_string_memory_ptr,t_bytes32)"
					},
					{
						"astId": 153,
						"contract": "solidity_test/test3.sol:TEST3Answer",
						"label": "errCnt",
						"offset": 0,
						"slot": "1",
						"type": "t_mapping(t_string_memory_ptr,t_uint256)"
					}
				],
				"types": {
					"t_bytes32": {
						"encoding": "inplace",
						"label": "bytes32",
						"numberOfBytes": "32"
					},
					"t_mapping(t_string_memory_ptr,t_bytes32)": {
						"encoding": "mapping",
						"key": "t_string_memory_ptr",
						"label": "mapping(string => bytes32)",
						"numberOfBytes": "32",
						"value": "t_bytes32"
					},
					"t_mapping(t_string_memory_ptr,t_uint256)": {
						"encoding": "mapping",
						"key": "t_string_memory_ptr",
						"label": "mapping(string => uint256)",
						"numberOfBytes": "32",
						"value": "t_uint256"
					},
					"t_string_memory_ptr": {
						"encoding": "bytes",
						"label": "string",
						"numberOfBytes": "32"
					},
					"t_uint256": {
						"encoding": "inplace",
						"label": "uint256",
						"numberOfBytes": "32"
					}
				}
			},
			"userdoc": {
				"kind": "user",
				"methods": {},
				"version": 1
			}
		}
	}
}