{
	"solidity_test/test1.sol": {
		"TEST1": {
			"abi": [
				{
					"inputs": [],
					"name": "getAllStudent",
					"outputs": [
						{
							"components": [
								{
									"internalType": "string",
									"name": "name",
									"type": "string"
								},
								{
									"internalType": "uint256",
									"name": "number",
									"type": "uint256"
								},
								{
									"internalType": "uint256",
									"name": "score",
									"type": "uint256"
								},
								{
									"internalType": "string",
									"name": "grade",
									"type": "string"
								},
								{
									"internalType": "string[]",
									"name": "classes",
									"type": "string[]"
								}
							],
							"internalType": "struct TEST1.Student[]",
							"name": "",
							"type": "tuple[]"
						}
					],
					"stateMutability": "view",
					"type": "function"
				},
				{
					"inputs": [],
					"name": "getAllStudentNumber",
					"outputs": [
						{
							"internalType": "uint256",
							"name": "",
							"type": "uint256"
						}
					],
					"stateMutability": "view",
					"type": "function"
				},
				{
					"inputs": [],
					"name": "getStudentAvgScore",
					"outputs": [
						{
							"internalType": "uint256",
							"name": "",
							"type": "uint256"
						}
					],
					"stateMutability": "view",
					"type": "function"
				},
				{
					"inputs": [
						{
							"internalType": "string",
							"name": "_name",
							"type": "string"
						}
					],
					"name": "getStudentName",
					"outputs": [
						{
							"components": [
								{
									"internalType": "string",
									"name": "name",
									"type": "string"
								},
								{
									"internalType": "uint256",
									"name": "number",
									"type": "uint256"
								},
								{
									"internalType": "uint256",
									"name": "score",
									"type": "uint256"
								},
								{
									"internalType": "string",
									"name": "grade",
									"type": "string"
								},
								{
									"internalType": "string[]",
									"name": "classes",
									"type": "string[]"
								}
							],
							"internalType": "struct TEST1.Student",
							"name": "",
							"type": "tuple"
						}
					],
					"stateMutability": "view",
					"type": "function"
				},
				{
					"inputs": [
						{
							"internalType": "uint256",
							"name": "_number",
							"type": "uint256"
						}
					],
					"name": "getStudentNumber",
					"outputs": [
						{
							"components": [
								{
									"internalType": "string",
									"name": "name",
									"type": "string"
								},
								{
									"internalType": "uint256",
									"name": "number",
									"type": "uint256"
								},
								{
									"internalType": "uint256",
									"name": "score",
									"type": "uint256"
								},
								{
									"internalType": "string",
									"name": "grade",
									"type": "string"
								},
								{
									"internalType": "string[]",
									"name": "classes",
									"type": "string[]"
								}
							],
							"internalType": "struct TEST1.Student",
							"name": "",
							"type": "tuple"
						}
					],
					"stateMutability": "view",
					"type": "function"
				},
				{
					"inputs": [
						{
							"internalType": "string",
							"name": "_name",
							"type": "string"
						}
					],
					"name": "getStudentScore",
					"outputs": [
						{
							"internalType": "uint256",
							"name": "",
							"type": "uint256"
						}
					],
					"stateMutability": "view",
					"type": "function"
				},
				{
					"inputs": [],
					"name": "getStudentScoreF",
					"outputs": [
						{
							"internalType": "uint256",
							"name": "",
							"type": "uint256"
						},
						{
							"components": [
								{
									"internalType": "string",
									"name": "name",
									"type": "string"
								},
								{
									"internalType": "uint256",
									"name": "number",
									"type": "uint256"
								},
								{
									"internalType": "uint256",
									"name": "score",
									"type": "uint256"
								},
								{
									"internalType": "string",
									"name": "grade",
									"type": "string"
								},
								{
									"internalType": "string[]",
									"name": "classes",
									"type": "string[]"
								}
							],
							"internalType": "struct TEST1.Student[]",
							"name": "",
							"type": "tuple[]"
						}
					],
					"stateMutability": "view",
					"type": "function"
				},
				{
					"inputs": [],
					"name": "getTeacherState",
					"outputs": [
						{
							"internalType": "bool",
							"name": "",
							"type": "bool"
						}
					],
					"stateMutability": "view",
					"type": "function"
				},
				{
					"inputs": [],
					"name": "pushStudent",
					"outputs": [],
					"stateMutability": "nonpayable",
					"type": "function"
				},
				{
					"inputs": [],
					"name": "sClass",
					"outputs": [
						{
							"components": [
								{
									"internalType": "string",
									"name": "name",
									"type": "string"
								},
								{
									"internalType": "uint256",
									"name": "number",
									"type": "uint256"
								},
								{
									"internalType": "uint256",
									"name": "score",
									"type": "uint256"
								},
								{
									"internalType": "string",
									"name": "grade",
									"type": "string"
								},
								{
									"internalType": "string[]",
									"name": "classes",
									"type": "string[]"
								}
							],
							"internalType": "struct TEST1.Student[]",
							"name": "",
							"type": "tuple[]"
						}
					],
					"stateMutability": "view",
					"type": "function"
				},
				{
					"inputs": [
						{
							"internalType": "string",
							"name": "_name",
							"type": "string"
						},
						{
							"internalType": "uint256",
							"name": "_score",
							"type": "uint256"
						},
						{
							"internalType": "string[]",
							"name": "_class",
							"type": "string[]"
						}
					],
					"name": "setStudent",
					"outputs": [],
					"stateMutability": "nonpayable",
					"type": "function"
				}
			],
			"devdoc": {
				"kind": "dev",
				"methods": {},
				"version": 1
			},
			"evm": {
				"assembly": "    /* \"solidity_test/test1.sol\":1548:8878  contract TEST1 {... */\n  mstore(0x40, 0x80)\n  callvalue\n  dup1\n  iszero\n  tag_1\n  jumpi\n  0x00\n  dup1\n  revert\ntag_1:\n  pop\n  dataSize(sub_0)\n  dup1\n  dataOffset(sub_0)\n  0x00\n  codecopy\n  0x00\n  return\nstop\n\nsub_0: assembly {\n        /* \"solidity_test/test1.sol\":1548:8878  contract TEST1 {... */\n      mstore(0x40, 0x80)\n      callvalue\n      dup1\n      iszero\n      tag_1\n      jumpi\n      0x00\n      dup1\n      revert\n    tag_1:\n      pop\n      jumpi(tag_2, lt(calldatasize, 0x04))\n      shr(0xe0, calldataload(0x00))\n      dup1\n      0x7eac2ed7\n      gt\n      tag_14\n      jumpi\n      dup1\n      0x7eac2ed7\n      eq\n      tag_8\n      jumpi\n      dup1\n      0xd1170306\n      eq\n      tag_9\n      jumpi\n      dup1\n      0xd1726a62\n      eq\n      tag_10\n      jumpi\n      dup1\n      0xe5521501\n      eq\n      tag_11\n      jumpi\n      dup1\n      0xf317d020\n      eq\n      tag_12\n      jumpi\n      dup1\n      0xfd55ae15\n      eq\n      tag_13\n      jumpi\n      jump(tag_2)\n    tag_14:\n      dup1\n      0x133d0460\n      eq\n      tag_3\n      jumpi\n      dup1\n      0x4007924b\n      eq\n      tag_4\n      jumpi\n      dup1\n      0x4c6d0348\n      eq\n      tag_5\n      jumpi\n      dup1\n      0x504e966e\n      eq\n      tag_6\n      jumpi\n      dup1\n      0x6191f364\n      eq\n      tag_7\n      jumpi\n    tag_2:\n      0x00\n      dup1\n      revert\n        /* \"solidity_test/test1.sol\":5274:5371  function getAllStudent() public view returns(Student[] memory) {... */\n    tag_3:\n      tag_15\n      tag_16\n      jump\t// in\n    tag_15:\n      mload(0x40)\n      tag_17\n      swap2\n      swap1\n      tag_18\n      jump\t// in\n    tag_17:\n      mload(0x40)\n      dup1\n      swap2\n      sub\n      swap1\n      return\n        /* \"solidity_test/test1.sol\":7286:8256  function sClass() public view returns(Student[] memory) {... */\n    tag_4:\n      tag_19\n      tag_20\n      jump\t// in\n    tag_19:\n      mload(0x40)\n      tag_21\n      swap2\n      swap1\n      tag_18\n      jump\t// in\n    tag_21:\n      mload(0x40)\n      dup1\n      swap2\n      sub\n      swap1\n      return\n        /* \"solidity_test/test1.sol\":6414:7091  function getStudentScoreF() public view returns(uint, Student[] memory) {... */\n    tag_5:\n      tag_22\n      tag_23\n      jump\t// in\n    tag_22:\n      mload(0x40)\n      tag_24\n      swap3\n      swap2\n      swap1\n      tag_25\n      jump\t// in\n    tag_24:\n      mload(0x40)\n      dup1\n      swap2\n      sub\n      swap1\n      return\n        /* \"solidity_test/test1.sol\":5070:5168  function getAllStudentNumber() public view returns(uint) {... */\n    tag_6:\n      tag_26\n      tag_27\n      jump\t// in\n    tag_26:\n      mload(0x40)\n      tag_28\n      swap2\n      swap1\n      tag_29\n      jump\t// in\n    tag_28:\n      mload(0x40)\n      dup1\n      swap2\n      sub\n      swap1\n      return\n        /* \"solidity_test/test1.sol\":4316:4437  function getStudentNumber(uint _number) public view returns(Student memory) {... */\n    tag_7:\n      tag_30\n      0x04\n      dup1\n      calldatasize\n      sub\n      dup2\n      add\n      swap1\n      tag_31\n      swap2\n      swap1\n      tag_32\n      jump\t// in\n    tag_31:\n      tag_33\n      jump\t// in\n    tag_30:\n      mload(0x40)\n      tag_34\n      swap2\n      swap1\n      tag_35\n      jump\t// in\n    tag_34:\n      mload(0x40)\n      dup1\n      swap2\n      sub\n      swap1\n      return\n        /* \"solidity_test/test1.sol\":5480:5715  function getStudentAvgScore() public view returns(uint) {... */\n    tag_8:\n      tag_36\n      tag_37\n      jump\t// in\n    tag_36:\n      mload(0x40)\n      tag_38\n      swap2\n      swap1\n      tag_29\n      jump\t// in\n    tag_38:\n      mload(0x40)\n      dup1\n      swap2\n      sub\n      swap1\n      return\n        /* \"solidity_test/test1.sol\":3656:4193  function setStudent (string memory _name, uint _score, string[] memory _class) public {... */\n    tag_9:\n      tag_39\n      0x04\n      dup1\n      calldatasize\n      sub\n      dup2\n      add\n      swap1\n      tag_40\n      swap2\n      swap1\n      tag_41\n      jump\t// in\n    tag_40:\n      tag_42\n      jump\t// in\n    tag_39:\n      stop\n        /* \"solidity_test/test1.sol\":5862:6087  function getTeacherState() public view returns(bool) {... */\n    tag_10:\n      tag_43\n      tag_44\n      jump\t// in\n    tag_43:\n      mload(0x40)\n      tag_45\n      swap2\n      swap1\n      tag_46\n      jump\t// in\n    tag_45:\n      mload(0x40)\n      dup1\n      swap2\n      sub\n      swap1\n      return\n        /* \"solidity_test/test1.sol\":4786:4971  function getStudentScore(string memory _name) public view returns(uint) {... */\n    tag_11:\n      tag_47\n      0x04\n      dup1\n      calldatasize\n      sub\n      dup2\n      add\n      swap1\n      tag_48\n      swap2\n      swap1\n      tag_49\n      jump\t// in\n    tag_48:\n      tag_50\n      jump\t// in\n    tag_47:\n      mload(0x40)\n      tag_51\n      swap2\n      swap1\n      tag_29\n      jump\t// in\n    tag_51:\n      mload(0x40)\n      dup1\n      swap2\n      sub\n      swap1\n      return\n        /* \"solidity_test/test1.sol\":4554:4670  function getStudentName(string memory _name) public view returns(Student memory) {... */\n    tag_12:\n      tag_52\n      0x04\n      dup1\n      calldatasize\n      sub\n      dup2\n      add\n      swap1\n      tag_53\n      swap2\n      swap1\n      tag_49\n      jump\t// in\n    tag_53:\n      tag_54\n      jump\t// in\n    tag_52:\n      mload(0x40)\n      tag_55\n      swap2\n      swap1\n      tag_35\n      jump\t// in\n    tag_55:\n      mload(0x40)\n      dup1\n      swap2\n      sub\n      swap1\n      return\n        /* \"solidity_test/test1.sol\":8264:8873  function pushStudent() public {... */\n    tag_13:\n      tag_56\n      tag_57\n      jump\t// in\n    tag_56:\n      stop\n        /* \"solidity_test/test1.sol\":5274:5371  function getAllStudent() public view returns(Student[] memory) {... */\n    tag_16:\n        /* \"solidity_test/test1.sol\":5319:5335  Student[] memory */\n      0x60\n        /* \"solidity_test/test1.sol\":5355:5363  students */\n      0x00\n        /* \"solidity_test/test1.sol\":5348:5363  return students */\n      dup1\n      sload\n      dup1\n      0x20\n      mul\n      0x20\n      add\n      mload(0x40)\n      swap1\n      dup2\n      add\n      0x40\n      mstore\n      dup1\n      swap3\n      swap2\n      swap1\n      dup2\n      dup2\n      mstore\n      0x20\n      add\n      0x00\n      swap1\n    tag_59:\n      dup3\n      dup3\n      lt\n      iszero\n      tag_60\n      jumpi\n      dup4\n      dup3\n      swap1\n      0x00\n      mstore\n      keccak256(0x00, 0x20)\n      swap1\n      0x05\n      mul\n      add\n      mload(0x40)\n      dup1\n      0xa0\n      add\n      0x40\n      mstore\n      swap1\n      dup2\n      0x00\n      dup3\n      add\n      dup1\n      sload\n      tag_62\n      swap1\n      tag_63\n      jump\t// in\n    tag_62:\n      dup1\n      0x1f\n      add\n      0x20\n      dup1\n      swap2\n      div\n      mul\n      0x20\n      add\n      mload(0x40)\n      swap1\n      dup2\n      add\n      0x40\n      mstore\n      dup1\n      swap3\n      swap2\n      swap1\n      dup2\n      dup2\n      mstore\n      0x20\n      add\n      dup3\n      dup1\n      sload\n      tag_64\n      swap1\n      tag_63\n      jump\t// in\n    tag_64:\n      dup1\n      iszero\n      tag_65\n      jumpi\n      dup1\n      0x1f\n      lt\n      tag_66\n      jumpi\n      0x0100\n      dup1\n      dup4\n      sload\n      div\n      mul\n      dup4\n      mstore\n      swap2\n      0x20\n      add\n      swap2\n      jump(tag_65)\n    tag_66:\n      dup3\n      add\n      swap2\n      swap1\n      0x00\n      mstore\n      keccak256(0x00, 0x20)\n      swap1\n    tag_67:\n      dup2\n      sload\n      dup2\n      mstore\n      swap1\n      0x01\n      add\n      swap1\n      0x20\n      add\n      dup1\n      dup4\n      gt\n      tag_67\n      jumpi\n      dup3\n      swap1\n      sub\n      0x1f\n      and\n      dup3\n      add\n      swap2\n    tag_65:\n      pop\n      pop\n      pop\n      pop\n      pop\n      dup2\n      mstore\n      0x20\n      add\n      0x01\n      dup3\n      add\n      sload\n      dup2\n      mstore\n      0x20\n      add\n      0x02\n      dup3\n      add\n      sload\n      dup2\n      mstore\n      0x20\n      add\n      0x03\n      dup3\n      add\n      dup1\n      sload\n      tag_68\n      swap1\n      tag_63\n      jump\t// in\n    tag_68:\n      dup1\n      0x1f\n      add\n      0x20\n      dup1\n      swap2\n      div\n      mul\n      0x20\n      add\n      mload(0x40)\n      swap1\n      dup2\n      add\n      0x40\n      mstore\n      dup1\n      swap3\n      swap2\n      swap1\n      dup2\n      dup2\n      mstore\n      0x20\n      add\n      dup3\n      dup1\n      sload\n      tag_69\n      swap1\n      tag_63\n      jump\t// in\n    tag_69:\n      dup1\n      iszero\n      tag_70\n      jumpi\n      dup1\n      0x1f\n      lt\n      tag_71\n      jumpi\n      0x0100\n      dup1\n      dup4\n      sload\n      div\n      mul\n      dup4\n      mstore\n      swap2\n      0x20\n      add\n      swap2\n      jump(tag_70)\n    tag_71:\n      dup3\n      add\n      swap2\n      swap1\n      0x00\n      mstore\n      keccak256(0x00, 0x20)\n      swap1\n    tag_72:\n      dup2\n      sload\n      dup2\n      mstore\n      swap1\n      0x01\n      add\n      swap1\n      0x20\n      add\n      dup1\n      dup4\n      gt\n      tag_72\n      jumpi\n      dup3\n      swap1\n      sub\n      0x1f\n      and\n      dup3\n      add\n      swap2\n    tag_70:\n      pop\n      pop\n      pop\n      pop\n      pop\n      dup2\n      mstore\n      0x20\n      add\n      0x04\n      dup3\n      add\n      dup1\n      sload\n      dup1\n      0x20\n      mul\n      0x20\n      add\n      mload(0x40)\n      swap1\n      dup2\n      add\n      0x40\n      mstore\n      dup1\n      swap3\n      swap2\n      swap1\n      dup2\n      dup2\n      mstore\n      0x20\n      add\n      0x00\n      swap1\n    tag_73:\n      dup3\n      dup3\n      lt\n      iszero\n      tag_74\n      jumpi\n      dup4\n      dup3\n      swap1\n      0x00\n      mstore\n      keccak256(0x00, 0x20)\n      add\n      dup1\n      sload\n      tag_76\n      swap1\n      tag_63\n      jump\t// in\n    tag_76:\n      dup1\n      0x1f\n      add\n      0x20\n      dup1\n      swap2\n      div\n      mul\n      0x20\n      add\n      mload(0x40)\n      swap1\n      dup2\n      add\n      0x40\n      mstore\n      dup1\n      swap3\n      swap2\n      swap1\n      dup2\n      dup2\n      mstore\n      0x20\n      add\n      dup3\n      dup1\n      sload\n      tag_77\n      swap1\n      tag_63\n      jump\t// in\n    tag_77:\n      dup1\n      iszero\n      tag_78\n      jumpi\n      dup1\n      0x1f\n      lt\n      tag_79\n      jumpi\n      0x0100\n      dup1\n      dup4\n      sload\n      div\n      mul\n      dup4\n      mstore\n      swap2\n      0x20\n      add\n      swap2\n      jump(tag_78)\n    tag_79:\n      dup3\n      add\n      swap2\n      swap1\n      0x00\n      mstore\n      keccak256(0x00, 0x20)\n      swap1\n    tag_80:\n      dup2\n      sload\n      dup2\n      mstore\n      swap1\n      0x01\n      add\n      swap1\n      0x20\n      add\n      dup1\n      dup4\n      gt\n      tag_80\n      jumpi\n      dup3\n      swap1\n      sub\n      0x1f\n      and\n      dup3\n      add\n      swap2\n    tag_78:\n      pop\n      pop\n      pop\n      pop\n      pop\n      dup2\n      mstore\n      0x20\n      add\n      swap1\n      0x01\n      add\n      swap1\n      jump(tag_73)\n    tag_74:\n      pop\n      pop\n      pop\n      pop\n      dup2\n      mstore\n      pop\n      pop\n      dup2\n      mstore\n      0x20\n      add\n      swap1\n      0x01\n      add\n      swap1\n      jump(tag_59)\n    tag_60:\n      pop\n      pop\n      pop\n      pop\n      swap1\n      pop\n        /* \"solidity_test/test1.sol\":5274:5371  function getAllStudent() public view returns(Student[] memory) {... */\n      swap1\n      jump\t// out\n        /* \"solidity_test/test1.sol\":7286:8256  function sClass() public view returns(Student[] memory) {... */\n    tag_20:\n        /* \"solidity_test/test1.sol\":7324:7340  Student[] memory */\n      0x60\n        /* \"solidity_test/test1.sol\":7353:7379  Student[] memory _students */\n      0x00\n        /* \"solidity_test/test1.sol\":7396:7404  students */\n      dup1\n        /* \"solidity_test/test1.sol\":7396:7411  students.length */\n      dup1\n      sload\n      swap1\n      pop\n        /* \"solidity_test/test1.sol\":7382:7412  new Student[](students.length) */\n      0xffffffffffffffff\n      dup2\n      gt\n      iszero\n      tag_82\n      jumpi\n      tag_83\n      tag_84\n      jump\t// in\n    tag_83:\n    tag_82:\n      mload(0x40)\n      swap1\n      dup1\n      dup3\n      mstore\n      dup1\n      0x20\n      mul\n      0x20\n      add\n      dup3\n      add\n      0x40\n      mstore\n      dup1\n      iszero\n      tag_85\n      jumpi\n      dup2\n      0x20\n      add\n    tag_86:\n      tag_87\n      tag_88\n      jump\t// in\n    tag_87:\n      dup2\n      mstore\n      0x20\n      add\n      swap1\n      0x01\n      swap1\n      sub\n      swap1\n      dup2\n      tag_86\n      jumpi\n      swap1\n      pop\n    tag_85:\n      pop\n        /* \"solidity_test/test1.sol\":7353:7412  Student[] memory _students = new Student[](students.length) */\n      swap1\n      pop\n        /* \"solidity_test/test1.sol\":7523:7529  uint i */\n      0x00\n        /* \"solidity_test/test1.sol\":7518:7614  for (uint i = 0; i < students.length; i++) {... */\n    tag_89:\n        /* \"solidity_test/test1.sol\":7539:7547  students */\n      0x00\n        /* \"solidity_test/test1.sol\":7539:7554  students.length */\n      dup1\n      sload\n      swap1\n      pop\n        /* \"solidity_test/test1.sol\":7535:7536  i */\n      dup2\n        /* \"solidity_test/test1.sol\":7535:7554  i < students.length */\n      lt\n        /* \"solidity_test/test1.sol\":7518:7614  for (uint i = 0; i < students.length; i++) {... */\n      iszero\n      tag_90\n      jumpi\n        /* \"solidity_test/test1.sol\":7591:7599  students */\n      0x00\n        /* \"solidity_test/test1.sol\":7600:7601  i */\n      dup2\n        /* \"solidity_test/test1.sol\":7591:7602  students[i] */\n      dup2\n      sload\n      dup2\n      lt\n      tag_92\n      jumpi\n      tag_93\n      tag_94\n      jump\t// in\n    tag_93:\n    tag_92:\n      swap1\n      0x00\n      mstore\n      keccak256(0x00, 0x20)\n      swap1\n      0x05\n      mul\n      add\n        /* \"solidity_test/test1.sol\":7576:7602  _students[i] = students[i] */\n      mload(0x40)\n      dup1\n      0xa0\n      add\n      0x40\n      mstore\n      swap1\n      dup2\n      0x00\n      dup3\n      add\n      dup1\n      sload\n      tag_96\n      swap1\n      tag_63\n      jump\t// in\n    tag_96:\n      dup1\n      0x1f\n      add\n      0x20\n      dup1\n      swap2\n      div\n      mul\n      0x20\n      add\n      mload(0x40)\n      swap1\n      dup2\n      add\n      0x40\n      mstore\n      dup1\n      swap3\n      swap2\n      swap1\n      dup2\n      dup2\n      mstore\n      0x20\n      add\n      dup3\n      dup1\n      sload\n      tag_97\n      swap1\n      tag_63\n      jump\t// in\n    tag_97:\n      dup1\n      iszero\n      tag_98\n      jumpi\n      dup1\n      0x1f\n      lt\n      tag_99\n      jumpi\n      0x0100\n      dup1\n      dup4\n      sload\n      div\n      mul\n      dup4\n      mstore\n      swap2\n      0x20\n      add\n      swap2\n      jump(tag_98)\n    tag_99:\n      dup3\n      add\n      swap2\n      swap1\n      0x00\n      mstore\n      keccak256(0x00, 0x20)\n      swap1\n    tag_100:\n      dup2\n      sload\n      dup2\n      mstore\n      swap1\n      0x01\n      add\n      swap1\n      0x20\n      add\n      dup1\n      dup4\n      gt\n      tag_100\n      jumpi\n      dup3\n      swap1\n      sub\n      0x1f\n      and\n      dup3\n      add\n      swap2\n    tag_98:\n      pop\n      pop\n      pop\n      pop\n      pop\n      dup2\n      mstore\n      0x20\n      add\n      0x01\n      dup3\n      add\n      sload\n      dup2\n      mstore\n      0x20\n      add\n      0x02\n      dup3\n      add\n      sload\n      dup2\n      mstore\n      0x20\n      add\n      0x03\n      dup3\n      add\n      dup1\n      sload\n      tag_101\n      swap1\n      tag_63\n      jump\t// in\n    tag_101:\n      dup1\n      0x1f\n      add\n      0x20\n      dup1\n      swap2\n      div\n      mul\n      0x20\n      add\n      mload(0x40)\n      swap1\n      dup2\n      add\n      0x40\n      mstore\n      dup1\n      swap3\n      swap2\n      swap1\n      dup2\n      dup2\n      mstore\n      0x20\n      add\n      dup3\n      dup1\n      sload\n      tag_102\n      swap1\n      tag_63\n      jump\t// in\n    tag_102:\n      dup1\n      iszero\n      tag_103\n      jumpi\n      dup1\n      0x1f\n      lt\n      tag_104\n      jumpi\n      0x0100\n      dup1\n      dup4\n      sload\n      div\n      mul\n      dup4\n      mstore\n      swap2\n      0x20\n      add\n      swap2\n      jump(tag_103)\n    tag_104:\n      dup3\n      add\n      swap2\n      swap1\n      0x00\n      mstore\n      keccak256(0x00, 0x20)\n      swap1\n    tag_105:\n      dup2\n      sload\n      dup2\n      mstore\n      swap1\n      0x01\n      add\n      swap1\n      0x20\n      add\n      dup1\n      dup4\n      gt\n      tag_105\n      jumpi\n      dup3\n      swap1\n      sub\n      0x1f\n      and\n      dup3\n      add\n      swap2\n    tag_103:\n      pop\n      pop\n      pop\n      pop\n      pop\n      dup2\n      mstore\n      0x20\n      add\n      0x04\n      dup3\n      add\n      dup1\n      sload\n      dup1\n      0x20\n      mul\n      0x20\n      add\n      mload(0x40)\n      swap1\n      dup2\n      add\n      0x40\n      mstore\n      dup1\n      swap3\n      swap2\n      swap1\n      dup2\n      dup2\n      mstore\n      0x20\n      add\n      0x00\n      swap1\n    tag_106:\n      dup3\n      dup3\n      lt\n      iszero\n      tag_107\n      jumpi\n      dup4\n      dup3\n      swap1\n      0x00\n      mstore\n      keccak256(0x00, 0x20)\n      add\n      dup1\n      sload\n      tag_109\n      swap1\n      tag_63\n      jump\t// in\n    tag_109:\n      dup1\n      0x1f\n      add\n      0x20\n      dup1\n      swap2\n      div\n      mul\n      0x20\n      add\n      mload(0x40)\n      swap1\n      dup2\n      add\n      0x40\n      mstore\n      dup1\n      swap3\n      swap2\n      swap1\n      dup2\n      dup2\n      mstore\n      0x20\n      add\n      dup3\n      dup1\n      sload\n      tag_110\n      swap1\n      tag_63\n      jump\t// in\n    tag_110:\n      dup1\n      iszero\n      tag_111\n      jumpi\n      dup1\n      0x1f\n      lt\n      tag_112\n      jumpi\n      0x0100\n      dup1\n      dup4\n      sload\n      div\n      mul\n      dup4\n      mstore\n      swap2\n      0x20\n      add\n      swap2\n      jump(tag_111)\n    tag_112:\n      dup3\n      add\n      swap2\n      swap1\n      0x00\n      mstore\n      keccak256(0x00, 0x20)\n      swap1\n    tag_113:\n      dup2\n      sload\n      dup2\n      mstore\n      swap1\n      0x01\n      add\n      swap1\n      0x20\n      add\n      dup1\n      dup4\n      gt\n      tag_113\n      jumpi\n      dup3\n      swap1\n      sub\n      0x1f\n      and\n      dup3\n      add\n      swap2\n    tag_111:\n      pop\n      pop\n      pop\n      pop\n      pop\n      dup2\n      mstore\n      0x20\n      add\n      swap1\n      0x01\n      add\n      swap1\n      jump(tag_106)\n    tag_107:\n      pop\n      pop\n      pop\n      pop\n      dup2\n      mstore\n      pop\n      pop\n        /* \"solidity_test/test1.sol\":7576:7585  _students */\n      dup3\n        /* \"solidity_test/test1.sol\":7586:7587  i */\n      dup3\n        /* \"solidity_test/test1.sol\":7576:7588  _students[i] */\n      dup2\n      mload\n      dup2\n      lt\n      tag_114\n      jumpi\n      tag_115\n      tag_94\n      jump\t// in\n    tag_115:\n    tag_114:\n      0x20\n      mul\n      0x20\n      add\n      add\n        /* \"solidity_test/test1.sol\":7576:7602  _students[i] = students[i] */\n      dup2\n      swap1\n      mstore\n      pop\n        /* \"solidity_test/test1.sol\":7556:7559  i++ */\n      dup1\n      dup1\n      0x01\n      add\n      swap2\n      pop\n      pop\n        /* \"solidity_test/test1.sol\":7518:7614  for (uint i = 0; i < students.length; i++) {... */\n      jump(tag_89)\n    tag_90:\n      pop\n        /* \"solidity_test/test1.sol\":7630:7636  uint i */\n      0x00\n        /* \"solidity_test/test1.sol\":7626:7908  for(uint i=0; i<students.length;i++) {... */\n    tag_116:\n        /* \"solidity_test/test1.sol\":7642:7650  students */\n      0x00\n        /* \"solidity_test/test1.sol\":7642:7657  students.length */\n      dup1\n      sload\n      swap1\n      pop\n        /* \"solidity_test/test1.sol\":7640:7641  i */\n      dup2\n        /* \"solidity_test/test1.sol\":7640:7657  i<students.length */\n      lt\n        /* \"solidity_test/test1.sol\":7626:7908  for(uint i=0; i<students.length;i++) {... */\n      iszero\n      tag_117\n      jumpi\n        /* \"solidity_test/test1.sol\":7682:7688  uint j */\n      0x00\n        /* \"solidity_test/test1.sol\":7691:7692  1 */\n      0x01\n        /* \"solidity_test/test1.sol\":7689:7690  i */\n      dup3\n        /* \"solidity_test/test1.sol\":7689:7692  i+1 */\n      tag_122\n      swap2\n      swap1\n      tag_123\n      jump\t// in\n    tag_122:\n        /* \"solidity_test/test1.sol\":7682:7692  uint j=i+1 */\n      swap1\n      pop\n        /* \"solidity_test/test1.sol\":7678:7897  for(uint j=i+1; j<students.length;j++) {... */\n    tag_119:\n        /* \"solidity_test/test1.sol\":7696:7704  students */\n      0x00\n        /* \"solidity_test/test1.sol\":7696:7711  students.length */\n      dup1\n      sload\n      swap1\n      pop\n        /* \"solidity_test/test1.sol\":7694:7695  j */\n      dup2\n        /* \"solidity_test/test1.sol\":7694:7711  j<students.length */\n      lt\n        /* \"solidity_test/test1.sol\":7678:7897  for(uint j=i+1; j<students.length;j++) {... */\n      iszero\n      tag_120\n      jumpi\n        /* \"solidity_test/test1.sol\":7760:7769  _students */\n      dup3\n        /* \"solidity_test/test1.sol\":7770:7771  j */\n      dup2\n        /* \"solidity_test/test1.sol\":7760:7772  _students[j] */\n      dup2\n      mload\n      dup2\n      lt\n      tag_124\n      jumpi\n      tag_125\n      tag_94\n      jump\t// in\n    tag_125:\n    tag_124:\n      0x20\n      mul\n      0x20\n      add\n      add\n      mload\n        /* \"solidity_test/test1.sol\":7760:7778  _students[j].score */\n      0x40\n      add\n      mload\n        /* \"solidity_test/test1.sol\":7739:7748  _students */\n      dup4\n        /* \"solidity_test/test1.sol\":7749:7750  i */\n      dup4\n        /* \"solidity_test/test1.sol\":7739:7751  _students[i] */\n      dup2\n      mload\n      dup2\n      lt\n      tag_126\n      jumpi\n      tag_127\n      tag_94\n      jump\t// in\n    tag_127:\n    tag_126:\n      0x20\n      mul\n      0x20\n      add\n      add\n      mload\n        /* \"solidity_test/test1.sol\":7739:7757  _students[i].score */\n      0x40\n      add\n      mload\n        /* \"solidity_test/test1.sol\":7739:7778  _students[i].score < _students[j].score */\n      lt\n        /* \"solidity_test/test1.sol\":7736:7882  if(_students[i].score < _students[j].score) {... */\n      iszero\n      tag_128\n      jumpi\n        /* \"solidity_test/test1.sol\":7835:7844  _students */\n      dup3\n        /* \"solidity_test/test1.sol\":7845:7846  j */\n      dup2\n        /* \"solidity_test/test1.sol\":7835:7847  _students[j] */\n      dup2\n      mload\n      dup2\n      lt\n      tag_129\n      jumpi\n      tag_130\n      tag_94\n      jump\t// in\n    tag_130:\n    tag_129:\n      0x20\n      mul\n      0x20\n      add\n      add\n      mload\n        /* \"solidity_test/test1.sol\":7849:7858  _students */\n      dup4\n        /* \"solidity_test/test1.sol\":7859:7860  i */\n      dup4\n        /* \"solidity_test/test1.sol\":7849:7861  _students[i] */\n      dup2\n      mload\n      dup2\n      lt\n      tag_131\n      jumpi\n      tag_132\n      tag_94\n      jump\t// in\n    tag_132:\n    tag_131:\n      0x20\n      mul\n      0x20\n      add\n      add\n      mload\n        /* \"solidity_test/test1.sol\":7804:7813  _students */\n      dup5\n        /* \"solidity_test/test1.sol\":7814:7815  i */\n      dup5\n        /* \"solidity_test/test1.sol\":7804:7816  _students[i] */\n      dup2\n      mload\n      dup2\n      lt\n      tag_133\n      jumpi\n      tag_134\n      tag_94\n      jump\t// in\n    tag_134:\n    tag_133:\n      0x20\n      mul\n      0x20\n      add\n      add\n        /* \"solidity_test/test1.sol\":7818:7827  _students */\n      dup6\n        /* \"solidity_test/test1.sol\":7828:7829  j */\n      dup5\n        /* \"solidity_test/test1.sol\":7818:7830  _students[j] */\n      dup2\n      mload\n      dup2\n      lt\n      tag_135\n      jumpi\n      tag_136\n      tag_94\n      jump\t// in\n    tag_136:\n    tag_135:\n      0x20\n      mul\n      0x20\n      add\n      add\n        /* \"solidity_test/test1.sol\":7803:7862  (_students[i], _students[j]) = (_students[j], _students[i]) */\n      dup3\n      swap1\n      mstore\n      dup3\n      swap1\n      mstore\n      pop\n      pop\n        /* \"solidity_test/test1.sol\":7736:7882  if(_students[i].score < _students[j].score) {... */\n    tag_128:\n        /* \"solidity_test/test1.sol\":7712:7715  j++ */\n      dup1\n      dup1\n      0x01\n      add\n      swap2\n      pop\n      pop\n        /* \"solidity_test/test1.sol\":7678:7897  for(uint j=i+1; j<students.length;j++) {... */\n      jump(tag_119)\n    tag_120:\n      pop\n        /* \"solidity_test/test1.sol\":7658:7661  i++ */\n      dup1\n      dup1\n      0x01\n      add\n      swap2\n      pop\n      pop\n        /* \"solidity_test/test1.sol\":7626:7908  for(uint i=0; i<students.length;i++) {... */\n      jump(tag_116)\n    tag_117:\n      pop\n        /* \"solidity_test/test1.sol\":8109:8128  Student[] memory _s */\n      0x00\n        /* \"solidity_test/test1.sol\":8145:8146  4 */\n      0x04\n        /* \"solidity_test/test1.sol\":8131:8147  new Student[](4) */\n      0xffffffffffffffff\n      dup2\n      gt\n      iszero\n      tag_137\n      jumpi\n      tag_138\n      tag_84\n      jump\t// in\n    tag_138:\n    tag_137:\n      mload(0x40)\n      swap1\n      dup1\n      dup3\n      mstore\n      dup1\n      0x20\n      mul\n      0x20\n      add\n      dup3\n      add\n      0x40\n      mstore\n      dup1\n      iszero\n      tag_139\n      jumpi\n      dup2\n      0x20\n      add\n    tag_140:\n      tag_141\n      tag_88\n      jump\t// in\n    tag_141:\n      dup2\n      mstore\n      0x20\n      add\n      swap1\n      0x01\n      swap1\n      sub\n      swap1\n      dup2\n      tag_140\n      jumpi\n      swap1\n      pop\n    tag_139:\n      pop\n        /* \"solidity_test/test1.sol\":8109:8147  Student[] memory _s = new Student[](4) */\n      swap1\n      pop\n        /* \"solidity_test/test1.sol\":8162:8168  uint i */\n      0x00\n        /* \"solidity_test/test1.sol\":8158:8229  for(uint i=0; i<4; i++) {... */\n    tag_142:\n        /* \"solidity_test/test1.sol\":8174:8175  4 */\n      0x04\n        /* \"solidity_test/test1.sol\":8172:8173  i */\n      dup2\n        /* \"solidity_test/test1.sol\":8172:8175  i<4 */\n      lt\n        /* \"solidity_test/test1.sol\":8158:8229  for(uint i=0; i<4; i++) {... */\n      iszero\n      tag_143\n      jumpi\n        /* \"solidity_test/test1.sol\":8205:8214  _students */\n      dup3\n        /* \"solidity_test/test1.sol\":8215:8216  i */\n      dup2\n        /* \"solidity_test/test1.sol\":8205:8217  _students[i] */\n      dup2\n      mload\n      dup2\n      lt\n      tag_145\n      jumpi\n      tag_146\n      tag_94\n      jump\t// in\n    tag_146:\n    tag_145:\n      0x20\n      mul\n      0x20\n      add\n      add\n      mload\n        /* \"solidity_test/test1.sol\":8197:8199  _s */\n      dup3\n        /* \"solidity_test/test1.sol\":8200:8201  i */\n      dup3\n        /* \"solidity_test/test1.sol\":8197:8202  _s[i] */\n      dup2\n      mload\n      dup2\n      lt\n      tag_147\n      jumpi\n      tag_148\n      tag_94\n      jump\t// in\n    tag_148:\n    tag_147:\n      0x20\n      mul\n      0x20\n      add\n      add\n        /* \"solidity_test/test1.sol\":8197:8217  _s[i] = _students[i] */\n      dup2\n      swap1\n      mstore\n      pop\n        /* \"solidity_test/test1.sol\":8177:8180  i++ */\n      dup1\n      dup1\n      0x01\n      add\n      swap2\n      pop\n      pop\n        /* \"solidity_test/test1.sol\":8158:8229  for(uint i=0; i<4; i++) {... */\n      jump(tag_142)\n    tag_143:\n      pop\n        /* \"solidity_test/test1.sol\":8246:8248  _s */\n      dup1\n        /* \"solidity_test/test1.sol\":8239:8248  return _s */\n      swap3\n      pop\n      pop\n      pop\n        /* \"solidity_test/test1.sol\":7286:8256  function sClass() public view returns(Student[] memory) {... */\n      swap1\n      jump\t// out\n        /* \"solidity_test/test1.sol\":6414:7091  function getStudentScoreF() public view returns(uint, Student[] memory) {... */\n    tag_23:\n        /* \"solidity_test/test1.sol\":6462:6466  uint */\n      0x00\n        /* \"solidity_test/test1.sol\":6468:6484  Student[] memory */\n      0x60\n        /* \"solidity_test/test1.sol\":6497:6515  uint studentNumber */\n      0x00\n        /* \"solidity_test/test1.sol\":6535:6541  uint i */\n      dup1\n        /* \"solidity_test/test1.sol\":6530:6674  for (uint i=0; students.length > i; i++) {... */\n    tag_150:\n        /* \"solidity_test/test1.sol\":6563:6564  i */\n      dup1\n        /* \"solidity_test/test1.sol\":6545:6553  students */\n      0x00\n        /* \"solidity_test/test1.sol\":6545:6560  students.length */\n      dup1\n      sload\n      swap1\n      pop\n        /* \"solidity_test/test1.sol\":6545:6564  students.length > i */\n      gt\n        /* \"solidity_test/test1.sol\":6530:6674  for (uint i=0; students.length > i; i++) {... */\n      iszero\n      tag_151\n      jumpi\n        /* \"solidity_test/test1.sol\":6609:6611  60 */\n      0x3c\n        /* \"solidity_test/test1.sol\":6589:6597  students */\n      0x00\n        /* \"solidity_test/test1.sol\":6598:6599  i */\n      dup3\n        /* \"solidity_test/test1.sol\":6589:6600  students[i] */\n      dup2\n      sload\n      dup2\n      lt\n      tag_153\n      jumpi\n      tag_154\n      tag_94\n      jump\t// in\n    tag_154:\n    tag_153:\n      swap1\n      0x00\n      mstore\n      keccak256(0x00, 0x20)\n      swap1\n      0x05\n      mul\n      add\n        /* \"solidity_test/test1.sol\":6589:6606  students[i].score */\n      0x02\n      add\n      sload\n        /* \"solidity_test/test1.sol\":6589:6611  students[i].score < 60 */\n      lt\n        /* \"solidity_test/test1.sol\":6586:6663  if(students[i].score < 60) {... */\n      iszero\n      tag_156\n      jumpi\n        /* \"solidity_test/test1.sol\":6632:6647  studentNumber++ */\n      dup2\n      dup1\n      tag_157\n      swap1\n      tag_158\n      jump\t// in\n    tag_157:\n      swap3\n      pop\n      pop\n        /* \"solidity_test/test1.sol\":6586:6663  if(students[i].score < 60) {... */\n    tag_156:\n        /* \"solidity_test/test1.sol\":6566:6569  i++ */\n      dup1\n      dup1\n      tag_159\n      swap1\n      tag_158\n      jump\t// in\n    tag_159:\n      swap2\n      pop\n      pop\n        /* \"solidity_test/test1.sol\":6530:6674  for (uint i=0; students.length > i; i++) {... */\n      jump(tag_150)\n    tag_151:\n      pop\n        /* \"solidity_test/test1.sol\":6686:6717  Student[] memory studentsScoreF */\n      0x00\n        /* \"solidity_test/test1.sol\":6734:6747  studentNumber */\n      dup2\n        /* \"solidity_test/test1.sol\":6720:6748  new Student[](studentNumber) */\n      0xffffffffffffffff\n      dup2\n      gt\n      iszero\n      tag_160\n      jumpi\n      tag_161\n      tag_84\n      jump\t// in\n    tag_161:\n    tag_160:\n      mload(0x40)\n      swap1\n      dup1\n      dup3\n      mstore\n      dup1\n      0x20\n      mul\n      0x20\n      add\n      dup3\n      add\n      0x40\n      mstore\n      dup1\n      iszero\n      tag_162\n      jumpi\n      dup2\n      0x20\n      add\n    tag_163:\n      tag_164\n      tag_88\n      jump\t// in\n    tag_164:\n      dup2\n      mstore\n      0x20\n      add\n      swap1\n      0x01\n      swap1\n      sub\n      swap1\n      dup2\n      tag_163\n      jumpi\n      swap1\n      pop\n    tag_162:\n      pop\n        /* \"solidity_test/test1.sol\":6686:6748  Student[] memory studentsScoreF = new Student[](studentNumber) */\n      swap1\n      pop\n        /* \"solidity_test/test1.sol\":6759:6769  uint index */\n      0x00\n        /* \"solidity_test/test1.sol\":6789:6795  uint i */\n      dup1\n        /* \"solidity_test/test1.sol\":6784:7025  for (uint i=0; students.length > i; i++) {... */\n    tag_165:\n        /* \"solidity_test/test1.sol\":6817:6818  i */\n      dup1\n        /* \"solidity_test/test1.sol\":6799:6807  students */\n      0x00\n        /* \"solidity_test/test1.sol\":6799:6814  students.length */\n      dup1\n      sload\n      swap1\n      pop\n        /* \"solidity_test/test1.sol\":6799:6818  students.length > i */\n      gt\n        /* \"solidity_test/test1.sol\":6784:7025  for (uint i=0; students.length > i; i++) {... */\n      iszero\n      tag_166\n      jumpi\n        /* \"solidity_test/test1.sol\":6863:6865  60 */\n      0x3c\n        /* \"solidity_test/test1.sol\":6843:6851  students */\n      0x00\n        /* \"solidity_test/test1.sol\":6852:6853  i */\n      dup3\n        /* \"solidity_test/test1.sol\":6843:6854  students[i] */\n      dup2\n      sload\n      dup2\n      lt\n      tag_168\n      jumpi\n      tag_169\n      tag_94\n      jump\t// in\n    tag_169:\n    tag_168:\n      swap1\n      0x00\n      mstore\n      keccak256(0x00, 0x20)\n      swap1\n      0x05\n      mul\n      add\n        /* \"solidity_test/test1.sol\":6843:6860  students[i].score */\n      0x02\n      add\n      sload\n        /* \"solidity_test/test1.sol\":6843:6865  students[i].score < 60 */\n      lt\n        /* \"solidity_test/test1.sol\":6840:7014  if(students[i].score < 60) {... */\n      iszero\n      tag_171\n      jumpi\n        /* \"solidity_test/test1.sol\":6910:6918  students */\n      0x00\n        /* \"solidity_test/test1.sol\":6919:6920  i */\n      dup2\n        /* \"solidity_test/test1.sol\":6910:6921  students[i] */\n      dup2\n      sload\n      dup2\n      lt\n      tag_172\n      jumpi\n      tag_173\n      tag_94\n      jump\t// in\n    tag_173:\n    tag_172:\n      swap1\n      0x00\n      mstore\n      keccak256(0x00, 0x20)\n      swap1\n      0x05\n      mul\n      add\n        /* \"solidity_test/test1.sol\":6886:6921  studentsScoreF[index] = students[i] */\n      mload(0x40)\n      dup1\n      0xa0\n      add\n      0x40\n      mstore\n      swap1\n      dup2\n      0x00\n      dup3\n      add\n      dup1\n      sload\n      tag_175\n      swap1\n      tag_63\n      jump\t// in\n    tag_175:\n      dup1\n      0x1f\n      add\n      0x20\n      dup1\n      swap2\n      div\n      mul\n      0x20\n      add\n      mload(0x40)\n      swap1\n      dup2\n      add\n      0x40\n      mstore\n      dup1\n      swap3\n      swap2\n      swap1\n      dup2\n      dup2\n      mstore\n      0x20\n      add\n      dup3\n      dup1\n      sload\n      tag_176\n      swap1\n      tag_63\n      jump\t// in\n    tag_176:\n      dup1\n      iszero\n      tag_177\n      jumpi\n      dup1\n      0x1f\n      lt\n      tag_178\n      jumpi\n      0x0100\n      dup1\n      dup4\n      sload\n      div\n      mul\n      dup4\n      mstore\n      swap2\n      0x20\n      add\n      swap2\n      jump(tag_177)\n    tag_178:\n      dup3\n      add\n      swap2\n      swap1\n      0x00\n      mstore\n      keccak256(0x00, 0x20)\n      swap1\n    tag_179:\n      dup2\n      sload\n      dup2\n      mstore\n      swap1\n      0x01\n      add\n      swap1\n      0x20\n      add\n      dup1\n      dup4\n      gt\n      tag_179\n      jumpi\n      dup3\n      swap1\n      sub\n      0x1f\n      and\n      dup3\n      add\n      swap2\n    tag_177:\n      pop\n      pop\n      pop\n      pop\n      pop\n      dup2\n      mstore\n      0x20\n      add\n      0x01\n      dup3\n      add\n      sload\n      dup2\n      mstore\n      0x20\n      add\n      0x02\n      dup3\n      add\n      sload\n      dup2\n      mstore\n      0x20\n      add\n      0x03\n      dup3\n      add\n      dup1\n      sload\n      tag_180\n      swap1\n      tag_63\n      jump\t// in\n    tag_180:\n      dup1\n      0x1f\n      add\n      0x20\n      dup1\n      swap2\n      div\n      mul\n      0x20\n      add\n      mload(0x40)\n      swap1\n      dup2\n      add\n      0x40\n      mstore\n      dup1\n      swap3\n      swap2\n      swap1\n      dup2\n      dup2\n      mstore\n      0x20\n      add\n      dup3\n      dup1\n      sload\n      tag_181\n      swap1\n      tag_63\n      jump\t// in\n    tag_181:\n      dup1\n      iszero\n      tag_182\n      jumpi\n      dup1\n      0x1f\n      lt\n      tag_183\n      jumpi\n      0x0100\n      dup1\n      dup4\n      sload\n      div\n      mul\n      dup4\n      mstore\n      swap2\n      0x20\n      add\n      swap2\n      jump(tag_182)\n    tag_183:\n      dup3\n      add\n      swap2\n      swap1\n      0x00\n      mstore\n      keccak256(0x00, 0x20)\n      swap1\n    tag_184:\n      dup2\n      sload\n      dup2\n      mstore\n      swap1\n      0x01\n      add\n      swap1\n      0x20\n      add\n      dup1\n      dup4\n      gt\n      tag_184\n      jumpi\n      dup3\n      swap1\n      sub\n      0x1f\n      and\n      dup3\n      add\n      swap2\n    tag_182:\n      pop\n      pop\n      pop\n      pop\n      pop\n      dup2\n      mstore\n      0x20\n      add\n      0x04\n      dup3\n      add\n      dup1\n      sload\n      dup1\n      0x20\n      mul\n      0x20\n      add\n      mload(0x40)\n      swap1\n      dup2\n      add\n      0x40\n      mstore\n      dup1\n      swap3\n      swap2\n      swap1\n      dup2\n      dup2\n      mstore\n      0x20\n      add\n      0x00\n      swap1\n    tag_185:\n      dup3\n      dup3\n      lt\n      iszero\n      tag_186\n      jumpi\n      dup4\n      dup3\n      swap1\n      0x00\n      mstore\n      keccak256(0x00, 0x20)\n      add\n      dup1\n      sload\n      tag_188\n      swap1\n      tag_63\n      jump\t// in\n    tag_188:\n      dup1\n      0x1f\n      add\n      0x20\n      dup1\n      swap2\n      div\n      mul\n      0x20\n      add\n      mload(0x40)\n      swap1\n      dup2\n      add\n      0x40\n      mstore\n      dup1\n      swap3\n      swap2\n      swap1\n      dup2\n      dup2\n      mstore\n      0x20\n      add\n      dup3\n      dup1\n      sload\n      tag_189\n      swap1\n      tag_63\n      jump\t// in\n    tag_189:\n      dup1\n      iszero\n      tag_190\n      jumpi\n      dup1\n      0x1f\n      lt\n      tag_191\n      jumpi\n      0x0100\n      dup1\n      dup4\n      sload\n      div\n      mul\n      dup4\n      mstore\n      swap2\n      0x20\n      add\n      swap2\n      jump(tag_190)\n    tag_191:\n      dup3\n      add\n      swap2\n      swap1\n      0x00\n      mstore\n      keccak256(0x00, 0x20)\n      swap1\n    tag_192:\n      dup2\n      sload\n      dup2\n      mstore\n      swap1\n      0x01\n      add\n      swap1\n      0x20\n      add\n      dup1\n      dup4\n      gt\n      tag_192\n      jumpi\n      dup3\n      swap1\n      sub\n      0x1f\n      and\n      dup3\n      add\n      swap2\n    tag_190:\n      pop\n      pop\n      pop\n      pop\n      pop\n      dup2\n      mstore\n      0x20\n      add\n      swap1\n      0x01\n      add\n      swap1\n      jump(tag_185)\n    tag_186:\n      pop\n      pop\n      pop\n      pop\n      dup2\n      mstore\n      pop\n      pop\n        /* \"solidity_test/test1.sol\":6886:6900  studentsScoreF */\n      dup4\n        /* \"solidity_test/test1.sol\":6901:6906  index */\n      dup4\n        /* \"solidity_test/test1.sol\":6886:6907  studentsScoreF[index] */\n      dup2\n      mload\n      dup2\n      lt\n      tag_193\n      jumpi\n      tag_194\n      tag_94\n      jump\t// in\n    tag_194:\n    tag_193:\n      0x20\n      mul\n      0x20\n      add\n      add\n        /* \"solidity_test/test1.sol\":6886:6921  studentsScoreF[index] = students[i] */\n      dup2\n      swap1\n      mstore\n      pop\n        /* \"solidity_test/test1.sol\":6940:6947  index++ */\n      dup2\n      dup1\n      tag_195\n      swap1\n      tag_158\n      jump\t// in\n    tag_195:\n      swap3\n      pop\n      pop\n        /* \"solidity_test/test1.sol\":6840:7014  if(students[i].score < 60) {... */\n      jump(tag_196)\n    tag_171:\n        /* \"solidity_test/test1.sol\":6997:6998  0 */\n      0x00\n        /* \"solidity_test/test1.sol\":6988:6998  index += 0 */\n      dup3\n      tag_197\n      swap2\n      swap1\n      tag_123\n      jump\t// in\n    tag_197:\n      swap2\n      pop\n        /* \"solidity_test/test1.sol\":6840:7014  if(students[i].score < 60) {... */\n    tag_196:\n        /* \"solidity_test/test1.sol\":6820:6823  i++ */\n      dup1\n      dup1\n      tag_198\n      swap1\n      tag_158\n      jump\t// in\n    tag_198:\n      swap2\n      pop\n      pop\n        /* \"solidity_test/test1.sol\":6784:7025  for (uint i=0; students.length > i; i++) {... */\n      jump(tag_165)\n    tag_166:\n      pop\n        /* \"solidity_test/test1.sol\":7053:7066  studentNumber */\n      dup3\n        /* \"solidity_test/test1.sol\":7068:7082  studentsScoreF */\n      dup3\n        /* \"solidity_test/test1.sol\":7045:7083  return (studentNumber, studentsScoreF) */\n      swap5\n      pop\n      swap5\n      pop\n      pop\n      pop\n      pop\n        /* \"solidity_test/test1.sol\":6414:7091  function getStudentScoreF() public view returns(uint, Student[] memory) {... */\n      swap1\n      swap2\n      jump\t// out\n        /* \"solidity_test/test1.sol\":5070:5168  function getAllStudentNumber() public view returns(uint) {... */\n    tag_27:\n        /* \"solidity_test/test1.sol\":5121:5125  uint */\n      0x00\n        /* \"solidity_test/test1.sol\":5145:5153  students */\n      dup1\n        /* \"solidity_test/test1.sol\":5145:5160  students.length */\n      dup1\n      sload\n      swap1\n      pop\n        /* \"solidity_test/test1.sol\":5138:5160  return students.length */\n      swap1\n      pop\n        /* \"solidity_test/test1.sol\":5070:5168  function getAllStudentNumber() public view returns(uint) {... */\n      swap1\n      jump\t// out\n        /* \"solidity_test/test1.sol\":4316:4437  function getStudentNumber(uint _number) public view returns(Student memory) {... */\n    tag_33:\n        /* \"solidity_test/test1.sol\":4376:4390  Student memory */\n      tag_200\n      tag_88\n      jump\t// in\n    tag_200:\n        /* \"solidity_test/test1.sol\":4410:4418  students */\n      0x00\n        /* \"solidity_test/test1.sol\":4427:4428  1 */\n      0x01\n        /* \"solidity_test/test1.sol\":4419:4426  _number */\n      dup4\n        /* \"solidity_test/test1.sol\":4419:4428  _number-1 */\n      tag_202\n      swap2\n      swap1\n      tag_203\n      jump\t// in\n    tag_202:\n        /* \"solidity_test/test1.sol\":4410:4429  students[_number-1] */\n      dup2\n      sload\n      dup2\n      lt\n      tag_204\n      jumpi\n      tag_205\n      tag_94\n      jump\t// in\n    tag_205:\n    tag_204:\n      swap1\n      0x00\n      mstore\n      keccak256(0x00, 0x20)\n      swap1\n      0x05\n      mul\n      add\n        /* \"solidity_test/test1.sol\":4403:4429  return students[_number-1] */\n      mload(0x40)\n      dup1\n      0xa0\n      add\n      0x40\n      mstore\n      swap1\n      dup2\n      0x00\n      dup3\n      add\n      dup1\n      sload\n      tag_207\n      swap1\n      tag_63\n      jump\t// in\n    tag_207:\n      dup1\n      0x1f\n      add\n      0x20\n      dup1\n      swap2\n      div\n      mul\n      0x20\n      add\n      mload(0x40)\n      swap1\n      dup2\n      add\n      0x40\n      mstore\n      dup1\n      swap3\n      swap2\n      swap1\n      dup2\n      dup2\n      mstore\n      0x20\n      add\n      dup3\n      dup1\n      sload\n      tag_208\n      swap1\n      tag_63\n      jump\t// in\n    tag_208:\n      dup1\n      iszero\n      tag_209\n      jumpi\n      dup1\n      0x1f\n      lt\n      tag_210\n      jumpi\n      0x0100\n      dup1\n      dup4\n      sload\n      div\n      mul\n      dup4\n      mstore\n      swap2\n      0x20\n      add\n      swap2\n      jump(tag_209)\n    tag_210:\n      dup3\n      add\n      swap2\n      swap1\n      0x00\n      mstore\n      keccak256(0x00, 0x20)\n      swap1\n    tag_211:\n      dup2\n      sload\n      dup2\n      mstore\n      swap1\n      0x01\n      add\n      swap1\n      0x20\n      add\n      dup1\n      dup4\n      gt\n      tag_211\n      jumpi\n      dup3\n      swap1\n      sub\n      0x1f\n      and\n      dup3\n      add\n      swap2\n    tag_209:\n      pop\n      pop\n      pop\n      pop\n      pop\n      dup2\n      mstore\n      0x20\n      add\n      0x01\n      dup3\n      add\n      sload\n      dup2\n      mstore\n      0x20\n      add\n      0x02\n      dup3\n      add\n      sload\n      dup2\n      mstore\n      0x20\n      add\n      0x03\n      dup3\n      add\n      dup1\n      sload\n      tag_212\n      swap1\n      tag_63\n      jump\t// in\n    tag_212:\n      dup1\n      0x1f\n      add\n      0x20\n      dup1\n      swap2\n      div\n      mul\n      0x20\n      add\n      mload(0x40)\n      swap1\n      dup2\n      add\n      0x40\n      mstore\n      dup1\n      swap3\n      swap2\n      swap1\n      dup2\n      dup2\n      mstore\n      0x20\n      add\n      dup3\n      dup1\n      sload\n      tag_213\n      swap1\n      tag_63\n      jump\t// in\n    tag_213:\n      dup1\n      iszero\n      tag_214\n      jumpi\n      dup1\n      0x1f\n      lt\n      tag_215\n      jumpi\n      0x0100\n      dup1\n      dup4\n      sload\n      div\n      mul\n      dup4\n      mstore\n      swap2\n      0x20\n      add\n      swap2\n      jump(tag_214)\n    tag_215:\n      dup3\n      add\n      swap2\n      swap1\n      0x00\n      mstore\n      keccak256(0x00, 0x20)\n      swap1\n    tag_216:\n      dup2\n      sload\n      dup2\n      mstore\n      swap1\n      0x01\n      add\n      swap1\n      0x20\n      add\n      dup1\n      dup4\n      gt\n      tag_216\n      jumpi\n      dup3\n      swap1\n      sub\n      0x1f\n      and\n      dup3\n      add\n      swap2\n    tag_214:\n      pop\n      pop\n      pop\n      pop\n      pop\n      dup2\n      mstore\n      0x20\n      add\n      0x04\n      dup3\n      add\n      dup1\n      sload\n      dup1\n      0x20\n      mul\n      0x20\n      add\n      mload(0x40)\n      swap1\n      dup2\n      add\n      0x40\n      mstore\n      dup1\n      swap3\n      swap2\n      swap1\n      dup2\n      dup2\n      mstore\n      0x20\n      add\n      0x00\n      swap1\n    tag_217:\n      dup3\n      dup3\n      lt\n      iszero\n      tag_218\n      jumpi\n      dup4\n      dup3\n      swap1\n      0x00\n      mstore\n      keccak256(0x00, 0x20)\n      add\n      dup1\n      sload\n      tag_220\n      swap1\n      tag_63\n      jump\t// in\n    tag_220:\n      dup1\n      0x1f\n      add\n      0x20\n      dup1\n      swap2\n      div\n      mul\n      0x20\n      add\n      mload(0x40)\n      swap1\n      dup2\n      add\n      0x40\n      mstore\n      dup1\n      swap3\n      swap2\n      swap1\n      dup2\n      dup2\n      mstore\n      0x20\n      add\n      dup3\n      dup1\n      sload\n      tag_221\n      swap1\n      tag_63\n      jump\t// in\n    tag_221:\n      dup1\n      iszero\n      tag_222\n      jumpi\n      dup1\n      0x1f\n      lt\n      tag_223\n      jumpi\n      0x0100\n      dup1\n      dup4\n      sload\n      div\n      mul\n      dup4\n      mstore\n      swap2\n      0x20\n      add\n      swap2\n      jump(tag_222)\n    tag_223:\n      dup3\n      add\n      swap2\n      swap1\n      0x00\n      mstore\n      keccak256(0x00, 0x20)\n      swap1\n    tag_224:\n      dup2\n      sload\n      dup2\n      mstore\n      swap1\n      0x01\n      add\n      swap1\n      0x20\n      add\n      dup1\n      dup4\n      gt\n      tag_224\n      jumpi\n      dup3\n      swap1\n      sub\n      0x1f\n      and\n      dup3\n      add\n      swap2\n    tag_222:\n      pop\n      pop\n      pop\n      pop\n      pop\n      dup2\n      mstore\n      0x20\n      add\n      swap1\n      0x01\n      add\n      swap1\n      jump(tag_217)\n    tag_218:\n      pop\n      pop\n      pop\n      pop\n      dup2\n      mstore\n      pop\n      pop\n      swap1\n      pop\n        /* \"solidity_test/test1.sol\":4316:4437  function getStudentNumber(uint _number) public view returns(Student memory) {... */\n      swap2\n      swap1\n      pop\n      jump\t// out\n        /* \"solidity_test/test1.sol\":5480:5715  function getStudentAvgScore() public view returns(uint) {... */\n    tag_37:\n        /* \"solidity_test/test1.sol\":5530:5534  uint */\n      0x00\n        /* \"solidity_test/test1.sol\":5547:5558  uint result */\n      dup1\n        /* \"solidity_test/test1.sol\":5574:5580  uint i */\n      0x00\n        /* \"solidity_test/test1.sol\":5569:5666  for (uint i = 0; students.length > i; i++) {... */\n    tag_226:\n        /* \"solidity_test/test1.sol\":5604:5605  i */\n      dup1\n        /* \"solidity_test/test1.sol\":5586:5594  students */\n      0x00\n        /* \"solidity_test/test1.sol\":5586:5601  students.length */\n      dup1\n      sload\n      swap1\n      pop\n        /* \"solidity_test/test1.sol\":5586:5605  students.length > i */\n      gt\n        /* \"solidity_test/test1.sol\":5569:5666  for (uint i = 0; students.length > i; i++) {... */\n      iszero\n      tag_227\n      jumpi\n        /* \"solidity_test/test1.sol\":5637:5645  students */\n      0x00\n        /* \"solidity_test/test1.sol\":5646:5647  i */\n      dup2\n        /* \"solidity_test/test1.sol\":5637:5648  students[i] */\n      dup2\n      sload\n      dup2\n      lt\n      tag_229\n      jumpi\n      tag_230\n      tag_94\n      jump\t// in\n    tag_230:\n    tag_229:\n      swap1\n      0x00\n      mstore\n      keccak256(0x00, 0x20)\n      swap1\n      0x05\n      mul\n      add\n        /* \"solidity_test/test1.sol\":5637:5654  students[i].score */\n      0x02\n      add\n      sload\n        /* \"solidity_test/test1.sol\":5627:5654  result += students[i].score */\n      dup3\n      tag_232\n      swap2\n      swap1\n      tag_123\n      jump\t// in\n    tag_232:\n      swap2\n      pop\n        /* \"solidity_test/test1.sol\":5607:5610  i++ */\n      dup1\n      dup1\n      tag_233\n      swap1\n      tag_158\n      jump\t// in\n    tag_233:\n      swap2\n      pop\n      pop\n        /* \"solidity_test/test1.sol\":5569:5666  for (uint i = 0; students.length > i; i++) {... */\n      jump(tag_226)\n    tag_227:\n      pop\n        /* \"solidity_test/test1.sol\":5692:5700  students */\n      0x00\n        /* \"solidity_test/test1.sol\":5692:5707  students.length */\n      dup1\n      sload\n      swap1\n      pop\n        /* \"solidity_test/test1.sol\":5683:5689  result */\n      dup2\n        /* \"solidity_test/test1.sol\":5683:5707  result / students.length */\n      tag_234\n      swap2\n      swap1\n      tag_235\n      jump\t// in\n    tag_234:\n        /* \"solidity_test/test1.sol\":5676:5707  return result / students.length */\n      swap2\n      pop\n      pop\n        /* \"solidity_test/test1.sol\":5480:5715  function getStudentAvgScore() public view returns(uint) {... */\n      swap1\n      jump\t// out\n        /* \"solidity_test/test1.sol\":3656:4193  function setStudent (string memory _name, uint _score, string[] memory _class) public {... */\n    tag_42:\n        /* \"solidity_test/test1.sol\":3753:3773  string memory _grade */\n      0x60\n        /* \"solidity_test/test1.sol\":3798:3800  90 */\n      0x5a\n        /* \"solidity_test/test1.sol\":3788:3794  _score */\n      dup4\n        /* \"solidity_test/test1.sol\":3788:3800  _score >= 90 */\n      lt\n        /* \"solidity_test/test1.sol\":3784:4071  if (_score >= 90) {... */\n      tag_237\n      jumpi\n        /* \"solidity_test/test1.sol\":3817:3829  _grade = \"A\" */\n      mload(0x40)\n      dup1\n      0x40\n      add\n      0x40\n      mstore\n      dup1\n      0x01\n      dup2\n      mstore\n      0x20\n      add\n      0x4100000000000000000000000000000000000000000000000000000000000000\n      dup2\n      mstore\n      pop\n      swap1\n      pop\n        /* \"solidity_test/test1.sol\":3784:4071  if (_score >= 90) {... */\n      jump(tag_238)\n    tag_237:\n        /* \"solidity_test/test1.sol\":3860:3862  80 */\n      0x50\n        /* \"solidity_test/test1.sol\":3850:3856  _score */\n      dup4\n        /* \"solidity_test/test1.sol\":3850:3862  _score >= 80 */\n      lt\n        /* \"solidity_test/test1.sol\":3847:4071  if(_score >= 80){... */\n      tag_239\n      jumpi\n        /* \"solidity_test/test1.sol\":3878:3890  _grade = \"B\" */\n      mload(0x40)\n      dup1\n      0x40\n      add\n      0x40\n      mstore\n      dup1\n      0x01\n      dup2\n      mstore\n      0x20\n      add\n      0x4200000000000000000000000000000000000000000000000000000000000000\n      dup2\n      mstore\n      pop\n      swap1\n      pop\n        /* \"solidity_test/test1.sol\":3847:4071  if(_score >= 80){... */\n      jump(tag_240)\n    tag_239:\n        /* \"solidity_test/test1.sol\":3921:3923  70 */\n      0x46\n        /* \"solidity_test/test1.sol\":3911:3917  _score */\n      dup4\n        /* \"solidity_test/test1.sol\":3911:3923  _score >= 70 */\n      lt\n        /* \"solidity_test/test1.sol\":3908:4071  if(_score >= 70) {... */\n      tag_241\n      jumpi\n        /* \"solidity_test/test1.sol\":3940:3952  _grade = \"C\" */\n      mload(0x40)\n      dup1\n      0x40\n      add\n      0x40\n      mstore\n      dup1\n      0x01\n      dup2\n      mstore\n      0x20\n      add\n      0x4300000000000000000000000000000000000000000000000000000000000000\n      dup2\n      mstore\n      pop\n      swap1\n      pop\n        /* \"solidity_test/test1.sol\":3908:4071  if(_score >= 70) {... */\n      jump(tag_242)\n    tag_241:\n        /* \"solidity_test/test1.sol\":3983:3985  60 */\n      0x3c\n        /* \"solidity_test/test1.sol\":3973:3979  _score */\n      dup4\n        /* \"solidity_test/test1.sol\":3973:3985  _score >= 60 */\n      lt\n        /* \"solidity_test/test1.sol\":3970:4071  if(_score >= 60) {... */\n      tag_243\n      jumpi\n        /* \"solidity_test/test1.sol\":4002:4014  _grade = \"D\" */\n      mload(0x40)\n      dup1\n      0x40\n      add\n      0x40\n      mstore\n      dup1\n      0x01\n      dup2\n      mstore\n      0x20\n      add\n      0x4400000000000000000000000000000000000000000000000000000000000000\n      dup2\n      mstore\n      pop\n      swap1\n      pop\n        /* \"solidity_test/test1.sol\":3970:4071  if(_score >= 60) {... */\n      jump(tag_244)\n    tag_243:\n        /* \"solidity_test/test1.sol\":4047:4059  _grade = \"F\" */\n      mload(0x40)\n      dup1\n      0x40\n      add\n      0x40\n      mstore\n      dup1\n      0x01\n      dup2\n      mstore\n      0x20\n      add\n      0x4600000000000000000000000000000000000000000000000000000000000000\n      dup2\n      mstore\n      pop\n      swap1\n      pop\n        /* \"solidity_test/test1.sol\":3970:4071  if(_score >= 60) {... */\n    tag_244:\n        /* \"solidity_test/test1.sol\":3908:4071  if(_score >= 70) {... */\n    tag_242:\n        /* \"solidity_test/test1.sol\":3847:4071  if(_score >= 80){... */\n    tag_240:\n        /* \"solidity_test/test1.sol\":3784:4071  if (_score >= 90) {... */\n    tag_238:\n        /* \"solidity_test/test1.sol\":4093:4150  Student(_name, students.length+1, _score, _grade, _class) */\n      mload(0x40)\n      dup1\n      0xa0\n      add\n      0x40\n      mstore\n      dup1\n        /* \"solidity_test/test1.sol\":4101:4106  _name */\n      dup6\n        /* \"solidity_test/test1.sol\":4093:4150  Student(_name, students.length+1, _score, _grade, _class) */\n      dup2\n      mstore\n      0x20\n      add\n        /* \"solidity_test/test1.sol\":4124:4125  1 */\n      0x01\n        /* \"solidity_test/test1.sol\":4108:4116  students */\n      0x00\n        /* \"solidity_test/test1.sol\":4108:4123  students.length */\n      dup1\n      sload\n      swap1\n      pop\n        /* \"solidity_test/test1.sol\":4108:4125  students.length+1 */\n      tag_245\n      swap2\n      swap1\n      tag_123\n      jump\t// in\n    tag_245:\n        /* \"solidity_test/test1.sol\":4093:4150  Student(_name, students.length+1, _score, _grade, _class) */\n      dup2\n      mstore\n      0x20\n      add\n        /* \"solidity_test/test1.sol\":4127:4133  _score */\n      dup5\n        /* \"solidity_test/test1.sol\":4093:4150  Student(_name, students.length+1, _score, _grade, _class) */\n      dup2\n      mstore\n      0x20\n      add\n        /* \"solidity_test/test1.sol\":4135:4141  _grade */\n      dup3\n        /* \"solidity_test/test1.sol\":4093:4150  Student(_name, students.length+1, _score, _grade, _class) */\n      dup2\n      mstore\n      0x20\n      add\n        /* \"solidity_test/test1.sol\":4143:4149  _class */\n      dup4\n        /* \"solidity_test/test1.sol\":4093:4150  Student(_name, students.length+1, _score, _grade, _class) */\n      dup2\n      mstore\n      pop\n        /* \"solidity_test/test1.sol\":4081:4083  s1 */\n      0x01\n        /* \"solidity_test/test1.sol\":4084:4089  _name */\n      dup6\n        /* \"solidity_test/test1.sol\":4081:4090  s1[_name] */\n      mload(0x40)\n      tag_246\n      swap2\n      swap1\n      tag_247\n      jump\t// in\n    tag_246:\n      swap1\n      dup2\n      mstore\n      0x20\n      add\n      mload(0x40)\n      dup1\n      swap2\n      sub\n      swap1\n      keccak256\n        /* \"solidity_test/test1.sol\":4081:4150  s1[_name] = Student(_name, students.length+1, _score, _grade, _class) */\n      0x00\n      dup3\n      add\n      mload\n      dup2\n      0x00\n      add\n      swap1\n      dup2\n      tag_248\n      swap2\n      swap1\n      tag_249\n      jump\t// in\n    tag_248:\n      pop\n      0x20\n      dup3\n      add\n      mload\n      dup2\n      0x01\n      add\n      sstore\n      0x40\n      dup3\n      add\n      mload\n      dup2\n      0x02\n      add\n      sstore\n      0x60\n      dup3\n      add\n      mload\n      dup2\n      0x03\n      add\n      swap1\n      dup2\n      tag_250\n      swap2\n      swap1\n      tag_249\n      jump\t// in\n    tag_250:\n      pop\n      0x80\n      dup3\n      add\n      mload\n      dup2\n      0x04\n      add\n      swap1\n      dup1\n      mload\n      swap1\n      0x20\n      add\n      swap1\n      tag_251\n      swap3\n      swap2\n      swap1\n      tag_252\n      jump\t// in\n    tag_251:\n      pop\n      swap1\n      pop\n      pop\n        /* \"solidity_test/test1.sol\":4161:4169  students */\n      0x00\n        /* \"solidity_test/test1.sol\":4175:4177  s1 */\n      0x01\n        /* \"solidity_test/test1.sol\":4178:4183  _name */\n      dup6\n        /* \"solidity_test/test1.sol\":4175:4184  s1[_name] */\n      mload(0x40)\n      tag_253\n      swap2\n      swap1\n      tag_247\n      jump\t// in\n    tag_253:\n      swap1\n      dup2\n      mstore\n      0x20\n      add\n      mload(0x40)\n      dup1\n      swap2\n      sub\n      swap1\n      keccak256\n        /* \"solidity_test/test1.sol\":4161:4185  students.push(s1[_name]) */\n      swap1\n      dup1\n      0x01\n      dup2\n      sload\n      add\n      dup1\n      dup3\n      sstore\n      dup1\n      swap2\n      pop\n      pop\n      0x01\n      swap1\n      sub\n      swap1\n      0x00\n      mstore\n      keccak256(0x00, 0x20)\n      swap1\n      0x05\n      mul\n      add\n      0x00\n      swap1\n      swap2\n      swap1\n      swap2\n      swap1\n      swap2\n      pop\n      0x00\n      dup3\n      add\n      dup2\n      0x00\n      add\n      swap1\n      dup2\n      tag_255\n      swap2\n      swap1\n      tag_256\n      jump\t// in\n    tag_255:\n      pop\n      0x01\n      dup3\n      add\n      sload\n      dup2\n      0x01\n      add\n      sstore\n      0x02\n      dup3\n      add\n      sload\n      dup2\n      0x02\n      add\n      sstore\n      0x03\n      dup3\n      add\n      dup2\n      0x03\n      add\n      swap1\n      dup2\n      tag_257\n      swap2\n      swap1\n      tag_256\n      jump\t// in\n    tag_257:\n      pop\n      0x04\n      dup3\n      add\n      dup2\n      0x04\n      add\n      swap1\n      dup1\n      sload\n      tag_258\n      swap3\n      swap2\n      swap1\n      tag_259\n      jump\t// in\n    tag_258:\n      pop\n      pop\n      pop\n        /* \"solidity_test/test1.sol\":3742:4193  {... */\n      pop\n        /* \"solidity_test/test1.sol\":3656:4193  function setStudent (string memory _name, uint _score, string[] memory _class) public {... */\n      pop\n      pop\n      pop\n      jump\t// out\n        /* \"solidity_test/test1.sol\":5862:6087  function getTeacherState() public view returns(bool) {... */\n    tag_44:\n        /* \"solidity_test/test1.sol\":5909:5913  bool */\n      0x00\n        /* \"solidity_test/test1.sol\":5926:5934  uint avg */\n      dup1\n        /* \"solidity_test/test1.sol\":5951:5971  getStudentAvgScore() */\n      tag_261\n        /* \"solidity_test/test1.sol\":5951:5969  getStudentAvgScore */\n      tag_37\n        /* \"solidity_test/test1.sol\":5951:5971  getStudentAvgScore() */\n      jump\t// in\n    tag_261:\n        /* \"solidity_test/test1.sol\":5945:5971  avg = getStudentAvgScore() */\n      swap1\n      pop\n        /* \"solidity_test/test1.sol\":5993:5995  70 */\n      0x46\n        /* \"solidity_test/test1.sol\":5986:5989  avg */\n      dup2\n        /* \"solidity_test/test1.sol\":5986:5995  avg >= 70 */\n      lt\n        /* \"solidity_test/test1.sol\":5982:6080  if (avg >= 70) {... */\n      tag_262\n      jumpi\n        /* \"solidity_test/test1.sol\":6019:6023  true */\n      0x01\n        /* \"solidity_test/test1.sol\":6012:6023  return true */\n      swap2\n      pop\n      pop\n      jump(tag_260)\n        /* \"solidity_test/test1.sol\":5982:6080  if (avg >= 70) {... */\n    tag_262:\n        /* \"solidity_test/test1.sol\":6063:6068  false */\n      0x00\n        /* \"solidity_test/test1.sol\":6056:6068  return false */\n      swap2\n      pop\n      pop\n        /* \"solidity_test/test1.sol\":5862:6087  function getTeacherState() public view returns(bool) {... */\n    tag_260:\n      swap1\n      jump\t// out\n        /* \"solidity_test/test1.sol\":4786:4971  function getStudentScore(string memory _name) public view returns(uint) {... */\n    tag_50:\n        /* \"solidity_test/test1.sol\":4852:4856  uint */\n      0x00\n        /* \"solidity_test/test1.sol\":4869:4891  Student memory student */\n      dup1\n        /* \"solidity_test/test1.sol\":4894:4896  s1 */\n      0x01\n        /* \"solidity_test/test1.sol\":4897:4902  _name */\n      dup4\n        /* \"solidity_test/test1.sol\":4894:4903  s1[_name] */\n      mload(0x40)\n      tag_265\n      swap2\n      swap1\n      tag_247\n      jump\t// in\n    tag_265:\n      swap1\n      dup2\n      mstore\n      0x20\n      add\n      mload(0x40)\n      dup1\n      swap2\n      sub\n      swap1\n      keccak256\n        /* \"solidity_test/test1.sol\":4869:4903  Student memory student = s1[_name] */\n      mload(0x40)\n      dup1\n      0xa0\n      add\n      0x40\n      mstore\n      swap1\n      dup2\n      0x00\n      dup3\n      add\n      dup1\n      sload\n      tag_266\n      swap1\n      tag_63\n      jump\t// in\n    tag_266:\n      dup1\n      0x1f\n      add\n      0x20\n      dup1\n      swap2\n      div\n      mul\n      0x20\n      add\n      mload(0x40)\n      swap1\n      dup2\n      add\n      0x40\n      mstore\n      dup1\n      swap3\n      swap2\n      swap1\n      dup2\n      dup2\n      mstore\n      0x20\n      add\n      dup3\n      dup1\n      sload\n      tag_267\n      swap1\n      tag_63\n      jump\t// in\n    tag_267:\n      dup1\n      iszero\n      tag_268\n      jumpi\n      dup1\n      0x1f\n      lt\n      tag_269\n      jumpi\n      0x0100\n      dup1\n      dup4\n      sload\n      div\n      mul\n      dup4\n      mstore\n      swap2\n      0x20\n      add\n      swap2\n      jump(tag_268)\n    tag_269:\n      dup3\n      add\n      swap2\n      swap1\n      0x00\n      mstore\n      keccak256(0x00, 0x20)\n      swap1\n    tag_270:\n      dup2\n      sload\n      dup2\n      mstore\n      swap1\n      0x01\n      add\n      swap1\n      0x20\n      add\n      dup1\n      dup4\n      gt\n      tag_270\n      jumpi\n      dup3\n      swap1\n      sub\n      0x1f\n      and\n      dup3\n      add\n      swap2\n    tag_268:\n      pop\n      pop\n      pop\n      pop\n      pop\n      dup2\n      mstore\n      0x20\n      add\n      0x01\n      dup3\n      add\n      sload\n      dup2\n      mstore\n      0x20\n      add\n      0x02\n      dup3\n      add\n      sload\n      dup2\n      mstore\n      0x20\n      add\n      0x03\n      dup3\n      add\n      dup1\n      sload\n      tag_271\n      swap1\n      tag_63\n      jump\t// in\n    tag_271:\n      dup1\n      0x1f\n      add\n      0x20\n      dup1\n      swap2\n      div\n      mul\n      0x20\n      add\n      mload(0x40)\n      swap1\n      dup2\n      add\n      0x40\n      mstore\n      dup1\n      swap3\n      swap2\n      swap1\n      dup2\n      dup2\n      mstore\n      0x20\n      add\n      dup3\n      dup1\n      sload\n      tag_272\n      swap1\n      tag_63\n      jump\t// in\n    tag_272:\n      dup1\n      iszero\n      tag_273\n      jumpi\n      dup1\n      0x1f\n      lt\n      tag_274\n      jumpi\n      0x0100\n      dup1\n      dup4\n      sload\n      div\n      mul\n      dup4\n      mstore\n      swap2\n      0x20\n      add\n      swap2\n      jump(tag_273)\n    tag_274:\n      dup3\n      add\n      swap2\n      swap1\n      0x00\n      mstore\n      keccak256(0x00, 0x20)\n      swap1\n    tag_275:\n      dup2\n      sload\n      dup2\n      mstore\n      swap1\n      0x01\n      add\n      swap1\n      0x20\n      add\n      dup1\n      dup4\n      gt\n      tag_275\n      jumpi\n      dup3\n      swap1\n      sub\n      0x1f\n      and\n      dup3\n      add\n      swap2\n    tag_273:\n      pop\n      pop\n      pop\n      pop\n      pop\n      dup2\n      mstore\n      0x20\n      add\n      0x04\n      dup3\n      add\n      dup1\n      sload\n      dup1\n      0x20\n      mul\n      0x20\n      add\n      mload(0x40)\n      swap1\n      dup2\n      add\n      0x40\n      mstore\n      dup1\n      swap3\n      swap2\n      swap1\n      dup2\n      dup2\n      mstore\n      0x20\n      add\n      0x00\n      swap1\n    tag_276:\n      dup3\n      dup3\n      lt\n      iszero\n      tag_277\n      jumpi\n      dup4\n      dup3\n      swap1\n      0x00\n      mstore\n      keccak256(0x00, 0x20)\n      add\n      dup1\n      sload\n      tag_279\n      swap1\n      tag_63\n      jump\t// in\n    tag_279:\n      dup1\n      0x1f\n      add\n      0x20\n      dup1\n      swap2\n      div\n      mul\n      0x20\n      add\n      mload(0x40)\n      swap1\n      dup2\n      add\n      0x40\n      mstore\n      dup1\n      swap3\n      swap2\n      swap1\n      dup2\n      dup2\n      mstore\n      0x20\n      add\n      dup3\n      dup1\n      sload\n      tag_280\n      swap1\n      tag_63\n      jump\t// in\n    tag_280:\n      dup1\n      iszero\n      tag_281\n      jumpi\n      dup1\n      0x1f\n      lt\n      tag_282\n      jumpi\n      0x0100\n      dup1\n      dup4\n      sload\n      div\n      mul\n      dup4\n      mstore\n      swap2\n      0x20\n      add\n      swap2\n      jump(tag_281)\n    tag_282:\n      dup3\n      add\n      swap2\n      swap1\n      0x00\n      mstore\n      keccak256(0x00, 0x20)\n      swap1\n    tag_283:\n      dup2\n      sload\n      dup2\n      mstore\n      swap1\n      0x01\n      add\n      swap1\n      0x20\n      add\n      dup1\n      dup4\n      gt\n      tag_283\n      jumpi\n      dup3\n      swap1\n      sub\n      0x1f\n      and\n      dup3\n      add\n      swap2\n    tag_281:\n      pop\n      pop\n      pop\n      pop\n      pop\n      dup2\n      mstore\n      0x20\n      add\n      swap1\n      0x01\n      add\n      swap1\n      jump(tag_276)\n    tag_277:\n      pop\n      pop\n      pop\n      pop\n      dup2\n      mstore\n      pop\n      pop\n      swap1\n      pop\n        /* \"solidity_test/test1.sol\":4914:4924  uint score */\n      0x00\n        /* \"solidity_test/test1.sol\":4927:4934  student */\n      dup2\n        /* \"solidity_test/test1.sol\":4927:4940  student.score */\n      0x40\n      add\n      mload\n        /* \"solidity_test/test1.sol\":4914:4940  uint score = student.score */\n      swap1\n      pop\n        /* \"solidity_test/test1.sol\":4958:4963  score */\n      dup1\n        /* \"solidity_test/test1.sol\":4951:4963  return score */\n      swap3\n      pop\n      pop\n      pop\n        /* \"solidity_test/test1.sol\":4786:4971  function getStudentScore(string memory _name) public view returns(uint) {... */\n      swap2\n      swap1\n      pop\n      jump\t// out\n        /* \"solidity_test/test1.sol\":4554:4670  function getStudentName(string memory _name) public view returns(Student memory) {... */\n    tag_54:\n        /* \"solidity_test/test1.sol\":4619:4633  Student memory */\n      tag_284\n      tag_88\n      jump\t// in\n    tag_284:\n        /* \"solidity_test/test1.sol\":4653:4655  s1 */\n      0x01\n        /* \"solidity_test/test1.sol\":4656:4661  _name */\n      dup3\n        /* \"solidity_test/test1.sol\":4653:4662  s1[_name] */\n      mload(0x40)\n      tag_286\n      swap2\n      swap1\n      tag_247\n      jump\t// in\n    tag_286:\n      swap1\n      dup2\n      mstore\n      0x20\n      add\n      mload(0x40)\n      dup1\n      swap2\n      sub\n      swap1\n      keccak256\n        /* \"solidity_test/test1.sol\":4646:4662  return s1[_name] */\n      mload(0x40)\n      dup1\n      0xa0\n      add\n      0x40\n      mstore\n      swap1\n      dup2\n      0x00\n      dup3\n      add\n      dup1\n      sload\n      tag_287\n      swap1\n      tag_63\n      jump\t// in\n    tag_287:\n      dup1\n      0x1f\n      add\n      0x20\n      dup1\n      swap2\n      div\n      mul\n      0x20\n      add\n      mload(0x40)\n      swap1\n      dup2\n      add\n      0x40\n      mstore\n      dup1\n      swap3\n      swap2\n      swap1\n      dup2\n      dup2\n      mstore\n      0x20\n      add\n      dup3\n      dup1\n      sload\n      tag_288\n      swap1\n      tag_63\n      jump\t// in\n    tag_288:\n      dup1\n      iszero\n      tag_289\n      jumpi\n      dup1\n      0x1f\n      lt\n      tag_290\n      jumpi\n      0x0100\n      dup1\n      dup4\n      sload\n      div\n      mul\n      dup4\n      mstore\n      swap2\n      0x20\n      add\n      swap2\n      jump(tag_289)\n    tag_290:\n      dup3\n      add\n      swap2\n      swap1\n      0x00\n      mstore\n      keccak256(0x00, 0x20)\n      swap1\n    tag_291:\n      dup2\n      sload\n      dup2\n      mstore\n      swap1\n      0x01\n      add\n      swap1\n      0x20\n      add\n      dup1\n      dup4\n      gt\n      tag_291\n      jumpi\n      dup3\n      swap1\n      sub\n      0x1f\n      and\n      dup3\n      add\n      swap2\n    tag_289:\n      pop\n      pop\n      pop\n      pop\n      pop\n      dup2\n      mstore\n      0x20\n      add\n      0x01\n      dup3\n      add\n      sload\n      dup2\n      mstore\n      0x20\n      add\n      0x02\n      dup3\n      add\n      sload\n      dup2\n      mstore\n      0x20\n      add\n      0x03\n      dup3\n      add\n      dup1\n      sload\n      tag_292\n      swap1\n      tag_63\n      jump\t// in\n    tag_292:\n      dup1\n      0x1f\n      add\n      0x20\n      dup1\n      swap2\n      div\n      mul\n      0x20\n      add\n      mload(0x40)\n      swap1\n      dup2\n      add\n      0x40\n      mstore\n      dup1\n      swap3\n      swap2\n      swap1\n      dup2\n      dup2\n      mstore\n      0x20\n      add\n      dup3\n      dup1\n      sload\n      tag_293\n      swap1\n      tag_63\n      jump\t// in\n    tag_293:\n      dup1\n      iszero\n      tag_294\n      jumpi\n      dup1\n      0x1f\n      lt\n      tag_295\n      jumpi\n      0x0100\n      dup1\n      dup4\n      sload\n      div\n      mul\n      dup4\n      mstore\n      swap2\n      0x20\n      add\n      swap2\n      jump(tag_294)\n    tag_295:\n      dup3\n      add\n      swap2\n      swap1\n      0x00\n      mstore\n      keccak256(0x00, 0x20)\n      swap1\n    tag_296:\n      dup2\n      sload\n      dup2\n      mstore\n      swap1\n      0x01\n      add\n      swap1\n      0x20\n      add\n      dup1\n      dup4\n      gt\n      tag_296\n      jumpi\n      dup3\n      swap1\n      sub\n      0x1f\n      and\n      dup3\n      add\n      swap2\n    tag_294:\n      pop\n      pop\n      pop\n      pop\n      pop\n      dup2\n      mstore\n      0x20\n      add\n      0x04\n      dup3\n      add\n      dup1\n      sload\n      dup1\n      0x20\n      mul\n      0x20\n      add\n      mload(0x40)\n      swap1\n      dup2\n      add\n      0x40\n      mstore\n      dup1\n      swap3\n      swap2\n      swap1\n      dup2\n      dup2\n      mstore\n      0x20\n      add\n      0x00\n      swap1\n    tag_297:\n      dup3\n      dup3\n      lt\n      iszero\n      tag_298\n      jumpi\n      dup4\n      dup3\n      swap1\n      0x00\n      mstore\n      keccak256(0x00, 0x20)\n      add\n      dup1\n      sload\n      tag_300\n      swap1\n      tag_63\n      jump\t// in\n    tag_300:\n      dup1\n      0x1f\n      add\n      0x20\n      dup1\n      swap2\n      div\n      mul\n      0x20\n      add\n      mload(0x40)\n      swap1\n      dup2\n      add\n      0x40\n      mstore\n      dup1\n      swap3\n      swap2\n      swap1\n      dup2\n      dup2\n      mstore\n      0x20\n      add\n      dup3\n      dup1\n      sload\n      tag_301\n      swap1\n      tag_63\n      jump\t// in\n    tag_301:\n      dup1\n      iszero\n      tag_302\n      jumpi\n      dup1\n      0x1f\n      lt\n      tag_303\n      jumpi\n      0x0100\n      dup1\n      dup4\n      sload\n      div\n      mul\n      dup4\n      mstore\n      swap2\n      0x20\n      add\n      swap2\n      jump(tag_302)\n    tag_303:\n      dup3\n      add\n      swap2\n      swap1\n      0x00\n      mstore\n      keccak256(0x00, 0x20)\n      swap1\n    tag_304:\n      dup2\n      sload\n      dup2\n      mstore\n      swap1\n      0x01\n      add\n      swap1\n      0x20\n      add\n      dup1\n      dup4\n      gt\n      tag_304\n      jumpi\n      dup3\n      swap1\n      sub\n      0x1f\n      and\n      dup3\n      add\n      swap2\n    tag_302:\n      pop\n      pop\n      pop\n      pop\n      pop\n      dup2\n      mstore\n      0x20\n      add\n      swap1\n      0x01\n      add\n      swap1\n      jump(tag_297)\n    tag_298:\n      pop\n      pop\n      pop\n      pop\n      dup2\n      mstore\n      pop\n      pop\n      swap1\n      pop\n        /* \"solidity_test/test1.sol\":4554:4670  function getStudentName(string memory _name) public view returns(Student memory) {... */\n      swap2\n      swap1\n      pop\n      jump\t// out\n        /* \"solidity_test/test1.sol\":8264:8873  function pushStudent() public {... */\n    tag_57:\n        /* \"solidity_test/test1.sol\":8463:8488  string[] memory classList */\n      0x00\n        /* \"solidity_test/test1.sol\":8504:8505  1 */\n      0x01\n        /* \"solidity_test/test1.sol\":8491:8506  new string[](1) */\n      0xffffffffffffffff\n      dup2\n      gt\n      iszero\n      tag_306\n      jumpi\n      tag_307\n      tag_84\n      jump\t// in\n    tag_307:\n    tag_306:\n      mload(0x40)\n      swap1\n      dup1\n      dup3\n      mstore\n      dup1\n      0x20\n      mul\n      0x20\n      add\n      dup3\n      add\n      0x40\n      mstore\n      dup1\n      iszero\n      tag_308\n      jumpi\n      dup2\n      0x20\n      add\n    tag_309:\n      0x60\n      dup2\n      mstore\n      0x20\n      add\n      swap1\n      0x01\n      swap1\n      sub\n      swap1\n      dup2\n      tag_309\n      jumpi\n      swap1\n      pop\n    tag_308:\n      pop\n        /* \"solidity_test/test1.sol\":8463:8506  string[] memory classList = new string[](1) */\n      swap1\n      pop\n        /* \"solidity_test/test1.sol\":8517:8535  classList[0] = \"a\" */\n      mload(0x40)\n      dup1\n      0x40\n      add\n      0x40\n      mstore\n      dup1\n      0x01\n      dup2\n      mstore\n      0x20\n      add\n      0x6100000000000000000000000000000000000000000000000000000000000000\n      dup2\n      mstore\n      pop\n        /* \"solidity_test/test1.sol\":8517:8526  classList */\n      dup2\n        /* \"solidity_test/test1.sol\":8527:8528  0 */\n      0x00\n        /* \"solidity_test/test1.sol\":8517:8529  classList[0] */\n      dup2\n      mload\n      dup2\n      lt\n      tag_310\n      jumpi\n      tag_311\n      tag_94\n      jump\t// in\n    tag_311:\n    tag_310:\n      0x20\n      mul\n      0x20\n      add\n      add\n        /* \"solidity_test/test1.sol\":8517:8535  classList[0] = \"a\" */\n      dup2\n      swap1\n      mstore\n      pop\n        /* \"solidity_test/test1.sol\":8546:8577  setStudent(\"min\",100,classList) */\n      tag_312\n      mload(0x40)\n      dup1\n      0x40\n      add\n      0x40\n      mstore\n      dup1\n      0x03\n      dup2\n      mstore\n      0x20\n      add\n      0x6d696e0000000000000000000000000000000000000000000000000000000000\n      dup2\n      mstore\n      pop\n        /* \"solidity_test/test1.sol\":8563:8566  100 */\n      0x64\n        /* \"solidity_test/test1.sol\":8567:8576  classList */\n      dup4\n        /* \"solidity_test/test1.sol\":8546:8556  setStudent */\n      tag_42\n        /* \"solidity_test/test1.sol\":8546:8577  setStudent(\"min\",100,classList) */\n      jump\t// in\n    tag_312:\n        /* \"solidity_test/test1.sol\":8588:8619  setStudent(\"kin\",100,classList) */\n      tag_313\n      mload(0x40)\n      dup1\n      0x40\n      add\n      0x40\n      mstore\n      dup1\n      0x03\n      dup2\n      mstore\n      0x20\n      add\n      0x6b696e0000000000000000000000000000000000000000000000000000000000\n      dup2\n      mstore\n      pop\n        /* \"solidity_test/test1.sol\":8605:8608  100 */\n      0x64\n        /* \"solidity_test/test1.sol\":8609:8618  classList */\n      dup4\n        /* \"solidity_test/test1.sol\":8588:8598  setStudent */\n      tag_42\n        /* \"solidity_test/test1.sol\":8588:8619  setStudent(\"kin\",100,classList) */\n      jump\t// in\n    tag_313:\n        /* \"solidity_test/test1.sol\":8630:8660  setStudent(\"jin\",40,classList) */\n      tag_314\n      mload(0x40)\n      dup1\n      0x40\n      add\n      0x40\n      mstore\n      dup1\n      0x03\n      dup2\n      mstore\n      0x20\n      add\n      0x6a696e0000000000000000000000000000000000000000000000000000000000\n      dup2\n      mstore\n      pop\n        /* \"solidity_test/test1.sol\":8647:8649  40 */\n      0x28\n        /* \"solidity_test/test1.sol\":8650:8659  classList */\n      dup4\n        /* \"solidity_test/test1.sol\":8630:8640  setStudent */\n      tag_42\n        /* \"solidity_test/test1.sol\":8630:8660  setStudent(\"jin\",40,classList) */\n      jump\t// in\n    tag_314:\n        /* \"solidity_test/test1.sol\":8671:8701  setStudent(\"lin\",40,classList) */\n      tag_315\n      mload(0x40)\n      dup1\n      0x40\n      add\n      0x40\n      mstore\n      dup1\n      0x03\n      dup2\n      mstore\n      0x20\n      add\n      0x6c696e0000000000000000000000000000000000000000000000000000000000\n      dup2\n      mstore\n      pop\n        /* \"solidity_test/test1.sol\":8688:8690  40 */\n      0x28\n        /* \"solidity_test/test1.sol\":8691:8700  classList */\n      dup4\n        /* \"solidity_test/test1.sol\":8671:8681  setStudent */\n      tag_42\n        /* \"solidity_test/test1.sol\":8671:8701  setStudent(\"lin\",40,classList) */\n      jump\t// in\n    tag_315:\n        /* \"solidity_test/test1.sol\":8712:8742  setStudent(\"ain\",60,classList) */\n      tag_316\n      mload(0x40)\n      dup1\n      0x40\n      add\n      0x40\n      mstore\n      dup1\n      0x03\n      dup2\n      mstore\n      0x20\n      add\n      0x61696e0000000000000000000000000000000000000000000000000000000000\n      dup2\n      mstore\n      pop\n        /* \"solidity_test/test1.sol\":8729:8731  60 */\n      0x3c\n        /* \"solidity_test/test1.sol\":8732:8741  classList */\n      dup4\n        /* \"solidity_test/test1.sol\":8712:8722  setStudent */\n      tag_42\n        /* \"solidity_test/test1.sol\":8712:8742  setStudent(\"ain\",60,classList) */\n      jump\t// in\n    tag_316:\n        /* \"solidity_test/test1.sol\":8753:8783  setStudent(\"din\",60,classList) */\n      tag_317\n      mload(0x40)\n      dup1\n      0x40\n      add\n      0x40\n      mstore\n      dup1\n      0x03\n      dup2\n      mstore\n      0x20\n      add\n      0x64696e0000000000000000000000000000000000000000000000000000000000\n      dup2\n      mstore\n      pop\n        /* \"solidity_test/test1.sol\":8770:8772  60 */\n      0x3c\n        /* \"solidity_test/test1.sol\":8773:8782  classList */\n      dup4\n        /* \"solidity_test/test1.sol\":8753:8763  setStudent */\n      tag_42\n        /* \"solidity_test/test1.sol\":8753:8783  setStudent(\"din\",60,classList) */\n      jump\t// in\n    tag_317:\n        /* \"solidity_test/test1.sol\":8794:8824  setStudent(\"cin\",50,classList) */\n      tag_318\n      mload(0x40)\n      dup1\n      0x40\n      add\n      0x40\n      mstore\n      dup1\n      0x03\n      dup2\n      mstore\n      0x20\n      add\n      0x63696e0000000000000000000000000000000000000000000000000000000000\n      dup2\n      mstore\n      pop\n        /* \"solidity_test/test1.sol\":8811:8813  50 */\n      0x32\n        /* \"solidity_test/test1.sol\":8814:8823  classList */\n      dup4\n        /* \"solidity_test/test1.sol\":8794:8804  setStudent */\n      tag_42\n        /* \"solidity_test/test1.sol\":8794:8824  setStudent(\"cin\",50,classList) */\n      jump\t// in\n    tag_318:\n        /* \"solidity_test/test1.sol\":8835:8865  setStudent(\"qin\",50,classList) */\n      tag_319\n      mload(0x40)\n      dup1\n      0x40\n      add\n      0x40\n      mstore\n      dup1\n      0x03\n      dup2\n      mstore\n      0x20\n      add\n      0x71696e0000000000000000000000000000000000000000000000000000000000\n      dup2\n      mstore\n      pop\n        /* \"solidity_test/test1.sol\":8852:8854  50 */\n      0x32\n        /* \"solidity_test/test1.sol\":8855:8864  classList */\n      dup4\n        /* \"solidity_test/test1.sol\":8835:8845  setStudent */\n      tag_42\n        /* \"solidity_test/test1.sol\":8835:8865  setStudent(\"qin\",50,classList) */\n      jump\t// in\n    tag_319:\n        /* \"solidity_test/test1.sol\":8294:8873  {... */\n      pop\n        /* \"solidity_test/test1.sol\":8264:8873  function pushStudent() public {... */\n      jump\t// out\n    tag_88:\n      mload(0x40)\n      dup1\n      0xa0\n      add\n      0x40\n      mstore\n      dup1\n      0x60\n      dup2\n      mstore\n      0x20\n      add\n      0x00\n      dup2\n      mstore\n      0x20\n      add\n      0x00\n      dup2\n      mstore\n      0x20\n      add\n      0x60\n      dup2\n      mstore\n      0x20\n      add\n      0x60\n      dup2\n      mstore\n      pop\n      swap1\n      jump\t// out\n    tag_252:\n      dup3\n      dup1\n      sload\n      dup3\n      dup3\n      sstore\n      swap1\n      0x00\n      mstore\n      keccak256(0x00, 0x20)\n      swap1\n      dup2\n      add\n      swap3\n      dup3\n      iszero\n      tag_320\n      jumpi\n      swap2\n      0x20\n      mul\n      dup3\n      add\n    tag_321:\n      dup3\n      dup2\n      gt\n      iszero\n      tag_322\n      jumpi\n      dup3\n      mload\n      dup3\n      swap1\n      dup2\n      tag_323\n      swap2\n      swap1\n      tag_249\n      jump\t// in\n    tag_323:\n      pop\n      swap2\n      0x20\n      add\n      swap2\n      swap1\n      0x01\n      add\n      swap1\n      jump(tag_321)\n    tag_322:\n    tag_320:\n      pop\n      swap1\n      pop\n      tag_324\n      swap2\n      swap1\n      tag_325\n      jump\t// in\n    tag_324:\n      pop\n      swap1\n      jump\t// out\n    tag_259:\n      dup3\n      dup1\n      sload\n      dup3\n      dup3\n      sstore\n      swap1\n      0x00\n      mstore\n      keccak256(0x00, 0x20)\n      swap1\n      dup2\n      add\n      swap3\n      dup3\n      iszero\n      tag_326\n      jumpi\n      0x00\n      mstore\n      keccak256(0x00, 0x20)\n      swap2\n      dup3\n      add\n    tag_327:\n      dup3\n      dup2\n      gt\n      iszero\n      tag_328\n      jumpi\n      dup3\n      dup3\n      swap1\n      dup2\n      tag_329\n      swap2\n      swap1\n      tag_256\n      jump\t// in\n    tag_329:\n      pop\n      swap2\n      0x01\n      add\n      swap2\n      swap1\n      0x01\n      add\n      swap1\n      jump(tag_327)\n    tag_328:\n    tag_326:\n      pop\n      swap1\n      pop\n      tag_330\n      swap2\n      swap1\n      tag_325\n      jump\t// in\n    tag_330:\n      pop\n      swap1\n      jump\t// out\n    tag_325:\n    tag_331:\n      dup1\n      dup3\n      gt\n      iszero\n      tag_332\n      jumpi\n      0x00\n      dup2\n      dup2\n      tag_333\n      swap2\n      swap1\n      tag_334\n      jump\t// in\n    tag_333:\n      pop\n      0x01\n      add\n      jump(tag_331)\n    tag_332:\n      pop\n      swap1\n      jump\t// out\n    tag_334:\n      pop\n      dup1\n      sload\n      tag_335\n      swap1\n      tag_63\n      jump\t// in\n    tag_335:\n      0x00\n      dup3\n      sstore\n      dup1\n      0x1f\n      lt\n      tag_337\n      jumpi\n      pop\n      jump(tag_336)\n    tag_337:\n      0x1f\n      add\n      0x20\n      swap1\n      div\n      swap1\n      0x00\n      mstore\n      keccak256(0x00, 0x20)\n      swap1\n      dup2\n      add\n      swap1\n      tag_338\n      swap2\n      swap1\n      tag_339\n      jump\t// in\n    tag_338:\n    tag_336:\n      pop\n      jump\t// out\n    tag_339:\n    tag_340:\n      dup1\n      dup3\n      gt\n      iszero\n      tag_341\n      jumpi\n      0x00\n      dup2\n      0x00\n      swap1\n      sstore\n      pop\n      0x01\n      add\n      jump(tag_340)\n    tag_341:\n      pop\n      swap1\n      jump\t// out\n        /* \"#utility.yul\":7:145   */\n    tag_342:\n        /* \"#utility.yul\":98:104   */\n      0x00\n        /* \"#utility.yul\":132:137   */\n      dup2\n        /* \"#utility.yul\":126:138   */\n      mload\n        /* \"#utility.yul\":116:138   */\n      swap1\n      pop\n        /* \"#utility.yul\":7:145   */\n      swap2\n      swap1\n      pop\n      jump\t// out\n        /* \"#utility.yul\":151:359   */\n    tag_343:\n        /* \"#utility.yul\":274:285   */\n      0x00\n        /* \"#utility.yul\":308:314   */\n      dup3\n        /* \"#utility.yul\":303:306   */\n      dup3\n        /* \"#utility.yul\":296:315   */\n      mstore\n        /* \"#utility.yul\":348:352   */\n      0x20\n        /* \"#utility.yul\":343:346   */\n      dup3\n        /* \"#utility.yul\":339:353   */\n      add\n        /* \"#utility.yul\":324:353   */\n      swap1\n      pop\n        /* \"#utility.yul\":151:359   */\n      swap3\n      swap2\n      pop\n      pop\n      jump\t// out\n        /* \"#utility.yul\":365:521   */\n    tag_344:\n        /* \"#utility.yul\":456:460   */\n      0x00\n        /* \"#utility.yul\":479:482   */\n      dup2\n        /* \"#utility.yul\":471:482   */\n      swap1\n      pop\n        /* \"#utility.yul\":509:513   */\n      0x20\n        /* \"#utility.yul\":504:507   */\n      dup3\n        /* \"#utility.yul\":500:514   */\n      add\n        /* \"#utility.yul\":492:514   */\n      swap1\n      pop\n        /* \"#utility.yul\":365:521   */\n      swap2\n      swap1\n      pop\n      jump\t// out\n        /* \"#utility.yul\":527:626   */\n    tag_345:\n        /* \"#utility.yul\":579:585   */\n      0x00\n        /* \"#utility.yul\":613:618   */\n      dup2\n        /* \"#utility.yul\":607:619   */\n      mload\n        /* \"#utility.yul\":597:619   */\n      swap1\n      pop\n        /* \"#utility.yul\":527:626   */\n      swap2\n      swap1\n      pop\n      jump\t// out\n        /* \"#utility.yul\":632:791   */\n    tag_346:\n        /* \"#utility.yul\":706:717   */\n      0x00\n        /* \"#utility.yul\":740:746   */\n      dup3\n        /* \"#utility.yul\":735:738   */\n      dup3\n        /* \"#utility.yul\":728:747   */\n      mstore\n        /* \"#utility.yul\":780:784   */\n      0x20\n        /* \"#utility.yul\":775:778   */\n      dup3\n        /* \"#utility.yul\":771:785   */\n      add\n        /* \"#utility.yul\":756:785   */\n      swap1\n      pop\n        /* \"#utility.yul\":632:791   */\n      swap3\n      swap2\n      pop\n      pop\n      jump\t// out\n        /* \"#utility.yul\":797:936   */\n    tag_347:\n        /* \"#utility.yul\":886:892   */\n      dup3\n        /* \"#utility.yul\":881:884   */\n      dup2\n        /* \"#utility.yul\":876:879   */\n      dup4\n        /* \"#utility.yul\":870:893   */\n      mcopy\n        /* \"#utility.yul\":927:928   */\n      0x00\n        /* \"#utility.yul\":918:924   */\n      dup4\n        /* \"#utility.yul\":913:916   */\n      dup4\n        /* \"#utility.yul\":909:925   */\n      add\n        /* \"#utility.yul\":902:929   */\n      mstore\n        /* \"#utility.yul\":797:936   */\n      pop\n      pop\n      pop\n      jump\t// out\n        /* \"#utility.yul\":942:1044   */\n    tag_348:\n        /* \"#utility.yul\":983:989   */\n      0x00\n        /* \"#utility.yul\":1034:1036   */\n      0x1f\n        /* \"#utility.yul\":1030:1037   */\n      not\n        /* \"#utility.yul\":1025:1027   */\n      0x1f\n        /* \"#utility.yul\":1018:1023   */\n      dup4\n        /* \"#utility.yul\":1014:1028   */\n      add\n        /* \"#utility.yul\":1010:1038   */\n      and\n        /* \"#utility.yul\":1000:1038   */\n      swap1\n      pop\n        /* \"#utility.yul\":942:1044   */\n      swap2\n      swap1\n      pop\n      jump\t// out\n        /* \"#utility.yul\":1050:1407   */\n    tag_349:\n        /* \"#utility.yul\":1128:1131   */\n      0x00\n        /* \"#utility.yul\":1156:1195   */\n      tag_413\n        /* \"#utility.yul\":1189:1194   */\n      dup3\n        /* \"#utility.yul\":1156:1195   */\n      tag_345\n      jump\t// in\n    tag_413:\n        /* \"#utility.yul\":1211:1272   */\n      tag_414\n        /* \"#utility.yul\":1265:1271   */\n      dup2\n        /* \"#utility.yul\":1260:1263   */\n      dup6\n        /* \"#utility.yul\":1211:1272   */\n      tag_346\n      jump\t// in\n    tag_414:\n        /* \"#utility.yul\":1204:1272   */\n      swap4\n      pop\n        /* \"#utility.yul\":1281:1346   */\n      tag_415\n        /* \"#utility.yul\":1339:1345   */\n      dup2\n        /* \"#utility.yul\":1334:1337   */\n      dup6\n        /* \"#utility.yul\":1327:1331   */\n      0x20\n        /* \"#utility.yul\":1320:1325   */\n      dup7\n        /* \"#utility.yul\":1316:1332   */\n      add\n        /* \"#utility.yul\":1281:1346   */\n      tag_347\n      jump\t// in\n    tag_415:\n        /* \"#utility.yul\":1371:1400   */\n      tag_416\n        /* \"#utility.yul\":1393:1399   */\n      dup2\n        /* \"#utility.yul\":1371:1400   */\n      tag_348\n      jump\t// in\n    tag_416:\n        /* \"#utility.yul\":1366:1369   */\n      dup5\n        /* \"#utility.yul\":1362:1401   */\n      add\n        /* \"#utility.yul\":1355:1401   */\n      swap2\n      pop\n        /* \"#utility.yul\":1132:1407   */\n      pop\n        /* \"#utility.yul\":1050:1407   */\n      swap3\n      swap2\n      pop\n      pop\n      jump\t// out\n        /* \"#utility.yul\":1413:1490   */\n    tag_350:\n        /* \"#utility.yul\":1450:1457   */\n      0x00\n        /* \"#utility.yul\":1479:1484   */\n      dup2\n        /* \"#utility.yul\":1468:1484   */\n      swap1\n      pop\n        /* \"#utility.yul\":1413:1490   */\n      swap2\n      swap1\n      pop\n      jump\t// out\n        /* \"#utility.yul\":1496:1604   */\n    tag_351:\n        /* \"#utility.yul\":1573:1597   */\n      tag_419\n        /* \"#utility.yul\":1591:1596   */\n      dup2\n        /* \"#utility.yul\":1573:1597   */\n      tag_350\n      jump\t// in\n    tag_419:\n        /* \"#utility.yul\":1568:1571   */\n      dup3\n        /* \"#utility.yul\":1561:1598   */\n      mstore\n        /* \"#utility.yul\":1496:1604   */\n      pop\n      pop\n      jump\t// out\n        /* \"#utility.yul\":1610:1734   */\n    tag_352:\n        /* \"#utility.yul\":1687:1693   */\n      0x00\n        /* \"#utility.yul\":1721:1726   */\n      dup2\n        /* \"#utility.yul\":1715:1727   */\n      mload\n        /* \"#utility.yul\":1705:1727   */\n      swap1\n      pop\n        /* \"#utility.yul\":1610:1734   */\n      swap2\n      swap1\n      pop\n      jump\t// out\n        /* \"#utility.yul\":1740:1924   */\n    tag_353:\n        /* \"#utility.yul\":1839:1850   */\n      0x00\n        /* \"#utility.yul\":1873:1879   */\n      dup3\n        /* \"#utility.yul\":1868:1871   */\n      dup3\n        /* \"#utility.yul\":1861:1880   */\n      mstore\n        /* \"#utility.yul\":1913:1917   */\n      0x20\n        /* \"#utility.yul\":1908:1911   */\n      dup3\n        /* \"#utility.yul\":1904:1918   */\n      add\n        /* \"#utility.yul\":1889:1918   */\n      swap1\n      pop\n        /* \"#utility.yul\":1740:1924   */\n      swap3\n      swap2\n      pop\n      pop\n      jump\t// out\n        /* \"#utility.yul\":1930:2072   */\n    tag_354:\n        /* \"#utility.yul\":2007:2011   */\n      0x00\n        /* \"#utility.yul\":2030:2033   */\n      dup2\n        /* \"#utility.yul\":2022:2033   */\n      swap1\n      pop\n        /* \"#utility.yul\":2060:2064   */\n      0x20\n        /* \"#utility.yul\":2055:2058   */\n      dup3\n        /* \"#utility.yul\":2051:2065   */\n      add\n        /* \"#utility.yul\":2043:2065   */\n      swap1\n      pop\n        /* \"#utility.yul\":1930:2072   */\n      swap2\n      swap1\n      pop\n      jump\t// out\n        /* \"#utility.yul\":2078:2274   */\n    tag_355:\n        /* \"#utility.yul\":2167:2177   */\n      0x00\n        /* \"#utility.yul\":2202:2268   */\n      tag_424\n        /* \"#utility.yul\":2264:2267   */\n      dup4\n        /* \"#utility.yul\":2256:2262   */\n      dup4\n        /* \"#utility.yul\":2202:2268   */\n      tag_349\n      jump\t// in\n    tag_424:\n        /* \"#utility.yul\":2188:2268   */\n      swap1\n      pop\n        /* \"#utility.yul\":2078:2274   */\n      swap3\n      swap2\n      pop\n      pop\n      jump\t// out\n        /* \"#utility.yul\":2280:2403   */\n    tag_356:\n        /* \"#utility.yul\":2360:2364   */\n      0x00\n        /* \"#utility.yul\":2392:2396   */\n      0x20\n        /* \"#utility.yul\":2387:2390   */\n      dup3\n        /* \"#utility.yul\":2383:2397   */\n      add\n        /* \"#utility.yul\":2375:2397   */\n      swap1\n      pop\n        /* \"#utility.yul\":2280:2403   */\n      swap2\n      swap1\n      pop\n      jump\t// out\n        /* \"#utility.yul\":2437:3408   */\n    tag_357:\n        /* \"#utility.yul\":2566:2569   */\n      0x00\n        /* \"#utility.yul\":2595:2659   */\n      tag_427\n        /* \"#utility.yul\":2653:2658   */\n      dup3\n        /* \"#utility.yul\":2595:2659   */\n      tag_352\n      jump\t// in\n    tag_427:\n        /* \"#utility.yul\":2675:2761   */\n      tag_428\n        /* \"#utility.yul\":2754:2760   */\n      dup2\n        /* \"#utility.yul\":2749:2752   */\n      dup6\n        /* \"#utility.yul\":2675:2761   */\n      tag_353\n      jump\t// in\n    tag_428:\n        /* \"#utility.yul\":2668:2761   */\n      swap4\n      pop\n        /* \"#utility.yul\":2787:2790   */\n      dup4\n        /* \"#utility.yul\":2832:2836   */\n      0x20\n        /* \"#utility.yul\":2824:2830   */\n      dup3\n        /* \"#utility.yul\":2820:2837   */\n      mul\n        /* \"#utility.yul\":2815:2818   */\n      dup6\n        /* \"#utility.yul\":2811:2838   */\n      add\n        /* \"#utility.yul\":2862:2928   */\n      tag_429\n        /* \"#utility.yul\":2922:2927   */\n      dup6\n        /* \"#utility.yul\":2862:2928   */\n      tag_354\n      jump\t// in\n    tag_429:\n        /* \"#utility.yul\":2951:2958   */\n      dup1\n        /* \"#utility.yul\":2982:2983   */\n      0x00\n        /* \"#utility.yul\":2967:3363   */\n    tag_430:\n        /* \"#utility.yul\":2992:2998   */\n      dup6\n        /* \"#utility.yul\":2989:2990   */\n      dup2\n        /* \"#utility.yul\":2986:2999   */\n      lt\n        /* \"#utility.yul\":2967:3363   */\n      iszero\n      tag_432\n      jumpi\n        /* \"#utility.yul\":3063:3072   */\n      dup5\n        /* \"#utility.yul\":3057:3061   */\n      dup5\n        /* \"#utility.yul\":3053:3073   */\n      sub\n        /* \"#utility.yul\":3048:3051   */\n      dup10\n        /* \"#utility.yul\":3041:3074   */\n      mstore\n        /* \"#utility.yul\":3114:3120   */\n      dup2\n        /* \"#utility.yul\":3108:3121   */\n      mload\n        /* \"#utility.yul\":3142:3226   */\n      tag_433\n        /* \"#utility.yul\":3221:3225   */\n      dup6\n        /* \"#utility.yul\":3206:3219   */\n      dup3\n        /* \"#utility.yul\":3142:3226   */\n      tag_355\n      jump\t// in\n    tag_433:\n        /* \"#utility.yul\":3134:3226   */\n      swap5\n      pop\n        /* \"#utility.yul\":3249:3319   */\n      tag_434\n        /* \"#utility.yul\":3312:3318   */\n      dup4\n        /* \"#utility.yul\":3249:3319   */\n      tag_356\n      jump\t// in\n    tag_434:\n        /* \"#utility.yul\":3239:3319   */\n      swap3\n      pop\n        /* \"#utility.yul\":3348:3352   */\n      0x20\n        /* \"#utility.yul\":3343:3346   */\n      dup11\n        /* \"#utility.yul\":3339:3353   */\n      add\n        /* \"#utility.yul\":3332:3353   */\n      swap10\n      pop\n        /* \"#utility.yul\":3027:3363   */\n      pop\n        /* \"#utility.yul\":3014:3015   */\n      0x01\n        /* \"#utility.yul\":3011:3012   */\n      dup2\n        /* \"#utility.yul\":3007:3016   */\n      add\n        /* \"#utility.yul\":3002:3016   */\n      swap1\n      pop\n        /* \"#utility.yul\":2967:3363   */\n      jump(tag_430)\n    tag_432:\n        /* \"#utility.yul\":2971:2985   */\n      pop\n        /* \"#utility.yul\":3379:3383   */\n      dup3\n        /* \"#utility.yul\":3372:3383   */\n      swap8\n      pop\n        /* \"#utility.yul\":3399:3402   */\n      dup8\n        /* \"#utility.yul\":3392:3402   */\n      swap6\n      pop\n        /* \"#utility.yul\":2571:3408   */\n      pop\n      pop\n      pop\n      pop\n      pop\n        /* \"#utility.yul\":2437:3408   */\n      swap3\n      swap2\n      pop\n      pop\n      jump\t// out\n        /* \"#utility.yul\":3466:4781   */\n    tag_358:\n        /* \"#utility.yul\":3573:3576   */\n      0x00\n        /* \"#utility.yul\":3609:3613   */\n      0xa0\n        /* \"#utility.yul\":3604:3607   */\n      dup4\n        /* \"#utility.yul\":3600:3614   */\n      add\n        /* \"#utility.yul\":3696:3700   */\n      0x00\n        /* \"#utility.yul\":3689:3694   */\n      dup4\n        /* \"#utility.yul\":3685:3701   */\n      add\n        /* \"#utility.yul\":3679:3702   */\n      mload\n        /* \"#utility.yul\":3749:3752   */\n      dup5\n        /* \"#utility.yul\":3743:3747   */\n      dup3\n        /* \"#utility.yul\":3739:3753   */\n      sub\n        /* \"#utility.yul\":3732:3736   */\n      0x00\n        /* \"#utility.yul\":3727:3730   */\n      dup7\n        /* \"#utility.yul\":3723:3737   */\n      add\n        /* \"#utility.yul\":3716:3754   */\n      mstore\n        /* \"#utility.yul\":3775:3848   */\n      tag_436\n        /* \"#utility.yul\":3843:3847   */\n      dup3\n        /* \"#utility.yul\":3829:3841   */\n      dup3\n        /* \"#utility.yul\":3775:3848   */\n      tag_349\n      jump\t// in\n    tag_436:\n        /* \"#utility.yul\":3767:3848   */\n      swap2\n      pop\n        /* \"#utility.yul\":3624:3859   */\n      pop\n        /* \"#utility.yul\":3943:3947   */\n      0x20\n        /* \"#utility.yul\":3936:3941   */\n      dup4\n        /* \"#utility.yul\":3932:3948   */\n      add\n        /* \"#utility.yul\":3926:3949   */\n      mload\n        /* \"#utility.yul\":3962:4025   */\n      tag_437\n        /* \"#utility.yul\":4019:4023   */\n      0x20\n        /* \"#utility.yul\":4014:4017   */\n      dup7\n        /* \"#utility.yul\":4010:4024   */\n      add\n        /* \"#utility.yul\":3996:4008   */\n      dup3\n        /* \"#utility.yul\":3962:4025   */\n      tag_351\n      jump\t// in\n    tag_437:\n        /* \"#utility.yul\":3869:4035   */\n      pop\n        /* \"#utility.yul\":4118:4122   */\n      0x40\n        /* \"#utility.yul\":4111:4116   */\n      dup4\n        /* \"#utility.yul\":4107:4123   */\n      add\n        /* \"#utility.yul\":4101:4124   */\n      mload\n        /* \"#utility.yul\":4137:4200   */\n      tag_438\n        /* \"#utility.yul\":4194:4198   */\n      0x40\n        /* \"#utility.yul\":4189:4192   */\n      dup7\n        /* \"#utility.yul\":4185:4199   */\n      add\n        /* \"#utility.yul\":4171:4183   */\n      dup3\n        /* \"#utility.yul\":4137:4200   */\n      tag_351\n      jump\t// in\n    tag_438:\n        /* \"#utility.yul\":4045:4210   */\n      pop\n        /* \"#utility.yul\":4293:4297   */\n      0x60\n        /* \"#utility.yul\":4286:4291   */\n      dup4\n        /* \"#utility.yul\":4282:4298   */\n      add\n        /* \"#utility.yul\":4276:4299   */\n      mload\n        /* \"#utility.yul\":4346:4349   */\n      dup5\n        /* \"#utility.yul\":4340:4344   */\n      dup3\n        /* \"#utility.yul\":4336:4350   */\n      sub\n        /* \"#utility.yul\":4329:4333   */\n      0x60\n        /* \"#utility.yul\":4324:4327   */\n      dup7\n        /* \"#utility.yul\":4320:4334   */\n      add\n        /* \"#utility.yul\":4313:4351   */\n      mstore\n        /* \"#utility.yul\":4372:4445   */\n      tag_439\n        /* \"#utility.yul\":4440:4444   */\n      dup3\n        /* \"#utility.yul\":4426:4438   */\n      dup3\n        /* \"#utility.yul\":4372:4445   */\n      tag_349\n      jump\t// in\n    tag_439:\n        /* \"#utility.yul\":4364:4445   */\n      swap2\n      pop\n        /* \"#utility.yul\":4220:4456   */\n      pop\n        /* \"#utility.yul\":4541:4545   */\n      0x80\n        /* \"#utility.yul\":4534:4539   */\n      dup4\n        /* \"#utility.yul\":4530:4546   */\n      add\n        /* \"#utility.yul\":4524:4547   */\n      mload\n        /* \"#utility.yul\":4594:4597   */\n      dup5\n        /* \"#utility.yul\":4588:4592   */\n      dup3\n        /* \"#utility.yul\":4584:4598   */\n      sub\n        /* \"#utility.yul\":4577:4581   */\n      0x80\n        /* \"#utility.yul\":4572:4575   */\n      dup7\n        /* \"#utility.yul\":4568:4582   */\n      add\n        /* \"#utility.yul\":4561:4599   */\n      mstore\n        /* \"#utility.yul\":4620:4743   */\n      tag_440\n        /* \"#utility.yul\":4738:4742   */\n      dup3\n        /* \"#utility.yul\":4724:4736   */\n      dup3\n        /* \"#utility.yul\":4620:4743   */\n      tag_357\n      jump\t// in\n    tag_440:\n        /* \"#utility.yul\":4612:4743   */\n      swap2\n      pop\n        /* \"#utility.yul\":4466:4754   */\n      pop\n        /* \"#utility.yul\":4771:4775   */\n      dup1\n        /* \"#utility.yul\":4764:4775   */\n      swap2\n      pop\n        /* \"#utility.yul\":3578:4781   */\n      pop\n        /* \"#utility.yul\":3466:4781   */\n      swap3\n      swap2\n      pop\n      pop\n      jump\t// out\n        /* \"#utility.yul\":4787:5039   */\n    tag_359:\n        /* \"#utility.yul\":4904:4914   */\n      0x00\n        /* \"#utility.yul\":4939:5033   */\n      tag_442\n        /* \"#utility.yul\":5029:5032   */\n      dup4\n        /* \"#utility.yul\":5021:5027   */\n      dup4\n        /* \"#utility.yul\":4939:5033   */\n      tag_358\n      jump\t// in\n    tag_442:\n        /* \"#utility.yul\":4925:5033   */\n      swap1\n      pop\n        /* \"#utility.yul\":4787:5039   */\n      swap3\n      swap2\n      pop\n      pop\n      jump\t// out\n        /* \"#utility.yul\":5045:5182   */\n    tag_360:\n        /* \"#utility.yul\":5139:5143   */\n      0x00\n        /* \"#utility.yul\":5171:5175   */\n      0x20\n        /* \"#utility.yul\":5166:5169   */\n      dup3\n        /* \"#utility.yul\":5162:5176   */\n      add\n        /* \"#utility.yul\":5154:5176   */\n      swap1\n      pop\n        /* \"#utility.yul\":5045:5182   */\n      swap2\n      swap1\n      pop\n      jump\t// out\n        /* \"#utility.yul\":5244:6347   */\n    tag_361:\n        /* \"#utility.yul\":5411:5414   */\n      0x00\n        /* \"#utility.yul\":5440:5518   */\n      tag_445\n        /* \"#utility.yul\":5512:5517   */\n      dup3\n        /* \"#utility.yul\":5440:5518   */\n      tag_342\n      jump\t// in\n    tag_445:\n        /* \"#utility.yul\":5534:5644   */\n      tag_446\n        /* \"#utility.yul\":5637:5643   */\n      dup2\n        /* \"#utility.yul\":5632:5635   */\n      dup6\n        /* \"#utility.yul\":5534:5644   */\n      tag_343\n      jump\t// in\n    tag_446:\n        /* \"#utility.yul\":5527:5644   */\n      swap4\n      pop\n        /* \"#utility.yul\":5670:5673   */\n      dup4\n        /* \"#utility.yul\":5715:5719   */\n      0x20\n        /* \"#utility.yul\":5707:5713   */\n      dup3\n        /* \"#utility.yul\":5703:5720   */\n      mul\n        /* \"#utility.yul\":5698:5701   */\n      dup6\n        /* \"#utility.yul\":5694:5721   */\n      add\n        /* \"#utility.yul\":5745:5825   */\n      tag_447\n        /* \"#utility.yul\":5819:5824   */\n      dup6\n        /* \"#utility.yul\":5745:5825   */\n      tag_344\n      jump\t// in\n    tag_447:\n        /* \"#utility.yul\":5848:5855   */\n      dup1\n        /* \"#utility.yul\":5879:5880   */\n      0x00\n        /* \"#utility.yul\":5864:6302   */\n    tag_448:\n        /* \"#utility.yul\":5889:5895   */\n      dup6\n        /* \"#utility.yul\":5886:5887   */\n      dup2\n        /* \"#utility.yul\":5883:5896   */\n      lt\n        /* \"#utility.yul\":5864:6302   */\n      iszero\n      tag_450\n      jumpi\n        /* \"#utility.yul\":5960:5969   */\n      dup5\n        /* \"#utility.yul\":5954:5958   */\n      dup5\n        /* \"#utility.yul\":5950:5970   */\n      sub\n        /* \"#utility.yul\":5945:5948   */\n      dup10\n        /* \"#utility.yul\":5938:5971   */\n      mstore\n        /* \"#utility.yul\":6011:6017   */\n      dup2\n        /* \"#utility.yul\":6005:6018   */\n      mload\n        /* \"#utility.yul\":6039:6151   */\n      tag_451\n        /* \"#utility.yul\":6146:6150   */\n      dup6\n        /* \"#utility.yul\":6131:6144   */\n      dup3\n        /* \"#utility.yul\":6039:6151   */\n      tag_359\n      jump\t// in\n    tag_451:\n        /* \"#utility.yul\":6031:6151   */\n      swap5\n      pop\n        /* \"#utility.yul\":6174:6258   */\n      tag_452\n        /* \"#utility.yul\":6251:6257   */\n      dup4\n        /* \"#utility.yul\":6174:6258   */\n      tag_360\n      jump\t// in\n    tag_452:\n        /* \"#utility.yul\":6164:6258   */\n      swap3\n      pop\n        /* \"#utility.yul\":6287:6291   */\n      0x20\n        /* \"#utility.yul\":6282:6285   */\n      dup11\n        /* \"#utility.yul\":6278:6292   */\n      add\n        /* \"#utility.yul\":6271:6292   */\n      swap10\n      pop\n        /* \"#utility.yul\":5924:6302   */\n      pop\n        /* \"#utility.yul\":5911:5912   */\n      0x01\n        /* \"#utility.yul\":5908:5909   */\n      dup2\n        /* \"#utility.yul\":5904:5913   */\n      add\n        /* \"#utility.yul\":5899:5913   */\n      swap1\n      pop\n        /* \"#utility.yul\":5864:6302   */\n      jump(tag_448)\n    tag_450:\n        /* \"#utility.yul\":5868:5882   */\n      pop\n        /* \"#utility.yul\":6318:6322   */\n      dup3\n        /* \"#utility.yul\":6311:6322   */\n      swap8\n      pop\n        /* \"#utility.yul\":6338:6341   */\n      dup8\n        /* \"#utility.yul\":6331:6341   */\n      swap6\n      pop\n        /* \"#utility.yul\":5416:6347   */\n      pop\n      pop\n      pop\n      pop\n      pop\n        /* \"#utility.yul\":5244:6347   */\n      swap3\n      swap2\n      pop\n      pop\n      jump\t// out\n        /* \"#utility.yul\":6353:6822   */\n    tag_18:\n        /* \"#utility.yul\":6544:6548   */\n      0x00\n        /* \"#utility.yul\":6582:6584   */\n      0x20\n        /* \"#utility.yul\":6571:6580   */\n      dup3\n        /* \"#utility.yul\":6567:6585   */\n      add\n        /* \"#utility.yul\":6559:6585   */\n      swap1\n      pop\n        /* \"#utility.yul\":6631:6640   */\n      dup2\n        /* \"#utility.yul\":6625:6629   */\n      dup2\n        /* \"#utility.yul\":6621:6641   */\n      sub\n        /* \"#utility.yul\":6617:6618   */\n      0x00\n        /* \"#utility.yul\":6606:6615   */\n      dup4\n        /* \"#utility.yul\":6602:6619   */\n      add\n        /* \"#utility.yul\":6595:6642   */\n      mstore\n        /* \"#utility.yul\":6659:6815   */\n      tag_454\n        /* \"#utility.yul\":6810:6814   */\n      dup2\n        /* \"#utility.yul\":6801:6807   */\n      dup5\n        /* \"#utility.yul\":6659:6815   */\n      tag_361\n      jump\t// in\n    tag_454:\n        /* \"#utility.yul\":6651:6815   */\n      swap1\n      pop\n        /* \"#utility.yul\":6353:6822   */\n      swap3\n      swap2\n      pop\n      pop\n      jump\t// out\n        /* \"#utility.yul\":6828:6946   */\n    tag_362:\n        /* \"#utility.yul\":6915:6939   */\n      tag_456\n        /* \"#utility.yul\":6933:6938   */\n      dup2\n        /* \"#utility.yul\":6915:6939   */\n      tag_350\n      jump\t// in\n    tag_456:\n        /* \"#utility.yul\":6910:6913   */\n      dup3\n        /* \"#utility.yul\":6903:6940   */\n      mstore\n        /* \"#utility.yul\":6828:6946   */\n      pop\n      pop\n      jump\t// out\n        /* \"#utility.yul\":6952:7531   */\n    tag_25:\n        /* \"#utility.yul\":7171:7175   */\n      0x00\n        /* \"#utility.yul\":7209:7211   */\n      0x40\n        /* \"#utility.yul\":7198:7207   */\n      dup3\n        /* \"#utility.yul\":7194:7212   */\n      add\n        /* \"#utility.yul\":7186:7212   */\n      swap1\n      pop\n        /* \"#utility.yul\":7222:7293   */\n      tag_458\n        /* \"#utility.yul\":7290:7291   */\n      0x00\n        /* \"#utility.yul\":7279:7288   */\n      dup4\n        /* \"#utility.yul\":7275:7292   */\n      add\n        /* \"#utility.yul\":7266:7272   */\n      dup6\n        /* \"#utility.yul\":7222:7293   */\n      tag_362\n      jump\t// in\n    tag_458:\n        /* \"#utility.yul\":7340:7349   */\n      dup2\n        /* \"#utility.yul\":7334:7338   */\n      dup2\n        /* \"#utility.yul\":7330:7350   */\n      sub\n        /* \"#utility.yul\":7325:7327   */\n      0x20\n        /* \"#utility.yul\":7314:7323   */\n      dup4\n        /* \"#utility.yul\":7310:7328   */\n      add\n        /* \"#utility.yul\":7303:7351   */\n      mstore\n        /* \"#utility.yul\":7368:7524   */\n      tag_459\n        /* \"#utility.yul\":7519:7523   */\n      dup2\n        /* \"#utility.yul\":7510:7516   */\n      dup5\n        /* \"#utility.yul\":7368:7524   */\n      tag_361\n      jump\t// in\n    tag_459:\n        /* \"#utility.yul\":7360:7524   */\n      swap1\n      pop\n        /* \"#utility.yul\":6952:7531   */\n      swap4\n      swap3\n      pop\n      pop\n      pop\n      jump\t// out\n        /* \"#utility.yul\":7537:7759   */\n    tag_29:\n        /* \"#utility.yul\":7630:7634   */\n      0x00\n        /* \"#utility.yul\":7668:7670   */\n      0x20\n        /* \"#utility.yul\":7657:7666   */\n      dup3\n        /* \"#utility.yul\":7653:7671   */\n      add\n        /* \"#utility.yul\":7645:7671   */\n      swap1\n      pop\n        /* \"#utility.yul\":7681:7752   */\n      tag_461\n        /* \"#utility.yul\":7749:7750   */\n      0x00\n        /* \"#utility.yul\":7738:7747   */\n      dup4\n        /* \"#utility.yul\":7734:7751   */\n      add\n        /* \"#utility.yul\":7725:7731   */\n      dup5\n        /* \"#utility.yul\":7681:7752   */\n      tag_362\n      jump\t// in\n    tag_461:\n        /* \"#utility.yul\":7537:7759   */\n      swap3\n      swap2\n      pop\n      pop\n      jump\t// out\n        /* \"#utility.yul\":7765:7840   */\n    tag_363:\n        /* \"#utility.yul\":7798:7804   */\n      0x00\n        /* \"#utility.yul\":7831:7833   */\n      0x40\n        /* \"#utility.yul\":7825:7834   */\n      mload\n        /* \"#utility.yul\":7815:7834   */\n      swap1\n      pop\n        /* \"#utility.yul\":7765:7840   */\n      swap1\n      jump\t// out\n        /* \"#utility.yul\":7846:7963   */\n    tag_364:\n        /* \"#utility.yul\":7955:7956   */\n      0x00\n        /* \"#utility.yul\":7952:7953   */\n      dup1\n        /* \"#utility.yul\":7945:7957   */\n      revert\n        /* \"#utility.yul\":7969:8086   */\n    tag_365:\n        /* \"#utility.yul\":8078:8079   */\n      0x00\n        /* \"#utility.yul\":8075:8076   */\n      dup1\n        /* \"#utility.yul\":8068:8080   */\n      revert\n        /* \"#utility.yul\":8092:8214   */\n    tag_366:\n        /* \"#utility.yul\":8165:8189   */\n      tag_466\n        /* \"#utility.yul\":8183:8188   */\n      dup2\n        /* \"#utility.yul\":8165:8189   */\n      tag_350\n      jump\t// in\n    tag_466:\n        /* \"#utility.yul\":8158:8163   */\n      dup2\n        /* \"#utility.yul\":8155:8190   */\n      eq\n        /* \"#utility.yul\":8145:8208   */\n      tag_467\n      jumpi\n        /* \"#utility.yul\":8204:8205   */\n      0x00\n        /* \"#utility.yul\":8201:8202   */\n      dup1\n        /* \"#utility.yul\":8194:8206   */\n      revert\n        /* \"#utility.yul\":8145:8208   */\n    tag_467:\n        /* \"#utility.yul\":8092:8214   */\n      pop\n      jump\t// out\n        /* \"#utility.yul\":8220:8359   */\n    tag_367:\n        /* \"#utility.yul\":8266:8271   */\n      0x00\n        /* \"#utility.yul\":8304:8310   */\n      dup2\n        /* \"#utility.yul\":8291:8311   */\n      calldataload\n        /* \"#utility.yul\":8282:8311   */\n      swap1\n      pop\n        /* \"#utility.yul\":8320:8353   */\n      tag_469\n        /* \"#utility.yul\":8347:8352   */\n      dup2\n        /* \"#utility.yul\":8320:8353   */\n      tag_366\n      jump\t// in\n    tag_469:\n        /* \"#utility.yul\":8220:8359   */\n      swap3\n      swap2\n      pop\n      pop\n      jump\t// out\n        /* \"#utility.yul\":8365:8694   */\n    tag_32:\n        /* \"#utility.yul\":8424:8430   */\n      0x00\n        /* \"#utility.yul\":8473:8475   */\n      0x20\n        /* \"#utility.yul\":8461:8470   */\n      dup3\n        /* \"#utility.yul\":8452:8459   */\n      dup5\n        /* \"#utility.yul\":8448:8471   */\n      sub\n        /* \"#utility.yul\":8444:8476   */\n      slt\n        /* \"#utility.yul\":8441:8560   */\n      iszero\n      tag_471\n      jumpi\n        /* \"#utility.yul\":8479:8558   */\n      tag_472\n      tag_364\n      jump\t// in\n    tag_472:\n        /* \"#utility.yul\":8441:8560   */\n    tag_471:\n        /* \"#utility.yul\":8599:8600   */\n      0x00\n        /* \"#utility.yul\":8624:8677   */\n      tag_473\n        /* \"#utility.yul\":8669:8676   */\n      dup5\n        /* \"#utility.yul\":8660:8666   */\n      dup3\n        /* \"#utility.yul\":8649:8658   */\n      dup6\n        /* \"#utility.yul\":8645:8667   */\n      add\n        /* \"#utility.yul\":8624:8677   */\n      tag_367\n      jump\t// in\n    tag_473:\n        /* \"#utility.yul\":8614:8677   */\n      swap2\n      pop\n        /* \"#utility.yul\":8570:8687   */\n      pop\n        /* \"#utility.yul\":8365:8694   */\n      swap3\n      swap2\n      pop\n      pop\n      jump\t// out\n        /* \"#utility.yul\":8752:10077   */\n    tag_368:\n        /* \"#utility.yul\":8869:8872   */\n      0x00\n        /* \"#utility.yul\":8905:8909   */\n      0xa0\n        /* \"#utility.yul\":8900:8903   */\n      dup4\n        /* \"#utility.yul\":8896:8910   */\n      add\n        /* \"#utility.yul\":8992:8996   */\n      0x00\n        /* \"#utility.yul\":8985:8990   */\n      dup4\n        /* \"#utility.yul\":8981:8997   */\n      add\n        /* \"#utility.yul\":8975:8998   */\n      mload\n        /* \"#utility.yul\":9045:9048   */\n      dup5\n        /* \"#utility.yul\":9039:9043   */\n      dup3\n        /* \"#utility.yul\":9035:9049   */\n      sub\n        /* \"#utility.yul\":9028:9032   */\n      0x00\n        /* \"#utility.yul\":9023:9026   */\n      dup7\n        /* \"#utility.yul\":9019:9033   */\n      add\n        /* \"#utility.yul\":9012:9050   */\n      mstore\n        /* \"#utility.yul\":9071:9144   */\n      tag_475\n        /* \"#utility.yul\":9139:9143   */\n      dup3\n        /* \"#utility.yul\":9125:9137   */\n      dup3\n        /* \"#utility.yul\":9071:9144   */\n      tag_349\n      jump\t// in\n    tag_475:\n        /* \"#utility.yul\":9063:9144   */\n      swap2\n      pop\n        /* \"#utility.yul\":8920:9155   */\n      pop\n        /* \"#utility.yul\":9239:9243   */\n      0x20\n        /* \"#utility.yul\":9232:9237   */\n      dup4\n        /* \"#utility.yul\":9228:9244   */\n      add\n        /* \"#utility.yul\":9222:9245   */\n      mload\n        /* \"#utility.yul\":9258:9321   */\n      tag_476\n        /* \"#utility.yul\":9315:9319   */\n      0x20\n        /* \"#utility.yul\":9310:9313   */\n      dup7\n        /* \"#utility.yul\":9306:9320   */\n      add\n        /* \"#utility.yul\":9292:9304   */\n      dup3\n        /* \"#utility.yul\":9258:9321   */\n      tag_351\n      jump\t// in\n    tag_476:\n        /* \"#utility.yul\":9165:9331   */\n      pop\n        /* \"#utility.yul\":9414:9418   */\n      0x40\n        /* \"#utility.yul\":9407:9412   */\n      dup4\n        /* \"#utility.yul\":9403:9419   */\n      add\n        /* \"#utility.yul\":9397:9420   */\n      mload\n        /* \"#utility.yul\":9433:9496   */\n      tag_477\n        /* \"#utility.yul\":9490:9494   */\n      0x40\n        /* \"#utility.yul\":9485:9488   */\n      dup7\n        /* \"#utility.yul\":9481:9495   */\n      add\n        /* \"#utility.yul\":9467:9479   */\n      dup3\n        /* \"#utility.yul\":9433:9496   */\n      tag_351\n      jump\t// in\n    tag_477:\n        /* \"#utility.yul\":9341:9506   */\n      pop\n        /* \"#utility.yul\":9589:9593   */\n      0x60\n        /* \"#utility.yul\":9582:9587   */\n      dup4\n        /* \"#utility.yul\":9578:9594   */\n      add\n        /* \"#utility.yul\":9572:9595   */\n      mload\n        /* \"#utility.yul\":9642:9645   */\n      dup5\n        /* \"#utility.yul\":9636:9640   */\n      dup3\n        /* \"#utility.yul\":9632:9646   */\n      sub\n        /* \"#utility.yul\":9625:9629   */\n      0x60\n        /* \"#utility.yul\":9620:9623   */\n      dup7\n        /* \"#utility.yul\":9616:9630   */\n      add\n        /* \"#utility.yul\":9609:9647   */\n      mstore\n        /* \"#utility.yul\":9668:9741   */\n      tag_478\n        /* \"#utility.yul\":9736:9740   */\n      dup3\n        /* \"#utility.yul\":9722:9734   */\n      dup3\n        /* \"#utility.yul\":9668:9741   */\n      tag_349\n      jump\t// in\n    tag_478:\n        /* \"#utility.yul\":9660:9741   */\n      swap2\n      pop\n        /* \"#utility.yul\":9516:9752   */\n      pop\n        /* \"#utility.yul\":9837:9841   */\n      0x80\n        /* \"#utility.yul\":9830:9835   */\n      dup4\n        /* \"#utility.yul\":9826:9842   */\n      add\n        /* \"#utility.yul\":9820:9843   */\n      mload\n        /* \"#utility.yul\":9890:9893   */\n      dup5\n        /* \"#utility.yul\":9884:9888   */\n      dup3\n        /* \"#utility.yul\":9880:9894   */\n      sub\n        /* \"#utility.yul\":9873:9877   */\n      0x80\n        /* \"#utility.yul\":9868:9871   */\n      dup7\n        /* \"#utility.yul\":9864:9878   */\n      add\n        /* \"#utility.yul\":9857:9895   */\n      mstore\n        /* \"#utility.yul\":9916:10039   */\n      tag_479\n        /* \"#utility.yul\":10034:10038   */\n      dup3\n        /* \"#utility.yul\":10020:10032   */\n      dup3\n        /* \"#utility.yul\":9916:10039   */\n      tag_357\n      jump\t// in\n    tag_479:\n        /* \"#utility.yul\":9908:10039   */\n      swap2\n      pop\n        /* \"#utility.yul\":9762:10050   */\n      pop\n        /* \"#utility.yul\":10067:10071   */\n      dup1\n        /* \"#utility.yul\":10060:10071   */\n      swap2\n      pop\n        /* \"#utility.yul\":8874:10077   */\n      pop\n        /* \"#utility.yul\":8752:10077   */\n      swap3\n      swap2\n      pop\n      pop\n      jump\t// out\n        /* \"#utility.yul\":10083:10452   */\n    tag_35:\n        /* \"#utility.yul\":10224:10228   */\n      0x00\n        /* \"#utility.yul\":10262:10264   */\n      0x20\n        /* \"#utility.yul\":10251:10260   */\n      dup3\n        /* \"#utility.yul\":10247:10265   */\n      add\n        /* \"#utility.yul\":10239:10265   */\n      swap1\n      pop\n        /* \"#utility.yul\":10311:10320   */\n      dup2\n        /* \"#utility.yul\":10305:10309   */\n      dup2\n        /* \"#utility.yul\":10301:10321   */\n      sub\n        /* \"#utility.yul\":10297:10298   */\n      0x00\n        /* \"#utility.yul\":10286:10295   */\n      dup4\n        /* \"#utility.yul\":10282:10299   */\n      add\n        /* \"#utility.yul\":10275:10322   */\n      mstore\n        /* \"#utility.yul\":10339:10445   */\n      tag_481\n        /* \"#utility.yul\":10440:10444   */\n      dup2\n        /* \"#utility.yul\":10431:10437   */\n      dup5\n        /* \"#utility.yul\":10339:10445   */\n      tag_368\n      jump\t// in\n    tag_481:\n        /* \"#utility.yul\":10331:10445   */\n      swap1\n      pop\n        /* \"#utility.yul\":10083:10452   */\n      swap3\n      swap2\n      pop\n      pop\n      jump\t// out\n        /* \"#utility.yul\":10458:10575   */\n    tag_369:\n        /* \"#utility.yul\":10567:10568   */\n      0x00\n        /* \"#utility.yul\":10564:10565   */\n      dup1\n        /* \"#utility.yul\":10557:10569   */\n      revert\n        /* \"#utility.yul\":10581:10698   */\n    tag_370:\n        /* \"#utility.yul\":10690:10691   */\n      0x00\n        /* \"#utility.yul\":10687:10688   */\n      dup1\n        /* \"#utility.yul\":10680:10692   */\n      revert\n        /* \"#utility.yul\":10704:10884   */\n    tag_84:\n        /* \"#utility.yul\":10752:10829   */\n      0x4e487b7100000000000000000000000000000000000000000000000000000000\n        /* \"#utility.yul\":10749:10750   */\n      0x00\n        /* \"#utility.yul\":10742:10830   */\n      mstore\n        /* \"#utility.yul\":10849:10853   */\n      0x41\n        /* \"#utility.yul\":10846:10847   */\n      0x04\n        /* \"#utility.yul\":10839:10854   */\n      mstore\n        /* \"#utility.yul\":10873:10877   */\n      0x24\n        /* \"#utility.yul\":10870:10871   */\n      0x00\n        /* \"#utility.yul\":10863:10878   */\n      revert\n        /* \"#utility.yul\":10890:11171   */\n    tag_371:\n        /* \"#utility.yul\":10973:11000   */\n      tag_486\n        /* \"#utility.yul\":10995:10999   */\n      dup3\n        /* \"#utility.yul\":10973:11000   */\n      tag_348\n      jump\t// in\n    tag_486:\n        /* \"#utility.yul\":10965:10971   */\n      dup2\n        /* \"#utility.yul\":10961:11001   */\n      add\n        /* \"#utility.yul\":11103:11109   */\n      dup2\n        /* \"#utility.yul\":11091:11101   */\n      dup2\n        /* \"#utility.yul\":11088:11110   */\n      lt\n        /* \"#utility.yul\":11067:11085   */\n      0xffffffffffffffff\n        /* \"#utility.yul\":11055:11065   */\n      dup3\n        /* \"#utility.yul\":11052:11086   */\n      gt\n        /* \"#utility.yul\":11049:11111   */\n      or\n        /* \"#utility.yul\":11046:11134   */\n      iszero\n      tag_487\n      jumpi\n        /* \"#utility.yul\":11114:11132   */\n      tag_488\n      tag_84\n      jump\t// in\n    tag_488:\n        /* \"#utility.yul\":11046:11134   */\n    tag_487:\n        /* \"#utility.yul\":11154:11164   */\n      dup1\n        /* \"#utility.yul\":11150:11152   */\n      0x40\n        /* \"#utility.yul\":11143:11165   */\n      mstore\n        /* \"#utility.yul\":10933:11171   */\n      pop\n        /* \"#utility.yul\":10890:11171   */\n      pop\n      pop\n      jump\t// out\n        /* \"#utility.yul\":11177:11306   */\n    tag_372:\n        /* \"#utility.yul\":11211:11217   */\n      0x00\n        /* \"#utility.yul\":11238:11258   */\n      tag_490\n      tag_363\n      jump\t// in\n    tag_490:\n        /* \"#utility.yul\":11228:11258   */\n      swap1\n      pop\n        /* \"#utility.yul\":11267:11300   */\n      tag_491\n        /* \"#utility.yul\":11295:11299   */\n      dup3\n        /* \"#utility.yul\":11287:11293   */\n      dup3\n        /* \"#utility.yul\":11267:11300   */\n      tag_371\n      jump\t// in\n    tag_491:\n        /* \"#utility.yul\":11177:11306   */\n      swap2\n      swap1\n      pop\n      jump\t// out\n        /* \"#utility.yul\":11312:11620   */\n    tag_373:\n        /* \"#utility.yul\":11374:11378   */\n      0x00\n        /* \"#utility.yul\":11464:11482   */\n      0xffffffffffffffff\n        /* \"#utility.yul\":11456:11462   */\n      dup3\n        /* \"#utility.yul\":11453:11483   */\n      gt\n        /* \"#utility.yul\":11450:11506   */\n      iszero\n      tag_493\n      jumpi\n        /* \"#utility.yul\":11486:11504   */\n      tag_494\n      tag_84\n      jump\t// in\n    tag_494:\n        /* \"#utility.yul\":11450:11506   */\n    tag_493:\n        /* \"#utility.yul\":11524:11553   */\n      tag_495\n        /* \"#utility.yul\":11546:11552   */\n      dup3\n        /* \"#utility.yul\":11524:11553   */\n      tag_348\n      jump\t// in\n    tag_495:\n        /* \"#utility.yul\":11516:11553   */\n      swap1\n      pop\n        /* \"#utility.yul\":11608:11612   */\n      0x20\n        /* \"#utility.yul\":11602:11606   */\n      dup2\n        /* \"#utility.yul\":11598:11613   */\n      add\n        /* \"#utility.yul\":11590:11613   */\n      swap1\n      pop\n        /* \"#utility.yul\":11312:11620   */\n      swap2\n      swap1\n      pop\n      jump\t// out\n        /* \"#utility.yul\":11626:11774   */\n    tag_374:\n        /* \"#utility.yul\":11724:11730   */\n      dup3\n        /* \"#utility.yul\":11719:11722   */\n      dup2\n        /* \"#utility.yul\":11714:11717   */\n      dup4\n        /* \"#utility.yul\":11701:11731   */\n      calldatacopy\n        /* \"#utility.yul\":11765:11766   */\n      0x00\n        /* \"#utility.yul\":11756:11762   */\n      dup4\n        /* \"#utility.yul\":11751:11754   */\n      dup4\n        /* \"#utility.yul\":11747:11763   */\n      add\n        /* \"#utility.yul\":11740:11767   */\n      mstore\n        /* \"#utility.yul\":11626:11774   */\n      pop\n      pop\n      pop\n      jump\t// out\n        /* \"#utility.yul\":11780:12205   */\n    tag_375:\n        /* \"#utility.yul\":11858:11863   */\n      0x00\n        /* \"#utility.yul\":11883:11949   */\n      tag_498\n        /* \"#utility.yul\":11899:11948   */\n      tag_499\n        /* \"#utility.yul\":11941:11947   */\n      dup5\n        /* \"#utility.yul\":11899:11948   */\n      tag_373\n      jump\t// in\n    tag_499:\n        /* \"#utility.yul\":11883:11949   */\n      tag_372\n      jump\t// in\n    tag_498:\n        /* \"#utility.yul\":11874:11949   */\n      swap1\n      pop\n        /* \"#utility.yul\":11972:11978   */\n      dup3\n        /* \"#utility.yul\":11965:11970   */\n      dup2\n        /* \"#utility.yul\":11958:11979   */\n      mstore\n        /* \"#utility.yul\":12010:12014   */\n      0x20\n        /* \"#utility.yul\":12003:12008   */\n      dup2\n        /* \"#utility.yul\":11999:12015   */\n      add\n        /* \"#utility.yul\":12048:12051   */\n      dup5\n        /* \"#utility.yul\":12039:12045   */\n      dup5\n        /* \"#utility.yul\":12034:12037   */\n      dup5\n        /* \"#utility.yul\":12030:12046   */\n      add\n        /* \"#utility.yul\":12027:12052   */\n      gt\n        /* \"#utility.yul\":12024:12136   */\n      iszero\n      tag_500\n      jumpi\n        /* \"#utility.yul\":12055:12134   */\n      tag_501\n      tag_370\n      jump\t// in\n    tag_501:\n        /* \"#utility.yul\":12024:12136   */\n    tag_500:\n        /* \"#utility.yul\":12145:12199   */\n      tag_502\n        /* \"#utility.yul\":12192:12198   */\n      dup5\n        /* \"#utility.yul\":12187:12190   */\n      dup3\n        /* \"#utility.yul\":12182:12185   */\n      dup6\n        /* \"#utility.yul\":12145:12199   */\n      tag_374\n      jump\t// in\n    tag_502:\n        /* \"#utility.yul\":11864:12205   */\n      pop\n        /* \"#utility.yul\":11780:12205   */\n      swap4\n      swap3\n      pop\n      pop\n      pop\n      jump\t// out\n        /* \"#utility.yul\":12225:12565   */\n    tag_376:\n        /* \"#utility.yul\":12281:12286   */\n      0x00\n        /* \"#utility.yul\":12330:12333   */\n      dup3\n        /* \"#utility.yul\":12323:12327   */\n      0x1f\n        /* \"#utility.yul\":12315:12321   */\n      dup4\n        /* \"#utility.yul\":12311:12328   */\n      add\n        /* \"#utility.yul\":12307:12334   */\n      slt\n        /* \"#utility.yul\":12297:12419   */\n      tag_504\n      jumpi\n        /* \"#utility.yul\":12338:12417   */\n      tag_505\n      tag_369\n      jump\t// in\n    tag_505:\n        /* \"#utility.yul\":12297:12419   */\n    tag_504:\n        /* \"#utility.yul\":12455:12461   */\n      dup2\n        /* \"#utility.yul\":12442:12462   */\n      calldataload\n        /* \"#utility.yul\":12480:12559   */\n      tag_506\n        /* \"#utility.yul\":12555:12558   */\n      dup5\n        /* \"#utility.yul\":12547:12553   */\n      dup3\n        /* \"#utility.yul\":12540:12544   */\n      0x20\n        /* \"#utility.yul\":12532:12538   */\n      dup7\n        /* \"#utility.yul\":12528:12545   */\n      add\n        /* \"#utility.yul\":12480:12559   */\n      tag_375\n      jump\t// in\n    tag_506:\n        /* \"#utility.yul\":12471:12559   */\n      swap2\n      pop\n        /* \"#utility.yul\":12287:12565   */\n      pop\n        /* \"#utility.yul\":12225:12565   */\n      swap3\n      swap2\n      pop\n      pop\n      jump\t// out\n        /* \"#utility.yul\":12571:12892   */\n    tag_377:\n        /* \"#utility.yul\":12658:12662   */\n      0x00\n        /* \"#utility.yul\":12748:12766   */\n      0xffffffffffffffff\n        /* \"#utility.yul\":12740:12746   */\n      dup3\n        /* \"#utility.yul\":12737:12767   */\n      gt\n        /* \"#utility.yul\":12734:12790   */\n      iszero\n      tag_508\n      jumpi\n        /* \"#utility.yul\":12770:12788   */\n      tag_509\n      tag_84\n      jump\t// in\n    tag_509:\n        /* \"#utility.yul\":12734:12790   */\n    tag_508:\n        /* \"#utility.yul\":12820:12824   */\n      0x20\n        /* \"#utility.yul\":12812:12818   */\n      dup3\n        /* \"#utility.yul\":12808:12825   */\n      mul\n        /* \"#utility.yul\":12800:12825   */\n      swap1\n      pop\n        /* \"#utility.yul\":12880:12884   */\n      0x20\n        /* \"#utility.yul\":12874:12878   */\n      dup2\n        /* \"#utility.yul\":12870:12885   */\n      add\n        /* \"#utility.yul\":12862:12885   */\n      swap1\n      pop\n        /* \"#utility.yul\":12571:12892   */\n      swap2\n      swap1\n      pop\n      jump\t// out\n        /* \"#utility.yul\":12898:13015   */\n    tag_378:\n        /* \"#utility.yul\":13007:13008   */\n      0x00\n        /* \"#utility.yul\":13004:13005   */\n      dup1\n        /* \"#utility.yul\":12997:13009   */\n      revert\n        /* \"#utility.yul\":13037:13982   */\n    tag_379:\n        /* \"#utility.yul\":13143:13148   */\n      0x00\n        /* \"#utility.yul\":13168:13259   */\n      tag_512\n        /* \"#utility.yul\":13184:13258   */\n      tag_513\n        /* \"#utility.yul\":13251:13257   */\n      dup5\n        /* \"#utility.yul\":13184:13258   */\n      tag_377\n      jump\t// in\n    tag_513:\n        /* \"#utility.yul\":13168:13259   */\n      tag_372\n      jump\t// in\n    tag_512:\n        /* \"#utility.yul\":13159:13259   */\n      swap1\n      pop\n        /* \"#utility.yul\":13279:13284   */\n      dup1\n        /* \"#utility.yul\":13308:13314   */\n      dup4\n        /* \"#utility.yul\":13301:13306   */\n      dup3\n        /* \"#utility.yul\":13294:13315   */\n      mstore\n        /* \"#utility.yul\":13342:13346   */\n      0x20\n        /* \"#utility.yul\":13335:13340   */\n      dup3\n        /* \"#utility.yul\":13331:13347   */\n      add\n        /* \"#utility.yul\":13324:13347   */\n      swap1\n      pop\n        /* \"#utility.yul\":13395:13399   */\n      0x20\n        /* \"#utility.yul\":13387:13393   */\n      dup5\n        /* \"#utility.yul\":13383:13400   */\n      mul\n        /* \"#utility.yul\":13375:13381   */\n      dup4\n        /* \"#utility.yul\":13371:13401   */\n      add\n        /* \"#utility.yul\":13424:13427   */\n      dup6\n        /* \"#utility.yul\":13416:13422   */\n      dup2\n        /* \"#utility.yul\":13413:13428   */\n      gt\n        /* \"#utility.yul\":13410:13532   */\n      iszero\n      tag_514\n      jumpi\n        /* \"#utility.yul\":13443:13522   */\n      tag_515\n      tag_378\n      jump\t// in\n    tag_515:\n        /* \"#utility.yul\":13410:13532   */\n    tag_514:\n        /* \"#utility.yul\":13558:13564   */\n      dup4\n        /* \"#utility.yul\":13541:13976   */\n    tag_516:\n        /* \"#utility.yul\":13575:13581   */\n      dup2\n        /* \"#utility.yul\":13570:13573   */\n      dup2\n        /* \"#utility.yul\":13567:13582   */\n      lt\n        /* \"#utility.yul\":13541:13976   */\n      iszero\n      tag_518\n      jumpi\n        /* \"#utility.yul\":13664:13667   */\n      dup1\n        /* \"#utility.yul\":13651:13668   */\n      calldataload\n        /* \"#utility.yul\":13700:13718   */\n      0xffffffffffffffff\n        /* \"#utility.yul\":13687:13698   */\n      dup2\n        /* \"#utility.yul\":13684:13719   */\n      gt\n        /* \"#utility.yul\":13681:13803   */\n      iszero\n      tag_519\n      jumpi\n        /* \"#utility.yul\":13722:13801   */\n      tag_520\n      tag_369\n      jump\t// in\n    tag_520:\n        /* \"#utility.yul\":13681:13803   */\n    tag_519:\n        /* \"#utility.yul\":13846:13857   */\n      dup1\n        /* \"#utility.yul\":13838:13844   */\n      dup7\n        /* \"#utility.yul\":13834:13858   */\n      add\n        /* \"#utility.yul\":13884:13931   */\n      tag_521\n        /* \"#utility.yul\":13927:13930   */\n      dup10\n        /* \"#utility.yul\":13915:13925   */\n      dup3\n        /* \"#utility.yul\":13884:13931   */\n      tag_376\n      jump\t// in\n    tag_521:\n        /* \"#utility.yul\":13879:13882   */\n      dup6\n        /* \"#utility.yul\":13872:13932   */\n      mstore\n        /* \"#utility.yul\":13961:13965   */\n      0x20\n        /* \"#utility.yul\":13956:13959   */\n      dup6\n        /* \"#utility.yul\":13952:13966   */\n      add\n        /* \"#utility.yul\":13945:13966   */\n      swap5\n      pop\n        /* \"#utility.yul\":13617:13976   */\n      pop\n      pop\n        /* \"#utility.yul\":13601:13605   */\n      0x20\n        /* \"#utility.yul\":13596:13599   */\n      dup2\n        /* \"#utility.yul\":13592:13606   */\n      add\n        /* \"#utility.yul\":13585:13606   */\n      swap1\n      pop\n        /* \"#utility.yul\":13541:13976   */\n      jump(tag_516)\n    tag_518:\n        /* \"#utility.yul\":13545:13566   */\n      pop\n        /* \"#utility.yul\":13149:13982   */\n      pop\n      pop\n        /* \"#utility.yul\":13037:13982   */\n      swap4\n      swap3\n      pop\n      pop\n      pop\n      jump\t// out\n        /* \"#utility.yul\":14004:14394   */\n    tag_380:\n        /* \"#utility.yul\":14085:14090   */\n      0x00\n        /* \"#utility.yul\":14134:14137   */\n      dup3\n        /* \"#utility.yul\":14127:14131   */\n      0x1f\n        /* \"#utility.yul\":14119:14125   */\n      dup4\n        /* \"#utility.yul\":14115:14132   */\n      add\n        /* \"#utility.yul\":14111:14138   */\n      slt\n        /* \"#utility.yul\":14101:14223   */\n      tag_523\n      jumpi\n        /* \"#utility.yul\":14142:14221   */\n      tag_524\n      tag_369\n      jump\t// in\n    tag_524:\n        /* \"#utility.yul\":14101:14223   */\n    tag_523:\n        /* \"#utility.yul\":14259:14265   */\n      dup2\n        /* \"#utility.yul\":14246:14266   */\n      calldataload\n        /* \"#utility.yul\":14284:14388   */\n      tag_525\n        /* \"#utility.yul\":14384:14387   */\n      dup5\n        /* \"#utility.yul\":14376:14382   */\n      dup3\n        /* \"#utility.yul\":14369:14373   */\n      0x20\n        /* \"#utility.yul\":14361:14367   */\n      dup7\n        /* \"#utility.yul\":14357:14374   */\n      add\n        /* \"#utility.yul\":14284:14388   */\n      tag_379\n      jump\t// in\n    tag_525:\n        /* \"#utility.yul\":14275:14388   */\n      swap2\n      pop\n        /* \"#utility.yul\":14091:14394   */\n      pop\n        /* \"#utility.yul\":14004:14394   */\n      swap3\n      swap2\n      pop\n      pop\n      jump\t// out\n        /* \"#utility.yul\":14400:15429   */\n    tag_41:\n        /* \"#utility.yul\":14522:14528   */\n      0x00\n        /* \"#utility.yul\":14530:14536   */\n      dup1\n        /* \"#utility.yul\":14538:14544   */\n      0x00\n        /* \"#utility.yul\":14587:14589   */\n      0x60\n        /* \"#utility.yul\":14575:14584   */\n      dup5\n        /* \"#utility.yul\":14566:14573   */\n      dup7\n        /* \"#utility.yul\":14562:14585   */\n      sub\n        /* \"#utility.yul\":14558:14590   */\n      slt\n        /* \"#utility.yul\":14555:14674   */\n      iszero\n      tag_527\n      jumpi\n        /* \"#utility.yul\":14593:14672   */\n      tag_528\n      tag_364\n      jump\t// in\n    tag_528:\n        /* \"#utility.yul\":14555:14674   */\n    tag_527:\n        /* \"#utility.yul\":14741:14742   */\n      0x00\n        /* \"#utility.yul\":14730:14739   */\n      dup5\n        /* \"#utility.yul\":14726:14743   */\n      add\n        /* \"#utility.yul\":14713:14744   */\n      calldataload\n        /* \"#utility.yul\":14771:14789   */\n      0xffffffffffffffff\n        /* \"#utility.yul\":14763:14769   */\n      dup2\n        /* \"#utility.yul\":14760:14790   */\n      gt\n        /* \"#utility.yul\":14757:14874   */\n      iszero\n      tag_529\n      jumpi\n        /* \"#utility.yul\":14793:14872   */\n      tag_530\n      tag_365\n      jump\t// in\n    tag_530:\n        /* \"#utility.yul\":14757:14874   */\n    tag_529:\n        /* \"#utility.yul\":14898:14961   */\n      tag_531\n        /* \"#utility.yul\":14953:14960   */\n      dup7\n        /* \"#utility.yul\":14944:14950   */\n      dup3\n        /* \"#utility.yul\":14933:14942   */\n      dup8\n        /* \"#utility.yul\":14929:14951   */\n      add\n        /* \"#utility.yul\":14898:14961   */\n      tag_376\n      jump\t// in\n    tag_531:\n        /* \"#utility.yul\":14888:14961   */\n      swap4\n      pop\n        /* \"#utility.yul\":14684:14971   */\n      pop\n        /* \"#utility.yul\":15010:15012   */\n      0x20\n        /* \"#utility.yul\":15036:15089   */\n      tag_532\n        /* \"#utility.yul\":15081:15088   */\n      dup7\n        /* \"#utility.yul\":15072:15078   */\n      dup3\n        /* \"#utility.yul\":15061:15070   */\n      dup8\n        /* \"#utility.yul\":15057:15079   */\n      add\n        /* \"#utility.yul\":15036:15089   */\n      tag_367\n      jump\t// in\n    tag_532:\n        /* \"#utility.yul\":15026:15089   */\n      swap3\n      pop\n        /* \"#utility.yul\":14981:15099   */\n      pop\n        /* \"#utility.yul\":15166:15168   */\n      0x40\n        /* \"#utility.yul\":15155:15164   */\n      dup5\n        /* \"#utility.yul\":15151:15169   */\n      add\n        /* \"#utility.yul\":15138:15170   */\n      calldataload\n        /* \"#utility.yul\":15197:15215   */\n      0xffffffffffffffff\n        /* \"#utility.yul\":15189:15195   */\n      dup2\n        /* \"#utility.yul\":15186:15216   */\n      gt\n        /* \"#utility.yul\":15183:15300   */\n      iszero\n      tag_533\n      jumpi\n        /* \"#utility.yul\":15219:15298   */\n      tag_534\n      tag_365\n      jump\t// in\n    tag_534:\n        /* \"#utility.yul\":15183:15300   */\n    tag_533:\n        /* \"#utility.yul\":15324:15412   */\n      tag_535\n        /* \"#utility.yul\":15404:15411   */\n      dup7\n        /* \"#utility.yul\":15395:15401   */\n      dup3\n        /* \"#utility.yul\":15384:15393   */\n      dup8\n        /* \"#utility.yul\":15380:15402   */\n      add\n        /* \"#utility.yul\":15324:15412   */\n      tag_380\n      jump\t// in\n    tag_535:\n        /* \"#utility.yul\":15314:15412   */\n      swap2\n      pop\n        /* \"#utility.yul\":15109:15422   */\n      pop\n        /* \"#utility.yul\":14400:15429   */\n      swap3\n      pop\n      swap3\n      pop\n      swap3\n      jump\t// out\n        /* \"#utility.yul\":15435:15525   */\n    tag_381:\n        /* \"#utility.yul\":15469:15476   */\n      0x00\n        /* \"#utility.yul\":15512:15517   */\n      dup2\n        /* \"#utility.yul\":15505:15518   */\n      iszero\n        /* \"#utility.yul\":15498:15519   */\n      iszero\n        /* \"#utility.yul\":15487:15519   */\n      swap1\n      pop\n        /* \"#utility.yul\":15435:15525   */\n      swap2\n      swap1\n      pop\n      jump\t// out\n        /* \"#utility.yul\":15531:15640   */\n    tag_382:\n        /* \"#utility.yul\":15612:15633   */\n      tag_538\n        /* \"#utility.yul\":15627:15632   */\n      dup2\n        /* \"#utility.yul\":15612:15633   */\n      tag_381\n      jump\t// in\n    tag_538:\n        /* \"#utility.yul\":15607:15610   */\n      dup3\n        /* \"#utility.yul\":15600:15634   */\n      mstore\n        /* \"#utility.yul\":15531:15640   */\n      pop\n      pop\n      jump\t// out\n        /* \"#utility.yul\":15646:15856   */\n    tag_46:\n        /* \"#utility.yul\":15733:15737   */\n      0x00\n        /* \"#utility.yul\":15771:15773   */\n      0x20\n        /* \"#utility.yul\":15760:15769   */\n      dup3\n        /* \"#utility.yul\":15756:15774   */\n      add\n        /* \"#utility.yul\":15748:15774   */\n      swap1\n      pop\n        /* \"#utility.yul\":15784:15849   */\n      tag_540\n        /* \"#utility.yul\":15846:15847   */\n      0x00\n        /* \"#utility.yul\":15835:15844   */\n      dup4\n        /* \"#utility.yul\":15831:15848   */\n      add\n        /* \"#utility.yul\":15822:15828   */\n      dup5\n        /* \"#utility.yul\":15784:15849   */\n      tag_382\n      jump\t// in\n    tag_540:\n        /* \"#utility.yul\":15646:15856   */\n      swap3\n      swap2\n      pop\n      pop\n      jump\t// out\n        /* \"#utility.yul\":15862:16371   */\n    tag_49:\n        /* \"#utility.yul\":15931:15937   */\n      0x00\n        /* \"#utility.yul\":15980:15982   */\n      0x20\n        /* \"#utility.yul\":15968:15977   */\n      dup3\n        /* \"#utility.yul\":15959:15966   */\n      dup5\n        /* \"#utility.yul\":15955:15978   */\n      sub\n        /* \"#utility.yul\":15951:15983   */\n      slt\n        /* \"#utility.yul\":15948:16067   */\n      iszero\n      tag_542\n      jumpi\n        /* \"#utility.yul\":15986:16065   */\n      tag_543\n      tag_364\n      jump\t// in\n    tag_543:\n        /* \"#utility.yul\":15948:16067   */\n    tag_542:\n        /* \"#utility.yul\":16134:16135   */\n      0x00\n        /* \"#utility.yul\":16123:16132   */\n      dup3\n        /* \"#utility.yul\":16119:16136   */\n      add\n        /* \"#utility.yul\":16106:16137   */\n      calldataload\n        /* \"#utility.yul\":16164:16182   */\n      0xffffffffffffffff\n        /* \"#utility.yul\":16156:16162   */\n      dup2\n        /* \"#utility.yul\":16153:16183   */\n      gt\n        /* \"#utility.yul\":16150:16267   */\n      iszero\n      tag_544\n      jumpi\n        /* \"#utility.yul\":16186:16265   */\n      tag_545\n      tag_365\n      jump\t// in\n    tag_545:\n        /* \"#utility.yul\":16150:16267   */\n    tag_544:\n        /* \"#utility.yul\":16291:16354   */\n      tag_546\n        /* \"#utility.yul\":16346:16353   */\n      dup5\n        /* \"#utility.yul\":16337:16343   */\n      dup3\n        /* \"#utility.yul\":16326:16335   */\n      dup6\n        /* \"#utility.yul\":16322:16344   */\n      add\n        /* \"#utility.yul\":16291:16354   */\n      tag_376\n      jump\t// in\n    tag_546:\n        /* \"#utility.yul\":16281:16354   */\n      swap2\n      pop\n        /* \"#utility.yul\":16077:16364   */\n      pop\n        /* \"#utility.yul\":15862:16371   */\n      swap3\n      swap2\n      pop\n      pop\n      jump\t// out\n        /* \"#utility.yul\":16377:16557   */\n    tag_383:\n        /* \"#utility.yul\":16425:16502   */\n      0x4e487b7100000000000000000000000000000000000000000000000000000000\n        /* \"#utility.yul\":16422:16423   */\n      0x00\n        /* \"#utility.yul\":16415:16503   */\n      mstore\n        /* \"#utility.yul\":16522:16526   */\n      0x22\n        /* \"#utility.yul\":16519:16520   */\n      0x04\n        /* \"#utility.yul\":16512:16527   */\n      mstore\n        /* \"#utility.yul\":16546:16550   */\n      0x24\n        /* \"#utility.yul\":16543:16544   */\n      0x00\n        /* \"#utility.yul\":16536:16551   */\n      revert\n        /* \"#utility.yul\":16563:16883   */\n    tag_63:\n        /* \"#utility.yul\":16607:16613   */\n      0x00\n        /* \"#utility.yul\":16644:16645   */\n      0x02\n        /* \"#utility.yul\":16638:16642   */\n      dup3\n        /* \"#utility.yul\":16634:16646   */\n      div\n        /* \"#utility.yul\":16624:16646   */\n      swap1\n      pop\n        /* \"#utility.yul\":16691:16692   */\n      0x01\n        /* \"#utility.yul\":16685:16689   */\n      dup3\n        /* \"#utility.yul\":16681:16693   */\n      and\n        /* \"#utility.yul\":16712:16730   */\n      dup1\n        /* \"#utility.yul\":16702:16783   */\n      tag_549\n      jumpi\n        /* \"#utility.yul\":16768:16772   */\n      0x7f\n        /* \"#utility.yul\":16760:16766   */\n      dup3\n        /* \"#utility.yul\":16756:16773   */\n      and\n        /* \"#utility.yul\":16746:16773   */\n      swap2\n      pop\n        /* \"#utility.yul\":16702:16783   */\n    tag_549:\n        /* \"#utility.yul\":16830:16832   */\n      0x20\n        /* \"#utility.yul\":16822:16828   */\n      dup3\n        /* \"#utility.yul\":16819:16833   */\n      lt\n        /* \"#utility.yul\":16799:16817   */\n      dup2\n        /* \"#utility.yul\":16796:16834   */\n      sub\n        /* \"#utility.yul\":16793:16877   */\n      tag_550\n      jumpi\n        /* \"#utility.yul\":16849:16867   */\n      tag_551\n      tag_383\n      jump\t// in\n    tag_551:\n        /* \"#utility.yul\":16793:16877   */\n    tag_550:\n        /* \"#utility.yul\":16614:16883   */\n      pop\n        /* \"#utility.yul\":16563:16883   */\n      swap2\n      swap1\n      pop\n      jump\t// out\n        /* \"#utility.yul\":16889:17069   */\n    tag_94:\n        /* \"#utility.yul\":16937:17014   */\n      0x4e487b7100000000000000000000000000000000000000000000000000000000\n        /* \"#utility.yul\":16934:16935   */\n      0x00\n        /* \"#utility.yul\":16927:17015   */\n      mstore\n        /* \"#utility.yul\":17034:17038   */\n      0x32\n        /* \"#utility.yul\":17031:17032   */\n      0x04\n        /* \"#utility.yul\":17024:17039   */\n      mstore\n        /* \"#utility.yul\":17058:17062   */\n      0x24\n        /* \"#utility.yul\":17055:17056   */\n      0x00\n        /* \"#utility.yul\":17048:17063   */\n      revert\n        /* \"#utility.yul\":17075:17255   */\n    tag_384:\n        /* \"#utility.yul\":17123:17200   */\n      0x4e487b7100000000000000000000000000000000000000000000000000000000\n        /* \"#utility.yul\":17120:17121   */\n      0x00\n        /* \"#utility.yul\":17113:17201   */\n      mstore\n        /* \"#utility.yul\":17220:17224   */\n      0x11\n        /* \"#utility.yul\":17217:17218   */\n      0x04\n        /* \"#utility.yul\":17210:17225   */\n      mstore\n        /* \"#utility.yul\":17244:17248   */\n      0x24\n        /* \"#utility.yul\":17241:17242   */\n      0x00\n        /* \"#utility.yul\":17234:17249   */\n      revert\n        /* \"#utility.yul\":17261:17452   */\n    tag_123:\n        /* \"#utility.yul\":17301:17304   */\n      0x00\n        /* \"#utility.yul\":17320:17340   */\n      tag_555\n        /* \"#utility.yul\":17338:17339   */\n      dup3\n        /* \"#utility.yul\":17320:17340   */\n      tag_350\n      jump\t// in\n    tag_555:\n        /* \"#utility.yul\":17315:17340   */\n      swap2\n      pop\n        /* \"#utility.yul\":17354:17374   */\n      tag_556\n        /* \"#utility.yul\":17372:17373   */\n      dup4\n        /* \"#utility.yul\":17354:17374   */\n      tag_350\n      jump\t// in\n    tag_556:\n        /* \"#utility.yul\":17349:17374   */\n      swap3\n      pop\n        /* \"#utility.yul\":17397:17398   */\n      dup3\n        /* \"#utility.yul\":17394:17395   */\n      dup3\n        /* \"#utility.yul\":17390:17399   */\n      add\n        /* \"#utility.yul\":17383:17399   */\n      swap1\n      pop\n        /* \"#utility.yul\":17418:17421   */\n      dup1\n        /* \"#utility.yul\":17415:17416   */\n      dup3\n        /* \"#utility.yul\":17412:17422   */\n      gt\n        /* \"#utility.yul\":17409:17445   */\n      iszero\n      tag_557\n      jumpi\n        /* \"#utility.yul\":17425:17443   */\n      tag_558\n      tag_384\n      jump\t// in\n    tag_558:\n        /* \"#utility.yul\":17409:17445   */\n    tag_557:\n        /* \"#utility.yul\":17261:17452   */\n      swap3\n      swap2\n      pop\n      pop\n      jump\t// out\n        /* \"#utility.yul\":17458:17691   */\n    tag_158:\n        /* \"#utility.yul\":17497:17500   */\n      0x00\n        /* \"#utility.yul\":17520:17544   */\n      tag_560\n        /* \"#utility.yul\":17538:17543   */\n      dup3\n        /* \"#utility.yul\":17520:17544   */\n      tag_350\n      jump\t// in\n    tag_560:\n        /* \"#utility.yul\":17511:17544   */\n      swap2\n      pop\n        /* \"#utility.yul\":17566:17632   */\n      0xffffffffffffffffffffffffffffffffffffffffffffffffffffffffffffffff\n        /* \"#utility.yul\":17559:17564   */\n      dup3\n        /* \"#utility.yul\":17556:17633   */\n      sub\n        /* \"#utility.yul\":17553:17656   */\n      tag_561\n      jumpi\n        /* \"#utility.yul\":17636:17654   */\n      tag_562\n      tag_384\n      jump\t// in\n    tag_562:\n        /* \"#utility.yul\":17553:17656   */\n    tag_561:\n        /* \"#utility.yul\":17683:17684   */\n      0x01\n        /* \"#utility.yul\":17676:17681   */\n      dup3\n        /* \"#utility.yul\":17672:17685   */\n      add\n        /* \"#utility.yul\":17665:17685   */\n      swap1\n      pop\n        /* \"#utility.yul\":17458:17691   */\n      swap2\n      swap1\n      pop\n      jump\t// out\n        /* \"#utility.yul\":17697:17891   */\n    tag_203:\n        /* \"#utility.yul\":17737:17741   */\n      0x00\n        /* \"#utility.yul\":17757:17777   */\n      tag_564\n        /* \"#utility.yul\":17775:17776   */\n      dup3\n        /* \"#utility.yul\":17757:17777   */\n      tag_350\n      jump\t// in\n    tag_564:\n        /* \"#utility.yul\":17752:17777   */\n      swap2\n      pop\n        /* \"#utility.yul\":17791:17811   */\n      tag_565\n        /* \"#utility.yul\":17809:17810   */\n      dup4\n        /* \"#utility.yul\":17791:17811   */\n      tag_350\n      jump\t// in\n    tag_565:\n        /* \"#utility.yul\":17786:17811   */\n      swap3\n      pop\n        /* \"#utility.yul\":17835:17836   */\n      dup3\n        /* \"#utility.yul\":17832:17833   */\n      dup3\n        /* \"#utility.yul\":17828:17837   */\n      sub\n        /* \"#utility.yul\":17820:17837   */\n      swap1\n      pop\n        /* \"#utility.yul\":17859:17860   */\n      dup2\n        /* \"#utility.yul\":17853:17857   */\n      dup2\n        /* \"#utility.yul\":17850:17861   */\n      gt\n        /* \"#utility.yul\":17847:17884   */\n      iszero\n      tag_566\n      jumpi\n        /* \"#utility.yul\":17864:17882   */\n      tag_567\n      tag_384\n      jump\t// in\n    tag_567:\n        /* \"#utility.yul\":17847:17884   */\n    tag_566:\n        /* \"#utility.yul\":17697:17891   */\n      swap3\n      swap2\n      pop\n      pop\n      jump\t// out\n        /* \"#utility.yul\":17897:18077   */\n    tag_385:\n        /* \"#utility.yul\":17945:18022   */\n      0x4e487b7100000000000000000000000000000000000000000000000000000000\n        /* \"#utility.yul\":17942:17943   */\n      0x00\n        /* \"#utility.yul\":17935:18023   */\n      mstore\n        /* \"#utility.yul\":18042:18046   */\n      0x12\n        /* \"#utility.yul\":18039:18040   */\n      0x04\n        /* \"#utility.yul\":18032:18047   */\n      mstore\n        /* \"#utility.yul\":18066:18070   */\n      0x24\n        /* \"#utility.yul\":18063:18064   */\n      0x00\n        /* \"#utility.yul\":18056:18071   */\n      revert\n        /* \"#utility.yul\":18083:18268   */\n    tag_235:\n        /* \"#utility.yul\":18123:18124   */\n      0x00\n        /* \"#utility.yul\":18140:18160   */\n      tag_570\n        /* \"#utility.yul\":18158:18159   */\n      dup3\n        /* \"#utility.yul\":18140:18160   */\n      tag_350\n      jump\t// in\n    tag_570:\n        /* \"#utility.yul\":18135:18160   */\n      swap2\n      pop\n        /* \"#utility.yul\":18174:18194   */\n      tag_571\n        /* \"#utility.yul\":18192:18193   */\n      dup4\n        /* \"#utility.yul\":18174:18194   */\n      tag_350\n      jump\t// in\n    tag_571:\n        /* \"#utility.yul\":18169:18194   */\n      swap3\n      pop\n        /* \"#utility.yul\":18213:18214   */\n      dup3\n        /* \"#utility.yul\":18203:18238   */\n      tag_572\n      jumpi\n        /* \"#utility.yul\":18218:18236   */\n      tag_573\n      tag_385\n      jump\t// in\n    tag_573:\n        /* \"#utility.yul\":18203:18238   */\n    tag_572:\n        /* \"#utility.yul\":18260:18261   */\n      dup3\n        /* \"#utility.yul\":18257:18258   */\n      dup3\n        /* \"#utility.yul\":18253:18262   */\n      div\n        /* \"#utility.yul\":18248:18262   */\n      swap1\n      pop\n        /* \"#utility.yul\":18083:18268   */\n      swap3\n      swap2\n      pop\n      pop\n      jump\t// out\n        /* \"#utility.yul\":18274:18422   */\n    tag_386:\n        /* \"#utility.yul\":18376:18387   */\n      0x00\n        /* \"#utility.yul\":18413:18416   */\n      dup2\n        /* \"#utility.yul\":18398:18416   */\n      swap1\n      pop\n        /* \"#utility.yul\":18274:18422   */\n      swap3\n      swap2\n      pop\n      pop\n      jump\t// out\n        /* \"#utility.yul\":18428:18818   */\n    tag_387:\n        /* \"#utility.yul\":18534:18537   */\n      0x00\n        /* \"#utility.yul\":18562:18601   */\n      tag_576\n        /* \"#utility.yul\":18595:18600   */\n      dup3\n        /* \"#utility.yul\":18562:18601   */\n      tag_345\n      jump\t// in\n    tag_576:\n        /* \"#utility.yul\":18617:18706   */\n      tag_577\n        /* \"#utility.yul\":18699:18705   */\n      dup2\n        /* \"#utility.yul\":18694:18697   */\n      dup6\n        /* \"#utility.yul\":18617:18706   */\n      tag_386\n      jump\t// in\n    tag_577:\n        /* \"#utility.yul\":18610:18706   */\n      swap4\n      pop\n        /* \"#utility.yul\":18715:18780   */\n      tag_578\n        /* \"#utility.yul\":18773:18779   */\n      dup2\n        /* \"#utility.yul\":18768:18771   */\n      dup6\n        /* \"#utility.yul\":18761:18765   */\n      0x20\n        /* \"#utility.yul\":18754:18759   */\n      dup7\n        /* \"#utility.yul\":18750:18766   */\n      add\n        /* \"#utility.yul\":18715:18780   */\n      tag_347\n      jump\t// in\n    tag_578:\n        /* \"#utility.yul\":18805:18811   */\n      dup1\n        /* \"#utility.yul\":18800:18803   */\n      dup5\n        /* \"#utility.yul\":18796:18812   */\n      add\n        /* \"#utility.yul\":18789:18812   */\n      swap2\n      pop\n        /* \"#utility.yul\":18538:18818   */\n      pop\n        /* \"#utility.yul\":18428:18818   */\n      swap3\n      swap2\n      pop\n      pop\n      jump\t// out\n        /* \"#utility.yul\":18824:19099   */\n    tag_247:\n        /* \"#utility.yul\":18956:18959   */\n      0x00\n        /* \"#utility.yul\":18978:19073   */\n      tag_580\n        /* \"#utility.yul\":19069:19072   */\n      dup3\n        /* \"#utility.yul\":19060:19066   */\n      dup5\n        /* \"#utility.yul\":18978:19073   */\n      tag_387\n      jump\t// in\n    tag_580:\n        /* \"#utility.yul\":18971:19073   */\n      swap2\n      pop\n        /* \"#utility.yul\":19090:19093   */\n      dup2\n        /* \"#utility.yul\":19083:19093   */\n      swap1\n      pop\n        /* \"#utility.yul\":18824:19099   */\n      swap3\n      swap2\n      pop\n      pop\n      jump\t// out\n        /* \"#utility.yul\":19105:19246   */\n    tag_388:\n        /* \"#utility.yul\":19154:19158   */\n      0x00\n        /* \"#utility.yul\":19177:19180   */\n      dup2\n        /* \"#utility.yul\":19169:19180   */\n      swap1\n      pop\n        /* \"#utility.yul\":19200:19203   */\n      dup2\n        /* \"#utility.yul\":19197:19198   */\n      0x00\n        /* \"#utility.yul\":19190:19204   */\n      mstore\n        /* \"#utility.yul\":19234:19238   */\n      0x20\n        /* \"#utility.yul\":19231:19232   */\n      0x00\n        /* \"#utility.yul\":19221:19239   */\n      keccak256\n        /* \"#utility.yul\":19213:19239   */\n      swap1\n      pop\n        /* \"#utility.yul\":19105:19246   */\n      swap2\n      swap1\n      pop\n      jump\t// out\n        /* \"#utility.yul\":19252:19345   */\n    tag_389:\n        /* \"#utility.yul\":19289:19295   */\n      0x00\n        /* \"#utility.yul\":19336:19338   */\n      0x20\n        /* \"#utility.yul\":19331:19333   */\n      0x1f\n        /* \"#utility.yul\":19324:19329   */\n      dup4\n        /* \"#utility.yul\":19320:19334   */\n      add\n        /* \"#utility.yul\":19316:19339   */\n      div\n        /* \"#utility.yul\":19306:19339   */\n      swap1\n      pop\n        /* \"#utility.yul\":19252:19345   */\n      swap2\n      swap1\n      pop\n      jump\t// out\n        /* \"#utility.yul\":19351:19458   */\n    tag_390:\n        /* \"#utility.yul\":19395:19403   */\n      0x00\n        /* \"#utility.yul\":19445:19450   */\n      dup3\n        /* \"#utility.yul\":19439:19443   */\n      dup3\n        /* \"#utility.yul\":19435:19451   */\n      shl\n        /* \"#utility.yul\":19414:19451   */\n      swap1\n      pop\n        /* \"#utility.yul\":19351:19458   */\n      swap3\n      swap2\n      pop\n      pop\n      jump\t// out\n        /* \"#utility.yul\":19464:19857   */\n    tag_391:\n        /* \"#utility.yul\":19533:19539   */\n      0x00\n        /* \"#utility.yul\":19583:19584   */\n      0x08\n        /* \"#utility.yul\":19571:19581   */\n      dup4\n        /* \"#utility.yul\":19567:19585   */\n      mul\n        /* \"#utility.yul\":19606:19703   */\n      tag_585\n        /* \"#utility.yul\":19636:19702   */\n      0xffffffffffffffffffffffffffffffffffffffffffffffffffffffffffffffff\n        /* \"#utility.yul\":19625:19634   */\n      dup3\n        /* \"#utility.yul\":19606:19703   */\n      tag_390\n      jump\t// in\n    tag_585:\n        /* \"#utility.yul\":19724:19763   */\n      tag_586\n        /* \"#utility.yul\":19754:19762   */\n      dup7\n        /* \"#utility.yul\":19743:19752   */\n      dup4\n        /* \"#utility.yul\":19724:19763   */\n      tag_390\n      jump\t// in\n    tag_586:\n        /* \"#utility.yul\":19712:19763   */\n      swap6\n      pop\n        /* \"#utility.yul\":19796:19800   */\n      dup1\n        /* \"#utility.yul\":19792:19801   */\n      not\n        /* \"#utility.yul\":19785:19790   */\n      dup5\n        /* \"#utility.yul\":19781:19802   */\n      and\n        /* \"#utility.yul\":19772:19802   */\n      swap4\n      pop\n        /* \"#utility.yul\":19845:19849   */\n      dup1\n        /* \"#utility.yul\":19835:19843   */\n      dup7\n        /* \"#utility.yul\":19831:19850   */\n      and\n        /* \"#utility.yul\":19824:19829   */\n      dup5\n        /* \"#utility.yul\":19821:19851   */\n      or\n        /* \"#utility.yul\":19811:19851   */\n      swap3\n      pop\n        /* \"#utility.yul\":19540:19857   */\n      pop\n      pop\n        /* \"#utility.yul\":19464:19857   */\n      swap4\n      swap3\n      pop\n      pop\n      pop\n      jump\t// out\n        /* \"#utility.yul\":19863:19923   */\n    tag_392:\n        /* \"#utility.yul\":19891:19894   */\n      0x00\n        /* \"#utility.yul\":19912:19917   */\n      dup2\n        /* \"#utility.yul\":19905:19917   */\n      swap1\n      pop\n        /* \"#utility.yul\":19863:19923   */\n      swap2\n      swap1\n      pop\n      jump\t// out\n        /* \"#utility.yul\":19929:20071   */\n    tag_393:\n        /* \"#utility.yul\":19979:19988   */\n      0x00\n        /* \"#utility.yul\":20012:20065   */\n      tag_589\n        /* \"#utility.yul\":20030:20064   */\n      tag_590\n        /* \"#utility.yul\":20039:20063   */\n      tag_591\n        /* \"#utility.yul\":20057:20062   */\n      dup5\n        /* \"#utility.yul\":20039:20063   */\n      tag_350\n      jump\t// in\n    tag_591:\n        /* \"#utility.yul\":20030:20064   */\n      tag_392\n      jump\t// in\n    tag_590:\n        /* \"#utility.yul\":20012:20065   */\n      tag_350\n      jump\t// in\n    tag_589:\n        /* \"#utility.yul\":19999:20065   */\n      swap1\n      pop\n        /* \"#utility.yul\":19929:20071   */\n      swap2\n      swap1\n      pop\n      jump\t// out\n        /* \"#utility.yul\":20077:20152   */\n    tag_394:\n        /* \"#utility.yul\":20120:20123   */\n      0x00\n        /* \"#utility.yul\":20141:20146   */\n      dup2\n        /* \"#utility.yul\":20134:20146   */\n      swap1\n      pop\n        /* \"#utility.yul\":20077:20152   */\n      swap2\n      swap1\n      pop\n      jump\t// out\n        /* \"#utility.yul\":20158:20427   */\n    tag_395:\n        /* \"#utility.yul\":20268:20307   */\n      tag_594\n        /* \"#utility.yul\":20299:20306   */\n      dup4\n        /* \"#utility.yul\":20268:20307   */\n      tag_393\n      jump\t// in\n    tag_594:\n        /* \"#utility.yul\":20329:20420   */\n      tag_595\n        /* \"#utility.yul\":20378:20419   */\n      tag_596\n        /* \"#utility.yul\":20402:20418   */\n      dup3\n        /* \"#utility.yul\":20378:20419   */\n      tag_394\n      jump\t// in\n    tag_596:\n        /* \"#utility.yul\":20370:20376   */\n      dup5\n        /* \"#utility.yul\":20363:20367   */\n      dup5\n        /* \"#utility.yul\":20357:20368   */\n      sload\n        /* \"#utility.yul\":20329:20420   */\n      tag_391\n      jump\t// in\n    tag_595:\n        /* \"#utility.yul\":20323:20327   */\n      dup3\n        /* \"#utility.yul\":20316:20421   */\n      sstore\n        /* \"#utility.yul\":20234:20427   */\n      pop\n        /* \"#utility.yul\":20158:20427   */\n      pop\n      pop\n      pop\n      jump\t// out\n        /* \"#utility.yul\":20433:20506   */\n    tag_396:\n        /* \"#utility.yul\":20478:20481   */\n      0x00\n        /* \"#utility.yul\":20433:20506   */\n      swap1\n      jump\t// out\n        /* \"#utility.yul\":20512:20701   */\n    tag_397:\n        /* \"#utility.yul\":20589:20621   */\n      tag_599\n      tag_396\n      jump\t// in\n    tag_599:\n        /* \"#utility.yul\":20630:20695   */\n      tag_600\n        /* \"#utility.yul\":20688:20694   */\n      dup2\n        /* \"#utility.yul\":20680:20686   */\n      dup5\n        /* \"#utility.yul\":20674:20678   */\n      dup5\n        /* \"#utility.yul\":20630:20695   */\n      tag_395\n      jump\t// in\n    tag_600:\n        /* \"#utility.yul\":20565:20701   */\n      pop\n        /* \"#utility.yul\":20512:20701   */\n      pop\n      pop\n      jump\t// out\n        /* \"#utility.yul\":20707:20893   */\n    tag_398:\n        /* \"#utility.yul\":20767:20887   */\n    tag_602:\n        /* \"#utility.yul\":20784:20787   */\n      dup2\n        /* \"#utility.yul\":20777:20782   */\n      dup2\n        /* \"#utility.yul\":20774:20788   */\n      lt\n        /* \"#utility.yul\":20767:20887   */\n      iszero\n      tag_604\n      jumpi\n        /* \"#utility.yul\":20838:20877   */\n      tag_605\n        /* \"#utility.yul\":20875:20876   */\n      0x00\n        /* \"#utility.yul\":20868:20873   */\n      dup3\n        /* \"#utility.yul\":20838:20877   */\n      tag_397\n      jump\t// in\n    tag_605:\n        /* \"#utility.yul\":20811:20812   */\n      0x01\n        /* \"#utility.yul\":20804:20809   */\n      dup2\n        /* \"#utility.yul\":20800:20813   */\n      add\n        /* \"#utility.yul\":20791:20813   */\n      swap1\n      pop\n        /* \"#utility.yul\":20767:20887   */\n      jump(tag_602)\n    tag_604:\n        /* \"#utility.yul\":20707:20893   */\n      pop\n      pop\n      jump\t// out\n        /* \"#utility.yul\":20899:21442   */\n    tag_399:\n        /* \"#utility.yul\":21000:21002   */\n      0x1f\n        /* \"#utility.yul\":20995:20998   */\n      dup3\n        /* \"#utility.yul\":20992:21003   */\n      gt\n        /* \"#utility.yul\":20989:21435   */\n      iszero\n      tag_607\n      jumpi\n        /* \"#utility.yul\":21034:21072   */\n      tag_608\n        /* \"#utility.yul\":21066:21071   */\n      dup2\n        /* \"#utility.yul\":21034:21072   */\n      tag_388\n      jump\t// in\n    tag_608:\n        /* \"#utility.yul\":21118:21147   */\n      tag_609\n        /* \"#utility.yul\":21136:21146   */\n      dup5\n        /* \"#utility.yul\":21118:21147   */\n      tag_389\n      jump\t// in\n    tag_609:\n        /* \"#utility.yul\":21108:21116   */\n      dup2\n        /* \"#utility.yul\":21104:21148   */\n      add\n        /* \"#utility.yul\":21301:21303   */\n      0x20\n        /* \"#utility.yul\":21289:21299   */\n      dup6\n        /* \"#utility.yul\":21286:21304   */\n      lt\n        /* \"#utility.yul\":21283:21332   */\n      iszero\n      tag_610\n      jumpi\n        /* \"#utility.yul\":21322:21330   */\n      dup2\n        /* \"#utility.yul\":21307:21330   */\n      swap1\n      pop\n        /* \"#utility.yul\":21283:21332   */\n    tag_610:\n        /* \"#utility.yul\":21345:21425   */\n      tag_611\n        /* \"#utility.yul\":21401:21423   */\n      tag_612\n        /* \"#utility.yul\":21419:21422   */\n      dup6\n        /* \"#utility.yul\":21401:21423   */\n      tag_389\n      jump\t// in\n    tag_612:\n        /* \"#utility.yul\":21391:21399   */\n      dup4\n        /* \"#utility.yul\":21387:21424   */\n      add\n        /* \"#utility.yul\":21374:21385   */\n      dup3\n        /* \"#utility.yul\":21345:21425   */\n      tag_398\n      jump\t// in\n    tag_611:\n        /* \"#utility.yul\":21004:21435   */\n      pop\n      pop\n        /* \"#utility.yul\":20989:21435   */\n    tag_607:\n        /* \"#utility.yul\":20899:21442   */\n      pop\n      pop\n      pop\n      jump\t// out\n        /* \"#utility.yul\":21448:21565   */\n    tag_400:\n        /* \"#utility.yul\":21502:21510   */\n      0x00\n        /* \"#utility.yul\":21552:21557   */\n      dup3\n        /* \"#utility.yul\":21546:21550   */\n      dup3\n        /* \"#utility.yul\":21542:21558   */\n      shr\n        /* \"#utility.yul\":21521:21558   */\n      swap1\n      pop\n        /* \"#utility.yul\":21448:21565   */\n      swap3\n      swap2\n      pop\n      pop\n      jump\t// out\n        /* \"#utility.yul\":21571:21740   */\n    tag_401:\n        /* \"#utility.yul\":21615:21621   */\n      0x00\n        /* \"#utility.yul\":21648:21699   */\n      tag_615\n        /* \"#utility.yul\":21696:21697   */\n      0x00\n        /* \"#utility.yul\":21692:21698   */\n      not\n        /* \"#utility.yul\":21684:21689   */\n      dup5\n        /* \"#utility.yul\":21681:21682   */\n      0x08\n        /* \"#utility.yul\":21677:21690   */\n      mul\n        /* \"#utility.yul\":21648:21699   */\n      tag_400\n      jump\t// in\n    tag_615:\n        /* \"#utility.yul\":21644:21700   */\n      not\n        /* \"#utility.yul\":21729:21733   */\n      dup1\n        /* \"#utility.yul\":21723:21727   */\n      dup4\n        /* \"#utility.yul\":21719:21734   */\n      and\n        /* \"#utility.yul\":21709:21734   */\n      swap2\n      pop\n        /* \"#utility.yul\":21622:21740   */\n      pop\n        /* \"#utility.yul\":21571:21740   */\n      swap3\n      swap2\n      pop\n      pop\n      jump\t// out\n        /* \"#utility.yul\":21745:22040   */\n    tag_402:\n        /* \"#utility.yul\":21821:21825   */\n      0x00\n        /* \"#utility.yul\":21967:21996   */\n      tag_617\n        /* \"#utility.yul\":21992:21995   */\n      dup4\n        /* \"#utility.yul\":21986:21990   */\n      dup4\n        /* \"#utility.yul\":21967:21996   */\n      tag_401\n      jump\t// in\n    tag_617:\n        /* \"#utility.yul\":21959:21996   */\n      swap2\n      pop\n        /* \"#utility.yul\":22029:22032   */\n      dup3\n        /* \"#utility.yul\":22026:22027   */\n      0x02\n        /* \"#utility.yul\":22022:22033   */\n      mul\n        /* \"#utility.yul\":22016:22020   */\n      dup3\n        /* \"#utility.yul\":22013:22034   */\n      or\n        /* \"#utility.yul\":22005:22034   */\n      swap1\n      pop\n        /* \"#utility.yul\":21745:22040   */\n      swap3\n      swap2\n      pop\n      pop\n      jump\t// out\n        /* \"#utility.yul\":22045:23440   */\n    tag_249:\n        /* \"#utility.yul\":22162:22199   */\n      tag_619\n        /* \"#utility.yul\":22195:22198   */\n      dup3\n        /* \"#utility.yul\":22162:22199   */\n      tag_345\n      jump\t// in\n    tag_619:\n        /* \"#utility.yul\":22264:22282   */\n      0xffffffffffffffff\n        /* \"#utility.yul\":22256:22262   */\n      dup2\n        /* \"#utility.yul\":22253:22283   */\n      gt\n        /* \"#utility.yul\":22250:22306   */\n      iszero\n      tag_620\n      jumpi\n        /* \"#utility.yul\":22286:22304   */\n      tag_621\n      tag_84\n      jump\t// in\n    tag_621:\n        /* \"#utility.yul\":22250:22306   */\n    tag_620:\n        /* \"#utility.yul\":22330:22368   */\n      tag_622\n        /* \"#utility.yul\":22362:22366   */\n      dup3\n        /* \"#utility.yul\":22356:22367   */\n      sload\n        /* \"#utility.yul\":22330:22368   */\n      tag_63\n      jump\t// in\n    tag_622:\n        /* \"#utility.yul\":22415:22482   */\n      tag_623\n        /* \"#utility.yul\":22475:22481   */\n      dup3\n        /* \"#utility.yul\":22467:22473   */\n      dup3\n        /* \"#utility.yul\":22461:22465   */\n      dup6\n        /* \"#utility.yul\":22415:22482   */\n      tag_399\n      jump\t// in\n    tag_623:\n        /* \"#utility.yul\":22509:22510   */\n      0x00\n        /* \"#utility.yul\":22533:22537   */\n      0x20\n        /* \"#utility.yul\":22520:22537   */\n      swap1\n      pop\n        /* \"#utility.yul\":22565:22567   */\n      0x1f\n        /* \"#utility.yul\":22557:22563   */\n      dup4\n        /* \"#utility.yul\":22554:22568   */\n      gt\n        /* \"#utility.yul\":22582:22583   */\n      0x01\n        /* \"#utility.yul\":22577:23195   */\n      dup2\n      eq\n      tag_625\n      jumpi\n        /* \"#utility.yul\":23239:23240   */\n      0x00\n        /* \"#utility.yul\":23256:23262   */\n      dup5\n        /* \"#utility.yul\":23253:23330   */\n      iszero\n      tag_626\n      jumpi\n        /* \"#utility.yul\":23305:23314   */\n      dup3\n        /* \"#utility.yul\":23300:23303   */\n      dup8\n        /* \"#utility.yul\":23296:23315   */\n      add\n        /* \"#utility.yul\":23290:23316   */\n      mload\n        /* \"#utility.yul\":23281:23316   */\n      swap1\n      pop\n        /* \"#utility.yul\":23253:23330   */\n    tag_626:\n        /* \"#utility.yul\":23356:23423   */\n      tag_627\n        /* \"#utility.yul\":23416:23422   */\n      dup6\n        /* \"#utility.yul\":23409:23414   */\n      dup3\n        /* \"#utility.yul\":23356:23423   */\n      tag_402\n      jump\t// in\n    tag_627:\n        /* \"#utility.yul\":23350:23354   */\n      dup7\n        /* \"#utility.yul\":23343:23424   */\n      sstore\n        /* \"#utility.yul\":23212:23434   */\n      pop\n        /* \"#utility.yul\":22547:23434   */\n      jump(tag_624)\n        /* \"#utility.yul\":22577:23195   */\n    tag_625:\n        /* \"#utility.yul\":22629:22633   */\n      0x1f\n        /* \"#utility.yul\":22625:22634   */\n      not\n        /* \"#utility.yul\":22617:22623   */\n      dup5\n        /* \"#utility.yul\":22613:22635   */\n      and\n        /* \"#utility.yul\":22663:22700   */\n      tag_628\n        /* \"#utility.yul\":22695:22699   */\n      dup7\n        /* \"#utility.yul\":22663:22700   */\n      tag_388\n      jump\t// in\n    tag_628:\n        /* \"#utility.yul\":22722:22723   */\n      0x00\n        /* \"#utility.yul\":22736:22944   */\n    tag_629:\n        /* \"#utility.yul\":22750:22757   */\n      dup3\n        /* \"#utility.yul\":22747:22748   */\n      dup2\n        /* \"#utility.yul\":22744:22758   */\n      lt\n        /* \"#utility.yul\":22736:22944   */\n      iszero\n      tag_631\n      jumpi\n        /* \"#utility.yul\":22829:22838   */\n      dup5\n        /* \"#utility.yul\":22824:22827   */\n      dup10\n        /* \"#utility.yul\":22820:22839   */\n      add\n        /* \"#utility.yul\":22814:22840   */\n      mload\n        /* \"#utility.yul\":22806:22812   */\n      dup3\n        /* \"#utility.yul\":22799:22841   */\n      sstore\n        /* \"#utility.yul\":22880:22881   */\n      0x01\n        /* \"#utility.yul\":22872:22878   */\n      dup3\n        /* \"#utility.yul\":22868:22882   */\n      add\n        /* \"#utility.yul\":22858:22882   */\n      swap2\n      pop\n        /* \"#utility.yul\":22927:22929   */\n      0x20\n        /* \"#utility.yul\":22916:22925   */\n      dup6\n        /* \"#utility.yul\":22912:22930   */\n      add\n        /* \"#utility.yul\":22899:22930   */\n      swap5\n      pop\n        /* \"#utility.yul\":22773:22777   */\n      0x20\n        /* \"#utility.yul\":22770:22771   */\n      dup2\n        /* \"#utility.yul\":22766:22778   */\n      add\n        /* \"#utility.yul\":22761:22778   */\n      swap1\n      pop\n        /* \"#utility.yul\":22736:22944   */\n      jump(tag_629)\n    tag_631:\n        /* \"#utility.yul\":22972:22978   */\n      dup7\n        /* \"#utility.yul\":22963:22970   */\n      dup4\n        /* \"#utility.yul\":22960:22979   */\n      lt\n        /* \"#utility.yul\":22957:23136   */\n      iszero\n      tag_632\n      jumpi\n        /* \"#utility.yul\":23030:23039   */\n      dup5\n        /* \"#utility.yul\":23025:23028   */\n      dup10\n        /* \"#utility.yul\":23021:23040   */\n      add\n        /* \"#utility.yul\":23015:23041   */\n      mload\n        /* \"#utility.yul\":23073:23121   */\n      tag_633\n        /* \"#utility.yul\":23115:23119   */\n      0x1f\n        /* \"#utility.yul\":23107:23113   */\n      dup10\n        /* \"#utility.yul\":23103:23120   */\n      and\n        /* \"#utility.yul\":23092:23101   */\n      dup3\n        /* \"#utility.yul\":23073:23121   */\n      tag_401\n      jump\t// in\n    tag_633:\n        /* \"#utility.yul\":23065:23071   */\n      dup4\n        /* \"#utility.yul\":23058:23122   */\n      sstore\n        /* \"#utility.yul\":22980:23136   */\n      pop\n        /* \"#utility.yul\":22957:23136   */\n    tag_632:\n        /* \"#utility.yul\":23182:23183   */\n      0x01\n        /* \"#utility.yul\":23178:23179   */\n      0x02\n        /* \"#utility.yul\":23170:23176   */\n      dup9\n        /* \"#utility.yul\":23166:23180   */\n      mul\n        /* \"#utility.yul\":23162:23184   */\n      add\n        /* \"#utility.yul\":23156:23160   */\n      dup9\n        /* \"#utility.yul\":23149:23185   */\n      sstore\n        /* \"#utility.yul\":22584:23195   */\n      pop\n      pop\n      pop\n        /* \"#utility.yul\":22547:23434   */\n    tag_624:\n      pop\n        /* \"#utility.yul\":22137:23440   */\n      pop\n      pop\n      pop\n        /* \"#utility.yul\":22045:23440   */\n      pop\n      pop\n      jump\t// out\n        /* \"#utility.yul\":23446:23595   */\n    tag_403:\n        /* \"#utility.yul\":23495:23501   */\n      0x00\n        /* \"#utility.yul\":23529:23534   */\n      dup2\n        /* \"#utility.yul\":23523:23535   */\n      sload\n        /* \"#utility.yul\":23513:23535   */\n      swap1\n      pop\n        /* \"#utility.yul\":23555:23588   */\n      tag_635\n        /* \"#utility.yul\":23581:23587   */\n      dup2\n        /* \"#utility.yul\":23555:23588   */\n      tag_63\n      jump\t// in\n    tag_635:\n        /* \"#utility.yul\":23545:23588   */\n      swap1\n      pop\n        /* \"#utility.yul\":23446:23595   */\n      swap2\n      swap1\n      pop\n      jump\t// out\n        /* \"#utility.yul\":23601:25052   */\n    tag_256:\n        /* \"#utility.yul\":23712:23715   */\n      dup2\n        /* \"#utility.yul\":23706:23710   */\n      dup2\n        /* \"#utility.yul\":23703:23716   */\n      sub\n        /* \"#utility.yul\":23700:23726   */\n      tag_637\n      jumpi\n        /* \"#utility.yul\":23719:23724   */\n      pop\n      pop\n      jump(tag_636)\n        /* \"#utility.yul\":23700:23726   */\n    tag_637:\n        /* \"#utility.yul\":23750:23784   */\n      tag_638\n        /* \"#utility.yul\":23780:23783   */\n      dup3\n        /* \"#utility.yul\":23750:23784   */\n      tag_403\n      jump\t// in\n    tag_638:\n        /* \"#utility.yul\":23849:23867   */\n      0xffffffffffffffff\n        /* \"#utility.yul\":23841:23847   */\n      dup2\n        /* \"#utility.yul\":23838:23868   */\n      gt\n        /* \"#utility.yul\":23835:23891   */\n      iszero\n      tag_639\n      jumpi\n        /* \"#utility.yul\":23871:23889   */\n      tag_640\n      tag_84\n      jump\t// in\n    tag_640:\n        /* \"#utility.yul\":23835:23891   */\n    tag_639:\n        /* \"#utility.yul\":23915:23953   */\n      tag_641\n        /* \"#utility.yul\":23947:23951   */\n      dup3\n        /* \"#utility.yul\":23941:23952   */\n      sload\n        /* \"#utility.yul\":23915:23953   */\n      tag_63\n      jump\t// in\n    tag_641:\n        /* \"#utility.yul\":24000:24067   */\n      tag_642\n        /* \"#utility.yul\":24060:24066   */\n      dup3\n        /* \"#utility.yul\":24052:24058   */\n      dup3\n        /* \"#utility.yul\":24046:24050   */\n      dup6\n        /* \"#utility.yul\":24000:24067   */\n      tag_399\n      jump\t// in\n    tag_642:\n        /* \"#utility.yul\":24094:24095   */\n      0x00\n        /* \"#utility.yul\":24123:24125   */\n      0x1f\n        /* \"#utility.yul\":24115:24121   */\n      dup4\n        /* \"#utility.yul\":24112:24126   */\n      gt\n        /* \"#utility.yul\":24140:24141   */\n      0x01\n        /* \"#utility.yul\":24135:24807   */\n      dup2\n      eq\n      tag_644\n      jumpi\n        /* \"#utility.yul\":24851:24852   */\n      0x00\n        /* \"#utility.yul\":24868:24874   */\n      dup5\n        /* \"#utility.yul\":24865:24942   */\n      iszero\n      tag_645\n      jumpi\n        /* \"#utility.yul\":24917:24926   */\n      dup3\n        /* \"#utility.yul\":24912:24915   */\n      dup8\n        /* \"#utility.yul\":24908:24927   */\n      add\n        /* \"#utility.yul\":24902:24928   */\n      sload\n        /* \"#utility.yul\":24893:24928   */\n      swap1\n      pop\n        /* \"#utility.yul\":24865:24942   */\n    tag_645:\n        /* \"#utility.yul\":24968:25035   */\n      tag_646\n        /* \"#utility.yul\":25028:25034   */\n      dup6\n        /* \"#utility.yul\":25021:25026   */\n      dup3\n        /* \"#utility.yul\":24968:25035   */\n      tag_402\n      jump\t// in\n    tag_646:\n        /* \"#utility.yul\":24962:24966   */\n      dup7\n        /* \"#utility.yul\":24955:25036   */\n      sstore\n        /* \"#utility.yul\":24824:25046   */\n      pop\n        /* \"#utility.yul\":24105:25046   */\n      jump(tag_643)\n        /* \"#utility.yul\":24135:24807   */\n    tag_644:\n        /* \"#utility.yul\":24187:24191   */\n      0x1f\n        /* \"#utility.yul\":24183:24192   */\n      not\n        /* \"#utility.yul\":24175:24181   */\n      dup5\n        /* \"#utility.yul\":24171:24193   */\n      and\n        /* \"#utility.yul\":24213:24249   */\n      tag_647\n        /* \"#utility.yul\":24245:24248   */\n      dup8\n        /* \"#utility.yul\":24213:24249   */\n      tag_388\n      jump\t// in\n    tag_647:\n        /* \"#utility.yul\":24206:24249   */\n      swap7\n      pop\n        /* \"#utility.yul\":24276:24313   */\n      tag_648\n        /* \"#utility.yul\":24308:24312   */\n      dup7\n        /* \"#utility.yul\":24276:24313   */\n      tag_388\n      jump\t// in\n    tag_648:\n        /* \"#utility.yul\":24335:24336   */\n      0x00\n        /* \"#utility.yul\":24349:24556   */\n    tag_649:\n        /* \"#utility.yul\":24363:24370   */\n      dup3\n        /* \"#utility.yul\":24360:24361   */\n      dup2\n        /* \"#utility.yul\":24357:24371   */\n      lt\n        /* \"#utility.yul\":24349:24556   */\n      iszero\n      tag_651\n      jumpi\n        /* \"#utility.yul\":24442:24451   */\n      dup5\n        /* \"#utility.yul\":24437:24440   */\n      dup10\n        /* \"#utility.yul\":24433:24452   */\n      add\n        /* \"#utility.yul\":24427:24453   */\n      sload\n        /* \"#utility.yul\":24419:24425   */\n      dup3\n        /* \"#utility.yul\":24412:24454   */\n      sstore\n        /* \"#utility.yul\":24493:24494   */\n      0x01\n        /* \"#utility.yul\":24485:24491   */\n      dup3\n        /* \"#utility.yul\":24481:24495   */\n      add\n        /* \"#utility.yul\":24471:24495   */\n      swap2\n      pop\n        /* \"#utility.yul\":24540:24541   */\n      0x01\n        /* \"#utility.yul\":24529:24538   */\n      dup6\n        /* \"#utility.yul\":24525:24542   */\n      add\n        /* \"#utility.yul\":24512:24542   */\n      swap5\n      pop\n        /* \"#utility.yul\":24386:24390   */\n      0x20\n        /* \"#utility.yul\":24383:24384   */\n      dup2\n        /* \"#utility.yul\":24379:24391   */\n      add\n        /* \"#utility.yul\":24374:24391   */\n      swap1\n      pop\n        /* \"#utility.yul\":24349:24556   */\n      jump(tag_649)\n    tag_651:\n        /* \"#utility.yul\":24584:24590   */\n      dup7\n        /* \"#utility.yul\":24575:24582   */\n      dup4\n        /* \"#utility.yul\":24572:24591   */\n      lt\n        /* \"#utility.yul\":24569:24748   */\n      iszero\n      tag_652\n      jumpi\n        /* \"#utility.yul\":24642:24651   */\n      dup5\n        /* \"#utility.yul\":24637:24640   */\n      dup10\n        /* \"#utility.yul\":24633:24652   */\n      add\n        /* \"#utility.yul\":24627:24653   */\n      sload\n        /* \"#utility.yul\":24685:24733   */\n      tag_653\n        /* \"#utility.yul\":24727:24731   */\n      0x1f\n        /* \"#utility.yul\":24719:24725   */\n      dup10\n        /* \"#utility.yul\":24715:24732   */\n      and\n        /* \"#utility.yul\":24704:24713   */\n      dup3\n        /* \"#utility.yul\":24685:24733   */\n      tag_401\n      jump\t// in\n    tag_653:\n        /* \"#utility.yul\":24677:24683   */\n      dup4\n        /* \"#utility.yul\":24670:24734   */\n      sstore\n        /* \"#utility.yul\":24592:24748   */\n      pop\n        /* \"#utility.yul\":24569:24748   */\n    tag_652:\n        /* \"#utility.yul\":24794:24795   */\n      0x01\n        /* \"#utility.yul\":24790:24791   */\n      0x02\n        /* \"#utility.yul\":24782:24788   */\n      dup9\n        /* \"#utility.yul\":24778:24792   */\n      mul\n        /* \"#utility.yul\":24774:24796   */\n      add\n        /* \"#utility.yul\":24768:24772   */\n      dup9\n        /* \"#utility.yul\":24761:24797   */\n      sstore\n        /* \"#utility.yul\":24142:24807   */\n      pop\n      pop\n      pop\n        /* \"#utility.yul\":24105:25046   */\n    tag_643:\n      pop\n        /* \"#utility.yul\":23690:25052   */\n      pop\n      pop\n      pop\n        /* \"#utility.yul\":23601:25052   */\n      pop\n      pop\n    tag_636:\n      jump\t// out\n\n    auxdata: 0xa26469706673582212205fad2fdb4a726ff4e0d4db7156b523c6e1419c2d6aab76ca2987cfa6422038a864736f6c63430008190033\n}\n",
				"bytecode": {
					"linkReferences": {},
					"object": "6080604052348015600e575f80fd5b506127468061001c5f395ff3fe608060405234801561000f575f80fd5b50600436106100a7575f3560e01c80637eac2ed71161006f5780637eac2ed714610154578063d117030614610172578063d1726a621461018e578063e5521501146101ac578063f317d020146101dc578063fd55ae151461020c576100a7565b8063133d0460146100ab5780634007924b146100c95780634c6d0348146100e7578063504e966e146101065780636191f36414610124575b5f80fd5b6100b3610216565b6040516100c09190611d0c565b60405180910390f35b6100d1610478565b6040516100de9190611d0c565b60405180910390f35b6100ef6108f0565b6040516100fd929190611d3b565b60405180910390f35b61010e610c73565b60405161011b9190611d69565b60405180910390f35b61013e60048036038101906101399190611dbd565b610c7e565b60405161014b9190611e69565b60405180910390f35b61015c610eca565b6040516101699190611d69565b60405180910390f35b61018c60048036038101906101879190612097565b610f34565b005b6101966111d9565b6040516101a39190612139565b60405180910390f35b6101c660048036038101906101c19190612152565b6111ff565b6040516101d39190611d69565b60405180910390f35b6101f660048036038101906101f19190612152565b611445565b6040516102039190611e69565b60405180910390f35b610214611684565b005b60605f805480602002602001604051908101604052809291908181526020015f905b8282101561046f578382905f5260205f2090600502016040518060a00160405290815f82018054610268906121c6565b80601f0160208091040260200160405190810160405280929190818152602001828054610294906121c6565b80156102df5780601f106102b6576101008083540402835291602001916102df565b820191905f5260205f20905b8154815290600101906020018083116102c257829003601f168201915b50505050508152602001600182015481526020016002820154815260200160038201805461030c906121c6565b80601f0160208091040260200160405190810160405280929190818152602001828054610338906121c6565b80156103835780601f1061035a57610100808354040283529160200191610383565b820191905f5260205f20905b81548152906001019060200180831161036657829003601f168201915b5050505050815260200160048201805480602002602001604051908101604052809291908181526020015f905b82821015610458578382905f5260205f200180546103cd906121c6565b80601f01602080910402602001604051908101604052809291908181526020018280546103f9906121c6565b80156104445780601f1061041b57610100808354040283529160200191610444565b820191905f5260205f20905b81548152906001019060200180831161042757829003601f168201915b5050505050815260200190600101906103b0565b505050508152505081526020019060010190610238565b50505050905090565b60605f808054905067ffffffffffffffff81111561049957610498611e91565b5b6040519080825280602002602001820160405280156104d257816020015b6104bf611935565b8152602001906001900390816104b75790505b5090505f5b5f8054905081101561073f575f81815481106104f6576104f56121f6565b5b905f5260205f2090600502016040518060a00160405290815f8201805461051c906121c6565b80601f0160208091040260200160405190810160405280929190818152602001828054610548906121c6565b80156105935780601f1061056a57610100808354040283529160200191610593565b820191905f5260205f20905b81548152906001019060200180831161057657829003601f168201915b5050505050815260200160018201548152602001600282015481526020016003820180546105c0906121c6565b80601f01602080910402602001604051908101604052809291908181526020018280546105ec906121c6565b80156106375780601f1061060e57610100808354040283529160200191610637565b820191905f5260205f20905b81548152906001019060200180831161061a57829003601f168201915b5050505050815260200160048201805480602002602001604051908101604052809291908181526020015f905b8282101561070c578382905f5260205f20018054610681906121c6565b80601f01602080910402602001604051908101604052809291908181526020018280546106ad906121c6565b80156106f85780601f106106cf576101008083540402835291602001916106f8565b820191905f5260205f20905b8154815290600101906020018083116106db57829003601f168201915b505050505081526020019060010190610664565b5050505081525050828281518110610727576107266121f6565b5b602002602001018190525080806001019150506104d7565b505f5b5f8054905081101561083d575f60018261075c9190612250565b90505b5f8054905081101561082f5782818151811061077e5761077d6121f6565b5b60200260200101516040015183838151811061079d5761079c6121f6565b5b6020026020010151604001511015610822578281815181106107c2576107c16121f6565b5b60200260200101518383815181106107dd576107dc6121f6565b5b60200260200101518484815181106107f8576107f76121f6565b5b60200260200101858481518110610812576108116121f6565b5b6020026020010182905282905250505b808060010191505061075f565b508080600101915050610742565b505f600467ffffffffffffffff81111561085a57610859611e91565b5b60405190808252806020026020018201604052801561089357816020015b610880611935565b8152602001906001900390816108785790505b5090505f5b60048110156108e7578281815181106108b4576108b36121f6565b5b60200260200101518282815181106108cf576108ce6121f6565b5b60200260200101819052508080600101915050610898565b50809250505090565b5f60605f805b805f80549050111561094f57603c5f8281548110610917576109166121f6565b5b905f5260205f20906005020160020154101561093c57818061093890612283565b9250505b808061094790612283565b9150506108f6565b505f8167ffffffffffffffff81111561096b5761096a611e91565b5b6040519080825280602002602001820160405280156109a457816020015b610991611935565b8152602001906001900390816109895790505b5090505f805b805f805490501115610c6557603c5f82815481106109cb576109ca6121f6565b5b905f5260205f209060050201600201541015610c43575f81815481106109f4576109f36121f6565b5b905f5260205f2090600502016040518060a00160405290815f82018054610a1a906121c6565b80601f0160208091040260200160405190810160405280929190818152602001828054610a46906121c6565b8015610a915780601f10610a6857610100808354040283529160200191610a91565b820191905f5260205f20905b815481529060010190602001808311610a7457829003601f168201915b505050505081526020016001820154815260200160028201548152602001600382018054610abe906121c6565b80601f0160208091040260200160405190810160405280929190818152602001828054610aea906121c6565b8015610b355780601f10610b0c57610100808354040283529160200191610b35565b820191905f5260205f20905b815481529060010190602001808311610b1857829003601f168201915b5050505050815260200160048201805480602002602001604051908101604052809291908181526020015f905b82821015610c0a578382905f5260205f20018054610b7f906121c6565b80601f0160208091040260200160405190810160405280929190818152602001828054610bab906121c6565b8015610bf65780601f10610bcd57610100808354040283529160200191610bf6565b820191905f5260205f20905b815481529060010190602001808311610bd957829003601f168201915b505050505081526020019060010190610b62565b5050505081525050838381518110610c2557610c246121f6565b5b60200260200101819052508180610c3b90612283565b925050610c52565b5f82610c4f9190612250565b91505b8080610c5d90612283565b9150506109aa565b508282945094505050509091565b5f8080549050905090565b610c86611935565b5f600183610c9491906122ca565b81548110610ca557610ca46121f6565b5b905f5260205f2090600502016040518060a00160405290815f82018054610ccb906121c6565b80601f0160208091040260200160405190810160405280929190818152602001828054610cf7906121c6565b8015610d425780601f10610d1957610100808354040283529160200191610d42565b820191905f5260205f20905b815481529060010190602001808311610d2557829003601f168201915b505050505081526020016001820154815260200160028201548152602001600382018054610d6f906121c6565b80601f0160208091040260200160405190810160405280929190818152602001828054610d9b906121c6565b8015610de65780601f10610dbd57610100808354040283529160200191610de6565b820191905f5260205f20905b815481529060010190602001808311610dc957829003601f168201915b5050505050815260200160048201805480602002602001604051908101604052809291908181526020015f905b82821015610ebb578382905f5260205f20018054610e30906121c6565b80601f0160208091040260200160405190810160405280929190818152602001828054610e5c906121c6565b8015610ea75780601f10610e7e57610100808354040283529160200191610ea7565b820191905f5260205f20905b815481529060010190602001808311610e8a57829003601f168201915b505050505081526020019060010190610e13565b50505050815250509050919050565b5f805f5b805f805490501115610f1d575f8181548110610eed57610eec6121f6565b5b905f5260205f2090600502016002015482610f089190612250565b91508080610f1590612283565b915050610ece565b505f8054905081610f2e919061232a565b91505090565b6060605a8310610f7b576040518060400160405280600181526020017f41000000000000000000000000000000000000000000000000000000000000008152509050611086565b60508310610fc0576040518060400160405280600181526020017f42000000000000000000000000000000000000000000000000000000000000008152509050611085565b60468310611005576040518060400160405280600181526020017f43000000000000000000000000000000000000000000000000000000000000008152509050611084565b603c831061104a576040518060400160405280600181526020017f44000000000000000000000000000000000000000000000000000000000000008152509050611083565b6040518060400160405280600181526020017f460000000000000000000000000000000000000000000000000000000000000081525090505b5b5b5b6040518060a0016040528085815260200160015f805490506110a89190612250565b8152602001848152602001828152602001838152506001856040516110cd9190612394565b90815260200160405180910390205f820151815f0190816110ee9190612547565b50602082015181600101556040820151816002015560608201518160030190816111189190612547565b506080820151816004019080519060200190611135929190611962565b509050505f60018560405161114a9190612394565b9081526020016040518091039020908060018154018082558091505060019003905f5260205f2090600502015f909190919091505f8201815f019081611190919061262b565b506001820154816001015560028201548160020155600382018160030190816111b9919061262b565b5060048201816004019080546111d09291906119b9565b50505050505050565b5f806111e3610eca565b9050604681106111f75760019150506111fc565b5f9150505b90565b5f806001836040516112119190612394565b90815260200160405180910390206040518060a00160405290815f82018054611239906121c6565b80601f0160208091040260200160405190810160405280929190818152602001828054611265906121c6565b80156112b05780601f10611287576101008083540402835291602001916112b0565b820191905f5260205f20905b81548152906001019060200180831161129357829003601f168201915b5050505050815260200160018201548152602001600282015481526020016003820180546112dd906121c6565b80601f0160208091040260200160405190810160405280929190818152602001828054611309906121c6565b80156113545780601f1061132b57610100808354040283529160200191611354565b820191905f5260205f20905b81548152906001019060200180831161133757829003601f168201915b5050505050815260200160048201805480602002602001604051908101604052809291908181526020015f905b82821015611429578382905f5260205f2001805461139e906121c6565b80601f01602080910402602001604051908101604052809291908181526020018280546113ca906121c6565b80156114155780601f106113ec57610100808354040283529160200191611415565b820191905f5260205f20905b8154815290600101906020018083116113f857829003601f168201915b505050505081526020019060010190611381565b505050508152505090505f816040015190508092505050919050565b61144d611935565b60018260405161145d9190612394565b90815260200160405180910390206040518060a00160405290815f82018054611485906121c6565b80601f01602080910402602001604051908101604052809291908181526020018280546114b1906121c6565b80156114fc5780601f106114d3576101008083540402835291602001916114fc565b820191905f5260205f20905b8154815290600101906020018083116114df57829003601f168201915b505050505081526020016001820154815260200160028201548152602001600382018054611529906121c6565b80601f0160208091040260200160405190810160405280929190818152602001828054611555906121c6565b80156115a05780601f10611577576101008083540402835291602001916115a0565b820191905f5260205f20905b81548152906001019060200180831161158357829003601f168201915b5050505050815260200160048201805480602002602001604051908101604052809291908181526020015f905b82821015611675578382905f5260205f200180546115ea906121c6565b80601f0160208091040260200160405190810160405280929190818152602001828054611616906121c6565b80156116615780601f1061163857610100808354040283529160200191611661565b820191905f5260205f20905b81548152906001019060200180831161164457829003601f168201915b5050505050815260200190600101906115cd565b50505050815250509050919050565b5f600167ffffffffffffffff8111156116a05761169f611e91565b5b6040519080825280602002602001820160405280156116d357816020015b60608152602001906001900390816116be5790505b5090506040518060400160405280600181526020017f6100000000000000000000000000000000000000000000000000000000000000815250815f8151811061171f5761171e6121f6565b5b602002602001018190525061176b6040518060400160405280600381526020017f6d696e0000000000000000000000000000000000000000000000000000000000815250606483610f34565b6117ac6040518060400160405280600381526020017f6b696e0000000000000000000000000000000000000000000000000000000000815250606483610f34565b6117ed6040518060400160405280600381526020017f6a696e0000000000000000000000000000000000000000000000000000000000815250602883610f34565b61182e6040518060400160405280600381526020017f6c696e0000000000000000000000000000000000000000000000000000000000815250602883610f34565b61186f6040518060400160405280600381526020017f61696e0000000000000000000000000000000000000000000000000000000000815250603c83610f34565b6118b06040518060400160405280600381526020017f64696e0000000000000000000000000000000000000000000000000000000000815250603c83610f34565b6118f16040518060400160405280600381526020017f63696e0000000000000000000000000000000000000000000000000000000000815250603283610f34565b6119326040518060400160405280600381526020017f71696e0000000000000000000000000000000000000000000000000000000000815250603283610f34565b50565b6040518060a00160405280606081526020015f81526020015f815260200160608152602001606081525090565b828054828255905f5260205f209081019282156119a8579160200282015b828111156119a75782518290816119979190612547565b5091602001919060010190611980565b5b5090506119b59190611a12565b5090565b828054828255905f5260205f20908101928215611a01575f5260205f209182015b82811115611a0057828290816119f0919061262b565b50916001019190600101906119da565b5b509050611a0e9190611a12565b5090565b5b80821115611a31575f8181611a289190611a35565b50600101611a13565b5090565b508054611a41906121c6565b5f825580601f10611a525750611a6f565b601f0160209004905f5260205f2090810190611a6e9190611a72565b5b50565b5b80821115611a89575f815f905550600101611a73565b5090565b5f81519050919050565b5f82825260208201905092915050565b5f819050602082019050919050565b5f81519050919050565b5f82825260208201905092915050565b8281835e5f83830152505050565b5f601f19601f8301169050919050565b5f611af882611ab6565b611b028185611ac0565b9350611b12818560208601611ad0565b611b1b81611ade565b840191505092915050565b5f819050919050565b611b3881611b26565b82525050565b5f81519050919050565b5f82825260208201905092915050565b5f819050602082019050919050565b5f611b728383611aee565b905092915050565b5f602082019050919050565b5f611b9082611b3e565b611b9a8185611b48565b935083602082028501611bac85611b58565b805f5b85811015611be75784840389528151611bc88582611b67565b9450611bd383611b7a565b925060208a01995050600181019050611baf565b50829750879550505050505092915050565b5f60a083015f8301518482035f860152611c138282611aee565b9150506020830151611c286020860182611b2f565b506040830151611c3b6040860182611b2f565b5060608301518482036060860152611c538282611aee565b91505060808301518482036080860152611c6d8282611b86565b9150508091505092915050565b5f611c858383611bf9565b905092915050565b5f602082019050919050565b5f611ca382611a8d565b611cad8185611a97565b935083602082028501611cbf85611aa7565b805f5b85811015611cfa5784840389528151611cdb8582611c7a565b9450611ce683611c8d565b925060208a01995050600181019050611cc2565b50829750879550505050505092915050565b5f6020820190508181035f830152611d248184611c99565b905092915050565b611d3581611b26565b82525050565b5f604082019050611d4e5f830185611d2c565b8181036020830152611d608184611c99565b90509392505050565b5f602082019050611d7c5f830184611d2c565b92915050565b5f604051905090565b5f80fd5b5f80fd5b611d9c81611b26565b8114611da6575f80fd5b50565b5f81359050611db781611d93565b92915050565b5f60208284031215611dd257611dd1611d8b565b5b5f611ddf84828501611da9565b91505092915050565b5f60a083015f8301518482035f860152611e028282611aee565b9150506020830151611e176020860182611b2f565b506040830151611e2a6040860182611b2f565b5060608301518482036060860152611e428282611aee565b91505060808301518482036080860152611e5c8282611b86565b9150508091505092915050565b5f6020820190508181035f830152611e818184611de8565b905092915050565b5f80fd5b5f80fd5b7f4e487b71000000000000000000000000000000000000000000000000000000005f52604160045260245ffd5b611ec782611ade565b810181811067ffffffffffffffff82111715611ee657611ee5611e91565b5b80604052505050565b5f611ef8611d82565b9050611f048282611ebe565b919050565b5f67ffffffffffffffff821115611f2357611f22611e91565b5b611f2c82611ade565b9050602081019050919050565b828183375f83830152505050565b5f611f59611f5484611f09565b611eef565b905082815260208101848484011115611f7557611f74611e8d565b5b611f80848285611f39565b509392505050565b5f82601f830112611f9c57611f9b611e89565b5b8135611fac848260208601611f47565b91505092915050565b5f67ffffffffffffffff821115611fcf57611fce611e91565b5b602082029050602081019050919050565b5f80fd5b5f611ff6611ff184611fb5565b611eef565b9050808382526020820190506020840283018581111561201957612018611fe0565b5b835b8181101561206057803567ffffffffffffffff81111561203e5761203d611e89565b5b80860161204b8982611f88565b8552602085019450505060208101905061201b565b5050509392505050565b5f82601f83011261207e5761207d611e89565b5b813561208e848260208601611fe4565b91505092915050565b5f805f606084860312156120ae576120ad611d8b565b5b5f84013567ffffffffffffffff8111156120cb576120ca611d8f565b5b6120d786828701611f88565b93505060206120e886828701611da9565b925050604084013567ffffffffffffffff81111561210957612108611d8f565b5b6121158682870161206a565b9150509250925092565b5f8115159050919050565b6121338161211f565b82525050565b5f60208201905061214c5f83018461212a565b92915050565b5f6020828403121561216757612166611d8b565b5b5f82013567ffffffffffffffff81111561218457612183611d8f565b5b61219084828501611f88565b91505092915050565b7f4e487b71000000000000000000000000000000000000000000000000000000005f52602260045260245ffd5b5f60028204905060018216806121dd57607f821691505b6020821081036121f0576121ef612199565b5b50919050565b7f4e487b71000000000000000000000000000000000000000000000000000000005f52603260045260245ffd5b7f4e487b71000000000000000000000000000000000000000000000000000000005f52601160045260245ffd5b5f61225a82611b26565b915061226583611b26565b925082820190508082111561227d5761227c612223565b5b92915050565b5f61228d82611b26565b91507fffffffffffffffffffffffffffffffffffffffffffffffffffffffffffffffff82036122bf576122be612223565b5b600182019050919050565b5f6122d482611b26565b91506122df83611b26565b92508282039050818111156122f7576122f6612223565b5b92915050565b7f4e487b71000000000000000000000000000000000000000000000000000000005f52601260045260245ffd5b5f61233482611b26565b915061233f83611b26565b92508261234f5761234e6122fd565b5b828204905092915050565b5f81905092915050565b5f61236e82611ab6565b612378818561235a565b9350612388818560208601611ad0565b80840191505092915050565b5f61239f8284612364565b915081905092915050565b5f819050815f5260205f209050919050565b5f6020601f8301049050919050565b5f82821b905092915050565b5f600883026124067fffffffffffffffffffffffffffffffffffffffffffffffffffffffffffffffff826123cb565b61241086836123cb565b95508019841693508086168417925050509392505050565b5f819050919050565b5f61244b61244661244184611b26565b612428565b611b26565b9050919050565b5f819050919050565b61246483612431565b61247861247082612452565b8484546123d7565b825550505050565b5f90565b61248c612480565b61249781848461245b565b505050565b5b818110156124ba576124af5f82612484565b60018101905061249d565b5050565b601f8211156124ff576124d0816123aa565b6124d9846123bc565b810160208510156124e8578190505b6124fc6124f4856123bc565b83018261249c565b50505b505050565b5f82821c905092915050565b5f61251f5f1984600802612504565b1980831691505092915050565b5f6125378383612510565b9150826002028217905092915050565b61255082611ab6565b67ffffffffffffffff81111561256957612568611e91565b5b61257382546121c6565b61257e8282856124be565b5f60209050601f8311600181146125af575f841561259d578287015190505b6125a7858261252c565b86555061260e565b601f1984166125bd866123aa565b5f5b828110156125e4578489015182556001820191506020850194506020810190506125bf565b8683101561260157848901516125fd601f891682612510565b8355505b6001600288020188555050505b505050505050565b5f81549050612624816121c6565b9050919050565b81810361263957505061270e565b61264282612616565b67ffffffffffffffff81111561265b5761265a611e91565b5b61266582546121c6565b6126708282856124be565b5f601f83116001811461269d575f841561268b578287015490505b612695858261252c565b865550612707565b601f1984166126ab876123aa565b96506126b6866123aa565b5f5b828110156126dd578489015482556001820191506001850194506020810190506126b8565b868310156126fa57848901546126f6601f891682612510565b8355505b6001600288020188555050505b5050505050505b56fea26469706673582212205fad2fdb4a726ff4e0d4db7156b523c6e1419c2d6aab76ca2987cfa6422038a864736f6c63430008190033",
					"opcodes": "PUSH1 0x80 PUSH1 0x40 MSTORE CALLVALUE DUP1 ISZERO PUSH1 0xE JUMPI PUSH0 DUP1 REVERT JUMPDEST POP PUSH2 0x2746 DUP1 PUSH2 0x1C PUSH0 CODECOPY PUSH0 RETURN INVALID PUSH1 0x80 PUSH1 0x40 MSTORE CALLVALUE DUP1 ISZERO PUSH2 0xF JUMPI PUSH0 DUP1 REVERT JUMPDEST POP PUSH1 0x4 CALLDATASIZE LT PUSH2 0xA7 JUMPI PUSH0 CALLDATALOAD PUSH1 0xE0 SHR DUP1 PUSH4 0x7EAC2ED7 GT PUSH2 0x6F JUMPI DUP1 PUSH4 0x7EAC2ED7 EQ PUSH2 0x154 JUMPI DUP1 PUSH4 0xD1170306 EQ PUSH2 0x172 JUMPI DUP1 PUSH4 0xD1726A62 EQ PUSH2 0x18E JUMPI DUP1 PUSH4 0xE5521501 EQ PUSH2 0x1AC JUMPI DUP1 PUSH4 0xF317D020 EQ PUSH2 0x1DC JUMPI DUP1 PUSH4 0xFD55AE15 EQ PUSH2 0x20C JUMPI PUSH2 0xA7 JUMP JUMPDEST DUP1 PUSH4 0x133D0460 EQ PUSH2 0xAB JUMPI DUP1 PUSH4 0x4007924B EQ PUSH2 0xC9 JUMPI DUP1 PUSH4 0x4C6D0348 EQ PUSH2 0xE7 JUMPI DUP1 PUSH4 0x504E966E EQ PUSH2 0x106 JUMPI DUP1 PUSH4 0x6191F364 EQ PUSH2 0x124 JUMPI JUMPDEST PUSH0 DUP1 REVERT JUMPDEST PUSH2 0xB3 PUSH2 0x216 JUMP JUMPDEST PUSH1 0x40 MLOAD PUSH2 0xC0 SWAP2 SWAP1 PUSH2 0x1D0C JUMP JUMPDEST PUSH1 0x40 MLOAD DUP1 SWAP2 SUB SWAP1 RETURN JUMPDEST PUSH2 0xD1 PUSH2 0x478 JUMP JUMPDEST PUSH1 0x40 MLOAD PUSH2 0xDE SWAP2 SWAP1 PUSH2 0x1D0C JUMP JUMPDEST PUSH1 0x40 MLOAD DUP1 SWAP2 SUB SWAP1 RETURN JUMPDEST PUSH2 0xEF PUSH2 0x8F0 JUMP JUMPDEST PUSH1 0x40 MLOAD PUSH2 0xFD SWAP3 SWAP2 SWAP1 PUSH2 0x1D3B JUMP JUMPDEST PUSH1 0x40 MLOAD DUP1 SWAP2 SUB SWAP1 RETURN JUMPDEST PUSH2 0x10E PUSH2 0xC73 JUMP JUMPDEST PUSH1 0x40 MLOAD PUSH2 0x11B SWAP2 SWAP1 PUSH2 0x1D69 JUMP JUMPDEST PUSH1 0x40 MLOAD DUP1 SWAP2 SUB SWAP1 RETURN JUMPDEST PUSH2 0x13E PUSH1 0x4 DUP1 CALLDATASIZE SUB DUP2 ADD SWAP1 PUSH2 0x139 SWAP2 SWAP1 PUSH2 0x1DBD JUMP JUMPDEST PUSH2 0xC7E JUMP JUMPDEST PUSH1 0x40 MLOAD PUSH2 0x14B SWAP2 SWAP1 PUSH2 0x1E69 JUMP JUMPDEST PUSH1 0x40 MLOAD DUP1 SWAP2 SUB SWAP1 RETURN JUMPDEST PUSH2 0x15C PUSH2 0xECA JUMP JUMPDEST PUSH1 0x40 MLOAD PUSH2 0x169 SWAP2 SWAP1 PUSH2 0x1D69 JUMP JUMPDEST PUSH1 0x40 MLOAD DUP1 SWAP2 SUB SWAP1 RETURN JUMPDEST PUSH2 0x18C PUSH1 0x4 DUP1 CALLDATASIZE SUB DUP2 ADD SWAP1 PUSH2 0x187 SWAP2 SWAP1 PUSH2 0x2097 JUMP JUMPDEST PUSH2 0xF34 JUMP JUMPDEST STOP JUMPDEST PUSH2 0x196 PUSH2 0x11D9 JUMP JUMPDEST PUSH1 0x40 MLOAD PUSH2 0x1A3 SWAP2 SWAP1 PUSH2 0x2139 JUMP JUMPDEST PUSH1 0x40 MLOAD DUP1 SWAP2 SUB SWAP1 RETURN JUMPDEST PUSH2 0x1C6 PUSH1 0x4 DUP1 CALLDATASIZE SUB DUP2 ADD SWAP1 PUSH2 0x1C1 SWAP2 SWAP1 PUSH2 0x2152 JUMP JUMPDEST PUSH2 0x11FF JUMP JUMPDEST PUSH1 0x40 MLOAD PUSH2 0x1D3 SWAP2 SWAP1 PUSH2 0x1D69 JUMP JUMPDEST PUSH1 0x40 MLOAD DUP1 SWAP2 SUB SWAP1 RETURN JUMPDEST PUSH2 0x1F6 PUSH1 0x4 DUP1 CALLDATASIZE SUB DUP2 ADD SWAP1 PUSH2 0x1F1 SWAP2 SWAP1 PUSH2 0x2152 JUMP JUMPDEST PUSH2 0x1445 JUMP JUMPDEST PUSH1 0x40 MLOAD PUSH2 0x203 SWAP2 SWAP1 PUSH2 0x1E69 JUMP JUMPDEST PUSH1 0x40 MLOAD DUP1 SWAP2 SUB SWAP1 RETURN JUMPDEST PUSH2 0x214 PUSH2 0x1684 JUMP JUMPDEST STOP JUMPDEST PUSH1 0x60 PUSH0 DUP1 SLOAD DUP1 PUSH1 0x20 MUL PUSH1 0x20 ADD PUSH1 0x40 MLOAD SWAP1 DUP2 ADD PUSH1 0x40 MSTORE DUP1 SWAP3 SWAP2 SWAP1 DUP2 DUP2 MSTORE PUSH1 0x20 ADD PUSH0 SWAP1 JUMPDEST DUP3 DUP3 LT ISZERO PUSH2 0x46F JUMPI DUP4 DUP3 SWAP1 PUSH0 MSTORE PUSH1 0x20 PUSH0 KECCAK256 SWAP1 PUSH1 0x5 MUL ADD PUSH1 0x40 MLOAD DUP1 PUSH1 0xA0 ADD PUSH1 0x40 MSTORE SWAP1 DUP2 PUSH0 DUP3 ADD DUP1 SLOAD PUSH2 0x268 SWAP1 PUSH2 0x21C6 JUMP JUMPDEST DUP1 PUSH1 0x1F ADD PUSH1 0x20 DUP1 SWAP2 DIV MUL PUSH1 0x20 ADD PUSH1 0x40 MLOAD SWAP1 DUP2 ADD PUSH1 0x40 MSTORE DUP1 SWAP3 SWAP2 SWAP1 DUP2 DUP2 MSTORE PUSH1 0x20 ADD DUP3 DUP1 SLOAD PUSH2 0x294 SWAP1 PUSH2 0x21C6 JUMP JUMPDEST DUP1 ISZERO PUSH2 0x2DF JUMPI DUP1 PUSH1 0x1F LT PUSH2 0x2B6 JUMPI PUSH2 0x100 DUP1 DUP4 SLOAD DIV MUL DUP4 MSTORE SWAP2 PUSH1 0x20 ADD SWAP2 PUSH2 0x2DF JUMP JUMPDEST DUP3 ADD SWAP2 SWAP1 PUSH0 MSTORE PUSH1 0x20 PUSH0 KECCAK256 SWAP1 JUMPDEST DUP2 SLOAD DUP2 MSTORE SWAP1 PUSH1 0x1 ADD SWAP1 PUSH1 0x20 ADD DUP1 DUP4 GT PUSH2 0x2C2 JUMPI DUP3 SWAP1 SUB PUSH1 0x1F AND DUP3 ADD SWAP2 JUMPDEST POP POP POP POP POP DUP2 MSTORE PUSH1 0x20 ADD PUSH1 0x1 DUP3 ADD SLOAD DUP2 MSTORE PUSH1 0x20 ADD PUSH1 0x2 DUP3 ADD SLOAD DUP2 MSTORE PUSH1 0x20 ADD PUSH1 0x3 DUP3 ADD DUP1 SLOAD PUSH2 0x30C SWAP1 PUSH2 0x21C6 JUMP JUMPDEST DUP1 PUSH1 0x1F ADD PUSH1 0x20 DUP1 SWAP2 DIV MUL PUSH1 0x20 ADD PUSH1 0x40 MLOAD SWAP1 DUP2 ADD PUSH1 0x40 MSTORE DUP1 SWAP3 SWAP2 SWAP1 DUP2 DUP2 MSTORE PUSH1 0x20 ADD DUP3 DUP1 SLOAD PUSH2 0x338 SWAP1 PUSH2 0x21C6 JUMP JUMPDEST DUP1 ISZERO PUSH2 0x383 JUMPI DUP1 PUSH1 0x1F LT PUSH2 0x35A JUMPI PUSH2 0x100 DUP1 DUP4 SLOAD DIV MUL DUP4 MSTORE SWAP2 PUSH1 0x20 ADD SWAP2 PUSH2 0x383 JUMP JUMPDEST DUP3 ADD SWAP2 SWAP1 PUSH0 MSTORE PUSH1 0x20 PUSH0 KECCAK256 SWAP1 JUMPDEST DUP2 SLOAD DUP2 MSTORE SWAP1 PUSH1 0x1 ADD SWAP1 PUSH1 0x20 ADD DUP1 DUP4 GT PUSH2 0x366 JUMPI DUP3 SWAP1 SUB PUSH1 0x1F AND DUP3 ADD SWAP2 JUMPDEST POP POP POP POP POP DUP2 MSTORE PUSH1 0x20 ADD PUSH1 0x4 DUP3 ADD DUP1 SLOAD DUP1 PUSH1 0x20 MUL PUSH1 0x20 ADD PUSH1 0x40 MLOAD SWAP1 DUP2 ADD PUSH1 0x40 MSTORE DUP1 SWAP3 SWAP2 SWAP1 DUP2 DUP2 MSTORE PUSH1 0x20 ADD PUSH0 SWAP1 JUMPDEST DUP3 DUP3 LT ISZERO PUSH2 0x458 JUMPI DUP4 DUP3 SWAP1 PUSH0 MSTORE PUSH1 0x20 PUSH0 KECCAK256 ADD DUP1 SLOAD PUSH2 0x3CD SWAP1 PUSH2 0x21C6 JUMP JUMPDEST DUP1 PUSH1 0x1F ADD PUSH1 0x20 DUP1 SWAP2 DIV MUL PUSH1 0x20 ADD PUSH1 0x40 MLOAD SWAP1 DUP2 ADD PUSH1 0x40 MSTORE DUP1 SWAP3 SWAP2 SWAP1 DUP2 DUP2 MSTORE PUSH1 0x20 ADD DUP3 DUP1 SLOAD PUSH2 0x3F9 SWAP1 PUSH2 0x21C6 JUMP JUMPDEST DUP1 ISZERO PUSH2 0x444 JUMPI DUP1 PUSH1 0x1F LT PUSH2 0x41B JUMPI PUSH2 0x100 DUP1 DUP4 SLOAD DIV MUL DUP4 MSTORE SWAP2 PUSH1 0x20 ADD SWAP2 PUSH2 0x444 JUMP JUMPDEST DUP3 ADD SWAP2 SWAP1 PUSH0 MSTORE PUSH1 0x20 PUSH0 KECCAK256 SWAP1 JUMPDEST DUP2 SLOAD DUP2 MSTORE SWAP1 PUSH1 0x1 ADD SWAP1 PUSH1 0x20 ADD DUP1 DUP4 GT PUSH2 0x427 JUMPI DUP3 SWAP1 SUB PUSH1 0x1F AND DUP3 ADD SWAP2 JUMPDEST POP POP POP POP POP DUP2 MSTORE PUSH1 0x20 ADD SWAP1 PUSH1 0x1 ADD SWAP1 PUSH2 0x3B0 JUMP JUMPDEST POP POP POP POP DUP2 MSTORE POP POP DUP2 MSTORE PUSH1 0x20 ADD SWAP1 PUSH1 0x1 ADD SWAP1 PUSH2 0x238 JUMP JUMPDEST POP POP POP POP SWAP1 POP SWAP1 JUMP JUMPDEST PUSH1 0x60 PUSH0 DUP1 DUP1 SLOAD SWAP1 POP PUSH8 0xFFFFFFFFFFFFFFFF DUP2 GT ISZERO PUSH2 0x499 JUMPI PUSH2 0x498 PUSH2 0x1E91 JUMP JUMPDEST JUMPDEST PUSH1 0x40 MLOAD SWAP1 DUP1 DUP3 MSTORE DUP1 PUSH1 0x20 MUL PUSH1 0x20 ADD DUP3 ADD PUSH1 0x40 MSTORE DUP1 ISZERO PUSH2 0x4D2 JUMPI DUP2 PUSH1 0x20 ADD JUMPDEST PUSH2 0x4BF PUSH2 0x1935 JUMP JUMPDEST DUP2 MSTORE PUSH1 0x20 ADD SWAP1 PUSH1 0x1 SWAP1 SUB SWAP1 DUP2 PUSH2 0x4B7 JUMPI SWAP1 POP JUMPDEST POP SWAP1 POP PUSH0 JUMPDEST PUSH0 DUP1 SLOAD SWAP1 POP DUP2 LT ISZERO PUSH2 0x73F JUMPI PUSH0 DUP2 DUP2 SLOAD DUP2 LT PUSH2 0x4F6 JUMPI PUSH2 0x4F5 PUSH2 0x21F6 JUMP JUMPDEST JUMPDEST SWAP1 PUSH0 MSTORE PUSH1 0x20 PUSH0 KECCAK256 SWAP1 PUSH1 0x5 MUL ADD PUSH1 0x40 MLOAD DUP1 PUSH1 0xA0 ADD PUSH1 0x40 MSTORE SWAP1 DUP2 PUSH0 DUP3 ADD DUP1 SLOAD PUSH2 0x51C SWAP1 PUSH2 0x21C6 JUMP JUMPDEST DUP1 PUSH1 0x1F ADD PUSH1 0x20 DUP1 SWAP2 DIV MUL PUSH1 0x20 ADD PUSH1 0x40 MLOAD SWAP1 DUP2 ADD PUSH1 0x40 MSTORE DUP1 SWAP3 SWAP2 SWAP1 DUP2 DUP2 MSTORE PUSH1 0x20 ADD DUP3 DUP1 SLOAD PUSH2 0x548 SWAP1 PUSH2 0x21C6 JUMP JUMPDEST DUP1 ISZERO PUSH2 0x593 JUMPI DUP1 PUSH1 0x1F LT PUSH2 0x56A JUMPI PUSH2 0x100 DUP1 DUP4 SLOAD DIV MUL DUP4 MSTORE SWAP2 PUSH1 0x20 ADD SWAP2 PUSH2 0x593 JUMP JUMPDEST DUP3 ADD SWAP2 SWAP1 PUSH0 MSTORE PUSH1 0x20 PUSH0 KECCAK256 SWAP1 JUMPDEST DUP2 SLOAD DUP2 MSTORE SWAP1 PUSH1 0x1 ADD SWAP1 PUSH1 0x20 ADD DUP1 DUP4 GT PUSH2 0x576 JUMPI DUP3 SWAP1 SUB PUSH1 0x1F AND DUP3 ADD SWAP2 JUMPDEST POP POP POP POP POP DUP2 MSTORE PUSH1 0x20 ADD PUSH1 0x1 DUP3 ADD SLOAD DUP2 MSTORE PUSH1 0x20 ADD PUSH1 0x2 DUP3 ADD SLOAD DUP2 MSTORE PUSH1 0x20 ADD PUSH1 0x3 DUP3 ADD DUP1 SLOAD PUSH2 0x5C0 SWAP1 PUSH2 0x21C6 JUMP JUMPDEST DUP1 PUSH1 0x1F ADD PUSH1 0x20 DUP1 SWAP2 DIV MUL PUSH1 0x20 ADD PUSH1 0x40 MLOAD SWAP1 DUP2 ADD PUSH1 0x40 MSTORE DUP1 SWAP3 SWAP2 SWAP1 DUP2 DUP2 MSTORE PUSH1 0x20 ADD DUP3 DUP1 SLOAD PUSH2 0x5EC SWAP1 PUSH2 0x21C6 JUMP JUMPDEST DUP1 ISZERO PUSH2 0x637 JUMPI DUP1 PUSH1 0x1F LT PUSH2 0x60E JUMPI PUSH2 0x100 DUP1 DUP4 SLOAD DIV MUL DUP4 MSTORE SWAP2 PUSH1 0x20 ADD SWAP2 PUSH2 0x637 JUMP JUMPDEST DUP3 ADD SWAP2 SWAP1 PUSH0 MSTORE PUSH1 0x20 PUSH0 KECCAK256 SWAP1 JUMPDEST DUP2 SLOAD DUP2 MSTORE SWAP1 PUSH1 0x1 ADD SWAP1 PUSH1 0x20 ADD DUP1 DUP4 GT PUSH2 0x61A JUMPI DUP3 SWAP1 SUB PUSH1 0x1F AND DUP3 ADD SWAP2 JUMPDEST POP POP POP POP POP DUP2 MSTORE PUSH1 0x20 ADD PUSH1 0x4 DUP3 ADD DUP1 SLOAD DUP1 PUSH1 0x20 MUL PUSH1 0x20 ADD PUSH1 0x40 MLOAD SWAP1 DUP2 ADD PUSH1 0x40 MSTORE DUP1 SWAP3 SWAP2 SWAP1 DUP2 DUP2 MSTORE PUSH1 0x20 ADD PUSH0 SWAP1 JUMPDEST DUP3 DUP3 LT ISZERO PUSH2 0x70C JUMPI DUP4 DUP3 SWAP1 PUSH0 MSTORE PUSH1 0x20 PUSH0 KECCAK256 ADD DUP1 SLOAD PUSH2 0x681 SWAP1 PUSH2 0x21C6 JUMP JUMPDEST DUP1 PUSH1 0x1F ADD PUSH1 0x20 DUP1 SWAP2 DIV MUL PUSH1 0x20 ADD PUSH1 0x40 MLOAD SWAP1 DUP2 ADD PUSH1 0x40 MSTORE DUP1 SWAP3 SWAP2 SWAP1 DUP2 DUP2 MSTORE PUSH1 0x20 ADD DUP3 DUP1 SLOAD PUSH2 0x6AD SWAP1 PUSH2 0x21C6 JUMP JUMPDEST DUP1 ISZERO PUSH2 0x6F8 JUMPI DUP1 PUSH1 0x1F LT PUSH2 0x6CF JUMPI PUSH2 0x100 DUP1 DUP4 SLOAD DIV MUL DUP4 MSTORE SWAP2 PUSH1 0x20 ADD SWAP2 PUSH2 0x6F8 JUMP JUMPDEST DUP3 ADD SWAP2 SWAP1 PUSH0 MSTORE PUSH1 0x20 PUSH0 KECCAK256 SWAP1 JUMPDEST DUP2 SLOAD DUP2 MSTORE SWAP1 PUSH1 0x1 ADD SWAP1 PUSH1 0x20 ADD DUP1 DUP4 GT PUSH2 0x6DB JUMPI DUP3 SWAP1 SUB PUSH1 0x1F AND DUP3 ADD SWAP2 JUMPDEST POP POP POP POP POP DUP2 MSTORE PUSH1 0x20 ADD SWAP1 PUSH1 0x1 ADD SWAP1 PUSH2 0x664 JUMP JUMPDEST POP POP POP POP DUP2 MSTORE POP POP DUP3 DUP3 DUP2 MLOAD DUP2 LT PUSH2 0x727 JUMPI PUSH2 0x726 PUSH2 0x21F6 JUMP JUMPDEST JUMPDEST PUSH1 0x20 MUL PUSH1 0x20 ADD ADD DUP2 SWAP1 MSTORE POP DUP1 DUP1 PUSH1 0x1 ADD SWAP2 POP POP PUSH2 0x4D7 JUMP JUMPDEST POP PUSH0 JUMPDEST PUSH0 DUP1 SLOAD SWAP1 POP DUP2 LT ISZERO PUSH2 0x83D JUMPI PUSH0 PUSH1 0x1 DUP3 PUSH2 0x75C SWAP2 SWAP1 PUSH2 0x2250 JUMP JUMPDEST SWAP1 POP JUMPDEST PUSH0 DUP1 SLOAD SWAP1 POP DUP2 LT ISZERO PUSH2 0x82F JUMPI DUP3 DUP2 DUP2 MLOAD DUP2 LT PUSH2 0x77E JUMPI PUSH2 0x77D PUSH2 0x21F6 JUMP JUMPDEST JUMPDEST PUSH1 0x20 MUL PUSH1 0x20 ADD ADD MLOAD PUSH1 0x40 ADD MLOAD DUP4 DUP4 DUP2 MLOAD DUP2 LT PUSH2 0x79D JUMPI PUSH2 0x79C PUSH2 0x21F6 JUMP JUMPDEST JUMPDEST PUSH1 0x20 MUL PUSH1 0x20 ADD ADD MLOAD PUSH1 0x40 ADD MLOAD LT ISZERO PUSH2 0x822 JUMPI DUP3 DUP2 DUP2 MLOAD DUP2 LT PUSH2 0x7C2 JUMPI PUSH2 0x7C1 PUSH2 0x21F6 JUMP JUMPDEST JUMPDEST PUSH1 0x20 MUL PUSH1 0x20 ADD ADD MLOAD DUP4 DUP4 DUP2 MLOAD DUP2 LT PUSH2 0x7DD JUMPI PUSH2 0x7DC PUSH2 0x21F6 JUMP JUMPDEST JUMPDEST PUSH1 0x20 MUL PUSH1 0x20 ADD ADD MLOAD DUP5 DUP5 DUP2 MLOAD DUP2 LT PUSH2 0x7F8 JUMPI PUSH2 0x7F7 PUSH2 0x21F6 JUMP JUMPDEST JUMPDEST PUSH1 0x20 MUL PUSH1 0x20 ADD ADD DUP6 DUP5 DUP2 MLOAD DUP2 LT PUSH2 0x812 JUMPI PUSH2 0x811 PUSH2 0x21F6 JUMP JUMPDEST JUMPDEST PUSH1 0x20 MUL PUSH1 0x20 ADD ADD DUP3 SWAP1 MSTORE DUP3 SWAP1 MSTORE POP POP JUMPDEST DUP1 DUP1 PUSH1 0x1 ADD SWAP2 POP POP PUSH2 0x75F JUMP JUMPDEST POP DUP1 DUP1 PUSH1 0x1 ADD SWAP2 POP POP PUSH2 0x742 JUMP JUMPDEST POP PUSH0 PUSH1 0x4 PUSH8 0xFFFFFFFFFFFFFFFF DUP2 GT ISZERO PUSH2 0x85A JUMPI PUSH2 0x859 PUSH2 0x1E91 JUMP JUMPDEST JUMPDEST PUSH1 0x40 MLOAD SWAP1 DUP1 DUP3 MSTORE DUP1 PUSH1 0x20 MUL PUSH1 0x20 ADD DUP3 ADD PUSH1 0x40 MSTORE DUP1 ISZERO PUSH2 0x893 JUMPI DUP2 PUSH1 0x20 ADD JUMPDEST PUSH2 0x880 PUSH2 0x1935 JUMP JUMPDEST DUP2 MSTORE PUSH1 0x20 ADD SWAP1 PUSH1 0x1 SWAP1 SUB SWAP1 DUP2 PUSH2 0x878 JUMPI SWAP1 POP JUMPDEST POP SWAP1 POP PUSH0 JUMPDEST PUSH1 0x4 DUP2 LT ISZERO PUSH2 0x8E7 JUMPI DUP3 DUP2 DUP2 MLOAD DUP2 LT PUSH2 0x8B4 JUMPI PUSH2 0x8B3 PUSH2 0x21F6 JUMP JUMPDEST JUMPDEST PUSH1 0x20 MUL PUSH1 0x20 ADD ADD MLOAD DUP3 DUP3 DUP2 MLOAD DUP2 LT PUSH2 0x8CF JUMPI PUSH2 0x8CE PUSH2 0x21F6 JUMP JUMPDEST JUMPDEST PUSH1 0x20 MUL PUSH1 0x20 ADD ADD DUP2 SWAP1 MSTORE POP DUP1 DUP1 PUSH1 0x1 ADD SWAP2 POP POP PUSH2 0x898 JUMP JUMPDEST POP DUP1 SWAP3 POP POP POP SWAP1 JUMP JUMPDEST PUSH0 PUSH1 0x60 PUSH0 DUP1 JUMPDEST DUP1 PUSH0 DUP1 SLOAD SWAP1 POP GT ISZERO PUSH2 0x94F JUMPI PUSH1 0x3C PUSH0 DUP3 DUP2 SLOAD DUP2 LT PUSH2 0x917 JUMPI PUSH2 0x916 PUSH2 0x21F6 JUMP JUMPDEST JUMPDEST SWAP1 PUSH0 MSTORE PUSH1 0x20 PUSH0 KECCAK256 SWAP1 PUSH1 0x5 MUL ADD PUSH1 0x2 ADD SLOAD LT ISZERO PUSH2 0x93C JUMPI DUP2 DUP1 PUSH2 0x938 SWAP1 PUSH2 0x2283 JUMP JUMPDEST SWAP3 POP POP JUMPDEST DUP1 DUP1 PUSH2 0x947 SWAP1 PUSH2 0x2283 JUMP JUMPDEST SWAP2 POP POP PUSH2 0x8F6 JUMP JUMPDEST POP PUSH0 DUP2 PUSH8 0xFFFFFFFFFFFFFFFF DUP2 GT ISZERO PUSH2 0x96B JUMPI PUSH2 0x96A PUSH2 0x1E91 JUMP JUMPDEST JUMPDEST PUSH1 0x40 MLOAD SWAP1 DUP1 DUP3 MSTORE DUP1 PUSH1 0x20 MUL PUSH1 0x20 ADD DUP3 ADD PUSH1 0x40 MSTORE DUP1 ISZERO PUSH2 0x9A4 JUMPI DUP2 PUSH1 0x20 ADD JUMPDEST PUSH2 0x991 PUSH2 0x1935 JUMP JUMPDEST DUP2 MSTORE PUSH1 0x20 ADD SWAP1 PUSH1 0x1 SWAP1 SUB SWAP1 DUP2 PUSH2 0x989 JUMPI SWAP1 POP JUMPDEST POP SWAP1 POP PUSH0 DUP1 JUMPDEST DUP1 PUSH0 DUP1 SLOAD SWAP1 POP GT ISZERO PUSH2 0xC65 JUMPI PUSH1 0x3C PUSH0 DUP3 DUP2 SLOAD DUP2 LT PUSH2 0x9CB JUMPI PUSH2 0x9CA PUSH2 0x21F6 JUMP JUMPDEST JUMPDEST SWAP1 PUSH0 MSTORE PUSH1 0x20 PUSH0 KECCAK256 SWAP1 PUSH1 0x5 MUL ADD PUSH1 0x2 ADD SLOAD LT ISZERO PUSH2 0xC43 JUMPI PUSH0 DUP2 DUP2 SLOAD DUP2 LT PUSH2 0x9F4 JUMPI PUSH2 0x9F3 PUSH2 0x21F6 JUMP JUMPDEST JUMPDEST SWAP1 PUSH0 MSTORE PUSH1 0x20 PUSH0 KECCAK256 SWAP1 PUSH1 0x5 MUL ADD PUSH1 0x40 MLOAD DUP1 PUSH1 0xA0 ADD PUSH1 0x40 MSTORE SWAP1 DUP2 PUSH0 DUP3 ADD DUP1 SLOAD PUSH2 0xA1A SWAP1 PUSH2 0x21C6 JUMP JUMPDEST DUP1 PUSH1 0x1F ADD PUSH1 0x20 DUP1 SWAP2 DIV MUL PUSH1 0x20 ADD PUSH1 0x40 MLOAD SWAP1 DUP2 ADD PUSH1 0x40 MSTORE DUP1 SWAP3 SWAP2 SWAP1 DUP2 DUP2 MSTORE PUSH1 0x20 ADD DUP3 DUP1 SLOAD PUSH2 0xA46 SWAP1 PUSH2 0x21C6 JUMP JUMPDEST DUP1 ISZERO PUSH2 0xA91 JUMPI DUP1 PUSH1 0x1F LT PUSH2 0xA68 JUMPI PUSH2 0x100 DUP1 DUP4 SLOAD DIV MUL DUP4 MSTORE SWAP2 PUSH1 0x20 ADD SWAP2 PUSH2 0xA91 JUMP JUMPDEST DUP3 ADD SWAP2 SWAP1 PUSH0 MSTORE PUSH1 0x20 PUSH0 KECCAK256 SWAP1 JUMPDEST DUP2 SLOAD DUP2 MSTORE SWAP1 PUSH1 0x1 ADD SWAP1 PUSH1 0x20 ADD DUP1 DUP4 GT PUSH2 0xA74 JUMPI DUP3 SWAP1 SUB PUSH1 0x1F AND DUP3 ADD SWAP2 JUMPDEST POP POP POP POP POP DUP2 MSTORE PUSH1 0x20 ADD PUSH1 0x1 DUP3 ADD SLOAD DUP2 MSTORE PUSH1 0x20 ADD PUSH1 0x2 DUP3 ADD SLOAD DUP2 MSTORE PUSH1 0x20 ADD PUSH1 0x3 DUP3 ADD DUP1 SLOAD PUSH2 0xABE SWAP1 PUSH2 0x21C6 JUMP JUMPDEST DUP1 PUSH1 0x1F ADD PUSH1 0x20 DUP1 SWAP2 DIV MUL PUSH1 0x20 ADD PUSH1 0x40 MLOAD SWAP1 DUP2 ADD PUSH1 0x40 MSTORE DUP1 SWAP3 SWAP2 SWAP1 DUP2 DUP2 MSTORE PUSH1 0x20 ADD DUP3 DUP1 SLOAD PUSH2 0xAEA SWAP1 PUSH2 0x21C6 JUMP JUMPDEST DUP1 ISZERO PUSH2 0xB35 JUMPI DUP1 PUSH1 0x1F LT PUSH2 0xB0C JUMPI PUSH2 0x100 DUP1 DUP4 SLOAD DIV MUL DUP4 MSTORE SWAP2 PUSH1 0x20 ADD SWAP2 PUSH2 0xB35 JUMP JUMPDEST DUP3 ADD SWAP2 SWAP1 PUSH0 MSTORE PUSH1 0x20 PUSH0 KECCAK256 SWAP1 JUMPDEST DUP2 SLOAD DUP2 MSTORE SWAP1 PUSH1 0x1 ADD SWAP1 PUSH1 0x20 ADD DUP1 DUP4 GT PUSH2 0xB18 JUMPI DUP3 SWAP1 SUB PUSH1 0x1F AND DUP3 ADD SWAP2 JUMPDEST POP POP POP POP POP DUP2 MSTORE PUSH1 0x20 ADD PUSH1 0x4 DUP3 ADD DUP1 SLOAD DUP1 PUSH1 0x20 MUL PUSH1 0x20 ADD PUSH1 0x40 MLOAD SWAP1 DUP2 ADD PUSH1 0x40 MSTORE DUP1 SWAP3 SWAP2 SWAP1 DUP2 DUP2 MSTORE PUSH1 0x20 ADD PUSH0 SWAP1 JUMPDEST DUP3 DUP3 LT ISZERO PUSH2 0xC0A JUMPI DUP4 DUP3 SWAP1 PUSH0 MSTORE PUSH1 0x20 PUSH0 KECCAK256 ADD DUP1 SLOAD PUSH2 0xB7F SWAP1 PUSH2 0x21C6 JUMP JUMPDEST DUP1 PUSH1 0x1F ADD PUSH1 0x20 DUP1 SWAP2 DIV MUL PUSH1 0x20 ADD PUSH1 0x40 MLOAD SWAP1 DUP2 ADD PUSH1 0x40 MSTORE DUP1 SWAP3 SWAP2 SWAP1 DUP2 DUP2 MSTORE PUSH1 0x20 ADD DUP3 DUP1 SLOAD PUSH2 0xBAB SWAP1 PUSH2 0x21C6 JUMP JUMPDEST DUP1 ISZERO PUSH2 0xBF6 JUMPI DUP1 PUSH1 0x1F LT PUSH2 0xBCD JUMPI PUSH2 0x100 DUP1 DUP4 SLOAD DIV MUL DUP4 MSTORE SWAP2 PUSH1 0x20 ADD SWAP2 PUSH2 0xBF6 JUMP JUMPDEST DUP3 ADD SWAP2 SWAP1 PUSH0 MSTORE PUSH1 0x20 PUSH0 KECCAK256 SWAP1 JUMPDEST DUP2 SLOAD DUP2 MSTORE SWAP1 PUSH1 0x1 ADD SWAP1 PUSH1 0x20 ADD DUP1 DUP4 GT PUSH2 0xBD9 JUMPI DUP3 SWAP1 SUB PUSH1 0x1F AND DUP3 ADD SWAP2 JUMPDEST POP POP POP POP POP DUP2 MSTORE PUSH1 0x20 ADD SWAP1 PUSH1 0x1 ADD SWAP1 PUSH2 0xB62 JUMP JUMPDEST POP POP POP POP DUP2 MSTORE POP POP DUP4 DUP4 DUP2 MLOAD DUP2 LT PUSH2 0xC25 JUMPI PUSH2 0xC24 PUSH2 0x21F6 JUMP JUMPDEST JUMPDEST PUSH1 0x20 MUL PUSH1 0x20 ADD ADD DUP2 SWAP1 MSTORE POP DUP2 DUP1 PUSH2 0xC3B SWAP1 PUSH2 0x2283 JUMP JUMPDEST SWAP3 POP POP PUSH2 0xC52 JUMP JUMPDEST PUSH0 DUP3 PUSH2 0xC4F SWAP2 SWAP1 PUSH2 0x2250 JUMP JUMPDEST SWAP2 POP JUMPDEST DUP1 DUP1 PUSH2 0xC5D SWAP1 PUSH2 0x2283 JUMP JUMPDEST SWAP2 POP POP PUSH2 0x9AA JUMP JUMPDEST POP DUP3 DUP3 SWAP5 POP SWAP5 POP POP POP POP SWAP1 SWAP2 JUMP JUMPDEST PUSH0 DUP1 DUP1 SLOAD SWAP1 POP SWAP1 POP SWAP1 JUMP JUMPDEST PUSH2 0xC86 PUSH2 0x1935 JUMP JUMPDEST PUSH0 PUSH1 0x1 DUP4 PUSH2 0xC94 SWAP2 SWAP1 PUSH2 0x22CA JUMP JUMPDEST DUP2 SLOAD DUP2 LT PUSH2 0xCA5 JUMPI PUSH2 0xCA4 PUSH2 0x21F6 JUMP JUMPDEST JUMPDEST SWAP1 PUSH0 MSTORE PUSH1 0x20 PUSH0 KECCAK256 SWAP1 PUSH1 0x5 MUL ADD PUSH1 0x40 MLOAD DUP1 PUSH1 0xA0 ADD PUSH1 0x40 MSTORE SWAP1 DUP2 PUSH0 DUP3 ADD DUP1 SLOAD PUSH2 0xCCB SWAP1 PUSH2 0x21C6 JUMP JUMPDEST DUP1 PUSH1 0x1F ADD PUSH1 0x20 DUP1 SWAP2 DIV MUL PUSH1 0x20 ADD PUSH1 0x40 MLOAD SWAP1 DUP2 ADD PUSH1 0x40 MSTORE DUP1 SWAP3 SWAP2 SWAP1 DUP2 DUP2 MSTORE PUSH1 0x20 ADD DUP3 DUP1 SLOAD PUSH2 0xCF7 SWAP1 PUSH2 0x21C6 JUMP JUMPDEST DUP1 ISZERO PUSH2 0xD42 JUMPI DUP1 PUSH1 0x1F LT PUSH2 0xD19 JUMPI PUSH2 0x100 DUP1 DUP4 SLOAD DIV MUL DUP4 MSTORE SWAP2 PUSH1 0x20 ADD SWAP2 PUSH2 0xD42 JUMP JUMPDEST DUP3 ADD SWAP2 SWAP1 PUSH0 MSTORE PUSH1 0x20 PUSH0 KECCAK256 SWAP1 JUMPDEST DUP2 SLOAD DUP2 MSTORE SWAP1 PUSH1 0x1 ADD SWAP1 PUSH1 0x20 ADD DUP1 DUP4 GT PUSH2 0xD25 JUMPI DUP3 SWAP1 SUB PUSH1 0x1F AND DUP3 ADD SWAP2 JUMPDEST POP POP POP POP POP DUP2 MSTORE PUSH1 0x20 ADD PUSH1 0x1 DUP3 ADD SLOAD DUP2 MSTORE PUSH1 0x20 ADD PUSH1 0x2 DUP3 ADD SLOAD DUP2 MSTORE PUSH1 0x20 ADD PUSH1 0x3 DUP3 ADD DUP1 SLOAD PUSH2 0xD6F SWAP1 PUSH2 0x21C6 JUMP JUMPDEST DUP1 PUSH1 0x1F ADD PUSH1 0x20 DUP1 SWAP2 DIV MUL PUSH1 0x20 ADD PUSH1 0x40 MLOAD SWAP1 DUP2 ADD PUSH1 0x40 MSTORE DUP1 SWAP3 SWAP2 SWAP1 DUP2 DUP2 MSTORE PUSH1 0x20 ADD DUP3 DUP1 SLOAD PUSH2 0xD9B SWAP1 PUSH2 0x21C6 JUMP JUMPDEST DUP1 ISZERO PUSH2 0xDE6 JUMPI DUP1 PUSH1 0x1F LT PUSH2 0xDBD JUMPI PUSH2 0x100 DUP1 DUP4 SLOAD DIV MUL DUP4 MSTORE SWAP2 PUSH1 0x20 ADD SWAP2 PUSH2 0xDE6 JUMP JUMPDEST DUP3 ADD SWAP2 SWAP1 PUSH0 MSTORE PUSH1 0x20 PUSH0 KECCAK256 SWAP1 JUMPDEST DUP2 SLOAD DUP2 MSTORE SWAP1 PUSH1 0x1 ADD SWAP1 PUSH1 0x20 ADD DUP1 DUP4 GT PUSH2 0xDC9 JUMPI DUP3 SWAP1 SUB PUSH1 0x1F AND DUP3 ADD SWAP2 JUMPDEST POP POP POP POP POP DUP2 MSTORE PUSH1 0x20 ADD PUSH1 0x4 DUP3 ADD DUP1 SLOAD DUP1 PUSH1 0x20 MUL PUSH1 0x20 ADD PUSH1 0x40 MLOAD SWAP1 DUP2 ADD PUSH1 0x40 MSTORE DUP1 SWAP3 SWAP2 SWAP1 DUP2 DUP2 MSTORE PUSH1 0x20 ADD PUSH0 SWAP1 JUMPDEST DUP3 DUP3 LT ISZERO PUSH2 0xEBB JUMPI DUP4 DUP3 SWAP1 PUSH0 MSTORE PUSH1 0x20 PUSH0 KECCAK256 ADD DUP1 SLOAD PUSH2 0xE30 SWAP1 PUSH2 0x21C6 JUMP JUMPDEST DUP1 PUSH1 0x1F ADD PUSH1 0x20 DUP1 SWAP2 DIV MUL PUSH1 0x20 ADD PUSH1 0x40 MLOAD SWAP1 DUP2 ADD PUSH1 0x40 MSTORE DUP1 SWAP3 SWAP2 SWAP1 DUP2 DUP2 MSTORE PUSH1 0x20 ADD DUP3 DUP1 SLOAD PUSH2 0xE5C SWAP1 PUSH2 0x21C6 JUMP JUMPDEST DUP1 ISZERO PUSH2 0xEA7 JUMPI DUP1 PUSH1 0x1F LT PUSH2 0xE7E JUMPI PUSH2 0x100 DUP1 DUP4 SLOAD DIV MUL DUP4 MSTORE SWAP2 PUSH1 0x20 ADD SWAP2 PUSH2 0xEA7 JUMP JUMPDEST DUP3 ADD SWAP2 SWAP1 PUSH0 MSTORE PUSH1 0x20 PUSH0 KECCAK256 SWAP1 JUMPDEST DUP2 SLOAD DUP2 MSTORE SWAP1 PUSH1 0x1 ADD SWAP1 PUSH1 0x20 ADD DUP1 DUP4 GT PUSH2 0xE8A JUMPI DUP3 SWAP1 SUB PUSH1 0x1F AND DUP3 ADD SWAP2 JUMPDEST POP POP POP POP POP DUP2 MSTORE PUSH1 0x20 ADD SWAP1 PUSH1 0x1 ADD SWAP1 PUSH2 0xE13 JUMP JUMPDEST POP POP POP POP DUP2 MSTORE POP POP SWAP1 POP SWAP2 SWAP1 POP JUMP JUMPDEST PUSH0 DUP1 PUSH0 JUMPDEST DUP1 PUSH0 DUP1 SLOAD SWAP1 POP GT ISZERO PUSH2 0xF1D JUMPI PUSH0 DUP2 DUP2 SLOAD DUP2 LT PUSH2 0xEED JUMPI PUSH2 0xEEC PUSH2 0x21F6 JUMP JUMPDEST JUMPDEST SWAP1 PUSH0 MSTORE PUSH1 0x20 PUSH0 KECCAK256 SWAP1 PUSH1 0x5 MUL ADD PUSH1 0x2 ADD SLOAD DUP3 PUSH2 0xF08 SWAP2 SWAP1 PUSH2 0x2250 JUMP JUMPDEST SWAP2 POP DUP1 DUP1 PUSH2 0xF15 SWAP1 PUSH2 0x2283 JUMP JUMPDEST SWAP2 POP POP PUSH2 0xECE JUMP JUMPDEST POP PUSH0 DUP1 SLOAD SWAP1 POP DUP2 PUSH2 0xF2E SWAP2 SWAP1 PUSH2 0x232A JUMP JUMPDEST SWAP2 POP POP SWAP1 JUMP JUMPDEST PUSH1 0x60 PUSH1 0x5A DUP4 LT PUSH2 0xF7B JUMPI PUSH1 0x40 MLOAD DUP1 PUSH1 0x40 ADD PUSH1 0x40 MSTORE DUP1 PUSH1 0x1 DUP2 MSTORE PUSH1 0x20 ADD PUSH32 0x4100000000000000000000000000000000000000000000000000000000000000 DUP2 MSTORE POP SWAP1 POP PUSH2 0x1086 JUMP JUMPDEST PUSH1 0x50 DUP4 LT PUSH2 0xFC0 JUMPI PUSH1 0x40 MLOAD DUP1 PUSH1 0x40 ADD PUSH1 0x40 MSTORE DUP1 PUSH1 0x1 DUP2 MSTORE PUSH1 0x20 ADD PUSH32 0x4200000000000000000000000000000000000000000000000000000000000000 DUP2 MSTORE POP SWAP1 POP PUSH2 0x1085 JUMP JUMPDEST PUSH1 0x46 DUP4 LT PUSH2 0x1005 JUMPI PUSH1 0x40 MLOAD DUP1 PUSH1 0x40 ADD PUSH1 0x40 MSTORE DUP1 PUSH1 0x1 DUP2 MSTORE PUSH1 0x20 ADD PUSH32 0x4300000000000000000000000000000000000000000000000000000000000000 DUP2 MSTORE POP SWAP1 POP PUSH2 0x1084 JUMP JUMPDEST PUSH1 0x3C DUP4 LT PUSH2 0x104A JUMPI PUSH1 0x40 MLOAD DUP1 PUSH1 0x40 ADD PUSH1 0x40 MSTORE DUP1 PUSH1 0x1 DUP2 MSTORE PUSH1 0x20 ADD PUSH32 0x4400000000000000000000000000000000000000000000000000000000000000 DUP2 MSTORE POP SWAP1 POP PUSH2 0x1083 JUMP JUMPDEST PUSH1 0x40 MLOAD DUP1 PUSH1 0x40 ADD PUSH1 0x40 MSTORE DUP1 PUSH1 0x1 DUP2 MSTORE PUSH1 0x20 ADD PUSH32 0x4600000000000000000000000000000000000000000000000000000000000000 DUP2 MSTORE POP SWAP1 POP JUMPDEST JUMPDEST JUMPDEST JUMPDEST PUSH1 0x40 MLOAD DUP1 PUSH1 0xA0 ADD PUSH1 0x40 MSTORE DUP1 DUP6 DUP2 MSTORE PUSH1 0x20 ADD PUSH1 0x1 PUSH0 DUP1 SLOAD SWAP1 POP PUSH2 0x10A8 SWAP2 SWAP1 PUSH2 0x2250 JUMP JUMPDEST DUP2 MSTORE PUSH1 0x20 ADD DUP5 DUP2 MSTORE PUSH1 0x20 ADD DUP3 DUP2 MSTORE PUSH1 0x20 ADD DUP4 DUP2 MSTORE POP PUSH1 0x1 DUP6 PUSH1 0x40 MLOAD PUSH2 0x10CD SWAP2 SWAP1 PUSH2 0x2394 JUMP JUMPDEST SWAP1 DUP2 MSTORE PUSH1 0x20 ADD PUSH1 0x40 MLOAD DUP1 SWAP2 SUB SWAP1 KECCAK256 PUSH0 DUP3 ADD MLOAD DUP2 PUSH0 ADD SWAP1 DUP2 PUSH2 0x10EE SWAP2 SWAP1 PUSH2 0x2547 JUMP JUMPDEST POP PUSH1 0x20 DUP3 ADD MLOAD DUP2 PUSH1 0x1 ADD SSTORE PUSH1 0x40 DUP3 ADD MLOAD DUP2 PUSH1 0x2 ADD SSTORE PUSH1 0x60 DUP3 ADD MLOAD DUP2 PUSH1 0x3 ADD SWAP1 DUP2 PUSH2 0x1118 SWAP2 SWAP1 PUSH2 0x2547 JUMP JUMPDEST POP PUSH1 0x80 DUP3 ADD MLOAD DUP2 PUSH1 0x4 ADD SWAP1 DUP1 MLOAD SWAP1 PUSH1 0x20 ADD SWAP1 PUSH2 0x1135 SWAP3 SWAP2 SWAP1 PUSH2 0x1962 JUMP JUMPDEST POP SWAP1 POP POP PUSH0 PUSH1 0x1 DUP6 PUSH1 0x40 MLOAD PUSH2 0x114A SWAP2 SWAP1 PUSH2 0x2394 JUMP JUMPDEST SWAP1 DUP2 MSTORE PUSH1 0x20 ADD PUSH1 0x40 MLOAD DUP1 SWAP2 SUB SWAP1 KECCAK256 SWAP1 DUP1 PUSH1 0x1 DUP2 SLOAD ADD DUP1 DUP3 SSTORE DUP1 SWAP2 POP POP PUSH1 0x1 SWAP1 SUB SWAP1 PUSH0 MSTORE PUSH1 0x20 PUSH0 KECCAK256 SWAP1 PUSH1 0x5 MUL ADD PUSH0 SWAP1 SWAP2 SWAP1 SWAP2 SWAP1 SWAP2 POP PUSH0 DUP3 ADD DUP2 PUSH0 ADD SWAP1 DUP2 PUSH2 0x1190 SWAP2 SWAP1 PUSH2 0x262B JUMP JUMPDEST POP PUSH1 0x1 DUP3 ADD SLOAD DUP2 PUSH1 0x1 ADD SSTORE PUSH1 0x2 DUP3 ADD SLOAD DUP2 PUSH1 0x2 ADD SSTORE PUSH1 0x3 DUP3 ADD DUP2 PUSH1 0x3 ADD SWAP1 DUP2 PUSH2 0x11B9 SWAP2 SWAP1 PUSH2 0x262B JUMP JUMPDEST POP PUSH1 0x4 DUP3 ADD DUP2 PUSH1 0x4 ADD SWAP1 DUP1 SLOAD PUSH2 0x11D0 SWAP3 SWAP2 SWAP1 PUSH2 0x19B9 JUMP JUMPDEST POP POP POP POP POP POP POP JUMP JUMPDEST PUSH0 DUP1 PUSH2 0x11E3 PUSH2 0xECA JUMP JUMPDEST SWAP1 POP PUSH1 0x46 DUP2 LT PUSH2 0x11F7 JUMPI PUSH1 0x1 SWAP2 POP POP PUSH2 0x11FC JUMP JUMPDEST PUSH0 SWAP2 POP POP JUMPDEST SWAP1 JUMP JUMPDEST PUSH0 DUP1 PUSH1 0x1 DUP4 PUSH1 0x40 MLOAD PUSH2 0x1211 SWAP2 SWAP1 PUSH2 0x2394 JUMP JUMPDEST SWAP1 DUP2 MSTORE PUSH1 0x20 ADD PUSH1 0x40 MLOAD DUP1 SWAP2 SUB SWAP1 KECCAK256 PUSH1 0x40 MLOAD DUP1 PUSH1 0xA0 ADD PUSH1 0x40 MSTORE SWAP1 DUP2 PUSH0 DUP3 ADD DUP1 SLOAD PUSH2 0x1239 SWAP1 PUSH2 0x21C6 JUMP JUMPDEST DUP1 PUSH1 0x1F ADD PUSH1 0x20 DUP1 SWAP2 DIV MUL PUSH1 0x20 ADD PUSH1 0x40 MLOAD SWAP1 DUP2 ADD PUSH1 0x40 MSTORE DUP1 SWAP3 SWAP2 SWAP1 DUP2 DUP2 MSTORE PUSH1 0x20 ADD DUP3 DUP1 SLOAD PUSH2 0x1265 SWAP1 PUSH2 0x21C6 JUMP JUMPDEST DUP1 ISZERO PUSH2 0x12B0 JUMPI DUP1 PUSH1 0x1F LT PUSH2 0x1287 JUMPI PUSH2 0x100 DUP1 DUP4 SLOAD DIV MUL DUP4 MSTORE SWAP2 PUSH1 0x20 ADD SWAP2 PUSH2 0x12B0 JUMP JUMPDEST DUP3 ADD SWAP2 SWAP1 PUSH0 MSTORE PUSH1 0x20 PUSH0 KECCAK256 SWAP1 JUMPDEST DUP2 SLOAD DUP2 MSTORE SWAP1 PUSH1 0x1 ADD SWAP1 PUSH1 0x20 ADD DUP1 DUP4 GT PUSH2 0x1293 JUMPI DUP3 SWAP1 SUB PUSH1 0x1F AND DUP3 ADD SWAP2 JUMPDEST POP POP POP POP POP DUP2 MSTORE PUSH1 0x20 ADD PUSH1 0x1 DUP3 ADD SLOAD DUP2 MSTORE PUSH1 0x20 ADD PUSH1 0x2 DUP3 ADD SLOAD DUP2 MSTORE PUSH1 0x20 ADD PUSH1 0x3 DUP3 ADD DUP1 SLOAD PUSH2 0x12DD SWAP1 PUSH2 0x21C6 JUMP JUMPDEST DUP1 PUSH1 0x1F ADD PUSH1 0x20 DUP1 SWAP2 DIV MUL PUSH1 0x20 ADD PUSH1 0x40 MLOAD SWAP1 DUP2 ADD PUSH1 0x40 MSTORE DUP1 SWAP3 SWAP2 SWAP1 DUP2 DUP2 MSTORE PUSH1 0x20 ADD DUP3 DUP1 SLOAD PUSH2 0x1309 SWAP1 PUSH2 0x21C6 JUMP JUMPDEST DUP1 ISZERO PUSH2 0x1354 JUMPI DUP1 PUSH1 0x1F LT PUSH2 0x132B JUMPI PUSH2 0x100 DUP1 DUP4 SLOAD DIV MUL DUP4 MSTORE SWAP2 PUSH1 0x20 ADD SWAP2 PUSH2 0x1354 JUMP JUMPDEST DUP3 ADD SWAP2 SWAP1 PUSH0 MSTORE PUSH1 0x20 PUSH0 KECCAK256 SWAP1 JUMPDEST DUP2 SLOAD DUP2 MSTORE SWAP1 PUSH1 0x1 ADD SWAP1 PUSH1 0x20 ADD DUP1 DUP4 GT PUSH2 0x1337 JUMPI DUP3 SWAP1 SUB PUSH1 0x1F AND DUP3 ADD SWAP2 JUMPDEST POP POP POP POP POP DUP2 MSTORE PUSH1 0x20 ADD PUSH1 0x4 DUP3 ADD DUP1 SLOAD DUP1 PUSH1 0x20 MUL PUSH1 0x20 ADD PUSH1 0x40 MLOAD SWAP1 DUP2 ADD PUSH1 0x40 MSTORE DUP1 SWAP3 SWAP2 SWAP1 DUP2 DUP2 MSTORE PUSH1 0x20 ADD PUSH0 SWAP1 JUMPDEST DUP3 DUP3 LT ISZERO PUSH2 0x1429 JUMPI DUP4 DUP3 SWAP1 PUSH0 MSTORE PUSH1 0x20 PUSH0 KECCAK256 ADD DUP1 SLOAD PUSH2 0x139E SWAP1 PUSH2 0x21C6 JUMP JUMPDEST DUP1 PUSH1 0x1F ADD PUSH1 0x20 DUP1 SWAP2 DIV MUL PUSH1 0x20 ADD PUSH1 0x40 MLOAD SWAP1 DUP2 ADD PUSH1 0x40 MSTORE DUP1 SWAP3 SWAP2 SWAP1 DUP2 DUP2 MSTORE PUSH1 0x20 ADD DUP3 DUP1 SLOAD PUSH2 0x13CA SWAP1 PUSH2 0x21C6 JUMP JUMPDEST DUP1 ISZERO PUSH2 0x1415 JUMPI DUP1 PUSH1 0x1F LT PUSH2 0x13EC JUMPI PUSH2 0x100 DUP1 DUP4 SLOAD DIV MUL DUP4 MSTORE SWAP2 PUSH1 0x20 ADD SWAP2 PUSH2 0x1415 JUMP JUMPDEST DUP3 ADD SWAP2 SWAP1 PUSH0 MSTORE PUSH1 0x20 PUSH0 KECCAK256 SWAP1 JUMPDEST DUP2 SLOAD DUP2 MSTORE SWAP1 PUSH1 0x1 ADD SWAP1 PUSH1 0x20 ADD DUP1 DUP4 GT PUSH2 0x13F8 JUMPI DUP3 SWAP1 SUB PUSH1 0x1F AND DUP3 ADD SWAP2 JUMPDEST POP POP POP POP POP DUP2 MSTORE PUSH1 0x20 ADD SWAP1 PUSH1 0x1 ADD SWAP1 PUSH2 0x1381 JUMP JUMPDEST POP POP POP POP DUP2 MSTORE POP POP SWAP1 POP PUSH0 DUP2 PUSH1 0x40 ADD MLOAD SWAP1 POP DUP1 SWAP3 POP POP POP SWAP2 SWAP1 POP JUMP JUMPDEST PUSH2 0x144D PUSH2 0x1935 JUMP JUMPDEST PUSH1 0x1 DUP3 PUSH1 0x40 MLOAD PUSH2 0x145D SWAP2 SWAP1 PUSH2 0x2394 JUMP JUMPDEST SWAP1 DUP2 MSTORE PUSH1 0x20 ADD PUSH1 0x40 MLOAD DUP1 SWAP2 SUB SWAP1 KECCAK256 PUSH1 0x40 MLOAD DUP1 PUSH1 0xA0 ADD PUSH1 0x40 MSTORE SWAP1 DUP2 PUSH0 DUP3 ADD DUP1 SLOAD PUSH2 0x1485 SWAP1 PUSH2 0x21C6 JUMP JUMPDEST DUP1 PUSH1 0x1F ADD PUSH1 0x20 DUP1 SWAP2 DIV MUL PUSH1 0x20 ADD PUSH1 0x40 MLOAD SWAP1 DUP2 ADD PUSH1 0x40 MSTORE DUP1 SWAP3 SWAP2 SWAP1 DUP2 DUP2 MSTORE PUSH1 0x20 ADD DUP3 DUP1 SLOAD PUSH2 0x14B1 SWAP1 PUSH2 0x21C6 JUMP JUMPDEST DUP1 ISZERO PUSH2 0x14FC JUMPI DUP1 PUSH1 0x1F LT PUSH2 0x14D3 JUMPI PUSH2 0x100 DUP1 DUP4 SLOAD DIV MUL DUP4 MSTORE SWAP2 PUSH1 0x20 ADD SWAP2 PUSH2 0x14FC JUMP JUMPDEST DUP3 ADD SWAP2 SWAP1 PUSH0 MSTORE PUSH1 0x20 PUSH0 KECCAK256 SWAP1 JUMPDEST DUP2 SLOAD DUP2 MSTORE SWAP1 PUSH1 0x1 ADD SWAP1 PUSH1 0x20 ADD DUP1 DUP4 GT PUSH2 0x14DF JUMPI DUP3 SWAP1 SUB PUSH1 0x1F AND DUP3 ADD SWAP2 JUMPDEST POP POP POP POP POP DUP2 MSTORE PUSH1 0x20 ADD PUSH1 0x1 DUP3 ADD SLOAD DUP2 MSTORE PUSH1 0x20 ADD PUSH1 0x2 DUP3 ADD SLOAD DUP2 MSTORE PUSH1 0x20 ADD PUSH1 0x3 DUP3 ADD DUP1 SLOAD PUSH2 0x1529 SWAP1 PUSH2 0x21C6 JUMP JUMPDEST DUP1 PUSH1 0x1F ADD PUSH1 0x20 DUP1 SWAP2 DIV MUL PUSH1 0x20 ADD PUSH1 0x40 MLOAD SWAP1 DUP2 ADD PUSH1 0x40 MSTORE DUP1 SWAP3 SWAP2 SWAP1 DUP2 DUP2 MSTORE PUSH1 0x20 ADD DUP3 DUP1 SLOAD PUSH2 0x1555 SWAP1 PUSH2 0x21C6 JUMP JUMPDEST DUP1 ISZERO PUSH2 0x15A0 JUMPI DUP1 PUSH1 0x1F LT PUSH2 0x1577 JUMPI PUSH2 0x100 DUP1 DUP4 SLOAD DIV MUL DUP4 MSTORE SWAP2 PUSH1 0x20 ADD SWAP2 PUSH2 0x15A0 JUMP JUMPDEST DUP3 ADD SWAP2 SWAP1 PUSH0 MSTORE PUSH1 0x20 PUSH0 KECCAK256 SWAP1 JUMPDEST DUP2 SLOAD DUP2 MSTORE SWAP1 PUSH1 0x1 ADD SWAP1 PUSH1 0x20 ADD DUP1 DUP4 GT PUSH2 0x1583 JUMPI DUP3 SWAP1 SUB PUSH1 0x1F AND DUP3 ADD SWAP2 JUMPDEST POP POP POP POP POP DUP2 MSTORE PUSH1 0x20 ADD PUSH1 0x4 DUP3 ADD DUP1 SLOAD DUP1 PUSH1 0x20 MUL PUSH1 0x20 ADD PUSH1 0x40 MLOAD SWAP1 DUP2 ADD PUSH1 0x40 MSTORE DUP1 SWAP3 SWAP2 SWAP1 DUP2 DUP2 MSTORE PUSH1 0x20 ADD PUSH0 SWAP1 JUMPDEST DUP3 DUP3 LT ISZERO PUSH2 0x1675 JUMPI DUP4 DUP3 SWAP1 PUSH0 MSTORE PUSH1 0x20 PUSH0 KECCAK256 ADD DUP1 SLOAD PUSH2 0x15EA SWAP1 PUSH2 0x21C6 JUMP JUMPDEST DUP1 PUSH1 0x1F ADD PUSH1 0x20 DUP1 SWAP2 DIV MUL PUSH1 0x20 ADD PUSH1 0x40 MLOAD SWAP1 DUP2 ADD PUSH1 0x40 MSTORE DUP1 SWAP3 SWAP2 SWAP1 DUP2 DUP2 MSTORE PUSH1 0x20 ADD DUP3 DUP1 SLOAD PUSH2 0x1616 SWAP1 PUSH2 0x21C6 JUMP JUMPDEST DUP1 ISZERO PUSH2 0x1661 JUMPI DUP1 PUSH1 0x1F LT PUSH2 0x1638 JUMPI PUSH2 0x100 DUP1 DUP4 SLOAD DIV MUL DUP4 MSTORE SWAP2 PUSH1 0x20 ADD SWAP2 PUSH2 0x1661 JUMP JUMPDEST DUP3 ADD SWAP2 SWAP1 PUSH0 MSTORE PUSH1 0x20 PUSH0 KECCAK256 SWAP1 JUMPDEST DUP2 SLOAD DUP2 MSTORE SWAP1 PUSH1 0x1 ADD SWAP1 PUSH1 0x20 ADD DUP1 DUP4 GT PUSH2 0x1644 JUMPI DUP3 SWAP1 SUB PUSH1 0x1F AND DUP3 ADD SWAP2 JUMPDEST POP POP POP POP POP DUP2 MSTORE PUSH1 0x20 ADD SWAP1 PUSH1 0x1 ADD SWAP1 PUSH2 0x15CD JUMP JUMPDEST POP POP POP POP DUP2 MSTORE POP POP SWAP1 POP SWAP2 SWAP1 POP JUMP JUMPDEST PUSH0 PUSH1 0x1 PUSH8 0xFFFFFFFFFFFFFFFF DUP2 GT ISZERO PUSH2 0x16A0 JUMPI PUSH2 0x169F PUSH2 0x1E91 JUMP JUMPDEST JUMPDEST PUSH1 0x40 MLOAD SWAP1 DUP1 DUP3 MSTORE DUP1 PUSH1 0x20 MUL PUSH1 0x20 ADD DUP3 ADD PUSH1 0x40 MSTORE DUP1 ISZERO PUSH2 0x16D3 JUMPI DUP2 PUSH1 0x20 ADD JUMPDEST PUSH1 0x60 DUP2 MSTORE PUSH1 0x20 ADD SWAP1 PUSH1 0x1 SWAP1 SUB SWAP1 DUP2 PUSH2 0x16BE JUMPI SWAP1 POP JUMPDEST POP SWAP1 POP PUSH1 0x40 MLOAD DUP1 PUSH1 0x40 ADD PUSH1 0x40 MSTORE DUP1 PUSH1 0x1 DUP2 MSTORE PUSH1 0x20 ADD PUSH32 0x6100000000000000000000000000000000000000000000000000000000000000 DUP2 MSTORE POP DUP2 PUSH0 DUP2 MLOAD DUP2 LT PUSH2 0x171F JUMPI PUSH2 0x171E PUSH2 0x21F6 JUMP JUMPDEST JUMPDEST PUSH1 0x20 MUL PUSH1 0x20 ADD ADD DUP2 SWAP1 MSTORE POP PUSH2 0x176B PUSH1 0x40 MLOAD DUP1 PUSH1 0x40 ADD PUSH1 0x40 MSTORE DUP1 PUSH1 0x3 DUP2 MSTORE PUSH1 0x20 ADD PUSH32 0x6D696E0000000000000000000000000000000000000000000000000000000000 DUP2 MSTORE POP PUSH1 0x64 DUP4 PUSH2 0xF34 JUMP JUMPDEST PUSH2 0x17AC PUSH1 0x40 MLOAD DUP1 PUSH1 0x40 ADD PUSH1 0x40 MSTORE DUP1 PUSH1 0x3 DUP2 MSTORE PUSH1 0x20 ADD PUSH32 0x6B696E0000000000000000000000000000000000000000000000000000000000 DUP2 MSTORE POP PUSH1 0x64 DUP4 PUSH2 0xF34 JUMP JUMPDEST PUSH2 0x17ED PUSH1 0x40 MLOAD DUP1 PUSH1 0x40 ADD PUSH1 0x40 MSTORE DUP1 PUSH1 0x3 DUP2 MSTORE PUSH1 0x20 ADD PUSH32 0x6A696E0000000000000000000000000000000000000000000000000000000000 DUP2 MSTORE POP PUSH1 0x28 DUP4 PUSH2 0xF34 JUMP JUMPDEST PUSH2 0x182E PUSH1 0x40 MLOAD DUP1 PUSH1 0x40 ADD PUSH1 0x40 MSTORE DUP1 PUSH1 0x3 DUP2 MSTORE PUSH1 0x20 ADD PUSH32 0x6C696E0000000000000000000000000000000000000000000000000000000000 DUP2 MSTORE POP PUSH1 0x28 DUP4 PUSH2 0xF34 JUMP JUMPDEST PUSH2 0x186F PUSH1 0x40 MLOAD DUP1 PUSH1 0x40 ADD PUSH1 0x40 MSTORE DUP1 PUSH1 0x3 DUP2 MSTORE PUSH1 0x20 ADD PUSH32 0x61696E0000000000000000000000000000000000000000000000000000000000 DUP2 MSTORE POP PUSH1 0x3C DUP4 PUSH2 0xF34 JUMP JUMPDEST PUSH2 0x18B0 PUSH1 0x40 MLOAD DUP1 PUSH1 0x40 ADD PUSH1 0x40 MSTORE DUP1 PUSH1 0x3 DUP2 MSTORE PUSH1 0x20 ADD PUSH32 0x64696E0000000000000000000000000000000000000000000000000000000000 DUP2 MSTORE POP PUSH1 0x3C DUP4 PUSH2 0xF34 JUMP JUMPDEST PUSH2 0x18F1 PUSH1 0x40 MLOAD DUP1 PUSH1 0x40 ADD PUSH1 0x40 MSTORE DUP1 PUSH1 0x3 DUP2 MSTORE PUSH1 0x20 ADD PUSH32 0x63696E0000000000000000000000000000000000000000000000000000000000 DUP2 MSTORE POP PUSH1 0x32 DUP4 PUSH2 0xF34 JUMP JUMPDEST PUSH2 0x1932 PUSH1 0x40 MLOAD DUP1 PUSH1 0x40 ADD PUSH1 0x40 MSTORE DUP1 PUSH1 0x3 DUP2 MSTORE PUSH1 0x20 ADD PUSH32 0x71696E0000000000000000000000000000000000000000000000000000000000 DUP2 MSTORE POP PUSH1 0x32 DUP4 PUSH2 0xF34 JUMP JUMPDEST POP JUMP JUMPDEST PUSH1 0x40 MLOAD DUP1 PUSH1 0xA0 ADD PUSH1 0x40 MSTORE DUP1 PUSH1 0x60 DUP2 MSTORE PUSH1 0x20 ADD PUSH0 DUP2 MSTORE PUSH1 0x20 ADD PUSH0 DUP2 MSTORE PUSH1 0x20 ADD PUSH1 0x60 DUP2 MSTORE PUSH1 0x20 ADD PUSH1 0x60 DUP2 MSTORE POP SWAP1 JUMP JUMPDEST DUP3 DUP1 SLOAD DUP3 DUP3 SSTORE SWAP1 PUSH0 MSTORE PUSH1 0x20 PUSH0 KECCAK256 SWAP1 DUP2 ADD SWAP3 DUP3 ISZERO PUSH2 0x19A8 JUMPI SWAP2 PUSH1 0x20 MUL DUP3 ADD JUMPDEST DUP3 DUP2 GT ISZERO PUSH2 0x19A7 JUMPI DUP3 MLOAD DUP3 SWAP1 DUP2 PUSH2 0x1997 SWAP2 SWAP1 PUSH2 0x2547 JUMP JUMPDEST POP SWAP2 PUSH1 0x20 ADD SWAP2 SWAP1 PUSH1 0x1 ADD SWAP1 PUSH2 0x1980 JUMP JUMPDEST JUMPDEST POP SWAP1 POP PUSH2 0x19B5 SWAP2 SWAP1 PUSH2 0x1A12 JUMP JUMPDEST POP SWAP1 JUMP JUMPDEST DUP3 DUP1 SLOAD DUP3 DUP3 SSTORE SWAP1 PUSH0 MSTORE PUSH1 0x20 PUSH0 KECCAK256 SWAP1 DUP2 ADD SWAP3 DUP3 ISZERO PUSH2 0x1A01 JUMPI PUSH0 MSTORE PUSH1 0x20 PUSH0 KECCAK256 SWAP2 DUP3 ADD JUMPDEST DUP3 DUP2 GT ISZERO PUSH2 0x1A00 JUMPI DUP3 DUP3 SWAP1 DUP2 PUSH2 0x19F0 SWAP2 SWAP1 PUSH2 0x262B JUMP JUMPDEST POP SWAP2 PUSH1 0x1 ADD SWAP2 SWAP1 PUSH1 0x1 ADD SWAP1 PUSH2 0x19DA JUMP JUMPDEST JUMPDEST POP SWAP1 POP PUSH2 0x1A0E SWAP2 SWAP1 PUSH2 0x1A12 JUMP JUMPDEST POP SWAP1 JUMP JUMPDEST JUMPDEST DUP1 DUP3 GT ISZERO PUSH2 0x1A31 JUMPI PUSH0 DUP2 DUP2 PUSH2 0x1A28 SWAP2 SWAP1 PUSH2 0x1A35 JUMP JUMPDEST POP PUSH1 0x1 ADD PUSH2 0x1A13 JUMP JUMPDEST POP SWAP1 JUMP JUMPDEST POP DUP1 SLOAD PUSH2 0x1A41 SWAP1 PUSH2 0x21C6 JUMP JUMPDEST PUSH0 DUP3 SSTORE DUP1 PUSH1 0x1F LT PUSH2 0x1A52 JUMPI POP PUSH2 0x1A6F JUMP JUMPDEST PUSH1 0x1F ADD PUSH1 0x20 SWAP1 DIV SWAP1 PUSH0 MSTORE PUSH1 0x20 PUSH0 KECCAK256 SWAP1 DUP2 ADD SWAP1 PUSH2 0x1A6E SWAP2 SWAP1 PUSH2 0x1A72 JUMP JUMPDEST JUMPDEST POP JUMP JUMPDEST JUMPDEST DUP1 DUP3 GT ISZERO PUSH2 0x1A89 JUMPI PUSH0 DUP2 PUSH0 SWAP1 SSTORE POP PUSH1 0x1 ADD PUSH2 0x1A73 JUMP JUMPDEST POP SWAP1 JUMP JUMPDEST PUSH0 DUP2 MLOAD SWAP1 POP SWAP2 SWAP1 POP JUMP JUMPDEST PUSH0 DUP3 DUP3 MSTORE PUSH1 0x20 DUP3 ADD SWAP1 POP SWAP3 SWAP2 POP POP JUMP JUMPDEST PUSH0 DUP2 SWAP1 POP PUSH1 0x20 DUP3 ADD SWAP1 POP SWAP2 SWAP1 POP JUMP JUMPDEST PUSH0 DUP2 MLOAD SWAP1 POP SWAP2 SWAP1 POP JUMP JUMPDEST PUSH0 DUP3 DUP3 MSTORE PUSH1 0x20 DUP3 ADD SWAP1 POP SWAP3 SWAP2 POP POP JUMP JUMPDEST DUP3 DUP2 DUP4 MCOPY PUSH0 DUP4 DUP4 ADD MSTORE POP POP POP JUMP JUMPDEST PUSH0 PUSH1 0x1F NOT PUSH1 0x1F DUP4 ADD AND SWAP1 POP SWAP2 SWAP1 POP JUMP JUMPDEST PUSH0 PUSH2 0x1AF8 DUP3 PUSH2 0x1AB6 JUMP JUMPDEST PUSH2 0x1B02 DUP2 DUP6 PUSH2 0x1AC0 JUMP JUMPDEST SWAP4 POP PUSH2 0x1B12 DUP2 DUP6 PUSH1 0x20 DUP7 ADD PUSH2 0x1AD0 JUMP JUMPDEST PUSH2 0x1B1B DUP2 PUSH2 0x1ADE JUMP JUMPDEST DUP5 ADD SWAP2 POP POP SWAP3 SWAP2 POP POP JUMP JUMPDEST PUSH0 DUP2 SWAP1 POP SWAP2 SWAP1 POP JUMP JUMPDEST PUSH2 0x1B38 DUP2 PUSH2 0x1B26 JUMP JUMPDEST DUP3 MSTORE POP POP JUMP JUMPDEST PUSH0 DUP2 MLOAD SWAP1 POP SWAP2 SWAP1 POP JUMP JUMPDEST PUSH0 DUP3 DUP3 MSTORE PUSH1 0x20 DUP3 ADD SWAP1 POP SWAP3 SWAP2 POP POP JUMP JUMPDEST PUSH0 DUP2 SWAP1 POP PUSH1 0x20 DUP3 ADD SWAP1 POP SWAP2 SWAP1 POP JUMP JUMPDEST PUSH0 PUSH2 0x1B72 DUP4 DUP4 PUSH2 0x1AEE JUMP JUMPDEST SWAP1 POP SWAP3 SWAP2 POP POP JUMP JUMPDEST PUSH0 PUSH1 0x20 DUP3 ADD SWAP1 POP SWAP2 SWAP1 POP JUMP JUMPDEST PUSH0 PUSH2 0x1B90 DUP3 PUSH2 0x1B3E JUMP JUMPDEST PUSH2 0x1B9A DUP2 DUP6 PUSH2 0x1B48 JUMP JUMPDEST SWAP4 POP DUP4 PUSH1 0x20 DUP3 MUL DUP6 ADD PUSH2 0x1BAC DUP6 PUSH2 0x1B58 JUMP JUMPDEST DUP1 PUSH0 JUMPDEST DUP6 DUP2 LT ISZERO PUSH2 0x1BE7 JUMPI DUP5 DUP5 SUB DUP10 MSTORE DUP2 MLOAD PUSH2 0x1BC8 DUP6 DUP3 PUSH2 0x1B67 JUMP JUMPDEST SWAP5 POP PUSH2 0x1BD3 DUP4 PUSH2 0x1B7A JUMP JUMPDEST SWAP3 POP PUSH1 0x20 DUP11 ADD SWAP10 POP POP PUSH1 0x1 DUP2 ADD SWAP1 POP PUSH2 0x1BAF JUMP JUMPDEST POP DUP3 SWAP8 POP DUP8 SWAP6 POP POP POP POP POP POP SWAP3 SWAP2 POP POP JUMP JUMPDEST PUSH0 PUSH1 0xA0 DUP4 ADD PUSH0 DUP4 ADD MLOAD DUP5 DUP3 SUB PUSH0 DUP7 ADD MSTORE PUSH2 0x1C13 DUP3 DUP3 PUSH2 0x1AEE JUMP JUMPDEST SWAP2 POP POP PUSH1 0x20 DUP4 ADD MLOAD PUSH2 0x1C28 PUSH1 0x20 DUP7 ADD DUP3 PUSH2 0x1B2F JUMP JUMPDEST POP PUSH1 0x40 DUP4 ADD MLOAD PUSH2 0x1C3B PUSH1 0x40 DUP7 ADD DUP3 PUSH2 0x1B2F JUMP JUMPDEST POP PUSH1 0x60 DUP4 ADD MLOAD DUP5 DUP3 SUB PUSH1 0x60 DUP7 ADD MSTORE PUSH2 0x1C53 DUP3 DUP3 PUSH2 0x1AEE JUMP JUMPDEST SWAP2 POP POP PUSH1 0x80 DUP4 ADD MLOAD DUP5 DUP3 SUB PUSH1 0x80 DUP7 ADD MSTORE PUSH2 0x1C6D DUP3 DUP3 PUSH2 0x1B86 JUMP JUMPDEST SWAP2 POP POP DUP1 SWAP2 POP POP SWAP3 SWAP2 POP POP JUMP JUMPDEST PUSH0 PUSH2 0x1C85 DUP4 DUP4 PUSH2 0x1BF9 JUMP JUMPDEST SWAP1 POP SWAP3 SWAP2 POP POP JUMP JUMPDEST PUSH0 PUSH1 0x20 DUP3 ADD SWAP1 POP SWAP2 SWAP1 POP JUMP JUMPDEST PUSH0 PUSH2 0x1CA3 DUP3 PUSH2 0x1A8D JUMP JUMPDEST PUSH2 0x1CAD DUP2 DUP6 PUSH2 0x1A97 JUMP JUMPDEST SWAP4 POP DUP4 PUSH1 0x20 DUP3 MUL DUP6 ADD PUSH2 0x1CBF DUP6 PUSH2 0x1AA7 JUMP JUMPDEST DUP1 PUSH0 JUMPDEST DUP6 DUP2 LT ISZERO PUSH2 0x1CFA JUMPI DUP5 DUP5 SUB DUP10 MSTORE DUP2 MLOAD PUSH2 0x1CDB DUP6 DUP3 PUSH2 0x1C7A JUMP JUMPDEST SWAP5 POP PUSH2 0x1CE6 DUP4 PUSH2 0x1C8D JUMP JUMPDEST SWAP3 POP PUSH1 0x20 DUP11 ADD SWAP10 POP POP PUSH1 0x1 DUP2 ADD SWAP1 POP PUSH2 0x1CC2 JUMP JUMPDEST POP DUP3 SWAP8 POP DUP8 SWAP6 POP POP POP POP POP POP SWAP3 SWAP2 POP POP JUMP JUMPDEST PUSH0 PUSH1 0x20 DUP3 ADD SWAP1 POP DUP2 DUP2 SUB PUSH0 DUP4 ADD MSTORE PUSH2 0x1D24 DUP2 DUP5 PUSH2 0x1C99 JUMP JUMPDEST SWAP1 POP SWAP3 SWAP2 POP POP JUMP JUMPDEST PUSH2 0x1D35 DUP2 PUSH2 0x1B26 JUMP JUMPDEST DUP3 MSTORE POP POP JUMP JUMPDEST PUSH0 PUSH1 0x40 DUP3 ADD SWAP1 POP PUSH2 0x1D4E PUSH0 DUP4 ADD DUP6 PUSH2 0x1D2C JUMP JUMPDEST DUP2 DUP2 SUB PUSH1 0x20 DUP4 ADD MSTORE PUSH2 0x1D60 DUP2 DUP5 PUSH2 0x1C99 JUMP JUMPDEST SWAP1 POP SWAP4 SWAP3 POP POP POP JUMP JUMPDEST PUSH0 PUSH1 0x20 DUP3 ADD SWAP1 POP PUSH2 0x1D7C PUSH0 DUP4 ADD DUP5 PUSH2 0x1D2C JUMP JUMPDEST SWAP3 SWAP2 POP POP JUMP JUMPDEST PUSH0 PUSH1 0x40 MLOAD SWAP1 POP SWAP1 JUMP JUMPDEST PUSH0 DUP1 REVERT JUMPDEST PUSH0 DUP1 REVERT JUMPDEST PUSH2 0x1D9C DUP2 PUSH2 0x1B26 JUMP JUMPDEST DUP2 EQ PUSH2 0x1DA6 JUMPI PUSH0 DUP1 REVERT JUMPDEST POP JUMP JUMPDEST PUSH0 DUP2 CALLDATALOAD SWAP1 POP PUSH2 0x1DB7 DUP2 PUSH2 0x1D93 JUMP JUMPDEST SWAP3 SWAP2 POP POP JUMP JUMPDEST PUSH0 PUSH1 0x20 DUP3 DUP5 SUB SLT ISZERO PUSH2 0x1DD2 JUMPI PUSH2 0x1DD1 PUSH2 0x1D8B JUMP JUMPDEST JUMPDEST PUSH0 PUSH2 0x1DDF DUP5 DUP3 DUP6 ADD PUSH2 0x1DA9 JUMP JUMPDEST SWAP2 POP POP SWAP3 SWAP2 POP POP JUMP JUMPDEST PUSH0 PUSH1 0xA0 DUP4 ADD PUSH0 DUP4 ADD MLOAD DUP5 DUP3 SUB PUSH0 DUP7 ADD MSTORE PUSH2 0x1E02 DUP3 DUP3 PUSH2 0x1AEE JUMP JUMPDEST SWAP2 POP POP PUSH1 0x20 DUP4 ADD MLOAD PUSH2 0x1E17 PUSH1 0x20 DUP7 ADD DUP3 PUSH2 0x1B2F JUMP JUMPDEST POP PUSH1 0x40 DUP4 ADD MLOAD PUSH2 0x1E2A PUSH1 0x40 DUP7 ADD DUP3 PUSH2 0x1B2F JUMP JUMPDEST POP PUSH1 0x60 DUP4 ADD MLOAD DUP5 DUP3 SUB PUSH1 0x60 DUP7 ADD MSTORE PUSH2 0x1E42 DUP3 DUP3 PUSH2 0x1AEE JUMP JUMPDEST SWAP2 POP POP PUSH1 0x80 DUP4 ADD MLOAD DUP5 DUP3 SUB PUSH1 0x80 DUP7 ADD MSTORE PUSH2 0x1E5C DUP3 DUP3 PUSH2 0x1B86 JUMP JUMPDEST SWAP2 POP POP DUP1 SWAP2 POP POP SWAP3 SWAP2 POP POP JUMP JUMPDEST PUSH0 PUSH1 0x20 DUP3 ADD SWAP1 POP DUP2 DUP2 SUB PUSH0 DUP4 ADD MSTORE PUSH2 0x1E81 DUP2 DUP5 PUSH2 0x1DE8 JUMP JUMPDEST SWAP1 POP SWAP3 SWAP2 POP POP JUMP JUMPDEST PUSH0 DUP1 REVERT JUMPDEST PUSH0 DUP1 REVERT JUMPDEST PUSH32 0x4E487B7100000000000000000000000000000000000000000000000000000000 PUSH0 MSTORE PUSH1 0x41 PUSH1 0x4 MSTORE PUSH1 0x24 PUSH0 REVERT JUMPDEST PUSH2 0x1EC7 DUP3 PUSH2 0x1ADE JUMP JUMPDEST DUP2 ADD DUP2 DUP2 LT PUSH8 0xFFFFFFFFFFFFFFFF DUP3 GT OR ISZERO PUSH2 0x1EE6 JUMPI PUSH2 0x1EE5 PUSH2 0x1E91 JUMP JUMPDEST JUMPDEST DUP1 PUSH1 0x40 MSTORE POP POP POP JUMP JUMPDEST PUSH0 PUSH2 0x1EF8 PUSH2 0x1D82 JUMP JUMPDEST SWAP1 POP PUSH2 0x1F04 DUP3 DUP3 PUSH2 0x1EBE JUMP JUMPDEST SWAP2 SWAP1 POP JUMP JUMPDEST PUSH0 PUSH8 0xFFFFFFFFFFFFFFFF DUP3 GT ISZERO PUSH2 0x1F23 JUMPI PUSH2 0x1F22 PUSH2 0x1E91 JUMP JUMPDEST JUMPDEST PUSH2 0x1F2C DUP3 PUSH2 0x1ADE JUMP JUMPDEST SWAP1 POP PUSH1 0x20 DUP2 ADD SWAP1 POP SWAP2 SWAP1 POP JUMP JUMPDEST DUP3 DUP2 DUP4 CALLDATACOPY PUSH0 DUP4 DUP4 ADD MSTORE POP POP POP JUMP JUMPDEST PUSH0 PUSH2 0x1F59 PUSH2 0x1F54 DUP5 PUSH2 0x1F09 JUMP JUMPDEST PUSH2 0x1EEF JUMP JUMPDEST SWAP1 POP DUP3 DUP2 MSTORE PUSH1 0x20 DUP2 ADD DUP5 DUP5 DUP5 ADD GT ISZERO PUSH2 0x1F75 JUMPI PUSH2 0x1F74 PUSH2 0x1E8D JUMP JUMPDEST JUMPDEST PUSH2 0x1F80 DUP5 DUP3 DUP6 PUSH2 0x1F39 JUMP JUMPDEST POP SWAP4 SWAP3 POP POP POP JUMP JUMPDEST PUSH0 DUP3 PUSH1 0x1F DUP4 ADD SLT PUSH2 0x1F9C JUMPI PUSH2 0x1F9B PUSH2 0x1E89 JUMP JUMPDEST JUMPDEST DUP2 CALLDATALOAD PUSH2 0x1FAC DUP5 DUP3 PUSH1 0x20 DUP7 ADD PUSH2 0x1F47 JUMP JUMPDEST SWAP2 POP POP SWAP3 SWAP2 POP POP JUMP JUMPDEST PUSH0 PUSH8 0xFFFFFFFFFFFFFFFF DUP3 GT ISZERO PUSH2 0x1FCF JUMPI PUSH2 0x1FCE PUSH2 0x1E91 JUMP JUMPDEST JUMPDEST PUSH1 0x20 DUP3 MUL SWAP1 POP PUSH1 0x20 DUP2 ADD SWAP1 POP SWAP2 SWAP1 POP JUMP JUMPDEST PUSH0 DUP1 REVERT JUMPDEST PUSH0 PUSH2 0x1FF6 PUSH2 0x1FF1 DUP5 PUSH2 0x1FB5 JUMP JUMPDEST PUSH2 0x1EEF JUMP JUMPDEST SWAP1 POP DUP1 DUP4 DUP3 MSTORE PUSH1 0x20 DUP3 ADD SWAP1 POP PUSH1 0x20 DUP5 MUL DUP4 ADD DUP6 DUP2 GT ISZERO PUSH2 0x2019 JUMPI PUSH2 0x2018 PUSH2 0x1FE0 JUMP JUMPDEST JUMPDEST DUP4 JUMPDEST DUP2 DUP2 LT ISZERO PUSH2 0x2060 JUMPI DUP1 CALLDATALOAD PUSH8 0xFFFFFFFFFFFFFFFF DUP2 GT ISZERO PUSH2 0x203E JUMPI PUSH2 0x203D PUSH2 0x1E89 JUMP JUMPDEST JUMPDEST DUP1 DUP7 ADD PUSH2 0x204B DUP10 DUP3 PUSH2 0x1F88 JUMP JUMPDEST DUP6 MSTORE PUSH1 0x20 DUP6 ADD SWAP5 POP POP POP PUSH1 0x20 DUP2 ADD SWAP1 POP PUSH2 0x201B JUMP JUMPDEST POP POP POP SWAP4 SWAP3 POP POP POP JUMP JUMPDEST PUSH0 DUP3 PUSH1 0x1F DUP4 ADD SLT PUSH2 0x207E JUMPI PUSH2 0x207D PUSH2 0x1E89 JUMP JUMPDEST JUMPDEST DUP2 CALLDATALOAD PUSH2 0x208E DUP5 DUP3 PUSH1 0x20 DUP7 ADD PUSH2 0x1FE4 JUMP JUMPDEST SWAP2 POP POP SWAP3 SWAP2 POP POP JUMP JUMPDEST PUSH0 DUP1 PUSH0 PUSH1 0x60 DUP5 DUP7 SUB SLT ISZERO PUSH2 0x20AE JUMPI PUSH2 0x20AD PUSH2 0x1D8B JUMP JUMPDEST JUMPDEST PUSH0 DUP5 ADD CALLDATALOAD PUSH8 0xFFFFFFFFFFFFFFFF DUP2 GT ISZERO PUSH2 0x20CB JUMPI PUSH2 0x20CA PUSH2 0x1D8F JUMP JUMPDEST JUMPDEST PUSH2 0x20D7 DUP7 DUP3 DUP8 ADD PUSH2 0x1F88 JUMP JUMPDEST SWAP4 POP POP PUSH1 0x20 PUSH2 0x20E8 DUP7 DUP3 DUP8 ADD PUSH2 0x1DA9 JUMP JUMPDEST SWAP3 POP POP PUSH1 0x40 DUP5 ADD CALLDATALOAD PUSH8 0xFFFFFFFFFFFFFFFF DUP2 GT ISZERO PUSH2 0x2109 JUMPI PUSH2 0x2108 PUSH2 0x1D8F JUMP JUMPDEST JUMPDEST PUSH2 0x2115 DUP7 DUP3 DUP8 ADD PUSH2 0x206A JUMP JUMPDEST SWAP2 POP POP SWAP3 POP SWAP3 POP SWAP3 JUMP JUMPDEST PUSH0 DUP2 ISZERO ISZERO SWAP1 POP SWAP2 SWAP1 POP JUMP JUMPDEST PUSH2 0x2133 DUP2 PUSH2 0x211F JUMP JUMPDEST DUP3 MSTORE POP POP JUMP JUMPDEST PUSH0 PUSH1 0x20 DUP3 ADD SWAP1 POP PUSH2 0x214C PUSH0 DUP4 ADD DUP5 PUSH2 0x212A JUMP JUMPDEST SWAP3 SWAP2 POP POP JUMP JUMPDEST PUSH0 PUSH1 0x20 DUP3 DUP5 SUB SLT ISZERO PUSH2 0x2167 JUMPI PUSH2 0x2166 PUSH2 0x1D8B JUMP JUMPDEST JUMPDEST PUSH0 DUP3 ADD CALLDATALOAD PUSH8 0xFFFFFFFFFFFFFFFF DUP2 GT ISZERO PUSH2 0x2184 JUMPI PUSH2 0x2183 PUSH2 0x1D8F JUMP JUMPDEST JUMPDEST PUSH2 0x2190 DUP5 DUP3 DUP6 ADD PUSH2 0x1F88 JUMP JUMPDEST SWAP2 POP POP SWAP3 SWAP2 POP POP JUMP JUMPDEST PUSH32 0x4E487B7100000000000000000000000000000000000000000000000000000000 PUSH0 MSTORE PUSH1 0x22 PUSH1 0x4 MSTORE PUSH1 0x24 PUSH0 REVERT JUMPDEST PUSH0 PUSH1 0x2 DUP3 DIV SWAP1 POP PUSH1 0x1 DUP3 AND DUP1 PUSH2 0x21DD JUMPI PUSH1 0x7F DUP3 AND SWAP2 POP JUMPDEST PUSH1 0x20 DUP3 LT DUP2 SUB PUSH2 0x21F0 JUMPI PUSH2 0x21EF PUSH2 0x2199 JUMP JUMPDEST JUMPDEST POP SWAP2 SWAP1 POP JUMP JUMPDEST PUSH32 0x4E487B7100000000000000000000000000000000000000000000000000000000 PUSH0 MSTORE PUSH1 0x32 PUSH1 0x4 MSTORE PUSH1 0x24 PUSH0 REVERT JUMPDEST PUSH32 0x4E487B7100000000000000000000000000000000000000000000000000000000 PUSH0 MSTORE PUSH1 0x11 PUSH1 0x4 MSTORE PUSH1 0x24 PUSH0 REVERT JUMPDEST PUSH0 PUSH2 0x225A DUP3 PUSH2 0x1B26 JUMP JUMPDEST SWAP2 POP PUSH2 0x2265 DUP4 PUSH2 0x1B26 JUMP JUMPDEST SWAP3 POP DUP3 DUP3 ADD SWAP1 POP DUP1 DUP3 GT ISZERO PUSH2 0x227D JUMPI PUSH2 0x227C PUSH2 0x2223 JUMP JUMPDEST JUMPDEST SWAP3 SWAP2 POP POP JUMP JUMPDEST PUSH0 PUSH2 0x228D DUP3 PUSH2 0x1B26 JUMP JUMPDEST SWAP2 POP PUSH32 0xFFFFFFFFFFFFFFFFFFFFFFFFFFFFFFFFFFFFFFFFFFFFFFFFFFFFFFFFFFFFFFFF DUP3 SUB PUSH2 0x22BF JUMPI PUSH2 0x22BE PUSH2 0x2223 JUMP JUMPDEST JUMPDEST PUSH1 0x1 DUP3 ADD SWAP1 POP SWAP2 SWAP1 POP JUMP JUMPDEST PUSH0 PUSH2 0x22D4 DUP3 PUSH2 0x1B26 JUMP JUMPDEST SWAP2 POP PUSH2 0x22DF DUP4 PUSH2 0x1B26 JUMP JUMPDEST SWAP3 POP DUP3 DUP3 SUB SWAP1 POP DUP2 DUP2 GT ISZERO PUSH2 0x22F7 JUMPI PUSH2 0x22F6 PUSH2 0x2223 JUMP JUMPDEST JUMPDEST SWAP3 SWAP2 POP POP JUMP JUMPDEST PUSH32 0x4E487B7100000000000000000000000000000000000000000000000000000000 PUSH0 MSTORE PUSH1 0x12 PUSH1 0x4 MSTORE PUSH1 0x24 PUSH0 REVERT JUMPDEST PUSH0 PUSH2 0x2334 DUP3 PUSH2 0x1B26 JUMP JUMPDEST SWAP2 POP PUSH2 0x233F DUP4 PUSH2 0x1B26 JUMP JUMPDEST SWAP3 POP DUP3 PUSH2 0x234F JUMPI PUSH2 0x234E PUSH2 0x22FD JUMP JUMPDEST JUMPDEST DUP3 DUP3 DIV SWAP1 POP SWAP3 SWAP2 POP POP JUMP JUMPDEST PUSH0 DUP2 SWAP1 POP SWAP3 SWAP2 POP POP JUMP JUMPDEST PUSH0 PUSH2 0x236E DUP3 PUSH2 0x1AB6 JUMP JUMPDEST PUSH2 0x2378 DUP2 DUP6 PUSH2 0x235A JUMP JUMPDEST SWAP4 POP PUSH2 0x2388 DUP2 DUP6 PUSH1 0x20 DUP7 ADD PUSH2 0x1AD0 JUMP JUMPDEST DUP1 DUP5 ADD SWAP2 POP POP SWAP3 SWAP2 POP POP JUMP JUMPDEST PUSH0 PUSH2 0x239F DUP3 DUP5 PUSH2 0x2364 JUMP JUMPDEST SWAP2 POP DUP2 SWAP1 POP SWAP3 SWAP2 POP POP JUMP JUMPDEST PUSH0 DUP2 SWAP1 POP DUP2 PUSH0 MSTORE PUSH1 0x20 PUSH0 KECCAK256 SWAP1 POP SWAP2 SWAP1 POP JUMP JUMPDEST PUSH0 PUSH1 0x20 PUSH1 0x1F DUP4 ADD DIV SWAP1 POP SWAP2 SWAP1 POP JUMP JUMPDEST PUSH0 DUP3 DUP3 SHL SWAP1 POP SWAP3 SWAP2 POP POP JUMP JUMPDEST PUSH0 PUSH1 0x8 DUP4 MUL PUSH2 0x2406 PUSH32 0xFFFFFFFFFFFFFFFFFFFFFFFFFFFFFFFFFFFFFFFFFFFFFFFFFFFFFFFFFFFFFFFF DUP3 PUSH2 0x23CB JUMP JUMPDEST PUSH2 0x2410 DUP7 DUP4 PUSH2 0x23CB JUMP JUMPDEST SWAP6 POP DUP1 NOT DUP5 AND SWAP4 POP DUP1 DUP7 AND DUP5 OR SWAP3 POP POP POP SWAP4 SWAP3 POP POP POP JUMP JUMPDEST PUSH0 DUP2 SWAP1 POP SWAP2 SWAP1 POP JUMP JUMPDEST PUSH0 PUSH2 0x244B PUSH2 0x2446 PUSH2 0x2441 DUP5 PUSH2 0x1B26 JUMP JUMPDEST PUSH2 0x2428 JUMP JUMPDEST PUSH2 0x1B26 JUMP JUMPDEST SWAP1 POP SWAP2 SWAP1 POP JUMP JUMPDEST PUSH0 DUP2 SWAP1 POP SWAP2 SWAP1 POP JUMP JUMPDEST PUSH2 0x2464 DUP4 PUSH2 0x2431 JUMP JUMPDEST PUSH2 0x2478 PUSH2 0x2470 DUP3 PUSH2 0x2452 JUMP JUMPDEST DUP5 DUP5 SLOAD PUSH2 0x23D7 JUMP JUMPDEST DUP3 SSTORE POP POP POP POP JUMP JUMPDEST PUSH0 SWAP1 JUMP JUMPDEST PUSH2 0x248C PUSH2 0x2480 JUMP JUMPDEST PUSH2 0x2497 DUP2 DUP5 DUP5 PUSH2 0x245B JUMP JUMPDEST POP POP POP JUMP JUMPDEST JUMPDEST DUP2 DUP2 LT ISZERO PUSH2 0x24BA JUMPI PUSH2 0x24AF PUSH0 DUP3 PUSH2 0x2484 JUMP JUMPDEST PUSH1 0x1 DUP2 ADD SWAP1 POP PUSH2 0x249D JUMP JUMPDEST POP POP JUMP JUMPDEST PUSH1 0x1F DUP3 GT ISZERO PUSH2 0x24FF JUMPI PUSH2 0x24D0 DUP2 PUSH2 0x23AA JUMP JUMPDEST PUSH2 0x24D9 DUP5 PUSH2 0x23BC JUMP JUMPDEST DUP2 ADD PUSH1 0x20 DUP6 LT ISZERO PUSH2 0x24E8 JUMPI DUP2 SWAP1 POP JUMPDEST PUSH2 0x24FC PUSH2 0x24F4 DUP6 PUSH2 0x23BC JUMP JUMPDEST DUP4 ADD DUP3 PUSH2 0x249C JUMP JUMPDEST POP POP JUMPDEST POP POP POP JUMP JUMPDEST PUSH0 DUP3 DUP3 SHR SWAP1 POP SWAP3 SWAP2 POP POP JUMP JUMPDEST PUSH0 PUSH2 0x251F PUSH0 NOT DUP5 PUSH1 0x8 MUL PUSH2 0x2504 JUMP JUMPDEST NOT DUP1 DUP4 AND SWAP2 POP POP SWAP3 SWAP2 POP POP JUMP JUMPDEST PUSH0 PUSH2 0x2537 DUP4 DUP4 PUSH2 0x2510 JUMP JUMPDEST SWAP2 POP DUP3 PUSH1 0x2 MUL DUP3 OR SWAP1 POP SWAP3 SWAP2 POP POP JUMP JUMPDEST PUSH2 0x2550 DUP3 PUSH2 0x1AB6 JUMP JUMPDEST PUSH8 0xFFFFFFFFFFFFFFFF DUP2 GT ISZERO PUSH2 0x2569 JUMPI PUSH2 0x2568 PUSH2 0x1E91 JUMP JUMPDEST JUMPDEST PUSH2 0x2573 DUP3 SLOAD PUSH2 0x21C6 JUMP JUMPDEST PUSH2 0x257E DUP3 DUP3 DUP6 PUSH2 0x24BE JUMP JUMPDEST PUSH0 PUSH1 0x20 SWAP1 POP PUSH1 0x1F DUP4 GT PUSH1 0x1 DUP2 EQ PUSH2 0x25AF JUMPI PUSH0 DUP5 ISZERO PUSH2 0x259D JUMPI DUP3 DUP8 ADD MLOAD SWAP1 POP JUMPDEST PUSH2 0x25A7 DUP6 DUP3 PUSH2 0x252C JUMP JUMPDEST DUP7 SSTORE POP PUSH2 0x260E JUMP JUMPDEST PUSH1 0x1F NOT DUP5 AND PUSH2 0x25BD DUP7 PUSH2 0x23AA JUMP JUMPDEST PUSH0 JUMPDEST DUP3 DUP2 LT ISZERO PUSH2 0x25E4 JUMPI DUP5 DUP10 ADD MLOAD DUP3 SSTORE PUSH1 0x1 DUP3 ADD SWAP2 POP PUSH1 0x20 DUP6 ADD SWAP5 POP PUSH1 0x20 DUP2 ADD SWAP1 POP PUSH2 0x25BF JUMP JUMPDEST DUP7 DUP4 LT ISZERO PUSH2 0x2601 JUMPI DUP5 DUP10 ADD MLOAD PUSH2 0x25FD PUSH1 0x1F DUP10 AND DUP3 PUSH2 0x2510 JUMP JUMPDEST DUP4 SSTORE POP JUMPDEST PUSH1 0x1 PUSH1 0x2 DUP9 MUL ADD DUP9 SSTORE POP POP POP JUMPDEST POP POP POP POP POP POP JUMP JUMPDEST PUSH0 DUP2 SLOAD SWAP1 POP PUSH2 0x2624 DUP2 PUSH2 0x21C6 JUMP JUMPDEST SWAP1 POP SWAP2 SWAP1 POP JUMP JUMPDEST DUP2 DUP2 SUB PUSH2 0x2639 JUMPI POP POP PUSH2 0x270E JUMP JUMPDEST PUSH2 0x2642 DUP3 PUSH2 0x2616 JUMP JUMPDEST PUSH8 0xFFFFFFFFFFFFFFFF DUP2 GT ISZERO PUSH2 0x265B JUMPI PUSH2 0x265A PUSH2 0x1E91 JUMP JUMPDEST JUMPDEST PUSH2 0x2665 DUP3 SLOAD PUSH2 0x21C6 JUMP JUMPDEST PUSH2 0x2670 DUP3 DUP3 DUP6 PUSH2 0x24BE JUMP JUMPDEST PUSH0 PUSH1 0x1F DUP4 GT PUSH1 0x1 DUP2 EQ PUSH2 0x269D JUMPI PUSH0 DUP5 ISZERO PUSH2 0x268B JUMPI DUP3 DUP8 ADD SLOAD SWAP1 POP JUMPDEST PUSH2 0x2695 DUP6 DUP3 PUSH2 0x252C JUMP JUMPDEST DUP7 SSTORE POP PUSH2 0x2707 JUMP JUMPDEST PUSH1 0x1F NOT DUP5 AND PUSH2 0x26AB DUP8 PUSH2 0x23AA JUMP JUMPDEST SWAP7 POP PUSH2 0x26B6 DUP7 PUSH2 0x23AA JUMP JUMPDEST PUSH0 JUMPDEST DUP3 DUP2 LT ISZERO PUSH2 0x26DD JUMPI DUP5 DUP10 ADD SLOAD DUP3 SSTORE PUSH1 0x1 DUP3 ADD SWAP2 POP PUSH1 0x1 DUP6 ADD SWAP5 POP PUSH1 0x20 DUP2 ADD SWAP1 POP PUSH2 0x26B8 JUMP JUMPDEST DUP7 DUP4 LT ISZERO PUSH2 0x26FA JUMPI DUP5 DUP10 ADD SLOAD PUSH2 0x26F6 PUSH1 0x1F DUP10 AND DUP3 PUSH2 0x2510 JUMP JUMPDEST DUP4 SSTORE POP JUMPDEST PUSH1 0x1 PUSH1 0x2 DUP9 MUL ADD DUP9 SSTORE POP POP POP JUMPDEST POP POP POP POP POP POP JUMPDEST JUMP INVALID LOG2 PUSH5 0x6970667358 0x22 SLT KECCAK256 PUSH0 0xAD 0x2F 0xDB BLOBBASEFEE PUSH19 0x6FF4E0D4DB7156B523C6E1419C2D6AAB76CA29 DUP8 0xCF 0xA6 TIMESTAMP KECCAK256 CODESIZE 0xA8 PUSH5 0x736F6C6343 STOP ADDMOD NOT STOP CALLER "
				},
				"gasEstimates": {
					"creation": {
						"codeDepositCost": "2010800",
						"executionCost": "2132",
						"totalCost": "2012932"
					},
					"external": {
						"getAllStudent()": "infinite",
						"getAllStudentNumber()": "2507",
						"getStudentAvgScore()": "infinite",
						"getStudentName(string)": "infinite",
						"getStudentNumber(uint256)": "infinite",
						"getStudentScore(string)": "infinite",
						"getStudentScoreF()": "infinite",
						"getTeacherState()": "infinite",
						"pushStudent()": "infinite",
						"sClass()": "infinite",
						"setStudent(string,uint256,string[])": "infinite"
					}
				},
				"methodIdentifiers": {
					"getAllStudent()": "133d0460",
					"getAllStudentNumber()": "504e966e",
					"getStudentAvgScore()": "7eac2ed7",
					"getStudentName(string)": "f317d020",
					"getStudentNumber(uint256)": "6191f364",
					"getStudentScore(string)": "e5521501",
					"getStudentScoreF()": "4c6d0348",
					"getTeacherState()": "d1726a62",
					"pushStudent()": "fd55ae15",
					"sClass()": "4007924b",
					"setStudent(string,uint256,string[])": "d1170306"
				}
			},
			"storageLayout": {
				"storage": [
					{
						"astId": 119,
						"contract": "solidity_test/test1.sol:TEST1",
						"label": "students",
						"offset": 0,
						"slot": "0",
						"type": "t_array(t_struct(Student)115_storage)dyn_storage"
					},
					{
						"astId": 124,
						"contract": "solidity_test/test1.sol:TEST1",
						"label": "s1",
						"offset": 0,
						"slot": "1",
						"type": "t_mapping(t_string_memory_ptr,t_struct(Student)115_storage)"
					}
				],
				"types": {
					"t_array(t_string_storage)dyn_storage": {
						"base": "t_string_storage",
						"encoding": "dynamic_array",
						"label": "string[]",
						"numberOfBytes": "32"
					},
					"t_array(t_struct(Student)115_storage)dyn_storage": {
						"base": "t_struct(Student)115_storage",
						"encoding": "dynamic_array",
						"label": "struct TEST1.Student[]",
						"numberOfBytes": "32"
					},
					"t_mapping(t_string_memory_ptr,t_struct(Student)115_storage)": {
						"encoding": "mapping",
						"key": "t_string_memory_ptr",
						"label": "mapping(string => struct TEST1.Student)",
						"numberOfBytes": "32",
						"value": "t_struct(Student)115_storage"
					},
					"t_string_memory_ptr": {
						"encoding": "bytes",
						"label": "string",
						"numberOfBytes": "32"
					},
					"t_string_storage": {
						"encoding": "bytes",
						"label": "string",
						"numberOfBytes": "32"
					},
					"t_struct(Student)115_storage": {
						"encoding": "inplace",
						"label": "struct TEST1.Student",
						"members": [
							{
								"astId": 105,
								"contract": "solidity_test/test1.sol:TEST1",
								"label": "name",
								"offset": 0,
								"slot": "0",
								"type": "t_string_storage"
							},
							{
								"astId": 107,
								"contract": "solidity_test/test1.sol:TEST1",
								"label": "number",
								"offset": 0,
								"slot": "1",
								"type": "t_uint256"
							},
							{
								"astId": 109,
								"contract": "solidity_test/test1.sol:TEST1",
								"label": "score",
								"offset": 0,
								"slot": "2",
								"type": "t_uint256"
							},
							{
								"astId": 111,
								"contract": "solidity_test/test1.sol:TEST1",
								"label": "grade",
								"offset": 0,
								"slot": "3",
								"type": "t_string_storage"
							},
							{
								"astId": 114,
								"contract": "solidity_test/test1.sol:TEST1",
								"label": "classes",
								"offset": 0,
								"slot": "4",
								"type": "t_array(t_string_storage)dyn_storage"
							}
						],
						"numberOfBytes": "160"
					},
					"t_uint256": {
						"encoding": "inplace",
						"label": "uint256",
						"numberOfBytes": "32"
					}
				}
			},
			"userdoc": {
				"kind": "user",
				"methods": {},
				"version": 1
			}
		}
	}
}