{
	"solidity_test/test5.sol": {
		"TEST5": {
			"abi": [
				{
					"inputs": [
						{
							"internalType": "uint256",
							"name": "_n",
							"type": "uint256"
						}
					],
					"name": "convert",
					"outputs": [
						{
							"internalType": "uint256",
							"name": "",
							"type": "uint256"
						},
						{
							"internalType": "uint256",
							"name": "",
							"type": "uint256"
						},
						{
							"internalType": "uint256",
							"name": "",
							"type": "uint256"
						}
					],
					"stateMutability": "pure",
					"type": "function"
				},
				{
					"inputs": [
						{
							"internalType": "uint256",
							"name": "_n",
							"type": "uint256"
						}
					],
					"name": "getHMS",
					"outputs": [
						{
							"internalType": "string",
							"name": "",
							"type": "string"
						}
					],
					"stateMutability": "pure",
					"type": "function"
				},
				{
					"inputs": [
						{
							"internalType": "uint256",
							"name": "_n",
							"type": "uint256"
						}
					],
					"name": "getHMS2",
					"outputs": [
						{
							"internalType": "string",
							"name": "",
							"type": "string"
						}
					],
					"stateMutability": "pure",
					"type": "function"
				}
			],
			"devdoc": {
				"kind": "dev",
				"methods": {},
				"version": 1
			},
			"evm": {
				"assembly": "    /* \"solidity_test/test5.sol\":308:1146  contract TEST5 {... */\n  mstore(0x40, 0x80)\n  callvalue\n  dup1\n  iszero\n  tag_1\n  jumpi\n  0x00\n  dup1\n  revert\ntag_1:\n  pop\n  dataSize(sub_0)\n  dup1\n  dataOffset(sub_0)\n  0x00\n  codecopy\n  0x00\n  return\nstop\n\nsub_0: assembly {\n        /* \"solidity_test/test5.sol\":308:1146  contract TEST5 {... */\n      mstore(0x40, 0x80)\n      callvalue\n      dup1\n      iszero\n      tag_1\n      jumpi\n      0x00\n      dup1\n      revert\n    tag_1:\n      pop\n      jumpi(tag_2, lt(calldatasize, 0x04))\n      shr(0xe0, calldataload(0x00))\n      dup1\n      0x490dc15d\n      eq\n      tag_3\n      jumpi\n      dup1\n      0xa3908e1b\n      eq\n      tag_4\n      jumpi\n      dup1\n      0xe781be0e\n      eq\n      tag_5\n      jumpi\n    tag_2:\n      0x00\n      dup1\n      revert\n        /* \"solidity_test/test5.sol\":604:860  function getHMS(uint _n) public pure returns(string memory) {... */\n    tag_3:\n      tag_6\n      0x04\n      dup1\n      calldatasize\n      sub\n      dup2\n      add\n      swap1\n      tag_7\n      swap2\n      swap1\n      tag_8\n      jump\t// in\n    tag_7:\n      tag_9\n      jump\t// in\n    tag_6:\n      mload(0x40)\n      tag_10\n      swap2\n      swap1\n      tag_11\n      jump\t// in\n    tag_10:\n      mload(0x40)\n      dup1\n      swap2\n      sub\n      swap1\n      return\n        /* \"solidity_test/test5.sol\":476:596  function convert(uint _n) public pure returns(uint, uint, uint) {... */\n    tag_4:\n      tag_12\n      0x04\n      dup1\n      calldatasize\n      sub\n      dup2\n      add\n      swap1\n      tag_13\n      swap2\n      swap1\n      tag_8\n      jump\t// in\n    tag_13:\n      tag_14\n      jump\t// in\n    tag_12:\n      mload(0x40)\n      tag_15\n      swap4\n      swap3\n      swap2\n      swap1\n      tag_16\n      jump\t// in\n    tag_15:\n      mload(0x40)\n      dup1\n      swap2\n      sub\n      swap1\n      return\n        /* \"solidity_test/test5.sol\":868:1141  function getHMS2(uint _n) public pure returns(string memory) {... */\n    tag_5:\n      tag_17\n      0x04\n      dup1\n      calldatasize\n      sub\n      dup2\n      add\n      swap1\n      tag_18\n      swap2\n      swap1\n      tag_8\n      jump\t// in\n    tag_18:\n      tag_19\n      jump\t// in\n    tag_17:\n      mload(0x40)\n      tag_20\n      swap2\n      swap1\n      tag_11\n      jump\t// in\n    tag_20:\n      mload(0x40)\n      dup1\n      swap2\n      sub\n      swap1\n      return\n        /* \"solidity_test/test5.sol\":604:860  function getHMS(uint _n) public pure returns(string memory) {... */\n    tag_9:\n        /* \"solidity_test/test5.sol\":649:662  string memory */\n      0x60\n        /* \"solidity_test/test5.sol\":676:682  uint a */\n      0x00\n        /* \"solidity_test/test5.sol\":684:690  uint b */\n      dup1\n        /* \"solidity_test/test5.sol\":692:698  uint c */\n      0x00\n        /* \"solidity_test/test5.sol\":702:713  convert(_n) */\n      tag_22\n        /* \"solidity_test/test5.sol\":710:712  _n */\n      dup6\n        /* \"solidity_test/test5.sol\":702:709  convert */\n      tag_14\n        /* \"solidity_test/test5.sol\":702:713  convert(_n) */\n      jump\t// in\n    tag_22:\n        /* \"solidity_test/test5.sol\":675:713  (uint a, uint b, uint c) = convert(_n) */\n      swap3\n      pop\n      swap3\n      pop\n      swap3\n      pop\n        /* \"solidity_test/test5.sol\":755:774  Strings.toString(a) */\n      tag_23\n        /* \"solidity_test/test5.sol\":772:773  a */\n      dup4\n        /* \"solidity_test/test5.sol\":755:771  Strings.toString */\n      tag_24\n        /* \"solidity_test/test5.sol\":755:774  Strings.toString(a) */\n      jump\t// in\n    tag_23:\n        /* \"solidity_test/test5.sol\":786:805  Strings.toString(b) */\n      tag_25\n        /* \"solidity_test/test5.sol\":803:804  b */\n      dup4\n        /* \"solidity_test/test5.sol\":786:802  Strings.toString */\n      tag_24\n        /* \"solidity_test/test5.sol\":786:805  Strings.toString(b) */\n      jump\t// in\n    tag_25:\n        /* \"solidity_test/test5.sol\":819:838  Strings.toString(c) */\n      tag_26\n        /* \"solidity_test/test5.sol\":836:837  c */\n      dup4\n        /* \"solidity_test/test5.sol\":819:835  Strings.toString */\n      tag_24\n        /* \"solidity_test/test5.sol\":819:838  Strings.toString(c) */\n      jump\t// in\n    tag_26:\n        /* \"solidity_test/test5.sol\":738:851  abi.encodePacked(Strings.toString(a), \" hours\", Strings.toString(b), \" minutes\", Strings.toString(c), \" seconds\") */\n      add(0x20, mload(0x40))\n      tag_27\n      swap4\n      swap3\n      swap2\n      swap1\n      tag_28\n      jump\t// in\n    tag_27:\n      mload(0x40)\n      0x20\n      dup2\n      dup4\n      sub\n      sub\n      dup2\n      mstore\n      swap1\n      0x40\n      mstore\n        /* \"solidity_test/test5.sol\":724:852  return string(abi.encodePacked(Strings.toString(a), \" hours\", Strings.toString(b), \" minutes\", Strings.toString(c), \" seconds\")) */\n      swap4\n      pop\n      pop\n      pop\n      pop\n        /* \"solidity_test/test5.sol\":604:860  function getHMS(uint _n) public pure returns(string memory) {... */\n      swap2\n      swap1\n      pop\n      jump\t// out\n        /* \"solidity_test/test5.sol\":476:596  function convert(uint _n) public pure returns(uint, uint, uint) {... */\n    tag_14:\n        /* \"solidity_test/test5.sol\":522:526  uint */\n      0x00\n        /* \"solidity_test/test5.sol\":528:532  uint */\n      dup1\n        /* \"solidity_test/test5.sol\":534:538  uint */\n      0x00\n        /* \"solidity_test/test5.sol\":562:566  3600 */\n      0x0e10\n        /* \"solidity_test/test5.sol\":559:561  _n */\n      dup5\n        /* \"solidity_test/test5.sol\":559:566  _n/3600 */\n      tag_30\n      swap2\n      swap1\n      tag_31\n      jump\t// in\n    tag_30:\n        /* \"solidity_test/test5.sol\":578:580  60 */\n      0x3c\n        /* \"solidity_test/test5.sol\":572:576  3600 */\n      0x0e10\n        /* \"solidity_test/test5.sol\":569:571  _n */\n      dup7\n        /* \"solidity_test/test5.sol\":569:576  _n%3600 */\n      tag_32\n      swap2\n      swap1\n      tag_33\n      jump\t// in\n    tag_32:\n        /* \"solidity_test/test5.sol\":568:580  (_n%3600)/60 */\n      tag_34\n      swap2\n      swap1\n      tag_31\n      jump\t// in\n    tag_34:\n        /* \"solidity_test/test5.sol\":585:587  60 */\n      0x3c\n        /* \"solidity_test/test5.sol\":582:584  _n */\n      dup7\n        /* \"solidity_test/test5.sol\":582:587  _n%60 */\n      tag_35\n      swap2\n      swap1\n      tag_33\n      jump\t// in\n    tag_35:\n        /* \"solidity_test/test5.sol\":551:588  return (_n/3600, (_n%3600)/60, _n%60) */\n      swap3\n      pop\n      swap3\n      pop\n      swap3\n      pop\n        /* \"solidity_test/test5.sol\":476:596  function convert(uint _n) public pure returns(uint, uint, uint) {... */\n      swap2\n      swap4\n      swap1\n      swap3\n      pop\n      jump\t// out\n        /* \"solidity_test/test5.sol\":868:1141  function getHMS2(uint _n) public pure returns(string memory) {... */\n    tag_19:\n        /* \"solidity_test/test5.sol\":914:927  string memory */\n      0x60\n        /* \"solidity_test/test5.sol\":941:947  uint a */\n      0x00\n        /* \"solidity_test/test5.sol\":949:955  uint b */\n      dup1\n        /* \"solidity_test/test5.sol\":957:963  uint c */\n      0x00\n        /* \"solidity_test/test5.sol\":967:978  convert(_n) */\n      tag_37\n        /* \"solidity_test/test5.sol\":975:977  _n */\n      dup6\n        /* \"solidity_test/test5.sol\":967:974  convert */\n      tag_14\n        /* \"solidity_test/test5.sol\":967:978  convert(_n) */\n      jump\t// in\n    tag_37:\n        /* \"solidity_test/test5.sol\":940:978  (uint a, uint b, uint c) = convert(_n) */\n      swap3\n      pop\n      swap3\n      pop\n      swap3\n      pop\n        /* \"solidity_test/test5.sol\":1020:1039  Strings.toString(a) */\n      tag_38\n        /* \"solidity_test/test5.sol\":1037:1038  a */\n      dup4\n        /* \"solidity_test/test5.sol\":1020:1036  Strings.toString */\n      tag_24\n        /* \"solidity_test/test5.sol\":1020:1039  Strings.toString(a) */\n      jump\t// in\n    tag_38:\n        /* \"solidity_test/test5.sol\":1060:1079  Strings.toString(b) */\n      tag_39\n        /* \"solidity_test/test5.sol\":1077:1078  b */\n      dup4\n        /* \"solidity_test/test5.sol\":1060:1076  Strings.toString */\n      tag_24\n        /* \"solidity_test/test5.sol\":1060:1079  Strings.toString(b) */\n      jump\t// in\n    tag_39:\n        /* \"solidity_test/test5.sol\":1097:1116  Strings.toString(c) */\n      tag_40\n        /* \"solidity_test/test5.sol\":1114:1115  c */\n      dup4\n        /* \"solidity_test/test5.sol\":1097:1113  Strings.toString */\n      tag_24\n        /* \"solidity_test/test5.sol\":1097:1116  Strings.toString(c) */\n      jump\t// in\n    tag_40:\n        /* \"solidity_test/test5.sol\":1003:1132  abi.encodePacked(Strings.toString(a), unicode\" 시간 \", Strings.toString(b), unicode\" 분 \", Strings.toString(c), unicode\" 초\") */\n      add(0x20, mload(0x40))\n      tag_41\n      swap4\n      swap3\n      swap2\n      swap1\n      tag_42\n      jump\t// in\n    tag_41:\n      mload(0x40)\n      0x20\n      dup2\n      dup4\n      sub\n      sub\n      dup2\n      mstore\n      swap1\n      0x40\n      mstore\n        /* \"solidity_test/test5.sol\":989:1133  return string(abi.encodePacked(Strings.toString(a), unicode\" 시간 \", Strings.toString(b), unicode\" 분 \", Strings.toString(c), unicode\" 초\")) */\n      swap4\n      pop\n      pop\n      pop\n      pop\n        /* \"solidity_test/test5.sol\":868:1141  function getHMS2(uint _n) public pure returns(string memory) {... */\n      swap2\n      swap1\n      pop\n      jump\t// out\n        /* \"@openzeppelin/contracts/utils/Strings.sol\":637:1335  function toString(uint256 value) internal pure returns (string memory) {... */\n    tag_24:\n        /* \"@openzeppelin/contracts/utils/Strings.sol\":693:706  string memory */\n      0x60\n        /* \"@openzeppelin/contracts/utils/Strings.sol\":742:756  uint256 length */\n      0x00\n        /* \"@openzeppelin/contracts/utils/Strings.sol\":779:780  1 */\n      0x01\n        /* \"@openzeppelin/contracts/utils/Strings.sol\":759:776  Math.log10(value) */\n      tag_44\n        /* \"@openzeppelin/contracts/utils/Strings.sol\":770:775  value */\n      dup5\n        /* \"@openzeppelin/contracts/utils/Strings.sol\":759:769  Math.log10 */\n      tag_45\n        /* \"@openzeppelin/contracts/utils/Strings.sol\":759:776  Math.log10(value) */\n      jump\t// in\n    tag_44:\n        /* \"@openzeppelin/contracts/utils/Strings.sol\":759:780  Math.log10(value) + 1 */\n      add\n        /* \"@openzeppelin/contracts/utils/Strings.sol\":742:780  uint256 length = Math.log10(value) + 1 */\n      swap1\n      pop\n        /* \"@openzeppelin/contracts/utils/Strings.sol\":794:814  string memory buffer */\n      0x00\n        /* \"@openzeppelin/contracts/utils/Strings.sol\":828:834  length */\n      dup2\n        /* \"@openzeppelin/contracts/utils/Strings.sol\":817:835  new string(length) */\n      0xffffffffffffffff\n      dup2\n      gt\n      iszero\n      tag_46\n      jumpi\n      tag_47\n      tag_48\n      jump\t// in\n    tag_47:\n    tag_46:\n      mload(0x40)\n      swap1\n      dup1\n      dup3\n      mstore\n      dup1\n      0x1f\n      add\n      not(0x1f)\n      and\n      0x20\n      add\n      dup3\n      add\n      0x40\n      mstore\n      dup1\n      iszero\n      tag_49\n      jumpi\n      dup2\n      0x20\n      add\n      0x01\n      dup3\n      mul\n      dup1\n      calldatasize\n      dup4\n      calldatacopy\n      dup1\n      dup3\n      add\n      swap2\n      pop\n      pop\n      swap1\n      pop\n    tag_49:\n      pop\n        /* \"@openzeppelin/contracts/utils/Strings.sol\":794:835  string memory buffer = new string(length) */\n      swap1\n      pop\n        /* \"@openzeppelin/contracts/utils/Strings.sol\":849:860  uint256 ptr */\n      0x00\n        /* \"@openzeppelin/contracts/utils/Strings.sol\":975:981  length */\n      dup3\n        /* \"@openzeppelin/contracts/utils/Strings.sol\":971:973  32 */\n      0x20\n        /* \"@openzeppelin/contracts/utils/Strings.sol\":967:982  add(32, length) */\n      add\n        /* \"@openzeppelin/contracts/utils/Strings.sol\":959:965  buffer */\n      dup3\n        /* \"@openzeppelin/contracts/utils/Strings.sol\":955:983  add(buffer, add(32, length)) */\n      add\n        /* \"@openzeppelin/contracts/utils/Strings.sol\":948:983  ptr := add(buffer, add(32, length)) */\n      swap1\n      pop\n        /* \"@openzeppelin/contracts/utils/Strings.sol\":1010:1292  while (true) {... */\n    tag_50:\n        /* \"@openzeppelin/contracts/utils/Strings.sol\":1017:1021  true */\n      0x01\n        /* \"@openzeppelin/contracts/utils/Strings.sol\":1010:1292  while (true) {... */\n      iszero\n      tag_51\n      jumpi\n        /* \"@openzeppelin/contracts/utils/Strings.sol\":1041:1046  ptr-- */\n      dup1\n      dup1\n      0x01\n      swap1\n      sub\n      swap2\n      pop\n      pop\n        /* \"@openzeppelin/contracts/utils/Strings.sol\":1180:1190  HEX_DIGITS */\n      0x3031323334353637383961626364656600000000000000000000000000000000\n        /* \"@openzeppelin/contracts/utils/Strings.sol\":1175:1177  10 */\n      0x0a\n        /* \"@openzeppelin/contracts/utils/Strings.sol\":1168:1173  value */\n      dup7\n        /* \"@openzeppelin/contracts/utils/Strings.sol\":1164:1178  mod(value, 10) */\n      mod\n        /* \"@openzeppelin/contracts/utils/Strings.sol\":1159:1191  byte(mod(value, 10), HEX_DIGITS) */\n      byte\n        /* \"@openzeppelin/contracts/utils/Strings.sol\":1154:1157  ptr */\n      dup2\n        /* \"@openzeppelin/contracts/utils/Strings.sol\":1146:1192  mstore8(ptr, byte(mod(value, 10), HEX_DIGITS)) */\n      mstore8\n        /* \"@openzeppelin/contracts/utils/Strings.sol\":1236:1238  10 */\n      0x0a\n        /* \"@openzeppelin/contracts/utils/Strings.sol\":1227:1238  value /= 10 */\n      dup6\n      dup2\n      tag_52\n      jumpi\n      tag_53\n      tag_54\n      jump\t// in\n    tag_53:\n    tag_52:\n      div\n      swap5\n      pop\n        /* \"@openzeppelin/contracts/utils/Strings.sol\":1269:1270  0 */\n      0x00\n        /* \"@openzeppelin/contracts/utils/Strings.sol\":1260:1265  value */\n      dup6\n        /* \"@openzeppelin/contracts/utils/Strings.sol\":1260:1270  value == 0 */\n      sub\n        /* \"@openzeppelin/contracts/utils/Strings.sol\":1010:1292  while (true) {... */\n      tag_50\n        /* \"@openzeppelin/contracts/utils/Strings.sol\":1256:1277  if (value == 0) break */\n      jumpi\n        /* \"@openzeppelin/contracts/utils/Strings.sol\":1010:1292  while (true) {... */\n    tag_51:\n        /* \"@openzeppelin/contracts/utils/Strings.sol\":1312:1318  buffer */\n      dup2\n        /* \"@openzeppelin/contracts/utils/Strings.sol\":1305:1318  return buffer */\n      swap4\n      pop\n      pop\n      pop\n      pop\n        /* \"@openzeppelin/contracts/utils/Strings.sol\":637:1335  function toString(uint256 value) internal pure returns (string memory) {... */\n      swap2\n      swap1\n      pop\n      jump\t// out\n        /* \"@openzeppelin/contracts/utils/math/Math.sol\":12214:13130  function log10(uint256 value) internal pure returns (uint256) {... */\n    tag_45:\n        /* \"@openzeppelin/contracts/utils/math/Math.sol\":12267:12274  uint256 */\n      0x00\n        /* \"@openzeppelin/contracts/utils/math/Math.sol\":12286:12300  uint256 result */\n      dup1\n        /* \"@openzeppelin/contracts/utils/math/Math.sol\":12303:12304  0 */\n      0x00\n        /* \"@openzeppelin/contracts/utils/math/Math.sol\":12286:12304  uint256 result = 0 */\n      swap1\n      pop\n        /* \"@openzeppelin/contracts/utils/math/Math.sol\":12351:12359  10 ** 64 */\n      0x184f03e93ff9f4daa797ed6e38ed64bf6a1f010000000000000000\n        /* \"@openzeppelin/contracts/utils/math/Math.sol\":12342:12347  value */\n      dup4\n        /* \"@openzeppelin/contracts/utils/math/Math.sol\":12342:12359  value >= 10 ** 64 */\n      lt\n        /* \"@openzeppelin/contracts/utils/math/Math.sol\":12338:12441  if (value >= 10 ** 64) {... */\n      tag_57\n      jumpi\n        /* \"@openzeppelin/contracts/utils/math/Math.sol\":12388:12396  10 ** 64 */\n      0x184f03e93ff9f4daa797ed6e38ed64bf6a1f010000000000000000\n        /* \"@openzeppelin/contracts/utils/math/Math.sol\":12379:12396  value /= 10 ** 64 */\n      dup4\n      dup2\n      tag_58\n      jumpi\n      tag_59\n      tag_54\n      jump\t// in\n    tag_59:\n    tag_58:\n      div\n      swap3\n      pop\n        /* \"@openzeppelin/contracts/utils/math/Math.sol\":12424:12426  64 */\n      0x40\n        /* \"@openzeppelin/contracts/utils/math/Math.sol\":12414:12426  result += 64 */\n      dup2\n      add\n      swap1\n      pop\n        /* \"@openzeppelin/contracts/utils/math/Math.sol\":12338:12441  if (value >= 10 ** 64) {... */\n    tag_57:\n        /* \"@openzeppelin/contracts/utils/math/Math.sol\":12467:12475  10 ** 32 */\n      0x04ee2d6d415b85acef8100000000\n        /* \"@openzeppelin/contracts/utils/math/Math.sol\":12458:12463  value */\n      dup4\n        /* \"@openzeppelin/contracts/utils/math/Math.sol\":12458:12475  value >= 10 ** 32 */\n      lt\n        /* \"@openzeppelin/contracts/utils/math/Math.sol\":12454:12557  if (value >= 10 ** 32) {... */\n      tag_60\n      jumpi\n        /* \"@openzeppelin/contracts/utils/math/Math.sol\":12504:12512  10 ** 32 */\n      0x04ee2d6d415b85acef8100000000\n        /* \"@openzeppelin/contracts/utils/math/Math.sol\":12495:12512  value /= 10 ** 32 */\n      dup4\n      dup2\n      tag_61\n      jumpi\n      tag_62\n      tag_54\n      jump\t// in\n    tag_62:\n    tag_61:\n      div\n      swap3\n      pop\n        /* \"@openzeppelin/contracts/utils/math/Math.sol\":12540:12542  32 */\n      0x20\n        /* \"@openzeppelin/contracts/utils/math/Math.sol\":12530:12542  result += 32 */\n      dup2\n      add\n      swap1\n      pop\n        /* \"@openzeppelin/contracts/utils/math/Math.sol\":12454:12557  if (value >= 10 ** 32) {... */\n    tag_60:\n        /* \"@openzeppelin/contracts/utils/math/Math.sol\":12583:12591  10 ** 16 */\n      0x2386f26fc10000\n        /* \"@openzeppelin/contracts/utils/math/Math.sol\":12574:12579  value */\n      dup4\n        /* \"@openzeppelin/contracts/utils/math/Math.sol\":12574:12591  value >= 10 ** 16 */\n      lt\n        /* \"@openzeppelin/contracts/utils/math/Math.sol\":12570:12673  if (value >= 10 ** 16) {... */\n      tag_63\n      jumpi\n        /* \"@openzeppelin/contracts/utils/math/Math.sol\":12620:12628  10 ** 16 */\n      0x2386f26fc10000\n        /* \"@openzeppelin/contracts/utils/math/Math.sol\":12611:12628  value /= 10 ** 16 */\n      dup4\n      dup2\n      tag_64\n      jumpi\n      tag_65\n      tag_54\n      jump\t// in\n    tag_65:\n    tag_64:\n      div\n      swap3\n      pop\n        /* \"@openzeppelin/contracts/utils/math/Math.sol\":12656:12658  16 */\n      0x10\n        /* \"@openzeppelin/contracts/utils/math/Math.sol\":12646:12658  result += 16 */\n      dup2\n      add\n      swap1\n      pop\n        /* \"@openzeppelin/contracts/utils/math/Math.sol\":12570:12673  if (value >= 10 ** 16) {... */\n    tag_63:\n        /* \"@openzeppelin/contracts/utils/math/Math.sol\":12699:12706  10 ** 8 */\n      0x05f5e100\n        /* \"@openzeppelin/contracts/utils/math/Math.sol\":12690:12695  value */\n      dup4\n        /* \"@openzeppelin/contracts/utils/math/Math.sol\":12690:12706  value >= 10 ** 8 */\n      lt\n        /* \"@openzeppelin/contracts/utils/math/Math.sol\":12686:12786  if (value >= 10 ** 8) {... */\n      tag_66\n      jumpi\n        /* \"@openzeppelin/contracts/utils/math/Math.sol\":12735:12742  10 ** 8 */\n      0x05f5e100\n        /* \"@openzeppelin/contracts/utils/math/Math.sol\":12726:12742  value /= 10 ** 8 */\n      dup4\n      dup2\n      tag_67\n      jumpi\n      tag_68\n      tag_54\n      jump\t// in\n    tag_68:\n    tag_67:\n      div\n      swap3\n      pop\n        /* \"@openzeppelin/contracts/utils/math/Math.sol\":12770:12771  8 */\n      0x08\n        /* \"@openzeppelin/contracts/utils/math/Math.sol\":12760:12771  result += 8 */\n      dup2\n      add\n      swap1\n      pop\n        /* \"@openzeppelin/contracts/utils/math/Math.sol\":12686:12786  if (value >= 10 ** 8) {... */\n    tag_66:\n        /* \"@openzeppelin/contracts/utils/math/Math.sol\":12812:12819  10 ** 4 */\n      0x2710\n        /* \"@openzeppelin/contracts/utils/math/Math.sol\":12803:12808  value */\n      dup4\n        /* \"@openzeppelin/contracts/utils/math/Math.sol\":12803:12819  value >= 10 ** 4 */\n      lt\n        /* \"@openzeppelin/contracts/utils/math/Math.sol\":12799:12899  if (value >= 10 ** 4) {... */\n      tag_69\n      jumpi\n        /* \"@openzeppelin/contracts/utils/math/Math.sol\":12848:12855  10 ** 4 */\n      0x2710\n        /* \"@openzeppelin/contracts/utils/math/Math.sol\":12839:12855  value /= 10 ** 4 */\n      dup4\n      dup2\n      tag_70\n      jumpi\n      tag_71\n      tag_54\n      jump\t// in\n    tag_71:\n    tag_70:\n      div\n      swap3\n      pop\n        /* \"@openzeppelin/contracts/utils/math/Math.sol\":12883:12884  4 */\n      0x04\n        /* \"@openzeppelin/contracts/utils/math/Math.sol\":12873:12884  result += 4 */\n      dup2\n      add\n      swap1\n      pop\n        /* \"@openzeppelin/contracts/utils/math/Math.sol\":12799:12899  if (value >= 10 ** 4) {... */\n    tag_69:\n        /* \"@openzeppelin/contracts/utils/math/Math.sol\":12925:12932  10 ** 2 */\n      0x64\n        /* \"@openzeppelin/contracts/utils/math/Math.sol\":12916:12921  value */\n      dup4\n        /* \"@openzeppelin/contracts/utils/math/Math.sol\":12916:12932  value >= 10 ** 2 */\n      lt\n        /* \"@openzeppelin/contracts/utils/math/Math.sol\":12912:13012  if (value >= 10 ** 2) {... */\n      tag_72\n      jumpi\n        /* \"@openzeppelin/contracts/utils/math/Math.sol\":12961:12968  10 ** 2 */\n      0x64\n        /* \"@openzeppelin/contracts/utils/math/Math.sol\":12952:12968  value /= 10 ** 2 */\n      dup4\n      dup2\n      tag_73\n      jumpi\n      tag_74\n      tag_54\n      jump\t// in\n    tag_74:\n    tag_73:\n      div\n      swap3\n      pop\n        /* \"@openzeppelin/contracts/utils/math/Math.sol\":12996:12997  2 */\n      0x02\n        /* \"@openzeppelin/contracts/utils/math/Math.sol\":12986:12997  result += 2 */\n      dup2\n      add\n      swap1\n      pop\n        /* \"@openzeppelin/contracts/utils/math/Math.sol\":12912:13012  if (value >= 10 ** 2) {... */\n    tag_72:\n        /* \"@openzeppelin/contracts/utils/math/Math.sol\":13038:13045  10 ** 1 */\n      0x0a\n        /* \"@openzeppelin/contracts/utils/math/Math.sol\":13029:13034  value */\n      dup4\n        /* \"@openzeppelin/contracts/utils/math/Math.sol\":13029:13045  value >= 10 ** 1 */\n      lt\n        /* \"@openzeppelin/contracts/utils/math/Math.sol\":13025:13091  if (value >= 10 ** 1) {... */\n      tag_75\n      jumpi\n        /* \"@openzeppelin/contracts/utils/math/Math.sol\":13075:13076  1 */\n      0x01\n        /* \"@openzeppelin/contracts/utils/math/Math.sol\":13065:13076  result += 1 */\n      dup2\n      add\n      swap1\n      pop\n        /* \"@openzeppelin/contracts/utils/math/Math.sol\":13025:13091  if (value >= 10 ** 1) {... */\n    tag_75:\n        /* \"@openzeppelin/contracts/utils/math/Math.sol\":13117:13123  result */\n      dup1\n        /* \"@openzeppelin/contracts/utils/math/Math.sol\":13110:13123  return result */\n      swap2\n      pop\n      pop\n        /* \"@openzeppelin/contracts/utils/math/Math.sol\":12214:13130  function log10(uint256 value) internal pure returns (uint256) {... */\n      swap2\n      swap1\n      pop\n      jump\t// out\n        /* \"#utility.yul\":88:205   */\n    tag_77:\n        /* \"#utility.yul\":197:198   */\n      0x00\n        /* \"#utility.yul\":194:195   */\n      dup1\n        /* \"#utility.yul\":187:199   */\n      revert\n        /* \"#utility.yul\":334:411   */\n    tag_79:\n        /* \"#utility.yul\":371:378   */\n      0x00\n        /* \"#utility.yul\":400:405   */\n      dup2\n        /* \"#utility.yul\":389:405   */\n      swap1\n      pop\n        /* \"#utility.yul\":334:411   */\n      swap2\n      swap1\n      pop\n      jump\t// out\n        /* \"#utility.yul\":417:539   */\n    tag_80:\n        /* \"#utility.yul\":490:514   */\n      tag_109\n        /* \"#utility.yul\":508:513   */\n      dup2\n        /* \"#utility.yul\":490:514   */\n      tag_79\n      jump\t// in\n    tag_109:\n        /* \"#utility.yul\":483:488   */\n      dup2\n        /* \"#utility.yul\":480:515   */\n      eq\n        /* \"#utility.yul\":470:533   */\n      tag_110\n      jumpi\n        /* \"#utility.yul\":529:530   */\n      0x00\n        /* \"#utility.yul\":526:527   */\n      dup1\n        /* \"#utility.yul\":519:531   */\n      revert\n        /* \"#utility.yul\":470:533   */\n    tag_110:\n        /* \"#utility.yul\":417:539   */\n      pop\n      jump\t// out\n        /* \"#utility.yul\":545:684   */\n    tag_81:\n        /* \"#utility.yul\":591:596   */\n      0x00\n        /* \"#utility.yul\":629:635   */\n      dup2\n        /* \"#utility.yul\":616:636   */\n      calldataload\n        /* \"#utility.yul\":607:636   */\n      swap1\n      pop\n        /* \"#utility.yul\":645:678   */\n      tag_112\n        /* \"#utility.yul\":672:677   */\n      dup2\n        /* \"#utility.yul\":645:678   */\n      tag_80\n      jump\t// in\n    tag_112:\n        /* \"#utility.yul\":545:684   */\n      swap3\n      swap2\n      pop\n      pop\n      jump\t// out\n        /* \"#utility.yul\":690:1019   */\n    tag_8:\n        /* \"#utility.yul\":749:755   */\n      0x00\n        /* \"#utility.yul\":798:800   */\n      0x20\n        /* \"#utility.yul\":786:795   */\n      dup3\n        /* \"#utility.yul\":777:784   */\n      dup5\n        /* \"#utility.yul\":773:796   */\n      sub\n        /* \"#utility.yul\":769:801   */\n      slt\n        /* \"#utility.yul\":766:885   */\n      iszero\n      tag_114\n      jumpi\n        /* \"#utility.yul\":804:883   */\n      tag_115\n      tag_77\n      jump\t// in\n    tag_115:\n        /* \"#utility.yul\":766:885   */\n    tag_114:\n        /* \"#utility.yul\":924:925   */\n      0x00\n        /* \"#utility.yul\":949:1002   */\n      tag_116\n        /* \"#utility.yul\":994:1001   */\n      dup5\n        /* \"#utility.yul\":985:991   */\n      dup3\n        /* \"#utility.yul\":974:983   */\n      dup6\n        /* \"#utility.yul\":970:992   */\n      add\n        /* \"#utility.yul\":949:1002   */\n      tag_81\n      jump\t// in\n    tag_116:\n        /* \"#utility.yul\":939:1002   */\n      swap2\n      pop\n        /* \"#utility.yul\":895:1012   */\n      pop\n        /* \"#utility.yul\":690:1019   */\n      swap3\n      swap2\n      pop\n      pop\n      jump\t// out\n        /* \"#utility.yul\":1025:1124   */\n    tag_82:\n        /* \"#utility.yul\":1077:1083   */\n      0x00\n        /* \"#utility.yul\":1111:1116   */\n      dup2\n        /* \"#utility.yul\":1105:1117   */\n      mload\n        /* \"#utility.yul\":1095:1117   */\n      swap1\n      pop\n        /* \"#utility.yul\":1025:1124   */\n      swap2\n      swap1\n      pop\n      jump\t// out\n        /* \"#utility.yul\":1130:1299   */\n    tag_83:\n        /* \"#utility.yul\":1214:1225   */\n      0x00\n        /* \"#utility.yul\":1248:1254   */\n      dup3\n        /* \"#utility.yul\":1243:1246   */\n      dup3\n        /* \"#utility.yul\":1236:1255   */\n      mstore\n        /* \"#utility.yul\":1288:1292   */\n      0x20\n        /* \"#utility.yul\":1283:1286   */\n      dup3\n        /* \"#utility.yul\":1279:1293   */\n      add\n        /* \"#utility.yul\":1264:1293   */\n      swap1\n      pop\n        /* \"#utility.yul\":1130:1299   */\n      swap3\n      swap2\n      pop\n      pop\n      jump\t// out\n        /* \"#utility.yul\":1305:1444   */\n    tag_84:\n        /* \"#utility.yul\":1394:1400   */\n      dup3\n        /* \"#utility.yul\":1389:1392   */\n      dup2\n        /* \"#utility.yul\":1384:1387   */\n      dup4\n        /* \"#utility.yul\":1378:1401   */\n      mcopy\n        /* \"#utility.yul\":1435:1436   */\n      0x00\n        /* \"#utility.yul\":1426:1432   */\n      dup4\n        /* \"#utility.yul\":1421:1424   */\n      dup4\n        /* \"#utility.yul\":1417:1433   */\n      add\n        /* \"#utility.yul\":1410:1437   */\n      mstore\n        /* \"#utility.yul\":1305:1444   */\n      pop\n      pop\n      pop\n      jump\t// out\n        /* \"#utility.yul\":1450:1552   */\n    tag_85:\n        /* \"#utility.yul\":1491:1497   */\n      0x00\n        /* \"#utility.yul\":1542:1544   */\n      0x1f\n        /* \"#utility.yul\":1538:1545   */\n      not\n        /* \"#utility.yul\":1533:1535   */\n      0x1f\n        /* \"#utility.yul\":1526:1531   */\n      dup4\n        /* \"#utility.yul\":1522:1536   */\n      add\n        /* \"#utility.yul\":1518:1546   */\n      and\n        /* \"#utility.yul\":1508:1546   */\n      swap1\n      pop\n        /* \"#utility.yul\":1450:1552   */\n      swap2\n      swap1\n      pop\n      jump\t// out\n        /* \"#utility.yul\":1558:1935   */\n    tag_86:\n        /* \"#utility.yul\":1646:1649   */\n      0x00\n        /* \"#utility.yul\":1674:1713   */\n      tag_122\n        /* \"#utility.yul\":1707:1712   */\n      dup3\n        /* \"#utility.yul\":1674:1713   */\n      tag_82\n      jump\t// in\n    tag_122:\n        /* \"#utility.yul\":1729:1800   */\n      tag_123\n        /* \"#utility.yul\":1793:1799   */\n      dup2\n        /* \"#utility.yul\":1788:1791   */\n      dup6\n        /* \"#utility.yul\":1729:1800   */\n      tag_83\n      jump\t// in\n    tag_123:\n        /* \"#utility.yul\":1722:1800   */\n      swap4\n      pop\n        /* \"#utility.yul\":1809:1874   */\n      tag_124\n        /* \"#utility.yul\":1867:1873   */\n      dup2\n        /* \"#utility.yul\":1862:1865   */\n      dup6\n        /* \"#utility.yul\":1855:1859   */\n      0x20\n        /* \"#utility.yul\":1848:1853   */\n      dup7\n        /* \"#utility.yul\":1844:1860   */\n      add\n        /* \"#utility.yul\":1809:1874   */\n      tag_84\n      jump\t// in\n    tag_124:\n        /* \"#utility.yul\":1899:1928   */\n      tag_125\n        /* \"#utility.yul\":1921:1927   */\n      dup2\n        /* \"#utility.yul\":1899:1928   */\n      tag_85\n      jump\t// in\n    tag_125:\n        /* \"#utility.yul\":1894:1897   */\n      dup5\n        /* \"#utility.yul\":1890:1929   */\n      add\n        /* \"#utility.yul\":1883:1929   */\n      swap2\n      pop\n        /* \"#utility.yul\":1650:1935   */\n      pop\n        /* \"#utility.yul\":1558:1935   */\n      swap3\n      swap2\n      pop\n      pop\n      jump\t// out\n        /* \"#utility.yul\":1941:2254   */\n    tag_11:\n        /* \"#utility.yul\":2054:2058   */\n      0x00\n        /* \"#utility.yul\":2092:2094   */\n      0x20\n        /* \"#utility.yul\":2081:2090   */\n      dup3\n        /* \"#utility.yul\":2077:2095   */\n      add\n        /* \"#utility.yul\":2069:2095   */\n      swap1\n      pop\n        /* \"#utility.yul\":2141:2150   */\n      dup2\n        /* \"#utility.yul\":2135:2139   */\n      dup2\n        /* \"#utility.yul\":2131:2151   */\n      sub\n        /* \"#utility.yul\":2127:2128   */\n      0x00\n        /* \"#utility.yul\":2116:2125   */\n      dup4\n        /* \"#utility.yul\":2112:2129   */\n      add\n        /* \"#utility.yul\":2105:2152   */\n      mstore\n        /* \"#utility.yul\":2169:2247   */\n      tag_127\n        /* \"#utility.yul\":2242:2246   */\n      dup2\n        /* \"#utility.yul\":2233:2239   */\n      dup5\n        /* \"#utility.yul\":2169:2247   */\n      tag_86\n      jump\t// in\n    tag_127:\n        /* \"#utility.yul\":2161:2247   */\n      swap1\n      pop\n        /* \"#utility.yul\":1941:2254   */\n      swap3\n      swap2\n      pop\n      pop\n      jump\t// out\n        /* \"#utility.yul\":2260:2378   */\n    tag_87:\n        /* \"#utility.yul\":2347:2371   */\n      tag_129\n        /* \"#utility.yul\":2365:2370   */\n      dup2\n        /* \"#utility.yul\":2347:2371   */\n      tag_79\n      jump\t// in\n    tag_129:\n        /* \"#utility.yul\":2342:2345   */\n      dup3\n        /* \"#utility.yul\":2335:2372   */\n      mstore\n        /* \"#utility.yul\":2260:2378   */\n      pop\n      pop\n      jump\t// out\n        /* \"#utility.yul\":2384:2826   */\n    tag_16:\n        /* \"#utility.yul\":2533:2537   */\n      0x00\n        /* \"#utility.yul\":2571:2573   */\n      0x60\n        /* \"#utility.yul\":2560:2569   */\n      dup3\n        /* \"#utility.yul\":2556:2574   */\n      add\n        /* \"#utility.yul\":2548:2574   */\n      swap1\n      pop\n        /* \"#utility.yul\":2584:2655   */\n      tag_131\n        /* \"#utility.yul\":2652:2653   */\n      0x00\n        /* \"#utility.yul\":2641:2650   */\n      dup4\n        /* \"#utility.yul\":2637:2654   */\n      add\n        /* \"#utility.yul\":2628:2634   */\n      dup7\n        /* \"#utility.yul\":2584:2655   */\n      tag_87\n      jump\t// in\n    tag_131:\n        /* \"#utility.yul\":2665:2737   */\n      tag_132\n        /* \"#utility.yul\":2733:2735   */\n      0x20\n        /* \"#utility.yul\":2722:2731   */\n      dup4\n        /* \"#utility.yul\":2718:2736   */\n      add\n        /* \"#utility.yul\":2709:2715   */\n      dup6\n        /* \"#utility.yul\":2665:2737   */\n      tag_87\n      jump\t// in\n    tag_132:\n        /* \"#utility.yul\":2747:2819   */\n      tag_133\n        /* \"#utility.yul\":2815:2817   */\n      0x40\n        /* \"#utility.yul\":2804:2813   */\n      dup4\n        /* \"#utility.yul\":2800:2818   */\n      add\n        /* \"#utility.yul\":2791:2797   */\n      dup5\n        /* \"#utility.yul\":2747:2819   */\n      tag_87\n      jump\t// in\n    tag_133:\n        /* \"#utility.yul\":2384:2826   */\n      swap5\n      swap4\n      pop\n      pop\n      pop\n      pop\n      jump\t// out\n        /* \"#utility.yul\":2832:2980   */\n    tag_88:\n        /* \"#utility.yul\":2934:2945   */\n      0x00\n        /* \"#utility.yul\":2971:2974   */\n      dup2\n        /* \"#utility.yul\":2956:2974   */\n      swap1\n      pop\n        /* \"#utility.yul\":2832:2980   */\n      swap3\n      swap2\n      pop\n      pop\n      jump\t// out\n        /* \"#utility.yul\":2986:3376   */\n    tag_89:\n        /* \"#utility.yul\":3092:3095   */\n      0x00\n        /* \"#utility.yul\":3120:3159   */\n      tag_136\n        /* \"#utility.yul\":3153:3158   */\n      dup3\n        /* \"#utility.yul\":3120:3159   */\n      tag_82\n      jump\t// in\n    tag_136:\n        /* \"#utility.yul\":3175:3264   */\n      tag_137\n        /* \"#utility.yul\":3257:3263   */\n      dup2\n        /* \"#utility.yul\":3252:3255   */\n      dup6\n        /* \"#utility.yul\":3175:3264   */\n      tag_88\n      jump\t// in\n    tag_137:\n        /* \"#utility.yul\":3168:3264   */\n      swap4\n      pop\n        /* \"#utility.yul\":3273:3338   */\n      tag_138\n        /* \"#utility.yul\":3331:3337   */\n      dup2\n        /* \"#utility.yul\":3326:3329   */\n      dup6\n        /* \"#utility.yul\":3319:3323   */\n      0x20\n        /* \"#utility.yul\":3312:3317   */\n      dup7\n        /* \"#utility.yul\":3308:3324   */\n      add\n        /* \"#utility.yul\":3273:3338   */\n      tag_84\n      jump\t// in\n    tag_138:\n        /* \"#utility.yul\":3363:3369   */\n      dup1\n        /* \"#utility.yul\":3358:3361   */\n      dup5\n        /* \"#utility.yul\":3354:3370   */\n      add\n        /* \"#utility.yul\":3347:3370   */\n      swap2\n      pop\n        /* \"#utility.yul\":3096:3376   */\n      pop\n        /* \"#utility.yul\":2986:3376   */\n      swap3\n      swap2\n      pop\n      pop\n      jump\t// out\n        /* \"#utility.yul\":3382:3538   */\n    tag_90:\n        /* \"#utility.yul\":3522:3530   */\n      0x20686f7572730000000000000000000000000000000000000000000000000000\n        /* \"#utility.yul\":3518:3519   */\n      0x00\n        /* \"#utility.yul\":3510:3516   */\n      dup3\n        /* \"#utility.yul\":3506:3520   */\n      add\n        /* \"#utility.yul\":3499:3531   */\n      mstore\n        /* \"#utility.yul\":3382:3538   */\n      pop\n      jump\t// out\n        /* \"#utility.yul\":3544:3944   */\n    tag_91:\n        /* \"#utility.yul\":3704:3707   */\n      0x00\n        /* \"#utility.yul\":3725:3809   */\n      tag_141\n        /* \"#utility.yul\":3807:3808   */\n      0x06\n        /* \"#utility.yul\":3802:3805   */\n      dup4\n        /* \"#utility.yul\":3725:3809   */\n      tag_88\n      jump\t// in\n    tag_141:\n        /* \"#utility.yul\":3718:3809   */\n      swap2\n      pop\n        /* \"#utility.yul\":3818:3911   */\n      tag_142\n        /* \"#utility.yul\":3907:3910   */\n      dup3\n        /* \"#utility.yul\":3818:3911   */\n      tag_90\n      jump\t// in\n    tag_142:\n        /* \"#utility.yul\":3936:3937   */\n      0x06\n        /* \"#utility.yul\":3931:3934   */\n      dup3\n        /* \"#utility.yul\":3927:3938   */\n      add\n        /* \"#utility.yul\":3920:3938   */\n      swap1\n      pop\n        /* \"#utility.yul\":3544:3944   */\n      swap2\n      swap1\n      pop\n      jump\t// out\n        /* \"#utility.yul\":3950:4108   */\n    tag_92:\n        /* \"#utility.yul\":4090:4100   */\n      0x206d696e75746573000000000000000000000000000000000000000000000000\n        /* \"#utility.yul\":4086:4087   */\n      0x00\n        /* \"#utility.yul\":4078:4084   */\n      dup3\n        /* \"#utility.yul\":4074:4088   */\n      add\n        /* \"#utility.yul\":4067:4101   */\n      mstore\n        /* \"#utility.yul\":3950:4108   */\n      pop\n      jump\t// out\n        /* \"#utility.yul\":4114:4514   */\n    tag_93:\n        /* \"#utility.yul\":4274:4277   */\n      0x00\n        /* \"#utility.yul\":4295:4379   */\n      tag_145\n        /* \"#utility.yul\":4377:4378   */\n      0x08\n        /* \"#utility.yul\":4372:4375   */\n      dup4\n        /* \"#utility.yul\":4295:4379   */\n      tag_88\n      jump\t// in\n    tag_145:\n        /* \"#utility.yul\":4288:4379   */\n      swap2\n      pop\n        /* \"#utility.yul\":4388:4481   */\n      tag_146\n        /* \"#utility.yul\":4477:4480   */\n      dup3\n        /* \"#utility.yul\":4388:4481   */\n      tag_92\n      jump\t// in\n    tag_146:\n        /* \"#utility.yul\":4506:4507   */\n      0x08\n        /* \"#utility.yul\":4501:4504   */\n      dup3\n        /* \"#utility.yul\":4497:4508   */\n      add\n        /* \"#utility.yul\":4490:4508   */\n      swap1\n      pop\n        /* \"#utility.yul\":4114:4514   */\n      swap2\n      swap1\n      pop\n      jump\t// out\n        /* \"#utility.yul\":4520:4678   */\n    tag_94:\n        /* \"#utility.yul\":4660:4670   */\n      0x207365636f6e6473000000000000000000000000000000000000000000000000\n        /* \"#utility.yul\":4656:4657   */\n      0x00\n        /* \"#utility.yul\":4648:4654   */\n      dup3\n        /* \"#utility.yul\":4644:4658   */\n      add\n        /* \"#utility.yul\":4637:4671   */\n      mstore\n        /* \"#utility.yul\":4520:4678   */\n      pop\n      jump\t// out\n        /* \"#utility.yul\":4684:5084   */\n    tag_95:\n        /* \"#utility.yul\":4844:4847   */\n      0x00\n        /* \"#utility.yul\":4865:4949   */\n      tag_149\n        /* \"#utility.yul\":4947:4948   */\n      0x08\n        /* \"#utility.yul\":4942:4945   */\n      dup4\n        /* \"#utility.yul\":4865:4949   */\n      tag_88\n      jump\t// in\n    tag_149:\n        /* \"#utility.yul\":4858:4949   */\n      swap2\n      pop\n        /* \"#utility.yul\":4958:5051   */\n      tag_150\n        /* \"#utility.yul\":5047:5050   */\n      dup3\n        /* \"#utility.yul\":4958:5051   */\n      tag_94\n      jump\t// in\n    tag_150:\n        /* \"#utility.yul\":5076:5077   */\n      0x08\n        /* \"#utility.yul\":5071:5074   */\n      dup3\n        /* \"#utility.yul\":5067:5078   */\n      add\n        /* \"#utility.yul\":5060:5078   */\n      swap1\n      pop\n        /* \"#utility.yul\":4684:5084   */\n      swap2\n      swap1\n      pop\n      jump\t// out\n        /* \"#utility.yul\":5090:6483   */\n    tag_28:\n        /* \"#utility.yul\":5621:5624   */\n      0x00\n        /* \"#utility.yul\":5643:5738   */\n      tag_152\n        /* \"#utility.yul\":5734:5737   */\n      dup3\n        /* \"#utility.yul\":5725:5731   */\n      dup7\n        /* \"#utility.yul\":5643:5738   */\n      tag_89\n      jump\t// in\n    tag_152:\n        /* \"#utility.yul\":5636:5738   */\n      swap2\n      pop\n        /* \"#utility.yul\":5755:5903   */\n      tag_153\n        /* \"#utility.yul\":5899:5902   */\n      dup3\n        /* \"#utility.yul\":5755:5903   */\n      tag_91\n      jump\t// in\n    tag_153:\n        /* \"#utility.yul\":5748:5903   */\n      swap2\n      pop\n        /* \"#utility.yul\":5920:6015   */\n      tag_154\n        /* \"#utility.yul\":6011:6014   */\n      dup3\n        /* \"#utility.yul\":6002:6008   */\n      dup6\n        /* \"#utility.yul\":5920:6015   */\n      tag_89\n      jump\t// in\n    tag_154:\n        /* \"#utility.yul\":5913:6015   */\n      swap2\n      pop\n        /* \"#utility.yul\":6032:6180   */\n      tag_155\n        /* \"#utility.yul\":6176:6179   */\n      dup3\n        /* \"#utility.yul\":6032:6180   */\n      tag_93\n      jump\t// in\n    tag_155:\n        /* \"#utility.yul\":6025:6180   */\n      swap2\n      pop\n        /* \"#utility.yul\":6197:6292   */\n      tag_156\n        /* \"#utility.yul\":6288:6291   */\n      dup3\n        /* \"#utility.yul\":6279:6285   */\n      dup5\n        /* \"#utility.yul\":6197:6292   */\n      tag_89\n      jump\t// in\n    tag_156:\n        /* \"#utility.yul\":6190:6292   */\n      swap2\n      pop\n        /* \"#utility.yul\":6309:6457   */\n      tag_157\n        /* \"#utility.yul\":6453:6456   */\n      dup3\n        /* \"#utility.yul\":6309:6457   */\n      tag_95\n      jump\t// in\n    tag_157:\n        /* \"#utility.yul\":6302:6457   */\n      swap2\n      pop\n        /* \"#utility.yul\":6474:6477   */\n      dup2\n        /* \"#utility.yul\":6467:6477   */\n      swap1\n      pop\n        /* \"#utility.yul\":5090:6483   */\n      swap5\n      swap4\n      pop\n      pop\n      pop\n      pop\n      jump\t// out\n        /* \"#utility.yul\":6489:6669   */\n    tag_54:\n        /* \"#utility.yul\":6537:6614   */\n      0x4e487b7100000000000000000000000000000000000000000000000000000000\n        /* \"#utility.yul\":6534:6535   */\n      0x00\n        /* \"#utility.yul\":6527:6615   */\n      mstore\n        /* \"#utility.yul\":6634:6638   */\n      0x12\n        /* \"#utility.yul\":6631:6632   */\n      0x04\n        /* \"#utility.yul\":6624:6639   */\n      mstore\n        /* \"#utility.yul\":6658:6662   */\n      0x24\n        /* \"#utility.yul\":6655:6656   */\n      0x00\n        /* \"#utility.yul\":6648:6663   */\n      revert\n        /* \"#utility.yul\":6861:7046   */\n    tag_31:\n        /* \"#utility.yul\":6901:6902   */\n      0x00\n        /* \"#utility.yul\":6918:6938   */\n      tag_161\n        /* \"#utility.yul\":6936:6937   */\n      dup3\n        /* \"#utility.yul\":6918:6938   */\n      tag_79\n      jump\t// in\n    tag_161:\n        /* \"#utility.yul\":6913:6938   */\n      swap2\n      pop\n        /* \"#utility.yul\":6952:6972   */\n      tag_162\n        /* \"#utility.yul\":6970:6971   */\n      dup4\n        /* \"#utility.yul\":6952:6972   */\n      tag_79\n      jump\t// in\n    tag_162:\n        /* \"#utility.yul\":6947:6972   */\n      swap3\n      pop\n        /* \"#utility.yul\":6991:6992   */\n      dup3\n        /* \"#utility.yul\":6981:7016   */\n      tag_163\n      jumpi\n        /* \"#utility.yul\":6996:7014   */\n      tag_164\n      tag_54\n      jump\t// in\n    tag_164:\n        /* \"#utility.yul\":6981:7016   */\n    tag_163:\n        /* \"#utility.yul\":7038:7039   */\n      dup3\n        /* \"#utility.yul\":7035:7036   */\n      dup3\n        /* \"#utility.yul\":7031:7040   */\n      div\n        /* \"#utility.yul\":7026:7040   */\n      swap1\n      pop\n        /* \"#utility.yul\":6861:7046   */\n      swap3\n      swap2\n      pop\n      pop\n      jump\t// out\n        /* \"#utility.yul\":7052:7228   */\n    tag_33:\n        /* \"#utility.yul\":7084:7085   */\n      0x00\n        /* \"#utility.yul\":7101:7121   */\n      tag_166\n        /* \"#utility.yul\":7119:7120   */\n      dup3\n        /* \"#utility.yul\":7101:7121   */\n      tag_79\n      jump\t// in\n    tag_166:\n        /* \"#utility.yul\":7096:7121   */\n      swap2\n      pop\n        /* \"#utility.yul\":7135:7155   */\n      tag_167\n        /* \"#utility.yul\":7153:7154   */\n      dup4\n        /* \"#utility.yul\":7135:7155   */\n      tag_79\n      jump\t// in\n    tag_167:\n        /* \"#utility.yul\":7130:7155   */\n      swap3\n      pop\n        /* \"#utility.yul\":7174:7175   */\n      dup3\n        /* \"#utility.yul\":7164:7199   */\n      tag_168\n      jumpi\n        /* \"#utility.yul\":7179:7197   */\n      tag_169\n      tag_54\n      jump\t// in\n    tag_169:\n        /* \"#utility.yul\":7164:7199   */\n    tag_168:\n        /* \"#utility.yul\":7220:7221   */\n      dup3\n        /* \"#utility.yul\":7217:7218   */\n      dup3\n        /* \"#utility.yul\":7213:7222   */\n      mod\n        /* \"#utility.yul\":7208:7222   */\n      swap1\n      pop\n        /* \"#utility.yul\":7052:7228   */\n      swap3\n      swap2\n      pop\n      pop\n      jump\t// out\n        /* \"#utility.yul\":7234:7448   */\n    tag_97:\n        /* \"#utility.yul\":7374:7440   */\n      0x20ec8b9ceab08420000000000000000000000000000000000000000000000000\n        /* \"#utility.yul\":7370:7371   */\n      0x00\n        /* \"#utility.yul\":7362:7368   */\n      dup3\n        /* \"#utility.yul\":7358:7372   */\n      add\n        /* \"#utility.yul\":7351:7441   */\n      mstore\n        /* \"#utility.yul\":7234:7448   */\n      pop\n      jump\t// out\n        /* \"#utility.yul\":7454:7854   */\n    tag_98:\n        /* \"#utility.yul\":7614:7617   */\n      0x00\n        /* \"#utility.yul\":7635:7719   */\n      tag_172\n        /* \"#utility.yul\":7717:7718   */\n      0x08\n        /* \"#utility.yul\":7712:7715   */\n      dup4\n        /* \"#utility.yul\":7635:7719   */\n      tag_88\n      jump\t// in\n    tag_172:\n        /* \"#utility.yul\":7628:7719   */\n      swap2\n      pop\n        /* \"#utility.yul\":7728:7821   */\n      tag_173\n        /* \"#utility.yul\":7817:7820   */\n      dup3\n        /* \"#utility.yul\":7728:7821   */\n      tag_97\n      jump\t// in\n    tag_173:\n        /* \"#utility.yul\":7846:7847   */\n      0x08\n        /* \"#utility.yul\":7841:7844   */\n      dup3\n        /* \"#utility.yul\":7837:7848   */\n      add\n        /* \"#utility.yul\":7830:7848   */\n      swap1\n      pop\n        /* \"#utility.yul\":7454:7854   */\n      swap2\n      swap1\n      pop\n      jump\t// out\n        /* \"#utility.yul\":7860:8074   */\n    tag_99:\n        /* \"#utility.yul\":8000:8066   */\n      0x20ebb68420000000000000000000000000000000000000000000000000000000\n        /* \"#utility.yul\":7996:7997   */\n      0x00\n        /* \"#utility.yul\":7988:7994   */\n      dup3\n        /* \"#utility.yul\":7984:7998   */\n      add\n        /* \"#utility.yul\":7977:8067   */\n      mstore\n        /* \"#utility.yul\":7860:8074   */\n      pop\n      jump\t// out\n        /* \"#utility.yul\":8080:8480   */\n    tag_100:\n        /* \"#utility.yul\":8240:8243   */\n      0x00\n        /* \"#utility.yul\":8261:8345   */\n      tag_176\n        /* \"#utility.yul\":8343:8344   */\n      0x05\n        /* \"#utility.yul\":8338:8341   */\n      dup4\n        /* \"#utility.yul\":8261:8345   */\n      tag_88\n      jump\t// in\n    tag_176:\n        /* \"#utility.yul\":8254:8345   */\n      swap2\n      pop\n        /* \"#utility.yul\":8354:8447   */\n      tag_177\n        /* \"#utility.yul\":8443:8446   */\n      dup3\n        /* \"#utility.yul\":8354:8447   */\n      tag_99\n      jump\t// in\n    tag_177:\n        /* \"#utility.yul\":8472:8473   */\n      0x05\n        /* \"#utility.yul\":8467:8470   */\n      dup3\n        /* \"#utility.yul\":8463:8474   */\n      add\n        /* \"#utility.yul\":8456:8474   */\n      swap1\n      pop\n        /* \"#utility.yul\":8080:8480   */\n      swap2\n      swap1\n      pop\n      jump\t// out\n        /* \"#utility.yul\":8486:8700   */\n    tag_101:\n        /* \"#utility.yul\":8626:8692   */\n      0x20ecb48800000000000000000000000000000000000000000000000000000000\n        /* \"#utility.yul\":8622:8623   */\n      0x00\n        /* \"#utility.yul\":8614:8620   */\n      dup3\n        /* \"#utility.yul\":8610:8624   */\n      add\n        /* \"#utility.yul\":8603:8693   */\n      mstore\n        /* \"#utility.yul\":8486:8700   */\n      pop\n      jump\t// out\n        /* \"#utility.yul\":8706:9106   */\n    tag_102:\n        /* \"#utility.yul\":8866:8869   */\n      0x00\n        /* \"#utility.yul\":8887:8971   */\n      tag_180\n        /* \"#utility.yul\":8969:8970   */\n      0x04\n        /* \"#utility.yul\":8964:8967   */\n      dup4\n        /* \"#utility.yul\":8887:8971   */\n      tag_88\n      jump\t// in\n    tag_180:\n        /* \"#utility.yul\":8880:8971   */\n      swap2\n      pop\n        /* \"#utility.yul\":8980:9073   */\n      tag_181\n        /* \"#utility.yul\":9069:9072   */\n      dup3\n        /* \"#utility.yul\":8980:9073   */\n      tag_101\n      jump\t// in\n    tag_181:\n        /* \"#utility.yul\":9098:9099   */\n      0x04\n        /* \"#utility.yul\":9093:9096   */\n      dup3\n        /* \"#utility.yul\":9089:9100   */\n      add\n        /* \"#utility.yul\":9082:9100   */\n      swap1\n      pop\n        /* \"#utility.yul\":8706:9106   */\n      swap2\n      swap1\n      pop\n      jump\t// out\n        /* \"#utility.yul\":9112:10505   */\n    tag_42:\n        /* \"#utility.yul\":9643:9646   */\n      0x00\n        /* \"#utility.yul\":9665:9760   */\n      tag_183\n        /* \"#utility.yul\":9756:9759   */\n      dup3\n        /* \"#utility.yul\":9747:9753   */\n      dup7\n        /* \"#utility.yul\":9665:9760   */\n      tag_89\n      jump\t// in\n    tag_183:\n        /* \"#utility.yul\":9658:9760   */\n      swap2\n      pop\n        /* \"#utility.yul\":9777:9925   */\n      tag_184\n        /* \"#utility.yul\":9921:9924   */\n      dup3\n        /* \"#utility.yul\":9777:9925   */\n      tag_98\n      jump\t// in\n    tag_184:\n        /* \"#utility.yul\":9770:9925   */\n      swap2\n      pop\n        /* \"#utility.yul\":9942:10037   */\n      tag_185\n        /* \"#utility.yul\":10033:10036   */\n      dup3\n        /* \"#utility.yul\":10024:10030   */\n      dup6\n        /* \"#utility.yul\":9942:10037   */\n      tag_89\n      jump\t// in\n    tag_185:\n        /* \"#utility.yul\":9935:10037   */\n      swap2\n      pop\n        /* \"#utility.yul\":10054:10202   */\n      tag_186\n        /* \"#utility.yul\":10198:10201   */\n      dup3\n        /* \"#utility.yul\":10054:10202   */\n      tag_100\n      jump\t// in\n    tag_186:\n        /* \"#utility.yul\":10047:10202   */\n      swap2\n      pop\n        /* \"#utility.yul\":10219:10314   */\n      tag_187\n        /* \"#utility.yul\":10310:10313   */\n      dup3\n        /* \"#utility.yul\":10301:10307   */\n      dup5\n        /* \"#utility.yul\":10219:10314   */\n      tag_89\n      jump\t// in\n    tag_187:\n        /* \"#utility.yul\":10212:10314   */\n      swap2\n      pop\n        /* \"#utility.yul\":10331:10479   */\n      tag_188\n        /* \"#utility.yul\":10475:10478   */\n      dup3\n        /* \"#utility.yul\":10331:10479   */\n      tag_102\n      jump\t// in\n    tag_188:\n        /* \"#utility.yul\":10324:10479   */\n      swap2\n      pop\n        /* \"#utility.yul\":10496:10499   */\n      dup2\n        /* \"#utility.yul\":10489:10499   */\n      swap1\n      pop\n        /* \"#utility.yul\":9112:10505   */\n      swap5\n      swap4\n      pop\n      pop\n      pop\n      pop\n      jump\t// out\n        /* \"#utility.yul\":10511:10691   */\n    tag_48:\n        /* \"#utility.yul\":10559:10636   */\n      0x4e487b7100000000000000000000000000000000000000000000000000000000\n        /* \"#utility.yul\":10556:10557   */\n      0x00\n        /* \"#utility.yul\":10549:10637   */\n      mstore\n        /* \"#utility.yul\":10656:10660   */\n      0x41\n        /* \"#utility.yul\":10653:10654   */\n      0x04\n        /* \"#utility.yul\":10646:10661   */\n      mstore\n        /* \"#utility.yul\":10680:10684   */\n      0x24\n        /* \"#utility.yul\":10677:10678   */\n      0x00\n        /* \"#utility.yul\":10670:10685   */\n      revert\n\n    auxdata: 0xa264697066735822122094388028f6f0d8f5b7a03b8af901968db0a1483b3d2865469cb14d74f67967fe64736f6c63430008190033\n}\n",
				"bytecode": {
					"linkReferences": {},
					"object": "6080604052348015600e575f80fd5b506108a78061001c5f395ff3fe608060405234801561000f575f80fd5b506004361061003f575f3560e01c8063490dc15d14610043578063a3908e1b14610073578063e781be0e146100a5575b5f80fd5b61005d60048036038101906100589190610420565b6100d5565b60405161006a91906104bb565b60405180910390f35b61008d60048036038101906100889190610420565b61012f565b60405161009c939291906104ea565b60405180910390f35b6100bf60048036038101906100ba9190610420565b610174565b6040516100cc91906104bb565b60405180910390f35b60605f805f6100e38561012f565b9250925092506100f2836101ce565b6100fb836101ce565b610104836101ce565b60405160200161011693929190610637565b6040516020818303038152906040529350505050919050565b5f805f610e108461014091906106b5565b603c610e108661015091906106e5565b61015a91906106b5565b603c8661016791906106e5565b9250925092509193909250565b60605f805f6101828561012f565b925092509250610191836101ce565b61019a836101ce565b6101a3836101ce565b6040516020016101b5939291906107f3565b6040516020818303038152906040529350505050919050565b60605f60016101dc84610298565b0190505f8167ffffffffffffffff8111156101fa576101f9610844565b5b6040519080825280601f01601f19166020018201604052801561022c5781602001600182028036833780820191505090505b5090505f82602001820190505b60011561028d578080600190039150507f3031323334353637383961626364656600000000000000000000000000000000600a86061a8153600a858161028257610281610688565b5b0494505f8503610239575b819350505050919050565b5f805f90507a184f03e93ff9f4daa797ed6e38ed64bf6a1f01000000000000000083106102f4577a184f03e93ff9f4daa797ed6e38ed64bf6a1f01000000000000000083816102ea576102e9610688565b5b0492506040810190505b6d04ee2d6d415b85acef81000000008310610331576d04ee2d6d415b85acef8100000000838161032757610326610688565b5b0492506020810190505b662386f26fc10000831061036057662386f26fc10000838161035657610355610688565b5b0492506010810190505b6305f5e1008310610389576305f5e100838161037f5761037e610688565b5b0492506008810190505b61271083106103ae5761271083816103a4576103a3610688565b5b0492506004810190505b606483106103d157606483816103c7576103c6610688565b5b0492506002810190505b600a83106103e0576001810190505b80915050919050565b5f80fd5b5f819050919050565b6103ff816103ed565b8114610409575f80fd5b50565b5f8135905061041a816103f6565b92915050565b5f60208284031215610435576104346103e9565b5b5f6104428482850161040c565b91505092915050565b5f81519050919050565b5f82825260208201905092915050565b8281835e5f83830152505050565b5f601f19601f8301169050919050565b5f61048d8261044b565b6104978185610455565b93506104a7818560208601610465565b6104b081610473565b840191505092915050565b5f6020820190508181035f8301526104d38184610483565b905092915050565b6104e4816103ed565b82525050565b5f6060820190506104fd5f8301866104db565b61050a60208301856104db565b61051760408301846104db565b949350505050565b5f81905092915050565b5f6105338261044b565b61053d818561051f565b935061054d818560208601610465565b80840191505092915050565b7f20686f75727300000000000000000000000000000000000000000000000000005f82015250565b5f61058d60068361051f565b915061059882610559565b600682019050919050565b7f206d696e757465730000000000000000000000000000000000000000000000005f82015250565b5f6105d760088361051f565b91506105e2826105a3565b600882019050919050565b7f207365636f6e64730000000000000000000000000000000000000000000000005f82015250565b5f61062160088361051f565b915061062c826105ed565b600882019050919050565b5f6106428286610529565b915061064d82610581565b91506106598285610529565b9150610664826105cb565b91506106708284610529565b915061067b82610615565b9150819050949350505050565b7f4e487b71000000000000000000000000000000000000000000000000000000005f52601260045260245ffd5b5f6106bf826103ed565b91506106ca836103ed565b9250826106da576106d9610688565b5b828204905092915050565b5f6106ef826103ed565b91506106fa836103ed565b92508261070a57610709610688565b5b828206905092915050565b7f20ec8b9ceab084200000000000000000000000000000000000000000000000005f82015250565b5f61074960088361051f565b915061075482610715565b600882019050919050565b7f20ebb684200000000000000000000000000000000000000000000000000000005f82015250565b5f61079360058361051f565b915061079e8261075f565b600582019050919050565b7f20ecb488000000000000000000000000000000000000000000000000000000005f82015250565b5f6107dd60048361051f565b91506107e8826107a9565b600482019050919050565b5f6107fe8286610529565b91506108098261073d565b91506108158285610529565b915061082082610787565b915061082c8284610529565b9150610837826107d1565b9150819050949350505050565b7f4e487b71000000000000000000000000000000000000000000000000000000005f52604160045260245ffdfea264697066735822122094388028f6f0d8f5b7a03b8af901968db0a1483b3d2865469cb14d74f67967fe64736f6c63430008190033",
					"opcodes": "PUSH1 0x80 PUSH1 0x40 MSTORE CALLVALUE DUP1 ISZERO PUSH1 0xE JUMPI PUSH0 DUP1 REVERT JUMPDEST POP PUSH2 0x8A7 DUP1 PUSH2 0x1C PUSH0 CODECOPY PUSH0 RETURN INVALID PUSH1 0x80 PUSH1 0x40 MSTORE CALLVALUE DUP1 ISZERO PUSH2 0xF JUMPI PUSH0 DUP1 REVERT JUMPDEST POP PUSH1 0x4 CALLDATASIZE LT PUSH2 0x3F JUMPI PUSH0 CALLDATALOAD PUSH1 0xE0 SHR DUP1 PUSH4 0x490DC15D EQ PUSH2 0x43 JUMPI DUP1 PUSH4 0xA3908E1B EQ PUSH2 0x73 JUMPI DUP1 PUSH4 0xE781BE0E EQ PUSH2 0xA5 JUMPI JUMPDEST PUSH0 DUP1 REVERT JUMPDEST PUSH2 0x5D PUSH1 0x4 DUP1 CALLDATASIZE SUB DUP2 ADD SWAP1 PUSH2 0x58 SWAP2 SWAP1 PUSH2 0x420 JUMP JUMPDEST PUSH2 0xD5 JUMP JUMPDEST PUSH1 0x40 MLOAD PUSH2 0x6A SWAP2 SWAP1 PUSH2 0x4BB JUMP JUMPDEST PUSH1 0x40 MLOAD DUP1 SWAP2 SUB SWAP1 RETURN JUMPDEST PUSH2 0x8D PUSH1 0x4 DUP1 CALLDATASIZE SUB DUP2 ADD SWAP1 PUSH2 0x88 SWAP2 SWAP1 PUSH2 0x420 JUMP JUMPDEST PUSH2 0x12F JUMP JUMPDEST PUSH1 0x40 MLOAD PUSH2 0x9C SWAP4 SWAP3 SWAP2 SWAP1 PUSH2 0x4EA JUMP JUMPDEST PUSH1 0x40 MLOAD DUP1 SWAP2 SUB SWAP1 RETURN JUMPDEST PUSH2 0xBF PUSH1 0x4 DUP1 CALLDATASIZE SUB DUP2 ADD SWAP1 PUSH2 0xBA SWAP2 SWAP1 PUSH2 0x420 JUMP JUMPDEST PUSH2 0x174 JUMP JUMPDEST PUSH1 0x40 MLOAD PUSH2 0xCC SWAP2 SWAP1 PUSH2 0x4BB JUMP JUMPDEST PUSH1 0x40 MLOAD DUP1 SWAP2 SUB SWAP1 RETURN JUMPDEST PUSH1 0x60 PUSH0 DUP1 PUSH0 PUSH2 0xE3 DUP6 PUSH2 0x12F JUMP JUMPDEST SWAP3 POP SWAP3 POP SWAP3 POP PUSH2 0xF2 DUP4 PUSH2 0x1CE JUMP JUMPDEST PUSH2 0xFB DUP4 PUSH2 0x1CE JUMP JUMPDEST PUSH2 0x104 DUP4 PUSH2 0x1CE JUMP JUMPDEST PUSH1 0x40 MLOAD PUSH1 0x20 ADD PUSH2 0x116 SWAP4 SWAP3 SWAP2 SWAP1 PUSH2 0x637 JUMP JUMPDEST PUSH1 0x40 MLOAD PUSH1 0x20 DUP2 DUP4 SUB SUB DUP2 MSTORE SWAP1 PUSH1 0x40 MSTORE SWAP4 POP POP POP POP SWAP2 SWAP1 POP JUMP JUMPDEST PUSH0 DUP1 PUSH0 PUSH2 0xE10 DUP5 PUSH2 0x140 SWAP2 SWAP1 PUSH2 0x6B5 JUMP JUMPDEST PUSH1 0x3C PUSH2 0xE10 DUP7 PUSH2 0x150 SWAP2 SWAP1 PUSH2 0x6E5 JUMP JUMPDEST PUSH2 0x15A SWAP2 SWAP1 PUSH2 0x6B5 JUMP JUMPDEST PUSH1 0x3C DUP7 PUSH2 0x167 SWAP2 SWAP1 PUSH2 0x6E5 JUMP JUMPDEST SWAP3 POP SWAP3 POP SWAP3 POP SWAP2 SWAP4 SWAP1 SWAP3 POP JUMP JUMPDEST PUSH1 0x60 PUSH0 DUP1 PUSH0 PUSH2 0x182 DUP6 PUSH2 0x12F JUMP JUMPDEST SWAP3 POP SWAP3 POP SWAP3 POP PUSH2 0x191 DUP4 PUSH2 0x1CE JUMP JUMPDEST PUSH2 0x19A DUP4 PUSH2 0x1CE JUMP JUMPDEST PUSH2 0x1A3 DUP4 PUSH2 0x1CE JUMP JUMPDEST PUSH1 0x40 MLOAD PUSH1 0x20 ADD PUSH2 0x1B5 SWAP4 SWAP3 SWAP2 SWAP1 PUSH2 0x7F3 JUMP JUMPDEST PUSH1 0x40 MLOAD PUSH1 0x20 DUP2 DUP4 SUB SUB DUP2 MSTORE SWAP1 PUSH1 0x40 MSTORE SWAP4 POP POP POP POP SWAP2 SWAP1 POP JUMP JUMPDEST PUSH1 0x60 PUSH0 PUSH1 0x1 PUSH2 0x1DC DUP5 PUSH2 0x298 JUMP JUMPDEST ADD SWAP1 POP PUSH0 DUP2 PUSH8 0xFFFFFFFFFFFFFFFF DUP2 GT ISZERO PUSH2 0x1FA JUMPI PUSH2 0x1F9 PUSH2 0x844 JUMP JUMPDEST JUMPDEST PUSH1 0x40 MLOAD SWAP1 DUP1 DUP3 MSTORE DUP1 PUSH1 0x1F ADD PUSH1 0x1F NOT AND PUSH1 0x20 ADD DUP3 ADD PUSH1 0x40 MSTORE DUP1 ISZERO PUSH2 0x22C JUMPI DUP2 PUSH1 0x20 ADD PUSH1 0x1 DUP3 MUL DUP1 CALLDATASIZE DUP4 CALLDATACOPY DUP1 DUP3 ADD SWAP2 POP POP SWAP1 POP JUMPDEST POP SWAP1 POP PUSH0 DUP3 PUSH1 0x20 ADD DUP3 ADD SWAP1 POP JUMPDEST PUSH1 0x1 ISZERO PUSH2 0x28D JUMPI DUP1 DUP1 PUSH1 0x1 SWAP1 SUB SWAP2 POP POP PUSH32 0x3031323334353637383961626364656600000000000000000000000000000000 PUSH1 0xA DUP7 MOD BYTE DUP2 MSTORE8 PUSH1 0xA DUP6 DUP2 PUSH2 0x282 JUMPI PUSH2 0x281 PUSH2 0x688 JUMP JUMPDEST JUMPDEST DIV SWAP5 POP PUSH0 DUP6 SUB PUSH2 0x239 JUMPI JUMPDEST DUP2 SWAP4 POP POP POP POP SWAP2 SWAP1 POP JUMP JUMPDEST PUSH0 DUP1 PUSH0 SWAP1 POP PUSH27 0x184F03E93FF9F4DAA797ED6E38ED64BF6A1F010000000000000000 DUP4 LT PUSH2 0x2F4 JUMPI PUSH27 0x184F03E93FF9F4DAA797ED6E38ED64BF6A1F010000000000000000 DUP4 DUP2 PUSH2 0x2EA JUMPI PUSH2 0x2E9 PUSH2 0x688 JUMP JUMPDEST JUMPDEST DIV SWAP3 POP PUSH1 0x40 DUP2 ADD SWAP1 POP JUMPDEST PUSH14 0x4EE2D6D415B85ACEF8100000000 DUP4 LT PUSH2 0x331 JUMPI PUSH14 0x4EE2D6D415B85ACEF8100000000 DUP4 DUP2 PUSH2 0x327 JUMPI PUSH2 0x326 PUSH2 0x688 JUMP JUMPDEST JUMPDEST DIV SWAP3 POP PUSH1 0x20 DUP2 ADD SWAP1 POP JUMPDEST PUSH7 0x2386F26FC10000 DUP4 LT PUSH2 0x360 JUMPI PUSH7 0x2386F26FC10000 DUP4 DUP2 PUSH2 0x356 JUMPI PUSH2 0x355 PUSH2 0x688 JUMP JUMPDEST JUMPDEST DIV SWAP3 POP PUSH1 0x10 DUP2 ADD SWAP1 POP JUMPDEST PUSH4 0x5F5E100 DUP4 LT PUSH2 0x389 JUMPI PUSH4 0x5F5E100 DUP4 DUP2 PUSH2 0x37F JUMPI PUSH2 0x37E PUSH2 0x688 JUMP JUMPDEST JUMPDEST DIV SWAP3 POP PUSH1 0x8 DUP2 ADD SWAP1 POP JUMPDEST PUSH2 0x2710 DUP4 LT PUSH2 0x3AE JUMPI PUSH2 0x2710 DUP4 DUP2 PUSH2 0x3A4 JUMPI PUSH2 0x3A3 PUSH2 0x688 JUMP JUMPDEST JUMPDEST DIV SWAP3 POP PUSH1 0x4 DUP2 ADD SWAP1 POP JUMPDEST PUSH1 0x64 DUP4 LT PUSH2 0x3D1 JUMPI PUSH1 0x64 DUP4 DUP2 PUSH2 0x3C7 JUMPI PUSH2 0x3C6 PUSH2 0x688 JUMP JUMPDEST JUMPDEST DIV SWAP3 POP PUSH1 0x2 DUP2 ADD SWAP1 POP JUMPDEST PUSH1 0xA DUP4 LT PUSH2 0x3E0 JUMPI PUSH1 0x1 DUP2 ADD SWAP1 POP JUMPDEST DUP1 SWAP2 POP POP SWAP2 SWAP1 POP JUMP JUMPDEST PUSH0 DUP1 REVERT JUMPDEST PUSH0 DUP2 SWAP1 POP SWAP2 SWAP1 POP JUMP JUMPDEST PUSH2 0x3FF DUP2 PUSH2 0x3ED JUMP JUMPDEST DUP2 EQ PUSH2 0x409 JUMPI PUSH0 DUP1 REVERT JUMPDEST POP JUMP JUMPDEST PUSH0 DUP2 CALLDATALOAD SWAP1 POP PUSH2 0x41A DUP2 PUSH2 0x3F6 JUMP JUMPDEST SWAP3 SWAP2 POP POP JUMP JUMPDEST PUSH0 PUSH1 0x20 DUP3 DUP5 SUB SLT ISZERO PUSH2 0x435 JUMPI PUSH2 0x434 PUSH2 0x3E9 JUMP JUMPDEST JUMPDEST PUSH0 PUSH2 0x442 DUP5 DUP3 DUP6 ADD PUSH2 0x40C JUMP JUMPDEST SWAP2 POP POP SWAP3 SWAP2 POP POP JUMP JUMPDEST PUSH0 DUP2 MLOAD SWAP1 POP SWAP2 SWAP1 POP JUMP JUMPDEST PUSH0 DUP3 DUP3 MSTORE PUSH1 0x20 DUP3 ADD SWAP1 POP SWAP3 SWAP2 POP POP JUMP JUMPDEST DUP3 DUP2 DUP4 MCOPY PUSH0 DUP4 DUP4 ADD MSTORE POP POP POP JUMP JUMPDEST PUSH0 PUSH1 0x1F NOT PUSH1 0x1F DUP4 ADD AND SWAP1 POP SWAP2 SWAP1 POP JUMP JUMPDEST PUSH0 PUSH2 0x48D DUP3 PUSH2 0x44B JUMP JUMPDEST PUSH2 0x497 DUP2 DUP6 PUSH2 0x455 JUMP JUMPDEST SWAP4 POP PUSH2 0x4A7 DUP2 DUP6 PUSH1 0x20 DUP7 ADD PUSH2 0x465 JUMP JUMPDEST PUSH2 0x4B0 DUP2 PUSH2 0x473 JUMP JUMPDEST DUP5 ADD SWAP2 POP POP SWAP3 SWAP2 POP POP JUMP JUMPDEST PUSH0 PUSH1 0x20 DUP3 ADD SWAP1 POP DUP2 DUP2 SUB PUSH0 DUP4 ADD MSTORE PUSH2 0x4D3 DUP2 DUP5 PUSH2 0x483 JUMP JUMPDEST SWAP1 POP SWAP3 SWAP2 POP POP JUMP JUMPDEST PUSH2 0x4E4 DUP2 PUSH2 0x3ED JUMP JUMPDEST DUP3 MSTORE POP POP JUMP JUMPDEST PUSH0 PUSH1 0x60 DUP3 ADD SWAP1 POP PUSH2 0x4FD PUSH0 DUP4 ADD DUP7 PUSH2 0x4DB JUMP JUMPDEST PUSH2 0x50A PUSH1 0x20 DUP4 ADD DUP6 PUSH2 0x4DB JUMP JUMPDEST PUSH2 0x517 PUSH1 0x40 DUP4 ADD DUP5 PUSH2 0x4DB JUMP JUMPDEST SWAP5 SWAP4 POP POP POP POP JUMP JUMPDEST PUSH0 DUP2 SWAP1 POP SWAP3 SWAP2 POP POP JUMP JUMPDEST PUSH0 PUSH2 0x533 DUP3 PUSH2 0x44B JUMP JUMPDEST PUSH2 0x53D DUP2 DUP6 PUSH2 0x51F JUMP JUMPDEST SWAP4 POP PUSH2 0x54D DUP2 DUP6 PUSH1 0x20 DUP7 ADD PUSH2 0x465 JUMP JUMPDEST DUP1 DUP5 ADD SWAP2 POP POP SWAP3 SWAP2 POP POP JUMP JUMPDEST PUSH32 0x20686F7572730000000000000000000000000000000000000000000000000000 PUSH0 DUP3 ADD MSTORE POP JUMP JUMPDEST PUSH0 PUSH2 0x58D PUSH1 0x6 DUP4 PUSH2 0x51F JUMP JUMPDEST SWAP2 POP PUSH2 0x598 DUP3 PUSH2 0x559 JUMP JUMPDEST PUSH1 0x6 DUP3 ADD SWAP1 POP SWAP2 SWAP1 POP JUMP JUMPDEST PUSH32 0x206D696E75746573000000000000000000000000000000000000000000000000 PUSH0 DUP3 ADD MSTORE POP JUMP JUMPDEST PUSH0 PUSH2 0x5D7 PUSH1 0x8 DUP4 PUSH2 0x51F JUMP JUMPDEST SWAP2 POP PUSH2 0x5E2 DUP3 PUSH2 0x5A3 JUMP JUMPDEST PUSH1 0x8 DUP3 ADD SWAP1 POP SWAP2 SWAP1 POP JUMP JUMPDEST PUSH32 0x207365636F6E6473000000000000000000000000000000000000000000000000 PUSH0 DUP3 ADD MSTORE POP JUMP JUMPDEST PUSH0 PUSH2 0x621 PUSH1 0x8 DUP4 PUSH2 0x51F JUMP JUMPDEST SWAP2 POP PUSH2 0x62C DUP3 PUSH2 0x5ED JUMP JUMPDEST PUSH1 0x8 DUP3 ADD SWAP1 POP SWAP2 SWAP1 POP JUMP JUMPDEST PUSH0 PUSH2 0x642 DUP3 DUP7 PUSH2 0x529 JUMP JUMPDEST SWAP2 POP PUSH2 0x64D DUP3 PUSH2 0x581 JUMP JUMPDEST SWAP2 POP PUSH2 0x659 DUP3 DUP6 PUSH2 0x529 JUMP JUMPDEST SWAP2 POP PUSH2 0x664 DUP3 PUSH2 0x5CB JUMP JUMPDEST SWAP2 POP PUSH2 0x670 DUP3 DUP5 PUSH2 0x529 JUMP JUMPDEST SWAP2 POP PUSH2 0x67B DUP3 PUSH2 0x615 JUMP JUMPDEST SWAP2 POP DUP2 SWAP1 POP SWAP5 SWAP4 POP POP POP POP JUMP JUMPDEST PUSH32 0x4E487B7100000000000000000000000000000000000000000000000000000000 PUSH0 MSTORE PUSH1 0x12 PUSH1 0x4 MSTORE PUSH1 0x24 PUSH0 REVERT JUMPDEST PUSH0 PUSH2 0x6BF DUP3 PUSH2 0x3ED JUMP JUMPDEST SWAP2 POP PUSH2 0x6CA DUP4 PUSH2 0x3ED JUMP JUMPDEST SWAP3 POP DUP3 PUSH2 0x6DA JUMPI PUSH2 0x6D9 PUSH2 0x688 JUMP JUMPDEST JUMPDEST DUP3 DUP3 DIV SWAP1 POP SWAP3 SWAP2 POP POP JUMP JUMPDEST PUSH0 PUSH2 0x6EF DUP3 PUSH2 0x3ED JUMP JUMPDEST SWAP2 POP PUSH2 0x6FA DUP4 PUSH2 0x3ED JUMP JUMPDEST SWAP3 POP DUP3 PUSH2 0x70A JUMPI PUSH2 0x709 PUSH2 0x688 JUMP JUMPDEST JUMPDEST DUP3 DUP3 MOD SWAP1 POP SWAP3 SWAP2 POP POP JUMP JUMPDEST PUSH32 0x20EC8B9CEAB08420000000000000000000000000000000000000000000000000 PUSH0 DUP3 ADD MSTORE POP JUMP JUMPDEST PUSH0 PUSH2 0x749 PUSH1 0x8 DUP4 PUSH2 0x51F JUMP JUMPDEST SWAP2 POP PUSH2 0x754 DUP3 PUSH2 0x715 JUMP JUMPDEST PUSH1 0x8 DUP3 ADD SWAP1 POP SWAP2 SWAP1 POP JUMP JUMPDEST PUSH32 0x20EBB68420000000000000000000000000000000000000000000000000000000 PUSH0 DUP3 ADD MSTORE POP JUMP JUMPDEST PUSH0 PUSH2 0x793 PUSH1 0x5 DUP4 PUSH2 0x51F JUMP JUMPDEST SWAP2 POP PUSH2 0x79E DUP3 PUSH2 0x75F JUMP JUMPDEST PUSH1 0x5 DUP3 ADD SWAP1 POP SWAP2 SWAP1 POP JUMP JUMPDEST PUSH32 0x20ECB48800000000000000000000000000000000000000000000000000000000 PUSH0 DUP3 ADD MSTORE POP JUMP JUMPDEST PUSH0 PUSH2 0x7DD PUSH1 0x4 DUP4 PUSH2 0x51F JUMP JUMPDEST SWAP2 POP PUSH2 0x7E8 DUP3 PUSH2 0x7A9 JUMP JUMPDEST PUSH1 0x4 DUP3 ADD SWAP1 POP SWAP2 SWAP1 POP JUMP JUMPDEST PUSH0 PUSH2 0x7FE DUP3 DUP7 PUSH2 0x529 JUMP JUMPDEST SWAP2 POP PUSH2 0x809 DUP3 PUSH2 0x73D JUMP JUMPDEST SWAP2 POP PUSH2 0x815 DUP3 DUP6 PUSH2 0x529 JUMP JUMPDEST SWAP2 POP PUSH2 0x820 DUP3 PUSH2 0x787 JUMP JUMPDEST SWAP2 POP PUSH2 0x82C DUP3 DUP5 PUSH2 0x529 JUMP JUMPDEST SWAP2 POP PUSH2 0x837 DUP3 PUSH2 0x7D1 JUMP JUMPDEST SWAP2 POP DUP2 SWAP1 POP SWAP5 SWAP4 POP POP POP POP JUMP JUMPDEST PUSH32 0x4E487B7100000000000000000000000000000000000000000000000000000000 PUSH0 MSTORE PUSH1 0x41 PUSH1 0x4 MSTORE PUSH1 0x24 PUSH0 REVERT INVALID LOG2 PUSH5 0x6970667358 0x22 SLT KECCAK256 SWAP5 CODESIZE DUP1 0x28 0xF6 CREATE 0xD8 CREATE2 0xB7 LOG0 EXTCODESIZE DUP11 0xF9 ADD SWAP7 DUP14 0xB0 LOG1 BASEFEE EXTCODESIZE RETURNDATASIZE 0x28 PUSH6 0x469CB14D74F6 PUSH26 0x67FE64736F6C6343000819003300000000000000000000000000 "
				},
				"gasEstimates": {
					"creation": {
						"codeDepositCost": "443000",
						"executionCost": "478",
						"totalCost": "443478"
					},
					"external": {
						"convert(uint256)": "infinite",
						"getHMS(uint256)": "infinite",
						"getHMS2(uint256)": "infinite"
					}
				},
				"methodIdentifiers": {
					"convert(uint256)": "a3908e1b",
					"getHMS(uint256)": "490dc15d",
					"getHMS2(uint256)": "e781be0e"
				}
			},
			"storageLayout": {
				"storage": [],
				"types": null
			},
			"userdoc": {
				"kind": "user",
				"methods": {},
				"version": 1
			}
		}
	}
}