{
	"solidity_test/test4.sol": {
		"Answer": {
			"abi": [
				{
					"inputs": [],
					"stateMutability": "nonpayable",
					"type": "constructor"
				},
				{
					"inputs": [],
					"name": "getLength",
					"outputs": [
						{
							"internalType": "uint256",
							"name": "",
							"type": "uint256"
						}
					],
					"stateMutability": "view",
					"type": "function"
				},
				{
					"inputs": [],
					"name": "getScore",
					"outputs": [],
					"stateMutability": "nonpayable",
					"type": "function"
				},
				{
					"inputs": [],
					"name": "join",
					"outputs": [],
					"stateMutability": "payable",
					"type": "function"
				},
				{
					"inputs": [
						{
							"internalType": "address",
							"name": "_addr",
							"type": "address"
						}
					],
					"name": "search",
					"outputs": [
						{
							"components": [
								{
									"internalType": "uint256",
									"name": "number",
									"type": "uint256"
								},
								{
									"internalType": "string",
									"name": "name",
									"type": "string"
								},
								{
									"internalType": "address",
									"name": "wallet",
									"type": "address"
								},
								{
									"internalType": "uint256",
									"name": "balance",
									"type": "uint256"
								},
								{
									"internalType": "uint256",
									"name": "score",
									"type": "uint256"
								}
							],
							"internalType": "struct Answer.USER",
							"name": "",
							"type": "tuple"
						}
					],
					"stateMutability": "view",
					"type": "function"
				},
				{
					"inputs": [
						{
							"internalType": "string",
							"name": "_name",
							"type": "string"
						}
					],
					"name": "signIn",
					"outputs": [],
					"stateMutability": "nonpayable",
					"type": "function"
				},
				{
					"inputs": [],
					"name": "userCount",
					"outputs": [
						{
							"internalType": "uint256",
							"name": "",
							"type": "uint256"
						}
					],
					"stateMutability": "view",
					"type": "function"
				},
				{
					"inputs": [],
					"name": "withDrawTen",
					"outputs": [],
					"stateMutability": "nonpayable",
					"type": "function"
				}
			],
			"devdoc": {
				"kind": "dev",
				"methods": {},
				"version": 1
			},
			"evm": {
				"assembly": "    /* \"solidity_test/test4.sol\":3821:6746  contract Answer {... */\n  mstore(0x40, 0x80)\n    /* \"solidity_test/test4.sol\":4457:4458  1 */\n  0x01\n    /* \"solidity_test/test4.sol\":4435:4458  uint public userCount=1 */\n  0x16\n  sstore\n    /* \"solidity_test/test4.sol\":4806:4902  constructor() {... */\n  callvalue\n  dup1\n  iszero\n  tag_1\n  jumpi\n  0x00\n  dup1\n  revert\ntag_1:\n  pop\n    /* \"solidity_test/test4.sol\":4847:4857  msg.sender */\n  caller\n    /* \"solidity_test/test4.sol\":4831:4836  owner */\n  0x00\n  dup1\n    /* \"solidity_test/test4.sol\":4831:4858  owner = payable(msg.sender) */\n  0x0100\n  exp\n  dup2\n  sload\n  dup2\n  0xffffffffffffffffffffffffffffffffffffffff\n  mul\n  not\n  and\n  swap1\n  dup4\n  0xffffffffffffffffffffffffffffffffffffffff\n  and\n  mul\n  or\n  swap1\n  sstore\n  pop\n    /* \"solidity_test/test4.sol\":3821:6746  contract Answer {... */\n  dataSize(sub_0)\n  dup1\n  dataOffset(sub_0)\n  0x00\n  codecopy\n  0x00\n  return\nstop\n\nsub_0: assembly {\n        /* \"solidity_test/test4.sol\":3821:6746  contract Answer {... */\n      mstore(0x40, 0x80)\n      jumpi(tag_1, lt(calldatasize, 0x04))\n      shr(0xe0, calldataload(0x00))\n      dup1\n      0xafd82067\n      gt\n      tag_9\n      jumpi\n      dup1\n      0xafd82067\n      eq\n      tag_5\n      jumpi\n      dup1\n      0xb688a363\n      eq\n      tag_6\n      jumpi\n      dup1\n      0xbe1c766b\n      eq\n      tag_7\n      jumpi\n      dup1\n      0xc95f728a\n      eq\n      tag_8\n      jumpi\n      jump(tag_1)\n    tag_9:\n      dup1\n      0x05039910\n      eq\n      tag_2\n      jumpi\n      dup1\n      0x07973ccf\n      eq\n      tag_3\n      jumpi\n      dup1\n      0x657a2512\n      eq\n      tag_4\n      jumpi\n    tag_1:\n      0x00\n      dup1\n      revert\n        /* \"solidity_test/test4.sol\":6598:6743  function withDrawTen() public {... */\n    tag_2:\n      callvalue\n      dup1\n      iszero\n      tag_10\n      jumpi\n      0x00\n      dup1\n      revert\n    tag_10:\n      pop\n      tag_11\n      tag_12\n      jump\t// in\n    tag_11:\n      stop\n        /* \"solidity_test/test4.sol\":4435:4458  uint public userCount=1 */\n    tag_3:\n      callvalue\n      dup1\n      iszero\n      tag_13\n      jumpi\n      0x00\n      dup1\n      revert\n    tag_13:\n      pop\n      tag_14\n      tag_15\n      jump\t// in\n    tag_14:\n      mload(0x40)\n      tag_16\n      swap2\n      swap1\n      tag_17\n      jump\t// in\n    tag_16:\n      mload(0x40)\n      dup1\n      swap2\n      sub\n      swap1\n      return\n        /* \"solidity_test/test4.sol\":5317:5420  function search(address _addr) public view returns(USER memory)  {... */\n    tag_4:\n      callvalue\n      dup1\n      iszero\n      tag_18\n      jumpi\n      0x00\n      dup1\n      revert\n    tag_18:\n      pop\n      tag_19\n      0x04\n      dup1\n      calldatasize\n      sub\n      dup2\n      add\n      swap1\n      tag_20\n      swap2\n      swap1\n      tag_21\n      jump\t// in\n    tag_20:\n      tag_22\n      jump\t// in\n    tag_19:\n      mload(0x40)\n      tag_23\n      swap2\n      swap1\n      tag_24\n      jump\t// in\n    tag_23:\n      mload(0x40)\n      dup1\n      swap2\n      sub\n      swap1\n      return\n        /* \"solidity_test/test4.sol\":6331:6447  function getScore() public {... */\n    tag_5:\n      callvalue\n      dup1\n      iszero\n      tag_25\n      jumpi\n      0x00\n      dup1\n      revert\n    tag_25:\n      pop\n      tag_26\n      tag_27\n      jump\t// in\n    tag_26:\n      stop\n        /* \"solidity_test/test4.sol\":5539:6112  function join() public payable {... */\n    tag_6:\n      tag_28\n      tag_29\n      jump\t// in\n    tag_28:\n      stop\n        /* \"solidity_test/test4.sol\":6120:6323  function getLength() public view returns(uint) {... */\n    tag_7:\n      callvalue\n      dup1\n      iszero\n      tag_30\n      jumpi\n      0x00\n      dup1\n      revert\n    tag_30:\n      pop\n      tag_31\n      tag_32\n      jump\t// in\n    tag_31:\n      mload(0x40)\n      tag_33\n      swap2\n      swap1\n      tag_17\n      jump\t// in\n    tag_33:\n      mload(0x40)\n      dup1\n      swap2\n      sub\n      swap1\n      return\n        /* \"solidity_test/test4.sol\":5067:5213  function signIn(string memory _name) public {... */\n    tag_8:\n      callvalue\n      dup1\n      iszero\n      tag_34\n      jumpi\n      0x00\n      dup1\n      revert\n    tag_34:\n      pop\n      tag_35\n      0x04\n      dup1\n      calldatasize\n      sub\n      dup2\n      add\n      swap1\n      tag_36\n      swap2\n      swap1\n      tag_37\n      jump\t// in\n    tag_36:\n      tag_38\n      jump\t// in\n    tag_35:\n      stop\n        /* \"solidity_test/test4.sol\":6598:6743  function withDrawTen() public {... */\n    tag_12:\n        /* \"solidity_test/test4.sol\":6674:6676  10 */\n      0x0a\n        /* \"solidity_test/test4.sol\":6647:6652  users */\n      0x15\n        /* \"solidity_test/test4.sol\":6647:6664  users[msg.sender] */\n      0x00\n        /* \"solidity_test/test4.sol\":6653:6663  msg.sender */\n      caller\n        /* \"solidity_test/test4.sol\":6647:6664  users[msg.sender] */\n      0xffffffffffffffffffffffffffffffffffffffff\n      and\n      0xffffffffffffffffffffffffffffffffffffffff\n      and\n      dup2\n      mstore\n      0x20\n      add\n      swap1\n      dup2\n      mstore\n      0x20\n      add\n      0x00\n      keccak256\n        /* \"solidity_test/test4.sol\":6647:6670  users[msg.sender].score */\n      0x04\n      add\n      sload\n        /* \"solidity_test/test4.sol\":6647:6676  users[msg.sender].score >= 10 */\n      lt\n      iszero\n        /* \"solidity_test/test4.sol\":6639:6685  require(users[msg.sender].score >= 10, \"nope\") */\n      tag_40\n      jumpi\n      mload(0x40)\n      0x08c379a000000000000000000000000000000000000000000000000000000000\n      dup2\n      mstore\n      0x04\n      add\n      tag_41\n      swap1\n      tag_42\n      jump\t// in\n    tag_41:\n      mload(0x40)\n      dup1\n      swap2\n      sub\n      swap1\n      revert\n    tag_40:\n        /* \"solidity_test/test4.sol\":6723:6725  10 */\n      0x0a\n        /* \"solidity_test/test4.sol\":6696:6701  users */\n      0x15\n        /* \"solidity_test/test4.sol\":6696:6713  users[msg.sender] */\n      0x00\n        /* \"solidity_test/test4.sol\":6702:6712  msg.sender */\n      caller\n        /* \"solidity_test/test4.sol\":6696:6713  users[msg.sender] */\n      0xffffffffffffffffffffffffffffffffffffffff\n      and\n      0xffffffffffffffffffffffffffffffffffffffff\n      and\n      dup2\n      mstore\n      0x20\n      add\n      swap1\n      dup2\n      mstore\n      0x20\n      add\n      0x00\n      keccak256\n        /* \"solidity_test/test4.sol\":6696:6719  users[msg.sender].score */\n      0x04\n      add\n      0x00\n        /* \"solidity_test/test4.sol\":6696:6725  users[msg.sender].score -= 10 */\n      dup3\n      dup3\n      sload\n      tag_43\n      swap2\n      swap1\n      tag_44\n      jump\t// in\n    tag_43:\n      swap3\n      pop\n      pop\n      dup2\n      swap1\n      sstore\n      pop\n        /* \"solidity_test/test4.sol\":6598:6743  function withDrawTen() public {... */\n      jump\t// out\n        /* \"solidity_test/test4.sol\":4435:4458  uint public userCount=1 */\n    tag_15:\n      sload(0x16)\n      dup2\n      jump\t// out\n        /* \"solidity_test/test4.sol\":5317:5420  function search(address _addr) public view returns(USER memory)  {... */\n    tag_22:\n        /* \"solidity_test/test4.sol\":5368:5379  USER memory */\n      tag_45\n      tag_46\n      jump\t// in\n    tag_45:\n        /* \"solidity_test/test4.sol\":5400:5405  users */\n      0x15\n        /* \"solidity_test/test4.sol\":5400:5412  users[_addr] */\n      0x00\n        /* \"solidity_test/test4.sol\":5406:5411  _addr */\n      dup4\n        /* \"solidity_test/test4.sol\":5400:5412  users[_addr] */\n      0xffffffffffffffffffffffffffffffffffffffff\n      and\n      0xffffffffffffffffffffffffffffffffffffffff\n      and\n      dup2\n      mstore\n      0x20\n      add\n      swap1\n      dup2\n      mstore\n      0x20\n      add\n      0x00\n      keccak256\n        /* \"solidity_test/test4.sol\":5393:5412  return users[_addr] */\n      mload(0x40)\n      dup1\n      0xa0\n      add\n      0x40\n      mstore\n      swap1\n      dup2\n      0x00\n      dup3\n      add\n      sload\n      dup2\n      mstore\n      0x20\n      add\n      0x01\n      dup3\n      add\n      dup1\n      sload\n      tag_48\n      swap1\n      tag_49\n      jump\t// in\n    tag_48:\n      dup1\n      0x1f\n      add\n      0x20\n      dup1\n      swap2\n      div\n      mul\n      0x20\n      add\n      mload(0x40)\n      swap1\n      dup2\n      add\n      0x40\n      mstore\n      dup1\n      swap3\n      swap2\n      swap1\n      dup2\n      dup2\n      mstore\n      0x20\n      add\n      dup3\n      dup1\n      sload\n      tag_50\n      swap1\n      tag_49\n      jump\t// in\n    tag_50:\n      dup1\n      iszero\n      tag_51\n      jumpi\n      dup1\n      0x1f\n      lt\n      tag_52\n      jumpi\n      0x0100\n      dup1\n      dup4\n      sload\n      div\n      mul\n      dup4\n      mstore\n      swap2\n      0x20\n      add\n      swap2\n      jump(tag_51)\n    tag_52:\n      dup3\n      add\n      swap2\n      swap1\n      0x00\n      mstore\n      keccak256(0x00, 0x20)\n      swap1\n    tag_53:\n      dup2\n      sload\n      dup2\n      mstore\n      swap1\n      0x01\n      add\n      swap1\n      0x20\n      add\n      dup1\n      dup4\n      gt\n      tag_53\n      jumpi\n      dup3\n      swap1\n      sub\n      0x1f\n      and\n      dup3\n      add\n      swap2\n    tag_51:\n      pop\n      pop\n      pop\n      pop\n      pop\n      dup2\n      mstore\n      0x20\n      add\n      0x02\n      dup3\n      add\n      0x00\n      swap1\n      sload\n      swap1\n      0x0100\n      exp\n      swap1\n      div\n      0xffffffffffffffffffffffffffffffffffffffff\n      and\n      0xffffffffffffffffffffffffffffffffffffffff\n      and\n      0xffffffffffffffffffffffffffffffffffffffff\n      and\n      dup2\n      mstore\n      0x20\n      add\n      0x03\n      dup3\n      add\n      sload\n      dup2\n      mstore\n      0x20\n      add\n      0x04\n      dup3\n      add\n      sload\n      dup2\n      mstore\n      pop\n      pop\n      swap1\n      pop\n        /* \"solidity_test/test4.sol\":5317:5420  function search(address _addr) public view returns(USER memory)  {... */\n      swap2\n      swap1\n      pop\n      jump\t// out\n        /* \"solidity_test/test4.sol\":6331:6447  function getScore() public {... */\n    tag_27:\n        /* \"solidity_test/test4.sol\":6373:6379  uint i */\n      0x00\n        /* \"solidity_test/test4.sol\":6369:6440  for(uint i=0; i<4; i++) {... */\n    tag_55:\n        /* \"solidity_test/test4.sol\":6385:6386  4 */\n      0x04\n        /* \"solidity_test/test4.sol\":6383:6384  i */\n      dup2\n        /* \"solidity_test/test4.sol\":6383:6386  i<4 */\n      lt\n        /* \"solidity_test/test4.sol\":6369:6440  for(uint i=0; i<4; i++) {... */\n      iszero\n      tag_56\n      jumpi\n        /* \"solidity_test/test4.sol\":6427:6428  i */\n      dup1\n        /* \"solidity_test/test4.sol\":6425:6426  4 */\n      0x04\n        /* \"solidity_test/test4.sol\":6425:6428  4-i */\n      tag_58\n      swap2\n      swap1\n      tag_44\n      jump\t// in\n    tag_58:\n        /* \"solidity_test/test4.sol\":6408:6412  room */\n      0x01\n        /* \"solidity_test/test4.sol\":6413:6414  i */\n      dup3\n        /* \"solidity_test/test4.sol\":6408:6415  room[i] */\n      0x04\n      dup2\n      lt\n      tag_59\n      jumpi\n      tag_60\n      tag_61\n      jump\t// in\n    tag_60:\n    tag_59:\n      0x05\n      mul\n      add\n        /* \"solidity_test/test4.sol\":6408:6421  room[i].score */\n      0x04\n      add\n      0x00\n        /* \"solidity_test/test4.sol\":6408:6428  room[i].score += 4-i */\n      dup3\n      dup3\n      sload\n      tag_63\n      swap2\n      swap1\n      tag_64\n      jump\t// in\n    tag_63:\n      swap3\n      pop\n      pop\n      dup2\n      swap1\n      sstore\n      pop\n        /* \"solidity_test/test4.sol\":6388:6391  i++ */\n      dup1\n      dup1\n      0x01\n      add\n      swap2\n      pop\n      pop\n        /* \"solidity_test/test4.sol\":6369:6440  for(uint i=0; i<4; i++) {... */\n      jump(tag_55)\n    tag_56:\n      pop\n        /* \"solidity_test/test4.sol\":6331:6447  function getScore() public {... */\n      jump\t// out\n        /* \"solidity_test/test4.sol\":5539:6112  function join() public payable {... */\n    tag_29:\n        /* \"solidity_test/test4.sol\":5602:5612  0.01 ether */\n      0x2386f26fc10000\n        /* \"solidity_test/test4.sol\":5589:5598  msg.value */\n      callvalue\n        /* \"solidity_test/test4.sol\":5589:5612  msg.value == 0.01 ether */\n      eq\n        /* \"solidity_test/test4.sol\":5581:5621  require(msg.value == 0.01 ether, \"NOPE\") */\n      tag_66\n      jumpi\n      mload(0x40)\n      0x08c379a000000000000000000000000000000000000000000000000000000000\n      dup2\n      mstore\n      0x04\n      add\n      tag_67\n      swap1\n      tag_68\n      jump\t// in\n    tag_67:\n      mload(0x40)\n      dup1\n      swap2\n      sub\n      swap1\n      revert\n    tag_66:\n        /* \"solidity_test/test4.sol\":5927:5928  3 */\n      0x03\n        /* \"solidity_test/test4.sol\":5914:5925  getLength() */\n      tag_69\n        /* \"solidity_test/test4.sol\":5914:5923  getLength */\n      tag_32\n        /* \"solidity_test/test4.sol\":5914:5925  getLength() */\n      jump\t// in\n    tag_69:\n        /* \"solidity_test/test4.sol\":5914:5928  getLength()==3 */\n      sub\n        /* \"solidity_test/test4.sol\":5911:6105  if(getLength()==3) {... */\n      tag_70\n      jumpi\n        /* \"solidity_test/test4.sol\":5955:5960  users */\n      0x15\n        /* \"solidity_test/test4.sol\":5955:5972  users[msg.sender] */\n      0x00\n        /* \"solidity_test/test4.sol\":5961:5971  msg.sender */\n      caller\n        /* \"solidity_test/test4.sol\":5955:5972  users[msg.sender] */\n      0xffffffffffffffffffffffffffffffffffffffff\n      and\n      0xffffffffffffffffffffffffffffffffffffffff\n      and\n      dup2\n      mstore\n      0x20\n      add\n      swap1\n      dup2\n      mstore\n      0x20\n      add\n      0x00\n      keccak256\n        /* \"solidity_test/test4.sol\":5945:5949  room */\n      0x01\n        /* \"solidity_test/test4.sol\":5950:5951  3 */\n      0x03\n        /* \"solidity_test/test4.sol\":5945:5952  room[3] */\n      0x04\n      dup2\n      lt\n      tag_71\n      jumpi\n      tag_72\n      tag_61\n      jump\t// in\n    tag_72:\n    tag_71:\n      0x05\n      mul\n      add\n        /* \"solidity_test/test4.sol\":5945:5972  room[3] = users[msg.sender] */\n      0x00\n      dup3\n      add\n      sload\n      dup2\n      0x00\n      add\n      sstore\n      0x01\n      dup3\n      add\n      dup2\n      0x01\n      add\n      swap1\n      dup2\n      tag_74\n      swap2\n      swap1\n      tag_75\n      jump\t// in\n    tag_74:\n      pop\n      0x02\n      dup3\n      add\n      0x00\n      swap1\n      sload\n      swap1\n      0x0100\n      exp\n      swap1\n      div\n      0xffffffffffffffffffffffffffffffffffffffff\n      and\n      dup2\n      0x02\n      add\n      exp(0x0100, 0x00)\n      dup2\n      sload\n      dup2\n      0xffffffffffffffffffffffffffffffffffffffff\n      mul\n      not\n      and\n      swap1\n      dup4\n      0xffffffffffffffffffffffffffffffffffffffff\n      and\n      mul\n      or\n      swap1\n      sstore\n      pop\n      0x03\n      dup3\n      add\n      sload\n      dup2\n      0x03\n      add\n      sstore\n      0x04\n      dup3\n      add\n      sload\n      dup2\n      0x04\n      add\n      sstore\n      swap1\n      pop\n      pop\n        /* \"solidity_test/test4.sol\":5987:5997  getScore() */\n      tag_76\n        /* \"solidity_test/test4.sol\":5987:5995  getScore */\n      tag_27\n        /* \"solidity_test/test4.sol\":5987:5997  getScore() */\n      jump\t// in\n    tag_76:\n        /* \"solidity_test/test4.sol\":6019:6023  room */\n      0x01\n      0x00\n        /* \"solidity_test/test4.sol\":6012:6023  delete room */\n      tag_77\n      swap2\n      swap1\n      tag_78\n      jump\t// in\n    tag_77:\n        /* \"solidity_test/test4.sol\":5911:6105  if(getLength()==3) {... */\n      jump(tag_79)\n    tag_70:\n        /* \"solidity_test/test4.sol\":6076:6081  users */\n      0x15\n        /* \"solidity_test/test4.sol\":6076:6093  users[msg.sender] */\n      0x00\n        /* \"solidity_test/test4.sol\":6082:6092  msg.sender */\n      caller\n        /* \"solidity_test/test4.sol\":6076:6093  users[msg.sender] */\n      0xffffffffffffffffffffffffffffffffffffffff\n      and\n      0xffffffffffffffffffffffffffffffffffffffff\n      and\n      dup2\n      mstore\n      0x20\n      add\n      swap1\n      dup2\n      mstore\n      0x20\n      add\n      0x00\n      keccak256\n        /* \"solidity_test/test4.sol\":6056:6060  room */\n      0x01\n        /* \"solidity_test/test4.sol\":6061:6072  getLength() */\n      tag_80\n        /* \"solidity_test/test4.sol\":6061:6070  getLength */\n      tag_32\n        /* \"solidity_test/test4.sol\":6061:6072  getLength() */\n      jump\t// in\n    tag_80:\n        /* \"solidity_test/test4.sol\":6056:6073  room[getLength()] */\n      0x04\n      dup2\n      lt\n      tag_81\n      jumpi\n      tag_82\n      tag_61\n      jump\t// in\n    tag_82:\n    tag_81:\n      0x05\n      mul\n      add\n        /* \"solidity_test/test4.sol\":6056:6093  room[getLength()] = users[msg.sender] */\n      0x00\n      dup3\n      add\n      sload\n      dup2\n      0x00\n      add\n      sstore\n      0x01\n      dup3\n      add\n      dup2\n      0x01\n      add\n      swap1\n      dup2\n      tag_84\n      swap2\n      swap1\n      tag_75\n      jump\t// in\n    tag_84:\n      pop\n      0x02\n      dup3\n      add\n      0x00\n      swap1\n      sload\n      swap1\n      0x0100\n      exp\n      swap1\n      div\n      0xffffffffffffffffffffffffffffffffffffffff\n      and\n      dup2\n      0x02\n      add\n      exp(0x0100, 0x00)\n      dup2\n      sload\n      dup2\n      0xffffffffffffffffffffffffffffffffffffffff\n      mul\n      not\n      and\n      swap1\n      dup4\n      0xffffffffffffffffffffffffffffffffffffffff\n      and\n      mul\n      or\n      swap1\n      sstore\n      pop\n      0x03\n      dup3\n      add\n      sload\n      dup2\n      0x03\n      add\n      sstore\n      0x04\n      dup3\n      add\n      sload\n      dup2\n      0x04\n      add\n      sstore\n      swap1\n      pop\n      pop\n        /* \"solidity_test/test4.sol\":5911:6105  if(getLength()==3) {... */\n    tag_79:\n        /* \"solidity_test/test4.sol\":5539:6112  function join() public payable {... */\n      jump\t// out\n        /* \"solidity_test/test4.sol\":6120:6323  function getLength() public view returns(uint) {... */\n    tag_32:\n        /* \"solidity_test/test4.sol\":6161:6165  uint */\n      0x00\n        /* \"solidity_test/test4.sol\":6182:6188  uint i */\n      dup1\n        /* \"solidity_test/test4.sol\":6189:6190  0 */\n      0x00\n        /* \"solidity_test/test4.sol\":6182:6190  uint i=0 */\n      swap1\n      pop\n        /* \"solidity_test/test4.sol\":6178:6297  for(uint i=0; i < 4; i++) {... */\n    tag_86:\n        /* \"solidity_test/test4.sol\":6196:6197  4 */\n      0x04\n        /* \"solidity_test/test4.sol\":6192:6193  i */\n      dup2\n        /* \"solidity_test/test4.sol\":6192:6197  i < 4 */\n      lt\n        /* \"solidity_test/test4.sol\":6178:6297  for(uint i=0; i < 4; i++) {... */\n      iszero\n      tag_87\n      jumpi\n        /* \"solidity_test/test4.sol\":6240:6241  0 */\n      0x00\n        /* \"solidity_test/test4.sol\":6222:6226  room */\n      0x01\n        /* \"solidity_test/test4.sol\":6227:6228  i */\n      dup3\n        /* \"solidity_test/test4.sol\":6222:6229  room[i] */\n      0x04\n      dup2\n      lt\n      tag_89\n      jumpi\n      tag_90\n      tag_61\n      jump\t// in\n    tag_90:\n    tag_89:\n      0x05\n      mul\n      add\n        /* \"solidity_test/test4.sol\":6222:6236  room[i].number */\n      0x00\n      add\n      sload\n        /* \"solidity_test/test4.sol\":6222:6241  room[i].number == 0 */\n      sub\n        /* \"solidity_test/test4.sol\":6219:6286  if(room[i].number == 0) {... */\n      tag_92\n      jumpi\n        /* \"solidity_test/test4.sol\":6269:6270  i */\n      dup1\n        /* \"solidity_test/test4.sol\":6262:6270  return i */\n      swap2\n      pop\n      pop\n      jump(tag_85)\n        /* \"solidity_test/test4.sol\":6219:6286  if(room[i].number == 0) {... */\n    tag_92:\n        /* \"solidity_test/test4.sol\":6199:6202  i++ */\n      dup1\n      dup1\n      0x01\n      add\n      swap2\n      pop\n      pop\n        /* \"solidity_test/test4.sol\":6178:6297  for(uint i=0; i < 4; i++) {... */\n      jump(tag_86)\n    tag_87:\n      pop\n        /* \"solidity_test/test4.sol\":6314:6315  4 */\n      0x04\n        /* \"solidity_test/test4.sol\":6307:6315  return 4 */\n      swap1\n      pop\n        /* \"solidity_test/test4.sol\":6120:6323  function getLength() public view returns(uint) {... */\n    tag_85:\n      swap1\n      jump\t// out\n        /* \"solidity_test/test4.sol\":5067:5213  function signIn(string memory _name) public {... */\n    tag_38:\n        /* \"solidity_test/test4.sol\":5142:5182  USER(userCount, _name, msg.sender, 0, 0) */\n      mload(0x40)\n      dup1\n      0xa0\n      add\n      0x40\n      mstore\n      dup1\n        /* \"solidity_test/test4.sol\":5147:5156  userCount */\n      sload(0x16)\n        /* \"solidity_test/test4.sol\":5142:5182  USER(userCount, _name, msg.sender, 0, 0) */\n      dup2\n      mstore\n      0x20\n      add\n        /* \"solidity_test/test4.sol\":5158:5163  _name */\n      dup3\n        /* \"solidity_test/test4.sol\":5142:5182  USER(userCount, _name, msg.sender, 0, 0) */\n      dup2\n      mstore\n      0x20\n      add\n        /* \"solidity_test/test4.sol\":5165:5175  msg.sender */\n      caller\n        /* \"solidity_test/test4.sol\":5142:5182  USER(userCount, _name, msg.sender, 0, 0) */\n      0xffffffffffffffffffffffffffffffffffffffff\n      and\n      dup2\n      mstore\n      0x20\n      add\n        /* \"solidity_test/test4.sol\":5177:5178  0 */\n      0x00\n        /* \"solidity_test/test4.sol\":5142:5182  USER(userCount, _name, msg.sender, 0, 0) */\n      dup2\n      mstore\n      0x20\n      add\n        /* \"solidity_test/test4.sol\":5180:5181  0 */\n      0x00\n        /* \"solidity_test/test4.sol\":5142:5182  USER(userCount, _name, msg.sender, 0, 0) */\n      dup2\n      mstore\n      pop\n        /* \"solidity_test/test4.sol\":5122:5127  users */\n      0x15\n        /* \"solidity_test/test4.sol\":5122:5139  users[msg.sender] */\n      0x00\n        /* \"solidity_test/test4.sol\":5128:5138  msg.sender */\n      caller\n        /* \"solidity_test/test4.sol\":5122:5139  users[msg.sender] */\n      0xffffffffffffffffffffffffffffffffffffffff\n      and\n      0xffffffffffffffffffffffffffffffffffffffff\n      and\n      dup2\n      mstore\n      0x20\n      add\n      swap1\n      dup2\n      mstore\n      0x20\n      add\n      0x00\n      keccak256\n        /* \"solidity_test/test4.sol\":5122:5182  users[msg.sender] = USER(userCount, _name, msg.sender, 0, 0) */\n      0x00\n      dup3\n      add\n      mload\n      dup2\n      0x00\n      add\n      sstore\n      0x20\n      dup3\n      add\n      mload\n      dup2\n      0x01\n      add\n      swap1\n      dup2\n      tag_94\n      swap2\n      swap1\n      tag_95\n      jump\t// in\n    tag_94:\n      pop\n      0x40\n      dup3\n      add\n      mload\n      dup2\n      0x02\n      add\n      exp(0x0100, 0x00)\n      dup2\n      sload\n      dup2\n      0xffffffffffffffffffffffffffffffffffffffff\n      mul\n      not\n      and\n      swap1\n      dup4\n      0xffffffffffffffffffffffffffffffffffffffff\n      and\n      mul\n      or\n      swap1\n      sstore\n      pop\n      0x60\n      dup3\n      add\n      mload\n      dup2\n      0x03\n      add\n      sstore\n      0x80\n      dup3\n      add\n      mload\n      dup2\n      0x04\n      add\n      sstore\n      swap1\n      pop\n      pop\n        /* \"solidity_test/test4.sol\":5193:5202  userCount */\n      0x16\n      0x00\n        /* \"solidity_test/test4.sol\":5193:5204  userCount++ */\n      dup2\n      sload\n      dup1\n      swap3\n      swap2\n      swap1\n      tag_96\n      swap1\n      tag_97\n      jump\t// in\n    tag_96:\n      swap2\n      swap1\n      pop\n      sstore\n      pop\n        /* \"solidity_test/test4.sol\":5067:5213  function signIn(string memory _name) public {... */\n      pop\n      jump\t// out\n    tag_46:\n      mload(0x40)\n      dup1\n      0xa0\n      add\n      0x40\n      mstore\n      dup1\n      0x00\n      dup2\n      mstore\n      0x20\n      add\n      0x60\n      dup2\n      mstore\n      0x20\n      add\n      and(0xffffffffffffffffffffffffffffffffffffffff, 0x00)\n      dup2\n      mstore\n      0x20\n      add\n      0x00\n      dup2\n      mstore\n      0x20\n      add\n      0x00\n      dup2\n      mstore\n      pop\n      swap1\n      jump\t// out\n    tag_78:\n      pop\n      0x00\n      dup1\n      dup3\n      add\n      0x00\n      swap1\n      sstore\n      0x01\n      dup3\n      add\n      0x00\n      tag_98\n      swap2\n      swap1\n      tag_99\n      jump\t// in\n    tag_98:\n      0x02\n      dup3\n      add\n      exp(0x0100, 0x00)\n      dup2\n      sload\n      swap1\n      0xffffffffffffffffffffffffffffffffffffffff\n      mul\n      not\n      and\n      swap1\n      sstore\n      0x03\n      dup3\n      add\n      0x00\n      swap1\n      sstore\n      0x04\n      dup3\n      add\n      0x00\n      swap1\n      sstore\n      pop\n      0x05\n      add\n      0x00\n      dup1\n      dup3\n      add\n      0x00\n      swap1\n      sstore\n      0x01\n      dup3\n      add\n      0x00\n      tag_100\n      swap2\n      swap1\n      tag_99\n      jump\t// in\n    tag_100:\n      0x02\n      dup3\n      add\n      exp(0x0100, 0x00)\n      dup2\n      sload\n      swap1\n      0xffffffffffffffffffffffffffffffffffffffff\n      mul\n      not\n      and\n      swap1\n      sstore\n      0x03\n      dup3\n      add\n      0x00\n      swap1\n      sstore\n      0x04\n      dup3\n      add\n      0x00\n      swap1\n      sstore\n      pop\n      0x05\n      add\n      0x00\n      dup1\n      dup3\n      add\n      0x00\n      swap1\n      sstore\n      0x01\n      dup3\n      add\n      0x00\n      tag_101\n      swap2\n      swap1\n      tag_99\n      jump\t// in\n    tag_101:\n      0x02\n      dup3\n      add\n      exp(0x0100, 0x00)\n      dup2\n      sload\n      swap1\n      0xffffffffffffffffffffffffffffffffffffffff\n      mul\n      not\n      and\n      swap1\n      sstore\n      0x03\n      dup3\n      add\n      0x00\n      swap1\n      sstore\n      0x04\n      dup3\n      add\n      0x00\n      swap1\n      sstore\n      pop\n      0x05\n      add\n      0x00\n      dup1\n      dup3\n      add\n      0x00\n      swap1\n      sstore\n      0x01\n      dup3\n      add\n      0x00\n      tag_102\n      swap2\n      swap1\n      tag_99\n      jump\t// in\n    tag_102:\n      0x02\n      dup3\n      add\n      exp(0x0100, 0x00)\n      dup2\n      sload\n      swap1\n      0xffffffffffffffffffffffffffffffffffffffff\n      mul\n      not\n      and\n      swap1\n      sstore\n      0x03\n      dup3\n      add\n      0x00\n      swap1\n      sstore\n      0x04\n      dup3\n      add\n      0x00\n      swap1\n      sstore\n      pop\n      pop\n      jump\t// out\n    tag_99:\n      pop\n      dup1\n      sload\n      tag_103\n      swap1\n      tag_49\n      jump\t// in\n    tag_103:\n      0x00\n      dup3\n      sstore\n      dup1\n      0x1f\n      lt\n      tag_105\n      jumpi\n      pop\n      jump(tag_104)\n    tag_105:\n      0x1f\n      add\n      0x20\n      swap1\n      div\n      swap1\n      0x00\n      mstore\n      keccak256(0x00, 0x20)\n      swap1\n      dup2\n      add\n      swap1\n      tag_106\n      swap2\n      swap1\n      tag_107\n      jump\t// in\n    tag_106:\n    tag_104:\n      pop\n      jump\t// out\n    tag_107:\n    tag_108:\n      dup1\n      dup3\n      gt\n      iszero\n      tag_109\n      jumpi\n      0x00\n      dup2\n      0x00\n      swap1\n      sstore\n      pop\n      0x01\n      add\n      jump(tag_108)\n    tag_109:\n      pop\n      swap1\n      jump\t// out\n        /* \"#utility.yul\":7:84   */\n    tag_110:\n        /* \"#utility.yul\":44:51   */\n      0x00\n        /* \"#utility.yul\":73:78   */\n      dup2\n        /* \"#utility.yul\":62:78   */\n      swap1\n      pop\n        /* \"#utility.yul\":7:84   */\n      swap2\n      swap1\n      pop\n      jump\t// out\n        /* \"#utility.yul\":90:208   */\n    tag_111:\n        /* \"#utility.yul\":177:201   */\n      tag_162\n        /* \"#utility.yul\":195:200   */\n      dup2\n        /* \"#utility.yul\":177:201   */\n      tag_110\n      jump\t// in\n    tag_162:\n        /* \"#utility.yul\":172:175   */\n      dup3\n        /* \"#utility.yul\":165:202   */\n      mstore\n        /* \"#utility.yul\":90:208   */\n      pop\n      pop\n      jump\t// out\n        /* \"#utility.yul\":214:436   */\n    tag_17:\n        /* \"#utility.yul\":307:311   */\n      0x00\n        /* \"#utility.yul\":345:347   */\n      0x20\n        /* \"#utility.yul\":334:343   */\n      dup3\n        /* \"#utility.yul\":330:348   */\n      add\n        /* \"#utility.yul\":322:348   */\n      swap1\n      pop\n        /* \"#utility.yul\":358:429   */\n      tag_164\n        /* \"#utility.yul\":426:427   */\n      0x00\n        /* \"#utility.yul\":415:424   */\n      dup4\n        /* \"#utility.yul\":411:428   */\n      add\n        /* \"#utility.yul\":402:408   */\n      dup5\n        /* \"#utility.yul\":358:429   */\n      tag_111\n      jump\t// in\n    tag_164:\n        /* \"#utility.yul\":214:436   */\n      swap3\n      swap2\n      pop\n      pop\n      jump\t// out\n        /* \"#utility.yul\":442:517   */\n    tag_112:\n        /* \"#utility.yul\":475:481   */\n      0x00\n        /* \"#utility.yul\":508:510   */\n      0x40\n        /* \"#utility.yul\":502:511   */\n      mload\n        /* \"#utility.yul\":492:511   */\n      swap1\n      pop\n        /* \"#utility.yul\":442:517   */\n      swap1\n      jump\t// out\n        /* \"#utility.yul\":523:640   */\n    tag_113:\n        /* \"#utility.yul\":632:633   */\n      0x00\n        /* \"#utility.yul\":629:630   */\n      dup1\n        /* \"#utility.yul\":622:634   */\n      revert\n        /* \"#utility.yul\":646:763   */\n    tag_114:\n        /* \"#utility.yul\":755:756   */\n      0x00\n        /* \"#utility.yul\":752:753   */\n      dup1\n        /* \"#utility.yul\":745:757   */\n      revert\n        /* \"#utility.yul\":769:895   */\n    tag_115:\n        /* \"#utility.yul\":806:813   */\n      0x00\n        /* \"#utility.yul\":846:888   */\n      0xffffffffffffffffffffffffffffffffffffffff\n        /* \"#utility.yul\":839:844   */\n      dup3\n        /* \"#utility.yul\":835:889   */\n      and\n        /* \"#utility.yul\":824:889   */\n      swap1\n      pop\n        /* \"#utility.yul\":769:895   */\n      swap2\n      swap1\n      pop\n      jump\t// out\n        /* \"#utility.yul\":901:997   */\n    tag_116:\n        /* \"#utility.yul\":938:945   */\n      0x00\n        /* \"#utility.yul\":967:991   */\n      tag_170\n        /* \"#utility.yul\":985:990   */\n      dup3\n        /* \"#utility.yul\":967:991   */\n      tag_115\n      jump\t// in\n    tag_170:\n        /* \"#utility.yul\":956:991   */\n      swap1\n      pop\n        /* \"#utility.yul\":901:997   */\n      swap2\n      swap1\n      pop\n      jump\t// out\n        /* \"#utility.yul\":1003:1125   */\n    tag_117:\n        /* \"#utility.yul\":1076:1100   */\n      tag_172\n        /* \"#utility.yul\":1094:1099   */\n      dup2\n        /* \"#utility.yul\":1076:1100   */\n      tag_116\n      jump\t// in\n    tag_172:\n        /* \"#utility.yul\":1069:1074   */\n      dup2\n        /* \"#utility.yul\":1066:1101   */\n      eq\n        /* \"#utility.yul\":1056:1119   */\n      tag_173\n      jumpi\n        /* \"#utility.yul\":1115:1116   */\n      0x00\n        /* \"#utility.yul\":1112:1113   */\n      dup1\n        /* \"#utility.yul\":1105:1117   */\n      revert\n        /* \"#utility.yul\":1056:1119   */\n    tag_173:\n        /* \"#utility.yul\":1003:1125   */\n      pop\n      jump\t// out\n        /* \"#utility.yul\":1131:1270   */\n    tag_118:\n        /* \"#utility.yul\":1177:1182   */\n      0x00\n        /* \"#utility.yul\":1215:1221   */\n      dup2\n        /* \"#utility.yul\":1202:1222   */\n      calldataload\n        /* \"#utility.yul\":1193:1222   */\n      swap1\n      pop\n        /* \"#utility.yul\":1231:1264   */\n      tag_175\n        /* \"#utility.yul\":1258:1263   */\n      dup2\n        /* \"#utility.yul\":1231:1264   */\n      tag_117\n      jump\t// in\n    tag_175:\n        /* \"#utility.yul\":1131:1270   */\n      swap3\n      swap2\n      pop\n      pop\n      jump\t// out\n        /* \"#utility.yul\":1276:1605   */\n    tag_21:\n        /* \"#utility.yul\":1335:1341   */\n      0x00\n        /* \"#utility.yul\":1384:1386   */\n      0x20\n        /* \"#utility.yul\":1372:1381   */\n      dup3\n        /* \"#utility.yul\":1363:1370   */\n      dup5\n        /* \"#utility.yul\":1359:1382   */\n      sub\n        /* \"#utility.yul\":1355:1387   */\n      slt\n        /* \"#utility.yul\":1352:1471   */\n      iszero\n      tag_177\n      jumpi\n        /* \"#utility.yul\":1390:1469   */\n      tag_178\n      tag_113\n      jump\t// in\n    tag_178:\n        /* \"#utility.yul\":1352:1471   */\n    tag_177:\n        /* \"#utility.yul\":1510:1511   */\n      0x00\n        /* \"#utility.yul\":1535:1588   */\n      tag_179\n        /* \"#utility.yul\":1580:1587   */\n      dup5\n        /* \"#utility.yul\":1571:1577   */\n      dup3\n        /* \"#utility.yul\":1560:1569   */\n      dup6\n        /* \"#utility.yul\":1556:1578   */\n      add\n        /* \"#utility.yul\":1535:1588   */\n      tag_118\n      jump\t// in\n    tag_179:\n        /* \"#utility.yul\":1525:1588   */\n      swap2\n      pop\n        /* \"#utility.yul\":1481:1598   */\n      pop\n        /* \"#utility.yul\":1276:1605   */\n      swap3\n      swap2\n      pop\n      pop\n      jump\t// out\n        /* \"#utility.yul\":1611:1719   */\n    tag_119:\n        /* \"#utility.yul\":1688:1712   */\n      tag_181\n        /* \"#utility.yul\":1706:1711   */\n      dup2\n        /* \"#utility.yul\":1688:1712   */\n      tag_110\n      jump\t// in\n    tag_181:\n        /* \"#utility.yul\":1683:1686   */\n      dup3\n        /* \"#utility.yul\":1676:1713   */\n      mstore\n        /* \"#utility.yul\":1611:1719   */\n      pop\n      pop\n      jump\t// out\n        /* \"#utility.yul\":1725:1824   */\n    tag_120:\n        /* \"#utility.yul\":1777:1783   */\n      0x00\n        /* \"#utility.yul\":1811:1816   */\n      dup2\n        /* \"#utility.yul\":1805:1817   */\n      mload\n        /* \"#utility.yul\":1795:1817   */\n      swap1\n      pop\n        /* \"#utility.yul\":1725:1824   */\n      swap2\n      swap1\n      pop\n      jump\t// out\n        /* \"#utility.yul\":1830:1989   */\n    tag_121:\n        /* \"#utility.yul\":1904:1915   */\n      0x00\n        /* \"#utility.yul\":1938:1944   */\n      dup3\n        /* \"#utility.yul\":1933:1936   */\n      dup3\n        /* \"#utility.yul\":1926:1945   */\n      mstore\n        /* \"#utility.yul\":1978:1982   */\n      0x20\n        /* \"#utility.yul\":1973:1976   */\n      dup3\n        /* \"#utility.yul\":1969:1983   */\n      add\n        /* \"#utility.yul\":1954:1983   */\n      swap1\n      pop\n        /* \"#utility.yul\":1830:1989   */\n      swap3\n      swap2\n      pop\n      pop\n      jump\t// out\n        /* \"#utility.yul\":1995:2134   */\n    tag_122:\n        /* \"#utility.yul\":2084:2090   */\n      dup3\n        /* \"#utility.yul\":2079:2082   */\n      dup2\n        /* \"#utility.yul\":2074:2077   */\n      dup4\n        /* \"#utility.yul\":2068:2091   */\n      mcopy\n        /* \"#utility.yul\":2125:2126   */\n      0x00\n        /* \"#utility.yul\":2116:2122   */\n      dup4\n        /* \"#utility.yul\":2111:2114   */\n      dup4\n        /* \"#utility.yul\":2107:2123   */\n      add\n        /* \"#utility.yul\":2100:2127   */\n      mstore\n        /* \"#utility.yul\":1995:2134   */\n      pop\n      pop\n      pop\n      jump\t// out\n        /* \"#utility.yul\":2140:2242   */\n    tag_123:\n        /* \"#utility.yul\":2181:2187   */\n      0x00\n        /* \"#utility.yul\":2232:2234   */\n      0x1f\n        /* \"#utility.yul\":2228:2235   */\n      not\n        /* \"#utility.yul\":2223:2225   */\n      0x1f\n        /* \"#utility.yul\":2216:2221   */\n      dup4\n        /* \"#utility.yul\":2212:2226   */\n      add\n        /* \"#utility.yul\":2208:2236   */\n      and\n        /* \"#utility.yul\":2198:2236   */\n      swap1\n      pop\n        /* \"#utility.yul\":2140:2242   */\n      swap2\n      swap1\n      pop\n      jump\t// out\n        /* \"#utility.yul\":2248:2605   */\n    tag_124:\n        /* \"#utility.yul\":2326:2329   */\n      0x00\n        /* \"#utility.yul\":2354:2393   */\n      tag_187\n        /* \"#utility.yul\":2387:2392   */\n      dup3\n        /* \"#utility.yul\":2354:2393   */\n      tag_120\n      jump\t// in\n    tag_187:\n        /* \"#utility.yul\":2409:2470   */\n      tag_188\n        /* \"#utility.yul\":2463:2469   */\n      dup2\n        /* \"#utility.yul\":2458:2461   */\n      dup6\n        /* \"#utility.yul\":2409:2470   */\n      tag_121\n      jump\t// in\n    tag_188:\n        /* \"#utility.yul\":2402:2470   */\n      swap4\n      pop\n        /* \"#utility.yul\":2479:2544   */\n      tag_189\n        /* \"#utility.yul\":2537:2543   */\n      dup2\n        /* \"#utility.yul\":2532:2535   */\n      dup6\n        /* \"#utility.yul\":2525:2529   */\n      0x20\n        /* \"#utility.yul\":2518:2523   */\n      dup7\n        /* \"#utility.yul\":2514:2530   */\n      add\n        /* \"#utility.yul\":2479:2544   */\n      tag_122\n      jump\t// in\n    tag_189:\n        /* \"#utility.yul\":2569:2598   */\n      tag_190\n        /* \"#utility.yul\":2591:2597   */\n      dup2\n        /* \"#utility.yul\":2569:2598   */\n      tag_123\n      jump\t// in\n    tag_190:\n        /* \"#utility.yul\":2564:2567   */\n      dup5\n        /* \"#utility.yul\":2560:2599   */\n      add\n        /* \"#utility.yul\":2553:2599   */\n      swap2\n      pop\n        /* \"#utility.yul\":2330:2605   */\n      pop\n        /* \"#utility.yul\":2248:2605   */\n      swap3\n      swap2\n      pop\n      pop\n      jump\t// out\n        /* \"#utility.yul\":2611:2719   */\n    tag_125:\n        /* \"#utility.yul\":2688:2712   */\n      tag_192\n        /* \"#utility.yul\":2706:2711   */\n      dup2\n        /* \"#utility.yul\":2688:2712   */\n      tag_116\n      jump\t// in\n    tag_192:\n        /* \"#utility.yul\":2683:2686   */\n      dup3\n        /* \"#utility.yul\":2676:2713   */\n      mstore\n        /* \"#utility.yul\":2611:2719   */\n      pop\n      pop\n      jump\t// out\n        /* \"#utility.yul\":2773:3901   */\n    tag_126:\n        /* \"#utility.yul\":2884:2887   */\n      0x00\n        /* \"#utility.yul\":2920:2924   */\n      0xa0\n        /* \"#utility.yul\":2915:2918   */\n      dup4\n        /* \"#utility.yul\":2911:2925   */\n      add\n        /* \"#utility.yul\":3009:3013   */\n      0x00\n        /* \"#utility.yul\":3002:3007   */\n      dup4\n        /* \"#utility.yul\":2998:3014   */\n      add\n        /* \"#utility.yul\":2992:3015   */\n      mload\n        /* \"#utility.yul\":3028:3091   */\n      tag_194\n        /* \"#utility.yul\":3085:3089   */\n      0x00\n        /* \"#utility.yul\":3080:3083   */\n      dup7\n        /* \"#utility.yul\":3076:3090   */\n      add\n        /* \"#utility.yul\":3062:3074   */\n      dup3\n        /* \"#utility.yul\":3028:3091   */\n      tag_119\n      jump\t// in\n    tag_194:\n        /* \"#utility.yul\":2935:3101   */\n      pop\n        /* \"#utility.yul\":3183:3187   */\n      0x20\n        /* \"#utility.yul\":3176:3181   */\n      dup4\n        /* \"#utility.yul\":3172:3188   */\n      add\n        /* \"#utility.yul\":3166:3189   */\n      mload\n        /* \"#utility.yul\":3236:3239   */\n      dup5\n        /* \"#utility.yul\":3230:3234   */\n      dup3\n        /* \"#utility.yul\":3226:3240   */\n      sub\n        /* \"#utility.yul\":3219:3223   */\n      0x20\n        /* \"#utility.yul\":3214:3217   */\n      dup7\n        /* \"#utility.yul\":3210:3224   */\n      add\n        /* \"#utility.yul\":3203:3241   */\n      mstore\n        /* \"#utility.yul\":3262:3335   */\n      tag_195\n        /* \"#utility.yul\":3330:3334   */\n      dup3\n        /* \"#utility.yul\":3316:3328   */\n      dup3\n        /* \"#utility.yul\":3262:3335   */\n      tag_124\n      jump\t// in\n    tag_195:\n        /* \"#utility.yul\":3254:3335   */\n      swap2\n      pop\n        /* \"#utility.yul\":3111:3346   */\n      pop\n        /* \"#utility.yul\":3430:3434   */\n      0x40\n        /* \"#utility.yul\":3423:3428   */\n      dup4\n        /* \"#utility.yul\":3419:3435   */\n      add\n        /* \"#utility.yul\":3413:3436   */\n      mload\n        /* \"#utility.yul\":3449:3512   */\n      tag_196\n        /* \"#utility.yul\":3506:3510   */\n      0x40\n        /* \"#utility.yul\":3501:3504   */\n      dup7\n        /* \"#utility.yul\":3497:3511   */\n      add\n        /* \"#utility.yul\":3483:3495   */\n      dup3\n        /* \"#utility.yul\":3449:3512   */\n      tag_125\n      jump\t// in\n    tag_196:\n        /* \"#utility.yul\":3356:3522   */\n      pop\n        /* \"#utility.yul\":3607:3611   */\n      0x60\n        /* \"#utility.yul\":3600:3605   */\n      dup4\n        /* \"#utility.yul\":3596:3612   */\n      add\n        /* \"#utility.yul\":3590:3613   */\n      mload\n        /* \"#utility.yul\":3626:3689   */\n      tag_197\n        /* \"#utility.yul\":3683:3687   */\n      0x60\n        /* \"#utility.yul\":3678:3681   */\n      dup7\n        /* \"#utility.yul\":3674:3688   */\n      add\n        /* \"#utility.yul\":3660:3672   */\n      dup3\n        /* \"#utility.yul\":3626:3689   */\n      tag_119\n      jump\t// in\n    tag_197:\n        /* \"#utility.yul\":3532:3699   */\n      pop\n        /* \"#utility.yul\":3782:3786   */\n      0x80\n        /* \"#utility.yul\":3775:3780   */\n      dup4\n        /* \"#utility.yul\":3771:3787   */\n      add\n        /* \"#utility.yul\":3765:3788   */\n      mload\n        /* \"#utility.yul\":3801:3864   */\n      tag_198\n        /* \"#utility.yul\":3858:3862   */\n      0x80\n        /* \"#utility.yul\":3853:3856   */\n      dup7\n        /* \"#utility.yul\":3849:3863   */\n      add\n        /* \"#utility.yul\":3835:3847   */\n      dup3\n        /* \"#utility.yul\":3801:3864   */\n      tag_119\n      jump\t// in\n    tag_198:\n        /* \"#utility.yul\":3709:3874   */\n      pop\n        /* \"#utility.yul\":3891:3895   */\n      dup1\n        /* \"#utility.yul\":3884:3895   */\n      swap2\n      pop\n        /* \"#utility.yul\":2889:3901   */\n      pop\n        /* \"#utility.yul\":2773:3901   */\n      swap3\n      swap2\n      pop\n      pop\n      jump\t// out\n        /* \"#utility.yul\":3907:4264   */\n    tag_24:\n        /* \"#utility.yul\":4042:4046   */\n      0x00\n        /* \"#utility.yul\":4080:4082   */\n      0x20\n        /* \"#utility.yul\":4069:4078   */\n      dup3\n        /* \"#utility.yul\":4065:4083   */\n      add\n        /* \"#utility.yul\":4057:4083   */\n      swap1\n      pop\n        /* \"#utility.yul\":4129:4138   */\n      dup2\n        /* \"#utility.yul\":4123:4127   */\n      dup2\n        /* \"#utility.yul\":4119:4139   */\n      sub\n        /* \"#utility.yul\":4115:4116   */\n      0x00\n        /* \"#utility.yul\":4104:4113   */\n      dup4\n        /* \"#utility.yul\":4100:4117   */\n      add\n        /* \"#utility.yul\":4093:4140   */\n      mstore\n        /* \"#utility.yul\":4157:4257   */\n      tag_200\n        /* \"#utility.yul\":4252:4256   */\n      dup2\n        /* \"#utility.yul\":4243:4249   */\n      dup5\n        /* \"#utility.yul\":4157:4257   */\n      tag_126\n      jump\t// in\n    tag_200:\n        /* \"#utility.yul\":4149:4257   */\n      swap1\n      pop\n        /* \"#utility.yul\":3907:4264   */\n      swap3\n      swap2\n      pop\n      pop\n      jump\t// out\n        /* \"#utility.yul\":4270:4387   */\n    tag_127:\n        /* \"#utility.yul\":4379:4380   */\n      0x00\n        /* \"#utility.yul\":4376:4377   */\n      dup1\n        /* \"#utility.yul\":4369:4381   */\n      revert\n        /* \"#utility.yul\":4393:4510   */\n    tag_128:\n        /* \"#utility.yul\":4502:4503   */\n      0x00\n        /* \"#utility.yul\":4499:4500   */\n      dup1\n        /* \"#utility.yul\":4492:4504   */\n      revert\n        /* \"#utility.yul\":4516:4696   */\n    tag_129:\n        /* \"#utility.yul\":4564:4641   */\n      0x4e487b7100000000000000000000000000000000000000000000000000000000\n        /* \"#utility.yul\":4561:4562   */\n      0x00\n        /* \"#utility.yul\":4554:4642   */\n      mstore\n        /* \"#utility.yul\":4661:4665   */\n      0x41\n        /* \"#utility.yul\":4658:4659   */\n      0x04\n        /* \"#utility.yul\":4651:4666   */\n      mstore\n        /* \"#utility.yul\":4685:4689   */\n      0x24\n        /* \"#utility.yul\":4682:4683   */\n      0x00\n        /* \"#utility.yul\":4675:4690   */\n      revert\n        /* \"#utility.yul\":4702:4983   */\n    tag_130:\n        /* \"#utility.yul\":4785:4812   */\n      tag_205\n        /* \"#utility.yul\":4807:4811   */\n      dup3\n        /* \"#utility.yul\":4785:4812   */\n      tag_123\n      jump\t// in\n    tag_205:\n        /* \"#utility.yul\":4777:4783   */\n      dup2\n        /* \"#utility.yul\":4773:4813   */\n      add\n        /* \"#utility.yul\":4915:4921   */\n      dup2\n        /* \"#utility.yul\":4903:4913   */\n      dup2\n        /* \"#utility.yul\":4900:4922   */\n      lt\n        /* \"#utility.yul\":4879:4897   */\n      0xffffffffffffffff\n        /* \"#utility.yul\":4867:4877   */\n      dup3\n        /* \"#utility.yul\":4864:4898   */\n      gt\n        /* \"#utility.yul\":4861:4923   */\n      or\n        /* \"#utility.yul\":4858:4946   */\n      iszero\n      tag_206\n      jumpi\n        /* \"#utility.yul\":4926:4944   */\n      tag_207\n      tag_129\n      jump\t// in\n    tag_207:\n        /* \"#utility.yul\":4858:4946   */\n    tag_206:\n        /* \"#utility.yul\":4966:4976   */\n      dup1\n        /* \"#utility.yul\":4962:4964   */\n      0x40\n        /* \"#utility.yul\":4955:4977   */\n      mstore\n        /* \"#utility.yul\":4745:4983   */\n      pop\n        /* \"#utility.yul\":4702:4983   */\n      pop\n      pop\n      jump\t// out\n        /* \"#utility.yul\":4989:5118   */\n    tag_131:\n        /* \"#utility.yul\":5023:5029   */\n      0x00\n        /* \"#utility.yul\":5050:5070   */\n      tag_209\n      tag_112\n      jump\t// in\n    tag_209:\n        /* \"#utility.yul\":5040:5070   */\n      swap1\n      pop\n        /* \"#utility.yul\":5079:5112   */\n      tag_210\n        /* \"#utility.yul\":5107:5111   */\n      dup3\n        /* \"#utility.yul\":5099:5105   */\n      dup3\n        /* \"#utility.yul\":5079:5112   */\n      tag_130\n      jump\t// in\n    tag_210:\n        /* \"#utility.yul\":4989:5118   */\n      swap2\n      swap1\n      pop\n      jump\t// out\n        /* \"#utility.yul\":5124:5432   */\n    tag_132:\n        /* \"#utility.yul\":5186:5190   */\n      0x00\n        /* \"#utility.yul\":5276:5294   */\n      0xffffffffffffffff\n        /* \"#utility.yul\":5268:5274   */\n      dup3\n        /* \"#utility.yul\":5265:5295   */\n      gt\n        /* \"#utility.yul\":5262:5318   */\n      iszero\n      tag_212\n      jumpi\n        /* \"#utility.yul\":5298:5316   */\n      tag_213\n      tag_129\n      jump\t// in\n    tag_213:\n        /* \"#utility.yul\":5262:5318   */\n    tag_212:\n        /* \"#utility.yul\":5336:5365   */\n      tag_214\n        /* \"#utility.yul\":5358:5364   */\n      dup3\n        /* \"#utility.yul\":5336:5365   */\n      tag_123\n      jump\t// in\n    tag_214:\n        /* \"#utility.yul\":5328:5365   */\n      swap1\n      pop\n        /* \"#utility.yul\":5420:5424   */\n      0x20\n        /* \"#utility.yul\":5414:5418   */\n      dup2\n        /* \"#utility.yul\":5410:5425   */\n      add\n        /* \"#utility.yul\":5402:5425   */\n      swap1\n      pop\n        /* \"#utility.yul\":5124:5432   */\n      swap2\n      swap1\n      pop\n      jump\t// out\n        /* \"#utility.yul\":5438:5586   */\n    tag_133:\n        /* \"#utility.yul\":5536:5542   */\n      dup3\n        /* \"#utility.yul\":5531:5534   */\n      dup2\n        /* \"#utility.yul\":5526:5529   */\n      dup4\n        /* \"#utility.yul\":5513:5543   */\n      calldatacopy\n        /* \"#utility.yul\":5577:5578   */\n      0x00\n        /* \"#utility.yul\":5568:5574   */\n      dup4\n        /* \"#utility.yul\":5563:5566   */\n      dup4\n        /* \"#utility.yul\":5559:5575   */\n      add\n        /* \"#utility.yul\":5552:5579   */\n      mstore\n        /* \"#utility.yul\":5438:5586   */\n      pop\n      pop\n      pop\n      jump\t// out\n        /* \"#utility.yul\":5592:6017   */\n    tag_134:\n        /* \"#utility.yul\":5670:5675   */\n      0x00\n        /* \"#utility.yul\":5695:5761   */\n      tag_217\n        /* \"#utility.yul\":5711:5760   */\n      tag_218\n        /* \"#utility.yul\":5753:5759   */\n      dup5\n        /* \"#utility.yul\":5711:5760   */\n      tag_132\n      jump\t// in\n    tag_218:\n        /* \"#utility.yul\":5695:5761   */\n      tag_131\n      jump\t// in\n    tag_217:\n        /* \"#utility.yul\":5686:5761   */\n      swap1\n      pop\n        /* \"#utility.yul\":5784:5790   */\n      dup3\n        /* \"#utility.yul\":5777:5782   */\n      dup2\n        /* \"#utility.yul\":5770:5791   */\n      mstore\n        /* \"#utility.yul\":5822:5826   */\n      0x20\n        /* \"#utility.yul\":5815:5820   */\n      dup2\n        /* \"#utility.yul\":5811:5827   */\n      add\n        /* \"#utility.yul\":5860:5863   */\n      dup5\n        /* \"#utility.yul\":5851:5857   */\n      dup5\n        /* \"#utility.yul\":5846:5849   */\n      dup5\n        /* \"#utility.yul\":5842:5858   */\n      add\n        /* \"#utility.yul\":5839:5864   */\n      gt\n        /* \"#utility.yul\":5836:5948   */\n      iszero\n      tag_219\n      jumpi\n        /* \"#utility.yul\":5867:5946   */\n      tag_220\n      tag_128\n      jump\t// in\n    tag_220:\n        /* \"#utility.yul\":5836:5948   */\n    tag_219:\n        /* \"#utility.yul\":5957:6011   */\n      tag_221\n        /* \"#utility.yul\":6004:6010   */\n      dup5\n        /* \"#utility.yul\":5999:6002   */\n      dup3\n        /* \"#utility.yul\":5994:5997   */\n      dup6\n        /* \"#utility.yul\":5957:6011   */\n      tag_133\n      jump\t// in\n    tag_221:\n        /* \"#utility.yul\":5676:6017   */\n      pop\n        /* \"#utility.yul\":5592:6017   */\n      swap4\n      swap3\n      pop\n      pop\n      pop\n      jump\t// out\n        /* \"#utility.yul\":6037:6377   */\n    tag_135:\n        /* \"#utility.yul\":6093:6098   */\n      0x00\n        /* \"#utility.yul\":6142:6145   */\n      dup3\n        /* \"#utility.yul\":6135:6139   */\n      0x1f\n        /* \"#utility.yul\":6127:6133   */\n      dup4\n        /* \"#utility.yul\":6123:6140   */\n      add\n        /* \"#utility.yul\":6119:6146   */\n      slt\n        /* \"#utility.yul\":6109:6231   */\n      tag_223\n      jumpi\n        /* \"#utility.yul\":6150:6229   */\n      tag_224\n      tag_127\n      jump\t// in\n    tag_224:\n        /* \"#utility.yul\":6109:6231   */\n    tag_223:\n        /* \"#utility.yul\":6267:6273   */\n      dup2\n        /* \"#utility.yul\":6254:6274   */\n      calldataload\n        /* \"#utility.yul\":6292:6371   */\n      tag_225\n        /* \"#utility.yul\":6367:6370   */\n      dup5\n        /* \"#utility.yul\":6359:6365   */\n      dup3\n        /* \"#utility.yul\":6352:6356   */\n      0x20\n        /* \"#utility.yul\":6344:6350   */\n      dup7\n        /* \"#utility.yul\":6340:6357   */\n      add\n        /* \"#utility.yul\":6292:6371   */\n      tag_134\n      jump\t// in\n    tag_225:\n        /* \"#utility.yul\":6283:6371   */\n      swap2\n      pop\n        /* \"#utility.yul\":6099:6377   */\n      pop\n        /* \"#utility.yul\":6037:6377   */\n      swap3\n      swap2\n      pop\n      pop\n      jump\t// out\n        /* \"#utility.yul\":6383:6892   */\n    tag_37:\n        /* \"#utility.yul\":6452:6458   */\n      0x00\n        /* \"#utility.yul\":6501:6503   */\n      0x20\n        /* \"#utility.yul\":6489:6498   */\n      dup3\n        /* \"#utility.yul\":6480:6487   */\n      dup5\n        /* \"#utility.yul\":6476:6499   */\n      sub\n        /* \"#utility.yul\":6472:6504   */\n      slt\n        /* \"#utility.yul\":6469:6588   */\n      iszero\n      tag_227\n      jumpi\n        /* \"#utility.yul\":6507:6586   */\n      tag_228\n      tag_113\n      jump\t// in\n    tag_228:\n        /* \"#utility.yul\":6469:6588   */\n    tag_227:\n        /* \"#utility.yul\":6655:6656   */\n      0x00\n        /* \"#utility.yul\":6644:6653   */\n      dup3\n        /* \"#utility.yul\":6640:6657   */\n      add\n        /* \"#utility.yul\":6627:6658   */\n      calldataload\n        /* \"#utility.yul\":6685:6703   */\n      0xffffffffffffffff\n        /* \"#utility.yul\":6677:6683   */\n      dup2\n        /* \"#utility.yul\":6674:6704   */\n      gt\n        /* \"#utility.yul\":6671:6788   */\n      iszero\n      tag_229\n      jumpi\n        /* \"#utility.yul\":6707:6786   */\n      tag_230\n      tag_114\n      jump\t// in\n    tag_230:\n        /* \"#utility.yul\":6671:6788   */\n    tag_229:\n        /* \"#utility.yul\":6812:6875   */\n      tag_231\n        /* \"#utility.yul\":6867:6874   */\n      dup5\n        /* \"#utility.yul\":6858:6864   */\n      dup3\n        /* \"#utility.yul\":6847:6856   */\n      dup6\n        /* \"#utility.yul\":6843:6865   */\n      add\n        /* \"#utility.yul\":6812:6875   */\n      tag_135\n      jump\t// in\n    tag_231:\n        /* \"#utility.yul\":6802:6875   */\n      swap2\n      pop\n        /* \"#utility.yul\":6598:6885   */\n      pop\n        /* \"#utility.yul\":6383:6892   */\n      swap3\n      swap2\n      pop\n      pop\n      jump\t// out\n        /* \"#utility.yul\":6898:7067   */\n    tag_136:\n        /* \"#utility.yul\":6982:6993   */\n      0x00\n        /* \"#utility.yul\":7016:7022   */\n      dup3\n        /* \"#utility.yul\":7011:7014   */\n      dup3\n        /* \"#utility.yul\":7004:7023   */\n      mstore\n        /* \"#utility.yul\":7056:7060   */\n      0x20\n        /* \"#utility.yul\":7051:7054   */\n      dup3\n        /* \"#utility.yul\":7047:7061   */\n      add\n        /* \"#utility.yul\":7032:7061   */\n      swap1\n      pop\n        /* \"#utility.yul\":6898:7067   */\n      swap3\n      swap2\n      pop\n      pop\n      jump\t// out\n        /* \"#utility.yul\":7073:7227   */\n    tag_137:\n        /* \"#utility.yul\":7213:7219   */\n      0x6e6f706500000000000000000000000000000000000000000000000000000000\n        /* \"#utility.yul\":7209:7210   */\n      0x00\n        /* \"#utility.yul\":7201:7207   */\n      dup3\n        /* \"#utility.yul\":7197:7211   */\n      add\n        /* \"#utility.yul\":7190:7220   */\n      mstore\n        /* \"#utility.yul\":7073:7227   */\n      pop\n      jump\t// out\n        /* \"#utility.yul\":7233:7598   */\n    tag_138:\n        /* \"#utility.yul\":7375:7378   */\n      0x00\n        /* \"#utility.yul\":7396:7462   */\n      tag_235\n        /* \"#utility.yul\":7460:7461   */\n      0x04\n        /* \"#utility.yul\":7455:7458   */\n      dup4\n        /* \"#utility.yul\":7396:7462   */\n      tag_136\n      jump\t// in\n    tag_235:\n        /* \"#utility.yul\":7389:7462   */\n      swap2\n      pop\n        /* \"#utility.yul\":7471:7564   */\n      tag_236\n        /* \"#utility.yul\":7560:7563   */\n      dup3\n        /* \"#utility.yul\":7471:7564   */\n      tag_137\n      jump\t// in\n    tag_236:\n        /* \"#utility.yul\":7589:7591   */\n      0x20\n        /* \"#utility.yul\":7584:7587   */\n      dup3\n        /* \"#utility.yul\":7580:7592   */\n      add\n        /* \"#utility.yul\":7573:7592   */\n      swap1\n      pop\n        /* \"#utility.yul\":7233:7598   */\n      swap2\n      swap1\n      pop\n      jump\t// out\n        /* \"#utility.yul\":7604:8023   */\n    tag_42:\n        /* \"#utility.yul\":7770:7774   */\n      0x00\n        /* \"#utility.yul\":7808:7810   */\n      0x20\n        /* \"#utility.yul\":7797:7806   */\n      dup3\n        /* \"#utility.yul\":7793:7811   */\n      add\n        /* \"#utility.yul\":7785:7811   */\n      swap1\n      pop\n        /* \"#utility.yul\":7857:7866   */\n      dup2\n        /* \"#utility.yul\":7851:7855   */\n      dup2\n        /* \"#utility.yul\":7847:7867   */\n      sub\n        /* \"#utility.yul\":7843:7844   */\n      0x00\n        /* \"#utility.yul\":7832:7841   */\n      dup4\n        /* \"#utility.yul\":7828:7845   */\n      add\n        /* \"#utility.yul\":7821:7868   */\n      mstore\n        /* \"#utility.yul\":7885:8016   */\n      tag_238\n        /* \"#utility.yul\":8011:8015   */\n      dup2\n        /* \"#utility.yul\":7885:8016   */\n      tag_138\n      jump\t// in\n    tag_238:\n        /* \"#utility.yul\":7877:8016   */\n      swap1\n      pop\n        /* \"#utility.yul\":7604:8023   */\n      swap2\n      swap1\n      pop\n      jump\t// out\n        /* \"#utility.yul\":8029:8209   */\n    tag_139:\n        /* \"#utility.yul\":8077:8154   */\n      0x4e487b7100000000000000000000000000000000000000000000000000000000\n        /* \"#utility.yul\":8074:8075   */\n      0x00\n        /* \"#utility.yul\":8067:8155   */\n      mstore\n        /* \"#utility.yul\":8174:8178   */\n      0x11\n        /* \"#utility.yul\":8171:8172   */\n      0x04\n        /* \"#utility.yul\":8164:8179   */\n      mstore\n        /* \"#utility.yul\":8198:8202   */\n      0x24\n        /* \"#utility.yul\":8195:8196   */\n      0x00\n        /* \"#utility.yul\":8188:8203   */\n      revert\n        /* \"#utility.yul\":8215:8409   */\n    tag_44:\n        /* \"#utility.yul\":8255:8259   */\n      0x00\n        /* \"#utility.yul\":8275:8295   */\n      tag_241\n        /* \"#utility.yul\":8293:8294   */\n      dup3\n        /* \"#utility.yul\":8275:8295   */\n      tag_110\n      jump\t// in\n    tag_241:\n        /* \"#utility.yul\":8270:8295   */\n      swap2\n      pop\n        /* \"#utility.yul\":8309:8329   */\n      tag_242\n        /* \"#utility.yul\":8327:8328   */\n      dup4\n        /* \"#utility.yul\":8309:8329   */\n      tag_110\n      jump\t// in\n    tag_242:\n        /* \"#utility.yul\":8304:8329   */\n      swap3\n      pop\n        /* \"#utility.yul\":8353:8354   */\n      dup3\n        /* \"#utility.yul\":8350:8351   */\n      dup3\n        /* \"#utility.yul\":8346:8355   */\n      sub\n        /* \"#utility.yul\":8338:8355   */\n      swap1\n      pop\n        /* \"#utility.yul\":8377:8378   */\n      dup2\n        /* \"#utility.yul\":8371:8375   */\n      dup2\n        /* \"#utility.yul\":8368:8379   */\n      gt\n        /* \"#utility.yul\":8365:8402   */\n      iszero\n      tag_243\n      jumpi\n        /* \"#utility.yul\":8382:8400   */\n      tag_244\n      tag_139\n      jump\t// in\n    tag_244:\n        /* \"#utility.yul\":8365:8402   */\n    tag_243:\n        /* \"#utility.yul\":8215:8409   */\n      swap3\n      swap2\n      pop\n      pop\n      jump\t// out\n        /* \"#utility.yul\":8415:8595   */\n    tag_140:\n        /* \"#utility.yul\":8463:8540   */\n      0x4e487b7100000000000000000000000000000000000000000000000000000000\n        /* \"#utility.yul\":8460:8461   */\n      0x00\n        /* \"#utility.yul\":8453:8541   */\n      mstore\n        /* \"#utility.yul\":8560:8564   */\n      0x22\n        /* \"#utility.yul\":8557:8558   */\n      0x04\n        /* \"#utility.yul\":8550:8565   */\n      mstore\n        /* \"#utility.yul\":8584:8588   */\n      0x24\n        /* \"#utility.yul\":8581:8582   */\n      0x00\n        /* \"#utility.yul\":8574:8589   */\n      revert\n        /* \"#utility.yul\":8601:8921   */\n    tag_49:\n        /* \"#utility.yul\":8645:8651   */\n      0x00\n        /* \"#utility.yul\":8682:8683   */\n      0x02\n        /* \"#utility.yul\":8676:8680   */\n      dup3\n        /* \"#utility.yul\":8672:8684   */\n      div\n        /* \"#utility.yul\":8662:8684   */\n      swap1\n      pop\n        /* \"#utility.yul\":8729:8730   */\n      0x01\n        /* \"#utility.yul\":8723:8727   */\n      dup3\n        /* \"#utility.yul\":8719:8731   */\n      and\n        /* \"#utility.yul\":8750:8768   */\n      dup1\n        /* \"#utility.yul\":8740:8821   */\n      tag_247\n      jumpi\n        /* \"#utility.yul\":8806:8810   */\n      0x7f\n        /* \"#utility.yul\":8798:8804   */\n      dup3\n        /* \"#utility.yul\":8794:8811   */\n      and\n        /* \"#utility.yul\":8784:8811   */\n      swap2\n      pop\n        /* \"#utility.yul\":8740:8821   */\n    tag_247:\n        /* \"#utility.yul\":8868:8870   */\n      0x20\n        /* \"#utility.yul\":8860:8866   */\n      dup3\n        /* \"#utility.yul\":8857:8871   */\n      lt\n        /* \"#utility.yul\":8837:8855   */\n      dup2\n        /* \"#utility.yul\":8834:8872   */\n      sub\n        /* \"#utility.yul\":8831:8915   */\n      tag_248\n      jumpi\n        /* \"#utility.yul\":8887:8905   */\n      tag_249\n      tag_140\n      jump\t// in\n    tag_249:\n        /* \"#utility.yul\":8831:8915   */\n    tag_248:\n        /* \"#utility.yul\":8652:8921   */\n      pop\n        /* \"#utility.yul\":8601:8921   */\n      swap2\n      swap1\n      pop\n      jump\t// out\n        /* \"#utility.yul\":8927:9107   */\n    tag_61:\n        /* \"#utility.yul\":8975:9052   */\n      0x4e487b7100000000000000000000000000000000000000000000000000000000\n        /* \"#utility.yul\":8972:8973   */\n      0x00\n        /* \"#utility.yul\":8965:9053   */\n      mstore\n        /* \"#utility.yul\":9072:9076   */\n      0x32\n        /* \"#utility.yul\":9069:9070   */\n      0x04\n        /* \"#utility.yul\":9062:9077   */\n      mstore\n        /* \"#utility.yul\":9096:9100   */\n      0x24\n        /* \"#utility.yul\":9093:9094   */\n      0x00\n        /* \"#utility.yul\":9086:9101   */\n      revert\n        /* \"#utility.yul\":9113:9304   */\n    tag_64:\n        /* \"#utility.yul\":9153:9156   */\n      0x00\n        /* \"#utility.yul\":9172:9192   */\n      tag_252\n        /* \"#utility.yul\":9190:9191   */\n      dup3\n        /* \"#utility.yul\":9172:9192   */\n      tag_110\n      jump\t// in\n    tag_252:\n        /* \"#utility.yul\":9167:9192   */\n      swap2\n      pop\n        /* \"#utility.yul\":9206:9226   */\n      tag_253\n        /* \"#utility.yul\":9224:9225   */\n      dup4\n        /* \"#utility.yul\":9206:9226   */\n      tag_110\n      jump\t// in\n    tag_253:\n        /* \"#utility.yul\":9201:9226   */\n      swap3\n      pop\n        /* \"#utility.yul\":9249:9250   */\n      dup3\n        /* \"#utility.yul\":9246:9247   */\n      dup3\n        /* \"#utility.yul\":9242:9251   */\n      add\n        /* \"#utility.yul\":9235:9251   */\n      swap1\n      pop\n        /* \"#utility.yul\":9270:9273   */\n      dup1\n        /* \"#utility.yul\":9267:9268   */\n      dup3\n        /* \"#utility.yul\":9264:9274   */\n      gt\n        /* \"#utility.yul\":9261:9297   */\n      iszero\n      tag_254\n      jumpi\n        /* \"#utility.yul\":9277:9295   */\n      tag_255\n      tag_139\n      jump\t// in\n    tag_255:\n        /* \"#utility.yul\":9261:9297   */\n    tag_254:\n        /* \"#utility.yul\":9113:9304   */\n      swap3\n      swap2\n      pop\n      pop\n      jump\t// out\n        /* \"#utility.yul\":9310:9464   */\n    tag_141:\n        /* \"#utility.yul\":9450:9456   */\n      0x4e4f504500000000000000000000000000000000000000000000000000000000\n        /* \"#utility.yul\":9446:9447   */\n      0x00\n        /* \"#utility.yul\":9438:9444   */\n      dup3\n        /* \"#utility.yul\":9434:9448   */\n      add\n        /* \"#utility.yul\":9427:9457   */\n      mstore\n        /* \"#utility.yul\":9310:9464   */\n      pop\n      jump\t// out\n        /* \"#utility.yul\":9470:9835   */\n    tag_142:\n        /* \"#utility.yul\":9612:9615   */\n      0x00\n        /* \"#utility.yul\":9633:9699   */\n      tag_258\n        /* \"#utility.yul\":9697:9698   */\n      0x04\n        /* \"#utility.yul\":9692:9695   */\n      dup4\n        /* \"#utility.yul\":9633:9699   */\n      tag_136\n      jump\t// in\n    tag_258:\n        /* \"#utility.yul\":9626:9699   */\n      swap2\n      pop\n        /* \"#utility.yul\":9708:9801   */\n      tag_259\n        /* \"#utility.yul\":9797:9800   */\n      dup3\n        /* \"#utility.yul\":9708:9801   */\n      tag_141\n      jump\t// in\n    tag_259:\n        /* \"#utility.yul\":9826:9828   */\n      0x20\n        /* \"#utility.yul\":9821:9824   */\n      dup3\n        /* \"#utility.yul\":9817:9829   */\n      add\n        /* \"#utility.yul\":9810:9829   */\n      swap1\n      pop\n        /* \"#utility.yul\":9470:9835   */\n      swap2\n      swap1\n      pop\n      jump\t// out\n        /* \"#utility.yul\":9841:10260   */\n    tag_68:\n        /* \"#utility.yul\":10007:10011   */\n      0x00\n        /* \"#utility.yul\":10045:10047   */\n      0x20\n        /* \"#utility.yul\":10034:10043   */\n      dup3\n        /* \"#utility.yul\":10030:10048   */\n      add\n        /* \"#utility.yul\":10022:10048   */\n      swap1\n      pop\n        /* \"#utility.yul\":10094:10103   */\n      dup2\n        /* \"#utility.yul\":10088:10092   */\n      dup2\n        /* \"#utility.yul\":10084:10104   */\n      sub\n        /* \"#utility.yul\":10080:10081   */\n      0x00\n        /* \"#utility.yul\":10069:10078   */\n      dup4\n        /* \"#utility.yul\":10065:10082   */\n      add\n        /* \"#utility.yul\":10058:10105   */\n      mstore\n        /* \"#utility.yul\":10122:10253   */\n      tag_261\n        /* \"#utility.yul\":10248:10252   */\n      dup2\n        /* \"#utility.yul\":10122:10253   */\n      tag_142\n      jump\t// in\n    tag_261:\n        /* \"#utility.yul\":10114:10253   */\n      swap1\n      pop\n        /* \"#utility.yul\":9841:10260   */\n      swap2\n      swap1\n      pop\n      jump\t// out\n        /* \"#utility.yul\":10266:10415   */\n    tag_143:\n        /* \"#utility.yul\":10315:10321   */\n      0x00\n        /* \"#utility.yul\":10349:10354   */\n      dup2\n        /* \"#utility.yul\":10343:10355   */\n      sload\n        /* \"#utility.yul\":10333:10355   */\n      swap1\n      pop\n        /* \"#utility.yul\":10375:10408   */\n      tag_263\n        /* \"#utility.yul\":10401:10407   */\n      dup2\n        /* \"#utility.yul\":10375:10408   */\n      tag_49\n      jump\t// in\n    tag_263:\n        /* \"#utility.yul\":10365:10408   */\n      swap1\n      pop\n        /* \"#utility.yul\":10266:10415   */\n      swap2\n      swap1\n      pop\n      jump\t// out\n        /* \"#utility.yul\":10421:10562   */\n    tag_144:\n        /* \"#utility.yul\":10470:10474   */\n      0x00\n        /* \"#utility.yul\":10493:10496   */\n      dup2\n        /* \"#utility.yul\":10485:10496   */\n      swap1\n      pop\n        /* \"#utility.yul\":10516:10519   */\n      dup2\n        /* \"#utility.yul\":10513:10514   */\n      0x00\n        /* \"#utility.yul\":10506:10520   */\n      mstore\n        /* \"#utility.yul\":10550:10554   */\n      0x20\n        /* \"#utility.yul\":10547:10548   */\n      0x00\n        /* \"#utility.yul\":10537:10555   */\n      keccak256\n        /* \"#utility.yul\":10529:10555   */\n      swap1\n      pop\n        /* \"#utility.yul\":10421:10562   */\n      swap2\n      swap1\n      pop\n      jump\t// out\n        /* \"#utility.yul\":10568:10661   */\n    tag_145:\n        /* \"#utility.yul\":10605:10611   */\n      0x00\n        /* \"#utility.yul\":10652:10654   */\n      0x20\n        /* \"#utility.yul\":10647:10649   */\n      0x1f\n        /* \"#utility.yul\":10640:10645   */\n      dup4\n        /* \"#utility.yul\":10636:10650   */\n      add\n        /* \"#utility.yul\":10632:10655   */\n      div\n        /* \"#utility.yul\":10622:10655   */\n      swap1\n      pop\n        /* \"#utility.yul\":10568:10661   */\n      swap2\n      swap1\n      pop\n      jump\t// out\n        /* \"#utility.yul\":10667:10774   */\n    tag_146:\n        /* \"#utility.yul\":10711:10719   */\n      0x00\n        /* \"#utility.yul\":10761:10766   */\n      dup3\n        /* \"#utility.yul\":10755:10759   */\n      dup3\n        /* \"#utility.yul\":10751:10767   */\n      shl\n        /* \"#utility.yul\":10730:10767   */\n      swap1\n      pop\n        /* \"#utility.yul\":10667:10774   */\n      swap3\n      swap2\n      pop\n      pop\n      jump\t// out\n        /* \"#utility.yul\":10780:11173   */\n    tag_147:\n        /* \"#utility.yul\":10849:10855   */\n      0x00\n        /* \"#utility.yul\":10899:10900   */\n      0x08\n        /* \"#utility.yul\":10887:10897   */\n      dup4\n        /* \"#utility.yul\":10883:10901   */\n      mul\n        /* \"#utility.yul\":10922:11019   */\n      tag_268\n        /* \"#utility.yul\":10952:11018   */\n      0xffffffffffffffffffffffffffffffffffffffffffffffffffffffffffffffff\n        /* \"#utility.yul\":10941:10950   */\n      dup3\n        /* \"#utility.yul\":10922:11019   */\n      tag_146\n      jump\t// in\n    tag_268:\n        /* \"#utility.yul\":11040:11079   */\n      tag_269\n        /* \"#utility.yul\":11070:11078   */\n      dup7\n        /* \"#utility.yul\":11059:11068   */\n      dup4\n        /* \"#utility.yul\":11040:11079   */\n      tag_146\n      jump\t// in\n    tag_269:\n        /* \"#utility.yul\":11028:11079   */\n      swap6\n      pop\n        /* \"#utility.yul\":11112:11116   */\n      dup1\n        /* \"#utility.yul\":11108:11117   */\n      not\n        /* \"#utility.yul\":11101:11106   */\n      dup5\n        /* \"#utility.yul\":11097:11118   */\n      and\n        /* \"#utility.yul\":11088:11118   */\n      swap4\n      pop\n        /* \"#utility.yul\":11161:11165   */\n      dup1\n        /* \"#utility.yul\":11151:11159   */\n      dup7\n        /* \"#utility.yul\":11147:11166   */\n      and\n        /* \"#utility.yul\":11140:11145   */\n      dup5\n        /* \"#utility.yul\":11137:11167   */\n      or\n        /* \"#utility.yul\":11127:11167   */\n      swap3\n      pop\n        /* \"#utility.yul\":10856:11173   */\n      pop\n      pop\n        /* \"#utility.yul\":10780:11173   */\n      swap4\n      swap3\n      pop\n      pop\n      pop\n      jump\t// out\n        /* \"#utility.yul\":11179:11239   */\n    tag_148:\n        /* \"#utility.yul\":11207:11210   */\n      0x00\n        /* \"#utility.yul\":11228:11233   */\n      dup2\n        /* \"#utility.yul\":11221:11233   */\n      swap1\n      pop\n        /* \"#utility.yul\":11179:11239   */\n      swap2\n      swap1\n      pop\n      jump\t// out\n        /* \"#utility.yul\":11245:11387   */\n    tag_149:\n        /* \"#utility.yul\":11295:11304   */\n      0x00\n        /* \"#utility.yul\":11328:11381   */\n      tag_272\n        /* \"#utility.yul\":11346:11380   */\n      tag_273\n        /* \"#utility.yul\":11355:11379   */\n      tag_274\n        /* \"#utility.yul\":11373:11378   */\n      dup5\n        /* \"#utility.yul\":11355:11379   */\n      tag_110\n      jump\t// in\n    tag_274:\n        /* \"#utility.yul\":11346:11380   */\n      tag_148\n      jump\t// in\n    tag_273:\n        /* \"#utility.yul\":11328:11381   */\n      tag_110\n      jump\t// in\n    tag_272:\n        /* \"#utility.yul\":11315:11381   */\n      swap1\n      pop\n        /* \"#utility.yul\":11245:11387   */\n      swap2\n      swap1\n      pop\n      jump\t// out\n        /* \"#utility.yul\":11393:11468   */\n    tag_150:\n        /* \"#utility.yul\":11436:11439   */\n      0x00\n        /* \"#utility.yul\":11457:11462   */\n      dup2\n        /* \"#utility.yul\":11450:11462   */\n      swap1\n      pop\n        /* \"#utility.yul\":11393:11468   */\n      swap2\n      swap1\n      pop\n      jump\t// out\n        /* \"#utility.yul\":11474:11743   */\n    tag_151:\n        /* \"#utility.yul\":11584:11623   */\n      tag_277\n        /* \"#utility.yul\":11615:11622   */\n      dup4\n        /* \"#utility.yul\":11584:11623   */\n      tag_149\n      jump\t// in\n    tag_277:\n        /* \"#utility.yul\":11645:11736   */\n      tag_278\n        /* \"#utility.yul\":11694:11735   */\n      tag_279\n        /* \"#utility.yul\":11718:11734   */\n      dup3\n        /* \"#utility.yul\":11694:11735   */\n      tag_150\n      jump\t// in\n    tag_279:\n        /* \"#utility.yul\":11686:11692   */\n      dup5\n        /* \"#utility.yul\":11679:11683   */\n      dup5\n        /* \"#utility.yul\":11673:11684   */\n      sload\n        /* \"#utility.yul\":11645:11736   */\n      tag_147\n      jump\t// in\n    tag_278:\n        /* \"#utility.yul\":11639:11643   */\n      dup3\n        /* \"#utility.yul\":11632:11737   */\n      sstore\n        /* \"#utility.yul\":11550:11743   */\n      pop\n        /* \"#utility.yul\":11474:11743   */\n      pop\n      pop\n      pop\n      jump\t// out\n        /* \"#utility.yul\":11749:11822   */\n    tag_152:\n        /* \"#utility.yul\":11794:11797   */\n      0x00\n        /* \"#utility.yul\":11749:11822   */\n      swap1\n      jump\t// out\n        /* \"#utility.yul\":11828:12017   */\n    tag_153:\n        /* \"#utility.yul\":11905:11937   */\n      tag_282\n      tag_152\n      jump\t// in\n    tag_282:\n        /* \"#utility.yul\":11946:12011   */\n      tag_283\n        /* \"#utility.yul\":12004:12010   */\n      dup2\n        /* \"#utility.yul\":11996:12002   */\n      dup5\n        /* \"#utility.yul\":11990:11994   */\n      dup5\n        /* \"#utility.yul\":11946:12011   */\n      tag_151\n      jump\t// in\n    tag_283:\n        /* \"#utility.yul\":11881:12017   */\n      pop\n        /* \"#utility.yul\":11828:12017   */\n      pop\n      pop\n      jump\t// out\n        /* \"#utility.yul\":12023:12209   */\n    tag_154:\n        /* \"#utility.yul\":12083:12203   */\n    tag_285:\n        /* \"#utility.yul\":12100:12103   */\n      dup2\n        /* \"#utility.yul\":12093:12098   */\n      dup2\n        /* \"#utility.yul\":12090:12104   */\n      lt\n        /* \"#utility.yul\":12083:12203   */\n      iszero\n      tag_287\n      jumpi\n        /* \"#utility.yul\":12154:12193   */\n      tag_288\n        /* \"#utility.yul\":12191:12192   */\n      0x00\n        /* \"#utility.yul\":12184:12189   */\n      dup3\n        /* \"#utility.yul\":12154:12193   */\n      tag_153\n      jump\t// in\n    tag_288:\n        /* \"#utility.yul\":12127:12128   */\n      0x01\n        /* \"#utility.yul\":12120:12125   */\n      dup2\n        /* \"#utility.yul\":12116:12129   */\n      add\n        /* \"#utility.yul\":12107:12129   */\n      swap1\n      pop\n        /* \"#utility.yul\":12083:12203   */\n      jump(tag_285)\n    tag_287:\n        /* \"#utility.yul\":12023:12209   */\n      pop\n      pop\n      jump\t// out\n        /* \"#utility.yul\":12215:12758   */\n    tag_155:\n        /* \"#utility.yul\":12316:12318   */\n      0x1f\n        /* \"#utility.yul\":12311:12314   */\n      dup3\n        /* \"#utility.yul\":12308:12319   */\n      gt\n        /* \"#utility.yul\":12305:12751   */\n      iszero\n      tag_290\n      jumpi\n        /* \"#utility.yul\":12350:12388   */\n      tag_291\n        /* \"#utility.yul\":12382:12387   */\n      dup2\n        /* \"#utility.yul\":12350:12388   */\n      tag_144\n      jump\t// in\n    tag_291:\n        /* \"#utility.yul\":12434:12463   */\n      tag_292\n        /* \"#utility.yul\":12452:12462   */\n      dup5\n        /* \"#utility.yul\":12434:12463   */\n      tag_145\n      jump\t// in\n    tag_292:\n        /* \"#utility.yul\":12424:12432   */\n      dup2\n        /* \"#utility.yul\":12420:12464   */\n      add\n        /* \"#utility.yul\":12617:12619   */\n      0x20\n        /* \"#utility.yul\":12605:12615   */\n      dup6\n        /* \"#utility.yul\":12602:12620   */\n      lt\n        /* \"#utility.yul\":12599:12648   */\n      iszero\n      tag_293\n      jumpi\n        /* \"#utility.yul\":12638:12646   */\n      dup2\n        /* \"#utility.yul\":12623:12646   */\n      swap1\n      pop\n        /* \"#utility.yul\":12599:12648   */\n    tag_293:\n        /* \"#utility.yul\":12661:12741   */\n      tag_294\n        /* \"#utility.yul\":12717:12739   */\n      tag_295\n        /* \"#utility.yul\":12735:12738   */\n      dup6\n        /* \"#utility.yul\":12717:12739   */\n      tag_145\n      jump\t// in\n    tag_295:\n        /* \"#utility.yul\":12707:12715   */\n      dup4\n        /* \"#utility.yul\":12703:12740   */\n      add\n        /* \"#utility.yul\":12690:12701   */\n      dup3\n        /* \"#utility.yul\":12661:12741   */\n      tag_154\n      jump\t// in\n    tag_294:\n        /* \"#utility.yul\":12320:12751   */\n      pop\n      pop\n        /* \"#utility.yul\":12305:12751   */\n    tag_290:\n        /* \"#utility.yul\":12215:12758   */\n      pop\n      pop\n      pop\n      jump\t// out\n        /* \"#utility.yul\":12764:12881   */\n    tag_156:\n        /* \"#utility.yul\":12818:12826   */\n      0x00\n        /* \"#utility.yul\":12868:12873   */\n      dup3\n        /* \"#utility.yul\":12862:12866   */\n      dup3\n        /* \"#utility.yul\":12858:12874   */\n      shr\n        /* \"#utility.yul\":12837:12874   */\n      swap1\n      pop\n        /* \"#utility.yul\":12764:12881   */\n      swap3\n      swap2\n      pop\n      pop\n      jump\t// out\n        /* \"#utility.yul\":12887:13056   */\n    tag_157:\n        /* \"#utility.yul\":12931:12937   */\n      0x00\n        /* \"#utility.yul\":12964:13015   */\n      tag_298\n        /* \"#utility.yul\":13012:13013   */\n      0x00\n        /* \"#utility.yul\":13008:13014   */\n      not\n        /* \"#utility.yul\":13000:13005   */\n      dup5\n        /* \"#utility.yul\":12997:12998   */\n      0x08\n        /* \"#utility.yul\":12993:13006   */\n      mul\n        /* \"#utility.yul\":12964:13015   */\n      tag_156\n      jump\t// in\n    tag_298:\n        /* \"#utility.yul\":12960:13016   */\n      not\n        /* \"#utility.yul\":13045:13049   */\n      dup1\n        /* \"#utility.yul\":13039:13043   */\n      dup4\n        /* \"#utility.yul\":13035:13050   */\n      and\n        /* \"#utility.yul\":13025:13050   */\n      swap2\n      pop\n        /* \"#utility.yul\":12938:13056   */\n      pop\n        /* \"#utility.yul\":12887:13056   */\n      swap3\n      swap2\n      pop\n      pop\n      jump\t// out\n        /* \"#utility.yul\":13061:13356   */\n    tag_158:\n        /* \"#utility.yul\":13137:13141   */\n      0x00\n        /* \"#utility.yul\":13283:13312   */\n      tag_300\n        /* \"#utility.yul\":13308:13311   */\n      dup4\n        /* \"#utility.yul\":13302:13306   */\n      dup4\n        /* \"#utility.yul\":13283:13312   */\n      tag_157\n      jump\t// in\n    tag_300:\n        /* \"#utility.yul\":13275:13312   */\n      swap2\n      pop\n        /* \"#utility.yul\":13345:13348   */\n      dup3\n        /* \"#utility.yul\":13342:13343   */\n      0x02\n        /* \"#utility.yul\":13338:13349   */\n      mul\n        /* \"#utility.yul\":13332:13336   */\n      dup3\n        /* \"#utility.yul\":13329:13350   */\n      or\n        /* \"#utility.yul\":13321:13350   */\n      swap1\n      pop\n        /* \"#utility.yul\":13061:13356   */\n      swap3\n      swap2\n      pop\n      pop\n      jump\t// out\n        /* \"#utility.yul\":13361:14812   */\n    tag_75:\n        /* \"#utility.yul\":13472:13475   */\n      dup2\n        /* \"#utility.yul\":13466:13470   */\n      dup2\n        /* \"#utility.yul\":13463:13476   */\n      sub\n        /* \"#utility.yul\":13460:13486   */\n      tag_302\n      jumpi\n        /* \"#utility.yul\":13479:13484   */\n      pop\n      pop\n      jump(tag_301)\n        /* \"#utility.yul\":13460:13486   */\n    tag_302:\n        /* \"#utility.yul\":13510:13544   */\n      tag_303\n        /* \"#utility.yul\":13540:13543   */\n      dup3\n        /* \"#utility.yul\":13510:13544   */\n      tag_143\n      jump\t// in\n    tag_303:\n        /* \"#utility.yul\":13609:13627   */\n      0xffffffffffffffff\n        /* \"#utility.yul\":13601:13607   */\n      dup2\n        /* \"#utility.yul\":13598:13628   */\n      gt\n        /* \"#utility.yul\":13595:13651   */\n      iszero\n      tag_304\n      jumpi\n        /* \"#utility.yul\":13631:13649   */\n      tag_305\n      tag_129\n      jump\t// in\n    tag_305:\n        /* \"#utility.yul\":13595:13651   */\n    tag_304:\n        /* \"#utility.yul\":13675:13713   */\n      tag_306\n        /* \"#utility.yul\":13707:13711   */\n      dup3\n        /* \"#utility.yul\":13701:13712   */\n      sload\n        /* \"#utility.yul\":13675:13713   */\n      tag_49\n      jump\t// in\n    tag_306:\n        /* \"#utility.yul\":13760:13827   */\n      tag_307\n        /* \"#utility.yul\":13820:13826   */\n      dup3\n        /* \"#utility.yul\":13812:13818   */\n      dup3\n        /* \"#utility.yul\":13806:13810   */\n      dup6\n        /* \"#utility.yul\":13760:13827   */\n      tag_155\n      jump\t// in\n    tag_307:\n        /* \"#utility.yul\":13854:13855   */\n      0x00\n        /* \"#utility.yul\":13883:13885   */\n      0x1f\n        /* \"#utility.yul\":13875:13881   */\n      dup4\n        /* \"#utility.yul\":13872:13886   */\n      gt\n        /* \"#utility.yul\":13900:13901   */\n      0x01\n        /* \"#utility.yul\":13895:14567   */\n      dup2\n      eq\n      tag_309\n      jumpi\n        /* \"#utility.yul\":14611:14612   */\n      0x00\n        /* \"#utility.yul\":14628:14634   */\n      dup5\n        /* \"#utility.yul\":14625:14702   */\n      iszero\n      tag_310\n      jumpi\n        /* \"#utility.yul\":14677:14686   */\n      dup3\n        /* \"#utility.yul\":14672:14675   */\n      dup8\n        /* \"#utility.yul\":14668:14687   */\n      add\n        /* \"#utility.yul\":14662:14688   */\n      sload\n        /* \"#utility.yul\":14653:14688   */\n      swap1\n      pop\n        /* \"#utility.yul\":14625:14702   */\n    tag_310:\n        /* \"#utility.yul\":14728:14795   */\n      tag_311\n        /* \"#utility.yul\":14788:14794   */\n      dup6\n        /* \"#utility.yul\":14781:14786   */\n      dup3\n        /* \"#utility.yul\":14728:14795   */\n      tag_158\n      jump\t// in\n    tag_311:\n        /* \"#utility.yul\":14722:14726   */\n      dup7\n        /* \"#utility.yul\":14715:14796   */\n      sstore\n        /* \"#utility.yul\":14584:14806   */\n      pop\n        /* \"#utility.yul\":13865:14806   */\n      jump(tag_308)\n        /* \"#utility.yul\":13895:14567   */\n    tag_309:\n        /* \"#utility.yul\":13947:13951   */\n      0x1f\n        /* \"#utility.yul\":13943:13952   */\n      not\n        /* \"#utility.yul\":13935:13941   */\n      dup5\n        /* \"#utility.yul\":13931:13953   */\n      and\n        /* \"#utility.yul\":13973:14009   */\n      tag_312\n        /* \"#utility.yul\":14005:14008   */\n      dup8\n        /* \"#utility.yul\":13973:14009   */\n      tag_144\n      jump\t// in\n    tag_312:\n        /* \"#utility.yul\":13966:14009   */\n      swap7\n      pop\n        /* \"#utility.yul\":14036:14073   */\n      tag_313\n        /* \"#utility.yul\":14068:14072   */\n      dup7\n        /* \"#utility.yul\":14036:14073   */\n      tag_144\n      jump\t// in\n    tag_313:\n        /* \"#utility.yul\":14095:14096   */\n      0x00\n        /* \"#utility.yul\":14109:14316   */\n    tag_314:\n        /* \"#utility.yul\":14123:14130   */\n      dup3\n        /* \"#utility.yul\":14120:14121   */\n      dup2\n        /* \"#utility.yul\":14117:14131   */\n      lt\n        /* \"#utility.yul\":14109:14316   */\n      iszero\n      tag_316\n      jumpi\n        /* \"#utility.yul\":14202:14211   */\n      dup5\n        /* \"#utility.yul\":14197:14200   */\n      dup10\n        /* \"#utility.yul\":14193:14212   */\n      add\n        /* \"#utility.yul\":14187:14213   */\n      sload\n        /* \"#utility.yul\":14179:14185   */\n      dup3\n        /* \"#utility.yul\":14172:14214   */\n      sstore\n        /* \"#utility.yul\":14253:14254   */\n      0x01\n        /* \"#utility.yul\":14245:14251   */\n      dup3\n        /* \"#utility.yul\":14241:14255   */\n      add\n        /* \"#utility.yul\":14231:14255   */\n      swap2\n      pop\n        /* \"#utility.yul\":14300:14301   */\n      0x01\n        /* \"#utility.yul\":14289:14298   */\n      dup6\n        /* \"#utility.yul\":14285:14302   */\n      add\n        /* \"#utility.yul\":14272:14302   */\n      swap5\n      pop\n        /* \"#utility.yul\":14146:14150   */\n      0x20\n        /* \"#utility.yul\":14143:14144   */\n      dup2\n        /* \"#utility.yul\":14139:14151   */\n      add\n        /* \"#utility.yul\":14134:14151   */\n      swap1\n      pop\n        /* \"#utility.yul\":14109:14316   */\n      jump(tag_314)\n    tag_316:\n        /* \"#utility.yul\":14344:14350   */\n      dup7\n        /* \"#utility.yul\":14335:14342   */\n      dup4\n        /* \"#utility.yul\":14332:14351   */\n      lt\n        /* \"#utility.yul\":14329:14508   */\n      iszero\n      tag_317\n      jumpi\n        /* \"#utility.yul\":14402:14411   */\n      dup5\n        /* \"#utility.yul\":14397:14400   */\n      dup10\n        /* \"#utility.yul\":14393:14412   */\n      add\n        /* \"#utility.yul\":14387:14413   */\n      sload\n        /* \"#utility.yul\":14445:14493   */\n      tag_318\n        /* \"#utility.yul\":14487:14491   */\n      0x1f\n        /* \"#utility.yul\":14479:14485   */\n      dup10\n        /* \"#utility.yul\":14475:14492   */\n      and\n        /* \"#utility.yul\":14464:14473   */\n      dup3\n        /* \"#utility.yul\":14445:14493   */\n      tag_157\n      jump\t// in\n    tag_318:\n        /* \"#utility.yul\":14437:14443   */\n      dup4\n        /* \"#utility.yul\":14430:14494   */\n      sstore\n        /* \"#utility.yul\":14352:14508   */\n      pop\n        /* \"#utility.yul\":14329:14508   */\n    tag_317:\n        /* \"#utility.yul\":14554:14555   */\n      0x01\n        /* \"#utility.yul\":14550:14551   */\n      0x02\n        /* \"#utility.yul\":14542:14548   */\n      dup9\n        /* \"#utility.yul\":14538:14552   */\n      mul\n        /* \"#utility.yul\":14534:14556   */\n      add\n        /* \"#utility.yul\":14528:14532   */\n      dup9\n        /* \"#utility.yul\":14521:14557   */\n      sstore\n        /* \"#utility.yul\":13902:14567   */\n      pop\n      pop\n      pop\n        /* \"#utility.yul\":13865:14806   */\n    tag_308:\n      pop\n        /* \"#utility.yul\":13450:14812   */\n      pop\n      pop\n      pop\n        /* \"#utility.yul\":13361:14812   */\n      pop\n      pop\n    tag_301:\n      jump\t// out\n        /* \"#utility.yul\":14818:16213   */\n    tag_95:\n        /* \"#utility.yul\":14935:14972   */\n      tag_320\n        /* \"#utility.yul\":14968:14971   */\n      dup3\n        /* \"#utility.yul\":14935:14972   */\n      tag_120\n      jump\t// in\n    tag_320:\n        /* \"#utility.yul\":15037:15055   */\n      0xffffffffffffffff\n        /* \"#utility.yul\":15029:15035   */\n      dup2\n        /* \"#utility.yul\":15026:15056   */\n      gt\n        /* \"#utility.yul\":15023:15079   */\n      iszero\n      tag_321\n      jumpi\n        /* \"#utility.yul\":15059:15077   */\n      tag_322\n      tag_129\n      jump\t// in\n    tag_322:\n        /* \"#utility.yul\":15023:15079   */\n    tag_321:\n        /* \"#utility.yul\":15103:15141   */\n      tag_323\n        /* \"#utility.yul\":15135:15139   */\n      dup3\n        /* \"#utility.yul\":15129:15140   */\n      sload\n        /* \"#utility.yul\":15103:15141   */\n      tag_49\n      jump\t// in\n    tag_323:\n        /* \"#utility.yul\":15188:15255   */\n      tag_324\n        /* \"#utility.yul\":15248:15254   */\n      dup3\n        /* \"#utility.yul\":15240:15246   */\n      dup3\n        /* \"#utility.yul\":15234:15238   */\n      dup6\n        /* \"#utility.yul\":15188:15255   */\n      tag_155\n      jump\t// in\n    tag_324:\n        /* \"#utility.yul\":15282:15283   */\n      0x00\n        /* \"#utility.yul\":15306:15310   */\n      0x20\n        /* \"#utility.yul\":15293:15310   */\n      swap1\n      pop\n        /* \"#utility.yul\":15338:15340   */\n      0x1f\n        /* \"#utility.yul\":15330:15336   */\n      dup4\n        /* \"#utility.yul\":15327:15341   */\n      gt\n        /* \"#utility.yul\":15355:15356   */\n      0x01\n        /* \"#utility.yul\":15350:15968   */\n      dup2\n      eq\n      tag_326\n      jumpi\n        /* \"#utility.yul\":16012:16013   */\n      0x00\n        /* \"#utility.yul\":16029:16035   */\n      dup5\n        /* \"#utility.yul\":16026:16103   */\n      iszero\n      tag_327\n      jumpi\n        /* \"#utility.yul\":16078:16087   */\n      dup3\n        /* \"#utility.yul\":16073:16076   */\n      dup8\n        /* \"#utility.yul\":16069:16088   */\n      add\n        /* \"#utility.yul\":16063:16089   */\n      mload\n        /* \"#utility.yul\":16054:16089   */\n      swap1\n      pop\n        /* \"#utility.yul\":16026:16103   */\n    tag_327:\n        /* \"#utility.yul\":16129:16196   */\n      tag_328\n        /* \"#utility.yul\":16189:16195   */\n      dup6\n        /* \"#utility.yul\":16182:16187   */\n      dup3\n        /* \"#utility.yul\":16129:16196   */\n      tag_158\n      jump\t// in\n    tag_328:\n        /* \"#utility.yul\":16123:16127   */\n      dup7\n        /* \"#utility.yul\":16116:16197   */\n      sstore\n        /* \"#utility.yul\":15985:16207   */\n      pop\n        /* \"#utility.yul\":15320:16207   */\n      jump(tag_325)\n        /* \"#utility.yul\":15350:15968   */\n    tag_326:\n        /* \"#utility.yul\":15402:15406   */\n      0x1f\n        /* \"#utility.yul\":15398:15407   */\n      not\n        /* \"#utility.yul\":15390:15396   */\n      dup5\n        /* \"#utility.yul\":15386:15408   */\n      and\n        /* \"#utility.yul\":15436:15473   */\n      tag_329\n        /* \"#utility.yul\":15468:15472   */\n      dup7\n        /* \"#utility.yul\":15436:15473   */\n      tag_144\n      jump\t// in\n    tag_329:\n        /* \"#utility.yul\":15495:15496   */\n      0x00\n        /* \"#utility.yul\":15509:15717   */\n    tag_330:\n        /* \"#utility.yul\":15523:15530   */\n      dup3\n        /* \"#utility.yul\":15520:15521   */\n      dup2\n        /* \"#utility.yul\":15517:15531   */\n      lt\n        /* \"#utility.yul\":15509:15717   */\n      iszero\n      tag_332\n      jumpi\n        /* \"#utility.yul\":15602:15611   */\n      dup5\n        /* \"#utility.yul\":15597:15600   */\n      dup10\n        /* \"#utility.yul\":15593:15612   */\n      add\n        /* \"#utility.yul\":15587:15613   */\n      mload\n        /* \"#utility.yul\":15579:15585   */\n      dup3\n        /* \"#utility.yul\":15572:15614   */\n      sstore\n        /* \"#utility.yul\":15653:15654   */\n      0x01\n        /* \"#utility.yul\":15645:15651   */\n      dup3\n        /* \"#utility.yul\":15641:15655   */\n      add\n        /* \"#utility.yul\":15631:15655   */\n      swap2\n      pop\n        /* \"#utility.yul\":15700:15702   */\n      0x20\n        /* \"#utility.yul\":15689:15698   */\n      dup6\n        /* \"#utility.yul\":15685:15703   */\n      add\n        /* \"#utility.yul\":15672:15703   */\n      swap5\n      pop\n        /* \"#utility.yul\":15546:15550   */\n      0x20\n        /* \"#utility.yul\":15543:15544   */\n      dup2\n        /* \"#utility.yul\":15539:15551   */\n      add\n        /* \"#utility.yul\":15534:15551   */\n      swap1\n      pop\n        /* \"#utility.yul\":15509:15717   */\n      jump(tag_330)\n    tag_332:\n        /* \"#utility.yul\":15745:15751   */\n      dup7\n        /* \"#utility.yul\":15736:15743   */\n      dup4\n        /* \"#utility.yul\":15733:15752   */\n      lt\n        /* \"#utility.yul\":15730:15909   */\n      iszero\n      tag_333\n      jumpi\n        /* \"#utility.yul\":15803:15812   */\n      dup5\n        /* \"#utility.yul\":15798:15801   */\n      dup10\n        /* \"#utility.yul\":15794:15813   */\n      add\n        /* \"#utility.yul\":15788:15814   */\n      mload\n        /* \"#utility.yul\":15846:15894   */\n      tag_334\n        /* \"#utility.yul\":15888:15892   */\n      0x1f\n        /* \"#utility.yul\":15880:15886   */\n      dup10\n        /* \"#utility.yul\":15876:15893   */\n      and\n        /* \"#utility.yul\":15865:15874   */\n      dup3\n        /* \"#utility.yul\":15846:15894   */\n      tag_157\n      jump\t// in\n    tag_334:\n        /* \"#utility.yul\":15838:15844   */\n      dup4\n        /* \"#utility.yul\":15831:15895   */\n      sstore\n        /* \"#utility.yul\":15753:15909   */\n      pop\n        /* \"#utility.yul\":15730:15909   */\n    tag_333:\n        /* \"#utility.yul\":15955:15956   */\n      0x01\n        /* \"#utility.yul\":15951:15952   */\n      0x02\n        /* \"#utility.yul\":15943:15949   */\n      dup9\n        /* \"#utility.yul\":15939:15953   */\n      mul\n        /* \"#utility.yul\":15935:15957   */\n      add\n        /* \"#utility.yul\":15929:15933   */\n      dup9\n        /* \"#utility.yul\":15922:15958   */\n      sstore\n        /* \"#utility.yul\":15357:15968   */\n      pop\n      pop\n      pop\n        /* \"#utility.yul\":15320:16207   */\n    tag_325:\n      pop\n        /* \"#utility.yul\":14910:16213   */\n      pop\n      pop\n      pop\n        /* \"#utility.yul\":14818:16213   */\n      pop\n      pop\n      jump\t// out\n        /* \"#utility.yul\":16219:16452   */\n    tag_97:\n        /* \"#utility.yul\":16258:16261   */\n      0x00\n        /* \"#utility.yul\":16281:16305   */\n      tag_336\n        /* \"#utility.yul\":16299:16304   */\n      dup3\n        /* \"#utility.yul\":16281:16305   */\n      tag_110\n      jump\t// in\n    tag_336:\n        /* \"#utility.yul\":16272:16305   */\n      swap2\n      pop\n        /* \"#utility.yul\":16327:16393   */\n      0xffffffffffffffffffffffffffffffffffffffffffffffffffffffffffffffff\n        /* \"#utility.yul\":16320:16325   */\n      dup3\n        /* \"#utility.yul\":16317:16394   */\n      sub\n        /* \"#utility.yul\":16314:16417   */\n      tag_337\n      jumpi\n        /* \"#utility.yul\":16397:16415   */\n      tag_338\n      tag_139\n      jump\t// in\n    tag_338:\n        /* \"#utility.yul\":16314:16417   */\n    tag_337:\n        /* \"#utility.yul\":16444:16445   */\n      0x01\n        /* \"#utility.yul\":16437:16442   */\n      dup3\n        /* \"#utility.yul\":16433:16446   */\n      add\n        /* \"#utility.yul\":16426:16446   */\n      swap1\n      pop\n        /* \"#utility.yul\":16219:16452   */\n      swap2\n      swap1\n      pop\n      jump\t// out\n\n    auxdata: 0xa2646970667358221220a339bc88231f298b07e6206cde14b2f25a20f4adea9a373160cfdc15f03cda7f64736f6c63430008190033\n}\n",
				"bytecode": {
					"linkReferences": {},
					"object": "608060405260016016553480156013575f80fd5b50335f806101000a81548173ffffffffffffffffffffffffffffffffffffffff021916908373ffffffffffffffffffffffffffffffffffffffff1602179055506112bb806100605f395ff3fe60806040526004361061006f575f3560e01c8063afd820671161004d578063afd82067146100ef578063b688a36314610105578063be1c766b1461010f578063c95f728a146101395761006f565b8063050399101461007357806307973ccf14610089578063657a2512146100b3575b5f80fd5b34801561007e575f80fd5b50610087610161565b005b348015610094575f80fd5b5061009d61023e565b6040516100aa9190610998565b60405180910390f35b3480156100be575f80fd5b506100d960048036038101906100d49190610a1c565b610244565b6040516100e69190610b48565b60405180910390f35b3480156100fa575f80fd5b5061010361039d565b005b61010d6103f5565b005b34801561011a575f80fd5b5061012361064e565b6040516101309190610998565b60405180910390f35b348015610144575f80fd5b5061015f600480360381019061015a9190610c94565b61069d565b005b600a60155f3373ffffffffffffffffffffffffffffffffffffffff1673ffffffffffffffffffffffffffffffffffffffff1681526020019081526020015f206004015410156101e5576040517f08c379a00000000000000000000000000000000000000000000000000000000081526004016101dc90610d35565b60405180910390fd5b600a60155f3373ffffffffffffffffffffffffffffffffffffffff1673ffffffffffffffffffffffffffffffffffffffff1681526020019081526020015f206004015f8282546102359190610d80565b92505081905550565b60165481565b61024c6107ae565b60155f8373ffffffffffffffffffffffffffffffffffffffff1673ffffffffffffffffffffffffffffffffffffffff1681526020019081526020015f206040518060a00160405290815f82015481526020016001820180546102ad90610de0565b80601f01602080910402602001604051908101604052809291908181526020018280546102d990610de0565b80156103245780601f106102fb57610100808354040283529160200191610324565b820191905f5260205f20905b81548152906001019060200180831161030757829003601f168201915b50505050508152602001600282015f9054906101000a900473ffffffffffffffffffffffffffffffffffffffff1673ffffffffffffffffffffffffffffffffffffffff1673ffffffffffffffffffffffffffffffffffffffff168152602001600382015481526020016004820154815250509050919050565b5f5b60048110156103f2578060046103b59190610d80565b600182600481106103c9576103c8610e10565b5b600502016004015f8282546103de9190610e3d565b92505081905550808060010191505061039f565b50565b662386f26fc10000341461043e576040517f08c379a000000000000000000000000000000000000000000000000000000000815260040161043590610eba565b60405180910390fd5b600361044861064e565b036105565760155f3373ffffffffffffffffffffffffffffffffffffffff1673ffffffffffffffffffffffffffffffffffffffff1681526020019081526020015f20600160036004811061049f5761049e610e10565b5b600502015f820154815f0155600182018160010190816104bf919061108a565b50600282015f9054906101000a900473ffffffffffffffffffffffffffffffffffffffff16816002015f6101000a81548173ffffffffffffffffffffffffffffffffffffffff021916908373ffffffffffffffffffffffffffffffffffffffff160217905550600382015481600301556004820154816004015590505061054461039d565b60015f61055191906107ef565b61064c565b60155f3373ffffffffffffffffffffffffffffffffffffffff1673ffffffffffffffffffffffffffffffffffffffff1681526020019081526020015f20600161059d61064e565b600481106105ae576105ad610e10565b5b600502015f820154815f0155600182018160010190816105ce919061108a565b50600282015f9054906101000a900473ffffffffffffffffffffffffffffffffffffffff16816002015f6101000a81548173ffffffffffffffffffffffffffffffffffffffff021916908373ffffffffffffffffffffffffffffffffffffffff16021790555060038201548160030155600482015481600401559050505b565b5f805f90505b6004811015610694575f6001826004811061067257610671610e10565b5b600502015f015403610687578091505061069a565b8080600101915050610654565b50600490505b90565b6040518060a0016040528060165481526020018281526020013373ffffffffffffffffffffffffffffffffffffffff1681526020015f81526020015f81525060155f3373ffffffffffffffffffffffffffffffffffffffff1673ffffffffffffffffffffffffffffffffffffffff1681526020019081526020015f205f820151815f01556020820151816001019081610736919061116f565b506040820151816002015f6101000a81548173ffffffffffffffffffffffffffffffffffffffff021916908373ffffffffffffffffffffffffffffffffffffffff160217905550606082015181600301556080820151816004015590505060165f8154809291906107a69061123e565b919050555050565b6040518060a001604052805f8152602001606081526020015f73ffffffffffffffffffffffffffffffffffffffff1681526020015f81526020015f81525090565b505f8082015f9055600182015f6108069190610928565b600282015f6101000a81549073ffffffffffffffffffffffffffffffffffffffff0219169055600382015f9055600482015f9055506005015f8082015f9055600182015f6108549190610928565b600282015f6101000a81549073ffffffffffffffffffffffffffffffffffffffff0219169055600382015f9055600482015f9055506005015f8082015f9055600182015f6108a29190610928565b600282015f6101000a81549073ffffffffffffffffffffffffffffffffffffffff0219169055600382015f9055600482015f9055506005015f8082015f9055600182015f6108f09190610928565b600282015f6101000a81549073ffffffffffffffffffffffffffffffffffffffff0219169055600382015f9055600482015f90555050565b50805461093490610de0565b5f825580601f106109455750610962565b601f0160209004905f5260205f20908101906109619190610965565b5b50565b5b8082111561097c575f815f905550600101610966565b5090565b5f819050919050565b61099281610980565b82525050565b5f6020820190506109ab5f830184610989565b92915050565b5f604051905090565b5f80fd5b5f80fd5b5f73ffffffffffffffffffffffffffffffffffffffff82169050919050565b5f6109eb826109c2565b9050919050565b6109fb816109e1565b8114610a05575f80fd5b50565b5f81359050610a16816109f2565b92915050565b5f60208284031215610a3157610a306109ba565b5b5f610a3e84828501610a08565b91505092915050565b610a5081610980565b82525050565b5f81519050919050565b5f82825260208201905092915050565b8281835e5f83830152505050565b5f601f19601f8301169050919050565b5f610a9882610a56565b610aa28185610a60565b9350610ab2818560208601610a70565b610abb81610a7e565b840191505092915050565b610acf816109e1565b82525050565b5f60a083015f830151610aea5f860182610a47565b5060208301518482036020860152610b028282610a8e565b9150506040830151610b176040860182610ac6565b506060830151610b2a6060860182610a47565b506080830151610b3d6080860182610a47565b508091505092915050565b5f6020820190508181035f830152610b608184610ad5565b905092915050565b5f80fd5b5f80fd5b7f4e487b71000000000000000000000000000000000000000000000000000000005f52604160045260245ffd5b610ba682610a7e565b810181811067ffffffffffffffff82111715610bc557610bc4610b70565b5b80604052505050565b5f610bd76109b1565b9050610be38282610b9d565b919050565b5f67ffffffffffffffff821115610c0257610c01610b70565b5b610c0b82610a7e565b9050602081019050919050565b828183375f83830152505050565b5f610c38610c3384610be8565b610bce565b905082815260208101848484011115610c5457610c53610b6c565b5b610c5f848285610c18565b509392505050565b5f82601f830112610c7b57610c7a610b68565b5b8135610c8b848260208601610c26565b91505092915050565b5f60208284031215610ca957610ca86109ba565b5b5f82013567ffffffffffffffff811115610cc657610cc56109be565b5b610cd284828501610c67565b91505092915050565b5f82825260208201905092915050565b7f6e6f7065000000000000000000000000000000000000000000000000000000005f82015250565b5f610d1f600483610cdb565b9150610d2a82610ceb565b602082019050919050565b5f6020820190508181035f830152610d4c81610d13565b9050919050565b7f4e487b71000000000000000000000000000000000000000000000000000000005f52601160045260245ffd5b5f610d8a82610980565b9150610d9583610980565b9250828203905081811115610dad57610dac610d53565b5b92915050565b7f4e487b71000000000000000000000000000000000000000000000000000000005f52602260045260245ffd5b5f6002820490506001821680610df757607f821691505b602082108103610e0a57610e09610db3565b5b50919050565b7f4e487b71000000000000000000000000000000000000000000000000000000005f52603260045260245ffd5b5f610e4782610980565b9150610e5283610980565b9250828201905080821115610e6a57610e69610d53565b5b92915050565b7f4e4f5045000000000000000000000000000000000000000000000000000000005f82015250565b5f610ea4600483610cdb565b9150610eaf82610e70565b602082019050919050565b5f6020820190508181035f830152610ed181610e98565b9050919050565b5f81549050610ee681610de0565b9050919050565b5f819050815f5260205f209050919050565b5f6020601f8301049050919050565b5f82821b905092915050565b5f60088302610f497fffffffffffffffffffffffffffffffffffffffffffffffffffffffffffffffff82610f0e565b610f538683610f0e565b95508019841693508086168417925050509392505050565b5f819050919050565b5f610f8e610f89610f8484610980565b610f6b565b610980565b9050919050565b5f819050919050565b610fa783610f74565b610fbb610fb382610f95565b848454610f1a565b825550505050565b5f90565b610fcf610fc3565b610fda818484610f9e565b505050565b5b81811015610ffd57610ff25f82610fc7565b600181019050610fe0565b5050565b601f8211156110425761101381610eed565b61101c84610eff565b8101602085101561102b578190505b61103f61103785610eff565b830182610fdf565b50505b505050565b5f82821c905092915050565b5f6110625f1984600802611047565b1980831691505092915050565b5f61107a8383611053565b9150826002028217905092915050565b81810361109857505061116d565b6110a182610ed8565b67ffffffffffffffff8111156110ba576110b9610b70565b5b6110c48254610de0565b6110cf828285611001565b5f601f8311600181146110fc575f84156110ea578287015490505b6110f4858261106f565b865550611166565b601f19841661110a87610eed565b965061111586610eed565b5f5b8281101561113c57848901548255600182019150600185019450602081019050611117565b868310156111595784890154611155601f891682611053565b8355505b6001600288020188555050505b5050505050505b565b61117882610a56565b67ffffffffffffffff81111561119157611190610b70565b5b61119b8254610de0565b6111a6828285611001565b5f60209050601f8311600181146111d7575f84156111c5578287015190505b6111cf858261106f565b865550611236565b601f1984166111e586610eed565b5f5b8281101561120c578489015182556001820191506020850194506020810190506111e7565b868310156112295784890151611225601f891682611053565b8355505b6001600288020188555050505b505050505050565b5f61124882610980565b91507fffffffffffffffffffffffffffffffffffffffffffffffffffffffffffffffff820361127a57611279610d53565b5b60018201905091905056fea2646970667358221220a339bc88231f298b07e6206cde14b2f25a20f4adea9a373160cfdc15f03cda7f64736f6c63430008190033",
					"opcodes": "PUSH1 0x80 PUSH1 0x40 MSTORE PUSH1 0x1 PUSH1 0x16 SSTORE CALLVALUE DUP1 ISZERO PUSH1 0x13 JUMPI PUSH0 DUP1 REVERT JUMPDEST POP CALLER PUSH0 DUP1 PUSH2 0x100 EXP DUP2 SLOAD DUP2 PUSH20 0xFFFFFFFFFFFFFFFFFFFFFFFFFFFFFFFFFFFFFFFF MUL NOT AND SWAP1 DUP4 PUSH20 0xFFFFFFFFFFFFFFFFFFFFFFFFFFFFFFFFFFFFFFFF AND MUL OR SWAP1 SSTORE POP PUSH2 0x12BB DUP1 PUSH2 0x60 PUSH0 CODECOPY PUSH0 RETURN INVALID PUSH1 0x80 PUSH1 0x40 MSTORE PUSH1 0x4 CALLDATASIZE LT PUSH2 0x6F JUMPI PUSH0 CALLDATALOAD PUSH1 0xE0 SHR DUP1 PUSH4 0xAFD82067 GT PUSH2 0x4D JUMPI DUP1 PUSH4 0xAFD82067 EQ PUSH2 0xEF JUMPI DUP1 PUSH4 0xB688A363 EQ PUSH2 0x105 JUMPI DUP1 PUSH4 0xBE1C766B EQ PUSH2 0x10F JUMPI DUP1 PUSH4 0xC95F728A EQ PUSH2 0x139 JUMPI PUSH2 0x6F JUMP JUMPDEST DUP1 PUSH4 0x5039910 EQ PUSH2 0x73 JUMPI DUP1 PUSH4 0x7973CCF EQ PUSH2 0x89 JUMPI DUP1 PUSH4 0x657A2512 EQ PUSH2 0xB3 JUMPI JUMPDEST PUSH0 DUP1 REVERT JUMPDEST CALLVALUE DUP1 ISZERO PUSH2 0x7E JUMPI PUSH0 DUP1 REVERT JUMPDEST POP PUSH2 0x87 PUSH2 0x161 JUMP JUMPDEST STOP JUMPDEST CALLVALUE DUP1 ISZERO PUSH2 0x94 JUMPI PUSH0 DUP1 REVERT JUMPDEST POP PUSH2 0x9D PUSH2 0x23E JUMP JUMPDEST PUSH1 0x40 MLOAD PUSH2 0xAA SWAP2 SWAP1 PUSH2 0x998 JUMP JUMPDEST PUSH1 0x40 MLOAD DUP1 SWAP2 SUB SWAP1 RETURN JUMPDEST CALLVALUE DUP1 ISZERO PUSH2 0xBE JUMPI PUSH0 DUP1 REVERT JUMPDEST POP PUSH2 0xD9 PUSH1 0x4 DUP1 CALLDATASIZE SUB DUP2 ADD SWAP1 PUSH2 0xD4 SWAP2 SWAP1 PUSH2 0xA1C JUMP JUMPDEST PUSH2 0x244 JUMP JUMPDEST PUSH1 0x40 MLOAD PUSH2 0xE6 SWAP2 SWAP1 PUSH2 0xB48 JUMP JUMPDEST PUSH1 0x40 MLOAD DUP1 SWAP2 SUB SWAP1 RETURN JUMPDEST CALLVALUE DUP1 ISZERO PUSH2 0xFA JUMPI PUSH0 DUP1 REVERT JUMPDEST POP PUSH2 0x103 PUSH2 0x39D JUMP JUMPDEST STOP JUMPDEST PUSH2 0x10D PUSH2 0x3F5 JUMP JUMPDEST STOP JUMPDEST CALLVALUE DUP1 ISZERO PUSH2 0x11A JUMPI PUSH0 DUP1 REVERT JUMPDEST POP PUSH2 0x123 PUSH2 0x64E JUMP JUMPDEST PUSH1 0x40 MLOAD PUSH2 0x130 SWAP2 SWAP1 PUSH2 0x998 JUMP JUMPDEST PUSH1 0x40 MLOAD DUP1 SWAP2 SUB SWAP1 RETURN JUMPDEST CALLVALUE DUP1 ISZERO PUSH2 0x144 JUMPI PUSH0 DUP1 REVERT JUMPDEST POP PUSH2 0x15F PUSH1 0x4 DUP1 CALLDATASIZE SUB DUP2 ADD SWAP1 PUSH2 0x15A SWAP2 SWAP1 PUSH2 0xC94 JUMP JUMPDEST PUSH2 0x69D JUMP JUMPDEST STOP JUMPDEST PUSH1 0xA PUSH1 0x15 PUSH0 CALLER PUSH20 0xFFFFFFFFFFFFFFFFFFFFFFFFFFFFFFFFFFFFFFFF AND PUSH20 0xFFFFFFFFFFFFFFFFFFFFFFFFFFFFFFFFFFFFFFFF AND DUP2 MSTORE PUSH1 0x20 ADD SWAP1 DUP2 MSTORE PUSH1 0x20 ADD PUSH0 KECCAK256 PUSH1 0x4 ADD SLOAD LT ISZERO PUSH2 0x1E5 JUMPI PUSH1 0x40 MLOAD PUSH32 0x8C379A000000000000000000000000000000000000000000000000000000000 DUP2 MSTORE PUSH1 0x4 ADD PUSH2 0x1DC SWAP1 PUSH2 0xD35 JUMP JUMPDEST PUSH1 0x40 MLOAD DUP1 SWAP2 SUB SWAP1 REVERT JUMPDEST PUSH1 0xA PUSH1 0x15 PUSH0 CALLER PUSH20 0xFFFFFFFFFFFFFFFFFFFFFFFFFFFFFFFFFFFFFFFF AND PUSH20 0xFFFFFFFFFFFFFFFFFFFFFFFFFFFFFFFFFFFFFFFF AND DUP2 MSTORE PUSH1 0x20 ADD SWAP1 DUP2 MSTORE PUSH1 0x20 ADD PUSH0 KECCAK256 PUSH1 0x4 ADD PUSH0 DUP3 DUP3 SLOAD PUSH2 0x235 SWAP2 SWAP1 PUSH2 0xD80 JUMP JUMPDEST SWAP3 POP POP DUP2 SWAP1 SSTORE POP JUMP JUMPDEST PUSH1 0x16 SLOAD DUP2 JUMP JUMPDEST PUSH2 0x24C PUSH2 0x7AE JUMP JUMPDEST PUSH1 0x15 PUSH0 DUP4 PUSH20 0xFFFFFFFFFFFFFFFFFFFFFFFFFFFFFFFFFFFFFFFF AND PUSH20 0xFFFFFFFFFFFFFFFFFFFFFFFFFFFFFFFFFFFFFFFF AND DUP2 MSTORE PUSH1 0x20 ADD SWAP1 DUP2 MSTORE PUSH1 0x20 ADD PUSH0 KECCAK256 PUSH1 0x40 MLOAD DUP1 PUSH1 0xA0 ADD PUSH1 0x40 MSTORE SWAP1 DUP2 PUSH0 DUP3 ADD SLOAD DUP2 MSTORE PUSH1 0x20 ADD PUSH1 0x1 DUP3 ADD DUP1 SLOAD PUSH2 0x2AD SWAP1 PUSH2 0xDE0 JUMP JUMPDEST DUP1 PUSH1 0x1F ADD PUSH1 0x20 DUP1 SWAP2 DIV MUL PUSH1 0x20 ADD PUSH1 0x40 MLOAD SWAP1 DUP2 ADD PUSH1 0x40 MSTORE DUP1 SWAP3 SWAP2 SWAP1 DUP2 DUP2 MSTORE PUSH1 0x20 ADD DUP3 DUP1 SLOAD PUSH2 0x2D9 SWAP1 PUSH2 0xDE0 JUMP JUMPDEST DUP1 ISZERO PUSH2 0x324 JUMPI DUP1 PUSH1 0x1F LT PUSH2 0x2FB JUMPI PUSH2 0x100 DUP1 DUP4 SLOAD DIV MUL DUP4 MSTORE SWAP2 PUSH1 0x20 ADD SWAP2 PUSH2 0x324 JUMP JUMPDEST DUP3 ADD SWAP2 SWAP1 PUSH0 MSTORE PUSH1 0x20 PUSH0 KECCAK256 SWAP1 JUMPDEST DUP2 SLOAD DUP2 MSTORE SWAP1 PUSH1 0x1 ADD SWAP1 PUSH1 0x20 ADD DUP1 DUP4 GT PUSH2 0x307 JUMPI DUP3 SWAP1 SUB PUSH1 0x1F AND DUP3 ADD SWAP2 JUMPDEST POP POP POP POP POP DUP2 MSTORE PUSH1 0x20 ADD PUSH1 0x2 DUP3 ADD PUSH0 SWAP1 SLOAD SWAP1 PUSH2 0x100 EXP SWAP1 DIV PUSH20 0xFFFFFFFFFFFFFFFFFFFFFFFFFFFFFFFFFFFFFFFF AND PUSH20 0xFFFFFFFFFFFFFFFFFFFFFFFFFFFFFFFFFFFFFFFF AND PUSH20 0xFFFFFFFFFFFFFFFFFFFFFFFFFFFFFFFFFFFFFFFF AND DUP2 MSTORE PUSH1 0x20 ADD PUSH1 0x3 DUP3 ADD SLOAD DUP2 MSTORE PUSH1 0x20 ADD PUSH1 0x4 DUP3 ADD SLOAD DUP2 MSTORE POP POP SWAP1 POP SWAP2 SWAP1 POP JUMP JUMPDEST PUSH0 JUMPDEST PUSH1 0x4 DUP2 LT ISZERO PUSH2 0x3F2 JUMPI DUP1 PUSH1 0x4 PUSH2 0x3B5 SWAP2 SWAP1 PUSH2 0xD80 JUMP JUMPDEST PUSH1 0x1 DUP3 PUSH1 0x4 DUP2 LT PUSH2 0x3C9 JUMPI PUSH2 0x3C8 PUSH2 0xE10 JUMP JUMPDEST JUMPDEST PUSH1 0x5 MUL ADD PUSH1 0x4 ADD PUSH0 DUP3 DUP3 SLOAD PUSH2 0x3DE SWAP2 SWAP1 PUSH2 0xE3D JUMP JUMPDEST SWAP3 POP POP DUP2 SWAP1 SSTORE POP DUP1 DUP1 PUSH1 0x1 ADD SWAP2 POP POP PUSH2 0x39F JUMP JUMPDEST POP JUMP JUMPDEST PUSH7 0x2386F26FC10000 CALLVALUE EQ PUSH2 0x43E JUMPI PUSH1 0x40 MLOAD PUSH32 0x8C379A000000000000000000000000000000000000000000000000000000000 DUP2 MSTORE PUSH1 0x4 ADD PUSH2 0x435 SWAP1 PUSH2 0xEBA JUMP JUMPDEST PUSH1 0x40 MLOAD DUP1 SWAP2 SUB SWAP1 REVERT JUMPDEST PUSH1 0x3 PUSH2 0x448 PUSH2 0x64E JUMP JUMPDEST SUB PUSH2 0x556 JUMPI PUSH1 0x15 PUSH0 CALLER PUSH20 0xFFFFFFFFFFFFFFFFFFFFFFFFFFFFFFFFFFFFFFFF AND PUSH20 0xFFFFFFFFFFFFFFFFFFFFFFFFFFFFFFFFFFFFFFFF AND DUP2 MSTORE PUSH1 0x20 ADD SWAP1 DUP2 MSTORE PUSH1 0x20 ADD PUSH0 KECCAK256 PUSH1 0x1 PUSH1 0x3 PUSH1 0x4 DUP2 LT PUSH2 0x49F JUMPI PUSH2 0x49E PUSH2 0xE10 JUMP JUMPDEST JUMPDEST PUSH1 0x5 MUL ADD PUSH0 DUP3 ADD SLOAD DUP2 PUSH0 ADD SSTORE PUSH1 0x1 DUP3 ADD DUP2 PUSH1 0x1 ADD SWAP1 DUP2 PUSH2 0x4BF SWAP2 SWAP1 PUSH2 0x108A JUMP JUMPDEST POP PUSH1 0x2 DUP3 ADD PUSH0 SWAP1 SLOAD SWAP1 PUSH2 0x100 EXP SWAP1 DIV PUSH20 0xFFFFFFFFFFFFFFFFFFFFFFFFFFFFFFFFFFFFFFFF AND DUP2 PUSH1 0x2 ADD PUSH0 PUSH2 0x100 EXP DUP2 SLOAD DUP2 PUSH20 0xFFFFFFFFFFFFFFFFFFFFFFFFFFFFFFFFFFFFFFFF MUL NOT AND SWAP1 DUP4 PUSH20 0xFFFFFFFFFFFFFFFFFFFFFFFFFFFFFFFFFFFFFFFF AND MUL OR SWAP1 SSTORE POP PUSH1 0x3 DUP3 ADD SLOAD DUP2 PUSH1 0x3 ADD SSTORE PUSH1 0x4 DUP3 ADD SLOAD DUP2 PUSH1 0x4 ADD SSTORE SWAP1 POP POP PUSH2 0x544 PUSH2 0x39D JUMP JUMPDEST PUSH1 0x1 PUSH0 PUSH2 0x551 SWAP2 SWAP1 PUSH2 0x7EF JUMP JUMPDEST PUSH2 0x64C JUMP JUMPDEST PUSH1 0x15 PUSH0 CALLER PUSH20 0xFFFFFFFFFFFFFFFFFFFFFFFFFFFFFFFFFFFFFFFF AND PUSH20 0xFFFFFFFFFFFFFFFFFFFFFFFFFFFFFFFFFFFFFFFF AND DUP2 MSTORE PUSH1 0x20 ADD SWAP1 DUP2 MSTORE PUSH1 0x20 ADD PUSH0 KECCAK256 PUSH1 0x1 PUSH2 0x59D PUSH2 0x64E JUMP JUMPDEST PUSH1 0x4 DUP2 LT PUSH2 0x5AE JUMPI PUSH2 0x5AD PUSH2 0xE10 JUMP JUMPDEST JUMPDEST PUSH1 0x5 MUL ADD PUSH0 DUP3 ADD SLOAD DUP2 PUSH0 ADD SSTORE PUSH1 0x1 DUP3 ADD DUP2 PUSH1 0x1 ADD SWAP1 DUP2 PUSH2 0x5CE SWAP2 SWAP1 PUSH2 0x108A JUMP JUMPDEST POP PUSH1 0x2 DUP3 ADD PUSH0 SWAP1 SLOAD SWAP1 PUSH2 0x100 EXP SWAP1 DIV PUSH20 0xFFFFFFFFFFFFFFFFFFFFFFFFFFFFFFFFFFFFFFFF AND DUP2 PUSH1 0x2 ADD PUSH0 PUSH2 0x100 EXP DUP2 SLOAD DUP2 PUSH20 0xFFFFFFFFFFFFFFFFFFFFFFFFFFFFFFFFFFFFFFFF MUL NOT AND SWAP1 DUP4 PUSH20 0xFFFFFFFFFFFFFFFFFFFFFFFFFFFFFFFFFFFFFFFF AND MUL OR SWAP1 SSTORE POP PUSH1 0x3 DUP3 ADD SLOAD DUP2 PUSH1 0x3 ADD SSTORE PUSH1 0x4 DUP3 ADD SLOAD DUP2 PUSH1 0x4 ADD SSTORE SWAP1 POP POP JUMPDEST JUMP JUMPDEST PUSH0 DUP1 PUSH0 SWAP1 POP JUMPDEST PUSH1 0x4 DUP2 LT ISZERO PUSH2 0x694 JUMPI PUSH0 PUSH1 0x1 DUP3 PUSH1 0x4 DUP2 LT PUSH2 0x672 JUMPI PUSH2 0x671 PUSH2 0xE10 JUMP JUMPDEST JUMPDEST PUSH1 0x5 MUL ADD PUSH0 ADD SLOAD SUB PUSH2 0x687 JUMPI DUP1 SWAP2 POP POP PUSH2 0x69A JUMP JUMPDEST DUP1 DUP1 PUSH1 0x1 ADD SWAP2 POP POP PUSH2 0x654 JUMP JUMPDEST POP PUSH1 0x4 SWAP1 POP JUMPDEST SWAP1 JUMP JUMPDEST PUSH1 0x40 MLOAD DUP1 PUSH1 0xA0 ADD PUSH1 0x40 MSTORE DUP1 PUSH1 0x16 SLOAD DUP2 MSTORE PUSH1 0x20 ADD DUP3 DUP2 MSTORE PUSH1 0x20 ADD CALLER PUSH20 0xFFFFFFFFFFFFFFFFFFFFFFFFFFFFFFFFFFFFFFFF AND DUP2 MSTORE PUSH1 0x20 ADD PUSH0 DUP2 MSTORE PUSH1 0x20 ADD PUSH0 DUP2 MSTORE POP PUSH1 0x15 PUSH0 CALLER PUSH20 0xFFFFFFFFFFFFFFFFFFFFFFFFFFFFFFFFFFFFFFFF AND PUSH20 0xFFFFFFFFFFFFFFFFFFFFFFFFFFFFFFFFFFFFFFFF AND DUP2 MSTORE PUSH1 0x20 ADD SWAP1 DUP2 MSTORE PUSH1 0x20 ADD PUSH0 KECCAK256 PUSH0 DUP3 ADD MLOAD DUP2 PUSH0 ADD SSTORE PUSH1 0x20 DUP3 ADD MLOAD DUP2 PUSH1 0x1 ADD SWAP1 DUP2 PUSH2 0x736 SWAP2 SWAP1 PUSH2 0x116F JUMP JUMPDEST POP PUSH1 0x40 DUP3 ADD MLOAD DUP2 PUSH1 0x2 ADD PUSH0 PUSH2 0x100 EXP DUP2 SLOAD DUP2 PUSH20 0xFFFFFFFFFFFFFFFFFFFFFFFFFFFFFFFFFFFFFFFF MUL NOT AND SWAP1 DUP4 PUSH20 0xFFFFFFFFFFFFFFFFFFFFFFFFFFFFFFFFFFFFFFFF AND MUL OR SWAP1 SSTORE POP PUSH1 0x60 DUP3 ADD MLOAD DUP2 PUSH1 0x3 ADD SSTORE PUSH1 0x80 DUP3 ADD MLOAD DUP2 PUSH1 0x4 ADD SSTORE SWAP1 POP POP PUSH1 0x16 PUSH0 DUP2 SLOAD DUP1 SWAP3 SWAP2 SWAP1 PUSH2 0x7A6 SWAP1 PUSH2 0x123E JUMP JUMPDEST SWAP2 SWAP1 POP SSTORE POP POP JUMP JUMPDEST PUSH1 0x40 MLOAD DUP1 PUSH1 0xA0 ADD PUSH1 0x40 MSTORE DUP1 PUSH0 DUP2 MSTORE PUSH1 0x20 ADD PUSH1 0x60 DUP2 MSTORE PUSH1 0x20 ADD PUSH0 PUSH20 0xFFFFFFFFFFFFFFFFFFFFFFFFFFFFFFFFFFFFFFFF AND DUP2 MSTORE PUSH1 0x20 ADD PUSH0 DUP2 MSTORE PUSH1 0x20 ADD PUSH0 DUP2 MSTORE POP SWAP1 JUMP JUMPDEST POP PUSH0 DUP1 DUP3 ADD PUSH0 SWAP1 SSTORE PUSH1 0x1 DUP3 ADD PUSH0 PUSH2 0x806 SWAP2 SWAP1 PUSH2 0x928 JUMP JUMPDEST PUSH1 0x2 DUP3 ADD PUSH0 PUSH2 0x100 EXP DUP2 SLOAD SWAP1 PUSH20 0xFFFFFFFFFFFFFFFFFFFFFFFFFFFFFFFFFFFFFFFF MUL NOT AND SWAP1 SSTORE PUSH1 0x3 DUP3 ADD PUSH0 SWAP1 SSTORE PUSH1 0x4 DUP3 ADD PUSH0 SWAP1 SSTORE POP PUSH1 0x5 ADD PUSH0 DUP1 DUP3 ADD PUSH0 SWAP1 SSTORE PUSH1 0x1 DUP3 ADD PUSH0 PUSH2 0x854 SWAP2 SWAP1 PUSH2 0x928 JUMP JUMPDEST PUSH1 0x2 DUP3 ADD PUSH0 PUSH2 0x100 EXP DUP2 SLOAD SWAP1 PUSH20 0xFFFFFFFFFFFFFFFFFFFFFFFFFFFFFFFFFFFFFFFF MUL NOT AND SWAP1 SSTORE PUSH1 0x3 DUP3 ADD PUSH0 SWAP1 SSTORE PUSH1 0x4 DUP3 ADD PUSH0 SWAP1 SSTORE POP PUSH1 0x5 ADD PUSH0 DUP1 DUP3 ADD PUSH0 SWAP1 SSTORE PUSH1 0x1 DUP3 ADD PUSH0 PUSH2 0x8A2 SWAP2 SWAP1 PUSH2 0x928 JUMP JUMPDEST PUSH1 0x2 DUP3 ADD PUSH0 PUSH2 0x100 EXP DUP2 SLOAD SWAP1 PUSH20 0xFFFFFFFFFFFFFFFFFFFFFFFFFFFFFFFFFFFFFFFF MUL NOT AND SWAP1 SSTORE PUSH1 0x3 DUP3 ADD PUSH0 SWAP1 SSTORE PUSH1 0x4 DUP3 ADD PUSH0 SWAP1 SSTORE POP PUSH1 0x5 ADD PUSH0 DUP1 DUP3 ADD PUSH0 SWAP1 SSTORE PUSH1 0x1 DUP3 ADD PUSH0 PUSH2 0x8F0 SWAP2 SWAP1 PUSH2 0x928 JUMP JUMPDEST PUSH1 0x2 DUP3 ADD PUSH0 PUSH2 0x100 EXP DUP2 SLOAD SWAP1 PUSH20 0xFFFFFFFFFFFFFFFFFFFFFFFFFFFFFFFFFFFFFFFF MUL NOT AND SWAP1 SSTORE PUSH1 0x3 DUP3 ADD PUSH0 SWAP1 SSTORE PUSH1 0x4 DUP3 ADD PUSH0 SWAP1 SSTORE POP POP JUMP JUMPDEST POP DUP1 SLOAD PUSH2 0x934 SWAP1 PUSH2 0xDE0 JUMP JUMPDEST PUSH0 DUP3 SSTORE DUP1 PUSH1 0x1F LT PUSH2 0x945 JUMPI POP PUSH2 0x962 JUMP JUMPDEST PUSH1 0x1F ADD PUSH1 0x20 SWAP1 DIV SWAP1 PUSH0 MSTORE PUSH1 0x20 PUSH0 KECCAK256 SWAP1 DUP2 ADD SWAP1 PUSH2 0x961 SWAP2 SWAP1 PUSH2 0x965 JUMP JUMPDEST JUMPDEST POP JUMP JUMPDEST JUMPDEST DUP1 DUP3 GT ISZERO PUSH2 0x97C JUMPI PUSH0 DUP2 PUSH0 SWAP1 SSTORE POP PUSH1 0x1 ADD PUSH2 0x966 JUMP JUMPDEST POP SWAP1 JUMP JUMPDEST PUSH0 DUP2 SWAP1 POP SWAP2 SWAP1 POP JUMP JUMPDEST PUSH2 0x992 DUP2 PUSH2 0x980 JUMP JUMPDEST DUP3 MSTORE POP POP JUMP JUMPDEST PUSH0 PUSH1 0x20 DUP3 ADD SWAP1 POP PUSH2 0x9AB PUSH0 DUP4 ADD DUP5 PUSH2 0x989 JUMP JUMPDEST SWAP3 SWAP2 POP POP JUMP JUMPDEST PUSH0 PUSH1 0x40 MLOAD SWAP1 POP SWAP1 JUMP JUMPDEST PUSH0 DUP1 REVERT JUMPDEST PUSH0 DUP1 REVERT JUMPDEST PUSH0 PUSH20 0xFFFFFFFFFFFFFFFFFFFFFFFFFFFFFFFFFFFFFFFF DUP3 AND SWAP1 POP SWAP2 SWAP1 POP JUMP JUMPDEST PUSH0 PUSH2 0x9EB DUP3 PUSH2 0x9C2 JUMP JUMPDEST SWAP1 POP SWAP2 SWAP1 POP JUMP JUMPDEST PUSH2 0x9FB DUP2 PUSH2 0x9E1 JUMP JUMPDEST DUP2 EQ PUSH2 0xA05 JUMPI PUSH0 DUP1 REVERT JUMPDEST POP JUMP JUMPDEST PUSH0 DUP2 CALLDATALOAD SWAP1 POP PUSH2 0xA16 DUP2 PUSH2 0x9F2 JUMP JUMPDEST SWAP3 SWAP2 POP POP JUMP JUMPDEST PUSH0 PUSH1 0x20 DUP3 DUP5 SUB SLT ISZERO PUSH2 0xA31 JUMPI PUSH2 0xA30 PUSH2 0x9BA JUMP JUMPDEST JUMPDEST PUSH0 PUSH2 0xA3E DUP5 DUP3 DUP6 ADD PUSH2 0xA08 JUMP JUMPDEST SWAP2 POP POP SWAP3 SWAP2 POP POP JUMP JUMPDEST PUSH2 0xA50 DUP2 PUSH2 0x980 JUMP JUMPDEST DUP3 MSTORE POP POP JUMP JUMPDEST PUSH0 DUP2 MLOAD SWAP1 POP SWAP2 SWAP1 POP JUMP JUMPDEST PUSH0 DUP3 DUP3 MSTORE PUSH1 0x20 DUP3 ADD SWAP1 POP SWAP3 SWAP2 POP POP JUMP JUMPDEST DUP3 DUP2 DUP4 MCOPY PUSH0 DUP4 DUP4 ADD MSTORE POP POP POP JUMP JUMPDEST PUSH0 PUSH1 0x1F NOT PUSH1 0x1F DUP4 ADD AND SWAP1 POP SWAP2 SWAP1 POP JUMP JUMPDEST PUSH0 PUSH2 0xA98 DUP3 PUSH2 0xA56 JUMP JUMPDEST PUSH2 0xAA2 DUP2 DUP6 PUSH2 0xA60 JUMP JUMPDEST SWAP4 POP PUSH2 0xAB2 DUP2 DUP6 PUSH1 0x20 DUP7 ADD PUSH2 0xA70 JUMP JUMPDEST PUSH2 0xABB DUP2 PUSH2 0xA7E JUMP JUMPDEST DUP5 ADD SWAP2 POP POP SWAP3 SWAP2 POP POP JUMP JUMPDEST PUSH2 0xACF DUP2 PUSH2 0x9E1 JUMP JUMPDEST DUP3 MSTORE POP POP JUMP JUMPDEST PUSH0 PUSH1 0xA0 DUP4 ADD PUSH0 DUP4 ADD MLOAD PUSH2 0xAEA PUSH0 DUP7 ADD DUP3 PUSH2 0xA47 JUMP JUMPDEST POP PUSH1 0x20 DUP4 ADD MLOAD DUP5 DUP3 SUB PUSH1 0x20 DUP7 ADD MSTORE PUSH2 0xB02 DUP3 DUP3 PUSH2 0xA8E JUMP JUMPDEST SWAP2 POP POP PUSH1 0x40 DUP4 ADD MLOAD PUSH2 0xB17 PUSH1 0x40 DUP7 ADD DUP3 PUSH2 0xAC6 JUMP JUMPDEST POP PUSH1 0x60 DUP4 ADD MLOAD PUSH2 0xB2A PUSH1 0x60 DUP7 ADD DUP3 PUSH2 0xA47 JUMP JUMPDEST POP PUSH1 0x80 DUP4 ADD MLOAD PUSH2 0xB3D PUSH1 0x80 DUP7 ADD DUP3 PUSH2 0xA47 JUMP JUMPDEST POP DUP1 SWAP2 POP POP SWAP3 SWAP2 POP POP JUMP JUMPDEST PUSH0 PUSH1 0x20 DUP3 ADD SWAP1 POP DUP2 DUP2 SUB PUSH0 DUP4 ADD MSTORE PUSH2 0xB60 DUP2 DUP5 PUSH2 0xAD5 JUMP JUMPDEST SWAP1 POP SWAP3 SWAP2 POP POP JUMP JUMPDEST PUSH0 DUP1 REVERT JUMPDEST PUSH0 DUP1 REVERT JUMPDEST PUSH32 0x4E487B7100000000000000000000000000000000000000000000000000000000 PUSH0 MSTORE PUSH1 0x41 PUSH1 0x4 MSTORE PUSH1 0x24 PUSH0 REVERT JUMPDEST PUSH2 0xBA6 DUP3 PUSH2 0xA7E JUMP JUMPDEST DUP2 ADD DUP2 DUP2 LT PUSH8 0xFFFFFFFFFFFFFFFF DUP3 GT OR ISZERO PUSH2 0xBC5 JUMPI PUSH2 0xBC4 PUSH2 0xB70 JUMP JUMPDEST JUMPDEST DUP1 PUSH1 0x40 MSTORE POP POP POP JUMP JUMPDEST PUSH0 PUSH2 0xBD7 PUSH2 0x9B1 JUMP JUMPDEST SWAP1 POP PUSH2 0xBE3 DUP3 DUP3 PUSH2 0xB9D JUMP JUMPDEST SWAP2 SWAP1 POP JUMP JUMPDEST PUSH0 PUSH8 0xFFFFFFFFFFFFFFFF DUP3 GT ISZERO PUSH2 0xC02 JUMPI PUSH2 0xC01 PUSH2 0xB70 JUMP JUMPDEST JUMPDEST PUSH2 0xC0B DUP3 PUSH2 0xA7E JUMP JUMPDEST SWAP1 POP PUSH1 0x20 DUP2 ADD SWAP1 POP SWAP2 SWAP1 POP JUMP JUMPDEST DUP3 DUP2 DUP4 CALLDATACOPY PUSH0 DUP4 DUP4 ADD MSTORE POP POP POP JUMP JUMPDEST PUSH0 PUSH2 0xC38 PUSH2 0xC33 DUP5 PUSH2 0xBE8 JUMP JUMPDEST PUSH2 0xBCE JUMP JUMPDEST SWAP1 POP DUP3 DUP2 MSTORE PUSH1 0x20 DUP2 ADD DUP5 DUP5 DUP5 ADD GT ISZERO PUSH2 0xC54 JUMPI PUSH2 0xC53 PUSH2 0xB6C JUMP JUMPDEST JUMPDEST PUSH2 0xC5F DUP5 DUP3 DUP6 PUSH2 0xC18 JUMP JUMPDEST POP SWAP4 SWAP3 POP POP POP JUMP JUMPDEST PUSH0 DUP3 PUSH1 0x1F DUP4 ADD SLT PUSH2 0xC7B JUMPI PUSH2 0xC7A PUSH2 0xB68 JUMP JUMPDEST JUMPDEST DUP2 CALLDATALOAD PUSH2 0xC8B DUP5 DUP3 PUSH1 0x20 DUP7 ADD PUSH2 0xC26 JUMP JUMPDEST SWAP2 POP POP SWAP3 SWAP2 POP POP JUMP JUMPDEST PUSH0 PUSH1 0x20 DUP3 DUP5 SUB SLT ISZERO PUSH2 0xCA9 JUMPI PUSH2 0xCA8 PUSH2 0x9BA JUMP JUMPDEST JUMPDEST PUSH0 DUP3 ADD CALLDATALOAD PUSH8 0xFFFFFFFFFFFFFFFF DUP2 GT ISZERO PUSH2 0xCC6 JUMPI PUSH2 0xCC5 PUSH2 0x9BE JUMP JUMPDEST JUMPDEST PUSH2 0xCD2 DUP5 DUP3 DUP6 ADD PUSH2 0xC67 JUMP JUMPDEST SWAP2 POP POP SWAP3 SWAP2 POP POP JUMP JUMPDEST PUSH0 DUP3 DUP3 MSTORE PUSH1 0x20 DUP3 ADD SWAP1 POP SWAP3 SWAP2 POP POP JUMP JUMPDEST PUSH32 0x6E6F706500000000000000000000000000000000000000000000000000000000 PUSH0 DUP3 ADD MSTORE POP JUMP JUMPDEST PUSH0 PUSH2 0xD1F PUSH1 0x4 DUP4 PUSH2 0xCDB JUMP JUMPDEST SWAP2 POP PUSH2 0xD2A DUP3 PUSH2 0xCEB JUMP JUMPDEST PUSH1 0x20 DUP3 ADD SWAP1 POP SWAP2 SWAP1 POP JUMP JUMPDEST PUSH0 PUSH1 0x20 DUP3 ADD SWAP1 POP DUP2 DUP2 SUB PUSH0 DUP4 ADD MSTORE PUSH2 0xD4C DUP2 PUSH2 0xD13 JUMP JUMPDEST SWAP1 POP SWAP2 SWAP1 POP JUMP JUMPDEST PUSH32 0x4E487B7100000000000000000000000000000000000000000000000000000000 PUSH0 MSTORE PUSH1 0x11 PUSH1 0x4 MSTORE PUSH1 0x24 PUSH0 REVERT JUMPDEST PUSH0 PUSH2 0xD8A DUP3 PUSH2 0x980 JUMP JUMPDEST SWAP2 POP PUSH2 0xD95 DUP4 PUSH2 0x980 JUMP JUMPDEST SWAP3 POP DUP3 DUP3 SUB SWAP1 POP DUP2 DUP2 GT ISZERO PUSH2 0xDAD JUMPI PUSH2 0xDAC PUSH2 0xD53 JUMP JUMPDEST JUMPDEST SWAP3 SWAP2 POP POP JUMP JUMPDEST PUSH32 0x4E487B7100000000000000000000000000000000000000000000000000000000 PUSH0 MSTORE PUSH1 0x22 PUSH1 0x4 MSTORE PUSH1 0x24 PUSH0 REVERT JUMPDEST PUSH0 PUSH1 0x2 DUP3 DIV SWAP1 POP PUSH1 0x1 DUP3 AND DUP1 PUSH2 0xDF7 JUMPI PUSH1 0x7F DUP3 AND SWAP2 POP JUMPDEST PUSH1 0x20 DUP3 LT DUP2 SUB PUSH2 0xE0A JUMPI PUSH2 0xE09 PUSH2 0xDB3 JUMP JUMPDEST JUMPDEST POP SWAP2 SWAP1 POP JUMP JUMPDEST PUSH32 0x4E487B7100000000000000000000000000000000000000000000000000000000 PUSH0 MSTORE PUSH1 0x32 PUSH1 0x4 MSTORE PUSH1 0x24 PUSH0 REVERT JUMPDEST PUSH0 PUSH2 0xE47 DUP3 PUSH2 0x980 JUMP JUMPDEST SWAP2 POP PUSH2 0xE52 DUP4 PUSH2 0x980 JUMP JUMPDEST SWAP3 POP DUP3 DUP3 ADD SWAP1 POP DUP1 DUP3 GT ISZERO PUSH2 0xE6A JUMPI PUSH2 0xE69 PUSH2 0xD53 JUMP JUMPDEST JUMPDEST SWAP3 SWAP2 POP POP JUMP JUMPDEST PUSH32 0x4E4F504500000000000000000000000000000000000000000000000000000000 PUSH0 DUP3 ADD MSTORE POP JUMP JUMPDEST PUSH0 PUSH2 0xEA4 PUSH1 0x4 DUP4 PUSH2 0xCDB JUMP JUMPDEST SWAP2 POP PUSH2 0xEAF DUP3 PUSH2 0xE70 JUMP JUMPDEST PUSH1 0x20 DUP3 ADD SWAP1 POP SWAP2 SWAP1 POP JUMP JUMPDEST PUSH0 PUSH1 0x20 DUP3 ADD SWAP1 POP DUP2 DUP2 SUB PUSH0 DUP4 ADD MSTORE PUSH2 0xED1 DUP2 PUSH2 0xE98 JUMP JUMPDEST SWAP1 POP SWAP2 SWAP1 POP JUMP JUMPDEST PUSH0 DUP2 SLOAD SWAP1 POP PUSH2 0xEE6 DUP2 PUSH2 0xDE0 JUMP JUMPDEST SWAP1 POP SWAP2 SWAP1 POP JUMP JUMPDEST PUSH0 DUP2 SWAP1 POP DUP2 PUSH0 MSTORE PUSH1 0x20 PUSH0 KECCAK256 SWAP1 POP SWAP2 SWAP1 POP JUMP JUMPDEST PUSH0 PUSH1 0x20 PUSH1 0x1F DUP4 ADD DIV SWAP1 POP SWAP2 SWAP1 POP JUMP JUMPDEST PUSH0 DUP3 DUP3 SHL SWAP1 POP SWAP3 SWAP2 POP POP JUMP JUMPDEST PUSH0 PUSH1 0x8 DUP4 MUL PUSH2 0xF49 PUSH32 0xFFFFFFFFFFFFFFFFFFFFFFFFFFFFFFFFFFFFFFFFFFFFFFFFFFFFFFFFFFFFFFFF DUP3 PUSH2 0xF0E JUMP JUMPDEST PUSH2 0xF53 DUP7 DUP4 PUSH2 0xF0E JUMP JUMPDEST SWAP6 POP DUP1 NOT DUP5 AND SWAP4 POP DUP1 DUP7 AND DUP5 OR SWAP3 POP POP POP SWAP4 SWAP3 POP POP POP JUMP JUMPDEST PUSH0 DUP2 SWAP1 POP SWAP2 SWAP1 POP JUMP JUMPDEST PUSH0 PUSH2 0xF8E PUSH2 0xF89 PUSH2 0xF84 DUP5 PUSH2 0x980 JUMP JUMPDEST PUSH2 0xF6B JUMP JUMPDEST PUSH2 0x980 JUMP JUMPDEST SWAP1 POP SWAP2 SWAP1 POP JUMP JUMPDEST PUSH0 DUP2 SWAP1 POP SWAP2 SWAP1 POP JUMP JUMPDEST PUSH2 0xFA7 DUP4 PUSH2 0xF74 JUMP JUMPDEST PUSH2 0xFBB PUSH2 0xFB3 DUP3 PUSH2 0xF95 JUMP JUMPDEST DUP5 DUP5 SLOAD PUSH2 0xF1A JUMP JUMPDEST DUP3 SSTORE POP POP POP POP JUMP JUMPDEST PUSH0 SWAP1 JUMP JUMPDEST PUSH2 0xFCF PUSH2 0xFC3 JUMP JUMPDEST PUSH2 0xFDA DUP2 DUP5 DUP5 PUSH2 0xF9E JUMP JUMPDEST POP POP POP JUMP JUMPDEST JUMPDEST DUP2 DUP2 LT ISZERO PUSH2 0xFFD JUMPI PUSH2 0xFF2 PUSH0 DUP3 PUSH2 0xFC7 JUMP JUMPDEST PUSH1 0x1 DUP2 ADD SWAP1 POP PUSH2 0xFE0 JUMP JUMPDEST POP POP JUMP JUMPDEST PUSH1 0x1F DUP3 GT ISZERO PUSH2 0x1042 JUMPI PUSH2 0x1013 DUP2 PUSH2 0xEED JUMP JUMPDEST PUSH2 0x101C DUP5 PUSH2 0xEFF JUMP JUMPDEST DUP2 ADD PUSH1 0x20 DUP6 LT ISZERO PUSH2 0x102B JUMPI DUP2 SWAP1 POP JUMPDEST PUSH2 0x103F PUSH2 0x1037 DUP6 PUSH2 0xEFF JUMP JUMPDEST DUP4 ADD DUP3 PUSH2 0xFDF JUMP JUMPDEST POP POP JUMPDEST POP POP POP JUMP JUMPDEST PUSH0 DUP3 DUP3 SHR SWAP1 POP SWAP3 SWAP2 POP POP JUMP JUMPDEST PUSH0 PUSH2 0x1062 PUSH0 NOT DUP5 PUSH1 0x8 MUL PUSH2 0x1047 JUMP JUMPDEST NOT DUP1 DUP4 AND SWAP2 POP POP SWAP3 SWAP2 POP POP JUMP JUMPDEST PUSH0 PUSH2 0x107A DUP4 DUP4 PUSH2 0x1053 JUMP JUMPDEST SWAP2 POP DUP3 PUSH1 0x2 MUL DUP3 OR SWAP1 POP SWAP3 SWAP2 POP POP JUMP JUMPDEST DUP2 DUP2 SUB PUSH2 0x1098 JUMPI POP POP PUSH2 0x116D JUMP JUMPDEST PUSH2 0x10A1 DUP3 PUSH2 0xED8 JUMP JUMPDEST PUSH8 0xFFFFFFFFFFFFFFFF DUP2 GT ISZERO PUSH2 0x10BA JUMPI PUSH2 0x10B9 PUSH2 0xB70 JUMP JUMPDEST JUMPDEST PUSH2 0x10C4 DUP3 SLOAD PUSH2 0xDE0 JUMP JUMPDEST PUSH2 0x10CF DUP3 DUP3 DUP6 PUSH2 0x1001 JUMP JUMPDEST PUSH0 PUSH1 0x1F DUP4 GT PUSH1 0x1 DUP2 EQ PUSH2 0x10FC JUMPI PUSH0 DUP5 ISZERO PUSH2 0x10EA JUMPI DUP3 DUP8 ADD SLOAD SWAP1 POP JUMPDEST PUSH2 0x10F4 DUP6 DUP3 PUSH2 0x106F JUMP JUMPDEST DUP7 SSTORE POP PUSH2 0x1166 JUMP JUMPDEST PUSH1 0x1F NOT DUP5 AND PUSH2 0x110A DUP8 PUSH2 0xEED JUMP JUMPDEST SWAP7 POP PUSH2 0x1115 DUP7 PUSH2 0xEED JUMP JUMPDEST PUSH0 JUMPDEST DUP3 DUP2 LT ISZERO PUSH2 0x113C JUMPI DUP5 DUP10 ADD SLOAD DUP3 SSTORE PUSH1 0x1 DUP3 ADD SWAP2 POP PUSH1 0x1 DUP6 ADD SWAP5 POP PUSH1 0x20 DUP2 ADD SWAP1 POP PUSH2 0x1117 JUMP JUMPDEST DUP7 DUP4 LT ISZERO PUSH2 0x1159 JUMPI DUP5 DUP10 ADD SLOAD PUSH2 0x1155 PUSH1 0x1F DUP10 AND DUP3 PUSH2 0x1053 JUMP JUMPDEST DUP4 SSTORE POP JUMPDEST PUSH1 0x1 PUSH1 0x2 DUP9 MUL ADD DUP9 SSTORE POP POP POP JUMPDEST POP POP POP POP POP POP JUMPDEST JUMP JUMPDEST PUSH2 0x1178 DUP3 PUSH2 0xA56 JUMP JUMPDEST PUSH8 0xFFFFFFFFFFFFFFFF DUP2 GT ISZERO PUSH2 0x1191 JUMPI PUSH2 0x1190 PUSH2 0xB70 JUMP JUMPDEST JUMPDEST PUSH2 0x119B DUP3 SLOAD PUSH2 0xDE0 JUMP JUMPDEST PUSH2 0x11A6 DUP3 DUP3 DUP6 PUSH2 0x1001 JUMP JUMPDEST PUSH0 PUSH1 0x20 SWAP1 POP PUSH1 0x1F DUP4 GT PUSH1 0x1 DUP2 EQ PUSH2 0x11D7 JUMPI PUSH0 DUP5 ISZERO PUSH2 0x11C5 JUMPI DUP3 DUP8 ADD MLOAD SWAP1 POP JUMPDEST PUSH2 0x11CF DUP6 DUP3 PUSH2 0x106F JUMP JUMPDEST DUP7 SSTORE POP PUSH2 0x1236 JUMP JUMPDEST PUSH1 0x1F NOT DUP5 AND PUSH2 0x11E5 DUP7 PUSH2 0xEED JUMP JUMPDEST PUSH0 JUMPDEST DUP3 DUP2 LT ISZERO PUSH2 0x120C JUMPI DUP5 DUP10 ADD MLOAD DUP3 SSTORE PUSH1 0x1 DUP3 ADD SWAP2 POP PUSH1 0x20 DUP6 ADD SWAP5 POP PUSH1 0x20 DUP2 ADD SWAP1 POP PUSH2 0x11E7 JUMP JUMPDEST DUP7 DUP4 LT ISZERO PUSH2 0x1229 JUMPI DUP5 DUP10 ADD MLOAD PUSH2 0x1225 PUSH1 0x1F DUP10 AND DUP3 PUSH2 0x1053 JUMP JUMPDEST DUP4 SSTORE POP JUMPDEST PUSH1 0x1 PUSH1 0x2 DUP9 MUL ADD DUP9 SSTORE POP POP POP JUMPDEST POP POP POP POP POP POP JUMP JUMPDEST PUSH0 PUSH2 0x1248 DUP3 PUSH2 0x980 JUMP JUMPDEST SWAP2 POP PUSH32 0xFFFFFFFFFFFFFFFFFFFFFFFFFFFFFFFFFFFFFFFFFFFFFFFFFFFFFFFFFFFFFFFF DUP3 SUB PUSH2 0x127A JUMPI PUSH2 0x1279 PUSH2 0xD53 JUMP JUMPDEST JUMPDEST PUSH1 0x1 DUP3 ADD SWAP1 POP SWAP2 SWAP1 POP JUMP INVALID LOG2 PUSH5 0x6970667358 0x22 SLT KECCAK256 LOG3 CODECOPY 0xBC DUP9 0x23 0x1F 0x29 DUP12 SMOD 0xE6 KECCAK256 PUSH13 0xDE14B2F25A20F4ADEA9A373160 0xCF 0xDC ISZERO CREATE EXTCODECOPY 0xDA PUSH32 0x64736F6C63430008190033000000000000000000000000000000000000000000 "
				},
				"gasEstimates": {
					"creation": {
						"codeDepositCost": "959000",
						"executionCost": "47363",
						"totalCost": "1006363"
					},
					"external": {
						"getLength()": "infinite",
						"getScore()": "infinite",
						"join()": "infinite",
						"search(address)": "infinite",
						"signIn(string)": "infinite",
						"userCount()": "2448",
						"withDrawTen()": "infinite"
					}
				},
				"methodIdentifiers": {
					"getLength()": "be1c766b",
					"getScore()": "afd82067",
					"join()": "b688a363",
					"search(address)": "657a2512",
					"signIn(string)": "c95f728a",
					"userCount()": "07973ccf",
					"withDrawTen()": "05039910"
				}
			},
			"storageLayout": {
				"storage": [
					{
						"astId": 259,
						"contract": "solidity_test/test4.sol:Answer",
						"label": "owner",
						"offset": 0,
						"slot": "0",
						"type": "t_address_payable"
					},
					{
						"astId": 264,
						"contract": "solidity_test/test4.sol:Answer",
						"label": "room",
						"offset": 0,
						"slot": "1",
						"type": "t_array(t_struct(USER)257_storage)4_storage"
					},
					{
						"astId": 269,
						"contract": "solidity_test/test4.sol:Answer",
						"label": "users",
						"offset": 0,
						"slot": "21",
						"type": "t_mapping(t_address,t_struct(USER)257_storage)"
					},
					{
						"astId": 272,
						"contract": "solidity_test/test4.sol:Answer",
						"label": "userCount",
						"offset": 0,
						"slot": "22",
						"type": "t_uint256"
					}
				],
				"types": {
					"t_address": {
						"encoding": "inplace",
						"label": "address",
						"numberOfBytes": "20"
					},
					"t_address_payable": {
						"encoding": "inplace",
						"label": "address payable",
						"numberOfBytes": "20"
					},
					"t_array(t_struct(USER)257_storage)4_storage": {
						"base": "t_struct(USER)257_storage",
						"encoding": "inplace",
						"label": "struct Answer.USER[4]",
						"numberOfBytes": "640"
					},
					"t_mapping(t_address,t_struct(USER)257_storage)": {
						"encoding": "mapping",
						"key": "t_address",
						"label": "mapping(address => struct Answer.USER)",
						"numberOfBytes": "32",
						"value": "t_struct(USER)257_storage"
					},
					"t_string_storage": {
						"encoding": "bytes",
						"label": "string",
						"numberOfBytes": "32"
					},
					"t_struct(USER)257_storage": {
						"encoding": "inplace",
						"label": "struct Answer.USER",
						"members": [
							{
								"astId": 248,
								"contract": "solidity_test/test4.sol:Answer",
								"label": "number",
								"offset": 0,
								"slot": "0",
								"type": "t_uint256"
							},
							{
								"astId": 250,
								"contract": "solidity_test/test4.sol:Answer",
								"label": "name",
								"offset": 0,
								"slot": "1",
								"type": "t_string_storage"
							},
							{
								"astId": 252,
								"contract": "solidity_test/test4.sol:Answer",
								"label": "wallet",
								"offset": 0,
								"slot": "2",
								"type": "t_address"
							},
							{
								"astId": 254,
								"contract": "solidity_test/test4.sol:Answer",
								"label": "balance",
								"offset": 0,
								"slot": "3",
								"type": "t_uint256"
							},
							{
								"astId": 256,
								"contract": "solidity_test/test4.sol:Answer",
								"label": "score",
								"offset": 0,
								"slot": "4",
								"type": "t_uint256"
							}
						],
						"numberOfBytes": "160"
					},
					"t_uint256": {
						"encoding": "inplace",
						"label": "uint256",
						"numberOfBytes": "32"
					}
				}
			},
			"userdoc": {
				"kind": "user",
				"methods": {},
				"version": 1
			}
		}
	}
}