{
	"solidity_test/test4.sol": {
		"Answer": {
			"abi": [
				{
					"inputs": [],
					"stateMutability": "nonpayable",
					"type": "constructor"
				},
				{
					"inputs": [],
					"name": "deposit",
					"outputs": [],
					"stateMutability": "payable",
					"type": "function"
				},
				{
					"inputs": [],
					"name": "getLength",
					"outputs": [
						{
							"internalType": "uint256",
							"name": "",
							"type": "uint256"
						}
					],
					"stateMutability": "view",
					"type": "function"
				},
				{
					"inputs": [],
					"name": "getScore",
					"outputs": [],
					"stateMutability": "nonpayable",
					"type": "function"
				},
				{
					"inputs": [],
					"name": "join",
					"outputs": [],
					"stateMutability": "payable",
					"type": "function"
				},
				{
					"inputs": [],
					"name": "joinDeposit",
					"outputs": [],
					"stateMutability": "payable",
					"type": "function"
				},
				{
					"inputs": [
						{
							"internalType": "address",
							"name": "_addr",
							"type": "address"
						}
					],
					"name": "search",
					"outputs": [
						{
							"components": [
								{
									"internalType": "uint256",
									"name": "number",
									"type": "uint256"
								},
								{
									"internalType": "string",
									"name": "name",
									"type": "string"
								},
								{
									"internalType": "address",
									"name": "wallet",
									"type": "address"
								},
								{
									"internalType": "uint256",
									"name": "balance",
									"type": "uint256"
								},
								{
									"internalType": "uint256",
									"name": "score",
									"type": "uint256"
								}
							],
							"internalType": "struct Answer.USER",
							"name": "",
							"type": "tuple"
						}
					],
					"stateMutability": "view",
					"type": "function"
				},
				{
					"inputs": [
						{
							"internalType": "string",
							"name": "_name",
							"type": "string"
						}
					],
					"name": "signIn",
					"outputs": [],
					"stateMutability": "nonpayable",
					"type": "function"
				},
				{
					"inputs": [],
					"name": "userCount",
					"outputs": [
						{
							"internalType": "uint256",
							"name": "",
							"type": "uint256"
						}
					],
					"stateMutability": "view",
					"type": "function"
				},
				{
					"inputs": [
						{
							"internalType": "uint256",
							"name": "_n",
							"type": "uint256"
						}
					],
					"name": "withDraw",
					"outputs": [],
					"stateMutability": "nonpayable",
					"type": "function"
				},
				{
					"inputs": [],
					"name": "withDrawAll",
					"outputs": [],
					"stateMutability": "nonpayable",
					"type": "function"
				},
				{
					"inputs": [],
					"name": "withDrawMax",
					"outputs": [],
					"stateMutability": "nonpayable",
					"type": "function"
				},
				{
					"inputs": [
						{
							"internalType": "uint256",
							"name": "_n",
							"type": "uint256"
						}
					],
					"name": "withDrawOwner",
					"outputs": [],
					"stateMutability": "nonpayable",
					"type": "function"
				},
				{
					"inputs": [],
					"name": "withDrawTen",
					"outputs": [],
					"stateMutability": "nonpayable",
					"type": "function"
				}
			],
			"devdoc": {
				"kind": "dev",
				"methods": {},
				"version": 1
			},
			"evm": {
				"assembly": "    /* \"solidity_test/test4.sol\":3821:9222  contract Answer {... */\n  mstore(0x40, 0x80)\n    /* \"solidity_test/test4.sol\":4457:4458  1 */\n  0x01\n    /* \"solidity_test/test4.sol\":4435:4458  uint public userCount=1 */\n  0x16\n  sstore\n    /* \"solidity_test/test4.sol\":4806:4902  constructor() {... */\n  callvalue\n  dup1\n  iszero\n  tag_1\n  jumpi\n  0x00\n  dup1\n  revert\ntag_1:\n  pop\n    /* \"solidity_test/test4.sol\":4847:4857  msg.sender */\n  caller\n    /* \"solidity_test/test4.sol\":4831:4836  owner */\n  0x00\n  dup1\n    /* \"solidity_test/test4.sol\":4831:4858  owner = payable(msg.sender) */\n  0x0100\n  exp\n  dup2\n  sload\n  dup2\n  0xffffffffffffffffffffffffffffffffffffffff\n  mul\n  not\n  and\n  swap1\n  dup4\n  0xffffffffffffffffffffffffffffffffffffffff\n  and\n  mul\n  or\n  swap1\n  sstore\n  pop\n    /* \"solidity_test/test4.sol\":3821:9222  contract Answer {... */\n  dataSize(sub_0)\n  dup1\n  dataOffset(sub_0)\n  0x00\n  codecopy\n  0x00\n  return\nstop\n\nsub_0: assembly {\n        /* \"solidity_test/test4.sol\":3821:9222  contract Answer {... */\n      mstore(0x40, 0x80)\n      jumpi(tag_1, lt(calldatasize, 0x04))\n      shr(0xe0, calldataload(0x00))\n      dup1\n      0x657a2512\n      gt\n      tag_15\n      jumpi\n      dup1\n      0xb688a363\n      gt\n      tag_16\n      jumpi\n      dup1\n      0xb688a363\n      eq\n      tag_11\n      jumpi\n      dup1\n      0xbe1c766b\n      eq\n      tag_12\n      jumpi\n      dup1\n      0xc95f728a\n      eq\n      tag_13\n      jumpi\n      dup1\n      0xd0e30db0\n      eq\n      tag_14\n      jumpi\n      jump(tag_1)\n    tag_16:\n      dup1\n      0x657a2512\n      eq\n      tag_8\n      jumpi\n      dup1\n      0x991671e2\n      eq\n      tag_9\n      jumpi\n      dup1\n      0xafd82067\n      eq\n      tag_10\n      jumpi\n      jump(tag_1)\n    tag_15:\n      dup1\n      0x05039910\n      eq\n      tag_2\n      jumpi\n      dup1\n      0x07973ccf\n      eq\n      tag_3\n      jumpi\n      dup1\n      0x14174f33\n      eq\n      tag_4\n      jumpi\n      dup1\n      0x18d075c3\n      eq\n      tag_5\n      jumpi\n      dup1\n      0x22552a55\n      eq\n      tag_6\n      jumpi\n      dup1\n      0x36588975\n      eq\n      tag_7\n      jumpi\n    tag_1:\n      0x00\n      dup1\n      revert\n        /* \"solidity_test/test4.sol\":7465:7723  function withDrawTen() public {... */\n    tag_2:\n      callvalue\n      dup1\n      iszero\n      tag_17\n      jumpi\n      0x00\n      dup1\n      revert\n    tag_17:\n      pop\n      tag_18\n      tag_19\n      jump\t// in\n    tag_18:\n      stop\n        /* \"solidity_test/test4.sol\":4435:4458  uint public userCount=1 */\n    tag_3:\n      callvalue\n      dup1\n      iszero\n      tag_20\n      jumpi\n      0x00\n      dup1\n      revert\n    tag_20:\n      pop\n      tag_21\n      tag_22\n      jump\t// in\n    tag_21:\n      mload(0x40)\n      tag_23\n      swap2\n      swap1\n      tag_24\n      jump\t// in\n    tag_23:\n      mload(0x40)\n      dup1\n      swap2\n      sub\n      swap1\n      return\n        /* \"solidity_test/test4.sol\":7731:7930  function withDraw(uint _n) public {... */\n    tag_4:\n      callvalue\n      dup1\n      iszero\n      tag_25\n      jumpi\n      0x00\n      dup1\n      revert\n    tag_25:\n      pop\n      tag_26\n      0x04\n      dup1\n      calldatasize\n      sub\n      dup2\n      add\n      swap1\n      tag_27\n      swap2\n      swap1\n      tag_28\n      jump\t// in\n    tag_27:\n      tag_29\n      jump\t// in\n    tag_26:\n      stop\n        /* \"solidity_test/test4.sol\":7938:8207  function withDrawMax() public {... */\n    tag_5:\n      callvalue\n      dup1\n      iszero\n      tag_30\n      jumpi\n      0x00\n      dup1\n      revert\n    tag_30:\n      pop\n      tag_31\n      tag_32\n      jump\t// in\n    tag_31:\n      stop\n        /* \"solidity_test/test4.sol\":8608:9219  function joinDeposit() public payable {... */\n    tag_6:\n      tag_33\n      tag_34\n      jump\t// in\n    tag_33:\n      stop\n        /* \"solidity_test/test4.sol\":5213:5362  function withDrawOwner(uint _n) public onlyOwner {... */\n    tag_7:\n      callvalue\n      dup1\n      iszero\n      tag_35\n      jumpi\n      0x00\n      dup1\n      revert\n    tag_35:\n      pop\n      tag_36\n      0x04\n      dup1\n      calldatasize\n      sub\n      dup2\n      add\n      swap1\n      tag_37\n      swap2\n      swap1\n      tag_28\n      jump\t// in\n    tag_37:\n      tag_38\n      jump\t// in\n    tag_36:\n      stop\n        /* \"solidity_test/test4.sol\":6182:6285  function search(address _addr) public view returns(USER memory)  {... */\n    tag_8:\n      callvalue\n      dup1\n      iszero\n      tag_39\n      jumpi\n      0x00\n      dup1\n      revert\n    tag_39:\n      pop\n      tag_40\n      0x04\n      dup1\n      calldatasize\n      sub\n      dup2\n      add\n      swap1\n      tag_41\n      swap2\n      swap1\n      tag_42\n      jump\t// in\n    tag_41:\n      tag_43\n      jump\t// in\n    tag_40:\n      mload(0x40)\n      tag_44\n      swap2\n      swap1\n      tag_45\n      jump\t// in\n    tag_44:\n      mload(0x40)\n      dup1\n      swap2\n      sub\n      swap1\n      return\n        /* \"solidity_test/test4.sol\":5370:5515  function withDrawAll() public onlyOwner{... */\n    tag_9:\n      callvalue\n      dup1\n      iszero\n      tag_46\n      jumpi\n      0x00\n      dup1\n      revert\n    tag_46:\n      pop\n      tag_47\n      tag_48\n      jump\t// in\n    tag_47:\n      stop\n        /* \"solidity_test/test4.sol\":7198:7314  function getScore() public {... */\n    tag_10:\n      callvalue\n      dup1\n      iszero\n      tag_49\n      jumpi\n      0x00\n      dup1\n      revert\n    tag_49:\n      pop\n      tag_50\n      tag_51\n      jump\t// in\n    tag_50:\n      stop\n        /* \"solidity_test/test4.sol\":6404:6979  function join() public payable {... */\n    tag_11:\n      tag_52\n      tag_53\n      jump\t// in\n    tag_52:\n      stop\n        /* \"solidity_test/test4.sol\":6987:7190  function getLength() public view returns(uint) {... */\n    tag_12:\n      callvalue\n      dup1\n      iszero\n      tag_54\n      jumpi\n      0x00\n      dup1\n      revert\n    tag_54:\n      pop\n      tag_55\n      tag_56\n      jump\t// in\n    tag_55:\n      mload(0x40)\n      tag_57\n      swap2\n      swap1\n      tag_24\n      jump\t// in\n    tag_57:\n      mload(0x40)\n      dup1\n      swap2\n      sub\n      swap1\n      return\n        /* \"solidity_test/test4.sol\":5680:6078  function signIn(string memory _name) public {... */\n    tag_13:\n      callvalue\n      dup1\n      iszero\n      tag_58\n      jumpi\n      0x00\n      dup1\n      revert\n    tag_58:\n      pop\n      tag_59\n      0x04\n      dup1\n      calldatasize\n      sub\n      dup2\n      add\n      swap1\n      tag_60\n      swap2\n      swap1\n      tag_61\n      jump\t// in\n    tag_60:\n      tag_62\n      jump\t// in\n    tag_59:\n      stop\n        /* \"solidity_test/test4.sol\":8449:8540  function deposit() public payable {... */\n    tag_14:\n      tag_63\n      tag_64\n      jump\t// in\n    tag_63:\n      stop\n        /* \"solidity_test/test4.sol\":7465:7723  function withDrawTen() public {... */\n    tag_19:\n        /* \"solidity_test/test4.sol\":7541:7543  10 */\n      0x0a\n        /* \"solidity_test/test4.sol\":7514:7519  users */\n      0x15\n        /* \"solidity_test/test4.sol\":7514:7531  users[msg.sender] */\n      0x00\n        /* \"solidity_test/test4.sol\":7520:7530  msg.sender */\n      caller\n        /* \"solidity_test/test4.sol\":7514:7531  users[msg.sender] */\n      0xffffffffffffffffffffffffffffffffffffffff\n      and\n      0xffffffffffffffffffffffffffffffffffffffff\n      and\n      dup2\n      mstore\n      0x20\n      add\n      swap1\n      dup2\n      mstore\n      0x20\n      add\n      0x00\n      keccak256\n        /* \"solidity_test/test4.sol\":7514:7537  users[msg.sender].score */\n      0x04\n      add\n      sload\n        /* \"solidity_test/test4.sol\":7514:7543  users[msg.sender].score >= 10 */\n      lt\n      iszero\n        /* \"solidity_test/test4.sol\":7506:7552  require(users[msg.sender].score >= 10, \"nope\") */\n      tag_66\n      jumpi\n      mload(0x40)\n      0x08c379a000000000000000000000000000000000000000000000000000000000\n      dup2\n      mstore\n      0x04\n      add\n      tag_67\n      swap1\n      tag_68\n      jump\t// in\n    tag_67:\n      mload(0x40)\n      dup1\n      swap2\n      sub\n      swap1\n      revert\n    tag_66:\n        /* \"solidity_test/test4.sol\":7590:7592  10 */\n      0x0a\n        /* \"solidity_test/test4.sol\":7563:7568  users */\n      0x15\n        /* \"solidity_test/test4.sol\":7563:7580  users[msg.sender] */\n      0x00\n        /* \"solidity_test/test4.sol\":7569:7579  msg.sender */\n      caller\n        /* \"solidity_test/test4.sol\":7563:7580  users[msg.sender] */\n      0xffffffffffffffffffffffffffffffffffffffff\n      and\n      0xffffffffffffffffffffffffffffffffffffffff\n      and\n      dup2\n      mstore\n      0x20\n      add\n      swap1\n      dup2\n      mstore\n      0x20\n      add\n      0x00\n      keccak256\n        /* \"solidity_test/test4.sol\":7563:7586  users[msg.sender].score */\n      0x04\n      add\n      0x00\n        /* \"solidity_test/test4.sol\":7563:7592  users[msg.sender].score -= 10 */\n      dup3\n      dup3\n      sload\n      tag_69\n      swap2\n      swap1\n      tag_70\n      jump\t// in\n    tag_69:\n      swap3\n      pop\n      pop\n      dup2\n      swap1\n      sstore\n      pop\n        /* \"solidity_test/test4.sol\":7611:7621  msg.sender */\n      caller\n        /* \"solidity_test/test4.sol\":7603:7631  payable(msg.sender).transfer */\n      0xffffffffffffffffffffffffffffffffffffffff\n      and\n        /* \"solidity_test/test4.sol\":7603:7642  payable(msg.sender).transfer(0.1 ether) */\n      0x08fc\n        /* \"solidity_test/test4.sol\":7632:7641  0.1 ether */\n      0x016345785d8a0000\n        /* \"solidity_test/test4.sol\":7603:7642  payable(msg.sender).transfer(0.1 ether) */\n      swap1\n      dup2\n      iszero\n      mul\n      swap1\n      mload(0x40)\n      0x00\n      mload(0x40)\n      dup1\n      dup4\n      sub\n      dup2\n      dup6\n      dup9\n      dup9\n      call\n      swap4\n      pop\n      pop\n      pop\n      pop\n      iszero\n      dup1\n      iszero\n      tag_72\n      jumpi\n      returndatasize\n      0x00\n      dup1\n      returndatacopy\n      revert(0x00, returndatasize)\n    tag_72:\n      pop\n        /* \"solidity_test/test4.sol\":7465:7723  function withDrawTen() public {... */\n      jump\t// out\n        /* \"solidity_test/test4.sol\":4435:4458  uint public userCount=1 */\n    tag_22:\n      sload(0x16)\n      dup2\n      jump\t// out\n        /* \"solidity_test/test4.sol\":7731:7930  function withDraw(uint _n) public {... */\n    tag_29:\n        /* \"solidity_test/test4.sol\":7811:7813  _n */\n      dup1\n        /* \"solidity_test/test4.sol\":7784:7789  users */\n      0x15\n        /* \"solidity_test/test4.sol\":7784:7801  users[msg.sender] */\n      0x00\n        /* \"solidity_test/test4.sol\":7790:7800  msg.sender */\n      caller\n        /* \"solidity_test/test4.sol\":7784:7801  users[msg.sender] */\n      0xffffffffffffffffffffffffffffffffffffffff\n      and\n      0xffffffffffffffffffffffffffffffffffffffff\n      and\n      dup2\n      mstore\n      0x20\n      add\n      swap1\n      dup2\n      mstore\n      0x20\n      add\n      0x00\n      keccak256\n        /* \"solidity_test/test4.sol\":7784:7807  users[msg.sender].score */\n      0x04\n      add\n      sload\n        /* \"solidity_test/test4.sol\":7784:7813  users[msg.sender].score >= _n */\n      lt\n      iszero\n        /* \"solidity_test/test4.sol\":7776:7822  require(users[msg.sender].score >= _n, \"nope\") */\n      tag_74\n      jumpi\n      mload(0x40)\n      0x08c379a000000000000000000000000000000000000000000000000000000000\n      dup2\n      mstore\n      0x04\n      add\n      tag_75\n      swap1\n      tag_68\n      jump\t// in\n    tag_75:\n      mload(0x40)\n      dup1\n      swap2\n      sub\n      swap1\n      revert\n    tag_74:\n        /* \"solidity_test/test4.sol\":7860:7862  _n */\n      dup1\n        /* \"solidity_test/test4.sol\":7833:7838  users */\n      0x15\n        /* \"solidity_test/test4.sol\":7833:7850  users[msg.sender] */\n      0x00\n        /* \"solidity_test/test4.sol\":7839:7849  msg.sender */\n      caller\n        /* \"solidity_test/test4.sol\":7833:7850  users[msg.sender] */\n      0xffffffffffffffffffffffffffffffffffffffff\n      and\n      0xffffffffffffffffffffffffffffffffffffffff\n      and\n      dup2\n      mstore\n      0x20\n      add\n      swap1\n      dup2\n      mstore\n      0x20\n      add\n      0x00\n      keccak256\n        /* \"solidity_test/test4.sol\":7833:7856  users[msg.sender].score */\n      0x04\n      add\n      0x00\n        /* \"solidity_test/test4.sol\":7833:7862  users[msg.sender].score -= _n */\n      dup3\n      dup3\n      sload\n      tag_76\n      swap2\n      swap1\n      tag_70\n      jump\t// in\n    tag_76:\n      swap3\n      pop\n      pop\n      dup2\n      swap1\n      sstore\n      pop\n        /* \"solidity_test/test4.sol\":7881:7891  msg.sender */\n      caller\n        /* \"solidity_test/test4.sol\":7873:7901  payable(msg.sender).transfer */\n      0xffffffffffffffffffffffffffffffffffffffff\n      and\n        /* \"solidity_test/test4.sol\":7873:7922  payable(msg.sender).transfer((_n/10) * 0.1 ether) */\n      0x08fc\n        /* \"solidity_test/test4.sol\":7912:7921  0.1 ether */\n      0x016345785d8a0000\n        /* \"solidity_test/test4.sol\":7906:7908  10 */\n      0x0a\n        /* \"solidity_test/test4.sol\":7903:7905  _n */\n      dup5\n        /* \"solidity_test/test4.sol\":7903:7908  _n/10 */\n      tag_77\n      swap2\n      swap1\n      tag_78\n      jump\t// in\n    tag_77:\n        /* \"solidity_test/test4.sol\":7902:7921  (_n/10) * 0.1 ether */\n      tag_79\n      swap2\n      swap1\n      tag_80\n      jump\t// in\n    tag_79:\n        /* \"solidity_test/test4.sol\":7873:7922  payable(msg.sender).transfer((_n/10) * 0.1 ether) */\n      swap1\n      dup2\n      iszero\n      mul\n      swap1\n      mload(0x40)\n      0x00\n      mload(0x40)\n      dup1\n      dup4\n      sub\n      dup2\n      dup6\n      dup9\n      dup9\n      call\n      swap4\n      pop\n      pop\n      pop\n      pop\n      iszero\n      dup1\n      iszero\n      tag_82\n      jumpi\n      returndatasize\n      0x00\n      dup1\n      returndatacopy\n      revert(0x00, returndatasize)\n    tag_82:\n      pop\n        /* \"solidity_test/test4.sol\":7731:7930  function withDraw(uint _n) public {... */\n      pop\n      jump\t// out\n        /* \"solidity_test/test4.sol\":7938:8207  function withDrawMax() public {... */\n    tag_32:\n        /* \"solidity_test/test4.sol\":8012:8014  10 */\n      0x0a\n        /* \"solidity_test/test4.sol\":7987:7992  users */\n      0x15\n        /* \"solidity_test/test4.sol\":7987:8004  users[msg.sender] */\n      0x00\n        /* \"solidity_test/test4.sol\":7993:8003  msg.sender */\n      caller\n        /* \"solidity_test/test4.sol\":7987:8004  users[msg.sender] */\n      0xffffffffffffffffffffffffffffffffffffffff\n      and\n      0xffffffffffffffffffffffffffffffffffffffff\n      and\n      dup2\n      mstore\n      0x20\n      add\n      swap1\n      dup2\n      mstore\n      0x20\n      add\n      0x00\n      keccak256\n        /* \"solidity_test/test4.sol\":7987:8010  users[msg.sender].score */\n      0x04\n      add\n      sload\n        /* \"solidity_test/test4.sol\":7987:8014  users[msg.sender].score>=10 */\n      lt\n      iszero\n        /* \"solidity_test/test4.sol\":7979:8022  require(users[msg.sender].score>=10,\"nope\") */\n      tag_84\n      jumpi\n      mload(0x40)\n      0x08c379a000000000000000000000000000000000000000000000000000000000\n      dup2\n      mstore\n      0x04\n      add\n      tag_85\n      swap1\n      tag_68\n      jump\t// in\n    tag_85:\n      mload(0x40)\n      dup1\n      swap2\n      sub\n      swap1\n      revert\n    tag_84:\n        /* \"solidity_test/test4.sol\":8033:8044  uint amount */\n      0x00\n        /* \"solidity_test/test4.sol\":8073:8075  10 */\n      0x0a\n        /* \"solidity_test/test4.sol\":8047:8052  users */\n      0x15\n        /* \"solidity_test/test4.sol\":8047:8064  users[msg.sender] */\n      0x00\n        /* \"solidity_test/test4.sol\":8053:8063  msg.sender */\n      caller\n        /* \"solidity_test/test4.sol\":8047:8064  users[msg.sender] */\n      0xffffffffffffffffffffffffffffffffffffffff\n      and\n      0xffffffffffffffffffffffffffffffffffffffff\n      and\n      dup2\n      mstore\n      0x20\n      add\n      swap1\n      dup2\n      mstore\n      0x20\n      add\n      0x00\n      keccak256\n        /* \"solidity_test/test4.sol\":8047:8070  users[msg.sender].score */\n      0x04\n      add\n      sload\n        /* \"solidity_test/test4.sol\":8047:8075  users[msg.sender].score / 10 */\n      tag_86\n      swap2\n      swap1\n      tag_78\n      jump\t// in\n    tag_86:\n        /* \"solidity_test/test4.sol\":8033:8075  uint amount = users[msg.sender].score / 10 */\n      swap1\n      pop\n        /* \"solidity_test/test4.sol\":8138:8140  10 */\n      0x0a\n        /* \"solidity_test/test4.sol\":8112:8117  users */\n      0x15\n        /* \"solidity_test/test4.sol\":8112:8129  users[msg.sender] */\n      0x00\n        /* \"solidity_test/test4.sol\":8118:8128  msg.sender */\n      caller\n        /* \"solidity_test/test4.sol\":8112:8129  users[msg.sender] */\n      0xffffffffffffffffffffffffffffffffffffffff\n      and\n      0xffffffffffffffffffffffffffffffffffffffff\n      and\n      dup2\n      mstore\n      0x20\n      add\n      swap1\n      dup2\n      mstore\n      0x20\n      add\n      0x00\n      keccak256\n        /* \"solidity_test/test4.sol\":8112:8135  users[msg.sender].score */\n      0x04\n      add\n      sload\n        /* \"solidity_test/test4.sol\":8112:8140  users[msg.sender].score % 10 */\n      tag_87\n      swap2\n      swap1\n      tag_88\n      jump\t// in\n    tag_87:\n        /* \"solidity_test/test4.sol\":8086:8091  users */\n      0x15\n        /* \"solidity_test/test4.sol\":8086:8103  users[msg.sender] */\n      0x00\n        /* \"solidity_test/test4.sol\":8092:8102  msg.sender */\n      caller\n        /* \"solidity_test/test4.sol\":8086:8103  users[msg.sender] */\n      0xffffffffffffffffffffffffffffffffffffffff\n      and\n      0xffffffffffffffffffffffffffffffffffffffff\n      and\n      dup2\n      mstore\n      0x20\n      add\n      swap1\n      dup2\n      mstore\n      0x20\n      add\n      0x00\n      keccak256\n        /* \"solidity_test/test4.sol\":8086:8109  users[msg.sender].score */\n      0x04\n      add\n        /* \"solidity_test/test4.sol\":8086:8140  users[msg.sender].score = users[msg.sender].score % 10 */\n      dup2\n      swap1\n      sstore\n      pop\n        /* \"solidity_test/test4.sol\":8159:8169  msg.sender */\n      caller\n        /* \"solidity_test/test4.sol\":8151:8179  payable(msg.sender).transfer */\n      0xffffffffffffffffffffffffffffffffffffffff\n      and\n        /* \"solidity_test/test4.sol\":8151:8199  payable(msg.sender).transfer(amount * 0.1 ether) */\n      0x08fc\n        /* \"solidity_test/test4.sol\":8189:8198  0.1 ether */\n      0x016345785d8a0000\n        /* \"solidity_test/test4.sol\":8180:8186  amount */\n      dup4\n        /* \"solidity_test/test4.sol\":8180:8198  amount * 0.1 ether */\n      tag_89\n      swap2\n      swap1\n      tag_80\n      jump\t// in\n    tag_89:\n        /* \"solidity_test/test4.sol\":8151:8199  payable(msg.sender).transfer(amount * 0.1 ether) */\n      swap1\n      dup2\n      iszero\n      mul\n      swap1\n      mload(0x40)\n      0x00\n      mload(0x40)\n      dup1\n      dup4\n      sub\n      dup2\n      dup6\n      dup9\n      dup9\n      call\n      swap4\n      pop\n      pop\n      pop\n      pop\n      iszero\n      dup1\n      iszero\n      tag_91\n      jumpi\n      returndatasize\n      0x00\n      dup1\n      returndatacopy\n      revert(0x00, returndatasize)\n    tag_91:\n      pop\n        /* \"solidity_test/test4.sol\":7968:8207  {... */\n      pop\n        /* \"solidity_test/test4.sol\":7938:8207  function withDrawMax() public {... */\n      jump\t// out\n        /* \"solidity_test/test4.sol\":8608:9219  function joinDeposit() public payable {... */\n    tag_34:\n        /* \"solidity_test/test4.sol\":8678:8688  0.01 ether */\n      0x2386f26fc10000\n        /* \"solidity_test/test4.sol\":8665:8674  msg.value */\n      callvalue\n        /* \"solidity_test/test4.sol\":8665:8688  msg.value == 0.01 ether */\n      eq\n        /* \"solidity_test/test4.sol\":8665:8731  msg.value == 0.01 ether || users[msg.sender].balance >= 0.01 ether */\n      dup1\n      tag_93\n      jumpi\n      pop\n        /* \"solidity_test/test4.sol\":8721:8731  0.01 ether */\n      0x2386f26fc10000\n        /* \"solidity_test/test4.sol\":8692:8697  users */\n      0x15\n        /* \"solidity_test/test4.sol\":8692:8709  users[msg.sender] */\n      0x00\n        /* \"solidity_test/test4.sol\":8698:8708  msg.sender */\n      caller\n        /* \"solidity_test/test4.sol\":8692:8709  users[msg.sender] */\n      0xffffffffffffffffffffffffffffffffffffffff\n      and\n      0xffffffffffffffffffffffffffffffffffffffff\n      and\n      dup2\n      mstore\n      0x20\n      add\n      swap1\n      dup2\n      mstore\n      0x20\n      add\n      0x00\n      keccak256\n        /* \"solidity_test/test4.sol\":8692:8717  users[msg.sender].balance */\n      0x03\n      add\n      sload\n        /* \"solidity_test/test4.sol\":8692:8731  users[msg.sender].balance >= 0.01 ether */\n      lt\n      iszero\n        /* \"solidity_test/test4.sol\":8665:8731  msg.value == 0.01 ether || users[msg.sender].balance >= 0.01 ether */\n    tag_93:\n        /* \"solidity_test/test4.sol\":8657:8740  require(msg.value == 0.01 ether || users[msg.sender].balance >= 0.01 ether, \"NOPE\") */\n      tag_94\n      jumpi\n      mload(0x40)\n      0x08c379a000000000000000000000000000000000000000000000000000000000\n      dup2\n      mstore\n      0x04\n      add\n      tag_95\n      swap1\n      tag_96\n      jump\t// in\n    tag_95:\n      mload(0x40)\n      dup1\n      swap2\n      sub\n      swap1\n      revert\n    tag_94:\n        /* \"solidity_test/test4.sol\":8937:8938  0 */\n      0x00\n        /* \"solidity_test/test4.sol\":8926:8935  msg.value */\n      callvalue\n        /* \"solidity_test/test4.sol\":8926:8938  msg.value==0 */\n      sub\n        /* \"solidity_test/test4.sol\":8923:9006  if(msg.value==0) {... */\n      tag_97\n      jumpi\n        /* \"solidity_test/test4.sol\":8984:8994  0.01 ether */\n      0x2386f26fc10000\n        /* \"solidity_test/test4.sol\":8955:8960  users */\n      0x15\n        /* \"solidity_test/test4.sol\":8955:8972  users[msg.sender] */\n      0x00\n        /* \"solidity_test/test4.sol\":8961:8971  msg.sender */\n      caller\n        /* \"solidity_test/test4.sol\":8955:8972  users[msg.sender] */\n      0xffffffffffffffffffffffffffffffffffffffff\n      and\n      0xffffffffffffffffffffffffffffffffffffffff\n      and\n      dup2\n      mstore\n      0x20\n      add\n      swap1\n      dup2\n      mstore\n      0x20\n      add\n      0x00\n      keccak256\n        /* \"solidity_test/test4.sol\":8955:8980  users[msg.sender].balance */\n      0x03\n      add\n      0x00\n        /* \"solidity_test/test4.sol\":8955:8994  users[msg.sender].balance -= 0.01 ether */\n      dup3\n      dup3\n      sload\n      tag_98\n      swap2\n      swap1\n      tag_70\n      jump\t// in\n    tag_98:\n      swap3\n      pop\n      pop\n      dup2\n      swap1\n      sstore\n      pop\n        /* \"solidity_test/test4.sol\":8923:9006  if(msg.value==0) {... */\n    tag_97:\n        /* \"solidity_test/test4.sol\":9034:9035  3 */\n      0x03\n        /* \"solidity_test/test4.sol\":9021:9032  getLength() */\n      tag_99\n        /* \"solidity_test/test4.sol\":9021:9030  getLength */\n      tag_56\n        /* \"solidity_test/test4.sol\":9021:9032  getLength() */\n      jump\t// in\n    tag_99:\n        /* \"solidity_test/test4.sol\":9021:9035  getLength()==3 */\n      sub\n        /* \"solidity_test/test4.sol\":9018:9212  if(getLength()==3) {... */\n      tag_100\n      jumpi\n        /* \"solidity_test/test4.sol\":9062:9067  users */\n      0x15\n        /* \"solidity_test/test4.sol\":9062:9079  users[msg.sender] */\n      0x00\n        /* \"solidity_test/test4.sol\":9068:9078  msg.sender */\n      caller\n        /* \"solidity_test/test4.sol\":9062:9079  users[msg.sender] */\n      0xffffffffffffffffffffffffffffffffffffffff\n      and\n      0xffffffffffffffffffffffffffffffffffffffff\n      and\n      dup2\n      mstore\n      0x20\n      add\n      swap1\n      dup2\n      mstore\n      0x20\n      add\n      0x00\n      keccak256\n        /* \"solidity_test/test4.sol\":9052:9056  room */\n      0x01\n        /* \"solidity_test/test4.sol\":9057:9058  3 */\n      0x03\n        /* \"solidity_test/test4.sol\":9052:9059  room[3] */\n      0x04\n      dup2\n      lt\n      tag_101\n      jumpi\n      tag_102\n      tag_103\n      jump\t// in\n    tag_102:\n    tag_101:\n      0x05\n      mul\n      add\n        /* \"solidity_test/test4.sol\":9052:9079  room[3] = users[msg.sender] */\n      0x00\n      dup3\n      add\n      sload\n      dup2\n      0x00\n      add\n      sstore\n      0x01\n      dup3\n      add\n      dup2\n      0x01\n      add\n      swap1\n      dup2\n      tag_105\n      swap2\n      swap1\n      tag_106\n      jump\t// in\n    tag_105:\n      pop\n      0x02\n      dup3\n      add\n      0x00\n      swap1\n      sload\n      swap1\n      0x0100\n      exp\n      swap1\n      div\n      0xffffffffffffffffffffffffffffffffffffffff\n      and\n      dup2\n      0x02\n      add\n      exp(0x0100, 0x00)\n      dup2\n      sload\n      dup2\n      0xffffffffffffffffffffffffffffffffffffffff\n      mul\n      not\n      and\n      swap1\n      dup4\n      0xffffffffffffffffffffffffffffffffffffffff\n      and\n      mul\n      or\n      swap1\n      sstore\n      pop\n      0x03\n      dup3\n      add\n      sload\n      dup2\n      0x03\n      add\n      sstore\n      0x04\n      dup3\n      add\n      sload\n      dup2\n      0x04\n      add\n      sstore\n      swap1\n      pop\n      pop\n        /* \"solidity_test/test4.sol\":9094:9104  getScore() */\n      tag_107\n        /* \"solidity_test/test4.sol\":9094:9102  getScore */\n      tag_51\n        /* \"solidity_test/test4.sol\":9094:9104  getScore() */\n      jump\t// in\n    tag_107:\n        /* \"solidity_test/test4.sol\":9126:9130  room */\n      0x01\n      0x00\n        /* \"solidity_test/test4.sol\":9119:9130  delete room */\n      tag_108\n      swap2\n      swap1\n      tag_109\n      jump\t// in\n    tag_108:\n        /* \"solidity_test/test4.sol\":9018:9212  if(getLength()==3) {... */\n      jump(tag_110)\n    tag_100:\n        /* \"solidity_test/test4.sol\":9183:9188  users */\n      0x15\n        /* \"solidity_test/test4.sol\":9183:9200  users[msg.sender] */\n      0x00\n        /* \"solidity_test/test4.sol\":9189:9199  msg.sender */\n      caller\n        /* \"solidity_test/test4.sol\":9183:9200  users[msg.sender] */\n      0xffffffffffffffffffffffffffffffffffffffff\n      and\n      0xffffffffffffffffffffffffffffffffffffffff\n      and\n      dup2\n      mstore\n      0x20\n      add\n      swap1\n      dup2\n      mstore\n      0x20\n      add\n      0x00\n      keccak256\n        /* \"solidity_test/test4.sol\":9163:9167  room */\n      0x01\n        /* \"solidity_test/test4.sol\":9168:9179  getLength() */\n      tag_111\n        /* \"solidity_test/test4.sol\":9168:9177  getLength */\n      tag_56\n        /* \"solidity_test/test4.sol\":9168:9179  getLength() */\n      jump\t// in\n    tag_111:\n        /* \"solidity_test/test4.sol\":9163:9180  room[getLength()] */\n      0x04\n      dup2\n      lt\n      tag_112\n      jumpi\n      tag_113\n      tag_103\n      jump\t// in\n    tag_113:\n    tag_112:\n      0x05\n      mul\n      add\n        /* \"solidity_test/test4.sol\":9163:9200  room[getLength()] = users[msg.sender] */\n      0x00\n      dup3\n      add\n      sload\n      dup2\n      0x00\n      add\n      sstore\n      0x01\n      dup3\n      add\n      dup2\n      0x01\n      add\n      swap1\n      dup2\n      tag_115\n      swap2\n      swap1\n      tag_106\n      jump\t// in\n    tag_115:\n      pop\n      0x02\n      dup3\n      add\n      0x00\n      swap1\n      sload\n      swap1\n      0x0100\n      exp\n      swap1\n      div\n      0xffffffffffffffffffffffffffffffffffffffff\n      and\n      dup2\n      0x02\n      add\n      exp(0x0100, 0x00)\n      dup2\n      sload\n      dup2\n      0xffffffffffffffffffffffffffffffffffffffff\n      mul\n      not\n      and\n      swap1\n      dup4\n      0xffffffffffffffffffffffffffffffffffffffff\n      and\n      mul\n      or\n      swap1\n      sstore\n      pop\n      0x03\n      dup3\n      add\n      sload\n      dup2\n      0x03\n      add\n      sstore\n      0x04\n      dup3\n      add\n      sload\n      dup2\n      0x04\n      add\n      sstore\n      swap1\n      pop\n      pop\n        /* \"solidity_test/test4.sol\":9018:9212  if(getLength()==3) {... */\n    tag_110:\n        /* \"solidity_test/test4.sol\":8608:9219  function joinDeposit() public payable {... */\n      jump\t// out\n        /* \"solidity_test/test4.sol\":5213:5362  function withDrawOwner(uint _n) public onlyOwner {... */\n    tag_38:\n        /* \"solidity_test/test4.sol\":4966:4971  owner */\n      0x00\n      dup1\n      sload\n      swap1\n      0x0100\n      exp\n      swap1\n      div\n      0xffffffffffffffffffffffffffffffffffffffff\n      and\n        /* \"solidity_test/test4.sol\":4952:4971  msg.sender == owner */\n      0xffffffffffffffffffffffffffffffffffffffff\n      and\n        /* \"solidity_test/test4.sol\":4952:4962  msg.sender */\n      caller\n        /* \"solidity_test/test4.sol\":4952:4971  msg.sender == owner */\n      0xffffffffffffffffffffffffffffffffffffffff\n      and\n      eq\n        /* \"solidity_test/test4.sol\":4944:4980  require(msg.sender == owner, \"nope\") */\n      tag_117\n      jumpi\n      mload(0x40)\n      0x08c379a000000000000000000000000000000000000000000000000000000000\n      dup2\n      mstore\n      0x04\n      add\n      tag_118\n      swap1\n      tag_68\n      jump\t// in\n    tag_118:\n      mload(0x40)\n      dup1\n      swap2\n      sub\n      swap1\n      revert\n    tag_117:\n        /* \"solidity_test/test4.sol\":5323:5328  owner */\n      0x00\n      dup1\n      sload\n      swap1\n      0x0100\n      exp\n      swap1\n      div\n      0xffffffffffffffffffffffffffffffffffffffff\n      and\n        /* \"solidity_test/test4.sol\":5323:5337  owner.transfer */\n      0xffffffffffffffffffffffffffffffffffffffff\n      and\n        /* \"solidity_test/test4.sol\":5323:5354  owner.transfer(_n * 0.01 ether) */\n      0x08fc\n        /* \"solidity_test/test4.sol\":5343:5353  0.01 ether */\n      0x2386f26fc10000\n        /* \"solidity_test/test4.sol\":5338:5340  _n */\n      dup4\n        /* \"solidity_test/test4.sol\":5338:5353  _n * 0.01 ether */\n      tag_120\n      swap2\n      swap1\n      tag_80\n      jump\t// in\n    tag_120:\n        /* \"solidity_test/test4.sol\":5323:5354  owner.transfer(_n * 0.01 ether) */\n      swap1\n      dup2\n      iszero\n      mul\n      swap1\n      mload(0x40)\n      0x00\n      mload(0x40)\n      dup1\n      dup4\n      sub\n      dup2\n      dup6\n      dup9\n      dup9\n      call\n      swap4\n      pop\n      pop\n      pop\n      pop\n      iszero\n      dup1\n      iszero\n      tag_122\n      jumpi\n      returndatasize\n      0x00\n      dup1\n      returndatacopy\n      revert(0x00, returndatasize)\n    tag_122:\n      pop\n        /* \"solidity_test/test4.sol\":5213:5362  function withDrawOwner(uint _n) public onlyOwner {... */\n      pop\n      jump\t// out\n        /* \"solidity_test/test4.sol\":6182:6285  function search(address _addr) public view returns(USER memory)  {... */\n    tag_43:\n        /* \"solidity_test/test4.sol\":6233:6244  USER memory */\n      tag_123\n      tag_124\n      jump\t// in\n    tag_123:\n        /* \"solidity_test/test4.sol\":6265:6270  users */\n      0x15\n        /* \"solidity_test/test4.sol\":6265:6277  users[_addr] */\n      0x00\n        /* \"solidity_test/test4.sol\":6271:6276  _addr */\n      dup4\n        /* \"solidity_test/test4.sol\":6265:6277  users[_addr] */\n      0xffffffffffffffffffffffffffffffffffffffff\n      and\n      0xffffffffffffffffffffffffffffffffffffffff\n      and\n      dup2\n      mstore\n      0x20\n      add\n      swap1\n      dup2\n      mstore\n      0x20\n      add\n      0x00\n      keccak256\n        /* \"solidity_test/test4.sol\":6258:6277  return users[_addr] */\n      mload(0x40)\n      dup1\n      0xa0\n      add\n      0x40\n      mstore\n      swap1\n      dup2\n      0x00\n      dup3\n      add\n      sload\n      dup2\n      mstore\n      0x20\n      add\n      0x01\n      dup3\n      add\n      dup1\n      sload\n      tag_126\n      swap1\n      tag_127\n      jump\t// in\n    tag_126:\n      dup1\n      0x1f\n      add\n      0x20\n      dup1\n      swap2\n      div\n      mul\n      0x20\n      add\n      mload(0x40)\n      swap1\n      dup2\n      add\n      0x40\n      mstore\n      dup1\n      swap3\n      swap2\n      swap1\n      dup2\n      dup2\n      mstore\n      0x20\n      add\n      dup3\n      dup1\n      sload\n      tag_128\n      swap1\n      tag_127\n      jump\t// in\n    tag_128:\n      dup1\n      iszero\n      tag_129\n      jumpi\n      dup1\n      0x1f\n      lt\n      tag_130\n      jumpi\n      0x0100\n      dup1\n      dup4\n      sload\n      div\n      mul\n      dup4\n      mstore\n      swap2\n      0x20\n      add\n      swap2\n      jump(tag_129)\n    tag_130:\n      dup3\n      add\n      swap2\n      swap1\n      0x00\n      mstore\n      keccak256(0x00, 0x20)\n      swap1\n    tag_131:\n      dup2\n      sload\n      dup2\n      mstore\n      swap1\n      0x01\n      add\n      swap1\n      0x20\n      add\n      dup1\n      dup4\n      gt\n      tag_131\n      jumpi\n      dup3\n      swap1\n      sub\n      0x1f\n      and\n      dup3\n      add\n      swap2\n    tag_129:\n      pop\n      pop\n      pop\n      pop\n      pop\n      dup2\n      mstore\n      0x20\n      add\n      0x02\n      dup3\n      add\n      0x00\n      swap1\n      sload\n      swap1\n      0x0100\n      exp\n      swap1\n      div\n      0xffffffffffffffffffffffffffffffffffffffff\n      and\n      0xffffffffffffffffffffffffffffffffffffffff\n      and\n      0xffffffffffffffffffffffffffffffffffffffff\n      and\n      dup2\n      mstore\n      0x20\n      add\n      0x03\n      dup3\n      add\n      sload\n      dup2\n      mstore\n      0x20\n      add\n      0x04\n      dup3\n      add\n      sload\n      dup2\n      mstore\n      pop\n      pop\n      swap1\n      pop\n        /* \"solidity_test/test4.sol\":6182:6285  function search(address _addr) public view returns(USER memory)  {... */\n      swap2\n      swap1\n      pop\n      jump\t// out\n        /* \"solidity_test/test4.sol\":5370:5515  function withDrawAll() public onlyOwner{... */\n    tag_48:\n        /* \"solidity_test/test4.sol\":4966:4971  owner */\n      0x00\n      dup1\n      sload\n      swap1\n      0x0100\n      exp\n      swap1\n      div\n      0xffffffffffffffffffffffffffffffffffffffff\n      and\n        /* \"solidity_test/test4.sol\":4952:4971  msg.sender == owner */\n      0xffffffffffffffffffffffffffffffffffffffff\n      and\n        /* \"solidity_test/test4.sol\":4952:4962  msg.sender */\n      caller\n        /* \"solidity_test/test4.sol\":4952:4971  msg.sender == owner */\n      0xffffffffffffffffffffffffffffffffffffffff\n      and\n      eq\n        /* \"solidity_test/test4.sol\":4944:4980  require(msg.sender == owner, \"nope\") */\n      tag_133\n      jumpi\n      mload(0x40)\n      0x08c379a000000000000000000000000000000000000000000000000000000000\n      dup2\n      mstore\n      0x04\n      add\n      tag_134\n      swap1\n      tag_68\n      jump\t// in\n    tag_134:\n      mload(0x40)\n      dup1\n      swap2\n      sub\n      swap1\n      revert\n    tag_133:\n        /* \"solidity_test/test4.sol\":5470:5475  owner */\n      0x00\n      dup1\n      sload\n      swap1\n      0x0100\n      exp\n      swap1\n      div\n      0xffffffffffffffffffffffffffffffffffffffff\n      and\n        /* \"solidity_test/test4.sol\":5470:5484  owner.transfer */\n      0xffffffffffffffffffffffffffffffffffffffff\n      and\n        /* \"solidity_test/test4.sol\":5470:5507  owner.transfer(address(this).balance) */\n      0x08fc\n        /* \"solidity_test/test4.sol\":5485:5506  address(this).balance */\n      selfbalance\n        /* \"solidity_test/test4.sol\":5470:5507  owner.transfer(address(this).balance) */\n      swap1\n      dup2\n      iszero\n      mul\n      swap1\n      mload(0x40)\n      0x00\n      mload(0x40)\n      dup1\n      dup4\n      sub\n      dup2\n      dup6\n      dup9\n      dup9\n      call\n      swap4\n      pop\n      pop\n      pop\n      pop\n      iszero\n      dup1\n      iszero\n      tag_137\n      jumpi\n      returndatasize\n      0x00\n      dup1\n      returndatacopy\n      revert(0x00, returndatasize)\n    tag_137:\n      pop\n        /* \"solidity_test/test4.sol\":5370:5515  function withDrawAll() public onlyOwner{... */\n      jump\t// out\n        /* \"solidity_test/test4.sol\":7198:7314  function getScore() public {... */\n    tag_51:\n        /* \"solidity_test/test4.sol\":7240:7246  uint i */\n      0x00\n        /* \"solidity_test/test4.sol\":7236:7307  for(uint i=0; i<4; i++) {... */\n    tag_139:\n        /* \"solidity_test/test4.sol\":7252:7253  4 */\n      0x04\n        /* \"solidity_test/test4.sol\":7250:7251  i */\n      dup2\n        /* \"solidity_test/test4.sol\":7250:7253  i<4 */\n      lt\n        /* \"solidity_test/test4.sol\":7236:7307  for(uint i=0; i<4; i++) {... */\n      iszero\n      tag_140\n      jumpi\n        /* \"solidity_test/test4.sol\":7294:7295  i */\n      dup1\n        /* \"solidity_test/test4.sol\":7292:7293  4 */\n      0x04\n        /* \"solidity_test/test4.sol\":7292:7295  4-i */\n      tag_142\n      swap2\n      swap1\n      tag_70\n      jump\t// in\n    tag_142:\n        /* \"solidity_test/test4.sol\":7275:7279  room */\n      0x01\n        /* \"solidity_test/test4.sol\":7280:7281  i */\n      dup3\n        /* \"solidity_test/test4.sol\":7275:7282  room[i] */\n      0x04\n      dup2\n      lt\n      tag_143\n      jumpi\n      tag_144\n      tag_103\n      jump\t// in\n    tag_144:\n    tag_143:\n      0x05\n      mul\n      add\n        /* \"solidity_test/test4.sol\":7275:7288  room[i].score */\n      0x04\n      add\n      0x00\n        /* \"solidity_test/test4.sol\":7275:7295  room[i].score += 4-i */\n      dup3\n      dup3\n      sload\n      tag_146\n      swap2\n      swap1\n      tag_147\n      jump\t// in\n    tag_146:\n      swap3\n      pop\n      pop\n      dup2\n      swap1\n      sstore\n      pop\n        /* \"solidity_test/test4.sol\":7255:7258  i++ */\n      dup1\n      dup1\n      0x01\n      add\n      swap2\n      pop\n      pop\n        /* \"solidity_test/test4.sol\":7236:7307  for(uint i=0; i<4; i++) {... */\n      jump(tag_139)\n    tag_140:\n      pop\n        /* \"solidity_test/test4.sol\":7198:7314  function getScore() public {... */\n      jump\t// out\n        /* \"solidity_test/test4.sol\":6404:6979  function join() public payable {... */\n    tag_53:\n        /* \"solidity_test/test4.sol\":6469:6479  0.01 ether */\n      0x2386f26fc10000\n        /* \"solidity_test/test4.sol\":6456:6465  msg.value */\n      callvalue\n        /* \"solidity_test/test4.sol\":6456:6479  msg.value == 0.01 ether */\n      eq\n        /* \"solidity_test/test4.sol\":6446:6488  require(  msg.value == 0.01 ether, \"NOPE\") */\n      tag_149\n      jumpi\n      mload(0x40)\n      0x08c379a000000000000000000000000000000000000000000000000000000000\n      dup2\n      mstore\n      0x04\n      add\n      tag_150\n      swap1\n      tag_96\n      jump\t// in\n    tag_150:\n      mload(0x40)\n      dup1\n      swap2\n      sub\n      swap1\n      revert\n    tag_149:\n        /* \"solidity_test/test4.sol\":6794:6795  3 */\n      0x03\n        /* \"solidity_test/test4.sol\":6781:6792  getLength() */\n      tag_151\n        /* \"solidity_test/test4.sol\":6781:6790  getLength */\n      tag_56\n        /* \"solidity_test/test4.sol\":6781:6792  getLength() */\n      jump\t// in\n    tag_151:\n        /* \"solidity_test/test4.sol\":6781:6795  getLength()==3 */\n      sub\n        /* \"solidity_test/test4.sol\":6778:6972  if(getLength()==3) {... */\n      tag_152\n      jumpi\n        /* \"solidity_test/test4.sol\":6822:6827  users */\n      0x15\n        /* \"solidity_test/test4.sol\":6822:6839  users[msg.sender] */\n      0x00\n        /* \"solidity_test/test4.sol\":6828:6838  msg.sender */\n      caller\n        /* \"solidity_test/test4.sol\":6822:6839  users[msg.sender] */\n      0xffffffffffffffffffffffffffffffffffffffff\n      and\n      0xffffffffffffffffffffffffffffffffffffffff\n      and\n      dup2\n      mstore\n      0x20\n      add\n      swap1\n      dup2\n      mstore\n      0x20\n      add\n      0x00\n      keccak256\n        /* \"solidity_test/test4.sol\":6812:6816  room */\n      0x01\n        /* \"solidity_test/test4.sol\":6817:6818  3 */\n      0x03\n        /* \"solidity_test/test4.sol\":6812:6819  room[3] */\n      0x04\n      dup2\n      lt\n      tag_153\n      jumpi\n      tag_154\n      tag_103\n      jump\t// in\n    tag_154:\n    tag_153:\n      0x05\n      mul\n      add\n        /* \"solidity_test/test4.sol\":6812:6839  room[3] = users[msg.sender] */\n      0x00\n      dup3\n      add\n      sload\n      dup2\n      0x00\n      add\n      sstore\n      0x01\n      dup3\n      add\n      dup2\n      0x01\n      add\n      swap1\n      dup2\n      tag_156\n      swap2\n      swap1\n      tag_106\n      jump\t// in\n    tag_156:\n      pop\n      0x02\n      dup3\n      add\n      0x00\n      swap1\n      sload\n      swap1\n      0x0100\n      exp\n      swap1\n      div\n      0xffffffffffffffffffffffffffffffffffffffff\n      and\n      dup2\n      0x02\n      add\n      exp(0x0100, 0x00)\n      dup2\n      sload\n      dup2\n      0xffffffffffffffffffffffffffffffffffffffff\n      mul\n      not\n      and\n      swap1\n      dup4\n      0xffffffffffffffffffffffffffffffffffffffff\n      and\n      mul\n      or\n      swap1\n      sstore\n      pop\n      0x03\n      dup3\n      add\n      sload\n      dup2\n      0x03\n      add\n      sstore\n      0x04\n      dup3\n      add\n      sload\n      dup2\n      0x04\n      add\n      sstore\n      swap1\n      pop\n      pop\n        /* \"solidity_test/test4.sol\":6854:6864  getScore() */\n      tag_157\n        /* \"solidity_test/test4.sol\":6854:6862  getScore */\n      tag_51\n        /* \"solidity_test/test4.sol\":6854:6864  getScore() */\n      jump\t// in\n    tag_157:\n        /* \"solidity_test/test4.sol\":6886:6890  room */\n      0x01\n      0x00\n        /* \"solidity_test/test4.sol\":6879:6890  delete room */\n      tag_158\n      swap2\n      swap1\n      tag_109\n      jump\t// in\n    tag_158:\n        /* \"solidity_test/test4.sol\":6778:6972  if(getLength()==3) {... */\n      jump(tag_159)\n    tag_152:\n        /* \"solidity_test/test4.sol\":6943:6948  users */\n      0x15\n        /* \"solidity_test/test4.sol\":6943:6960  users[msg.sender] */\n      0x00\n        /* \"solidity_test/test4.sol\":6949:6959  msg.sender */\n      caller\n        /* \"solidity_test/test4.sol\":6943:6960  users[msg.sender] */\n      0xffffffffffffffffffffffffffffffffffffffff\n      and\n      0xffffffffffffffffffffffffffffffffffffffff\n      and\n      dup2\n      mstore\n      0x20\n      add\n      swap1\n      dup2\n      mstore\n      0x20\n      add\n      0x00\n      keccak256\n        /* \"solidity_test/test4.sol\":6923:6927  room */\n      0x01\n        /* \"solidity_test/test4.sol\":6928:6939  getLength() */\n      tag_160\n        /* \"solidity_test/test4.sol\":6928:6937  getLength */\n      tag_56\n        /* \"solidity_test/test4.sol\":6928:6939  getLength() */\n      jump\t// in\n    tag_160:\n        /* \"solidity_test/test4.sol\":6923:6940  room[getLength()] */\n      0x04\n      dup2\n      lt\n      tag_161\n      jumpi\n      tag_162\n      tag_103\n      jump\t// in\n    tag_162:\n    tag_161:\n      0x05\n      mul\n      add\n        /* \"solidity_test/test4.sol\":6923:6960  room[getLength()] = users[msg.sender] */\n      0x00\n      dup3\n      add\n      sload\n      dup2\n      0x00\n      add\n      sstore\n      0x01\n      dup3\n      add\n      dup2\n      0x01\n      add\n      swap1\n      dup2\n      tag_164\n      swap2\n      swap1\n      tag_106\n      jump\t// in\n    tag_164:\n      pop\n      0x02\n      dup3\n      add\n      0x00\n      swap1\n      sload\n      swap1\n      0x0100\n      exp\n      swap1\n      div\n      0xffffffffffffffffffffffffffffffffffffffff\n      and\n      dup2\n      0x02\n      add\n      exp(0x0100, 0x00)\n      dup2\n      sload\n      dup2\n      0xffffffffffffffffffffffffffffffffffffffff\n      mul\n      not\n      and\n      swap1\n      dup4\n      0xffffffffffffffffffffffffffffffffffffffff\n      and\n      mul\n      or\n      swap1\n      sstore\n      pop\n      0x03\n      dup3\n      add\n      sload\n      dup2\n      0x03\n      add\n      sstore\n      0x04\n      dup3\n      add\n      sload\n      dup2\n      0x04\n      add\n      sstore\n      swap1\n      pop\n      pop\n        /* \"solidity_test/test4.sol\":6778:6972  if(getLength()==3) {... */\n    tag_159:\n        /* \"solidity_test/test4.sol\":6404:6979  function join() public payable {... */\n      jump\t// out\n        /* \"solidity_test/test4.sol\":6987:7190  function getLength() public view returns(uint) {... */\n    tag_56:\n        /* \"solidity_test/test4.sol\":7028:7032  uint */\n      0x00\n        /* \"solidity_test/test4.sol\":7049:7055  uint i */\n      dup1\n        /* \"solidity_test/test4.sol\":7056:7057  0 */\n      0x00\n        /* \"solidity_test/test4.sol\":7049:7057  uint i=0 */\n      swap1\n      pop\n        /* \"solidity_test/test4.sol\":7045:7164  for(uint i=0; i < 4; i++) {... */\n    tag_166:\n        /* \"solidity_test/test4.sol\":7063:7064  4 */\n      0x04\n        /* \"solidity_test/test4.sol\":7059:7060  i */\n      dup2\n        /* \"solidity_test/test4.sol\":7059:7064  i < 4 */\n      lt\n        /* \"solidity_test/test4.sol\":7045:7164  for(uint i=0; i < 4; i++) {... */\n      iszero\n      tag_167\n      jumpi\n        /* \"solidity_test/test4.sol\":7107:7108  0 */\n      0x00\n        /* \"solidity_test/test4.sol\":7089:7093  room */\n      0x01\n        /* \"solidity_test/test4.sol\":7094:7095  i */\n      dup3\n        /* \"solidity_test/test4.sol\":7089:7096  room[i] */\n      0x04\n      dup2\n      lt\n      tag_169\n      jumpi\n      tag_170\n      tag_103\n      jump\t// in\n    tag_170:\n    tag_169:\n      0x05\n      mul\n      add\n        /* \"solidity_test/test4.sol\":7089:7103  room[i].number */\n      0x00\n      add\n      sload\n        /* \"solidity_test/test4.sol\":7089:7108  room[i].number == 0 */\n      sub\n        /* \"solidity_test/test4.sol\":7086:7153  if(room[i].number == 0) {... */\n      tag_172\n      jumpi\n        /* \"solidity_test/test4.sol\":7136:7137  i */\n      dup1\n        /* \"solidity_test/test4.sol\":7129:7137  return i */\n      swap2\n      pop\n      pop\n      jump(tag_165)\n        /* \"solidity_test/test4.sol\":7086:7153  if(room[i].number == 0) {... */\n    tag_172:\n        /* \"solidity_test/test4.sol\":7066:7069  i++ */\n      dup1\n      dup1\n      0x01\n      add\n      swap2\n      pop\n      pop\n        /* \"solidity_test/test4.sol\":7045:7164  for(uint i=0; i < 4; i++) {... */\n      jump(tag_166)\n    tag_167:\n      pop\n        /* \"solidity_test/test4.sol\":7181:7182  4 */\n      0x04\n        /* \"solidity_test/test4.sol\":7174:7182  return 4 */\n      swap1\n      pop\n        /* \"solidity_test/test4.sol\":6987:7190  function getLength() public view returns(uint) {... */\n    tag_165:\n      swap1\n      jump\t// out\n        /* \"solidity_test/test4.sol\":5680:6078  function signIn(string memory _name) public {... */\n    tag_62:\n        /* \"solidity_test/test4.sol\":5781:5782  0 */\n      0x00\n        /* \"solidity_test/test4.sol\":5749:5754  users */\n      0x15\n        /* \"solidity_test/test4.sol\":5749:5766  users[msg.sender] */\n      0x00\n        /* \"solidity_test/test4.sol\":5755:5765  msg.sender */\n      caller\n        /* \"solidity_test/test4.sol\":5749:5766  users[msg.sender] */\n      0xffffffffffffffffffffffffffffffffffffffff\n      and\n      0xffffffffffffffffffffffffffffffffffffffff\n      and\n      dup2\n      mstore\n      0x20\n      add\n      swap1\n      dup2\n      mstore\n      0x20\n      add\n      0x00\n      keccak256\n        /* \"solidity_test/test4.sol\":5749:5771  users[msg.sender].name */\n      0x01\n      add\n        /* \"solidity_test/test4.sol\":5743:5779  bytes(users[msg.sender].name).length */\n      dup1\n      sload\n      tag_174\n      swap1\n      tag_127\n      jump\t// in\n    tag_174:\n      swap1\n      pop\n        /* \"solidity_test/test4.sol\":5743:5782  bytes(users[msg.sender].name).length==0 */\n      eq\n        /* \"solidity_test/test4.sol\":5735:5791  require(bytes(users[msg.sender].name).length==0, \"nope\") */\n      tag_175\n      jumpi\n      mload(0x40)\n      0x08c379a000000000000000000000000000000000000000000000000000000000\n      dup2\n      mstore\n      0x04\n      add\n      tag_176\n      swap1\n      tag_68\n      jump\t// in\n    tag_176:\n      mload(0x40)\n      dup1\n      swap2\n      sub\n      swap1\n      revert\n    tag_175:\n        /* \"solidity_test/test4.sol\":5936:5937  0 */\n      0x00\n        /* \"solidity_test/test4.sol\":5921:5926  _name */\n      dup2\n        /* \"solidity_test/test4.sol\":5915:5934  bytes(_name).length */\n      mload\n        /* \"solidity_test/test4.sol\":5915:5937  bytes(_name).length==0 */\n      eq\n        /* \"solidity_test/test4.sol\":5907:5946  require(bytes(_name).length==0, \"nope\") */\n      tag_177\n      jumpi\n      mload(0x40)\n      0x08c379a000000000000000000000000000000000000000000000000000000000\n      dup2\n      mstore\n      0x04\n      add\n      tag_178\n      swap1\n      tag_68\n      jump\t// in\n    tag_178:\n      mload(0x40)\n      dup1\n      swap2\n      sub\n      swap1\n      revert\n    tag_177:\n        /* \"solidity_test/test4.sol\":6007:6047  USER(userCount, _name, msg.sender, 0, 0) */\n      mload(0x40)\n      dup1\n      0xa0\n      add\n      0x40\n      mstore\n      dup1\n        /* \"solidity_test/test4.sol\":6012:6021  userCount */\n      sload(0x16)\n        /* \"solidity_test/test4.sol\":6007:6047  USER(userCount, _name, msg.sender, 0, 0) */\n      dup2\n      mstore\n      0x20\n      add\n        /* \"solidity_test/test4.sol\":6023:6028  _name */\n      dup3\n        /* \"solidity_test/test4.sol\":6007:6047  USER(userCount, _name, msg.sender, 0, 0) */\n      dup2\n      mstore\n      0x20\n      add\n        /* \"solidity_test/test4.sol\":6030:6040  msg.sender */\n      caller\n        /* \"solidity_test/test4.sol\":6007:6047  USER(userCount, _name, msg.sender, 0, 0) */\n      0xffffffffffffffffffffffffffffffffffffffff\n      and\n      dup2\n      mstore\n      0x20\n      add\n        /* \"solidity_test/test4.sol\":6042:6043  0 */\n      0x00\n        /* \"solidity_test/test4.sol\":6007:6047  USER(userCount, _name, msg.sender, 0, 0) */\n      dup2\n      mstore\n      0x20\n      add\n        /* \"solidity_test/test4.sol\":6045:6046  0 */\n      0x00\n        /* \"solidity_test/test4.sol\":6007:6047  USER(userCount, _name, msg.sender, 0, 0) */\n      dup2\n      mstore\n      pop\n        /* \"solidity_test/test4.sol\":5987:5992  users */\n      0x15\n        /* \"solidity_test/test4.sol\":5987:6004  users[msg.sender] */\n      0x00\n        /* \"solidity_test/test4.sol\":5993:6003  msg.sender */\n      caller\n        /* \"solidity_test/test4.sol\":5987:6004  users[msg.sender] */\n      0xffffffffffffffffffffffffffffffffffffffff\n      and\n      0xffffffffffffffffffffffffffffffffffffffff\n      and\n      dup2\n      mstore\n      0x20\n      add\n      swap1\n      dup2\n      mstore\n      0x20\n      add\n      0x00\n      keccak256\n        /* \"solidity_test/test4.sol\":5987:6047  users[msg.sender] = USER(userCount, _name, msg.sender, 0, 0) */\n      0x00\n      dup3\n      add\n      mload\n      dup2\n      0x00\n      add\n      sstore\n      0x20\n      dup3\n      add\n      mload\n      dup2\n      0x01\n      add\n      swap1\n      dup2\n      tag_179\n      swap2\n      swap1\n      tag_180\n      jump\t// in\n    tag_179:\n      pop\n      0x40\n      dup3\n      add\n      mload\n      dup2\n      0x02\n      add\n      exp(0x0100, 0x00)\n      dup2\n      sload\n      dup2\n      0xffffffffffffffffffffffffffffffffffffffff\n      mul\n      not\n      and\n      swap1\n      dup4\n      0xffffffffffffffffffffffffffffffffffffffff\n      and\n      mul\n      or\n      swap1\n      sstore\n      pop\n      0x60\n      dup3\n      add\n      mload\n      dup2\n      0x03\n      add\n      sstore\n      0x80\n      dup3\n      add\n      mload\n      dup2\n      0x04\n      add\n      sstore\n      swap1\n      pop\n      pop\n        /* \"solidity_test/test4.sol\":6058:6067  userCount */\n      0x16\n      0x00\n        /* \"solidity_test/test4.sol\":6058:6069  userCount++ */\n      dup2\n      sload\n      dup1\n      swap3\n      swap2\n      swap1\n      tag_181\n      swap1\n      tag_182\n      jump\t// in\n    tag_181:\n      swap2\n      swap1\n      pop\n      sstore\n      pop\n        /* \"solidity_test/test4.sol\":5680:6078  function signIn(string memory _name) public {... */\n      pop\n      jump\t// out\n        /* \"solidity_test/test4.sol\":8449:8540  function deposit() public payable {... */\n    tag_64:\n        /* \"solidity_test/test4.sol\":8523:8532  msg.value */\n      callvalue\n        /* \"solidity_test/test4.sol\":8494:8499  users */\n      0x15\n        /* \"solidity_test/test4.sol\":8494:8511  users[msg.sender] */\n      0x00\n        /* \"solidity_test/test4.sol\":8500:8510  msg.sender */\n      caller\n        /* \"solidity_test/test4.sol\":8494:8511  users[msg.sender] */\n      0xffffffffffffffffffffffffffffffffffffffff\n      and\n      0xffffffffffffffffffffffffffffffffffffffff\n      and\n      dup2\n      mstore\n      0x20\n      add\n      swap1\n      dup2\n      mstore\n      0x20\n      add\n      0x00\n      keccak256\n        /* \"solidity_test/test4.sol\":8494:8519  users[msg.sender].balance */\n      0x03\n      add\n      0x00\n        /* \"solidity_test/test4.sol\":8494:8532  users[msg.sender].balance += msg.value */\n      dup3\n      dup3\n      sload\n      tag_184\n      swap2\n      swap1\n      tag_147\n      jump\t// in\n    tag_184:\n      swap3\n      pop\n      pop\n      dup2\n      swap1\n      sstore\n      pop\n        /* \"solidity_test/test4.sol\":8449:8540  function deposit() public payable {... */\n      jump\t// out\n    tag_109:\n      pop\n      0x00\n      dup1\n      dup3\n      add\n      0x00\n      swap1\n      sstore\n      0x01\n      dup3\n      add\n      0x00\n      tag_185\n      swap2\n      swap1\n      tag_186\n      jump\t// in\n    tag_185:\n      0x02\n      dup3\n      add\n      exp(0x0100, 0x00)\n      dup2\n      sload\n      swap1\n      0xffffffffffffffffffffffffffffffffffffffff\n      mul\n      not\n      and\n      swap1\n      sstore\n      0x03\n      dup3\n      add\n      0x00\n      swap1\n      sstore\n      0x04\n      dup3\n      add\n      0x00\n      swap1\n      sstore\n      pop\n      0x05\n      add\n      0x00\n      dup1\n      dup3\n      add\n      0x00\n      swap1\n      sstore\n      0x01\n      dup3\n      add\n      0x00\n      tag_187\n      swap2\n      swap1\n      tag_186\n      jump\t// in\n    tag_187:\n      0x02\n      dup3\n      add\n      exp(0x0100, 0x00)\n      dup2\n      sload\n      swap1\n      0xffffffffffffffffffffffffffffffffffffffff\n      mul\n      not\n      and\n      swap1\n      sstore\n      0x03\n      dup3\n      add\n      0x00\n      swap1\n      sstore\n      0x04\n      dup3\n      add\n      0x00\n      swap1\n      sstore\n      pop\n      0x05\n      add\n      0x00\n      dup1\n      dup3\n      add\n      0x00\n      swap1\n      sstore\n      0x01\n      dup3\n      add\n      0x00\n      tag_188\n      swap2\n      swap1\n      tag_186\n      jump\t// in\n    tag_188:\n      0x02\n      dup3\n      add\n      exp(0x0100, 0x00)\n      dup2\n      sload\n      swap1\n      0xffffffffffffffffffffffffffffffffffffffff\n      mul\n      not\n      and\n      swap1\n      sstore\n      0x03\n      dup3\n      add\n      0x00\n      swap1\n      sstore\n      0x04\n      dup3\n      add\n      0x00\n      swap1\n      sstore\n      pop\n      0x05\n      add\n      0x00\n      dup1\n      dup3\n      add\n      0x00\n      swap1\n      sstore\n      0x01\n      dup3\n      add\n      0x00\n      tag_189\n      swap2\n      swap1\n      tag_186\n      jump\t// in\n    tag_189:\n      0x02\n      dup3\n      add\n      exp(0x0100, 0x00)\n      dup2\n      sload\n      swap1\n      0xffffffffffffffffffffffffffffffffffffffff\n      mul\n      not\n      and\n      swap1\n      sstore\n      0x03\n      dup3\n      add\n      0x00\n      swap1\n      sstore\n      0x04\n      dup3\n      add\n      0x00\n      swap1\n      sstore\n      pop\n      pop\n      jump\t// out\n    tag_124:\n      mload(0x40)\n      dup1\n      0xa0\n      add\n      0x40\n      mstore\n      dup1\n      0x00\n      dup2\n      mstore\n      0x20\n      add\n      0x60\n      dup2\n      mstore\n      0x20\n      add\n      and(0xffffffffffffffffffffffffffffffffffffffff, 0x00)\n      dup2\n      mstore\n      0x20\n      add\n      0x00\n      dup2\n      mstore\n      0x20\n      add\n      0x00\n      dup2\n      mstore\n      pop\n      swap1\n      jump\t// out\n    tag_186:\n      pop\n      dup1\n      sload\n      tag_190\n      swap1\n      tag_127\n      jump\t// in\n    tag_190:\n      0x00\n      dup3\n      sstore\n      dup1\n      0x1f\n      lt\n      tag_192\n      jumpi\n      pop\n      jump(tag_191)\n    tag_192:\n      0x1f\n      add\n      0x20\n      swap1\n      div\n      swap1\n      0x00\n      mstore\n      keccak256(0x00, 0x20)\n      swap1\n      dup2\n      add\n      swap1\n      tag_193\n      swap2\n      swap1\n      tag_194\n      jump\t// in\n    tag_193:\n    tag_191:\n      pop\n      jump\t// out\n    tag_194:\n    tag_195:\n      dup1\n      dup3\n      gt\n      iszero\n      tag_196\n      jumpi\n      0x00\n      dup2\n      0x00\n      swap1\n      sstore\n      pop\n      0x01\n      add\n      jump(tag_195)\n    tag_196:\n      pop\n      swap1\n      jump\t// out\n        /* \"#utility.yul\":7:84   */\n    tag_197:\n        /* \"#utility.yul\":44:51   */\n      0x00\n        /* \"#utility.yul\":73:78   */\n      dup2\n        /* \"#utility.yul\":62:78   */\n      swap1\n      pop\n        /* \"#utility.yul\":7:84   */\n      swap2\n      swap1\n      pop\n      jump\t// out\n        /* \"#utility.yul\":90:208   */\n    tag_198:\n        /* \"#utility.yul\":177:201   */\n      tag_252\n        /* \"#utility.yul\":195:200   */\n      dup2\n        /* \"#utility.yul\":177:201   */\n      tag_197\n      jump\t// in\n    tag_252:\n        /* \"#utility.yul\":172:175   */\n      dup3\n        /* \"#utility.yul\":165:202   */\n      mstore\n        /* \"#utility.yul\":90:208   */\n      pop\n      pop\n      jump\t// out\n        /* \"#utility.yul\":214:436   */\n    tag_24:\n        /* \"#utility.yul\":307:311   */\n      0x00\n        /* \"#utility.yul\":345:347   */\n      0x20\n        /* \"#utility.yul\":334:343   */\n      dup3\n        /* \"#utility.yul\":330:348   */\n      add\n        /* \"#utility.yul\":322:348   */\n      swap1\n      pop\n        /* \"#utility.yul\":358:429   */\n      tag_254\n        /* \"#utility.yul\":426:427   */\n      0x00\n        /* \"#utility.yul\":415:424   */\n      dup4\n        /* \"#utility.yul\":411:428   */\n      add\n        /* \"#utility.yul\":402:408   */\n      dup5\n        /* \"#utility.yul\":358:429   */\n      tag_198\n      jump\t// in\n    tag_254:\n        /* \"#utility.yul\":214:436   */\n      swap3\n      swap2\n      pop\n      pop\n      jump\t// out\n        /* \"#utility.yul\":442:517   */\n    tag_199:\n        /* \"#utility.yul\":475:481   */\n      0x00\n        /* \"#utility.yul\":508:510   */\n      0x40\n        /* \"#utility.yul\":502:511   */\n      mload\n        /* \"#utility.yul\":492:511   */\n      swap1\n      pop\n        /* \"#utility.yul\":442:517   */\n      swap1\n      jump\t// out\n        /* \"#utility.yul\":523:640   */\n    tag_200:\n        /* \"#utility.yul\":632:633   */\n      0x00\n        /* \"#utility.yul\":629:630   */\n      dup1\n        /* \"#utility.yul\":622:634   */\n      revert\n        /* \"#utility.yul\":646:763   */\n    tag_201:\n        /* \"#utility.yul\":755:756   */\n      0x00\n        /* \"#utility.yul\":752:753   */\n      dup1\n        /* \"#utility.yul\":745:757   */\n      revert\n        /* \"#utility.yul\":769:891   */\n    tag_202:\n        /* \"#utility.yul\":842:866   */\n      tag_259\n        /* \"#utility.yul\":860:865   */\n      dup2\n        /* \"#utility.yul\":842:866   */\n      tag_197\n      jump\t// in\n    tag_259:\n        /* \"#utility.yul\":835:840   */\n      dup2\n        /* \"#utility.yul\":832:867   */\n      eq\n        /* \"#utility.yul\":822:885   */\n      tag_260\n      jumpi\n        /* \"#utility.yul\":881:882   */\n      0x00\n        /* \"#utility.yul\":878:879   */\n      dup1\n        /* \"#utility.yul\":871:883   */\n      revert\n        /* \"#utility.yul\":822:885   */\n    tag_260:\n        /* \"#utility.yul\":769:891   */\n      pop\n      jump\t// out\n        /* \"#utility.yul\":897:1036   */\n    tag_203:\n        /* \"#utility.yul\":943:948   */\n      0x00\n        /* \"#utility.yul\":981:987   */\n      dup2\n        /* \"#utility.yul\":968:988   */\n      calldataload\n        /* \"#utility.yul\":959:988   */\n      swap1\n      pop\n        /* \"#utility.yul\":997:1030   */\n      tag_262\n        /* \"#utility.yul\":1024:1029   */\n      dup2\n        /* \"#utility.yul\":997:1030   */\n      tag_202\n      jump\t// in\n    tag_262:\n        /* \"#utility.yul\":897:1036   */\n      swap3\n      swap2\n      pop\n      pop\n      jump\t// out\n        /* \"#utility.yul\":1042:1371   */\n    tag_28:\n        /* \"#utility.yul\":1101:1107   */\n      0x00\n        /* \"#utility.yul\":1150:1152   */\n      0x20\n        /* \"#utility.yul\":1138:1147   */\n      dup3\n        /* \"#utility.yul\":1129:1136   */\n      dup5\n        /* \"#utility.yul\":1125:1148   */\n      sub\n        /* \"#utility.yul\":1121:1153   */\n      slt\n        /* \"#utility.yul\":1118:1237   */\n      iszero\n      tag_264\n      jumpi\n        /* \"#utility.yul\":1156:1235   */\n      tag_265\n      tag_200\n      jump\t// in\n    tag_265:\n        /* \"#utility.yul\":1118:1237   */\n    tag_264:\n        /* \"#utility.yul\":1276:1277   */\n      0x00\n        /* \"#utility.yul\":1301:1354   */\n      tag_266\n        /* \"#utility.yul\":1346:1353   */\n      dup5\n        /* \"#utility.yul\":1337:1343   */\n      dup3\n        /* \"#utility.yul\":1326:1335   */\n      dup6\n        /* \"#utility.yul\":1322:1344   */\n      add\n        /* \"#utility.yul\":1301:1354   */\n      tag_203\n      jump\t// in\n    tag_266:\n        /* \"#utility.yul\":1291:1354   */\n      swap2\n      pop\n        /* \"#utility.yul\":1247:1364   */\n      pop\n        /* \"#utility.yul\":1042:1371   */\n      swap3\n      swap2\n      pop\n      pop\n      jump\t// out\n        /* \"#utility.yul\":1377:1503   */\n    tag_204:\n        /* \"#utility.yul\":1414:1421   */\n      0x00\n        /* \"#utility.yul\":1454:1496   */\n      0xffffffffffffffffffffffffffffffffffffffff\n        /* \"#utility.yul\":1447:1452   */\n      dup3\n        /* \"#utility.yul\":1443:1497   */\n      and\n        /* \"#utility.yul\":1432:1497   */\n      swap1\n      pop\n        /* \"#utility.yul\":1377:1503   */\n      swap2\n      swap1\n      pop\n      jump\t// out\n        /* \"#utility.yul\":1509:1605   */\n    tag_205:\n        /* \"#utility.yul\":1546:1553   */\n      0x00\n        /* \"#utility.yul\":1575:1599   */\n      tag_269\n        /* \"#utility.yul\":1593:1598   */\n      dup3\n        /* \"#utility.yul\":1575:1599   */\n      tag_204\n      jump\t// in\n    tag_269:\n        /* \"#utility.yul\":1564:1599   */\n      swap1\n      pop\n        /* \"#utility.yul\":1509:1605   */\n      swap2\n      swap1\n      pop\n      jump\t// out\n        /* \"#utility.yul\":1611:1733   */\n    tag_206:\n        /* \"#utility.yul\":1684:1708   */\n      tag_271\n        /* \"#utility.yul\":1702:1707   */\n      dup2\n        /* \"#utility.yul\":1684:1708   */\n      tag_205\n      jump\t// in\n    tag_271:\n        /* \"#utility.yul\":1677:1682   */\n      dup2\n        /* \"#utility.yul\":1674:1709   */\n      eq\n        /* \"#utility.yul\":1664:1727   */\n      tag_272\n      jumpi\n        /* \"#utility.yul\":1723:1724   */\n      0x00\n        /* \"#utility.yul\":1720:1721   */\n      dup1\n        /* \"#utility.yul\":1713:1725   */\n      revert\n        /* \"#utility.yul\":1664:1727   */\n    tag_272:\n        /* \"#utility.yul\":1611:1733   */\n      pop\n      jump\t// out\n        /* \"#utility.yul\":1739:1878   */\n    tag_207:\n        /* \"#utility.yul\":1785:1790   */\n      0x00\n        /* \"#utility.yul\":1823:1829   */\n      dup2\n        /* \"#utility.yul\":1810:1830   */\n      calldataload\n        /* \"#utility.yul\":1801:1830   */\n      swap1\n      pop\n        /* \"#utility.yul\":1839:1872   */\n      tag_274\n        /* \"#utility.yul\":1866:1871   */\n      dup2\n        /* \"#utility.yul\":1839:1872   */\n      tag_206\n      jump\t// in\n    tag_274:\n        /* \"#utility.yul\":1739:1878   */\n      swap3\n      swap2\n      pop\n      pop\n      jump\t// out\n        /* \"#utility.yul\":1884:2213   */\n    tag_42:\n        /* \"#utility.yul\":1943:1949   */\n      0x00\n        /* \"#utility.yul\":1992:1994   */\n      0x20\n        /* \"#utility.yul\":1980:1989   */\n      dup3\n        /* \"#utility.yul\":1971:1978   */\n      dup5\n        /* \"#utility.yul\":1967:1990   */\n      sub\n        /* \"#utility.yul\":1963:1995   */\n      slt\n        /* \"#utility.yul\":1960:2079   */\n      iszero\n      tag_276\n      jumpi\n        /* \"#utility.yul\":1998:2077   */\n      tag_277\n      tag_200\n      jump\t// in\n    tag_277:\n        /* \"#utility.yul\":1960:2079   */\n    tag_276:\n        /* \"#utility.yul\":2118:2119   */\n      0x00\n        /* \"#utility.yul\":2143:2196   */\n      tag_278\n        /* \"#utility.yul\":2188:2195   */\n      dup5\n        /* \"#utility.yul\":2179:2185   */\n      dup3\n        /* \"#utility.yul\":2168:2177   */\n      dup6\n        /* \"#utility.yul\":2164:2186   */\n      add\n        /* \"#utility.yul\":2143:2196   */\n      tag_207\n      jump\t// in\n    tag_278:\n        /* \"#utility.yul\":2133:2196   */\n      swap2\n      pop\n        /* \"#utility.yul\":2089:2206   */\n      pop\n        /* \"#utility.yul\":1884:2213   */\n      swap3\n      swap2\n      pop\n      pop\n      jump\t// out\n        /* \"#utility.yul\":2219:2327   */\n    tag_208:\n        /* \"#utility.yul\":2296:2320   */\n      tag_280\n        /* \"#utility.yul\":2314:2319   */\n      dup2\n        /* \"#utility.yul\":2296:2320   */\n      tag_197\n      jump\t// in\n    tag_280:\n        /* \"#utility.yul\":2291:2294   */\n      dup3\n        /* \"#utility.yul\":2284:2321   */\n      mstore\n        /* \"#utility.yul\":2219:2327   */\n      pop\n      pop\n      jump\t// out\n        /* \"#utility.yul\":2333:2432   */\n    tag_209:\n        /* \"#utility.yul\":2385:2391   */\n      0x00\n        /* \"#utility.yul\":2419:2424   */\n      dup2\n        /* \"#utility.yul\":2413:2425   */\n      mload\n        /* \"#utility.yul\":2403:2425   */\n      swap1\n      pop\n        /* \"#utility.yul\":2333:2432   */\n      swap2\n      swap1\n      pop\n      jump\t// out\n        /* \"#utility.yul\":2438:2597   */\n    tag_210:\n        /* \"#utility.yul\":2512:2523   */\n      0x00\n        /* \"#utility.yul\":2546:2552   */\n      dup3\n        /* \"#utility.yul\":2541:2544   */\n      dup3\n        /* \"#utility.yul\":2534:2553   */\n      mstore\n        /* \"#utility.yul\":2586:2590   */\n      0x20\n        /* \"#utility.yul\":2581:2584   */\n      dup3\n        /* \"#utility.yul\":2577:2591   */\n      add\n        /* \"#utility.yul\":2562:2591   */\n      swap1\n      pop\n        /* \"#utility.yul\":2438:2597   */\n      swap3\n      swap2\n      pop\n      pop\n      jump\t// out\n        /* \"#utility.yul\":2603:2742   */\n    tag_211:\n        /* \"#utility.yul\":2692:2698   */\n      dup3\n        /* \"#utility.yul\":2687:2690   */\n      dup2\n        /* \"#utility.yul\":2682:2685   */\n      dup4\n        /* \"#utility.yul\":2676:2699   */\n      mcopy\n        /* \"#utility.yul\":2733:2734   */\n      0x00\n        /* \"#utility.yul\":2724:2730   */\n      dup4\n        /* \"#utility.yul\":2719:2722   */\n      dup4\n        /* \"#utility.yul\":2715:2731   */\n      add\n        /* \"#utility.yul\":2708:2735   */\n      mstore\n        /* \"#utility.yul\":2603:2742   */\n      pop\n      pop\n      pop\n      jump\t// out\n        /* \"#utility.yul\":2748:2850   */\n    tag_212:\n        /* \"#utility.yul\":2789:2795   */\n      0x00\n        /* \"#utility.yul\":2840:2842   */\n      0x1f\n        /* \"#utility.yul\":2836:2843   */\n      not\n        /* \"#utility.yul\":2831:2833   */\n      0x1f\n        /* \"#utility.yul\":2824:2829   */\n      dup4\n        /* \"#utility.yul\":2820:2834   */\n      add\n        /* \"#utility.yul\":2816:2844   */\n      and\n        /* \"#utility.yul\":2806:2844   */\n      swap1\n      pop\n        /* \"#utility.yul\":2748:2850   */\n      swap2\n      swap1\n      pop\n      jump\t// out\n        /* \"#utility.yul\":2856:3213   */\n    tag_213:\n        /* \"#utility.yul\":2934:2937   */\n      0x00\n        /* \"#utility.yul\":2962:3001   */\n      tag_286\n        /* \"#utility.yul\":2995:3000   */\n      dup3\n        /* \"#utility.yul\":2962:3001   */\n      tag_209\n      jump\t// in\n    tag_286:\n        /* \"#utility.yul\":3017:3078   */\n      tag_287\n        /* \"#utility.yul\":3071:3077   */\n      dup2\n        /* \"#utility.yul\":3066:3069   */\n      dup6\n        /* \"#utility.yul\":3017:3078   */\n      tag_210\n      jump\t// in\n    tag_287:\n        /* \"#utility.yul\":3010:3078   */\n      swap4\n      pop\n        /* \"#utility.yul\":3087:3152   */\n      tag_288\n        /* \"#utility.yul\":3145:3151   */\n      dup2\n        /* \"#utility.yul\":3140:3143   */\n      dup6\n        /* \"#utility.yul\":3133:3137   */\n      0x20\n        /* \"#utility.yul\":3126:3131   */\n      dup7\n        /* \"#utility.yul\":3122:3138   */\n      add\n        /* \"#utility.yul\":3087:3152   */\n      tag_211\n      jump\t// in\n    tag_288:\n        /* \"#utility.yul\":3177:3206   */\n      tag_289\n        /* \"#utility.yul\":3199:3205   */\n      dup2\n        /* \"#utility.yul\":3177:3206   */\n      tag_212\n      jump\t// in\n    tag_289:\n        /* \"#utility.yul\":3172:3175   */\n      dup5\n        /* \"#utility.yul\":3168:3207   */\n      add\n        /* \"#utility.yul\":3161:3207   */\n      swap2\n      pop\n        /* \"#utility.yul\":2938:3213   */\n      pop\n        /* \"#utility.yul\":2856:3213   */\n      swap3\n      swap2\n      pop\n      pop\n      jump\t// out\n        /* \"#utility.yul\":3219:3327   */\n    tag_214:\n        /* \"#utility.yul\":3296:3320   */\n      tag_291\n        /* \"#utility.yul\":3314:3319   */\n      dup2\n        /* \"#utility.yul\":3296:3320   */\n      tag_205\n      jump\t// in\n    tag_291:\n        /* \"#utility.yul\":3291:3294   */\n      dup3\n        /* \"#utility.yul\":3284:3321   */\n      mstore\n        /* \"#utility.yul\":3219:3327   */\n      pop\n      pop\n      jump\t// out\n        /* \"#utility.yul\":3381:4509   */\n    tag_215:\n        /* \"#utility.yul\":3492:3495   */\n      0x00\n        /* \"#utility.yul\":3528:3532   */\n      0xa0\n        /* \"#utility.yul\":3523:3526   */\n      dup4\n        /* \"#utility.yul\":3519:3533   */\n      add\n        /* \"#utility.yul\":3617:3621   */\n      0x00\n        /* \"#utility.yul\":3610:3615   */\n      dup4\n        /* \"#utility.yul\":3606:3622   */\n      add\n        /* \"#utility.yul\":3600:3623   */\n      mload\n        /* \"#utility.yul\":3636:3699   */\n      tag_293\n        /* \"#utility.yul\":3693:3697   */\n      0x00\n        /* \"#utility.yul\":3688:3691   */\n      dup7\n        /* \"#utility.yul\":3684:3698   */\n      add\n        /* \"#utility.yul\":3670:3682   */\n      dup3\n        /* \"#utility.yul\":3636:3699   */\n      tag_208\n      jump\t// in\n    tag_293:\n        /* \"#utility.yul\":3543:3709   */\n      pop\n        /* \"#utility.yul\":3791:3795   */\n      0x20\n        /* \"#utility.yul\":3784:3789   */\n      dup4\n        /* \"#utility.yul\":3780:3796   */\n      add\n        /* \"#utility.yul\":3774:3797   */\n      mload\n        /* \"#utility.yul\":3844:3847   */\n      dup5\n        /* \"#utility.yul\":3838:3842   */\n      dup3\n        /* \"#utility.yul\":3834:3848   */\n      sub\n        /* \"#utility.yul\":3827:3831   */\n      0x20\n        /* \"#utility.yul\":3822:3825   */\n      dup7\n        /* \"#utility.yul\":3818:3832   */\n      add\n        /* \"#utility.yul\":3811:3849   */\n      mstore\n        /* \"#utility.yul\":3870:3943   */\n      tag_294\n        /* \"#utility.yul\":3938:3942   */\n      dup3\n        /* \"#utility.yul\":3924:3936   */\n      dup3\n        /* \"#utility.yul\":3870:3943   */\n      tag_213\n      jump\t// in\n    tag_294:\n        /* \"#utility.yul\":3862:3943   */\n      swap2\n      pop\n        /* \"#utility.yul\":3719:3954   */\n      pop\n        /* \"#utility.yul\":4038:4042   */\n      0x40\n        /* \"#utility.yul\":4031:4036   */\n      dup4\n        /* \"#utility.yul\":4027:4043   */\n      add\n        /* \"#utility.yul\":4021:4044   */\n      mload\n        /* \"#utility.yul\":4057:4120   */\n      tag_295\n        /* \"#utility.yul\":4114:4118   */\n      0x40\n        /* \"#utility.yul\":4109:4112   */\n      dup7\n        /* \"#utility.yul\":4105:4119   */\n      add\n        /* \"#utility.yul\":4091:4103   */\n      dup3\n        /* \"#utility.yul\":4057:4120   */\n      tag_214\n      jump\t// in\n    tag_295:\n        /* \"#utility.yul\":3964:4130   */\n      pop\n        /* \"#utility.yul\":4215:4219   */\n      0x60\n        /* \"#utility.yul\":4208:4213   */\n      dup4\n        /* \"#utility.yul\":4204:4220   */\n      add\n        /* \"#utility.yul\":4198:4221   */\n      mload\n        /* \"#utility.yul\":4234:4297   */\n      tag_296\n        /* \"#utility.yul\":4291:4295   */\n      0x60\n        /* \"#utility.yul\":4286:4289   */\n      dup7\n        /* \"#utility.yul\":4282:4296   */\n      add\n        /* \"#utility.yul\":4268:4280   */\n      dup3\n        /* \"#utility.yul\":4234:4297   */\n      tag_208\n      jump\t// in\n    tag_296:\n        /* \"#utility.yul\":4140:4307   */\n      pop\n        /* \"#utility.yul\":4390:4394   */\n      0x80\n        /* \"#utility.yul\":4383:4388   */\n      dup4\n        /* \"#utility.yul\":4379:4395   */\n      add\n        /* \"#utility.yul\":4373:4396   */\n      mload\n        /* \"#utility.yul\":4409:4472   */\n      tag_297\n        /* \"#utility.yul\":4466:4470   */\n      0x80\n        /* \"#utility.yul\":4461:4464   */\n      dup7\n        /* \"#utility.yul\":4457:4471   */\n      add\n        /* \"#utility.yul\":4443:4455   */\n      dup3\n        /* \"#utility.yul\":4409:4472   */\n      tag_208\n      jump\t// in\n    tag_297:\n        /* \"#utility.yul\":4317:4482   */\n      pop\n        /* \"#utility.yul\":4499:4503   */\n      dup1\n        /* \"#utility.yul\":4492:4503   */\n      swap2\n      pop\n        /* \"#utility.yul\":3497:4509   */\n      pop\n        /* \"#utility.yul\":3381:4509   */\n      swap3\n      swap2\n      pop\n      pop\n      jump\t// out\n        /* \"#utility.yul\":4515:4872   */\n    tag_45:\n        /* \"#utility.yul\":4650:4654   */\n      0x00\n        /* \"#utility.yul\":4688:4690   */\n      0x20\n        /* \"#utility.yul\":4677:4686   */\n      dup3\n        /* \"#utility.yul\":4673:4691   */\n      add\n        /* \"#utility.yul\":4665:4691   */\n      swap1\n      pop\n        /* \"#utility.yul\":4737:4746   */\n      dup2\n        /* \"#utility.yul\":4731:4735   */\n      dup2\n        /* \"#utility.yul\":4727:4747   */\n      sub\n        /* \"#utility.yul\":4723:4724   */\n      0x00\n        /* \"#utility.yul\":4712:4721   */\n      dup4\n        /* \"#utility.yul\":4708:4725   */\n      add\n        /* \"#utility.yul\":4701:4748   */\n      mstore\n        /* \"#utility.yul\":4765:4865   */\n      tag_299\n        /* \"#utility.yul\":4860:4864   */\n      dup2\n        /* \"#utility.yul\":4851:4857   */\n      dup5\n        /* \"#utility.yul\":4765:4865   */\n      tag_215\n      jump\t// in\n    tag_299:\n        /* \"#utility.yul\":4757:4865   */\n      swap1\n      pop\n        /* \"#utility.yul\":4515:4872   */\n      swap3\n      swap2\n      pop\n      pop\n      jump\t// out\n        /* \"#utility.yul\":4878:4995   */\n    tag_216:\n        /* \"#utility.yul\":4987:4988   */\n      0x00\n        /* \"#utility.yul\":4984:4985   */\n      dup1\n        /* \"#utility.yul\":4977:4989   */\n      revert\n        /* \"#utility.yul\":5001:5118   */\n    tag_217:\n        /* \"#utility.yul\":5110:5111   */\n      0x00\n        /* \"#utility.yul\":5107:5108   */\n      dup1\n        /* \"#utility.yul\":5100:5112   */\n      revert\n        /* \"#utility.yul\":5124:5304   */\n    tag_218:\n        /* \"#utility.yul\":5172:5249   */\n      0x4e487b7100000000000000000000000000000000000000000000000000000000\n        /* \"#utility.yul\":5169:5170   */\n      0x00\n        /* \"#utility.yul\":5162:5250   */\n      mstore\n        /* \"#utility.yul\":5269:5273   */\n      0x41\n        /* \"#utility.yul\":5266:5267   */\n      0x04\n        /* \"#utility.yul\":5259:5274   */\n      mstore\n        /* \"#utility.yul\":5293:5297   */\n      0x24\n        /* \"#utility.yul\":5290:5291   */\n      0x00\n        /* \"#utility.yul\":5283:5298   */\n      revert\n        /* \"#utility.yul\":5310:5591   */\n    tag_219:\n        /* \"#utility.yul\":5393:5420   */\n      tag_304\n        /* \"#utility.yul\":5415:5419   */\n      dup3\n        /* \"#utility.yul\":5393:5420   */\n      tag_212\n      jump\t// in\n    tag_304:\n        /* \"#utility.yul\":5385:5391   */\n      dup2\n        /* \"#utility.yul\":5381:5421   */\n      add\n        /* \"#utility.yul\":5523:5529   */\n      dup2\n        /* \"#utility.yul\":5511:5521   */\n      dup2\n        /* \"#utility.yul\":5508:5530   */\n      lt\n        /* \"#utility.yul\":5487:5505   */\n      0xffffffffffffffff\n        /* \"#utility.yul\":5475:5485   */\n      dup3\n        /* \"#utility.yul\":5472:5506   */\n      gt\n        /* \"#utility.yul\":5469:5531   */\n      or\n        /* \"#utility.yul\":5466:5554   */\n      iszero\n      tag_305\n      jumpi\n        /* \"#utility.yul\":5534:5552   */\n      tag_306\n      tag_218\n      jump\t// in\n    tag_306:\n        /* \"#utility.yul\":5466:5554   */\n    tag_305:\n        /* \"#utility.yul\":5574:5584   */\n      dup1\n        /* \"#utility.yul\":5570:5572   */\n      0x40\n        /* \"#utility.yul\":5563:5585   */\n      mstore\n        /* \"#utility.yul\":5353:5591   */\n      pop\n        /* \"#utility.yul\":5310:5591   */\n      pop\n      pop\n      jump\t// out\n        /* \"#utility.yul\":5597:5726   */\n    tag_220:\n        /* \"#utility.yul\":5631:5637   */\n      0x00\n        /* \"#utility.yul\":5658:5678   */\n      tag_308\n      tag_199\n      jump\t// in\n    tag_308:\n        /* \"#utility.yul\":5648:5678   */\n      swap1\n      pop\n        /* \"#utility.yul\":5687:5720   */\n      tag_309\n        /* \"#utility.yul\":5715:5719   */\n      dup3\n        /* \"#utility.yul\":5707:5713   */\n      dup3\n        /* \"#utility.yul\":5687:5720   */\n      tag_219\n      jump\t// in\n    tag_309:\n        /* \"#utility.yul\":5597:5726   */\n      swap2\n      swap1\n      pop\n      jump\t// out\n        /* \"#utility.yul\":5732:6040   */\n    tag_221:\n        /* \"#utility.yul\":5794:5798   */\n      0x00\n        /* \"#utility.yul\":5884:5902   */\n      0xffffffffffffffff\n        /* \"#utility.yul\":5876:5882   */\n      dup3\n        /* \"#utility.yul\":5873:5903   */\n      gt\n        /* \"#utility.yul\":5870:5926   */\n      iszero\n      tag_311\n      jumpi\n        /* \"#utility.yul\":5906:5924   */\n      tag_312\n      tag_218\n      jump\t// in\n    tag_312:\n        /* \"#utility.yul\":5870:5926   */\n    tag_311:\n        /* \"#utility.yul\":5944:5973   */\n      tag_313\n        /* \"#utility.yul\":5966:5972   */\n      dup3\n        /* \"#utility.yul\":5944:5973   */\n      tag_212\n      jump\t// in\n    tag_313:\n        /* \"#utility.yul\":5936:5973   */\n      swap1\n      pop\n        /* \"#utility.yul\":6028:6032   */\n      0x20\n        /* \"#utility.yul\":6022:6026   */\n      dup2\n        /* \"#utility.yul\":6018:6033   */\n      add\n        /* \"#utility.yul\":6010:6033   */\n      swap1\n      pop\n        /* \"#utility.yul\":5732:6040   */\n      swap2\n      swap1\n      pop\n      jump\t// out\n        /* \"#utility.yul\":6046:6194   */\n    tag_222:\n        /* \"#utility.yul\":6144:6150   */\n      dup3\n        /* \"#utility.yul\":6139:6142   */\n      dup2\n        /* \"#utility.yul\":6134:6137   */\n      dup4\n        /* \"#utility.yul\":6121:6151   */\n      calldatacopy\n        /* \"#utility.yul\":6185:6186   */\n      0x00\n        /* \"#utility.yul\":6176:6182   */\n      dup4\n        /* \"#utility.yul\":6171:6174   */\n      dup4\n        /* \"#utility.yul\":6167:6183   */\n      add\n        /* \"#utility.yul\":6160:6187   */\n      mstore\n        /* \"#utility.yul\":6046:6194   */\n      pop\n      pop\n      pop\n      jump\t// out\n        /* \"#utility.yul\":6200:6625   */\n    tag_223:\n        /* \"#utility.yul\":6278:6283   */\n      0x00\n        /* \"#utility.yul\":6303:6369   */\n      tag_316\n        /* \"#utility.yul\":6319:6368   */\n      tag_317\n        /* \"#utility.yul\":6361:6367   */\n      dup5\n        /* \"#utility.yul\":6319:6368   */\n      tag_221\n      jump\t// in\n    tag_317:\n        /* \"#utility.yul\":6303:6369   */\n      tag_220\n      jump\t// in\n    tag_316:\n        /* \"#utility.yul\":6294:6369   */\n      swap1\n      pop\n        /* \"#utility.yul\":6392:6398   */\n      dup3\n        /* \"#utility.yul\":6385:6390   */\n      dup2\n        /* \"#utility.yul\":6378:6399   */\n      mstore\n        /* \"#utility.yul\":6430:6434   */\n      0x20\n        /* \"#utility.yul\":6423:6428   */\n      dup2\n        /* \"#utility.yul\":6419:6435   */\n      add\n        /* \"#utility.yul\":6468:6471   */\n      dup5\n        /* \"#utility.yul\":6459:6465   */\n      dup5\n        /* \"#utility.yul\":6454:6457   */\n      dup5\n        /* \"#utility.yul\":6450:6466   */\n      add\n        /* \"#utility.yul\":6447:6472   */\n      gt\n        /* \"#utility.yul\":6444:6556   */\n      iszero\n      tag_318\n      jumpi\n        /* \"#utility.yul\":6475:6554   */\n      tag_319\n      tag_217\n      jump\t// in\n    tag_319:\n        /* \"#utility.yul\":6444:6556   */\n    tag_318:\n        /* \"#utility.yul\":6565:6619   */\n      tag_320\n        /* \"#utility.yul\":6612:6618   */\n      dup5\n        /* \"#utility.yul\":6607:6610   */\n      dup3\n        /* \"#utility.yul\":6602:6605   */\n      dup6\n        /* \"#utility.yul\":6565:6619   */\n      tag_222\n      jump\t// in\n    tag_320:\n        /* \"#utility.yul\":6284:6625   */\n      pop\n        /* \"#utility.yul\":6200:6625   */\n      swap4\n      swap3\n      pop\n      pop\n      pop\n      jump\t// out\n        /* \"#utility.yul\":6645:6985   */\n    tag_224:\n        /* \"#utility.yul\":6701:6706   */\n      0x00\n        /* \"#utility.yul\":6750:6753   */\n      dup3\n        /* \"#utility.yul\":6743:6747   */\n      0x1f\n        /* \"#utility.yul\":6735:6741   */\n      dup4\n        /* \"#utility.yul\":6731:6748   */\n      add\n        /* \"#utility.yul\":6727:6754   */\n      slt\n        /* \"#utility.yul\":6717:6839   */\n      tag_322\n      jumpi\n        /* \"#utility.yul\":6758:6837   */\n      tag_323\n      tag_216\n      jump\t// in\n    tag_323:\n        /* \"#utility.yul\":6717:6839   */\n    tag_322:\n        /* \"#utility.yul\":6875:6881   */\n      dup2\n        /* \"#utility.yul\":6862:6882   */\n      calldataload\n        /* \"#utility.yul\":6900:6979   */\n      tag_324\n        /* \"#utility.yul\":6975:6978   */\n      dup5\n        /* \"#utility.yul\":6967:6973   */\n      dup3\n        /* \"#utility.yul\":6960:6964   */\n      0x20\n        /* \"#utility.yul\":6952:6958   */\n      dup7\n        /* \"#utility.yul\":6948:6965   */\n      add\n        /* \"#utility.yul\":6900:6979   */\n      tag_223\n      jump\t// in\n    tag_324:\n        /* \"#utility.yul\":6891:6979   */\n      swap2\n      pop\n        /* \"#utility.yul\":6707:6985   */\n      pop\n        /* \"#utility.yul\":6645:6985   */\n      swap3\n      swap2\n      pop\n      pop\n      jump\t// out\n        /* \"#utility.yul\":6991:7500   */\n    tag_61:\n        /* \"#utility.yul\":7060:7066   */\n      0x00\n        /* \"#utility.yul\":7109:7111   */\n      0x20\n        /* \"#utility.yul\":7097:7106   */\n      dup3\n        /* \"#utility.yul\":7088:7095   */\n      dup5\n        /* \"#utility.yul\":7084:7107   */\n      sub\n        /* \"#utility.yul\":7080:7112   */\n      slt\n        /* \"#utility.yul\":7077:7196   */\n      iszero\n      tag_326\n      jumpi\n        /* \"#utility.yul\":7115:7194   */\n      tag_327\n      tag_200\n      jump\t// in\n    tag_327:\n        /* \"#utility.yul\":7077:7196   */\n    tag_326:\n        /* \"#utility.yul\":7263:7264   */\n      0x00\n        /* \"#utility.yul\":7252:7261   */\n      dup3\n        /* \"#utility.yul\":7248:7265   */\n      add\n        /* \"#utility.yul\":7235:7266   */\n      calldataload\n        /* \"#utility.yul\":7293:7311   */\n      0xffffffffffffffff\n        /* \"#utility.yul\":7285:7291   */\n      dup2\n        /* \"#utility.yul\":7282:7312   */\n      gt\n        /* \"#utility.yul\":7279:7396   */\n      iszero\n      tag_328\n      jumpi\n        /* \"#utility.yul\":7315:7394   */\n      tag_329\n      tag_201\n      jump\t// in\n    tag_329:\n        /* \"#utility.yul\":7279:7396   */\n    tag_328:\n        /* \"#utility.yul\":7420:7483   */\n      tag_330\n        /* \"#utility.yul\":7475:7482   */\n      dup5\n        /* \"#utility.yul\":7466:7472   */\n      dup3\n        /* \"#utility.yul\":7455:7464   */\n      dup6\n        /* \"#utility.yul\":7451:7473   */\n      add\n        /* \"#utility.yul\":7420:7483   */\n      tag_224\n      jump\t// in\n    tag_330:\n        /* \"#utility.yul\":7410:7483   */\n      swap2\n      pop\n        /* \"#utility.yul\":7206:7493   */\n      pop\n        /* \"#utility.yul\":6991:7500   */\n      swap3\n      swap2\n      pop\n      pop\n      jump\t// out\n        /* \"#utility.yul\":7506:7675   */\n    tag_225:\n        /* \"#utility.yul\":7590:7601   */\n      0x00\n        /* \"#utility.yul\":7624:7630   */\n      dup3\n        /* \"#utility.yul\":7619:7622   */\n      dup3\n        /* \"#utility.yul\":7612:7631   */\n      mstore\n        /* \"#utility.yul\":7664:7668   */\n      0x20\n        /* \"#utility.yul\":7659:7662   */\n      dup3\n        /* \"#utility.yul\":7655:7669   */\n      add\n        /* \"#utility.yul\":7640:7669   */\n      swap1\n      pop\n        /* \"#utility.yul\":7506:7675   */\n      swap3\n      swap2\n      pop\n      pop\n      jump\t// out\n        /* \"#utility.yul\":7681:7835   */\n    tag_226:\n        /* \"#utility.yul\":7821:7827   */\n      0x6e6f706500000000000000000000000000000000000000000000000000000000\n        /* \"#utility.yul\":7817:7818   */\n      0x00\n        /* \"#utility.yul\":7809:7815   */\n      dup3\n        /* \"#utility.yul\":7805:7819   */\n      add\n        /* \"#utility.yul\":7798:7828   */\n      mstore\n        /* \"#utility.yul\":7681:7835   */\n      pop\n      jump\t// out\n        /* \"#utility.yul\":7841:8206   */\n    tag_227:\n        /* \"#utility.yul\":7983:7986   */\n      0x00\n        /* \"#utility.yul\":8004:8070   */\n      tag_334\n        /* \"#utility.yul\":8068:8069   */\n      0x04\n        /* \"#utility.yul\":8063:8066   */\n      dup4\n        /* \"#utility.yul\":8004:8070   */\n      tag_225\n      jump\t// in\n    tag_334:\n        /* \"#utility.yul\":7997:8070   */\n      swap2\n      pop\n        /* \"#utility.yul\":8079:8172   */\n      tag_335\n        /* \"#utility.yul\":8168:8171   */\n      dup3\n        /* \"#utility.yul\":8079:8172   */\n      tag_226\n      jump\t// in\n    tag_335:\n        /* \"#utility.yul\":8197:8199   */\n      0x20\n        /* \"#utility.yul\":8192:8195   */\n      dup3\n        /* \"#utility.yul\":8188:8200   */\n      add\n        /* \"#utility.yul\":8181:8200   */\n      swap1\n      pop\n        /* \"#utility.yul\":7841:8206   */\n      swap2\n      swap1\n      pop\n      jump\t// out\n        /* \"#utility.yul\":8212:8631   */\n    tag_68:\n        /* \"#utility.yul\":8378:8382   */\n      0x00\n        /* \"#utility.yul\":8416:8418   */\n      0x20\n        /* \"#utility.yul\":8405:8414   */\n      dup3\n        /* \"#utility.yul\":8401:8419   */\n      add\n        /* \"#utility.yul\":8393:8419   */\n      swap1\n      pop\n        /* \"#utility.yul\":8465:8474   */\n      dup2\n        /* \"#utility.yul\":8459:8463   */\n      dup2\n        /* \"#utility.yul\":8455:8475   */\n      sub\n        /* \"#utility.yul\":8451:8452   */\n      0x00\n        /* \"#utility.yul\":8440:8449   */\n      dup4\n        /* \"#utility.yul\":8436:8453   */\n      add\n        /* \"#utility.yul\":8429:8476   */\n      mstore\n        /* \"#utility.yul\":8493:8624   */\n      tag_337\n        /* \"#utility.yul\":8619:8623   */\n      dup2\n        /* \"#utility.yul\":8493:8624   */\n      tag_227\n      jump\t// in\n    tag_337:\n        /* \"#utility.yul\":8485:8624   */\n      swap1\n      pop\n        /* \"#utility.yul\":8212:8631   */\n      swap2\n      swap1\n      pop\n      jump\t// out\n        /* \"#utility.yul\":8637:8817   */\n    tag_228:\n        /* \"#utility.yul\":8685:8762   */\n      0x4e487b7100000000000000000000000000000000000000000000000000000000\n        /* \"#utility.yul\":8682:8683   */\n      0x00\n        /* \"#utility.yul\":8675:8763   */\n      mstore\n        /* \"#utility.yul\":8782:8786   */\n      0x11\n        /* \"#utility.yul\":8779:8780   */\n      0x04\n        /* \"#utility.yul\":8772:8787   */\n      mstore\n        /* \"#utility.yul\":8806:8810   */\n      0x24\n        /* \"#utility.yul\":8803:8804   */\n      0x00\n        /* \"#utility.yul\":8796:8811   */\n      revert\n        /* \"#utility.yul\":8823:9017   */\n    tag_70:\n        /* \"#utility.yul\":8863:8867   */\n      0x00\n        /* \"#utility.yul\":8883:8903   */\n      tag_340\n        /* \"#utility.yul\":8901:8902   */\n      dup3\n        /* \"#utility.yul\":8883:8903   */\n      tag_197\n      jump\t// in\n    tag_340:\n        /* \"#utility.yul\":8878:8903   */\n      swap2\n      pop\n        /* \"#utility.yul\":8917:8937   */\n      tag_341\n        /* \"#utility.yul\":8935:8936   */\n      dup4\n        /* \"#utility.yul\":8917:8937   */\n      tag_197\n      jump\t// in\n    tag_341:\n        /* \"#utility.yul\":8912:8937   */\n      swap3\n      pop\n        /* \"#utility.yul\":8961:8962   */\n      dup3\n        /* \"#utility.yul\":8958:8959   */\n      dup3\n        /* \"#utility.yul\":8954:8963   */\n      sub\n        /* \"#utility.yul\":8946:8963   */\n      swap1\n      pop\n        /* \"#utility.yul\":8985:8986   */\n      dup2\n        /* \"#utility.yul\":8979:8983   */\n      dup2\n        /* \"#utility.yul\":8976:8987   */\n      gt\n        /* \"#utility.yul\":8973:9010   */\n      iszero\n      tag_342\n      jumpi\n        /* \"#utility.yul\":8990:9008   */\n      tag_343\n      tag_228\n      jump\t// in\n    tag_343:\n        /* \"#utility.yul\":8973:9010   */\n    tag_342:\n        /* \"#utility.yul\":8823:9017   */\n      swap3\n      swap2\n      pop\n      pop\n      jump\t// out\n        /* \"#utility.yul\":9023:9203   */\n    tag_229:\n        /* \"#utility.yul\":9071:9148   */\n      0x4e487b7100000000000000000000000000000000000000000000000000000000\n        /* \"#utility.yul\":9068:9069   */\n      0x00\n        /* \"#utility.yul\":9061:9149   */\n      mstore\n        /* \"#utility.yul\":9168:9172   */\n      0x12\n        /* \"#utility.yul\":9165:9166   */\n      0x04\n        /* \"#utility.yul\":9158:9173   */\n      mstore\n        /* \"#utility.yul\":9192:9196   */\n      0x24\n        /* \"#utility.yul\":9189:9190   */\n      0x00\n        /* \"#utility.yul\":9182:9197   */\n      revert\n        /* \"#utility.yul\":9209:9394   */\n    tag_78:\n        /* \"#utility.yul\":9249:9250   */\n      0x00\n        /* \"#utility.yul\":9266:9286   */\n      tag_346\n        /* \"#utility.yul\":9284:9285   */\n      dup3\n        /* \"#utility.yul\":9266:9286   */\n      tag_197\n      jump\t// in\n    tag_346:\n        /* \"#utility.yul\":9261:9286   */\n      swap2\n      pop\n        /* \"#utility.yul\":9300:9320   */\n      tag_347\n        /* \"#utility.yul\":9318:9319   */\n      dup4\n        /* \"#utility.yul\":9300:9320   */\n      tag_197\n      jump\t// in\n    tag_347:\n        /* \"#utility.yul\":9295:9320   */\n      swap3\n      pop\n        /* \"#utility.yul\":9339:9340   */\n      dup3\n        /* \"#utility.yul\":9329:9364   */\n      tag_348\n      jumpi\n        /* \"#utility.yul\":9344:9362   */\n      tag_349\n      tag_229\n      jump\t// in\n    tag_349:\n        /* \"#utility.yul\":9329:9364   */\n    tag_348:\n        /* \"#utility.yul\":9386:9387   */\n      dup3\n        /* \"#utility.yul\":9383:9384   */\n      dup3\n        /* \"#utility.yul\":9379:9388   */\n      div\n        /* \"#utility.yul\":9374:9388   */\n      swap1\n      pop\n        /* \"#utility.yul\":9209:9394   */\n      swap3\n      swap2\n      pop\n      pop\n      jump\t// out\n        /* \"#utility.yul\":9400:9810   */\n    tag_80:\n        /* \"#utility.yul\":9440:9447   */\n      0x00\n        /* \"#utility.yul\":9463:9483   */\n      tag_351\n        /* \"#utility.yul\":9481:9482   */\n      dup3\n        /* \"#utility.yul\":9463:9483   */\n      tag_197\n      jump\t// in\n    tag_351:\n        /* \"#utility.yul\":9458:9483   */\n      swap2\n      pop\n        /* \"#utility.yul\":9497:9517   */\n      tag_352\n        /* \"#utility.yul\":9515:9516   */\n      dup4\n        /* \"#utility.yul\":9497:9517   */\n      tag_197\n      jump\t// in\n    tag_352:\n        /* \"#utility.yul\":9492:9517   */\n      swap3\n      pop\n        /* \"#utility.yul\":9552:9553   */\n      dup3\n        /* \"#utility.yul\":9549:9550   */\n      dup3\n        /* \"#utility.yul\":9545:9554   */\n      mul\n        /* \"#utility.yul\":9574:9604   */\n      tag_353\n        /* \"#utility.yul\":9592:9603   */\n      dup2\n        /* \"#utility.yul\":9574:9604   */\n      tag_197\n      jump\t// in\n    tag_353:\n        /* \"#utility.yul\":9563:9604   */\n      swap2\n      pop\n        /* \"#utility.yul\":9753:9754   */\n      dup3\n        /* \"#utility.yul\":9744:9751   */\n      dup3\n        /* \"#utility.yul\":9740:9755   */\n      div\n        /* \"#utility.yul\":9737:9738   */\n      dup5\n        /* \"#utility.yul\":9734:9756   */\n      eq\n        /* \"#utility.yul\":9714:9715   */\n      dup4\n        /* \"#utility.yul\":9707:9716   */\n      iszero\n        /* \"#utility.yul\":9687:9770   */\n      or\n        /* \"#utility.yul\":9664:9803   */\n      tag_354\n      jumpi\n        /* \"#utility.yul\":9783:9801   */\n      tag_355\n      tag_228\n      jump\t// in\n    tag_355:\n        /* \"#utility.yul\":9664:9803   */\n    tag_354:\n        /* \"#utility.yul\":9448:9810   */\n      pop\n        /* \"#utility.yul\":9400:9810   */\n      swap3\n      swap2\n      pop\n      pop\n      jump\t// out\n        /* \"#utility.yul\":9816:9992   */\n    tag_88:\n        /* \"#utility.yul\":9848:9849   */\n      0x00\n        /* \"#utility.yul\":9865:9885   */\n      tag_357\n        /* \"#utility.yul\":9883:9884   */\n      dup3\n        /* \"#utility.yul\":9865:9885   */\n      tag_197\n      jump\t// in\n    tag_357:\n        /* \"#utility.yul\":9860:9885   */\n      swap2\n      pop\n        /* \"#utility.yul\":9899:9919   */\n      tag_358\n        /* \"#utility.yul\":9917:9918   */\n      dup4\n        /* \"#utility.yul\":9899:9919   */\n      tag_197\n      jump\t// in\n    tag_358:\n        /* \"#utility.yul\":9894:9919   */\n      swap3\n      pop\n        /* \"#utility.yul\":9938:9939   */\n      dup3\n        /* \"#utility.yul\":9928:9963   */\n      tag_359\n      jumpi\n        /* \"#utility.yul\":9943:9961   */\n      tag_360\n      tag_229\n      jump\t// in\n    tag_360:\n        /* \"#utility.yul\":9928:9963   */\n    tag_359:\n        /* \"#utility.yul\":9984:9985   */\n      dup3\n        /* \"#utility.yul\":9981:9982   */\n      dup3\n        /* \"#utility.yul\":9977:9986   */\n      mod\n        /* \"#utility.yul\":9972:9986   */\n      swap1\n      pop\n        /* \"#utility.yul\":9816:9992   */\n      swap3\n      swap2\n      pop\n      pop\n      jump\t// out\n        /* \"#utility.yul\":9998:10152   */\n    tag_230:\n        /* \"#utility.yul\":10138:10144   */\n      0x4e4f504500000000000000000000000000000000000000000000000000000000\n        /* \"#utility.yul\":10134:10135   */\n      0x00\n        /* \"#utility.yul\":10126:10132   */\n      dup3\n        /* \"#utility.yul\":10122:10136   */\n      add\n        /* \"#utility.yul\":10115:10145   */\n      mstore\n        /* \"#utility.yul\":9998:10152   */\n      pop\n      jump\t// out\n        /* \"#utility.yul\":10158:10523   */\n    tag_231:\n        /* \"#utility.yul\":10300:10303   */\n      0x00\n        /* \"#utility.yul\":10321:10387   */\n      tag_363\n        /* \"#utility.yul\":10385:10386   */\n      0x04\n        /* \"#utility.yul\":10380:10383   */\n      dup4\n        /* \"#utility.yul\":10321:10387   */\n      tag_225\n      jump\t// in\n    tag_363:\n        /* \"#utility.yul\":10314:10387   */\n      swap2\n      pop\n        /* \"#utility.yul\":10396:10489   */\n      tag_364\n        /* \"#utility.yul\":10485:10488   */\n      dup3\n        /* \"#utility.yul\":10396:10489   */\n      tag_230\n      jump\t// in\n    tag_364:\n        /* \"#utility.yul\":10514:10516   */\n      0x20\n        /* \"#utility.yul\":10509:10512   */\n      dup3\n        /* \"#utility.yul\":10505:10517   */\n      add\n        /* \"#utility.yul\":10498:10517   */\n      swap1\n      pop\n        /* \"#utility.yul\":10158:10523   */\n      swap2\n      swap1\n      pop\n      jump\t// out\n        /* \"#utility.yul\":10529:10948   */\n    tag_96:\n        /* \"#utility.yul\":10695:10699   */\n      0x00\n        /* \"#utility.yul\":10733:10735   */\n      0x20\n        /* \"#utility.yul\":10722:10731   */\n      dup3\n        /* \"#utility.yul\":10718:10736   */\n      add\n        /* \"#utility.yul\":10710:10736   */\n      swap1\n      pop\n        /* \"#utility.yul\":10782:10791   */\n      dup2\n        /* \"#utility.yul\":10776:10780   */\n      dup2\n        /* \"#utility.yul\":10772:10792   */\n      sub\n        /* \"#utility.yul\":10768:10769   */\n      0x00\n        /* \"#utility.yul\":10757:10766   */\n      dup4\n        /* \"#utility.yul\":10753:10770   */\n      add\n        /* \"#utility.yul\":10746:10793   */\n      mstore\n        /* \"#utility.yul\":10810:10941   */\n      tag_366\n        /* \"#utility.yul\":10936:10940   */\n      dup2\n        /* \"#utility.yul\":10810:10941   */\n      tag_231\n      jump\t// in\n    tag_366:\n        /* \"#utility.yul\":10802:10941   */\n      swap1\n      pop\n        /* \"#utility.yul\":10529:10948   */\n      swap2\n      swap1\n      pop\n      jump\t// out\n        /* \"#utility.yul\":10954:11134   */\n    tag_103:\n        /* \"#utility.yul\":11002:11079   */\n      0x4e487b7100000000000000000000000000000000000000000000000000000000\n        /* \"#utility.yul\":10999:11000   */\n      0x00\n        /* \"#utility.yul\":10992:11080   */\n      mstore\n        /* \"#utility.yul\":11099:11103   */\n      0x32\n        /* \"#utility.yul\":11096:11097   */\n      0x04\n        /* \"#utility.yul\":11089:11104   */\n      mstore\n        /* \"#utility.yul\":11123:11127   */\n      0x24\n        /* \"#utility.yul\":11120:11121   */\n      0x00\n        /* \"#utility.yul\":11113:11128   */\n      revert\n        /* \"#utility.yul\":11140:11320   */\n    tag_232:\n        /* \"#utility.yul\":11188:11265   */\n      0x4e487b7100000000000000000000000000000000000000000000000000000000\n        /* \"#utility.yul\":11185:11186   */\n      0x00\n        /* \"#utility.yul\":11178:11266   */\n      mstore\n        /* \"#utility.yul\":11285:11289   */\n      0x22\n        /* \"#utility.yul\":11282:11283   */\n      0x04\n        /* \"#utility.yul\":11275:11290   */\n      mstore\n        /* \"#utility.yul\":11309:11313   */\n      0x24\n        /* \"#utility.yul\":11306:11307   */\n      0x00\n        /* \"#utility.yul\":11299:11314   */\n      revert\n        /* \"#utility.yul\":11326:11646   */\n    tag_127:\n        /* \"#utility.yul\":11370:11376   */\n      0x00\n        /* \"#utility.yul\":11407:11408   */\n      0x02\n        /* \"#utility.yul\":11401:11405   */\n      dup3\n        /* \"#utility.yul\":11397:11409   */\n      div\n        /* \"#utility.yul\":11387:11409   */\n      swap1\n      pop\n        /* \"#utility.yul\":11454:11455   */\n      0x01\n        /* \"#utility.yul\":11448:11452   */\n      dup3\n        /* \"#utility.yul\":11444:11456   */\n      and\n        /* \"#utility.yul\":11475:11493   */\n      dup1\n        /* \"#utility.yul\":11465:11546   */\n      tag_370\n      jumpi\n        /* \"#utility.yul\":11531:11535   */\n      0x7f\n        /* \"#utility.yul\":11523:11529   */\n      dup3\n        /* \"#utility.yul\":11519:11536   */\n      and\n        /* \"#utility.yul\":11509:11536   */\n      swap2\n      pop\n        /* \"#utility.yul\":11465:11546   */\n    tag_370:\n        /* \"#utility.yul\":11593:11595   */\n      0x20\n        /* \"#utility.yul\":11585:11591   */\n      dup3\n        /* \"#utility.yul\":11582:11596   */\n      lt\n        /* \"#utility.yul\":11562:11580   */\n      dup2\n        /* \"#utility.yul\":11559:11597   */\n      sub\n        /* \"#utility.yul\":11556:11640   */\n      tag_371\n      jumpi\n        /* \"#utility.yul\":11612:11630   */\n      tag_372\n      tag_232\n      jump\t// in\n    tag_372:\n        /* \"#utility.yul\":11556:11640   */\n    tag_371:\n        /* \"#utility.yul\":11377:11646   */\n      pop\n        /* \"#utility.yul\":11326:11646   */\n      swap2\n      swap1\n      pop\n      jump\t// out\n        /* \"#utility.yul\":11652:11801   */\n    tag_233:\n        /* \"#utility.yul\":11701:11707   */\n      0x00\n        /* \"#utility.yul\":11735:11740   */\n      dup2\n        /* \"#utility.yul\":11729:11741   */\n      sload\n        /* \"#utility.yul\":11719:11741   */\n      swap1\n      pop\n        /* \"#utility.yul\":11761:11794   */\n      tag_374\n        /* \"#utility.yul\":11787:11793   */\n      dup2\n        /* \"#utility.yul\":11761:11794   */\n      tag_127\n      jump\t// in\n    tag_374:\n        /* \"#utility.yul\":11751:11794   */\n      swap1\n      pop\n        /* \"#utility.yul\":11652:11801   */\n      swap2\n      swap1\n      pop\n      jump\t// out\n        /* \"#utility.yul\":11807:11948   */\n    tag_234:\n        /* \"#utility.yul\":11856:11860   */\n      0x00\n        /* \"#utility.yul\":11879:11882   */\n      dup2\n        /* \"#utility.yul\":11871:11882   */\n      swap1\n      pop\n        /* \"#utility.yul\":11902:11905   */\n      dup2\n        /* \"#utility.yul\":11899:11900   */\n      0x00\n        /* \"#utility.yul\":11892:11906   */\n      mstore\n        /* \"#utility.yul\":11936:11940   */\n      0x20\n        /* \"#utility.yul\":11933:11934   */\n      0x00\n        /* \"#utility.yul\":11923:11941   */\n      keccak256\n        /* \"#utility.yul\":11915:11941   */\n      swap1\n      pop\n        /* \"#utility.yul\":11807:11948   */\n      swap2\n      swap1\n      pop\n      jump\t// out\n        /* \"#utility.yul\":11954:12047   */\n    tag_235:\n        /* \"#utility.yul\":11991:11997   */\n      0x00\n        /* \"#utility.yul\":12038:12040   */\n      0x20\n        /* \"#utility.yul\":12033:12035   */\n      0x1f\n        /* \"#utility.yul\":12026:12031   */\n      dup4\n        /* \"#utility.yul\":12022:12036   */\n      add\n        /* \"#utility.yul\":12018:12041   */\n      div\n        /* \"#utility.yul\":12008:12041   */\n      swap1\n      pop\n        /* \"#utility.yul\":11954:12047   */\n      swap2\n      swap1\n      pop\n      jump\t// out\n        /* \"#utility.yul\":12053:12160   */\n    tag_236:\n        /* \"#utility.yul\":12097:12105   */\n      0x00\n        /* \"#utility.yul\":12147:12152   */\n      dup3\n        /* \"#utility.yul\":12141:12145   */\n      dup3\n        /* \"#utility.yul\":12137:12153   */\n      shl\n        /* \"#utility.yul\":12116:12153   */\n      swap1\n      pop\n        /* \"#utility.yul\":12053:12160   */\n      swap3\n      swap2\n      pop\n      pop\n      jump\t// out\n        /* \"#utility.yul\":12166:12559   */\n    tag_237:\n        /* \"#utility.yul\":12235:12241   */\n      0x00\n        /* \"#utility.yul\":12285:12286   */\n      0x08\n        /* \"#utility.yul\":12273:12283   */\n      dup4\n        /* \"#utility.yul\":12269:12287   */\n      mul\n        /* \"#utility.yul\":12308:12405   */\n      tag_379\n        /* \"#utility.yul\":12338:12404   */\n      0xffffffffffffffffffffffffffffffffffffffffffffffffffffffffffffffff\n        /* \"#utility.yul\":12327:12336   */\n      dup3\n        /* \"#utility.yul\":12308:12405   */\n      tag_236\n      jump\t// in\n    tag_379:\n        /* \"#utility.yul\":12426:12465   */\n      tag_380\n        /* \"#utility.yul\":12456:12464   */\n      dup7\n        /* \"#utility.yul\":12445:12454   */\n      dup4\n        /* \"#utility.yul\":12426:12465   */\n      tag_236\n      jump\t// in\n    tag_380:\n        /* \"#utility.yul\":12414:12465   */\n      swap6\n      pop\n        /* \"#utility.yul\":12498:12502   */\n      dup1\n        /* \"#utility.yul\":12494:12503   */\n      not\n        /* \"#utility.yul\":12487:12492   */\n      dup5\n        /* \"#utility.yul\":12483:12504   */\n      and\n        /* \"#utility.yul\":12474:12504   */\n      swap4\n      pop\n        /* \"#utility.yul\":12547:12551   */\n      dup1\n        /* \"#utility.yul\":12537:12545   */\n      dup7\n        /* \"#utility.yul\":12533:12552   */\n      and\n        /* \"#utility.yul\":12526:12531   */\n      dup5\n        /* \"#utility.yul\":12523:12553   */\n      or\n        /* \"#utility.yul\":12513:12553   */\n      swap3\n      pop\n        /* \"#utility.yul\":12242:12559   */\n      pop\n      pop\n        /* \"#utility.yul\":12166:12559   */\n      swap4\n      swap3\n      pop\n      pop\n      pop\n      jump\t// out\n        /* \"#utility.yul\":12565:12625   */\n    tag_238:\n        /* \"#utility.yul\":12593:12596   */\n      0x00\n        /* \"#utility.yul\":12614:12619   */\n      dup2\n        /* \"#utility.yul\":12607:12619   */\n      swap1\n      pop\n        /* \"#utility.yul\":12565:12625   */\n      swap2\n      swap1\n      pop\n      jump\t// out\n        /* \"#utility.yul\":12631:12773   */\n    tag_239:\n        /* \"#utility.yul\":12681:12690   */\n      0x00\n        /* \"#utility.yul\":12714:12767   */\n      tag_383\n        /* \"#utility.yul\":12732:12766   */\n      tag_384\n        /* \"#utility.yul\":12741:12765   */\n      tag_385\n        /* \"#utility.yul\":12759:12764   */\n      dup5\n        /* \"#utility.yul\":12741:12765   */\n      tag_197\n      jump\t// in\n    tag_385:\n        /* \"#utility.yul\":12732:12766   */\n      tag_238\n      jump\t// in\n    tag_384:\n        /* \"#utility.yul\":12714:12767   */\n      tag_197\n      jump\t// in\n    tag_383:\n        /* \"#utility.yul\":12701:12767   */\n      swap1\n      pop\n        /* \"#utility.yul\":12631:12773   */\n      swap2\n      swap1\n      pop\n      jump\t// out\n        /* \"#utility.yul\":12779:12854   */\n    tag_240:\n        /* \"#utility.yul\":12822:12825   */\n      0x00\n        /* \"#utility.yul\":12843:12848   */\n      dup2\n        /* \"#utility.yul\":12836:12848   */\n      swap1\n      pop\n        /* \"#utility.yul\":12779:12854   */\n      swap2\n      swap1\n      pop\n      jump\t// out\n        /* \"#utility.yul\":12860:13129   */\n    tag_241:\n        /* \"#utility.yul\":12970:13009   */\n      tag_388\n        /* \"#utility.yul\":13001:13008   */\n      dup4\n        /* \"#utility.yul\":12970:13009   */\n      tag_239\n      jump\t// in\n    tag_388:\n        /* \"#utility.yul\":13031:13122   */\n      tag_389\n        /* \"#utility.yul\":13080:13121   */\n      tag_390\n        /* \"#utility.yul\":13104:13120   */\n      dup3\n        /* \"#utility.yul\":13080:13121   */\n      tag_240\n      jump\t// in\n    tag_390:\n        /* \"#utility.yul\":13072:13078   */\n      dup5\n        /* \"#utility.yul\":13065:13069   */\n      dup5\n        /* \"#utility.yul\":13059:13070   */\n      sload\n        /* \"#utility.yul\":13031:13122   */\n      tag_237\n      jump\t// in\n    tag_389:\n        /* \"#utility.yul\":13025:13029   */\n      dup3\n        /* \"#utility.yul\":13018:13123   */\n      sstore\n        /* \"#utility.yul\":12936:13129   */\n      pop\n        /* \"#utility.yul\":12860:13129   */\n      pop\n      pop\n      pop\n      jump\t// out\n        /* \"#utility.yul\":13135:13208   */\n    tag_242:\n        /* \"#utility.yul\":13180:13183   */\n      0x00\n        /* \"#utility.yul\":13135:13208   */\n      swap1\n      jump\t// out\n        /* \"#utility.yul\":13214:13403   */\n    tag_243:\n        /* \"#utility.yul\":13291:13323   */\n      tag_393\n      tag_242\n      jump\t// in\n    tag_393:\n        /* \"#utility.yul\":13332:13397   */\n      tag_394\n        /* \"#utility.yul\":13390:13396   */\n      dup2\n        /* \"#utility.yul\":13382:13388   */\n      dup5\n        /* \"#utility.yul\":13376:13380   */\n      dup5\n        /* \"#utility.yul\":13332:13397   */\n      tag_241\n      jump\t// in\n    tag_394:\n        /* \"#utility.yul\":13267:13403   */\n      pop\n        /* \"#utility.yul\":13214:13403   */\n      pop\n      pop\n      jump\t// out\n        /* \"#utility.yul\":13409:13595   */\n    tag_244:\n        /* \"#utility.yul\":13469:13589   */\n    tag_396:\n        /* \"#utility.yul\":13486:13489   */\n      dup2\n        /* \"#utility.yul\":13479:13484   */\n      dup2\n        /* \"#utility.yul\":13476:13490   */\n      lt\n        /* \"#utility.yul\":13469:13589   */\n      iszero\n      tag_398\n      jumpi\n        /* \"#utility.yul\":13540:13579   */\n      tag_399\n        /* \"#utility.yul\":13577:13578   */\n      0x00\n        /* \"#utility.yul\":13570:13575   */\n      dup3\n        /* \"#utility.yul\":13540:13579   */\n      tag_243\n      jump\t// in\n    tag_399:\n        /* \"#utility.yul\":13513:13514   */\n      0x01\n        /* \"#utility.yul\":13506:13511   */\n      dup2\n        /* \"#utility.yul\":13502:13515   */\n      add\n        /* \"#utility.yul\":13493:13515   */\n      swap1\n      pop\n        /* \"#utility.yul\":13469:13589   */\n      jump(tag_396)\n    tag_398:\n        /* \"#utility.yul\":13409:13595   */\n      pop\n      pop\n      jump\t// out\n        /* \"#utility.yul\":13601:14144   */\n    tag_245:\n        /* \"#utility.yul\":13702:13704   */\n      0x1f\n        /* \"#utility.yul\":13697:13700   */\n      dup3\n        /* \"#utility.yul\":13694:13705   */\n      gt\n        /* \"#utility.yul\":13691:14137   */\n      iszero\n      tag_401\n      jumpi\n        /* \"#utility.yul\":13736:13774   */\n      tag_402\n        /* \"#utility.yul\":13768:13773   */\n      dup2\n        /* \"#utility.yul\":13736:13774   */\n      tag_234\n      jump\t// in\n    tag_402:\n        /* \"#utility.yul\":13820:13849   */\n      tag_403\n        /* \"#utility.yul\":13838:13848   */\n      dup5\n        /* \"#utility.yul\":13820:13849   */\n      tag_235\n      jump\t// in\n    tag_403:\n        /* \"#utility.yul\":13810:13818   */\n      dup2\n        /* \"#utility.yul\":13806:13850   */\n      add\n        /* \"#utility.yul\":14003:14005   */\n      0x20\n        /* \"#utility.yul\":13991:14001   */\n      dup6\n        /* \"#utility.yul\":13988:14006   */\n      lt\n        /* \"#utility.yul\":13985:14034   */\n      iszero\n      tag_404\n      jumpi\n        /* \"#utility.yul\":14024:14032   */\n      dup2\n        /* \"#utility.yul\":14009:14032   */\n      swap1\n      pop\n        /* \"#utility.yul\":13985:14034   */\n    tag_404:\n        /* \"#utility.yul\":14047:14127   */\n      tag_405\n        /* \"#utility.yul\":14103:14125   */\n      tag_406\n        /* \"#utility.yul\":14121:14124   */\n      dup6\n        /* \"#utility.yul\":14103:14125   */\n      tag_235\n      jump\t// in\n    tag_406:\n        /* \"#utility.yul\":14093:14101   */\n      dup4\n        /* \"#utility.yul\":14089:14126   */\n      add\n        /* \"#utility.yul\":14076:14087   */\n      dup3\n        /* \"#utility.yul\":14047:14127   */\n      tag_244\n      jump\t// in\n    tag_405:\n        /* \"#utility.yul\":13706:14137   */\n      pop\n      pop\n        /* \"#utility.yul\":13691:14137   */\n    tag_401:\n        /* \"#utility.yul\":13601:14144   */\n      pop\n      pop\n      pop\n      jump\t// out\n        /* \"#utility.yul\":14150:14267   */\n    tag_246:\n        /* \"#utility.yul\":14204:14212   */\n      0x00\n        /* \"#utility.yul\":14254:14259   */\n      dup3\n        /* \"#utility.yul\":14248:14252   */\n      dup3\n        /* \"#utility.yul\":14244:14260   */\n      shr\n        /* \"#utility.yul\":14223:14260   */\n      swap1\n      pop\n        /* \"#utility.yul\":14150:14267   */\n      swap3\n      swap2\n      pop\n      pop\n      jump\t// out\n        /* \"#utility.yul\":14273:14442   */\n    tag_247:\n        /* \"#utility.yul\":14317:14323   */\n      0x00\n        /* \"#utility.yul\":14350:14401   */\n      tag_409\n        /* \"#utility.yul\":14398:14399   */\n      0x00\n        /* \"#utility.yul\":14394:14400   */\n      not\n        /* \"#utility.yul\":14386:14391   */\n      dup5\n        /* \"#utility.yul\":14383:14384   */\n      0x08\n        /* \"#utility.yul\":14379:14392   */\n      mul\n        /* \"#utility.yul\":14350:14401   */\n      tag_246\n      jump\t// in\n    tag_409:\n        /* \"#utility.yul\":14346:14402   */\n      not\n        /* \"#utility.yul\":14431:14435   */\n      dup1\n        /* \"#utility.yul\":14425:14429   */\n      dup4\n        /* \"#utility.yul\":14421:14436   */\n      and\n        /* \"#utility.yul\":14411:14436   */\n      swap2\n      pop\n        /* \"#utility.yul\":14324:14442   */\n      pop\n        /* \"#utility.yul\":14273:14442   */\n      swap3\n      swap2\n      pop\n      pop\n      jump\t// out\n        /* \"#utility.yul\":14447:14742   */\n    tag_248:\n        /* \"#utility.yul\":14523:14527   */\n      0x00\n        /* \"#utility.yul\":14669:14698   */\n      tag_411\n        /* \"#utility.yul\":14694:14697   */\n      dup4\n        /* \"#utility.yul\":14688:14692   */\n      dup4\n        /* \"#utility.yul\":14669:14698   */\n      tag_247\n      jump\t// in\n    tag_411:\n        /* \"#utility.yul\":14661:14698   */\n      swap2\n      pop\n        /* \"#utility.yul\":14731:14734   */\n      dup3\n        /* \"#utility.yul\":14728:14729   */\n      0x02\n        /* \"#utility.yul\":14724:14735   */\n      mul\n        /* \"#utility.yul\":14718:14722   */\n      dup3\n        /* \"#utility.yul\":14715:14736   */\n      or\n        /* \"#utility.yul\":14707:14736   */\n      swap1\n      pop\n        /* \"#utility.yul\":14447:14742   */\n      swap3\n      swap2\n      pop\n      pop\n      jump\t// out\n        /* \"#utility.yul\":14747:16198   */\n    tag_106:\n        /* \"#utility.yul\":14858:14861   */\n      dup2\n        /* \"#utility.yul\":14852:14856   */\n      dup2\n        /* \"#utility.yul\":14849:14862   */\n      sub\n        /* \"#utility.yul\":14846:14872   */\n      tag_413\n      jumpi\n        /* \"#utility.yul\":14865:14870   */\n      pop\n      pop\n      jump(tag_412)\n        /* \"#utility.yul\":14846:14872   */\n    tag_413:\n        /* \"#utility.yul\":14896:14930   */\n      tag_414\n        /* \"#utility.yul\":14926:14929   */\n      dup3\n        /* \"#utility.yul\":14896:14930   */\n      tag_233\n      jump\t// in\n    tag_414:\n        /* \"#utility.yul\":14995:15013   */\n      0xffffffffffffffff\n        /* \"#utility.yul\":14987:14993   */\n      dup2\n        /* \"#utility.yul\":14984:15014   */\n      gt\n        /* \"#utility.yul\":14981:15037   */\n      iszero\n      tag_415\n      jumpi\n        /* \"#utility.yul\":15017:15035   */\n      tag_416\n      tag_218\n      jump\t// in\n    tag_416:\n        /* \"#utility.yul\":14981:15037   */\n    tag_415:\n        /* \"#utility.yul\":15061:15099   */\n      tag_417\n        /* \"#utility.yul\":15093:15097   */\n      dup3\n        /* \"#utility.yul\":15087:15098   */\n      sload\n        /* \"#utility.yul\":15061:15099   */\n      tag_127\n      jump\t// in\n    tag_417:\n        /* \"#utility.yul\":15146:15213   */\n      tag_418\n        /* \"#utility.yul\":15206:15212   */\n      dup3\n        /* \"#utility.yul\":15198:15204   */\n      dup3\n        /* \"#utility.yul\":15192:15196   */\n      dup6\n        /* \"#utility.yul\":15146:15213   */\n      tag_245\n      jump\t// in\n    tag_418:\n        /* \"#utility.yul\":15240:15241   */\n      0x00\n        /* \"#utility.yul\":15269:15271   */\n      0x1f\n        /* \"#utility.yul\":15261:15267   */\n      dup4\n        /* \"#utility.yul\":15258:15272   */\n      gt\n        /* \"#utility.yul\":15286:15287   */\n      0x01\n        /* \"#utility.yul\":15281:15953   */\n      dup2\n      eq\n      tag_420\n      jumpi\n        /* \"#utility.yul\":15997:15998   */\n      0x00\n        /* \"#utility.yul\":16014:16020   */\n      dup5\n        /* \"#utility.yul\":16011:16088   */\n      iszero\n      tag_421\n      jumpi\n        /* \"#utility.yul\":16063:16072   */\n      dup3\n        /* \"#utility.yul\":16058:16061   */\n      dup8\n        /* \"#utility.yul\":16054:16073   */\n      add\n        /* \"#utility.yul\":16048:16074   */\n      sload\n        /* \"#utility.yul\":16039:16074   */\n      swap1\n      pop\n        /* \"#utility.yul\":16011:16088   */\n    tag_421:\n        /* \"#utility.yul\":16114:16181   */\n      tag_422\n        /* \"#utility.yul\":16174:16180   */\n      dup6\n        /* \"#utility.yul\":16167:16172   */\n      dup3\n        /* \"#utility.yul\":16114:16181   */\n      tag_248\n      jump\t// in\n    tag_422:\n        /* \"#utility.yul\":16108:16112   */\n      dup7\n        /* \"#utility.yul\":16101:16182   */\n      sstore\n        /* \"#utility.yul\":15970:16192   */\n      pop\n        /* \"#utility.yul\":15251:16192   */\n      jump(tag_419)\n        /* \"#utility.yul\":15281:15953   */\n    tag_420:\n        /* \"#utility.yul\":15333:15337   */\n      0x1f\n        /* \"#utility.yul\":15329:15338   */\n      not\n        /* \"#utility.yul\":15321:15327   */\n      dup5\n        /* \"#utility.yul\":15317:15339   */\n      and\n        /* \"#utility.yul\":15359:15395   */\n      tag_423\n        /* \"#utility.yul\":15391:15394   */\n      dup8\n        /* \"#utility.yul\":15359:15395   */\n      tag_234\n      jump\t// in\n    tag_423:\n        /* \"#utility.yul\":15352:15395   */\n      swap7\n      pop\n        /* \"#utility.yul\":15422:15459   */\n      tag_424\n        /* \"#utility.yul\":15454:15458   */\n      dup7\n        /* \"#utility.yul\":15422:15459   */\n      tag_234\n      jump\t// in\n    tag_424:\n        /* \"#utility.yul\":15481:15482   */\n      0x00\n        /* \"#utility.yul\":15495:15702   */\n    tag_425:\n        /* \"#utility.yul\":15509:15516   */\n      dup3\n        /* \"#utility.yul\":15506:15507   */\n      dup2\n        /* \"#utility.yul\":15503:15517   */\n      lt\n        /* \"#utility.yul\":15495:15702   */\n      iszero\n      tag_427\n      jumpi\n        /* \"#utility.yul\":15588:15597   */\n      dup5\n        /* \"#utility.yul\":15583:15586   */\n      dup10\n        /* \"#utility.yul\":15579:15598   */\n      add\n        /* \"#utility.yul\":15573:15599   */\n      sload\n        /* \"#utility.yul\":15565:15571   */\n      dup3\n        /* \"#utility.yul\":15558:15600   */\n      sstore\n        /* \"#utility.yul\":15639:15640   */\n      0x01\n        /* \"#utility.yul\":15631:15637   */\n      dup3\n        /* \"#utility.yul\":15627:15641   */\n      add\n        /* \"#utility.yul\":15617:15641   */\n      swap2\n      pop\n        /* \"#utility.yul\":15686:15687   */\n      0x01\n        /* \"#utility.yul\":15675:15684   */\n      dup6\n        /* \"#utility.yul\":15671:15688   */\n      add\n        /* \"#utility.yul\":15658:15688   */\n      swap5\n      pop\n        /* \"#utility.yul\":15532:15536   */\n      0x20\n        /* \"#utility.yul\":15529:15530   */\n      dup2\n        /* \"#utility.yul\":15525:15537   */\n      add\n        /* \"#utility.yul\":15520:15537   */\n      swap1\n      pop\n        /* \"#utility.yul\":15495:15702   */\n      jump(tag_425)\n    tag_427:\n        /* \"#utility.yul\":15730:15736   */\n      dup7\n        /* \"#utility.yul\":15721:15728   */\n      dup4\n        /* \"#utility.yul\":15718:15737   */\n      lt\n        /* \"#utility.yul\":15715:15894   */\n      iszero\n      tag_428\n      jumpi\n        /* \"#utility.yul\":15788:15797   */\n      dup5\n        /* \"#utility.yul\":15783:15786   */\n      dup10\n        /* \"#utility.yul\":15779:15798   */\n      add\n        /* \"#utility.yul\":15773:15799   */\n      sload\n        /* \"#utility.yul\":15831:15879   */\n      tag_429\n        /* \"#utility.yul\":15873:15877   */\n      0x1f\n        /* \"#utility.yul\":15865:15871   */\n      dup10\n        /* \"#utility.yul\":15861:15878   */\n      and\n        /* \"#utility.yul\":15850:15859   */\n      dup3\n        /* \"#utility.yul\":15831:15879   */\n      tag_247\n      jump\t// in\n    tag_429:\n        /* \"#utility.yul\":15823:15829   */\n      dup4\n        /* \"#utility.yul\":15816:15880   */\n      sstore\n        /* \"#utility.yul\":15738:15894   */\n      pop\n        /* \"#utility.yul\":15715:15894   */\n    tag_428:\n        /* \"#utility.yul\":15940:15941   */\n      0x01\n        /* \"#utility.yul\":15936:15937   */\n      0x02\n        /* \"#utility.yul\":15928:15934   */\n      dup9\n        /* \"#utility.yul\":15924:15938   */\n      mul\n        /* \"#utility.yul\":15920:15942   */\n      add\n        /* \"#utility.yul\":15914:15918   */\n      dup9\n        /* \"#utility.yul\":15907:15943   */\n      sstore\n        /* \"#utility.yul\":15288:15953   */\n      pop\n      pop\n      pop\n        /* \"#utility.yul\":15251:16192   */\n    tag_419:\n      pop\n        /* \"#utility.yul\":14836:16198   */\n      pop\n      pop\n      pop\n        /* \"#utility.yul\":14747:16198   */\n      pop\n      pop\n    tag_412:\n      jump\t// out\n        /* \"#utility.yul\":16204:16395   */\n    tag_147:\n        /* \"#utility.yul\":16244:16247   */\n      0x00\n        /* \"#utility.yul\":16263:16283   */\n      tag_431\n        /* \"#utility.yul\":16281:16282   */\n      dup3\n        /* \"#utility.yul\":16263:16283   */\n      tag_197\n      jump\t// in\n    tag_431:\n        /* \"#utility.yul\":16258:16283   */\n      swap2\n      pop\n        /* \"#utility.yul\":16297:16317   */\n      tag_432\n        /* \"#utility.yul\":16315:16316   */\n      dup4\n        /* \"#utility.yul\":16297:16317   */\n      tag_197\n      jump\t// in\n    tag_432:\n        /* \"#utility.yul\":16292:16317   */\n      swap3\n      pop\n        /* \"#utility.yul\":16340:16341   */\n      dup3\n        /* \"#utility.yul\":16337:16338   */\n      dup3\n        /* \"#utility.yul\":16333:16342   */\n      add\n        /* \"#utility.yul\":16326:16342   */\n      swap1\n      pop\n        /* \"#utility.yul\":16361:16364   */\n      dup1\n        /* \"#utility.yul\":16358:16359   */\n      dup3\n        /* \"#utility.yul\":16355:16365   */\n      gt\n        /* \"#utility.yul\":16352:16388   */\n      iszero\n      tag_433\n      jumpi\n        /* \"#utility.yul\":16368:16386   */\n      tag_434\n      tag_228\n      jump\t// in\n    tag_434:\n        /* \"#utility.yul\":16352:16388   */\n    tag_433:\n        /* \"#utility.yul\":16204:16395   */\n      swap3\n      swap2\n      pop\n      pop\n      jump\t// out\n        /* \"#utility.yul\":16401:17796   */\n    tag_180:\n        /* \"#utility.yul\":16518:16555   */\n      tag_436\n        /* \"#utility.yul\":16551:16554   */\n      dup3\n        /* \"#utility.yul\":16518:16555   */\n      tag_209\n      jump\t// in\n    tag_436:\n        /* \"#utility.yul\":16620:16638   */\n      0xffffffffffffffff\n        /* \"#utility.yul\":16612:16618   */\n      dup2\n        /* \"#utility.yul\":16609:16639   */\n      gt\n        /* \"#utility.yul\":16606:16662   */\n      iszero\n      tag_437\n      jumpi\n        /* \"#utility.yul\":16642:16660   */\n      tag_438\n      tag_218\n      jump\t// in\n    tag_438:\n        /* \"#utility.yul\":16606:16662   */\n    tag_437:\n        /* \"#utility.yul\":16686:16724   */\n      tag_439\n        /* \"#utility.yul\":16718:16722   */\n      dup3\n        /* \"#utility.yul\":16712:16723   */\n      sload\n        /* \"#utility.yul\":16686:16724   */\n      tag_127\n      jump\t// in\n    tag_439:\n        /* \"#utility.yul\":16771:16838   */\n      tag_440\n        /* \"#utility.yul\":16831:16837   */\n      dup3\n        /* \"#utility.yul\":16823:16829   */\n      dup3\n        /* \"#utility.yul\":16817:16821   */\n      dup6\n        /* \"#utility.yul\":16771:16838   */\n      tag_245\n      jump\t// in\n    tag_440:\n        /* \"#utility.yul\":16865:16866   */\n      0x00\n        /* \"#utility.yul\":16889:16893   */\n      0x20\n        /* \"#utility.yul\":16876:16893   */\n      swap1\n      pop\n        /* \"#utility.yul\":16921:16923   */\n      0x1f\n        /* \"#utility.yul\":16913:16919   */\n      dup4\n        /* \"#utility.yul\":16910:16924   */\n      gt\n        /* \"#utility.yul\":16938:16939   */\n      0x01\n        /* \"#utility.yul\":16933:17551   */\n      dup2\n      eq\n      tag_442\n      jumpi\n        /* \"#utility.yul\":17595:17596   */\n      0x00\n        /* \"#utility.yul\":17612:17618   */\n      dup5\n        /* \"#utility.yul\":17609:17686   */\n      iszero\n      tag_443\n      jumpi\n        /* \"#utility.yul\":17661:17670   */\n      dup3\n        /* \"#utility.yul\":17656:17659   */\n      dup8\n        /* \"#utility.yul\":17652:17671   */\n      add\n        /* \"#utility.yul\":17646:17672   */\n      mload\n        /* \"#utility.yul\":17637:17672   */\n      swap1\n      pop\n        /* \"#utility.yul\":17609:17686   */\n    tag_443:\n        /* \"#utility.yul\":17712:17779   */\n      tag_444\n        /* \"#utility.yul\":17772:17778   */\n      dup6\n        /* \"#utility.yul\":17765:17770   */\n      dup3\n        /* \"#utility.yul\":17712:17779   */\n      tag_248\n      jump\t// in\n    tag_444:\n        /* \"#utility.yul\":17706:17710   */\n      dup7\n        /* \"#utility.yul\":17699:17780   */\n      sstore\n        /* \"#utility.yul\":17568:17790   */\n      pop\n        /* \"#utility.yul\":16903:17790   */\n      jump(tag_441)\n        /* \"#utility.yul\":16933:17551   */\n    tag_442:\n        /* \"#utility.yul\":16985:16989   */\n      0x1f\n        /* \"#utility.yul\":16981:16990   */\n      not\n        /* \"#utility.yul\":16973:16979   */\n      dup5\n        /* \"#utility.yul\":16969:16991   */\n      and\n        /* \"#utility.yul\":17019:17056   */\n      tag_445\n        /* \"#utility.yul\":17051:17055   */\n      dup7\n        /* \"#utility.yul\":17019:17056   */\n      tag_234\n      jump\t// in\n    tag_445:\n        /* \"#utility.yul\":17078:17079   */\n      0x00\n        /* \"#utility.yul\":17092:17300   */\n    tag_446:\n        /* \"#utility.yul\":17106:17113   */\n      dup3\n        /* \"#utility.yul\":17103:17104   */\n      dup2\n        /* \"#utility.yul\":17100:17114   */\n      lt\n        /* \"#utility.yul\":17092:17300   */\n      iszero\n      tag_448\n      jumpi\n        /* \"#utility.yul\":17185:17194   */\n      dup5\n        /* \"#utility.yul\":17180:17183   */\n      dup10\n        /* \"#utility.yul\":17176:17195   */\n      add\n        /* \"#utility.yul\":17170:17196   */\n      mload\n        /* \"#utility.yul\":17162:17168   */\n      dup3\n        /* \"#utility.yul\":17155:17197   */\n      sstore\n        /* \"#utility.yul\":17236:17237   */\n      0x01\n        /* \"#utility.yul\":17228:17234   */\n      dup3\n        /* \"#utility.yul\":17224:17238   */\n      add\n        /* \"#utility.yul\":17214:17238   */\n      swap2\n      pop\n        /* \"#utility.yul\":17283:17285   */\n      0x20\n        /* \"#utility.yul\":17272:17281   */\n      dup6\n        /* \"#utility.yul\":17268:17286   */\n      add\n        /* \"#utility.yul\":17255:17286   */\n      swap5\n      pop\n        /* \"#utility.yul\":17129:17133   */\n      0x20\n        /* \"#utility.yul\":17126:17127   */\n      dup2\n        /* \"#utility.yul\":17122:17134   */\n      add\n        /* \"#utility.yul\":17117:17134   */\n      swap1\n      pop\n        /* \"#utility.yul\":17092:17300   */\n      jump(tag_446)\n    tag_448:\n        /* \"#utility.yul\":17328:17334   */\n      dup7\n        /* \"#utility.yul\":17319:17326   */\n      dup4\n        /* \"#utility.yul\":17316:17335   */\n      lt\n        /* \"#utility.yul\":17313:17492   */\n      iszero\n      tag_449\n      jumpi\n        /* \"#utility.yul\":17386:17395   */\n      dup5\n        /* \"#utility.yul\":17381:17384   */\n      dup10\n        /* \"#utility.yul\":17377:17396   */\n      add\n        /* \"#utility.yul\":17371:17397   */\n      mload\n        /* \"#utility.yul\":17429:17477   */\n      tag_450\n        /* \"#utility.yul\":17471:17475   */\n      0x1f\n        /* \"#utility.yul\":17463:17469   */\n      dup10\n        /* \"#utility.yul\":17459:17476   */\n      and\n        /* \"#utility.yul\":17448:17457   */\n      dup3\n        /* \"#utility.yul\":17429:17477   */\n      tag_247\n      jump\t// in\n    tag_450:\n        /* \"#utility.yul\":17421:17427   */\n      dup4\n        /* \"#utility.yul\":17414:17478   */\n      sstore\n        /* \"#utility.yul\":17336:17492   */\n      pop\n        /* \"#utility.yul\":17313:17492   */\n    tag_449:\n        /* \"#utility.yul\":17538:17539   */\n      0x01\n        /* \"#utility.yul\":17534:17535   */\n      0x02\n        /* \"#utility.yul\":17526:17532   */\n      dup9\n        /* \"#utility.yul\":17522:17536   */\n      mul\n        /* \"#utility.yul\":17518:17540   */\n      add\n        /* \"#utility.yul\":17512:17516   */\n      dup9\n        /* \"#utility.yul\":17505:17541   */\n      sstore\n        /* \"#utility.yul\":16940:17551   */\n      pop\n      pop\n      pop\n        /* \"#utility.yul\":16903:17790   */\n    tag_441:\n      pop\n        /* \"#utility.yul\":16493:17796   */\n      pop\n      pop\n      pop\n        /* \"#utility.yul\":16401:17796   */\n      pop\n      pop\n      jump\t// out\n        /* \"#utility.yul\":17802:18035   */\n    tag_182:\n        /* \"#utility.yul\":17841:17844   */\n      0x00\n        /* \"#utility.yul\":17864:17888   */\n      tag_452\n        /* \"#utility.yul\":17882:17887   */\n      dup3\n        /* \"#utility.yul\":17864:17888   */\n      tag_197\n      jump\t// in\n    tag_452:\n        /* \"#utility.yul\":17855:17888   */\n      swap2\n      pop\n        /* \"#utility.yul\":17910:17976   */\n      0xffffffffffffffffffffffffffffffffffffffffffffffffffffffffffffffff\n        /* \"#utility.yul\":17903:17908   */\n      dup3\n        /* \"#utility.yul\":17900:17977   */\n      sub\n        /* \"#utility.yul\":17897:18000   */\n      tag_453\n      jumpi\n        /* \"#utility.yul\":17980:17998   */\n      tag_454\n      tag_228\n      jump\t// in\n    tag_454:\n        /* \"#utility.yul\":17897:18000   */\n    tag_453:\n        /* \"#utility.yul\":18027:18028   */\n      0x01\n        /* \"#utility.yul\":18020:18025   */\n      dup3\n        /* \"#utility.yul\":18016:18029   */\n      add\n        /* \"#utility.yul\":18009:18029   */\n      swap1\n      pop\n        /* \"#utility.yul\":17802:18035   */\n      swap2\n      swap1\n      pop\n      jump\t// out\n\n    auxdata: 0xa2646970667358221220baa6d9cb516cb45ab1aa80f4a2baae04433e04f78b7bd45f7c02eb141300228064736f6c63430008190033\n}\n",
				"bytecode": {
					"linkReferences": {},
					"object": "608060405260016016553480156013575f80fd5b50335f806101000a81548173ffffffffffffffffffffffffffffffffffffffff021916908373ffffffffffffffffffffffffffffffffffffffff160217905550611e3a806100605f395ff3fe6080604052600436106100c1575f3560e01c8063657a25121161007e578063b688a36311610058578063b688a363146101dd578063be1c766b146101e7578063c95f728a14610211578063d0e30db014610239576100c1565b8063657a251214610175578063991671e2146101b1578063afd82067146101c7576100c1565b806305039910146100c557806307973ccf146100db57806314174f331461010557806318d075c31461012d57806322552a5514610143578063365889751461014d575b5f80fd5b3480156100d0575f80fd5b506100d9610243565b005b3480156100e6575f80fd5b506100ef61036c565b6040516100fc91906113f4565b60405180910390f35b348015610110575f80fd5b5061012b60048036038101906101269190611448565b610372565b005b348015610138575f80fd5b506101416104b1565b005b61014b610670565b005b348015610158575f80fd5b50610173600480360381019061016e9190611448565b610980565b005b348015610180575f80fd5b5061019b600480360381019061019691906114cd565b610a85565b6040516101a891906115f9565b60405180910390f35b3480156101bc575f80fd5b506101c5610bde565b005b3480156101d2575f80fd5b506101db610cd0565b005b6101e5610d28565b005b3480156101f2575f80fd5b506101fb610f81565b60405161020891906113f4565b60405180910390f35b34801561021c575f80fd5b5061023760048036038101906102329190611745565b610fd0565b005b6102416111b2565b005b600a60155f3373ffffffffffffffffffffffffffffffffffffffff1673ffffffffffffffffffffffffffffffffffffffff1681526020019081526020015f206004015410156102c7576040517f08c379a00000000000000000000000000000000000000000000000000000000081526004016102be906117e6565b60405180910390fd5b600a60155f3373ffffffffffffffffffffffffffffffffffffffff1673ffffffffffffffffffffffffffffffffffffffff1681526020019081526020015f206004015f8282546103179190611831565b925050819055503373ffffffffffffffffffffffffffffffffffffffff166108fc67016345785d8a000090811502906040515f60405180830381858888f19350505050158015610369573d5f803e3d5ffd5b50565b60165481565b8060155f3373ffffffffffffffffffffffffffffffffffffffff1673ffffffffffffffffffffffffffffffffffffffff1681526020019081526020015f206004015410156103f5576040517f08c379a00000000000000000000000000000000000000000000000000000000081526004016103ec906117e6565b60405180910390fd5b8060155f3373ffffffffffffffffffffffffffffffffffffffff1673ffffffffffffffffffffffffffffffffffffffff1681526020019081526020015f206004015f8282546104449190611831565b925050819055503373ffffffffffffffffffffffffffffffffffffffff166108fc67016345785d8a0000600a8461047b9190611891565b61048591906118c1565b90811502906040515f60405180830381858888f193505050501580156104ad573d5f803e3d5ffd5b5050565b600a60155f3373ffffffffffffffffffffffffffffffffffffffff1673ffffffffffffffffffffffffffffffffffffffff1681526020019081526020015f20600401541015610535576040517f08c379a000000000000000000000000000000000000000000000000000000000815260040161052c906117e6565b60405180910390fd5b5f600a60155f3373ffffffffffffffffffffffffffffffffffffffff1673ffffffffffffffffffffffffffffffffffffffff1681526020019081526020015f20600401546105839190611891565b9050600a60155f3373ffffffffffffffffffffffffffffffffffffffff1673ffffffffffffffffffffffffffffffffffffffff1681526020019081526020015f20600401546105d29190611902565b60155f3373ffffffffffffffffffffffffffffffffffffffff1673ffffffffffffffffffffffffffffffffffffffff1681526020019081526020015f20600401819055503373ffffffffffffffffffffffffffffffffffffffff166108fc67016345785d8a00008361064491906118c1565b90811502906040515f60405180830381858888f1935050505015801561066c573d5f803e3d5ffd5b5050565b662386f26fc100003414806106cc5750662386f26fc1000060155f3373ffffffffffffffffffffffffffffffffffffffff1673ffffffffffffffffffffffffffffffffffffffff1681526020019081526020015f206003015410155b61070b576040517f08c379a00000000000000000000000000000000000000000000000000000000081526004016107029061197c565b60405180910390fd5b5f340361077057662386f26fc1000060155f3373ffffffffffffffffffffffffffffffffffffffff1673ffffffffffffffffffffffffffffffffffffffff1681526020019081526020015f206003015f8282546107689190611831565b925050819055505b600361077a610f81565b036108885760155f3373ffffffffffffffffffffffffffffffffffffffff1673ffffffffffffffffffffffffffffffffffffffff1681526020019081526020015f2060016003600481106107d1576107d061199a565b5b600502015f820154815f0155600182018160010190816107f19190611bd6565b50600282015f9054906101000a900473ffffffffffffffffffffffffffffffffffffffff16816002015f6101000a81548173ffffffffffffffffffffffffffffffffffffffff021916908373ffffffffffffffffffffffffffffffffffffffff1602179055506003820154816003015560048201548160040155905050610876610cd0565b60015f610883919061120a565b61097e565b60155f3373ffffffffffffffffffffffffffffffffffffffff1673ffffffffffffffffffffffffffffffffffffffff1681526020019081526020015f2060016108cf610f81565b600481106108e0576108df61199a565b5b600502015f820154815f0155600182018160010190816109009190611bd6565b50600282015f9054906101000a900473ffffffffffffffffffffffffffffffffffffffff16816002015f6101000a81548173ffffffffffffffffffffffffffffffffffffffff021916908373ffffffffffffffffffffffffffffffffffffffff16021790555060038201548160030155600482015481600401559050505b565b5f8054906101000a900473ffffffffffffffffffffffffffffffffffffffff1673ffffffffffffffffffffffffffffffffffffffff163373ffffffffffffffffffffffffffffffffffffffff1614610a0d576040517f08c379a0000000000000000000000000000000000000000000000000000000008152600401610a04906117e6565b60405180910390fd5b5f8054906101000a900473ffffffffffffffffffffffffffffffffffffffff1673ffffffffffffffffffffffffffffffffffffffff166108fc662386f26fc1000083610a5991906118c1565b90811502906040515f60405180830381858888f19350505050158015610a81573d5f803e3d5ffd5b5050565b610a8d611343565b60155f8373ffffffffffffffffffffffffffffffffffffffff1673ffffffffffffffffffffffffffffffffffffffff1681526020019081526020015f206040518060a00160405290815f8201548152602001600182018054610aee906119f4565b80601f0160208091040260200160405190810160405280929190818152602001828054610b1a906119f4565b8015610b655780601f10610b3c57610100808354040283529160200191610b65565b820191905f5260205f20905b815481529060010190602001808311610b4857829003601f168201915b50505050508152602001600282015f9054906101000a900473ffffffffffffffffffffffffffffffffffffffff1673ffffffffffffffffffffffffffffffffffffffff1673ffffffffffffffffffffffffffffffffffffffff168152602001600382015481526020016004820154815250509050919050565b5f8054906101000a900473ffffffffffffffffffffffffffffffffffffffff1673ffffffffffffffffffffffffffffffffffffffff163373ffffffffffffffffffffffffffffffffffffffff1614610c6b576040517f08c379a0000000000000000000000000000000000000000000000000000000008152600401610c62906117e6565b60405180910390fd5b5f8054906101000a900473ffffffffffffffffffffffffffffffffffffffff1673ffffffffffffffffffffffffffffffffffffffff166108fc4790811502906040515f60405180830381858888f19350505050158015610ccd573d5f803e3d5ffd5b50565b5f5b6004811015610d2557806004610ce89190611831565b60018260048110610cfc57610cfb61199a565b5b600502016004015f828254610d119190611cbb565b925050819055508080600101915050610cd2565b50565b662386f26fc100003414610d71576040517f08c379a0000000000000000000000000000000000000000000000000000000008152600401610d689061197c565b60405180910390fd5b6003610d7b610f81565b03610e895760155f3373ffffffffffffffffffffffffffffffffffffffff1673ffffffffffffffffffffffffffffffffffffffff1681526020019081526020015f206001600360048110610dd257610dd161199a565b5b600502015f820154815f015560018201816001019081610df29190611bd6565b50600282015f9054906101000a900473ffffffffffffffffffffffffffffffffffffffff16816002015f6101000a81548173ffffffffffffffffffffffffffffffffffffffff021916908373ffffffffffffffffffffffffffffffffffffffff1602179055506003820154816003015560048201548160040155905050610e77610cd0565b60015f610e84919061120a565b610f7f565b60155f3373ffffffffffffffffffffffffffffffffffffffff1673ffffffffffffffffffffffffffffffffffffffff1681526020019081526020015f206001610ed0610f81565b60048110610ee157610ee061199a565b5b600502015f820154815f015560018201816001019081610f019190611bd6565b50600282015f9054906101000a900473ffffffffffffffffffffffffffffffffffffffff16816002015f6101000a81548173ffffffffffffffffffffffffffffffffffffffff021916908373ffffffffffffffffffffffffffffffffffffffff16021790555060038201548160030155600482015481600401559050505b565b5f805f90505b6004811015610fc7575f60018260048110610fa557610fa461199a565b5b600502015f015403610fba5780915050610fcd565b8080600101915050610f87565b50600490505b90565b5f60155f3373ffffffffffffffffffffffffffffffffffffffff1673ffffffffffffffffffffffffffffffffffffffff1681526020019081526020015f20600101805461101c906119f4565b90501461105e576040517f08c379a0000000000000000000000000000000000000000000000000000000008152600401611055906117e6565b60405180910390fd5b5f8151146110a1576040517f08c379a0000000000000000000000000000000000000000000000000000000008152600401611098906117e6565b60405180910390fd5b6040518060a0016040528060165481526020018281526020013373ffffffffffffffffffffffffffffffffffffffff1681526020015f81526020015f81525060155f3373ffffffffffffffffffffffffffffffffffffffff1673ffffffffffffffffffffffffffffffffffffffff1681526020019081526020015f205f820151815f0155602082015181600101908161113a9190611cee565b506040820151816002015f6101000a81548173ffffffffffffffffffffffffffffffffffffffff021916908373ffffffffffffffffffffffffffffffffffffffff160217905550606082015181600301556080820151816004015590505060165f8154809291906111aa90611dbd565b919050555050565b3460155f3373ffffffffffffffffffffffffffffffffffffffff1673ffffffffffffffffffffffffffffffffffffffff1681526020019081526020015f206003015f8282546112019190611cbb565b92505081905550565b505f8082015f9055600182015f6112219190611384565b600282015f6101000a81549073ffffffffffffffffffffffffffffffffffffffff0219169055600382015f9055600482015f9055506005015f8082015f9055600182015f61126f9190611384565b600282015f6101000a81549073ffffffffffffffffffffffffffffffffffffffff0219169055600382015f9055600482015f9055506005015f8082015f9055600182015f6112bd9190611384565b600282015f6101000a81549073ffffffffffffffffffffffffffffffffffffffff0219169055600382015f9055600482015f9055506005015f8082015f9055600182015f61130b9190611384565b600282015f6101000a81549073ffffffffffffffffffffffffffffffffffffffff0219169055600382015f9055600482015f90555050565b6040518060a001604052805f8152602001606081526020015f73ffffffffffffffffffffffffffffffffffffffff1681526020015f81526020015f81525090565b508054611390906119f4565b5f825580601f106113a157506113be565b601f0160209004905f5260205f20908101906113bd91906113c1565b5b50565b5b808211156113d8575f815f9055506001016113c2565b5090565b5f819050919050565b6113ee816113dc565b82525050565b5f6020820190506114075f8301846113e5565b92915050565b5f604051905090565b5f80fd5b5f80fd5b611427816113dc565b8114611431575f80fd5b50565b5f813590506114428161141e565b92915050565b5f6020828403121561145d5761145c611416565b5b5f61146a84828501611434565b91505092915050565b5f73ffffffffffffffffffffffffffffffffffffffff82169050919050565b5f61149c82611473565b9050919050565b6114ac81611492565b81146114b6575f80fd5b50565b5f813590506114c7816114a3565b92915050565b5f602082840312156114e2576114e1611416565b5b5f6114ef848285016114b9565b91505092915050565b611501816113dc565b82525050565b5f81519050919050565b5f82825260208201905092915050565b8281835e5f83830152505050565b5f601f19601f8301169050919050565b5f61154982611507565b6115538185611511565b9350611563818560208601611521565b61156c8161152f565b840191505092915050565b61158081611492565b82525050565b5f60a083015f83015161159b5f8601826114f8565b50602083015184820360208601526115b3828261153f565b91505060408301516115c86040860182611577565b5060608301516115db60608601826114f8565b5060808301516115ee60808601826114f8565b508091505092915050565b5f6020820190508181035f8301526116118184611586565b905092915050565b5f80fd5b5f80fd5b7f4e487b71000000000000000000000000000000000000000000000000000000005f52604160045260245ffd5b6116578261152f565b810181811067ffffffffffffffff8211171561167657611675611621565b5b80604052505050565b5f61168861140d565b9050611694828261164e565b919050565b5f67ffffffffffffffff8211156116b3576116b2611621565b5b6116bc8261152f565b9050602081019050919050565b828183375f83830152505050565b5f6116e96116e484611699565b61167f565b9050828152602081018484840111156117055761170461161d565b5b6117108482856116c9565b509392505050565b5f82601f83011261172c5761172b611619565b5b813561173c8482602086016116d7565b91505092915050565b5f6020828403121561175a57611759611416565b5b5f82013567ffffffffffffffff8111156117775761177661141a565b5b61178384828501611718565b91505092915050565b5f82825260208201905092915050565b7f6e6f7065000000000000000000000000000000000000000000000000000000005f82015250565b5f6117d060048361178c565b91506117db8261179c565b602082019050919050565b5f6020820190508181035f8301526117fd816117c4565b9050919050565b7f4e487b71000000000000000000000000000000000000000000000000000000005f52601160045260245ffd5b5f61183b826113dc565b9150611846836113dc565b925082820390508181111561185e5761185d611804565b5b92915050565b7f4e487b71000000000000000000000000000000000000000000000000000000005f52601260045260245ffd5b5f61189b826113dc565b91506118a6836113dc565b9250826118b6576118b5611864565b5b828204905092915050565b5f6118cb826113dc565b91506118d6836113dc565b92508282026118e4816113dc565b915082820484148315176118fb576118fa611804565b5b5092915050565b5f61190c826113dc565b9150611917836113dc565b92508261192757611926611864565b5b828206905092915050565b7f4e4f5045000000000000000000000000000000000000000000000000000000005f82015250565b5f61196660048361178c565b915061197182611932565b602082019050919050565b5f6020820190508181035f8301526119938161195a565b9050919050565b7f4e487b71000000000000000000000000000000000000000000000000000000005f52603260045260245ffd5b7f4e487b71000000000000000000000000000000000000000000000000000000005f52602260045260245ffd5b5f6002820490506001821680611a0b57607f821691505b602082108103611a1e57611a1d6119c7565b5b50919050565b5f81549050611a32816119f4565b9050919050565b5f819050815f5260205f209050919050565b5f6020601f8301049050919050565b5f82821b905092915050565b5f60088302611a957fffffffffffffffffffffffffffffffffffffffffffffffffffffffffffffffff82611a5a565b611a9f8683611a5a565b95508019841693508086168417925050509392505050565b5f819050919050565b5f611ada611ad5611ad0846113dc565b611ab7565b6113dc565b9050919050565b5f819050919050565b611af383611ac0565b611b07611aff82611ae1565b848454611a66565b825550505050565b5f90565b611b1b611b0f565b611b26818484611aea565b505050565b5b81811015611b4957611b3e5f82611b13565b600181019050611b2c565b5050565b601f821115611b8e57611b5f81611a39565b611b6884611a4b565b81016020851015611b77578190505b611b8b611b8385611a4b565b830182611b2b565b50505b505050565b5f82821c905092915050565b5f611bae5f1984600802611b93565b1980831691505092915050565b5f611bc68383611b9f565b9150826002028217905092915050565b818103611be4575050611cb9565b611bed82611a24565b67ffffffffffffffff811115611c0657611c05611621565b5b611c1082546119f4565b611c1b828285611b4d565b5f601f831160018114611c48575f8415611c36578287015490505b611c408582611bbb565b865550611cb2565b601f198416611c5687611a39565b9650611c6186611a39565b5f5b82811015611c8857848901548255600182019150600185019450602081019050611c63565b86831015611ca55784890154611ca1601f891682611b9f565b8355505b6001600288020188555050505b5050505050505b565b5f611cc5826113dc565b9150611cd0836113dc565b9250828201905080821115611ce857611ce7611804565b5b92915050565b611cf782611507565b67ffffffffffffffff811115611d1057611d0f611621565b5b611d1a82546119f4565b611d25828285611b4d565b5f60209050601f831160018114611d56575f8415611d44578287015190505b611d4e8582611bbb565b865550611db5565b601f198416611d6486611a39565b5f5b82811015611d8b57848901518255600182019150602085019450602081019050611d66565b86831015611da85784890151611da4601f891682611b9f565b8355505b6001600288020188555050505b505050505050565b5f611dc7826113dc565b91507fffffffffffffffffffffffffffffffffffffffffffffffffffffffffffffffff8203611df957611df8611804565b5b60018201905091905056fea2646970667358221220baa6d9cb516cb45ab1aa80f4a2baae04433e04f78b7bd45f7c02eb141300228064736f6c63430008190033",
					"opcodes": "PUSH1 0x80 PUSH1 0x40 MSTORE PUSH1 0x1 PUSH1 0x16 SSTORE CALLVALUE DUP1 ISZERO PUSH1 0x13 JUMPI PUSH0 DUP1 REVERT JUMPDEST POP CALLER PUSH0 DUP1 PUSH2 0x100 EXP DUP2 SLOAD DUP2 PUSH20 0xFFFFFFFFFFFFFFFFFFFFFFFFFFFFFFFFFFFFFFFF MUL NOT AND SWAP1 DUP4 PUSH20 0xFFFFFFFFFFFFFFFFFFFFFFFFFFFFFFFFFFFFFFFF AND MUL OR SWAP1 SSTORE POP PUSH2 0x1E3A DUP1 PUSH2 0x60 PUSH0 CODECOPY PUSH0 RETURN INVALID PUSH1 0x80 PUSH1 0x40 MSTORE PUSH1 0x4 CALLDATASIZE LT PUSH2 0xC1 JUMPI PUSH0 CALLDATALOAD PUSH1 0xE0 SHR DUP1 PUSH4 0x657A2512 GT PUSH2 0x7E JUMPI DUP1 PUSH4 0xB688A363 GT PUSH2 0x58 JUMPI DUP1 PUSH4 0xB688A363 EQ PUSH2 0x1DD JUMPI DUP1 PUSH4 0xBE1C766B EQ PUSH2 0x1E7 JUMPI DUP1 PUSH4 0xC95F728A EQ PUSH2 0x211 JUMPI DUP1 PUSH4 0xD0E30DB0 EQ PUSH2 0x239 JUMPI PUSH2 0xC1 JUMP JUMPDEST DUP1 PUSH4 0x657A2512 EQ PUSH2 0x175 JUMPI DUP1 PUSH4 0x991671E2 EQ PUSH2 0x1B1 JUMPI DUP1 PUSH4 0xAFD82067 EQ PUSH2 0x1C7 JUMPI PUSH2 0xC1 JUMP JUMPDEST DUP1 PUSH4 0x5039910 EQ PUSH2 0xC5 JUMPI DUP1 PUSH4 0x7973CCF EQ PUSH2 0xDB JUMPI DUP1 PUSH4 0x14174F33 EQ PUSH2 0x105 JUMPI DUP1 PUSH4 0x18D075C3 EQ PUSH2 0x12D JUMPI DUP1 PUSH4 0x22552A55 EQ PUSH2 0x143 JUMPI DUP1 PUSH4 0x36588975 EQ PUSH2 0x14D JUMPI JUMPDEST PUSH0 DUP1 REVERT JUMPDEST CALLVALUE DUP1 ISZERO PUSH2 0xD0 JUMPI PUSH0 DUP1 REVERT JUMPDEST POP PUSH2 0xD9 PUSH2 0x243 JUMP JUMPDEST STOP JUMPDEST CALLVALUE DUP1 ISZERO PUSH2 0xE6 JUMPI PUSH0 DUP1 REVERT JUMPDEST POP PUSH2 0xEF PUSH2 0x36C JUMP JUMPDEST PUSH1 0x40 MLOAD PUSH2 0xFC SWAP2 SWAP1 PUSH2 0x13F4 JUMP JUMPDEST PUSH1 0x40 MLOAD DUP1 SWAP2 SUB SWAP1 RETURN JUMPDEST CALLVALUE DUP1 ISZERO PUSH2 0x110 JUMPI PUSH0 DUP1 REVERT JUMPDEST POP PUSH2 0x12B PUSH1 0x4 DUP1 CALLDATASIZE SUB DUP2 ADD SWAP1 PUSH2 0x126 SWAP2 SWAP1 PUSH2 0x1448 JUMP JUMPDEST PUSH2 0x372 JUMP JUMPDEST STOP JUMPDEST CALLVALUE DUP1 ISZERO PUSH2 0x138 JUMPI PUSH0 DUP1 REVERT JUMPDEST POP PUSH2 0x141 PUSH2 0x4B1 JUMP JUMPDEST STOP JUMPDEST PUSH2 0x14B PUSH2 0x670 JUMP JUMPDEST STOP JUMPDEST CALLVALUE DUP1 ISZERO PUSH2 0x158 JUMPI PUSH0 DUP1 REVERT JUMPDEST POP PUSH2 0x173 PUSH1 0x4 DUP1 CALLDATASIZE SUB DUP2 ADD SWAP1 PUSH2 0x16E SWAP2 SWAP1 PUSH2 0x1448 JUMP JUMPDEST PUSH2 0x980 JUMP JUMPDEST STOP JUMPDEST CALLVALUE DUP1 ISZERO PUSH2 0x180 JUMPI PUSH0 DUP1 REVERT JUMPDEST POP PUSH2 0x19B PUSH1 0x4 DUP1 CALLDATASIZE SUB DUP2 ADD SWAP1 PUSH2 0x196 SWAP2 SWAP1 PUSH2 0x14CD JUMP JUMPDEST PUSH2 0xA85 JUMP JUMPDEST PUSH1 0x40 MLOAD PUSH2 0x1A8 SWAP2 SWAP1 PUSH2 0x15F9 JUMP JUMPDEST PUSH1 0x40 MLOAD DUP1 SWAP2 SUB SWAP1 RETURN JUMPDEST CALLVALUE DUP1 ISZERO PUSH2 0x1BC JUMPI PUSH0 DUP1 REVERT JUMPDEST POP PUSH2 0x1C5 PUSH2 0xBDE JUMP JUMPDEST STOP JUMPDEST CALLVALUE DUP1 ISZERO PUSH2 0x1D2 JUMPI PUSH0 DUP1 REVERT JUMPDEST POP PUSH2 0x1DB PUSH2 0xCD0 JUMP JUMPDEST STOP JUMPDEST PUSH2 0x1E5 PUSH2 0xD28 JUMP JUMPDEST STOP JUMPDEST CALLVALUE DUP1 ISZERO PUSH2 0x1F2 JUMPI PUSH0 DUP1 REVERT JUMPDEST POP PUSH2 0x1FB PUSH2 0xF81 JUMP JUMPDEST PUSH1 0x40 MLOAD PUSH2 0x208 SWAP2 SWAP1 PUSH2 0x13F4 JUMP JUMPDEST PUSH1 0x40 MLOAD DUP1 SWAP2 SUB SWAP1 RETURN JUMPDEST CALLVALUE DUP1 ISZERO PUSH2 0x21C JUMPI PUSH0 DUP1 REVERT JUMPDEST POP PUSH2 0x237 PUSH1 0x4 DUP1 CALLDATASIZE SUB DUP2 ADD SWAP1 PUSH2 0x232 SWAP2 SWAP1 PUSH2 0x1745 JUMP JUMPDEST PUSH2 0xFD0 JUMP JUMPDEST STOP JUMPDEST PUSH2 0x241 PUSH2 0x11B2 JUMP JUMPDEST STOP JUMPDEST PUSH1 0xA PUSH1 0x15 PUSH0 CALLER PUSH20 0xFFFFFFFFFFFFFFFFFFFFFFFFFFFFFFFFFFFFFFFF AND PUSH20 0xFFFFFFFFFFFFFFFFFFFFFFFFFFFFFFFFFFFFFFFF AND DUP2 MSTORE PUSH1 0x20 ADD SWAP1 DUP2 MSTORE PUSH1 0x20 ADD PUSH0 KECCAK256 PUSH1 0x4 ADD SLOAD LT ISZERO PUSH2 0x2C7 JUMPI PUSH1 0x40 MLOAD PUSH32 0x8C379A000000000000000000000000000000000000000000000000000000000 DUP2 MSTORE PUSH1 0x4 ADD PUSH2 0x2BE SWAP1 PUSH2 0x17E6 JUMP JUMPDEST PUSH1 0x40 MLOAD DUP1 SWAP2 SUB SWAP1 REVERT JUMPDEST PUSH1 0xA PUSH1 0x15 PUSH0 CALLER PUSH20 0xFFFFFFFFFFFFFFFFFFFFFFFFFFFFFFFFFFFFFFFF AND PUSH20 0xFFFFFFFFFFFFFFFFFFFFFFFFFFFFFFFFFFFFFFFF AND DUP2 MSTORE PUSH1 0x20 ADD SWAP1 DUP2 MSTORE PUSH1 0x20 ADD PUSH0 KECCAK256 PUSH1 0x4 ADD PUSH0 DUP3 DUP3 SLOAD PUSH2 0x317 SWAP2 SWAP1 PUSH2 0x1831 JUMP JUMPDEST SWAP3 POP POP DUP2 SWAP1 SSTORE POP CALLER PUSH20 0xFFFFFFFFFFFFFFFFFFFFFFFFFFFFFFFFFFFFFFFF AND PUSH2 0x8FC PUSH8 0x16345785D8A0000 SWAP1 DUP2 ISZERO MUL SWAP1 PUSH1 0x40 MLOAD PUSH0 PUSH1 0x40 MLOAD DUP1 DUP4 SUB DUP2 DUP6 DUP9 DUP9 CALL SWAP4 POP POP POP POP ISZERO DUP1 ISZERO PUSH2 0x369 JUMPI RETURNDATASIZE PUSH0 DUP1 RETURNDATACOPY RETURNDATASIZE PUSH0 REVERT JUMPDEST POP JUMP JUMPDEST PUSH1 0x16 SLOAD DUP2 JUMP JUMPDEST DUP1 PUSH1 0x15 PUSH0 CALLER PUSH20 0xFFFFFFFFFFFFFFFFFFFFFFFFFFFFFFFFFFFFFFFF AND PUSH20 0xFFFFFFFFFFFFFFFFFFFFFFFFFFFFFFFFFFFFFFFF AND DUP2 MSTORE PUSH1 0x20 ADD SWAP1 DUP2 MSTORE PUSH1 0x20 ADD PUSH0 KECCAK256 PUSH1 0x4 ADD SLOAD LT ISZERO PUSH2 0x3F5 JUMPI PUSH1 0x40 MLOAD PUSH32 0x8C379A000000000000000000000000000000000000000000000000000000000 DUP2 MSTORE PUSH1 0x4 ADD PUSH2 0x3EC SWAP1 PUSH2 0x17E6 JUMP JUMPDEST PUSH1 0x40 MLOAD DUP1 SWAP2 SUB SWAP1 REVERT JUMPDEST DUP1 PUSH1 0x15 PUSH0 CALLER PUSH20 0xFFFFFFFFFFFFFFFFFFFFFFFFFFFFFFFFFFFFFFFF AND PUSH20 0xFFFFFFFFFFFFFFFFFFFFFFFFFFFFFFFFFFFFFFFF AND DUP2 MSTORE PUSH1 0x20 ADD SWAP1 DUP2 MSTORE PUSH1 0x20 ADD PUSH0 KECCAK256 PUSH1 0x4 ADD PUSH0 DUP3 DUP3 SLOAD PUSH2 0x444 SWAP2 SWAP1 PUSH2 0x1831 JUMP JUMPDEST SWAP3 POP POP DUP2 SWAP1 SSTORE POP CALLER PUSH20 0xFFFFFFFFFFFFFFFFFFFFFFFFFFFFFFFFFFFFFFFF AND PUSH2 0x8FC PUSH8 0x16345785D8A0000 PUSH1 0xA DUP5 PUSH2 0x47B SWAP2 SWAP1 PUSH2 0x1891 JUMP JUMPDEST PUSH2 0x485 SWAP2 SWAP1 PUSH2 0x18C1 JUMP JUMPDEST SWAP1 DUP2 ISZERO MUL SWAP1 PUSH1 0x40 MLOAD PUSH0 PUSH1 0x40 MLOAD DUP1 DUP4 SUB DUP2 DUP6 DUP9 DUP9 CALL SWAP4 POP POP POP POP ISZERO DUP1 ISZERO PUSH2 0x4AD JUMPI RETURNDATASIZE PUSH0 DUP1 RETURNDATACOPY RETURNDATASIZE PUSH0 REVERT JUMPDEST POP POP JUMP JUMPDEST PUSH1 0xA PUSH1 0x15 PUSH0 CALLER PUSH20 0xFFFFFFFFFFFFFFFFFFFFFFFFFFFFFFFFFFFFFFFF AND PUSH20 0xFFFFFFFFFFFFFFFFFFFFFFFFFFFFFFFFFFFFFFFF AND DUP2 MSTORE PUSH1 0x20 ADD SWAP1 DUP2 MSTORE PUSH1 0x20 ADD PUSH0 KECCAK256 PUSH1 0x4 ADD SLOAD LT ISZERO PUSH2 0x535 JUMPI PUSH1 0x40 MLOAD PUSH32 0x8C379A000000000000000000000000000000000000000000000000000000000 DUP2 MSTORE PUSH1 0x4 ADD PUSH2 0x52C SWAP1 PUSH2 0x17E6 JUMP JUMPDEST PUSH1 0x40 MLOAD DUP1 SWAP2 SUB SWAP1 REVERT JUMPDEST PUSH0 PUSH1 0xA PUSH1 0x15 PUSH0 CALLER PUSH20 0xFFFFFFFFFFFFFFFFFFFFFFFFFFFFFFFFFFFFFFFF AND PUSH20 0xFFFFFFFFFFFFFFFFFFFFFFFFFFFFFFFFFFFFFFFF AND DUP2 MSTORE PUSH1 0x20 ADD SWAP1 DUP2 MSTORE PUSH1 0x20 ADD PUSH0 KECCAK256 PUSH1 0x4 ADD SLOAD PUSH2 0x583 SWAP2 SWAP1 PUSH2 0x1891 JUMP JUMPDEST SWAP1 POP PUSH1 0xA PUSH1 0x15 PUSH0 CALLER PUSH20 0xFFFFFFFFFFFFFFFFFFFFFFFFFFFFFFFFFFFFFFFF AND PUSH20 0xFFFFFFFFFFFFFFFFFFFFFFFFFFFFFFFFFFFFFFFF AND DUP2 MSTORE PUSH1 0x20 ADD SWAP1 DUP2 MSTORE PUSH1 0x20 ADD PUSH0 KECCAK256 PUSH1 0x4 ADD SLOAD PUSH2 0x5D2 SWAP2 SWAP1 PUSH2 0x1902 JUMP JUMPDEST PUSH1 0x15 PUSH0 CALLER PUSH20 0xFFFFFFFFFFFFFFFFFFFFFFFFFFFFFFFFFFFFFFFF AND PUSH20 0xFFFFFFFFFFFFFFFFFFFFFFFFFFFFFFFFFFFFFFFF AND DUP2 MSTORE PUSH1 0x20 ADD SWAP1 DUP2 MSTORE PUSH1 0x20 ADD PUSH0 KECCAK256 PUSH1 0x4 ADD DUP2 SWAP1 SSTORE POP CALLER PUSH20 0xFFFFFFFFFFFFFFFFFFFFFFFFFFFFFFFFFFFFFFFF AND PUSH2 0x8FC PUSH8 0x16345785D8A0000 DUP4 PUSH2 0x644 SWAP2 SWAP1 PUSH2 0x18C1 JUMP JUMPDEST SWAP1 DUP2 ISZERO MUL SWAP1 PUSH1 0x40 MLOAD PUSH0 PUSH1 0x40 MLOAD DUP1 DUP4 SUB DUP2 DUP6 DUP9 DUP9 CALL SWAP4 POP POP POP POP ISZERO DUP1 ISZERO PUSH2 0x66C JUMPI RETURNDATASIZE PUSH0 DUP1 RETURNDATACOPY RETURNDATASIZE PUSH0 REVERT JUMPDEST POP POP JUMP JUMPDEST PUSH7 0x2386F26FC10000 CALLVALUE EQ DUP1 PUSH2 0x6CC JUMPI POP PUSH7 0x2386F26FC10000 PUSH1 0x15 PUSH0 CALLER PUSH20 0xFFFFFFFFFFFFFFFFFFFFFFFFFFFFFFFFFFFFFFFF AND PUSH20 0xFFFFFFFFFFFFFFFFFFFFFFFFFFFFFFFFFFFFFFFF AND DUP2 MSTORE PUSH1 0x20 ADD SWAP1 DUP2 MSTORE PUSH1 0x20 ADD PUSH0 KECCAK256 PUSH1 0x3 ADD SLOAD LT ISZERO JUMPDEST PUSH2 0x70B JUMPI PUSH1 0x40 MLOAD PUSH32 0x8C379A000000000000000000000000000000000000000000000000000000000 DUP2 MSTORE PUSH1 0x4 ADD PUSH2 0x702 SWAP1 PUSH2 0x197C JUMP JUMPDEST PUSH1 0x40 MLOAD DUP1 SWAP2 SUB SWAP1 REVERT JUMPDEST PUSH0 CALLVALUE SUB PUSH2 0x770 JUMPI PUSH7 0x2386F26FC10000 PUSH1 0x15 PUSH0 CALLER PUSH20 0xFFFFFFFFFFFFFFFFFFFFFFFFFFFFFFFFFFFFFFFF AND PUSH20 0xFFFFFFFFFFFFFFFFFFFFFFFFFFFFFFFFFFFFFFFF AND DUP2 MSTORE PUSH1 0x20 ADD SWAP1 DUP2 MSTORE PUSH1 0x20 ADD PUSH0 KECCAK256 PUSH1 0x3 ADD PUSH0 DUP3 DUP3 SLOAD PUSH2 0x768 SWAP2 SWAP1 PUSH2 0x1831 JUMP JUMPDEST SWAP3 POP POP DUP2 SWAP1 SSTORE POP JUMPDEST PUSH1 0x3 PUSH2 0x77A PUSH2 0xF81 JUMP JUMPDEST SUB PUSH2 0x888 JUMPI PUSH1 0x15 PUSH0 CALLER PUSH20 0xFFFFFFFFFFFFFFFFFFFFFFFFFFFFFFFFFFFFFFFF AND PUSH20 0xFFFFFFFFFFFFFFFFFFFFFFFFFFFFFFFFFFFFFFFF AND DUP2 MSTORE PUSH1 0x20 ADD SWAP1 DUP2 MSTORE PUSH1 0x20 ADD PUSH0 KECCAK256 PUSH1 0x1 PUSH1 0x3 PUSH1 0x4 DUP2 LT PUSH2 0x7D1 JUMPI PUSH2 0x7D0 PUSH2 0x199A JUMP JUMPDEST JUMPDEST PUSH1 0x5 MUL ADD PUSH0 DUP3 ADD SLOAD DUP2 PUSH0 ADD SSTORE PUSH1 0x1 DUP3 ADD DUP2 PUSH1 0x1 ADD SWAP1 DUP2 PUSH2 0x7F1 SWAP2 SWAP1 PUSH2 0x1BD6 JUMP JUMPDEST POP PUSH1 0x2 DUP3 ADD PUSH0 SWAP1 SLOAD SWAP1 PUSH2 0x100 EXP SWAP1 DIV PUSH20 0xFFFFFFFFFFFFFFFFFFFFFFFFFFFFFFFFFFFFFFFF AND DUP2 PUSH1 0x2 ADD PUSH0 PUSH2 0x100 EXP DUP2 SLOAD DUP2 PUSH20 0xFFFFFFFFFFFFFFFFFFFFFFFFFFFFFFFFFFFFFFFF MUL NOT AND SWAP1 DUP4 PUSH20 0xFFFFFFFFFFFFFFFFFFFFFFFFFFFFFFFFFFFFFFFF AND MUL OR SWAP1 SSTORE POP PUSH1 0x3 DUP3 ADD SLOAD DUP2 PUSH1 0x3 ADD SSTORE PUSH1 0x4 DUP3 ADD SLOAD DUP2 PUSH1 0x4 ADD SSTORE SWAP1 POP POP PUSH2 0x876 PUSH2 0xCD0 JUMP JUMPDEST PUSH1 0x1 PUSH0 PUSH2 0x883 SWAP2 SWAP1 PUSH2 0x120A JUMP JUMPDEST PUSH2 0x97E JUMP JUMPDEST PUSH1 0x15 PUSH0 CALLER PUSH20 0xFFFFFFFFFFFFFFFFFFFFFFFFFFFFFFFFFFFFFFFF AND PUSH20 0xFFFFFFFFFFFFFFFFFFFFFFFFFFFFFFFFFFFFFFFF AND DUP2 MSTORE PUSH1 0x20 ADD SWAP1 DUP2 MSTORE PUSH1 0x20 ADD PUSH0 KECCAK256 PUSH1 0x1 PUSH2 0x8CF PUSH2 0xF81 JUMP JUMPDEST PUSH1 0x4 DUP2 LT PUSH2 0x8E0 JUMPI PUSH2 0x8DF PUSH2 0x199A JUMP JUMPDEST JUMPDEST PUSH1 0x5 MUL ADD PUSH0 DUP3 ADD SLOAD DUP2 PUSH0 ADD SSTORE PUSH1 0x1 DUP3 ADD DUP2 PUSH1 0x1 ADD SWAP1 DUP2 PUSH2 0x900 SWAP2 SWAP1 PUSH2 0x1BD6 JUMP JUMPDEST POP PUSH1 0x2 DUP3 ADD PUSH0 SWAP1 SLOAD SWAP1 PUSH2 0x100 EXP SWAP1 DIV PUSH20 0xFFFFFFFFFFFFFFFFFFFFFFFFFFFFFFFFFFFFFFFF AND DUP2 PUSH1 0x2 ADD PUSH0 PUSH2 0x100 EXP DUP2 SLOAD DUP2 PUSH20 0xFFFFFFFFFFFFFFFFFFFFFFFFFFFFFFFFFFFFFFFF MUL NOT AND SWAP1 DUP4 PUSH20 0xFFFFFFFFFFFFFFFFFFFFFFFFFFFFFFFFFFFFFFFF AND MUL OR SWAP1 SSTORE POP PUSH1 0x3 DUP3 ADD SLOAD DUP2 PUSH1 0x3 ADD SSTORE PUSH1 0x4 DUP3 ADD SLOAD DUP2 PUSH1 0x4 ADD SSTORE SWAP1 POP POP JUMPDEST JUMP JUMPDEST PUSH0 DUP1 SLOAD SWAP1 PUSH2 0x100 EXP SWAP1 DIV PUSH20 0xFFFFFFFFFFFFFFFFFFFFFFFFFFFFFFFFFFFFFFFF AND PUSH20 0xFFFFFFFFFFFFFFFFFFFFFFFFFFFFFFFFFFFFFFFF AND CALLER PUSH20 0xFFFFFFFFFFFFFFFFFFFFFFFFFFFFFFFFFFFFFFFF AND EQ PUSH2 0xA0D JUMPI PUSH1 0x40 MLOAD PUSH32 0x8C379A000000000000000000000000000000000000000000000000000000000 DUP2 MSTORE PUSH1 0x4 ADD PUSH2 0xA04 SWAP1 PUSH2 0x17E6 JUMP JUMPDEST PUSH1 0x40 MLOAD DUP1 SWAP2 SUB SWAP1 REVERT JUMPDEST PUSH0 DUP1 SLOAD SWAP1 PUSH2 0x100 EXP SWAP1 DIV PUSH20 0xFFFFFFFFFFFFFFFFFFFFFFFFFFFFFFFFFFFFFFFF AND PUSH20 0xFFFFFFFFFFFFFFFFFFFFFFFFFFFFFFFFFFFFFFFF AND PUSH2 0x8FC PUSH7 0x2386F26FC10000 DUP4 PUSH2 0xA59 SWAP2 SWAP1 PUSH2 0x18C1 JUMP JUMPDEST SWAP1 DUP2 ISZERO MUL SWAP1 PUSH1 0x40 MLOAD PUSH0 PUSH1 0x40 MLOAD DUP1 DUP4 SUB DUP2 DUP6 DUP9 DUP9 CALL SWAP4 POP POP POP POP ISZERO DUP1 ISZERO PUSH2 0xA81 JUMPI RETURNDATASIZE PUSH0 DUP1 RETURNDATACOPY RETURNDATASIZE PUSH0 REVERT JUMPDEST POP POP JUMP JUMPDEST PUSH2 0xA8D PUSH2 0x1343 JUMP JUMPDEST PUSH1 0x15 PUSH0 DUP4 PUSH20 0xFFFFFFFFFFFFFFFFFFFFFFFFFFFFFFFFFFFFFFFF AND PUSH20 0xFFFFFFFFFFFFFFFFFFFFFFFFFFFFFFFFFFFFFFFF AND DUP2 MSTORE PUSH1 0x20 ADD SWAP1 DUP2 MSTORE PUSH1 0x20 ADD PUSH0 KECCAK256 PUSH1 0x40 MLOAD DUP1 PUSH1 0xA0 ADD PUSH1 0x40 MSTORE SWAP1 DUP2 PUSH0 DUP3 ADD SLOAD DUP2 MSTORE PUSH1 0x20 ADD PUSH1 0x1 DUP3 ADD DUP1 SLOAD PUSH2 0xAEE SWAP1 PUSH2 0x19F4 JUMP JUMPDEST DUP1 PUSH1 0x1F ADD PUSH1 0x20 DUP1 SWAP2 DIV MUL PUSH1 0x20 ADD PUSH1 0x40 MLOAD SWAP1 DUP2 ADD PUSH1 0x40 MSTORE DUP1 SWAP3 SWAP2 SWAP1 DUP2 DUP2 MSTORE PUSH1 0x20 ADD DUP3 DUP1 SLOAD PUSH2 0xB1A SWAP1 PUSH2 0x19F4 JUMP JUMPDEST DUP1 ISZERO PUSH2 0xB65 JUMPI DUP1 PUSH1 0x1F LT PUSH2 0xB3C JUMPI PUSH2 0x100 DUP1 DUP4 SLOAD DIV MUL DUP4 MSTORE SWAP2 PUSH1 0x20 ADD SWAP2 PUSH2 0xB65 JUMP JUMPDEST DUP3 ADD SWAP2 SWAP1 PUSH0 MSTORE PUSH1 0x20 PUSH0 KECCAK256 SWAP1 JUMPDEST DUP2 SLOAD DUP2 MSTORE SWAP1 PUSH1 0x1 ADD SWAP1 PUSH1 0x20 ADD DUP1 DUP4 GT PUSH2 0xB48 JUMPI DUP3 SWAP1 SUB PUSH1 0x1F AND DUP3 ADD SWAP2 JUMPDEST POP POP POP POP POP DUP2 MSTORE PUSH1 0x20 ADD PUSH1 0x2 DUP3 ADD PUSH0 SWAP1 SLOAD SWAP1 PUSH2 0x100 EXP SWAP1 DIV PUSH20 0xFFFFFFFFFFFFFFFFFFFFFFFFFFFFFFFFFFFFFFFF AND PUSH20 0xFFFFFFFFFFFFFFFFFFFFFFFFFFFFFFFFFFFFFFFF AND PUSH20 0xFFFFFFFFFFFFFFFFFFFFFFFFFFFFFFFFFFFFFFFF AND DUP2 MSTORE PUSH1 0x20 ADD PUSH1 0x3 DUP3 ADD SLOAD DUP2 MSTORE PUSH1 0x20 ADD PUSH1 0x4 DUP3 ADD SLOAD DUP2 MSTORE POP POP SWAP1 POP SWAP2 SWAP1 POP JUMP JUMPDEST PUSH0 DUP1 SLOAD SWAP1 PUSH2 0x100 EXP SWAP1 DIV PUSH20 0xFFFFFFFFFFFFFFFFFFFFFFFFFFFFFFFFFFFFFFFF AND PUSH20 0xFFFFFFFFFFFFFFFFFFFFFFFFFFFFFFFFFFFFFFFF AND CALLER PUSH20 0xFFFFFFFFFFFFFFFFFFFFFFFFFFFFFFFFFFFFFFFF AND EQ PUSH2 0xC6B JUMPI PUSH1 0x40 MLOAD PUSH32 0x8C379A000000000000000000000000000000000000000000000000000000000 DUP2 MSTORE PUSH1 0x4 ADD PUSH2 0xC62 SWAP1 PUSH2 0x17E6 JUMP JUMPDEST PUSH1 0x40 MLOAD DUP1 SWAP2 SUB SWAP1 REVERT JUMPDEST PUSH0 DUP1 SLOAD SWAP1 PUSH2 0x100 EXP SWAP1 DIV PUSH20 0xFFFFFFFFFFFFFFFFFFFFFFFFFFFFFFFFFFFFFFFF AND PUSH20 0xFFFFFFFFFFFFFFFFFFFFFFFFFFFFFFFFFFFFFFFF AND PUSH2 0x8FC SELFBALANCE SWAP1 DUP2 ISZERO MUL SWAP1 PUSH1 0x40 MLOAD PUSH0 PUSH1 0x40 MLOAD DUP1 DUP4 SUB DUP2 DUP6 DUP9 DUP9 CALL SWAP4 POP POP POP POP ISZERO DUP1 ISZERO PUSH2 0xCCD JUMPI RETURNDATASIZE PUSH0 DUP1 RETURNDATACOPY RETURNDATASIZE PUSH0 REVERT JUMPDEST POP JUMP JUMPDEST PUSH0 JUMPDEST PUSH1 0x4 DUP2 LT ISZERO PUSH2 0xD25 JUMPI DUP1 PUSH1 0x4 PUSH2 0xCE8 SWAP2 SWAP1 PUSH2 0x1831 JUMP JUMPDEST PUSH1 0x1 DUP3 PUSH1 0x4 DUP2 LT PUSH2 0xCFC JUMPI PUSH2 0xCFB PUSH2 0x199A JUMP JUMPDEST JUMPDEST PUSH1 0x5 MUL ADD PUSH1 0x4 ADD PUSH0 DUP3 DUP3 SLOAD PUSH2 0xD11 SWAP2 SWAP1 PUSH2 0x1CBB JUMP JUMPDEST SWAP3 POP POP DUP2 SWAP1 SSTORE POP DUP1 DUP1 PUSH1 0x1 ADD SWAP2 POP POP PUSH2 0xCD2 JUMP JUMPDEST POP JUMP JUMPDEST PUSH7 0x2386F26FC10000 CALLVALUE EQ PUSH2 0xD71 JUMPI PUSH1 0x40 MLOAD PUSH32 0x8C379A000000000000000000000000000000000000000000000000000000000 DUP2 MSTORE PUSH1 0x4 ADD PUSH2 0xD68 SWAP1 PUSH2 0x197C JUMP JUMPDEST PUSH1 0x40 MLOAD DUP1 SWAP2 SUB SWAP1 REVERT JUMPDEST PUSH1 0x3 PUSH2 0xD7B PUSH2 0xF81 JUMP JUMPDEST SUB PUSH2 0xE89 JUMPI PUSH1 0x15 PUSH0 CALLER PUSH20 0xFFFFFFFFFFFFFFFFFFFFFFFFFFFFFFFFFFFFFFFF AND PUSH20 0xFFFFFFFFFFFFFFFFFFFFFFFFFFFFFFFFFFFFFFFF AND DUP2 MSTORE PUSH1 0x20 ADD SWAP1 DUP2 MSTORE PUSH1 0x20 ADD PUSH0 KECCAK256 PUSH1 0x1 PUSH1 0x3 PUSH1 0x4 DUP2 LT PUSH2 0xDD2 JUMPI PUSH2 0xDD1 PUSH2 0x199A JUMP JUMPDEST JUMPDEST PUSH1 0x5 MUL ADD PUSH0 DUP3 ADD SLOAD DUP2 PUSH0 ADD SSTORE PUSH1 0x1 DUP3 ADD DUP2 PUSH1 0x1 ADD SWAP1 DUP2 PUSH2 0xDF2 SWAP2 SWAP1 PUSH2 0x1BD6 JUMP JUMPDEST POP PUSH1 0x2 DUP3 ADD PUSH0 SWAP1 SLOAD SWAP1 PUSH2 0x100 EXP SWAP1 DIV PUSH20 0xFFFFFFFFFFFFFFFFFFFFFFFFFFFFFFFFFFFFFFFF AND DUP2 PUSH1 0x2 ADD PUSH0 PUSH2 0x100 EXP DUP2 SLOAD DUP2 PUSH20 0xFFFFFFFFFFFFFFFFFFFFFFFFFFFFFFFFFFFFFFFF MUL NOT AND SWAP1 DUP4 PUSH20 0xFFFFFFFFFFFFFFFFFFFFFFFFFFFFFFFFFFFFFFFF AND MUL OR SWAP1 SSTORE POP PUSH1 0x3 DUP3 ADD SLOAD DUP2 PUSH1 0x3 ADD SSTORE PUSH1 0x4 DUP3 ADD SLOAD DUP2 PUSH1 0x4 ADD SSTORE SWAP1 POP POP PUSH2 0xE77 PUSH2 0xCD0 JUMP JUMPDEST PUSH1 0x1 PUSH0 PUSH2 0xE84 SWAP2 SWAP1 PUSH2 0x120A JUMP JUMPDEST PUSH2 0xF7F JUMP JUMPDEST PUSH1 0x15 PUSH0 CALLER PUSH20 0xFFFFFFFFFFFFFFFFFFFFFFFFFFFFFFFFFFFFFFFF AND PUSH20 0xFFFFFFFFFFFFFFFFFFFFFFFFFFFFFFFFFFFFFFFF AND DUP2 MSTORE PUSH1 0x20 ADD SWAP1 DUP2 MSTORE PUSH1 0x20 ADD PUSH0 KECCAK256 PUSH1 0x1 PUSH2 0xED0 PUSH2 0xF81 JUMP JUMPDEST PUSH1 0x4 DUP2 LT PUSH2 0xEE1 JUMPI PUSH2 0xEE0 PUSH2 0x199A JUMP JUMPDEST JUMPDEST PUSH1 0x5 MUL ADD PUSH0 DUP3 ADD SLOAD DUP2 PUSH0 ADD SSTORE PUSH1 0x1 DUP3 ADD DUP2 PUSH1 0x1 ADD SWAP1 DUP2 PUSH2 0xF01 SWAP2 SWAP1 PUSH2 0x1BD6 JUMP JUMPDEST POP PUSH1 0x2 DUP3 ADD PUSH0 SWAP1 SLOAD SWAP1 PUSH2 0x100 EXP SWAP1 DIV PUSH20 0xFFFFFFFFFFFFFFFFFFFFFFFFFFFFFFFFFFFFFFFF AND DUP2 PUSH1 0x2 ADD PUSH0 PUSH2 0x100 EXP DUP2 SLOAD DUP2 PUSH20 0xFFFFFFFFFFFFFFFFFFFFFFFFFFFFFFFFFFFFFFFF MUL NOT AND SWAP1 DUP4 PUSH20 0xFFFFFFFFFFFFFFFFFFFFFFFFFFFFFFFFFFFFFFFF AND MUL OR SWAP1 SSTORE POP PUSH1 0x3 DUP3 ADD SLOAD DUP2 PUSH1 0x3 ADD SSTORE PUSH1 0x4 DUP3 ADD SLOAD DUP2 PUSH1 0x4 ADD SSTORE SWAP1 POP POP JUMPDEST JUMP JUMPDEST PUSH0 DUP1 PUSH0 SWAP1 POP JUMPDEST PUSH1 0x4 DUP2 LT ISZERO PUSH2 0xFC7 JUMPI PUSH0 PUSH1 0x1 DUP3 PUSH1 0x4 DUP2 LT PUSH2 0xFA5 JUMPI PUSH2 0xFA4 PUSH2 0x199A JUMP JUMPDEST JUMPDEST PUSH1 0x5 MUL ADD PUSH0 ADD SLOAD SUB PUSH2 0xFBA JUMPI DUP1 SWAP2 POP POP PUSH2 0xFCD JUMP JUMPDEST DUP1 DUP1 PUSH1 0x1 ADD SWAP2 POP POP PUSH2 0xF87 JUMP JUMPDEST POP PUSH1 0x4 SWAP1 POP JUMPDEST SWAP1 JUMP JUMPDEST PUSH0 PUSH1 0x15 PUSH0 CALLER PUSH20 0xFFFFFFFFFFFFFFFFFFFFFFFFFFFFFFFFFFFFFFFF AND PUSH20 0xFFFFFFFFFFFFFFFFFFFFFFFFFFFFFFFFFFFFFFFF AND DUP2 MSTORE PUSH1 0x20 ADD SWAP1 DUP2 MSTORE PUSH1 0x20 ADD PUSH0 KECCAK256 PUSH1 0x1 ADD DUP1 SLOAD PUSH2 0x101C SWAP1 PUSH2 0x19F4 JUMP JUMPDEST SWAP1 POP EQ PUSH2 0x105E JUMPI PUSH1 0x40 MLOAD PUSH32 0x8C379A000000000000000000000000000000000000000000000000000000000 DUP2 MSTORE PUSH1 0x4 ADD PUSH2 0x1055 SWAP1 PUSH2 0x17E6 JUMP JUMPDEST PUSH1 0x40 MLOAD DUP1 SWAP2 SUB SWAP1 REVERT JUMPDEST PUSH0 DUP2 MLOAD EQ PUSH2 0x10A1 JUMPI PUSH1 0x40 MLOAD PUSH32 0x8C379A000000000000000000000000000000000000000000000000000000000 DUP2 MSTORE PUSH1 0x4 ADD PUSH2 0x1098 SWAP1 PUSH2 0x17E6 JUMP JUMPDEST PUSH1 0x40 MLOAD DUP1 SWAP2 SUB SWAP1 REVERT JUMPDEST PUSH1 0x40 MLOAD DUP1 PUSH1 0xA0 ADD PUSH1 0x40 MSTORE DUP1 PUSH1 0x16 SLOAD DUP2 MSTORE PUSH1 0x20 ADD DUP3 DUP2 MSTORE PUSH1 0x20 ADD CALLER PUSH20 0xFFFFFFFFFFFFFFFFFFFFFFFFFFFFFFFFFFFFFFFF AND DUP2 MSTORE PUSH1 0x20 ADD PUSH0 DUP2 MSTORE PUSH1 0x20 ADD PUSH0 DUP2 MSTORE POP PUSH1 0x15 PUSH0 CALLER PUSH20 0xFFFFFFFFFFFFFFFFFFFFFFFFFFFFFFFFFFFFFFFF AND PUSH20 0xFFFFFFFFFFFFFFFFFFFFFFFFFFFFFFFFFFFFFFFF AND DUP2 MSTORE PUSH1 0x20 ADD SWAP1 DUP2 MSTORE PUSH1 0x20 ADD PUSH0 KECCAK256 PUSH0 DUP3 ADD MLOAD DUP2 PUSH0 ADD SSTORE PUSH1 0x20 DUP3 ADD MLOAD DUP2 PUSH1 0x1 ADD SWAP1 DUP2 PUSH2 0x113A SWAP2 SWAP1 PUSH2 0x1CEE JUMP JUMPDEST POP PUSH1 0x40 DUP3 ADD MLOAD DUP2 PUSH1 0x2 ADD PUSH0 PUSH2 0x100 EXP DUP2 SLOAD DUP2 PUSH20 0xFFFFFFFFFFFFFFFFFFFFFFFFFFFFFFFFFFFFFFFF MUL NOT AND SWAP1 DUP4 PUSH20 0xFFFFFFFFFFFFFFFFFFFFFFFFFFFFFFFFFFFFFFFF AND MUL OR SWAP1 SSTORE POP PUSH1 0x60 DUP3 ADD MLOAD DUP2 PUSH1 0x3 ADD SSTORE PUSH1 0x80 DUP3 ADD MLOAD DUP2 PUSH1 0x4 ADD SSTORE SWAP1 POP POP PUSH1 0x16 PUSH0 DUP2 SLOAD DUP1 SWAP3 SWAP2 SWAP1 PUSH2 0x11AA SWAP1 PUSH2 0x1DBD JUMP JUMPDEST SWAP2 SWAP1 POP SSTORE POP POP JUMP JUMPDEST CALLVALUE PUSH1 0x15 PUSH0 CALLER PUSH20 0xFFFFFFFFFFFFFFFFFFFFFFFFFFFFFFFFFFFFFFFF AND PUSH20 0xFFFFFFFFFFFFFFFFFFFFFFFFFFFFFFFFFFFFFFFF AND DUP2 MSTORE PUSH1 0x20 ADD SWAP1 DUP2 MSTORE PUSH1 0x20 ADD PUSH0 KECCAK256 PUSH1 0x3 ADD PUSH0 DUP3 DUP3 SLOAD PUSH2 0x1201 SWAP2 SWAP1 PUSH2 0x1CBB JUMP JUMPDEST SWAP3 POP POP DUP2 SWAP1 SSTORE POP JUMP JUMPDEST POP PUSH0 DUP1 DUP3 ADD PUSH0 SWAP1 SSTORE PUSH1 0x1 DUP3 ADD PUSH0 PUSH2 0x1221 SWAP2 SWAP1 PUSH2 0x1384 JUMP JUMPDEST PUSH1 0x2 DUP3 ADD PUSH0 PUSH2 0x100 EXP DUP2 SLOAD SWAP1 PUSH20 0xFFFFFFFFFFFFFFFFFFFFFFFFFFFFFFFFFFFFFFFF MUL NOT AND SWAP1 SSTORE PUSH1 0x3 DUP3 ADD PUSH0 SWAP1 SSTORE PUSH1 0x4 DUP3 ADD PUSH0 SWAP1 SSTORE POP PUSH1 0x5 ADD PUSH0 DUP1 DUP3 ADD PUSH0 SWAP1 SSTORE PUSH1 0x1 DUP3 ADD PUSH0 PUSH2 0x126F SWAP2 SWAP1 PUSH2 0x1384 JUMP JUMPDEST PUSH1 0x2 DUP3 ADD PUSH0 PUSH2 0x100 EXP DUP2 SLOAD SWAP1 PUSH20 0xFFFFFFFFFFFFFFFFFFFFFFFFFFFFFFFFFFFFFFFF MUL NOT AND SWAP1 SSTORE PUSH1 0x3 DUP3 ADD PUSH0 SWAP1 SSTORE PUSH1 0x4 DUP3 ADD PUSH0 SWAP1 SSTORE POP PUSH1 0x5 ADD PUSH0 DUP1 DUP3 ADD PUSH0 SWAP1 SSTORE PUSH1 0x1 DUP3 ADD PUSH0 PUSH2 0x12BD SWAP2 SWAP1 PUSH2 0x1384 JUMP JUMPDEST PUSH1 0x2 DUP3 ADD PUSH0 PUSH2 0x100 EXP DUP2 SLOAD SWAP1 PUSH20 0xFFFFFFFFFFFFFFFFFFFFFFFFFFFFFFFFFFFFFFFF MUL NOT AND SWAP1 SSTORE PUSH1 0x3 DUP3 ADD PUSH0 SWAP1 SSTORE PUSH1 0x4 DUP3 ADD PUSH0 SWAP1 SSTORE POP PUSH1 0x5 ADD PUSH0 DUP1 DUP3 ADD PUSH0 SWAP1 SSTORE PUSH1 0x1 DUP3 ADD PUSH0 PUSH2 0x130B SWAP2 SWAP1 PUSH2 0x1384 JUMP JUMPDEST PUSH1 0x2 DUP3 ADD PUSH0 PUSH2 0x100 EXP DUP2 SLOAD SWAP1 PUSH20 0xFFFFFFFFFFFFFFFFFFFFFFFFFFFFFFFFFFFFFFFF MUL NOT AND SWAP1 SSTORE PUSH1 0x3 DUP3 ADD PUSH0 SWAP1 SSTORE PUSH1 0x4 DUP3 ADD PUSH0 SWAP1 SSTORE POP POP JUMP JUMPDEST PUSH1 0x40 MLOAD DUP1 PUSH1 0xA0 ADD PUSH1 0x40 MSTORE DUP1 PUSH0 DUP2 MSTORE PUSH1 0x20 ADD PUSH1 0x60 DUP2 MSTORE PUSH1 0x20 ADD PUSH0 PUSH20 0xFFFFFFFFFFFFFFFFFFFFFFFFFFFFFFFFFFFFFFFF AND DUP2 MSTORE PUSH1 0x20 ADD PUSH0 DUP2 MSTORE PUSH1 0x20 ADD PUSH0 DUP2 MSTORE POP SWAP1 JUMP JUMPDEST POP DUP1 SLOAD PUSH2 0x1390 SWAP1 PUSH2 0x19F4 JUMP JUMPDEST PUSH0 DUP3 SSTORE DUP1 PUSH1 0x1F LT PUSH2 0x13A1 JUMPI POP PUSH2 0x13BE JUMP JUMPDEST PUSH1 0x1F ADD PUSH1 0x20 SWAP1 DIV SWAP1 PUSH0 MSTORE PUSH1 0x20 PUSH0 KECCAK256 SWAP1 DUP2 ADD SWAP1 PUSH2 0x13BD SWAP2 SWAP1 PUSH2 0x13C1 JUMP JUMPDEST JUMPDEST POP JUMP JUMPDEST JUMPDEST DUP1 DUP3 GT ISZERO PUSH2 0x13D8 JUMPI PUSH0 DUP2 PUSH0 SWAP1 SSTORE POP PUSH1 0x1 ADD PUSH2 0x13C2 JUMP JUMPDEST POP SWAP1 JUMP JUMPDEST PUSH0 DUP2 SWAP1 POP SWAP2 SWAP1 POP JUMP JUMPDEST PUSH2 0x13EE DUP2 PUSH2 0x13DC JUMP JUMPDEST DUP3 MSTORE POP POP JUMP JUMPDEST PUSH0 PUSH1 0x20 DUP3 ADD SWAP1 POP PUSH2 0x1407 PUSH0 DUP4 ADD DUP5 PUSH2 0x13E5 JUMP JUMPDEST SWAP3 SWAP2 POP POP JUMP JUMPDEST PUSH0 PUSH1 0x40 MLOAD SWAP1 POP SWAP1 JUMP JUMPDEST PUSH0 DUP1 REVERT JUMPDEST PUSH0 DUP1 REVERT JUMPDEST PUSH2 0x1427 DUP2 PUSH2 0x13DC JUMP JUMPDEST DUP2 EQ PUSH2 0x1431 JUMPI PUSH0 DUP1 REVERT JUMPDEST POP JUMP JUMPDEST PUSH0 DUP2 CALLDATALOAD SWAP1 POP PUSH2 0x1442 DUP2 PUSH2 0x141E JUMP JUMPDEST SWAP3 SWAP2 POP POP JUMP JUMPDEST PUSH0 PUSH1 0x20 DUP3 DUP5 SUB SLT ISZERO PUSH2 0x145D JUMPI PUSH2 0x145C PUSH2 0x1416 JUMP JUMPDEST JUMPDEST PUSH0 PUSH2 0x146A DUP5 DUP3 DUP6 ADD PUSH2 0x1434 JUMP JUMPDEST SWAP2 POP POP SWAP3 SWAP2 POP POP JUMP JUMPDEST PUSH0 PUSH20 0xFFFFFFFFFFFFFFFFFFFFFFFFFFFFFFFFFFFFFFFF DUP3 AND SWAP1 POP SWAP2 SWAP1 POP JUMP JUMPDEST PUSH0 PUSH2 0x149C DUP3 PUSH2 0x1473 JUMP JUMPDEST SWAP1 POP SWAP2 SWAP1 POP JUMP JUMPDEST PUSH2 0x14AC DUP2 PUSH2 0x1492 JUMP JUMPDEST DUP2 EQ PUSH2 0x14B6 JUMPI PUSH0 DUP1 REVERT JUMPDEST POP JUMP JUMPDEST PUSH0 DUP2 CALLDATALOAD SWAP1 POP PUSH2 0x14C7 DUP2 PUSH2 0x14A3 JUMP JUMPDEST SWAP3 SWAP2 POP POP JUMP JUMPDEST PUSH0 PUSH1 0x20 DUP3 DUP5 SUB SLT ISZERO PUSH2 0x14E2 JUMPI PUSH2 0x14E1 PUSH2 0x1416 JUMP JUMPDEST JUMPDEST PUSH0 PUSH2 0x14EF DUP5 DUP3 DUP6 ADD PUSH2 0x14B9 JUMP JUMPDEST SWAP2 POP POP SWAP3 SWAP2 POP POP JUMP JUMPDEST PUSH2 0x1501 DUP2 PUSH2 0x13DC JUMP JUMPDEST DUP3 MSTORE POP POP JUMP JUMPDEST PUSH0 DUP2 MLOAD SWAP1 POP SWAP2 SWAP1 POP JUMP JUMPDEST PUSH0 DUP3 DUP3 MSTORE PUSH1 0x20 DUP3 ADD SWAP1 POP SWAP3 SWAP2 POP POP JUMP JUMPDEST DUP3 DUP2 DUP4 MCOPY PUSH0 DUP4 DUP4 ADD MSTORE POP POP POP JUMP JUMPDEST PUSH0 PUSH1 0x1F NOT PUSH1 0x1F DUP4 ADD AND SWAP1 POP SWAP2 SWAP1 POP JUMP JUMPDEST PUSH0 PUSH2 0x1549 DUP3 PUSH2 0x1507 JUMP JUMPDEST PUSH2 0x1553 DUP2 DUP6 PUSH2 0x1511 JUMP JUMPDEST SWAP4 POP PUSH2 0x1563 DUP2 DUP6 PUSH1 0x20 DUP7 ADD PUSH2 0x1521 JUMP JUMPDEST PUSH2 0x156C DUP2 PUSH2 0x152F JUMP JUMPDEST DUP5 ADD SWAP2 POP POP SWAP3 SWAP2 POP POP JUMP JUMPDEST PUSH2 0x1580 DUP2 PUSH2 0x1492 JUMP JUMPDEST DUP3 MSTORE POP POP JUMP JUMPDEST PUSH0 PUSH1 0xA0 DUP4 ADD PUSH0 DUP4 ADD MLOAD PUSH2 0x159B PUSH0 DUP7 ADD DUP3 PUSH2 0x14F8 JUMP JUMPDEST POP PUSH1 0x20 DUP4 ADD MLOAD DUP5 DUP3 SUB PUSH1 0x20 DUP7 ADD MSTORE PUSH2 0x15B3 DUP3 DUP3 PUSH2 0x153F JUMP JUMPDEST SWAP2 POP POP PUSH1 0x40 DUP4 ADD MLOAD PUSH2 0x15C8 PUSH1 0x40 DUP7 ADD DUP3 PUSH2 0x1577 JUMP JUMPDEST POP PUSH1 0x60 DUP4 ADD MLOAD PUSH2 0x15DB PUSH1 0x60 DUP7 ADD DUP3 PUSH2 0x14F8 JUMP JUMPDEST POP PUSH1 0x80 DUP4 ADD MLOAD PUSH2 0x15EE PUSH1 0x80 DUP7 ADD DUP3 PUSH2 0x14F8 JUMP JUMPDEST POP DUP1 SWAP2 POP POP SWAP3 SWAP2 POP POP JUMP JUMPDEST PUSH0 PUSH1 0x20 DUP3 ADD SWAP1 POP DUP2 DUP2 SUB PUSH0 DUP4 ADD MSTORE PUSH2 0x1611 DUP2 DUP5 PUSH2 0x1586 JUMP JUMPDEST SWAP1 POP SWAP3 SWAP2 POP POP JUMP JUMPDEST PUSH0 DUP1 REVERT JUMPDEST PUSH0 DUP1 REVERT JUMPDEST PUSH32 0x4E487B7100000000000000000000000000000000000000000000000000000000 PUSH0 MSTORE PUSH1 0x41 PUSH1 0x4 MSTORE PUSH1 0x24 PUSH0 REVERT JUMPDEST PUSH2 0x1657 DUP3 PUSH2 0x152F JUMP JUMPDEST DUP2 ADD DUP2 DUP2 LT PUSH8 0xFFFFFFFFFFFFFFFF DUP3 GT OR ISZERO PUSH2 0x1676 JUMPI PUSH2 0x1675 PUSH2 0x1621 JUMP JUMPDEST JUMPDEST DUP1 PUSH1 0x40 MSTORE POP POP POP JUMP JUMPDEST PUSH0 PUSH2 0x1688 PUSH2 0x140D JUMP JUMPDEST SWAP1 POP PUSH2 0x1694 DUP3 DUP3 PUSH2 0x164E JUMP JUMPDEST SWAP2 SWAP1 POP JUMP JUMPDEST PUSH0 PUSH8 0xFFFFFFFFFFFFFFFF DUP3 GT ISZERO PUSH2 0x16B3 JUMPI PUSH2 0x16B2 PUSH2 0x1621 JUMP JUMPDEST JUMPDEST PUSH2 0x16BC DUP3 PUSH2 0x152F JUMP JUMPDEST SWAP1 POP PUSH1 0x20 DUP2 ADD SWAP1 POP SWAP2 SWAP1 POP JUMP JUMPDEST DUP3 DUP2 DUP4 CALLDATACOPY PUSH0 DUP4 DUP4 ADD MSTORE POP POP POP JUMP JUMPDEST PUSH0 PUSH2 0x16E9 PUSH2 0x16E4 DUP5 PUSH2 0x1699 JUMP JUMPDEST PUSH2 0x167F JUMP JUMPDEST SWAP1 POP DUP3 DUP2 MSTORE PUSH1 0x20 DUP2 ADD DUP5 DUP5 DUP5 ADD GT ISZERO PUSH2 0x1705 JUMPI PUSH2 0x1704 PUSH2 0x161D JUMP JUMPDEST JUMPDEST PUSH2 0x1710 DUP5 DUP3 DUP6 PUSH2 0x16C9 JUMP JUMPDEST POP SWAP4 SWAP3 POP POP POP JUMP JUMPDEST PUSH0 DUP3 PUSH1 0x1F DUP4 ADD SLT PUSH2 0x172C JUMPI PUSH2 0x172B PUSH2 0x1619 JUMP JUMPDEST JUMPDEST DUP2 CALLDATALOAD PUSH2 0x173C DUP5 DUP3 PUSH1 0x20 DUP7 ADD PUSH2 0x16D7 JUMP JUMPDEST SWAP2 POP POP SWAP3 SWAP2 POP POP JUMP JUMPDEST PUSH0 PUSH1 0x20 DUP3 DUP5 SUB SLT ISZERO PUSH2 0x175A JUMPI PUSH2 0x1759 PUSH2 0x1416 JUMP JUMPDEST JUMPDEST PUSH0 DUP3 ADD CALLDATALOAD PUSH8 0xFFFFFFFFFFFFFFFF DUP2 GT ISZERO PUSH2 0x1777 JUMPI PUSH2 0x1776 PUSH2 0x141A JUMP JUMPDEST JUMPDEST PUSH2 0x1783 DUP5 DUP3 DUP6 ADD PUSH2 0x1718 JUMP JUMPDEST SWAP2 POP POP SWAP3 SWAP2 POP POP JUMP JUMPDEST PUSH0 DUP3 DUP3 MSTORE PUSH1 0x20 DUP3 ADD SWAP1 POP SWAP3 SWAP2 POP POP JUMP JUMPDEST PUSH32 0x6E6F706500000000000000000000000000000000000000000000000000000000 PUSH0 DUP3 ADD MSTORE POP JUMP JUMPDEST PUSH0 PUSH2 0x17D0 PUSH1 0x4 DUP4 PUSH2 0x178C JUMP JUMPDEST SWAP2 POP PUSH2 0x17DB DUP3 PUSH2 0x179C JUMP JUMPDEST PUSH1 0x20 DUP3 ADD SWAP1 POP SWAP2 SWAP1 POP JUMP JUMPDEST PUSH0 PUSH1 0x20 DUP3 ADD SWAP1 POP DUP2 DUP2 SUB PUSH0 DUP4 ADD MSTORE PUSH2 0x17FD DUP2 PUSH2 0x17C4 JUMP JUMPDEST SWAP1 POP SWAP2 SWAP1 POP JUMP JUMPDEST PUSH32 0x4E487B7100000000000000000000000000000000000000000000000000000000 PUSH0 MSTORE PUSH1 0x11 PUSH1 0x4 MSTORE PUSH1 0x24 PUSH0 REVERT JUMPDEST PUSH0 PUSH2 0x183B DUP3 PUSH2 0x13DC JUMP JUMPDEST SWAP2 POP PUSH2 0x1846 DUP4 PUSH2 0x13DC JUMP JUMPDEST SWAP3 POP DUP3 DUP3 SUB SWAP1 POP DUP2 DUP2 GT ISZERO PUSH2 0x185E JUMPI PUSH2 0x185D PUSH2 0x1804 JUMP JUMPDEST JUMPDEST SWAP3 SWAP2 POP POP JUMP JUMPDEST PUSH32 0x4E487B7100000000000000000000000000000000000000000000000000000000 PUSH0 MSTORE PUSH1 0x12 PUSH1 0x4 MSTORE PUSH1 0x24 PUSH0 REVERT JUMPDEST PUSH0 PUSH2 0x189B DUP3 PUSH2 0x13DC JUMP JUMPDEST SWAP2 POP PUSH2 0x18A6 DUP4 PUSH2 0x13DC JUMP JUMPDEST SWAP3 POP DUP3 PUSH2 0x18B6 JUMPI PUSH2 0x18B5 PUSH2 0x1864 JUMP JUMPDEST JUMPDEST DUP3 DUP3 DIV SWAP1 POP SWAP3 SWAP2 POP POP JUMP JUMPDEST PUSH0 PUSH2 0x18CB DUP3 PUSH2 0x13DC JUMP JUMPDEST SWAP2 POP PUSH2 0x18D6 DUP4 PUSH2 0x13DC JUMP JUMPDEST SWAP3 POP DUP3 DUP3 MUL PUSH2 0x18E4 DUP2 PUSH2 0x13DC JUMP JUMPDEST SWAP2 POP DUP3 DUP3 DIV DUP5 EQ DUP4 ISZERO OR PUSH2 0x18FB JUMPI PUSH2 0x18FA PUSH2 0x1804 JUMP JUMPDEST JUMPDEST POP SWAP3 SWAP2 POP POP JUMP JUMPDEST PUSH0 PUSH2 0x190C DUP3 PUSH2 0x13DC JUMP JUMPDEST SWAP2 POP PUSH2 0x1917 DUP4 PUSH2 0x13DC JUMP JUMPDEST SWAP3 POP DUP3 PUSH2 0x1927 JUMPI PUSH2 0x1926 PUSH2 0x1864 JUMP JUMPDEST JUMPDEST DUP3 DUP3 MOD SWAP1 POP SWAP3 SWAP2 POP POP JUMP JUMPDEST PUSH32 0x4E4F504500000000000000000000000000000000000000000000000000000000 PUSH0 DUP3 ADD MSTORE POP JUMP JUMPDEST PUSH0 PUSH2 0x1966 PUSH1 0x4 DUP4 PUSH2 0x178C JUMP JUMPDEST SWAP2 POP PUSH2 0x1971 DUP3 PUSH2 0x1932 JUMP JUMPDEST PUSH1 0x20 DUP3 ADD SWAP1 POP SWAP2 SWAP1 POP JUMP JUMPDEST PUSH0 PUSH1 0x20 DUP3 ADD SWAP1 POP DUP2 DUP2 SUB PUSH0 DUP4 ADD MSTORE PUSH2 0x1993 DUP2 PUSH2 0x195A JUMP JUMPDEST SWAP1 POP SWAP2 SWAP1 POP JUMP JUMPDEST PUSH32 0x4E487B7100000000000000000000000000000000000000000000000000000000 PUSH0 MSTORE PUSH1 0x32 PUSH1 0x4 MSTORE PUSH1 0x24 PUSH0 REVERT JUMPDEST PUSH32 0x4E487B7100000000000000000000000000000000000000000000000000000000 PUSH0 MSTORE PUSH1 0x22 PUSH1 0x4 MSTORE PUSH1 0x24 PUSH0 REVERT JUMPDEST PUSH0 PUSH1 0x2 DUP3 DIV SWAP1 POP PUSH1 0x1 DUP3 AND DUP1 PUSH2 0x1A0B JUMPI PUSH1 0x7F DUP3 AND SWAP2 POP JUMPDEST PUSH1 0x20 DUP3 LT DUP2 SUB PUSH2 0x1A1E JUMPI PUSH2 0x1A1D PUSH2 0x19C7 JUMP JUMPDEST JUMPDEST POP SWAP2 SWAP1 POP JUMP JUMPDEST PUSH0 DUP2 SLOAD SWAP1 POP PUSH2 0x1A32 DUP2 PUSH2 0x19F4 JUMP JUMPDEST SWAP1 POP SWAP2 SWAP1 POP JUMP JUMPDEST PUSH0 DUP2 SWAP1 POP DUP2 PUSH0 MSTORE PUSH1 0x20 PUSH0 KECCAK256 SWAP1 POP SWAP2 SWAP1 POP JUMP JUMPDEST PUSH0 PUSH1 0x20 PUSH1 0x1F DUP4 ADD DIV SWAP1 POP SWAP2 SWAP1 POP JUMP JUMPDEST PUSH0 DUP3 DUP3 SHL SWAP1 POP SWAP3 SWAP2 POP POP JUMP JUMPDEST PUSH0 PUSH1 0x8 DUP4 MUL PUSH2 0x1A95 PUSH32 0xFFFFFFFFFFFFFFFFFFFFFFFFFFFFFFFFFFFFFFFFFFFFFFFFFFFFFFFFFFFFFFFF DUP3 PUSH2 0x1A5A JUMP JUMPDEST PUSH2 0x1A9F DUP7 DUP4 PUSH2 0x1A5A JUMP JUMPDEST SWAP6 POP DUP1 NOT DUP5 AND SWAP4 POP DUP1 DUP7 AND DUP5 OR SWAP3 POP POP POP SWAP4 SWAP3 POP POP POP JUMP JUMPDEST PUSH0 DUP2 SWAP1 POP SWAP2 SWAP1 POP JUMP JUMPDEST PUSH0 PUSH2 0x1ADA PUSH2 0x1AD5 PUSH2 0x1AD0 DUP5 PUSH2 0x13DC JUMP JUMPDEST PUSH2 0x1AB7 JUMP JUMPDEST PUSH2 0x13DC JUMP JUMPDEST SWAP1 POP SWAP2 SWAP1 POP JUMP JUMPDEST PUSH0 DUP2 SWAP1 POP SWAP2 SWAP1 POP JUMP JUMPDEST PUSH2 0x1AF3 DUP4 PUSH2 0x1AC0 JUMP JUMPDEST PUSH2 0x1B07 PUSH2 0x1AFF DUP3 PUSH2 0x1AE1 JUMP JUMPDEST DUP5 DUP5 SLOAD PUSH2 0x1A66 JUMP JUMPDEST DUP3 SSTORE POP POP POP POP JUMP JUMPDEST PUSH0 SWAP1 JUMP JUMPDEST PUSH2 0x1B1B PUSH2 0x1B0F JUMP JUMPDEST PUSH2 0x1B26 DUP2 DUP5 DUP5 PUSH2 0x1AEA JUMP JUMPDEST POP POP POP JUMP JUMPDEST JUMPDEST DUP2 DUP2 LT ISZERO PUSH2 0x1B49 JUMPI PUSH2 0x1B3E PUSH0 DUP3 PUSH2 0x1B13 JUMP JUMPDEST PUSH1 0x1 DUP2 ADD SWAP1 POP PUSH2 0x1B2C JUMP JUMPDEST POP POP JUMP JUMPDEST PUSH1 0x1F DUP3 GT ISZERO PUSH2 0x1B8E JUMPI PUSH2 0x1B5F DUP2 PUSH2 0x1A39 JUMP JUMPDEST PUSH2 0x1B68 DUP5 PUSH2 0x1A4B JUMP JUMPDEST DUP2 ADD PUSH1 0x20 DUP6 LT ISZERO PUSH2 0x1B77 JUMPI DUP2 SWAP1 POP JUMPDEST PUSH2 0x1B8B PUSH2 0x1B83 DUP6 PUSH2 0x1A4B JUMP JUMPDEST DUP4 ADD DUP3 PUSH2 0x1B2B JUMP JUMPDEST POP POP JUMPDEST POP POP POP JUMP JUMPDEST PUSH0 DUP3 DUP3 SHR SWAP1 POP SWAP3 SWAP2 POP POP JUMP JUMPDEST PUSH0 PUSH2 0x1BAE PUSH0 NOT DUP5 PUSH1 0x8 MUL PUSH2 0x1B93 JUMP JUMPDEST NOT DUP1 DUP4 AND SWAP2 POP POP SWAP3 SWAP2 POP POP JUMP JUMPDEST PUSH0 PUSH2 0x1BC6 DUP4 DUP4 PUSH2 0x1B9F JUMP JUMPDEST SWAP2 POP DUP3 PUSH1 0x2 MUL DUP3 OR SWAP1 POP SWAP3 SWAP2 POP POP JUMP JUMPDEST DUP2 DUP2 SUB PUSH2 0x1BE4 JUMPI POP POP PUSH2 0x1CB9 JUMP JUMPDEST PUSH2 0x1BED DUP3 PUSH2 0x1A24 JUMP JUMPDEST PUSH8 0xFFFFFFFFFFFFFFFF DUP2 GT ISZERO PUSH2 0x1C06 JUMPI PUSH2 0x1C05 PUSH2 0x1621 JUMP JUMPDEST JUMPDEST PUSH2 0x1C10 DUP3 SLOAD PUSH2 0x19F4 JUMP JUMPDEST PUSH2 0x1C1B DUP3 DUP3 DUP6 PUSH2 0x1B4D JUMP JUMPDEST PUSH0 PUSH1 0x1F DUP4 GT PUSH1 0x1 DUP2 EQ PUSH2 0x1C48 JUMPI PUSH0 DUP5 ISZERO PUSH2 0x1C36 JUMPI DUP3 DUP8 ADD SLOAD SWAP1 POP JUMPDEST PUSH2 0x1C40 DUP6 DUP3 PUSH2 0x1BBB JUMP JUMPDEST DUP7 SSTORE POP PUSH2 0x1CB2 JUMP JUMPDEST PUSH1 0x1F NOT DUP5 AND PUSH2 0x1C56 DUP8 PUSH2 0x1A39 JUMP JUMPDEST SWAP7 POP PUSH2 0x1C61 DUP7 PUSH2 0x1A39 JUMP JUMPDEST PUSH0 JUMPDEST DUP3 DUP2 LT ISZERO PUSH2 0x1C88 JUMPI DUP5 DUP10 ADD SLOAD DUP3 SSTORE PUSH1 0x1 DUP3 ADD SWAP2 POP PUSH1 0x1 DUP6 ADD SWAP5 POP PUSH1 0x20 DUP2 ADD SWAP1 POP PUSH2 0x1C63 JUMP JUMPDEST DUP7 DUP4 LT ISZERO PUSH2 0x1CA5 JUMPI DUP5 DUP10 ADD SLOAD PUSH2 0x1CA1 PUSH1 0x1F DUP10 AND DUP3 PUSH2 0x1B9F JUMP JUMPDEST DUP4 SSTORE POP JUMPDEST PUSH1 0x1 PUSH1 0x2 DUP9 MUL ADD DUP9 SSTORE POP POP POP JUMPDEST POP POP POP POP POP POP JUMPDEST JUMP JUMPDEST PUSH0 PUSH2 0x1CC5 DUP3 PUSH2 0x13DC JUMP JUMPDEST SWAP2 POP PUSH2 0x1CD0 DUP4 PUSH2 0x13DC JUMP JUMPDEST SWAP3 POP DUP3 DUP3 ADD SWAP1 POP DUP1 DUP3 GT ISZERO PUSH2 0x1CE8 JUMPI PUSH2 0x1CE7 PUSH2 0x1804 JUMP JUMPDEST JUMPDEST SWAP3 SWAP2 POP POP JUMP JUMPDEST PUSH2 0x1CF7 DUP3 PUSH2 0x1507 JUMP JUMPDEST PUSH8 0xFFFFFFFFFFFFFFFF DUP2 GT ISZERO PUSH2 0x1D10 JUMPI PUSH2 0x1D0F PUSH2 0x1621 JUMP JUMPDEST JUMPDEST PUSH2 0x1D1A DUP3 SLOAD PUSH2 0x19F4 JUMP JUMPDEST PUSH2 0x1D25 DUP3 DUP3 DUP6 PUSH2 0x1B4D JUMP JUMPDEST PUSH0 PUSH1 0x20 SWAP1 POP PUSH1 0x1F DUP4 GT PUSH1 0x1 DUP2 EQ PUSH2 0x1D56 JUMPI PUSH0 DUP5 ISZERO PUSH2 0x1D44 JUMPI DUP3 DUP8 ADD MLOAD SWAP1 POP JUMPDEST PUSH2 0x1D4E DUP6 DUP3 PUSH2 0x1BBB JUMP JUMPDEST DUP7 SSTORE POP PUSH2 0x1DB5 JUMP JUMPDEST PUSH1 0x1F NOT DUP5 AND PUSH2 0x1D64 DUP7 PUSH2 0x1A39 JUMP JUMPDEST PUSH0 JUMPDEST DUP3 DUP2 LT ISZERO PUSH2 0x1D8B JUMPI DUP5 DUP10 ADD MLOAD DUP3 SSTORE PUSH1 0x1 DUP3 ADD SWAP2 POP PUSH1 0x20 DUP6 ADD SWAP5 POP PUSH1 0x20 DUP2 ADD SWAP1 POP PUSH2 0x1D66 JUMP JUMPDEST DUP7 DUP4 LT ISZERO PUSH2 0x1DA8 JUMPI DUP5 DUP10 ADD MLOAD PUSH2 0x1DA4 PUSH1 0x1F DUP10 AND DUP3 PUSH2 0x1B9F JUMP JUMPDEST DUP4 SSTORE POP JUMPDEST PUSH1 0x1 PUSH1 0x2 DUP9 MUL ADD DUP9 SSTORE POP POP POP JUMPDEST POP POP POP POP POP POP JUMP JUMPDEST PUSH0 PUSH2 0x1DC7 DUP3 PUSH2 0x13DC JUMP JUMPDEST SWAP2 POP PUSH32 0xFFFFFFFFFFFFFFFFFFFFFFFFFFFFFFFFFFFFFFFFFFFFFFFFFFFFFFFFFFFFFFFF DUP3 SUB PUSH2 0x1DF9 JUMPI PUSH2 0x1DF8 PUSH2 0x1804 JUMP JUMPDEST JUMPDEST PUSH1 0x1 DUP3 ADD SWAP1 POP SWAP2 SWAP1 POP JUMP INVALID LOG2 PUSH5 0x6970667358 0x22 SLT KECCAK256 0xBA 0xA6 0xD9 0xCB MLOAD PUSH13 0xB45AB1AA80F4A2BAAE04433E04 0xF7 DUP12 PUSH28 0xD45F7C02EB141300228064736F6C6343000819003300000000000000 "
				},
				"gasEstimates": {
					"creation": {
						"codeDepositCost": "1547600",
						"executionCost": "47986",
						"totalCost": "1595586"
					},
					"external": {
						"deposit()": "infinite",
						"getLength()": "infinite",
						"getScore()": "infinite",
						"join()": "infinite",
						"joinDeposit()": "infinite",
						"search(address)": "infinite",
						"signIn(string)": "infinite",
						"userCount()": "2448",
						"withDraw(uint256)": "infinite",
						"withDrawAll()": "infinite",
						"withDrawMax()": "infinite",
						"withDrawOwner(uint256)": "infinite",
						"withDrawTen()": "infinite"
					}
				},
				"methodIdentifiers": {
					"deposit()": "d0e30db0",
					"getLength()": "be1c766b",
					"getScore()": "afd82067",
					"join()": "b688a363",
					"joinDeposit()": "22552a55",
					"search(address)": "657a2512",
					"signIn(string)": "c95f728a",
					"userCount()": "07973ccf",
					"withDraw(uint256)": "14174f33",
					"withDrawAll()": "991671e2",
					"withDrawMax()": "18d075c3",
					"withDrawOwner(uint256)": "36588975",
					"withDrawTen()": "05039910"
				}
			},
			"storageLayout": {
				"storage": [
					{
						"astId": 259,
						"contract": "solidity_test/test4.sol:Answer",
						"label": "owner",
						"offset": 0,
						"slot": "0",
						"type": "t_address_payable"
					},
					{
						"astId": 264,
						"contract": "solidity_test/test4.sol:Answer",
						"label": "room",
						"offset": 0,
						"slot": "1",
						"type": "t_array(t_struct(USER)257_storage)4_storage"
					},
					{
						"astId": 269,
						"contract": "solidity_test/test4.sol:Answer",
						"label": "users",
						"offset": 0,
						"slot": "21",
						"type": "t_mapping(t_address,t_struct(USER)257_storage)"
					},
					{
						"astId": 272,
						"contract": "solidity_test/test4.sol:Answer",
						"label": "userCount",
						"offset": 0,
						"slot": "22",
						"type": "t_uint256"
					}
				],
				"types": {
					"t_address": {
						"encoding": "inplace",
						"label": "address",
						"numberOfBytes": "20"
					},
					"t_address_payable": {
						"encoding": "inplace",
						"label": "address payable",
						"numberOfBytes": "20"
					},
					"t_array(t_struct(USER)257_storage)4_storage": {
						"base": "t_struct(USER)257_storage",
						"encoding": "inplace",
						"label": "struct Answer.USER[4]",
						"numberOfBytes": "640"
					},
					"t_mapping(t_address,t_struct(USER)257_storage)": {
						"encoding": "mapping",
						"key": "t_address",
						"label": "mapping(address => struct Answer.USER)",
						"numberOfBytes": "32",
						"value": "t_struct(USER)257_storage"
					},
					"t_string_storage": {
						"encoding": "bytes",
						"label": "string",
						"numberOfBytes": "32"
					},
					"t_struct(USER)257_storage": {
						"encoding": "inplace",
						"label": "struct Answer.USER",
						"members": [
							{
								"astId": 248,
								"contract": "solidity_test/test4.sol:Answer",
								"label": "number",
								"offset": 0,
								"slot": "0",
								"type": "t_uint256"
							},
							{
								"astId": 250,
								"contract": "solidity_test/test4.sol:Answer",
								"label": "name",
								"offset": 0,
								"slot": "1",
								"type": "t_string_storage"
							},
							{
								"astId": 252,
								"contract": "solidity_test/test4.sol:Answer",
								"label": "wallet",
								"offset": 0,
								"slot": "2",
								"type": "t_address"
							},
							{
								"astId": 254,
								"contract": "solidity_test/test4.sol:Answer",
								"label": "balance",
								"offset": 0,
								"slot": "3",
								"type": "t_uint256"
							},
							{
								"astId": 256,
								"contract": "solidity_test/test4.sol:Answer",
								"label": "score",
								"offset": 0,
								"slot": "4",
								"type": "t_uint256"
							}
						],
						"numberOfBytes": "160"
					},
					"t_uint256": {
						"encoding": "inplace",
						"label": "uint256",
						"numberOfBytes": "32"
					}
				}
			},
			"userdoc": {
				"kind": "user",
				"methods": {},
				"version": 1
			}
		}
	}
}