{
	"solidity_test/test3.sol": {
		"TEST3": {
			"abi": [
				{
					"inputs": [
						{
							"internalType": "string",
							"name": "_id",
							"type": "string"
						},
						{
							"internalType": "string",
							"name": "_pw",
							"type": "string"
						}
					],
					"stateMutability": "nonpayable",
					"type": "constructor"
				},
				{
					"inputs": [],
					"name": "isLogin",
					"outputs": [
						{
							"internalType": "bool",
							"name": "",
							"type": "bool"
						}
					],
					"stateMutability": "view",
					"type": "function"
				}
			],
			"devdoc": {
				"kind": "dev",
				"methods": {},
				"version": 1
			},
			"evm": {
				"assembly": "    /* \"solidity_test/test3.sol\":75:1765  contract TEST3 {... */\n  mstore(0x40, 0x80)\n    /* \"solidity_test/test3.sol\":1574:1692  constructor(string memory _id, string memory _pw) {... */\n  callvalue\n  dup1\n  iszero\n  tag_1\n  jumpi\n  0x00\n  dup1\n  revert\ntag_1:\n  pop\n  mload(0x40)\n  sub(codesize, bytecodeSize)\n  dup1\n  bytecodeSize\n  dup4\n  codecopy\n  dup2\n  dup2\n  add\n  0x40\n  mstore\n  dup2\n  add\n  swap1\n  tag_2\n  swap2\n  swap1\n  tag_3\n  jump\t// in\ntag_2:\n    /* \"solidity_test/test3.sol\":1674:1677  _id */\n  dup2\n    /* \"solidity_test/test3.sol\":1679:1682  _pw */\n  dup2\n    /* \"solidity_test/test3.sol\":1657:1683  abi.encodePacked(_id, _pw) */\n  add(0x20, mload(0x40))\n  tag_6\n  swap3\n  swap2\n  swap1\n  tag_7\n  jump\t// in\ntag_6:\n  mload(0x40)\n  0x20\n  dup2\n  dup4\n  sub\n  sub\n  dup2\n  mstore\n  swap1\n  0x40\n  mstore\n    /* \"solidity_test/test3.sol\":1647:1684  keccak256(abi.encodePacked(_id, _pw)) */\n  dup1\n  mload\n  swap1\n  0x20\n  add\n  keccak256\n    /* \"solidity_test/test3.sol\":1635:1639  user */\n  0x00\n    /* \"solidity_test/test3.sol\":1640:1643  _id */\n  dup4\n    /* \"solidity_test/test3.sol\":1635:1644  user[_id] */\n  mload(0x40)\n  tag_8\n  swap2\n  swap1\n  tag_9\n  jump\t// in\ntag_8:\n  swap1\n  dup2\n  mstore\n  0x20\n  add\n  mload(0x40)\n  dup1\n  swap2\n  sub\n  swap1\n  keccak256\n    /* \"solidity_test/test3.sol\":1635:1684  user[_id] = keccak256(abi.encodePacked(_id, _pw)) */\n  dup2\n  swap1\n  sstore\n  pop\n    /* \"solidity_test/test3.sol\":1574:1692  constructor(string memory _id, string memory _pw) {... */\n  pop\n  pop\n    /* \"solidity_test/test3.sol\":75:1765  contract TEST3 {... */\n  jump(tag_10)\n    /* \"#utility.yul\":7:82   */\ntag_11:\n    /* \"#utility.yul\":40:46   */\n  0x00\n    /* \"#utility.yul\":73:75   */\n  0x40\n    /* \"#utility.yul\":67:76   */\n  mload\n    /* \"#utility.yul\":57:76   */\n  swap1\n  pop\n    /* \"#utility.yul\":7:82   */\n  swap1\n  jump\t// out\n    /* \"#utility.yul\":88:205   */\ntag_12:\n    /* \"#utility.yul\":197:198   */\n  0x00\n    /* \"#utility.yul\":194:195   */\n  dup1\n    /* \"#utility.yul\":187:199   */\n  revert\n    /* \"#utility.yul\":211:328   */\ntag_13:\n    /* \"#utility.yul\":320:321   */\n  0x00\n    /* \"#utility.yul\":317:318   */\n  dup1\n    /* \"#utility.yul\":310:322   */\n  revert\n    /* \"#utility.yul\":334:451   */\ntag_14:\n    /* \"#utility.yul\":443:444   */\n  0x00\n    /* \"#utility.yul\":440:441   */\n  dup1\n    /* \"#utility.yul\":433:445   */\n  revert\n    /* \"#utility.yul\":457:574   */\ntag_15:\n    /* \"#utility.yul\":566:567   */\n  0x00\n    /* \"#utility.yul\":563:564   */\n  dup1\n    /* \"#utility.yul\":556:568   */\n  revert\n    /* \"#utility.yul\":580:682   */\ntag_16:\n    /* \"#utility.yul\":621:627   */\n  0x00\n    /* \"#utility.yul\":672:674   */\n  0x1f\n    /* \"#utility.yul\":668:675   */\n  not\n    /* \"#utility.yul\":663:665   */\n  0x1f\n    /* \"#utility.yul\":656:661   */\n  dup4\n    /* \"#utility.yul\":652:666   */\n  add\n    /* \"#utility.yul\":648:676   */\n  and\n    /* \"#utility.yul\":638:676   */\n  swap1\n  pop\n    /* \"#utility.yul\":580:682   */\n  swap2\n  swap1\n  pop\n  jump\t// out\n    /* \"#utility.yul\":688:868   */\ntag_17:\n    /* \"#utility.yul\":736:813   */\n  0x4e487b7100000000000000000000000000000000000000000000000000000000\n    /* \"#utility.yul\":733:734   */\n  0x00\n    /* \"#utility.yul\":726:814   */\n  mstore\n    /* \"#utility.yul\":833:837   */\n  0x41\n    /* \"#utility.yul\":830:831   */\n  0x04\n    /* \"#utility.yul\":823:838   */\n  mstore\n    /* \"#utility.yul\":857:861   */\n  0x24\n    /* \"#utility.yul\":854:855   */\n  0x00\n    /* \"#utility.yul\":847:862   */\n  revert\n    /* \"#utility.yul\":874:1155   */\ntag_18:\n    /* \"#utility.yul\":957:984   */\n  tag_36\n    /* \"#utility.yul\":979:983   */\n  dup3\n    /* \"#utility.yul\":957:984   */\n  tag_16\n  jump\t// in\ntag_36:\n    /* \"#utility.yul\":949:955   */\n  dup2\n    /* \"#utility.yul\":945:985   */\n  add\n    /* \"#utility.yul\":1087:1093   */\n  dup2\n    /* \"#utility.yul\":1075:1085   */\n  dup2\n    /* \"#utility.yul\":1072:1094   */\n  lt\n    /* \"#utility.yul\":1051:1069   */\n  0xffffffffffffffff\n    /* \"#utility.yul\":1039:1049   */\n  dup3\n    /* \"#utility.yul\":1036:1070   */\n  gt\n    /* \"#utility.yul\":1033:1095   */\n  or\n    /* \"#utility.yul\":1030:1118   */\n  iszero\n  tag_37\n  jumpi\n    /* \"#utility.yul\":1098:1116   */\n  tag_38\n  tag_17\n  jump\t// in\ntag_38:\n    /* \"#utility.yul\":1030:1118   */\ntag_37:\n    /* \"#utility.yul\":1138:1148   */\n  dup1\n    /* \"#utility.yul\":1134:1136   */\n  0x40\n    /* \"#utility.yul\":1127:1149   */\n  mstore\n    /* \"#utility.yul\":917:1155   */\n  pop\n    /* \"#utility.yul\":874:1155   */\n  pop\n  pop\n  jump\t// out\n    /* \"#utility.yul\":1161:1290   */\ntag_19:\n    /* \"#utility.yul\":1195:1201   */\n  0x00\n    /* \"#utility.yul\":1222:1242   */\n  tag_40\n  tag_11\n  jump\t// in\ntag_40:\n    /* \"#utility.yul\":1212:1242   */\n  swap1\n  pop\n    /* \"#utility.yul\":1251:1284   */\n  tag_41\n    /* \"#utility.yul\":1279:1283   */\n  dup3\n    /* \"#utility.yul\":1271:1277   */\n  dup3\n    /* \"#utility.yul\":1251:1284   */\n  tag_18\n  jump\t// in\ntag_41:\n    /* \"#utility.yul\":1161:1290   */\n  swap2\n  swap1\n  pop\n  jump\t// out\n    /* \"#utility.yul\":1296:1604   */\ntag_20:\n    /* \"#utility.yul\":1358:1362   */\n  0x00\n    /* \"#utility.yul\":1448:1466   */\n  0xffffffffffffffff\n    /* \"#utility.yul\":1440:1446   */\n  dup3\n    /* \"#utility.yul\":1437:1467   */\n  gt\n    /* \"#utility.yul\":1434:1490   */\n  iszero\n  tag_43\n  jumpi\n    /* \"#utility.yul\":1470:1488   */\n  tag_44\n  tag_17\n  jump\t// in\ntag_44:\n    /* \"#utility.yul\":1434:1490   */\ntag_43:\n    /* \"#utility.yul\":1508:1537   */\n  tag_45\n    /* \"#utility.yul\":1530:1536   */\n  dup3\n    /* \"#utility.yul\":1508:1537   */\n  tag_16\n  jump\t// in\ntag_45:\n    /* \"#utility.yul\":1500:1537   */\n  swap1\n  pop\n    /* \"#utility.yul\":1592:1596   */\n  0x20\n    /* \"#utility.yul\":1586:1590   */\n  dup2\n    /* \"#utility.yul\":1582:1597   */\n  add\n    /* \"#utility.yul\":1574:1597   */\n  swap1\n  pop\n    /* \"#utility.yul\":1296:1604   */\n  swap2\n  swap1\n  pop\n  jump\t// out\n    /* \"#utility.yul\":1610:1749   */\ntag_21:\n    /* \"#utility.yul\":1699:1705   */\n  dup3\n    /* \"#utility.yul\":1694:1697   */\n  dup2\n    /* \"#utility.yul\":1689:1692   */\n  dup4\n    /* \"#utility.yul\":1683:1706   */\n  mcopy\n    /* \"#utility.yul\":1740:1741   */\n  0x00\n    /* \"#utility.yul\":1731:1737   */\n  dup4\n    /* \"#utility.yul\":1726:1729   */\n  dup4\n    /* \"#utility.yul\":1722:1738   */\n  add\n    /* \"#utility.yul\":1715:1742   */\n  mstore\n    /* \"#utility.yul\":1610:1749   */\n  pop\n  pop\n  pop\n  jump\t// out\n    /* \"#utility.yul\":1755:2189   */\ntag_22:\n    /* \"#utility.yul\":1844:1849   */\n  0x00\n    /* \"#utility.yul\":1869:1935   */\n  tag_48\n    /* \"#utility.yul\":1885:1934   */\n  tag_49\n    /* \"#utility.yul\":1927:1933   */\n  dup5\n    /* \"#utility.yul\":1885:1934   */\n  tag_20\n  jump\t// in\ntag_49:\n    /* \"#utility.yul\":1869:1935   */\n  tag_19\n  jump\t// in\ntag_48:\n    /* \"#utility.yul\":1860:1935   */\n  swap1\n  pop\n    /* \"#utility.yul\":1958:1964   */\n  dup3\n    /* \"#utility.yul\":1951:1956   */\n  dup2\n    /* \"#utility.yul\":1944:1965   */\n  mstore\n    /* \"#utility.yul\":1996:2000   */\n  0x20\n    /* \"#utility.yul\":1989:1994   */\n  dup2\n    /* \"#utility.yul\":1985:2001   */\n  add\n    /* \"#utility.yul\":2034:2037   */\n  dup5\n    /* \"#utility.yul\":2025:2031   */\n  dup5\n    /* \"#utility.yul\":2020:2023   */\n  dup5\n    /* \"#utility.yul\":2016:2032   */\n  add\n    /* \"#utility.yul\":2013:2038   */\n  gt\n    /* \"#utility.yul\":2010:2122   */\n  iszero\n  tag_50\n  jumpi\n    /* \"#utility.yul\":2041:2120   */\n  tag_51\n  tag_15\n  jump\t// in\ntag_51:\n    /* \"#utility.yul\":2010:2122   */\ntag_50:\n    /* \"#utility.yul\":2131:2183   */\n  tag_52\n    /* \"#utility.yul\":2176:2182   */\n  dup5\n    /* \"#utility.yul\":2171:2174   */\n  dup3\n    /* \"#utility.yul\":2166:2169   */\n  dup6\n    /* \"#utility.yul\":2131:2183   */\n  tag_21\n  jump\t// in\ntag_52:\n    /* \"#utility.yul\":1850:2189   */\n  pop\n    /* \"#utility.yul\":1755:2189   */\n  swap4\n  swap3\n  pop\n  pop\n  pop\n  jump\t// out\n    /* \"#utility.yul\":2209:2564   */\ntag_23:\n    /* \"#utility.yul\":2276:2281   */\n  0x00\n    /* \"#utility.yul\":2325:2328   */\n  dup3\n    /* \"#utility.yul\":2318:2322   */\n  0x1f\n    /* \"#utility.yul\":2310:2316   */\n  dup4\n    /* \"#utility.yul\":2306:2323   */\n  add\n    /* \"#utility.yul\":2302:2329   */\n  slt\n    /* \"#utility.yul\":2292:2414   */\n  tag_54\n  jumpi\n    /* \"#utility.yul\":2333:2412   */\n  tag_55\n  tag_14\n  jump\t// in\ntag_55:\n    /* \"#utility.yul\":2292:2414   */\ntag_54:\n    /* \"#utility.yul\":2443:2449   */\n  dup2\n    /* \"#utility.yul\":2437:2450   */\n  mload\n    /* \"#utility.yul\":2468:2558   */\n  tag_56\n    /* \"#utility.yul\":2554:2557   */\n  dup5\n    /* \"#utility.yul\":2546:2552   */\n  dup3\n    /* \"#utility.yul\":2539:2543   */\n  0x20\n    /* \"#utility.yul\":2531:2537   */\n  dup7\n    /* \"#utility.yul\":2527:2544   */\n  add\n    /* \"#utility.yul\":2468:2558   */\n  tag_22\n  jump\t// in\ntag_56:\n    /* \"#utility.yul\":2459:2558   */\n  swap2\n  pop\n    /* \"#utility.yul\":2282:2564   */\n  pop\n    /* \"#utility.yul\":2209:2564   */\n  swap3\n  swap2\n  pop\n  pop\n  jump\t// out\n    /* \"#utility.yul\":2570:3423   */\ntag_3:\n    /* \"#utility.yul\":2669:2675   */\n  0x00\n    /* \"#utility.yul\":2677:2683   */\n  dup1\n    /* \"#utility.yul\":2726:2728   */\n  0x40\n    /* \"#utility.yul\":2714:2723   */\n  dup4\n    /* \"#utility.yul\":2705:2712   */\n  dup6\n    /* \"#utility.yul\":2701:2724   */\n  sub\n    /* \"#utility.yul\":2697:2729   */\n  slt\n    /* \"#utility.yul\":2694:2813   */\n  iszero\n  tag_58\n  jumpi\n    /* \"#utility.yul\":2732:2811   */\n  tag_59\n  tag_12\n  jump\t// in\ntag_59:\n    /* \"#utility.yul\":2694:2813   */\ntag_58:\n    /* \"#utility.yul\":2873:2874   */\n  0x00\n    /* \"#utility.yul\":2862:2871   */\n  dup4\n    /* \"#utility.yul\":2858:2875   */\n  add\n    /* \"#utility.yul\":2852:2876   */\n  mload\n    /* \"#utility.yul\":2903:2921   */\n  0xffffffffffffffff\n    /* \"#utility.yul\":2895:2901   */\n  dup2\n    /* \"#utility.yul\":2892:2922   */\n  gt\n    /* \"#utility.yul\":2889:3006   */\n  iszero\n  tag_60\n  jumpi\n    /* \"#utility.yul\":2925:3004   */\n  tag_61\n  tag_13\n  jump\t// in\ntag_61:\n    /* \"#utility.yul\":2889:3006   */\ntag_60:\n    /* \"#utility.yul\":3030:3104   */\n  tag_62\n    /* \"#utility.yul\":3096:3103   */\n  dup6\n    /* \"#utility.yul\":3087:3093   */\n  dup3\n    /* \"#utility.yul\":3076:3085   */\n  dup7\n    /* \"#utility.yul\":3072:3094   */\n  add\n    /* \"#utility.yul\":3030:3104   */\n  tag_23\n  jump\t// in\ntag_62:\n    /* \"#utility.yul\":3020:3104   */\n  swap3\n  pop\n    /* \"#utility.yul\":2823:3114   */\n  pop\n    /* \"#utility.yul\":3174:3176   */\n  0x20\n    /* \"#utility.yul\":3163:3172   */\n  dup4\n    /* \"#utility.yul\":3159:3177   */\n  add\n    /* \"#utility.yul\":3153:3178   */\n  mload\n    /* \"#utility.yul\":3205:3223   */\n  0xffffffffffffffff\n    /* \"#utility.yul\":3197:3203   */\n  dup2\n    /* \"#utility.yul\":3194:3224   */\n  gt\n    /* \"#utility.yul\":3191:3308   */\n  iszero\n  tag_63\n  jumpi\n    /* \"#utility.yul\":3227:3306   */\n  tag_64\n  tag_13\n  jump\t// in\ntag_64:\n    /* \"#utility.yul\":3191:3308   */\ntag_63:\n    /* \"#utility.yul\":3332:3406   */\n  tag_65\n    /* \"#utility.yul\":3398:3405   */\n  dup6\n    /* \"#utility.yul\":3389:3395   */\n  dup3\n    /* \"#utility.yul\":3378:3387   */\n  dup7\n    /* \"#utility.yul\":3374:3396   */\n  add\n    /* \"#utility.yul\":3332:3406   */\n  tag_23\n  jump\t// in\ntag_65:\n    /* \"#utility.yul\":3322:3406   */\n  swap2\n  pop\n    /* \"#utility.yul\":3124:3416   */\n  pop\n    /* \"#utility.yul\":2570:3423   */\n  swap3\n  pop\n  swap3\n  swap1\n  pop\n  jump\t// out\n    /* \"#utility.yul\":3429:3528   */\ntag_24:\n    /* \"#utility.yul\":3481:3487   */\n  0x00\n    /* \"#utility.yul\":3515:3520   */\n  dup2\n    /* \"#utility.yul\":3509:3521   */\n  mload\n    /* \"#utility.yul\":3499:3521   */\n  swap1\n  pop\n    /* \"#utility.yul\":3429:3528   */\n  swap2\n  swap1\n  pop\n  jump\t// out\n    /* \"#utility.yul\":3534:3682   */\ntag_25:\n    /* \"#utility.yul\":3636:3647   */\n  0x00\n    /* \"#utility.yul\":3673:3676   */\n  dup2\n    /* \"#utility.yul\":3658:3676   */\n  swap1\n  pop\n    /* \"#utility.yul\":3534:3682   */\n  swap3\n  swap2\n  pop\n  pop\n  jump\t// out\n    /* \"#utility.yul\":3688:4078   */\ntag_26:\n    /* \"#utility.yul\":3794:3797   */\n  0x00\n    /* \"#utility.yul\":3822:3861   */\n  tag_69\n    /* \"#utility.yul\":3855:3860   */\n  dup3\n    /* \"#utility.yul\":3822:3861   */\n  tag_24\n  jump\t// in\ntag_69:\n    /* \"#utility.yul\":3877:3966   */\n  tag_70\n    /* \"#utility.yul\":3959:3965   */\n  dup2\n    /* \"#utility.yul\":3954:3957   */\n  dup6\n    /* \"#utility.yul\":3877:3966   */\n  tag_25\n  jump\t// in\ntag_70:\n    /* \"#utility.yul\":3870:3966   */\n  swap4\n  pop\n    /* \"#utility.yul\":3975:4040   */\n  tag_71\n    /* \"#utility.yul\":4033:4039   */\n  dup2\n    /* \"#utility.yul\":4028:4031   */\n  dup6\n    /* \"#utility.yul\":4021:4025   */\n  0x20\n    /* \"#utility.yul\":4014:4019   */\n  dup7\n    /* \"#utility.yul\":4010:4026   */\n  add\n    /* \"#utility.yul\":3975:4040   */\n  tag_21\n  jump\t// in\ntag_71:\n    /* \"#utility.yul\":4065:4071   */\n  dup1\n    /* \"#utility.yul\":4060:4063   */\n  dup5\n    /* \"#utility.yul\":4056:4072   */\n  add\n    /* \"#utility.yul\":4049:4072   */\n  swap2\n  pop\n    /* \"#utility.yul\":3798:4078   */\n  pop\n    /* \"#utility.yul\":3688:4078   */\n  swap3\n  swap2\n  pop\n  pop\n  jump\t// out\n    /* \"#utility.yul\":4084:4519   */\ntag_7:\n    /* \"#utility.yul\":4264:4267   */\n  0x00\n    /* \"#utility.yul\":4286:4381   */\n  tag_73\n    /* \"#utility.yul\":4377:4380   */\n  dup3\n    /* \"#utility.yul\":4368:4374   */\n  dup6\n    /* \"#utility.yul\":4286:4381   */\n  tag_26\n  jump\t// in\ntag_73:\n    /* \"#utility.yul\":4279:4381   */\n  swap2\n  pop\n    /* \"#utility.yul\":4398:4493   */\n  tag_74\n    /* \"#utility.yul\":4489:4492   */\n  dup3\n    /* \"#utility.yul\":4480:4486   */\n  dup5\n    /* \"#utility.yul\":4398:4493   */\n  tag_26\n  jump\t// in\ntag_74:\n    /* \"#utility.yul\":4391:4493   */\n  swap2\n  pop\n    /* \"#utility.yul\":4510:4513   */\n  dup2\n    /* \"#utility.yul\":4503:4513   */\n  swap1\n  pop\n    /* \"#utility.yul\":4084:4519   */\n  swap4\n  swap3\n  pop\n  pop\n  pop\n  jump\t// out\n    /* \"#utility.yul\":4525:4800   */\ntag_9:\n    /* \"#utility.yul\":4657:4660   */\n  0x00\n    /* \"#utility.yul\":4679:4774   */\n  tag_76\n    /* \"#utility.yul\":4770:4773   */\n  dup3\n    /* \"#utility.yul\":4761:4767   */\n  dup5\n    /* \"#utility.yul\":4679:4774   */\n  tag_26\n  jump\t// in\ntag_76:\n    /* \"#utility.yul\":4672:4774   */\n  swap2\n  pop\n    /* \"#utility.yul\":4791:4794   */\n  dup2\n    /* \"#utility.yul\":4784:4794   */\n  swap1\n  pop\n    /* \"#utility.yul\":4525:4800   */\n  swap3\n  swap2\n  pop\n  pop\n  jump\t// out\n    /* \"solidity_test/test3.sol\":75:1765  contract TEST3 {... */\ntag_10:\n  dataSize(sub_0)\n  dup1\n  dataOffset(sub_0)\n  0x00\n  codecopy\n  0x00\n  return\nstop\n\nsub_0: assembly {\n        /* \"solidity_test/test3.sol\":75:1765  contract TEST3 {... */\n      mstore(0x40, 0x80)\n      callvalue\n      dup1\n      iszero\n      tag_1\n      jumpi\n      0x00\n      dup1\n      revert\n    tag_1:\n      pop\n      jumpi(tag_2, lt(calldatasize, 0x04))\n      shr(0xe0, calldataload(0x00))\n      dup1\n      0x92856185\n      eq\n      tag_3\n      jumpi\n    tag_2:\n      0x00\n      dup1\n      revert\n        /* \"solidity_test/test3.sol\":1700:1762  function isLogin() public view returns(bool){... */\n    tag_3:\n      tag_4\n      tag_5\n      jump\t// in\n    tag_4:\n      mload(0x40)\n      tag_6\n      swap2\n      swap1\n      tag_7\n      jump\t// in\n    tag_6:\n      mload(0x40)\n      dup1\n      swap2\n      sub\n      swap1\n      return\n    tag_5:\n        /* \"solidity_test/test3.sol\":1739:1743  bool */\n      0x00\n        /* \"solidity_test/test3.sol\":1700:1762  function isLogin() public view returns(bool){... */\n      swap1\n      jump\t// out\n        /* \"#utility.yul\":7:97   */\n    tag_9:\n        /* \"#utility.yul\":41:48   */\n      0x00\n        /* \"#utility.yul\":84:89   */\n      dup2\n        /* \"#utility.yul\":77:90   */\n      iszero\n        /* \"#utility.yul\":70:91   */\n      iszero\n        /* \"#utility.yul\":59:91   */\n      swap1\n      pop\n        /* \"#utility.yul\":7:97   */\n      swap2\n      swap1\n      pop\n      jump\t// out\n        /* \"#utility.yul\":103:212   */\n    tag_10:\n        /* \"#utility.yul\":184:205   */\n      tag_14\n        /* \"#utility.yul\":199:204   */\n      dup2\n        /* \"#utility.yul\":184:205   */\n      tag_9\n      jump\t// in\n    tag_14:\n        /* \"#utility.yul\":179:182   */\n      dup3\n        /* \"#utility.yul\":172:206   */\n      mstore\n        /* \"#utility.yul\":103:212   */\n      pop\n      pop\n      jump\t// out\n        /* \"#utility.yul\":218:428   */\n    tag_7:\n        /* \"#utility.yul\":305:309   */\n      0x00\n        /* \"#utility.yul\":343:345   */\n      0x20\n        /* \"#utility.yul\":332:341   */\n      dup3\n        /* \"#utility.yul\":328:346   */\n      add\n        /* \"#utility.yul\":320:346   */\n      swap1\n      pop\n        /* \"#utility.yul\":356:421   */\n      tag_16\n        /* \"#utility.yul\":418:419   */\n      0x00\n        /* \"#utility.yul\":407:416   */\n      dup4\n        /* \"#utility.yul\":403:420   */\n      add\n        /* \"#utility.yul\":394:400   */\n      dup5\n        /* \"#utility.yul\":356:421   */\n      tag_10\n      jump\t// in\n    tag_16:\n        /* \"#utility.yul\":218:428   */\n      swap3\n      swap2\n      pop\n      pop\n      jump\t// out\n\n    auxdata: 0xa2646970667358221220b9bf7105511901cb0a158abec79bf5a405703b99ad24a29acdac0e9bf33f60bd64736f6c63430008190033\n}\n",
				"bytecode": {
					"linkReferences": {},
					"object": "608060405234801561000f575f80fd5b5060405161037b38038061037b833981810160405281019061003191906101cf565b8181604051602001610044929190610289565b604051602081830303815290604052805190602001205f8360405161006991906102ac565b90815260200160405180910390208190555050506102c2565b5f604051905090565b5f80fd5b5f80fd5b5f80fd5b5f80fd5b5f601f19601f8301169050919050565b7f4e487b71000000000000000000000000000000000000000000000000000000005f52604160045260245ffd5b6100e18261009b565b810181811067ffffffffffffffff82111715610100576100ff6100ab565b5b80604052505050565b5f610112610082565b905061011e82826100d8565b919050565b5f67ffffffffffffffff82111561013d5761013c6100ab565b5b6101468261009b565b9050602081019050919050565b8281835e5f83830152505050565b5f61017361016e84610123565b610109565b90508281526020810184848401111561018f5761018e610097565b5b61019a848285610153565b509392505050565b5f82601f8301126101b6576101b5610093565b5b81516101c6848260208601610161565b91505092915050565b5f80604083850312156101e5576101e461008b565b5b5f83015167ffffffffffffffff8111156102025761020161008f565b5b61020e858286016101a2565b925050602083015167ffffffffffffffff81111561022f5761022e61008f565b5b61023b858286016101a2565b9150509250929050565b5f81519050919050565b5f81905092915050565b5f61026382610245565b61026d818561024f565b935061027d818560208601610153565b80840191505092915050565b5f6102948285610259565b91506102a08284610259565b91508190509392505050565b5f6102b78284610259565b915081905092915050565b60ad806102ce5f395ff3fe6080604052348015600e575f80fd5b50600436106026575f3560e01c80639285618514602a575b5f80fd5b60306044565b604051603b91906060565b60405180910390f35b5f90565b5f8115159050919050565b605a816048565b82525050565b5f60208201905060715f8301846053565b9291505056fea2646970667358221220b9bf7105511901cb0a158abec79bf5a405703b99ad24a29acdac0e9bf33f60bd64736f6c63430008190033",
					"opcodes": "PUSH1 0x80 PUSH1 0x40 MSTORE CALLVALUE DUP1 ISZERO PUSH2 0xF JUMPI PUSH0 DUP1 REVERT JUMPDEST POP PUSH1 0x40 MLOAD PUSH2 0x37B CODESIZE SUB DUP1 PUSH2 0x37B DUP4 CODECOPY DUP2 DUP2 ADD PUSH1 0x40 MSTORE DUP2 ADD SWAP1 PUSH2 0x31 SWAP2 SWAP1 PUSH2 0x1CF JUMP JUMPDEST DUP2 DUP2 PUSH1 0x40 MLOAD PUSH1 0x20 ADD PUSH2 0x44 SWAP3 SWAP2 SWAP1 PUSH2 0x289 JUMP JUMPDEST PUSH1 0x40 MLOAD PUSH1 0x20 DUP2 DUP4 SUB SUB DUP2 MSTORE SWAP1 PUSH1 0x40 MSTORE DUP1 MLOAD SWAP1 PUSH1 0x20 ADD KECCAK256 PUSH0 DUP4 PUSH1 0x40 MLOAD PUSH2 0x69 SWAP2 SWAP1 PUSH2 0x2AC JUMP JUMPDEST SWAP1 DUP2 MSTORE PUSH1 0x20 ADD PUSH1 0x40 MLOAD DUP1 SWAP2 SUB SWAP1 KECCAK256 DUP2 SWAP1 SSTORE POP POP POP PUSH2 0x2C2 JUMP JUMPDEST PUSH0 PUSH1 0x40 MLOAD SWAP1 POP SWAP1 JUMP JUMPDEST PUSH0 DUP1 REVERT JUMPDEST PUSH0 DUP1 REVERT JUMPDEST PUSH0 DUP1 REVERT JUMPDEST PUSH0 DUP1 REVERT JUMPDEST PUSH0 PUSH1 0x1F NOT PUSH1 0x1F DUP4 ADD AND SWAP1 POP SWAP2 SWAP1 POP JUMP JUMPDEST PUSH32 0x4E487B7100000000000000000000000000000000000000000000000000000000 PUSH0 MSTORE PUSH1 0x41 PUSH1 0x4 MSTORE PUSH1 0x24 PUSH0 REVERT JUMPDEST PUSH2 0xE1 DUP3 PUSH2 0x9B JUMP JUMPDEST DUP2 ADD DUP2 DUP2 LT PUSH8 0xFFFFFFFFFFFFFFFF DUP3 GT OR ISZERO PUSH2 0x100 JUMPI PUSH2 0xFF PUSH2 0xAB JUMP JUMPDEST JUMPDEST DUP1 PUSH1 0x40 MSTORE POP POP POP JUMP JUMPDEST PUSH0 PUSH2 0x112 PUSH2 0x82 JUMP JUMPDEST SWAP1 POP PUSH2 0x11E DUP3 DUP3 PUSH2 0xD8 JUMP JUMPDEST SWAP2 SWAP1 POP JUMP JUMPDEST PUSH0 PUSH8 0xFFFFFFFFFFFFFFFF DUP3 GT ISZERO PUSH2 0x13D JUMPI PUSH2 0x13C PUSH2 0xAB JUMP JUMPDEST JUMPDEST PUSH2 0x146 DUP3 PUSH2 0x9B JUMP JUMPDEST SWAP1 POP PUSH1 0x20 DUP2 ADD SWAP1 POP SWAP2 SWAP1 POP JUMP JUMPDEST DUP3 DUP2 DUP4 MCOPY PUSH0 DUP4 DUP4 ADD MSTORE POP POP POP JUMP JUMPDEST PUSH0 PUSH2 0x173 PUSH2 0x16E DUP5 PUSH2 0x123 JUMP JUMPDEST PUSH2 0x109 JUMP JUMPDEST SWAP1 POP DUP3 DUP2 MSTORE PUSH1 0x20 DUP2 ADD DUP5 DUP5 DUP5 ADD GT ISZERO PUSH2 0x18F JUMPI PUSH2 0x18E PUSH2 0x97 JUMP JUMPDEST JUMPDEST PUSH2 0x19A DUP5 DUP3 DUP6 PUSH2 0x153 JUMP JUMPDEST POP SWAP4 SWAP3 POP POP POP JUMP JUMPDEST PUSH0 DUP3 PUSH1 0x1F DUP4 ADD SLT PUSH2 0x1B6 JUMPI PUSH2 0x1B5 PUSH2 0x93 JUMP JUMPDEST JUMPDEST DUP2 MLOAD PUSH2 0x1C6 DUP5 DUP3 PUSH1 0x20 DUP7 ADD PUSH2 0x161 JUMP JUMPDEST SWAP2 POP POP SWAP3 SWAP2 POP POP JUMP JUMPDEST PUSH0 DUP1 PUSH1 0x40 DUP4 DUP6 SUB SLT ISZERO PUSH2 0x1E5 JUMPI PUSH2 0x1E4 PUSH2 0x8B JUMP JUMPDEST JUMPDEST PUSH0 DUP4 ADD MLOAD PUSH8 0xFFFFFFFFFFFFFFFF DUP2 GT ISZERO PUSH2 0x202 JUMPI PUSH2 0x201 PUSH2 0x8F JUMP JUMPDEST JUMPDEST PUSH2 0x20E DUP6 DUP3 DUP7 ADD PUSH2 0x1A2 JUMP JUMPDEST SWAP3 POP POP PUSH1 0x20 DUP4 ADD MLOAD PUSH8 0xFFFFFFFFFFFFFFFF DUP2 GT ISZERO PUSH2 0x22F JUMPI PUSH2 0x22E PUSH2 0x8F JUMP JUMPDEST JUMPDEST PUSH2 0x23B DUP6 DUP3 DUP7 ADD PUSH2 0x1A2 JUMP JUMPDEST SWAP2 POP POP SWAP3 POP SWAP3 SWAP1 POP JUMP JUMPDEST PUSH0 DUP2 MLOAD SWAP1 POP SWAP2 SWAP1 POP JUMP JUMPDEST PUSH0 DUP2 SWAP1 POP SWAP3 SWAP2 POP POP JUMP JUMPDEST PUSH0 PUSH2 0x263 DUP3 PUSH2 0x245 JUMP JUMPDEST PUSH2 0x26D DUP2 DUP6 PUSH2 0x24F JUMP JUMPDEST SWAP4 POP PUSH2 0x27D DUP2 DUP6 PUSH1 0x20 DUP7 ADD PUSH2 0x153 JUMP JUMPDEST DUP1 DUP5 ADD SWAP2 POP POP SWAP3 SWAP2 POP POP JUMP JUMPDEST PUSH0 PUSH2 0x294 DUP3 DUP6 PUSH2 0x259 JUMP JUMPDEST SWAP2 POP PUSH2 0x2A0 DUP3 DUP5 PUSH2 0x259 JUMP JUMPDEST SWAP2 POP DUP2 SWAP1 POP SWAP4 SWAP3 POP POP POP JUMP JUMPDEST PUSH0 PUSH2 0x2B7 DUP3 DUP5 PUSH2 0x259 JUMP JUMPDEST SWAP2 POP DUP2 SWAP1 POP SWAP3 SWAP2 POP POP JUMP JUMPDEST PUSH1 0xAD DUP1 PUSH2 0x2CE PUSH0 CODECOPY PUSH0 RETURN INVALID PUSH1 0x80 PUSH1 0x40 MSTORE CALLVALUE DUP1 ISZERO PUSH1 0xE JUMPI PUSH0 DUP1 REVERT JUMPDEST POP PUSH1 0x4 CALLDATASIZE LT PUSH1 0x26 JUMPI PUSH0 CALLDATALOAD PUSH1 0xE0 SHR DUP1 PUSH4 0x92856185 EQ PUSH1 0x2A JUMPI JUMPDEST PUSH0 DUP1 REVERT JUMPDEST PUSH1 0x30 PUSH1 0x44 JUMP JUMPDEST PUSH1 0x40 MLOAD PUSH1 0x3B SWAP2 SWAP1 PUSH1 0x60 JUMP JUMPDEST PUSH1 0x40 MLOAD DUP1 SWAP2 SUB SWAP1 RETURN JUMPDEST PUSH0 SWAP1 JUMP JUMPDEST PUSH0 DUP2 ISZERO ISZERO SWAP1 POP SWAP2 SWAP1 POP JUMP JUMPDEST PUSH1 0x5A DUP2 PUSH1 0x48 JUMP JUMPDEST DUP3 MSTORE POP POP JUMP JUMPDEST PUSH0 PUSH1 0x20 DUP3 ADD SWAP1 POP PUSH1 0x71 PUSH0 DUP4 ADD DUP5 PUSH1 0x53 JUMP JUMPDEST SWAP3 SWAP2 POP POP JUMP INVALID LOG2 PUSH5 0x6970667358 0x22 SLT KECCAK256 0xB9 0xBF PUSH18 0x5511901CB0A158ABEC79BF5A405703B99AD 0x24 LOG2 SWAP11 0xCD 0xAC 0xE SWAP12 RETURN EXTCODEHASH PUSH1 0xBD PUSH5 0x736F6C6343 STOP ADDMOD NOT STOP CALLER "
				},
				"gasEstimates": {
					"creation": {
						"codeDepositCost": "34600",
						"executionCost": "infinite",
						"totalCost": "infinite"
					},
					"external": {
						"isLogin()": "308"
					}
				},
				"methodIdentifiers": {
					"isLogin()": "92856185"
				}
			},
			"storageLayout": {
				"storage": [
					{
						"astId": 5,
						"contract": "solidity_test/test3.sol:TEST3",
						"label": "user",
						"offset": 0,
						"slot": "0",
						"type": "t_mapping(t_string_memory_ptr,t_bytes32)"
					}
				],
				"types": {
					"t_bytes32": {
						"encoding": "inplace",
						"label": "bytes32",
						"numberOfBytes": "32"
					},
					"t_mapping(t_string_memory_ptr,t_bytes32)": {
						"encoding": "mapping",
						"key": "t_string_memory_ptr",
						"label": "mapping(string => bytes32)",
						"numberOfBytes": "32",
						"value": "t_bytes32"
					},
					"t_string_memory_ptr": {
						"encoding": "bytes",
						"label": "string",
						"numberOfBytes": "32"
					}
				}
			},
			"userdoc": {
				"kind": "user",
				"methods": {},
				"version": 1
			}
		}
	}
}