{
	"solidity_test/test3.sol": {
		"TEST3": {
			"abi": [
				{
					"inputs": [
						{
							"internalType": "string",
							"name": "_id",
							"type": "string"
						}
					],
					"name": "getUser",
					"outputs": [
						{
							"internalType": "bytes32",
							"name": "",
							"type": "bytes32"
						},
						{
							"internalType": "bool",
							"name": "",
							"type": "bool"
						}
					],
					"stateMutability": "view",
					"type": "function"
				},
				{
					"inputs": [
						{
							"internalType": "string",
							"name": "_id",
							"type": "string"
						},
						{
							"internalType": "string",
							"name": "_pw",
							"type": "string"
						}
					],
					"name": "isLogin",
					"outputs": [
						{
							"internalType": "string",
							"name": "",
							"type": "string"
						}
					],
					"stateMutability": "nonpayable",
					"type": "function"
				},
				{
					"inputs": [
						{
							"internalType": "string",
							"name": "_id",
							"type": "string"
						},
						{
							"internalType": "string",
							"name": "_pw",
							"type": "string"
						}
					],
					"name": "signUp",
					"outputs": [],
					"stateMutability": "nonpayable",
					"type": "function"
				}
			],
			"devdoc": {
				"kind": "dev",
				"methods": {},
				"version": 1
			},
			"evm": {
				"assembly": "    /* \"solidity_test/test3.sol\":75:2856  contract TEST3 {... */\n  mstore(0x40, 0x80)\n  callvalue\n  dup1\n  iszero\n  tag_1\n  jumpi\n  0x00\n  dup1\n  revert\ntag_1:\n  pop\n  dataSize(sub_0)\n  dup1\n  dataOffset(sub_0)\n  0x00\n  codecopy\n  0x00\n  return\nstop\n\nsub_0: assembly {\n        /* \"solidity_test/test3.sol\":75:2856  contract TEST3 {... */\n      mstore(0x40, 0x80)\n      callvalue\n      dup1\n      iszero\n      tag_1\n      jumpi\n      0x00\n      dup1\n      revert\n    tag_1:\n      pop\n      jumpi(tag_2, lt(calldatasize, 0x04))\n      shr(0xe0, calldataload(0x00))\n      dup1\n      0x31feb671\n      eq\n      tag_3\n      jumpi\n      dup1\n      0x7c08e38a\n      eq\n      tag_4\n      jumpi\n      dup1\n      0xa469a332\n      eq\n      tag_5\n      jumpi\n    tag_2:\n      0x00\n      dup1\n      revert\n        /* \"solidity_test/test3.sol\":2717:2836  function getUser(string memory _id) public view returns(bytes32, bool){... */\n    tag_3:\n      tag_6\n      0x04\n      dup1\n      calldatasize\n      sub\n      dup2\n      add\n      swap1\n      tag_7\n      swap2\n      swap1\n      tag_8\n      jump\t// in\n    tag_7:\n      tag_9\n      jump\t// in\n    tag_6:\n      mload(0x40)\n      tag_10\n      swap3\n      swap2\n      swap1\n      tag_11\n      jump\t// in\n    tag_10:\n      mload(0x40)\n      dup1\n      swap2\n      sub\n      swap1\n      return\n        /* \"solidity_test/test3.sol\":2242:2709  function isLogin(string memory _id, string memory _pw) public returns(string memory){... */\n    tag_4:\n      tag_12\n      0x04\n      dup1\n      calldatasize\n      sub\n      dup2\n      add\n      swap1\n      tag_13\n      swap2\n      swap1\n      tag_14\n      jump\t// in\n    tag_13:\n      tag_15\n      jump\t// in\n    tag_12:\n      mload(0x40)\n      tag_16\n      swap2\n      swap1\n      tag_17\n      jump\t// in\n    tag_16:\n      mload(0x40)\n      dup1\n      swap2\n      sub\n      swap1\n      return\n        /* \"solidity_test/test3.sol\":1768:2015  function signUp(string memory _id, string memory _pw) public {... */\n    tag_5:\n      tag_18\n      0x04\n      dup1\n      calldatasize\n      sub\n      dup2\n      add\n      swap1\n      tag_19\n      swap2\n      swap1\n      tag_14\n      jump\t// in\n    tag_19:\n      tag_20\n      jump\t// in\n    tag_18:\n      stop\n        /* \"solidity_test/test3.sol\":2717:2836  function getUser(string memory _id) public view returns(bytes32, bool){... */\n    tag_9:\n        /* \"solidity_test/test3.sol\":2773:2780  bytes32 */\n      0x00\n        /* \"solidity_test/test3.sol\":2782:2786  bool */\n      dup1\n        /* \"solidity_test/test3.sol\":2806:2810  user */\n      0x00\n        /* \"solidity_test/test3.sol\":2811:2814  _id */\n      dup4\n        /* \"solidity_test/test3.sol\":2806:2815  user[_id] */\n      mload(0x40)\n      tag_22\n      swap2\n      swap1\n      tag_23\n      jump\t// in\n    tag_22:\n      swap1\n      dup2\n      mstore\n      0x20\n      add\n      mload(0x40)\n      dup1\n      swap2\n      sub\n      swap1\n      keccak256\n      sload\n        /* \"solidity_test/test3.sol\":2817:2822  login */\n      0x01\n        /* \"solidity_test/test3.sol\":2823:2826  _id */\n      dup5\n        /* \"solidity_test/test3.sol\":2817:2827  login[_id] */\n      mload(0x40)\n      tag_24\n      swap2\n      swap1\n      tag_23\n      jump\t// in\n    tag_24:\n      swap1\n      dup2\n      mstore\n      0x20\n      add\n      mload(0x40)\n      dup1\n      swap2\n      sub\n      swap1\n      keccak256\n      0x00\n      swap1\n      sload\n      swap1\n      0x0100\n      exp\n      swap1\n      div\n      0xff\n      and\n        /* \"solidity_test/test3.sol\":2798:2828  return (user[_id], login[_id]) */\n      swap2\n      pop\n      swap2\n      pop\n        /* \"solidity_test/test3.sol\":2717:2836  function getUser(string memory _id) public view returns(bytes32, bool){... */\n      swap2\n      pop\n      swap2\n      jump\t// out\n        /* \"solidity_test/test3.sol\":2242:2709  function isLogin(string memory _id, string memory _pw) public returns(string memory){... */\n    tag_15:\n        /* \"solidity_test/test3.sol\":2312:2325  string memory */\n      0x60\n        /* \"solidity_test/test3.sol\":2380:2383  _id */\n      dup3\n        /* \"solidity_test/test3.sol\":2385:2388  _pw */\n      dup3\n        /* \"solidity_test/test3.sol\":2363:2389  abi.encodePacked(_id, _pw) */\n      add(0x20, mload(0x40))\n      tag_26\n      swap3\n      swap2\n      swap1\n      tag_27\n      jump\t// in\n    tag_26:\n      mload(0x40)\n      0x20\n      dup2\n      dup4\n      sub\n      sub\n      dup2\n      mstore\n      swap1\n      0x40\n      mstore\n        /* \"solidity_test/test3.sol\":2353:2390  keccak256(abi.encodePacked(_id, _pw)) */\n      dup1\n      mload\n      swap1\n      0x20\n      add\n      keccak256\n        /* \"solidity_test/test3.sol\":2340:2344  user */\n      0x00\n        /* \"solidity_test/test3.sol\":2345:2348  _id */\n      dup5\n        /* \"solidity_test/test3.sol\":2340:2349  user[_id] */\n      mload(0x40)\n      tag_28\n      swap2\n      swap1\n      tag_23\n      jump\t// in\n    tag_28:\n      swap1\n      dup2\n      mstore\n      0x20\n      add\n      mload(0x40)\n      dup1\n      swap2\n      sub\n      swap1\n      keccak256\n      sload\n        /* \"solidity_test/test3.sol\":2340:2390  user[_id] == keccak256(abi.encodePacked(_id, _pw)) */\n      sub\n        /* \"solidity_test/test3.sol\":2337:2702  if(user[_id] == keccak256(abi.encodePacked(_id, _pw))) {... */\n      tag_29\n      jumpi\n        /* \"solidity_test/test3.sol\":2420:2424  true */\n      0x01\n        /* \"solidity_test/test3.sol\":2407:2412  login */\n      dup1\n        /* \"solidity_test/test3.sol\":2413:2416  _id */\n      dup5\n        /* \"solidity_test/test3.sol\":2407:2417  login[_id] */\n      mload(0x40)\n      tag_30\n      swap2\n      swap1\n      tag_23\n      jump\t// in\n    tag_30:\n      swap1\n      dup2\n      mstore\n      0x20\n      add\n      mload(0x40)\n      dup1\n      swap2\n      sub\n      swap1\n      keccak256\n      0x00\n        /* \"solidity_test/test3.sol\":2407:2424  login[_id] = true */\n      0x0100\n      exp\n      dup2\n      sload\n      dup2\n      0xff\n      mul\n      not\n      and\n      swap1\n      dup4\n      iszero\n      iszero\n      mul\n      or\n      swap1\n      sstore\n      pop\n        /* \"solidity_test/test3.sol\":2460:2461  0 */\n      0x00\n        /* \"solidity_test/test3.sol\":2439:2452  inputWrongIdx */\n      0x02\n        /* \"solidity_test/test3.sol\":2453:2456  _id */\n      dup5\n        /* \"solidity_test/test3.sol\":2439:2457  inputWrongIdx[_id] */\n      mload(0x40)\n      tag_31\n      swap2\n      swap1\n      tag_23\n      jump\t// in\n    tag_31:\n      swap1\n      dup2\n      mstore\n      0x20\n      add\n      mload(0x40)\n      dup1\n      swap2\n      sub\n      swap1\n      keccak256\n        /* \"solidity_test/test3.sol\":2439:2461  inputWrongIdx[_id] = 0 */\n      dup2\n      swap1\n      sstore\n      pop\n        /* \"solidity_test/test3.sol\":2476:2494  return \"logged in\" */\n      mload(0x40)\n      dup1\n      0x40\n      add\n      0x40\n      mstore\n      dup1\n      0x09\n      dup2\n      mstore\n      0x20\n      add\n      0x6c6f6767656420696e0000000000000000000000000000000000000000000000\n      dup2\n      mstore\n      pop\n      swap1\n      pop\n      jump(tag_25)\n        /* \"solidity_test/test3.sol\":2337:2702  if(user[_id] == keccak256(abi.encodePacked(_id, _pw))) {... */\n    tag_29:\n        /* \"solidity_test/test3.sol\":2536:2537  4 */\n      0x04\n        /* \"solidity_test/test3.sol\":2515:2528  inputWrongIdx */\n      0x02\n        /* \"solidity_test/test3.sol\":2529:2532  _id */\n      dup5\n        /* \"solidity_test/test3.sol\":2515:2533  inputWrongIdx[_id] */\n      mload(0x40)\n      tag_33\n      swap2\n      swap1\n      tag_23\n      jump\t// in\n    tag_33:\n      swap1\n      dup2\n      mstore\n      0x20\n      add\n      mload(0x40)\n      dup1\n      swap2\n      sub\n      swap1\n      keccak256\n      sload\n        /* \"solidity_test/test3.sol\":2515:2537  inputWrongIdx[_id] < 4 */\n      lt\n        /* \"solidity_test/test3.sol\":2512:2702  if(inputWrongIdx[_id] < 4) {... */\n      iszero\n      tag_34\n      jumpi\n        /* \"solidity_test/test3.sol\":2576:2577  1 */\n      0x01\n        /* \"solidity_test/test3.sol\":2554:2567  inputWrongIdx */\n      0x02\n        /* \"solidity_test/test3.sol\":2568:2571  _id */\n      dup5\n        /* \"solidity_test/test3.sol\":2554:2572  inputWrongIdx[_id] */\n      mload(0x40)\n      tag_35\n      swap2\n      swap1\n      tag_23\n      jump\t// in\n    tag_35:\n      swap1\n      dup2\n      mstore\n      0x20\n      add\n      mload(0x40)\n      dup1\n      swap2\n      sub\n      swap1\n      keccak256\n      0x00\n        /* \"solidity_test/test3.sol\":2554:2577  inputWrongIdx[_id] += 1 */\n      dup3\n      dup3\n      sload\n      tag_36\n      swap2\n      swap1\n      tag_37\n      jump\t// in\n    tag_36:\n      swap3\n      pop\n      pop\n      dup2\n      swap1\n      sstore\n      pop\n        /* \"solidity_test/test3.sol\":2592:2621  return \"input correct Id, Pw\" */\n      mload(0x40)\n      dup1\n      0x40\n      add\n      0x40\n      mstore\n      dup1\n      0x14\n      dup2\n      mstore\n      0x20\n      add\n      0x696e70757420636f72726563742049642c205077000000000000000000000000\n      dup2\n      mstore\n      pop\n      swap1\n      pop\n      jump(tag_25)\n        /* \"solidity_test/test3.sol\":2512:2702  if(inputWrongIdx[_id] < 4) {... */\n    tag_34:\n        /* \"solidity_test/test3.sol\":2654:2690  return \"your account will be locked\" */\n      mload(0x40)\n      dup1\n      0x40\n      add\n      0x40\n      mstore\n      dup1\n      0x1b\n      dup2\n      mstore\n      0x20\n      add\n      0x796f7572206163636f756e742077696c6c206265206c6f636b65640000000000\n      dup2\n      mstore\n      pop\n      swap1\n      pop\n        /* \"solidity_test/test3.sol\":2242:2709  function isLogin(string memory _id, string memory _pw) public returns(string memory){... */\n    tag_25:\n      swap3\n      swap2\n      pop\n      pop\n      jump\t// out\n        /* \"solidity_test/test3.sol\":1768:2015  function signUp(string memory _id, string memory _pw) public {... */\n    tag_20:\n        /* \"solidity_test/test3.sol\":1865:1866  0 */\n      0x00\n        /* \"solidity_test/test3.sol\":1857:1867  bytes32(0) */\n      dup1\n      shl\n        /* \"solidity_test/test3.sol\":1844:1848  user */\n      0x00\n        /* \"solidity_test/test3.sol\":1849:1852  _id */\n      dup4\n        /* \"solidity_test/test3.sol\":1844:1853  user[_id] */\n      mload(0x40)\n      tag_40\n      swap2\n      swap1\n      tag_23\n      jump\t// in\n    tag_40:\n      swap1\n      dup2\n      mstore\n      0x20\n      add\n      mload(0x40)\n      dup1\n      swap2\n      sub\n      swap1\n      keccak256\n      sload\n        /* \"solidity_test/test3.sol\":1844:1867  user[_id] == bytes32(0) */\n      sub\n        /* \"solidity_test/test3.sol\":1841:2008  if(user[_id] == bytes32(0)) {... */\n      tag_41\n      jumpi\n        /* \"solidity_test/test3.sol\":1923:1926  _id */\n      dup2\n        /* \"solidity_test/test3.sol\":1928:1931  _pw */\n      dup2\n        /* \"solidity_test/test3.sol\":1906:1932  abi.encodePacked(_id, _pw) */\n      add(0x20, mload(0x40))\n      tag_42\n      swap3\n      swap2\n      swap1\n      tag_27\n      jump\t// in\n    tag_42:\n      mload(0x40)\n      0x20\n      dup2\n      dup4\n      sub\n      sub\n      dup2\n      mstore\n      swap1\n      0x40\n      mstore\n        /* \"solidity_test/test3.sol\":1896:1933  keccak256(abi.encodePacked(_id, _pw)) */\n      dup1\n      mload\n      swap1\n      0x20\n      add\n      keccak256\n        /* \"solidity_test/test3.sol\":1884:1888  user */\n      0x00\n        /* \"solidity_test/test3.sol\":1889:1892  _id */\n      dup4\n        /* \"solidity_test/test3.sol\":1884:1893  user[_id] */\n      mload(0x40)\n      tag_43\n      swap2\n      swap1\n      tag_23\n      jump\t// in\n    tag_43:\n      swap1\n      dup2\n      mstore\n      0x20\n      add\n      mload(0x40)\n      dup1\n      swap2\n      sub\n      swap1\n      keccak256\n        /* \"solidity_test/test3.sol\":1884:1933  user[_id] = keccak256(abi.encodePacked(_id, _pw)) */\n      dup2\n      swap1\n      sstore\n      pop\n        /* \"solidity_test/test3.sol\":1841:2008  if(user[_id] == bytes32(0)) {... */\n      jump(tag_44)\n    tag_41:\n        /* \"solidity_test/test3.sol\":1967:1995  revert(\"user already exist\") */\n      mload(0x40)\n      0x08c379a000000000000000000000000000000000000000000000000000000000\n      dup2\n      mstore\n      0x04\n      add\n      tag_45\n      swap1\n      tag_46\n      jump\t// in\n    tag_45:\n      mload(0x40)\n      dup1\n      swap2\n      sub\n      swap1\n      revert\n        /* \"solidity_test/test3.sol\":1841:2008  if(user[_id] == bytes32(0)) {... */\n    tag_44:\n        /* \"solidity_test/test3.sol\":1768:2015  function signUp(string memory _id, string memory _pw) public {... */\n      pop\n      pop\n      jump\t// out\n        /* \"#utility.yul\":7:82   */\n    tag_47:\n        /* \"#utility.yul\":40:46   */\n      0x00\n        /* \"#utility.yul\":73:75   */\n      0x40\n        /* \"#utility.yul\":67:76   */\n      mload\n        /* \"#utility.yul\":57:76   */\n      swap1\n      pop\n        /* \"#utility.yul\":7:82   */\n      swap1\n      jump\t// out\n        /* \"#utility.yul\":88:205   */\n    tag_48:\n        /* \"#utility.yul\":197:198   */\n      0x00\n        /* \"#utility.yul\":194:195   */\n      dup1\n        /* \"#utility.yul\":187:199   */\n      revert\n        /* \"#utility.yul\":211:328   */\n    tag_49:\n        /* \"#utility.yul\":320:321   */\n      0x00\n        /* \"#utility.yul\":317:318   */\n      dup1\n        /* \"#utility.yul\":310:322   */\n      revert\n        /* \"#utility.yul\":334:451   */\n    tag_50:\n        /* \"#utility.yul\":443:444   */\n      0x00\n        /* \"#utility.yul\":440:441   */\n      dup1\n        /* \"#utility.yul\":433:445   */\n      revert\n        /* \"#utility.yul\":457:574   */\n    tag_51:\n        /* \"#utility.yul\":566:567   */\n      0x00\n        /* \"#utility.yul\":563:564   */\n      dup1\n        /* \"#utility.yul\":556:568   */\n      revert\n        /* \"#utility.yul\":580:682   */\n    tag_52:\n        /* \"#utility.yul\":621:627   */\n      0x00\n        /* \"#utility.yul\":672:674   */\n      0x1f\n        /* \"#utility.yul\":668:675   */\n      not\n        /* \"#utility.yul\":663:665   */\n      0x1f\n        /* \"#utility.yul\":656:661   */\n      dup4\n        /* \"#utility.yul\":652:666   */\n      add\n        /* \"#utility.yul\":648:676   */\n      and\n        /* \"#utility.yul\":638:676   */\n      swap1\n      pop\n        /* \"#utility.yul\":580:682   */\n      swap2\n      swap1\n      pop\n      jump\t// out\n        /* \"#utility.yul\":688:868   */\n    tag_53:\n        /* \"#utility.yul\":736:813   */\n      0x4e487b7100000000000000000000000000000000000000000000000000000000\n        /* \"#utility.yul\":733:734   */\n      0x00\n        /* \"#utility.yul\":726:814   */\n      mstore\n        /* \"#utility.yul\":833:837   */\n      0x41\n        /* \"#utility.yul\":830:831   */\n      0x04\n        /* \"#utility.yul\":823:838   */\n      mstore\n        /* \"#utility.yul\":857:861   */\n      0x24\n        /* \"#utility.yul\":854:855   */\n      0x00\n        /* \"#utility.yul\":847:862   */\n      revert\n        /* \"#utility.yul\":874:1155   */\n    tag_54:\n        /* \"#utility.yul\":957:984   */\n      tag_83\n        /* \"#utility.yul\":979:983   */\n      dup3\n        /* \"#utility.yul\":957:984   */\n      tag_52\n      jump\t// in\n    tag_83:\n        /* \"#utility.yul\":949:955   */\n      dup2\n        /* \"#utility.yul\":945:985   */\n      add\n        /* \"#utility.yul\":1087:1093   */\n      dup2\n        /* \"#utility.yul\":1075:1085   */\n      dup2\n        /* \"#utility.yul\":1072:1094   */\n      lt\n        /* \"#utility.yul\":1051:1069   */\n      0xffffffffffffffff\n        /* \"#utility.yul\":1039:1049   */\n      dup3\n        /* \"#utility.yul\":1036:1070   */\n      gt\n        /* \"#utility.yul\":1033:1095   */\n      or\n        /* \"#utility.yul\":1030:1118   */\n      iszero\n      tag_84\n      jumpi\n        /* \"#utility.yul\":1098:1116   */\n      tag_85\n      tag_53\n      jump\t// in\n    tag_85:\n        /* \"#utility.yul\":1030:1118   */\n    tag_84:\n        /* \"#utility.yul\":1138:1148   */\n      dup1\n        /* \"#utility.yul\":1134:1136   */\n      0x40\n        /* \"#utility.yul\":1127:1149   */\n      mstore\n        /* \"#utility.yul\":917:1155   */\n      pop\n        /* \"#utility.yul\":874:1155   */\n      pop\n      pop\n      jump\t// out\n        /* \"#utility.yul\":1161:1290   */\n    tag_55:\n        /* \"#utility.yul\":1195:1201   */\n      0x00\n        /* \"#utility.yul\":1222:1242   */\n      tag_87\n      tag_47\n      jump\t// in\n    tag_87:\n        /* \"#utility.yul\":1212:1242   */\n      swap1\n      pop\n        /* \"#utility.yul\":1251:1284   */\n      tag_88\n        /* \"#utility.yul\":1279:1283   */\n      dup3\n        /* \"#utility.yul\":1271:1277   */\n      dup3\n        /* \"#utility.yul\":1251:1284   */\n      tag_54\n      jump\t// in\n    tag_88:\n        /* \"#utility.yul\":1161:1290   */\n      swap2\n      swap1\n      pop\n      jump\t// out\n        /* \"#utility.yul\":1296:1604   */\n    tag_56:\n        /* \"#utility.yul\":1358:1362   */\n      0x00\n        /* \"#utility.yul\":1448:1466   */\n      0xffffffffffffffff\n        /* \"#utility.yul\":1440:1446   */\n      dup3\n        /* \"#utility.yul\":1437:1467   */\n      gt\n        /* \"#utility.yul\":1434:1490   */\n      iszero\n      tag_90\n      jumpi\n        /* \"#utility.yul\":1470:1488   */\n      tag_91\n      tag_53\n      jump\t// in\n    tag_91:\n        /* \"#utility.yul\":1434:1490   */\n    tag_90:\n        /* \"#utility.yul\":1508:1537   */\n      tag_92\n        /* \"#utility.yul\":1530:1536   */\n      dup3\n        /* \"#utility.yul\":1508:1537   */\n      tag_52\n      jump\t// in\n    tag_92:\n        /* \"#utility.yul\":1500:1537   */\n      swap1\n      pop\n        /* \"#utility.yul\":1592:1596   */\n      0x20\n        /* \"#utility.yul\":1586:1590   */\n      dup2\n        /* \"#utility.yul\":1582:1597   */\n      add\n        /* \"#utility.yul\":1574:1597   */\n      swap1\n      pop\n        /* \"#utility.yul\":1296:1604   */\n      swap2\n      swap1\n      pop\n      jump\t// out\n        /* \"#utility.yul\":1610:1758   */\n    tag_57:\n        /* \"#utility.yul\":1708:1714   */\n      dup3\n        /* \"#utility.yul\":1703:1706   */\n      dup2\n        /* \"#utility.yul\":1698:1701   */\n      dup4\n        /* \"#utility.yul\":1685:1715   */\n      calldatacopy\n        /* \"#utility.yul\":1749:1750   */\n      0x00\n        /* \"#utility.yul\":1740:1746   */\n      dup4\n        /* \"#utility.yul\":1735:1738   */\n      dup4\n        /* \"#utility.yul\":1731:1747   */\n      add\n        /* \"#utility.yul\":1724:1751   */\n      mstore\n        /* \"#utility.yul\":1610:1758   */\n      pop\n      pop\n      pop\n      jump\t// out\n        /* \"#utility.yul\":1764:2189   */\n    tag_58:\n        /* \"#utility.yul\":1842:1847   */\n      0x00\n        /* \"#utility.yul\":1867:1933   */\n      tag_95\n        /* \"#utility.yul\":1883:1932   */\n      tag_96\n        /* \"#utility.yul\":1925:1931   */\n      dup5\n        /* \"#utility.yul\":1883:1932   */\n      tag_56\n      jump\t// in\n    tag_96:\n        /* \"#utility.yul\":1867:1933   */\n      tag_55\n      jump\t// in\n    tag_95:\n        /* \"#utility.yul\":1858:1933   */\n      swap1\n      pop\n        /* \"#utility.yul\":1956:1962   */\n      dup3\n        /* \"#utility.yul\":1949:1954   */\n      dup2\n        /* \"#utility.yul\":1942:1963   */\n      mstore\n        /* \"#utility.yul\":1994:1998   */\n      0x20\n        /* \"#utility.yul\":1987:1992   */\n      dup2\n        /* \"#utility.yul\":1983:1999   */\n      add\n        /* \"#utility.yul\":2032:2035   */\n      dup5\n        /* \"#utility.yul\":2023:2029   */\n      dup5\n        /* \"#utility.yul\":2018:2021   */\n      dup5\n        /* \"#utility.yul\":2014:2030   */\n      add\n        /* \"#utility.yul\":2011:2036   */\n      gt\n        /* \"#utility.yul\":2008:2120   */\n      iszero\n      tag_97\n      jumpi\n        /* \"#utility.yul\":2039:2118   */\n      tag_98\n      tag_51\n      jump\t// in\n    tag_98:\n        /* \"#utility.yul\":2008:2120   */\n    tag_97:\n        /* \"#utility.yul\":2129:2183   */\n      tag_99\n        /* \"#utility.yul\":2176:2182   */\n      dup5\n        /* \"#utility.yul\":2171:2174   */\n      dup3\n        /* \"#utility.yul\":2166:2169   */\n      dup6\n        /* \"#utility.yul\":2129:2183   */\n      tag_57\n      jump\t// in\n    tag_99:\n        /* \"#utility.yul\":1848:2189   */\n      pop\n        /* \"#utility.yul\":1764:2189   */\n      swap4\n      swap3\n      pop\n      pop\n      pop\n      jump\t// out\n        /* \"#utility.yul\":2209:2549   */\n    tag_59:\n        /* \"#utility.yul\":2265:2270   */\n      0x00\n        /* \"#utility.yul\":2314:2317   */\n      dup3\n        /* \"#utility.yul\":2307:2311   */\n      0x1f\n        /* \"#utility.yul\":2299:2305   */\n      dup4\n        /* \"#utility.yul\":2295:2312   */\n      add\n        /* \"#utility.yul\":2291:2318   */\n      slt\n        /* \"#utility.yul\":2281:2403   */\n      tag_101\n      jumpi\n        /* \"#utility.yul\":2322:2401   */\n      tag_102\n      tag_50\n      jump\t// in\n    tag_102:\n        /* \"#utility.yul\":2281:2403   */\n    tag_101:\n        /* \"#utility.yul\":2439:2445   */\n      dup2\n        /* \"#utility.yul\":2426:2446   */\n      calldataload\n        /* \"#utility.yul\":2464:2543   */\n      tag_103\n        /* \"#utility.yul\":2539:2542   */\n      dup5\n        /* \"#utility.yul\":2531:2537   */\n      dup3\n        /* \"#utility.yul\":2524:2528   */\n      0x20\n        /* \"#utility.yul\":2516:2522   */\n      dup7\n        /* \"#utility.yul\":2512:2529   */\n      add\n        /* \"#utility.yul\":2464:2543   */\n      tag_58\n      jump\t// in\n    tag_103:\n        /* \"#utility.yul\":2455:2543   */\n      swap2\n      pop\n        /* \"#utility.yul\":2271:2549   */\n      pop\n        /* \"#utility.yul\":2209:2549   */\n      swap3\n      swap2\n      pop\n      pop\n      jump\t// out\n        /* \"#utility.yul\":2555:3064   */\n    tag_8:\n        /* \"#utility.yul\":2624:2630   */\n      0x00\n        /* \"#utility.yul\":2673:2675   */\n      0x20\n        /* \"#utility.yul\":2661:2670   */\n      dup3\n        /* \"#utility.yul\":2652:2659   */\n      dup5\n        /* \"#utility.yul\":2648:2671   */\n      sub\n        /* \"#utility.yul\":2644:2676   */\n      slt\n        /* \"#utility.yul\":2641:2760   */\n      iszero\n      tag_105\n      jumpi\n        /* \"#utility.yul\":2679:2758   */\n      tag_106\n      tag_48\n      jump\t// in\n    tag_106:\n        /* \"#utility.yul\":2641:2760   */\n    tag_105:\n        /* \"#utility.yul\":2827:2828   */\n      0x00\n        /* \"#utility.yul\":2816:2825   */\n      dup3\n        /* \"#utility.yul\":2812:2829   */\n      add\n        /* \"#utility.yul\":2799:2830   */\n      calldataload\n        /* \"#utility.yul\":2857:2875   */\n      0xffffffffffffffff\n        /* \"#utility.yul\":2849:2855   */\n      dup2\n        /* \"#utility.yul\":2846:2876   */\n      gt\n        /* \"#utility.yul\":2843:2960   */\n      iszero\n      tag_107\n      jumpi\n        /* \"#utility.yul\":2879:2958   */\n      tag_108\n      tag_49\n      jump\t// in\n    tag_108:\n        /* \"#utility.yul\":2843:2960   */\n    tag_107:\n        /* \"#utility.yul\":2984:3047   */\n      tag_109\n        /* \"#utility.yul\":3039:3046   */\n      dup5\n        /* \"#utility.yul\":3030:3036   */\n      dup3\n        /* \"#utility.yul\":3019:3028   */\n      dup6\n        /* \"#utility.yul\":3015:3037   */\n      add\n        /* \"#utility.yul\":2984:3047   */\n      tag_59\n      jump\t// in\n    tag_109:\n        /* \"#utility.yul\":2974:3047   */\n      swap2\n      pop\n        /* \"#utility.yul\":2770:3057   */\n      pop\n        /* \"#utility.yul\":2555:3064   */\n      swap3\n      swap2\n      pop\n      pop\n      jump\t// out\n        /* \"#utility.yul\":3070:3147   */\n    tag_60:\n        /* \"#utility.yul\":3107:3114   */\n      0x00\n        /* \"#utility.yul\":3136:3141   */\n      dup2\n        /* \"#utility.yul\":3125:3141   */\n      swap1\n      pop\n        /* \"#utility.yul\":3070:3147   */\n      swap2\n      swap1\n      pop\n      jump\t// out\n        /* \"#utility.yul\":3153:3271   */\n    tag_61:\n        /* \"#utility.yul\":3240:3264   */\n      tag_112\n        /* \"#utility.yul\":3258:3263   */\n      dup2\n        /* \"#utility.yul\":3240:3264   */\n      tag_60\n      jump\t// in\n    tag_112:\n        /* \"#utility.yul\":3235:3238   */\n      dup3\n        /* \"#utility.yul\":3228:3265   */\n      mstore\n        /* \"#utility.yul\":3153:3271   */\n      pop\n      pop\n      jump\t// out\n        /* \"#utility.yul\":3277:3367   */\n    tag_62:\n        /* \"#utility.yul\":3311:3318   */\n      0x00\n        /* \"#utility.yul\":3354:3359   */\n      dup2\n        /* \"#utility.yul\":3347:3360   */\n      iszero\n        /* \"#utility.yul\":3340:3361   */\n      iszero\n        /* \"#utility.yul\":3329:3361   */\n      swap1\n      pop\n        /* \"#utility.yul\":3277:3367   */\n      swap2\n      swap1\n      pop\n      jump\t// out\n        /* \"#utility.yul\":3373:3482   */\n    tag_63:\n        /* \"#utility.yul\":3454:3475   */\n      tag_115\n        /* \"#utility.yul\":3469:3474   */\n      dup2\n        /* \"#utility.yul\":3454:3475   */\n      tag_62\n      jump\t// in\n    tag_115:\n        /* \"#utility.yul\":3449:3452   */\n      dup3\n        /* \"#utility.yul\":3442:3476   */\n      mstore\n        /* \"#utility.yul\":3373:3482   */\n      pop\n      pop\n      jump\t// out\n        /* \"#utility.yul\":3488:3808   */\n    tag_11:\n        /* \"#utility.yul\":3603:3607   */\n      0x00\n        /* \"#utility.yul\":3641:3643   */\n      0x40\n        /* \"#utility.yul\":3630:3639   */\n      dup3\n        /* \"#utility.yul\":3626:3644   */\n      add\n        /* \"#utility.yul\":3618:3644   */\n      swap1\n      pop\n        /* \"#utility.yul\":3654:3725   */\n      tag_117\n        /* \"#utility.yul\":3722:3723   */\n      0x00\n        /* \"#utility.yul\":3711:3720   */\n      dup4\n        /* \"#utility.yul\":3707:3724   */\n      add\n        /* \"#utility.yul\":3698:3704   */\n      dup6\n        /* \"#utility.yul\":3654:3725   */\n      tag_61\n      jump\t// in\n    tag_117:\n        /* \"#utility.yul\":3735:3801   */\n      tag_118\n        /* \"#utility.yul\":3797:3799   */\n      0x20\n        /* \"#utility.yul\":3786:3795   */\n      dup4\n        /* \"#utility.yul\":3782:3800   */\n      add\n        /* \"#utility.yul\":3773:3779   */\n      dup5\n        /* \"#utility.yul\":3735:3801   */\n      tag_63\n      jump\t// in\n    tag_118:\n        /* \"#utility.yul\":3488:3808   */\n      swap4\n      swap3\n      pop\n      pop\n      pop\n      jump\t// out\n        /* \"#utility.yul\":3814:4648   */\n    tag_14:\n        /* \"#utility.yul\":3902:3908   */\n      0x00\n        /* \"#utility.yul\":3910:3916   */\n      dup1\n        /* \"#utility.yul\":3959:3961   */\n      0x40\n        /* \"#utility.yul\":3947:3956   */\n      dup4\n        /* \"#utility.yul\":3938:3945   */\n      dup6\n        /* \"#utility.yul\":3934:3957   */\n      sub\n        /* \"#utility.yul\":3930:3962   */\n      slt\n        /* \"#utility.yul\":3927:4046   */\n      iszero\n      tag_120\n      jumpi\n        /* \"#utility.yul\":3965:4044   */\n      tag_121\n      tag_48\n      jump\t// in\n    tag_121:\n        /* \"#utility.yul\":3927:4046   */\n    tag_120:\n        /* \"#utility.yul\":4113:4114   */\n      0x00\n        /* \"#utility.yul\":4102:4111   */\n      dup4\n        /* \"#utility.yul\":4098:4115   */\n      add\n        /* \"#utility.yul\":4085:4116   */\n      calldataload\n        /* \"#utility.yul\":4143:4161   */\n      0xffffffffffffffff\n        /* \"#utility.yul\":4135:4141   */\n      dup2\n        /* \"#utility.yul\":4132:4162   */\n      gt\n        /* \"#utility.yul\":4129:4246   */\n      iszero\n      tag_122\n      jumpi\n        /* \"#utility.yul\":4165:4244   */\n      tag_123\n      tag_49\n      jump\t// in\n    tag_123:\n        /* \"#utility.yul\":4129:4246   */\n    tag_122:\n        /* \"#utility.yul\":4270:4333   */\n      tag_124\n        /* \"#utility.yul\":4325:4332   */\n      dup6\n        /* \"#utility.yul\":4316:4322   */\n      dup3\n        /* \"#utility.yul\":4305:4314   */\n      dup7\n        /* \"#utility.yul\":4301:4323   */\n      add\n        /* \"#utility.yul\":4270:4333   */\n      tag_59\n      jump\t// in\n    tag_124:\n        /* \"#utility.yul\":4260:4333   */\n      swap3\n      pop\n        /* \"#utility.yul\":4056:4343   */\n      pop\n        /* \"#utility.yul\":4410:4412   */\n      0x20\n        /* \"#utility.yul\":4399:4408   */\n      dup4\n        /* \"#utility.yul\":4395:4413   */\n      add\n        /* \"#utility.yul\":4382:4414   */\n      calldataload\n        /* \"#utility.yul\":4441:4459   */\n      0xffffffffffffffff\n        /* \"#utility.yul\":4433:4439   */\n      dup2\n        /* \"#utility.yul\":4430:4460   */\n      gt\n        /* \"#utility.yul\":4427:4544   */\n      iszero\n      tag_125\n      jumpi\n        /* \"#utility.yul\":4463:4542   */\n      tag_126\n      tag_49\n      jump\t// in\n    tag_126:\n        /* \"#utility.yul\":4427:4544   */\n    tag_125:\n        /* \"#utility.yul\":4568:4631   */\n      tag_127\n        /* \"#utility.yul\":4623:4630   */\n      dup6\n        /* \"#utility.yul\":4614:4620   */\n      dup3\n        /* \"#utility.yul\":4603:4612   */\n      dup7\n        /* \"#utility.yul\":4599:4621   */\n      add\n        /* \"#utility.yul\":4568:4631   */\n      tag_59\n      jump\t// in\n    tag_127:\n        /* \"#utility.yul\":4558:4631   */\n      swap2\n      pop\n        /* \"#utility.yul\":4353:4641   */\n      pop\n        /* \"#utility.yul\":3814:4648   */\n      swap3\n      pop\n      swap3\n      swap1\n      pop\n      jump\t// out\n        /* \"#utility.yul\":4654:4753   */\n    tag_64:\n        /* \"#utility.yul\":4706:4712   */\n      0x00\n        /* \"#utility.yul\":4740:4745   */\n      dup2\n        /* \"#utility.yul\":4734:4746   */\n      mload\n        /* \"#utility.yul\":4724:4746   */\n      swap1\n      pop\n        /* \"#utility.yul\":4654:4753   */\n      swap2\n      swap1\n      pop\n      jump\t// out\n        /* \"#utility.yul\":4759:4928   */\n    tag_65:\n        /* \"#utility.yul\":4843:4854   */\n      0x00\n        /* \"#utility.yul\":4877:4883   */\n      dup3\n        /* \"#utility.yul\":4872:4875   */\n      dup3\n        /* \"#utility.yul\":4865:4884   */\n      mstore\n        /* \"#utility.yul\":4917:4921   */\n      0x20\n        /* \"#utility.yul\":4912:4915   */\n      dup3\n        /* \"#utility.yul\":4908:4922   */\n      add\n        /* \"#utility.yul\":4893:4922   */\n      swap1\n      pop\n        /* \"#utility.yul\":4759:4928   */\n      swap3\n      swap2\n      pop\n      pop\n      jump\t// out\n        /* \"#utility.yul\":4934:5073   */\n    tag_66:\n        /* \"#utility.yul\":5023:5029   */\n      dup3\n        /* \"#utility.yul\":5018:5021   */\n      dup2\n        /* \"#utility.yul\":5013:5016   */\n      dup4\n        /* \"#utility.yul\":5007:5030   */\n      mcopy\n        /* \"#utility.yul\":5064:5065   */\n      0x00\n        /* \"#utility.yul\":5055:5061   */\n      dup4\n        /* \"#utility.yul\":5050:5053   */\n      dup4\n        /* \"#utility.yul\":5046:5062   */\n      add\n        /* \"#utility.yul\":5039:5066   */\n      mstore\n        /* \"#utility.yul\":4934:5073   */\n      pop\n      pop\n      pop\n      jump\t// out\n        /* \"#utility.yul\":5079:5456   */\n    tag_67:\n        /* \"#utility.yul\":5167:5170   */\n      0x00\n        /* \"#utility.yul\":5195:5234   */\n      tag_132\n        /* \"#utility.yul\":5228:5233   */\n      dup3\n        /* \"#utility.yul\":5195:5234   */\n      tag_64\n      jump\t// in\n    tag_132:\n        /* \"#utility.yul\":5250:5321   */\n      tag_133\n        /* \"#utility.yul\":5314:5320   */\n      dup2\n        /* \"#utility.yul\":5309:5312   */\n      dup6\n        /* \"#utility.yul\":5250:5321   */\n      tag_65\n      jump\t// in\n    tag_133:\n        /* \"#utility.yul\":5243:5321   */\n      swap4\n      pop\n        /* \"#utility.yul\":5330:5395   */\n      tag_134\n        /* \"#utility.yul\":5388:5394   */\n      dup2\n        /* \"#utility.yul\":5383:5386   */\n      dup6\n        /* \"#utility.yul\":5376:5380   */\n      0x20\n        /* \"#utility.yul\":5369:5374   */\n      dup7\n        /* \"#utility.yul\":5365:5381   */\n      add\n        /* \"#utility.yul\":5330:5395   */\n      tag_66\n      jump\t// in\n    tag_134:\n        /* \"#utility.yul\":5420:5449   */\n      tag_135\n        /* \"#utility.yul\":5442:5448   */\n      dup2\n        /* \"#utility.yul\":5420:5449   */\n      tag_52\n      jump\t// in\n    tag_135:\n        /* \"#utility.yul\":5415:5418   */\n      dup5\n        /* \"#utility.yul\":5411:5450   */\n      add\n        /* \"#utility.yul\":5404:5450   */\n      swap2\n      pop\n        /* \"#utility.yul\":5171:5456   */\n      pop\n        /* \"#utility.yul\":5079:5456   */\n      swap3\n      swap2\n      pop\n      pop\n      jump\t// out\n        /* \"#utility.yul\":5462:5775   */\n    tag_17:\n        /* \"#utility.yul\":5575:5579   */\n      0x00\n        /* \"#utility.yul\":5613:5615   */\n      0x20\n        /* \"#utility.yul\":5602:5611   */\n      dup3\n        /* \"#utility.yul\":5598:5616   */\n      add\n        /* \"#utility.yul\":5590:5616   */\n      swap1\n      pop\n        /* \"#utility.yul\":5662:5671   */\n      dup2\n        /* \"#utility.yul\":5656:5660   */\n      dup2\n        /* \"#utility.yul\":5652:5672   */\n      sub\n        /* \"#utility.yul\":5648:5649   */\n      0x00\n        /* \"#utility.yul\":5637:5646   */\n      dup4\n        /* \"#utility.yul\":5633:5650   */\n      add\n        /* \"#utility.yul\":5626:5673   */\n      mstore\n        /* \"#utility.yul\":5690:5768   */\n      tag_137\n        /* \"#utility.yul\":5763:5767   */\n      dup2\n        /* \"#utility.yul\":5754:5760   */\n      dup5\n        /* \"#utility.yul\":5690:5768   */\n      tag_67\n      jump\t// in\n    tag_137:\n        /* \"#utility.yul\":5682:5768   */\n      swap1\n      pop\n        /* \"#utility.yul\":5462:5775   */\n      swap3\n      swap2\n      pop\n      pop\n      jump\t// out\n        /* \"#utility.yul\":5781:5929   */\n    tag_68:\n        /* \"#utility.yul\":5883:5894   */\n      0x00\n        /* \"#utility.yul\":5920:5923   */\n      dup2\n        /* \"#utility.yul\":5905:5923   */\n      swap1\n      pop\n        /* \"#utility.yul\":5781:5929   */\n      swap3\n      swap2\n      pop\n      pop\n      jump\t// out\n        /* \"#utility.yul\":5935:6325   */\n    tag_69:\n        /* \"#utility.yul\":6041:6044   */\n      0x00\n        /* \"#utility.yul\":6069:6108   */\n      tag_140\n        /* \"#utility.yul\":6102:6107   */\n      dup3\n        /* \"#utility.yul\":6069:6108   */\n      tag_64\n      jump\t// in\n    tag_140:\n        /* \"#utility.yul\":6124:6213   */\n      tag_141\n        /* \"#utility.yul\":6206:6212   */\n      dup2\n        /* \"#utility.yul\":6201:6204   */\n      dup6\n        /* \"#utility.yul\":6124:6213   */\n      tag_68\n      jump\t// in\n    tag_141:\n        /* \"#utility.yul\":6117:6213   */\n      swap4\n      pop\n        /* \"#utility.yul\":6222:6287   */\n      tag_142\n        /* \"#utility.yul\":6280:6286   */\n      dup2\n        /* \"#utility.yul\":6275:6278   */\n      dup6\n        /* \"#utility.yul\":6268:6272   */\n      0x20\n        /* \"#utility.yul\":6261:6266   */\n      dup7\n        /* \"#utility.yul\":6257:6273   */\n      add\n        /* \"#utility.yul\":6222:6287   */\n      tag_66\n      jump\t// in\n    tag_142:\n        /* \"#utility.yul\":6312:6318   */\n      dup1\n        /* \"#utility.yul\":6307:6310   */\n      dup5\n        /* \"#utility.yul\":6303:6319   */\n      add\n        /* \"#utility.yul\":6296:6319   */\n      swap2\n      pop\n        /* \"#utility.yul\":6045:6325   */\n      pop\n        /* \"#utility.yul\":5935:6325   */\n      swap3\n      swap2\n      pop\n      pop\n      jump\t// out\n        /* \"#utility.yul\":6331:6606   */\n    tag_23:\n        /* \"#utility.yul\":6463:6466   */\n      0x00\n        /* \"#utility.yul\":6485:6580   */\n      tag_144\n        /* \"#utility.yul\":6576:6579   */\n      dup3\n        /* \"#utility.yul\":6567:6573   */\n      dup5\n        /* \"#utility.yul\":6485:6580   */\n      tag_69\n      jump\t// in\n    tag_144:\n        /* \"#utility.yul\":6478:6580   */\n      swap2\n      pop\n        /* \"#utility.yul\":6597:6600   */\n      dup2\n        /* \"#utility.yul\":6590:6600   */\n      swap1\n      pop\n        /* \"#utility.yul\":6331:6606   */\n      swap3\n      swap2\n      pop\n      pop\n      jump\t// out\n        /* \"#utility.yul\":6612:7047   */\n    tag_27:\n        /* \"#utility.yul\":6792:6795   */\n      0x00\n        /* \"#utility.yul\":6814:6909   */\n      tag_146\n        /* \"#utility.yul\":6905:6908   */\n      dup3\n        /* \"#utility.yul\":6896:6902   */\n      dup6\n        /* \"#utility.yul\":6814:6909   */\n      tag_69\n      jump\t// in\n    tag_146:\n        /* \"#utility.yul\":6807:6909   */\n      swap2\n      pop\n        /* \"#utility.yul\":6926:7021   */\n      tag_147\n        /* \"#utility.yul\":7017:7020   */\n      dup3\n        /* \"#utility.yul\":7008:7014   */\n      dup5\n        /* \"#utility.yul\":6926:7021   */\n      tag_69\n      jump\t// in\n    tag_147:\n        /* \"#utility.yul\":6919:7021   */\n      swap2\n      pop\n        /* \"#utility.yul\":7038:7041   */\n      dup2\n        /* \"#utility.yul\":7031:7041   */\n      swap1\n      pop\n        /* \"#utility.yul\":6612:7047   */\n      swap4\n      swap3\n      pop\n      pop\n      pop\n      jump\t// out\n        /* \"#utility.yul\":7053:7130   */\n    tag_70:\n        /* \"#utility.yul\":7090:7097   */\n      0x00\n        /* \"#utility.yul\":7119:7124   */\n      dup2\n        /* \"#utility.yul\":7108:7124   */\n      swap1\n      pop\n        /* \"#utility.yul\":7053:7130   */\n      swap2\n      swap1\n      pop\n      jump\t// out\n        /* \"#utility.yul\":7136:7316   */\n    tag_71:\n        /* \"#utility.yul\":7184:7261   */\n      0x4e487b7100000000000000000000000000000000000000000000000000000000\n        /* \"#utility.yul\":7181:7182   */\n      0x00\n        /* \"#utility.yul\":7174:7262   */\n      mstore\n        /* \"#utility.yul\":7281:7285   */\n      0x11\n        /* \"#utility.yul\":7278:7279   */\n      0x04\n        /* \"#utility.yul\":7271:7286   */\n      mstore\n        /* \"#utility.yul\":7305:7309   */\n      0x24\n        /* \"#utility.yul\":7302:7303   */\n      0x00\n        /* \"#utility.yul\":7295:7310   */\n      revert\n        /* \"#utility.yul\":7322:7513   */\n    tag_37:\n        /* \"#utility.yul\":7362:7365   */\n      0x00\n        /* \"#utility.yul\":7381:7401   */\n      tag_151\n        /* \"#utility.yul\":7399:7400   */\n      dup3\n        /* \"#utility.yul\":7381:7401   */\n      tag_70\n      jump\t// in\n    tag_151:\n        /* \"#utility.yul\":7376:7401   */\n      swap2\n      pop\n        /* \"#utility.yul\":7415:7435   */\n      tag_152\n        /* \"#utility.yul\":7433:7434   */\n      dup4\n        /* \"#utility.yul\":7415:7435   */\n      tag_70\n      jump\t// in\n    tag_152:\n        /* \"#utility.yul\":7410:7435   */\n      swap3\n      pop\n        /* \"#utility.yul\":7458:7459   */\n      dup3\n        /* \"#utility.yul\":7455:7456   */\n      dup3\n        /* \"#utility.yul\":7451:7460   */\n      add\n        /* \"#utility.yul\":7444:7460   */\n      swap1\n      pop\n        /* \"#utility.yul\":7479:7482   */\n      dup1\n        /* \"#utility.yul\":7476:7477   */\n      dup3\n        /* \"#utility.yul\":7473:7483   */\n      gt\n        /* \"#utility.yul\":7470:7506   */\n      iszero\n      tag_153\n      jumpi\n        /* \"#utility.yul\":7486:7504   */\n      tag_154\n      tag_71\n      jump\t// in\n    tag_154:\n        /* \"#utility.yul\":7470:7506   */\n    tag_153:\n        /* \"#utility.yul\":7322:7513   */\n      swap3\n      swap2\n      pop\n      pop\n      jump\t// out\n        /* \"#utility.yul\":7519:7687   */\n    tag_72:\n        /* \"#utility.yul\":7659:7679   */\n      0x7573657220616c72656164792065786973740000000000000000000000000000\n        /* \"#utility.yul\":7655:7656   */\n      0x00\n        /* \"#utility.yul\":7647:7653   */\n      dup3\n        /* \"#utility.yul\":7643:7657   */\n      add\n        /* \"#utility.yul\":7636:7680   */\n      mstore\n        /* \"#utility.yul\":7519:7687   */\n      pop\n      jump\t// out\n        /* \"#utility.yul\":7693:8059   */\n    tag_73:\n        /* \"#utility.yul\":7835:7838   */\n      0x00\n        /* \"#utility.yul\":7856:7923   */\n      tag_157\n        /* \"#utility.yul\":7920:7922   */\n      0x12\n        /* \"#utility.yul\":7915:7918   */\n      dup4\n        /* \"#utility.yul\":7856:7923   */\n      tag_65\n      jump\t// in\n    tag_157:\n        /* \"#utility.yul\":7849:7923   */\n      swap2\n      pop\n        /* \"#utility.yul\":7932:8025   */\n      tag_158\n        /* \"#utility.yul\":8021:8024   */\n      dup3\n        /* \"#utility.yul\":7932:8025   */\n      tag_72\n      jump\t// in\n    tag_158:\n        /* \"#utility.yul\":8050:8052   */\n      0x20\n        /* \"#utility.yul\":8045:8048   */\n      dup3\n        /* \"#utility.yul\":8041:8053   */\n      add\n        /* \"#utility.yul\":8034:8053   */\n      swap1\n      pop\n        /* \"#utility.yul\":7693:8059   */\n      swap2\n      swap1\n      pop\n      jump\t// out\n        /* \"#utility.yul\":8065:8484   */\n    tag_46:\n        /* \"#utility.yul\":8231:8235   */\n      0x00\n        /* \"#utility.yul\":8269:8271   */\n      0x20\n        /* \"#utility.yul\":8258:8267   */\n      dup3\n        /* \"#utility.yul\":8254:8272   */\n      add\n        /* \"#utility.yul\":8246:8272   */\n      swap1\n      pop\n        /* \"#utility.yul\":8318:8327   */\n      dup2\n        /* \"#utility.yul\":8312:8316   */\n      dup2\n        /* \"#utility.yul\":8308:8328   */\n      sub\n        /* \"#utility.yul\":8304:8305   */\n      0x00\n        /* \"#utility.yul\":8293:8302   */\n      dup4\n        /* \"#utility.yul\":8289:8306   */\n      add\n        /* \"#utility.yul\":8282:8329   */\n      mstore\n        /* \"#utility.yul\":8346:8477   */\n      tag_160\n        /* \"#utility.yul\":8472:8476   */\n      dup2\n        /* \"#utility.yul\":8346:8477   */\n      tag_73\n      jump\t// in\n    tag_160:\n        /* \"#utility.yul\":8338:8477   */\n      swap1\n      pop\n        /* \"#utility.yul\":8065:8484   */\n      swap2\n      swap1\n      pop\n      jump\t// out\n\n    auxdata: 0xa2646970667358221220f5ca66bd45d6862a3dd5654ef55c47c4324ad3d133de4eaed8e29f9d2368d03864736f6c63430008190033\n}\n",
				"bytecode": {
					"linkReferences": {},
					"object": "6080604052348015600e575f80fd5b506107e08061001c5f395ff3fe608060405234801561000f575f80fd5b506004361061003f575f3560e01c806331feb671146100435780637c08e38a14610074578063a469a332146100a4575b5f80fd5b61005d600480360381019061005891906104d0565b6100c0565b60405161006b929190610549565b60405180910390f35b61008e60048036038101906100899190610570565b610114565b60405161009b9190610646565b60405180910390f35b6100be60048036038101906100b99190610570565b6102cf565b005b5f805f836040516100d191906106a0565b9081526020016040518091039020546001846040516100f091906106a0565b90815260200160405180910390205f9054906101000a900460ff1691509150915091565b606082826040516020016101299291906106b6565b604051602081830303815290604052805190602001205f8460405161014e91906106a0565b908152602001604051809103902054036101f7576001808460405161017391906106a0565b90815260200160405180910390205f6101000a81548160ff0219169083151502179055505f6002846040516101a891906106a0565b9081526020016040518091039020819055506040518060400160405280600981526020017f6c6f6767656420696e000000000000000000000000000000000000000000000081525090506102c9565b600460028460405161020991906106a0565b908152602001604051809103902054101561029057600160028460405161023091906106a0565b90815260200160405180910390205f82825461024c919061070f565b925050819055506040518060400160405280601481526020017f696e70757420636f72726563742049642c20507700000000000000000000000081525090506102c9565b6040518060400160405280601b81526020017f796f7572206163636f756e742077696c6c206265206c6f636b6564000000000081525090505b92915050565b5f801b5f836040516102e191906106a0565b908152602001604051809103902054036103445781816040516020016103089291906106b6565b604051602081830303815290604052805190602001205f8360405161032d91906106a0565b90815260200160405180910390208190555061037f565b6040517f08c379a00000000000000000000000000000000000000000000000000000000081526004016103769061078c565b60405180910390fd5b5050565b5f604051905090565b5f80fd5b5f80fd5b5f80fd5b5f80fd5b5f601f19601f8301169050919050565b7f4e487b71000000000000000000000000000000000000000000000000000000005f52604160045260245ffd5b6103e28261039c565b810181811067ffffffffffffffff82111715610401576104006103ac565b5b80604052505050565b5f610413610383565b905061041f82826103d9565b919050565b5f67ffffffffffffffff82111561043e5761043d6103ac565b5b6104478261039c565b9050602081019050919050565b828183375f83830152505050565b5f61047461046f84610424565b61040a565b9050828152602081018484840111156104905761048f610398565b5b61049b848285610454565b509392505050565b5f82601f8301126104b7576104b6610394565b5b81356104c7848260208601610462565b91505092915050565b5f602082840312156104e5576104e461038c565b5b5f82013567ffffffffffffffff81111561050257610501610390565b5b61050e848285016104a3565b91505092915050565b5f819050919050565b61052981610517565b82525050565b5f8115159050919050565b6105438161052f565b82525050565b5f60408201905061055c5f830185610520565b610569602083018461053a565b9392505050565b5f80604083850312156105865761058561038c565b5b5f83013567ffffffffffffffff8111156105a3576105a2610390565b5b6105af858286016104a3565b925050602083013567ffffffffffffffff8111156105d0576105cf610390565b5b6105dc858286016104a3565b9150509250929050565b5f81519050919050565b5f82825260208201905092915050565b8281835e5f83830152505050565b5f610618826105e6565b61062281856105f0565b9350610632818560208601610600565b61063b8161039c565b840191505092915050565b5f6020820190508181035f83015261065e818461060e565b905092915050565b5f81905092915050565b5f61067a826105e6565b6106848185610666565b9350610694818560208601610600565b80840191505092915050565b5f6106ab8284610670565b915081905092915050565b5f6106c18285610670565b91506106cd8284610670565b91508190509392505050565b5f819050919050565b7f4e487b71000000000000000000000000000000000000000000000000000000005f52601160045260245ffd5b5f610719826106d9565b9150610724836106d9565b925082820190508082111561073c5761073b6106e2565b5b92915050565b7f7573657220616c726561647920657869737400000000000000000000000000005f82015250565b5f6107766012836105f0565b915061078182610742565b602082019050919050565b5f6020820190508181035f8301526107a38161076a565b905091905056fea2646970667358221220f5ca66bd45d6862a3dd5654ef55c47c4324ad3d133de4eaed8e29f9d2368d03864736f6c63430008190033",
					"opcodes": "PUSH1 0x80 PUSH1 0x40 MSTORE CALLVALUE DUP1 ISZERO PUSH1 0xE JUMPI PUSH0 DUP1 REVERT JUMPDEST POP PUSH2 0x7E0 DUP1 PUSH2 0x1C PUSH0 CODECOPY PUSH0 RETURN INVALID PUSH1 0x80 PUSH1 0x40 MSTORE CALLVALUE DUP1 ISZERO PUSH2 0xF JUMPI PUSH0 DUP1 REVERT JUMPDEST POP PUSH1 0x4 CALLDATASIZE LT PUSH2 0x3F JUMPI PUSH0 CALLDATALOAD PUSH1 0xE0 SHR DUP1 PUSH4 0x31FEB671 EQ PUSH2 0x43 JUMPI DUP1 PUSH4 0x7C08E38A EQ PUSH2 0x74 JUMPI DUP1 PUSH4 0xA469A332 EQ PUSH2 0xA4 JUMPI JUMPDEST PUSH0 DUP1 REVERT JUMPDEST PUSH2 0x5D PUSH1 0x4 DUP1 CALLDATASIZE SUB DUP2 ADD SWAP1 PUSH2 0x58 SWAP2 SWAP1 PUSH2 0x4D0 JUMP JUMPDEST PUSH2 0xC0 JUMP JUMPDEST PUSH1 0x40 MLOAD PUSH2 0x6B SWAP3 SWAP2 SWAP1 PUSH2 0x549 JUMP JUMPDEST PUSH1 0x40 MLOAD DUP1 SWAP2 SUB SWAP1 RETURN JUMPDEST PUSH2 0x8E PUSH1 0x4 DUP1 CALLDATASIZE SUB DUP2 ADD SWAP1 PUSH2 0x89 SWAP2 SWAP1 PUSH2 0x570 JUMP JUMPDEST PUSH2 0x114 JUMP JUMPDEST PUSH1 0x40 MLOAD PUSH2 0x9B SWAP2 SWAP1 PUSH2 0x646 JUMP JUMPDEST PUSH1 0x40 MLOAD DUP1 SWAP2 SUB SWAP1 RETURN JUMPDEST PUSH2 0xBE PUSH1 0x4 DUP1 CALLDATASIZE SUB DUP2 ADD SWAP1 PUSH2 0xB9 SWAP2 SWAP1 PUSH2 0x570 JUMP JUMPDEST PUSH2 0x2CF JUMP JUMPDEST STOP JUMPDEST PUSH0 DUP1 PUSH0 DUP4 PUSH1 0x40 MLOAD PUSH2 0xD1 SWAP2 SWAP1 PUSH2 0x6A0 JUMP JUMPDEST SWAP1 DUP2 MSTORE PUSH1 0x20 ADD PUSH1 0x40 MLOAD DUP1 SWAP2 SUB SWAP1 KECCAK256 SLOAD PUSH1 0x1 DUP5 PUSH1 0x40 MLOAD PUSH2 0xF0 SWAP2 SWAP1 PUSH2 0x6A0 JUMP JUMPDEST SWAP1 DUP2 MSTORE PUSH1 0x20 ADD PUSH1 0x40 MLOAD DUP1 SWAP2 SUB SWAP1 KECCAK256 PUSH0 SWAP1 SLOAD SWAP1 PUSH2 0x100 EXP SWAP1 DIV PUSH1 0xFF AND SWAP2 POP SWAP2 POP SWAP2 POP SWAP2 JUMP JUMPDEST PUSH1 0x60 DUP3 DUP3 PUSH1 0x40 MLOAD PUSH1 0x20 ADD PUSH2 0x129 SWAP3 SWAP2 SWAP1 PUSH2 0x6B6 JUMP JUMPDEST PUSH1 0x40 MLOAD PUSH1 0x20 DUP2 DUP4 SUB SUB DUP2 MSTORE SWAP1 PUSH1 0x40 MSTORE DUP1 MLOAD SWAP1 PUSH1 0x20 ADD KECCAK256 PUSH0 DUP5 PUSH1 0x40 MLOAD PUSH2 0x14E SWAP2 SWAP1 PUSH2 0x6A0 JUMP JUMPDEST SWAP1 DUP2 MSTORE PUSH1 0x20 ADD PUSH1 0x40 MLOAD DUP1 SWAP2 SUB SWAP1 KECCAK256 SLOAD SUB PUSH2 0x1F7 JUMPI PUSH1 0x1 DUP1 DUP5 PUSH1 0x40 MLOAD PUSH2 0x173 SWAP2 SWAP1 PUSH2 0x6A0 JUMP JUMPDEST SWAP1 DUP2 MSTORE PUSH1 0x20 ADD PUSH1 0x40 MLOAD DUP1 SWAP2 SUB SWAP1 KECCAK256 PUSH0 PUSH2 0x100 EXP DUP2 SLOAD DUP2 PUSH1 0xFF MUL NOT AND SWAP1 DUP4 ISZERO ISZERO MUL OR SWAP1 SSTORE POP PUSH0 PUSH1 0x2 DUP5 PUSH1 0x40 MLOAD PUSH2 0x1A8 SWAP2 SWAP1 PUSH2 0x6A0 JUMP JUMPDEST SWAP1 DUP2 MSTORE PUSH1 0x20 ADD PUSH1 0x40 MLOAD DUP1 SWAP2 SUB SWAP1 KECCAK256 DUP2 SWAP1 SSTORE POP PUSH1 0x40 MLOAD DUP1 PUSH1 0x40 ADD PUSH1 0x40 MSTORE DUP1 PUSH1 0x9 DUP2 MSTORE PUSH1 0x20 ADD PUSH32 0x6C6F6767656420696E0000000000000000000000000000000000000000000000 DUP2 MSTORE POP SWAP1 POP PUSH2 0x2C9 JUMP JUMPDEST PUSH1 0x4 PUSH1 0x2 DUP5 PUSH1 0x40 MLOAD PUSH2 0x209 SWAP2 SWAP1 PUSH2 0x6A0 JUMP JUMPDEST SWAP1 DUP2 MSTORE PUSH1 0x20 ADD PUSH1 0x40 MLOAD DUP1 SWAP2 SUB SWAP1 KECCAK256 SLOAD LT ISZERO PUSH2 0x290 JUMPI PUSH1 0x1 PUSH1 0x2 DUP5 PUSH1 0x40 MLOAD PUSH2 0x230 SWAP2 SWAP1 PUSH2 0x6A0 JUMP JUMPDEST SWAP1 DUP2 MSTORE PUSH1 0x20 ADD PUSH1 0x40 MLOAD DUP1 SWAP2 SUB SWAP1 KECCAK256 PUSH0 DUP3 DUP3 SLOAD PUSH2 0x24C SWAP2 SWAP1 PUSH2 0x70F JUMP JUMPDEST SWAP3 POP POP DUP2 SWAP1 SSTORE POP PUSH1 0x40 MLOAD DUP1 PUSH1 0x40 ADD PUSH1 0x40 MSTORE DUP1 PUSH1 0x14 DUP2 MSTORE PUSH1 0x20 ADD PUSH32 0x696E70757420636F72726563742049642C205077000000000000000000000000 DUP2 MSTORE POP SWAP1 POP PUSH2 0x2C9 JUMP JUMPDEST PUSH1 0x40 MLOAD DUP1 PUSH1 0x40 ADD PUSH1 0x40 MSTORE DUP1 PUSH1 0x1B DUP2 MSTORE PUSH1 0x20 ADD PUSH32 0x796F7572206163636F756E742077696C6C206265206C6F636B65640000000000 DUP2 MSTORE POP SWAP1 POP JUMPDEST SWAP3 SWAP2 POP POP JUMP JUMPDEST PUSH0 DUP1 SHL PUSH0 DUP4 PUSH1 0x40 MLOAD PUSH2 0x2E1 SWAP2 SWAP1 PUSH2 0x6A0 JUMP JUMPDEST SWAP1 DUP2 MSTORE PUSH1 0x20 ADD PUSH1 0x40 MLOAD DUP1 SWAP2 SUB SWAP1 KECCAK256 SLOAD SUB PUSH2 0x344 JUMPI DUP2 DUP2 PUSH1 0x40 MLOAD PUSH1 0x20 ADD PUSH2 0x308 SWAP3 SWAP2 SWAP1 PUSH2 0x6B6 JUMP JUMPDEST PUSH1 0x40 MLOAD PUSH1 0x20 DUP2 DUP4 SUB SUB DUP2 MSTORE SWAP1 PUSH1 0x40 MSTORE DUP1 MLOAD SWAP1 PUSH1 0x20 ADD KECCAK256 PUSH0 DUP4 PUSH1 0x40 MLOAD PUSH2 0x32D SWAP2 SWAP1 PUSH2 0x6A0 JUMP JUMPDEST SWAP1 DUP2 MSTORE PUSH1 0x20 ADD PUSH1 0x40 MLOAD DUP1 SWAP2 SUB SWAP1 KECCAK256 DUP2 SWAP1 SSTORE POP PUSH2 0x37F JUMP JUMPDEST PUSH1 0x40 MLOAD PUSH32 0x8C379A000000000000000000000000000000000000000000000000000000000 DUP2 MSTORE PUSH1 0x4 ADD PUSH2 0x376 SWAP1 PUSH2 0x78C JUMP JUMPDEST PUSH1 0x40 MLOAD DUP1 SWAP2 SUB SWAP1 REVERT JUMPDEST POP POP JUMP JUMPDEST PUSH0 PUSH1 0x40 MLOAD SWAP1 POP SWAP1 JUMP JUMPDEST PUSH0 DUP1 REVERT JUMPDEST PUSH0 DUP1 REVERT JUMPDEST PUSH0 DUP1 REVERT JUMPDEST PUSH0 DUP1 REVERT JUMPDEST PUSH0 PUSH1 0x1F NOT PUSH1 0x1F DUP4 ADD AND SWAP1 POP SWAP2 SWAP1 POP JUMP JUMPDEST PUSH32 0x4E487B7100000000000000000000000000000000000000000000000000000000 PUSH0 MSTORE PUSH1 0x41 PUSH1 0x4 MSTORE PUSH1 0x24 PUSH0 REVERT JUMPDEST PUSH2 0x3E2 DUP3 PUSH2 0x39C JUMP JUMPDEST DUP2 ADD DUP2 DUP2 LT PUSH8 0xFFFFFFFFFFFFFFFF DUP3 GT OR ISZERO PUSH2 0x401 JUMPI PUSH2 0x400 PUSH2 0x3AC JUMP JUMPDEST JUMPDEST DUP1 PUSH1 0x40 MSTORE POP POP POP JUMP JUMPDEST PUSH0 PUSH2 0x413 PUSH2 0x383 JUMP JUMPDEST SWAP1 POP PUSH2 0x41F DUP3 DUP3 PUSH2 0x3D9 JUMP JUMPDEST SWAP2 SWAP1 POP JUMP JUMPDEST PUSH0 PUSH8 0xFFFFFFFFFFFFFFFF DUP3 GT ISZERO PUSH2 0x43E JUMPI PUSH2 0x43D PUSH2 0x3AC JUMP JUMPDEST JUMPDEST PUSH2 0x447 DUP3 PUSH2 0x39C JUMP JUMPDEST SWAP1 POP PUSH1 0x20 DUP2 ADD SWAP1 POP SWAP2 SWAP1 POP JUMP JUMPDEST DUP3 DUP2 DUP4 CALLDATACOPY PUSH0 DUP4 DUP4 ADD MSTORE POP POP POP JUMP JUMPDEST PUSH0 PUSH2 0x474 PUSH2 0x46F DUP5 PUSH2 0x424 JUMP JUMPDEST PUSH2 0x40A JUMP JUMPDEST SWAP1 POP DUP3 DUP2 MSTORE PUSH1 0x20 DUP2 ADD DUP5 DUP5 DUP5 ADD GT ISZERO PUSH2 0x490 JUMPI PUSH2 0x48F PUSH2 0x398 JUMP JUMPDEST JUMPDEST PUSH2 0x49B DUP5 DUP3 DUP6 PUSH2 0x454 JUMP JUMPDEST POP SWAP4 SWAP3 POP POP POP JUMP JUMPDEST PUSH0 DUP3 PUSH1 0x1F DUP4 ADD SLT PUSH2 0x4B7 JUMPI PUSH2 0x4B6 PUSH2 0x394 JUMP JUMPDEST JUMPDEST DUP2 CALLDATALOAD PUSH2 0x4C7 DUP5 DUP3 PUSH1 0x20 DUP7 ADD PUSH2 0x462 JUMP JUMPDEST SWAP2 POP POP SWAP3 SWAP2 POP POP JUMP JUMPDEST PUSH0 PUSH1 0x20 DUP3 DUP5 SUB SLT ISZERO PUSH2 0x4E5 JUMPI PUSH2 0x4E4 PUSH2 0x38C JUMP JUMPDEST JUMPDEST PUSH0 DUP3 ADD CALLDATALOAD PUSH8 0xFFFFFFFFFFFFFFFF DUP2 GT ISZERO PUSH2 0x502 JUMPI PUSH2 0x501 PUSH2 0x390 JUMP JUMPDEST JUMPDEST PUSH2 0x50E DUP5 DUP3 DUP6 ADD PUSH2 0x4A3 JUMP JUMPDEST SWAP2 POP POP SWAP3 SWAP2 POP POP JUMP JUMPDEST PUSH0 DUP2 SWAP1 POP SWAP2 SWAP1 POP JUMP JUMPDEST PUSH2 0x529 DUP2 PUSH2 0x517 JUMP JUMPDEST DUP3 MSTORE POP POP JUMP JUMPDEST PUSH0 DUP2 ISZERO ISZERO SWAP1 POP SWAP2 SWAP1 POP JUMP JUMPDEST PUSH2 0x543 DUP2 PUSH2 0x52F JUMP JUMPDEST DUP3 MSTORE POP POP JUMP JUMPDEST PUSH0 PUSH1 0x40 DUP3 ADD SWAP1 POP PUSH2 0x55C PUSH0 DUP4 ADD DUP6 PUSH2 0x520 JUMP JUMPDEST PUSH2 0x569 PUSH1 0x20 DUP4 ADD DUP5 PUSH2 0x53A JUMP JUMPDEST SWAP4 SWAP3 POP POP POP JUMP JUMPDEST PUSH0 DUP1 PUSH1 0x40 DUP4 DUP6 SUB SLT ISZERO PUSH2 0x586 JUMPI PUSH2 0x585 PUSH2 0x38C JUMP JUMPDEST JUMPDEST PUSH0 DUP4 ADD CALLDATALOAD PUSH8 0xFFFFFFFFFFFFFFFF DUP2 GT ISZERO PUSH2 0x5A3 JUMPI PUSH2 0x5A2 PUSH2 0x390 JUMP JUMPDEST JUMPDEST PUSH2 0x5AF DUP6 DUP3 DUP7 ADD PUSH2 0x4A3 JUMP JUMPDEST SWAP3 POP POP PUSH1 0x20 DUP4 ADD CALLDATALOAD PUSH8 0xFFFFFFFFFFFFFFFF DUP2 GT ISZERO PUSH2 0x5D0 JUMPI PUSH2 0x5CF PUSH2 0x390 JUMP JUMPDEST JUMPDEST PUSH2 0x5DC DUP6 DUP3 DUP7 ADD PUSH2 0x4A3 JUMP JUMPDEST SWAP2 POP POP SWAP3 POP SWAP3 SWAP1 POP JUMP JUMPDEST PUSH0 DUP2 MLOAD SWAP1 POP SWAP2 SWAP1 POP JUMP JUMPDEST PUSH0 DUP3 DUP3 MSTORE PUSH1 0x20 DUP3 ADD SWAP1 POP SWAP3 SWAP2 POP POP JUMP JUMPDEST DUP3 DUP2 DUP4 MCOPY PUSH0 DUP4 DUP4 ADD MSTORE POP POP POP JUMP JUMPDEST PUSH0 PUSH2 0x618 DUP3 PUSH2 0x5E6 JUMP JUMPDEST PUSH2 0x622 DUP2 DUP6 PUSH2 0x5F0 JUMP JUMPDEST SWAP4 POP PUSH2 0x632 DUP2 DUP6 PUSH1 0x20 DUP7 ADD PUSH2 0x600 JUMP JUMPDEST PUSH2 0x63B DUP2 PUSH2 0x39C JUMP JUMPDEST DUP5 ADD SWAP2 POP POP SWAP3 SWAP2 POP POP JUMP JUMPDEST PUSH0 PUSH1 0x20 DUP3 ADD SWAP1 POP DUP2 DUP2 SUB PUSH0 DUP4 ADD MSTORE PUSH2 0x65E DUP2 DUP5 PUSH2 0x60E JUMP JUMPDEST SWAP1 POP SWAP3 SWAP2 POP POP JUMP JUMPDEST PUSH0 DUP2 SWAP1 POP SWAP3 SWAP2 POP POP JUMP JUMPDEST PUSH0 PUSH2 0x67A DUP3 PUSH2 0x5E6 JUMP JUMPDEST PUSH2 0x684 DUP2 DUP6 PUSH2 0x666 JUMP JUMPDEST SWAP4 POP PUSH2 0x694 DUP2 DUP6 PUSH1 0x20 DUP7 ADD PUSH2 0x600 JUMP JUMPDEST DUP1 DUP5 ADD SWAP2 POP POP SWAP3 SWAP2 POP POP JUMP JUMPDEST PUSH0 PUSH2 0x6AB DUP3 DUP5 PUSH2 0x670 JUMP JUMPDEST SWAP2 POP DUP2 SWAP1 POP SWAP3 SWAP2 POP POP JUMP JUMPDEST PUSH0 PUSH2 0x6C1 DUP3 DUP6 PUSH2 0x670 JUMP JUMPDEST SWAP2 POP PUSH2 0x6CD DUP3 DUP5 PUSH2 0x670 JUMP JUMPDEST SWAP2 POP DUP2 SWAP1 POP SWAP4 SWAP3 POP POP POP JUMP JUMPDEST PUSH0 DUP2 SWAP1 POP SWAP2 SWAP1 POP JUMP JUMPDEST PUSH32 0x4E487B7100000000000000000000000000000000000000000000000000000000 PUSH0 MSTORE PUSH1 0x11 PUSH1 0x4 MSTORE PUSH1 0x24 PUSH0 REVERT JUMPDEST PUSH0 PUSH2 0x719 DUP3 PUSH2 0x6D9 JUMP JUMPDEST SWAP2 POP PUSH2 0x724 DUP4 PUSH2 0x6D9 JUMP JUMPDEST SWAP3 POP DUP3 DUP3 ADD SWAP1 POP DUP1 DUP3 GT ISZERO PUSH2 0x73C JUMPI PUSH2 0x73B PUSH2 0x6E2 JUMP JUMPDEST JUMPDEST SWAP3 SWAP2 POP POP JUMP JUMPDEST PUSH32 0x7573657220616C72656164792065786973740000000000000000000000000000 PUSH0 DUP3 ADD MSTORE POP JUMP JUMPDEST PUSH0 PUSH2 0x776 PUSH1 0x12 DUP4 PUSH2 0x5F0 JUMP JUMPDEST SWAP2 POP PUSH2 0x781 DUP3 PUSH2 0x742 JUMP JUMPDEST PUSH1 0x20 DUP3 ADD SWAP1 POP SWAP2 SWAP1 POP JUMP JUMPDEST PUSH0 PUSH1 0x20 DUP3 ADD SWAP1 POP DUP2 DUP2 SUB PUSH0 DUP4 ADD MSTORE PUSH2 0x7A3 DUP2 PUSH2 0x76A JUMP JUMPDEST SWAP1 POP SWAP2 SWAP1 POP JUMP INVALID LOG2 PUSH5 0x6970667358 0x22 SLT KECCAK256 CREATE2 0xCA PUSH7 0xBD45D6862A3DD5 PUSH6 0x4EF55C47C432 BLOBBASEFEE 0xD3 0xD1 CALLER 0xDE 0x4E 0xAE 0xD8 0xE2 SWAP16 SWAP14 0x23 PUSH9 0xD03864736F6C634300 ADDMOD NOT STOP CALLER "
				},
				"gasEstimates": {
					"creation": {
						"codeDepositCost": "403200",
						"executionCost": "434",
						"totalCost": "403634"
					},
					"external": {
						"getUser(string)": "infinite",
						"isLogin(string,string)": "infinite",
						"signUp(string,string)": "infinite"
					}
				},
				"methodIdentifiers": {
					"getUser(string)": "31feb671",
					"isLogin(string,string)": "7c08e38a",
					"signUp(string,string)": "a469a332"
				}
			},
			"storageLayout": {
				"storage": [
					{
						"astId": 5,
						"contract": "solidity_test/test3.sol:TEST3",
						"label": "user",
						"offset": 0,
						"slot": "0",
						"type": "t_mapping(t_string_memory_ptr,t_bytes32)"
					},
					{
						"astId": 9,
						"contract": "solidity_test/test3.sol:TEST3",
						"label": "login",
						"offset": 0,
						"slot": "1",
						"type": "t_mapping(t_string_memory_ptr,t_bool)"
					},
					{
						"astId": 13,
						"contract": "solidity_test/test3.sol:TEST3",
						"label": "inputWrongIdx",
						"offset": 0,
						"slot": "2",
						"type": "t_mapping(t_string_memory_ptr,t_uint256)"
					}
				],
				"types": {
					"t_bool": {
						"encoding": "inplace",
						"label": "bool",
						"numberOfBytes": "1"
					},
					"t_bytes32": {
						"encoding": "inplace",
						"label": "bytes32",
						"numberOfBytes": "32"
					},
					"t_mapping(t_string_memory_ptr,t_bool)": {
						"encoding": "mapping",
						"key": "t_string_memory_ptr",
						"label": "mapping(string => bool)",
						"numberOfBytes": "32",
						"value": "t_bool"
					},
					"t_mapping(t_string_memory_ptr,t_bytes32)": {
						"encoding": "mapping",
						"key": "t_string_memory_ptr",
						"label": "mapping(string => bytes32)",
						"numberOfBytes": "32",
						"value": "t_bytes32"
					},
					"t_mapping(t_string_memory_ptr,t_uint256)": {
						"encoding": "mapping",
						"key": "t_string_memory_ptr",
						"label": "mapping(string => uint256)",
						"numberOfBytes": "32",
						"value": "t_uint256"
					},
					"t_string_memory_ptr": {
						"encoding": "bytes",
						"label": "string",
						"numberOfBytes": "32"
					},
					"t_uint256": {
						"encoding": "inplace",
						"label": "uint256",
						"numberOfBytes": "32"
					}
				}
			},
			"userdoc": {
				"kind": "user",
				"methods": {},
				"version": 1
			}
		}
	}
}