{
	"solidity_test/test8.sol": {
		"a": {
			"abi": [
				{
					"inputs": [
						{
							"internalType": "string",
							"name": "_name",
							"type": "string"
						}
					],
					"name": "getTopic",
					"outputs": [
						{
							"components": [
								{
									"internalType": "uint256",
									"name": "number",
									"type": "uint256"
								},
								{
									"internalType": "string",
									"name": "subject",
									"type": "string"
								},
								{
									"internalType": "string",
									"name": "content",
									"type": "string"
								},
								{
									"internalType": "address",
									"name": "proposer",
									"type": "address"
								},
								{
									"internalType": "uint256",
									"name": "upvote",
									"type": "uint256"
								},
								{
									"internalType": "uint256",
									"name": "downvote",
									"type": "uint256"
								}
							],
							"internalType": "struct a.topic",
							"name": "",
							"type": "tuple"
						}
					],
					"stateMutability": "view",
					"type": "function"
				},
				{
					"inputs": [
						{
							"internalType": "string",
							"name": "_name",
							"type": "string"
						}
					],
					"name": "getUser",
					"outputs": [
						{
							"components": [
								{
									"internalType": "string",
									"name": "name",
									"type": "string"
								},
								{
									"internalType": "address",
									"name": "wallet",
									"type": "address"
								}
							],
							"internalType": "struct a.user",
							"name": "",
							"type": "tuple"
						}
					],
					"stateMutability": "view",
					"type": "function"
				},
				{
					"inputs": [
						{
							"internalType": "string",
							"name": "_subject",
							"type": "string"
						},
						{
							"internalType": "string",
							"name": "_content",
							"type": "string"
						}
					],
					"name": "setTopic",
					"outputs": [],
					"stateMutability": "nonpayable",
					"type": "function"
				},
				{
					"inputs": [
						{
							"internalType": "string",
							"name": "_name",
							"type": "string"
						}
					],
					"name": "setUser",
					"outputs": [],
					"stateMutability": "nonpayable",
					"type": "function"
				},
				{
					"inputs": [
						{
							"internalType": "string",
							"name": "_subject",
							"type": "string"
						},
						{
							"internalType": "bool",
							"name": "_vote",
							"type": "bool"
						}
					],
					"name": "voting",
					"outputs": [],
					"stateMutability": "nonpayable",
					"type": "function"
				}
			],
			"devdoc": {
				"kind": "dev",
				"methods": {},
				"version": 1
			},
			"evm": {
				"assembly": "    /* \"solidity_test/test8.sol\":67:3188  contract a {... */\n  mstore(0x40, 0x80)\n  callvalue\n  dup1\n  iszero\n  tag_1\n  jumpi\n  0x00\n  dup1\n  revert\ntag_1:\n  pop\n  dataSize(sub_0)\n  dup1\n  dataOffset(sub_0)\n  0x00\n  codecopy\n  0x00\n  return\nstop\n\nsub_0: assembly {\n        /* \"solidity_test/test8.sol\":67:3188  contract a {... */\n      mstore(0x40, 0x80)\n      callvalue\n      dup1\n      iszero\n      tag_1\n      jumpi\n      0x00\n      dup1\n      revert\n    tag_1:\n      pop\n      jumpi(tag_2, lt(calldatasize, 0x04))\n      shr(0xe0, calldataload(0x00))\n      dup1\n      0x31feb671\n      eq\n      tag_3\n      jumpi\n      dup1\n      0x474502d8\n      eq\n      tag_4\n      jumpi\n      dup1\n      0x4ac3e917\n      eq\n      tag_5\n      jumpi\n      dup1\n      0x4da8d7ef\n      eq\n      tag_6\n      jumpi\n      dup1\n      0xd0020fad\n      eq\n      tag_7\n      jumpi\n    tag_2:\n      0x00\n      dup1\n      revert\n        /* \"solidity_test/test8.sol\":2280:2389  function getUser(string memory _name) public view returns(user memory) {... */\n    tag_3:\n      tag_8\n      0x04\n      dup1\n      calldatasize\n      sub\n      dup2\n      add\n      swap1\n      tag_9\n      swap2\n      swap1\n      tag_10\n      jump\t// in\n    tag_9:\n      tag_11\n      jump\t// in\n    tag_8:\n      mload(0x40)\n      tag_12\n      swap2\n      swap1\n      tag_13\n      jump\t// in\n    tag_12:\n      mload(0x40)\n      dup1\n      swap2\n      sub\n      swap1\n      return\n        /* \"solidity_test/test8.sol\":2588:2700  function getTopic(string memory _name) public view returns(topic memory) {... */\n    tag_4:\n      tag_14\n      0x04\n      dup1\n      calldatasize\n      sub\n      dup2\n      add\n      swap1\n      tag_15\n      swap2\n      swap1\n      tag_10\n      jump\t// in\n    tag_15:\n      tag_16\n      jump\t// in\n    tag_14:\n      mload(0x40)\n      tag_17\n      swap2\n      swap1\n      tag_18\n      jump\t// in\n    tag_17:\n      mload(0x40)\n      dup1\n      swap2\n      sub\n      swap1\n      return\n        /* \"solidity_test/test8.sol\":2397:2580  function setTopic(string memory _subject, string memory _content) public {... */\n    tag_5:\n      tag_19\n      0x04\n      dup1\n      calldatasize\n      sub\n      dup2\n      add\n      swap1\n      tag_20\n      swap2\n      swap1\n      tag_21\n      jump\t// in\n    tag_20:\n      tag_22\n      jump\t// in\n    tag_19:\n      stop\n        /* \"solidity_test/test8.sol\":2875:3185  function voting(string memory _subject, bool _vote) public {... */\n    tag_6:\n      tag_23\n      0x04\n      dup1\n      calldatasize\n      sub\n      dup2\n      add\n      swap1\n      tag_24\n      swap2\n      swap1\n      tag_25\n      jump\t// in\n    tag_24:\n      tag_26\n      jump\t// in\n    tag_23:\n      stop\n        /* \"solidity_test/test8.sol\":2170:2272  function setUser(string memory _name) public {... */\n    tag_7:\n      tag_27\n      0x04\n      dup1\n      calldatasize\n      sub\n      dup2\n      add\n      swap1\n      tag_28\n      swap2\n      swap1\n      tag_10\n      jump\t// in\n    tag_28:\n      tag_29\n      jump\t// in\n    tag_27:\n      stop\n        /* \"solidity_test/test8.sol\":2280:2389  function getUser(string memory _name) public view returns(user memory) {... */\n    tag_11:\n        /* \"solidity_test/test8.sol\":2338:2349  user memory */\n      tag_30\n      tag_31\n      jump\t// in\n    tag_30:\n        /* \"solidity_test/test8.sol\":2369:2374  users */\n      0x03\n        /* \"solidity_test/test8.sol\":2375:2380  _name */\n      dup3\n        /* \"solidity_test/test8.sol\":2369:2381  users[_name] */\n      mload(0x40)\n      tag_33\n      swap2\n      swap1\n      tag_34\n      jump\t// in\n    tag_33:\n      swap1\n      dup2\n      mstore\n      0x20\n      add\n      mload(0x40)\n      dup1\n      swap2\n      sub\n      swap1\n      keccak256\n        /* \"solidity_test/test8.sol\":2362:2381  return users[_name] */\n      mload(0x40)\n      dup1\n      0x40\n      add\n      0x40\n      mstore\n      swap1\n      dup2\n      0x00\n      dup3\n      add\n      dup1\n      sload\n      tag_35\n      swap1\n      tag_36\n      jump\t// in\n    tag_35:\n      dup1\n      0x1f\n      add\n      0x20\n      dup1\n      swap2\n      div\n      mul\n      0x20\n      add\n      mload(0x40)\n      swap1\n      dup2\n      add\n      0x40\n      mstore\n      dup1\n      swap3\n      swap2\n      swap1\n      dup2\n      dup2\n      mstore\n      0x20\n      add\n      dup3\n      dup1\n      sload\n      tag_37\n      swap1\n      tag_36\n      jump\t// in\n    tag_37:\n      dup1\n      iszero\n      tag_38\n      jumpi\n      dup1\n      0x1f\n      lt\n      tag_39\n      jumpi\n      0x0100\n      dup1\n      dup4\n      sload\n      div\n      mul\n      dup4\n      mstore\n      swap2\n      0x20\n      add\n      swap2\n      jump(tag_38)\n    tag_39:\n      dup3\n      add\n      swap2\n      swap1\n      0x00\n      mstore\n      keccak256(0x00, 0x20)\n      swap1\n    tag_40:\n      dup2\n      sload\n      dup2\n      mstore\n      swap1\n      0x01\n      add\n      swap1\n      0x20\n      add\n      dup1\n      dup4\n      gt\n      tag_40\n      jumpi\n      dup3\n      swap1\n      sub\n      0x1f\n      and\n      dup3\n      add\n      swap2\n    tag_38:\n      pop\n      pop\n      pop\n      pop\n      pop\n      dup2\n      mstore\n      0x20\n      add\n      0x01\n      dup3\n      add\n      0x00\n      swap1\n      sload\n      swap1\n      0x0100\n      exp\n      swap1\n      div\n      0xffffffffffffffffffffffffffffffffffffffff\n      and\n      0xffffffffffffffffffffffffffffffffffffffff\n      and\n      0xffffffffffffffffffffffffffffffffffffffff\n      and\n      dup2\n      mstore\n      pop\n      pop\n      swap1\n      pop\n        /* \"solidity_test/test8.sol\":2280:2389  function getUser(string memory _name) public view returns(user memory) {... */\n      swap2\n      swap1\n      pop\n      jump\t// out\n        /* \"solidity_test/test8.sol\":2588:2700  function getTopic(string memory _name) public view returns(topic memory) {... */\n    tag_16:\n        /* \"solidity_test/test8.sol\":2647:2659  topic memory */\n      tag_41\n      tag_42\n      jump\t// in\n    tag_41:\n        /* \"solidity_test/test8.sol\":2679:2685  topics */\n      0x00\n        /* \"solidity_test/test8.sol\":2686:2691  _name */\n      dup3\n        /* \"solidity_test/test8.sol\":2679:2692  topics[_name] */\n      mload(0x40)\n      tag_44\n      swap2\n      swap1\n      tag_34\n      jump\t// in\n    tag_44:\n      swap1\n      dup2\n      mstore\n      0x20\n      add\n      mload(0x40)\n      dup1\n      swap2\n      sub\n      swap1\n      keccak256\n        /* \"solidity_test/test8.sol\":2672:2692  return topics[_name] */\n      mload(0x40)\n      dup1\n      0xc0\n      add\n      0x40\n      mstore\n      swap1\n      dup2\n      0x00\n      dup3\n      add\n      sload\n      dup2\n      mstore\n      0x20\n      add\n      0x01\n      dup3\n      add\n      dup1\n      sload\n      tag_45\n      swap1\n      tag_36\n      jump\t// in\n    tag_45:\n      dup1\n      0x1f\n      add\n      0x20\n      dup1\n      swap2\n      div\n      mul\n      0x20\n      add\n      mload(0x40)\n      swap1\n      dup2\n      add\n      0x40\n      mstore\n      dup1\n      swap3\n      swap2\n      swap1\n      dup2\n      dup2\n      mstore\n      0x20\n      add\n      dup3\n      dup1\n      sload\n      tag_46\n      swap1\n      tag_36\n      jump\t// in\n    tag_46:\n      dup1\n      iszero\n      tag_47\n      jumpi\n      dup1\n      0x1f\n      lt\n      tag_48\n      jumpi\n      0x0100\n      dup1\n      dup4\n      sload\n      div\n      mul\n      dup4\n      mstore\n      swap2\n      0x20\n      add\n      swap2\n      jump(tag_47)\n    tag_48:\n      dup3\n      add\n      swap2\n      swap1\n      0x00\n      mstore\n      keccak256(0x00, 0x20)\n      swap1\n    tag_49:\n      dup2\n      sload\n      dup2\n      mstore\n      swap1\n      0x01\n      add\n      swap1\n      0x20\n      add\n      dup1\n      dup4\n      gt\n      tag_49\n      jumpi\n      dup3\n      swap1\n      sub\n      0x1f\n      and\n      dup3\n      add\n      swap2\n    tag_47:\n      pop\n      pop\n      pop\n      pop\n      pop\n      dup2\n      mstore\n      0x20\n      add\n      0x02\n      dup3\n      add\n      dup1\n      sload\n      tag_50\n      swap1\n      tag_36\n      jump\t// in\n    tag_50:\n      dup1\n      0x1f\n      add\n      0x20\n      dup1\n      swap2\n      div\n      mul\n      0x20\n      add\n      mload(0x40)\n      swap1\n      dup2\n      add\n      0x40\n      mstore\n      dup1\n      swap3\n      swap2\n      swap1\n      dup2\n      dup2\n      mstore\n      0x20\n      add\n      dup3\n      dup1\n      sload\n      tag_51\n      swap1\n      tag_36\n      jump\t// in\n    tag_51:\n      dup1\n      iszero\n      tag_52\n      jumpi\n      dup1\n      0x1f\n      lt\n      tag_53\n      jumpi\n      0x0100\n      dup1\n      dup4\n      sload\n      div\n      mul\n      dup4\n      mstore\n      swap2\n      0x20\n      add\n      swap2\n      jump(tag_52)\n    tag_53:\n      dup3\n      add\n      swap2\n      swap1\n      0x00\n      mstore\n      keccak256(0x00, 0x20)\n      swap1\n    tag_54:\n      dup2\n      sload\n      dup2\n      mstore\n      swap1\n      0x01\n      add\n      swap1\n      0x20\n      add\n      dup1\n      dup4\n      gt\n      tag_54\n      jumpi\n      dup3\n      swap1\n      sub\n      0x1f\n      and\n      dup3\n      add\n      swap2\n    tag_52:\n      pop\n      pop\n      pop\n      pop\n      pop\n      dup2\n      mstore\n      0x20\n      add\n      0x03\n      dup3\n      add\n      0x00\n      swap1\n      sload\n      swap1\n      0x0100\n      exp\n      swap1\n      div\n      0xffffffffffffffffffffffffffffffffffffffff\n      and\n      0xffffffffffffffffffffffffffffffffffffffff\n      and\n      0xffffffffffffffffffffffffffffffffffffffff\n      and\n      dup2\n      mstore\n      0x20\n      add\n      0x04\n      dup3\n      add\n      sload\n      dup2\n      mstore\n      0x20\n      add\n      0x05\n      dup3\n      add\n      sload\n      dup2\n      mstore\n      pop\n      pop\n      swap1\n      pop\n        /* \"solidity_test/test8.sol\":2588:2700  function getTopic(string memory _name) public view returns(topic memory) {... */\n      swap2\n      swap1\n      pop\n      jump\t// out\n        /* \"solidity_test/test8.sol\":2397:2580  function setTopic(string memory _subject, string memory _content) public {... */\n    tag_22:\n        /* \"solidity_test/test8.sol\":2500:2551  topic(topicNum, _subject, _content, msg.sender,0,0) */\n      mload(0x40)\n      dup1\n      0xc0\n      add\n      0x40\n      mstore\n      dup1\n        /* \"solidity_test/test8.sol\":2506:2514  topicNum */\n      sload(0x04)\n        /* \"solidity_test/test8.sol\":2500:2551  topic(topicNum, _subject, _content, msg.sender,0,0) */\n      dup2\n      mstore\n      0x20\n      add\n        /* \"solidity_test/test8.sol\":2516:2524  _subject */\n      dup4\n        /* \"solidity_test/test8.sol\":2500:2551  topic(topicNum, _subject, _content, msg.sender,0,0) */\n      dup2\n      mstore\n      0x20\n      add\n        /* \"solidity_test/test8.sol\":2526:2534  _content */\n      dup3\n        /* \"solidity_test/test8.sol\":2500:2551  topic(topicNum, _subject, _content, msg.sender,0,0) */\n      dup2\n      mstore\n      0x20\n      add\n        /* \"solidity_test/test8.sol\":2536:2546  msg.sender */\n      caller\n        /* \"solidity_test/test8.sol\":2500:2551  topic(topicNum, _subject, _content, msg.sender,0,0) */\n      0xffffffffffffffffffffffffffffffffffffffff\n      and\n      dup2\n      mstore\n      0x20\n      add\n        /* \"solidity_test/test8.sol\":2547:2548  0 */\n      0x00\n        /* \"solidity_test/test8.sol\":2500:2551  topic(topicNum, _subject, _content, msg.sender,0,0) */\n      dup2\n      mstore\n      0x20\n      add\n        /* \"solidity_test/test8.sol\":2549:2550  0 */\n      0x00\n        /* \"solidity_test/test8.sol\":2500:2551  topic(topicNum, _subject, _content, msg.sender,0,0) */\n      dup2\n      mstore\n      pop\n        /* \"solidity_test/test8.sol\":2481:2487  topics */\n      0x00\n        /* \"solidity_test/test8.sol\":2488:2496  _subject */\n      dup4\n        /* \"solidity_test/test8.sol\":2481:2497  topics[_subject] */\n      mload(0x40)\n      tag_56\n      swap2\n      swap1\n      tag_34\n      jump\t// in\n    tag_56:\n      swap1\n      dup2\n      mstore\n      0x20\n      add\n      mload(0x40)\n      dup1\n      swap2\n      sub\n      swap1\n      keccak256\n        /* \"solidity_test/test8.sol\":2481:2551  topics[_subject] = topic(topicNum, _subject, _content, msg.sender,0,0) */\n      0x00\n      dup3\n      add\n      mload\n      dup2\n      0x00\n      add\n      sstore\n      0x20\n      dup3\n      add\n      mload\n      dup2\n      0x01\n      add\n      swap1\n      dup2\n      tag_57\n      swap2\n      swap1\n      tag_58\n      jump\t// in\n    tag_57:\n      pop\n      0x40\n      dup3\n      add\n      mload\n      dup2\n      0x02\n      add\n      swap1\n      dup2\n      tag_59\n      swap2\n      swap1\n      tag_58\n      jump\t// in\n    tag_59:\n      pop\n      0x60\n      dup3\n      add\n      mload\n      dup2\n      0x03\n      add\n      exp(0x0100, 0x00)\n      dup2\n      sload\n      dup2\n      0xffffffffffffffffffffffffffffffffffffffff\n      mul\n      not\n      and\n      swap1\n      dup4\n      0xffffffffffffffffffffffffffffffffffffffff\n      and\n      mul\n      or\n      swap1\n      sstore\n      pop\n      0x80\n      dup3\n      add\n      mload\n      dup2\n      0x04\n      add\n      sstore\n      0xa0\n      dup3\n      add\n      mload\n      dup2\n      0x05\n      add\n      sstore\n      swap1\n      pop\n      pop\n        /* \"solidity_test/test8.sol\":2562:2570  topicNum */\n      0x04\n      0x00\n        /* \"solidity_test/test8.sol\":2562:2572  topicNum++ */\n      dup2\n      sload\n      dup1\n      swap3\n      swap2\n      swap1\n      tag_60\n      swap1\n      tag_61\n      jump\t// in\n    tag_60:\n      swap2\n      swap1\n      pop\n      sstore\n      pop\n        /* \"solidity_test/test8.sol\":2397:2580  function setTopic(string memory _subject, string memory _content) public {... */\n      pop\n      pop\n      jump\t// out\n        /* \"solidity_test/test8.sol\":2875:3185  function voting(string memory _subject, bool _vote) public {... */\n    tag_26:\n        /* \"solidity_test/test8.sol\":2957:2961  true */\n      0x01\n        /* \"solidity_test/test8.sol\":2948:2961  _vote == true */\n      iszero\n      iszero\n        /* \"solidity_test/test8.sol\":2948:2953  _vote */\n      dup2\n        /* \"solidity_test/test8.sol\":2948:2961  _vote == true */\n      iszero\n      iszero\n      sub\n        /* \"solidity_test/test8.sol\":2945:3178  if(_vote == true) {... */\n      tag_63\n      jumpi\n        /* \"solidity_test/test8.sol\":3005:3006  1 */\n      0x01\n        /* \"solidity_test/test8.sol\":2978:2984  topics */\n      0x00\n        /* \"solidity_test/test8.sol\":2985:2993  _subject */\n      dup4\n        /* \"solidity_test/test8.sol\":2978:2994  topics[_subject] */\n      mload(0x40)\n      tag_64\n      swap2\n      swap1\n      tag_34\n      jump\t// in\n    tag_64:\n      swap1\n      dup2\n      mstore\n      0x20\n      add\n      mload(0x40)\n      dup1\n      swap2\n      sub\n      swap1\n      keccak256\n        /* \"solidity_test/test8.sol\":2978:3001  topics[_subject].upvote */\n      0x04\n      add\n      0x00\n        /* \"solidity_test/test8.sol\":2978:3006  topics[_subject].upvote += 1 */\n      dup3\n      dup3\n      sload\n      tag_65\n      swap2\n      swap1\n      tag_66\n      jump\t// in\n    tag_65:\n      swap3\n      pop\n      pop\n      dup2\n      swap1\n      sstore\n      pop\n        /* \"solidity_test/test8.sol\":3050:3054  true */\n      0x01\n        /* \"solidity_test/test8.sol\":3021:3025  vote */\n      0x02\n        /* \"solidity_test/test8.sol\":3021:3037  vote[msg.sender] */\n      0x00\n        /* \"solidity_test/test8.sol\":3026:3036  msg.sender */\n      caller\n        /* \"solidity_test/test8.sol\":3021:3037  vote[msg.sender] */\n      0xffffffffffffffffffffffffffffffffffffffff\n      and\n      0xffffffffffffffffffffffffffffffffffffffff\n      and\n      dup2\n      mstore\n      0x20\n      add\n      swap1\n      dup2\n      mstore\n      0x20\n      add\n      0x00\n      keccak256\n        /* \"solidity_test/test8.sol\":3038:3046  _subject */\n      dup4\n        /* \"solidity_test/test8.sol\":3021:3047  vote[msg.sender][_subject] */\n      mload(0x40)\n      tag_67\n      swap2\n      swap1\n      tag_34\n      jump\t// in\n    tag_67:\n      swap1\n      dup2\n      mstore\n      0x20\n      add\n      mload(0x40)\n      dup1\n      swap2\n      sub\n      swap1\n      keccak256\n      0x00\n        /* \"solidity_test/test8.sol\":3021:3054  vote[msg.sender][_subject] = true */\n      0x0100\n      exp\n      dup2\n      sload\n      dup2\n      0xff\n      mul\n      not\n      and\n      swap1\n      dup4\n      iszero\n      iszero\n      mul\n      or\n      swap1\n      sstore\n      pop\n        /* \"solidity_test/test8.sol\":2945:3178  if(_vote == true) {... */\n      jump(tag_68)\n    tag_63:\n        /* \"solidity_test/test8.sol\":3116:3117  1 */\n      0x01\n        /* \"solidity_test/test8.sol\":3087:3093  topics */\n      0x00\n        /* \"solidity_test/test8.sol\":3094:3102  _subject */\n      dup4\n        /* \"solidity_test/test8.sol\":3087:3103  topics[_subject] */\n      mload(0x40)\n      tag_69\n      swap2\n      swap1\n      tag_34\n      jump\t// in\n    tag_69:\n      swap1\n      dup2\n      mstore\n      0x20\n      add\n      mload(0x40)\n      dup1\n      swap2\n      sub\n      swap1\n      keccak256\n        /* \"solidity_test/test8.sol\":3087:3112  topics[_subject].downvote */\n      0x05\n      add\n      0x00\n        /* \"solidity_test/test8.sol\":3087:3117  topics[_subject].downvote += 1 */\n      dup3\n      dup3\n      sload\n      tag_70\n      swap2\n      swap1\n      tag_66\n      jump\t// in\n    tag_70:\n      swap3\n      pop\n      pop\n      dup2\n      swap1\n      sstore\n      pop\n        /* \"solidity_test/test8.sol\":3161:3166  false */\n      0x00\n        /* \"solidity_test/test8.sol\":3132:3136  vote */\n      0x02\n        /* \"solidity_test/test8.sol\":3132:3148  vote[msg.sender] */\n      0x00\n        /* \"solidity_test/test8.sol\":3137:3147  msg.sender */\n      caller\n        /* \"solidity_test/test8.sol\":3132:3148  vote[msg.sender] */\n      0xffffffffffffffffffffffffffffffffffffffff\n      and\n      0xffffffffffffffffffffffffffffffffffffffff\n      and\n      dup2\n      mstore\n      0x20\n      add\n      swap1\n      dup2\n      mstore\n      0x20\n      add\n      0x00\n      keccak256\n        /* \"solidity_test/test8.sol\":3149:3157  _subject */\n      dup4\n        /* \"solidity_test/test8.sol\":3132:3158  vote[msg.sender][_subject] */\n      mload(0x40)\n      tag_71\n      swap2\n      swap1\n      tag_34\n      jump\t// in\n    tag_71:\n      swap1\n      dup2\n      mstore\n      0x20\n      add\n      mload(0x40)\n      dup1\n      swap2\n      sub\n      swap1\n      keccak256\n      0x00\n        /* \"solidity_test/test8.sol\":3132:3166  vote[msg.sender][_subject] = false */\n      0x0100\n      exp\n      dup2\n      sload\n      dup2\n      0xff\n      mul\n      not\n      and\n      swap1\n      dup4\n      iszero\n      iszero\n      mul\n      or\n      swap1\n      sstore\n      pop\n        /* \"solidity_test/test8.sol\":2945:3178  if(_vote == true) {... */\n    tag_68:\n        /* \"solidity_test/test8.sol\":2875:3185  function voting(string memory _subject, bool _vote) public {... */\n      pop\n      pop\n      jump\t// out\n        /* \"solidity_test/test8.sol\":2170:2272  function setUser(string memory _name) public {... */\n    tag_29:\n        /* \"solidity_test/test8.sol\":2241:2264  user(_name, msg.sender) */\n      mload(0x40)\n      dup1\n      0x40\n      add\n      0x40\n      mstore\n      dup1\n        /* \"solidity_test/test8.sol\":2246:2251  _name */\n      dup3\n        /* \"solidity_test/test8.sol\":2241:2264  user(_name, msg.sender) */\n      dup2\n      mstore\n      0x20\n      add\n        /* \"solidity_test/test8.sol\":2253:2263  msg.sender */\n      caller\n        /* \"solidity_test/test8.sol\":2241:2264  user(_name, msg.sender) */\n      0xffffffffffffffffffffffffffffffffffffffff\n      and\n      dup2\n      mstore\n      pop\n        /* \"solidity_test/test8.sol\":2226:2231  users */\n      0x03\n        /* \"solidity_test/test8.sol\":2232:2237  _name */\n      dup3\n        /* \"solidity_test/test8.sol\":2226:2238  users[_name] */\n      mload(0x40)\n      tag_73\n      swap2\n      swap1\n      tag_34\n      jump\t// in\n    tag_73:\n      swap1\n      dup2\n      mstore\n      0x20\n      add\n      mload(0x40)\n      dup1\n      swap2\n      sub\n      swap1\n      keccak256\n        /* \"solidity_test/test8.sol\":2226:2264  users[_name] = user(_name, msg.sender) */\n      0x00\n      dup3\n      add\n      mload\n      dup2\n      0x00\n      add\n      swap1\n      dup2\n      tag_74\n      swap2\n      swap1\n      tag_58\n      jump\t// in\n    tag_74:\n      pop\n      0x20\n      dup3\n      add\n      mload\n      dup2\n      0x01\n      add\n      exp(0x0100, 0x00)\n      dup2\n      sload\n      dup2\n      0xffffffffffffffffffffffffffffffffffffffff\n      mul\n      not\n      and\n      swap1\n      dup4\n      0xffffffffffffffffffffffffffffffffffffffff\n      and\n      mul\n      or\n      swap1\n      sstore\n      pop\n      swap1\n      pop\n      pop\n        /* \"solidity_test/test8.sol\":2170:2272  function setUser(string memory _name) public {... */\n      pop\n      jump\t// out\n    tag_31:\n      mload(0x40)\n      dup1\n      0x40\n      add\n      0x40\n      mstore\n      dup1\n      0x60\n      dup2\n      mstore\n      0x20\n      add\n      and(0xffffffffffffffffffffffffffffffffffffffff, 0x00)\n      dup2\n      mstore\n      pop\n      swap1\n      jump\t// out\n    tag_42:\n      mload(0x40)\n      dup1\n      0xc0\n      add\n      0x40\n      mstore\n      dup1\n      0x00\n      dup2\n      mstore\n      0x20\n      add\n      0x60\n      dup2\n      mstore\n      0x20\n      add\n      0x60\n      dup2\n      mstore\n      0x20\n      add\n      and(0xffffffffffffffffffffffffffffffffffffffff, 0x00)\n      dup2\n      mstore\n      0x20\n      add\n      0x00\n      dup2\n      mstore\n      0x20\n      add\n      0x00\n      dup2\n      mstore\n      pop\n      swap1\n      jump\t// out\n        /* \"#utility.yul\":7:82   */\n    tag_75:\n        /* \"#utility.yul\":40:46   */\n      0x00\n        /* \"#utility.yul\":73:75   */\n      0x40\n        /* \"#utility.yul\":67:76   */\n      mload\n        /* \"#utility.yul\":57:76   */\n      swap1\n      pop\n        /* \"#utility.yul\":7:82   */\n      swap1\n      jump\t// out\n        /* \"#utility.yul\":88:205   */\n    tag_76:\n        /* \"#utility.yul\":197:198   */\n      0x00\n        /* \"#utility.yul\":194:195   */\n      dup1\n        /* \"#utility.yul\":187:199   */\n      revert\n        /* \"#utility.yul\":211:328   */\n    tag_77:\n        /* \"#utility.yul\":320:321   */\n      0x00\n        /* \"#utility.yul\":317:318   */\n      dup1\n        /* \"#utility.yul\":310:322   */\n      revert\n        /* \"#utility.yul\":334:451   */\n    tag_78:\n        /* \"#utility.yul\":443:444   */\n      0x00\n        /* \"#utility.yul\":440:441   */\n      dup1\n        /* \"#utility.yul\":433:445   */\n      revert\n        /* \"#utility.yul\":457:574   */\n    tag_79:\n        /* \"#utility.yul\":566:567   */\n      0x00\n        /* \"#utility.yul\":563:564   */\n      dup1\n        /* \"#utility.yul\":556:568   */\n      revert\n        /* \"#utility.yul\":580:682   */\n    tag_80:\n        /* \"#utility.yul\":621:627   */\n      0x00\n        /* \"#utility.yul\":672:674   */\n      0x1f\n        /* \"#utility.yul\":668:675   */\n      not\n        /* \"#utility.yul\":663:665   */\n      0x1f\n        /* \"#utility.yul\":656:661   */\n      dup4\n        /* \"#utility.yul\":652:666   */\n      add\n        /* \"#utility.yul\":648:676   */\n      and\n        /* \"#utility.yul\":638:676   */\n      swap1\n      pop\n        /* \"#utility.yul\":580:682   */\n      swap2\n      swap1\n      pop\n      jump\t// out\n        /* \"#utility.yul\":688:868   */\n    tag_81:\n        /* \"#utility.yul\":736:813   */\n      0x4e487b7100000000000000000000000000000000000000000000000000000000\n        /* \"#utility.yul\":733:734   */\n      0x00\n        /* \"#utility.yul\":726:814   */\n      mstore\n        /* \"#utility.yul\":833:837   */\n      0x41\n        /* \"#utility.yul\":830:831   */\n      0x04\n        /* \"#utility.yul\":823:838   */\n      mstore\n        /* \"#utility.yul\":857:861   */\n      0x24\n        /* \"#utility.yul\":854:855   */\n      0x00\n        /* \"#utility.yul\":847:862   */\n      revert\n        /* \"#utility.yul\":874:1155   */\n    tag_82:\n        /* \"#utility.yul\":957:984   */\n      tag_130\n        /* \"#utility.yul\":979:983   */\n      dup3\n        /* \"#utility.yul\":957:984   */\n      tag_80\n      jump\t// in\n    tag_130:\n        /* \"#utility.yul\":949:955   */\n      dup2\n        /* \"#utility.yul\":945:985   */\n      add\n        /* \"#utility.yul\":1087:1093   */\n      dup2\n        /* \"#utility.yul\":1075:1085   */\n      dup2\n        /* \"#utility.yul\":1072:1094   */\n      lt\n        /* \"#utility.yul\":1051:1069   */\n      0xffffffffffffffff\n        /* \"#utility.yul\":1039:1049   */\n      dup3\n        /* \"#utility.yul\":1036:1070   */\n      gt\n        /* \"#utility.yul\":1033:1095   */\n      or\n        /* \"#utility.yul\":1030:1118   */\n      iszero\n      tag_131\n      jumpi\n        /* \"#utility.yul\":1098:1116   */\n      tag_132\n      tag_81\n      jump\t// in\n    tag_132:\n        /* \"#utility.yul\":1030:1118   */\n    tag_131:\n        /* \"#utility.yul\":1138:1148   */\n      dup1\n        /* \"#utility.yul\":1134:1136   */\n      0x40\n        /* \"#utility.yul\":1127:1149   */\n      mstore\n        /* \"#utility.yul\":917:1155   */\n      pop\n        /* \"#utility.yul\":874:1155   */\n      pop\n      pop\n      jump\t// out\n        /* \"#utility.yul\":1161:1290   */\n    tag_83:\n        /* \"#utility.yul\":1195:1201   */\n      0x00\n        /* \"#utility.yul\":1222:1242   */\n      tag_134\n      tag_75\n      jump\t// in\n    tag_134:\n        /* \"#utility.yul\":1212:1242   */\n      swap1\n      pop\n        /* \"#utility.yul\":1251:1284   */\n      tag_135\n        /* \"#utility.yul\":1279:1283   */\n      dup3\n        /* \"#utility.yul\":1271:1277   */\n      dup3\n        /* \"#utility.yul\":1251:1284   */\n      tag_82\n      jump\t// in\n    tag_135:\n        /* \"#utility.yul\":1161:1290   */\n      swap2\n      swap1\n      pop\n      jump\t// out\n        /* \"#utility.yul\":1296:1604   */\n    tag_84:\n        /* \"#utility.yul\":1358:1362   */\n      0x00\n        /* \"#utility.yul\":1448:1466   */\n      0xffffffffffffffff\n        /* \"#utility.yul\":1440:1446   */\n      dup3\n        /* \"#utility.yul\":1437:1467   */\n      gt\n        /* \"#utility.yul\":1434:1490   */\n      iszero\n      tag_137\n      jumpi\n        /* \"#utility.yul\":1470:1488   */\n      tag_138\n      tag_81\n      jump\t// in\n    tag_138:\n        /* \"#utility.yul\":1434:1490   */\n    tag_137:\n        /* \"#utility.yul\":1508:1537   */\n      tag_139\n        /* \"#utility.yul\":1530:1536   */\n      dup3\n        /* \"#utility.yul\":1508:1537   */\n      tag_80\n      jump\t// in\n    tag_139:\n        /* \"#utility.yul\":1500:1537   */\n      swap1\n      pop\n        /* \"#utility.yul\":1592:1596   */\n      0x20\n        /* \"#utility.yul\":1586:1590   */\n      dup2\n        /* \"#utility.yul\":1582:1597   */\n      add\n        /* \"#utility.yul\":1574:1597   */\n      swap1\n      pop\n        /* \"#utility.yul\":1296:1604   */\n      swap2\n      swap1\n      pop\n      jump\t// out\n        /* \"#utility.yul\":1610:1758   */\n    tag_85:\n        /* \"#utility.yul\":1708:1714   */\n      dup3\n        /* \"#utility.yul\":1703:1706   */\n      dup2\n        /* \"#utility.yul\":1698:1701   */\n      dup4\n        /* \"#utility.yul\":1685:1715   */\n      calldatacopy\n        /* \"#utility.yul\":1749:1750   */\n      0x00\n        /* \"#utility.yul\":1740:1746   */\n      dup4\n        /* \"#utility.yul\":1735:1738   */\n      dup4\n        /* \"#utility.yul\":1731:1747   */\n      add\n        /* \"#utility.yul\":1724:1751   */\n      mstore\n        /* \"#utility.yul\":1610:1758   */\n      pop\n      pop\n      pop\n      jump\t// out\n        /* \"#utility.yul\":1764:2189   */\n    tag_86:\n        /* \"#utility.yul\":1842:1847   */\n      0x00\n        /* \"#utility.yul\":1867:1933   */\n      tag_142\n        /* \"#utility.yul\":1883:1932   */\n      tag_143\n        /* \"#utility.yul\":1925:1931   */\n      dup5\n        /* \"#utility.yul\":1883:1932   */\n      tag_84\n      jump\t// in\n    tag_143:\n        /* \"#utility.yul\":1867:1933   */\n      tag_83\n      jump\t// in\n    tag_142:\n        /* \"#utility.yul\":1858:1933   */\n      swap1\n      pop\n        /* \"#utility.yul\":1956:1962   */\n      dup3\n        /* \"#utility.yul\":1949:1954   */\n      dup2\n        /* \"#utility.yul\":1942:1963   */\n      mstore\n        /* \"#utility.yul\":1994:1998   */\n      0x20\n        /* \"#utility.yul\":1987:1992   */\n      dup2\n        /* \"#utility.yul\":1983:1999   */\n      add\n        /* \"#utility.yul\":2032:2035   */\n      dup5\n        /* \"#utility.yul\":2023:2029   */\n      dup5\n        /* \"#utility.yul\":2018:2021   */\n      dup5\n        /* \"#utility.yul\":2014:2030   */\n      add\n        /* \"#utility.yul\":2011:2036   */\n      gt\n        /* \"#utility.yul\":2008:2120   */\n      iszero\n      tag_144\n      jumpi\n        /* \"#utility.yul\":2039:2118   */\n      tag_145\n      tag_79\n      jump\t// in\n    tag_145:\n        /* \"#utility.yul\":2008:2120   */\n    tag_144:\n        /* \"#utility.yul\":2129:2183   */\n      tag_146\n        /* \"#utility.yul\":2176:2182   */\n      dup5\n        /* \"#utility.yul\":2171:2174   */\n      dup3\n        /* \"#utility.yul\":2166:2169   */\n      dup6\n        /* \"#utility.yul\":2129:2183   */\n      tag_85\n      jump\t// in\n    tag_146:\n        /* \"#utility.yul\":1848:2189   */\n      pop\n        /* \"#utility.yul\":1764:2189   */\n      swap4\n      swap3\n      pop\n      pop\n      pop\n      jump\t// out\n        /* \"#utility.yul\":2209:2549   */\n    tag_87:\n        /* \"#utility.yul\":2265:2270   */\n      0x00\n        /* \"#utility.yul\":2314:2317   */\n      dup3\n        /* \"#utility.yul\":2307:2311   */\n      0x1f\n        /* \"#utility.yul\":2299:2305   */\n      dup4\n        /* \"#utility.yul\":2295:2312   */\n      add\n        /* \"#utility.yul\":2291:2318   */\n      slt\n        /* \"#utility.yul\":2281:2403   */\n      tag_148\n      jumpi\n        /* \"#utility.yul\":2322:2401   */\n      tag_149\n      tag_78\n      jump\t// in\n    tag_149:\n        /* \"#utility.yul\":2281:2403   */\n    tag_148:\n        /* \"#utility.yul\":2439:2445   */\n      dup2\n        /* \"#utility.yul\":2426:2446   */\n      calldataload\n        /* \"#utility.yul\":2464:2543   */\n      tag_150\n        /* \"#utility.yul\":2539:2542   */\n      dup5\n        /* \"#utility.yul\":2531:2537   */\n      dup3\n        /* \"#utility.yul\":2524:2528   */\n      0x20\n        /* \"#utility.yul\":2516:2522   */\n      dup7\n        /* \"#utility.yul\":2512:2529   */\n      add\n        /* \"#utility.yul\":2464:2543   */\n      tag_86\n      jump\t// in\n    tag_150:\n        /* \"#utility.yul\":2455:2543   */\n      swap2\n      pop\n        /* \"#utility.yul\":2271:2549   */\n      pop\n        /* \"#utility.yul\":2209:2549   */\n      swap3\n      swap2\n      pop\n      pop\n      jump\t// out\n        /* \"#utility.yul\":2555:3064   */\n    tag_10:\n        /* \"#utility.yul\":2624:2630   */\n      0x00\n        /* \"#utility.yul\":2673:2675   */\n      0x20\n        /* \"#utility.yul\":2661:2670   */\n      dup3\n        /* \"#utility.yul\":2652:2659   */\n      dup5\n        /* \"#utility.yul\":2648:2671   */\n      sub\n        /* \"#utility.yul\":2644:2676   */\n      slt\n        /* \"#utility.yul\":2641:2760   */\n      iszero\n      tag_152\n      jumpi\n        /* \"#utility.yul\":2679:2758   */\n      tag_153\n      tag_76\n      jump\t// in\n    tag_153:\n        /* \"#utility.yul\":2641:2760   */\n    tag_152:\n        /* \"#utility.yul\":2827:2828   */\n      0x00\n        /* \"#utility.yul\":2816:2825   */\n      dup3\n        /* \"#utility.yul\":2812:2829   */\n      add\n        /* \"#utility.yul\":2799:2830   */\n      calldataload\n        /* \"#utility.yul\":2857:2875   */\n      0xffffffffffffffff\n        /* \"#utility.yul\":2849:2855   */\n      dup2\n        /* \"#utility.yul\":2846:2876   */\n      gt\n        /* \"#utility.yul\":2843:2960   */\n      iszero\n      tag_154\n      jumpi\n        /* \"#utility.yul\":2879:2958   */\n      tag_155\n      tag_77\n      jump\t// in\n    tag_155:\n        /* \"#utility.yul\":2843:2960   */\n    tag_154:\n        /* \"#utility.yul\":2984:3047   */\n      tag_156\n        /* \"#utility.yul\":3039:3046   */\n      dup5\n        /* \"#utility.yul\":3030:3036   */\n      dup3\n        /* \"#utility.yul\":3019:3028   */\n      dup6\n        /* \"#utility.yul\":3015:3037   */\n      add\n        /* \"#utility.yul\":2984:3047   */\n      tag_87\n      jump\t// in\n    tag_156:\n        /* \"#utility.yul\":2974:3047   */\n      swap2\n      pop\n        /* \"#utility.yul\":2770:3057   */\n      pop\n        /* \"#utility.yul\":2555:3064   */\n      swap3\n      swap2\n      pop\n      pop\n      jump\t// out\n        /* \"#utility.yul\":3070:3169   */\n    tag_88:\n        /* \"#utility.yul\":3122:3128   */\n      0x00\n        /* \"#utility.yul\":3156:3161   */\n      dup2\n        /* \"#utility.yul\":3150:3162   */\n      mload\n        /* \"#utility.yul\":3140:3162   */\n      swap1\n      pop\n        /* \"#utility.yul\":3070:3169   */\n      swap2\n      swap1\n      pop\n      jump\t// out\n        /* \"#utility.yul\":3175:3334   */\n    tag_89:\n        /* \"#utility.yul\":3249:3260   */\n      0x00\n        /* \"#utility.yul\":3283:3289   */\n      dup3\n        /* \"#utility.yul\":3278:3281   */\n      dup3\n        /* \"#utility.yul\":3271:3290   */\n      mstore\n        /* \"#utility.yul\":3323:3327   */\n      0x20\n        /* \"#utility.yul\":3318:3321   */\n      dup3\n        /* \"#utility.yul\":3314:3328   */\n      add\n        /* \"#utility.yul\":3299:3328   */\n      swap1\n      pop\n        /* \"#utility.yul\":3175:3334   */\n      swap3\n      swap2\n      pop\n      pop\n      jump\t// out\n        /* \"#utility.yul\":3340:3479   */\n    tag_90:\n        /* \"#utility.yul\":3429:3435   */\n      dup3\n        /* \"#utility.yul\":3424:3427   */\n      dup2\n        /* \"#utility.yul\":3419:3422   */\n      dup4\n        /* \"#utility.yul\":3413:3436   */\n      mcopy\n        /* \"#utility.yul\":3470:3471   */\n      0x00\n        /* \"#utility.yul\":3461:3467   */\n      dup4\n        /* \"#utility.yul\":3456:3459   */\n      dup4\n        /* \"#utility.yul\":3452:3468   */\n      add\n        /* \"#utility.yul\":3445:3472   */\n      mstore\n        /* \"#utility.yul\":3340:3479   */\n      pop\n      pop\n      pop\n      jump\t// out\n        /* \"#utility.yul\":3485:3842   */\n    tag_91:\n        /* \"#utility.yul\":3563:3566   */\n      0x00\n        /* \"#utility.yul\":3591:3630   */\n      tag_161\n        /* \"#utility.yul\":3624:3629   */\n      dup3\n        /* \"#utility.yul\":3591:3630   */\n      tag_88\n      jump\t// in\n    tag_161:\n        /* \"#utility.yul\":3646:3707   */\n      tag_162\n        /* \"#utility.yul\":3700:3706   */\n      dup2\n        /* \"#utility.yul\":3695:3698   */\n      dup6\n        /* \"#utility.yul\":3646:3707   */\n      tag_89\n      jump\t// in\n    tag_162:\n        /* \"#utility.yul\":3639:3707   */\n      swap4\n      pop\n        /* \"#utility.yul\":3716:3781   */\n      tag_163\n        /* \"#utility.yul\":3774:3780   */\n      dup2\n        /* \"#utility.yul\":3769:3772   */\n      dup6\n        /* \"#utility.yul\":3762:3766   */\n      0x20\n        /* \"#utility.yul\":3755:3760   */\n      dup7\n        /* \"#utility.yul\":3751:3767   */\n      add\n        /* \"#utility.yul\":3716:3781   */\n      tag_90\n      jump\t// in\n    tag_163:\n        /* \"#utility.yul\":3806:3835   */\n      tag_164\n        /* \"#utility.yul\":3828:3834   */\n      dup2\n        /* \"#utility.yul\":3806:3835   */\n      tag_80\n      jump\t// in\n    tag_164:\n        /* \"#utility.yul\":3801:3804   */\n      dup5\n        /* \"#utility.yul\":3797:3836   */\n      add\n        /* \"#utility.yul\":3790:3836   */\n      swap2\n      pop\n        /* \"#utility.yul\":3567:3842   */\n      pop\n        /* \"#utility.yul\":3485:3842   */\n      swap3\n      swap2\n      pop\n      pop\n      jump\t// out\n        /* \"#utility.yul\":3848:3974   */\n    tag_92:\n        /* \"#utility.yul\":3885:3892   */\n      0x00\n        /* \"#utility.yul\":3925:3967   */\n      0xffffffffffffffffffffffffffffffffffffffff\n        /* \"#utility.yul\":3918:3923   */\n      dup3\n        /* \"#utility.yul\":3914:3968   */\n      and\n        /* \"#utility.yul\":3903:3968   */\n      swap1\n      pop\n        /* \"#utility.yul\":3848:3974   */\n      swap2\n      swap1\n      pop\n      jump\t// out\n        /* \"#utility.yul\":3980:4076   */\n    tag_93:\n        /* \"#utility.yul\":4017:4024   */\n      0x00\n        /* \"#utility.yul\":4046:4070   */\n      tag_167\n        /* \"#utility.yul\":4064:4069   */\n      dup3\n        /* \"#utility.yul\":4046:4070   */\n      tag_92\n      jump\t// in\n    tag_167:\n        /* \"#utility.yul\":4035:4070   */\n      swap1\n      pop\n        /* \"#utility.yul\":3980:4076   */\n      swap2\n      swap1\n      pop\n      jump\t// out\n        /* \"#utility.yul\":4082:4190   */\n    tag_94:\n        /* \"#utility.yul\":4159:4183   */\n      tag_169\n        /* \"#utility.yul\":4177:4182   */\n      dup2\n        /* \"#utility.yul\":4159:4183   */\n      tag_93\n      jump\t// in\n    tag_169:\n        /* \"#utility.yul\":4154:4157   */\n      dup3\n        /* \"#utility.yul\":4147:4184   */\n      mstore\n        /* \"#utility.yul\":4082:4190   */\n      pop\n      pop\n      jump\t// out\n        /* \"#utility.yul\":4234:4832   */\n    tag_95:\n        /* \"#utility.yul\":4343:4346   */\n      0x00\n        /* \"#utility.yul\":4379:4383   */\n      0x40\n        /* \"#utility.yul\":4374:4377   */\n      dup4\n        /* \"#utility.yul\":4370:4384   */\n      add\n        /* \"#utility.yul\":4466:4470   */\n      0x00\n        /* \"#utility.yul\":4459:4464   */\n      dup4\n        /* \"#utility.yul\":4455:4471   */\n      add\n        /* \"#utility.yul\":4449:4472   */\n      mload\n        /* \"#utility.yul\":4519:4522   */\n      dup5\n        /* \"#utility.yul\":4513:4517   */\n      dup3\n        /* \"#utility.yul\":4509:4523   */\n      sub\n        /* \"#utility.yul\":4502:4506   */\n      0x00\n        /* \"#utility.yul\":4497:4500   */\n      dup7\n        /* \"#utility.yul\":4493:4507   */\n      add\n        /* \"#utility.yul\":4486:4524   */\n      mstore\n        /* \"#utility.yul\":4545:4618   */\n      tag_171\n        /* \"#utility.yul\":4613:4617   */\n      dup3\n        /* \"#utility.yul\":4599:4611   */\n      dup3\n        /* \"#utility.yul\":4545:4618   */\n      tag_91\n      jump\t// in\n    tag_171:\n        /* \"#utility.yul\":4537:4618   */\n      swap2\n      pop\n        /* \"#utility.yul\":4394:4629   */\n      pop\n        /* \"#utility.yul\":4713:4717   */\n      0x20\n        /* \"#utility.yul\":4706:4711   */\n      dup4\n        /* \"#utility.yul\":4702:4718   */\n      add\n        /* \"#utility.yul\":4696:4719   */\n      mload\n        /* \"#utility.yul\":4732:4795   */\n      tag_172\n        /* \"#utility.yul\":4789:4793   */\n      0x20\n        /* \"#utility.yul\":4784:4787   */\n      dup7\n        /* \"#utility.yul\":4780:4794   */\n      add\n        /* \"#utility.yul\":4766:4778   */\n      dup3\n        /* \"#utility.yul\":4732:4795   */\n      tag_94\n      jump\t// in\n    tag_172:\n        /* \"#utility.yul\":4639:4805   */\n      pop\n        /* \"#utility.yul\":4822:4826   */\n      dup1\n        /* \"#utility.yul\":4815:4826   */\n      swap2\n      pop\n        /* \"#utility.yul\":4348:4832   */\n      pop\n        /* \"#utility.yul\":4234:4832   */\n      swap3\n      swap2\n      pop\n      pop\n      jump\t// out\n        /* \"#utility.yul\":4838:5191   */\n    tag_13:\n        /* \"#utility.yul\":4971:4975   */\n      0x00\n        /* \"#utility.yul\":5009:5011   */\n      0x20\n        /* \"#utility.yul\":4998:5007   */\n      dup3\n        /* \"#utility.yul\":4994:5012   */\n      add\n        /* \"#utility.yul\":4986:5012   */\n      swap1\n      pop\n        /* \"#utility.yul\":5058:5067   */\n      dup2\n        /* \"#utility.yul\":5052:5056   */\n      dup2\n        /* \"#utility.yul\":5048:5068   */\n      sub\n        /* \"#utility.yul\":5044:5045   */\n      0x00\n        /* \"#utility.yul\":5033:5042   */\n      dup4\n        /* \"#utility.yul\":5029:5046   */\n      add\n        /* \"#utility.yul\":5022:5069   */\n      mstore\n        /* \"#utility.yul\":5086:5184   */\n      tag_174\n        /* \"#utility.yul\":5179:5183   */\n      dup2\n        /* \"#utility.yul\":5170:5176   */\n      dup5\n        /* \"#utility.yul\":5086:5184   */\n      tag_95\n      jump\t// in\n    tag_174:\n        /* \"#utility.yul\":5078:5184   */\n      swap1\n      pop\n        /* \"#utility.yul\":4838:5191   */\n      swap3\n      swap2\n      pop\n      pop\n      jump\t// out\n        /* \"#utility.yul\":5197:5274   */\n    tag_96:\n        /* \"#utility.yul\":5234:5241   */\n      0x00\n        /* \"#utility.yul\":5263:5268   */\n      dup2\n        /* \"#utility.yul\":5252:5268   */\n      swap1\n      pop\n        /* \"#utility.yul\":5197:5274   */\n      swap2\n      swap1\n      pop\n      jump\t// out\n        /* \"#utility.yul\":5280:5388   */\n    tag_97:\n        /* \"#utility.yul\":5357:5381   */\n      tag_177\n        /* \"#utility.yul\":5375:5380   */\n      dup2\n        /* \"#utility.yul\":5357:5381   */\n      tag_96\n      jump\t// in\n    tag_177:\n        /* \"#utility.yul\":5352:5355   */\n      dup3\n        /* \"#utility.yul\":5345:5382   */\n      mstore\n        /* \"#utility.yul\":5280:5388   */\n      pop\n      pop\n      jump\t// out\n        /* \"#utility.yul\":5434:6817   */\n    tag_98:\n        /* \"#utility.yul\":5545:5548   */\n      0x00\n        /* \"#utility.yul\":5581:5585   */\n      0xc0\n        /* \"#utility.yul\":5576:5579   */\n      dup4\n        /* \"#utility.yul\":5572:5586   */\n      add\n        /* \"#utility.yul\":5670:5674   */\n      0x00\n        /* \"#utility.yul\":5663:5668   */\n      dup4\n        /* \"#utility.yul\":5659:5675   */\n      add\n        /* \"#utility.yul\":5653:5676   */\n      mload\n        /* \"#utility.yul\":5689:5752   */\n      tag_179\n        /* \"#utility.yul\":5746:5750   */\n      0x00\n        /* \"#utility.yul\":5741:5744   */\n      dup7\n        /* \"#utility.yul\":5737:5751   */\n      add\n        /* \"#utility.yul\":5723:5735   */\n      dup3\n        /* \"#utility.yul\":5689:5752   */\n      tag_97\n      jump\t// in\n    tag_179:\n        /* \"#utility.yul\":5596:5762   */\n      pop\n        /* \"#utility.yul\":5847:5851   */\n      0x20\n        /* \"#utility.yul\":5840:5845   */\n      dup4\n        /* \"#utility.yul\":5836:5852   */\n      add\n        /* \"#utility.yul\":5830:5853   */\n      mload\n        /* \"#utility.yul\":5900:5903   */\n      dup5\n        /* \"#utility.yul\":5894:5898   */\n      dup3\n        /* \"#utility.yul\":5890:5904   */\n      sub\n        /* \"#utility.yul\":5883:5887   */\n      0x20\n        /* \"#utility.yul\":5878:5881   */\n      dup7\n        /* \"#utility.yul\":5874:5888   */\n      add\n        /* \"#utility.yul\":5867:5905   */\n      mstore\n        /* \"#utility.yul\":5926:5999   */\n      tag_180\n        /* \"#utility.yul\":5994:5998   */\n      dup3\n        /* \"#utility.yul\":5980:5992   */\n      dup3\n        /* \"#utility.yul\":5926:5999   */\n      tag_91\n      jump\t// in\n    tag_180:\n        /* \"#utility.yul\":5918:5999   */\n      swap2\n      pop\n        /* \"#utility.yul\":5772:6010   */\n      pop\n        /* \"#utility.yul\":6095:6099   */\n      0x40\n        /* \"#utility.yul\":6088:6093   */\n      dup4\n        /* \"#utility.yul\":6084:6100   */\n      add\n        /* \"#utility.yul\":6078:6101   */\n      mload\n        /* \"#utility.yul\":6148:6151   */\n      dup5\n        /* \"#utility.yul\":6142:6146   */\n      dup3\n        /* \"#utility.yul\":6138:6152   */\n      sub\n        /* \"#utility.yul\":6131:6135   */\n      0x40\n        /* \"#utility.yul\":6126:6129   */\n      dup7\n        /* \"#utility.yul\":6122:6136   */\n      add\n        /* \"#utility.yul\":6115:6153   */\n      mstore\n        /* \"#utility.yul\":6174:6247   */\n      tag_181\n        /* \"#utility.yul\":6242:6246   */\n      dup3\n        /* \"#utility.yul\":6228:6240   */\n      dup3\n        /* \"#utility.yul\":6174:6247   */\n      tag_91\n      jump\t// in\n    tag_181:\n        /* \"#utility.yul\":6166:6247   */\n      swap2\n      pop\n        /* \"#utility.yul\":6020:6258   */\n      pop\n        /* \"#utility.yul\":6344:6348   */\n      0x60\n        /* \"#utility.yul\":6337:6342   */\n      dup4\n        /* \"#utility.yul\":6333:6349   */\n      add\n        /* \"#utility.yul\":6327:6350   */\n      mload\n        /* \"#utility.yul\":6363:6426   */\n      tag_182\n        /* \"#utility.yul\":6420:6424   */\n      0x60\n        /* \"#utility.yul\":6415:6418   */\n      dup7\n        /* \"#utility.yul\":6411:6425   */\n      add\n        /* \"#utility.yul\":6397:6409   */\n      dup3\n        /* \"#utility.yul\":6363:6426   */\n      tag_94\n      jump\t// in\n    tag_182:\n        /* \"#utility.yul\":6268:6436   */\n      pop\n        /* \"#utility.yul\":6520:6524   */\n      0x80\n        /* \"#utility.yul\":6513:6518   */\n      dup4\n        /* \"#utility.yul\":6509:6525   */\n      add\n        /* \"#utility.yul\":6503:6526   */\n      mload\n        /* \"#utility.yul\":6539:6602   */\n      tag_183\n        /* \"#utility.yul\":6596:6600   */\n      0x80\n        /* \"#utility.yul\":6591:6594   */\n      dup7\n        /* \"#utility.yul\":6587:6601   */\n      add\n        /* \"#utility.yul\":6573:6585   */\n      dup3\n        /* \"#utility.yul\":6539:6602   */\n      tag_97\n      jump\t// in\n    tag_183:\n        /* \"#utility.yul\":6446:6612   */\n      pop\n        /* \"#utility.yul\":6698:6702   */\n      0xa0\n        /* \"#utility.yul\":6691:6696   */\n      dup4\n        /* \"#utility.yul\":6687:6703   */\n      add\n        /* \"#utility.yul\":6681:6704   */\n      mload\n        /* \"#utility.yul\":6717:6780   */\n      tag_184\n        /* \"#utility.yul\":6774:6778   */\n      0xa0\n        /* \"#utility.yul\":6769:6772   */\n      dup7\n        /* \"#utility.yul\":6765:6779   */\n      add\n        /* \"#utility.yul\":6751:6763   */\n      dup3\n        /* \"#utility.yul\":6717:6780   */\n      tag_97\n      jump\t// in\n    tag_184:\n        /* \"#utility.yul\":6622:6790   */\n      pop\n        /* \"#utility.yul\":6807:6811   */\n      dup1\n        /* \"#utility.yul\":6800:6811   */\n      swap2\n      pop\n        /* \"#utility.yul\":5550:6817   */\n      pop\n        /* \"#utility.yul\":5434:6817   */\n      swap3\n      swap2\n      pop\n      pop\n      jump\t// out\n        /* \"#utility.yul\":6823:7180   */\n    tag_18:\n        /* \"#utility.yul\":6958:6962   */\n      0x00\n        /* \"#utility.yul\":6996:6998   */\n      0x20\n        /* \"#utility.yul\":6985:6994   */\n      dup3\n        /* \"#utility.yul\":6981:6999   */\n      add\n        /* \"#utility.yul\":6973:6999   */\n      swap1\n      pop\n        /* \"#utility.yul\":7045:7054   */\n      dup2\n        /* \"#utility.yul\":7039:7043   */\n      dup2\n        /* \"#utility.yul\":7035:7055   */\n      sub\n        /* \"#utility.yul\":7031:7032   */\n      0x00\n        /* \"#utility.yul\":7020:7029   */\n      dup4\n        /* \"#utility.yul\":7016:7033   */\n      add\n        /* \"#utility.yul\":7009:7056   */\n      mstore\n        /* \"#utility.yul\":7073:7173   */\n      tag_186\n        /* \"#utility.yul\":7168:7172   */\n      dup2\n        /* \"#utility.yul\":7159:7165   */\n      dup5\n        /* \"#utility.yul\":7073:7173   */\n      tag_98\n      jump\t// in\n    tag_186:\n        /* \"#utility.yul\":7065:7173   */\n      swap1\n      pop\n        /* \"#utility.yul\":6823:7180   */\n      swap3\n      swap2\n      pop\n      pop\n      jump\t// out\n        /* \"#utility.yul\":7186:8020   */\n    tag_21:\n        /* \"#utility.yul\":7274:7280   */\n      0x00\n        /* \"#utility.yul\":7282:7288   */\n      dup1\n        /* \"#utility.yul\":7331:7333   */\n      0x40\n        /* \"#utility.yul\":7319:7328   */\n      dup4\n        /* \"#utility.yul\":7310:7317   */\n      dup6\n        /* \"#utility.yul\":7306:7329   */\n      sub\n        /* \"#utility.yul\":7302:7334   */\n      slt\n        /* \"#utility.yul\":7299:7418   */\n      iszero\n      tag_188\n      jumpi\n        /* \"#utility.yul\":7337:7416   */\n      tag_189\n      tag_76\n      jump\t// in\n    tag_189:\n        /* \"#utility.yul\":7299:7418   */\n    tag_188:\n        /* \"#utility.yul\":7485:7486   */\n      0x00\n        /* \"#utility.yul\":7474:7483   */\n      dup4\n        /* \"#utility.yul\":7470:7487   */\n      add\n        /* \"#utility.yul\":7457:7488   */\n      calldataload\n        /* \"#utility.yul\":7515:7533   */\n      0xffffffffffffffff\n        /* \"#utility.yul\":7507:7513   */\n      dup2\n        /* \"#utility.yul\":7504:7534   */\n      gt\n        /* \"#utility.yul\":7501:7618   */\n      iszero\n      tag_190\n      jumpi\n        /* \"#utility.yul\":7537:7616   */\n      tag_191\n      tag_77\n      jump\t// in\n    tag_191:\n        /* \"#utility.yul\":7501:7618   */\n    tag_190:\n        /* \"#utility.yul\":7642:7705   */\n      tag_192\n        /* \"#utility.yul\":7697:7704   */\n      dup6\n        /* \"#utility.yul\":7688:7694   */\n      dup3\n        /* \"#utility.yul\":7677:7686   */\n      dup7\n        /* \"#utility.yul\":7673:7695   */\n      add\n        /* \"#utility.yul\":7642:7705   */\n      tag_87\n      jump\t// in\n    tag_192:\n        /* \"#utility.yul\":7632:7705   */\n      swap3\n      pop\n        /* \"#utility.yul\":7428:7715   */\n      pop\n        /* \"#utility.yul\":7782:7784   */\n      0x20\n        /* \"#utility.yul\":7771:7780   */\n      dup4\n        /* \"#utility.yul\":7767:7785   */\n      add\n        /* \"#utility.yul\":7754:7786   */\n      calldataload\n        /* \"#utility.yul\":7813:7831   */\n      0xffffffffffffffff\n        /* \"#utility.yul\":7805:7811   */\n      dup2\n        /* \"#utility.yul\":7802:7832   */\n      gt\n        /* \"#utility.yul\":7799:7916   */\n      iszero\n      tag_193\n      jumpi\n        /* \"#utility.yul\":7835:7914   */\n      tag_194\n      tag_77\n      jump\t// in\n    tag_194:\n        /* \"#utility.yul\":7799:7916   */\n    tag_193:\n        /* \"#utility.yul\":7940:8003   */\n      tag_195\n        /* \"#utility.yul\":7995:8002   */\n      dup6\n        /* \"#utility.yul\":7986:7992   */\n      dup3\n        /* \"#utility.yul\":7975:7984   */\n      dup7\n        /* \"#utility.yul\":7971:7993   */\n      add\n        /* \"#utility.yul\":7940:8003   */\n      tag_87\n      jump\t// in\n    tag_195:\n        /* \"#utility.yul\":7930:8003   */\n      swap2\n      pop\n        /* \"#utility.yul\":7725:8013   */\n      pop\n        /* \"#utility.yul\":7186:8020   */\n      swap3\n      pop\n      swap3\n      swap1\n      pop\n      jump\t// out\n        /* \"#utility.yul\":8026:8116   */\n    tag_99:\n        /* \"#utility.yul\":8060:8067   */\n      0x00\n        /* \"#utility.yul\":8103:8108   */\n      dup2\n        /* \"#utility.yul\":8096:8109   */\n      iszero\n        /* \"#utility.yul\":8089:8110   */\n      iszero\n        /* \"#utility.yul\":8078:8110   */\n      swap1\n      pop\n        /* \"#utility.yul\":8026:8116   */\n      swap2\n      swap1\n      pop\n      jump\t// out\n        /* \"#utility.yul\":8122:8238   */\n    tag_100:\n        /* \"#utility.yul\":8192:8213   */\n      tag_198\n        /* \"#utility.yul\":8207:8212   */\n      dup2\n        /* \"#utility.yul\":8192:8213   */\n      tag_99\n      jump\t// in\n    tag_198:\n        /* \"#utility.yul\":8185:8190   */\n      dup2\n        /* \"#utility.yul\":8182:8214   */\n      eq\n        /* \"#utility.yul\":8172:8232   */\n      tag_199\n      jumpi\n        /* \"#utility.yul\":8228:8229   */\n      0x00\n        /* \"#utility.yul\":8225:8226   */\n      dup1\n        /* \"#utility.yul\":8218:8230   */\n      revert\n        /* \"#utility.yul\":8172:8232   */\n    tag_199:\n        /* \"#utility.yul\":8122:8238   */\n      pop\n      jump\t// out\n        /* \"#utility.yul\":8244:8377   */\n    tag_101:\n        /* \"#utility.yul\":8287:8292   */\n      0x00\n        /* \"#utility.yul\":8325:8331   */\n      dup2\n        /* \"#utility.yul\":8312:8332   */\n      calldataload\n        /* \"#utility.yul\":8303:8332   */\n      swap1\n      pop\n        /* \"#utility.yul\":8341:8371   */\n      tag_201\n        /* \"#utility.yul\":8365:8370   */\n      dup2\n        /* \"#utility.yul\":8341:8371   */\n      tag_100\n      jump\t// in\n    tag_201:\n        /* \"#utility.yul\":8244:8377   */\n      swap3\n      swap2\n      pop\n      pop\n      jump\t// out\n        /* \"#utility.yul\":8383:9031   */\n    tag_25:\n        /* \"#utility.yul\":8458:8464   */\n      0x00\n        /* \"#utility.yul\":8466:8472   */\n      dup1\n        /* \"#utility.yul\":8515:8517   */\n      0x40\n        /* \"#utility.yul\":8503:8512   */\n      dup4\n        /* \"#utility.yul\":8494:8501   */\n      dup6\n        /* \"#utility.yul\":8490:8513   */\n      sub\n        /* \"#utility.yul\":8486:8518   */\n      slt\n        /* \"#utility.yul\":8483:8602   */\n      iszero\n      tag_203\n      jumpi\n        /* \"#utility.yul\":8521:8600   */\n      tag_204\n      tag_76\n      jump\t// in\n    tag_204:\n        /* \"#utility.yul\":8483:8602   */\n    tag_203:\n        /* \"#utility.yul\":8669:8670   */\n      0x00\n        /* \"#utility.yul\":8658:8667   */\n      dup4\n        /* \"#utility.yul\":8654:8671   */\n      add\n        /* \"#utility.yul\":8641:8672   */\n      calldataload\n        /* \"#utility.yul\":8699:8717   */\n      0xffffffffffffffff\n        /* \"#utility.yul\":8691:8697   */\n      dup2\n        /* \"#utility.yul\":8688:8718   */\n      gt\n        /* \"#utility.yul\":8685:8802   */\n      iszero\n      tag_205\n      jumpi\n        /* \"#utility.yul\":8721:8800   */\n      tag_206\n      tag_77\n      jump\t// in\n    tag_206:\n        /* \"#utility.yul\":8685:8802   */\n    tag_205:\n        /* \"#utility.yul\":8826:8889   */\n      tag_207\n        /* \"#utility.yul\":8881:8888   */\n      dup6\n        /* \"#utility.yul\":8872:8878   */\n      dup3\n        /* \"#utility.yul\":8861:8870   */\n      dup7\n        /* \"#utility.yul\":8857:8879   */\n      add\n        /* \"#utility.yul\":8826:8889   */\n      tag_87\n      jump\t// in\n    tag_207:\n        /* \"#utility.yul\":8816:8889   */\n      swap3\n      pop\n        /* \"#utility.yul\":8612:8899   */\n      pop\n        /* \"#utility.yul\":8938:8940   */\n      0x20\n        /* \"#utility.yul\":8964:9014   */\n      tag_208\n        /* \"#utility.yul\":9006:9013   */\n      dup6\n        /* \"#utility.yul\":8997:9003   */\n      dup3\n        /* \"#utility.yul\":8986:8995   */\n      dup7\n        /* \"#utility.yul\":8982:9004   */\n      add\n        /* \"#utility.yul\":8964:9014   */\n      tag_101\n      jump\t// in\n    tag_208:\n        /* \"#utility.yul\":8954:9014   */\n      swap2\n      pop\n        /* \"#utility.yul\":8909:9024   */\n      pop\n        /* \"#utility.yul\":8383:9031   */\n      swap3\n      pop\n      swap3\n      swap1\n      pop\n      jump\t// out\n        /* \"#utility.yul\":9037:9185   */\n    tag_102:\n        /* \"#utility.yul\":9139:9150   */\n      0x00\n        /* \"#utility.yul\":9176:9179   */\n      dup2\n        /* \"#utility.yul\":9161:9179   */\n      swap1\n      pop\n        /* \"#utility.yul\":9037:9185   */\n      swap3\n      swap2\n      pop\n      pop\n      jump\t// out\n        /* \"#utility.yul\":9191:9581   */\n    tag_103:\n        /* \"#utility.yul\":9297:9300   */\n      0x00\n        /* \"#utility.yul\":9325:9364   */\n      tag_211\n        /* \"#utility.yul\":9358:9363   */\n      dup3\n        /* \"#utility.yul\":9325:9364   */\n      tag_88\n      jump\t// in\n    tag_211:\n        /* \"#utility.yul\":9380:9469   */\n      tag_212\n        /* \"#utility.yul\":9462:9468   */\n      dup2\n        /* \"#utility.yul\":9457:9460   */\n      dup6\n        /* \"#utility.yul\":9380:9469   */\n      tag_102\n      jump\t// in\n    tag_212:\n        /* \"#utility.yul\":9373:9469   */\n      swap4\n      pop\n        /* \"#utility.yul\":9478:9543   */\n      tag_213\n        /* \"#utility.yul\":9536:9542   */\n      dup2\n        /* \"#utility.yul\":9531:9534   */\n      dup6\n        /* \"#utility.yul\":9524:9528   */\n      0x20\n        /* \"#utility.yul\":9517:9522   */\n      dup7\n        /* \"#utility.yul\":9513:9529   */\n      add\n        /* \"#utility.yul\":9478:9543   */\n      tag_90\n      jump\t// in\n    tag_213:\n        /* \"#utility.yul\":9568:9574   */\n      dup1\n        /* \"#utility.yul\":9563:9566   */\n      dup5\n        /* \"#utility.yul\":9559:9575   */\n      add\n        /* \"#utility.yul\":9552:9575   */\n      swap2\n      pop\n        /* \"#utility.yul\":9301:9581   */\n      pop\n        /* \"#utility.yul\":9191:9581   */\n      swap3\n      swap2\n      pop\n      pop\n      jump\t// out\n        /* \"#utility.yul\":9587:9862   */\n    tag_34:\n        /* \"#utility.yul\":9719:9722   */\n      0x00\n        /* \"#utility.yul\":9741:9836   */\n      tag_215\n        /* \"#utility.yul\":9832:9835   */\n      dup3\n        /* \"#utility.yul\":9823:9829   */\n      dup5\n        /* \"#utility.yul\":9741:9836   */\n      tag_103\n      jump\t// in\n    tag_215:\n        /* \"#utility.yul\":9734:9836   */\n      swap2\n      pop\n        /* \"#utility.yul\":9853:9856   */\n      dup2\n        /* \"#utility.yul\":9846:9856   */\n      swap1\n      pop\n        /* \"#utility.yul\":9587:9862   */\n      swap3\n      swap2\n      pop\n      pop\n      jump\t// out\n        /* \"#utility.yul\":9868:10048   */\n    tag_104:\n        /* \"#utility.yul\":9916:9993   */\n      0x4e487b7100000000000000000000000000000000000000000000000000000000\n        /* \"#utility.yul\":9913:9914   */\n      0x00\n        /* \"#utility.yul\":9906:9994   */\n      mstore\n        /* \"#utility.yul\":10013:10017   */\n      0x22\n        /* \"#utility.yul\":10010:10011   */\n      0x04\n        /* \"#utility.yul\":10003:10018   */\n      mstore\n        /* \"#utility.yul\":10037:10041   */\n      0x24\n        /* \"#utility.yul\":10034:10035   */\n      0x00\n        /* \"#utility.yul\":10027:10042   */\n      revert\n        /* \"#utility.yul\":10054:10374   */\n    tag_36:\n        /* \"#utility.yul\":10098:10104   */\n      0x00\n        /* \"#utility.yul\":10135:10136   */\n      0x02\n        /* \"#utility.yul\":10129:10133   */\n      dup3\n        /* \"#utility.yul\":10125:10137   */\n      div\n        /* \"#utility.yul\":10115:10137   */\n      swap1\n      pop\n        /* \"#utility.yul\":10182:10183   */\n      0x01\n        /* \"#utility.yul\":10176:10180   */\n      dup3\n        /* \"#utility.yul\":10172:10184   */\n      and\n        /* \"#utility.yul\":10203:10221   */\n      dup1\n        /* \"#utility.yul\":10193:10274   */\n      tag_218\n      jumpi\n        /* \"#utility.yul\":10259:10263   */\n      0x7f\n        /* \"#utility.yul\":10251:10257   */\n      dup3\n        /* \"#utility.yul\":10247:10264   */\n      and\n        /* \"#utility.yul\":10237:10264   */\n      swap2\n      pop\n        /* \"#utility.yul\":10193:10274   */\n    tag_218:\n        /* \"#utility.yul\":10321:10323   */\n      0x20\n        /* \"#utility.yul\":10313:10319   */\n      dup3\n        /* \"#utility.yul\":10310:10324   */\n      lt\n        /* \"#utility.yul\":10290:10308   */\n      dup2\n        /* \"#utility.yul\":10287:10325   */\n      sub\n        /* \"#utility.yul\":10284:10368   */\n      tag_219\n      jumpi\n        /* \"#utility.yul\":10340:10358   */\n      tag_220\n      tag_104\n      jump\t// in\n    tag_220:\n        /* \"#utility.yul\":10284:10368   */\n    tag_219:\n        /* \"#utility.yul\":10105:10374   */\n      pop\n        /* \"#utility.yul\":10054:10374   */\n      swap2\n      swap1\n      pop\n      jump\t// out\n        /* \"#utility.yul\":10380:10521   */\n    tag_105:\n        /* \"#utility.yul\":10429:10433   */\n      0x00\n        /* \"#utility.yul\":10452:10455   */\n      dup2\n        /* \"#utility.yul\":10444:10455   */\n      swap1\n      pop\n        /* \"#utility.yul\":10475:10478   */\n      dup2\n        /* \"#utility.yul\":10472:10473   */\n      0x00\n        /* \"#utility.yul\":10465:10479   */\n      mstore\n        /* \"#utility.yul\":10509:10513   */\n      0x20\n        /* \"#utility.yul\":10506:10507   */\n      0x00\n        /* \"#utility.yul\":10496:10514   */\n      keccak256\n        /* \"#utility.yul\":10488:10514   */\n      swap1\n      pop\n        /* \"#utility.yul\":10380:10521   */\n      swap2\n      swap1\n      pop\n      jump\t// out\n        /* \"#utility.yul\":10527:10620   */\n    tag_106:\n        /* \"#utility.yul\":10564:10570   */\n      0x00\n        /* \"#utility.yul\":10611:10613   */\n      0x20\n        /* \"#utility.yul\":10606:10608   */\n      0x1f\n        /* \"#utility.yul\":10599:10604   */\n      dup4\n        /* \"#utility.yul\":10595:10609   */\n      add\n        /* \"#utility.yul\":10591:10614   */\n      div\n        /* \"#utility.yul\":10581:10614   */\n      swap1\n      pop\n        /* \"#utility.yul\":10527:10620   */\n      swap2\n      swap1\n      pop\n      jump\t// out\n        /* \"#utility.yul\":10626:10733   */\n    tag_107:\n        /* \"#utility.yul\":10670:10678   */\n      0x00\n        /* \"#utility.yul\":10720:10725   */\n      dup3\n        /* \"#utility.yul\":10714:10718   */\n      dup3\n        /* \"#utility.yul\":10710:10726   */\n      shl\n        /* \"#utility.yul\":10689:10726   */\n      swap1\n      pop\n        /* \"#utility.yul\":10626:10733   */\n      swap3\n      swap2\n      pop\n      pop\n      jump\t// out\n        /* \"#utility.yul\":10739:11132   */\n    tag_108:\n        /* \"#utility.yul\":10808:10814   */\n      0x00\n        /* \"#utility.yul\":10858:10859   */\n      0x08\n        /* \"#utility.yul\":10846:10856   */\n      dup4\n        /* \"#utility.yul\":10842:10860   */\n      mul\n        /* \"#utility.yul\":10881:10978   */\n      tag_225\n        /* \"#utility.yul\":10911:10977   */\n      0xffffffffffffffffffffffffffffffffffffffffffffffffffffffffffffffff\n        /* \"#utility.yul\":10900:10909   */\n      dup3\n        /* \"#utility.yul\":10881:10978   */\n      tag_107\n      jump\t// in\n    tag_225:\n        /* \"#utility.yul\":10999:11038   */\n      tag_226\n        /* \"#utility.yul\":11029:11037   */\n      dup7\n        /* \"#utility.yul\":11018:11027   */\n      dup4\n        /* \"#utility.yul\":10999:11038   */\n      tag_107\n      jump\t// in\n    tag_226:\n        /* \"#utility.yul\":10987:11038   */\n      swap6\n      pop\n        /* \"#utility.yul\":11071:11075   */\n      dup1\n        /* \"#utility.yul\":11067:11076   */\n      not\n        /* \"#utility.yul\":11060:11065   */\n      dup5\n        /* \"#utility.yul\":11056:11077   */\n      and\n        /* \"#utility.yul\":11047:11077   */\n      swap4\n      pop\n        /* \"#utility.yul\":11120:11124   */\n      dup1\n        /* \"#utility.yul\":11110:11118   */\n      dup7\n        /* \"#utility.yul\":11106:11125   */\n      and\n        /* \"#utility.yul\":11099:11104   */\n      dup5\n        /* \"#utility.yul\":11096:11126   */\n      or\n        /* \"#utility.yul\":11086:11126   */\n      swap3\n      pop\n        /* \"#utility.yul\":10815:11132   */\n      pop\n      pop\n        /* \"#utility.yul\":10739:11132   */\n      swap4\n      swap3\n      pop\n      pop\n      pop\n      jump\t// out\n        /* \"#utility.yul\":11138:11198   */\n    tag_109:\n        /* \"#utility.yul\":11166:11169   */\n      0x00\n        /* \"#utility.yul\":11187:11192   */\n      dup2\n        /* \"#utility.yul\":11180:11192   */\n      swap1\n      pop\n        /* \"#utility.yul\":11138:11198   */\n      swap2\n      swap1\n      pop\n      jump\t// out\n        /* \"#utility.yul\":11204:11346   */\n    tag_110:\n        /* \"#utility.yul\":11254:11263   */\n      0x00\n        /* \"#utility.yul\":11287:11340   */\n      tag_229\n        /* \"#utility.yul\":11305:11339   */\n      tag_230\n        /* \"#utility.yul\":11314:11338   */\n      tag_231\n        /* \"#utility.yul\":11332:11337   */\n      dup5\n        /* \"#utility.yul\":11314:11338   */\n      tag_96\n      jump\t// in\n    tag_231:\n        /* \"#utility.yul\":11305:11339   */\n      tag_109\n      jump\t// in\n    tag_230:\n        /* \"#utility.yul\":11287:11340   */\n      tag_96\n      jump\t// in\n    tag_229:\n        /* \"#utility.yul\":11274:11340   */\n      swap1\n      pop\n        /* \"#utility.yul\":11204:11346   */\n      swap2\n      swap1\n      pop\n      jump\t// out\n        /* \"#utility.yul\":11352:11427   */\n    tag_111:\n        /* \"#utility.yul\":11395:11398   */\n      0x00\n        /* \"#utility.yul\":11416:11421   */\n      dup2\n        /* \"#utility.yul\":11409:11421   */\n      swap1\n      pop\n        /* \"#utility.yul\":11352:11427   */\n      swap2\n      swap1\n      pop\n      jump\t// out\n        /* \"#utility.yul\":11433:11702   */\n    tag_112:\n        /* \"#utility.yul\":11543:11582   */\n      tag_234\n        /* \"#utility.yul\":11574:11581   */\n      dup4\n        /* \"#utility.yul\":11543:11582   */\n      tag_110\n      jump\t// in\n    tag_234:\n        /* \"#utility.yul\":11604:11695   */\n      tag_235\n        /* \"#utility.yul\":11653:11694   */\n      tag_236\n        /* \"#utility.yul\":11677:11693   */\n      dup3\n        /* \"#utility.yul\":11653:11694   */\n      tag_111\n      jump\t// in\n    tag_236:\n        /* \"#utility.yul\":11645:11651   */\n      dup5\n        /* \"#utility.yul\":11638:11642   */\n      dup5\n        /* \"#utility.yul\":11632:11643   */\n      sload\n        /* \"#utility.yul\":11604:11695   */\n      tag_108\n      jump\t// in\n    tag_235:\n        /* \"#utility.yul\":11598:11602   */\n      dup3\n        /* \"#utility.yul\":11591:11696   */\n      sstore\n        /* \"#utility.yul\":11509:11702   */\n      pop\n        /* \"#utility.yul\":11433:11702   */\n      pop\n      pop\n      pop\n      jump\t// out\n        /* \"#utility.yul\":11708:11781   */\n    tag_113:\n        /* \"#utility.yul\":11753:11756   */\n      0x00\n        /* \"#utility.yul\":11708:11781   */\n      swap1\n      jump\t// out\n        /* \"#utility.yul\":11787:11976   */\n    tag_114:\n        /* \"#utility.yul\":11864:11896   */\n      tag_239\n      tag_113\n      jump\t// in\n    tag_239:\n        /* \"#utility.yul\":11905:11970   */\n      tag_240\n        /* \"#utility.yul\":11963:11969   */\n      dup2\n        /* \"#utility.yul\":11955:11961   */\n      dup5\n        /* \"#utility.yul\":11949:11953   */\n      dup5\n        /* \"#utility.yul\":11905:11970   */\n      tag_112\n      jump\t// in\n    tag_240:\n        /* \"#utility.yul\":11840:11976   */\n      pop\n        /* \"#utility.yul\":11787:11976   */\n      pop\n      pop\n      jump\t// out\n        /* \"#utility.yul\":11982:12168   */\n    tag_115:\n        /* \"#utility.yul\":12042:12162   */\n    tag_242:\n        /* \"#utility.yul\":12059:12062   */\n      dup2\n        /* \"#utility.yul\":12052:12057   */\n      dup2\n        /* \"#utility.yul\":12049:12063   */\n      lt\n        /* \"#utility.yul\":12042:12162   */\n      iszero\n      tag_244\n      jumpi\n        /* \"#utility.yul\":12113:12152   */\n      tag_245\n        /* \"#utility.yul\":12150:12151   */\n      0x00\n        /* \"#utility.yul\":12143:12148   */\n      dup3\n        /* \"#utility.yul\":12113:12152   */\n      tag_114\n      jump\t// in\n    tag_245:\n        /* \"#utility.yul\":12086:12087   */\n      0x01\n        /* \"#utility.yul\":12079:12084   */\n      dup2\n        /* \"#utility.yul\":12075:12088   */\n      add\n        /* \"#utility.yul\":12066:12088   */\n      swap1\n      pop\n        /* \"#utility.yul\":12042:12162   */\n      jump(tag_242)\n    tag_244:\n        /* \"#utility.yul\":11982:12168   */\n      pop\n      pop\n      jump\t// out\n        /* \"#utility.yul\":12174:12717   */\n    tag_116:\n        /* \"#utility.yul\":12275:12277   */\n      0x1f\n        /* \"#utility.yul\":12270:12273   */\n      dup3\n        /* \"#utility.yul\":12267:12278   */\n      gt\n        /* \"#utility.yul\":12264:12710   */\n      iszero\n      tag_247\n      jumpi\n        /* \"#utility.yul\":12309:12347   */\n      tag_248\n        /* \"#utility.yul\":12341:12346   */\n      dup2\n        /* \"#utility.yul\":12309:12347   */\n      tag_105\n      jump\t// in\n    tag_248:\n        /* \"#utility.yul\":12393:12422   */\n      tag_249\n        /* \"#utility.yul\":12411:12421   */\n      dup5\n        /* \"#utility.yul\":12393:12422   */\n      tag_106\n      jump\t// in\n    tag_249:\n        /* \"#utility.yul\":12383:12391   */\n      dup2\n        /* \"#utility.yul\":12379:12423   */\n      add\n        /* \"#utility.yul\":12576:12578   */\n      0x20\n        /* \"#utility.yul\":12564:12574   */\n      dup6\n        /* \"#utility.yul\":12561:12579   */\n      lt\n        /* \"#utility.yul\":12558:12607   */\n      iszero\n      tag_250\n      jumpi\n        /* \"#utility.yul\":12597:12605   */\n      dup2\n        /* \"#utility.yul\":12582:12605   */\n      swap1\n      pop\n        /* \"#utility.yul\":12558:12607   */\n    tag_250:\n        /* \"#utility.yul\":12620:12700   */\n      tag_251\n        /* \"#utility.yul\":12676:12698   */\n      tag_252\n        /* \"#utility.yul\":12694:12697   */\n      dup6\n        /* \"#utility.yul\":12676:12698   */\n      tag_106\n      jump\t// in\n    tag_252:\n        /* \"#utility.yul\":12666:12674   */\n      dup4\n        /* \"#utility.yul\":12662:12699   */\n      add\n        /* \"#utility.yul\":12649:12660   */\n      dup3\n        /* \"#utility.yul\":12620:12700   */\n      tag_115\n      jump\t// in\n    tag_251:\n        /* \"#utility.yul\":12279:12710   */\n      pop\n      pop\n        /* \"#utility.yul\":12264:12710   */\n    tag_247:\n        /* \"#utility.yul\":12174:12717   */\n      pop\n      pop\n      pop\n      jump\t// out\n        /* \"#utility.yul\":12723:12840   */\n    tag_117:\n        /* \"#utility.yul\":12777:12785   */\n      0x00\n        /* \"#utility.yul\":12827:12832   */\n      dup3\n        /* \"#utility.yul\":12821:12825   */\n      dup3\n        /* \"#utility.yul\":12817:12833   */\n      shr\n        /* \"#utility.yul\":12796:12833   */\n      swap1\n      pop\n        /* \"#utility.yul\":12723:12840   */\n      swap3\n      swap2\n      pop\n      pop\n      jump\t// out\n        /* \"#utility.yul\":12846:13015   */\n    tag_118:\n        /* \"#utility.yul\":12890:12896   */\n      0x00\n        /* \"#utility.yul\":12923:12974   */\n      tag_255\n        /* \"#utility.yul\":12971:12972   */\n      0x00\n        /* \"#utility.yul\":12967:12973   */\n      not\n        /* \"#utility.yul\":12959:12964   */\n      dup5\n        /* \"#utility.yul\":12956:12957   */\n      0x08\n        /* \"#utility.yul\":12952:12965   */\n      mul\n        /* \"#utility.yul\":12923:12974   */\n      tag_117\n      jump\t// in\n    tag_255:\n        /* \"#utility.yul\":12919:12975   */\n      not\n        /* \"#utility.yul\":13004:13008   */\n      dup1\n        /* \"#utility.yul\":12998:13002   */\n      dup4\n        /* \"#utility.yul\":12994:13009   */\n      and\n        /* \"#utility.yul\":12984:13009   */\n      swap2\n      pop\n        /* \"#utility.yul\":12897:13015   */\n      pop\n        /* \"#utility.yul\":12846:13015   */\n      swap3\n      swap2\n      pop\n      pop\n      jump\t// out\n        /* \"#utility.yul\":13020:13315   */\n    tag_119:\n        /* \"#utility.yul\":13096:13100   */\n      0x00\n        /* \"#utility.yul\":13242:13271   */\n      tag_257\n        /* \"#utility.yul\":13267:13270   */\n      dup4\n        /* \"#utility.yul\":13261:13265   */\n      dup4\n        /* \"#utility.yul\":13242:13271   */\n      tag_118\n      jump\t// in\n    tag_257:\n        /* \"#utility.yul\":13234:13271   */\n      swap2\n      pop\n        /* \"#utility.yul\":13304:13307   */\n      dup3\n        /* \"#utility.yul\":13301:13302   */\n      0x02\n        /* \"#utility.yul\":13297:13308   */\n      mul\n        /* \"#utility.yul\":13291:13295   */\n      dup3\n        /* \"#utility.yul\":13288:13309   */\n      or\n        /* \"#utility.yul\":13280:13309   */\n      swap1\n      pop\n        /* \"#utility.yul\":13020:13315   */\n      swap3\n      swap2\n      pop\n      pop\n      jump\t// out\n        /* \"#utility.yul\":13320:14715   */\n    tag_58:\n        /* \"#utility.yul\":13437:13474   */\n      tag_259\n        /* \"#utility.yul\":13470:13473   */\n      dup3\n        /* \"#utility.yul\":13437:13474   */\n      tag_88\n      jump\t// in\n    tag_259:\n        /* \"#utility.yul\":13539:13557   */\n      0xffffffffffffffff\n        /* \"#utility.yul\":13531:13537   */\n      dup2\n        /* \"#utility.yul\":13528:13558   */\n      gt\n        /* \"#utility.yul\":13525:13581   */\n      iszero\n      tag_260\n      jumpi\n        /* \"#utility.yul\":13561:13579   */\n      tag_261\n      tag_81\n      jump\t// in\n    tag_261:\n        /* \"#utility.yul\":13525:13581   */\n    tag_260:\n        /* \"#utility.yul\":13605:13643   */\n      tag_262\n        /* \"#utility.yul\":13637:13641   */\n      dup3\n        /* \"#utility.yul\":13631:13642   */\n      sload\n        /* \"#utility.yul\":13605:13643   */\n      tag_36\n      jump\t// in\n    tag_262:\n        /* \"#utility.yul\":13690:13757   */\n      tag_263\n        /* \"#utility.yul\":13750:13756   */\n      dup3\n        /* \"#utility.yul\":13742:13748   */\n      dup3\n        /* \"#utility.yul\":13736:13740   */\n      dup6\n        /* \"#utility.yul\":13690:13757   */\n      tag_116\n      jump\t// in\n    tag_263:\n        /* \"#utility.yul\":13784:13785   */\n      0x00\n        /* \"#utility.yul\":13808:13812   */\n      0x20\n        /* \"#utility.yul\":13795:13812   */\n      swap1\n      pop\n        /* \"#utility.yul\":13840:13842   */\n      0x1f\n        /* \"#utility.yul\":13832:13838   */\n      dup4\n        /* \"#utility.yul\":13829:13843   */\n      gt\n        /* \"#utility.yul\":13857:13858   */\n      0x01\n        /* \"#utility.yul\":13852:14470   */\n      dup2\n      eq\n      tag_265\n      jumpi\n        /* \"#utility.yul\":14514:14515   */\n      0x00\n        /* \"#utility.yul\":14531:14537   */\n      dup5\n        /* \"#utility.yul\":14528:14605   */\n      iszero\n      tag_266\n      jumpi\n        /* \"#utility.yul\":14580:14589   */\n      dup3\n        /* \"#utility.yul\":14575:14578   */\n      dup8\n        /* \"#utility.yul\":14571:14590   */\n      add\n        /* \"#utility.yul\":14565:14591   */\n      mload\n        /* \"#utility.yul\":14556:14591   */\n      swap1\n      pop\n        /* \"#utility.yul\":14528:14605   */\n    tag_266:\n        /* \"#utility.yul\":14631:14698   */\n      tag_267\n        /* \"#utility.yul\":14691:14697   */\n      dup6\n        /* \"#utility.yul\":14684:14689   */\n      dup3\n        /* \"#utility.yul\":14631:14698   */\n      tag_119\n      jump\t// in\n    tag_267:\n        /* \"#utility.yul\":14625:14629   */\n      dup7\n        /* \"#utility.yul\":14618:14699   */\n      sstore\n        /* \"#utility.yul\":14487:14709   */\n      pop\n        /* \"#utility.yul\":13822:14709   */\n      jump(tag_264)\n        /* \"#utility.yul\":13852:14470   */\n    tag_265:\n        /* \"#utility.yul\":13904:13908   */\n      0x1f\n        /* \"#utility.yul\":13900:13909   */\n      not\n        /* \"#utility.yul\":13892:13898   */\n      dup5\n        /* \"#utility.yul\":13888:13910   */\n      and\n        /* \"#utility.yul\":13938:13975   */\n      tag_268\n        /* \"#utility.yul\":13970:13974   */\n      dup7\n        /* \"#utility.yul\":13938:13975   */\n      tag_105\n      jump\t// in\n    tag_268:\n        /* \"#utility.yul\":13997:13998   */\n      0x00\n        /* \"#utility.yul\":14011:14219   */\n    tag_269:\n        /* \"#utility.yul\":14025:14032   */\n      dup3\n        /* \"#utility.yul\":14022:14023   */\n      dup2\n        /* \"#utility.yul\":14019:14033   */\n      lt\n        /* \"#utility.yul\":14011:14219   */\n      iszero\n      tag_271\n      jumpi\n        /* \"#utility.yul\":14104:14113   */\n      dup5\n        /* \"#utility.yul\":14099:14102   */\n      dup10\n        /* \"#utility.yul\":14095:14114   */\n      add\n        /* \"#utility.yul\":14089:14115   */\n      mload\n        /* \"#utility.yul\":14081:14087   */\n      dup3\n        /* \"#utility.yul\":14074:14116   */\n      sstore\n        /* \"#utility.yul\":14155:14156   */\n      0x01\n        /* \"#utility.yul\":14147:14153   */\n      dup3\n        /* \"#utility.yul\":14143:14157   */\n      add\n        /* \"#utility.yul\":14133:14157   */\n      swap2\n      pop\n        /* \"#utility.yul\":14202:14204   */\n      0x20\n        /* \"#utility.yul\":14191:14200   */\n      dup6\n        /* \"#utility.yul\":14187:14205   */\n      add\n        /* \"#utility.yul\":14174:14205   */\n      swap5\n      pop\n        /* \"#utility.yul\":14048:14052   */\n      0x20\n        /* \"#utility.yul\":14045:14046   */\n      dup2\n        /* \"#utility.yul\":14041:14053   */\n      add\n        /* \"#utility.yul\":14036:14053   */\n      swap1\n      pop\n        /* \"#utility.yul\":14011:14219   */\n      jump(tag_269)\n    tag_271:\n        /* \"#utility.yul\":14247:14253   */\n      dup7\n        /* \"#utility.yul\":14238:14245   */\n      dup4\n        /* \"#utility.yul\":14235:14254   */\n      lt\n        /* \"#utility.yul\":14232:14411   */\n      iszero\n      tag_272\n      jumpi\n        /* \"#utility.yul\":14305:14314   */\n      dup5\n        /* \"#utility.yul\":14300:14303   */\n      dup10\n        /* \"#utility.yul\":14296:14315   */\n      add\n        /* \"#utility.yul\":14290:14316   */\n      mload\n        /* \"#utility.yul\":14348:14396   */\n      tag_273\n        /* \"#utility.yul\":14390:14394   */\n      0x1f\n        /* \"#utility.yul\":14382:14388   */\n      dup10\n        /* \"#utility.yul\":14378:14395   */\n      and\n        /* \"#utility.yul\":14367:14376   */\n      dup3\n        /* \"#utility.yul\":14348:14396   */\n      tag_118\n      jump\t// in\n    tag_273:\n        /* \"#utility.yul\":14340:14346   */\n      dup4\n        /* \"#utility.yul\":14333:14397   */\n      sstore\n        /* \"#utility.yul\":14255:14411   */\n      pop\n        /* \"#utility.yul\":14232:14411   */\n    tag_272:\n        /* \"#utility.yul\":14457:14458   */\n      0x01\n        /* \"#utility.yul\":14453:14454   */\n      0x02\n        /* \"#utility.yul\":14445:14451   */\n      dup9\n        /* \"#utility.yul\":14441:14455   */\n      mul\n        /* \"#utility.yul\":14437:14459   */\n      add\n        /* \"#utility.yul\":14431:14435   */\n      dup9\n        /* \"#utility.yul\":14424:14460   */\n      sstore\n        /* \"#utility.yul\":13859:14470   */\n      pop\n      pop\n      pop\n        /* \"#utility.yul\":13822:14709   */\n    tag_264:\n      pop\n        /* \"#utility.yul\":13412:14715   */\n      pop\n      pop\n      pop\n        /* \"#utility.yul\":13320:14715   */\n      pop\n      pop\n      jump\t// out\n        /* \"#utility.yul\":14721:14901   */\n    tag_120:\n        /* \"#utility.yul\":14769:14846   */\n      0x4e487b7100000000000000000000000000000000000000000000000000000000\n        /* \"#utility.yul\":14766:14767   */\n      0x00\n        /* \"#utility.yul\":14759:14847   */\n      mstore\n        /* \"#utility.yul\":14866:14870   */\n      0x11\n        /* \"#utility.yul\":14863:14864   */\n      0x04\n        /* \"#utility.yul\":14856:14871   */\n      mstore\n        /* \"#utility.yul\":14890:14894   */\n      0x24\n        /* \"#utility.yul\":14887:14888   */\n      0x00\n        /* \"#utility.yul\":14880:14895   */\n      revert\n        /* \"#utility.yul\":14907:15140   */\n    tag_61:\n        /* \"#utility.yul\":14946:14949   */\n      0x00\n        /* \"#utility.yul\":14969:14993   */\n      tag_276\n        /* \"#utility.yul\":14987:14992   */\n      dup3\n        /* \"#utility.yul\":14969:14993   */\n      tag_96\n      jump\t// in\n    tag_276:\n        /* \"#utility.yul\":14960:14993   */\n      swap2\n      pop\n        /* \"#utility.yul\":15015:15081   */\n      0xffffffffffffffffffffffffffffffffffffffffffffffffffffffffffffffff\n        /* \"#utility.yul\":15008:15013   */\n      dup3\n        /* \"#utility.yul\":15005:15082   */\n      sub\n        /* \"#utility.yul\":15002:15105   */\n      tag_277\n      jumpi\n        /* \"#utility.yul\":15085:15103   */\n      tag_278\n      tag_120\n      jump\t// in\n    tag_278:\n        /* \"#utility.yul\":15002:15105   */\n    tag_277:\n        /* \"#utility.yul\":15132:15133   */\n      0x01\n        /* \"#utility.yul\":15125:15130   */\n      dup3\n        /* \"#utility.yul\":15121:15134   */\n      add\n        /* \"#utility.yul\":15114:15134   */\n      swap1\n      pop\n        /* \"#utility.yul\":14907:15140   */\n      swap2\n      swap1\n      pop\n      jump\t// out\n        /* \"#utility.yul\":15146:15337   */\n    tag_66:\n        /* \"#utility.yul\":15186:15189   */\n      0x00\n        /* \"#utility.yul\":15205:15225   */\n      tag_280\n        /* \"#utility.yul\":15223:15224   */\n      dup3\n        /* \"#utility.yul\":15205:15225   */\n      tag_96\n      jump\t// in\n    tag_280:\n        /* \"#utility.yul\":15200:15225   */\n      swap2\n      pop\n        /* \"#utility.yul\":15239:15259   */\n      tag_281\n        /* \"#utility.yul\":15257:15258   */\n      dup4\n        /* \"#utility.yul\":15239:15259   */\n      tag_96\n      jump\t// in\n    tag_281:\n        /* \"#utility.yul\":15234:15259   */\n      swap3\n      pop\n        /* \"#utility.yul\":15282:15283   */\n      dup3\n        /* \"#utility.yul\":15279:15280   */\n      dup3\n        /* \"#utility.yul\":15275:15284   */\n      add\n        /* \"#utility.yul\":15268:15284   */\n      swap1\n      pop\n        /* \"#utility.yul\":15303:15306   */\n      dup1\n        /* \"#utility.yul\":15300:15301   */\n      dup3\n        /* \"#utility.yul\":15297:15307   */\n      gt\n        /* \"#utility.yul\":15294:15330   */\n      iszero\n      tag_282\n      jumpi\n        /* \"#utility.yul\":15310:15328   */\n      tag_283\n      tag_120\n      jump\t// in\n    tag_283:\n        /* \"#utility.yul\":15294:15330   */\n    tag_282:\n        /* \"#utility.yul\":15146:15337   */\n      swap3\n      swap2\n      pop\n      pop\n      jump\t// out\n\n    auxdata: 0xa2646970667358221220cffbd33ab63d239d3fd02d42d8b303259f199d4edf6b0e74a3b8712aa8a4337e64736f6c63430008190033\n}\n",
				"bytecode": {
					"linkReferences": {},
					"object": "6080604052348015600e575f80fd5b50610fd28061001c5f395ff3fe608060405234801561000f575f80fd5b5060043610610055575f3560e01c806331feb67114610059578063474502d8146100895780634ac3e917146100b95780634da8d7ef146100d5578063d0020fad146100f1575b5f80fd5b610073600480360381019061006e91906108d2565b61010d565b60405161008091906109f2565b60405180910390f35b6100a3600480360381019061009e91906108d2565b610229565b6040516100b09190610ab7565b60405180910390f35b6100d360048036038101906100ce9190610ad7565b6103f2565b005b6100ef60048036038101906100ea9190610b82565b610500565b005b61010b600480360381019061010691906108d2565b610665565b005b61011561070e565b6003826040516101259190610c16565b90815260200160405180910390206040518060400160405290815f8201805461014d90610c59565b80601f016020809104026020016040519081016040528092919081815260200182805461017990610c59565b80156101c45780601f1061019b576101008083540402835291602001916101c4565b820191905f5260205f20905b8154815290600101906020018083116101a757829003601f168201915b50505050508152602001600182015f9054906101000a900473ffffffffffffffffffffffffffffffffffffffff1673ffffffffffffffffffffffffffffffffffffffff1673ffffffffffffffffffffffffffffffffffffffff16815250509050919050565b61023161073d565b5f826040516102409190610c16565b90815260200160405180910390206040518060c00160405290815f820154815260200160018201805461027290610c59565b80601f016020809104026020016040519081016040528092919081815260200182805461029e90610c59565b80156102e95780601f106102c0576101008083540402835291602001916102e9565b820191905f5260205f20905b8154815290600101906020018083116102cc57829003601f168201915b5050505050815260200160028201805461030290610c59565b80601f016020809104026020016040519081016040528092919081815260200182805461032e90610c59565b80156103795780601f1061035057610100808354040283529160200191610379565b820191905f5260205f20905b81548152906001019060200180831161035c57829003601f168201915b50505050508152602001600382015f9054906101000a900473ffffffffffffffffffffffffffffffffffffffff1673ffffffffffffffffffffffffffffffffffffffff1673ffffffffffffffffffffffffffffffffffffffff168152602001600482015481526020016005820154815250509050919050565b6040518060c0016040528060045481526020018381526020018281526020013373ffffffffffffffffffffffffffffffffffffffff1681526020015f81526020015f8152505f836040516104469190610c16565b90815260200160405180910390205f820151815f015560208201518160010190816104719190610e26565b5060408201518160020190816104879190610e26565b506060820151816003015f6101000a81548173ffffffffffffffffffffffffffffffffffffffff021916908373ffffffffffffffffffffffffffffffffffffffff1602179055506080820151816004015560a0820151816005015590505060045f8154809291906104f790610f22565b91905055505050565b60011515811515036105b95760015f8360405161051d9190610c16565b90815260200160405180910390206004015f82825461053c9190610f69565b92505081905550600160025f3373ffffffffffffffffffffffffffffffffffffffff1673ffffffffffffffffffffffffffffffffffffffff1681526020019081526020015f20836040516105909190610c16565b90815260200160405180910390205f6101000a81548160ff021916908315150217905550610661565b60015f836040516105ca9190610c16565b90815260200160405180910390206005015f8282546105e99190610f69565b925050819055505f60025f3373ffffffffffffffffffffffffffffffffffffffff1673ffffffffffffffffffffffffffffffffffffffff1681526020019081526020015f208360405161063c9190610c16565b90815260200160405180910390205f6101000a81548160ff0219169083151502179055505b5050565b60405180604001604052808281526020013373ffffffffffffffffffffffffffffffffffffffff168152506003826040516106a09190610c16565b90815260200160405180910390205f820151815f0190816106c19190610e26565b506020820151816001015f6101000a81548173ffffffffffffffffffffffffffffffffffffffff021916908373ffffffffffffffffffffffffffffffffffffffff16021790555090505050565b6040518060400160405280606081526020015f73ffffffffffffffffffffffffffffffffffffffff1681525090565b6040518060c001604052805f815260200160608152602001606081526020015f73ffffffffffffffffffffffffffffffffffffffff1681526020015f81526020015f81525090565b5f604051905090565b5f80fd5b5f80fd5b5f80fd5b5f80fd5b5f601f19601f8301169050919050565b7f4e487b71000000000000000000000000000000000000000000000000000000005f52604160045260245ffd5b6107e48261079e565b810181811067ffffffffffffffff82111715610803576108026107ae565b5b80604052505050565b5f610815610785565b905061082182826107db565b919050565b5f67ffffffffffffffff8211156108405761083f6107ae565b5b6108498261079e565b9050602081019050919050565b828183375f83830152505050565b5f61087661087184610826565b61080c565b9050828152602081018484840111156108925761089161079a565b5b61089d848285610856565b509392505050565b5f82601f8301126108b9576108b8610796565b5b81356108c9848260208601610864565b91505092915050565b5f602082840312156108e7576108e661078e565b5b5f82013567ffffffffffffffff81111561090457610903610792565b5b610910848285016108a5565b91505092915050565b5f81519050919050565b5f82825260208201905092915050565b8281835e5f83830152505050565b5f61094b82610919565b6109558185610923565b9350610965818560208601610933565b61096e8161079e565b840191505092915050565b5f73ffffffffffffffffffffffffffffffffffffffff82169050919050565b5f6109a282610979565b9050919050565b6109b281610998565b82525050565b5f604083015f8301518482035f8601526109d28282610941565b91505060208301516109e760208601826109a9565b508091505092915050565b5f6020820190508181035f830152610a0a81846109b8565b905092915050565b5f819050919050565b610a2481610a12565b82525050565b5f60c083015f830151610a3f5f860182610a1b565b5060208301518482036020860152610a578282610941565b91505060408301518482036040860152610a718282610941565b9150506060830151610a8660608601826109a9565b506080830151610a996080860182610a1b565b5060a0830151610aac60a0860182610a1b565b508091505092915050565b5f6020820190508181035f830152610acf8184610a2a565b905092915050565b5f8060408385031215610aed57610aec61078e565b5b5f83013567ffffffffffffffff811115610b0a57610b09610792565b5b610b16858286016108a5565b925050602083013567ffffffffffffffff811115610b3757610b36610792565b5b610b43858286016108a5565b9150509250929050565b5f8115159050919050565b610b6181610b4d565b8114610b6b575f80fd5b50565b5f81359050610b7c81610b58565b92915050565b5f8060408385031215610b9857610b9761078e565b5b5f83013567ffffffffffffffff811115610bb557610bb4610792565b5b610bc1858286016108a5565b9250506020610bd285828601610b6e565b9150509250929050565b5f81905092915050565b5f610bf082610919565b610bfa8185610bdc565b9350610c0a818560208601610933565b80840191505092915050565b5f610c218284610be6565b915081905092915050565b7f4e487b71000000000000000000000000000000000000000000000000000000005f52602260045260245ffd5b5f6002820490506001821680610c7057607f821691505b602082108103610c8357610c82610c2c565b5b50919050565b5f819050815f5260205f209050919050565b5f6020601f8301049050919050565b5f82821b905092915050565b5f60088302610ce57fffffffffffffffffffffffffffffffffffffffffffffffffffffffffffffffff82610caa565b610cef8683610caa565b95508019841693508086168417925050509392505050565b5f819050919050565b5f610d2a610d25610d2084610a12565b610d07565b610a12565b9050919050565b5f819050919050565b610d4383610d10565b610d57610d4f82610d31565b848454610cb6565b825550505050565b5f90565b610d6b610d5f565b610d76818484610d3a565b505050565b5b81811015610d9957610d8e5f82610d63565b600181019050610d7c565b5050565b601f821115610dde57610daf81610c89565b610db884610c9b565b81016020851015610dc7578190505b610ddb610dd385610c9b565b830182610d7b565b50505b505050565b5f82821c905092915050565b5f610dfe5f1984600802610de3565b1980831691505092915050565b5f610e168383610def565b9150826002028217905092915050565b610e2f82610919565b67ffffffffffffffff811115610e4857610e476107ae565b5b610e528254610c59565b610e5d828285610d9d565b5f60209050601f831160018114610e8e575f8415610e7c578287015190505b610e868582610e0b565b865550610eed565b601f198416610e9c86610c89565b5f5b82811015610ec357848901518255600182019150602085019450602081019050610e9e565b86831015610ee05784890151610edc601f891682610def565b8355505b6001600288020188555050505b505050505050565b7f4e487b71000000000000000000000000000000000000000000000000000000005f52601160045260245ffd5b5f610f2c82610a12565b91507fffffffffffffffffffffffffffffffffffffffffffffffffffffffffffffffff8203610f5e57610f5d610ef5565b5b600182019050919050565b5f610f7382610a12565b9150610f7e83610a12565b9250828201905080821115610f9657610f95610ef5565b5b9291505056fea2646970667358221220cffbd33ab63d239d3fd02d42d8b303259f199d4edf6b0e74a3b8712aa8a4337e64736f6c63430008190033",
					"opcodes": "PUSH1 0x80 PUSH1 0x40 MSTORE CALLVALUE DUP1 ISZERO PUSH1 0xE JUMPI PUSH0 DUP1 REVERT JUMPDEST POP PUSH2 0xFD2 DUP1 PUSH2 0x1C PUSH0 CODECOPY PUSH0 RETURN INVALID PUSH1 0x80 PUSH1 0x40 MSTORE CALLVALUE DUP1 ISZERO PUSH2 0xF JUMPI PUSH0 DUP1 REVERT JUMPDEST POP PUSH1 0x4 CALLDATASIZE LT PUSH2 0x55 JUMPI PUSH0 CALLDATALOAD PUSH1 0xE0 SHR DUP1 PUSH4 0x31FEB671 EQ PUSH2 0x59 JUMPI DUP1 PUSH4 0x474502D8 EQ PUSH2 0x89 JUMPI DUP1 PUSH4 0x4AC3E917 EQ PUSH2 0xB9 JUMPI DUP1 PUSH4 0x4DA8D7EF EQ PUSH2 0xD5 JUMPI DUP1 PUSH4 0xD0020FAD EQ PUSH2 0xF1 JUMPI JUMPDEST PUSH0 DUP1 REVERT JUMPDEST PUSH2 0x73 PUSH1 0x4 DUP1 CALLDATASIZE SUB DUP2 ADD SWAP1 PUSH2 0x6E SWAP2 SWAP1 PUSH2 0x8D2 JUMP JUMPDEST PUSH2 0x10D JUMP JUMPDEST PUSH1 0x40 MLOAD PUSH2 0x80 SWAP2 SWAP1 PUSH2 0x9F2 JUMP JUMPDEST PUSH1 0x40 MLOAD DUP1 SWAP2 SUB SWAP1 RETURN JUMPDEST PUSH2 0xA3 PUSH1 0x4 DUP1 CALLDATASIZE SUB DUP2 ADD SWAP1 PUSH2 0x9E SWAP2 SWAP1 PUSH2 0x8D2 JUMP JUMPDEST PUSH2 0x229 JUMP JUMPDEST PUSH1 0x40 MLOAD PUSH2 0xB0 SWAP2 SWAP1 PUSH2 0xAB7 JUMP JUMPDEST PUSH1 0x40 MLOAD DUP1 SWAP2 SUB SWAP1 RETURN JUMPDEST PUSH2 0xD3 PUSH1 0x4 DUP1 CALLDATASIZE SUB DUP2 ADD SWAP1 PUSH2 0xCE SWAP2 SWAP1 PUSH2 0xAD7 JUMP JUMPDEST PUSH2 0x3F2 JUMP JUMPDEST STOP JUMPDEST PUSH2 0xEF PUSH1 0x4 DUP1 CALLDATASIZE SUB DUP2 ADD SWAP1 PUSH2 0xEA SWAP2 SWAP1 PUSH2 0xB82 JUMP JUMPDEST PUSH2 0x500 JUMP JUMPDEST STOP JUMPDEST PUSH2 0x10B PUSH1 0x4 DUP1 CALLDATASIZE SUB DUP2 ADD SWAP1 PUSH2 0x106 SWAP2 SWAP1 PUSH2 0x8D2 JUMP JUMPDEST PUSH2 0x665 JUMP JUMPDEST STOP JUMPDEST PUSH2 0x115 PUSH2 0x70E JUMP JUMPDEST PUSH1 0x3 DUP3 PUSH1 0x40 MLOAD PUSH2 0x125 SWAP2 SWAP1 PUSH2 0xC16 JUMP JUMPDEST SWAP1 DUP2 MSTORE PUSH1 0x20 ADD PUSH1 0x40 MLOAD DUP1 SWAP2 SUB SWAP1 KECCAK256 PUSH1 0x40 MLOAD DUP1 PUSH1 0x40 ADD PUSH1 0x40 MSTORE SWAP1 DUP2 PUSH0 DUP3 ADD DUP1 SLOAD PUSH2 0x14D SWAP1 PUSH2 0xC59 JUMP JUMPDEST DUP1 PUSH1 0x1F ADD PUSH1 0x20 DUP1 SWAP2 DIV MUL PUSH1 0x20 ADD PUSH1 0x40 MLOAD SWAP1 DUP2 ADD PUSH1 0x40 MSTORE DUP1 SWAP3 SWAP2 SWAP1 DUP2 DUP2 MSTORE PUSH1 0x20 ADD DUP3 DUP1 SLOAD PUSH2 0x179 SWAP1 PUSH2 0xC59 JUMP JUMPDEST DUP1 ISZERO PUSH2 0x1C4 JUMPI DUP1 PUSH1 0x1F LT PUSH2 0x19B JUMPI PUSH2 0x100 DUP1 DUP4 SLOAD DIV MUL DUP4 MSTORE SWAP2 PUSH1 0x20 ADD SWAP2 PUSH2 0x1C4 JUMP JUMPDEST DUP3 ADD SWAP2 SWAP1 PUSH0 MSTORE PUSH1 0x20 PUSH0 KECCAK256 SWAP1 JUMPDEST DUP2 SLOAD DUP2 MSTORE SWAP1 PUSH1 0x1 ADD SWAP1 PUSH1 0x20 ADD DUP1 DUP4 GT PUSH2 0x1A7 JUMPI DUP3 SWAP1 SUB PUSH1 0x1F AND DUP3 ADD SWAP2 JUMPDEST POP POP POP POP POP DUP2 MSTORE PUSH1 0x20 ADD PUSH1 0x1 DUP3 ADD PUSH0 SWAP1 SLOAD SWAP1 PUSH2 0x100 EXP SWAP1 DIV PUSH20 0xFFFFFFFFFFFFFFFFFFFFFFFFFFFFFFFFFFFFFFFF AND PUSH20 0xFFFFFFFFFFFFFFFFFFFFFFFFFFFFFFFFFFFFFFFF AND PUSH20 0xFFFFFFFFFFFFFFFFFFFFFFFFFFFFFFFFFFFFFFFF AND DUP2 MSTORE POP POP SWAP1 POP SWAP2 SWAP1 POP JUMP JUMPDEST PUSH2 0x231 PUSH2 0x73D JUMP JUMPDEST PUSH0 DUP3 PUSH1 0x40 MLOAD PUSH2 0x240 SWAP2 SWAP1 PUSH2 0xC16 JUMP JUMPDEST SWAP1 DUP2 MSTORE PUSH1 0x20 ADD PUSH1 0x40 MLOAD DUP1 SWAP2 SUB SWAP1 KECCAK256 PUSH1 0x40 MLOAD DUP1 PUSH1 0xC0 ADD PUSH1 0x40 MSTORE SWAP1 DUP2 PUSH0 DUP3 ADD SLOAD DUP2 MSTORE PUSH1 0x20 ADD PUSH1 0x1 DUP3 ADD DUP1 SLOAD PUSH2 0x272 SWAP1 PUSH2 0xC59 JUMP JUMPDEST DUP1 PUSH1 0x1F ADD PUSH1 0x20 DUP1 SWAP2 DIV MUL PUSH1 0x20 ADD PUSH1 0x40 MLOAD SWAP1 DUP2 ADD PUSH1 0x40 MSTORE DUP1 SWAP3 SWAP2 SWAP1 DUP2 DUP2 MSTORE PUSH1 0x20 ADD DUP3 DUP1 SLOAD PUSH2 0x29E SWAP1 PUSH2 0xC59 JUMP JUMPDEST DUP1 ISZERO PUSH2 0x2E9 JUMPI DUP1 PUSH1 0x1F LT PUSH2 0x2C0 JUMPI PUSH2 0x100 DUP1 DUP4 SLOAD DIV MUL DUP4 MSTORE SWAP2 PUSH1 0x20 ADD SWAP2 PUSH2 0x2E9 JUMP JUMPDEST DUP3 ADD SWAP2 SWAP1 PUSH0 MSTORE PUSH1 0x20 PUSH0 KECCAK256 SWAP1 JUMPDEST DUP2 SLOAD DUP2 MSTORE SWAP1 PUSH1 0x1 ADD SWAP1 PUSH1 0x20 ADD DUP1 DUP4 GT PUSH2 0x2CC JUMPI DUP3 SWAP1 SUB PUSH1 0x1F AND DUP3 ADD SWAP2 JUMPDEST POP POP POP POP POP DUP2 MSTORE PUSH1 0x20 ADD PUSH1 0x2 DUP3 ADD DUP1 SLOAD PUSH2 0x302 SWAP1 PUSH2 0xC59 JUMP JUMPDEST DUP1 PUSH1 0x1F ADD PUSH1 0x20 DUP1 SWAP2 DIV MUL PUSH1 0x20 ADD PUSH1 0x40 MLOAD SWAP1 DUP2 ADD PUSH1 0x40 MSTORE DUP1 SWAP3 SWAP2 SWAP1 DUP2 DUP2 MSTORE PUSH1 0x20 ADD DUP3 DUP1 SLOAD PUSH2 0x32E SWAP1 PUSH2 0xC59 JUMP JUMPDEST DUP1 ISZERO PUSH2 0x379 JUMPI DUP1 PUSH1 0x1F LT PUSH2 0x350 JUMPI PUSH2 0x100 DUP1 DUP4 SLOAD DIV MUL DUP4 MSTORE SWAP2 PUSH1 0x20 ADD SWAP2 PUSH2 0x379 JUMP JUMPDEST DUP3 ADD SWAP2 SWAP1 PUSH0 MSTORE PUSH1 0x20 PUSH0 KECCAK256 SWAP1 JUMPDEST DUP2 SLOAD DUP2 MSTORE SWAP1 PUSH1 0x1 ADD SWAP1 PUSH1 0x20 ADD DUP1 DUP4 GT PUSH2 0x35C JUMPI DUP3 SWAP1 SUB PUSH1 0x1F AND DUP3 ADD SWAP2 JUMPDEST POP POP POP POP POP DUP2 MSTORE PUSH1 0x20 ADD PUSH1 0x3 DUP3 ADD PUSH0 SWAP1 SLOAD SWAP1 PUSH2 0x100 EXP SWAP1 DIV PUSH20 0xFFFFFFFFFFFFFFFFFFFFFFFFFFFFFFFFFFFFFFFF AND PUSH20 0xFFFFFFFFFFFFFFFFFFFFFFFFFFFFFFFFFFFFFFFF AND PUSH20 0xFFFFFFFFFFFFFFFFFFFFFFFFFFFFFFFFFFFFFFFF AND DUP2 MSTORE PUSH1 0x20 ADD PUSH1 0x4 DUP3 ADD SLOAD DUP2 MSTORE PUSH1 0x20 ADD PUSH1 0x5 DUP3 ADD SLOAD DUP2 MSTORE POP POP SWAP1 POP SWAP2 SWAP1 POP JUMP JUMPDEST PUSH1 0x40 MLOAD DUP1 PUSH1 0xC0 ADD PUSH1 0x40 MSTORE DUP1 PUSH1 0x4 SLOAD DUP2 MSTORE PUSH1 0x20 ADD DUP4 DUP2 MSTORE PUSH1 0x20 ADD DUP3 DUP2 MSTORE PUSH1 0x20 ADD CALLER PUSH20 0xFFFFFFFFFFFFFFFFFFFFFFFFFFFFFFFFFFFFFFFF AND DUP2 MSTORE PUSH1 0x20 ADD PUSH0 DUP2 MSTORE PUSH1 0x20 ADD PUSH0 DUP2 MSTORE POP PUSH0 DUP4 PUSH1 0x40 MLOAD PUSH2 0x446 SWAP2 SWAP1 PUSH2 0xC16 JUMP JUMPDEST SWAP1 DUP2 MSTORE PUSH1 0x20 ADD PUSH1 0x40 MLOAD DUP1 SWAP2 SUB SWAP1 KECCAK256 PUSH0 DUP3 ADD MLOAD DUP2 PUSH0 ADD SSTORE PUSH1 0x20 DUP3 ADD MLOAD DUP2 PUSH1 0x1 ADD SWAP1 DUP2 PUSH2 0x471 SWAP2 SWAP1 PUSH2 0xE26 JUMP JUMPDEST POP PUSH1 0x40 DUP3 ADD MLOAD DUP2 PUSH1 0x2 ADD SWAP1 DUP2 PUSH2 0x487 SWAP2 SWAP1 PUSH2 0xE26 JUMP JUMPDEST POP PUSH1 0x60 DUP3 ADD MLOAD DUP2 PUSH1 0x3 ADD PUSH0 PUSH2 0x100 EXP DUP2 SLOAD DUP2 PUSH20 0xFFFFFFFFFFFFFFFFFFFFFFFFFFFFFFFFFFFFFFFF MUL NOT AND SWAP1 DUP4 PUSH20 0xFFFFFFFFFFFFFFFFFFFFFFFFFFFFFFFFFFFFFFFF AND MUL OR SWAP1 SSTORE POP PUSH1 0x80 DUP3 ADD MLOAD DUP2 PUSH1 0x4 ADD SSTORE PUSH1 0xA0 DUP3 ADD MLOAD DUP2 PUSH1 0x5 ADD SSTORE SWAP1 POP POP PUSH1 0x4 PUSH0 DUP2 SLOAD DUP1 SWAP3 SWAP2 SWAP1 PUSH2 0x4F7 SWAP1 PUSH2 0xF22 JUMP JUMPDEST SWAP2 SWAP1 POP SSTORE POP POP POP JUMP JUMPDEST PUSH1 0x1 ISZERO ISZERO DUP2 ISZERO ISZERO SUB PUSH2 0x5B9 JUMPI PUSH1 0x1 PUSH0 DUP4 PUSH1 0x40 MLOAD PUSH2 0x51D SWAP2 SWAP1 PUSH2 0xC16 JUMP JUMPDEST SWAP1 DUP2 MSTORE PUSH1 0x20 ADD PUSH1 0x40 MLOAD DUP1 SWAP2 SUB SWAP1 KECCAK256 PUSH1 0x4 ADD PUSH0 DUP3 DUP3 SLOAD PUSH2 0x53C SWAP2 SWAP1 PUSH2 0xF69 JUMP JUMPDEST SWAP3 POP POP DUP2 SWAP1 SSTORE POP PUSH1 0x1 PUSH1 0x2 PUSH0 CALLER PUSH20 0xFFFFFFFFFFFFFFFFFFFFFFFFFFFFFFFFFFFFFFFF AND PUSH20 0xFFFFFFFFFFFFFFFFFFFFFFFFFFFFFFFFFFFFFFFF AND DUP2 MSTORE PUSH1 0x20 ADD SWAP1 DUP2 MSTORE PUSH1 0x20 ADD PUSH0 KECCAK256 DUP4 PUSH1 0x40 MLOAD PUSH2 0x590 SWAP2 SWAP1 PUSH2 0xC16 JUMP JUMPDEST SWAP1 DUP2 MSTORE PUSH1 0x20 ADD PUSH1 0x40 MLOAD DUP1 SWAP2 SUB SWAP1 KECCAK256 PUSH0 PUSH2 0x100 EXP DUP2 SLOAD DUP2 PUSH1 0xFF MUL NOT AND SWAP1 DUP4 ISZERO ISZERO MUL OR SWAP1 SSTORE POP PUSH2 0x661 JUMP JUMPDEST PUSH1 0x1 PUSH0 DUP4 PUSH1 0x40 MLOAD PUSH2 0x5CA SWAP2 SWAP1 PUSH2 0xC16 JUMP JUMPDEST SWAP1 DUP2 MSTORE PUSH1 0x20 ADD PUSH1 0x40 MLOAD DUP1 SWAP2 SUB SWAP1 KECCAK256 PUSH1 0x5 ADD PUSH0 DUP3 DUP3 SLOAD PUSH2 0x5E9 SWAP2 SWAP1 PUSH2 0xF69 JUMP JUMPDEST SWAP3 POP POP DUP2 SWAP1 SSTORE POP PUSH0 PUSH1 0x2 PUSH0 CALLER PUSH20 0xFFFFFFFFFFFFFFFFFFFFFFFFFFFFFFFFFFFFFFFF AND PUSH20 0xFFFFFFFFFFFFFFFFFFFFFFFFFFFFFFFFFFFFFFFF AND DUP2 MSTORE PUSH1 0x20 ADD SWAP1 DUP2 MSTORE PUSH1 0x20 ADD PUSH0 KECCAK256 DUP4 PUSH1 0x40 MLOAD PUSH2 0x63C SWAP2 SWAP1 PUSH2 0xC16 JUMP JUMPDEST SWAP1 DUP2 MSTORE PUSH1 0x20 ADD PUSH1 0x40 MLOAD DUP1 SWAP2 SUB SWAP1 KECCAK256 PUSH0 PUSH2 0x100 EXP DUP2 SLOAD DUP2 PUSH1 0xFF MUL NOT AND SWAP1 DUP4 ISZERO ISZERO MUL OR SWAP1 SSTORE POP JUMPDEST POP POP JUMP JUMPDEST PUSH1 0x40 MLOAD DUP1 PUSH1 0x40 ADD PUSH1 0x40 MSTORE DUP1 DUP3 DUP2 MSTORE PUSH1 0x20 ADD CALLER PUSH20 0xFFFFFFFFFFFFFFFFFFFFFFFFFFFFFFFFFFFFFFFF AND DUP2 MSTORE POP PUSH1 0x3 DUP3 PUSH1 0x40 MLOAD PUSH2 0x6A0 SWAP2 SWAP1 PUSH2 0xC16 JUMP JUMPDEST SWAP1 DUP2 MSTORE PUSH1 0x20 ADD PUSH1 0x40 MLOAD DUP1 SWAP2 SUB SWAP1 KECCAK256 PUSH0 DUP3 ADD MLOAD DUP2 PUSH0 ADD SWAP1 DUP2 PUSH2 0x6C1 SWAP2 SWAP1 PUSH2 0xE26 JUMP JUMPDEST POP PUSH1 0x20 DUP3 ADD MLOAD DUP2 PUSH1 0x1 ADD PUSH0 PUSH2 0x100 EXP DUP2 SLOAD DUP2 PUSH20 0xFFFFFFFFFFFFFFFFFFFFFFFFFFFFFFFFFFFFFFFF MUL NOT AND SWAP1 DUP4 PUSH20 0xFFFFFFFFFFFFFFFFFFFFFFFFFFFFFFFFFFFFFFFF AND MUL OR SWAP1 SSTORE POP SWAP1 POP POP POP JUMP JUMPDEST PUSH1 0x40 MLOAD DUP1 PUSH1 0x40 ADD PUSH1 0x40 MSTORE DUP1 PUSH1 0x60 DUP2 MSTORE PUSH1 0x20 ADD PUSH0 PUSH20 0xFFFFFFFFFFFFFFFFFFFFFFFFFFFFFFFFFFFFFFFF AND DUP2 MSTORE POP SWAP1 JUMP JUMPDEST PUSH1 0x40 MLOAD DUP1 PUSH1 0xC0 ADD PUSH1 0x40 MSTORE DUP1 PUSH0 DUP2 MSTORE PUSH1 0x20 ADD PUSH1 0x60 DUP2 MSTORE PUSH1 0x20 ADD PUSH1 0x60 DUP2 MSTORE PUSH1 0x20 ADD PUSH0 PUSH20 0xFFFFFFFFFFFFFFFFFFFFFFFFFFFFFFFFFFFFFFFF AND DUP2 MSTORE PUSH1 0x20 ADD PUSH0 DUP2 MSTORE PUSH1 0x20 ADD PUSH0 DUP2 MSTORE POP SWAP1 JUMP JUMPDEST PUSH0 PUSH1 0x40 MLOAD SWAP1 POP SWAP1 JUMP JUMPDEST PUSH0 DUP1 REVERT JUMPDEST PUSH0 DUP1 REVERT JUMPDEST PUSH0 DUP1 REVERT JUMPDEST PUSH0 DUP1 REVERT JUMPDEST PUSH0 PUSH1 0x1F NOT PUSH1 0x1F DUP4 ADD AND SWAP1 POP SWAP2 SWAP1 POP JUMP JUMPDEST PUSH32 0x4E487B7100000000000000000000000000000000000000000000000000000000 PUSH0 MSTORE PUSH1 0x41 PUSH1 0x4 MSTORE PUSH1 0x24 PUSH0 REVERT JUMPDEST PUSH2 0x7E4 DUP3 PUSH2 0x79E JUMP JUMPDEST DUP2 ADD DUP2 DUP2 LT PUSH8 0xFFFFFFFFFFFFFFFF DUP3 GT OR ISZERO PUSH2 0x803 JUMPI PUSH2 0x802 PUSH2 0x7AE JUMP JUMPDEST JUMPDEST DUP1 PUSH1 0x40 MSTORE POP POP POP JUMP JUMPDEST PUSH0 PUSH2 0x815 PUSH2 0x785 JUMP JUMPDEST SWAP1 POP PUSH2 0x821 DUP3 DUP3 PUSH2 0x7DB JUMP JUMPDEST SWAP2 SWAP1 POP JUMP JUMPDEST PUSH0 PUSH8 0xFFFFFFFFFFFFFFFF DUP3 GT ISZERO PUSH2 0x840 JUMPI PUSH2 0x83F PUSH2 0x7AE JUMP JUMPDEST JUMPDEST PUSH2 0x849 DUP3 PUSH2 0x79E JUMP JUMPDEST SWAP1 POP PUSH1 0x20 DUP2 ADD SWAP1 POP SWAP2 SWAP1 POP JUMP JUMPDEST DUP3 DUP2 DUP4 CALLDATACOPY PUSH0 DUP4 DUP4 ADD MSTORE POP POP POP JUMP JUMPDEST PUSH0 PUSH2 0x876 PUSH2 0x871 DUP5 PUSH2 0x826 JUMP JUMPDEST PUSH2 0x80C JUMP JUMPDEST SWAP1 POP DUP3 DUP2 MSTORE PUSH1 0x20 DUP2 ADD DUP5 DUP5 DUP5 ADD GT ISZERO PUSH2 0x892 JUMPI PUSH2 0x891 PUSH2 0x79A JUMP JUMPDEST JUMPDEST PUSH2 0x89D DUP5 DUP3 DUP6 PUSH2 0x856 JUMP JUMPDEST POP SWAP4 SWAP3 POP POP POP JUMP JUMPDEST PUSH0 DUP3 PUSH1 0x1F DUP4 ADD SLT PUSH2 0x8B9 JUMPI PUSH2 0x8B8 PUSH2 0x796 JUMP JUMPDEST JUMPDEST DUP2 CALLDATALOAD PUSH2 0x8C9 DUP5 DUP3 PUSH1 0x20 DUP7 ADD PUSH2 0x864 JUMP JUMPDEST SWAP2 POP POP SWAP3 SWAP2 POP POP JUMP JUMPDEST PUSH0 PUSH1 0x20 DUP3 DUP5 SUB SLT ISZERO PUSH2 0x8E7 JUMPI PUSH2 0x8E6 PUSH2 0x78E JUMP JUMPDEST JUMPDEST PUSH0 DUP3 ADD CALLDATALOAD PUSH8 0xFFFFFFFFFFFFFFFF DUP2 GT ISZERO PUSH2 0x904 JUMPI PUSH2 0x903 PUSH2 0x792 JUMP JUMPDEST JUMPDEST PUSH2 0x910 DUP5 DUP3 DUP6 ADD PUSH2 0x8A5 JUMP JUMPDEST SWAP2 POP POP SWAP3 SWAP2 POP POP JUMP JUMPDEST PUSH0 DUP2 MLOAD SWAP1 POP SWAP2 SWAP1 POP JUMP JUMPDEST PUSH0 DUP3 DUP3 MSTORE PUSH1 0x20 DUP3 ADD SWAP1 POP SWAP3 SWAP2 POP POP JUMP JUMPDEST DUP3 DUP2 DUP4 MCOPY PUSH0 DUP4 DUP4 ADD MSTORE POP POP POP JUMP JUMPDEST PUSH0 PUSH2 0x94B DUP3 PUSH2 0x919 JUMP JUMPDEST PUSH2 0x955 DUP2 DUP6 PUSH2 0x923 JUMP JUMPDEST SWAP4 POP PUSH2 0x965 DUP2 DUP6 PUSH1 0x20 DUP7 ADD PUSH2 0x933 JUMP JUMPDEST PUSH2 0x96E DUP2 PUSH2 0x79E JUMP JUMPDEST DUP5 ADD SWAP2 POP POP SWAP3 SWAP2 POP POP JUMP JUMPDEST PUSH0 PUSH20 0xFFFFFFFFFFFFFFFFFFFFFFFFFFFFFFFFFFFFFFFF DUP3 AND SWAP1 POP SWAP2 SWAP1 POP JUMP JUMPDEST PUSH0 PUSH2 0x9A2 DUP3 PUSH2 0x979 JUMP JUMPDEST SWAP1 POP SWAP2 SWAP1 POP JUMP JUMPDEST PUSH2 0x9B2 DUP2 PUSH2 0x998 JUMP JUMPDEST DUP3 MSTORE POP POP JUMP JUMPDEST PUSH0 PUSH1 0x40 DUP4 ADD PUSH0 DUP4 ADD MLOAD DUP5 DUP3 SUB PUSH0 DUP7 ADD MSTORE PUSH2 0x9D2 DUP3 DUP3 PUSH2 0x941 JUMP JUMPDEST SWAP2 POP POP PUSH1 0x20 DUP4 ADD MLOAD PUSH2 0x9E7 PUSH1 0x20 DUP7 ADD DUP3 PUSH2 0x9A9 JUMP JUMPDEST POP DUP1 SWAP2 POP POP SWAP3 SWAP2 POP POP JUMP JUMPDEST PUSH0 PUSH1 0x20 DUP3 ADD SWAP1 POP DUP2 DUP2 SUB PUSH0 DUP4 ADD MSTORE PUSH2 0xA0A DUP2 DUP5 PUSH2 0x9B8 JUMP JUMPDEST SWAP1 POP SWAP3 SWAP2 POP POP JUMP JUMPDEST PUSH0 DUP2 SWAP1 POP SWAP2 SWAP1 POP JUMP JUMPDEST PUSH2 0xA24 DUP2 PUSH2 0xA12 JUMP JUMPDEST DUP3 MSTORE POP POP JUMP JUMPDEST PUSH0 PUSH1 0xC0 DUP4 ADD PUSH0 DUP4 ADD MLOAD PUSH2 0xA3F PUSH0 DUP7 ADD DUP3 PUSH2 0xA1B JUMP JUMPDEST POP PUSH1 0x20 DUP4 ADD MLOAD DUP5 DUP3 SUB PUSH1 0x20 DUP7 ADD MSTORE PUSH2 0xA57 DUP3 DUP3 PUSH2 0x941 JUMP JUMPDEST SWAP2 POP POP PUSH1 0x40 DUP4 ADD MLOAD DUP5 DUP3 SUB PUSH1 0x40 DUP7 ADD MSTORE PUSH2 0xA71 DUP3 DUP3 PUSH2 0x941 JUMP JUMPDEST SWAP2 POP POP PUSH1 0x60 DUP4 ADD MLOAD PUSH2 0xA86 PUSH1 0x60 DUP7 ADD DUP3 PUSH2 0x9A9 JUMP JUMPDEST POP PUSH1 0x80 DUP4 ADD MLOAD PUSH2 0xA99 PUSH1 0x80 DUP7 ADD DUP3 PUSH2 0xA1B JUMP JUMPDEST POP PUSH1 0xA0 DUP4 ADD MLOAD PUSH2 0xAAC PUSH1 0xA0 DUP7 ADD DUP3 PUSH2 0xA1B JUMP JUMPDEST POP DUP1 SWAP2 POP POP SWAP3 SWAP2 POP POP JUMP JUMPDEST PUSH0 PUSH1 0x20 DUP3 ADD SWAP1 POP DUP2 DUP2 SUB PUSH0 DUP4 ADD MSTORE PUSH2 0xACF DUP2 DUP5 PUSH2 0xA2A JUMP JUMPDEST SWAP1 POP SWAP3 SWAP2 POP POP JUMP JUMPDEST PUSH0 DUP1 PUSH1 0x40 DUP4 DUP6 SUB SLT ISZERO PUSH2 0xAED JUMPI PUSH2 0xAEC PUSH2 0x78E JUMP JUMPDEST JUMPDEST PUSH0 DUP4 ADD CALLDATALOAD PUSH8 0xFFFFFFFFFFFFFFFF DUP2 GT ISZERO PUSH2 0xB0A JUMPI PUSH2 0xB09 PUSH2 0x792 JUMP JUMPDEST JUMPDEST PUSH2 0xB16 DUP6 DUP3 DUP7 ADD PUSH2 0x8A5 JUMP JUMPDEST SWAP3 POP POP PUSH1 0x20 DUP4 ADD CALLDATALOAD PUSH8 0xFFFFFFFFFFFFFFFF DUP2 GT ISZERO PUSH2 0xB37 JUMPI PUSH2 0xB36 PUSH2 0x792 JUMP JUMPDEST JUMPDEST PUSH2 0xB43 DUP6 DUP3 DUP7 ADD PUSH2 0x8A5 JUMP JUMPDEST SWAP2 POP POP SWAP3 POP SWAP3 SWAP1 POP JUMP JUMPDEST PUSH0 DUP2 ISZERO ISZERO SWAP1 POP SWAP2 SWAP1 POP JUMP JUMPDEST PUSH2 0xB61 DUP2 PUSH2 0xB4D JUMP JUMPDEST DUP2 EQ PUSH2 0xB6B JUMPI PUSH0 DUP1 REVERT JUMPDEST POP JUMP JUMPDEST PUSH0 DUP2 CALLDATALOAD SWAP1 POP PUSH2 0xB7C DUP2 PUSH2 0xB58 JUMP JUMPDEST SWAP3 SWAP2 POP POP JUMP JUMPDEST PUSH0 DUP1 PUSH1 0x40 DUP4 DUP6 SUB SLT ISZERO PUSH2 0xB98 JUMPI PUSH2 0xB97 PUSH2 0x78E JUMP JUMPDEST JUMPDEST PUSH0 DUP4 ADD CALLDATALOAD PUSH8 0xFFFFFFFFFFFFFFFF DUP2 GT ISZERO PUSH2 0xBB5 JUMPI PUSH2 0xBB4 PUSH2 0x792 JUMP JUMPDEST JUMPDEST PUSH2 0xBC1 DUP6 DUP3 DUP7 ADD PUSH2 0x8A5 JUMP JUMPDEST SWAP3 POP POP PUSH1 0x20 PUSH2 0xBD2 DUP6 DUP3 DUP7 ADD PUSH2 0xB6E JUMP JUMPDEST SWAP2 POP POP SWAP3 POP SWAP3 SWAP1 POP JUMP JUMPDEST PUSH0 DUP2 SWAP1 POP SWAP3 SWAP2 POP POP JUMP JUMPDEST PUSH0 PUSH2 0xBF0 DUP3 PUSH2 0x919 JUMP JUMPDEST PUSH2 0xBFA DUP2 DUP6 PUSH2 0xBDC JUMP JUMPDEST SWAP4 POP PUSH2 0xC0A DUP2 DUP6 PUSH1 0x20 DUP7 ADD PUSH2 0x933 JUMP JUMPDEST DUP1 DUP5 ADD SWAP2 POP POP SWAP3 SWAP2 POP POP JUMP JUMPDEST PUSH0 PUSH2 0xC21 DUP3 DUP5 PUSH2 0xBE6 JUMP JUMPDEST SWAP2 POP DUP2 SWAP1 POP SWAP3 SWAP2 POP POP JUMP JUMPDEST PUSH32 0x4E487B7100000000000000000000000000000000000000000000000000000000 PUSH0 MSTORE PUSH1 0x22 PUSH1 0x4 MSTORE PUSH1 0x24 PUSH0 REVERT JUMPDEST PUSH0 PUSH1 0x2 DUP3 DIV SWAP1 POP PUSH1 0x1 DUP3 AND DUP1 PUSH2 0xC70 JUMPI PUSH1 0x7F DUP3 AND SWAP2 POP JUMPDEST PUSH1 0x20 DUP3 LT DUP2 SUB PUSH2 0xC83 JUMPI PUSH2 0xC82 PUSH2 0xC2C JUMP JUMPDEST JUMPDEST POP SWAP2 SWAP1 POP JUMP JUMPDEST PUSH0 DUP2 SWAP1 POP DUP2 PUSH0 MSTORE PUSH1 0x20 PUSH0 KECCAK256 SWAP1 POP SWAP2 SWAP1 POP JUMP JUMPDEST PUSH0 PUSH1 0x20 PUSH1 0x1F DUP4 ADD DIV SWAP1 POP SWAP2 SWAP1 POP JUMP JUMPDEST PUSH0 DUP3 DUP3 SHL SWAP1 POP SWAP3 SWAP2 POP POP JUMP JUMPDEST PUSH0 PUSH1 0x8 DUP4 MUL PUSH2 0xCE5 PUSH32 0xFFFFFFFFFFFFFFFFFFFFFFFFFFFFFFFFFFFFFFFFFFFFFFFFFFFFFFFFFFFFFFFF DUP3 PUSH2 0xCAA JUMP JUMPDEST PUSH2 0xCEF DUP7 DUP4 PUSH2 0xCAA JUMP JUMPDEST SWAP6 POP DUP1 NOT DUP5 AND SWAP4 POP DUP1 DUP7 AND DUP5 OR SWAP3 POP POP POP SWAP4 SWAP3 POP POP POP JUMP JUMPDEST PUSH0 DUP2 SWAP1 POP SWAP2 SWAP1 POP JUMP JUMPDEST PUSH0 PUSH2 0xD2A PUSH2 0xD25 PUSH2 0xD20 DUP5 PUSH2 0xA12 JUMP JUMPDEST PUSH2 0xD07 JUMP JUMPDEST PUSH2 0xA12 JUMP JUMPDEST SWAP1 POP SWAP2 SWAP1 POP JUMP JUMPDEST PUSH0 DUP2 SWAP1 POP SWAP2 SWAP1 POP JUMP JUMPDEST PUSH2 0xD43 DUP4 PUSH2 0xD10 JUMP JUMPDEST PUSH2 0xD57 PUSH2 0xD4F DUP3 PUSH2 0xD31 JUMP JUMPDEST DUP5 DUP5 SLOAD PUSH2 0xCB6 JUMP JUMPDEST DUP3 SSTORE POP POP POP POP JUMP JUMPDEST PUSH0 SWAP1 JUMP JUMPDEST PUSH2 0xD6B PUSH2 0xD5F JUMP JUMPDEST PUSH2 0xD76 DUP2 DUP5 DUP5 PUSH2 0xD3A JUMP JUMPDEST POP POP POP JUMP JUMPDEST JUMPDEST DUP2 DUP2 LT ISZERO PUSH2 0xD99 JUMPI PUSH2 0xD8E PUSH0 DUP3 PUSH2 0xD63 JUMP JUMPDEST PUSH1 0x1 DUP2 ADD SWAP1 POP PUSH2 0xD7C JUMP JUMPDEST POP POP JUMP JUMPDEST PUSH1 0x1F DUP3 GT ISZERO PUSH2 0xDDE JUMPI PUSH2 0xDAF DUP2 PUSH2 0xC89 JUMP JUMPDEST PUSH2 0xDB8 DUP5 PUSH2 0xC9B JUMP JUMPDEST DUP2 ADD PUSH1 0x20 DUP6 LT ISZERO PUSH2 0xDC7 JUMPI DUP2 SWAP1 POP JUMPDEST PUSH2 0xDDB PUSH2 0xDD3 DUP6 PUSH2 0xC9B JUMP JUMPDEST DUP4 ADD DUP3 PUSH2 0xD7B JUMP JUMPDEST POP POP JUMPDEST POP POP POP JUMP JUMPDEST PUSH0 DUP3 DUP3 SHR SWAP1 POP SWAP3 SWAP2 POP POP JUMP JUMPDEST PUSH0 PUSH2 0xDFE PUSH0 NOT DUP5 PUSH1 0x8 MUL PUSH2 0xDE3 JUMP JUMPDEST NOT DUP1 DUP4 AND SWAP2 POP POP SWAP3 SWAP2 POP POP JUMP JUMPDEST PUSH0 PUSH2 0xE16 DUP4 DUP4 PUSH2 0xDEF JUMP JUMPDEST SWAP2 POP DUP3 PUSH1 0x2 MUL DUP3 OR SWAP1 POP SWAP3 SWAP2 POP POP JUMP JUMPDEST PUSH2 0xE2F DUP3 PUSH2 0x919 JUMP JUMPDEST PUSH8 0xFFFFFFFFFFFFFFFF DUP2 GT ISZERO PUSH2 0xE48 JUMPI PUSH2 0xE47 PUSH2 0x7AE JUMP JUMPDEST JUMPDEST PUSH2 0xE52 DUP3 SLOAD PUSH2 0xC59 JUMP JUMPDEST PUSH2 0xE5D DUP3 DUP3 DUP6 PUSH2 0xD9D JUMP JUMPDEST PUSH0 PUSH1 0x20 SWAP1 POP PUSH1 0x1F DUP4 GT PUSH1 0x1 DUP2 EQ PUSH2 0xE8E JUMPI PUSH0 DUP5 ISZERO PUSH2 0xE7C JUMPI DUP3 DUP8 ADD MLOAD SWAP1 POP JUMPDEST PUSH2 0xE86 DUP6 DUP3 PUSH2 0xE0B JUMP JUMPDEST DUP7 SSTORE POP PUSH2 0xEED JUMP JUMPDEST PUSH1 0x1F NOT DUP5 AND PUSH2 0xE9C DUP7 PUSH2 0xC89 JUMP JUMPDEST PUSH0 JUMPDEST DUP3 DUP2 LT ISZERO PUSH2 0xEC3 JUMPI DUP5 DUP10 ADD MLOAD DUP3 SSTORE PUSH1 0x1 DUP3 ADD SWAP2 POP PUSH1 0x20 DUP6 ADD SWAP5 POP PUSH1 0x20 DUP2 ADD SWAP1 POP PUSH2 0xE9E JUMP JUMPDEST DUP7 DUP4 LT ISZERO PUSH2 0xEE0 JUMPI DUP5 DUP10 ADD MLOAD PUSH2 0xEDC PUSH1 0x1F DUP10 AND DUP3 PUSH2 0xDEF JUMP JUMPDEST DUP4 SSTORE POP JUMPDEST PUSH1 0x1 PUSH1 0x2 DUP9 MUL ADD DUP9 SSTORE POP POP POP JUMPDEST POP POP POP POP POP POP JUMP JUMPDEST PUSH32 0x4E487B7100000000000000000000000000000000000000000000000000000000 PUSH0 MSTORE PUSH1 0x11 PUSH1 0x4 MSTORE PUSH1 0x24 PUSH0 REVERT JUMPDEST PUSH0 PUSH2 0xF2C DUP3 PUSH2 0xA12 JUMP JUMPDEST SWAP2 POP PUSH32 0xFFFFFFFFFFFFFFFFFFFFFFFFFFFFFFFFFFFFFFFFFFFFFFFFFFFFFFFFFFFFFFFF DUP3 SUB PUSH2 0xF5E JUMPI PUSH2 0xF5D PUSH2 0xEF5 JUMP JUMPDEST JUMPDEST PUSH1 0x1 DUP3 ADD SWAP1 POP SWAP2 SWAP1 POP JUMP JUMPDEST PUSH0 PUSH2 0xF73 DUP3 PUSH2 0xA12 JUMP JUMPDEST SWAP2 POP PUSH2 0xF7E DUP4 PUSH2 0xA12 JUMP JUMPDEST SWAP3 POP DUP3 DUP3 ADD SWAP1 POP DUP1 DUP3 GT ISZERO PUSH2 0xF96 JUMPI PUSH2 0xF95 PUSH2 0xEF5 JUMP JUMPDEST JUMPDEST SWAP3 SWAP2 POP POP JUMP INVALID LOG2 PUSH5 0x6970667358 0x22 SLT KECCAK256 0xCF 0xFB 0xD3 GASPRICE 0xB6 RETURNDATASIZE 0x23 SWAP14 EXTCODEHASH 0xD0 0x2D TIMESTAMP 0xD8 0xB3 SUB 0x25 SWAP16 NOT SWAP14 0x4E 0xDF PUSH12 0xE74A3B8712AA8A4337E6473 PUSH16 0x6C634300081900330000000000000000 "
				},
				"gasEstimates": {
					"creation": {
						"codeDepositCost": "810000",
						"executionCost": "842",
						"totalCost": "810842"
					},
					"external": {
						"getTopic(string)": "infinite",
						"getUser(string)": "infinite",
						"setTopic(string,string)": "infinite",
						"setUser(string)": "infinite",
						"voting(string,bool)": "infinite"
					}
				},
				"methodIdentifiers": {
					"getTopic(string)": "474502d8",
					"getUser(string)": "31feb671",
					"setTopic(string,string)": "4ac3e917",
					"setUser(string)": "d0020fad",
					"voting(string,bool)": "4da8d7ef"
				}
			},
			"storageLayout": {
				"storage": [
					{
						"astId": 19,
						"contract": "solidity_test/test8.sol:a",
						"label": "topics",
						"offset": 0,
						"slot": "0",
						"type": "t_mapping(t_string_memory_ptr,t_struct(topic)14_storage)"
					},
					{
						"astId": 28,
						"contract": "solidity_test/test8.sol:a",
						"label": "subject",
						"offset": 0,
						"slot": "1",
						"type": "t_mapping(t_string_memory_ptr,t_string_storage)"
					},
					{
						"astId": 34,
						"contract": "solidity_test/test8.sol:a",
						"label": "vote",
						"offset": 0,
						"slot": "2",
						"type": "t_mapping(t_address,t_mapping(t_string_memory_ptr,t_bool))"
					},
					{
						"astId": 39,
						"contract": "solidity_test/test8.sol:a",
						"label": "users",
						"offset": 0,
						"slot": "3",
						"type": "t_mapping(t_string_memory_ptr,t_struct(user)24_storage)"
					},
					{
						"astId": 41,
						"contract": "solidity_test/test8.sol:a",
						"label": "topicNum",
						"offset": 0,
						"slot": "4",
						"type": "t_uint256"
					}
				],
				"types": {
					"t_address": {
						"encoding": "inplace",
						"label": "address",
						"numberOfBytes": "20"
					},
					"t_bool": {
						"encoding": "inplace",
						"label": "bool",
						"numberOfBytes": "1"
					},
					"t_mapping(t_address,t_mapping(t_string_memory_ptr,t_bool))": {
						"encoding": "mapping",
						"key": "t_address",
						"label": "mapping(address => mapping(string => bool))",
						"numberOfBytes": "32",
						"value": "t_mapping(t_string_memory_ptr,t_bool)"
					},
					"t_mapping(t_string_memory_ptr,t_bool)": {
						"encoding": "mapping",
						"key": "t_string_memory_ptr",
						"label": "mapping(string => bool)",
						"numberOfBytes": "32",
						"value": "t_bool"
					},
					"t_mapping(t_string_memory_ptr,t_string_storage)": {
						"encoding": "mapping",
						"key": "t_string_memory_ptr",
						"label": "mapping(string => string)",
						"numberOfBytes": "32",
						"value": "t_string_storage"
					},
					"t_mapping(t_string_memory_ptr,t_struct(topic)14_storage)": {
						"encoding": "mapping",
						"key": "t_string_memory_ptr",
						"label": "mapping(string => struct a.topic)",
						"numberOfBytes": "32",
						"value": "t_struct(topic)14_storage"
					},
					"t_mapping(t_string_memory_ptr,t_struct(user)24_storage)": {
						"encoding": "mapping",
						"key": "t_string_memory_ptr",
						"label": "mapping(string => struct a.user)",
						"numberOfBytes": "32",
						"value": "t_struct(user)24_storage"
					},
					"t_string_memory_ptr": {
						"encoding": "bytes",
						"label": "string",
						"numberOfBytes": "32"
					},
					"t_string_storage": {
						"encoding": "bytes",
						"label": "string",
						"numberOfBytes": "32"
					},
					"t_struct(topic)14_storage": {
						"encoding": "inplace",
						"label": "struct a.topic",
						"members": [
							{
								"astId": 3,
								"contract": "solidity_test/test8.sol:a",
								"label": "number",
								"offset": 0,
								"slot": "0",
								"type": "t_uint256"
							},
							{
								"astId": 5,
								"contract": "solidity_test/test8.sol:a",
								"label": "subject",
								"offset": 0,
								"slot": "1",
								"type": "t_string_storage"
							},
							{
								"astId": 7,
								"contract": "solidity_test/test8.sol:a",
								"label": "content",
								"offset": 0,
								"slot": "2",
								"type": "t_string_storage"
							},
							{
								"astId": 9,
								"contract": "solidity_test/test8.sol:a",
								"label": "proposer",
								"offset": 0,
								"slot": "3",
								"type": "t_address"
							},
							{
								"astId": 11,
								"contract": "solidity_test/test8.sol:a",
								"label": "upvote",
								"offset": 0,
								"slot": "4",
								"type": "t_uint256"
							},
							{
								"astId": 13,
								"contract": "solidity_test/test8.sol:a",
								"label": "downvote",
								"offset": 0,
								"slot": "5",
								"type": "t_uint256"
							}
						],
						"numberOfBytes": "192"
					},
					"t_struct(user)24_storage": {
						"encoding": "inplace",
						"label": "struct a.user",
						"members": [
							{
								"astId": 21,
								"contract": "solidity_test/test8.sol:a",
								"label": "name",
								"offset": 0,
								"slot": "0",
								"type": "t_string_storage"
							},
							{
								"astId": 23,
								"contract": "solidity_test/test8.sol:a",
								"label": "wallet",
								"offset": 0,
								"slot": "1",
								"type": "t_address"
							}
						],
						"numberOfBytes": "64"
					},
					"t_uint256": {
						"encoding": "inplace",
						"label": "uint256",
						"numberOfBytes": "32"
					}
				}
			},
			"userdoc": {
				"kind": "user",
				"methods": {},
				"version": 1
			}
		}
	}
}