{
	"solidity_test/test8.sol": {
		"TrAnswer": {
			"abi": [
				{
					"inputs": [],
					"name": "getMyProposals",
					"outputs": [
						{
							"components": [
								{
									"internalType": "uint256",
									"name": "number",
									"type": "uint256"
								},
								{
									"internalType": "string",
									"name": "title",
									"type": "string"
								},
								{
									"internalType": "string",
									"name": "content",
									"type": "string"
								},
								{
									"internalType": "address",
									"name": "proposer",
									"type": "address"
								},
								{
									"internalType": "uint256",
									"name": "pros",
									"type": "uint256"
								},
								{
									"internalType": "uint256",
									"name": "cons",
									"type": "uint256"
								},
								{
									"internalType": "enum TrAnswer.status",
									"name": "result",
									"type": "uint8"
								},
								{
									"internalType": "uint256",
									"name": "blockNumber",
									"type": "uint256"
								}
							],
							"internalType": "struct TrAnswer.Prop[]",
							"name": "",
							"type": "tuple[]"
						}
					],
					"stateMutability": "view",
					"type": "function"
				},
				{
					"inputs": [
						{
							"internalType": "string",
							"name": "_title",
							"type": "string"
						}
					],
					"name": "getProposal",
					"outputs": [
						{
							"components": [
								{
									"internalType": "uint256",
									"name": "number",
									"type": "uint256"
								},
								{
									"internalType": "string",
									"name": "title",
									"type": "string"
								},
								{
									"internalType": "string",
									"name": "content",
									"type": "string"
								},
								{
									"internalType": "address",
									"name": "proposer",
									"type": "address"
								},
								{
									"internalType": "uint256",
									"name": "pros",
									"type": "uint256"
								},
								{
									"internalType": "uint256",
									"name": "cons",
									"type": "uint256"
								},
								{
									"internalType": "enum TrAnswer.status",
									"name": "result",
									"type": "uint8"
								},
								{
									"internalType": "uint256",
									"name": "blockNumber",
									"type": "uint256"
								}
							],
							"internalType": "struct TrAnswer.Prop",
							"name": "",
							"type": "tuple"
						}
					],
					"stateMutability": "view",
					"type": "function"
				},
				{
					"inputs": [
						{
							"internalType": "string",
							"name": "",
							"type": "string"
						}
					],
					"name": "proposals",
					"outputs": [
						{
							"internalType": "uint256",
							"name": "number",
							"type": "uint256"
						},
						{
							"internalType": "string",
							"name": "title",
							"type": "string"
						},
						{
							"internalType": "string",
							"name": "content",
							"type": "string"
						},
						{
							"internalType": "address",
							"name": "proposer",
							"type": "address"
						},
						{
							"internalType": "uint256",
							"name": "pros",
							"type": "uint256"
						},
						{
							"internalType": "uint256",
							"name": "cons",
							"type": "uint256"
						},
						{
							"internalType": "enum TrAnswer.status",
							"name": "result",
							"type": "uint8"
						},
						{
							"internalType": "uint256",
							"name": "blockNumber",
							"type": "uint256"
						}
					],
					"stateMutability": "view",
					"type": "function"
				},
				{
					"inputs": [
						{
							"internalType": "string",
							"name": "_title",
							"type": "string"
						},
						{
							"internalType": "string",
							"name": "_content",
							"type": "string"
						}
					],
					"name": "propose",
					"outputs": [],
					"stateMutability": "nonpayable",
					"type": "function"
				},
				{
					"inputs": [
						{
							"internalType": "string",
							"name": "_title",
							"type": "string"
						}
					],
					"name": "setResult",
					"outputs": [],
					"stateMutability": "nonpayable",
					"type": "function"
				},
				{
					"inputs": [
						{
							"internalType": "string",
							"name": "_name",
							"type": "string"
						}
					],
					"name": "signUp",
					"outputs": [],
					"stateMutability": "nonpayable",
					"type": "function"
				},
				{
					"inputs": [
						{
							"internalType": "string",
							"name": "_title",
							"type": "string"
						},
						{
							"internalType": "bool",
							"name": "_isPro",
							"type": "bool"
						}
					],
					"name": "vote",
					"outputs": [],
					"stateMutability": "nonpayable",
					"type": "function"
				}
			],
			"devdoc": {
				"kind": "dev",
				"methods": {},
				"version": 1
			},
			"evm": {
				"assembly": "    /* \"solidity_test/test8.sol\":4505:8048  contract TrAnswer {... */\n  mstore(0x40, 0x80)\n    /* \"solidity_test/test8.sol\":4890:4891  1 */\n  0x01\n    /* \"solidity_test/test8.sol\":4874:4891  uint propCount =1 */\n  dup1\n  sstore\n    /* \"solidity_test/test8.sol\":4505:8048  contract TrAnswer {... */\n  callvalue\n  dup1\n  iszero\n  tag_1\n  jumpi\n  0x00\n  dup1\n  revert\ntag_1:\n  pop\n  dataSize(sub_0)\n  dup1\n  dataOffset(sub_0)\n  0x00\n  codecopy\n  0x00\n  return\nstop\n\nsub_0: assembly {\n        /* \"solidity_test/test8.sol\":4505:8048  contract TrAnswer {... */\n      mstore(0x40, 0x80)\n      callvalue\n      dup1\n      iszero\n      tag_1\n      jumpi\n      0x00\n      dup1\n      revert\n    tag_1:\n      pop\n      jumpi(tag_2, lt(calldatasize, 0x04))\n      shr(0xe0, calldataload(0x00))\n      dup1\n      0x36ffa905\n      gt\n      tag_10\n      jumpi\n      dup1\n      0x36ffa905\n      eq\n      tag_6\n      jumpi\n      dup1\n      0x88e3cfda\n      eq\n      tag_7\n      jumpi\n      dup1\n      0xadcfb4fc\n      eq\n      tag_8\n      jumpi\n      dup1\n      0xffa0d2a4\n      eq\n      tag_9\n      jumpi\n      jump(tag_2)\n    tag_10:\n      dup1\n      0x1c4afc57\n      eq\n      tag_3\n      jumpi\n      dup1\n      0x25d3a09d\n      eq\n      tag_4\n      jumpi\n      dup1\n      0x27d3410c\n      eq\n      tag_5\n      jumpi\n    tag_2:\n      0x00\n      dup1\n      revert\n        /* \"solidity_test/test8.sol\":5794:6038  function propose(string calldata _title, string calldata _content) public {... */\n    tag_3:\n      tag_11\n      0x04\n      dup1\n      calldatasize\n      sub\n      dup2\n      add\n      swap1\n      tag_12\n      swap2\n      swap1\n      tag_13\n      jump\t// in\n    tag_12:\n      tag_14\n      jump\t// in\n    tag_11:\n      stop\n        /* \"solidity_test/test8.sol\":7926:8045  function getProposal(string memory _title) public view returns(Prop memory) {... */\n    tag_4:\n      tag_15\n      0x04\n      dup1\n      calldatasize\n      sub\n      dup2\n      add\n      swap1\n      tag_16\n      swap2\n      swap1\n      tag_17\n      jump\t// in\n    tag_16:\n      tag_18\n      jump\t// in\n    tag_15:\n      mload(0x40)\n      tag_19\n      swap2\n      swap1\n      tag_20\n      jump\t// in\n    tag_19:\n      mload(0x40)\n      dup1\n      swap2\n      sub\n      swap1\n      return\n        /* \"solidity_test/test8.sol\":6046:6520  function vote(string calldata _title, bool _isPro) public {... */\n    tag_5:\n      tag_21\n      0x04\n      dup1\n      calldatasize\n      sub\n      dup2\n      add\n      swap1\n      tag_22\n      swap2\n      swap1\n      tag_23\n      jump\t// in\n    tag_22:\n      tag_24\n      jump\t// in\n    tag_21:\n      stop\n        /* \"solidity_test/test8.sol\":7468:7920  function getMyProposals() public view returns(Prop[] memory) {... */\n    tag_6:\n      tag_25\n      tag_26\n      jump\t// in\n    tag_25:\n      mload(0x40)\n      tag_27\n      swap2\n      swap1\n      tag_28\n      jump\t// in\n    tag_27:\n      mload(0x40)\n      dup1\n      swap2\n      sub\n      swap1\n      return\n        /* \"solidity_test/test8.sol\":6774:7460  function setResult(string calldata _title) public {... */\n    tag_7:\n      tag_29\n      0x04\n      dup1\n      calldatasize\n      sub\n      dup2\n      add\n      swap1\n      tag_30\n      swap2\n      swap1\n      tag_31\n      jump\t// in\n    tag_30:\n      tag_32\n      jump\t// in\n    tag_29:\n      stop\n        /* \"solidity_test/test8.sol\":5388:5786  function signUp(string calldata _name) public {... */\n    tag_8:\n      tag_33\n      0x04\n      dup1\n      calldatasize\n      sub\n      dup2\n      add\n      swap1\n      tag_34\n      swap2\n      swap1\n      tag_31\n      jump\t// in\n    tag_34:\n      tag_35\n      jump\t// in\n    tag_33:\n      stop\n        /* \"solidity_test/test8.sol\":4827:4867  mapping(string => Prop) public proposals */\n    tag_9:\n      tag_36\n      0x04\n      dup1\n      calldatasize\n      sub\n      dup2\n      add\n      swap1\n      tag_37\n      swap2\n      swap1\n      tag_17\n      jump\t// in\n    tag_37:\n      tag_38\n      jump\t// in\n    tag_36:\n      mload(0x40)\n      tag_39\n      swap9\n      swap8\n      swap7\n      swap6\n      swap5\n      swap4\n      swap3\n      swap2\n      swap1\n      tag_40\n      jump\t// in\n    tag_39:\n      mload(0x40)\n      dup1\n      swap2\n      sub\n      swap1\n      return\n        /* \"solidity_test/test8.sol\":5794:6038  function propose(string calldata _title, string calldata _content) public {... */\n    tag_14:\n        /* \"solidity_test/test8.sol\":5899:5978  Prop(propCount++, _title, _content, msg.sender,0,0,status.ongoing,block.number) */\n      mload(0x40)\n      dup1\n      0x0100\n      add\n      0x40\n      mstore\n      dup1\n        /* \"solidity_test/test8.sol\":5904:5913  propCount */\n      0x01\n      0x00\n        /* \"solidity_test/test8.sol\":5904:5915  propCount++ */\n      dup2\n      sload\n      dup1\n      swap3\n      swap2\n      swap1\n      tag_42\n      swap1\n      tag_43\n      jump\t// in\n    tag_42:\n      swap2\n      swap1\n      pop\n      sstore\n        /* \"solidity_test/test8.sol\":5899:5978  Prop(propCount++, _title, _content, msg.sender,0,0,status.ongoing,block.number) */\n      dup2\n      mstore\n      0x20\n      add\n        /* \"solidity_test/test8.sol\":5917:5923  _title */\n      dup6\n      dup6\n        /* \"solidity_test/test8.sol\":5899:5978  Prop(propCount++, _title, _content, msg.sender,0,0,status.ongoing,block.number) */\n      dup1\n      dup1\n      0x1f\n      add\n      0x20\n      dup1\n      swap2\n      div\n      mul\n      0x20\n      add\n      mload(0x40)\n      swap1\n      dup2\n      add\n      0x40\n      mstore\n      dup1\n      swap4\n      swap3\n      swap2\n      swap1\n      dup2\n      dup2\n      mstore\n      0x20\n      add\n      dup4\n      dup4\n      dup1\n      dup3\n      dup5\n      calldatacopy\n      0x00\n      dup2\n      dup5\n      add\n      mstore\n      not(0x1f)\n      0x1f\n      dup3\n      add\n      and\n      swap1\n      pop\n      dup1\n      dup4\n      add\n      swap3\n      pop\n      pop\n      pop\n      pop\n      pop\n      pop\n      pop\n      dup2\n      mstore\n      0x20\n      add\n        /* \"solidity_test/test8.sol\":5925:5933  _content */\n      dup4\n      dup4\n        /* \"solidity_test/test8.sol\":5899:5978  Prop(propCount++, _title, _content, msg.sender,0,0,status.ongoing,block.number) */\n      dup1\n      dup1\n      0x1f\n      add\n      0x20\n      dup1\n      swap2\n      div\n      mul\n      0x20\n      add\n      mload(0x40)\n      swap1\n      dup2\n      add\n      0x40\n      mstore\n      dup1\n      swap4\n      swap3\n      swap2\n      swap1\n      dup2\n      dup2\n      mstore\n      0x20\n      add\n      dup4\n      dup4\n      dup1\n      dup3\n      dup5\n      calldatacopy\n      0x00\n      dup2\n      dup5\n      add\n      mstore\n      not(0x1f)\n      0x1f\n      dup3\n      add\n      and\n      swap1\n      pop\n      dup1\n      dup4\n      add\n      swap3\n      pop\n      pop\n      pop\n      pop\n      pop\n      pop\n      pop\n      dup2\n      mstore\n      0x20\n      add\n        /* \"solidity_test/test8.sol\":5935:5945  msg.sender */\n      caller\n        /* \"solidity_test/test8.sol\":5899:5978  Prop(propCount++, _title, _content, msg.sender,0,0,status.ongoing,block.number) */\n      0xffffffffffffffffffffffffffffffffffffffff\n      and\n      dup2\n      mstore\n      0x20\n      add\n        /* \"solidity_test/test8.sol\":5946:5947  0 */\n      0x00\n        /* \"solidity_test/test8.sol\":5899:5978  Prop(propCount++, _title, _content, msg.sender,0,0,status.ongoing,block.number) */\n      dup2\n      mstore\n      0x20\n      add\n        /* \"solidity_test/test8.sol\":5948:5949  0 */\n      0x00\n        /* \"solidity_test/test8.sol\":5899:5978  Prop(propCount++, _title, _content, msg.sender,0,0,status.ongoing,block.number) */\n      dup2\n      mstore\n      0x20\n      add\n        /* \"solidity_test/test8.sol\":5950:5964  status.ongoing */\n      0x00\n        /* \"solidity_test/test8.sol\":5899:5978  Prop(propCount++, _title, _content, msg.sender,0,0,status.ongoing,block.number) */\n      0x02\n      dup2\n      gt\n      iszero\n      tag_44\n      jumpi\n      tag_45\n      tag_46\n      jump\t// in\n    tag_45:\n    tag_44:\n      dup2\n      mstore\n      0x20\n      add\n        /* \"solidity_test/test8.sol\":5965:5977  block.number */\n      number\n        /* \"solidity_test/test8.sol\":5899:5978  Prop(propCount++, _title, _content, msg.sender,0,0,status.ongoing,block.number) */\n      dup2\n      mstore\n      pop\n        /* \"solidity_test/test8.sol\":5879:5888  proposals */\n      0x00\n        /* \"solidity_test/test8.sol\":5889:5895  _title */\n      dup6\n      dup6\n        /* \"solidity_test/test8.sol\":5879:5896  proposals[_title] */\n      mload(0x40)\n      tag_47\n      swap3\n      swap2\n      swap1\n      tag_48\n      jump\t// in\n    tag_47:\n      swap1\n      dup2\n      mstore\n      0x20\n      add\n      mload(0x40)\n      dup1\n      swap2\n      sub\n      swap1\n      keccak256\n        /* \"solidity_test/test8.sol\":5879:5978  proposals[_title] = Prop(propCount++, _title, _content, msg.sender,0,0,status.ongoing,block.number) */\n      0x00\n      dup3\n      add\n      mload\n      dup2\n      0x00\n      add\n      sstore\n      0x20\n      dup3\n      add\n      mload\n      dup2\n      0x01\n      add\n      swap1\n      dup2\n      tag_49\n      swap2\n      swap1\n      tag_50\n      jump\t// in\n    tag_49:\n      pop\n      0x40\n      dup3\n      add\n      mload\n      dup2\n      0x02\n      add\n      swap1\n      dup2\n      tag_51\n      swap2\n      swap1\n      tag_50\n      jump\t// in\n    tag_51:\n      pop\n      0x60\n      dup3\n      add\n      mload\n      dup2\n      0x03\n      add\n      exp(0x0100, 0x00)\n      dup2\n      sload\n      dup2\n      0xffffffffffffffffffffffffffffffffffffffff\n      mul\n      not\n      and\n      swap1\n      dup4\n      0xffffffffffffffffffffffffffffffffffffffff\n      and\n      mul\n      or\n      swap1\n      sstore\n      pop\n      0x80\n      dup3\n      add\n      mload\n      dup2\n      0x04\n      add\n      sstore\n      0xa0\n      dup3\n      add\n      mload\n      dup2\n      0x05\n      add\n      sstore\n      0xc0\n      dup3\n      add\n      mload\n      dup2\n      0x06\n      add\n      exp(0x0100, 0x00)\n      dup2\n      sload\n      dup2\n      0xff\n      mul\n      not\n      and\n      swap1\n      dup4\n      0x02\n      dup2\n      gt\n      iszero\n      tag_52\n      jumpi\n      tag_53\n      tag_46\n      jump\t// in\n    tag_53:\n    tag_52:\n      mul\n      or\n      swap1\n      sstore\n      pop\n      0xe0\n      dup3\n      add\n      mload\n      dup2\n      0x07\n      add\n      sstore\n      swap1\n      pop\n      pop\n        /* \"solidity_test/test8.sol\":5989:5994  users */\n      0x02\n        /* \"solidity_test/test8.sol\":5989:6006  users[msg.sender] */\n      0x00\n        /* \"solidity_test/test8.sol\":5995:6005  msg.sender */\n      caller\n        /* \"solidity_test/test8.sol\":5989:6006  users[msg.sender] */\n      0xffffffffffffffffffffffffffffffffffffffff\n      and\n      0xffffffffffffffffffffffffffffffffffffffff\n      and\n      dup2\n      mstore\n      0x20\n      add\n      swap1\n      dup2\n      mstore\n      0x20\n      add\n      0x00\n      keccak256\n        /* \"solidity_test/test8.sol\":5989:6017  users[msg.sender].proposalsA */\n      0x02\n      add\n        /* \"solidity_test/test8.sol\":6023:6029  _title */\n      dup5\n      dup5\n        /* \"solidity_test/test8.sol\":5989:6030  users[msg.sender].proposalsA.push(_title) */\n      swap1\n      swap2\n      dup1\n      0x01\n      dup2\n      sload\n      add\n      dup1\n      dup3\n      sstore\n      dup1\n      swap2\n      pop\n      pop\n      0x01\n      swap1\n      sub\n      swap1\n      0x00\n      mstore\n      keccak256(0x00, 0x20)\n      add\n      0x00\n      swap1\n      swap2\n      swap3\n      swap1\n      swap2\n      swap3\n      swap1\n      swap2\n      swap3\n      swap1\n      swap2\n      swap3\n      pop\n      swap2\n      dup3\n      tag_55\n      swap3\n      swap2\n      swap1\n      tag_56\n      jump\t// in\n    tag_55:\n      pop\n        /* \"solidity_test/test8.sol\":5794:6038  function propose(string calldata _title, string calldata _content) public {... */\n      pop\n      pop\n      pop\n      pop\n      jump\t// out\n        /* \"solidity_test/test8.sol\":7926:8045  function getProposal(string memory _title) public view returns(Prop memory) {... */\n    tag_18:\n        /* \"solidity_test/test8.sol\":7989:8000  Prop memory */\n      tag_57\n      tag_58\n      jump\t// in\n    tag_57:\n        /* \"solidity_test/test8.sol\":8020:8029  proposals */\n      0x00\n        /* \"solidity_test/test8.sol\":8030:8036  _title */\n      dup3\n        /* \"solidity_test/test8.sol\":8020:8037  proposals[_title] */\n      mload(0x40)\n      tag_60\n      swap2\n      swap1\n      tag_61\n      jump\t// in\n    tag_60:\n      swap1\n      dup2\n      mstore\n      0x20\n      add\n      mload(0x40)\n      dup1\n      swap2\n      sub\n      swap1\n      keccak256\n        /* \"solidity_test/test8.sol\":8013:8037  return proposals[_title] */\n      mload(0x40)\n      dup1\n      0x0100\n      add\n      0x40\n      mstore\n      swap1\n      dup2\n      0x00\n      dup3\n      add\n      sload\n      dup2\n      mstore\n      0x20\n      add\n      0x01\n      dup3\n      add\n      dup1\n      sload\n      tag_62\n      swap1\n      tag_63\n      jump\t// in\n    tag_62:\n      dup1\n      0x1f\n      add\n      0x20\n      dup1\n      swap2\n      div\n      mul\n      0x20\n      add\n      mload(0x40)\n      swap1\n      dup2\n      add\n      0x40\n      mstore\n      dup1\n      swap3\n      swap2\n      swap1\n      dup2\n      dup2\n      mstore\n      0x20\n      add\n      dup3\n      dup1\n      sload\n      tag_64\n      swap1\n      tag_63\n      jump\t// in\n    tag_64:\n      dup1\n      iszero\n      tag_65\n      jumpi\n      dup1\n      0x1f\n      lt\n      tag_66\n      jumpi\n      0x0100\n      dup1\n      dup4\n      sload\n      div\n      mul\n      dup4\n      mstore\n      swap2\n      0x20\n      add\n      swap2\n      jump(tag_65)\n    tag_66:\n      dup3\n      add\n      swap2\n      swap1\n      0x00\n      mstore\n      keccak256(0x00, 0x20)\n      swap1\n    tag_67:\n      dup2\n      sload\n      dup2\n      mstore\n      swap1\n      0x01\n      add\n      swap1\n      0x20\n      add\n      dup1\n      dup4\n      gt\n      tag_67\n      jumpi\n      dup3\n      swap1\n      sub\n      0x1f\n      and\n      dup3\n      add\n      swap2\n    tag_65:\n      pop\n      pop\n      pop\n      pop\n      pop\n      dup2\n      mstore\n      0x20\n      add\n      0x02\n      dup3\n      add\n      dup1\n      sload\n      tag_68\n      swap1\n      tag_63\n      jump\t// in\n    tag_68:\n      dup1\n      0x1f\n      add\n      0x20\n      dup1\n      swap2\n      div\n      mul\n      0x20\n      add\n      mload(0x40)\n      swap1\n      dup2\n      add\n      0x40\n      mstore\n      dup1\n      swap3\n      swap2\n      swap1\n      dup2\n      dup2\n      mstore\n      0x20\n      add\n      dup3\n      dup1\n      sload\n      tag_69\n      swap1\n      tag_63\n      jump\t// in\n    tag_69:\n      dup1\n      iszero\n      tag_70\n      jumpi\n      dup1\n      0x1f\n      lt\n      tag_71\n      jumpi\n      0x0100\n      dup1\n      dup4\n      sload\n      div\n      mul\n      dup4\n      mstore\n      swap2\n      0x20\n      add\n      swap2\n      jump(tag_70)\n    tag_71:\n      dup3\n      add\n      swap2\n      swap1\n      0x00\n      mstore\n      keccak256(0x00, 0x20)\n      swap1\n    tag_72:\n      dup2\n      sload\n      dup2\n      mstore\n      swap1\n      0x01\n      add\n      swap1\n      0x20\n      add\n      dup1\n      dup4\n      gt\n      tag_72\n      jumpi\n      dup3\n      swap1\n      sub\n      0x1f\n      and\n      dup3\n      add\n      swap2\n    tag_70:\n      pop\n      pop\n      pop\n      pop\n      pop\n      dup2\n      mstore\n      0x20\n      add\n      0x03\n      dup3\n      add\n      0x00\n      swap1\n      sload\n      swap1\n      0x0100\n      exp\n      swap1\n      div\n      0xffffffffffffffffffffffffffffffffffffffff\n      and\n      0xffffffffffffffffffffffffffffffffffffffff\n      and\n      0xffffffffffffffffffffffffffffffffffffffff\n      and\n      dup2\n      mstore\n      0x20\n      add\n      0x04\n      dup3\n      add\n      sload\n      dup2\n      mstore\n      0x20\n      add\n      0x05\n      dup3\n      add\n      sload\n      dup2\n      mstore\n      0x20\n      add\n      0x06\n      dup3\n      add\n      0x00\n      swap1\n      sload\n      swap1\n      0x0100\n      exp\n      swap1\n      div\n      0xff\n      and\n      0x02\n      dup2\n      gt\n      iszero\n      tag_73\n      jumpi\n      tag_74\n      tag_46\n      jump\t// in\n    tag_74:\n    tag_73:\n      0x02\n      dup2\n      gt\n      iszero\n      tag_75\n      jumpi\n      tag_76\n      tag_46\n      jump\t// in\n    tag_76:\n    tag_75:\n      dup2\n      mstore\n      0x20\n      add\n      0x07\n      dup3\n      add\n      sload\n      dup2\n      mstore\n      pop\n      pop\n      swap1\n      pop\n        /* \"solidity_test/test8.sol\":7926:8045  function getProposal(string memory _title) public view returns(Prop memory) {... */\n      swap2\n      swap1\n      pop\n      jump\t// out\n        /* \"solidity_test/test8.sol\":6046:6520  function vote(string calldata _title, bool _isPro) public {... */\n    tag_24:\n        /* \"solidity_test/test8.sol\":6157:6158  0 */\n      0x00\n        /* \"solidity_test/test8.sol\":6123:6159  users[msg.sender].addr != address(0) */\n      0xffffffffffffffffffffffffffffffffffffffff\n      and\n        /* \"solidity_test/test8.sol\":6123:6128  users */\n      0x02\n        /* \"solidity_test/test8.sol\":6123:6140  users[msg.sender] */\n      0x00\n        /* \"solidity_test/test8.sol\":6129:6139  msg.sender */\n      caller\n        /* \"solidity_test/test8.sol\":6123:6140  users[msg.sender] */\n      0xffffffffffffffffffffffffffffffffffffffff\n      and\n      0xffffffffffffffffffffffffffffffffffffffff\n      and\n      dup2\n      mstore\n      0x20\n      add\n      swap1\n      dup2\n      mstore\n      0x20\n      add\n      0x00\n      keccak256\n        /* \"solidity_test/test8.sol\":6123:6145  users[msg.sender].addr */\n      0x01\n      add\n      0x00\n      swap1\n      sload\n      swap1\n      0x0100\n      exp\n      swap1\n      div\n      0xffffffffffffffffffffffffffffffffffffffff\n      and\n        /* \"solidity_test/test8.sol\":6123:6159  users[msg.sender].addr != address(0) */\n      0xffffffffffffffffffffffffffffffffffffffff\n      and\n      sub\n        /* \"solidity_test/test8.sol\":6115:6160  require(users[msg.sender].addr != address(0)) */\n      tag_78\n      jumpi\n      0x00\n      dup1\n      revert\n    tag_78:\n        /* \"solidity_test/test8.sol\":6212:6217  false */\n      0x00\n        /* \"solidity_test/test8.sol\":6179:6217  users[msg.sender].voted[_title]==false */\n      iszero\n      iszero\n        /* \"solidity_test/test8.sol\":6179:6184  users */\n      0x02\n        /* \"solidity_test/test8.sol\":6179:6196  users[msg.sender] */\n      0x00\n        /* \"solidity_test/test8.sol\":6185:6195  msg.sender */\n      caller\n        /* \"solidity_test/test8.sol\":6179:6196  users[msg.sender] */\n      0xffffffffffffffffffffffffffffffffffffffff\n      and\n      0xffffffffffffffffffffffffffffffffffffffff\n      and\n      dup2\n      mstore\n      0x20\n      add\n      swap1\n      dup2\n      mstore\n      0x20\n      add\n      0x00\n      keccak256\n        /* \"solidity_test/test8.sol\":6179:6202  users[msg.sender].voted */\n      0x04\n      add\n        /* \"solidity_test/test8.sol\":6203:6209  _title */\n      dup5\n      dup5\n        /* \"solidity_test/test8.sol\":6179:6210  users[msg.sender].voted[_title] */\n      mload(0x40)\n      tag_79\n      swap3\n      swap2\n      swap1\n      tag_48\n      jump\t// in\n    tag_79:\n      swap1\n      dup2\n      mstore\n      0x20\n      add\n      mload(0x40)\n      dup1\n      swap2\n      sub\n      swap1\n      keccak256\n      0x00\n      swap1\n      sload\n      swap1\n      0x0100\n      exp\n      swap1\n      div\n      0xff\n      and\n        /* \"solidity_test/test8.sol\":6179:6217  users[msg.sender].voted[_title]==false */\n      iszero\n      iszero\n      eq\n        /* \"solidity_test/test8.sol\":6171:6218  require(users[msg.sender].voted[_title]==false) */\n      tag_80\n      jumpi\n      0x00\n      dup1\n      revert\n    tag_80:\n        /* \"solidity_test/test8.sol\":6283:6285  15 */\n      0x0f\n        /* \"solidity_test/test8.sol\":6253:6262  proposals */\n      0x00\n        /* \"solidity_test/test8.sol\":6263:6269  _title */\n      dup5\n      dup5\n        /* \"solidity_test/test8.sol\":6253:6270  proposals[_title] */\n      mload(0x40)\n      tag_81\n      swap3\n      swap2\n      swap1\n      tag_48\n      jump\t// in\n    tag_81:\n      swap1\n      dup2\n      mstore\n      0x20\n      add\n      mload(0x40)\n      dup1\n      swap2\n      sub\n      swap1\n      keccak256\n        /* \"solidity_test/test8.sol\":6253:6282  proposals[_title].blockNumber */\n      0x07\n      add\n      sload\n        /* \"solidity_test/test8.sol\":6253:6285  proposals[_title].blockNumber+15 */\n      tag_82\n      swap2\n      swap1\n      tag_83\n      jump\t// in\n    tag_82:\n        /* \"solidity_test/test8.sol\":6237:6249  block.number */\n      number\n        /* \"solidity_test/test8.sol\":6237:6285  block.number <= proposals[_title].blockNumber+15 */\n      gt\n      iszero\n        /* \"solidity_test/test8.sol\":6237:6328  block.number <= proposals[_title].blockNumber+15&&proposals[_title].result ==status.ongoing */\n      dup1\n      iszero\n      tag_84\n      jumpi\n      pop\n        /* \"solidity_test/test8.sol\":6314:6328  status.ongoing */\n      0x00\n        /* \"solidity_test/test8.sol\":6287:6328  proposals[_title].result ==status.ongoing */\n      0x02\n      dup2\n      gt\n      iszero\n      tag_85\n      jumpi\n      tag_86\n      tag_46\n      jump\t// in\n    tag_86:\n    tag_85:\n        /* \"solidity_test/test8.sol\":6287:6296  proposals */\n      0x00\n        /* \"solidity_test/test8.sol\":6297:6303  _title */\n      dup5\n      dup5\n        /* \"solidity_test/test8.sol\":6287:6304  proposals[_title] */\n      mload(0x40)\n      tag_87\n      swap3\n      swap2\n      swap1\n      tag_48\n      jump\t// in\n    tag_87:\n      swap1\n      dup2\n      mstore\n      0x20\n      add\n      mload(0x40)\n      dup1\n      swap2\n      sub\n      swap1\n      keccak256\n        /* \"solidity_test/test8.sol\":6287:6311  proposals[_title].result */\n      0x06\n      add\n      0x00\n      swap1\n      sload\n      swap1\n      0x0100\n      exp\n      swap1\n      div\n      0xff\n      and\n        /* \"solidity_test/test8.sol\":6287:6328  proposals[_title].result ==status.ongoing */\n      0x02\n      dup2\n      gt\n      iszero\n      tag_88\n      jumpi\n      tag_89\n      tag_46\n      jump\t// in\n    tag_89:\n    tag_88:\n      eq\n        /* \"solidity_test/test8.sol\":6237:6328  block.number <= proposals[_title].blockNumber+15&&proposals[_title].result ==status.ongoing */\n    tag_84:\n        /* \"solidity_test/test8.sol\":6229:6329  require(block.number <= proposals[_title].blockNumber+15&&proposals[_title].result ==status.ongoing) */\n      tag_90\n      jumpi\n      0x00\n      dup1\n      revert\n    tag_90:\n        /* \"solidity_test/test8.sol\":6350:6356  _isPro */\n      dup1\n        /* \"solidity_test/test8.sol\":6350:6410  _isPro ? proposals[_title].pros++ : proposals[_title].cons++ */\n      tag_91\n      jumpi\n        /* \"solidity_test/test8.sol\":6386:6395  proposals */\n      0x00\n        /* \"solidity_test/test8.sol\":6396:6402  _title */\n      dup4\n      dup4\n        /* \"solidity_test/test8.sol\":6386:6403  proposals[_title] */\n      mload(0x40)\n      tag_92\n      swap3\n      swap2\n      swap1\n      tag_48\n      jump\t// in\n    tag_92:\n      swap1\n      dup2\n      mstore\n      0x20\n      add\n      mload(0x40)\n      dup1\n      swap2\n      sub\n      swap1\n      keccak256\n        /* \"solidity_test/test8.sol\":6386:6408  proposals[_title].cons */\n      0x05\n      add\n      0x00\n        /* \"solidity_test/test8.sol\":6386:6410  proposals[_title].cons++ */\n      dup2\n      sload\n      dup1\n      swap3\n      swap2\n      swap1\n      tag_93\n      swap1\n      tag_43\n      jump\t// in\n    tag_93:\n      swap2\n      swap1\n      pop\n      sstore\n        /* \"solidity_test/test8.sol\":6350:6410  _isPro ? proposals[_title].pros++ : proposals[_title].cons++ */\n      jump(tag_94)\n    tag_91:\n        /* \"solidity_test/test8.sol\":6359:6368  proposals */\n      0x00\n        /* \"solidity_test/test8.sol\":6369:6375  _title */\n      dup4\n      dup4\n        /* \"solidity_test/test8.sol\":6359:6376  proposals[_title] */\n      mload(0x40)\n      tag_95\n      swap3\n      swap2\n      swap1\n      tag_48\n      jump\t// in\n    tag_95:\n      swap1\n      dup2\n      mstore\n      0x20\n      add\n      mload(0x40)\n      dup1\n      swap2\n      sub\n      swap1\n      keccak256\n        /* \"solidity_test/test8.sol\":6359:6381  proposals[_title].pros */\n      0x04\n      add\n      0x00\n        /* \"solidity_test/test8.sol\":6359:6383  proposals[_title].pros++ */\n      dup2\n      sload\n      dup1\n      swap3\n      swap2\n      swap1\n      tag_96\n      swap1\n      tag_43\n      jump\t// in\n    tag_96:\n      swap2\n      swap1\n      pop\n      sstore\n        /* \"solidity_test/test8.sol\":6350:6410  _isPro ? proposals[_title].pros++ : proposals[_title].cons++ */\n    tag_94:\n      pop\n        /* \"solidity_test/test8.sol\":6457:6463  _isPro */\n      dup1\n        /* \"solidity_test/test8.sol\":6423:6428  users */\n      0x02\n        /* \"solidity_test/test8.sol\":6423:6440  users[msg.sender] */\n      0x00\n        /* \"solidity_test/test8.sol\":6429:6439  msg.sender */\n      caller\n        /* \"solidity_test/test8.sol\":6423:6440  users[msg.sender] */\n      0xffffffffffffffffffffffffffffffffffffffff\n      and\n      0xffffffffffffffffffffffffffffffffffffffff\n      and\n      dup2\n      mstore\n      0x20\n      add\n      swap1\n      dup2\n      mstore\n      0x20\n      add\n      0x00\n      keccak256\n        /* \"solidity_test/test8.sol\":6423:6446  users[msg.sender].votes */\n      0x03\n      add\n        /* \"solidity_test/test8.sol\":6447:6453  _title */\n      dup5\n      dup5\n        /* \"solidity_test/test8.sol\":6423:6454  users[msg.sender].votes[_title] */\n      mload(0x40)\n      tag_97\n      swap3\n      swap2\n      swap1\n      tag_48\n      jump\t// in\n    tag_97:\n      swap1\n      dup2\n      mstore\n      0x20\n      add\n      mload(0x40)\n      dup1\n      swap2\n      sub\n      swap1\n      keccak256\n      0x00\n        /* \"solidity_test/test8.sol\":6423:6463  users[msg.sender].votes[_title] = _isPro */\n      0x0100\n      exp\n      dup2\n      sload\n      dup2\n      0xff\n      mul\n      not\n      and\n      swap1\n      dup4\n      iszero\n      iszero\n      mul\n      or\n      swap1\n      sstore\n      pop\n        /* \"solidity_test/test8.sol\":6508:6512  true */\n      0x01\n        /* \"solidity_test/test8.sol\":6474:6479  users */\n      0x02\n        /* \"solidity_test/test8.sol\":6474:6491  users[msg.sender] */\n      0x00\n        /* \"solidity_test/test8.sol\":6480:6490  msg.sender */\n      caller\n        /* \"solidity_test/test8.sol\":6474:6491  users[msg.sender] */\n      0xffffffffffffffffffffffffffffffffffffffff\n      and\n      0xffffffffffffffffffffffffffffffffffffffff\n      and\n      dup2\n      mstore\n      0x20\n      add\n      swap1\n      dup2\n      mstore\n      0x20\n      add\n      0x00\n      keccak256\n        /* \"solidity_test/test8.sol\":6474:6497  users[msg.sender].voted */\n      0x04\n      add\n        /* \"solidity_test/test8.sol\":6498:6504  _title */\n      dup5\n      dup5\n        /* \"solidity_test/test8.sol\":6474:6505  users[msg.sender].voted[_title] */\n      mload(0x40)\n      tag_98\n      swap3\n      swap2\n      swap1\n      tag_48\n      jump\t// in\n    tag_98:\n      swap1\n      dup2\n      mstore\n      0x20\n      add\n      mload(0x40)\n      dup1\n      swap2\n      sub\n      swap1\n      keccak256\n      0x00\n        /* \"solidity_test/test8.sol\":6474:6512  users[msg.sender].voted[_title] = true */\n      0x0100\n      exp\n      dup2\n      sload\n      dup2\n      0xff\n      mul\n      not\n      and\n      swap1\n      dup4\n      iszero\n      iszero\n      mul\n      or\n      swap1\n      sstore\n      pop\n        /* \"solidity_test/test8.sol\":6046:6520  function vote(string calldata _title, bool _isPro) public {... */\n      pop\n      pop\n      pop\n      jump\t// out\n        /* \"solidity_test/test8.sol\":7468:7920  function getMyProposals() public view returns(Prop[] memory) {... */\n    tag_26:\n        /* \"solidity_test/test8.sol\":7514:7527  Prop[] memory */\n      0x60\n        /* \"solidity_test/test8.sol\":7540:7566  string[] memory _proposals */\n      0x00\n        /* \"solidity_test/test8.sol\":7569:7574  users */\n      0x02\n        /* \"solidity_test/test8.sol\":7569:7586  users[msg.sender] */\n      0x00\n        /* \"solidity_test/test8.sol\":7575:7585  msg.sender */\n      caller\n        /* \"solidity_test/test8.sol\":7569:7586  users[msg.sender] */\n      0xffffffffffffffffffffffffffffffffffffffff\n      and\n      0xffffffffffffffffffffffffffffffffffffffff\n      and\n      dup2\n      mstore\n      0x20\n      add\n      swap1\n      dup2\n      mstore\n      0x20\n      add\n      0x00\n      keccak256\n        /* \"solidity_test/test8.sol\":7569:7597  users[msg.sender].proposalsA */\n      0x02\n      add\n        /* \"solidity_test/test8.sol\":7540:7597  string[] memory _proposals = users[msg.sender].proposalsA */\n      dup1\n      sload\n      dup1\n      0x20\n      mul\n      0x20\n      add\n      mload(0x40)\n      swap1\n      dup2\n      add\n      0x40\n      mstore\n      dup1\n      swap3\n      swap2\n      swap1\n      dup2\n      dup2\n      mstore\n      0x20\n      add\n      0x00\n      swap1\n    tag_100:\n      dup3\n      dup3\n      lt\n      iszero\n      tag_101\n      jumpi\n      dup4\n      dup3\n      swap1\n      0x00\n      mstore\n      keccak256(0x00, 0x20)\n      add\n      dup1\n      sload\n      tag_103\n      swap1\n      tag_63\n      jump\t// in\n    tag_103:\n      dup1\n      0x1f\n      add\n      0x20\n      dup1\n      swap2\n      div\n      mul\n      0x20\n      add\n      mload(0x40)\n      swap1\n      dup2\n      add\n      0x40\n      mstore\n      dup1\n      swap3\n      swap2\n      swap1\n      dup2\n      dup2\n      mstore\n      0x20\n      add\n      dup3\n      dup1\n      sload\n      tag_104\n      swap1\n      tag_63\n      jump\t// in\n    tag_104:\n      dup1\n      iszero\n      tag_105\n      jumpi\n      dup1\n      0x1f\n      lt\n      tag_106\n      jumpi\n      0x0100\n      dup1\n      dup4\n      sload\n      div\n      mul\n      dup4\n      mstore\n      swap2\n      0x20\n      add\n      swap2\n      jump(tag_105)\n    tag_106:\n      dup3\n      add\n      swap2\n      swap1\n      0x00\n      mstore\n      keccak256(0x00, 0x20)\n      swap1\n    tag_107:\n      dup2\n      sload\n      dup2\n      mstore\n      swap1\n      0x01\n      add\n      swap1\n      0x20\n      add\n      dup1\n      dup4\n      gt\n      tag_107\n      jumpi\n      dup3\n      swap1\n      sub\n      0x1f\n      and\n      dup3\n      add\n      swap2\n    tag_105:\n      pop\n      pop\n      pop\n      pop\n      pop\n      dup2\n      mstore\n      0x20\n      add\n      swap1\n      0x01\n      add\n      swap1\n      jump(tag_100)\n    tag_101:\n      pop\n      pop\n      pop\n      pop\n      swap1\n      pop\n        /* \"solidity_test/test8.sol\":7643:7660  Prop[] memory res */\n      0x00\n        /* \"solidity_test/test8.sol\":7674:7684  _proposals */\n      dup2\n        /* \"solidity_test/test8.sol\":7674:7691  _proposals.length */\n      mload\n        /* \"solidity_test/test8.sol\":7663:7692  new Prop[](_proposals.length) */\n      0xffffffffffffffff\n      dup2\n      gt\n      iszero\n      tag_108\n      jumpi\n      tag_109\n      tag_110\n      jump\t// in\n    tag_109:\n    tag_108:\n      mload(0x40)\n      swap1\n      dup1\n      dup3\n      mstore\n      dup1\n      0x20\n      mul\n      0x20\n      add\n      dup3\n      add\n      0x40\n      mstore\n      dup1\n      iszero\n      tag_111\n      jumpi\n      dup2\n      0x20\n      add\n    tag_112:\n      tag_113\n      tag_58\n      jump\t// in\n    tag_113:\n      dup2\n      mstore\n      0x20\n      add\n      swap1\n      0x01\n      swap1\n      sub\n      swap1\n      dup2\n      tag_112\n      jumpi\n      swap1\n      pop\n    tag_111:\n      pop\n        /* \"solidity_test/test8.sol\":7643:7692  Prop[] memory res = new Prop[](_proposals.length) */\n      swap1\n      pop\n        /* \"solidity_test/test8.sol\":7710:7716  uint i */\n      0x00\n        /* \"solidity_test/test8.sol\":7706:7892  for(uint i=0; i<_proposals.length;i++) {... */\n    tag_114:\n        /* \"solidity_test/test8.sol\":7722:7732  _proposals */\n      dup3\n        /* \"solidity_test/test8.sol\":7722:7739  _proposals.length */\n      mload\n        /* \"solidity_test/test8.sol\":7720:7721  i */\n      dup2\n        /* \"solidity_test/test8.sol\":7720:7739  i<_proposals.length */\n      lt\n        /* \"solidity_test/test8.sol\":7706:7892  for(uint i=0; i<_proposals.length;i++) {... */\n      iszero\n      tag_115\n      jumpi\n        /* \"solidity_test/test8.sol\":7769:7778  proposals */\n      0x00\n        /* \"solidity_test/test8.sol\":7779:7789  _proposals */\n      dup4\n        /* \"solidity_test/test8.sol\":7790:7791  i */\n      dup3\n        /* \"solidity_test/test8.sol\":7779:7792  _proposals[i] */\n      dup2\n      mload\n      dup2\n      lt\n      tag_117\n      jumpi\n      tag_118\n      tag_119\n      jump\t// in\n    tag_118:\n    tag_117:\n      0x20\n      mul\n      0x20\n      add\n      add\n      mload\n        /* \"solidity_test/test8.sol\":7769:7793  proposals[_proposals[i]] */\n      mload(0x40)\n      tag_120\n      swap2\n      swap1\n      tag_61\n      jump\t// in\n    tag_120:\n      swap1\n      dup2\n      mstore\n      0x20\n      add\n      mload(0x40)\n      dup1\n      swap2\n      sub\n      swap1\n      keccak256\n        /* \"solidity_test/test8.sol\":7760:7793  res[i] = proposals[_proposals[i]] */\n      mload(0x40)\n      dup1\n      0x0100\n      add\n      0x40\n      mstore\n      swap1\n      dup2\n      0x00\n      dup3\n      add\n      sload\n      dup2\n      mstore\n      0x20\n      add\n      0x01\n      dup3\n      add\n      dup1\n      sload\n      tag_121\n      swap1\n      tag_63\n      jump\t// in\n    tag_121:\n      dup1\n      0x1f\n      add\n      0x20\n      dup1\n      swap2\n      div\n      mul\n      0x20\n      add\n      mload(0x40)\n      swap1\n      dup2\n      add\n      0x40\n      mstore\n      dup1\n      swap3\n      swap2\n      swap1\n      dup2\n      dup2\n      mstore\n      0x20\n      add\n      dup3\n      dup1\n      sload\n      tag_122\n      swap1\n      tag_63\n      jump\t// in\n    tag_122:\n      dup1\n      iszero\n      tag_123\n      jumpi\n      dup1\n      0x1f\n      lt\n      tag_124\n      jumpi\n      0x0100\n      dup1\n      dup4\n      sload\n      div\n      mul\n      dup4\n      mstore\n      swap2\n      0x20\n      add\n      swap2\n      jump(tag_123)\n    tag_124:\n      dup3\n      add\n      swap2\n      swap1\n      0x00\n      mstore\n      keccak256(0x00, 0x20)\n      swap1\n    tag_125:\n      dup2\n      sload\n      dup2\n      mstore\n      swap1\n      0x01\n      add\n      swap1\n      0x20\n      add\n      dup1\n      dup4\n      gt\n      tag_125\n      jumpi\n      dup3\n      swap1\n      sub\n      0x1f\n      and\n      dup3\n      add\n      swap2\n    tag_123:\n      pop\n      pop\n      pop\n      pop\n      pop\n      dup2\n      mstore\n      0x20\n      add\n      0x02\n      dup3\n      add\n      dup1\n      sload\n      tag_126\n      swap1\n      tag_63\n      jump\t// in\n    tag_126:\n      dup1\n      0x1f\n      add\n      0x20\n      dup1\n      swap2\n      div\n      mul\n      0x20\n      add\n      mload(0x40)\n      swap1\n      dup2\n      add\n      0x40\n      mstore\n      dup1\n      swap3\n      swap2\n      swap1\n      dup2\n      dup2\n      mstore\n      0x20\n      add\n      dup3\n      dup1\n      sload\n      tag_127\n      swap1\n      tag_63\n      jump\t// in\n    tag_127:\n      dup1\n      iszero\n      tag_128\n      jumpi\n      dup1\n      0x1f\n      lt\n      tag_129\n      jumpi\n      0x0100\n      dup1\n      dup4\n      sload\n      div\n      mul\n      dup4\n      mstore\n      swap2\n      0x20\n      add\n      swap2\n      jump(tag_128)\n    tag_129:\n      dup3\n      add\n      swap2\n      swap1\n      0x00\n      mstore\n      keccak256(0x00, 0x20)\n      swap1\n    tag_130:\n      dup2\n      sload\n      dup2\n      mstore\n      swap1\n      0x01\n      add\n      swap1\n      0x20\n      add\n      dup1\n      dup4\n      gt\n      tag_130\n      jumpi\n      dup3\n      swap1\n      sub\n      0x1f\n      and\n      dup3\n      add\n      swap2\n    tag_128:\n      pop\n      pop\n      pop\n      pop\n      pop\n      dup2\n      mstore\n      0x20\n      add\n      0x03\n      dup3\n      add\n      0x00\n      swap1\n      sload\n      swap1\n      0x0100\n      exp\n      swap1\n      div\n      0xffffffffffffffffffffffffffffffffffffffff\n      and\n      0xffffffffffffffffffffffffffffffffffffffff\n      and\n      0xffffffffffffffffffffffffffffffffffffffff\n      and\n      dup2\n      mstore\n      0x20\n      add\n      0x04\n      dup3\n      add\n      sload\n      dup2\n      mstore\n      0x20\n      add\n      0x05\n      dup3\n      add\n      sload\n      dup2\n      mstore\n      0x20\n      add\n      0x06\n      dup3\n      add\n      0x00\n      swap1\n      sload\n      swap1\n      0x0100\n      exp\n      swap1\n      div\n      0xff\n      and\n      0x02\n      dup2\n      gt\n      iszero\n      tag_131\n      jumpi\n      tag_132\n      tag_46\n      jump\t// in\n    tag_132:\n    tag_131:\n      0x02\n      dup2\n      gt\n      iszero\n      tag_133\n      jumpi\n      tag_134\n      tag_46\n      jump\t// in\n    tag_134:\n    tag_133:\n      dup2\n      mstore\n      0x20\n      add\n      0x07\n      dup3\n      add\n      sload\n      dup2\n      mstore\n      pop\n      pop\n        /* \"solidity_test/test8.sol\":7760:7763  res */\n      dup3\n        /* \"solidity_test/test8.sol\":7764:7765  i */\n      dup3\n        /* \"solidity_test/test8.sol\":7760:7766  res[i] */\n      dup2\n      mload\n      dup2\n      lt\n      tag_135\n      jumpi\n      tag_136\n      tag_119\n      jump\t// in\n    tag_136:\n    tag_135:\n      0x20\n      mul\n      0x20\n      add\n      add\n        /* \"solidity_test/test8.sol\":7760:7793  res[i] = proposals[_proposals[i]] */\n      dup2\n      swap1\n      mstore\n      pop\n        /* \"solidity_test/test8.sol\":7740:7743  i++ */\n      dup1\n      dup1\n      0x01\n      add\n      swap2\n      pop\n      pop\n        /* \"solidity_test/test8.sol\":7706:7892  for(uint i=0; i<_proposals.length;i++) {... */\n      jump(tag_114)\n    tag_115:\n      pop\n        /* \"solidity_test/test8.sol\":7909:7912  res */\n      dup1\n        /* \"solidity_test/test8.sol\":7902:7912  return res */\n      swap3\n      pop\n      pop\n      pop\n        /* \"solidity_test/test8.sol\":7468:7920  function getMyProposals() public view returns(Prop[] memory) {... */\n      swap1\n      jump\t// out\n        /* \"solidity_test/test8.sol\":6774:7460  function setResult(string calldata _title) public {... */\n    tag_32:\n        /* \"solidity_test/test8.sol\":6880:6892  block.number */\n      number\n        /* \"solidity_test/test8.sol\":6875:6877  15 */\n      0x0f\n        /* \"solidity_test/test8.sol\":6843:6852  proposals */\n      0x00\n        /* \"solidity_test/test8.sol\":6853:6859  _title */\n      dup5\n      dup5\n        /* \"solidity_test/test8.sol\":6843:6860  proposals[_title] */\n      mload(0x40)\n      tag_138\n      swap3\n      swap2\n      swap1\n      tag_48\n      jump\t// in\n    tag_138:\n      swap1\n      dup2\n      mstore\n      0x20\n      add\n      mload(0x40)\n      dup1\n      swap2\n      sub\n      swap1\n      keccak256\n        /* \"solidity_test/test8.sol\":6843:6872  proposals[_title].blockNumber */\n      0x07\n      add\n      sload\n        /* \"solidity_test/test8.sol\":6843:6877  proposals[_title].blockNumber + 15 */\n      tag_139\n      swap2\n      swap1\n      tag_83\n      jump\t// in\n    tag_139:\n        /* \"solidity_test/test8.sol\":6843:6892  proposals[_title].blockNumber + 15 < block.number */\n      lt\n        /* \"solidity_test/test8.sol\":6835:6893  require(proposals[_title].blockNumber + 15 < block.number) */\n      tag_140\n      jumpi\n      0x00\n      dup1\n      revert\n    tag_140:\n        /* \"solidity_test/test8.sol\":6904:6913  uint part */\n      0x00\n        /* \"solidity_test/test8.sol\":6941:6950  proposals */\n      dup1\n        /* \"solidity_test/test8.sol\":6951:6957  _title */\n      dup4\n      dup4\n        /* \"solidity_test/test8.sol\":6941:6958  proposals[_title] */\n      mload(0x40)\n      tag_141\n      swap3\n      swap2\n      swap1\n      tag_48\n      jump\t// in\n    tag_141:\n      swap1\n      dup2\n      mstore\n      0x20\n      add\n      mload(0x40)\n      dup1\n      swap2\n      sub\n      swap1\n      keccak256\n        /* \"solidity_test/test8.sol\":6941:6963  proposals[_title].cons */\n      0x05\n      add\n      sload\n        /* \"solidity_test/test8.sol\":6916:6925  proposals */\n      0x00\n        /* \"solidity_test/test8.sol\":6926:6932  _title */\n      dup5\n      dup5\n        /* \"solidity_test/test8.sol\":6916:6933  proposals[_title] */\n      mload(0x40)\n      tag_142\n      swap3\n      swap2\n      swap1\n      tag_48\n      jump\t// in\n    tag_142:\n      swap1\n      dup2\n      mstore\n      0x20\n      add\n      mload(0x40)\n      dup1\n      swap2\n      sub\n      swap1\n      keccak256\n        /* \"solidity_test/test8.sol\":6916:6938  proposals[_title].pros */\n      0x04\n      add\n      sload\n        /* \"solidity_test/test8.sol\":6916:6963  proposals[_title].pros + proposals[_title].cons */\n      tag_143\n      swap2\n      swap1\n      tag_83\n      jump\t// in\n    tag_143:\n        /* \"solidity_test/test8.sol\":6904:6963  uint part = proposals[_title].pros + proposals[_title].cons */\n      swap1\n      pop\n        /* \"solidity_test/test8.sol\":7001:7004  100 */\n      0x64\n        /* \"solidity_test/test8.sol\":6997:6999  70 */\n      0x46\n        /* \"solidity_test/test8.sol\":6985:6994  userCount */\n      sload(0x03)\n        /* \"solidity_test/test8.sol\":6985:6999  userCount * 70 */\n      tag_144\n      swap2\n      swap1\n      tag_145\n      jump\t// in\n    tag_144:\n        /* \"solidity_test/test8.sol\":6985:7004  userCount * 70 /100 */\n      tag_146\n      swap2\n      swap1\n      tag_147\n      jump\t// in\n    tag_146:\n        /* \"solidity_test/test8.sol\":6977:6981  part */\n      dup2\n        /* \"solidity_test/test8.sol\":6977:7004  part >= userCount * 70 /100 */\n      lt\n      iszero\n        /* \"solidity_test/test8.sol\":6977:7048  part >= userCount * 70 /100 && proposals[_title].pros >= part * 66 /100 */\n      dup1\n      iszero\n      tag_148\n      jumpi\n      pop\n        /* \"solidity_test/test8.sol\":7045:7048  100 */\n      0x64\n        /* \"solidity_test/test8.sol\":7041:7043  66 */\n      0x42\n        /* \"solidity_test/test8.sol\":7034:7038  part */\n      dup3\n        /* \"solidity_test/test8.sol\":7034:7043  part * 66 */\n      tag_149\n      swap2\n      swap1\n      tag_145\n      jump\t// in\n    tag_149:\n        /* \"solidity_test/test8.sol\":7034:7048  part * 66 /100 */\n      tag_150\n      swap2\n      swap1\n      tag_147\n      jump\t// in\n    tag_150:\n        /* \"solidity_test/test8.sol\":7008:7017  proposals */\n      0x00\n        /* \"solidity_test/test8.sol\":7018:7024  _title */\n      dup5\n      dup5\n        /* \"solidity_test/test8.sol\":7008:7025  proposals[_title] */\n      mload(0x40)\n      tag_151\n      swap3\n      swap2\n      swap1\n      tag_48\n      jump\t// in\n    tag_151:\n      swap1\n      dup2\n      mstore\n      0x20\n      add\n      mload(0x40)\n      dup1\n      swap2\n      sub\n      swap1\n      keccak256\n        /* \"solidity_test/test8.sol\":7008:7030  proposals[_title].pros */\n      0x04\n      add\n      sload\n        /* \"solidity_test/test8.sol\":7008:7048  proposals[_title].pros >= part * 66 /100 */\n      lt\n      iszero\n        /* \"solidity_test/test8.sol\":6977:7048  part >= userCount * 70 /100 && proposals[_title].pros >= part * 66 /100 */\n    tag_148:\n        /* \"solidity_test/test8.sol\":6974:7190  if(part >= userCount * 70 /100 && proposals[_title].pros >= part * 66 /100) {... */\n      iszero\n      tag_152\n      jumpi\n        /* \"solidity_test/test8.sol\":7092:7105  status.passed */\n      0x01\n        /* \"solidity_test/test8.sol\":7065:7074  proposals */\n      0x00\n        /* \"solidity_test/test8.sol\":7075:7081  _title */\n      dup5\n      dup5\n        /* \"solidity_test/test8.sol\":7065:7082  proposals[_title] */\n      mload(0x40)\n      tag_153\n      swap3\n      swap2\n      swap1\n      tag_48\n      jump\t// in\n    tag_153:\n      swap1\n      dup2\n      mstore\n      0x20\n      add\n      mload(0x40)\n      dup1\n      swap2\n      sub\n      swap1\n      keccak256\n        /* \"solidity_test/test8.sol\":7065:7089  proposals[_title].result */\n      0x06\n      add\n      0x00\n        /* \"solidity_test/test8.sol\":7065:7105  proposals[_title].result = status.passed */\n      0x0100\n      exp\n      dup2\n      sload\n      dup2\n      0xff\n      mul\n      not\n      and\n      swap1\n      dup4\n      0x02\n      dup2\n      gt\n      iszero\n      tag_154\n      jumpi\n      tag_155\n      tag_46\n      jump\t// in\n    tag_155:\n    tag_154:\n      mul\n      or\n      swap1\n      sstore\n      pop\n        /* \"solidity_test/test8.sol\":6974:7190  if(part >= userCount * 70 /100 && proposals[_title].pros >= part * 66 /100) {... */\n      jump(tag_156)\n    tag_152:\n        /* \"solidity_test/test8.sol\":7165:7178  status.failed */\n      0x02\n        /* \"solidity_test/test8.sol\":7138:7147  proposals */\n      0x00\n        /* \"solidity_test/test8.sol\":7148:7154  _title */\n      dup5\n      dup5\n        /* \"solidity_test/test8.sol\":7138:7155  proposals[_title] */\n      mload(0x40)\n      tag_157\n      swap3\n      swap2\n      swap1\n      tag_48\n      jump\t// in\n    tag_157:\n      swap1\n      dup2\n      mstore\n      0x20\n      add\n      mload(0x40)\n      dup1\n      swap2\n      sub\n      swap1\n      keccak256\n        /* \"solidity_test/test8.sol\":7138:7162  proposals[_title].result */\n      0x06\n      add\n      0x00\n        /* \"solidity_test/test8.sol\":7138:7178  proposals[_title].result = status.failed */\n      0x0100\n      exp\n      dup2\n      sload\n      dup2\n      0xff\n      mul\n      not\n      and\n      swap1\n      dup4\n      0x02\n      dup2\n      gt\n      iszero\n      tag_158\n      jumpi\n      tag_159\n      tag_46\n      jump\t// in\n    tag_159:\n    tag_158:\n      mul\n      or\n      swap1\n      sstore\n      pop\n        /* \"solidity_test/test8.sol\":6974:7190  if(part >= userCount * 70 /100 && proposals[_title].pros >= part * 66 /100) {... */\n    tag_156:\n        /* \"solidity_test/test8.sol\":6824:7460  {... */\n      pop\n        /* \"solidity_test/test8.sol\":6774:7460  function setResult(string calldata _title) public {... */\n      pop\n      pop\n      jump\t// out\n        /* \"solidity_test/test8.sol\":5388:5786  function signUp(string calldata _name) public {... */\n    tag_35:\n        /* \"solidity_test/test8.sol\":5487:5488  0 */\n      0x00\n        /* \"solidity_test/test8.sol\":5453:5489  users[msg.sender].addr == address(0) */\n      0xffffffffffffffffffffffffffffffffffffffff\n      and\n        /* \"solidity_test/test8.sol\":5453:5458  users */\n      0x02\n        /* \"solidity_test/test8.sol\":5453:5470  users[msg.sender] */\n      0x00\n        /* \"solidity_test/test8.sol\":5459:5469  msg.sender */\n      caller\n        /* \"solidity_test/test8.sol\":5453:5470  users[msg.sender] */\n      0xffffffffffffffffffffffffffffffffffffffff\n      and\n      0xffffffffffffffffffffffffffffffffffffffff\n      and\n      dup2\n      mstore\n      0x20\n      add\n      swap1\n      dup2\n      mstore\n      0x20\n      add\n      0x00\n      keccak256\n        /* \"solidity_test/test8.sol\":5453:5475  users[msg.sender].addr */\n      0x01\n      add\n      0x00\n      swap1\n      sload\n      swap1\n      0x0100\n      exp\n      swap1\n      div\n      0xffffffffffffffffffffffffffffffffffffffff\n      and\n        /* \"solidity_test/test8.sol\":5453:5489  users[msg.sender].addr == address(0) */\n      0xffffffffffffffffffffffffffffffffffffffff\n      and\n      eq\n        /* \"solidity_test/test8.sol\":5445:5490  require(users[msg.sender].addr == address(0)) */\n      tag_161\n      jumpi\n      0x00\n      dup1\n      revert\n    tag_161:\n        /* \"solidity_test/test8.sol\":5563:5568  _name */\n      dup2\n      dup2\n        /* \"solidity_test/test8.sol\":5538:5543  users */\n      0x02\n        /* \"solidity_test/test8.sol\":5538:5555  users[msg.sender] */\n      0x00\n        /* \"solidity_test/test8.sol\":5544:5554  msg.sender */\n      caller\n        /* \"solidity_test/test8.sol\":5538:5555  users[msg.sender] */\n      0xffffffffffffffffffffffffffffffffffffffff\n      and\n      0xffffffffffffffffffffffffffffffffffffffff\n      and\n      dup2\n      mstore\n      0x20\n      add\n      swap1\n      dup2\n      mstore\n      0x20\n      add\n      0x00\n      keccak256\n        /* \"solidity_test/test8.sol\":5538:5560  users[msg.sender].name */\n      0x00\n      add\n        /* \"solidity_test/test8.sol\":5538:5568  users[msg.sender].name = _name */\n      swap2\n      dup3\n      tag_162\n      swap3\n      swap2\n      swap1\n      tag_56\n      jump\t// in\n    tag_162:\n      pop\n        /* \"solidity_test/test8.sol\":5604:5614  msg.sender */\n      caller\n        /* \"solidity_test/test8.sol\":5579:5584  users */\n      0x02\n        /* \"solidity_test/test8.sol\":5579:5596  users[msg.sender] */\n      0x00\n        /* \"solidity_test/test8.sol\":5585:5595  msg.sender */\n      caller\n        /* \"solidity_test/test8.sol\":5579:5596  users[msg.sender] */\n      0xffffffffffffffffffffffffffffffffffffffff\n      and\n      0xffffffffffffffffffffffffffffffffffffffff\n      and\n      dup2\n      mstore\n      0x20\n      add\n      swap1\n      dup2\n      mstore\n      0x20\n      add\n      0x00\n      keccak256\n        /* \"solidity_test/test8.sol\":5579:5601  users[msg.sender].addr */\n      0x01\n      add\n      0x00\n        /* \"solidity_test/test8.sol\":5579:5614  users[msg.sender].addr = msg.sender */\n      0x0100\n      exp\n      dup2\n      sload\n      dup2\n      0xffffffffffffffffffffffffffffffffffffffff\n      mul\n      not\n      and\n      swap1\n      dup4\n      0xffffffffffffffffffffffffffffffffffffffff\n      and\n      mul\n      or\n      swap1\n      sstore\n      pop\n        /* \"solidity_test/test8.sol\":5625:5634  userCount */\n      0x03\n      0x00\n        /* \"solidity_test/test8.sol\":5625:5636  userCount++ */\n      dup2\n      sload\n      dup1\n      swap3\n      swap2\n      swap1\n      tag_163\n      swap1\n      tag_43\n      jump\t// in\n    tag_163:\n      swap2\n      swap1\n      pop\n      sstore\n      pop\n        /* \"solidity_test/test8.sol\":5388:5786  function signUp(string calldata _name) public {... */\n      pop\n      pop\n      jump\t// out\n        /* \"solidity_test/test8.sol\":4827:4867  mapping(string => Prop) public proposals */\n    tag_38:\n      0x00\n      dup2\n      dup1\n      mload\n      0x20\n      dup2\n      add\n      dup3\n      add\n      dup1\n      mload\n      dup5\n      dup3\n      mstore\n      0x20\n      dup4\n      add\n      0x20\n      dup6\n      add\n      keccak256\n      dup2\n      dup4\n      mstore\n      dup1\n      swap6\n      pop\n      pop\n      pop\n      pop\n      pop\n      pop\n      0x00\n      swap2\n      pop\n      swap1\n      pop\n      dup1\n      0x00\n      add\n      sload\n      swap1\n      dup1\n      0x01\n      add\n      dup1\n      sload\n      tag_164\n      swap1\n      tag_63\n      jump\t// in\n    tag_164:\n      dup1\n      0x1f\n      add\n      0x20\n      dup1\n      swap2\n      div\n      mul\n      0x20\n      add\n      mload(0x40)\n      swap1\n      dup2\n      add\n      0x40\n      mstore\n      dup1\n      swap3\n      swap2\n      swap1\n      dup2\n      dup2\n      mstore\n      0x20\n      add\n      dup3\n      dup1\n      sload\n      tag_165\n      swap1\n      tag_63\n      jump\t// in\n    tag_165:\n      dup1\n      iszero\n      tag_166\n      jumpi\n      dup1\n      0x1f\n      lt\n      tag_167\n      jumpi\n      0x0100\n      dup1\n      dup4\n      sload\n      div\n      mul\n      dup4\n      mstore\n      swap2\n      0x20\n      add\n      swap2\n      jump(tag_166)\n    tag_167:\n      dup3\n      add\n      swap2\n      swap1\n      0x00\n      mstore\n      keccak256(0x00, 0x20)\n      swap1\n    tag_168:\n      dup2\n      sload\n      dup2\n      mstore\n      swap1\n      0x01\n      add\n      swap1\n      0x20\n      add\n      dup1\n      dup4\n      gt\n      tag_168\n      jumpi\n      dup3\n      swap1\n      sub\n      0x1f\n      and\n      dup3\n      add\n      swap2\n    tag_166:\n      pop\n      pop\n      pop\n      pop\n      pop\n      swap1\n      dup1\n      0x02\n      add\n      dup1\n      sload\n      tag_169\n      swap1\n      tag_63\n      jump\t// in\n    tag_169:\n      dup1\n      0x1f\n      add\n      0x20\n      dup1\n      swap2\n      div\n      mul\n      0x20\n      add\n      mload(0x40)\n      swap1\n      dup2\n      add\n      0x40\n      mstore\n      dup1\n      swap3\n      swap2\n      swap1\n      dup2\n      dup2\n      mstore\n      0x20\n      add\n      dup3\n      dup1\n      sload\n      tag_170\n      swap1\n      tag_63\n      jump\t// in\n    tag_170:\n      dup1\n      iszero\n      tag_171\n      jumpi\n      dup1\n      0x1f\n      lt\n      tag_172\n      jumpi\n      0x0100\n      dup1\n      dup4\n      sload\n      div\n      mul\n      dup4\n      mstore\n      swap2\n      0x20\n      add\n      swap2\n      jump(tag_171)\n    tag_172:\n      dup3\n      add\n      swap2\n      swap1\n      0x00\n      mstore\n      keccak256(0x00, 0x20)\n      swap1\n    tag_173:\n      dup2\n      sload\n      dup2\n      mstore\n      swap1\n      0x01\n      add\n      swap1\n      0x20\n      add\n      dup1\n      dup4\n      gt\n      tag_173\n      jumpi\n      dup3\n      swap1\n      sub\n      0x1f\n      and\n      dup3\n      add\n      swap2\n    tag_171:\n      pop\n      pop\n      pop\n      pop\n      pop\n      swap1\n      dup1\n      0x03\n      add\n      0x00\n      swap1\n      sload\n      swap1\n      0x0100\n      exp\n      swap1\n      div\n      0xffffffffffffffffffffffffffffffffffffffff\n      and\n      swap1\n      dup1\n      0x04\n      add\n      sload\n      swap1\n      dup1\n      0x05\n      add\n      sload\n      swap1\n      dup1\n      0x06\n      add\n      0x00\n      swap1\n      sload\n      swap1\n      0x0100\n      exp\n      swap1\n      div\n      0xff\n      and\n      swap1\n      dup1\n      0x07\n      add\n      sload\n      swap1\n      pop\n      dup9\n      jump\t// out\n    tag_58:\n      mload(0x40)\n      dup1\n      0x0100\n      add\n      0x40\n      mstore\n      dup1\n      0x00\n      dup2\n      mstore\n      0x20\n      add\n      0x60\n      dup2\n      mstore\n      0x20\n      add\n      0x60\n      dup2\n      mstore\n      0x20\n      add\n      and(0xffffffffffffffffffffffffffffffffffffffff, 0x00)\n      dup2\n      mstore\n      0x20\n      add\n      0x00\n      dup2\n      mstore\n      0x20\n      add\n      0x00\n      dup2\n      mstore\n      0x20\n      add\n      0x00\n      0x02\n      dup2\n      gt\n      iszero\n      tag_174\n      jumpi\n      tag_175\n      tag_46\n      jump\t// in\n    tag_175:\n    tag_174:\n      dup2\n      mstore\n      0x20\n      add\n      0x00\n      dup2\n      mstore\n      pop\n      swap1\n      jump\t// out\n        /* \"#utility.yul\":7:82   */\n    tag_176:\n        /* \"#utility.yul\":40:46   */\n      0x00\n        /* \"#utility.yul\":73:75   */\n      0x40\n        /* \"#utility.yul\":67:76   */\n      mload\n        /* \"#utility.yul\":57:76   */\n      swap1\n      pop\n        /* \"#utility.yul\":7:82   */\n      swap1\n      jump\t// out\n        /* \"#utility.yul\":88:205   */\n    tag_177:\n        /* \"#utility.yul\":197:198   */\n      0x00\n        /* \"#utility.yul\":194:195   */\n      dup1\n        /* \"#utility.yul\":187:199   */\n      revert\n        /* \"#utility.yul\":211:328   */\n    tag_178:\n        /* \"#utility.yul\":320:321   */\n      0x00\n        /* \"#utility.yul\":317:318   */\n      dup1\n        /* \"#utility.yul\":310:322   */\n      revert\n        /* \"#utility.yul\":334:451   */\n    tag_179:\n        /* \"#utility.yul\":443:444   */\n      0x00\n        /* \"#utility.yul\":440:441   */\n      dup1\n        /* \"#utility.yul\":433:445   */\n      revert\n        /* \"#utility.yul\":457:574   */\n    tag_180:\n        /* \"#utility.yul\":566:567   */\n      0x00\n        /* \"#utility.yul\":563:564   */\n      dup1\n        /* \"#utility.yul\":556:568   */\n      revert\n        /* \"#utility.yul\":580:697   */\n    tag_181:\n        /* \"#utility.yul\":689:690   */\n      0x00\n        /* \"#utility.yul\":686:687   */\n      dup1\n        /* \"#utility.yul\":679:691   */\n      revert\n        /* \"#utility.yul\":717:1270   */\n    tag_182:\n        /* \"#utility.yul\":775:783   */\n      0x00\n        /* \"#utility.yul\":785:791   */\n      dup1\n        /* \"#utility.yul\":835:838   */\n      dup4\n        /* \"#utility.yul\":828:832   */\n      0x1f\n        /* \"#utility.yul\":820:826   */\n      dup5\n        /* \"#utility.yul\":816:833   */\n      add\n        /* \"#utility.yul\":812:839   */\n      slt\n        /* \"#utility.yul\":802:924   */\n      tag_250\n      jumpi\n        /* \"#utility.yul\":843:922   */\n      tag_251\n      tag_179\n      jump\t// in\n    tag_251:\n        /* \"#utility.yul\":802:924   */\n    tag_250:\n        /* \"#utility.yul\":956:962   */\n      dup3\n        /* \"#utility.yul\":943:963   */\n      calldataload\n        /* \"#utility.yul\":933:963   */\n      swap1\n      pop\n        /* \"#utility.yul\":986:1004   */\n      0xffffffffffffffff\n        /* \"#utility.yul\":978:984   */\n      dup2\n        /* \"#utility.yul\":975:1005   */\n      gt\n        /* \"#utility.yul\":972:1089   */\n      iszero\n      tag_252\n      jumpi\n        /* \"#utility.yul\":1008:1087   */\n      tag_253\n      tag_180\n      jump\t// in\n    tag_253:\n        /* \"#utility.yul\":972:1089   */\n    tag_252:\n        /* \"#utility.yul\":1122:1126   */\n      0x20\n        /* \"#utility.yul\":1114:1120   */\n      dup4\n        /* \"#utility.yul\":1110:1127   */\n      add\n        /* \"#utility.yul\":1098:1127   */\n      swap2\n      pop\n        /* \"#utility.yul\":1176:1179   */\n      dup4\n        /* \"#utility.yul\":1168:1172   */\n      0x01\n        /* \"#utility.yul\":1160:1166   */\n      dup3\n        /* \"#utility.yul\":1156:1173   */\n      mul\n        /* \"#utility.yul\":1146:1154   */\n      dup4\n        /* \"#utility.yul\":1142:1174   */\n      add\n        /* \"#utility.yul\":1139:1180   */\n      gt\n        /* \"#utility.yul\":1136:1264   */\n      iszero\n      tag_254\n      jumpi\n        /* \"#utility.yul\":1183:1262   */\n      tag_255\n      tag_181\n      jump\t// in\n    tag_255:\n        /* \"#utility.yul\":1136:1264   */\n    tag_254:\n        /* \"#utility.yul\":717:1270   */\n      swap3\n      pop\n      swap3\n      swap1\n      pop\n      jump\t// out\n        /* \"#utility.yul\":1276:2150   */\n    tag_13:\n        /* \"#utility.yul\":1368:1374   */\n      0x00\n        /* \"#utility.yul\":1376:1382   */\n      dup1\n        /* \"#utility.yul\":1384:1390   */\n      0x00\n        /* \"#utility.yul\":1392:1398   */\n      dup1\n        /* \"#utility.yul\":1441:1443   */\n      0x40\n        /* \"#utility.yul\":1429:1438   */\n      dup6\n        /* \"#utility.yul\":1420:1427   */\n      dup8\n        /* \"#utility.yul\":1416:1439   */\n      sub\n        /* \"#utility.yul\":1412:1444   */\n      slt\n        /* \"#utility.yul\":1409:1528   */\n      iszero\n      tag_257\n      jumpi\n        /* \"#utility.yul\":1447:1526   */\n      tag_258\n      tag_177\n      jump\t// in\n    tag_258:\n        /* \"#utility.yul\":1409:1528   */\n    tag_257:\n        /* \"#utility.yul\":1595:1596   */\n      0x00\n        /* \"#utility.yul\":1584:1593   */\n      dup6\n        /* \"#utility.yul\":1580:1597   */\n      add\n        /* \"#utility.yul\":1567:1598   */\n      calldataload\n        /* \"#utility.yul\":1625:1643   */\n      0xffffffffffffffff\n        /* \"#utility.yul\":1617:1623   */\n      dup2\n        /* \"#utility.yul\":1614:1644   */\n      gt\n        /* \"#utility.yul\":1611:1728   */\n      iszero\n      tag_259\n      jumpi\n        /* \"#utility.yul\":1647:1726   */\n      tag_260\n      tag_178\n      jump\t// in\n    tag_260:\n        /* \"#utility.yul\":1611:1728   */\n    tag_259:\n        /* \"#utility.yul\":1760:1825   */\n      tag_261\n        /* \"#utility.yul\":1817:1824   */\n      dup8\n        /* \"#utility.yul\":1808:1814   */\n      dup3\n        /* \"#utility.yul\":1797:1806   */\n      dup9\n        /* \"#utility.yul\":1793:1815   */\n      add\n        /* \"#utility.yul\":1760:1825   */\n      tag_182\n      jump\t// in\n    tag_261:\n        /* \"#utility.yul\":1742:1825   */\n      swap5\n      pop\n      swap5\n      pop\n        /* \"#utility.yul\":1538:1835   */\n      pop\n        /* \"#utility.yul\":1902:1904   */\n      0x20\n        /* \"#utility.yul\":1891:1900   */\n      dup6\n        /* \"#utility.yul\":1887:1905   */\n      add\n        /* \"#utility.yul\":1874:1906   */\n      calldataload\n        /* \"#utility.yul\":1933:1951   */\n      0xffffffffffffffff\n        /* \"#utility.yul\":1925:1931   */\n      dup2\n        /* \"#utility.yul\":1922:1952   */\n      gt\n        /* \"#utility.yul\":1919:2036   */\n      iszero\n      tag_262\n      jumpi\n        /* \"#utility.yul\":1955:2034   */\n      tag_263\n      tag_178\n      jump\t// in\n    tag_263:\n        /* \"#utility.yul\":1919:2036   */\n    tag_262:\n        /* \"#utility.yul\":2068:2133   */\n      tag_264\n        /* \"#utility.yul\":2125:2132   */\n      dup8\n        /* \"#utility.yul\":2116:2122   */\n      dup3\n        /* \"#utility.yul\":2105:2114   */\n      dup9\n        /* \"#utility.yul\":2101:2123   */\n      add\n        /* \"#utility.yul\":2068:2133   */\n      tag_182\n      jump\t// in\n    tag_264:\n        /* \"#utility.yul\":2050:2133   */\n      swap3\n      pop\n      swap3\n      pop\n        /* \"#utility.yul\":1845:2143   */\n      pop\n        /* \"#utility.yul\":1276:2150   */\n      swap3\n      swap6\n      swap2\n      swap5\n      pop\n      swap3\n      pop\n      jump\t// out\n        /* \"#utility.yul\":2156:2273   */\n    tag_183:\n        /* \"#utility.yul\":2265:2266   */\n      0x00\n        /* \"#utility.yul\":2262:2263   */\n      dup1\n        /* \"#utility.yul\":2255:2267   */\n      revert\n        /* \"#utility.yul\":2279:2381   */\n    tag_184:\n        /* \"#utility.yul\":2320:2326   */\n      0x00\n        /* \"#utility.yul\":2371:2373   */\n      0x1f\n        /* \"#utility.yul\":2367:2374   */\n      not\n        /* \"#utility.yul\":2362:2364   */\n      0x1f\n        /* \"#utility.yul\":2355:2360   */\n      dup4\n        /* \"#utility.yul\":2351:2365   */\n      add\n        /* \"#utility.yul\":2347:2375   */\n      and\n        /* \"#utility.yul\":2337:2375   */\n      swap1\n      pop\n        /* \"#utility.yul\":2279:2381   */\n      swap2\n      swap1\n      pop\n      jump\t// out\n        /* \"#utility.yul\":2387:2567   */\n    tag_110:\n        /* \"#utility.yul\":2435:2512   */\n      0x4e487b7100000000000000000000000000000000000000000000000000000000\n        /* \"#utility.yul\":2432:2433   */\n      0x00\n        /* \"#utility.yul\":2425:2513   */\n      mstore\n        /* \"#utility.yul\":2532:2536   */\n      0x41\n        /* \"#utility.yul\":2529:2530   */\n      0x04\n        /* \"#utility.yul\":2522:2537   */\n      mstore\n        /* \"#utility.yul\":2556:2560   */\n      0x24\n        /* \"#utility.yul\":2553:2554   */\n      0x00\n        /* \"#utility.yul\":2546:2561   */\n      revert\n        /* \"#utility.yul\":2573:2854   */\n    tag_185:\n        /* \"#utility.yul\":2656:2683   */\n      tag_269\n        /* \"#utility.yul\":2678:2682   */\n      dup3\n        /* \"#utility.yul\":2656:2683   */\n      tag_184\n      jump\t// in\n    tag_269:\n        /* \"#utility.yul\":2648:2654   */\n      dup2\n        /* \"#utility.yul\":2644:2684   */\n      add\n        /* \"#utility.yul\":2786:2792   */\n      dup2\n        /* \"#utility.yul\":2774:2784   */\n      dup2\n        /* \"#utility.yul\":2771:2793   */\n      lt\n        /* \"#utility.yul\":2750:2768   */\n      0xffffffffffffffff\n        /* \"#utility.yul\":2738:2748   */\n      dup3\n        /* \"#utility.yul\":2735:2769   */\n      gt\n        /* \"#utility.yul\":2732:2794   */\n      or\n        /* \"#utility.yul\":2729:2817   */\n      iszero\n      tag_270\n      jumpi\n        /* \"#utility.yul\":2797:2815   */\n      tag_271\n      tag_110\n      jump\t// in\n    tag_271:\n        /* \"#utility.yul\":2729:2817   */\n    tag_270:\n        /* \"#utility.yul\":2837:2847   */\n      dup1\n        /* \"#utility.yul\":2833:2835   */\n      0x40\n        /* \"#utility.yul\":2826:2848   */\n      mstore\n        /* \"#utility.yul\":2616:2854   */\n      pop\n        /* \"#utility.yul\":2573:2854   */\n      pop\n      pop\n      jump\t// out\n        /* \"#utility.yul\":2860:2989   */\n    tag_186:\n        /* \"#utility.yul\":2894:2900   */\n      0x00\n        /* \"#utility.yul\":2921:2941   */\n      tag_273\n      tag_176\n      jump\t// in\n    tag_273:\n        /* \"#utility.yul\":2911:2941   */\n      swap1\n      pop\n        /* \"#utility.yul\":2950:2983   */\n      tag_274\n        /* \"#utility.yul\":2978:2982   */\n      dup3\n        /* \"#utility.yul\":2970:2976   */\n      dup3\n        /* \"#utility.yul\":2950:2983   */\n      tag_185\n      jump\t// in\n    tag_274:\n        /* \"#utility.yul\":2860:2989   */\n      swap2\n      swap1\n      pop\n      jump\t// out\n        /* \"#utility.yul\":2995:3303   */\n    tag_187:\n        /* \"#utility.yul\":3057:3061   */\n      0x00\n        /* \"#utility.yul\":3147:3165   */\n      0xffffffffffffffff\n        /* \"#utility.yul\":3139:3145   */\n      dup3\n        /* \"#utility.yul\":3136:3166   */\n      gt\n        /* \"#utility.yul\":3133:3189   */\n      iszero\n      tag_276\n      jumpi\n        /* \"#utility.yul\":3169:3187   */\n      tag_277\n      tag_110\n      jump\t// in\n    tag_277:\n        /* \"#utility.yul\":3133:3189   */\n    tag_276:\n        /* \"#utility.yul\":3207:3236   */\n      tag_278\n        /* \"#utility.yul\":3229:3235   */\n      dup3\n        /* \"#utility.yul\":3207:3236   */\n      tag_184\n      jump\t// in\n    tag_278:\n        /* \"#utility.yul\":3199:3236   */\n      swap1\n      pop\n        /* \"#utility.yul\":3291:3295   */\n      0x20\n        /* \"#utility.yul\":3285:3289   */\n      dup2\n        /* \"#utility.yul\":3281:3296   */\n      add\n        /* \"#utility.yul\":3273:3296   */\n      swap1\n      pop\n        /* \"#utility.yul\":2995:3303   */\n      swap2\n      swap1\n      pop\n      jump\t// out\n        /* \"#utility.yul\":3309:3457   */\n    tag_188:\n        /* \"#utility.yul\":3407:3413   */\n      dup3\n        /* \"#utility.yul\":3402:3405   */\n      dup2\n        /* \"#utility.yul\":3397:3400   */\n      dup4\n        /* \"#utility.yul\":3384:3414   */\n      calldatacopy\n        /* \"#utility.yul\":3448:3449   */\n      0x00\n        /* \"#utility.yul\":3439:3445   */\n      dup4\n        /* \"#utility.yul\":3434:3437   */\n      dup4\n        /* \"#utility.yul\":3430:3446   */\n      add\n        /* \"#utility.yul\":3423:3450   */\n      mstore\n        /* \"#utility.yul\":3309:3457   */\n      pop\n      pop\n      pop\n      jump\t// out\n        /* \"#utility.yul\":3463:3888   */\n    tag_189:\n        /* \"#utility.yul\":3541:3546   */\n      0x00\n        /* \"#utility.yul\":3566:3632   */\n      tag_281\n        /* \"#utility.yul\":3582:3631   */\n      tag_282\n        /* \"#utility.yul\":3624:3630   */\n      dup5\n        /* \"#utility.yul\":3582:3631   */\n      tag_187\n      jump\t// in\n    tag_282:\n        /* \"#utility.yul\":3566:3632   */\n      tag_186\n      jump\t// in\n    tag_281:\n        /* \"#utility.yul\":3557:3632   */\n      swap1\n      pop\n        /* \"#utility.yul\":3655:3661   */\n      dup3\n        /* \"#utility.yul\":3648:3653   */\n      dup2\n        /* \"#utility.yul\":3641:3662   */\n      mstore\n        /* \"#utility.yul\":3693:3697   */\n      0x20\n        /* \"#utility.yul\":3686:3691   */\n      dup2\n        /* \"#utility.yul\":3682:3698   */\n      add\n        /* \"#utility.yul\":3731:3734   */\n      dup5\n        /* \"#utility.yul\":3722:3728   */\n      dup5\n        /* \"#utility.yul\":3717:3720   */\n      dup5\n        /* \"#utility.yul\":3713:3729   */\n      add\n        /* \"#utility.yul\":3710:3735   */\n      gt\n        /* \"#utility.yul\":3707:3819   */\n      iszero\n      tag_283\n      jumpi\n        /* \"#utility.yul\":3738:3817   */\n      tag_284\n      tag_183\n      jump\t// in\n    tag_284:\n        /* \"#utility.yul\":3707:3819   */\n    tag_283:\n        /* \"#utility.yul\":3828:3882   */\n      tag_285\n        /* \"#utility.yul\":3875:3881   */\n      dup5\n        /* \"#utility.yul\":3870:3873   */\n      dup3\n        /* \"#utility.yul\":3865:3868   */\n      dup6\n        /* \"#utility.yul\":3828:3882   */\n      tag_188\n      jump\t// in\n    tag_285:\n        /* \"#utility.yul\":3547:3888   */\n      pop\n        /* \"#utility.yul\":3463:3888   */\n      swap4\n      swap3\n      pop\n      pop\n      pop\n      jump\t// out\n        /* \"#utility.yul\":3908:4248   */\n    tag_190:\n        /* \"#utility.yul\":3964:3969   */\n      0x00\n        /* \"#utility.yul\":4013:4016   */\n      dup3\n        /* \"#utility.yul\":4006:4010   */\n      0x1f\n        /* \"#utility.yul\":3998:4004   */\n      dup4\n        /* \"#utility.yul\":3994:4011   */\n      add\n        /* \"#utility.yul\":3990:4017   */\n      slt\n        /* \"#utility.yul\":3980:4102   */\n      tag_287\n      jumpi\n        /* \"#utility.yul\":4021:4100   */\n      tag_288\n      tag_179\n      jump\t// in\n    tag_288:\n        /* \"#utility.yul\":3980:4102   */\n    tag_287:\n        /* \"#utility.yul\":4138:4144   */\n      dup2\n        /* \"#utility.yul\":4125:4145   */\n      calldataload\n        /* \"#utility.yul\":4163:4242   */\n      tag_289\n        /* \"#utility.yul\":4238:4241   */\n      dup5\n        /* \"#utility.yul\":4230:4236   */\n      dup3\n        /* \"#utility.yul\":4223:4227   */\n      0x20\n        /* \"#utility.yul\":4215:4221   */\n      dup7\n        /* \"#utility.yul\":4211:4228   */\n      add\n        /* \"#utility.yul\":4163:4242   */\n      tag_189\n      jump\t// in\n    tag_289:\n        /* \"#utility.yul\":4154:4242   */\n      swap2\n      pop\n        /* \"#utility.yul\":3970:4248   */\n      pop\n        /* \"#utility.yul\":3908:4248   */\n      swap3\n      swap2\n      pop\n      pop\n      jump\t// out\n        /* \"#utility.yul\":4254:4763   */\n    tag_17:\n        /* \"#utility.yul\":4323:4329   */\n      0x00\n        /* \"#utility.yul\":4372:4374   */\n      0x20\n        /* \"#utility.yul\":4360:4369   */\n      dup3\n        /* \"#utility.yul\":4351:4358   */\n      dup5\n        /* \"#utility.yul\":4347:4370   */\n      sub\n        /* \"#utility.yul\":4343:4375   */\n      slt\n        /* \"#utility.yul\":4340:4459   */\n      iszero\n      tag_291\n      jumpi\n        /* \"#utility.yul\":4378:4457   */\n      tag_292\n      tag_177\n      jump\t// in\n    tag_292:\n        /* \"#utility.yul\":4340:4459   */\n    tag_291:\n        /* \"#utility.yul\":4526:4527   */\n      0x00\n        /* \"#utility.yul\":4515:4524   */\n      dup3\n        /* \"#utility.yul\":4511:4528   */\n      add\n        /* \"#utility.yul\":4498:4529   */\n      calldataload\n        /* \"#utility.yul\":4556:4574   */\n      0xffffffffffffffff\n        /* \"#utility.yul\":4548:4554   */\n      dup2\n        /* \"#utility.yul\":4545:4575   */\n      gt\n        /* \"#utility.yul\":4542:4659   */\n      iszero\n      tag_293\n      jumpi\n        /* \"#utility.yul\":4578:4657   */\n      tag_294\n      tag_178\n      jump\t// in\n    tag_294:\n        /* \"#utility.yul\":4542:4659   */\n    tag_293:\n        /* \"#utility.yul\":4683:4746   */\n      tag_295\n        /* \"#utility.yul\":4738:4745   */\n      dup5\n        /* \"#utility.yul\":4729:4735   */\n      dup3\n        /* \"#utility.yul\":4718:4727   */\n      dup6\n        /* \"#utility.yul\":4714:4736   */\n      add\n        /* \"#utility.yul\":4683:4746   */\n      tag_190\n      jump\t// in\n    tag_295:\n        /* \"#utility.yul\":4673:4746   */\n      swap2\n      pop\n        /* \"#utility.yul\":4469:4756   */\n      pop\n        /* \"#utility.yul\":4254:4763   */\n      swap3\n      swap2\n      pop\n      pop\n      jump\t// out\n        /* \"#utility.yul\":4769:4846   */\n    tag_191:\n        /* \"#utility.yul\":4806:4813   */\n      0x00\n        /* \"#utility.yul\":4835:4840   */\n      dup2\n        /* \"#utility.yul\":4824:4840   */\n      swap1\n      pop\n        /* \"#utility.yul\":4769:4846   */\n      swap2\n      swap1\n      pop\n      jump\t// out\n        /* \"#utility.yul\":4852:4960   */\n    tag_192:\n        /* \"#utility.yul\":4929:4953   */\n      tag_298\n        /* \"#utility.yul\":4947:4952   */\n      dup2\n        /* \"#utility.yul\":4929:4953   */\n      tag_191\n      jump\t// in\n    tag_298:\n        /* \"#utility.yul\":4924:4927   */\n      dup3\n        /* \"#utility.yul\":4917:4954   */\n      mstore\n        /* \"#utility.yul\":4852:4960   */\n      pop\n      pop\n      jump\t// out\n        /* \"#utility.yul\":4966:5065   */\n    tag_193:\n        /* \"#utility.yul\":5018:5024   */\n      0x00\n        /* \"#utility.yul\":5052:5057   */\n      dup2\n        /* \"#utility.yul\":5046:5058   */\n      mload\n        /* \"#utility.yul\":5036:5058   */\n      swap1\n      pop\n        /* \"#utility.yul\":4966:5065   */\n      swap2\n      swap1\n      pop\n      jump\t// out\n        /* \"#utility.yul\":5071:5230   */\n    tag_194:\n        /* \"#utility.yul\":5145:5156   */\n      0x00\n        /* \"#utility.yul\":5179:5185   */\n      dup3\n        /* \"#utility.yul\":5174:5177   */\n      dup3\n        /* \"#utility.yul\":5167:5186   */\n      mstore\n        /* \"#utility.yul\":5219:5223   */\n      0x20\n        /* \"#utility.yul\":5214:5217   */\n      dup3\n        /* \"#utility.yul\":5210:5224   */\n      add\n        /* \"#utility.yul\":5195:5224   */\n      swap1\n      pop\n        /* \"#utility.yul\":5071:5230   */\n      swap3\n      swap2\n      pop\n      pop\n      jump\t// out\n        /* \"#utility.yul\":5236:5375   */\n    tag_195:\n        /* \"#utility.yul\":5325:5331   */\n      dup3\n        /* \"#utility.yul\":5320:5323   */\n      dup2\n        /* \"#utility.yul\":5315:5318   */\n      dup4\n        /* \"#utility.yul\":5309:5332   */\n      mcopy\n        /* \"#utility.yul\":5366:5367   */\n      0x00\n        /* \"#utility.yul\":5357:5363   */\n      dup4\n        /* \"#utility.yul\":5352:5355   */\n      dup4\n        /* \"#utility.yul\":5348:5364   */\n      add\n        /* \"#utility.yul\":5341:5368   */\n      mstore\n        /* \"#utility.yul\":5236:5375   */\n      pop\n      pop\n      pop\n      jump\t// out\n        /* \"#utility.yul\":5381:5738   */\n    tag_196:\n        /* \"#utility.yul\":5459:5462   */\n      0x00\n        /* \"#utility.yul\":5487:5526   */\n      tag_303\n        /* \"#utility.yul\":5520:5525   */\n      dup3\n        /* \"#utility.yul\":5487:5526   */\n      tag_193\n      jump\t// in\n    tag_303:\n        /* \"#utility.yul\":5542:5603   */\n      tag_304\n        /* \"#utility.yul\":5596:5602   */\n      dup2\n        /* \"#utility.yul\":5591:5594   */\n      dup6\n        /* \"#utility.yul\":5542:5603   */\n      tag_194\n      jump\t// in\n    tag_304:\n        /* \"#utility.yul\":5535:5603   */\n      swap4\n      pop\n        /* \"#utility.yul\":5612:5677   */\n      tag_305\n        /* \"#utility.yul\":5670:5676   */\n      dup2\n        /* \"#utility.yul\":5665:5668   */\n      dup6\n        /* \"#utility.yul\":5658:5662   */\n      0x20\n        /* \"#utility.yul\":5651:5656   */\n      dup7\n        /* \"#utility.yul\":5647:5663   */\n      add\n        /* \"#utility.yul\":5612:5677   */\n      tag_195\n      jump\t// in\n    tag_305:\n        /* \"#utility.yul\":5702:5731   */\n      tag_306\n        /* \"#utility.yul\":5724:5730   */\n      dup2\n        /* \"#utility.yul\":5702:5731   */\n      tag_184\n      jump\t// in\n    tag_306:\n        /* \"#utility.yul\":5697:5700   */\n      dup5\n        /* \"#utility.yul\":5693:5732   */\n      add\n        /* \"#utility.yul\":5686:5732   */\n      swap2\n      pop\n        /* \"#utility.yul\":5463:5738   */\n      pop\n        /* \"#utility.yul\":5381:5738   */\n      swap3\n      swap2\n      pop\n      pop\n      jump\t// out\n        /* \"#utility.yul\":5744:5870   */\n    tag_197:\n        /* \"#utility.yul\":5781:5788   */\n      0x00\n        /* \"#utility.yul\":5821:5863   */\n      0xffffffffffffffffffffffffffffffffffffffff\n        /* \"#utility.yul\":5814:5819   */\n      dup3\n        /* \"#utility.yul\":5810:5864   */\n      and\n        /* \"#utility.yul\":5799:5864   */\n      swap1\n      pop\n        /* \"#utility.yul\":5744:5870   */\n      swap2\n      swap1\n      pop\n      jump\t// out\n        /* \"#utility.yul\":5876:5972   */\n    tag_198:\n        /* \"#utility.yul\":5913:5920   */\n      0x00\n        /* \"#utility.yul\":5942:5966   */\n      tag_309\n        /* \"#utility.yul\":5960:5965   */\n      dup3\n        /* \"#utility.yul\":5942:5966   */\n      tag_197\n      jump\t// in\n    tag_309:\n        /* \"#utility.yul\":5931:5966   */\n      swap1\n      pop\n        /* \"#utility.yul\":5876:5972   */\n      swap2\n      swap1\n      pop\n      jump\t// out\n        /* \"#utility.yul\":5978:6086   */\n    tag_199:\n        /* \"#utility.yul\":6055:6079   */\n      tag_311\n        /* \"#utility.yul\":6073:6078   */\n      dup2\n        /* \"#utility.yul\":6055:6079   */\n      tag_198\n      jump\t// in\n    tag_311:\n        /* \"#utility.yul\":6050:6053   */\n      dup3\n        /* \"#utility.yul\":6043:6080   */\n      mstore\n        /* \"#utility.yul\":5978:6086   */\n      pop\n      pop\n      jump\t// out\n        /* \"#utility.yul\":6092:6272   */\n    tag_46:\n        /* \"#utility.yul\":6140:6217   */\n      0x4e487b7100000000000000000000000000000000000000000000000000000000\n        /* \"#utility.yul\":6137:6138   */\n      0x00\n        /* \"#utility.yul\":6130:6218   */\n      mstore\n        /* \"#utility.yul\":6237:6241   */\n      0x21\n        /* \"#utility.yul\":6234:6235   */\n      0x04\n        /* \"#utility.yul\":6227:6242   */\n      mstore\n        /* \"#utility.yul\":6261:6265   */\n      0x24\n        /* \"#utility.yul\":6258:6259   */\n      0x00\n        /* \"#utility.yul\":6251:6266   */\n      revert\n        /* \"#utility.yul\":6278:6393   */\n    tag_200:\n        /* \"#utility.yul\":6361:6362   */\n      0x03\n        /* \"#utility.yul\":6354:6359   */\n      dup2\n        /* \"#utility.yul\":6351:6363   */\n      lt\n        /* \"#utility.yul\":6341:6387   */\n      tag_314\n      jumpi\n        /* \"#utility.yul\":6367:6385   */\n      tag_315\n      tag_46\n      jump\t// in\n    tag_315:\n        /* \"#utility.yul\":6341:6387   */\n    tag_314:\n        /* \"#utility.yul\":6278:6393   */\n      pop\n      jump\t// out\n        /* \"#utility.yul\":6399:6530   */\n    tag_201:\n        /* \"#utility.yul\":6446:6453   */\n      0x00\n        /* \"#utility.yul\":6475:6480   */\n      dup2\n        /* \"#utility.yul\":6464:6480   */\n      swap1\n      pop\n        /* \"#utility.yul\":6481:6524   */\n      tag_317\n        /* \"#utility.yul\":6518:6523   */\n      dup3\n        /* \"#utility.yul\":6481:6524   */\n      tag_200\n      jump\t// in\n    tag_317:\n        /* \"#utility.yul\":6399:6530   */\n      swap2\n      swap1\n      pop\n      jump\t// out\n        /* \"#utility.yul\":6536:6667   */\n    tag_202:\n        /* \"#utility.yul\":6594:6603   */\n      0x00\n        /* \"#utility.yul\":6627:6661   */\n      tag_319\n        /* \"#utility.yul\":6655:6660   */\n      dup3\n        /* \"#utility.yul\":6627:6661   */\n      tag_201\n      jump\t// in\n    tag_319:\n        /* \"#utility.yul\":6614:6661   */\n      swap1\n      pop\n        /* \"#utility.yul\":6536:6667   */\n      swap2\n      swap1\n      pop\n      jump\t// out\n        /* \"#utility.yul\":6673:6810   */\n    tag_203:\n        /* \"#utility.yul\":6758:6803   */\n      tag_321\n        /* \"#utility.yul\":6797:6802   */\n      dup2\n        /* \"#utility.yul\":6758:6803   */\n      tag_202\n      jump\t// in\n    tag_321:\n        /* \"#utility.yul\":6753:6756   */\n      dup3\n        /* \"#utility.yul\":6746:6804   */\n      mstore\n        /* \"#utility.yul\":6673:6810   */\n      pop\n      pop\n      jump\t// out\n        /* \"#utility.yul\":6868:8610   */\n    tag_204:\n        /* \"#utility.yul\":6979:6982   */\n      0x00\n        /* \"#utility.yul\":7015:7021   */\n      0x0100\n        /* \"#utility.yul\":7010:7013   */\n      dup4\n        /* \"#utility.yul\":7006:7022   */\n      add\n        /* \"#utility.yul\":7106:7110   */\n      0x00\n        /* \"#utility.yul\":7099:7104   */\n      dup4\n        /* \"#utility.yul\":7095:7111   */\n      add\n        /* \"#utility.yul\":7089:7112   */\n      mload\n        /* \"#utility.yul\":7125:7188   */\n      tag_323\n        /* \"#utility.yul\":7182:7186   */\n      0x00\n        /* \"#utility.yul\":7177:7180   */\n      dup7\n        /* \"#utility.yul\":7173:7187   */\n      add\n        /* \"#utility.yul\":7159:7171   */\n      dup3\n        /* \"#utility.yul\":7125:7188   */\n      tag_192\n      jump\t// in\n    tag_323:\n        /* \"#utility.yul\":7032:7198   */\n      pop\n        /* \"#utility.yul\":7281:7285   */\n      0x20\n        /* \"#utility.yul\":7274:7279   */\n      dup4\n        /* \"#utility.yul\":7270:7286   */\n      add\n        /* \"#utility.yul\":7264:7287   */\n      mload\n        /* \"#utility.yul\":7334:7337   */\n      dup5\n        /* \"#utility.yul\":7328:7332   */\n      dup3\n        /* \"#utility.yul\":7324:7338   */\n      sub\n        /* \"#utility.yul\":7317:7321   */\n      0x20\n        /* \"#utility.yul\":7312:7315   */\n      dup7\n        /* \"#utility.yul\":7308:7322   */\n      add\n        /* \"#utility.yul\":7301:7339   */\n      mstore\n        /* \"#utility.yul\":7360:7433   */\n      tag_324\n        /* \"#utility.yul\":7428:7432   */\n      dup3\n        /* \"#utility.yul\":7414:7426   */\n      dup3\n        /* \"#utility.yul\":7360:7433   */\n      tag_196\n      jump\t// in\n    tag_324:\n        /* \"#utility.yul\":7352:7433   */\n      swap2\n      pop\n        /* \"#utility.yul\":7208:7444   */\n      pop\n        /* \"#utility.yul\":7529:7533   */\n      0x40\n        /* \"#utility.yul\":7522:7527   */\n      dup4\n        /* \"#utility.yul\":7518:7534   */\n      add\n        /* \"#utility.yul\":7512:7535   */\n      mload\n        /* \"#utility.yul\":7582:7585   */\n      dup5\n        /* \"#utility.yul\":7576:7580   */\n      dup3\n        /* \"#utility.yul\":7572:7586   */\n      sub\n        /* \"#utility.yul\":7565:7569   */\n      0x40\n        /* \"#utility.yul\":7560:7563   */\n      dup7\n        /* \"#utility.yul\":7556:7570   */\n      add\n        /* \"#utility.yul\":7549:7587   */\n      mstore\n        /* \"#utility.yul\":7608:7681   */\n      tag_325\n        /* \"#utility.yul\":7676:7680   */\n      dup3\n        /* \"#utility.yul\":7662:7674   */\n      dup3\n        /* \"#utility.yul\":7608:7681   */\n      tag_196\n      jump\t// in\n    tag_325:\n        /* \"#utility.yul\":7600:7681   */\n      swap2\n      pop\n        /* \"#utility.yul\":7454:7692   */\n      pop\n        /* \"#utility.yul\":7778:7782   */\n      0x60\n        /* \"#utility.yul\":7771:7776   */\n      dup4\n        /* \"#utility.yul\":7767:7783   */\n      add\n        /* \"#utility.yul\":7761:7784   */\n      mload\n        /* \"#utility.yul\":7797:7860   */\n      tag_326\n        /* \"#utility.yul\":7854:7858   */\n      0x60\n        /* \"#utility.yul\":7849:7852   */\n      dup7\n        /* \"#utility.yul\":7845:7859   */\n      add\n        /* \"#utility.yul\":7831:7843   */\n      dup3\n        /* \"#utility.yul\":7797:7860   */\n      tag_199\n      jump\t// in\n    tag_326:\n        /* \"#utility.yul\":7702:7870   */\n      pop\n        /* \"#utility.yul\":7952:7956   */\n      0x80\n        /* \"#utility.yul\":7945:7950   */\n      dup4\n        /* \"#utility.yul\":7941:7957   */\n      add\n        /* \"#utility.yul\":7935:7958   */\n      mload\n        /* \"#utility.yul\":7971:8034   */\n      tag_327\n        /* \"#utility.yul\":8028:8032   */\n      0x80\n        /* \"#utility.yul\":8023:8026   */\n      dup7\n        /* \"#utility.yul\":8019:8033   */\n      add\n        /* \"#utility.yul\":8005:8017   */\n      dup3\n        /* \"#utility.yul\":7971:8034   */\n      tag_192\n      jump\t// in\n    tag_327:\n        /* \"#utility.yul\":7880:8044   */\n      pop\n        /* \"#utility.yul\":8126:8130   */\n      0xa0\n        /* \"#utility.yul\":8119:8124   */\n      dup4\n        /* \"#utility.yul\":8115:8131   */\n      add\n        /* \"#utility.yul\":8109:8132   */\n      mload\n        /* \"#utility.yul\":8145:8208   */\n      tag_328\n        /* \"#utility.yul\":8202:8206   */\n      0xa0\n        /* \"#utility.yul\":8197:8200   */\n      dup7\n        /* \"#utility.yul\":8193:8207   */\n      add\n        /* \"#utility.yul\":8179:8191   */\n      dup3\n        /* \"#utility.yul\":8145:8208   */\n      tag_192\n      jump\t// in\n    tag_328:\n        /* \"#utility.yul\":8054:8218   */\n      pop\n        /* \"#utility.yul\":8302:8306   */\n      0xc0\n        /* \"#utility.yul\":8295:8300   */\n      dup4\n        /* \"#utility.yul\":8291:8307   */\n      add\n        /* \"#utility.yul\":8285:8308   */\n      mload\n        /* \"#utility.yul\":8321:8392   */\n      tag_329\n        /* \"#utility.yul\":8386:8390   */\n      0xc0\n        /* \"#utility.yul\":8381:8384   */\n      dup7\n        /* \"#utility.yul\":8377:8391   */\n      add\n        /* \"#utility.yul\":8363:8375   */\n      dup3\n        /* \"#utility.yul\":8321:8392   */\n      tag_203\n      jump\t// in\n    tag_329:\n        /* \"#utility.yul\":8228:8402   */\n      pop\n        /* \"#utility.yul\":8491:8495   */\n      0xe0\n        /* \"#utility.yul\":8484:8489   */\n      dup4\n        /* \"#utility.yul\":8480:8496   */\n      add\n        /* \"#utility.yul\":8474:8497   */\n      mload\n        /* \"#utility.yul\":8510:8573   */\n      tag_330\n        /* \"#utility.yul\":8567:8571   */\n      0xe0\n        /* \"#utility.yul\":8562:8565   */\n      dup7\n        /* \"#utility.yul\":8558:8572   */\n      add\n        /* \"#utility.yul\":8544:8556   */\n      dup3\n        /* \"#utility.yul\":8510:8573   */\n      tag_192\n      jump\t// in\n    tag_330:\n        /* \"#utility.yul\":8412:8583   */\n      pop\n        /* \"#utility.yul\":8600:8604   */\n      dup1\n        /* \"#utility.yul\":8593:8604   */\n      swap2\n      pop\n        /* \"#utility.yul\":6984:8610   */\n      pop\n        /* \"#utility.yul\":6868:8610   */\n      swap3\n      swap2\n      pop\n      pop\n      jump\t// out\n        /* \"#utility.yul\":8616:8973   */\n    tag_20:\n        /* \"#utility.yul\":8751:8755   */\n      0x00\n        /* \"#utility.yul\":8789:8791   */\n      0x20\n        /* \"#utility.yul\":8778:8787   */\n      dup3\n        /* \"#utility.yul\":8774:8792   */\n      add\n        /* \"#utility.yul\":8766:8792   */\n      swap1\n      pop\n        /* \"#utility.yul\":8838:8847   */\n      dup2\n        /* \"#utility.yul\":8832:8836   */\n      dup2\n        /* \"#utility.yul\":8828:8848   */\n      sub\n        /* \"#utility.yul\":8824:8825   */\n      0x00\n        /* \"#utility.yul\":8813:8822   */\n      dup4\n        /* \"#utility.yul\":8809:8826   */\n      add\n        /* \"#utility.yul\":8802:8849   */\n      mstore\n        /* \"#utility.yul\":8866:8966   */\n      tag_332\n        /* \"#utility.yul\":8961:8965   */\n      dup2\n        /* \"#utility.yul\":8952:8958   */\n      dup5\n        /* \"#utility.yul\":8866:8966   */\n      tag_204\n      jump\t// in\n    tag_332:\n        /* \"#utility.yul\":8858:8966   */\n      swap1\n      pop\n        /* \"#utility.yul\":8616:8973   */\n      swap3\n      swap2\n      pop\n      pop\n      jump\t// out\n        /* \"#utility.yul\":8979:9069   */\n    tag_205:\n        /* \"#utility.yul\":9013:9020   */\n      0x00\n        /* \"#utility.yul\":9056:9061   */\n      dup2\n        /* \"#utility.yul\":9049:9062   */\n      iszero\n        /* \"#utility.yul\":9042:9063   */\n      iszero\n        /* \"#utility.yul\":9031:9063   */\n      swap1\n      pop\n        /* \"#utility.yul\":8979:9069   */\n      swap2\n      swap1\n      pop\n      jump\t// out\n        /* \"#utility.yul\":9075:9191   */\n    tag_206:\n        /* \"#utility.yul\":9145:9166   */\n      tag_335\n        /* \"#utility.yul\":9160:9165   */\n      dup2\n        /* \"#utility.yul\":9145:9166   */\n      tag_205\n      jump\t// in\n    tag_335:\n        /* \"#utility.yul\":9138:9143   */\n      dup2\n        /* \"#utility.yul\":9135:9167   */\n      eq\n        /* \"#utility.yul\":9125:9185   */\n      tag_336\n      jumpi\n        /* \"#utility.yul\":9181:9182   */\n      0x00\n        /* \"#utility.yul\":9178:9179   */\n      dup1\n        /* \"#utility.yul\":9171:9183   */\n      revert\n        /* \"#utility.yul\":9125:9185   */\n    tag_336:\n        /* \"#utility.yul\":9075:9191   */\n      pop\n      jump\t// out\n        /* \"#utility.yul\":9197:9330   */\n    tag_207:\n        /* \"#utility.yul\":9240:9245   */\n      0x00\n        /* \"#utility.yul\":9278:9284   */\n      dup2\n        /* \"#utility.yul\":9265:9285   */\n      calldataload\n        /* \"#utility.yul\":9256:9285   */\n      swap1\n      pop\n        /* \"#utility.yul\":9294:9324   */\n      tag_338\n        /* \"#utility.yul\":9318:9323   */\n      dup2\n        /* \"#utility.yul\":9294:9324   */\n      tag_206\n      jump\t// in\n    tag_338:\n        /* \"#utility.yul\":9197:9330   */\n      swap3\n      swap2\n      pop\n      pop\n      jump\t// out\n        /* \"#utility.yul\":9336:10004   */\n    tag_23:\n        /* \"#utility.yul\":9413:9419   */\n      0x00\n        /* \"#utility.yul\":9421:9427   */\n      dup1\n        /* \"#utility.yul\":9429:9435   */\n      0x00\n        /* \"#utility.yul\":9478:9480   */\n      0x40\n        /* \"#utility.yul\":9466:9475   */\n      dup5\n        /* \"#utility.yul\":9457:9464   */\n      dup7\n        /* \"#utility.yul\":9453:9476   */\n      sub\n        /* \"#utility.yul\":9449:9481   */\n      slt\n        /* \"#utility.yul\":9446:9565   */\n      iszero\n      tag_340\n      jumpi\n        /* \"#utility.yul\":9484:9563   */\n      tag_341\n      tag_177\n      jump\t// in\n    tag_341:\n        /* \"#utility.yul\":9446:9565   */\n    tag_340:\n        /* \"#utility.yul\":9632:9633   */\n      0x00\n        /* \"#utility.yul\":9621:9630   */\n      dup5\n        /* \"#utility.yul\":9617:9634   */\n      add\n        /* \"#utility.yul\":9604:9635   */\n      calldataload\n        /* \"#utility.yul\":9662:9680   */\n      0xffffffffffffffff\n        /* \"#utility.yul\":9654:9660   */\n      dup2\n        /* \"#utility.yul\":9651:9681   */\n      gt\n        /* \"#utility.yul\":9648:9765   */\n      iszero\n      tag_342\n      jumpi\n        /* \"#utility.yul\":9684:9763   */\n      tag_343\n      tag_178\n      jump\t// in\n    tag_343:\n        /* \"#utility.yul\":9648:9765   */\n    tag_342:\n        /* \"#utility.yul\":9797:9862   */\n      tag_344\n        /* \"#utility.yul\":9854:9861   */\n      dup7\n        /* \"#utility.yul\":9845:9851   */\n      dup3\n        /* \"#utility.yul\":9834:9843   */\n      dup8\n        /* \"#utility.yul\":9830:9852   */\n      add\n        /* \"#utility.yul\":9797:9862   */\n      tag_182\n      jump\t// in\n    tag_344:\n        /* \"#utility.yul\":9779:9862   */\n      swap4\n      pop\n      swap4\n      pop\n        /* \"#utility.yul\":9575:9872   */\n      pop\n        /* \"#utility.yul\":9911:9913   */\n      0x20\n        /* \"#utility.yul\":9937:9987   */\n      tag_345\n        /* \"#utility.yul\":9979:9986   */\n      dup7\n        /* \"#utility.yul\":9970:9976   */\n      dup3\n        /* \"#utility.yul\":9959:9968   */\n      dup8\n        /* \"#utility.yul\":9955:9977   */\n      add\n        /* \"#utility.yul\":9937:9987   */\n      tag_207\n      jump\t// in\n    tag_345:\n        /* \"#utility.yul\":9927:9987   */\n      swap2\n      pop\n        /* \"#utility.yul\":9882:9997   */\n      pop\n        /* \"#utility.yul\":9336:10004   */\n      swap3\n      pop\n      swap3\n      pop\n      swap3\n      jump\t// out\n        /* \"#utility.yul\":10010:10145   */\n    tag_208:\n        /* \"#utility.yul\":10098:10104   */\n      0x00\n        /* \"#utility.yul\":10132:10137   */\n      dup2\n        /* \"#utility.yul\":10126:10138   */\n      mload\n        /* \"#utility.yul\":10116:10138   */\n      swap1\n      pop\n        /* \"#utility.yul\":10010:10145   */\n      swap2\n      swap1\n      pop\n      jump\t// out\n        /* \"#utility.yul\":10151:10356   */\n    tag_209:\n        /* \"#utility.yul\":10271:10282   */\n      0x00\n        /* \"#utility.yul\":10305:10311   */\n      dup3\n        /* \"#utility.yul\":10300:10303   */\n      dup3\n        /* \"#utility.yul\":10293:10312   */\n      mstore\n        /* \"#utility.yul\":10345:10349   */\n      0x20\n        /* \"#utility.yul\":10340:10343   */\n      dup3\n        /* \"#utility.yul\":10336:10350   */\n      add\n        /* \"#utility.yul\":10321:10350   */\n      swap1\n      pop\n        /* \"#utility.yul\":10151:10356   */\n      swap3\n      swap2\n      pop\n      pop\n      jump\t// out\n        /* \"#utility.yul\":10362:10515   */\n    tag_210:\n        /* \"#utility.yul\":10450:10454   */\n      0x00\n        /* \"#utility.yul\":10473:10476   */\n      dup2\n        /* \"#utility.yul\":10465:10476   */\n      swap1\n      pop\n        /* \"#utility.yul\":10503:10507   */\n      0x20\n        /* \"#utility.yul\":10498:10501   */\n      dup3\n        /* \"#utility.yul\":10494:10508   */\n      add\n        /* \"#utility.yul\":10486:10508   */\n      swap1\n      pop\n        /* \"#utility.yul\":10362:10515   */\n      swap2\n      swap1\n      pop\n      jump\t// out\n        /* \"#utility.yul\":10573:12305   */\n    tag_211:\n        /* \"#utility.yul\":10674:10677   */\n      0x00\n        /* \"#utility.yul\":10710:10716   */\n      0x0100\n        /* \"#utility.yul\":10705:10708   */\n      dup4\n        /* \"#utility.yul\":10701:10717   */\n      add\n        /* \"#utility.yul\":10801:10805   */\n      0x00\n        /* \"#utility.yul\":10794:10799   */\n      dup4\n        /* \"#utility.yul\":10790:10806   */\n      add\n        /* \"#utility.yul\":10784:10807   */\n      mload\n        /* \"#utility.yul\":10820:10883   */\n      tag_350\n        /* \"#utility.yul\":10877:10881   */\n      0x00\n        /* \"#utility.yul\":10872:10875   */\n      dup7\n        /* \"#utility.yul\":10868:10882   */\n      add\n        /* \"#utility.yul\":10854:10866   */\n      dup3\n        /* \"#utility.yul\":10820:10883   */\n      tag_192\n      jump\t// in\n    tag_350:\n        /* \"#utility.yul\":10727:10893   */\n      pop\n        /* \"#utility.yul\":10976:10980   */\n      0x20\n        /* \"#utility.yul\":10969:10974   */\n      dup4\n        /* \"#utility.yul\":10965:10981   */\n      add\n        /* \"#utility.yul\":10959:10982   */\n      mload\n        /* \"#utility.yul\":11029:11032   */\n      dup5\n        /* \"#utility.yul\":11023:11027   */\n      dup3\n        /* \"#utility.yul\":11019:11033   */\n      sub\n        /* \"#utility.yul\":11012:11016   */\n      0x20\n        /* \"#utility.yul\":11007:11010   */\n      dup7\n        /* \"#utility.yul\":11003:11017   */\n      add\n        /* \"#utility.yul\":10996:11034   */\n      mstore\n        /* \"#utility.yul\":11055:11128   */\n      tag_351\n        /* \"#utility.yul\":11123:11127   */\n      dup3\n        /* \"#utility.yul\":11109:11121   */\n      dup3\n        /* \"#utility.yul\":11055:11128   */\n      tag_196\n      jump\t// in\n    tag_351:\n        /* \"#utility.yul\":11047:11128   */\n      swap2\n      pop\n        /* \"#utility.yul\":10903:11139   */\n      pop\n        /* \"#utility.yul\":11224:11228   */\n      0x40\n        /* \"#utility.yul\":11217:11222   */\n      dup4\n        /* \"#utility.yul\":11213:11229   */\n      add\n        /* \"#utility.yul\":11207:11230   */\n      mload\n        /* \"#utility.yul\":11277:11280   */\n      dup5\n        /* \"#utility.yul\":11271:11275   */\n      dup3\n        /* \"#utility.yul\":11267:11281   */\n      sub\n        /* \"#utility.yul\":11260:11264   */\n      0x40\n        /* \"#utility.yul\":11255:11258   */\n      dup7\n        /* \"#utility.yul\":11251:11265   */\n      add\n        /* \"#utility.yul\":11244:11282   */\n      mstore\n        /* \"#utility.yul\":11303:11376   */\n      tag_352\n        /* \"#utility.yul\":11371:11375   */\n      dup3\n        /* \"#utility.yul\":11357:11369   */\n      dup3\n        /* \"#utility.yul\":11303:11376   */\n      tag_196\n      jump\t// in\n    tag_352:\n        /* \"#utility.yul\":11295:11376   */\n      swap2\n      pop\n        /* \"#utility.yul\":11149:11387   */\n      pop\n        /* \"#utility.yul\":11473:11477   */\n      0x60\n        /* \"#utility.yul\":11466:11471   */\n      dup4\n        /* \"#utility.yul\":11462:11478   */\n      add\n        /* \"#utility.yul\":11456:11479   */\n      mload\n        /* \"#utility.yul\":11492:11555   */\n      tag_353\n        /* \"#utility.yul\":11549:11553   */\n      0x60\n        /* \"#utility.yul\":11544:11547   */\n      dup7\n        /* \"#utility.yul\":11540:11554   */\n      add\n        /* \"#utility.yul\":11526:11538   */\n      dup3\n        /* \"#utility.yul\":11492:11555   */\n      tag_199\n      jump\t// in\n    tag_353:\n        /* \"#utility.yul\":11397:11565   */\n      pop\n        /* \"#utility.yul\":11647:11651   */\n      0x80\n        /* \"#utility.yul\":11640:11645   */\n      dup4\n        /* \"#utility.yul\":11636:11652   */\n      add\n        /* \"#utility.yul\":11630:11653   */\n      mload\n        /* \"#utility.yul\":11666:11729   */\n      tag_354\n        /* \"#utility.yul\":11723:11727   */\n      0x80\n        /* \"#utility.yul\":11718:11721   */\n      dup7\n        /* \"#utility.yul\":11714:11728   */\n      add\n        /* \"#utility.yul\":11700:11712   */\n      dup3\n        /* \"#utility.yul\":11666:11729   */\n      tag_192\n      jump\t// in\n    tag_354:\n        /* \"#utility.yul\":11575:11739   */\n      pop\n        /* \"#utility.yul\":11821:11825   */\n      0xa0\n        /* \"#utility.yul\":11814:11819   */\n      dup4\n        /* \"#utility.yul\":11810:11826   */\n      add\n        /* \"#utility.yul\":11804:11827   */\n      mload\n        /* \"#utility.yul\":11840:11903   */\n      tag_355\n        /* \"#utility.yul\":11897:11901   */\n      0xa0\n        /* \"#utility.yul\":11892:11895   */\n      dup7\n        /* \"#utility.yul\":11888:11902   */\n      add\n        /* \"#utility.yul\":11874:11886   */\n      dup3\n        /* \"#utility.yul\":11840:11903   */\n      tag_192\n      jump\t// in\n    tag_355:\n        /* \"#utility.yul\":11749:11913   */\n      pop\n        /* \"#utility.yul\":11997:12001   */\n      0xc0\n        /* \"#utility.yul\":11990:11995   */\n      dup4\n        /* \"#utility.yul\":11986:12002   */\n      add\n        /* \"#utility.yul\":11980:12003   */\n      mload\n        /* \"#utility.yul\":12016:12087   */\n      tag_356\n        /* \"#utility.yul\":12081:12085   */\n      0xc0\n        /* \"#utility.yul\":12076:12079   */\n      dup7\n        /* \"#utility.yul\":12072:12086   */\n      add\n        /* \"#utility.yul\":12058:12070   */\n      dup3\n        /* \"#utility.yul\":12016:12087   */\n      tag_203\n      jump\t// in\n    tag_356:\n        /* \"#utility.yul\":11923:12097   */\n      pop\n        /* \"#utility.yul\":12186:12190   */\n      0xe0\n        /* \"#utility.yul\":12179:12184   */\n      dup4\n        /* \"#utility.yul\":12175:12191   */\n      add\n        /* \"#utility.yul\":12169:12192   */\n      mload\n        /* \"#utility.yul\":12205:12268   */\n      tag_357\n        /* \"#utility.yul\":12262:12266   */\n      0xe0\n        /* \"#utility.yul\":12257:12260   */\n      dup7\n        /* \"#utility.yul\":12253:12267   */\n      add\n        /* \"#utility.yul\":12239:12251   */\n      dup3\n        /* \"#utility.yul\":12205:12268   */\n      tag_192\n      jump\t// in\n    tag_357:\n        /* \"#utility.yul\":12107:12278   */\n      pop\n        /* \"#utility.yul\":12295:12299   */\n      dup1\n        /* \"#utility.yul\":12288:12299   */\n      swap2\n      pop\n        /* \"#utility.yul\":10679:12305   */\n      pop\n        /* \"#utility.yul\":10573:12305   */\n      swap3\n      swap2\n      pop\n      pop\n      jump\t// out\n        /* \"#utility.yul\":12311:12551   */\n    tag_212:\n        /* \"#utility.yul\":12422:12432   */\n      0x00\n        /* \"#utility.yul\":12457:12545   */\n      tag_359\n        /* \"#utility.yul\":12541:12544   */\n      dup4\n        /* \"#utility.yul\":12533:12539   */\n      dup4\n        /* \"#utility.yul\":12457:12545   */\n      tag_211\n      jump\t// in\n    tag_359:\n        /* \"#utility.yul\":12443:12545   */\n      swap1\n      pop\n        /* \"#utility.yul\":12311:12551   */\n      swap3\n      swap2\n      pop\n      pop\n      jump\t// out\n        /* \"#utility.yul\":12557:12691   */\n    tag_213:\n        /* \"#utility.yul\":12648:12652   */\n      0x00\n        /* \"#utility.yul\":12680:12684   */\n      0x20\n        /* \"#utility.yul\":12675:12678   */\n      dup3\n        /* \"#utility.yul\":12671:12685   */\n      add\n        /* \"#utility.yul\":12663:12685   */\n      swap1\n      pop\n        /* \"#utility.yul\":12557:12691   */\n      swap2\n      swap1\n      pop\n      jump\t// out\n        /* \"#utility.yul\":12753:13832   */\n    tag_214:\n        /* \"#utility.yul\":12914:12917   */\n      0x00\n        /* \"#utility.yul\":12943:13018   */\n      tag_362\n        /* \"#utility.yul\":13012:13017   */\n      dup3\n        /* \"#utility.yul\":12943:13018   */\n      tag_208\n      jump\t// in\n    tag_362:\n        /* \"#utility.yul\":13034:13141   */\n      tag_363\n        /* \"#utility.yul\":13134:13140   */\n      dup2\n        /* \"#utility.yul\":13129:13132   */\n      dup6\n        /* \"#utility.yul\":13034:13141   */\n      tag_209\n      jump\t// in\n    tag_363:\n        /* \"#utility.yul\":13027:13141   */\n      swap4\n      pop\n        /* \"#utility.yul\":13167:13170   */\n      dup4\n        /* \"#utility.yul\":13212:13216   */\n      0x20\n        /* \"#utility.yul\":13204:13210   */\n      dup3\n        /* \"#utility.yul\":13200:13217   */\n      mul\n        /* \"#utility.yul\":13195:13198   */\n      dup6\n        /* \"#utility.yul\":13191:13218   */\n      add\n        /* \"#utility.yul\":13242:13319   */\n      tag_364\n        /* \"#utility.yul\":13313:13318   */\n      dup6\n        /* \"#utility.yul\":13242:13319   */\n      tag_210\n      jump\t// in\n    tag_364:\n        /* \"#utility.yul\":13342:13349   */\n      dup1\n        /* \"#utility.yul\":13373:13374   */\n      0x00\n        /* \"#utility.yul\":13358:13787   */\n    tag_365:\n        /* \"#utility.yul\":13383:13389   */\n      dup6\n        /* \"#utility.yul\":13380:13381   */\n      dup2\n        /* \"#utility.yul\":13377:13390   */\n      lt\n        /* \"#utility.yul\":13358:13787   */\n      iszero\n      tag_367\n      jumpi\n        /* \"#utility.yul\":13454:13463   */\n      dup5\n        /* \"#utility.yul\":13448:13452   */\n      dup5\n        /* \"#utility.yul\":13444:13464   */\n      sub\n        /* \"#utility.yul\":13439:13442   */\n      dup10\n        /* \"#utility.yul\":13432:13465   */\n      mstore\n        /* \"#utility.yul\":13505:13511   */\n      dup2\n        /* \"#utility.yul\":13499:13512   */\n      mload\n        /* \"#utility.yul\":13533:13639   */\n      tag_368\n        /* \"#utility.yul\":13634:13638   */\n      dup6\n        /* \"#utility.yul\":13619:13632   */\n      dup3\n        /* \"#utility.yul\":13533:13639   */\n      tag_212\n      jump\t// in\n    tag_368:\n        /* \"#utility.yul\":13525:13639   */\n      swap5\n      pop\n        /* \"#utility.yul\":13662:13743   */\n      tag_369\n        /* \"#utility.yul\":13736:13742   */\n      dup4\n        /* \"#utility.yul\":13662:13743   */\n      tag_213\n      jump\t// in\n    tag_369:\n        /* \"#utility.yul\":13652:13743   */\n      swap3\n      pop\n        /* \"#utility.yul\":13772:13776   */\n      0x20\n        /* \"#utility.yul\":13767:13770   */\n      dup11\n        /* \"#utility.yul\":13763:13777   */\n      add\n        /* \"#utility.yul\":13756:13777   */\n      swap10\n      pop\n        /* \"#utility.yul\":13418:13787   */\n      pop\n        /* \"#utility.yul\":13405:13406   */\n      0x01\n        /* \"#utility.yul\":13402:13403   */\n      dup2\n        /* \"#utility.yul\":13398:13407   */\n      add\n        /* \"#utility.yul\":13393:13407   */\n      swap1\n      pop\n        /* \"#utility.yul\":13358:13787   */\n      jump(tag_365)\n    tag_367:\n        /* \"#utility.yul\":13362:13376   */\n      pop\n        /* \"#utility.yul\":13803:13807   */\n      dup3\n        /* \"#utility.yul\":13796:13807   */\n      swap8\n      pop\n        /* \"#utility.yul\":13823:13826   */\n      dup8\n        /* \"#utility.yul\":13816:13826   */\n      swap6\n      pop\n        /* \"#utility.yul\":12919:13832   */\n      pop\n      pop\n      pop\n      pop\n      pop\n        /* \"#utility.yul\":12753:13832   */\n      swap3\n      swap2\n      pop\n      pop\n      jump\t// out\n        /* \"#utility.yul\":13838:14295   */\n    tag_28:\n        /* \"#utility.yul\":14023:14027   */\n      0x00\n        /* \"#utility.yul\":14061:14063   */\n      0x20\n        /* \"#utility.yul\":14050:14059   */\n      dup3\n        /* \"#utility.yul\":14046:14064   */\n      add\n        /* \"#utility.yul\":14038:14064   */\n      swap1\n      pop\n        /* \"#utility.yul\":14110:14119   */\n      dup2\n        /* \"#utility.yul\":14104:14108   */\n      dup2\n        /* \"#utility.yul\":14100:14120   */\n      sub\n        /* \"#utility.yul\":14096:14097   */\n      0x00\n        /* \"#utility.yul\":14085:14094   */\n      dup4\n        /* \"#utility.yul\":14081:14098   */\n      add\n        /* \"#utility.yul\":14074:14121   */\n      mstore\n        /* \"#utility.yul\":14138:14288   */\n      tag_371\n        /* \"#utility.yul\":14283:14287   */\n      dup2\n        /* \"#utility.yul\":14274:14280   */\n      dup5\n        /* \"#utility.yul\":14138:14288   */\n      tag_214\n      jump\t// in\n    tag_371:\n        /* \"#utility.yul\":14130:14288   */\n      swap1\n      pop\n        /* \"#utility.yul\":13838:14295   */\n      swap3\n      swap2\n      pop\n      pop\n      jump\t// out\n        /* \"#utility.yul\":14301:14830   */\n    tag_31:\n        /* \"#utility.yul\":14372:14378   */\n      0x00\n        /* \"#utility.yul\":14380:14386   */\n      dup1\n        /* \"#utility.yul\":14429:14431   */\n      0x20\n        /* \"#utility.yul\":14417:14426   */\n      dup4\n        /* \"#utility.yul\":14408:14415   */\n      dup6\n        /* \"#utility.yul\":14404:14427   */\n      sub\n        /* \"#utility.yul\":14400:14432   */\n      slt\n        /* \"#utility.yul\":14397:14516   */\n      iszero\n      tag_373\n      jumpi\n        /* \"#utility.yul\":14435:14514   */\n      tag_374\n      tag_177\n      jump\t// in\n    tag_374:\n        /* \"#utility.yul\":14397:14516   */\n    tag_373:\n        /* \"#utility.yul\":14583:14584   */\n      0x00\n        /* \"#utility.yul\":14572:14581   */\n      dup4\n        /* \"#utility.yul\":14568:14585   */\n      add\n        /* \"#utility.yul\":14555:14586   */\n      calldataload\n        /* \"#utility.yul\":14613:14631   */\n      0xffffffffffffffff\n        /* \"#utility.yul\":14605:14611   */\n      dup2\n        /* \"#utility.yul\":14602:14632   */\n      gt\n        /* \"#utility.yul\":14599:14716   */\n      iszero\n      tag_375\n      jumpi\n        /* \"#utility.yul\":14635:14714   */\n      tag_376\n      tag_178\n      jump\t// in\n    tag_376:\n        /* \"#utility.yul\":14599:14716   */\n    tag_375:\n        /* \"#utility.yul\":14748:14813   */\n      tag_377\n        /* \"#utility.yul\":14805:14812   */\n      dup6\n        /* \"#utility.yul\":14796:14802   */\n      dup3\n        /* \"#utility.yul\":14785:14794   */\n      dup7\n        /* \"#utility.yul\":14781:14803   */\n      add\n        /* \"#utility.yul\":14748:14813   */\n      tag_182\n      jump\t// in\n    tag_377:\n        /* \"#utility.yul\":14730:14813   */\n      swap3\n      pop\n      swap3\n      pop\n        /* \"#utility.yul\":14526:14823   */\n      pop\n        /* \"#utility.yul\":14301:14830   */\n      swap3\n      pop\n      swap3\n      swap1\n      pop\n      jump\t// out\n        /* \"#utility.yul\":14836:14954   */\n    tag_215:\n        /* \"#utility.yul\":14923:14947   */\n      tag_379\n        /* \"#utility.yul\":14941:14946   */\n      dup2\n        /* \"#utility.yul\":14923:14947   */\n      tag_191\n      jump\t// in\n    tag_379:\n        /* \"#utility.yul\":14918:14921   */\n      dup3\n        /* \"#utility.yul\":14911:14948   */\n      mstore\n        /* \"#utility.yul\":14836:14954   */\n      pop\n      pop\n      jump\t// out\n        /* \"#utility.yul\":14960:15129   */\n    tag_216:\n        /* \"#utility.yul\":15044:15055   */\n      0x00\n        /* \"#utility.yul\":15078:15084   */\n      dup3\n        /* \"#utility.yul\":15073:15076   */\n      dup3\n        /* \"#utility.yul\":15066:15085   */\n      mstore\n        /* \"#utility.yul\":15118:15122   */\n      0x20\n        /* \"#utility.yul\":15113:15116   */\n      dup3\n        /* \"#utility.yul\":15109:15123   */\n      add\n        /* \"#utility.yul\":15094:15123   */\n      swap1\n      pop\n        /* \"#utility.yul\":14960:15129   */\n      swap3\n      swap2\n      pop\n      pop\n      jump\t// out\n        /* \"#utility.yul\":15135:15512   */\n    tag_217:\n        /* \"#utility.yul\":15223:15226   */\n      0x00\n        /* \"#utility.yul\":15251:15290   */\n      tag_382\n        /* \"#utility.yul\":15284:15289   */\n      dup3\n        /* \"#utility.yul\":15251:15290   */\n      tag_193\n      jump\t// in\n    tag_382:\n        /* \"#utility.yul\":15306:15377   */\n      tag_383\n        /* \"#utility.yul\":15370:15376   */\n      dup2\n        /* \"#utility.yul\":15365:15368   */\n      dup6\n        /* \"#utility.yul\":15306:15377   */\n      tag_216\n      jump\t// in\n    tag_383:\n        /* \"#utility.yul\":15299:15377   */\n      swap4\n      pop\n        /* \"#utility.yul\":15386:15451   */\n      tag_384\n        /* \"#utility.yul\":15444:15450   */\n      dup2\n        /* \"#utility.yul\":15439:15442   */\n      dup6\n        /* \"#utility.yul\":15432:15436   */\n      0x20\n        /* \"#utility.yul\":15425:15430   */\n      dup7\n        /* \"#utility.yul\":15421:15437   */\n      add\n        /* \"#utility.yul\":15386:15451   */\n      tag_195\n      jump\t// in\n    tag_384:\n        /* \"#utility.yul\":15476:15505   */\n      tag_385\n        /* \"#utility.yul\":15498:15504   */\n      dup2\n        /* \"#utility.yul\":15476:15505   */\n      tag_184\n      jump\t// in\n    tag_385:\n        /* \"#utility.yul\":15471:15474   */\n      dup5\n        /* \"#utility.yul\":15467:15506   */\n      add\n        /* \"#utility.yul\":15460:15506   */\n      swap2\n      pop\n        /* \"#utility.yul\":15227:15512   */\n      pop\n        /* \"#utility.yul\":15135:15512   */\n      swap3\n      swap2\n      pop\n      pop\n      jump\t// out\n        /* \"#utility.yul\":15518:15636   */\n    tag_218:\n        /* \"#utility.yul\":15605:15629   */\n      tag_387\n        /* \"#utility.yul\":15623:15628   */\n      dup2\n        /* \"#utility.yul\":15605:15629   */\n      tag_198\n      jump\t// in\n    tag_387:\n        /* \"#utility.yul\":15600:15603   */\n      dup3\n        /* \"#utility.yul\":15593:15630   */\n      mstore\n        /* \"#utility.yul\":15518:15636   */\n      pop\n      pop\n      jump\t// out\n        /* \"#utility.yul\":15642:15789   */\n    tag_219:\n        /* \"#utility.yul\":15737:15782   */\n      tag_389\n        /* \"#utility.yul\":15776:15781   */\n      dup2\n        /* \"#utility.yul\":15737:15782   */\n      tag_202\n      jump\t// in\n    tag_389:\n        /* \"#utility.yul\":15732:15735   */\n      dup3\n        /* \"#utility.yul\":15725:15783   */\n      mstore\n        /* \"#utility.yul\":15642:15789   */\n      pop\n      pop\n      jump\t// out\n        /* \"#utility.yul\":15795:16990   */\n    tag_40:\n        /* \"#utility.yul\":16132:16136   */\n      0x00\n        /* \"#utility.yul\":16170:16173   */\n      0x0100\n        /* \"#utility.yul\":16159:16168   */\n      dup3\n        /* \"#utility.yul\":16155:16174   */\n      add\n        /* \"#utility.yul\":16147:16174   */\n      swap1\n      pop\n        /* \"#utility.yul\":16184:16255   */\n      tag_391\n        /* \"#utility.yul\":16252:16253   */\n      0x00\n        /* \"#utility.yul\":16241:16250   */\n      dup4\n        /* \"#utility.yul\":16237:16254   */\n      add\n        /* \"#utility.yul\":16228:16234   */\n      dup12\n        /* \"#utility.yul\":16184:16255   */\n      tag_215\n      jump\t// in\n    tag_391:\n        /* \"#utility.yul\":16302:16311   */\n      dup2\n        /* \"#utility.yul\":16296:16300   */\n      dup2\n        /* \"#utility.yul\":16292:16312   */\n      sub\n        /* \"#utility.yul\":16287:16289   */\n      0x20\n        /* \"#utility.yul\":16276:16285   */\n      dup4\n        /* \"#utility.yul\":16272:16290   */\n      add\n        /* \"#utility.yul\":16265:16313   */\n      mstore\n        /* \"#utility.yul\":16330:16408   */\n      tag_392\n        /* \"#utility.yul\":16403:16407   */\n      dup2\n        /* \"#utility.yul\":16394:16400   */\n      dup11\n        /* \"#utility.yul\":16330:16408   */\n      tag_217\n      jump\t// in\n    tag_392:\n        /* \"#utility.yul\":16322:16408   */\n      swap1\n      pop\n        /* \"#utility.yul\":16455:16464   */\n      dup2\n        /* \"#utility.yul\":16449:16453   */\n      dup2\n        /* \"#utility.yul\":16445:16465   */\n      sub\n        /* \"#utility.yul\":16440:16442   */\n      0x40\n        /* \"#utility.yul\":16429:16438   */\n      dup4\n        /* \"#utility.yul\":16425:16443   */\n      add\n        /* \"#utility.yul\":16418:16466   */\n      mstore\n        /* \"#utility.yul\":16483:16561   */\n      tag_393\n        /* \"#utility.yul\":16556:16560   */\n      dup2\n        /* \"#utility.yul\":16547:16553   */\n      dup10\n        /* \"#utility.yul\":16483:16561   */\n      tag_217\n      jump\t// in\n    tag_393:\n        /* \"#utility.yul\":16475:16561   */\n      swap1\n      pop\n        /* \"#utility.yul\":16571:16643   */\n      tag_394\n        /* \"#utility.yul\":16639:16641   */\n      0x60\n        /* \"#utility.yul\":16628:16637   */\n      dup4\n        /* \"#utility.yul\":16624:16642   */\n      add\n        /* \"#utility.yul\":16615:16621   */\n      dup9\n        /* \"#utility.yul\":16571:16643   */\n      tag_218\n      jump\t// in\n    tag_394:\n        /* \"#utility.yul\":16653:16726   */\n      tag_395\n        /* \"#utility.yul\":16721:16724   */\n      0x80\n        /* \"#utility.yul\":16710:16719   */\n      dup4\n        /* \"#utility.yul\":16706:16725   */\n      add\n        /* \"#utility.yul\":16697:16703   */\n      dup8\n        /* \"#utility.yul\":16653:16726   */\n      tag_215\n      jump\t// in\n    tag_395:\n        /* \"#utility.yul\":16736:16809   */\n      tag_396\n        /* \"#utility.yul\":16804:16807   */\n      0xa0\n        /* \"#utility.yul\":16793:16802   */\n      dup4\n        /* \"#utility.yul\":16789:16808   */\n      add\n        /* \"#utility.yul\":16780:16786   */\n      dup7\n        /* \"#utility.yul\":16736:16809   */\n      tag_215\n      jump\t// in\n    tag_396:\n        /* \"#utility.yul\":16819:16900   */\n      tag_397\n        /* \"#utility.yul\":16895:16898   */\n      0xc0\n        /* \"#utility.yul\":16884:16893   */\n      dup4\n        /* \"#utility.yul\":16880:16899   */\n      add\n        /* \"#utility.yul\":16871:16877   */\n      dup6\n        /* \"#utility.yul\":16819:16900   */\n      tag_219\n      jump\t// in\n    tag_397:\n        /* \"#utility.yul\":16910:16983   */\n      tag_398\n        /* \"#utility.yul\":16978:16981   */\n      0xe0\n        /* \"#utility.yul\":16967:16976   */\n      dup4\n        /* \"#utility.yul\":16963:16982   */\n      add\n        /* \"#utility.yul\":16954:16960   */\n      dup5\n        /* \"#utility.yul\":16910:16983   */\n      tag_215\n      jump\t// in\n    tag_398:\n        /* \"#utility.yul\":15795:16990   */\n      swap10\n      swap9\n      pop\n      pop\n      pop\n      pop\n      pop\n      pop\n      pop\n      pop\n      pop\n      jump\t// out\n        /* \"#utility.yul\":16996:17176   */\n    tag_220:\n        /* \"#utility.yul\":17044:17121   */\n      0x4e487b7100000000000000000000000000000000000000000000000000000000\n        /* \"#utility.yul\":17041:17042   */\n      0x00\n        /* \"#utility.yul\":17034:17122   */\n      mstore\n        /* \"#utility.yul\":17141:17145   */\n      0x11\n        /* \"#utility.yul\":17138:17139   */\n      0x04\n        /* \"#utility.yul\":17131:17146   */\n      mstore\n        /* \"#utility.yul\":17165:17169   */\n      0x24\n        /* \"#utility.yul\":17162:17163   */\n      0x00\n        /* \"#utility.yul\":17155:17170   */\n      revert\n        /* \"#utility.yul\":17182:17415   */\n    tag_43:\n        /* \"#utility.yul\":17221:17224   */\n      0x00\n        /* \"#utility.yul\":17244:17268   */\n      tag_401\n        /* \"#utility.yul\":17262:17267   */\n      dup3\n        /* \"#utility.yul\":17244:17268   */\n      tag_191\n      jump\t// in\n    tag_401:\n        /* \"#utility.yul\":17235:17268   */\n      swap2\n      pop\n        /* \"#utility.yul\":17290:17356   */\n      0xffffffffffffffffffffffffffffffffffffffffffffffffffffffffffffffff\n        /* \"#utility.yul\":17283:17288   */\n      dup3\n        /* \"#utility.yul\":17280:17357   */\n      sub\n        /* \"#utility.yul\":17277:17380   */\n      tag_402\n      jumpi\n        /* \"#utility.yul\":17360:17378   */\n      tag_403\n      tag_220\n      jump\t// in\n    tag_403:\n        /* \"#utility.yul\":17277:17380   */\n    tag_402:\n        /* \"#utility.yul\":17407:17408   */\n      0x01\n        /* \"#utility.yul\":17400:17405   */\n      dup3\n        /* \"#utility.yul\":17396:17409   */\n      add\n        /* \"#utility.yul\":17389:17409   */\n      swap1\n      pop\n        /* \"#utility.yul\":17182:17415   */\n      swap2\n      swap1\n      pop\n      jump\t// out\n        /* \"#utility.yul\":17421:17569   */\n    tag_221:\n        /* \"#utility.yul\":17523:17534   */\n      0x00\n        /* \"#utility.yul\":17560:17563   */\n      dup2\n        /* \"#utility.yul\":17545:17563   */\n      swap1\n      pop\n        /* \"#utility.yul\":17421:17569   */\n      swap3\n      swap2\n      pop\n      pop\n      jump\t// out\n        /* \"#utility.yul\":17599:17929   */\n    tag_222:\n        /* \"#utility.yul\":17715:17718   */\n      0x00\n        /* \"#utility.yul\":17736:17825   */\n      tag_406\n        /* \"#utility.yul\":17818:17824   */\n      dup4\n        /* \"#utility.yul\":17813:17816   */\n      dup6\n        /* \"#utility.yul\":17736:17825   */\n      tag_221\n      jump\t// in\n    tag_406:\n        /* \"#utility.yul\":17729:17825   */\n      swap4\n      pop\n        /* \"#utility.yul\":17835:17891   */\n      tag_407\n        /* \"#utility.yul\":17884:17890   */\n      dup4\n        /* \"#utility.yul\":17879:17882   */\n      dup6\n        /* \"#utility.yul\":17872:17877   */\n      dup5\n        /* \"#utility.yul\":17835:17891   */\n      tag_188\n      jump\t// in\n    tag_407:\n        /* \"#utility.yul\":17916:17922   */\n      dup3\n        /* \"#utility.yul\":17911:17914   */\n      dup5\n        /* \"#utility.yul\":17907:17923   */\n      add\n        /* \"#utility.yul\":17900:17923   */\n      swap1\n      pop\n        /* \"#utility.yul\":17599:17929   */\n      swap4\n      swap3\n      pop\n      pop\n      pop\n      jump\t// out\n        /* \"#utility.yul\":17935:18230   */\n    tag_48:\n        /* \"#utility.yul\":18077:18080   */\n      0x00\n        /* \"#utility.yul\":18099:18204   */\n      tag_409\n        /* \"#utility.yul\":18200:18203   */\n      dup3\n        /* \"#utility.yul\":18191:18197   */\n      dup5\n        /* \"#utility.yul\":18183:18189   */\n      dup7\n        /* \"#utility.yul\":18099:18204   */\n      tag_222\n      jump\t// in\n    tag_409:\n        /* \"#utility.yul\":18092:18204   */\n      swap2\n      pop\n        /* \"#utility.yul\":18221:18224   */\n      dup2\n        /* \"#utility.yul\":18214:18224   */\n      swap1\n      pop\n        /* \"#utility.yul\":17935:18230   */\n      swap4\n      swap3\n      pop\n      pop\n      pop\n      jump\t// out\n        /* \"#utility.yul\":18236:18416   */\n    tag_223:\n        /* \"#utility.yul\":18284:18361   */\n      0x4e487b7100000000000000000000000000000000000000000000000000000000\n        /* \"#utility.yul\":18281:18282   */\n      0x00\n        /* \"#utility.yul\":18274:18362   */\n      mstore\n        /* \"#utility.yul\":18381:18385   */\n      0x22\n        /* \"#utility.yul\":18378:18379   */\n      0x04\n        /* \"#utility.yul\":18371:18386   */\n      mstore\n        /* \"#utility.yul\":18405:18409   */\n      0x24\n        /* \"#utility.yul\":18402:18403   */\n      0x00\n        /* \"#utility.yul\":18395:18410   */\n      revert\n        /* \"#utility.yul\":18422:18742   */\n    tag_63:\n        /* \"#utility.yul\":18466:18472   */\n      0x00\n        /* \"#utility.yul\":18503:18504   */\n      0x02\n        /* \"#utility.yul\":18497:18501   */\n      dup3\n        /* \"#utility.yul\":18493:18505   */\n      div\n        /* \"#utility.yul\":18483:18505   */\n      swap1\n      pop\n        /* \"#utility.yul\":18550:18551   */\n      0x01\n        /* \"#utility.yul\":18544:18548   */\n      dup3\n        /* \"#utility.yul\":18540:18552   */\n      and\n        /* \"#utility.yul\":18571:18589   */\n      dup1\n        /* \"#utility.yul\":18561:18642   */\n      tag_412\n      jumpi\n        /* \"#utility.yul\":18627:18631   */\n      0x7f\n        /* \"#utility.yul\":18619:18625   */\n      dup3\n        /* \"#utility.yul\":18615:18632   */\n      and\n        /* \"#utility.yul\":18605:18632   */\n      swap2\n      pop\n        /* \"#utility.yul\":18561:18642   */\n    tag_412:\n        /* \"#utility.yul\":18689:18691   */\n      0x20\n        /* \"#utility.yul\":18681:18687   */\n      dup3\n        /* \"#utility.yul\":18678:18692   */\n      lt\n        /* \"#utility.yul\":18658:18676   */\n      dup2\n        /* \"#utility.yul\":18655:18693   */\n      sub\n        /* \"#utility.yul\":18652:18736   */\n      tag_413\n      jumpi\n        /* \"#utility.yul\":18708:18726   */\n      tag_414\n      tag_223\n      jump\t// in\n    tag_414:\n        /* \"#utility.yul\":18652:18736   */\n    tag_413:\n        /* \"#utility.yul\":18473:18742   */\n      pop\n        /* \"#utility.yul\":18422:18742   */\n      swap2\n      swap1\n      pop\n      jump\t// out\n        /* \"#utility.yul\":18748:18889   */\n    tag_224:\n        /* \"#utility.yul\":18797:18801   */\n      0x00\n        /* \"#utility.yul\":18820:18823   */\n      dup2\n        /* \"#utility.yul\":18812:18823   */\n      swap1\n      pop\n        /* \"#utility.yul\":18843:18846   */\n      dup2\n        /* \"#utility.yul\":18840:18841   */\n      0x00\n        /* \"#utility.yul\":18833:18847   */\n      mstore\n        /* \"#utility.yul\":18877:18881   */\n      0x20\n        /* \"#utility.yul\":18874:18875   */\n      0x00\n        /* \"#utility.yul\":18864:18882   */\n      keccak256\n        /* \"#utility.yul\":18856:18882   */\n      swap1\n      pop\n        /* \"#utility.yul\":18748:18889   */\n      swap2\n      swap1\n      pop\n      jump\t// out\n        /* \"#utility.yul\":18895:18988   */\n    tag_225:\n        /* \"#utility.yul\":18932:18938   */\n      0x00\n        /* \"#utility.yul\":18979:18981   */\n      0x20\n        /* \"#utility.yul\":18974:18976   */\n      0x1f\n        /* \"#utility.yul\":18967:18972   */\n      dup4\n        /* \"#utility.yul\":18963:18977   */\n      add\n        /* \"#utility.yul\":18959:18982   */\n      div\n        /* \"#utility.yul\":18949:18982   */\n      swap1\n      pop\n        /* \"#utility.yul\":18895:18988   */\n      swap2\n      swap1\n      pop\n      jump\t// out\n        /* \"#utility.yul\":18994:19101   */\n    tag_226:\n        /* \"#utility.yul\":19038:19046   */\n      0x00\n        /* \"#utility.yul\":19088:19093   */\n      dup3\n        /* \"#utility.yul\":19082:19086   */\n      dup3\n        /* \"#utility.yul\":19078:19094   */\n      shl\n        /* \"#utility.yul\":19057:19094   */\n      swap1\n      pop\n        /* \"#utility.yul\":18994:19101   */\n      swap3\n      swap2\n      pop\n      pop\n      jump\t// out\n        /* \"#utility.yul\":19107:19500   */\n    tag_227:\n        /* \"#utility.yul\":19176:19182   */\n      0x00\n        /* \"#utility.yul\":19226:19227   */\n      0x08\n        /* \"#utility.yul\":19214:19224   */\n      dup4\n        /* \"#utility.yul\":19210:19228   */\n      mul\n        /* \"#utility.yul\":19249:19346   */\n      tag_419\n        /* \"#utility.yul\":19279:19345   */\n      0xffffffffffffffffffffffffffffffffffffffffffffffffffffffffffffffff\n        /* \"#utility.yul\":19268:19277   */\n      dup3\n        /* \"#utility.yul\":19249:19346   */\n      tag_226\n      jump\t// in\n    tag_419:\n        /* \"#utility.yul\":19367:19406   */\n      tag_420\n        /* \"#utility.yul\":19397:19405   */\n      dup7\n        /* \"#utility.yul\":19386:19395   */\n      dup4\n        /* \"#utility.yul\":19367:19406   */\n      tag_226\n      jump\t// in\n    tag_420:\n        /* \"#utility.yul\":19355:19406   */\n      swap6\n      pop\n        /* \"#utility.yul\":19439:19443   */\n      dup1\n        /* \"#utility.yul\":19435:19444   */\n      not\n        /* \"#utility.yul\":19428:19433   */\n      dup5\n        /* \"#utility.yul\":19424:19445   */\n      and\n        /* \"#utility.yul\":19415:19445   */\n      swap4\n      pop\n        /* \"#utility.yul\":19488:19492   */\n      dup1\n        /* \"#utility.yul\":19478:19486   */\n      dup7\n        /* \"#utility.yul\":19474:19493   */\n      and\n        /* \"#utility.yul\":19467:19472   */\n      dup5\n        /* \"#utility.yul\":19464:19494   */\n      or\n        /* \"#utility.yul\":19454:19494   */\n      swap3\n      pop\n        /* \"#utility.yul\":19183:19500   */\n      pop\n      pop\n        /* \"#utility.yul\":19107:19500   */\n      swap4\n      swap3\n      pop\n      pop\n      pop\n      jump\t// out\n        /* \"#utility.yul\":19506:19566   */\n    tag_228:\n        /* \"#utility.yul\":19534:19537   */\n      0x00\n        /* \"#utility.yul\":19555:19560   */\n      dup2\n        /* \"#utility.yul\":19548:19560   */\n      swap1\n      pop\n        /* \"#utility.yul\":19506:19566   */\n      swap2\n      swap1\n      pop\n      jump\t// out\n        /* \"#utility.yul\":19572:19714   */\n    tag_229:\n        /* \"#utility.yul\":19622:19631   */\n      0x00\n        /* \"#utility.yul\":19655:19708   */\n      tag_423\n        /* \"#utility.yul\":19673:19707   */\n      tag_424\n        /* \"#utility.yul\":19682:19706   */\n      tag_425\n        /* \"#utility.yul\":19700:19705   */\n      dup5\n        /* \"#utility.yul\":19682:19706   */\n      tag_191\n      jump\t// in\n    tag_425:\n        /* \"#utility.yul\":19673:19707   */\n      tag_228\n      jump\t// in\n    tag_424:\n        /* \"#utility.yul\":19655:19708   */\n      tag_191\n      jump\t// in\n    tag_423:\n        /* \"#utility.yul\":19642:19708   */\n      swap1\n      pop\n        /* \"#utility.yul\":19572:19714   */\n      swap2\n      swap1\n      pop\n      jump\t// out\n        /* \"#utility.yul\":19720:19795   */\n    tag_230:\n        /* \"#utility.yul\":19763:19766   */\n      0x00\n        /* \"#utility.yul\":19784:19789   */\n      dup2\n        /* \"#utility.yul\":19777:19789   */\n      swap1\n      pop\n        /* \"#utility.yul\":19720:19795   */\n      swap2\n      swap1\n      pop\n      jump\t// out\n        /* \"#utility.yul\":19801:20070   */\n    tag_231:\n        /* \"#utility.yul\":19911:19950   */\n      tag_428\n        /* \"#utility.yul\":19942:19949   */\n      dup4\n        /* \"#utility.yul\":19911:19950   */\n      tag_229\n      jump\t// in\n    tag_428:\n        /* \"#utility.yul\":19972:20063   */\n      tag_429\n        /* \"#utility.yul\":20021:20062   */\n      tag_430\n        /* \"#utility.yul\":20045:20061   */\n      dup3\n        /* \"#utility.yul\":20021:20062   */\n      tag_230\n      jump\t// in\n    tag_430:\n        /* \"#utility.yul\":20013:20019   */\n      dup5\n        /* \"#utility.yul\":20006:20010   */\n      dup5\n        /* \"#utility.yul\":20000:20011   */\n      sload\n        /* \"#utility.yul\":19972:20063   */\n      tag_227\n      jump\t// in\n    tag_429:\n        /* \"#utility.yul\":19966:19970   */\n      dup3\n        /* \"#utility.yul\":19959:20064   */\n      sstore\n        /* \"#utility.yul\":19877:20070   */\n      pop\n        /* \"#utility.yul\":19801:20070   */\n      pop\n      pop\n      pop\n      jump\t// out\n        /* \"#utility.yul\":20076:20149   */\n    tag_232:\n        /* \"#utility.yul\":20121:20124   */\n      0x00\n        /* \"#utility.yul\":20076:20149   */\n      swap1\n      jump\t// out\n        /* \"#utility.yul\":20155:20344   */\n    tag_233:\n        /* \"#utility.yul\":20232:20264   */\n      tag_433\n      tag_232\n      jump\t// in\n    tag_433:\n        /* \"#utility.yul\":20273:20338   */\n      tag_434\n        /* \"#utility.yul\":20331:20337   */\n      dup2\n        /* \"#utility.yul\":20323:20329   */\n      dup5\n        /* \"#utility.yul\":20317:20321   */\n      dup5\n        /* \"#utility.yul\":20273:20338   */\n      tag_231\n      jump\t// in\n    tag_434:\n        /* \"#utility.yul\":20208:20344   */\n      pop\n        /* \"#utility.yul\":20155:20344   */\n      pop\n      pop\n      jump\t// out\n        /* \"#utility.yul\":20350:20536   */\n    tag_234:\n        /* \"#utility.yul\":20410:20530   */\n    tag_436:\n        /* \"#utility.yul\":20427:20430   */\n      dup2\n        /* \"#utility.yul\":20420:20425   */\n      dup2\n        /* \"#utility.yul\":20417:20431   */\n      lt\n        /* \"#utility.yul\":20410:20530   */\n      iszero\n      tag_438\n      jumpi\n        /* \"#utility.yul\":20481:20520   */\n      tag_439\n        /* \"#utility.yul\":20518:20519   */\n      0x00\n        /* \"#utility.yul\":20511:20516   */\n      dup3\n        /* \"#utility.yul\":20481:20520   */\n      tag_233\n      jump\t// in\n    tag_439:\n        /* \"#utility.yul\":20454:20455   */\n      0x01\n        /* \"#utility.yul\":20447:20452   */\n      dup2\n        /* \"#utility.yul\":20443:20456   */\n      add\n        /* \"#utility.yul\":20434:20456   */\n      swap1\n      pop\n        /* \"#utility.yul\":20410:20530   */\n      jump(tag_436)\n    tag_438:\n        /* \"#utility.yul\":20350:20536   */\n      pop\n      pop\n      jump\t// out\n        /* \"#utility.yul\":20542:21085   */\n    tag_235:\n        /* \"#utility.yul\":20643:20645   */\n      0x1f\n        /* \"#utility.yul\":20638:20641   */\n      dup3\n        /* \"#utility.yul\":20635:20646   */\n      gt\n        /* \"#utility.yul\":20632:21078   */\n      iszero\n      tag_441\n      jumpi\n        /* \"#utility.yul\":20677:20715   */\n      tag_442\n        /* \"#utility.yul\":20709:20714   */\n      dup2\n        /* \"#utility.yul\":20677:20715   */\n      tag_224\n      jump\t// in\n    tag_442:\n        /* \"#utility.yul\":20761:20790   */\n      tag_443\n        /* \"#utility.yul\":20779:20789   */\n      dup5\n        /* \"#utility.yul\":20761:20790   */\n      tag_225\n      jump\t// in\n    tag_443:\n        /* \"#utility.yul\":20751:20759   */\n      dup2\n        /* \"#utility.yul\":20747:20791   */\n      add\n        /* \"#utility.yul\":20944:20946   */\n      0x20\n        /* \"#utility.yul\":20932:20942   */\n      dup6\n        /* \"#utility.yul\":20929:20947   */\n      lt\n        /* \"#utility.yul\":20926:20975   */\n      iszero\n      tag_444\n      jumpi\n        /* \"#utility.yul\":20965:20973   */\n      dup2\n        /* \"#utility.yul\":20950:20973   */\n      swap1\n      pop\n        /* \"#utility.yul\":20926:20975   */\n    tag_444:\n        /* \"#utility.yul\":20988:21068   */\n      tag_445\n        /* \"#utility.yul\":21044:21066   */\n      tag_446\n        /* \"#utility.yul\":21062:21065   */\n      dup6\n        /* \"#utility.yul\":21044:21066   */\n      tag_225\n      jump\t// in\n    tag_446:\n        /* \"#utility.yul\":21034:21042   */\n      dup4\n        /* \"#utility.yul\":21030:21067   */\n      add\n        /* \"#utility.yul\":21017:21028   */\n      dup3\n        /* \"#utility.yul\":20988:21068   */\n      tag_234\n      jump\t// in\n    tag_445:\n        /* \"#utility.yul\":20647:21078   */\n      pop\n      pop\n        /* \"#utility.yul\":20632:21078   */\n    tag_441:\n        /* \"#utility.yul\":20542:21085   */\n      pop\n      pop\n      pop\n      jump\t// out\n        /* \"#utility.yul\":21091:21208   */\n    tag_236:\n        /* \"#utility.yul\":21145:21153   */\n      0x00\n        /* \"#utility.yul\":21195:21200   */\n      dup3\n        /* \"#utility.yul\":21189:21193   */\n      dup3\n        /* \"#utility.yul\":21185:21201   */\n      shr\n        /* \"#utility.yul\":21164:21201   */\n      swap1\n      pop\n        /* \"#utility.yul\":21091:21208   */\n      swap3\n      swap2\n      pop\n      pop\n      jump\t// out\n        /* \"#utility.yul\":21214:21383   */\n    tag_237:\n        /* \"#utility.yul\":21258:21264   */\n      0x00\n        /* \"#utility.yul\":21291:21342   */\n      tag_449\n        /* \"#utility.yul\":21339:21340   */\n      0x00\n        /* \"#utility.yul\":21335:21341   */\n      not\n        /* \"#utility.yul\":21327:21332   */\n      dup5\n        /* \"#utility.yul\":21324:21325   */\n      0x08\n        /* \"#utility.yul\":21320:21333   */\n      mul\n        /* \"#utility.yul\":21291:21342   */\n      tag_236\n      jump\t// in\n    tag_449:\n        /* \"#utility.yul\":21287:21343   */\n      not\n        /* \"#utility.yul\":21372:21376   */\n      dup1\n        /* \"#utility.yul\":21366:21370   */\n      dup4\n        /* \"#utility.yul\":21362:21377   */\n      and\n        /* \"#utility.yul\":21352:21377   */\n      swap2\n      pop\n        /* \"#utility.yul\":21265:21383   */\n      pop\n        /* \"#utility.yul\":21214:21383   */\n      swap3\n      swap2\n      pop\n      pop\n      jump\t// out\n        /* \"#utility.yul\":21388:21683   */\n    tag_238:\n        /* \"#utility.yul\":21464:21468   */\n      0x00\n        /* \"#utility.yul\":21610:21639   */\n      tag_451\n        /* \"#utility.yul\":21635:21638   */\n      dup4\n        /* \"#utility.yul\":21629:21633   */\n      dup4\n        /* \"#utility.yul\":21610:21639   */\n      tag_237\n      jump\t// in\n    tag_451:\n        /* \"#utility.yul\":21602:21639   */\n      swap2\n      pop\n        /* \"#utility.yul\":21672:21675   */\n      dup3\n        /* \"#utility.yul\":21669:21670   */\n      0x02\n        /* \"#utility.yul\":21665:21676   */\n      mul\n        /* \"#utility.yul\":21659:21663   */\n      dup3\n        /* \"#utility.yul\":21656:21677   */\n      or\n        /* \"#utility.yul\":21648:21677   */\n      swap1\n      pop\n        /* \"#utility.yul\":21388:21683   */\n      swap3\n      swap2\n      pop\n      pop\n      jump\t// out\n        /* \"#utility.yul\":21688:23083   */\n    tag_50:\n        /* \"#utility.yul\":21805:21842   */\n      tag_453\n        /* \"#utility.yul\":21838:21841   */\n      dup3\n        /* \"#utility.yul\":21805:21842   */\n      tag_193\n      jump\t// in\n    tag_453:\n        /* \"#utility.yul\":21907:21925   */\n      0xffffffffffffffff\n        /* \"#utility.yul\":21899:21905   */\n      dup2\n        /* \"#utility.yul\":21896:21926   */\n      gt\n        /* \"#utility.yul\":21893:21949   */\n      iszero\n      tag_454\n      jumpi\n        /* \"#utility.yul\":21929:21947   */\n      tag_455\n      tag_110\n      jump\t// in\n    tag_455:\n        /* \"#utility.yul\":21893:21949   */\n    tag_454:\n        /* \"#utility.yul\":21973:22011   */\n      tag_456\n        /* \"#utility.yul\":22005:22009   */\n      dup3\n        /* \"#utility.yul\":21999:22010   */\n      sload\n        /* \"#utility.yul\":21973:22011   */\n      tag_63\n      jump\t// in\n    tag_456:\n        /* \"#utility.yul\":22058:22125   */\n      tag_457\n        /* \"#utility.yul\":22118:22124   */\n      dup3\n        /* \"#utility.yul\":22110:22116   */\n      dup3\n        /* \"#utility.yul\":22104:22108   */\n      dup6\n        /* \"#utility.yul\":22058:22125   */\n      tag_235\n      jump\t// in\n    tag_457:\n        /* \"#utility.yul\":22152:22153   */\n      0x00\n        /* \"#utility.yul\":22176:22180   */\n      0x20\n        /* \"#utility.yul\":22163:22180   */\n      swap1\n      pop\n        /* \"#utility.yul\":22208:22210   */\n      0x1f\n        /* \"#utility.yul\":22200:22206   */\n      dup4\n        /* \"#utility.yul\":22197:22211   */\n      gt\n        /* \"#utility.yul\":22225:22226   */\n      0x01\n        /* \"#utility.yul\":22220:22838   */\n      dup2\n      eq\n      tag_459\n      jumpi\n        /* \"#utility.yul\":22882:22883   */\n      0x00\n        /* \"#utility.yul\":22899:22905   */\n      dup5\n        /* \"#utility.yul\":22896:22973   */\n      iszero\n      tag_460\n      jumpi\n        /* \"#utility.yul\":22948:22957   */\n      dup3\n        /* \"#utility.yul\":22943:22946   */\n      dup8\n        /* \"#utility.yul\":22939:22958   */\n      add\n        /* \"#utility.yul\":22933:22959   */\n      mload\n        /* \"#utility.yul\":22924:22959   */\n      swap1\n      pop\n        /* \"#utility.yul\":22896:22973   */\n    tag_460:\n        /* \"#utility.yul\":22999:23066   */\n      tag_461\n        /* \"#utility.yul\":23059:23065   */\n      dup6\n        /* \"#utility.yul\":23052:23057   */\n      dup3\n        /* \"#utility.yul\":22999:23066   */\n      tag_238\n      jump\t// in\n    tag_461:\n        /* \"#utility.yul\":22993:22997   */\n      dup7\n        /* \"#utility.yul\":22986:23067   */\n      sstore\n        /* \"#utility.yul\":22855:23077   */\n      pop\n        /* \"#utility.yul\":22190:23077   */\n      jump(tag_458)\n        /* \"#utility.yul\":22220:22838   */\n    tag_459:\n        /* \"#utility.yul\":22272:22276   */\n      0x1f\n        /* \"#utility.yul\":22268:22277   */\n      not\n        /* \"#utility.yul\":22260:22266   */\n      dup5\n        /* \"#utility.yul\":22256:22278   */\n      and\n        /* \"#utility.yul\":22306:22343   */\n      tag_462\n        /* \"#utility.yul\":22338:22342   */\n      dup7\n        /* \"#utility.yul\":22306:22343   */\n      tag_224\n      jump\t// in\n    tag_462:\n        /* \"#utility.yul\":22365:22366   */\n      0x00\n        /* \"#utility.yul\":22379:22587   */\n    tag_463:\n        /* \"#utility.yul\":22393:22400   */\n      dup3\n        /* \"#utility.yul\":22390:22391   */\n      dup2\n        /* \"#utility.yul\":22387:22401   */\n      lt\n        /* \"#utility.yul\":22379:22587   */\n      iszero\n      tag_465\n      jumpi\n        /* \"#utility.yul\":22472:22481   */\n      dup5\n        /* \"#utility.yul\":22467:22470   */\n      dup10\n        /* \"#utility.yul\":22463:22482   */\n      add\n        /* \"#utility.yul\":22457:22483   */\n      mload\n        /* \"#utility.yul\":22449:22455   */\n      dup3\n        /* \"#utility.yul\":22442:22484   */\n      sstore\n        /* \"#utility.yul\":22523:22524   */\n      0x01\n        /* \"#utility.yul\":22515:22521   */\n      dup3\n        /* \"#utility.yul\":22511:22525   */\n      add\n        /* \"#utility.yul\":22501:22525   */\n      swap2\n      pop\n        /* \"#utility.yul\":22570:22572   */\n      0x20\n        /* \"#utility.yul\":22559:22568   */\n      dup6\n        /* \"#utility.yul\":22555:22573   */\n      add\n        /* \"#utility.yul\":22542:22573   */\n      swap5\n      pop\n        /* \"#utility.yul\":22416:22420   */\n      0x20\n        /* \"#utility.yul\":22413:22414   */\n      dup2\n        /* \"#utility.yul\":22409:22421   */\n      add\n        /* \"#utility.yul\":22404:22421   */\n      swap1\n      pop\n        /* \"#utility.yul\":22379:22587   */\n      jump(tag_463)\n    tag_465:\n        /* \"#utility.yul\":22615:22621   */\n      dup7\n        /* \"#utility.yul\":22606:22613   */\n      dup4\n        /* \"#utility.yul\":22603:22622   */\n      lt\n        /* \"#utility.yul\":22600:22779   */\n      iszero\n      tag_466\n      jumpi\n        /* \"#utility.yul\":22673:22682   */\n      dup5\n        /* \"#utility.yul\":22668:22671   */\n      dup10\n        /* \"#utility.yul\":22664:22683   */\n      add\n        /* \"#utility.yul\":22658:22684   */\n      mload\n        /* \"#utility.yul\":22716:22764   */\n      tag_467\n        /* \"#utility.yul\":22758:22762   */\n      0x1f\n        /* \"#utility.yul\":22750:22756   */\n      dup10\n        /* \"#utility.yul\":22746:22763   */\n      and\n        /* \"#utility.yul\":22735:22744   */\n      dup3\n        /* \"#utility.yul\":22716:22764   */\n      tag_237\n      jump\t// in\n    tag_467:\n        /* \"#utility.yul\":22708:22714   */\n      dup4\n        /* \"#utility.yul\":22701:22765   */\n      sstore\n        /* \"#utility.yul\":22623:22779   */\n      pop\n        /* \"#utility.yul\":22600:22779   */\n    tag_466:\n        /* \"#utility.yul\":22825:22826   */\n      0x01\n        /* \"#utility.yul\":22821:22822   */\n      0x02\n        /* \"#utility.yul\":22813:22819   */\n      dup9\n        /* \"#utility.yul\":22809:22823   */\n      mul\n        /* \"#utility.yul\":22805:22827   */\n      add\n        /* \"#utility.yul\":22799:22803   */\n      dup9\n        /* \"#utility.yul\":22792:22828   */\n      sstore\n        /* \"#utility.yul\":22227:22838   */\n      pop\n      pop\n      pop\n        /* \"#utility.yul\":22190:23077   */\n    tag_458:\n      pop\n        /* \"#utility.yul\":21780:23083   */\n      pop\n      pop\n      pop\n        /* \"#utility.yul\":21688:23083   */\n      pop\n      pop\n      jump\t// out\n        /* \"#utility.yul\":23089:23186   */\n    tag_239:\n        /* \"#utility.yul\":23148:23154   */\n      0x00\n        /* \"#utility.yul\":23176:23179   */\n      dup3\n        /* \"#utility.yul\":23166:23179   */\n      swap1\n      pop\n        /* \"#utility.yul\":23089:23186   */\n      swap3\n      swap2\n      pop\n      pop\n      jump\t// out\n        /* \"#utility.yul\":23192:24595   */\n    tag_56:\n        /* \"#utility.yul\":23316:23360   */\n      tag_470\n        /* \"#utility.yul\":23356:23359   */\n      dup4\n        /* \"#utility.yul\":23351:23354   */\n      dup4\n        /* \"#utility.yul\":23316:23360   */\n      tag_239\n      jump\t// in\n    tag_470:\n        /* \"#utility.yul\":23425:23443   */\n      0xffffffffffffffff\n        /* \"#utility.yul\":23417:23423   */\n      dup2\n        /* \"#utility.yul\":23414:23444   */\n      gt\n        /* \"#utility.yul\":23411:23467   */\n      iszero\n      tag_471\n      jumpi\n        /* \"#utility.yul\":23447:23465   */\n      tag_472\n      tag_110\n      jump\t// in\n    tag_472:\n        /* \"#utility.yul\":23411:23467   */\n    tag_471:\n        /* \"#utility.yul\":23491:23529   */\n      tag_473\n        /* \"#utility.yul\":23523:23527   */\n      dup3\n        /* \"#utility.yul\":23517:23528   */\n      sload\n        /* \"#utility.yul\":23491:23529   */\n      tag_63\n      jump\t// in\n    tag_473:\n        /* \"#utility.yul\":23576:23643   */\n      tag_474\n        /* \"#utility.yul\":23636:23642   */\n      dup3\n        /* \"#utility.yul\":23628:23634   */\n      dup3\n        /* \"#utility.yul\":23622:23626   */\n      dup6\n        /* \"#utility.yul\":23576:23643   */\n      tag_235\n      jump\t// in\n    tag_474:\n        /* \"#utility.yul\":23670:23671   */\n      0x00\n        /* \"#utility.yul\":23699:23701   */\n      0x1f\n        /* \"#utility.yul\":23691:23697   */\n      dup4\n        /* \"#utility.yul\":23688:23702   */\n      gt\n        /* \"#utility.yul\":23716:23717   */\n      0x01\n        /* \"#utility.yul\":23711:24343   */\n      dup2\n      eq\n      tag_476\n      jumpi\n        /* \"#utility.yul\":24387:24388   */\n      0x00\n        /* \"#utility.yul\":24404:24410   */\n      dup5\n        /* \"#utility.yul\":24401:24485   */\n      iszero\n      tag_477\n      jumpi\n        /* \"#utility.yul\":24460:24469   */\n      dup3\n        /* \"#utility.yul\":24455:24458   */\n      dup8\n        /* \"#utility.yul\":24451:24470   */\n      add\n        /* \"#utility.yul\":24438:24471   */\n      calldataload\n        /* \"#utility.yul\":24429:24471   */\n      swap1\n      pop\n        /* \"#utility.yul\":24401:24485   */\n    tag_477:\n        /* \"#utility.yul\":24511:24578   */\n      tag_478\n        /* \"#utility.yul\":24571:24577   */\n      dup6\n        /* \"#utility.yul\":24564:24569   */\n      dup3\n        /* \"#utility.yul\":24511:24578   */\n      tag_238\n      jump\t// in\n    tag_478:\n        /* \"#utility.yul\":24505:24509   */\n      dup7\n        /* \"#utility.yul\":24498:24579   */\n      sstore\n        /* \"#utility.yul\":24360:24589   */\n      pop\n        /* \"#utility.yul\":23681:24589   */\n      jump(tag_475)\n        /* \"#utility.yul\":23711:24343   */\n    tag_476:\n        /* \"#utility.yul\":23763:23767   */\n      0x1f\n        /* \"#utility.yul\":23759:23768   */\n      not\n        /* \"#utility.yul\":23751:23757   */\n      dup5\n        /* \"#utility.yul\":23747:23769   */\n      and\n        /* \"#utility.yul\":23797:23834   */\n      tag_479\n        /* \"#utility.yul\":23829:23833   */\n      dup7\n        /* \"#utility.yul\":23797:23834   */\n      tag_224\n      jump\t// in\n    tag_479:\n        /* \"#utility.yul\":23856:23857   */\n      0x00\n        /* \"#utility.yul\":23870:24085   */\n    tag_480:\n        /* \"#utility.yul\":23884:23891   */\n      dup3\n        /* \"#utility.yul\":23881:23882   */\n      dup2\n        /* \"#utility.yul\":23878:23892   */\n      lt\n        /* \"#utility.yul\":23870:24085   */\n      iszero\n      tag_482\n      jumpi\n        /* \"#utility.yul\":23970:23979   */\n      dup5\n        /* \"#utility.yul\":23965:23968   */\n      dup10\n        /* \"#utility.yul\":23961:23980   */\n      add\n        /* \"#utility.yul\":23948:23981   */\n      calldataload\n        /* \"#utility.yul\":23940:23946   */\n      dup3\n        /* \"#utility.yul\":23933:23982   */\n      sstore\n        /* \"#utility.yul\":24021:24022   */\n      0x01\n        /* \"#utility.yul\":24013:24019   */\n      dup3\n        /* \"#utility.yul\":24009:24023   */\n      add\n        /* \"#utility.yul\":23999:24023   */\n      swap2\n      pop\n        /* \"#utility.yul\":24068:24070   */\n      0x20\n        /* \"#utility.yul\":24057:24066   */\n      dup6\n        /* \"#utility.yul\":24053:24071   */\n      add\n        /* \"#utility.yul\":24040:24071   */\n      swap5\n      pop\n        /* \"#utility.yul\":23907:23911   */\n      0x20\n        /* \"#utility.yul\":23904:23905   */\n      dup2\n        /* \"#utility.yul\":23900:23912   */\n      add\n        /* \"#utility.yul\":23895:23912   */\n      swap1\n      pop\n        /* \"#utility.yul\":23870:24085   */\n      jump(tag_480)\n    tag_482:\n        /* \"#utility.yul\":24113:24119   */\n      dup7\n        /* \"#utility.yul\":24104:24111   */\n      dup4\n        /* \"#utility.yul\":24101:24120   */\n      lt\n        /* \"#utility.yul\":24098:24284   */\n      iszero\n      tag_483\n      jumpi\n        /* \"#utility.yul\":24178:24187   */\n      dup5\n        /* \"#utility.yul\":24173:24176   */\n      dup10\n        /* \"#utility.yul\":24169:24188   */\n      add\n        /* \"#utility.yul\":24156:24189   */\n      calldataload\n        /* \"#utility.yul\":24221:24269   */\n      tag_484\n        /* \"#utility.yul\":24263:24267   */\n      0x1f\n        /* \"#utility.yul\":24255:24261   */\n      dup10\n        /* \"#utility.yul\":24251:24268   */\n      and\n        /* \"#utility.yul\":24240:24249   */\n      dup3\n        /* \"#utility.yul\":24221:24269   */\n      tag_237\n      jump\t// in\n    tag_484:\n        /* \"#utility.yul\":24213:24219   */\n      dup4\n        /* \"#utility.yul\":24206:24270   */\n      sstore\n        /* \"#utility.yul\":24121:24284   */\n      pop\n        /* \"#utility.yul\":24098:24284   */\n    tag_483:\n        /* \"#utility.yul\":24330:24331   */\n      0x01\n        /* \"#utility.yul\":24326:24327   */\n      0x02\n        /* \"#utility.yul\":24318:24324   */\n      dup9\n        /* \"#utility.yul\":24314:24328   */\n      mul\n        /* \"#utility.yul\":24310:24332   */\n      add\n        /* \"#utility.yul\":24304:24308   */\n      dup9\n        /* \"#utility.yul\":24297:24333   */\n      sstore\n        /* \"#utility.yul\":23718:24343   */\n      pop\n      pop\n      pop\n        /* \"#utility.yul\":23681:24589   */\n    tag_475:\n      pop\n        /* \"#utility.yul\":23291:24595   */\n      pop\n      pop\n      pop\n        /* \"#utility.yul\":23192:24595   */\n      pop\n      pop\n      pop\n      jump\t// out\n        /* \"#utility.yul\":24601:24991   */\n    tag_240:\n        /* \"#utility.yul\":24707:24710   */\n      0x00\n        /* \"#utility.yul\":24735:24774   */\n      tag_486\n        /* \"#utility.yul\":24768:24773   */\n      dup3\n        /* \"#utility.yul\":24735:24774   */\n      tag_193\n      jump\t// in\n    tag_486:\n        /* \"#utility.yul\":24790:24879   */\n      tag_487\n        /* \"#utility.yul\":24872:24878   */\n      dup2\n        /* \"#utility.yul\":24867:24870   */\n      dup6\n        /* \"#utility.yul\":24790:24879   */\n      tag_221\n      jump\t// in\n    tag_487:\n        /* \"#utility.yul\":24783:24879   */\n      swap4\n      pop\n        /* \"#utility.yul\":24888:24953   */\n      tag_488\n        /* \"#utility.yul\":24946:24952   */\n      dup2\n        /* \"#utility.yul\":24941:24944   */\n      dup6\n        /* \"#utility.yul\":24934:24938   */\n      0x20\n        /* \"#utility.yul\":24927:24932   */\n      dup7\n        /* \"#utility.yul\":24923:24939   */\n      add\n        /* \"#utility.yul\":24888:24953   */\n      tag_195\n      jump\t// in\n    tag_488:\n        /* \"#utility.yul\":24978:24984   */\n      dup1\n        /* \"#utility.yul\":24973:24976   */\n      dup5\n        /* \"#utility.yul\":24969:24985   */\n      add\n        /* \"#utility.yul\":24962:24985   */\n      swap2\n      pop\n        /* \"#utility.yul\":24711:24991   */\n      pop\n        /* \"#utility.yul\":24601:24991   */\n      swap3\n      swap2\n      pop\n      pop\n      jump\t// out\n        /* \"#utility.yul\":24997:25272   */\n    tag_61:\n        /* \"#utility.yul\":25129:25132   */\n      0x00\n        /* \"#utility.yul\":25151:25246   */\n      tag_490\n        /* \"#utility.yul\":25242:25245   */\n      dup3\n        /* \"#utility.yul\":25233:25239   */\n      dup5\n        /* \"#utility.yul\":25151:25246   */\n      tag_240\n      jump\t// in\n    tag_490:\n        /* \"#utility.yul\":25144:25246   */\n      swap2\n      pop\n        /* \"#utility.yul\":25263:25266   */\n      dup2\n        /* \"#utility.yul\":25256:25266   */\n      swap1\n      pop\n        /* \"#utility.yul\":24997:25272   */\n      swap3\n      swap2\n      pop\n      pop\n      jump\t// out\n        /* \"#utility.yul\":25278:25469   */\n    tag_83:\n        /* \"#utility.yul\":25318:25321   */\n      0x00\n        /* \"#utility.yul\":25337:25357   */\n      tag_492\n        /* \"#utility.yul\":25355:25356   */\n      dup3\n        /* \"#utility.yul\":25337:25357   */\n      tag_191\n      jump\t// in\n    tag_492:\n        /* \"#utility.yul\":25332:25357   */\n      swap2\n      pop\n        /* \"#utility.yul\":25371:25391   */\n      tag_493\n        /* \"#utility.yul\":25389:25390   */\n      dup4\n        /* \"#utility.yul\":25371:25391   */\n      tag_191\n      jump\t// in\n    tag_493:\n        /* \"#utility.yul\":25366:25391   */\n      swap3\n      pop\n        /* \"#utility.yul\":25414:25415   */\n      dup3\n        /* \"#utility.yul\":25411:25412   */\n      dup3\n        /* \"#utility.yul\":25407:25416   */\n      add\n        /* \"#utility.yul\":25400:25416   */\n      swap1\n      pop\n        /* \"#utility.yul\":25435:25438   */\n      dup1\n        /* \"#utility.yul\":25432:25433   */\n      dup3\n        /* \"#utility.yul\":25429:25439   */\n      gt\n        /* \"#utility.yul\":25426:25462   */\n      iszero\n      tag_494\n      jumpi\n        /* \"#utility.yul\":25442:25460   */\n      tag_495\n      tag_220\n      jump\t// in\n    tag_495:\n        /* \"#utility.yul\":25426:25462   */\n    tag_494:\n        /* \"#utility.yul\":25278:25469   */\n      swap3\n      swap2\n      pop\n      pop\n      jump\t// out\n        /* \"#utility.yul\":25475:25655   */\n    tag_119:\n        /* \"#utility.yul\":25523:25600   */\n      0x4e487b7100000000000000000000000000000000000000000000000000000000\n        /* \"#utility.yul\":25520:25521   */\n      0x00\n        /* \"#utility.yul\":25513:25601   */\n      mstore\n        /* \"#utility.yul\":25620:25624   */\n      0x32\n        /* \"#utility.yul\":25617:25618   */\n      0x04\n        /* \"#utility.yul\":25610:25625   */\n      mstore\n        /* \"#utility.yul\":25644:25648   */\n      0x24\n        /* \"#utility.yul\":25641:25642   */\n      0x00\n        /* \"#utility.yul\":25634:25649   */\n      revert\n        /* \"#utility.yul\":25661:26071   */\n    tag_145:\n        /* \"#utility.yul\":25701:25708   */\n      0x00\n        /* \"#utility.yul\":25724:25744   */\n      tag_498\n        /* \"#utility.yul\":25742:25743   */\n      dup3\n        /* \"#utility.yul\":25724:25744   */\n      tag_191\n      jump\t// in\n    tag_498:\n        /* \"#utility.yul\":25719:25744   */\n      swap2\n      pop\n        /* \"#utility.yul\":25758:25778   */\n      tag_499\n        /* \"#utility.yul\":25776:25777   */\n      dup4\n        /* \"#utility.yul\":25758:25778   */\n      tag_191\n      jump\t// in\n    tag_499:\n        /* \"#utility.yul\":25753:25778   */\n      swap3\n      pop\n        /* \"#utility.yul\":25813:25814   */\n      dup3\n        /* \"#utility.yul\":25810:25811   */\n      dup3\n        /* \"#utility.yul\":25806:25815   */\n      mul\n        /* \"#utility.yul\":25835:25865   */\n      tag_500\n        /* \"#utility.yul\":25853:25864   */\n      dup2\n        /* \"#utility.yul\":25835:25865   */\n      tag_191\n      jump\t// in\n    tag_500:\n        /* \"#utility.yul\":25824:25865   */\n      swap2\n      pop\n        /* \"#utility.yul\":26014:26015   */\n      dup3\n        /* \"#utility.yul\":26005:26012   */\n      dup3\n        /* \"#utility.yul\":26001:26016   */\n      div\n        /* \"#utility.yul\":25998:25999   */\n      dup5\n        /* \"#utility.yul\":25995:26017   */\n      eq\n        /* \"#utility.yul\":25975:25976   */\n      dup4\n        /* \"#utility.yul\":25968:25977   */\n      iszero\n        /* \"#utility.yul\":25948:26031   */\n      or\n        /* \"#utility.yul\":25925:26064   */\n      tag_501\n      jumpi\n        /* \"#utility.yul\":26044:26062   */\n      tag_502\n      tag_220\n      jump\t// in\n    tag_502:\n        /* \"#utility.yul\":25925:26064   */\n    tag_501:\n        /* \"#utility.yul\":25709:26071   */\n      pop\n        /* \"#utility.yul\":25661:26071   */\n      swap3\n      swap2\n      pop\n      pop\n      jump\t// out\n        /* \"#utility.yul\":26077:26257   */\n    tag_241:\n        /* \"#utility.yul\":26125:26202   */\n      0x4e487b7100000000000000000000000000000000000000000000000000000000\n        /* \"#utility.yul\":26122:26123   */\n      0x00\n        /* \"#utility.yul\":26115:26203   */\n      mstore\n        /* \"#utility.yul\":26222:26226   */\n      0x12\n        /* \"#utility.yul\":26219:26220   */\n      0x04\n        /* \"#utility.yul\":26212:26227   */\n      mstore\n        /* \"#utility.yul\":26246:26250   */\n      0x24\n        /* \"#utility.yul\":26243:26244   */\n      0x00\n        /* \"#utility.yul\":26236:26251   */\n      revert\n        /* \"#utility.yul\":26263:26448   */\n    tag_147:\n        /* \"#utility.yul\":26303:26304   */\n      0x00\n        /* \"#utility.yul\":26320:26340   */\n      tag_505\n        /* \"#utility.yul\":26338:26339   */\n      dup3\n        /* \"#utility.yul\":26320:26340   */\n      tag_191\n      jump\t// in\n    tag_505:\n        /* \"#utility.yul\":26315:26340   */\n      swap2\n      pop\n        /* \"#utility.yul\":26354:26374   */\n      tag_506\n        /* \"#utility.yul\":26372:26373   */\n      dup4\n        /* \"#utility.yul\":26354:26374   */\n      tag_191\n      jump\t// in\n    tag_506:\n        /* \"#utility.yul\":26349:26374   */\n      swap3\n      pop\n        /* \"#utility.yul\":26393:26394   */\n      dup3\n        /* \"#utility.yul\":26383:26418   */\n      tag_507\n      jumpi\n        /* \"#utility.yul\":26398:26416   */\n      tag_508\n      tag_241\n      jump\t// in\n    tag_508:\n        /* \"#utility.yul\":26383:26418   */\n    tag_507:\n        /* \"#utility.yul\":26440:26441   */\n      dup3\n        /* \"#utility.yul\":26437:26438   */\n      dup3\n        /* \"#utility.yul\":26433:26442   */\n      div\n        /* \"#utility.yul\":26428:26442   */\n      swap1\n      pop\n        /* \"#utility.yul\":26263:26448   */\n      swap3\n      swap2\n      pop\n      pop\n      jump\t// out\n\n    auxdata: 0xa2646970667358221220d2259ead446fb1585a279d3c598fc2fb7f972dc76db1c84d4ccf77cc693e762b64736f6c63430008190033\n}\n",
				"bytecode": {
					"linkReferences": {},
					"object": "6080604052600180553480156012575f80fd5b50611f6c806100205f395ff3fe608060405234801561000f575f80fd5b506004361061007b575f3560e01c806336ffa9051161005957806336ffa905146100e757806388e3cfda14610105578063adcfb4fc14610121578063ffa0d2a41461013d5761007b565b80631c4afc571461007f57806325d3a09d1461009b57806327d3410c146100cb575b5f80fd5b61009960048036038101906100949190611232565b610174565b005b6100b560048036038101906100b091906113e8565b6103d9565b6040516100c2919061160d565b60405180910390f35b6100e560048036038101906100e09190611662565b6105e7565b005b6100ef6108f5565b6040516100fc919061182e565b60405180910390f35b61011f600480360381019061011a919061184e565b610cb5565b005b61013b6004803603810190610136919061184e565b610e49565b005b610157600480360381019061015291906113e8565b610fc7565b60405161016b98979695949392919061190e565b60405180910390f35b60405180610100016040528060015f815480929190610192906119c5565b91905055815260200185858080601f0160208091040260200160405190810160405280939291908181526020018383808284375f81840152601f19601f82011690508083019250505050505050815260200183838080601f0160208091040260200160405190810160405280939291908181526020018383808284375f81840152601f19601f8201169050808301925050505050505081526020013373ffffffffffffffffffffffffffffffffffffffff1681526020015f81526020015f81526020015f6002811115610268576102676114e6565b5b8152602001438152505f8585604051610282929190611a3a565b90815260200160405180910390205f820151815f015560208201518160010190816102ad9190611c4c565b5060408201518160020190816102c39190611c4c565b506060820151816003015f6101000a81548173ffffffffffffffffffffffffffffffffffffffff021916908373ffffffffffffffffffffffffffffffffffffffff1602179055506080820151816004015560a0820151816005015560c0820151816006015f6101000a81548160ff02191690836002811115610348576103476114e6565b5b021790555060e0820151816007015590505060025f3373ffffffffffffffffffffffffffffffffffffffff1673ffffffffffffffffffffffffffffffffffffffff1681526020019081526020015f20600201848490918060018154018082558091505060019003905f5260205f20015f9091929091929091929091925091826103d2929190611d25565b5050505050565b6103e1611159565b5f826040516103f09190611e22565b9081526020016040518091039020604051806101000160405290815f820154815260200160018201805461042390611a7f565b80601f016020809104026020016040519081016040528092919081815260200182805461044f90611a7f565b801561049a5780601f106104715761010080835404028352916020019161049a565b820191905f5260205f20905b81548152906001019060200180831161047d57829003601f168201915b505050505081526020016002820180546104b390611a7f565b80601f01602080910402602001604051908101604052809291908181526020018280546104df90611a7f565b801561052a5780601f106105015761010080835404028352916020019161052a565b820191905f5260205f20905b81548152906001019060200180831161050d57829003601f168201915b50505050508152602001600382015f9054906101000a900473ffffffffffffffffffffffffffffffffffffffff1673ffffffffffffffffffffffffffffffffffffffff1673ffffffffffffffffffffffffffffffffffffffff1681526020016004820154815260200160058201548152602001600682015f9054906101000a900460ff1660028111156105c0576105bf6114e6565b5b60028111156105d2576105d16114e6565b5b81526020016007820154815250509050919050565b5f73ffffffffffffffffffffffffffffffffffffffff1660025f3373ffffffffffffffffffffffffffffffffffffffff1673ffffffffffffffffffffffffffffffffffffffff1681526020019081526020015f206001015f9054906101000a900473ffffffffffffffffffffffffffffffffffffffff1673ffffffffffffffffffffffffffffffffffffffff160361067d575f80fd5b5f151560025f3373ffffffffffffffffffffffffffffffffffffffff1673ffffffffffffffffffffffffffffffffffffffff1681526020019081526020015f2060040184846040516106d0929190611a3a565b90815260200160405180910390205f9054906101000a900460ff161515146106f6575f80fd5b600f5f8484604051610709929190611a3a565b9081526020016040518091039020600701546107259190611e38565b431115801561078557505f6002811115610742576107416114e6565b5b5f8484604051610753929190611a3a565b90815260200160405180910390206006015f9054906101000a900460ff166002811115610783576107826114e6565b5b145b61078d575f80fd5b806107cd575f83836040516107a3929190611a3a565b90815260200160405180910390206005015f8154809291906107c4906119c5565b91905055610804565b5f83836040516107de929190611a3a565b90815260200160405180910390206004015f8154809291906107ff906119c5565b919050555b508060025f3373ffffffffffffffffffffffffffffffffffffffff1673ffffffffffffffffffffffffffffffffffffffff1681526020019081526020015f206003018484604051610856929190611a3a565b90815260200160405180910390205f6101000a81548160ff021916908315150217905550600160025f3373ffffffffffffffffffffffffffffffffffffffff1673ffffffffffffffffffffffffffffffffffffffff1681526020019081526020015f2060040184846040516108cc929190611a3a565b90815260200160405180910390205f6101000a81548160ff021916908315150217905550505050565b60605f60025f3373ffffffffffffffffffffffffffffffffffffffff1673ffffffffffffffffffffffffffffffffffffffff1681526020019081526020015f20600201805480602002602001604051908101604052809291908181526020015f905b828210156109ff578382905f5260205f2001805461097490611a7f565b80601f01602080910402602001604051908101604052809291908181526020018280546109a090611a7f565b80156109eb5780601f106109c2576101008083540402835291602001916109eb565b820191905f5260205f20905b8154815290600101906020018083116109ce57829003601f168201915b505050505081526020019060010190610957565b5050505090505f815167ffffffffffffffff811115610a2157610a206112c4565b5b604051908082528060200260200182016040528015610a5a57816020015b610a47611159565b815260200190600190039081610a3f5790505b5090505f5b8251811015610cac575f838281518110610a7c57610a7b611e6b565b5b6020026020010151604051610a919190611e22565b9081526020016040518091039020604051806101000160405290815f8201548152602001600182018054610ac490611a7f565b80601f0160208091040260200160405190810160405280929190818152602001828054610af090611a7f565b8015610b3b5780601f10610b1257610100808354040283529160200191610b3b565b820191905f5260205f20905b815481529060010190602001808311610b1e57829003601f168201915b50505050508152602001600282018054610b5490611a7f565b80601f0160208091040260200160405190810160405280929190818152602001828054610b8090611a7f565b8015610bcb5780601f10610ba257610100808354040283529160200191610bcb565b820191905f5260205f20905b815481529060010190602001808311610bae57829003601f168201915b50505050508152602001600382015f9054906101000a900473ffffffffffffffffffffffffffffffffffffffff1673ffffffffffffffffffffffffffffffffffffffff1673ffffffffffffffffffffffffffffffffffffffff1681526020016004820154815260200160058201548152602001600682015f9054906101000a900460ff166002811115610c6157610c606114e6565b5b6002811115610c7357610c726114e6565b5b8152602001600782015481525050828281518110610c9457610c93611e6b565b5b60200260200101819052508080600101915050610a5f565b50809250505090565b43600f5f8484604051610cc9929190611a3a565b908152602001604051809103902060070154610ce59190611e38565b10610cee575f80fd5b5f808383604051610d00929190611a3a565b9081526020016040518091039020600501545f8484604051610d23929190611a3a565b908152602001604051809103902060040154610d3f9190611e38565b905060646046600354610d529190611e98565b610d5c9190611f06565b8110158015610da557506064604282610d759190611e98565b610d7f9190611f06565b5f8484604051610d90929190611a3a565b90815260200160405180910390206004015410155b15610df95760015f8484604051610dbd929190611a3a565b90815260200160405180910390206006015f6101000a81548160ff02191690836002811115610def57610dee6114e6565b5b0217905550610e44565b60025f8484604051610e0c929190611a3a565b90815260200160405180910390206006015f6101000a81548160ff02191690836002811115610e3e57610e3d6114e6565b5b02179055505b505050565b5f73ffffffffffffffffffffffffffffffffffffffff1660025f3373ffffffffffffffffffffffffffffffffffffffff1673ffffffffffffffffffffffffffffffffffffffff1681526020019081526020015f206001015f9054906101000a900473ffffffffffffffffffffffffffffffffffffffff1673ffffffffffffffffffffffffffffffffffffffff1614610edf575f80fd5b818160025f3373ffffffffffffffffffffffffffffffffffffffff1673ffffffffffffffffffffffffffffffffffffffff1681526020019081526020015f205f019182610f2d929190611d25565b503360025f3373ffffffffffffffffffffffffffffffffffffffff1673ffffffffffffffffffffffffffffffffffffffff1681526020019081526020015f206001015f6101000a81548173ffffffffffffffffffffffffffffffffffffffff021916908373ffffffffffffffffffffffffffffffffffffffff16021790555060035f815480929190610fbe906119c5565b91905055505050565b5f818051602081018201805184825260208301602085012081835280955050505050505f91509050805f01549080600101805461100390611a7f565b80601f016020809104026020016040519081016040528092919081815260200182805461102f90611a7f565b801561107a5780601f106110515761010080835404028352916020019161107a565b820191905f5260205f20905b81548152906001019060200180831161105d57829003601f168201915b50505050509080600201805461108f90611a7f565b80601f01602080910402602001604051908101604052809291908181526020018280546110bb90611a7f565b80156111065780601f106110dd57610100808354040283529160200191611106565b820191905f5260205f20905b8154815290600101906020018083116110e957829003601f168201915b505050505090806003015f9054906101000a900473ffffffffffffffffffffffffffffffffffffffff1690806004015490806005015490806006015f9054906101000a900460ff16908060070154905088565b6040518061010001604052805f815260200160608152602001606081526020015f73ffffffffffffffffffffffffffffffffffffffff1681526020015f81526020015f81526020015f60028111156111b4576111b36114e6565b5b81526020015f81525090565b5f604051905090565b5f80fd5b5f80fd5b5f80fd5b5f80fd5b5f80fd5b5f8083601f8401126111f2576111f16111d1565b5b8235905067ffffffffffffffff81111561120f5761120e6111d5565b5b60208301915083600182028301111561122b5761122a6111d9565b5b9250929050565b5f805f806040858703121561124a576112496111c9565b5b5f85013567ffffffffffffffff811115611267576112666111cd565b5b611273878288016111dd565b9450945050602085013567ffffffffffffffff811115611296576112956111cd565b5b6112a2878288016111dd565b925092505092959194509250565b5f80fd5b5f601f19601f8301169050919050565b7f4e487b71000000000000000000000000000000000000000000000000000000005f52604160045260245ffd5b6112fa826112b4565b810181811067ffffffffffffffff82111715611319576113186112c4565b5b80604052505050565b5f61132b6111c0565b905061133782826112f1565b919050565b5f67ffffffffffffffff821115611356576113556112c4565b5b61135f826112b4565b9050602081019050919050565b828183375f83830152505050565b5f61138c6113878461133c565b611322565b9050828152602081018484840111156113a8576113a76112b0565b5b6113b384828561136c565b509392505050565b5f82601f8301126113cf576113ce6111d1565b5b81356113df84826020860161137a565b91505092915050565b5f602082840312156113fd576113fc6111c9565b5b5f82013567ffffffffffffffff81111561141a576114196111cd565b5b611426848285016113bb565b91505092915050565b5f819050919050565b6114418161142f565b82525050565b5f81519050919050565b5f82825260208201905092915050565b8281835e5f83830152505050565b5f61147982611447565b6114838185611451565b9350611493818560208601611461565b61149c816112b4565b840191505092915050565b5f73ffffffffffffffffffffffffffffffffffffffff82169050919050565b5f6114d0826114a7565b9050919050565b6114e0816114c6565b82525050565b7f4e487b71000000000000000000000000000000000000000000000000000000005f52602160045260245ffd5b60038110611524576115236114e6565b5b50565b5f81905061153482611513565b919050565b5f61154382611527565b9050919050565b61155381611539565b82525050565b5f61010083015f83015161156f5f860182611438565b5060208301518482036020860152611587828261146f565b915050604083015184820360408601526115a1828261146f565b91505060608301516115b660608601826114d7565b5060808301516115c96080860182611438565b5060a08301516115dc60a0860182611438565b5060c08301516115ef60c086018261154a565b5060e083015161160260e0860182611438565b508091505092915050565b5f6020820190508181035f8301526116258184611559565b905092915050565b5f8115159050919050565b6116418161162d565b811461164b575f80fd5b50565b5f8135905061165c81611638565b92915050565b5f805f60408486031215611679576116786111c9565b5b5f84013567ffffffffffffffff811115611696576116956111cd565b5b6116a2868287016111dd565b935093505060206116b58682870161164e565b9150509250925092565b5f81519050919050565b5f82825260208201905092915050565b5f819050602082019050919050565b5f61010083015f8301516116fe5f860182611438565b5060208301518482036020860152611716828261146f565b91505060408301518482036040860152611730828261146f565b915050606083015161174560608601826114d7565b5060808301516117586080860182611438565b5060a083015161176b60a0860182611438565b5060c083015161177e60c086018261154a565b5060e083015161179160e0860182611438565b508091505092915050565b5f6117a783836116e8565b905092915050565b5f602082019050919050565b5f6117c5826116bf565b6117cf81856116c9565b9350836020820285016117e1856116d9565b805f5b8581101561181c57848403895281516117fd858261179c565b9450611808836117af565b925060208a019950506001810190506117e4565b50829750879550505050505092915050565b5f6020820190508181035f83015261184681846117bb565b905092915050565b5f8060208385031215611864576118636111c9565b5b5f83013567ffffffffffffffff811115611881576118806111cd565b5b61188d858286016111dd565b92509250509250929050565b6118a28161142f565b82525050565b5f82825260208201905092915050565b5f6118c282611447565b6118cc81856118a8565b93506118dc818560208601611461565b6118e5816112b4565b840191505092915050565b6118f9816114c6565b82525050565b61190881611539565b82525050565b5f610100820190506119225f83018b611899565b8181036020830152611934818a6118b8565b9050818103604083015261194881896118b8565b905061195760608301886118f0565b6119646080830187611899565b61197160a0830186611899565b61197e60c08301856118ff565b61198b60e0830184611899565b9998505050505050505050565b7f4e487b71000000000000000000000000000000000000000000000000000000005f52601160045260245ffd5b5f6119cf8261142f565b91507fffffffffffffffffffffffffffffffffffffffffffffffffffffffffffffffff8203611a0157611a00611998565b5b600182019050919050565b5f81905092915050565b5f611a218385611a0c565b9350611a2e83858461136c565b82840190509392505050565b5f611a46828486611a16565b91508190509392505050565b7f4e487b71000000000000000000000000000000000000000000000000000000005f52602260045260245ffd5b5f6002820490506001821680611a9657607f821691505b602082108103611aa957611aa8611a52565b5b50919050565b5f819050815f5260205f209050919050565b5f6020601f8301049050919050565b5f82821b905092915050565b5f60088302611b0b7fffffffffffffffffffffffffffffffffffffffffffffffffffffffffffffffff82611ad0565b611b158683611ad0565b95508019841693508086168417925050509392505050565b5f819050919050565b5f611b50611b4b611b468461142f565b611b2d565b61142f565b9050919050565b5f819050919050565b611b6983611b36565b611b7d611b7582611b57565b848454611adc565b825550505050565b5f90565b611b91611b85565b611b9c818484611b60565b505050565b5b81811015611bbf57611bb45f82611b89565b600181019050611ba2565b5050565b601f821115611c0457611bd581611aaf565b611bde84611ac1565b81016020851015611bed578190505b611c01611bf985611ac1565b830182611ba1565b50505b505050565b5f82821c905092915050565b5f611c245f1984600802611c09565b1980831691505092915050565b5f611c3c8383611c15565b9150826002028217905092915050565b611c5582611447565b67ffffffffffffffff811115611c6e57611c6d6112c4565b5b611c788254611a7f565b611c83828285611bc3565b5f60209050601f831160018114611cb4575f8415611ca2578287015190505b611cac8582611c31565b865550611d13565b601f198416611cc286611aaf565b5f5b82811015611ce957848901518255600182019150602085019450602081019050611cc4565b86831015611d065784890151611d02601f891682611c15565b8355505b6001600288020188555050505b505050505050565b5f82905092915050565b611d2f8383611d1b565b67ffffffffffffffff811115611d4857611d476112c4565b5b611d528254611a7f565b611d5d828285611bc3565b5f601f831160018114611d8a575f8415611d78578287013590505b611d828582611c31565b865550611de9565b601f198416611d9886611aaf565b5f5b82811015611dbf57848901358255600182019150602085019450602081019050611d9a565b86831015611ddc5784890135611dd8601f891682611c15565b8355505b6001600288020188555050505b50505050505050565b5f611dfc82611447565b611e068185611a0c565b9350611e16818560208601611461565b80840191505092915050565b5f611e2d8284611df2565b915081905092915050565b5f611e428261142f565b9150611e4d8361142f565b9250828201905080821115611e6557611e64611998565b5b92915050565b7f4e487b71000000000000000000000000000000000000000000000000000000005f52603260045260245ffd5b5f611ea28261142f565b9150611ead8361142f565b9250828202611ebb8161142f565b91508282048414831517611ed257611ed1611998565b5b5092915050565b7f4e487b71000000000000000000000000000000000000000000000000000000005f52601260045260245ffd5b5f611f108261142f565b9150611f1b8361142f565b925082611f2b57611f2a611ed9565b5b82820490509291505056fea2646970667358221220d2259ead446fb1585a279d3c598fc2fb7f972dc76db1c84d4ccf77cc693e762b64736f6c63430008190033",
					"opcodes": "PUSH1 0x80 PUSH1 0x40 MSTORE PUSH1 0x1 DUP1 SSTORE CALLVALUE DUP1 ISZERO PUSH1 0x12 JUMPI PUSH0 DUP1 REVERT JUMPDEST POP PUSH2 0x1F6C DUP1 PUSH2 0x20 PUSH0 CODECOPY PUSH0 RETURN INVALID PUSH1 0x80 PUSH1 0x40 MSTORE CALLVALUE DUP1 ISZERO PUSH2 0xF JUMPI PUSH0 DUP1 REVERT JUMPDEST POP PUSH1 0x4 CALLDATASIZE LT PUSH2 0x7B JUMPI PUSH0 CALLDATALOAD PUSH1 0xE0 SHR DUP1 PUSH4 0x36FFA905 GT PUSH2 0x59 JUMPI DUP1 PUSH4 0x36FFA905 EQ PUSH2 0xE7 JUMPI DUP1 PUSH4 0x88E3CFDA EQ PUSH2 0x105 JUMPI DUP1 PUSH4 0xADCFB4FC EQ PUSH2 0x121 JUMPI DUP1 PUSH4 0xFFA0D2A4 EQ PUSH2 0x13D JUMPI PUSH2 0x7B JUMP JUMPDEST DUP1 PUSH4 0x1C4AFC57 EQ PUSH2 0x7F JUMPI DUP1 PUSH4 0x25D3A09D EQ PUSH2 0x9B JUMPI DUP1 PUSH4 0x27D3410C EQ PUSH2 0xCB JUMPI JUMPDEST PUSH0 DUP1 REVERT JUMPDEST PUSH2 0x99 PUSH1 0x4 DUP1 CALLDATASIZE SUB DUP2 ADD SWAP1 PUSH2 0x94 SWAP2 SWAP1 PUSH2 0x1232 JUMP JUMPDEST PUSH2 0x174 JUMP JUMPDEST STOP JUMPDEST PUSH2 0xB5 PUSH1 0x4 DUP1 CALLDATASIZE SUB DUP2 ADD SWAP1 PUSH2 0xB0 SWAP2 SWAP1 PUSH2 0x13E8 JUMP JUMPDEST PUSH2 0x3D9 JUMP JUMPDEST PUSH1 0x40 MLOAD PUSH2 0xC2 SWAP2 SWAP1 PUSH2 0x160D JUMP JUMPDEST PUSH1 0x40 MLOAD DUP1 SWAP2 SUB SWAP1 RETURN JUMPDEST PUSH2 0xE5 PUSH1 0x4 DUP1 CALLDATASIZE SUB DUP2 ADD SWAP1 PUSH2 0xE0 SWAP2 SWAP1 PUSH2 0x1662 JUMP JUMPDEST PUSH2 0x5E7 JUMP JUMPDEST STOP JUMPDEST PUSH2 0xEF PUSH2 0x8F5 JUMP JUMPDEST PUSH1 0x40 MLOAD PUSH2 0xFC SWAP2 SWAP1 PUSH2 0x182E JUMP JUMPDEST PUSH1 0x40 MLOAD DUP1 SWAP2 SUB SWAP1 RETURN JUMPDEST PUSH2 0x11F PUSH1 0x4 DUP1 CALLDATASIZE SUB DUP2 ADD SWAP1 PUSH2 0x11A SWAP2 SWAP1 PUSH2 0x184E JUMP JUMPDEST PUSH2 0xCB5 JUMP JUMPDEST STOP JUMPDEST PUSH2 0x13B PUSH1 0x4 DUP1 CALLDATASIZE SUB DUP2 ADD SWAP1 PUSH2 0x136 SWAP2 SWAP1 PUSH2 0x184E JUMP JUMPDEST PUSH2 0xE49 JUMP JUMPDEST STOP JUMPDEST PUSH2 0x157 PUSH1 0x4 DUP1 CALLDATASIZE SUB DUP2 ADD SWAP1 PUSH2 0x152 SWAP2 SWAP1 PUSH2 0x13E8 JUMP JUMPDEST PUSH2 0xFC7 JUMP JUMPDEST PUSH1 0x40 MLOAD PUSH2 0x16B SWAP9 SWAP8 SWAP7 SWAP6 SWAP5 SWAP4 SWAP3 SWAP2 SWAP1 PUSH2 0x190E JUMP JUMPDEST PUSH1 0x40 MLOAD DUP1 SWAP2 SUB SWAP1 RETURN JUMPDEST PUSH1 0x40 MLOAD DUP1 PUSH2 0x100 ADD PUSH1 0x40 MSTORE DUP1 PUSH1 0x1 PUSH0 DUP2 SLOAD DUP1 SWAP3 SWAP2 SWAP1 PUSH2 0x192 SWAP1 PUSH2 0x19C5 JUMP JUMPDEST SWAP2 SWAP1 POP SSTORE DUP2 MSTORE PUSH1 0x20 ADD DUP6 DUP6 DUP1 DUP1 PUSH1 0x1F ADD PUSH1 0x20 DUP1 SWAP2 DIV MUL PUSH1 0x20 ADD PUSH1 0x40 MLOAD SWAP1 DUP2 ADD PUSH1 0x40 MSTORE DUP1 SWAP4 SWAP3 SWAP2 SWAP1 DUP2 DUP2 MSTORE PUSH1 0x20 ADD DUP4 DUP4 DUP1 DUP3 DUP5 CALLDATACOPY PUSH0 DUP2 DUP5 ADD MSTORE PUSH1 0x1F NOT PUSH1 0x1F DUP3 ADD AND SWAP1 POP DUP1 DUP4 ADD SWAP3 POP POP POP POP POP POP POP DUP2 MSTORE PUSH1 0x20 ADD DUP4 DUP4 DUP1 DUP1 PUSH1 0x1F ADD PUSH1 0x20 DUP1 SWAP2 DIV MUL PUSH1 0x20 ADD PUSH1 0x40 MLOAD SWAP1 DUP2 ADD PUSH1 0x40 MSTORE DUP1 SWAP4 SWAP3 SWAP2 SWAP1 DUP2 DUP2 MSTORE PUSH1 0x20 ADD DUP4 DUP4 DUP1 DUP3 DUP5 CALLDATACOPY PUSH0 DUP2 DUP5 ADD MSTORE PUSH1 0x1F NOT PUSH1 0x1F DUP3 ADD AND SWAP1 POP DUP1 DUP4 ADD SWAP3 POP POP POP POP POP POP POP DUP2 MSTORE PUSH1 0x20 ADD CALLER PUSH20 0xFFFFFFFFFFFFFFFFFFFFFFFFFFFFFFFFFFFFFFFF AND DUP2 MSTORE PUSH1 0x20 ADD PUSH0 DUP2 MSTORE PUSH1 0x20 ADD PUSH0 DUP2 MSTORE PUSH1 0x20 ADD PUSH0 PUSH1 0x2 DUP2 GT ISZERO PUSH2 0x268 JUMPI PUSH2 0x267 PUSH2 0x14E6 JUMP JUMPDEST JUMPDEST DUP2 MSTORE PUSH1 0x20 ADD NUMBER DUP2 MSTORE POP PUSH0 DUP6 DUP6 PUSH1 0x40 MLOAD PUSH2 0x282 SWAP3 SWAP2 SWAP1 PUSH2 0x1A3A JUMP JUMPDEST SWAP1 DUP2 MSTORE PUSH1 0x20 ADD PUSH1 0x40 MLOAD DUP1 SWAP2 SUB SWAP1 KECCAK256 PUSH0 DUP3 ADD MLOAD DUP2 PUSH0 ADD SSTORE PUSH1 0x20 DUP3 ADD MLOAD DUP2 PUSH1 0x1 ADD SWAP1 DUP2 PUSH2 0x2AD SWAP2 SWAP1 PUSH2 0x1C4C JUMP JUMPDEST POP PUSH1 0x40 DUP3 ADD MLOAD DUP2 PUSH1 0x2 ADD SWAP1 DUP2 PUSH2 0x2C3 SWAP2 SWAP1 PUSH2 0x1C4C JUMP JUMPDEST POP PUSH1 0x60 DUP3 ADD MLOAD DUP2 PUSH1 0x3 ADD PUSH0 PUSH2 0x100 EXP DUP2 SLOAD DUP2 PUSH20 0xFFFFFFFFFFFFFFFFFFFFFFFFFFFFFFFFFFFFFFFF MUL NOT AND SWAP1 DUP4 PUSH20 0xFFFFFFFFFFFFFFFFFFFFFFFFFFFFFFFFFFFFFFFF AND MUL OR SWAP1 SSTORE POP PUSH1 0x80 DUP3 ADD MLOAD DUP2 PUSH1 0x4 ADD SSTORE PUSH1 0xA0 DUP3 ADD MLOAD DUP2 PUSH1 0x5 ADD SSTORE PUSH1 0xC0 DUP3 ADD MLOAD DUP2 PUSH1 0x6 ADD PUSH0 PUSH2 0x100 EXP DUP2 SLOAD DUP2 PUSH1 0xFF MUL NOT AND SWAP1 DUP4 PUSH1 0x2 DUP2 GT ISZERO PUSH2 0x348 JUMPI PUSH2 0x347 PUSH2 0x14E6 JUMP JUMPDEST JUMPDEST MUL OR SWAP1 SSTORE POP PUSH1 0xE0 DUP3 ADD MLOAD DUP2 PUSH1 0x7 ADD SSTORE SWAP1 POP POP PUSH1 0x2 PUSH0 CALLER PUSH20 0xFFFFFFFFFFFFFFFFFFFFFFFFFFFFFFFFFFFFFFFF AND PUSH20 0xFFFFFFFFFFFFFFFFFFFFFFFFFFFFFFFFFFFFFFFF AND DUP2 MSTORE PUSH1 0x20 ADD SWAP1 DUP2 MSTORE PUSH1 0x20 ADD PUSH0 KECCAK256 PUSH1 0x2 ADD DUP5 DUP5 SWAP1 SWAP2 DUP1 PUSH1 0x1 DUP2 SLOAD ADD DUP1 DUP3 SSTORE DUP1 SWAP2 POP POP PUSH1 0x1 SWAP1 SUB SWAP1 PUSH0 MSTORE PUSH1 0x20 PUSH0 KECCAK256 ADD PUSH0 SWAP1 SWAP2 SWAP3 SWAP1 SWAP2 SWAP3 SWAP1 SWAP2 SWAP3 SWAP1 SWAP2 SWAP3 POP SWAP2 DUP3 PUSH2 0x3D2 SWAP3 SWAP2 SWAP1 PUSH2 0x1D25 JUMP JUMPDEST POP POP POP POP POP JUMP JUMPDEST PUSH2 0x3E1 PUSH2 0x1159 JUMP JUMPDEST PUSH0 DUP3 PUSH1 0x40 MLOAD PUSH2 0x3F0 SWAP2 SWAP1 PUSH2 0x1E22 JUMP JUMPDEST SWAP1 DUP2 MSTORE PUSH1 0x20 ADD PUSH1 0x40 MLOAD DUP1 SWAP2 SUB SWAP1 KECCAK256 PUSH1 0x40 MLOAD DUP1 PUSH2 0x100 ADD PUSH1 0x40 MSTORE SWAP1 DUP2 PUSH0 DUP3 ADD SLOAD DUP2 MSTORE PUSH1 0x20 ADD PUSH1 0x1 DUP3 ADD DUP1 SLOAD PUSH2 0x423 SWAP1 PUSH2 0x1A7F JUMP JUMPDEST DUP1 PUSH1 0x1F ADD PUSH1 0x20 DUP1 SWAP2 DIV MUL PUSH1 0x20 ADD PUSH1 0x40 MLOAD SWAP1 DUP2 ADD PUSH1 0x40 MSTORE DUP1 SWAP3 SWAP2 SWAP1 DUP2 DUP2 MSTORE PUSH1 0x20 ADD DUP3 DUP1 SLOAD PUSH2 0x44F SWAP1 PUSH2 0x1A7F JUMP JUMPDEST DUP1 ISZERO PUSH2 0x49A JUMPI DUP1 PUSH1 0x1F LT PUSH2 0x471 JUMPI PUSH2 0x100 DUP1 DUP4 SLOAD DIV MUL DUP4 MSTORE SWAP2 PUSH1 0x20 ADD SWAP2 PUSH2 0x49A JUMP JUMPDEST DUP3 ADD SWAP2 SWAP1 PUSH0 MSTORE PUSH1 0x20 PUSH0 KECCAK256 SWAP1 JUMPDEST DUP2 SLOAD DUP2 MSTORE SWAP1 PUSH1 0x1 ADD SWAP1 PUSH1 0x20 ADD DUP1 DUP4 GT PUSH2 0x47D JUMPI DUP3 SWAP1 SUB PUSH1 0x1F AND DUP3 ADD SWAP2 JUMPDEST POP POP POP POP POP DUP2 MSTORE PUSH1 0x20 ADD PUSH1 0x2 DUP3 ADD DUP1 SLOAD PUSH2 0x4B3 SWAP1 PUSH2 0x1A7F JUMP JUMPDEST DUP1 PUSH1 0x1F ADD PUSH1 0x20 DUP1 SWAP2 DIV MUL PUSH1 0x20 ADD PUSH1 0x40 MLOAD SWAP1 DUP2 ADD PUSH1 0x40 MSTORE DUP1 SWAP3 SWAP2 SWAP1 DUP2 DUP2 MSTORE PUSH1 0x20 ADD DUP3 DUP1 SLOAD PUSH2 0x4DF SWAP1 PUSH2 0x1A7F JUMP JUMPDEST DUP1 ISZERO PUSH2 0x52A JUMPI DUP1 PUSH1 0x1F LT PUSH2 0x501 JUMPI PUSH2 0x100 DUP1 DUP4 SLOAD DIV MUL DUP4 MSTORE SWAP2 PUSH1 0x20 ADD SWAP2 PUSH2 0x52A JUMP JUMPDEST DUP3 ADD SWAP2 SWAP1 PUSH0 MSTORE PUSH1 0x20 PUSH0 KECCAK256 SWAP1 JUMPDEST DUP2 SLOAD DUP2 MSTORE SWAP1 PUSH1 0x1 ADD SWAP1 PUSH1 0x20 ADD DUP1 DUP4 GT PUSH2 0x50D JUMPI DUP3 SWAP1 SUB PUSH1 0x1F AND DUP3 ADD SWAP2 JUMPDEST POP POP POP POP POP DUP2 MSTORE PUSH1 0x20 ADD PUSH1 0x3 DUP3 ADD PUSH0 SWAP1 SLOAD SWAP1 PUSH2 0x100 EXP SWAP1 DIV PUSH20 0xFFFFFFFFFFFFFFFFFFFFFFFFFFFFFFFFFFFFFFFF AND PUSH20 0xFFFFFFFFFFFFFFFFFFFFFFFFFFFFFFFFFFFFFFFF AND PUSH20 0xFFFFFFFFFFFFFFFFFFFFFFFFFFFFFFFFFFFFFFFF AND DUP2 MSTORE PUSH1 0x20 ADD PUSH1 0x4 DUP3 ADD SLOAD DUP2 MSTORE PUSH1 0x20 ADD PUSH1 0x5 DUP3 ADD SLOAD DUP2 MSTORE PUSH1 0x20 ADD PUSH1 0x6 DUP3 ADD PUSH0 SWAP1 SLOAD SWAP1 PUSH2 0x100 EXP SWAP1 DIV PUSH1 0xFF AND PUSH1 0x2 DUP2 GT ISZERO PUSH2 0x5C0 JUMPI PUSH2 0x5BF PUSH2 0x14E6 JUMP JUMPDEST JUMPDEST PUSH1 0x2 DUP2 GT ISZERO PUSH2 0x5D2 JUMPI PUSH2 0x5D1 PUSH2 0x14E6 JUMP JUMPDEST JUMPDEST DUP2 MSTORE PUSH1 0x20 ADD PUSH1 0x7 DUP3 ADD SLOAD DUP2 MSTORE POP POP SWAP1 POP SWAP2 SWAP1 POP JUMP JUMPDEST PUSH0 PUSH20 0xFFFFFFFFFFFFFFFFFFFFFFFFFFFFFFFFFFFFFFFF AND PUSH1 0x2 PUSH0 CALLER PUSH20 0xFFFFFFFFFFFFFFFFFFFFFFFFFFFFFFFFFFFFFFFF AND PUSH20 0xFFFFFFFFFFFFFFFFFFFFFFFFFFFFFFFFFFFFFFFF AND DUP2 MSTORE PUSH1 0x20 ADD SWAP1 DUP2 MSTORE PUSH1 0x20 ADD PUSH0 KECCAK256 PUSH1 0x1 ADD PUSH0 SWAP1 SLOAD SWAP1 PUSH2 0x100 EXP SWAP1 DIV PUSH20 0xFFFFFFFFFFFFFFFFFFFFFFFFFFFFFFFFFFFFFFFF AND PUSH20 0xFFFFFFFFFFFFFFFFFFFFFFFFFFFFFFFFFFFFFFFF AND SUB PUSH2 0x67D JUMPI PUSH0 DUP1 REVERT JUMPDEST PUSH0 ISZERO ISZERO PUSH1 0x2 PUSH0 CALLER PUSH20 0xFFFFFFFFFFFFFFFFFFFFFFFFFFFFFFFFFFFFFFFF AND PUSH20 0xFFFFFFFFFFFFFFFFFFFFFFFFFFFFFFFFFFFFFFFF AND DUP2 MSTORE PUSH1 0x20 ADD SWAP1 DUP2 MSTORE PUSH1 0x20 ADD PUSH0 KECCAK256 PUSH1 0x4 ADD DUP5 DUP5 PUSH1 0x40 MLOAD PUSH2 0x6D0 SWAP3 SWAP2 SWAP1 PUSH2 0x1A3A JUMP JUMPDEST SWAP1 DUP2 MSTORE PUSH1 0x20 ADD PUSH1 0x40 MLOAD DUP1 SWAP2 SUB SWAP1 KECCAK256 PUSH0 SWAP1 SLOAD SWAP1 PUSH2 0x100 EXP SWAP1 DIV PUSH1 0xFF AND ISZERO ISZERO EQ PUSH2 0x6F6 JUMPI PUSH0 DUP1 REVERT JUMPDEST PUSH1 0xF PUSH0 DUP5 DUP5 PUSH1 0x40 MLOAD PUSH2 0x709 SWAP3 SWAP2 SWAP1 PUSH2 0x1A3A JUMP JUMPDEST SWAP1 DUP2 MSTORE PUSH1 0x20 ADD PUSH1 0x40 MLOAD DUP1 SWAP2 SUB SWAP1 KECCAK256 PUSH1 0x7 ADD SLOAD PUSH2 0x725 SWAP2 SWAP1 PUSH2 0x1E38 JUMP JUMPDEST NUMBER GT ISZERO DUP1 ISZERO PUSH2 0x785 JUMPI POP PUSH0 PUSH1 0x2 DUP2 GT ISZERO PUSH2 0x742 JUMPI PUSH2 0x741 PUSH2 0x14E6 JUMP JUMPDEST JUMPDEST PUSH0 DUP5 DUP5 PUSH1 0x40 MLOAD PUSH2 0x753 SWAP3 SWAP2 SWAP1 PUSH2 0x1A3A JUMP JUMPDEST SWAP1 DUP2 MSTORE PUSH1 0x20 ADD PUSH1 0x40 MLOAD DUP1 SWAP2 SUB SWAP1 KECCAK256 PUSH1 0x6 ADD PUSH0 SWAP1 SLOAD SWAP1 PUSH2 0x100 EXP SWAP1 DIV PUSH1 0xFF AND PUSH1 0x2 DUP2 GT ISZERO PUSH2 0x783 JUMPI PUSH2 0x782 PUSH2 0x14E6 JUMP JUMPDEST JUMPDEST EQ JUMPDEST PUSH2 0x78D JUMPI PUSH0 DUP1 REVERT JUMPDEST DUP1 PUSH2 0x7CD JUMPI PUSH0 DUP4 DUP4 PUSH1 0x40 MLOAD PUSH2 0x7A3 SWAP3 SWAP2 SWAP1 PUSH2 0x1A3A JUMP JUMPDEST SWAP1 DUP2 MSTORE PUSH1 0x20 ADD PUSH1 0x40 MLOAD DUP1 SWAP2 SUB SWAP1 KECCAK256 PUSH1 0x5 ADD PUSH0 DUP2 SLOAD DUP1 SWAP3 SWAP2 SWAP1 PUSH2 0x7C4 SWAP1 PUSH2 0x19C5 JUMP JUMPDEST SWAP2 SWAP1 POP SSTORE PUSH2 0x804 JUMP JUMPDEST PUSH0 DUP4 DUP4 PUSH1 0x40 MLOAD PUSH2 0x7DE SWAP3 SWAP2 SWAP1 PUSH2 0x1A3A JUMP JUMPDEST SWAP1 DUP2 MSTORE PUSH1 0x20 ADD PUSH1 0x40 MLOAD DUP1 SWAP2 SUB SWAP1 KECCAK256 PUSH1 0x4 ADD PUSH0 DUP2 SLOAD DUP1 SWAP3 SWAP2 SWAP1 PUSH2 0x7FF SWAP1 PUSH2 0x19C5 JUMP JUMPDEST SWAP2 SWAP1 POP SSTORE JUMPDEST POP DUP1 PUSH1 0x2 PUSH0 CALLER PUSH20 0xFFFFFFFFFFFFFFFFFFFFFFFFFFFFFFFFFFFFFFFF AND PUSH20 0xFFFFFFFFFFFFFFFFFFFFFFFFFFFFFFFFFFFFFFFF AND DUP2 MSTORE PUSH1 0x20 ADD SWAP1 DUP2 MSTORE PUSH1 0x20 ADD PUSH0 KECCAK256 PUSH1 0x3 ADD DUP5 DUP5 PUSH1 0x40 MLOAD PUSH2 0x856 SWAP3 SWAP2 SWAP1 PUSH2 0x1A3A JUMP JUMPDEST SWAP1 DUP2 MSTORE PUSH1 0x20 ADD PUSH1 0x40 MLOAD DUP1 SWAP2 SUB SWAP1 KECCAK256 PUSH0 PUSH2 0x100 EXP DUP2 SLOAD DUP2 PUSH1 0xFF MUL NOT AND SWAP1 DUP4 ISZERO ISZERO MUL OR SWAP1 SSTORE POP PUSH1 0x1 PUSH1 0x2 PUSH0 CALLER PUSH20 0xFFFFFFFFFFFFFFFFFFFFFFFFFFFFFFFFFFFFFFFF AND PUSH20 0xFFFFFFFFFFFFFFFFFFFFFFFFFFFFFFFFFFFFFFFF AND DUP2 MSTORE PUSH1 0x20 ADD SWAP1 DUP2 MSTORE PUSH1 0x20 ADD PUSH0 KECCAK256 PUSH1 0x4 ADD DUP5 DUP5 PUSH1 0x40 MLOAD PUSH2 0x8CC SWAP3 SWAP2 SWAP1 PUSH2 0x1A3A JUMP JUMPDEST SWAP1 DUP2 MSTORE PUSH1 0x20 ADD PUSH1 0x40 MLOAD DUP1 SWAP2 SUB SWAP1 KECCAK256 PUSH0 PUSH2 0x100 EXP DUP2 SLOAD DUP2 PUSH1 0xFF MUL NOT AND SWAP1 DUP4 ISZERO ISZERO MUL OR SWAP1 SSTORE POP POP POP POP JUMP JUMPDEST PUSH1 0x60 PUSH0 PUSH1 0x2 PUSH0 CALLER PUSH20 0xFFFFFFFFFFFFFFFFFFFFFFFFFFFFFFFFFFFFFFFF AND PUSH20 0xFFFFFFFFFFFFFFFFFFFFFFFFFFFFFFFFFFFFFFFF AND DUP2 MSTORE PUSH1 0x20 ADD SWAP1 DUP2 MSTORE PUSH1 0x20 ADD PUSH0 KECCAK256 PUSH1 0x2 ADD DUP1 SLOAD DUP1 PUSH1 0x20 MUL PUSH1 0x20 ADD PUSH1 0x40 MLOAD SWAP1 DUP2 ADD PUSH1 0x40 MSTORE DUP1 SWAP3 SWAP2 SWAP1 DUP2 DUP2 MSTORE PUSH1 0x20 ADD PUSH0 SWAP1 JUMPDEST DUP3 DUP3 LT ISZERO PUSH2 0x9FF JUMPI DUP4 DUP3 SWAP1 PUSH0 MSTORE PUSH1 0x20 PUSH0 KECCAK256 ADD DUP1 SLOAD PUSH2 0x974 SWAP1 PUSH2 0x1A7F JUMP JUMPDEST DUP1 PUSH1 0x1F ADD PUSH1 0x20 DUP1 SWAP2 DIV MUL PUSH1 0x20 ADD PUSH1 0x40 MLOAD SWAP1 DUP2 ADD PUSH1 0x40 MSTORE DUP1 SWAP3 SWAP2 SWAP1 DUP2 DUP2 MSTORE PUSH1 0x20 ADD DUP3 DUP1 SLOAD PUSH2 0x9A0 SWAP1 PUSH2 0x1A7F JUMP JUMPDEST DUP1 ISZERO PUSH2 0x9EB JUMPI DUP1 PUSH1 0x1F LT PUSH2 0x9C2 JUMPI PUSH2 0x100 DUP1 DUP4 SLOAD DIV MUL DUP4 MSTORE SWAP2 PUSH1 0x20 ADD SWAP2 PUSH2 0x9EB JUMP JUMPDEST DUP3 ADD SWAP2 SWAP1 PUSH0 MSTORE PUSH1 0x20 PUSH0 KECCAK256 SWAP1 JUMPDEST DUP2 SLOAD DUP2 MSTORE SWAP1 PUSH1 0x1 ADD SWAP1 PUSH1 0x20 ADD DUP1 DUP4 GT PUSH2 0x9CE JUMPI DUP3 SWAP1 SUB PUSH1 0x1F AND DUP3 ADD SWAP2 JUMPDEST POP POP POP POP POP DUP2 MSTORE PUSH1 0x20 ADD SWAP1 PUSH1 0x1 ADD SWAP1 PUSH2 0x957 JUMP JUMPDEST POP POP POP POP SWAP1 POP PUSH0 DUP2 MLOAD PUSH8 0xFFFFFFFFFFFFFFFF DUP2 GT ISZERO PUSH2 0xA21 JUMPI PUSH2 0xA20 PUSH2 0x12C4 JUMP JUMPDEST JUMPDEST PUSH1 0x40 MLOAD SWAP1 DUP1 DUP3 MSTORE DUP1 PUSH1 0x20 MUL PUSH1 0x20 ADD DUP3 ADD PUSH1 0x40 MSTORE DUP1 ISZERO PUSH2 0xA5A JUMPI DUP2 PUSH1 0x20 ADD JUMPDEST PUSH2 0xA47 PUSH2 0x1159 JUMP JUMPDEST DUP2 MSTORE PUSH1 0x20 ADD SWAP1 PUSH1 0x1 SWAP1 SUB SWAP1 DUP2 PUSH2 0xA3F JUMPI SWAP1 POP JUMPDEST POP SWAP1 POP PUSH0 JUMPDEST DUP3 MLOAD DUP2 LT ISZERO PUSH2 0xCAC JUMPI PUSH0 DUP4 DUP3 DUP2 MLOAD DUP2 LT PUSH2 0xA7C JUMPI PUSH2 0xA7B PUSH2 0x1E6B JUMP JUMPDEST JUMPDEST PUSH1 0x20 MUL PUSH1 0x20 ADD ADD MLOAD PUSH1 0x40 MLOAD PUSH2 0xA91 SWAP2 SWAP1 PUSH2 0x1E22 JUMP JUMPDEST SWAP1 DUP2 MSTORE PUSH1 0x20 ADD PUSH1 0x40 MLOAD DUP1 SWAP2 SUB SWAP1 KECCAK256 PUSH1 0x40 MLOAD DUP1 PUSH2 0x100 ADD PUSH1 0x40 MSTORE SWAP1 DUP2 PUSH0 DUP3 ADD SLOAD DUP2 MSTORE PUSH1 0x20 ADD PUSH1 0x1 DUP3 ADD DUP1 SLOAD PUSH2 0xAC4 SWAP1 PUSH2 0x1A7F JUMP JUMPDEST DUP1 PUSH1 0x1F ADD PUSH1 0x20 DUP1 SWAP2 DIV MUL PUSH1 0x20 ADD PUSH1 0x40 MLOAD SWAP1 DUP2 ADD PUSH1 0x40 MSTORE DUP1 SWAP3 SWAP2 SWAP1 DUP2 DUP2 MSTORE PUSH1 0x20 ADD DUP3 DUP1 SLOAD PUSH2 0xAF0 SWAP1 PUSH2 0x1A7F JUMP JUMPDEST DUP1 ISZERO PUSH2 0xB3B JUMPI DUP1 PUSH1 0x1F LT PUSH2 0xB12 JUMPI PUSH2 0x100 DUP1 DUP4 SLOAD DIV MUL DUP4 MSTORE SWAP2 PUSH1 0x20 ADD SWAP2 PUSH2 0xB3B JUMP JUMPDEST DUP3 ADD SWAP2 SWAP1 PUSH0 MSTORE PUSH1 0x20 PUSH0 KECCAK256 SWAP1 JUMPDEST DUP2 SLOAD DUP2 MSTORE SWAP1 PUSH1 0x1 ADD SWAP1 PUSH1 0x20 ADD DUP1 DUP4 GT PUSH2 0xB1E JUMPI DUP3 SWAP1 SUB PUSH1 0x1F AND DUP3 ADD SWAP2 JUMPDEST POP POP POP POP POP DUP2 MSTORE PUSH1 0x20 ADD PUSH1 0x2 DUP3 ADD DUP1 SLOAD PUSH2 0xB54 SWAP1 PUSH2 0x1A7F JUMP JUMPDEST DUP1 PUSH1 0x1F ADD PUSH1 0x20 DUP1 SWAP2 DIV MUL PUSH1 0x20 ADD PUSH1 0x40 MLOAD SWAP1 DUP2 ADD PUSH1 0x40 MSTORE DUP1 SWAP3 SWAP2 SWAP1 DUP2 DUP2 MSTORE PUSH1 0x20 ADD DUP3 DUP1 SLOAD PUSH2 0xB80 SWAP1 PUSH2 0x1A7F JUMP JUMPDEST DUP1 ISZERO PUSH2 0xBCB JUMPI DUP1 PUSH1 0x1F LT PUSH2 0xBA2 JUMPI PUSH2 0x100 DUP1 DUP4 SLOAD DIV MUL DUP4 MSTORE SWAP2 PUSH1 0x20 ADD SWAP2 PUSH2 0xBCB JUMP JUMPDEST DUP3 ADD SWAP2 SWAP1 PUSH0 MSTORE PUSH1 0x20 PUSH0 KECCAK256 SWAP1 JUMPDEST DUP2 SLOAD DUP2 MSTORE SWAP1 PUSH1 0x1 ADD SWAP1 PUSH1 0x20 ADD DUP1 DUP4 GT PUSH2 0xBAE JUMPI DUP3 SWAP1 SUB PUSH1 0x1F AND DUP3 ADD SWAP2 JUMPDEST POP POP POP POP POP DUP2 MSTORE PUSH1 0x20 ADD PUSH1 0x3 DUP3 ADD PUSH0 SWAP1 SLOAD SWAP1 PUSH2 0x100 EXP SWAP1 DIV PUSH20 0xFFFFFFFFFFFFFFFFFFFFFFFFFFFFFFFFFFFFFFFF AND PUSH20 0xFFFFFFFFFFFFFFFFFFFFFFFFFFFFFFFFFFFFFFFF AND PUSH20 0xFFFFFFFFFFFFFFFFFFFFFFFFFFFFFFFFFFFFFFFF AND DUP2 MSTORE PUSH1 0x20 ADD PUSH1 0x4 DUP3 ADD SLOAD DUP2 MSTORE PUSH1 0x20 ADD PUSH1 0x5 DUP3 ADD SLOAD DUP2 MSTORE PUSH1 0x20 ADD PUSH1 0x6 DUP3 ADD PUSH0 SWAP1 SLOAD SWAP1 PUSH2 0x100 EXP SWAP1 DIV PUSH1 0xFF AND PUSH1 0x2 DUP2 GT ISZERO PUSH2 0xC61 JUMPI PUSH2 0xC60 PUSH2 0x14E6 JUMP JUMPDEST JUMPDEST PUSH1 0x2 DUP2 GT ISZERO PUSH2 0xC73 JUMPI PUSH2 0xC72 PUSH2 0x14E6 JUMP JUMPDEST JUMPDEST DUP2 MSTORE PUSH1 0x20 ADD PUSH1 0x7 DUP3 ADD SLOAD DUP2 MSTORE POP POP DUP3 DUP3 DUP2 MLOAD DUP2 LT PUSH2 0xC94 JUMPI PUSH2 0xC93 PUSH2 0x1E6B JUMP JUMPDEST JUMPDEST PUSH1 0x20 MUL PUSH1 0x20 ADD ADD DUP2 SWAP1 MSTORE POP DUP1 DUP1 PUSH1 0x1 ADD SWAP2 POP POP PUSH2 0xA5F JUMP JUMPDEST POP DUP1 SWAP3 POP POP POP SWAP1 JUMP JUMPDEST NUMBER PUSH1 0xF PUSH0 DUP5 DUP5 PUSH1 0x40 MLOAD PUSH2 0xCC9 SWAP3 SWAP2 SWAP1 PUSH2 0x1A3A JUMP JUMPDEST SWAP1 DUP2 MSTORE PUSH1 0x20 ADD PUSH1 0x40 MLOAD DUP1 SWAP2 SUB SWAP1 KECCAK256 PUSH1 0x7 ADD SLOAD PUSH2 0xCE5 SWAP2 SWAP1 PUSH2 0x1E38 JUMP JUMPDEST LT PUSH2 0xCEE JUMPI PUSH0 DUP1 REVERT JUMPDEST PUSH0 DUP1 DUP4 DUP4 PUSH1 0x40 MLOAD PUSH2 0xD00 SWAP3 SWAP2 SWAP1 PUSH2 0x1A3A JUMP JUMPDEST SWAP1 DUP2 MSTORE PUSH1 0x20 ADD PUSH1 0x40 MLOAD DUP1 SWAP2 SUB SWAP1 KECCAK256 PUSH1 0x5 ADD SLOAD PUSH0 DUP5 DUP5 PUSH1 0x40 MLOAD PUSH2 0xD23 SWAP3 SWAP2 SWAP1 PUSH2 0x1A3A JUMP JUMPDEST SWAP1 DUP2 MSTORE PUSH1 0x20 ADD PUSH1 0x40 MLOAD DUP1 SWAP2 SUB SWAP1 KECCAK256 PUSH1 0x4 ADD SLOAD PUSH2 0xD3F SWAP2 SWAP1 PUSH2 0x1E38 JUMP JUMPDEST SWAP1 POP PUSH1 0x64 PUSH1 0x46 PUSH1 0x3 SLOAD PUSH2 0xD52 SWAP2 SWAP1 PUSH2 0x1E98 JUMP JUMPDEST PUSH2 0xD5C SWAP2 SWAP1 PUSH2 0x1F06 JUMP JUMPDEST DUP2 LT ISZERO DUP1 ISZERO PUSH2 0xDA5 JUMPI POP PUSH1 0x64 PUSH1 0x42 DUP3 PUSH2 0xD75 SWAP2 SWAP1 PUSH2 0x1E98 JUMP JUMPDEST PUSH2 0xD7F SWAP2 SWAP1 PUSH2 0x1F06 JUMP JUMPDEST PUSH0 DUP5 DUP5 PUSH1 0x40 MLOAD PUSH2 0xD90 SWAP3 SWAP2 SWAP1 PUSH2 0x1A3A JUMP JUMPDEST SWAP1 DUP2 MSTORE PUSH1 0x20 ADD PUSH1 0x40 MLOAD DUP1 SWAP2 SUB SWAP1 KECCAK256 PUSH1 0x4 ADD SLOAD LT ISZERO JUMPDEST ISZERO PUSH2 0xDF9 JUMPI PUSH1 0x1 PUSH0 DUP5 DUP5 PUSH1 0x40 MLOAD PUSH2 0xDBD SWAP3 SWAP2 SWAP1 PUSH2 0x1A3A JUMP JUMPDEST SWAP1 DUP2 MSTORE PUSH1 0x20 ADD PUSH1 0x40 MLOAD DUP1 SWAP2 SUB SWAP1 KECCAK256 PUSH1 0x6 ADD PUSH0 PUSH2 0x100 EXP DUP2 SLOAD DUP2 PUSH1 0xFF MUL NOT AND SWAP1 DUP4 PUSH1 0x2 DUP2 GT ISZERO PUSH2 0xDEF JUMPI PUSH2 0xDEE PUSH2 0x14E6 JUMP JUMPDEST JUMPDEST MUL OR SWAP1 SSTORE POP PUSH2 0xE44 JUMP JUMPDEST PUSH1 0x2 PUSH0 DUP5 DUP5 PUSH1 0x40 MLOAD PUSH2 0xE0C SWAP3 SWAP2 SWAP1 PUSH2 0x1A3A JUMP JUMPDEST SWAP1 DUP2 MSTORE PUSH1 0x20 ADD PUSH1 0x40 MLOAD DUP1 SWAP2 SUB SWAP1 KECCAK256 PUSH1 0x6 ADD PUSH0 PUSH2 0x100 EXP DUP2 SLOAD DUP2 PUSH1 0xFF MUL NOT AND SWAP1 DUP4 PUSH1 0x2 DUP2 GT ISZERO PUSH2 0xE3E JUMPI PUSH2 0xE3D PUSH2 0x14E6 JUMP JUMPDEST JUMPDEST MUL OR SWAP1 SSTORE POP JUMPDEST POP POP POP JUMP JUMPDEST PUSH0 PUSH20 0xFFFFFFFFFFFFFFFFFFFFFFFFFFFFFFFFFFFFFFFF AND PUSH1 0x2 PUSH0 CALLER PUSH20 0xFFFFFFFFFFFFFFFFFFFFFFFFFFFFFFFFFFFFFFFF AND PUSH20 0xFFFFFFFFFFFFFFFFFFFFFFFFFFFFFFFFFFFFFFFF AND DUP2 MSTORE PUSH1 0x20 ADD SWAP1 DUP2 MSTORE PUSH1 0x20 ADD PUSH0 KECCAK256 PUSH1 0x1 ADD PUSH0 SWAP1 SLOAD SWAP1 PUSH2 0x100 EXP SWAP1 DIV PUSH20 0xFFFFFFFFFFFFFFFFFFFFFFFFFFFFFFFFFFFFFFFF AND PUSH20 0xFFFFFFFFFFFFFFFFFFFFFFFFFFFFFFFFFFFFFFFF AND EQ PUSH2 0xEDF JUMPI PUSH0 DUP1 REVERT JUMPDEST DUP2 DUP2 PUSH1 0x2 PUSH0 CALLER PUSH20 0xFFFFFFFFFFFFFFFFFFFFFFFFFFFFFFFFFFFFFFFF AND PUSH20 0xFFFFFFFFFFFFFFFFFFFFFFFFFFFFFFFFFFFFFFFF AND DUP2 MSTORE PUSH1 0x20 ADD SWAP1 DUP2 MSTORE PUSH1 0x20 ADD PUSH0 KECCAK256 PUSH0 ADD SWAP2 DUP3 PUSH2 0xF2D SWAP3 SWAP2 SWAP1 PUSH2 0x1D25 JUMP JUMPDEST POP CALLER PUSH1 0x2 PUSH0 CALLER PUSH20 0xFFFFFFFFFFFFFFFFFFFFFFFFFFFFFFFFFFFFFFFF AND PUSH20 0xFFFFFFFFFFFFFFFFFFFFFFFFFFFFFFFFFFFFFFFF AND DUP2 MSTORE PUSH1 0x20 ADD SWAP1 DUP2 MSTORE PUSH1 0x20 ADD PUSH0 KECCAK256 PUSH1 0x1 ADD PUSH0 PUSH2 0x100 EXP DUP2 SLOAD DUP2 PUSH20 0xFFFFFFFFFFFFFFFFFFFFFFFFFFFFFFFFFFFFFFFF MUL NOT AND SWAP1 DUP4 PUSH20 0xFFFFFFFFFFFFFFFFFFFFFFFFFFFFFFFFFFFFFFFF AND MUL OR SWAP1 SSTORE POP PUSH1 0x3 PUSH0 DUP2 SLOAD DUP1 SWAP3 SWAP2 SWAP1 PUSH2 0xFBE SWAP1 PUSH2 0x19C5 JUMP JUMPDEST SWAP2 SWAP1 POP SSTORE POP POP POP JUMP JUMPDEST PUSH0 DUP2 DUP1 MLOAD PUSH1 0x20 DUP2 ADD DUP3 ADD DUP1 MLOAD DUP5 DUP3 MSTORE PUSH1 0x20 DUP4 ADD PUSH1 0x20 DUP6 ADD KECCAK256 DUP2 DUP4 MSTORE DUP1 SWAP6 POP POP POP POP POP POP PUSH0 SWAP2 POP SWAP1 POP DUP1 PUSH0 ADD SLOAD SWAP1 DUP1 PUSH1 0x1 ADD DUP1 SLOAD PUSH2 0x1003 SWAP1 PUSH2 0x1A7F JUMP JUMPDEST DUP1 PUSH1 0x1F ADD PUSH1 0x20 DUP1 SWAP2 DIV MUL PUSH1 0x20 ADD PUSH1 0x40 MLOAD SWAP1 DUP2 ADD PUSH1 0x40 MSTORE DUP1 SWAP3 SWAP2 SWAP1 DUP2 DUP2 MSTORE PUSH1 0x20 ADD DUP3 DUP1 SLOAD PUSH2 0x102F SWAP1 PUSH2 0x1A7F JUMP JUMPDEST DUP1 ISZERO PUSH2 0x107A JUMPI DUP1 PUSH1 0x1F LT PUSH2 0x1051 JUMPI PUSH2 0x100 DUP1 DUP4 SLOAD DIV MUL DUP4 MSTORE SWAP2 PUSH1 0x20 ADD SWAP2 PUSH2 0x107A JUMP JUMPDEST DUP3 ADD SWAP2 SWAP1 PUSH0 MSTORE PUSH1 0x20 PUSH0 KECCAK256 SWAP1 JUMPDEST DUP2 SLOAD DUP2 MSTORE SWAP1 PUSH1 0x1 ADD SWAP1 PUSH1 0x20 ADD DUP1 DUP4 GT PUSH2 0x105D JUMPI DUP3 SWAP1 SUB PUSH1 0x1F AND DUP3 ADD SWAP2 JUMPDEST POP POP POP POP POP SWAP1 DUP1 PUSH1 0x2 ADD DUP1 SLOAD PUSH2 0x108F SWAP1 PUSH2 0x1A7F JUMP JUMPDEST DUP1 PUSH1 0x1F ADD PUSH1 0x20 DUP1 SWAP2 DIV MUL PUSH1 0x20 ADD PUSH1 0x40 MLOAD SWAP1 DUP2 ADD PUSH1 0x40 MSTORE DUP1 SWAP3 SWAP2 SWAP1 DUP2 DUP2 MSTORE PUSH1 0x20 ADD DUP3 DUP1 SLOAD PUSH2 0x10BB SWAP1 PUSH2 0x1A7F JUMP JUMPDEST DUP1 ISZERO PUSH2 0x1106 JUMPI DUP1 PUSH1 0x1F LT PUSH2 0x10DD JUMPI PUSH2 0x100 DUP1 DUP4 SLOAD DIV MUL DUP4 MSTORE SWAP2 PUSH1 0x20 ADD SWAP2 PUSH2 0x1106 JUMP JUMPDEST DUP3 ADD SWAP2 SWAP1 PUSH0 MSTORE PUSH1 0x20 PUSH0 KECCAK256 SWAP1 JUMPDEST DUP2 SLOAD DUP2 MSTORE SWAP1 PUSH1 0x1 ADD SWAP1 PUSH1 0x20 ADD DUP1 DUP4 GT PUSH2 0x10E9 JUMPI DUP3 SWAP1 SUB PUSH1 0x1F AND DUP3 ADD SWAP2 JUMPDEST POP POP POP POP POP SWAP1 DUP1 PUSH1 0x3 ADD PUSH0 SWAP1 SLOAD SWAP1 PUSH2 0x100 EXP SWAP1 DIV PUSH20 0xFFFFFFFFFFFFFFFFFFFFFFFFFFFFFFFFFFFFFFFF AND SWAP1 DUP1 PUSH1 0x4 ADD SLOAD SWAP1 DUP1 PUSH1 0x5 ADD SLOAD SWAP1 DUP1 PUSH1 0x6 ADD PUSH0 SWAP1 SLOAD SWAP1 PUSH2 0x100 EXP SWAP1 DIV PUSH1 0xFF AND SWAP1 DUP1 PUSH1 0x7 ADD SLOAD SWAP1 POP DUP9 JUMP JUMPDEST PUSH1 0x40 MLOAD DUP1 PUSH2 0x100 ADD PUSH1 0x40 MSTORE DUP1 PUSH0 DUP2 MSTORE PUSH1 0x20 ADD PUSH1 0x60 DUP2 MSTORE PUSH1 0x20 ADD PUSH1 0x60 DUP2 MSTORE PUSH1 0x20 ADD PUSH0 PUSH20 0xFFFFFFFFFFFFFFFFFFFFFFFFFFFFFFFFFFFFFFFF AND DUP2 MSTORE PUSH1 0x20 ADD PUSH0 DUP2 MSTORE PUSH1 0x20 ADD PUSH0 DUP2 MSTORE PUSH1 0x20 ADD PUSH0 PUSH1 0x2 DUP2 GT ISZERO PUSH2 0x11B4 JUMPI PUSH2 0x11B3 PUSH2 0x14E6 JUMP JUMPDEST JUMPDEST DUP2 MSTORE PUSH1 0x20 ADD PUSH0 DUP2 MSTORE POP SWAP1 JUMP JUMPDEST PUSH0 PUSH1 0x40 MLOAD SWAP1 POP SWAP1 JUMP JUMPDEST PUSH0 DUP1 REVERT JUMPDEST PUSH0 DUP1 REVERT JUMPDEST PUSH0 DUP1 REVERT JUMPDEST PUSH0 DUP1 REVERT JUMPDEST PUSH0 DUP1 REVERT JUMPDEST PUSH0 DUP1 DUP4 PUSH1 0x1F DUP5 ADD SLT PUSH2 0x11F2 JUMPI PUSH2 0x11F1 PUSH2 0x11D1 JUMP JUMPDEST JUMPDEST DUP3 CALLDATALOAD SWAP1 POP PUSH8 0xFFFFFFFFFFFFFFFF DUP2 GT ISZERO PUSH2 0x120F JUMPI PUSH2 0x120E PUSH2 0x11D5 JUMP JUMPDEST JUMPDEST PUSH1 0x20 DUP4 ADD SWAP2 POP DUP4 PUSH1 0x1 DUP3 MUL DUP4 ADD GT ISZERO PUSH2 0x122B JUMPI PUSH2 0x122A PUSH2 0x11D9 JUMP JUMPDEST JUMPDEST SWAP3 POP SWAP3 SWAP1 POP JUMP JUMPDEST PUSH0 DUP1 PUSH0 DUP1 PUSH1 0x40 DUP6 DUP8 SUB SLT ISZERO PUSH2 0x124A JUMPI PUSH2 0x1249 PUSH2 0x11C9 JUMP JUMPDEST JUMPDEST PUSH0 DUP6 ADD CALLDATALOAD PUSH8 0xFFFFFFFFFFFFFFFF DUP2 GT ISZERO PUSH2 0x1267 JUMPI PUSH2 0x1266 PUSH2 0x11CD JUMP JUMPDEST JUMPDEST PUSH2 0x1273 DUP8 DUP3 DUP9 ADD PUSH2 0x11DD JUMP JUMPDEST SWAP5 POP SWAP5 POP POP PUSH1 0x20 DUP6 ADD CALLDATALOAD PUSH8 0xFFFFFFFFFFFFFFFF DUP2 GT ISZERO PUSH2 0x1296 JUMPI PUSH2 0x1295 PUSH2 0x11CD JUMP JUMPDEST JUMPDEST PUSH2 0x12A2 DUP8 DUP3 DUP9 ADD PUSH2 0x11DD JUMP JUMPDEST SWAP3 POP SWAP3 POP POP SWAP3 SWAP6 SWAP2 SWAP5 POP SWAP3 POP JUMP JUMPDEST PUSH0 DUP1 REVERT JUMPDEST PUSH0 PUSH1 0x1F NOT PUSH1 0x1F DUP4 ADD AND SWAP1 POP SWAP2 SWAP1 POP JUMP JUMPDEST PUSH32 0x4E487B7100000000000000000000000000000000000000000000000000000000 PUSH0 MSTORE PUSH1 0x41 PUSH1 0x4 MSTORE PUSH1 0x24 PUSH0 REVERT JUMPDEST PUSH2 0x12FA DUP3 PUSH2 0x12B4 JUMP JUMPDEST DUP2 ADD DUP2 DUP2 LT PUSH8 0xFFFFFFFFFFFFFFFF DUP3 GT OR ISZERO PUSH2 0x1319 JUMPI PUSH2 0x1318 PUSH2 0x12C4 JUMP JUMPDEST JUMPDEST DUP1 PUSH1 0x40 MSTORE POP POP POP JUMP JUMPDEST PUSH0 PUSH2 0x132B PUSH2 0x11C0 JUMP JUMPDEST SWAP1 POP PUSH2 0x1337 DUP3 DUP3 PUSH2 0x12F1 JUMP JUMPDEST SWAP2 SWAP1 POP JUMP JUMPDEST PUSH0 PUSH8 0xFFFFFFFFFFFFFFFF DUP3 GT ISZERO PUSH2 0x1356 JUMPI PUSH2 0x1355 PUSH2 0x12C4 JUMP JUMPDEST JUMPDEST PUSH2 0x135F DUP3 PUSH2 0x12B4 JUMP JUMPDEST SWAP1 POP PUSH1 0x20 DUP2 ADD SWAP1 POP SWAP2 SWAP1 POP JUMP JUMPDEST DUP3 DUP2 DUP4 CALLDATACOPY PUSH0 DUP4 DUP4 ADD MSTORE POP POP POP JUMP JUMPDEST PUSH0 PUSH2 0x138C PUSH2 0x1387 DUP5 PUSH2 0x133C JUMP JUMPDEST PUSH2 0x1322 JUMP JUMPDEST SWAP1 POP DUP3 DUP2 MSTORE PUSH1 0x20 DUP2 ADD DUP5 DUP5 DUP5 ADD GT ISZERO PUSH2 0x13A8 JUMPI PUSH2 0x13A7 PUSH2 0x12B0 JUMP JUMPDEST JUMPDEST PUSH2 0x13B3 DUP5 DUP3 DUP6 PUSH2 0x136C JUMP JUMPDEST POP SWAP4 SWAP3 POP POP POP JUMP JUMPDEST PUSH0 DUP3 PUSH1 0x1F DUP4 ADD SLT PUSH2 0x13CF JUMPI PUSH2 0x13CE PUSH2 0x11D1 JUMP JUMPDEST JUMPDEST DUP2 CALLDATALOAD PUSH2 0x13DF DUP5 DUP3 PUSH1 0x20 DUP7 ADD PUSH2 0x137A JUMP JUMPDEST SWAP2 POP POP SWAP3 SWAP2 POP POP JUMP JUMPDEST PUSH0 PUSH1 0x20 DUP3 DUP5 SUB SLT ISZERO PUSH2 0x13FD JUMPI PUSH2 0x13FC PUSH2 0x11C9 JUMP JUMPDEST JUMPDEST PUSH0 DUP3 ADD CALLDATALOAD PUSH8 0xFFFFFFFFFFFFFFFF DUP2 GT ISZERO PUSH2 0x141A JUMPI PUSH2 0x1419 PUSH2 0x11CD JUMP JUMPDEST JUMPDEST PUSH2 0x1426 DUP5 DUP3 DUP6 ADD PUSH2 0x13BB JUMP JUMPDEST SWAP2 POP POP SWAP3 SWAP2 POP POP JUMP JUMPDEST PUSH0 DUP2 SWAP1 POP SWAP2 SWAP1 POP JUMP JUMPDEST PUSH2 0x1441 DUP2 PUSH2 0x142F JUMP JUMPDEST DUP3 MSTORE POP POP JUMP JUMPDEST PUSH0 DUP2 MLOAD SWAP1 POP SWAP2 SWAP1 POP JUMP JUMPDEST PUSH0 DUP3 DUP3 MSTORE PUSH1 0x20 DUP3 ADD SWAP1 POP SWAP3 SWAP2 POP POP JUMP JUMPDEST DUP3 DUP2 DUP4 MCOPY PUSH0 DUP4 DUP4 ADD MSTORE POP POP POP JUMP JUMPDEST PUSH0 PUSH2 0x1479 DUP3 PUSH2 0x1447 JUMP JUMPDEST PUSH2 0x1483 DUP2 DUP6 PUSH2 0x1451 JUMP JUMPDEST SWAP4 POP PUSH2 0x1493 DUP2 DUP6 PUSH1 0x20 DUP7 ADD PUSH2 0x1461 JUMP JUMPDEST PUSH2 0x149C DUP2 PUSH2 0x12B4 JUMP JUMPDEST DUP5 ADD SWAP2 POP POP SWAP3 SWAP2 POP POP JUMP JUMPDEST PUSH0 PUSH20 0xFFFFFFFFFFFFFFFFFFFFFFFFFFFFFFFFFFFFFFFF DUP3 AND SWAP1 POP SWAP2 SWAP1 POP JUMP JUMPDEST PUSH0 PUSH2 0x14D0 DUP3 PUSH2 0x14A7 JUMP JUMPDEST SWAP1 POP SWAP2 SWAP1 POP JUMP JUMPDEST PUSH2 0x14E0 DUP2 PUSH2 0x14C6 JUMP JUMPDEST DUP3 MSTORE POP POP JUMP JUMPDEST PUSH32 0x4E487B7100000000000000000000000000000000000000000000000000000000 PUSH0 MSTORE PUSH1 0x21 PUSH1 0x4 MSTORE PUSH1 0x24 PUSH0 REVERT JUMPDEST PUSH1 0x3 DUP2 LT PUSH2 0x1524 JUMPI PUSH2 0x1523 PUSH2 0x14E6 JUMP JUMPDEST JUMPDEST POP JUMP JUMPDEST PUSH0 DUP2 SWAP1 POP PUSH2 0x1534 DUP3 PUSH2 0x1513 JUMP JUMPDEST SWAP2 SWAP1 POP JUMP JUMPDEST PUSH0 PUSH2 0x1543 DUP3 PUSH2 0x1527 JUMP JUMPDEST SWAP1 POP SWAP2 SWAP1 POP JUMP JUMPDEST PUSH2 0x1553 DUP2 PUSH2 0x1539 JUMP JUMPDEST DUP3 MSTORE POP POP JUMP JUMPDEST PUSH0 PUSH2 0x100 DUP4 ADD PUSH0 DUP4 ADD MLOAD PUSH2 0x156F PUSH0 DUP7 ADD DUP3 PUSH2 0x1438 JUMP JUMPDEST POP PUSH1 0x20 DUP4 ADD MLOAD DUP5 DUP3 SUB PUSH1 0x20 DUP7 ADD MSTORE PUSH2 0x1587 DUP3 DUP3 PUSH2 0x146F JUMP JUMPDEST SWAP2 POP POP PUSH1 0x40 DUP4 ADD MLOAD DUP5 DUP3 SUB PUSH1 0x40 DUP7 ADD MSTORE PUSH2 0x15A1 DUP3 DUP3 PUSH2 0x146F JUMP JUMPDEST SWAP2 POP POP PUSH1 0x60 DUP4 ADD MLOAD PUSH2 0x15B6 PUSH1 0x60 DUP7 ADD DUP3 PUSH2 0x14D7 JUMP JUMPDEST POP PUSH1 0x80 DUP4 ADD MLOAD PUSH2 0x15C9 PUSH1 0x80 DUP7 ADD DUP3 PUSH2 0x1438 JUMP JUMPDEST POP PUSH1 0xA0 DUP4 ADD MLOAD PUSH2 0x15DC PUSH1 0xA0 DUP7 ADD DUP3 PUSH2 0x1438 JUMP JUMPDEST POP PUSH1 0xC0 DUP4 ADD MLOAD PUSH2 0x15EF PUSH1 0xC0 DUP7 ADD DUP3 PUSH2 0x154A JUMP JUMPDEST POP PUSH1 0xE0 DUP4 ADD MLOAD PUSH2 0x1602 PUSH1 0xE0 DUP7 ADD DUP3 PUSH2 0x1438 JUMP JUMPDEST POP DUP1 SWAP2 POP POP SWAP3 SWAP2 POP POP JUMP JUMPDEST PUSH0 PUSH1 0x20 DUP3 ADD SWAP1 POP DUP2 DUP2 SUB PUSH0 DUP4 ADD MSTORE PUSH2 0x1625 DUP2 DUP5 PUSH2 0x1559 JUMP JUMPDEST SWAP1 POP SWAP3 SWAP2 POP POP JUMP JUMPDEST PUSH0 DUP2 ISZERO ISZERO SWAP1 POP SWAP2 SWAP1 POP JUMP JUMPDEST PUSH2 0x1641 DUP2 PUSH2 0x162D JUMP JUMPDEST DUP2 EQ PUSH2 0x164B JUMPI PUSH0 DUP1 REVERT JUMPDEST POP JUMP JUMPDEST PUSH0 DUP2 CALLDATALOAD SWAP1 POP PUSH2 0x165C DUP2 PUSH2 0x1638 JUMP JUMPDEST SWAP3 SWAP2 POP POP JUMP JUMPDEST PUSH0 DUP1 PUSH0 PUSH1 0x40 DUP5 DUP7 SUB SLT ISZERO PUSH2 0x1679 JUMPI PUSH2 0x1678 PUSH2 0x11C9 JUMP JUMPDEST JUMPDEST PUSH0 DUP5 ADD CALLDATALOAD PUSH8 0xFFFFFFFFFFFFFFFF DUP2 GT ISZERO PUSH2 0x1696 JUMPI PUSH2 0x1695 PUSH2 0x11CD JUMP JUMPDEST JUMPDEST PUSH2 0x16A2 DUP7 DUP3 DUP8 ADD PUSH2 0x11DD JUMP JUMPDEST SWAP4 POP SWAP4 POP POP PUSH1 0x20 PUSH2 0x16B5 DUP7 DUP3 DUP8 ADD PUSH2 0x164E JUMP JUMPDEST SWAP2 POP POP SWAP3 POP SWAP3 POP SWAP3 JUMP JUMPDEST PUSH0 DUP2 MLOAD SWAP1 POP SWAP2 SWAP1 POP JUMP JUMPDEST PUSH0 DUP3 DUP3 MSTORE PUSH1 0x20 DUP3 ADD SWAP1 POP SWAP3 SWAP2 POP POP JUMP JUMPDEST PUSH0 DUP2 SWAP1 POP PUSH1 0x20 DUP3 ADD SWAP1 POP SWAP2 SWAP1 POP JUMP JUMPDEST PUSH0 PUSH2 0x100 DUP4 ADD PUSH0 DUP4 ADD MLOAD PUSH2 0x16FE PUSH0 DUP7 ADD DUP3 PUSH2 0x1438 JUMP JUMPDEST POP PUSH1 0x20 DUP4 ADD MLOAD DUP5 DUP3 SUB PUSH1 0x20 DUP7 ADD MSTORE PUSH2 0x1716 DUP3 DUP3 PUSH2 0x146F JUMP JUMPDEST SWAP2 POP POP PUSH1 0x40 DUP4 ADD MLOAD DUP5 DUP3 SUB PUSH1 0x40 DUP7 ADD MSTORE PUSH2 0x1730 DUP3 DUP3 PUSH2 0x146F JUMP JUMPDEST SWAP2 POP POP PUSH1 0x60 DUP4 ADD MLOAD PUSH2 0x1745 PUSH1 0x60 DUP7 ADD DUP3 PUSH2 0x14D7 JUMP JUMPDEST POP PUSH1 0x80 DUP4 ADD MLOAD PUSH2 0x1758 PUSH1 0x80 DUP7 ADD DUP3 PUSH2 0x1438 JUMP JUMPDEST POP PUSH1 0xA0 DUP4 ADD MLOAD PUSH2 0x176B PUSH1 0xA0 DUP7 ADD DUP3 PUSH2 0x1438 JUMP JUMPDEST POP PUSH1 0xC0 DUP4 ADD MLOAD PUSH2 0x177E PUSH1 0xC0 DUP7 ADD DUP3 PUSH2 0x154A JUMP JUMPDEST POP PUSH1 0xE0 DUP4 ADD MLOAD PUSH2 0x1791 PUSH1 0xE0 DUP7 ADD DUP3 PUSH2 0x1438 JUMP JUMPDEST POP DUP1 SWAP2 POP POP SWAP3 SWAP2 POP POP JUMP JUMPDEST PUSH0 PUSH2 0x17A7 DUP4 DUP4 PUSH2 0x16E8 JUMP JUMPDEST SWAP1 POP SWAP3 SWAP2 POP POP JUMP JUMPDEST PUSH0 PUSH1 0x20 DUP3 ADD SWAP1 POP SWAP2 SWAP1 POP JUMP JUMPDEST PUSH0 PUSH2 0x17C5 DUP3 PUSH2 0x16BF JUMP JUMPDEST PUSH2 0x17CF DUP2 DUP6 PUSH2 0x16C9 JUMP JUMPDEST SWAP4 POP DUP4 PUSH1 0x20 DUP3 MUL DUP6 ADD PUSH2 0x17E1 DUP6 PUSH2 0x16D9 JUMP JUMPDEST DUP1 PUSH0 JUMPDEST DUP6 DUP2 LT ISZERO PUSH2 0x181C JUMPI DUP5 DUP5 SUB DUP10 MSTORE DUP2 MLOAD PUSH2 0x17FD DUP6 DUP3 PUSH2 0x179C JUMP JUMPDEST SWAP5 POP PUSH2 0x1808 DUP4 PUSH2 0x17AF JUMP JUMPDEST SWAP3 POP PUSH1 0x20 DUP11 ADD SWAP10 POP POP PUSH1 0x1 DUP2 ADD SWAP1 POP PUSH2 0x17E4 JUMP JUMPDEST POP DUP3 SWAP8 POP DUP8 SWAP6 POP POP POP POP POP POP SWAP3 SWAP2 POP POP JUMP JUMPDEST PUSH0 PUSH1 0x20 DUP3 ADD SWAP1 POP DUP2 DUP2 SUB PUSH0 DUP4 ADD MSTORE PUSH2 0x1846 DUP2 DUP5 PUSH2 0x17BB JUMP JUMPDEST SWAP1 POP SWAP3 SWAP2 POP POP JUMP JUMPDEST PUSH0 DUP1 PUSH1 0x20 DUP4 DUP6 SUB SLT ISZERO PUSH2 0x1864 JUMPI PUSH2 0x1863 PUSH2 0x11C9 JUMP JUMPDEST JUMPDEST PUSH0 DUP4 ADD CALLDATALOAD PUSH8 0xFFFFFFFFFFFFFFFF DUP2 GT ISZERO PUSH2 0x1881 JUMPI PUSH2 0x1880 PUSH2 0x11CD JUMP JUMPDEST JUMPDEST PUSH2 0x188D DUP6 DUP3 DUP7 ADD PUSH2 0x11DD JUMP JUMPDEST SWAP3 POP SWAP3 POP POP SWAP3 POP SWAP3 SWAP1 POP JUMP JUMPDEST PUSH2 0x18A2 DUP2 PUSH2 0x142F JUMP JUMPDEST DUP3 MSTORE POP POP JUMP JUMPDEST PUSH0 DUP3 DUP3 MSTORE PUSH1 0x20 DUP3 ADD SWAP1 POP SWAP3 SWAP2 POP POP JUMP JUMPDEST PUSH0 PUSH2 0x18C2 DUP3 PUSH2 0x1447 JUMP JUMPDEST PUSH2 0x18CC DUP2 DUP6 PUSH2 0x18A8 JUMP JUMPDEST SWAP4 POP PUSH2 0x18DC DUP2 DUP6 PUSH1 0x20 DUP7 ADD PUSH2 0x1461 JUMP JUMPDEST PUSH2 0x18E5 DUP2 PUSH2 0x12B4 JUMP JUMPDEST DUP5 ADD SWAP2 POP POP SWAP3 SWAP2 POP POP JUMP JUMPDEST PUSH2 0x18F9 DUP2 PUSH2 0x14C6 JUMP JUMPDEST DUP3 MSTORE POP POP JUMP JUMPDEST PUSH2 0x1908 DUP2 PUSH2 0x1539 JUMP JUMPDEST DUP3 MSTORE POP POP JUMP JUMPDEST PUSH0 PUSH2 0x100 DUP3 ADD SWAP1 POP PUSH2 0x1922 PUSH0 DUP4 ADD DUP12 PUSH2 0x1899 JUMP JUMPDEST DUP2 DUP2 SUB PUSH1 0x20 DUP4 ADD MSTORE PUSH2 0x1934 DUP2 DUP11 PUSH2 0x18B8 JUMP JUMPDEST SWAP1 POP DUP2 DUP2 SUB PUSH1 0x40 DUP4 ADD MSTORE PUSH2 0x1948 DUP2 DUP10 PUSH2 0x18B8 JUMP JUMPDEST SWAP1 POP PUSH2 0x1957 PUSH1 0x60 DUP4 ADD DUP9 PUSH2 0x18F0 JUMP JUMPDEST PUSH2 0x1964 PUSH1 0x80 DUP4 ADD DUP8 PUSH2 0x1899 JUMP JUMPDEST PUSH2 0x1971 PUSH1 0xA0 DUP4 ADD DUP7 PUSH2 0x1899 JUMP JUMPDEST PUSH2 0x197E PUSH1 0xC0 DUP4 ADD DUP6 PUSH2 0x18FF JUMP JUMPDEST PUSH2 0x198B PUSH1 0xE0 DUP4 ADD DUP5 PUSH2 0x1899 JUMP JUMPDEST SWAP10 SWAP9 POP POP POP POP POP POP POP POP POP JUMP JUMPDEST PUSH32 0x4E487B7100000000000000000000000000000000000000000000000000000000 PUSH0 MSTORE PUSH1 0x11 PUSH1 0x4 MSTORE PUSH1 0x24 PUSH0 REVERT JUMPDEST PUSH0 PUSH2 0x19CF DUP3 PUSH2 0x142F JUMP JUMPDEST SWAP2 POP PUSH32 0xFFFFFFFFFFFFFFFFFFFFFFFFFFFFFFFFFFFFFFFFFFFFFFFFFFFFFFFFFFFFFFFF DUP3 SUB PUSH2 0x1A01 JUMPI PUSH2 0x1A00 PUSH2 0x1998 JUMP JUMPDEST JUMPDEST PUSH1 0x1 DUP3 ADD SWAP1 POP SWAP2 SWAP1 POP JUMP JUMPDEST PUSH0 DUP2 SWAP1 POP SWAP3 SWAP2 POP POP JUMP JUMPDEST PUSH0 PUSH2 0x1A21 DUP4 DUP6 PUSH2 0x1A0C JUMP JUMPDEST SWAP4 POP PUSH2 0x1A2E DUP4 DUP6 DUP5 PUSH2 0x136C JUMP JUMPDEST DUP3 DUP5 ADD SWAP1 POP SWAP4 SWAP3 POP POP POP JUMP JUMPDEST PUSH0 PUSH2 0x1A46 DUP3 DUP5 DUP7 PUSH2 0x1A16 JUMP JUMPDEST SWAP2 POP DUP2 SWAP1 POP SWAP4 SWAP3 POP POP POP JUMP JUMPDEST PUSH32 0x4E487B7100000000000000000000000000000000000000000000000000000000 PUSH0 MSTORE PUSH1 0x22 PUSH1 0x4 MSTORE PUSH1 0x24 PUSH0 REVERT JUMPDEST PUSH0 PUSH1 0x2 DUP3 DIV SWAP1 POP PUSH1 0x1 DUP3 AND DUP1 PUSH2 0x1A96 JUMPI PUSH1 0x7F DUP3 AND SWAP2 POP JUMPDEST PUSH1 0x20 DUP3 LT DUP2 SUB PUSH2 0x1AA9 JUMPI PUSH2 0x1AA8 PUSH2 0x1A52 JUMP JUMPDEST JUMPDEST POP SWAP2 SWAP1 POP JUMP JUMPDEST PUSH0 DUP2 SWAP1 POP DUP2 PUSH0 MSTORE PUSH1 0x20 PUSH0 KECCAK256 SWAP1 POP SWAP2 SWAP1 POP JUMP JUMPDEST PUSH0 PUSH1 0x20 PUSH1 0x1F DUP4 ADD DIV SWAP1 POP SWAP2 SWAP1 POP JUMP JUMPDEST PUSH0 DUP3 DUP3 SHL SWAP1 POP SWAP3 SWAP2 POP POP JUMP JUMPDEST PUSH0 PUSH1 0x8 DUP4 MUL PUSH2 0x1B0B PUSH32 0xFFFFFFFFFFFFFFFFFFFFFFFFFFFFFFFFFFFFFFFFFFFFFFFFFFFFFFFFFFFFFFFF DUP3 PUSH2 0x1AD0 JUMP JUMPDEST PUSH2 0x1B15 DUP7 DUP4 PUSH2 0x1AD0 JUMP JUMPDEST SWAP6 POP DUP1 NOT DUP5 AND SWAP4 POP DUP1 DUP7 AND DUP5 OR SWAP3 POP POP POP SWAP4 SWAP3 POP POP POP JUMP JUMPDEST PUSH0 DUP2 SWAP1 POP SWAP2 SWAP1 POP JUMP JUMPDEST PUSH0 PUSH2 0x1B50 PUSH2 0x1B4B PUSH2 0x1B46 DUP5 PUSH2 0x142F JUMP JUMPDEST PUSH2 0x1B2D JUMP JUMPDEST PUSH2 0x142F JUMP JUMPDEST SWAP1 POP SWAP2 SWAP1 POP JUMP JUMPDEST PUSH0 DUP2 SWAP1 POP SWAP2 SWAP1 POP JUMP JUMPDEST PUSH2 0x1B69 DUP4 PUSH2 0x1B36 JUMP JUMPDEST PUSH2 0x1B7D PUSH2 0x1B75 DUP3 PUSH2 0x1B57 JUMP JUMPDEST DUP5 DUP5 SLOAD PUSH2 0x1ADC JUMP JUMPDEST DUP3 SSTORE POP POP POP POP JUMP JUMPDEST PUSH0 SWAP1 JUMP JUMPDEST PUSH2 0x1B91 PUSH2 0x1B85 JUMP JUMPDEST PUSH2 0x1B9C DUP2 DUP5 DUP5 PUSH2 0x1B60 JUMP JUMPDEST POP POP POP JUMP JUMPDEST JUMPDEST DUP2 DUP2 LT ISZERO PUSH2 0x1BBF JUMPI PUSH2 0x1BB4 PUSH0 DUP3 PUSH2 0x1B89 JUMP JUMPDEST PUSH1 0x1 DUP2 ADD SWAP1 POP PUSH2 0x1BA2 JUMP JUMPDEST POP POP JUMP JUMPDEST PUSH1 0x1F DUP3 GT ISZERO PUSH2 0x1C04 JUMPI PUSH2 0x1BD5 DUP2 PUSH2 0x1AAF JUMP JUMPDEST PUSH2 0x1BDE DUP5 PUSH2 0x1AC1 JUMP JUMPDEST DUP2 ADD PUSH1 0x20 DUP6 LT ISZERO PUSH2 0x1BED JUMPI DUP2 SWAP1 POP JUMPDEST PUSH2 0x1C01 PUSH2 0x1BF9 DUP6 PUSH2 0x1AC1 JUMP JUMPDEST DUP4 ADD DUP3 PUSH2 0x1BA1 JUMP JUMPDEST POP POP JUMPDEST POP POP POP JUMP JUMPDEST PUSH0 DUP3 DUP3 SHR SWAP1 POP SWAP3 SWAP2 POP POP JUMP JUMPDEST PUSH0 PUSH2 0x1C24 PUSH0 NOT DUP5 PUSH1 0x8 MUL PUSH2 0x1C09 JUMP JUMPDEST NOT DUP1 DUP4 AND SWAP2 POP POP SWAP3 SWAP2 POP POP JUMP JUMPDEST PUSH0 PUSH2 0x1C3C DUP4 DUP4 PUSH2 0x1C15 JUMP JUMPDEST SWAP2 POP DUP3 PUSH1 0x2 MUL DUP3 OR SWAP1 POP SWAP3 SWAP2 POP POP JUMP JUMPDEST PUSH2 0x1C55 DUP3 PUSH2 0x1447 JUMP JUMPDEST PUSH8 0xFFFFFFFFFFFFFFFF DUP2 GT ISZERO PUSH2 0x1C6E JUMPI PUSH2 0x1C6D PUSH2 0x12C4 JUMP JUMPDEST JUMPDEST PUSH2 0x1C78 DUP3 SLOAD PUSH2 0x1A7F JUMP JUMPDEST PUSH2 0x1C83 DUP3 DUP3 DUP6 PUSH2 0x1BC3 JUMP JUMPDEST PUSH0 PUSH1 0x20 SWAP1 POP PUSH1 0x1F DUP4 GT PUSH1 0x1 DUP2 EQ PUSH2 0x1CB4 JUMPI PUSH0 DUP5 ISZERO PUSH2 0x1CA2 JUMPI DUP3 DUP8 ADD MLOAD SWAP1 POP JUMPDEST PUSH2 0x1CAC DUP6 DUP3 PUSH2 0x1C31 JUMP JUMPDEST DUP7 SSTORE POP PUSH2 0x1D13 JUMP JUMPDEST PUSH1 0x1F NOT DUP5 AND PUSH2 0x1CC2 DUP7 PUSH2 0x1AAF JUMP JUMPDEST PUSH0 JUMPDEST DUP3 DUP2 LT ISZERO PUSH2 0x1CE9 JUMPI DUP5 DUP10 ADD MLOAD DUP3 SSTORE PUSH1 0x1 DUP3 ADD SWAP2 POP PUSH1 0x20 DUP6 ADD SWAP5 POP PUSH1 0x20 DUP2 ADD SWAP1 POP PUSH2 0x1CC4 JUMP JUMPDEST DUP7 DUP4 LT ISZERO PUSH2 0x1D06 JUMPI DUP5 DUP10 ADD MLOAD PUSH2 0x1D02 PUSH1 0x1F DUP10 AND DUP3 PUSH2 0x1C15 JUMP JUMPDEST DUP4 SSTORE POP JUMPDEST PUSH1 0x1 PUSH1 0x2 DUP9 MUL ADD DUP9 SSTORE POP POP POP JUMPDEST POP POP POP POP POP POP JUMP JUMPDEST PUSH0 DUP3 SWAP1 POP SWAP3 SWAP2 POP POP JUMP JUMPDEST PUSH2 0x1D2F DUP4 DUP4 PUSH2 0x1D1B JUMP JUMPDEST PUSH8 0xFFFFFFFFFFFFFFFF DUP2 GT ISZERO PUSH2 0x1D48 JUMPI PUSH2 0x1D47 PUSH2 0x12C4 JUMP JUMPDEST JUMPDEST PUSH2 0x1D52 DUP3 SLOAD PUSH2 0x1A7F JUMP JUMPDEST PUSH2 0x1D5D DUP3 DUP3 DUP6 PUSH2 0x1BC3 JUMP JUMPDEST PUSH0 PUSH1 0x1F DUP4 GT PUSH1 0x1 DUP2 EQ PUSH2 0x1D8A JUMPI PUSH0 DUP5 ISZERO PUSH2 0x1D78 JUMPI DUP3 DUP8 ADD CALLDATALOAD SWAP1 POP JUMPDEST PUSH2 0x1D82 DUP6 DUP3 PUSH2 0x1C31 JUMP JUMPDEST DUP7 SSTORE POP PUSH2 0x1DE9 JUMP JUMPDEST PUSH1 0x1F NOT DUP5 AND PUSH2 0x1D98 DUP7 PUSH2 0x1AAF JUMP JUMPDEST PUSH0 JUMPDEST DUP3 DUP2 LT ISZERO PUSH2 0x1DBF JUMPI DUP5 DUP10 ADD CALLDATALOAD DUP3 SSTORE PUSH1 0x1 DUP3 ADD SWAP2 POP PUSH1 0x20 DUP6 ADD SWAP5 POP PUSH1 0x20 DUP2 ADD SWAP1 POP PUSH2 0x1D9A JUMP JUMPDEST DUP7 DUP4 LT ISZERO PUSH2 0x1DDC JUMPI DUP5 DUP10 ADD CALLDATALOAD PUSH2 0x1DD8 PUSH1 0x1F DUP10 AND DUP3 PUSH2 0x1C15 JUMP JUMPDEST DUP4 SSTORE POP JUMPDEST PUSH1 0x1 PUSH1 0x2 DUP9 MUL ADD DUP9 SSTORE POP POP POP JUMPDEST POP POP POP POP POP POP POP JUMP JUMPDEST PUSH0 PUSH2 0x1DFC DUP3 PUSH2 0x1447 JUMP JUMPDEST PUSH2 0x1E06 DUP2 DUP6 PUSH2 0x1A0C JUMP JUMPDEST SWAP4 POP PUSH2 0x1E16 DUP2 DUP6 PUSH1 0x20 DUP7 ADD PUSH2 0x1461 JUMP JUMPDEST DUP1 DUP5 ADD SWAP2 POP POP SWAP3 SWAP2 POP POP JUMP JUMPDEST PUSH0 PUSH2 0x1E2D DUP3 DUP5 PUSH2 0x1DF2 JUMP JUMPDEST SWAP2 POP DUP2 SWAP1 POP SWAP3 SWAP2 POP POP JUMP JUMPDEST PUSH0 PUSH2 0x1E42 DUP3 PUSH2 0x142F JUMP JUMPDEST SWAP2 POP PUSH2 0x1E4D DUP4 PUSH2 0x142F JUMP JUMPDEST SWAP3 POP DUP3 DUP3 ADD SWAP1 POP DUP1 DUP3 GT ISZERO PUSH2 0x1E65 JUMPI PUSH2 0x1E64 PUSH2 0x1998 JUMP JUMPDEST JUMPDEST SWAP3 SWAP2 POP POP JUMP JUMPDEST PUSH32 0x4E487B7100000000000000000000000000000000000000000000000000000000 PUSH0 MSTORE PUSH1 0x32 PUSH1 0x4 MSTORE PUSH1 0x24 PUSH0 REVERT JUMPDEST PUSH0 PUSH2 0x1EA2 DUP3 PUSH2 0x142F JUMP JUMPDEST SWAP2 POP PUSH2 0x1EAD DUP4 PUSH2 0x142F JUMP JUMPDEST SWAP3 POP DUP3 DUP3 MUL PUSH2 0x1EBB DUP2 PUSH2 0x142F JUMP JUMPDEST SWAP2 POP DUP3 DUP3 DIV DUP5 EQ DUP4 ISZERO OR PUSH2 0x1ED2 JUMPI PUSH2 0x1ED1 PUSH2 0x1998 JUMP JUMPDEST JUMPDEST POP SWAP3 SWAP2 POP POP JUMP JUMPDEST PUSH32 0x4E487B7100000000000000000000000000000000000000000000000000000000 PUSH0 MSTORE PUSH1 0x12 PUSH1 0x4 MSTORE PUSH1 0x24 PUSH0 REVERT JUMPDEST PUSH0 PUSH2 0x1F10 DUP3 PUSH2 0x142F JUMP JUMPDEST SWAP2 POP PUSH2 0x1F1B DUP4 PUSH2 0x142F JUMP JUMPDEST SWAP3 POP DUP3 PUSH2 0x1F2B JUMPI PUSH2 0x1F2A PUSH2 0x1ED9 JUMP JUMPDEST JUMPDEST DUP3 DUP3 DIV SWAP1 POP SWAP3 SWAP2 POP POP JUMP INVALID LOG2 PUSH5 0x6970667358 0x22 SLT KECCAK256 0xD2 0x25 SWAP15 0xAD PREVRANDAO PUSH16 0xB1585A279D3C598FC2FB7F972DC76DB1 0xC8 0x4D 0x4C 0xCF PUSH24 0xCC693E762B64736F6C634300081900330000000000000000 "
				},
				"gasEstimates": {
					"creation": {
						"codeDepositCost": "1608800",
						"executionCost": "23791",
						"totalCost": "1632591"
					},
					"external": {
						"getMyProposals()": "infinite",
						"getProposal(string)": "infinite",
						"proposals(string)": "infinite",
						"propose(string,string)": "infinite",
						"setResult(string)": "infinite",
						"signUp(string)": "infinite",
						"vote(string,bool)": "infinite"
					}
				},
				"methodIdentifiers": {
					"getMyProposals()": "36ffa905",
					"getProposal(string)": "25d3a09d",
					"proposals(string)": "ffa0d2a4",
					"propose(string,string)": "1c4afc57",
					"setResult(string)": "88e3cfda",
					"signUp(string)": "adcfb4fc",
					"vote(string,bool)": "27d3410c"
				}
			},
			"storageLayout": {
				"storage": [
					{
						"astId": 235,
						"contract": "solidity_test/test8.sol:TrAnswer",
						"label": "proposals",
						"offset": 0,
						"slot": "0",
						"type": "t_mapping(t_string_memory_ptr,t_struct(Prop)226_storage)"
					},
					{
						"astId": 238,
						"contract": "solidity_test/test8.sol:TrAnswer",
						"label": "propCount",
						"offset": 0,
						"slot": "1",
						"type": "t_uint256"
					},
					{
						"astId": 259,
						"contract": "solidity_test/test8.sol:TrAnswer",
						"label": "users",
						"offset": 0,
						"slot": "2",
						"type": "t_mapping(t_address,t_struct(User)254_storage)"
					},
					{
						"astId": 261,
						"contract": "solidity_test/test8.sol:TrAnswer",
						"label": "userCount",
						"offset": 0,
						"slot": "3",
						"type": "t_uint256"
					}
				],
				"types": {
					"t_address": {
						"encoding": "inplace",
						"label": "address",
						"numberOfBytes": "20"
					},
					"t_array(t_string_storage)dyn_storage": {
						"base": "t_string_storage",
						"encoding": "dynamic_array",
						"label": "string[]",
						"numberOfBytes": "32"
					},
					"t_bool": {
						"encoding": "inplace",
						"label": "bool",
						"numberOfBytes": "1"
					},
					"t_enum(status)230": {
						"encoding": "inplace",
						"label": "enum TrAnswer.status",
						"numberOfBytes": "1"
					},
					"t_mapping(t_address,t_struct(User)254_storage)": {
						"encoding": "mapping",
						"key": "t_address",
						"label": "mapping(address => struct TrAnswer.User)",
						"numberOfBytes": "32",
						"value": "t_struct(User)254_storage"
					},
					"t_mapping(t_string_memory_ptr,t_bool)": {
						"encoding": "mapping",
						"key": "t_string_memory_ptr",
						"label": "mapping(string => bool)",
						"numberOfBytes": "32",
						"value": "t_bool"
					},
					"t_mapping(t_string_memory_ptr,t_struct(Prop)226_storage)": {
						"encoding": "mapping",
						"key": "t_string_memory_ptr",
						"label": "mapping(string => struct TrAnswer.Prop)",
						"numberOfBytes": "32",
						"value": "t_struct(Prop)226_storage"
					},
					"t_string_memory_ptr": {
						"encoding": "bytes",
						"label": "string",
						"numberOfBytes": "32"
					},
					"t_string_storage": {
						"encoding": "bytes",
						"label": "string",
						"numberOfBytes": "32"
					},
					"t_struct(Prop)226_storage": {
						"encoding": "inplace",
						"label": "struct TrAnswer.Prop",
						"members": [
							{
								"astId": 210,
								"contract": "solidity_test/test8.sol:TrAnswer",
								"label": "number",
								"offset": 0,
								"slot": "0",
								"type": "t_uint256"
							},
							{
								"astId": 212,
								"contract": "solidity_test/test8.sol:TrAnswer",
								"label": "title",
								"offset": 0,
								"slot": "1",
								"type": "t_string_storage"
							},
							{
								"astId": 214,
								"contract": "solidity_test/test8.sol:TrAnswer",
								"label": "content",
								"offset": 0,
								"slot": "2",
								"type": "t_string_storage"
							},
							{
								"astId": 216,
								"contract": "solidity_test/test8.sol:TrAnswer",
								"label": "proposer",
								"offset": 0,
								"slot": "3",
								"type": "t_address"
							},
							{
								"astId": 218,
								"contract": "solidity_test/test8.sol:TrAnswer",
								"label": "pros",
								"offset": 0,
								"slot": "4",
								"type": "t_uint256"
							},
							{
								"astId": 220,
								"contract": "solidity_test/test8.sol:TrAnswer",
								"label": "cons",
								"offset": 0,
								"slot": "5",
								"type": "t_uint256"
							},
							{
								"astId": 223,
								"contract": "solidity_test/test8.sol:TrAnswer",
								"label": "result",
								"offset": 0,
								"slot": "6",
								"type": "t_enum(status)230"
							},
							{
								"astId": 225,
								"contract": "solidity_test/test8.sol:TrAnswer",
								"label": "blockNumber",
								"offset": 0,
								"slot": "7",
								"type": "t_uint256"
							}
						],
						"numberOfBytes": "256"
					},
					"t_struct(User)254_storage": {
						"encoding": "inplace",
						"label": "struct TrAnswer.User",
						"members": [
							{
								"astId": 240,
								"contract": "solidity_test/test8.sol:TrAnswer",
								"label": "name",
								"offset": 0,
								"slot": "0",
								"type": "t_string_storage"
							},
							{
								"astId": 242,
								"contract": "solidity_test/test8.sol:TrAnswer",
								"label": "addr",
								"offset": 0,
								"slot": "1",
								"type": "t_address"
							},
							{
								"astId": 245,
								"contract": "solidity_test/test8.sol:TrAnswer",
								"label": "proposalsA",
								"offset": 0,
								"slot": "2",
								"type": "t_array(t_string_storage)dyn_storage"
							},
							{
								"astId": 249,
								"contract": "solidity_test/test8.sol:TrAnswer",
								"label": "votes",
								"offset": 0,
								"slot": "3",
								"type": "t_mapping(t_string_memory_ptr,t_bool)"
							},
							{
								"astId": 253,
								"contract": "solidity_test/test8.sol:TrAnswer",
								"label": "voted",
								"offset": 0,
								"slot": "4",
								"type": "t_mapping(t_string_memory_ptr,t_bool)"
							}
						],
						"numberOfBytes": "160"
					},
					"t_uint256": {
						"encoding": "inplace",
						"label": "uint256",
						"numberOfBytes": "32"
					}
				}
			},
			"userdoc": {
				"kind": "user",
				"methods": {},
				"version": 1
			}
		}
	}
}