{
	"solidity_test/test_10.sol": {
		"a": {
			"abi": [
				{
					"inputs": [
						{
							"internalType": "string",
							"name": "_id",
							"type": "string"
						},
						{
							"internalType": "string",
							"name": "_phoneNum",
							"type": "string"
						}
					],
					"name": "PW",
					"outputs": [
						{
							"internalType": "bytes32",
							"name": "",
							"type": "bytes32"
						}
					],
					"stateMutability": "pure",
					"type": "function"
				},
				{
					"inputs": [
						{
							"internalType": "string",
							"name": "_bankName",
							"type": "string"
						},
						{
							"internalType": "string",
							"name": "_id",
							"type": "string"
						},
						{
							"internalType": "string",
							"name": "_phoneNum",
							"type": "string"
						}
					],
					"name": "deposiBank",
					"outputs": [],
					"stateMutability": "payable",
					"type": "function"
				},
				{
					"inputs": [
						{
							"internalType": "string",
							"name": "_bankName",
							"type": "string"
						},
						{
							"internalType": "string",
							"name": "_id",
							"type": "string"
						},
						{
							"internalType": "string",
							"name": "_phoneNum",
							"type": "string"
						}
					],
					"name": "getUserCheck",
					"outputs": [
						{
							"internalType": "uint256",
							"name": "",
							"type": "uint256"
						}
					],
					"stateMutability": "view",
					"type": "function"
				},
				{
					"inputs": [
						{
							"internalType": "string",
							"name": "_bankNameA",
							"type": "string"
						},
						{
							"internalType": "string",
							"name": "_bankNameB",
							"type": "string"
						},
						{
							"internalType": "uint256",
							"name": "_n",
							"type": "uint256"
						},
						{
							"internalType": "string",
							"name": "_id",
							"type": "string"
						},
						{
							"internalType": "string",
							"name": "_phoneNum",
							"type": "string"
						}
					],
					"name": "sendMoneyBtoB",
					"outputs": [],
					"stateMutability": "nonpayable",
					"type": "function"
				},
				{
					"inputs": [
						{
							"internalType": "string",
							"name": "_bankNameA",
							"type": "string"
						},
						{
							"internalType": "string",
							"name": "_bankNameB",
							"type": "string"
						},
						{
							"internalType": "uint256",
							"name": "_n",
							"type": "uint256"
						},
						{
							"internalType": "string",
							"name": "_id",
							"type": "string"
						},
						{
							"internalType": "string",
							"name": "_phoneNum",
							"type": "string"
						},
						{
							"internalType": "address",
							"name": "_receiver",
							"type": "address"
						}
					],
					"name": "sendMoneyUtoU",
					"outputs": [],
					"stateMutability": "nonpayable",
					"type": "function"
				},
				{
					"inputs": [
						{
							"internalType": "string",
							"name": "_bankName",
							"type": "string"
						},
						{
							"internalType": "string",
							"name": "_id",
							"type": "string"
						},
						{
							"internalType": "string",
							"name": "_phoneNum",
							"type": "string"
						}
					],
					"name": "setUser",
					"outputs": [],
					"stateMutability": "nonpayable",
					"type": "function"
				},
				{
					"inputs": [
						{
							"internalType": "string",
							"name": "_bankName",
							"type": "string"
						},
						{
							"internalType": "uint256",
							"name": "_n",
							"type": "uint256"
						},
						{
							"internalType": "string",
							"name": "_id",
							"type": "string"
						},
						{
							"internalType": "string",
							"name": "_phoneNum",
							"type": "string"
						}
					],
					"name": "withdrawBank",
					"outputs": [],
					"stateMutability": "payable",
					"type": "function"
				}
			],
			"devdoc": {
				"kind": "dev",
				"methods": {},
				"version": 1
			},
			"evm": {
				"assembly": "    /* \"solidity_test/test_10.sol\":75:5514  contract a {... */\n  mstore(0x40, 0x80)\n  callvalue\n  dup1\n  iszero\n  tag_1\n  jumpi\n  0x00\n  dup1\n  revert\ntag_1:\n  pop\n  dataSize(sub_0)\n  dup1\n  dataOffset(sub_0)\n  0x00\n  codecopy\n  0x00\n  return\nstop\n\nsub_0: assembly {\n        /* \"solidity_test/test_10.sol\":75:5514  contract a {... */\n      mstore(0x40, 0x80)\n      jumpi(tag_1, lt(calldatasize, 0x04))\n      shr(0xe0, calldataload(0x00))\n      dup1\n      0x67edb25c\n      gt\n      tag_9\n      jumpi\n      dup1\n      0x67edb25c\n      eq\n      tag_5\n      jumpi\n      dup1\n      0x6b17b274\n      eq\n      tag_6\n      jumpi\n      dup1\n      0xc88df3d2\n      eq\n      tag_7\n      jumpi\n      dup1\n      0xf09a1dca\n      eq\n      tag_8\n      jumpi\n      jump(tag_1)\n    tag_9:\n      dup1\n      0x140a6e54\n      eq\n      tag_2\n      jumpi\n      dup1\n      0x416c2b19\n      eq\n      tag_3\n      jumpi\n      dup1\n      0x65dffaa3\n      eq\n      tag_4\n      jumpi\n    tag_1:\n      0x00\n      dup1\n      revert\n        /* \"solidity_test/test_10.sol\":3653:4000  function withdrawBank(string memory _bankName, uint _n, string memory _id, string memory _phoneNum) public payable {... */\n    tag_2:\n      tag_10\n      0x04\n      dup1\n      calldatasize\n      sub\n      dup2\n      add\n      swap1\n      tag_11\n      swap2\n      swap1\n      tag_12\n      jump\t// in\n    tag_11:\n      tag_13\n      jump\t// in\n    tag_10:\n      stop\n        /* \"solidity_test/test_10.sol\":3285:3554  function deposiBank(string memory _bankName, string memory _id, string memory _phoneNum) public payable {... */\n    tag_3:\n      tag_14\n      0x04\n      dup1\n      calldatasize\n      sub\n      dup2\n      add\n      swap1\n      tag_15\n      swap2\n      swap1\n      tag_16\n      jump\t// in\n    tag_15:\n      tag_17\n      jump\t// in\n    tag_14:\n      stop\n        /* \"solidity_test/test_10.sol\":2470:2625  function PW (string memory _id, string memory _phoneNum) public pure returns(bytes32) {... */\n    tag_4:\n      callvalue\n      dup1\n      iszero\n      tag_18\n      jumpi\n      0x00\n      dup1\n      revert\n    tag_18:\n      pop\n      tag_19\n      0x04\n      dup1\n      calldatasize\n      sub\n      dup2\n      add\n      swap1\n      tag_20\n      swap2\n      swap1\n      tag_21\n      jump\t// in\n    tag_20:\n      tag_22\n      jump\t// in\n    tag_19:\n      mload(0x40)\n      tag_23\n      swap2\n      swap1\n      tag_24\n      jump\t// in\n    tag_23:\n      mload(0x40)\n      dup1\n      swap2\n      sub\n      swap1\n      return\n        /* \"solidity_test/test_10.sol\":2633:2816  function getUserCheck(string memory _bankName, string memory _id, string memory _phoneNum) public view returns(uint) {... */\n    tag_5:\n      callvalue\n      dup1\n      iszero\n      tag_25\n      jumpi\n      0x00\n      dup1\n      revert\n    tag_25:\n      pop\n      tag_26\n      0x04\n      dup1\n      calldatasize\n      sub\n      dup2\n      add\n      swap1\n      tag_27\n      swap2\n      swap1\n      tag_16\n      jump\t// in\n    tag_27:\n      tag_28\n      jump\t// in\n    tag_26:\n      mload(0x40)\n      tag_29\n      swap2\n      swap1\n      tag_30\n      jump\t// in\n    tag_29:\n      mload(0x40)\n      dup1\n      swap2\n      sub\n      swap1\n      return\n        /* \"solidity_test/test_10.sol\":2906:3186  function setUser(string memory _bankName, string memory _id, string memory _phoneNum) public {... */\n    tag_6:\n      callvalue\n      dup1\n      iszero\n      tag_31\n      jumpi\n      0x00\n      dup1\n      revert\n    tag_31:\n      pop\n      tag_32\n      0x04\n      dup1\n      calldatasize\n      sub\n      dup2\n      add\n      swap1\n      tag_33\n      swap2\n      swap1\n      tag_16\n      jump\t// in\n    tag_33:\n      tag_34\n      jump\t// in\n    tag_32:\n      stop\n        /* \"solidity_test/test_10.sol\":4699:5260  function sendMoneyUtoU(string memory _bankNameA, string memory _bankNameB, uint _n, string memory _id, string memory _phoneNum, address _receiver) public {... */\n    tag_7:\n      callvalue\n      dup1\n      iszero\n      tag_35\n      jumpi\n      0x00\n      dup1\n      revert\n    tag_35:\n      pop\n      tag_36\n      0x04\n      dup1\n      calldatasize\n      sub\n      dup2\n      add\n      swap1\n      tag_37\n      swap2\n      swap1\n      tag_38\n      jump\t// in\n    tag_37:\n      tag_39\n      jump\t// in\n    tag_36:\n      stop\n        /* \"solidity_test/test_10.sol\":4133:4584  function sendMoneyBtoB(string memory _bankNameA, string memory _bankNameB, uint _n, string memory _id, string memory _phoneNum) public {... */\n    tag_8:\n      callvalue\n      dup1\n      iszero\n      tag_40\n      jumpi\n      0x00\n      dup1\n      revert\n    tag_40:\n      pop\n      tag_41\n      0x04\n      dup1\n      calldatasize\n      sub\n      dup2\n      add\n      swap1\n      tag_42\n      swap2\n      swap1\n      tag_43\n      jump\t// in\n    tag_42:\n      tag_44\n      jump\t// in\n    tag_41:\n      stop\n        /* \"solidity_test/test_10.sol\":3653:4000  function withdrawBank(string memory _bankName, uint _n, string memory _id, string memory _phoneNum) public payable {... */\n    tag_13:\n        /* \"solidity_test/test_10.sol\":3824:3826  _n */\n      dup3\n        /* \"solidity_test/test_10.sol\":3787:3798  userBalance */\n      0x00\n        /* \"solidity_test/test_10.sol\":3787:3810  userBalance[msg.sender] */\n      dup1\n        /* \"solidity_test/test_10.sol\":3799:3809  msg.sender */\n      caller\n        /* \"solidity_test/test_10.sol\":3787:3810  userBalance[msg.sender] */\n      0xffffffffffffffffffffffffffffffffffffffff\n      and\n      0xffffffffffffffffffffffffffffffffffffffff\n      and\n      dup2\n      mstore\n      0x20\n      add\n      swap1\n      dup2\n      mstore\n      0x20\n      add\n      0x00\n      keccak256\n        /* \"solidity_test/test_10.sol\":3811:3820  _bankName */\n      dup6\n        /* \"solidity_test/test_10.sol\":3787:3821  userBalance[msg.sender][_bankName] */\n      mload(0x40)\n      tag_46\n      swap2\n      swap1\n      tag_47\n      jump\t// in\n    tag_46:\n      swap1\n      dup2\n      mstore\n      0x20\n      add\n      mload(0x40)\n      dup1\n      swap2\n      sub\n      swap1\n      keccak256\n      sload\n        /* \"solidity_test/test_10.sol\":3787:3826  userBalance[msg.sender][_bankName] > _n */\n      gt\n        /* \"solidity_test/test_10.sol\":3779:3849  require(userBalance[msg.sender][_bankName] > _n, \"not enough balance\") */\n      tag_48\n      jumpi\n      mload(0x40)\n      0x08c379a000000000000000000000000000000000000000000000000000000000\n      dup2\n      mstore\n      0x04\n      add\n      tag_49\n      swap1\n      tag_50\n      jump\t// in\n    tag_49:\n      mload(0x40)\n      dup1\n      swap2\n      sub\n      swap1\n      revert\n    tag_48:\n        /* \"solidity_test/test_10.sol\":3912:3913  1 */\n      0x01\n        /* \"solidity_test/test_10.sol\":3868:3877  userCheck */\n      dup1\n        /* \"solidity_test/test_10.sol\":3878:3887  _bankName */\n      dup6\n        /* \"solidity_test/test_10.sol\":3868:3888  userCheck[_bankName] */\n      mload(0x40)\n      tag_51\n      swap2\n      swap1\n      tag_47\n      jump\t// in\n    tag_51:\n      swap1\n      dup2\n      mstore\n      0x20\n      add\n      mload(0x40)\n      dup1\n      swap2\n      sub\n      swap1\n      keccak256\n        /* \"solidity_test/test_10.sol\":3868:3908  userCheck[_bankName][PW(_id, _phoneNum)] */\n      0x00\n        /* \"solidity_test/test_10.sol\":3889:3907  PW(_id, _phoneNum) */\n      tag_52\n        /* \"solidity_test/test_10.sol\":3892:3895  _id */\n      dup6\n        /* \"solidity_test/test_10.sol\":3897:3906  _phoneNum */\n      dup6\n        /* \"solidity_test/test_10.sol\":3889:3891  PW */\n      tag_22\n        /* \"solidity_test/test_10.sol\":3889:3907  PW(_id, _phoneNum) */\n      jump\t// in\n    tag_52:\n        /* \"solidity_test/test_10.sol\":3868:3908  userCheck[_bankName][PW(_id, _phoneNum)] */\n      dup2\n      mstore\n      0x20\n      add\n      swap1\n      dup2\n      mstore\n      0x20\n      add\n      0x00\n      keccak256\n      sload\n        /* \"solidity_test/test_10.sol\":3868:3913  userCheck[_bankName][PW(_id, _phoneNum)] == 1 */\n      eq\n        /* \"solidity_test/test_10.sol\":3860:3949  require(userCheck[_bankName][PW(_id, _phoneNum)] == 1, \"need signUp for this bank first\") */\n      tag_53\n      jumpi\n      mload(0x40)\n      0x08c379a000000000000000000000000000000000000000000000000000000000\n      dup2\n      mstore\n      0x04\n      add\n      tag_54\n      swap1\n      tag_55\n      jump\t// in\n    tag_54:\n      mload(0x40)\n      dup1\n      swap2\n      sub\n      swap1\n      revert\n    tag_53:\n        /* \"solidity_test/test_10.sol\":3968:3978  msg.sender */\n      caller\n        /* \"solidity_test/test_10.sol\":3960:3988  payable(msg.sender).transfer */\n      0xffffffffffffffffffffffffffffffffffffffff\n      and\n        /* \"solidity_test/test_10.sol\":3960:3992  payable(msg.sender).transfer(_n) */\n      0x08fc\n        /* \"solidity_test/test_10.sol\":3989:3991  _n */\n      dup5\n        /* \"solidity_test/test_10.sol\":3960:3992  payable(msg.sender).transfer(_n) */\n      swap1\n      dup2\n      iszero\n      mul\n      swap1\n      mload(0x40)\n      0x00\n      mload(0x40)\n      dup1\n      dup4\n      sub\n      dup2\n      dup6\n      dup9\n      dup9\n      call\n      swap4\n      pop\n      pop\n      pop\n      pop\n      iszero\n      dup1\n      iszero\n      tag_57\n      jumpi\n      returndatasize\n      0x00\n      dup1\n      returndatacopy\n      revert(0x00, returndatasize)\n    tag_57:\n      pop\n        /* \"solidity_test/test_10.sol\":3653:4000  function withdrawBank(string memory _bankName, uint _n, string memory _id, string memory _phoneNum) public payable {... */\n      pop\n      pop\n      pop\n      pop\n      jump\t// out\n        /* \"solidity_test/test_10.sol\":3285:3554  function deposiBank(string memory _bankName, string memory _id, string memory _phoneNum) public payable {... */\n    tag_17:\n        /* \"solidity_test/test_10.sol\":3452:3453  1 */\n      0x01\n        /* \"solidity_test/test_10.sol\":3408:3417  userCheck */\n      dup1\n        /* \"solidity_test/test_10.sol\":3418:3427  _bankName */\n      dup5\n        /* \"solidity_test/test_10.sol\":3408:3428  userCheck[_bankName] */\n      mload(0x40)\n      tag_59\n      swap2\n      swap1\n      tag_47\n      jump\t// in\n    tag_59:\n      swap1\n      dup2\n      mstore\n      0x20\n      add\n      mload(0x40)\n      dup1\n      swap2\n      sub\n      swap1\n      keccak256\n        /* \"solidity_test/test_10.sol\":3408:3448  userCheck[_bankName][PW(_id, _phoneNum)] */\n      0x00\n        /* \"solidity_test/test_10.sol\":3429:3447  PW(_id, _phoneNum) */\n      tag_60\n        /* \"solidity_test/test_10.sol\":3432:3435  _id */\n      dup6\n        /* \"solidity_test/test_10.sol\":3437:3446  _phoneNum */\n      dup6\n        /* \"solidity_test/test_10.sol\":3429:3431  PW */\n      tag_22\n        /* \"solidity_test/test_10.sol\":3429:3447  PW(_id, _phoneNum) */\n      jump\t// in\n    tag_60:\n        /* \"solidity_test/test_10.sol\":3408:3448  userCheck[_bankName][PW(_id, _phoneNum)] */\n      dup2\n      mstore\n      0x20\n      add\n      swap1\n      dup2\n      mstore\n      0x20\n      add\n      0x00\n      keccak256\n      sload\n        /* \"solidity_test/test_10.sol\":3408:3453  userCheck[_bankName][PW(_id, _phoneNum)] == 1 */\n      eq\n        /* \"solidity_test/test_10.sol\":3400:3489  require(userCheck[_bankName][PW(_id, _phoneNum)] == 1, \"need signUp for this bank first\") */\n      tag_61\n      jumpi\n      mload(0x40)\n      0x08c379a000000000000000000000000000000000000000000000000000000000\n      dup2\n      mstore\n      0x04\n      add\n      tag_62\n      swap1\n      tag_55\n      jump\t// in\n    tag_62:\n      mload(0x40)\n      dup1\n      swap2\n      sub\n      swap1\n      revert\n    tag_61:\n        /* \"solidity_test/test_10.sol\":3537:3546  msg.value */\n      callvalue\n        /* \"solidity_test/test_10.sol\":3500:3511  userBalance */\n      0x00\n        /* \"solidity_test/test_10.sol\":3500:3523  userBalance[msg.sender] */\n      dup1\n        /* \"solidity_test/test_10.sol\":3512:3522  msg.sender */\n      caller\n        /* \"solidity_test/test_10.sol\":3500:3523  userBalance[msg.sender] */\n      0xffffffffffffffffffffffffffffffffffffffff\n      and\n      0xffffffffffffffffffffffffffffffffffffffff\n      and\n      dup2\n      mstore\n      0x20\n      add\n      swap1\n      dup2\n      mstore\n      0x20\n      add\n      0x00\n      keccak256\n        /* \"solidity_test/test_10.sol\":3524:3533  _bankName */\n      dup5\n        /* \"solidity_test/test_10.sol\":3500:3534  userBalance[msg.sender][_bankName] */\n      mload(0x40)\n      tag_63\n      swap2\n      swap1\n      tag_47\n      jump\t// in\n    tag_63:\n      swap1\n      dup2\n      mstore\n      0x20\n      add\n      mload(0x40)\n      dup1\n      swap2\n      sub\n      swap1\n      keccak256\n        /* \"solidity_test/test_10.sol\":3500:3546  userBalance[msg.sender][_bankName] = msg.value */\n      dup2\n      swap1\n      sstore\n      pop\n        /* \"solidity_test/test_10.sol\":3285:3554  function deposiBank(string memory _bankName, string memory _id, string memory _phoneNum) public payable {... */\n      pop\n      pop\n      pop\n      jump\t// out\n        /* \"solidity_test/test_10.sol\":2470:2625  function PW (string memory _id, string memory _phoneNum) public pure returns(bytes32) {... */\n    tag_22:\n        /* \"solidity_test/test_10.sol\":2547:2554  bytes32 */\n      0x00\n        /* \"solidity_test/test_10.sol\":2601:2604  _id */\n      dup3\n        /* \"solidity_test/test_10.sol\":2606:2615  _phoneNum */\n      dup3\n        /* \"solidity_test/test_10.sol\":2584:2616  abi.encodePacked(_id, _phoneNum) */\n      add(0x20, mload(0x40))\n      tag_65\n      swap3\n      swap2\n      swap1\n      tag_66\n      jump\t// in\n    tag_65:\n      mload(0x40)\n      0x20\n      dup2\n      dup4\n      sub\n      sub\n      dup2\n      mstore\n      swap1\n      0x40\n      mstore\n        /* \"solidity_test/test_10.sol\":2574:2617  keccak256(abi.encodePacked(_id, _phoneNum)) */\n      dup1\n      mload\n      swap1\n      0x20\n      add\n      keccak256\n        /* \"solidity_test/test_10.sol\":2567:2617  return keccak256(abi.encodePacked(_id, _phoneNum)) */\n      swap1\n      pop\n        /* \"solidity_test/test_10.sol\":2470:2625  function PW (string memory _id, string memory _phoneNum) public pure returns(bytes32) {... */\n      swap3\n      swap2\n      pop\n      pop\n      jump\t// out\n        /* \"solidity_test/test_10.sol\":2633:2816  function getUserCheck(string memory _bankName, string memory _id, string memory _phoneNum) public view returns(uint) {... */\n    tag_28:\n        /* \"solidity_test/test_10.sol\":2744:2748  uint */\n      0x00\n        /* \"solidity_test/test_10.sol\":2768:2777  userCheck */\n      0x01\n        /* \"solidity_test/test_10.sol\":2778:2787  _bankName */\n      dup5\n        /* \"solidity_test/test_10.sol\":2768:2788  userCheck[_bankName] */\n      mload(0x40)\n      tag_68\n      swap2\n      swap1\n      tag_47\n      jump\t// in\n    tag_68:\n      swap1\n      dup2\n      mstore\n      0x20\n      add\n      mload(0x40)\n      dup1\n      swap2\n      sub\n      swap1\n      keccak256\n        /* \"solidity_test/test_10.sol\":2768:2808  userCheck[_bankName][PW(_id, _phoneNum)] */\n      0x00\n        /* \"solidity_test/test_10.sol\":2789:2807  PW(_id, _phoneNum) */\n      tag_69\n        /* \"solidity_test/test_10.sol\":2792:2795  _id */\n      dup6\n        /* \"solidity_test/test_10.sol\":2797:2806  _phoneNum */\n      dup6\n        /* \"solidity_test/test_10.sol\":2789:2791  PW */\n      tag_22\n        /* \"solidity_test/test_10.sol\":2789:2807  PW(_id, _phoneNum) */\n      jump\t// in\n    tag_69:\n        /* \"solidity_test/test_10.sol\":2768:2808  userCheck[_bankName][PW(_id, _phoneNum)] */\n      dup2\n      mstore\n      0x20\n      add\n      swap1\n      dup2\n      mstore\n      0x20\n      add\n      0x00\n      keccak256\n      sload\n        /* \"solidity_test/test_10.sol\":2761:2808  return userCheck[_bankName][PW(_id, _phoneNum)] */\n      swap1\n      pop\n        /* \"solidity_test/test_10.sol\":2633:2816  function getUserCheck(string memory _bankName, string memory _id, string memory _phoneNum) public view returns(uint) {... */\n      swap4\n      swap3\n      pop\n      pop\n      pop\n      jump\t// out\n        /* \"solidity_test/test_10.sol\":2906:3186  function setUser(string memory _bankName, string memory _id, string memory _phoneNum) public {... */\n    tag_34:\n        /* \"solidity_test/test_10.sol\":3047:3048  1 */\n      0x01\n        /* \"solidity_test/test_10.sol\":3010:3021  userBalance */\n      0x00\n        /* \"solidity_test/test_10.sol\":3010:3033  userBalance[msg.sender] */\n      dup1\n        /* \"solidity_test/test_10.sol\":3022:3032  msg.sender */\n      caller\n        /* \"solidity_test/test_10.sol\":3010:3033  userBalance[msg.sender] */\n      0xffffffffffffffffffffffffffffffffffffffff\n      and\n      0xffffffffffffffffffffffffffffffffffffffff\n      and\n      dup2\n      mstore\n      0x20\n      add\n      swap1\n      dup2\n      mstore\n      0x20\n      add\n      0x00\n      keccak256\n        /* \"solidity_test/test_10.sol\":3034:3043  _bankName */\n      dup5\n        /* \"solidity_test/test_10.sol\":3010:3044  userBalance[msg.sender][_bankName] */\n      mload(0x40)\n      tag_71\n      swap2\n      swap1\n      tag_47\n      jump\t// in\n    tag_71:\n      swap1\n      dup2\n      mstore\n      0x20\n      add\n      mload(0x40)\n      dup1\n      swap2\n      sub\n      swap1\n      keccak256\n        /* \"solidity_test/test_10.sol\":3010:3048  userBalance[msg.sender][_bankName] = 1 */\n      dup2\n      swap1\n      sstore\n      pop\n        /* \"solidity_test/test_10.sol\":3177:3178  1 */\n      0x01\n        /* \"solidity_test/test_10.sol\":3135:3144  userCheck */\n      dup1\n        /* \"solidity_test/test_10.sol\":3145:3154  _bankName */\n      dup5\n        /* \"solidity_test/test_10.sol\":3135:3155  userCheck[_bankName] */\n      mload(0x40)\n      tag_72\n      swap2\n      swap1\n      tag_47\n      jump\t// in\n    tag_72:\n      swap1\n      dup2\n      mstore\n      0x20\n      add\n      mload(0x40)\n      dup1\n      swap2\n      sub\n      swap1\n      keccak256\n        /* \"solidity_test/test_10.sol\":3135:3174  userCheck[_bankName][PW(_id,_phoneNum)] */\n      0x00\n        /* \"solidity_test/test_10.sol\":3156:3173  PW(_id,_phoneNum) */\n      tag_73\n        /* \"solidity_test/test_10.sol\":3159:3162  _id */\n      dup6\n        /* \"solidity_test/test_10.sol\":3163:3172  _phoneNum */\n      dup6\n        /* \"solidity_test/test_10.sol\":3156:3158  PW */\n      tag_22\n        /* \"solidity_test/test_10.sol\":3156:3173  PW(_id,_phoneNum) */\n      jump\t// in\n    tag_73:\n        /* \"solidity_test/test_10.sol\":3135:3174  userCheck[_bankName][PW(_id,_phoneNum)] */\n      dup2\n      mstore\n      0x20\n      add\n      swap1\n      dup2\n      mstore\n      0x20\n      add\n      0x00\n      keccak256\n        /* \"solidity_test/test_10.sol\":3135:3178  userCheck[_bankName][PW(_id,_phoneNum)] = 1 */\n      dup2\n      swap1\n      sstore\n      pop\n        /* \"solidity_test/test_10.sol\":2906:3186  function setUser(string memory _bankName, string memory _id, string memory _phoneNum) public {... */\n      pop\n      pop\n      pop\n      jump\t// out\n        /* \"solidity_test/test_10.sol\":4699:5260  function sendMoneyUtoU(string memory _bankNameA, string memory _bankNameB, uint _n, string memory _id, string memory _phoneNum, address _receiver) public {... */\n    tag_39:\n        /* \"solidity_test/test_10.sol\":4910:4912  _n */\n      dup4\n        /* \"solidity_test/test_10.sol\":4872:4883  userBalance */\n      0x00\n        /* \"solidity_test/test_10.sol\":4872:4895  userBalance[msg.sender] */\n      dup1\n        /* \"solidity_test/test_10.sol\":4884:4894  msg.sender */\n      caller\n        /* \"solidity_test/test_10.sol\":4872:4895  userBalance[msg.sender] */\n      0xffffffffffffffffffffffffffffffffffffffff\n      and\n      0xffffffffffffffffffffffffffffffffffffffff\n      and\n      dup2\n      mstore\n      0x20\n      add\n      swap1\n      dup2\n      mstore\n      0x20\n      add\n      0x00\n      keccak256\n        /* \"solidity_test/test_10.sol\":4896:4906  _bankNameA */\n      dup8\n        /* \"solidity_test/test_10.sol\":4872:4907  userBalance[msg.sender][_bankNameA] */\n      mload(0x40)\n      tag_75\n      swap2\n      swap1\n      tag_47\n      jump\t// in\n    tag_75:\n      swap1\n      dup2\n      mstore\n      0x20\n      add\n      mload(0x40)\n      dup1\n      swap2\n      sub\n      swap1\n      keccak256\n      sload\n        /* \"solidity_test/test_10.sol\":4872:4912  userBalance[msg.sender][_bankNameA] > _n */\n      gt\n        /* \"solidity_test/test_10.sol\":4864:4954  require(userBalance[msg.sender][_bankNameA] > _n, \"you don't have enough moeny in bank A\") */\n      tag_76\n      jumpi\n      mload(0x40)\n      0x08c379a000000000000000000000000000000000000000000000000000000000\n      dup2\n      mstore\n      0x04\n      add\n      tag_77\n      swap1\n      tag_78\n      jump\t// in\n    tag_77:\n      mload(0x40)\n      dup1\n      swap2\n      sub\n      swap1\n      revert\n    tag_76:\n        /* \"solidity_test/test_10.sol\":5018:5019  1 */\n      0x01\n        /* \"solidity_test/test_10.sol\":4973:4982  userCheck */\n      dup1\n        /* \"solidity_test/test_10.sol\":4983:4993  _bankNameA */\n      dup8\n        /* \"solidity_test/test_10.sol\":4973:4994  userCheck[_bankNameA] */\n      mload(0x40)\n      tag_79\n      swap2\n      swap1\n      tag_47\n      jump\t// in\n    tag_79:\n      swap1\n      dup2\n      mstore\n      0x20\n      add\n      mload(0x40)\n      dup1\n      swap2\n      sub\n      swap1\n      keccak256\n        /* \"solidity_test/test_10.sol\":4973:5014  userCheck[_bankNameA][PW(_id, _phoneNum)] */\n      0x00\n        /* \"solidity_test/test_10.sol\":4995:5013  PW(_id, _phoneNum) */\n      tag_80\n        /* \"solidity_test/test_10.sol\":4998:5001  _id */\n      dup7\n        /* \"solidity_test/test_10.sol\":5003:5012  _phoneNum */\n      dup7\n        /* \"solidity_test/test_10.sol\":4995:4997  PW */\n      tag_22\n        /* \"solidity_test/test_10.sol\":4995:5013  PW(_id, _phoneNum) */\n      jump\t// in\n    tag_80:\n        /* \"solidity_test/test_10.sol\":4973:5014  userCheck[_bankNameA][PW(_id, _phoneNum)] */\n      dup2\n      mstore\n      0x20\n      add\n      swap1\n      dup2\n      mstore\n      0x20\n      add\n      0x00\n      keccak256\n      sload\n        /* \"solidity_test/test_10.sol\":4973:5019  userCheck[_bankNameA][PW(_id, _phoneNum)] == 1 */\n      eq\n        /* \"solidity_test/test_10.sol\":4965:5055  require(userCheck[_bankNameA][PW(_id, _phoneNum)] == 1, \"need signUp for this bank first\") */\n      tag_81\n      jumpi\n      mload(0x40)\n      0x08c379a000000000000000000000000000000000000000000000000000000000\n      dup2\n      mstore\n      0x04\n      add\n      tag_82\n      swap1\n      tag_55\n      jump\t// in\n    tag_82:\n      mload(0x40)\n      dup1\n      swap2\n      sub\n      swap1\n      revert\n    tag_81:\n        /* \"solidity_test/test_10.sol\":5112:5113  0 */\n      0x00\n        /* \"solidity_test/test_10.sol\":5074:5085  userBalance */\n      dup1\n        /* \"solidity_test/test_10.sol\":5074:5096  userBalance[_receiver] */\n      0x00\n        /* \"solidity_test/test_10.sol\":5086:5095  _receiver */\n      dup4\n        /* \"solidity_test/test_10.sol\":5074:5096  userBalance[_receiver] */\n      0xffffffffffffffffffffffffffffffffffffffff\n      and\n      0xffffffffffffffffffffffffffffffffffffffff\n      and\n      dup2\n      mstore\n      0x20\n      add\n      swap1\n      dup2\n      mstore\n      0x20\n      add\n      0x00\n      keccak256\n        /* \"solidity_test/test_10.sol\":5097:5107  _bankNameB */\n      dup7\n        /* \"solidity_test/test_10.sol\":5074:5108  userBalance[_receiver][_bankNameB] */\n      mload(0x40)\n      tag_83\n      swap2\n      swap1\n      tag_47\n      jump\t// in\n    tag_83:\n      swap1\n      dup2\n      mstore\n      0x20\n      add\n      mload(0x40)\n      dup1\n      swap2\n      sub\n      swap1\n      keccak256\n      sload\n        /* \"solidity_test/test_10.sol\":5074:5113  userBalance[_receiver][_bankNameB] != 0 */\n      sub\n        /* \"solidity_test/test_10.sol\":5066:5149  require(userBalance[_receiver][_bankNameB] != 0, \"this user don't exist in bank B\") */\n      tag_84\n      jumpi\n      mload(0x40)\n      0x08c379a000000000000000000000000000000000000000000000000000000000\n      dup2\n      mstore\n      0x04\n      add\n      tag_85\n      swap1\n      tag_86\n      jump\t// in\n    tag_85:\n      mload(0x40)\n      dup1\n      swap2\n      sub\n      swap1\n      revert\n    tag_84:\n        /* \"solidity_test/test_10.sol\":5198:5200  _n */\n      dup4\n        /* \"solidity_test/test_10.sol\":5160:5171  userBalance */\n      0x00\n        /* \"solidity_test/test_10.sol\":5160:5182  userBalance[_receiver] */\n      dup1\n        /* \"solidity_test/test_10.sol\":5172:5181  _receiver */\n      dup4\n        /* \"solidity_test/test_10.sol\":5160:5182  userBalance[_receiver] */\n      0xffffffffffffffffffffffffffffffffffffffff\n      and\n      0xffffffffffffffffffffffffffffffffffffffff\n      and\n      dup2\n      mstore\n      0x20\n      add\n      swap1\n      dup2\n      mstore\n      0x20\n      add\n      0x00\n      keccak256\n        /* \"solidity_test/test_10.sol\":5183:5193  _bankNameB */\n      dup7\n        /* \"solidity_test/test_10.sol\":5160:5194  userBalance[_receiver][_bankNameB] */\n      mload(0x40)\n      tag_87\n      swap2\n      swap1\n      tag_47\n      jump\t// in\n    tag_87:\n      swap1\n      dup2\n      mstore\n      0x20\n      add\n      mload(0x40)\n      dup1\n      swap2\n      sub\n      swap1\n      keccak256\n      0x00\n        /* \"solidity_test/test_10.sol\":5160:5200  userBalance[_receiver][_bankNameB] += _n */\n      dup3\n      dup3\n      sload\n      tag_88\n      swap2\n      swap1\n      tag_89\n      jump\t// in\n    tag_88:\n      swap3\n      pop\n      pop\n      dup2\n      swap1\n      sstore\n      pop\n        /* \"solidity_test/test_10.sol\":5250:5252  _n */\n      dup4\n        /* \"solidity_test/test_10.sol\":5211:5222  userBalance */\n      0x00\n        /* \"solidity_test/test_10.sol\":5211:5234  userBalance[msg.sender] */\n      dup1\n        /* \"solidity_test/test_10.sol\":5223:5233  msg.sender */\n      caller\n        /* \"solidity_test/test_10.sol\":5211:5234  userBalance[msg.sender] */\n      0xffffffffffffffffffffffffffffffffffffffff\n      and\n      0xffffffffffffffffffffffffffffffffffffffff\n      and\n      dup2\n      mstore\n      0x20\n      add\n      swap1\n      dup2\n      mstore\n      0x20\n      add\n      0x00\n      keccak256\n        /* \"solidity_test/test_10.sol\":5235:5245  _bankNameA */\n      dup8\n        /* \"solidity_test/test_10.sol\":5211:5246  userBalance[msg.sender][_bankNameA] */\n      mload(0x40)\n      tag_90\n      swap2\n      swap1\n      tag_47\n      jump\t// in\n    tag_90:\n      swap1\n      dup2\n      mstore\n      0x20\n      add\n      mload(0x40)\n      dup1\n      swap2\n      sub\n      swap1\n      keccak256\n      0x00\n        /* \"solidity_test/test_10.sol\":5211:5252  userBalance[msg.sender][_bankNameA] -= _n */\n      dup3\n      dup3\n      sload\n      tag_91\n      swap2\n      swap1\n      tag_92\n      jump\t// in\n    tag_91:\n      swap3\n      pop\n      pop\n      dup2\n      swap1\n      sstore\n      pop\n        /* \"solidity_test/test_10.sol\":4699:5260  function sendMoneyUtoU(string memory _bankNameA, string memory _bankNameB, uint _n, string memory _id, string memory _phoneNum, address _receiver) public {... */\n      pop\n      pop\n      pop\n      pop\n      pop\n      pop\n      jump\t// out\n        /* \"solidity_test/test_10.sol\":4133:4584  function sendMoneyBtoB(string memory _bankNameA, string memory _bankNameB, uint _n, string memory _id, string memory _phoneNum) public {... */\n    tag_44:\n        /* \"solidity_test/test_10.sol\":4325:4327  _n */\n      dup3\n        /* \"solidity_test/test_10.sol\":4287:4298  userBalance */\n      0x00\n        /* \"solidity_test/test_10.sol\":4287:4310  userBalance[msg.sender] */\n      dup1\n        /* \"solidity_test/test_10.sol\":4299:4309  msg.sender */\n      caller\n        /* \"solidity_test/test_10.sol\":4287:4310  userBalance[msg.sender] */\n      0xffffffffffffffffffffffffffffffffffffffff\n      and\n      0xffffffffffffffffffffffffffffffffffffffff\n      and\n      dup2\n      mstore\n      0x20\n      add\n      swap1\n      dup2\n      mstore\n      0x20\n      add\n      0x00\n      keccak256\n        /* \"solidity_test/test_10.sol\":4311:4321  _bankNameA */\n      dup7\n        /* \"solidity_test/test_10.sol\":4287:4322  userBalance[msg.sender][_bankNameA] */\n      mload(0x40)\n      tag_94\n      swap2\n      swap1\n      tag_47\n      jump\t// in\n    tag_94:\n      swap1\n      dup2\n      mstore\n      0x20\n      add\n      mload(0x40)\n      dup1\n      swap2\n      sub\n      swap1\n      keccak256\n      sload\n        /* \"solidity_test/test_10.sol\":4287:4327  userBalance[msg.sender][_bankNameA] > _n */\n      gt\n        /* \"solidity_test/test_10.sol\":4279:4369  require(userBalance[msg.sender][_bankNameA] > _n, \"you don't have enough moeny in bank A\") */\n      tag_95\n      jumpi\n      mload(0x40)\n      0x08c379a000000000000000000000000000000000000000000000000000000000\n      dup2\n      mstore\n      0x04\n      add\n      tag_96\n      swap1\n      tag_78\n      jump\t// in\n    tag_96:\n      mload(0x40)\n      dup1\n      swap2\n      sub\n      swap1\n      revert\n    tag_95:\n        /* \"solidity_test/test_10.sol\":4433:4434  1 */\n      0x01\n        /* \"solidity_test/test_10.sol\":4388:4397  userCheck */\n      dup1\n        /* \"solidity_test/test_10.sol\":4398:4408  _bankNameA */\n      dup7\n        /* \"solidity_test/test_10.sol\":4388:4409  userCheck[_bankNameA] */\n      mload(0x40)\n      tag_97\n      swap2\n      swap1\n      tag_47\n      jump\t// in\n    tag_97:\n      swap1\n      dup2\n      mstore\n      0x20\n      add\n      mload(0x40)\n      dup1\n      swap2\n      sub\n      swap1\n      keccak256\n        /* \"solidity_test/test_10.sol\":4388:4429  userCheck[_bankNameA][PW(_id, _phoneNum)] */\n      0x00\n        /* \"solidity_test/test_10.sol\":4410:4428  PW(_id, _phoneNum) */\n      tag_98\n        /* \"solidity_test/test_10.sol\":4413:4416  _id */\n      dup6\n        /* \"solidity_test/test_10.sol\":4418:4427  _phoneNum */\n      dup6\n        /* \"solidity_test/test_10.sol\":4410:4412  PW */\n      tag_22\n        /* \"solidity_test/test_10.sol\":4410:4428  PW(_id, _phoneNum) */\n      jump\t// in\n    tag_98:\n        /* \"solidity_test/test_10.sol\":4388:4429  userCheck[_bankNameA][PW(_id, _phoneNum)] */\n      dup2\n      mstore\n      0x20\n      add\n      swap1\n      dup2\n      mstore\n      0x20\n      add\n      0x00\n      keccak256\n      sload\n        /* \"solidity_test/test_10.sol\":4388:4434  userCheck[_bankNameA][PW(_id, _phoneNum)] == 1 */\n      eq\n        /* \"solidity_test/test_10.sol\":4380:4470  require(userCheck[_bankNameA][PW(_id, _phoneNum)] == 1, \"need signUp for this bank first\") */\n      tag_99\n      jumpi\n      mload(0x40)\n      0x08c379a000000000000000000000000000000000000000000000000000000000\n      dup2\n      mstore\n      0x04\n      add\n      tag_100\n      swap1\n      tag_55\n      jump\t// in\n    tag_100:\n      mload(0x40)\n      dup1\n      swap2\n      sub\n      swap1\n      revert\n    tag_99:\n        /* \"solidity_test/test_10.sol\":4520:4522  _n */\n      dup3\n        /* \"solidity_test/test_10.sol\":4481:4492  userBalance */\n      0x00\n        /* \"solidity_test/test_10.sol\":4481:4504  userBalance[msg.sender] */\n      dup1\n        /* \"solidity_test/test_10.sol\":4493:4503  msg.sender */\n      caller\n        /* \"solidity_test/test_10.sol\":4481:4504  userBalance[msg.sender] */\n      0xffffffffffffffffffffffffffffffffffffffff\n      and\n      0xffffffffffffffffffffffffffffffffffffffff\n      and\n      dup2\n      mstore\n      0x20\n      add\n      swap1\n      dup2\n      mstore\n      0x20\n      add\n      0x00\n      keccak256\n        /* \"solidity_test/test_10.sol\":4505:4515  _bankNameB */\n      dup6\n        /* \"solidity_test/test_10.sol\":4481:4516  userBalance[msg.sender][_bankNameB] */\n      mload(0x40)\n      tag_101\n      swap2\n      swap1\n      tag_47\n      jump\t// in\n    tag_101:\n      swap1\n      dup2\n      mstore\n      0x20\n      add\n      mload(0x40)\n      dup1\n      swap2\n      sub\n      swap1\n      keccak256\n      0x00\n        /* \"solidity_test/test_10.sol\":4481:4522  userBalance[msg.sender][_bankNameB] += _n */\n      dup3\n      dup3\n      sload\n      tag_102\n      swap2\n      swap1\n      tag_89\n      jump\t// in\n    tag_102:\n      swap3\n      pop\n      pop\n      dup2\n      swap1\n      sstore\n      pop\n        /* \"solidity_test/test_10.sol\":4573:4575  _n */\n      dup3\n        /* \"solidity_test/test_10.sol\":4534:4545  userBalance */\n      0x00\n        /* \"solidity_test/test_10.sol\":4534:4557  userBalance[msg.sender] */\n      dup1\n        /* \"solidity_test/test_10.sol\":4546:4556  msg.sender */\n      caller\n        /* \"solidity_test/test_10.sol\":4534:4557  userBalance[msg.sender] */\n      0xffffffffffffffffffffffffffffffffffffffff\n      and\n      0xffffffffffffffffffffffffffffffffffffffff\n      and\n      dup2\n      mstore\n      0x20\n      add\n      swap1\n      dup2\n      mstore\n      0x20\n      add\n      0x00\n      keccak256\n        /* \"solidity_test/test_10.sol\":4558:4568  _bankNameA */\n      dup7\n        /* \"solidity_test/test_10.sol\":4534:4569  userBalance[msg.sender][_bankNameA] */\n      mload(0x40)\n      tag_103\n      swap2\n      swap1\n      tag_47\n      jump\t// in\n    tag_103:\n      swap1\n      dup2\n      mstore\n      0x20\n      add\n      mload(0x40)\n      dup1\n      swap2\n      sub\n      swap1\n      keccak256\n      0x00\n        /* \"solidity_test/test_10.sol\":4534:4575  userBalance[msg.sender][_bankNameA] -= _n */\n      dup3\n      dup3\n      sload\n      tag_104\n      swap2\n      swap1\n      tag_92\n      jump\t// in\n    tag_104:\n      swap3\n      pop\n      pop\n      dup2\n      swap1\n      sstore\n      pop\n        /* \"solidity_test/test_10.sol\":4133:4584  function sendMoneyBtoB(string memory _bankNameA, string memory _bankNameB, uint _n, string memory _id, string memory _phoneNum) public {... */\n      pop\n      pop\n      pop\n      pop\n      pop\n      jump\t// out\n        /* \"#utility.yul\":7:82   */\n    tag_105:\n        /* \"#utility.yul\":40:46   */\n      0x00\n        /* \"#utility.yul\":73:75   */\n      0x40\n        /* \"#utility.yul\":67:76   */\n      mload\n        /* \"#utility.yul\":57:76   */\n      swap1\n      pop\n        /* \"#utility.yul\":7:82   */\n      swap1\n      jump\t// out\n        /* \"#utility.yul\":88:205   */\n    tag_106:\n        /* \"#utility.yul\":197:198   */\n      0x00\n        /* \"#utility.yul\":194:195   */\n      dup1\n        /* \"#utility.yul\":187:199   */\n      revert\n        /* \"#utility.yul\":211:328   */\n    tag_107:\n        /* \"#utility.yul\":320:321   */\n      0x00\n        /* \"#utility.yul\":317:318   */\n      dup1\n        /* \"#utility.yul\":310:322   */\n      revert\n        /* \"#utility.yul\":334:451   */\n    tag_108:\n        /* \"#utility.yul\":443:444   */\n      0x00\n        /* \"#utility.yul\":440:441   */\n      dup1\n        /* \"#utility.yul\":433:445   */\n      revert\n        /* \"#utility.yul\":457:574   */\n    tag_109:\n        /* \"#utility.yul\":566:567   */\n      0x00\n        /* \"#utility.yul\":563:564   */\n      dup1\n        /* \"#utility.yul\":556:568   */\n      revert\n        /* \"#utility.yul\":580:682   */\n    tag_110:\n        /* \"#utility.yul\":621:627   */\n      0x00\n        /* \"#utility.yul\":672:674   */\n      0x1f\n        /* \"#utility.yul\":668:675   */\n      not\n        /* \"#utility.yul\":663:665   */\n      0x1f\n        /* \"#utility.yul\":656:661   */\n      dup4\n        /* \"#utility.yul\":652:666   */\n      add\n        /* \"#utility.yul\":648:676   */\n      and\n        /* \"#utility.yul\":638:676   */\n      swap1\n      pop\n        /* \"#utility.yul\":580:682   */\n      swap2\n      swap1\n      pop\n      jump\t// out\n        /* \"#utility.yul\":688:868   */\n    tag_111:\n        /* \"#utility.yul\":736:813   */\n      0x4e487b7100000000000000000000000000000000000000000000000000000000\n        /* \"#utility.yul\":733:734   */\n      0x00\n        /* \"#utility.yul\":726:814   */\n      mstore\n        /* \"#utility.yul\":833:837   */\n      0x41\n        /* \"#utility.yul\":830:831   */\n      0x04\n        /* \"#utility.yul\":823:838   */\n      mstore\n        /* \"#utility.yul\":857:861   */\n      0x24\n        /* \"#utility.yul\":854:855   */\n      0x00\n        /* \"#utility.yul\":847:862   */\n      revert\n        /* \"#utility.yul\":874:1155   */\n    tag_112:\n        /* \"#utility.yul\":957:984   */\n      tag_151\n        /* \"#utility.yul\":979:983   */\n      dup3\n        /* \"#utility.yul\":957:984   */\n      tag_110\n      jump\t// in\n    tag_151:\n        /* \"#utility.yul\":949:955   */\n      dup2\n        /* \"#utility.yul\":945:985   */\n      add\n        /* \"#utility.yul\":1087:1093   */\n      dup2\n        /* \"#utility.yul\":1075:1085   */\n      dup2\n        /* \"#utility.yul\":1072:1094   */\n      lt\n        /* \"#utility.yul\":1051:1069   */\n      0xffffffffffffffff\n        /* \"#utility.yul\":1039:1049   */\n      dup3\n        /* \"#utility.yul\":1036:1070   */\n      gt\n        /* \"#utility.yul\":1033:1095   */\n      or\n        /* \"#utility.yul\":1030:1118   */\n      iszero\n      tag_152\n      jumpi\n        /* \"#utility.yul\":1098:1116   */\n      tag_153\n      tag_111\n      jump\t// in\n    tag_153:\n        /* \"#utility.yul\":1030:1118   */\n    tag_152:\n        /* \"#utility.yul\":1138:1148   */\n      dup1\n        /* \"#utility.yul\":1134:1136   */\n      0x40\n        /* \"#utility.yul\":1127:1149   */\n      mstore\n        /* \"#utility.yul\":917:1155   */\n      pop\n        /* \"#utility.yul\":874:1155   */\n      pop\n      pop\n      jump\t// out\n        /* \"#utility.yul\":1161:1290   */\n    tag_113:\n        /* \"#utility.yul\":1195:1201   */\n      0x00\n        /* \"#utility.yul\":1222:1242   */\n      tag_155\n      tag_105\n      jump\t// in\n    tag_155:\n        /* \"#utility.yul\":1212:1242   */\n      swap1\n      pop\n        /* \"#utility.yul\":1251:1284   */\n      tag_156\n        /* \"#utility.yul\":1279:1283   */\n      dup3\n        /* \"#utility.yul\":1271:1277   */\n      dup3\n        /* \"#utility.yul\":1251:1284   */\n      tag_112\n      jump\t// in\n    tag_156:\n        /* \"#utility.yul\":1161:1290   */\n      swap2\n      swap1\n      pop\n      jump\t// out\n        /* \"#utility.yul\":1296:1604   */\n    tag_114:\n        /* \"#utility.yul\":1358:1362   */\n      0x00\n        /* \"#utility.yul\":1448:1466   */\n      0xffffffffffffffff\n        /* \"#utility.yul\":1440:1446   */\n      dup3\n        /* \"#utility.yul\":1437:1467   */\n      gt\n        /* \"#utility.yul\":1434:1490   */\n      iszero\n      tag_158\n      jumpi\n        /* \"#utility.yul\":1470:1488   */\n      tag_159\n      tag_111\n      jump\t// in\n    tag_159:\n        /* \"#utility.yul\":1434:1490   */\n    tag_158:\n        /* \"#utility.yul\":1508:1537   */\n      tag_160\n        /* \"#utility.yul\":1530:1536   */\n      dup3\n        /* \"#utility.yul\":1508:1537   */\n      tag_110\n      jump\t// in\n    tag_160:\n        /* \"#utility.yul\":1500:1537   */\n      swap1\n      pop\n        /* \"#utility.yul\":1592:1596   */\n      0x20\n        /* \"#utility.yul\":1586:1590   */\n      dup2\n        /* \"#utility.yul\":1582:1597   */\n      add\n        /* \"#utility.yul\":1574:1597   */\n      swap1\n      pop\n        /* \"#utility.yul\":1296:1604   */\n      swap2\n      swap1\n      pop\n      jump\t// out\n        /* \"#utility.yul\":1610:1758   */\n    tag_115:\n        /* \"#utility.yul\":1708:1714   */\n      dup3\n        /* \"#utility.yul\":1703:1706   */\n      dup2\n        /* \"#utility.yul\":1698:1701   */\n      dup4\n        /* \"#utility.yul\":1685:1715   */\n      calldatacopy\n        /* \"#utility.yul\":1749:1750   */\n      0x00\n        /* \"#utility.yul\":1740:1746   */\n      dup4\n        /* \"#utility.yul\":1735:1738   */\n      dup4\n        /* \"#utility.yul\":1731:1747   */\n      add\n        /* \"#utility.yul\":1724:1751   */\n      mstore\n        /* \"#utility.yul\":1610:1758   */\n      pop\n      pop\n      pop\n      jump\t// out\n        /* \"#utility.yul\":1764:2189   */\n    tag_116:\n        /* \"#utility.yul\":1842:1847   */\n      0x00\n        /* \"#utility.yul\":1867:1933   */\n      tag_163\n        /* \"#utility.yul\":1883:1932   */\n      tag_164\n        /* \"#utility.yul\":1925:1931   */\n      dup5\n        /* \"#utility.yul\":1883:1932   */\n      tag_114\n      jump\t// in\n    tag_164:\n        /* \"#utility.yul\":1867:1933   */\n      tag_113\n      jump\t// in\n    tag_163:\n        /* \"#utility.yul\":1858:1933   */\n      swap1\n      pop\n        /* \"#utility.yul\":1956:1962   */\n      dup3\n        /* \"#utility.yul\":1949:1954   */\n      dup2\n        /* \"#utility.yul\":1942:1963   */\n      mstore\n        /* \"#utility.yul\":1994:1998   */\n      0x20\n        /* \"#utility.yul\":1987:1992   */\n      dup2\n        /* \"#utility.yul\":1983:1999   */\n      add\n        /* \"#utility.yul\":2032:2035   */\n      dup5\n        /* \"#utility.yul\":2023:2029   */\n      dup5\n        /* \"#utility.yul\":2018:2021   */\n      dup5\n        /* \"#utility.yul\":2014:2030   */\n      add\n        /* \"#utility.yul\":2011:2036   */\n      gt\n        /* \"#utility.yul\":2008:2120   */\n      iszero\n      tag_165\n      jumpi\n        /* \"#utility.yul\":2039:2118   */\n      tag_166\n      tag_109\n      jump\t// in\n    tag_166:\n        /* \"#utility.yul\":2008:2120   */\n    tag_165:\n        /* \"#utility.yul\":2129:2183   */\n      tag_167\n        /* \"#utility.yul\":2176:2182   */\n      dup5\n        /* \"#utility.yul\":2171:2174   */\n      dup3\n        /* \"#utility.yul\":2166:2169   */\n      dup6\n        /* \"#utility.yul\":2129:2183   */\n      tag_115\n      jump\t// in\n    tag_167:\n        /* \"#utility.yul\":1848:2189   */\n      pop\n        /* \"#utility.yul\":1764:2189   */\n      swap4\n      swap3\n      pop\n      pop\n      pop\n      jump\t// out\n        /* \"#utility.yul\":2209:2549   */\n    tag_117:\n        /* \"#utility.yul\":2265:2270   */\n      0x00\n        /* \"#utility.yul\":2314:2317   */\n      dup3\n        /* \"#utility.yul\":2307:2311   */\n      0x1f\n        /* \"#utility.yul\":2299:2305   */\n      dup4\n        /* \"#utility.yul\":2295:2312   */\n      add\n        /* \"#utility.yul\":2291:2318   */\n      slt\n        /* \"#utility.yul\":2281:2403   */\n      tag_169\n      jumpi\n        /* \"#utility.yul\":2322:2401   */\n      tag_170\n      tag_108\n      jump\t// in\n    tag_170:\n        /* \"#utility.yul\":2281:2403   */\n    tag_169:\n        /* \"#utility.yul\":2439:2445   */\n      dup2\n        /* \"#utility.yul\":2426:2446   */\n      calldataload\n        /* \"#utility.yul\":2464:2543   */\n      tag_171\n        /* \"#utility.yul\":2539:2542   */\n      dup5\n        /* \"#utility.yul\":2531:2537   */\n      dup3\n        /* \"#utility.yul\":2524:2528   */\n      0x20\n        /* \"#utility.yul\":2516:2522   */\n      dup7\n        /* \"#utility.yul\":2512:2529   */\n      add\n        /* \"#utility.yul\":2464:2543   */\n      tag_116\n      jump\t// in\n    tag_171:\n        /* \"#utility.yul\":2455:2543   */\n      swap2\n      pop\n        /* \"#utility.yul\":2271:2549   */\n      pop\n        /* \"#utility.yul\":2209:2549   */\n      swap3\n      swap2\n      pop\n      pop\n      jump\t// out\n        /* \"#utility.yul\":2555:2632   */\n    tag_118:\n        /* \"#utility.yul\":2592:2599   */\n      0x00\n        /* \"#utility.yul\":2621:2626   */\n      dup2\n        /* \"#utility.yul\":2610:2626   */\n      swap1\n      pop\n        /* \"#utility.yul\":2555:2632   */\n      swap2\n      swap1\n      pop\n      jump\t// out\n        /* \"#utility.yul\":2638:2760   */\n    tag_119:\n        /* \"#utility.yul\":2711:2735   */\n      tag_174\n        /* \"#utility.yul\":2729:2734   */\n      dup2\n        /* \"#utility.yul\":2711:2735   */\n      tag_118\n      jump\t// in\n    tag_174:\n        /* \"#utility.yul\":2704:2709   */\n      dup2\n        /* \"#utility.yul\":2701:2736   */\n      eq\n        /* \"#utility.yul\":2691:2754   */\n      tag_175\n      jumpi\n        /* \"#utility.yul\":2750:2751   */\n      0x00\n        /* \"#utility.yul\":2747:2748   */\n      dup1\n        /* \"#utility.yul\":2740:2752   */\n      revert\n        /* \"#utility.yul\":2691:2754   */\n    tag_175:\n        /* \"#utility.yul\":2638:2760   */\n      pop\n      jump\t// out\n        /* \"#utility.yul\":2766:2905   */\n    tag_120:\n        /* \"#utility.yul\":2812:2817   */\n      0x00\n        /* \"#utility.yul\":2850:2856   */\n      dup2\n        /* \"#utility.yul\":2837:2857   */\n      calldataload\n        /* \"#utility.yul\":2828:2857   */\n      swap1\n      pop\n        /* \"#utility.yul\":2866:2899   */\n      tag_177\n        /* \"#utility.yul\":2893:2898   */\n      dup2\n        /* \"#utility.yul\":2866:2899   */\n      tag_119\n      jump\t// in\n    tag_177:\n        /* \"#utility.yul\":2766:2905   */\n      swap3\n      swap2\n      pop\n      pop\n      jump\t// out\n        /* \"#utility.yul\":2911:4216   */\n    tag_12:\n        /* \"#utility.yul\":3027:3033   */\n      0x00\n        /* \"#utility.yul\":3035:3041   */\n      dup1\n        /* \"#utility.yul\":3043:3049   */\n      0x00\n        /* \"#utility.yul\":3051:3057   */\n      dup1\n        /* \"#utility.yul\":3100:3103   */\n      0x80\n        /* \"#utility.yul\":3088:3097   */\n      dup6\n        /* \"#utility.yul\":3079:3086   */\n      dup8\n        /* \"#utility.yul\":3075:3098   */\n      sub\n        /* \"#utility.yul\":3071:3104   */\n      slt\n        /* \"#utility.yul\":3068:3188   */\n      iszero\n      tag_179\n      jumpi\n        /* \"#utility.yul\":3107:3186   */\n      tag_180\n      tag_106\n      jump\t// in\n    tag_180:\n        /* \"#utility.yul\":3068:3188   */\n    tag_179:\n        /* \"#utility.yul\":3255:3256   */\n      0x00\n        /* \"#utility.yul\":3244:3253   */\n      dup6\n        /* \"#utility.yul\":3240:3257   */\n      add\n        /* \"#utility.yul\":3227:3258   */\n      calldataload\n        /* \"#utility.yul\":3285:3303   */\n      0xffffffffffffffff\n        /* \"#utility.yul\":3277:3283   */\n      dup2\n        /* \"#utility.yul\":3274:3304   */\n      gt\n        /* \"#utility.yul\":3271:3388   */\n      iszero\n      tag_181\n      jumpi\n        /* \"#utility.yul\":3307:3386   */\n      tag_182\n      tag_107\n      jump\t// in\n    tag_182:\n        /* \"#utility.yul\":3271:3388   */\n    tag_181:\n        /* \"#utility.yul\":3412:3475   */\n      tag_183\n        /* \"#utility.yul\":3467:3474   */\n      dup8\n        /* \"#utility.yul\":3458:3464   */\n      dup3\n        /* \"#utility.yul\":3447:3456   */\n      dup9\n        /* \"#utility.yul\":3443:3465   */\n      add\n        /* \"#utility.yul\":3412:3475   */\n      tag_117\n      jump\t// in\n    tag_183:\n        /* \"#utility.yul\":3402:3475   */\n      swap5\n      pop\n        /* \"#utility.yul\":3198:3485   */\n      pop\n        /* \"#utility.yul\":3524:3526   */\n      0x20\n        /* \"#utility.yul\":3550:3603   */\n      tag_184\n        /* \"#utility.yul\":3595:3602   */\n      dup8\n        /* \"#utility.yul\":3586:3592   */\n      dup3\n        /* \"#utility.yul\":3575:3584   */\n      dup9\n        /* \"#utility.yul\":3571:3593   */\n      add\n        /* \"#utility.yul\":3550:3603   */\n      tag_120\n      jump\t// in\n    tag_184:\n        /* \"#utility.yul\":3540:3603   */\n      swap4\n      pop\n        /* \"#utility.yul\":3495:3613   */\n      pop\n        /* \"#utility.yul\":3680:3682   */\n      0x40\n        /* \"#utility.yul\":3669:3678   */\n      dup6\n        /* \"#utility.yul\":3665:3683   */\n      add\n        /* \"#utility.yul\":3652:3684   */\n      calldataload\n        /* \"#utility.yul\":3711:3729   */\n      0xffffffffffffffff\n        /* \"#utility.yul\":3703:3709   */\n      dup2\n        /* \"#utility.yul\":3700:3730   */\n      gt\n        /* \"#utility.yul\":3697:3814   */\n      iszero\n      tag_185\n      jumpi\n        /* \"#utility.yul\":3733:3812   */\n      tag_186\n      tag_107\n      jump\t// in\n    tag_186:\n        /* \"#utility.yul\":3697:3814   */\n    tag_185:\n        /* \"#utility.yul\":3838:3901   */\n      tag_187\n        /* \"#utility.yul\":3893:3900   */\n      dup8\n        /* \"#utility.yul\":3884:3890   */\n      dup3\n        /* \"#utility.yul\":3873:3882   */\n      dup9\n        /* \"#utility.yul\":3869:3891   */\n      add\n        /* \"#utility.yul\":3838:3901   */\n      tag_117\n      jump\t// in\n    tag_187:\n        /* \"#utility.yul\":3828:3901   */\n      swap3\n      pop\n        /* \"#utility.yul\":3623:3911   */\n      pop\n        /* \"#utility.yul\":3978:3980   */\n      0x60\n        /* \"#utility.yul\":3967:3976   */\n      dup6\n        /* \"#utility.yul\":3963:3981   */\n      add\n        /* \"#utility.yul\":3950:3982   */\n      calldataload\n        /* \"#utility.yul\":4009:4027   */\n      0xffffffffffffffff\n        /* \"#utility.yul\":4001:4007   */\n      dup2\n        /* \"#utility.yul\":3998:4028   */\n      gt\n        /* \"#utility.yul\":3995:4112   */\n      iszero\n      tag_188\n      jumpi\n        /* \"#utility.yul\":4031:4110   */\n      tag_189\n      tag_107\n      jump\t// in\n    tag_189:\n        /* \"#utility.yul\":3995:4112   */\n    tag_188:\n        /* \"#utility.yul\":4136:4199   */\n      tag_190\n        /* \"#utility.yul\":4191:4198   */\n      dup8\n        /* \"#utility.yul\":4182:4188   */\n      dup3\n        /* \"#utility.yul\":4171:4180   */\n      dup9\n        /* \"#utility.yul\":4167:4189   */\n      add\n        /* \"#utility.yul\":4136:4199   */\n      tag_117\n      jump\t// in\n    tag_190:\n        /* \"#utility.yul\":4126:4199   */\n      swap2\n      pop\n        /* \"#utility.yul\":3921:4209   */\n      pop\n        /* \"#utility.yul\":2911:4216   */\n      swap3\n      swap6\n      swap2\n      swap5\n      pop\n      swap3\n      pop\n      jump\t// out\n        /* \"#utility.yul\":4222:5381   */\n    tag_16:\n        /* \"#utility.yul\":4329:4335   */\n      0x00\n        /* \"#utility.yul\":4337:4343   */\n      dup1\n        /* \"#utility.yul\":4345:4351   */\n      0x00\n        /* \"#utility.yul\":4394:4396   */\n      0x60\n        /* \"#utility.yul\":4382:4391   */\n      dup5\n        /* \"#utility.yul\":4373:4380   */\n      dup7\n        /* \"#utility.yul\":4369:4392   */\n      sub\n        /* \"#utility.yul\":4365:4397   */\n      slt\n        /* \"#utility.yul\":4362:4481   */\n      iszero\n      tag_192\n      jumpi\n        /* \"#utility.yul\":4400:4479   */\n      tag_193\n      tag_106\n      jump\t// in\n    tag_193:\n        /* \"#utility.yul\":4362:4481   */\n    tag_192:\n        /* \"#utility.yul\":4548:4549   */\n      0x00\n        /* \"#utility.yul\":4537:4546   */\n      dup5\n        /* \"#utility.yul\":4533:4550   */\n      add\n        /* \"#utility.yul\":4520:4551   */\n      calldataload\n        /* \"#utility.yul\":4578:4596   */\n      0xffffffffffffffff\n        /* \"#utility.yul\":4570:4576   */\n      dup2\n        /* \"#utility.yul\":4567:4597   */\n      gt\n        /* \"#utility.yul\":4564:4681   */\n      iszero\n      tag_194\n      jumpi\n        /* \"#utility.yul\":4600:4679   */\n      tag_195\n      tag_107\n      jump\t// in\n    tag_195:\n        /* \"#utility.yul\":4564:4681   */\n    tag_194:\n        /* \"#utility.yul\":4705:4768   */\n      tag_196\n        /* \"#utility.yul\":4760:4767   */\n      dup7\n        /* \"#utility.yul\":4751:4757   */\n      dup3\n        /* \"#utility.yul\":4740:4749   */\n      dup8\n        /* \"#utility.yul\":4736:4758   */\n      add\n        /* \"#utility.yul\":4705:4768   */\n      tag_117\n      jump\t// in\n    tag_196:\n        /* \"#utility.yul\":4695:4768   */\n      swap4\n      pop\n        /* \"#utility.yul\":4491:4778   */\n      pop\n        /* \"#utility.yul\":4845:4847   */\n      0x20\n        /* \"#utility.yul\":4834:4843   */\n      dup5\n        /* \"#utility.yul\":4830:4848   */\n      add\n        /* \"#utility.yul\":4817:4849   */\n      calldataload\n        /* \"#utility.yul\":4876:4894   */\n      0xffffffffffffffff\n        /* \"#utility.yul\":4868:4874   */\n      dup2\n        /* \"#utility.yul\":4865:4895   */\n      gt\n        /* \"#utility.yul\":4862:4979   */\n      iszero\n      tag_197\n      jumpi\n        /* \"#utility.yul\":4898:4977   */\n      tag_198\n      tag_107\n      jump\t// in\n    tag_198:\n        /* \"#utility.yul\":4862:4979   */\n    tag_197:\n        /* \"#utility.yul\":5003:5066   */\n      tag_199\n        /* \"#utility.yul\":5058:5065   */\n      dup7\n        /* \"#utility.yul\":5049:5055   */\n      dup3\n        /* \"#utility.yul\":5038:5047   */\n      dup8\n        /* \"#utility.yul\":5034:5056   */\n      add\n        /* \"#utility.yul\":5003:5066   */\n      tag_117\n      jump\t// in\n    tag_199:\n        /* \"#utility.yul\":4993:5066   */\n      swap3\n      pop\n        /* \"#utility.yul\":4788:5076   */\n      pop\n        /* \"#utility.yul\":5143:5145   */\n      0x40\n        /* \"#utility.yul\":5132:5141   */\n      dup5\n        /* \"#utility.yul\":5128:5146   */\n      add\n        /* \"#utility.yul\":5115:5147   */\n      calldataload\n        /* \"#utility.yul\":5174:5192   */\n      0xffffffffffffffff\n        /* \"#utility.yul\":5166:5172   */\n      dup2\n        /* \"#utility.yul\":5163:5193   */\n      gt\n        /* \"#utility.yul\":5160:5277   */\n      iszero\n      tag_200\n      jumpi\n        /* \"#utility.yul\":5196:5275   */\n      tag_201\n      tag_107\n      jump\t// in\n    tag_201:\n        /* \"#utility.yul\":5160:5277   */\n    tag_200:\n        /* \"#utility.yul\":5301:5364   */\n      tag_202\n        /* \"#utility.yul\":5356:5363   */\n      dup7\n        /* \"#utility.yul\":5347:5353   */\n      dup3\n        /* \"#utility.yul\":5336:5345   */\n      dup8\n        /* \"#utility.yul\":5332:5354   */\n      add\n        /* \"#utility.yul\":5301:5364   */\n      tag_117\n      jump\t// in\n    tag_202:\n        /* \"#utility.yul\":5291:5364   */\n      swap2\n      pop\n        /* \"#utility.yul\":5086:5374   */\n      pop\n        /* \"#utility.yul\":4222:5381   */\n      swap3\n      pop\n      swap3\n      pop\n      swap3\n      jump\t// out\n        /* \"#utility.yul\":5387:6221   */\n    tag_21:\n        /* \"#utility.yul\":5475:5481   */\n      0x00\n        /* \"#utility.yul\":5483:5489   */\n      dup1\n        /* \"#utility.yul\":5532:5534   */\n      0x40\n        /* \"#utility.yul\":5520:5529   */\n      dup4\n        /* \"#utility.yul\":5511:5518   */\n      dup6\n        /* \"#utility.yul\":5507:5530   */\n      sub\n        /* \"#utility.yul\":5503:5535   */\n      slt\n        /* \"#utility.yul\":5500:5619   */\n      iszero\n      tag_204\n      jumpi\n        /* \"#utility.yul\":5538:5617   */\n      tag_205\n      tag_106\n      jump\t// in\n    tag_205:\n        /* \"#utility.yul\":5500:5619   */\n    tag_204:\n        /* \"#utility.yul\":5686:5687   */\n      0x00\n        /* \"#utility.yul\":5675:5684   */\n      dup4\n        /* \"#utility.yul\":5671:5688   */\n      add\n        /* \"#utility.yul\":5658:5689   */\n      calldataload\n        /* \"#utility.yul\":5716:5734   */\n      0xffffffffffffffff\n        /* \"#utility.yul\":5708:5714   */\n      dup2\n        /* \"#utility.yul\":5705:5735   */\n      gt\n        /* \"#utility.yul\":5702:5819   */\n      iszero\n      tag_206\n      jumpi\n        /* \"#utility.yul\":5738:5817   */\n      tag_207\n      tag_107\n      jump\t// in\n    tag_207:\n        /* \"#utility.yul\":5702:5819   */\n    tag_206:\n        /* \"#utility.yul\":5843:5906   */\n      tag_208\n        /* \"#utility.yul\":5898:5905   */\n      dup6\n        /* \"#utility.yul\":5889:5895   */\n      dup3\n        /* \"#utility.yul\":5878:5887   */\n      dup7\n        /* \"#utility.yul\":5874:5896   */\n      add\n        /* \"#utility.yul\":5843:5906   */\n      tag_117\n      jump\t// in\n    tag_208:\n        /* \"#utility.yul\":5833:5906   */\n      swap3\n      pop\n        /* \"#utility.yul\":5629:5916   */\n      pop\n        /* \"#utility.yul\":5983:5985   */\n      0x20\n        /* \"#utility.yul\":5972:5981   */\n      dup4\n        /* \"#utility.yul\":5968:5986   */\n      add\n        /* \"#utility.yul\":5955:5987   */\n      calldataload\n        /* \"#utility.yul\":6014:6032   */\n      0xffffffffffffffff\n        /* \"#utility.yul\":6006:6012   */\n      dup2\n        /* \"#utility.yul\":6003:6033   */\n      gt\n        /* \"#utility.yul\":6000:6117   */\n      iszero\n      tag_209\n      jumpi\n        /* \"#utility.yul\":6036:6115   */\n      tag_210\n      tag_107\n      jump\t// in\n    tag_210:\n        /* \"#utility.yul\":6000:6117   */\n    tag_209:\n        /* \"#utility.yul\":6141:6204   */\n      tag_211\n        /* \"#utility.yul\":6196:6203   */\n      dup6\n        /* \"#utility.yul\":6187:6193   */\n      dup3\n        /* \"#utility.yul\":6176:6185   */\n      dup7\n        /* \"#utility.yul\":6172:6194   */\n      add\n        /* \"#utility.yul\":6141:6204   */\n      tag_117\n      jump\t// in\n    tag_211:\n        /* \"#utility.yul\":6131:6204   */\n      swap2\n      pop\n        /* \"#utility.yul\":5926:6214   */\n      pop\n        /* \"#utility.yul\":5387:6221   */\n      swap3\n      pop\n      swap3\n      swap1\n      pop\n      jump\t// out\n        /* \"#utility.yul\":6227:6304   */\n    tag_121:\n        /* \"#utility.yul\":6264:6271   */\n      0x00\n        /* \"#utility.yul\":6293:6298   */\n      dup2\n        /* \"#utility.yul\":6282:6298   */\n      swap1\n      pop\n        /* \"#utility.yul\":6227:6304   */\n      swap2\n      swap1\n      pop\n      jump\t// out\n        /* \"#utility.yul\":6310:6428   */\n    tag_122:\n        /* \"#utility.yul\":6397:6421   */\n      tag_214\n        /* \"#utility.yul\":6415:6420   */\n      dup2\n        /* \"#utility.yul\":6397:6421   */\n      tag_121\n      jump\t// in\n    tag_214:\n        /* \"#utility.yul\":6392:6395   */\n      dup3\n        /* \"#utility.yul\":6385:6422   */\n      mstore\n        /* \"#utility.yul\":6310:6428   */\n      pop\n      pop\n      jump\t// out\n        /* \"#utility.yul\":6434:6656   */\n    tag_24:\n        /* \"#utility.yul\":6527:6531   */\n      0x00\n        /* \"#utility.yul\":6565:6567   */\n      0x20\n        /* \"#utility.yul\":6554:6563   */\n      dup3\n        /* \"#utility.yul\":6550:6568   */\n      add\n        /* \"#utility.yul\":6542:6568   */\n      swap1\n      pop\n        /* \"#utility.yul\":6578:6649   */\n      tag_216\n        /* \"#utility.yul\":6646:6647   */\n      0x00\n        /* \"#utility.yul\":6635:6644   */\n      dup4\n        /* \"#utility.yul\":6631:6648   */\n      add\n        /* \"#utility.yul\":6622:6628   */\n      dup5\n        /* \"#utility.yul\":6578:6649   */\n      tag_122\n      jump\t// in\n    tag_216:\n        /* \"#utility.yul\":6434:6656   */\n      swap3\n      swap2\n      pop\n      pop\n      jump\t// out\n        /* \"#utility.yul\":6662:6780   */\n    tag_123:\n        /* \"#utility.yul\":6749:6773   */\n      tag_218\n        /* \"#utility.yul\":6767:6772   */\n      dup2\n        /* \"#utility.yul\":6749:6773   */\n      tag_118\n      jump\t// in\n    tag_218:\n        /* \"#utility.yul\":6744:6747   */\n      dup3\n        /* \"#utility.yul\":6737:6774   */\n      mstore\n        /* \"#utility.yul\":6662:6780   */\n      pop\n      pop\n      jump\t// out\n        /* \"#utility.yul\":6786:7008   */\n    tag_30:\n        /* \"#utility.yul\":6879:6883   */\n      0x00\n        /* \"#utility.yul\":6917:6919   */\n      0x20\n        /* \"#utility.yul\":6906:6915   */\n      dup3\n        /* \"#utility.yul\":6902:6920   */\n      add\n        /* \"#utility.yul\":6894:6920   */\n      swap1\n      pop\n        /* \"#utility.yul\":6930:7001   */\n      tag_220\n        /* \"#utility.yul\":6998:6999   */\n      0x00\n        /* \"#utility.yul\":6987:6996   */\n      dup4\n        /* \"#utility.yul\":6983:7000   */\n      add\n        /* \"#utility.yul\":6974:6980   */\n      dup5\n        /* \"#utility.yul\":6930:7001   */\n      tag_123\n      jump\t// in\n    tag_220:\n        /* \"#utility.yul\":6786:7008   */\n      swap3\n      swap2\n      pop\n      pop\n      jump\t// out\n        /* \"#utility.yul\":7014:7140   */\n    tag_124:\n        /* \"#utility.yul\":7051:7058   */\n      0x00\n        /* \"#utility.yul\":7091:7133   */\n      0xffffffffffffffffffffffffffffffffffffffff\n        /* \"#utility.yul\":7084:7089   */\n      dup3\n        /* \"#utility.yul\":7080:7134   */\n      and\n        /* \"#utility.yul\":7069:7134   */\n      swap1\n      pop\n        /* \"#utility.yul\":7014:7140   */\n      swap2\n      swap1\n      pop\n      jump\t// out\n        /* \"#utility.yul\":7146:7242   */\n    tag_125:\n        /* \"#utility.yul\":7183:7190   */\n      0x00\n        /* \"#utility.yul\":7212:7236   */\n      tag_223\n        /* \"#utility.yul\":7230:7235   */\n      dup3\n        /* \"#utility.yul\":7212:7236   */\n      tag_124\n      jump\t// in\n    tag_223:\n        /* \"#utility.yul\":7201:7236   */\n      swap1\n      pop\n        /* \"#utility.yul\":7146:7242   */\n      swap2\n      swap1\n      pop\n      jump\t// out\n        /* \"#utility.yul\":7248:7370   */\n    tag_126:\n        /* \"#utility.yul\":7321:7345   */\n      tag_225\n        /* \"#utility.yul\":7339:7344   */\n      dup2\n        /* \"#utility.yul\":7321:7345   */\n      tag_125\n      jump\t// in\n    tag_225:\n        /* \"#utility.yul\":7314:7319   */\n      dup2\n        /* \"#utility.yul\":7311:7346   */\n      eq\n        /* \"#utility.yul\":7301:7364   */\n      tag_226\n      jumpi\n        /* \"#utility.yul\":7360:7361   */\n      0x00\n        /* \"#utility.yul\":7357:7358   */\n      dup1\n        /* \"#utility.yul\":7350:7362   */\n      revert\n        /* \"#utility.yul\":7301:7364   */\n    tag_226:\n        /* \"#utility.yul\":7248:7370   */\n      pop\n      jump\t// out\n        /* \"#utility.yul\":7376:7515   */\n    tag_127:\n        /* \"#utility.yul\":7422:7427   */\n      0x00\n        /* \"#utility.yul\":7460:7466   */\n      dup2\n        /* \"#utility.yul\":7447:7467   */\n      calldataload\n        /* \"#utility.yul\":7438:7467   */\n      swap1\n      pop\n        /* \"#utility.yul\":7476:7509   */\n      tag_228\n        /* \"#utility.yul\":7503:7508   */\n      dup2\n        /* \"#utility.yul\":7476:7509   */\n      tag_126\n      jump\t// in\n    tag_228:\n        /* \"#utility.yul\":7376:7515   */\n      swap3\n      swap2\n      pop\n      pop\n      jump\t// out\n        /* \"#utility.yul\":7521:9298   */\n    tag_38:\n        /* \"#utility.yul\":7665:7671   */\n      0x00\n        /* \"#utility.yul\":7673:7679   */\n      dup1\n        /* \"#utility.yul\":7681:7687   */\n      0x00\n        /* \"#utility.yul\":7689:7695   */\n      dup1\n        /* \"#utility.yul\":7697:7703   */\n      0x00\n        /* \"#utility.yul\":7705:7711   */\n      dup1\n        /* \"#utility.yul\":7754:7757   */\n      0xc0\n        /* \"#utility.yul\":7742:7751   */\n      dup8\n        /* \"#utility.yul\":7733:7740   */\n      dup10\n        /* \"#utility.yul\":7729:7752   */\n      sub\n        /* \"#utility.yul\":7725:7758   */\n      slt\n        /* \"#utility.yul\":7722:7842   */\n      iszero\n      tag_230\n      jumpi\n        /* \"#utility.yul\":7761:7840   */\n      tag_231\n      tag_106\n      jump\t// in\n    tag_231:\n        /* \"#utility.yul\":7722:7842   */\n    tag_230:\n        /* \"#utility.yul\":7909:7910   */\n      0x00\n        /* \"#utility.yul\":7898:7907   */\n      dup8\n        /* \"#utility.yul\":7894:7911   */\n      add\n        /* \"#utility.yul\":7881:7912   */\n      calldataload\n        /* \"#utility.yul\":7939:7957   */\n      0xffffffffffffffff\n        /* \"#utility.yul\":7931:7937   */\n      dup2\n        /* \"#utility.yul\":7928:7958   */\n      gt\n        /* \"#utility.yul\":7925:8042   */\n      iszero\n      tag_232\n      jumpi\n        /* \"#utility.yul\":7961:8040   */\n      tag_233\n      tag_107\n      jump\t// in\n    tag_233:\n        /* \"#utility.yul\":7925:8042   */\n    tag_232:\n        /* \"#utility.yul\":8066:8129   */\n      tag_234\n        /* \"#utility.yul\":8121:8128   */\n      dup10\n        /* \"#utility.yul\":8112:8118   */\n      dup3\n        /* \"#utility.yul\":8101:8110   */\n      dup11\n        /* \"#utility.yul\":8097:8119   */\n      add\n        /* \"#utility.yul\":8066:8129   */\n      tag_117\n      jump\t// in\n    tag_234:\n        /* \"#utility.yul\":8056:8129   */\n      swap7\n      pop\n        /* \"#utility.yul\":7852:8139   */\n      pop\n        /* \"#utility.yul\":8206:8208   */\n      0x20\n        /* \"#utility.yul\":8195:8204   */\n      dup8\n        /* \"#utility.yul\":8191:8209   */\n      add\n        /* \"#utility.yul\":8178:8210   */\n      calldataload\n        /* \"#utility.yul\":8237:8255   */\n      0xffffffffffffffff\n        /* \"#utility.yul\":8229:8235   */\n      dup2\n        /* \"#utility.yul\":8226:8256   */\n      gt\n        /* \"#utility.yul\":8223:8340   */\n      iszero\n      tag_235\n      jumpi\n        /* \"#utility.yul\":8259:8338   */\n      tag_236\n      tag_107\n      jump\t// in\n    tag_236:\n        /* \"#utility.yul\":8223:8340   */\n    tag_235:\n        /* \"#utility.yul\":8364:8427   */\n      tag_237\n        /* \"#utility.yul\":8419:8426   */\n      dup10\n        /* \"#utility.yul\":8410:8416   */\n      dup3\n        /* \"#utility.yul\":8399:8408   */\n      dup11\n        /* \"#utility.yul\":8395:8417   */\n      add\n        /* \"#utility.yul\":8364:8427   */\n      tag_117\n      jump\t// in\n    tag_237:\n        /* \"#utility.yul\":8354:8427   */\n      swap6\n      pop\n        /* \"#utility.yul\":8149:8437   */\n      pop\n        /* \"#utility.yul\":8476:8478   */\n      0x40\n        /* \"#utility.yul\":8502:8555   */\n      tag_238\n        /* \"#utility.yul\":8547:8554   */\n      dup10\n        /* \"#utility.yul\":8538:8544   */\n      dup3\n        /* \"#utility.yul\":8527:8536   */\n      dup11\n        /* \"#utility.yul\":8523:8545   */\n      add\n        /* \"#utility.yul\":8502:8555   */\n      tag_120\n      jump\t// in\n    tag_238:\n        /* \"#utility.yul\":8492:8555   */\n      swap5\n      pop\n        /* \"#utility.yul\":8447:8565   */\n      pop\n        /* \"#utility.yul\":8632:8634   */\n      0x60\n        /* \"#utility.yul\":8621:8630   */\n      dup8\n        /* \"#utility.yul\":8617:8635   */\n      add\n        /* \"#utility.yul\":8604:8636   */\n      calldataload\n        /* \"#utility.yul\":8663:8681   */\n      0xffffffffffffffff\n        /* \"#utility.yul\":8655:8661   */\n      dup2\n        /* \"#utility.yul\":8652:8682   */\n      gt\n        /* \"#utility.yul\":8649:8766   */\n      iszero\n      tag_239\n      jumpi\n        /* \"#utility.yul\":8685:8764   */\n      tag_240\n      tag_107\n      jump\t// in\n    tag_240:\n        /* \"#utility.yul\":8649:8766   */\n    tag_239:\n        /* \"#utility.yul\":8790:8853   */\n      tag_241\n        /* \"#utility.yul\":8845:8852   */\n      dup10\n        /* \"#utility.yul\":8836:8842   */\n      dup3\n        /* \"#utility.yul\":8825:8834   */\n      dup11\n        /* \"#utility.yul\":8821:8843   */\n      add\n        /* \"#utility.yul\":8790:8853   */\n      tag_117\n      jump\t// in\n    tag_241:\n        /* \"#utility.yul\":8780:8853   */\n      swap4\n      pop\n        /* \"#utility.yul\":8575:8863   */\n      pop\n        /* \"#utility.yul\":8930:8933   */\n      0x80\n        /* \"#utility.yul\":8919:8928   */\n      dup8\n        /* \"#utility.yul\":8915:8934   */\n      add\n        /* \"#utility.yul\":8902:8935   */\n      calldataload\n        /* \"#utility.yul\":8962:8980   */\n      0xffffffffffffffff\n        /* \"#utility.yul\":8954:8960   */\n      dup2\n        /* \"#utility.yul\":8951:8981   */\n      gt\n        /* \"#utility.yul\":8948:9065   */\n      iszero\n      tag_242\n      jumpi\n        /* \"#utility.yul\":8984:9063   */\n      tag_243\n      tag_107\n      jump\t// in\n    tag_243:\n        /* \"#utility.yul\":8948:9065   */\n    tag_242:\n        /* \"#utility.yul\":9089:9152   */\n      tag_244\n        /* \"#utility.yul\":9144:9151   */\n      dup10\n        /* \"#utility.yul\":9135:9141   */\n      dup3\n        /* \"#utility.yul\":9124:9133   */\n      dup11\n        /* \"#utility.yul\":9120:9142   */\n      add\n        /* \"#utility.yul\":9089:9152   */\n      tag_117\n      jump\t// in\n    tag_244:\n        /* \"#utility.yul\":9079:9152   */\n      swap3\n      pop\n        /* \"#utility.yul\":8873:9162   */\n      pop\n        /* \"#utility.yul\":9201:9204   */\n      0xa0\n        /* \"#utility.yul\":9228:9281   */\n      tag_245\n        /* \"#utility.yul\":9273:9280   */\n      dup10\n        /* \"#utility.yul\":9264:9270   */\n      dup3\n        /* \"#utility.yul\":9253:9262   */\n      dup11\n        /* \"#utility.yul\":9249:9271   */\n      add\n        /* \"#utility.yul\":9228:9281   */\n      tag_127\n      jump\t// in\n    tag_245:\n        /* \"#utility.yul\":9218:9281   */\n      swap2\n      pop\n        /* \"#utility.yul\":9172:9291   */\n      pop\n        /* \"#utility.yul\":7521:9298   */\n      swap3\n      swap6\n      pop\n      swap3\n      swap6\n      pop\n      swap3\n      swap6\n      jump\t// out\n        /* \"#utility.yul\":9304:10935   */\n    tag_43:\n        /* \"#utility.yul\":9439:9445   */\n      0x00\n        /* \"#utility.yul\":9447:9453   */\n      dup1\n        /* \"#utility.yul\":9455:9461   */\n      0x00\n        /* \"#utility.yul\":9463:9469   */\n      dup1\n        /* \"#utility.yul\":9471:9477   */\n      0x00\n        /* \"#utility.yul\":9520:9523   */\n      0xa0\n        /* \"#utility.yul\":9508:9517   */\n      dup7\n        /* \"#utility.yul\":9499:9506   */\n      dup9\n        /* \"#utility.yul\":9495:9518   */\n      sub\n        /* \"#utility.yul\":9491:9524   */\n      slt\n        /* \"#utility.yul\":9488:9608   */\n      iszero\n      tag_247\n      jumpi\n        /* \"#utility.yul\":9527:9606   */\n      tag_248\n      tag_106\n      jump\t// in\n    tag_248:\n        /* \"#utility.yul\":9488:9608   */\n    tag_247:\n        /* \"#utility.yul\":9675:9676   */\n      0x00\n        /* \"#utility.yul\":9664:9673   */\n      dup7\n        /* \"#utility.yul\":9660:9677   */\n      add\n        /* \"#utility.yul\":9647:9678   */\n      calldataload\n        /* \"#utility.yul\":9705:9723   */\n      0xffffffffffffffff\n        /* \"#utility.yul\":9697:9703   */\n      dup2\n        /* \"#utility.yul\":9694:9724   */\n      gt\n        /* \"#utility.yul\":9691:9808   */\n      iszero\n      tag_249\n      jumpi\n        /* \"#utility.yul\":9727:9806   */\n      tag_250\n      tag_107\n      jump\t// in\n    tag_250:\n        /* \"#utility.yul\":9691:9808   */\n    tag_249:\n        /* \"#utility.yul\":9832:9895   */\n      tag_251\n        /* \"#utility.yul\":9887:9894   */\n      dup9\n        /* \"#utility.yul\":9878:9884   */\n      dup3\n        /* \"#utility.yul\":9867:9876   */\n      dup10\n        /* \"#utility.yul\":9863:9885   */\n      add\n        /* \"#utility.yul\":9832:9895   */\n      tag_117\n      jump\t// in\n    tag_251:\n        /* \"#utility.yul\":9822:9895   */\n      swap6\n      pop\n        /* \"#utility.yul\":9618:9905   */\n      pop\n        /* \"#utility.yul\":9972:9974   */\n      0x20\n        /* \"#utility.yul\":9961:9970   */\n      dup7\n        /* \"#utility.yul\":9957:9975   */\n      add\n        /* \"#utility.yul\":9944:9976   */\n      calldataload\n        /* \"#utility.yul\":10003:10021   */\n      0xffffffffffffffff\n        /* \"#utility.yul\":9995:10001   */\n      dup2\n        /* \"#utility.yul\":9992:10022   */\n      gt\n        /* \"#utility.yul\":9989:10106   */\n      iszero\n      tag_252\n      jumpi\n        /* \"#utility.yul\":10025:10104   */\n      tag_253\n      tag_107\n      jump\t// in\n    tag_253:\n        /* \"#utility.yul\":9989:10106   */\n    tag_252:\n        /* \"#utility.yul\":10130:10193   */\n      tag_254\n        /* \"#utility.yul\":10185:10192   */\n      dup9\n        /* \"#utility.yul\":10176:10182   */\n      dup3\n        /* \"#utility.yul\":10165:10174   */\n      dup10\n        /* \"#utility.yul\":10161:10183   */\n      add\n        /* \"#utility.yul\":10130:10193   */\n      tag_117\n      jump\t// in\n    tag_254:\n        /* \"#utility.yul\":10120:10193   */\n      swap5\n      pop\n        /* \"#utility.yul\":9915:10203   */\n      pop\n        /* \"#utility.yul\":10242:10244   */\n      0x40\n        /* \"#utility.yul\":10268:10321   */\n      tag_255\n        /* \"#utility.yul\":10313:10320   */\n      dup9\n        /* \"#utility.yul\":10304:10310   */\n      dup3\n        /* \"#utility.yul\":10293:10302   */\n      dup10\n        /* \"#utility.yul\":10289:10311   */\n      add\n        /* \"#utility.yul\":10268:10321   */\n      tag_120\n      jump\t// in\n    tag_255:\n        /* \"#utility.yul\":10258:10321   */\n      swap4\n      pop\n        /* \"#utility.yul\":10213:10331   */\n      pop\n        /* \"#utility.yul\":10398:10400   */\n      0x60\n        /* \"#utility.yul\":10387:10396   */\n      dup7\n        /* \"#utility.yul\":10383:10401   */\n      add\n        /* \"#utility.yul\":10370:10402   */\n      calldataload\n        /* \"#utility.yul\":10429:10447   */\n      0xffffffffffffffff\n        /* \"#utility.yul\":10421:10427   */\n      dup2\n        /* \"#utility.yul\":10418:10448   */\n      gt\n        /* \"#utility.yul\":10415:10532   */\n      iszero\n      tag_256\n      jumpi\n        /* \"#utility.yul\":10451:10530   */\n      tag_257\n      tag_107\n      jump\t// in\n    tag_257:\n        /* \"#utility.yul\":10415:10532   */\n    tag_256:\n        /* \"#utility.yul\":10556:10619   */\n      tag_258\n        /* \"#utility.yul\":10611:10618   */\n      dup9\n        /* \"#utility.yul\":10602:10608   */\n      dup3\n        /* \"#utility.yul\":10591:10600   */\n      dup10\n        /* \"#utility.yul\":10587:10609   */\n      add\n        /* \"#utility.yul\":10556:10619   */\n      tag_117\n      jump\t// in\n    tag_258:\n        /* \"#utility.yul\":10546:10619   */\n      swap3\n      pop\n        /* \"#utility.yul\":10341:10629   */\n      pop\n        /* \"#utility.yul\":10696:10699   */\n      0x80\n        /* \"#utility.yul\":10685:10694   */\n      dup7\n        /* \"#utility.yul\":10681:10700   */\n      add\n        /* \"#utility.yul\":10668:10701   */\n      calldataload\n        /* \"#utility.yul\":10728:10746   */\n      0xffffffffffffffff\n        /* \"#utility.yul\":10720:10726   */\n      dup2\n        /* \"#utility.yul\":10717:10747   */\n      gt\n        /* \"#utility.yul\":10714:10831   */\n      iszero\n      tag_259\n      jumpi\n        /* \"#utility.yul\":10750:10829   */\n      tag_260\n      tag_107\n      jump\t// in\n    tag_260:\n        /* \"#utility.yul\":10714:10831   */\n    tag_259:\n        /* \"#utility.yul\":10855:10918   */\n      tag_261\n        /* \"#utility.yul\":10910:10917   */\n      dup9\n        /* \"#utility.yul\":10901:10907   */\n      dup3\n        /* \"#utility.yul\":10890:10899   */\n      dup10\n        /* \"#utility.yul\":10886:10908   */\n      add\n        /* \"#utility.yul\":10855:10918   */\n      tag_117\n      jump\t// in\n    tag_261:\n        /* \"#utility.yul\":10845:10918   */\n      swap2\n      pop\n        /* \"#utility.yul\":10639:10928   */\n      pop\n        /* \"#utility.yul\":9304:10935   */\n      swap3\n      swap6\n      pop\n      swap3\n      swap6\n      swap1\n      swap4\n      pop\n      jump\t// out\n        /* \"#utility.yul\":10941:11040   */\n    tag_128:\n        /* \"#utility.yul\":10993:10999   */\n      0x00\n        /* \"#utility.yul\":11027:11032   */\n      dup2\n        /* \"#utility.yul\":11021:11033   */\n      mload\n        /* \"#utility.yul\":11011:11033   */\n      swap1\n      pop\n        /* \"#utility.yul\":10941:11040   */\n      swap2\n      swap1\n      pop\n      jump\t// out\n        /* \"#utility.yul\":11046:11194   */\n    tag_129:\n        /* \"#utility.yul\":11148:11159   */\n      0x00\n        /* \"#utility.yul\":11185:11188   */\n      dup2\n        /* \"#utility.yul\":11170:11188   */\n      swap1\n      pop\n        /* \"#utility.yul\":11046:11194   */\n      swap3\n      swap2\n      pop\n      pop\n      jump\t// out\n        /* \"#utility.yul\":11200:11339   */\n    tag_130:\n        /* \"#utility.yul\":11289:11295   */\n      dup3\n        /* \"#utility.yul\":11284:11287   */\n      dup2\n        /* \"#utility.yul\":11279:11282   */\n      dup4\n        /* \"#utility.yul\":11273:11296   */\n      mcopy\n        /* \"#utility.yul\":11330:11331   */\n      0x00\n        /* \"#utility.yul\":11321:11327   */\n      dup4\n        /* \"#utility.yul\":11316:11319   */\n      dup4\n        /* \"#utility.yul\":11312:11328   */\n      add\n        /* \"#utility.yul\":11305:11332   */\n      mstore\n        /* \"#utility.yul\":11200:11339   */\n      pop\n      pop\n      pop\n      jump\t// out\n        /* \"#utility.yul\":11345:11735   */\n    tag_131:\n        /* \"#utility.yul\":11451:11454   */\n      0x00\n        /* \"#utility.yul\":11479:11518   */\n      tag_266\n        /* \"#utility.yul\":11512:11517   */\n      dup3\n        /* \"#utility.yul\":11479:11518   */\n      tag_128\n      jump\t// in\n    tag_266:\n        /* \"#utility.yul\":11534:11623   */\n      tag_267\n        /* \"#utility.yul\":11616:11622   */\n      dup2\n        /* \"#utility.yul\":11611:11614   */\n      dup6\n        /* \"#utility.yul\":11534:11623   */\n      tag_129\n      jump\t// in\n    tag_267:\n        /* \"#utility.yul\":11527:11623   */\n      swap4\n      pop\n        /* \"#utility.yul\":11632:11697   */\n      tag_268\n        /* \"#utility.yul\":11690:11696   */\n      dup2\n        /* \"#utility.yul\":11685:11688   */\n      dup6\n        /* \"#utility.yul\":11678:11682   */\n      0x20\n        /* \"#utility.yul\":11671:11676   */\n      dup7\n        /* \"#utility.yul\":11667:11683   */\n      add\n        /* \"#utility.yul\":11632:11697   */\n      tag_130\n      jump\t// in\n    tag_268:\n        /* \"#utility.yul\":11722:11728   */\n      dup1\n        /* \"#utility.yul\":11717:11720   */\n      dup5\n        /* \"#utility.yul\":11713:11729   */\n      add\n        /* \"#utility.yul\":11706:11729   */\n      swap2\n      pop\n        /* \"#utility.yul\":11455:11735   */\n      pop\n        /* \"#utility.yul\":11345:11735   */\n      swap3\n      swap2\n      pop\n      pop\n      jump\t// out\n        /* \"#utility.yul\":11741:12016   */\n    tag_47:\n        /* \"#utility.yul\":11873:11876   */\n      0x00\n        /* \"#utility.yul\":11895:11990   */\n      tag_270\n        /* \"#utility.yul\":11986:11989   */\n      dup3\n        /* \"#utility.yul\":11977:11983   */\n      dup5\n        /* \"#utility.yul\":11895:11990   */\n      tag_131\n      jump\t// in\n    tag_270:\n        /* \"#utility.yul\":11888:11990   */\n      swap2\n      pop\n        /* \"#utility.yul\":12007:12010   */\n      dup2\n        /* \"#utility.yul\":12000:12010   */\n      swap1\n      pop\n        /* \"#utility.yul\":11741:12016   */\n      swap3\n      swap2\n      pop\n      pop\n      jump\t// out\n        /* \"#utility.yul\":12022:12191   */\n    tag_132:\n        /* \"#utility.yul\":12106:12117   */\n      0x00\n        /* \"#utility.yul\":12140:12146   */\n      dup3\n        /* \"#utility.yul\":12135:12138   */\n      dup3\n        /* \"#utility.yul\":12128:12147   */\n      mstore\n        /* \"#utility.yul\":12180:12184   */\n      0x20\n        /* \"#utility.yul\":12175:12178   */\n      dup3\n        /* \"#utility.yul\":12171:12185   */\n      add\n        /* \"#utility.yul\":12156:12185   */\n      swap1\n      pop\n        /* \"#utility.yul\":12022:12191   */\n      swap3\n      swap2\n      pop\n      pop\n      jump\t// out\n        /* \"#utility.yul\":12197:12365   */\n    tag_133:\n        /* \"#utility.yul\":12337:12357   */\n      0x6e6f7420656e6f7567682062616c616e63650000000000000000000000000000\n        /* \"#utility.yul\":12333:12334   */\n      0x00\n        /* \"#utility.yul\":12325:12331   */\n      dup3\n        /* \"#utility.yul\":12321:12335   */\n      add\n        /* \"#utility.yul\":12314:12358   */\n      mstore\n        /* \"#utility.yul\":12197:12365   */\n      pop\n      jump\t// out\n        /* \"#utility.yul\":12371:12737   */\n    tag_134:\n        /* \"#utility.yul\":12513:12516   */\n      0x00\n        /* \"#utility.yul\":12534:12601   */\n      tag_274\n        /* \"#utility.yul\":12598:12600   */\n      0x12\n        /* \"#utility.yul\":12593:12596   */\n      dup4\n        /* \"#utility.yul\":12534:12601   */\n      tag_132\n      jump\t// in\n    tag_274:\n        /* \"#utility.yul\":12527:12601   */\n      swap2\n      pop\n        /* \"#utility.yul\":12610:12703   */\n      tag_275\n        /* \"#utility.yul\":12699:12702   */\n      dup3\n        /* \"#utility.yul\":12610:12703   */\n      tag_133\n      jump\t// in\n    tag_275:\n        /* \"#utility.yul\":12728:12730   */\n      0x20\n        /* \"#utility.yul\":12723:12726   */\n      dup3\n        /* \"#utility.yul\":12719:12731   */\n      add\n        /* \"#utility.yul\":12712:12731   */\n      swap1\n      pop\n        /* \"#utility.yul\":12371:12737   */\n      swap2\n      swap1\n      pop\n      jump\t// out\n        /* \"#utility.yul\":12743:13162   */\n    tag_50:\n        /* \"#utility.yul\":12909:12913   */\n      0x00\n        /* \"#utility.yul\":12947:12949   */\n      0x20\n        /* \"#utility.yul\":12936:12945   */\n      dup3\n        /* \"#utility.yul\":12932:12950   */\n      add\n        /* \"#utility.yul\":12924:12950   */\n      swap1\n      pop\n        /* \"#utility.yul\":12996:13005   */\n      dup2\n        /* \"#utility.yul\":12990:12994   */\n      dup2\n        /* \"#utility.yul\":12986:13006   */\n      sub\n        /* \"#utility.yul\":12982:12983   */\n      0x00\n        /* \"#utility.yul\":12971:12980   */\n      dup4\n        /* \"#utility.yul\":12967:12984   */\n      add\n        /* \"#utility.yul\":12960:13007   */\n      mstore\n        /* \"#utility.yul\":13024:13155   */\n      tag_277\n        /* \"#utility.yul\":13150:13154   */\n      dup2\n        /* \"#utility.yul\":13024:13155   */\n      tag_134\n      jump\t// in\n    tag_277:\n        /* \"#utility.yul\":13016:13155   */\n      swap1\n      pop\n        /* \"#utility.yul\":12743:13162   */\n      swap2\n      swap1\n      pop\n      jump\t// out\n        /* \"#utility.yul\":13168:13349   */\n    tag_135:\n        /* \"#utility.yul\":13308:13341   */\n      0x6e656564207369676e557020666f7220746869732062616e6b20666972737400\n        /* \"#utility.yul\":13304:13305   */\n      0x00\n        /* \"#utility.yul\":13296:13302   */\n      dup3\n        /* \"#utility.yul\":13292:13306   */\n      add\n        /* \"#utility.yul\":13285:13342   */\n      mstore\n        /* \"#utility.yul\":13168:13349   */\n      pop\n      jump\t// out\n        /* \"#utility.yul\":13355:13721   */\n    tag_136:\n        /* \"#utility.yul\":13497:13500   */\n      0x00\n        /* \"#utility.yul\":13518:13585   */\n      tag_280\n        /* \"#utility.yul\":13582:13584   */\n      0x1f\n        /* \"#utility.yul\":13577:13580   */\n      dup4\n        /* \"#utility.yul\":13518:13585   */\n      tag_132\n      jump\t// in\n    tag_280:\n        /* \"#utility.yul\":13511:13585   */\n      swap2\n      pop\n        /* \"#utility.yul\":13594:13687   */\n      tag_281\n        /* \"#utility.yul\":13683:13686   */\n      dup3\n        /* \"#utility.yul\":13594:13687   */\n      tag_135\n      jump\t// in\n    tag_281:\n        /* \"#utility.yul\":13712:13714   */\n      0x20\n        /* \"#utility.yul\":13707:13710   */\n      dup3\n        /* \"#utility.yul\":13703:13715   */\n      add\n        /* \"#utility.yul\":13696:13715   */\n      swap1\n      pop\n        /* \"#utility.yul\":13355:13721   */\n      swap2\n      swap1\n      pop\n      jump\t// out\n        /* \"#utility.yul\":13727:14146   */\n    tag_55:\n        /* \"#utility.yul\":13893:13897   */\n      0x00\n        /* \"#utility.yul\":13931:13933   */\n      0x20\n        /* \"#utility.yul\":13920:13929   */\n      dup3\n        /* \"#utility.yul\":13916:13934   */\n      add\n        /* \"#utility.yul\":13908:13934   */\n      swap1\n      pop\n        /* \"#utility.yul\":13980:13989   */\n      dup2\n        /* \"#utility.yul\":13974:13978   */\n      dup2\n        /* \"#utility.yul\":13970:13990   */\n      sub\n        /* \"#utility.yul\":13966:13967   */\n      0x00\n        /* \"#utility.yul\":13955:13964   */\n      dup4\n        /* \"#utility.yul\":13951:13968   */\n      add\n        /* \"#utility.yul\":13944:13991   */\n      mstore\n        /* \"#utility.yul\":14008:14139   */\n      tag_283\n        /* \"#utility.yul\":14134:14138   */\n      dup2\n        /* \"#utility.yul\":14008:14139   */\n      tag_136\n      jump\t// in\n    tag_283:\n        /* \"#utility.yul\":14000:14139   */\n      swap1\n      pop\n        /* \"#utility.yul\":13727:14146   */\n      swap2\n      swap1\n      pop\n      jump\t// out\n        /* \"#utility.yul\":14152:14587   */\n    tag_66:\n        /* \"#utility.yul\":14332:14335   */\n      0x00\n        /* \"#utility.yul\":14354:14449   */\n      tag_285\n        /* \"#utility.yul\":14445:14448   */\n      dup3\n        /* \"#utility.yul\":14436:14442   */\n      dup6\n        /* \"#utility.yul\":14354:14449   */\n      tag_131\n      jump\t// in\n    tag_285:\n        /* \"#utility.yul\":14347:14449   */\n      swap2\n      pop\n        /* \"#utility.yul\":14466:14561   */\n      tag_286\n        /* \"#utility.yul\":14557:14560   */\n      dup3\n        /* \"#utility.yul\":14548:14554   */\n      dup5\n        /* \"#utility.yul\":14466:14561   */\n      tag_131\n      jump\t// in\n    tag_286:\n        /* \"#utility.yul\":14459:14561   */\n      swap2\n      pop\n        /* \"#utility.yul\":14578:14581   */\n      dup2\n        /* \"#utility.yul\":14571:14581   */\n      swap1\n      pop\n        /* \"#utility.yul\":14152:14587   */\n      swap4\n      swap3\n      pop\n      pop\n      pop\n      jump\t// out\n        /* \"#utility.yul\":14593:14817   */\n    tag_137:\n        /* \"#utility.yul\":14733:14767   */\n      0x796f7520646f6e2774206861766520656e6f756768206d6f656e7920696e2062\n        /* \"#utility.yul\":14729:14730   */\n      0x00\n        /* \"#utility.yul\":14721:14727   */\n      dup3\n        /* \"#utility.yul\":14717:14731   */\n      add\n        /* \"#utility.yul\":14710:14768   */\n      mstore\n        /* \"#utility.yul\":14802:14809   */\n      0x616e6b2041000000000000000000000000000000000000000000000000000000\n        /* \"#utility.yul\":14797:14799   */\n      0x20\n        /* \"#utility.yul\":14789:14795   */\n      dup3\n        /* \"#utility.yul\":14785:14800   */\n      add\n        /* \"#utility.yul\":14778:14810   */\n      mstore\n        /* \"#utility.yul\":14593:14817   */\n      pop\n      jump\t// out\n        /* \"#utility.yul\":14823:15189   */\n    tag_138:\n        /* \"#utility.yul\":14965:14968   */\n      0x00\n        /* \"#utility.yul\":14986:15053   */\n      tag_289\n        /* \"#utility.yul\":15050:15052   */\n      0x25\n        /* \"#utility.yul\":15045:15048   */\n      dup4\n        /* \"#utility.yul\":14986:15053   */\n      tag_132\n      jump\t// in\n    tag_289:\n        /* \"#utility.yul\":14979:15053   */\n      swap2\n      pop\n        /* \"#utility.yul\":15062:15155   */\n      tag_290\n        /* \"#utility.yul\":15151:15154   */\n      dup3\n        /* \"#utility.yul\":15062:15155   */\n      tag_137\n      jump\t// in\n    tag_290:\n        /* \"#utility.yul\":15180:15182   */\n      0x40\n        /* \"#utility.yul\":15175:15178   */\n      dup3\n        /* \"#utility.yul\":15171:15183   */\n      add\n        /* \"#utility.yul\":15164:15183   */\n      swap1\n      pop\n        /* \"#utility.yul\":14823:15189   */\n      swap2\n      swap1\n      pop\n      jump\t// out\n        /* \"#utility.yul\":15195:15614   */\n    tag_78:\n        /* \"#utility.yul\":15361:15365   */\n      0x00\n        /* \"#utility.yul\":15399:15401   */\n      0x20\n        /* \"#utility.yul\":15388:15397   */\n      dup3\n        /* \"#utility.yul\":15384:15402   */\n      add\n        /* \"#utility.yul\":15376:15402   */\n      swap1\n      pop\n        /* \"#utility.yul\":15448:15457   */\n      dup2\n        /* \"#utility.yul\":15442:15446   */\n      dup2\n        /* \"#utility.yul\":15438:15458   */\n      sub\n        /* \"#utility.yul\":15434:15435   */\n      0x00\n        /* \"#utility.yul\":15423:15432   */\n      dup4\n        /* \"#utility.yul\":15419:15436   */\n      add\n        /* \"#utility.yul\":15412:15459   */\n      mstore\n        /* \"#utility.yul\":15476:15607   */\n      tag_292\n        /* \"#utility.yul\":15602:15606   */\n      dup2\n        /* \"#utility.yul\":15476:15607   */\n      tag_138\n      jump\t// in\n    tag_292:\n        /* \"#utility.yul\":15468:15607   */\n      swap1\n      pop\n        /* \"#utility.yul\":15195:15614   */\n      swap2\n      swap1\n      pop\n      jump\t// out\n        /* \"#utility.yul\":15620:15801   */\n    tag_139:\n        /* \"#utility.yul\":15760:15793   */\n      0x74686973207573657220646f6e277420657869737420696e2062616e6b204200\n        /* \"#utility.yul\":15756:15757   */\n      0x00\n        /* \"#utility.yul\":15748:15754   */\n      dup3\n        /* \"#utility.yul\":15744:15758   */\n      add\n        /* \"#utility.yul\":15737:15794   */\n      mstore\n        /* \"#utility.yul\":15620:15801   */\n      pop\n      jump\t// out\n        /* \"#utility.yul\":15807:16173   */\n    tag_140:\n        /* \"#utility.yul\":15949:15952   */\n      0x00\n        /* \"#utility.yul\":15970:16037   */\n      tag_295\n        /* \"#utility.yul\":16034:16036   */\n      0x1f\n        /* \"#utility.yul\":16029:16032   */\n      dup4\n        /* \"#utility.yul\":15970:16037   */\n      tag_132\n      jump\t// in\n    tag_295:\n        /* \"#utility.yul\":15963:16037   */\n      swap2\n      pop\n        /* \"#utility.yul\":16046:16139   */\n      tag_296\n        /* \"#utility.yul\":16135:16138   */\n      dup3\n        /* \"#utility.yul\":16046:16139   */\n      tag_139\n      jump\t// in\n    tag_296:\n        /* \"#utility.yul\":16164:16166   */\n      0x20\n        /* \"#utility.yul\":16159:16162   */\n      dup3\n        /* \"#utility.yul\":16155:16167   */\n      add\n        /* \"#utility.yul\":16148:16167   */\n      swap1\n      pop\n        /* \"#utility.yul\":15807:16173   */\n      swap2\n      swap1\n      pop\n      jump\t// out\n        /* \"#utility.yul\":16179:16598   */\n    tag_86:\n        /* \"#utility.yul\":16345:16349   */\n      0x00\n        /* \"#utility.yul\":16383:16385   */\n      0x20\n        /* \"#utility.yul\":16372:16381   */\n      dup3\n        /* \"#utility.yul\":16368:16386   */\n      add\n        /* \"#utility.yul\":16360:16386   */\n      swap1\n      pop\n        /* \"#utility.yul\":16432:16441   */\n      dup2\n        /* \"#utility.yul\":16426:16430   */\n      dup2\n        /* \"#utility.yul\":16422:16442   */\n      sub\n        /* \"#utility.yul\":16418:16419   */\n      0x00\n        /* \"#utility.yul\":16407:16416   */\n      dup4\n        /* \"#utility.yul\":16403:16420   */\n      add\n        /* \"#utility.yul\":16396:16443   */\n      mstore\n        /* \"#utility.yul\":16460:16591   */\n      tag_298\n        /* \"#utility.yul\":16586:16590   */\n      dup2\n        /* \"#utility.yul\":16460:16591   */\n      tag_140\n      jump\t// in\n    tag_298:\n        /* \"#utility.yul\":16452:16591   */\n      swap1\n      pop\n        /* \"#utility.yul\":16179:16598   */\n      swap2\n      swap1\n      pop\n      jump\t// out\n        /* \"#utility.yul\":16604:16784   */\n    tag_141:\n        /* \"#utility.yul\":16652:16729   */\n      0x4e487b7100000000000000000000000000000000000000000000000000000000\n        /* \"#utility.yul\":16649:16650   */\n      0x00\n        /* \"#utility.yul\":16642:16730   */\n      mstore\n        /* \"#utility.yul\":16749:16753   */\n      0x11\n        /* \"#utility.yul\":16746:16747   */\n      0x04\n        /* \"#utility.yul\":16739:16754   */\n      mstore\n        /* \"#utility.yul\":16773:16777   */\n      0x24\n        /* \"#utility.yul\":16770:16771   */\n      0x00\n        /* \"#utility.yul\":16763:16778   */\n      revert\n        /* \"#utility.yul\":16790:16981   */\n    tag_89:\n        /* \"#utility.yul\":16830:16833   */\n      0x00\n        /* \"#utility.yul\":16849:16869   */\n      tag_301\n        /* \"#utility.yul\":16867:16868   */\n      dup3\n        /* \"#utility.yul\":16849:16869   */\n      tag_118\n      jump\t// in\n    tag_301:\n        /* \"#utility.yul\":16844:16869   */\n      swap2\n      pop\n        /* \"#utility.yul\":16883:16903   */\n      tag_302\n        /* \"#utility.yul\":16901:16902   */\n      dup4\n        /* \"#utility.yul\":16883:16903   */\n      tag_118\n      jump\t// in\n    tag_302:\n        /* \"#utility.yul\":16878:16903   */\n      swap3\n      pop\n        /* \"#utility.yul\":16926:16927   */\n      dup3\n        /* \"#utility.yul\":16923:16924   */\n      dup3\n        /* \"#utility.yul\":16919:16928   */\n      add\n        /* \"#utility.yul\":16912:16928   */\n      swap1\n      pop\n        /* \"#utility.yul\":16947:16950   */\n      dup1\n        /* \"#utility.yul\":16944:16945   */\n      dup3\n        /* \"#utility.yul\":16941:16951   */\n      gt\n        /* \"#utility.yul\":16938:16974   */\n      iszero\n      tag_303\n      jumpi\n        /* \"#utility.yul\":16954:16972   */\n      tag_304\n      tag_141\n      jump\t// in\n    tag_304:\n        /* \"#utility.yul\":16938:16974   */\n    tag_303:\n        /* \"#utility.yul\":16790:16981   */\n      swap3\n      swap2\n      pop\n      pop\n      jump\t// out\n        /* \"#utility.yul\":16987:17181   */\n    tag_92:\n        /* \"#utility.yul\":17027:17031   */\n      0x00\n        /* \"#utility.yul\":17047:17067   */\n      tag_306\n        /* \"#utility.yul\":17065:17066   */\n      dup3\n        /* \"#utility.yul\":17047:17067   */\n      tag_118\n      jump\t// in\n    tag_306:\n        /* \"#utility.yul\":17042:17067   */\n      swap2\n      pop\n        /* \"#utility.yul\":17081:17101   */\n      tag_307\n        /* \"#utility.yul\":17099:17100   */\n      dup4\n        /* \"#utility.yul\":17081:17101   */\n      tag_118\n      jump\t// in\n    tag_307:\n        /* \"#utility.yul\":17076:17101   */\n      swap3\n      pop\n        /* \"#utility.yul\":17125:17126   */\n      dup3\n        /* \"#utility.yul\":17122:17123   */\n      dup3\n        /* \"#utility.yul\":17118:17127   */\n      sub\n        /* \"#utility.yul\":17110:17127   */\n      swap1\n      pop\n        /* \"#utility.yul\":17149:17150   */\n      dup2\n        /* \"#utility.yul\":17143:17147   */\n      dup2\n        /* \"#utility.yul\":17140:17151   */\n      gt\n        /* \"#utility.yul\":17137:17174   */\n      iszero\n      tag_308\n      jumpi\n        /* \"#utility.yul\":17154:17172   */\n      tag_309\n      tag_141\n      jump\t// in\n    tag_309:\n        /* \"#utility.yul\":17137:17174   */\n    tag_308:\n        /* \"#utility.yul\":16987:17181   */\n      swap3\n      swap2\n      pop\n      pop\n      jump\t// out\n\n    auxdata: 0xa2646970667358221220e14fa5e6145f28d8c356516525365a6d3a1069456df0a8d8bce885226019455264736f6c63430008190033\n}\n",
				"bytecode": {
					"linkReferences": {},
					"object": "6080604052348015600e575f80fd5b506112768061001c5f395ff3fe60806040526004361061006f575f3560e01c806367edb25c1161004d57806367edb25c146100e75780636b17b27414610123578063c88df3d21461014b578063f09a1dca146101735761006f565b8063140a6e5414610073578063416c2b191461008f57806365dffaa3146100ab575b5f80fd5b61008d60048036038101906100889190610ae7565b61019b565b005b6100a960048036038101906100a49190610b9f565b6102f7565b005b3480156100b6575f80fd5b506100d160048036038101906100cc9190610c43565b6103d1565b6040516100de9190610cd1565b60405180910390f35b3480156100f2575f80fd5b5061010d60048036038101906101089190610b9f565b610403565b60405161011a9190610cf9565b60405180910390f35b34801561012e575f80fd5b5061014960048036038101906101449190610b9f565b610444565b005b348015610156575f80fd5b50610171600480360381019061016c9190610d6c565b6104e2565b005b34801561017e575f80fd5b5061019960048036038101906101949190610e65565b610772565b005b825f803373ffffffffffffffffffffffffffffffffffffffff1673ffffffffffffffffffffffffffffffffffffffff1681526020019081526020015f20856040516101e69190610f9e565b90815260200160405180910390205411610235576040517f08c379a000000000000000000000000000000000000000000000000000000000815260040161022c9061100e565b60405180910390fd5b600180856040516102469190610f9e565b90815260200160405180910390205f61025f85856103d1565b81526020019081526020015f2054146102ad576040517f08c379a00000000000000000000000000000000000000000000000000000000081526004016102a490611076565b60405180910390fd5b3373ffffffffffffffffffffffffffffffffffffffff166108fc8490811502906040515f60405180830381858888f193505050501580156102f0573d5f803e3d5ffd5b5050505050565b600180846040516103089190610f9e565b90815260200160405180910390205f61032185856103d1565b81526020019081526020015f20541461036f576040517f08c379a000000000000000000000000000000000000000000000000000000000815260040161036690611076565b60405180910390fd5b345f803373ffffffffffffffffffffffffffffffffffffffff1673ffffffffffffffffffffffffffffffffffffffff1681526020019081526020015f20846040516103ba9190610f9e565b908152602001604051809103902081905550505050565b5f82826040516020016103e5929190611094565b60405160208183030381529060405280519060200120905092915050565b5f6001846040516104149190610f9e565b90815260200160405180910390205f61042d85856103d1565b81526020019081526020015f205490509392505050565b60015f803373ffffffffffffffffffffffffffffffffffffffff1673ffffffffffffffffffffffffffffffffffffffff1681526020019081526020015f20846040516104909190610f9e565b908152602001604051809103902081905550600180846040516104b39190610f9e565b90815260200160405180910390205f6104cc85856103d1565b81526020019081526020015f2081905550505050565b835f803373ffffffffffffffffffffffffffffffffffffffff1673ffffffffffffffffffffffffffffffffffffffff1681526020019081526020015f208760405161052d9190610f9e565b9081526020016040518091039020541161057c576040517f08c379a000000000000000000000000000000000000000000000000000000000815260040161057390611127565b60405180910390fd5b6001808760405161058d9190610f9e565b90815260200160405180910390205f6105a686866103d1565b81526020019081526020015f2054146105f4576040517f08c379a00000000000000000000000000000000000000000000000000000000081526004016105eb90611076565b60405180910390fd5b5f805f8373ffffffffffffffffffffffffffffffffffffffff1673ffffffffffffffffffffffffffffffffffffffff1681526020019081526020015f208660405161063f9190610f9e565b9081526020016040518091039020540361068e576040517f08c379a00000000000000000000000000000000000000000000000000000000081526004016106859061118f565b60405180910390fd5b835f808373ffffffffffffffffffffffffffffffffffffffff1673ffffffffffffffffffffffffffffffffffffffff1681526020019081526020015f20866040516106d99190610f9e565b90815260200160405180910390205f8282546106f591906111da565b92505081905550835f803373ffffffffffffffffffffffffffffffffffffffff1673ffffffffffffffffffffffffffffffffffffffff1681526020019081526020015f20876040516107479190610f9e565b90815260200160405180910390205f828254610763919061120d565b92505081905550505050505050565b825f803373ffffffffffffffffffffffffffffffffffffffff1673ffffffffffffffffffffffffffffffffffffffff1681526020019081526020015f20866040516107bd9190610f9e565b9081526020016040518091039020541161080c576040517f08c379a000000000000000000000000000000000000000000000000000000000815260040161080390611127565b60405180910390fd5b6001808660405161081d9190610f9e565b90815260200160405180910390205f61083685856103d1565b81526020019081526020015f205414610884576040517f08c379a000000000000000000000000000000000000000000000000000000000815260040161087b90611076565b60405180910390fd5b825f803373ffffffffffffffffffffffffffffffffffffffff1673ffffffffffffffffffffffffffffffffffffffff1681526020019081526020015f20856040516108cf9190610f9e565b90815260200160405180910390205f8282546108eb91906111da565b92505081905550825f803373ffffffffffffffffffffffffffffffffffffffff1673ffffffffffffffffffffffffffffffffffffffff1681526020019081526020015f208660405161093d9190610f9e565b90815260200160405180910390205f828254610959919061120d565b925050819055505050505050565b5f604051905090565b5f80fd5b5f80fd5b5f80fd5b5f80fd5b5f601f19601f8301169050919050565b7f4e487b71000000000000000000000000000000000000000000000000000000005f52604160045260245ffd5b6109c682610980565b810181811067ffffffffffffffff821117156109e5576109e4610990565b5b80604052505050565b5f6109f7610967565b9050610a0382826109bd565b919050565b5f67ffffffffffffffff821115610a2257610a21610990565b5b610a2b82610980565b9050602081019050919050565b828183375f83830152505050565b5f610a58610a5384610a08565b6109ee565b905082815260208101848484011115610a7457610a7361097c565b5b610a7f848285610a38565b509392505050565b5f82601f830112610a9b57610a9a610978565b5b8135610aab848260208601610a46565b91505092915050565b5f819050919050565b610ac681610ab4565b8114610ad0575f80fd5b50565b5f81359050610ae181610abd565b92915050565b5f805f8060808587031215610aff57610afe610970565b5b5f85013567ffffffffffffffff811115610b1c57610b1b610974565b5b610b2887828801610a87565b9450506020610b3987828801610ad3565b935050604085013567ffffffffffffffff811115610b5a57610b59610974565b5b610b6687828801610a87565b925050606085013567ffffffffffffffff811115610b8757610b86610974565b5b610b9387828801610a87565b91505092959194509250565b5f805f60608486031215610bb657610bb5610970565b5b5f84013567ffffffffffffffff811115610bd357610bd2610974565b5b610bdf86828701610a87565b935050602084013567ffffffffffffffff811115610c0057610bff610974565b5b610c0c86828701610a87565b925050604084013567ffffffffffffffff811115610c2d57610c2c610974565b5b610c3986828701610a87565b9150509250925092565b5f8060408385031215610c5957610c58610970565b5b5f83013567ffffffffffffffff811115610c7657610c75610974565b5b610c8285828601610a87565b925050602083013567ffffffffffffffff811115610ca357610ca2610974565b5b610caf85828601610a87565b9150509250929050565b5f819050919050565b610ccb81610cb9565b82525050565b5f602082019050610ce45f830184610cc2565b92915050565b610cf381610ab4565b82525050565b5f602082019050610d0c5f830184610cea565b92915050565b5f73ffffffffffffffffffffffffffffffffffffffff82169050919050565b5f610d3b82610d12565b9050919050565b610d4b81610d31565b8114610d55575f80fd5b50565b5f81359050610d6681610d42565b92915050565b5f805f805f8060c08789031215610d8657610d85610970565b5b5f87013567ffffffffffffffff811115610da357610da2610974565b5b610daf89828a01610a87565b965050602087013567ffffffffffffffff811115610dd057610dcf610974565b5b610ddc89828a01610a87565b9550506040610ded89828a01610ad3565b945050606087013567ffffffffffffffff811115610e0e57610e0d610974565b5b610e1a89828a01610a87565b935050608087013567ffffffffffffffff811115610e3b57610e3a610974565b5b610e4789828a01610a87565b92505060a0610e5889828a01610d58565b9150509295509295509295565b5f805f805f60a08688031215610e7e57610e7d610970565b5b5f86013567ffffffffffffffff811115610e9b57610e9a610974565b5b610ea788828901610a87565b955050602086013567ffffffffffffffff811115610ec857610ec7610974565b5b610ed488828901610a87565b9450506040610ee588828901610ad3565b935050606086013567ffffffffffffffff811115610f0657610f05610974565b5b610f1288828901610a87565b925050608086013567ffffffffffffffff811115610f3357610f32610974565b5b610f3f88828901610a87565b9150509295509295909350565b5f81519050919050565b5f81905092915050565b8281835e5f83830152505050565b5f610f7882610f4c565b610f828185610f56565b9350610f92818560208601610f60565b80840191505092915050565b5f610fa98284610f6e565b915081905092915050565b5f82825260208201905092915050565b7f6e6f7420656e6f7567682062616c616e636500000000000000000000000000005f82015250565b5f610ff8601283610fb4565b915061100382610fc4565b602082019050919050565b5f6020820190508181035f83015261102581610fec565b9050919050565b7f6e656564207369676e557020666f7220746869732062616e6b206669727374005f82015250565b5f611060601f83610fb4565b915061106b8261102c565b602082019050919050565b5f6020820190508181035f83015261108d81611054565b9050919050565b5f61109f8285610f6e565b91506110ab8284610f6e565b91508190509392505050565b7f796f7520646f6e2774206861766520656e6f756768206d6f656e7920696e20625f8201527f616e6b2041000000000000000000000000000000000000000000000000000000602082015250565b5f611111602583610fb4565b915061111c826110b7565b604082019050919050565b5f6020820190508181035f83015261113e81611105565b9050919050565b7f74686973207573657220646f6e277420657869737420696e2062616e6b2042005f82015250565b5f611179601f83610fb4565b915061118482611145565b602082019050919050565b5f6020820190508181035f8301526111a68161116d565b9050919050565b7f4e487b71000000000000000000000000000000000000000000000000000000005f52601160045260245ffd5b5f6111e482610ab4565b91506111ef83610ab4565b9250828201905080821115611207576112066111ad565b5b92915050565b5f61121782610ab4565b915061122283610ab4565b925082820390508181111561123a576112396111ad565b5b9291505056fea2646970667358221220e14fa5e6145f28d8c356516525365a6d3a1069456df0a8d8bce885226019455264736f6c63430008190033",
					"opcodes": "PUSH1 0x80 PUSH1 0x40 MSTORE CALLVALUE DUP1 ISZERO PUSH1 0xE JUMPI PUSH0 DUP1 REVERT JUMPDEST POP PUSH2 0x1276 DUP1 PUSH2 0x1C PUSH0 CODECOPY PUSH0 RETURN INVALID PUSH1 0x80 PUSH1 0x40 MSTORE PUSH1 0x4 CALLDATASIZE LT PUSH2 0x6F JUMPI PUSH0 CALLDATALOAD PUSH1 0xE0 SHR DUP1 PUSH4 0x67EDB25C GT PUSH2 0x4D JUMPI DUP1 PUSH4 0x67EDB25C EQ PUSH2 0xE7 JUMPI DUP1 PUSH4 0x6B17B274 EQ PUSH2 0x123 JUMPI DUP1 PUSH4 0xC88DF3D2 EQ PUSH2 0x14B JUMPI DUP1 PUSH4 0xF09A1DCA EQ PUSH2 0x173 JUMPI PUSH2 0x6F JUMP JUMPDEST DUP1 PUSH4 0x140A6E54 EQ PUSH2 0x73 JUMPI DUP1 PUSH4 0x416C2B19 EQ PUSH2 0x8F JUMPI DUP1 PUSH4 0x65DFFAA3 EQ PUSH2 0xAB JUMPI JUMPDEST PUSH0 DUP1 REVERT JUMPDEST PUSH2 0x8D PUSH1 0x4 DUP1 CALLDATASIZE SUB DUP2 ADD SWAP1 PUSH2 0x88 SWAP2 SWAP1 PUSH2 0xAE7 JUMP JUMPDEST PUSH2 0x19B JUMP JUMPDEST STOP JUMPDEST PUSH2 0xA9 PUSH1 0x4 DUP1 CALLDATASIZE SUB DUP2 ADD SWAP1 PUSH2 0xA4 SWAP2 SWAP1 PUSH2 0xB9F JUMP JUMPDEST PUSH2 0x2F7 JUMP JUMPDEST STOP JUMPDEST CALLVALUE DUP1 ISZERO PUSH2 0xB6 JUMPI PUSH0 DUP1 REVERT JUMPDEST POP PUSH2 0xD1 PUSH1 0x4 DUP1 CALLDATASIZE SUB DUP2 ADD SWAP1 PUSH2 0xCC SWAP2 SWAP1 PUSH2 0xC43 JUMP JUMPDEST PUSH2 0x3D1 JUMP JUMPDEST PUSH1 0x40 MLOAD PUSH2 0xDE SWAP2 SWAP1 PUSH2 0xCD1 JUMP JUMPDEST PUSH1 0x40 MLOAD DUP1 SWAP2 SUB SWAP1 RETURN JUMPDEST CALLVALUE DUP1 ISZERO PUSH2 0xF2 JUMPI PUSH0 DUP1 REVERT JUMPDEST POP PUSH2 0x10D PUSH1 0x4 DUP1 CALLDATASIZE SUB DUP2 ADD SWAP1 PUSH2 0x108 SWAP2 SWAP1 PUSH2 0xB9F JUMP JUMPDEST PUSH2 0x403 JUMP JUMPDEST PUSH1 0x40 MLOAD PUSH2 0x11A SWAP2 SWAP1 PUSH2 0xCF9 JUMP JUMPDEST PUSH1 0x40 MLOAD DUP1 SWAP2 SUB SWAP1 RETURN JUMPDEST CALLVALUE DUP1 ISZERO PUSH2 0x12E JUMPI PUSH0 DUP1 REVERT JUMPDEST POP PUSH2 0x149 PUSH1 0x4 DUP1 CALLDATASIZE SUB DUP2 ADD SWAP1 PUSH2 0x144 SWAP2 SWAP1 PUSH2 0xB9F JUMP JUMPDEST PUSH2 0x444 JUMP JUMPDEST STOP JUMPDEST CALLVALUE DUP1 ISZERO PUSH2 0x156 JUMPI PUSH0 DUP1 REVERT JUMPDEST POP PUSH2 0x171 PUSH1 0x4 DUP1 CALLDATASIZE SUB DUP2 ADD SWAP1 PUSH2 0x16C SWAP2 SWAP1 PUSH2 0xD6C JUMP JUMPDEST PUSH2 0x4E2 JUMP JUMPDEST STOP JUMPDEST CALLVALUE DUP1 ISZERO PUSH2 0x17E JUMPI PUSH0 DUP1 REVERT JUMPDEST POP PUSH2 0x199 PUSH1 0x4 DUP1 CALLDATASIZE SUB DUP2 ADD SWAP1 PUSH2 0x194 SWAP2 SWAP1 PUSH2 0xE65 JUMP JUMPDEST PUSH2 0x772 JUMP JUMPDEST STOP JUMPDEST DUP3 PUSH0 DUP1 CALLER PUSH20 0xFFFFFFFFFFFFFFFFFFFFFFFFFFFFFFFFFFFFFFFF AND PUSH20 0xFFFFFFFFFFFFFFFFFFFFFFFFFFFFFFFFFFFFFFFF AND DUP2 MSTORE PUSH1 0x20 ADD SWAP1 DUP2 MSTORE PUSH1 0x20 ADD PUSH0 KECCAK256 DUP6 PUSH1 0x40 MLOAD PUSH2 0x1E6 SWAP2 SWAP1 PUSH2 0xF9E JUMP JUMPDEST SWAP1 DUP2 MSTORE PUSH1 0x20 ADD PUSH1 0x40 MLOAD DUP1 SWAP2 SUB SWAP1 KECCAK256 SLOAD GT PUSH2 0x235 JUMPI PUSH1 0x40 MLOAD PUSH32 0x8C379A000000000000000000000000000000000000000000000000000000000 DUP2 MSTORE PUSH1 0x4 ADD PUSH2 0x22C SWAP1 PUSH2 0x100E JUMP JUMPDEST PUSH1 0x40 MLOAD DUP1 SWAP2 SUB SWAP1 REVERT JUMPDEST PUSH1 0x1 DUP1 DUP6 PUSH1 0x40 MLOAD PUSH2 0x246 SWAP2 SWAP1 PUSH2 0xF9E JUMP JUMPDEST SWAP1 DUP2 MSTORE PUSH1 0x20 ADD PUSH1 0x40 MLOAD DUP1 SWAP2 SUB SWAP1 KECCAK256 PUSH0 PUSH2 0x25F DUP6 DUP6 PUSH2 0x3D1 JUMP JUMPDEST DUP2 MSTORE PUSH1 0x20 ADD SWAP1 DUP2 MSTORE PUSH1 0x20 ADD PUSH0 KECCAK256 SLOAD EQ PUSH2 0x2AD JUMPI PUSH1 0x40 MLOAD PUSH32 0x8C379A000000000000000000000000000000000000000000000000000000000 DUP2 MSTORE PUSH1 0x4 ADD PUSH2 0x2A4 SWAP1 PUSH2 0x1076 JUMP JUMPDEST PUSH1 0x40 MLOAD DUP1 SWAP2 SUB SWAP1 REVERT JUMPDEST CALLER PUSH20 0xFFFFFFFFFFFFFFFFFFFFFFFFFFFFFFFFFFFFFFFF AND PUSH2 0x8FC DUP5 SWAP1 DUP2 ISZERO MUL SWAP1 PUSH1 0x40 MLOAD PUSH0 PUSH1 0x40 MLOAD DUP1 DUP4 SUB DUP2 DUP6 DUP9 DUP9 CALL SWAP4 POP POP POP POP ISZERO DUP1 ISZERO PUSH2 0x2F0 JUMPI RETURNDATASIZE PUSH0 DUP1 RETURNDATACOPY RETURNDATASIZE PUSH0 REVERT JUMPDEST POP POP POP POP POP JUMP JUMPDEST PUSH1 0x1 DUP1 DUP5 PUSH1 0x40 MLOAD PUSH2 0x308 SWAP2 SWAP1 PUSH2 0xF9E JUMP JUMPDEST SWAP1 DUP2 MSTORE PUSH1 0x20 ADD PUSH1 0x40 MLOAD DUP1 SWAP2 SUB SWAP1 KECCAK256 PUSH0 PUSH2 0x321 DUP6 DUP6 PUSH2 0x3D1 JUMP JUMPDEST DUP2 MSTORE PUSH1 0x20 ADD SWAP1 DUP2 MSTORE PUSH1 0x20 ADD PUSH0 KECCAK256 SLOAD EQ PUSH2 0x36F JUMPI PUSH1 0x40 MLOAD PUSH32 0x8C379A000000000000000000000000000000000000000000000000000000000 DUP2 MSTORE PUSH1 0x4 ADD PUSH2 0x366 SWAP1 PUSH2 0x1076 JUMP JUMPDEST PUSH1 0x40 MLOAD DUP1 SWAP2 SUB SWAP1 REVERT JUMPDEST CALLVALUE PUSH0 DUP1 CALLER PUSH20 0xFFFFFFFFFFFFFFFFFFFFFFFFFFFFFFFFFFFFFFFF AND PUSH20 0xFFFFFFFFFFFFFFFFFFFFFFFFFFFFFFFFFFFFFFFF AND DUP2 MSTORE PUSH1 0x20 ADD SWAP1 DUP2 MSTORE PUSH1 0x20 ADD PUSH0 KECCAK256 DUP5 PUSH1 0x40 MLOAD PUSH2 0x3BA SWAP2 SWAP1 PUSH2 0xF9E JUMP JUMPDEST SWAP1 DUP2 MSTORE PUSH1 0x20 ADD PUSH1 0x40 MLOAD DUP1 SWAP2 SUB SWAP1 KECCAK256 DUP2 SWAP1 SSTORE POP POP POP POP JUMP JUMPDEST PUSH0 DUP3 DUP3 PUSH1 0x40 MLOAD PUSH1 0x20 ADD PUSH2 0x3E5 SWAP3 SWAP2 SWAP1 PUSH2 0x1094 JUMP JUMPDEST PUSH1 0x40 MLOAD PUSH1 0x20 DUP2 DUP4 SUB SUB DUP2 MSTORE SWAP1 PUSH1 0x40 MSTORE DUP1 MLOAD SWAP1 PUSH1 0x20 ADD KECCAK256 SWAP1 POP SWAP3 SWAP2 POP POP JUMP JUMPDEST PUSH0 PUSH1 0x1 DUP5 PUSH1 0x40 MLOAD PUSH2 0x414 SWAP2 SWAP1 PUSH2 0xF9E JUMP JUMPDEST SWAP1 DUP2 MSTORE PUSH1 0x20 ADD PUSH1 0x40 MLOAD DUP1 SWAP2 SUB SWAP1 KECCAK256 PUSH0 PUSH2 0x42D DUP6 DUP6 PUSH2 0x3D1 JUMP JUMPDEST DUP2 MSTORE PUSH1 0x20 ADD SWAP1 DUP2 MSTORE PUSH1 0x20 ADD PUSH0 KECCAK256 SLOAD SWAP1 POP SWAP4 SWAP3 POP POP POP JUMP JUMPDEST PUSH1 0x1 PUSH0 DUP1 CALLER PUSH20 0xFFFFFFFFFFFFFFFFFFFFFFFFFFFFFFFFFFFFFFFF AND PUSH20 0xFFFFFFFFFFFFFFFFFFFFFFFFFFFFFFFFFFFFFFFF AND DUP2 MSTORE PUSH1 0x20 ADD SWAP1 DUP2 MSTORE PUSH1 0x20 ADD PUSH0 KECCAK256 DUP5 PUSH1 0x40 MLOAD PUSH2 0x490 SWAP2 SWAP1 PUSH2 0xF9E JUMP JUMPDEST SWAP1 DUP2 MSTORE PUSH1 0x20 ADD PUSH1 0x40 MLOAD DUP1 SWAP2 SUB SWAP1 KECCAK256 DUP2 SWAP1 SSTORE POP PUSH1 0x1 DUP1 DUP5 PUSH1 0x40 MLOAD PUSH2 0x4B3 SWAP2 SWAP1 PUSH2 0xF9E JUMP JUMPDEST SWAP1 DUP2 MSTORE PUSH1 0x20 ADD PUSH1 0x40 MLOAD DUP1 SWAP2 SUB SWAP1 KECCAK256 PUSH0 PUSH2 0x4CC DUP6 DUP6 PUSH2 0x3D1 JUMP JUMPDEST DUP2 MSTORE PUSH1 0x20 ADD SWAP1 DUP2 MSTORE PUSH1 0x20 ADD PUSH0 KECCAK256 DUP2 SWAP1 SSTORE POP POP POP POP JUMP JUMPDEST DUP4 PUSH0 DUP1 CALLER PUSH20 0xFFFFFFFFFFFFFFFFFFFFFFFFFFFFFFFFFFFFFFFF AND PUSH20 0xFFFFFFFFFFFFFFFFFFFFFFFFFFFFFFFFFFFFFFFF AND DUP2 MSTORE PUSH1 0x20 ADD SWAP1 DUP2 MSTORE PUSH1 0x20 ADD PUSH0 KECCAK256 DUP8 PUSH1 0x40 MLOAD PUSH2 0x52D SWAP2 SWAP1 PUSH2 0xF9E JUMP JUMPDEST SWAP1 DUP2 MSTORE PUSH1 0x20 ADD PUSH1 0x40 MLOAD DUP1 SWAP2 SUB SWAP1 KECCAK256 SLOAD GT PUSH2 0x57C JUMPI PUSH1 0x40 MLOAD PUSH32 0x8C379A000000000000000000000000000000000000000000000000000000000 DUP2 MSTORE PUSH1 0x4 ADD PUSH2 0x573 SWAP1 PUSH2 0x1127 JUMP JUMPDEST PUSH1 0x40 MLOAD DUP1 SWAP2 SUB SWAP1 REVERT JUMPDEST PUSH1 0x1 DUP1 DUP8 PUSH1 0x40 MLOAD PUSH2 0x58D SWAP2 SWAP1 PUSH2 0xF9E JUMP JUMPDEST SWAP1 DUP2 MSTORE PUSH1 0x20 ADD PUSH1 0x40 MLOAD DUP1 SWAP2 SUB SWAP1 KECCAK256 PUSH0 PUSH2 0x5A6 DUP7 DUP7 PUSH2 0x3D1 JUMP JUMPDEST DUP2 MSTORE PUSH1 0x20 ADD SWAP1 DUP2 MSTORE PUSH1 0x20 ADD PUSH0 KECCAK256 SLOAD EQ PUSH2 0x5F4 JUMPI PUSH1 0x40 MLOAD PUSH32 0x8C379A000000000000000000000000000000000000000000000000000000000 DUP2 MSTORE PUSH1 0x4 ADD PUSH2 0x5EB SWAP1 PUSH2 0x1076 JUMP JUMPDEST PUSH1 0x40 MLOAD DUP1 SWAP2 SUB SWAP1 REVERT JUMPDEST PUSH0 DUP1 PUSH0 DUP4 PUSH20 0xFFFFFFFFFFFFFFFFFFFFFFFFFFFFFFFFFFFFFFFF AND PUSH20 0xFFFFFFFFFFFFFFFFFFFFFFFFFFFFFFFFFFFFFFFF AND DUP2 MSTORE PUSH1 0x20 ADD SWAP1 DUP2 MSTORE PUSH1 0x20 ADD PUSH0 KECCAK256 DUP7 PUSH1 0x40 MLOAD PUSH2 0x63F SWAP2 SWAP1 PUSH2 0xF9E JUMP JUMPDEST SWAP1 DUP2 MSTORE PUSH1 0x20 ADD PUSH1 0x40 MLOAD DUP1 SWAP2 SUB SWAP1 KECCAK256 SLOAD SUB PUSH2 0x68E JUMPI PUSH1 0x40 MLOAD PUSH32 0x8C379A000000000000000000000000000000000000000000000000000000000 DUP2 MSTORE PUSH1 0x4 ADD PUSH2 0x685 SWAP1 PUSH2 0x118F JUMP JUMPDEST PUSH1 0x40 MLOAD DUP1 SWAP2 SUB SWAP1 REVERT JUMPDEST DUP4 PUSH0 DUP1 DUP4 PUSH20 0xFFFFFFFFFFFFFFFFFFFFFFFFFFFFFFFFFFFFFFFF AND PUSH20 0xFFFFFFFFFFFFFFFFFFFFFFFFFFFFFFFFFFFFFFFF AND DUP2 MSTORE PUSH1 0x20 ADD SWAP1 DUP2 MSTORE PUSH1 0x20 ADD PUSH0 KECCAK256 DUP7 PUSH1 0x40 MLOAD PUSH2 0x6D9 SWAP2 SWAP1 PUSH2 0xF9E JUMP JUMPDEST SWAP1 DUP2 MSTORE PUSH1 0x20 ADD PUSH1 0x40 MLOAD DUP1 SWAP2 SUB SWAP1 KECCAK256 PUSH0 DUP3 DUP3 SLOAD PUSH2 0x6F5 SWAP2 SWAP1 PUSH2 0x11DA JUMP JUMPDEST SWAP3 POP POP DUP2 SWAP1 SSTORE POP DUP4 PUSH0 DUP1 CALLER PUSH20 0xFFFFFFFFFFFFFFFFFFFFFFFFFFFFFFFFFFFFFFFF AND PUSH20 0xFFFFFFFFFFFFFFFFFFFFFFFFFFFFFFFFFFFFFFFF AND DUP2 MSTORE PUSH1 0x20 ADD SWAP1 DUP2 MSTORE PUSH1 0x20 ADD PUSH0 KECCAK256 DUP8 PUSH1 0x40 MLOAD PUSH2 0x747 SWAP2 SWAP1 PUSH2 0xF9E JUMP JUMPDEST SWAP1 DUP2 MSTORE PUSH1 0x20 ADD PUSH1 0x40 MLOAD DUP1 SWAP2 SUB SWAP1 KECCAK256 PUSH0 DUP3 DUP3 SLOAD PUSH2 0x763 SWAP2 SWAP1 PUSH2 0x120D JUMP JUMPDEST SWAP3 POP POP DUP2 SWAP1 SSTORE POP POP POP POP POP POP POP JUMP JUMPDEST DUP3 PUSH0 DUP1 CALLER PUSH20 0xFFFFFFFFFFFFFFFFFFFFFFFFFFFFFFFFFFFFFFFF AND PUSH20 0xFFFFFFFFFFFFFFFFFFFFFFFFFFFFFFFFFFFFFFFF AND DUP2 MSTORE PUSH1 0x20 ADD SWAP1 DUP2 MSTORE PUSH1 0x20 ADD PUSH0 KECCAK256 DUP7 PUSH1 0x40 MLOAD PUSH2 0x7BD SWAP2 SWAP1 PUSH2 0xF9E JUMP JUMPDEST SWAP1 DUP2 MSTORE PUSH1 0x20 ADD PUSH1 0x40 MLOAD DUP1 SWAP2 SUB SWAP1 KECCAK256 SLOAD GT PUSH2 0x80C JUMPI PUSH1 0x40 MLOAD PUSH32 0x8C379A000000000000000000000000000000000000000000000000000000000 DUP2 MSTORE PUSH1 0x4 ADD PUSH2 0x803 SWAP1 PUSH2 0x1127 JUMP JUMPDEST PUSH1 0x40 MLOAD DUP1 SWAP2 SUB SWAP1 REVERT JUMPDEST PUSH1 0x1 DUP1 DUP7 PUSH1 0x40 MLOAD PUSH2 0x81D SWAP2 SWAP1 PUSH2 0xF9E JUMP JUMPDEST SWAP1 DUP2 MSTORE PUSH1 0x20 ADD PUSH1 0x40 MLOAD DUP1 SWAP2 SUB SWAP1 KECCAK256 PUSH0 PUSH2 0x836 DUP6 DUP6 PUSH2 0x3D1 JUMP JUMPDEST DUP2 MSTORE PUSH1 0x20 ADD SWAP1 DUP2 MSTORE PUSH1 0x20 ADD PUSH0 KECCAK256 SLOAD EQ PUSH2 0x884 JUMPI PUSH1 0x40 MLOAD PUSH32 0x8C379A000000000000000000000000000000000000000000000000000000000 DUP2 MSTORE PUSH1 0x4 ADD PUSH2 0x87B SWAP1 PUSH2 0x1076 JUMP JUMPDEST PUSH1 0x40 MLOAD DUP1 SWAP2 SUB SWAP1 REVERT JUMPDEST DUP3 PUSH0 DUP1 CALLER PUSH20 0xFFFFFFFFFFFFFFFFFFFFFFFFFFFFFFFFFFFFFFFF AND PUSH20 0xFFFFFFFFFFFFFFFFFFFFFFFFFFFFFFFFFFFFFFFF AND DUP2 MSTORE PUSH1 0x20 ADD SWAP1 DUP2 MSTORE PUSH1 0x20 ADD PUSH0 KECCAK256 DUP6 PUSH1 0x40 MLOAD PUSH2 0x8CF SWAP2 SWAP1 PUSH2 0xF9E JUMP JUMPDEST SWAP1 DUP2 MSTORE PUSH1 0x20 ADD PUSH1 0x40 MLOAD DUP1 SWAP2 SUB SWAP1 KECCAK256 PUSH0 DUP3 DUP3 SLOAD PUSH2 0x8EB SWAP2 SWAP1 PUSH2 0x11DA JUMP JUMPDEST SWAP3 POP POP DUP2 SWAP1 SSTORE POP DUP3 PUSH0 DUP1 CALLER PUSH20 0xFFFFFFFFFFFFFFFFFFFFFFFFFFFFFFFFFFFFFFFF AND PUSH20 0xFFFFFFFFFFFFFFFFFFFFFFFFFFFFFFFFFFFFFFFF AND DUP2 MSTORE PUSH1 0x20 ADD SWAP1 DUP2 MSTORE PUSH1 0x20 ADD PUSH0 KECCAK256 DUP7 PUSH1 0x40 MLOAD PUSH2 0x93D SWAP2 SWAP1 PUSH2 0xF9E JUMP JUMPDEST SWAP1 DUP2 MSTORE PUSH1 0x20 ADD PUSH1 0x40 MLOAD DUP1 SWAP2 SUB SWAP1 KECCAK256 PUSH0 DUP3 DUP3 SLOAD PUSH2 0x959 SWAP2 SWAP1 PUSH2 0x120D JUMP JUMPDEST SWAP3 POP POP DUP2 SWAP1 SSTORE POP POP POP POP POP POP JUMP JUMPDEST PUSH0 PUSH1 0x40 MLOAD SWAP1 POP SWAP1 JUMP JUMPDEST PUSH0 DUP1 REVERT JUMPDEST PUSH0 DUP1 REVERT JUMPDEST PUSH0 DUP1 REVERT JUMPDEST PUSH0 DUP1 REVERT JUMPDEST PUSH0 PUSH1 0x1F NOT PUSH1 0x1F DUP4 ADD AND SWAP1 POP SWAP2 SWAP1 POP JUMP JUMPDEST PUSH32 0x4E487B7100000000000000000000000000000000000000000000000000000000 PUSH0 MSTORE PUSH1 0x41 PUSH1 0x4 MSTORE PUSH1 0x24 PUSH0 REVERT JUMPDEST PUSH2 0x9C6 DUP3 PUSH2 0x980 JUMP JUMPDEST DUP2 ADD DUP2 DUP2 LT PUSH8 0xFFFFFFFFFFFFFFFF DUP3 GT OR ISZERO PUSH2 0x9E5 JUMPI PUSH2 0x9E4 PUSH2 0x990 JUMP JUMPDEST JUMPDEST DUP1 PUSH1 0x40 MSTORE POP POP POP JUMP JUMPDEST PUSH0 PUSH2 0x9F7 PUSH2 0x967 JUMP JUMPDEST SWAP1 POP PUSH2 0xA03 DUP3 DUP3 PUSH2 0x9BD JUMP JUMPDEST SWAP2 SWAP1 POP JUMP JUMPDEST PUSH0 PUSH8 0xFFFFFFFFFFFFFFFF DUP3 GT ISZERO PUSH2 0xA22 JUMPI PUSH2 0xA21 PUSH2 0x990 JUMP JUMPDEST JUMPDEST PUSH2 0xA2B DUP3 PUSH2 0x980 JUMP JUMPDEST SWAP1 POP PUSH1 0x20 DUP2 ADD SWAP1 POP SWAP2 SWAP1 POP JUMP JUMPDEST DUP3 DUP2 DUP4 CALLDATACOPY PUSH0 DUP4 DUP4 ADD MSTORE POP POP POP JUMP JUMPDEST PUSH0 PUSH2 0xA58 PUSH2 0xA53 DUP5 PUSH2 0xA08 JUMP JUMPDEST PUSH2 0x9EE JUMP JUMPDEST SWAP1 POP DUP3 DUP2 MSTORE PUSH1 0x20 DUP2 ADD DUP5 DUP5 DUP5 ADD GT ISZERO PUSH2 0xA74 JUMPI PUSH2 0xA73 PUSH2 0x97C JUMP JUMPDEST JUMPDEST PUSH2 0xA7F DUP5 DUP3 DUP6 PUSH2 0xA38 JUMP JUMPDEST POP SWAP4 SWAP3 POP POP POP JUMP JUMPDEST PUSH0 DUP3 PUSH1 0x1F DUP4 ADD SLT PUSH2 0xA9B JUMPI PUSH2 0xA9A PUSH2 0x978 JUMP JUMPDEST JUMPDEST DUP2 CALLDATALOAD PUSH2 0xAAB DUP5 DUP3 PUSH1 0x20 DUP7 ADD PUSH2 0xA46 JUMP JUMPDEST SWAP2 POP POP SWAP3 SWAP2 POP POP JUMP JUMPDEST PUSH0 DUP2 SWAP1 POP SWAP2 SWAP1 POP JUMP JUMPDEST PUSH2 0xAC6 DUP2 PUSH2 0xAB4 JUMP JUMPDEST DUP2 EQ PUSH2 0xAD0 JUMPI PUSH0 DUP1 REVERT JUMPDEST POP JUMP JUMPDEST PUSH0 DUP2 CALLDATALOAD SWAP1 POP PUSH2 0xAE1 DUP2 PUSH2 0xABD JUMP JUMPDEST SWAP3 SWAP2 POP POP JUMP JUMPDEST PUSH0 DUP1 PUSH0 DUP1 PUSH1 0x80 DUP6 DUP8 SUB SLT ISZERO PUSH2 0xAFF JUMPI PUSH2 0xAFE PUSH2 0x970 JUMP JUMPDEST JUMPDEST PUSH0 DUP6 ADD CALLDATALOAD PUSH8 0xFFFFFFFFFFFFFFFF DUP2 GT ISZERO PUSH2 0xB1C JUMPI PUSH2 0xB1B PUSH2 0x974 JUMP JUMPDEST JUMPDEST PUSH2 0xB28 DUP8 DUP3 DUP9 ADD PUSH2 0xA87 JUMP JUMPDEST SWAP5 POP POP PUSH1 0x20 PUSH2 0xB39 DUP8 DUP3 DUP9 ADD PUSH2 0xAD3 JUMP JUMPDEST SWAP4 POP POP PUSH1 0x40 DUP6 ADD CALLDATALOAD PUSH8 0xFFFFFFFFFFFFFFFF DUP2 GT ISZERO PUSH2 0xB5A JUMPI PUSH2 0xB59 PUSH2 0x974 JUMP JUMPDEST JUMPDEST PUSH2 0xB66 DUP8 DUP3 DUP9 ADD PUSH2 0xA87 JUMP JUMPDEST SWAP3 POP POP PUSH1 0x60 DUP6 ADD CALLDATALOAD PUSH8 0xFFFFFFFFFFFFFFFF DUP2 GT ISZERO PUSH2 0xB87 JUMPI PUSH2 0xB86 PUSH2 0x974 JUMP JUMPDEST JUMPDEST PUSH2 0xB93 DUP8 DUP3 DUP9 ADD PUSH2 0xA87 JUMP JUMPDEST SWAP2 POP POP SWAP3 SWAP6 SWAP2 SWAP5 POP SWAP3 POP JUMP JUMPDEST PUSH0 DUP1 PUSH0 PUSH1 0x60 DUP5 DUP7 SUB SLT ISZERO PUSH2 0xBB6 JUMPI PUSH2 0xBB5 PUSH2 0x970 JUMP JUMPDEST JUMPDEST PUSH0 DUP5 ADD CALLDATALOAD PUSH8 0xFFFFFFFFFFFFFFFF DUP2 GT ISZERO PUSH2 0xBD3 JUMPI PUSH2 0xBD2 PUSH2 0x974 JUMP JUMPDEST JUMPDEST PUSH2 0xBDF DUP7 DUP3 DUP8 ADD PUSH2 0xA87 JUMP JUMPDEST SWAP4 POP POP PUSH1 0x20 DUP5 ADD CALLDATALOAD PUSH8 0xFFFFFFFFFFFFFFFF DUP2 GT ISZERO PUSH2 0xC00 JUMPI PUSH2 0xBFF PUSH2 0x974 JUMP JUMPDEST JUMPDEST PUSH2 0xC0C DUP7 DUP3 DUP8 ADD PUSH2 0xA87 JUMP JUMPDEST SWAP3 POP POP PUSH1 0x40 DUP5 ADD CALLDATALOAD PUSH8 0xFFFFFFFFFFFFFFFF DUP2 GT ISZERO PUSH2 0xC2D JUMPI PUSH2 0xC2C PUSH2 0x974 JUMP JUMPDEST JUMPDEST PUSH2 0xC39 DUP7 DUP3 DUP8 ADD PUSH2 0xA87 JUMP JUMPDEST SWAP2 POP POP SWAP3 POP SWAP3 POP SWAP3 JUMP JUMPDEST PUSH0 DUP1 PUSH1 0x40 DUP4 DUP6 SUB SLT ISZERO PUSH2 0xC59 JUMPI PUSH2 0xC58 PUSH2 0x970 JUMP JUMPDEST JUMPDEST PUSH0 DUP4 ADD CALLDATALOAD PUSH8 0xFFFFFFFFFFFFFFFF DUP2 GT ISZERO PUSH2 0xC76 JUMPI PUSH2 0xC75 PUSH2 0x974 JUMP JUMPDEST JUMPDEST PUSH2 0xC82 DUP6 DUP3 DUP7 ADD PUSH2 0xA87 JUMP JUMPDEST SWAP3 POP POP PUSH1 0x20 DUP4 ADD CALLDATALOAD PUSH8 0xFFFFFFFFFFFFFFFF DUP2 GT ISZERO PUSH2 0xCA3 JUMPI PUSH2 0xCA2 PUSH2 0x974 JUMP JUMPDEST JUMPDEST PUSH2 0xCAF DUP6 DUP3 DUP7 ADD PUSH2 0xA87 JUMP JUMPDEST SWAP2 POP POP SWAP3 POP SWAP3 SWAP1 POP JUMP JUMPDEST PUSH0 DUP2 SWAP1 POP SWAP2 SWAP1 POP JUMP JUMPDEST PUSH2 0xCCB DUP2 PUSH2 0xCB9 JUMP JUMPDEST DUP3 MSTORE POP POP JUMP JUMPDEST PUSH0 PUSH1 0x20 DUP3 ADD SWAP1 POP PUSH2 0xCE4 PUSH0 DUP4 ADD DUP5 PUSH2 0xCC2 JUMP JUMPDEST SWAP3 SWAP2 POP POP JUMP JUMPDEST PUSH2 0xCF3 DUP2 PUSH2 0xAB4 JUMP JUMPDEST DUP3 MSTORE POP POP JUMP JUMPDEST PUSH0 PUSH1 0x20 DUP3 ADD SWAP1 POP PUSH2 0xD0C PUSH0 DUP4 ADD DUP5 PUSH2 0xCEA JUMP JUMPDEST SWAP3 SWAP2 POP POP JUMP JUMPDEST PUSH0 PUSH20 0xFFFFFFFFFFFFFFFFFFFFFFFFFFFFFFFFFFFFFFFF DUP3 AND SWAP1 POP SWAP2 SWAP1 POP JUMP JUMPDEST PUSH0 PUSH2 0xD3B DUP3 PUSH2 0xD12 JUMP JUMPDEST SWAP1 POP SWAP2 SWAP1 POP JUMP JUMPDEST PUSH2 0xD4B DUP2 PUSH2 0xD31 JUMP JUMPDEST DUP2 EQ PUSH2 0xD55 JUMPI PUSH0 DUP1 REVERT JUMPDEST POP JUMP JUMPDEST PUSH0 DUP2 CALLDATALOAD SWAP1 POP PUSH2 0xD66 DUP2 PUSH2 0xD42 JUMP JUMPDEST SWAP3 SWAP2 POP POP JUMP JUMPDEST PUSH0 DUP1 PUSH0 DUP1 PUSH0 DUP1 PUSH1 0xC0 DUP8 DUP10 SUB SLT ISZERO PUSH2 0xD86 JUMPI PUSH2 0xD85 PUSH2 0x970 JUMP JUMPDEST JUMPDEST PUSH0 DUP8 ADD CALLDATALOAD PUSH8 0xFFFFFFFFFFFFFFFF DUP2 GT ISZERO PUSH2 0xDA3 JUMPI PUSH2 0xDA2 PUSH2 0x974 JUMP JUMPDEST JUMPDEST PUSH2 0xDAF DUP10 DUP3 DUP11 ADD PUSH2 0xA87 JUMP JUMPDEST SWAP7 POP POP PUSH1 0x20 DUP8 ADD CALLDATALOAD PUSH8 0xFFFFFFFFFFFFFFFF DUP2 GT ISZERO PUSH2 0xDD0 JUMPI PUSH2 0xDCF PUSH2 0x974 JUMP JUMPDEST JUMPDEST PUSH2 0xDDC DUP10 DUP3 DUP11 ADD PUSH2 0xA87 JUMP JUMPDEST SWAP6 POP POP PUSH1 0x40 PUSH2 0xDED DUP10 DUP3 DUP11 ADD PUSH2 0xAD3 JUMP JUMPDEST SWAP5 POP POP PUSH1 0x60 DUP8 ADD CALLDATALOAD PUSH8 0xFFFFFFFFFFFFFFFF DUP2 GT ISZERO PUSH2 0xE0E JUMPI PUSH2 0xE0D PUSH2 0x974 JUMP JUMPDEST JUMPDEST PUSH2 0xE1A DUP10 DUP3 DUP11 ADD PUSH2 0xA87 JUMP JUMPDEST SWAP4 POP POP PUSH1 0x80 DUP8 ADD CALLDATALOAD PUSH8 0xFFFFFFFFFFFFFFFF DUP2 GT ISZERO PUSH2 0xE3B JUMPI PUSH2 0xE3A PUSH2 0x974 JUMP JUMPDEST JUMPDEST PUSH2 0xE47 DUP10 DUP3 DUP11 ADD PUSH2 0xA87 JUMP JUMPDEST SWAP3 POP POP PUSH1 0xA0 PUSH2 0xE58 DUP10 DUP3 DUP11 ADD PUSH2 0xD58 JUMP JUMPDEST SWAP2 POP POP SWAP3 SWAP6 POP SWAP3 SWAP6 POP SWAP3 SWAP6 JUMP JUMPDEST PUSH0 DUP1 PUSH0 DUP1 PUSH0 PUSH1 0xA0 DUP7 DUP9 SUB SLT ISZERO PUSH2 0xE7E JUMPI PUSH2 0xE7D PUSH2 0x970 JUMP JUMPDEST JUMPDEST PUSH0 DUP7 ADD CALLDATALOAD PUSH8 0xFFFFFFFFFFFFFFFF DUP2 GT ISZERO PUSH2 0xE9B JUMPI PUSH2 0xE9A PUSH2 0x974 JUMP JUMPDEST JUMPDEST PUSH2 0xEA7 DUP9 DUP3 DUP10 ADD PUSH2 0xA87 JUMP JUMPDEST SWAP6 POP POP PUSH1 0x20 DUP7 ADD CALLDATALOAD PUSH8 0xFFFFFFFFFFFFFFFF DUP2 GT ISZERO PUSH2 0xEC8 JUMPI PUSH2 0xEC7 PUSH2 0x974 JUMP JUMPDEST JUMPDEST PUSH2 0xED4 DUP9 DUP3 DUP10 ADD PUSH2 0xA87 JUMP JUMPDEST SWAP5 POP POP PUSH1 0x40 PUSH2 0xEE5 DUP9 DUP3 DUP10 ADD PUSH2 0xAD3 JUMP JUMPDEST SWAP4 POP POP PUSH1 0x60 DUP7 ADD CALLDATALOAD PUSH8 0xFFFFFFFFFFFFFFFF DUP2 GT ISZERO PUSH2 0xF06 JUMPI PUSH2 0xF05 PUSH2 0x974 JUMP JUMPDEST JUMPDEST PUSH2 0xF12 DUP9 DUP3 DUP10 ADD PUSH2 0xA87 JUMP JUMPDEST SWAP3 POP POP PUSH1 0x80 DUP7 ADD CALLDATALOAD PUSH8 0xFFFFFFFFFFFFFFFF DUP2 GT ISZERO PUSH2 0xF33 JUMPI PUSH2 0xF32 PUSH2 0x974 JUMP JUMPDEST JUMPDEST PUSH2 0xF3F DUP9 DUP3 DUP10 ADD PUSH2 0xA87 JUMP JUMPDEST SWAP2 POP POP SWAP3 SWAP6 POP SWAP3 SWAP6 SWAP1 SWAP4 POP JUMP JUMPDEST PUSH0 DUP2 MLOAD SWAP1 POP SWAP2 SWAP1 POP JUMP JUMPDEST PUSH0 DUP2 SWAP1 POP SWAP3 SWAP2 POP POP JUMP JUMPDEST DUP3 DUP2 DUP4 MCOPY PUSH0 DUP4 DUP4 ADD MSTORE POP POP POP JUMP JUMPDEST PUSH0 PUSH2 0xF78 DUP3 PUSH2 0xF4C JUMP JUMPDEST PUSH2 0xF82 DUP2 DUP6 PUSH2 0xF56 JUMP JUMPDEST SWAP4 POP PUSH2 0xF92 DUP2 DUP6 PUSH1 0x20 DUP7 ADD PUSH2 0xF60 JUMP JUMPDEST DUP1 DUP5 ADD SWAP2 POP POP SWAP3 SWAP2 POP POP JUMP JUMPDEST PUSH0 PUSH2 0xFA9 DUP3 DUP5 PUSH2 0xF6E JUMP JUMPDEST SWAP2 POP DUP2 SWAP1 POP SWAP3 SWAP2 POP POP JUMP JUMPDEST PUSH0 DUP3 DUP3 MSTORE PUSH1 0x20 DUP3 ADD SWAP1 POP SWAP3 SWAP2 POP POP JUMP JUMPDEST PUSH32 0x6E6F7420656E6F7567682062616C616E63650000000000000000000000000000 PUSH0 DUP3 ADD MSTORE POP JUMP JUMPDEST PUSH0 PUSH2 0xFF8 PUSH1 0x12 DUP4 PUSH2 0xFB4 JUMP JUMPDEST SWAP2 POP PUSH2 0x1003 DUP3 PUSH2 0xFC4 JUMP JUMPDEST PUSH1 0x20 DUP3 ADD SWAP1 POP SWAP2 SWAP1 POP JUMP JUMPDEST PUSH0 PUSH1 0x20 DUP3 ADD SWAP1 POP DUP2 DUP2 SUB PUSH0 DUP4 ADD MSTORE PUSH2 0x1025 DUP2 PUSH2 0xFEC JUMP JUMPDEST SWAP1 POP SWAP2 SWAP1 POP JUMP JUMPDEST PUSH32 0x6E656564207369676E557020666F7220746869732062616E6B20666972737400 PUSH0 DUP3 ADD MSTORE POP JUMP JUMPDEST PUSH0 PUSH2 0x1060 PUSH1 0x1F DUP4 PUSH2 0xFB4 JUMP JUMPDEST SWAP2 POP PUSH2 0x106B DUP3 PUSH2 0x102C JUMP JUMPDEST PUSH1 0x20 DUP3 ADD SWAP1 POP SWAP2 SWAP1 POP JUMP JUMPDEST PUSH0 PUSH1 0x20 DUP3 ADD SWAP1 POP DUP2 DUP2 SUB PUSH0 DUP4 ADD MSTORE PUSH2 0x108D DUP2 PUSH2 0x1054 JUMP JUMPDEST SWAP1 POP SWAP2 SWAP1 POP JUMP JUMPDEST PUSH0 PUSH2 0x109F DUP3 DUP6 PUSH2 0xF6E JUMP JUMPDEST SWAP2 POP PUSH2 0x10AB DUP3 DUP5 PUSH2 0xF6E JUMP JUMPDEST SWAP2 POP DUP2 SWAP1 POP SWAP4 SWAP3 POP POP POP JUMP JUMPDEST PUSH32 0x796F7520646F6E2774206861766520656E6F756768206D6F656E7920696E2062 PUSH0 DUP3 ADD MSTORE PUSH32 0x616E6B2041000000000000000000000000000000000000000000000000000000 PUSH1 0x20 DUP3 ADD MSTORE POP JUMP JUMPDEST PUSH0 PUSH2 0x1111 PUSH1 0x25 DUP4 PUSH2 0xFB4 JUMP JUMPDEST SWAP2 POP PUSH2 0x111C DUP3 PUSH2 0x10B7 JUMP JUMPDEST PUSH1 0x40 DUP3 ADD SWAP1 POP SWAP2 SWAP1 POP JUMP JUMPDEST PUSH0 PUSH1 0x20 DUP3 ADD SWAP1 POP DUP2 DUP2 SUB PUSH0 DUP4 ADD MSTORE PUSH2 0x113E DUP2 PUSH2 0x1105 JUMP JUMPDEST SWAP1 POP SWAP2 SWAP1 POP JUMP JUMPDEST PUSH32 0x74686973207573657220646F6E277420657869737420696E2062616E6B204200 PUSH0 DUP3 ADD MSTORE POP JUMP JUMPDEST PUSH0 PUSH2 0x1179 PUSH1 0x1F DUP4 PUSH2 0xFB4 JUMP JUMPDEST SWAP2 POP PUSH2 0x1184 DUP3 PUSH2 0x1145 JUMP JUMPDEST PUSH1 0x20 DUP3 ADD SWAP1 POP SWAP2 SWAP1 POP JUMP JUMPDEST PUSH0 PUSH1 0x20 DUP3 ADD SWAP1 POP DUP2 DUP2 SUB PUSH0 DUP4 ADD MSTORE PUSH2 0x11A6 DUP2 PUSH2 0x116D JUMP JUMPDEST SWAP1 POP SWAP2 SWAP1 POP JUMP JUMPDEST PUSH32 0x4E487B7100000000000000000000000000000000000000000000000000000000 PUSH0 MSTORE PUSH1 0x11 PUSH1 0x4 MSTORE PUSH1 0x24 PUSH0 REVERT JUMPDEST PUSH0 PUSH2 0x11E4 DUP3 PUSH2 0xAB4 JUMP JUMPDEST SWAP2 POP PUSH2 0x11EF DUP4 PUSH2 0xAB4 JUMP JUMPDEST SWAP3 POP DUP3 DUP3 ADD SWAP1 POP DUP1 DUP3 GT ISZERO PUSH2 0x1207 JUMPI PUSH2 0x1206 PUSH2 0x11AD JUMP JUMPDEST JUMPDEST SWAP3 SWAP2 POP POP JUMP JUMPDEST PUSH0 PUSH2 0x1217 DUP3 PUSH2 0xAB4 JUMP JUMPDEST SWAP2 POP PUSH2 0x1222 DUP4 PUSH2 0xAB4 JUMP JUMPDEST SWAP3 POP DUP3 DUP3 SUB SWAP1 POP DUP2 DUP2 GT ISZERO PUSH2 0x123A JUMPI PUSH2 0x1239 PUSH2 0x11AD JUMP JUMPDEST JUMPDEST SWAP3 SWAP2 POP POP JUMP INVALID LOG2 PUSH5 0x6970667358 0x22 SLT KECCAK256 0xE1 0x4F 0xA5 0xE6 EQ PUSH0 0x28 0xD8 0xC3 JUMP MLOAD PUSH6 0x25365A6D3A10 PUSH10 0x456DF0A8D8BCE8852260 NOT GASLIMIT MSTORE PUSH5 0x736F6C6343 STOP ADDMOD NOT STOP CALLER "
				},
				"gasEstimates": {
					"creation": {
						"codeDepositCost": "945200",
						"executionCost": "979",
						"totalCost": "946179"
					},
					"external": {
						"PW(string,string)": "infinite",
						"deposiBank(string,string,string)": "infinite",
						"getUserCheck(string,string,string)": "infinite",
						"sendMoneyBtoB(string,string,uint256,string,string)": "infinite",
						"sendMoneyUtoU(string,string,uint256,string,string,address)": "infinite",
						"setUser(string,string,string)": "infinite",
						"withdrawBank(string,uint256,string,string)": "infinite"
					}
				},
				"methodIdentifiers": {
					"PW(string,string)": "65dffaa3",
					"deposiBank(string,string,string)": "416c2b19",
					"getUserCheck(string,string,string)": "67edb25c",
					"sendMoneyBtoB(string,string,uint256,string,string)": "f09a1dca",
					"sendMoneyUtoU(string,string,uint256,string,string,address)": "c88df3d2",
					"setUser(string,string,string)": "6b17b274",
					"withdrawBank(string,uint256,string,string)": "140a6e54"
				}
			},
			"storageLayout": {
				"storage": [
					{
						"astId": 7,
						"contract": "solidity_test/test_10.sol:a",
						"label": "userBalance",
						"offset": 0,
						"slot": "0",
						"type": "t_mapping(t_address,t_mapping(t_string_memory_ptr,t_uint256))"
					},
					{
						"astId": 13,
						"contract": "solidity_test/test_10.sol:a",
						"label": "userCheck",
						"offset": 0,
						"slot": "1",
						"type": "t_mapping(t_string_memory_ptr,t_mapping(t_bytes32,t_uint256))"
					}
				],
				"types": {
					"t_address": {
						"encoding": "inplace",
						"label": "address",
						"numberOfBytes": "20"
					},
					"t_bytes32": {
						"encoding": "inplace",
						"label": "bytes32",
						"numberOfBytes": "32"
					},
					"t_mapping(t_address,t_mapping(t_string_memory_ptr,t_uint256))": {
						"encoding": "mapping",
						"key": "t_address",
						"label": "mapping(address => mapping(string => uint256))",
						"numberOfBytes": "32",
						"value": "t_mapping(t_string_memory_ptr,t_uint256)"
					},
					"t_mapping(t_bytes32,t_uint256)": {
						"encoding": "mapping",
						"key": "t_bytes32",
						"label": "mapping(bytes32 => uint256)",
						"numberOfBytes": "32",
						"value": "t_uint256"
					},
					"t_mapping(t_string_memory_ptr,t_mapping(t_bytes32,t_uint256))": {
						"encoding": "mapping",
						"key": "t_string_memory_ptr",
						"label": "mapping(string => mapping(bytes32 => uint256))",
						"numberOfBytes": "32",
						"value": "t_mapping(t_bytes32,t_uint256)"
					},
					"t_mapping(t_string_memory_ptr,t_uint256)": {
						"encoding": "mapping",
						"key": "t_string_memory_ptr",
						"label": "mapping(string => uint256)",
						"numberOfBytes": "32",
						"value": "t_uint256"
					},
					"t_string_memory_ptr": {
						"encoding": "bytes",
						"label": "string",
						"numberOfBytes": "32"
					},
					"t_uint256": {
						"encoding": "inplace",
						"label": "uint256",
						"numberOfBytes": "32"
					}
				}
			},
			"userdoc": {
				"kind": "user",
				"methods": {},
				"version": 1
			}
		}
	}
}