{
	"solidity_test/test9.sol": {
		"a": {
			"abi": [
				{
					"inputs": [
						{
							"internalType": "string",
							"name": "_pw",
							"type": "string"
						}
					],
					"name": "generatePW",
					"outputs": [
						{
							"internalType": "bool",
							"name": "",
							"type": "bool"
						},
						{
							"internalType": "bool",
							"name": "",
							"type": "bool"
						},
						{
							"internalType": "bool",
							"name": "",
							"type": "bool"
						}
					],
					"stateMutability": "pure",
					"type": "function"
				},
				{
					"inputs": [
						{
							"internalType": "bytes",
							"name": "_b",
							"type": "bytes"
						}
					],
					"name": "splitBytes",
					"outputs": [
						{
							"internalType": "bytes1",
							"name": "",
							"type": "bytes1"
						}
					],
					"stateMutability": "pure",
					"type": "function"
				}
			],
			"devdoc": {
				"kind": "dev",
				"methods": {},
				"version": 1
			},
			"evm": {
				"assembly": "    /* \"solidity_test/test9.sol\":67:1607  contract a {... */\n  mstore(0x40, 0x80)\n  callvalue\n  dup1\n  iszero\n  tag_1\n  jumpi\n  0x00\n  dup1\n  revert\ntag_1:\n  pop\n  dataSize(sub_0)\n  dup1\n  dataOffset(sub_0)\n  0x00\n  codecopy\n  0x00\n  return\nstop\n\nsub_0: assembly {\n        /* \"solidity_test/test9.sol\":67:1607  contract a {... */\n      mstore(0x40, 0x80)\n      callvalue\n      dup1\n      iszero\n      tag_1\n      jumpi\n      0x00\n      dup1\n      revert\n    tag_1:\n      pop\n      jumpi(tag_2, lt(calldatasize, 0x04))\n      shr(0xe0, calldataload(0x00))\n      dup1\n      0x12c04ec2\n      eq\n      tag_3\n      jumpi\n      dup1\n      0x1b253ba6\n      eq\n      tag_4\n      jumpi\n    tag_2:\n      0x00\n      dup1\n      revert\n        /* \"solidity_test/test9.sol\":701:797  function splitBytes(bytes memory _b) public pure returns(bytes1) {... */\n    tag_3:\n      tag_5\n      0x04\n      dup1\n      calldatasize\n      sub\n      dup2\n      add\n      swap1\n      tag_6\n      swap2\n      swap1\n      tag_7\n      jump\t// in\n    tag_6:\n      tag_8\n      jump\t// in\n    tag_5:\n      mload(0x40)\n      tag_9\n      swap2\n      swap1\n      tag_10\n      jump\t// in\n    tag_9:\n      mload(0x40)\n      dup1\n      swap2\n      sub\n      swap1\n      return\n        /* \"solidity_test/test9.sol\":805:1604  function generatePW(string memory _pw) public pure returns(bool,bool,bool){... */\n    tag_4:\n      tag_11\n      0x04\n      dup1\n      calldatasize\n      sub\n      dup2\n      add\n      swap1\n      tag_12\n      swap2\n      swap1\n      tag_13\n      jump\t// in\n    tag_12:\n      tag_14\n      jump\t// in\n    tag_11:\n      mload(0x40)\n      tag_15\n      swap4\n      swap3\n      swap2\n      swap1\n      tag_16\n      jump\t// in\n    tag_15:\n      mload(0x40)\n      dup1\n      swap2\n      sub\n      swap1\n      return\n        /* \"solidity_test/test9.sol\":701:797  function splitBytes(bytes memory _b) public pure returns(bytes1) {... */\n    tag_8:\n        /* \"solidity_test/test9.sol\":758:764  bytes1 */\n      0x00\n        /* \"solidity_test/test9.sol\":784:786  _b */\n      dup2\n        /* \"solidity_test/test9.sol\":787:788  0 */\n      0x00\n        /* \"solidity_test/test9.sol\":784:789  _b[0] */\n      dup2\n      mload\n      dup2\n      lt\n      tag_18\n      jumpi\n      tag_19\n      tag_20\n      jump\t// in\n    tag_19:\n    tag_18:\n      0x20\n      add\n      add\n      mload\n      0xf8\n      shr\n      0xf8\n      shl\n        /* \"solidity_test/test9.sol\":777:789  return _b[0] */\n      swap1\n      pop\n        /* \"solidity_test/test9.sol\":701:797  function splitBytes(bytes memory _b) public pure returns(bytes1) {... */\n      swap2\n      swap1\n      pop\n      jump\t// out\n        /* \"solidity_test/test9.sol\":805:1604  function generatePW(string memory _pw) public pure returns(bool,bool,bool){... */\n    tag_14:\n        /* \"solidity_test/test9.sol\":864:868  bool */\n      0x00\n        /* \"solidity_test/test9.sol\":869:873  bool */\n      dup1\n        /* \"solidity_test/test9.sol\":874:878  bool */\n      0x00\n        /* \"solidity_test/test9.sol\":890:906  bool smallLetter */\n      dup1\n        /* \"solidity_test/test9.sol\":917:935  bool capitalLetter */\n      0x00\n        /* \"solidity_test/test9.sol\":946:957  bool number */\n      dup1\n        /* \"solidity_test/test9.sol\":968:983  bytes memory pw */\n      0x00\n        /* \"solidity_test/test9.sol\":992:995  _pw */\n      dup8\n        /* \"solidity_test/test9.sol\":968:996  bytes memory pw = bytes(_pw) */\n      swap1\n      pop\n        /* \"solidity_test/test9.sol\":1022:1028  uint i */\n      0x00\n        /* \"solidity_test/test9.sol\":1017:1364  for (uint i = 0; i < pw.length; i++) {... */\n    tag_22:\n        /* \"solidity_test/test9.sol\":1038:1040  pw */\n      dup2\n        /* \"solidity_test/test9.sol\":1038:1047  pw.length */\n      mload\n        /* \"solidity_test/test9.sol\":1034:1035  i */\n      dup2\n        /* \"solidity_test/test9.sol\":1034:1047  i < pw.length */\n      lt\n        /* \"solidity_test/test9.sol\":1017:1364  for (uint i = 0; i < pw.length; i++) {... */\n      iszero\n      tag_23\n      jumpi\n        /* \"solidity_test/test9.sol\":1080:1084  0x40 */\n      0x40\n        /* \"solidity_test/test9.sol\":1072:1084  pw[i] > 0x40 */\n      0xf8\n      shl\n        /* \"solidity_test/test9.sol\":1072:1074  pw */\n      dup3\n        /* \"solidity_test/test9.sol\":1075:1076  i */\n      dup3\n        /* \"solidity_test/test9.sol\":1072:1077  pw[i] */\n      dup2\n      mload\n      dup2\n      lt\n      tag_25\n      jumpi\n      tag_26\n      tag_20\n      jump\t// in\n    tag_26:\n    tag_25:\n      0x20\n      add\n      add\n      mload\n      0xf8\n      shr\n      0xf8\n      shl\n        /* \"solidity_test/test9.sol\":1072:1084  pw[i] > 0x40 */\n      not(0xffffffffffffffffffffffffffffffffffffffffffffffffffffffffffffff)\n      and\n      gt\n        /* \"solidity_test/test9.sol\":1072:1100  pw[i] > 0x40 && pw[i] < 0x5B */\n      dup1\n      iszero\n      tag_27\n      jumpi\n      pop\n        /* \"solidity_test/test9.sol\":1096:1100  0x5B */\n      0x5b\n        /* \"solidity_test/test9.sol\":1088:1100  pw[i] < 0x5B */\n      0xf8\n      shl\n        /* \"solidity_test/test9.sol\":1088:1090  pw */\n      dup3\n        /* \"solidity_test/test9.sol\":1091:1092  i */\n      dup3\n        /* \"solidity_test/test9.sol\":1088:1093  pw[i] */\n      dup2\n      mload\n      dup2\n      lt\n      tag_28\n      jumpi\n      tag_29\n      tag_20\n      jump\t// in\n    tag_29:\n    tag_28:\n      0x20\n      add\n      add\n      mload\n      0xf8\n      shr\n      0xf8\n      shl\n        /* \"solidity_test/test9.sol\":1088:1100  pw[i] < 0x5B */\n      not(0xffffffffffffffffffffffffffffffffffffffffffffffffffffffffffffff)\n      and\n      lt\n        /* \"solidity_test/test9.sol\":1072:1100  pw[i] > 0x40 && pw[i] < 0x5B */\n    tag_27:\n        /* \"solidity_test/test9.sol\":1069:1157  if(pw[i] > 0x40 && pw[i] < 0x5B) {... */\n      iszero\n      tag_30\n      jumpi\n        /* \"solidity_test/test9.sol\":1137:1141  true */\n      0x01\n        /* \"solidity_test/test9.sol\":1121:1141  capitalLetter = true */\n      swap4\n      pop\n        /* \"solidity_test/test9.sol\":1069:1157  if(pw[i] > 0x40 && pw[i] < 0x5B) {... */\n    tag_30:\n        /* \"solidity_test/test9.sol\":1182:1186  0x60 */\n      0x60\n        /* \"solidity_test/test9.sol\":1174:1186  pw[i] > 0x60 */\n      0xf8\n      shl\n        /* \"solidity_test/test9.sol\":1174:1176  pw */\n      dup3\n        /* \"solidity_test/test9.sol\":1177:1178  i */\n      dup3\n        /* \"solidity_test/test9.sol\":1174:1179  pw[i] */\n      dup2\n      mload\n      dup2\n      lt\n      tag_31\n      jumpi\n      tag_32\n      tag_20\n      jump\t// in\n    tag_32:\n    tag_31:\n      0x20\n      add\n      add\n      mload\n      0xf8\n      shr\n      0xf8\n      shl\n        /* \"solidity_test/test9.sol\":1174:1186  pw[i] > 0x60 */\n      not(0xffffffffffffffffffffffffffffffffffffffffffffffffffffffffffffff)\n      and\n      gt\n        /* \"solidity_test/test9.sol\":1174:1202  pw[i] > 0x60 && pw[i] < 0x7B */\n      dup1\n      iszero\n      tag_33\n      jumpi\n      pop\n        /* \"solidity_test/test9.sol\":1198:1202  0x7B */\n      0x7b\n        /* \"solidity_test/test9.sol\":1190:1202  pw[i] < 0x7B */\n      0xf8\n      shl\n        /* \"solidity_test/test9.sol\":1190:1192  pw */\n      dup3\n        /* \"solidity_test/test9.sol\":1193:1194  i */\n      dup3\n        /* \"solidity_test/test9.sol\":1190:1195  pw[i] */\n      dup2\n      mload\n      dup2\n      lt\n      tag_34\n      jumpi\n      tag_35\n      tag_20\n      jump\t// in\n    tag_35:\n    tag_34:\n      0x20\n      add\n      add\n      mload\n      0xf8\n      shr\n      0xf8\n      shl\n        /* \"solidity_test/test9.sol\":1190:1202  pw[i] < 0x7B */\n      not(0xffffffffffffffffffffffffffffffffffffffffffffffffffffffffffffff)\n      and\n      lt\n        /* \"solidity_test/test9.sol\":1174:1202  pw[i] > 0x60 && pw[i] < 0x7B */\n    tag_33:\n        /* \"solidity_test/test9.sol\":1171:1257  if(pw[i] > 0x60 && pw[i] < 0x7B) {... */\n      iszero\n      tag_36\n      jumpi\n        /* \"solidity_test/test9.sol\":1237:1241  true */\n      0x01\n        /* \"solidity_test/test9.sol\":1223:1241  smallLetter = true */\n      swap5\n      pop\n        /* \"solidity_test/test9.sol\":1171:1257  if(pw[i] > 0x60 && pw[i] < 0x7B) {... */\n    tag_36:\n        /* \"solidity_test/test9.sol\":1283:1287  0x30 */\n      0x30\n        /* \"solidity_test/test9.sol\":1275:1287  pw[i] > 0x30 */\n      0xf8\n      shl\n        /* \"solidity_test/test9.sol\":1275:1277  pw */\n      dup3\n        /* \"solidity_test/test9.sol\":1278:1279  i */\n      dup3\n        /* \"solidity_test/test9.sol\":1275:1280  pw[i] */\n      dup2\n      mload\n      dup2\n      lt\n      tag_37\n      jumpi\n      tag_38\n      tag_20\n      jump\t// in\n    tag_38:\n    tag_37:\n      0x20\n      add\n      add\n      mload\n      0xf8\n      shr\n      0xf8\n      shl\n        /* \"solidity_test/test9.sol\":1275:1287  pw[i] > 0x30 */\n      not(0xffffffffffffffffffffffffffffffffffffffffffffffffffffffffffffff)\n      and\n      gt\n        /* \"solidity_test/test9.sol\":1275:1303  pw[i] > 0x30 && pw[i] < 0x40 */\n      dup1\n      iszero\n      tag_39\n      jumpi\n      pop\n        /* \"solidity_test/test9.sol\":1299:1303  0x40 */\n      0x40\n        /* \"solidity_test/test9.sol\":1291:1303  pw[i] < 0x40 */\n      0xf8\n      shl\n        /* \"solidity_test/test9.sol\":1291:1293  pw */\n      dup3\n        /* \"solidity_test/test9.sol\":1294:1295  i */\n      dup3\n        /* \"solidity_test/test9.sol\":1291:1296  pw[i] */\n      dup2\n      mload\n      dup2\n      lt\n      tag_40\n      jumpi\n      tag_41\n      tag_20\n      jump\t// in\n    tag_41:\n    tag_40:\n      0x20\n      add\n      add\n      mload\n      0xf8\n      shr\n      0xf8\n      shl\n        /* \"solidity_test/test9.sol\":1291:1303  pw[i] < 0x40 */\n      not(0xffffffffffffffffffffffffffffffffffffffffffffffffffffffffffffff)\n      and\n      lt\n        /* \"solidity_test/test9.sol\":1275:1303  pw[i] > 0x30 && pw[i] < 0x40 */\n    tag_39:\n        /* \"solidity_test/test9.sol\":1271:1353  if (pw[i] > 0x30 && pw[i] < 0x40) {... */\n      iszero\n      tag_42\n      jumpi\n        /* \"solidity_test/test9.sol\":1333:1337  true */\n      0x01\n        /* \"solidity_test/test9.sol\":1324:1337  number = true */\n      swap3\n      pop\n        /* \"solidity_test/test9.sol\":1271:1353  if (pw[i] > 0x30 && pw[i] < 0x40) {... */\n    tag_42:\n        /* \"solidity_test/test9.sol\":1049:1052  i++ */\n      dup1\n      dup1\n      0x01\n      add\n      swap2\n      pop\n      pop\n        /* \"solidity_test/test9.sol\":1017:1364  for (uint i = 0; i < pw.length; i++) {... */\n      jump(tag_22)\n    tag_23:\n      pop\n        /* \"solidity_test/test9.sol\":1382:1393  smallLetter */\n      dup4\n        /* \"solidity_test/test9.sol\":1374:1425  require(smallLetter, \"put at least 1 small letter\") */\n      tag_43\n      jumpi\n      mload(0x40)\n      0x08c379a000000000000000000000000000000000000000000000000000000000\n      dup2\n      mstore\n      0x04\n      add\n      tag_44\n      swap1\n      tag_45\n      jump\t// in\n    tag_44:\n      mload(0x40)\n      dup1\n      swap2\n      sub\n      swap1\n      revert\n    tag_43:\n        /* \"solidity_test/test9.sol\":1444:1457  capitalLetter */\n      dup3\n        /* \"solidity_test/test9.sol\":1436:1491  require(capitalLetter, \"put at least 1 capital letter\") */\n      tag_46\n      jumpi\n      mload(0x40)\n      0x08c379a000000000000000000000000000000000000000000000000000000000\n      dup2\n      mstore\n      0x04\n      add\n      tag_47\n      swap1\n      tag_48\n      jump\t// in\n    tag_47:\n      mload(0x40)\n      dup1\n      swap2\n      sub\n      swap1\n      revert\n    tag_46:\n        /* \"solidity_test/test9.sol\":1510:1516  number */\n      dup2\n        /* \"solidity_test/test9.sol\":1502:1542  require(number, \"put at least 1 number\") */\n      tag_49\n      jumpi\n      mload(0x40)\n      0x08c379a000000000000000000000000000000000000000000000000000000000\n      dup2\n      mstore\n      0x04\n      add\n      tag_50\n      swap1\n      tag_51\n      jump\t// in\n    tag_50:\n      mload(0x40)\n      dup1\n      swap2\n      sub\n      swap1\n      revert\n    tag_49:\n        /* \"solidity_test/test9.sol\":1561:1574  capitalLetter */\n      dup3\n        /* \"solidity_test/test9.sol\":1576:1587  smallLetter */\n      dup5\n        /* \"solidity_test/test9.sol\":1589:1595  number */\n      dup4\n        /* \"solidity_test/test9.sol\":1553:1596  return (capitalLetter, smallLetter, number) */\n      swap7\n      pop\n      swap7\n      pop\n      swap7\n      pop\n      pop\n      pop\n      pop\n      pop\n        /* \"solidity_test/test9.sol\":805:1604  function generatePW(string memory _pw) public pure returns(bool,bool,bool){... */\n      swap2\n      swap4\n      swap1\n      swap3\n      pop\n      jump\t// out\n        /* \"#utility.yul\":7:82   */\n    tag_52:\n        /* \"#utility.yul\":40:46   */\n      0x00\n        /* \"#utility.yul\":73:75   */\n      0x40\n        /* \"#utility.yul\":67:76   */\n      mload\n        /* \"#utility.yul\":57:76   */\n      swap1\n      pop\n        /* \"#utility.yul\":7:82   */\n      swap1\n      jump\t// out\n        /* \"#utility.yul\":88:205   */\n    tag_53:\n        /* \"#utility.yul\":197:198   */\n      0x00\n        /* \"#utility.yul\":194:195   */\n      dup1\n        /* \"#utility.yul\":187:199   */\n      revert\n        /* \"#utility.yul\":211:328   */\n    tag_54:\n        /* \"#utility.yul\":320:321   */\n      0x00\n        /* \"#utility.yul\":317:318   */\n      dup1\n        /* \"#utility.yul\":310:322   */\n      revert\n        /* \"#utility.yul\":334:451   */\n    tag_55:\n        /* \"#utility.yul\":443:444   */\n      0x00\n        /* \"#utility.yul\":440:441   */\n      dup1\n        /* \"#utility.yul\":433:445   */\n      revert\n        /* \"#utility.yul\":457:574   */\n    tag_56:\n        /* \"#utility.yul\":566:567   */\n      0x00\n        /* \"#utility.yul\":563:564   */\n      dup1\n        /* \"#utility.yul\":556:568   */\n      revert\n        /* \"#utility.yul\":580:682   */\n    tag_57:\n        /* \"#utility.yul\":621:627   */\n      0x00\n        /* \"#utility.yul\":672:674   */\n      0x1f\n        /* \"#utility.yul\":668:675   */\n      not\n        /* \"#utility.yul\":663:665   */\n      0x1f\n        /* \"#utility.yul\":656:661   */\n      dup4\n        /* \"#utility.yul\":652:666   */\n      add\n        /* \"#utility.yul\":648:676   */\n      and\n        /* \"#utility.yul\":638:676   */\n      swap1\n      pop\n        /* \"#utility.yul\":580:682   */\n      swap2\n      swap1\n      pop\n      jump\t// out\n        /* \"#utility.yul\":688:868   */\n    tag_58:\n        /* \"#utility.yul\":736:813   */\n      0x4e487b7100000000000000000000000000000000000000000000000000000000\n        /* \"#utility.yul\":733:734   */\n      0x00\n        /* \"#utility.yul\":726:814   */\n      mstore\n        /* \"#utility.yul\":833:837   */\n      0x41\n        /* \"#utility.yul\":830:831   */\n      0x04\n        /* \"#utility.yul\":823:838   */\n      mstore\n        /* \"#utility.yul\":857:861   */\n      0x24\n        /* \"#utility.yul\":854:855   */\n      0x00\n        /* \"#utility.yul\":847:862   */\n      revert\n        /* \"#utility.yul\":874:1155   */\n    tag_59:\n        /* \"#utility.yul\":957:984   */\n      tag_88\n        /* \"#utility.yul\":979:983   */\n      dup3\n        /* \"#utility.yul\":957:984   */\n      tag_57\n      jump\t// in\n    tag_88:\n        /* \"#utility.yul\":949:955   */\n      dup2\n        /* \"#utility.yul\":945:985   */\n      add\n        /* \"#utility.yul\":1087:1093   */\n      dup2\n        /* \"#utility.yul\":1075:1085   */\n      dup2\n        /* \"#utility.yul\":1072:1094   */\n      lt\n        /* \"#utility.yul\":1051:1069   */\n      0xffffffffffffffff\n        /* \"#utility.yul\":1039:1049   */\n      dup3\n        /* \"#utility.yul\":1036:1070   */\n      gt\n        /* \"#utility.yul\":1033:1095   */\n      or\n        /* \"#utility.yul\":1030:1118   */\n      iszero\n      tag_89\n      jumpi\n        /* \"#utility.yul\":1098:1116   */\n      tag_90\n      tag_58\n      jump\t// in\n    tag_90:\n        /* \"#utility.yul\":1030:1118   */\n    tag_89:\n        /* \"#utility.yul\":1138:1148   */\n      dup1\n        /* \"#utility.yul\":1134:1136   */\n      0x40\n        /* \"#utility.yul\":1127:1149   */\n      mstore\n        /* \"#utility.yul\":917:1155   */\n      pop\n        /* \"#utility.yul\":874:1155   */\n      pop\n      pop\n      jump\t// out\n        /* \"#utility.yul\":1161:1290   */\n    tag_60:\n        /* \"#utility.yul\":1195:1201   */\n      0x00\n        /* \"#utility.yul\":1222:1242   */\n      tag_92\n      tag_52\n      jump\t// in\n    tag_92:\n        /* \"#utility.yul\":1212:1242   */\n      swap1\n      pop\n        /* \"#utility.yul\":1251:1284   */\n      tag_93\n        /* \"#utility.yul\":1279:1283   */\n      dup3\n        /* \"#utility.yul\":1271:1277   */\n      dup3\n        /* \"#utility.yul\":1251:1284   */\n      tag_59\n      jump\t// in\n    tag_93:\n        /* \"#utility.yul\":1161:1290   */\n      swap2\n      swap1\n      pop\n      jump\t// out\n        /* \"#utility.yul\":1296:1603   */\n    tag_61:\n        /* \"#utility.yul\":1357:1361   */\n      0x00\n        /* \"#utility.yul\":1447:1465   */\n      0xffffffffffffffff\n        /* \"#utility.yul\":1439:1445   */\n      dup3\n        /* \"#utility.yul\":1436:1466   */\n      gt\n        /* \"#utility.yul\":1433:1489   */\n      iszero\n      tag_95\n      jumpi\n        /* \"#utility.yul\":1469:1487   */\n      tag_96\n      tag_58\n      jump\t// in\n    tag_96:\n        /* \"#utility.yul\":1433:1489   */\n    tag_95:\n        /* \"#utility.yul\":1507:1536   */\n      tag_97\n        /* \"#utility.yul\":1529:1535   */\n      dup3\n        /* \"#utility.yul\":1507:1536   */\n      tag_57\n      jump\t// in\n    tag_97:\n        /* \"#utility.yul\":1499:1536   */\n      swap1\n      pop\n        /* \"#utility.yul\":1591:1595   */\n      0x20\n        /* \"#utility.yul\":1585:1589   */\n      dup2\n        /* \"#utility.yul\":1581:1596   */\n      add\n        /* \"#utility.yul\":1573:1596   */\n      swap1\n      pop\n        /* \"#utility.yul\":1296:1603   */\n      swap2\n      swap1\n      pop\n      jump\t// out\n        /* \"#utility.yul\":1609:1757   */\n    tag_62:\n        /* \"#utility.yul\":1707:1713   */\n      dup3\n        /* \"#utility.yul\":1702:1705   */\n      dup2\n        /* \"#utility.yul\":1697:1700   */\n      dup4\n        /* \"#utility.yul\":1684:1714   */\n      calldatacopy\n        /* \"#utility.yul\":1748:1749   */\n      0x00\n        /* \"#utility.yul\":1739:1745   */\n      dup4\n        /* \"#utility.yul\":1734:1737   */\n      dup4\n        /* \"#utility.yul\":1730:1746   */\n      add\n        /* \"#utility.yul\":1723:1750   */\n      mstore\n        /* \"#utility.yul\":1609:1757   */\n      pop\n      pop\n      pop\n      jump\t// out\n        /* \"#utility.yul\":1763:2186   */\n    tag_63:\n        /* \"#utility.yul\":1840:1845   */\n      0x00\n        /* \"#utility.yul\":1865:1930   */\n      tag_100\n        /* \"#utility.yul\":1881:1929   */\n      tag_101\n        /* \"#utility.yul\":1922:1928   */\n      dup5\n        /* \"#utility.yul\":1881:1929   */\n      tag_61\n      jump\t// in\n    tag_101:\n        /* \"#utility.yul\":1865:1930   */\n      tag_60\n      jump\t// in\n    tag_100:\n        /* \"#utility.yul\":1856:1930   */\n      swap1\n      pop\n        /* \"#utility.yul\":1953:1959   */\n      dup3\n        /* \"#utility.yul\":1946:1951   */\n      dup2\n        /* \"#utility.yul\":1939:1960   */\n      mstore\n        /* \"#utility.yul\":1991:1995   */\n      0x20\n        /* \"#utility.yul\":1984:1989   */\n      dup2\n        /* \"#utility.yul\":1980:1996   */\n      add\n        /* \"#utility.yul\":2029:2032   */\n      dup5\n        /* \"#utility.yul\":2020:2026   */\n      dup5\n        /* \"#utility.yul\":2015:2018   */\n      dup5\n        /* \"#utility.yul\":2011:2027   */\n      add\n        /* \"#utility.yul\":2008:2033   */\n      gt\n        /* \"#utility.yul\":2005:2117   */\n      iszero\n      tag_102\n      jumpi\n        /* \"#utility.yul\":2036:2115   */\n      tag_103\n      tag_56\n      jump\t// in\n    tag_103:\n        /* \"#utility.yul\":2005:2117   */\n    tag_102:\n        /* \"#utility.yul\":2126:2180   */\n      tag_104\n        /* \"#utility.yul\":2173:2179   */\n      dup5\n        /* \"#utility.yul\":2168:2171   */\n      dup3\n        /* \"#utility.yul\":2163:2166   */\n      dup6\n        /* \"#utility.yul\":2126:2180   */\n      tag_62\n      jump\t// in\n    tag_104:\n        /* \"#utility.yul\":1846:2186   */\n      pop\n        /* \"#utility.yul\":1763:2186   */\n      swap4\n      swap3\n      pop\n      pop\n      pop\n      jump\t// out\n        /* \"#utility.yul\":2205:2543   */\n    tag_64:\n        /* \"#utility.yul\":2260:2265   */\n      0x00\n        /* \"#utility.yul\":2309:2312   */\n      dup3\n        /* \"#utility.yul\":2302:2306   */\n      0x1f\n        /* \"#utility.yul\":2294:2300   */\n      dup4\n        /* \"#utility.yul\":2290:2307   */\n      add\n        /* \"#utility.yul\":2286:2313   */\n      slt\n        /* \"#utility.yul\":2276:2398   */\n      tag_106\n      jumpi\n        /* \"#utility.yul\":2317:2396   */\n      tag_107\n      tag_55\n      jump\t// in\n    tag_107:\n        /* \"#utility.yul\":2276:2398   */\n    tag_106:\n        /* \"#utility.yul\":2434:2440   */\n      dup2\n        /* \"#utility.yul\":2421:2441   */\n      calldataload\n        /* \"#utility.yul\":2459:2537   */\n      tag_108\n        /* \"#utility.yul\":2533:2536   */\n      dup5\n        /* \"#utility.yul\":2525:2531   */\n      dup3\n        /* \"#utility.yul\":2518:2522   */\n      0x20\n        /* \"#utility.yul\":2510:2516   */\n      dup7\n        /* \"#utility.yul\":2506:2523   */\n      add\n        /* \"#utility.yul\":2459:2537   */\n      tag_63\n      jump\t// in\n    tag_108:\n        /* \"#utility.yul\":2450:2537   */\n      swap2\n      pop\n        /* \"#utility.yul\":2266:2543   */\n      pop\n        /* \"#utility.yul\":2205:2543   */\n      swap3\n      swap2\n      pop\n      pop\n      jump\t// out\n        /* \"#utility.yul\":2549:3056   */\n    tag_7:\n        /* \"#utility.yul\":2617:2623   */\n      0x00\n        /* \"#utility.yul\":2666:2668   */\n      0x20\n        /* \"#utility.yul\":2654:2663   */\n      dup3\n        /* \"#utility.yul\":2645:2652   */\n      dup5\n        /* \"#utility.yul\":2641:2664   */\n      sub\n        /* \"#utility.yul\":2637:2669   */\n      slt\n        /* \"#utility.yul\":2634:2753   */\n      iszero\n      tag_110\n      jumpi\n        /* \"#utility.yul\":2672:2751   */\n      tag_111\n      tag_53\n      jump\t// in\n    tag_111:\n        /* \"#utility.yul\":2634:2753   */\n    tag_110:\n        /* \"#utility.yul\":2820:2821   */\n      0x00\n        /* \"#utility.yul\":2809:2818   */\n      dup3\n        /* \"#utility.yul\":2805:2822   */\n      add\n        /* \"#utility.yul\":2792:2823   */\n      calldataload\n        /* \"#utility.yul\":2850:2868   */\n      0xffffffffffffffff\n        /* \"#utility.yul\":2842:2848   */\n      dup2\n        /* \"#utility.yul\":2839:2869   */\n      gt\n        /* \"#utility.yul\":2836:2953   */\n      iszero\n      tag_112\n      jumpi\n        /* \"#utility.yul\":2872:2951   */\n      tag_113\n      tag_54\n      jump\t// in\n    tag_113:\n        /* \"#utility.yul\":2836:2953   */\n    tag_112:\n        /* \"#utility.yul\":2977:3039   */\n      tag_114\n        /* \"#utility.yul\":3031:3038   */\n      dup5\n        /* \"#utility.yul\":3022:3028   */\n      dup3\n        /* \"#utility.yul\":3011:3020   */\n      dup6\n        /* \"#utility.yul\":3007:3029   */\n      add\n        /* \"#utility.yul\":2977:3039   */\n      tag_64\n      jump\t// in\n    tag_114:\n        /* \"#utility.yul\":2967:3039   */\n      swap2\n      pop\n        /* \"#utility.yul\":2763:3049   */\n      pop\n        /* \"#utility.yul\":2549:3056   */\n      swap3\n      swap2\n      pop\n      pop\n      jump\t// out\n        /* \"#utility.yul\":3062:3211   */\n    tag_65:\n        /* \"#utility.yul\":3098:3105   */\n      0x00\n        /* \"#utility.yul\":3138:3204   */\n      0xff00000000000000000000000000000000000000000000000000000000000000\n        /* \"#utility.yul\":3131:3136   */\n      dup3\n        /* \"#utility.yul\":3127:3205   */\n      and\n        /* \"#utility.yul\":3116:3205   */\n      swap1\n      pop\n        /* \"#utility.yul\":3062:3211   */\n      swap2\n      swap1\n      pop\n      jump\t// out\n        /* \"#utility.yul\":3217:3332   */\n    tag_66:\n        /* \"#utility.yul\":3302:3325   */\n      tag_117\n        /* \"#utility.yul\":3319:3324   */\n      dup2\n        /* \"#utility.yul\":3302:3325   */\n      tag_65\n      jump\t// in\n    tag_117:\n        /* \"#utility.yul\":3297:3300   */\n      dup3\n        /* \"#utility.yul\":3290:3326   */\n      mstore\n        /* \"#utility.yul\":3217:3332   */\n      pop\n      pop\n      jump\t// out\n        /* \"#utility.yul\":3338:3556   */\n    tag_10:\n        /* \"#utility.yul\":3429:3433   */\n      0x00\n        /* \"#utility.yul\":3467:3469   */\n      0x20\n        /* \"#utility.yul\":3456:3465   */\n      dup3\n        /* \"#utility.yul\":3452:3470   */\n      add\n        /* \"#utility.yul\":3444:3470   */\n      swap1\n      pop\n        /* \"#utility.yul\":3480:3549   */\n      tag_119\n        /* \"#utility.yul\":3546:3547   */\n      0x00\n        /* \"#utility.yul\":3535:3544   */\n      dup4\n        /* \"#utility.yul\":3531:3548   */\n      add\n        /* \"#utility.yul\":3522:3528   */\n      dup5\n        /* \"#utility.yul\":3480:3549   */\n      tag_66\n      jump\t// in\n    tag_119:\n        /* \"#utility.yul\":3338:3556   */\n      swap3\n      swap2\n      pop\n      pop\n      jump\t// out\n        /* \"#utility.yul\":3562:3870   */\n    tag_67:\n        /* \"#utility.yul\":3624:3628   */\n      0x00\n        /* \"#utility.yul\":3714:3732   */\n      0xffffffffffffffff\n        /* \"#utility.yul\":3706:3712   */\n      dup3\n        /* \"#utility.yul\":3703:3733   */\n      gt\n        /* \"#utility.yul\":3700:3756   */\n      iszero\n      tag_121\n      jumpi\n        /* \"#utility.yul\":3736:3754   */\n      tag_122\n      tag_58\n      jump\t// in\n    tag_122:\n        /* \"#utility.yul\":3700:3756   */\n    tag_121:\n        /* \"#utility.yul\":3774:3803   */\n      tag_123\n        /* \"#utility.yul\":3796:3802   */\n      dup3\n        /* \"#utility.yul\":3774:3803   */\n      tag_57\n      jump\t// in\n    tag_123:\n        /* \"#utility.yul\":3766:3803   */\n      swap1\n      pop\n        /* \"#utility.yul\":3858:3862   */\n      0x20\n        /* \"#utility.yul\":3852:3856   */\n      dup2\n        /* \"#utility.yul\":3848:3863   */\n      add\n        /* \"#utility.yul\":3840:3863   */\n      swap1\n      pop\n        /* \"#utility.yul\":3562:3870   */\n      swap2\n      swap1\n      pop\n      jump\t// out\n        /* \"#utility.yul\":3876:4301   */\n    tag_68:\n        /* \"#utility.yul\":3954:3959   */\n      0x00\n        /* \"#utility.yul\":3979:4045   */\n      tag_125\n        /* \"#utility.yul\":3995:4044   */\n      tag_126\n        /* \"#utility.yul\":4037:4043   */\n      dup5\n        /* \"#utility.yul\":3995:4044   */\n      tag_67\n      jump\t// in\n    tag_126:\n        /* \"#utility.yul\":3979:4045   */\n      tag_60\n      jump\t// in\n    tag_125:\n        /* \"#utility.yul\":3970:4045   */\n      swap1\n      pop\n        /* \"#utility.yul\":4068:4074   */\n      dup3\n        /* \"#utility.yul\":4061:4066   */\n      dup2\n        /* \"#utility.yul\":4054:4075   */\n      mstore\n        /* \"#utility.yul\":4106:4110   */\n      0x20\n        /* \"#utility.yul\":4099:4104   */\n      dup2\n        /* \"#utility.yul\":4095:4111   */\n      add\n        /* \"#utility.yul\":4144:4147   */\n      dup5\n        /* \"#utility.yul\":4135:4141   */\n      dup5\n        /* \"#utility.yul\":4130:4133   */\n      dup5\n        /* \"#utility.yul\":4126:4142   */\n      add\n        /* \"#utility.yul\":4123:4148   */\n      gt\n        /* \"#utility.yul\":4120:4232   */\n      iszero\n      tag_127\n      jumpi\n        /* \"#utility.yul\":4151:4230   */\n      tag_128\n      tag_56\n      jump\t// in\n    tag_128:\n        /* \"#utility.yul\":4120:4232   */\n    tag_127:\n        /* \"#utility.yul\":4241:4295   */\n      tag_129\n        /* \"#utility.yul\":4288:4294   */\n      dup5\n        /* \"#utility.yul\":4283:4286   */\n      dup3\n        /* \"#utility.yul\":4278:4281   */\n      dup6\n        /* \"#utility.yul\":4241:4295   */\n      tag_62\n      jump\t// in\n    tag_129:\n        /* \"#utility.yul\":3960:4301   */\n      pop\n        /* \"#utility.yul\":3876:4301   */\n      swap4\n      swap3\n      pop\n      pop\n      pop\n      jump\t// out\n        /* \"#utility.yul\":4321:4661   */\n    tag_69:\n        /* \"#utility.yul\":4377:4382   */\n      0x00\n        /* \"#utility.yul\":4426:4429   */\n      dup3\n        /* \"#utility.yul\":4419:4423   */\n      0x1f\n        /* \"#utility.yul\":4411:4417   */\n      dup4\n        /* \"#utility.yul\":4407:4424   */\n      add\n        /* \"#utility.yul\":4403:4430   */\n      slt\n        /* \"#utility.yul\":4393:4515   */\n      tag_131\n      jumpi\n        /* \"#utility.yul\":4434:4513   */\n      tag_132\n      tag_55\n      jump\t// in\n    tag_132:\n        /* \"#utility.yul\":4393:4515   */\n    tag_131:\n        /* \"#utility.yul\":4551:4557   */\n      dup2\n        /* \"#utility.yul\":4538:4558   */\n      calldataload\n        /* \"#utility.yul\":4576:4655   */\n      tag_133\n        /* \"#utility.yul\":4651:4654   */\n      dup5\n        /* \"#utility.yul\":4643:4649   */\n      dup3\n        /* \"#utility.yul\":4636:4640   */\n      0x20\n        /* \"#utility.yul\":4628:4634   */\n      dup7\n        /* \"#utility.yul\":4624:4641   */\n      add\n        /* \"#utility.yul\":4576:4655   */\n      tag_68\n      jump\t// in\n    tag_133:\n        /* \"#utility.yul\":4567:4655   */\n      swap2\n      pop\n        /* \"#utility.yul\":4383:4661   */\n      pop\n        /* \"#utility.yul\":4321:4661   */\n      swap3\n      swap2\n      pop\n      pop\n      jump\t// out\n        /* \"#utility.yul\":4667:5176   */\n    tag_13:\n        /* \"#utility.yul\":4736:4742   */\n      0x00\n        /* \"#utility.yul\":4785:4787   */\n      0x20\n        /* \"#utility.yul\":4773:4782   */\n      dup3\n        /* \"#utility.yul\":4764:4771   */\n      dup5\n        /* \"#utility.yul\":4760:4783   */\n      sub\n        /* \"#utility.yul\":4756:4788   */\n      slt\n        /* \"#utility.yul\":4753:4872   */\n      iszero\n      tag_135\n      jumpi\n        /* \"#utility.yul\":4791:4870   */\n      tag_136\n      tag_53\n      jump\t// in\n    tag_136:\n        /* \"#utility.yul\":4753:4872   */\n    tag_135:\n        /* \"#utility.yul\":4939:4940   */\n      0x00\n        /* \"#utility.yul\":4928:4937   */\n      dup3\n        /* \"#utility.yul\":4924:4941   */\n      add\n        /* \"#utility.yul\":4911:4942   */\n      calldataload\n        /* \"#utility.yul\":4969:4987   */\n      0xffffffffffffffff\n        /* \"#utility.yul\":4961:4967   */\n      dup2\n        /* \"#utility.yul\":4958:4988   */\n      gt\n        /* \"#utility.yul\":4955:5072   */\n      iszero\n      tag_137\n      jumpi\n        /* \"#utility.yul\":4991:5070   */\n      tag_138\n      tag_54\n      jump\t// in\n    tag_138:\n        /* \"#utility.yul\":4955:5072   */\n    tag_137:\n        /* \"#utility.yul\":5096:5159   */\n      tag_139\n        /* \"#utility.yul\":5151:5158   */\n      dup5\n        /* \"#utility.yul\":5142:5148   */\n      dup3\n        /* \"#utility.yul\":5131:5140   */\n      dup6\n        /* \"#utility.yul\":5127:5149   */\n      add\n        /* \"#utility.yul\":5096:5159   */\n      tag_69\n      jump\t// in\n    tag_139:\n        /* \"#utility.yul\":5086:5159   */\n      swap2\n      pop\n        /* \"#utility.yul\":4882:5169   */\n      pop\n        /* \"#utility.yul\":4667:5176   */\n      swap3\n      swap2\n      pop\n      pop\n      jump\t// out\n        /* \"#utility.yul\":5182:5272   */\n    tag_70:\n        /* \"#utility.yul\":5216:5223   */\n      0x00\n        /* \"#utility.yul\":5259:5264   */\n      dup2\n        /* \"#utility.yul\":5252:5265   */\n      iszero\n        /* \"#utility.yul\":5245:5266   */\n      iszero\n        /* \"#utility.yul\":5234:5266   */\n      swap1\n      pop\n        /* \"#utility.yul\":5182:5272   */\n      swap2\n      swap1\n      pop\n      jump\t// out\n        /* \"#utility.yul\":5278:5387   */\n    tag_71:\n        /* \"#utility.yul\":5359:5380   */\n      tag_142\n        /* \"#utility.yul\":5374:5379   */\n      dup2\n        /* \"#utility.yul\":5359:5380   */\n      tag_70\n      jump\t// in\n    tag_142:\n        /* \"#utility.yul\":5354:5357   */\n      dup3\n        /* \"#utility.yul\":5347:5381   */\n      mstore\n        /* \"#utility.yul\":5278:5387   */\n      pop\n      pop\n      jump\t// out\n        /* \"#utility.yul\":5393:5799   */\n    tag_16:\n        /* \"#utility.yul\":5524:5528   */\n      0x00\n        /* \"#utility.yul\":5562:5564   */\n      0x60\n        /* \"#utility.yul\":5551:5560   */\n      dup3\n        /* \"#utility.yul\":5547:5565   */\n      add\n        /* \"#utility.yul\":5539:5565   */\n      swap1\n      pop\n        /* \"#utility.yul\":5575:5640   */\n      tag_144\n        /* \"#utility.yul\":5637:5638   */\n      0x00\n        /* \"#utility.yul\":5626:5635   */\n      dup4\n        /* \"#utility.yul\":5622:5639   */\n      add\n        /* \"#utility.yul\":5613:5619   */\n      dup7\n        /* \"#utility.yul\":5575:5640   */\n      tag_71\n      jump\t// in\n    tag_144:\n        /* \"#utility.yul\":5650:5716   */\n      tag_145\n        /* \"#utility.yul\":5712:5714   */\n      0x20\n        /* \"#utility.yul\":5701:5710   */\n      dup4\n        /* \"#utility.yul\":5697:5715   */\n      add\n        /* \"#utility.yul\":5688:5694   */\n      dup6\n        /* \"#utility.yul\":5650:5716   */\n      tag_71\n      jump\t// in\n    tag_145:\n        /* \"#utility.yul\":5726:5792   */\n      tag_146\n        /* \"#utility.yul\":5788:5790   */\n      0x40\n        /* \"#utility.yul\":5777:5786   */\n      dup4\n        /* \"#utility.yul\":5773:5791   */\n      add\n        /* \"#utility.yul\":5764:5770   */\n      dup5\n        /* \"#utility.yul\":5726:5792   */\n      tag_71\n      jump\t// in\n    tag_146:\n        /* \"#utility.yul\":5393:5799   */\n      swap5\n      swap4\n      pop\n      pop\n      pop\n      pop\n      jump\t// out\n        /* \"#utility.yul\":5805:5985   */\n    tag_20:\n        /* \"#utility.yul\":5853:5930   */\n      0x4e487b7100000000000000000000000000000000000000000000000000000000\n        /* \"#utility.yul\":5850:5851   */\n      0x00\n        /* \"#utility.yul\":5843:5931   */\n      mstore\n        /* \"#utility.yul\":5950:5954   */\n      0x32\n        /* \"#utility.yul\":5947:5948   */\n      0x04\n        /* \"#utility.yul\":5940:5955   */\n      mstore\n        /* \"#utility.yul\":5974:5978   */\n      0x24\n        /* \"#utility.yul\":5971:5972   */\n      0x00\n        /* \"#utility.yul\":5964:5979   */\n      revert\n        /* \"#utility.yul\":5991:6160   */\n    tag_72:\n        /* \"#utility.yul\":6075:6086   */\n      0x00\n        /* \"#utility.yul\":6109:6115   */\n      dup3\n        /* \"#utility.yul\":6104:6107   */\n      dup3\n        /* \"#utility.yul\":6097:6116   */\n      mstore\n        /* \"#utility.yul\":6149:6153   */\n      0x20\n        /* \"#utility.yul\":6144:6147   */\n      dup3\n        /* \"#utility.yul\":6140:6154   */\n      add\n        /* \"#utility.yul\":6125:6154   */\n      swap1\n      pop\n        /* \"#utility.yul\":5991:6160   */\n      swap3\n      swap2\n      pop\n      pop\n      jump\t// out\n        /* \"#utility.yul\":6166:6343   */\n    tag_73:\n        /* \"#utility.yul\":6306:6335   */\n      0x707574206174206c65617374203120736d616c6c206c65747465720000000000\n        /* \"#utility.yul\":6302:6303   */\n      0x00\n        /* \"#utility.yul\":6294:6300   */\n      dup3\n        /* \"#utility.yul\":6290:6304   */\n      add\n        /* \"#utility.yul\":6283:6336   */\n      mstore\n        /* \"#utility.yul\":6166:6343   */\n      pop\n      jump\t// out\n        /* \"#utility.yul\":6349:6715   */\n    tag_74:\n        /* \"#utility.yul\":6491:6494   */\n      0x00\n        /* \"#utility.yul\":6512:6579   */\n      tag_151\n        /* \"#utility.yul\":6576:6578   */\n      0x1b\n        /* \"#utility.yul\":6571:6574   */\n      dup4\n        /* \"#utility.yul\":6512:6579   */\n      tag_72\n      jump\t// in\n    tag_151:\n        /* \"#utility.yul\":6505:6579   */\n      swap2\n      pop\n        /* \"#utility.yul\":6588:6681   */\n      tag_152\n        /* \"#utility.yul\":6677:6680   */\n      dup3\n        /* \"#utility.yul\":6588:6681   */\n      tag_73\n      jump\t// in\n    tag_152:\n        /* \"#utility.yul\":6706:6708   */\n      0x20\n        /* \"#utility.yul\":6701:6704   */\n      dup3\n        /* \"#utility.yul\":6697:6709   */\n      add\n        /* \"#utility.yul\":6690:6709   */\n      swap1\n      pop\n        /* \"#utility.yul\":6349:6715   */\n      swap2\n      swap1\n      pop\n      jump\t// out\n        /* \"#utility.yul\":6721:7140   */\n    tag_45:\n        /* \"#utility.yul\":6887:6891   */\n      0x00\n        /* \"#utility.yul\":6925:6927   */\n      0x20\n        /* \"#utility.yul\":6914:6923   */\n      dup3\n        /* \"#utility.yul\":6910:6928   */\n      add\n        /* \"#utility.yul\":6902:6928   */\n      swap1\n      pop\n        /* \"#utility.yul\":6974:6983   */\n      dup2\n        /* \"#utility.yul\":6968:6972   */\n      dup2\n        /* \"#utility.yul\":6964:6984   */\n      sub\n        /* \"#utility.yul\":6960:6961   */\n      0x00\n        /* \"#utility.yul\":6949:6958   */\n      dup4\n        /* \"#utility.yul\":6945:6962   */\n      add\n        /* \"#utility.yul\":6938:6985   */\n      mstore\n        /* \"#utility.yul\":7002:7133   */\n      tag_154\n        /* \"#utility.yul\":7128:7132   */\n      dup2\n        /* \"#utility.yul\":7002:7133   */\n      tag_74\n      jump\t// in\n    tag_154:\n        /* \"#utility.yul\":6994:7133   */\n      swap1\n      pop\n        /* \"#utility.yul\":6721:7140   */\n      swap2\n      swap1\n      pop\n      jump\t// out\n        /* \"#utility.yul\":7146:7325   */\n    tag_75:\n        /* \"#utility.yul\":7286:7317   */\n      0x707574206174206c656173742031206361706974616c206c6574746572000000\n        /* \"#utility.yul\":7282:7283   */\n      0x00\n        /* \"#utility.yul\":7274:7280   */\n      dup3\n        /* \"#utility.yul\":7270:7284   */\n      add\n        /* \"#utility.yul\":7263:7318   */\n      mstore\n        /* \"#utility.yul\":7146:7325   */\n      pop\n      jump\t// out\n        /* \"#utility.yul\":7331:7697   */\n    tag_76:\n        /* \"#utility.yul\":7473:7476   */\n      0x00\n        /* \"#utility.yul\":7494:7561   */\n      tag_157\n        /* \"#utility.yul\":7558:7560   */\n      0x1d\n        /* \"#utility.yul\":7553:7556   */\n      dup4\n        /* \"#utility.yul\":7494:7561   */\n      tag_72\n      jump\t// in\n    tag_157:\n        /* \"#utility.yul\":7487:7561   */\n      swap2\n      pop\n        /* \"#utility.yul\":7570:7663   */\n      tag_158\n        /* \"#utility.yul\":7659:7662   */\n      dup3\n        /* \"#utility.yul\":7570:7663   */\n      tag_75\n      jump\t// in\n    tag_158:\n        /* \"#utility.yul\":7688:7690   */\n      0x20\n        /* \"#utility.yul\":7683:7686   */\n      dup3\n        /* \"#utility.yul\":7679:7691   */\n      add\n        /* \"#utility.yul\":7672:7691   */\n      swap1\n      pop\n        /* \"#utility.yul\":7331:7697   */\n      swap2\n      swap1\n      pop\n      jump\t// out\n        /* \"#utility.yul\":7703:8122   */\n    tag_48:\n        /* \"#utility.yul\":7869:7873   */\n      0x00\n        /* \"#utility.yul\":7907:7909   */\n      0x20\n        /* \"#utility.yul\":7896:7905   */\n      dup3\n        /* \"#utility.yul\":7892:7910   */\n      add\n        /* \"#utility.yul\":7884:7910   */\n      swap1\n      pop\n        /* \"#utility.yul\":7956:7965   */\n      dup2\n        /* \"#utility.yul\":7950:7954   */\n      dup2\n        /* \"#utility.yul\":7946:7966   */\n      sub\n        /* \"#utility.yul\":7942:7943   */\n      0x00\n        /* \"#utility.yul\":7931:7940   */\n      dup4\n        /* \"#utility.yul\":7927:7944   */\n      add\n        /* \"#utility.yul\":7920:7967   */\n      mstore\n        /* \"#utility.yul\":7984:8115   */\n      tag_160\n        /* \"#utility.yul\":8110:8114   */\n      dup2\n        /* \"#utility.yul\":7984:8115   */\n      tag_76\n      jump\t// in\n    tag_160:\n        /* \"#utility.yul\":7976:8115   */\n      swap1\n      pop\n        /* \"#utility.yul\":7703:8122   */\n      swap2\n      swap1\n      pop\n      jump\t// out\n        /* \"#utility.yul\":8128:8299   */\n    tag_77:\n        /* \"#utility.yul\":8268:8291   */\n      0x707574206174206c656173742031206e756d6265720000000000000000000000\n        /* \"#utility.yul\":8264:8265   */\n      0x00\n        /* \"#utility.yul\":8256:8262   */\n      dup3\n        /* \"#utility.yul\":8252:8266   */\n      add\n        /* \"#utility.yul\":8245:8292   */\n      mstore\n        /* \"#utility.yul\":8128:8299   */\n      pop\n      jump\t// out\n        /* \"#utility.yul\":8305:8671   */\n    tag_78:\n        /* \"#utility.yul\":8447:8450   */\n      0x00\n        /* \"#utility.yul\":8468:8535   */\n      tag_163\n        /* \"#utility.yul\":8532:8534   */\n      0x15\n        /* \"#utility.yul\":8527:8530   */\n      dup4\n        /* \"#utility.yul\":8468:8535   */\n      tag_72\n      jump\t// in\n    tag_163:\n        /* \"#utility.yul\":8461:8535   */\n      swap2\n      pop\n        /* \"#utility.yul\":8544:8637   */\n      tag_164\n        /* \"#utility.yul\":8633:8636   */\n      dup3\n        /* \"#utility.yul\":8544:8637   */\n      tag_77\n      jump\t// in\n    tag_164:\n        /* \"#utility.yul\":8662:8664   */\n      0x20\n        /* \"#utility.yul\":8657:8660   */\n      dup3\n        /* \"#utility.yul\":8653:8665   */\n      add\n        /* \"#utility.yul\":8646:8665   */\n      swap1\n      pop\n        /* \"#utility.yul\":8305:8671   */\n      swap2\n      swap1\n      pop\n      jump\t// out\n        /* \"#utility.yul\":8677:9096   */\n    tag_51:\n        /* \"#utility.yul\":8843:8847   */\n      0x00\n        /* \"#utility.yul\":8881:8883   */\n      0x20\n        /* \"#utility.yul\":8870:8879   */\n      dup3\n        /* \"#utility.yul\":8866:8884   */\n      add\n        /* \"#utility.yul\":8858:8884   */\n      swap1\n      pop\n        /* \"#utility.yul\":8930:8939   */\n      dup2\n        /* \"#utility.yul\":8924:8928   */\n      dup2\n        /* \"#utility.yul\":8920:8940   */\n      sub\n        /* \"#utility.yul\":8916:8917   */\n      0x00\n        /* \"#utility.yul\":8905:8914   */\n      dup4\n        /* \"#utility.yul\":8901:8918   */\n      add\n        /* \"#utility.yul\":8894:8941   */\n      mstore\n        /* \"#utility.yul\":8958:9089   */\n      tag_166\n        /* \"#utility.yul\":9084:9088   */\n      dup2\n        /* \"#utility.yul\":8958:9089   */\n      tag_78\n      jump\t// in\n    tag_166:\n        /* \"#utility.yul\":8950:9089   */\n      swap1\n      pop\n        /* \"#utility.yul\":8677:9096   */\n      swap2\n      swap1\n      pop\n      jump\t// out\n\n    auxdata: 0xa2646970667358221220785c70bd1b4360e35fd5be07ccedc33edfdd114caf96d609861bfaed54c492c864736f6c63430008190033\n}\n",
				"bytecode": {
					"linkReferences": {},
					"object": "6080604052348015600e575f80fd5b506108578061001c5f395ff3fe608060405234801561000f575f80fd5b5060043610610034575f3560e01c806312c04ec2146100385780631b253ba614610068575b5f80fd5b610052600480360381019061004d91906104de565b61009a565b60405161005f919061055f565b60405180910390f35b610082600480360381019061007d9190610616565b6100c0565b60405161009193929190610677565b60405180910390f35b5f815f815181106100ae576100ad6106ac565b5b602001015160f81c60f81b9050919050565b5f805f805f805f8790505f5b81518110156102bc57604060f81b8282815181106100ed576100ec6106ac565b5b602001015160f81c60f81b7effffffffffffffffffffffffffffffffffffffffffffffffffffffffffffff19161180156101695750605b60f81b82828151811061013a576101396106ac565b5b602001015160f81c60f81b7effffffffffffffffffffffffffffffffffffffffffffffffffffffffffffff1916105b1561017357600193505b606060f81b82828151811061018b5761018a6106ac565b5b602001015160f81c60f81b7effffffffffffffffffffffffffffffffffffffffffffffffffffffffffffff19161180156102075750607b60f81b8282815181106101d8576101d76106ac565b5b602001015160f81c60f81b7effffffffffffffffffffffffffffffffffffffffffffffffffffffffffffff1916105b1561021157600194505b603060f81b828281518110610229576102286106ac565b5b602001015160f81c60f81b7effffffffffffffffffffffffffffffffffffffffffffffffffffffffffffff19161180156102a55750604060f81b828281518110610276576102756106ac565b5b602001015160f81c60f81b7effffffffffffffffffffffffffffffffffffffffffffffffffffffffffffff1916105b156102af57600192505b80806001019150506100cc565b50836102fd576040517f08c379a00000000000000000000000000000000000000000000000000000000081526004016102f490610733565b60405180910390fd5b8261033d576040517f08c379a00000000000000000000000000000000000000000000000000000000081526004016103349061079b565b60405180910390fd5b8161037d576040517f08c379a000000000000000000000000000000000000000000000000000000000815260040161037490610803565b60405180910390fd5b828483965096509650505050509193909250565b5f604051905090565b5f80fd5b5f80fd5b5f80fd5b5f80fd5b5f601f19601f8301169050919050565b7f4e487b71000000000000000000000000000000000000000000000000000000005f52604160045260245ffd5b6103f0826103aa565b810181811067ffffffffffffffff8211171561040f5761040e6103ba565b5b80604052505050565b5f610421610391565b905061042d82826103e7565b919050565b5f67ffffffffffffffff82111561044c5761044b6103ba565b5b610455826103aa565b9050602081019050919050565b828183375f83830152505050565b5f61048261047d84610432565b610418565b90508281526020810184848401111561049e5761049d6103a6565b5b6104a9848285610462565b509392505050565b5f82601f8301126104c5576104c46103a2565b5b81356104d5848260208601610470565b91505092915050565b5f602082840312156104f3576104f261039a565b5b5f82013567ffffffffffffffff8111156105105761050f61039e565b5b61051c848285016104b1565b91505092915050565b5f7fff0000000000000000000000000000000000000000000000000000000000000082169050919050565b61055981610525565b82525050565b5f6020820190506105725f830184610550565b92915050565b5f67ffffffffffffffff821115610592576105916103ba565b5b61059b826103aa565b9050602081019050919050565b5f6105ba6105b584610578565b610418565b9050828152602081018484840111156105d6576105d56103a6565b5b6105e1848285610462565b509392505050565b5f82601f8301126105fd576105fc6103a2565b5b813561060d8482602086016105a8565b91505092915050565b5f6020828403121561062b5761062a61039a565b5b5f82013567ffffffffffffffff8111156106485761064761039e565b5b610654848285016105e9565b91505092915050565b5f8115159050919050565b6106718161065d565b82525050565b5f60608201905061068a5f830186610668565b6106976020830185610668565b6106a46040830184610668565b949350505050565b7f4e487b71000000000000000000000000000000000000000000000000000000005f52603260045260245ffd5b5f82825260208201905092915050565b7f707574206174206c65617374203120736d616c6c206c657474657200000000005f82015250565b5f61071d601b836106d9565b9150610728826106e9565b602082019050919050565b5f6020820190508181035f83015261074a81610711565b9050919050565b7f707574206174206c656173742031206361706974616c206c65747465720000005f82015250565b5f610785601d836106d9565b915061079082610751565b602082019050919050565b5f6020820190508181035f8301526107b281610779565b9050919050565b7f707574206174206c656173742031206e756d62657200000000000000000000005f82015250565b5f6107ed6015836106d9565b91506107f8826107b9565b602082019050919050565b5f6020820190508181035f83015261081a816107e1565b905091905056fea2646970667358221220785c70bd1b4360e35fd5be07ccedc33edfdd114caf96d609861bfaed54c492c864736f6c63430008190033",
					"opcodes": "PUSH1 0x80 PUSH1 0x40 MSTORE CALLVALUE DUP1 ISZERO PUSH1 0xE JUMPI PUSH0 DUP1 REVERT JUMPDEST POP PUSH2 0x857 DUP1 PUSH2 0x1C PUSH0 CODECOPY PUSH0 RETURN INVALID PUSH1 0x80 PUSH1 0x40 MSTORE CALLVALUE DUP1 ISZERO PUSH2 0xF JUMPI PUSH0 DUP1 REVERT JUMPDEST POP PUSH1 0x4 CALLDATASIZE LT PUSH2 0x34 JUMPI PUSH0 CALLDATALOAD PUSH1 0xE0 SHR DUP1 PUSH4 0x12C04EC2 EQ PUSH2 0x38 JUMPI DUP1 PUSH4 0x1B253BA6 EQ PUSH2 0x68 JUMPI JUMPDEST PUSH0 DUP1 REVERT JUMPDEST PUSH2 0x52 PUSH1 0x4 DUP1 CALLDATASIZE SUB DUP2 ADD SWAP1 PUSH2 0x4D SWAP2 SWAP1 PUSH2 0x4DE JUMP JUMPDEST PUSH2 0x9A JUMP JUMPDEST PUSH1 0x40 MLOAD PUSH2 0x5F SWAP2 SWAP1 PUSH2 0x55F JUMP JUMPDEST PUSH1 0x40 MLOAD DUP1 SWAP2 SUB SWAP1 RETURN JUMPDEST PUSH2 0x82 PUSH1 0x4 DUP1 CALLDATASIZE SUB DUP2 ADD SWAP1 PUSH2 0x7D SWAP2 SWAP1 PUSH2 0x616 JUMP JUMPDEST PUSH2 0xC0 JUMP JUMPDEST PUSH1 0x40 MLOAD PUSH2 0x91 SWAP4 SWAP3 SWAP2 SWAP1 PUSH2 0x677 JUMP JUMPDEST PUSH1 0x40 MLOAD DUP1 SWAP2 SUB SWAP1 RETURN JUMPDEST PUSH0 DUP2 PUSH0 DUP2 MLOAD DUP2 LT PUSH2 0xAE JUMPI PUSH2 0xAD PUSH2 0x6AC JUMP JUMPDEST JUMPDEST PUSH1 0x20 ADD ADD MLOAD PUSH1 0xF8 SHR PUSH1 0xF8 SHL SWAP1 POP SWAP2 SWAP1 POP JUMP JUMPDEST PUSH0 DUP1 PUSH0 DUP1 PUSH0 DUP1 PUSH0 DUP8 SWAP1 POP PUSH0 JUMPDEST DUP2 MLOAD DUP2 LT ISZERO PUSH2 0x2BC JUMPI PUSH1 0x40 PUSH1 0xF8 SHL DUP3 DUP3 DUP2 MLOAD DUP2 LT PUSH2 0xED JUMPI PUSH2 0xEC PUSH2 0x6AC JUMP JUMPDEST JUMPDEST PUSH1 0x20 ADD ADD MLOAD PUSH1 0xF8 SHR PUSH1 0xF8 SHL PUSH31 0xFFFFFFFFFFFFFFFFFFFFFFFFFFFFFFFFFFFFFFFFFFFFFFFFFFFFFFFFFFFFFF NOT AND GT DUP1 ISZERO PUSH2 0x169 JUMPI POP PUSH1 0x5B PUSH1 0xF8 SHL DUP3 DUP3 DUP2 MLOAD DUP2 LT PUSH2 0x13A JUMPI PUSH2 0x139 PUSH2 0x6AC JUMP JUMPDEST JUMPDEST PUSH1 0x20 ADD ADD MLOAD PUSH1 0xF8 SHR PUSH1 0xF8 SHL PUSH31 0xFFFFFFFFFFFFFFFFFFFFFFFFFFFFFFFFFFFFFFFFFFFFFFFFFFFFFFFFFFFFFF NOT AND LT JUMPDEST ISZERO PUSH2 0x173 JUMPI PUSH1 0x1 SWAP4 POP JUMPDEST PUSH1 0x60 PUSH1 0xF8 SHL DUP3 DUP3 DUP2 MLOAD DUP2 LT PUSH2 0x18B JUMPI PUSH2 0x18A PUSH2 0x6AC JUMP JUMPDEST JUMPDEST PUSH1 0x20 ADD ADD MLOAD PUSH1 0xF8 SHR PUSH1 0xF8 SHL PUSH31 0xFFFFFFFFFFFFFFFFFFFFFFFFFFFFFFFFFFFFFFFFFFFFFFFFFFFFFFFFFFFFFF NOT AND GT DUP1 ISZERO PUSH2 0x207 JUMPI POP PUSH1 0x7B PUSH1 0xF8 SHL DUP3 DUP3 DUP2 MLOAD DUP2 LT PUSH2 0x1D8 JUMPI PUSH2 0x1D7 PUSH2 0x6AC JUMP JUMPDEST JUMPDEST PUSH1 0x20 ADD ADD MLOAD PUSH1 0xF8 SHR PUSH1 0xF8 SHL PUSH31 0xFFFFFFFFFFFFFFFFFFFFFFFFFFFFFFFFFFFFFFFFFFFFFFFFFFFFFFFFFFFFFF NOT AND LT JUMPDEST ISZERO PUSH2 0x211 JUMPI PUSH1 0x1 SWAP5 POP JUMPDEST PUSH1 0x30 PUSH1 0xF8 SHL DUP3 DUP3 DUP2 MLOAD DUP2 LT PUSH2 0x229 JUMPI PUSH2 0x228 PUSH2 0x6AC JUMP JUMPDEST JUMPDEST PUSH1 0x20 ADD ADD MLOAD PUSH1 0xF8 SHR PUSH1 0xF8 SHL PUSH31 0xFFFFFFFFFFFFFFFFFFFFFFFFFFFFFFFFFFFFFFFFFFFFFFFFFFFFFFFFFFFFFF NOT AND GT DUP1 ISZERO PUSH2 0x2A5 JUMPI POP PUSH1 0x40 PUSH1 0xF8 SHL DUP3 DUP3 DUP2 MLOAD DUP2 LT PUSH2 0x276 JUMPI PUSH2 0x275 PUSH2 0x6AC JUMP JUMPDEST JUMPDEST PUSH1 0x20 ADD ADD MLOAD PUSH1 0xF8 SHR PUSH1 0xF8 SHL PUSH31 0xFFFFFFFFFFFFFFFFFFFFFFFFFFFFFFFFFFFFFFFFFFFFFFFFFFFFFFFFFFFFFF NOT AND LT JUMPDEST ISZERO PUSH2 0x2AF JUMPI PUSH1 0x1 SWAP3 POP JUMPDEST DUP1 DUP1 PUSH1 0x1 ADD SWAP2 POP POP PUSH2 0xCC JUMP JUMPDEST POP DUP4 PUSH2 0x2FD JUMPI PUSH1 0x40 MLOAD PUSH32 0x8C379A000000000000000000000000000000000000000000000000000000000 DUP2 MSTORE PUSH1 0x4 ADD PUSH2 0x2F4 SWAP1 PUSH2 0x733 JUMP JUMPDEST PUSH1 0x40 MLOAD DUP1 SWAP2 SUB SWAP1 REVERT JUMPDEST DUP3 PUSH2 0x33D JUMPI PUSH1 0x40 MLOAD PUSH32 0x8C379A000000000000000000000000000000000000000000000000000000000 DUP2 MSTORE PUSH1 0x4 ADD PUSH2 0x334 SWAP1 PUSH2 0x79B JUMP JUMPDEST PUSH1 0x40 MLOAD DUP1 SWAP2 SUB SWAP1 REVERT JUMPDEST DUP2 PUSH2 0x37D JUMPI PUSH1 0x40 MLOAD PUSH32 0x8C379A000000000000000000000000000000000000000000000000000000000 DUP2 MSTORE PUSH1 0x4 ADD PUSH2 0x374 SWAP1 PUSH2 0x803 JUMP JUMPDEST PUSH1 0x40 MLOAD DUP1 SWAP2 SUB SWAP1 REVERT JUMPDEST DUP3 DUP5 DUP4 SWAP7 POP SWAP7 POP SWAP7 POP POP POP POP POP SWAP2 SWAP4 SWAP1 SWAP3 POP JUMP JUMPDEST PUSH0 PUSH1 0x40 MLOAD SWAP1 POP SWAP1 JUMP JUMPDEST PUSH0 DUP1 REVERT JUMPDEST PUSH0 DUP1 REVERT JUMPDEST PUSH0 DUP1 REVERT JUMPDEST PUSH0 DUP1 REVERT JUMPDEST PUSH0 PUSH1 0x1F NOT PUSH1 0x1F DUP4 ADD AND SWAP1 POP SWAP2 SWAP1 POP JUMP JUMPDEST PUSH32 0x4E487B7100000000000000000000000000000000000000000000000000000000 PUSH0 MSTORE PUSH1 0x41 PUSH1 0x4 MSTORE PUSH1 0x24 PUSH0 REVERT JUMPDEST PUSH2 0x3F0 DUP3 PUSH2 0x3AA JUMP JUMPDEST DUP2 ADD DUP2 DUP2 LT PUSH8 0xFFFFFFFFFFFFFFFF DUP3 GT OR ISZERO PUSH2 0x40F JUMPI PUSH2 0x40E PUSH2 0x3BA JUMP JUMPDEST JUMPDEST DUP1 PUSH1 0x40 MSTORE POP POP POP JUMP JUMPDEST PUSH0 PUSH2 0x421 PUSH2 0x391 JUMP JUMPDEST SWAP1 POP PUSH2 0x42D DUP3 DUP3 PUSH2 0x3E7 JUMP JUMPDEST SWAP2 SWAP1 POP JUMP JUMPDEST PUSH0 PUSH8 0xFFFFFFFFFFFFFFFF DUP3 GT ISZERO PUSH2 0x44C JUMPI PUSH2 0x44B PUSH2 0x3BA JUMP JUMPDEST JUMPDEST PUSH2 0x455 DUP3 PUSH2 0x3AA JUMP JUMPDEST SWAP1 POP PUSH1 0x20 DUP2 ADD SWAP1 POP SWAP2 SWAP1 POP JUMP JUMPDEST DUP3 DUP2 DUP4 CALLDATACOPY PUSH0 DUP4 DUP4 ADD MSTORE POP POP POP JUMP JUMPDEST PUSH0 PUSH2 0x482 PUSH2 0x47D DUP5 PUSH2 0x432 JUMP JUMPDEST PUSH2 0x418 JUMP JUMPDEST SWAP1 POP DUP3 DUP2 MSTORE PUSH1 0x20 DUP2 ADD DUP5 DUP5 DUP5 ADD GT ISZERO PUSH2 0x49E JUMPI PUSH2 0x49D PUSH2 0x3A6 JUMP JUMPDEST JUMPDEST PUSH2 0x4A9 DUP5 DUP3 DUP6 PUSH2 0x462 JUMP JUMPDEST POP SWAP4 SWAP3 POP POP POP JUMP JUMPDEST PUSH0 DUP3 PUSH1 0x1F DUP4 ADD SLT PUSH2 0x4C5 JUMPI PUSH2 0x4C4 PUSH2 0x3A2 JUMP JUMPDEST JUMPDEST DUP2 CALLDATALOAD PUSH2 0x4D5 DUP5 DUP3 PUSH1 0x20 DUP7 ADD PUSH2 0x470 JUMP JUMPDEST SWAP2 POP POP SWAP3 SWAP2 POP POP JUMP JUMPDEST PUSH0 PUSH1 0x20 DUP3 DUP5 SUB SLT ISZERO PUSH2 0x4F3 JUMPI PUSH2 0x4F2 PUSH2 0x39A JUMP JUMPDEST JUMPDEST PUSH0 DUP3 ADD CALLDATALOAD PUSH8 0xFFFFFFFFFFFFFFFF DUP2 GT ISZERO PUSH2 0x510 JUMPI PUSH2 0x50F PUSH2 0x39E JUMP JUMPDEST JUMPDEST PUSH2 0x51C DUP5 DUP3 DUP6 ADD PUSH2 0x4B1 JUMP JUMPDEST SWAP2 POP POP SWAP3 SWAP2 POP POP JUMP JUMPDEST PUSH0 PUSH32 0xFF00000000000000000000000000000000000000000000000000000000000000 DUP3 AND SWAP1 POP SWAP2 SWAP1 POP JUMP JUMPDEST PUSH2 0x559 DUP2 PUSH2 0x525 JUMP JUMPDEST DUP3 MSTORE POP POP JUMP JUMPDEST PUSH0 PUSH1 0x20 DUP3 ADD SWAP1 POP PUSH2 0x572 PUSH0 DUP4 ADD DUP5 PUSH2 0x550 JUMP JUMPDEST SWAP3 SWAP2 POP POP JUMP JUMPDEST PUSH0 PUSH8 0xFFFFFFFFFFFFFFFF DUP3 GT ISZERO PUSH2 0x592 JUMPI PUSH2 0x591 PUSH2 0x3BA JUMP JUMPDEST JUMPDEST PUSH2 0x59B DUP3 PUSH2 0x3AA JUMP JUMPDEST SWAP1 POP PUSH1 0x20 DUP2 ADD SWAP1 POP SWAP2 SWAP1 POP JUMP JUMPDEST PUSH0 PUSH2 0x5BA PUSH2 0x5B5 DUP5 PUSH2 0x578 JUMP JUMPDEST PUSH2 0x418 JUMP JUMPDEST SWAP1 POP DUP3 DUP2 MSTORE PUSH1 0x20 DUP2 ADD DUP5 DUP5 DUP5 ADD GT ISZERO PUSH2 0x5D6 JUMPI PUSH2 0x5D5 PUSH2 0x3A6 JUMP JUMPDEST JUMPDEST PUSH2 0x5E1 DUP5 DUP3 DUP6 PUSH2 0x462 JUMP JUMPDEST POP SWAP4 SWAP3 POP POP POP JUMP JUMPDEST PUSH0 DUP3 PUSH1 0x1F DUP4 ADD SLT PUSH2 0x5FD JUMPI PUSH2 0x5FC PUSH2 0x3A2 JUMP JUMPDEST JUMPDEST DUP2 CALLDATALOAD PUSH2 0x60D DUP5 DUP3 PUSH1 0x20 DUP7 ADD PUSH2 0x5A8 JUMP JUMPDEST SWAP2 POP POP SWAP3 SWAP2 POP POP JUMP JUMPDEST PUSH0 PUSH1 0x20 DUP3 DUP5 SUB SLT ISZERO PUSH2 0x62B JUMPI PUSH2 0x62A PUSH2 0x39A JUMP JUMPDEST JUMPDEST PUSH0 DUP3 ADD CALLDATALOAD PUSH8 0xFFFFFFFFFFFFFFFF DUP2 GT ISZERO PUSH2 0x648 JUMPI PUSH2 0x647 PUSH2 0x39E JUMP JUMPDEST JUMPDEST PUSH2 0x654 DUP5 DUP3 DUP6 ADD PUSH2 0x5E9 JUMP JUMPDEST SWAP2 POP POP SWAP3 SWAP2 POP POP JUMP JUMPDEST PUSH0 DUP2 ISZERO ISZERO SWAP1 POP SWAP2 SWAP1 POP JUMP JUMPDEST PUSH2 0x671 DUP2 PUSH2 0x65D JUMP JUMPDEST DUP3 MSTORE POP POP JUMP JUMPDEST PUSH0 PUSH1 0x60 DUP3 ADD SWAP1 POP PUSH2 0x68A PUSH0 DUP4 ADD DUP7 PUSH2 0x668 JUMP JUMPDEST PUSH2 0x697 PUSH1 0x20 DUP4 ADD DUP6 PUSH2 0x668 JUMP JUMPDEST PUSH2 0x6A4 PUSH1 0x40 DUP4 ADD DUP5 PUSH2 0x668 JUMP JUMPDEST SWAP5 SWAP4 POP POP POP POP JUMP JUMPDEST PUSH32 0x4E487B7100000000000000000000000000000000000000000000000000000000 PUSH0 MSTORE PUSH1 0x32 PUSH1 0x4 MSTORE PUSH1 0x24 PUSH0 REVERT JUMPDEST PUSH0 DUP3 DUP3 MSTORE PUSH1 0x20 DUP3 ADD SWAP1 POP SWAP3 SWAP2 POP POP JUMP JUMPDEST PUSH32 0x707574206174206C65617374203120736D616C6C206C65747465720000000000 PUSH0 DUP3 ADD MSTORE POP JUMP JUMPDEST PUSH0 PUSH2 0x71D PUSH1 0x1B DUP4 PUSH2 0x6D9 JUMP JUMPDEST SWAP2 POP PUSH2 0x728 DUP3 PUSH2 0x6E9 JUMP JUMPDEST PUSH1 0x20 DUP3 ADD SWAP1 POP SWAP2 SWAP1 POP JUMP JUMPDEST PUSH0 PUSH1 0x20 DUP3 ADD SWAP1 POP DUP2 DUP2 SUB PUSH0 DUP4 ADD MSTORE PUSH2 0x74A DUP2 PUSH2 0x711 JUMP JUMPDEST SWAP1 POP SWAP2 SWAP1 POP JUMP JUMPDEST PUSH32 0x707574206174206C656173742031206361706974616C206C6574746572000000 PUSH0 DUP3 ADD MSTORE POP JUMP JUMPDEST PUSH0 PUSH2 0x785 PUSH1 0x1D DUP4 PUSH2 0x6D9 JUMP JUMPDEST SWAP2 POP PUSH2 0x790 DUP3 PUSH2 0x751 JUMP JUMPDEST PUSH1 0x20 DUP3 ADD SWAP1 POP SWAP2 SWAP1 POP JUMP JUMPDEST PUSH0 PUSH1 0x20 DUP3 ADD SWAP1 POP DUP2 DUP2 SUB PUSH0 DUP4 ADD MSTORE PUSH2 0x7B2 DUP2 PUSH2 0x779 JUMP JUMPDEST SWAP1 POP SWAP2 SWAP1 POP JUMP JUMPDEST PUSH32 0x707574206174206C656173742031206E756D6265720000000000000000000000 PUSH0 DUP3 ADD MSTORE POP JUMP JUMPDEST PUSH0 PUSH2 0x7ED PUSH1 0x15 DUP4 PUSH2 0x6D9 JUMP JUMPDEST SWAP2 POP PUSH2 0x7F8 DUP3 PUSH2 0x7B9 JUMP JUMPDEST PUSH1 0x20 DUP3 ADD SWAP1 POP SWAP2 SWAP1 POP JUMP JUMPDEST PUSH0 PUSH1 0x20 DUP3 ADD SWAP1 POP DUP2 DUP2 SUB PUSH0 DUP4 ADD MSTORE PUSH2 0x81A DUP2 PUSH2 0x7E1 JUMP JUMPDEST SWAP1 POP SWAP2 SWAP1 POP JUMP INVALID LOG2 PUSH5 0x6970667358 0x22 SLT KECCAK256 PUSH25 0x5C70BD1B4360E35FD5BE07CCEDC33EDFDD114CAF96D609861B STATICCALL 0xED SLOAD 0xC4 SWAP3 0xC8 PUSH5 0x736F6C6343 STOP ADDMOD NOT STOP CALLER "
				},
				"gasEstimates": {
					"creation": {
						"codeDepositCost": "427000",
						"executionCost": "459",
						"totalCost": "427459"
					},
					"external": {
						"generatePW(string)": "infinite",
						"splitBytes(bytes)": "infinite"
					}
				},
				"methodIdentifiers": {
					"generatePW(string)": "1b253ba6",
					"splitBytes(bytes)": "12c04ec2"
				}
			},
			"storageLayout": {
				"storage": [],
				"types": null
			},
			"userdoc": {
				"kind": "user",
				"methods": {},
				"version": 1
			}
		}
	}
}