{
	"solidity_test/test9.sol": {
		"TEST9": {
			"abi": [
				{
					"inputs": [
						{
							"internalType": "string",
							"name": "_pw",
							"type": "string"
						}
					],
					"name": "generatePW",
					"outputs": [
						{
							"internalType": "uint256",
							"name": "",
							"type": "uint256"
						}
					],
					"stateMutability": "pure",
					"type": "function"
				},
				{
					"inputs": [
						{
							"internalType": "bytes",
							"name": "_b",
							"type": "bytes"
						}
					],
					"name": "splitBytes",
					"outputs": [
						{
							"internalType": "bytes1",
							"name": "",
							"type": "bytes1"
						}
					],
					"stateMutability": "pure",
					"type": "function"
				}
			],
			"devdoc": {
				"kind": "dev",
				"methods": {},
				"version": 1
			},
			"evm": {
				"assembly": "    /* \"solidity_test/test9.sol\":1611:3058  contract TEST9 {... */\n  mstore(0x40, 0x80)\n  callvalue\n  dup1\n  iszero\n  tag_1\n  jumpi\n  0x00\n  dup1\n  revert\ntag_1:\n  pop\n  dataSize(sub_0)\n  dup1\n  dataOffset(sub_0)\n  0x00\n  codecopy\n  0x00\n  return\nstop\n\nsub_0: assembly {\n        /* \"solidity_test/test9.sol\":1611:3058  contract TEST9 {... */\n      mstore(0x40, 0x80)\n      callvalue\n      dup1\n      iszero\n      tag_1\n      jumpi\n      0x00\n      dup1\n      revert\n    tag_1:\n      pop\n      jumpi(tag_2, lt(calldatasize, 0x04))\n      shr(0xe0, calldataload(0x00))\n      dup1\n      0x12c04ec2\n      eq\n      tag_3\n      jumpi\n      dup1\n      0x1b253ba6\n      eq\n      tag_4\n      jumpi\n    tag_2:\n      0x00\n      dup1\n      revert\n        /* \"solidity_test/test9.sol\":2249:2345  function splitBytes(bytes memory _b) public pure returns(bytes1) {... */\n    tag_3:\n      tag_5\n      0x04\n      dup1\n      calldatasize\n      sub\n      dup2\n      add\n      swap1\n      tag_6\n      swap2\n      swap1\n      tag_7\n      jump\t// in\n    tag_6:\n      tag_8\n      jump\t// in\n    tag_5:\n      mload(0x40)\n      tag_9\n      swap2\n      swap1\n      tag_10\n      jump\t// in\n    tag_9:\n      mload(0x40)\n      dup1\n      swap2\n      sub\n      swap1\n      return\n        /* \"solidity_test/test9.sol\":2353:3055  function generatePW(string memory _pw) public pure returns(uint){... */\n    tag_4:\n      tag_11\n      0x04\n      dup1\n      calldatasize\n      sub\n      dup2\n      add\n      swap1\n      tag_12\n      swap2\n      swap1\n      tag_13\n      jump\t// in\n    tag_12:\n      tag_14\n      jump\t// in\n    tag_11:\n      mload(0x40)\n      tag_15\n      swap2\n      swap1\n      tag_16\n      jump\t// in\n    tag_15:\n      mload(0x40)\n      dup1\n      swap2\n      sub\n      swap1\n      return\n        /* \"solidity_test/test9.sol\":2249:2345  function splitBytes(bytes memory _b) public pure returns(bytes1) {... */\n    tag_8:\n        /* \"solidity_test/test9.sol\":2306:2312  bytes1 */\n      0x00\n        /* \"solidity_test/test9.sol\":2332:2334  _b */\n      dup2\n        /* \"solidity_test/test9.sol\":2335:2336  0 */\n      0x00\n        /* \"solidity_test/test9.sol\":2332:2337  _b[0] */\n      dup2\n      mload\n      dup2\n      lt\n      tag_18\n      jumpi\n      tag_19\n      tag_20\n      jump\t// in\n    tag_19:\n    tag_18:\n      0x20\n      add\n      add\n      mload\n      0xf8\n      shr\n      0xf8\n      shl\n        /* \"solidity_test/test9.sol\":2325:2337  return _b[0] */\n      swap1\n      pop\n        /* \"solidity_test/test9.sol\":2249:2345  function splitBytes(bytes memory _b) public pure returns(bytes1) {... */\n      swap2\n      swap1\n      pop\n      jump\t// out\n        /* \"solidity_test/test9.sol\":2353:3055  function generatePW(string memory _pw) public pure returns(uint){... */\n    tag_14:\n        /* \"solidity_test/test9.sol\":2412:2416  uint */\n      0x00\n        /* \"solidity_test/test9.sol\":2428:2437  uint sign */\n      dup1\n        /* \"solidity_test/test9.sol\":2450:2465  bytes memory pw */\n      0x00\n        /* \"solidity_test/test9.sol\":2474:2477  _pw */\n      dup4\n        /* \"solidity_test/test9.sol\":2450:2478  bytes memory pw = bytes(_pw) */\n      swap1\n      pop\n        /* \"solidity_test/test9.sol\":2504:2510  uint i */\n      0x00\n        /* \"solidity_test/test9.sol\":2499:2838  for (uint i = 0; i < pw.length; i++) {... */\n    tag_22:\n        /* \"solidity_test/test9.sol\":2520:2522  pw */\n      dup2\n        /* \"solidity_test/test9.sol\":2520:2529  pw.length */\n      mload\n        /* \"solidity_test/test9.sol\":2516:2517  i */\n      dup2\n        /* \"solidity_test/test9.sol\":2516:2529  i < pw.length */\n      lt\n        /* \"solidity_test/test9.sol\":2499:2838  for (uint i = 0; i < pw.length; i++) {... */\n      iszero\n      tag_23\n      jumpi\n        /* \"solidity_test/test9.sol\":2562:2566  0x40 */\n      0x40\n        /* \"solidity_test/test9.sol\":2554:2566  pw[i] > 0x40 */\n      0xf8\n      shl\n        /* \"solidity_test/test9.sol\":2554:2556  pw */\n      dup3\n        /* \"solidity_test/test9.sol\":2557:2558  i */\n      dup3\n        /* \"solidity_test/test9.sol\":2554:2559  pw[i] */\n      dup2\n      mload\n      dup2\n      lt\n      tag_25\n      jumpi\n      tag_26\n      tag_20\n      jump\t// in\n    tag_26:\n    tag_25:\n      0x20\n      add\n      add\n      mload\n      0xf8\n      shr\n      0xf8\n      shl\n        /* \"solidity_test/test9.sol\":2554:2566  pw[i] > 0x40 */\n      not(0xffffffffffffffffffffffffffffffffffffffffffffffffffffffffffffff)\n      and\n      gt\n        /* \"solidity_test/test9.sol\":2554:2582  pw[i] > 0x40 && pw[i] < 0x5B */\n      dup1\n      iszero\n      tag_27\n      jumpi\n      pop\n        /* \"solidity_test/test9.sol\":2578:2582  0x5B */\n      0x5b\n        /* \"solidity_test/test9.sol\":2570:2582  pw[i] < 0x5B */\n      0xf8\n      shl\n        /* \"solidity_test/test9.sol\":2570:2572  pw */\n      dup3\n        /* \"solidity_test/test9.sol\":2573:2574  i */\n      dup3\n        /* \"solidity_test/test9.sol\":2570:2575  pw[i] */\n      dup2\n      mload\n      dup2\n      lt\n      tag_28\n      jumpi\n      tag_29\n      tag_20\n      jump\t// in\n    tag_29:\n    tag_28:\n      0x20\n      add\n      add\n      mload\n      0xf8\n      shr\n      0xf8\n      shl\n        /* \"solidity_test/test9.sol\":2570:2582  pw[i] < 0x5B */\n      not(0xffffffffffffffffffffffffffffffffffffffffffffffffffffffffffffff)\n      and\n      lt\n        /* \"solidity_test/test9.sol\":2554:2582  pw[i] > 0x40 && pw[i] < 0x5B */\n    tag_27:\n        /* \"solidity_test/test9.sol\":2551:2627  if(pw[i] > 0x40 && pw[i] < 0x5B){... */\n      iszero\n      tag_30\n      jumpi\n        /* \"solidity_test/test9.sol\":2610:2611  1 */\n      0x01\n        /* \"solidity_test/test9.sol\":2602:2611  sign |= 1 */\n      dup4\n      or\n      swap3\n      pop\n        /* \"solidity_test/test9.sol\":2551:2627  if(pw[i] > 0x40 && pw[i] < 0x5B){... */\n    tag_30:\n        /* \"solidity_test/test9.sol\":2656:2660  0x60 */\n      0x60\n        /* \"solidity_test/test9.sol\":2648:2660  pw[i] > 0x60 */\n      0xf8\n      shl\n        /* \"solidity_test/test9.sol\":2648:2650  pw */\n      dup3\n        /* \"solidity_test/test9.sol\":2651:2652  i */\n      dup3\n        /* \"solidity_test/test9.sol\":2648:2653  pw[i] */\n      dup2\n      mload\n      dup2\n      lt\n      tag_31\n      jumpi\n      tag_32\n      tag_20\n      jump\t// in\n    tag_32:\n    tag_31:\n      0x20\n      add\n      add\n      mload\n      0xf8\n      shr\n      0xf8\n      shl\n        /* \"solidity_test/test9.sol\":2648:2660  pw[i] > 0x60 */\n      not(0xffffffffffffffffffffffffffffffffffffffffffffffffffffffffffffff)\n      and\n      gt\n        /* \"solidity_test/test9.sol\":2648:2676  pw[i] > 0x60 && pw[i] < 0x7B */\n      dup1\n      iszero\n      tag_33\n      jumpi\n      pop\n        /* \"solidity_test/test9.sol\":2672:2676  0x7B */\n      0x7b\n        /* \"solidity_test/test9.sol\":2664:2676  pw[i] < 0x7B */\n      0xf8\n      shl\n        /* \"solidity_test/test9.sol\":2664:2666  pw */\n      dup3\n        /* \"solidity_test/test9.sol\":2667:2668  i */\n      dup3\n        /* \"solidity_test/test9.sol\":2664:2669  pw[i] */\n      dup2\n      mload\n      dup2\n      lt\n      tag_34\n      jumpi\n      tag_35\n      tag_20\n      jump\t// in\n    tag_35:\n    tag_34:\n      0x20\n      add\n      add\n      mload\n      0xf8\n      shr\n      0xf8\n      shl\n        /* \"solidity_test/test9.sol\":2664:2676  pw[i] < 0x7B */\n      not(0xffffffffffffffffffffffffffffffffffffffffffffffffffffffffffffff)\n      and\n      lt\n        /* \"solidity_test/test9.sol\":2648:2676  pw[i] > 0x60 && pw[i] < 0x7B */\n    tag_33:\n        /* \"solidity_test/test9.sol\":2645:2722  if(pw[i] > 0x60 && pw[i] < 0x7B) {... */\n      iszero\n      tag_36\n      jumpi\n        /* \"solidity_test/test9.sol\":2705:2706  2 */\n      0x02\n        /* \"solidity_test/test9.sol\":2697:2706  sign |= 2 */\n      dup4\n      or\n      swap3\n      pop\n        /* \"solidity_test/test9.sol\":2645:2722  if(pw[i] > 0x60 && pw[i] < 0x7B) {... */\n    tag_36:\n        /* \"solidity_test/test9.sol\":2748:2752  0x30 */\n      0x30\n        /* \"solidity_test/test9.sol\":2740:2752  pw[i] > 0x30 */\n      0xf8\n      shl\n        /* \"solidity_test/test9.sol\":2740:2742  pw */\n      dup3\n        /* \"solidity_test/test9.sol\":2743:2744  i */\n      dup3\n        /* \"solidity_test/test9.sol\":2740:2745  pw[i] */\n      dup2\n      mload\n      dup2\n      lt\n      tag_37\n      jumpi\n      tag_38\n      tag_20\n      jump\t// in\n    tag_38:\n    tag_37:\n      0x20\n      add\n      add\n      mload\n      0xf8\n      shr\n      0xf8\n      shl\n        /* \"solidity_test/test9.sol\":2740:2752  pw[i] > 0x30 */\n      not(0xffffffffffffffffffffffffffffffffffffffffffffffffffffffffffffff)\n      and\n      gt\n        /* \"solidity_test/test9.sol\":2740:2768  pw[i] > 0x30 && pw[i] < 0x40 */\n      dup1\n      iszero\n      tag_39\n      jumpi\n      pop\n        /* \"solidity_test/test9.sol\":2764:2768  0x40 */\n      0x40\n        /* \"solidity_test/test9.sol\":2756:2768  pw[i] < 0x40 */\n      0xf8\n      shl\n        /* \"solidity_test/test9.sol\":2756:2758  pw */\n      dup3\n        /* \"solidity_test/test9.sol\":2759:2760  i */\n      dup3\n        /* \"solidity_test/test9.sol\":2756:2761  pw[i] */\n      dup2\n      mload\n      dup2\n      lt\n      tag_40\n      jumpi\n      tag_41\n      tag_20\n      jump\t// in\n    tag_41:\n    tag_40:\n      0x20\n      add\n      add\n      mload\n      0xf8\n      shr\n      0xf8\n      shl\n        /* \"solidity_test/test9.sol\":2756:2768  pw[i] < 0x40 */\n      not(0xffffffffffffffffffffffffffffffffffffffffffffffffffffffffffffff)\n      and\n      lt\n        /* \"solidity_test/test9.sol\":2740:2768  pw[i] > 0x30 && pw[i] < 0x40 */\n    tag_39:\n        /* \"solidity_test/test9.sol\":2736:2814  if (pw[i] > 0x30 && pw[i] < 0x40) {... */\n      iszero\n      tag_42\n      jumpi\n        /* \"solidity_test/test9.sol\":2797:2798  4 */\n      0x04\n        /* \"solidity_test/test9.sol\":2789:2798  sign |= 4 */\n      dup4\n      or\n      swap3\n      pop\n        /* \"solidity_test/test9.sol\":2736:2814  if (pw[i] > 0x30 && pw[i] < 0x40) {... */\n    tag_42:\n        /* \"solidity_test/test9.sol\":2531:2534  i++ */\n      dup1\n      dup1\n      0x01\n      add\n      swap2\n      pop\n      pop\n        /* \"solidity_test/test9.sol\":2499:2838  for (uint i = 0; i < pw.length; i++) {... */\n      jump(tag_22)\n    tag_23:\n      pop\n        /* \"solidity_test/test9.sol\":3043:3047  sign */\n      dup2\n        /* \"solidity_test/test9.sol\":3036:3047  return sign */\n      swap3\n      pop\n      pop\n      pop\n        /* \"solidity_test/test9.sol\":2353:3055  function generatePW(string memory _pw) public pure returns(uint){... */\n      swap2\n      swap1\n      pop\n      jump\t// out\n        /* \"#utility.yul\":7:82   */\n    tag_43:\n        /* \"#utility.yul\":40:46   */\n      0x00\n        /* \"#utility.yul\":73:75   */\n      0x40\n        /* \"#utility.yul\":67:76   */\n      mload\n        /* \"#utility.yul\":57:76   */\n      swap1\n      pop\n        /* \"#utility.yul\":7:82   */\n      swap1\n      jump\t// out\n        /* \"#utility.yul\":88:205   */\n    tag_44:\n        /* \"#utility.yul\":197:198   */\n      0x00\n        /* \"#utility.yul\":194:195   */\n      dup1\n        /* \"#utility.yul\":187:199   */\n      revert\n        /* \"#utility.yul\":211:328   */\n    tag_45:\n        /* \"#utility.yul\":320:321   */\n      0x00\n        /* \"#utility.yul\":317:318   */\n      dup1\n        /* \"#utility.yul\":310:322   */\n      revert\n        /* \"#utility.yul\":334:451   */\n    tag_46:\n        /* \"#utility.yul\":443:444   */\n      0x00\n        /* \"#utility.yul\":440:441   */\n      dup1\n        /* \"#utility.yul\":433:445   */\n      revert\n        /* \"#utility.yul\":457:574   */\n    tag_47:\n        /* \"#utility.yul\":566:567   */\n      0x00\n        /* \"#utility.yul\":563:564   */\n      dup1\n        /* \"#utility.yul\":556:568   */\n      revert\n        /* \"#utility.yul\":580:682   */\n    tag_48:\n        /* \"#utility.yul\":621:627   */\n      0x00\n        /* \"#utility.yul\":672:674   */\n      0x1f\n        /* \"#utility.yul\":668:675   */\n      not\n        /* \"#utility.yul\":663:665   */\n      0x1f\n        /* \"#utility.yul\":656:661   */\n      dup4\n        /* \"#utility.yul\":652:666   */\n      add\n        /* \"#utility.yul\":648:676   */\n      and\n        /* \"#utility.yul\":638:676   */\n      swap1\n      pop\n        /* \"#utility.yul\":580:682   */\n      swap2\n      swap1\n      pop\n      jump\t// out\n        /* \"#utility.yul\":688:868   */\n    tag_49:\n        /* \"#utility.yul\":736:813   */\n      0x4e487b7100000000000000000000000000000000000000000000000000000000\n        /* \"#utility.yul\":733:734   */\n      0x00\n        /* \"#utility.yul\":726:814   */\n      mstore\n        /* \"#utility.yul\":833:837   */\n      0x41\n        /* \"#utility.yul\":830:831   */\n      0x04\n        /* \"#utility.yul\":823:838   */\n      mstore\n        /* \"#utility.yul\":857:861   */\n      0x24\n        /* \"#utility.yul\":854:855   */\n      0x00\n        /* \"#utility.yul\":847:862   */\n      revert\n        /* \"#utility.yul\":874:1155   */\n    tag_50:\n        /* \"#utility.yul\":957:984   */\n      tag_72\n        /* \"#utility.yul\":979:983   */\n      dup3\n        /* \"#utility.yul\":957:984   */\n      tag_48\n      jump\t// in\n    tag_72:\n        /* \"#utility.yul\":949:955   */\n      dup2\n        /* \"#utility.yul\":945:985   */\n      add\n        /* \"#utility.yul\":1087:1093   */\n      dup2\n        /* \"#utility.yul\":1075:1085   */\n      dup2\n        /* \"#utility.yul\":1072:1094   */\n      lt\n        /* \"#utility.yul\":1051:1069   */\n      0xffffffffffffffff\n        /* \"#utility.yul\":1039:1049   */\n      dup3\n        /* \"#utility.yul\":1036:1070   */\n      gt\n        /* \"#utility.yul\":1033:1095   */\n      or\n        /* \"#utility.yul\":1030:1118   */\n      iszero\n      tag_73\n      jumpi\n        /* \"#utility.yul\":1098:1116   */\n      tag_74\n      tag_49\n      jump\t// in\n    tag_74:\n        /* \"#utility.yul\":1030:1118   */\n    tag_73:\n        /* \"#utility.yul\":1138:1148   */\n      dup1\n        /* \"#utility.yul\":1134:1136   */\n      0x40\n        /* \"#utility.yul\":1127:1149   */\n      mstore\n        /* \"#utility.yul\":917:1155   */\n      pop\n        /* \"#utility.yul\":874:1155   */\n      pop\n      pop\n      jump\t// out\n        /* \"#utility.yul\":1161:1290   */\n    tag_51:\n        /* \"#utility.yul\":1195:1201   */\n      0x00\n        /* \"#utility.yul\":1222:1242   */\n      tag_76\n      tag_43\n      jump\t// in\n    tag_76:\n        /* \"#utility.yul\":1212:1242   */\n      swap1\n      pop\n        /* \"#utility.yul\":1251:1284   */\n      tag_77\n        /* \"#utility.yul\":1279:1283   */\n      dup3\n        /* \"#utility.yul\":1271:1277   */\n      dup3\n        /* \"#utility.yul\":1251:1284   */\n      tag_50\n      jump\t// in\n    tag_77:\n        /* \"#utility.yul\":1161:1290   */\n      swap2\n      swap1\n      pop\n      jump\t// out\n        /* \"#utility.yul\":1296:1603   */\n    tag_52:\n        /* \"#utility.yul\":1357:1361   */\n      0x00\n        /* \"#utility.yul\":1447:1465   */\n      0xffffffffffffffff\n        /* \"#utility.yul\":1439:1445   */\n      dup3\n        /* \"#utility.yul\":1436:1466   */\n      gt\n        /* \"#utility.yul\":1433:1489   */\n      iszero\n      tag_79\n      jumpi\n        /* \"#utility.yul\":1469:1487   */\n      tag_80\n      tag_49\n      jump\t// in\n    tag_80:\n        /* \"#utility.yul\":1433:1489   */\n    tag_79:\n        /* \"#utility.yul\":1507:1536   */\n      tag_81\n        /* \"#utility.yul\":1529:1535   */\n      dup3\n        /* \"#utility.yul\":1507:1536   */\n      tag_48\n      jump\t// in\n    tag_81:\n        /* \"#utility.yul\":1499:1536   */\n      swap1\n      pop\n        /* \"#utility.yul\":1591:1595   */\n      0x20\n        /* \"#utility.yul\":1585:1589   */\n      dup2\n        /* \"#utility.yul\":1581:1596   */\n      add\n        /* \"#utility.yul\":1573:1596   */\n      swap1\n      pop\n        /* \"#utility.yul\":1296:1603   */\n      swap2\n      swap1\n      pop\n      jump\t// out\n        /* \"#utility.yul\":1609:1757   */\n    tag_53:\n        /* \"#utility.yul\":1707:1713   */\n      dup3\n        /* \"#utility.yul\":1702:1705   */\n      dup2\n        /* \"#utility.yul\":1697:1700   */\n      dup4\n        /* \"#utility.yul\":1684:1714   */\n      calldatacopy\n        /* \"#utility.yul\":1748:1749   */\n      0x00\n        /* \"#utility.yul\":1739:1745   */\n      dup4\n        /* \"#utility.yul\":1734:1737   */\n      dup4\n        /* \"#utility.yul\":1730:1746   */\n      add\n        /* \"#utility.yul\":1723:1750   */\n      mstore\n        /* \"#utility.yul\":1609:1757   */\n      pop\n      pop\n      pop\n      jump\t// out\n        /* \"#utility.yul\":1763:2186   */\n    tag_54:\n        /* \"#utility.yul\":1840:1845   */\n      0x00\n        /* \"#utility.yul\":1865:1930   */\n      tag_84\n        /* \"#utility.yul\":1881:1929   */\n      tag_85\n        /* \"#utility.yul\":1922:1928   */\n      dup5\n        /* \"#utility.yul\":1881:1929   */\n      tag_52\n      jump\t// in\n    tag_85:\n        /* \"#utility.yul\":1865:1930   */\n      tag_51\n      jump\t// in\n    tag_84:\n        /* \"#utility.yul\":1856:1930   */\n      swap1\n      pop\n        /* \"#utility.yul\":1953:1959   */\n      dup3\n        /* \"#utility.yul\":1946:1951   */\n      dup2\n        /* \"#utility.yul\":1939:1960   */\n      mstore\n        /* \"#utility.yul\":1991:1995   */\n      0x20\n        /* \"#utility.yul\":1984:1989   */\n      dup2\n        /* \"#utility.yul\":1980:1996   */\n      add\n        /* \"#utility.yul\":2029:2032   */\n      dup5\n        /* \"#utility.yul\":2020:2026   */\n      dup5\n        /* \"#utility.yul\":2015:2018   */\n      dup5\n        /* \"#utility.yul\":2011:2027   */\n      add\n        /* \"#utility.yul\":2008:2033   */\n      gt\n        /* \"#utility.yul\":2005:2117   */\n      iszero\n      tag_86\n      jumpi\n        /* \"#utility.yul\":2036:2115   */\n      tag_87\n      tag_47\n      jump\t// in\n    tag_87:\n        /* \"#utility.yul\":2005:2117   */\n    tag_86:\n        /* \"#utility.yul\":2126:2180   */\n      tag_88\n        /* \"#utility.yul\":2173:2179   */\n      dup5\n        /* \"#utility.yul\":2168:2171   */\n      dup3\n        /* \"#utility.yul\":2163:2166   */\n      dup6\n        /* \"#utility.yul\":2126:2180   */\n      tag_53\n      jump\t// in\n    tag_88:\n        /* \"#utility.yul\":1846:2186   */\n      pop\n        /* \"#utility.yul\":1763:2186   */\n      swap4\n      swap3\n      pop\n      pop\n      pop\n      jump\t// out\n        /* \"#utility.yul\":2205:2543   */\n    tag_55:\n        /* \"#utility.yul\":2260:2265   */\n      0x00\n        /* \"#utility.yul\":2309:2312   */\n      dup3\n        /* \"#utility.yul\":2302:2306   */\n      0x1f\n        /* \"#utility.yul\":2294:2300   */\n      dup4\n        /* \"#utility.yul\":2290:2307   */\n      add\n        /* \"#utility.yul\":2286:2313   */\n      slt\n        /* \"#utility.yul\":2276:2398   */\n      tag_90\n      jumpi\n        /* \"#utility.yul\":2317:2396   */\n      tag_91\n      tag_46\n      jump\t// in\n    tag_91:\n        /* \"#utility.yul\":2276:2398   */\n    tag_90:\n        /* \"#utility.yul\":2434:2440   */\n      dup2\n        /* \"#utility.yul\":2421:2441   */\n      calldataload\n        /* \"#utility.yul\":2459:2537   */\n      tag_92\n        /* \"#utility.yul\":2533:2536   */\n      dup5\n        /* \"#utility.yul\":2525:2531   */\n      dup3\n        /* \"#utility.yul\":2518:2522   */\n      0x20\n        /* \"#utility.yul\":2510:2516   */\n      dup7\n        /* \"#utility.yul\":2506:2523   */\n      add\n        /* \"#utility.yul\":2459:2537   */\n      tag_54\n      jump\t// in\n    tag_92:\n        /* \"#utility.yul\":2450:2537   */\n      swap2\n      pop\n        /* \"#utility.yul\":2266:2543   */\n      pop\n        /* \"#utility.yul\":2205:2543   */\n      swap3\n      swap2\n      pop\n      pop\n      jump\t// out\n        /* \"#utility.yul\":2549:3056   */\n    tag_7:\n        /* \"#utility.yul\":2617:2623   */\n      0x00\n        /* \"#utility.yul\":2666:2668   */\n      0x20\n        /* \"#utility.yul\":2654:2663   */\n      dup3\n        /* \"#utility.yul\":2645:2652   */\n      dup5\n        /* \"#utility.yul\":2641:2664   */\n      sub\n        /* \"#utility.yul\":2637:2669   */\n      slt\n        /* \"#utility.yul\":2634:2753   */\n      iszero\n      tag_94\n      jumpi\n        /* \"#utility.yul\":2672:2751   */\n      tag_95\n      tag_44\n      jump\t// in\n    tag_95:\n        /* \"#utility.yul\":2634:2753   */\n    tag_94:\n        /* \"#utility.yul\":2820:2821   */\n      0x00\n        /* \"#utility.yul\":2809:2818   */\n      dup3\n        /* \"#utility.yul\":2805:2822   */\n      add\n        /* \"#utility.yul\":2792:2823   */\n      calldataload\n        /* \"#utility.yul\":2850:2868   */\n      0xffffffffffffffff\n        /* \"#utility.yul\":2842:2848   */\n      dup2\n        /* \"#utility.yul\":2839:2869   */\n      gt\n        /* \"#utility.yul\":2836:2953   */\n      iszero\n      tag_96\n      jumpi\n        /* \"#utility.yul\":2872:2951   */\n      tag_97\n      tag_45\n      jump\t// in\n    tag_97:\n        /* \"#utility.yul\":2836:2953   */\n    tag_96:\n        /* \"#utility.yul\":2977:3039   */\n      tag_98\n        /* \"#utility.yul\":3031:3038   */\n      dup5\n        /* \"#utility.yul\":3022:3028   */\n      dup3\n        /* \"#utility.yul\":3011:3020   */\n      dup6\n        /* \"#utility.yul\":3007:3029   */\n      add\n        /* \"#utility.yul\":2977:3039   */\n      tag_55\n      jump\t// in\n    tag_98:\n        /* \"#utility.yul\":2967:3039   */\n      swap2\n      pop\n        /* \"#utility.yul\":2763:3049   */\n      pop\n        /* \"#utility.yul\":2549:3056   */\n      swap3\n      swap2\n      pop\n      pop\n      jump\t// out\n        /* \"#utility.yul\":3062:3211   */\n    tag_56:\n        /* \"#utility.yul\":3098:3105   */\n      0x00\n        /* \"#utility.yul\":3138:3204   */\n      0xff00000000000000000000000000000000000000000000000000000000000000\n        /* \"#utility.yul\":3131:3136   */\n      dup3\n        /* \"#utility.yul\":3127:3205   */\n      and\n        /* \"#utility.yul\":3116:3205   */\n      swap1\n      pop\n        /* \"#utility.yul\":3062:3211   */\n      swap2\n      swap1\n      pop\n      jump\t// out\n        /* \"#utility.yul\":3217:3332   */\n    tag_57:\n        /* \"#utility.yul\":3302:3325   */\n      tag_101\n        /* \"#utility.yul\":3319:3324   */\n      dup2\n        /* \"#utility.yul\":3302:3325   */\n      tag_56\n      jump\t// in\n    tag_101:\n        /* \"#utility.yul\":3297:3300   */\n      dup3\n        /* \"#utility.yul\":3290:3326   */\n      mstore\n        /* \"#utility.yul\":3217:3332   */\n      pop\n      pop\n      jump\t// out\n        /* \"#utility.yul\":3338:3556   */\n    tag_10:\n        /* \"#utility.yul\":3429:3433   */\n      0x00\n        /* \"#utility.yul\":3467:3469   */\n      0x20\n        /* \"#utility.yul\":3456:3465   */\n      dup3\n        /* \"#utility.yul\":3452:3470   */\n      add\n        /* \"#utility.yul\":3444:3470   */\n      swap1\n      pop\n        /* \"#utility.yul\":3480:3549   */\n      tag_103\n        /* \"#utility.yul\":3546:3547   */\n      0x00\n        /* \"#utility.yul\":3535:3544   */\n      dup4\n        /* \"#utility.yul\":3531:3548   */\n      add\n        /* \"#utility.yul\":3522:3528   */\n      dup5\n        /* \"#utility.yul\":3480:3549   */\n      tag_57\n      jump\t// in\n    tag_103:\n        /* \"#utility.yul\":3338:3556   */\n      swap3\n      swap2\n      pop\n      pop\n      jump\t// out\n        /* \"#utility.yul\":3562:3870   */\n    tag_58:\n        /* \"#utility.yul\":3624:3628   */\n      0x00\n        /* \"#utility.yul\":3714:3732   */\n      0xffffffffffffffff\n        /* \"#utility.yul\":3706:3712   */\n      dup3\n        /* \"#utility.yul\":3703:3733   */\n      gt\n        /* \"#utility.yul\":3700:3756   */\n      iszero\n      tag_105\n      jumpi\n        /* \"#utility.yul\":3736:3754   */\n      tag_106\n      tag_49\n      jump\t// in\n    tag_106:\n        /* \"#utility.yul\":3700:3756   */\n    tag_105:\n        /* \"#utility.yul\":3774:3803   */\n      tag_107\n        /* \"#utility.yul\":3796:3802   */\n      dup3\n        /* \"#utility.yul\":3774:3803   */\n      tag_48\n      jump\t// in\n    tag_107:\n        /* \"#utility.yul\":3766:3803   */\n      swap1\n      pop\n        /* \"#utility.yul\":3858:3862   */\n      0x20\n        /* \"#utility.yul\":3852:3856   */\n      dup2\n        /* \"#utility.yul\":3848:3863   */\n      add\n        /* \"#utility.yul\":3840:3863   */\n      swap1\n      pop\n        /* \"#utility.yul\":3562:3870   */\n      swap2\n      swap1\n      pop\n      jump\t// out\n        /* \"#utility.yul\":3876:4301   */\n    tag_59:\n        /* \"#utility.yul\":3954:3959   */\n      0x00\n        /* \"#utility.yul\":3979:4045   */\n      tag_109\n        /* \"#utility.yul\":3995:4044   */\n      tag_110\n        /* \"#utility.yul\":4037:4043   */\n      dup5\n        /* \"#utility.yul\":3995:4044   */\n      tag_58\n      jump\t// in\n    tag_110:\n        /* \"#utility.yul\":3979:4045   */\n      tag_51\n      jump\t// in\n    tag_109:\n        /* \"#utility.yul\":3970:4045   */\n      swap1\n      pop\n        /* \"#utility.yul\":4068:4074   */\n      dup3\n        /* \"#utility.yul\":4061:4066   */\n      dup2\n        /* \"#utility.yul\":4054:4075   */\n      mstore\n        /* \"#utility.yul\":4106:4110   */\n      0x20\n        /* \"#utility.yul\":4099:4104   */\n      dup2\n        /* \"#utility.yul\":4095:4111   */\n      add\n        /* \"#utility.yul\":4144:4147   */\n      dup5\n        /* \"#utility.yul\":4135:4141   */\n      dup5\n        /* \"#utility.yul\":4130:4133   */\n      dup5\n        /* \"#utility.yul\":4126:4142   */\n      add\n        /* \"#utility.yul\":4123:4148   */\n      gt\n        /* \"#utility.yul\":4120:4232   */\n      iszero\n      tag_111\n      jumpi\n        /* \"#utility.yul\":4151:4230   */\n      tag_112\n      tag_47\n      jump\t// in\n    tag_112:\n        /* \"#utility.yul\":4120:4232   */\n    tag_111:\n        /* \"#utility.yul\":4241:4295   */\n      tag_113\n        /* \"#utility.yul\":4288:4294   */\n      dup5\n        /* \"#utility.yul\":4283:4286   */\n      dup3\n        /* \"#utility.yul\":4278:4281   */\n      dup6\n        /* \"#utility.yul\":4241:4295   */\n      tag_53\n      jump\t// in\n    tag_113:\n        /* \"#utility.yul\":3960:4301   */\n      pop\n        /* \"#utility.yul\":3876:4301   */\n      swap4\n      swap3\n      pop\n      pop\n      pop\n      jump\t// out\n        /* \"#utility.yul\":4321:4661   */\n    tag_60:\n        /* \"#utility.yul\":4377:4382   */\n      0x00\n        /* \"#utility.yul\":4426:4429   */\n      dup3\n        /* \"#utility.yul\":4419:4423   */\n      0x1f\n        /* \"#utility.yul\":4411:4417   */\n      dup4\n        /* \"#utility.yul\":4407:4424   */\n      add\n        /* \"#utility.yul\":4403:4430   */\n      slt\n        /* \"#utility.yul\":4393:4515   */\n      tag_115\n      jumpi\n        /* \"#utility.yul\":4434:4513   */\n      tag_116\n      tag_46\n      jump\t// in\n    tag_116:\n        /* \"#utility.yul\":4393:4515   */\n    tag_115:\n        /* \"#utility.yul\":4551:4557   */\n      dup2\n        /* \"#utility.yul\":4538:4558   */\n      calldataload\n        /* \"#utility.yul\":4576:4655   */\n      tag_117\n        /* \"#utility.yul\":4651:4654   */\n      dup5\n        /* \"#utility.yul\":4643:4649   */\n      dup3\n        /* \"#utility.yul\":4636:4640   */\n      0x20\n        /* \"#utility.yul\":4628:4634   */\n      dup7\n        /* \"#utility.yul\":4624:4641   */\n      add\n        /* \"#utility.yul\":4576:4655   */\n      tag_59\n      jump\t// in\n    tag_117:\n        /* \"#utility.yul\":4567:4655   */\n      swap2\n      pop\n        /* \"#utility.yul\":4383:4661   */\n      pop\n        /* \"#utility.yul\":4321:4661   */\n      swap3\n      swap2\n      pop\n      pop\n      jump\t// out\n        /* \"#utility.yul\":4667:5176   */\n    tag_13:\n        /* \"#utility.yul\":4736:4742   */\n      0x00\n        /* \"#utility.yul\":4785:4787   */\n      0x20\n        /* \"#utility.yul\":4773:4782   */\n      dup3\n        /* \"#utility.yul\":4764:4771   */\n      dup5\n        /* \"#utility.yul\":4760:4783   */\n      sub\n        /* \"#utility.yul\":4756:4788   */\n      slt\n        /* \"#utility.yul\":4753:4872   */\n      iszero\n      tag_119\n      jumpi\n        /* \"#utility.yul\":4791:4870   */\n      tag_120\n      tag_44\n      jump\t// in\n    tag_120:\n        /* \"#utility.yul\":4753:4872   */\n    tag_119:\n        /* \"#utility.yul\":4939:4940   */\n      0x00\n        /* \"#utility.yul\":4928:4937   */\n      dup3\n        /* \"#utility.yul\":4924:4941   */\n      add\n        /* \"#utility.yul\":4911:4942   */\n      calldataload\n        /* \"#utility.yul\":4969:4987   */\n      0xffffffffffffffff\n        /* \"#utility.yul\":4961:4967   */\n      dup2\n        /* \"#utility.yul\":4958:4988   */\n      gt\n        /* \"#utility.yul\":4955:5072   */\n      iszero\n      tag_121\n      jumpi\n        /* \"#utility.yul\":4991:5070   */\n      tag_122\n      tag_45\n      jump\t// in\n    tag_122:\n        /* \"#utility.yul\":4955:5072   */\n    tag_121:\n        /* \"#utility.yul\":5096:5159   */\n      tag_123\n        /* \"#utility.yul\":5151:5158   */\n      dup5\n        /* \"#utility.yul\":5142:5148   */\n      dup3\n        /* \"#utility.yul\":5131:5140   */\n      dup6\n        /* \"#utility.yul\":5127:5149   */\n      add\n        /* \"#utility.yul\":5096:5159   */\n      tag_60\n      jump\t// in\n    tag_123:\n        /* \"#utility.yul\":5086:5159   */\n      swap2\n      pop\n        /* \"#utility.yul\":4882:5169   */\n      pop\n        /* \"#utility.yul\":4667:5176   */\n      swap3\n      swap2\n      pop\n      pop\n      jump\t// out\n        /* \"#utility.yul\":5182:5259   */\n    tag_61:\n        /* \"#utility.yul\":5219:5226   */\n      0x00\n        /* \"#utility.yul\":5248:5253   */\n      dup2\n        /* \"#utility.yul\":5237:5253   */\n      swap1\n      pop\n        /* \"#utility.yul\":5182:5259   */\n      swap2\n      swap1\n      pop\n      jump\t// out\n        /* \"#utility.yul\":5265:5383   */\n    tag_62:\n        /* \"#utility.yul\":5352:5376   */\n      tag_126\n        /* \"#utility.yul\":5370:5375   */\n      dup2\n        /* \"#utility.yul\":5352:5376   */\n      tag_61\n      jump\t// in\n    tag_126:\n        /* \"#utility.yul\":5347:5350   */\n      dup3\n        /* \"#utility.yul\":5340:5377   */\n      mstore\n        /* \"#utility.yul\":5265:5383   */\n      pop\n      pop\n      jump\t// out\n        /* \"#utility.yul\":5389:5611   */\n    tag_16:\n        /* \"#utility.yul\":5482:5486   */\n      0x00\n        /* \"#utility.yul\":5520:5522   */\n      0x20\n        /* \"#utility.yul\":5509:5518   */\n      dup3\n        /* \"#utility.yul\":5505:5523   */\n      add\n        /* \"#utility.yul\":5497:5523   */\n      swap1\n      pop\n        /* \"#utility.yul\":5533:5604   */\n      tag_128\n        /* \"#utility.yul\":5601:5602   */\n      0x00\n        /* \"#utility.yul\":5590:5599   */\n      dup4\n        /* \"#utility.yul\":5586:5603   */\n      add\n        /* \"#utility.yul\":5577:5583   */\n      dup5\n        /* \"#utility.yul\":5533:5604   */\n      tag_62\n      jump\t// in\n    tag_128:\n        /* \"#utility.yul\":5389:5611   */\n      swap3\n      swap2\n      pop\n      pop\n      jump\t// out\n        /* \"#utility.yul\":5617:5797   */\n    tag_20:\n        /* \"#utility.yul\":5665:5742   */\n      0x4e487b7100000000000000000000000000000000000000000000000000000000\n        /* \"#utility.yul\":5662:5663   */\n      0x00\n        /* \"#utility.yul\":5655:5743   */\n      mstore\n        /* \"#utility.yul\":5762:5766   */\n      0x32\n        /* \"#utility.yul\":5759:5760   */\n      0x04\n        /* \"#utility.yul\":5752:5767   */\n      mstore\n        /* \"#utility.yul\":5786:5790   */\n      0x24\n        /* \"#utility.yul\":5783:5784   */\n      0x00\n        /* \"#utility.yul\":5776:5791   */\n      revert\n\n    auxdata: 0xa264697066735822122033eadb53f5a2626fb7786364f21b4e7795fbc1d66c2155449f63222a44d36d7e64736f6c63430008190033\n}\n",
				"bytecode": {
					"linkReferences": {},
					"object": "6080604052348015600e575f80fd5b506106278061001c5f395ff3fe608060405234801561000f575f80fd5b5060043610610034575f3560e01c806312c04ec2146100385780631b253ba614610068575b5f80fd5b610052600480360381019061004d9190610414565b610098565b60405161005f9190610495565b60405180910390f35b610082600480360381019061007d919061054c565b6100be565b60405161008f91906105ab565b60405180910390f35b5f815f815181106100ac576100ab6105c4565b5b602001015160f81c60f81b9050919050565b5f805f8390505f5b81518110156102bc57604060f81b8282815181106100e7576100e66105c4565b5b602001015160f81c60f81b7effffffffffffffffffffffffffffffffffffffffffffffffffffffffffffff19161180156101635750605b60f81b828281518110610134576101336105c4565b5b602001015160f81c60f81b7effffffffffffffffffffffffffffffffffffffffffffffffffffffffffffff1916105b1561016f576001831792505b606060f81b828281518110610187576101866105c4565b5b602001015160f81c60f81b7effffffffffffffffffffffffffffffffffffffffffffffffffffffffffffff19161180156102035750607b60f81b8282815181106101d4576101d36105c4565b5b602001015160f81c60f81b7effffffffffffffffffffffffffffffffffffffffffffffffffffffffffffff1916105b1561020f576002831792505b603060f81b828281518110610227576102266105c4565b5b602001015160f81c60f81b7effffffffffffffffffffffffffffffffffffffffffffffffffffffffffffff19161180156102a35750604060f81b828281518110610274576102736105c4565b5b602001015160f81c60f81b7effffffffffffffffffffffffffffffffffffffffffffffffffffffffffffff1916105b156102af576004831792505b80806001019150506100c6565b508192505050919050565b5f604051905090565b5f80fd5b5f80fd5b5f80fd5b5f80fd5b5f601f19601f8301169050919050565b7f4e487b71000000000000000000000000000000000000000000000000000000005f52604160045260245ffd5b610326826102e0565b810181811067ffffffffffffffff82111715610345576103446102f0565b5b80604052505050565b5f6103576102c7565b9050610363828261031d565b919050565b5f67ffffffffffffffff821115610382576103816102f0565b5b61038b826102e0565b9050602081019050919050565b828183375f83830152505050565b5f6103b86103b384610368565b61034e565b9050828152602081018484840111156103d4576103d36102dc565b5b6103df848285610398565b509392505050565b5f82601f8301126103fb576103fa6102d8565b5b813561040b8482602086016103a6565b91505092915050565b5f60208284031215610429576104286102d0565b5b5f82013567ffffffffffffffff811115610446576104456102d4565b5b610452848285016103e7565b91505092915050565b5f7fff0000000000000000000000000000000000000000000000000000000000000082169050919050565b61048f8161045b565b82525050565b5f6020820190506104a85f830184610486565b92915050565b5f67ffffffffffffffff8211156104c8576104c76102f0565b5b6104d1826102e0565b9050602081019050919050565b5f6104f06104eb846104ae565b61034e565b90508281526020810184848401111561050c5761050b6102dc565b5b610517848285610398565b509392505050565b5f82601f830112610533576105326102d8565b5b81356105438482602086016104de565b91505092915050565b5f60208284031215610561576105606102d0565b5b5f82013567ffffffffffffffff81111561057e5761057d6102d4565b5b61058a8482850161051f565b91505092915050565b5f819050919050565b6105a581610593565b82525050565b5f6020820190506105be5f83018461059c565b92915050565b7f4e487b71000000000000000000000000000000000000000000000000000000005f52603260045260245ffdfea264697066735822122033eadb53f5a2626fb7786364f21b4e7795fbc1d66c2155449f63222a44d36d7e64736f6c63430008190033",
					"opcodes": "PUSH1 0x80 PUSH1 0x40 MSTORE CALLVALUE DUP1 ISZERO PUSH1 0xE JUMPI PUSH0 DUP1 REVERT JUMPDEST POP PUSH2 0x627 DUP1 PUSH2 0x1C PUSH0 CODECOPY PUSH0 RETURN INVALID PUSH1 0x80 PUSH1 0x40 MSTORE CALLVALUE DUP1 ISZERO PUSH2 0xF JUMPI PUSH0 DUP1 REVERT JUMPDEST POP PUSH1 0x4 CALLDATASIZE LT PUSH2 0x34 JUMPI PUSH0 CALLDATALOAD PUSH1 0xE0 SHR DUP1 PUSH4 0x12C04EC2 EQ PUSH2 0x38 JUMPI DUP1 PUSH4 0x1B253BA6 EQ PUSH2 0x68 JUMPI JUMPDEST PUSH0 DUP1 REVERT JUMPDEST PUSH2 0x52 PUSH1 0x4 DUP1 CALLDATASIZE SUB DUP2 ADD SWAP1 PUSH2 0x4D SWAP2 SWAP1 PUSH2 0x414 JUMP JUMPDEST PUSH2 0x98 JUMP JUMPDEST PUSH1 0x40 MLOAD PUSH2 0x5F SWAP2 SWAP1 PUSH2 0x495 JUMP JUMPDEST PUSH1 0x40 MLOAD DUP1 SWAP2 SUB SWAP1 RETURN JUMPDEST PUSH2 0x82 PUSH1 0x4 DUP1 CALLDATASIZE SUB DUP2 ADD SWAP1 PUSH2 0x7D SWAP2 SWAP1 PUSH2 0x54C JUMP JUMPDEST PUSH2 0xBE JUMP JUMPDEST PUSH1 0x40 MLOAD PUSH2 0x8F SWAP2 SWAP1 PUSH2 0x5AB JUMP JUMPDEST PUSH1 0x40 MLOAD DUP1 SWAP2 SUB SWAP1 RETURN JUMPDEST PUSH0 DUP2 PUSH0 DUP2 MLOAD DUP2 LT PUSH2 0xAC JUMPI PUSH2 0xAB PUSH2 0x5C4 JUMP JUMPDEST JUMPDEST PUSH1 0x20 ADD ADD MLOAD PUSH1 0xF8 SHR PUSH1 0xF8 SHL SWAP1 POP SWAP2 SWAP1 POP JUMP JUMPDEST PUSH0 DUP1 PUSH0 DUP4 SWAP1 POP PUSH0 JUMPDEST DUP2 MLOAD DUP2 LT ISZERO PUSH2 0x2BC JUMPI PUSH1 0x40 PUSH1 0xF8 SHL DUP3 DUP3 DUP2 MLOAD DUP2 LT PUSH2 0xE7 JUMPI PUSH2 0xE6 PUSH2 0x5C4 JUMP JUMPDEST JUMPDEST PUSH1 0x20 ADD ADD MLOAD PUSH1 0xF8 SHR PUSH1 0xF8 SHL PUSH31 0xFFFFFFFFFFFFFFFFFFFFFFFFFFFFFFFFFFFFFFFFFFFFFFFFFFFFFFFFFFFFFF NOT AND GT DUP1 ISZERO PUSH2 0x163 JUMPI POP PUSH1 0x5B PUSH1 0xF8 SHL DUP3 DUP3 DUP2 MLOAD DUP2 LT PUSH2 0x134 JUMPI PUSH2 0x133 PUSH2 0x5C4 JUMP JUMPDEST JUMPDEST PUSH1 0x20 ADD ADD MLOAD PUSH1 0xF8 SHR PUSH1 0xF8 SHL PUSH31 0xFFFFFFFFFFFFFFFFFFFFFFFFFFFFFFFFFFFFFFFFFFFFFFFFFFFFFFFFFFFFFF NOT AND LT JUMPDEST ISZERO PUSH2 0x16F JUMPI PUSH1 0x1 DUP4 OR SWAP3 POP JUMPDEST PUSH1 0x60 PUSH1 0xF8 SHL DUP3 DUP3 DUP2 MLOAD DUP2 LT PUSH2 0x187 JUMPI PUSH2 0x186 PUSH2 0x5C4 JUMP JUMPDEST JUMPDEST PUSH1 0x20 ADD ADD MLOAD PUSH1 0xF8 SHR PUSH1 0xF8 SHL PUSH31 0xFFFFFFFFFFFFFFFFFFFFFFFFFFFFFFFFFFFFFFFFFFFFFFFFFFFFFFFFFFFFFF NOT AND GT DUP1 ISZERO PUSH2 0x203 JUMPI POP PUSH1 0x7B PUSH1 0xF8 SHL DUP3 DUP3 DUP2 MLOAD DUP2 LT PUSH2 0x1D4 JUMPI PUSH2 0x1D3 PUSH2 0x5C4 JUMP JUMPDEST JUMPDEST PUSH1 0x20 ADD ADD MLOAD PUSH1 0xF8 SHR PUSH1 0xF8 SHL PUSH31 0xFFFFFFFFFFFFFFFFFFFFFFFFFFFFFFFFFFFFFFFFFFFFFFFFFFFFFFFFFFFFFF NOT AND LT JUMPDEST ISZERO PUSH2 0x20F JUMPI PUSH1 0x2 DUP4 OR SWAP3 POP JUMPDEST PUSH1 0x30 PUSH1 0xF8 SHL DUP3 DUP3 DUP2 MLOAD DUP2 LT PUSH2 0x227 JUMPI PUSH2 0x226 PUSH2 0x5C4 JUMP JUMPDEST JUMPDEST PUSH1 0x20 ADD ADD MLOAD PUSH1 0xF8 SHR PUSH1 0xF8 SHL PUSH31 0xFFFFFFFFFFFFFFFFFFFFFFFFFFFFFFFFFFFFFFFFFFFFFFFFFFFFFFFFFFFFFF NOT AND GT DUP1 ISZERO PUSH2 0x2A3 JUMPI POP PUSH1 0x40 PUSH1 0xF8 SHL DUP3 DUP3 DUP2 MLOAD DUP2 LT PUSH2 0x274 JUMPI PUSH2 0x273 PUSH2 0x5C4 JUMP JUMPDEST JUMPDEST PUSH1 0x20 ADD ADD MLOAD PUSH1 0xF8 SHR PUSH1 0xF8 SHL PUSH31 0xFFFFFFFFFFFFFFFFFFFFFFFFFFFFFFFFFFFFFFFFFFFFFFFFFFFFFFFFFFFFFF NOT AND LT JUMPDEST ISZERO PUSH2 0x2AF JUMPI PUSH1 0x4 DUP4 OR SWAP3 POP JUMPDEST DUP1 DUP1 PUSH1 0x1 ADD SWAP2 POP POP PUSH2 0xC6 JUMP JUMPDEST POP DUP2 SWAP3 POP POP POP SWAP2 SWAP1 POP JUMP JUMPDEST PUSH0 PUSH1 0x40 MLOAD SWAP1 POP SWAP1 JUMP JUMPDEST PUSH0 DUP1 REVERT JUMPDEST PUSH0 DUP1 REVERT JUMPDEST PUSH0 DUP1 REVERT JUMPDEST PUSH0 DUP1 REVERT JUMPDEST PUSH0 PUSH1 0x1F NOT PUSH1 0x1F DUP4 ADD AND SWAP1 POP SWAP2 SWAP1 POP JUMP JUMPDEST PUSH32 0x4E487B7100000000000000000000000000000000000000000000000000000000 PUSH0 MSTORE PUSH1 0x41 PUSH1 0x4 MSTORE PUSH1 0x24 PUSH0 REVERT JUMPDEST PUSH2 0x326 DUP3 PUSH2 0x2E0 JUMP JUMPDEST DUP2 ADD DUP2 DUP2 LT PUSH8 0xFFFFFFFFFFFFFFFF DUP3 GT OR ISZERO PUSH2 0x345 JUMPI PUSH2 0x344 PUSH2 0x2F0 JUMP JUMPDEST JUMPDEST DUP1 PUSH1 0x40 MSTORE POP POP POP JUMP JUMPDEST PUSH0 PUSH2 0x357 PUSH2 0x2C7 JUMP JUMPDEST SWAP1 POP PUSH2 0x363 DUP3 DUP3 PUSH2 0x31D JUMP JUMPDEST SWAP2 SWAP1 POP JUMP JUMPDEST PUSH0 PUSH8 0xFFFFFFFFFFFFFFFF DUP3 GT ISZERO PUSH2 0x382 JUMPI PUSH2 0x381 PUSH2 0x2F0 JUMP JUMPDEST JUMPDEST PUSH2 0x38B DUP3 PUSH2 0x2E0 JUMP JUMPDEST SWAP1 POP PUSH1 0x20 DUP2 ADD SWAP1 POP SWAP2 SWAP1 POP JUMP JUMPDEST DUP3 DUP2 DUP4 CALLDATACOPY PUSH0 DUP4 DUP4 ADD MSTORE POP POP POP JUMP JUMPDEST PUSH0 PUSH2 0x3B8 PUSH2 0x3B3 DUP5 PUSH2 0x368 JUMP JUMPDEST PUSH2 0x34E JUMP JUMPDEST SWAP1 POP DUP3 DUP2 MSTORE PUSH1 0x20 DUP2 ADD DUP5 DUP5 DUP5 ADD GT ISZERO PUSH2 0x3D4 JUMPI PUSH2 0x3D3 PUSH2 0x2DC JUMP JUMPDEST JUMPDEST PUSH2 0x3DF DUP5 DUP3 DUP6 PUSH2 0x398 JUMP JUMPDEST POP SWAP4 SWAP3 POP POP POP JUMP JUMPDEST PUSH0 DUP3 PUSH1 0x1F DUP4 ADD SLT PUSH2 0x3FB JUMPI PUSH2 0x3FA PUSH2 0x2D8 JUMP JUMPDEST JUMPDEST DUP2 CALLDATALOAD PUSH2 0x40B DUP5 DUP3 PUSH1 0x20 DUP7 ADD PUSH2 0x3A6 JUMP JUMPDEST SWAP2 POP POP SWAP3 SWAP2 POP POP JUMP JUMPDEST PUSH0 PUSH1 0x20 DUP3 DUP5 SUB SLT ISZERO PUSH2 0x429 JUMPI PUSH2 0x428 PUSH2 0x2D0 JUMP JUMPDEST JUMPDEST PUSH0 DUP3 ADD CALLDATALOAD PUSH8 0xFFFFFFFFFFFFFFFF DUP2 GT ISZERO PUSH2 0x446 JUMPI PUSH2 0x445 PUSH2 0x2D4 JUMP JUMPDEST JUMPDEST PUSH2 0x452 DUP5 DUP3 DUP6 ADD PUSH2 0x3E7 JUMP JUMPDEST SWAP2 POP POP SWAP3 SWAP2 POP POP JUMP JUMPDEST PUSH0 PUSH32 0xFF00000000000000000000000000000000000000000000000000000000000000 DUP3 AND SWAP1 POP SWAP2 SWAP1 POP JUMP JUMPDEST PUSH2 0x48F DUP2 PUSH2 0x45B JUMP JUMPDEST DUP3 MSTORE POP POP JUMP JUMPDEST PUSH0 PUSH1 0x20 DUP3 ADD SWAP1 POP PUSH2 0x4A8 PUSH0 DUP4 ADD DUP5 PUSH2 0x486 JUMP JUMPDEST SWAP3 SWAP2 POP POP JUMP JUMPDEST PUSH0 PUSH8 0xFFFFFFFFFFFFFFFF DUP3 GT ISZERO PUSH2 0x4C8 JUMPI PUSH2 0x4C7 PUSH2 0x2F0 JUMP JUMPDEST JUMPDEST PUSH2 0x4D1 DUP3 PUSH2 0x2E0 JUMP JUMPDEST SWAP1 POP PUSH1 0x20 DUP2 ADD SWAP1 POP SWAP2 SWAP1 POP JUMP JUMPDEST PUSH0 PUSH2 0x4F0 PUSH2 0x4EB DUP5 PUSH2 0x4AE JUMP JUMPDEST PUSH2 0x34E JUMP JUMPDEST SWAP1 POP DUP3 DUP2 MSTORE PUSH1 0x20 DUP2 ADD DUP5 DUP5 DUP5 ADD GT ISZERO PUSH2 0x50C JUMPI PUSH2 0x50B PUSH2 0x2DC JUMP JUMPDEST JUMPDEST PUSH2 0x517 DUP5 DUP3 DUP6 PUSH2 0x398 JUMP JUMPDEST POP SWAP4 SWAP3 POP POP POP JUMP JUMPDEST PUSH0 DUP3 PUSH1 0x1F DUP4 ADD SLT PUSH2 0x533 JUMPI PUSH2 0x532 PUSH2 0x2D8 JUMP JUMPDEST JUMPDEST DUP2 CALLDATALOAD PUSH2 0x543 DUP5 DUP3 PUSH1 0x20 DUP7 ADD PUSH2 0x4DE JUMP JUMPDEST SWAP2 POP POP SWAP3 SWAP2 POP POP JUMP JUMPDEST PUSH0 PUSH1 0x20 DUP3 DUP5 SUB SLT ISZERO PUSH2 0x561 JUMPI PUSH2 0x560 PUSH2 0x2D0 JUMP JUMPDEST JUMPDEST PUSH0 DUP3 ADD CALLDATALOAD PUSH8 0xFFFFFFFFFFFFFFFF DUP2 GT ISZERO PUSH2 0x57E JUMPI PUSH2 0x57D PUSH2 0x2D4 JUMP JUMPDEST JUMPDEST PUSH2 0x58A DUP5 DUP3 DUP6 ADD PUSH2 0x51F JUMP JUMPDEST SWAP2 POP POP SWAP3 SWAP2 POP POP JUMP JUMPDEST PUSH0 DUP2 SWAP1 POP SWAP2 SWAP1 POP JUMP JUMPDEST PUSH2 0x5A5 DUP2 PUSH2 0x593 JUMP JUMPDEST DUP3 MSTORE POP POP JUMP JUMPDEST PUSH0 PUSH1 0x20 DUP3 ADD SWAP1 POP PUSH2 0x5BE PUSH0 DUP4 ADD DUP5 PUSH2 0x59C JUMP JUMPDEST SWAP3 SWAP2 POP POP JUMP JUMPDEST PUSH32 0x4E487B7100000000000000000000000000000000000000000000000000000000 PUSH0 MSTORE PUSH1 0x32 PUSH1 0x4 MSTORE PUSH1 0x24 PUSH0 REVERT INVALID LOG2 PUSH5 0x6970667358 0x22 SLT KECCAK256 CALLER 0xEA 0xDB MSTORE8 CREATE2 LOG2 PUSH3 0x6FB778 PUSH4 0x64F21B4E PUSH24 0x95FBC1D66C2155449F63222A44D36D7E64736F6C63430008 NOT STOP CALLER "
				},
				"gasEstimates": {
					"creation": {
						"codeDepositCost": "315000",
						"executionCost": "353",
						"totalCost": "315353"
					},
					"external": {
						"generatePW(string)": "infinite",
						"splitBytes(bytes)": "infinite"
					}
				},
				"methodIdentifiers": {
					"generatePW(string)": "1b253ba6",
					"splitBytes(bytes)": "12c04ec2"
				}
			},
			"storageLayout": {
				"storage": [],
				"types": null
			},
			"userdoc": {
				"kind": "user",
				"methods": {},
				"version": 1
			}
		}
	}
}