{
	"test.sol": {
		"TEST1": {
			"abi": [
				{
					"inputs": [
						{
							"internalType": "uint256",
							"name": "_n",
							"type": "uint256"
						}
					],
					"name": "getStudent",
					"outputs": [
						{
							"components": [
								{
									"internalType": "string",
									"name": "name",
									"type": "string"
								},
								{
									"internalType": "uint256",
									"name": "number",
									"type": "uint256"
								},
								{
									"internalType": "uint256",
									"name": "score",
									"type": "uint256"
								},
								{
									"internalType": "string",
									"name": "grade",
									"type": "string"
								}
							],
							"internalType": "struct TEST1.Student",
							"name": "",
							"type": "tuple"
						}
					],
					"stateMutability": "view",
					"type": "function"
				},
				{
					"inputs": [],
					"name": "getStudents",
					"outputs": [
						{
							"components": [
								{
									"internalType": "string",
									"name": "name",
									"type": "string"
								},
								{
									"internalType": "uint256",
									"name": "number",
									"type": "uint256"
								},
								{
									"internalType": "uint256",
									"name": "score",
									"type": "uint256"
								},
								{
									"internalType": "string",
									"name": "grade",
									"type": "string"
								}
							],
							"internalType": "struct TEST1.Student[]",
							"name": "",
							"type": "tuple[]"
						}
					],
					"stateMutability": "view",
					"type": "function"
				},
				{
					"inputs": [
						{
							"internalType": "string",
							"name": "_name",
							"type": "string"
						},
						{
							"internalType": "uint256",
							"name": "_number",
							"type": "uint256"
						},
						{
							"internalType": "uint256",
							"name": "_score",
							"type": "uint256"
						},
						{
							"internalType": "string",
							"name": "_grade",
							"type": "string"
						}
					],
					"name": "setStudent",
					"outputs": [],
					"stateMutability": "nonpayable",
					"type": "function"
				}
			],
			"devdoc": {
				"kind": "dev",
				"methods": {},
				"version": 1
			},
			"evm": {
				"assembly": "    /* \"test.sol\":75:1313  contract TEST1 {... */\n  mstore(0x40, 0x80)\n  callvalue\n  dup1\n  iszero\n  tag_1\n  jumpi\n  0x00\n  dup1\n  revert\ntag_1:\n  pop\n  dataSize(sub_0)\n  dup1\n  dataOffset(sub_0)\n  0x00\n  codecopy\n  0x00\n  return\nstop\n\nsub_0: assembly {\n        /* \"test.sol\":75:1313  contract TEST1 {... */\n      mstore(0x40, 0x80)\n      callvalue\n      dup1\n      iszero\n      tag_1\n      jumpi\n      0x00\n      dup1\n      revert\n    tag_1:\n      pop\n      jumpi(tag_2, lt(calldatasize, 0x04))\n      shr(0xe0, calldataload(0x00))\n      dup1\n      0x107af71c\n      eq\n      tag_3\n      jumpi\n      dup1\n      0x642f9163\n      eq\n      tag_4\n      jumpi\n      dup1\n      0xf1d064b3\n      eq\n      tag_5\n      jumpi\n    tag_2:\n      0x00\n      dup1\n      revert\n        /* \"test.sol\":827:1016  function setStudent (string memory _name, uint _number, uint _score, string memory _grade) public {... */\n    tag_3:\n      tag_6\n      0x04\n      dup1\n      calldatasize\n      sub\n      dup2\n      add\n      swap1\n      tag_7\n      swap2\n      swap1\n      tag_8\n      jump\t// in\n    tag_7:\n      tag_9\n      jump\t// in\n    tag_6:\n      stop\n        /* \"test.sol\":1191:1296  function getStudent(uint _n) public view returns(Student memory) {... */\n    tag_4:\n      tag_10\n      0x04\n      dup1\n      calldatasize\n      sub\n      dup2\n      add\n      swap1\n      tag_11\n      swap2\n      swap1\n      tag_12\n      jump\t// in\n    tag_11:\n      tag_13\n      jump\t// in\n    tag_10:\n      mload(0x40)\n      tag_14\n      swap2\n      swap1\n      tag_15\n      jump\t// in\n    tag_14:\n      mload(0x40)\n      dup1\n      swap2\n      sub\n      swap1\n      return\n        /* \"test.sol\":1057:1152  function getStudents() public view returns(Student[] memory) {... */\n    tag_5:\n      tag_16\n      tag_17\n      jump\t// in\n    tag_16:\n      mload(0x40)\n      tag_18\n      swap2\n      swap1\n      tag_19\n      jump\t// in\n    tag_18:\n      mload(0x40)\n      dup1\n      swap2\n      sub\n      swap1\n      return\n        /* \"test.sol\":827:1016  function setStudent (string memory _name, uint _number, uint _score, string memory _grade) public {... */\n    tag_9:\n        /* \"test.sol\":941:980  Student(_name, _number, _score, _grade) */\n      mload(0x40)\n      dup1\n      0x80\n      add\n      0x40\n      mstore\n      dup1\n        /* \"test.sol\":949:954  _name */\n      dup6\n        /* \"test.sol\":941:980  Student(_name, _number, _score, _grade) */\n      dup2\n      mstore\n      0x20\n      add\n        /* \"test.sol\":956:963  _number */\n      dup5\n        /* \"test.sol\":941:980  Student(_name, _number, _score, _grade) */\n      dup2\n      mstore\n      0x20\n      add\n        /* \"test.sol\":965:971  _score */\n      dup4\n        /* \"test.sol\":941:980  Student(_name, _number, _score, _grade) */\n      dup2\n      mstore\n      0x20\n      add\n        /* \"test.sol\":973:979  _grade */\n      dup3\n        /* \"test.sol\":941:980  Student(_name, _number, _score, _grade) */\n      dup2\n      mstore\n      pop\n        /* \"test.sol\":936:938  s1 */\n      0x00\n        /* \"test.sol\":936:980  s1 = Student(_name, _number, _score, _grade) */\n      dup1\n      dup3\n      add\n      mload\n      dup2\n      0x00\n      add\n      swap1\n      dup2\n      tag_21\n      swap2\n      swap1\n      tag_22\n      jump\t// in\n    tag_21:\n      pop\n      0x20\n      dup3\n      add\n      mload\n      dup2\n      0x01\n      add\n      sstore\n      0x40\n      dup3\n      add\n      mload\n      dup2\n      0x02\n      add\n      sstore\n      0x60\n      dup3\n      add\n      mload\n      dup2\n      0x03\n      add\n      swap1\n      dup2\n      tag_23\n      swap2\n      swap1\n      tag_22\n      jump\t// in\n    tag_23:\n      pop\n      swap1\n      pop\n      pop\n        /* \"test.sol\":991:999  students */\n      0x04\n        /* \"test.sol\":1005:1007  s1 */\n      0x00\n        /* \"test.sol\":991:1008  students.push(s1) */\n      swap1\n      dup1\n      0x01\n      dup2\n      sload\n      add\n      dup1\n      dup3\n      sstore\n      dup1\n      swap2\n      pop\n      pop\n      0x01\n      swap1\n      sub\n      swap1\n      0x00\n      mstore\n      keccak256(0x00, 0x20)\n      swap1\n      0x04\n      mul\n      add\n      0x00\n      swap1\n      swap2\n      swap1\n      swap2\n      swap1\n      swap2\n      pop\n      0x00\n      dup3\n      add\n      dup2\n      0x00\n      add\n      swap1\n      dup2\n      tag_25\n      swap2\n      swap1\n      tag_26\n      jump\t// in\n    tag_25:\n      pop\n      0x01\n      dup3\n      add\n      sload\n      dup2\n      0x01\n      add\n      sstore\n      0x02\n      dup3\n      add\n      sload\n      dup2\n      0x02\n      add\n      sstore\n      0x03\n      dup3\n      add\n      dup2\n      0x03\n      add\n      swap1\n      dup2\n      tag_27\n      swap2\n      swap1\n      tag_26\n      jump\t// in\n    tag_27:\n      pop\n      pop\n      pop\n        /* \"test.sol\":827:1016  function setStudent (string memory _name, uint _number, uint _score, string memory _grade) public {... */\n      pop\n      pop\n      pop\n      pop\n      jump\t// out\n        /* \"test.sol\":1191:1296  function getStudent(uint _n) public view returns(Student memory) {... */\n    tag_13:\n        /* \"test.sol\":1240:1254  Student memory */\n      tag_28\n      tag_29\n      jump\t// in\n    tag_28:\n        /* \"test.sol\":1274:1282  students */\n      0x04\n        /* \"test.sol\":1286:1287  1 */\n      0x01\n        /* \"test.sol\":1283:1285  _n */\n      dup4\n        /* \"test.sol\":1283:1287  _n-1 */\n      tag_31\n      swap2\n      swap1\n      tag_32\n      jump\t// in\n    tag_31:\n        /* \"test.sol\":1274:1288  students[_n-1] */\n      dup2\n      sload\n      dup2\n      lt\n      tag_33\n      jumpi\n      tag_34\n      tag_35\n      jump\t// in\n    tag_34:\n    tag_33:\n      swap1\n      0x00\n      mstore\n      keccak256(0x00, 0x20)\n      swap1\n      0x04\n      mul\n      add\n        /* \"test.sol\":1267:1288  return students[_n-1] */\n      mload(0x40)\n      dup1\n      0x80\n      add\n      0x40\n      mstore\n      swap1\n      dup2\n      0x00\n      dup3\n      add\n      dup1\n      sload\n      tag_37\n      swap1\n      tag_38\n      jump\t// in\n    tag_37:\n      dup1\n      0x1f\n      add\n      0x20\n      dup1\n      swap2\n      div\n      mul\n      0x20\n      add\n      mload(0x40)\n      swap1\n      dup2\n      add\n      0x40\n      mstore\n      dup1\n      swap3\n      swap2\n      swap1\n      dup2\n      dup2\n      mstore\n      0x20\n      add\n      dup3\n      dup1\n      sload\n      tag_39\n      swap1\n      tag_38\n      jump\t// in\n    tag_39:\n      dup1\n      iszero\n      tag_40\n      jumpi\n      dup1\n      0x1f\n      lt\n      tag_41\n      jumpi\n      0x0100\n      dup1\n      dup4\n      sload\n      div\n      mul\n      dup4\n      mstore\n      swap2\n      0x20\n      add\n      swap2\n      jump(tag_40)\n    tag_41:\n      dup3\n      add\n      swap2\n      swap1\n      0x00\n      mstore\n      keccak256(0x00, 0x20)\n      swap1\n    tag_42:\n      dup2\n      sload\n      dup2\n      mstore\n      swap1\n      0x01\n      add\n      swap1\n      0x20\n      add\n      dup1\n      dup4\n      gt\n      tag_42\n      jumpi\n      dup3\n      swap1\n      sub\n      0x1f\n      and\n      dup3\n      add\n      swap2\n    tag_40:\n      pop\n      pop\n      pop\n      pop\n      pop\n      dup2\n      mstore\n      0x20\n      add\n      0x01\n      dup3\n      add\n      sload\n      dup2\n      mstore\n      0x20\n      add\n      0x02\n      dup3\n      add\n      sload\n      dup2\n      mstore\n      0x20\n      add\n      0x03\n      dup3\n      add\n      dup1\n      sload\n      tag_43\n      swap1\n      tag_38\n      jump\t// in\n    tag_43:\n      dup1\n      0x1f\n      add\n      0x20\n      dup1\n      swap2\n      div\n      mul\n      0x20\n      add\n      mload(0x40)\n      swap1\n      dup2\n      add\n      0x40\n      mstore\n      dup1\n      swap3\n      swap2\n      swap1\n      dup2\n      dup2\n      mstore\n      0x20\n      add\n      dup3\n      dup1\n      sload\n      tag_44\n      swap1\n      tag_38\n      jump\t// in\n    tag_44:\n      dup1\n      iszero\n      tag_45\n      jumpi\n      dup1\n      0x1f\n      lt\n      tag_46\n      jumpi\n      0x0100\n      dup1\n      dup4\n      sload\n      div\n      mul\n      dup4\n      mstore\n      swap2\n      0x20\n      add\n      swap2\n      jump(tag_45)\n    tag_46:\n      dup3\n      add\n      swap2\n      swap1\n      0x00\n      mstore\n      keccak256(0x00, 0x20)\n      swap1\n    tag_47:\n      dup2\n      sload\n      dup2\n      mstore\n      swap1\n      0x01\n      add\n      swap1\n      0x20\n      add\n      dup1\n      dup4\n      gt\n      tag_47\n      jumpi\n      dup3\n      swap1\n      sub\n      0x1f\n      and\n      dup3\n      add\n      swap2\n    tag_45:\n      pop\n      pop\n      pop\n      pop\n      pop\n      dup2\n      mstore\n      pop\n      pop\n      swap1\n      pop\n        /* \"test.sol\":1191:1296  function getStudent(uint _n) public view returns(Student memory) {... */\n      swap2\n      swap1\n      pop\n      jump\t// out\n        /* \"test.sol\":1057:1152  function getStudents() public view returns(Student[] memory) {... */\n    tag_17:\n        /* \"test.sol\":1100:1116  Student[] memory */\n      0x60\n        /* \"test.sol\":1136:1144  students */\n      0x04\n        /* \"test.sol\":1129:1144  return students */\n      dup1\n      sload\n      dup1\n      0x20\n      mul\n      0x20\n      add\n      mload(0x40)\n      swap1\n      dup2\n      add\n      0x40\n      mstore\n      dup1\n      swap3\n      swap2\n      swap1\n      dup2\n      dup2\n      mstore\n      0x20\n      add\n      0x00\n      swap1\n    tag_49:\n      dup3\n      dup3\n      lt\n      iszero\n      tag_50\n      jumpi\n      dup4\n      dup3\n      swap1\n      0x00\n      mstore\n      keccak256(0x00, 0x20)\n      swap1\n      0x04\n      mul\n      add\n      mload(0x40)\n      dup1\n      0x80\n      add\n      0x40\n      mstore\n      swap1\n      dup2\n      0x00\n      dup3\n      add\n      dup1\n      sload\n      tag_52\n      swap1\n      tag_38\n      jump\t// in\n    tag_52:\n      dup1\n      0x1f\n      add\n      0x20\n      dup1\n      swap2\n      div\n      mul\n      0x20\n      add\n      mload(0x40)\n      swap1\n      dup2\n      add\n      0x40\n      mstore\n      dup1\n      swap3\n      swap2\n      swap1\n      dup2\n      dup2\n      mstore\n      0x20\n      add\n      dup3\n      dup1\n      sload\n      tag_53\n      swap1\n      tag_38\n      jump\t// in\n    tag_53:\n      dup1\n      iszero\n      tag_54\n      jumpi\n      dup1\n      0x1f\n      lt\n      tag_55\n      jumpi\n      0x0100\n      dup1\n      dup4\n      sload\n      div\n      mul\n      dup4\n      mstore\n      swap2\n      0x20\n      add\n      swap2\n      jump(tag_54)\n    tag_55:\n      dup3\n      add\n      swap2\n      swap1\n      0x00\n      mstore\n      keccak256(0x00, 0x20)\n      swap1\n    tag_56:\n      dup2\n      sload\n      dup2\n      mstore\n      swap1\n      0x01\n      add\n      swap1\n      0x20\n      add\n      dup1\n      dup4\n      gt\n      tag_56\n      jumpi\n      dup3\n      swap1\n      sub\n      0x1f\n      and\n      dup3\n      add\n      swap2\n    tag_54:\n      pop\n      pop\n      pop\n      pop\n      pop\n      dup2\n      mstore\n      0x20\n      add\n      0x01\n      dup3\n      add\n      sload\n      dup2\n      mstore\n      0x20\n      add\n      0x02\n      dup3\n      add\n      sload\n      dup2\n      mstore\n      0x20\n      add\n      0x03\n      dup3\n      add\n      dup1\n      sload\n      tag_57\n      swap1\n      tag_38\n      jump\t// in\n    tag_57:\n      dup1\n      0x1f\n      add\n      0x20\n      dup1\n      swap2\n      div\n      mul\n      0x20\n      add\n      mload(0x40)\n      swap1\n      dup2\n      add\n      0x40\n      mstore\n      dup1\n      swap3\n      swap2\n      swap1\n      dup2\n      dup2\n      mstore\n      0x20\n      add\n      dup3\n      dup1\n      sload\n      tag_58\n      swap1\n      tag_38\n      jump\t// in\n    tag_58:\n      dup1\n      iszero\n      tag_59\n      jumpi\n      dup1\n      0x1f\n      lt\n      tag_60\n      jumpi\n      0x0100\n      dup1\n      dup4\n      sload\n      div\n      mul\n      dup4\n      mstore\n      swap2\n      0x20\n      add\n      swap2\n      jump(tag_59)\n    tag_60:\n      dup3\n      add\n      swap2\n      swap1\n      0x00\n      mstore\n      keccak256(0x00, 0x20)\n      swap1\n    tag_61:\n      dup2\n      sload\n      dup2\n      mstore\n      swap1\n      0x01\n      add\n      swap1\n      0x20\n      add\n      dup1\n      dup4\n      gt\n      tag_61\n      jumpi\n      dup3\n      swap1\n      sub\n      0x1f\n      and\n      dup3\n      add\n      swap2\n    tag_59:\n      pop\n      pop\n      pop\n      pop\n      pop\n      dup2\n      mstore\n      pop\n      pop\n      dup2\n      mstore\n      0x20\n      add\n      swap1\n      0x01\n      add\n      swap1\n      jump(tag_49)\n    tag_50:\n      pop\n      pop\n      pop\n      pop\n      swap1\n      pop\n        /* \"test.sol\":1057:1152  function getStudents() public view returns(Student[] memory) {... */\n      swap1\n      jump\t// out\n    tag_29:\n      mload(0x40)\n      dup1\n      0x80\n      add\n      0x40\n      mstore\n      dup1\n      0x60\n      dup2\n      mstore\n      0x20\n      add\n      0x00\n      dup2\n      mstore\n      0x20\n      add\n      0x00\n      dup2\n      mstore\n      0x20\n      add\n      0x60\n      dup2\n      mstore\n      pop\n      swap1\n      jump\t// out\n        /* \"#utility.yul\":7:82   */\n    tag_62:\n        /* \"#utility.yul\":40:46   */\n      0x00\n        /* \"#utility.yul\":73:75   */\n      0x40\n        /* \"#utility.yul\":67:76   */\n      mload\n        /* \"#utility.yul\":57:76   */\n      swap1\n      pop\n        /* \"#utility.yul\":7:82   */\n      swap1\n      jump\t// out\n        /* \"#utility.yul\":88:205   */\n    tag_63:\n        /* \"#utility.yul\":197:198   */\n      0x00\n        /* \"#utility.yul\":194:195   */\n      dup1\n        /* \"#utility.yul\":187:199   */\n      revert\n        /* \"#utility.yul\":211:328   */\n    tag_64:\n        /* \"#utility.yul\":320:321   */\n      0x00\n        /* \"#utility.yul\":317:318   */\n      dup1\n        /* \"#utility.yul\":310:322   */\n      revert\n        /* \"#utility.yul\":334:451   */\n    tag_65:\n        /* \"#utility.yul\":443:444   */\n      0x00\n        /* \"#utility.yul\":440:441   */\n      dup1\n        /* \"#utility.yul\":433:445   */\n      revert\n        /* \"#utility.yul\":457:574   */\n    tag_66:\n        /* \"#utility.yul\":566:567   */\n      0x00\n        /* \"#utility.yul\":563:564   */\n      dup1\n        /* \"#utility.yul\":556:568   */\n      revert\n        /* \"#utility.yul\":580:682   */\n    tag_67:\n        /* \"#utility.yul\":621:627   */\n      0x00\n        /* \"#utility.yul\":672:674   */\n      0x1f\n        /* \"#utility.yul\":668:675   */\n      not\n        /* \"#utility.yul\":663:665   */\n      0x1f\n        /* \"#utility.yul\":656:661   */\n      dup4\n        /* \"#utility.yul\":652:666   */\n      add\n        /* \"#utility.yul\":648:676   */\n      and\n        /* \"#utility.yul\":638:676   */\n      swap1\n      pop\n        /* \"#utility.yul\":580:682   */\n      swap2\n      swap1\n      pop\n      jump\t// out\n        /* \"#utility.yul\":688:868   */\n    tag_68:\n        /* \"#utility.yul\":736:813   */\n      0x4e487b7100000000000000000000000000000000000000000000000000000000\n        /* \"#utility.yul\":733:734   */\n      0x00\n        /* \"#utility.yul\":726:814   */\n      mstore\n        /* \"#utility.yul\":833:837   */\n      0x41\n        /* \"#utility.yul\":830:831   */\n      0x04\n        /* \"#utility.yul\":823:838   */\n      mstore\n        /* \"#utility.yul\":857:861   */\n      0x24\n        /* \"#utility.yul\":854:855   */\n      0x00\n        /* \"#utility.yul\":847:862   */\n      revert\n        /* \"#utility.yul\":874:1155   */\n    tag_69:\n        /* \"#utility.yul\":957:984   */\n      tag_118\n        /* \"#utility.yul\":979:983   */\n      dup3\n        /* \"#utility.yul\":957:984   */\n      tag_67\n      jump\t// in\n    tag_118:\n        /* \"#utility.yul\":949:955   */\n      dup2\n        /* \"#utility.yul\":945:985   */\n      add\n        /* \"#utility.yul\":1087:1093   */\n      dup2\n        /* \"#utility.yul\":1075:1085   */\n      dup2\n        /* \"#utility.yul\":1072:1094   */\n      lt\n        /* \"#utility.yul\":1051:1069   */\n      0xffffffffffffffff\n        /* \"#utility.yul\":1039:1049   */\n      dup3\n        /* \"#utility.yul\":1036:1070   */\n      gt\n        /* \"#utility.yul\":1033:1095   */\n      or\n        /* \"#utility.yul\":1030:1118   */\n      iszero\n      tag_119\n      jumpi\n        /* \"#utility.yul\":1098:1116   */\n      tag_120\n      tag_68\n      jump\t// in\n    tag_120:\n        /* \"#utility.yul\":1030:1118   */\n    tag_119:\n        /* \"#utility.yul\":1138:1148   */\n      dup1\n        /* \"#utility.yul\":1134:1136   */\n      0x40\n        /* \"#utility.yul\":1127:1149   */\n      mstore\n        /* \"#utility.yul\":917:1155   */\n      pop\n        /* \"#utility.yul\":874:1155   */\n      pop\n      pop\n      jump\t// out\n        /* \"#utility.yul\":1161:1290   */\n    tag_70:\n        /* \"#utility.yul\":1195:1201   */\n      0x00\n        /* \"#utility.yul\":1222:1242   */\n      tag_122\n      tag_62\n      jump\t// in\n    tag_122:\n        /* \"#utility.yul\":1212:1242   */\n      swap1\n      pop\n        /* \"#utility.yul\":1251:1284   */\n      tag_123\n        /* \"#utility.yul\":1279:1283   */\n      dup3\n        /* \"#utility.yul\":1271:1277   */\n      dup3\n        /* \"#utility.yul\":1251:1284   */\n      tag_69\n      jump\t// in\n    tag_123:\n        /* \"#utility.yul\":1161:1290   */\n      swap2\n      swap1\n      pop\n      jump\t// out\n        /* \"#utility.yul\":1296:1604   */\n    tag_71:\n        /* \"#utility.yul\":1358:1362   */\n      0x00\n        /* \"#utility.yul\":1448:1466   */\n      0xffffffffffffffff\n        /* \"#utility.yul\":1440:1446   */\n      dup3\n        /* \"#utility.yul\":1437:1467   */\n      gt\n        /* \"#utility.yul\":1434:1490   */\n      iszero\n      tag_125\n      jumpi\n        /* \"#utility.yul\":1470:1488   */\n      tag_126\n      tag_68\n      jump\t// in\n    tag_126:\n        /* \"#utility.yul\":1434:1490   */\n    tag_125:\n        /* \"#utility.yul\":1508:1537   */\n      tag_127\n        /* \"#utility.yul\":1530:1536   */\n      dup3\n        /* \"#utility.yul\":1508:1537   */\n      tag_67\n      jump\t// in\n    tag_127:\n        /* \"#utility.yul\":1500:1537   */\n      swap1\n      pop\n        /* \"#utility.yul\":1592:1596   */\n      0x20\n        /* \"#utility.yul\":1586:1590   */\n      dup2\n        /* \"#utility.yul\":1582:1597   */\n      add\n        /* \"#utility.yul\":1574:1597   */\n      swap1\n      pop\n        /* \"#utility.yul\":1296:1604   */\n      swap2\n      swap1\n      pop\n      jump\t// out\n        /* \"#utility.yul\":1610:1758   */\n    tag_72:\n        /* \"#utility.yul\":1708:1714   */\n      dup3\n        /* \"#utility.yul\":1703:1706   */\n      dup2\n        /* \"#utility.yul\":1698:1701   */\n      dup4\n        /* \"#utility.yul\":1685:1715   */\n      calldatacopy\n        /* \"#utility.yul\":1749:1750   */\n      0x00\n        /* \"#utility.yul\":1740:1746   */\n      dup4\n        /* \"#utility.yul\":1735:1738   */\n      dup4\n        /* \"#utility.yul\":1731:1747   */\n      add\n        /* \"#utility.yul\":1724:1751   */\n      mstore\n        /* \"#utility.yul\":1610:1758   */\n      pop\n      pop\n      pop\n      jump\t// out\n        /* \"#utility.yul\":1764:2189   */\n    tag_73:\n        /* \"#utility.yul\":1842:1847   */\n      0x00\n        /* \"#utility.yul\":1867:1933   */\n      tag_130\n        /* \"#utility.yul\":1883:1932   */\n      tag_131\n        /* \"#utility.yul\":1925:1931   */\n      dup5\n        /* \"#utility.yul\":1883:1932   */\n      tag_71\n      jump\t// in\n    tag_131:\n        /* \"#utility.yul\":1867:1933   */\n      tag_70\n      jump\t// in\n    tag_130:\n        /* \"#utility.yul\":1858:1933   */\n      swap1\n      pop\n        /* \"#utility.yul\":1956:1962   */\n      dup3\n        /* \"#utility.yul\":1949:1954   */\n      dup2\n        /* \"#utility.yul\":1942:1963   */\n      mstore\n        /* \"#utility.yul\":1994:1998   */\n      0x20\n        /* \"#utility.yul\":1987:1992   */\n      dup2\n        /* \"#utility.yul\":1983:1999   */\n      add\n        /* \"#utility.yul\":2032:2035   */\n      dup5\n        /* \"#utility.yul\":2023:2029   */\n      dup5\n        /* \"#utility.yul\":2018:2021   */\n      dup5\n        /* \"#utility.yul\":2014:2030   */\n      add\n        /* \"#utility.yul\":2011:2036   */\n      gt\n        /* \"#utility.yul\":2008:2120   */\n      iszero\n      tag_132\n      jumpi\n        /* \"#utility.yul\":2039:2118   */\n      tag_133\n      tag_66\n      jump\t// in\n    tag_133:\n        /* \"#utility.yul\":2008:2120   */\n    tag_132:\n        /* \"#utility.yul\":2129:2183   */\n      tag_134\n        /* \"#utility.yul\":2176:2182   */\n      dup5\n        /* \"#utility.yul\":2171:2174   */\n      dup3\n        /* \"#utility.yul\":2166:2169   */\n      dup6\n        /* \"#utility.yul\":2129:2183   */\n      tag_72\n      jump\t// in\n    tag_134:\n        /* \"#utility.yul\":1848:2189   */\n      pop\n        /* \"#utility.yul\":1764:2189   */\n      swap4\n      swap3\n      pop\n      pop\n      pop\n      jump\t// out\n        /* \"#utility.yul\":2209:2549   */\n    tag_74:\n        /* \"#utility.yul\":2265:2270   */\n      0x00\n        /* \"#utility.yul\":2314:2317   */\n      dup3\n        /* \"#utility.yul\":2307:2311   */\n      0x1f\n        /* \"#utility.yul\":2299:2305   */\n      dup4\n        /* \"#utility.yul\":2295:2312   */\n      add\n        /* \"#utility.yul\":2291:2318   */\n      slt\n        /* \"#utility.yul\":2281:2403   */\n      tag_136\n      jumpi\n        /* \"#utility.yul\":2322:2401   */\n      tag_137\n      tag_65\n      jump\t// in\n    tag_137:\n        /* \"#utility.yul\":2281:2403   */\n    tag_136:\n        /* \"#utility.yul\":2439:2445   */\n      dup2\n        /* \"#utility.yul\":2426:2446   */\n      calldataload\n        /* \"#utility.yul\":2464:2543   */\n      tag_138\n        /* \"#utility.yul\":2539:2542   */\n      dup5\n        /* \"#utility.yul\":2531:2537   */\n      dup3\n        /* \"#utility.yul\":2524:2528   */\n      0x20\n        /* \"#utility.yul\":2516:2522   */\n      dup7\n        /* \"#utility.yul\":2512:2529   */\n      add\n        /* \"#utility.yul\":2464:2543   */\n      tag_73\n      jump\t// in\n    tag_138:\n        /* \"#utility.yul\":2455:2543   */\n      swap2\n      pop\n        /* \"#utility.yul\":2271:2549   */\n      pop\n        /* \"#utility.yul\":2209:2549   */\n      swap3\n      swap2\n      pop\n      pop\n      jump\t// out\n        /* \"#utility.yul\":2555:2632   */\n    tag_75:\n        /* \"#utility.yul\":2592:2599   */\n      0x00\n        /* \"#utility.yul\":2621:2626   */\n      dup2\n        /* \"#utility.yul\":2610:2626   */\n      swap1\n      pop\n        /* \"#utility.yul\":2555:2632   */\n      swap2\n      swap1\n      pop\n      jump\t// out\n        /* \"#utility.yul\":2638:2760   */\n    tag_76:\n        /* \"#utility.yul\":2711:2735   */\n      tag_141\n        /* \"#utility.yul\":2729:2734   */\n      dup2\n        /* \"#utility.yul\":2711:2735   */\n      tag_75\n      jump\t// in\n    tag_141:\n        /* \"#utility.yul\":2704:2709   */\n      dup2\n        /* \"#utility.yul\":2701:2736   */\n      eq\n        /* \"#utility.yul\":2691:2754   */\n      tag_142\n      jumpi\n        /* \"#utility.yul\":2750:2751   */\n      0x00\n        /* \"#utility.yul\":2747:2748   */\n      dup1\n        /* \"#utility.yul\":2740:2752   */\n      revert\n        /* \"#utility.yul\":2691:2754   */\n    tag_142:\n        /* \"#utility.yul\":2638:2760   */\n      pop\n      jump\t// out\n        /* \"#utility.yul\":2766:2905   */\n    tag_77:\n        /* \"#utility.yul\":2812:2817   */\n      0x00\n        /* \"#utility.yul\":2850:2856   */\n      dup2\n        /* \"#utility.yul\":2837:2857   */\n      calldataload\n        /* \"#utility.yul\":2828:2857   */\n      swap1\n      pop\n        /* \"#utility.yul\":2866:2899   */\n      tag_144\n        /* \"#utility.yul\":2893:2898   */\n      dup2\n        /* \"#utility.yul\":2866:2899   */\n      tag_76\n      jump\t// in\n    tag_144:\n        /* \"#utility.yul\":2766:2905   */\n      swap3\n      swap2\n      pop\n      pop\n      jump\t// out\n        /* \"#utility.yul\":2911:4036   */\n    tag_8:\n        /* \"#utility.yul\":3017:3023   */\n      0x00\n        /* \"#utility.yul\":3025:3031   */\n      dup1\n        /* \"#utility.yul\":3033:3039   */\n      0x00\n        /* \"#utility.yul\":3041:3047   */\n      dup1\n        /* \"#utility.yul\":3090:3093   */\n      0x80\n        /* \"#utility.yul\":3078:3087   */\n      dup6\n        /* \"#utility.yul\":3069:3076   */\n      dup8\n        /* \"#utility.yul\":3065:3088   */\n      sub\n        /* \"#utility.yul\":3061:3094   */\n      slt\n        /* \"#utility.yul\":3058:3178   */\n      iszero\n      tag_146\n      jumpi\n        /* \"#utility.yul\":3097:3176   */\n      tag_147\n      tag_63\n      jump\t// in\n    tag_147:\n        /* \"#utility.yul\":3058:3178   */\n    tag_146:\n        /* \"#utility.yul\":3245:3246   */\n      0x00\n        /* \"#utility.yul\":3234:3243   */\n      dup6\n        /* \"#utility.yul\":3230:3247   */\n      add\n        /* \"#utility.yul\":3217:3248   */\n      calldataload\n        /* \"#utility.yul\":3275:3293   */\n      0xffffffffffffffff\n        /* \"#utility.yul\":3267:3273   */\n      dup2\n        /* \"#utility.yul\":3264:3294   */\n      gt\n        /* \"#utility.yul\":3261:3378   */\n      iszero\n      tag_148\n      jumpi\n        /* \"#utility.yul\":3297:3376   */\n      tag_149\n      tag_64\n      jump\t// in\n    tag_149:\n        /* \"#utility.yul\":3261:3378   */\n    tag_148:\n        /* \"#utility.yul\":3402:3465   */\n      tag_150\n        /* \"#utility.yul\":3457:3464   */\n      dup8\n        /* \"#utility.yul\":3448:3454   */\n      dup3\n        /* \"#utility.yul\":3437:3446   */\n      dup9\n        /* \"#utility.yul\":3433:3455   */\n      add\n        /* \"#utility.yul\":3402:3465   */\n      tag_74\n      jump\t// in\n    tag_150:\n        /* \"#utility.yul\":3392:3465   */\n      swap5\n      pop\n        /* \"#utility.yul\":3188:3475   */\n      pop\n        /* \"#utility.yul\":3514:3516   */\n      0x20\n        /* \"#utility.yul\":3540:3593   */\n      tag_151\n        /* \"#utility.yul\":3585:3592   */\n      dup8\n        /* \"#utility.yul\":3576:3582   */\n      dup3\n        /* \"#utility.yul\":3565:3574   */\n      dup9\n        /* \"#utility.yul\":3561:3583   */\n      add\n        /* \"#utility.yul\":3540:3593   */\n      tag_77\n      jump\t// in\n    tag_151:\n        /* \"#utility.yul\":3530:3593   */\n      swap4\n      pop\n        /* \"#utility.yul\":3485:3603   */\n      pop\n        /* \"#utility.yul\":3642:3644   */\n      0x40\n        /* \"#utility.yul\":3668:3721   */\n      tag_152\n        /* \"#utility.yul\":3713:3720   */\n      dup8\n        /* \"#utility.yul\":3704:3710   */\n      dup3\n        /* \"#utility.yul\":3693:3702   */\n      dup9\n        /* \"#utility.yul\":3689:3711   */\n      add\n        /* \"#utility.yul\":3668:3721   */\n      tag_77\n      jump\t// in\n    tag_152:\n        /* \"#utility.yul\":3658:3721   */\n      swap3\n      pop\n        /* \"#utility.yul\":3613:3731   */\n      pop\n        /* \"#utility.yul\":3798:3800   */\n      0x60\n        /* \"#utility.yul\":3787:3796   */\n      dup6\n        /* \"#utility.yul\":3783:3801   */\n      add\n        /* \"#utility.yul\":3770:3802   */\n      calldataload\n        /* \"#utility.yul\":3829:3847   */\n      0xffffffffffffffff\n        /* \"#utility.yul\":3821:3827   */\n      dup2\n        /* \"#utility.yul\":3818:3848   */\n      gt\n        /* \"#utility.yul\":3815:3932   */\n      iszero\n      tag_153\n      jumpi\n        /* \"#utility.yul\":3851:3930   */\n      tag_154\n      tag_64\n      jump\t// in\n    tag_154:\n        /* \"#utility.yul\":3815:3932   */\n    tag_153:\n        /* \"#utility.yul\":3956:4019   */\n      tag_155\n        /* \"#utility.yul\":4011:4018   */\n      dup8\n        /* \"#utility.yul\":4002:4008   */\n      dup3\n        /* \"#utility.yul\":3991:4000   */\n      dup9\n        /* \"#utility.yul\":3987:4009   */\n      add\n        /* \"#utility.yul\":3956:4019   */\n      tag_74\n      jump\t// in\n    tag_155:\n        /* \"#utility.yul\":3946:4019   */\n      swap2\n      pop\n        /* \"#utility.yul\":3741:4029   */\n      pop\n        /* \"#utility.yul\":2911:4036   */\n      swap3\n      swap6\n      swap2\n      swap5\n      pop\n      swap3\n      pop\n      jump\t// out\n        /* \"#utility.yul\":4042:4371   */\n    tag_12:\n        /* \"#utility.yul\":4101:4107   */\n      0x00\n        /* \"#utility.yul\":4150:4152   */\n      0x20\n        /* \"#utility.yul\":4138:4147   */\n      dup3\n        /* \"#utility.yul\":4129:4136   */\n      dup5\n        /* \"#utility.yul\":4125:4148   */\n      sub\n        /* \"#utility.yul\":4121:4153   */\n      slt\n        /* \"#utility.yul\":4118:4237   */\n      iszero\n      tag_157\n      jumpi\n        /* \"#utility.yul\":4156:4235   */\n      tag_158\n      tag_63\n      jump\t// in\n    tag_158:\n        /* \"#utility.yul\":4118:4237   */\n    tag_157:\n        /* \"#utility.yul\":4276:4277   */\n      0x00\n        /* \"#utility.yul\":4301:4354   */\n      tag_159\n        /* \"#utility.yul\":4346:4353   */\n      dup5\n        /* \"#utility.yul\":4337:4343   */\n      dup3\n        /* \"#utility.yul\":4326:4335   */\n      dup6\n        /* \"#utility.yul\":4322:4344   */\n      add\n        /* \"#utility.yul\":4301:4354   */\n      tag_77\n      jump\t// in\n    tag_159:\n        /* \"#utility.yul\":4291:4354   */\n      swap2\n      pop\n        /* \"#utility.yul\":4247:4364   */\n      pop\n        /* \"#utility.yul\":4042:4371   */\n      swap3\n      swap2\n      pop\n      pop\n      jump\t// out\n        /* \"#utility.yul\":4377:4476   */\n    tag_78:\n        /* \"#utility.yul\":4429:4435   */\n      0x00\n        /* \"#utility.yul\":4463:4468   */\n      dup2\n        /* \"#utility.yul\":4457:4469   */\n      mload\n        /* \"#utility.yul\":4447:4469   */\n      swap1\n      pop\n        /* \"#utility.yul\":4377:4476   */\n      swap2\n      swap1\n      pop\n      jump\t// out\n        /* \"#utility.yul\":4482:4641   */\n    tag_79:\n        /* \"#utility.yul\":4556:4567   */\n      0x00\n        /* \"#utility.yul\":4590:4596   */\n      dup3\n        /* \"#utility.yul\":4585:4588   */\n      dup3\n        /* \"#utility.yul\":4578:4597   */\n      mstore\n        /* \"#utility.yul\":4630:4634   */\n      0x20\n        /* \"#utility.yul\":4625:4628   */\n      dup3\n        /* \"#utility.yul\":4621:4635   */\n      add\n        /* \"#utility.yul\":4606:4635   */\n      swap1\n      pop\n        /* \"#utility.yul\":4482:4641   */\n      swap3\n      swap2\n      pop\n      pop\n      jump\t// out\n        /* \"#utility.yul\":4647:4786   */\n    tag_80:\n        /* \"#utility.yul\":4736:4742   */\n      dup3\n        /* \"#utility.yul\":4731:4734   */\n      dup2\n        /* \"#utility.yul\":4726:4729   */\n      dup4\n        /* \"#utility.yul\":4720:4743   */\n      mcopy\n        /* \"#utility.yul\":4777:4778   */\n      0x00\n        /* \"#utility.yul\":4768:4774   */\n      dup4\n        /* \"#utility.yul\":4763:4766   */\n      dup4\n        /* \"#utility.yul\":4759:4775   */\n      add\n        /* \"#utility.yul\":4752:4779   */\n      mstore\n        /* \"#utility.yul\":4647:4786   */\n      pop\n      pop\n      pop\n      jump\t// out\n        /* \"#utility.yul\":4792:5149   */\n    tag_81:\n        /* \"#utility.yul\":4870:4873   */\n      0x00\n        /* \"#utility.yul\":4898:4937   */\n      tag_164\n        /* \"#utility.yul\":4931:4936   */\n      dup3\n        /* \"#utility.yul\":4898:4937   */\n      tag_78\n      jump\t// in\n    tag_164:\n        /* \"#utility.yul\":4953:5014   */\n      tag_165\n        /* \"#utility.yul\":5007:5013   */\n      dup2\n        /* \"#utility.yul\":5002:5005   */\n      dup6\n        /* \"#utility.yul\":4953:5014   */\n      tag_79\n      jump\t// in\n    tag_165:\n        /* \"#utility.yul\":4946:5014   */\n      swap4\n      pop\n        /* \"#utility.yul\":5023:5088   */\n      tag_166\n        /* \"#utility.yul\":5081:5087   */\n      dup2\n        /* \"#utility.yul\":5076:5079   */\n      dup6\n        /* \"#utility.yul\":5069:5073   */\n      0x20\n        /* \"#utility.yul\":5062:5067   */\n      dup7\n        /* \"#utility.yul\":5058:5074   */\n      add\n        /* \"#utility.yul\":5023:5088   */\n      tag_80\n      jump\t// in\n    tag_166:\n        /* \"#utility.yul\":5113:5142   */\n      tag_167\n        /* \"#utility.yul\":5135:5141   */\n      dup2\n        /* \"#utility.yul\":5113:5142   */\n      tag_67\n      jump\t// in\n    tag_167:\n        /* \"#utility.yul\":5108:5111   */\n      dup5\n        /* \"#utility.yul\":5104:5143   */\n      add\n        /* \"#utility.yul\":5097:5143   */\n      swap2\n      pop\n        /* \"#utility.yul\":4874:5149   */\n      pop\n        /* \"#utility.yul\":4792:5149   */\n      swap3\n      swap2\n      pop\n      pop\n      jump\t// out\n        /* \"#utility.yul\":5155:5263   */\n    tag_82:\n        /* \"#utility.yul\":5232:5256   */\n      tag_169\n        /* \"#utility.yul\":5250:5255   */\n      dup2\n        /* \"#utility.yul\":5232:5256   */\n      tag_75\n      jump\t// in\n    tag_169:\n        /* \"#utility.yul\":5227:5230   */\n      dup3\n        /* \"#utility.yul\":5220:5257   */\n      mstore\n        /* \"#utility.yul\":5155:5263   */\n      pop\n      pop\n      jump\t// out\n        /* \"#utility.yul\":5321:6346   */\n    tag_83:\n        /* \"#utility.yul\":5436:5439   */\n      0x00\n        /* \"#utility.yul\":5472:5476   */\n      0x80\n        /* \"#utility.yul\":5467:5470   */\n      dup4\n        /* \"#utility.yul\":5463:5477   */\n      add\n        /* \"#utility.yul\":5559:5563   */\n      0x00\n        /* \"#utility.yul\":5552:5557   */\n      dup4\n        /* \"#utility.yul\":5548:5564   */\n      add\n        /* \"#utility.yul\":5542:5565   */\n      mload\n        /* \"#utility.yul\":5612:5615   */\n      dup5\n        /* \"#utility.yul\":5606:5610   */\n      dup3\n        /* \"#utility.yul\":5602:5616   */\n      sub\n        /* \"#utility.yul\":5595:5599   */\n      0x00\n        /* \"#utility.yul\":5590:5593   */\n      dup7\n        /* \"#utility.yul\":5586:5600   */\n      add\n        /* \"#utility.yul\":5579:5617   */\n      mstore\n        /* \"#utility.yul\":5638:5711   */\n      tag_171\n        /* \"#utility.yul\":5706:5710   */\n      dup3\n        /* \"#utility.yul\":5692:5704   */\n      dup3\n        /* \"#utility.yul\":5638:5711   */\n      tag_81\n      jump\t// in\n    tag_171:\n        /* \"#utility.yul\":5630:5711   */\n      swap2\n      pop\n        /* \"#utility.yul\":5487:5722   */\n      pop\n        /* \"#utility.yul\":5806:5810   */\n      0x20\n        /* \"#utility.yul\":5799:5804   */\n      dup4\n        /* \"#utility.yul\":5795:5811   */\n      add\n        /* \"#utility.yul\":5789:5812   */\n      mload\n        /* \"#utility.yul\":5825:5888   */\n      tag_172\n        /* \"#utility.yul\":5882:5886   */\n      0x20\n        /* \"#utility.yul\":5877:5880   */\n      dup7\n        /* \"#utility.yul\":5873:5887   */\n      add\n        /* \"#utility.yul\":5859:5871   */\n      dup3\n        /* \"#utility.yul\":5825:5888   */\n      tag_82\n      jump\t// in\n    tag_172:\n        /* \"#utility.yul\":5732:5898   */\n      pop\n        /* \"#utility.yul\":5981:5985   */\n      0x40\n        /* \"#utility.yul\":5974:5979   */\n      dup4\n        /* \"#utility.yul\":5970:5986   */\n      add\n        /* \"#utility.yul\":5964:5987   */\n      mload\n        /* \"#utility.yul\":6000:6063   */\n      tag_173\n        /* \"#utility.yul\":6057:6061   */\n      0x40\n        /* \"#utility.yul\":6052:6055   */\n      dup7\n        /* \"#utility.yul\":6048:6062   */\n      add\n        /* \"#utility.yul\":6034:6046   */\n      dup3\n        /* \"#utility.yul\":6000:6063   */\n      tag_82\n      jump\t// in\n    tag_173:\n        /* \"#utility.yul\":5908:6073   */\n      pop\n        /* \"#utility.yul\":6156:6160   */\n      0x60\n        /* \"#utility.yul\":6149:6154   */\n      dup4\n        /* \"#utility.yul\":6145:6161   */\n      add\n        /* \"#utility.yul\":6139:6162   */\n      mload\n        /* \"#utility.yul\":6209:6212   */\n      dup5\n        /* \"#utility.yul\":6203:6207   */\n      dup3\n        /* \"#utility.yul\":6199:6213   */\n      sub\n        /* \"#utility.yul\":6192:6196   */\n      0x60\n        /* \"#utility.yul\":6187:6190   */\n      dup7\n        /* \"#utility.yul\":6183:6197   */\n      add\n        /* \"#utility.yul\":6176:6214   */\n      mstore\n        /* \"#utility.yul\":6235:6308   */\n      tag_174\n        /* \"#utility.yul\":6303:6307   */\n      dup3\n        /* \"#utility.yul\":6289:6301   */\n      dup3\n        /* \"#utility.yul\":6235:6308   */\n      tag_81\n      jump\t// in\n    tag_174:\n        /* \"#utility.yul\":6227:6308   */\n      swap2\n      pop\n        /* \"#utility.yul\":6083:6319   */\n      pop\n        /* \"#utility.yul\":6336:6340   */\n      dup1\n        /* \"#utility.yul\":6329:6340   */\n      swap2\n      pop\n        /* \"#utility.yul\":5441:6346   */\n      pop\n        /* \"#utility.yul\":5321:6346   */\n      swap3\n      swap2\n      pop\n      pop\n      jump\t// out\n        /* \"#utility.yul\":6352:6717   */\n    tag_15:\n        /* \"#utility.yul\":6491:6495   */\n      0x00\n        /* \"#utility.yul\":6529:6531   */\n      0x20\n        /* \"#utility.yul\":6518:6527   */\n      dup3\n        /* \"#utility.yul\":6514:6532   */\n      add\n        /* \"#utility.yul\":6506:6532   */\n      swap1\n      pop\n        /* \"#utility.yul\":6578:6587   */\n      dup2\n        /* \"#utility.yul\":6572:6576   */\n      dup2\n        /* \"#utility.yul\":6568:6588   */\n      sub\n        /* \"#utility.yul\":6564:6565   */\n      0x00\n        /* \"#utility.yul\":6553:6562   */\n      dup4\n        /* \"#utility.yul\":6549:6566   */\n      add\n        /* \"#utility.yul\":6542:6589   */\n      mstore\n        /* \"#utility.yul\":6606:6710   */\n      tag_176\n        /* \"#utility.yul\":6705:6709   */\n      dup2\n        /* \"#utility.yul\":6696:6702   */\n      dup5\n        /* \"#utility.yul\":6606:6710   */\n      tag_83\n      jump\t// in\n    tag_176:\n        /* \"#utility.yul\":6598:6710   */\n      swap1\n      pop\n        /* \"#utility.yul\":6352:6717   */\n      swap3\n      swap2\n      pop\n      pop\n      jump\t// out\n        /* \"#utility.yul\":6723:6860   */\n    tag_84:\n        /* \"#utility.yul\":6813:6819   */\n      0x00\n        /* \"#utility.yul\":6847:6852   */\n      dup2\n        /* \"#utility.yul\":6841:6853   */\n      mload\n        /* \"#utility.yul\":6831:6853   */\n      swap1\n      pop\n        /* \"#utility.yul\":6723:6860   */\n      swap2\n      swap1\n      pop\n      jump\t// out\n        /* \"#utility.yul\":6866:7073   */\n    tag_85:\n        /* \"#utility.yul\":6988:6999   */\n      0x00\n        /* \"#utility.yul\":7022:7028   */\n      dup3\n        /* \"#utility.yul\":7017:7020   */\n      dup3\n        /* \"#utility.yul\":7010:7029   */\n      mstore\n        /* \"#utility.yul\":7062:7066   */\n      0x20\n        /* \"#utility.yul\":7057:7060   */\n      dup3\n        /* \"#utility.yul\":7053:7067   */\n      add\n        /* \"#utility.yul\":7038:7067   */\n      swap1\n      pop\n        /* \"#utility.yul\":6866:7073   */\n      swap3\n      swap2\n      pop\n      pop\n      jump\t// out\n        /* \"#utility.yul\":7079:7234   */\n    tag_86:\n        /* \"#utility.yul\":7169:7173   */\n      0x00\n        /* \"#utility.yul\":7192:7195   */\n      dup2\n        /* \"#utility.yul\":7184:7195   */\n      swap1\n      pop\n        /* \"#utility.yul\":7222:7226   */\n      0x20\n        /* \"#utility.yul\":7217:7220   */\n      dup3\n        /* \"#utility.yul\":7213:7227   */\n      add\n        /* \"#utility.yul\":7205:7227   */\n      swap1\n      pop\n        /* \"#utility.yul\":7079:7234   */\n      swap2\n      swap1\n      pop\n      jump\t// out\n        /* \"#utility.yul\":7292:8307   */\n    tag_87:\n        /* \"#utility.yul\":7397:7400   */\n      0x00\n        /* \"#utility.yul\":7433:7437   */\n      0x80\n        /* \"#utility.yul\":7428:7431   */\n      dup4\n        /* \"#utility.yul\":7424:7438   */\n      add\n        /* \"#utility.yul\":7520:7524   */\n      0x00\n        /* \"#utility.yul\":7513:7518   */\n      dup4\n        /* \"#utility.yul\":7509:7525   */\n      add\n        /* \"#utility.yul\":7503:7526   */\n      mload\n        /* \"#utility.yul\":7573:7576   */\n      dup5\n        /* \"#utility.yul\":7567:7571   */\n      dup3\n        /* \"#utility.yul\":7563:7577   */\n      sub\n        /* \"#utility.yul\":7556:7560   */\n      0x00\n        /* \"#utility.yul\":7551:7554   */\n      dup7\n        /* \"#utility.yul\":7547:7561   */\n      add\n        /* \"#utility.yul\":7540:7578   */\n      mstore\n        /* \"#utility.yul\":7599:7672   */\n      tag_181\n        /* \"#utility.yul\":7667:7671   */\n      dup3\n        /* \"#utility.yul\":7653:7665   */\n      dup3\n        /* \"#utility.yul\":7599:7672   */\n      tag_81\n      jump\t// in\n    tag_181:\n        /* \"#utility.yul\":7591:7672   */\n      swap2\n      pop\n        /* \"#utility.yul\":7448:7683   */\n      pop\n        /* \"#utility.yul\":7767:7771   */\n      0x20\n        /* \"#utility.yul\":7760:7765   */\n      dup4\n        /* \"#utility.yul\":7756:7772   */\n      add\n        /* \"#utility.yul\":7750:7773   */\n      mload\n        /* \"#utility.yul\":7786:7849   */\n      tag_182\n        /* \"#utility.yul\":7843:7847   */\n      0x20\n        /* \"#utility.yul\":7838:7841   */\n      dup7\n        /* \"#utility.yul\":7834:7848   */\n      add\n        /* \"#utility.yul\":7820:7832   */\n      dup3\n        /* \"#utility.yul\":7786:7849   */\n      tag_82\n      jump\t// in\n    tag_182:\n        /* \"#utility.yul\":7693:7859   */\n      pop\n        /* \"#utility.yul\":7942:7946   */\n      0x40\n        /* \"#utility.yul\":7935:7940   */\n      dup4\n        /* \"#utility.yul\":7931:7947   */\n      add\n        /* \"#utility.yul\":7925:7948   */\n      mload\n        /* \"#utility.yul\":7961:8024   */\n      tag_183\n        /* \"#utility.yul\":8018:8022   */\n      0x40\n        /* \"#utility.yul\":8013:8016   */\n      dup7\n        /* \"#utility.yul\":8009:8023   */\n      add\n        /* \"#utility.yul\":7995:8007   */\n      dup3\n        /* \"#utility.yul\":7961:8024   */\n      tag_82\n      jump\t// in\n    tag_183:\n        /* \"#utility.yul\":7869:8034   */\n      pop\n        /* \"#utility.yul\":8117:8121   */\n      0x60\n        /* \"#utility.yul\":8110:8115   */\n      dup4\n        /* \"#utility.yul\":8106:8122   */\n      add\n        /* \"#utility.yul\":8100:8123   */\n      mload\n        /* \"#utility.yul\":8170:8173   */\n      dup5\n        /* \"#utility.yul\":8164:8168   */\n      dup3\n        /* \"#utility.yul\":8160:8174   */\n      sub\n        /* \"#utility.yul\":8153:8157   */\n      0x60\n        /* \"#utility.yul\":8148:8151   */\n      dup7\n        /* \"#utility.yul\":8144:8158   */\n      add\n        /* \"#utility.yul\":8137:8175   */\n      mstore\n        /* \"#utility.yul\":8196:8269   */\n      tag_184\n        /* \"#utility.yul\":8264:8268   */\n      dup3\n        /* \"#utility.yul\":8250:8262   */\n      dup3\n        /* \"#utility.yul\":8196:8269   */\n      tag_81\n      jump\t// in\n    tag_184:\n        /* \"#utility.yul\":8188:8269   */\n      swap2\n      pop\n        /* \"#utility.yul\":8044:8280   */\n      pop\n        /* \"#utility.yul\":8297:8301   */\n      dup1\n        /* \"#utility.yul\":8290:8301   */\n      swap2\n      pop\n        /* \"#utility.yul\":7402:8307   */\n      pop\n        /* \"#utility.yul\":7292:8307   */\n      swap3\n      swap2\n      pop\n      pop\n      jump\t// out\n        /* \"#utility.yul\":8313:8561   */\n    tag_88:\n        /* \"#utility.yul\":8428:8438   */\n      0x00\n        /* \"#utility.yul\":8463:8555   */\n      tag_186\n        /* \"#utility.yul\":8551:8554   */\n      dup4\n        /* \"#utility.yul\":8543:8549   */\n      dup4\n        /* \"#utility.yul\":8463:8555   */\n      tag_87\n      jump\t// in\n    tag_186:\n        /* \"#utility.yul\":8449:8555   */\n      swap1\n      pop\n        /* \"#utility.yul\":8313:8561   */\n      swap3\n      swap2\n      pop\n      pop\n      jump\t// out\n        /* \"#utility.yul\":8567:8703   */\n    tag_89:\n        /* \"#utility.yul\":8660:8664   */\n      0x00\n        /* \"#utility.yul\":8692:8696   */\n      0x20\n        /* \"#utility.yul\":8687:8690   */\n      dup3\n        /* \"#utility.yul\":8683:8697   */\n      add\n        /* \"#utility.yul\":8675:8697   */\n      swap1\n      pop\n        /* \"#utility.yul\":8567:8703   */\n      swap2\n      swap1\n      pop\n      jump\t// out\n        /* \"#utility.yul\":8765:9860   */\n    tag_90:\n        /* \"#utility.yul\":8930:8933   */\n      0x00\n        /* \"#utility.yul\":8959:9036   */\n      tag_189\n        /* \"#utility.yul\":9030:9035   */\n      dup3\n        /* \"#utility.yul\":8959:9036   */\n      tag_84\n      jump\t// in\n    tag_189:\n        /* \"#utility.yul\":9052:9161   */\n      tag_190\n        /* \"#utility.yul\":9154:9160   */\n      dup2\n        /* \"#utility.yul\":9149:9152   */\n      dup6\n        /* \"#utility.yul\":9052:9161   */\n      tag_85\n      jump\t// in\n    tag_190:\n        /* \"#utility.yul\":9045:9161   */\n      swap4\n      pop\n        /* \"#utility.yul\":9187:9190   */\n      dup4\n        /* \"#utility.yul\":9232:9236   */\n      0x20\n        /* \"#utility.yul\":9224:9230   */\n      dup3\n        /* \"#utility.yul\":9220:9237   */\n      mul\n        /* \"#utility.yul\":9215:9218   */\n      dup6\n        /* \"#utility.yul\":9211:9238   */\n      add\n        /* \"#utility.yul\":9262:9341   */\n      tag_191\n        /* \"#utility.yul\":9335:9340   */\n      dup6\n        /* \"#utility.yul\":9262:9341   */\n      tag_86\n      jump\t// in\n    tag_191:\n        /* \"#utility.yul\":9364:9371   */\n      dup1\n        /* \"#utility.yul\":9395:9396   */\n      0x00\n        /* \"#utility.yul\":9380:9815   */\n    tag_192:\n        /* \"#utility.yul\":9405:9411   */\n      dup6\n        /* \"#utility.yul\":9402:9403   */\n      dup2\n        /* \"#utility.yul\":9399:9412   */\n      lt\n        /* \"#utility.yul\":9380:9815   */\n      iszero\n      tag_194\n      jumpi\n        /* \"#utility.yul\":9476:9485   */\n      dup5\n        /* \"#utility.yul\":9470:9474   */\n      dup5\n        /* \"#utility.yul\":9466:9486   */\n      sub\n        /* \"#utility.yul\":9461:9464   */\n      dup10\n        /* \"#utility.yul\":9454:9487   */\n      mstore\n        /* \"#utility.yul\":9527:9533   */\n      dup2\n        /* \"#utility.yul\":9521:9534   */\n      mload\n        /* \"#utility.yul\":9555:9665   */\n      tag_195\n        /* \"#utility.yul\":9660:9664   */\n      dup6\n        /* \"#utility.yul\":9645:9658   */\n      dup3\n        /* \"#utility.yul\":9555:9665   */\n      tag_88\n      jump\t// in\n    tag_195:\n        /* \"#utility.yul\":9547:9665   */\n      swap5\n      pop\n        /* \"#utility.yul\":9688:9771   */\n      tag_196\n        /* \"#utility.yul\":9764:9770   */\n      dup4\n        /* \"#utility.yul\":9688:9771   */\n      tag_89\n      jump\t// in\n    tag_196:\n        /* \"#utility.yul\":9678:9771   */\n      swap3\n      pop\n        /* \"#utility.yul\":9800:9804   */\n      0x20\n        /* \"#utility.yul\":9795:9798   */\n      dup11\n        /* \"#utility.yul\":9791:9805   */\n      add\n        /* \"#utility.yul\":9784:9805   */\n      swap10\n      pop\n        /* \"#utility.yul\":9440:9815   */\n      pop\n        /* \"#utility.yul\":9427:9428   */\n      0x01\n        /* \"#utility.yul\":9424:9425   */\n      dup2\n        /* \"#utility.yul\":9420:9429   */\n      add\n        /* \"#utility.yul\":9415:9429   */\n      swap1\n      pop\n        /* \"#utility.yul\":9380:9815   */\n      jump(tag_192)\n    tag_194:\n        /* \"#utility.yul\":9384:9398   */\n      pop\n        /* \"#utility.yul\":9831:9835   */\n      dup3\n        /* \"#utility.yul\":9824:9835   */\n      swap8\n      pop\n        /* \"#utility.yul\":9851:9854   */\n      dup8\n        /* \"#utility.yul\":9844:9854   */\n      swap6\n      pop\n        /* \"#utility.yul\":8935:9860   */\n      pop\n      pop\n      pop\n      pop\n      pop\n        /* \"#utility.yul\":8765:9860   */\n      swap3\n      swap2\n      pop\n      pop\n      jump\t// out\n        /* \"#utility.yul\":9866:10331   */\n    tag_19:\n        /* \"#utility.yul\":10055:10059   */\n      0x00\n        /* \"#utility.yul\":10093:10095   */\n      0x20\n        /* \"#utility.yul\":10082:10091   */\n      dup3\n        /* \"#utility.yul\":10078:10096   */\n      add\n        /* \"#utility.yul\":10070:10096   */\n      swap1\n      pop\n        /* \"#utility.yul\":10142:10151   */\n      dup2\n        /* \"#utility.yul\":10136:10140   */\n      dup2\n        /* \"#utility.yul\":10132:10152   */\n      sub\n        /* \"#utility.yul\":10128:10129   */\n      0x00\n        /* \"#utility.yul\":10117:10126   */\n      dup4\n        /* \"#utility.yul\":10113:10130   */\n      add\n        /* \"#utility.yul\":10106:10153   */\n      mstore\n        /* \"#utility.yul\":10170:10324   */\n      tag_198\n        /* \"#utility.yul\":10319:10323   */\n      dup2\n        /* \"#utility.yul\":10310:10316   */\n      dup5\n        /* \"#utility.yul\":10170:10324   */\n      tag_90\n      jump\t// in\n    tag_198:\n        /* \"#utility.yul\":10162:10324   */\n      swap1\n      pop\n        /* \"#utility.yul\":9866:10331   */\n      swap3\n      swap2\n      pop\n      pop\n      jump\t// out\n        /* \"#utility.yul\":10337:10517   */\n    tag_91:\n        /* \"#utility.yul\":10385:10462   */\n      0x4e487b7100000000000000000000000000000000000000000000000000000000\n        /* \"#utility.yul\":10382:10383   */\n      0x00\n        /* \"#utility.yul\":10375:10463   */\n      mstore\n        /* \"#utility.yul\":10482:10486   */\n      0x22\n        /* \"#utility.yul\":10479:10480   */\n      0x04\n        /* \"#utility.yul\":10472:10487   */\n      mstore\n        /* \"#utility.yul\":10506:10510   */\n      0x24\n        /* \"#utility.yul\":10503:10504   */\n      0x00\n        /* \"#utility.yul\":10496:10511   */\n      revert\n        /* \"#utility.yul\":10523:10843   */\n    tag_38:\n        /* \"#utility.yul\":10567:10573   */\n      0x00\n        /* \"#utility.yul\":10604:10605   */\n      0x02\n        /* \"#utility.yul\":10598:10602   */\n      dup3\n        /* \"#utility.yul\":10594:10606   */\n      div\n        /* \"#utility.yul\":10584:10606   */\n      swap1\n      pop\n        /* \"#utility.yul\":10651:10652   */\n      0x01\n        /* \"#utility.yul\":10645:10649   */\n      dup3\n        /* \"#utility.yul\":10641:10653   */\n      and\n        /* \"#utility.yul\":10672:10690   */\n      dup1\n        /* \"#utility.yul\":10662:10743   */\n      tag_201\n      jumpi\n        /* \"#utility.yul\":10728:10732   */\n      0x7f\n        /* \"#utility.yul\":10720:10726   */\n      dup3\n        /* \"#utility.yul\":10716:10733   */\n      and\n        /* \"#utility.yul\":10706:10733   */\n      swap2\n      pop\n        /* \"#utility.yul\":10662:10743   */\n    tag_201:\n        /* \"#utility.yul\":10790:10792   */\n      0x20\n        /* \"#utility.yul\":10782:10788   */\n      dup3\n        /* \"#utility.yul\":10779:10793   */\n      lt\n        /* \"#utility.yul\":10759:10777   */\n      dup2\n        /* \"#utility.yul\":10756:10794   */\n      sub\n        /* \"#utility.yul\":10753:10837   */\n      tag_202\n      jumpi\n        /* \"#utility.yul\":10809:10827   */\n      tag_203\n      tag_91\n      jump\t// in\n    tag_203:\n        /* \"#utility.yul\":10753:10837   */\n    tag_202:\n        /* \"#utility.yul\":10574:10843   */\n      pop\n        /* \"#utility.yul\":10523:10843   */\n      swap2\n      swap1\n      pop\n      jump\t// out\n        /* \"#utility.yul\":10849:10990   */\n    tag_92:\n        /* \"#utility.yul\":10898:10902   */\n      0x00\n        /* \"#utility.yul\":10921:10924   */\n      dup2\n        /* \"#utility.yul\":10913:10924   */\n      swap1\n      pop\n        /* \"#utility.yul\":10944:10947   */\n      dup2\n        /* \"#utility.yul\":10941:10942   */\n      0x00\n        /* \"#utility.yul\":10934:10948   */\n      mstore\n        /* \"#utility.yul\":10978:10982   */\n      0x20\n        /* \"#utility.yul\":10975:10976   */\n      0x00\n        /* \"#utility.yul\":10965:10983   */\n      keccak256\n        /* \"#utility.yul\":10957:10983   */\n      swap1\n      pop\n        /* \"#utility.yul\":10849:10990   */\n      swap2\n      swap1\n      pop\n      jump\t// out\n        /* \"#utility.yul\":10996:11089   */\n    tag_93:\n        /* \"#utility.yul\":11033:11039   */\n      0x00\n        /* \"#utility.yul\":11080:11082   */\n      0x20\n        /* \"#utility.yul\":11075:11077   */\n      0x1f\n        /* \"#utility.yul\":11068:11073   */\n      dup4\n        /* \"#utility.yul\":11064:11078   */\n      add\n        /* \"#utility.yul\":11060:11083   */\n      div\n        /* \"#utility.yul\":11050:11083   */\n      swap1\n      pop\n        /* \"#utility.yul\":10996:11089   */\n      swap2\n      swap1\n      pop\n      jump\t// out\n        /* \"#utility.yul\":11095:11202   */\n    tag_94:\n        /* \"#utility.yul\":11139:11147   */\n      0x00\n        /* \"#utility.yul\":11189:11194   */\n      dup3\n        /* \"#utility.yul\":11183:11187   */\n      dup3\n        /* \"#utility.yul\":11179:11195   */\n      shl\n        /* \"#utility.yul\":11158:11195   */\n      swap1\n      pop\n        /* \"#utility.yul\":11095:11202   */\n      swap3\n      swap2\n      pop\n      pop\n      jump\t// out\n        /* \"#utility.yul\":11208:11601   */\n    tag_95:\n        /* \"#utility.yul\":11277:11283   */\n      0x00\n        /* \"#utility.yul\":11327:11328   */\n      0x08\n        /* \"#utility.yul\":11315:11325   */\n      dup4\n        /* \"#utility.yul\":11311:11329   */\n      mul\n        /* \"#utility.yul\":11350:11447   */\n      tag_208\n        /* \"#utility.yul\":11380:11446   */\n      0xffffffffffffffffffffffffffffffffffffffffffffffffffffffffffffffff\n        /* \"#utility.yul\":11369:11378   */\n      dup3\n        /* \"#utility.yul\":11350:11447   */\n      tag_94\n      jump\t// in\n    tag_208:\n        /* \"#utility.yul\":11468:11507   */\n      tag_209\n        /* \"#utility.yul\":11498:11506   */\n      dup7\n        /* \"#utility.yul\":11487:11496   */\n      dup4\n        /* \"#utility.yul\":11468:11507   */\n      tag_94\n      jump\t// in\n    tag_209:\n        /* \"#utility.yul\":11456:11507   */\n      swap6\n      pop\n        /* \"#utility.yul\":11540:11544   */\n      dup1\n        /* \"#utility.yul\":11536:11545   */\n      not\n        /* \"#utility.yul\":11529:11534   */\n      dup5\n        /* \"#utility.yul\":11525:11546   */\n      and\n        /* \"#utility.yul\":11516:11546   */\n      swap4\n      pop\n        /* \"#utility.yul\":11589:11593   */\n      dup1\n        /* \"#utility.yul\":11579:11587   */\n      dup7\n        /* \"#utility.yul\":11575:11594   */\n      and\n        /* \"#utility.yul\":11568:11573   */\n      dup5\n        /* \"#utility.yul\":11565:11595   */\n      or\n        /* \"#utility.yul\":11555:11595   */\n      swap3\n      pop\n        /* \"#utility.yul\":11284:11601   */\n      pop\n      pop\n        /* \"#utility.yul\":11208:11601   */\n      swap4\n      swap3\n      pop\n      pop\n      pop\n      jump\t// out\n        /* \"#utility.yul\":11607:11667   */\n    tag_96:\n        /* \"#utility.yul\":11635:11638   */\n      0x00\n        /* \"#utility.yul\":11656:11661   */\n      dup2\n        /* \"#utility.yul\":11649:11661   */\n      swap1\n      pop\n        /* \"#utility.yul\":11607:11667   */\n      swap2\n      swap1\n      pop\n      jump\t// out\n        /* \"#utility.yul\":11673:11815   */\n    tag_97:\n        /* \"#utility.yul\":11723:11732   */\n      0x00\n        /* \"#utility.yul\":11756:11809   */\n      tag_212\n        /* \"#utility.yul\":11774:11808   */\n      tag_213\n        /* \"#utility.yul\":11783:11807   */\n      tag_214\n        /* \"#utility.yul\":11801:11806   */\n      dup5\n        /* \"#utility.yul\":11783:11807   */\n      tag_75\n      jump\t// in\n    tag_214:\n        /* \"#utility.yul\":11774:11808   */\n      tag_96\n      jump\t// in\n    tag_213:\n        /* \"#utility.yul\":11756:11809   */\n      tag_75\n      jump\t// in\n    tag_212:\n        /* \"#utility.yul\":11743:11809   */\n      swap1\n      pop\n        /* \"#utility.yul\":11673:11815   */\n      swap2\n      swap1\n      pop\n      jump\t// out\n        /* \"#utility.yul\":11821:11896   */\n    tag_98:\n        /* \"#utility.yul\":11864:11867   */\n      0x00\n        /* \"#utility.yul\":11885:11890   */\n      dup2\n        /* \"#utility.yul\":11878:11890   */\n      swap1\n      pop\n        /* \"#utility.yul\":11821:11896   */\n      swap2\n      swap1\n      pop\n      jump\t// out\n        /* \"#utility.yul\":11902:12171   */\n    tag_99:\n        /* \"#utility.yul\":12012:12051   */\n      tag_217\n        /* \"#utility.yul\":12043:12050   */\n      dup4\n        /* \"#utility.yul\":12012:12051   */\n      tag_97\n      jump\t// in\n    tag_217:\n        /* \"#utility.yul\":12073:12164   */\n      tag_218\n        /* \"#utility.yul\":12122:12163   */\n      tag_219\n        /* \"#utility.yul\":12146:12162   */\n      dup3\n        /* \"#utility.yul\":12122:12163   */\n      tag_98\n      jump\t// in\n    tag_219:\n        /* \"#utility.yul\":12114:12120   */\n      dup5\n        /* \"#utility.yul\":12107:12111   */\n      dup5\n        /* \"#utility.yul\":12101:12112   */\n      sload\n        /* \"#utility.yul\":12073:12164   */\n      tag_95\n      jump\t// in\n    tag_218:\n        /* \"#utility.yul\":12067:12071   */\n      dup3\n        /* \"#utility.yul\":12060:12165   */\n      sstore\n        /* \"#utility.yul\":11978:12171   */\n      pop\n        /* \"#utility.yul\":11902:12171   */\n      pop\n      pop\n      pop\n      jump\t// out\n        /* \"#utility.yul\":12177:12250   */\n    tag_100:\n        /* \"#utility.yul\":12222:12225   */\n      0x00\n        /* \"#utility.yul\":12177:12250   */\n      swap1\n      jump\t// out\n        /* \"#utility.yul\":12256:12445   */\n    tag_101:\n        /* \"#utility.yul\":12333:12365   */\n      tag_222\n      tag_100\n      jump\t// in\n    tag_222:\n        /* \"#utility.yul\":12374:12439   */\n      tag_223\n        /* \"#utility.yul\":12432:12438   */\n      dup2\n        /* \"#utility.yul\":12424:12430   */\n      dup5\n        /* \"#utility.yul\":12418:12422   */\n      dup5\n        /* \"#utility.yul\":12374:12439   */\n      tag_99\n      jump\t// in\n    tag_223:\n        /* \"#utility.yul\":12309:12445   */\n      pop\n        /* \"#utility.yul\":12256:12445   */\n      pop\n      pop\n      jump\t// out\n        /* \"#utility.yul\":12451:12637   */\n    tag_102:\n        /* \"#utility.yul\":12511:12631   */\n    tag_225:\n        /* \"#utility.yul\":12528:12531   */\n      dup2\n        /* \"#utility.yul\":12521:12526   */\n      dup2\n        /* \"#utility.yul\":12518:12532   */\n      lt\n        /* \"#utility.yul\":12511:12631   */\n      iszero\n      tag_227\n      jumpi\n        /* \"#utility.yul\":12582:12621   */\n      tag_228\n        /* \"#utility.yul\":12619:12620   */\n      0x00\n        /* \"#utility.yul\":12612:12617   */\n      dup3\n        /* \"#utility.yul\":12582:12621   */\n      tag_101\n      jump\t// in\n    tag_228:\n        /* \"#utility.yul\":12555:12556   */\n      0x01\n        /* \"#utility.yul\":12548:12553   */\n      dup2\n        /* \"#utility.yul\":12544:12557   */\n      add\n        /* \"#utility.yul\":12535:12557   */\n      swap1\n      pop\n        /* \"#utility.yul\":12511:12631   */\n      jump(tag_225)\n    tag_227:\n        /* \"#utility.yul\":12451:12637   */\n      pop\n      pop\n      jump\t// out\n        /* \"#utility.yul\":12643:13186   */\n    tag_103:\n        /* \"#utility.yul\":12744:12746   */\n      0x1f\n        /* \"#utility.yul\":12739:12742   */\n      dup3\n        /* \"#utility.yul\":12736:12747   */\n      gt\n        /* \"#utility.yul\":12733:13179   */\n      iszero\n      tag_230\n      jumpi\n        /* \"#utility.yul\":12778:12816   */\n      tag_231\n        /* \"#utility.yul\":12810:12815   */\n      dup2\n        /* \"#utility.yul\":12778:12816   */\n      tag_92\n      jump\t// in\n    tag_231:\n        /* \"#utility.yul\":12862:12891   */\n      tag_232\n        /* \"#utility.yul\":12880:12890   */\n      dup5\n        /* \"#utility.yul\":12862:12891   */\n      tag_93\n      jump\t// in\n    tag_232:\n        /* \"#utility.yul\":12852:12860   */\n      dup2\n        /* \"#utility.yul\":12848:12892   */\n      add\n        /* \"#utility.yul\":13045:13047   */\n      0x20\n        /* \"#utility.yul\":13033:13043   */\n      dup6\n        /* \"#utility.yul\":13030:13048   */\n      lt\n        /* \"#utility.yul\":13027:13076   */\n      iszero\n      tag_233\n      jumpi\n        /* \"#utility.yul\":13066:13074   */\n      dup2\n        /* \"#utility.yul\":13051:13074   */\n      swap1\n      pop\n        /* \"#utility.yul\":13027:13076   */\n    tag_233:\n        /* \"#utility.yul\":13089:13169   */\n      tag_234\n        /* \"#utility.yul\":13145:13167   */\n      tag_235\n        /* \"#utility.yul\":13163:13166   */\n      dup6\n        /* \"#utility.yul\":13145:13167   */\n      tag_93\n      jump\t// in\n    tag_235:\n        /* \"#utility.yul\":13135:13143   */\n      dup4\n        /* \"#utility.yul\":13131:13168   */\n      add\n        /* \"#utility.yul\":13118:13129   */\n      dup3\n        /* \"#utility.yul\":13089:13169   */\n      tag_102\n      jump\t// in\n    tag_234:\n        /* \"#utility.yul\":12748:13179   */\n      pop\n      pop\n        /* \"#utility.yul\":12733:13179   */\n    tag_230:\n        /* \"#utility.yul\":12643:13186   */\n      pop\n      pop\n      pop\n      jump\t// out\n        /* \"#utility.yul\":13192:13309   */\n    tag_104:\n        /* \"#utility.yul\":13246:13254   */\n      0x00\n        /* \"#utility.yul\":13296:13301   */\n      dup3\n        /* \"#utility.yul\":13290:13294   */\n      dup3\n        /* \"#utility.yul\":13286:13302   */\n      shr\n        /* \"#utility.yul\":13265:13302   */\n      swap1\n      pop\n        /* \"#utility.yul\":13192:13309   */\n      swap3\n      swap2\n      pop\n      pop\n      jump\t// out\n        /* \"#utility.yul\":13315:13484   */\n    tag_105:\n        /* \"#utility.yul\":13359:13365   */\n      0x00\n        /* \"#utility.yul\":13392:13443   */\n      tag_238\n        /* \"#utility.yul\":13440:13441   */\n      0x00\n        /* \"#utility.yul\":13436:13442   */\n      not\n        /* \"#utility.yul\":13428:13433   */\n      dup5\n        /* \"#utility.yul\":13425:13426   */\n      0x08\n        /* \"#utility.yul\":13421:13434   */\n      mul\n        /* \"#utility.yul\":13392:13443   */\n      tag_104\n      jump\t// in\n    tag_238:\n        /* \"#utility.yul\":13388:13444   */\n      not\n        /* \"#utility.yul\":13473:13477   */\n      dup1\n        /* \"#utility.yul\":13467:13471   */\n      dup4\n        /* \"#utility.yul\":13463:13478   */\n      and\n        /* \"#utility.yul\":13453:13478   */\n      swap2\n      pop\n        /* \"#utility.yul\":13366:13484   */\n      pop\n        /* \"#utility.yul\":13315:13484   */\n      swap3\n      swap2\n      pop\n      pop\n      jump\t// out\n        /* \"#utility.yul\":13489:13784   */\n    tag_106:\n        /* \"#utility.yul\":13565:13569   */\n      0x00\n        /* \"#utility.yul\":13711:13740   */\n      tag_240\n        /* \"#utility.yul\":13736:13739   */\n      dup4\n        /* \"#utility.yul\":13730:13734   */\n      dup4\n        /* \"#utility.yul\":13711:13740   */\n      tag_105\n      jump\t// in\n    tag_240:\n        /* \"#utility.yul\":13703:13740   */\n      swap2\n      pop\n        /* \"#utility.yul\":13773:13776   */\n      dup3\n        /* \"#utility.yul\":13770:13771   */\n      0x02\n        /* \"#utility.yul\":13766:13777   */\n      mul\n        /* \"#utility.yul\":13760:13764   */\n      dup3\n        /* \"#utility.yul\":13757:13778   */\n      or\n        /* \"#utility.yul\":13749:13778   */\n      swap1\n      pop\n        /* \"#utility.yul\":13489:13784   */\n      swap3\n      swap2\n      pop\n      pop\n      jump\t// out\n        /* \"#utility.yul\":13789:15184   */\n    tag_22:\n        /* \"#utility.yul\":13906:13943   */\n      tag_242\n        /* \"#utility.yul\":13939:13942   */\n      dup3\n        /* \"#utility.yul\":13906:13943   */\n      tag_78\n      jump\t// in\n    tag_242:\n        /* \"#utility.yul\":14008:14026   */\n      0xffffffffffffffff\n        /* \"#utility.yul\":14000:14006   */\n      dup2\n        /* \"#utility.yul\":13997:14027   */\n      gt\n        /* \"#utility.yul\":13994:14050   */\n      iszero\n      tag_243\n      jumpi\n        /* \"#utility.yul\":14030:14048   */\n      tag_244\n      tag_68\n      jump\t// in\n    tag_244:\n        /* \"#utility.yul\":13994:14050   */\n    tag_243:\n        /* \"#utility.yul\":14074:14112   */\n      tag_245\n        /* \"#utility.yul\":14106:14110   */\n      dup3\n        /* \"#utility.yul\":14100:14111   */\n      sload\n        /* \"#utility.yul\":14074:14112   */\n      tag_38\n      jump\t// in\n    tag_245:\n        /* \"#utility.yul\":14159:14226   */\n      tag_246\n        /* \"#utility.yul\":14219:14225   */\n      dup3\n        /* \"#utility.yul\":14211:14217   */\n      dup3\n        /* \"#utility.yul\":14205:14209   */\n      dup6\n        /* \"#utility.yul\":14159:14226   */\n      tag_103\n      jump\t// in\n    tag_246:\n        /* \"#utility.yul\":14253:14254   */\n      0x00\n        /* \"#utility.yul\":14277:14281   */\n      0x20\n        /* \"#utility.yul\":14264:14281   */\n      swap1\n      pop\n        /* \"#utility.yul\":14309:14311   */\n      0x1f\n        /* \"#utility.yul\":14301:14307   */\n      dup4\n        /* \"#utility.yul\":14298:14312   */\n      gt\n        /* \"#utility.yul\":14326:14327   */\n      0x01\n        /* \"#utility.yul\":14321:14939   */\n      dup2\n      eq\n      tag_248\n      jumpi\n        /* \"#utility.yul\":14983:14984   */\n      0x00\n        /* \"#utility.yul\":15000:15006   */\n      dup5\n        /* \"#utility.yul\":14997:15074   */\n      iszero\n      tag_249\n      jumpi\n        /* \"#utility.yul\":15049:15058   */\n      dup3\n        /* \"#utility.yul\":15044:15047   */\n      dup8\n        /* \"#utility.yul\":15040:15059   */\n      add\n        /* \"#utility.yul\":15034:15060   */\n      mload\n        /* \"#utility.yul\":15025:15060   */\n      swap1\n      pop\n        /* \"#utility.yul\":14997:15074   */\n    tag_249:\n        /* \"#utility.yul\":15100:15167   */\n      tag_250\n        /* \"#utility.yul\":15160:15166   */\n      dup6\n        /* \"#utility.yul\":15153:15158   */\n      dup3\n        /* \"#utility.yul\":15100:15167   */\n      tag_106\n      jump\t// in\n    tag_250:\n        /* \"#utility.yul\":15094:15098   */\n      dup7\n        /* \"#utility.yul\":15087:15168   */\n      sstore\n        /* \"#utility.yul\":14956:15178   */\n      pop\n        /* \"#utility.yul\":14291:15178   */\n      jump(tag_247)\n        /* \"#utility.yul\":14321:14939   */\n    tag_248:\n        /* \"#utility.yul\":14373:14377   */\n      0x1f\n        /* \"#utility.yul\":14369:14378   */\n      not\n        /* \"#utility.yul\":14361:14367   */\n      dup5\n        /* \"#utility.yul\":14357:14379   */\n      and\n        /* \"#utility.yul\":14407:14444   */\n      tag_251\n        /* \"#utility.yul\":14439:14443   */\n      dup7\n        /* \"#utility.yul\":14407:14444   */\n      tag_92\n      jump\t// in\n    tag_251:\n        /* \"#utility.yul\":14466:14467   */\n      0x00\n        /* \"#utility.yul\":14480:14688   */\n    tag_252:\n        /* \"#utility.yul\":14494:14501   */\n      dup3\n        /* \"#utility.yul\":14491:14492   */\n      dup2\n        /* \"#utility.yul\":14488:14502   */\n      lt\n        /* \"#utility.yul\":14480:14688   */\n      iszero\n      tag_254\n      jumpi\n        /* \"#utility.yul\":14573:14582   */\n      dup5\n        /* \"#utility.yul\":14568:14571   */\n      dup10\n        /* \"#utility.yul\":14564:14583   */\n      add\n        /* \"#utility.yul\":14558:14584   */\n      mload\n        /* \"#utility.yul\":14550:14556   */\n      dup3\n        /* \"#utility.yul\":14543:14585   */\n      sstore\n        /* \"#utility.yul\":14624:14625   */\n      0x01\n        /* \"#utility.yul\":14616:14622   */\n      dup3\n        /* \"#utility.yul\":14612:14626   */\n      add\n        /* \"#utility.yul\":14602:14626   */\n      swap2\n      pop\n        /* \"#utility.yul\":14671:14673   */\n      0x20\n        /* \"#utility.yul\":14660:14669   */\n      dup6\n        /* \"#utility.yul\":14656:14674   */\n      add\n        /* \"#utility.yul\":14643:14674   */\n      swap5\n      pop\n        /* \"#utility.yul\":14517:14521   */\n      0x20\n        /* \"#utility.yul\":14514:14515   */\n      dup2\n        /* \"#utility.yul\":14510:14522   */\n      add\n        /* \"#utility.yul\":14505:14522   */\n      swap1\n      pop\n        /* \"#utility.yul\":14480:14688   */\n      jump(tag_252)\n    tag_254:\n        /* \"#utility.yul\":14716:14722   */\n      dup7\n        /* \"#utility.yul\":14707:14714   */\n      dup4\n        /* \"#utility.yul\":14704:14723   */\n      lt\n        /* \"#utility.yul\":14701:14880   */\n      iszero\n      tag_255\n      jumpi\n        /* \"#utility.yul\":14774:14783   */\n      dup5\n        /* \"#utility.yul\":14769:14772   */\n      dup10\n        /* \"#utility.yul\":14765:14784   */\n      add\n        /* \"#utility.yul\":14759:14785   */\n      mload\n        /* \"#utility.yul\":14817:14865   */\n      tag_256\n        /* \"#utility.yul\":14859:14863   */\n      0x1f\n        /* \"#utility.yul\":14851:14857   */\n      dup10\n        /* \"#utility.yul\":14847:14864   */\n      and\n        /* \"#utility.yul\":14836:14845   */\n      dup3\n        /* \"#utility.yul\":14817:14865   */\n      tag_105\n      jump\t// in\n    tag_256:\n        /* \"#utility.yul\":14809:14815   */\n      dup4\n        /* \"#utility.yul\":14802:14866   */\n      sstore\n        /* \"#utility.yul\":14724:14880   */\n      pop\n        /* \"#utility.yul\":14701:14880   */\n    tag_255:\n        /* \"#utility.yul\":14926:14927   */\n      0x01\n        /* \"#utility.yul\":14922:14923   */\n      0x02\n        /* \"#utility.yul\":14914:14920   */\n      dup9\n        /* \"#utility.yul\":14910:14924   */\n      mul\n        /* \"#utility.yul\":14906:14928   */\n      add\n        /* \"#utility.yul\":14900:14904   */\n      dup9\n        /* \"#utility.yul\":14893:14929   */\n      sstore\n        /* \"#utility.yul\":14328:14939   */\n      pop\n      pop\n      pop\n        /* \"#utility.yul\":14291:15178   */\n    tag_247:\n      pop\n        /* \"#utility.yul\":13881:15184   */\n      pop\n      pop\n      pop\n        /* \"#utility.yul\":13789:15184   */\n      pop\n      pop\n      jump\t// out\n        /* \"#utility.yul\":15190:15339   */\n    tag_107:\n        /* \"#utility.yul\":15239:15245   */\n      0x00\n        /* \"#utility.yul\":15273:15278   */\n      dup2\n        /* \"#utility.yul\":15267:15279   */\n      sload\n        /* \"#utility.yul\":15257:15279   */\n      swap1\n      pop\n        /* \"#utility.yul\":15299:15332   */\n      tag_258\n        /* \"#utility.yul\":15325:15331   */\n      dup2\n        /* \"#utility.yul\":15299:15332   */\n      tag_38\n      jump\t// in\n    tag_258:\n        /* \"#utility.yul\":15289:15332   */\n      swap1\n      pop\n        /* \"#utility.yul\":15190:15339   */\n      swap2\n      swap1\n      pop\n      jump\t// out\n        /* \"#utility.yul\":15345:16796   */\n    tag_26:\n        /* \"#utility.yul\":15456:15459   */\n      dup2\n        /* \"#utility.yul\":15450:15454   */\n      dup2\n        /* \"#utility.yul\":15447:15460   */\n      sub\n        /* \"#utility.yul\":15444:15470   */\n      tag_260\n      jumpi\n        /* \"#utility.yul\":15463:15468   */\n      pop\n      pop\n      jump(tag_259)\n        /* \"#utility.yul\":15444:15470   */\n    tag_260:\n        /* \"#utility.yul\":15494:15528   */\n      tag_261\n        /* \"#utility.yul\":15524:15527   */\n      dup3\n        /* \"#utility.yul\":15494:15528   */\n      tag_107\n      jump\t// in\n    tag_261:\n        /* \"#utility.yul\":15593:15611   */\n      0xffffffffffffffff\n        /* \"#utility.yul\":15585:15591   */\n      dup2\n        /* \"#utility.yul\":15582:15612   */\n      gt\n        /* \"#utility.yul\":15579:15635   */\n      iszero\n      tag_262\n      jumpi\n        /* \"#utility.yul\":15615:15633   */\n      tag_263\n      tag_68\n      jump\t// in\n    tag_263:\n        /* \"#utility.yul\":15579:15635   */\n    tag_262:\n        /* \"#utility.yul\":15659:15697   */\n      tag_264\n        /* \"#utility.yul\":15691:15695   */\n      dup3\n        /* \"#utility.yul\":15685:15696   */\n      sload\n        /* \"#utility.yul\":15659:15697   */\n      tag_38\n      jump\t// in\n    tag_264:\n        /* \"#utility.yul\":15744:15811   */\n      tag_265\n        /* \"#utility.yul\":15804:15810   */\n      dup3\n        /* \"#utility.yul\":15796:15802   */\n      dup3\n        /* \"#utility.yul\":15790:15794   */\n      dup6\n        /* \"#utility.yul\":15744:15811   */\n      tag_103\n      jump\t// in\n    tag_265:\n        /* \"#utility.yul\":15838:15839   */\n      0x00\n        /* \"#utility.yul\":15867:15869   */\n      0x1f\n        /* \"#utility.yul\":15859:15865   */\n      dup4\n        /* \"#utility.yul\":15856:15870   */\n      gt\n        /* \"#utility.yul\":15884:15885   */\n      0x01\n        /* \"#utility.yul\":15879:16551   */\n      dup2\n      eq\n      tag_267\n      jumpi\n        /* \"#utility.yul\":16595:16596   */\n      0x00\n        /* \"#utility.yul\":16612:16618   */\n      dup5\n        /* \"#utility.yul\":16609:16686   */\n      iszero\n      tag_268\n      jumpi\n        /* \"#utility.yul\":16661:16670   */\n      dup3\n        /* \"#utility.yul\":16656:16659   */\n      dup8\n        /* \"#utility.yul\":16652:16671   */\n      add\n        /* \"#utility.yul\":16646:16672   */\n      sload\n        /* \"#utility.yul\":16637:16672   */\n      swap1\n      pop\n        /* \"#utility.yul\":16609:16686   */\n    tag_268:\n        /* \"#utility.yul\":16712:16779   */\n      tag_269\n        /* \"#utility.yul\":16772:16778   */\n      dup6\n        /* \"#utility.yul\":16765:16770   */\n      dup3\n        /* \"#utility.yul\":16712:16779   */\n      tag_106\n      jump\t// in\n    tag_269:\n        /* \"#utility.yul\":16706:16710   */\n      dup7\n        /* \"#utility.yul\":16699:16780   */\n      sstore\n        /* \"#utility.yul\":16568:16790   */\n      pop\n        /* \"#utility.yul\":15849:16790   */\n      jump(tag_266)\n        /* \"#utility.yul\":15879:16551   */\n    tag_267:\n        /* \"#utility.yul\":15931:15935   */\n      0x1f\n        /* \"#utility.yul\":15927:15936   */\n      not\n        /* \"#utility.yul\":15919:15925   */\n      dup5\n        /* \"#utility.yul\":15915:15937   */\n      and\n        /* \"#utility.yul\":15957:15993   */\n      tag_270\n        /* \"#utility.yul\":15989:15992   */\n      dup8\n        /* \"#utility.yul\":15957:15993   */\n      tag_92\n      jump\t// in\n    tag_270:\n        /* \"#utility.yul\":15950:15993   */\n      swap7\n      pop\n        /* \"#utility.yul\":16020:16057   */\n      tag_271\n        /* \"#utility.yul\":16052:16056   */\n      dup7\n        /* \"#utility.yul\":16020:16057   */\n      tag_92\n      jump\t// in\n    tag_271:\n        /* \"#utility.yul\":16079:16080   */\n      0x00\n        /* \"#utility.yul\":16093:16300   */\n    tag_272:\n        /* \"#utility.yul\":16107:16114   */\n      dup3\n        /* \"#utility.yul\":16104:16105   */\n      dup2\n        /* \"#utility.yul\":16101:16115   */\n      lt\n        /* \"#utility.yul\":16093:16300   */\n      iszero\n      tag_274\n      jumpi\n        /* \"#utility.yul\":16186:16195   */\n      dup5\n        /* \"#utility.yul\":16181:16184   */\n      dup10\n        /* \"#utility.yul\":16177:16196   */\n      add\n        /* \"#utility.yul\":16171:16197   */\n      sload\n        /* \"#utility.yul\":16163:16169   */\n      dup3\n        /* \"#utility.yul\":16156:16198   */\n      sstore\n        /* \"#utility.yul\":16237:16238   */\n      0x01\n        /* \"#utility.yul\":16229:16235   */\n      dup3\n        /* \"#utility.yul\":16225:16239   */\n      add\n        /* \"#utility.yul\":16215:16239   */\n      swap2\n      pop\n        /* \"#utility.yul\":16284:16285   */\n      0x01\n        /* \"#utility.yul\":16273:16282   */\n      dup6\n        /* \"#utility.yul\":16269:16286   */\n      add\n        /* \"#utility.yul\":16256:16286   */\n      swap5\n      pop\n        /* \"#utility.yul\":16130:16134   */\n      0x20\n        /* \"#utility.yul\":16127:16128   */\n      dup2\n        /* \"#utility.yul\":16123:16135   */\n      add\n        /* \"#utility.yul\":16118:16135   */\n      swap1\n      pop\n        /* \"#utility.yul\":16093:16300   */\n      jump(tag_272)\n    tag_274:\n        /* \"#utility.yul\":16328:16334   */\n      dup7\n        /* \"#utility.yul\":16319:16326   */\n      dup4\n        /* \"#utility.yul\":16316:16335   */\n      lt\n        /* \"#utility.yul\":16313:16492   */\n      iszero\n      tag_275\n      jumpi\n        /* \"#utility.yul\":16386:16395   */\n      dup5\n        /* \"#utility.yul\":16381:16384   */\n      dup10\n        /* \"#utility.yul\":16377:16396   */\n      add\n        /* \"#utility.yul\":16371:16397   */\n      sload\n        /* \"#utility.yul\":16429:16477   */\n      tag_276\n        /* \"#utility.yul\":16471:16475   */\n      0x1f\n        /* \"#utility.yul\":16463:16469   */\n      dup10\n        /* \"#utility.yul\":16459:16476   */\n      and\n        /* \"#utility.yul\":16448:16457   */\n      dup3\n        /* \"#utility.yul\":16429:16477   */\n      tag_105\n      jump\t// in\n    tag_276:\n        /* \"#utility.yul\":16421:16427   */\n      dup4\n        /* \"#utility.yul\":16414:16478   */\n      sstore\n        /* \"#utility.yul\":16336:16492   */\n      pop\n        /* \"#utility.yul\":16313:16492   */\n    tag_275:\n        /* \"#utility.yul\":16538:16539   */\n      0x01\n        /* \"#utility.yul\":16534:16535   */\n      0x02\n        /* \"#utility.yul\":16526:16532   */\n      dup9\n        /* \"#utility.yul\":16522:16536   */\n      mul\n        /* \"#utility.yul\":16518:16540   */\n      add\n        /* \"#utility.yul\":16512:16516   */\n      dup9\n        /* \"#utility.yul\":16505:16541   */\n      sstore\n        /* \"#utility.yul\":15886:16551   */\n      pop\n      pop\n      pop\n        /* \"#utility.yul\":15849:16790   */\n    tag_266:\n      pop\n        /* \"#utility.yul\":15434:16796   */\n      pop\n      pop\n      pop\n        /* \"#utility.yul\":15345:16796   */\n      pop\n      pop\n    tag_259:\n      jump\t// out\n        /* \"#utility.yul\":16802:16982   */\n    tag_108:\n        /* \"#utility.yul\":16850:16927   */\n      0x4e487b7100000000000000000000000000000000000000000000000000000000\n        /* \"#utility.yul\":16847:16848   */\n      0x00\n        /* \"#utility.yul\":16840:16928   */\n      mstore\n        /* \"#utility.yul\":16947:16951   */\n      0x11\n        /* \"#utility.yul\":16944:16945   */\n      0x04\n        /* \"#utility.yul\":16937:16952   */\n      mstore\n        /* \"#utility.yul\":16971:16975   */\n      0x24\n        /* \"#utility.yul\":16968:16969   */\n      0x00\n        /* \"#utility.yul\":16961:16976   */\n      revert\n        /* \"#utility.yul\":16988:17182   */\n    tag_32:\n        /* \"#utility.yul\":17028:17032   */\n      0x00\n        /* \"#utility.yul\":17048:17068   */\n      tag_279\n        /* \"#utility.yul\":17066:17067   */\n      dup3\n        /* \"#utility.yul\":17048:17068   */\n      tag_75\n      jump\t// in\n    tag_279:\n        /* \"#utility.yul\":17043:17068   */\n      swap2\n      pop\n        /* \"#utility.yul\":17082:17102   */\n      tag_280\n        /* \"#utility.yul\":17100:17101   */\n      dup4\n        /* \"#utility.yul\":17082:17102   */\n      tag_75\n      jump\t// in\n    tag_280:\n        /* \"#utility.yul\":17077:17102   */\n      swap3\n      pop\n        /* \"#utility.yul\":17126:17127   */\n      dup3\n        /* \"#utility.yul\":17123:17124   */\n      dup3\n        /* \"#utility.yul\":17119:17128   */\n      sub\n        /* \"#utility.yul\":17111:17128   */\n      swap1\n      pop\n        /* \"#utility.yul\":17150:17151   */\n      dup2\n        /* \"#utility.yul\":17144:17148   */\n      dup2\n        /* \"#utility.yul\":17141:17152   */\n      gt\n        /* \"#utility.yul\":17138:17175   */\n      iszero\n      tag_281\n      jumpi\n        /* \"#utility.yul\":17155:17173   */\n      tag_282\n      tag_108\n      jump\t// in\n    tag_282:\n        /* \"#utility.yul\":17138:17175   */\n    tag_281:\n        /* \"#utility.yul\":16988:17182   */\n      swap3\n      swap2\n      pop\n      pop\n      jump\t// out\n        /* \"#utility.yul\":17188:17368   */\n    tag_35:\n        /* \"#utility.yul\":17236:17313   */\n      0x4e487b7100000000000000000000000000000000000000000000000000000000\n        /* \"#utility.yul\":17233:17234   */\n      0x00\n        /* \"#utility.yul\":17226:17314   */\n      mstore\n        /* \"#utility.yul\":17333:17337   */\n      0x32\n        /* \"#utility.yul\":17330:17331   */\n      0x04\n        /* \"#utility.yul\":17323:17338   */\n      mstore\n        /* \"#utility.yul\":17357:17361   */\n      0x24\n        /* \"#utility.yul\":17354:17355   */\n      0x00\n        /* \"#utility.yul\":17347:17362   */\n      revert\n\n    auxdata: 0xa26469706673582212208b7cd914f1e3849128ff2f8bb7fc7063862b72eba64949c97a378f7a486966dd64736f6c634300081a0033\n}\n",
				"bytecode": {
					"linkReferences": {},
					"object": "6080604052348015600e575f80fd5b50610db08061001c5f395ff3fe608060405234801561000f575f80fd5b506004361061003f575f3560e01c8063107af71c14610043578063642f91631461005f578063f1d064b31461008f575b5f80fd5b61005d6004803603810190610058919061062b565b6100ad565b005b610079600480360381019061007491906106c7565b61017d565b60405161008691906107c8565b60405180910390f35b6100976102f6565b6040516100a4919061090a565b60405180910390f35b6040518060800160405280858152602001848152602001838152602001828152505f80820151815f0190816100e29190610b24565b506020820151816001015560408201518160020155606082015181600301908161010c9190610b24565b5090505060045f908060018154018082558091505060019003905f5260205f2090600402015f909190919091505f8201815f01908161014b9190610c08565b506001820154816001015560028201548160020155600382018160030190816101749190610c08565b50505050505050565b610185610485565b60046001836101949190610d1a565b815481106101a5576101a4610d4d565b5b905f5260205f2090600402016040518060800160405290815f820180546101cb90610957565b80601f01602080910402602001604051908101604052809291908181526020018280546101f790610957565b80156102425780601f1061021957610100808354040283529160200191610242565b820191905f5260205f20905b81548152906001019060200180831161022557829003601f168201915b50505050508152602001600182015481526020016002820154815260200160038201805461026f90610957565b80601f016020809104026020016040519081016040528092919081815260200182805461029b90610957565b80156102e65780601f106102bd576101008083540402835291602001916102e6565b820191905f5260205f20905b8154815290600101906020018083116102c957829003601f168201915b5050505050815250509050919050565b60606004805480602002602001604051908101604052809291908181526020015f905b8282101561047c578382905f5260205f2090600402016040518060800160405290815f8201805461034990610957565b80601f016020809104026020016040519081016040528092919081815260200182805461037590610957565b80156103c05780601f10610397576101008083540402835291602001916103c0565b820191905f5260205f20905b8154815290600101906020018083116103a357829003601f168201915b5050505050815260200160018201548152602001600282015481526020016003820180546103ed90610957565b80601f016020809104026020016040519081016040528092919081815260200182805461041990610957565b80156104645780601f1061043b57610100808354040283529160200191610464565b820191905f5260205f20905b81548152906001019060200180831161044757829003601f168201915b50505050508152505081526020019060010190610319565b50505050905090565b6040518060800160405280606081526020015f81526020015f8152602001606081525090565b5f604051905090565b5f80fd5b5f80fd5b5f80fd5b5f80fd5b5f601f19601f8301169050919050565b7f4e487b71000000000000000000000000000000000000000000000000000000005f52604160045260245ffd5b61050a826104c4565b810181811067ffffffffffffffff82111715610529576105286104d4565b5b80604052505050565b5f61053b6104ab565b90506105478282610501565b919050565b5f67ffffffffffffffff821115610566576105656104d4565b5b61056f826104c4565b9050602081019050919050565b828183375f83830152505050565b5f61059c6105978461054c565b610532565b9050828152602081018484840111156105b8576105b76104c0565b5b6105c384828561057c565b509392505050565b5f82601f8301126105df576105de6104bc565b5b81356105ef84826020860161058a565b91505092915050565b5f819050919050565b61060a816105f8565b8114610614575f80fd5b50565b5f8135905061062581610601565b92915050565b5f805f8060808587031215610643576106426104b4565b5b5f85013567ffffffffffffffff8111156106605761065f6104b8565b5b61066c878288016105cb565b945050602061067d87828801610617565b935050604061068e87828801610617565b925050606085013567ffffffffffffffff8111156106af576106ae6104b8565b5b6106bb878288016105cb565b91505092959194509250565b5f602082840312156106dc576106db6104b4565b5b5f6106e984828501610617565b91505092915050565b5f81519050919050565b5f82825260208201905092915050565b8281835e5f83830152505050565b5f610724826106f2565b61072e81856106fc565b935061073e81856020860161070c565b610747816104c4565b840191505092915050565b61075b816105f8565b82525050565b5f608083015f8301518482035f86015261077b828261071a565b91505060208301516107906020860182610752565b5060408301516107a36040860182610752565b50606083015184820360608601526107bb828261071a565b9150508091505092915050565b5f6020820190508181035f8301526107e08184610761565b905092915050565b5f81519050919050565b5f82825260208201905092915050565b5f819050602082019050919050565b5f608083015f8301518482035f86015261082b828261071a565b91505060208301516108406020860182610752565b5060408301516108536040860182610752565b506060830151848203606086015261086b828261071a565b9150508091505092915050565b5f6108838383610811565b905092915050565b5f602082019050919050565b5f6108a1826107e8565b6108ab81856107f2565b9350836020820285016108bd85610802565b805f5b858110156108f857848403895281516108d98582610878565b94506108e48361088b565b925060208a019950506001810190506108c0565b50829750879550505050505092915050565b5f6020820190508181035f8301526109228184610897565b905092915050565b7f4e487b71000000000000000000000000000000000000000000000000000000005f52602260045260245ffd5b5f600282049050600182168061096e57607f821691505b6020821081036109815761098061092a565b5b50919050565b5f819050815f5260205f209050919050565b5f6020601f8301049050919050565b5f82821b905092915050565b5f600883026109e37fffffffffffffffffffffffffffffffffffffffffffffffffffffffffffffffff826109a8565b6109ed86836109a8565b95508019841693508086168417925050509392505050565b5f819050919050565b5f610a28610a23610a1e846105f8565b610a05565b6105f8565b9050919050565b5f819050919050565b610a4183610a0e565b610a55610a4d82610a2f565b8484546109b4565b825550505050565b5f90565b610a69610a5d565b610a74818484610a38565b505050565b5b81811015610a9757610a8c5f82610a61565b600181019050610a7a565b5050565b601f821115610adc57610aad81610987565b610ab684610999565b81016020851015610ac5578190505b610ad9610ad185610999565b830182610a79565b50505b505050565b5f82821c905092915050565b5f610afc5f1984600802610ae1565b1980831691505092915050565b5f610b148383610aed565b9150826002028217905092915050565b610b2d826106f2565b67ffffffffffffffff811115610b4657610b456104d4565b5b610b508254610957565b610b5b828285610a9b565b5f60209050601f831160018114610b8c575f8415610b7a578287015190505b610b848582610b09565b865550610beb565b601f198416610b9a86610987565b5f5b82811015610bc157848901518255600182019150602085019450602081019050610b9c565b86831015610bde5784890151610bda601f891682610aed565b8355505b6001600288020188555050505b505050505050565b5f81549050610c0181610957565b9050919050565b818103610c16575050610ceb565b610c1f82610bf3565b67ffffffffffffffff811115610c3857610c376104d4565b5b610c428254610957565b610c4d828285610a9b565b5f601f831160018114610c7a575f8415610c68578287015490505b610c728582610b09565b865550610ce4565b601f198416610c8887610987565b9650610c9386610987565b5f5b82811015610cba57848901548255600182019150600185019450602081019050610c95565b86831015610cd75784890154610cd3601f891682610aed565b8355505b6001600288020188555050505b5050505050505b565b7f4e487b71000000000000000000000000000000000000000000000000000000005f52601160045260245ffd5b5f610d24826105f8565b9150610d2f836105f8565b9250828203905081811115610d4757610d46610ced565b5b92915050565b7f4e487b71000000000000000000000000000000000000000000000000000000005f52603260045260245ffdfea26469706673582212208b7cd914f1e3849128ff2f8bb7fc7063862b72eba64949c97a378f7a486966dd64736f6c634300081a0033",
					"opcodes": "PUSH1 0x80 PUSH1 0x40 MSTORE CALLVALUE DUP1 ISZERO PUSH1 0xE JUMPI PUSH0 DUP1 REVERT JUMPDEST POP PUSH2 0xDB0 DUP1 PUSH2 0x1C PUSH0 CODECOPY PUSH0 RETURN INVALID PUSH1 0x80 PUSH1 0x40 MSTORE CALLVALUE DUP1 ISZERO PUSH2 0xF JUMPI PUSH0 DUP1 REVERT JUMPDEST POP PUSH1 0x4 CALLDATASIZE LT PUSH2 0x3F JUMPI PUSH0 CALLDATALOAD PUSH1 0xE0 SHR DUP1 PUSH4 0x107AF71C EQ PUSH2 0x43 JUMPI DUP1 PUSH4 0x642F9163 EQ PUSH2 0x5F JUMPI DUP1 PUSH4 0xF1D064B3 EQ PUSH2 0x8F JUMPI JUMPDEST PUSH0 DUP1 REVERT JUMPDEST PUSH2 0x5D PUSH1 0x4 DUP1 CALLDATASIZE SUB DUP2 ADD SWAP1 PUSH2 0x58 SWAP2 SWAP1 PUSH2 0x62B JUMP JUMPDEST PUSH2 0xAD JUMP JUMPDEST STOP JUMPDEST PUSH2 0x79 PUSH1 0x4 DUP1 CALLDATASIZE SUB DUP2 ADD SWAP1 PUSH2 0x74 SWAP2 SWAP1 PUSH2 0x6C7 JUMP JUMPDEST PUSH2 0x17D JUMP JUMPDEST PUSH1 0x40 MLOAD PUSH2 0x86 SWAP2 SWAP1 PUSH2 0x7C8 JUMP JUMPDEST PUSH1 0x40 MLOAD DUP1 SWAP2 SUB SWAP1 RETURN JUMPDEST PUSH2 0x97 PUSH2 0x2F6 JUMP JUMPDEST PUSH1 0x40 MLOAD PUSH2 0xA4 SWAP2 SWAP1 PUSH2 0x90A JUMP JUMPDEST PUSH1 0x40 MLOAD DUP1 SWAP2 SUB SWAP1 RETURN JUMPDEST PUSH1 0x40 MLOAD DUP1 PUSH1 0x80 ADD PUSH1 0x40 MSTORE DUP1 DUP6 DUP2 MSTORE PUSH1 0x20 ADD DUP5 DUP2 MSTORE PUSH1 0x20 ADD DUP4 DUP2 MSTORE PUSH1 0x20 ADD DUP3 DUP2 MSTORE POP PUSH0 DUP1 DUP3 ADD MLOAD DUP2 PUSH0 ADD SWAP1 DUP2 PUSH2 0xE2 SWAP2 SWAP1 PUSH2 0xB24 JUMP JUMPDEST POP PUSH1 0x20 DUP3 ADD MLOAD DUP2 PUSH1 0x1 ADD SSTORE PUSH1 0x40 DUP3 ADD MLOAD DUP2 PUSH1 0x2 ADD SSTORE PUSH1 0x60 DUP3 ADD MLOAD DUP2 PUSH1 0x3 ADD SWAP1 DUP2 PUSH2 0x10C SWAP2 SWAP1 PUSH2 0xB24 JUMP JUMPDEST POP SWAP1 POP POP PUSH1 0x4 PUSH0 SWAP1 DUP1 PUSH1 0x1 DUP2 SLOAD ADD DUP1 DUP3 SSTORE DUP1 SWAP2 POP POP PUSH1 0x1 SWAP1 SUB SWAP1 PUSH0 MSTORE PUSH1 0x20 PUSH0 KECCAK256 SWAP1 PUSH1 0x4 MUL ADD PUSH0 SWAP1 SWAP2 SWAP1 SWAP2 SWAP1 SWAP2 POP PUSH0 DUP3 ADD DUP2 PUSH0 ADD SWAP1 DUP2 PUSH2 0x14B SWAP2 SWAP1 PUSH2 0xC08 JUMP JUMPDEST POP PUSH1 0x1 DUP3 ADD SLOAD DUP2 PUSH1 0x1 ADD SSTORE PUSH1 0x2 DUP3 ADD SLOAD DUP2 PUSH1 0x2 ADD SSTORE PUSH1 0x3 DUP3 ADD DUP2 PUSH1 0x3 ADD SWAP1 DUP2 PUSH2 0x174 SWAP2 SWAP1 PUSH2 0xC08 JUMP JUMPDEST POP POP POP POP POP POP POP JUMP JUMPDEST PUSH2 0x185 PUSH2 0x485 JUMP JUMPDEST PUSH1 0x4 PUSH1 0x1 DUP4 PUSH2 0x194 SWAP2 SWAP1 PUSH2 0xD1A JUMP JUMPDEST DUP2 SLOAD DUP2 LT PUSH2 0x1A5 JUMPI PUSH2 0x1A4 PUSH2 0xD4D JUMP JUMPDEST JUMPDEST SWAP1 PUSH0 MSTORE PUSH1 0x20 PUSH0 KECCAK256 SWAP1 PUSH1 0x4 MUL ADD PUSH1 0x40 MLOAD DUP1 PUSH1 0x80 ADD PUSH1 0x40 MSTORE SWAP1 DUP2 PUSH0 DUP3 ADD DUP1 SLOAD PUSH2 0x1CB SWAP1 PUSH2 0x957 JUMP JUMPDEST DUP1 PUSH1 0x1F ADD PUSH1 0x20 DUP1 SWAP2 DIV MUL PUSH1 0x20 ADD PUSH1 0x40 MLOAD SWAP1 DUP2 ADD PUSH1 0x40 MSTORE DUP1 SWAP3 SWAP2 SWAP1 DUP2 DUP2 MSTORE PUSH1 0x20 ADD DUP3 DUP1 SLOAD PUSH2 0x1F7 SWAP1 PUSH2 0x957 JUMP JUMPDEST DUP1 ISZERO PUSH2 0x242 JUMPI DUP1 PUSH1 0x1F LT PUSH2 0x219 JUMPI PUSH2 0x100 DUP1 DUP4 SLOAD DIV MUL DUP4 MSTORE SWAP2 PUSH1 0x20 ADD SWAP2 PUSH2 0x242 JUMP JUMPDEST DUP3 ADD SWAP2 SWAP1 PUSH0 MSTORE PUSH1 0x20 PUSH0 KECCAK256 SWAP1 JUMPDEST DUP2 SLOAD DUP2 MSTORE SWAP1 PUSH1 0x1 ADD SWAP1 PUSH1 0x20 ADD DUP1 DUP4 GT PUSH2 0x225 JUMPI DUP3 SWAP1 SUB PUSH1 0x1F AND DUP3 ADD SWAP2 JUMPDEST POP POP POP POP POP DUP2 MSTORE PUSH1 0x20 ADD PUSH1 0x1 DUP3 ADD SLOAD DUP2 MSTORE PUSH1 0x20 ADD PUSH1 0x2 DUP3 ADD SLOAD DUP2 MSTORE PUSH1 0x20 ADD PUSH1 0x3 DUP3 ADD DUP1 SLOAD PUSH2 0x26F SWAP1 PUSH2 0x957 JUMP JUMPDEST DUP1 PUSH1 0x1F ADD PUSH1 0x20 DUP1 SWAP2 DIV MUL PUSH1 0x20 ADD PUSH1 0x40 MLOAD SWAP1 DUP2 ADD PUSH1 0x40 MSTORE DUP1 SWAP3 SWAP2 SWAP1 DUP2 DUP2 MSTORE PUSH1 0x20 ADD DUP3 DUP1 SLOAD PUSH2 0x29B SWAP1 PUSH2 0x957 JUMP JUMPDEST DUP1 ISZERO PUSH2 0x2E6 JUMPI DUP1 PUSH1 0x1F LT PUSH2 0x2BD JUMPI PUSH2 0x100 DUP1 DUP4 SLOAD DIV MUL DUP4 MSTORE SWAP2 PUSH1 0x20 ADD SWAP2 PUSH2 0x2E6 JUMP JUMPDEST DUP3 ADD SWAP2 SWAP1 PUSH0 MSTORE PUSH1 0x20 PUSH0 KECCAK256 SWAP1 JUMPDEST DUP2 SLOAD DUP2 MSTORE SWAP1 PUSH1 0x1 ADD SWAP1 PUSH1 0x20 ADD DUP1 DUP4 GT PUSH2 0x2C9 JUMPI DUP3 SWAP1 SUB PUSH1 0x1F AND DUP3 ADD SWAP2 JUMPDEST POP POP POP POP POP DUP2 MSTORE POP POP SWAP1 POP SWAP2 SWAP1 POP JUMP JUMPDEST PUSH1 0x60 PUSH1 0x4 DUP1 SLOAD DUP1 PUSH1 0x20 MUL PUSH1 0x20 ADD PUSH1 0x40 MLOAD SWAP1 DUP2 ADD PUSH1 0x40 MSTORE DUP1 SWAP3 SWAP2 SWAP1 DUP2 DUP2 MSTORE PUSH1 0x20 ADD PUSH0 SWAP1 JUMPDEST DUP3 DUP3 LT ISZERO PUSH2 0x47C JUMPI DUP4 DUP3 SWAP1 PUSH0 MSTORE PUSH1 0x20 PUSH0 KECCAK256 SWAP1 PUSH1 0x4 MUL ADD PUSH1 0x40 MLOAD DUP1 PUSH1 0x80 ADD PUSH1 0x40 MSTORE SWAP1 DUP2 PUSH0 DUP3 ADD DUP1 SLOAD PUSH2 0x349 SWAP1 PUSH2 0x957 JUMP JUMPDEST DUP1 PUSH1 0x1F ADD PUSH1 0x20 DUP1 SWAP2 DIV MUL PUSH1 0x20 ADD PUSH1 0x40 MLOAD SWAP1 DUP2 ADD PUSH1 0x40 MSTORE DUP1 SWAP3 SWAP2 SWAP1 DUP2 DUP2 MSTORE PUSH1 0x20 ADD DUP3 DUP1 SLOAD PUSH2 0x375 SWAP1 PUSH2 0x957 JUMP JUMPDEST DUP1 ISZERO PUSH2 0x3C0 JUMPI DUP1 PUSH1 0x1F LT PUSH2 0x397 JUMPI PUSH2 0x100 DUP1 DUP4 SLOAD DIV MUL DUP4 MSTORE SWAP2 PUSH1 0x20 ADD SWAP2 PUSH2 0x3C0 JUMP JUMPDEST DUP3 ADD SWAP2 SWAP1 PUSH0 MSTORE PUSH1 0x20 PUSH0 KECCAK256 SWAP1 JUMPDEST DUP2 SLOAD DUP2 MSTORE SWAP1 PUSH1 0x1 ADD SWAP1 PUSH1 0x20 ADD DUP1 DUP4 GT PUSH2 0x3A3 JUMPI DUP3 SWAP1 SUB PUSH1 0x1F AND DUP3 ADD SWAP2 JUMPDEST POP POP POP POP POP DUP2 MSTORE PUSH1 0x20 ADD PUSH1 0x1 DUP3 ADD SLOAD DUP2 MSTORE PUSH1 0x20 ADD PUSH1 0x2 DUP3 ADD SLOAD DUP2 MSTORE PUSH1 0x20 ADD PUSH1 0x3 DUP3 ADD DUP1 SLOAD PUSH2 0x3ED SWAP1 PUSH2 0x957 JUMP JUMPDEST DUP1 PUSH1 0x1F ADD PUSH1 0x20 DUP1 SWAP2 DIV MUL PUSH1 0x20 ADD PUSH1 0x40 MLOAD SWAP1 DUP2 ADD PUSH1 0x40 MSTORE DUP1 SWAP3 SWAP2 SWAP1 DUP2 DUP2 MSTORE PUSH1 0x20 ADD DUP3 DUP1 SLOAD PUSH2 0x419 SWAP1 PUSH2 0x957 JUMP JUMPDEST DUP1 ISZERO PUSH2 0x464 JUMPI DUP1 PUSH1 0x1F LT PUSH2 0x43B JUMPI PUSH2 0x100 DUP1 DUP4 SLOAD DIV MUL DUP4 MSTORE SWAP2 PUSH1 0x20 ADD SWAP2 PUSH2 0x464 JUMP JUMPDEST DUP3 ADD SWAP2 SWAP1 PUSH0 MSTORE PUSH1 0x20 PUSH0 KECCAK256 SWAP1 JUMPDEST DUP2 SLOAD DUP2 MSTORE SWAP1 PUSH1 0x1 ADD SWAP1 PUSH1 0x20 ADD DUP1 DUP4 GT PUSH2 0x447 JUMPI DUP3 SWAP1 SUB PUSH1 0x1F AND DUP3 ADD SWAP2 JUMPDEST POP POP POP POP POP DUP2 MSTORE POP POP DUP2 MSTORE PUSH1 0x20 ADD SWAP1 PUSH1 0x1 ADD SWAP1 PUSH2 0x319 JUMP JUMPDEST POP POP POP POP SWAP1 POP SWAP1 JUMP JUMPDEST PUSH1 0x40 MLOAD DUP1 PUSH1 0x80 ADD PUSH1 0x40 MSTORE DUP1 PUSH1 0x60 DUP2 MSTORE PUSH1 0x20 ADD PUSH0 DUP2 MSTORE PUSH1 0x20 ADD PUSH0 DUP2 MSTORE PUSH1 0x20 ADD PUSH1 0x60 DUP2 MSTORE POP SWAP1 JUMP JUMPDEST PUSH0 PUSH1 0x40 MLOAD SWAP1 POP SWAP1 JUMP JUMPDEST PUSH0 DUP1 REVERT JUMPDEST PUSH0 DUP1 REVERT JUMPDEST PUSH0 DUP1 REVERT JUMPDEST PUSH0 DUP1 REVERT JUMPDEST PUSH0 PUSH1 0x1F NOT PUSH1 0x1F DUP4 ADD AND SWAP1 POP SWAP2 SWAP1 POP JUMP JUMPDEST PUSH32 0x4E487B7100000000000000000000000000000000000000000000000000000000 PUSH0 MSTORE PUSH1 0x41 PUSH1 0x4 MSTORE PUSH1 0x24 PUSH0 REVERT JUMPDEST PUSH2 0x50A DUP3 PUSH2 0x4C4 JUMP JUMPDEST DUP2 ADD DUP2 DUP2 LT PUSH8 0xFFFFFFFFFFFFFFFF DUP3 GT OR ISZERO PUSH2 0x529 JUMPI PUSH2 0x528 PUSH2 0x4D4 JUMP JUMPDEST JUMPDEST DUP1 PUSH1 0x40 MSTORE POP POP POP JUMP JUMPDEST PUSH0 PUSH2 0x53B PUSH2 0x4AB JUMP JUMPDEST SWAP1 POP PUSH2 0x547 DUP3 DUP3 PUSH2 0x501 JUMP JUMPDEST SWAP2 SWAP1 POP JUMP JUMPDEST PUSH0 PUSH8 0xFFFFFFFFFFFFFFFF DUP3 GT ISZERO PUSH2 0x566 JUMPI PUSH2 0x565 PUSH2 0x4D4 JUMP JUMPDEST JUMPDEST PUSH2 0x56F DUP3 PUSH2 0x4C4 JUMP JUMPDEST SWAP1 POP PUSH1 0x20 DUP2 ADD SWAP1 POP SWAP2 SWAP1 POP JUMP JUMPDEST DUP3 DUP2 DUP4 CALLDATACOPY PUSH0 DUP4 DUP4 ADD MSTORE POP POP POP JUMP JUMPDEST PUSH0 PUSH2 0x59C PUSH2 0x597 DUP5 PUSH2 0x54C JUMP JUMPDEST PUSH2 0x532 JUMP JUMPDEST SWAP1 POP DUP3 DUP2 MSTORE PUSH1 0x20 DUP2 ADD DUP5 DUP5 DUP5 ADD GT ISZERO PUSH2 0x5B8 JUMPI PUSH2 0x5B7 PUSH2 0x4C0 JUMP JUMPDEST JUMPDEST PUSH2 0x5C3 DUP5 DUP3 DUP6 PUSH2 0x57C JUMP JUMPDEST POP SWAP4 SWAP3 POP POP POP JUMP JUMPDEST PUSH0 DUP3 PUSH1 0x1F DUP4 ADD SLT PUSH2 0x5DF JUMPI PUSH2 0x5DE PUSH2 0x4BC JUMP JUMPDEST JUMPDEST DUP2 CALLDATALOAD PUSH2 0x5EF DUP5 DUP3 PUSH1 0x20 DUP7 ADD PUSH2 0x58A JUMP JUMPDEST SWAP2 POP POP SWAP3 SWAP2 POP POP JUMP JUMPDEST PUSH0 DUP2 SWAP1 POP SWAP2 SWAP1 POP JUMP JUMPDEST PUSH2 0x60A DUP2 PUSH2 0x5F8 JUMP JUMPDEST DUP2 EQ PUSH2 0x614 JUMPI PUSH0 DUP1 REVERT JUMPDEST POP JUMP JUMPDEST PUSH0 DUP2 CALLDATALOAD SWAP1 POP PUSH2 0x625 DUP2 PUSH2 0x601 JUMP JUMPDEST SWAP3 SWAP2 POP POP JUMP JUMPDEST PUSH0 DUP1 PUSH0 DUP1 PUSH1 0x80 DUP6 DUP8 SUB SLT ISZERO PUSH2 0x643 JUMPI PUSH2 0x642 PUSH2 0x4B4 JUMP JUMPDEST JUMPDEST PUSH0 DUP6 ADD CALLDATALOAD PUSH8 0xFFFFFFFFFFFFFFFF DUP2 GT ISZERO PUSH2 0x660 JUMPI PUSH2 0x65F PUSH2 0x4B8 JUMP JUMPDEST JUMPDEST PUSH2 0x66C DUP8 DUP3 DUP9 ADD PUSH2 0x5CB JUMP JUMPDEST SWAP5 POP POP PUSH1 0x20 PUSH2 0x67D DUP8 DUP3 DUP9 ADD PUSH2 0x617 JUMP JUMPDEST SWAP4 POP POP PUSH1 0x40 PUSH2 0x68E DUP8 DUP3 DUP9 ADD PUSH2 0x617 JUMP JUMPDEST SWAP3 POP POP PUSH1 0x60 DUP6 ADD CALLDATALOAD PUSH8 0xFFFFFFFFFFFFFFFF DUP2 GT ISZERO PUSH2 0x6AF JUMPI PUSH2 0x6AE PUSH2 0x4B8 JUMP JUMPDEST JUMPDEST PUSH2 0x6BB DUP8 DUP3 DUP9 ADD PUSH2 0x5CB JUMP JUMPDEST SWAP2 POP POP SWAP3 SWAP6 SWAP2 SWAP5 POP SWAP3 POP JUMP JUMPDEST PUSH0 PUSH1 0x20 DUP3 DUP5 SUB SLT ISZERO PUSH2 0x6DC JUMPI PUSH2 0x6DB PUSH2 0x4B4 JUMP JUMPDEST JUMPDEST PUSH0 PUSH2 0x6E9 DUP5 DUP3 DUP6 ADD PUSH2 0x617 JUMP JUMPDEST SWAP2 POP POP SWAP3 SWAP2 POP POP JUMP JUMPDEST PUSH0 DUP2 MLOAD SWAP1 POP SWAP2 SWAP1 POP JUMP JUMPDEST PUSH0 DUP3 DUP3 MSTORE PUSH1 0x20 DUP3 ADD SWAP1 POP SWAP3 SWAP2 POP POP JUMP JUMPDEST DUP3 DUP2 DUP4 MCOPY PUSH0 DUP4 DUP4 ADD MSTORE POP POP POP JUMP JUMPDEST PUSH0 PUSH2 0x724 DUP3 PUSH2 0x6F2 JUMP JUMPDEST PUSH2 0x72E DUP2 DUP6 PUSH2 0x6FC JUMP JUMPDEST SWAP4 POP PUSH2 0x73E DUP2 DUP6 PUSH1 0x20 DUP7 ADD PUSH2 0x70C JUMP JUMPDEST PUSH2 0x747 DUP2 PUSH2 0x4C4 JUMP JUMPDEST DUP5 ADD SWAP2 POP POP SWAP3 SWAP2 POP POP JUMP JUMPDEST PUSH2 0x75B DUP2 PUSH2 0x5F8 JUMP JUMPDEST DUP3 MSTORE POP POP JUMP JUMPDEST PUSH0 PUSH1 0x80 DUP4 ADD PUSH0 DUP4 ADD MLOAD DUP5 DUP3 SUB PUSH0 DUP7 ADD MSTORE PUSH2 0x77B DUP3 DUP3 PUSH2 0x71A JUMP JUMPDEST SWAP2 POP POP PUSH1 0x20 DUP4 ADD MLOAD PUSH2 0x790 PUSH1 0x20 DUP7 ADD DUP3 PUSH2 0x752 JUMP JUMPDEST POP PUSH1 0x40 DUP4 ADD MLOAD PUSH2 0x7A3 PUSH1 0x40 DUP7 ADD DUP3 PUSH2 0x752 JUMP JUMPDEST POP PUSH1 0x60 DUP4 ADD MLOAD DUP5 DUP3 SUB PUSH1 0x60 DUP7 ADD MSTORE PUSH2 0x7BB DUP3 DUP3 PUSH2 0x71A JUMP JUMPDEST SWAP2 POP POP DUP1 SWAP2 POP POP SWAP3 SWAP2 POP POP JUMP JUMPDEST PUSH0 PUSH1 0x20 DUP3 ADD SWAP1 POP DUP2 DUP2 SUB PUSH0 DUP4 ADD MSTORE PUSH2 0x7E0 DUP2 DUP5 PUSH2 0x761 JUMP JUMPDEST SWAP1 POP SWAP3 SWAP2 POP POP JUMP JUMPDEST PUSH0 DUP2 MLOAD SWAP1 POP SWAP2 SWAP1 POP JUMP JUMPDEST PUSH0 DUP3 DUP3 MSTORE PUSH1 0x20 DUP3 ADD SWAP1 POP SWAP3 SWAP2 POP POP JUMP JUMPDEST PUSH0 DUP2 SWAP1 POP PUSH1 0x20 DUP3 ADD SWAP1 POP SWAP2 SWAP1 POP JUMP JUMPDEST PUSH0 PUSH1 0x80 DUP4 ADD PUSH0 DUP4 ADD MLOAD DUP5 DUP3 SUB PUSH0 DUP7 ADD MSTORE PUSH2 0x82B DUP3 DUP3 PUSH2 0x71A JUMP JUMPDEST SWAP2 POP POP PUSH1 0x20 DUP4 ADD MLOAD PUSH2 0x840 PUSH1 0x20 DUP7 ADD DUP3 PUSH2 0x752 JUMP JUMPDEST POP PUSH1 0x40 DUP4 ADD MLOAD PUSH2 0x853 PUSH1 0x40 DUP7 ADD DUP3 PUSH2 0x752 JUMP JUMPDEST POP PUSH1 0x60 DUP4 ADD MLOAD DUP5 DUP3 SUB PUSH1 0x60 DUP7 ADD MSTORE PUSH2 0x86B DUP3 DUP3 PUSH2 0x71A JUMP JUMPDEST SWAP2 POP POP DUP1 SWAP2 POP POP SWAP3 SWAP2 POP POP JUMP JUMPDEST PUSH0 PUSH2 0x883 DUP4 DUP4 PUSH2 0x811 JUMP JUMPDEST SWAP1 POP SWAP3 SWAP2 POP POP JUMP JUMPDEST PUSH0 PUSH1 0x20 DUP3 ADD SWAP1 POP SWAP2 SWAP1 POP JUMP JUMPDEST PUSH0 PUSH2 0x8A1 DUP3 PUSH2 0x7E8 JUMP JUMPDEST PUSH2 0x8AB DUP2 DUP6 PUSH2 0x7F2 JUMP JUMPDEST SWAP4 POP DUP4 PUSH1 0x20 DUP3 MUL DUP6 ADD PUSH2 0x8BD DUP6 PUSH2 0x802 JUMP JUMPDEST DUP1 PUSH0 JUMPDEST DUP6 DUP2 LT ISZERO PUSH2 0x8F8 JUMPI DUP5 DUP5 SUB DUP10 MSTORE DUP2 MLOAD PUSH2 0x8D9 DUP6 DUP3 PUSH2 0x878 JUMP JUMPDEST SWAP5 POP PUSH2 0x8E4 DUP4 PUSH2 0x88B JUMP JUMPDEST SWAP3 POP PUSH1 0x20 DUP11 ADD SWAP10 POP POP PUSH1 0x1 DUP2 ADD SWAP1 POP PUSH2 0x8C0 JUMP JUMPDEST POP DUP3 SWAP8 POP DUP8 SWAP6 POP POP POP POP POP POP SWAP3 SWAP2 POP POP JUMP JUMPDEST PUSH0 PUSH1 0x20 DUP3 ADD SWAP1 POP DUP2 DUP2 SUB PUSH0 DUP4 ADD MSTORE PUSH2 0x922 DUP2 DUP5 PUSH2 0x897 JUMP JUMPDEST SWAP1 POP SWAP3 SWAP2 POP POP JUMP JUMPDEST PUSH32 0x4E487B7100000000000000000000000000000000000000000000000000000000 PUSH0 MSTORE PUSH1 0x22 PUSH1 0x4 MSTORE PUSH1 0x24 PUSH0 REVERT JUMPDEST PUSH0 PUSH1 0x2 DUP3 DIV SWAP1 POP PUSH1 0x1 DUP3 AND DUP1 PUSH2 0x96E JUMPI PUSH1 0x7F DUP3 AND SWAP2 POP JUMPDEST PUSH1 0x20 DUP3 LT DUP2 SUB PUSH2 0x981 JUMPI PUSH2 0x980 PUSH2 0x92A JUMP JUMPDEST JUMPDEST POP SWAP2 SWAP1 POP JUMP JUMPDEST PUSH0 DUP2 SWAP1 POP DUP2 PUSH0 MSTORE PUSH1 0x20 PUSH0 KECCAK256 SWAP1 POP SWAP2 SWAP1 POP JUMP JUMPDEST PUSH0 PUSH1 0x20 PUSH1 0x1F DUP4 ADD DIV SWAP1 POP SWAP2 SWAP1 POP JUMP JUMPDEST PUSH0 DUP3 DUP3 SHL SWAP1 POP SWAP3 SWAP2 POP POP JUMP JUMPDEST PUSH0 PUSH1 0x8 DUP4 MUL PUSH2 0x9E3 PUSH32 0xFFFFFFFFFFFFFFFFFFFFFFFFFFFFFFFFFFFFFFFFFFFFFFFFFFFFFFFFFFFFFFFF DUP3 PUSH2 0x9A8 JUMP JUMPDEST PUSH2 0x9ED DUP7 DUP4 PUSH2 0x9A8 JUMP JUMPDEST SWAP6 POP DUP1 NOT DUP5 AND SWAP4 POP DUP1 DUP7 AND DUP5 OR SWAP3 POP POP POP SWAP4 SWAP3 POP POP POP JUMP JUMPDEST PUSH0 DUP2 SWAP1 POP SWAP2 SWAP1 POP JUMP JUMPDEST PUSH0 PUSH2 0xA28 PUSH2 0xA23 PUSH2 0xA1E DUP5 PUSH2 0x5F8 JUMP JUMPDEST PUSH2 0xA05 JUMP JUMPDEST PUSH2 0x5F8 JUMP JUMPDEST SWAP1 POP SWAP2 SWAP1 POP JUMP JUMPDEST PUSH0 DUP2 SWAP1 POP SWAP2 SWAP1 POP JUMP JUMPDEST PUSH2 0xA41 DUP4 PUSH2 0xA0E JUMP JUMPDEST PUSH2 0xA55 PUSH2 0xA4D DUP3 PUSH2 0xA2F JUMP JUMPDEST DUP5 DUP5 SLOAD PUSH2 0x9B4 JUMP JUMPDEST DUP3 SSTORE POP POP POP POP JUMP JUMPDEST PUSH0 SWAP1 JUMP JUMPDEST PUSH2 0xA69 PUSH2 0xA5D JUMP JUMPDEST PUSH2 0xA74 DUP2 DUP5 DUP5 PUSH2 0xA38 JUMP JUMPDEST POP POP POP JUMP JUMPDEST JUMPDEST DUP2 DUP2 LT ISZERO PUSH2 0xA97 JUMPI PUSH2 0xA8C PUSH0 DUP3 PUSH2 0xA61 JUMP JUMPDEST PUSH1 0x1 DUP2 ADD SWAP1 POP PUSH2 0xA7A JUMP JUMPDEST POP POP JUMP JUMPDEST PUSH1 0x1F DUP3 GT ISZERO PUSH2 0xADC JUMPI PUSH2 0xAAD DUP2 PUSH2 0x987 JUMP JUMPDEST PUSH2 0xAB6 DUP5 PUSH2 0x999 JUMP JUMPDEST DUP2 ADD PUSH1 0x20 DUP6 LT ISZERO PUSH2 0xAC5 JUMPI DUP2 SWAP1 POP JUMPDEST PUSH2 0xAD9 PUSH2 0xAD1 DUP6 PUSH2 0x999 JUMP JUMPDEST DUP4 ADD DUP3 PUSH2 0xA79 JUMP JUMPDEST POP POP JUMPDEST POP POP POP JUMP JUMPDEST PUSH0 DUP3 DUP3 SHR SWAP1 POP SWAP3 SWAP2 POP POP JUMP JUMPDEST PUSH0 PUSH2 0xAFC PUSH0 NOT DUP5 PUSH1 0x8 MUL PUSH2 0xAE1 JUMP JUMPDEST NOT DUP1 DUP4 AND SWAP2 POP POP SWAP3 SWAP2 POP POP JUMP JUMPDEST PUSH0 PUSH2 0xB14 DUP4 DUP4 PUSH2 0xAED JUMP JUMPDEST SWAP2 POP DUP3 PUSH1 0x2 MUL DUP3 OR SWAP1 POP SWAP3 SWAP2 POP POP JUMP JUMPDEST PUSH2 0xB2D DUP3 PUSH2 0x6F2 JUMP JUMPDEST PUSH8 0xFFFFFFFFFFFFFFFF DUP2 GT ISZERO PUSH2 0xB46 JUMPI PUSH2 0xB45 PUSH2 0x4D4 JUMP JUMPDEST JUMPDEST PUSH2 0xB50 DUP3 SLOAD PUSH2 0x957 JUMP JUMPDEST PUSH2 0xB5B DUP3 DUP3 DUP6 PUSH2 0xA9B JUMP JUMPDEST PUSH0 PUSH1 0x20 SWAP1 POP PUSH1 0x1F DUP4 GT PUSH1 0x1 DUP2 EQ PUSH2 0xB8C JUMPI PUSH0 DUP5 ISZERO PUSH2 0xB7A JUMPI DUP3 DUP8 ADD MLOAD SWAP1 POP JUMPDEST PUSH2 0xB84 DUP6 DUP3 PUSH2 0xB09 JUMP JUMPDEST DUP7 SSTORE POP PUSH2 0xBEB JUMP JUMPDEST PUSH1 0x1F NOT DUP5 AND PUSH2 0xB9A DUP7 PUSH2 0x987 JUMP JUMPDEST PUSH0 JUMPDEST DUP3 DUP2 LT ISZERO PUSH2 0xBC1 JUMPI DUP5 DUP10 ADD MLOAD DUP3 SSTORE PUSH1 0x1 DUP3 ADD SWAP2 POP PUSH1 0x20 DUP6 ADD SWAP5 POP PUSH1 0x20 DUP2 ADD SWAP1 POP PUSH2 0xB9C JUMP JUMPDEST DUP7 DUP4 LT ISZERO PUSH2 0xBDE JUMPI DUP5 DUP10 ADD MLOAD PUSH2 0xBDA PUSH1 0x1F DUP10 AND DUP3 PUSH2 0xAED JUMP JUMPDEST DUP4 SSTORE POP JUMPDEST PUSH1 0x1 PUSH1 0x2 DUP9 MUL ADD DUP9 SSTORE POP POP POP JUMPDEST POP POP POP POP POP POP JUMP JUMPDEST PUSH0 DUP2 SLOAD SWAP1 POP PUSH2 0xC01 DUP2 PUSH2 0x957 JUMP JUMPDEST SWAP1 POP SWAP2 SWAP1 POP JUMP JUMPDEST DUP2 DUP2 SUB PUSH2 0xC16 JUMPI POP POP PUSH2 0xCEB JUMP JUMPDEST PUSH2 0xC1F DUP3 PUSH2 0xBF3 JUMP JUMPDEST PUSH8 0xFFFFFFFFFFFFFFFF DUP2 GT ISZERO PUSH2 0xC38 JUMPI PUSH2 0xC37 PUSH2 0x4D4 JUMP JUMPDEST JUMPDEST PUSH2 0xC42 DUP3 SLOAD PUSH2 0x957 JUMP JUMPDEST PUSH2 0xC4D DUP3 DUP3 DUP6 PUSH2 0xA9B JUMP JUMPDEST PUSH0 PUSH1 0x1F DUP4 GT PUSH1 0x1 DUP2 EQ PUSH2 0xC7A JUMPI PUSH0 DUP5 ISZERO PUSH2 0xC68 JUMPI DUP3 DUP8 ADD SLOAD SWAP1 POP JUMPDEST PUSH2 0xC72 DUP6 DUP3 PUSH2 0xB09 JUMP JUMPDEST DUP7 SSTORE POP PUSH2 0xCE4 JUMP JUMPDEST PUSH1 0x1F NOT DUP5 AND PUSH2 0xC88 DUP8 PUSH2 0x987 JUMP JUMPDEST SWAP7 POP PUSH2 0xC93 DUP7 PUSH2 0x987 JUMP JUMPDEST PUSH0 JUMPDEST DUP3 DUP2 LT ISZERO PUSH2 0xCBA JUMPI DUP5 DUP10 ADD SLOAD DUP3 SSTORE PUSH1 0x1 DUP3 ADD SWAP2 POP PUSH1 0x1 DUP6 ADD SWAP5 POP PUSH1 0x20 DUP2 ADD SWAP1 POP PUSH2 0xC95 JUMP JUMPDEST DUP7 DUP4 LT ISZERO PUSH2 0xCD7 JUMPI DUP5 DUP10 ADD SLOAD PUSH2 0xCD3 PUSH1 0x1F DUP10 AND DUP3 PUSH2 0xAED JUMP JUMPDEST DUP4 SSTORE POP JUMPDEST PUSH1 0x1 PUSH1 0x2 DUP9 MUL ADD DUP9 SSTORE POP POP POP JUMPDEST POP POP POP POP POP POP JUMPDEST JUMP JUMPDEST PUSH32 0x4E487B7100000000000000000000000000000000000000000000000000000000 PUSH0 MSTORE PUSH1 0x11 PUSH1 0x4 MSTORE PUSH1 0x24 PUSH0 REVERT JUMPDEST PUSH0 PUSH2 0xD24 DUP3 PUSH2 0x5F8 JUMP JUMPDEST SWAP2 POP PUSH2 0xD2F DUP4 PUSH2 0x5F8 JUMP JUMPDEST SWAP3 POP DUP3 DUP3 SUB SWAP1 POP DUP2 DUP2 GT ISZERO PUSH2 0xD47 JUMPI PUSH2 0xD46 PUSH2 0xCED JUMP JUMPDEST JUMPDEST SWAP3 SWAP2 POP POP JUMP JUMPDEST PUSH32 0x4E487B7100000000000000000000000000000000000000000000000000000000 PUSH0 MSTORE PUSH1 0x32 PUSH1 0x4 MSTORE PUSH1 0x24 PUSH0 REVERT INVALID LOG2 PUSH5 0x6970667358 0x22 SLT KECCAK256 DUP12 PUSH29 0xD914F1E3849128FF2F8BB7FC7063862B72EBA64949C97A378F7A486966 0xDD PUSH5 0x736F6C6343 STOP ADDMOD BYTE STOP CALLER "
				},
				"gasEstimates": {
					"creation": {
						"codeDepositCost": "700800",
						"executionCost": "732",
						"totalCost": "701532"
					},
					"external": {
						"getStudent(uint256)": "infinite",
						"getStudents()": "infinite",
						"setStudent(string,uint256,uint256,string)": "infinite"
					}
				},
				"methodIdentifiers": {
					"getStudent(uint256)": "642f9163",
					"getStudents()": "f1d064b3",
					"setStudent(string,uint256,uint256,string)": "107af71c"
				}
			},
			"storageLayout": {
				"storage": [
					{
						"astId": 13,
						"contract": "test.sol:TEST1",
						"label": "s1",
						"offset": 0,
						"slot": "0",
						"type": "t_struct(Student)10_storage"
					},
					{
						"astId": 17,
						"contract": "test.sol:TEST1",
						"label": "students",
						"offset": 0,
						"slot": "4",
						"type": "t_array(t_struct(Student)10_storage)dyn_storage"
					}
				],
				"types": {
					"t_array(t_struct(Student)10_storage)dyn_storage": {
						"base": "t_struct(Student)10_storage",
						"encoding": "dynamic_array",
						"label": "struct TEST1.Student[]",
						"numberOfBytes": "32"
					},
					"t_string_storage": {
						"encoding": "bytes",
						"label": "string",
						"numberOfBytes": "32"
					},
					"t_struct(Student)10_storage": {
						"encoding": "inplace",
						"label": "struct TEST1.Student",
						"members": [
							{
								"astId": 3,
								"contract": "test.sol:TEST1",
								"label": "name",
								"offset": 0,
								"slot": "0",
								"type": "t_string_storage"
							},
							{
								"astId": 5,
								"contract": "test.sol:TEST1",
								"label": "number",
								"offset": 0,
								"slot": "1",
								"type": "t_uint256"
							},
							{
								"astId": 7,
								"contract": "test.sol:TEST1",
								"label": "score",
								"offset": 0,
								"slot": "2",
								"type": "t_uint256"
							},
							{
								"astId": 9,
								"contract": "test.sol:TEST1",
								"label": "grade",
								"offset": 0,
								"slot": "3",
								"type": "t_string_storage"
							}
						],
						"numberOfBytes": "128"
					},
					"t_uint256": {
						"encoding": "inplace",
						"label": "uint256",
						"numberOfBytes": "32"
					}
				}
			},
			"userdoc": {
				"kind": "user",
				"methods": {},
				"version": 1
			}
		}
	}
}