{
	"solidity_test/test8.sol": {
		"a": {
			"abi": [
				{
					"inputs": [
						{
							"internalType": "string",
							"name": "_subject",
							"type": "string"
						}
					],
					"name": "getTopic",
					"outputs": [
						{
							"components": [
								{
									"internalType": "uint256",
									"name": "number",
									"type": "uint256"
								},
								{
									"internalType": "string",
									"name": "subject",
									"type": "string"
								},
								{
									"internalType": "string",
									"name": "content",
									"type": "string"
								},
								{
									"internalType": "address",
									"name": "proposer",
									"type": "address"
								},
								{
									"internalType": "uint256",
									"name": "upvote",
									"type": "uint256"
								},
								{
									"internalType": "uint256",
									"name": "downvote",
									"type": "uint256"
								}
							],
							"internalType": "struct a.topic",
							"name": "",
							"type": "tuple"
						}
					],
					"stateMutability": "view",
					"type": "function"
				},
				{
					"inputs": [],
					"name": "getTopics",
					"outputs": [
						{
							"components": [
								{
									"internalType": "uint256",
									"name": "number",
									"type": "uint256"
								},
								{
									"internalType": "string",
									"name": "subject",
									"type": "string"
								},
								{
									"internalType": "string",
									"name": "content",
									"type": "string"
								},
								{
									"internalType": "address",
									"name": "proposer",
									"type": "address"
								},
								{
									"internalType": "uint256",
									"name": "upvote",
									"type": "uint256"
								},
								{
									"internalType": "uint256",
									"name": "downvote",
									"type": "uint256"
								}
							],
							"internalType": "struct a.topic[]",
							"name": "",
							"type": "tuple[]"
						}
					],
					"stateMutability": "view",
					"type": "function"
				},
				{
					"inputs": [
						{
							"internalType": "string",
							"name": "_name",
							"type": "string"
						}
					],
					"name": "getUser",
					"outputs": [
						{
							"components": [
								{
									"internalType": "string",
									"name": "name",
									"type": "string"
								},
								{
									"internalType": "address",
									"name": "wallet",
									"type": "address"
								}
							],
							"internalType": "struct a.user",
							"name": "",
							"type": "tuple"
						}
					],
					"stateMutability": "view",
					"type": "function"
				},
				{
					"inputs": [
						{
							"internalType": "string",
							"name": "_subject",
							"type": "string"
						},
						{
							"internalType": "string",
							"name": "_content",
							"type": "string"
						}
					],
					"name": "setTopic",
					"outputs": [],
					"stateMutability": "nonpayable",
					"type": "function"
				},
				{
					"inputs": [
						{
							"internalType": "string",
							"name": "_name",
							"type": "string"
						}
					],
					"name": "setUser",
					"outputs": [],
					"stateMutability": "nonpayable",
					"type": "function"
				},
				{
					"inputs": [
						{
							"internalType": "string",
							"name": "_subject",
							"type": "string"
						},
						{
							"internalType": "bool",
							"name": "_vote",
							"type": "bool"
						}
					],
					"name": "voting",
					"outputs": [],
					"stateMutability": "nonpayable",
					"type": "function"
				}
			],
			"devdoc": {
				"kind": "dev",
				"methods": {},
				"version": 1
			},
			"evm": {
				"assembly": "    /* \"solidity_test/test8.sol\":67:3884  contract a {... */\n  mstore(0x40, 0x80)\n  callvalue\n  dup1\n  iszero\n  tag_1\n  jumpi\n  0x00\n  dup1\n  revert\ntag_1:\n  pop\n  dataSize(sub_0)\n  dup1\n  dataOffset(sub_0)\n  0x00\n  codecopy\n  0x00\n  return\nstop\n\nsub_0: assembly {\n        /* \"solidity_test/test8.sol\":67:3884  contract a {... */\n      mstore(0x40, 0x80)\n      callvalue\n      dup1\n      iszero\n      tag_1\n      jumpi\n      0x00\n      dup1\n      revert\n    tag_1:\n      pop\n      jumpi(tag_2, lt(calldatasize, 0x04))\n      shr(0xe0, calldataload(0x00))\n      dup1\n      0x31feb671\n      eq\n      tag_3\n      jumpi\n      dup1\n      0x474502d8\n      eq\n      tag_4\n      jumpi\n      dup1\n      0x4ac3e917\n      eq\n      tag_5\n      jumpi\n      dup1\n      0x4da8d7ef\n      eq\n      tag_6\n      jumpi\n      dup1\n      0xd0020fad\n      eq\n      tag_7\n      jumpi\n      dup1\n      0xfee01177\n      eq\n      tag_8\n      jumpi\n    tag_2:\n      0x00\n      dup1\n      revert\n        /* \"solidity_test/test8.sol\":2242:2351  function getUser(string memory _name) public view returns(user memory) {... */\n    tag_3:\n      tag_9\n      0x04\n      dup1\n      calldatasize\n      sub\n      dup2\n      add\n      swap1\n      tag_10\n      swap2\n      swap1\n      tag_11\n      jump\t// in\n    tag_10:\n      tag_12\n      jump\t// in\n    tag_9:\n      mload(0x40)\n      tag_13\n      swap2\n      swap1\n      tag_14\n      jump\t// in\n    tag_13:\n      mload(0x40)\n      dup1\n      swap2\n      sub\n      swap1\n      return\n        /* \"solidity_test/test8.sol\":2841:2959  function getTopic(string memory _subject) public view returns(topic memory) {... */\n    tag_4:\n      tag_15\n      0x04\n      dup1\n      calldatasize\n      sub\n      dup2\n      add\n      swap1\n      tag_16\n      swap2\n      swap1\n      tag_11\n      jump\t// in\n    tag_16:\n      tag_17\n      jump\t// in\n    tag_15:\n      mload(0x40)\n      tag_18\n      swap2\n      swap1\n      tag_19\n      jump\t// in\n    tag_18:\n      mload(0x40)\n      dup1\n      swap2\n      sub\n      swap1\n      return\n        /* \"solidity_test/test8.sol\":2445:2628  function setTopic(string memory _subject, string memory _content) public {... */\n    tag_5:\n      tag_20\n      0x04\n      dup1\n      calldatasize\n      sub\n      dup2\n      add\n      swap1\n      tag_21\n      swap2\n      swap1\n      tag_22\n      jump\t// in\n    tag_21:\n      tag_23\n      jump\t// in\n    tag_20:\n      stop\n        /* \"solidity_test/test8.sol\":3487:3868  function voting(string memory _subject, bool _vote) public {... */\n    tag_6:\n      tag_24\n      0x04\n      dup1\n      calldatasize\n      sub\n      dup2\n      add\n      swap1\n      tag_25\n      swap2\n      swap1\n      tag_26\n      jump\t// in\n    tag_25:\n      tag_27\n      jump\t// in\n    tag_24:\n      stop\n        /* \"solidity_test/test8.sol\":2132:2234  function setUser(string memory _name) public {... */\n    tag_7:\n      tag_28\n      0x04\n      dup1\n      calldatasize\n      sub\n      dup2\n      add\n      swap1\n      tag_29\n      swap2\n      swap1\n      tag_11\n      jump\t// in\n    tag_29:\n      tag_30\n      jump\t// in\n    tag_28:\n      stop\n        /* \"solidity_test/test8.sol\":3114:3310  function getTopics() public view returns(topic[] memory) {... */\n    tag_8:\n      tag_31\n      tag_32\n      jump\t// in\n    tag_31:\n      mload(0x40)\n      tag_33\n      swap2\n      swap1\n      tag_34\n      jump\t// in\n    tag_33:\n      mload(0x40)\n      dup1\n      swap2\n      sub\n      swap1\n      return\n        /* \"solidity_test/test8.sol\":2242:2351  function getUser(string memory _name) public view returns(user memory) {... */\n    tag_12:\n        /* \"solidity_test/test8.sol\":2300:2311  user memory */\n      tag_35\n      tag_36\n      jump\t// in\n    tag_35:\n        /* \"solidity_test/test8.sol\":2331:2336  users */\n      0x02\n        /* \"solidity_test/test8.sol\":2337:2342  _name */\n      dup3\n        /* \"solidity_test/test8.sol\":2331:2343  users[_name] */\n      mload(0x40)\n      tag_38\n      swap2\n      swap1\n      tag_39\n      jump\t// in\n    tag_38:\n      swap1\n      dup2\n      mstore\n      0x20\n      add\n      mload(0x40)\n      dup1\n      swap2\n      sub\n      swap1\n      keccak256\n        /* \"solidity_test/test8.sol\":2324:2343  return users[_name] */\n      mload(0x40)\n      dup1\n      0x40\n      add\n      0x40\n      mstore\n      swap1\n      dup2\n      0x00\n      dup3\n      add\n      dup1\n      sload\n      tag_40\n      swap1\n      tag_41\n      jump\t// in\n    tag_40:\n      dup1\n      0x1f\n      add\n      0x20\n      dup1\n      swap2\n      div\n      mul\n      0x20\n      add\n      mload(0x40)\n      swap1\n      dup2\n      add\n      0x40\n      mstore\n      dup1\n      swap3\n      swap2\n      swap1\n      dup2\n      dup2\n      mstore\n      0x20\n      add\n      dup3\n      dup1\n      sload\n      tag_42\n      swap1\n      tag_41\n      jump\t// in\n    tag_42:\n      dup1\n      iszero\n      tag_43\n      jumpi\n      dup1\n      0x1f\n      lt\n      tag_44\n      jumpi\n      0x0100\n      dup1\n      dup4\n      sload\n      div\n      mul\n      dup4\n      mstore\n      swap2\n      0x20\n      add\n      swap2\n      jump(tag_43)\n    tag_44:\n      dup3\n      add\n      swap2\n      swap1\n      0x00\n      mstore\n      keccak256(0x00, 0x20)\n      swap1\n    tag_45:\n      dup2\n      sload\n      dup2\n      mstore\n      swap1\n      0x01\n      add\n      swap1\n      0x20\n      add\n      dup1\n      dup4\n      gt\n      tag_45\n      jumpi\n      dup3\n      swap1\n      sub\n      0x1f\n      and\n      dup3\n      add\n      swap2\n    tag_43:\n      pop\n      pop\n      pop\n      pop\n      pop\n      dup2\n      mstore\n      0x20\n      add\n      0x01\n      dup3\n      add\n      0x00\n      swap1\n      sload\n      swap1\n      0x0100\n      exp\n      swap1\n      div\n      0xffffffffffffffffffffffffffffffffffffffff\n      and\n      0xffffffffffffffffffffffffffffffffffffffff\n      and\n      0xffffffffffffffffffffffffffffffffffffffff\n      and\n      dup2\n      mstore\n      pop\n      pop\n      swap1\n      pop\n        /* \"solidity_test/test8.sol\":2242:2351  function getUser(string memory _name) public view returns(user memory) {... */\n      swap2\n      swap1\n      pop\n      jump\t// out\n        /* \"solidity_test/test8.sol\":2841:2959  function getTopic(string memory _subject) public view returns(topic memory) {... */\n    tag_17:\n        /* \"solidity_test/test8.sol\":2903:2915  topic memory */\n      tag_46\n      tag_47\n      jump\t// in\n    tag_46:\n        /* \"solidity_test/test8.sol\":2935:2941  topics */\n      0x00\n        /* \"solidity_test/test8.sol\":2942:2950  _subject */\n      dup3\n        /* \"solidity_test/test8.sol\":2935:2951  topics[_subject] */\n      mload(0x40)\n      tag_49\n      swap2\n      swap1\n      tag_39\n      jump\t// in\n    tag_49:\n      swap1\n      dup2\n      mstore\n      0x20\n      add\n      mload(0x40)\n      dup1\n      swap2\n      sub\n      swap1\n      keccak256\n        /* \"solidity_test/test8.sol\":2928:2951  return topics[_subject] */\n      mload(0x40)\n      dup1\n      0xc0\n      add\n      0x40\n      mstore\n      swap1\n      dup2\n      0x00\n      dup3\n      add\n      sload\n      dup2\n      mstore\n      0x20\n      add\n      0x01\n      dup3\n      add\n      dup1\n      sload\n      tag_50\n      swap1\n      tag_41\n      jump\t// in\n    tag_50:\n      dup1\n      0x1f\n      add\n      0x20\n      dup1\n      swap2\n      div\n      mul\n      0x20\n      add\n      mload(0x40)\n      swap1\n      dup2\n      add\n      0x40\n      mstore\n      dup1\n      swap3\n      swap2\n      swap1\n      dup2\n      dup2\n      mstore\n      0x20\n      add\n      dup3\n      dup1\n      sload\n      tag_51\n      swap1\n      tag_41\n      jump\t// in\n    tag_51:\n      dup1\n      iszero\n      tag_52\n      jumpi\n      dup1\n      0x1f\n      lt\n      tag_53\n      jumpi\n      0x0100\n      dup1\n      dup4\n      sload\n      div\n      mul\n      dup4\n      mstore\n      swap2\n      0x20\n      add\n      swap2\n      jump(tag_52)\n    tag_53:\n      dup3\n      add\n      swap2\n      swap1\n      0x00\n      mstore\n      keccak256(0x00, 0x20)\n      swap1\n    tag_54:\n      dup2\n      sload\n      dup2\n      mstore\n      swap1\n      0x01\n      add\n      swap1\n      0x20\n      add\n      dup1\n      dup4\n      gt\n      tag_54\n      jumpi\n      dup3\n      swap1\n      sub\n      0x1f\n      and\n      dup3\n      add\n      swap2\n    tag_52:\n      pop\n      pop\n      pop\n      pop\n      pop\n      dup2\n      mstore\n      0x20\n      add\n      0x02\n      dup3\n      add\n      dup1\n      sload\n      tag_55\n      swap1\n      tag_41\n      jump\t// in\n    tag_55:\n      dup1\n      0x1f\n      add\n      0x20\n      dup1\n      swap2\n      div\n      mul\n      0x20\n      add\n      mload(0x40)\n      swap1\n      dup2\n      add\n      0x40\n      mstore\n      dup1\n      swap3\n      swap2\n      swap1\n      dup2\n      dup2\n      mstore\n      0x20\n      add\n      dup3\n      dup1\n      sload\n      tag_56\n      swap1\n      tag_41\n      jump\t// in\n    tag_56:\n      dup1\n      iszero\n      tag_57\n      jumpi\n      dup1\n      0x1f\n      lt\n      tag_58\n      jumpi\n      0x0100\n      dup1\n      dup4\n      sload\n      div\n      mul\n      dup4\n      mstore\n      swap2\n      0x20\n      add\n      swap2\n      jump(tag_57)\n    tag_58:\n      dup3\n      add\n      swap2\n      swap1\n      0x00\n      mstore\n      keccak256(0x00, 0x20)\n      swap1\n    tag_59:\n      dup2\n      sload\n      dup2\n      mstore\n      swap1\n      0x01\n      add\n      swap1\n      0x20\n      add\n      dup1\n      dup4\n      gt\n      tag_59\n      jumpi\n      dup3\n      swap1\n      sub\n      0x1f\n      and\n      dup3\n      add\n      swap2\n    tag_57:\n      pop\n      pop\n      pop\n      pop\n      pop\n      dup2\n      mstore\n      0x20\n      add\n      0x03\n      dup3\n      add\n      0x00\n      swap1\n      sload\n      swap1\n      0x0100\n      exp\n      swap1\n      div\n      0xffffffffffffffffffffffffffffffffffffffff\n      and\n      0xffffffffffffffffffffffffffffffffffffffff\n      and\n      0xffffffffffffffffffffffffffffffffffffffff\n      and\n      dup2\n      mstore\n      0x20\n      add\n      0x04\n      dup3\n      add\n      sload\n      dup2\n      mstore\n      0x20\n      add\n      0x05\n      dup3\n      add\n      sload\n      dup2\n      mstore\n      pop\n      pop\n      swap1\n      pop\n        /* \"solidity_test/test8.sol\":2841:2959  function getTopic(string memory _subject) public view returns(topic memory) {... */\n      swap2\n      swap1\n      pop\n      jump\t// out\n        /* \"solidity_test/test8.sol\":2445:2628  function setTopic(string memory _subject, string memory _content) public {... */\n    tag_23:\n        /* \"solidity_test/test8.sol\":2548:2599  topic(topicNum, _subject, _content, msg.sender,0,0) */\n      mload(0x40)\n      dup1\n      0xc0\n      add\n      0x40\n      mstore\n      dup1\n        /* \"solidity_test/test8.sol\":2554:2562  topicNum */\n      sload(0x03)\n        /* \"solidity_test/test8.sol\":2548:2599  topic(topicNum, _subject, _content, msg.sender,0,0) */\n      dup2\n      mstore\n      0x20\n      add\n        /* \"solidity_test/test8.sol\":2564:2572  _subject */\n      dup4\n        /* \"solidity_test/test8.sol\":2548:2599  topic(topicNum, _subject, _content, msg.sender,0,0) */\n      dup2\n      mstore\n      0x20\n      add\n        /* \"solidity_test/test8.sol\":2574:2582  _content */\n      dup3\n        /* \"solidity_test/test8.sol\":2548:2599  topic(topicNum, _subject, _content, msg.sender,0,0) */\n      dup2\n      mstore\n      0x20\n      add\n        /* \"solidity_test/test8.sol\":2584:2594  msg.sender */\n      caller\n        /* \"solidity_test/test8.sol\":2548:2599  topic(topicNum, _subject, _content, msg.sender,0,0) */\n      0xffffffffffffffffffffffffffffffffffffffff\n      and\n      dup2\n      mstore\n      0x20\n      add\n        /* \"solidity_test/test8.sol\":2595:2596  0 */\n      0x00\n        /* \"solidity_test/test8.sol\":2548:2599  topic(topicNum, _subject, _content, msg.sender,0,0) */\n      dup2\n      mstore\n      0x20\n      add\n        /* \"solidity_test/test8.sol\":2597:2598  0 */\n      0x00\n        /* \"solidity_test/test8.sol\":2548:2599  topic(topicNum, _subject, _content, msg.sender,0,0) */\n      dup2\n      mstore\n      pop\n        /* \"solidity_test/test8.sol\":2529:2535  topics */\n      0x00\n        /* \"solidity_test/test8.sol\":2536:2544  _subject */\n      dup4\n        /* \"solidity_test/test8.sol\":2529:2545  topics[_subject] */\n      mload(0x40)\n      tag_61\n      swap2\n      swap1\n      tag_39\n      jump\t// in\n    tag_61:\n      swap1\n      dup2\n      mstore\n      0x20\n      add\n      mload(0x40)\n      dup1\n      swap2\n      sub\n      swap1\n      keccak256\n        /* \"solidity_test/test8.sol\":2529:2599  topics[_subject] = topic(topicNum, _subject, _content, msg.sender,0,0) */\n      0x00\n      dup3\n      add\n      mload\n      dup2\n      0x00\n      add\n      sstore\n      0x20\n      dup3\n      add\n      mload\n      dup2\n      0x01\n      add\n      swap1\n      dup2\n      tag_62\n      swap2\n      swap1\n      tag_63\n      jump\t// in\n    tag_62:\n      pop\n      0x40\n      dup3\n      add\n      mload\n      dup2\n      0x02\n      add\n      swap1\n      dup2\n      tag_64\n      swap2\n      swap1\n      tag_63\n      jump\t// in\n    tag_64:\n      pop\n      0x60\n      dup3\n      add\n      mload\n      dup2\n      0x03\n      add\n      exp(0x0100, 0x00)\n      dup2\n      sload\n      dup2\n      0xffffffffffffffffffffffffffffffffffffffff\n      mul\n      not\n      and\n      swap1\n      dup4\n      0xffffffffffffffffffffffffffffffffffffffff\n      and\n      mul\n      or\n      swap1\n      sstore\n      pop\n      0x80\n      dup3\n      add\n      mload\n      dup2\n      0x04\n      add\n      sstore\n      0xa0\n      dup3\n      add\n      mload\n      dup2\n      0x05\n      add\n      sstore\n      swap1\n      pop\n      pop\n        /* \"solidity_test/test8.sol\":2610:2618  topicNum */\n      0x03\n      0x00\n        /* \"solidity_test/test8.sol\":2610:2620  topicNum++ */\n      dup2\n      sload\n      dup1\n      swap3\n      swap2\n      swap1\n      tag_65\n      swap1\n      tag_66\n      jump\t// in\n    tag_65:\n      swap2\n      swap1\n      pop\n      sstore\n      pop\n        /* \"solidity_test/test8.sol\":2445:2628  function setTopic(string memory _subject, string memory _content) public {... */\n      pop\n      pop\n      jump\t// out\n        /* \"solidity_test/test8.sol\":3487:3868  function voting(string memory _subject, bool _vote) public {... */\n    tag_27:\n        /* \"solidity_test/test8.sol\":3595:3600  false */\n      0x00\n        /* \"solidity_test/test8.sol\":3565:3600  vote[msg.sender][_subject] == false */\n      iszero\n      iszero\n        /* \"solidity_test/test8.sol\":3565:3569  vote */\n      0x01\n        /* \"solidity_test/test8.sol\":3565:3581  vote[msg.sender] */\n      0x00\n        /* \"solidity_test/test8.sol\":3570:3580  msg.sender */\n      caller\n        /* \"solidity_test/test8.sol\":3565:3581  vote[msg.sender] */\n      0xffffffffffffffffffffffffffffffffffffffff\n      and\n      0xffffffffffffffffffffffffffffffffffffffff\n      and\n      dup2\n      mstore\n      0x20\n      add\n      swap1\n      dup2\n      mstore\n      0x20\n      add\n      0x00\n      keccak256\n        /* \"solidity_test/test8.sol\":3582:3590  _subject */\n      dup4\n        /* \"solidity_test/test8.sol\":3565:3591  vote[msg.sender][_subject] */\n      mload(0x40)\n      tag_68\n      swap2\n      swap1\n      tag_39\n      jump\t// in\n    tag_68:\n      swap1\n      dup2\n      mstore\n      0x20\n      add\n      mload(0x40)\n      dup1\n      swap2\n      sub\n      swap1\n      keccak256\n      0x00\n      swap1\n      sload\n      swap1\n      0x0100\n      exp\n      swap1\n      div\n      0xff\n      and\n        /* \"solidity_test/test8.sol\":3565:3600  vote[msg.sender][_subject] == false */\n      iszero\n      iszero\n      eq\n        /* \"solidity_test/test8.sol\":3557:3618  require(vote[msg.sender][_subject] == false, \"already voted\") */\n      tag_69\n      jumpi\n      mload(0x40)\n      0x08c379a000000000000000000000000000000000000000000000000000000000\n      dup2\n      mstore\n      0x04\n      add\n      tag_70\n      swap1\n      tag_71\n      jump\t// in\n    tag_70:\n      mload(0x40)\n      dup1\n      swap2\n      sub\n      swap1\n      revert\n    tag_69:\n        /* \"solidity_test/test8.sol\":3641:3645  true */\n      0x01\n        /* \"solidity_test/test8.sol\":3632:3645  _vote == true */\n      iszero\n      iszero\n        /* \"solidity_test/test8.sol\":3632:3637  _vote */\n      dup2\n        /* \"solidity_test/test8.sol\":3632:3645  _vote == true */\n      iszero\n      iszero\n      sub\n        /* \"solidity_test/test8.sol\":3629:3861  if(_vote == true) {... */\n      tag_72\n      jumpi\n        /* \"solidity_test/test8.sol\":3689:3690  1 */\n      0x01\n        /* \"solidity_test/test8.sol\":3662:3668  topics */\n      0x00\n        /* \"solidity_test/test8.sol\":3669:3677  _subject */\n      dup4\n        /* \"solidity_test/test8.sol\":3662:3678  topics[_subject] */\n      mload(0x40)\n      tag_73\n      swap2\n      swap1\n      tag_39\n      jump\t// in\n    tag_73:\n      swap1\n      dup2\n      mstore\n      0x20\n      add\n      mload(0x40)\n      dup1\n      swap2\n      sub\n      swap1\n      keccak256\n        /* \"solidity_test/test8.sol\":3662:3685  topics[_subject].upvote */\n      0x04\n      add\n      0x00\n        /* \"solidity_test/test8.sol\":3662:3690  topics[_subject].upvote += 1 */\n      dup3\n      dup3\n      sload\n      tag_74\n      swap2\n      swap1\n      tag_75\n      jump\t// in\n    tag_74:\n      swap3\n      pop\n      pop\n      dup2\n      swap1\n      sstore\n      pop\n        /* \"solidity_test/test8.sol\":3734:3738  true */\n      0x01\n        /* \"solidity_test/test8.sol\":3705:3709  vote */\n      dup1\n        /* \"solidity_test/test8.sol\":3705:3721  vote[msg.sender] */\n      0x00\n        /* \"solidity_test/test8.sol\":3710:3720  msg.sender */\n      caller\n        /* \"solidity_test/test8.sol\":3705:3721  vote[msg.sender] */\n      0xffffffffffffffffffffffffffffffffffffffff\n      and\n      0xffffffffffffffffffffffffffffffffffffffff\n      and\n      dup2\n      mstore\n      0x20\n      add\n      swap1\n      dup2\n      mstore\n      0x20\n      add\n      0x00\n      keccak256\n        /* \"solidity_test/test8.sol\":3722:3730  _subject */\n      dup4\n        /* \"solidity_test/test8.sol\":3705:3731  vote[msg.sender][_subject] */\n      mload(0x40)\n      tag_76\n      swap2\n      swap1\n      tag_39\n      jump\t// in\n    tag_76:\n      swap1\n      dup2\n      mstore\n      0x20\n      add\n      mload(0x40)\n      dup1\n      swap2\n      sub\n      swap1\n      keccak256\n      0x00\n        /* \"solidity_test/test8.sol\":3705:3738  vote[msg.sender][_subject] = true */\n      0x0100\n      exp\n      dup2\n      sload\n      dup2\n      0xff\n      mul\n      not\n      and\n      swap1\n      dup4\n      iszero\n      iszero\n      mul\n      or\n      swap1\n      sstore\n      pop\n        /* \"solidity_test/test8.sol\":3629:3861  if(_vote == true) {... */\n      jump(tag_77)\n    tag_72:\n        /* \"solidity_test/test8.sol\":3800:3801  1 */\n      0x01\n        /* \"solidity_test/test8.sol\":3771:3777  topics */\n      0x00\n        /* \"solidity_test/test8.sol\":3778:3786  _subject */\n      dup4\n        /* \"solidity_test/test8.sol\":3771:3787  topics[_subject] */\n      mload(0x40)\n      tag_78\n      swap2\n      swap1\n      tag_39\n      jump\t// in\n    tag_78:\n      swap1\n      dup2\n      mstore\n      0x20\n      add\n      mload(0x40)\n      dup1\n      swap2\n      sub\n      swap1\n      keccak256\n        /* \"solidity_test/test8.sol\":3771:3796  topics[_subject].downvote */\n      0x05\n      add\n      0x00\n        /* \"solidity_test/test8.sol\":3771:3801  topics[_subject].downvote += 1 */\n      dup3\n      dup3\n      sload\n      tag_79\n      swap2\n      swap1\n      tag_75\n      jump\t// in\n    tag_79:\n      swap3\n      pop\n      pop\n      dup2\n      swap1\n      sstore\n      pop\n        /* \"solidity_test/test8.sol\":3845:3849  true */\n      0x01\n        /* \"solidity_test/test8.sol\":3816:3820  vote */\n      dup1\n        /* \"solidity_test/test8.sol\":3816:3832  vote[msg.sender] */\n      0x00\n        /* \"solidity_test/test8.sol\":3821:3831  msg.sender */\n      caller\n        /* \"solidity_test/test8.sol\":3816:3832  vote[msg.sender] */\n      0xffffffffffffffffffffffffffffffffffffffff\n      and\n      0xffffffffffffffffffffffffffffffffffffffff\n      and\n      dup2\n      mstore\n      0x20\n      add\n      swap1\n      dup2\n      mstore\n      0x20\n      add\n      0x00\n      keccak256\n        /* \"solidity_test/test8.sol\":3833:3841  _subject */\n      dup4\n        /* \"solidity_test/test8.sol\":3816:3842  vote[msg.sender][_subject] */\n      mload(0x40)\n      tag_80\n      swap2\n      swap1\n      tag_39\n      jump\t// in\n    tag_80:\n      swap1\n      dup2\n      mstore\n      0x20\n      add\n      mload(0x40)\n      dup1\n      swap2\n      sub\n      swap1\n      keccak256\n      0x00\n        /* \"solidity_test/test8.sol\":3816:3849  vote[msg.sender][_subject] = true */\n      0x0100\n      exp\n      dup2\n      sload\n      dup2\n      0xff\n      mul\n      not\n      and\n      swap1\n      dup4\n      iszero\n      iszero\n      mul\n      or\n      swap1\n      sstore\n      pop\n        /* \"solidity_test/test8.sol\":3629:3861  if(_vote == true) {... */\n    tag_77:\n        /* \"solidity_test/test8.sol\":3487:3868  function voting(string memory _subject, bool _vote) public {... */\n      pop\n      pop\n      jump\t// out\n        /* \"solidity_test/test8.sol\":2132:2234  function setUser(string memory _name) public {... */\n    tag_30:\n        /* \"solidity_test/test8.sol\":2203:2226  user(_name, msg.sender) */\n      mload(0x40)\n      dup1\n      0x40\n      add\n      0x40\n      mstore\n      dup1\n        /* \"solidity_test/test8.sol\":2208:2213  _name */\n      dup3\n        /* \"solidity_test/test8.sol\":2203:2226  user(_name, msg.sender) */\n      dup2\n      mstore\n      0x20\n      add\n        /* \"solidity_test/test8.sol\":2215:2225  msg.sender */\n      caller\n        /* \"solidity_test/test8.sol\":2203:2226  user(_name, msg.sender) */\n      0xffffffffffffffffffffffffffffffffffffffff\n      and\n      dup2\n      mstore\n      pop\n        /* \"solidity_test/test8.sol\":2188:2193  users */\n      0x02\n        /* \"solidity_test/test8.sol\":2194:2199  _name */\n      dup3\n        /* \"solidity_test/test8.sol\":2188:2200  users[_name] */\n      mload(0x40)\n      tag_82\n      swap2\n      swap1\n      tag_39\n      jump\t// in\n    tag_82:\n      swap1\n      dup2\n      mstore\n      0x20\n      add\n      mload(0x40)\n      dup1\n      swap2\n      sub\n      swap1\n      keccak256\n        /* \"solidity_test/test8.sol\":2188:2226  users[_name] = user(_name, msg.sender) */\n      0x00\n      dup3\n      add\n      mload\n      dup2\n      0x00\n      add\n      swap1\n      dup2\n      tag_83\n      swap2\n      swap1\n      tag_63\n      jump\t// in\n    tag_83:\n      pop\n      0x20\n      dup3\n      add\n      mload\n      dup2\n      0x01\n      add\n      exp(0x0100, 0x00)\n      dup2\n      sload\n      dup2\n      0xffffffffffffffffffffffffffffffffffffffff\n      mul\n      not\n      and\n      swap1\n      dup4\n      0xffffffffffffffffffffffffffffffffffffffff\n      and\n      mul\n      or\n      swap1\n      sstore\n      pop\n      swap1\n      pop\n      pop\n        /* \"solidity_test/test8.sol\":2132:2234  function setUser(string memory _name) public {... */\n      pop\n      jump\t// out\n        /* \"solidity_test/test8.sol\":3114:3310  function getTopics() public view returns(topic[] memory) {... */\n    tag_32:\n        /* \"solidity_test/test8.sol\":3155:3169  topic[] memory */\n      0x60\n        /* \"solidity_test/test8.sol\":3182:3207  topic[] memory topicArray */\n      0x00\n        /* \"solidity_test/test8.sol\":3222:3230  topicNum */\n      sload(0x03)\n        /* \"solidity_test/test8.sol\":3210:3231  new topic[](topicNum) */\n      0xffffffffffffffff\n      dup2\n      gt\n      iszero\n      tag_85\n      jumpi\n      tag_86\n      tag_87\n      jump\t// in\n    tag_86:\n    tag_85:\n      mload(0x40)\n      swap1\n      dup1\n      dup3\n      mstore\n      dup1\n      0x20\n      mul\n      0x20\n      add\n      dup3\n      add\n      0x40\n      mstore\n      dup1\n      iszero\n      tag_88\n      jumpi\n      dup2\n      0x20\n      add\n    tag_89:\n      tag_90\n      tag_47\n      jump\t// in\n    tag_90:\n      dup2\n      mstore\n      0x20\n      add\n      swap1\n      0x01\n      swap1\n      sub\n      swap1\n      dup2\n      tag_89\n      jumpi\n      swap1\n      pop\n    tag_88:\n      pop\n        /* \"solidity_test/test8.sol\":3182:3231  topic[] memory topicArray = new topic[](topicNum) */\n      swap1\n      pop\n        /* \"solidity_test/test8.sol\":3247:3253  uint i */\n      0x00\n        /* \"solidity_test/test8.sol\":3242:3303  for (uint i = 0; i < topicNum; i++){... */\n    tag_91:\n        /* \"solidity_test/test8.sol\":3263:3271  topicNum */\n      sload(0x03)\n        /* \"solidity_test/test8.sol\":3259:3260  i */\n      dup2\n        /* \"solidity_test/test8.sol\":3259:3271  i < topicNum */\n      lt\n        /* \"solidity_test/test8.sol\":3242:3303  for (uint i = 0; i < topicNum; i++){... */\n      iszero\n      tag_92\n      jumpi\n        /* \"solidity_test/test8.sol\":3273:3276  i++ */\n      dup1\n      dup1\n      0x01\n      add\n      swap2\n      pop\n      pop\n        /* \"solidity_test/test8.sol\":3242:3303  for (uint i = 0; i < topicNum; i++){... */\n      jump(tag_91)\n    tag_92:\n      pop\n        /* \"solidity_test/test8.sol\":3171:3310  {... */\n      pop\n        /* \"solidity_test/test8.sol\":3114:3310  function getTopics() public view returns(topic[] memory) {... */\n      swap1\n      jump\t// out\n    tag_36:\n      mload(0x40)\n      dup1\n      0x40\n      add\n      0x40\n      mstore\n      dup1\n      0x60\n      dup2\n      mstore\n      0x20\n      add\n      and(0xffffffffffffffffffffffffffffffffffffffff, 0x00)\n      dup2\n      mstore\n      pop\n      swap1\n      jump\t// out\n    tag_47:\n      mload(0x40)\n      dup1\n      0xc0\n      add\n      0x40\n      mstore\n      dup1\n      0x00\n      dup2\n      mstore\n      0x20\n      add\n      0x60\n      dup2\n      mstore\n      0x20\n      add\n      0x60\n      dup2\n      mstore\n      0x20\n      add\n      and(0xffffffffffffffffffffffffffffffffffffffff, 0x00)\n      dup2\n      mstore\n      0x20\n      add\n      0x00\n      dup2\n      mstore\n      0x20\n      add\n      0x00\n      dup2\n      mstore\n      pop\n      swap1\n      jump\t// out\n        /* \"#utility.yul\":7:82   */\n    tag_94:\n        /* \"#utility.yul\":40:46   */\n      0x00\n        /* \"#utility.yul\":73:75   */\n      0x40\n        /* \"#utility.yul\":67:76   */\n      mload\n        /* \"#utility.yul\":57:76   */\n      swap1\n      pop\n        /* \"#utility.yul\":7:82   */\n      swap1\n      jump\t// out\n        /* \"#utility.yul\":88:205   */\n    tag_95:\n        /* \"#utility.yul\":197:198   */\n      0x00\n        /* \"#utility.yul\":194:195   */\n      dup1\n        /* \"#utility.yul\":187:199   */\n      revert\n        /* \"#utility.yul\":211:328   */\n    tag_96:\n        /* \"#utility.yul\":320:321   */\n      0x00\n        /* \"#utility.yul\":317:318   */\n      dup1\n        /* \"#utility.yul\":310:322   */\n      revert\n        /* \"#utility.yul\":334:451   */\n    tag_97:\n        /* \"#utility.yul\":443:444   */\n      0x00\n        /* \"#utility.yul\":440:441   */\n      dup1\n        /* \"#utility.yul\":433:445   */\n      revert\n        /* \"#utility.yul\":457:574   */\n    tag_98:\n        /* \"#utility.yul\":566:567   */\n      0x00\n        /* \"#utility.yul\":563:564   */\n      dup1\n        /* \"#utility.yul\":556:568   */\n      revert\n        /* \"#utility.yul\":580:682   */\n    tag_99:\n        /* \"#utility.yul\":621:627   */\n      0x00\n        /* \"#utility.yul\":672:674   */\n      0x1f\n        /* \"#utility.yul\":668:675   */\n      not\n        /* \"#utility.yul\":663:665   */\n      0x1f\n        /* \"#utility.yul\":656:661   */\n      dup4\n        /* \"#utility.yul\":652:666   */\n      add\n        /* \"#utility.yul\":648:676   */\n      and\n        /* \"#utility.yul\":638:676   */\n      swap1\n      pop\n        /* \"#utility.yul\":580:682   */\n      swap2\n      swap1\n      pop\n      jump\t// out\n        /* \"#utility.yul\":688:868   */\n    tag_87:\n        /* \"#utility.yul\":736:813   */\n      0x4e487b7100000000000000000000000000000000000000000000000000000000\n        /* \"#utility.yul\":733:734   */\n      0x00\n        /* \"#utility.yul\":726:814   */\n      mstore\n        /* \"#utility.yul\":833:837   */\n      0x41\n        /* \"#utility.yul\":830:831   */\n      0x04\n        /* \"#utility.yul\":823:838   */\n      mstore\n        /* \"#utility.yul\":857:861   */\n      0x24\n        /* \"#utility.yul\":854:855   */\n      0x00\n        /* \"#utility.yul\":847:862   */\n      revert\n        /* \"#utility.yul\":874:1155   */\n    tag_100:\n        /* \"#utility.yul\":957:984   */\n      tag_158\n        /* \"#utility.yul\":979:983   */\n      dup3\n        /* \"#utility.yul\":957:984   */\n      tag_99\n      jump\t// in\n    tag_158:\n        /* \"#utility.yul\":949:955   */\n      dup2\n        /* \"#utility.yul\":945:985   */\n      add\n        /* \"#utility.yul\":1087:1093   */\n      dup2\n        /* \"#utility.yul\":1075:1085   */\n      dup2\n        /* \"#utility.yul\":1072:1094   */\n      lt\n        /* \"#utility.yul\":1051:1069   */\n      0xffffffffffffffff\n        /* \"#utility.yul\":1039:1049   */\n      dup3\n        /* \"#utility.yul\":1036:1070   */\n      gt\n        /* \"#utility.yul\":1033:1095   */\n      or\n        /* \"#utility.yul\":1030:1118   */\n      iszero\n      tag_159\n      jumpi\n        /* \"#utility.yul\":1098:1116   */\n      tag_160\n      tag_87\n      jump\t// in\n    tag_160:\n        /* \"#utility.yul\":1030:1118   */\n    tag_159:\n        /* \"#utility.yul\":1138:1148   */\n      dup1\n        /* \"#utility.yul\":1134:1136   */\n      0x40\n        /* \"#utility.yul\":1127:1149   */\n      mstore\n        /* \"#utility.yul\":917:1155   */\n      pop\n        /* \"#utility.yul\":874:1155   */\n      pop\n      pop\n      jump\t// out\n        /* \"#utility.yul\":1161:1290   */\n    tag_101:\n        /* \"#utility.yul\":1195:1201   */\n      0x00\n        /* \"#utility.yul\":1222:1242   */\n      tag_162\n      tag_94\n      jump\t// in\n    tag_162:\n        /* \"#utility.yul\":1212:1242   */\n      swap1\n      pop\n        /* \"#utility.yul\":1251:1284   */\n      tag_163\n        /* \"#utility.yul\":1279:1283   */\n      dup3\n        /* \"#utility.yul\":1271:1277   */\n      dup3\n        /* \"#utility.yul\":1251:1284   */\n      tag_100\n      jump\t// in\n    tag_163:\n        /* \"#utility.yul\":1161:1290   */\n      swap2\n      swap1\n      pop\n      jump\t// out\n        /* \"#utility.yul\":1296:1604   */\n    tag_102:\n        /* \"#utility.yul\":1358:1362   */\n      0x00\n        /* \"#utility.yul\":1448:1466   */\n      0xffffffffffffffff\n        /* \"#utility.yul\":1440:1446   */\n      dup3\n        /* \"#utility.yul\":1437:1467   */\n      gt\n        /* \"#utility.yul\":1434:1490   */\n      iszero\n      tag_165\n      jumpi\n        /* \"#utility.yul\":1470:1488   */\n      tag_166\n      tag_87\n      jump\t// in\n    tag_166:\n        /* \"#utility.yul\":1434:1490   */\n    tag_165:\n        /* \"#utility.yul\":1508:1537   */\n      tag_167\n        /* \"#utility.yul\":1530:1536   */\n      dup3\n        /* \"#utility.yul\":1508:1537   */\n      tag_99\n      jump\t// in\n    tag_167:\n        /* \"#utility.yul\":1500:1537   */\n      swap1\n      pop\n        /* \"#utility.yul\":1592:1596   */\n      0x20\n        /* \"#utility.yul\":1586:1590   */\n      dup2\n        /* \"#utility.yul\":1582:1597   */\n      add\n        /* \"#utility.yul\":1574:1597   */\n      swap1\n      pop\n        /* \"#utility.yul\":1296:1604   */\n      swap2\n      swap1\n      pop\n      jump\t// out\n        /* \"#utility.yul\":1610:1758   */\n    tag_103:\n        /* \"#utility.yul\":1708:1714   */\n      dup3\n        /* \"#utility.yul\":1703:1706   */\n      dup2\n        /* \"#utility.yul\":1698:1701   */\n      dup4\n        /* \"#utility.yul\":1685:1715   */\n      calldatacopy\n        /* \"#utility.yul\":1749:1750   */\n      0x00\n        /* \"#utility.yul\":1740:1746   */\n      dup4\n        /* \"#utility.yul\":1735:1738   */\n      dup4\n        /* \"#utility.yul\":1731:1747   */\n      add\n        /* \"#utility.yul\":1724:1751   */\n      mstore\n        /* \"#utility.yul\":1610:1758   */\n      pop\n      pop\n      pop\n      jump\t// out\n        /* \"#utility.yul\":1764:2189   */\n    tag_104:\n        /* \"#utility.yul\":1842:1847   */\n      0x00\n        /* \"#utility.yul\":1867:1933   */\n      tag_170\n        /* \"#utility.yul\":1883:1932   */\n      tag_171\n        /* \"#utility.yul\":1925:1931   */\n      dup5\n        /* \"#utility.yul\":1883:1932   */\n      tag_102\n      jump\t// in\n    tag_171:\n        /* \"#utility.yul\":1867:1933   */\n      tag_101\n      jump\t// in\n    tag_170:\n        /* \"#utility.yul\":1858:1933   */\n      swap1\n      pop\n        /* \"#utility.yul\":1956:1962   */\n      dup3\n        /* \"#utility.yul\":1949:1954   */\n      dup2\n        /* \"#utility.yul\":1942:1963   */\n      mstore\n        /* \"#utility.yul\":1994:1998   */\n      0x20\n        /* \"#utility.yul\":1987:1992   */\n      dup2\n        /* \"#utility.yul\":1983:1999   */\n      add\n        /* \"#utility.yul\":2032:2035   */\n      dup5\n        /* \"#utility.yul\":2023:2029   */\n      dup5\n        /* \"#utility.yul\":2018:2021   */\n      dup5\n        /* \"#utility.yul\":2014:2030   */\n      add\n        /* \"#utility.yul\":2011:2036   */\n      gt\n        /* \"#utility.yul\":2008:2120   */\n      iszero\n      tag_172\n      jumpi\n        /* \"#utility.yul\":2039:2118   */\n      tag_173\n      tag_98\n      jump\t// in\n    tag_173:\n        /* \"#utility.yul\":2008:2120   */\n    tag_172:\n        /* \"#utility.yul\":2129:2183   */\n      tag_174\n        /* \"#utility.yul\":2176:2182   */\n      dup5\n        /* \"#utility.yul\":2171:2174   */\n      dup3\n        /* \"#utility.yul\":2166:2169   */\n      dup6\n        /* \"#utility.yul\":2129:2183   */\n      tag_103\n      jump\t// in\n    tag_174:\n        /* \"#utility.yul\":1848:2189   */\n      pop\n        /* \"#utility.yul\":1764:2189   */\n      swap4\n      swap3\n      pop\n      pop\n      pop\n      jump\t// out\n        /* \"#utility.yul\":2209:2549   */\n    tag_105:\n        /* \"#utility.yul\":2265:2270   */\n      0x00\n        /* \"#utility.yul\":2314:2317   */\n      dup3\n        /* \"#utility.yul\":2307:2311   */\n      0x1f\n        /* \"#utility.yul\":2299:2305   */\n      dup4\n        /* \"#utility.yul\":2295:2312   */\n      add\n        /* \"#utility.yul\":2291:2318   */\n      slt\n        /* \"#utility.yul\":2281:2403   */\n      tag_176\n      jumpi\n        /* \"#utility.yul\":2322:2401   */\n      tag_177\n      tag_97\n      jump\t// in\n    tag_177:\n        /* \"#utility.yul\":2281:2403   */\n    tag_176:\n        /* \"#utility.yul\":2439:2445   */\n      dup2\n        /* \"#utility.yul\":2426:2446   */\n      calldataload\n        /* \"#utility.yul\":2464:2543   */\n      tag_178\n        /* \"#utility.yul\":2539:2542   */\n      dup5\n        /* \"#utility.yul\":2531:2537   */\n      dup3\n        /* \"#utility.yul\":2524:2528   */\n      0x20\n        /* \"#utility.yul\":2516:2522   */\n      dup7\n        /* \"#utility.yul\":2512:2529   */\n      add\n        /* \"#utility.yul\":2464:2543   */\n      tag_104\n      jump\t// in\n    tag_178:\n        /* \"#utility.yul\":2455:2543   */\n      swap2\n      pop\n        /* \"#utility.yul\":2271:2549   */\n      pop\n        /* \"#utility.yul\":2209:2549   */\n      swap3\n      swap2\n      pop\n      pop\n      jump\t// out\n        /* \"#utility.yul\":2555:3064   */\n    tag_11:\n        /* \"#utility.yul\":2624:2630   */\n      0x00\n        /* \"#utility.yul\":2673:2675   */\n      0x20\n        /* \"#utility.yul\":2661:2670   */\n      dup3\n        /* \"#utility.yul\":2652:2659   */\n      dup5\n        /* \"#utility.yul\":2648:2671   */\n      sub\n        /* \"#utility.yul\":2644:2676   */\n      slt\n        /* \"#utility.yul\":2641:2760   */\n      iszero\n      tag_180\n      jumpi\n        /* \"#utility.yul\":2679:2758   */\n      tag_181\n      tag_95\n      jump\t// in\n    tag_181:\n        /* \"#utility.yul\":2641:2760   */\n    tag_180:\n        /* \"#utility.yul\":2827:2828   */\n      0x00\n        /* \"#utility.yul\":2816:2825   */\n      dup3\n        /* \"#utility.yul\":2812:2829   */\n      add\n        /* \"#utility.yul\":2799:2830   */\n      calldataload\n        /* \"#utility.yul\":2857:2875   */\n      0xffffffffffffffff\n        /* \"#utility.yul\":2849:2855   */\n      dup2\n        /* \"#utility.yul\":2846:2876   */\n      gt\n        /* \"#utility.yul\":2843:2960   */\n      iszero\n      tag_182\n      jumpi\n        /* \"#utility.yul\":2879:2958   */\n      tag_183\n      tag_96\n      jump\t// in\n    tag_183:\n        /* \"#utility.yul\":2843:2960   */\n    tag_182:\n        /* \"#utility.yul\":2984:3047   */\n      tag_184\n        /* \"#utility.yul\":3039:3046   */\n      dup5\n        /* \"#utility.yul\":3030:3036   */\n      dup3\n        /* \"#utility.yul\":3019:3028   */\n      dup6\n        /* \"#utility.yul\":3015:3037   */\n      add\n        /* \"#utility.yul\":2984:3047   */\n      tag_105\n      jump\t// in\n    tag_184:\n        /* \"#utility.yul\":2974:3047   */\n      swap2\n      pop\n        /* \"#utility.yul\":2770:3057   */\n      pop\n        /* \"#utility.yul\":2555:3064   */\n      swap3\n      swap2\n      pop\n      pop\n      jump\t// out\n        /* \"#utility.yul\":3070:3169   */\n    tag_106:\n        /* \"#utility.yul\":3122:3128   */\n      0x00\n        /* \"#utility.yul\":3156:3161   */\n      dup2\n        /* \"#utility.yul\":3150:3162   */\n      mload\n        /* \"#utility.yul\":3140:3162   */\n      swap1\n      pop\n        /* \"#utility.yul\":3070:3169   */\n      swap2\n      swap1\n      pop\n      jump\t// out\n        /* \"#utility.yul\":3175:3334   */\n    tag_107:\n        /* \"#utility.yul\":3249:3260   */\n      0x00\n        /* \"#utility.yul\":3283:3289   */\n      dup3\n        /* \"#utility.yul\":3278:3281   */\n      dup3\n        /* \"#utility.yul\":3271:3290   */\n      mstore\n        /* \"#utility.yul\":3323:3327   */\n      0x20\n        /* \"#utility.yul\":3318:3321   */\n      dup3\n        /* \"#utility.yul\":3314:3328   */\n      add\n        /* \"#utility.yul\":3299:3328   */\n      swap1\n      pop\n        /* \"#utility.yul\":3175:3334   */\n      swap3\n      swap2\n      pop\n      pop\n      jump\t// out\n        /* \"#utility.yul\":3340:3479   */\n    tag_108:\n        /* \"#utility.yul\":3429:3435   */\n      dup3\n        /* \"#utility.yul\":3424:3427   */\n      dup2\n        /* \"#utility.yul\":3419:3422   */\n      dup4\n        /* \"#utility.yul\":3413:3436   */\n      mcopy\n        /* \"#utility.yul\":3470:3471   */\n      0x00\n        /* \"#utility.yul\":3461:3467   */\n      dup4\n        /* \"#utility.yul\":3456:3459   */\n      dup4\n        /* \"#utility.yul\":3452:3468   */\n      add\n        /* \"#utility.yul\":3445:3472   */\n      mstore\n        /* \"#utility.yul\":3340:3479   */\n      pop\n      pop\n      pop\n      jump\t// out\n        /* \"#utility.yul\":3485:3842   */\n    tag_109:\n        /* \"#utility.yul\":3563:3566   */\n      0x00\n        /* \"#utility.yul\":3591:3630   */\n      tag_189\n        /* \"#utility.yul\":3624:3629   */\n      dup3\n        /* \"#utility.yul\":3591:3630   */\n      tag_106\n      jump\t// in\n    tag_189:\n        /* \"#utility.yul\":3646:3707   */\n      tag_190\n        /* \"#utility.yul\":3700:3706   */\n      dup2\n        /* \"#utility.yul\":3695:3698   */\n      dup6\n        /* \"#utility.yul\":3646:3707   */\n      tag_107\n      jump\t// in\n    tag_190:\n        /* \"#utility.yul\":3639:3707   */\n      swap4\n      pop\n        /* \"#utility.yul\":3716:3781   */\n      tag_191\n        /* \"#utility.yul\":3774:3780   */\n      dup2\n        /* \"#utility.yul\":3769:3772   */\n      dup6\n        /* \"#utility.yul\":3762:3766   */\n      0x20\n        /* \"#utility.yul\":3755:3760   */\n      dup7\n        /* \"#utility.yul\":3751:3767   */\n      add\n        /* \"#utility.yul\":3716:3781   */\n      tag_108\n      jump\t// in\n    tag_191:\n        /* \"#utility.yul\":3806:3835   */\n      tag_192\n        /* \"#utility.yul\":3828:3834   */\n      dup2\n        /* \"#utility.yul\":3806:3835   */\n      tag_99\n      jump\t// in\n    tag_192:\n        /* \"#utility.yul\":3801:3804   */\n      dup5\n        /* \"#utility.yul\":3797:3836   */\n      add\n        /* \"#utility.yul\":3790:3836   */\n      swap2\n      pop\n        /* \"#utility.yul\":3567:3842   */\n      pop\n        /* \"#utility.yul\":3485:3842   */\n      swap3\n      swap2\n      pop\n      pop\n      jump\t// out\n        /* \"#utility.yul\":3848:3974   */\n    tag_110:\n        /* \"#utility.yul\":3885:3892   */\n      0x00\n        /* \"#utility.yul\":3925:3967   */\n      0xffffffffffffffffffffffffffffffffffffffff\n        /* \"#utility.yul\":3918:3923   */\n      dup3\n        /* \"#utility.yul\":3914:3968   */\n      and\n        /* \"#utility.yul\":3903:3968   */\n      swap1\n      pop\n        /* \"#utility.yul\":3848:3974   */\n      swap2\n      swap1\n      pop\n      jump\t// out\n        /* \"#utility.yul\":3980:4076   */\n    tag_111:\n        /* \"#utility.yul\":4017:4024   */\n      0x00\n        /* \"#utility.yul\":4046:4070   */\n      tag_195\n        /* \"#utility.yul\":4064:4069   */\n      dup3\n        /* \"#utility.yul\":4046:4070   */\n      tag_110\n      jump\t// in\n    tag_195:\n        /* \"#utility.yul\":4035:4070   */\n      swap1\n      pop\n        /* \"#utility.yul\":3980:4076   */\n      swap2\n      swap1\n      pop\n      jump\t// out\n        /* \"#utility.yul\":4082:4190   */\n    tag_112:\n        /* \"#utility.yul\":4159:4183   */\n      tag_197\n        /* \"#utility.yul\":4177:4182   */\n      dup2\n        /* \"#utility.yul\":4159:4183   */\n      tag_111\n      jump\t// in\n    tag_197:\n        /* \"#utility.yul\":4154:4157   */\n      dup3\n        /* \"#utility.yul\":4147:4184   */\n      mstore\n        /* \"#utility.yul\":4082:4190   */\n      pop\n      pop\n      jump\t// out\n        /* \"#utility.yul\":4234:4832   */\n    tag_113:\n        /* \"#utility.yul\":4343:4346   */\n      0x00\n        /* \"#utility.yul\":4379:4383   */\n      0x40\n        /* \"#utility.yul\":4374:4377   */\n      dup4\n        /* \"#utility.yul\":4370:4384   */\n      add\n        /* \"#utility.yul\":4466:4470   */\n      0x00\n        /* \"#utility.yul\":4459:4464   */\n      dup4\n        /* \"#utility.yul\":4455:4471   */\n      add\n        /* \"#utility.yul\":4449:4472   */\n      mload\n        /* \"#utility.yul\":4519:4522   */\n      dup5\n        /* \"#utility.yul\":4513:4517   */\n      dup3\n        /* \"#utility.yul\":4509:4523   */\n      sub\n        /* \"#utility.yul\":4502:4506   */\n      0x00\n        /* \"#utility.yul\":4497:4500   */\n      dup7\n        /* \"#utility.yul\":4493:4507   */\n      add\n        /* \"#utility.yul\":4486:4524   */\n      mstore\n        /* \"#utility.yul\":4545:4618   */\n      tag_199\n        /* \"#utility.yul\":4613:4617   */\n      dup3\n        /* \"#utility.yul\":4599:4611   */\n      dup3\n        /* \"#utility.yul\":4545:4618   */\n      tag_109\n      jump\t// in\n    tag_199:\n        /* \"#utility.yul\":4537:4618   */\n      swap2\n      pop\n        /* \"#utility.yul\":4394:4629   */\n      pop\n        /* \"#utility.yul\":4713:4717   */\n      0x20\n        /* \"#utility.yul\":4706:4711   */\n      dup4\n        /* \"#utility.yul\":4702:4718   */\n      add\n        /* \"#utility.yul\":4696:4719   */\n      mload\n        /* \"#utility.yul\":4732:4795   */\n      tag_200\n        /* \"#utility.yul\":4789:4793   */\n      0x20\n        /* \"#utility.yul\":4784:4787   */\n      dup7\n        /* \"#utility.yul\":4780:4794   */\n      add\n        /* \"#utility.yul\":4766:4778   */\n      dup3\n        /* \"#utility.yul\":4732:4795   */\n      tag_112\n      jump\t// in\n    tag_200:\n        /* \"#utility.yul\":4639:4805   */\n      pop\n        /* \"#utility.yul\":4822:4826   */\n      dup1\n        /* \"#utility.yul\":4815:4826   */\n      swap2\n      pop\n        /* \"#utility.yul\":4348:4832   */\n      pop\n        /* \"#utility.yul\":4234:4832   */\n      swap3\n      swap2\n      pop\n      pop\n      jump\t// out\n        /* \"#utility.yul\":4838:5191   */\n    tag_14:\n        /* \"#utility.yul\":4971:4975   */\n      0x00\n        /* \"#utility.yul\":5009:5011   */\n      0x20\n        /* \"#utility.yul\":4998:5007   */\n      dup3\n        /* \"#utility.yul\":4994:5012   */\n      add\n        /* \"#utility.yul\":4986:5012   */\n      swap1\n      pop\n        /* \"#utility.yul\":5058:5067   */\n      dup2\n        /* \"#utility.yul\":5052:5056   */\n      dup2\n        /* \"#utility.yul\":5048:5068   */\n      sub\n        /* \"#utility.yul\":5044:5045   */\n      0x00\n        /* \"#utility.yul\":5033:5042   */\n      dup4\n        /* \"#utility.yul\":5029:5046   */\n      add\n        /* \"#utility.yul\":5022:5069   */\n      mstore\n        /* \"#utility.yul\":5086:5184   */\n      tag_202\n        /* \"#utility.yul\":5179:5183   */\n      dup2\n        /* \"#utility.yul\":5170:5176   */\n      dup5\n        /* \"#utility.yul\":5086:5184   */\n      tag_113\n      jump\t// in\n    tag_202:\n        /* \"#utility.yul\":5078:5184   */\n      swap1\n      pop\n        /* \"#utility.yul\":4838:5191   */\n      swap3\n      swap2\n      pop\n      pop\n      jump\t// out\n        /* \"#utility.yul\":5197:5274   */\n    tag_114:\n        /* \"#utility.yul\":5234:5241   */\n      0x00\n        /* \"#utility.yul\":5263:5268   */\n      dup2\n        /* \"#utility.yul\":5252:5268   */\n      swap1\n      pop\n        /* \"#utility.yul\":5197:5274   */\n      swap2\n      swap1\n      pop\n      jump\t// out\n        /* \"#utility.yul\":5280:5388   */\n    tag_115:\n        /* \"#utility.yul\":5357:5381   */\n      tag_205\n        /* \"#utility.yul\":5375:5380   */\n      dup2\n        /* \"#utility.yul\":5357:5381   */\n      tag_114\n      jump\t// in\n    tag_205:\n        /* \"#utility.yul\":5352:5355   */\n      dup3\n        /* \"#utility.yul\":5345:5382   */\n      mstore\n        /* \"#utility.yul\":5280:5388   */\n      pop\n      pop\n      jump\t// out\n        /* \"#utility.yul\":5434:6817   */\n    tag_116:\n        /* \"#utility.yul\":5545:5548   */\n      0x00\n        /* \"#utility.yul\":5581:5585   */\n      0xc0\n        /* \"#utility.yul\":5576:5579   */\n      dup4\n        /* \"#utility.yul\":5572:5586   */\n      add\n        /* \"#utility.yul\":5670:5674   */\n      0x00\n        /* \"#utility.yul\":5663:5668   */\n      dup4\n        /* \"#utility.yul\":5659:5675   */\n      add\n        /* \"#utility.yul\":5653:5676   */\n      mload\n        /* \"#utility.yul\":5689:5752   */\n      tag_207\n        /* \"#utility.yul\":5746:5750   */\n      0x00\n        /* \"#utility.yul\":5741:5744   */\n      dup7\n        /* \"#utility.yul\":5737:5751   */\n      add\n        /* \"#utility.yul\":5723:5735   */\n      dup3\n        /* \"#utility.yul\":5689:5752   */\n      tag_115\n      jump\t// in\n    tag_207:\n        /* \"#utility.yul\":5596:5762   */\n      pop\n        /* \"#utility.yul\":5847:5851   */\n      0x20\n        /* \"#utility.yul\":5840:5845   */\n      dup4\n        /* \"#utility.yul\":5836:5852   */\n      add\n        /* \"#utility.yul\":5830:5853   */\n      mload\n        /* \"#utility.yul\":5900:5903   */\n      dup5\n        /* \"#utility.yul\":5894:5898   */\n      dup3\n        /* \"#utility.yul\":5890:5904   */\n      sub\n        /* \"#utility.yul\":5883:5887   */\n      0x20\n        /* \"#utility.yul\":5878:5881   */\n      dup7\n        /* \"#utility.yul\":5874:5888   */\n      add\n        /* \"#utility.yul\":5867:5905   */\n      mstore\n        /* \"#utility.yul\":5926:5999   */\n      tag_208\n        /* \"#utility.yul\":5994:5998   */\n      dup3\n        /* \"#utility.yul\":5980:5992   */\n      dup3\n        /* \"#utility.yul\":5926:5999   */\n      tag_109\n      jump\t// in\n    tag_208:\n        /* \"#utility.yul\":5918:5999   */\n      swap2\n      pop\n        /* \"#utility.yul\":5772:6010   */\n      pop\n        /* \"#utility.yul\":6095:6099   */\n      0x40\n        /* \"#utility.yul\":6088:6093   */\n      dup4\n        /* \"#utility.yul\":6084:6100   */\n      add\n        /* \"#utility.yul\":6078:6101   */\n      mload\n        /* \"#utility.yul\":6148:6151   */\n      dup5\n        /* \"#utility.yul\":6142:6146   */\n      dup3\n        /* \"#utility.yul\":6138:6152   */\n      sub\n        /* \"#utility.yul\":6131:6135   */\n      0x40\n        /* \"#utility.yul\":6126:6129   */\n      dup7\n        /* \"#utility.yul\":6122:6136   */\n      add\n        /* \"#utility.yul\":6115:6153   */\n      mstore\n        /* \"#utility.yul\":6174:6247   */\n      tag_209\n        /* \"#utility.yul\":6242:6246   */\n      dup3\n        /* \"#utility.yul\":6228:6240   */\n      dup3\n        /* \"#utility.yul\":6174:6247   */\n      tag_109\n      jump\t// in\n    tag_209:\n        /* \"#utility.yul\":6166:6247   */\n      swap2\n      pop\n        /* \"#utility.yul\":6020:6258   */\n      pop\n        /* \"#utility.yul\":6344:6348   */\n      0x60\n        /* \"#utility.yul\":6337:6342   */\n      dup4\n        /* \"#utility.yul\":6333:6349   */\n      add\n        /* \"#utility.yul\":6327:6350   */\n      mload\n        /* \"#utility.yul\":6363:6426   */\n      tag_210\n        /* \"#utility.yul\":6420:6424   */\n      0x60\n        /* \"#utility.yul\":6415:6418   */\n      dup7\n        /* \"#utility.yul\":6411:6425   */\n      add\n        /* \"#utility.yul\":6397:6409   */\n      dup3\n        /* \"#utility.yul\":6363:6426   */\n      tag_112\n      jump\t// in\n    tag_210:\n        /* \"#utility.yul\":6268:6436   */\n      pop\n        /* \"#utility.yul\":6520:6524   */\n      0x80\n        /* \"#utility.yul\":6513:6518   */\n      dup4\n        /* \"#utility.yul\":6509:6525   */\n      add\n        /* \"#utility.yul\":6503:6526   */\n      mload\n        /* \"#utility.yul\":6539:6602   */\n      tag_211\n        /* \"#utility.yul\":6596:6600   */\n      0x80\n        /* \"#utility.yul\":6591:6594   */\n      dup7\n        /* \"#utility.yul\":6587:6601   */\n      add\n        /* \"#utility.yul\":6573:6585   */\n      dup3\n        /* \"#utility.yul\":6539:6602   */\n      tag_115\n      jump\t// in\n    tag_211:\n        /* \"#utility.yul\":6446:6612   */\n      pop\n        /* \"#utility.yul\":6698:6702   */\n      0xa0\n        /* \"#utility.yul\":6691:6696   */\n      dup4\n        /* \"#utility.yul\":6687:6703   */\n      add\n        /* \"#utility.yul\":6681:6704   */\n      mload\n        /* \"#utility.yul\":6717:6780   */\n      tag_212\n        /* \"#utility.yul\":6774:6778   */\n      0xa0\n        /* \"#utility.yul\":6769:6772   */\n      dup7\n        /* \"#utility.yul\":6765:6779   */\n      add\n        /* \"#utility.yul\":6751:6763   */\n      dup3\n        /* \"#utility.yul\":6717:6780   */\n      tag_115\n      jump\t// in\n    tag_212:\n        /* \"#utility.yul\":6622:6790   */\n      pop\n        /* \"#utility.yul\":6807:6811   */\n      dup1\n        /* \"#utility.yul\":6800:6811   */\n      swap2\n      pop\n        /* \"#utility.yul\":5550:6817   */\n      pop\n        /* \"#utility.yul\":5434:6817   */\n      swap3\n      swap2\n      pop\n      pop\n      jump\t// out\n        /* \"#utility.yul\":6823:7180   */\n    tag_19:\n        /* \"#utility.yul\":6958:6962   */\n      0x00\n        /* \"#utility.yul\":6996:6998   */\n      0x20\n        /* \"#utility.yul\":6985:6994   */\n      dup3\n        /* \"#utility.yul\":6981:6999   */\n      add\n        /* \"#utility.yul\":6973:6999   */\n      swap1\n      pop\n        /* \"#utility.yul\":7045:7054   */\n      dup2\n        /* \"#utility.yul\":7039:7043   */\n      dup2\n        /* \"#utility.yul\":7035:7055   */\n      sub\n        /* \"#utility.yul\":7031:7032   */\n      0x00\n        /* \"#utility.yul\":7020:7029   */\n      dup4\n        /* \"#utility.yul\":7016:7033   */\n      add\n        /* \"#utility.yul\":7009:7056   */\n      mstore\n        /* \"#utility.yul\":7073:7173   */\n      tag_214\n        /* \"#utility.yul\":7168:7172   */\n      dup2\n        /* \"#utility.yul\":7159:7165   */\n      dup5\n        /* \"#utility.yul\":7073:7173   */\n      tag_116\n      jump\t// in\n    tag_214:\n        /* \"#utility.yul\":7065:7173   */\n      swap1\n      pop\n        /* \"#utility.yul\":6823:7180   */\n      swap3\n      swap2\n      pop\n      pop\n      jump\t// out\n        /* \"#utility.yul\":7186:8020   */\n    tag_22:\n        /* \"#utility.yul\":7274:7280   */\n      0x00\n        /* \"#utility.yul\":7282:7288   */\n      dup1\n        /* \"#utility.yul\":7331:7333   */\n      0x40\n        /* \"#utility.yul\":7319:7328   */\n      dup4\n        /* \"#utility.yul\":7310:7317   */\n      dup6\n        /* \"#utility.yul\":7306:7329   */\n      sub\n        /* \"#utility.yul\":7302:7334   */\n      slt\n        /* \"#utility.yul\":7299:7418   */\n      iszero\n      tag_216\n      jumpi\n        /* \"#utility.yul\":7337:7416   */\n      tag_217\n      tag_95\n      jump\t// in\n    tag_217:\n        /* \"#utility.yul\":7299:7418   */\n    tag_216:\n        /* \"#utility.yul\":7485:7486   */\n      0x00\n        /* \"#utility.yul\":7474:7483   */\n      dup4\n        /* \"#utility.yul\":7470:7487   */\n      add\n        /* \"#utility.yul\":7457:7488   */\n      calldataload\n        /* \"#utility.yul\":7515:7533   */\n      0xffffffffffffffff\n        /* \"#utility.yul\":7507:7513   */\n      dup2\n        /* \"#utility.yul\":7504:7534   */\n      gt\n        /* \"#utility.yul\":7501:7618   */\n      iszero\n      tag_218\n      jumpi\n        /* \"#utility.yul\":7537:7616   */\n      tag_219\n      tag_96\n      jump\t// in\n    tag_219:\n        /* \"#utility.yul\":7501:7618   */\n    tag_218:\n        /* \"#utility.yul\":7642:7705   */\n      tag_220\n        /* \"#utility.yul\":7697:7704   */\n      dup6\n        /* \"#utility.yul\":7688:7694   */\n      dup3\n        /* \"#utility.yul\":7677:7686   */\n      dup7\n        /* \"#utility.yul\":7673:7695   */\n      add\n        /* \"#utility.yul\":7642:7705   */\n      tag_105\n      jump\t// in\n    tag_220:\n        /* \"#utility.yul\":7632:7705   */\n      swap3\n      pop\n        /* \"#utility.yul\":7428:7715   */\n      pop\n        /* \"#utility.yul\":7782:7784   */\n      0x20\n        /* \"#utility.yul\":7771:7780   */\n      dup4\n        /* \"#utility.yul\":7767:7785   */\n      add\n        /* \"#utility.yul\":7754:7786   */\n      calldataload\n        /* \"#utility.yul\":7813:7831   */\n      0xffffffffffffffff\n        /* \"#utility.yul\":7805:7811   */\n      dup2\n        /* \"#utility.yul\":7802:7832   */\n      gt\n        /* \"#utility.yul\":7799:7916   */\n      iszero\n      tag_221\n      jumpi\n        /* \"#utility.yul\":7835:7914   */\n      tag_222\n      tag_96\n      jump\t// in\n    tag_222:\n        /* \"#utility.yul\":7799:7916   */\n    tag_221:\n        /* \"#utility.yul\":7940:8003   */\n      tag_223\n        /* \"#utility.yul\":7995:8002   */\n      dup6\n        /* \"#utility.yul\":7986:7992   */\n      dup3\n        /* \"#utility.yul\":7975:7984   */\n      dup7\n        /* \"#utility.yul\":7971:7993   */\n      add\n        /* \"#utility.yul\":7940:8003   */\n      tag_105\n      jump\t// in\n    tag_223:\n        /* \"#utility.yul\":7930:8003   */\n      swap2\n      pop\n        /* \"#utility.yul\":7725:8013   */\n      pop\n        /* \"#utility.yul\":7186:8020   */\n      swap3\n      pop\n      swap3\n      swap1\n      pop\n      jump\t// out\n        /* \"#utility.yul\":8026:8116   */\n    tag_117:\n        /* \"#utility.yul\":8060:8067   */\n      0x00\n        /* \"#utility.yul\":8103:8108   */\n      dup2\n        /* \"#utility.yul\":8096:8109   */\n      iszero\n        /* \"#utility.yul\":8089:8110   */\n      iszero\n        /* \"#utility.yul\":8078:8110   */\n      swap1\n      pop\n        /* \"#utility.yul\":8026:8116   */\n      swap2\n      swap1\n      pop\n      jump\t// out\n        /* \"#utility.yul\":8122:8238   */\n    tag_118:\n        /* \"#utility.yul\":8192:8213   */\n      tag_226\n        /* \"#utility.yul\":8207:8212   */\n      dup2\n        /* \"#utility.yul\":8192:8213   */\n      tag_117\n      jump\t// in\n    tag_226:\n        /* \"#utility.yul\":8185:8190   */\n      dup2\n        /* \"#utility.yul\":8182:8214   */\n      eq\n        /* \"#utility.yul\":8172:8232   */\n      tag_227\n      jumpi\n        /* \"#utility.yul\":8228:8229   */\n      0x00\n        /* \"#utility.yul\":8225:8226   */\n      dup1\n        /* \"#utility.yul\":8218:8230   */\n      revert\n        /* \"#utility.yul\":8172:8232   */\n    tag_227:\n        /* \"#utility.yul\":8122:8238   */\n      pop\n      jump\t// out\n        /* \"#utility.yul\":8244:8377   */\n    tag_119:\n        /* \"#utility.yul\":8287:8292   */\n      0x00\n        /* \"#utility.yul\":8325:8331   */\n      dup2\n        /* \"#utility.yul\":8312:8332   */\n      calldataload\n        /* \"#utility.yul\":8303:8332   */\n      swap1\n      pop\n        /* \"#utility.yul\":8341:8371   */\n      tag_229\n        /* \"#utility.yul\":8365:8370   */\n      dup2\n        /* \"#utility.yul\":8341:8371   */\n      tag_118\n      jump\t// in\n    tag_229:\n        /* \"#utility.yul\":8244:8377   */\n      swap3\n      swap2\n      pop\n      pop\n      jump\t// out\n        /* \"#utility.yul\":8383:9031   */\n    tag_26:\n        /* \"#utility.yul\":8458:8464   */\n      0x00\n        /* \"#utility.yul\":8466:8472   */\n      dup1\n        /* \"#utility.yul\":8515:8517   */\n      0x40\n        /* \"#utility.yul\":8503:8512   */\n      dup4\n        /* \"#utility.yul\":8494:8501   */\n      dup6\n        /* \"#utility.yul\":8490:8513   */\n      sub\n        /* \"#utility.yul\":8486:8518   */\n      slt\n        /* \"#utility.yul\":8483:8602   */\n      iszero\n      tag_231\n      jumpi\n        /* \"#utility.yul\":8521:8600   */\n      tag_232\n      tag_95\n      jump\t// in\n    tag_232:\n        /* \"#utility.yul\":8483:8602   */\n    tag_231:\n        /* \"#utility.yul\":8669:8670   */\n      0x00\n        /* \"#utility.yul\":8658:8667   */\n      dup4\n        /* \"#utility.yul\":8654:8671   */\n      add\n        /* \"#utility.yul\":8641:8672   */\n      calldataload\n        /* \"#utility.yul\":8699:8717   */\n      0xffffffffffffffff\n        /* \"#utility.yul\":8691:8697   */\n      dup2\n        /* \"#utility.yul\":8688:8718   */\n      gt\n        /* \"#utility.yul\":8685:8802   */\n      iszero\n      tag_233\n      jumpi\n        /* \"#utility.yul\":8721:8800   */\n      tag_234\n      tag_96\n      jump\t// in\n    tag_234:\n        /* \"#utility.yul\":8685:8802   */\n    tag_233:\n        /* \"#utility.yul\":8826:8889   */\n      tag_235\n        /* \"#utility.yul\":8881:8888   */\n      dup6\n        /* \"#utility.yul\":8872:8878   */\n      dup3\n        /* \"#utility.yul\":8861:8870   */\n      dup7\n        /* \"#utility.yul\":8857:8879   */\n      add\n        /* \"#utility.yul\":8826:8889   */\n      tag_105\n      jump\t// in\n    tag_235:\n        /* \"#utility.yul\":8816:8889   */\n      swap3\n      pop\n        /* \"#utility.yul\":8612:8899   */\n      pop\n        /* \"#utility.yul\":8938:8940   */\n      0x20\n        /* \"#utility.yul\":8964:9014   */\n      tag_236\n        /* \"#utility.yul\":9006:9013   */\n      dup6\n        /* \"#utility.yul\":8997:9003   */\n      dup3\n        /* \"#utility.yul\":8986:8995   */\n      dup7\n        /* \"#utility.yul\":8982:9004   */\n      add\n        /* \"#utility.yul\":8964:9014   */\n      tag_119\n      jump\t// in\n    tag_236:\n        /* \"#utility.yul\":8954:9014   */\n      swap2\n      pop\n        /* \"#utility.yul\":8909:9024   */\n      pop\n        /* \"#utility.yul\":8383:9031   */\n      swap3\n      pop\n      swap3\n      swap1\n      pop\n      jump\t// out\n        /* \"#utility.yul\":9037:9172   */\n    tag_120:\n        /* \"#utility.yul\":9125:9131   */\n      0x00\n        /* \"#utility.yul\":9159:9164   */\n      dup2\n        /* \"#utility.yul\":9153:9165   */\n      mload\n        /* \"#utility.yul\":9143:9165   */\n      swap1\n      pop\n        /* \"#utility.yul\":9037:9172   */\n      swap2\n      swap1\n      pop\n      jump\t// out\n        /* \"#utility.yul\":9178:9383   */\n    tag_121:\n        /* \"#utility.yul\":9298:9309   */\n      0x00\n        /* \"#utility.yul\":9332:9338   */\n      dup3\n        /* \"#utility.yul\":9327:9330   */\n      dup3\n        /* \"#utility.yul\":9320:9339   */\n      mstore\n        /* \"#utility.yul\":9372:9376   */\n      0x20\n        /* \"#utility.yul\":9367:9370   */\n      dup3\n        /* \"#utility.yul\":9363:9377   */\n      add\n        /* \"#utility.yul\":9348:9377   */\n      swap1\n      pop\n        /* \"#utility.yul\":9178:9383   */\n      swap3\n      swap2\n      pop\n      pop\n      jump\t// out\n        /* \"#utility.yul\":9389:9542   */\n    tag_122:\n        /* \"#utility.yul\":9477:9481   */\n      0x00\n        /* \"#utility.yul\":9500:9503   */\n      dup2\n        /* \"#utility.yul\":9492:9503   */\n      swap1\n      pop\n        /* \"#utility.yul\":9530:9534   */\n      0x20\n        /* \"#utility.yul\":9525:9528   */\n      dup3\n        /* \"#utility.yul\":9521:9535   */\n      add\n        /* \"#utility.yul\":9513:9535   */\n      swap1\n      pop\n        /* \"#utility.yul\":9389:9542   */\n      swap2\n      swap1\n      pop\n      jump\t// out\n        /* \"#utility.yul\":9588:10961   */\n    tag_123:\n        /* \"#utility.yul\":9689:9692   */\n      0x00\n        /* \"#utility.yul\":9725:9729   */\n      0xc0\n        /* \"#utility.yul\":9720:9723   */\n      dup4\n        /* \"#utility.yul\":9716:9730   */\n      add\n        /* \"#utility.yul\":9814:9818   */\n      0x00\n        /* \"#utility.yul\":9807:9812   */\n      dup4\n        /* \"#utility.yul\":9803:9819   */\n      add\n        /* \"#utility.yul\":9797:9820   */\n      mload\n        /* \"#utility.yul\":9833:9896   */\n      tag_241\n        /* \"#utility.yul\":9890:9894   */\n      0x00\n        /* \"#utility.yul\":9885:9888   */\n      dup7\n        /* \"#utility.yul\":9881:9895   */\n      add\n        /* \"#utility.yul\":9867:9879   */\n      dup3\n        /* \"#utility.yul\":9833:9896   */\n      tag_115\n      jump\t// in\n    tag_241:\n        /* \"#utility.yul\":9740:9906   */\n      pop\n        /* \"#utility.yul\":9991:9995   */\n      0x20\n        /* \"#utility.yul\":9984:9989   */\n      dup4\n        /* \"#utility.yul\":9980:9996   */\n      add\n        /* \"#utility.yul\":9974:9997   */\n      mload\n        /* \"#utility.yul\":10044:10047   */\n      dup5\n        /* \"#utility.yul\":10038:10042   */\n      dup3\n        /* \"#utility.yul\":10034:10048   */\n      sub\n        /* \"#utility.yul\":10027:10031   */\n      0x20\n        /* \"#utility.yul\":10022:10025   */\n      dup7\n        /* \"#utility.yul\":10018:10032   */\n      add\n        /* \"#utility.yul\":10011:10049   */\n      mstore\n        /* \"#utility.yul\":10070:10143   */\n      tag_242\n        /* \"#utility.yul\":10138:10142   */\n      dup3\n        /* \"#utility.yul\":10124:10136   */\n      dup3\n        /* \"#utility.yul\":10070:10143   */\n      tag_109\n      jump\t// in\n    tag_242:\n        /* \"#utility.yul\":10062:10143   */\n      swap2\n      pop\n        /* \"#utility.yul\":9916:10154   */\n      pop\n        /* \"#utility.yul\":10239:10243   */\n      0x40\n        /* \"#utility.yul\":10232:10237   */\n      dup4\n        /* \"#utility.yul\":10228:10244   */\n      add\n        /* \"#utility.yul\":10222:10245   */\n      mload\n        /* \"#utility.yul\":10292:10295   */\n      dup5\n        /* \"#utility.yul\":10286:10290   */\n      dup3\n        /* \"#utility.yul\":10282:10296   */\n      sub\n        /* \"#utility.yul\":10275:10279   */\n      0x40\n        /* \"#utility.yul\":10270:10273   */\n      dup7\n        /* \"#utility.yul\":10266:10280   */\n      add\n        /* \"#utility.yul\":10259:10297   */\n      mstore\n        /* \"#utility.yul\":10318:10391   */\n      tag_243\n        /* \"#utility.yul\":10386:10390   */\n      dup3\n        /* \"#utility.yul\":10372:10384   */\n      dup3\n        /* \"#utility.yul\":10318:10391   */\n      tag_109\n      jump\t// in\n    tag_243:\n        /* \"#utility.yul\":10310:10391   */\n      swap2\n      pop\n        /* \"#utility.yul\":10164:10402   */\n      pop\n        /* \"#utility.yul\":10488:10492   */\n      0x60\n        /* \"#utility.yul\":10481:10486   */\n      dup4\n        /* \"#utility.yul\":10477:10493   */\n      add\n        /* \"#utility.yul\":10471:10494   */\n      mload\n        /* \"#utility.yul\":10507:10570   */\n      tag_244\n        /* \"#utility.yul\":10564:10568   */\n      0x60\n        /* \"#utility.yul\":10559:10562   */\n      dup7\n        /* \"#utility.yul\":10555:10569   */\n      add\n        /* \"#utility.yul\":10541:10553   */\n      dup3\n        /* \"#utility.yul\":10507:10570   */\n      tag_112\n      jump\t// in\n    tag_244:\n        /* \"#utility.yul\":10412:10580   */\n      pop\n        /* \"#utility.yul\":10664:10668   */\n      0x80\n        /* \"#utility.yul\":10657:10662   */\n      dup4\n        /* \"#utility.yul\":10653:10669   */\n      add\n        /* \"#utility.yul\":10647:10670   */\n      mload\n        /* \"#utility.yul\":10683:10746   */\n      tag_245\n        /* \"#utility.yul\":10740:10744   */\n      0x80\n        /* \"#utility.yul\":10735:10738   */\n      dup7\n        /* \"#utility.yul\":10731:10745   */\n      add\n        /* \"#utility.yul\":10717:10729   */\n      dup3\n        /* \"#utility.yul\":10683:10746   */\n      tag_115\n      jump\t// in\n    tag_245:\n        /* \"#utility.yul\":10590:10756   */\n      pop\n        /* \"#utility.yul\":10842:10846   */\n      0xa0\n        /* \"#utility.yul\":10835:10840   */\n      dup4\n        /* \"#utility.yul\":10831:10847   */\n      add\n        /* \"#utility.yul\":10825:10848   */\n      mload\n        /* \"#utility.yul\":10861:10924   */\n      tag_246\n        /* \"#utility.yul\":10918:10922   */\n      0xa0\n        /* \"#utility.yul\":10913:10916   */\n      dup7\n        /* \"#utility.yul\":10909:10923   */\n      add\n        /* \"#utility.yul\":10895:10907   */\n      dup3\n        /* \"#utility.yul\":10861:10924   */\n      tag_115\n      jump\t// in\n    tag_246:\n        /* \"#utility.yul\":10766:10934   */\n      pop\n        /* \"#utility.yul\":10951:10955   */\n      dup1\n        /* \"#utility.yul\":10944:10955   */\n      swap2\n      pop\n        /* \"#utility.yul\":9694:10961   */\n      pop\n        /* \"#utility.yul\":9588:10961   */\n      swap3\n      swap2\n      pop\n      pop\n      jump\t// out\n        /* \"#utility.yul\":10967:11207   */\n    tag_124:\n        /* \"#utility.yul\":11078:11088   */\n      0x00\n        /* \"#utility.yul\":11113:11201   */\n      tag_248\n        /* \"#utility.yul\":11197:11200   */\n      dup4\n        /* \"#utility.yul\":11189:11195   */\n      dup4\n        /* \"#utility.yul\":11113:11201   */\n      tag_123\n      jump\t// in\n    tag_248:\n        /* \"#utility.yul\":11099:11201   */\n      swap1\n      pop\n        /* \"#utility.yul\":10967:11207   */\n      swap3\n      swap2\n      pop\n      pop\n      jump\t// out\n        /* \"#utility.yul\":11213:11347   */\n    tag_125:\n        /* \"#utility.yul\":11304:11308   */\n      0x00\n        /* \"#utility.yul\":11336:11340   */\n      0x20\n        /* \"#utility.yul\":11331:11334   */\n      dup3\n        /* \"#utility.yul\":11327:11341   */\n      add\n        /* \"#utility.yul\":11319:11341   */\n      swap1\n      pop\n        /* \"#utility.yul\":11213:11347   */\n      swap2\n      swap1\n      pop\n      jump\t// out\n        /* \"#utility.yul\":11397:12476   */\n    tag_126:\n        /* \"#utility.yul\":11558:11561   */\n      0x00\n        /* \"#utility.yul\":11587:11662   */\n      tag_251\n        /* \"#utility.yul\":11656:11661   */\n      dup3\n        /* \"#utility.yul\":11587:11662   */\n      tag_120\n      jump\t// in\n    tag_251:\n        /* \"#utility.yul\":11678:11785   */\n      tag_252\n        /* \"#utility.yul\":11778:11784   */\n      dup2\n        /* \"#utility.yul\":11773:11776   */\n      dup6\n        /* \"#utility.yul\":11678:11785   */\n      tag_121\n      jump\t// in\n    tag_252:\n        /* \"#utility.yul\":11671:11785   */\n      swap4\n      pop\n        /* \"#utility.yul\":11811:11814   */\n      dup4\n        /* \"#utility.yul\":11856:11860   */\n      0x20\n        /* \"#utility.yul\":11848:11854   */\n      dup3\n        /* \"#utility.yul\":11844:11861   */\n      mul\n        /* \"#utility.yul\":11839:11842   */\n      dup6\n        /* \"#utility.yul\":11835:11862   */\n      add\n        /* \"#utility.yul\":11886:11963   */\n      tag_253\n        /* \"#utility.yul\":11957:11962   */\n      dup6\n        /* \"#utility.yul\":11886:11963   */\n      tag_122\n      jump\t// in\n    tag_253:\n        /* \"#utility.yul\":11986:11993   */\n      dup1\n        /* \"#utility.yul\":12017:12018   */\n      0x00\n        /* \"#utility.yul\":12002:12431   */\n    tag_254:\n        /* \"#utility.yul\":12027:12033   */\n      dup6\n        /* \"#utility.yul\":12024:12025   */\n      dup2\n        /* \"#utility.yul\":12021:12034   */\n      lt\n        /* \"#utility.yul\":12002:12431   */\n      iszero\n      tag_256\n      jumpi\n        /* \"#utility.yul\":12098:12107   */\n      dup5\n        /* \"#utility.yul\":12092:12096   */\n      dup5\n        /* \"#utility.yul\":12088:12108   */\n      sub\n        /* \"#utility.yul\":12083:12086   */\n      dup10\n        /* \"#utility.yul\":12076:12109   */\n      mstore\n        /* \"#utility.yul\":12149:12155   */\n      dup2\n        /* \"#utility.yul\":12143:12156   */\n      mload\n        /* \"#utility.yul\":12177:12283   */\n      tag_257\n        /* \"#utility.yul\":12278:12282   */\n      dup6\n        /* \"#utility.yul\":12263:12276   */\n      dup3\n        /* \"#utility.yul\":12177:12283   */\n      tag_124\n      jump\t// in\n    tag_257:\n        /* \"#utility.yul\":12169:12283   */\n      swap5\n      pop\n        /* \"#utility.yul\":12306:12387   */\n      tag_258\n        /* \"#utility.yul\":12380:12386   */\n      dup4\n        /* \"#utility.yul\":12306:12387   */\n      tag_125\n      jump\t// in\n    tag_258:\n        /* \"#utility.yul\":12296:12387   */\n      swap3\n      pop\n        /* \"#utility.yul\":12416:12420   */\n      0x20\n        /* \"#utility.yul\":12411:12414   */\n      dup11\n        /* \"#utility.yul\":12407:12421   */\n      add\n        /* \"#utility.yul\":12400:12421   */\n      swap10\n      pop\n        /* \"#utility.yul\":12062:12431   */\n      pop\n        /* \"#utility.yul\":12049:12050   */\n      0x01\n        /* \"#utility.yul\":12046:12047   */\n      dup2\n        /* \"#utility.yul\":12042:12051   */\n      add\n        /* \"#utility.yul\":12037:12051   */\n      swap1\n      pop\n        /* \"#utility.yul\":12002:12431   */\n      jump(tag_254)\n    tag_256:\n        /* \"#utility.yul\":12006:12020   */\n      pop\n        /* \"#utility.yul\":12447:12451   */\n      dup3\n        /* \"#utility.yul\":12440:12451   */\n      swap8\n      pop\n        /* \"#utility.yul\":12467:12470   */\n      dup8\n        /* \"#utility.yul\":12460:12470   */\n      swap6\n      pop\n        /* \"#utility.yul\":11563:12476   */\n      pop\n      pop\n      pop\n      pop\n      pop\n        /* \"#utility.yul\":11397:12476   */\n      swap3\n      swap2\n      pop\n      pop\n      jump\t// out\n        /* \"#utility.yul\":12482:12939   */\n    tag_34:\n        /* \"#utility.yul\":12667:12671   */\n      0x00\n        /* \"#utility.yul\":12705:12707   */\n      0x20\n        /* \"#utility.yul\":12694:12703   */\n      dup3\n        /* \"#utility.yul\":12690:12708   */\n      add\n        /* \"#utility.yul\":12682:12708   */\n      swap1\n      pop\n        /* \"#utility.yul\":12754:12763   */\n      dup2\n        /* \"#utility.yul\":12748:12752   */\n      dup2\n        /* \"#utility.yul\":12744:12764   */\n      sub\n        /* \"#utility.yul\":12740:12741   */\n      0x00\n        /* \"#utility.yul\":12729:12738   */\n      dup4\n        /* \"#utility.yul\":12725:12742   */\n      add\n        /* \"#utility.yul\":12718:12765   */\n      mstore\n        /* \"#utility.yul\":12782:12932   */\n      tag_260\n        /* \"#utility.yul\":12927:12931   */\n      dup2\n        /* \"#utility.yul\":12918:12924   */\n      dup5\n        /* \"#utility.yul\":12782:12932   */\n      tag_126\n      jump\t// in\n    tag_260:\n        /* \"#utility.yul\":12774:12932   */\n      swap1\n      pop\n        /* \"#utility.yul\":12482:12939   */\n      swap3\n      swap2\n      pop\n      pop\n      jump\t// out\n        /* \"#utility.yul\":12945:13093   */\n    tag_127:\n        /* \"#utility.yul\":13047:13058   */\n      0x00\n        /* \"#utility.yul\":13084:13087   */\n      dup2\n        /* \"#utility.yul\":13069:13087   */\n      swap1\n      pop\n        /* \"#utility.yul\":12945:13093   */\n      swap3\n      swap2\n      pop\n      pop\n      jump\t// out\n        /* \"#utility.yul\":13099:13489   */\n    tag_128:\n        /* \"#utility.yul\":13205:13208   */\n      0x00\n        /* \"#utility.yul\":13233:13272   */\n      tag_263\n        /* \"#utility.yul\":13266:13271   */\n      dup3\n        /* \"#utility.yul\":13233:13272   */\n      tag_106\n      jump\t// in\n    tag_263:\n        /* \"#utility.yul\":13288:13377   */\n      tag_264\n        /* \"#utility.yul\":13370:13376   */\n      dup2\n        /* \"#utility.yul\":13365:13368   */\n      dup6\n        /* \"#utility.yul\":13288:13377   */\n      tag_127\n      jump\t// in\n    tag_264:\n        /* \"#utility.yul\":13281:13377   */\n      swap4\n      pop\n        /* \"#utility.yul\":13386:13451   */\n      tag_265\n        /* \"#utility.yul\":13444:13450   */\n      dup2\n        /* \"#utility.yul\":13439:13442   */\n      dup6\n        /* \"#utility.yul\":13432:13436   */\n      0x20\n        /* \"#utility.yul\":13425:13430   */\n      dup7\n        /* \"#utility.yul\":13421:13437   */\n      add\n        /* \"#utility.yul\":13386:13451   */\n      tag_108\n      jump\t// in\n    tag_265:\n        /* \"#utility.yul\":13476:13482   */\n      dup1\n        /* \"#utility.yul\":13471:13474   */\n      dup5\n        /* \"#utility.yul\":13467:13483   */\n      add\n        /* \"#utility.yul\":13460:13483   */\n      swap2\n      pop\n        /* \"#utility.yul\":13209:13489   */\n      pop\n        /* \"#utility.yul\":13099:13489   */\n      swap3\n      swap2\n      pop\n      pop\n      jump\t// out\n        /* \"#utility.yul\":13495:13770   */\n    tag_39:\n        /* \"#utility.yul\":13627:13630   */\n      0x00\n        /* \"#utility.yul\":13649:13744   */\n      tag_267\n        /* \"#utility.yul\":13740:13743   */\n      dup3\n        /* \"#utility.yul\":13731:13737   */\n      dup5\n        /* \"#utility.yul\":13649:13744   */\n      tag_128\n      jump\t// in\n    tag_267:\n        /* \"#utility.yul\":13642:13744   */\n      swap2\n      pop\n        /* \"#utility.yul\":13761:13764   */\n      dup2\n        /* \"#utility.yul\":13754:13764   */\n      swap1\n      pop\n        /* \"#utility.yul\":13495:13770   */\n      swap3\n      swap2\n      pop\n      pop\n      jump\t// out\n        /* \"#utility.yul\":13776:13956   */\n    tag_129:\n        /* \"#utility.yul\":13824:13901   */\n      0x4e487b7100000000000000000000000000000000000000000000000000000000\n        /* \"#utility.yul\":13821:13822   */\n      0x00\n        /* \"#utility.yul\":13814:13902   */\n      mstore\n        /* \"#utility.yul\":13921:13925   */\n      0x22\n        /* \"#utility.yul\":13918:13919   */\n      0x04\n        /* \"#utility.yul\":13911:13926   */\n      mstore\n        /* \"#utility.yul\":13945:13949   */\n      0x24\n        /* \"#utility.yul\":13942:13943   */\n      0x00\n        /* \"#utility.yul\":13935:13950   */\n      revert\n        /* \"#utility.yul\":13962:14282   */\n    tag_41:\n        /* \"#utility.yul\":14006:14012   */\n      0x00\n        /* \"#utility.yul\":14043:14044   */\n      0x02\n        /* \"#utility.yul\":14037:14041   */\n      dup3\n        /* \"#utility.yul\":14033:14045   */\n      div\n        /* \"#utility.yul\":14023:14045   */\n      swap1\n      pop\n        /* \"#utility.yul\":14090:14091   */\n      0x01\n        /* \"#utility.yul\":14084:14088   */\n      dup3\n        /* \"#utility.yul\":14080:14092   */\n      and\n        /* \"#utility.yul\":14111:14129   */\n      dup1\n        /* \"#utility.yul\":14101:14182   */\n      tag_270\n      jumpi\n        /* \"#utility.yul\":14167:14171   */\n      0x7f\n        /* \"#utility.yul\":14159:14165   */\n      dup3\n        /* \"#utility.yul\":14155:14172   */\n      and\n        /* \"#utility.yul\":14145:14172   */\n      swap2\n      pop\n        /* \"#utility.yul\":14101:14182   */\n    tag_270:\n        /* \"#utility.yul\":14229:14231   */\n      0x20\n        /* \"#utility.yul\":14221:14227   */\n      dup3\n        /* \"#utility.yul\":14218:14232   */\n      lt\n        /* \"#utility.yul\":14198:14216   */\n      dup2\n        /* \"#utility.yul\":14195:14233   */\n      sub\n        /* \"#utility.yul\":14192:14276   */\n      tag_271\n      jumpi\n        /* \"#utility.yul\":14248:14266   */\n      tag_272\n      tag_129\n      jump\t// in\n    tag_272:\n        /* \"#utility.yul\":14192:14276   */\n    tag_271:\n        /* \"#utility.yul\":14013:14282   */\n      pop\n        /* \"#utility.yul\":13962:14282   */\n      swap2\n      swap1\n      pop\n      jump\t// out\n        /* \"#utility.yul\":14288:14429   */\n    tag_130:\n        /* \"#utility.yul\":14337:14341   */\n      0x00\n        /* \"#utility.yul\":14360:14363   */\n      dup2\n        /* \"#utility.yul\":14352:14363   */\n      swap1\n      pop\n        /* \"#utility.yul\":14383:14386   */\n      dup2\n        /* \"#utility.yul\":14380:14381   */\n      0x00\n        /* \"#utility.yul\":14373:14387   */\n      mstore\n        /* \"#utility.yul\":14417:14421   */\n      0x20\n        /* \"#utility.yul\":14414:14415   */\n      0x00\n        /* \"#utility.yul\":14404:14422   */\n      keccak256\n        /* \"#utility.yul\":14396:14422   */\n      swap1\n      pop\n        /* \"#utility.yul\":14288:14429   */\n      swap2\n      swap1\n      pop\n      jump\t// out\n        /* \"#utility.yul\":14435:14528   */\n    tag_131:\n        /* \"#utility.yul\":14472:14478   */\n      0x00\n        /* \"#utility.yul\":14519:14521   */\n      0x20\n        /* \"#utility.yul\":14514:14516   */\n      0x1f\n        /* \"#utility.yul\":14507:14512   */\n      dup4\n        /* \"#utility.yul\":14503:14517   */\n      add\n        /* \"#utility.yul\":14499:14522   */\n      div\n        /* \"#utility.yul\":14489:14522   */\n      swap1\n      pop\n        /* \"#utility.yul\":14435:14528   */\n      swap2\n      swap1\n      pop\n      jump\t// out\n        /* \"#utility.yul\":14534:14641   */\n    tag_132:\n        /* \"#utility.yul\":14578:14586   */\n      0x00\n        /* \"#utility.yul\":14628:14633   */\n      dup3\n        /* \"#utility.yul\":14622:14626   */\n      dup3\n        /* \"#utility.yul\":14618:14634   */\n      shl\n        /* \"#utility.yul\":14597:14634   */\n      swap1\n      pop\n        /* \"#utility.yul\":14534:14641   */\n      swap3\n      swap2\n      pop\n      pop\n      jump\t// out\n        /* \"#utility.yul\":14647:15040   */\n    tag_133:\n        /* \"#utility.yul\":14716:14722   */\n      0x00\n        /* \"#utility.yul\":14766:14767   */\n      0x08\n        /* \"#utility.yul\":14754:14764   */\n      dup4\n        /* \"#utility.yul\":14750:14768   */\n      mul\n        /* \"#utility.yul\":14789:14886   */\n      tag_277\n        /* \"#utility.yul\":14819:14885   */\n      0xffffffffffffffffffffffffffffffffffffffffffffffffffffffffffffffff\n        /* \"#utility.yul\":14808:14817   */\n      dup3\n        /* \"#utility.yul\":14789:14886   */\n      tag_132\n      jump\t// in\n    tag_277:\n        /* \"#utility.yul\":14907:14946   */\n      tag_278\n        /* \"#utility.yul\":14937:14945   */\n      dup7\n        /* \"#utility.yul\":14926:14935   */\n      dup4\n        /* \"#utility.yul\":14907:14946   */\n      tag_132\n      jump\t// in\n    tag_278:\n        /* \"#utility.yul\":14895:14946   */\n      swap6\n      pop\n        /* \"#utility.yul\":14979:14983   */\n      dup1\n        /* \"#utility.yul\":14975:14984   */\n      not\n        /* \"#utility.yul\":14968:14973   */\n      dup5\n        /* \"#utility.yul\":14964:14985   */\n      and\n        /* \"#utility.yul\":14955:14985   */\n      swap4\n      pop\n        /* \"#utility.yul\":15028:15032   */\n      dup1\n        /* \"#utility.yul\":15018:15026   */\n      dup7\n        /* \"#utility.yul\":15014:15033   */\n      and\n        /* \"#utility.yul\":15007:15012   */\n      dup5\n        /* \"#utility.yul\":15004:15034   */\n      or\n        /* \"#utility.yul\":14994:15034   */\n      swap3\n      pop\n        /* \"#utility.yul\":14723:15040   */\n      pop\n      pop\n        /* \"#utility.yul\":14647:15040   */\n      swap4\n      swap3\n      pop\n      pop\n      pop\n      jump\t// out\n        /* \"#utility.yul\":15046:15106   */\n    tag_134:\n        /* \"#utility.yul\":15074:15077   */\n      0x00\n        /* \"#utility.yul\":15095:15100   */\n      dup2\n        /* \"#utility.yul\":15088:15100   */\n      swap1\n      pop\n        /* \"#utility.yul\":15046:15106   */\n      swap2\n      swap1\n      pop\n      jump\t// out\n        /* \"#utility.yul\":15112:15254   */\n    tag_135:\n        /* \"#utility.yul\":15162:15171   */\n      0x00\n        /* \"#utility.yul\":15195:15248   */\n      tag_281\n        /* \"#utility.yul\":15213:15247   */\n      tag_282\n        /* \"#utility.yul\":15222:15246   */\n      tag_283\n        /* \"#utility.yul\":15240:15245   */\n      dup5\n        /* \"#utility.yul\":15222:15246   */\n      tag_114\n      jump\t// in\n    tag_283:\n        /* \"#utility.yul\":15213:15247   */\n      tag_134\n      jump\t// in\n    tag_282:\n        /* \"#utility.yul\":15195:15248   */\n      tag_114\n      jump\t// in\n    tag_281:\n        /* \"#utility.yul\":15182:15248   */\n      swap1\n      pop\n        /* \"#utility.yul\":15112:15254   */\n      swap2\n      swap1\n      pop\n      jump\t// out\n        /* \"#utility.yul\":15260:15335   */\n    tag_136:\n        /* \"#utility.yul\":15303:15306   */\n      0x00\n        /* \"#utility.yul\":15324:15329   */\n      dup2\n        /* \"#utility.yul\":15317:15329   */\n      swap1\n      pop\n        /* \"#utility.yul\":15260:15335   */\n      swap2\n      swap1\n      pop\n      jump\t// out\n        /* \"#utility.yul\":15341:15610   */\n    tag_137:\n        /* \"#utility.yul\":15451:15490   */\n      tag_286\n        /* \"#utility.yul\":15482:15489   */\n      dup4\n        /* \"#utility.yul\":15451:15490   */\n      tag_135\n      jump\t// in\n    tag_286:\n        /* \"#utility.yul\":15512:15603   */\n      tag_287\n        /* \"#utility.yul\":15561:15602   */\n      tag_288\n        /* \"#utility.yul\":15585:15601   */\n      dup3\n        /* \"#utility.yul\":15561:15602   */\n      tag_136\n      jump\t// in\n    tag_288:\n        /* \"#utility.yul\":15553:15559   */\n      dup5\n        /* \"#utility.yul\":15546:15550   */\n      dup5\n        /* \"#utility.yul\":15540:15551   */\n      sload\n        /* \"#utility.yul\":15512:15603   */\n      tag_133\n      jump\t// in\n    tag_287:\n        /* \"#utility.yul\":15506:15510   */\n      dup3\n        /* \"#utility.yul\":15499:15604   */\n      sstore\n        /* \"#utility.yul\":15417:15610   */\n      pop\n        /* \"#utility.yul\":15341:15610   */\n      pop\n      pop\n      pop\n      jump\t// out\n        /* \"#utility.yul\":15616:15689   */\n    tag_138:\n        /* \"#utility.yul\":15661:15664   */\n      0x00\n        /* \"#utility.yul\":15616:15689   */\n      swap1\n      jump\t// out\n        /* \"#utility.yul\":15695:15884   */\n    tag_139:\n        /* \"#utility.yul\":15772:15804   */\n      tag_291\n      tag_138\n      jump\t// in\n    tag_291:\n        /* \"#utility.yul\":15813:15878   */\n      tag_292\n        /* \"#utility.yul\":15871:15877   */\n      dup2\n        /* \"#utility.yul\":15863:15869   */\n      dup5\n        /* \"#utility.yul\":15857:15861   */\n      dup5\n        /* \"#utility.yul\":15813:15878   */\n      tag_137\n      jump\t// in\n    tag_292:\n        /* \"#utility.yul\":15748:15884   */\n      pop\n        /* \"#utility.yul\":15695:15884   */\n      pop\n      pop\n      jump\t// out\n        /* \"#utility.yul\":15890:16076   */\n    tag_140:\n        /* \"#utility.yul\":15950:16070   */\n    tag_294:\n        /* \"#utility.yul\":15967:15970   */\n      dup2\n        /* \"#utility.yul\":15960:15965   */\n      dup2\n        /* \"#utility.yul\":15957:15971   */\n      lt\n        /* \"#utility.yul\":15950:16070   */\n      iszero\n      tag_296\n      jumpi\n        /* \"#utility.yul\":16021:16060   */\n      tag_297\n        /* \"#utility.yul\":16058:16059   */\n      0x00\n        /* \"#utility.yul\":16051:16056   */\n      dup3\n        /* \"#utility.yul\":16021:16060   */\n      tag_139\n      jump\t// in\n    tag_297:\n        /* \"#utility.yul\":15994:15995   */\n      0x01\n        /* \"#utility.yul\":15987:15992   */\n      dup2\n        /* \"#utility.yul\":15983:15996   */\n      add\n        /* \"#utility.yul\":15974:15996   */\n      swap1\n      pop\n        /* \"#utility.yul\":15950:16070   */\n      jump(tag_294)\n    tag_296:\n        /* \"#utility.yul\":15890:16076   */\n      pop\n      pop\n      jump\t// out\n        /* \"#utility.yul\":16082:16625   */\n    tag_141:\n        /* \"#utility.yul\":16183:16185   */\n      0x1f\n        /* \"#utility.yul\":16178:16181   */\n      dup3\n        /* \"#utility.yul\":16175:16186   */\n      gt\n        /* \"#utility.yul\":16172:16618   */\n      iszero\n      tag_299\n      jumpi\n        /* \"#utility.yul\":16217:16255   */\n      tag_300\n        /* \"#utility.yul\":16249:16254   */\n      dup2\n        /* \"#utility.yul\":16217:16255   */\n      tag_130\n      jump\t// in\n    tag_300:\n        /* \"#utility.yul\":16301:16330   */\n      tag_301\n        /* \"#utility.yul\":16319:16329   */\n      dup5\n        /* \"#utility.yul\":16301:16330   */\n      tag_131\n      jump\t// in\n    tag_301:\n        /* \"#utility.yul\":16291:16299   */\n      dup2\n        /* \"#utility.yul\":16287:16331   */\n      add\n        /* \"#utility.yul\":16484:16486   */\n      0x20\n        /* \"#utility.yul\":16472:16482   */\n      dup6\n        /* \"#utility.yul\":16469:16487   */\n      lt\n        /* \"#utility.yul\":16466:16515   */\n      iszero\n      tag_302\n      jumpi\n        /* \"#utility.yul\":16505:16513   */\n      dup2\n        /* \"#utility.yul\":16490:16513   */\n      swap1\n      pop\n        /* \"#utility.yul\":16466:16515   */\n    tag_302:\n        /* \"#utility.yul\":16528:16608   */\n      tag_303\n        /* \"#utility.yul\":16584:16606   */\n      tag_304\n        /* \"#utility.yul\":16602:16605   */\n      dup6\n        /* \"#utility.yul\":16584:16606   */\n      tag_131\n      jump\t// in\n    tag_304:\n        /* \"#utility.yul\":16574:16582   */\n      dup4\n        /* \"#utility.yul\":16570:16607   */\n      add\n        /* \"#utility.yul\":16557:16568   */\n      dup3\n        /* \"#utility.yul\":16528:16608   */\n      tag_140\n      jump\t// in\n    tag_303:\n        /* \"#utility.yul\":16187:16618   */\n      pop\n      pop\n        /* \"#utility.yul\":16172:16618   */\n    tag_299:\n        /* \"#utility.yul\":16082:16625   */\n      pop\n      pop\n      pop\n      jump\t// out\n        /* \"#utility.yul\":16631:16748   */\n    tag_142:\n        /* \"#utility.yul\":16685:16693   */\n      0x00\n        /* \"#utility.yul\":16735:16740   */\n      dup3\n        /* \"#utility.yul\":16729:16733   */\n      dup3\n        /* \"#utility.yul\":16725:16741   */\n      shr\n        /* \"#utility.yul\":16704:16741   */\n      swap1\n      pop\n        /* \"#utility.yul\":16631:16748   */\n      swap3\n      swap2\n      pop\n      pop\n      jump\t// out\n        /* \"#utility.yul\":16754:16923   */\n    tag_143:\n        /* \"#utility.yul\":16798:16804   */\n      0x00\n        /* \"#utility.yul\":16831:16882   */\n      tag_307\n        /* \"#utility.yul\":16879:16880   */\n      0x00\n        /* \"#utility.yul\":16875:16881   */\n      not\n        /* \"#utility.yul\":16867:16872   */\n      dup5\n        /* \"#utility.yul\":16864:16865   */\n      0x08\n        /* \"#utility.yul\":16860:16873   */\n      mul\n        /* \"#utility.yul\":16831:16882   */\n      tag_142\n      jump\t// in\n    tag_307:\n        /* \"#utility.yul\":16827:16883   */\n      not\n        /* \"#utility.yul\":16912:16916   */\n      dup1\n        /* \"#utility.yul\":16906:16910   */\n      dup4\n        /* \"#utility.yul\":16902:16917   */\n      and\n        /* \"#utility.yul\":16892:16917   */\n      swap2\n      pop\n        /* \"#utility.yul\":16805:16923   */\n      pop\n        /* \"#utility.yul\":16754:16923   */\n      swap3\n      swap2\n      pop\n      pop\n      jump\t// out\n        /* \"#utility.yul\":16928:17223   */\n    tag_144:\n        /* \"#utility.yul\":17004:17008   */\n      0x00\n        /* \"#utility.yul\":17150:17179   */\n      tag_309\n        /* \"#utility.yul\":17175:17178   */\n      dup4\n        /* \"#utility.yul\":17169:17173   */\n      dup4\n        /* \"#utility.yul\":17150:17179   */\n      tag_143\n      jump\t// in\n    tag_309:\n        /* \"#utility.yul\":17142:17179   */\n      swap2\n      pop\n        /* \"#utility.yul\":17212:17215   */\n      dup3\n        /* \"#utility.yul\":17209:17210   */\n      0x02\n        /* \"#utility.yul\":17205:17216   */\n      mul\n        /* \"#utility.yul\":17199:17203   */\n      dup3\n        /* \"#utility.yul\":17196:17217   */\n      or\n        /* \"#utility.yul\":17188:17217   */\n      swap1\n      pop\n        /* \"#utility.yul\":16928:17223   */\n      swap3\n      swap2\n      pop\n      pop\n      jump\t// out\n        /* \"#utility.yul\":17228:18623   */\n    tag_63:\n        /* \"#utility.yul\":17345:17382   */\n      tag_311\n        /* \"#utility.yul\":17378:17381   */\n      dup3\n        /* \"#utility.yul\":17345:17382   */\n      tag_106\n      jump\t// in\n    tag_311:\n        /* \"#utility.yul\":17447:17465   */\n      0xffffffffffffffff\n        /* \"#utility.yul\":17439:17445   */\n      dup2\n        /* \"#utility.yul\":17436:17466   */\n      gt\n        /* \"#utility.yul\":17433:17489   */\n      iszero\n      tag_312\n      jumpi\n        /* \"#utility.yul\":17469:17487   */\n      tag_313\n      tag_87\n      jump\t// in\n    tag_313:\n        /* \"#utility.yul\":17433:17489   */\n    tag_312:\n        /* \"#utility.yul\":17513:17551   */\n      tag_314\n        /* \"#utility.yul\":17545:17549   */\n      dup3\n        /* \"#utility.yul\":17539:17550   */\n      sload\n        /* \"#utility.yul\":17513:17551   */\n      tag_41\n      jump\t// in\n    tag_314:\n        /* \"#utility.yul\":17598:17665   */\n      tag_315\n        /* \"#utility.yul\":17658:17664   */\n      dup3\n        /* \"#utility.yul\":17650:17656   */\n      dup3\n        /* \"#utility.yul\":17644:17648   */\n      dup6\n        /* \"#utility.yul\":17598:17665   */\n      tag_141\n      jump\t// in\n    tag_315:\n        /* \"#utility.yul\":17692:17693   */\n      0x00\n        /* \"#utility.yul\":17716:17720   */\n      0x20\n        /* \"#utility.yul\":17703:17720   */\n      swap1\n      pop\n        /* \"#utility.yul\":17748:17750   */\n      0x1f\n        /* \"#utility.yul\":17740:17746   */\n      dup4\n        /* \"#utility.yul\":17737:17751   */\n      gt\n        /* \"#utility.yul\":17765:17766   */\n      0x01\n        /* \"#utility.yul\":17760:18378   */\n      dup2\n      eq\n      tag_317\n      jumpi\n        /* \"#utility.yul\":18422:18423   */\n      0x00\n        /* \"#utility.yul\":18439:18445   */\n      dup5\n        /* \"#utility.yul\":18436:18513   */\n      iszero\n      tag_318\n      jumpi\n        /* \"#utility.yul\":18488:18497   */\n      dup3\n        /* \"#utility.yul\":18483:18486   */\n      dup8\n        /* \"#utility.yul\":18479:18498   */\n      add\n        /* \"#utility.yul\":18473:18499   */\n      mload\n        /* \"#utility.yul\":18464:18499   */\n      swap1\n      pop\n        /* \"#utility.yul\":18436:18513   */\n    tag_318:\n        /* \"#utility.yul\":18539:18606   */\n      tag_319\n        /* \"#utility.yul\":18599:18605   */\n      dup6\n        /* \"#utility.yul\":18592:18597   */\n      dup3\n        /* \"#utility.yul\":18539:18606   */\n      tag_144\n      jump\t// in\n    tag_319:\n        /* \"#utility.yul\":18533:18537   */\n      dup7\n        /* \"#utility.yul\":18526:18607   */\n      sstore\n        /* \"#utility.yul\":18395:18617   */\n      pop\n        /* \"#utility.yul\":17730:18617   */\n      jump(tag_316)\n        /* \"#utility.yul\":17760:18378   */\n    tag_317:\n        /* \"#utility.yul\":17812:17816   */\n      0x1f\n        /* \"#utility.yul\":17808:17817   */\n      not\n        /* \"#utility.yul\":17800:17806   */\n      dup5\n        /* \"#utility.yul\":17796:17818   */\n      and\n        /* \"#utility.yul\":17846:17883   */\n      tag_320\n        /* \"#utility.yul\":17878:17882   */\n      dup7\n        /* \"#utility.yul\":17846:17883   */\n      tag_130\n      jump\t// in\n    tag_320:\n        /* \"#utility.yul\":17905:17906   */\n      0x00\n        /* \"#utility.yul\":17919:18127   */\n    tag_321:\n        /* \"#utility.yul\":17933:17940   */\n      dup3\n        /* \"#utility.yul\":17930:17931   */\n      dup2\n        /* \"#utility.yul\":17927:17941   */\n      lt\n        /* \"#utility.yul\":17919:18127   */\n      iszero\n      tag_323\n      jumpi\n        /* \"#utility.yul\":18012:18021   */\n      dup5\n        /* \"#utility.yul\":18007:18010   */\n      dup10\n        /* \"#utility.yul\":18003:18022   */\n      add\n        /* \"#utility.yul\":17997:18023   */\n      mload\n        /* \"#utility.yul\":17989:17995   */\n      dup3\n        /* \"#utility.yul\":17982:18024   */\n      sstore\n        /* \"#utility.yul\":18063:18064   */\n      0x01\n        /* \"#utility.yul\":18055:18061   */\n      dup3\n        /* \"#utility.yul\":18051:18065   */\n      add\n        /* \"#utility.yul\":18041:18065   */\n      swap2\n      pop\n        /* \"#utility.yul\":18110:18112   */\n      0x20\n        /* \"#utility.yul\":18099:18108   */\n      dup6\n        /* \"#utility.yul\":18095:18113   */\n      add\n        /* \"#utility.yul\":18082:18113   */\n      swap5\n      pop\n        /* \"#utility.yul\":17956:17960   */\n      0x20\n        /* \"#utility.yul\":17953:17954   */\n      dup2\n        /* \"#utility.yul\":17949:17961   */\n      add\n        /* \"#utility.yul\":17944:17961   */\n      swap1\n      pop\n        /* \"#utility.yul\":17919:18127   */\n      jump(tag_321)\n    tag_323:\n        /* \"#utility.yul\":18155:18161   */\n      dup7\n        /* \"#utility.yul\":18146:18153   */\n      dup4\n        /* \"#utility.yul\":18143:18162   */\n      lt\n        /* \"#utility.yul\":18140:18319   */\n      iszero\n      tag_324\n      jumpi\n        /* \"#utility.yul\":18213:18222   */\n      dup5\n        /* \"#utility.yul\":18208:18211   */\n      dup10\n        /* \"#utility.yul\":18204:18223   */\n      add\n        /* \"#utility.yul\":18198:18224   */\n      mload\n        /* \"#utility.yul\":18256:18304   */\n      tag_325\n        /* \"#utility.yul\":18298:18302   */\n      0x1f\n        /* \"#utility.yul\":18290:18296   */\n      dup10\n        /* \"#utility.yul\":18286:18303   */\n      and\n        /* \"#utility.yul\":18275:18284   */\n      dup3\n        /* \"#utility.yul\":18256:18304   */\n      tag_143\n      jump\t// in\n    tag_325:\n        /* \"#utility.yul\":18248:18254   */\n      dup4\n        /* \"#utility.yul\":18241:18305   */\n      sstore\n        /* \"#utility.yul\":18163:18319   */\n      pop\n        /* \"#utility.yul\":18140:18319   */\n    tag_324:\n        /* \"#utility.yul\":18365:18366   */\n      0x01\n        /* \"#utility.yul\":18361:18362   */\n      0x02\n        /* \"#utility.yul\":18353:18359   */\n      dup9\n        /* \"#utility.yul\":18349:18363   */\n      mul\n        /* \"#utility.yul\":18345:18367   */\n      add\n        /* \"#utility.yul\":18339:18343   */\n      dup9\n        /* \"#utility.yul\":18332:18368   */\n      sstore\n        /* \"#utility.yul\":17767:18378   */\n      pop\n      pop\n      pop\n        /* \"#utility.yul\":17730:18617   */\n    tag_316:\n      pop\n        /* \"#utility.yul\":17320:18623   */\n      pop\n      pop\n      pop\n        /* \"#utility.yul\":17228:18623   */\n      pop\n      pop\n      jump\t// out\n        /* \"#utility.yul\":18629:18809   */\n    tag_145:\n        /* \"#utility.yul\":18677:18754   */\n      0x4e487b7100000000000000000000000000000000000000000000000000000000\n        /* \"#utility.yul\":18674:18675   */\n      0x00\n        /* \"#utility.yul\":18667:18755   */\n      mstore\n        /* \"#utility.yul\":18774:18778   */\n      0x11\n        /* \"#utility.yul\":18771:18772   */\n      0x04\n        /* \"#utility.yul\":18764:18779   */\n      mstore\n        /* \"#utility.yul\":18798:18802   */\n      0x24\n        /* \"#utility.yul\":18795:18796   */\n      0x00\n        /* \"#utility.yul\":18788:18803   */\n      revert\n        /* \"#utility.yul\":18815:19048   */\n    tag_66:\n        /* \"#utility.yul\":18854:18857   */\n      0x00\n        /* \"#utility.yul\":18877:18901   */\n      tag_328\n        /* \"#utility.yul\":18895:18900   */\n      dup3\n        /* \"#utility.yul\":18877:18901   */\n      tag_114\n      jump\t// in\n    tag_328:\n        /* \"#utility.yul\":18868:18901   */\n      swap2\n      pop\n        /* \"#utility.yul\":18923:18989   */\n      0xffffffffffffffffffffffffffffffffffffffffffffffffffffffffffffffff\n        /* \"#utility.yul\":18916:18921   */\n      dup3\n        /* \"#utility.yul\":18913:18990   */\n      sub\n        /* \"#utility.yul\":18910:19013   */\n      tag_329\n      jumpi\n        /* \"#utility.yul\":18993:19011   */\n      tag_330\n      tag_145\n      jump\t// in\n    tag_330:\n        /* \"#utility.yul\":18910:19013   */\n    tag_329:\n        /* \"#utility.yul\":19040:19041   */\n      0x01\n        /* \"#utility.yul\":19033:19038   */\n      dup3\n        /* \"#utility.yul\":19029:19042   */\n      add\n        /* \"#utility.yul\":19022:19042   */\n      swap1\n      pop\n        /* \"#utility.yul\":18815:19048   */\n      swap2\n      swap1\n      pop\n      jump\t// out\n        /* \"#utility.yul\":19054:19223   */\n    tag_146:\n        /* \"#utility.yul\":19138:19149   */\n      0x00\n        /* \"#utility.yul\":19172:19178   */\n      dup3\n        /* \"#utility.yul\":19167:19170   */\n      dup3\n        /* \"#utility.yul\":19160:19179   */\n      mstore\n        /* \"#utility.yul\":19212:19216   */\n      0x20\n        /* \"#utility.yul\":19207:19210   */\n      dup3\n        /* \"#utility.yul\":19203:19217   */\n      add\n        /* \"#utility.yul\":19188:19217   */\n      swap1\n      pop\n        /* \"#utility.yul\":19054:19223   */\n      swap3\n      swap2\n      pop\n      pop\n      jump\t// out\n        /* \"#utility.yul\":19229:19392   */\n    tag_147:\n        /* \"#utility.yul\":19369:19384   */\n      0x616c726561647920766f74656400000000000000000000000000000000000000\n        /* \"#utility.yul\":19365:19366   */\n      0x00\n        /* \"#utility.yul\":19357:19363   */\n      dup3\n        /* \"#utility.yul\":19353:19367   */\n      add\n        /* \"#utility.yul\":19346:19385   */\n      mstore\n        /* \"#utility.yul\":19229:19392   */\n      pop\n      jump\t// out\n        /* \"#utility.yul\":19398:19764   */\n    tag_148:\n        /* \"#utility.yul\":19540:19543   */\n      0x00\n        /* \"#utility.yul\":19561:19628   */\n      tag_334\n        /* \"#utility.yul\":19625:19627   */\n      0x0d\n        /* \"#utility.yul\":19620:19623   */\n      dup4\n        /* \"#utility.yul\":19561:19628   */\n      tag_146\n      jump\t// in\n    tag_334:\n        /* \"#utility.yul\":19554:19628   */\n      swap2\n      pop\n        /* \"#utility.yul\":19637:19730   */\n      tag_335\n        /* \"#utility.yul\":19726:19729   */\n      dup3\n        /* \"#utility.yul\":19637:19730   */\n      tag_147\n      jump\t// in\n    tag_335:\n        /* \"#utility.yul\":19755:19757   */\n      0x20\n        /* \"#utility.yul\":19750:19753   */\n      dup3\n        /* \"#utility.yul\":19746:19758   */\n      add\n        /* \"#utility.yul\":19739:19758   */\n      swap1\n      pop\n        /* \"#utility.yul\":19398:19764   */\n      swap2\n      swap1\n      pop\n      jump\t// out\n        /* \"#utility.yul\":19770:20189   */\n    tag_71:\n        /* \"#utility.yul\":19936:19940   */\n      0x00\n        /* \"#utility.yul\":19974:19976   */\n      0x20\n        /* \"#utility.yul\":19963:19972   */\n      dup3\n        /* \"#utility.yul\":19959:19977   */\n      add\n        /* \"#utility.yul\":19951:19977   */\n      swap1\n      pop\n        /* \"#utility.yul\":20023:20032   */\n      dup2\n        /* \"#utility.yul\":20017:20021   */\n      dup2\n        /* \"#utility.yul\":20013:20033   */\n      sub\n        /* \"#utility.yul\":20009:20010   */\n      0x00\n        /* \"#utility.yul\":19998:20007   */\n      dup4\n        /* \"#utility.yul\":19994:20011   */\n      add\n        /* \"#utility.yul\":19987:20034   */\n      mstore\n        /* \"#utility.yul\":20051:20182   */\n      tag_337\n        /* \"#utility.yul\":20177:20181   */\n      dup2\n        /* \"#utility.yul\":20051:20182   */\n      tag_148\n      jump\t// in\n    tag_337:\n        /* \"#utility.yul\":20043:20182   */\n      swap1\n      pop\n        /* \"#utility.yul\":19770:20189   */\n      swap2\n      swap1\n      pop\n      jump\t// out\n        /* \"#utility.yul\":20195:20386   */\n    tag_75:\n        /* \"#utility.yul\":20235:20238   */\n      0x00\n        /* \"#utility.yul\":20254:20274   */\n      tag_339\n        /* \"#utility.yul\":20272:20273   */\n      dup3\n        /* \"#utility.yul\":20254:20274   */\n      tag_114\n      jump\t// in\n    tag_339:\n        /* \"#utility.yul\":20249:20274   */\n      swap2\n      pop\n        /* \"#utility.yul\":20288:20308   */\n      tag_340\n        /* \"#utility.yul\":20306:20307   */\n      dup4\n        /* \"#utility.yul\":20288:20308   */\n      tag_114\n      jump\t// in\n    tag_340:\n        /* \"#utility.yul\":20283:20308   */\n      swap3\n      pop\n        /* \"#utility.yul\":20331:20332   */\n      dup3\n        /* \"#utility.yul\":20328:20329   */\n      dup3\n        /* \"#utility.yul\":20324:20333   */\n      add\n        /* \"#utility.yul\":20317:20333   */\n      swap1\n      pop\n        /* \"#utility.yul\":20352:20355   */\n      dup1\n        /* \"#utility.yul\":20349:20350   */\n      dup3\n        /* \"#utility.yul\":20346:20356   */\n      gt\n        /* \"#utility.yul\":20343:20379   */\n      iszero\n      tag_341\n      jumpi\n        /* \"#utility.yul\":20359:20377   */\n      tag_342\n      tag_145\n      jump\t// in\n    tag_342:\n        /* \"#utility.yul\":20343:20379   */\n    tag_341:\n        /* \"#utility.yul\":20195:20386   */\n      swap3\n      swap2\n      pop\n      pop\n      jump\t// out\n\n    auxdata: 0xa2646970667358221220eebf1988057c6241949c497eeb5b4f69b541a7823273be92814b58618a083ce664736f6c63430008190033\n}\n",
				"bytecode": {
					"linkReferences": {},
					"object": "6080604052348015600e575f80fd5b506112fe8061001c5f395ff3fe608060405234801561000f575f80fd5b5060043610610060575f3560e01c806331feb67114610064578063474502d8146100945780634ac3e917146100c45780634da8d7ef146100e0578063d0020fad146100fc578063fee0117714610118575b5f80fd5b61007e60048036038101906100799190610a1e565b610136565b60405161008b9190610b3e565b60405180910390f35b6100ae60048036038101906100a99190610a1e565b610252565b6040516100bb9190610c03565b60405180910390f35b6100de60048036038101906100d99190610c23565b61041b565b005b6100fa60048036038101906100f59190610cce565b610529565b005b61011660048036038101906101119190610a1e565b610738565b005b6101206107e1565b60405161012d9190610e70565b60405180910390f35b61013e61085a565b60028260405161014e9190610eca565b90815260200160405180910390206040518060400160405290815f8201805461017690610f0d565b80601f01602080910402602001604051908101604052809291908181526020018280546101a290610f0d565b80156101ed5780601f106101c4576101008083540402835291602001916101ed565b820191905f5260205f20905b8154815290600101906020018083116101d057829003601f168201915b50505050508152602001600182015f9054906101000a900473ffffffffffffffffffffffffffffffffffffffff1673ffffffffffffffffffffffffffffffffffffffff1673ffffffffffffffffffffffffffffffffffffffff16815250509050919050565b61025a610889565b5f826040516102699190610eca565b90815260200160405180910390206040518060c00160405290815f820154815260200160018201805461029b90610f0d565b80601f01602080910402602001604051908101604052809291908181526020018280546102c790610f0d565b80156103125780601f106102e957610100808354040283529160200191610312565b820191905f5260205f20905b8154815290600101906020018083116102f557829003601f168201915b5050505050815260200160028201805461032b90610f0d565b80601f016020809104026020016040519081016040528092919081815260200182805461035790610f0d565b80156103a25780601f10610379576101008083540402835291602001916103a2565b820191905f5260205f20905b81548152906001019060200180831161038557829003601f168201915b50505050508152602001600382015f9054906101000a900473ffffffffffffffffffffffffffffffffffffffff1673ffffffffffffffffffffffffffffffffffffffff1673ffffffffffffffffffffffffffffffffffffffff168152602001600482015481526020016005820154815250509050919050565b6040518060c0016040528060035481526020018381526020018281526020013373ffffffffffffffffffffffffffffffffffffffff1681526020015f81526020015f8152505f8360405161046f9190610eca565b90815260200160405180910390205f820151815f0155602082015181600101908161049a91906110da565b5060408201518160020190816104b091906110da565b506060820151816003015f6101000a81548173ffffffffffffffffffffffffffffffffffffffff021916908373ffffffffffffffffffffffffffffffffffffffff1602179055506080820151816004015560a0820151816005015590505060035f815480929190610520906111d6565b91905055505050565b5f151560015f3373ffffffffffffffffffffffffffffffffffffffff1673ffffffffffffffffffffffffffffffffffffffff1681526020019081526020015f20836040516105779190610eca565b90815260200160405180910390205f9054906101000a900460ff161515146105d4576040517f08c379a00000000000000000000000000000000000000000000000000000000081526004016105cb90611277565b60405180910390fd5b600115158115150361068c5760015f836040516105f19190610eca565b90815260200160405180910390206004015f8282546106109190611295565b925050819055506001805f3373ffffffffffffffffffffffffffffffffffffffff1673ffffffffffffffffffffffffffffffffffffffff1681526020019081526020015f20836040516106639190610eca565b90815260200160405180910390205f6101000a81548160ff021916908315150217905550610734565b60015f8360405161069d9190610eca565b90815260200160405180910390206005015f8282546106bc9190611295565b925050819055506001805f3373ffffffffffffffffffffffffffffffffffffffff1673ffffffffffffffffffffffffffffffffffffffff1681526020019081526020015f208360405161070f9190610eca565b90815260200160405180910390205f6101000a81548160ff0219169083151502179055505b5050565b60405180604001604052808281526020013373ffffffffffffffffffffffffffffffffffffffff168152506002826040516107739190610eca565b90815260200160405180910390205f820151815f01908161079491906110da565b506020820151816001015f6101000a81548173ffffffffffffffffffffffffffffffffffffffff021916908373ffffffffffffffffffffffffffffffffffffffff16021790555090505050565b60605f60035467ffffffffffffffff811115610800576107ff6108fa565b5b60405190808252806020026020018201604052801561083957816020015b610826610889565b81526020019060019003908161081e5790505b5090505f5b60035481101561085557808060010191505061083e565b505090565b6040518060400160405280606081526020015f73ffffffffffffffffffffffffffffffffffffffff1681525090565b6040518060c001604052805f815260200160608152602001606081526020015f73ffffffffffffffffffffffffffffffffffffffff1681526020015f81526020015f81525090565b5f604051905090565b5f80fd5b5f80fd5b5f80fd5b5f80fd5b5f601f19601f8301169050919050565b7f4e487b71000000000000000000000000000000000000000000000000000000005f52604160045260245ffd5b610930826108ea565b810181811067ffffffffffffffff8211171561094f5761094e6108fa565b5b80604052505050565b5f6109616108d1565b905061096d8282610927565b919050565b5f67ffffffffffffffff82111561098c5761098b6108fa565b5b610995826108ea565b9050602081019050919050565b828183375f83830152505050565b5f6109c26109bd84610972565b610958565b9050828152602081018484840111156109de576109dd6108e6565b5b6109e98482856109a2565b509392505050565b5f82601f830112610a0557610a046108e2565b5b8135610a158482602086016109b0565b91505092915050565b5f60208284031215610a3357610a326108da565b5b5f82013567ffffffffffffffff811115610a5057610a4f6108de565b5b610a5c848285016109f1565b91505092915050565b5f81519050919050565b5f82825260208201905092915050565b8281835e5f83830152505050565b5f610a9782610a65565b610aa18185610a6f565b9350610ab1818560208601610a7f565b610aba816108ea565b840191505092915050565b5f73ffffffffffffffffffffffffffffffffffffffff82169050919050565b5f610aee82610ac5565b9050919050565b610afe81610ae4565b82525050565b5f604083015f8301518482035f860152610b1e8282610a8d565b9150506020830151610b336020860182610af5565b508091505092915050565b5f6020820190508181035f830152610b568184610b04565b905092915050565b5f819050919050565b610b7081610b5e565b82525050565b5f60c083015f830151610b8b5f860182610b67565b5060208301518482036020860152610ba38282610a8d565b91505060408301518482036040860152610bbd8282610a8d565b9150506060830151610bd26060860182610af5565b506080830151610be56080860182610b67565b5060a0830151610bf860a0860182610b67565b508091505092915050565b5f6020820190508181035f830152610c1b8184610b76565b905092915050565b5f8060408385031215610c3957610c386108da565b5b5f83013567ffffffffffffffff811115610c5657610c556108de565b5b610c62858286016109f1565b925050602083013567ffffffffffffffff811115610c8357610c826108de565b5b610c8f858286016109f1565b9150509250929050565b5f8115159050919050565b610cad81610c99565b8114610cb7575f80fd5b50565b5f81359050610cc881610ca4565b92915050565b5f8060408385031215610ce457610ce36108da565b5b5f83013567ffffffffffffffff811115610d0157610d006108de565b5b610d0d858286016109f1565b9250506020610d1e85828601610cba565b9150509250929050565b5f81519050919050565b5f82825260208201905092915050565b5f819050602082019050919050565b5f60c083015f830151610d665f860182610b67565b5060208301518482036020860152610d7e8282610a8d565b91505060408301518482036040860152610d988282610a8d565b9150506060830151610dad6060860182610af5565b506080830151610dc06080860182610b67565b5060a0830151610dd360a0860182610b67565b508091505092915050565b5f610de98383610d51565b905092915050565b5f602082019050919050565b5f610e0782610d28565b610e118185610d32565b935083602082028501610e2385610d42565b805f5b85811015610e5e5784840389528151610e3f8582610dde565b9450610e4a83610df1565b925060208a01995050600181019050610e26565b50829750879550505050505092915050565b5f6020820190508181035f830152610e888184610dfd565b905092915050565b5f81905092915050565b5f610ea482610a65565b610eae8185610e90565b9350610ebe818560208601610a7f565b80840191505092915050565b5f610ed58284610e9a565b915081905092915050565b7f4e487b71000000000000000000000000000000000000000000000000000000005f52602260045260245ffd5b5f6002820490506001821680610f2457607f821691505b602082108103610f3757610f36610ee0565b5b50919050565b5f819050815f5260205f209050919050565b5f6020601f8301049050919050565b5f82821b905092915050565b5f60088302610f997fffffffffffffffffffffffffffffffffffffffffffffffffffffffffffffffff82610f5e565b610fa38683610f5e565b95508019841693508086168417925050509392505050565b5f819050919050565b5f610fde610fd9610fd484610b5e565b610fbb565b610b5e565b9050919050565b5f819050919050565b610ff783610fc4565b61100b61100382610fe5565b848454610f6a565b825550505050565b5f90565b61101f611013565b61102a818484610fee565b505050565b5b8181101561104d576110425f82611017565b600181019050611030565b5050565b601f8211156110925761106381610f3d565b61106c84610f4f565b8101602085101561107b578190505b61108f61108785610f4f565b83018261102f565b50505b505050565b5f82821c905092915050565b5f6110b25f1984600802611097565b1980831691505092915050565b5f6110ca83836110a3565b9150826002028217905092915050565b6110e382610a65565b67ffffffffffffffff8111156110fc576110fb6108fa565b5b6111068254610f0d565b611111828285611051565b5f60209050601f831160018114611142575f8415611130578287015190505b61113a85826110bf565b8655506111a1565b601f19841661115086610f3d565b5f5b8281101561117757848901518255600182019150602085019450602081019050611152565b868310156111945784890151611190601f8916826110a3565b8355505b6001600288020188555050505b505050505050565b7f4e487b71000000000000000000000000000000000000000000000000000000005f52601160045260245ffd5b5f6111e082610b5e565b91507fffffffffffffffffffffffffffffffffffffffffffffffffffffffffffffffff8203611212576112116111a9565b5b600182019050919050565b5f82825260208201905092915050565b7f616c726561647920766f746564000000000000000000000000000000000000005f82015250565b5f611261600d8361121d565b915061126c8261122d565b602082019050919050565b5f6020820190508181035f83015261128e81611255565b9050919050565b5f61129f82610b5e565b91506112aa83610b5e565b92508282019050808211156112c2576112c16111a9565b5b9291505056fea2646970667358221220eebf1988057c6241949c497eeb5b4f69b541a7823273be92814b58618a083ce664736f6c63430008190033",
					"opcodes": "PUSH1 0x80 PUSH1 0x40 MSTORE CALLVALUE DUP1 ISZERO PUSH1 0xE JUMPI PUSH0 DUP1 REVERT JUMPDEST POP PUSH2 0x12FE DUP1 PUSH2 0x1C PUSH0 CODECOPY PUSH0 RETURN INVALID PUSH1 0x80 PUSH1 0x40 MSTORE CALLVALUE DUP1 ISZERO PUSH2 0xF JUMPI PUSH0 DUP1 REVERT JUMPDEST POP PUSH1 0x4 CALLDATASIZE LT PUSH2 0x60 JUMPI PUSH0 CALLDATALOAD PUSH1 0xE0 SHR DUP1 PUSH4 0x31FEB671 EQ PUSH2 0x64 JUMPI DUP1 PUSH4 0x474502D8 EQ PUSH2 0x94 JUMPI DUP1 PUSH4 0x4AC3E917 EQ PUSH2 0xC4 JUMPI DUP1 PUSH4 0x4DA8D7EF EQ PUSH2 0xE0 JUMPI DUP1 PUSH4 0xD0020FAD EQ PUSH2 0xFC JUMPI DUP1 PUSH4 0xFEE01177 EQ PUSH2 0x118 JUMPI JUMPDEST PUSH0 DUP1 REVERT JUMPDEST PUSH2 0x7E PUSH1 0x4 DUP1 CALLDATASIZE SUB DUP2 ADD SWAP1 PUSH2 0x79 SWAP2 SWAP1 PUSH2 0xA1E JUMP JUMPDEST PUSH2 0x136 JUMP JUMPDEST PUSH1 0x40 MLOAD PUSH2 0x8B SWAP2 SWAP1 PUSH2 0xB3E JUMP JUMPDEST PUSH1 0x40 MLOAD DUP1 SWAP2 SUB SWAP1 RETURN JUMPDEST PUSH2 0xAE PUSH1 0x4 DUP1 CALLDATASIZE SUB DUP2 ADD SWAP1 PUSH2 0xA9 SWAP2 SWAP1 PUSH2 0xA1E JUMP JUMPDEST PUSH2 0x252 JUMP JUMPDEST PUSH1 0x40 MLOAD PUSH2 0xBB SWAP2 SWAP1 PUSH2 0xC03 JUMP JUMPDEST PUSH1 0x40 MLOAD DUP1 SWAP2 SUB SWAP1 RETURN JUMPDEST PUSH2 0xDE PUSH1 0x4 DUP1 CALLDATASIZE SUB DUP2 ADD SWAP1 PUSH2 0xD9 SWAP2 SWAP1 PUSH2 0xC23 JUMP JUMPDEST PUSH2 0x41B JUMP JUMPDEST STOP JUMPDEST PUSH2 0xFA PUSH1 0x4 DUP1 CALLDATASIZE SUB DUP2 ADD SWAP1 PUSH2 0xF5 SWAP2 SWAP1 PUSH2 0xCCE JUMP JUMPDEST PUSH2 0x529 JUMP JUMPDEST STOP JUMPDEST PUSH2 0x116 PUSH1 0x4 DUP1 CALLDATASIZE SUB DUP2 ADD SWAP1 PUSH2 0x111 SWAP2 SWAP1 PUSH2 0xA1E JUMP JUMPDEST PUSH2 0x738 JUMP JUMPDEST STOP JUMPDEST PUSH2 0x120 PUSH2 0x7E1 JUMP JUMPDEST PUSH1 0x40 MLOAD PUSH2 0x12D SWAP2 SWAP1 PUSH2 0xE70 JUMP JUMPDEST PUSH1 0x40 MLOAD DUP1 SWAP2 SUB SWAP1 RETURN JUMPDEST PUSH2 0x13E PUSH2 0x85A JUMP JUMPDEST PUSH1 0x2 DUP3 PUSH1 0x40 MLOAD PUSH2 0x14E SWAP2 SWAP1 PUSH2 0xECA JUMP JUMPDEST SWAP1 DUP2 MSTORE PUSH1 0x20 ADD PUSH1 0x40 MLOAD DUP1 SWAP2 SUB SWAP1 KECCAK256 PUSH1 0x40 MLOAD DUP1 PUSH1 0x40 ADD PUSH1 0x40 MSTORE SWAP1 DUP2 PUSH0 DUP3 ADD DUP1 SLOAD PUSH2 0x176 SWAP1 PUSH2 0xF0D JUMP JUMPDEST DUP1 PUSH1 0x1F ADD PUSH1 0x20 DUP1 SWAP2 DIV MUL PUSH1 0x20 ADD PUSH1 0x40 MLOAD SWAP1 DUP2 ADD PUSH1 0x40 MSTORE DUP1 SWAP3 SWAP2 SWAP1 DUP2 DUP2 MSTORE PUSH1 0x20 ADD DUP3 DUP1 SLOAD PUSH2 0x1A2 SWAP1 PUSH2 0xF0D JUMP JUMPDEST DUP1 ISZERO PUSH2 0x1ED JUMPI DUP1 PUSH1 0x1F LT PUSH2 0x1C4 JUMPI PUSH2 0x100 DUP1 DUP4 SLOAD DIV MUL DUP4 MSTORE SWAP2 PUSH1 0x20 ADD SWAP2 PUSH2 0x1ED JUMP JUMPDEST DUP3 ADD SWAP2 SWAP1 PUSH0 MSTORE PUSH1 0x20 PUSH0 KECCAK256 SWAP1 JUMPDEST DUP2 SLOAD DUP2 MSTORE SWAP1 PUSH1 0x1 ADD SWAP1 PUSH1 0x20 ADD DUP1 DUP4 GT PUSH2 0x1D0 JUMPI DUP3 SWAP1 SUB PUSH1 0x1F AND DUP3 ADD SWAP2 JUMPDEST POP POP POP POP POP DUP2 MSTORE PUSH1 0x20 ADD PUSH1 0x1 DUP3 ADD PUSH0 SWAP1 SLOAD SWAP1 PUSH2 0x100 EXP SWAP1 DIV PUSH20 0xFFFFFFFFFFFFFFFFFFFFFFFFFFFFFFFFFFFFFFFF AND PUSH20 0xFFFFFFFFFFFFFFFFFFFFFFFFFFFFFFFFFFFFFFFF AND PUSH20 0xFFFFFFFFFFFFFFFFFFFFFFFFFFFFFFFFFFFFFFFF AND DUP2 MSTORE POP POP SWAP1 POP SWAP2 SWAP1 POP JUMP JUMPDEST PUSH2 0x25A PUSH2 0x889 JUMP JUMPDEST PUSH0 DUP3 PUSH1 0x40 MLOAD PUSH2 0x269 SWAP2 SWAP1 PUSH2 0xECA JUMP JUMPDEST SWAP1 DUP2 MSTORE PUSH1 0x20 ADD PUSH1 0x40 MLOAD DUP1 SWAP2 SUB SWAP1 KECCAK256 PUSH1 0x40 MLOAD DUP1 PUSH1 0xC0 ADD PUSH1 0x40 MSTORE SWAP1 DUP2 PUSH0 DUP3 ADD SLOAD DUP2 MSTORE PUSH1 0x20 ADD PUSH1 0x1 DUP3 ADD DUP1 SLOAD PUSH2 0x29B SWAP1 PUSH2 0xF0D JUMP JUMPDEST DUP1 PUSH1 0x1F ADD PUSH1 0x20 DUP1 SWAP2 DIV MUL PUSH1 0x20 ADD PUSH1 0x40 MLOAD SWAP1 DUP2 ADD PUSH1 0x40 MSTORE DUP1 SWAP3 SWAP2 SWAP1 DUP2 DUP2 MSTORE PUSH1 0x20 ADD DUP3 DUP1 SLOAD PUSH2 0x2C7 SWAP1 PUSH2 0xF0D JUMP JUMPDEST DUP1 ISZERO PUSH2 0x312 JUMPI DUP1 PUSH1 0x1F LT PUSH2 0x2E9 JUMPI PUSH2 0x100 DUP1 DUP4 SLOAD DIV MUL DUP4 MSTORE SWAP2 PUSH1 0x20 ADD SWAP2 PUSH2 0x312 JUMP JUMPDEST DUP3 ADD SWAP2 SWAP1 PUSH0 MSTORE PUSH1 0x20 PUSH0 KECCAK256 SWAP1 JUMPDEST DUP2 SLOAD DUP2 MSTORE SWAP1 PUSH1 0x1 ADD SWAP1 PUSH1 0x20 ADD DUP1 DUP4 GT PUSH2 0x2F5 JUMPI DUP3 SWAP1 SUB PUSH1 0x1F AND DUP3 ADD SWAP2 JUMPDEST POP POP POP POP POP DUP2 MSTORE PUSH1 0x20 ADD PUSH1 0x2 DUP3 ADD DUP1 SLOAD PUSH2 0x32B SWAP1 PUSH2 0xF0D JUMP JUMPDEST DUP1 PUSH1 0x1F ADD PUSH1 0x20 DUP1 SWAP2 DIV MUL PUSH1 0x20 ADD PUSH1 0x40 MLOAD SWAP1 DUP2 ADD PUSH1 0x40 MSTORE DUP1 SWAP3 SWAP2 SWAP1 DUP2 DUP2 MSTORE PUSH1 0x20 ADD DUP3 DUP1 SLOAD PUSH2 0x357 SWAP1 PUSH2 0xF0D JUMP JUMPDEST DUP1 ISZERO PUSH2 0x3A2 JUMPI DUP1 PUSH1 0x1F LT PUSH2 0x379 JUMPI PUSH2 0x100 DUP1 DUP4 SLOAD DIV MUL DUP4 MSTORE SWAP2 PUSH1 0x20 ADD SWAP2 PUSH2 0x3A2 JUMP JUMPDEST DUP3 ADD SWAP2 SWAP1 PUSH0 MSTORE PUSH1 0x20 PUSH0 KECCAK256 SWAP1 JUMPDEST DUP2 SLOAD DUP2 MSTORE SWAP1 PUSH1 0x1 ADD SWAP1 PUSH1 0x20 ADD DUP1 DUP4 GT PUSH2 0x385 JUMPI DUP3 SWAP1 SUB PUSH1 0x1F AND DUP3 ADD SWAP2 JUMPDEST POP POP POP POP POP DUP2 MSTORE PUSH1 0x20 ADD PUSH1 0x3 DUP3 ADD PUSH0 SWAP1 SLOAD SWAP1 PUSH2 0x100 EXP SWAP1 DIV PUSH20 0xFFFFFFFFFFFFFFFFFFFFFFFFFFFFFFFFFFFFFFFF AND PUSH20 0xFFFFFFFFFFFFFFFFFFFFFFFFFFFFFFFFFFFFFFFF AND PUSH20 0xFFFFFFFFFFFFFFFFFFFFFFFFFFFFFFFFFFFFFFFF AND DUP2 MSTORE PUSH1 0x20 ADD PUSH1 0x4 DUP3 ADD SLOAD DUP2 MSTORE PUSH1 0x20 ADD PUSH1 0x5 DUP3 ADD SLOAD DUP2 MSTORE POP POP SWAP1 POP SWAP2 SWAP1 POP JUMP JUMPDEST PUSH1 0x40 MLOAD DUP1 PUSH1 0xC0 ADD PUSH1 0x40 MSTORE DUP1 PUSH1 0x3 SLOAD DUP2 MSTORE PUSH1 0x20 ADD DUP4 DUP2 MSTORE PUSH1 0x20 ADD DUP3 DUP2 MSTORE PUSH1 0x20 ADD CALLER PUSH20 0xFFFFFFFFFFFFFFFFFFFFFFFFFFFFFFFFFFFFFFFF AND DUP2 MSTORE PUSH1 0x20 ADD PUSH0 DUP2 MSTORE PUSH1 0x20 ADD PUSH0 DUP2 MSTORE POP PUSH0 DUP4 PUSH1 0x40 MLOAD PUSH2 0x46F SWAP2 SWAP1 PUSH2 0xECA JUMP JUMPDEST SWAP1 DUP2 MSTORE PUSH1 0x20 ADD PUSH1 0x40 MLOAD DUP1 SWAP2 SUB SWAP1 KECCAK256 PUSH0 DUP3 ADD MLOAD DUP2 PUSH0 ADD SSTORE PUSH1 0x20 DUP3 ADD MLOAD DUP2 PUSH1 0x1 ADD SWAP1 DUP2 PUSH2 0x49A SWAP2 SWAP1 PUSH2 0x10DA JUMP JUMPDEST POP PUSH1 0x40 DUP3 ADD MLOAD DUP2 PUSH1 0x2 ADD SWAP1 DUP2 PUSH2 0x4B0 SWAP2 SWAP1 PUSH2 0x10DA JUMP JUMPDEST POP PUSH1 0x60 DUP3 ADD MLOAD DUP2 PUSH1 0x3 ADD PUSH0 PUSH2 0x100 EXP DUP2 SLOAD DUP2 PUSH20 0xFFFFFFFFFFFFFFFFFFFFFFFFFFFFFFFFFFFFFFFF MUL NOT AND SWAP1 DUP4 PUSH20 0xFFFFFFFFFFFFFFFFFFFFFFFFFFFFFFFFFFFFFFFF AND MUL OR SWAP1 SSTORE POP PUSH1 0x80 DUP3 ADD MLOAD DUP2 PUSH1 0x4 ADD SSTORE PUSH1 0xA0 DUP3 ADD MLOAD DUP2 PUSH1 0x5 ADD SSTORE SWAP1 POP POP PUSH1 0x3 PUSH0 DUP2 SLOAD DUP1 SWAP3 SWAP2 SWAP1 PUSH2 0x520 SWAP1 PUSH2 0x11D6 JUMP JUMPDEST SWAP2 SWAP1 POP SSTORE POP POP POP JUMP JUMPDEST PUSH0 ISZERO ISZERO PUSH1 0x1 PUSH0 CALLER PUSH20 0xFFFFFFFFFFFFFFFFFFFFFFFFFFFFFFFFFFFFFFFF AND PUSH20 0xFFFFFFFFFFFFFFFFFFFFFFFFFFFFFFFFFFFFFFFF AND DUP2 MSTORE PUSH1 0x20 ADD SWAP1 DUP2 MSTORE PUSH1 0x20 ADD PUSH0 KECCAK256 DUP4 PUSH1 0x40 MLOAD PUSH2 0x577 SWAP2 SWAP1 PUSH2 0xECA JUMP JUMPDEST SWAP1 DUP2 MSTORE PUSH1 0x20 ADD PUSH1 0x40 MLOAD DUP1 SWAP2 SUB SWAP1 KECCAK256 PUSH0 SWAP1 SLOAD SWAP1 PUSH2 0x100 EXP SWAP1 DIV PUSH1 0xFF AND ISZERO ISZERO EQ PUSH2 0x5D4 JUMPI PUSH1 0x40 MLOAD PUSH32 0x8C379A000000000000000000000000000000000000000000000000000000000 DUP2 MSTORE PUSH1 0x4 ADD PUSH2 0x5CB SWAP1 PUSH2 0x1277 JUMP JUMPDEST PUSH1 0x40 MLOAD DUP1 SWAP2 SUB SWAP1 REVERT JUMPDEST PUSH1 0x1 ISZERO ISZERO DUP2 ISZERO ISZERO SUB PUSH2 0x68C JUMPI PUSH1 0x1 PUSH0 DUP4 PUSH1 0x40 MLOAD PUSH2 0x5F1 SWAP2 SWAP1 PUSH2 0xECA JUMP JUMPDEST SWAP1 DUP2 MSTORE PUSH1 0x20 ADD PUSH1 0x40 MLOAD DUP1 SWAP2 SUB SWAP1 KECCAK256 PUSH1 0x4 ADD PUSH0 DUP3 DUP3 SLOAD PUSH2 0x610 SWAP2 SWAP1 PUSH2 0x1295 JUMP JUMPDEST SWAP3 POP POP DUP2 SWAP1 SSTORE POP PUSH1 0x1 DUP1 PUSH0 CALLER PUSH20 0xFFFFFFFFFFFFFFFFFFFFFFFFFFFFFFFFFFFFFFFF AND PUSH20 0xFFFFFFFFFFFFFFFFFFFFFFFFFFFFFFFFFFFFFFFF AND DUP2 MSTORE PUSH1 0x20 ADD SWAP1 DUP2 MSTORE PUSH1 0x20 ADD PUSH0 KECCAK256 DUP4 PUSH1 0x40 MLOAD PUSH2 0x663 SWAP2 SWAP1 PUSH2 0xECA JUMP JUMPDEST SWAP1 DUP2 MSTORE PUSH1 0x20 ADD PUSH1 0x40 MLOAD DUP1 SWAP2 SUB SWAP1 KECCAK256 PUSH0 PUSH2 0x100 EXP DUP2 SLOAD DUP2 PUSH1 0xFF MUL NOT AND SWAP1 DUP4 ISZERO ISZERO MUL OR SWAP1 SSTORE POP PUSH2 0x734 JUMP JUMPDEST PUSH1 0x1 PUSH0 DUP4 PUSH1 0x40 MLOAD PUSH2 0x69D SWAP2 SWAP1 PUSH2 0xECA JUMP JUMPDEST SWAP1 DUP2 MSTORE PUSH1 0x20 ADD PUSH1 0x40 MLOAD DUP1 SWAP2 SUB SWAP1 KECCAK256 PUSH1 0x5 ADD PUSH0 DUP3 DUP3 SLOAD PUSH2 0x6BC SWAP2 SWAP1 PUSH2 0x1295 JUMP JUMPDEST SWAP3 POP POP DUP2 SWAP1 SSTORE POP PUSH1 0x1 DUP1 PUSH0 CALLER PUSH20 0xFFFFFFFFFFFFFFFFFFFFFFFFFFFFFFFFFFFFFFFF AND PUSH20 0xFFFFFFFFFFFFFFFFFFFFFFFFFFFFFFFFFFFFFFFF AND DUP2 MSTORE PUSH1 0x20 ADD SWAP1 DUP2 MSTORE PUSH1 0x20 ADD PUSH0 KECCAK256 DUP4 PUSH1 0x40 MLOAD PUSH2 0x70F SWAP2 SWAP1 PUSH2 0xECA JUMP JUMPDEST SWAP1 DUP2 MSTORE PUSH1 0x20 ADD PUSH1 0x40 MLOAD DUP1 SWAP2 SUB SWAP1 KECCAK256 PUSH0 PUSH2 0x100 EXP DUP2 SLOAD DUP2 PUSH1 0xFF MUL NOT AND SWAP1 DUP4 ISZERO ISZERO MUL OR SWAP1 SSTORE POP JUMPDEST POP POP JUMP JUMPDEST PUSH1 0x40 MLOAD DUP1 PUSH1 0x40 ADD PUSH1 0x40 MSTORE DUP1 DUP3 DUP2 MSTORE PUSH1 0x20 ADD CALLER PUSH20 0xFFFFFFFFFFFFFFFFFFFFFFFFFFFFFFFFFFFFFFFF AND DUP2 MSTORE POP PUSH1 0x2 DUP3 PUSH1 0x40 MLOAD PUSH2 0x773 SWAP2 SWAP1 PUSH2 0xECA JUMP JUMPDEST SWAP1 DUP2 MSTORE PUSH1 0x20 ADD PUSH1 0x40 MLOAD DUP1 SWAP2 SUB SWAP1 KECCAK256 PUSH0 DUP3 ADD MLOAD DUP2 PUSH0 ADD SWAP1 DUP2 PUSH2 0x794 SWAP2 SWAP1 PUSH2 0x10DA JUMP JUMPDEST POP PUSH1 0x20 DUP3 ADD MLOAD DUP2 PUSH1 0x1 ADD PUSH0 PUSH2 0x100 EXP DUP2 SLOAD DUP2 PUSH20 0xFFFFFFFFFFFFFFFFFFFFFFFFFFFFFFFFFFFFFFFF MUL NOT AND SWAP1 DUP4 PUSH20 0xFFFFFFFFFFFFFFFFFFFFFFFFFFFFFFFFFFFFFFFF AND MUL OR SWAP1 SSTORE POP SWAP1 POP POP POP JUMP JUMPDEST PUSH1 0x60 PUSH0 PUSH1 0x3 SLOAD PUSH8 0xFFFFFFFFFFFFFFFF DUP2 GT ISZERO PUSH2 0x800 JUMPI PUSH2 0x7FF PUSH2 0x8FA JUMP JUMPDEST JUMPDEST PUSH1 0x40 MLOAD SWAP1 DUP1 DUP3 MSTORE DUP1 PUSH1 0x20 MUL PUSH1 0x20 ADD DUP3 ADD PUSH1 0x40 MSTORE DUP1 ISZERO PUSH2 0x839 JUMPI DUP2 PUSH1 0x20 ADD JUMPDEST PUSH2 0x826 PUSH2 0x889 JUMP JUMPDEST DUP2 MSTORE PUSH1 0x20 ADD SWAP1 PUSH1 0x1 SWAP1 SUB SWAP1 DUP2 PUSH2 0x81E JUMPI SWAP1 POP JUMPDEST POP SWAP1 POP PUSH0 JUMPDEST PUSH1 0x3 SLOAD DUP2 LT ISZERO PUSH2 0x855 JUMPI DUP1 DUP1 PUSH1 0x1 ADD SWAP2 POP POP PUSH2 0x83E JUMP JUMPDEST POP POP SWAP1 JUMP JUMPDEST PUSH1 0x40 MLOAD DUP1 PUSH1 0x40 ADD PUSH1 0x40 MSTORE DUP1 PUSH1 0x60 DUP2 MSTORE PUSH1 0x20 ADD PUSH0 PUSH20 0xFFFFFFFFFFFFFFFFFFFFFFFFFFFFFFFFFFFFFFFF AND DUP2 MSTORE POP SWAP1 JUMP JUMPDEST PUSH1 0x40 MLOAD DUP1 PUSH1 0xC0 ADD PUSH1 0x40 MSTORE DUP1 PUSH0 DUP2 MSTORE PUSH1 0x20 ADD PUSH1 0x60 DUP2 MSTORE PUSH1 0x20 ADD PUSH1 0x60 DUP2 MSTORE PUSH1 0x20 ADD PUSH0 PUSH20 0xFFFFFFFFFFFFFFFFFFFFFFFFFFFFFFFFFFFFFFFF AND DUP2 MSTORE PUSH1 0x20 ADD PUSH0 DUP2 MSTORE PUSH1 0x20 ADD PUSH0 DUP2 MSTORE POP SWAP1 JUMP JUMPDEST PUSH0 PUSH1 0x40 MLOAD SWAP1 POP SWAP1 JUMP JUMPDEST PUSH0 DUP1 REVERT JUMPDEST PUSH0 DUP1 REVERT JUMPDEST PUSH0 DUP1 REVERT JUMPDEST PUSH0 DUP1 REVERT JUMPDEST PUSH0 PUSH1 0x1F NOT PUSH1 0x1F DUP4 ADD AND SWAP1 POP SWAP2 SWAP1 POP JUMP JUMPDEST PUSH32 0x4E487B7100000000000000000000000000000000000000000000000000000000 PUSH0 MSTORE PUSH1 0x41 PUSH1 0x4 MSTORE PUSH1 0x24 PUSH0 REVERT JUMPDEST PUSH2 0x930 DUP3 PUSH2 0x8EA JUMP JUMPDEST DUP2 ADD DUP2 DUP2 LT PUSH8 0xFFFFFFFFFFFFFFFF DUP3 GT OR ISZERO PUSH2 0x94F JUMPI PUSH2 0x94E PUSH2 0x8FA JUMP JUMPDEST JUMPDEST DUP1 PUSH1 0x40 MSTORE POP POP POP JUMP JUMPDEST PUSH0 PUSH2 0x961 PUSH2 0x8D1 JUMP JUMPDEST SWAP1 POP PUSH2 0x96D DUP3 DUP3 PUSH2 0x927 JUMP JUMPDEST SWAP2 SWAP1 POP JUMP JUMPDEST PUSH0 PUSH8 0xFFFFFFFFFFFFFFFF DUP3 GT ISZERO PUSH2 0x98C JUMPI PUSH2 0x98B PUSH2 0x8FA JUMP JUMPDEST JUMPDEST PUSH2 0x995 DUP3 PUSH2 0x8EA JUMP JUMPDEST SWAP1 POP PUSH1 0x20 DUP2 ADD SWAP1 POP SWAP2 SWAP1 POP JUMP JUMPDEST DUP3 DUP2 DUP4 CALLDATACOPY PUSH0 DUP4 DUP4 ADD MSTORE POP POP POP JUMP JUMPDEST PUSH0 PUSH2 0x9C2 PUSH2 0x9BD DUP5 PUSH2 0x972 JUMP JUMPDEST PUSH2 0x958 JUMP JUMPDEST SWAP1 POP DUP3 DUP2 MSTORE PUSH1 0x20 DUP2 ADD DUP5 DUP5 DUP5 ADD GT ISZERO PUSH2 0x9DE JUMPI PUSH2 0x9DD PUSH2 0x8E6 JUMP JUMPDEST JUMPDEST PUSH2 0x9E9 DUP5 DUP3 DUP6 PUSH2 0x9A2 JUMP JUMPDEST POP SWAP4 SWAP3 POP POP POP JUMP JUMPDEST PUSH0 DUP3 PUSH1 0x1F DUP4 ADD SLT PUSH2 0xA05 JUMPI PUSH2 0xA04 PUSH2 0x8E2 JUMP JUMPDEST JUMPDEST DUP2 CALLDATALOAD PUSH2 0xA15 DUP5 DUP3 PUSH1 0x20 DUP7 ADD PUSH2 0x9B0 JUMP JUMPDEST SWAP2 POP POP SWAP3 SWAP2 POP POP JUMP JUMPDEST PUSH0 PUSH1 0x20 DUP3 DUP5 SUB SLT ISZERO PUSH2 0xA33 JUMPI PUSH2 0xA32 PUSH2 0x8DA JUMP JUMPDEST JUMPDEST PUSH0 DUP3 ADD CALLDATALOAD PUSH8 0xFFFFFFFFFFFFFFFF DUP2 GT ISZERO PUSH2 0xA50 JUMPI PUSH2 0xA4F PUSH2 0x8DE JUMP JUMPDEST JUMPDEST PUSH2 0xA5C DUP5 DUP3 DUP6 ADD PUSH2 0x9F1 JUMP JUMPDEST SWAP2 POP POP SWAP3 SWAP2 POP POP JUMP JUMPDEST PUSH0 DUP2 MLOAD SWAP1 POP SWAP2 SWAP1 POP JUMP JUMPDEST PUSH0 DUP3 DUP3 MSTORE PUSH1 0x20 DUP3 ADD SWAP1 POP SWAP3 SWAP2 POP POP JUMP JUMPDEST DUP3 DUP2 DUP4 MCOPY PUSH0 DUP4 DUP4 ADD MSTORE POP POP POP JUMP JUMPDEST PUSH0 PUSH2 0xA97 DUP3 PUSH2 0xA65 JUMP JUMPDEST PUSH2 0xAA1 DUP2 DUP6 PUSH2 0xA6F JUMP JUMPDEST SWAP4 POP PUSH2 0xAB1 DUP2 DUP6 PUSH1 0x20 DUP7 ADD PUSH2 0xA7F JUMP JUMPDEST PUSH2 0xABA DUP2 PUSH2 0x8EA JUMP JUMPDEST DUP5 ADD SWAP2 POP POP SWAP3 SWAP2 POP POP JUMP JUMPDEST PUSH0 PUSH20 0xFFFFFFFFFFFFFFFFFFFFFFFFFFFFFFFFFFFFFFFF DUP3 AND SWAP1 POP SWAP2 SWAP1 POP JUMP JUMPDEST PUSH0 PUSH2 0xAEE DUP3 PUSH2 0xAC5 JUMP JUMPDEST SWAP1 POP SWAP2 SWAP1 POP JUMP JUMPDEST PUSH2 0xAFE DUP2 PUSH2 0xAE4 JUMP JUMPDEST DUP3 MSTORE POP POP JUMP JUMPDEST PUSH0 PUSH1 0x40 DUP4 ADD PUSH0 DUP4 ADD MLOAD DUP5 DUP3 SUB PUSH0 DUP7 ADD MSTORE PUSH2 0xB1E DUP3 DUP3 PUSH2 0xA8D JUMP JUMPDEST SWAP2 POP POP PUSH1 0x20 DUP4 ADD MLOAD PUSH2 0xB33 PUSH1 0x20 DUP7 ADD DUP3 PUSH2 0xAF5 JUMP JUMPDEST POP DUP1 SWAP2 POP POP SWAP3 SWAP2 POP POP JUMP JUMPDEST PUSH0 PUSH1 0x20 DUP3 ADD SWAP1 POP DUP2 DUP2 SUB PUSH0 DUP4 ADD MSTORE PUSH2 0xB56 DUP2 DUP5 PUSH2 0xB04 JUMP JUMPDEST SWAP1 POP SWAP3 SWAP2 POP POP JUMP JUMPDEST PUSH0 DUP2 SWAP1 POP SWAP2 SWAP1 POP JUMP JUMPDEST PUSH2 0xB70 DUP2 PUSH2 0xB5E JUMP JUMPDEST DUP3 MSTORE POP POP JUMP JUMPDEST PUSH0 PUSH1 0xC0 DUP4 ADD PUSH0 DUP4 ADD MLOAD PUSH2 0xB8B PUSH0 DUP7 ADD DUP3 PUSH2 0xB67 JUMP JUMPDEST POP PUSH1 0x20 DUP4 ADD MLOAD DUP5 DUP3 SUB PUSH1 0x20 DUP7 ADD MSTORE PUSH2 0xBA3 DUP3 DUP3 PUSH2 0xA8D JUMP JUMPDEST SWAP2 POP POP PUSH1 0x40 DUP4 ADD MLOAD DUP5 DUP3 SUB PUSH1 0x40 DUP7 ADD MSTORE PUSH2 0xBBD DUP3 DUP3 PUSH2 0xA8D JUMP JUMPDEST SWAP2 POP POP PUSH1 0x60 DUP4 ADD MLOAD PUSH2 0xBD2 PUSH1 0x60 DUP7 ADD DUP3 PUSH2 0xAF5 JUMP JUMPDEST POP PUSH1 0x80 DUP4 ADD MLOAD PUSH2 0xBE5 PUSH1 0x80 DUP7 ADD DUP3 PUSH2 0xB67 JUMP JUMPDEST POP PUSH1 0xA0 DUP4 ADD MLOAD PUSH2 0xBF8 PUSH1 0xA0 DUP7 ADD DUP3 PUSH2 0xB67 JUMP JUMPDEST POP DUP1 SWAP2 POP POP SWAP3 SWAP2 POP POP JUMP JUMPDEST PUSH0 PUSH1 0x20 DUP3 ADD SWAP1 POP DUP2 DUP2 SUB PUSH0 DUP4 ADD MSTORE PUSH2 0xC1B DUP2 DUP5 PUSH2 0xB76 JUMP JUMPDEST SWAP1 POP SWAP3 SWAP2 POP POP JUMP JUMPDEST PUSH0 DUP1 PUSH1 0x40 DUP4 DUP6 SUB SLT ISZERO PUSH2 0xC39 JUMPI PUSH2 0xC38 PUSH2 0x8DA JUMP JUMPDEST JUMPDEST PUSH0 DUP4 ADD CALLDATALOAD PUSH8 0xFFFFFFFFFFFFFFFF DUP2 GT ISZERO PUSH2 0xC56 JUMPI PUSH2 0xC55 PUSH2 0x8DE JUMP JUMPDEST JUMPDEST PUSH2 0xC62 DUP6 DUP3 DUP7 ADD PUSH2 0x9F1 JUMP JUMPDEST SWAP3 POP POP PUSH1 0x20 DUP4 ADD CALLDATALOAD PUSH8 0xFFFFFFFFFFFFFFFF DUP2 GT ISZERO PUSH2 0xC83 JUMPI PUSH2 0xC82 PUSH2 0x8DE JUMP JUMPDEST JUMPDEST PUSH2 0xC8F DUP6 DUP3 DUP7 ADD PUSH2 0x9F1 JUMP JUMPDEST SWAP2 POP POP SWAP3 POP SWAP3 SWAP1 POP JUMP JUMPDEST PUSH0 DUP2 ISZERO ISZERO SWAP1 POP SWAP2 SWAP1 POP JUMP JUMPDEST PUSH2 0xCAD DUP2 PUSH2 0xC99 JUMP JUMPDEST DUP2 EQ PUSH2 0xCB7 JUMPI PUSH0 DUP1 REVERT JUMPDEST POP JUMP JUMPDEST PUSH0 DUP2 CALLDATALOAD SWAP1 POP PUSH2 0xCC8 DUP2 PUSH2 0xCA4 JUMP JUMPDEST SWAP3 SWAP2 POP POP JUMP JUMPDEST PUSH0 DUP1 PUSH1 0x40 DUP4 DUP6 SUB SLT ISZERO PUSH2 0xCE4 JUMPI PUSH2 0xCE3 PUSH2 0x8DA JUMP JUMPDEST JUMPDEST PUSH0 DUP4 ADD CALLDATALOAD PUSH8 0xFFFFFFFFFFFFFFFF DUP2 GT ISZERO PUSH2 0xD01 JUMPI PUSH2 0xD00 PUSH2 0x8DE JUMP JUMPDEST JUMPDEST PUSH2 0xD0D DUP6 DUP3 DUP7 ADD PUSH2 0x9F1 JUMP JUMPDEST SWAP3 POP POP PUSH1 0x20 PUSH2 0xD1E DUP6 DUP3 DUP7 ADD PUSH2 0xCBA JUMP JUMPDEST SWAP2 POP POP SWAP3 POP SWAP3 SWAP1 POP JUMP JUMPDEST PUSH0 DUP2 MLOAD SWAP1 POP SWAP2 SWAP1 POP JUMP JUMPDEST PUSH0 DUP3 DUP3 MSTORE PUSH1 0x20 DUP3 ADD SWAP1 POP SWAP3 SWAP2 POP POP JUMP JUMPDEST PUSH0 DUP2 SWAP1 POP PUSH1 0x20 DUP3 ADD SWAP1 POP SWAP2 SWAP1 POP JUMP JUMPDEST PUSH0 PUSH1 0xC0 DUP4 ADD PUSH0 DUP4 ADD MLOAD PUSH2 0xD66 PUSH0 DUP7 ADD DUP3 PUSH2 0xB67 JUMP JUMPDEST POP PUSH1 0x20 DUP4 ADD MLOAD DUP5 DUP3 SUB PUSH1 0x20 DUP7 ADD MSTORE PUSH2 0xD7E DUP3 DUP3 PUSH2 0xA8D JUMP JUMPDEST SWAP2 POP POP PUSH1 0x40 DUP4 ADD MLOAD DUP5 DUP3 SUB PUSH1 0x40 DUP7 ADD MSTORE PUSH2 0xD98 DUP3 DUP3 PUSH2 0xA8D JUMP JUMPDEST SWAP2 POP POP PUSH1 0x60 DUP4 ADD MLOAD PUSH2 0xDAD PUSH1 0x60 DUP7 ADD DUP3 PUSH2 0xAF5 JUMP JUMPDEST POP PUSH1 0x80 DUP4 ADD MLOAD PUSH2 0xDC0 PUSH1 0x80 DUP7 ADD DUP3 PUSH2 0xB67 JUMP JUMPDEST POP PUSH1 0xA0 DUP4 ADD MLOAD PUSH2 0xDD3 PUSH1 0xA0 DUP7 ADD DUP3 PUSH2 0xB67 JUMP JUMPDEST POP DUP1 SWAP2 POP POP SWAP3 SWAP2 POP POP JUMP JUMPDEST PUSH0 PUSH2 0xDE9 DUP4 DUP4 PUSH2 0xD51 JUMP JUMPDEST SWAP1 POP SWAP3 SWAP2 POP POP JUMP JUMPDEST PUSH0 PUSH1 0x20 DUP3 ADD SWAP1 POP SWAP2 SWAP1 POP JUMP JUMPDEST PUSH0 PUSH2 0xE07 DUP3 PUSH2 0xD28 JUMP JUMPDEST PUSH2 0xE11 DUP2 DUP6 PUSH2 0xD32 JUMP JUMPDEST SWAP4 POP DUP4 PUSH1 0x20 DUP3 MUL DUP6 ADD PUSH2 0xE23 DUP6 PUSH2 0xD42 JUMP JUMPDEST DUP1 PUSH0 JUMPDEST DUP6 DUP2 LT ISZERO PUSH2 0xE5E JUMPI DUP5 DUP5 SUB DUP10 MSTORE DUP2 MLOAD PUSH2 0xE3F DUP6 DUP3 PUSH2 0xDDE JUMP JUMPDEST SWAP5 POP PUSH2 0xE4A DUP4 PUSH2 0xDF1 JUMP JUMPDEST SWAP3 POP PUSH1 0x20 DUP11 ADD SWAP10 POP POP PUSH1 0x1 DUP2 ADD SWAP1 POP PUSH2 0xE26 JUMP JUMPDEST POP DUP3 SWAP8 POP DUP8 SWAP6 POP POP POP POP POP POP SWAP3 SWAP2 POP POP JUMP JUMPDEST PUSH0 PUSH1 0x20 DUP3 ADD SWAP1 POP DUP2 DUP2 SUB PUSH0 DUP4 ADD MSTORE PUSH2 0xE88 DUP2 DUP5 PUSH2 0xDFD JUMP JUMPDEST SWAP1 POP SWAP3 SWAP2 POP POP JUMP JUMPDEST PUSH0 DUP2 SWAP1 POP SWAP3 SWAP2 POP POP JUMP JUMPDEST PUSH0 PUSH2 0xEA4 DUP3 PUSH2 0xA65 JUMP JUMPDEST PUSH2 0xEAE DUP2 DUP6 PUSH2 0xE90 JUMP JUMPDEST SWAP4 POP PUSH2 0xEBE DUP2 DUP6 PUSH1 0x20 DUP7 ADD PUSH2 0xA7F JUMP JUMPDEST DUP1 DUP5 ADD SWAP2 POP POP SWAP3 SWAP2 POP POP JUMP JUMPDEST PUSH0 PUSH2 0xED5 DUP3 DUP5 PUSH2 0xE9A JUMP JUMPDEST SWAP2 POP DUP2 SWAP1 POP SWAP3 SWAP2 POP POP JUMP JUMPDEST PUSH32 0x4E487B7100000000000000000000000000000000000000000000000000000000 PUSH0 MSTORE PUSH1 0x22 PUSH1 0x4 MSTORE PUSH1 0x24 PUSH0 REVERT JUMPDEST PUSH0 PUSH1 0x2 DUP3 DIV SWAP1 POP PUSH1 0x1 DUP3 AND DUP1 PUSH2 0xF24 JUMPI PUSH1 0x7F DUP3 AND SWAP2 POP JUMPDEST PUSH1 0x20 DUP3 LT DUP2 SUB PUSH2 0xF37 JUMPI PUSH2 0xF36 PUSH2 0xEE0 JUMP JUMPDEST JUMPDEST POP SWAP2 SWAP1 POP JUMP JUMPDEST PUSH0 DUP2 SWAP1 POP DUP2 PUSH0 MSTORE PUSH1 0x20 PUSH0 KECCAK256 SWAP1 POP SWAP2 SWAP1 POP JUMP JUMPDEST PUSH0 PUSH1 0x20 PUSH1 0x1F DUP4 ADD DIV SWAP1 POP SWAP2 SWAP1 POP JUMP JUMPDEST PUSH0 DUP3 DUP3 SHL SWAP1 POP SWAP3 SWAP2 POP POP JUMP JUMPDEST PUSH0 PUSH1 0x8 DUP4 MUL PUSH2 0xF99 PUSH32 0xFFFFFFFFFFFFFFFFFFFFFFFFFFFFFFFFFFFFFFFFFFFFFFFFFFFFFFFFFFFFFFFF DUP3 PUSH2 0xF5E JUMP JUMPDEST PUSH2 0xFA3 DUP7 DUP4 PUSH2 0xF5E JUMP JUMPDEST SWAP6 POP DUP1 NOT DUP5 AND SWAP4 POP DUP1 DUP7 AND DUP5 OR SWAP3 POP POP POP SWAP4 SWAP3 POP POP POP JUMP JUMPDEST PUSH0 DUP2 SWAP1 POP SWAP2 SWAP1 POP JUMP JUMPDEST PUSH0 PUSH2 0xFDE PUSH2 0xFD9 PUSH2 0xFD4 DUP5 PUSH2 0xB5E JUMP JUMPDEST PUSH2 0xFBB JUMP JUMPDEST PUSH2 0xB5E JUMP JUMPDEST SWAP1 POP SWAP2 SWAP1 POP JUMP JUMPDEST PUSH0 DUP2 SWAP1 POP SWAP2 SWAP1 POP JUMP JUMPDEST PUSH2 0xFF7 DUP4 PUSH2 0xFC4 JUMP JUMPDEST PUSH2 0x100B PUSH2 0x1003 DUP3 PUSH2 0xFE5 JUMP JUMPDEST DUP5 DUP5 SLOAD PUSH2 0xF6A JUMP JUMPDEST DUP3 SSTORE POP POP POP POP JUMP JUMPDEST PUSH0 SWAP1 JUMP JUMPDEST PUSH2 0x101F PUSH2 0x1013 JUMP JUMPDEST PUSH2 0x102A DUP2 DUP5 DUP5 PUSH2 0xFEE JUMP JUMPDEST POP POP POP JUMP JUMPDEST JUMPDEST DUP2 DUP2 LT ISZERO PUSH2 0x104D JUMPI PUSH2 0x1042 PUSH0 DUP3 PUSH2 0x1017 JUMP JUMPDEST PUSH1 0x1 DUP2 ADD SWAP1 POP PUSH2 0x1030 JUMP JUMPDEST POP POP JUMP JUMPDEST PUSH1 0x1F DUP3 GT ISZERO PUSH2 0x1092 JUMPI PUSH2 0x1063 DUP2 PUSH2 0xF3D JUMP JUMPDEST PUSH2 0x106C DUP5 PUSH2 0xF4F JUMP JUMPDEST DUP2 ADD PUSH1 0x20 DUP6 LT ISZERO PUSH2 0x107B JUMPI DUP2 SWAP1 POP JUMPDEST PUSH2 0x108F PUSH2 0x1087 DUP6 PUSH2 0xF4F JUMP JUMPDEST DUP4 ADD DUP3 PUSH2 0x102F JUMP JUMPDEST POP POP JUMPDEST POP POP POP JUMP JUMPDEST PUSH0 DUP3 DUP3 SHR SWAP1 POP SWAP3 SWAP2 POP POP JUMP JUMPDEST PUSH0 PUSH2 0x10B2 PUSH0 NOT DUP5 PUSH1 0x8 MUL PUSH2 0x1097 JUMP JUMPDEST NOT DUP1 DUP4 AND SWAP2 POP POP SWAP3 SWAP2 POP POP JUMP JUMPDEST PUSH0 PUSH2 0x10CA DUP4 DUP4 PUSH2 0x10A3 JUMP JUMPDEST SWAP2 POP DUP3 PUSH1 0x2 MUL DUP3 OR SWAP1 POP SWAP3 SWAP2 POP POP JUMP JUMPDEST PUSH2 0x10E3 DUP3 PUSH2 0xA65 JUMP JUMPDEST PUSH8 0xFFFFFFFFFFFFFFFF DUP2 GT ISZERO PUSH2 0x10FC JUMPI PUSH2 0x10FB PUSH2 0x8FA JUMP JUMPDEST JUMPDEST PUSH2 0x1106 DUP3 SLOAD PUSH2 0xF0D JUMP JUMPDEST PUSH2 0x1111 DUP3 DUP3 DUP6 PUSH2 0x1051 JUMP JUMPDEST PUSH0 PUSH1 0x20 SWAP1 POP PUSH1 0x1F DUP4 GT PUSH1 0x1 DUP2 EQ PUSH2 0x1142 JUMPI PUSH0 DUP5 ISZERO PUSH2 0x1130 JUMPI DUP3 DUP8 ADD MLOAD SWAP1 POP JUMPDEST PUSH2 0x113A DUP6 DUP3 PUSH2 0x10BF JUMP JUMPDEST DUP7 SSTORE POP PUSH2 0x11A1 JUMP JUMPDEST PUSH1 0x1F NOT DUP5 AND PUSH2 0x1150 DUP7 PUSH2 0xF3D JUMP JUMPDEST PUSH0 JUMPDEST DUP3 DUP2 LT ISZERO PUSH2 0x1177 JUMPI DUP5 DUP10 ADD MLOAD DUP3 SSTORE PUSH1 0x1 DUP3 ADD SWAP2 POP PUSH1 0x20 DUP6 ADD SWAP5 POP PUSH1 0x20 DUP2 ADD SWAP1 POP PUSH2 0x1152 JUMP JUMPDEST DUP7 DUP4 LT ISZERO PUSH2 0x1194 JUMPI DUP5 DUP10 ADD MLOAD PUSH2 0x1190 PUSH1 0x1F DUP10 AND DUP3 PUSH2 0x10A3 JUMP JUMPDEST DUP4 SSTORE POP JUMPDEST PUSH1 0x1 PUSH1 0x2 DUP9 MUL ADD DUP9 SSTORE POP POP POP JUMPDEST POP POP POP POP POP POP JUMP JUMPDEST PUSH32 0x4E487B7100000000000000000000000000000000000000000000000000000000 PUSH0 MSTORE PUSH1 0x11 PUSH1 0x4 MSTORE PUSH1 0x24 PUSH0 REVERT JUMPDEST PUSH0 PUSH2 0x11E0 DUP3 PUSH2 0xB5E JUMP JUMPDEST SWAP2 POP PUSH32 0xFFFFFFFFFFFFFFFFFFFFFFFFFFFFFFFFFFFFFFFFFFFFFFFFFFFFFFFFFFFFFFFF DUP3 SUB PUSH2 0x1212 JUMPI PUSH2 0x1211 PUSH2 0x11A9 JUMP JUMPDEST JUMPDEST PUSH1 0x1 DUP3 ADD SWAP1 POP SWAP2 SWAP1 POP JUMP JUMPDEST PUSH0 DUP3 DUP3 MSTORE PUSH1 0x20 DUP3 ADD SWAP1 POP SWAP3 SWAP2 POP POP JUMP JUMPDEST PUSH32 0x616C726561647920766F74656400000000000000000000000000000000000000 PUSH0 DUP3 ADD MSTORE POP JUMP JUMPDEST PUSH0 PUSH2 0x1261 PUSH1 0xD DUP4 PUSH2 0x121D JUMP JUMPDEST SWAP2 POP PUSH2 0x126C DUP3 PUSH2 0x122D JUMP JUMPDEST PUSH1 0x20 DUP3 ADD SWAP1 POP SWAP2 SWAP1 POP JUMP JUMPDEST PUSH0 PUSH1 0x20 DUP3 ADD SWAP1 POP DUP2 DUP2 SUB PUSH0 DUP4 ADD MSTORE PUSH2 0x128E DUP2 PUSH2 0x1255 JUMP JUMPDEST SWAP1 POP SWAP2 SWAP1 POP JUMP JUMPDEST PUSH0 PUSH2 0x129F DUP3 PUSH2 0xB5E JUMP JUMPDEST SWAP2 POP PUSH2 0x12AA DUP4 PUSH2 0xB5E JUMP JUMPDEST SWAP3 POP DUP3 DUP3 ADD SWAP1 POP DUP1 DUP3 GT ISZERO PUSH2 0x12C2 JUMPI PUSH2 0x12C1 PUSH2 0x11A9 JUMP JUMPDEST JUMPDEST SWAP3 SWAP2 POP POP JUMP INVALID LOG2 PUSH5 0x6970667358 0x22 SLT KECCAK256 0xEE 0xBF NOT DUP9 SDIV PUSH29 0x6241949C497EEB5B4F69B541A7823273BE92814B58618A083CE664736F PUSH13 0x63430008190033000000000000 "
				},
				"gasEstimates": {
					"creation": {
						"codeDepositCost": "972400",
						"executionCost": "1006",
						"totalCost": "973406"
					},
					"external": {
						"getTopic(string)": "infinite",
						"getTopics()": "infinite",
						"getUser(string)": "infinite",
						"setTopic(string,string)": "infinite",
						"setUser(string)": "infinite",
						"voting(string,bool)": "infinite"
					}
				},
				"methodIdentifiers": {
					"getTopic(string)": "474502d8",
					"getTopics()": "fee01177",
					"getUser(string)": "31feb671",
					"setTopic(string,string)": "4ac3e917",
					"setUser(string)": "d0020fad",
					"voting(string,bool)": "4da8d7ef"
				}
			},
			"storageLayout": {
				"storage": [
					{
						"astId": 19,
						"contract": "solidity_test/test8.sol:a",
						"label": "topics",
						"offset": 0,
						"slot": "0",
						"type": "t_mapping(t_string_memory_ptr,t_struct(topic)14_storage)"
					},
					{
						"astId": 30,
						"contract": "solidity_test/test8.sol:a",
						"label": "vote",
						"offset": 0,
						"slot": "1",
						"type": "t_mapping(t_address,t_mapping(t_string_memory_ptr,t_bool))"
					},
					{
						"astId": 35,
						"contract": "solidity_test/test8.sol:a",
						"label": "users",
						"offset": 0,
						"slot": "2",
						"type": "t_mapping(t_string_memory_ptr,t_struct(user)24_storage)"
					},
					{
						"astId": 37,
						"contract": "solidity_test/test8.sol:a",
						"label": "topicNum",
						"offset": 0,
						"slot": "3",
						"type": "t_uint256"
					}
				],
				"types": {
					"t_address": {
						"encoding": "inplace",
						"label": "address",
						"numberOfBytes": "20"
					},
					"t_bool": {
						"encoding": "inplace",
						"label": "bool",
						"numberOfBytes": "1"
					},
					"t_mapping(t_address,t_mapping(t_string_memory_ptr,t_bool))": {
						"encoding": "mapping",
						"key": "t_address",
						"label": "mapping(address => mapping(string => bool))",
						"numberOfBytes": "32",
						"value": "t_mapping(t_string_memory_ptr,t_bool)"
					},
					"t_mapping(t_string_memory_ptr,t_bool)": {
						"encoding": "mapping",
						"key": "t_string_memory_ptr",
						"label": "mapping(string => bool)",
						"numberOfBytes": "32",
						"value": "t_bool"
					},
					"t_mapping(t_string_memory_ptr,t_struct(topic)14_storage)": {
						"encoding": "mapping",
						"key": "t_string_memory_ptr",
						"label": "mapping(string => struct a.topic)",
						"numberOfBytes": "32",
						"value": "t_struct(topic)14_storage"
					},
					"t_mapping(t_string_memory_ptr,t_struct(user)24_storage)": {
						"encoding": "mapping",
						"key": "t_string_memory_ptr",
						"label": "mapping(string => struct a.user)",
						"numberOfBytes": "32",
						"value": "t_struct(user)24_storage"
					},
					"t_string_memory_ptr": {
						"encoding": "bytes",
						"label": "string",
						"numberOfBytes": "32"
					},
					"t_string_storage": {
						"encoding": "bytes",
						"label": "string",
						"numberOfBytes": "32"
					},
					"t_struct(topic)14_storage": {
						"encoding": "inplace",
						"label": "struct a.topic",
						"members": [
							{
								"astId": 3,
								"contract": "solidity_test/test8.sol:a",
								"label": "number",
								"offset": 0,
								"slot": "0",
								"type": "t_uint256"
							},
							{
								"astId": 5,
								"contract": "solidity_test/test8.sol:a",
								"label": "subject",
								"offset": 0,
								"slot": "1",
								"type": "t_string_storage"
							},
							{
								"astId": 7,
								"contract": "solidity_test/test8.sol:a",
								"label": "content",
								"offset": 0,
								"slot": "2",
								"type": "t_string_storage"
							},
							{
								"astId": 9,
								"contract": "solidity_test/test8.sol:a",
								"label": "proposer",
								"offset": 0,
								"slot": "3",
								"type": "t_address"
							},
							{
								"astId": 11,
								"contract": "solidity_test/test8.sol:a",
								"label": "upvote",
								"offset": 0,
								"slot": "4",
								"type": "t_uint256"
							},
							{
								"astId": 13,
								"contract": "solidity_test/test8.sol:a",
								"label": "downvote",
								"offset": 0,
								"slot": "5",
								"type": "t_uint256"
							}
						],
						"numberOfBytes": "192"
					},
					"t_struct(user)24_storage": {
						"encoding": "inplace",
						"label": "struct a.user",
						"members": [
							{
								"astId": 21,
								"contract": "solidity_test/test8.sol:a",
								"label": "name",
								"offset": 0,
								"slot": "0",
								"type": "t_string_storage"
							},
							{
								"astId": 23,
								"contract": "solidity_test/test8.sol:a",
								"label": "wallet",
								"offset": 0,
								"slot": "1",
								"type": "t_address"
							}
						],
						"numberOfBytes": "64"
					},
					"t_uint256": {
						"encoding": "inplace",
						"label": "uint256",
						"numberOfBytes": "32"
					}
				}
			},
			"userdoc": {
				"kind": "user",
				"methods": {},
				"version": 1
			}
		}
	}
}