{
	"solidity_test/test3.sol": {
		"TEST3": {
			"abi": [
				{
					"inputs": [
						{
							"internalType": "string",
							"name": "_id",
							"type": "string"
						},
						{
							"internalType": "string",
							"name": "_pw",
							"type": "string"
						}
					],
					"name": "isLogin",
					"outputs": [
						{
							"internalType": "bool",
							"name": "",
							"type": "bool"
						}
					],
					"stateMutability": "view",
					"type": "function"
				},
				{
					"inputs": [
						{
							"internalType": "string",
							"name": "_id",
							"type": "string"
						},
						{
							"internalType": "string",
							"name": "_pw",
							"type": "string"
						}
					],
					"name": "signUp",
					"outputs": [],
					"stateMutability": "nonpayable",
					"type": "function"
				}
			],
			"devdoc": {
				"kind": "dev",
				"methods": {},
				"version": 1
			},
			"evm": {
				"assembly": "    /* \"solidity_test/test3.sol\":75:1950  contract TEST3 {... */\n  mstore(0x40, 0x80)\n  callvalue\n  dup1\n  iszero\n  tag_1\n  jumpi\n  0x00\n  dup1\n  revert\ntag_1:\n  pop\n  dataSize(sub_0)\n  dup1\n  dataOffset(sub_0)\n  0x00\n  codecopy\n  0x00\n  return\nstop\n\nsub_0: assembly {\n        /* \"solidity_test/test3.sol\":75:1950  contract TEST3 {... */\n      mstore(0x40, 0x80)\n      callvalue\n      dup1\n      iszero\n      tag_1\n      jumpi\n      0x00\n      dup1\n      revert\n    tag_1:\n      pop\n      jumpi(tag_2, lt(calldatasize, 0x04))\n      shr(0xe0, calldataload(0x00))\n      dup1\n      0x7c08e38a\n      eq\n      tag_3\n      jumpi\n      dup1\n      0xa469a332\n      eq\n      tag_4\n      jumpi\n    tag_2:\n      0x00\n      dup1\n      revert\n        /* \"solidity_test/test3.sol\":1711:1947  function isLogin(string memory _id, string memory _pw) public view returns(bool){... */\n    tag_3:\n      tag_5\n      0x04\n      dup1\n      calldatasize\n      sub\n      dup2\n      add\n      swap1\n      tag_6\n      swap2\n      swap1\n      tag_7\n      jump\t// in\n    tag_6:\n      tag_8\n      jump\t// in\n    tag_5:\n      mload(0x40)\n      tag_9\n      swap2\n      swap1\n      tag_10\n      jump\t// in\n    tag_9:\n      mload(0x40)\n      dup1\n      swap2\n      sub\n      swap1\n      return\n        /* \"solidity_test/test3.sol\":1574:1703  function signUp(string memory _id, string memory _pw) public {... */\n    tag_4:\n      tag_11\n      0x04\n      dup1\n      calldatasize\n      sub\n      dup2\n      add\n      swap1\n      tag_12\n      swap2\n      swap1\n      tag_7\n      jump\t// in\n    tag_12:\n      tag_13\n      jump\t// in\n    tag_11:\n      stop\n        /* \"solidity_test/test3.sol\":1711:1947  function isLogin(string memory _id, string memory _pw) public view returns(bool){... */\n    tag_8:\n        /* \"solidity_test/test3.sol\":1786:1790  bool */\n      0x00\n        /* \"solidity_test/test3.sol\":1845:1848  _id */\n      dup3\n        /* \"solidity_test/test3.sol\":1850:1853  _pw */\n      dup3\n        /* \"solidity_test/test3.sol\":1828:1854  abi.encodePacked(_id, _pw) */\n      add(0x20, mload(0x40))\n      tag_15\n      swap3\n      swap2\n      swap1\n      tag_16\n      jump\t// in\n    tag_15:\n      mload(0x40)\n      0x20\n      dup2\n      dup4\n      sub\n      sub\n      dup2\n      mstore\n      swap1\n      0x40\n      mstore\n        /* \"solidity_test/test3.sol\":1818:1855  keccak256(abi.encodePacked(_id, _pw)) */\n      dup1\n      mload\n      swap1\n      0x20\n      add\n      keccak256\n        /* \"solidity_test/test3.sol\":1805:1809  user */\n      0x00\n        /* \"solidity_test/test3.sol\":1810:1813  _id */\n      dup5\n        /* \"solidity_test/test3.sol\":1805:1814  user[_id] */\n      mload(0x40)\n      tag_17\n      swap2\n      swap1\n      tag_18\n      jump\t// in\n    tag_17:\n      swap1\n      dup2\n      mstore\n      0x20\n      add\n      mload(0x40)\n      dup1\n      swap2\n      sub\n      swap1\n      keccak256\n      sload\n        /* \"solidity_test/test3.sol\":1805:1855  user[_id] == keccak256(abi.encodePacked(_id, _pw)) */\n      sub\n        /* \"solidity_test/test3.sol\":1802:1940  if(user[_id] == keccak256(abi.encodePacked(_id, _pw))) {... */\n      tag_19\n      jumpi\n        /* \"solidity_test/test3.sol\":1879:1883  true */\n      0x01\n        /* \"solidity_test/test3.sol\":1872:1883  return true */\n      swap1\n      pop\n      jump(tag_14)\n        /* \"solidity_test/test3.sol\":1802:1940  if(user[_id] == keccak256(abi.encodePacked(_id, _pw))) {... */\n    tag_19:\n        /* \"solidity_test/test3.sol\":1923:1928  false */\n      0x00\n        /* \"solidity_test/test3.sol\":1916:1928  return false */\n      swap1\n      pop\n        /* \"solidity_test/test3.sol\":1711:1947  function isLogin(string memory _id, string memory _pw) public view returns(bool){... */\n    tag_14:\n      swap3\n      swap2\n      pop\n      pop\n      jump\t// out\n        /* \"solidity_test/test3.sol\":1574:1703  function signUp(string memory _id, string memory _pw) public {... */\n    tag_13:\n        /* \"solidity_test/test3.sol\":1685:1688  _id */\n      dup2\n        /* \"solidity_test/test3.sol\":1690:1693  _pw */\n      dup2\n        /* \"solidity_test/test3.sol\":1668:1694  abi.encodePacked(_id, _pw) */\n      add(0x20, mload(0x40))\n      tag_22\n      swap3\n      swap2\n      swap1\n      tag_16\n      jump\t// in\n    tag_22:\n      mload(0x40)\n      0x20\n      dup2\n      dup4\n      sub\n      sub\n      dup2\n      mstore\n      swap1\n      0x40\n      mstore\n        /* \"solidity_test/test3.sol\":1658:1695  keccak256(abi.encodePacked(_id, _pw)) */\n      dup1\n      mload\n      swap1\n      0x20\n      add\n      keccak256\n        /* \"solidity_test/test3.sol\":1646:1650  user */\n      0x00\n        /* \"solidity_test/test3.sol\":1651:1654  _id */\n      dup4\n        /* \"solidity_test/test3.sol\":1646:1655  user[_id] */\n      mload(0x40)\n      tag_23\n      swap2\n      swap1\n      tag_18\n      jump\t// in\n    tag_23:\n      swap1\n      dup2\n      mstore\n      0x20\n      add\n      mload(0x40)\n      dup1\n      swap2\n      sub\n      swap1\n      keccak256\n        /* \"solidity_test/test3.sol\":1646:1695  user[_id] = keccak256(abi.encodePacked(_id, _pw)) */\n      dup2\n      swap1\n      sstore\n      pop\n        /* \"solidity_test/test3.sol\":1574:1703  function signUp(string memory _id, string memory _pw) public {... */\n      pop\n      pop\n      jump\t// out\n        /* \"#utility.yul\":7:82   */\n    tag_24:\n        /* \"#utility.yul\":40:46   */\n      0x00\n        /* \"#utility.yul\":73:75   */\n      0x40\n        /* \"#utility.yul\":67:76   */\n      mload\n        /* \"#utility.yul\":57:76   */\n      swap1\n      pop\n        /* \"#utility.yul\":7:82   */\n      swap1\n      jump\t// out\n        /* \"#utility.yul\":88:205   */\n    tag_25:\n        /* \"#utility.yul\":197:198   */\n      0x00\n        /* \"#utility.yul\":194:195   */\n      dup1\n        /* \"#utility.yul\":187:199   */\n      revert\n        /* \"#utility.yul\":211:328   */\n    tag_26:\n        /* \"#utility.yul\":320:321   */\n      0x00\n        /* \"#utility.yul\":317:318   */\n      dup1\n        /* \"#utility.yul\":310:322   */\n      revert\n        /* \"#utility.yul\":334:451   */\n    tag_27:\n        /* \"#utility.yul\":443:444   */\n      0x00\n        /* \"#utility.yul\":440:441   */\n      dup1\n        /* \"#utility.yul\":433:445   */\n      revert\n        /* \"#utility.yul\":457:574   */\n    tag_28:\n        /* \"#utility.yul\":566:567   */\n      0x00\n        /* \"#utility.yul\":563:564   */\n      dup1\n        /* \"#utility.yul\":556:568   */\n      revert\n        /* \"#utility.yul\":580:682   */\n    tag_29:\n        /* \"#utility.yul\":621:627   */\n      0x00\n        /* \"#utility.yul\":672:674   */\n      0x1f\n        /* \"#utility.yul\":668:675   */\n      not\n        /* \"#utility.yul\":663:665   */\n      0x1f\n        /* \"#utility.yul\":656:661   */\n      dup4\n        /* \"#utility.yul\":652:666   */\n      add\n        /* \"#utility.yul\":648:676   */\n      and\n        /* \"#utility.yul\":638:676   */\n      swap1\n      pop\n        /* \"#utility.yul\":580:682   */\n      swap2\n      swap1\n      pop\n      jump\t// out\n        /* \"#utility.yul\":688:868   */\n    tag_30:\n        /* \"#utility.yul\":736:813   */\n      0x4e487b7100000000000000000000000000000000000000000000000000000000\n        /* \"#utility.yul\":733:734   */\n      0x00\n        /* \"#utility.yul\":726:814   */\n      mstore\n        /* \"#utility.yul\":833:837   */\n      0x41\n        /* \"#utility.yul\":830:831   */\n      0x04\n        /* \"#utility.yul\":823:838   */\n      mstore\n        /* \"#utility.yul\":857:861   */\n      0x24\n        /* \"#utility.yul\":854:855   */\n      0x00\n        /* \"#utility.yul\":847:862   */\n      revert\n        /* \"#utility.yul\":874:1155   */\n    tag_31:\n        /* \"#utility.yul\":957:984   */\n      tag_52\n        /* \"#utility.yul\":979:983   */\n      dup3\n        /* \"#utility.yul\":957:984   */\n      tag_29\n      jump\t// in\n    tag_52:\n        /* \"#utility.yul\":949:955   */\n      dup2\n        /* \"#utility.yul\":945:985   */\n      add\n        /* \"#utility.yul\":1087:1093   */\n      dup2\n        /* \"#utility.yul\":1075:1085   */\n      dup2\n        /* \"#utility.yul\":1072:1094   */\n      lt\n        /* \"#utility.yul\":1051:1069   */\n      0xffffffffffffffff\n        /* \"#utility.yul\":1039:1049   */\n      dup3\n        /* \"#utility.yul\":1036:1070   */\n      gt\n        /* \"#utility.yul\":1033:1095   */\n      or\n        /* \"#utility.yul\":1030:1118   */\n      iszero\n      tag_53\n      jumpi\n        /* \"#utility.yul\":1098:1116   */\n      tag_54\n      tag_30\n      jump\t// in\n    tag_54:\n        /* \"#utility.yul\":1030:1118   */\n    tag_53:\n        /* \"#utility.yul\":1138:1148   */\n      dup1\n        /* \"#utility.yul\":1134:1136   */\n      0x40\n        /* \"#utility.yul\":1127:1149   */\n      mstore\n        /* \"#utility.yul\":917:1155   */\n      pop\n        /* \"#utility.yul\":874:1155   */\n      pop\n      pop\n      jump\t// out\n        /* \"#utility.yul\":1161:1290   */\n    tag_32:\n        /* \"#utility.yul\":1195:1201   */\n      0x00\n        /* \"#utility.yul\":1222:1242   */\n      tag_56\n      tag_24\n      jump\t// in\n    tag_56:\n        /* \"#utility.yul\":1212:1242   */\n      swap1\n      pop\n        /* \"#utility.yul\":1251:1284   */\n      tag_57\n        /* \"#utility.yul\":1279:1283   */\n      dup3\n        /* \"#utility.yul\":1271:1277   */\n      dup3\n        /* \"#utility.yul\":1251:1284   */\n      tag_31\n      jump\t// in\n    tag_57:\n        /* \"#utility.yul\":1161:1290   */\n      swap2\n      swap1\n      pop\n      jump\t// out\n        /* \"#utility.yul\":1296:1604   */\n    tag_33:\n        /* \"#utility.yul\":1358:1362   */\n      0x00\n        /* \"#utility.yul\":1448:1466   */\n      0xffffffffffffffff\n        /* \"#utility.yul\":1440:1446   */\n      dup3\n        /* \"#utility.yul\":1437:1467   */\n      gt\n        /* \"#utility.yul\":1434:1490   */\n      iszero\n      tag_59\n      jumpi\n        /* \"#utility.yul\":1470:1488   */\n      tag_60\n      tag_30\n      jump\t// in\n    tag_60:\n        /* \"#utility.yul\":1434:1490   */\n    tag_59:\n        /* \"#utility.yul\":1508:1537   */\n      tag_61\n        /* \"#utility.yul\":1530:1536   */\n      dup3\n        /* \"#utility.yul\":1508:1537   */\n      tag_29\n      jump\t// in\n    tag_61:\n        /* \"#utility.yul\":1500:1537   */\n      swap1\n      pop\n        /* \"#utility.yul\":1592:1596   */\n      0x20\n        /* \"#utility.yul\":1586:1590   */\n      dup2\n        /* \"#utility.yul\":1582:1597   */\n      add\n        /* \"#utility.yul\":1574:1597   */\n      swap1\n      pop\n        /* \"#utility.yul\":1296:1604   */\n      swap2\n      swap1\n      pop\n      jump\t// out\n        /* \"#utility.yul\":1610:1758   */\n    tag_34:\n        /* \"#utility.yul\":1708:1714   */\n      dup3\n        /* \"#utility.yul\":1703:1706   */\n      dup2\n        /* \"#utility.yul\":1698:1701   */\n      dup4\n        /* \"#utility.yul\":1685:1715   */\n      calldatacopy\n        /* \"#utility.yul\":1749:1750   */\n      0x00\n        /* \"#utility.yul\":1740:1746   */\n      dup4\n        /* \"#utility.yul\":1735:1738   */\n      dup4\n        /* \"#utility.yul\":1731:1747   */\n      add\n        /* \"#utility.yul\":1724:1751   */\n      mstore\n        /* \"#utility.yul\":1610:1758   */\n      pop\n      pop\n      pop\n      jump\t// out\n        /* \"#utility.yul\":1764:2189   */\n    tag_35:\n        /* \"#utility.yul\":1842:1847   */\n      0x00\n        /* \"#utility.yul\":1867:1933   */\n      tag_64\n        /* \"#utility.yul\":1883:1932   */\n      tag_65\n        /* \"#utility.yul\":1925:1931   */\n      dup5\n        /* \"#utility.yul\":1883:1932   */\n      tag_33\n      jump\t// in\n    tag_65:\n        /* \"#utility.yul\":1867:1933   */\n      tag_32\n      jump\t// in\n    tag_64:\n        /* \"#utility.yul\":1858:1933   */\n      swap1\n      pop\n        /* \"#utility.yul\":1956:1962   */\n      dup3\n        /* \"#utility.yul\":1949:1954   */\n      dup2\n        /* \"#utility.yul\":1942:1963   */\n      mstore\n        /* \"#utility.yul\":1994:1998   */\n      0x20\n        /* \"#utility.yul\":1987:1992   */\n      dup2\n        /* \"#utility.yul\":1983:1999   */\n      add\n        /* \"#utility.yul\":2032:2035   */\n      dup5\n        /* \"#utility.yul\":2023:2029   */\n      dup5\n        /* \"#utility.yul\":2018:2021   */\n      dup5\n        /* \"#utility.yul\":2014:2030   */\n      add\n        /* \"#utility.yul\":2011:2036   */\n      gt\n        /* \"#utility.yul\":2008:2120   */\n      iszero\n      tag_66\n      jumpi\n        /* \"#utility.yul\":2039:2118   */\n      tag_67\n      tag_28\n      jump\t// in\n    tag_67:\n        /* \"#utility.yul\":2008:2120   */\n    tag_66:\n        /* \"#utility.yul\":2129:2183   */\n      tag_68\n        /* \"#utility.yul\":2176:2182   */\n      dup5\n        /* \"#utility.yul\":2171:2174   */\n      dup3\n        /* \"#utility.yul\":2166:2169   */\n      dup6\n        /* \"#utility.yul\":2129:2183   */\n      tag_34\n      jump\t// in\n    tag_68:\n        /* \"#utility.yul\":1848:2189   */\n      pop\n        /* \"#utility.yul\":1764:2189   */\n      swap4\n      swap3\n      pop\n      pop\n      pop\n      jump\t// out\n        /* \"#utility.yul\":2209:2549   */\n    tag_36:\n        /* \"#utility.yul\":2265:2270   */\n      0x00\n        /* \"#utility.yul\":2314:2317   */\n      dup3\n        /* \"#utility.yul\":2307:2311   */\n      0x1f\n        /* \"#utility.yul\":2299:2305   */\n      dup4\n        /* \"#utility.yul\":2295:2312   */\n      add\n        /* \"#utility.yul\":2291:2318   */\n      slt\n        /* \"#utility.yul\":2281:2403   */\n      tag_70\n      jumpi\n        /* \"#utility.yul\":2322:2401   */\n      tag_71\n      tag_27\n      jump\t// in\n    tag_71:\n        /* \"#utility.yul\":2281:2403   */\n    tag_70:\n        /* \"#utility.yul\":2439:2445   */\n      dup2\n        /* \"#utility.yul\":2426:2446   */\n      calldataload\n        /* \"#utility.yul\":2464:2543   */\n      tag_72\n        /* \"#utility.yul\":2539:2542   */\n      dup5\n        /* \"#utility.yul\":2531:2537   */\n      dup3\n        /* \"#utility.yul\":2524:2528   */\n      0x20\n        /* \"#utility.yul\":2516:2522   */\n      dup7\n        /* \"#utility.yul\":2512:2529   */\n      add\n        /* \"#utility.yul\":2464:2543   */\n      tag_35\n      jump\t// in\n    tag_72:\n        /* \"#utility.yul\":2455:2543   */\n      swap2\n      pop\n        /* \"#utility.yul\":2271:2549   */\n      pop\n        /* \"#utility.yul\":2209:2549   */\n      swap3\n      swap2\n      pop\n      pop\n      jump\t// out\n        /* \"#utility.yul\":2555:3389   */\n    tag_7:\n        /* \"#utility.yul\":2643:2649   */\n      0x00\n        /* \"#utility.yul\":2651:2657   */\n      dup1\n        /* \"#utility.yul\":2700:2702   */\n      0x40\n        /* \"#utility.yul\":2688:2697   */\n      dup4\n        /* \"#utility.yul\":2679:2686   */\n      dup6\n        /* \"#utility.yul\":2675:2698   */\n      sub\n        /* \"#utility.yul\":2671:2703   */\n      slt\n        /* \"#utility.yul\":2668:2787   */\n      iszero\n      tag_74\n      jumpi\n        /* \"#utility.yul\":2706:2785   */\n      tag_75\n      tag_25\n      jump\t// in\n    tag_75:\n        /* \"#utility.yul\":2668:2787   */\n    tag_74:\n        /* \"#utility.yul\":2854:2855   */\n      0x00\n        /* \"#utility.yul\":2843:2852   */\n      dup4\n        /* \"#utility.yul\":2839:2856   */\n      add\n        /* \"#utility.yul\":2826:2857   */\n      calldataload\n        /* \"#utility.yul\":2884:2902   */\n      0xffffffffffffffff\n        /* \"#utility.yul\":2876:2882   */\n      dup2\n        /* \"#utility.yul\":2873:2903   */\n      gt\n        /* \"#utility.yul\":2870:2987   */\n      iszero\n      tag_76\n      jumpi\n        /* \"#utility.yul\":2906:2985   */\n      tag_77\n      tag_26\n      jump\t// in\n    tag_77:\n        /* \"#utility.yul\":2870:2987   */\n    tag_76:\n        /* \"#utility.yul\":3011:3074   */\n      tag_78\n        /* \"#utility.yul\":3066:3073   */\n      dup6\n        /* \"#utility.yul\":3057:3063   */\n      dup3\n        /* \"#utility.yul\":3046:3055   */\n      dup7\n        /* \"#utility.yul\":3042:3064   */\n      add\n        /* \"#utility.yul\":3011:3074   */\n      tag_36\n      jump\t// in\n    tag_78:\n        /* \"#utility.yul\":3001:3074   */\n      swap3\n      pop\n        /* \"#utility.yul\":2797:3084   */\n      pop\n        /* \"#utility.yul\":3151:3153   */\n      0x20\n        /* \"#utility.yul\":3140:3149   */\n      dup4\n        /* \"#utility.yul\":3136:3154   */\n      add\n        /* \"#utility.yul\":3123:3155   */\n      calldataload\n        /* \"#utility.yul\":3182:3200   */\n      0xffffffffffffffff\n        /* \"#utility.yul\":3174:3180   */\n      dup2\n        /* \"#utility.yul\":3171:3201   */\n      gt\n        /* \"#utility.yul\":3168:3285   */\n      iszero\n      tag_79\n      jumpi\n        /* \"#utility.yul\":3204:3283   */\n      tag_80\n      tag_26\n      jump\t// in\n    tag_80:\n        /* \"#utility.yul\":3168:3285   */\n    tag_79:\n        /* \"#utility.yul\":3309:3372   */\n      tag_81\n        /* \"#utility.yul\":3364:3371   */\n      dup6\n        /* \"#utility.yul\":3355:3361   */\n      dup3\n        /* \"#utility.yul\":3344:3353   */\n      dup7\n        /* \"#utility.yul\":3340:3362   */\n      add\n        /* \"#utility.yul\":3309:3372   */\n      tag_36\n      jump\t// in\n    tag_81:\n        /* \"#utility.yul\":3299:3372   */\n      swap2\n      pop\n        /* \"#utility.yul\":3094:3382   */\n      pop\n        /* \"#utility.yul\":2555:3389   */\n      swap3\n      pop\n      swap3\n      swap1\n      pop\n      jump\t// out\n        /* \"#utility.yul\":3395:3485   */\n    tag_37:\n        /* \"#utility.yul\":3429:3436   */\n      0x00\n        /* \"#utility.yul\":3472:3477   */\n      dup2\n        /* \"#utility.yul\":3465:3478   */\n      iszero\n        /* \"#utility.yul\":3458:3479   */\n      iszero\n        /* \"#utility.yul\":3447:3479   */\n      swap1\n      pop\n        /* \"#utility.yul\":3395:3485   */\n      swap2\n      swap1\n      pop\n      jump\t// out\n        /* \"#utility.yul\":3491:3600   */\n    tag_38:\n        /* \"#utility.yul\":3572:3593   */\n      tag_84\n        /* \"#utility.yul\":3587:3592   */\n      dup2\n        /* \"#utility.yul\":3572:3593   */\n      tag_37\n      jump\t// in\n    tag_84:\n        /* \"#utility.yul\":3567:3570   */\n      dup3\n        /* \"#utility.yul\":3560:3594   */\n      mstore\n        /* \"#utility.yul\":3491:3600   */\n      pop\n      pop\n      jump\t// out\n        /* \"#utility.yul\":3606:3816   */\n    tag_10:\n        /* \"#utility.yul\":3693:3697   */\n      0x00\n        /* \"#utility.yul\":3731:3733   */\n      0x20\n        /* \"#utility.yul\":3720:3729   */\n      dup3\n        /* \"#utility.yul\":3716:3734   */\n      add\n        /* \"#utility.yul\":3708:3734   */\n      swap1\n      pop\n        /* \"#utility.yul\":3744:3809   */\n      tag_86\n        /* \"#utility.yul\":3806:3807   */\n      0x00\n        /* \"#utility.yul\":3795:3804   */\n      dup4\n        /* \"#utility.yul\":3791:3808   */\n      add\n        /* \"#utility.yul\":3782:3788   */\n      dup5\n        /* \"#utility.yul\":3744:3809   */\n      tag_38\n      jump\t// in\n    tag_86:\n        /* \"#utility.yul\":3606:3816   */\n      swap3\n      swap2\n      pop\n      pop\n      jump\t// out\n        /* \"#utility.yul\":3822:3921   */\n    tag_39:\n        /* \"#utility.yul\":3874:3880   */\n      0x00\n        /* \"#utility.yul\":3908:3913   */\n      dup2\n        /* \"#utility.yul\":3902:3914   */\n      mload\n        /* \"#utility.yul\":3892:3914   */\n      swap1\n      pop\n        /* \"#utility.yul\":3822:3921   */\n      swap2\n      swap1\n      pop\n      jump\t// out\n        /* \"#utility.yul\":3927:4075   */\n    tag_40:\n        /* \"#utility.yul\":4029:4040   */\n      0x00\n        /* \"#utility.yul\":4066:4069   */\n      dup2\n        /* \"#utility.yul\":4051:4069   */\n      swap1\n      pop\n        /* \"#utility.yul\":3927:4075   */\n      swap3\n      swap2\n      pop\n      pop\n      jump\t// out\n        /* \"#utility.yul\":4081:4220   */\n    tag_41:\n        /* \"#utility.yul\":4170:4176   */\n      dup3\n        /* \"#utility.yul\":4165:4168   */\n      dup2\n        /* \"#utility.yul\":4160:4163   */\n      dup4\n        /* \"#utility.yul\":4154:4177   */\n      mcopy\n        /* \"#utility.yul\":4211:4212   */\n      0x00\n        /* \"#utility.yul\":4202:4208   */\n      dup4\n        /* \"#utility.yul\":4197:4200   */\n      dup4\n        /* \"#utility.yul\":4193:4209   */\n      add\n        /* \"#utility.yul\":4186:4213   */\n      mstore\n        /* \"#utility.yul\":4081:4220   */\n      pop\n      pop\n      pop\n      jump\t// out\n        /* \"#utility.yul\":4226:4616   */\n    tag_42:\n        /* \"#utility.yul\":4332:4335   */\n      0x00\n        /* \"#utility.yul\":4360:4399   */\n      tag_91\n        /* \"#utility.yul\":4393:4398   */\n      dup3\n        /* \"#utility.yul\":4360:4399   */\n      tag_39\n      jump\t// in\n    tag_91:\n        /* \"#utility.yul\":4415:4504   */\n      tag_92\n        /* \"#utility.yul\":4497:4503   */\n      dup2\n        /* \"#utility.yul\":4492:4495   */\n      dup6\n        /* \"#utility.yul\":4415:4504   */\n      tag_40\n      jump\t// in\n    tag_92:\n        /* \"#utility.yul\":4408:4504   */\n      swap4\n      pop\n        /* \"#utility.yul\":4513:4578   */\n      tag_93\n        /* \"#utility.yul\":4571:4577   */\n      dup2\n        /* \"#utility.yul\":4566:4569   */\n      dup6\n        /* \"#utility.yul\":4559:4563   */\n      0x20\n        /* \"#utility.yul\":4552:4557   */\n      dup7\n        /* \"#utility.yul\":4548:4564   */\n      add\n        /* \"#utility.yul\":4513:4578   */\n      tag_41\n      jump\t// in\n    tag_93:\n        /* \"#utility.yul\":4603:4609   */\n      dup1\n        /* \"#utility.yul\":4598:4601   */\n      dup5\n        /* \"#utility.yul\":4594:4610   */\n      add\n        /* \"#utility.yul\":4587:4610   */\n      swap2\n      pop\n        /* \"#utility.yul\":4336:4616   */\n      pop\n        /* \"#utility.yul\":4226:4616   */\n      swap3\n      swap2\n      pop\n      pop\n      jump\t// out\n        /* \"#utility.yul\":4622:5057   */\n    tag_16:\n        /* \"#utility.yul\":4802:4805   */\n      0x00\n        /* \"#utility.yul\":4824:4919   */\n      tag_95\n        /* \"#utility.yul\":4915:4918   */\n      dup3\n        /* \"#utility.yul\":4906:4912   */\n      dup6\n        /* \"#utility.yul\":4824:4919   */\n      tag_42\n      jump\t// in\n    tag_95:\n        /* \"#utility.yul\":4817:4919   */\n      swap2\n      pop\n        /* \"#utility.yul\":4936:5031   */\n      tag_96\n        /* \"#utility.yul\":5027:5030   */\n      dup3\n        /* \"#utility.yul\":5018:5024   */\n      dup5\n        /* \"#utility.yul\":4936:5031   */\n      tag_42\n      jump\t// in\n    tag_96:\n        /* \"#utility.yul\":4929:5031   */\n      swap2\n      pop\n        /* \"#utility.yul\":5048:5051   */\n      dup2\n        /* \"#utility.yul\":5041:5051   */\n      swap1\n      pop\n        /* \"#utility.yul\":4622:5057   */\n      swap4\n      swap3\n      pop\n      pop\n      pop\n      jump\t// out\n        /* \"#utility.yul\":5063:5338   */\n    tag_18:\n        /* \"#utility.yul\":5195:5198   */\n      0x00\n        /* \"#utility.yul\":5217:5312   */\n      tag_98\n        /* \"#utility.yul\":5308:5311   */\n      dup3\n        /* \"#utility.yul\":5299:5305   */\n      dup5\n        /* \"#utility.yul\":5217:5312   */\n      tag_42\n      jump\t// in\n    tag_98:\n        /* \"#utility.yul\":5210:5312   */\n      swap2\n      pop\n        /* \"#utility.yul\":5329:5332   */\n      dup2\n        /* \"#utility.yul\":5322:5332   */\n      swap1\n      pop\n        /* \"#utility.yul\":5063:5338   */\n      swap3\n      swap2\n      pop\n      pop\n      jump\t// out\n\n    auxdata: 0xa2646970667358221220effef8e2113f3cf61e82318afc0d82afd669ebbe1de3062a4cee8773262a5e8d64736f6c63430008190033\n}\n",
				"bytecode": {
					"linkReferences": {},
					"object": "6080604052348015600e575f80fd5b506103e98061001c5f395ff3fe608060405234801561000f575f80fd5b5060043610610034575f3560e01c80637c08e38a14610038578063a469a33214610068575b5f80fd5b610052600480360381019061004d919061027f565b610084565b60405161005f919061030f565b60405180910390f35b610082600480360381019061007d919061027f565b6100e4565b005b5f828260405160200161009892919061037a565b604051602081830303815290604052805190602001205f846040516100bd919061039d565b908152602001604051809103902054036100da57600190506100de565b5f90505b92915050565b81816040516020016100f792919061037a565b604051602081830303815290604052805190602001205f8360405161011c919061039d565b9081526020016040518091039020819055505050565b5f604051905090565b5f80fd5b5f80fd5b5f80fd5b5f80fd5b5f601f19601f8301169050919050565b7f4e487b71000000000000000000000000000000000000000000000000000000005f52604160045260245ffd5b6101918261014b565b810181811067ffffffffffffffff821117156101b0576101af61015b565b5b80604052505050565b5f6101c2610132565b90506101ce8282610188565b919050565b5f67ffffffffffffffff8211156101ed576101ec61015b565b5b6101f68261014b565b9050602081019050919050565b828183375f83830152505050565b5f61022361021e846101d3565b6101b9565b90508281526020810184848401111561023f5761023e610147565b5b61024a848285610203565b509392505050565b5f82601f83011261026657610265610143565b5b8135610276848260208601610211565b91505092915050565b5f80604083850312156102955761029461013b565b5b5f83013567ffffffffffffffff8111156102b2576102b161013f565b5b6102be85828601610252565b925050602083013567ffffffffffffffff8111156102df576102de61013f565b5b6102eb85828601610252565b9150509250929050565b5f8115159050919050565b610309816102f5565b82525050565b5f6020820190506103225f830184610300565b92915050565b5f81519050919050565b5f81905092915050565b8281835e5f83830152505050565b5f61035482610328565b61035e8185610332565b935061036e81856020860161033c565b80840191505092915050565b5f610385828561034a565b9150610391828461034a565b91508190509392505050565b5f6103a8828461034a565b91508190509291505056fea2646970667358221220effef8e2113f3cf61e82318afc0d82afd669ebbe1de3062a4cee8773262a5e8d64736f6c63430008190033",
					"opcodes": "PUSH1 0x80 PUSH1 0x40 MSTORE CALLVALUE DUP1 ISZERO PUSH1 0xE JUMPI PUSH0 DUP1 REVERT JUMPDEST POP PUSH2 0x3E9 DUP1 PUSH2 0x1C PUSH0 CODECOPY PUSH0 RETURN INVALID PUSH1 0x80 PUSH1 0x40 MSTORE CALLVALUE DUP1 ISZERO PUSH2 0xF JUMPI PUSH0 DUP1 REVERT JUMPDEST POP PUSH1 0x4 CALLDATASIZE LT PUSH2 0x34 JUMPI PUSH0 CALLDATALOAD PUSH1 0xE0 SHR DUP1 PUSH4 0x7C08E38A EQ PUSH2 0x38 JUMPI DUP1 PUSH4 0xA469A332 EQ PUSH2 0x68 JUMPI JUMPDEST PUSH0 DUP1 REVERT JUMPDEST PUSH2 0x52 PUSH1 0x4 DUP1 CALLDATASIZE SUB DUP2 ADD SWAP1 PUSH2 0x4D SWAP2 SWAP1 PUSH2 0x27F JUMP JUMPDEST PUSH2 0x84 JUMP JUMPDEST PUSH1 0x40 MLOAD PUSH2 0x5F SWAP2 SWAP1 PUSH2 0x30F JUMP JUMPDEST PUSH1 0x40 MLOAD DUP1 SWAP2 SUB SWAP1 RETURN JUMPDEST PUSH2 0x82 PUSH1 0x4 DUP1 CALLDATASIZE SUB DUP2 ADD SWAP1 PUSH2 0x7D SWAP2 SWAP1 PUSH2 0x27F JUMP JUMPDEST PUSH2 0xE4 JUMP JUMPDEST STOP JUMPDEST PUSH0 DUP3 DUP3 PUSH1 0x40 MLOAD PUSH1 0x20 ADD PUSH2 0x98 SWAP3 SWAP2 SWAP1 PUSH2 0x37A JUMP JUMPDEST PUSH1 0x40 MLOAD PUSH1 0x20 DUP2 DUP4 SUB SUB DUP2 MSTORE SWAP1 PUSH1 0x40 MSTORE DUP1 MLOAD SWAP1 PUSH1 0x20 ADD KECCAK256 PUSH0 DUP5 PUSH1 0x40 MLOAD PUSH2 0xBD SWAP2 SWAP1 PUSH2 0x39D JUMP JUMPDEST SWAP1 DUP2 MSTORE PUSH1 0x20 ADD PUSH1 0x40 MLOAD DUP1 SWAP2 SUB SWAP1 KECCAK256 SLOAD SUB PUSH2 0xDA JUMPI PUSH1 0x1 SWAP1 POP PUSH2 0xDE JUMP JUMPDEST PUSH0 SWAP1 POP JUMPDEST SWAP3 SWAP2 POP POP JUMP JUMPDEST DUP2 DUP2 PUSH1 0x40 MLOAD PUSH1 0x20 ADD PUSH2 0xF7 SWAP3 SWAP2 SWAP1 PUSH2 0x37A JUMP JUMPDEST PUSH1 0x40 MLOAD PUSH1 0x20 DUP2 DUP4 SUB SUB DUP2 MSTORE SWAP1 PUSH1 0x40 MSTORE DUP1 MLOAD SWAP1 PUSH1 0x20 ADD KECCAK256 PUSH0 DUP4 PUSH1 0x40 MLOAD PUSH2 0x11C SWAP2 SWAP1 PUSH2 0x39D JUMP JUMPDEST SWAP1 DUP2 MSTORE PUSH1 0x20 ADD PUSH1 0x40 MLOAD DUP1 SWAP2 SUB SWAP1 KECCAK256 DUP2 SWAP1 SSTORE POP POP POP JUMP JUMPDEST PUSH0 PUSH1 0x40 MLOAD SWAP1 POP SWAP1 JUMP JUMPDEST PUSH0 DUP1 REVERT JUMPDEST PUSH0 DUP1 REVERT JUMPDEST PUSH0 DUP1 REVERT JUMPDEST PUSH0 DUP1 REVERT JUMPDEST PUSH0 PUSH1 0x1F NOT PUSH1 0x1F DUP4 ADD AND SWAP1 POP SWAP2 SWAP1 POP JUMP JUMPDEST PUSH32 0x4E487B7100000000000000000000000000000000000000000000000000000000 PUSH0 MSTORE PUSH1 0x41 PUSH1 0x4 MSTORE PUSH1 0x24 PUSH0 REVERT JUMPDEST PUSH2 0x191 DUP3 PUSH2 0x14B JUMP JUMPDEST DUP2 ADD DUP2 DUP2 LT PUSH8 0xFFFFFFFFFFFFFFFF DUP3 GT OR ISZERO PUSH2 0x1B0 JUMPI PUSH2 0x1AF PUSH2 0x15B JUMP JUMPDEST JUMPDEST DUP1 PUSH1 0x40 MSTORE POP POP POP JUMP JUMPDEST PUSH0 PUSH2 0x1C2 PUSH2 0x132 JUMP JUMPDEST SWAP1 POP PUSH2 0x1CE DUP3 DUP3 PUSH2 0x188 JUMP JUMPDEST SWAP2 SWAP1 POP JUMP JUMPDEST PUSH0 PUSH8 0xFFFFFFFFFFFFFFFF DUP3 GT ISZERO PUSH2 0x1ED JUMPI PUSH2 0x1EC PUSH2 0x15B JUMP JUMPDEST JUMPDEST PUSH2 0x1F6 DUP3 PUSH2 0x14B JUMP JUMPDEST SWAP1 POP PUSH1 0x20 DUP2 ADD SWAP1 POP SWAP2 SWAP1 POP JUMP JUMPDEST DUP3 DUP2 DUP4 CALLDATACOPY PUSH0 DUP4 DUP4 ADD MSTORE POP POP POP JUMP JUMPDEST PUSH0 PUSH2 0x223 PUSH2 0x21E DUP5 PUSH2 0x1D3 JUMP JUMPDEST PUSH2 0x1B9 JUMP JUMPDEST SWAP1 POP DUP3 DUP2 MSTORE PUSH1 0x20 DUP2 ADD DUP5 DUP5 DUP5 ADD GT ISZERO PUSH2 0x23F JUMPI PUSH2 0x23E PUSH2 0x147 JUMP JUMPDEST JUMPDEST PUSH2 0x24A DUP5 DUP3 DUP6 PUSH2 0x203 JUMP JUMPDEST POP SWAP4 SWAP3 POP POP POP JUMP JUMPDEST PUSH0 DUP3 PUSH1 0x1F DUP4 ADD SLT PUSH2 0x266 JUMPI PUSH2 0x265 PUSH2 0x143 JUMP JUMPDEST JUMPDEST DUP2 CALLDATALOAD PUSH2 0x276 DUP5 DUP3 PUSH1 0x20 DUP7 ADD PUSH2 0x211 JUMP JUMPDEST SWAP2 POP POP SWAP3 SWAP2 POP POP JUMP JUMPDEST PUSH0 DUP1 PUSH1 0x40 DUP4 DUP6 SUB SLT ISZERO PUSH2 0x295 JUMPI PUSH2 0x294 PUSH2 0x13B JUMP JUMPDEST JUMPDEST PUSH0 DUP4 ADD CALLDATALOAD PUSH8 0xFFFFFFFFFFFFFFFF DUP2 GT ISZERO PUSH2 0x2B2 JUMPI PUSH2 0x2B1 PUSH2 0x13F JUMP JUMPDEST JUMPDEST PUSH2 0x2BE DUP6 DUP3 DUP7 ADD PUSH2 0x252 JUMP JUMPDEST SWAP3 POP POP PUSH1 0x20 DUP4 ADD CALLDATALOAD PUSH8 0xFFFFFFFFFFFFFFFF DUP2 GT ISZERO PUSH2 0x2DF JUMPI PUSH2 0x2DE PUSH2 0x13F JUMP JUMPDEST JUMPDEST PUSH2 0x2EB DUP6 DUP3 DUP7 ADD PUSH2 0x252 JUMP JUMPDEST SWAP2 POP POP SWAP3 POP SWAP3 SWAP1 POP JUMP JUMPDEST PUSH0 DUP2 ISZERO ISZERO SWAP1 POP SWAP2 SWAP1 POP JUMP JUMPDEST PUSH2 0x309 DUP2 PUSH2 0x2F5 JUMP JUMPDEST DUP3 MSTORE POP POP JUMP JUMPDEST PUSH0 PUSH1 0x20 DUP3 ADD SWAP1 POP PUSH2 0x322 PUSH0 DUP4 ADD DUP5 PUSH2 0x300 JUMP JUMPDEST SWAP3 SWAP2 POP POP JUMP JUMPDEST PUSH0 DUP2 MLOAD SWAP1 POP SWAP2 SWAP1 POP JUMP JUMPDEST PUSH0 DUP2 SWAP1 POP SWAP3 SWAP2 POP POP JUMP JUMPDEST DUP3 DUP2 DUP4 MCOPY PUSH0 DUP4 DUP4 ADD MSTORE POP POP POP JUMP JUMPDEST PUSH0 PUSH2 0x354 DUP3 PUSH2 0x328 JUMP JUMPDEST PUSH2 0x35E DUP2 DUP6 PUSH2 0x332 JUMP JUMPDEST SWAP4 POP PUSH2 0x36E DUP2 DUP6 PUSH1 0x20 DUP7 ADD PUSH2 0x33C JUMP JUMPDEST DUP1 DUP5 ADD SWAP2 POP POP SWAP3 SWAP2 POP POP JUMP JUMPDEST PUSH0 PUSH2 0x385 DUP3 DUP6 PUSH2 0x34A JUMP JUMPDEST SWAP2 POP PUSH2 0x391 DUP3 DUP5 PUSH2 0x34A JUMP JUMPDEST SWAP2 POP DUP2 SWAP1 POP SWAP4 SWAP3 POP POP POP JUMP JUMPDEST PUSH0 PUSH2 0x3A8 DUP3 DUP5 PUSH2 0x34A JUMP JUMPDEST SWAP2 POP DUP2 SWAP1 POP SWAP3 SWAP2 POP POP JUMP INVALID LOG2 PUSH5 0x6970667358 0x22 SLT KECCAK256 0xEF INVALID 0xF8 0xE2 GT EXTCODEHASH EXTCODECOPY 0xF6 0x1E DUP3 BALANCE DUP11 0xFC 0xD DUP3 0xAF 0xD6 PUSH10 0xEBBE1DE3062A4CEE8773 0x26 0x2A MCOPY DUP14 PUSH5 0x736F6C6343 STOP ADDMOD NOT STOP CALLER "
				},
				"gasEstimates": {
					"creation": {
						"codeDepositCost": "200200",
						"executionCost": "243",
						"totalCost": "200443"
					},
					"external": {
						"isLogin(string,string)": "infinite",
						"signUp(string,string)": "infinite"
					}
				},
				"methodIdentifiers": {
					"isLogin(string,string)": "7c08e38a",
					"signUp(string,string)": "a469a332"
				}
			},
			"storageLayout": {
				"storage": [
					{
						"astId": 5,
						"contract": "solidity_test/test3.sol:TEST3",
						"label": "user",
						"offset": 0,
						"slot": "0",
						"type": "t_mapping(t_string_memory_ptr,t_bytes32)"
					}
				],
				"types": {
					"t_bytes32": {
						"encoding": "inplace",
						"label": "bytes32",
						"numberOfBytes": "32"
					},
					"t_mapping(t_string_memory_ptr,t_bytes32)": {
						"encoding": "mapping",
						"key": "t_string_memory_ptr",
						"label": "mapping(string => bytes32)",
						"numberOfBytes": "32",
						"value": "t_bytes32"
					},
					"t_string_memory_ptr": {
						"encoding": "bytes",
						"label": "string",
						"numberOfBytes": "32"
					}
				}
			},
			"userdoc": {
				"kind": "user",
				"methods": {},
				"version": 1
			}
		}
	}
}