{
	"solidity_test/test12.sol": {
		"A": {
			"abi": [
				{
					"inputs": [],
					"stateMutability": "nonpayable",
					"type": "constructor"
				},
				{
					"inputs": [],
					"name": "payPark",
					"outputs": [
						{
							"internalType": "uint256",
							"name": "",
							"type": "uint256"
						}
					],
					"stateMutability": "payable",
					"type": "function"
				},
				{
					"inputs": [],
					"name": "recordTime",
					"outputs": [
						{
							"internalType": "uint256",
							"name": "",
							"type": "uint256"
						}
					],
					"stateMutability": "view",
					"type": "function"
				},
				{
					"inputs": [],
					"name": "time",
					"outputs": [
						{
							"internalType": "uint256",
							"name": "",
							"type": "uint256"
						}
					],
					"stateMutability": "view",
					"type": "function"
				}
			],
			"devdoc": {
				"kind": "dev",
				"methods": {},
				"version": 1
			},
			"evm": {
				"assembly": "    /* \"solidity_test/test12.sol\":67:1569  contract A {... */\n  mstore(0x40, 0x80)\n    /* \"solidity_test/test12.sol\":752:807  constructor() {... */\n  callvalue\n  dup1\n  iszero\n  tag_1\n  jumpi\n  0x00\n  dup1\n  revert\ntag_1:\n  pop\n    /* \"solidity_test/test12.sol\":784:799  block.timestamp */\n  timestamp\n    /* \"solidity_test/test12.sol\":777:781  time */\n  0x00\n    /* \"solidity_test/test12.sol\":777:799  time = block.timestamp */\n  dup2\n  swap1\n  sstore\n  pop\n    /* \"solidity_test/test12.sol\":67:1569  contract A {... */\n  dataSize(sub_0)\n  dup1\n  dataOffset(sub_0)\n  0x00\n  codecopy\n  0x00\n  return\nstop\n\nsub_0: assembly {\n        /* \"solidity_test/test12.sol\":67:1569  contract A {... */\n      mstore(0x40, 0x80)\n      jumpi(tag_1, lt(calldatasize, 0x04))\n      shr(0xe0, calldataload(0x00))\n      dup1\n      0x16ada547\n      eq\n      tag_2\n      jumpi\n      dup1\n      0x3263a0c1\n      eq\n      tag_3\n      jumpi\n      dup1\n      0xcf2259ce\n      eq\n      tag_4\n      jumpi\n    tag_1:\n      0x00\n      dup1\n      revert\n        /* \"solidity_test/test12.sol\":727:743  uint public time */\n    tag_2:\n      callvalue\n      dup1\n      iszero\n      tag_5\n      jumpi\n      0x00\n      dup1\n      revert\n    tag_5:\n      pop\n      tag_6\n      tag_7\n      jump\t// in\n    tag_6:\n      mload(0x40)\n      tag_8\n      swap2\n      swap1\n      tag_9\n      jump\t// in\n    tag_8:\n      mload(0x40)\n      dup1\n      swap2\n      sub\n      swap1\n      return\n        /* \"solidity_test/test12.sol\":984:1473  function payPark() public payable returns(uint) {... */\n    tag_3:\n      tag_10\n      tag_11\n      jump\t// in\n    tag_10:\n      mload(0x40)\n      tag_12\n      swap2\n      swap1\n      tag_9\n      jump\t// in\n    tag_12:\n      mload(0x40)\n      dup1\n      swap2\n      sub\n      swap1\n      return\n        /* \"solidity_test/test12.sol\":820:976  function recordTime() public view returns(uint) {... */\n    tag_4:\n      callvalue\n      dup1\n      iszero\n      tag_13\n      jumpi\n      0x00\n      dup1\n      revert\n    tag_13:\n      pop\n      tag_14\n      tag_15\n      jump\t// in\n    tag_14:\n      mload(0x40)\n      tag_16\n      swap2\n      swap1\n      tag_9\n      jump\t// in\n    tag_16:\n      mload(0x40)\n      dup1\n      swap2\n      sub\n      swap1\n      return\n        /* \"solidity_test/test12.sol\":727:743  uint public time */\n    tag_7:\n      sload(0x00)\n      dup2\n      jump\t// out\n        /* \"solidity_test/test12.sol\":984:1473  function payPark() public payable returns(uint) {... */\n    tag_11:\n        /* \"solidity_test/test12.sol\":1026:1030  uint */\n      0x00\n        /* \"solidity_test/test12.sol\":1043:1058  uint parkedTime */\n      dup1\n        /* \"solidity_test/test12.sol\":1061:1073  recordTime() */\n      tag_18\n        /* \"solidity_test/test12.sol\":1061:1071  recordTime */\n      tag_15\n        /* \"solidity_test/test12.sol\":1061:1073  recordTime() */\n      jump\t// in\n    tag_18:\n        /* \"solidity_test/test12.sol\":1043:1073  uint parkedTime = recordTime() */\n      swap1\n      pop\n        /* \"solidity_test/test12.sol\":1084:1103  uint parkedOverTime */\n      0x00\n        /* \"solidity_test/test12.sol\":1128:1130  60 */\n      0x3c\n        /* \"solidity_test/test12.sol\":1120:1124  7200 */\n      0x1c20\n        /* \"solidity_test/test12.sol\":1107:1117  parkedTime */\n      dup4\n        /* \"solidity_test/test12.sol\":1107:1124  parkedTime - 7200 */\n      tag_19\n      swap2\n      swap1\n      tag_20\n      jump\t// in\n    tag_19:\n        /* \"solidity_test/test12.sol\":1106:1130  (parkedTime - 7200) / 60 */\n      tag_21\n      swap2\n      swap1\n      tag_22\n      jump\t// in\n    tag_21:\n        /* \"solidity_test/test12.sol\":1084:1130  uint parkedOverTime = (parkedTime - 7200) / 60 */\n      swap1\n      pop\n        /* \"solidity_test/test12.sol\":1141:1155  uint parkedFee */\n      0x00\n        /* \"solidity_test/test12.sol\":1188:1192  7200 */\n      0x1c20\n        /* \"solidity_test/test12.sol\":1175:1185  parkedTime */\n      dup4\n        /* \"solidity_test/test12.sol\":1175:1192  parkedTime > 7200 */\n      gt\n        /* \"solidity_test/test12.sol\":1172:1306  if(parkedTime > 7200) {... */\n      iszero\n      tag_23\n      jumpi\n        /* \"solidity_test/test12.sol\":1238:1241  200 */\n      0xc8\n        /* \"solidity_test/test12.sol\":1221:1235  parkedOverTime */\n      dup3\n        /* \"solidity_test/test12.sol\":1221:1241  parkedOverTime * 200 */\n      tag_24\n      swap2\n      swap1\n      tag_25\n      jump\t// in\n    tag_24:\n        /* \"solidity_test/test12.sol\":1209:1241  parkedFee = parkedOverTime * 200 */\n      swap1\n      pop\n        /* \"solidity_test/test12.sol\":1172:1306  if(parkedTime > 7200) {... */\n      jump(tag_26)\n    tag_23:\n        /* \"solidity_test/test12.sol\":1293:1294  0 */\n      0x00\n        /* \"solidity_test/test12.sol\":1281:1294  parkedFee = 0 */\n      swap1\n      pop\n        /* \"solidity_test/test12.sol\":1172:1306  if(parkedTime > 7200) {... */\n    tag_26:\n        /* \"solidity_test/test12.sol\":1344:1345  0 */\n      0x00\n        /* \"solidity_test/test12.sol\":1331:1340  parkedFee */\n      dup2\n        /* \"solidity_test/test12.sol\":1331:1345  parkedFee == 0 */\n      sub\n        /* \"solidity_test/test12.sol\":1328:1382  if(parkedFee == 0) {... */\n      tag_27\n      jumpi\n        /* \"solidity_test/test12.sol\":1369:1370  0 */\n      0x00\n        /* \"solidity_test/test12.sol\":1362:1370  return 0 */\n      swap4\n      pop\n      pop\n      pop\n      pop\n      jump(tag_17)\n        /* \"solidity_test/test12.sol\":1328:1382  if(parkedFee == 0) {... */\n    tag_27:\n        /* \"solidity_test/test12.sol\":1415:1424  parkedFee */\n      dup1\n        /* \"solidity_test/test12.sol\":1402:1411  msg.value */\n      callvalue\n        /* \"solidity_test/test12.sol\":1402:1424  msg.value == parkedFee */\n      eq\n        /* \"solidity_test/test12.sol\":1394:1436  require(msg.value == parkedFee,\"pay park\") */\n      tag_28\n      jumpi\n      mload(0x40)\n      0x08c379a000000000000000000000000000000000000000000000000000000000\n      dup2\n      mstore\n      0x04\n      add\n      tag_29\n      swap1\n      tag_30\n      jump\t// in\n    tag_29:\n      mload(0x40)\n      dup1\n      swap2\n      sub\n      swap1\n      revert\n    tag_28:\n        /* \"solidity_test/test12.sol\":1456:1465  parkedFee */\n      dup1\n        /* \"solidity_test/test12.sol\":1449:1465  return parkedFee */\n      swap4\n      pop\n      pop\n      pop\n      pop\n        /* \"solidity_test/test12.sol\":984:1473  function payPark() public payable returns(uint) {... */\n    tag_17:\n      swap1\n      jump\t// out\n        /* \"solidity_test/test12.sol\":820:976  function recordTime() public view returns(uint) {... */\n    tag_15:\n        /* \"solidity_test/test12.sol\":862:866  uint */\n      0x00\n        /* \"solidity_test/test12.sol\":879:894  uint parkedTime */\n      dup1\n        /* \"solidity_test/test12.sol\":936:940  time */\n      sload(0x00)\n        /* \"solidity_test/test12.sol\":918:933  block.timestamp */\n      timestamp\n        /* \"solidity_test/test12.sol\":918:940  block.timestamp - time */\n      tag_32\n      swap2\n      swap1\n      tag_20\n      jump\t// in\n    tag_32:\n        /* \"solidity_test/test12.sol\":905:940  parkedTime = block.timestamp - time */\n      swap1\n      pop\n        /* \"solidity_test/test12.sol\":958:968  parkedTime */\n      dup1\n        /* \"solidity_test/test12.sol\":951:968  return parkedTime */\n      swap2\n      pop\n      pop\n        /* \"solidity_test/test12.sol\":820:976  function recordTime() public view returns(uint) {... */\n      swap1\n      jump\t// out\n        /* \"#utility.yul\":7:84   */\n    tag_33:\n        /* \"#utility.yul\":44:51   */\n      0x00\n        /* \"#utility.yul\":73:78   */\n      dup2\n        /* \"#utility.yul\":62:78   */\n      swap1\n      pop\n        /* \"#utility.yul\":7:84   */\n      swap2\n      swap1\n      pop\n      jump\t// out\n        /* \"#utility.yul\":90:208   */\n    tag_34:\n        /* \"#utility.yul\":177:201   */\n      tag_43\n        /* \"#utility.yul\":195:200   */\n      dup2\n        /* \"#utility.yul\":177:201   */\n      tag_33\n      jump\t// in\n    tag_43:\n        /* \"#utility.yul\":172:175   */\n      dup3\n        /* \"#utility.yul\":165:202   */\n      mstore\n        /* \"#utility.yul\":90:208   */\n      pop\n      pop\n      jump\t// out\n        /* \"#utility.yul\":214:436   */\n    tag_9:\n        /* \"#utility.yul\":307:311   */\n      0x00\n        /* \"#utility.yul\":345:347   */\n      0x20\n        /* \"#utility.yul\":334:343   */\n      dup3\n        /* \"#utility.yul\":330:348   */\n      add\n        /* \"#utility.yul\":322:348   */\n      swap1\n      pop\n        /* \"#utility.yul\":358:429   */\n      tag_45\n        /* \"#utility.yul\":426:427   */\n      0x00\n        /* \"#utility.yul\":415:424   */\n      dup4\n        /* \"#utility.yul\":411:428   */\n      add\n        /* \"#utility.yul\":402:408   */\n      dup5\n        /* \"#utility.yul\":358:429   */\n      tag_34\n      jump\t// in\n    tag_45:\n        /* \"#utility.yul\":214:436   */\n      swap3\n      swap2\n      pop\n      pop\n      jump\t// out\n        /* \"#utility.yul\":442:622   */\n    tag_35:\n        /* \"#utility.yul\":490:567   */\n      0x4e487b7100000000000000000000000000000000000000000000000000000000\n        /* \"#utility.yul\":487:488   */\n      0x00\n        /* \"#utility.yul\":480:568   */\n      mstore\n        /* \"#utility.yul\":587:591   */\n      0x11\n        /* \"#utility.yul\":584:585   */\n      0x04\n        /* \"#utility.yul\":577:592   */\n      mstore\n        /* \"#utility.yul\":611:615   */\n      0x24\n        /* \"#utility.yul\":608:609   */\n      0x00\n        /* \"#utility.yul\":601:616   */\n      revert\n        /* \"#utility.yul\":628:822   */\n    tag_20:\n        /* \"#utility.yul\":668:672   */\n      0x00\n        /* \"#utility.yul\":688:708   */\n      tag_48\n        /* \"#utility.yul\":706:707   */\n      dup3\n        /* \"#utility.yul\":688:708   */\n      tag_33\n      jump\t// in\n    tag_48:\n        /* \"#utility.yul\":683:708   */\n      swap2\n      pop\n        /* \"#utility.yul\":722:742   */\n      tag_49\n        /* \"#utility.yul\":740:741   */\n      dup4\n        /* \"#utility.yul\":722:742   */\n      tag_33\n      jump\t// in\n    tag_49:\n        /* \"#utility.yul\":717:742   */\n      swap3\n      pop\n        /* \"#utility.yul\":766:767   */\n      dup3\n        /* \"#utility.yul\":763:764   */\n      dup3\n        /* \"#utility.yul\":759:768   */\n      sub\n        /* \"#utility.yul\":751:768   */\n      swap1\n      pop\n        /* \"#utility.yul\":790:791   */\n      dup2\n        /* \"#utility.yul\":784:788   */\n      dup2\n        /* \"#utility.yul\":781:792   */\n      gt\n        /* \"#utility.yul\":778:815   */\n      iszero\n      tag_50\n      jumpi\n        /* \"#utility.yul\":795:813   */\n      tag_51\n      tag_35\n      jump\t// in\n    tag_51:\n        /* \"#utility.yul\":778:815   */\n    tag_50:\n        /* \"#utility.yul\":628:822   */\n      swap3\n      swap2\n      pop\n      pop\n      jump\t// out\n        /* \"#utility.yul\":828:1008   */\n    tag_36:\n        /* \"#utility.yul\":876:953   */\n      0x4e487b7100000000000000000000000000000000000000000000000000000000\n        /* \"#utility.yul\":873:874   */\n      0x00\n        /* \"#utility.yul\":866:954   */\n      mstore\n        /* \"#utility.yul\":973:977   */\n      0x12\n        /* \"#utility.yul\":970:971   */\n      0x04\n        /* \"#utility.yul\":963:978   */\n      mstore\n        /* \"#utility.yul\":997:1001   */\n      0x24\n        /* \"#utility.yul\":994:995   */\n      0x00\n        /* \"#utility.yul\":987:1002   */\n      revert\n        /* \"#utility.yul\":1014:1199   */\n    tag_22:\n        /* \"#utility.yul\":1054:1055   */\n      0x00\n        /* \"#utility.yul\":1071:1091   */\n      tag_54\n        /* \"#utility.yul\":1089:1090   */\n      dup3\n        /* \"#utility.yul\":1071:1091   */\n      tag_33\n      jump\t// in\n    tag_54:\n        /* \"#utility.yul\":1066:1091   */\n      swap2\n      pop\n        /* \"#utility.yul\":1105:1125   */\n      tag_55\n        /* \"#utility.yul\":1123:1124   */\n      dup4\n        /* \"#utility.yul\":1105:1125   */\n      tag_33\n      jump\t// in\n    tag_55:\n        /* \"#utility.yul\":1100:1125   */\n      swap3\n      pop\n        /* \"#utility.yul\":1144:1145   */\n      dup3\n        /* \"#utility.yul\":1134:1169   */\n      tag_56\n      jumpi\n        /* \"#utility.yul\":1149:1167   */\n      tag_57\n      tag_36\n      jump\t// in\n    tag_57:\n        /* \"#utility.yul\":1134:1169   */\n    tag_56:\n        /* \"#utility.yul\":1191:1192   */\n      dup3\n        /* \"#utility.yul\":1188:1189   */\n      dup3\n        /* \"#utility.yul\":1184:1193   */\n      div\n        /* \"#utility.yul\":1179:1193   */\n      swap1\n      pop\n        /* \"#utility.yul\":1014:1199   */\n      swap3\n      swap2\n      pop\n      pop\n      jump\t// out\n        /* \"#utility.yul\":1205:1615   */\n    tag_25:\n        /* \"#utility.yul\":1245:1252   */\n      0x00\n        /* \"#utility.yul\":1268:1288   */\n      tag_59\n        /* \"#utility.yul\":1286:1287   */\n      dup3\n        /* \"#utility.yul\":1268:1288   */\n      tag_33\n      jump\t// in\n    tag_59:\n        /* \"#utility.yul\":1263:1288   */\n      swap2\n      pop\n        /* \"#utility.yul\":1302:1322   */\n      tag_60\n        /* \"#utility.yul\":1320:1321   */\n      dup4\n        /* \"#utility.yul\":1302:1322   */\n      tag_33\n      jump\t// in\n    tag_60:\n        /* \"#utility.yul\":1297:1322   */\n      swap3\n      pop\n        /* \"#utility.yul\":1357:1358   */\n      dup3\n        /* \"#utility.yul\":1354:1355   */\n      dup3\n        /* \"#utility.yul\":1350:1359   */\n      mul\n        /* \"#utility.yul\":1379:1409   */\n      tag_61\n        /* \"#utility.yul\":1397:1408   */\n      dup2\n        /* \"#utility.yul\":1379:1409   */\n      tag_33\n      jump\t// in\n    tag_61:\n        /* \"#utility.yul\":1368:1409   */\n      swap2\n      pop\n        /* \"#utility.yul\":1558:1559   */\n      dup3\n        /* \"#utility.yul\":1549:1556   */\n      dup3\n        /* \"#utility.yul\":1545:1560   */\n      div\n        /* \"#utility.yul\":1542:1543   */\n      dup5\n        /* \"#utility.yul\":1539:1561   */\n      eq\n        /* \"#utility.yul\":1519:1520   */\n      dup4\n        /* \"#utility.yul\":1512:1521   */\n      iszero\n        /* \"#utility.yul\":1492:1575   */\n      or\n        /* \"#utility.yul\":1469:1608   */\n      tag_62\n      jumpi\n        /* \"#utility.yul\":1588:1606   */\n      tag_63\n      tag_35\n      jump\t// in\n    tag_63:\n        /* \"#utility.yul\":1469:1608   */\n    tag_62:\n        /* \"#utility.yul\":1253:1615   */\n      pop\n        /* \"#utility.yul\":1205:1615   */\n      swap3\n      swap2\n      pop\n      pop\n      jump\t// out\n        /* \"#utility.yul\":1621:1790   */\n    tag_37:\n        /* \"#utility.yul\":1705:1716   */\n      0x00\n        /* \"#utility.yul\":1739:1745   */\n      dup3\n        /* \"#utility.yul\":1734:1737   */\n      dup3\n        /* \"#utility.yul\":1727:1746   */\n      mstore\n        /* \"#utility.yul\":1779:1783   */\n      0x20\n        /* \"#utility.yul\":1774:1777   */\n      dup3\n        /* \"#utility.yul\":1770:1784   */\n      add\n        /* \"#utility.yul\":1755:1784   */\n      swap1\n      pop\n        /* \"#utility.yul\":1621:1790   */\n      swap3\n      swap2\n      pop\n      pop\n      jump\t// out\n        /* \"#utility.yul\":1796:1954   */\n    tag_38:\n        /* \"#utility.yul\":1936:1946   */\n      0x706179207061726b000000000000000000000000000000000000000000000000\n        /* \"#utility.yul\":1932:1933   */\n      0x00\n        /* \"#utility.yul\":1924:1930   */\n      dup3\n        /* \"#utility.yul\":1920:1934   */\n      add\n        /* \"#utility.yul\":1913:1947   */\n      mstore\n        /* \"#utility.yul\":1796:1954   */\n      pop\n      jump\t// out\n        /* \"#utility.yul\":1960:2325   */\n    tag_39:\n        /* \"#utility.yul\":2102:2105   */\n      0x00\n        /* \"#utility.yul\":2123:2189   */\n      tag_67\n        /* \"#utility.yul\":2187:2188   */\n      0x08\n        /* \"#utility.yul\":2182:2185   */\n      dup4\n        /* \"#utility.yul\":2123:2189   */\n      tag_37\n      jump\t// in\n    tag_67:\n        /* \"#utility.yul\":2116:2189   */\n      swap2\n      pop\n        /* \"#utility.yul\":2198:2291   */\n      tag_68\n        /* \"#utility.yul\":2287:2290   */\n      dup3\n        /* \"#utility.yul\":2198:2291   */\n      tag_38\n      jump\t// in\n    tag_68:\n        /* \"#utility.yul\":2316:2318   */\n      0x20\n        /* \"#utility.yul\":2311:2314   */\n      dup3\n        /* \"#utility.yul\":2307:2319   */\n      add\n        /* \"#utility.yul\":2300:2319   */\n      swap1\n      pop\n        /* \"#utility.yul\":1960:2325   */\n      swap2\n      swap1\n      pop\n      jump\t// out\n        /* \"#utility.yul\":2331:2750   */\n    tag_30:\n        /* \"#utility.yul\":2497:2501   */\n      0x00\n        /* \"#utility.yul\":2535:2537   */\n      0x20\n        /* \"#utility.yul\":2524:2533   */\n      dup3\n        /* \"#utility.yul\":2520:2538   */\n      add\n        /* \"#utility.yul\":2512:2538   */\n      swap1\n      pop\n        /* \"#utility.yul\":2584:2593   */\n      dup2\n        /* \"#utility.yul\":2578:2582   */\n      dup2\n        /* \"#utility.yul\":2574:2594   */\n      sub\n        /* \"#utility.yul\":2570:2571   */\n      0x00\n        /* \"#utility.yul\":2559:2568   */\n      dup4\n        /* \"#utility.yul\":2555:2572   */\n      add\n        /* \"#utility.yul\":2548:2595   */\n      mstore\n        /* \"#utility.yul\":2612:2743   */\n      tag_70\n        /* \"#utility.yul\":2738:2742   */\n      dup2\n        /* \"#utility.yul\":2612:2743   */\n      tag_39\n      jump\t// in\n    tag_70:\n        /* \"#utility.yul\":2604:2743   */\n      swap1\n      pop\n        /* \"#utility.yul\":2331:2750   */\n      swap2\n      swap1\n      pop\n      jump\t// out\n\n    auxdata: 0xa264697066735822122013cd9ac8c0dd55fe6d8d334bbbec09ae7b4eb4859ce10b8c42fab04c17cf673764736f6c63430008190033\n}\n",
				"bytecode": {
					"linkReferences": {},
					"object": "6080604052348015600e575f80fd5b50425f8190555061034d806100225f395ff3fe608060405260043610610033575f3560e01c806316ada547146100375780633263a0c114610061578063cf2259ce1461007f575b5f80fd5b348015610042575f80fd5b5061004b6100a9565b6040516100589190610188565b60405180910390f35b6100696100ae565b6040516100769190610188565b60405180910390f35b34801561008a575f80fd5b50610093610158565b6040516100a09190610188565b60405180910390f35b5f5481565b5f806100b8610158565b90505f603c611c20836100cb91906101ce565b6100d5919061022e565b90505f611c208311156100f65760c8826100ef919061025e565b90506100fa565b5f90505b5f810361010c575f9350505050610155565b80341461014e576040517f08c379a0000000000000000000000000000000000000000000000000000000008152600401610145906102f9565b60405180910390fd5b8093505050505b90565b5f805f544261016791906101ce565b90508091505090565b5f819050919050565b61018281610170565b82525050565b5f60208201905061019b5f830184610179565b92915050565b7f4e487b71000000000000000000000000000000000000000000000000000000005f52601160045260245ffd5b5f6101d882610170565b91506101e383610170565b92508282039050818111156101fb576101fa6101a1565b5b92915050565b7f4e487b71000000000000000000000000000000000000000000000000000000005f52601260045260245ffd5b5f61023882610170565b915061024383610170565b92508261025357610252610201565b5b828204905092915050565b5f61026882610170565b915061027383610170565b925082820261028181610170565b91508282048414831517610298576102976101a1565b5b5092915050565b5f82825260208201905092915050565b7f706179207061726b0000000000000000000000000000000000000000000000005f82015250565b5f6102e360088361029f565b91506102ee826102af565b602082019050919050565b5f6020820190508181035f830152610310816102d7565b905091905056fea264697066735822122013cd9ac8c0dd55fe6d8d334bbbec09ae7b4eb4859ce10b8c42fab04c17cf673764736f6c63430008190033",
					"opcodes": "PUSH1 0x80 PUSH1 0x40 MSTORE CALLVALUE DUP1 ISZERO PUSH1 0xE JUMPI PUSH0 DUP1 REVERT JUMPDEST POP TIMESTAMP PUSH0 DUP2 SWAP1 SSTORE POP PUSH2 0x34D DUP1 PUSH2 0x22 PUSH0 CODECOPY PUSH0 RETURN INVALID PUSH1 0x80 PUSH1 0x40 MSTORE PUSH1 0x4 CALLDATASIZE LT PUSH2 0x33 JUMPI PUSH0 CALLDATALOAD PUSH1 0xE0 SHR DUP1 PUSH4 0x16ADA547 EQ PUSH2 0x37 JUMPI DUP1 PUSH4 0x3263A0C1 EQ PUSH2 0x61 JUMPI DUP1 PUSH4 0xCF2259CE EQ PUSH2 0x7F JUMPI JUMPDEST PUSH0 DUP1 REVERT JUMPDEST CALLVALUE DUP1 ISZERO PUSH2 0x42 JUMPI PUSH0 DUP1 REVERT JUMPDEST POP PUSH2 0x4B PUSH2 0xA9 JUMP JUMPDEST PUSH1 0x40 MLOAD PUSH2 0x58 SWAP2 SWAP1 PUSH2 0x188 JUMP JUMPDEST PUSH1 0x40 MLOAD DUP1 SWAP2 SUB SWAP1 RETURN JUMPDEST PUSH2 0x69 PUSH2 0xAE JUMP JUMPDEST PUSH1 0x40 MLOAD PUSH2 0x76 SWAP2 SWAP1 PUSH2 0x188 JUMP JUMPDEST PUSH1 0x40 MLOAD DUP1 SWAP2 SUB SWAP1 RETURN JUMPDEST CALLVALUE DUP1 ISZERO PUSH2 0x8A JUMPI PUSH0 DUP1 REVERT JUMPDEST POP PUSH2 0x93 PUSH2 0x158 JUMP JUMPDEST PUSH1 0x40 MLOAD PUSH2 0xA0 SWAP2 SWAP1 PUSH2 0x188 JUMP JUMPDEST PUSH1 0x40 MLOAD DUP1 SWAP2 SUB SWAP1 RETURN JUMPDEST PUSH0 SLOAD DUP2 JUMP JUMPDEST PUSH0 DUP1 PUSH2 0xB8 PUSH2 0x158 JUMP JUMPDEST SWAP1 POP PUSH0 PUSH1 0x3C PUSH2 0x1C20 DUP4 PUSH2 0xCB SWAP2 SWAP1 PUSH2 0x1CE JUMP JUMPDEST PUSH2 0xD5 SWAP2 SWAP1 PUSH2 0x22E JUMP JUMPDEST SWAP1 POP PUSH0 PUSH2 0x1C20 DUP4 GT ISZERO PUSH2 0xF6 JUMPI PUSH1 0xC8 DUP3 PUSH2 0xEF SWAP2 SWAP1 PUSH2 0x25E JUMP JUMPDEST SWAP1 POP PUSH2 0xFA JUMP JUMPDEST PUSH0 SWAP1 POP JUMPDEST PUSH0 DUP2 SUB PUSH2 0x10C JUMPI PUSH0 SWAP4 POP POP POP POP PUSH2 0x155 JUMP JUMPDEST DUP1 CALLVALUE EQ PUSH2 0x14E JUMPI PUSH1 0x40 MLOAD PUSH32 0x8C379A000000000000000000000000000000000000000000000000000000000 DUP2 MSTORE PUSH1 0x4 ADD PUSH2 0x145 SWAP1 PUSH2 0x2F9 JUMP JUMPDEST PUSH1 0x40 MLOAD DUP1 SWAP2 SUB SWAP1 REVERT JUMPDEST DUP1 SWAP4 POP POP POP POP JUMPDEST SWAP1 JUMP JUMPDEST PUSH0 DUP1 PUSH0 SLOAD TIMESTAMP PUSH2 0x167 SWAP2 SWAP1 PUSH2 0x1CE JUMP JUMPDEST SWAP1 POP DUP1 SWAP2 POP POP SWAP1 JUMP JUMPDEST PUSH0 DUP2 SWAP1 POP SWAP2 SWAP1 POP JUMP JUMPDEST PUSH2 0x182 DUP2 PUSH2 0x170 JUMP JUMPDEST DUP3 MSTORE POP POP JUMP JUMPDEST PUSH0 PUSH1 0x20 DUP3 ADD SWAP1 POP PUSH2 0x19B PUSH0 DUP4 ADD DUP5 PUSH2 0x179 JUMP JUMPDEST SWAP3 SWAP2 POP POP JUMP JUMPDEST PUSH32 0x4E487B7100000000000000000000000000000000000000000000000000000000 PUSH0 MSTORE PUSH1 0x11 PUSH1 0x4 MSTORE PUSH1 0x24 PUSH0 REVERT JUMPDEST PUSH0 PUSH2 0x1D8 DUP3 PUSH2 0x170 JUMP JUMPDEST SWAP2 POP PUSH2 0x1E3 DUP4 PUSH2 0x170 JUMP JUMPDEST SWAP3 POP DUP3 DUP3 SUB SWAP1 POP DUP2 DUP2 GT ISZERO PUSH2 0x1FB JUMPI PUSH2 0x1FA PUSH2 0x1A1 JUMP JUMPDEST JUMPDEST SWAP3 SWAP2 POP POP JUMP JUMPDEST PUSH32 0x4E487B7100000000000000000000000000000000000000000000000000000000 PUSH0 MSTORE PUSH1 0x12 PUSH1 0x4 MSTORE PUSH1 0x24 PUSH0 REVERT JUMPDEST PUSH0 PUSH2 0x238 DUP3 PUSH2 0x170 JUMP JUMPDEST SWAP2 POP PUSH2 0x243 DUP4 PUSH2 0x170 JUMP JUMPDEST SWAP3 POP DUP3 PUSH2 0x253 JUMPI PUSH2 0x252 PUSH2 0x201 JUMP JUMPDEST JUMPDEST DUP3 DUP3 DIV SWAP1 POP SWAP3 SWAP2 POP POP JUMP JUMPDEST PUSH0 PUSH2 0x268 DUP3 PUSH2 0x170 JUMP JUMPDEST SWAP2 POP PUSH2 0x273 DUP4 PUSH2 0x170 JUMP JUMPDEST SWAP3 POP DUP3 DUP3 MUL PUSH2 0x281 DUP2 PUSH2 0x170 JUMP JUMPDEST SWAP2 POP DUP3 DUP3 DIV DUP5 EQ DUP4 ISZERO OR PUSH2 0x298 JUMPI PUSH2 0x297 PUSH2 0x1A1 JUMP JUMPDEST JUMPDEST POP SWAP3 SWAP2 POP POP JUMP JUMPDEST PUSH0 DUP3 DUP3 MSTORE PUSH1 0x20 DUP3 ADD SWAP1 POP SWAP3 SWAP2 POP POP JUMP JUMPDEST PUSH32 0x706179207061726B000000000000000000000000000000000000000000000000 PUSH0 DUP3 ADD MSTORE POP JUMP JUMPDEST PUSH0 PUSH2 0x2E3 PUSH1 0x8 DUP4 PUSH2 0x29F JUMP JUMPDEST SWAP2 POP PUSH2 0x2EE DUP3 PUSH2 0x2AF JUMP JUMPDEST PUSH1 0x20 DUP3 ADD SWAP1 POP SWAP2 SWAP1 POP JUMP JUMPDEST PUSH0 PUSH1 0x20 DUP3 ADD SWAP1 POP DUP2 DUP2 SUB PUSH0 DUP4 ADD MSTORE PUSH2 0x310 DUP2 PUSH2 0x2D7 JUMP JUMPDEST SWAP1 POP SWAP2 SWAP1 POP JUMP INVALID LOG2 PUSH5 0x6970667358 0x22 SLT KECCAK256 SGT 0xCD SWAP11 0xC8 0xC0 0xDD SSTORE INVALID PUSH14 0x8D334BBBEC09AE7B4EB4859CE10B DUP13 TIMESTAMP STATICCALL 0xB0 0x4C OR 0xCF PUSH8 0x3764736F6C634300 ADDMOD NOT STOP CALLER "
				},
				"gasEstimates": {
					"creation": {
						"codeDepositCost": "169000",
						"executionCost": "22324",
						"totalCost": "191324"
					},
					"external": {
						"payPark()": "infinite",
						"recordTime()": "infinite",
						"time()": "2402"
					}
				},
				"methodIdentifiers": {
					"payPark()": "3263a0c1",
					"recordTime()": "cf2259ce",
					"time()": "16ada547"
				}
			},
			"storageLayout": {
				"storage": [
					{
						"astId": 3,
						"contract": "solidity_test/test12.sol:A",
						"label": "time",
						"offset": 0,
						"slot": "0",
						"type": "t_uint256"
					}
				],
				"types": {
					"t_uint256": {
						"encoding": "inplace",
						"label": "uint256",
						"numberOfBytes": "32"
					}
				}
			},
			"userdoc": {
				"kind": "user",
				"methods": {},
				"version": 1
			}
		}
	}
}