{
	"solidity_test/test11.sol": {
		"a": {
			"abi": [
				{
					"inputs": [],
					"name": "getlottery",
					"outputs": [
						{
							"internalType": "bytes",
							"name": "",
							"type": "bytes"
						}
					],
					"stateMutability": "view",
					"type": "function"
				},
				{
					"inputs": [
						{
							"internalType": "uint256",
							"name": "_a",
							"type": "uint256"
						},
						{
							"internalType": "uint256",
							"name": "_b",
							"type": "uint256"
						},
						{
							"internalType": "uint256",
							"name": "_c",
							"type": "uint256"
						},
						{
							"internalType": "uint256",
							"name": "_d",
							"type": "uint256"
						},
						{
							"internalType": "string",
							"name": "_e",
							"type": "string"
						},
						{
							"internalType": "string",
							"name": "_f",
							"type": "string"
						}
					],
					"name": "lottery",
					"outputs": [
						{
							"internalType": "uint256",
							"name": "",
							"type": "uint256"
						}
					],
					"stateMutability": "view",
					"type": "function"
				},
				{
					"inputs": [],
					"name": "setlottery",
					"outputs": [],
					"stateMutability": "nonpayable",
					"type": "function"
				}
			],
			"devdoc": {
				"kind": "dev",
				"methods": {},
				"version": 1
			},
			"evm": {
				"assembly": "    /* \"solidity_test/test11.sol\":130:2013  contract a {... */\n  mstore(0x40, 0x80)\n  callvalue\n  dup1\n  iszero\n  tag_1\n  jumpi\n  0x00\n  dup1\n  revert\ntag_1:\n  pop\n  dataSize(sub_0)\n  dup1\n  dataOffset(sub_0)\n  0x00\n  codecopy\n  0x00\n  return\nstop\n\nsub_0: assembly {\n        /* \"solidity_test/test11.sol\":130:2013  contract a {... */\n      mstore(0x40, 0x80)\n      callvalue\n      dup1\n      iszero\n      tag_1\n      jumpi\n      0x00\n      dup1\n      revert\n    tag_1:\n      pop\n      jumpi(tag_2, lt(calldatasize, 0x04))\n      shr(0xe0, calldataload(0x00))\n      dup1\n      0x67eede89\n      eq\n      tag_3\n      jumpi\n      dup1\n      0x80c49032\n      eq\n      tag_4\n      jumpi\n      dup1\n      0x86e6cb40\n      eq\n      tag_5\n      jumpi\n    tag_2:\n      0x00\n      dup1\n      revert\n        /* \"solidity_test/test11.sol\":700:791  function getlottery() public view returns(bytes memory) {... */\n    tag_3:\n      tag_6\n      tag_7\n      jump\t// in\n    tag_6:\n      mload(0x40)\n      tag_8\n      swap2\n      swap1\n      tag_9\n      jump\t// in\n    tag_8:\n      mload(0x40)\n      dup1\n      swap2\n      sub\n      swap1\n      return\n        /* \"solidity_test/test11.sol\":799:2008  function lottery(uint _a, uint _b, uint _c, uint _d, string memory _e, string memory _f) public view returns(uint){... */\n    tag_4:\n      tag_10\n      0x04\n      dup1\n      calldatasize\n      sub\n      dup2\n      add\n      swap1\n      tag_11\n      swap2\n      swap1\n      tag_12\n      jump\t// in\n    tag_11:\n      tag_13\n      jump\t// in\n    tag_10:\n      mload(0x40)\n      tag_14\n      swap2\n      swap1\n      tag_15\n      jump\t// in\n    tag_14:\n      mload(0x40)\n      dup1\n      swap2\n      sub\n      swap1\n      return\n        /* \"solidity_test/test11.sol\":563:692  function setlottery() public {... */\n    tag_5:\n      tag_16\n      tag_17\n      jump\t// in\n    tag_16:\n      stop\n        /* \"solidity_test/test11.sol\":700:791  function getlottery() public view returns(bytes memory) {... */\n    tag_7:\n        /* \"solidity_test/test11.sol\":742:754  bytes memory */\n      0x60\n        /* \"solidity_test/test11.sol\":774:783  winNumber */\n      0x00\n        /* \"solidity_test/test11.sol\":767:783  return winNumber */\n      dup1\n      sload\n      tag_19\n      swap1\n      tag_20\n      jump\t// in\n    tag_19:\n      dup1\n      0x1f\n      add\n      0x20\n      dup1\n      swap2\n      div\n      mul\n      0x20\n      add\n      mload(0x40)\n      swap1\n      dup2\n      add\n      0x40\n      mstore\n      dup1\n      swap3\n      swap2\n      swap1\n      dup2\n      dup2\n      mstore\n      0x20\n      add\n      dup3\n      dup1\n      sload\n      tag_21\n      swap1\n      tag_20\n      jump\t// in\n    tag_21:\n      dup1\n      iszero\n      tag_22\n      jumpi\n      dup1\n      0x1f\n      lt\n      tag_23\n      jumpi\n      0x0100\n      dup1\n      dup4\n      sload\n      div\n      mul\n      dup4\n      mstore\n      swap2\n      0x20\n      add\n      swap2\n      jump(tag_22)\n    tag_23:\n      dup3\n      add\n      swap2\n      swap1\n      0x00\n      mstore\n      keccak256(0x00, 0x20)\n      swap1\n    tag_24:\n      dup2\n      sload\n      dup2\n      mstore\n      swap1\n      0x01\n      add\n      swap1\n      0x20\n      add\n      dup1\n      dup4\n      gt\n      tag_24\n      jumpi\n      dup3\n      swap1\n      sub\n      0x1f\n      and\n      dup3\n      add\n      swap2\n    tag_22:\n      pop\n      pop\n      pop\n      pop\n      pop\n      swap1\n      pop\n        /* \"solidity_test/test11.sol\":700:791  function getlottery() public view returns(bytes memory) {... */\n      swap1\n      jump\t// out\n        /* \"solidity_test/test11.sol\":799:2008  function lottery(uint _a, uint _b, uint _c, uint _d, string memory _e, string memory _f) public view returns(uint){... */\n    tag_13:\n        /* \"solidity_test/test11.sol\":908:912  uint */\n      0x00\n        /* \"solidity_test/test11.sol\":952:953  1 */\n      0x01\n        /* \"solidity_test/test11.sol\":938:940  _e */\n      dup4\n        /* \"solidity_test/test11.sol\":932:948  bytes(_e).length */\n      mload\n        /* \"solidity_test/test11.sol\":932:953  bytes(_e).length == 1 */\n      eq\n        /* \"solidity_test/test11.sol\":924:970  require(bytes(_e).length == 1, \"put 1 letter\") */\n      tag_26\n      jumpi\n      mload(0x40)\n      0x08c379a000000000000000000000000000000000000000000000000000000000\n      dup2\n      mstore\n      0x04\n      add\n      tag_27\n      swap1\n      tag_28\n      jump\t// in\n    tag_27:\n      mload(0x40)\n      dup1\n      swap2\n      sub\n      swap1\n      revert\n    tag_26:\n        /* \"solidity_test/test11.sol\":1009:1010  1 */\n      0x01\n        /* \"solidity_test/test11.sol\":995:997  _f */\n      dup3\n        /* \"solidity_test/test11.sol\":989:1005  bytes(_f).length */\n      mload\n        /* \"solidity_test/test11.sol\":989:1010  bytes(_f).length == 1 */\n      eq\n        /* \"solidity_test/test11.sol\":981:1027  require(bytes(_f).length == 1, \"put 1 letter\") */\n      tag_29\n      jumpi\n      mload(0x40)\n      0x08c379a000000000000000000000000000000000000000000000000000000000\n      dup2\n      mstore\n      0x04\n      add\n      tag_30\n      swap1\n      tag_28\n      jump\t// in\n    tag_30:\n      mload(0x40)\n      dup1\n      swap2\n      sub\n      swap1\n      revert\n    tag_29:\n        /* \"solidity_test/test11.sol\":1157:1170  uint winCount */\n      0x00\n        /* \"solidity_test/test11.sol\":1183:1191  bytes1 A */\n      dup1\n        /* \"solidity_test/test11.sol\":1212:1214  _a */\n      dup9\n        /* \"solidity_test/test11.sol\":1207:1211  0x48 */\n      0x48\n        /* \"solidity_test/test11.sol\":1207:1214  0x48+_a */\n      tag_31\n      swap2\n      swap1\n      tag_32\n      jump\t// in\n    tag_31:\n        /* \"solidity_test/test11.sol\":1194:1216  bytes1(uint8(0x48+_a)) */\n      0xf8\n      shl\n        /* \"solidity_test/test11.sol\":1183:1216  bytes1 A = bytes1(uint8(0x48+_a)) */\n      swap1\n      pop\n        /* \"solidity_test/test11.sol\":1227:1235  bytes1 B */\n      0x00\n        /* \"solidity_test/test11.sol\":1256:1258  _b */\n      dup9\n        /* \"solidity_test/test11.sol\":1251:1255  0x48 */\n      0x48\n        /* \"solidity_test/test11.sol\":1251:1258  0x48+_b */\n      tag_33\n      swap2\n      swap1\n      tag_32\n      jump\t// in\n    tag_33:\n        /* \"solidity_test/test11.sol\":1238:1260  bytes1(uint8(0x48+_b)) */\n      0xf8\n      shl\n        /* \"solidity_test/test11.sol\":1227:1260  bytes1 B = bytes1(uint8(0x48+_b)) */\n      swap1\n      pop\n        /* \"solidity_test/test11.sol\":1271:1279  bytes1 C */\n      0x00\n        /* \"solidity_test/test11.sol\":1300:1302  _c */\n      dup9\n        /* \"solidity_test/test11.sol\":1295:1299  0x48 */\n      0x48\n        /* \"solidity_test/test11.sol\":1295:1302  0x48+_c */\n      tag_34\n      swap2\n      swap1\n      tag_32\n      jump\t// in\n    tag_34:\n        /* \"solidity_test/test11.sol\":1282:1304  bytes1(uint8(0x48+_c)) */\n      0xf8\n      shl\n        /* \"solidity_test/test11.sol\":1271:1304  bytes1 C = bytes1(uint8(0x48+_c)) */\n      swap1\n      pop\n        /* \"solidity_test/test11.sol\":1315:1323  bytes1 D */\n      0x00\n        /* \"solidity_test/test11.sol\":1344:1346  _d */\n      dup9\n        /* \"solidity_test/test11.sol\":1339:1343  0x48 */\n      0x48\n        /* \"solidity_test/test11.sol\":1339:1346  0x48+_d */\n      tag_35\n      swap2\n      swap1\n      tag_32\n      jump\t// in\n    tag_35:\n        /* \"solidity_test/test11.sol\":1326:1348  bytes1(uint8(0x48+_d)) */\n      0xf8\n      shl\n        /* \"solidity_test/test11.sol\":1315:1348  bytes1 D = bytes1(uint8(0x48+_d)) */\n      swap1\n      pop\n        /* \"solidity_test/test11.sol\":1365:1371  uint i */\n      0x00\n        /* \"solidity_test/test11.sol\":1361:1700  for(uint i=0; i < 4; i++) {... */\n    tag_36:\n        /* \"solidity_test/test11.sol\":1379:1380  4 */\n      0x04\n        /* \"solidity_test/test11.sol\":1375:1376  i */\n      dup2\n        /* \"solidity_test/test11.sol\":1375:1380  i < 4 */\n      lt\n        /* \"solidity_test/test11.sol\":1361:1700  for(uint i=0; i < 4; i++) {... */\n      iszero\n      tag_37\n      jumpi\n        /* \"solidity_test/test11.sol\":1421:1422  A */\n      dup5\n        /* \"solidity_test/test11.sol\":1405:1422  winNumber[i] == A */\n      not(0xffffffffffffffffffffffffffffffffffffffffffffffffffffffffffffff)\n      and\n        /* \"solidity_test/test11.sol\":1405:1414  winNumber */\n      0x00\n        /* \"solidity_test/test11.sol\":1415:1416  i */\n      dup3\n        /* \"solidity_test/test11.sol\":1405:1417  winNumber[i] */\n      dup2\n      sload\n      tag_39\n      swap1\n      tag_20\n      jump\t// in\n    tag_39:\n      dup2\n      lt\n      tag_40\n      jumpi\n      tag_41\n      tag_42\n      jump\t// in\n    tag_41:\n    tag_40:\n      dup2\n      sload\n      0x01\n      and\n      iszero\n      tag_43\n      jumpi\n      swap1\n      0x00\n      mstore\n      keccak256(0x00, 0x20)\n      swap1\n      0x20\n      swap2\n      dup3\n      dup3\n      div\n      add\n      swap2\n      swap1\n      mod\n    tag_43:\n      swap1\n      sload\n      swap1\n      byte\n      0x0100000000000000000000000000000000000000000000000000000000000000\n      mul\n        /* \"solidity_test/test11.sol\":1405:1422  winNumber[i] == A */\n      not(0xffffffffffffffffffffffffffffffffffffffffffffffffffffffffffffff)\n      and\n      sub\n        /* \"solidity_test/test11.sol\":1402:1688  if(winNumber[i] == A) {... */\n      tag_44\n      jumpi\n        /* \"solidity_test/test11.sol\":1443:1453  winCount++ */\n      dup6\n      dup1\n      tag_45\n      swap1\n      tag_46\n      jump\t// in\n    tag_45:\n      swap7\n      pop\n      pop\n        /* \"solidity_test/test11.sol\":1402:1688  if(winNumber[i] == A) {... */\n      jump(tag_47)\n    tag_44:\n        /* \"solidity_test/test11.sol\":1494:1495  B */\n      dup4\n        /* \"solidity_test/test11.sol\":1478:1495  winNumber[i] == B */\n      not(0xffffffffffffffffffffffffffffffffffffffffffffffffffffffffffffff)\n      and\n        /* \"solidity_test/test11.sol\":1478:1487  winNumber */\n      0x00\n        /* \"solidity_test/test11.sol\":1488:1489  i */\n      dup3\n        /* \"solidity_test/test11.sol\":1478:1490  winNumber[i] */\n      dup2\n      sload\n      tag_48\n      swap1\n      tag_20\n      jump\t// in\n    tag_48:\n      dup2\n      lt\n      tag_49\n      jumpi\n      tag_50\n      tag_42\n      jump\t// in\n    tag_50:\n    tag_49:\n      dup2\n      sload\n      0x01\n      and\n      iszero\n      tag_51\n      jumpi\n      swap1\n      0x00\n      mstore\n      keccak256(0x00, 0x20)\n      swap1\n      0x20\n      swap2\n      dup3\n      dup3\n      div\n      add\n      swap2\n      swap1\n      mod\n    tag_51:\n      swap1\n      sload\n      swap1\n      byte\n      0x0100000000000000000000000000000000000000000000000000000000000000\n      mul\n        /* \"solidity_test/test11.sol\":1478:1495  winNumber[i] == B */\n      not(0xffffffffffffffffffffffffffffffffffffffffffffffffffffffffffffff)\n      and\n      sub\n        /* \"solidity_test/test11.sol\":1475:1688  if(winNumber[i] == B) {... */\n      tag_52\n      jumpi\n        /* \"solidity_test/test11.sol\":1516:1526  winCount++ */\n      dup6\n      dup1\n      tag_53\n      swap1\n      tag_46\n      jump\t// in\n    tag_53:\n      swap7\n      pop\n      pop\n        /* \"solidity_test/test11.sol\":1475:1688  if(winNumber[i] == B) {... */\n      jump(tag_54)\n    tag_52:\n        /* \"solidity_test/test11.sol\":1567:1568  C */\n      dup3\n        /* \"solidity_test/test11.sol\":1551:1568  winNumber[i] == C */\n      not(0xffffffffffffffffffffffffffffffffffffffffffffffffffffffffffffff)\n      and\n        /* \"solidity_test/test11.sol\":1551:1560  winNumber */\n      0x00\n        /* \"solidity_test/test11.sol\":1561:1562  i */\n      dup3\n        /* \"solidity_test/test11.sol\":1551:1563  winNumber[i] */\n      dup2\n      sload\n      tag_55\n      swap1\n      tag_20\n      jump\t// in\n    tag_55:\n      dup2\n      lt\n      tag_56\n      jumpi\n      tag_57\n      tag_42\n      jump\t// in\n    tag_57:\n    tag_56:\n      dup2\n      sload\n      0x01\n      and\n      iszero\n      tag_58\n      jumpi\n      swap1\n      0x00\n      mstore\n      keccak256(0x00, 0x20)\n      swap1\n      0x20\n      swap2\n      dup3\n      dup3\n      div\n      add\n      swap2\n      swap1\n      mod\n    tag_58:\n      swap1\n      sload\n      swap1\n      byte\n      0x0100000000000000000000000000000000000000000000000000000000000000\n      mul\n        /* \"solidity_test/test11.sol\":1551:1568  winNumber[i] == C */\n      not(0xffffffffffffffffffffffffffffffffffffffffffffffffffffffffffffff)\n      and\n      sub\n        /* \"solidity_test/test11.sol\":1548:1688  if(winNumber[i] == C) {... */\n      tag_59\n      jumpi\n        /* \"solidity_test/test11.sol\":1589:1599  winCount++ */\n      dup6\n      dup1\n      tag_60\n      swap1\n      tag_46\n      jump\t// in\n    tag_60:\n      swap7\n      pop\n      pop\n        /* \"solidity_test/test11.sol\":1548:1688  if(winNumber[i] == C) {... */\n      jump(tag_61)\n    tag_59:\n        /* \"solidity_test/test11.sol\":1640:1641  D */\n      dup2\n        /* \"solidity_test/test11.sol\":1624:1641  winNumber[i] == D */\n      not(0xffffffffffffffffffffffffffffffffffffffffffffffffffffffffffffff)\n      and\n        /* \"solidity_test/test11.sol\":1624:1633  winNumber */\n      0x00\n        /* \"solidity_test/test11.sol\":1634:1635  i */\n      dup3\n        /* \"solidity_test/test11.sol\":1624:1636  winNumber[i] */\n      dup2\n      sload\n      tag_62\n      swap1\n      tag_20\n      jump\t// in\n    tag_62:\n      dup2\n      lt\n      tag_63\n      jumpi\n      tag_64\n      tag_42\n      jump\t// in\n    tag_64:\n    tag_63:\n      dup2\n      sload\n      0x01\n      and\n      iszero\n      tag_65\n      jumpi\n      swap1\n      0x00\n      mstore\n      keccak256(0x00, 0x20)\n      swap1\n      0x20\n      swap2\n      dup3\n      dup3\n      div\n      add\n      swap2\n      swap1\n      mod\n    tag_65:\n      swap1\n      sload\n      swap1\n      byte\n      0x0100000000000000000000000000000000000000000000000000000000000000\n      mul\n        /* \"solidity_test/test11.sol\":1624:1641  winNumber[i] == D */\n      not(0xffffffffffffffffffffffffffffffffffffffffffffffffffffffffffffff)\n      and\n      sub\n        /* \"solidity_test/test11.sol\":1621:1688  if(winNumber[i] == D) {... */\n      tag_66\n      jumpi\n        /* \"solidity_test/test11.sol\":1662:1672  winCount++ */\n      dup6\n      dup1\n      tag_67\n      swap1\n      tag_46\n      jump\t// in\n    tag_67:\n      swap7\n      pop\n      pop\n        /* \"solidity_test/test11.sol\":1621:1688  if(winNumber[i] == D) {... */\n    tag_66:\n        /* \"solidity_test/test11.sol\":1548:1688  if(winNumber[i] == C) {... */\n    tag_61:\n        /* \"solidity_test/test11.sol\":1475:1688  if(winNumber[i] == B) {... */\n    tag_54:\n        /* \"solidity_test/test11.sol\":1402:1688  if(winNumber[i] == A) {... */\n    tag_47:\n        /* \"solidity_test/test11.sol\":1382:1385  i++ */\n      dup1\n      dup1\n      0x01\n      add\n      swap2\n      pop\n      pop\n        /* \"solidity_test/test11.sol\":1361:1700  for(uint i=0; i < 4; i++) {... */\n      jump(tag_36)\n    tag_37:\n      pop\n        /* \"solidity_test/test11.sol\":1712:1720  bytes1 E */\n      0x00\n        /* \"solidity_test/test11.sol\":1729:1731  _e */\n      dup9\n        /* \"solidity_test/test11.sol\":1733:1734  0 */\n      0x00\n        /* \"solidity_test/test11.sol\":1723:1735  bytes(_e)[0] */\n      dup2\n      mload\n      dup2\n      lt\n      tag_68\n      jumpi\n      tag_69\n      tag_42\n      jump\t// in\n    tag_69:\n    tag_68:\n      0x20\n      add\n      add\n      mload\n      0xf8\n      shr\n      0xf8\n      shl\n        /* \"solidity_test/test11.sol\":1712:1735  bytes1 E = bytes(_e)[0] */\n      swap1\n      pop\n        /* \"solidity_test/test11.sol\":1746:1754  bytes1 F */\n      0x00\n        /* \"solidity_test/test11.sol\":1763:1765  _f */\n      dup9\n        /* \"solidity_test/test11.sol\":1767:1768  0 */\n      0x00\n        /* \"solidity_test/test11.sol\":1757:1769  bytes(_f)[0] */\n      dup2\n      mload\n      dup2\n      lt\n      tag_70\n      jumpi\n      tag_71\n      tag_42\n      jump\t// in\n    tag_71:\n    tag_70:\n      0x20\n      add\n      add\n      mload\n      0xf8\n      shr\n      0xf8\n      shl\n        /* \"solidity_test/test11.sol\":1746:1769  bytes1 F = bytes(_f)[0] */\n      swap1\n      pop\n        /* \"solidity_test/test11.sol\":1786:1792  uint i */\n      0x00\n        /* \"solidity_test/test11.sol\":1793:1794  4 */\n      0x04\n        /* \"solidity_test/test11.sol\":1786:1794  uint i=4 */\n      swap1\n      pop\n        /* \"solidity_test/test11.sol\":1782:1973  for(uint i=4; i<6; i++) {... */\n    tag_72:\n        /* \"solidity_test/test11.sol\":1798:1799  6 */\n      0x06\n        /* \"solidity_test/test11.sol\":1796:1797  i */\n      dup2\n        /* \"solidity_test/test11.sol\":1796:1799  i<6 */\n      lt\n        /* \"solidity_test/test11.sol\":1782:1973  for(uint i=4; i<6; i++) {... */\n      iszero\n      tag_73\n      jumpi\n        /* \"solidity_test/test11.sol\":1840:1841  E */\n      dup3\n        /* \"solidity_test/test11.sol\":1824:1841  winNumber[i] == E */\n      not(0xffffffffffffffffffffffffffffffffffffffffffffffffffffffffffffff)\n      and\n        /* \"solidity_test/test11.sol\":1824:1833  winNumber */\n      0x00\n        /* \"solidity_test/test11.sol\":1834:1835  i */\n      dup3\n        /* \"solidity_test/test11.sol\":1824:1836  winNumber[i] */\n      dup2\n      sload\n      tag_75\n      swap1\n      tag_20\n      jump\t// in\n    tag_75:\n      dup2\n      lt\n      tag_76\n      jumpi\n      tag_77\n      tag_42\n      jump\t// in\n    tag_77:\n    tag_76:\n      dup2\n      sload\n      0x01\n      and\n      iszero\n      tag_78\n      jumpi\n      swap1\n      0x00\n      mstore\n      keccak256(0x00, 0x20)\n      swap1\n      0x20\n      swap2\n      dup3\n      dup3\n      div\n      add\n      swap2\n      swap1\n      mod\n    tag_78:\n      swap1\n      sload\n      swap1\n      byte\n      0x0100000000000000000000000000000000000000000000000000000000000000\n      mul\n        /* \"solidity_test/test11.sol\":1824:1841  winNumber[i] == E */\n      not(0xffffffffffffffffffffffffffffffffffffffffffffffffffffffffffffff)\n      and\n      sub\n        /* \"solidity_test/test11.sol\":1821:1962  if(winNumber[i] == E) {... */\n      tag_79\n      jumpi\n        /* \"solidity_test/test11.sol\":1862:1872  winCount++ */\n      dup8\n      dup1\n      tag_80\n      swap1\n      tag_46\n      jump\t// in\n    tag_80:\n      swap9\n      pop\n      pop\n        /* \"solidity_test/test11.sol\":1821:1962  if(winNumber[i] == E) {... */\n      jump(tag_81)\n    tag_79:\n        /* \"solidity_test/test11.sol\":1914:1915  F */\n      dup2\n        /* \"solidity_test/test11.sol\":1898:1915  winNumber[i] == F */\n      not(0xffffffffffffffffffffffffffffffffffffffffffffffffffffffffffffff)\n      and\n        /* \"solidity_test/test11.sol\":1898:1907  winNumber */\n      0x00\n        /* \"solidity_test/test11.sol\":1908:1909  i */\n      dup3\n        /* \"solidity_test/test11.sol\":1898:1910  winNumber[i] */\n      dup2\n      sload\n      tag_82\n      swap1\n      tag_20\n      jump\t// in\n    tag_82:\n      dup2\n      lt\n      tag_83\n      jumpi\n      tag_84\n      tag_42\n      jump\t// in\n    tag_84:\n    tag_83:\n      dup2\n      sload\n      0x01\n      and\n      iszero\n      tag_85\n      jumpi\n      swap1\n      0x00\n      mstore\n      keccak256(0x00, 0x20)\n      swap1\n      0x20\n      swap2\n      dup3\n      dup3\n      div\n      add\n      swap2\n      swap1\n      mod\n    tag_85:\n      swap1\n      sload\n      swap1\n      byte\n      0x0100000000000000000000000000000000000000000000000000000000000000\n      mul\n        /* \"solidity_test/test11.sol\":1898:1915  winNumber[i] == F */\n      not(0xffffffffffffffffffffffffffffffffffffffffffffffffffffffffffffff)\n      and\n      sub\n        /* \"solidity_test/test11.sol\":1894:1962  if (winNumber[i] == F) {... */\n      tag_86\n      jumpi\n        /* \"solidity_test/test11.sol\":1936:1946  winCount++ */\n      dup8\n      dup1\n      tag_87\n      swap1\n      tag_46\n      jump\t// in\n    tag_87:\n      swap9\n      pop\n      pop\n        /* \"solidity_test/test11.sol\":1894:1962  if (winNumber[i] == F) {... */\n    tag_86:\n        /* \"solidity_test/test11.sol\":1821:1962  if(winNumber[i] == E) {... */\n    tag_81:\n        /* \"solidity_test/test11.sol\":1801:1804  i++ */\n      dup1\n      dup1\n      0x01\n      add\n      swap2\n      pop\n      pop\n        /* \"solidity_test/test11.sol\":1782:1973  for(uint i=4; i<6; i++) {... */\n      jump(tag_72)\n    tag_73:\n      pop\n        /* \"solidity_test/test11.sol\":1990:1998  winCount */\n      dup7\n        /* \"solidity_test/test11.sol\":1983:1998  return winCount */\n      swap8\n      pop\n      pop\n      pop\n      pop\n      pop\n      pop\n      pop\n      pop\n        /* \"solidity_test/test11.sol\":799:2008  function lottery(uint _a, uint _b, uint _c, uint _d, string memory _e, string memory _f) public view returns(uint){... */\n      swap7\n      swap6\n      pop\n      pop\n      pop\n      pop\n      pop\n      pop\n      jump\t// out\n        /* \"solidity_test/test11.sol\":563:692  function setlottery() public {... */\n    tag_17:\n        /* \"solidity_test/test11.sol\":632:642  bytes(\"5\") */\n      mload(0x40)\n      dup1\n      0x40\n      add\n      0x40\n      mstore\n      dup1\n      0x01\n      dup2\n      mstore\n      0x20\n      add\n      0x3500000000000000000000000000000000000000000000000000000000000000\n      dup2\n      mstore\n      pop\n        /* \"solidity_test/test11.sol\":643:653  bytes(\"2\") */\n      mload(0x40)\n      dup1\n      0x40\n      add\n      0x40\n      mstore\n      dup1\n      0x01\n      dup2\n      mstore\n      0x20\n      add\n      0x3200000000000000000000000000000000000000000000000000000000000000\n      dup2\n      mstore\n      pop\n        /* \"solidity_test/test11.sol\":654:664  bytes(\"1\") */\n      mload(0x40)\n      dup1\n      0x40\n      add\n      0x40\n      mstore\n      dup1\n      0x01\n      dup2\n      mstore\n      0x20\n      add\n      0x3100000000000000000000000000000000000000000000000000000000000000\n      dup2\n      mstore\n      pop\n        /* \"solidity_test/test11.sol\":665:675  bytes(\"4\") */\n      mload(0x40)\n      dup1\n      0x40\n      add\n      0x40\n      mstore\n      dup1\n      0x01\n      dup2\n      mstore\n      0x20\n      add\n      0x3400000000000000000000000000000000000000000000000000000000000000\n      dup2\n      mstore\n      pop\n        /* \"solidity_test/test11.sol\":615:684  abi.encodePacked(bytes(\"5\"),bytes(\"2\"),bytes(\"1\"),bytes(\"4\"),\"A\",\"B\") */\n      add(0x20, mload(0x40))\n      tag_89\n      swap5\n      swap4\n      swap3\n      swap2\n      swap1\n      tag_90\n      jump\t// in\n    tag_89:\n      mload(0x40)\n      0x20\n      dup2\n      dup4\n      sub\n      sub\n      dup2\n      mstore\n      swap1\n      0x40\n      mstore\n        /* \"solidity_test/test11.sol\":603:612  winNumber */\n      0x00\n        /* \"solidity_test/test11.sol\":603:684  winNumber = abi.encodePacked(bytes(\"5\"),bytes(\"2\"),bytes(\"1\"),bytes(\"4\"),\"A\",\"B\") */\n      swap1\n      dup2\n      tag_91\n      swap2\n      swap1\n      tag_92\n      jump\t// in\n    tag_91:\n      pop\n        /* \"solidity_test/test11.sol\":563:692  function setlottery() public {... */\n      jump\t// out\n        /* \"#utility.yul\":7:105   */\n    tag_93:\n        /* \"#utility.yul\":58:64   */\n      0x00\n        /* \"#utility.yul\":92:97   */\n      dup2\n        /* \"#utility.yul\":86:98   */\n      mload\n        /* \"#utility.yul\":76:98   */\n      swap1\n      pop\n        /* \"#utility.yul\":7:105   */\n      swap2\n      swap1\n      pop\n      jump\t// out\n        /* \"#utility.yul\":111:279   */\n    tag_94:\n        /* \"#utility.yul\":194:205   */\n      0x00\n        /* \"#utility.yul\":228:234   */\n      dup3\n        /* \"#utility.yul\":223:226   */\n      dup3\n        /* \"#utility.yul\":216:235   */\n      mstore\n        /* \"#utility.yul\":268:272   */\n      0x20\n        /* \"#utility.yul\":263:266   */\n      dup3\n        /* \"#utility.yul\":259:273   */\n      add\n        /* \"#utility.yul\":244:273   */\n      swap1\n      pop\n        /* \"#utility.yul\":111:279   */\n      swap3\n      swap2\n      pop\n      pop\n      jump\t// out\n        /* \"#utility.yul\":285:424   */\n    tag_95:\n        /* \"#utility.yul\":374:380   */\n      dup3\n        /* \"#utility.yul\":369:372   */\n      dup2\n        /* \"#utility.yul\":364:367   */\n      dup4\n        /* \"#utility.yul\":358:381   */\n      mcopy\n        /* \"#utility.yul\":415:416   */\n      0x00\n        /* \"#utility.yul\":406:412   */\n      dup4\n        /* \"#utility.yul\":401:404   */\n      dup4\n        /* \"#utility.yul\":397:413   */\n      add\n        /* \"#utility.yul\":390:417   */\n      mstore\n        /* \"#utility.yul\":285:424   */\n      pop\n      pop\n      pop\n      jump\t// out\n        /* \"#utility.yul\":430:532   */\n    tag_96:\n        /* \"#utility.yul\":471:477   */\n      0x00\n        /* \"#utility.yul\":522:524   */\n      0x1f\n        /* \"#utility.yul\":518:525   */\n      not\n        /* \"#utility.yul\":513:515   */\n      0x1f\n        /* \"#utility.yul\":506:511   */\n      dup4\n        /* \"#utility.yul\":502:516   */\n      add\n        /* \"#utility.yul\":498:526   */\n      and\n        /* \"#utility.yul\":488:526   */\n      swap1\n      pop\n        /* \"#utility.yul\":430:532   */\n      swap2\n      swap1\n      pop\n      jump\t// out\n        /* \"#utility.yul\":538:911   */\n    tag_97:\n        /* \"#utility.yul\":624:627   */\n      0x00\n        /* \"#utility.yul\":652:690   */\n      tag_147\n        /* \"#utility.yul\":684:689   */\n      dup3\n        /* \"#utility.yul\":652:690   */\n      tag_93\n      jump\t// in\n    tag_147:\n        /* \"#utility.yul\":706:776   */\n      tag_148\n        /* \"#utility.yul\":769:775   */\n      dup2\n        /* \"#utility.yul\":764:767   */\n      dup6\n        /* \"#utility.yul\":706:776   */\n      tag_94\n      jump\t// in\n    tag_148:\n        /* \"#utility.yul\":699:776   */\n      swap4\n      pop\n        /* \"#utility.yul\":785:850   */\n      tag_149\n        /* \"#utility.yul\":843:849   */\n      dup2\n        /* \"#utility.yul\":838:841   */\n      dup6\n        /* \"#utility.yul\":831:835   */\n      0x20\n        /* \"#utility.yul\":824:829   */\n      dup7\n        /* \"#utility.yul\":820:836   */\n      add\n        /* \"#utility.yul\":785:850   */\n      tag_95\n      jump\t// in\n    tag_149:\n        /* \"#utility.yul\":875:904   */\n      tag_150\n        /* \"#utility.yul\":897:903   */\n      dup2\n        /* \"#utility.yul\":875:904   */\n      tag_96\n      jump\t// in\n    tag_150:\n        /* \"#utility.yul\":870:873   */\n      dup5\n        /* \"#utility.yul\":866:905   */\n      add\n        /* \"#utility.yul\":859:905   */\n      swap2\n      pop\n        /* \"#utility.yul\":628:911   */\n      pop\n        /* \"#utility.yul\":538:911   */\n      swap3\n      swap2\n      pop\n      pop\n      jump\t// out\n        /* \"#utility.yul\":917:1226   */\n    tag_9:\n        /* \"#utility.yul\":1028:1032   */\n      0x00\n        /* \"#utility.yul\":1066:1068   */\n      0x20\n        /* \"#utility.yul\":1055:1064   */\n      dup3\n        /* \"#utility.yul\":1051:1069   */\n      add\n        /* \"#utility.yul\":1043:1069   */\n      swap1\n      pop\n        /* \"#utility.yul\":1115:1124   */\n      dup2\n        /* \"#utility.yul\":1109:1113   */\n      dup2\n        /* \"#utility.yul\":1105:1125   */\n      sub\n        /* \"#utility.yul\":1101:1102   */\n      0x00\n        /* \"#utility.yul\":1090:1099   */\n      dup4\n        /* \"#utility.yul\":1086:1103   */\n      add\n        /* \"#utility.yul\":1079:1126   */\n      mstore\n        /* \"#utility.yul\":1143:1219   */\n      tag_152\n        /* \"#utility.yul\":1214:1218   */\n      dup2\n        /* \"#utility.yul\":1205:1211   */\n      dup5\n        /* \"#utility.yul\":1143:1219   */\n      tag_97\n      jump\t// in\n    tag_152:\n        /* \"#utility.yul\":1135:1219   */\n      swap1\n      pop\n        /* \"#utility.yul\":917:1226   */\n      swap3\n      swap2\n      pop\n      pop\n      jump\t// out\n        /* \"#utility.yul\":1232:1307   */\n    tag_98:\n        /* \"#utility.yul\":1265:1271   */\n      0x00\n        /* \"#utility.yul\":1298:1300   */\n      0x40\n        /* \"#utility.yul\":1292:1301   */\n      mload\n        /* \"#utility.yul\":1282:1301   */\n      swap1\n      pop\n        /* \"#utility.yul\":1232:1307   */\n      swap1\n      jump\t// out\n        /* \"#utility.yul\":1313:1430   */\n    tag_99:\n        /* \"#utility.yul\":1422:1423   */\n      0x00\n        /* \"#utility.yul\":1419:1420   */\n      dup1\n        /* \"#utility.yul\":1412:1424   */\n      revert\n        /* \"#utility.yul\":1436:1553   */\n    tag_100:\n        /* \"#utility.yul\":1545:1546   */\n      0x00\n        /* \"#utility.yul\":1542:1543   */\n      dup1\n        /* \"#utility.yul\":1535:1547   */\n      revert\n        /* \"#utility.yul\":1559:1636   */\n    tag_101:\n        /* \"#utility.yul\":1596:1603   */\n      0x00\n        /* \"#utility.yul\":1625:1630   */\n      dup2\n        /* \"#utility.yul\":1614:1630   */\n      swap1\n      pop\n        /* \"#utility.yul\":1559:1636   */\n      swap2\n      swap1\n      pop\n      jump\t// out\n        /* \"#utility.yul\":1642:1764   */\n    tag_102:\n        /* \"#utility.yul\":1715:1739   */\n      tag_158\n        /* \"#utility.yul\":1733:1738   */\n      dup2\n        /* \"#utility.yul\":1715:1739   */\n      tag_101\n      jump\t// in\n    tag_158:\n        /* \"#utility.yul\":1708:1713   */\n      dup2\n        /* \"#utility.yul\":1705:1740   */\n      eq\n        /* \"#utility.yul\":1695:1758   */\n      tag_159\n      jumpi\n        /* \"#utility.yul\":1754:1755   */\n      0x00\n        /* \"#utility.yul\":1751:1752   */\n      dup1\n        /* \"#utility.yul\":1744:1756   */\n      revert\n        /* \"#utility.yul\":1695:1758   */\n    tag_159:\n        /* \"#utility.yul\":1642:1764   */\n      pop\n      jump\t// out\n        /* \"#utility.yul\":1770:1909   */\n    tag_103:\n        /* \"#utility.yul\":1816:1821   */\n      0x00\n        /* \"#utility.yul\":1854:1860   */\n      dup2\n        /* \"#utility.yul\":1841:1861   */\n      calldataload\n        /* \"#utility.yul\":1832:1861   */\n      swap1\n      pop\n        /* \"#utility.yul\":1870:1903   */\n      tag_161\n        /* \"#utility.yul\":1897:1902   */\n      dup2\n        /* \"#utility.yul\":1870:1903   */\n      tag_102\n      jump\t// in\n    tag_161:\n        /* \"#utility.yul\":1770:1909   */\n      swap3\n      swap2\n      pop\n      pop\n      jump\t// out\n        /* \"#utility.yul\":1915:2032   */\n    tag_104:\n        /* \"#utility.yul\":2024:2025   */\n      0x00\n        /* \"#utility.yul\":2021:2022   */\n      dup1\n        /* \"#utility.yul\":2014:2026   */\n      revert\n        /* \"#utility.yul\":2038:2155   */\n    tag_105:\n        /* \"#utility.yul\":2147:2148   */\n      0x00\n        /* \"#utility.yul\":2144:2145   */\n      dup1\n        /* \"#utility.yul\":2137:2149   */\n      revert\n        /* \"#utility.yul\":2161:2341   */\n    tag_106:\n        /* \"#utility.yul\":2209:2286   */\n      0x4e487b7100000000000000000000000000000000000000000000000000000000\n        /* \"#utility.yul\":2206:2207   */\n      0x00\n        /* \"#utility.yul\":2199:2287   */\n      mstore\n        /* \"#utility.yul\":2306:2310   */\n      0x41\n        /* \"#utility.yul\":2303:2304   */\n      0x04\n        /* \"#utility.yul\":2296:2311   */\n      mstore\n        /* \"#utility.yul\":2330:2334   */\n      0x24\n        /* \"#utility.yul\":2327:2328   */\n      0x00\n        /* \"#utility.yul\":2320:2335   */\n      revert\n        /* \"#utility.yul\":2347:2628   */\n    tag_107:\n        /* \"#utility.yul\":2430:2457   */\n      tag_166\n        /* \"#utility.yul\":2452:2456   */\n      dup3\n        /* \"#utility.yul\":2430:2457   */\n      tag_96\n      jump\t// in\n    tag_166:\n        /* \"#utility.yul\":2422:2428   */\n      dup2\n        /* \"#utility.yul\":2418:2458   */\n      add\n        /* \"#utility.yul\":2560:2566   */\n      dup2\n        /* \"#utility.yul\":2548:2558   */\n      dup2\n        /* \"#utility.yul\":2545:2567   */\n      lt\n        /* \"#utility.yul\":2524:2542   */\n      0xffffffffffffffff\n        /* \"#utility.yul\":2512:2522   */\n      dup3\n        /* \"#utility.yul\":2509:2543   */\n      gt\n        /* \"#utility.yul\":2506:2568   */\n      or\n        /* \"#utility.yul\":2503:2591   */\n      iszero\n      tag_167\n      jumpi\n        /* \"#utility.yul\":2571:2589   */\n      tag_168\n      tag_106\n      jump\t// in\n    tag_168:\n        /* \"#utility.yul\":2503:2591   */\n    tag_167:\n        /* \"#utility.yul\":2611:2621   */\n      dup1\n        /* \"#utility.yul\":2607:2609   */\n      0x40\n        /* \"#utility.yul\":2600:2622   */\n      mstore\n        /* \"#utility.yul\":2390:2628   */\n      pop\n        /* \"#utility.yul\":2347:2628   */\n      pop\n      pop\n      jump\t// out\n        /* \"#utility.yul\":2634:2763   */\n    tag_108:\n        /* \"#utility.yul\":2668:2674   */\n      0x00\n        /* \"#utility.yul\":2695:2715   */\n      tag_170\n      tag_98\n      jump\t// in\n    tag_170:\n        /* \"#utility.yul\":2685:2715   */\n      swap1\n      pop\n        /* \"#utility.yul\":2724:2757   */\n      tag_171\n        /* \"#utility.yul\":2752:2756   */\n      dup3\n        /* \"#utility.yul\":2744:2750   */\n      dup3\n        /* \"#utility.yul\":2724:2757   */\n      tag_107\n      jump\t// in\n    tag_171:\n        /* \"#utility.yul\":2634:2763   */\n      swap2\n      swap1\n      pop\n      jump\t// out\n        /* \"#utility.yul\":2769:3077   */\n    tag_109:\n        /* \"#utility.yul\":2831:2835   */\n      0x00\n        /* \"#utility.yul\":2921:2939   */\n      0xffffffffffffffff\n        /* \"#utility.yul\":2913:2919   */\n      dup3\n        /* \"#utility.yul\":2910:2940   */\n      gt\n        /* \"#utility.yul\":2907:2963   */\n      iszero\n      tag_173\n      jumpi\n        /* \"#utility.yul\":2943:2961   */\n      tag_174\n      tag_106\n      jump\t// in\n    tag_174:\n        /* \"#utility.yul\":2907:2963   */\n    tag_173:\n        /* \"#utility.yul\":2981:3010   */\n      tag_175\n        /* \"#utility.yul\":3003:3009   */\n      dup3\n        /* \"#utility.yul\":2981:3010   */\n      tag_96\n      jump\t// in\n    tag_175:\n        /* \"#utility.yul\":2973:3010   */\n      swap1\n      pop\n        /* \"#utility.yul\":3065:3069   */\n      0x20\n        /* \"#utility.yul\":3059:3063   */\n      dup2\n        /* \"#utility.yul\":3055:3070   */\n      add\n        /* \"#utility.yul\":3047:3070   */\n      swap1\n      pop\n        /* \"#utility.yul\":2769:3077   */\n      swap2\n      swap1\n      pop\n      jump\t// out\n        /* \"#utility.yul\":3083:3231   */\n    tag_110:\n        /* \"#utility.yul\":3181:3187   */\n      dup3\n        /* \"#utility.yul\":3176:3179   */\n      dup2\n        /* \"#utility.yul\":3171:3174   */\n      dup4\n        /* \"#utility.yul\":3158:3188   */\n      calldatacopy\n        /* \"#utility.yul\":3222:3223   */\n      0x00\n        /* \"#utility.yul\":3213:3219   */\n      dup4\n        /* \"#utility.yul\":3208:3211   */\n      dup4\n        /* \"#utility.yul\":3204:3220   */\n      add\n        /* \"#utility.yul\":3197:3224   */\n      mstore\n        /* \"#utility.yul\":3083:3231   */\n      pop\n      pop\n      pop\n      jump\t// out\n        /* \"#utility.yul\":3237:3662   */\n    tag_111:\n        /* \"#utility.yul\":3315:3320   */\n      0x00\n        /* \"#utility.yul\":3340:3406   */\n      tag_178\n        /* \"#utility.yul\":3356:3405   */\n      tag_179\n        /* \"#utility.yul\":3398:3404   */\n      dup5\n        /* \"#utility.yul\":3356:3405   */\n      tag_109\n      jump\t// in\n    tag_179:\n        /* \"#utility.yul\":3340:3406   */\n      tag_108\n      jump\t// in\n    tag_178:\n        /* \"#utility.yul\":3331:3406   */\n      swap1\n      pop\n        /* \"#utility.yul\":3429:3435   */\n      dup3\n        /* \"#utility.yul\":3422:3427   */\n      dup2\n        /* \"#utility.yul\":3415:3436   */\n      mstore\n        /* \"#utility.yul\":3467:3471   */\n      0x20\n        /* \"#utility.yul\":3460:3465   */\n      dup2\n        /* \"#utility.yul\":3456:3472   */\n      add\n        /* \"#utility.yul\":3505:3508   */\n      dup5\n        /* \"#utility.yul\":3496:3502   */\n      dup5\n        /* \"#utility.yul\":3491:3494   */\n      dup5\n        /* \"#utility.yul\":3487:3503   */\n      add\n        /* \"#utility.yul\":3484:3509   */\n      gt\n        /* \"#utility.yul\":3481:3593   */\n      iszero\n      tag_180\n      jumpi\n        /* \"#utility.yul\":3512:3591   */\n      tag_181\n      tag_105\n      jump\t// in\n    tag_181:\n        /* \"#utility.yul\":3481:3593   */\n    tag_180:\n        /* \"#utility.yul\":3602:3656   */\n      tag_182\n        /* \"#utility.yul\":3649:3655   */\n      dup5\n        /* \"#utility.yul\":3644:3647   */\n      dup3\n        /* \"#utility.yul\":3639:3642   */\n      dup6\n        /* \"#utility.yul\":3602:3656   */\n      tag_110\n      jump\t// in\n    tag_182:\n        /* \"#utility.yul\":3321:3662   */\n      pop\n        /* \"#utility.yul\":3237:3662   */\n      swap4\n      swap3\n      pop\n      pop\n      pop\n      jump\t// out\n        /* \"#utility.yul\":3682:4022   */\n    tag_112:\n        /* \"#utility.yul\":3738:3743   */\n      0x00\n        /* \"#utility.yul\":3787:3790   */\n      dup3\n        /* \"#utility.yul\":3780:3784   */\n      0x1f\n        /* \"#utility.yul\":3772:3778   */\n      dup4\n        /* \"#utility.yul\":3768:3785   */\n      add\n        /* \"#utility.yul\":3764:3791   */\n      slt\n        /* \"#utility.yul\":3754:3876   */\n      tag_184\n      jumpi\n        /* \"#utility.yul\":3795:3874   */\n      tag_185\n      tag_104\n      jump\t// in\n    tag_185:\n        /* \"#utility.yul\":3754:3876   */\n    tag_184:\n        /* \"#utility.yul\":3912:3918   */\n      dup2\n        /* \"#utility.yul\":3899:3919   */\n      calldataload\n        /* \"#utility.yul\":3937:4016   */\n      tag_186\n        /* \"#utility.yul\":4012:4015   */\n      dup5\n        /* \"#utility.yul\":4004:4010   */\n      dup3\n        /* \"#utility.yul\":3997:4001   */\n      0x20\n        /* \"#utility.yul\":3989:3995   */\n      dup7\n        /* \"#utility.yul\":3985:4002   */\n      add\n        /* \"#utility.yul\":3937:4016   */\n      tag_111\n      jump\t// in\n    tag_186:\n        /* \"#utility.yul\":3928:4016   */\n      swap2\n      pop\n        /* \"#utility.yul\":3744:4022   */\n      pop\n        /* \"#utility.yul\":3682:4022   */\n      swap3\n      swap2\n      pop\n      pop\n      jump\t// out\n        /* \"#utility.yul\":4028:5445   */\n    tag_12:\n        /* \"#utility.yul\":4152:4158   */\n      0x00\n        /* \"#utility.yul\":4160:4166   */\n      dup1\n        /* \"#utility.yul\":4168:4174   */\n      0x00\n        /* \"#utility.yul\":4176:4182   */\n      dup1\n        /* \"#utility.yul\":4184:4190   */\n      0x00\n        /* \"#utility.yul\":4192:4198   */\n      dup1\n        /* \"#utility.yul\":4241:4244   */\n      0xc0\n        /* \"#utility.yul\":4229:4238   */\n      dup8\n        /* \"#utility.yul\":4220:4227   */\n      dup10\n        /* \"#utility.yul\":4216:4239   */\n      sub\n        /* \"#utility.yul\":4212:4245   */\n      slt\n        /* \"#utility.yul\":4209:4329   */\n      iszero\n      tag_188\n      jumpi\n        /* \"#utility.yul\":4248:4327   */\n      tag_189\n      tag_99\n      jump\t// in\n    tag_189:\n        /* \"#utility.yul\":4209:4329   */\n    tag_188:\n        /* \"#utility.yul\":4368:4369   */\n      0x00\n        /* \"#utility.yul\":4393:4446   */\n      tag_190\n        /* \"#utility.yul\":4438:4445   */\n      dup10\n        /* \"#utility.yul\":4429:4435   */\n      dup3\n        /* \"#utility.yul\":4418:4427   */\n      dup11\n        /* \"#utility.yul\":4414:4436   */\n      add\n        /* \"#utility.yul\":4393:4446   */\n      tag_103\n      jump\t// in\n    tag_190:\n        /* \"#utility.yul\":4383:4446   */\n      swap7\n      pop\n        /* \"#utility.yul\":4339:4456   */\n      pop\n        /* \"#utility.yul\":4495:4497   */\n      0x20\n        /* \"#utility.yul\":4521:4574   */\n      tag_191\n        /* \"#utility.yul\":4566:4573   */\n      dup10\n        /* \"#utility.yul\":4557:4563   */\n      dup3\n        /* \"#utility.yul\":4546:4555   */\n      dup11\n        /* \"#utility.yul\":4542:4564   */\n      add\n        /* \"#utility.yul\":4521:4574   */\n      tag_103\n      jump\t// in\n    tag_191:\n        /* \"#utility.yul\":4511:4574   */\n      swap6\n      pop\n        /* \"#utility.yul\":4466:4584   */\n      pop\n        /* \"#utility.yul\":4623:4625   */\n      0x40\n        /* \"#utility.yul\":4649:4702   */\n      tag_192\n        /* \"#utility.yul\":4694:4701   */\n      dup10\n        /* \"#utility.yul\":4685:4691   */\n      dup3\n        /* \"#utility.yul\":4674:4683   */\n      dup11\n        /* \"#utility.yul\":4670:4692   */\n      add\n        /* \"#utility.yul\":4649:4702   */\n      tag_103\n      jump\t// in\n    tag_192:\n        /* \"#utility.yul\":4639:4702   */\n      swap5\n      pop\n        /* \"#utility.yul\":4594:4712   */\n      pop\n        /* \"#utility.yul\":4751:4753   */\n      0x60\n        /* \"#utility.yul\":4777:4830   */\n      tag_193\n        /* \"#utility.yul\":4822:4829   */\n      dup10\n        /* \"#utility.yul\":4813:4819   */\n      dup3\n        /* \"#utility.yul\":4802:4811   */\n      dup11\n        /* \"#utility.yul\":4798:4820   */\n      add\n        /* \"#utility.yul\":4777:4830   */\n      tag_103\n      jump\t// in\n    tag_193:\n        /* \"#utility.yul\":4767:4830   */\n      swap4\n      pop\n        /* \"#utility.yul\":4722:4840   */\n      pop\n        /* \"#utility.yul\":4907:4910   */\n      0x80\n        /* \"#utility.yul\":4896:4905   */\n      dup8\n        /* \"#utility.yul\":4892:4911   */\n      add\n        /* \"#utility.yul\":4879:4912   */\n      calldataload\n        /* \"#utility.yul\":4939:4957   */\n      0xffffffffffffffff\n        /* \"#utility.yul\":4931:4937   */\n      dup2\n        /* \"#utility.yul\":4928:4958   */\n      gt\n        /* \"#utility.yul\":4925:5042   */\n      iszero\n      tag_194\n      jumpi\n        /* \"#utility.yul\":4961:5040   */\n      tag_195\n      tag_100\n      jump\t// in\n    tag_195:\n        /* \"#utility.yul\":4925:5042   */\n    tag_194:\n        /* \"#utility.yul\":5066:5129   */\n      tag_196\n        /* \"#utility.yul\":5121:5128   */\n      dup10\n        /* \"#utility.yul\":5112:5118   */\n      dup3\n        /* \"#utility.yul\":5101:5110   */\n      dup11\n        /* \"#utility.yul\":5097:5119   */\n      add\n        /* \"#utility.yul\":5066:5129   */\n      tag_112\n      jump\t// in\n    tag_196:\n        /* \"#utility.yul\":5056:5129   */\n      swap3\n      pop\n        /* \"#utility.yul\":4850:5139   */\n      pop\n        /* \"#utility.yul\":5206:5209   */\n      0xa0\n        /* \"#utility.yul\":5195:5204   */\n      dup8\n        /* \"#utility.yul\":5191:5210   */\n      add\n        /* \"#utility.yul\":5178:5211   */\n      calldataload\n        /* \"#utility.yul\":5238:5256   */\n      0xffffffffffffffff\n        /* \"#utility.yul\":5230:5236   */\n      dup2\n        /* \"#utility.yul\":5227:5257   */\n      gt\n        /* \"#utility.yul\":5224:5341   */\n      iszero\n      tag_197\n      jumpi\n        /* \"#utility.yul\":5260:5339   */\n      tag_198\n      tag_100\n      jump\t// in\n    tag_198:\n        /* \"#utility.yul\":5224:5341   */\n    tag_197:\n        /* \"#utility.yul\":5365:5428   */\n      tag_199\n        /* \"#utility.yul\":5420:5427   */\n      dup10\n        /* \"#utility.yul\":5411:5417   */\n      dup3\n        /* \"#utility.yul\":5400:5409   */\n      dup11\n        /* \"#utility.yul\":5396:5418   */\n      add\n        /* \"#utility.yul\":5365:5428   */\n      tag_112\n      jump\t// in\n    tag_199:\n        /* \"#utility.yul\":5355:5428   */\n      swap2\n      pop\n        /* \"#utility.yul\":5149:5438   */\n      pop\n        /* \"#utility.yul\":4028:5445   */\n      swap3\n      swap6\n      pop\n      swap3\n      swap6\n      pop\n      swap3\n      swap6\n      jump\t// out\n        /* \"#utility.yul\":5451:5569   */\n    tag_113:\n        /* \"#utility.yul\":5538:5562   */\n      tag_201\n        /* \"#utility.yul\":5556:5561   */\n      dup2\n        /* \"#utility.yul\":5538:5562   */\n      tag_101\n      jump\t// in\n    tag_201:\n        /* \"#utility.yul\":5533:5536   */\n      dup3\n        /* \"#utility.yul\":5526:5563   */\n      mstore\n        /* \"#utility.yul\":5451:5569   */\n      pop\n      pop\n      jump\t// out\n        /* \"#utility.yul\":5575:5797   */\n    tag_15:\n        /* \"#utility.yul\":5668:5672   */\n      0x00\n        /* \"#utility.yul\":5706:5708   */\n      0x20\n        /* \"#utility.yul\":5695:5704   */\n      dup3\n        /* \"#utility.yul\":5691:5709   */\n      add\n        /* \"#utility.yul\":5683:5709   */\n      swap1\n      pop\n        /* \"#utility.yul\":5719:5790   */\n      tag_203\n        /* \"#utility.yul\":5787:5788   */\n      0x00\n        /* \"#utility.yul\":5776:5785   */\n      dup4\n        /* \"#utility.yul\":5772:5789   */\n      add\n        /* \"#utility.yul\":5763:5769   */\n      dup5\n        /* \"#utility.yul\":5719:5790   */\n      tag_113\n      jump\t// in\n    tag_203:\n        /* \"#utility.yul\":5575:5797   */\n      swap3\n      swap2\n      pop\n      pop\n      jump\t// out\n        /* \"#utility.yul\":5803:5983   */\n    tag_114:\n        /* \"#utility.yul\":5851:5928   */\n      0x4e487b7100000000000000000000000000000000000000000000000000000000\n        /* \"#utility.yul\":5848:5849   */\n      0x00\n        /* \"#utility.yul\":5841:5929   */\n      mstore\n        /* \"#utility.yul\":5948:5952   */\n      0x22\n        /* \"#utility.yul\":5945:5946   */\n      0x04\n        /* \"#utility.yul\":5938:5953   */\n      mstore\n        /* \"#utility.yul\":5972:5976   */\n      0x24\n        /* \"#utility.yul\":5969:5970   */\n      0x00\n        /* \"#utility.yul\":5962:5977   */\n      revert\n        /* \"#utility.yul\":5989:6309   */\n    tag_20:\n        /* \"#utility.yul\":6033:6039   */\n      0x00\n        /* \"#utility.yul\":6070:6071   */\n      0x02\n        /* \"#utility.yul\":6064:6068   */\n      dup3\n        /* \"#utility.yul\":6060:6072   */\n      div\n        /* \"#utility.yul\":6050:6072   */\n      swap1\n      pop\n        /* \"#utility.yul\":6117:6118   */\n      0x01\n        /* \"#utility.yul\":6111:6115   */\n      dup3\n        /* \"#utility.yul\":6107:6119   */\n      and\n        /* \"#utility.yul\":6138:6156   */\n      dup1\n        /* \"#utility.yul\":6128:6209   */\n      tag_206\n      jumpi\n        /* \"#utility.yul\":6194:6198   */\n      0x7f\n        /* \"#utility.yul\":6186:6192   */\n      dup3\n        /* \"#utility.yul\":6182:6199   */\n      and\n        /* \"#utility.yul\":6172:6199   */\n      swap2\n      pop\n        /* \"#utility.yul\":6128:6209   */\n    tag_206:\n        /* \"#utility.yul\":6256:6258   */\n      0x20\n        /* \"#utility.yul\":6248:6254   */\n      dup3\n        /* \"#utility.yul\":6245:6259   */\n      lt\n        /* \"#utility.yul\":6225:6243   */\n      dup2\n        /* \"#utility.yul\":6222:6260   */\n      sub\n        /* \"#utility.yul\":6219:6303   */\n      tag_207\n      jumpi\n        /* \"#utility.yul\":6275:6293   */\n      tag_208\n      tag_114\n      jump\t// in\n    tag_208:\n        /* \"#utility.yul\":6219:6303   */\n    tag_207:\n        /* \"#utility.yul\":6040:6309   */\n      pop\n        /* \"#utility.yul\":5989:6309   */\n      swap2\n      swap1\n      pop\n      jump\t// out\n        /* \"#utility.yul\":6315:6484   */\n    tag_115:\n        /* \"#utility.yul\":6399:6410   */\n      0x00\n        /* \"#utility.yul\":6433:6439   */\n      dup3\n        /* \"#utility.yul\":6428:6431   */\n      dup3\n        /* \"#utility.yul\":6421:6440   */\n      mstore\n        /* \"#utility.yul\":6473:6477   */\n      0x20\n        /* \"#utility.yul\":6468:6471   */\n      dup3\n        /* \"#utility.yul\":6464:6478   */\n      add\n        /* \"#utility.yul\":6449:6478   */\n      swap1\n      pop\n        /* \"#utility.yul\":6315:6484   */\n      swap3\n      swap2\n      pop\n      pop\n      jump\t// out\n        /* \"#utility.yul\":6490:6652   */\n    tag_116:\n        /* \"#utility.yul\":6630:6644   */\n      0x7075742031206c65747465720000000000000000000000000000000000000000\n        /* \"#utility.yul\":6626:6627   */\n      0x00\n        /* \"#utility.yul\":6618:6624   */\n      dup3\n        /* \"#utility.yul\":6614:6628   */\n      add\n        /* \"#utility.yul\":6607:6645   */\n      mstore\n        /* \"#utility.yul\":6490:6652   */\n      pop\n      jump\t// out\n        /* \"#utility.yul\":6658:7024   */\n    tag_117:\n        /* \"#utility.yul\":6800:6803   */\n      0x00\n        /* \"#utility.yul\":6821:6888   */\n      tag_212\n        /* \"#utility.yul\":6885:6887   */\n      0x0c\n        /* \"#utility.yul\":6880:6883   */\n      dup4\n        /* \"#utility.yul\":6821:6888   */\n      tag_115\n      jump\t// in\n    tag_212:\n        /* \"#utility.yul\":6814:6888   */\n      swap2\n      pop\n        /* \"#utility.yul\":6897:6990   */\n      tag_213\n        /* \"#utility.yul\":6986:6989   */\n      dup3\n        /* \"#utility.yul\":6897:6990   */\n      tag_116\n      jump\t// in\n    tag_213:\n        /* \"#utility.yul\":7015:7017   */\n      0x20\n        /* \"#utility.yul\":7010:7013   */\n      dup3\n        /* \"#utility.yul\":7006:7018   */\n      add\n        /* \"#utility.yul\":6999:7018   */\n      swap1\n      pop\n        /* \"#utility.yul\":6658:7024   */\n      swap2\n      swap1\n      pop\n      jump\t// out\n        /* \"#utility.yul\":7030:7449   */\n    tag_28:\n        /* \"#utility.yul\":7196:7200   */\n      0x00\n        /* \"#utility.yul\":7234:7236   */\n      0x20\n        /* \"#utility.yul\":7223:7232   */\n      dup3\n        /* \"#utility.yul\":7219:7237   */\n      add\n        /* \"#utility.yul\":7211:7237   */\n      swap1\n      pop\n        /* \"#utility.yul\":7283:7292   */\n      dup2\n        /* \"#utility.yul\":7277:7281   */\n      dup2\n        /* \"#utility.yul\":7273:7293   */\n      sub\n        /* \"#utility.yul\":7269:7270   */\n      0x00\n        /* \"#utility.yul\":7258:7267   */\n      dup4\n        /* \"#utility.yul\":7254:7271   */\n      add\n        /* \"#utility.yul\":7247:7294   */\n      mstore\n        /* \"#utility.yul\":7311:7442   */\n      tag_215\n        /* \"#utility.yul\":7437:7441   */\n      dup2\n        /* \"#utility.yul\":7311:7442   */\n      tag_117\n      jump\t// in\n    tag_215:\n        /* \"#utility.yul\":7303:7442   */\n      swap1\n      pop\n        /* \"#utility.yul\":7030:7449   */\n      swap2\n      swap1\n      pop\n      jump\t// out\n        /* \"#utility.yul\":7455:7635   */\n    tag_118:\n        /* \"#utility.yul\":7503:7580   */\n      0x4e487b7100000000000000000000000000000000000000000000000000000000\n        /* \"#utility.yul\":7500:7501   */\n      0x00\n        /* \"#utility.yul\":7493:7581   */\n      mstore\n        /* \"#utility.yul\":7600:7604   */\n      0x11\n        /* \"#utility.yul\":7597:7598   */\n      0x04\n        /* \"#utility.yul\":7590:7605   */\n      mstore\n        /* \"#utility.yul\":7624:7628   */\n      0x24\n        /* \"#utility.yul\":7621:7622   */\n      0x00\n        /* \"#utility.yul\":7614:7629   */\n      revert\n        /* \"#utility.yul\":7641:7832   */\n    tag_32:\n        /* \"#utility.yul\":7681:7684   */\n      0x00\n        /* \"#utility.yul\":7700:7720   */\n      tag_218\n        /* \"#utility.yul\":7718:7719   */\n      dup3\n        /* \"#utility.yul\":7700:7720   */\n      tag_101\n      jump\t// in\n    tag_218:\n        /* \"#utility.yul\":7695:7720   */\n      swap2\n      pop\n        /* \"#utility.yul\":7734:7754   */\n      tag_219\n        /* \"#utility.yul\":7752:7753   */\n      dup4\n        /* \"#utility.yul\":7734:7754   */\n      tag_101\n      jump\t// in\n    tag_219:\n        /* \"#utility.yul\":7729:7754   */\n      swap3\n      pop\n        /* \"#utility.yul\":7777:7778   */\n      dup3\n        /* \"#utility.yul\":7774:7775   */\n      dup3\n        /* \"#utility.yul\":7770:7779   */\n      add\n        /* \"#utility.yul\":7763:7779   */\n      swap1\n      pop\n        /* \"#utility.yul\":7798:7801   */\n      dup1\n        /* \"#utility.yul\":7795:7796   */\n      dup3\n        /* \"#utility.yul\":7792:7802   */\n      gt\n        /* \"#utility.yul\":7789:7825   */\n      iszero\n      tag_220\n      jumpi\n        /* \"#utility.yul\":7805:7823   */\n      tag_221\n      tag_118\n      jump\t// in\n    tag_221:\n        /* \"#utility.yul\":7789:7825   */\n    tag_220:\n        /* \"#utility.yul\":7641:7832   */\n      swap3\n      swap2\n      pop\n      pop\n      jump\t// out\n        /* \"#utility.yul\":7838:8018   */\n    tag_42:\n        /* \"#utility.yul\":7886:7963   */\n      0x4e487b7100000000000000000000000000000000000000000000000000000000\n        /* \"#utility.yul\":7883:7884   */\n      0x00\n        /* \"#utility.yul\":7876:7964   */\n      mstore\n        /* \"#utility.yul\":7983:7987   */\n      0x32\n        /* \"#utility.yul\":7980:7981   */\n      0x04\n        /* \"#utility.yul\":7973:7988   */\n      mstore\n        /* \"#utility.yul\":8007:8011   */\n      0x24\n        /* \"#utility.yul\":8004:8005   */\n      0x00\n        /* \"#utility.yul\":7997:8012   */\n      revert\n        /* \"#utility.yul\":8024:8257   */\n    tag_46:\n        /* \"#utility.yul\":8063:8066   */\n      0x00\n        /* \"#utility.yul\":8086:8110   */\n      tag_224\n        /* \"#utility.yul\":8104:8109   */\n      dup3\n        /* \"#utility.yul\":8086:8110   */\n      tag_101\n      jump\t// in\n    tag_224:\n        /* \"#utility.yul\":8077:8110   */\n      swap2\n      pop\n        /* \"#utility.yul\":8132:8198   */\n      0xffffffffffffffffffffffffffffffffffffffffffffffffffffffffffffffff\n        /* \"#utility.yul\":8125:8130   */\n      dup3\n        /* \"#utility.yul\":8122:8199   */\n      sub\n        /* \"#utility.yul\":8119:8222   */\n      tag_225\n      jumpi\n        /* \"#utility.yul\":8202:8220   */\n      tag_226\n      tag_118\n      jump\t// in\n    tag_226:\n        /* \"#utility.yul\":8119:8222   */\n    tag_225:\n        /* \"#utility.yul\":8249:8250   */\n      0x01\n        /* \"#utility.yul\":8242:8247   */\n      dup3\n        /* \"#utility.yul\":8238:8251   */\n      add\n        /* \"#utility.yul\":8231:8251   */\n      swap1\n      pop\n        /* \"#utility.yul\":8024:8257   */\n      swap2\n      swap1\n      pop\n      jump\t// out\n        /* \"#utility.yul\":8263:8410   */\n    tag_119:\n        /* \"#utility.yul\":8364:8375   */\n      0x00\n        /* \"#utility.yul\":8401:8404   */\n      dup2\n        /* \"#utility.yul\":8386:8404   */\n      swap1\n      pop\n        /* \"#utility.yul\":8263:8410   */\n      swap3\n      swap2\n      pop\n      pop\n      jump\t// out\n        /* \"#utility.yul\":8416:8802   */\n    tag_120:\n        /* \"#utility.yul\":8520:8523   */\n      0x00\n        /* \"#utility.yul\":8548:8586   */\n      tag_229\n        /* \"#utility.yul\":8580:8585   */\n      dup3\n        /* \"#utility.yul\":8548:8586   */\n      tag_93\n      jump\t// in\n    tag_229:\n        /* \"#utility.yul\":8602:8690   */\n      tag_230\n        /* \"#utility.yul\":8683:8689   */\n      dup2\n        /* \"#utility.yul\":8678:8681   */\n      dup6\n        /* \"#utility.yul\":8602:8690   */\n      tag_119\n      jump\t// in\n    tag_230:\n        /* \"#utility.yul\":8595:8690   */\n      swap4\n      pop\n        /* \"#utility.yul\":8699:8764   */\n      tag_231\n        /* \"#utility.yul\":8757:8763   */\n      dup2\n        /* \"#utility.yul\":8752:8755   */\n      dup6\n        /* \"#utility.yul\":8745:8749   */\n      0x20\n        /* \"#utility.yul\":8738:8743   */\n      dup7\n        /* \"#utility.yul\":8734:8750   */\n      add\n        /* \"#utility.yul\":8699:8764   */\n      tag_95\n      jump\t// in\n    tag_231:\n        /* \"#utility.yul\":8789:8795   */\n      dup1\n        /* \"#utility.yul\":8784:8787   */\n      dup5\n        /* \"#utility.yul\":8780:8796   */\n      add\n        /* \"#utility.yul\":8773:8796   */\n      swap2\n      pop\n        /* \"#utility.yul\":8524:8802   */\n      pop\n        /* \"#utility.yul\":8416:8802   */\n      swap3\n      swap2\n      pop\n      pop\n      jump\t// out\n        /* \"#utility.yul\":8808:8956   */\n    tag_121:\n        /* \"#utility.yul\":8910:8921   */\n      0x00\n        /* \"#utility.yul\":8947:8950   */\n      dup2\n        /* \"#utility.yul\":8932:8950   */\n      swap1\n      pop\n        /* \"#utility.yul\":8808:8956   */\n      swap3\n      swap2\n      pop\n      pop\n      jump\t// out\n        /* \"#utility.yul\":8962:9113   */\n    tag_122:\n        /* \"#utility.yul\":9102:9105   */\n      0x4100000000000000000000000000000000000000000000000000000000000000\n        /* \"#utility.yul\":9098:9099   */\n      0x00\n        /* \"#utility.yul\":9090:9096   */\n      dup3\n        /* \"#utility.yul\":9086:9100   */\n      add\n        /* \"#utility.yul\":9079:9106   */\n      mstore\n        /* \"#utility.yul\":8962:9113   */\n      pop\n      jump\t// out\n        /* \"#utility.yul\":9119:9519   */\n    tag_123:\n        /* \"#utility.yul\":9279:9282   */\n      0x00\n        /* \"#utility.yul\":9300:9384   */\n      tag_235\n        /* \"#utility.yul\":9382:9383   */\n      0x01\n        /* \"#utility.yul\":9377:9380   */\n      dup4\n        /* \"#utility.yul\":9300:9384   */\n      tag_121\n      jump\t// in\n    tag_235:\n        /* \"#utility.yul\":9293:9384   */\n      swap2\n      pop\n        /* \"#utility.yul\":9393:9486   */\n      tag_236\n        /* \"#utility.yul\":9482:9485   */\n      dup3\n        /* \"#utility.yul\":9393:9486   */\n      tag_122\n      jump\t// in\n    tag_236:\n        /* \"#utility.yul\":9511:9512   */\n      0x01\n        /* \"#utility.yul\":9506:9509   */\n      dup3\n        /* \"#utility.yul\":9502:9513   */\n      add\n        /* \"#utility.yul\":9495:9513   */\n      swap1\n      pop\n        /* \"#utility.yul\":9119:9519   */\n      swap2\n      swap1\n      pop\n      jump\t// out\n        /* \"#utility.yul\":9525:9676   */\n    tag_124:\n        /* \"#utility.yul\":9665:9668   */\n      0x4200000000000000000000000000000000000000000000000000000000000000\n        /* \"#utility.yul\":9661:9662   */\n      0x00\n        /* \"#utility.yul\":9653:9659   */\n      dup3\n        /* \"#utility.yul\":9649:9663   */\n      add\n        /* \"#utility.yul\":9642:9669   */\n      mstore\n        /* \"#utility.yul\":9525:9676   */\n      pop\n      jump\t// out\n        /* \"#utility.yul\":9682:10082   */\n    tag_125:\n        /* \"#utility.yul\":9842:9845   */\n      0x00\n        /* \"#utility.yul\":9863:9947   */\n      tag_239\n        /* \"#utility.yul\":9945:9946   */\n      0x01\n        /* \"#utility.yul\":9940:9943   */\n      dup4\n        /* \"#utility.yul\":9863:9947   */\n      tag_121\n      jump\t// in\n    tag_239:\n        /* \"#utility.yul\":9856:9947   */\n      swap2\n      pop\n        /* \"#utility.yul\":9956:10049   */\n      tag_240\n        /* \"#utility.yul\":10045:10048   */\n      dup3\n        /* \"#utility.yul\":9956:10049   */\n      tag_124\n      jump\t// in\n    tag_240:\n        /* \"#utility.yul\":10074:10075   */\n      0x01\n        /* \"#utility.yul\":10069:10072   */\n      dup3\n        /* \"#utility.yul\":10065:10076   */\n      add\n        /* \"#utility.yul\":10058:10076   */\n      swap1\n      pop\n        /* \"#utility.yul\":9682:10082   */\n      swap2\n      swap1\n      pop\n      jump\t// out\n        /* \"#utility.yul\":10088:11359   */\n    tag_90:\n        /* \"#utility.yul\":10558:10561   */\n      0x00\n        /* \"#utility.yul\":10580:10673   */\n      tag_242\n        /* \"#utility.yul\":10669:10672   */\n      dup3\n        /* \"#utility.yul\":10660:10666   */\n      dup8\n        /* \"#utility.yul\":10580:10673   */\n      tag_120\n      jump\t// in\n    tag_242:\n        /* \"#utility.yul\":10573:10673   */\n      swap2\n      pop\n        /* \"#utility.yul\":10690:10783   */\n      tag_243\n        /* \"#utility.yul\":10779:10782   */\n      dup3\n        /* \"#utility.yul\":10770:10776   */\n      dup7\n        /* \"#utility.yul\":10690:10783   */\n      tag_120\n      jump\t// in\n    tag_243:\n        /* \"#utility.yul\":10683:10783   */\n      swap2\n      pop\n        /* \"#utility.yul\":10800:10893   */\n      tag_244\n        /* \"#utility.yul\":10889:10892   */\n      dup3\n        /* \"#utility.yul\":10880:10886   */\n      dup6\n        /* \"#utility.yul\":10800:10893   */\n      tag_120\n      jump\t// in\n    tag_244:\n        /* \"#utility.yul\":10793:10893   */\n      swap2\n      pop\n        /* \"#utility.yul\":10910:11003   */\n      tag_245\n        /* \"#utility.yul\":10999:11002   */\n      dup3\n        /* \"#utility.yul\":10990:10996   */\n      dup5\n        /* \"#utility.yul\":10910:11003   */\n      tag_120\n      jump\t// in\n    tag_245:\n        /* \"#utility.yul\":10903:11003   */\n      swap2\n      pop\n        /* \"#utility.yul\":11020:11168   */\n      tag_246\n        /* \"#utility.yul\":11164:11167   */\n      dup3\n        /* \"#utility.yul\":11020:11168   */\n      tag_123\n      jump\t// in\n    tag_246:\n        /* \"#utility.yul\":11013:11168   */\n      swap2\n      pop\n        /* \"#utility.yul\":11185:11333   */\n      tag_247\n        /* \"#utility.yul\":11329:11332   */\n      dup3\n        /* \"#utility.yul\":11185:11333   */\n      tag_125\n      jump\t// in\n    tag_247:\n        /* \"#utility.yul\":11178:11333   */\n      swap2\n      pop\n        /* \"#utility.yul\":11350:11353   */\n      dup2\n        /* \"#utility.yul\":11343:11353   */\n      swap1\n      pop\n        /* \"#utility.yul\":10088:11359   */\n      swap6\n      swap5\n      pop\n      pop\n      pop\n      pop\n      pop\n      jump\t// out\n        /* \"#utility.yul\":11365:11505   */\n    tag_126:\n        /* \"#utility.yul\":11413:11417   */\n      0x00\n        /* \"#utility.yul\":11436:11439   */\n      dup2\n        /* \"#utility.yul\":11428:11439   */\n      swap1\n      pop\n        /* \"#utility.yul\":11459:11462   */\n      dup2\n        /* \"#utility.yul\":11456:11457   */\n      0x00\n        /* \"#utility.yul\":11449:11463   */\n      mstore\n        /* \"#utility.yul\":11493:11497   */\n      0x20\n        /* \"#utility.yul\":11490:11491   */\n      0x00\n        /* \"#utility.yul\":11480:11498   */\n      keccak256\n        /* \"#utility.yul\":11472:11498   */\n      swap1\n      pop\n        /* \"#utility.yul\":11365:11505   */\n      swap2\n      swap1\n      pop\n      jump\t// out\n        /* \"#utility.yul\":11511:11604   */\n    tag_127:\n        /* \"#utility.yul\":11548:11554   */\n      0x00\n        /* \"#utility.yul\":11595:11597   */\n      0x20\n        /* \"#utility.yul\":11590:11592   */\n      0x1f\n        /* \"#utility.yul\":11583:11588   */\n      dup4\n        /* \"#utility.yul\":11579:11593   */\n      add\n        /* \"#utility.yul\":11575:11598   */\n      div\n        /* \"#utility.yul\":11565:11598   */\n      swap1\n      pop\n        /* \"#utility.yul\":11511:11604   */\n      swap2\n      swap1\n      pop\n      jump\t// out\n        /* \"#utility.yul\":11610:11717   */\n    tag_128:\n        /* \"#utility.yul\":11654:11662   */\n      0x00\n        /* \"#utility.yul\":11704:11709   */\n      dup3\n        /* \"#utility.yul\":11698:11702   */\n      dup3\n        /* \"#utility.yul\":11694:11710   */\n      shl\n        /* \"#utility.yul\":11673:11710   */\n      swap1\n      pop\n        /* \"#utility.yul\":11610:11717   */\n      swap3\n      swap2\n      pop\n      pop\n      jump\t// out\n        /* \"#utility.yul\":11723:12116   */\n    tag_129:\n        /* \"#utility.yul\":11792:11798   */\n      0x00\n        /* \"#utility.yul\":11842:11843   */\n      0x08\n        /* \"#utility.yul\":11830:11840   */\n      dup4\n        /* \"#utility.yul\":11826:11844   */\n      mul\n        /* \"#utility.yul\":11865:11962   */\n      tag_252\n        /* \"#utility.yul\":11895:11961   */\n      0xffffffffffffffffffffffffffffffffffffffffffffffffffffffffffffffff\n        /* \"#utility.yul\":11884:11893   */\n      dup3\n        /* \"#utility.yul\":11865:11962   */\n      tag_128\n      jump\t// in\n    tag_252:\n        /* \"#utility.yul\":11983:12022   */\n      tag_253\n        /* \"#utility.yul\":12013:12021   */\n      dup7\n        /* \"#utility.yul\":12002:12011   */\n      dup4\n        /* \"#utility.yul\":11983:12022   */\n      tag_128\n      jump\t// in\n    tag_253:\n        /* \"#utility.yul\":11971:12022   */\n      swap6\n      pop\n        /* \"#utility.yul\":12055:12059   */\n      dup1\n        /* \"#utility.yul\":12051:12060   */\n      not\n        /* \"#utility.yul\":12044:12049   */\n      dup5\n        /* \"#utility.yul\":12040:12061   */\n      and\n        /* \"#utility.yul\":12031:12061   */\n      swap4\n      pop\n        /* \"#utility.yul\":12104:12108   */\n      dup1\n        /* \"#utility.yul\":12094:12102   */\n      dup7\n        /* \"#utility.yul\":12090:12109   */\n      and\n        /* \"#utility.yul\":12083:12088   */\n      dup5\n        /* \"#utility.yul\":12080:12110   */\n      or\n        /* \"#utility.yul\":12070:12110   */\n      swap3\n      pop\n        /* \"#utility.yul\":11799:12116   */\n      pop\n      pop\n        /* \"#utility.yul\":11723:12116   */\n      swap4\n      swap3\n      pop\n      pop\n      pop\n      jump\t// out\n        /* \"#utility.yul\":12122:12182   */\n    tag_130:\n        /* \"#utility.yul\":12150:12153   */\n      0x00\n        /* \"#utility.yul\":12171:12176   */\n      dup2\n        /* \"#utility.yul\":12164:12176   */\n      swap1\n      pop\n        /* \"#utility.yul\":12122:12182   */\n      swap2\n      swap1\n      pop\n      jump\t// out\n        /* \"#utility.yul\":12188:12330   */\n    tag_131:\n        /* \"#utility.yul\":12238:12247   */\n      0x00\n        /* \"#utility.yul\":12271:12324   */\n      tag_256\n        /* \"#utility.yul\":12289:12323   */\n      tag_257\n        /* \"#utility.yul\":12298:12322   */\n      tag_258\n        /* \"#utility.yul\":12316:12321   */\n      dup5\n        /* \"#utility.yul\":12298:12322   */\n      tag_101\n      jump\t// in\n    tag_258:\n        /* \"#utility.yul\":12289:12323   */\n      tag_130\n      jump\t// in\n    tag_257:\n        /* \"#utility.yul\":12271:12324   */\n      tag_101\n      jump\t// in\n    tag_256:\n        /* \"#utility.yul\":12258:12324   */\n      swap1\n      pop\n        /* \"#utility.yul\":12188:12330   */\n      swap2\n      swap1\n      pop\n      jump\t// out\n        /* \"#utility.yul\":12336:12411   */\n    tag_132:\n        /* \"#utility.yul\":12379:12382   */\n      0x00\n        /* \"#utility.yul\":12400:12405   */\n      dup2\n        /* \"#utility.yul\":12393:12405   */\n      swap1\n      pop\n        /* \"#utility.yul\":12336:12411   */\n      swap2\n      swap1\n      pop\n      jump\t// out\n        /* \"#utility.yul\":12417:12686   */\n    tag_133:\n        /* \"#utility.yul\":12527:12566   */\n      tag_261\n        /* \"#utility.yul\":12558:12565   */\n      dup4\n        /* \"#utility.yul\":12527:12566   */\n      tag_131\n      jump\t// in\n    tag_261:\n        /* \"#utility.yul\":12588:12679   */\n      tag_262\n        /* \"#utility.yul\":12637:12678   */\n      tag_263\n        /* \"#utility.yul\":12661:12677   */\n      dup3\n        /* \"#utility.yul\":12637:12678   */\n      tag_132\n      jump\t// in\n    tag_263:\n        /* \"#utility.yul\":12629:12635   */\n      dup5\n        /* \"#utility.yul\":12622:12626   */\n      dup5\n        /* \"#utility.yul\":12616:12627   */\n      sload\n        /* \"#utility.yul\":12588:12679   */\n      tag_129\n      jump\t// in\n    tag_262:\n        /* \"#utility.yul\":12582:12586   */\n      dup3\n        /* \"#utility.yul\":12575:12680   */\n      sstore\n        /* \"#utility.yul\":12493:12686   */\n      pop\n        /* \"#utility.yul\":12417:12686   */\n      pop\n      pop\n      pop\n      jump\t// out\n        /* \"#utility.yul\":12692:12765   */\n    tag_134:\n        /* \"#utility.yul\":12737:12740   */\n      0x00\n        /* \"#utility.yul\":12692:12765   */\n      swap1\n      jump\t// out\n        /* \"#utility.yul\":12771:12960   */\n    tag_135:\n        /* \"#utility.yul\":12848:12880   */\n      tag_266\n      tag_134\n      jump\t// in\n    tag_266:\n        /* \"#utility.yul\":12889:12954   */\n      tag_267\n        /* \"#utility.yul\":12947:12953   */\n      dup2\n        /* \"#utility.yul\":12939:12945   */\n      dup5\n        /* \"#utility.yul\":12933:12937   */\n      dup5\n        /* \"#utility.yul\":12889:12954   */\n      tag_133\n      jump\t// in\n    tag_267:\n        /* \"#utility.yul\":12824:12960   */\n      pop\n        /* \"#utility.yul\":12771:12960   */\n      pop\n      pop\n      jump\t// out\n        /* \"#utility.yul\":12966:13152   */\n    tag_136:\n        /* \"#utility.yul\":13026:13146   */\n    tag_269:\n        /* \"#utility.yul\":13043:13046   */\n      dup2\n        /* \"#utility.yul\":13036:13041   */\n      dup2\n        /* \"#utility.yul\":13033:13047   */\n      lt\n        /* \"#utility.yul\":13026:13146   */\n      iszero\n      tag_271\n      jumpi\n        /* \"#utility.yul\":13097:13136   */\n      tag_272\n        /* \"#utility.yul\":13134:13135   */\n      0x00\n        /* \"#utility.yul\":13127:13132   */\n      dup3\n        /* \"#utility.yul\":13097:13136   */\n      tag_135\n      jump\t// in\n    tag_272:\n        /* \"#utility.yul\":13070:13071   */\n      0x01\n        /* \"#utility.yul\":13063:13068   */\n      dup2\n        /* \"#utility.yul\":13059:13072   */\n      add\n        /* \"#utility.yul\":13050:13072   */\n      swap1\n      pop\n        /* \"#utility.yul\":13026:13146   */\n      jump(tag_269)\n    tag_271:\n        /* \"#utility.yul\":12966:13152   */\n      pop\n      pop\n      jump\t// out\n        /* \"#utility.yul\":13158:13699   */\n    tag_137:\n        /* \"#utility.yul\":13258:13260   */\n      0x1f\n        /* \"#utility.yul\":13253:13256   */\n      dup3\n        /* \"#utility.yul\":13250:13261   */\n      gt\n        /* \"#utility.yul\":13247:13692   */\n      iszero\n      tag_274\n      jumpi\n        /* \"#utility.yul\":13292:13329   */\n      tag_275\n        /* \"#utility.yul\":13323:13328   */\n      dup2\n        /* \"#utility.yul\":13292:13329   */\n      tag_126\n      jump\t// in\n    tag_275:\n        /* \"#utility.yul\":13375:13404   */\n      tag_276\n        /* \"#utility.yul\":13393:13403   */\n      dup5\n        /* \"#utility.yul\":13375:13404   */\n      tag_127\n      jump\t// in\n    tag_276:\n        /* \"#utility.yul\":13365:13373   */\n      dup2\n        /* \"#utility.yul\":13361:13405   */\n      add\n        /* \"#utility.yul\":13558:13560   */\n      0x20\n        /* \"#utility.yul\":13546:13556   */\n      dup6\n        /* \"#utility.yul\":13543:13561   */\n      lt\n        /* \"#utility.yul\":13540:13589   */\n      iszero\n      tag_277\n      jumpi\n        /* \"#utility.yul\":13579:13587   */\n      dup2\n        /* \"#utility.yul\":13564:13587   */\n      swap1\n      pop\n        /* \"#utility.yul\":13540:13589   */\n    tag_277:\n        /* \"#utility.yul\":13602:13682   */\n      tag_278\n        /* \"#utility.yul\":13658:13680   */\n      tag_279\n        /* \"#utility.yul\":13676:13679   */\n      dup6\n        /* \"#utility.yul\":13658:13680   */\n      tag_127\n      jump\t// in\n    tag_279:\n        /* \"#utility.yul\":13648:13656   */\n      dup4\n        /* \"#utility.yul\":13644:13681   */\n      add\n        /* \"#utility.yul\":13631:13642   */\n      dup3\n        /* \"#utility.yul\":13602:13682   */\n      tag_136\n      jump\t// in\n    tag_278:\n        /* \"#utility.yul\":13262:13692   */\n      pop\n      pop\n        /* \"#utility.yul\":13247:13692   */\n    tag_274:\n        /* \"#utility.yul\":13158:13699   */\n      pop\n      pop\n      pop\n      jump\t// out\n        /* \"#utility.yul\":13705:13822   */\n    tag_138:\n        /* \"#utility.yul\":13759:13767   */\n      0x00\n        /* \"#utility.yul\":13809:13814   */\n      dup3\n        /* \"#utility.yul\":13803:13807   */\n      dup3\n        /* \"#utility.yul\":13799:13815   */\n      shr\n        /* \"#utility.yul\":13778:13815   */\n      swap1\n      pop\n        /* \"#utility.yul\":13705:13822   */\n      swap3\n      swap2\n      pop\n      pop\n      jump\t// out\n        /* \"#utility.yul\":13828:13997   */\n    tag_139:\n        /* \"#utility.yul\":13872:13878   */\n      0x00\n        /* \"#utility.yul\":13905:13956   */\n      tag_282\n        /* \"#utility.yul\":13953:13954   */\n      0x00\n        /* \"#utility.yul\":13949:13955   */\n      not\n        /* \"#utility.yul\":13941:13946   */\n      dup5\n        /* \"#utility.yul\":13938:13939   */\n      0x08\n        /* \"#utility.yul\":13934:13947   */\n      mul\n        /* \"#utility.yul\":13905:13956   */\n      tag_138\n      jump\t// in\n    tag_282:\n        /* \"#utility.yul\":13901:13957   */\n      not\n        /* \"#utility.yul\":13986:13990   */\n      dup1\n        /* \"#utility.yul\":13980:13984   */\n      dup4\n        /* \"#utility.yul\":13976:13991   */\n      and\n        /* \"#utility.yul\":13966:13991   */\n      swap2\n      pop\n        /* \"#utility.yul\":13879:13997   */\n      pop\n        /* \"#utility.yul\":13828:13997   */\n      swap3\n      swap2\n      pop\n      pop\n      jump\t// out\n        /* \"#utility.yul\":14002:14297   */\n    tag_140:\n        /* \"#utility.yul\":14078:14082   */\n      0x00\n        /* \"#utility.yul\":14224:14253   */\n      tag_284\n        /* \"#utility.yul\":14249:14252   */\n      dup4\n        /* \"#utility.yul\":14243:14247   */\n      dup4\n        /* \"#utility.yul\":14224:14253   */\n      tag_139\n      jump\t// in\n    tag_284:\n        /* \"#utility.yul\":14216:14253   */\n      swap2\n      pop\n        /* \"#utility.yul\":14286:14289   */\n      dup3\n        /* \"#utility.yul\":14283:14284   */\n      0x02\n        /* \"#utility.yul\":14279:14290   */\n      mul\n        /* \"#utility.yul\":14273:14277   */\n      dup3\n        /* \"#utility.yul\":14270:14291   */\n      or\n        /* \"#utility.yul\":14262:14291   */\n      swap1\n      pop\n        /* \"#utility.yul\":14002:14297   */\n      swap3\n      swap2\n      pop\n      pop\n      jump\t// out\n        /* \"#utility.yul\":14302:15692   */\n    tag_92:\n        /* \"#utility.yul\":14417:14453   */\n      tag_286\n        /* \"#utility.yul\":14449:14452   */\n      dup3\n        /* \"#utility.yul\":14417:14453   */\n      tag_93\n      jump\t// in\n    tag_286:\n        /* \"#utility.yul\":14518:14536   */\n      0xffffffffffffffff\n        /* \"#utility.yul\":14510:14516   */\n      dup2\n        /* \"#utility.yul\":14507:14537   */\n      gt\n        /* \"#utility.yul\":14504:14560   */\n      iszero\n      tag_287\n      jumpi\n        /* \"#utility.yul\":14540:14558   */\n      tag_288\n      tag_106\n      jump\t// in\n    tag_288:\n        /* \"#utility.yul\":14504:14560   */\n    tag_287:\n        /* \"#utility.yul\":14584:14622   */\n      tag_289\n        /* \"#utility.yul\":14616:14620   */\n      dup3\n        /* \"#utility.yul\":14610:14621   */\n      sload\n        /* \"#utility.yul\":14584:14622   */\n      tag_20\n      jump\t// in\n    tag_289:\n        /* \"#utility.yul\":14669:14735   */\n      tag_290\n        /* \"#utility.yul\":14728:14734   */\n      dup3\n        /* \"#utility.yul\":14720:14726   */\n      dup3\n        /* \"#utility.yul\":14714:14718   */\n      dup6\n        /* \"#utility.yul\":14669:14735   */\n      tag_137\n      jump\t// in\n    tag_290:\n        /* \"#utility.yul\":14762:14763   */\n      0x00\n        /* \"#utility.yul\":14786:14790   */\n      0x20\n        /* \"#utility.yul\":14773:14790   */\n      swap1\n      pop\n        /* \"#utility.yul\":14818:14820   */\n      0x1f\n        /* \"#utility.yul\":14810:14816   */\n      dup4\n        /* \"#utility.yul\":14807:14821   */\n      gt\n        /* \"#utility.yul\":14835:14836   */\n      0x01\n        /* \"#utility.yul\":14830:15447   */\n      dup2\n      eq\n      tag_292\n      jumpi\n        /* \"#utility.yul\":15491:15492   */\n      0x00\n        /* \"#utility.yul\":15508:15514   */\n      dup5\n        /* \"#utility.yul\":15505:15582   */\n      iszero\n      tag_293\n      jumpi\n        /* \"#utility.yul\":15557:15566   */\n      dup3\n        /* \"#utility.yul\":15552:15555   */\n      dup8\n        /* \"#utility.yul\":15548:15567   */\n      add\n        /* \"#utility.yul\":15542:15568   */\n      mload\n        /* \"#utility.yul\":15533:15568   */\n      swap1\n      pop\n        /* \"#utility.yul\":15505:15582   */\n    tag_293:\n        /* \"#utility.yul\":15608:15675   */\n      tag_294\n        /* \"#utility.yul\":15668:15674   */\n      dup6\n        /* \"#utility.yul\":15661:15666   */\n      dup3\n        /* \"#utility.yul\":15608:15675   */\n      tag_140\n      jump\t// in\n    tag_294:\n        /* \"#utility.yul\":15602:15606   */\n      dup7\n        /* \"#utility.yul\":15595:15676   */\n      sstore\n        /* \"#utility.yul\":15464:15686   */\n      pop\n        /* \"#utility.yul\":14800:15686   */\n      jump(tag_291)\n        /* \"#utility.yul\":14830:15447   */\n    tag_292:\n        /* \"#utility.yul\":14882:14886   */\n      0x1f\n        /* \"#utility.yul\":14878:14887   */\n      not\n        /* \"#utility.yul\":14870:14876   */\n      dup5\n        /* \"#utility.yul\":14866:14888   */\n      and\n        /* \"#utility.yul\":14916:14952   */\n      tag_295\n        /* \"#utility.yul\":14947:14951   */\n      dup7\n        /* \"#utility.yul\":14916:14952   */\n      tag_126\n      jump\t// in\n    tag_295:\n        /* \"#utility.yul\":14974:14975   */\n      0x00\n        /* \"#utility.yul\":14988:15196   */\n    tag_296:\n        /* \"#utility.yul\":15002:15009   */\n      dup3\n        /* \"#utility.yul\":14999:15000   */\n      dup2\n        /* \"#utility.yul\":14996:15010   */\n      lt\n        /* \"#utility.yul\":14988:15196   */\n      iszero\n      tag_298\n      jumpi\n        /* \"#utility.yul\":15081:15090   */\n      dup5\n        /* \"#utility.yul\":15076:15079   */\n      dup10\n        /* \"#utility.yul\":15072:15091   */\n      add\n        /* \"#utility.yul\":15066:15092   */\n      mload\n        /* \"#utility.yul\":15058:15064   */\n      dup3\n        /* \"#utility.yul\":15051:15093   */\n      sstore\n        /* \"#utility.yul\":15132:15133   */\n      0x01\n        /* \"#utility.yul\":15124:15130   */\n      dup3\n        /* \"#utility.yul\":15120:15134   */\n      add\n        /* \"#utility.yul\":15110:15134   */\n      swap2\n      pop\n        /* \"#utility.yul\":15179:15181   */\n      0x20\n        /* \"#utility.yul\":15168:15177   */\n      dup6\n        /* \"#utility.yul\":15164:15182   */\n      add\n        /* \"#utility.yul\":15151:15182   */\n      swap5\n      pop\n        /* \"#utility.yul\":15025:15029   */\n      0x20\n        /* \"#utility.yul\":15022:15023   */\n      dup2\n        /* \"#utility.yul\":15018:15030   */\n      add\n        /* \"#utility.yul\":15013:15030   */\n      swap1\n      pop\n        /* \"#utility.yul\":14988:15196   */\n      jump(tag_296)\n    tag_298:\n        /* \"#utility.yul\":15224:15230   */\n      dup7\n        /* \"#utility.yul\":15215:15222   */\n      dup4\n        /* \"#utility.yul\":15212:15231   */\n      lt\n        /* \"#utility.yul\":15209:15388   */\n      iszero\n      tag_299\n      jumpi\n        /* \"#utility.yul\":15282:15291   */\n      dup5\n        /* \"#utility.yul\":15277:15280   */\n      dup10\n        /* \"#utility.yul\":15273:15292   */\n      add\n        /* \"#utility.yul\":15267:15293   */\n      mload\n        /* \"#utility.yul\":15325:15373   */\n      tag_300\n        /* \"#utility.yul\":15367:15371   */\n      0x1f\n        /* \"#utility.yul\":15359:15365   */\n      dup10\n        /* \"#utility.yul\":15355:15372   */\n      and\n        /* \"#utility.yul\":15344:15353   */\n      dup3\n        /* \"#utility.yul\":15325:15373   */\n      tag_139\n      jump\t// in\n    tag_300:\n        /* \"#utility.yul\":15317:15323   */\n      dup4\n        /* \"#utility.yul\":15310:15374   */\n      sstore\n        /* \"#utility.yul\":15232:15388   */\n      pop\n        /* \"#utility.yul\":15209:15388   */\n    tag_299:\n        /* \"#utility.yul\":15434:15435   */\n      0x01\n        /* \"#utility.yul\":15430:15431   */\n      0x02\n        /* \"#utility.yul\":15422:15428   */\n      dup9\n        /* \"#utility.yul\":15418:15432   */\n      mul\n        /* \"#utility.yul\":15414:15436   */\n      add\n        /* \"#utility.yul\":15408:15412   */\n      dup9\n        /* \"#utility.yul\":15401:15437   */\n      sstore\n        /* \"#utility.yul\":14837:15447   */\n      pop\n      pop\n      pop\n        /* \"#utility.yul\":14800:15686   */\n    tag_291:\n      pop\n        /* \"#utility.yul\":14392:15692   */\n      pop\n      pop\n      pop\n        /* \"#utility.yul\":14302:15692   */\n      pop\n      pop\n      jump\t// out\n\n    auxdata: 0xa264697066735822122062388a9ca3fa83c9f2a841ad19507e08dcc79cc862c73191f69fa4011c714dca64736f6c63430008190033\n}\n",
				"bytecode": {
					"linkReferences": {},
					"object": "6080604052348015600e575f80fd5b506110598061001c5f395ff3fe608060405234801561000f575f80fd5b506004361061003f575f3560e01c806367eede891461004357806380c490321461006157806386e6cb4014610091575b5f80fd5b61004b61009b565b604051610058919061086a565b60405180910390f35b61007b600480360381019061007691906109fa565b61012a565b6040516100889190610aca565b60405180910390f35b6100996106f0565b005b60605f80546100a990610b10565b80601f01602080910402602001604051908101604052809291908181526020018280546100d590610b10565b80156101205780601f106100f757610100808354040283529160200191610120565b820191905f5260205f20905b81548152906001019060200180831161010357829003601f168201915b5050505050905090565b5f600183511461016f576040517f08c379a000000000000000000000000000000000000000000000000000000000815260040161016690610b9a565b60405180910390fd5b60018251146101b3576040517f08c379a00000000000000000000000000000000000000000000000000000000081526004016101aa90610b9a565b60405180910390fd5b5f808860486101c29190610be5565b60f81b90505f8860486101d59190610be5565b60f81b90505f8860486101e89190610be5565b60f81b90505f8860486101fb9190610be5565b60f81b90505f5b600481101561050757847effffffffffffffffffffffffffffffffffffffffffffffffffffffffffffff19165f82815461023b90610b10565b811061024a57610249610c18565b5b81546001161561026757905f5260205f2090602091828204019190065b9054901a7f0100000000000000000000000000000000000000000000000000000000000000027effffffffffffffffffffffffffffffffffffffffffffffffffffffffffffff1916036102c75785806102bf90610c45565b9650506104fa565b837effffffffffffffffffffffffffffffffffffffffffffffffffffffffffffff19165f8281546102f790610b10565b811061030657610305610c18565b5b81546001161561032357905f5260205f2090602091828204019190065b9054901a7f0100000000000000000000000000000000000000000000000000000000000000027effffffffffffffffffffffffffffffffffffffffffffffffffffffffffffff19160361038357858061037b90610c45565b9650506104f9565b827effffffffffffffffffffffffffffffffffffffffffffffffffffffffffffff19165f8281546103b390610b10565b81106103c2576103c1610c18565b5b8154600116156103df57905f5260205f2090602091828204019190065b9054901a7f0100000000000000000000000000000000000000000000000000000000000000027effffffffffffffffffffffffffffffffffffffffffffffffffffffffffffff19160361043f57858061043790610c45565b9650506104f8565b817effffffffffffffffffffffffffffffffffffffffffffffffffffffffffffff19165f82815461046f90610b10565b811061047e5761047d610c18565b5b81546001161561049b57905f5260205f2090602091828204019190065b9054901a7f0100000000000000000000000000000000000000000000000000000000000000027effffffffffffffffffffffffffffffffffffffffffffffffffffffffffffff1916036104f75785806104f390610c45565b9650505b5b5b5b8080600101915050610202565b505f885f8151811061051c5761051b610c18565b5b602001015160f81c60f81b90505f885f8151811061053d5761053c610c18565b5b602001015160f81c60f81b90505f600490505b60068110156106db57827effffffffffffffffffffffffffffffffffffffffffffffffffffffffffffff19165f82815461058990610b10565b811061059857610597610c18565b5b8154600116156105b557905f5260205f2090602091828204019190065b9054901a7f0100000000000000000000000000000000000000000000000000000000000000027effffffffffffffffffffffffffffffffffffffffffffffffffffffffffffff19160361061557878061060d90610c45565b9850506106ce565b817effffffffffffffffffffffffffffffffffffffffffffffffffffffffffffff19165f82815461064590610b10565b811061065457610653610c18565b5b81546001161561067157905f5260205f2090602091828204019190065b9054901a7f0100000000000000000000000000000000000000000000000000000000000000027effffffffffffffffffffffffffffffffffffffffffffffffffffffffffffff1916036106cd5787806106c990610c45565b9850505b5b8080600101915050610550565b50869750505050505050509695505050505050565b6040518060400160405280600181526020017f35000000000000000000000000000000000000000000000000000000000000008152506040518060400160405280600181526020017f32000000000000000000000000000000000000000000000000000000000000008152506040518060400160405280600181526020017f31000000000000000000000000000000000000000000000000000000000000008152506040518060400160405280600181526020017f34000000000000000000000000000000000000000000000000000000000000008152506040516020016107db9493929190610d64565b6040516020818303038152906040525f90816107f79190610f54565b50565b5f81519050919050565b5f82825260208201905092915050565b8281835e5f83830152505050565b5f601f19601f8301169050919050565b5f61083c826107fa565b6108468185610804565b9350610856818560208601610814565b61085f81610822565b840191505092915050565b5f6020820190508181035f8301526108828184610832565b905092915050565b5f604051905090565b5f80fd5b5f80fd5b5f819050919050565b6108ad8161089b565b81146108b7575f80fd5b50565b5f813590506108c8816108a4565b92915050565b5f80fd5b5f80fd5b7f4e487b71000000000000000000000000000000000000000000000000000000005f52604160045260245ffd5b61090c82610822565b810181811067ffffffffffffffff8211171561092b5761092a6108d6565b5b80604052505050565b5f61093d61088a565b90506109498282610903565b919050565b5f67ffffffffffffffff821115610968576109676108d6565b5b61097182610822565b9050602081019050919050565b828183375f83830152505050565b5f61099e6109998461094e565b610934565b9050828152602081018484840111156109ba576109b96108d2565b5b6109c584828561097e565b509392505050565b5f82601f8301126109e1576109e06108ce565b5b81356109f184826020860161098c565b91505092915050565b5f805f805f8060c08789031215610a1457610a13610893565b5b5f610a2189828a016108ba565b9650506020610a3289828a016108ba565b9550506040610a4389828a016108ba565b9450506060610a5489828a016108ba565b935050608087013567ffffffffffffffff811115610a7557610a74610897565b5b610a8189828a016109cd565b92505060a087013567ffffffffffffffff811115610aa257610aa1610897565b5b610aae89828a016109cd565b9150509295509295509295565b610ac48161089b565b82525050565b5f602082019050610add5f830184610abb565b92915050565b7f4e487b71000000000000000000000000000000000000000000000000000000005f52602260045260245ffd5b5f6002820490506001821680610b2757607f821691505b602082108103610b3a57610b39610ae3565b5b50919050565b5f82825260208201905092915050565b7f7075742031206c657474657200000000000000000000000000000000000000005f82015250565b5f610b84600c83610b40565b9150610b8f82610b50565b602082019050919050565b5f6020820190508181035f830152610bb181610b78565b9050919050565b7f4e487b71000000000000000000000000000000000000000000000000000000005f52601160045260245ffd5b5f610bef8261089b565b9150610bfa8361089b565b9250828201905080821115610c1257610c11610bb8565b5b92915050565b7f4e487b71000000000000000000000000000000000000000000000000000000005f52603260045260245ffd5b5f610c4f8261089b565b91507fffffffffffffffffffffffffffffffffffffffffffffffffffffffffffffffff8203610c8157610c80610bb8565b5b600182019050919050565b5f81905092915050565b5f610ca0826107fa565b610caa8185610c8c565b9350610cba818560208601610814565b80840191505092915050565b5f81905092915050565b7f41000000000000000000000000000000000000000000000000000000000000005f82015250565b5f610d04600183610cc6565b9150610d0f82610cd0565b600182019050919050565b7f42000000000000000000000000000000000000000000000000000000000000005f82015250565b5f610d4e600183610cc6565b9150610d5982610d1a565b600182019050919050565b5f610d6f8287610c96565b9150610d7b8286610c96565b9150610d878285610c96565b9150610d938284610c96565b9150610d9e82610cf8565b9150610da982610d42565b915081905095945050505050565b5f819050815f5260205f209050919050565b5f6020601f8301049050919050565b5f82821b905092915050565b5f60088302610e137fffffffffffffffffffffffffffffffffffffffffffffffffffffffffffffffff82610dd8565b610e1d8683610dd8565b95508019841693508086168417925050509392505050565b5f819050919050565b5f610e58610e53610e4e8461089b565b610e35565b61089b565b9050919050565b5f819050919050565b610e7183610e3e565b610e85610e7d82610e5f565b848454610de4565b825550505050565b5f90565b610e99610e8d565b610ea4818484610e68565b505050565b5b81811015610ec757610ebc5f82610e91565b600181019050610eaa565b5050565b601f821115610f0c57610edd81610db7565b610ee684610dc9565b81016020851015610ef5578190505b610f09610f0185610dc9565b830182610ea9565b50505b505050565b5f82821c905092915050565b5f610f2c5f1984600802610f11565b1980831691505092915050565b5f610f448383610f1d565b9150826002028217905092915050565b610f5d826107fa565b67ffffffffffffffff811115610f7657610f756108d6565b5b610f808254610b10565b610f8b828285610ecb565b5f60209050601f831160018114610fbc575f8415610faa578287015190505b610fb48582610f39565b86555061101b565b601f198416610fca86610db7565b5f5b82811015610ff157848901518255600182019150602085019450602081019050610fcc565b8683101561100e578489015161100a601f891682610f1d565b8355505b6001600288020188555050505b50505050505056fea264697066735822122062388a9ca3fa83c9f2a841ad19507e08dcc79cc862c73191f69fa4011c714dca64736f6c63430008190033",
					"opcodes": "PUSH1 0x80 PUSH1 0x40 MSTORE CALLVALUE DUP1 ISZERO PUSH1 0xE JUMPI PUSH0 DUP1 REVERT JUMPDEST POP PUSH2 0x1059 DUP1 PUSH2 0x1C PUSH0 CODECOPY PUSH0 RETURN INVALID PUSH1 0x80 PUSH1 0x40 MSTORE CALLVALUE DUP1 ISZERO PUSH2 0xF JUMPI PUSH0 DUP1 REVERT JUMPDEST POP PUSH1 0x4 CALLDATASIZE LT PUSH2 0x3F JUMPI PUSH0 CALLDATALOAD PUSH1 0xE0 SHR DUP1 PUSH4 0x67EEDE89 EQ PUSH2 0x43 JUMPI DUP1 PUSH4 0x80C49032 EQ PUSH2 0x61 JUMPI DUP1 PUSH4 0x86E6CB40 EQ PUSH2 0x91 JUMPI JUMPDEST PUSH0 DUP1 REVERT JUMPDEST PUSH2 0x4B PUSH2 0x9B JUMP JUMPDEST PUSH1 0x40 MLOAD PUSH2 0x58 SWAP2 SWAP1 PUSH2 0x86A JUMP JUMPDEST PUSH1 0x40 MLOAD DUP1 SWAP2 SUB SWAP1 RETURN JUMPDEST PUSH2 0x7B PUSH1 0x4 DUP1 CALLDATASIZE SUB DUP2 ADD SWAP1 PUSH2 0x76 SWAP2 SWAP1 PUSH2 0x9FA JUMP JUMPDEST PUSH2 0x12A JUMP JUMPDEST PUSH1 0x40 MLOAD PUSH2 0x88 SWAP2 SWAP1 PUSH2 0xACA JUMP JUMPDEST PUSH1 0x40 MLOAD DUP1 SWAP2 SUB SWAP1 RETURN JUMPDEST PUSH2 0x99 PUSH2 0x6F0 JUMP JUMPDEST STOP JUMPDEST PUSH1 0x60 PUSH0 DUP1 SLOAD PUSH2 0xA9 SWAP1 PUSH2 0xB10 JUMP JUMPDEST DUP1 PUSH1 0x1F ADD PUSH1 0x20 DUP1 SWAP2 DIV MUL PUSH1 0x20 ADD PUSH1 0x40 MLOAD SWAP1 DUP2 ADD PUSH1 0x40 MSTORE DUP1 SWAP3 SWAP2 SWAP1 DUP2 DUP2 MSTORE PUSH1 0x20 ADD DUP3 DUP1 SLOAD PUSH2 0xD5 SWAP1 PUSH2 0xB10 JUMP JUMPDEST DUP1 ISZERO PUSH2 0x120 JUMPI DUP1 PUSH1 0x1F LT PUSH2 0xF7 JUMPI PUSH2 0x100 DUP1 DUP4 SLOAD DIV MUL DUP4 MSTORE SWAP2 PUSH1 0x20 ADD SWAP2 PUSH2 0x120 JUMP JUMPDEST DUP3 ADD SWAP2 SWAP1 PUSH0 MSTORE PUSH1 0x20 PUSH0 KECCAK256 SWAP1 JUMPDEST DUP2 SLOAD DUP2 MSTORE SWAP1 PUSH1 0x1 ADD SWAP1 PUSH1 0x20 ADD DUP1 DUP4 GT PUSH2 0x103 JUMPI DUP3 SWAP1 SUB PUSH1 0x1F AND DUP3 ADD SWAP2 JUMPDEST POP POP POP POP POP SWAP1 POP SWAP1 JUMP JUMPDEST PUSH0 PUSH1 0x1 DUP4 MLOAD EQ PUSH2 0x16F JUMPI PUSH1 0x40 MLOAD PUSH32 0x8C379A000000000000000000000000000000000000000000000000000000000 DUP2 MSTORE PUSH1 0x4 ADD PUSH2 0x166 SWAP1 PUSH2 0xB9A JUMP JUMPDEST PUSH1 0x40 MLOAD DUP1 SWAP2 SUB SWAP1 REVERT JUMPDEST PUSH1 0x1 DUP3 MLOAD EQ PUSH2 0x1B3 JUMPI PUSH1 0x40 MLOAD PUSH32 0x8C379A000000000000000000000000000000000000000000000000000000000 DUP2 MSTORE PUSH1 0x4 ADD PUSH2 0x1AA SWAP1 PUSH2 0xB9A JUMP JUMPDEST PUSH1 0x40 MLOAD DUP1 SWAP2 SUB SWAP1 REVERT JUMPDEST PUSH0 DUP1 DUP9 PUSH1 0x48 PUSH2 0x1C2 SWAP2 SWAP1 PUSH2 0xBE5 JUMP JUMPDEST PUSH1 0xF8 SHL SWAP1 POP PUSH0 DUP9 PUSH1 0x48 PUSH2 0x1D5 SWAP2 SWAP1 PUSH2 0xBE5 JUMP JUMPDEST PUSH1 0xF8 SHL SWAP1 POP PUSH0 DUP9 PUSH1 0x48 PUSH2 0x1E8 SWAP2 SWAP1 PUSH2 0xBE5 JUMP JUMPDEST PUSH1 0xF8 SHL SWAP1 POP PUSH0 DUP9 PUSH1 0x48 PUSH2 0x1FB SWAP2 SWAP1 PUSH2 0xBE5 JUMP JUMPDEST PUSH1 0xF8 SHL SWAP1 POP PUSH0 JUMPDEST PUSH1 0x4 DUP2 LT ISZERO PUSH2 0x507 JUMPI DUP5 PUSH31 0xFFFFFFFFFFFFFFFFFFFFFFFFFFFFFFFFFFFFFFFFFFFFFFFFFFFFFFFFFFFFFF NOT AND PUSH0 DUP3 DUP2 SLOAD PUSH2 0x23B SWAP1 PUSH2 0xB10 JUMP JUMPDEST DUP2 LT PUSH2 0x24A JUMPI PUSH2 0x249 PUSH2 0xC18 JUMP JUMPDEST JUMPDEST DUP2 SLOAD PUSH1 0x1 AND ISZERO PUSH2 0x267 JUMPI SWAP1 PUSH0 MSTORE PUSH1 0x20 PUSH0 KECCAK256 SWAP1 PUSH1 0x20 SWAP2 DUP3 DUP3 DIV ADD SWAP2 SWAP1 MOD JUMPDEST SWAP1 SLOAD SWAP1 BYTE PUSH32 0x100000000000000000000000000000000000000000000000000000000000000 MUL PUSH31 0xFFFFFFFFFFFFFFFFFFFFFFFFFFFFFFFFFFFFFFFFFFFFFFFFFFFFFFFFFFFFFF NOT AND SUB PUSH2 0x2C7 JUMPI DUP6 DUP1 PUSH2 0x2BF SWAP1 PUSH2 0xC45 JUMP JUMPDEST SWAP7 POP POP PUSH2 0x4FA JUMP JUMPDEST DUP4 PUSH31 0xFFFFFFFFFFFFFFFFFFFFFFFFFFFFFFFFFFFFFFFFFFFFFFFFFFFFFFFFFFFFFF NOT AND PUSH0 DUP3 DUP2 SLOAD PUSH2 0x2F7 SWAP1 PUSH2 0xB10 JUMP JUMPDEST DUP2 LT PUSH2 0x306 JUMPI PUSH2 0x305 PUSH2 0xC18 JUMP JUMPDEST JUMPDEST DUP2 SLOAD PUSH1 0x1 AND ISZERO PUSH2 0x323 JUMPI SWAP1 PUSH0 MSTORE PUSH1 0x20 PUSH0 KECCAK256 SWAP1 PUSH1 0x20 SWAP2 DUP3 DUP3 DIV ADD SWAP2 SWAP1 MOD JUMPDEST SWAP1 SLOAD SWAP1 BYTE PUSH32 0x100000000000000000000000000000000000000000000000000000000000000 MUL PUSH31 0xFFFFFFFFFFFFFFFFFFFFFFFFFFFFFFFFFFFFFFFFFFFFFFFFFFFFFFFFFFFFFF NOT AND SUB PUSH2 0x383 JUMPI DUP6 DUP1 PUSH2 0x37B SWAP1 PUSH2 0xC45 JUMP JUMPDEST SWAP7 POP POP PUSH2 0x4F9 JUMP JUMPDEST DUP3 PUSH31 0xFFFFFFFFFFFFFFFFFFFFFFFFFFFFFFFFFFFFFFFFFFFFFFFFFFFFFFFFFFFFFF NOT AND PUSH0 DUP3 DUP2 SLOAD PUSH2 0x3B3 SWAP1 PUSH2 0xB10 JUMP JUMPDEST DUP2 LT PUSH2 0x3C2 JUMPI PUSH2 0x3C1 PUSH2 0xC18 JUMP JUMPDEST JUMPDEST DUP2 SLOAD PUSH1 0x1 AND ISZERO PUSH2 0x3DF JUMPI SWAP1 PUSH0 MSTORE PUSH1 0x20 PUSH0 KECCAK256 SWAP1 PUSH1 0x20 SWAP2 DUP3 DUP3 DIV ADD SWAP2 SWAP1 MOD JUMPDEST SWAP1 SLOAD SWAP1 BYTE PUSH32 0x100000000000000000000000000000000000000000000000000000000000000 MUL PUSH31 0xFFFFFFFFFFFFFFFFFFFFFFFFFFFFFFFFFFFFFFFFFFFFFFFFFFFFFFFFFFFFFF NOT AND SUB PUSH2 0x43F JUMPI DUP6 DUP1 PUSH2 0x437 SWAP1 PUSH2 0xC45 JUMP JUMPDEST SWAP7 POP POP PUSH2 0x4F8 JUMP JUMPDEST DUP2 PUSH31 0xFFFFFFFFFFFFFFFFFFFFFFFFFFFFFFFFFFFFFFFFFFFFFFFFFFFFFFFFFFFFFF NOT AND PUSH0 DUP3 DUP2 SLOAD PUSH2 0x46F SWAP1 PUSH2 0xB10 JUMP JUMPDEST DUP2 LT PUSH2 0x47E JUMPI PUSH2 0x47D PUSH2 0xC18 JUMP JUMPDEST JUMPDEST DUP2 SLOAD PUSH1 0x1 AND ISZERO PUSH2 0x49B JUMPI SWAP1 PUSH0 MSTORE PUSH1 0x20 PUSH0 KECCAK256 SWAP1 PUSH1 0x20 SWAP2 DUP3 DUP3 DIV ADD SWAP2 SWAP1 MOD JUMPDEST SWAP1 SLOAD SWAP1 BYTE PUSH32 0x100000000000000000000000000000000000000000000000000000000000000 MUL PUSH31 0xFFFFFFFFFFFFFFFFFFFFFFFFFFFFFFFFFFFFFFFFFFFFFFFFFFFFFFFFFFFFFF NOT AND SUB PUSH2 0x4F7 JUMPI DUP6 DUP1 PUSH2 0x4F3 SWAP1 PUSH2 0xC45 JUMP JUMPDEST SWAP7 POP POP JUMPDEST JUMPDEST JUMPDEST JUMPDEST DUP1 DUP1 PUSH1 0x1 ADD SWAP2 POP POP PUSH2 0x202 JUMP JUMPDEST POP PUSH0 DUP9 PUSH0 DUP2 MLOAD DUP2 LT PUSH2 0x51C JUMPI PUSH2 0x51B PUSH2 0xC18 JUMP JUMPDEST JUMPDEST PUSH1 0x20 ADD ADD MLOAD PUSH1 0xF8 SHR PUSH1 0xF8 SHL SWAP1 POP PUSH0 DUP9 PUSH0 DUP2 MLOAD DUP2 LT PUSH2 0x53D JUMPI PUSH2 0x53C PUSH2 0xC18 JUMP JUMPDEST JUMPDEST PUSH1 0x20 ADD ADD MLOAD PUSH1 0xF8 SHR PUSH1 0xF8 SHL SWAP1 POP PUSH0 PUSH1 0x4 SWAP1 POP JUMPDEST PUSH1 0x6 DUP2 LT ISZERO PUSH2 0x6DB JUMPI DUP3 PUSH31 0xFFFFFFFFFFFFFFFFFFFFFFFFFFFFFFFFFFFFFFFFFFFFFFFFFFFFFFFFFFFFFF NOT AND PUSH0 DUP3 DUP2 SLOAD PUSH2 0x589 SWAP1 PUSH2 0xB10 JUMP JUMPDEST DUP2 LT PUSH2 0x598 JUMPI PUSH2 0x597 PUSH2 0xC18 JUMP JUMPDEST JUMPDEST DUP2 SLOAD PUSH1 0x1 AND ISZERO PUSH2 0x5B5 JUMPI SWAP1 PUSH0 MSTORE PUSH1 0x20 PUSH0 KECCAK256 SWAP1 PUSH1 0x20 SWAP2 DUP3 DUP3 DIV ADD SWAP2 SWAP1 MOD JUMPDEST SWAP1 SLOAD SWAP1 BYTE PUSH32 0x100000000000000000000000000000000000000000000000000000000000000 MUL PUSH31 0xFFFFFFFFFFFFFFFFFFFFFFFFFFFFFFFFFFFFFFFFFFFFFFFFFFFFFFFFFFFFFF NOT AND SUB PUSH2 0x615 JUMPI DUP8 DUP1 PUSH2 0x60D SWAP1 PUSH2 0xC45 JUMP JUMPDEST SWAP9 POP POP PUSH2 0x6CE JUMP JUMPDEST DUP2 PUSH31 0xFFFFFFFFFFFFFFFFFFFFFFFFFFFFFFFFFFFFFFFFFFFFFFFFFFFFFFFFFFFFFF NOT AND PUSH0 DUP3 DUP2 SLOAD PUSH2 0x645 SWAP1 PUSH2 0xB10 JUMP JUMPDEST DUP2 LT PUSH2 0x654 JUMPI PUSH2 0x653 PUSH2 0xC18 JUMP JUMPDEST JUMPDEST DUP2 SLOAD PUSH1 0x1 AND ISZERO PUSH2 0x671 JUMPI SWAP1 PUSH0 MSTORE PUSH1 0x20 PUSH0 KECCAK256 SWAP1 PUSH1 0x20 SWAP2 DUP3 DUP3 DIV ADD SWAP2 SWAP1 MOD JUMPDEST SWAP1 SLOAD SWAP1 BYTE PUSH32 0x100000000000000000000000000000000000000000000000000000000000000 MUL PUSH31 0xFFFFFFFFFFFFFFFFFFFFFFFFFFFFFFFFFFFFFFFFFFFFFFFFFFFFFFFFFFFFFF NOT AND SUB PUSH2 0x6CD JUMPI DUP8 DUP1 PUSH2 0x6C9 SWAP1 PUSH2 0xC45 JUMP JUMPDEST SWAP9 POP POP JUMPDEST JUMPDEST DUP1 DUP1 PUSH1 0x1 ADD SWAP2 POP POP PUSH2 0x550 JUMP JUMPDEST POP DUP7 SWAP8 POP POP POP POP POP POP POP POP SWAP7 SWAP6 POP POP POP POP POP POP JUMP JUMPDEST PUSH1 0x40 MLOAD DUP1 PUSH1 0x40 ADD PUSH1 0x40 MSTORE DUP1 PUSH1 0x1 DUP2 MSTORE PUSH1 0x20 ADD PUSH32 0x3500000000000000000000000000000000000000000000000000000000000000 DUP2 MSTORE POP PUSH1 0x40 MLOAD DUP1 PUSH1 0x40 ADD PUSH1 0x40 MSTORE DUP1 PUSH1 0x1 DUP2 MSTORE PUSH1 0x20 ADD PUSH32 0x3200000000000000000000000000000000000000000000000000000000000000 DUP2 MSTORE POP PUSH1 0x40 MLOAD DUP1 PUSH1 0x40 ADD PUSH1 0x40 MSTORE DUP1 PUSH1 0x1 DUP2 MSTORE PUSH1 0x20 ADD PUSH32 0x3100000000000000000000000000000000000000000000000000000000000000 DUP2 MSTORE POP PUSH1 0x40 MLOAD DUP1 PUSH1 0x40 ADD PUSH1 0x40 MSTORE DUP1 PUSH1 0x1 DUP2 MSTORE PUSH1 0x20 ADD PUSH32 0x3400000000000000000000000000000000000000000000000000000000000000 DUP2 MSTORE POP PUSH1 0x40 MLOAD PUSH1 0x20 ADD PUSH2 0x7DB SWAP5 SWAP4 SWAP3 SWAP2 SWAP1 PUSH2 0xD64 JUMP JUMPDEST PUSH1 0x40 MLOAD PUSH1 0x20 DUP2 DUP4 SUB SUB DUP2 MSTORE SWAP1 PUSH1 0x40 MSTORE PUSH0 SWAP1 DUP2 PUSH2 0x7F7 SWAP2 SWAP1 PUSH2 0xF54 JUMP JUMPDEST POP JUMP JUMPDEST PUSH0 DUP2 MLOAD SWAP1 POP SWAP2 SWAP1 POP JUMP JUMPDEST PUSH0 DUP3 DUP3 MSTORE PUSH1 0x20 DUP3 ADD SWAP1 POP SWAP3 SWAP2 POP POP JUMP JUMPDEST DUP3 DUP2 DUP4 MCOPY PUSH0 DUP4 DUP4 ADD MSTORE POP POP POP JUMP JUMPDEST PUSH0 PUSH1 0x1F NOT PUSH1 0x1F DUP4 ADD AND SWAP1 POP SWAP2 SWAP1 POP JUMP JUMPDEST PUSH0 PUSH2 0x83C DUP3 PUSH2 0x7FA JUMP JUMPDEST PUSH2 0x846 DUP2 DUP6 PUSH2 0x804 JUMP JUMPDEST SWAP4 POP PUSH2 0x856 DUP2 DUP6 PUSH1 0x20 DUP7 ADD PUSH2 0x814 JUMP JUMPDEST PUSH2 0x85F DUP2 PUSH2 0x822 JUMP JUMPDEST DUP5 ADD SWAP2 POP POP SWAP3 SWAP2 POP POP JUMP JUMPDEST PUSH0 PUSH1 0x20 DUP3 ADD SWAP1 POP DUP2 DUP2 SUB PUSH0 DUP4 ADD MSTORE PUSH2 0x882 DUP2 DUP5 PUSH2 0x832 JUMP JUMPDEST SWAP1 POP SWAP3 SWAP2 POP POP JUMP JUMPDEST PUSH0 PUSH1 0x40 MLOAD SWAP1 POP SWAP1 JUMP JUMPDEST PUSH0 DUP1 REVERT JUMPDEST PUSH0 DUP1 REVERT JUMPDEST PUSH0 DUP2 SWAP1 POP SWAP2 SWAP1 POP JUMP JUMPDEST PUSH2 0x8AD DUP2 PUSH2 0x89B JUMP JUMPDEST DUP2 EQ PUSH2 0x8B7 JUMPI PUSH0 DUP1 REVERT JUMPDEST POP JUMP JUMPDEST PUSH0 DUP2 CALLDATALOAD SWAP1 POP PUSH2 0x8C8 DUP2 PUSH2 0x8A4 JUMP JUMPDEST SWAP3 SWAP2 POP POP JUMP JUMPDEST PUSH0 DUP1 REVERT JUMPDEST PUSH0 DUP1 REVERT JUMPDEST PUSH32 0x4E487B7100000000000000000000000000000000000000000000000000000000 PUSH0 MSTORE PUSH1 0x41 PUSH1 0x4 MSTORE PUSH1 0x24 PUSH0 REVERT JUMPDEST PUSH2 0x90C DUP3 PUSH2 0x822 JUMP JUMPDEST DUP2 ADD DUP2 DUP2 LT PUSH8 0xFFFFFFFFFFFFFFFF DUP3 GT OR ISZERO PUSH2 0x92B JUMPI PUSH2 0x92A PUSH2 0x8D6 JUMP JUMPDEST JUMPDEST DUP1 PUSH1 0x40 MSTORE POP POP POP JUMP JUMPDEST PUSH0 PUSH2 0x93D PUSH2 0x88A JUMP JUMPDEST SWAP1 POP PUSH2 0x949 DUP3 DUP3 PUSH2 0x903 JUMP JUMPDEST SWAP2 SWAP1 POP JUMP JUMPDEST PUSH0 PUSH8 0xFFFFFFFFFFFFFFFF DUP3 GT ISZERO PUSH2 0x968 JUMPI PUSH2 0x967 PUSH2 0x8D6 JUMP JUMPDEST JUMPDEST PUSH2 0x971 DUP3 PUSH2 0x822 JUMP JUMPDEST SWAP1 POP PUSH1 0x20 DUP2 ADD SWAP1 POP SWAP2 SWAP1 POP JUMP JUMPDEST DUP3 DUP2 DUP4 CALLDATACOPY PUSH0 DUP4 DUP4 ADD MSTORE POP POP POP JUMP JUMPDEST PUSH0 PUSH2 0x99E PUSH2 0x999 DUP5 PUSH2 0x94E JUMP JUMPDEST PUSH2 0x934 JUMP JUMPDEST SWAP1 POP DUP3 DUP2 MSTORE PUSH1 0x20 DUP2 ADD DUP5 DUP5 DUP5 ADD GT ISZERO PUSH2 0x9BA JUMPI PUSH2 0x9B9 PUSH2 0x8D2 JUMP JUMPDEST JUMPDEST PUSH2 0x9C5 DUP5 DUP3 DUP6 PUSH2 0x97E JUMP JUMPDEST POP SWAP4 SWAP3 POP POP POP JUMP JUMPDEST PUSH0 DUP3 PUSH1 0x1F DUP4 ADD SLT PUSH2 0x9E1 JUMPI PUSH2 0x9E0 PUSH2 0x8CE JUMP JUMPDEST JUMPDEST DUP2 CALLDATALOAD PUSH2 0x9F1 DUP5 DUP3 PUSH1 0x20 DUP7 ADD PUSH2 0x98C JUMP JUMPDEST SWAP2 POP POP SWAP3 SWAP2 POP POP JUMP JUMPDEST PUSH0 DUP1 PUSH0 DUP1 PUSH0 DUP1 PUSH1 0xC0 DUP8 DUP10 SUB SLT ISZERO PUSH2 0xA14 JUMPI PUSH2 0xA13 PUSH2 0x893 JUMP JUMPDEST JUMPDEST PUSH0 PUSH2 0xA21 DUP10 DUP3 DUP11 ADD PUSH2 0x8BA JUMP JUMPDEST SWAP7 POP POP PUSH1 0x20 PUSH2 0xA32 DUP10 DUP3 DUP11 ADD PUSH2 0x8BA JUMP JUMPDEST SWAP6 POP POP PUSH1 0x40 PUSH2 0xA43 DUP10 DUP3 DUP11 ADD PUSH2 0x8BA JUMP JUMPDEST SWAP5 POP POP PUSH1 0x60 PUSH2 0xA54 DUP10 DUP3 DUP11 ADD PUSH2 0x8BA JUMP JUMPDEST SWAP4 POP POP PUSH1 0x80 DUP8 ADD CALLDATALOAD PUSH8 0xFFFFFFFFFFFFFFFF DUP2 GT ISZERO PUSH2 0xA75 JUMPI PUSH2 0xA74 PUSH2 0x897 JUMP JUMPDEST JUMPDEST PUSH2 0xA81 DUP10 DUP3 DUP11 ADD PUSH2 0x9CD JUMP JUMPDEST SWAP3 POP POP PUSH1 0xA0 DUP8 ADD CALLDATALOAD PUSH8 0xFFFFFFFFFFFFFFFF DUP2 GT ISZERO PUSH2 0xAA2 JUMPI PUSH2 0xAA1 PUSH2 0x897 JUMP JUMPDEST JUMPDEST PUSH2 0xAAE DUP10 DUP3 DUP11 ADD PUSH2 0x9CD JUMP JUMPDEST SWAP2 POP POP SWAP3 SWAP6 POP SWAP3 SWAP6 POP SWAP3 SWAP6 JUMP JUMPDEST PUSH2 0xAC4 DUP2 PUSH2 0x89B JUMP JUMPDEST DUP3 MSTORE POP POP JUMP JUMPDEST PUSH0 PUSH1 0x20 DUP3 ADD SWAP1 POP PUSH2 0xADD PUSH0 DUP4 ADD DUP5 PUSH2 0xABB JUMP JUMPDEST SWAP3 SWAP2 POP POP JUMP JUMPDEST PUSH32 0x4E487B7100000000000000000000000000000000000000000000000000000000 PUSH0 MSTORE PUSH1 0x22 PUSH1 0x4 MSTORE PUSH1 0x24 PUSH0 REVERT JUMPDEST PUSH0 PUSH1 0x2 DUP3 DIV SWAP1 POP PUSH1 0x1 DUP3 AND DUP1 PUSH2 0xB27 JUMPI PUSH1 0x7F DUP3 AND SWAP2 POP JUMPDEST PUSH1 0x20 DUP3 LT DUP2 SUB PUSH2 0xB3A JUMPI PUSH2 0xB39 PUSH2 0xAE3 JUMP JUMPDEST JUMPDEST POP SWAP2 SWAP1 POP JUMP JUMPDEST PUSH0 DUP3 DUP3 MSTORE PUSH1 0x20 DUP3 ADD SWAP1 POP SWAP3 SWAP2 POP POP JUMP JUMPDEST PUSH32 0x7075742031206C65747465720000000000000000000000000000000000000000 PUSH0 DUP3 ADD MSTORE POP JUMP JUMPDEST PUSH0 PUSH2 0xB84 PUSH1 0xC DUP4 PUSH2 0xB40 JUMP JUMPDEST SWAP2 POP PUSH2 0xB8F DUP3 PUSH2 0xB50 JUMP JUMPDEST PUSH1 0x20 DUP3 ADD SWAP1 POP SWAP2 SWAP1 POP JUMP JUMPDEST PUSH0 PUSH1 0x20 DUP3 ADD SWAP1 POP DUP2 DUP2 SUB PUSH0 DUP4 ADD MSTORE PUSH2 0xBB1 DUP2 PUSH2 0xB78 JUMP JUMPDEST SWAP1 POP SWAP2 SWAP1 POP JUMP JUMPDEST PUSH32 0x4E487B7100000000000000000000000000000000000000000000000000000000 PUSH0 MSTORE PUSH1 0x11 PUSH1 0x4 MSTORE PUSH1 0x24 PUSH0 REVERT JUMPDEST PUSH0 PUSH2 0xBEF DUP3 PUSH2 0x89B JUMP JUMPDEST SWAP2 POP PUSH2 0xBFA DUP4 PUSH2 0x89B JUMP JUMPDEST SWAP3 POP DUP3 DUP3 ADD SWAP1 POP DUP1 DUP3 GT ISZERO PUSH2 0xC12 JUMPI PUSH2 0xC11 PUSH2 0xBB8 JUMP JUMPDEST JUMPDEST SWAP3 SWAP2 POP POP JUMP JUMPDEST PUSH32 0x4E487B7100000000000000000000000000000000000000000000000000000000 PUSH0 MSTORE PUSH1 0x32 PUSH1 0x4 MSTORE PUSH1 0x24 PUSH0 REVERT JUMPDEST PUSH0 PUSH2 0xC4F DUP3 PUSH2 0x89B JUMP JUMPDEST SWAP2 POP PUSH32 0xFFFFFFFFFFFFFFFFFFFFFFFFFFFFFFFFFFFFFFFFFFFFFFFFFFFFFFFFFFFFFFFF DUP3 SUB PUSH2 0xC81 JUMPI PUSH2 0xC80 PUSH2 0xBB8 JUMP JUMPDEST JUMPDEST PUSH1 0x1 DUP3 ADD SWAP1 POP SWAP2 SWAP1 POP JUMP JUMPDEST PUSH0 DUP2 SWAP1 POP SWAP3 SWAP2 POP POP JUMP JUMPDEST PUSH0 PUSH2 0xCA0 DUP3 PUSH2 0x7FA JUMP JUMPDEST PUSH2 0xCAA DUP2 DUP6 PUSH2 0xC8C JUMP JUMPDEST SWAP4 POP PUSH2 0xCBA DUP2 DUP6 PUSH1 0x20 DUP7 ADD PUSH2 0x814 JUMP JUMPDEST DUP1 DUP5 ADD SWAP2 POP POP SWAP3 SWAP2 POP POP JUMP JUMPDEST PUSH0 DUP2 SWAP1 POP SWAP3 SWAP2 POP POP JUMP JUMPDEST PUSH32 0x4100000000000000000000000000000000000000000000000000000000000000 PUSH0 DUP3 ADD MSTORE POP JUMP JUMPDEST PUSH0 PUSH2 0xD04 PUSH1 0x1 DUP4 PUSH2 0xCC6 JUMP JUMPDEST SWAP2 POP PUSH2 0xD0F DUP3 PUSH2 0xCD0 JUMP JUMPDEST PUSH1 0x1 DUP3 ADD SWAP1 POP SWAP2 SWAP1 POP JUMP JUMPDEST PUSH32 0x4200000000000000000000000000000000000000000000000000000000000000 PUSH0 DUP3 ADD MSTORE POP JUMP JUMPDEST PUSH0 PUSH2 0xD4E PUSH1 0x1 DUP4 PUSH2 0xCC6 JUMP JUMPDEST SWAP2 POP PUSH2 0xD59 DUP3 PUSH2 0xD1A JUMP JUMPDEST PUSH1 0x1 DUP3 ADD SWAP1 POP SWAP2 SWAP1 POP JUMP JUMPDEST PUSH0 PUSH2 0xD6F DUP3 DUP8 PUSH2 0xC96 JUMP JUMPDEST SWAP2 POP PUSH2 0xD7B DUP3 DUP7 PUSH2 0xC96 JUMP JUMPDEST SWAP2 POP PUSH2 0xD87 DUP3 DUP6 PUSH2 0xC96 JUMP JUMPDEST SWAP2 POP PUSH2 0xD93 DUP3 DUP5 PUSH2 0xC96 JUMP JUMPDEST SWAP2 POP PUSH2 0xD9E DUP3 PUSH2 0xCF8 JUMP JUMPDEST SWAP2 POP PUSH2 0xDA9 DUP3 PUSH2 0xD42 JUMP JUMPDEST SWAP2 POP DUP2 SWAP1 POP SWAP6 SWAP5 POP POP POP POP POP JUMP JUMPDEST PUSH0 DUP2 SWAP1 POP DUP2 PUSH0 MSTORE PUSH1 0x20 PUSH0 KECCAK256 SWAP1 POP SWAP2 SWAP1 POP JUMP JUMPDEST PUSH0 PUSH1 0x20 PUSH1 0x1F DUP4 ADD DIV SWAP1 POP SWAP2 SWAP1 POP JUMP JUMPDEST PUSH0 DUP3 DUP3 SHL SWAP1 POP SWAP3 SWAP2 POP POP JUMP JUMPDEST PUSH0 PUSH1 0x8 DUP4 MUL PUSH2 0xE13 PUSH32 0xFFFFFFFFFFFFFFFFFFFFFFFFFFFFFFFFFFFFFFFFFFFFFFFFFFFFFFFFFFFFFFFF DUP3 PUSH2 0xDD8 JUMP JUMPDEST PUSH2 0xE1D DUP7 DUP4 PUSH2 0xDD8 JUMP JUMPDEST SWAP6 POP DUP1 NOT DUP5 AND SWAP4 POP DUP1 DUP7 AND DUP5 OR SWAP3 POP POP POP SWAP4 SWAP3 POP POP POP JUMP JUMPDEST PUSH0 DUP2 SWAP1 POP SWAP2 SWAP1 POP JUMP JUMPDEST PUSH0 PUSH2 0xE58 PUSH2 0xE53 PUSH2 0xE4E DUP5 PUSH2 0x89B JUMP JUMPDEST PUSH2 0xE35 JUMP JUMPDEST PUSH2 0x89B JUMP JUMPDEST SWAP1 POP SWAP2 SWAP1 POP JUMP JUMPDEST PUSH0 DUP2 SWAP1 POP SWAP2 SWAP1 POP JUMP JUMPDEST PUSH2 0xE71 DUP4 PUSH2 0xE3E JUMP JUMPDEST PUSH2 0xE85 PUSH2 0xE7D DUP3 PUSH2 0xE5F JUMP JUMPDEST DUP5 DUP5 SLOAD PUSH2 0xDE4 JUMP JUMPDEST DUP3 SSTORE POP POP POP POP JUMP JUMPDEST PUSH0 SWAP1 JUMP JUMPDEST PUSH2 0xE99 PUSH2 0xE8D JUMP JUMPDEST PUSH2 0xEA4 DUP2 DUP5 DUP5 PUSH2 0xE68 JUMP JUMPDEST POP POP POP JUMP JUMPDEST JUMPDEST DUP2 DUP2 LT ISZERO PUSH2 0xEC7 JUMPI PUSH2 0xEBC PUSH0 DUP3 PUSH2 0xE91 JUMP JUMPDEST PUSH1 0x1 DUP2 ADD SWAP1 POP PUSH2 0xEAA JUMP JUMPDEST POP POP JUMP JUMPDEST PUSH1 0x1F DUP3 GT ISZERO PUSH2 0xF0C JUMPI PUSH2 0xEDD DUP2 PUSH2 0xDB7 JUMP JUMPDEST PUSH2 0xEE6 DUP5 PUSH2 0xDC9 JUMP JUMPDEST DUP2 ADD PUSH1 0x20 DUP6 LT ISZERO PUSH2 0xEF5 JUMPI DUP2 SWAP1 POP JUMPDEST PUSH2 0xF09 PUSH2 0xF01 DUP6 PUSH2 0xDC9 JUMP JUMPDEST DUP4 ADD DUP3 PUSH2 0xEA9 JUMP JUMPDEST POP POP JUMPDEST POP POP POP JUMP JUMPDEST PUSH0 DUP3 DUP3 SHR SWAP1 POP SWAP3 SWAP2 POP POP JUMP JUMPDEST PUSH0 PUSH2 0xF2C PUSH0 NOT DUP5 PUSH1 0x8 MUL PUSH2 0xF11 JUMP JUMPDEST NOT DUP1 DUP4 AND SWAP2 POP POP SWAP3 SWAP2 POP POP JUMP JUMPDEST PUSH0 PUSH2 0xF44 DUP4 DUP4 PUSH2 0xF1D JUMP JUMPDEST SWAP2 POP DUP3 PUSH1 0x2 MUL DUP3 OR SWAP1 POP SWAP3 SWAP2 POP POP JUMP JUMPDEST PUSH2 0xF5D DUP3 PUSH2 0x7FA JUMP JUMPDEST PUSH8 0xFFFFFFFFFFFFFFFF DUP2 GT ISZERO PUSH2 0xF76 JUMPI PUSH2 0xF75 PUSH2 0x8D6 JUMP JUMPDEST JUMPDEST PUSH2 0xF80 DUP3 SLOAD PUSH2 0xB10 JUMP JUMPDEST PUSH2 0xF8B DUP3 DUP3 DUP6 PUSH2 0xECB JUMP JUMPDEST PUSH0 PUSH1 0x20 SWAP1 POP PUSH1 0x1F DUP4 GT PUSH1 0x1 DUP2 EQ PUSH2 0xFBC JUMPI PUSH0 DUP5 ISZERO PUSH2 0xFAA JUMPI DUP3 DUP8 ADD MLOAD SWAP1 POP JUMPDEST PUSH2 0xFB4 DUP6 DUP3 PUSH2 0xF39 JUMP JUMPDEST DUP7 SSTORE POP PUSH2 0x101B JUMP JUMPDEST PUSH1 0x1F NOT DUP5 AND PUSH2 0xFCA DUP7 PUSH2 0xDB7 JUMP JUMPDEST PUSH0 JUMPDEST DUP3 DUP2 LT ISZERO PUSH2 0xFF1 JUMPI DUP5 DUP10 ADD MLOAD DUP3 SSTORE PUSH1 0x1 DUP3 ADD SWAP2 POP PUSH1 0x20 DUP6 ADD SWAP5 POP PUSH1 0x20 DUP2 ADD SWAP1 POP PUSH2 0xFCC JUMP JUMPDEST DUP7 DUP4 LT ISZERO PUSH2 0x100E JUMPI DUP5 DUP10 ADD MLOAD PUSH2 0x100A PUSH1 0x1F DUP10 AND DUP3 PUSH2 0xF1D JUMP JUMPDEST DUP4 SSTORE POP JUMPDEST PUSH1 0x1 PUSH1 0x2 DUP9 MUL ADD DUP9 SSTORE POP POP POP JUMPDEST POP POP POP POP POP POP JUMP INVALID LOG2 PUSH5 0x6970667358 0x22 SLT KECCAK256 PUSH3 0x388A9C LOG3 STATICCALL DUP4 0xC9 CALLCODE 0xA8 COINBASE 0xAD NOT POP PUSH31 0x8DCC79CC862C73191F69FA4011C714DCA64736F6C63430008190033000000 "
				},
				"gasEstimates": {
					"creation": {
						"codeDepositCost": "837000",
						"executionCost": "868",
						"totalCost": "837868"
					},
					"external": {
						"getlottery()": "infinite",
						"lottery(uint256,uint256,uint256,uint256,string,string)": "infinite",
						"setlottery()": "infinite"
					}
				},
				"methodIdentifiers": {
					"getlottery()": "67eede89",
					"lottery(uint256,uint256,uint256,uint256,string,string)": "80c49032",
					"setlottery()": "86e6cb40"
				}
			},
			"storageLayout": {
				"storage": [
					{
						"astId": 1418,
						"contract": "solidity_test/test11.sol:a",
						"label": "winNumber",
						"offset": 0,
						"slot": "0",
						"type": "t_bytes_storage"
					}
				],
				"types": {
					"t_bytes_storage": {
						"encoding": "bytes",
						"label": "bytes",
						"numberOfBytes": "32"
					}
				}
			},
			"userdoc": {
				"kind": "user",
				"methods": {},
				"version": 1
			}
		}
	}
}