{
	"data": {
		"bytecode": {
			"linkReferences": {},
			"object": "6080604052348015600e575f80fd5b5061017c8061001c5f395ff3fe608060405234801561000f575f80fd5b5060043610610029575f3560e01c80639aca30ac1461002d575b5f80fd5b610047600480360381019061004291906100ce565b61005d565b604051610054919061012d565b60405180910390f35b5f8083851161007a578284116100735782610075565b835b61008a565b8285116100875782610089565b845b5b9050809150509392505050565b5f80fd5b5f819050919050565b6100ad8161009b565b81146100b7575f80fd5b50565b5f813590506100c8816100a4565b92915050565b5f805f606084860312156100e5576100e4610097565b5b5f6100f2868287016100ba565b9350506020610103868287016100ba565b9250506040610114868287016100ba565b9150509250925092565b6101278161009b565b82525050565b5f6020820190506101405f83018461011e565b9291505056fea26469706673582212201033169c94603622d4f1e324e695849646f710e1a94d7d08f7e970686bae51e364736f6c63430008190033",
			"opcodes": "PUSH1 0x80 PUSH1 0x40 MSTORE CALLVALUE DUP1 ISZERO PUSH1 0xE JUMPI PUSH0 DUP1 REVERT JUMPDEST POP PUSH2 0x17C DUP1 PUSH2 0x1C PUSH0 CODECOPY PUSH0 RETURN INVALID PUSH1 0x80 PUSH1 0x40 MSTORE CALLVALUE DUP1 ISZERO PUSH2 0xF JUMPI PUSH0 DUP1 REVERT JUMPDEST POP PUSH1 0x4 CALLDATASIZE LT PUSH2 0x29 JUMPI PUSH0 CALLDATALOAD PUSH1 0xE0 SHR DUP1 PUSH4 0x9ACA30AC EQ PUSH2 0x2D JUMPI JUMPDEST PUSH0 DUP1 REVERT JUMPDEST PUSH2 0x47 PUSH1 0x4 DUP1 CALLDATASIZE SUB DUP2 ADD SWAP1 PUSH2 0x42 SWAP2 SWAP1 PUSH2 0xCE JUMP JUMPDEST PUSH2 0x5D JUMP JUMPDEST PUSH1 0x40 MLOAD PUSH2 0x54 SWAP2 SWAP1 PUSH2 0x12D JUMP JUMPDEST PUSH1 0x40 MLOAD DUP1 SWAP2 SUB SWAP1 RETURN JUMPDEST PUSH0 DUP1 DUP4 DUP6 GT PUSH2 0x7A JUMPI DUP3 DUP5 GT PUSH2 0x73 JUMPI DUP3 PUSH2 0x75 JUMP JUMPDEST DUP4 JUMPDEST PUSH2 0x8A JUMP JUMPDEST DUP3 DUP6 GT PUSH2 0x87 JUMPI DUP3 PUSH2 0x89 JUMP JUMPDEST DUP5 JUMPDEST JUMPDEST SWAP1 POP DUP1 SWAP2 POP POP SWAP4 SWAP3 POP POP POP JUMP JUMPDEST PUSH0 DUP1 REVERT JUMPDEST PUSH0 DUP2 SWAP1 POP SWAP2 SWAP1 POP JUMP JUMPDEST PUSH2 0xAD DUP2 PUSH2 0x9B JUMP JUMPDEST DUP2 EQ PUSH2 0xB7 JUMPI PUSH0 DUP1 REVERT JUMPDEST POP JUMP JUMPDEST PUSH0 DUP2 CALLDATALOAD SWAP1 POP PUSH2 0xC8 DUP2 PUSH2 0xA4 JUMP JUMPDEST SWAP3 SWAP2 POP POP JUMP JUMPDEST PUSH0 DUP1 PUSH0 PUSH1 0x60 DUP5 DUP7 SUB SLT ISZERO PUSH2 0xE5 JUMPI PUSH2 0xE4 PUSH2 0x97 JUMP JUMPDEST JUMPDEST PUSH0 PUSH2 0xF2 DUP7 DUP3 DUP8 ADD PUSH2 0xBA JUMP JUMPDEST SWAP4 POP POP PUSH1 0x20 PUSH2 0x103 DUP7 DUP3 DUP8 ADD PUSH2 0xBA JUMP JUMPDEST SWAP3 POP POP PUSH1 0x40 PUSH2 0x114 DUP7 DUP3 DUP8 ADD PUSH2 0xBA JUMP JUMPDEST SWAP2 POP POP SWAP3 POP SWAP3 POP SWAP3 JUMP JUMPDEST PUSH2 0x127 DUP2 PUSH2 0x9B JUMP JUMPDEST DUP3 MSTORE POP POP JUMP JUMPDEST PUSH0 PUSH1 0x20 DUP3 ADD SWAP1 POP PUSH2 0x140 PUSH0 DUP4 ADD DUP5 PUSH2 0x11E JUMP JUMPDEST SWAP3 SWAP2 POP POP JUMP INVALID LOG2 PUSH5 0x6970667358 0x22 SLT KECCAK256 LT CALLER AND SWAP13 SWAP5 PUSH1 0x36 0x22 0xD4 CALL 0xE3 0x24 0xE6 SWAP6 DUP5 SWAP7 CHAINID 0xF7 LT 0xE1 0xA9 0x4D PUSH30 0x8F7E970686BAE51E364736F6C6343000819003300000000000000000000 "
		},
		"gasEstimates": {
			"creation": {
				"codeDepositCost": "76000",
				"executionCost": "121",
				"totalCost": "76121"
			},
			"external": {
				"bigNum(uint256,uint256,uint256)": "infinite"
			}
		},
		"methodIdentifiers": {
			"bigNum(uint256,uint256,uint256)": "9aca30ac"
		}
	},
	"abi": [
		{
			"inputs": [
				{
					"internalType": "uint256",
					"name": "_a",
					"type": "uint256"
				},
				{
					"internalType": "uint256",
					"name": "_b",
					"type": "uint256"
				},
				{
					"internalType": "uint256",
					"name": "_c",
					"type": "uint256"
				}
			],
			"name": "bigNum",
			"outputs": [
				{
					"internalType": "uint256",
					"name": "",
					"type": "uint256"
				}
			],
			"stateMutability": "pure",
			"type": "function"
		}
	]
}