{
	"data": {
		"bytecode": {
			"linkReferences": {},
			"object": "6080604052604051600e906074565b604051809103905ff0801580156026573d5f803e3d5ffd5b505f806101000a81548173ffffffffffffffffffffffffffffffffffffffff021916908373ffffffffffffffffffffffffffffffffffffffff160217905550348015606f575f80fd5b506081565b610198806109cc83390190565b61093e8061008e5f395ff3fe608060405234801561000f575f80fd5b506004361061003f575f3560e01c8063436e432b14610043578063c9c996631461004d578063efc0383f14610069575b5f80fd5b61004b610087565b005b6100676004803603810190610062919061049a565b610096565b005b610071610154565b60405161007e9190610503565b60405180910390f35b60015f610094919061026e565b565b6003600180549050106100de576040517f08c379a00000000000000000000000000000000000000000000000000000000081526004016100d590610576565b60405180910390fd5b60016040518060600160405280848152602001600180549050815260200183815250908060018154018082558091505060019003905f5260205f2090600302015f909190919091505f820151815f0190816101399190610798565b50602082015181600101556040820151816002015550505050565b5f8060015f8154811061016a57610169610867565b5b905f5260205f2090600302016002015490505f6001808154811061019157610190610867565b5b905f5260205f2090600302016002015490505f60016002815481106101b9576101b8610867565b5b905f5260205f2090600302016002015490505f8054906101000a900473ffffffffffffffffffffffffffffffffffffffff1673ffffffffffffffffffffffffffffffffffffffff16639aca30ac8484846040518463ffffffff1660e01b815260040161022793929190610894565b602060405180830381865afa158015610242573d5f803e3d5ffd5b505050506040513d601f19601f8201168201806040525081019061026691906108dd565b935050505090565b5080545f8255600302905f5260205f209081019061028c919061028f565b50565b5b808211156102be575f8082015f6102a791906102c2565b600182015f9055600282015f905550600301610290565b5090565b5080546102ce906105cb565b5f825580601f106102df57506102fc565b601f0160209004905f5260205f20908101906102fb91906102ff565b5b50565b5b80821115610316575f815f905550600101610300565b5090565b5f604051905090565b5f80fd5b5f80fd5b5f80fd5b5f80fd5b5f601f19601f8301169050919050565b7f4e487b71000000000000000000000000000000000000000000000000000000005f52604160045260245ffd5b61037982610333565b810181811067ffffffffffffffff8211171561039857610397610343565b5b80604052505050565b5f6103aa61031a565b90506103b68282610370565b919050565b5f67ffffffffffffffff8211156103d5576103d4610343565b5b6103de82610333565b9050602081019050919050565b828183375f83830152505050565b5f61040b610406846103bb565b6103a1565b9050828152602081018484840111156104275761042661032f565b5b6104328482856103eb565b509392505050565b5f82601f83011261044e5761044d61032b565b5b813561045e8482602086016103f9565b91505092915050565b5f819050919050565b61047981610467565b8114610483575f80fd5b50565b5f8135905061049481610470565b92915050565b5f80604083850312156104b0576104af610323565b5b5f83013567ffffffffffffffff8111156104cd576104cc610327565b5b6104d98582860161043a565b92505060206104ea85828601610486565b9150509250929050565b6104fd81610467565b82525050565b5f6020820190506105165f8301846104f4565b92915050565b5f82825260208201905092915050565b7f6e6f7065000000000000000000000000000000000000000000000000000000005f82015250565b5f61056060048361051c565b915061056b8261052c565b602082019050919050565b5f6020820190508181035f83015261058d81610554565b9050919050565b5f81519050919050565b7f4e487b71000000000000000000000000000000000000000000000000000000005f52602260045260245ffd5b5f60028204905060018216806105e257607f821691505b6020821081036105f5576105f461059e565b5b50919050565b5f819050815f5260205f209050919050565b5f6020601f8301049050919050565b5f82821b905092915050565b5f600883026106577fffffffffffffffffffffffffffffffffffffffffffffffffffffffffffffffff8261061c565b610661868361061c565b95508019841693508086168417925050509392505050565b5f819050919050565b5f61069c61069761069284610467565b610679565b610467565b9050919050565b5f819050919050565b6106b583610682565b6106c96106c1826106a3565b848454610628565b825550505050565b5f90565b6106dd6106d1565b6106e88184846106ac565b505050565b5b8181101561070b576107005f826106d5565b6001810190506106ee565b5050565b601f82111561075057610721816105fb565b61072a8461060d565b81016020851015610739578190505b61074d6107458561060d565b8301826106ed565b50505b505050565b5f82821c905092915050565b5f6107705f1984600802610755565b1980831691505092915050565b5f6107888383610761565b9150826002028217905092915050565b6107a182610594565b67ffffffffffffffff8111156107ba576107b9610343565b5b6107c482546105cb565b6107cf82828561070f565b5f60209050601f831160018114610800575f84156107ee578287015190505b6107f8858261077d565b86555061085f565b601f19841661080e866105fb565b5f5b8281101561083557848901518255600182019150602085019450602081019050610810565b86831015610852578489015161084e601f891682610761565b8355505b6001600288020188555050505b505050505050565b7f4e487b71000000000000000000000000000000000000000000000000000000005f52603260045260245ffd5b5f6060820190506108a75f8301866104f4565b6108b460208301856104f4565b6108c160408301846104f4565b949350505050565b5f815190506108d781610470565b92915050565b5f602082840312156108f2576108f1610323565b5b5f6108ff848285016108c9565b9150509291505056fea2646970667358221220fd5407762bdb2b93aaad3d494375eeea623eb62155c599aa484ca12e7e69b75a64736f6c634300081900336080604052348015600e575f80fd5b5061017c8061001c5f395ff3fe608060405234801561000f575f80fd5b5060043610610029575f3560e01c80639aca30ac1461002d575b5f80fd5b610047600480360381019061004291906100ce565b61005d565b604051610054919061012d565b60405180910390f35b5f8083851161007a578284116100735782610075565b835b61008a565b8285116100875782610089565b845b5b9050809150509392505050565b5f80fd5b5f819050919050565b6100ad8161009b565b81146100b7575f80fd5b50565b5f813590506100c8816100a4565b92915050565b5f805f606084860312156100e5576100e4610097565b5b5f6100f2868287016100ba565b9350506020610103868287016100ba565b9250506040610114868287016100ba565b9150509250925092565b6101278161009b565b82525050565b5f6020820190506101405f83018461011e565b9291505056fea26469706673582212201033169c94603622d4f1e324e695849646f710e1a94d7d08f7e970686bae51e364736f6c63430008190033",
			"opcodes": "PUSH1 0x80 PUSH1 0x40 MSTORE PUSH1 0x40 MLOAD PUSH1 0xE SWAP1 PUSH1 0x74 JUMP JUMPDEST PUSH1 0x40 MLOAD DUP1 SWAP2 SUB SWAP1 PUSH0 CREATE DUP1 ISZERO DUP1 ISZERO PUSH1 0x26 JUMPI RETURNDATASIZE PUSH0 DUP1 RETURNDATACOPY RETURNDATASIZE PUSH0 REVERT JUMPDEST POP PUSH0 DUP1 PUSH2 0x100 EXP DUP2 SLOAD DUP2 PUSH20 0xFFFFFFFFFFFFFFFFFFFFFFFFFFFFFFFFFFFFFFFF MUL NOT AND SWAP1 DUP4 PUSH20 0xFFFFFFFFFFFFFFFFFFFFFFFFFFFFFFFFFFFFFFFF AND MUL OR SWAP1 SSTORE POP CALLVALUE DUP1 ISZERO PUSH1 0x6F JUMPI PUSH0 DUP1 REVERT JUMPDEST POP PUSH1 0x81 JUMP JUMPDEST PUSH2 0x198 DUP1 PUSH2 0x9CC DUP4 CODECOPY ADD SWAP1 JUMP JUMPDEST PUSH2 0x93E DUP1 PUSH2 0x8E PUSH0 CODECOPY PUSH0 RETURN INVALID PUSH1 0x80 PUSH1 0x40 MSTORE CALLVALUE DUP1 ISZERO PUSH2 0xF JUMPI PUSH0 DUP1 REVERT JUMPDEST POP PUSH1 0x4 CALLDATASIZE LT PUSH2 0x3F JUMPI PUSH0 CALLDATALOAD PUSH1 0xE0 SHR DUP1 PUSH4 0x436E432B EQ PUSH2 0x43 JUMPI DUP1 PUSH4 0xC9C99663 EQ PUSH2 0x4D JUMPI DUP1 PUSH4 0xEFC0383F EQ PUSH2 0x69 JUMPI JUMPDEST PUSH0 DUP1 REVERT JUMPDEST PUSH2 0x4B PUSH2 0x87 JUMP JUMPDEST STOP JUMPDEST PUSH2 0x67 PUSH1 0x4 DUP1 CALLDATASIZE SUB DUP2 ADD SWAP1 PUSH2 0x62 SWAP2 SWAP1 PUSH2 0x49A JUMP JUMPDEST PUSH2 0x96 JUMP JUMPDEST STOP JUMPDEST PUSH2 0x71 PUSH2 0x154 JUMP JUMPDEST PUSH1 0x40 MLOAD PUSH2 0x7E SWAP2 SWAP1 PUSH2 0x503 JUMP JUMPDEST PUSH1 0x40 MLOAD DUP1 SWAP2 SUB SWAP1 RETURN JUMPDEST PUSH1 0x1 PUSH0 PUSH2 0x94 SWAP2 SWAP1 PUSH2 0x26E JUMP JUMPDEST JUMP JUMPDEST PUSH1 0x3 PUSH1 0x1 DUP1 SLOAD SWAP1 POP LT PUSH2 0xDE JUMPI PUSH1 0x40 MLOAD PUSH32 0x8C379A000000000000000000000000000000000000000000000000000000000 DUP2 MSTORE PUSH1 0x4 ADD PUSH2 0xD5 SWAP1 PUSH2 0x576 JUMP JUMPDEST PUSH1 0x40 MLOAD DUP1 SWAP2 SUB SWAP1 REVERT JUMPDEST PUSH1 0x1 PUSH1 0x40 MLOAD DUP1 PUSH1 0x60 ADD PUSH1 0x40 MSTORE DUP1 DUP5 DUP2 MSTORE PUSH1 0x20 ADD PUSH1 0x1 DUP1 SLOAD SWAP1 POP DUP2 MSTORE PUSH1 0x20 ADD DUP4 DUP2 MSTORE POP SWAP1 DUP1 PUSH1 0x1 DUP2 SLOAD ADD DUP1 DUP3 SSTORE DUP1 SWAP2 POP POP PUSH1 0x1 SWAP1 SUB SWAP1 PUSH0 MSTORE PUSH1 0x20 PUSH0 KECCAK256 SWAP1 PUSH1 0x3 MUL ADD PUSH0 SWAP1 SWAP2 SWAP1 SWAP2 SWAP1 SWAP2 POP PUSH0 DUP3 ADD MLOAD DUP2 PUSH0 ADD SWAP1 DUP2 PUSH2 0x139 SWAP2 SWAP1 PUSH2 0x798 JUMP JUMPDEST POP PUSH1 0x20 DUP3 ADD MLOAD DUP2 PUSH1 0x1 ADD SSTORE PUSH1 0x40 DUP3 ADD MLOAD DUP2 PUSH1 0x2 ADD SSTORE POP POP POP POP JUMP JUMPDEST PUSH0 DUP1 PUSH1 0x1 PUSH0 DUP2 SLOAD DUP2 LT PUSH2 0x16A JUMPI PUSH2 0x169 PUSH2 0x867 JUMP JUMPDEST JUMPDEST SWAP1 PUSH0 MSTORE PUSH1 0x20 PUSH0 KECCAK256 SWAP1 PUSH1 0x3 MUL ADD PUSH1 0x2 ADD SLOAD SWAP1 POP PUSH0 PUSH1 0x1 DUP1 DUP2 SLOAD DUP2 LT PUSH2 0x191 JUMPI PUSH2 0x190 PUSH2 0x867 JUMP JUMPDEST JUMPDEST SWAP1 PUSH0 MSTORE PUSH1 0x20 PUSH0 KECCAK256 SWAP1 PUSH1 0x3 MUL ADD PUSH1 0x2 ADD SLOAD SWAP1 POP PUSH0 PUSH1 0x1 PUSH1 0x2 DUP2 SLOAD DUP2 LT PUSH2 0x1B9 JUMPI PUSH2 0x1B8 PUSH2 0x867 JUMP JUMPDEST JUMPDEST SWAP1 PUSH0 MSTORE PUSH1 0x20 PUSH0 KECCAK256 SWAP1 PUSH1 0x3 MUL ADD PUSH1 0x2 ADD SLOAD SWAP1 POP PUSH0 DUP1 SLOAD SWAP1 PUSH2 0x100 EXP SWAP1 DIV PUSH20 0xFFFFFFFFFFFFFFFFFFFFFFFFFFFFFFFFFFFFFFFF AND PUSH20 0xFFFFFFFFFFFFFFFFFFFFFFFFFFFFFFFFFFFFFFFF AND PUSH4 0x9ACA30AC DUP5 DUP5 DUP5 PUSH1 0x40 MLOAD DUP5 PUSH4 0xFFFFFFFF AND PUSH1 0xE0 SHL DUP2 MSTORE PUSH1 0x4 ADD PUSH2 0x227 SWAP4 SWAP3 SWAP2 SWAP1 PUSH2 0x894 JUMP JUMPDEST PUSH1 0x20 PUSH1 0x40 MLOAD DUP1 DUP4 SUB DUP2 DUP7 GAS STATICCALL ISZERO DUP1 ISZERO PUSH2 0x242 JUMPI RETURNDATASIZE PUSH0 DUP1 RETURNDATACOPY RETURNDATASIZE PUSH0 REVERT JUMPDEST POP POP POP POP PUSH1 0x40 MLOAD RETURNDATASIZE PUSH1 0x1F NOT PUSH1 0x1F DUP3 ADD AND DUP3 ADD DUP1 PUSH1 0x40 MSTORE POP DUP2 ADD SWAP1 PUSH2 0x266 SWAP2 SWAP1 PUSH2 0x8DD JUMP JUMPDEST SWAP4 POP POP POP POP SWAP1 JUMP JUMPDEST POP DUP1 SLOAD PUSH0 DUP3 SSTORE PUSH1 0x3 MUL SWAP1 PUSH0 MSTORE PUSH1 0x20 PUSH0 KECCAK256 SWAP1 DUP2 ADD SWAP1 PUSH2 0x28C SWAP2 SWAP1 PUSH2 0x28F JUMP JUMPDEST POP JUMP JUMPDEST JUMPDEST DUP1 DUP3 GT ISZERO PUSH2 0x2BE JUMPI PUSH0 DUP1 DUP3 ADD PUSH0 PUSH2 0x2A7 SWAP2 SWAP1 PUSH2 0x2C2 JUMP JUMPDEST PUSH1 0x1 DUP3 ADD PUSH0 SWAP1 SSTORE PUSH1 0x2 DUP3 ADD PUSH0 SWAP1 SSTORE POP PUSH1 0x3 ADD PUSH2 0x290 JUMP JUMPDEST POP SWAP1 JUMP JUMPDEST POP DUP1 SLOAD PUSH2 0x2CE SWAP1 PUSH2 0x5CB JUMP JUMPDEST PUSH0 DUP3 SSTORE DUP1 PUSH1 0x1F LT PUSH2 0x2DF JUMPI POP PUSH2 0x2FC JUMP JUMPDEST PUSH1 0x1F ADD PUSH1 0x20 SWAP1 DIV SWAP1 PUSH0 MSTORE PUSH1 0x20 PUSH0 KECCAK256 SWAP1 DUP2 ADD SWAP1 PUSH2 0x2FB SWAP2 SWAP1 PUSH2 0x2FF JUMP JUMPDEST JUMPDEST POP JUMP JUMPDEST JUMPDEST DUP1 DUP3 GT ISZERO PUSH2 0x316 JUMPI PUSH0 DUP2 PUSH0 SWAP1 SSTORE POP PUSH1 0x1 ADD PUSH2 0x300 JUMP JUMPDEST POP SWAP1 JUMP JUMPDEST PUSH0 PUSH1 0x40 MLOAD SWAP1 POP SWAP1 JUMP JUMPDEST PUSH0 DUP1 REVERT JUMPDEST PUSH0 DUP1 REVERT JUMPDEST PUSH0 DUP1 REVERT JUMPDEST PUSH0 DUP1 REVERT JUMPDEST PUSH0 PUSH1 0x1F NOT PUSH1 0x1F DUP4 ADD AND SWAP1 POP SWAP2 SWAP1 POP JUMP JUMPDEST PUSH32 0x4E487B7100000000000000000000000000000000000000000000000000000000 PUSH0 MSTORE PUSH1 0x41 PUSH1 0x4 MSTORE PUSH1 0x24 PUSH0 REVERT JUMPDEST PUSH2 0x379 DUP3 PUSH2 0x333 JUMP JUMPDEST DUP2 ADD DUP2 DUP2 LT PUSH8 0xFFFFFFFFFFFFFFFF DUP3 GT OR ISZERO PUSH2 0x398 JUMPI PUSH2 0x397 PUSH2 0x343 JUMP JUMPDEST JUMPDEST DUP1 PUSH1 0x40 MSTORE POP POP POP JUMP JUMPDEST PUSH0 PUSH2 0x3AA PUSH2 0x31A JUMP JUMPDEST SWAP1 POP PUSH2 0x3B6 DUP3 DUP3 PUSH2 0x370 JUMP JUMPDEST SWAP2 SWAP1 POP JUMP JUMPDEST PUSH0 PUSH8 0xFFFFFFFFFFFFFFFF DUP3 GT ISZERO PUSH2 0x3D5 JUMPI PUSH2 0x3D4 PUSH2 0x343 JUMP JUMPDEST JUMPDEST PUSH2 0x3DE DUP3 PUSH2 0x333 JUMP JUMPDEST SWAP1 POP PUSH1 0x20 DUP2 ADD SWAP1 POP SWAP2 SWAP1 POP JUMP JUMPDEST DUP3 DUP2 DUP4 CALLDATACOPY PUSH0 DUP4 DUP4 ADD MSTORE POP POP POP JUMP JUMPDEST PUSH0 PUSH2 0x40B PUSH2 0x406 DUP5 PUSH2 0x3BB JUMP JUMPDEST PUSH2 0x3A1 JUMP JUMPDEST SWAP1 POP DUP3 DUP2 MSTORE PUSH1 0x20 DUP2 ADD DUP5 DUP5 DUP5 ADD GT ISZERO PUSH2 0x427 JUMPI PUSH2 0x426 PUSH2 0x32F JUMP JUMPDEST JUMPDEST PUSH2 0x432 DUP5 DUP3 DUP6 PUSH2 0x3EB JUMP JUMPDEST POP SWAP4 SWAP3 POP POP POP JUMP JUMPDEST PUSH0 DUP3 PUSH1 0x1F DUP4 ADD SLT PUSH2 0x44E JUMPI PUSH2 0x44D PUSH2 0x32B JUMP JUMPDEST JUMPDEST DUP2 CALLDATALOAD PUSH2 0x45E DUP5 DUP3 PUSH1 0x20 DUP7 ADD PUSH2 0x3F9 JUMP JUMPDEST SWAP2 POP POP SWAP3 SWAP2 POP POP JUMP JUMPDEST PUSH0 DUP2 SWAP1 POP SWAP2 SWAP1 POP JUMP JUMPDEST PUSH2 0x479 DUP2 PUSH2 0x467 JUMP JUMPDEST DUP2 EQ PUSH2 0x483 JUMPI PUSH0 DUP1 REVERT JUMPDEST POP JUMP JUMPDEST PUSH0 DUP2 CALLDATALOAD SWAP1 POP PUSH2 0x494 DUP2 PUSH2 0x470 JUMP JUMPDEST SWAP3 SWAP2 POP POP JUMP JUMPDEST PUSH0 DUP1 PUSH1 0x40 DUP4 DUP6 SUB SLT ISZERO PUSH2 0x4B0 JUMPI PUSH2 0x4AF PUSH2 0x323 JUMP JUMPDEST JUMPDEST PUSH0 DUP4 ADD CALLDATALOAD PUSH8 0xFFFFFFFFFFFFFFFF DUP2 GT ISZERO PUSH2 0x4CD JUMPI PUSH2 0x4CC PUSH2 0x327 JUMP JUMPDEST JUMPDEST PUSH2 0x4D9 DUP6 DUP3 DUP7 ADD PUSH2 0x43A JUMP JUMPDEST SWAP3 POP POP PUSH1 0x20 PUSH2 0x4EA DUP6 DUP3 DUP7 ADD PUSH2 0x486 JUMP JUMPDEST SWAP2 POP POP SWAP3 POP SWAP3 SWAP1 POP JUMP JUMPDEST PUSH2 0x4FD DUP2 PUSH2 0x467 JUMP JUMPDEST DUP3 MSTORE POP POP JUMP JUMPDEST PUSH0 PUSH1 0x20 DUP3 ADD SWAP1 POP PUSH2 0x516 PUSH0 DUP4 ADD DUP5 PUSH2 0x4F4 JUMP JUMPDEST SWAP3 SWAP2 POP POP JUMP JUMPDEST PUSH0 DUP3 DUP3 MSTORE PUSH1 0x20 DUP3 ADD SWAP1 POP SWAP3 SWAP2 POP POP JUMP JUMPDEST PUSH32 0x6E6F706500000000000000000000000000000000000000000000000000000000 PUSH0 DUP3 ADD MSTORE POP JUMP JUMPDEST PUSH0 PUSH2 0x560 PUSH1 0x4 DUP4 PUSH2 0x51C JUMP JUMPDEST SWAP2 POP PUSH2 0x56B DUP3 PUSH2 0x52C JUMP JUMPDEST PUSH1 0x20 DUP3 ADD SWAP1 POP SWAP2 SWAP1 POP JUMP JUMPDEST PUSH0 PUSH1 0x20 DUP3 ADD SWAP1 POP DUP2 DUP2 SUB PUSH0 DUP4 ADD MSTORE PUSH2 0x58D DUP2 PUSH2 0x554 JUMP JUMPDEST SWAP1 POP SWAP2 SWAP1 POP JUMP JUMPDEST PUSH0 DUP2 MLOAD SWAP1 POP SWAP2 SWAP1 POP JUMP JUMPDEST PUSH32 0x4E487B7100000000000000000000000000000000000000000000000000000000 PUSH0 MSTORE PUSH1 0x22 PUSH1 0x4 MSTORE PUSH1 0x24 PUSH0 REVERT JUMPDEST PUSH0 PUSH1 0x2 DUP3 DIV SWAP1 POP PUSH1 0x1 DUP3 AND DUP1 PUSH2 0x5E2 JUMPI PUSH1 0x7F DUP3 AND SWAP2 POP JUMPDEST PUSH1 0x20 DUP3 LT DUP2 SUB PUSH2 0x5F5 JUMPI PUSH2 0x5F4 PUSH2 0x59E JUMP JUMPDEST JUMPDEST POP SWAP2 SWAP1 POP JUMP JUMPDEST PUSH0 DUP2 SWAP1 POP DUP2 PUSH0 MSTORE PUSH1 0x20 PUSH0 KECCAK256 SWAP1 POP SWAP2 SWAP1 POP JUMP JUMPDEST PUSH0 PUSH1 0x20 PUSH1 0x1F DUP4 ADD DIV SWAP1 POP SWAP2 SWAP1 POP JUMP JUMPDEST PUSH0 DUP3 DUP3 SHL SWAP1 POP SWAP3 SWAP2 POP POP JUMP JUMPDEST PUSH0 PUSH1 0x8 DUP4 MUL PUSH2 0x657 PUSH32 0xFFFFFFFFFFFFFFFFFFFFFFFFFFFFFFFFFFFFFFFFFFFFFFFFFFFFFFFFFFFFFFFF DUP3 PUSH2 0x61C JUMP JUMPDEST PUSH2 0x661 DUP7 DUP4 PUSH2 0x61C JUMP JUMPDEST SWAP6 POP DUP1 NOT DUP5 AND SWAP4 POP DUP1 DUP7 AND DUP5 OR SWAP3 POP POP POP SWAP4 SWAP3 POP POP POP JUMP JUMPDEST PUSH0 DUP2 SWAP1 POP SWAP2 SWAP1 POP JUMP JUMPDEST PUSH0 PUSH2 0x69C PUSH2 0x697 PUSH2 0x692 DUP5 PUSH2 0x467 JUMP JUMPDEST PUSH2 0x679 JUMP JUMPDEST PUSH2 0x467 JUMP JUMPDEST SWAP1 POP SWAP2 SWAP1 POP JUMP JUMPDEST PUSH0 DUP2 SWAP1 POP SWAP2 SWAP1 POP JUMP JUMPDEST PUSH2 0x6B5 DUP4 PUSH2 0x682 JUMP JUMPDEST PUSH2 0x6C9 PUSH2 0x6C1 DUP3 PUSH2 0x6A3 JUMP JUMPDEST DUP5 DUP5 SLOAD PUSH2 0x628 JUMP JUMPDEST DUP3 SSTORE POP POP POP POP JUMP JUMPDEST PUSH0 SWAP1 JUMP JUMPDEST PUSH2 0x6DD PUSH2 0x6D1 JUMP JUMPDEST PUSH2 0x6E8 DUP2 DUP5 DUP5 PUSH2 0x6AC JUMP JUMPDEST POP POP POP JUMP JUMPDEST JUMPDEST DUP2 DUP2 LT ISZERO PUSH2 0x70B JUMPI PUSH2 0x700 PUSH0 DUP3 PUSH2 0x6D5 JUMP JUMPDEST PUSH1 0x1 DUP2 ADD SWAP1 POP PUSH2 0x6EE JUMP JUMPDEST POP POP JUMP JUMPDEST PUSH1 0x1F DUP3 GT ISZERO PUSH2 0x750 JUMPI PUSH2 0x721 DUP2 PUSH2 0x5FB JUMP JUMPDEST PUSH2 0x72A DUP5 PUSH2 0x60D JUMP JUMPDEST DUP2 ADD PUSH1 0x20 DUP6 LT ISZERO PUSH2 0x739 JUMPI DUP2 SWAP1 POP JUMPDEST PUSH2 0x74D PUSH2 0x745 DUP6 PUSH2 0x60D JUMP JUMPDEST DUP4 ADD DUP3 PUSH2 0x6ED JUMP JUMPDEST POP POP JUMPDEST POP POP POP JUMP JUMPDEST PUSH0 DUP3 DUP3 SHR SWAP1 POP SWAP3 SWAP2 POP POP JUMP JUMPDEST PUSH0 PUSH2 0x770 PUSH0 NOT DUP5 PUSH1 0x8 MUL PUSH2 0x755 JUMP JUMPDEST NOT DUP1 DUP4 AND SWAP2 POP POP SWAP3 SWAP2 POP POP JUMP JUMPDEST PUSH0 PUSH2 0x788 DUP4 DUP4 PUSH2 0x761 JUMP JUMPDEST SWAP2 POP DUP3 PUSH1 0x2 MUL DUP3 OR SWAP1 POP SWAP3 SWAP2 POP POP JUMP JUMPDEST PUSH2 0x7A1 DUP3 PUSH2 0x594 JUMP JUMPDEST PUSH8 0xFFFFFFFFFFFFFFFF DUP2 GT ISZERO PUSH2 0x7BA JUMPI PUSH2 0x7B9 PUSH2 0x343 JUMP JUMPDEST JUMPDEST PUSH2 0x7C4 DUP3 SLOAD PUSH2 0x5CB JUMP JUMPDEST PUSH2 0x7CF DUP3 DUP3 DUP6 PUSH2 0x70F JUMP JUMPDEST PUSH0 PUSH1 0x20 SWAP1 POP PUSH1 0x1F DUP4 GT PUSH1 0x1 DUP2 EQ PUSH2 0x800 JUMPI PUSH0 DUP5 ISZERO PUSH2 0x7EE JUMPI DUP3 DUP8 ADD MLOAD SWAP1 POP JUMPDEST PUSH2 0x7F8 DUP6 DUP3 PUSH2 0x77D JUMP JUMPDEST DUP7 SSTORE POP PUSH2 0x85F JUMP JUMPDEST PUSH1 0x1F NOT DUP5 AND PUSH2 0x80E DUP7 PUSH2 0x5FB JUMP JUMPDEST PUSH0 JUMPDEST DUP3 DUP2 LT ISZERO PUSH2 0x835 JUMPI DUP5 DUP10 ADD MLOAD DUP3 SSTORE PUSH1 0x1 DUP3 ADD SWAP2 POP PUSH1 0x20 DUP6 ADD SWAP5 POP PUSH1 0x20 DUP2 ADD SWAP1 POP PUSH2 0x810 JUMP JUMPDEST DUP7 DUP4 LT ISZERO PUSH2 0x852 JUMPI DUP5 DUP10 ADD MLOAD PUSH2 0x84E PUSH1 0x1F DUP10 AND DUP3 PUSH2 0x761 JUMP JUMPDEST DUP4 SSTORE POP JUMPDEST PUSH1 0x1 PUSH1 0x2 DUP9 MUL ADD DUP9 SSTORE POP POP POP JUMPDEST POP POP POP POP POP POP JUMP JUMPDEST PUSH32 0x4E487B7100000000000000000000000000000000000000000000000000000000 PUSH0 MSTORE PUSH1 0x32 PUSH1 0x4 MSTORE PUSH1 0x24 PUSH0 REVERT JUMPDEST PUSH0 PUSH1 0x60 DUP3 ADD SWAP1 POP PUSH2 0x8A7 PUSH0 DUP4 ADD DUP7 PUSH2 0x4F4 JUMP JUMPDEST PUSH2 0x8B4 PUSH1 0x20 DUP4 ADD DUP6 PUSH2 0x4F4 JUMP JUMPDEST PUSH2 0x8C1 PUSH1 0x40 DUP4 ADD DUP5 PUSH2 0x4F4 JUMP JUMPDEST SWAP5 SWAP4 POP POP POP POP JUMP JUMPDEST PUSH0 DUP2 MLOAD SWAP1 POP PUSH2 0x8D7 DUP2 PUSH2 0x470 JUMP JUMPDEST SWAP3 SWAP2 POP POP JUMP JUMPDEST PUSH0 PUSH1 0x20 DUP3 DUP5 SUB SLT ISZERO PUSH2 0x8F2 JUMPI PUSH2 0x8F1 PUSH2 0x323 JUMP JUMPDEST JUMPDEST PUSH0 PUSH2 0x8FF DUP5 DUP3 DUP6 ADD PUSH2 0x8C9 JUMP JUMPDEST SWAP2 POP POP SWAP3 SWAP2 POP POP JUMP INVALID LOG2 PUSH5 0x6970667358 0x22 SLT KECCAK256 REVERT SLOAD SMOD PUSH23 0x2BDB2B93AAAD3D494375EEEA623EB62155C599AA484CA1 0x2E PUSH31 0x69B75A64736F6C634300081900336080604052348015600E575F80FD5B5061 ADD PUSH29 0x8061001C5F395FF3FE608060405234801561000F575F80FD5B50600436 LT PUSH2 0x29 JUMPI PUSH0 CALLDATALOAD PUSH1 0xE0 SHR DUP1 PUSH4 0x9ACA30AC EQ PUSH2 0x2D JUMPI JUMPDEST PUSH0 DUP1 REVERT JUMPDEST PUSH2 0x47 PUSH1 0x4 DUP1 CALLDATASIZE SUB DUP2 ADD SWAP1 PUSH2 0x42 SWAP2 SWAP1 PUSH2 0xCE JUMP JUMPDEST PUSH2 0x5D JUMP JUMPDEST PUSH1 0x40 MLOAD PUSH2 0x54 SWAP2 SWAP1 PUSH2 0x12D JUMP JUMPDEST PUSH1 0x40 MLOAD DUP1 SWAP2 SUB SWAP1 RETURN JUMPDEST PUSH0 DUP1 DUP4 DUP6 GT PUSH2 0x7A JUMPI DUP3 DUP5 GT PUSH2 0x73 JUMPI DUP3 PUSH2 0x75 JUMP JUMPDEST DUP4 JUMPDEST PUSH2 0x8A JUMP JUMPDEST DUP3 DUP6 GT PUSH2 0x87 JUMPI DUP3 PUSH2 0x89 JUMP JUMPDEST DUP5 JUMPDEST JUMPDEST SWAP1 POP DUP1 SWAP2 POP POP SWAP4 SWAP3 POP POP POP JUMP JUMPDEST PUSH0 DUP1 REVERT JUMPDEST PUSH0 DUP2 SWAP1 POP SWAP2 SWAP1 POP JUMP JUMPDEST PUSH2 0xAD DUP2 PUSH2 0x9B JUMP JUMPDEST DUP2 EQ PUSH2 0xB7 JUMPI PUSH0 DUP1 REVERT JUMPDEST POP JUMP JUMPDEST PUSH0 DUP2 CALLDATALOAD SWAP1 POP PUSH2 0xC8 DUP2 PUSH2 0xA4 JUMP JUMPDEST SWAP3 SWAP2 POP POP JUMP JUMPDEST PUSH0 DUP1 PUSH0 PUSH1 0x60 DUP5 DUP7 SUB SLT ISZERO PUSH2 0xE5 JUMPI PUSH2 0xE4 PUSH2 0x97 JUMP JUMPDEST JUMPDEST PUSH0 PUSH2 0xF2 DUP7 DUP3 DUP8 ADD PUSH2 0xBA JUMP JUMPDEST SWAP4 POP POP PUSH1 0x20 PUSH2 0x103 DUP7 DUP3 DUP8 ADD PUSH2 0xBA JUMP JUMPDEST SWAP3 POP POP PUSH1 0x40 PUSH2 0x114 DUP7 DUP3 DUP8 ADD PUSH2 0xBA JUMP JUMPDEST SWAP2 POP POP SWAP3 POP SWAP3 POP SWAP3 JUMP JUMPDEST PUSH2 0x127 DUP2 PUSH2 0x9B JUMP JUMPDEST DUP3 MSTORE POP POP JUMP JUMPDEST PUSH0 PUSH1 0x20 DUP3 ADD SWAP1 POP PUSH2 0x140 PUSH0 DUP4 ADD DUP5 PUSH2 0x11E JUMP JUMPDEST SWAP3 SWAP2 POP POP JUMP INVALID LOG2 PUSH5 0x6970667358 0x22 SLT KECCAK256 LT CALLER AND SWAP13 SWAP5 PUSH1 0x36 0x22 0xD4 CALL 0xE3 0x24 0xE6 SWAP6 DUP5 SWAP7 CHAINID 0xF7 LT 0xE1 0xA9 0x4D PUSH30 0x8F7E970686BAE51E364736F6C6343000819003300000000000000000000 "
		},
		"gasEstimates": {
			"creation": {
				"codeDepositCost": "473200",
				"executionCost": "infinite",
				"totalCost": "infinite"
			},
			"external": {
				"bestS()": "infinite",
				"deleteS()": "infinite",
				"setS(string,uint256)": "infinite"
			}
		},
		"methodIdentifiers": {
			"bestS()": "efc0383f",
			"deleteS()": "436e432b",
			"setS(string,uint256)": "c9c99663"
		}
	},
	"abi": [
		{
			"inputs": [],
			"name": "bestS",
			"outputs": [
				{
					"internalType": "uint256",
					"name": "",
					"type": "uint256"
				}
			],
			"stateMutability": "view",
			"type": "function"
		},
		{
			"inputs": [],
			"name": "deleteS",
			"outputs": [],
			"stateMutability": "nonpayable",
			"type": "function"
		},
		{
			"inputs": [
				{
					"internalType": "string",
					"name": "_name",
					"type": "string"
				},
				{
					"internalType": "uint256",
					"name": "_score",
					"type": "uint256"
				}
			],
			"name": "setS",
			"outputs": [],
			"stateMutability": "nonpayable",
			"type": "function"
		}
	]
}