{
	"data": {
		"bytecode": {
			"linkReferences": {},
			"object": "6080604052348015600e575f80fd5b506108ad8061001c5f395ff3fe608060405234801561000f575f80fd5b5060043610610029575f3560e01c8063ae0cc94f1461002d575b5f80fd5b610047600480360381019061004291906103f2565b61005d565b604051610054919061046d565b60405180910390f35b5f60405160200161006d906104da565b60405160208183030381529060405280519060200120826040516020016100949190610536565b60405160208183030381529060405280519060200120036100c25782846100bb9190610579565b905061026b565b6040516020016100d1906105f6565b60405160208183030381529060405280519060200120826040516020016100f89190610536565b604051602081830303815290604052805190602001200361012657828461011f919061060a565b905061026b565b60405160200161013590610687565b604051602081830303815290604052805190602001208260405160200161015c9190610536565b604051602081830303815290604052805190602001200361018a578284610183919061069b565b905061026b565b60405160200161019990610726565b60405160208183030381529060405280519060200120826040516020016101c09190610536565b6040516020818303038152906040528051906020012003610230575f830361021d576040517f08c379a000000000000000000000000000000000000000000000000000000000815260040161021490610794565b60405180910390fd5b828461022991906107df565b905061026b565b6040517f08c379a000000000000000000000000000000000000000000000000000000000815260040161026290610859565b60405180910390fd5b9392505050565b5f604051905090565b5f80fd5b5f80fd5b5f819050919050565b61029581610283565b811461029f575f80fd5b50565b5f813590506102b08161028c565b92915050565b5f80fd5b5f80fd5b5f601f19601f8301169050919050565b7f4e487b71000000000000000000000000000000000000000000000000000000005f52604160045260245ffd5b610304826102be565b810181811067ffffffffffffffff82111715610323576103226102ce565b5b80604052505050565b5f610335610272565b905061034182826102fb565b919050565b5f67ffffffffffffffff8211156103605761035f6102ce565b5b610369826102be565b9050602081019050919050565b828183375f83830152505050565b5f61039661039184610346565b61032c565b9050828152602081018484840111156103b2576103b16102ba565b5b6103bd848285610376565b509392505050565b5f82601f8301126103d9576103d86102b6565b5b81356103e9848260208601610384565b91505092915050565b5f805f606084860312156104095761040861027b565b5b5f610416868287016102a2565b9350506020610427868287016102a2565b925050604084013567ffffffffffffffff8111156104485761044761027f565b5b610454868287016103c5565b9150509250925092565b61046781610283565b82525050565b5f6020820190506104805f83018461045e565b92915050565b5f81905092915050565b7f2b000000000000000000000000000000000000000000000000000000000000005f82015250565b5f6104c4600183610486565b91506104cf82610490565b600182019050919050565b5f6104e4826104b8565b9150819050919050565b5f81519050919050565b8281835e5f83830152505050565b5f610510826104ee565b61051a8185610486565b935061052a8185602086016104f8565b80840191505092915050565b5f6105418284610506565b915081905092915050565b7f4e487b71000000000000000000000000000000000000000000000000000000005f52601160045260245ffd5b5f61058382610283565b915061058e83610283565b92508282019050808211156105a6576105a561054c565b5b92915050565b7f2d000000000000000000000000000000000000000000000000000000000000005f82015250565b5f6105e0600183610486565b91506105eb826105ac565b600182019050919050565b5f610600826105d4565b9150819050919050565b5f61061482610283565b915061061f83610283565b92508282039050818111156106375761063661054c565b5b92915050565b7f2a000000000000000000000000000000000000000000000000000000000000005f82015250565b5f610671600183610486565b915061067c8261063d565b600182019050919050565b5f61069182610665565b9150819050919050565b5f6106a582610283565b91506106b083610283565b92508282026106be81610283565b915082820484148315176106d5576106d461054c565b5b5092915050565b7f2f000000000000000000000000000000000000000000000000000000000000005f82015250565b5f610710600183610486565b915061071b826106dc565b600182019050919050565b5f61073082610704565b9150819050919050565b5f82825260208201905092915050565b7f4469766973696f6e206279207a65726f000000000000000000000000000000005f82015250565b5f61077e60108361073a565b91506107898261074a565b602082019050919050565b5f6020820190508181035f8301526107ab81610772565b9050919050565b7f4e487b71000000000000000000000000000000000000000000000000000000005f52601260045260245ffd5b5f6107e982610283565b91506107f483610283565b925082610804576108036107b2565b5b828204905092915050565b7f496e76616c6964206f7065726174696f6e0000000000000000000000000000005f82015250565b5f61084360118361073a565b915061084e8261080f565b602082019050919050565b5f6020820190508181035f83015261087081610837565b905091905056fea264697066735822122005a4afdbdac0bed155ca03f140d03b622e3273599289b81fb04e9375a998f70264736f6c63430008190033",
			"opcodes": "PUSH1 0x80 PUSH1 0x40 MSTORE CALLVALUE DUP1 ISZERO PUSH1 0xE JUMPI PUSH0 DUP1 REVERT JUMPDEST POP PUSH2 0x8AD DUP1 PUSH2 0x1C PUSH0 CODECOPY PUSH0 RETURN INVALID PUSH1 0x80 PUSH1 0x40 MSTORE CALLVALUE DUP1 ISZERO PUSH2 0xF JUMPI PUSH0 DUP1 REVERT JUMPDEST POP PUSH1 0x4 CALLDATASIZE LT PUSH2 0x29 JUMPI PUSH0 CALLDATALOAD PUSH1 0xE0 SHR DUP1 PUSH4 0xAE0CC94F EQ PUSH2 0x2D JUMPI JUMPDEST PUSH0 DUP1 REVERT JUMPDEST PUSH2 0x47 PUSH1 0x4 DUP1 CALLDATASIZE SUB DUP2 ADD SWAP1 PUSH2 0x42 SWAP2 SWAP1 PUSH2 0x3F2 JUMP JUMPDEST PUSH2 0x5D JUMP JUMPDEST PUSH1 0x40 MLOAD PUSH2 0x54 SWAP2 SWAP1 PUSH2 0x46D JUMP JUMPDEST PUSH1 0x40 MLOAD DUP1 SWAP2 SUB SWAP1 RETURN JUMPDEST PUSH0 PUSH1 0x40 MLOAD PUSH1 0x20 ADD PUSH2 0x6D SWAP1 PUSH2 0x4DA JUMP JUMPDEST PUSH1 0x40 MLOAD PUSH1 0x20 DUP2 DUP4 SUB SUB DUP2 MSTORE SWAP1 PUSH1 0x40 MSTORE DUP1 MLOAD SWAP1 PUSH1 0x20 ADD KECCAK256 DUP3 PUSH1 0x40 MLOAD PUSH1 0x20 ADD PUSH2 0x94 SWAP2 SWAP1 PUSH2 0x536 JUMP JUMPDEST PUSH1 0x40 MLOAD PUSH1 0x20 DUP2 DUP4 SUB SUB DUP2 MSTORE SWAP1 PUSH1 0x40 MSTORE DUP1 MLOAD SWAP1 PUSH1 0x20 ADD KECCAK256 SUB PUSH2 0xC2 JUMPI DUP3 DUP5 PUSH2 0xBB SWAP2 SWAP1 PUSH2 0x579 JUMP JUMPDEST SWAP1 POP PUSH2 0x26B JUMP JUMPDEST PUSH1 0x40 MLOAD PUSH1 0x20 ADD PUSH2 0xD1 SWAP1 PUSH2 0x5F6 JUMP JUMPDEST PUSH1 0x40 MLOAD PUSH1 0x20 DUP2 DUP4 SUB SUB DUP2 MSTORE SWAP1 PUSH1 0x40 MSTORE DUP1 MLOAD SWAP1 PUSH1 0x20 ADD KECCAK256 DUP3 PUSH1 0x40 MLOAD PUSH1 0x20 ADD PUSH2 0xF8 SWAP2 SWAP1 PUSH2 0x536 JUMP JUMPDEST PUSH1 0x40 MLOAD PUSH1 0x20 DUP2 DUP4 SUB SUB DUP2 MSTORE SWAP1 PUSH1 0x40 MSTORE DUP1 MLOAD SWAP1 PUSH1 0x20 ADD KECCAK256 SUB PUSH2 0x126 JUMPI DUP3 DUP5 PUSH2 0x11F SWAP2 SWAP1 PUSH2 0x60A JUMP JUMPDEST SWAP1 POP PUSH2 0x26B JUMP JUMPDEST PUSH1 0x40 MLOAD PUSH1 0x20 ADD PUSH2 0x135 SWAP1 PUSH2 0x687 JUMP JUMPDEST PUSH1 0x40 MLOAD PUSH1 0x20 DUP2 DUP4 SUB SUB DUP2 MSTORE SWAP1 PUSH1 0x40 MSTORE DUP1 MLOAD SWAP1 PUSH1 0x20 ADD KECCAK256 DUP3 PUSH1 0x40 MLOAD PUSH1 0x20 ADD PUSH2 0x15C SWAP2 SWAP1 PUSH2 0x536 JUMP JUMPDEST PUSH1 0x40 MLOAD PUSH1 0x20 DUP2 DUP4 SUB SUB DUP2 MSTORE SWAP1 PUSH1 0x40 MSTORE DUP1 MLOAD SWAP1 PUSH1 0x20 ADD KECCAK256 SUB PUSH2 0x18A JUMPI DUP3 DUP5 PUSH2 0x183 SWAP2 SWAP1 PUSH2 0x69B JUMP JUMPDEST SWAP1 POP PUSH2 0x26B JUMP JUMPDEST PUSH1 0x40 MLOAD PUSH1 0x20 ADD PUSH2 0x199 SWAP1 PUSH2 0x726 JUMP JUMPDEST PUSH1 0x40 MLOAD PUSH1 0x20 DUP2 DUP4 SUB SUB DUP2 MSTORE SWAP1 PUSH1 0x40 MSTORE DUP1 MLOAD SWAP1 PUSH1 0x20 ADD KECCAK256 DUP3 PUSH1 0x40 MLOAD PUSH1 0x20 ADD PUSH2 0x1C0 SWAP2 SWAP1 PUSH2 0x536 JUMP JUMPDEST PUSH1 0x40 MLOAD PUSH1 0x20 DUP2 DUP4 SUB SUB DUP2 MSTORE SWAP1 PUSH1 0x40 MSTORE DUP1 MLOAD SWAP1 PUSH1 0x20 ADD KECCAK256 SUB PUSH2 0x230 JUMPI PUSH0 DUP4 SUB PUSH2 0x21D JUMPI PUSH1 0x40 MLOAD PUSH32 0x8C379A000000000000000000000000000000000000000000000000000000000 DUP2 MSTORE PUSH1 0x4 ADD PUSH2 0x214 SWAP1 PUSH2 0x794 JUMP JUMPDEST PUSH1 0x40 MLOAD DUP1 SWAP2 SUB SWAP1 REVERT JUMPDEST DUP3 DUP5 PUSH2 0x229 SWAP2 SWAP1 PUSH2 0x7DF JUMP JUMPDEST SWAP1 POP PUSH2 0x26B JUMP JUMPDEST PUSH1 0x40 MLOAD PUSH32 0x8C379A000000000000000000000000000000000000000000000000000000000 DUP2 MSTORE PUSH1 0x4 ADD PUSH2 0x262 SWAP1 PUSH2 0x859 JUMP JUMPDEST PUSH1 0x40 MLOAD DUP1 SWAP2 SUB SWAP1 REVERT JUMPDEST SWAP4 SWAP3 POP POP POP JUMP JUMPDEST PUSH0 PUSH1 0x40 MLOAD SWAP1 POP SWAP1 JUMP JUMPDEST PUSH0 DUP1 REVERT JUMPDEST PUSH0 DUP1 REVERT JUMPDEST PUSH0 DUP2 SWAP1 POP SWAP2 SWAP1 POP JUMP JUMPDEST PUSH2 0x295 DUP2 PUSH2 0x283 JUMP JUMPDEST DUP2 EQ PUSH2 0x29F JUMPI PUSH0 DUP1 REVERT JUMPDEST POP JUMP JUMPDEST PUSH0 DUP2 CALLDATALOAD SWAP1 POP PUSH2 0x2B0 DUP2 PUSH2 0x28C JUMP JUMPDEST SWAP3 SWAP2 POP POP JUMP JUMPDEST PUSH0 DUP1 REVERT JUMPDEST PUSH0 DUP1 REVERT JUMPDEST PUSH0 PUSH1 0x1F NOT PUSH1 0x1F DUP4 ADD AND SWAP1 POP SWAP2 SWAP1 POP JUMP JUMPDEST PUSH32 0x4E487B7100000000000000000000000000000000000000000000000000000000 PUSH0 MSTORE PUSH1 0x41 PUSH1 0x4 MSTORE PUSH1 0x24 PUSH0 REVERT JUMPDEST PUSH2 0x304 DUP3 PUSH2 0x2BE JUMP JUMPDEST DUP2 ADD DUP2 DUP2 LT PUSH8 0xFFFFFFFFFFFFFFFF DUP3 GT OR ISZERO PUSH2 0x323 JUMPI PUSH2 0x322 PUSH2 0x2CE JUMP JUMPDEST JUMPDEST DUP1 PUSH1 0x40 MSTORE POP POP POP JUMP JUMPDEST PUSH0 PUSH2 0x335 PUSH2 0x272 JUMP JUMPDEST SWAP1 POP PUSH2 0x341 DUP3 DUP3 PUSH2 0x2FB JUMP JUMPDEST SWAP2 SWAP1 POP JUMP JUMPDEST PUSH0 PUSH8 0xFFFFFFFFFFFFFFFF DUP3 GT ISZERO PUSH2 0x360 JUMPI PUSH2 0x35F PUSH2 0x2CE JUMP JUMPDEST JUMPDEST PUSH2 0x369 DUP3 PUSH2 0x2BE JUMP JUMPDEST SWAP1 POP PUSH1 0x20 DUP2 ADD SWAP1 POP SWAP2 SWAP1 POP JUMP JUMPDEST DUP3 DUP2 DUP4 CALLDATACOPY PUSH0 DUP4 DUP4 ADD MSTORE POP POP POP JUMP JUMPDEST PUSH0 PUSH2 0x396 PUSH2 0x391 DUP5 PUSH2 0x346 JUMP JUMPDEST PUSH2 0x32C JUMP JUMPDEST SWAP1 POP DUP3 DUP2 MSTORE PUSH1 0x20 DUP2 ADD DUP5 DUP5 DUP5 ADD GT ISZERO PUSH2 0x3B2 JUMPI PUSH2 0x3B1 PUSH2 0x2BA JUMP JUMPDEST JUMPDEST PUSH2 0x3BD DUP5 DUP3 DUP6 PUSH2 0x376 JUMP JUMPDEST POP SWAP4 SWAP3 POP POP POP JUMP JUMPDEST PUSH0 DUP3 PUSH1 0x1F DUP4 ADD SLT PUSH2 0x3D9 JUMPI PUSH2 0x3D8 PUSH2 0x2B6 JUMP JUMPDEST JUMPDEST DUP2 CALLDATALOAD PUSH2 0x3E9 DUP5 DUP3 PUSH1 0x20 DUP7 ADD PUSH2 0x384 JUMP JUMPDEST SWAP2 POP POP SWAP3 SWAP2 POP POP JUMP JUMPDEST PUSH0 DUP1 PUSH0 PUSH1 0x60 DUP5 DUP7 SUB SLT ISZERO PUSH2 0x409 JUMPI PUSH2 0x408 PUSH2 0x27B JUMP JUMPDEST JUMPDEST PUSH0 PUSH2 0x416 DUP7 DUP3 DUP8 ADD PUSH2 0x2A2 JUMP JUMPDEST SWAP4 POP POP PUSH1 0x20 PUSH2 0x427 DUP7 DUP3 DUP8 ADD PUSH2 0x2A2 JUMP JUMPDEST SWAP3 POP POP PUSH1 0x40 DUP5 ADD CALLDATALOAD PUSH8 0xFFFFFFFFFFFFFFFF DUP2 GT ISZERO PUSH2 0x448 JUMPI PUSH2 0x447 PUSH2 0x27F JUMP JUMPDEST JUMPDEST PUSH2 0x454 DUP7 DUP3 DUP8 ADD PUSH2 0x3C5 JUMP JUMPDEST SWAP2 POP POP SWAP3 POP SWAP3 POP SWAP3 JUMP JUMPDEST PUSH2 0x467 DUP2 PUSH2 0x283 JUMP JUMPDEST DUP3 MSTORE POP POP JUMP JUMPDEST PUSH0 PUSH1 0x20 DUP3 ADD SWAP1 POP PUSH2 0x480 PUSH0 DUP4 ADD DUP5 PUSH2 0x45E JUMP JUMPDEST SWAP3 SWAP2 POP POP JUMP JUMPDEST PUSH0 DUP2 SWAP1 POP SWAP3 SWAP2 POP POP JUMP JUMPDEST PUSH32 0x2B00000000000000000000000000000000000000000000000000000000000000 PUSH0 DUP3 ADD MSTORE POP JUMP JUMPDEST PUSH0 PUSH2 0x4C4 PUSH1 0x1 DUP4 PUSH2 0x486 JUMP JUMPDEST SWAP2 POP PUSH2 0x4CF DUP3 PUSH2 0x490 JUMP JUMPDEST PUSH1 0x1 DUP3 ADD SWAP1 POP SWAP2 SWAP1 POP JUMP JUMPDEST PUSH0 PUSH2 0x4E4 DUP3 PUSH2 0x4B8 JUMP JUMPDEST SWAP2 POP DUP2 SWAP1 POP SWAP2 SWAP1 POP JUMP JUMPDEST PUSH0 DUP2 MLOAD SWAP1 POP SWAP2 SWAP1 POP JUMP JUMPDEST DUP3 DUP2 DUP4 MCOPY PUSH0 DUP4 DUP4 ADD MSTORE POP POP POP JUMP JUMPDEST PUSH0 PUSH2 0x510 DUP3 PUSH2 0x4EE JUMP JUMPDEST PUSH2 0x51A DUP2 DUP6 PUSH2 0x486 JUMP JUMPDEST SWAP4 POP PUSH2 0x52A DUP2 DUP6 PUSH1 0x20 DUP7 ADD PUSH2 0x4F8 JUMP JUMPDEST DUP1 DUP5 ADD SWAP2 POP POP SWAP3 SWAP2 POP POP JUMP JUMPDEST PUSH0 PUSH2 0x541 DUP3 DUP5 PUSH2 0x506 JUMP JUMPDEST SWAP2 POP DUP2 SWAP1 POP SWAP3 SWAP2 POP POP JUMP JUMPDEST PUSH32 0x4E487B7100000000000000000000000000000000000000000000000000000000 PUSH0 MSTORE PUSH1 0x11 PUSH1 0x4 MSTORE PUSH1 0x24 PUSH0 REVERT JUMPDEST PUSH0 PUSH2 0x583 DUP3 PUSH2 0x283 JUMP JUMPDEST SWAP2 POP PUSH2 0x58E DUP4 PUSH2 0x283 JUMP JUMPDEST SWAP3 POP DUP3 DUP3 ADD SWAP1 POP DUP1 DUP3 GT ISZERO PUSH2 0x5A6 JUMPI PUSH2 0x5A5 PUSH2 0x54C JUMP JUMPDEST JUMPDEST SWAP3 SWAP2 POP POP JUMP JUMPDEST PUSH32 0x2D00000000000000000000000000000000000000000000000000000000000000 PUSH0 DUP3 ADD MSTORE POP JUMP JUMPDEST PUSH0 PUSH2 0x5E0 PUSH1 0x1 DUP4 PUSH2 0x486 JUMP JUMPDEST SWAP2 POP PUSH2 0x5EB DUP3 PUSH2 0x5AC JUMP JUMPDEST PUSH1 0x1 DUP3 ADD SWAP1 POP SWAP2 SWAP1 POP JUMP JUMPDEST PUSH0 PUSH2 0x600 DUP3 PUSH2 0x5D4 JUMP JUMPDEST SWAP2 POP DUP2 SWAP1 POP SWAP2 SWAP1 POP JUMP JUMPDEST PUSH0 PUSH2 0x614 DUP3 PUSH2 0x283 JUMP JUMPDEST SWAP2 POP PUSH2 0x61F DUP4 PUSH2 0x283 JUMP JUMPDEST SWAP3 POP DUP3 DUP3 SUB SWAP1 POP DUP2 DUP2 GT ISZERO PUSH2 0x637 JUMPI PUSH2 0x636 PUSH2 0x54C JUMP JUMPDEST JUMPDEST SWAP3 SWAP2 POP POP JUMP JUMPDEST PUSH32 0x2A00000000000000000000000000000000000000000000000000000000000000 PUSH0 DUP3 ADD MSTORE POP JUMP JUMPDEST PUSH0 PUSH2 0x671 PUSH1 0x1 DUP4 PUSH2 0x486 JUMP JUMPDEST SWAP2 POP PUSH2 0x67C DUP3 PUSH2 0x63D JUMP JUMPDEST PUSH1 0x1 DUP3 ADD SWAP1 POP SWAP2 SWAP1 POP JUMP JUMPDEST PUSH0 PUSH2 0x691 DUP3 PUSH2 0x665 JUMP JUMPDEST SWAP2 POP DUP2 SWAP1 POP SWAP2 SWAP1 POP JUMP JUMPDEST PUSH0 PUSH2 0x6A5 DUP3 PUSH2 0x283 JUMP JUMPDEST SWAP2 POP PUSH2 0x6B0 DUP4 PUSH2 0x283 JUMP JUMPDEST SWAP3 POP DUP3 DUP3 MUL PUSH2 0x6BE DUP2 PUSH2 0x283 JUMP JUMPDEST SWAP2 POP DUP3 DUP3 DIV DUP5 EQ DUP4 ISZERO OR PUSH2 0x6D5 JUMPI PUSH2 0x6D4 PUSH2 0x54C JUMP JUMPDEST JUMPDEST POP SWAP3 SWAP2 POP POP JUMP JUMPDEST PUSH32 0x2F00000000000000000000000000000000000000000000000000000000000000 PUSH0 DUP3 ADD MSTORE POP JUMP JUMPDEST PUSH0 PUSH2 0x710 PUSH1 0x1 DUP4 PUSH2 0x486 JUMP JUMPDEST SWAP2 POP PUSH2 0x71B DUP3 PUSH2 0x6DC JUMP JUMPDEST PUSH1 0x1 DUP3 ADD SWAP1 POP SWAP2 SWAP1 POP JUMP JUMPDEST PUSH0 PUSH2 0x730 DUP3 PUSH2 0x704 JUMP JUMPDEST SWAP2 POP DUP2 SWAP1 POP SWAP2 SWAP1 POP JUMP JUMPDEST PUSH0 DUP3 DUP3 MSTORE PUSH1 0x20 DUP3 ADD SWAP1 POP SWAP3 SWAP2 POP POP JUMP JUMPDEST PUSH32 0x4469766973696F6E206279207A65726F00000000000000000000000000000000 PUSH0 DUP3 ADD MSTORE POP JUMP JUMPDEST PUSH0 PUSH2 0x77E PUSH1 0x10 DUP4 PUSH2 0x73A JUMP JUMPDEST SWAP2 POP PUSH2 0x789 DUP3 PUSH2 0x74A JUMP JUMPDEST PUSH1 0x20 DUP3 ADD SWAP1 POP SWAP2 SWAP1 POP JUMP JUMPDEST PUSH0 PUSH1 0x20 DUP3 ADD SWAP1 POP DUP2 DUP2 SUB PUSH0 DUP4 ADD MSTORE PUSH2 0x7AB DUP2 PUSH2 0x772 JUMP JUMPDEST SWAP1 POP SWAP2 SWAP1 POP JUMP JUMPDEST PUSH32 0x4E487B7100000000000000000000000000000000000000000000000000000000 PUSH0 MSTORE PUSH1 0x12 PUSH1 0x4 MSTORE PUSH1 0x24 PUSH0 REVERT JUMPDEST PUSH0 PUSH2 0x7E9 DUP3 PUSH2 0x283 JUMP JUMPDEST SWAP2 POP PUSH2 0x7F4 DUP4 PUSH2 0x283 JUMP JUMPDEST SWAP3 POP DUP3 PUSH2 0x804 JUMPI PUSH2 0x803 PUSH2 0x7B2 JUMP JUMPDEST JUMPDEST DUP3 DUP3 DIV SWAP1 POP SWAP3 SWAP2 POP POP JUMP JUMPDEST PUSH32 0x496E76616C6964206F7065726174696F6E000000000000000000000000000000 PUSH0 DUP3 ADD MSTORE POP JUMP JUMPDEST PUSH0 PUSH2 0x843 PUSH1 0x11 DUP4 PUSH2 0x73A JUMP JUMPDEST SWAP2 POP PUSH2 0x84E DUP3 PUSH2 0x80F JUMP JUMPDEST PUSH1 0x20 DUP3 ADD SWAP1 POP SWAP2 SWAP1 POP JUMP JUMPDEST PUSH0 PUSH1 0x20 DUP3 ADD SWAP1 POP DUP2 DUP2 SUB PUSH0 DUP4 ADD MSTORE PUSH2 0x870 DUP2 PUSH2 0x837 JUMP JUMPDEST SWAP1 POP SWAP2 SWAP1 POP JUMP INVALID LOG2 PUSH5 0x6970667358 0x22 SLT KECCAK256 SDIV LOG4 0xAF 0xDB 0xDA 0xC0 0xBE 0xD1 SSTORE 0xCA SUB CALL BLOCKHASH 0xD0 EXTCODESIZE PUSH3 0x2E3273 MSIZE SWAP3 DUP10 0xB8 0x1F 0xB0 0x4E SWAP4 PUSH22 0xA998F70264736F6C6343000819003300000000000000 "
		},
		"gasEstimates": {
			"creation": {
				"codeDepositCost": "444200",
				"executionCost": "478",
				"totalCost": "444678"
			},
			"external": {
				"calculator(uint256,uint256,string)": "infinite"
			}
		},
		"methodIdentifiers": {
			"calculator(uint256,uint256,string)": "ae0cc94f"
		}
	},
	"abi": [
		{
			"inputs": [
				{
					"internalType": "uint256",
					"name": "_a",
					"type": "uint256"
				},
				{
					"internalType": "uint256",
					"name": "_b",
					"type": "uint256"
				},
				{
					"internalType": "string",
					"name": "_c",
					"type": "string"
				}
			],
			"name": "calculator",
			"outputs": [
				{
					"internalType": "uint256",
					"name": "",
					"type": "uint256"
				}
			],
			"stateMutability": "pure",
			"type": "function"
		}
	]
}