{
	"data": {
		"bytecode": {
			"linkReferences": {},
			"object": "6080604052348015600e575f80fd5b506102bc8061001c5f395ff3fe608060405234801561000f575f80fd5b506004361061003f575f3560e01c80633a5d2e9214610043578063a46c13ff14610073578063c90406f9146100a3575b5f80fd5b61005d6004803603810190610058919061016d565b6100d3565b60405161006a91906101cc565b60405180910390f35b61008d6004803603810190610088919061016d565b6100f4565b60405161009a91906101cc565b60405180910390f35b6100bd60048036038101906100b8919061016d565b610115565b6040516100ca91906101cc565b60405180910390f35b5f8183856100e19190610212565b6100eb9190610212565b90509392505050565b5f8183856101029190610245565b61010c9190610212565b90509392505050565b5f8183856101239190610245565b61012d9190610245565b90509392505050565b5f80fd5b5f819050919050565b61014c8161013a565b8114610156575f80fd5b50565b5f8135905061016781610143565b92915050565b5f805f6060848603121561018457610183610136565b5b5f61019186828701610159565b93505060206101a286828701610159565b92505060406101b386828701610159565b9150509250925092565b6101c68161013a565b82525050565b5f6020820190506101df5f8301846101bd565b92915050565b7f4e487b71000000000000000000000000000000000000000000000000000000005f52601160045260245ffd5b5f61021c8261013a565b91506102278361013a565b925082820190508082111561023f5761023e6101e5565b5b92915050565b5f61024f8261013a565b915061025a8361013a565b92508282026102688161013a565b9150828204841483151761027f5761027e6101e5565b5b509291505056fea264697066735822122008b7bd2927cdac77a0e3a69ca298f74b56ce1f1046ee1ee7e1011ecaf6b8aa9564736f6c634300081a0033",
			"opcodes": "PUSH1 0x80 PUSH1 0x40 MSTORE CALLVALUE DUP1 ISZERO PUSH1 0xE JUMPI PUSH0 DUP1 REVERT JUMPDEST POP PUSH2 0x2BC DUP1 PUSH2 0x1C PUSH0 CODECOPY PUSH0 RETURN INVALID PUSH1 0x80 PUSH1 0x40 MSTORE CALLVALUE DUP1 ISZERO PUSH2 0xF JUMPI PUSH0 DUP1 REVERT JUMPDEST POP PUSH1 0x4 CALLDATASIZE LT PUSH2 0x3F JUMPI PUSH0 CALLDATALOAD PUSH1 0xE0 SHR DUP1 PUSH4 0x3A5D2E92 EQ PUSH2 0x43 JUMPI DUP1 PUSH4 0xA46C13FF EQ PUSH2 0x73 JUMPI DUP1 PUSH4 0xC90406F9 EQ PUSH2 0xA3 JUMPI JUMPDEST PUSH0 DUP1 REVERT JUMPDEST PUSH2 0x5D PUSH1 0x4 DUP1 CALLDATASIZE SUB DUP2 ADD SWAP1 PUSH2 0x58 SWAP2 SWAP1 PUSH2 0x16D JUMP JUMPDEST PUSH2 0xD3 JUMP JUMPDEST PUSH1 0x40 MLOAD PUSH2 0x6A SWAP2 SWAP1 PUSH2 0x1CC JUMP JUMPDEST PUSH1 0x40 MLOAD DUP1 SWAP2 SUB SWAP1 RETURN JUMPDEST PUSH2 0x8D PUSH1 0x4 DUP1 CALLDATASIZE SUB DUP2 ADD SWAP1 PUSH2 0x88 SWAP2 SWAP1 PUSH2 0x16D JUMP JUMPDEST PUSH2 0xF4 JUMP JUMPDEST PUSH1 0x40 MLOAD PUSH2 0x9A SWAP2 SWAP1 PUSH2 0x1CC JUMP JUMPDEST PUSH1 0x40 MLOAD DUP1 SWAP2 SUB SWAP1 RETURN JUMPDEST PUSH2 0xBD PUSH1 0x4 DUP1 CALLDATASIZE SUB DUP2 ADD SWAP1 PUSH2 0xB8 SWAP2 SWAP1 PUSH2 0x16D JUMP JUMPDEST PUSH2 0x115 JUMP JUMPDEST PUSH1 0x40 MLOAD PUSH2 0xCA SWAP2 SWAP1 PUSH2 0x1CC JUMP JUMPDEST PUSH1 0x40 MLOAD DUP1 SWAP2 SUB SWAP1 RETURN JUMPDEST PUSH0 DUP2 DUP4 DUP6 PUSH2 0xE1 SWAP2 SWAP1 PUSH2 0x212 JUMP JUMPDEST PUSH2 0xEB SWAP2 SWAP1 PUSH2 0x212 JUMP JUMPDEST SWAP1 POP SWAP4 SWAP3 POP POP POP JUMP JUMPDEST PUSH0 DUP2 DUP4 DUP6 PUSH2 0x102 SWAP2 SWAP1 PUSH2 0x245 JUMP JUMPDEST PUSH2 0x10C SWAP2 SWAP1 PUSH2 0x212 JUMP JUMPDEST SWAP1 POP SWAP4 SWAP3 POP POP POP JUMP JUMPDEST PUSH0 DUP2 DUP4 DUP6 PUSH2 0x123 SWAP2 SWAP1 PUSH2 0x245 JUMP JUMPDEST PUSH2 0x12D SWAP2 SWAP1 PUSH2 0x245 JUMP JUMPDEST SWAP1 POP SWAP4 SWAP3 POP POP POP JUMP JUMPDEST PUSH0 DUP1 REVERT JUMPDEST PUSH0 DUP2 SWAP1 POP SWAP2 SWAP1 POP JUMP JUMPDEST PUSH2 0x14C DUP2 PUSH2 0x13A JUMP JUMPDEST DUP2 EQ PUSH2 0x156 JUMPI PUSH0 DUP1 REVERT JUMPDEST POP JUMP JUMPDEST PUSH0 DUP2 CALLDATALOAD SWAP1 POP PUSH2 0x167 DUP2 PUSH2 0x143 JUMP JUMPDEST SWAP3 SWAP2 POP POP JUMP JUMPDEST PUSH0 DUP1 PUSH0 PUSH1 0x60 DUP5 DUP7 SUB SLT ISZERO PUSH2 0x184 JUMPI PUSH2 0x183 PUSH2 0x136 JUMP JUMPDEST JUMPDEST PUSH0 PUSH2 0x191 DUP7 DUP3 DUP8 ADD PUSH2 0x159 JUMP JUMPDEST SWAP4 POP POP PUSH1 0x20 PUSH2 0x1A2 DUP7 DUP3 DUP8 ADD PUSH2 0x159 JUMP JUMPDEST SWAP3 POP POP PUSH1 0x40 PUSH2 0x1B3 DUP7 DUP3 DUP8 ADD PUSH2 0x159 JUMP JUMPDEST SWAP2 POP POP SWAP3 POP SWAP3 POP SWAP3 JUMP JUMPDEST PUSH2 0x1C6 DUP2 PUSH2 0x13A JUMP JUMPDEST DUP3 MSTORE POP POP JUMP JUMPDEST PUSH0 PUSH1 0x20 DUP3 ADD SWAP1 POP PUSH2 0x1DF PUSH0 DUP4 ADD DUP5 PUSH2 0x1BD JUMP JUMPDEST SWAP3 SWAP2 POP POP JUMP JUMPDEST PUSH32 0x4E487B7100000000000000000000000000000000000000000000000000000000 PUSH0 MSTORE PUSH1 0x11 PUSH1 0x4 MSTORE PUSH1 0x24 PUSH0 REVERT JUMPDEST PUSH0 PUSH2 0x21C DUP3 PUSH2 0x13A JUMP JUMPDEST SWAP2 POP PUSH2 0x227 DUP4 PUSH2 0x13A JUMP JUMPDEST SWAP3 POP DUP3 DUP3 ADD SWAP1 POP DUP1 DUP3 GT ISZERO PUSH2 0x23F JUMPI PUSH2 0x23E PUSH2 0x1E5 JUMP JUMPDEST JUMPDEST SWAP3 SWAP2 POP POP JUMP JUMPDEST PUSH0 PUSH2 0x24F DUP3 PUSH2 0x13A JUMP JUMPDEST SWAP2 POP PUSH2 0x25A DUP4 PUSH2 0x13A JUMP JUMPDEST SWAP3 POP DUP3 DUP3 MUL PUSH2 0x268 DUP2 PUSH2 0x13A JUMP JUMPDEST SWAP2 POP DUP3 DUP3 DIV DUP5 EQ DUP4 ISZERO OR PUSH2 0x27F JUMPI PUSH2 0x27E PUSH2 0x1E5 JUMP JUMPDEST JUMPDEST POP SWAP3 SWAP2 POP POP JUMP INVALID LOG2 PUSH5 0x6970667358 0x22 SLT KECCAK256 ADDMOD 0xB7 0xBD 0x29 0x27 0xCD 0xAC PUSH24 0xA0E3A69CA298F74B56CE1F1046EE1EE7E1011ECAF6B8AA95 PUSH5 0x736F6C6343 STOP ADDMOD BYTE STOP CALLER "
		},
		"gasEstimates": {
			"creation": {
				"codeDepositCost": "140000",
				"executionCost": "181",
				"totalCost": "140181"
			},
			"external": {
				"addNum(uint256,uint256,uint256)": "infinite",
				"mulNum(uint256,uint256,uint256)": "infinite",
				"operateNum(uint256,uint256,uint256)": "infinite"
			}
		},
		"methodIdentifiers": {
			"addNum(uint256,uint256,uint256)": "3a5d2e92",
			"mulNum(uint256,uint256,uint256)": "c90406f9",
			"operateNum(uint256,uint256,uint256)": "a46c13ff"
		}
	},
	"abi": [
		{
			"inputs": [
				{
					"internalType": "uint256",
					"name": "_a",
					"type": "uint256"
				},
				{
					"internalType": "uint256",
					"name": "_b",
					"type": "uint256"
				},
				{
					"internalType": "uint256",
					"name": "_c",
					"type": "uint256"
				}
			],
			"name": "addNum",
			"outputs": [
				{
					"internalType": "uint256",
					"name": "",
					"type": "uint256"
				}
			],
			"stateMutability": "pure",
			"type": "function"
		},
		{
			"inputs": [
				{
					"internalType": "uint256",
					"name": "_a",
					"type": "uint256"
				},
				{
					"internalType": "uint256",
					"name": "_b",
					"type": "uint256"
				},
				{
					"internalType": "uint256",
					"name": "_c",
					"type": "uint256"
				}
			],
			"name": "mulNum",
			"outputs": [
				{
					"internalType": "uint256",
					"name": "",
					"type": "uint256"
				}
			],
			"stateMutability": "pure",
			"type": "function"
		},
		{
			"inputs": [
				{
					"internalType": "uint256",
					"name": "_a",
					"type": "uint256"
				},
				{
					"internalType": "uint256",
					"name": "_b",
					"type": "uint256"
				},
				{
					"internalType": "uint256",
					"name": "_c",
					"type": "uint256"
				}
			],
			"name": "operateNum",
			"outputs": [
				{
					"internalType": "uint256",
					"name": "",
					"type": "uint256"
				}
			],
			"stateMutability": "pure",
			"type": "function"
		}
	]
}