{
	"data": {
		"bytecode": {
			"linkReferences": {},
			"object": "6080604052348015600e575f80fd5b5061094b8061001c5f395ff3fe608060405234801561000f575f80fd5b5060043610610034575f3560e01c80636cb6598d14610038578063b439548d14610054575b5f80fd5b610052600480360381019061004d91906103cf565b610072565b005b61005c6100fe565b60405161006991906105cc565b60405180910390f35b5f604051806060016040528060015f8054905061008f9190610619565b815260200184815260200183815250908060018154018082558091505060019003905f5260205f2090600302015f909190919091505f820151815f015560208201518160010190816100e19190610846565b5060408201518160020190816100f79190610846565b5050505050565b60605f805480602002602001604051908101604052809291908181526020015f905b82821015610279578382905f5260205f2090600302016040518060600160405290815f820154815260200160018201805461015a90610679565b80601f016020809104026020016040519081016040528092919081815260200182805461018690610679565b80156101d15780601f106101a8576101008083540402835291602001916101d1565b820191905f5260205f20905b8154815290600101906020018083116101b457829003601f168201915b505050505081526020016002820180546101ea90610679565b80601f016020809104026020016040519081016040528092919081815260200182805461021690610679565b80156102615780601f1061023857610100808354040283529160200191610261565b820191905f5260205f20905b81548152906001019060200180831161024457829003601f168201915b50505050508152505081526020019060010190610120565b50505050905090565b5f604051905090565b5f80fd5b5f80fd5b5f80fd5b5f80fd5b5f601f19601f8301169050919050565b7f4e487b71000000000000000000000000000000000000000000000000000000005f52604160045260245ffd5b6102e18261029b565b810181811067ffffffffffffffff82111715610300576102ff6102ab565b5b80604052505050565b5f610312610282565b905061031e82826102d8565b919050565b5f67ffffffffffffffff82111561033d5761033c6102ab565b5b6103468261029b565b9050602081019050919050565b828183375f83830152505050565b5f61037361036e84610323565b610309565b90508281526020810184848401111561038f5761038e610297565b5b61039a848285610353565b509392505050565b5f82601f8301126103b6576103b5610293565b5b81356103c6848260208601610361565b91505092915050565b5f80604083850312156103e5576103e461028b565b5b5f83013567ffffffffffffffff8111156104025761040161028f565b5b61040e858286016103a2565b925050602083013567ffffffffffffffff81111561042f5761042e61028f565b5b61043b858286016103a2565b9150509250929050565b5f81519050919050565b5f82825260208201905092915050565b5f819050602082019050919050565b5f819050919050565b6104808161046e565b82525050565b5f81519050919050565b5f82825260208201905092915050565b8281835e5f83830152505050565b5f6104b882610486565b6104c28185610490565b93506104d28185602086016104a0565b6104db8161029b565b840191505092915050565b5f606083015f8301516104fb5f860182610477565b506020830151848203602086015261051382826104ae565b9150506040830151848203604086015261052d82826104ae565b9150508091505092915050565b5f61054583836104e6565b905092915050565b5f602082019050919050565b5f61056382610445565b61056d818561044f565b93508360208202850161057f8561045f565b805f5b858110156105ba578484038952815161059b858261053a565b94506105a68361054d565b925060208a01995050600181019050610582565b50829750879550505050505092915050565b5f6020820190508181035f8301526105e48184610559565b905092915050565b7f4e487b71000000000000000000000000000000000000000000000000000000005f52601160045260245ffd5b5f6106238261046e565b915061062e8361046e565b9250828201905080821115610646576106456105ec565b5b92915050565b7f4e487b71000000000000000000000000000000000000000000000000000000005f52602260045260245ffd5b5f600282049050600182168061069057607f821691505b6020821081036106a3576106a261064c565b5b50919050565b5f819050815f5260205f209050919050565b5f6020601f8301049050919050565b5f82821b905092915050565b5f600883026107057fffffffffffffffffffffffffffffffffffffffffffffffffffffffffffffffff826106ca565b61070f86836106ca565b95508019841693508086168417925050509392505050565b5f819050919050565b5f61074a6107456107408461046e565b610727565b61046e565b9050919050565b5f819050919050565b61076383610730565b61077761076f82610751565b8484546106d6565b825550505050565b5f90565b61078b61077f565b61079681848461075a565b505050565b5b818110156107b9576107ae5f82610783565b60018101905061079c565b5050565b601f8211156107fe576107cf816106a9565b6107d8846106bb565b810160208510156107e7578190505b6107fb6107f3856106bb565b83018261079b565b50505b505050565b5f82821c905092915050565b5f61081e5f1984600802610803565b1980831691505092915050565b5f610836838361080f565b9150826002028217905092915050565b61084f82610486565b67ffffffffffffffff811115610868576108676102ab565b5b6108728254610679565b61087d8282856107bd565b5f60209050601f8311600181146108ae575f841561089c578287015190505b6108a6858261082b565b86555061090d565b601f1984166108bc866106a9565b5f5b828110156108e3578489015182556001820191506020850194506020810190506108be565b8683101561090057848901516108fc601f89168261080f565b8355505b6001600288020188555050505b50505050505056fea2646970667358221220f5fffe6c54900feba7491a5a202833a77e76890281e7a2825c82123a23567f9864736f6c63430008190033",
			"opcodes": "PUSH1 0x80 PUSH1 0x40 MSTORE CALLVALUE DUP1 ISZERO PUSH1 0xE JUMPI PUSH0 DUP1 REVERT JUMPDEST POP PUSH2 0x94B DUP1 PUSH2 0x1C PUSH0 CODECOPY PUSH0 RETURN INVALID PUSH1 0x80 PUSH1 0x40 MSTORE CALLVALUE DUP1 ISZERO PUSH2 0xF JUMPI PUSH0 DUP1 REVERT JUMPDEST POP PUSH1 0x4 CALLDATASIZE LT PUSH2 0x34 JUMPI PUSH0 CALLDATALOAD PUSH1 0xE0 SHR DUP1 PUSH4 0x6CB6598D EQ PUSH2 0x38 JUMPI DUP1 PUSH4 0xB439548D EQ PUSH2 0x54 JUMPI JUMPDEST PUSH0 DUP1 REVERT JUMPDEST PUSH2 0x52 PUSH1 0x4 DUP1 CALLDATASIZE SUB DUP2 ADD SWAP1 PUSH2 0x4D SWAP2 SWAP1 PUSH2 0x3CF JUMP JUMPDEST PUSH2 0x72 JUMP JUMPDEST STOP JUMPDEST PUSH2 0x5C PUSH2 0xFE JUMP JUMPDEST PUSH1 0x40 MLOAD PUSH2 0x69 SWAP2 SWAP1 PUSH2 0x5CC JUMP JUMPDEST PUSH1 0x40 MLOAD DUP1 SWAP2 SUB SWAP1 RETURN JUMPDEST PUSH0 PUSH1 0x40 MLOAD DUP1 PUSH1 0x60 ADD PUSH1 0x40 MSTORE DUP1 PUSH1 0x1 PUSH0 DUP1 SLOAD SWAP1 POP PUSH2 0x8F SWAP2 SWAP1 PUSH2 0x619 JUMP JUMPDEST DUP2 MSTORE PUSH1 0x20 ADD DUP5 DUP2 MSTORE PUSH1 0x20 ADD DUP4 DUP2 MSTORE POP SWAP1 DUP1 PUSH1 0x1 DUP2 SLOAD ADD DUP1 DUP3 SSTORE DUP1 SWAP2 POP POP PUSH1 0x1 SWAP1 SUB SWAP1 PUSH0 MSTORE PUSH1 0x20 PUSH0 KECCAK256 SWAP1 PUSH1 0x3 MUL ADD PUSH0 SWAP1 SWAP2 SWAP1 SWAP2 SWAP1 SWAP2 POP PUSH0 DUP3 ADD MLOAD DUP2 PUSH0 ADD SSTORE PUSH1 0x20 DUP3 ADD MLOAD DUP2 PUSH1 0x1 ADD SWAP1 DUP2 PUSH2 0xE1 SWAP2 SWAP1 PUSH2 0x846 JUMP JUMPDEST POP PUSH1 0x40 DUP3 ADD MLOAD DUP2 PUSH1 0x2 ADD SWAP1 DUP2 PUSH2 0xF7 SWAP2 SWAP1 PUSH2 0x846 JUMP JUMPDEST POP POP POP POP POP JUMP JUMPDEST PUSH1 0x60 PUSH0 DUP1 SLOAD DUP1 PUSH1 0x20 MUL PUSH1 0x20 ADD PUSH1 0x40 MLOAD SWAP1 DUP2 ADD PUSH1 0x40 MSTORE DUP1 SWAP3 SWAP2 SWAP1 DUP2 DUP2 MSTORE PUSH1 0x20 ADD PUSH0 SWAP1 JUMPDEST DUP3 DUP3 LT ISZERO PUSH2 0x279 JUMPI DUP4 DUP3 SWAP1 PUSH0 MSTORE PUSH1 0x20 PUSH0 KECCAK256 SWAP1 PUSH1 0x3 MUL ADD PUSH1 0x40 MLOAD DUP1 PUSH1 0x60 ADD PUSH1 0x40 MSTORE SWAP1 DUP2 PUSH0 DUP3 ADD SLOAD DUP2 MSTORE PUSH1 0x20 ADD PUSH1 0x1 DUP3 ADD DUP1 SLOAD PUSH2 0x15A SWAP1 PUSH2 0x679 JUMP JUMPDEST DUP1 PUSH1 0x1F ADD PUSH1 0x20 DUP1 SWAP2 DIV MUL PUSH1 0x20 ADD PUSH1 0x40 MLOAD SWAP1 DUP2 ADD PUSH1 0x40 MSTORE DUP1 SWAP3 SWAP2 SWAP1 DUP2 DUP2 MSTORE PUSH1 0x20 ADD DUP3 DUP1 SLOAD PUSH2 0x186 SWAP1 PUSH2 0x679 JUMP JUMPDEST DUP1 ISZERO PUSH2 0x1D1 JUMPI DUP1 PUSH1 0x1F LT PUSH2 0x1A8 JUMPI PUSH2 0x100 DUP1 DUP4 SLOAD DIV MUL DUP4 MSTORE SWAP2 PUSH1 0x20 ADD SWAP2 PUSH2 0x1D1 JUMP JUMPDEST DUP3 ADD SWAP2 SWAP1 PUSH0 MSTORE PUSH1 0x20 PUSH0 KECCAK256 SWAP1 JUMPDEST DUP2 SLOAD DUP2 MSTORE SWAP1 PUSH1 0x1 ADD SWAP1 PUSH1 0x20 ADD DUP1 DUP4 GT PUSH2 0x1B4 JUMPI DUP3 SWAP1 SUB PUSH1 0x1F AND DUP3 ADD SWAP2 JUMPDEST POP POP POP POP POP DUP2 MSTORE PUSH1 0x20 ADD PUSH1 0x2 DUP3 ADD DUP1 SLOAD PUSH2 0x1EA SWAP1 PUSH2 0x679 JUMP JUMPDEST DUP1 PUSH1 0x1F ADD PUSH1 0x20 DUP1 SWAP2 DIV MUL PUSH1 0x20 ADD PUSH1 0x40 MLOAD SWAP1 DUP2 ADD PUSH1 0x40 MSTORE DUP1 SWAP3 SWAP2 SWAP1 DUP2 DUP2 MSTORE PUSH1 0x20 ADD DUP3 DUP1 SLOAD PUSH2 0x216 SWAP1 PUSH2 0x679 JUMP JUMPDEST DUP1 ISZERO PUSH2 0x261 JUMPI DUP1 PUSH1 0x1F LT PUSH2 0x238 JUMPI PUSH2 0x100 DUP1 DUP4 SLOAD DIV MUL DUP4 MSTORE SWAP2 PUSH1 0x20 ADD SWAP2 PUSH2 0x261 JUMP JUMPDEST DUP3 ADD SWAP2 SWAP1 PUSH0 MSTORE PUSH1 0x20 PUSH0 KECCAK256 SWAP1 JUMPDEST DUP2 SLOAD DUP2 MSTORE SWAP1 PUSH1 0x1 ADD SWAP1 PUSH1 0x20 ADD DUP1 DUP4 GT PUSH2 0x244 JUMPI DUP3 SWAP1 SUB PUSH1 0x1F AND DUP3 ADD SWAP2 JUMPDEST POP POP POP POP POP DUP2 MSTORE POP POP DUP2 MSTORE PUSH1 0x20 ADD SWAP1 PUSH1 0x1 ADD SWAP1 PUSH2 0x120 JUMP JUMPDEST POP POP POP POP SWAP1 POP SWAP1 JUMP JUMPDEST PUSH0 PUSH1 0x40 MLOAD SWAP1 POP SWAP1 JUMP JUMPDEST PUSH0 DUP1 REVERT JUMPDEST PUSH0 DUP1 REVERT JUMPDEST PUSH0 DUP1 REVERT JUMPDEST PUSH0 DUP1 REVERT JUMPDEST PUSH0 PUSH1 0x1F NOT PUSH1 0x1F DUP4 ADD AND SWAP1 POP SWAP2 SWAP1 POP JUMP JUMPDEST PUSH32 0x4E487B7100000000000000000000000000000000000000000000000000000000 PUSH0 MSTORE PUSH1 0x41 PUSH1 0x4 MSTORE PUSH1 0x24 PUSH0 REVERT JUMPDEST PUSH2 0x2E1 DUP3 PUSH2 0x29B JUMP JUMPDEST DUP2 ADD DUP2 DUP2 LT PUSH8 0xFFFFFFFFFFFFFFFF DUP3 GT OR ISZERO PUSH2 0x300 JUMPI PUSH2 0x2FF PUSH2 0x2AB JUMP JUMPDEST JUMPDEST DUP1 PUSH1 0x40 MSTORE POP POP POP JUMP JUMPDEST PUSH0 PUSH2 0x312 PUSH2 0x282 JUMP JUMPDEST SWAP1 POP PUSH2 0x31E DUP3 DUP3 PUSH2 0x2D8 JUMP JUMPDEST SWAP2 SWAP1 POP JUMP JUMPDEST PUSH0 PUSH8 0xFFFFFFFFFFFFFFFF DUP3 GT ISZERO PUSH2 0x33D JUMPI PUSH2 0x33C PUSH2 0x2AB JUMP JUMPDEST JUMPDEST PUSH2 0x346 DUP3 PUSH2 0x29B JUMP JUMPDEST SWAP1 POP PUSH1 0x20 DUP2 ADD SWAP1 POP SWAP2 SWAP1 POP JUMP JUMPDEST DUP3 DUP2 DUP4 CALLDATACOPY PUSH0 DUP4 DUP4 ADD MSTORE POP POP POP JUMP JUMPDEST PUSH0 PUSH2 0x373 PUSH2 0x36E DUP5 PUSH2 0x323 JUMP JUMPDEST PUSH2 0x309 JUMP JUMPDEST SWAP1 POP DUP3 DUP2 MSTORE PUSH1 0x20 DUP2 ADD DUP5 DUP5 DUP5 ADD GT ISZERO PUSH2 0x38F JUMPI PUSH2 0x38E PUSH2 0x297 JUMP JUMPDEST JUMPDEST PUSH2 0x39A DUP5 DUP3 DUP6 PUSH2 0x353 JUMP JUMPDEST POP SWAP4 SWAP3 POP POP POP JUMP JUMPDEST PUSH0 DUP3 PUSH1 0x1F DUP4 ADD SLT PUSH2 0x3B6 JUMPI PUSH2 0x3B5 PUSH2 0x293 JUMP JUMPDEST JUMPDEST DUP2 CALLDATALOAD PUSH2 0x3C6 DUP5 DUP3 PUSH1 0x20 DUP7 ADD PUSH2 0x361 JUMP JUMPDEST SWAP2 POP POP SWAP3 SWAP2 POP POP JUMP JUMPDEST PUSH0 DUP1 PUSH1 0x40 DUP4 DUP6 SUB SLT ISZERO PUSH2 0x3E5 JUMPI PUSH2 0x3E4 PUSH2 0x28B JUMP JUMPDEST JUMPDEST PUSH0 DUP4 ADD CALLDATALOAD PUSH8 0xFFFFFFFFFFFFFFFF DUP2 GT ISZERO PUSH2 0x402 JUMPI PUSH2 0x401 PUSH2 0x28F JUMP JUMPDEST JUMPDEST PUSH2 0x40E DUP6 DUP3 DUP7 ADD PUSH2 0x3A2 JUMP JUMPDEST SWAP3 POP POP PUSH1 0x20 DUP4 ADD CALLDATALOAD PUSH8 0xFFFFFFFFFFFFFFFF DUP2 GT ISZERO PUSH2 0x42F JUMPI PUSH2 0x42E PUSH2 0x28F JUMP JUMPDEST JUMPDEST PUSH2 0x43B DUP6 DUP3 DUP7 ADD PUSH2 0x3A2 JUMP JUMPDEST SWAP2 POP POP SWAP3 POP SWAP3 SWAP1 POP JUMP JUMPDEST PUSH0 DUP2 MLOAD SWAP1 POP SWAP2 SWAP1 POP JUMP JUMPDEST PUSH0 DUP3 DUP3 MSTORE PUSH1 0x20 DUP3 ADD SWAP1 POP SWAP3 SWAP2 POP POP JUMP JUMPDEST PUSH0 DUP2 SWAP1 POP PUSH1 0x20 DUP3 ADD SWAP1 POP SWAP2 SWAP1 POP JUMP JUMPDEST PUSH0 DUP2 SWAP1 POP SWAP2 SWAP1 POP JUMP JUMPDEST PUSH2 0x480 DUP2 PUSH2 0x46E JUMP JUMPDEST DUP3 MSTORE POP POP JUMP JUMPDEST PUSH0 DUP2 MLOAD SWAP1 POP SWAP2 SWAP1 POP JUMP JUMPDEST PUSH0 DUP3 DUP3 MSTORE PUSH1 0x20 DUP3 ADD SWAP1 POP SWAP3 SWAP2 POP POP JUMP JUMPDEST DUP3 DUP2 DUP4 MCOPY PUSH0 DUP4 DUP4 ADD MSTORE POP POP POP JUMP JUMPDEST PUSH0 PUSH2 0x4B8 DUP3 PUSH2 0x486 JUMP JUMPDEST PUSH2 0x4C2 DUP2 DUP6 PUSH2 0x490 JUMP JUMPDEST SWAP4 POP PUSH2 0x4D2 DUP2 DUP6 PUSH1 0x20 DUP7 ADD PUSH2 0x4A0 JUMP JUMPDEST PUSH2 0x4DB DUP2 PUSH2 0x29B JUMP JUMPDEST DUP5 ADD SWAP2 POP POP SWAP3 SWAP2 POP POP JUMP JUMPDEST PUSH0 PUSH1 0x60 DUP4 ADD PUSH0 DUP4 ADD MLOAD PUSH2 0x4FB PUSH0 DUP7 ADD DUP3 PUSH2 0x477 JUMP JUMPDEST POP PUSH1 0x20 DUP4 ADD MLOAD DUP5 DUP3 SUB PUSH1 0x20 DUP7 ADD MSTORE PUSH2 0x513 DUP3 DUP3 PUSH2 0x4AE JUMP JUMPDEST SWAP2 POP POP PUSH1 0x40 DUP4 ADD MLOAD DUP5 DUP3 SUB PUSH1 0x40 DUP7 ADD MSTORE PUSH2 0x52D DUP3 DUP3 PUSH2 0x4AE JUMP JUMPDEST SWAP2 POP POP DUP1 SWAP2 POP POP SWAP3 SWAP2 POP POP JUMP JUMPDEST PUSH0 PUSH2 0x545 DUP4 DUP4 PUSH2 0x4E6 JUMP JUMPDEST SWAP1 POP SWAP3 SWAP2 POP POP JUMP JUMPDEST PUSH0 PUSH1 0x20 DUP3 ADD SWAP1 POP SWAP2 SWAP1 POP JUMP JUMPDEST PUSH0 PUSH2 0x563 DUP3 PUSH2 0x445 JUMP JUMPDEST PUSH2 0x56D DUP2 DUP6 PUSH2 0x44F JUMP JUMPDEST SWAP4 POP DUP4 PUSH1 0x20 DUP3 MUL DUP6 ADD PUSH2 0x57F DUP6 PUSH2 0x45F JUMP JUMPDEST DUP1 PUSH0 JUMPDEST DUP6 DUP2 LT ISZERO PUSH2 0x5BA JUMPI DUP5 DUP5 SUB DUP10 MSTORE DUP2 MLOAD PUSH2 0x59B DUP6 DUP3 PUSH2 0x53A JUMP JUMPDEST SWAP5 POP PUSH2 0x5A6 DUP4 PUSH2 0x54D JUMP JUMPDEST SWAP3 POP PUSH1 0x20 DUP11 ADD SWAP10 POP POP PUSH1 0x1 DUP2 ADD SWAP1 POP PUSH2 0x582 JUMP JUMPDEST POP DUP3 SWAP8 POP DUP8 SWAP6 POP POP POP POP POP POP SWAP3 SWAP2 POP POP JUMP JUMPDEST PUSH0 PUSH1 0x20 DUP3 ADD SWAP1 POP DUP2 DUP2 SUB PUSH0 DUP4 ADD MSTORE PUSH2 0x5E4 DUP2 DUP5 PUSH2 0x559 JUMP JUMPDEST SWAP1 POP SWAP3 SWAP2 POP POP JUMP JUMPDEST PUSH32 0x4E487B7100000000000000000000000000000000000000000000000000000000 PUSH0 MSTORE PUSH1 0x11 PUSH1 0x4 MSTORE PUSH1 0x24 PUSH0 REVERT JUMPDEST PUSH0 PUSH2 0x623 DUP3 PUSH2 0x46E JUMP JUMPDEST SWAP2 POP PUSH2 0x62E DUP4 PUSH2 0x46E JUMP JUMPDEST SWAP3 POP DUP3 DUP3 ADD SWAP1 POP DUP1 DUP3 GT ISZERO PUSH2 0x646 JUMPI PUSH2 0x645 PUSH2 0x5EC JUMP JUMPDEST JUMPDEST SWAP3 SWAP2 POP POP JUMP JUMPDEST PUSH32 0x4E487B7100000000000000000000000000000000000000000000000000000000 PUSH0 MSTORE PUSH1 0x22 PUSH1 0x4 MSTORE PUSH1 0x24 PUSH0 REVERT JUMPDEST PUSH0 PUSH1 0x2 DUP3 DIV SWAP1 POP PUSH1 0x1 DUP3 AND DUP1 PUSH2 0x690 JUMPI PUSH1 0x7F DUP3 AND SWAP2 POP JUMPDEST PUSH1 0x20 DUP3 LT DUP2 SUB PUSH2 0x6A3 JUMPI PUSH2 0x6A2 PUSH2 0x64C JUMP JUMPDEST JUMPDEST POP SWAP2 SWAP1 POP JUMP JUMPDEST PUSH0 DUP2 SWAP1 POP DUP2 PUSH0 MSTORE PUSH1 0x20 PUSH0 KECCAK256 SWAP1 POP SWAP2 SWAP1 POP JUMP JUMPDEST PUSH0 PUSH1 0x20 PUSH1 0x1F DUP4 ADD DIV SWAP1 POP SWAP2 SWAP1 POP JUMP JUMPDEST PUSH0 DUP3 DUP3 SHL SWAP1 POP SWAP3 SWAP2 POP POP JUMP JUMPDEST PUSH0 PUSH1 0x8 DUP4 MUL PUSH2 0x705 PUSH32 0xFFFFFFFFFFFFFFFFFFFFFFFFFFFFFFFFFFFFFFFFFFFFFFFFFFFFFFFFFFFFFFFF DUP3 PUSH2 0x6CA JUMP JUMPDEST PUSH2 0x70F DUP7 DUP4 PUSH2 0x6CA JUMP JUMPDEST SWAP6 POP DUP1 NOT DUP5 AND SWAP4 POP DUP1 DUP7 AND DUP5 OR SWAP3 POP POP POP SWAP4 SWAP3 POP POP POP JUMP JUMPDEST PUSH0 DUP2 SWAP1 POP SWAP2 SWAP1 POP JUMP JUMPDEST PUSH0 PUSH2 0x74A PUSH2 0x745 PUSH2 0x740 DUP5 PUSH2 0x46E JUMP JUMPDEST PUSH2 0x727 JUMP JUMPDEST PUSH2 0x46E JUMP JUMPDEST SWAP1 POP SWAP2 SWAP1 POP JUMP JUMPDEST PUSH0 DUP2 SWAP1 POP SWAP2 SWAP1 POP JUMP JUMPDEST PUSH2 0x763 DUP4 PUSH2 0x730 JUMP JUMPDEST PUSH2 0x777 PUSH2 0x76F DUP3 PUSH2 0x751 JUMP JUMPDEST DUP5 DUP5 SLOAD PUSH2 0x6D6 JUMP JUMPDEST DUP3 SSTORE POP POP POP POP JUMP JUMPDEST PUSH0 SWAP1 JUMP JUMPDEST PUSH2 0x78B PUSH2 0x77F JUMP JUMPDEST PUSH2 0x796 DUP2 DUP5 DUP5 PUSH2 0x75A JUMP JUMPDEST POP POP POP JUMP JUMPDEST JUMPDEST DUP2 DUP2 LT ISZERO PUSH2 0x7B9 JUMPI PUSH2 0x7AE PUSH0 DUP3 PUSH2 0x783 JUMP JUMPDEST PUSH1 0x1 DUP2 ADD SWAP1 POP PUSH2 0x79C JUMP JUMPDEST POP POP JUMP JUMPDEST PUSH1 0x1F DUP3 GT ISZERO PUSH2 0x7FE JUMPI PUSH2 0x7CF DUP2 PUSH2 0x6A9 JUMP JUMPDEST PUSH2 0x7D8 DUP5 PUSH2 0x6BB JUMP JUMPDEST DUP2 ADD PUSH1 0x20 DUP6 LT ISZERO PUSH2 0x7E7 JUMPI DUP2 SWAP1 POP JUMPDEST PUSH2 0x7FB PUSH2 0x7F3 DUP6 PUSH2 0x6BB JUMP JUMPDEST DUP4 ADD DUP3 PUSH2 0x79B JUMP JUMPDEST POP POP JUMPDEST POP POP POP JUMP JUMPDEST PUSH0 DUP3 DUP3 SHR SWAP1 POP SWAP3 SWAP2 POP POP JUMP JUMPDEST PUSH0 PUSH2 0x81E PUSH0 NOT DUP5 PUSH1 0x8 MUL PUSH2 0x803 JUMP JUMPDEST NOT DUP1 DUP4 AND SWAP2 POP POP SWAP3 SWAP2 POP POP JUMP JUMPDEST PUSH0 PUSH2 0x836 DUP4 DUP4 PUSH2 0x80F JUMP JUMPDEST SWAP2 POP DUP3 PUSH1 0x2 MUL DUP3 OR SWAP1 POP SWAP3 SWAP2 POP POP JUMP JUMPDEST PUSH2 0x84F DUP3 PUSH2 0x486 JUMP JUMPDEST PUSH8 0xFFFFFFFFFFFFFFFF DUP2 GT ISZERO PUSH2 0x868 JUMPI PUSH2 0x867 PUSH2 0x2AB JUMP JUMPDEST JUMPDEST PUSH2 0x872 DUP3 SLOAD PUSH2 0x679 JUMP JUMPDEST PUSH2 0x87D DUP3 DUP3 DUP6 PUSH2 0x7BD JUMP JUMPDEST PUSH0 PUSH1 0x20 SWAP1 POP PUSH1 0x1F DUP4 GT PUSH1 0x1 DUP2 EQ PUSH2 0x8AE JUMPI PUSH0 DUP5 ISZERO PUSH2 0x89C JUMPI DUP3 DUP8 ADD MLOAD SWAP1 POP JUMPDEST PUSH2 0x8A6 DUP6 DUP3 PUSH2 0x82B JUMP JUMPDEST DUP7 SSTORE POP PUSH2 0x90D JUMP JUMPDEST PUSH1 0x1F NOT DUP5 AND PUSH2 0x8BC DUP7 PUSH2 0x6A9 JUMP JUMPDEST PUSH0 JUMPDEST DUP3 DUP2 LT ISZERO PUSH2 0x8E3 JUMPI DUP5 DUP10 ADD MLOAD DUP3 SSTORE PUSH1 0x1 DUP3 ADD SWAP2 POP PUSH1 0x20 DUP6 ADD SWAP5 POP PUSH1 0x20 DUP2 ADD SWAP1 POP PUSH2 0x8BE JUMP JUMPDEST DUP7 DUP4 LT ISZERO PUSH2 0x900 JUMPI DUP5 DUP10 ADD MLOAD PUSH2 0x8FC PUSH1 0x1F DUP10 AND DUP3 PUSH2 0x80F JUMP JUMPDEST DUP4 SSTORE POP JUMPDEST PUSH1 0x1 PUSH1 0x2 DUP9 MUL ADD DUP9 SSTORE POP POP POP JUMPDEST POP POP POP POP POP POP JUMP INVALID LOG2 PUSH5 0x6970667358 0x22 SLT KECCAK256 CREATE2 SELFDESTRUCT INVALID PUSH13 0x54900FEBA7491A5A202833A77E PUSH23 0x890281E7A2825C82123A23567F9864736F6C6343000819 STOP CALLER "
		},
		"gasEstimates": {
			"creation": {
				"codeDepositCost": "475800",
				"executionCost": "509",
				"totalCost": "476309"
			},
			"external": {
				"getStudent()": "infinite",
				"setStudent(string,string)": "infinite"
			}
		},
		"methodIdentifiers": {
			"getStudent()": "b439548d",
			"setStudent(string,string)": "6cb6598d"
		}
	},
	"abi": [
		{
			"inputs": [],
			"name": "getStudent",
			"outputs": [
				{
					"components": [
						{
							"internalType": "uint256",
							"name": "number",
							"type": "uint256"
						},
						{
							"internalType": "string",
							"name": "name",
							"type": "string"
						},
						{
							"internalType": "string",
							"name": "class",
							"type": "string"
						}
					],
					"internalType": "struct Q14.Student[]",
					"name": "",
					"type": "tuple[]"
				}
			],
			"stateMutability": "view",
			"type": "function"
		},
		{
			"inputs": [
				{
					"internalType": "string",
					"name": "_name",
					"type": "string"
				},
				{
					"internalType": "string",
					"name": "_class",
					"type": "string"
				}
			],
			"name": "setStudent",
			"outputs": [],
			"stateMutability": "nonpayable",
			"type": "function"
		}
	]
}