{
	"data": {
		"bytecode": {
			"linkReferences": {},
			"object": "6080604052348015600e575f80fd5b506103aa8061001c5f395ff3fe608060405234801561000f575f80fd5b5060043610610029575f3560e01c80636f060d5d1461002d575b5f80fd5b61004760048036038101906100429190610239565b61005e565b6040516100559291906102ab565b60405180910390f35b5f80836040516020016100719190610324565b6040516020818303038152906040528051906020012083604051602001610098919061035a565b60405160208183030381529060405280519060200120915091509250929050565b5f604051905090565b5f80fd5b5f80fd5b5f80fd5b5f80fd5b5f601f19601f8301169050919050565b7f4e487b71000000000000000000000000000000000000000000000000000000005f52604160045260245ffd5b610118826100d2565b810181811067ffffffffffffffff82111715610137576101366100e2565b5b80604052505050565b5f6101496100b9565b9050610155828261010f565b919050565b5f67ffffffffffffffff821115610174576101736100e2565b5b61017d826100d2565b9050602081019050919050565b828183375f83830152505050565b5f6101aa6101a58461015a565b610140565b9050828152602081018484840111156101c6576101c56100ce565b5b6101d184828561018a565b509392505050565b5f82601f8301126101ed576101ec6100ca565b5b81356101fd848260208601610198565b91505092915050565b5f819050919050565b61021881610206565b8114610222575f80fd5b50565b5f813590506102338161020f565b92915050565b5f806040838503121561024f5761024e6100c2565b5b5f83013567ffffffffffffffff81111561026c5761026b6100c6565b5b610278858286016101d9565b925050602061028985828601610225565b9150509250929050565b5f819050919050565b6102a581610293565b82525050565b5f6040820190506102be5f83018561029c565b6102cb602083018461029c565b9392505050565b5f81519050919050565b5f81905092915050565b8281835e5f83830152505050565b5f6102fe826102d2565b61030881856102dc565b93506103188185602086016102e6565b80840191505092915050565b5f61032f82846102f4565b915081905092915050565b5f819050919050565b61035461034f82610206565b61033a565b82525050565b5f6103658284610343565b6020820191508190509291505056fea2646970667358221220f9107aae54aeafb137185fb575d365499c0089cf5b438a5b3514d774087c2fcd64736f6c63430008190033",
			"opcodes": "PUSH1 0x80 PUSH1 0x40 MSTORE CALLVALUE DUP1 ISZERO PUSH1 0xE JUMPI PUSH0 DUP1 REVERT JUMPDEST POP PUSH2 0x3AA DUP1 PUSH2 0x1C PUSH0 CODECOPY PUSH0 RETURN INVALID PUSH1 0x80 PUSH1 0x40 MSTORE CALLVALUE DUP1 ISZERO PUSH2 0xF JUMPI PUSH0 DUP1 REVERT JUMPDEST POP PUSH1 0x4 CALLDATASIZE LT PUSH2 0x29 JUMPI PUSH0 CALLDATALOAD PUSH1 0xE0 SHR DUP1 PUSH4 0x6F060D5D EQ PUSH2 0x2D JUMPI JUMPDEST PUSH0 DUP1 REVERT JUMPDEST PUSH2 0x47 PUSH1 0x4 DUP1 CALLDATASIZE SUB DUP2 ADD SWAP1 PUSH2 0x42 SWAP2 SWAP1 PUSH2 0x239 JUMP JUMPDEST PUSH2 0x5E JUMP JUMPDEST PUSH1 0x40 MLOAD PUSH2 0x55 SWAP3 SWAP2 SWAP1 PUSH2 0x2AB JUMP JUMPDEST PUSH1 0x40 MLOAD DUP1 SWAP2 SUB SWAP1 RETURN JUMPDEST PUSH0 DUP1 DUP4 PUSH1 0x40 MLOAD PUSH1 0x20 ADD PUSH2 0x71 SWAP2 SWAP1 PUSH2 0x324 JUMP JUMPDEST PUSH1 0x40 MLOAD PUSH1 0x20 DUP2 DUP4 SUB SUB DUP2 MSTORE SWAP1 PUSH1 0x40 MSTORE DUP1 MLOAD SWAP1 PUSH1 0x20 ADD KECCAK256 DUP4 PUSH1 0x40 MLOAD PUSH1 0x20 ADD PUSH2 0x98 SWAP2 SWAP1 PUSH2 0x35A JUMP JUMPDEST PUSH1 0x40 MLOAD PUSH1 0x20 DUP2 DUP4 SUB SUB DUP2 MSTORE SWAP1 PUSH1 0x40 MSTORE DUP1 MLOAD SWAP1 PUSH1 0x20 ADD KECCAK256 SWAP2 POP SWAP2 POP SWAP3 POP SWAP3 SWAP1 POP JUMP JUMPDEST PUSH0 PUSH1 0x40 MLOAD SWAP1 POP SWAP1 JUMP JUMPDEST PUSH0 DUP1 REVERT JUMPDEST PUSH0 DUP1 REVERT JUMPDEST PUSH0 DUP1 REVERT JUMPDEST PUSH0 DUP1 REVERT JUMPDEST PUSH0 PUSH1 0x1F NOT PUSH1 0x1F DUP4 ADD AND SWAP1 POP SWAP2 SWAP1 POP JUMP JUMPDEST PUSH32 0x4E487B7100000000000000000000000000000000000000000000000000000000 PUSH0 MSTORE PUSH1 0x41 PUSH1 0x4 MSTORE PUSH1 0x24 PUSH0 REVERT JUMPDEST PUSH2 0x118 DUP3 PUSH2 0xD2 JUMP JUMPDEST DUP2 ADD DUP2 DUP2 LT PUSH8 0xFFFFFFFFFFFFFFFF DUP3 GT OR ISZERO PUSH2 0x137 JUMPI PUSH2 0x136 PUSH2 0xE2 JUMP JUMPDEST JUMPDEST DUP1 PUSH1 0x40 MSTORE POP POP POP JUMP JUMPDEST PUSH0 PUSH2 0x149 PUSH2 0xB9 JUMP JUMPDEST SWAP1 POP PUSH2 0x155 DUP3 DUP3 PUSH2 0x10F JUMP JUMPDEST SWAP2 SWAP1 POP JUMP JUMPDEST PUSH0 PUSH8 0xFFFFFFFFFFFFFFFF DUP3 GT ISZERO PUSH2 0x174 JUMPI PUSH2 0x173 PUSH2 0xE2 JUMP JUMPDEST JUMPDEST PUSH2 0x17D DUP3 PUSH2 0xD2 JUMP JUMPDEST SWAP1 POP PUSH1 0x20 DUP2 ADD SWAP1 POP SWAP2 SWAP1 POP JUMP JUMPDEST DUP3 DUP2 DUP4 CALLDATACOPY PUSH0 DUP4 DUP4 ADD MSTORE POP POP POP JUMP JUMPDEST PUSH0 PUSH2 0x1AA PUSH2 0x1A5 DUP5 PUSH2 0x15A JUMP JUMPDEST PUSH2 0x140 JUMP JUMPDEST SWAP1 POP DUP3 DUP2 MSTORE PUSH1 0x20 DUP2 ADD DUP5 DUP5 DUP5 ADD GT ISZERO PUSH2 0x1C6 JUMPI PUSH2 0x1C5 PUSH2 0xCE JUMP JUMPDEST JUMPDEST PUSH2 0x1D1 DUP5 DUP3 DUP6 PUSH2 0x18A JUMP JUMPDEST POP SWAP4 SWAP3 POP POP POP JUMP JUMPDEST PUSH0 DUP3 PUSH1 0x1F DUP4 ADD SLT PUSH2 0x1ED JUMPI PUSH2 0x1EC PUSH2 0xCA JUMP JUMPDEST JUMPDEST DUP2 CALLDATALOAD PUSH2 0x1FD DUP5 DUP3 PUSH1 0x20 DUP7 ADD PUSH2 0x198 JUMP JUMPDEST SWAP2 POP POP SWAP3 SWAP2 POP POP JUMP JUMPDEST PUSH0 DUP2 SWAP1 POP SWAP2 SWAP1 POP JUMP JUMPDEST PUSH2 0x218 DUP2 PUSH2 0x206 JUMP JUMPDEST DUP2 EQ PUSH2 0x222 JUMPI PUSH0 DUP1 REVERT JUMPDEST POP JUMP JUMPDEST PUSH0 DUP2 CALLDATALOAD SWAP1 POP PUSH2 0x233 DUP2 PUSH2 0x20F JUMP JUMPDEST SWAP3 SWAP2 POP POP JUMP JUMPDEST PUSH0 DUP1 PUSH1 0x40 DUP4 DUP6 SUB SLT ISZERO PUSH2 0x24F JUMPI PUSH2 0x24E PUSH2 0xC2 JUMP JUMPDEST JUMPDEST PUSH0 DUP4 ADD CALLDATALOAD PUSH8 0xFFFFFFFFFFFFFFFF DUP2 GT ISZERO PUSH2 0x26C JUMPI PUSH2 0x26B PUSH2 0xC6 JUMP JUMPDEST JUMPDEST PUSH2 0x278 DUP6 DUP3 DUP7 ADD PUSH2 0x1D9 JUMP JUMPDEST SWAP3 POP POP PUSH1 0x20 PUSH2 0x289 DUP6 DUP3 DUP7 ADD PUSH2 0x225 JUMP JUMPDEST SWAP2 POP POP SWAP3 POP SWAP3 SWAP1 POP JUMP JUMPDEST PUSH0 DUP2 SWAP1 POP SWAP2 SWAP1 POP JUMP JUMPDEST PUSH2 0x2A5 DUP2 PUSH2 0x293 JUMP JUMPDEST DUP3 MSTORE POP POP JUMP JUMPDEST PUSH0 PUSH1 0x40 DUP3 ADD SWAP1 POP PUSH2 0x2BE PUSH0 DUP4 ADD DUP6 PUSH2 0x29C JUMP JUMPDEST PUSH2 0x2CB PUSH1 0x20 DUP4 ADD DUP5 PUSH2 0x29C JUMP JUMPDEST SWAP4 SWAP3 POP POP POP JUMP JUMPDEST PUSH0 DUP2 MLOAD SWAP1 POP SWAP2 SWAP1 POP JUMP JUMPDEST PUSH0 DUP2 SWAP1 POP SWAP3 SWAP2 POP POP JUMP JUMPDEST DUP3 DUP2 DUP4 MCOPY PUSH0 DUP4 DUP4 ADD MSTORE POP POP POP JUMP JUMPDEST PUSH0 PUSH2 0x2FE DUP3 PUSH2 0x2D2 JUMP JUMPDEST PUSH2 0x308 DUP2 DUP6 PUSH2 0x2DC JUMP JUMPDEST SWAP4 POP PUSH2 0x318 DUP2 DUP6 PUSH1 0x20 DUP7 ADD PUSH2 0x2E6 JUMP JUMPDEST DUP1 DUP5 ADD SWAP2 POP POP SWAP3 SWAP2 POP POP JUMP JUMPDEST PUSH0 PUSH2 0x32F DUP3 DUP5 PUSH2 0x2F4 JUMP JUMPDEST SWAP2 POP DUP2 SWAP1 POP SWAP3 SWAP2 POP POP JUMP JUMPDEST PUSH0 DUP2 SWAP1 POP SWAP2 SWAP1 POP JUMP JUMPDEST PUSH2 0x354 PUSH2 0x34F DUP3 PUSH2 0x206 JUMP JUMPDEST PUSH2 0x33A JUMP JUMPDEST DUP3 MSTORE POP POP JUMP JUMPDEST PUSH0 PUSH2 0x365 DUP3 DUP5 PUSH2 0x343 JUMP JUMPDEST PUSH1 0x20 DUP3 ADD SWAP2 POP DUP2 SWAP1 POP SWAP3 SWAP2 POP POP JUMP INVALID LOG2 PUSH5 0x6970667358 0x22 SLT KECCAK256 0xF9 LT PUSH27 0xAE54AEAFB137185FB575D365499C0089CF5B438A5B3514D774087C 0x2F 0xCD PUSH5 0x736F6C6343 STOP ADDMOD NOT STOP CALLER "
		},
		"gasEstimates": {
			"creation": {
				"codeDepositCost": "187600",
				"executionCost": "230",
				"totalCost": "187830"
			},
			"external": {
				"hashIdPw(string,uint256)": "infinite"
			}
		},
		"methodIdentifiers": {
			"hashIdPw(string,uint256)": "6f060d5d"
		}
	},
	"abi": [
		{
			"inputs": [
				{
					"internalType": "string",
					"name": "_a",
					"type": "string"
				},
				{
					"internalType": "uint256",
					"name": "_b",
					"type": "uint256"
				}
			],
			"name": "hashIdPw",
			"outputs": [
				{
					"internalType": "bytes32",
					"name": "",
					"type": "bytes32"
				},
				{
					"internalType": "bytes32",
					"name": "",
					"type": "bytes32"
				}
			],
			"stateMutability": "pure",
			"type": "function"
		}
	]
}