{
	"data": {
		"bytecode": {
			"linkReferences": {},
			"object": "6080604052348015600e575f80fd5b506109e98061001c5f395ff3fe608060405234801561000f575f80fd5b5060043610610034575f3560e01c8063390b6a4c146100385780639b4d52dd14610056575b5f80fd5b610040610086565b60405161004d919061027f565b60405180910390f35b610070600480360381019061006b919061040f565b6100ea565b60405161007d91906105e0565b60405180910390f35b5f805f5b5f805490508110156100d3575f81815481106100a9576100a8610600565b5b905f5260205f20906003020160020154826100c4919061065a565b9150808060010191505061008a565b505f80549050816100e491906106ba565b91505090565b60605f604051806060016040528085815260200160015f8054905061010f919061065a565b815260200184815250908060018154018082558091505060019003905f5260205f2090600302015f909190919091505f820151815f01908161015191906108e4565b50602082015181600101556040820151816002015550505f805480602002602001604051908101604052809291908181526020015f905b8282101561025b578382905f5260205f2090600302016040518060600160405290815f820180546101b890610717565b80601f01602080910402602001604051908101604052809291908181526020018280546101e490610717565b801561022f5780601f106102065761010080835404028352916020019161022f565b820191905f5260205f20905b81548152906001019060200180831161021257829003601f168201915b505050505081526020016001820154815260200160028201548152505081526020019060010190610188565b50505050905092915050565b5f819050919050565b61027981610267565b82525050565b5f6020820190506102925f830184610270565b92915050565b5f604051905090565b5f80fd5b5f80fd5b5f80fd5b5f80fd5b5f601f19601f8301169050919050565b7f4e487b71000000000000000000000000000000000000000000000000000000005f52604160045260245ffd5b6102f7826102b1565b810181811067ffffffffffffffff82111715610316576103156102c1565b5b80604052505050565b5f610328610298565b905061033482826102ee565b919050565b5f67ffffffffffffffff821115610353576103526102c1565b5b61035c826102b1565b9050602081019050919050565b828183375f83830152505050565b5f61038961038484610339565b61031f565b9050828152602081018484840111156103a5576103a46102ad565b5b6103b0848285610369565b509392505050565b5f82601f8301126103cc576103cb6102a9565b5b81356103dc848260208601610377565b91505092915050565b6103ee81610267565b81146103f8575f80fd5b50565b5f81359050610409816103e5565b92915050565b5f8060408385031215610425576104246102a1565b5b5f83013567ffffffffffffffff811115610442576104416102a5565b5b61044e858286016103b8565b925050602061045f858286016103fb565b9150509250929050565b5f81519050919050565b5f82825260208201905092915050565b5f819050602082019050919050565b5f81519050919050565b5f82825260208201905092915050565b8281835e5f83830152505050565b5f6104c482610492565b6104ce818561049c565b93506104de8185602086016104ac565b6104e7816102b1565b840191505092915050565b6104fb81610267565b82525050565b5f606083015f8301518482035f86015261051b82826104ba565b915050602083015161053060208601826104f2565b50604083015161054360408601826104f2565b508091505092915050565b5f6105598383610501565b905092915050565b5f602082019050919050565b5f61057782610469565b6105818185610473565b93508360208202850161059385610483565b805f5b858110156105ce57848403895281516105af858261054e565b94506105ba83610561565b925060208a01995050600181019050610596565b50829750879550505050505092915050565b5f6020820190508181035f8301526105f8818461056d565b905092915050565b7f4e487b71000000000000000000000000000000000000000000000000000000005f52603260045260245ffd5b7f4e487b71000000000000000000000000000000000000000000000000000000005f52601160045260245ffd5b5f61066482610267565b915061066f83610267565b92508282019050808211156106875761068661062d565b5b92915050565b7f4e487b71000000000000000000000000000000000000000000000000000000005f52601260045260245ffd5b5f6106c482610267565b91506106cf83610267565b9250826106df576106de61068d565b5b828204905092915050565b7f4e487b71000000000000000000000000000000000000000000000000000000005f52602260045260245ffd5b5f600282049050600182168061072e57607f821691505b602082108103610741576107406106ea565b5b50919050565b5f819050815f5260205f209050919050565b5f6020601f8301049050919050565b5f82821b905092915050565b5f600883026107a37fffffffffffffffffffffffffffffffffffffffffffffffffffffffffffffffff82610768565b6107ad8683610768565b95508019841693508086168417925050509392505050565b5f819050919050565b5f6107e86107e36107de84610267565b6107c5565b610267565b9050919050565b5f819050919050565b610801836107ce565b61081561080d826107ef565b848454610774565b825550505050565b5f90565b61082961081d565b6108348184846107f8565b505050565b5b818110156108575761084c5f82610821565b60018101905061083a565b5050565b601f82111561089c5761086d81610747565b61087684610759565b81016020851015610885578190505b61089961089185610759565b830182610839565b50505b505050565b5f82821c905092915050565b5f6108bc5f19846008026108a1565b1980831691505092915050565b5f6108d483836108ad565b9150826002028217905092915050565b6108ed82610492565b67ffffffffffffffff811115610906576109056102c1565b5b6109108254610717565b61091b82828561085b565b5f60209050601f83116001811461094c575f841561093a578287015190505b61094485826108c9565b8655506109ab565b601f19841661095a86610747565b5f5b828110156109815784890151825560018201915060208501945060208101905061095c565b8683101561099e578489015161099a601f8916826108ad565b8355505b6001600288020188555050505b50505050505056fea26469706673582212205868155bb17055518c7d3acc6a8e5a276301ce26c60bd76f918bdd4b8eb12f6f64736f6c63430008190033",
			"opcodes": "PUSH1 0x80 PUSH1 0x40 MSTORE CALLVALUE DUP1 ISZERO PUSH1 0xE JUMPI PUSH0 DUP1 REVERT JUMPDEST POP PUSH2 0x9E9 DUP1 PUSH2 0x1C PUSH0 CODECOPY PUSH0 RETURN INVALID PUSH1 0x80 PUSH1 0x40 MSTORE CALLVALUE DUP1 ISZERO PUSH2 0xF JUMPI PUSH0 DUP1 REVERT JUMPDEST POP PUSH1 0x4 CALLDATASIZE LT PUSH2 0x34 JUMPI PUSH0 CALLDATALOAD PUSH1 0xE0 SHR DUP1 PUSH4 0x390B6A4C EQ PUSH2 0x38 JUMPI DUP1 PUSH4 0x9B4D52DD EQ PUSH2 0x56 JUMPI JUMPDEST PUSH0 DUP1 REVERT JUMPDEST PUSH2 0x40 PUSH2 0x86 JUMP JUMPDEST PUSH1 0x40 MLOAD PUSH2 0x4D SWAP2 SWAP1 PUSH2 0x27F JUMP JUMPDEST PUSH1 0x40 MLOAD DUP1 SWAP2 SUB SWAP1 RETURN JUMPDEST PUSH2 0x70 PUSH1 0x4 DUP1 CALLDATASIZE SUB DUP2 ADD SWAP1 PUSH2 0x6B SWAP2 SWAP1 PUSH2 0x40F JUMP JUMPDEST PUSH2 0xEA JUMP JUMPDEST PUSH1 0x40 MLOAD PUSH2 0x7D SWAP2 SWAP1 PUSH2 0x5E0 JUMP JUMPDEST PUSH1 0x40 MLOAD DUP1 SWAP2 SUB SWAP1 RETURN JUMPDEST PUSH0 DUP1 PUSH0 JUMPDEST PUSH0 DUP1 SLOAD SWAP1 POP DUP2 LT ISZERO PUSH2 0xD3 JUMPI PUSH0 DUP2 DUP2 SLOAD DUP2 LT PUSH2 0xA9 JUMPI PUSH2 0xA8 PUSH2 0x600 JUMP JUMPDEST JUMPDEST SWAP1 PUSH0 MSTORE PUSH1 0x20 PUSH0 KECCAK256 SWAP1 PUSH1 0x3 MUL ADD PUSH1 0x2 ADD SLOAD DUP3 PUSH2 0xC4 SWAP2 SWAP1 PUSH2 0x65A JUMP JUMPDEST SWAP2 POP DUP1 DUP1 PUSH1 0x1 ADD SWAP2 POP POP PUSH2 0x8A JUMP JUMPDEST POP PUSH0 DUP1 SLOAD SWAP1 POP DUP2 PUSH2 0xE4 SWAP2 SWAP1 PUSH2 0x6BA JUMP JUMPDEST SWAP2 POP POP SWAP1 JUMP JUMPDEST PUSH1 0x60 PUSH0 PUSH1 0x40 MLOAD DUP1 PUSH1 0x60 ADD PUSH1 0x40 MSTORE DUP1 DUP6 DUP2 MSTORE PUSH1 0x20 ADD PUSH1 0x1 PUSH0 DUP1 SLOAD SWAP1 POP PUSH2 0x10F SWAP2 SWAP1 PUSH2 0x65A JUMP JUMPDEST DUP2 MSTORE PUSH1 0x20 ADD DUP5 DUP2 MSTORE POP SWAP1 DUP1 PUSH1 0x1 DUP2 SLOAD ADD DUP1 DUP3 SSTORE DUP1 SWAP2 POP POP PUSH1 0x1 SWAP1 SUB SWAP1 PUSH0 MSTORE PUSH1 0x20 PUSH0 KECCAK256 SWAP1 PUSH1 0x3 MUL ADD PUSH0 SWAP1 SWAP2 SWAP1 SWAP2 SWAP1 SWAP2 POP PUSH0 DUP3 ADD MLOAD DUP2 PUSH0 ADD SWAP1 DUP2 PUSH2 0x151 SWAP2 SWAP1 PUSH2 0x8E4 JUMP JUMPDEST POP PUSH1 0x20 DUP3 ADD MLOAD DUP2 PUSH1 0x1 ADD SSTORE PUSH1 0x40 DUP3 ADD MLOAD DUP2 PUSH1 0x2 ADD SSTORE POP POP PUSH0 DUP1 SLOAD DUP1 PUSH1 0x20 MUL PUSH1 0x20 ADD PUSH1 0x40 MLOAD SWAP1 DUP2 ADD PUSH1 0x40 MSTORE DUP1 SWAP3 SWAP2 SWAP1 DUP2 DUP2 MSTORE PUSH1 0x20 ADD PUSH0 SWAP1 JUMPDEST DUP3 DUP3 LT ISZERO PUSH2 0x25B JUMPI DUP4 DUP3 SWAP1 PUSH0 MSTORE PUSH1 0x20 PUSH0 KECCAK256 SWAP1 PUSH1 0x3 MUL ADD PUSH1 0x40 MLOAD DUP1 PUSH1 0x60 ADD PUSH1 0x40 MSTORE SWAP1 DUP2 PUSH0 DUP3 ADD DUP1 SLOAD PUSH2 0x1B8 SWAP1 PUSH2 0x717 JUMP JUMPDEST DUP1 PUSH1 0x1F ADD PUSH1 0x20 DUP1 SWAP2 DIV MUL PUSH1 0x20 ADD PUSH1 0x40 MLOAD SWAP1 DUP2 ADD PUSH1 0x40 MSTORE DUP1 SWAP3 SWAP2 SWAP1 DUP2 DUP2 MSTORE PUSH1 0x20 ADD DUP3 DUP1 SLOAD PUSH2 0x1E4 SWAP1 PUSH2 0x717 JUMP JUMPDEST DUP1 ISZERO PUSH2 0x22F JUMPI DUP1 PUSH1 0x1F LT PUSH2 0x206 JUMPI PUSH2 0x100 DUP1 DUP4 SLOAD DIV MUL DUP4 MSTORE SWAP2 PUSH1 0x20 ADD SWAP2 PUSH2 0x22F JUMP JUMPDEST DUP3 ADD SWAP2 SWAP1 PUSH0 MSTORE PUSH1 0x20 PUSH0 KECCAK256 SWAP1 JUMPDEST DUP2 SLOAD DUP2 MSTORE SWAP1 PUSH1 0x1 ADD SWAP1 PUSH1 0x20 ADD DUP1 DUP4 GT PUSH2 0x212 JUMPI DUP3 SWAP1 SUB PUSH1 0x1F AND DUP3 ADD SWAP2 JUMPDEST POP POP POP POP POP DUP2 MSTORE PUSH1 0x20 ADD PUSH1 0x1 DUP3 ADD SLOAD DUP2 MSTORE PUSH1 0x20 ADD PUSH1 0x2 DUP3 ADD SLOAD DUP2 MSTORE POP POP DUP2 MSTORE PUSH1 0x20 ADD SWAP1 PUSH1 0x1 ADD SWAP1 PUSH2 0x188 JUMP JUMPDEST POP POP POP POP SWAP1 POP SWAP3 SWAP2 POP POP JUMP JUMPDEST PUSH0 DUP2 SWAP1 POP SWAP2 SWAP1 POP JUMP JUMPDEST PUSH2 0x279 DUP2 PUSH2 0x267 JUMP JUMPDEST DUP3 MSTORE POP POP JUMP JUMPDEST PUSH0 PUSH1 0x20 DUP3 ADD SWAP1 POP PUSH2 0x292 PUSH0 DUP4 ADD DUP5 PUSH2 0x270 JUMP JUMPDEST SWAP3 SWAP2 POP POP JUMP JUMPDEST PUSH0 PUSH1 0x40 MLOAD SWAP1 POP SWAP1 JUMP JUMPDEST PUSH0 DUP1 REVERT JUMPDEST PUSH0 DUP1 REVERT JUMPDEST PUSH0 DUP1 REVERT JUMPDEST PUSH0 DUP1 REVERT JUMPDEST PUSH0 PUSH1 0x1F NOT PUSH1 0x1F DUP4 ADD AND SWAP1 POP SWAP2 SWAP1 POP JUMP JUMPDEST PUSH32 0x4E487B7100000000000000000000000000000000000000000000000000000000 PUSH0 MSTORE PUSH1 0x41 PUSH1 0x4 MSTORE PUSH1 0x24 PUSH0 REVERT JUMPDEST PUSH2 0x2F7 DUP3 PUSH2 0x2B1 JUMP JUMPDEST DUP2 ADD DUP2 DUP2 LT PUSH8 0xFFFFFFFFFFFFFFFF DUP3 GT OR ISZERO PUSH2 0x316 JUMPI PUSH2 0x315 PUSH2 0x2C1 JUMP JUMPDEST JUMPDEST DUP1 PUSH1 0x40 MSTORE POP POP POP JUMP JUMPDEST PUSH0 PUSH2 0x328 PUSH2 0x298 JUMP JUMPDEST SWAP1 POP PUSH2 0x334 DUP3 DUP3 PUSH2 0x2EE JUMP JUMPDEST SWAP2 SWAP1 POP JUMP JUMPDEST PUSH0 PUSH8 0xFFFFFFFFFFFFFFFF DUP3 GT ISZERO PUSH2 0x353 JUMPI PUSH2 0x352 PUSH2 0x2C1 JUMP JUMPDEST JUMPDEST PUSH2 0x35C DUP3 PUSH2 0x2B1 JUMP JUMPDEST SWAP1 POP PUSH1 0x20 DUP2 ADD SWAP1 POP SWAP2 SWAP1 POP JUMP JUMPDEST DUP3 DUP2 DUP4 CALLDATACOPY PUSH0 DUP4 DUP4 ADD MSTORE POP POP POP JUMP JUMPDEST PUSH0 PUSH2 0x389 PUSH2 0x384 DUP5 PUSH2 0x339 JUMP JUMPDEST PUSH2 0x31F JUMP JUMPDEST SWAP1 POP DUP3 DUP2 MSTORE PUSH1 0x20 DUP2 ADD DUP5 DUP5 DUP5 ADD GT ISZERO PUSH2 0x3A5 JUMPI PUSH2 0x3A4 PUSH2 0x2AD JUMP JUMPDEST JUMPDEST PUSH2 0x3B0 DUP5 DUP3 DUP6 PUSH2 0x369 JUMP JUMPDEST POP SWAP4 SWAP3 POP POP POP JUMP JUMPDEST PUSH0 DUP3 PUSH1 0x1F DUP4 ADD SLT PUSH2 0x3CC JUMPI PUSH2 0x3CB PUSH2 0x2A9 JUMP JUMPDEST JUMPDEST DUP2 CALLDATALOAD PUSH2 0x3DC DUP5 DUP3 PUSH1 0x20 DUP7 ADD PUSH2 0x377 JUMP JUMPDEST SWAP2 POP POP SWAP3 SWAP2 POP POP JUMP JUMPDEST PUSH2 0x3EE DUP2 PUSH2 0x267 JUMP JUMPDEST DUP2 EQ PUSH2 0x3F8 JUMPI PUSH0 DUP1 REVERT JUMPDEST POP JUMP JUMPDEST PUSH0 DUP2 CALLDATALOAD SWAP1 POP PUSH2 0x409 DUP2 PUSH2 0x3E5 JUMP JUMPDEST SWAP3 SWAP2 POP POP JUMP JUMPDEST PUSH0 DUP1 PUSH1 0x40 DUP4 DUP6 SUB SLT ISZERO PUSH2 0x425 JUMPI PUSH2 0x424 PUSH2 0x2A1 JUMP JUMPDEST JUMPDEST PUSH0 DUP4 ADD CALLDATALOAD PUSH8 0xFFFFFFFFFFFFFFFF DUP2 GT ISZERO PUSH2 0x442 JUMPI PUSH2 0x441 PUSH2 0x2A5 JUMP JUMPDEST JUMPDEST PUSH2 0x44E DUP6 DUP3 DUP7 ADD PUSH2 0x3B8 JUMP JUMPDEST SWAP3 POP POP PUSH1 0x20 PUSH2 0x45F DUP6 DUP3 DUP7 ADD PUSH2 0x3FB JUMP JUMPDEST SWAP2 POP POP SWAP3 POP SWAP3 SWAP1 POP JUMP JUMPDEST PUSH0 DUP2 MLOAD SWAP1 POP SWAP2 SWAP1 POP JUMP JUMPDEST PUSH0 DUP3 DUP3 MSTORE PUSH1 0x20 DUP3 ADD SWAP1 POP SWAP3 SWAP2 POP POP JUMP JUMPDEST PUSH0 DUP2 SWAP1 POP PUSH1 0x20 DUP3 ADD SWAP1 POP SWAP2 SWAP1 POP JUMP JUMPDEST PUSH0 DUP2 MLOAD SWAP1 POP SWAP2 SWAP1 POP JUMP JUMPDEST PUSH0 DUP3 DUP3 MSTORE PUSH1 0x20 DUP3 ADD SWAP1 POP SWAP3 SWAP2 POP POP JUMP JUMPDEST DUP3 DUP2 DUP4 MCOPY PUSH0 DUP4 DUP4 ADD MSTORE POP POP POP JUMP JUMPDEST PUSH0 PUSH2 0x4C4 DUP3 PUSH2 0x492 JUMP JUMPDEST PUSH2 0x4CE DUP2 DUP6 PUSH2 0x49C JUMP JUMPDEST SWAP4 POP PUSH2 0x4DE DUP2 DUP6 PUSH1 0x20 DUP7 ADD PUSH2 0x4AC JUMP JUMPDEST PUSH2 0x4E7 DUP2 PUSH2 0x2B1 JUMP JUMPDEST DUP5 ADD SWAP2 POP POP SWAP3 SWAP2 POP POP JUMP JUMPDEST PUSH2 0x4FB DUP2 PUSH2 0x267 JUMP JUMPDEST DUP3 MSTORE POP POP JUMP JUMPDEST PUSH0 PUSH1 0x60 DUP4 ADD PUSH0 DUP4 ADD MLOAD DUP5 DUP3 SUB PUSH0 DUP7 ADD MSTORE PUSH2 0x51B DUP3 DUP3 PUSH2 0x4BA JUMP JUMPDEST SWAP2 POP POP PUSH1 0x20 DUP4 ADD MLOAD PUSH2 0x530 PUSH1 0x20 DUP7 ADD DUP3 PUSH2 0x4F2 JUMP JUMPDEST POP PUSH1 0x40 DUP4 ADD MLOAD PUSH2 0x543 PUSH1 0x40 DUP7 ADD DUP3 PUSH2 0x4F2 JUMP JUMPDEST POP DUP1 SWAP2 POP POP SWAP3 SWAP2 POP POP JUMP JUMPDEST PUSH0 PUSH2 0x559 DUP4 DUP4 PUSH2 0x501 JUMP JUMPDEST SWAP1 POP SWAP3 SWAP2 POP POP JUMP JUMPDEST PUSH0 PUSH1 0x20 DUP3 ADD SWAP1 POP SWAP2 SWAP1 POP JUMP JUMPDEST PUSH0 PUSH2 0x577 DUP3 PUSH2 0x469 JUMP JUMPDEST PUSH2 0x581 DUP2 DUP6 PUSH2 0x473 JUMP JUMPDEST SWAP4 POP DUP4 PUSH1 0x20 DUP3 MUL DUP6 ADD PUSH2 0x593 DUP6 PUSH2 0x483 JUMP JUMPDEST DUP1 PUSH0 JUMPDEST DUP6 DUP2 LT ISZERO PUSH2 0x5CE JUMPI DUP5 DUP5 SUB DUP10 MSTORE DUP2 MLOAD PUSH2 0x5AF DUP6 DUP3 PUSH2 0x54E JUMP JUMPDEST SWAP5 POP PUSH2 0x5BA DUP4 PUSH2 0x561 JUMP JUMPDEST SWAP3 POP PUSH1 0x20 DUP11 ADD SWAP10 POP POP PUSH1 0x1 DUP2 ADD SWAP1 POP PUSH2 0x596 JUMP JUMPDEST POP DUP3 SWAP8 POP DUP8 SWAP6 POP POP POP POP POP POP SWAP3 SWAP2 POP POP JUMP JUMPDEST PUSH0 PUSH1 0x20 DUP3 ADD SWAP1 POP DUP2 DUP2 SUB PUSH0 DUP4 ADD MSTORE PUSH2 0x5F8 DUP2 DUP5 PUSH2 0x56D JUMP JUMPDEST SWAP1 POP SWAP3 SWAP2 POP POP JUMP JUMPDEST PUSH32 0x4E487B7100000000000000000000000000000000000000000000000000000000 PUSH0 MSTORE PUSH1 0x32 PUSH1 0x4 MSTORE PUSH1 0x24 PUSH0 REVERT JUMPDEST PUSH32 0x4E487B7100000000000000000000000000000000000000000000000000000000 PUSH0 MSTORE PUSH1 0x11 PUSH1 0x4 MSTORE PUSH1 0x24 PUSH0 REVERT JUMPDEST PUSH0 PUSH2 0x664 DUP3 PUSH2 0x267 JUMP JUMPDEST SWAP2 POP PUSH2 0x66F DUP4 PUSH2 0x267 JUMP JUMPDEST SWAP3 POP DUP3 DUP3 ADD SWAP1 POP DUP1 DUP3 GT ISZERO PUSH2 0x687 JUMPI PUSH2 0x686 PUSH2 0x62D JUMP JUMPDEST JUMPDEST SWAP3 SWAP2 POP POP JUMP JUMPDEST PUSH32 0x4E487B7100000000000000000000000000000000000000000000000000000000 PUSH0 MSTORE PUSH1 0x12 PUSH1 0x4 MSTORE PUSH1 0x24 PUSH0 REVERT JUMPDEST PUSH0 PUSH2 0x6C4 DUP3 PUSH2 0x267 JUMP JUMPDEST SWAP2 POP PUSH2 0x6CF DUP4 PUSH2 0x267 JUMP JUMPDEST SWAP3 POP DUP3 PUSH2 0x6DF JUMPI PUSH2 0x6DE PUSH2 0x68D JUMP JUMPDEST JUMPDEST DUP3 DUP3 DIV SWAP1 POP SWAP3 SWAP2 POP POP JUMP JUMPDEST PUSH32 0x4E487B7100000000000000000000000000000000000000000000000000000000 PUSH0 MSTORE PUSH1 0x22 PUSH1 0x4 MSTORE PUSH1 0x24 PUSH0 REVERT JUMPDEST PUSH0 PUSH1 0x2 DUP3 DIV SWAP1 POP PUSH1 0x1 DUP3 AND DUP1 PUSH2 0x72E JUMPI PUSH1 0x7F DUP3 AND SWAP2 POP JUMPDEST PUSH1 0x20 DUP3 LT DUP2 SUB PUSH2 0x741 JUMPI PUSH2 0x740 PUSH2 0x6EA JUMP JUMPDEST JUMPDEST POP SWAP2 SWAP1 POP JUMP JUMPDEST PUSH0 DUP2 SWAP1 POP DUP2 PUSH0 MSTORE PUSH1 0x20 PUSH0 KECCAK256 SWAP1 POP SWAP2 SWAP1 POP JUMP JUMPDEST PUSH0 PUSH1 0x20 PUSH1 0x1F DUP4 ADD DIV SWAP1 POP SWAP2 SWAP1 POP JUMP JUMPDEST PUSH0 DUP3 DUP3 SHL SWAP1 POP SWAP3 SWAP2 POP POP JUMP JUMPDEST PUSH0 PUSH1 0x8 DUP4 MUL PUSH2 0x7A3 PUSH32 0xFFFFFFFFFFFFFFFFFFFFFFFFFFFFFFFFFFFFFFFFFFFFFFFFFFFFFFFFFFFFFFFF DUP3 PUSH2 0x768 JUMP JUMPDEST PUSH2 0x7AD DUP7 DUP4 PUSH2 0x768 JUMP JUMPDEST SWAP6 POP DUP1 NOT DUP5 AND SWAP4 POP DUP1 DUP7 AND DUP5 OR SWAP3 POP POP POP SWAP4 SWAP3 POP POP POP JUMP JUMPDEST PUSH0 DUP2 SWAP1 POP SWAP2 SWAP1 POP JUMP JUMPDEST PUSH0 PUSH2 0x7E8 PUSH2 0x7E3 PUSH2 0x7DE DUP5 PUSH2 0x267 JUMP JUMPDEST PUSH2 0x7C5 JUMP JUMPDEST PUSH2 0x267 JUMP JUMPDEST SWAP1 POP SWAP2 SWAP1 POP JUMP JUMPDEST PUSH0 DUP2 SWAP1 POP SWAP2 SWAP1 POP JUMP JUMPDEST PUSH2 0x801 DUP4 PUSH2 0x7CE JUMP JUMPDEST PUSH2 0x815 PUSH2 0x80D DUP3 PUSH2 0x7EF JUMP JUMPDEST DUP5 DUP5 SLOAD PUSH2 0x774 JUMP JUMPDEST DUP3 SSTORE POP POP POP POP JUMP JUMPDEST PUSH0 SWAP1 JUMP JUMPDEST PUSH2 0x829 PUSH2 0x81D JUMP JUMPDEST PUSH2 0x834 DUP2 DUP5 DUP5 PUSH2 0x7F8 JUMP JUMPDEST POP POP POP JUMP JUMPDEST JUMPDEST DUP2 DUP2 LT ISZERO PUSH2 0x857 JUMPI PUSH2 0x84C PUSH0 DUP3 PUSH2 0x821 JUMP JUMPDEST PUSH1 0x1 DUP2 ADD SWAP1 POP PUSH2 0x83A JUMP JUMPDEST POP POP JUMP JUMPDEST PUSH1 0x1F DUP3 GT ISZERO PUSH2 0x89C JUMPI PUSH2 0x86D DUP2 PUSH2 0x747 JUMP JUMPDEST PUSH2 0x876 DUP5 PUSH2 0x759 JUMP JUMPDEST DUP2 ADD PUSH1 0x20 DUP6 LT ISZERO PUSH2 0x885 JUMPI DUP2 SWAP1 POP JUMPDEST PUSH2 0x899 PUSH2 0x891 DUP6 PUSH2 0x759 JUMP JUMPDEST DUP4 ADD DUP3 PUSH2 0x839 JUMP JUMPDEST POP POP JUMPDEST POP POP POP JUMP JUMPDEST PUSH0 DUP3 DUP3 SHR SWAP1 POP SWAP3 SWAP2 POP POP JUMP JUMPDEST PUSH0 PUSH2 0x8BC PUSH0 NOT DUP5 PUSH1 0x8 MUL PUSH2 0x8A1 JUMP JUMPDEST NOT DUP1 DUP4 AND SWAP2 POP POP SWAP3 SWAP2 POP POP JUMP JUMPDEST PUSH0 PUSH2 0x8D4 DUP4 DUP4 PUSH2 0x8AD JUMP JUMPDEST SWAP2 POP DUP3 PUSH1 0x2 MUL DUP3 OR SWAP1 POP SWAP3 SWAP2 POP POP JUMP JUMPDEST PUSH2 0x8ED DUP3 PUSH2 0x492 JUMP JUMPDEST PUSH8 0xFFFFFFFFFFFFFFFF DUP2 GT ISZERO PUSH2 0x906 JUMPI PUSH2 0x905 PUSH2 0x2C1 JUMP JUMPDEST JUMPDEST PUSH2 0x910 DUP3 SLOAD PUSH2 0x717 JUMP JUMPDEST PUSH2 0x91B DUP3 DUP3 DUP6 PUSH2 0x85B JUMP JUMPDEST PUSH0 PUSH1 0x20 SWAP1 POP PUSH1 0x1F DUP4 GT PUSH1 0x1 DUP2 EQ PUSH2 0x94C JUMPI PUSH0 DUP5 ISZERO PUSH2 0x93A JUMPI DUP3 DUP8 ADD MLOAD SWAP1 POP JUMPDEST PUSH2 0x944 DUP6 DUP3 PUSH2 0x8C9 JUMP JUMPDEST DUP7 SSTORE POP PUSH2 0x9AB JUMP JUMPDEST PUSH1 0x1F NOT DUP5 AND PUSH2 0x95A DUP7 PUSH2 0x747 JUMP JUMPDEST PUSH0 JUMPDEST DUP3 DUP2 LT ISZERO PUSH2 0x981 JUMPI DUP5 DUP10 ADD MLOAD DUP3 SSTORE PUSH1 0x1 DUP3 ADD SWAP2 POP PUSH1 0x20 DUP6 ADD SWAP5 POP PUSH1 0x20 DUP2 ADD SWAP1 POP PUSH2 0x95C JUMP JUMPDEST DUP7 DUP4 LT ISZERO PUSH2 0x99E JUMPI DUP5 DUP10 ADD MLOAD PUSH2 0x99A PUSH1 0x1F DUP10 AND DUP3 PUSH2 0x8AD JUMP JUMPDEST DUP4 SSTORE POP JUMPDEST PUSH1 0x1 PUSH1 0x2 DUP9 MUL ADD DUP9 SSTORE POP POP POP JUMPDEST POP POP POP POP POP POP JUMP INVALID LOG2 PUSH5 0x6970667358 0x22 SLT KECCAK256 PC PUSH9 0x155BB17055518C7D3A 0xCC PUSH11 0x8E5A276301CE26C60BD76F SWAP2 DUP12 0xDD 0x4B DUP15 0xB1 0x2F PUSH16 0x64736F6C634300081900330000000000 "
		},
		"gasEstimates": {
			"creation": {
				"codeDepositCost": "507400",
				"executionCost": "541",
				"totalCost": "507941"
			},
			"external": {
				"getAvg()": "infinite",
				"setStudent(string,uint256)": "infinite"
			}
		},
		"methodIdentifiers": {
			"getAvg()": "390b6a4c",
			"setStudent(string,uint256)": "9b4d52dd"
		}
	},
	"abi": [
		{
			"inputs": [],
			"name": "getAvg",
			"outputs": [
				{
					"internalType": "uint256",
					"name": "",
					"type": "uint256"
				}
			],
			"stateMutability": "view",
			"type": "function"
		},
		{
			"inputs": [
				{
					"internalType": "string",
					"name": "_name",
					"type": "string"
				},
				{
					"internalType": "uint256",
					"name": "_score",
					"type": "uint256"
				}
			],
			"name": "setStudent",
			"outputs": [
				{
					"components": [
						{
							"internalType": "string",
							"name": "name",
							"type": "string"
						},
						{
							"internalType": "uint256",
							"name": "number",
							"type": "uint256"
						},
						{
							"internalType": "uint256",
							"name": "score",
							"type": "uint256"
						}
					],
					"internalType": "struct Q34.student[]",
					"name": "",
					"type": "tuple[]"
				}
			],
			"stateMutability": "nonpayable",
			"type": "function"
		}
	]
}