{
	"data": {
		"bytecode": {
			"linkReferences": {},
			"object": "6080604052348015600e575f80fd5b506105898061001c5f395ff3fe608060405234801561000f575f80fd5b5060043610610029575f3560e01c806327693d0c1461002d575b5f80fd5b61004760048036038101906100429190610337565b61005d565b6040516100549190610435565b60405180910390f35b60605f80835190505f805f90505b828110156100bc575f600287838151811061008957610088610455565b5b602002602001015161009b91906104af565b036100af5781806100ab9061050c565b9250505b808060010191505061006b565b505f8167ffffffffffffffff8111156100d8576100d76101c8565b5b6040519080825280602002602001820160405280156101065781602001602082028036833780820191505090505b5090505f5b83811015610196575f600288838151811061012957610128610455565b5b602002602001015161013b91906104af565b036101895786818151811061015357610152610455565b5b602002602001015182868151811061016e5761016d610455565b5b60200260200101818152505084806101859061050c565b9550505b808060010191505061010b565b5080945050505050919050565b5f604051905090565b5f80fd5b5f80fd5b5f80fd5b5f601f19601f8301169050919050565b7f4e487b71000000000000000000000000000000000000000000000000000000005f52604160045260245ffd5b6101fe826101b8565b810181811067ffffffffffffffff8211171561021d5761021c6101c8565b5b80604052505050565b5f61022f6101a3565b905061023b82826101f5565b919050565b5f67ffffffffffffffff82111561025a576102596101c8565b5b602082029050602081019050919050565b5f80fd5b5f819050919050565b6102818161026f565b811461028b575f80fd5b50565b5f8135905061029c81610278565b92915050565b5f6102b46102af84610240565b610226565b905080838252602082019050602084028301858111156102d7576102d661026b565b5b835b8181101561030057806102ec888261028e565b8452602084019350506020810190506102d9565b5050509392505050565b5f82601f83011261031e5761031d6101b4565b5b813561032e8482602086016102a2565b91505092915050565b5f6020828403121561034c5761034b6101ac565b5b5f82013567ffffffffffffffff811115610369576103686101b0565b5b6103758482850161030a565b91505092915050565b5f81519050919050565b5f82825260208201905092915050565b5f819050602082019050919050565b6103b08161026f565b82525050565b5f6103c183836103a7565b60208301905092915050565b5f602082019050919050565b5f6103e38261037e565b6103ed8185610388565b93506103f883610398565b805f5b8381101561042857815161040f88826103b6565b975061041a836103cd565b9250506001810190506103fb565b5085935050505092915050565b5f6020820190508181035f83015261044d81846103d9565b905092915050565b7f4e487b71000000000000000000000000000000000000000000000000000000005f52603260045260245ffd5b7f4e487b71000000000000000000000000000000000000000000000000000000005f52601260045260245ffd5b5f6104b98261026f565b91506104c48361026f565b9250826104d4576104d3610482565b5b828206905092915050565b7f4e487b71000000000000000000000000000000000000000000000000000000005f52601160045260245ffd5b5f6105168261026f565b91507fffffffffffffffffffffffffffffffffffffffffffffffffffffffffffffffff8203610548576105476104df565b5b60018201905091905056fea2646970667358221220d99cfcb541965506e4860799b36d8bbb14f8e68aac5f85a74d94c9101b862b4c64736f6c63430008190033",
			"opcodes": "PUSH1 0x80 PUSH1 0x40 MSTORE CALLVALUE DUP1 ISZERO PUSH1 0xE JUMPI PUSH0 DUP1 REVERT JUMPDEST POP PUSH2 0x589 DUP1 PUSH2 0x1C PUSH0 CODECOPY PUSH0 RETURN INVALID PUSH1 0x80 PUSH1 0x40 MSTORE CALLVALUE DUP1 ISZERO PUSH2 0xF JUMPI PUSH0 DUP1 REVERT JUMPDEST POP PUSH1 0x4 CALLDATASIZE LT PUSH2 0x29 JUMPI PUSH0 CALLDATALOAD PUSH1 0xE0 SHR DUP1 PUSH4 0x27693D0C EQ PUSH2 0x2D JUMPI JUMPDEST PUSH0 DUP1 REVERT JUMPDEST PUSH2 0x47 PUSH1 0x4 DUP1 CALLDATASIZE SUB DUP2 ADD SWAP1 PUSH2 0x42 SWAP2 SWAP1 PUSH2 0x337 JUMP JUMPDEST PUSH2 0x5D JUMP JUMPDEST PUSH1 0x40 MLOAD PUSH2 0x54 SWAP2 SWAP1 PUSH2 0x435 JUMP JUMPDEST PUSH1 0x40 MLOAD DUP1 SWAP2 SUB SWAP1 RETURN JUMPDEST PUSH1 0x60 PUSH0 DUP1 DUP4 MLOAD SWAP1 POP PUSH0 DUP1 PUSH0 SWAP1 POP JUMPDEST DUP3 DUP2 LT ISZERO PUSH2 0xBC JUMPI PUSH0 PUSH1 0x2 DUP8 DUP4 DUP2 MLOAD DUP2 LT PUSH2 0x89 JUMPI PUSH2 0x88 PUSH2 0x455 JUMP JUMPDEST JUMPDEST PUSH1 0x20 MUL PUSH1 0x20 ADD ADD MLOAD PUSH2 0x9B SWAP2 SWAP1 PUSH2 0x4AF JUMP JUMPDEST SUB PUSH2 0xAF JUMPI DUP2 DUP1 PUSH2 0xAB SWAP1 PUSH2 0x50C JUMP JUMPDEST SWAP3 POP POP JUMPDEST DUP1 DUP1 PUSH1 0x1 ADD SWAP2 POP POP PUSH2 0x6B JUMP JUMPDEST POP PUSH0 DUP2 PUSH8 0xFFFFFFFFFFFFFFFF DUP2 GT ISZERO PUSH2 0xD8 JUMPI PUSH2 0xD7 PUSH2 0x1C8 JUMP JUMPDEST JUMPDEST PUSH1 0x40 MLOAD SWAP1 DUP1 DUP3 MSTORE DUP1 PUSH1 0x20 MUL PUSH1 0x20 ADD DUP3 ADD PUSH1 0x40 MSTORE DUP1 ISZERO PUSH2 0x106 JUMPI DUP2 PUSH1 0x20 ADD PUSH1 0x20 DUP3 MUL DUP1 CALLDATASIZE DUP4 CALLDATACOPY DUP1 DUP3 ADD SWAP2 POP POP SWAP1 POP JUMPDEST POP SWAP1 POP PUSH0 JUMPDEST DUP4 DUP2 LT ISZERO PUSH2 0x196 JUMPI PUSH0 PUSH1 0x2 DUP9 DUP4 DUP2 MLOAD DUP2 LT PUSH2 0x129 JUMPI PUSH2 0x128 PUSH2 0x455 JUMP JUMPDEST JUMPDEST PUSH1 0x20 MUL PUSH1 0x20 ADD ADD MLOAD PUSH2 0x13B SWAP2 SWAP1 PUSH2 0x4AF JUMP JUMPDEST SUB PUSH2 0x189 JUMPI DUP7 DUP2 DUP2 MLOAD DUP2 LT PUSH2 0x153 JUMPI PUSH2 0x152 PUSH2 0x455 JUMP JUMPDEST JUMPDEST PUSH1 0x20 MUL PUSH1 0x20 ADD ADD MLOAD DUP3 DUP7 DUP2 MLOAD DUP2 LT PUSH2 0x16E JUMPI PUSH2 0x16D PUSH2 0x455 JUMP JUMPDEST JUMPDEST PUSH1 0x20 MUL PUSH1 0x20 ADD ADD DUP2 DUP2 MSTORE POP POP DUP5 DUP1 PUSH2 0x185 SWAP1 PUSH2 0x50C JUMP JUMPDEST SWAP6 POP POP JUMPDEST DUP1 DUP1 PUSH1 0x1 ADD SWAP2 POP POP PUSH2 0x10B JUMP JUMPDEST POP DUP1 SWAP5 POP POP POP POP POP SWAP2 SWAP1 POP JUMP JUMPDEST PUSH0 PUSH1 0x40 MLOAD SWAP1 POP SWAP1 JUMP JUMPDEST PUSH0 DUP1 REVERT JUMPDEST PUSH0 DUP1 REVERT JUMPDEST PUSH0 DUP1 REVERT JUMPDEST PUSH0 PUSH1 0x1F NOT PUSH1 0x1F DUP4 ADD AND SWAP1 POP SWAP2 SWAP1 POP JUMP JUMPDEST PUSH32 0x4E487B7100000000000000000000000000000000000000000000000000000000 PUSH0 MSTORE PUSH1 0x41 PUSH1 0x4 MSTORE PUSH1 0x24 PUSH0 REVERT JUMPDEST PUSH2 0x1FE DUP3 PUSH2 0x1B8 JUMP JUMPDEST DUP2 ADD DUP2 DUP2 LT PUSH8 0xFFFFFFFFFFFFFFFF DUP3 GT OR ISZERO PUSH2 0x21D JUMPI PUSH2 0x21C PUSH2 0x1C8 JUMP JUMPDEST JUMPDEST DUP1 PUSH1 0x40 MSTORE POP POP POP JUMP JUMPDEST PUSH0 PUSH2 0x22F PUSH2 0x1A3 JUMP JUMPDEST SWAP1 POP PUSH2 0x23B DUP3 DUP3 PUSH2 0x1F5 JUMP JUMPDEST SWAP2 SWAP1 POP JUMP JUMPDEST PUSH0 PUSH8 0xFFFFFFFFFFFFFFFF DUP3 GT ISZERO PUSH2 0x25A JUMPI PUSH2 0x259 PUSH2 0x1C8 JUMP JUMPDEST JUMPDEST PUSH1 0x20 DUP3 MUL SWAP1 POP PUSH1 0x20 DUP2 ADD SWAP1 POP SWAP2 SWAP1 POP JUMP JUMPDEST PUSH0 DUP1 REVERT JUMPDEST PUSH0 DUP2 SWAP1 POP SWAP2 SWAP1 POP JUMP JUMPDEST PUSH2 0x281 DUP2 PUSH2 0x26F JUMP JUMPDEST DUP2 EQ PUSH2 0x28B JUMPI PUSH0 DUP1 REVERT JUMPDEST POP JUMP JUMPDEST PUSH0 DUP2 CALLDATALOAD SWAP1 POP PUSH2 0x29C DUP2 PUSH2 0x278 JUMP JUMPDEST SWAP3 SWAP2 POP POP JUMP JUMPDEST PUSH0 PUSH2 0x2B4 PUSH2 0x2AF DUP5 PUSH2 0x240 JUMP JUMPDEST PUSH2 0x226 JUMP JUMPDEST SWAP1 POP DUP1 DUP4 DUP3 MSTORE PUSH1 0x20 DUP3 ADD SWAP1 POP PUSH1 0x20 DUP5 MUL DUP4 ADD DUP6 DUP2 GT ISZERO PUSH2 0x2D7 JUMPI PUSH2 0x2D6 PUSH2 0x26B JUMP JUMPDEST JUMPDEST DUP4 JUMPDEST DUP2 DUP2 LT ISZERO PUSH2 0x300 JUMPI DUP1 PUSH2 0x2EC DUP9 DUP3 PUSH2 0x28E JUMP JUMPDEST DUP5 MSTORE PUSH1 0x20 DUP5 ADD SWAP4 POP POP PUSH1 0x20 DUP2 ADD SWAP1 POP PUSH2 0x2D9 JUMP JUMPDEST POP POP POP SWAP4 SWAP3 POP POP POP JUMP JUMPDEST PUSH0 DUP3 PUSH1 0x1F DUP4 ADD SLT PUSH2 0x31E JUMPI PUSH2 0x31D PUSH2 0x1B4 JUMP JUMPDEST JUMPDEST DUP2 CALLDATALOAD PUSH2 0x32E DUP5 DUP3 PUSH1 0x20 DUP7 ADD PUSH2 0x2A2 JUMP JUMPDEST SWAP2 POP POP SWAP3 SWAP2 POP POP JUMP JUMPDEST PUSH0 PUSH1 0x20 DUP3 DUP5 SUB SLT ISZERO PUSH2 0x34C JUMPI PUSH2 0x34B PUSH2 0x1AC JUMP JUMPDEST JUMPDEST PUSH0 DUP3 ADD CALLDATALOAD PUSH8 0xFFFFFFFFFFFFFFFF DUP2 GT ISZERO PUSH2 0x369 JUMPI PUSH2 0x368 PUSH2 0x1B0 JUMP JUMPDEST JUMPDEST PUSH2 0x375 DUP5 DUP3 DUP6 ADD PUSH2 0x30A JUMP JUMPDEST SWAP2 POP POP SWAP3 SWAP2 POP POP JUMP JUMPDEST PUSH0 DUP2 MLOAD SWAP1 POP SWAP2 SWAP1 POP JUMP JUMPDEST PUSH0 DUP3 DUP3 MSTORE PUSH1 0x20 DUP3 ADD SWAP1 POP SWAP3 SWAP2 POP POP JUMP JUMPDEST PUSH0 DUP2 SWAP1 POP PUSH1 0x20 DUP3 ADD SWAP1 POP SWAP2 SWAP1 POP JUMP JUMPDEST PUSH2 0x3B0 DUP2 PUSH2 0x26F JUMP JUMPDEST DUP3 MSTORE POP POP JUMP JUMPDEST PUSH0 PUSH2 0x3C1 DUP4 DUP4 PUSH2 0x3A7 JUMP JUMPDEST PUSH1 0x20 DUP4 ADD SWAP1 POP SWAP3 SWAP2 POP POP JUMP JUMPDEST PUSH0 PUSH1 0x20 DUP3 ADD SWAP1 POP SWAP2 SWAP1 POP JUMP JUMPDEST PUSH0 PUSH2 0x3E3 DUP3 PUSH2 0x37E JUMP JUMPDEST PUSH2 0x3ED DUP2 DUP6 PUSH2 0x388 JUMP JUMPDEST SWAP4 POP PUSH2 0x3F8 DUP4 PUSH2 0x398 JUMP JUMPDEST DUP1 PUSH0 JUMPDEST DUP4 DUP2 LT ISZERO PUSH2 0x428 JUMPI DUP2 MLOAD PUSH2 0x40F DUP9 DUP3 PUSH2 0x3B6 JUMP JUMPDEST SWAP8 POP PUSH2 0x41A DUP4 PUSH2 0x3CD JUMP JUMPDEST SWAP3 POP POP PUSH1 0x1 DUP2 ADD SWAP1 POP PUSH2 0x3FB JUMP JUMPDEST POP DUP6 SWAP4 POP POP POP POP SWAP3 SWAP2 POP POP JUMP JUMPDEST PUSH0 PUSH1 0x20 DUP3 ADD SWAP1 POP DUP2 DUP2 SUB PUSH0 DUP4 ADD MSTORE PUSH2 0x44D DUP2 DUP5 PUSH2 0x3D9 JUMP JUMPDEST SWAP1 POP SWAP3 SWAP2 POP POP JUMP JUMPDEST PUSH32 0x4E487B7100000000000000000000000000000000000000000000000000000000 PUSH0 MSTORE PUSH1 0x32 PUSH1 0x4 MSTORE PUSH1 0x24 PUSH0 REVERT JUMPDEST PUSH32 0x4E487B7100000000000000000000000000000000000000000000000000000000 PUSH0 MSTORE PUSH1 0x12 PUSH1 0x4 MSTORE PUSH1 0x24 PUSH0 REVERT JUMPDEST PUSH0 PUSH2 0x4B9 DUP3 PUSH2 0x26F JUMP JUMPDEST SWAP2 POP PUSH2 0x4C4 DUP4 PUSH2 0x26F JUMP JUMPDEST SWAP3 POP DUP3 PUSH2 0x4D4 JUMPI PUSH2 0x4D3 PUSH2 0x482 JUMP JUMPDEST JUMPDEST DUP3 DUP3 MOD SWAP1 POP SWAP3 SWAP2 POP POP JUMP JUMPDEST PUSH32 0x4E487B7100000000000000000000000000000000000000000000000000000000 PUSH0 MSTORE PUSH1 0x11 PUSH1 0x4 MSTORE PUSH1 0x24 PUSH0 REVERT JUMPDEST PUSH0 PUSH2 0x516 DUP3 PUSH2 0x26F JUMP JUMPDEST SWAP2 POP PUSH32 0xFFFFFFFFFFFFFFFFFFFFFFFFFFFFFFFFFFFFFFFFFFFFFFFFFFFFFFFFFFFFFFFF DUP3 SUB PUSH2 0x548 JUMPI PUSH2 0x547 PUSH2 0x4DF JUMP JUMPDEST JUMPDEST PUSH1 0x1 DUP3 ADD SWAP1 POP SWAP2 SWAP1 POP JUMP INVALID LOG2 PUSH5 0x6970667358 0x22 SLT KECCAK256 0xD9 SWAP13 0xFC 0xB5 COINBASE SWAP7 SSTORE MOD 0xE4 DUP7 SMOD SWAP10 0xB3 PUSH14 0x8BBB14F8E68AAC5F85A74D94C910 SHL DUP7 0x2B 0x4C PUSH5 0x736F6C6343 STOP ADDMOD NOT STOP CALLER "
		},
		"gasEstimates": {
			"creation": {
				"codeDepositCost": "283400",
				"executionCost": "322",
				"totalCost": "283722"
			},
			"external": {
				"evenArray(uint256[])": "infinite"
			}
		},
		"methodIdentifiers": {
			"evenArray(uint256[])": "27693d0c"
		}
	},
	"abi": [
		{
			"inputs": [
				{
					"internalType": "uint256[]",
					"name": "_Array",
					"type": "uint256[]"
				}
			],
			"name": "evenArray",
			"outputs": [
				{
					"internalType": "uint256[]",
					"name": "",
					"type": "uint256[]"
				}
			],
			"stateMutability": "pure",
			"type": "function"
		}
	]
}