{
	"data": {
		"bytecode": {
			"linkReferences": {},
			"object": "6080604052348015600e575f80fd5b506103f48061001c5f395ff3fe608060405234801561000f575f80fd5b5060043610610029575f3560e01c8063bb76d4711461002d575b5f80fd5b610047600480360381019061004291906101e3565b610060565b604051610057949392919061021d565b60405180910390f35b5f805f805f8567ffffffffffffffff81111561007f5761007e610260565b5b6040519080825280602002602001820160405280156100ad5781602001602082028036833780820191505090505b5090505f805f805f80600190505b60018c6100c891906102ba565b811015610192575f6002826100dd919061031a565b036100f15784806100ed9061034a565b9550505b5f6003826100ff919061031a565b0361011357838061010f9061034a565b9450505b5f600582610121919061031a565b036101355782806101319061034a565b9350505b5f600782610143919061031a565b036101575781806101539061034a565b9250505b8087878151811061016b5761016a610391565b5b60200260200101818152505085806101829061034a565b96505080806001019150506100bb565b508383838399509950995099505050505050509193509193565b5f80fd5b5f819050919050565b6101c2816101b0565b81146101cc575f80fd5b50565b5f813590506101dd816101b9565b92915050565b5f602082840312156101f8576101f76101ac565b5b5f610205848285016101cf565b91505092915050565b610217816101b0565b82525050565b5f6080820190506102305f83018761020e565b61023d602083018661020e565b61024a604083018561020e565b610257606083018461020e565b95945050505050565b7f4e487b71000000000000000000000000000000000000000000000000000000005f52604160045260245ffd5b7f4e487b71000000000000000000000000000000000000000000000000000000005f52601160045260245ffd5b5f6102c4826101b0565b91506102cf836101b0565b92508282019050808211156102e7576102e661028d565b5b92915050565b7f4e487b71000000000000000000000000000000000000000000000000000000005f52601260045260245ffd5b5f610324826101b0565b915061032f836101b0565b92508261033f5761033e6102ed565b5b828206905092915050565b5f610354826101b0565b91507fffffffffffffffffffffffffffffffffffffffffffffffffffffffffffffffff82036103865761038561028d565b5b600182019050919050565b7f4e487b71000000000000000000000000000000000000000000000000000000005f52603260045260245ffdfea264697066735822122069a334d1f07459989530171758116a02fc1c7a65d4c74a27a09ce04c8a9a295064736f6c63430008190033",
			"opcodes": "PUSH1 0x80 PUSH1 0x40 MSTORE CALLVALUE DUP1 ISZERO PUSH1 0xE JUMPI PUSH0 DUP1 REVERT JUMPDEST POP PUSH2 0x3F4 DUP1 PUSH2 0x1C PUSH0 CODECOPY PUSH0 RETURN INVALID PUSH1 0x80 PUSH1 0x40 MSTORE CALLVALUE DUP1 ISZERO PUSH2 0xF JUMPI PUSH0 DUP1 REVERT JUMPDEST POP PUSH1 0x4 CALLDATASIZE LT PUSH2 0x29 JUMPI PUSH0 CALLDATALOAD PUSH1 0xE0 SHR DUP1 PUSH4 0xBB76D471 EQ PUSH2 0x2D JUMPI JUMPDEST PUSH0 DUP1 REVERT JUMPDEST PUSH2 0x47 PUSH1 0x4 DUP1 CALLDATASIZE SUB DUP2 ADD SWAP1 PUSH2 0x42 SWAP2 SWAP1 PUSH2 0x1E3 JUMP JUMPDEST PUSH2 0x60 JUMP JUMPDEST PUSH1 0x40 MLOAD PUSH2 0x57 SWAP5 SWAP4 SWAP3 SWAP2 SWAP1 PUSH2 0x21D JUMP JUMPDEST PUSH1 0x40 MLOAD DUP1 SWAP2 SUB SWAP1 RETURN JUMPDEST PUSH0 DUP1 PUSH0 DUP1 PUSH0 DUP6 PUSH8 0xFFFFFFFFFFFFFFFF DUP2 GT ISZERO PUSH2 0x7F JUMPI PUSH2 0x7E PUSH2 0x260 JUMP JUMPDEST JUMPDEST PUSH1 0x40 MLOAD SWAP1 DUP1 DUP3 MSTORE DUP1 PUSH1 0x20 MUL PUSH1 0x20 ADD DUP3 ADD PUSH1 0x40 MSTORE DUP1 ISZERO PUSH2 0xAD JUMPI DUP2 PUSH1 0x20 ADD PUSH1 0x20 DUP3 MUL DUP1 CALLDATASIZE DUP4 CALLDATACOPY DUP1 DUP3 ADD SWAP2 POP POP SWAP1 POP JUMPDEST POP SWAP1 POP PUSH0 DUP1 PUSH0 DUP1 PUSH0 DUP1 PUSH1 0x1 SWAP1 POP JUMPDEST PUSH1 0x1 DUP13 PUSH2 0xC8 SWAP2 SWAP1 PUSH2 0x2BA JUMP JUMPDEST DUP2 LT ISZERO PUSH2 0x192 JUMPI PUSH0 PUSH1 0x2 DUP3 PUSH2 0xDD SWAP2 SWAP1 PUSH2 0x31A JUMP JUMPDEST SUB PUSH2 0xF1 JUMPI DUP5 DUP1 PUSH2 0xED SWAP1 PUSH2 0x34A JUMP JUMPDEST SWAP6 POP POP JUMPDEST PUSH0 PUSH1 0x3 DUP3 PUSH2 0xFF SWAP2 SWAP1 PUSH2 0x31A JUMP JUMPDEST SUB PUSH2 0x113 JUMPI DUP4 DUP1 PUSH2 0x10F SWAP1 PUSH2 0x34A JUMP JUMPDEST SWAP5 POP POP JUMPDEST PUSH0 PUSH1 0x5 DUP3 PUSH2 0x121 SWAP2 SWAP1 PUSH2 0x31A JUMP JUMPDEST SUB PUSH2 0x135 JUMPI DUP3 DUP1 PUSH2 0x131 SWAP1 PUSH2 0x34A JUMP JUMPDEST SWAP4 POP POP JUMPDEST PUSH0 PUSH1 0x7 DUP3 PUSH2 0x143 SWAP2 SWAP1 PUSH2 0x31A JUMP JUMPDEST SUB PUSH2 0x157 JUMPI DUP2 DUP1 PUSH2 0x153 SWAP1 PUSH2 0x34A JUMP JUMPDEST SWAP3 POP POP JUMPDEST DUP1 DUP8 DUP8 DUP2 MLOAD DUP2 LT PUSH2 0x16B JUMPI PUSH2 0x16A PUSH2 0x391 JUMP JUMPDEST JUMPDEST PUSH1 0x20 MUL PUSH1 0x20 ADD ADD DUP2 DUP2 MSTORE POP POP DUP6 DUP1 PUSH2 0x182 SWAP1 PUSH2 0x34A JUMP JUMPDEST SWAP7 POP POP DUP1 DUP1 PUSH1 0x1 ADD SWAP2 POP POP PUSH2 0xBB JUMP JUMPDEST POP DUP4 DUP4 DUP4 DUP4 SWAP10 POP SWAP10 POP SWAP10 POP SWAP10 POP POP POP POP POP POP POP SWAP2 SWAP4 POP SWAP2 SWAP4 JUMP JUMPDEST PUSH0 DUP1 REVERT JUMPDEST PUSH0 DUP2 SWAP1 POP SWAP2 SWAP1 POP JUMP JUMPDEST PUSH2 0x1C2 DUP2 PUSH2 0x1B0 JUMP JUMPDEST DUP2 EQ PUSH2 0x1CC JUMPI PUSH0 DUP1 REVERT JUMPDEST POP JUMP JUMPDEST PUSH0 DUP2 CALLDATALOAD SWAP1 POP PUSH2 0x1DD DUP2 PUSH2 0x1B9 JUMP JUMPDEST SWAP3 SWAP2 POP POP JUMP JUMPDEST PUSH0 PUSH1 0x20 DUP3 DUP5 SUB SLT ISZERO PUSH2 0x1F8 JUMPI PUSH2 0x1F7 PUSH2 0x1AC JUMP JUMPDEST JUMPDEST PUSH0 PUSH2 0x205 DUP5 DUP3 DUP6 ADD PUSH2 0x1CF JUMP JUMPDEST SWAP2 POP POP SWAP3 SWAP2 POP POP JUMP JUMPDEST PUSH2 0x217 DUP2 PUSH2 0x1B0 JUMP JUMPDEST DUP3 MSTORE POP POP JUMP JUMPDEST PUSH0 PUSH1 0x80 DUP3 ADD SWAP1 POP PUSH2 0x230 PUSH0 DUP4 ADD DUP8 PUSH2 0x20E JUMP JUMPDEST PUSH2 0x23D PUSH1 0x20 DUP4 ADD DUP7 PUSH2 0x20E JUMP JUMPDEST PUSH2 0x24A PUSH1 0x40 DUP4 ADD DUP6 PUSH2 0x20E JUMP JUMPDEST PUSH2 0x257 PUSH1 0x60 DUP4 ADD DUP5 PUSH2 0x20E JUMP JUMPDEST SWAP6 SWAP5 POP POP POP POP POP JUMP JUMPDEST PUSH32 0x4E487B7100000000000000000000000000000000000000000000000000000000 PUSH0 MSTORE PUSH1 0x41 PUSH1 0x4 MSTORE PUSH1 0x24 PUSH0 REVERT JUMPDEST PUSH32 0x4E487B7100000000000000000000000000000000000000000000000000000000 PUSH0 MSTORE PUSH1 0x11 PUSH1 0x4 MSTORE PUSH1 0x24 PUSH0 REVERT JUMPDEST PUSH0 PUSH2 0x2C4 DUP3 PUSH2 0x1B0 JUMP JUMPDEST SWAP2 POP PUSH2 0x2CF DUP4 PUSH2 0x1B0 JUMP JUMPDEST SWAP3 POP DUP3 DUP3 ADD SWAP1 POP DUP1 DUP3 GT ISZERO PUSH2 0x2E7 JUMPI PUSH2 0x2E6 PUSH2 0x28D JUMP JUMPDEST JUMPDEST SWAP3 SWAP2 POP POP JUMP JUMPDEST PUSH32 0x4E487B7100000000000000000000000000000000000000000000000000000000 PUSH0 MSTORE PUSH1 0x12 PUSH1 0x4 MSTORE PUSH1 0x24 PUSH0 REVERT JUMPDEST PUSH0 PUSH2 0x324 DUP3 PUSH2 0x1B0 JUMP JUMPDEST SWAP2 POP PUSH2 0x32F DUP4 PUSH2 0x1B0 JUMP JUMPDEST SWAP3 POP DUP3 PUSH2 0x33F JUMPI PUSH2 0x33E PUSH2 0x2ED JUMP JUMPDEST JUMPDEST DUP3 DUP3 MOD SWAP1 POP SWAP3 SWAP2 POP POP JUMP JUMPDEST PUSH0 PUSH2 0x354 DUP3 PUSH2 0x1B0 JUMP JUMPDEST SWAP2 POP PUSH32 0xFFFFFFFFFFFFFFFFFFFFFFFFFFFFFFFFFFFFFFFFFFFFFFFFFFFFFFFFFFFFFFFF DUP3 SUB PUSH2 0x386 JUMPI PUSH2 0x385 PUSH2 0x28D JUMP JUMPDEST JUMPDEST PUSH1 0x1 DUP3 ADD SWAP1 POP SWAP2 SWAP1 POP JUMP JUMPDEST PUSH32 0x4E487B7100000000000000000000000000000000000000000000000000000000 PUSH0 MSTORE PUSH1 0x32 PUSH1 0x4 MSTORE PUSH1 0x24 PUSH0 REVERT INVALID LOG2 PUSH5 0x6970667358 0x22 SLT KECCAK256 PUSH10 0xA334D1F0745998953017 OR PC GT PUSH11 0x2FC1C7A65D4C74A27A09C 0xE0 0x4C DUP11 SWAP11 0x29 POP PUSH5 0x736F6C6343 STOP ADDMOD NOT STOP CALLER "
		},
		"gasEstimates": {
			"creation": {
				"codeDepositCost": "202400",
				"executionCost": "243",
				"totalCost": "202643"
			},
			"external": {
				"returnDigit(uint256)": "infinite"
			}
		},
		"methodIdentifiers": {
			"returnDigit(uint256)": "bb76d471"
		}
	},
	"abi": [
		{
			"inputs": [
				{
					"internalType": "uint256",
					"name": "_n",
					"type": "uint256"
				}
			],
			"name": "returnDigit",
			"outputs": [
				{
					"internalType": "uint256",
					"name": "",
					"type": "uint256"
				},
				{
					"internalType": "uint256",
					"name": "",
					"type": "uint256"
				},
				{
					"internalType": "uint256",
					"name": "",
					"type": "uint256"
				},
				{
					"internalType": "uint256",
					"name": "",
					"type": "uint256"
				}
			],
			"stateMutability": "pure",
			"type": "function"
		}
	]
}