{
	"data": {
		"bytecode": {
			"linkReferences": {},
			"object": "6080604052348015600e575f80fd5b506104a98061001c5f395ff3fe608060405234801561000f575f80fd5b5060043610610034575f3560e01c80633b3546c814610038578063bb76d4711461006b575b5f80fd5b610052600480360381019061004d9190610268565b61009e565b60405161006294939291906102a2565b60405180910390f35b61008560048036038101906100809190610268565b6100e5565b60405161009594939291906102a2565b60405180910390f35b5f805f806002856100af919061033f565b6003866100bc919061033f565b6005876100c9919061033f565b6007886100d6919061033f565b93509350935093509193509193565b5f805f805f8567ffffffffffffffff8111156101045761010361036f565b5b6040519080825280602002602001820160405280156101325781602001602082028036833780820191505090505b5090505f805f805f80600190505b60018c61014d919061039c565b811015610217575f60028261016291906103cf565b03610176578480610172906103ff565b9550505b5f60038261018491906103cf565b03610198578380610194906103ff565b9450505b5f6005826101a691906103cf565b036101ba5782806101b6906103ff565b9350505b5f6007826101c891906103cf565b036101dc5781806101d8906103ff565b9250505b808787815181106101f0576101ef610446565b5b6020026020010181815250508580610207906103ff565b9650508080600101915050610140565b508383838399509950995099505050505050509193509193565b5f80fd5b5f819050919050565b61024781610235565b8114610251575f80fd5b50565b5f813590506102628161023e565b92915050565b5f6020828403121561027d5761027c610231565b5b5f61028a84828501610254565b91505092915050565b61029c81610235565b82525050565b5f6080820190506102b55f830187610293565b6102c26020830186610293565b6102cf6040830185610293565b6102dc6060830184610293565b95945050505050565b7f4e487b71000000000000000000000000000000000000000000000000000000005f52601260045260245ffd5b7f4e487b71000000000000000000000000000000000000000000000000000000005f52601160045260245ffd5b5f61034982610235565b915061035483610235565b925082610364576103636102e5565b5b828204905092915050565b7f4e487b71000000000000000000000000000000000000000000000000000000005f52604160045260245ffd5b5f6103a682610235565b91506103b183610235565b92508282019050808211156103c9576103c8610312565b5b92915050565b5f6103d982610235565b91506103e483610235565b9250826103f4576103f36102e5565b5b828206905092915050565b5f61040982610235565b91507fffffffffffffffffffffffffffffffffffffffffffffffffffffffffffffffff820361043b5761043a610312565b5b600182019050919050565b7f4e487b71000000000000000000000000000000000000000000000000000000005f52603260045260245ffdfea2646970667358221220e474ecce8846f7595ffe0d3de5ca48187b1de5d7cbc28d00c9f44fb3a310f13464736f6c63430008190033",
			"opcodes": "PUSH1 0x80 PUSH1 0x40 MSTORE CALLVALUE DUP1 ISZERO PUSH1 0xE JUMPI PUSH0 DUP1 REVERT JUMPDEST POP PUSH2 0x4A9 DUP1 PUSH2 0x1C PUSH0 CODECOPY PUSH0 RETURN INVALID PUSH1 0x80 PUSH1 0x40 MSTORE CALLVALUE DUP1 ISZERO PUSH2 0xF JUMPI PUSH0 DUP1 REVERT JUMPDEST POP PUSH1 0x4 CALLDATASIZE LT PUSH2 0x34 JUMPI PUSH0 CALLDATALOAD PUSH1 0xE0 SHR DUP1 PUSH4 0x3B3546C8 EQ PUSH2 0x38 JUMPI DUP1 PUSH4 0xBB76D471 EQ PUSH2 0x6B JUMPI JUMPDEST PUSH0 DUP1 REVERT JUMPDEST PUSH2 0x52 PUSH1 0x4 DUP1 CALLDATASIZE SUB DUP2 ADD SWAP1 PUSH2 0x4D SWAP2 SWAP1 PUSH2 0x268 JUMP JUMPDEST PUSH2 0x9E JUMP JUMPDEST PUSH1 0x40 MLOAD PUSH2 0x62 SWAP5 SWAP4 SWAP3 SWAP2 SWAP1 PUSH2 0x2A2 JUMP JUMPDEST PUSH1 0x40 MLOAD DUP1 SWAP2 SUB SWAP1 RETURN JUMPDEST PUSH2 0x85 PUSH1 0x4 DUP1 CALLDATASIZE SUB DUP2 ADD SWAP1 PUSH2 0x80 SWAP2 SWAP1 PUSH2 0x268 JUMP JUMPDEST PUSH2 0xE5 JUMP JUMPDEST PUSH1 0x40 MLOAD PUSH2 0x95 SWAP5 SWAP4 SWAP3 SWAP2 SWAP1 PUSH2 0x2A2 JUMP JUMPDEST PUSH1 0x40 MLOAD DUP1 SWAP2 SUB SWAP1 RETURN JUMPDEST PUSH0 DUP1 PUSH0 DUP1 PUSH1 0x2 DUP6 PUSH2 0xAF SWAP2 SWAP1 PUSH2 0x33F JUMP JUMPDEST PUSH1 0x3 DUP7 PUSH2 0xBC SWAP2 SWAP1 PUSH2 0x33F JUMP JUMPDEST PUSH1 0x5 DUP8 PUSH2 0xC9 SWAP2 SWAP1 PUSH2 0x33F JUMP JUMPDEST PUSH1 0x7 DUP9 PUSH2 0xD6 SWAP2 SWAP1 PUSH2 0x33F JUMP JUMPDEST SWAP4 POP SWAP4 POP SWAP4 POP SWAP4 POP SWAP2 SWAP4 POP SWAP2 SWAP4 JUMP JUMPDEST PUSH0 DUP1 PUSH0 DUP1 PUSH0 DUP6 PUSH8 0xFFFFFFFFFFFFFFFF DUP2 GT ISZERO PUSH2 0x104 JUMPI PUSH2 0x103 PUSH2 0x36F JUMP JUMPDEST JUMPDEST PUSH1 0x40 MLOAD SWAP1 DUP1 DUP3 MSTORE DUP1 PUSH1 0x20 MUL PUSH1 0x20 ADD DUP3 ADD PUSH1 0x40 MSTORE DUP1 ISZERO PUSH2 0x132 JUMPI DUP2 PUSH1 0x20 ADD PUSH1 0x20 DUP3 MUL DUP1 CALLDATASIZE DUP4 CALLDATACOPY DUP1 DUP3 ADD SWAP2 POP POP SWAP1 POP JUMPDEST POP SWAP1 POP PUSH0 DUP1 PUSH0 DUP1 PUSH0 DUP1 PUSH1 0x1 SWAP1 POP JUMPDEST PUSH1 0x1 DUP13 PUSH2 0x14D SWAP2 SWAP1 PUSH2 0x39C JUMP JUMPDEST DUP2 LT ISZERO PUSH2 0x217 JUMPI PUSH0 PUSH1 0x2 DUP3 PUSH2 0x162 SWAP2 SWAP1 PUSH2 0x3CF JUMP JUMPDEST SUB PUSH2 0x176 JUMPI DUP5 DUP1 PUSH2 0x172 SWAP1 PUSH2 0x3FF JUMP JUMPDEST SWAP6 POP POP JUMPDEST PUSH0 PUSH1 0x3 DUP3 PUSH2 0x184 SWAP2 SWAP1 PUSH2 0x3CF JUMP JUMPDEST SUB PUSH2 0x198 JUMPI DUP4 DUP1 PUSH2 0x194 SWAP1 PUSH2 0x3FF JUMP JUMPDEST SWAP5 POP POP JUMPDEST PUSH0 PUSH1 0x5 DUP3 PUSH2 0x1A6 SWAP2 SWAP1 PUSH2 0x3CF JUMP JUMPDEST SUB PUSH2 0x1BA JUMPI DUP3 DUP1 PUSH2 0x1B6 SWAP1 PUSH2 0x3FF JUMP JUMPDEST SWAP4 POP POP JUMPDEST PUSH0 PUSH1 0x7 DUP3 PUSH2 0x1C8 SWAP2 SWAP1 PUSH2 0x3CF JUMP JUMPDEST SUB PUSH2 0x1DC JUMPI DUP2 DUP1 PUSH2 0x1D8 SWAP1 PUSH2 0x3FF JUMP JUMPDEST SWAP3 POP POP JUMPDEST DUP1 DUP8 DUP8 DUP2 MLOAD DUP2 LT PUSH2 0x1F0 JUMPI PUSH2 0x1EF PUSH2 0x446 JUMP JUMPDEST JUMPDEST PUSH1 0x20 MUL PUSH1 0x20 ADD ADD DUP2 DUP2 MSTORE POP POP DUP6 DUP1 PUSH2 0x207 SWAP1 PUSH2 0x3FF JUMP JUMPDEST SWAP7 POP POP DUP1 DUP1 PUSH1 0x1 ADD SWAP2 POP POP PUSH2 0x140 JUMP JUMPDEST POP DUP4 DUP4 DUP4 DUP4 SWAP10 POP SWAP10 POP SWAP10 POP SWAP10 POP POP POP POP POP POP POP SWAP2 SWAP4 POP SWAP2 SWAP4 JUMP JUMPDEST PUSH0 DUP1 REVERT JUMPDEST PUSH0 DUP2 SWAP1 POP SWAP2 SWAP1 POP JUMP JUMPDEST PUSH2 0x247 DUP2 PUSH2 0x235 JUMP JUMPDEST DUP2 EQ PUSH2 0x251 JUMPI PUSH0 DUP1 REVERT JUMPDEST POP JUMP JUMPDEST PUSH0 DUP2 CALLDATALOAD SWAP1 POP PUSH2 0x262 DUP2 PUSH2 0x23E JUMP JUMPDEST SWAP3 SWAP2 POP POP JUMP JUMPDEST PUSH0 PUSH1 0x20 DUP3 DUP5 SUB SLT ISZERO PUSH2 0x27D JUMPI PUSH2 0x27C PUSH2 0x231 JUMP JUMPDEST JUMPDEST PUSH0 PUSH2 0x28A DUP5 DUP3 DUP6 ADD PUSH2 0x254 JUMP JUMPDEST SWAP2 POP POP SWAP3 SWAP2 POP POP JUMP JUMPDEST PUSH2 0x29C DUP2 PUSH2 0x235 JUMP JUMPDEST DUP3 MSTORE POP POP JUMP JUMPDEST PUSH0 PUSH1 0x80 DUP3 ADD SWAP1 POP PUSH2 0x2B5 PUSH0 DUP4 ADD DUP8 PUSH2 0x293 JUMP JUMPDEST PUSH2 0x2C2 PUSH1 0x20 DUP4 ADD DUP7 PUSH2 0x293 JUMP JUMPDEST PUSH2 0x2CF PUSH1 0x40 DUP4 ADD DUP6 PUSH2 0x293 JUMP JUMPDEST PUSH2 0x2DC PUSH1 0x60 DUP4 ADD DUP5 PUSH2 0x293 JUMP JUMPDEST SWAP6 SWAP5 POP POP POP POP POP JUMP JUMPDEST PUSH32 0x4E487B7100000000000000000000000000000000000000000000000000000000 PUSH0 MSTORE PUSH1 0x12 PUSH1 0x4 MSTORE PUSH1 0x24 PUSH0 REVERT JUMPDEST PUSH32 0x4E487B7100000000000000000000000000000000000000000000000000000000 PUSH0 MSTORE PUSH1 0x11 PUSH1 0x4 MSTORE PUSH1 0x24 PUSH0 REVERT JUMPDEST PUSH0 PUSH2 0x349 DUP3 PUSH2 0x235 JUMP JUMPDEST SWAP2 POP PUSH2 0x354 DUP4 PUSH2 0x235 JUMP JUMPDEST SWAP3 POP DUP3 PUSH2 0x364 JUMPI PUSH2 0x363 PUSH2 0x2E5 JUMP JUMPDEST JUMPDEST DUP3 DUP3 DIV SWAP1 POP SWAP3 SWAP2 POP POP JUMP JUMPDEST PUSH32 0x4E487B7100000000000000000000000000000000000000000000000000000000 PUSH0 MSTORE PUSH1 0x41 PUSH1 0x4 MSTORE PUSH1 0x24 PUSH0 REVERT JUMPDEST PUSH0 PUSH2 0x3A6 DUP3 PUSH2 0x235 JUMP JUMPDEST SWAP2 POP PUSH2 0x3B1 DUP4 PUSH2 0x235 JUMP JUMPDEST SWAP3 POP DUP3 DUP3 ADD SWAP1 POP DUP1 DUP3 GT ISZERO PUSH2 0x3C9 JUMPI PUSH2 0x3C8 PUSH2 0x312 JUMP JUMPDEST JUMPDEST SWAP3 SWAP2 POP POP JUMP JUMPDEST PUSH0 PUSH2 0x3D9 DUP3 PUSH2 0x235 JUMP JUMPDEST SWAP2 POP PUSH2 0x3E4 DUP4 PUSH2 0x235 JUMP JUMPDEST SWAP3 POP DUP3 PUSH2 0x3F4 JUMPI PUSH2 0x3F3 PUSH2 0x2E5 JUMP JUMPDEST JUMPDEST DUP3 DUP3 MOD SWAP1 POP SWAP3 SWAP2 POP POP JUMP JUMPDEST PUSH0 PUSH2 0x409 DUP3 PUSH2 0x235 JUMP JUMPDEST SWAP2 POP PUSH32 0xFFFFFFFFFFFFFFFFFFFFFFFFFFFFFFFFFFFFFFFFFFFFFFFFFFFFFFFFFFFFFFFF DUP3 SUB PUSH2 0x43B JUMPI PUSH2 0x43A PUSH2 0x312 JUMP JUMPDEST JUMPDEST PUSH1 0x1 DUP3 ADD SWAP1 POP SWAP2 SWAP1 POP JUMP JUMPDEST PUSH32 0x4E487B7100000000000000000000000000000000000000000000000000000000 PUSH0 MSTORE PUSH1 0x32 PUSH1 0x4 MSTORE PUSH1 0x24 PUSH0 REVERT INVALID LOG2 PUSH5 0x6970667358 0x22 SLT KECCAK256 0xE4 PUSH21 0xECCE8846F7595FFE0D3DE5CA48187B1DE5D7CBC28D STOP 0xC9 DELEGATECALL 0x4F 0xB3 LOG3 LT CALL CALLVALUE PUSH5 0x736F6C6343 STOP ADDMOD NOT STOP CALLER "
		},
		"gasEstimates": {
			"creation": {
				"codeDepositCost": "238600",
				"executionCost": "279",
				"totalCost": "238879"
			},
			"external": {
				"count(uint256)": "infinite",
				"returnDigit(uint256)": "infinite"
			}
		},
		"methodIdentifiers": {
			"count(uint256)": "3b3546c8",
			"returnDigit(uint256)": "bb76d471"
		}
	},
	"abi": [
		{
			"inputs": [
				{
					"internalType": "uint256",
					"name": "number",
					"type": "uint256"
				}
			],
			"name": "count",
			"outputs": [
				{
					"internalType": "uint256",
					"name": "",
					"type": "uint256"
				},
				{
					"internalType": "uint256",
					"name": "",
					"type": "uint256"
				},
				{
					"internalType": "uint256",
					"name": "",
					"type": "uint256"
				},
				{
					"internalType": "uint256",
					"name": "",
					"type": "uint256"
				}
			],
			"stateMutability": "pure",
			"type": "function"
		},
		{
			"inputs": [
				{
					"internalType": "uint256",
					"name": "_n",
					"type": "uint256"
				}
			],
			"name": "returnDigit",
			"outputs": [
				{
					"internalType": "uint256",
					"name": "",
					"type": "uint256"
				},
				{
					"internalType": "uint256",
					"name": "",
					"type": "uint256"
				},
				{
					"internalType": "uint256",
					"name": "",
					"type": "uint256"
				},
				{
					"internalType": "uint256",
					"name": "",
					"type": "uint256"
				}
			],
			"stateMutability": "pure",
			"type": "function"
		}
	]
}