{
	"data": {
		"bytecode": {
			"linkReferences": {},
			"object": "6080604052348015600e575f80fd5b506102f18061001c5f395ff3fe608060405234801561000f575f80fd5b506004361061003f575f3560e01c806382a8181b14610043578063d504ea1d1461004d578063fb8333eb1461006b575b5f80fd5b61004b610087565b005b610055610095565b604051610062919061021c565b60405180910390f35b61008560048036038101906100809190610263565b6100df565b005b5f806100939190610134565b565b61009d61014c565b5f6004806020026040519081016040528092919082600480156100d5576020028201915b8154815260200190600101908083116100c1575b5050505050905090565b5f5b6004811015610130575f8082600481106100fe576100fd61028e565b5b01540361012357815f82600481106101195761011861028e565b5b0181905550610130565b80806001019150506100e1565b5050565b505f81556001015f81556001015f81556001015f9055565b6040518060800160405280600490602082028036833780820191505090505090565b5f60049050919050565b5f81905092915050565b5f819050919050565b5f819050919050565b61019d8161018b565b82525050565b5f6101ae8383610194565b60208301905092915050565b5f602082019050919050565b6101cf8161016e565b6101d98184610178565b92506101e482610182565b805f5b838110156102145781516101fb87826101a3565b9650610206836101ba565b9250506001810190506101e7565b505050505050565b5f60808201905061022f5f8301846101c6565b92915050565b5f80fd5b6102428161018b565b811461024c575f80fd5b50565b5f8135905061025d81610239565b92915050565b5f6020828403121561027857610277610235565b5b5f6102858482850161024f565b91505092915050565b7f4e487b71000000000000000000000000000000000000000000000000000000005f52603260045260245ffdfea26469706673582212206956a17efed3f79973c0bebc4ac783f14ea4b9581c2513a9c1c4598618b8cf2764736f6c634300081a0033",
			"opcodes": "PUSH1 0x80 PUSH1 0x40 MSTORE CALLVALUE DUP1 ISZERO PUSH1 0xE JUMPI PUSH0 DUP1 REVERT JUMPDEST POP PUSH2 0x2F1 DUP1 PUSH2 0x1C PUSH0 CODECOPY PUSH0 RETURN INVALID PUSH1 0x80 PUSH1 0x40 MSTORE CALLVALUE DUP1 ISZERO PUSH2 0xF JUMPI PUSH0 DUP1 REVERT JUMPDEST POP PUSH1 0x4 CALLDATASIZE LT PUSH2 0x3F JUMPI PUSH0 CALLDATALOAD PUSH1 0xE0 SHR DUP1 PUSH4 0x82A8181B EQ PUSH2 0x43 JUMPI DUP1 PUSH4 0xD504EA1D EQ PUSH2 0x4D JUMPI DUP1 PUSH4 0xFB8333EB EQ PUSH2 0x6B JUMPI JUMPDEST PUSH0 DUP1 REVERT JUMPDEST PUSH2 0x4B PUSH2 0x87 JUMP JUMPDEST STOP JUMPDEST PUSH2 0x55 PUSH2 0x95 JUMP JUMPDEST PUSH1 0x40 MLOAD PUSH2 0x62 SWAP2 SWAP1 PUSH2 0x21C JUMP JUMPDEST PUSH1 0x40 MLOAD DUP1 SWAP2 SUB SWAP1 RETURN JUMPDEST PUSH2 0x85 PUSH1 0x4 DUP1 CALLDATASIZE SUB DUP2 ADD SWAP1 PUSH2 0x80 SWAP2 SWAP1 PUSH2 0x263 JUMP JUMPDEST PUSH2 0xDF JUMP JUMPDEST STOP JUMPDEST PUSH0 DUP1 PUSH2 0x93 SWAP2 SWAP1 PUSH2 0x134 JUMP JUMPDEST JUMP JUMPDEST PUSH2 0x9D PUSH2 0x14C JUMP JUMPDEST PUSH0 PUSH1 0x4 DUP1 PUSH1 0x20 MUL PUSH1 0x40 MLOAD SWAP1 DUP2 ADD PUSH1 0x40 MSTORE DUP1 SWAP3 SWAP2 SWAP1 DUP3 PUSH1 0x4 DUP1 ISZERO PUSH2 0xD5 JUMPI PUSH1 0x20 MUL DUP3 ADD SWAP2 JUMPDEST DUP2 SLOAD DUP2 MSTORE PUSH1 0x20 ADD SWAP1 PUSH1 0x1 ADD SWAP1 DUP1 DUP4 GT PUSH2 0xC1 JUMPI JUMPDEST POP POP POP POP POP SWAP1 POP SWAP1 JUMP JUMPDEST PUSH0 JUMPDEST PUSH1 0x4 DUP2 LT ISZERO PUSH2 0x130 JUMPI PUSH0 DUP1 DUP3 PUSH1 0x4 DUP2 LT PUSH2 0xFE JUMPI PUSH2 0xFD PUSH2 0x28E JUMP JUMPDEST JUMPDEST ADD SLOAD SUB PUSH2 0x123 JUMPI DUP2 PUSH0 DUP3 PUSH1 0x4 DUP2 LT PUSH2 0x119 JUMPI PUSH2 0x118 PUSH2 0x28E JUMP JUMPDEST JUMPDEST ADD DUP2 SWAP1 SSTORE POP PUSH2 0x130 JUMP JUMPDEST DUP1 DUP1 PUSH1 0x1 ADD SWAP2 POP POP PUSH2 0xE1 JUMP JUMPDEST POP POP JUMP JUMPDEST POP PUSH0 DUP2 SSTORE PUSH1 0x1 ADD PUSH0 DUP2 SSTORE PUSH1 0x1 ADD PUSH0 DUP2 SSTORE PUSH1 0x1 ADD PUSH0 SWAP1 SSTORE JUMP JUMPDEST PUSH1 0x40 MLOAD DUP1 PUSH1 0x80 ADD PUSH1 0x40 MSTORE DUP1 PUSH1 0x4 SWAP1 PUSH1 0x20 DUP3 MUL DUP1 CALLDATASIZE DUP4 CALLDATACOPY DUP1 DUP3 ADD SWAP2 POP POP SWAP1 POP POP SWAP1 JUMP JUMPDEST PUSH0 PUSH1 0x4 SWAP1 POP SWAP2 SWAP1 POP JUMP JUMPDEST PUSH0 DUP2 SWAP1 POP SWAP3 SWAP2 POP POP JUMP JUMPDEST PUSH0 DUP2 SWAP1 POP SWAP2 SWAP1 POP JUMP JUMPDEST PUSH0 DUP2 SWAP1 POP SWAP2 SWAP1 POP JUMP JUMPDEST PUSH2 0x19D DUP2 PUSH2 0x18B JUMP JUMPDEST DUP3 MSTORE POP POP JUMP JUMPDEST PUSH0 PUSH2 0x1AE DUP4 DUP4 PUSH2 0x194 JUMP JUMPDEST PUSH1 0x20 DUP4 ADD SWAP1 POP SWAP3 SWAP2 POP POP JUMP JUMPDEST PUSH0 PUSH1 0x20 DUP3 ADD SWAP1 POP SWAP2 SWAP1 POP JUMP JUMPDEST PUSH2 0x1CF DUP2 PUSH2 0x16E JUMP JUMPDEST PUSH2 0x1D9 DUP2 DUP5 PUSH2 0x178 JUMP JUMPDEST SWAP3 POP PUSH2 0x1E4 DUP3 PUSH2 0x182 JUMP JUMPDEST DUP1 PUSH0 JUMPDEST DUP4 DUP2 LT ISZERO PUSH2 0x214 JUMPI DUP2 MLOAD PUSH2 0x1FB DUP8 DUP3 PUSH2 0x1A3 JUMP JUMPDEST SWAP7 POP PUSH2 0x206 DUP4 PUSH2 0x1BA JUMP JUMPDEST SWAP3 POP POP PUSH1 0x1 DUP2 ADD SWAP1 POP PUSH2 0x1E7 JUMP JUMPDEST POP POP POP POP POP POP JUMP JUMPDEST PUSH0 PUSH1 0x80 DUP3 ADD SWAP1 POP PUSH2 0x22F PUSH0 DUP4 ADD DUP5 PUSH2 0x1C6 JUMP JUMPDEST SWAP3 SWAP2 POP POP JUMP JUMPDEST PUSH0 DUP1 REVERT JUMPDEST PUSH2 0x242 DUP2 PUSH2 0x18B JUMP JUMPDEST DUP2 EQ PUSH2 0x24C JUMPI PUSH0 DUP1 REVERT JUMPDEST POP JUMP JUMPDEST PUSH0 DUP2 CALLDATALOAD SWAP1 POP PUSH2 0x25D DUP2 PUSH2 0x239 JUMP JUMPDEST SWAP3 SWAP2 POP POP JUMP JUMPDEST PUSH0 PUSH1 0x20 DUP3 DUP5 SUB SLT ISZERO PUSH2 0x278 JUMPI PUSH2 0x277 PUSH2 0x235 JUMP JUMPDEST JUMPDEST PUSH0 PUSH2 0x285 DUP5 DUP3 DUP6 ADD PUSH2 0x24F JUMP JUMPDEST SWAP2 POP POP SWAP3 SWAP2 POP POP JUMP JUMPDEST PUSH32 0x4E487B7100000000000000000000000000000000000000000000000000000000 PUSH0 MSTORE PUSH1 0x32 PUSH1 0x4 MSTORE PUSH1 0x24 PUSH0 REVERT INVALID LOG2 PUSH5 0x6970667358 0x22 SLT KECCAK256 PUSH10 0x56A17EFED3F79973C0BE 0xBC BLOBBASEFEE 0xC7 DUP4 CALL 0x4E LOG4 0xB9 PC SHR 0x25 SGT 0xA9 0xC1 0xC4 MSIZE DUP7 XOR 0xB8 0xCF 0x27 PUSH5 0x736F6C6343 STOP ADDMOD BYTE STOP CALLER "
		},
		"gasEstimates": {
			"creation": {
				"codeDepositCost": "150600",
				"executionCost": "194",
				"totalCost": "150794"
			},
			"external": {
				"getArray()": "infinite",
				"initArray()": "20196",
				"setArray(uint256)": "infinite"
			}
		},
		"methodIdentifiers": {
			"getArray()": "d504ea1d",
			"initArray()": "82a8181b",
			"setArray(uint256)": "fb8333eb"
		}
	},
	"abi": [
		{
			"inputs": [],
			"name": "getArray",
			"outputs": [
				{
					"internalType": "uint256[4]",
					"name": "",
					"type": "uint256[4]"
				}
			],
			"stateMutability": "view",
			"type": "function"
		},
		{
			"inputs": [],
			"name": "initArray",
			"outputs": [],
			"stateMutability": "nonpayable",
			"type": "function"
		},
		{
			"inputs": [
				{
					"internalType": "uint256",
					"name": "_n",
					"type": "uint256"
				}
			],
			"name": "setArray",
			"outputs": [],
			"stateMutability": "nonpayable",
			"type": "function"
		}
	]
}