{
	"data": {
		"bytecode": {
			"linkReferences": {},
			"object": "6080604052348015600e575f80fd5b506103bd8061001c5f395ff3fe608060405234801561000f575f80fd5b506004361061004a575f3560e01c80632bfe18051461004e57806382a8181b1461006a578063d504ea1d14610074578063fb8333eb14610092575b5f80fd5b610068600480360381019061006391906101fd565b6100ae565b005b6100726100df565b005b61007c6100ed565b60405161008991906102cd565b60405180910390f35b6100ac60048036038101906100a791906101fd565b610137565b005b805f60045f8154809291906100c290610313565b91905055600481106100d7576100d661035a565b5b018190555050565b5f806100eb919061018c565b565b6100f56101a4565b5f60048060200260405190810160405280929190826004801561012d576020028201915b815481526020019060010190808311610119575b5050505050905090565b5f5b6004811015610188575f8082600481106101565761015561035a565b5b01540361017b57815f82600481106101715761017061035a565b5b0181905550610188565b8080600101915050610139565b5050565b505f81556001015f81556001015f81556001015f9055565b6040518060800160405280600490602082028036833780820191505090505090565b5f80fd5b5f819050919050565b6101dc816101ca565b81146101e6575f80fd5b50565b5f813590506101f7816101d3565b92915050565b5f60208284031215610212576102116101c6565b5b5f61021f848285016101e9565b91505092915050565b5f60049050919050565b5f81905092915050565b5f819050919050565b61024e816101ca565b82525050565b5f61025f8383610245565b60208301905092915050565b5f602082019050919050565b61028081610228565b61028a8184610232565b92506102958261023c565b805f5b838110156102c55781516102ac8782610254565b96506102b78361026b565b925050600181019050610298565b505050505050565b5f6080820190506102e05f830184610277565b92915050565b7f4e487b71000000000000000000000000000000000000000000000000000000005f52601160045260245ffd5b5f61031d826101ca565b91507fffffffffffffffffffffffffffffffffffffffffffffffffffffffffffffffff820361034f5761034e6102e6565b5b600182019050919050565b7f4e487b71000000000000000000000000000000000000000000000000000000005f52603260045260245ffdfea2646970667358221220a7ef6bbb1bb17eb710c0a4f5d7f956c25996177c364605626c9b2c4453b9e7cc64736f6c63430008190033",
			"opcodes": "PUSH1 0x80 PUSH1 0x40 MSTORE CALLVALUE DUP1 ISZERO PUSH1 0xE JUMPI PUSH0 DUP1 REVERT JUMPDEST POP PUSH2 0x3BD DUP1 PUSH2 0x1C PUSH0 CODECOPY PUSH0 RETURN INVALID PUSH1 0x80 PUSH1 0x40 MSTORE CALLVALUE DUP1 ISZERO PUSH2 0xF JUMPI PUSH0 DUP1 REVERT JUMPDEST POP PUSH1 0x4 CALLDATASIZE LT PUSH2 0x4A JUMPI PUSH0 CALLDATALOAD PUSH1 0xE0 SHR DUP1 PUSH4 0x2BFE1805 EQ PUSH2 0x4E JUMPI DUP1 PUSH4 0x82A8181B EQ PUSH2 0x6A JUMPI DUP1 PUSH4 0xD504EA1D EQ PUSH2 0x74 JUMPI DUP1 PUSH4 0xFB8333EB EQ PUSH2 0x92 JUMPI JUMPDEST PUSH0 DUP1 REVERT JUMPDEST PUSH2 0x68 PUSH1 0x4 DUP1 CALLDATASIZE SUB DUP2 ADD SWAP1 PUSH2 0x63 SWAP2 SWAP1 PUSH2 0x1FD JUMP JUMPDEST PUSH2 0xAE JUMP JUMPDEST STOP JUMPDEST PUSH2 0x72 PUSH2 0xDF JUMP JUMPDEST STOP JUMPDEST PUSH2 0x7C PUSH2 0xED JUMP JUMPDEST PUSH1 0x40 MLOAD PUSH2 0x89 SWAP2 SWAP1 PUSH2 0x2CD JUMP JUMPDEST PUSH1 0x40 MLOAD DUP1 SWAP2 SUB SWAP1 RETURN JUMPDEST PUSH2 0xAC PUSH1 0x4 DUP1 CALLDATASIZE SUB DUP2 ADD SWAP1 PUSH2 0xA7 SWAP2 SWAP1 PUSH2 0x1FD JUMP JUMPDEST PUSH2 0x137 JUMP JUMPDEST STOP JUMPDEST DUP1 PUSH0 PUSH1 0x4 PUSH0 DUP2 SLOAD DUP1 SWAP3 SWAP2 SWAP1 PUSH2 0xC2 SWAP1 PUSH2 0x313 JUMP JUMPDEST SWAP2 SWAP1 POP SSTORE PUSH1 0x4 DUP2 LT PUSH2 0xD7 JUMPI PUSH2 0xD6 PUSH2 0x35A JUMP JUMPDEST JUMPDEST ADD DUP2 SWAP1 SSTORE POP POP JUMP JUMPDEST PUSH0 DUP1 PUSH2 0xEB SWAP2 SWAP1 PUSH2 0x18C JUMP JUMPDEST JUMP JUMPDEST PUSH2 0xF5 PUSH2 0x1A4 JUMP JUMPDEST PUSH0 PUSH1 0x4 DUP1 PUSH1 0x20 MUL PUSH1 0x40 MLOAD SWAP1 DUP2 ADD PUSH1 0x40 MSTORE DUP1 SWAP3 SWAP2 SWAP1 DUP3 PUSH1 0x4 DUP1 ISZERO PUSH2 0x12D JUMPI PUSH1 0x20 MUL DUP3 ADD SWAP2 JUMPDEST DUP2 SLOAD DUP2 MSTORE PUSH1 0x20 ADD SWAP1 PUSH1 0x1 ADD SWAP1 DUP1 DUP4 GT PUSH2 0x119 JUMPI JUMPDEST POP POP POP POP POP SWAP1 POP SWAP1 JUMP JUMPDEST PUSH0 JUMPDEST PUSH1 0x4 DUP2 LT ISZERO PUSH2 0x188 JUMPI PUSH0 DUP1 DUP3 PUSH1 0x4 DUP2 LT PUSH2 0x156 JUMPI PUSH2 0x155 PUSH2 0x35A JUMP JUMPDEST JUMPDEST ADD SLOAD SUB PUSH2 0x17B JUMPI DUP2 PUSH0 DUP3 PUSH1 0x4 DUP2 LT PUSH2 0x171 JUMPI PUSH2 0x170 PUSH2 0x35A JUMP JUMPDEST JUMPDEST ADD DUP2 SWAP1 SSTORE POP PUSH2 0x188 JUMP JUMPDEST DUP1 DUP1 PUSH1 0x1 ADD SWAP2 POP POP PUSH2 0x139 JUMP JUMPDEST POP POP JUMP JUMPDEST POP PUSH0 DUP2 SSTORE PUSH1 0x1 ADD PUSH0 DUP2 SSTORE PUSH1 0x1 ADD PUSH0 DUP2 SSTORE PUSH1 0x1 ADD PUSH0 SWAP1 SSTORE JUMP JUMPDEST PUSH1 0x40 MLOAD DUP1 PUSH1 0x80 ADD PUSH1 0x40 MSTORE DUP1 PUSH1 0x4 SWAP1 PUSH1 0x20 DUP3 MUL DUP1 CALLDATASIZE DUP4 CALLDATACOPY DUP1 DUP3 ADD SWAP2 POP POP SWAP1 POP POP SWAP1 JUMP JUMPDEST PUSH0 DUP1 REVERT JUMPDEST PUSH0 DUP2 SWAP1 POP SWAP2 SWAP1 POP JUMP JUMPDEST PUSH2 0x1DC DUP2 PUSH2 0x1CA JUMP JUMPDEST DUP2 EQ PUSH2 0x1E6 JUMPI PUSH0 DUP1 REVERT JUMPDEST POP JUMP JUMPDEST PUSH0 DUP2 CALLDATALOAD SWAP1 POP PUSH2 0x1F7 DUP2 PUSH2 0x1D3 JUMP JUMPDEST SWAP3 SWAP2 POP POP JUMP JUMPDEST PUSH0 PUSH1 0x20 DUP3 DUP5 SUB SLT ISZERO PUSH2 0x212 JUMPI PUSH2 0x211 PUSH2 0x1C6 JUMP JUMPDEST JUMPDEST PUSH0 PUSH2 0x21F DUP5 DUP3 DUP6 ADD PUSH2 0x1E9 JUMP JUMPDEST SWAP2 POP POP SWAP3 SWAP2 POP POP JUMP JUMPDEST PUSH0 PUSH1 0x4 SWAP1 POP SWAP2 SWAP1 POP JUMP JUMPDEST PUSH0 DUP2 SWAP1 POP SWAP3 SWAP2 POP POP JUMP JUMPDEST PUSH0 DUP2 SWAP1 POP SWAP2 SWAP1 POP JUMP JUMPDEST PUSH2 0x24E DUP2 PUSH2 0x1CA JUMP JUMPDEST DUP3 MSTORE POP POP JUMP JUMPDEST PUSH0 PUSH2 0x25F DUP4 DUP4 PUSH2 0x245 JUMP JUMPDEST PUSH1 0x20 DUP4 ADD SWAP1 POP SWAP3 SWAP2 POP POP JUMP JUMPDEST PUSH0 PUSH1 0x20 DUP3 ADD SWAP1 POP SWAP2 SWAP1 POP JUMP JUMPDEST PUSH2 0x280 DUP2 PUSH2 0x228 JUMP JUMPDEST PUSH2 0x28A DUP2 DUP5 PUSH2 0x232 JUMP JUMPDEST SWAP3 POP PUSH2 0x295 DUP3 PUSH2 0x23C JUMP JUMPDEST DUP1 PUSH0 JUMPDEST DUP4 DUP2 LT ISZERO PUSH2 0x2C5 JUMPI DUP2 MLOAD PUSH2 0x2AC DUP8 DUP3 PUSH2 0x254 JUMP JUMPDEST SWAP7 POP PUSH2 0x2B7 DUP4 PUSH2 0x26B JUMP JUMPDEST SWAP3 POP POP PUSH1 0x1 DUP2 ADD SWAP1 POP PUSH2 0x298 JUMP JUMPDEST POP POP POP POP POP POP JUMP JUMPDEST PUSH0 PUSH1 0x80 DUP3 ADD SWAP1 POP PUSH2 0x2E0 PUSH0 DUP4 ADD DUP5 PUSH2 0x277 JUMP JUMPDEST SWAP3 SWAP2 POP POP JUMP JUMPDEST PUSH32 0x4E487B7100000000000000000000000000000000000000000000000000000000 PUSH0 MSTORE PUSH1 0x11 PUSH1 0x4 MSTORE PUSH1 0x24 PUSH0 REVERT JUMPDEST PUSH0 PUSH2 0x31D DUP3 PUSH2 0x1CA JUMP JUMPDEST SWAP2 POP PUSH32 0xFFFFFFFFFFFFFFFFFFFFFFFFFFFFFFFFFFFFFFFFFFFFFFFFFFFFFFFFFFFFFFFF DUP3 SUB PUSH2 0x34F JUMPI PUSH2 0x34E PUSH2 0x2E6 JUMP JUMPDEST JUMPDEST PUSH1 0x1 DUP3 ADD SWAP1 POP SWAP2 SWAP1 POP JUMP JUMPDEST PUSH32 0x4E487B7100000000000000000000000000000000000000000000000000000000 PUSH0 MSTORE PUSH1 0x32 PUSH1 0x4 MSTORE PUSH1 0x24 PUSH0 REVERT INVALID LOG2 PUSH5 0x6970667358 0x22 SLT KECCAK256 0xA7 0xEF PUSH12 0xBB1BB17EB710C0A4F5D7F956 0xC2 MSIZE SWAP7 OR PUSH29 0x364605626C9B2C4453B9E7CC64736F6C63430008190033000000000000 "
		},
		"gasEstimates": {
			"creation": {
				"codeDepositCost": "191400",
				"executionCost": "230",
				"totalCost": "191630"
			},
			"external": {
				"getArray()": "infinite",
				"initArray()": "20218",
				"pushNumber(uint256)": "infinite",
				"setArray(uint256)": "infinite"
			}
		},
		"methodIdentifiers": {
			"getArray()": "d504ea1d",
			"initArray()": "82a8181b",
			"pushNumber(uint256)": "2bfe1805",
			"setArray(uint256)": "fb8333eb"
		}
	},
	"abi": [
		{
			"inputs": [],
			"name": "getArray",
			"outputs": [
				{
					"internalType": "uint256[4]",
					"name": "",
					"type": "uint256[4]"
				}
			],
			"stateMutability": "view",
			"type": "function"
		},
		{
			"inputs": [],
			"name": "initArray",
			"outputs": [],
			"stateMutability": "nonpayable",
			"type": "function"
		},
		{
			"inputs": [
				{
					"internalType": "uint256",
					"name": "_n",
					"type": "uint256"
				}
			],
			"name": "pushNumber",
			"outputs": [],
			"stateMutability": "nonpayable",
			"type": "function"
		},
		{
			"inputs": [
				{
					"internalType": "uint256",
					"name": "_n",
					"type": "uint256"
				}
			],
			"name": "setArray",
			"outputs": [],
			"stateMutability": "nonpayable",
			"type": "function"
		}
	]
}