{
	"data": {
		"bytecode": {
			"linkReferences": {},
			"object": "6080604052348015600e575f80fd5b506106ff8061001c5f395ff3fe608060405234801561000f575f80fd5b5060043610610034575f3560e01c80638f4aec3f14610038578063a13c0aa214610068575b5f80fd5b610052600480360381019061004d9190610382565b610098565b60405161005f91906103e1565b60405180910390f35b610082600480360381019061007d91906103fa565b6100dd565b60405161008f91906103e1565b60405180910390f35b5f6001826100a69190610452565b600a846100b39190610452565b6064866100c09190610452565b6100ca9190610493565b6100d49190610493565b90509392505050565b5f806100e95f54610130565b51905080600a6100f991906105f5565b836101049190610452565b5f808282546101139190610493565b92505081905550600a5f54610128919061066c565b915050919050565b60605f600161013e846101fa565b0190505f8167ffffffffffffffff81111561015c5761015b61069c565b5b6040519080825280601f01601f19166020018201604052801561018e5781602001600182028036833780820191505090505b5090505f82602001820190505b6001156101ef578080600190039150507f3031323334353637383961626364656600000000000000000000000000000000600a86061a8153600a85816101e4576101e361063f565b5b0494505f850361019b575b819350505050919050565b5f805f90507a184f03e93ff9f4daa797ed6e38ed64bf6a1f0100000000000000008310610256577a184f03e93ff9f4daa797ed6e38ed64bf6a1f010000000000000000838161024c5761024b61063f565b5b0492506040810190505b6d04ee2d6d415b85acef81000000008310610293576d04ee2d6d415b85acef810000000083816102895761028861063f565b5b0492506020810190505b662386f26fc1000083106102c257662386f26fc1000083816102b8576102b761063f565b5b0492506010810190505b6305f5e10083106102eb576305f5e10083816102e1576102e061063f565b5b0492506008810190505b61271083106103105761271083816103065761030561063f565b5b0492506004810190505b6064831061033357606483816103295761032861063f565b5b0492506002810190505b600a8310610342576001810190505b80915050919050565b5f80fd5b5f819050919050565b6103618161034f565b811461036b575f80fd5b50565b5f8135905061037c81610358565b92915050565b5f805f606084860312156103995761039861034b565b5b5f6103a68682870161036e565b93505060206103b78682870161036e565b92505060406103c88682870161036e565b9150509250925092565b6103db8161034f565b82525050565b5f6020820190506103f45f8301846103d2565b92915050565b5f6020828403121561040f5761040e61034b565b5b5f61041c8482850161036e565b91505092915050565b7f4e487b71000000000000000000000000000000000000000000000000000000005f52601160045260245ffd5b5f61045c8261034f565b91506104678361034f565b92508282026104758161034f565b9150828204841483151761048c5761048b610425565b5b5092915050565b5f61049d8261034f565b91506104a88361034f565b92508282019050808211156104c0576104bf610425565b5b92915050565b5f8160011c9050919050565b5f808291508390505b600185111561051b578086048111156104f7576104f6610425565b5b60018516156105065780820291505b8081029050610514856104c6565b94506104db565b94509492505050565b5f8261053357600190506105ee565b81610540575f90506105ee565b816001811461055657600281146105605761058f565b60019150506105ee565b60ff84111561057257610571610425565b5b8360020a91508482111561058957610588610425565b5b506105ee565b5060208310610133831016604e8410600b84101617156105c45782820a9050838111156105bf576105be610425565b5b6105ee565b6105d184848460016104d2565b925090508184048111156105e8576105e7610425565b5b81810290505b9392505050565b5f6105ff8261034f565b915061060a8361034f565b92506106377fffffffffffffffffffffffffffffffffffffffffffffffffffffffffffffffff8484610524565b905092915050565b7f4e487b71000000000000000000000000000000000000000000000000000000005f52601260045260245ffd5b5f6106768261034f565b91506106818361034f565b9250826106915761069061063f565b5b828204905092915050565b7f4e487b71000000000000000000000000000000000000000000000000000000005f52604160045260245ffdfea2646970667358221220b825a9d5c504118010d066bd5f2b99da1545a021166de442d3ef805a3245319c64736f6c634300081a0033",
			"opcodes": "PUSH1 0x80 PUSH1 0x40 MSTORE CALLVALUE DUP1 ISZERO PUSH1 0xE JUMPI PUSH0 DUP1 REVERT JUMPDEST POP PUSH2 0x6FF DUP1 PUSH2 0x1C PUSH0 CODECOPY PUSH0 RETURN INVALID PUSH1 0x80 PUSH1 0x40 MSTORE CALLVALUE DUP1 ISZERO PUSH2 0xF JUMPI PUSH0 DUP1 REVERT JUMPDEST POP PUSH1 0x4 CALLDATASIZE LT PUSH2 0x34 JUMPI PUSH0 CALLDATALOAD PUSH1 0xE0 SHR DUP1 PUSH4 0x8F4AEC3F EQ PUSH2 0x38 JUMPI DUP1 PUSH4 0xA13C0AA2 EQ PUSH2 0x68 JUMPI JUMPDEST PUSH0 DUP1 REVERT JUMPDEST PUSH2 0x52 PUSH1 0x4 DUP1 CALLDATASIZE SUB DUP2 ADD SWAP1 PUSH2 0x4D SWAP2 SWAP1 PUSH2 0x382 JUMP JUMPDEST PUSH2 0x98 JUMP JUMPDEST PUSH1 0x40 MLOAD PUSH2 0x5F SWAP2 SWAP1 PUSH2 0x3E1 JUMP JUMPDEST PUSH1 0x40 MLOAD DUP1 SWAP2 SUB SWAP1 RETURN JUMPDEST PUSH2 0x82 PUSH1 0x4 DUP1 CALLDATASIZE SUB DUP2 ADD SWAP1 PUSH2 0x7D SWAP2 SWAP1 PUSH2 0x3FA JUMP JUMPDEST PUSH2 0xDD JUMP JUMPDEST PUSH1 0x40 MLOAD PUSH2 0x8F SWAP2 SWAP1 PUSH2 0x3E1 JUMP JUMPDEST PUSH1 0x40 MLOAD DUP1 SWAP2 SUB SWAP1 RETURN JUMPDEST PUSH0 PUSH1 0x1 DUP3 PUSH2 0xA6 SWAP2 SWAP1 PUSH2 0x452 JUMP JUMPDEST PUSH1 0xA DUP5 PUSH2 0xB3 SWAP2 SWAP1 PUSH2 0x452 JUMP JUMPDEST PUSH1 0x64 DUP7 PUSH2 0xC0 SWAP2 SWAP1 PUSH2 0x452 JUMP JUMPDEST PUSH2 0xCA SWAP2 SWAP1 PUSH2 0x493 JUMP JUMPDEST PUSH2 0xD4 SWAP2 SWAP1 PUSH2 0x493 JUMP JUMPDEST SWAP1 POP SWAP4 SWAP3 POP POP POP JUMP JUMPDEST PUSH0 DUP1 PUSH2 0xE9 PUSH0 SLOAD PUSH2 0x130 JUMP JUMPDEST MLOAD SWAP1 POP DUP1 PUSH1 0xA PUSH2 0xF9 SWAP2 SWAP1 PUSH2 0x5F5 JUMP JUMPDEST DUP4 PUSH2 0x104 SWAP2 SWAP1 PUSH2 0x452 JUMP JUMPDEST PUSH0 DUP1 DUP3 DUP3 SLOAD PUSH2 0x113 SWAP2 SWAP1 PUSH2 0x493 JUMP JUMPDEST SWAP3 POP POP DUP2 SWAP1 SSTORE POP PUSH1 0xA PUSH0 SLOAD PUSH2 0x128 SWAP2 SWAP1 PUSH2 0x66C JUMP JUMPDEST SWAP2 POP POP SWAP2 SWAP1 POP JUMP JUMPDEST PUSH1 0x60 PUSH0 PUSH1 0x1 PUSH2 0x13E DUP5 PUSH2 0x1FA JUMP JUMPDEST ADD SWAP1 POP PUSH0 DUP2 PUSH8 0xFFFFFFFFFFFFFFFF DUP2 GT ISZERO PUSH2 0x15C JUMPI PUSH2 0x15B PUSH2 0x69C JUMP JUMPDEST JUMPDEST PUSH1 0x40 MLOAD SWAP1 DUP1 DUP3 MSTORE DUP1 PUSH1 0x1F ADD PUSH1 0x1F NOT AND PUSH1 0x20 ADD DUP3 ADD PUSH1 0x40 MSTORE DUP1 ISZERO PUSH2 0x18E JUMPI DUP2 PUSH1 0x20 ADD PUSH1 0x1 DUP3 MUL DUP1 CALLDATASIZE DUP4 CALLDATACOPY DUP1 DUP3 ADD SWAP2 POP POP SWAP1 POP JUMPDEST POP SWAP1 POP PUSH0 DUP3 PUSH1 0x20 ADD DUP3 ADD SWAP1 POP JUMPDEST PUSH1 0x1 ISZERO PUSH2 0x1EF JUMPI DUP1 DUP1 PUSH1 0x1 SWAP1 SUB SWAP2 POP POP PUSH32 0x3031323334353637383961626364656600000000000000000000000000000000 PUSH1 0xA DUP7 MOD BYTE DUP2 MSTORE8 PUSH1 0xA DUP6 DUP2 PUSH2 0x1E4 JUMPI PUSH2 0x1E3 PUSH2 0x63F JUMP JUMPDEST JUMPDEST DIV SWAP5 POP PUSH0 DUP6 SUB PUSH2 0x19B JUMPI JUMPDEST DUP2 SWAP4 POP POP POP POP SWAP2 SWAP1 POP JUMP JUMPDEST PUSH0 DUP1 PUSH0 SWAP1 POP PUSH27 0x184F03E93FF9F4DAA797ED6E38ED64BF6A1F010000000000000000 DUP4 LT PUSH2 0x256 JUMPI PUSH27 0x184F03E93FF9F4DAA797ED6E38ED64BF6A1F010000000000000000 DUP4 DUP2 PUSH2 0x24C JUMPI PUSH2 0x24B PUSH2 0x63F JUMP JUMPDEST JUMPDEST DIV SWAP3 POP PUSH1 0x40 DUP2 ADD SWAP1 POP JUMPDEST PUSH14 0x4EE2D6D415B85ACEF8100000000 DUP4 LT PUSH2 0x293 JUMPI PUSH14 0x4EE2D6D415B85ACEF8100000000 DUP4 DUP2 PUSH2 0x289 JUMPI PUSH2 0x288 PUSH2 0x63F JUMP JUMPDEST JUMPDEST DIV SWAP3 POP PUSH1 0x20 DUP2 ADD SWAP1 POP JUMPDEST PUSH7 0x2386F26FC10000 DUP4 LT PUSH2 0x2C2 JUMPI PUSH7 0x2386F26FC10000 DUP4 DUP2 PUSH2 0x2B8 JUMPI PUSH2 0x2B7 PUSH2 0x63F JUMP JUMPDEST JUMPDEST DIV SWAP3 POP PUSH1 0x10 DUP2 ADD SWAP1 POP JUMPDEST PUSH4 0x5F5E100 DUP4 LT PUSH2 0x2EB JUMPI PUSH4 0x5F5E100 DUP4 DUP2 PUSH2 0x2E1 JUMPI PUSH2 0x2E0 PUSH2 0x63F JUMP JUMPDEST JUMPDEST DIV SWAP3 POP PUSH1 0x8 DUP2 ADD SWAP1 POP JUMPDEST PUSH2 0x2710 DUP4 LT PUSH2 0x310 JUMPI PUSH2 0x2710 DUP4 DUP2 PUSH2 0x306 JUMPI PUSH2 0x305 PUSH2 0x63F JUMP JUMPDEST JUMPDEST DIV SWAP3 POP PUSH1 0x4 DUP2 ADD SWAP1 POP JUMPDEST PUSH1 0x64 DUP4 LT PUSH2 0x333 JUMPI PUSH1 0x64 DUP4 DUP2 PUSH2 0x329 JUMPI PUSH2 0x328 PUSH2 0x63F JUMP JUMPDEST JUMPDEST DIV SWAP3 POP PUSH1 0x2 DUP2 ADD SWAP1 POP JUMPDEST PUSH1 0xA DUP4 LT PUSH2 0x342 JUMPI PUSH1 0x1 DUP2 ADD SWAP1 POP JUMPDEST DUP1 SWAP2 POP POP SWAP2 SWAP1 POP JUMP JUMPDEST PUSH0 DUP1 REVERT JUMPDEST PUSH0 DUP2 SWAP1 POP SWAP2 SWAP1 POP JUMP JUMPDEST PUSH2 0x361 DUP2 PUSH2 0x34F JUMP JUMPDEST DUP2 EQ PUSH2 0x36B JUMPI PUSH0 DUP1 REVERT JUMPDEST POP JUMP JUMPDEST PUSH0 DUP2 CALLDATALOAD SWAP1 POP PUSH2 0x37C DUP2 PUSH2 0x358 JUMP JUMPDEST SWAP3 SWAP2 POP POP JUMP JUMPDEST PUSH0 DUP1 PUSH0 PUSH1 0x60 DUP5 DUP7 SUB SLT ISZERO PUSH2 0x399 JUMPI PUSH2 0x398 PUSH2 0x34B JUMP JUMPDEST JUMPDEST PUSH0 PUSH2 0x3A6 DUP7 DUP3 DUP8 ADD PUSH2 0x36E JUMP JUMPDEST SWAP4 POP POP PUSH1 0x20 PUSH2 0x3B7 DUP7 DUP3 DUP8 ADD PUSH2 0x36E JUMP JUMPDEST SWAP3 POP POP PUSH1 0x40 PUSH2 0x3C8 DUP7 DUP3 DUP8 ADD PUSH2 0x36E JUMP JUMPDEST SWAP2 POP POP SWAP3 POP SWAP3 POP SWAP3 JUMP JUMPDEST PUSH2 0x3DB DUP2 PUSH2 0x34F JUMP JUMPDEST DUP3 MSTORE POP POP JUMP JUMPDEST PUSH0 PUSH1 0x20 DUP3 ADD SWAP1 POP PUSH2 0x3F4 PUSH0 DUP4 ADD DUP5 PUSH2 0x3D2 JUMP JUMPDEST SWAP3 SWAP2 POP POP JUMP JUMPDEST PUSH0 PUSH1 0x20 DUP3 DUP5 SUB SLT ISZERO PUSH2 0x40F JUMPI PUSH2 0x40E PUSH2 0x34B JUMP JUMPDEST JUMPDEST PUSH0 PUSH2 0x41C DUP5 DUP3 DUP6 ADD PUSH2 0x36E JUMP JUMPDEST SWAP2 POP POP SWAP3 SWAP2 POP POP JUMP JUMPDEST PUSH32 0x4E487B7100000000000000000000000000000000000000000000000000000000 PUSH0 MSTORE PUSH1 0x11 PUSH1 0x4 MSTORE PUSH1 0x24 PUSH0 REVERT JUMPDEST PUSH0 PUSH2 0x45C DUP3 PUSH2 0x34F JUMP JUMPDEST SWAP2 POP PUSH2 0x467 DUP4 PUSH2 0x34F JUMP JUMPDEST SWAP3 POP DUP3 DUP3 MUL PUSH2 0x475 DUP2 PUSH2 0x34F JUMP JUMPDEST SWAP2 POP DUP3 DUP3 DIV DUP5 EQ DUP4 ISZERO OR PUSH2 0x48C JUMPI PUSH2 0x48B PUSH2 0x425 JUMP JUMPDEST JUMPDEST POP SWAP3 SWAP2 POP POP JUMP JUMPDEST PUSH0 PUSH2 0x49D DUP3 PUSH2 0x34F JUMP JUMPDEST SWAP2 POP PUSH2 0x4A8 DUP4 PUSH2 0x34F JUMP JUMPDEST SWAP3 POP DUP3 DUP3 ADD SWAP1 POP DUP1 DUP3 GT ISZERO PUSH2 0x4C0 JUMPI PUSH2 0x4BF PUSH2 0x425 JUMP JUMPDEST JUMPDEST SWAP3 SWAP2 POP POP JUMP JUMPDEST PUSH0 DUP2 PUSH1 0x1 SHR SWAP1 POP SWAP2 SWAP1 POP JUMP JUMPDEST PUSH0 DUP1 DUP3 SWAP2 POP DUP4 SWAP1 POP JUMPDEST PUSH1 0x1 DUP6 GT ISZERO PUSH2 0x51B JUMPI DUP1 DUP7 DIV DUP2 GT ISZERO PUSH2 0x4F7 JUMPI PUSH2 0x4F6 PUSH2 0x425 JUMP JUMPDEST JUMPDEST PUSH1 0x1 DUP6 AND ISZERO PUSH2 0x506 JUMPI DUP1 DUP3 MUL SWAP2 POP JUMPDEST DUP1 DUP2 MUL SWAP1 POP PUSH2 0x514 DUP6 PUSH2 0x4C6 JUMP JUMPDEST SWAP5 POP PUSH2 0x4DB JUMP JUMPDEST SWAP5 POP SWAP5 SWAP3 POP POP POP JUMP JUMPDEST PUSH0 DUP3 PUSH2 0x533 JUMPI PUSH1 0x1 SWAP1 POP PUSH2 0x5EE JUMP JUMPDEST DUP2 PUSH2 0x540 JUMPI PUSH0 SWAP1 POP PUSH2 0x5EE JUMP JUMPDEST DUP2 PUSH1 0x1 DUP2 EQ PUSH2 0x556 JUMPI PUSH1 0x2 DUP2 EQ PUSH2 0x560 JUMPI PUSH2 0x58F JUMP JUMPDEST PUSH1 0x1 SWAP2 POP POP PUSH2 0x5EE JUMP JUMPDEST PUSH1 0xFF DUP5 GT ISZERO PUSH2 0x572 JUMPI PUSH2 0x571 PUSH2 0x425 JUMP JUMPDEST JUMPDEST DUP4 PUSH1 0x2 EXP SWAP2 POP DUP5 DUP3 GT ISZERO PUSH2 0x589 JUMPI PUSH2 0x588 PUSH2 0x425 JUMP JUMPDEST JUMPDEST POP PUSH2 0x5EE JUMP JUMPDEST POP PUSH1 0x20 DUP4 LT PUSH2 0x133 DUP4 LT AND PUSH1 0x4E DUP5 LT PUSH1 0xB DUP5 LT AND OR ISZERO PUSH2 0x5C4 JUMPI DUP3 DUP3 EXP SWAP1 POP DUP4 DUP2 GT ISZERO PUSH2 0x5BF JUMPI PUSH2 0x5BE PUSH2 0x425 JUMP JUMPDEST JUMPDEST PUSH2 0x5EE JUMP JUMPDEST PUSH2 0x5D1 DUP5 DUP5 DUP5 PUSH1 0x1 PUSH2 0x4D2 JUMP JUMPDEST SWAP3 POP SWAP1 POP DUP2 DUP5 DIV DUP2 GT ISZERO PUSH2 0x5E8 JUMPI PUSH2 0x5E7 PUSH2 0x425 JUMP JUMPDEST JUMPDEST DUP2 DUP2 MUL SWAP1 POP JUMPDEST SWAP4 SWAP3 POP POP POP JUMP JUMPDEST PUSH0 PUSH2 0x5FF DUP3 PUSH2 0x34F JUMP JUMPDEST SWAP2 POP PUSH2 0x60A DUP4 PUSH2 0x34F JUMP JUMPDEST SWAP3 POP PUSH2 0x637 PUSH32 0xFFFFFFFFFFFFFFFFFFFFFFFFFFFFFFFFFFFFFFFFFFFFFFFFFFFFFFFFFFFFFFFF DUP5 DUP5 PUSH2 0x524 JUMP JUMPDEST SWAP1 POP SWAP3 SWAP2 POP POP JUMP JUMPDEST PUSH32 0x4E487B7100000000000000000000000000000000000000000000000000000000 PUSH0 MSTORE PUSH1 0x12 PUSH1 0x4 MSTORE PUSH1 0x24 PUSH0 REVERT JUMPDEST PUSH0 PUSH2 0x676 DUP3 PUSH2 0x34F JUMP JUMPDEST SWAP2 POP PUSH2 0x681 DUP4 PUSH2 0x34F JUMP JUMPDEST SWAP3 POP DUP3 PUSH2 0x691 JUMPI PUSH2 0x690 PUSH2 0x63F JUMP JUMPDEST JUMPDEST DUP3 DUP3 DIV SWAP1 POP SWAP3 SWAP2 POP POP JUMP JUMPDEST PUSH32 0x4E487B7100000000000000000000000000000000000000000000000000000000 PUSH0 MSTORE PUSH1 0x41 PUSH1 0x4 MSTORE PUSH1 0x24 PUSH0 REVERT INVALID LOG2 PUSH5 0x6970667358 0x22 SLT KECCAK256 0xB8 0x25 0xA9 0xD5 0xC5 DIV GT DUP1 LT 0xD0 PUSH7 0xBD5F2B99DA1545 LOG0 0x21 AND PUSH14 0xE442D3EF805A3245319C64736F6C PUSH4 0x4300081A STOP CALLER "
		},
		"gasEstimates": {
			"creation": {
				"codeDepositCost": "358200",
				"executionCost": "391",
				"totalCost": "358591"
			},
			"external": {
				"concatNum(uint256)": "infinite",
				"concatNum(uint256,uint256,uint256)": "infinite"
			}
		},
		"methodIdentifiers": {
			"concatNum(uint256)": "a13c0aa2",
			"concatNum(uint256,uint256,uint256)": "8f4aec3f"
		}
	},
	"abi": [
		{
			"inputs": [
				{
					"internalType": "uint256",
					"name": "_a",
					"type": "uint256"
				},
				{
					"internalType": "uint256",
					"name": "_b",
					"type": "uint256"
				},
				{
					"internalType": "uint256",
					"name": "_c",
					"type": "uint256"
				}
			],
			"name": "concatNum",
			"outputs": [
				{
					"internalType": "uint256",
					"name": "",
					"type": "uint256"
				}
			],
			"stateMutability": "pure",
			"type": "function"
		},
		{
			"inputs": [
				{
					"internalType": "uint256",
					"name": "_a",
					"type": "uint256"
				}
			],
			"name": "concatNum",
			"outputs": [
				{
					"internalType": "uint256",
					"name": "",
					"type": "uint256"
				}
			],
			"stateMutability": "nonpayable",
			"type": "function"
		}
	]
}