{
	"data": {
		"bytecode": {
			"linkReferences": {},
			"object": "6080604052348015600e575f80fd5b5061024f8061001c5f395ff3fe608060405260043610610028575f3560e01c806363a16b4b1461002c578063ed88c68e14610057575b5f80fd5b348015610037575f80fd5b50610040610061565b60405161004e92919061017a565b60405180910390f35b61005f61008e565b005b5f805f8054906101000a900473ffffffffffffffffffffffffffffffffffffffff16600154915091509091565b5f34116100d0576040517f08c379a00000000000000000000000000000000000000000000000000000000081526004016100c7906101fb565b60405180910390fd5b34600154101561012157335f806101000a81548173ffffffffffffffffffffffffffffffffffffffff021916908373ffffffffffffffffffffffffffffffffffffffff160217905550346001819055505b565b5f73ffffffffffffffffffffffffffffffffffffffff82169050919050565b5f61014c82610123565b9050919050565b61015c81610142565b82525050565b5f819050919050565b61017481610162565b82525050565b5f60408201905061018d5f830185610153565b61019a602083018461016b565b9392505050565b5f82825260208201905092915050565b7f707574206d6f7265207468616e203000000000000000000000000000000000005f82015250565b5f6101e5600f836101a1565b91506101f0826101b1565b602082019050919050565b5f6020820190508181035f830152610212816101d9565b905091905056fea26469706673582212201d466038c62902e7e6c5014c6828cd748e56811ff913405f3703a9dc4b12aa9964736f6c63430008190033",
			"opcodes": "PUSH1 0x80 PUSH1 0x40 MSTORE CALLVALUE DUP1 ISZERO PUSH1 0xE JUMPI PUSH0 DUP1 REVERT JUMPDEST POP PUSH2 0x24F DUP1 PUSH2 0x1C PUSH0 CODECOPY PUSH0 RETURN INVALID PUSH1 0x80 PUSH1 0x40 MSTORE PUSH1 0x4 CALLDATASIZE LT PUSH2 0x28 JUMPI PUSH0 CALLDATALOAD PUSH1 0xE0 SHR DUP1 PUSH4 0x63A16B4B EQ PUSH2 0x2C JUMPI DUP1 PUSH4 0xED88C68E EQ PUSH2 0x57 JUMPI JUMPDEST PUSH0 DUP1 REVERT JUMPDEST CALLVALUE DUP1 ISZERO PUSH2 0x37 JUMPI PUSH0 DUP1 REVERT JUMPDEST POP PUSH2 0x40 PUSH2 0x61 JUMP JUMPDEST PUSH1 0x40 MLOAD PUSH2 0x4E SWAP3 SWAP2 SWAP1 PUSH2 0x17A JUMP JUMPDEST PUSH1 0x40 MLOAD DUP1 SWAP2 SUB SWAP1 RETURN JUMPDEST PUSH2 0x5F PUSH2 0x8E JUMP JUMPDEST STOP JUMPDEST PUSH0 DUP1 PUSH0 DUP1 SLOAD SWAP1 PUSH2 0x100 EXP SWAP1 DIV PUSH20 0xFFFFFFFFFFFFFFFFFFFFFFFFFFFFFFFFFFFFFFFF AND PUSH1 0x1 SLOAD SWAP2 POP SWAP2 POP SWAP1 SWAP2 JUMP JUMPDEST PUSH0 CALLVALUE GT PUSH2 0xD0 JUMPI PUSH1 0x40 MLOAD PUSH32 0x8C379A000000000000000000000000000000000000000000000000000000000 DUP2 MSTORE PUSH1 0x4 ADD PUSH2 0xC7 SWAP1 PUSH2 0x1FB JUMP JUMPDEST PUSH1 0x40 MLOAD DUP1 SWAP2 SUB SWAP1 REVERT JUMPDEST CALLVALUE PUSH1 0x1 SLOAD LT ISZERO PUSH2 0x121 JUMPI CALLER PUSH0 DUP1 PUSH2 0x100 EXP DUP2 SLOAD DUP2 PUSH20 0xFFFFFFFFFFFFFFFFFFFFFFFFFFFFFFFFFFFFFFFF MUL NOT AND SWAP1 DUP4 PUSH20 0xFFFFFFFFFFFFFFFFFFFFFFFFFFFFFFFFFFFFFFFF AND MUL OR SWAP1 SSTORE POP CALLVALUE PUSH1 0x1 DUP2 SWAP1 SSTORE POP JUMPDEST JUMP JUMPDEST PUSH0 PUSH20 0xFFFFFFFFFFFFFFFFFFFFFFFFFFFFFFFFFFFFFFFF DUP3 AND SWAP1 POP SWAP2 SWAP1 POP JUMP JUMPDEST PUSH0 PUSH2 0x14C DUP3 PUSH2 0x123 JUMP JUMPDEST SWAP1 POP SWAP2 SWAP1 POP JUMP JUMPDEST PUSH2 0x15C DUP2 PUSH2 0x142 JUMP JUMPDEST DUP3 MSTORE POP POP JUMP JUMPDEST PUSH0 DUP2 SWAP1 POP SWAP2 SWAP1 POP JUMP JUMPDEST PUSH2 0x174 DUP2 PUSH2 0x162 JUMP JUMPDEST DUP3 MSTORE POP POP JUMP JUMPDEST PUSH0 PUSH1 0x40 DUP3 ADD SWAP1 POP PUSH2 0x18D PUSH0 DUP4 ADD DUP6 PUSH2 0x153 JUMP JUMPDEST PUSH2 0x19A PUSH1 0x20 DUP4 ADD DUP5 PUSH2 0x16B JUMP JUMPDEST SWAP4 SWAP3 POP POP POP JUMP JUMPDEST PUSH0 DUP3 DUP3 MSTORE PUSH1 0x20 DUP3 ADD SWAP1 POP SWAP3 SWAP2 POP POP JUMP JUMPDEST PUSH32 0x707574206D6F7265207468616E20300000000000000000000000000000000000 PUSH0 DUP3 ADD MSTORE POP JUMP JUMPDEST PUSH0 PUSH2 0x1E5 PUSH1 0xF DUP4 PUSH2 0x1A1 JUMP JUMPDEST SWAP2 POP PUSH2 0x1F0 DUP3 PUSH2 0x1B1 JUMP JUMPDEST PUSH1 0x20 DUP3 ADD SWAP1 POP SWAP2 SWAP1 POP JUMP JUMPDEST PUSH0 PUSH1 0x20 DUP3 ADD SWAP1 POP DUP2 DUP2 SUB PUSH0 DUP4 ADD MSTORE PUSH2 0x212 DUP2 PUSH2 0x1D9 JUMP JUMPDEST SWAP1 POP SWAP2 SWAP1 POP JUMP INVALID LOG2 PUSH5 0x6970667358 0x22 SLT KECCAK256 SAR CHAINID PUSH1 0x38 0xC6 0x29 MUL 0xE7 0xE6 0xC5 ADD 0x4C PUSH9 0x28CD748E56811FF913 BLOCKHASH PUSH0 CALLDATACOPY SUB 0xA9 0xDC 0x4B SLT 0xAA SWAP10 PUSH5 0x736F6C6343 STOP ADDMOD NOT STOP CALLER "
		},
		"gasEstimates": {
			"creation": {
				"codeDepositCost": "118200",
				"executionCost": "163",
				"totalCost": "118363"
			},
			"external": {
				"donate()": "48643",
				"getBiggestDonate()": "4703"
			}
		},
		"methodIdentifiers": {
			"donate()": "ed88c68e",
			"getBiggestDonate()": "63a16b4b"
		}
	},
	"abi": [
		{
			"inputs": [],
			"name": "donate",
			"outputs": [],
			"stateMutability": "payable",
			"type": "function"
		},
		{
			"inputs": [],
			"name": "getBiggestDonate",
			"outputs": [
				{
					"internalType": "address",
					"name": "",
					"type": "address"
				},
				{
					"internalType": "uint256",
					"name": "",
					"type": "uint256"
				}
			],
			"stateMutability": "view",
			"type": "function"
		}
	]
}