{
	"data": {
		"bytecode": {
			"linkReferences": {},
			"object": "6080604052348015600e575f80fd5b506101eb8061001c5f395ff3fe608060405234801561000f575f80fd5b5060043610610029575f3560e01c8063837148341461002d575b5f80fd5b610047600480360381019061004291906100cd565b61005d565b6040516100549190610107565b60405180910390f35b5f80600190505b5f83111561008d578281610078919061014d565b905082806100859061018e565b935050610064565b80915050919050565b5f80fd5b5f819050919050565b6100ac8161009a565b81146100b6575f80fd5b50565b5f813590506100c7816100a3565b92915050565b5f602082840312156100e2576100e1610096565b5b5f6100ef848285016100b9565b91505092915050565b6101018161009a565b82525050565b5f60208201905061011a5f8301846100f8565b92915050565b7f4e487b71000000000000000000000000000000000000000000000000000000005f52601160045260245ffd5b5f6101578261009a565b91506101628361009a565b92508282026101708161009a565b9150828204841483151761018757610186610120565b5b5092915050565b5f6101988261009a565b91505f82036101aa576101a9610120565b5b60018203905091905056fea264697066735822122003b8aab55ac1d9e1cb9884927631ed200de208bc31f06be68c07995e547ed2f564736f6c63430008190033",
			"opcodes": "PUSH1 0x80 PUSH1 0x40 MSTORE CALLVALUE DUP1 ISZERO PUSH1 0xE JUMPI PUSH0 DUP1 REVERT JUMPDEST POP PUSH2 0x1EB DUP1 PUSH2 0x1C PUSH0 CODECOPY PUSH0 RETURN INVALID PUSH1 0x80 PUSH1 0x40 MSTORE CALLVALUE DUP1 ISZERO PUSH2 0xF JUMPI PUSH0 DUP1 REVERT JUMPDEST POP PUSH1 0x4 CALLDATASIZE LT PUSH2 0x29 JUMPI PUSH0 CALLDATALOAD PUSH1 0xE0 SHR DUP1 PUSH4 0x83714834 EQ PUSH2 0x2D JUMPI JUMPDEST PUSH0 DUP1 REVERT JUMPDEST PUSH2 0x47 PUSH1 0x4 DUP1 CALLDATASIZE SUB DUP2 ADD SWAP1 PUSH2 0x42 SWAP2 SWAP1 PUSH2 0xCD JUMP JUMPDEST PUSH2 0x5D JUMP JUMPDEST PUSH1 0x40 MLOAD PUSH2 0x54 SWAP2 SWAP1 PUSH2 0x107 JUMP JUMPDEST PUSH1 0x40 MLOAD DUP1 SWAP2 SUB SWAP1 RETURN JUMPDEST PUSH0 DUP1 PUSH1 0x1 SWAP1 POP JUMPDEST PUSH0 DUP4 GT ISZERO PUSH2 0x8D JUMPI DUP3 DUP2 PUSH2 0x78 SWAP2 SWAP1 PUSH2 0x14D JUMP JUMPDEST SWAP1 POP DUP3 DUP1 PUSH2 0x85 SWAP1 PUSH2 0x18E JUMP JUMPDEST SWAP4 POP POP PUSH2 0x64 JUMP JUMPDEST DUP1 SWAP2 POP POP SWAP2 SWAP1 POP JUMP JUMPDEST PUSH0 DUP1 REVERT JUMPDEST PUSH0 DUP2 SWAP1 POP SWAP2 SWAP1 POP JUMP JUMPDEST PUSH2 0xAC DUP2 PUSH2 0x9A JUMP JUMPDEST DUP2 EQ PUSH2 0xB6 JUMPI PUSH0 DUP1 REVERT JUMPDEST POP JUMP JUMPDEST PUSH0 DUP2 CALLDATALOAD SWAP1 POP PUSH2 0xC7 DUP2 PUSH2 0xA3 JUMP JUMPDEST SWAP3 SWAP2 POP POP JUMP JUMPDEST PUSH0 PUSH1 0x20 DUP3 DUP5 SUB SLT ISZERO PUSH2 0xE2 JUMPI PUSH2 0xE1 PUSH2 0x96 JUMP JUMPDEST JUMPDEST PUSH0 PUSH2 0xEF DUP5 DUP3 DUP6 ADD PUSH2 0xB9 JUMP JUMPDEST SWAP2 POP POP SWAP3 SWAP2 POP POP JUMP JUMPDEST PUSH2 0x101 DUP2 PUSH2 0x9A JUMP JUMPDEST DUP3 MSTORE POP POP JUMP JUMPDEST PUSH0 PUSH1 0x20 DUP3 ADD SWAP1 POP PUSH2 0x11A PUSH0 DUP4 ADD DUP5 PUSH2 0xF8 JUMP JUMPDEST SWAP3 SWAP2 POP POP JUMP JUMPDEST PUSH32 0x4E487B7100000000000000000000000000000000000000000000000000000000 PUSH0 MSTORE PUSH1 0x11 PUSH1 0x4 MSTORE PUSH1 0x24 PUSH0 REVERT JUMPDEST PUSH0 PUSH2 0x157 DUP3 PUSH2 0x9A JUMP JUMPDEST SWAP2 POP PUSH2 0x162 DUP4 PUSH2 0x9A JUMP JUMPDEST SWAP3 POP DUP3 DUP3 MUL PUSH2 0x170 DUP2 PUSH2 0x9A JUMP JUMPDEST SWAP2 POP DUP3 DUP3 DIV DUP5 EQ DUP4 ISZERO OR PUSH2 0x187 JUMPI PUSH2 0x186 PUSH2 0x120 JUMP JUMPDEST JUMPDEST POP SWAP3 SWAP2 POP POP JUMP JUMPDEST PUSH0 PUSH2 0x198 DUP3 PUSH2 0x9A JUMP JUMPDEST SWAP2 POP PUSH0 DUP3 SUB PUSH2 0x1AA JUMPI PUSH2 0x1A9 PUSH2 0x120 JUMP JUMPDEST JUMPDEST PUSH1 0x1 DUP3 SUB SWAP1 POP SWAP2 SWAP1 POP JUMP INVALID LOG2 PUSH5 0x6970667358 0x22 SLT KECCAK256 SUB 0xB8 0xAA 0xB5 GAS 0xC1 0xD9 0xE1 0xCB SWAP9 DUP5 SWAP3 PUSH23 0x31ED200DE208BC31F06BE68C07995E547ED2F564736F6C PUSH4 0x43000819 STOP CALLER "
		},
		"gasEstimates": {
			"creation": {
				"codeDepositCost": "98200",
				"executionCost": "145",
				"totalCost": "98345"
			},
			"external": {
				"factorial(uint256)": "infinite"
			}
		},
		"methodIdentifiers": {
			"factorial(uint256)": "83714834"
		}
	},
	"abi": [
		{
			"inputs": [
				{
					"internalType": "uint256",
					"name": "_n",
					"type": "uint256"
				}
			],
			"name": "factorial",
			"outputs": [
				{
					"internalType": "uint256",
					"name": "",
					"type": "uint256"
				}
			],
			"stateMutability": "pure",
			"type": "function"
		}
	]
}