{
	"data": {
		"bytecode": {
			"linkReferences": {},
			"object": "6080604052348015600e575f80fd5b506102688061001c5f395ff3fe608060405234801561000f575f80fd5b5060043610610029575f3560e01c80635e04babd1461002d575b5f80fd5b610047600480360381019061004291906100e4565b61005e565b60405161005592919061011e565b60405180910390f35b5f805f600a8461006e919061019f565b8461007991906101cf565b90505f600a856100899190610202565b90505f811461009f5781819350935050506100a8565b81819350935050505b915091565b5f80fd5b5f819050919050565b6100c3816100b1565b81146100cd575f80fd5b50565b5f813590506100de816100ba565b92915050565b5f602082840312156100f9576100f86100ad565b5b5f610106848285016100d0565b91505092915050565b610118816100b1565b82525050565b5f6040820190506101315f83018561010f565b61013e602083018461010f565b9392505050565b7f4e487b71000000000000000000000000000000000000000000000000000000005f52601260045260245ffd5b7f4e487b71000000000000000000000000000000000000000000000000000000005f52601160045260245ffd5b5f6101a9826100b1565b91506101b4836100b1565b9250826101c4576101c3610145565b5b828204905092915050565b5f6101d9826100b1565b91506101e4836100b1565b92508282019050808211156101fc576101fb610172565b5b92915050565b5f61020c826100b1565b9150610217836100b1565b92508261022757610226610145565b5b82820690509291505056fea2646970667358221220e04c8ff1b0a7304401cf894124c52ac55f604d7a3f1a7f6d286e544a1b03ae7164736f6c63430008190033",
			"opcodes": "PUSH1 0x80 PUSH1 0x40 MSTORE CALLVALUE DUP1 ISZERO PUSH1 0xE JUMPI PUSH0 DUP1 REVERT JUMPDEST POP PUSH2 0x268 DUP1 PUSH2 0x1C PUSH0 CODECOPY PUSH0 RETURN INVALID PUSH1 0x80 PUSH1 0x40 MSTORE CALLVALUE DUP1 ISZERO PUSH2 0xF JUMPI PUSH0 DUP1 REVERT JUMPDEST POP PUSH1 0x4 CALLDATASIZE LT PUSH2 0x29 JUMPI PUSH0 CALLDATALOAD PUSH1 0xE0 SHR DUP1 PUSH4 0x5E04BABD EQ PUSH2 0x2D JUMPI JUMPDEST PUSH0 DUP1 REVERT JUMPDEST PUSH2 0x47 PUSH1 0x4 DUP1 CALLDATASIZE SUB DUP2 ADD SWAP1 PUSH2 0x42 SWAP2 SWAP1 PUSH2 0xE4 JUMP JUMPDEST PUSH2 0x5E JUMP JUMPDEST PUSH1 0x40 MLOAD PUSH2 0x55 SWAP3 SWAP2 SWAP1 PUSH2 0x11E JUMP JUMPDEST PUSH1 0x40 MLOAD DUP1 SWAP2 SUB SWAP1 RETURN JUMPDEST PUSH0 DUP1 PUSH0 PUSH1 0xA DUP5 PUSH2 0x6E SWAP2 SWAP1 PUSH2 0x19F JUMP JUMPDEST DUP5 PUSH2 0x79 SWAP2 SWAP1 PUSH2 0x1CF JUMP JUMPDEST SWAP1 POP PUSH0 PUSH1 0xA DUP6 PUSH2 0x89 SWAP2 SWAP1 PUSH2 0x202 JUMP JUMPDEST SWAP1 POP PUSH0 DUP2 EQ PUSH2 0x9F JUMPI DUP2 DUP2 SWAP4 POP SWAP4 POP POP POP PUSH2 0xA8 JUMP JUMPDEST DUP2 DUP2 SWAP4 POP SWAP4 POP POP POP JUMPDEST SWAP2 POP SWAP2 JUMP JUMPDEST PUSH0 DUP1 REVERT JUMPDEST PUSH0 DUP2 SWAP1 POP SWAP2 SWAP1 POP JUMP JUMPDEST PUSH2 0xC3 DUP2 PUSH2 0xB1 JUMP JUMPDEST DUP2 EQ PUSH2 0xCD JUMPI PUSH0 DUP1 REVERT JUMPDEST POP JUMP JUMPDEST PUSH0 DUP2 CALLDATALOAD SWAP1 POP PUSH2 0xDE DUP2 PUSH2 0xBA JUMP JUMPDEST SWAP3 SWAP2 POP POP JUMP JUMPDEST PUSH0 PUSH1 0x20 DUP3 DUP5 SUB SLT ISZERO PUSH2 0xF9 JUMPI PUSH2 0xF8 PUSH2 0xAD JUMP JUMPDEST JUMPDEST PUSH0 PUSH2 0x106 DUP5 DUP3 DUP6 ADD PUSH2 0xD0 JUMP JUMPDEST SWAP2 POP POP SWAP3 SWAP2 POP POP JUMP JUMPDEST PUSH2 0x118 DUP2 PUSH2 0xB1 JUMP JUMPDEST DUP3 MSTORE POP POP JUMP JUMPDEST PUSH0 PUSH1 0x40 DUP3 ADD SWAP1 POP PUSH2 0x131 PUSH0 DUP4 ADD DUP6 PUSH2 0x10F JUMP JUMPDEST PUSH2 0x13E PUSH1 0x20 DUP4 ADD DUP5 PUSH2 0x10F JUMP JUMPDEST SWAP4 SWAP3 POP POP POP JUMP JUMPDEST PUSH32 0x4E487B7100000000000000000000000000000000000000000000000000000000 PUSH0 MSTORE PUSH1 0x12 PUSH1 0x4 MSTORE PUSH1 0x24 PUSH0 REVERT JUMPDEST PUSH32 0x4E487B7100000000000000000000000000000000000000000000000000000000 PUSH0 MSTORE PUSH1 0x11 PUSH1 0x4 MSTORE PUSH1 0x24 PUSH0 REVERT JUMPDEST PUSH0 PUSH2 0x1A9 DUP3 PUSH2 0xB1 JUMP JUMPDEST SWAP2 POP PUSH2 0x1B4 DUP4 PUSH2 0xB1 JUMP JUMPDEST SWAP3 POP DUP3 PUSH2 0x1C4 JUMPI PUSH2 0x1C3 PUSH2 0x145 JUMP JUMPDEST JUMPDEST DUP3 DUP3 DIV SWAP1 POP SWAP3 SWAP2 POP POP JUMP JUMPDEST PUSH0 PUSH2 0x1D9 DUP3 PUSH2 0xB1 JUMP JUMPDEST SWAP2 POP PUSH2 0x1E4 DUP4 PUSH2 0xB1 JUMP JUMPDEST SWAP3 POP DUP3 DUP3 ADD SWAP1 POP DUP1 DUP3 GT ISZERO PUSH2 0x1FC JUMPI PUSH2 0x1FB PUSH2 0x172 JUMP JUMPDEST JUMPDEST SWAP3 SWAP2 POP POP JUMP JUMPDEST PUSH0 PUSH2 0x20C DUP3 PUSH2 0xB1 JUMP JUMPDEST SWAP2 POP PUSH2 0x217 DUP4 PUSH2 0xB1 JUMP JUMPDEST SWAP3 POP DUP3 PUSH2 0x227 JUMPI PUSH2 0x226 PUSH2 0x145 JUMP JUMPDEST JUMPDEST DUP3 DUP3 MOD SWAP1 POP SWAP3 SWAP2 POP POP JUMP INVALID LOG2 PUSH5 0x6970667358 0x22 SLT KECCAK256 0xE0 0x4C DUP16 CALL 0xB0 0xA7 ADDRESS PREVRANDAO ADD 0xCF DUP10 COINBASE 0x24 0xC5 0x2A 0xC5 PUSH0 PUSH1 0x4D PUSH27 0x3F1A7F6D286E544A1B03AE7164736F6C6343000819003300000000 "
		},
		"gasEstimates": {
			"creation": {
				"codeDepositCost": "123200",
				"executionCost": "169",
				"totalCost": "123369"
			},
			"external": {
				"operate(uint256)": "infinite"
			}
		},
		"methodIdentifiers": {
			"operate(uint256)": "5e04babd"
		}
	},
	"abi": [
		{
			"inputs": [
				{
					"internalType": "uint256",
					"name": "a",
					"type": "uint256"
				}
			],
			"name": "operate",
			"outputs": [
				{
					"internalType": "uint256",
					"name": "",
					"type": "uint256"
				},
				{
					"internalType": "uint256",
					"name": "",
					"type": "uint256"
				}
			],
			"stateMutability": "pure",
			"type": "function"
		}
	]
}