{
	"data": {
		"bytecode": {
			"linkReferences": {},
			"object": "6080604052348015600e575f80fd5b5061040c8061001c5f395ff3fe608060405234801561000f575f80fd5b5060043610610029575f3560e01c8063e93956791461002d575b5f80fd5b610047600480360381019061004291906102c1565b61005d565b604051610054919061035c565b60405180910390f35b60606100688261006f565b9050919050565b60605f600161007d84610139565b0190505f8167ffffffffffffffff81111561009b5761009a61037c565b5b6040519080825280601f01601f1916602001820160405280156100cd5781602001600182028036833780820191505090505b5090505f82602001820190505b60011561012e578080600190039150507f3031323334353637383961626364656600000000000000000000000000000000600a86061a8153600a8581610123576101226103a9565b5b0494505f85036100da575b819350505050919050565b5f805f90507a184f03e93ff9f4daa797ed6e38ed64bf6a1f0100000000000000008310610195577a184f03e93ff9f4daa797ed6e38ed64bf6a1f010000000000000000838161018b5761018a6103a9565b5b0492506040810190505b6d04ee2d6d415b85acef810000000083106101d2576d04ee2d6d415b85acef810000000083816101c8576101c76103a9565b5b0492506020810190505b662386f26fc10000831061020157662386f26fc1000083816101f7576101f66103a9565b5b0492506010810190505b6305f5e100831061022a576305f5e10083816102205761021f6103a9565b5b0492506008810190505b612710831061024f576127108381610245576102446103a9565b5b0492506004810190505b606483106102725760648381610268576102676103a9565b5b0492506002810190505b600a8310610281576001810190505b80915050919050565b5f80fd5b5f819050919050565b6102a08161028e565b81146102aa575f80fd5b50565b5f813590506102bb81610297565b92915050565b5f602082840312156102d6576102d561028a565b5b5f6102e3848285016102ad565b91505092915050565b5f81519050919050565b5f82825260208201905092915050565b8281835e5f83830152505050565b5f601f19601f8301169050919050565b5f61032e826102ec565b61033881856102f6565b9350610348818560208601610306565b61035181610314565b840191505092915050565b5f6020820190508181035f8301526103748184610324565b905092915050565b7f4e487b71000000000000000000000000000000000000000000000000000000005f52604160045260245ffd5b7f4e487b71000000000000000000000000000000000000000000000000000000005f52601260045260245ffdfea2646970667358221220f243842c06d247843b1995579e1da79b9be33250a9925e01753292cdaa4933d564736f6c63430008190033",
			"opcodes": "PUSH1 0x80 PUSH1 0x40 MSTORE CALLVALUE DUP1 ISZERO PUSH1 0xE JUMPI PUSH0 DUP1 REVERT JUMPDEST POP PUSH2 0x40C DUP1 PUSH2 0x1C PUSH0 CODECOPY PUSH0 RETURN INVALID PUSH1 0x80 PUSH1 0x40 MSTORE CALLVALUE DUP1 ISZERO PUSH2 0xF JUMPI PUSH0 DUP1 REVERT JUMPDEST POP PUSH1 0x4 CALLDATASIZE LT PUSH2 0x29 JUMPI PUSH0 CALLDATALOAD PUSH1 0xE0 SHR DUP1 PUSH4 0xE9395679 EQ PUSH2 0x2D JUMPI JUMPDEST PUSH0 DUP1 REVERT JUMPDEST PUSH2 0x47 PUSH1 0x4 DUP1 CALLDATASIZE SUB DUP2 ADD SWAP1 PUSH2 0x42 SWAP2 SWAP1 PUSH2 0x2C1 JUMP JUMPDEST PUSH2 0x5D JUMP JUMPDEST PUSH1 0x40 MLOAD PUSH2 0x54 SWAP2 SWAP1 PUSH2 0x35C JUMP JUMPDEST PUSH1 0x40 MLOAD DUP1 SWAP2 SUB SWAP1 RETURN JUMPDEST PUSH1 0x60 PUSH2 0x68 DUP3 PUSH2 0x6F JUMP JUMPDEST SWAP1 POP SWAP2 SWAP1 POP JUMP JUMPDEST PUSH1 0x60 PUSH0 PUSH1 0x1 PUSH2 0x7D DUP5 PUSH2 0x139 JUMP JUMPDEST ADD SWAP1 POP PUSH0 DUP2 PUSH8 0xFFFFFFFFFFFFFFFF DUP2 GT ISZERO PUSH2 0x9B JUMPI PUSH2 0x9A PUSH2 0x37C JUMP JUMPDEST JUMPDEST PUSH1 0x40 MLOAD SWAP1 DUP1 DUP3 MSTORE DUP1 PUSH1 0x1F ADD PUSH1 0x1F NOT AND PUSH1 0x20 ADD DUP3 ADD PUSH1 0x40 MSTORE DUP1 ISZERO PUSH2 0xCD JUMPI DUP2 PUSH1 0x20 ADD PUSH1 0x1 DUP3 MUL DUP1 CALLDATASIZE DUP4 CALLDATACOPY DUP1 DUP3 ADD SWAP2 POP POP SWAP1 POP JUMPDEST POP SWAP1 POP PUSH0 DUP3 PUSH1 0x20 ADD DUP3 ADD SWAP1 POP JUMPDEST PUSH1 0x1 ISZERO PUSH2 0x12E JUMPI DUP1 DUP1 PUSH1 0x1 SWAP1 SUB SWAP2 POP POP PUSH32 0x3031323334353637383961626364656600000000000000000000000000000000 PUSH1 0xA DUP7 MOD BYTE DUP2 MSTORE8 PUSH1 0xA DUP6 DUP2 PUSH2 0x123 JUMPI PUSH2 0x122 PUSH2 0x3A9 JUMP JUMPDEST JUMPDEST DIV SWAP5 POP PUSH0 DUP6 SUB PUSH2 0xDA JUMPI JUMPDEST DUP2 SWAP4 POP POP POP POP SWAP2 SWAP1 POP JUMP JUMPDEST PUSH0 DUP1 PUSH0 SWAP1 POP PUSH27 0x184F03E93FF9F4DAA797ED6E38ED64BF6A1F010000000000000000 DUP4 LT PUSH2 0x195 JUMPI PUSH27 0x184F03E93FF9F4DAA797ED6E38ED64BF6A1F010000000000000000 DUP4 DUP2 PUSH2 0x18B JUMPI PUSH2 0x18A PUSH2 0x3A9 JUMP JUMPDEST JUMPDEST DIV SWAP3 POP PUSH1 0x40 DUP2 ADD SWAP1 POP JUMPDEST PUSH14 0x4EE2D6D415B85ACEF8100000000 DUP4 LT PUSH2 0x1D2 JUMPI PUSH14 0x4EE2D6D415B85ACEF8100000000 DUP4 DUP2 PUSH2 0x1C8 JUMPI PUSH2 0x1C7 PUSH2 0x3A9 JUMP JUMPDEST JUMPDEST DIV SWAP3 POP PUSH1 0x20 DUP2 ADD SWAP1 POP JUMPDEST PUSH7 0x2386F26FC10000 DUP4 LT PUSH2 0x201 JUMPI PUSH7 0x2386F26FC10000 DUP4 DUP2 PUSH2 0x1F7 JUMPI PUSH2 0x1F6 PUSH2 0x3A9 JUMP JUMPDEST JUMPDEST DIV SWAP3 POP PUSH1 0x10 DUP2 ADD SWAP1 POP JUMPDEST PUSH4 0x5F5E100 DUP4 LT PUSH2 0x22A JUMPI PUSH4 0x5F5E100 DUP4 DUP2 PUSH2 0x220 JUMPI PUSH2 0x21F PUSH2 0x3A9 JUMP JUMPDEST JUMPDEST DIV SWAP3 POP PUSH1 0x8 DUP2 ADD SWAP1 POP JUMPDEST PUSH2 0x2710 DUP4 LT PUSH2 0x24F JUMPI PUSH2 0x2710 DUP4 DUP2 PUSH2 0x245 JUMPI PUSH2 0x244 PUSH2 0x3A9 JUMP JUMPDEST JUMPDEST DIV SWAP3 POP PUSH1 0x4 DUP2 ADD SWAP1 POP JUMPDEST PUSH1 0x64 DUP4 LT PUSH2 0x272 JUMPI PUSH1 0x64 DUP4 DUP2 PUSH2 0x268 JUMPI PUSH2 0x267 PUSH2 0x3A9 JUMP JUMPDEST JUMPDEST DIV SWAP3 POP PUSH1 0x2 DUP2 ADD SWAP1 POP JUMPDEST PUSH1 0xA DUP4 LT PUSH2 0x281 JUMPI PUSH1 0x1 DUP2 ADD SWAP1 POP JUMPDEST DUP1 SWAP2 POP POP SWAP2 SWAP1 POP JUMP JUMPDEST PUSH0 DUP1 REVERT JUMPDEST PUSH0 DUP2 SWAP1 POP SWAP2 SWAP1 POP JUMP JUMPDEST PUSH2 0x2A0 DUP2 PUSH2 0x28E JUMP JUMPDEST DUP2 EQ PUSH2 0x2AA JUMPI PUSH0 DUP1 REVERT JUMPDEST POP JUMP JUMPDEST PUSH0 DUP2 CALLDATALOAD SWAP1 POP PUSH2 0x2BB DUP2 PUSH2 0x297 JUMP JUMPDEST SWAP3 SWAP2 POP POP JUMP JUMPDEST PUSH0 PUSH1 0x20 DUP3 DUP5 SUB SLT ISZERO PUSH2 0x2D6 JUMPI PUSH2 0x2D5 PUSH2 0x28A JUMP JUMPDEST JUMPDEST PUSH0 PUSH2 0x2E3 DUP5 DUP3 DUP6 ADD PUSH2 0x2AD JUMP JUMPDEST SWAP2 POP POP SWAP3 SWAP2 POP POP JUMP JUMPDEST PUSH0 DUP2 MLOAD SWAP1 POP SWAP2 SWAP1 POP JUMP JUMPDEST PUSH0 DUP3 DUP3 MSTORE PUSH1 0x20 DUP3 ADD SWAP1 POP SWAP3 SWAP2 POP POP JUMP JUMPDEST DUP3 DUP2 DUP4 MCOPY PUSH0 DUP4 DUP4 ADD MSTORE POP POP POP JUMP JUMPDEST PUSH0 PUSH1 0x1F NOT PUSH1 0x1F DUP4 ADD AND SWAP1 POP SWAP2 SWAP1 POP JUMP JUMPDEST PUSH0 PUSH2 0x32E DUP3 PUSH2 0x2EC JUMP JUMPDEST PUSH2 0x338 DUP2 DUP6 PUSH2 0x2F6 JUMP JUMPDEST SWAP4 POP PUSH2 0x348 DUP2 DUP6 PUSH1 0x20 DUP7 ADD PUSH2 0x306 JUMP JUMPDEST PUSH2 0x351 DUP2 PUSH2 0x314 JUMP JUMPDEST DUP5 ADD SWAP2 POP POP SWAP3 SWAP2 POP POP JUMP JUMPDEST PUSH0 PUSH1 0x20 DUP3 ADD SWAP1 POP DUP2 DUP2 SUB PUSH0 DUP4 ADD MSTORE PUSH2 0x374 DUP2 DUP5 PUSH2 0x324 JUMP JUMPDEST SWAP1 POP SWAP3 SWAP2 POP POP JUMP JUMPDEST PUSH32 0x4E487B7100000000000000000000000000000000000000000000000000000000 PUSH0 MSTORE PUSH1 0x41 PUSH1 0x4 MSTORE PUSH1 0x24 PUSH0 REVERT JUMPDEST PUSH32 0x4E487B7100000000000000000000000000000000000000000000000000000000 PUSH0 MSTORE PUSH1 0x12 PUSH1 0x4 MSTORE PUSH1 0x24 PUSH0 REVERT INVALID LOG2 PUSH5 0x6970667358 0x22 SLT KECCAK256 CALLCODE NUMBER DUP5 0x2C MOD 0xD2 SELFBALANCE DUP5 EXTCODESIZE NOT SWAP6 JUMPI SWAP15 SAR 0xA7 SWAP12 SWAP12 0xE3 ORIGIN POP 0xA9 SWAP3 MCOPY ADD PUSH22 0x3292CDAA4933D564736F6C6343000819003300000000 "
		},
		"gasEstimates": {
			"creation": {
				"codeDepositCost": "207200",
				"executionCost": "249",
				"totalCost": "207449"
			},
			"external": {
				"uintToString(uint256)": "infinite"
			}
		},
		"methodIdentifiers": {
			"uintToString(uint256)": "e9395679"
		}
	},
	"abi": [
		{
			"inputs": [
				{
					"internalType": "uint256",
					"name": "a",
					"type": "uint256"
				}
			],
			"name": "uintToString",
			"outputs": [
				{
					"internalType": "string",
					"name": "",
					"type": "string"
				}
			],
			"stateMutability": "pure",
			"type": "function"
		}
	]
}