{
	"data": {
		"bytecode": {
			"linkReferences": {},
			"object": "6080604052348015600e575f80fd5b50605f80601a5f395ff3fe608060405260043610601b575f3560e01c8063d0e30db014601f575b5f80fd5b60256027565b005b56fea2646970667358221220287817ea95acef073ef1d543a1ba3624433f80b5bccc6de69a1cbffc7c8f2a4764736f6c63430008190033",
			"opcodes": "PUSH1 0x80 PUSH1 0x40 MSTORE CALLVALUE DUP1 ISZERO PUSH1 0xE JUMPI PUSH0 DUP1 REVERT JUMPDEST POP PUSH1 0x5F DUP1 PUSH1 0x1A PUSH0 CODECOPY PUSH0 RETURN INVALID PUSH1 0x80 PUSH1 0x40 MSTORE PUSH1 0x4 CALLDATASIZE LT PUSH1 0x1B JUMPI PUSH0 CALLDATALOAD PUSH1 0xE0 SHR DUP1 PUSH4 0xD0E30DB0 EQ PUSH1 0x1F JUMPI JUMPDEST PUSH0 DUP1 REVERT JUMPDEST PUSH1 0x25 PUSH1 0x27 JUMP JUMPDEST STOP JUMPDEST JUMP INVALID LOG2 PUSH5 0x6970667358 0x22 SLT KECCAK256 0x28 PUSH25 0x17EA95ACEF073EF1D543A1BA3624433F80B5BCCC6DE69A1CBF 0xFC PUSH29 0x8F2A4764736F6C63430008190033000000000000000000000000000000 "
		},
		"deployedBytecode": {
			"immutableReferences": {},
			"linkReferences": {},
			"object": "608060405260043610601b575f3560e01c8063d0e30db014601f575b5f80fd5b60256027565b005b56fea2646970667358221220287817ea95acef073ef1d543a1ba3624433f80b5bccc6de69a1cbffc7c8f2a4764736f6c63430008190033",
			"opcodes": "PUSH1 0x80 PUSH1 0x40 MSTORE PUSH1 0x4 CALLDATASIZE LT PUSH1 0x1B JUMPI PUSH0 CALLDATALOAD PUSH1 0xE0 SHR DUP1 PUSH4 0xD0E30DB0 EQ PUSH1 0x1F JUMPI JUMPDEST PUSH0 DUP1 REVERT JUMPDEST PUSH1 0x25 PUSH1 0x27 JUMP JUMPDEST STOP JUMPDEST JUMP INVALID LOG2 PUSH5 0x6970667358 0x22 SLT KECCAK256 0x28 PUSH25 0x17EA95ACEF073EF1D543A1BA3624433F80B5BCCC6DE69A1CBF 0xFC PUSH29 0x8F2A4764736F6C63430008190033000000000000000000000000000000 "
		},
		"gasEstimates": {
			"creation": {
				"codeDepositCost": "19000",
				"executionCost": "67",
				"totalCost": "19067"
			},
			"external": {
				"deposit()": "97"
			}
		},
		"methodIdentifiers": {
			"deposit()": "d0e30db0"
		}
	},
	"abi": [
		{
			"inputs": [],
			"name": "deposit",
			"outputs": [],
			"stateMutability": "payable",
			"type": "function"
		}
	]
}