{
	"data": {
		"bytecode": {
			"linkReferences": {},
			"object": "6080604052348015600e575f80fd5b5061024d8061001c5f395ff3fe608060405234801561000f575f80fd5b5060043610610029575f3560e01c8063afc7e9251461002d575b5f80fd5b6100476004803603810190610042919061011b565b61005f565b60405161005693929190610155565b60405180910390f35b5f805f8060038561007091906101b7565b1461007b575f610089565b60038461008891906101e7565b5b5f60058661009791906101b7565b146100a2575f6100b0565b6005856100af91906101e7565b5b5f6008876100be91906101b7565b146100c9575f6100d7565b6008866100d691906101e7565b5b9250925092509193909250565b5f80fd5b5f819050919050565b6100fa816100e8565b8114610104575f80fd5b50565b5f81359050610115816100f1565b92915050565b5f602082840312156101305761012f6100e4565b5b5f61013d84828501610107565b91505092915050565b61014f816100e8565b82525050565b5f6060820190506101685f830186610146565b6101756020830185610146565b6101826040830184610146565b949350505050565b7f4e487b71000000000000000000000000000000000000000000000000000000005f52601260045260245ffd5b5f6101c1826100e8565b91506101cc836100e8565b9250826101dc576101db61018a565b5b828206905092915050565b5f6101f1826100e8565b91506101fc836100e8565b92508261020c5761020b61018a565b5b82820490509291505056fea2646970667358221220a2bc3d9757e0f4beb51f8ecc65d2258c5a05c34a98f4b462b324e2883b31ff8464736f6c63430008190033",
			"opcodes": "PUSH1 0x80 PUSH1 0x40 MSTORE CALLVALUE DUP1 ISZERO PUSH1 0xE JUMPI PUSH0 DUP1 REVERT JUMPDEST POP PUSH2 0x24D DUP1 PUSH2 0x1C PUSH0 CODECOPY PUSH0 RETURN INVALID PUSH1 0x80 PUSH1 0x40 MSTORE CALLVALUE DUP1 ISZERO PUSH2 0xF JUMPI PUSH0 DUP1 REVERT JUMPDEST POP PUSH1 0x4 CALLDATASIZE LT PUSH2 0x29 JUMPI PUSH0 CALLDATALOAD PUSH1 0xE0 SHR DUP1 PUSH4 0xAFC7E925 EQ PUSH2 0x2D JUMPI JUMPDEST PUSH0 DUP1 REVERT JUMPDEST PUSH2 0x47 PUSH1 0x4 DUP1 CALLDATASIZE SUB DUP2 ADD SWAP1 PUSH2 0x42 SWAP2 SWAP1 PUSH2 0x11B JUMP JUMPDEST PUSH2 0x5F JUMP JUMPDEST PUSH1 0x40 MLOAD PUSH2 0x56 SWAP4 SWAP3 SWAP2 SWAP1 PUSH2 0x155 JUMP JUMPDEST PUSH1 0x40 MLOAD DUP1 SWAP2 SUB SWAP1 RETURN JUMPDEST PUSH0 DUP1 PUSH0 DUP1 PUSH1 0x3 DUP6 PUSH2 0x70 SWAP2 SWAP1 PUSH2 0x1B7 JUMP JUMPDEST EQ PUSH2 0x7B JUMPI PUSH0 PUSH2 0x89 JUMP JUMPDEST PUSH1 0x3 DUP5 PUSH2 0x88 SWAP2 SWAP1 PUSH2 0x1E7 JUMP JUMPDEST JUMPDEST PUSH0 PUSH1 0x5 DUP7 PUSH2 0x97 SWAP2 SWAP1 PUSH2 0x1B7 JUMP JUMPDEST EQ PUSH2 0xA2 JUMPI PUSH0 PUSH2 0xB0 JUMP JUMPDEST PUSH1 0x5 DUP6 PUSH2 0xAF SWAP2 SWAP1 PUSH2 0x1E7 JUMP JUMPDEST JUMPDEST PUSH0 PUSH1 0x8 DUP8 PUSH2 0xBE SWAP2 SWAP1 PUSH2 0x1B7 JUMP JUMPDEST EQ PUSH2 0xC9 JUMPI PUSH0 PUSH2 0xD7 JUMP JUMPDEST PUSH1 0x8 DUP7 PUSH2 0xD6 SWAP2 SWAP1 PUSH2 0x1E7 JUMP JUMPDEST JUMPDEST SWAP3 POP SWAP3 POP SWAP3 POP SWAP2 SWAP4 SWAP1 SWAP3 POP JUMP JUMPDEST PUSH0 DUP1 REVERT JUMPDEST PUSH0 DUP2 SWAP1 POP SWAP2 SWAP1 POP JUMP JUMPDEST PUSH2 0xFA DUP2 PUSH2 0xE8 JUMP JUMPDEST DUP2 EQ PUSH2 0x104 JUMPI PUSH0 DUP1 REVERT JUMPDEST POP JUMP JUMPDEST PUSH0 DUP2 CALLDATALOAD SWAP1 POP PUSH2 0x115 DUP2 PUSH2 0xF1 JUMP JUMPDEST SWAP3 SWAP2 POP POP JUMP JUMPDEST PUSH0 PUSH1 0x20 DUP3 DUP5 SUB SLT ISZERO PUSH2 0x130 JUMPI PUSH2 0x12F PUSH2 0xE4 JUMP JUMPDEST JUMPDEST PUSH0 PUSH2 0x13D DUP5 DUP3 DUP6 ADD PUSH2 0x107 JUMP JUMPDEST SWAP2 POP POP SWAP3 SWAP2 POP POP JUMP JUMPDEST PUSH2 0x14F DUP2 PUSH2 0xE8 JUMP JUMPDEST DUP3 MSTORE POP POP JUMP JUMPDEST PUSH0 PUSH1 0x60 DUP3 ADD SWAP1 POP PUSH2 0x168 PUSH0 DUP4 ADD DUP7 PUSH2 0x146 JUMP JUMPDEST PUSH2 0x175 PUSH1 0x20 DUP4 ADD DUP6 PUSH2 0x146 JUMP JUMPDEST PUSH2 0x182 PUSH1 0x40 DUP4 ADD DUP5 PUSH2 0x146 JUMP JUMPDEST SWAP5 SWAP4 POP POP POP POP JUMP JUMPDEST PUSH32 0x4E487B7100000000000000000000000000000000000000000000000000000000 PUSH0 MSTORE PUSH1 0x12 PUSH1 0x4 MSTORE PUSH1 0x24 PUSH0 REVERT JUMPDEST PUSH0 PUSH2 0x1C1 DUP3 PUSH2 0xE8 JUMP JUMPDEST SWAP2 POP PUSH2 0x1CC DUP4 PUSH2 0xE8 JUMP JUMPDEST SWAP3 POP DUP3 PUSH2 0x1DC JUMPI PUSH2 0x1DB PUSH2 0x18A JUMP JUMPDEST JUMPDEST DUP3 DUP3 MOD SWAP1 POP SWAP3 SWAP2 POP POP JUMP JUMPDEST PUSH0 PUSH2 0x1F1 DUP3 PUSH2 0xE8 JUMP JUMPDEST SWAP2 POP PUSH2 0x1FC DUP4 PUSH2 0xE8 JUMP JUMPDEST SWAP3 POP DUP3 PUSH2 0x20C JUMPI PUSH2 0x20B PUSH2 0x18A JUMP JUMPDEST JUMPDEST DUP3 DUP3 DIV SWAP1 POP SWAP3 SWAP2 POP POP JUMP INVALID LOG2 PUSH5 0x6970667358 0x22 SLT KECCAK256 LOG2 0xBC RETURNDATASIZE SWAP8 JUMPI 0xE0 DELEGATECALL 0xBE 0xB5 0x1F DUP15 0xCC PUSH6 0xD2258C5A05C3 BLOBBASEFEE SWAP9 DELEGATECALL 0xB4 PUSH3 0xB324E2 DUP9 EXTCODESIZE BALANCE SELFDESTRUCT DUP5 PUSH5 0x736F6C6343 STOP ADDMOD NOT STOP CALLER "
		},
		"gasEstimates": {
			"creation": {
				"codeDepositCost": "117800",
				"executionCost": "163",
				"totalCost": "117963"
			},
			"external": {
				"getMultipleNum(uint256)": "infinite"
			}
		},
		"methodIdentifiers": {
			"getMultipleNum(uint256)": "afc7e925"
		}
	},
	"abi": [
		{
			"inputs": [
				{
					"internalType": "uint256",
					"name": "_n",
					"type": "uint256"
				}
			],
			"name": "getMultipleNum",
			"outputs": [
				{
					"internalType": "uint256",
					"name": "",
					"type": "uint256"
				},
				{
					"internalType": "uint256",
					"name": "",
					"type": "uint256"
				},
				{
					"internalType": "uint256",
					"name": "",
					"type": "uint256"
				}
			],
			"stateMutability": "pure",
			"type": "function"
		}
	]
}