{
	"data": {
		"bytecode": {
			"linkReferences": {},
			"object": "6080604052348015600e575f80fd5b506102cf8061001c5f395ff3fe60806040526004361061003e575f3560e01c80635119c3e21461004257806392d7727c1461004c578063a8df84df14610076578063f93b61e3146100a0575b5f80fd5b61004a6100aa565b005b348015610057575f80fd5b5061006061010d565b60405161006d9190610194565b60405180910390f35b348015610081575f80fd5b5061008a610112565b6040516100979190610194565b60405180910390f35b6100a8610118565b005b670de0b6b3a76400003410156100f5576040517f08c379a00000000000000000000000000000000000000000000000000000000081526004016100ec90610207565b60405180910390fd5b5f8081548092919061010690610252565b9190505550565b5f5481565b60015481565b670de0b6b3a7640000341015610163576040517f08c379a000000000000000000000000000000000000000000000000000000000815260040161015a90610207565b60405180910390fd5b60015f81548092919061017590610252565b9190505550565b5f819050919050565b61018e8161017c565b82525050565b5f6020820190506101a75f830184610185565b92915050565b5f82825260208201905092915050565b7f706179206d6f7265207468616e203120657465687200000000000000000000005f82015250565b5f6101f16015836101ad565b91506101fc826101bd565b602082019050919050565b5f6020820190508181035f83015261021e816101e5565b9050919050565b7f4e487b71000000000000000000000000000000000000000000000000000000005f52601160045260245ffd5b5f61025c8261017c565b91507fffffffffffffffffffffffffffffffffffffffffffffffffffffffffffffffff820361028e5761028d610225565b5b60018201905091905056fea2646970667358221220bc82c8a36e73aa806a1e9949ad643d6a2350417925f860539a0a6d7da73ee8c864736f6c63430008190033",
			"opcodes": "PUSH1 0x80 PUSH1 0x40 MSTORE CALLVALUE DUP1 ISZERO PUSH1 0xE JUMPI PUSH0 DUP1 REVERT JUMPDEST POP PUSH2 0x2CF DUP1 PUSH2 0x1C PUSH0 CODECOPY PUSH0 RETURN INVALID PUSH1 0x80 PUSH1 0x40 MSTORE PUSH1 0x4 CALLDATASIZE LT PUSH2 0x3E JUMPI PUSH0 CALLDATALOAD PUSH1 0xE0 SHR DUP1 PUSH4 0x5119C3E2 EQ PUSH2 0x42 JUMPI DUP1 PUSH4 0x92D7727C EQ PUSH2 0x4C JUMPI DUP1 PUSH4 0xA8DF84DF EQ PUSH2 0x76 JUMPI DUP1 PUSH4 0xF93B61E3 EQ PUSH2 0xA0 JUMPI JUMPDEST PUSH0 DUP1 REVERT JUMPDEST PUSH2 0x4A PUSH2 0xAA JUMP JUMPDEST STOP JUMPDEST CALLVALUE DUP1 ISZERO PUSH2 0x57 JUMPI PUSH0 DUP1 REVERT JUMPDEST POP PUSH2 0x60 PUSH2 0x10D JUMP JUMPDEST PUSH1 0x40 MLOAD PUSH2 0x6D SWAP2 SWAP1 PUSH2 0x194 JUMP JUMPDEST PUSH1 0x40 MLOAD DUP1 SWAP2 SUB SWAP1 RETURN JUMPDEST CALLVALUE DUP1 ISZERO PUSH2 0x81 JUMPI PUSH0 DUP1 REVERT JUMPDEST POP PUSH2 0x8A PUSH2 0x112 JUMP JUMPDEST PUSH1 0x40 MLOAD PUSH2 0x97 SWAP2 SWAP1 PUSH2 0x194 JUMP JUMPDEST PUSH1 0x40 MLOAD DUP1 SWAP2 SUB SWAP1 RETURN JUMPDEST PUSH2 0xA8 PUSH2 0x118 JUMP JUMPDEST STOP JUMPDEST PUSH8 0xDE0B6B3A7640000 CALLVALUE LT ISZERO PUSH2 0xF5 JUMPI PUSH1 0x40 MLOAD PUSH32 0x8C379A000000000000000000000000000000000000000000000000000000000 DUP2 MSTORE PUSH1 0x4 ADD PUSH2 0xEC SWAP1 PUSH2 0x207 JUMP JUMPDEST PUSH1 0x40 MLOAD DUP1 SWAP2 SUB SWAP1 REVERT JUMPDEST PUSH0 DUP1 DUP2 SLOAD DUP1 SWAP3 SWAP2 SWAP1 PUSH2 0x106 SWAP1 PUSH2 0x252 JUMP JUMPDEST SWAP2 SWAP1 POP SSTORE POP JUMP JUMPDEST PUSH0 SLOAD DUP2 JUMP JUMPDEST PUSH1 0x1 SLOAD DUP2 JUMP JUMPDEST PUSH8 0xDE0B6B3A7640000 CALLVALUE LT ISZERO PUSH2 0x163 JUMPI PUSH1 0x40 MLOAD PUSH32 0x8C379A000000000000000000000000000000000000000000000000000000000 DUP2 MSTORE PUSH1 0x4 ADD PUSH2 0x15A SWAP1 PUSH2 0x207 JUMP JUMPDEST PUSH1 0x40 MLOAD DUP1 SWAP2 SUB SWAP1 REVERT JUMPDEST PUSH1 0x1 PUSH0 DUP2 SLOAD DUP1 SWAP3 SWAP2 SWAP1 PUSH2 0x175 SWAP1 PUSH2 0x252 JUMP JUMPDEST SWAP2 SWAP1 POP SSTORE POP JUMP JUMPDEST PUSH0 DUP2 SWAP1 POP SWAP2 SWAP1 POP JUMP JUMPDEST PUSH2 0x18E DUP2 PUSH2 0x17C JUMP JUMPDEST DUP3 MSTORE POP POP JUMP JUMPDEST PUSH0 PUSH1 0x20 DUP3 ADD SWAP1 POP PUSH2 0x1A7 PUSH0 DUP4 ADD DUP5 PUSH2 0x185 JUMP JUMPDEST SWAP3 SWAP2 POP POP JUMP JUMPDEST PUSH0 DUP3 DUP3 MSTORE PUSH1 0x20 DUP3 ADD SWAP1 POP SWAP3 SWAP2 POP POP JUMP JUMPDEST PUSH32 0x706179206D6F7265207468616E20312065746568720000000000000000000000 PUSH0 DUP3 ADD MSTORE POP JUMP JUMPDEST PUSH0 PUSH2 0x1F1 PUSH1 0x15 DUP4 PUSH2 0x1AD JUMP JUMPDEST SWAP2 POP PUSH2 0x1FC DUP3 PUSH2 0x1BD JUMP JUMPDEST PUSH1 0x20 DUP3 ADD SWAP1 POP SWAP2 SWAP1 POP JUMP JUMPDEST PUSH0 PUSH1 0x20 DUP3 ADD SWAP1 POP DUP2 DUP2 SUB PUSH0 DUP4 ADD MSTORE PUSH2 0x21E DUP2 PUSH2 0x1E5 JUMP JUMPDEST SWAP1 POP SWAP2 SWAP1 POP JUMP JUMPDEST PUSH32 0x4E487B7100000000000000000000000000000000000000000000000000000000 PUSH0 MSTORE PUSH1 0x11 PUSH1 0x4 MSTORE PUSH1 0x24 PUSH0 REVERT JUMPDEST PUSH0 PUSH2 0x25C DUP3 PUSH2 0x17C JUMP JUMPDEST SWAP2 POP PUSH32 0xFFFFFFFFFFFFFFFFFFFFFFFFFFFFFFFFFFFFFFFFFFFFFFFFFFFFFFFFFFFFFFFF DUP3 SUB PUSH2 0x28E JUMPI PUSH2 0x28D PUSH2 0x225 JUMP JUMPDEST JUMPDEST PUSH1 0x1 DUP3 ADD SWAP1 POP SWAP2 SWAP1 POP JUMP INVALID LOG2 PUSH5 0x6970667358 0x22 SLT KECCAK256 0xBC DUP3 0xC8 LOG3 PUSH15 0x73AA806A1E9949AD643D6A23504179 0x25 0xF8 PUSH1 0x53 SWAP11 EXP PUSH14 0x7DA73EE8C864736F6C6343000819 STOP CALLER "
		},
		"gasEstimates": {
			"creation": {
				"codeDepositCost": "143800",
				"executionCost": "188",
				"totalCost": "143988"
			},
			"external": {
				"downvote()": "2447",
				"downvoting()": "24542",
				"upvote()": "2424",
				"upvoting()": "24476"
			}
		},
		"methodIdentifiers": {
			"downvote()": "a8df84df",
			"downvoting()": "f93b61e3",
			"upvote()": "92d7727c",
			"upvoting()": "5119c3e2"
		}
	},
	"abi": [
		{
			"inputs": [],
			"name": "downvote",
			"outputs": [
				{
					"internalType": "uint256",
					"name": "",
					"type": "uint256"
				}
			],
			"stateMutability": "view",
			"type": "function"
		},
		{
			"inputs": [],
			"name": "downvoting",
			"outputs": [],
			"stateMutability": "payable",
			"type": "function"
		},
		{
			"inputs": [],
			"name": "upvote",
			"outputs": [
				{
					"internalType": "uint256",
					"name": "",
					"type": "uint256"
				}
			],
			"stateMutability": "view",
			"type": "function"
		},
		{
			"inputs": [],
			"name": "upvoting",
			"outputs": [],
			"stateMutability": "payable",
			"type": "function"
		}
	]
}