{
	"data": {
		"bytecode": {
			"linkReferences": {},
			"object": "6080604052348015600e575f80fd5b506108f48061001c5f395ff3fe608060405234801561000f575f80fd5b506004361061004a575f3560e01c8063589d60901461004e578063823267261461007e578063ce8bb065146100ae578063e9395679146100de575b5f80fd5b61006860048036038101906100639190610364565b61010e565b60405161007591906103c9565b60405180910390f35b61009860048036038101906100939190610565565b61011a565b6040516100a5919061060c565b60405180910390f35b6100c860048036038101906100c3919061062c565b6101f4565b6040516100d59190610666565b60405180910390f35b6100f860048036038101906100f3919061062c565b61022e565b604051610105919061060c565b60405180910390f35b5f8160f81b9050919050565b60605f825167ffffffffffffffff811115610138576101376103f6565b5b6040519080825280601f01601f19166020018201604052801561016a5781602001600182028036833780820191505090505b5090505f5b83518110156101cb578161019c85838151811061018f5761018e61067f565b5b602002602001015161022e565b6040516020016101ad92919061072a565b6040516020818303038152906040529150808060010191505061016f565b50806040516020016101dd919061074d565b604051602081830303815290604052915050919050565b5f80600190505b600a831061022557600a8361021091906107bd565b9250808061021d906107ed565b9150506101fb565b80915050919050565b60605f61023a836101f4565b90505f8167ffffffffffffffff811115610257576102566103f6565b5b6040519080825280601f01601f1916602001820160405280156102895781602001600182028036833780820191505090505b5090505b5f841461031357818061029f90610834565b925050600a846102af919061085b565b60306102bb919061088b565b60f81b8183815181106102d1576102d061067f565b5b60200101907effffffffffffffffffffffffffffffffffffffffffffffffffffffffffffff191690815f1a905350600a8461030c91906107bd565b935061028d565b8092505050919050565b5f604051905090565b5f80fd5b5f80fd5b5f60ff82169050919050565b6103438161032e565b811461034d575f80fd5b50565b5f8135905061035e8161033a565b92915050565b5f6020828403121561037957610378610326565b5b5f61038684828501610350565b91505092915050565b5f7fff0000000000000000000000000000000000000000000000000000000000000082169050919050565b6103c38161038f565b82525050565b5f6020820190506103dc5f8301846103ba565b92915050565b5f80fd5b5f601f19601f8301169050919050565b7f4e487b71000000000000000000000000000000000000000000000000000000005f52604160045260245ffd5b61042c826103e6565b810181811067ffffffffffffffff8211171561044b5761044a6103f6565b5b80604052505050565b5f61045d61031d565b90506104698282610423565b919050565b5f67ffffffffffffffff821115610488576104876103f6565b5b602082029050602081019050919050565b5f80fd5b5f819050919050565b6104af8161049d565b81146104b9575f80fd5b50565b5f813590506104ca816104a6565b92915050565b5f6104e26104dd8461046e565b610454565b9050808382526020820190506020840283018581111561050557610504610499565b5b835b8181101561052e578061051a88826104bc565b845260208401935050602081019050610507565b5050509392505050565b5f82601f83011261054c5761054b6103e2565b5b813561055c8482602086016104d0565b91505092915050565b5f6020828403121561057a57610579610326565b5b5f82013567ffffffffffffffff8111156105975761059661032a565b5b6105a384828501610538565b91505092915050565b5f81519050919050565b5f82825260208201905092915050565b8281835e5f83830152505050565b5f6105de826105ac565b6105e881856105b6565b93506105f88185602086016105c6565b610601816103e6565b840191505092915050565b5f6020820190508181035f83015261062481846105d4565b905092915050565b5f6020828403121561064157610640610326565b5b5f61064e848285016104bc565b91505092915050565b6106608161049d565b82525050565b5f6020820190506106795f830184610657565b92915050565b7f4e487b71000000000000000000000000000000000000000000000000000000005f52603260045260245ffd5b5f81519050919050565b5f81905092915050565b5f6106ca826106ac565b6106d481856106b6565b93506106e48185602086016105c6565b80840191505092915050565b5f81905092915050565b5f610704826105ac565b61070e81856106f0565b935061071e8185602086016105c6565b80840191505092915050565b5f61073582856106c0565b915061074182846106fa565b91508190509392505050565b5f61075882846106c0565b915081905092915050565b7f4e487b71000000000000000000000000000000000000000000000000000000005f52601260045260245ffd5b7f4e487b71000000000000000000000000000000000000000000000000000000005f52601160045260245ffd5b5f6107c78261049d565b91506107d28361049d565b9250826107e2576107e1610763565b5b828204905092915050565b5f6107f78261049d565b91507fffffffffffffffffffffffffffffffffffffffffffffffffffffffffffffffff820361082957610828610790565b5b600182019050919050565b5f61083e8261049d565b91505f82036108505761084f610790565b5b600182039050919050565b5f6108658261049d565b91506108708361049d565b9250826108805761087f610763565b5b828206905092915050565b5f6108958261049d565b91506108a08361049d565b92508282019050808211156108b8576108b7610790565b5b9291505056fea26469706673582212207663878c95aae298b2c32d4e9aa9be15709e56adb1cf6a932442bd422bc10dff64736f6c63430008190033",
			"opcodes": "PUSH1 0x80 PUSH1 0x40 MSTORE CALLVALUE DUP1 ISZERO PUSH1 0xE JUMPI PUSH0 DUP1 REVERT JUMPDEST POP PUSH2 0x8F4 DUP1 PUSH2 0x1C PUSH0 CODECOPY PUSH0 RETURN INVALID PUSH1 0x80 PUSH1 0x40 MSTORE CALLVALUE DUP1 ISZERO PUSH2 0xF JUMPI PUSH0 DUP1 REVERT JUMPDEST POP PUSH1 0x4 CALLDATASIZE LT PUSH2 0x4A JUMPI PUSH0 CALLDATALOAD PUSH1 0xE0 SHR DUP1 PUSH4 0x589D6090 EQ PUSH2 0x4E JUMPI DUP1 PUSH4 0x82326726 EQ PUSH2 0x7E JUMPI DUP1 PUSH4 0xCE8BB065 EQ PUSH2 0xAE JUMPI DUP1 PUSH4 0xE9395679 EQ PUSH2 0xDE JUMPI JUMPDEST PUSH0 DUP1 REVERT JUMPDEST PUSH2 0x68 PUSH1 0x4 DUP1 CALLDATASIZE SUB DUP2 ADD SWAP1 PUSH2 0x63 SWAP2 SWAP1 PUSH2 0x364 JUMP JUMPDEST PUSH2 0x10E JUMP JUMPDEST PUSH1 0x40 MLOAD PUSH2 0x75 SWAP2 SWAP1 PUSH2 0x3C9 JUMP JUMPDEST PUSH1 0x40 MLOAD DUP1 SWAP2 SUB SWAP1 RETURN JUMPDEST PUSH2 0x98 PUSH1 0x4 DUP1 CALLDATASIZE SUB DUP2 ADD SWAP1 PUSH2 0x93 SWAP2 SWAP1 PUSH2 0x565 JUMP JUMPDEST PUSH2 0x11A JUMP JUMPDEST PUSH1 0x40 MLOAD PUSH2 0xA5 SWAP2 SWAP1 PUSH2 0x60C JUMP JUMPDEST PUSH1 0x40 MLOAD DUP1 SWAP2 SUB SWAP1 RETURN JUMPDEST PUSH2 0xC8 PUSH1 0x4 DUP1 CALLDATASIZE SUB DUP2 ADD SWAP1 PUSH2 0xC3 SWAP2 SWAP1 PUSH2 0x62C JUMP JUMPDEST PUSH2 0x1F4 JUMP JUMPDEST PUSH1 0x40 MLOAD PUSH2 0xD5 SWAP2 SWAP1 PUSH2 0x666 JUMP JUMPDEST PUSH1 0x40 MLOAD DUP1 SWAP2 SUB SWAP1 RETURN JUMPDEST PUSH2 0xF8 PUSH1 0x4 DUP1 CALLDATASIZE SUB DUP2 ADD SWAP1 PUSH2 0xF3 SWAP2 SWAP1 PUSH2 0x62C JUMP JUMPDEST PUSH2 0x22E JUMP JUMPDEST PUSH1 0x40 MLOAD PUSH2 0x105 SWAP2 SWAP1 PUSH2 0x60C JUMP JUMPDEST PUSH1 0x40 MLOAD DUP1 SWAP2 SUB SWAP1 RETURN JUMPDEST PUSH0 DUP2 PUSH1 0xF8 SHL SWAP1 POP SWAP2 SWAP1 POP JUMP JUMPDEST PUSH1 0x60 PUSH0 DUP3 MLOAD PUSH8 0xFFFFFFFFFFFFFFFF DUP2 GT ISZERO PUSH2 0x138 JUMPI PUSH2 0x137 PUSH2 0x3F6 JUMP JUMPDEST JUMPDEST PUSH1 0x40 MLOAD SWAP1 DUP1 DUP3 MSTORE DUP1 PUSH1 0x1F ADD PUSH1 0x1F NOT AND PUSH1 0x20 ADD DUP3 ADD PUSH1 0x40 MSTORE DUP1 ISZERO PUSH2 0x16A JUMPI DUP2 PUSH1 0x20 ADD PUSH1 0x1 DUP3 MUL DUP1 CALLDATASIZE DUP4 CALLDATACOPY DUP1 DUP3 ADD SWAP2 POP POP SWAP1 POP JUMPDEST POP SWAP1 POP PUSH0 JUMPDEST DUP4 MLOAD DUP2 LT ISZERO PUSH2 0x1CB JUMPI DUP2 PUSH2 0x19C DUP6 DUP4 DUP2 MLOAD DUP2 LT PUSH2 0x18F JUMPI PUSH2 0x18E PUSH2 0x67F JUMP JUMPDEST JUMPDEST PUSH1 0x20 MUL PUSH1 0x20 ADD ADD MLOAD PUSH2 0x22E JUMP JUMPDEST PUSH1 0x40 MLOAD PUSH1 0x20 ADD PUSH2 0x1AD SWAP3 SWAP2 SWAP1 PUSH2 0x72A JUMP JUMPDEST PUSH1 0x40 MLOAD PUSH1 0x20 DUP2 DUP4 SUB SUB DUP2 MSTORE SWAP1 PUSH1 0x40 MSTORE SWAP2 POP DUP1 DUP1 PUSH1 0x1 ADD SWAP2 POP POP PUSH2 0x16F JUMP JUMPDEST POP DUP1 PUSH1 0x40 MLOAD PUSH1 0x20 ADD PUSH2 0x1DD SWAP2 SWAP1 PUSH2 0x74D JUMP JUMPDEST PUSH1 0x40 MLOAD PUSH1 0x20 DUP2 DUP4 SUB SUB DUP2 MSTORE SWAP1 PUSH1 0x40 MSTORE SWAP2 POP POP SWAP2 SWAP1 POP JUMP JUMPDEST PUSH0 DUP1 PUSH1 0x1 SWAP1 POP JUMPDEST PUSH1 0xA DUP4 LT PUSH2 0x225 JUMPI PUSH1 0xA DUP4 PUSH2 0x210 SWAP2 SWAP1 PUSH2 0x7BD JUMP JUMPDEST SWAP3 POP DUP1 DUP1 PUSH2 0x21D SWAP1 PUSH2 0x7ED JUMP JUMPDEST SWAP2 POP POP PUSH2 0x1FB JUMP JUMPDEST DUP1 SWAP2 POP POP SWAP2 SWAP1 POP JUMP JUMPDEST PUSH1 0x60 PUSH0 PUSH2 0x23A DUP4 PUSH2 0x1F4 JUMP JUMPDEST SWAP1 POP PUSH0 DUP2 PUSH8 0xFFFFFFFFFFFFFFFF DUP2 GT ISZERO PUSH2 0x257 JUMPI PUSH2 0x256 PUSH2 0x3F6 JUMP JUMPDEST JUMPDEST PUSH1 0x40 MLOAD SWAP1 DUP1 DUP3 MSTORE DUP1 PUSH1 0x1F ADD PUSH1 0x1F NOT AND PUSH1 0x20 ADD DUP3 ADD PUSH1 0x40 MSTORE DUP1 ISZERO PUSH2 0x289 JUMPI DUP2 PUSH1 0x20 ADD PUSH1 0x1 DUP3 MUL DUP1 CALLDATASIZE DUP4 CALLDATACOPY DUP1 DUP3 ADD SWAP2 POP POP SWAP1 POP JUMPDEST POP SWAP1 POP JUMPDEST PUSH0 DUP5 EQ PUSH2 0x313 JUMPI DUP2 DUP1 PUSH2 0x29F SWAP1 PUSH2 0x834 JUMP JUMPDEST SWAP3 POP POP PUSH1 0xA DUP5 PUSH2 0x2AF SWAP2 SWAP1 PUSH2 0x85B JUMP JUMPDEST PUSH1 0x30 PUSH2 0x2BB SWAP2 SWAP1 PUSH2 0x88B JUMP JUMPDEST PUSH1 0xF8 SHL DUP2 DUP4 DUP2 MLOAD DUP2 LT PUSH2 0x2D1 JUMPI PUSH2 0x2D0 PUSH2 0x67F JUMP JUMPDEST JUMPDEST PUSH1 0x20 ADD ADD SWAP1 PUSH31 0xFFFFFFFFFFFFFFFFFFFFFFFFFFFFFFFFFFFFFFFFFFFFFFFFFFFFFFFFFFFFFF NOT AND SWAP1 DUP2 PUSH0 BYTE SWAP1 MSTORE8 POP PUSH1 0xA DUP5 PUSH2 0x30C SWAP2 SWAP1 PUSH2 0x7BD JUMP JUMPDEST SWAP4 POP PUSH2 0x28D JUMP JUMPDEST DUP1 SWAP3 POP POP POP SWAP2 SWAP1 POP JUMP JUMPDEST PUSH0 PUSH1 0x40 MLOAD SWAP1 POP SWAP1 JUMP JUMPDEST PUSH0 DUP1 REVERT JUMPDEST PUSH0 DUP1 REVERT JUMPDEST PUSH0 PUSH1 0xFF DUP3 AND SWAP1 POP SWAP2 SWAP1 POP JUMP JUMPDEST PUSH2 0x343 DUP2 PUSH2 0x32E JUMP JUMPDEST DUP2 EQ PUSH2 0x34D JUMPI PUSH0 DUP1 REVERT JUMPDEST POP JUMP JUMPDEST PUSH0 DUP2 CALLDATALOAD SWAP1 POP PUSH2 0x35E DUP2 PUSH2 0x33A JUMP JUMPDEST SWAP3 SWAP2 POP POP JUMP JUMPDEST PUSH0 PUSH1 0x20 DUP3 DUP5 SUB SLT ISZERO PUSH2 0x379 JUMPI PUSH2 0x378 PUSH2 0x326 JUMP JUMPDEST JUMPDEST PUSH0 PUSH2 0x386 DUP5 DUP3 DUP6 ADD PUSH2 0x350 JUMP JUMPDEST SWAP2 POP POP SWAP3 SWAP2 POP POP JUMP JUMPDEST PUSH0 PUSH32 0xFF00000000000000000000000000000000000000000000000000000000000000 DUP3 AND SWAP1 POP SWAP2 SWAP1 POP JUMP JUMPDEST PUSH2 0x3C3 DUP2 PUSH2 0x38F JUMP JUMPDEST DUP3 MSTORE POP POP JUMP JUMPDEST PUSH0 PUSH1 0x20 DUP3 ADD SWAP1 POP PUSH2 0x3DC PUSH0 DUP4 ADD DUP5 PUSH2 0x3BA JUMP JUMPDEST SWAP3 SWAP2 POP POP JUMP JUMPDEST PUSH0 DUP1 REVERT JUMPDEST PUSH0 PUSH1 0x1F NOT PUSH1 0x1F DUP4 ADD AND SWAP1 POP SWAP2 SWAP1 POP JUMP JUMPDEST PUSH32 0x4E487B7100000000000000000000000000000000000000000000000000000000 PUSH0 MSTORE PUSH1 0x41 PUSH1 0x4 MSTORE PUSH1 0x24 PUSH0 REVERT JUMPDEST PUSH2 0x42C DUP3 PUSH2 0x3E6 JUMP JUMPDEST DUP2 ADD DUP2 DUP2 LT PUSH8 0xFFFFFFFFFFFFFFFF DUP3 GT OR ISZERO PUSH2 0x44B JUMPI PUSH2 0x44A PUSH2 0x3F6 JUMP JUMPDEST JUMPDEST DUP1 PUSH1 0x40 MSTORE POP POP POP JUMP JUMPDEST PUSH0 PUSH2 0x45D PUSH2 0x31D JUMP JUMPDEST SWAP1 POP PUSH2 0x469 DUP3 DUP3 PUSH2 0x423 JUMP JUMPDEST SWAP2 SWAP1 POP JUMP JUMPDEST PUSH0 PUSH8 0xFFFFFFFFFFFFFFFF DUP3 GT ISZERO PUSH2 0x488 JUMPI PUSH2 0x487 PUSH2 0x3F6 JUMP JUMPDEST JUMPDEST PUSH1 0x20 DUP3 MUL SWAP1 POP PUSH1 0x20 DUP2 ADD SWAP1 POP SWAP2 SWAP1 POP JUMP JUMPDEST PUSH0 DUP1 REVERT JUMPDEST PUSH0 DUP2 SWAP1 POP SWAP2 SWAP1 POP JUMP JUMPDEST PUSH2 0x4AF DUP2 PUSH2 0x49D JUMP JUMPDEST DUP2 EQ PUSH2 0x4B9 JUMPI PUSH0 DUP1 REVERT JUMPDEST POP JUMP JUMPDEST PUSH0 DUP2 CALLDATALOAD SWAP1 POP PUSH2 0x4CA DUP2 PUSH2 0x4A6 JUMP JUMPDEST SWAP3 SWAP2 POP POP JUMP JUMPDEST PUSH0 PUSH2 0x4E2 PUSH2 0x4DD DUP5 PUSH2 0x46E JUMP JUMPDEST PUSH2 0x454 JUMP JUMPDEST SWAP1 POP DUP1 DUP4 DUP3 MSTORE PUSH1 0x20 DUP3 ADD SWAP1 POP PUSH1 0x20 DUP5 MUL DUP4 ADD DUP6 DUP2 GT ISZERO PUSH2 0x505 JUMPI PUSH2 0x504 PUSH2 0x499 JUMP JUMPDEST JUMPDEST DUP4 JUMPDEST DUP2 DUP2 LT ISZERO PUSH2 0x52E JUMPI DUP1 PUSH2 0x51A DUP9 DUP3 PUSH2 0x4BC JUMP JUMPDEST DUP5 MSTORE PUSH1 0x20 DUP5 ADD SWAP4 POP POP PUSH1 0x20 DUP2 ADD SWAP1 POP PUSH2 0x507 JUMP JUMPDEST POP POP POP SWAP4 SWAP3 POP POP POP JUMP JUMPDEST PUSH0 DUP3 PUSH1 0x1F DUP4 ADD SLT PUSH2 0x54C JUMPI PUSH2 0x54B PUSH2 0x3E2 JUMP JUMPDEST JUMPDEST DUP2 CALLDATALOAD PUSH2 0x55C DUP5 DUP3 PUSH1 0x20 DUP7 ADD PUSH2 0x4D0 JUMP JUMPDEST SWAP2 POP POP SWAP3 SWAP2 POP POP JUMP JUMPDEST PUSH0 PUSH1 0x20 DUP3 DUP5 SUB SLT ISZERO PUSH2 0x57A JUMPI PUSH2 0x579 PUSH2 0x326 JUMP JUMPDEST JUMPDEST PUSH0 DUP3 ADD CALLDATALOAD PUSH8 0xFFFFFFFFFFFFFFFF DUP2 GT ISZERO PUSH2 0x597 JUMPI PUSH2 0x596 PUSH2 0x32A JUMP JUMPDEST JUMPDEST PUSH2 0x5A3 DUP5 DUP3 DUP6 ADD PUSH2 0x538 JUMP JUMPDEST SWAP2 POP POP SWAP3 SWAP2 POP POP JUMP JUMPDEST PUSH0 DUP2 MLOAD SWAP1 POP SWAP2 SWAP1 POP JUMP JUMPDEST PUSH0 DUP3 DUP3 MSTORE PUSH1 0x20 DUP3 ADD SWAP1 POP SWAP3 SWAP2 POP POP JUMP JUMPDEST DUP3 DUP2 DUP4 MCOPY PUSH0 DUP4 DUP4 ADD MSTORE POP POP POP JUMP JUMPDEST PUSH0 PUSH2 0x5DE DUP3 PUSH2 0x5AC JUMP JUMPDEST PUSH2 0x5E8 DUP2 DUP6 PUSH2 0x5B6 JUMP JUMPDEST SWAP4 POP PUSH2 0x5F8 DUP2 DUP6 PUSH1 0x20 DUP7 ADD PUSH2 0x5C6 JUMP JUMPDEST PUSH2 0x601 DUP2 PUSH2 0x3E6 JUMP JUMPDEST DUP5 ADD SWAP2 POP POP SWAP3 SWAP2 POP POP JUMP JUMPDEST PUSH0 PUSH1 0x20 DUP3 ADD SWAP1 POP DUP2 DUP2 SUB PUSH0 DUP4 ADD MSTORE PUSH2 0x624 DUP2 DUP5 PUSH2 0x5D4 JUMP JUMPDEST SWAP1 POP SWAP3 SWAP2 POP POP JUMP JUMPDEST PUSH0 PUSH1 0x20 DUP3 DUP5 SUB SLT ISZERO PUSH2 0x641 JUMPI PUSH2 0x640 PUSH2 0x326 JUMP JUMPDEST JUMPDEST PUSH0 PUSH2 0x64E DUP5 DUP3 DUP6 ADD PUSH2 0x4BC JUMP JUMPDEST SWAP2 POP POP SWAP3 SWAP2 POP POP JUMP JUMPDEST PUSH2 0x660 DUP2 PUSH2 0x49D JUMP JUMPDEST DUP3 MSTORE POP POP JUMP JUMPDEST PUSH0 PUSH1 0x20 DUP3 ADD SWAP1 POP PUSH2 0x679 PUSH0 DUP4 ADD DUP5 PUSH2 0x657 JUMP JUMPDEST SWAP3 SWAP2 POP POP JUMP JUMPDEST PUSH32 0x4E487B7100000000000000000000000000000000000000000000000000000000 PUSH0 MSTORE PUSH1 0x32 PUSH1 0x4 MSTORE PUSH1 0x24 PUSH0 REVERT JUMPDEST PUSH0 DUP2 MLOAD SWAP1 POP SWAP2 SWAP1 POP JUMP JUMPDEST PUSH0 DUP2 SWAP1 POP SWAP3 SWAP2 POP POP JUMP JUMPDEST PUSH0 PUSH2 0x6CA DUP3 PUSH2 0x6AC JUMP JUMPDEST PUSH2 0x6D4 DUP2 DUP6 PUSH2 0x6B6 JUMP JUMPDEST SWAP4 POP PUSH2 0x6E4 DUP2 DUP6 PUSH1 0x20 DUP7 ADD PUSH2 0x5C6 JUMP JUMPDEST DUP1 DUP5 ADD SWAP2 POP POP SWAP3 SWAP2 POP POP JUMP JUMPDEST PUSH0 DUP2 SWAP1 POP SWAP3 SWAP2 POP POP JUMP JUMPDEST PUSH0 PUSH2 0x704 DUP3 PUSH2 0x5AC JUMP JUMPDEST PUSH2 0x70E DUP2 DUP6 PUSH2 0x6F0 JUMP JUMPDEST SWAP4 POP PUSH2 0x71E DUP2 DUP6 PUSH1 0x20 DUP7 ADD PUSH2 0x5C6 JUMP JUMPDEST DUP1 DUP5 ADD SWAP2 POP POP SWAP3 SWAP2 POP POP JUMP JUMPDEST PUSH0 PUSH2 0x735 DUP3 DUP6 PUSH2 0x6C0 JUMP JUMPDEST SWAP2 POP PUSH2 0x741 DUP3 DUP5 PUSH2 0x6FA JUMP JUMPDEST SWAP2 POP DUP2 SWAP1 POP SWAP4 SWAP3 POP POP POP JUMP JUMPDEST PUSH0 PUSH2 0x758 DUP3 DUP5 PUSH2 0x6C0 JUMP JUMPDEST SWAP2 POP DUP2 SWAP1 POP SWAP3 SWAP2 POP POP JUMP JUMPDEST PUSH32 0x4E487B7100000000000000000000000000000000000000000000000000000000 PUSH0 MSTORE PUSH1 0x12 PUSH1 0x4 MSTORE PUSH1 0x24 PUSH0 REVERT JUMPDEST PUSH32 0x4E487B7100000000000000000000000000000000000000000000000000000000 PUSH0 MSTORE PUSH1 0x11 PUSH1 0x4 MSTORE PUSH1 0x24 PUSH0 REVERT JUMPDEST PUSH0 PUSH2 0x7C7 DUP3 PUSH2 0x49D JUMP JUMPDEST SWAP2 POP PUSH2 0x7D2 DUP4 PUSH2 0x49D JUMP JUMPDEST SWAP3 POP DUP3 PUSH2 0x7E2 JUMPI PUSH2 0x7E1 PUSH2 0x763 JUMP JUMPDEST JUMPDEST DUP3 DUP3 DIV SWAP1 POP SWAP3 SWAP2 POP POP JUMP JUMPDEST PUSH0 PUSH2 0x7F7 DUP3 PUSH2 0x49D JUMP JUMPDEST SWAP2 POP PUSH32 0xFFFFFFFFFFFFFFFFFFFFFFFFFFFFFFFFFFFFFFFFFFFFFFFFFFFFFFFFFFFFFFFF DUP3 SUB PUSH2 0x829 JUMPI PUSH2 0x828 PUSH2 0x790 JUMP JUMPDEST JUMPDEST PUSH1 0x1 DUP3 ADD SWAP1 POP SWAP2 SWAP1 POP JUMP JUMPDEST PUSH0 PUSH2 0x83E DUP3 PUSH2 0x49D JUMP JUMPDEST SWAP2 POP PUSH0 DUP3 SUB PUSH2 0x850 JUMPI PUSH2 0x84F PUSH2 0x790 JUMP JUMPDEST JUMPDEST PUSH1 0x1 DUP3 SUB SWAP1 POP SWAP2 SWAP1 POP JUMP JUMPDEST PUSH0 PUSH2 0x865 DUP3 PUSH2 0x49D JUMP JUMPDEST SWAP2 POP PUSH2 0x870 DUP4 PUSH2 0x49D JUMP JUMPDEST SWAP3 POP DUP3 PUSH2 0x880 JUMPI PUSH2 0x87F PUSH2 0x763 JUMP JUMPDEST JUMPDEST DUP3 DUP3 MOD SWAP1 POP SWAP3 SWAP2 POP POP JUMP JUMPDEST PUSH0 PUSH2 0x895 DUP3 PUSH2 0x49D JUMP JUMPDEST SWAP2 POP PUSH2 0x8A0 DUP4 PUSH2 0x49D JUMP JUMPDEST SWAP3 POP DUP3 DUP3 ADD SWAP1 POP DUP1 DUP3 GT ISZERO PUSH2 0x8B8 JUMPI PUSH2 0x8B7 PUSH2 0x790 JUMP JUMPDEST JUMPDEST SWAP3 SWAP2 POP POP JUMP INVALID LOG2 PUSH5 0x6970667358 0x22 SLT KECCAK256 PUSH23 0x63878C95AAE298B2C32D4E9AA9BE15709E56ADB1CF6A93 0x24 TIMESTAMP 0xBD TIMESTAMP 0x2B 0xC1 0xD SELFDESTRUCT PUSH5 0x736F6C6343 STOP ADDMOD NOT STOP CALLER "
		},
		"gasEstimates": {
			"creation": {
				"codeDepositCost": "458400",
				"executionCost": "491",
				"totalCost": "458891"
			},
			"external": {
				"FINAL(uint256[])": "infinite",
				"getDigits(uint256)": "infinite",
				"uintToBytes(uint8)": "589",
				"uintToString(uint256)": "infinite"
			}
		},
		"methodIdentifiers": {
			"FINAL(uint256[])": "82326726",
			"getDigits(uint256)": "ce8bb065",
			"uintToBytes(uint8)": "589d6090",
			"uintToString(uint256)": "e9395679"
		}
	},
	"abi": [
		{
			"inputs": [
				{
					"internalType": "uint256[]",
					"name": "_num",
					"type": "uint256[]"
				}
			],
			"name": "FINAL",
			"outputs": [
				{
					"internalType": "string",
					"name": "",
					"type": "string"
				}
			],
			"stateMutability": "pure",
			"type": "function"
		},
		{
			"inputs": [
				{
					"internalType": "uint256",
					"name": "_num",
					"type": "uint256"
				}
			],
			"name": "getDigits",
			"outputs": [
				{
					"internalType": "uint256",
					"name": "",
					"type": "uint256"
				}
			],
			"stateMutability": "pure",
			"type": "function"
		},
		{
			"inputs": [
				{
					"internalType": "uint8",
					"name": "_num",
					"type": "uint8"
				}
			],
			"name": "uintToBytes",
			"outputs": [
				{
					"internalType": "bytes1",
					"name": "",
					"type": "bytes1"
				}
			],
			"stateMutability": "pure",
			"type": "function"
		},
		{
			"inputs": [
				{
					"internalType": "uint256",
					"name": "_num",
					"type": "uint256"
				}
			],
			"name": "uintToString",
			"outputs": [
				{
					"internalType": "string",
					"name": "",
					"type": "string"
				}
			],
			"stateMutability": "pure",
			"type": "function"
		}
	]
}