{
	"data": {
		"bytecode": {
			"linkReferences": {},
			"object": "6080604052348015600e575f80fd5b506102928061001c5f395ff3fe608060405234801561000f575f80fd5b5060043610610029575f3560e01c806388500bb61461002d575b5f80fd5b61004760048036038101906100429190610114565b61005d565b60405161005491906101af565b60405180910390f35b60605f610e108361006e91906101fc565b90505f603c610e1085610081919061022c565b61008b91906101fc565b90505f603c8561009b919061022c565b90506040518060400160405280600181526020017f30000000000000000000000000000000000000000000000000000000000000008152509350505050919050565b5f80fd5b5f819050919050565b6100f3816100e1565b81146100fd575f80fd5b50565b5f8135905061010e816100ea565b92915050565b5f60208284031215610129576101286100dd565b5b5f61013684828501610100565b91505092915050565b5f81519050919050565b5f82825260208201905092915050565b8281835e5f83830152505050565b5f601f19601f8301169050919050565b5f6101818261013f565b61018b8185610149565b935061019b818560208601610159565b6101a481610167565b840191505092915050565b5f6020820190508181035f8301526101c78184610177565b905092915050565b7f4e487b71000000000000000000000000000000000000000000000000000000005f52601260045260245ffd5b5f610206826100e1565b9150610211836100e1565b925082610221576102206101cf565b5b828204905092915050565b5f610236826100e1565b9150610241836100e1565b925082610251576102506101cf565b5b82820690509291505056fea2646970667358221220fd3f4c1da7f182d054022ba290f7b59fcac1a2d2282392bd45e1b36ed540ba8f64736f6c63430008190033",
			"opcodes": "PUSH1 0x80 PUSH1 0x40 MSTORE CALLVALUE DUP1 ISZERO PUSH1 0xE JUMPI PUSH0 DUP1 REVERT JUMPDEST POP PUSH2 0x292 DUP1 PUSH2 0x1C PUSH0 CODECOPY PUSH0 RETURN INVALID PUSH1 0x80 PUSH1 0x40 MSTORE CALLVALUE DUP1 ISZERO PUSH2 0xF JUMPI PUSH0 DUP1 REVERT JUMPDEST POP PUSH1 0x4 CALLDATASIZE LT PUSH2 0x29 JUMPI PUSH0 CALLDATALOAD PUSH1 0xE0 SHR DUP1 PUSH4 0x88500BB6 EQ PUSH2 0x2D JUMPI JUMPDEST PUSH0 DUP1 REVERT JUMPDEST PUSH2 0x47 PUSH1 0x4 DUP1 CALLDATASIZE SUB DUP2 ADD SWAP1 PUSH2 0x42 SWAP2 SWAP1 PUSH2 0x114 JUMP JUMPDEST PUSH2 0x5D JUMP JUMPDEST PUSH1 0x40 MLOAD PUSH2 0x54 SWAP2 SWAP1 PUSH2 0x1AF JUMP JUMPDEST PUSH1 0x40 MLOAD DUP1 SWAP2 SUB SWAP1 RETURN JUMPDEST PUSH1 0x60 PUSH0 PUSH2 0xE10 DUP4 PUSH2 0x6E SWAP2 SWAP1 PUSH2 0x1FC JUMP JUMPDEST SWAP1 POP PUSH0 PUSH1 0x3C PUSH2 0xE10 DUP6 PUSH2 0x81 SWAP2 SWAP1 PUSH2 0x22C JUMP JUMPDEST PUSH2 0x8B SWAP2 SWAP1 PUSH2 0x1FC JUMP JUMPDEST SWAP1 POP PUSH0 PUSH1 0x3C DUP6 PUSH2 0x9B SWAP2 SWAP1 PUSH2 0x22C JUMP JUMPDEST SWAP1 POP PUSH1 0x40 MLOAD DUP1 PUSH1 0x40 ADD PUSH1 0x40 MSTORE DUP1 PUSH1 0x1 DUP2 MSTORE PUSH1 0x20 ADD PUSH32 0x3000000000000000000000000000000000000000000000000000000000000000 DUP2 MSTORE POP SWAP4 POP POP POP POP SWAP2 SWAP1 POP JUMP JUMPDEST PUSH0 DUP1 REVERT JUMPDEST PUSH0 DUP2 SWAP1 POP SWAP2 SWAP1 POP JUMP JUMPDEST PUSH2 0xF3 DUP2 PUSH2 0xE1 JUMP JUMPDEST DUP2 EQ PUSH2 0xFD JUMPI PUSH0 DUP1 REVERT JUMPDEST POP JUMP JUMPDEST PUSH0 DUP2 CALLDATALOAD SWAP1 POP PUSH2 0x10E DUP2 PUSH2 0xEA JUMP JUMPDEST SWAP3 SWAP2 POP POP JUMP JUMPDEST PUSH0 PUSH1 0x20 DUP3 DUP5 SUB SLT ISZERO PUSH2 0x129 JUMPI PUSH2 0x128 PUSH2 0xDD JUMP JUMPDEST JUMPDEST PUSH0 PUSH2 0x136 DUP5 DUP3 DUP6 ADD PUSH2 0x100 JUMP JUMPDEST SWAP2 POP POP SWAP3 SWAP2 POP POP JUMP JUMPDEST PUSH0 DUP2 MLOAD SWAP1 POP SWAP2 SWAP1 POP JUMP JUMPDEST PUSH0 DUP3 DUP3 MSTORE PUSH1 0x20 DUP3 ADD SWAP1 POP SWAP3 SWAP2 POP POP JUMP JUMPDEST DUP3 DUP2 DUP4 MCOPY PUSH0 DUP4 DUP4 ADD MSTORE POP POP POP JUMP JUMPDEST PUSH0 PUSH1 0x1F NOT PUSH1 0x1F DUP4 ADD AND SWAP1 POP SWAP2 SWAP1 POP JUMP JUMPDEST PUSH0 PUSH2 0x181 DUP3 PUSH2 0x13F JUMP JUMPDEST PUSH2 0x18B DUP2 DUP6 PUSH2 0x149 JUMP JUMPDEST SWAP4 POP PUSH2 0x19B DUP2 DUP6 PUSH1 0x20 DUP7 ADD PUSH2 0x159 JUMP JUMPDEST PUSH2 0x1A4 DUP2 PUSH2 0x167 JUMP JUMPDEST DUP5 ADD SWAP2 POP POP SWAP3 SWAP2 POP POP JUMP JUMPDEST PUSH0 PUSH1 0x20 DUP3 ADD SWAP1 POP DUP2 DUP2 SUB PUSH0 DUP4 ADD MSTORE PUSH2 0x1C7 DUP2 DUP5 PUSH2 0x177 JUMP JUMPDEST SWAP1 POP SWAP3 SWAP2 POP POP JUMP JUMPDEST PUSH32 0x4E487B7100000000000000000000000000000000000000000000000000000000 PUSH0 MSTORE PUSH1 0x12 PUSH1 0x4 MSTORE PUSH1 0x24 PUSH0 REVERT JUMPDEST PUSH0 PUSH2 0x206 DUP3 PUSH2 0xE1 JUMP JUMPDEST SWAP2 POP PUSH2 0x211 DUP4 PUSH2 0xE1 JUMP JUMPDEST SWAP3 POP DUP3 PUSH2 0x221 JUMPI PUSH2 0x220 PUSH2 0x1CF JUMP JUMPDEST JUMPDEST DUP3 DUP3 DIV SWAP1 POP SWAP3 SWAP2 POP POP JUMP JUMPDEST PUSH0 PUSH2 0x236 DUP3 PUSH2 0xE1 JUMP JUMPDEST SWAP2 POP PUSH2 0x241 DUP4 PUSH2 0xE1 JUMP JUMPDEST SWAP3 POP DUP3 PUSH2 0x251 JUMPI PUSH2 0x250 PUSH2 0x1CF JUMP JUMPDEST JUMPDEST DUP3 DUP3 MOD SWAP1 POP SWAP3 SWAP2 POP POP JUMP INVALID LOG2 PUSH5 0x6970667358 0x22 SLT KECCAK256 REVERT EXTCODEHASH 0x4C SAR 0xA7 CALL DUP3 0xD0 SLOAD MUL 0x2B LOG2 SWAP1 0xF7 0xB5 SWAP16 0xCA 0xC1 LOG2 0xD2 0x28 0x23 SWAP3 0xBD GASLIMIT 0xE1 0xB3 PUSH15 0xD540BA8F64736F6C63430008190033 "
		},
		"gasEstimates": {
			"creation": {
				"codeDepositCost": "131600",
				"executionCost": "175",
				"totalCost": "131775"
			},
			"external": {
				"convertTime(uint256)": "infinite"
			}
		},
		"methodIdentifiers": {
			"convertTime(uint256)": "88500bb6"
		}
	},
	"abi": [
		{
			"inputs": [
				{
					"internalType": "uint256",
					"name": "_n",
					"type": "uint256"
				}
			],
			"name": "convertTime",
			"outputs": [
				{
					"internalType": "string",
					"name": "",
					"type": "string"
				}
			],
			"stateMutability": "pure",
			"type": "function"
		}
	]
}