{
	"data": {
		"bytecode": {
			"linkReferences": {},
			"object": "6080604052348015600e575f80fd5b506108578061001c5f395ff3fe608060405234801561000f575f80fd5b5060043610610034575f3560e01c806312c04ec2146100385780631b253ba614610068575b5f80fd5b610052600480360381019061004d91906104de565b61009a565b60405161005f919061055f565b60405180910390f35b610082600480360381019061007d9190610616565b6100c0565b60405161009193929190610677565b60405180910390f35b5f815f815181106100ae576100ad6106ac565b5b602001015160f81c60f81b9050919050565b5f805f805f805f8790505f5b81518110156102bc57604060f81b8282815181106100ed576100ec6106ac565b5b602001015160f81c60f81b7effffffffffffffffffffffffffffffffffffffffffffffffffffffffffffff19161180156101695750605b60f81b82828151811061013a576101396106ac565b5b602001015160f81c60f81b7effffffffffffffffffffffffffffffffffffffffffffffffffffffffffffff1916105b1561017357600193505b606060f81b82828151811061018b5761018a6106ac565b5b602001015160f81c60f81b7effffffffffffffffffffffffffffffffffffffffffffffffffffffffffffff19161180156102075750607b60f81b8282815181106101d8576101d76106ac565b5b602001015160f81c60f81b7effffffffffffffffffffffffffffffffffffffffffffffffffffffffffffff1916105b1561021157600194505b603060f81b828281518110610229576102286106ac565b5b602001015160f81c60f81b7effffffffffffffffffffffffffffffffffffffffffffffffffffffffffffff19161180156102a55750604060f81b828281518110610276576102756106ac565b5b602001015160f81c60f81b7effffffffffffffffffffffffffffffffffffffffffffffffffffffffffffff1916105b156102af57600192505b80806001019150506100cc565b50836102fd576040517f08c379a00000000000000000000000000000000000000000000000000000000081526004016102f490610733565b60405180910390fd5b8261033d576040517f08c379a00000000000000000000000000000000000000000000000000000000081526004016103349061079b565b60405180910390fd5b8161037d576040517f08c379a000000000000000000000000000000000000000000000000000000000815260040161037490610803565b60405180910390fd5b828483965096509650505050509193909250565b5f604051905090565b5f80fd5b5f80fd5b5f80fd5b5f80fd5b5f601f19601f8301169050919050565b7f4e487b71000000000000000000000000000000000000000000000000000000005f52604160045260245ffd5b6103f0826103aa565b810181811067ffffffffffffffff8211171561040f5761040e6103ba565b5b80604052505050565b5f610421610391565b905061042d82826103e7565b919050565b5f67ffffffffffffffff82111561044c5761044b6103ba565b5b610455826103aa565b9050602081019050919050565b828183375f83830152505050565b5f61048261047d84610432565b610418565b90508281526020810184848401111561049e5761049d6103a6565b5b6104a9848285610462565b509392505050565b5f82601f8301126104c5576104c46103a2565b5b81356104d5848260208601610470565b91505092915050565b5f602082840312156104f3576104f261039a565b5b5f82013567ffffffffffffffff8111156105105761050f61039e565b5b61051c848285016104b1565b91505092915050565b5f7fff0000000000000000000000000000000000000000000000000000000000000082169050919050565b61055981610525565b82525050565b5f6020820190506105725f830184610550565b92915050565b5f67ffffffffffffffff821115610592576105916103ba565b5b61059b826103aa565b9050602081019050919050565b5f6105ba6105b584610578565b610418565b9050828152602081018484840111156105d6576105d56103a6565b5b6105e1848285610462565b509392505050565b5f82601f8301126105fd576105fc6103a2565b5b813561060d8482602086016105a8565b91505092915050565b5f6020828403121561062b5761062a61039a565b5b5f82013567ffffffffffffffff8111156106485761064761039e565b5b610654848285016105e9565b91505092915050565b5f8115159050919050565b6106718161065d565b82525050565b5f60608201905061068a5f830186610668565b6106976020830185610668565b6106a46040830184610668565b949350505050565b7f4e487b71000000000000000000000000000000000000000000000000000000005f52603260045260245ffd5b5f82825260208201905092915050565b7f707574206174206c65617374203120736d616c6c206c657474657200000000005f82015250565b5f61071d601b836106d9565b9150610728826106e9565b602082019050919050565b5f6020820190508181035f83015261074a81610711565b9050919050565b7f707574206174206c656173742031206361706974616c206c65747465720000005f82015250565b5f610785601d836106d9565b915061079082610751565b602082019050919050565b5f6020820190508181035f8301526107b281610779565b9050919050565b7f707574206174206c656173742031206e756d62657200000000000000000000005f82015250565b5f6107ed6015836106d9565b91506107f8826107b9565b602082019050919050565b5f6020820190508181035f83015261081a816107e1565b905091905056fea2646970667358221220bfa1d0bad03dd97d9ca740cb2d3fa042b0214ec6864c81232c7c6244680c4dd764736f6c63430008190033",
			"opcodes": "PUSH1 0x80 PUSH1 0x40 MSTORE CALLVALUE DUP1 ISZERO PUSH1 0xE JUMPI PUSH0 DUP1 REVERT JUMPDEST POP PUSH2 0x857 DUP1 PUSH2 0x1C PUSH0 CODECOPY PUSH0 RETURN INVALID PUSH1 0x80 PUSH1 0x40 MSTORE CALLVALUE DUP1 ISZERO PUSH2 0xF JUMPI PUSH0 DUP1 REVERT JUMPDEST POP PUSH1 0x4 CALLDATASIZE LT PUSH2 0x34 JUMPI PUSH0 CALLDATALOAD PUSH1 0xE0 SHR DUP1 PUSH4 0x12C04EC2 EQ PUSH2 0x38 JUMPI DUP1 PUSH4 0x1B253BA6 EQ PUSH2 0x68 JUMPI JUMPDEST PUSH0 DUP1 REVERT JUMPDEST PUSH2 0x52 PUSH1 0x4 DUP1 CALLDATASIZE SUB DUP2 ADD SWAP1 PUSH2 0x4D SWAP2 SWAP1 PUSH2 0x4DE JUMP JUMPDEST PUSH2 0x9A JUMP JUMPDEST PUSH1 0x40 MLOAD PUSH2 0x5F SWAP2 SWAP1 PUSH2 0x55F JUMP JUMPDEST PUSH1 0x40 MLOAD DUP1 SWAP2 SUB SWAP1 RETURN JUMPDEST PUSH2 0x82 PUSH1 0x4 DUP1 CALLDATASIZE SUB DUP2 ADD SWAP1 PUSH2 0x7D SWAP2 SWAP1 PUSH2 0x616 JUMP JUMPDEST PUSH2 0xC0 JUMP JUMPDEST PUSH1 0x40 MLOAD PUSH2 0x91 SWAP4 SWAP3 SWAP2 SWAP1 PUSH2 0x677 JUMP JUMPDEST PUSH1 0x40 MLOAD DUP1 SWAP2 SUB SWAP1 RETURN JUMPDEST PUSH0 DUP2 PUSH0 DUP2 MLOAD DUP2 LT PUSH2 0xAE JUMPI PUSH2 0xAD PUSH2 0x6AC JUMP JUMPDEST JUMPDEST PUSH1 0x20 ADD ADD MLOAD PUSH1 0xF8 SHR PUSH1 0xF8 SHL SWAP1 POP SWAP2 SWAP1 POP JUMP JUMPDEST PUSH0 DUP1 PUSH0 DUP1 PUSH0 DUP1 PUSH0 DUP8 SWAP1 POP PUSH0 JUMPDEST DUP2 MLOAD DUP2 LT ISZERO PUSH2 0x2BC JUMPI PUSH1 0x40 PUSH1 0xF8 SHL DUP3 DUP3 DUP2 MLOAD DUP2 LT PUSH2 0xED JUMPI PUSH2 0xEC PUSH2 0x6AC JUMP JUMPDEST JUMPDEST PUSH1 0x20 ADD ADD MLOAD PUSH1 0xF8 SHR PUSH1 0xF8 SHL PUSH31 0xFFFFFFFFFFFFFFFFFFFFFFFFFFFFFFFFFFFFFFFFFFFFFFFFFFFFFFFFFFFFFF NOT AND GT DUP1 ISZERO PUSH2 0x169 JUMPI POP PUSH1 0x5B PUSH1 0xF8 SHL DUP3 DUP3 DUP2 MLOAD DUP2 LT PUSH2 0x13A JUMPI PUSH2 0x139 PUSH2 0x6AC JUMP JUMPDEST JUMPDEST PUSH1 0x20 ADD ADD MLOAD PUSH1 0xF8 SHR PUSH1 0xF8 SHL PUSH31 0xFFFFFFFFFFFFFFFFFFFFFFFFFFFFFFFFFFFFFFFFFFFFFFFFFFFFFFFFFFFFFF NOT AND LT JUMPDEST ISZERO PUSH2 0x173 JUMPI PUSH1 0x1 SWAP4 POP JUMPDEST PUSH1 0x60 PUSH1 0xF8 SHL DUP3 DUP3 DUP2 MLOAD DUP2 LT PUSH2 0x18B JUMPI PUSH2 0x18A PUSH2 0x6AC JUMP JUMPDEST JUMPDEST PUSH1 0x20 ADD ADD MLOAD PUSH1 0xF8 SHR PUSH1 0xF8 SHL PUSH31 0xFFFFFFFFFFFFFFFFFFFFFFFFFFFFFFFFFFFFFFFFFFFFFFFFFFFFFFFFFFFFFF NOT AND GT DUP1 ISZERO PUSH2 0x207 JUMPI POP PUSH1 0x7B PUSH1 0xF8 SHL DUP3 DUP3 DUP2 MLOAD DUP2 LT PUSH2 0x1D8 JUMPI PUSH2 0x1D7 PUSH2 0x6AC JUMP JUMPDEST JUMPDEST PUSH1 0x20 ADD ADD MLOAD PUSH1 0xF8 SHR PUSH1 0xF8 SHL PUSH31 0xFFFFFFFFFFFFFFFFFFFFFFFFFFFFFFFFFFFFFFFFFFFFFFFFFFFFFFFFFFFFFF NOT AND LT JUMPDEST ISZERO PUSH2 0x211 JUMPI PUSH1 0x1 SWAP5 POP JUMPDEST PUSH1 0x30 PUSH1 0xF8 SHL DUP3 DUP3 DUP2 MLOAD DUP2 LT PUSH2 0x229 JUMPI PUSH2 0x228 PUSH2 0x6AC JUMP JUMPDEST JUMPDEST PUSH1 0x20 ADD ADD MLOAD PUSH1 0xF8 SHR PUSH1 0xF8 SHL PUSH31 0xFFFFFFFFFFFFFFFFFFFFFFFFFFFFFFFFFFFFFFFFFFFFFFFFFFFFFFFFFFFFFF NOT AND GT DUP1 ISZERO PUSH2 0x2A5 JUMPI POP PUSH1 0x40 PUSH1 0xF8 SHL DUP3 DUP3 DUP2 MLOAD DUP2 LT PUSH2 0x276 JUMPI PUSH2 0x275 PUSH2 0x6AC JUMP JUMPDEST JUMPDEST PUSH1 0x20 ADD ADD MLOAD PUSH1 0xF8 SHR PUSH1 0xF8 SHL PUSH31 0xFFFFFFFFFFFFFFFFFFFFFFFFFFFFFFFFFFFFFFFFFFFFFFFFFFFFFFFFFFFFFF NOT AND LT JUMPDEST ISZERO PUSH2 0x2AF JUMPI PUSH1 0x1 SWAP3 POP JUMPDEST DUP1 DUP1 PUSH1 0x1 ADD SWAP2 POP POP PUSH2 0xCC JUMP JUMPDEST POP DUP4 PUSH2 0x2FD JUMPI PUSH1 0x40 MLOAD PUSH32 0x8C379A000000000000000000000000000000000000000000000000000000000 DUP2 MSTORE PUSH1 0x4 ADD PUSH2 0x2F4 SWAP1 PUSH2 0x733 JUMP JUMPDEST PUSH1 0x40 MLOAD DUP1 SWAP2 SUB SWAP1 REVERT JUMPDEST DUP3 PUSH2 0x33D JUMPI PUSH1 0x40 MLOAD PUSH32 0x8C379A000000000000000000000000000000000000000000000000000000000 DUP2 MSTORE PUSH1 0x4 ADD PUSH2 0x334 SWAP1 PUSH2 0x79B JUMP JUMPDEST PUSH1 0x40 MLOAD DUP1 SWAP2 SUB SWAP1 REVERT JUMPDEST DUP2 PUSH2 0x37D JUMPI PUSH1 0x40 MLOAD PUSH32 0x8C379A000000000000000000000000000000000000000000000000000000000 DUP2 MSTORE PUSH1 0x4 ADD PUSH2 0x374 SWAP1 PUSH2 0x803 JUMP JUMPDEST PUSH1 0x40 MLOAD DUP1 SWAP2 SUB SWAP1 REVERT JUMPDEST DUP3 DUP5 DUP4 SWAP7 POP SWAP7 POP SWAP7 POP POP POP POP POP SWAP2 SWAP4 SWAP1 SWAP3 POP JUMP JUMPDEST PUSH0 PUSH1 0x40 MLOAD SWAP1 POP SWAP1 JUMP JUMPDEST PUSH0 DUP1 REVERT JUMPDEST PUSH0 DUP1 REVERT JUMPDEST PUSH0 DUP1 REVERT JUMPDEST PUSH0 DUP1 REVERT JUMPDEST PUSH0 PUSH1 0x1F NOT PUSH1 0x1F DUP4 ADD AND SWAP1 POP SWAP2 SWAP1 POP JUMP JUMPDEST PUSH32 0x4E487B7100000000000000000000000000000000000000000000000000000000 PUSH0 MSTORE PUSH1 0x41 PUSH1 0x4 MSTORE PUSH1 0x24 PUSH0 REVERT JUMPDEST PUSH2 0x3F0 DUP3 PUSH2 0x3AA JUMP JUMPDEST DUP2 ADD DUP2 DUP2 LT PUSH8 0xFFFFFFFFFFFFFFFF DUP3 GT OR ISZERO PUSH2 0x40F JUMPI PUSH2 0x40E PUSH2 0x3BA JUMP JUMPDEST JUMPDEST DUP1 PUSH1 0x40 MSTORE POP POP POP JUMP JUMPDEST PUSH0 PUSH2 0x421 PUSH2 0x391 JUMP JUMPDEST SWAP1 POP PUSH2 0x42D DUP3 DUP3 PUSH2 0x3E7 JUMP JUMPDEST SWAP2 SWAP1 POP JUMP JUMPDEST PUSH0 PUSH8 0xFFFFFFFFFFFFFFFF DUP3 GT ISZERO PUSH2 0x44C JUMPI PUSH2 0x44B PUSH2 0x3BA JUMP JUMPDEST JUMPDEST PUSH2 0x455 DUP3 PUSH2 0x3AA JUMP JUMPDEST SWAP1 POP PUSH1 0x20 DUP2 ADD SWAP1 POP SWAP2 SWAP1 POP JUMP JUMPDEST DUP3 DUP2 DUP4 CALLDATACOPY PUSH0 DUP4 DUP4 ADD MSTORE POP POP POP JUMP JUMPDEST PUSH0 PUSH2 0x482 PUSH2 0x47D DUP5 PUSH2 0x432 JUMP JUMPDEST PUSH2 0x418 JUMP JUMPDEST SWAP1 POP DUP3 DUP2 MSTORE PUSH1 0x20 DUP2 ADD DUP5 DUP5 DUP5 ADD GT ISZERO PUSH2 0x49E JUMPI PUSH2 0x49D PUSH2 0x3A6 JUMP JUMPDEST JUMPDEST PUSH2 0x4A9 DUP5 DUP3 DUP6 PUSH2 0x462 JUMP JUMPDEST POP SWAP4 SWAP3 POP POP POP JUMP JUMPDEST PUSH0 DUP3 PUSH1 0x1F DUP4 ADD SLT PUSH2 0x4C5 JUMPI PUSH2 0x4C4 PUSH2 0x3A2 JUMP JUMPDEST JUMPDEST DUP2 CALLDATALOAD PUSH2 0x4D5 DUP5 DUP3 PUSH1 0x20 DUP7 ADD PUSH2 0x470 JUMP JUMPDEST SWAP2 POP POP SWAP3 SWAP2 POP POP JUMP JUMPDEST PUSH0 PUSH1 0x20 DUP3 DUP5 SUB SLT ISZERO PUSH2 0x4F3 JUMPI PUSH2 0x4F2 PUSH2 0x39A JUMP JUMPDEST JUMPDEST PUSH0 DUP3 ADD CALLDATALOAD PUSH8 0xFFFFFFFFFFFFFFFF DUP2 GT ISZERO PUSH2 0x510 JUMPI PUSH2 0x50F PUSH2 0x39E JUMP JUMPDEST JUMPDEST PUSH2 0x51C DUP5 DUP3 DUP6 ADD PUSH2 0x4B1 JUMP JUMPDEST SWAP2 POP POP SWAP3 SWAP2 POP POP JUMP JUMPDEST PUSH0 PUSH32 0xFF00000000000000000000000000000000000000000000000000000000000000 DUP3 AND SWAP1 POP SWAP2 SWAP1 POP JUMP JUMPDEST PUSH2 0x559 DUP2 PUSH2 0x525 JUMP JUMPDEST DUP3 MSTORE POP POP JUMP JUMPDEST PUSH0 PUSH1 0x20 DUP3 ADD SWAP1 POP PUSH2 0x572 PUSH0 DUP4 ADD DUP5 PUSH2 0x550 JUMP JUMPDEST SWAP3 SWAP2 POP POP JUMP JUMPDEST PUSH0 PUSH8 0xFFFFFFFFFFFFFFFF DUP3 GT ISZERO PUSH2 0x592 JUMPI PUSH2 0x591 PUSH2 0x3BA JUMP JUMPDEST JUMPDEST PUSH2 0x59B DUP3 PUSH2 0x3AA JUMP JUMPDEST SWAP1 POP PUSH1 0x20 DUP2 ADD SWAP1 POP SWAP2 SWAP1 POP JUMP JUMPDEST PUSH0 PUSH2 0x5BA PUSH2 0x5B5 DUP5 PUSH2 0x578 JUMP JUMPDEST PUSH2 0x418 JUMP JUMPDEST SWAP1 POP DUP3 DUP2 MSTORE PUSH1 0x20 DUP2 ADD DUP5 DUP5 DUP5 ADD GT ISZERO PUSH2 0x5D6 JUMPI PUSH2 0x5D5 PUSH2 0x3A6 JUMP JUMPDEST JUMPDEST PUSH2 0x5E1 DUP5 DUP3 DUP6 PUSH2 0x462 JUMP JUMPDEST POP SWAP4 SWAP3 POP POP POP JUMP JUMPDEST PUSH0 DUP3 PUSH1 0x1F DUP4 ADD SLT PUSH2 0x5FD JUMPI PUSH2 0x5FC PUSH2 0x3A2 JUMP JUMPDEST JUMPDEST DUP2 CALLDATALOAD PUSH2 0x60D DUP5 DUP3 PUSH1 0x20 DUP7 ADD PUSH2 0x5A8 JUMP JUMPDEST SWAP2 POP POP SWAP3 SWAP2 POP POP JUMP JUMPDEST PUSH0 PUSH1 0x20 DUP3 DUP5 SUB SLT ISZERO PUSH2 0x62B JUMPI PUSH2 0x62A PUSH2 0x39A JUMP JUMPDEST JUMPDEST PUSH0 DUP3 ADD CALLDATALOAD PUSH8 0xFFFFFFFFFFFFFFFF DUP2 GT ISZERO PUSH2 0x648 JUMPI PUSH2 0x647 PUSH2 0x39E JUMP JUMPDEST JUMPDEST PUSH2 0x654 DUP5 DUP3 DUP6 ADD PUSH2 0x5E9 JUMP JUMPDEST SWAP2 POP POP SWAP3 SWAP2 POP POP JUMP JUMPDEST PUSH0 DUP2 ISZERO ISZERO SWAP1 POP SWAP2 SWAP1 POP JUMP JUMPDEST PUSH2 0x671 DUP2 PUSH2 0x65D JUMP JUMPDEST DUP3 MSTORE POP POP JUMP JUMPDEST PUSH0 PUSH1 0x60 DUP3 ADD SWAP1 POP PUSH2 0x68A PUSH0 DUP4 ADD DUP7 PUSH2 0x668 JUMP JUMPDEST PUSH2 0x697 PUSH1 0x20 DUP4 ADD DUP6 PUSH2 0x668 JUMP JUMPDEST PUSH2 0x6A4 PUSH1 0x40 DUP4 ADD DUP5 PUSH2 0x668 JUMP JUMPDEST SWAP5 SWAP4 POP POP POP POP JUMP JUMPDEST PUSH32 0x4E487B7100000000000000000000000000000000000000000000000000000000 PUSH0 MSTORE PUSH1 0x32 PUSH1 0x4 MSTORE PUSH1 0x24 PUSH0 REVERT JUMPDEST PUSH0 DUP3 DUP3 MSTORE PUSH1 0x20 DUP3 ADD SWAP1 POP SWAP3 SWAP2 POP POP JUMP JUMPDEST PUSH32 0x707574206174206C65617374203120736D616C6C206C65747465720000000000 PUSH0 DUP3 ADD MSTORE POP JUMP JUMPDEST PUSH0 PUSH2 0x71D PUSH1 0x1B DUP4 PUSH2 0x6D9 JUMP JUMPDEST SWAP2 POP PUSH2 0x728 DUP3 PUSH2 0x6E9 JUMP JUMPDEST PUSH1 0x20 DUP3 ADD SWAP1 POP SWAP2 SWAP1 POP JUMP JUMPDEST PUSH0 PUSH1 0x20 DUP3 ADD SWAP1 POP DUP2 DUP2 SUB PUSH0 DUP4 ADD MSTORE PUSH2 0x74A DUP2 PUSH2 0x711 JUMP JUMPDEST SWAP1 POP SWAP2 SWAP1 POP JUMP JUMPDEST PUSH32 0x707574206174206C656173742031206361706974616C206C6574746572000000 PUSH0 DUP3 ADD MSTORE POP JUMP JUMPDEST PUSH0 PUSH2 0x785 PUSH1 0x1D DUP4 PUSH2 0x6D9 JUMP JUMPDEST SWAP2 POP PUSH2 0x790 DUP3 PUSH2 0x751 JUMP JUMPDEST PUSH1 0x20 DUP3 ADD SWAP1 POP SWAP2 SWAP1 POP JUMP JUMPDEST PUSH0 PUSH1 0x20 DUP3 ADD SWAP1 POP DUP2 DUP2 SUB PUSH0 DUP4 ADD MSTORE PUSH2 0x7B2 DUP2 PUSH2 0x779 JUMP JUMPDEST SWAP1 POP SWAP2 SWAP1 POP JUMP JUMPDEST PUSH32 0x707574206174206C656173742031206E756D6265720000000000000000000000 PUSH0 DUP3 ADD MSTORE POP JUMP JUMPDEST PUSH0 PUSH2 0x7ED PUSH1 0x15 DUP4 PUSH2 0x6D9 JUMP JUMPDEST SWAP2 POP PUSH2 0x7F8 DUP3 PUSH2 0x7B9 JUMP JUMPDEST PUSH1 0x20 DUP3 ADD SWAP1 POP SWAP2 SWAP1 POP JUMP JUMPDEST PUSH0 PUSH1 0x20 DUP3 ADD SWAP1 POP DUP2 DUP2 SUB PUSH0 DUP4 ADD MSTORE PUSH2 0x81A DUP2 PUSH2 0x7E1 JUMP JUMPDEST SWAP1 POP SWAP2 SWAP1 POP JUMP INVALID LOG2 PUSH5 0x6970667358 0x22 SLT KECCAK256 0xBF LOG1 0xD0 0xBA 0xD0 RETURNDATASIZE 0xD9 PUSH30 0x9CA740CB2D3FA042B0214EC6864C81232C7C6244680C4DD764736F6C6343 STOP ADDMOD NOT STOP CALLER "
		},
		"gasEstimates": {
			"creation": {
				"codeDepositCost": "427000",
				"executionCost": "459",
				"totalCost": "427459"
			},
			"external": {
				"generatePW(string)": "infinite",
				"splitBytes(bytes)": "infinite"
			}
		},
		"methodIdentifiers": {
			"generatePW(string)": "1b253ba6",
			"splitBytes(bytes)": "12c04ec2"
		}
	},
	"abi": [
		{
			"inputs": [
				{
					"internalType": "string",
					"name": "_pw",
					"type": "string"
				}
			],
			"name": "generatePW",
			"outputs": [
				{
					"internalType": "bool",
					"name": "",
					"type": "bool"
				},
				{
					"internalType": "bool",
					"name": "",
					"type": "bool"
				},
				{
					"internalType": "bool",
					"name": "",
					"type": "bool"
				}
			],
			"stateMutability": "pure",
			"type": "function"
		},
		{
			"inputs": [
				{
					"internalType": "bytes",
					"name": "_b",
					"type": "bytes"
				}
			],
			"name": "splitBytes",
			"outputs": [
				{
					"internalType": "bytes1",
					"name": "",
					"type": "bytes1"
				}
			],
			"stateMutability": "pure",
			"type": "function"
		}
	]
}