{
	"data": {
		"bytecode": {
			"linkReferences": {},
			"object": "6080604052348015600e575f80fd5b5060405180606001604052805f8152602001606481526020015f15158152505f80820151815f0155602082015181600101556040820151816002015f6101000a81548160ff021916908315150217905550905050610a278061006f5f395ff3fe60806040526004361061006f575f3560e01c8063ca04c8341161004d578063ca04c834146100dd578063d3c8640a14610107578063dacffe7d1461011d578063fe4d775b146101275761006f565b80637261a70c14610073578063a59546f81461009d578063b572ccb0146100b3575b5f80fd5b34801561007e575f80fd5b50610087610153565b60405161009491906106da565b60405180910390f35b3480156100a8575f80fd5b506100b1610284565b005b3480156100be575f80fd5b506100c7610361565b6040516100d491906106da565b60405180910390f35b3480156100e8575f80fd5b506100f1610457565b6040516100fe91906106da565b60405180910390f35b348015610112575f80fd5b5061011b61049d565b005b610125610569565b005b348015610132575f80fd5b5061013b610626565b60405161014a93929190610711565b60405180910390f35b61015b610648565b5f6002015f9054906101000a900460ff166101ab576040517f08c379a00000000000000000000000000000000000000000000000000000000081526004016101a2906107a0565b60405180910390fd5b5f805f0154146101f0576040517f08c379a00000000000000000000000000000000000000000000000000000000081526004016101e790610808565b60405180910390fd5b60405180606001604052805f81526020015f6001015481526020015f15158152505f80820151815f0155602082015181600101556040820151816002015f6101000a81548160ff0219169083151502179055509050505f6040518060600160405290815f820154815260200160018201548152602001600282015f9054906101000a900460ff161515151581525050905090565b5f6002015f9054906101000a900460ff166102d4576040517f08c379a00000000000000000000000000000000000000000000000000000000081526004016102cb906107a0565b60405180910390fd5b601e5f600101541180156102eb575060465f800154105b61032a576040517f08c379a000000000000000000000000000000000000000000000000000000000815260040161032190610870565b60405180910390fd5b600a5f80015f82825461033d91906108bb565b9250508190555060145f6001015f82825461035891906108ee565b92505081905550565b610369610648565b5f15155f6002015f9054906101000a900460ff161515146103bf576040517f08c379a00000000000000000000000000000000000000000000000000000000081526004016103b6906107a0565b60405180910390fd5b60405180606001604052805f80015481526020015f600101548152602001600115158152505f80820151815f0155602082015181600101556040820151816002015f6101000a81548160ff0219169083151502179055509050505f6040518060600160405290815f820154815260200160018201548152602001600282015f9054906101000a900460ff161515151581525050905090565b61045f610648565b5f6040518060600160405290815f820154815260200160018201548152602001600282015f9054906101000a900460ff161515151581525050905090565b5f6002015f9054906101000a900460ff166104ed576040517f08c379a00000000000000000000000000000000000000000000000000000000081526004016104e4906107a0565b60405180910390fd5b5f805f015411610532576040517f08c379a00000000000000000000000000000000000000000000000000000000081526004016105299061096b565b60405180910390fd5b600a5f80015f82825461054591906108ee565b92505081905550600a5f6001015f82825461056091906108ee565b92505081905550565b5f15155f6002015f9054906101000a900460ff161515146105bf576040517f08c379a00000000000000000000000000000000000000000000000000000000081526004016105b6906107a0565b60405180910390fd5b670de0b6b3a76400003414610609576040517f08c379a0000000000000000000000000000000000000000000000000000000008152600401610600906109d3565b60405180910390fd5b60645f6001015f82825461061d91906108bb565b92505081905550565b5f805f015490806001015490806002015f9054906101000a900460ff16905083565b60405180606001604052805f81526020015f81526020015f151581525090565b5f819050919050565b61067a81610668565b82525050565b5f8115159050919050565b61069481610680565b82525050565b606082015f8201516106ae5f850182610671565b5060208201516106c16020850182610671565b5060408201516106d4604085018261068b565b50505050565b5f6060820190506106ed5f83018461069a565b92915050565b6106fc81610668565b82525050565b61070b81610680565b82525050565b5f6060820190506107245f8301866106f3565b61073160208301856106f3565b61073e6040830184610702565b949350505050565b5f82825260208201905092915050565b7f73746172742043617200000000000000000000000000000000000000000000005f82015250565b5f61078a600983610746565b915061079582610756565b602082019050919050565b5f6020820190508181035f8301526107b78161077e565b9050919050565b7f73706565642073686f756c6420626520300000000000000000000000000000005f82015250565b5f6107f2601183610746565b91506107fd826107be565b602082019050919050565b5f6020820190508181035f83015261081f816107e6565b9050919050565b7f636865636b206675656c206f72207370656564000000000000000000000000005f82015250565b5f61085a601383610746565b915061086582610826565b602082019050919050565b5f6020820190508181035f8301526108878161084e565b9050919050565b7f4e487b71000000000000000000000000000000000000000000000000000000005f52601160045260245ffd5b5f6108c582610668565b91506108d083610668565b92508282019050808211156108e8576108e761088e565b5b92915050565b5f6108f882610668565b915061090383610668565b925082820390508181111561091b5761091a61088e565b5b92915050565b7f636865636b2073706565640000000000000000000000000000000000000000005f82015250565b5f610955600b83610746565b915061096082610921565b602082019050919050565b5f6020820190508181035f83015261098281610949565b9050919050565b7f70617920312065746865720000000000000000000000000000000000000000005f82015250565b5f6109bd600b83610746565b91506109c882610989565b602082019050919050565b5f6020820190508181035f8301526109ea816109b1565b905091905056fea2646970667358221220e9e305c7d9fc8cd01dc226cc6b7735431cc6a033d571feb25fba22c8c4259d0964736f6c63430008190033",
			"opcodes": "PUSH1 0x80 PUSH1 0x40 MSTORE CALLVALUE DUP1 ISZERO PUSH1 0xE JUMPI PUSH0 DUP1 REVERT JUMPDEST POP PUSH1 0x40 MLOAD DUP1 PUSH1 0x60 ADD PUSH1 0x40 MSTORE DUP1 PUSH0 DUP2 MSTORE PUSH1 0x20 ADD PUSH1 0x64 DUP2 MSTORE PUSH1 0x20 ADD PUSH0 ISZERO ISZERO DUP2 MSTORE POP PUSH0 DUP1 DUP3 ADD MLOAD DUP2 PUSH0 ADD SSTORE PUSH1 0x20 DUP3 ADD MLOAD DUP2 PUSH1 0x1 ADD SSTORE PUSH1 0x40 DUP3 ADD MLOAD DUP2 PUSH1 0x2 ADD PUSH0 PUSH2 0x100 EXP DUP2 SLOAD DUP2 PUSH1 0xFF MUL NOT AND SWAP1 DUP4 ISZERO ISZERO MUL OR SWAP1 SSTORE POP SWAP1 POP POP PUSH2 0xA27 DUP1 PUSH2 0x6F PUSH0 CODECOPY PUSH0 RETURN INVALID PUSH1 0x80 PUSH1 0x40 MSTORE PUSH1 0x4 CALLDATASIZE LT PUSH2 0x6F JUMPI PUSH0 CALLDATALOAD PUSH1 0xE0 SHR DUP1 PUSH4 0xCA04C834 GT PUSH2 0x4D JUMPI DUP1 PUSH4 0xCA04C834 EQ PUSH2 0xDD JUMPI DUP1 PUSH4 0xD3C8640A EQ PUSH2 0x107 JUMPI DUP1 PUSH4 0xDACFFE7D EQ PUSH2 0x11D JUMPI DUP1 PUSH4 0xFE4D775B EQ PUSH2 0x127 JUMPI PUSH2 0x6F JUMP JUMPDEST DUP1 PUSH4 0x7261A70C EQ PUSH2 0x73 JUMPI DUP1 PUSH4 0xA59546F8 EQ PUSH2 0x9D JUMPI DUP1 PUSH4 0xB572CCB0 EQ PUSH2 0xB3 JUMPI JUMPDEST PUSH0 DUP1 REVERT JUMPDEST CALLVALUE DUP1 ISZERO PUSH2 0x7E JUMPI PUSH0 DUP1 REVERT JUMPDEST POP PUSH2 0x87 PUSH2 0x153 JUMP JUMPDEST PUSH1 0x40 MLOAD PUSH2 0x94 SWAP2 SWAP1 PUSH2 0x6DA JUMP JUMPDEST PUSH1 0x40 MLOAD DUP1 SWAP2 SUB SWAP1 RETURN JUMPDEST CALLVALUE DUP1 ISZERO PUSH2 0xA8 JUMPI PUSH0 DUP1 REVERT JUMPDEST POP PUSH2 0xB1 PUSH2 0x284 JUMP JUMPDEST STOP JUMPDEST CALLVALUE DUP1 ISZERO PUSH2 0xBE JUMPI PUSH0 DUP1 REVERT JUMPDEST POP PUSH2 0xC7 PUSH2 0x361 JUMP JUMPDEST PUSH1 0x40 MLOAD PUSH2 0xD4 SWAP2 SWAP1 PUSH2 0x6DA JUMP JUMPDEST PUSH1 0x40 MLOAD DUP1 SWAP2 SUB SWAP1 RETURN JUMPDEST CALLVALUE DUP1 ISZERO PUSH2 0xE8 JUMPI PUSH0 DUP1 REVERT JUMPDEST POP PUSH2 0xF1 PUSH2 0x457 JUMP JUMPDEST PUSH1 0x40 MLOAD PUSH2 0xFE SWAP2 SWAP1 PUSH2 0x6DA JUMP JUMPDEST PUSH1 0x40 MLOAD DUP1 SWAP2 SUB SWAP1 RETURN JUMPDEST CALLVALUE DUP1 ISZERO PUSH2 0x112 JUMPI PUSH0 DUP1 REVERT JUMPDEST POP PUSH2 0x11B PUSH2 0x49D JUMP JUMPDEST STOP JUMPDEST PUSH2 0x125 PUSH2 0x569 JUMP JUMPDEST STOP JUMPDEST CALLVALUE DUP1 ISZERO PUSH2 0x132 JUMPI PUSH0 DUP1 REVERT JUMPDEST POP PUSH2 0x13B PUSH2 0x626 JUMP JUMPDEST PUSH1 0x40 MLOAD PUSH2 0x14A SWAP4 SWAP3 SWAP2 SWAP1 PUSH2 0x711 JUMP JUMPDEST PUSH1 0x40 MLOAD DUP1 SWAP2 SUB SWAP1 RETURN JUMPDEST PUSH2 0x15B PUSH2 0x648 JUMP JUMPDEST PUSH0 PUSH1 0x2 ADD PUSH0 SWAP1 SLOAD SWAP1 PUSH2 0x100 EXP SWAP1 DIV PUSH1 0xFF AND PUSH2 0x1AB JUMPI PUSH1 0x40 MLOAD PUSH32 0x8C379A000000000000000000000000000000000000000000000000000000000 DUP2 MSTORE PUSH1 0x4 ADD PUSH2 0x1A2 SWAP1 PUSH2 0x7A0 JUMP JUMPDEST PUSH1 0x40 MLOAD DUP1 SWAP2 SUB SWAP1 REVERT JUMPDEST PUSH0 DUP1 PUSH0 ADD SLOAD EQ PUSH2 0x1F0 JUMPI PUSH1 0x40 MLOAD PUSH32 0x8C379A000000000000000000000000000000000000000000000000000000000 DUP2 MSTORE PUSH1 0x4 ADD PUSH2 0x1E7 SWAP1 PUSH2 0x808 JUMP JUMPDEST PUSH1 0x40 MLOAD DUP1 SWAP2 SUB SWAP1 REVERT JUMPDEST PUSH1 0x40 MLOAD DUP1 PUSH1 0x60 ADD PUSH1 0x40 MSTORE DUP1 PUSH0 DUP2 MSTORE PUSH1 0x20 ADD PUSH0 PUSH1 0x1 ADD SLOAD DUP2 MSTORE PUSH1 0x20 ADD PUSH0 ISZERO ISZERO DUP2 MSTORE POP PUSH0 DUP1 DUP3 ADD MLOAD DUP2 PUSH0 ADD SSTORE PUSH1 0x20 DUP3 ADD MLOAD DUP2 PUSH1 0x1 ADD SSTORE PUSH1 0x40 DUP3 ADD MLOAD DUP2 PUSH1 0x2 ADD PUSH0 PUSH2 0x100 EXP DUP2 SLOAD DUP2 PUSH1 0xFF MUL NOT AND SWAP1 DUP4 ISZERO ISZERO MUL OR SWAP1 SSTORE POP SWAP1 POP POP PUSH0 PUSH1 0x40 MLOAD DUP1 PUSH1 0x60 ADD PUSH1 0x40 MSTORE SWAP1 DUP2 PUSH0 DUP3 ADD SLOAD DUP2 MSTORE PUSH1 0x20 ADD PUSH1 0x1 DUP3 ADD SLOAD DUP2 MSTORE PUSH1 0x20 ADD PUSH1 0x2 DUP3 ADD PUSH0 SWAP1 SLOAD SWAP1 PUSH2 0x100 EXP SWAP1 DIV PUSH1 0xFF AND ISZERO ISZERO ISZERO ISZERO DUP2 MSTORE POP POP SWAP1 POP SWAP1 JUMP JUMPDEST PUSH0 PUSH1 0x2 ADD PUSH0 SWAP1 SLOAD SWAP1 PUSH2 0x100 EXP SWAP1 DIV PUSH1 0xFF AND PUSH2 0x2D4 JUMPI PUSH1 0x40 MLOAD PUSH32 0x8C379A000000000000000000000000000000000000000000000000000000000 DUP2 MSTORE PUSH1 0x4 ADD PUSH2 0x2CB SWAP1 PUSH2 0x7A0 JUMP JUMPDEST PUSH1 0x40 MLOAD DUP1 SWAP2 SUB SWAP1 REVERT JUMPDEST PUSH1 0x1E PUSH0 PUSH1 0x1 ADD SLOAD GT DUP1 ISZERO PUSH2 0x2EB JUMPI POP PUSH1 0x46 PUSH0 DUP1 ADD SLOAD LT JUMPDEST PUSH2 0x32A JUMPI PUSH1 0x40 MLOAD PUSH32 0x8C379A000000000000000000000000000000000000000000000000000000000 DUP2 MSTORE PUSH1 0x4 ADD PUSH2 0x321 SWAP1 PUSH2 0x870 JUMP JUMPDEST PUSH1 0x40 MLOAD DUP1 SWAP2 SUB SWAP1 REVERT JUMPDEST PUSH1 0xA PUSH0 DUP1 ADD PUSH0 DUP3 DUP3 SLOAD PUSH2 0x33D SWAP2 SWAP1 PUSH2 0x8BB JUMP JUMPDEST SWAP3 POP POP DUP2 SWAP1 SSTORE POP PUSH1 0x14 PUSH0 PUSH1 0x1 ADD PUSH0 DUP3 DUP3 SLOAD PUSH2 0x358 SWAP2 SWAP1 PUSH2 0x8EE JUMP JUMPDEST SWAP3 POP POP DUP2 SWAP1 SSTORE POP JUMP JUMPDEST PUSH2 0x369 PUSH2 0x648 JUMP JUMPDEST PUSH0 ISZERO ISZERO PUSH0 PUSH1 0x2 ADD PUSH0 SWAP1 SLOAD SWAP1 PUSH2 0x100 EXP SWAP1 DIV PUSH1 0xFF AND ISZERO ISZERO EQ PUSH2 0x3BF JUMPI PUSH1 0x40 MLOAD PUSH32 0x8C379A000000000000000000000000000000000000000000000000000000000 DUP2 MSTORE PUSH1 0x4 ADD PUSH2 0x3B6 SWAP1 PUSH2 0x7A0 JUMP JUMPDEST PUSH1 0x40 MLOAD DUP1 SWAP2 SUB SWAP1 REVERT JUMPDEST PUSH1 0x40 MLOAD DUP1 PUSH1 0x60 ADD PUSH1 0x40 MSTORE DUP1 PUSH0 DUP1 ADD SLOAD DUP2 MSTORE PUSH1 0x20 ADD PUSH0 PUSH1 0x1 ADD SLOAD DUP2 MSTORE PUSH1 0x20 ADD PUSH1 0x1 ISZERO ISZERO DUP2 MSTORE POP PUSH0 DUP1 DUP3 ADD MLOAD DUP2 PUSH0 ADD SSTORE PUSH1 0x20 DUP3 ADD MLOAD DUP2 PUSH1 0x1 ADD SSTORE PUSH1 0x40 DUP3 ADD MLOAD DUP2 PUSH1 0x2 ADD PUSH0 PUSH2 0x100 EXP DUP2 SLOAD DUP2 PUSH1 0xFF MUL NOT AND SWAP1 DUP4 ISZERO ISZERO MUL OR SWAP1 SSTORE POP SWAP1 POP POP PUSH0 PUSH1 0x40 MLOAD DUP1 PUSH1 0x60 ADD PUSH1 0x40 MSTORE SWAP1 DUP2 PUSH0 DUP3 ADD SLOAD DUP2 MSTORE PUSH1 0x20 ADD PUSH1 0x1 DUP3 ADD SLOAD DUP2 MSTORE PUSH1 0x20 ADD PUSH1 0x2 DUP3 ADD PUSH0 SWAP1 SLOAD SWAP1 PUSH2 0x100 EXP SWAP1 DIV PUSH1 0xFF AND ISZERO ISZERO ISZERO ISZERO DUP2 MSTORE POP POP SWAP1 POP SWAP1 JUMP JUMPDEST PUSH2 0x45F PUSH2 0x648 JUMP JUMPDEST PUSH0 PUSH1 0x40 MLOAD DUP1 PUSH1 0x60 ADD PUSH1 0x40 MSTORE SWAP1 DUP2 PUSH0 DUP3 ADD SLOAD DUP2 MSTORE PUSH1 0x20 ADD PUSH1 0x1 DUP3 ADD SLOAD DUP2 MSTORE PUSH1 0x20 ADD PUSH1 0x2 DUP3 ADD PUSH0 SWAP1 SLOAD SWAP1 PUSH2 0x100 EXP SWAP1 DIV PUSH1 0xFF AND ISZERO ISZERO ISZERO ISZERO DUP2 MSTORE POP POP SWAP1 POP SWAP1 JUMP JUMPDEST PUSH0 PUSH1 0x2 ADD PUSH0 SWAP1 SLOAD SWAP1 PUSH2 0x100 EXP SWAP1 DIV PUSH1 0xFF AND PUSH2 0x4ED JUMPI PUSH1 0x40 MLOAD PUSH32 0x8C379A000000000000000000000000000000000000000000000000000000000 DUP2 MSTORE PUSH1 0x4 ADD PUSH2 0x4E4 SWAP1 PUSH2 0x7A0 JUMP JUMPDEST PUSH1 0x40 MLOAD DUP1 SWAP2 SUB SWAP1 REVERT JUMPDEST PUSH0 DUP1 PUSH0 ADD SLOAD GT PUSH2 0x532 JUMPI PUSH1 0x40 MLOAD PUSH32 0x8C379A000000000000000000000000000000000000000000000000000000000 DUP2 MSTORE PUSH1 0x4 ADD PUSH2 0x529 SWAP1 PUSH2 0x96B JUMP JUMPDEST PUSH1 0x40 MLOAD DUP1 SWAP2 SUB SWAP1 REVERT JUMPDEST PUSH1 0xA PUSH0 DUP1 ADD PUSH0 DUP3 DUP3 SLOAD PUSH2 0x545 SWAP2 SWAP1 PUSH2 0x8EE JUMP JUMPDEST SWAP3 POP POP DUP2 SWAP1 SSTORE POP PUSH1 0xA PUSH0 PUSH1 0x1 ADD PUSH0 DUP3 DUP3 SLOAD PUSH2 0x560 SWAP2 SWAP1 PUSH2 0x8EE JUMP JUMPDEST SWAP3 POP POP DUP2 SWAP1 SSTORE POP JUMP JUMPDEST PUSH0 ISZERO ISZERO PUSH0 PUSH1 0x2 ADD PUSH0 SWAP1 SLOAD SWAP1 PUSH2 0x100 EXP SWAP1 DIV PUSH1 0xFF AND ISZERO ISZERO EQ PUSH2 0x5BF JUMPI PUSH1 0x40 MLOAD PUSH32 0x8C379A000000000000000000000000000000000000000000000000000000000 DUP2 MSTORE PUSH1 0x4 ADD PUSH2 0x5B6 SWAP1 PUSH2 0x7A0 JUMP JUMPDEST PUSH1 0x40 MLOAD DUP1 SWAP2 SUB SWAP1 REVERT JUMPDEST PUSH8 0xDE0B6B3A7640000 CALLVALUE EQ PUSH2 0x609 JUMPI PUSH1 0x40 MLOAD PUSH32 0x8C379A000000000000000000000000000000000000000000000000000000000 DUP2 MSTORE PUSH1 0x4 ADD PUSH2 0x600 SWAP1 PUSH2 0x9D3 JUMP JUMPDEST PUSH1 0x40 MLOAD DUP1 SWAP2 SUB SWAP1 REVERT JUMPDEST PUSH1 0x64 PUSH0 PUSH1 0x1 ADD PUSH0 DUP3 DUP3 SLOAD PUSH2 0x61D SWAP2 SWAP1 PUSH2 0x8BB JUMP JUMPDEST SWAP3 POP POP DUP2 SWAP1 SSTORE POP JUMP JUMPDEST PUSH0 DUP1 PUSH0 ADD SLOAD SWAP1 DUP1 PUSH1 0x1 ADD SLOAD SWAP1 DUP1 PUSH1 0x2 ADD PUSH0 SWAP1 SLOAD SWAP1 PUSH2 0x100 EXP SWAP1 DIV PUSH1 0xFF AND SWAP1 POP DUP4 JUMP JUMPDEST PUSH1 0x40 MLOAD DUP1 PUSH1 0x60 ADD PUSH1 0x40 MSTORE DUP1 PUSH0 DUP2 MSTORE PUSH1 0x20 ADD PUSH0 DUP2 MSTORE PUSH1 0x20 ADD PUSH0 ISZERO ISZERO DUP2 MSTORE POP SWAP1 JUMP JUMPDEST PUSH0 DUP2 SWAP1 POP SWAP2 SWAP1 POP JUMP JUMPDEST PUSH2 0x67A DUP2 PUSH2 0x668 JUMP JUMPDEST DUP3 MSTORE POP POP JUMP JUMPDEST PUSH0 DUP2 ISZERO ISZERO SWAP1 POP SWAP2 SWAP1 POP JUMP JUMPDEST PUSH2 0x694 DUP2 PUSH2 0x680 JUMP JUMPDEST DUP3 MSTORE POP POP JUMP JUMPDEST PUSH1 0x60 DUP3 ADD PUSH0 DUP3 ADD MLOAD PUSH2 0x6AE PUSH0 DUP6 ADD DUP3 PUSH2 0x671 JUMP JUMPDEST POP PUSH1 0x20 DUP3 ADD MLOAD PUSH2 0x6C1 PUSH1 0x20 DUP6 ADD DUP3 PUSH2 0x671 JUMP JUMPDEST POP PUSH1 0x40 DUP3 ADD MLOAD PUSH2 0x6D4 PUSH1 0x40 DUP6 ADD DUP3 PUSH2 0x68B JUMP JUMPDEST POP POP POP POP JUMP JUMPDEST PUSH0 PUSH1 0x60 DUP3 ADD SWAP1 POP PUSH2 0x6ED PUSH0 DUP4 ADD DUP5 PUSH2 0x69A JUMP JUMPDEST SWAP3 SWAP2 POP POP JUMP JUMPDEST PUSH2 0x6FC DUP2 PUSH2 0x668 JUMP JUMPDEST DUP3 MSTORE POP POP JUMP JUMPDEST PUSH2 0x70B DUP2 PUSH2 0x680 JUMP JUMPDEST DUP3 MSTORE POP POP JUMP JUMPDEST PUSH0 PUSH1 0x60 DUP3 ADD SWAP1 POP PUSH2 0x724 PUSH0 DUP4 ADD DUP7 PUSH2 0x6F3 JUMP JUMPDEST PUSH2 0x731 PUSH1 0x20 DUP4 ADD DUP6 PUSH2 0x6F3 JUMP JUMPDEST PUSH2 0x73E PUSH1 0x40 DUP4 ADD DUP5 PUSH2 0x702 JUMP JUMPDEST SWAP5 SWAP4 POP POP POP POP JUMP JUMPDEST PUSH0 DUP3 DUP3 MSTORE PUSH1 0x20 DUP3 ADD SWAP1 POP SWAP3 SWAP2 POP POP JUMP JUMPDEST PUSH32 0x7374617274204361720000000000000000000000000000000000000000000000 PUSH0 DUP3 ADD MSTORE POP JUMP JUMPDEST PUSH0 PUSH2 0x78A PUSH1 0x9 DUP4 PUSH2 0x746 JUMP JUMPDEST SWAP2 POP PUSH2 0x795 DUP3 PUSH2 0x756 JUMP JUMPDEST PUSH1 0x20 DUP3 ADD SWAP1 POP SWAP2 SWAP1 POP JUMP JUMPDEST PUSH0 PUSH1 0x20 DUP3 ADD SWAP1 POP DUP2 DUP2 SUB PUSH0 DUP4 ADD MSTORE PUSH2 0x7B7 DUP2 PUSH2 0x77E JUMP JUMPDEST SWAP1 POP SWAP2 SWAP1 POP JUMP JUMPDEST PUSH32 0x73706565642073686F756C642062652030000000000000000000000000000000 PUSH0 DUP3 ADD MSTORE POP JUMP JUMPDEST PUSH0 PUSH2 0x7F2 PUSH1 0x11 DUP4 PUSH2 0x746 JUMP JUMPDEST SWAP2 POP PUSH2 0x7FD DUP3 PUSH2 0x7BE JUMP JUMPDEST PUSH1 0x20 DUP3 ADD SWAP1 POP SWAP2 SWAP1 POP JUMP JUMPDEST PUSH0 PUSH1 0x20 DUP3 ADD SWAP1 POP DUP2 DUP2 SUB PUSH0 DUP4 ADD MSTORE PUSH2 0x81F DUP2 PUSH2 0x7E6 JUMP JUMPDEST SWAP1 POP SWAP2 SWAP1 POP JUMP JUMPDEST PUSH32 0x636865636B206675656C206F7220737065656400000000000000000000000000 PUSH0 DUP3 ADD MSTORE POP JUMP JUMPDEST PUSH0 PUSH2 0x85A PUSH1 0x13 DUP4 PUSH2 0x746 JUMP JUMPDEST SWAP2 POP PUSH2 0x865 DUP3 PUSH2 0x826 JUMP JUMPDEST PUSH1 0x20 DUP3 ADD SWAP1 POP SWAP2 SWAP1 POP JUMP JUMPDEST PUSH0 PUSH1 0x20 DUP3 ADD SWAP1 POP DUP2 DUP2 SUB PUSH0 DUP4 ADD MSTORE PUSH2 0x887 DUP2 PUSH2 0x84E JUMP JUMPDEST SWAP1 POP SWAP2 SWAP1 POP JUMP JUMPDEST PUSH32 0x4E487B7100000000000000000000000000000000000000000000000000000000 PUSH0 MSTORE PUSH1 0x11 PUSH1 0x4 MSTORE PUSH1 0x24 PUSH0 REVERT JUMPDEST PUSH0 PUSH2 0x8C5 DUP3 PUSH2 0x668 JUMP JUMPDEST SWAP2 POP PUSH2 0x8D0 DUP4 PUSH2 0x668 JUMP JUMPDEST SWAP3 POP DUP3 DUP3 ADD SWAP1 POP DUP1 DUP3 GT ISZERO PUSH2 0x8E8 JUMPI PUSH2 0x8E7 PUSH2 0x88E JUMP JUMPDEST JUMPDEST SWAP3 SWAP2 POP POP JUMP JUMPDEST PUSH0 PUSH2 0x8F8 DUP3 PUSH2 0x668 JUMP JUMPDEST SWAP2 POP PUSH2 0x903 DUP4 PUSH2 0x668 JUMP JUMPDEST SWAP3 POP DUP3 DUP3 SUB SWAP1 POP DUP2 DUP2 GT ISZERO PUSH2 0x91B JUMPI PUSH2 0x91A PUSH2 0x88E JUMP JUMPDEST JUMPDEST SWAP3 SWAP2 POP POP JUMP JUMPDEST PUSH32 0x636865636B207370656564000000000000000000000000000000000000000000 PUSH0 DUP3 ADD MSTORE POP JUMP JUMPDEST PUSH0 PUSH2 0x955 PUSH1 0xB DUP4 PUSH2 0x746 JUMP JUMPDEST SWAP2 POP PUSH2 0x960 DUP3 PUSH2 0x921 JUMP JUMPDEST PUSH1 0x20 DUP3 ADD SWAP1 POP SWAP2 SWAP1 POP JUMP JUMPDEST PUSH0 PUSH1 0x20 DUP3 ADD SWAP1 POP DUP2 DUP2 SUB PUSH0 DUP4 ADD MSTORE PUSH2 0x982 DUP2 PUSH2 0x949 JUMP JUMPDEST SWAP1 POP SWAP2 SWAP1 POP JUMP JUMPDEST PUSH32 0x7061792031206574686572000000000000000000000000000000000000000000 PUSH0 DUP3 ADD MSTORE POP JUMP JUMPDEST PUSH0 PUSH2 0x9BD PUSH1 0xB DUP4 PUSH2 0x746 JUMP JUMPDEST SWAP2 POP PUSH2 0x9C8 DUP3 PUSH2 0x989 JUMP JUMPDEST PUSH1 0x20 DUP3 ADD SWAP1 POP SWAP2 SWAP1 POP JUMP JUMPDEST PUSH0 PUSH1 0x20 DUP3 ADD SWAP1 POP DUP2 DUP2 SUB PUSH0 DUP4 ADD MSTORE PUSH2 0x9EA DUP2 PUSH2 0x9B1 JUMP JUMPDEST SWAP1 POP SWAP2 SWAP1 POP JUMP INVALID LOG2 PUSH5 0x6970667358 0x22 SLT KECCAK256 0xE9 0xE3 SDIV 0xC7 0xD9 0xFC DUP13 0xD0 SAR 0xC2 0x26 0xCC PUSH12 0x7735431CC6A033D571FEB25F 0xBA 0x22 0xC8 0xC4 0x25 SWAP14 MULMOD PUSH5 0x736F6C6343 STOP ADDMOD NOT STOP CALLER "
		},
		"gasEstimates": {
			"creation": {
				"codeDepositCost": "519800",
				"executionCost": "52054",
				"totalCost": "571854"
			},
			"external": {
				"Car()": "infinite",
				"accelCar()": "infinite",
				"brackCar()": "infinite",
				"getCar()": "infinite",
				"getFuel()": "infinite",
				"startCar()": "infinite",
				"stopCar()": "infinite"
			}
		},
		"methodIdentifiers": {
			"Car()": "fe4d775b",
			"accelCar()": "a59546f8",
			"brackCar()": "d3c8640a",
			"getCar()": "ca04c834",
			"getFuel()": "dacffe7d",
			"startCar()": "b572ccb0",
			"stopCar()": "7261a70c"
		}
	},
	"abi": [
		{
			"inputs": [],
			"stateMutability": "nonpayable",
			"type": "constructor"
		},
		{
			"inputs": [],
			"name": "Car",
			"outputs": [
				{
					"internalType": "uint256",
					"name": "speed",
					"type": "uint256"
				},
				{
					"internalType": "uint256",
					"name": "fuel",
					"type": "uint256"
				},
				{
					"internalType": "bool",
					"name": "start",
					"type": "bool"
				}
			],
			"stateMutability": "view",
			"type": "function"
		},
		{
			"inputs": [],
			"name": "accelCar",
			"outputs": [],
			"stateMutability": "nonpayable",
			"type": "function"
		},
		{
			"inputs": [],
			"name": "brackCar",
			"outputs": [],
			"stateMutability": "nonpayable",
			"type": "function"
		},
		{
			"inputs": [],
			"name": "getCar",
			"outputs": [
				{
					"components": [
						{
							"internalType": "uint256",
							"name": "speed",
							"type": "uint256"
						},
						{
							"internalType": "uint256",
							"name": "fuel",
							"type": "uint256"
						},
						{
							"internalType": "bool",
							"name": "start",
							"type": "bool"
						}
					],
					"internalType": "struct a.car",
					"name": "",
					"type": "tuple"
				}
			],
			"stateMutability": "view",
			"type": "function"
		},
		{
			"inputs": [],
			"name": "getFuel",
			"outputs": [],
			"stateMutability": "payable",
			"type": "function"
		},
		{
			"inputs": [],
			"name": "startCar",
			"outputs": [
				{
					"components": [
						{
							"internalType": "uint256",
							"name": "speed",
							"type": "uint256"
						},
						{
							"internalType": "uint256",
							"name": "fuel",
							"type": "uint256"
						},
						{
							"internalType": "bool",
							"name": "start",
							"type": "bool"
						}
					],
					"internalType": "struct a.car",
					"name": "",
					"type": "tuple"
				}
			],
			"stateMutability": "nonpayable",
			"type": "function"
		},
		{
			"inputs": [],
			"name": "stopCar",
			"outputs": [
				{
					"components": [
						{
							"internalType": "uint256",
							"name": "speed",
							"type": "uint256"
						},
						{
							"internalType": "uint256",
							"name": "fuel",
							"type": "uint256"
						},
						{
							"internalType": "bool",
							"name": "start",
							"type": "bool"
						}
					],
					"internalType": "struct a.car",
					"name": "",
					"type": "tuple"
				}
			],
			"stateMutability": "nonpayable",
			"type": "function"
		}
	]
}