{
	"data": {
		"bytecode": {
			"linkReferences": {},
			"object": "6080604052348015600e575f80fd5b506105228061001c5f395ff3fe608060405234801561000f575f80fd5b506004361061004a575f3560e01c80634a3672c31461004e57806357d4f2be1461007e578063c7ae8e33146100ae578063cd16ecbf146100de575b5f80fd5b610068600480360381019061006391906102fd565b61010e565b60405161007591906103cd565b60405180910390f35b610098600480360381019061009391906102fd565b610148565b6040516100a591906103cd565b60405180910390f35b6100c860048036038101906100c391906102fd565b6101a1565b6040516100d591906103f5565b60405180910390f35b6100f860048036038101906100f391906102fd565b610227565b604051610105919061049f565b60405180910390f35b6101166102a4565b61011e6102a4565b5f5b8381101561013e576001810160208202830152600181019050610120565b5080915050919050565b6101506102a4565b6101586102a4565b5f8060038511610168578461016b565b60045b90505f5b81811015610195576001810160208202850152600181018301925060018101905061016f565b50829350505050919050565b5f808267ffffffffffffffff8111156101bd576101bc6104bf565b5b6040519080825280602002602001820160405280156101eb5781602001602082028036833780820191505090505b5090505f602082015f5b8581101561021b57600181016020820283015260018101830192506001810190506101f5565b50508092505050919050565b60605f8267ffffffffffffffff811115610244576102436104bf565b5b6040519080825280602002602001820160405280156102725781602001602082028036833780820191505090505b509050602081015f5b8481101561029957600181016020820283015260018101905061027b565b505080915050919050565b6040518060800160405280600490602082028036833780820191505090505090565b5f80fd5b5f819050919050565b6102dc816102ca565b81146102e6575f80fd5b50565b5f813590506102f7816102d3565b92915050565b5f60208284031215610312576103116102c6565b5b5f61031f848285016102e9565b91505092915050565b5f60049050919050565b5f81905092915050565b5f819050919050565b61034e816102ca565b82525050565b5f61035f8383610345565b60208301905092915050565b5f602082019050919050565b61038081610328565b61038a8184610332565b92506103958261033c565b805f5b838110156103c55781516103ac8782610354565b96506103b78361036b565b925050600181019050610398565b505050505050565b5f6080820190506103e05f830184610377565b92915050565b6103ef816102ca565b82525050565b5f6020820190506104085f8301846103e6565b92915050565b5f81519050919050565b5f82825260208201905092915050565b5f819050602082019050919050565b5f602082019050919050565b5f61044d8261040e565b6104578185610418565b935061046283610428565b805f5b838110156104925781516104798882610354565b975061048483610437565b925050600181019050610465565b5085935050505092915050565b5f6020820190508181035f8301526104b78184610443565b905092915050565b7f4e487b71000000000000000000000000000000000000000000000000000000005f52604160045260245ffdfea2646970667358221220c8734806db12a78dc55f8dbd1ad108037a5b51aa400c8650ed3199d0de47f5fe64736f6c63430008190033",
			"opcodes": "PUSH1 0x80 PUSH1 0x40 MSTORE CALLVALUE DUP1 ISZERO PUSH1 0xE JUMPI PUSH0 DUP1 REVERT JUMPDEST POP PUSH2 0x522 DUP1 PUSH2 0x1C PUSH0 CODECOPY PUSH0 RETURN INVALID PUSH1 0x80 PUSH1 0x40 MSTORE CALLVALUE DUP1 ISZERO PUSH2 0xF JUMPI PUSH0 DUP1 REVERT JUMPDEST POP PUSH1 0x4 CALLDATASIZE LT PUSH2 0x4A JUMPI PUSH0 CALLDATALOAD PUSH1 0xE0 SHR DUP1 PUSH4 0x4A3672C3 EQ PUSH2 0x4E JUMPI DUP1 PUSH4 0x57D4F2BE EQ PUSH2 0x7E JUMPI DUP1 PUSH4 0xC7AE8E33 EQ PUSH2 0xAE JUMPI DUP1 PUSH4 0xCD16ECBF EQ PUSH2 0xDE JUMPI JUMPDEST PUSH0 DUP1 REVERT JUMPDEST PUSH2 0x68 PUSH1 0x4 DUP1 CALLDATASIZE SUB DUP2 ADD SWAP1 PUSH2 0x63 SWAP2 SWAP1 PUSH2 0x2FD JUMP JUMPDEST PUSH2 0x10E JUMP JUMPDEST PUSH1 0x40 MLOAD PUSH2 0x75 SWAP2 SWAP1 PUSH2 0x3CD JUMP JUMPDEST PUSH1 0x40 MLOAD DUP1 SWAP2 SUB SWAP1 RETURN JUMPDEST PUSH2 0x98 PUSH1 0x4 DUP1 CALLDATASIZE SUB DUP2 ADD SWAP1 PUSH2 0x93 SWAP2 SWAP1 PUSH2 0x2FD JUMP JUMPDEST PUSH2 0x148 JUMP JUMPDEST PUSH1 0x40 MLOAD PUSH2 0xA5 SWAP2 SWAP1 PUSH2 0x3CD JUMP JUMPDEST PUSH1 0x40 MLOAD DUP1 SWAP2 SUB SWAP1 RETURN JUMPDEST PUSH2 0xC8 PUSH1 0x4 DUP1 CALLDATASIZE SUB DUP2 ADD SWAP1 PUSH2 0xC3 SWAP2 SWAP1 PUSH2 0x2FD JUMP JUMPDEST PUSH2 0x1A1 JUMP JUMPDEST PUSH1 0x40 MLOAD PUSH2 0xD5 SWAP2 SWAP1 PUSH2 0x3F5 JUMP JUMPDEST PUSH1 0x40 MLOAD DUP1 SWAP2 SUB SWAP1 RETURN JUMPDEST PUSH2 0xF8 PUSH1 0x4 DUP1 CALLDATASIZE SUB DUP2 ADD SWAP1 PUSH2 0xF3 SWAP2 SWAP1 PUSH2 0x2FD JUMP JUMPDEST PUSH2 0x227 JUMP JUMPDEST PUSH1 0x40 MLOAD PUSH2 0x105 SWAP2 SWAP1 PUSH2 0x49F JUMP JUMPDEST PUSH1 0x40 MLOAD DUP1 SWAP2 SUB SWAP1 RETURN JUMPDEST PUSH2 0x116 PUSH2 0x2A4 JUMP JUMPDEST PUSH2 0x11E PUSH2 0x2A4 JUMP JUMPDEST PUSH0 JUMPDEST DUP4 DUP2 LT ISZERO PUSH2 0x13E JUMPI PUSH1 0x1 DUP2 ADD PUSH1 0x20 DUP3 MUL DUP4 ADD MSTORE PUSH1 0x1 DUP2 ADD SWAP1 POP PUSH2 0x120 JUMP JUMPDEST POP DUP1 SWAP2 POP POP SWAP2 SWAP1 POP JUMP JUMPDEST PUSH2 0x150 PUSH2 0x2A4 JUMP JUMPDEST PUSH2 0x158 PUSH2 0x2A4 JUMP JUMPDEST PUSH0 DUP1 PUSH1 0x3 DUP6 GT PUSH2 0x168 JUMPI DUP5 PUSH2 0x16B JUMP JUMPDEST PUSH1 0x4 JUMPDEST SWAP1 POP PUSH0 JUMPDEST DUP2 DUP2 LT ISZERO PUSH2 0x195 JUMPI PUSH1 0x1 DUP2 ADD PUSH1 0x20 DUP3 MUL DUP6 ADD MSTORE PUSH1 0x1 DUP2 ADD DUP4 ADD SWAP3 POP PUSH1 0x1 DUP2 ADD SWAP1 POP PUSH2 0x16F JUMP JUMPDEST POP DUP3 SWAP4 POP POP POP POP SWAP2 SWAP1 POP JUMP JUMPDEST PUSH0 DUP1 DUP3 PUSH8 0xFFFFFFFFFFFFFFFF DUP2 GT ISZERO PUSH2 0x1BD JUMPI PUSH2 0x1BC PUSH2 0x4BF JUMP JUMPDEST JUMPDEST PUSH1 0x40 MLOAD SWAP1 DUP1 DUP3 MSTORE DUP1 PUSH1 0x20 MUL PUSH1 0x20 ADD DUP3 ADD PUSH1 0x40 MSTORE DUP1 ISZERO PUSH2 0x1EB JUMPI DUP2 PUSH1 0x20 ADD PUSH1 0x20 DUP3 MUL DUP1 CALLDATASIZE DUP4 CALLDATACOPY DUP1 DUP3 ADD SWAP2 POP POP SWAP1 POP JUMPDEST POP SWAP1 POP PUSH0 PUSH1 0x20 DUP3 ADD PUSH0 JUMPDEST DUP6 DUP2 LT ISZERO PUSH2 0x21B JUMPI PUSH1 0x1 DUP2 ADD PUSH1 0x20 DUP3 MUL DUP4 ADD MSTORE PUSH1 0x1 DUP2 ADD DUP4 ADD SWAP3 POP PUSH1 0x1 DUP2 ADD SWAP1 POP PUSH2 0x1F5 JUMP JUMPDEST POP POP DUP1 SWAP3 POP POP POP SWAP2 SWAP1 POP JUMP JUMPDEST PUSH1 0x60 PUSH0 DUP3 PUSH8 0xFFFFFFFFFFFFFFFF DUP2 GT ISZERO PUSH2 0x244 JUMPI PUSH2 0x243 PUSH2 0x4BF JUMP JUMPDEST JUMPDEST PUSH1 0x40 MLOAD SWAP1 DUP1 DUP3 MSTORE DUP1 PUSH1 0x20 MUL PUSH1 0x20 ADD DUP3 ADD PUSH1 0x40 MSTORE DUP1 ISZERO PUSH2 0x272 JUMPI DUP2 PUSH1 0x20 ADD PUSH1 0x20 DUP3 MUL DUP1 CALLDATASIZE DUP4 CALLDATACOPY DUP1 DUP3 ADD SWAP2 POP POP SWAP1 POP JUMPDEST POP SWAP1 POP PUSH1 0x20 DUP2 ADD PUSH0 JUMPDEST DUP5 DUP2 LT ISZERO PUSH2 0x299 JUMPI PUSH1 0x1 DUP2 ADD PUSH1 0x20 DUP3 MUL DUP4 ADD MSTORE PUSH1 0x1 DUP2 ADD SWAP1 POP PUSH2 0x27B JUMP JUMPDEST POP POP DUP1 SWAP2 POP POP SWAP2 SWAP1 POP JUMP JUMPDEST PUSH1 0x40 MLOAD DUP1 PUSH1 0x80 ADD PUSH1 0x40 MSTORE DUP1 PUSH1 0x4 SWAP1 PUSH1 0x20 DUP3 MUL DUP1 CALLDATASIZE DUP4 CALLDATACOPY DUP1 DUP3 ADD SWAP2 POP POP SWAP1 POP POP SWAP1 JUMP JUMPDEST PUSH0 DUP1 REVERT JUMPDEST PUSH0 DUP2 SWAP1 POP SWAP2 SWAP1 POP JUMP JUMPDEST PUSH2 0x2DC DUP2 PUSH2 0x2CA JUMP JUMPDEST DUP2 EQ PUSH2 0x2E6 JUMPI PUSH0 DUP1 REVERT JUMPDEST POP JUMP JUMPDEST PUSH0 DUP2 CALLDATALOAD SWAP1 POP PUSH2 0x2F7 DUP2 PUSH2 0x2D3 JUMP JUMPDEST SWAP3 SWAP2 POP POP JUMP JUMPDEST PUSH0 PUSH1 0x20 DUP3 DUP5 SUB SLT ISZERO PUSH2 0x312 JUMPI PUSH2 0x311 PUSH2 0x2C6 JUMP JUMPDEST JUMPDEST PUSH0 PUSH2 0x31F DUP5 DUP3 DUP6 ADD PUSH2 0x2E9 JUMP JUMPDEST SWAP2 POP POP SWAP3 SWAP2 POP POP JUMP JUMPDEST PUSH0 PUSH1 0x4 SWAP1 POP SWAP2 SWAP1 POP JUMP JUMPDEST PUSH0 DUP2 SWAP1 POP SWAP3 SWAP2 POP POP JUMP JUMPDEST PUSH0 DUP2 SWAP1 POP SWAP2 SWAP1 POP JUMP JUMPDEST PUSH2 0x34E DUP2 PUSH2 0x2CA JUMP JUMPDEST DUP3 MSTORE POP POP JUMP JUMPDEST PUSH0 PUSH2 0x35F DUP4 DUP4 PUSH2 0x345 JUMP JUMPDEST PUSH1 0x20 DUP4 ADD SWAP1 POP SWAP3 SWAP2 POP POP JUMP JUMPDEST PUSH0 PUSH1 0x20 DUP3 ADD SWAP1 POP SWAP2 SWAP1 POP JUMP JUMPDEST PUSH2 0x380 DUP2 PUSH2 0x328 JUMP JUMPDEST PUSH2 0x38A DUP2 DUP5 PUSH2 0x332 JUMP JUMPDEST SWAP3 POP PUSH2 0x395 DUP3 PUSH2 0x33C JUMP JUMPDEST DUP1 PUSH0 JUMPDEST DUP4 DUP2 LT ISZERO PUSH2 0x3C5 JUMPI DUP2 MLOAD PUSH2 0x3AC DUP8 DUP3 PUSH2 0x354 JUMP JUMPDEST SWAP7 POP PUSH2 0x3B7 DUP4 PUSH2 0x36B JUMP JUMPDEST SWAP3 POP POP PUSH1 0x1 DUP2 ADD SWAP1 POP PUSH2 0x398 JUMP JUMPDEST POP POP POP POP POP POP JUMP JUMPDEST PUSH0 PUSH1 0x80 DUP3 ADD SWAP1 POP PUSH2 0x3E0 PUSH0 DUP4 ADD DUP5 PUSH2 0x377 JUMP JUMPDEST SWAP3 SWAP2 POP POP JUMP JUMPDEST PUSH2 0x3EF DUP2 PUSH2 0x2CA JUMP JUMPDEST DUP3 MSTORE POP POP JUMP JUMPDEST PUSH0 PUSH1 0x20 DUP3 ADD SWAP1 POP PUSH2 0x408 PUSH0 DUP4 ADD DUP5 PUSH2 0x3E6 JUMP JUMPDEST SWAP3 SWAP2 POP POP JUMP JUMPDEST PUSH0 DUP2 MLOAD SWAP1 POP SWAP2 SWAP1 POP JUMP JUMPDEST PUSH0 DUP3 DUP3 MSTORE PUSH1 0x20 DUP3 ADD SWAP1 POP SWAP3 SWAP2 POP POP JUMP JUMPDEST PUSH0 DUP2 SWAP1 POP PUSH1 0x20 DUP3 ADD SWAP1 POP SWAP2 SWAP1 POP JUMP JUMPDEST PUSH0 PUSH1 0x20 DUP3 ADD SWAP1 POP SWAP2 SWAP1 POP JUMP JUMPDEST PUSH0 PUSH2 0x44D DUP3 PUSH2 0x40E JUMP JUMPDEST PUSH2 0x457 DUP2 DUP6 PUSH2 0x418 JUMP JUMPDEST SWAP4 POP PUSH2 0x462 DUP4 PUSH2 0x428 JUMP JUMPDEST DUP1 PUSH0 JUMPDEST DUP4 DUP2 LT ISZERO PUSH2 0x492 JUMPI DUP2 MLOAD PUSH2 0x479 DUP9 DUP3 PUSH2 0x354 JUMP JUMPDEST SWAP8 POP PUSH2 0x484 DUP4 PUSH2 0x437 JUMP JUMPDEST SWAP3 POP POP PUSH1 0x1 DUP2 ADD SWAP1 POP PUSH2 0x465 JUMP JUMPDEST POP DUP6 SWAP4 POP POP POP POP SWAP3 SWAP2 POP POP JUMP JUMPDEST PUSH0 PUSH1 0x20 DUP3 ADD SWAP1 POP DUP2 DUP2 SUB PUSH0 DUP4 ADD MSTORE PUSH2 0x4B7 DUP2 DUP5 PUSH2 0x443 JUMP JUMPDEST SWAP1 POP SWAP3 SWAP2 POP POP JUMP JUMPDEST PUSH32 0x4E487B7100000000000000000000000000000000000000000000000000000000 PUSH0 MSTORE PUSH1 0x41 PUSH1 0x4 MSTORE PUSH1 0x24 PUSH0 REVERT INVALID LOG2 PUSH5 0x6970667358 0x22 SLT KECCAK256 0xC8 PUSH20 0x4806DB12A78DC55F8DBD1AD108037A5B51AA400C DUP7 POP 0xED BALANCE SWAP10 0xD0 0xDE SELFBALANCE CREATE2 INVALID PUSH5 0x736F6C6343 STOP ADDMOD NOT STOP CALLER "
		},
		"gasEstimates": {
			"creation": {
				"codeDepositCost": "262800",
				"executionCost": "304",
				"totalCost": "263104"
			},
			"external": {
				"setNum(uint256)": "infinite",
				"setNum2(uint256)": "infinite",
				"setNum2Sum(uint256)": "infinite",
				"setNumSum(uint256)": "infinite"
			}
		},
		"methodIdentifiers": {
			"setNum(uint256)": "cd16ecbf",
			"setNum2(uint256)": "4a3672c3",
			"setNum2Sum(uint256)": "57d4f2be",
			"setNumSum(uint256)": "c7ae8e33"
		}
	},
	"abi": [
		{
			"inputs": [
				{
					"internalType": "uint256",
					"name": "_n",
					"type": "uint256"
				}
			],
			"name": "setNum",
			"outputs": [
				{
					"internalType": "uint256[]",
					"name": "",
					"type": "uint256[]"
				}
			],
			"stateMutability": "pure",
			"type": "function"
		},
		{
			"inputs": [
				{
					"internalType": "uint256",
					"name": "_n",
					"type": "uint256"
				}
			],
			"name": "setNum2",
			"outputs": [
				{
					"internalType": "uint256[4]",
					"name": "",
					"type": "uint256[4]"
				}
			],
			"stateMutability": "pure",
			"type": "function"
		},
		{
			"inputs": [
				{
					"internalType": "uint256",
					"name": "_n",
					"type": "uint256"
				}
			],
			"name": "setNum2Sum",
			"outputs": [
				{
					"internalType": "uint256[4]",
					"name": "",
					"type": "uint256[4]"
				}
			],
			"stateMutability": "pure",
			"type": "function"
		},
		{
			"inputs": [
				{
					"internalType": "uint256",
					"name": "_n",
					"type": "uint256"
				}
			],
			"name": "setNumSum",
			"outputs": [
				{
					"internalType": "uint256",
					"name": "",
					"type": "uint256"
				}
			],
			"stateMutability": "pure",
			"type": "function"
		}
	]
}