{
	"data": {
		"bytecode": {
			"linkReferences": {},
			"object": "6080604052348015600e575f80fd5b506108178061001c5f395ff3fe608060405234801561000f575f80fd5b5060043610610034575f3560e01c806394e619ab14610038578063a3908e1b14610068575b5f80fd5b610052600480360381019061004d9190610497565b610098565b60405161005f91906104f6565b60405180910390f35b610082600480360381019061007d9190610539565b6100a7565b60405161008f91906104f6565b60405180910390f35b5f808290508051915050919050565b5f60605f6100b48461012f565b91506100bf82610098565b90505f5b818111610124575f81836100d79190610591565b600a6100e391906106f3565b866100ee919061076a565b908060018154018082558091505060019003905f5260205f20015f9091909190915055808061011c9061079a565b9150506100c3565b508092505050919050565b60605f600161013d846101f9565b0190505f8167ffffffffffffffff81111561015b5761015a610373565b5b6040519080825280601f01601f19166020018201604052801561018d5781602001600182028036833780820191505090505b5090505f82602001820190505b6001156101ee578080600190039150507f3031323334353637383961626364656600000000000000000000000000000000600a86061a8153600a85816101e3576101e261073d565b5b0494505f850361019a575b819350505050919050565b5f805f90507a184f03e93ff9f4daa797ed6e38ed64bf6a1f0100000000000000008310610255577a184f03e93ff9f4daa797ed6e38ed64bf6a1f010000000000000000838161024b5761024a61073d565b5b0492506040810190505b6d04ee2d6d415b85acef81000000008310610292576d04ee2d6d415b85acef810000000083816102885761028761073d565b5b0492506020810190505b662386f26fc1000083106102c157662386f26fc1000083816102b7576102b661073d565b5b0492506010810190505b6305f5e10083106102ea576305f5e10083816102e0576102df61073d565b5b0492506008810190505b612710831061030f5761271083816103055761030461073d565b5b0492506004810190505b6064831061033257606483816103285761032761073d565b5b0492506002810190505b600a8310610341576001810190505b80915050919050565b5f604051905090565b5f80fd5b5f80fd5b5f80fd5b5f80fd5b5f601f19601f8301169050919050565b7f4e487b71000000000000000000000000000000000000000000000000000000005f52604160045260245ffd5b6103a982610363565b810181811067ffffffffffffffff821117156103c8576103c7610373565b5b80604052505050565b5f6103da61034a565b90506103e682826103a0565b919050565b5f67ffffffffffffffff82111561040557610404610373565b5b61040e82610363565b9050602081019050919050565b828183375f83830152505050565b5f61043b610436846103eb565b6103d1565b9050828152602081018484840111156104575761045661035f565b5b61046284828561041b565b509392505050565b5f82601f83011261047e5761047d61035b565b5b813561048e848260208601610429565b91505092915050565b5f602082840312156104ac576104ab610353565b5b5f82013567ffffffffffffffff8111156104c9576104c8610357565b5b6104d58482850161046a565b91505092915050565b5f819050919050565b6104f0816104de565b82525050565b5f6020820190506105095f8301846104e7565b92915050565b610518816104de565b8114610522575f80fd5b50565b5f813590506105338161050f565b92915050565b5f6020828403121561054e5761054d610353565b5b5f61055b84828501610525565b91505092915050565b7f4e487b71000000000000000000000000000000000000000000000000000000005f52601160045260245ffd5b5f61059b826104de565b91506105a6836104de565b92508282039050818111156105be576105bd610564565b5b92915050565b5f8160011c9050919050565b5f808291508390505b6001851115610619578086048111156105f5576105f4610564565b5b60018516156106045780820291505b8081029050610612856105c4565b94506105d9565b94509492505050565b5f8261063157600190506106ec565b8161063e575f90506106ec565b8160018114610654576002811461065e5761068d565b60019150506106ec565b60ff8411156106705761066f610564565b5b8360020a91508482111561068757610686610564565b5b506106ec565b5060208310610133831016604e8410600b84101617156106c25782820a9050838111156106bd576106bc610564565b5b6106ec565b6106cf84848460016105d0565b925090508184048111156106e6576106e5610564565b5b81810290505b9392505050565b5f6106fd826104de565b9150610708836104de565b92506107357fffffffffffffffffffffffffffffffffffffffffffffffffffffffffffffffff8484610622565b905092915050565b7f4e487b71000000000000000000000000000000000000000000000000000000005f52601260045260245ffd5b5f610774826104de565b915061077f836104de565b92508261078f5761078e61073d565b5b828204905092915050565b5f6107a4826104de565b91507fffffffffffffffffffffffffffffffffffffffffffffffffffffffffffffffff82036107d6576107d5610564565b5b60018201905091905056fea264697066735822122022edf61f7ce37c2c699b36c7b1db7fc3e143ce076bb8a5d0d89cb30d2d0a982964736f6c63430008190033",
			"opcodes": "PUSH1 0x80 PUSH1 0x40 MSTORE CALLVALUE DUP1 ISZERO PUSH1 0xE JUMPI PUSH0 DUP1 REVERT JUMPDEST POP PUSH2 0x817 DUP1 PUSH2 0x1C PUSH0 CODECOPY PUSH0 RETURN INVALID PUSH1 0x80 PUSH1 0x40 MSTORE CALLVALUE DUP1 ISZERO PUSH2 0xF JUMPI PUSH0 DUP1 REVERT JUMPDEST POP PUSH1 0x4 CALLDATASIZE LT PUSH2 0x34 JUMPI PUSH0 CALLDATALOAD PUSH1 0xE0 SHR DUP1 PUSH4 0x94E619AB EQ PUSH2 0x38 JUMPI DUP1 PUSH4 0xA3908E1B EQ PUSH2 0x68 JUMPI JUMPDEST PUSH0 DUP1 REVERT JUMPDEST PUSH2 0x52 PUSH1 0x4 DUP1 CALLDATASIZE SUB DUP2 ADD SWAP1 PUSH2 0x4D SWAP2 SWAP1 PUSH2 0x497 JUMP JUMPDEST PUSH2 0x98 JUMP JUMPDEST PUSH1 0x40 MLOAD PUSH2 0x5F SWAP2 SWAP1 PUSH2 0x4F6 JUMP JUMPDEST PUSH1 0x40 MLOAD DUP1 SWAP2 SUB SWAP1 RETURN JUMPDEST PUSH2 0x82 PUSH1 0x4 DUP1 CALLDATASIZE SUB DUP2 ADD SWAP1 PUSH2 0x7D SWAP2 SWAP1 PUSH2 0x539 JUMP JUMPDEST PUSH2 0xA7 JUMP JUMPDEST PUSH1 0x40 MLOAD PUSH2 0x8F SWAP2 SWAP1 PUSH2 0x4F6 JUMP JUMPDEST PUSH1 0x40 MLOAD DUP1 SWAP2 SUB SWAP1 RETURN JUMPDEST PUSH0 DUP1 DUP3 SWAP1 POP DUP1 MLOAD SWAP2 POP POP SWAP2 SWAP1 POP JUMP JUMPDEST PUSH0 PUSH1 0x60 PUSH0 PUSH2 0xB4 DUP5 PUSH2 0x12F JUMP JUMPDEST SWAP2 POP PUSH2 0xBF DUP3 PUSH2 0x98 JUMP JUMPDEST SWAP1 POP PUSH0 JUMPDEST DUP2 DUP2 GT PUSH2 0x124 JUMPI PUSH0 DUP2 DUP4 PUSH2 0xD7 SWAP2 SWAP1 PUSH2 0x591 JUMP JUMPDEST PUSH1 0xA PUSH2 0xE3 SWAP2 SWAP1 PUSH2 0x6F3 JUMP JUMPDEST DUP7 PUSH2 0xEE SWAP2 SWAP1 PUSH2 0x76A JUMP JUMPDEST SWAP1 DUP1 PUSH1 0x1 DUP2 SLOAD ADD DUP1 DUP3 SSTORE DUP1 SWAP2 POP POP PUSH1 0x1 SWAP1 SUB SWAP1 PUSH0 MSTORE PUSH1 0x20 PUSH0 KECCAK256 ADD PUSH0 SWAP1 SWAP2 SWAP1 SWAP2 SWAP1 SWAP2 POP SSTORE DUP1 DUP1 PUSH2 0x11C SWAP1 PUSH2 0x79A JUMP JUMPDEST SWAP2 POP POP PUSH2 0xC3 JUMP JUMPDEST POP DUP1 SWAP3 POP POP POP SWAP2 SWAP1 POP JUMP JUMPDEST PUSH1 0x60 PUSH0 PUSH1 0x1 PUSH2 0x13D DUP5 PUSH2 0x1F9 JUMP JUMPDEST ADD SWAP1 POP PUSH0 DUP2 PUSH8 0xFFFFFFFFFFFFFFFF DUP2 GT ISZERO PUSH2 0x15B JUMPI PUSH2 0x15A PUSH2 0x373 JUMP JUMPDEST JUMPDEST PUSH1 0x40 MLOAD SWAP1 DUP1 DUP3 MSTORE DUP1 PUSH1 0x1F ADD PUSH1 0x1F NOT AND PUSH1 0x20 ADD DUP3 ADD PUSH1 0x40 MSTORE DUP1 ISZERO PUSH2 0x18D JUMPI DUP2 PUSH1 0x20 ADD PUSH1 0x1 DUP3 MUL DUP1 CALLDATASIZE DUP4 CALLDATACOPY DUP1 DUP3 ADD SWAP2 POP POP SWAP1 POP JUMPDEST POP SWAP1 POP PUSH0 DUP3 PUSH1 0x20 ADD DUP3 ADD SWAP1 POP JUMPDEST PUSH1 0x1 ISZERO PUSH2 0x1EE JUMPI DUP1 DUP1 PUSH1 0x1 SWAP1 SUB SWAP2 POP POP PUSH32 0x3031323334353637383961626364656600000000000000000000000000000000 PUSH1 0xA DUP7 MOD BYTE DUP2 MSTORE8 PUSH1 0xA DUP6 DUP2 PUSH2 0x1E3 JUMPI PUSH2 0x1E2 PUSH2 0x73D JUMP JUMPDEST JUMPDEST DIV SWAP5 POP PUSH0 DUP6 SUB PUSH2 0x19A JUMPI JUMPDEST DUP2 SWAP4 POP POP POP POP SWAP2 SWAP1 POP JUMP JUMPDEST PUSH0 DUP1 PUSH0 SWAP1 POP PUSH27 0x184F03E93FF9F4DAA797ED6E38ED64BF6A1F010000000000000000 DUP4 LT PUSH2 0x255 JUMPI PUSH27 0x184F03E93FF9F4DAA797ED6E38ED64BF6A1F010000000000000000 DUP4 DUP2 PUSH2 0x24B JUMPI PUSH2 0x24A PUSH2 0x73D JUMP JUMPDEST JUMPDEST DIV SWAP3 POP PUSH1 0x40 DUP2 ADD SWAP1 POP JUMPDEST PUSH14 0x4EE2D6D415B85ACEF8100000000 DUP4 LT PUSH2 0x292 JUMPI PUSH14 0x4EE2D6D415B85ACEF8100000000 DUP4 DUP2 PUSH2 0x288 JUMPI PUSH2 0x287 PUSH2 0x73D JUMP JUMPDEST JUMPDEST DIV SWAP3 POP PUSH1 0x20 DUP2 ADD SWAP1 POP JUMPDEST PUSH7 0x2386F26FC10000 DUP4 LT PUSH2 0x2C1 JUMPI PUSH7 0x2386F26FC10000 DUP4 DUP2 PUSH2 0x2B7 JUMPI PUSH2 0x2B6 PUSH2 0x73D JUMP JUMPDEST JUMPDEST DIV SWAP3 POP PUSH1 0x10 DUP2 ADD SWAP1 POP JUMPDEST PUSH4 0x5F5E100 DUP4 LT PUSH2 0x2EA JUMPI PUSH4 0x5F5E100 DUP4 DUP2 PUSH2 0x2E0 JUMPI PUSH2 0x2DF PUSH2 0x73D JUMP JUMPDEST JUMPDEST DIV SWAP3 POP PUSH1 0x8 DUP2 ADD SWAP1 POP JUMPDEST PUSH2 0x2710 DUP4 LT PUSH2 0x30F JUMPI PUSH2 0x2710 DUP4 DUP2 PUSH2 0x305 JUMPI PUSH2 0x304 PUSH2 0x73D JUMP JUMPDEST JUMPDEST DIV SWAP3 POP PUSH1 0x4 DUP2 ADD SWAP1 POP JUMPDEST PUSH1 0x64 DUP4 LT PUSH2 0x332 JUMPI PUSH1 0x64 DUP4 DUP2 PUSH2 0x328 JUMPI PUSH2 0x327 PUSH2 0x73D JUMP JUMPDEST JUMPDEST DIV SWAP3 POP PUSH1 0x2 DUP2 ADD SWAP1 POP JUMPDEST PUSH1 0xA DUP4 LT PUSH2 0x341 JUMPI PUSH1 0x1 DUP2 ADD SWAP1 POP JUMPDEST DUP1 SWAP2 POP POP SWAP2 SWAP1 POP JUMP JUMPDEST PUSH0 PUSH1 0x40 MLOAD SWAP1 POP SWAP1 JUMP JUMPDEST PUSH0 DUP1 REVERT JUMPDEST PUSH0 DUP1 REVERT JUMPDEST PUSH0 DUP1 REVERT JUMPDEST PUSH0 DUP1 REVERT JUMPDEST PUSH0 PUSH1 0x1F NOT PUSH1 0x1F DUP4 ADD AND SWAP1 POP SWAP2 SWAP1 POP JUMP JUMPDEST PUSH32 0x4E487B7100000000000000000000000000000000000000000000000000000000 PUSH0 MSTORE PUSH1 0x41 PUSH1 0x4 MSTORE PUSH1 0x24 PUSH0 REVERT JUMPDEST PUSH2 0x3A9 DUP3 PUSH2 0x363 JUMP JUMPDEST DUP2 ADD DUP2 DUP2 LT PUSH8 0xFFFFFFFFFFFFFFFF DUP3 GT OR ISZERO PUSH2 0x3C8 JUMPI PUSH2 0x3C7 PUSH2 0x373 JUMP JUMPDEST JUMPDEST DUP1 PUSH1 0x40 MSTORE POP POP POP JUMP JUMPDEST PUSH0 PUSH2 0x3DA PUSH2 0x34A JUMP JUMPDEST SWAP1 POP PUSH2 0x3E6 DUP3 DUP3 PUSH2 0x3A0 JUMP JUMPDEST SWAP2 SWAP1 POP JUMP JUMPDEST PUSH0 PUSH8 0xFFFFFFFFFFFFFFFF DUP3 GT ISZERO PUSH2 0x405 JUMPI PUSH2 0x404 PUSH2 0x373 JUMP JUMPDEST JUMPDEST PUSH2 0x40E DUP3 PUSH2 0x363 JUMP JUMPDEST SWAP1 POP PUSH1 0x20 DUP2 ADD SWAP1 POP SWAP2 SWAP1 POP JUMP JUMPDEST DUP3 DUP2 DUP4 CALLDATACOPY PUSH0 DUP4 DUP4 ADD MSTORE POP POP POP JUMP JUMPDEST PUSH0 PUSH2 0x43B PUSH2 0x436 DUP5 PUSH2 0x3EB JUMP JUMPDEST PUSH2 0x3D1 JUMP JUMPDEST SWAP1 POP DUP3 DUP2 MSTORE PUSH1 0x20 DUP2 ADD DUP5 DUP5 DUP5 ADD GT ISZERO PUSH2 0x457 JUMPI PUSH2 0x456 PUSH2 0x35F JUMP JUMPDEST JUMPDEST PUSH2 0x462 DUP5 DUP3 DUP6 PUSH2 0x41B JUMP JUMPDEST POP SWAP4 SWAP3 POP POP POP JUMP JUMPDEST PUSH0 DUP3 PUSH1 0x1F DUP4 ADD SLT PUSH2 0x47E JUMPI PUSH2 0x47D PUSH2 0x35B JUMP JUMPDEST JUMPDEST DUP2 CALLDATALOAD PUSH2 0x48E DUP5 DUP3 PUSH1 0x20 DUP7 ADD PUSH2 0x429 JUMP JUMPDEST SWAP2 POP POP SWAP3 SWAP2 POP POP JUMP JUMPDEST PUSH0 PUSH1 0x20 DUP3 DUP5 SUB SLT ISZERO PUSH2 0x4AC JUMPI PUSH2 0x4AB PUSH2 0x353 JUMP JUMPDEST JUMPDEST PUSH0 DUP3 ADD CALLDATALOAD PUSH8 0xFFFFFFFFFFFFFFFF DUP2 GT ISZERO PUSH2 0x4C9 JUMPI PUSH2 0x4C8 PUSH2 0x357 JUMP JUMPDEST JUMPDEST PUSH2 0x4D5 DUP5 DUP3 DUP6 ADD PUSH2 0x46A JUMP JUMPDEST SWAP2 POP POP SWAP3 SWAP2 POP POP JUMP JUMPDEST PUSH0 DUP2 SWAP1 POP SWAP2 SWAP1 POP JUMP JUMPDEST PUSH2 0x4F0 DUP2 PUSH2 0x4DE JUMP JUMPDEST DUP3 MSTORE POP POP JUMP JUMPDEST PUSH0 PUSH1 0x20 DUP3 ADD SWAP1 POP PUSH2 0x509 PUSH0 DUP4 ADD DUP5 PUSH2 0x4E7 JUMP JUMPDEST SWAP3 SWAP2 POP POP JUMP JUMPDEST PUSH2 0x518 DUP2 PUSH2 0x4DE JUMP JUMPDEST DUP2 EQ PUSH2 0x522 JUMPI PUSH0 DUP1 REVERT JUMPDEST POP JUMP JUMPDEST PUSH0 DUP2 CALLDATALOAD SWAP1 POP PUSH2 0x533 DUP2 PUSH2 0x50F JUMP JUMPDEST SWAP3 SWAP2 POP POP JUMP JUMPDEST PUSH0 PUSH1 0x20 DUP3 DUP5 SUB SLT ISZERO PUSH2 0x54E JUMPI PUSH2 0x54D PUSH2 0x353 JUMP JUMPDEST JUMPDEST PUSH0 PUSH2 0x55B DUP5 DUP3 DUP6 ADD PUSH2 0x525 JUMP JUMPDEST SWAP2 POP POP SWAP3 SWAP2 POP POP JUMP JUMPDEST PUSH32 0x4E487B7100000000000000000000000000000000000000000000000000000000 PUSH0 MSTORE PUSH1 0x11 PUSH1 0x4 MSTORE PUSH1 0x24 PUSH0 REVERT JUMPDEST PUSH0 PUSH2 0x59B DUP3 PUSH2 0x4DE JUMP JUMPDEST SWAP2 POP PUSH2 0x5A6 DUP4 PUSH2 0x4DE JUMP JUMPDEST SWAP3 POP DUP3 DUP3 SUB SWAP1 POP DUP2 DUP2 GT ISZERO PUSH2 0x5BE JUMPI PUSH2 0x5BD PUSH2 0x564 JUMP JUMPDEST JUMPDEST SWAP3 SWAP2 POP POP JUMP JUMPDEST PUSH0 DUP2 PUSH1 0x1 SHR SWAP1 POP SWAP2 SWAP1 POP JUMP JUMPDEST PUSH0 DUP1 DUP3 SWAP2 POP DUP4 SWAP1 POP JUMPDEST PUSH1 0x1 DUP6 GT ISZERO PUSH2 0x619 JUMPI DUP1 DUP7 DIV DUP2 GT ISZERO PUSH2 0x5F5 JUMPI PUSH2 0x5F4 PUSH2 0x564 JUMP JUMPDEST JUMPDEST PUSH1 0x1 DUP6 AND ISZERO PUSH2 0x604 JUMPI DUP1 DUP3 MUL SWAP2 POP JUMPDEST DUP1 DUP2 MUL SWAP1 POP PUSH2 0x612 DUP6 PUSH2 0x5C4 JUMP JUMPDEST SWAP5 POP PUSH2 0x5D9 JUMP JUMPDEST SWAP5 POP SWAP5 SWAP3 POP POP POP JUMP JUMPDEST PUSH0 DUP3 PUSH2 0x631 JUMPI PUSH1 0x1 SWAP1 POP PUSH2 0x6EC JUMP JUMPDEST DUP2 PUSH2 0x63E JUMPI PUSH0 SWAP1 POP PUSH2 0x6EC JUMP JUMPDEST DUP2 PUSH1 0x1 DUP2 EQ PUSH2 0x654 JUMPI PUSH1 0x2 DUP2 EQ PUSH2 0x65E JUMPI PUSH2 0x68D JUMP JUMPDEST PUSH1 0x1 SWAP2 POP POP PUSH2 0x6EC JUMP JUMPDEST PUSH1 0xFF DUP5 GT ISZERO PUSH2 0x670 JUMPI PUSH2 0x66F PUSH2 0x564 JUMP JUMPDEST JUMPDEST DUP4 PUSH1 0x2 EXP SWAP2 POP DUP5 DUP3 GT ISZERO PUSH2 0x687 JUMPI PUSH2 0x686 PUSH2 0x564 JUMP JUMPDEST JUMPDEST POP PUSH2 0x6EC JUMP JUMPDEST POP PUSH1 0x20 DUP4 LT PUSH2 0x133 DUP4 LT AND PUSH1 0x4E DUP5 LT PUSH1 0xB DUP5 LT AND OR ISZERO PUSH2 0x6C2 JUMPI DUP3 DUP3 EXP SWAP1 POP DUP4 DUP2 GT ISZERO PUSH2 0x6BD JUMPI PUSH2 0x6BC PUSH2 0x564 JUMP JUMPDEST JUMPDEST PUSH2 0x6EC JUMP JUMPDEST PUSH2 0x6CF DUP5 DUP5 DUP5 PUSH1 0x1 PUSH2 0x5D0 JUMP JUMPDEST SWAP3 POP SWAP1 POP DUP2 DUP5 DIV DUP2 GT ISZERO PUSH2 0x6E6 JUMPI PUSH2 0x6E5 PUSH2 0x564 JUMP JUMPDEST JUMPDEST DUP2 DUP2 MUL SWAP1 POP JUMPDEST SWAP4 SWAP3 POP POP POP JUMP JUMPDEST PUSH0 PUSH2 0x6FD DUP3 PUSH2 0x4DE JUMP JUMPDEST SWAP2 POP PUSH2 0x708 DUP4 PUSH2 0x4DE JUMP JUMPDEST SWAP3 POP PUSH2 0x735 PUSH32 0xFFFFFFFFFFFFFFFFFFFFFFFFFFFFFFFFFFFFFFFFFFFFFFFFFFFFFFFFFFFFFFFF DUP5 DUP5 PUSH2 0x622 JUMP JUMPDEST SWAP1 POP SWAP3 SWAP2 POP POP JUMP JUMPDEST PUSH32 0x4E487B7100000000000000000000000000000000000000000000000000000000 PUSH0 MSTORE PUSH1 0x12 PUSH1 0x4 MSTORE PUSH1 0x24 PUSH0 REVERT JUMPDEST PUSH0 PUSH2 0x774 DUP3 PUSH2 0x4DE JUMP JUMPDEST SWAP2 POP PUSH2 0x77F DUP4 PUSH2 0x4DE JUMP JUMPDEST SWAP3 POP DUP3 PUSH2 0x78F JUMPI PUSH2 0x78E PUSH2 0x73D JUMP JUMPDEST JUMPDEST DUP3 DUP3 DIV SWAP1 POP SWAP3 SWAP2 POP POP JUMP JUMPDEST PUSH0 PUSH2 0x7A4 DUP3 PUSH2 0x4DE JUMP JUMPDEST SWAP2 POP PUSH32 0xFFFFFFFFFFFFFFFFFFFFFFFFFFFFFFFFFFFFFFFFFFFFFFFFFFFFFFFFFFFFFFFF DUP3 SUB PUSH2 0x7D6 JUMPI PUSH2 0x7D5 PUSH2 0x564 JUMP JUMPDEST JUMPDEST PUSH1 0x1 DUP3 ADD SWAP1 POP SWAP2 SWAP1 POP JUMP INVALID LOG2 PUSH5 0x6970667358 0x22 SLT KECCAK256 0x22 0xED 0xF6 0x1F PUSH29 0xE37C2C699B36C7B1DB7FC3E143CE076BB8A5D0D89CB30D2D0A98296473 PUSH16 0x6C634300081900330000000000000000 "
		},
		"gasEstimates": {
			"creation": {
				"codeDepositCost": "414200",
				"executionCost": "447",
				"totalCost": "414647"
			},
			"external": {
				"convert(uint256)": "infinite",
				"getNum(string)": "infinite"
			}
		},
		"methodIdentifiers": {
			"convert(uint256)": "a3908e1b",
			"getNum(string)": "94e619ab"
		}
	},
	"abi": [
		{
			"inputs": [
				{
					"internalType": "uint256",
					"name": "_n",
					"type": "uint256"
				}
			],
			"name": "convert",
			"outputs": [
				{
					"internalType": "uint256",
					"name": "",
					"type": "uint256"
				}
			],
			"stateMutability": "nonpayable",
			"type": "function"
		},
		{
			"inputs": [
				{
					"internalType": "string",
					"name": "_a",
					"type": "string"
				}
			],
			"name": "getNum",
			"outputs": [
				{
					"internalType": "uint256",
					"name": "",
					"type": "uint256"
				}
			],
			"stateMutability": "pure",
			"type": "function"
		}
	]
}