{
	"data": {
		"bytecode": {
			"linkReferences": {},
			"object": "6080604052348015600e575f80fd5b50425f8190555061034d806100225f395ff3fe608060405260043610610033575f3560e01c806316ada547146100375780633263a0c114610061578063cf2259ce1461007f575b5f80fd5b348015610042575f80fd5b5061004b6100a9565b6040516100589190610188565b60405180910390f35b6100696100ae565b6040516100769190610188565b60405180910390f35b34801561008a575f80fd5b50610093610158565b6040516100a09190610188565b60405180910390f35b5f5481565b5f806100b8610158565b90505f603c611c20836100cb91906101ce565b6100d5919061022e565b90505f611c208311156100f65760c8826100ef919061025e565b90506100fa565b5f90505b5f810361010c575f9350505050610155565b80341461014e576040517f08c379a0000000000000000000000000000000000000000000000000000000008152600401610145906102f9565b60405180910390fd5b8093505050505b90565b5f805f544261016791906101ce565b90508091505090565b5f819050919050565b61018281610170565b82525050565b5f60208201905061019b5f830184610179565b92915050565b7f4e487b71000000000000000000000000000000000000000000000000000000005f52601160045260245ffd5b5f6101d882610170565b91506101e383610170565b92508282039050818111156101fb576101fa6101a1565b5b92915050565b7f4e487b71000000000000000000000000000000000000000000000000000000005f52601260045260245ffd5b5f61023882610170565b915061024383610170565b92508261025357610252610201565b5b828204905092915050565b5f61026882610170565b915061027383610170565b925082820261028181610170565b91508282048414831517610298576102976101a1565b5b5092915050565b5f82825260208201905092915050565b7f706179207061726b0000000000000000000000000000000000000000000000005f82015250565b5f6102e360088361029f565b91506102ee826102af565b602082019050919050565b5f6020820190508181035f830152610310816102d7565b905091905056fea26469706673582212206f0765103b14ea7893bbed9204e514d75d6f067252cf54052c440d0909ae9aec64736f6c63430008190033",
			"opcodes": "PUSH1 0x80 PUSH1 0x40 MSTORE CALLVALUE DUP1 ISZERO PUSH1 0xE JUMPI PUSH0 DUP1 REVERT JUMPDEST POP TIMESTAMP PUSH0 DUP2 SWAP1 SSTORE POP PUSH2 0x34D DUP1 PUSH2 0x22 PUSH0 CODECOPY PUSH0 RETURN INVALID PUSH1 0x80 PUSH1 0x40 MSTORE PUSH1 0x4 CALLDATASIZE LT PUSH2 0x33 JUMPI PUSH0 CALLDATALOAD PUSH1 0xE0 SHR DUP1 PUSH4 0x16ADA547 EQ PUSH2 0x37 JUMPI DUP1 PUSH4 0x3263A0C1 EQ PUSH2 0x61 JUMPI DUP1 PUSH4 0xCF2259CE EQ PUSH2 0x7F JUMPI JUMPDEST PUSH0 DUP1 REVERT JUMPDEST CALLVALUE DUP1 ISZERO PUSH2 0x42 JUMPI PUSH0 DUP1 REVERT JUMPDEST POP PUSH2 0x4B PUSH2 0xA9 JUMP JUMPDEST PUSH1 0x40 MLOAD PUSH2 0x58 SWAP2 SWAP1 PUSH2 0x188 JUMP JUMPDEST PUSH1 0x40 MLOAD DUP1 SWAP2 SUB SWAP1 RETURN JUMPDEST PUSH2 0x69 PUSH2 0xAE JUMP JUMPDEST PUSH1 0x40 MLOAD PUSH2 0x76 SWAP2 SWAP1 PUSH2 0x188 JUMP JUMPDEST PUSH1 0x40 MLOAD DUP1 SWAP2 SUB SWAP1 RETURN JUMPDEST CALLVALUE DUP1 ISZERO PUSH2 0x8A JUMPI PUSH0 DUP1 REVERT JUMPDEST POP PUSH2 0x93 PUSH2 0x158 JUMP JUMPDEST PUSH1 0x40 MLOAD PUSH2 0xA0 SWAP2 SWAP1 PUSH2 0x188 JUMP JUMPDEST PUSH1 0x40 MLOAD DUP1 SWAP2 SUB SWAP1 RETURN JUMPDEST PUSH0 SLOAD DUP2 JUMP JUMPDEST PUSH0 DUP1 PUSH2 0xB8 PUSH2 0x158 JUMP JUMPDEST SWAP1 POP PUSH0 PUSH1 0x3C PUSH2 0x1C20 DUP4 PUSH2 0xCB SWAP2 SWAP1 PUSH2 0x1CE JUMP JUMPDEST PUSH2 0xD5 SWAP2 SWAP1 PUSH2 0x22E JUMP JUMPDEST SWAP1 POP PUSH0 PUSH2 0x1C20 DUP4 GT ISZERO PUSH2 0xF6 JUMPI PUSH1 0xC8 DUP3 PUSH2 0xEF SWAP2 SWAP1 PUSH2 0x25E JUMP JUMPDEST SWAP1 POP PUSH2 0xFA JUMP JUMPDEST PUSH0 SWAP1 POP JUMPDEST PUSH0 DUP2 SUB PUSH2 0x10C JUMPI PUSH0 SWAP4 POP POP POP POP PUSH2 0x155 JUMP JUMPDEST DUP1 CALLVALUE EQ PUSH2 0x14E JUMPI PUSH1 0x40 MLOAD PUSH32 0x8C379A000000000000000000000000000000000000000000000000000000000 DUP2 MSTORE PUSH1 0x4 ADD PUSH2 0x145 SWAP1 PUSH2 0x2F9 JUMP JUMPDEST PUSH1 0x40 MLOAD DUP1 SWAP2 SUB SWAP1 REVERT JUMPDEST DUP1 SWAP4 POP POP POP POP JUMPDEST SWAP1 JUMP JUMPDEST PUSH0 DUP1 PUSH0 SLOAD TIMESTAMP PUSH2 0x167 SWAP2 SWAP1 PUSH2 0x1CE JUMP JUMPDEST SWAP1 POP DUP1 SWAP2 POP POP SWAP1 JUMP JUMPDEST PUSH0 DUP2 SWAP1 POP SWAP2 SWAP1 POP JUMP JUMPDEST PUSH2 0x182 DUP2 PUSH2 0x170 JUMP JUMPDEST DUP3 MSTORE POP POP JUMP JUMPDEST PUSH0 PUSH1 0x20 DUP3 ADD SWAP1 POP PUSH2 0x19B PUSH0 DUP4 ADD DUP5 PUSH2 0x179 JUMP JUMPDEST SWAP3 SWAP2 POP POP JUMP JUMPDEST PUSH32 0x4E487B7100000000000000000000000000000000000000000000000000000000 PUSH0 MSTORE PUSH1 0x11 PUSH1 0x4 MSTORE PUSH1 0x24 PUSH0 REVERT JUMPDEST PUSH0 PUSH2 0x1D8 DUP3 PUSH2 0x170 JUMP JUMPDEST SWAP2 POP PUSH2 0x1E3 DUP4 PUSH2 0x170 JUMP JUMPDEST SWAP3 POP DUP3 DUP3 SUB SWAP1 POP DUP2 DUP2 GT ISZERO PUSH2 0x1FB JUMPI PUSH2 0x1FA PUSH2 0x1A1 JUMP JUMPDEST JUMPDEST SWAP3 SWAP2 POP POP JUMP JUMPDEST PUSH32 0x4E487B7100000000000000000000000000000000000000000000000000000000 PUSH0 MSTORE PUSH1 0x12 PUSH1 0x4 MSTORE PUSH1 0x24 PUSH0 REVERT JUMPDEST PUSH0 PUSH2 0x238 DUP3 PUSH2 0x170 JUMP JUMPDEST SWAP2 POP PUSH2 0x243 DUP4 PUSH2 0x170 JUMP JUMPDEST SWAP3 POP DUP3 PUSH2 0x253 JUMPI PUSH2 0x252 PUSH2 0x201 JUMP JUMPDEST JUMPDEST DUP3 DUP3 DIV SWAP1 POP SWAP3 SWAP2 POP POP JUMP JUMPDEST PUSH0 PUSH2 0x268 DUP3 PUSH2 0x170 JUMP JUMPDEST SWAP2 POP PUSH2 0x273 DUP4 PUSH2 0x170 JUMP JUMPDEST SWAP3 POP DUP3 DUP3 MUL PUSH2 0x281 DUP2 PUSH2 0x170 JUMP JUMPDEST SWAP2 POP DUP3 DUP3 DIV DUP5 EQ DUP4 ISZERO OR PUSH2 0x298 JUMPI PUSH2 0x297 PUSH2 0x1A1 JUMP JUMPDEST JUMPDEST POP SWAP3 SWAP2 POP POP JUMP JUMPDEST PUSH0 DUP3 DUP3 MSTORE PUSH1 0x20 DUP3 ADD SWAP1 POP SWAP3 SWAP2 POP POP JUMP JUMPDEST PUSH32 0x706179207061726B000000000000000000000000000000000000000000000000 PUSH0 DUP3 ADD MSTORE POP JUMP JUMPDEST PUSH0 PUSH2 0x2E3 PUSH1 0x8 DUP4 PUSH2 0x29F JUMP JUMPDEST SWAP2 POP PUSH2 0x2EE DUP3 PUSH2 0x2AF JUMP JUMPDEST PUSH1 0x20 DUP3 ADD SWAP1 POP SWAP2 SWAP1 POP JUMP JUMPDEST PUSH0 PUSH1 0x20 DUP3 ADD SWAP1 POP DUP2 DUP2 SUB PUSH0 DUP4 ADD MSTORE PUSH2 0x310 DUP2 PUSH2 0x2D7 JUMP JUMPDEST SWAP1 POP SWAP2 SWAP1 POP JUMP INVALID LOG2 PUSH5 0x6970667358 0x22 SLT KECCAK256 PUSH16 0x765103B14EA7893BBED9204E514D75D PUSH16 0x67252CF54052C440D0909AE9AEC6473 PUSH16 0x6C634300081900330000000000000000 "
		},
		"gasEstimates": {
			"creation": {
				"codeDepositCost": "169000",
				"executionCost": "22324",
				"totalCost": "191324"
			},
			"external": {
				"payPark()": "infinite",
				"recordTime()": "infinite",
				"time()": "2402"
			}
		},
		"methodIdentifiers": {
			"payPark()": "3263a0c1",
			"recordTime()": "cf2259ce",
			"time()": "16ada547"
		}
	},
	"abi": [
		{
			"inputs": [],
			"stateMutability": "nonpayable",
			"type": "constructor"
		},
		{
			"inputs": [],
			"name": "payPark",
			"outputs": [
				{
					"internalType": "uint256",
					"name": "",
					"type": "uint256"
				}
			],
			"stateMutability": "payable",
			"type": "function"
		},
		{
			"inputs": [],
			"name": "recordTime",
			"outputs": [
				{
					"internalType": "uint256",
					"name": "",
					"type": "uint256"
				}
			],
			"stateMutability": "view",
			"type": "function"
		},
		{
			"inputs": [],
			"name": "time",
			"outputs": [
				{
					"internalType": "uint256",
					"name": "",
					"type": "uint256"
				}
			],
			"stateMutability": "view",
			"type": "function"
		}
	]
}