{
	"data": {
		"bytecode": {
			"linkReferences": {},
			"object": "6080604052348015600e575f80fd5b50610f438061001c5f395ff3fe608060405234801561000f575f80fd5b5060043610610055575f3560e01c8063642f91631461005957806377dfe54e146100895780639b4d52dd146100a7578063b2b08963146100c3578063f1d064b3146100e2575b5f80fd5b610073600480360381019061006e91906105eb565b610100565b60405161008091906106e2565b60405180910390f35b6100916101e9565b60405161009e91906106e2565b60405180910390f35b6100c160048036038101906100bc919061082e565b610366565b005b6100cb610414565b6040516100d9929190610897565b60405180910390f35b6100ea610489565b6040516100f791906109c6565b60405180910390f35b610108610588565b60036001836101179190610a13565b8154811061012857610127610a46565b5b905f5260205f2090600302016040518060600160405290815f820154815260200160018201805461015890610aa0565b80601f016020809104026020016040519081016040528092919081815260200182805461018490610aa0565b80156101cf5780601f106101a6576101008083540402835291602001916101cf565b820191905f5260205f20905b8154815290600101906020018083116101b257829003601f168201915b505050505081526020016002820154815250509050919050565b6101f1610588565b5f60035f8154811061020657610205610a46565b5b905f5260205f2090600302016002015490505f805b806003805490501115610290576003818154811061023c5761023b610a46565b5b905f5260205f2090600302016002015483111561027d576003818154811061026757610266610a46565b5b905f5260205f2090600302016002015492508091505b808061028890610ad0565b91505061021b565b50600381815481106102a5576102a4610a46565b5b905f5260205f2090600302016040518060600160405290815f82015481526020016001820180546102d590610aa0565b80601f016020809104026020016040519081016040528092919081815260200182805461030190610aa0565b801561034c5780601f106103235761010080835404028352916020019161034c565b820191905f5260205f20905b81548152906001019060200180831161032f57829003601f168201915b505050505081526020016002820154815250509250505090565b604051806060016040528060016003805490506103839190610b17565b8152602001838152602001828152505f80820151815f015560208201518160010190816103b09190610ce7565b506040820151816002015590505060035f908060018154018082558091505060019003905f5260205f2090600302015f909190919091505f820154815f0155600182018160010190816104039190610dcb565b506002820154816002015550505050565b5f805f805f90505b80600380549050111561046d576003818154811061043d5761043c610a46565b5b905f5260205f20906003020160020154826104589190610b17565b9150808061046590610ad0565b91505061041c565b5080600380549050826104809190610edd565b92509250509091565b60606003805480602002602001604051908101604052809291908181526020015f905b8282101561057f578382905f5260205f2090600302016040518060600160405290815f82015481526020016001820180546104e690610aa0565b80601f016020809104026020016040519081016040528092919081815260200182805461051290610aa0565b801561055d5780601f106105345761010080835404028352916020019161055d565b820191905f5260205f20905b81548152906001019060200180831161054057829003601f168201915b50505050508152602001600282015481525050815260200190600101906104ac565b50505050905090565b60405180606001604052805f8152602001606081526020015f81525090565b5f604051905090565b5f80fd5b5f80fd5b5f819050919050565b6105ca816105b8565b81146105d4575f80fd5b50565b5f813590506105e5816105c1565b92915050565b5f60208284031215610600576105ff6105b0565b5b5f61060d848285016105d7565b91505092915050565b61061f816105b8565b82525050565b5f81519050919050565b5f82825260208201905092915050565b8281835e5f83830152505050565b5f601f19601f8301169050919050565b5f61066782610625565b610671818561062f565b935061068181856020860161063f565b61068a8161064d565b840191505092915050565b5f606083015f8301516106aa5f860182610616565b50602083015184820360208601526106c2828261065d565b91505060408301516106d76040860182610616565b508091505092915050565b5f6020820190508181035f8301526106fa8184610695565b905092915050565b5f80fd5b5f80fd5b7f4e487b71000000000000000000000000000000000000000000000000000000005f52604160045260245ffd5b6107408261064d565b810181811067ffffffffffffffff8211171561075f5761075e61070a565b5b80604052505050565b5f6107716105a7565b905061077d8282610737565b919050565b5f67ffffffffffffffff82111561079c5761079b61070a565b5b6107a58261064d565b9050602081019050919050565b828183375f83830152505050565b5f6107d26107cd84610782565b610768565b9050828152602081018484840111156107ee576107ed610706565b5b6107f98482856107b2565b509392505050565b5f82601f83011261081557610814610702565b5b81356108258482602086016107c0565b91505092915050565b5f8060408385031215610844576108436105b0565b5b5f83013567ffffffffffffffff811115610861576108606105b4565b5b61086d85828601610801565b925050602061087e858286016105d7565b9150509250929050565b610891816105b8565b82525050565b5f6040820190506108aa5f830185610888565b6108b76020830184610888565b9392505050565b5f81519050919050565b5f82825260208201905092915050565b5f819050602082019050919050565b5f606083015f8301516108fc5f860182610616565b5060208301518482036020860152610914828261065d565b91505060408301516109296040860182610616565b508091505092915050565b5f61093f83836108e7565b905092915050565b5f602082019050919050565b5f61095d826108be565b61096781856108c8565b935083602082028501610979856108d8565b805f5b858110156109b457848403895281516109958582610934565b94506109a083610947565b925060208a0199505060018101905061097c565b50829750879550505050505092915050565b5f6020820190508181035f8301526109de8184610953565b905092915050565b7f4e487b71000000000000000000000000000000000000000000000000000000005f52601160045260245ffd5b5f610a1d826105b8565b9150610a28836105b8565b9250828203905081811115610a4057610a3f6109e6565b5b92915050565b7f4e487b71000000000000000000000000000000000000000000000000000000005f52603260045260245ffd5b7f4e487b71000000000000000000000000000000000000000000000000000000005f52602260045260245ffd5b5f6002820490506001821680610ab757607f821691505b602082108103610aca57610ac9610a73565b5b50919050565b5f610ada826105b8565b91507fffffffffffffffffffffffffffffffffffffffffffffffffffffffffffffffff8203610b0c57610b0b6109e6565b5b600182019050919050565b5f610b21826105b8565b9150610b2c836105b8565b9250828201905080821115610b4457610b436109e6565b5b92915050565b5f819050815f5260205f209050919050565b5f6020601f8301049050919050565b5f82821b905092915050565b5f60088302610ba67fffffffffffffffffffffffffffffffffffffffffffffffffffffffffffffffff82610b6b565b610bb08683610b6b565b95508019841693508086168417925050509392505050565b5f819050919050565b5f610beb610be6610be1846105b8565b610bc8565b6105b8565b9050919050565b5f819050919050565b610c0483610bd1565b610c18610c1082610bf2565b848454610b77565b825550505050565b5f90565b610c2c610c20565b610c37818484610bfb565b505050565b5b81811015610c5a57610c4f5f82610c24565b600181019050610c3d565b5050565b601f821115610c9f57610c7081610b4a565b610c7984610b5c565b81016020851015610c88578190505b610c9c610c9485610b5c565b830182610c3c565b50505b505050565b5f82821c905092915050565b5f610cbf5f1984600802610ca4565b1980831691505092915050565b5f610cd78383610cb0565b9150826002028217905092915050565b610cf082610625565b67ffffffffffffffff811115610d0957610d0861070a565b5b610d138254610aa0565b610d1e828285610c5e565b5f60209050601f831160018114610d4f575f8415610d3d578287015190505b610d478582610ccc565b865550610dae565b601f198416610d5d86610b4a565b5f5b82811015610d8457848901518255600182019150602085019450602081019050610d5f565b86831015610da15784890151610d9d601f891682610cb0565b8355505b6001600288020188555050505b505050505050565b5f81549050610dc481610aa0565b9050919050565b818103610dd9575050610eae565b610de282610db6565b67ffffffffffffffff811115610dfb57610dfa61070a565b5b610e058254610aa0565b610e10828285610c5e565b5f601f831160018114610e3d575f8415610e2b578287015490505b610e358582610ccc565b865550610ea7565b601f198416610e4b87610b4a565b9650610e5686610b4a565b5f5b82811015610e7d57848901548255600182019150600185019450602081019050610e58565b86831015610e9a5784890154610e96601f891682610cb0565b8355505b6001600288020188555050505b5050505050505b565b7f4e487b71000000000000000000000000000000000000000000000000000000005f52601260045260245ffd5b5f610ee7826105b8565b9150610ef2836105b8565b925082610f0257610f01610eb0565b5b82820490509291505056fea2646970667358221220244fe212c2b22e2e35c6cac373aafba97375729c772df3f2285affa9cd1a8e0f64736f6c63430008190033",
			"opcodes": "PUSH1 0x80 PUSH1 0x40 MSTORE CALLVALUE DUP1 ISZERO PUSH1 0xE JUMPI PUSH0 DUP1 REVERT JUMPDEST POP PUSH2 0xF43 DUP1 PUSH2 0x1C PUSH0 CODECOPY PUSH0 RETURN INVALID PUSH1 0x80 PUSH1 0x40 MSTORE CALLVALUE DUP1 ISZERO PUSH2 0xF JUMPI PUSH0 DUP1 REVERT JUMPDEST POP PUSH1 0x4 CALLDATASIZE LT PUSH2 0x55 JUMPI PUSH0 CALLDATALOAD PUSH1 0xE0 SHR DUP1 PUSH4 0x642F9163 EQ PUSH2 0x59 JUMPI DUP1 PUSH4 0x77DFE54E EQ PUSH2 0x89 JUMPI DUP1 PUSH4 0x9B4D52DD EQ PUSH2 0xA7 JUMPI DUP1 PUSH4 0xB2B08963 EQ PUSH2 0xC3 JUMPI DUP1 PUSH4 0xF1D064B3 EQ PUSH2 0xE2 JUMPI JUMPDEST PUSH0 DUP1 REVERT JUMPDEST PUSH2 0x73 PUSH1 0x4 DUP1 CALLDATASIZE SUB DUP2 ADD SWAP1 PUSH2 0x6E SWAP2 SWAP1 PUSH2 0x5EB JUMP JUMPDEST PUSH2 0x100 JUMP JUMPDEST PUSH1 0x40 MLOAD PUSH2 0x80 SWAP2 SWAP1 PUSH2 0x6E2 JUMP JUMPDEST PUSH1 0x40 MLOAD DUP1 SWAP2 SUB SWAP1 RETURN JUMPDEST PUSH2 0x91 PUSH2 0x1E9 JUMP JUMPDEST PUSH1 0x40 MLOAD PUSH2 0x9E SWAP2 SWAP1 PUSH2 0x6E2 JUMP JUMPDEST PUSH1 0x40 MLOAD DUP1 SWAP2 SUB SWAP1 RETURN JUMPDEST PUSH2 0xC1 PUSH1 0x4 DUP1 CALLDATASIZE SUB DUP2 ADD SWAP1 PUSH2 0xBC SWAP2 SWAP1 PUSH2 0x82E JUMP JUMPDEST PUSH2 0x366 JUMP JUMPDEST STOP JUMPDEST PUSH2 0xCB PUSH2 0x414 JUMP JUMPDEST PUSH1 0x40 MLOAD PUSH2 0xD9 SWAP3 SWAP2 SWAP1 PUSH2 0x897 JUMP JUMPDEST PUSH1 0x40 MLOAD DUP1 SWAP2 SUB SWAP1 RETURN JUMPDEST PUSH2 0xEA PUSH2 0x489 JUMP JUMPDEST PUSH1 0x40 MLOAD PUSH2 0xF7 SWAP2 SWAP1 PUSH2 0x9C6 JUMP JUMPDEST PUSH1 0x40 MLOAD DUP1 SWAP2 SUB SWAP1 RETURN JUMPDEST PUSH2 0x108 PUSH2 0x588 JUMP JUMPDEST PUSH1 0x3 PUSH1 0x1 DUP4 PUSH2 0x117 SWAP2 SWAP1 PUSH2 0xA13 JUMP JUMPDEST DUP2 SLOAD DUP2 LT PUSH2 0x128 JUMPI PUSH2 0x127 PUSH2 0xA46 JUMP JUMPDEST JUMPDEST SWAP1 PUSH0 MSTORE PUSH1 0x20 PUSH0 KECCAK256 SWAP1 PUSH1 0x3 MUL ADD PUSH1 0x40 MLOAD DUP1 PUSH1 0x60 ADD PUSH1 0x40 MSTORE SWAP1 DUP2 PUSH0 DUP3 ADD SLOAD DUP2 MSTORE PUSH1 0x20 ADD PUSH1 0x1 DUP3 ADD DUP1 SLOAD PUSH2 0x158 SWAP1 PUSH2 0xAA0 JUMP JUMPDEST DUP1 PUSH1 0x1F ADD PUSH1 0x20 DUP1 SWAP2 DIV MUL PUSH1 0x20 ADD PUSH1 0x40 MLOAD SWAP1 DUP2 ADD PUSH1 0x40 MSTORE DUP1 SWAP3 SWAP2 SWAP1 DUP2 DUP2 MSTORE PUSH1 0x20 ADD DUP3 DUP1 SLOAD PUSH2 0x184 SWAP1 PUSH2 0xAA0 JUMP JUMPDEST DUP1 ISZERO PUSH2 0x1CF JUMPI DUP1 PUSH1 0x1F LT PUSH2 0x1A6 JUMPI PUSH2 0x100 DUP1 DUP4 SLOAD DIV MUL DUP4 MSTORE SWAP2 PUSH1 0x20 ADD SWAP2 PUSH2 0x1CF JUMP JUMPDEST DUP3 ADD SWAP2 SWAP1 PUSH0 MSTORE PUSH1 0x20 PUSH0 KECCAK256 SWAP1 JUMPDEST DUP2 SLOAD DUP2 MSTORE SWAP1 PUSH1 0x1 ADD SWAP1 PUSH1 0x20 ADD DUP1 DUP4 GT PUSH2 0x1B2 JUMPI DUP3 SWAP1 SUB PUSH1 0x1F AND DUP3 ADD SWAP2 JUMPDEST POP POP POP POP POP DUP2 MSTORE PUSH1 0x20 ADD PUSH1 0x2 DUP3 ADD SLOAD DUP2 MSTORE POP POP SWAP1 POP SWAP2 SWAP1 POP JUMP JUMPDEST PUSH2 0x1F1 PUSH2 0x588 JUMP JUMPDEST PUSH0 PUSH1 0x3 PUSH0 DUP2 SLOAD DUP2 LT PUSH2 0x206 JUMPI PUSH2 0x205 PUSH2 0xA46 JUMP JUMPDEST JUMPDEST SWAP1 PUSH0 MSTORE PUSH1 0x20 PUSH0 KECCAK256 SWAP1 PUSH1 0x3 MUL ADD PUSH1 0x2 ADD SLOAD SWAP1 POP PUSH0 DUP1 JUMPDEST DUP1 PUSH1 0x3 DUP1 SLOAD SWAP1 POP GT ISZERO PUSH2 0x290 JUMPI PUSH1 0x3 DUP2 DUP2 SLOAD DUP2 LT PUSH2 0x23C JUMPI PUSH2 0x23B PUSH2 0xA46 JUMP JUMPDEST JUMPDEST SWAP1 PUSH0 MSTORE PUSH1 0x20 PUSH0 KECCAK256 SWAP1 PUSH1 0x3 MUL ADD PUSH1 0x2 ADD SLOAD DUP4 GT ISZERO PUSH2 0x27D JUMPI PUSH1 0x3 DUP2 DUP2 SLOAD DUP2 LT PUSH2 0x267 JUMPI PUSH2 0x266 PUSH2 0xA46 JUMP JUMPDEST JUMPDEST SWAP1 PUSH0 MSTORE PUSH1 0x20 PUSH0 KECCAK256 SWAP1 PUSH1 0x3 MUL ADD PUSH1 0x2 ADD SLOAD SWAP3 POP DUP1 SWAP2 POP JUMPDEST DUP1 DUP1 PUSH2 0x288 SWAP1 PUSH2 0xAD0 JUMP JUMPDEST SWAP2 POP POP PUSH2 0x21B JUMP JUMPDEST POP PUSH1 0x3 DUP2 DUP2 SLOAD DUP2 LT PUSH2 0x2A5 JUMPI PUSH2 0x2A4 PUSH2 0xA46 JUMP JUMPDEST JUMPDEST SWAP1 PUSH0 MSTORE PUSH1 0x20 PUSH0 KECCAK256 SWAP1 PUSH1 0x3 MUL ADD PUSH1 0x40 MLOAD DUP1 PUSH1 0x60 ADD PUSH1 0x40 MSTORE SWAP1 DUP2 PUSH0 DUP3 ADD SLOAD DUP2 MSTORE PUSH1 0x20 ADD PUSH1 0x1 DUP3 ADD DUP1 SLOAD PUSH2 0x2D5 SWAP1 PUSH2 0xAA0 JUMP JUMPDEST DUP1 PUSH1 0x1F ADD PUSH1 0x20 DUP1 SWAP2 DIV MUL PUSH1 0x20 ADD PUSH1 0x40 MLOAD SWAP1 DUP2 ADD PUSH1 0x40 MSTORE DUP1 SWAP3 SWAP2 SWAP1 DUP2 DUP2 MSTORE PUSH1 0x20 ADD DUP3 DUP1 SLOAD PUSH2 0x301 SWAP1 PUSH2 0xAA0 JUMP JUMPDEST DUP1 ISZERO PUSH2 0x34C JUMPI DUP1 PUSH1 0x1F LT PUSH2 0x323 JUMPI PUSH2 0x100 DUP1 DUP4 SLOAD DIV MUL DUP4 MSTORE SWAP2 PUSH1 0x20 ADD SWAP2 PUSH2 0x34C JUMP JUMPDEST DUP3 ADD SWAP2 SWAP1 PUSH0 MSTORE PUSH1 0x20 PUSH0 KECCAK256 SWAP1 JUMPDEST DUP2 SLOAD DUP2 MSTORE SWAP1 PUSH1 0x1 ADD SWAP1 PUSH1 0x20 ADD DUP1 DUP4 GT PUSH2 0x32F JUMPI DUP3 SWAP1 SUB PUSH1 0x1F AND DUP3 ADD SWAP2 JUMPDEST POP POP POP POP POP DUP2 MSTORE PUSH1 0x20 ADD PUSH1 0x2 DUP3 ADD SLOAD DUP2 MSTORE POP POP SWAP3 POP POP POP SWAP1 JUMP JUMPDEST PUSH1 0x40 MLOAD DUP1 PUSH1 0x60 ADD PUSH1 0x40 MSTORE DUP1 PUSH1 0x1 PUSH1 0x3 DUP1 SLOAD SWAP1 POP PUSH2 0x383 SWAP2 SWAP1 PUSH2 0xB17 JUMP JUMPDEST DUP2 MSTORE PUSH1 0x20 ADD DUP4 DUP2 MSTORE PUSH1 0x20 ADD DUP3 DUP2 MSTORE POP PUSH0 DUP1 DUP3 ADD MLOAD DUP2 PUSH0 ADD SSTORE PUSH1 0x20 DUP3 ADD MLOAD DUP2 PUSH1 0x1 ADD SWAP1 DUP2 PUSH2 0x3B0 SWAP2 SWAP1 PUSH2 0xCE7 JUMP JUMPDEST POP PUSH1 0x40 DUP3 ADD MLOAD DUP2 PUSH1 0x2 ADD SSTORE SWAP1 POP POP PUSH1 0x3 PUSH0 SWAP1 DUP1 PUSH1 0x1 DUP2 SLOAD ADD DUP1 DUP3 SSTORE DUP1 SWAP2 POP POP PUSH1 0x1 SWAP1 SUB SWAP1 PUSH0 MSTORE PUSH1 0x20 PUSH0 KECCAK256 SWAP1 PUSH1 0x3 MUL ADD PUSH0 SWAP1 SWAP2 SWAP1 SWAP2 SWAP1 SWAP2 POP PUSH0 DUP3 ADD SLOAD DUP2 PUSH0 ADD SSTORE PUSH1 0x1 DUP3 ADD DUP2 PUSH1 0x1 ADD SWAP1 DUP2 PUSH2 0x403 SWAP2 SWAP1 PUSH2 0xDCB JUMP JUMPDEST POP PUSH1 0x2 DUP3 ADD SLOAD DUP2 PUSH1 0x2 ADD SSTORE POP POP POP POP JUMP JUMPDEST PUSH0 DUP1 PUSH0 DUP1 PUSH0 SWAP1 POP JUMPDEST DUP1 PUSH1 0x3 DUP1 SLOAD SWAP1 POP GT ISZERO PUSH2 0x46D JUMPI PUSH1 0x3 DUP2 DUP2 SLOAD DUP2 LT PUSH2 0x43D JUMPI PUSH2 0x43C PUSH2 0xA46 JUMP JUMPDEST JUMPDEST SWAP1 PUSH0 MSTORE PUSH1 0x20 PUSH0 KECCAK256 SWAP1 PUSH1 0x3 MUL ADD PUSH1 0x2 ADD SLOAD DUP3 PUSH2 0x458 SWAP2 SWAP1 PUSH2 0xB17 JUMP JUMPDEST SWAP2 POP DUP1 DUP1 PUSH2 0x465 SWAP1 PUSH2 0xAD0 JUMP JUMPDEST SWAP2 POP POP PUSH2 0x41C JUMP JUMPDEST POP DUP1 PUSH1 0x3 DUP1 SLOAD SWAP1 POP DUP3 PUSH2 0x480 SWAP2 SWAP1 PUSH2 0xEDD JUMP JUMPDEST SWAP3 POP SWAP3 POP POP SWAP1 SWAP2 JUMP JUMPDEST PUSH1 0x60 PUSH1 0x3 DUP1 SLOAD DUP1 PUSH1 0x20 MUL PUSH1 0x20 ADD PUSH1 0x40 MLOAD SWAP1 DUP2 ADD PUSH1 0x40 MSTORE DUP1 SWAP3 SWAP2 SWAP1 DUP2 DUP2 MSTORE PUSH1 0x20 ADD PUSH0 SWAP1 JUMPDEST DUP3 DUP3 LT ISZERO PUSH2 0x57F JUMPI DUP4 DUP3 SWAP1 PUSH0 MSTORE PUSH1 0x20 PUSH0 KECCAK256 SWAP1 PUSH1 0x3 MUL ADD PUSH1 0x40 MLOAD DUP1 PUSH1 0x60 ADD PUSH1 0x40 MSTORE SWAP1 DUP2 PUSH0 DUP3 ADD SLOAD DUP2 MSTORE PUSH1 0x20 ADD PUSH1 0x1 DUP3 ADD DUP1 SLOAD PUSH2 0x4E6 SWAP1 PUSH2 0xAA0 JUMP JUMPDEST DUP1 PUSH1 0x1F ADD PUSH1 0x20 DUP1 SWAP2 DIV MUL PUSH1 0x20 ADD PUSH1 0x40 MLOAD SWAP1 DUP2 ADD PUSH1 0x40 MSTORE DUP1 SWAP3 SWAP2 SWAP1 DUP2 DUP2 MSTORE PUSH1 0x20 ADD DUP3 DUP1 SLOAD PUSH2 0x512 SWAP1 PUSH2 0xAA0 JUMP JUMPDEST DUP1 ISZERO PUSH2 0x55D JUMPI DUP1 PUSH1 0x1F LT PUSH2 0x534 JUMPI PUSH2 0x100 DUP1 DUP4 SLOAD DIV MUL DUP4 MSTORE SWAP2 PUSH1 0x20 ADD SWAP2 PUSH2 0x55D JUMP JUMPDEST DUP3 ADD SWAP2 SWAP1 PUSH0 MSTORE PUSH1 0x20 PUSH0 KECCAK256 SWAP1 JUMPDEST DUP2 SLOAD DUP2 MSTORE SWAP1 PUSH1 0x1 ADD SWAP1 PUSH1 0x20 ADD DUP1 DUP4 GT PUSH2 0x540 JUMPI DUP3 SWAP1 SUB PUSH1 0x1F AND DUP3 ADD SWAP2 JUMPDEST POP POP POP POP POP DUP2 MSTORE PUSH1 0x20 ADD PUSH1 0x2 DUP3 ADD SLOAD DUP2 MSTORE POP POP DUP2 MSTORE PUSH1 0x20 ADD SWAP1 PUSH1 0x1 ADD SWAP1 PUSH2 0x4AC JUMP JUMPDEST POP POP POP POP SWAP1 POP SWAP1 JUMP JUMPDEST PUSH1 0x40 MLOAD DUP1 PUSH1 0x60 ADD PUSH1 0x40 MSTORE DUP1 PUSH0 DUP2 MSTORE PUSH1 0x20 ADD PUSH1 0x60 DUP2 MSTORE PUSH1 0x20 ADD PUSH0 DUP2 MSTORE POP SWAP1 JUMP JUMPDEST PUSH0 PUSH1 0x40 MLOAD SWAP1 POP SWAP1 JUMP JUMPDEST PUSH0 DUP1 REVERT JUMPDEST PUSH0 DUP1 REVERT JUMPDEST PUSH0 DUP2 SWAP1 POP SWAP2 SWAP1 POP JUMP JUMPDEST PUSH2 0x5CA DUP2 PUSH2 0x5B8 JUMP JUMPDEST DUP2 EQ PUSH2 0x5D4 JUMPI PUSH0 DUP1 REVERT JUMPDEST POP JUMP JUMPDEST PUSH0 DUP2 CALLDATALOAD SWAP1 POP PUSH2 0x5E5 DUP2 PUSH2 0x5C1 JUMP JUMPDEST SWAP3 SWAP2 POP POP JUMP JUMPDEST PUSH0 PUSH1 0x20 DUP3 DUP5 SUB SLT ISZERO PUSH2 0x600 JUMPI PUSH2 0x5FF PUSH2 0x5B0 JUMP JUMPDEST JUMPDEST PUSH0 PUSH2 0x60D DUP5 DUP3 DUP6 ADD PUSH2 0x5D7 JUMP JUMPDEST SWAP2 POP POP SWAP3 SWAP2 POP POP JUMP JUMPDEST PUSH2 0x61F DUP2 PUSH2 0x5B8 JUMP JUMPDEST DUP3 MSTORE POP POP JUMP JUMPDEST PUSH0 DUP2 MLOAD SWAP1 POP SWAP2 SWAP1 POP JUMP JUMPDEST PUSH0 DUP3 DUP3 MSTORE PUSH1 0x20 DUP3 ADD SWAP1 POP SWAP3 SWAP2 POP POP JUMP JUMPDEST DUP3 DUP2 DUP4 MCOPY PUSH0 DUP4 DUP4 ADD MSTORE POP POP POP JUMP JUMPDEST PUSH0 PUSH1 0x1F NOT PUSH1 0x1F DUP4 ADD AND SWAP1 POP SWAP2 SWAP1 POP JUMP JUMPDEST PUSH0 PUSH2 0x667 DUP3 PUSH2 0x625 JUMP JUMPDEST PUSH2 0x671 DUP2 DUP6 PUSH2 0x62F JUMP JUMPDEST SWAP4 POP PUSH2 0x681 DUP2 DUP6 PUSH1 0x20 DUP7 ADD PUSH2 0x63F JUMP JUMPDEST PUSH2 0x68A DUP2 PUSH2 0x64D JUMP JUMPDEST DUP5 ADD SWAP2 POP POP SWAP3 SWAP2 POP POP JUMP JUMPDEST PUSH0 PUSH1 0x60 DUP4 ADD PUSH0 DUP4 ADD MLOAD PUSH2 0x6AA PUSH0 DUP7 ADD DUP3 PUSH2 0x616 JUMP JUMPDEST POP PUSH1 0x20 DUP4 ADD MLOAD DUP5 DUP3 SUB PUSH1 0x20 DUP7 ADD MSTORE PUSH2 0x6C2 DUP3 DUP3 PUSH2 0x65D JUMP JUMPDEST SWAP2 POP POP PUSH1 0x40 DUP4 ADD MLOAD PUSH2 0x6D7 PUSH1 0x40 DUP7 ADD DUP3 PUSH2 0x616 JUMP JUMPDEST POP DUP1 SWAP2 POP POP SWAP3 SWAP2 POP POP JUMP JUMPDEST PUSH0 PUSH1 0x20 DUP3 ADD SWAP1 POP DUP2 DUP2 SUB PUSH0 DUP4 ADD MSTORE PUSH2 0x6FA DUP2 DUP5 PUSH2 0x695 JUMP JUMPDEST SWAP1 POP SWAP3 SWAP2 POP POP JUMP JUMPDEST PUSH0 DUP1 REVERT JUMPDEST PUSH0 DUP1 REVERT JUMPDEST PUSH32 0x4E487B7100000000000000000000000000000000000000000000000000000000 PUSH0 MSTORE PUSH1 0x41 PUSH1 0x4 MSTORE PUSH1 0x24 PUSH0 REVERT JUMPDEST PUSH2 0x740 DUP3 PUSH2 0x64D JUMP JUMPDEST DUP2 ADD DUP2 DUP2 LT PUSH8 0xFFFFFFFFFFFFFFFF DUP3 GT OR ISZERO PUSH2 0x75F JUMPI PUSH2 0x75E PUSH2 0x70A JUMP JUMPDEST JUMPDEST DUP1 PUSH1 0x40 MSTORE POP POP POP JUMP JUMPDEST PUSH0 PUSH2 0x771 PUSH2 0x5A7 JUMP JUMPDEST SWAP1 POP PUSH2 0x77D DUP3 DUP3 PUSH2 0x737 JUMP JUMPDEST SWAP2 SWAP1 POP JUMP JUMPDEST PUSH0 PUSH8 0xFFFFFFFFFFFFFFFF DUP3 GT ISZERO PUSH2 0x79C JUMPI PUSH2 0x79B PUSH2 0x70A JUMP JUMPDEST JUMPDEST PUSH2 0x7A5 DUP3 PUSH2 0x64D JUMP JUMPDEST SWAP1 POP PUSH1 0x20 DUP2 ADD SWAP1 POP SWAP2 SWAP1 POP JUMP JUMPDEST DUP3 DUP2 DUP4 CALLDATACOPY PUSH0 DUP4 DUP4 ADD MSTORE POP POP POP JUMP JUMPDEST PUSH0 PUSH2 0x7D2 PUSH2 0x7CD DUP5 PUSH2 0x782 JUMP JUMPDEST PUSH2 0x768 JUMP JUMPDEST SWAP1 POP DUP3 DUP2 MSTORE PUSH1 0x20 DUP2 ADD DUP5 DUP5 DUP5 ADD GT ISZERO PUSH2 0x7EE JUMPI PUSH2 0x7ED PUSH2 0x706 JUMP JUMPDEST JUMPDEST PUSH2 0x7F9 DUP5 DUP3 DUP6 PUSH2 0x7B2 JUMP JUMPDEST POP SWAP4 SWAP3 POP POP POP JUMP JUMPDEST PUSH0 DUP3 PUSH1 0x1F DUP4 ADD SLT PUSH2 0x815 JUMPI PUSH2 0x814 PUSH2 0x702 JUMP JUMPDEST JUMPDEST DUP2 CALLDATALOAD PUSH2 0x825 DUP5 DUP3 PUSH1 0x20 DUP7 ADD PUSH2 0x7C0 JUMP JUMPDEST SWAP2 POP POP SWAP3 SWAP2 POP POP JUMP JUMPDEST PUSH0 DUP1 PUSH1 0x40 DUP4 DUP6 SUB SLT ISZERO PUSH2 0x844 JUMPI PUSH2 0x843 PUSH2 0x5B0 JUMP JUMPDEST JUMPDEST PUSH0 DUP4 ADD CALLDATALOAD PUSH8 0xFFFFFFFFFFFFFFFF DUP2 GT ISZERO PUSH2 0x861 JUMPI PUSH2 0x860 PUSH2 0x5B4 JUMP JUMPDEST JUMPDEST PUSH2 0x86D DUP6 DUP3 DUP7 ADD PUSH2 0x801 JUMP JUMPDEST SWAP3 POP POP PUSH1 0x20 PUSH2 0x87E DUP6 DUP3 DUP7 ADD PUSH2 0x5D7 JUMP JUMPDEST SWAP2 POP POP SWAP3 POP SWAP3 SWAP1 POP JUMP JUMPDEST PUSH2 0x891 DUP2 PUSH2 0x5B8 JUMP JUMPDEST DUP3 MSTORE POP POP JUMP JUMPDEST PUSH0 PUSH1 0x40 DUP3 ADD SWAP1 POP PUSH2 0x8AA PUSH0 DUP4 ADD DUP6 PUSH2 0x888 JUMP JUMPDEST PUSH2 0x8B7 PUSH1 0x20 DUP4 ADD DUP5 PUSH2 0x888 JUMP JUMPDEST SWAP4 SWAP3 POP POP POP JUMP JUMPDEST PUSH0 DUP2 MLOAD SWAP1 POP SWAP2 SWAP1 POP JUMP JUMPDEST PUSH0 DUP3 DUP3 MSTORE PUSH1 0x20 DUP3 ADD SWAP1 POP SWAP3 SWAP2 POP POP JUMP JUMPDEST PUSH0 DUP2 SWAP1 POP PUSH1 0x20 DUP3 ADD SWAP1 POP SWAP2 SWAP1 POP JUMP JUMPDEST PUSH0 PUSH1 0x60 DUP4 ADD PUSH0 DUP4 ADD MLOAD PUSH2 0x8FC PUSH0 DUP7 ADD DUP3 PUSH2 0x616 JUMP JUMPDEST POP PUSH1 0x20 DUP4 ADD MLOAD DUP5 DUP3 SUB PUSH1 0x20 DUP7 ADD MSTORE PUSH2 0x914 DUP3 DUP3 PUSH2 0x65D JUMP JUMPDEST SWAP2 POP POP PUSH1 0x40 DUP4 ADD MLOAD PUSH2 0x929 PUSH1 0x40 DUP7 ADD DUP3 PUSH2 0x616 JUMP JUMPDEST POP DUP1 SWAP2 POP POP SWAP3 SWAP2 POP POP JUMP JUMPDEST PUSH0 PUSH2 0x93F DUP4 DUP4 PUSH2 0x8E7 JUMP JUMPDEST SWAP1 POP SWAP3 SWAP2 POP POP JUMP JUMPDEST PUSH0 PUSH1 0x20 DUP3 ADD SWAP1 POP SWAP2 SWAP1 POP JUMP JUMPDEST PUSH0 PUSH2 0x95D DUP3 PUSH2 0x8BE JUMP JUMPDEST PUSH2 0x967 DUP2 DUP6 PUSH2 0x8C8 JUMP JUMPDEST SWAP4 POP DUP4 PUSH1 0x20 DUP3 MUL DUP6 ADD PUSH2 0x979 DUP6 PUSH2 0x8D8 JUMP JUMPDEST DUP1 PUSH0 JUMPDEST DUP6 DUP2 LT ISZERO PUSH2 0x9B4 JUMPI DUP5 DUP5 SUB DUP10 MSTORE DUP2 MLOAD PUSH2 0x995 DUP6 DUP3 PUSH2 0x934 JUMP JUMPDEST SWAP5 POP PUSH2 0x9A0 DUP4 PUSH2 0x947 JUMP JUMPDEST SWAP3 POP PUSH1 0x20 DUP11 ADD SWAP10 POP POP PUSH1 0x1 DUP2 ADD SWAP1 POP PUSH2 0x97C JUMP JUMPDEST POP DUP3 SWAP8 POP DUP8 SWAP6 POP POP POP POP POP POP SWAP3 SWAP2 POP POP JUMP JUMPDEST PUSH0 PUSH1 0x20 DUP3 ADD SWAP1 POP DUP2 DUP2 SUB PUSH0 DUP4 ADD MSTORE PUSH2 0x9DE DUP2 DUP5 PUSH2 0x953 JUMP JUMPDEST SWAP1 POP SWAP3 SWAP2 POP POP JUMP JUMPDEST PUSH32 0x4E487B7100000000000000000000000000000000000000000000000000000000 PUSH0 MSTORE PUSH1 0x11 PUSH1 0x4 MSTORE PUSH1 0x24 PUSH0 REVERT JUMPDEST PUSH0 PUSH2 0xA1D DUP3 PUSH2 0x5B8 JUMP JUMPDEST SWAP2 POP PUSH2 0xA28 DUP4 PUSH2 0x5B8 JUMP JUMPDEST SWAP3 POP DUP3 DUP3 SUB SWAP1 POP DUP2 DUP2 GT ISZERO PUSH2 0xA40 JUMPI PUSH2 0xA3F PUSH2 0x9E6 JUMP JUMPDEST JUMPDEST SWAP3 SWAP2 POP POP JUMP JUMPDEST PUSH32 0x4E487B7100000000000000000000000000000000000000000000000000000000 PUSH0 MSTORE PUSH1 0x32 PUSH1 0x4 MSTORE PUSH1 0x24 PUSH0 REVERT JUMPDEST PUSH32 0x4E487B7100000000000000000000000000000000000000000000000000000000 PUSH0 MSTORE PUSH1 0x22 PUSH1 0x4 MSTORE PUSH1 0x24 PUSH0 REVERT JUMPDEST PUSH0 PUSH1 0x2 DUP3 DIV SWAP1 POP PUSH1 0x1 DUP3 AND DUP1 PUSH2 0xAB7 JUMPI PUSH1 0x7F DUP3 AND SWAP2 POP JUMPDEST PUSH1 0x20 DUP3 LT DUP2 SUB PUSH2 0xACA JUMPI PUSH2 0xAC9 PUSH2 0xA73 JUMP JUMPDEST JUMPDEST POP SWAP2 SWAP1 POP JUMP JUMPDEST PUSH0 PUSH2 0xADA DUP3 PUSH2 0x5B8 JUMP JUMPDEST SWAP2 POP PUSH32 0xFFFFFFFFFFFFFFFFFFFFFFFFFFFFFFFFFFFFFFFFFFFFFFFFFFFFFFFFFFFFFFFF DUP3 SUB PUSH2 0xB0C JUMPI PUSH2 0xB0B PUSH2 0x9E6 JUMP JUMPDEST JUMPDEST PUSH1 0x1 DUP3 ADD SWAP1 POP SWAP2 SWAP1 POP JUMP JUMPDEST PUSH0 PUSH2 0xB21 DUP3 PUSH2 0x5B8 JUMP JUMPDEST SWAP2 POP PUSH2 0xB2C DUP4 PUSH2 0x5B8 JUMP JUMPDEST SWAP3 POP DUP3 DUP3 ADD SWAP1 POP DUP1 DUP3 GT ISZERO PUSH2 0xB44 JUMPI PUSH2 0xB43 PUSH2 0x9E6 JUMP JUMPDEST JUMPDEST SWAP3 SWAP2 POP POP JUMP JUMPDEST PUSH0 DUP2 SWAP1 POP DUP2 PUSH0 MSTORE PUSH1 0x20 PUSH0 KECCAK256 SWAP1 POP SWAP2 SWAP1 POP JUMP JUMPDEST PUSH0 PUSH1 0x20 PUSH1 0x1F DUP4 ADD DIV SWAP1 POP SWAP2 SWAP1 POP JUMP JUMPDEST PUSH0 DUP3 DUP3 SHL SWAP1 POP SWAP3 SWAP2 POP POP JUMP JUMPDEST PUSH0 PUSH1 0x8 DUP4 MUL PUSH2 0xBA6 PUSH32 0xFFFFFFFFFFFFFFFFFFFFFFFFFFFFFFFFFFFFFFFFFFFFFFFFFFFFFFFFFFFFFFFF DUP3 PUSH2 0xB6B JUMP JUMPDEST PUSH2 0xBB0 DUP7 DUP4 PUSH2 0xB6B JUMP JUMPDEST SWAP6 POP DUP1 NOT DUP5 AND SWAP4 POP DUP1 DUP7 AND DUP5 OR SWAP3 POP POP POP SWAP4 SWAP3 POP POP POP JUMP JUMPDEST PUSH0 DUP2 SWAP1 POP SWAP2 SWAP1 POP JUMP JUMPDEST PUSH0 PUSH2 0xBEB PUSH2 0xBE6 PUSH2 0xBE1 DUP5 PUSH2 0x5B8 JUMP JUMPDEST PUSH2 0xBC8 JUMP JUMPDEST PUSH2 0x5B8 JUMP JUMPDEST SWAP1 POP SWAP2 SWAP1 POP JUMP JUMPDEST PUSH0 DUP2 SWAP1 POP SWAP2 SWAP1 POP JUMP JUMPDEST PUSH2 0xC04 DUP4 PUSH2 0xBD1 JUMP JUMPDEST PUSH2 0xC18 PUSH2 0xC10 DUP3 PUSH2 0xBF2 JUMP JUMPDEST DUP5 DUP5 SLOAD PUSH2 0xB77 JUMP JUMPDEST DUP3 SSTORE POP POP POP POP JUMP JUMPDEST PUSH0 SWAP1 JUMP JUMPDEST PUSH2 0xC2C PUSH2 0xC20 JUMP JUMPDEST PUSH2 0xC37 DUP2 DUP5 DUP5 PUSH2 0xBFB JUMP JUMPDEST POP POP POP JUMP JUMPDEST JUMPDEST DUP2 DUP2 LT ISZERO PUSH2 0xC5A JUMPI PUSH2 0xC4F PUSH0 DUP3 PUSH2 0xC24 JUMP JUMPDEST PUSH1 0x1 DUP2 ADD SWAP1 POP PUSH2 0xC3D JUMP JUMPDEST POP POP JUMP JUMPDEST PUSH1 0x1F DUP3 GT ISZERO PUSH2 0xC9F JUMPI PUSH2 0xC70 DUP2 PUSH2 0xB4A JUMP JUMPDEST PUSH2 0xC79 DUP5 PUSH2 0xB5C JUMP JUMPDEST DUP2 ADD PUSH1 0x20 DUP6 LT ISZERO PUSH2 0xC88 JUMPI DUP2 SWAP1 POP JUMPDEST PUSH2 0xC9C PUSH2 0xC94 DUP6 PUSH2 0xB5C JUMP JUMPDEST DUP4 ADD DUP3 PUSH2 0xC3C JUMP JUMPDEST POP POP JUMPDEST POP POP POP JUMP JUMPDEST PUSH0 DUP3 DUP3 SHR SWAP1 POP SWAP3 SWAP2 POP POP JUMP JUMPDEST PUSH0 PUSH2 0xCBF PUSH0 NOT DUP5 PUSH1 0x8 MUL PUSH2 0xCA4 JUMP JUMPDEST NOT DUP1 DUP4 AND SWAP2 POP POP SWAP3 SWAP2 POP POP JUMP JUMPDEST PUSH0 PUSH2 0xCD7 DUP4 DUP4 PUSH2 0xCB0 JUMP JUMPDEST SWAP2 POP DUP3 PUSH1 0x2 MUL DUP3 OR SWAP1 POP SWAP3 SWAP2 POP POP JUMP JUMPDEST PUSH2 0xCF0 DUP3 PUSH2 0x625 JUMP JUMPDEST PUSH8 0xFFFFFFFFFFFFFFFF DUP2 GT ISZERO PUSH2 0xD09 JUMPI PUSH2 0xD08 PUSH2 0x70A JUMP JUMPDEST JUMPDEST PUSH2 0xD13 DUP3 SLOAD PUSH2 0xAA0 JUMP JUMPDEST PUSH2 0xD1E DUP3 DUP3 DUP6 PUSH2 0xC5E JUMP JUMPDEST PUSH0 PUSH1 0x20 SWAP1 POP PUSH1 0x1F DUP4 GT PUSH1 0x1 DUP2 EQ PUSH2 0xD4F JUMPI PUSH0 DUP5 ISZERO PUSH2 0xD3D JUMPI DUP3 DUP8 ADD MLOAD SWAP1 POP JUMPDEST PUSH2 0xD47 DUP6 DUP3 PUSH2 0xCCC JUMP JUMPDEST DUP7 SSTORE POP PUSH2 0xDAE JUMP JUMPDEST PUSH1 0x1F NOT DUP5 AND PUSH2 0xD5D DUP7 PUSH2 0xB4A JUMP JUMPDEST PUSH0 JUMPDEST DUP3 DUP2 LT ISZERO PUSH2 0xD84 JUMPI DUP5 DUP10 ADD MLOAD DUP3 SSTORE PUSH1 0x1 DUP3 ADD SWAP2 POP PUSH1 0x20 DUP6 ADD SWAP5 POP PUSH1 0x20 DUP2 ADD SWAP1 POP PUSH2 0xD5F JUMP JUMPDEST DUP7 DUP4 LT ISZERO PUSH2 0xDA1 JUMPI DUP5 DUP10 ADD MLOAD PUSH2 0xD9D PUSH1 0x1F DUP10 AND DUP3 PUSH2 0xCB0 JUMP JUMPDEST DUP4 SSTORE POP JUMPDEST PUSH1 0x1 PUSH1 0x2 DUP9 MUL ADD DUP9 SSTORE POP POP POP JUMPDEST POP POP POP POP POP POP JUMP JUMPDEST PUSH0 DUP2 SLOAD SWAP1 POP PUSH2 0xDC4 DUP2 PUSH2 0xAA0 JUMP JUMPDEST SWAP1 POP SWAP2 SWAP1 POP JUMP JUMPDEST DUP2 DUP2 SUB PUSH2 0xDD9 JUMPI POP POP PUSH2 0xEAE JUMP JUMPDEST PUSH2 0xDE2 DUP3 PUSH2 0xDB6 JUMP JUMPDEST PUSH8 0xFFFFFFFFFFFFFFFF DUP2 GT ISZERO PUSH2 0xDFB JUMPI PUSH2 0xDFA PUSH2 0x70A JUMP JUMPDEST JUMPDEST PUSH2 0xE05 DUP3 SLOAD PUSH2 0xAA0 JUMP JUMPDEST PUSH2 0xE10 DUP3 DUP3 DUP6 PUSH2 0xC5E JUMP JUMPDEST PUSH0 PUSH1 0x1F DUP4 GT PUSH1 0x1 DUP2 EQ PUSH2 0xE3D JUMPI PUSH0 DUP5 ISZERO PUSH2 0xE2B JUMPI DUP3 DUP8 ADD SLOAD SWAP1 POP JUMPDEST PUSH2 0xE35 DUP6 DUP3 PUSH2 0xCCC JUMP JUMPDEST DUP7 SSTORE POP PUSH2 0xEA7 JUMP JUMPDEST PUSH1 0x1F NOT DUP5 AND PUSH2 0xE4B DUP8 PUSH2 0xB4A JUMP JUMPDEST SWAP7 POP PUSH2 0xE56 DUP7 PUSH2 0xB4A JUMP JUMPDEST PUSH0 JUMPDEST DUP3 DUP2 LT ISZERO PUSH2 0xE7D JUMPI DUP5 DUP10 ADD SLOAD DUP3 SSTORE PUSH1 0x1 DUP3 ADD SWAP2 POP PUSH1 0x1 DUP6 ADD SWAP5 POP PUSH1 0x20 DUP2 ADD SWAP1 POP PUSH2 0xE58 JUMP JUMPDEST DUP7 DUP4 LT ISZERO PUSH2 0xE9A JUMPI DUP5 DUP10 ADD SLOAD PUSH2 0xE96 PUSH1 0x1F DUP10 AND DUP3 PUSH2 0xCB0 JUMP JUMPDEST DUP4 SSTORE POP JUMPDEST PUSH1 0x1 PUSH1 0x2 DUP9 MUL ADD DUP9 SSTORE POP POP POP JUMPDEST POP POP POP POP POP POP JUMPDEST JUMP JUMPDEST PUSH32 0x4E487B7100000000000000000000000000000000000000000000000000000000 PUSH0 MSTORE PUSH1 0x12 PUSH1 0x4 MSTORE PUSH1 0x24 PUSH0 REVERT JUMPDEST PUSH0 PUSH2 0xEE7 DUP3 PUSH2 0x5B8 JUMP JUMPDEST SWAP2 POP PUSH2 0xEF2 DUP4 PUSH2 0x5B8 JUMP JUMPDEST SWAP3 POP DUP3 PUSH2 0xF02 JUMPI PUSH2 0xF01 PUSH2 0xEB0 JUMP JUMPDEST JUMPDEST DUP3 DUP3 DIV SWAP1 POP SWAP3 SWAP2 POP POP JUMP INVALID LOG2 PUSH5 0x6970667358 0x22 SLT KECCAK256 0x24 0x4F 0xE2 SLT 0xC2 0xB2 0x2E 0x2E CALLDATALOAD 0xC6 0xCA 0xC3 PUSH20 0xAAFBA97375729C772DF3F2285AFFA9CD1A8E0F64 PUSH20 0x6F6C634300081900330000000000000000000000 "
		},
		"gasEstimates": {
			"creation": {
				"codeDepositCost": "781400",
				"executionCost": "816",
				"totalCost": "782216"
			},
			"external": {
				"getLowestScoreStudent()": "infinite",
				"getStudent(uint256)": "infinite",
				"getStudents()": "infinite",
				"getTotalScoreAndAvg()": "infinite",
				"setStudent(string,uint256)": "infinite"
			}
		},
		"methodIdentifiers": {
			"getLowestScoreStudent()": "77dfe54e",
			"getStudent(uint256)": "642f9163",
			"getStudents()": "f1d064b3",
			"getTotalScoreAndAvg()": "b2b08963",
			"setStudent(string,uint256)": "9b4d52dd"
		}
	},
	"abi": [
		{
			"inputs": [],
			"name": "getLowestScoreStudent",
			"outputs": [
				{
					"components": [
						{
							"internalType": "uint256",
							"name": "number",
							"type": "uint256"
						},
						{
							"internalType": "string",
							"name": "name",
							"type": "string"
						},
						{
							"internalType": "uint256",
							"name": "score",
							"type": "uint256"
						}
					],
					"internalType": "struct TEST2.Student",
					"name": "",
					"type": "tuple"
				}
			],
			"stateMutability": "view",
			"type": "function"
		},
		{
			"inputs": [
				{
					"internalType": "uint256",
					"name": "_n",
					"type": "uint256"
				}
			],
			"name": "getStudent",
			"outputs": [
				{
					"components": [
						{
							"internalType": "uint256",
							"name": "number",
							"type": "uint256"
						},
						{
							"internalType": "string",
							"name": "name",
							"type": "string"
						},
						{
							"internalType": "uint256",
							"name": "score",
							"type": "uint256"
						}
					],
					"internalType": "struct TEST2.Student",
					"name": "",
					"type": "tuple"
				}
			],
			"stateMutability": "view",
			"type": "function"
		},
		{
			"inputs": [],
			"name": "getStudents",
			"outputs": [
				{
					"components": [
						{
							"internalType": "uint256",
							"name": "number",
							"type": "uint256"
						},
						{
							"internalType": "string",
							"name": "name",
							"type": "string"
						},
						{
							"internalType": "uint256",
							"name": "score",
							"type": "uint256"
						}
					],
					"internalType": "struct TEST2.Student[]",
					"name": "",
					"type": "tuple[]"
				}
			],
			"stateMutability": "view",
			"type": "function"
		},
		{
			"inputs": [],
			"name": "getTotalScoreAndAvg",
			"outputs": [
				{
					"internalType": "uint256",
					"name": "",
					"type": "uint256"
				},
				{
					"internalType": "uint256",
					"name": "",
					"type": "uint256"
				}
			],
			"stateMutability": "view",
			"type": "function"
		},
		{
			"inputs": [
				{
					"internalType": "string",
					"name": "_name",
					"type": "string"
				},
				{
					"internalType": "uint256",
					"name": "_score",
					"type": "uint256"
				}
			],
			"name": "setStudent",
			"outputs": [],
			"stateMutability": "nonpayable",
			"type": "function"
		}
	]
}